{
	"smart_contracts/contracts/Polygon/Token.sol": {
		"Token": {
			"abi": [
				{
					"inputs": [
						{
							"internalType": "address",
							"name": "_dev",
							"type": "address"
						}
					],
					"stateMutability": "nonpayable",
					"type": "constructor"
				},
				{
					"anonymous": false,
					"inputs": [
						{
							"indexed": true,
							"internalType": "address",
							"name": "_owner",
							"type": "address"
						},
						{
							"indexed": true,
							"internalType": "address",
							"name": "_spender",
							"type": "address"
						},
						{
							"indexed": false,
							"internalType": "uint256",
							"name": "_value",
							"type": "uint256"
						}
					],
					"name": "Approval",
					"type": "event"
				},
				{
					"anonymous": false,
					"inputs": [
						{
							"indexed": true,
							"internalType": "address",
							"name": "_from",
							"type": "address"
						},
						{
							"indexed": true,
							"internalType": "address",
							"name": "_to",
							"type": "address"
						},
						{
							"indexed": false,
							"internalType": "uint256",
							"name": "_value",
							"type": "uint256"
						}
					],
					"name": "Transfer",
					"type": "event"
				},
				{
					"anonymous": false,
					"inputs": [
						{
							"indexed": true,
							"internalType": "address",
							"name": "_vault",
							"type": "address"
						}
					],
					"name": "Update",
					"type": "event"
				},
				{
					"anonymous": false,
					"inputs": [
						{
							"indexed": false,
							"internalType": "uint256",
							"name": "_bpFeeBurn",
							"type": "uint256"
						},
						{
							"indexed": false,
							"internalType": "uint256",
							"name": "_bpFeeBank",
							"type": "uint256"
						}
					],
					"name": "UpdateToSettings",
					"type": "event"
				},
				{
					"inputs": [
						{
							"internalType": "address",
							"name": "_owner",
							"type": "address"
						},
						{
							"internalType": "address",
							"name": "_spender",
							"type": "address"
						}
					],
					"name": "allowance",
					"outputs": [
						{
							"internalType": "uint256",
							"name": "remaining",
							"type": "uint256"
						}
					],
					"stateMutability": "view",
					"type": "function"
				},
				{
					"inputs": [
						{
							"internalType": "address",
							"name": "_spender",
							"type": "address"
						},
						{
							"internalType": "uint256",
							"name": "_value",
							"type": "uint256"
						}
					],
					"name": "approve",
					"outputs": [
						{
							"internalType": "bool",
							"name": "",
							"type": "bool"
						}
					],
					"stateMutability": "nonpayable",
					"type": "function"
				},
				{
					"inputs": [
						{
							"internalType": "address",
							"name": "_owner",
							"type": "address"
						}
					],
					"name": "balanceOf",
					"outputs": [
						{
							"internalType": "uint256",
							"name": "",
							"type": "uint256"
						}
					],
					"stateMutability": "view",
					"type": "function"
				},
				{
					"inputs": [
						{
							"internalType": "uint256",
							"name": "_value",
							"type": "uint256"
						}
					],
					"name": "burn",
					"outputs": [
						{
							"internalType": "bool",
							"name": "",
							"type": "bool"
						}
					],
					"stateMutability": "nonpayable",
					"type": "function"
				},
				{
					"inputs": [],
					"name": "decimals",
					"outputs": [
						{
							"internalType": "uint8",
							"name": "",
							"type": "uint8"
						}
					],
					"stateMutability": "view",
					"type": "function"
				},
				{
					"inputs": [],
					"name": "fetchSettings",
					"outputs": [
						{
							"internalType": "uint256",
							"name": "",
							"type": "uint256"
						},
						{
							"internalType": "uint256",
							"name": "",
							"type": "uint256"
						},
						{
							"internalType": "uint256",
							"name": "",
							"type": "uint256"
						},
						{
							"internalType": "uint256",
							"name": "",
							"type": "uint256"
						},
						{
							"internalType": "uint256",
							"name": "",
							"type": "uint256"
						},
						{
							"internalType": "uint256",
							"name": "",
							"type": "uint256"
						}
					],
					"stateMutability": "nonpayable",
					"type": "function"
				},
				{
					"inputs": [
						{
							"internalType": "address",
							"name": "_owner",
							"type": "address"
						}
					],
					"name": "grantPermissionAdmin",
					"outputs": [
						{
							"internalType": "bool",
							"name": "",
							"type": "bool"
						}
					],
					"stateMutability": "nonpayable",
					"type": "function"
				},
				{
					"inputs": [],
					"name": "maxSupply",
					"outputs": [
						{
							"internalType": "uint256",
							"name": "",
							"type": "uint256"
						}
					],
					"stateMutability": "view",
					"type": "function"
				},
				{
					"inputs": [
						{
							"internalType": "address",
							"name": "_to",
							"type": "address"
						},
						{
							"internalType": "uint256",
							"name": "_value",
							"type": "uint256"
						}
					],
					"name": "mint",
					"outputs": [
						{
							"internalType": "bool",
							"name": "",
							"type": "bool"
						}
					],
					"stateMutability": "nonpayable",
					"type": "function"
				},
				{
					"inputs": [
						{
							"internalType": "address",
							"name": "_to",
							"type": "address"
						},
						{
							"internalType": "uint256",
							"name": "_value",
							"type": "uint256"
						},
						{
							"internalType": "uint256",
							"name": "_duration",
							"type": "uint256"
						},
						{
							"internalType": "string",
							"name": "_caption",
							"type": "string"
						}
					],
					"name": "mintWithVesting",
					"outputs": [
						{
							"internalType": "bool",
							"name": "",
							"type": "bool"
						}
					],
					"stateMutability": "nonpayable",
					"type": "function"
				},
				{
					"inputs": [],
					"name": "mintable",
					"outputs": [
						{
							"internalType": "uint256",
							"name": "",
							"type": "uint256"
						}
					],
					"stateMutability": "view",
					"type": "function"
				},
				{
					"inputs": [],
					"name": "name",
					"outputs": [
						{
							"internalType": "string",
							"name": "",
							"type": "string"
						}
					],
					"stateMutability": "view",
					"type": "function"
				},
				{
					"inputs": [
						{
							"internalType": "string",
							"name": "_caption",
							"type": "string"
						}
					],
					"name": "release",
					"outputs": [
						{
							"internalType": "bool",
							"name": "",
							"type": "bool"
						}
					],
					"stateMutability": "nonpayable",
					"type": "function"
				},
				{
					"inputs": [
						{
							"internalType": "address",
							"name": "_owner",
							"type": "address"
						}
					],
					"name": "revokePermissionAdmin",
					"outputs": [
						{
							"internalType": "bool",
							"name": "",
							"type": "bool"
						}
					],
					"stateMutability": "nonpayable",
					"type": "function"
				},
				{
					"inputs": [
						{
							"internalType": "uint256",
							"name": "_value",
							"type": "uint256"
						}
					],
					"name": "stake",
					"outputs": [
						{
							"internalType": "bool",
							"name": "",
							"type": "bool"
						}
					],
					"stateMutability": "nonpayable",
					"type": "function"
				},
				{
					"inputs": [
						{
							"internalType": "address",
							"name": "_owner",
							"type": "address"
						}
					],
					"name": "stakeOf",
					"outputs": [
						{
							"internalType": "uint256",
							"name": "",
							"type": "uint256"
						}
					],
					"stateMutability": "view",
					"type": "function"
				},
				{
					"inputs": [],
					"name": "symbol",
					"outputs": [
						{
							"internalType": "string",
							"name": "",
							"type": "string"
						}
					],
					"stateMutability": "view",
					"type": "function"
				},
				{
					"inputs": [],
					"name": "totalStaked",
					"outputs": [
						{
							"internalType": "uint256",
							"name": "",
							"type": "uint256"
						}
					],
					"stateMutability": "view",
					"type": "function"
				},
				{
					"inputs": [],
					"name": "totalSupply",
					"outputs": [
						{
							"internalType": "uint256",
							"name": "",
							"type": "uint256"
						}
					],
					"stateMutability": "view",
					"type": "function"
				},
				{
					"inputs": [],
					"name": "totalVotes",
					"outputs": [
						{
							"internalType": "uint256",
							"name": "",
							"type": "uint256"
						}
					],
					"stateMutability": "view",
					"type": "function"
				},
				{
					"inputs": [
						{
							"internalType": "address",
							"name": "_to",
							"type": "address"
						},
						{
							"internalType": "uint256",
							"name": "_value",
							"type": "uint256"
						}
					],
					"name": "transfer",
					"outputs": [
						{
							"internalType": "bool",
							"name": "",
							"type": "bool"
						}
					],
					"stateMutability": "nonpayable",
					"type": "function"
				},
				{
					"inputs": [
						{
							"internalType": "address",
							"name": "_from",
							"type": "address"
						},
						{
							"internalType": "address",
							"name": "_to",
							"type": "address"
						},
						{
							"internalType": "uint256",
							"name": "_value",
							"type": "uint256"
						}
					],
					"name": "transferFrom",
					"outputs": [
						{
							"internalType": "bool",
							"name": "",
							"type": "bool"
						}
					],
					"stateMutability": "nonpayable",
					"type": "function"
				},
				{
					"inputs": [
						{
							"internalType": "uint256",
							"name": "_value",
							"type": "uint256"
						}
					],
					"name": "unstake",
					"outputs": [
						{
							"internalType": "bool",
							"name": "",
							"type": "bool"
						}
					],
					"stateMutability": "nonpayable",
					"type": "function"
				},
				{
					"inputs": [
						{
							"internalType": "address",
							"name": "_vault",
							"type": "address"
						}
					],
					"name": "update",
					"outputs": [
						{
							"internalType": "bool",
							"name": "",
							"type": "bool"
						}
					],
					"stateMutability": "nonpayable",
					"type": "function"
				},
				{
					"inputs": [
						{
							"internalType": "uint256",
							"name": "_bpFeeBurn",
							"type": "uint256"
						},
						{
							"internalType": "uint256",
							"name": "_bpFeeBank",
							"type": "uint256"
						}
					],
					"name": "updateSettings",
					"outputs": [
						{
							"internalType": "bool",
							"name": "",
							"type": "bool"
						}
					],
					"stateMutability": "nonpayable",
					"type": "function"
				},
				{
					"inputs": [
						{
							"internalType": "address",
							"name": "_owner",
							"type": "address"
						}
					],
					"name": "votesOf",
					"outputs": [
						{
							"internalType": "uint256",
							"name": "",
							"type": "uint256"
						}
					],
					"stateMutability": "view",
					"type": "function"
				}
			],
			"devdoc": {
				"kind": "dev",
				"methods": {},
				"version": 1
			},
			"evm": {
				"assembly": "    /* \"smart_contracts/contracts/Polygon/Token.sol\":5569:15263  contract Token is Authenticator, IERC20, ICustomToken {... */\n  mstore(0x40, 0xa0)\n    /* \"smart_contracts/contracts/Polygon/Token.sol\":1006:1023  type(uint256).max */\n  0xffffffffffffffffffffffffffffffffffffffffffffffffffffffffffffffff\n    /* \"smart_contracts/contracts/Polygon/Token.sol\":977:1023  uint256 immutable INFINITE = type(uint256).max */\n  0x80\n  swap1\n  dup2\n  mstore\n  pop\n    /* \"smart_contracts/contracts/Polygon/Token.sol\":5630:6352  constructor(address _dev) {... */\n  callvalue\n  dup1\n  iszero\n  tag_1\n  jumpi\n  0x00\n  dup1\n  revert\ntag_1:\n  pop\n  mload(0x40)\n  sub(codesize, bytecodeSize)\n  dup1\n  bytecodeSize\n  dup4\n  codecopy\n  dup2\n  dup2\n  add\n  0x40\n  mstore\n  dup2\n  add\n  swap1\n  tag_2\n  swap2\n  swap1\n  tag_3\n  jump\t// in\ntag_2:\n    /* \"smart_contracts/contracts/Polygon/Token.sol\":5689:5693  true */\n  0x01\n    /* \"smart_contracts/contracts/Polygon/Token.sol\":5666:5671  admin */\n  0x00\n    /* \"smart_contracts/contracts/Polygon/Token.sol\":5666:5686  admin[address(this)] */\n  dup1\n    /* \"smart_contracts/contracts/Polygon/Token.sol\":5680:5684  this */\n  address\n    /* \"smart_contracts/contracts/Polygon/Token.sol\":5666:5686  admin[address(this)] */\n  0xffffffffffffffffffffffffffffffffffffffff\n  and\n  0xffffffffffffffffffffffffffffffffffffffff\n  and\n  dup2\n  mstore\n  0x20\n  add\n  swap1\n  dup2\n  mstore\n  0x20\n  add\n  0x00\n  keccak256\n  0x00\n    /* \"smart_contracts/contracts/Polygon/Token.sol\":5666:5693  admin[address(this)] = true */\n  0x0100\n  exp\n  dup2\n  sload\n  dup2\n  0xff\n  mul\n  not\n  and\n  swap1\n  dup4\n  iszero\n  iszero\n  mul\n  or\n  swap1\n  sstore\n  pop\n    /* \"smart_contracts/contracts/Polygon/Token.sol\":5722:5726  true */\n  0x01\n    /* \"smart_contracts/contracts/Polygon/Token.sol\":5703:5708  admin */\n  0x00\n    /* \"smart_contracts/contracts/Polygon/Token.sol\":5703:5714  admin[_dev] */\n  dup1\n    /* \"smart_contracts/contracts/Polygon/Token.sol\":5709:5713  _dev */\n  dup4\n    /* \"smart_contracts/contracts/Polygon/Token.sol\":5703:5714  admin[_dev] */\n  0xffffffffffffffffffffffffffffffffffffffff\n  and\n  0xffffffffffffffffffffffffffffffffffffffff\n  and\n  dup2\n  mstore\n  0x20\n  add\n  swap1\n  dup2\n  mstore\n  0x20\n  add\n  0x00\n  keccak256\n  0x00\n    /* \"smart_contracts/contracts/Polygon/Token.sol\":5703:5726  admin[_dev]      = true */\n  0x0100\n  exp\n  dup2\n  sload\n  dup2\n  0xff\n  mul\n  not\n  and\n  swap1\n  dup4\n  iszero\n  iszero\n  mul\n  or\n  swap1\n  sstore\n  pop\n    /* \"smart_contracts/contracts/Polygon/Token.sol\":5737:5770  meta.name        = \"Dreamcatcher\" */\n  mload(0x40)\n  dup1\n  0x40\n  add\n  0x40\n  mstore\n  dup1\n  0x0c\n  dup2\n  mstore\n  0x20\n  add\n  0x447265616d636174636865720000000000000000000000000000000000000000\n  dup2\n  mstore\n  pop\n    /* \"smart_contracts/contracts/Polygon/Token.sol\":5737:5741  meta */\n  0x07\n    /* \"smart_contracts/contracts/Polygon/Token.sol\":5737:5746  meta.name */\n  0x00\n  add\n    /* \"smart_contracts/contracts/Polygon/Token.sol\":5737:5770  meta.name        = \"Dreamcatcher\" */\n  swap1\n  dup2\n  tag_6\n  swap2\n  swap1\n  tag_7\n  jump\t// in\ntag_6:\n  pop\n    /* \"smart_contracts/contracts/Polygon/Token.sol\":5780:5806  meta.symbol      = \"DREAM\" */\n  mload(0x40)\n  dup1\n  0x40\n  add\n  0x40\n  mstore\n  dup1\n  0x05\n  dup2\n  mstore\n  0x20\n  add\n  0x445245414d000000000000000000000000000000000000000000000000000000\n  dup2\n  mstore\n  pop\n    /* \"smart_contracts/contracts/Polygon/Token.sol\":5780:5784  meta */\n  0x07\n    /* \"smart_contracts/contracts/Polygon/Token.sol\":5780:5791  meta.symbol */\n  0x01\n  add\n    /* \"smart_contracts/contracts/Polygon/Token.sol\":5780:5806  meta.symbol      = \"DREAM\" */\n  swap1\n  dup2\n  tag_8\n  swap2\n  swap1\n  tag_7\n  jump\t// in\ntag_8:\n  pop\n    /* \"smart_contracts/contracts/Polygon/Token.sol\":5835:5837  18 */\n  0x12\n    /* \"smart_contracts/contracts/Polygon/Token.sol\":5816:5820  meta */\n  0x07\n    /* \"smart_contracts/contracts/Polygon/Token.sol\":5816:5829  meta.decimals */\n  0x02\n  add\n  0x00\n    /* \"smart_contracts/contracts/Polygon/Token.sol\":5816:5837  meta.decimals    = 18 */\n  0x0100\n  exp\n  dup2\n  sload\n  dup2\n  0xff\n  mul\n  not\n  and\n  swap1\n  dup4\n  0xff\n  and\n  mul\n  or\n  swap1\n  sstore\n  pop\n    /* \"smart_contracts/contracts/Polygon/Token.sol\":5866:5867  0 */\n  0x00\n    /* \"smart_contracts/contracts/Polygon/Token.sol\":5847:5851  meta */\n  0x07\n    /* \"smart_contracts/contracts/Polygon/Token.sol\":5847:5863  meta.totalSupply */\n  0x04\n  add\n    /* \"smart_contracts/contracts/Polygon/Token.sol\":5847:5867  meta.totalSupply = 0 */\n  dup2\n  swap1\n  sstore\n  pop\n    /* \"smart_contracts/contracts/Polygon/Token.sol\":5912:5916  meta */\n  0x07\n    /* \"smart_contracts/contracts/Polygon/Token.sol\":5912:5925  meta.decimals */\n  0x02\n  add\n  0x00\n  swap1\n  sload\n  swap1\n  0x0100\n  exp\n  swap1\n  div\n  0xff\n  and\n    /* \"smart_contracts/contracts/Polygon/Token.sol\":5908:5910  10 */\n  0x0a\n    /* \"smart_contracts/contracts/Polygon/Token.sol\":5908:5925  10**meta.decimals */\n  tag_9\n  swap2\n  swap1\n  tag_10\n  jump\t// in\ntag_9:\n    /* \"smart_contracts/contracts/Polygon/Token.sol\":5896:5905  200000000 */\n  0x0bebc200\n    /* \"smart_contracts/contracts/Polygon/Token.sol\":5896:5925  200000000 * 10**meta.decimals */\n  tag_11\n  swap2\n  swap1\n  tag_12\n  jump\t// in\ntag_11:\n    /* \"smart_contracts/contracts/Polygon/Token.sol\":5877:5881  meta */\n  0x07\n    /* \"smart_contracts/contracts/Polygon/Token.sol\":5877:5891  meta.maxSupply */\n  0x08\n  add\n    /* \"smart_contracts/contracts/Polygon/Token.sol\":5877:5925  meta.maxSupply   = 200000000 * 10**meta.decimals */\n  dup2\n  swap1\n  sstore\n  pop\n    /* \"smart_contracts/contracts/Polygon/Token.sol\":5970:5974  meta */\n  0x07\n    /* \"smart_contracts/contracts/Polygon/Token.sol\":5970:5983  meta.decimals */\n  0x02\n  add\n  0x00\n  swap1\n  sload\n  swap1\n  0x0100\n  exp\n  swap1\n  div\n  0xff\n  and\n    /* \"smart_contracts/contracts/Polygon/Token.sol\":5966:5968  10 */\n  0x0a\n    /* \"smart_contracts/contracts/Polygon/Token.sol\":5966:5983  10**meta.decimals */\n  tag_13\n  swap2\n  swap1\n  tag_10\n  jump\t// in\ntag_13:\n    /* \"smart_contracts/contracts/Polygon/Token.sol\":5954:5963  200000000 */\n  0x0bebc200\n    /* \"smart_contracts/contracts/Polygon/Token.sol\":5954:5983  200000000 * 10**meta.decimals */\n  tag_14\n  swap2\n  swap1\n  tag_12\n  jump\t// in\ntag_14:\n    /* \"smart_contracts/contracts/Polygon/Token.sol\":5935:5939  meta */\n  0x07\n    /* \"smart_contracts/contracts/Polygon/Token.sol\":5935:5948  meta.mintable */\n  0x03\n  add\n    /* \"smart_contracts/contracts/Polygon/Token.sol\":5935:5983  meta.mintable    = 200000000 * 10**meta.decimals */\n  dup2\n  swap1\n  sstore\n  pop\n    /* \"smart_contracts/contracts/Polygon/Token.sol\":6020:6024  this */\n  address\n    /* \"smart_contracts/contracts/Polygon/Token.sol\":5993:5997  meta */\n  0x07\n    /* \"smart_contracts/contracts/Polygon/Token.sol\":5993:6003  meta.vault */\n  0x09\n  add\n  0x00\n    /* \"smart_contracts/contracts/Polygon/Token.sol\":5993:6025  meta.vault       = address(this) */\n  0x0100\n  exp\n  dup2\n  sload\n  dup2\n  0xffffffffffffffffffffffffffffffffffffffff\n  mul\n  not\n  and\n  swap1\n  dup4\n  0xffffffffffffffffffffffffffffffffffffffff\n  and\n  mul\n  or\n  swap1\n  sstore\n  pop\n    /* \"smart_contracts/contracts/Polygon/Token.sol\":6067:6068  0 */\n  0x00\n    /* \"smart_contracts/contracts/Polygon/Token.sol\":6036:6044  settings */\n  0x01\n    /* \"smart_contracts/contracts/Polygon/Token.sol\":6036:6059  settings.bpTransferBurn */\n  0x04\n  add\n    /* \"smart_contracts/contracts/Polygon/Token.sol\":6036:6068  settings.bpTransferBurn      = 0 */\n  dup2\n  swap1\n  sstore\n  pop\n    /* \"smart_contracts/contracts/Polygon/Token.sol\":6109:6110  0 */\n  0x00\n    /* \"smart_contracts/contracts/Polygon/Token.sol\":6078:6086  settings */\n  0x01\n    /* \"smart_contracts/contracts/Polygon/Token.sol\":6078:6101  settings.bpTransferBank */\n  0x05\n  add\n    /* \"smart_contracts/contracts/Polygon/Token.sol\":6078:6110  settings.bpTransferBank      = 0 */\n  dup2\n  swap1\n  sstore\n  pop\n    /* \"smart_contracts/contracts/Polygon/Token.sol\":6151:6152  0 */\n  0x00\n    /* \"smart_contracts/contracts/Polygon/Token.sol\":6120:6128  settings */\n  0x01\n    /* \"smart_contracts/contracts/Polygon/Token.sol\":6120:6146  settings.bpTransferBurnMin */\n  0x00\n  add\n    /* \"smart_contracts/contracts/Polygon/Token.sol\":6120:6152  settings.bpTransferBurnMin   = 0 */\n  dup2\n  swap1\n  sstore\n  pop\n    /* \"smart_contracts/contracts/Polygon/Token.sol\":6193:6194  0 */\n  0x00\n    /* \"smart_contracts/contracts/Polygon/Token.sol\":6162:6170  settings */\n  0x01\n    /* \"smart_contracts/contracts/Polygon/Token.sol\":6162:6188  settings.bpTransferBankMin */\n  dup1\n  add\n    /* \"smart_contracts/contracts/Polygon/Token.sol\":6162:6194  settings.bpTransferBankMin   = 0 */\n  dup2\n  swap1\n  sstore\n  pop\n    /* \"smart_contracts/contracts/Polygon/Token.sol\":6235:6240  10000 */\n  0x2710\n    /* \"smart_contracts/contracts/Polygon/Token.sol\":6204:6212  settings */\n  0x01\n    /* \"smart_contracts/contracts/Polygon/Token.sol\":6204:6230  settings.bpTransferBurnMax */\n  0x02\n  add\n    /* \"smart_contracts/contracts/Polygon/Token.sol\":6204:6240  settings.bpTransferBurnMax   = 10000 */\n  dup2\n  swap1\n  sstore\n  pop\n    /* \"smart_contracts/contracts/Polygon/Token.sol\":6281:6286  10000 */\n  0x2710\n    /* \"smart_contracts/contracts/Polygon/Token.sol\":6250:6258  settings */\n  0x01\n    /* \"smart_contracts/contracts/Polygon/Token.sol\":6250:6276  settings.bpTransferBankMax */\n  0x03\n  add\n    /* \"smart_contracts/contracts/Polygon/Token.sol\":6250:6286  settings.bpTransferBankMax   = 10000 */\n  dup2\n  swap1\n  sstore\n  pop\n    /* \"smart_contracts/contracts/Polygon/Token.sol\":6297:6345  mint_(msg.sender, 200000000 * 10**meta.decimals) */\n  tag_15\n    /* \"smart_contracts/contracts/Polygon/Token.sol\":6303:6313  msg.sender */\n  caller\n    /* \"smart_contracts/contracts/Polygon/Token.sol\":6331:6335  meta */\n  0x07\n    /* \"smart_contracts/contracts/Polygon/Token.sol\":6331:6344  meta.decimals */\n  0x02\n  add\n  0x00\n  swap1\n  sload\n  swap1\n  0x0100\n  exp\n  swap1\n  div\n  0xff\n  and\n    /* \"smart_contracts/contracts/Polygon/Token.sol\":6327:6329  10 */\n  0x0a\n    /* \"smart_contracts/contracts/Polygon/Token.sol\":6327:6344  10**meta.decimals */\n  tag_16\n  swap2\n  swap1\n  tag_10\n  jump\t// in\ntag_16:\n    /* \"smart_contracts/contracts/Polygon/Token.sol\":6315:6324  200000000 */\n  0x0bebc200\n    /* \"smart_contracts/contracts/Polygon/Token.sol\":6315:6344  200000000 * 10**meta.decimals */\n  tag_17\n  swap2\n  swap1\n  tag_12\n  jump\t// in\ntag_17:\n    /* \"smart_contracts/contracts/Polygon/Token.sol\":6297:6302  mint_ */\n  shl(0x20, tag_18)\n    /* \"smart_contracts/contracts/Polygon/Token.sol\":6297:6345  mint_(msg.sender, 200000000 * 10**meta.decimals) */\n  0x20\n  shr\n  jump\t// in\ntag_15:\n  pop\n    /* \"smart_contracts/contracts/Polygon/Token.sol\":5630:6352  constructor(address _dev) {... */\n  pop\n    /* \"smart_contracts/contracts/Polygon/Token.sol\":5569:15263  contract Token is Authenticator, IERC20, ICustomToken {... */\n  jump(tag_19)\n    /* \"smart_contracts/contracts/Polygon/Token.sol\":7288:7682  function mint_(address _to, uint256 _value) internal returns (bool) {... */\ntag_18:\n    /* \"smart_contracts/contracts/Polygon/Token.sol\":7350:7354  bool */\n  0x00\n    /* \"smart_contracts/contracts/Polygon/Token.sol\":7366:7379  address _from */\n  dup1\n    /* \"smart_contracts/contracts/Polygon/Token.sol\":7390:7391  0 */\n  0x00\n    /* \"smart_contracts/contracts/Polygon/Token.sol\":7366:7392  address _from = address(0) */\n  swap1\n  pop\n    /* \"smart_contracts/contracts/Polygon/Token.sol\":7433:7434  0 */\n  0x00\n    /* \"smart_contracts/contracts/Polygon/Token.sol\":7423:7429  _value */\n  dup4\n    /* \"smart_contracts/contracts/Polygon/Token.sol\":7423:7434  _value >= 0 */\n  lt\n  iszero\n    /* \"smart_contracts/contracts/Polygon/Token.sol\":7423:7473  _value >= 0 &&... */\n  dup1\n  iszero\n  tag_21\n  jumpi\n  pop\n    /* \"smart_contracts/contracts/Polygon/Token.sol\":7460:7464  meta */\n  0x07\n    /* \"smart_contracts/contracts/Polygon/Token.sol\":7460:7473  meta.mintable */\n  0x03\n  add\n  sload\n    /* \"smart_contracts/contracts/Polygon/Token.sol\":7450:7456  _value */\n  dup4\n    /* \"smart_contracts/contracts/Polygon/Token.sol\":7450:7473  _value <= meta.mintable */\n  gt\n  iszero\n    /* \"smart_contracts/contracts/Polygon/Token.sol\":7423:7473  _value >= 0 &&... */\ntag_21:\n    /* \"smart_contracts/contracts/Polygon/Token.sol\":7423:7506  _value >= 0 &&... */\n  dup1\n  iszero\n  tag_22\n  jumpi\n  pop\n    /* \"smart_contracts/contracts/Polygon/Token.sol\":7504:7505  0 */\n  0x00\n    /* \"smart_contracts/contracts/Polygon/Token.sol\":7489:7506  _to != address(0) */\n  0xffffffffffffffffffffffffffffffffffffffff\n  and\n    /* \"smart_contracts/contracts/Polygon/Token.sol\":7489:7492  _to */\n  dup5\n    /* \"smart_contracts/contracts/Polygon/Token.sol\":7489:7506  _to != address(0) */\n  0xffffffffffffffffffffffffffffffffffffffff\n  and\n  eq\n  iszero\n    /* \"smart_contracts/contracts/Polygon/Token.sol\":7423:7506  _value >= 0 &&... */\ntag_22:\n    /* \"smart_contracts/contracts/Polygon/Token.sol\":7402:7516  require(... */\n  tag_23\n  jumpi\n  0x00\n  dup1\n  revert\ntag_23:\n    /* \"smart_contracts/contracts/Polygon/Token.sol\":7543:7549  _value */\n  dup3\n    /* \"smart_contracts/contracts/Polygon/Token.sol\":7526:7530  meta */\n  0x07\n    /* \"smart_contracts/contracts/Polygon/Token.sol\":7526:7539  meta.mintable */\n  0x03\n  add\n  0x00\n    /* \"smart_contracts/contracts/Polygon/Token.sol\":7526:7549  meta.mintable -= _value */\n  dup3\n  dup3\n  sload\n  tag_24\n  swap2\n  swap1\n  tag_25\n  jump\t// in\ntag_24:\n  swap3\n  pop\n  pop\n  dup2\n  swap1\n  sstore\n  pop\n    /* \"smart_contracts/contracts/Polygon/Token.sol\":7576:7582  _value */\n  dup3\n    /* \"smart_contracts/contracts/Polygon/Token.sol\":7560:7567  balance */\n  0x11\n    /* \"smart_contracts/contracts/Polygon/Token.sol\":7560:7572  balance[_to] */\n  0x00\n    /* \"smart_contracts/contracts/Polygon/Token.sol\":7568:7571  _to */\n  dup7\n    /* \"smart_contracts/contracts/Polygon/Token.sol\":7560:7572  balance[_to] */\n  0xffffffffffffffffffffffffffffffffffffffff\n  and\n  0xffffffffffffffffffffffffffffffffffffffff\n  and\n  dup2\n  mstore\n  0x20\n  add\n  swap1\n  dup2\n  mstore\n  0x20\n  add\n  0x00\n  keccak256\n  0x00\n    /* \"smart_contracts/contracts/Polygon/Token.sol\":7560:7582  balance[_to] += _value */\n  dup3\n  dup3\n  sload\n  tag_26\n  swap2\n  swap1\n  tag_27\n  jump\t// in\ntag_26:\n  swap3\n  pop\n  pop\n  dup2\n  swap1\n  sstore\n    /* \"smart_contracts/contracts/Polygon/Token.sol\":7604:7610  _value */\n  dup4\n    /* \"smart_contracts/contracts/Polygon/Token.sol\":7584:7588  meta */\n  0x07\n    /* \"smart_contracts/contracts/Polygon/Token.sol\":7584:7600  meta.totalSupply */\n  0x04\n  add\n  0x00\n    /* \"smart_contracts/contracts/Polygon/Token.sol\":7584:7610  meta.totalSupply += _value */\n  dup3\n  dup3\n  sload\n  tag_28\n  swap2\n  swap1\n  tag_27\n  jump\t// in\ntag_28:\n  swap3\n  pop\n  pop\n  dup2\n  swap1\n  sstore\n    /* \"smart_contracts/contracts/Polygon/Token.sol\":7559:7611  (balance[_to] += _value, meta.totalSupply += _value) */\n  pop\n  pop\n    /* \"smart_contracts/contracts/Polygon/Token.sol\":7642:7645  _to */\n  dup4\n    /* \"smart_contracts/contracts/Polygon/Token.sol\":7626:7654  Transfer(_from, _to, _value) */\n  0xffffffffffffffffffffffffffffffffffffffff\n  and\n    /* \"smart_contracts/contracts/Polygon/Token.sol\":7635:7640  _from */\n  dup2\n    /* \"smart_contracts/contracts/Polygon/Token.sol\":7626:7654  Transfer(_from, _to, _value) */\n  0xffffffffffffffffffffffffffffffffffffffff\n  and\n  0xddf252ad1be2c89b69c2b068fc378daa952ba7f163c4a11628f55a4df523b3ef\n    /* \"smart_contracts/contracts/Polygon/Token.sol\":7647:7653  _value */\n  dup6\n    /* \"smart_contracts/contracts/Polygon/Token.sol\":7626:7654  Transfer(_from, _to, _value) */\n  mload(0x40)\n  tag_29\n  swap2\n  swap1\n  tag_30\n  jump\t// in\ntag_29:\n  mload(0x40)\n  dup1\n  swap2\n  sub\n  swap1\n  log3\n    /* \"smart_contracts/contracts/Polygon/Token.sol\":7671:7675  true */\n  0x01\n    /* \"smart_contracts/contracts/Polygon/Token.sol\":7664:7675  return true */\n  swap2\n  pop\n  pop\n    /* \"smart_contracts/contracts/Polygon/Token.sol\":7288:7682  function mint_(address _to, uint256 _value) internal returns (bool) {... */\n  swap3\n  swap2\n  pop\n  pop\n  jump\t// out\n    /* \"#utility.yul\":88:205   */\ntag_32:\n    /* \"#utility.yul\":197:198   */\n  0x00\n    /* \"#utility.yul\":194:195   */\n  dup1\n    /* \"#utility.yul\":187:199   */\n  revert\n    /* \"#utility.yul\":334:460   */\ntag_34:\n    /* \"#utility.yul\":371:378   */\n  0x00\n    /* \"#utility.yul\":411:453   */\n  0xffffffffffffffffffffffffffffffffffffffff\n    /* \"#utility.yul\":404:409   */\n  dup3\n    /* \"#utility.yul\":400:454   */\n  and\n    /* \"#utility.yul\":389:454   */\n  swap1\n  pop\n    /* \"#utility.yul\":334:460   */\n  swap2\n  swap1\n  pop\n  jump\t// out\n    /* \"#utility.yul\":466:562   */\ntag_35:\n    /* \"#utility.yul\":503:510   */\n  0x00\n    /* \"#utility.yul\":532:556   */\n  tag_70\n    /* \"#utility.yul\":550:555   */\n  dup3\n    /* \"#utility.yul\":532:556   */\n  tag_34\n  jump\t// in\ntag_70:\n    /* \"#utility.yul\":521:556   */\n  swap1\n  pop\n    /* \"#utility.yul\":466:562   */\n  swap2\n  swap1\n  pop\n  jump\t// out\n    /* \"#utility.yul\":568:690   */\ntag_36:\n    /* \"#utility.yul\":641:665   */\n  tag_72\n    /* \"#utility.yul\":659:664   */\n  dup2\n    /* \"#utility.yul\":641:665   */\n  tag_35\n  jump\t// in\ntag_72:\n    /* \"#utility.yul\":634:639   */\n  dup2\n    /* \"#utility.yul\":631:666   */\n  eq\n    /* \"#utility.yul\":621:684   */\n  tag_73\n  jumpi\n    /* \"#utility.yul\":680:681   */\n  0x00\n    /* \"#utility.yul\":677:678   */\n  dup1\n    /* \"#utility.yul\":670:682   */\n  revert\n    /* \"#utility.yul\":621:684   */\ntag_73:\n    /* \"#utility.yul\":568:690   */\n  pop\n  jump\t// out\n    /* \"#utility.yul\":696:839   */\ntag_37:\n    /* \"#utility.yul\":753:758   */\n  0x00\n    /* \"#utility.yul\":784:790   */\n  dup2\n    /* \"#utility.yul\":778:791   */\n  mload\n    /* \"#utility.yul\":769:791   */\n  swap1\n  pop\n    /* \"#utility.yul\":800:833   */\n  tag_75\n    /* \"#utility.yul\":827:832   */\n  dup2\n    /* \"#utility.yul\":800:833   */\n  tag_36\n  jump\t// in\ntag_75:\n    /* \"#utility.yul\":696:839   */\n  swap3\n  swap2\n  pop\n  pop\n  jump\t// out\n    /* \"#utility.yul\":845:1196   */\ntag_3:\n    /* \"#utility.yul\":915:921   */\n  0x00\n    /* \"#utility.yul\":964:966   */\n  0x20\n    /* \"#utility.yul\":952:961   */\n  dup3\n    /* \"#utility.yul\":943:950   */\n  dup5\n    /* \"#utility.yul\":939:962   */\n  sub\n    /* \"#utility.yul\":935:967   */\n  slt\n    /* \"#utility.yul\":932:1051   */\n  iszero\n  tag_77\n  jumpi\n    /* \"#utility.yul\":970:1049   */\n  tag_78\n  tag_32\n  jump\t// in\ntag_78:\n    /* \"#utility.yul\":932:1051   */\ntag_77:\n    /* \"#utility.yul\":1090:1091   */\n  0x00\n    /* \"#utility.yul\":1115:1179   */\n  tag_79\n    /* \"#utility.yul\":1171:1178   */\n  dup5\n    /* \"#utility.yul\":1162:1168   */\n  dup3\n    /* \"#utility.yul\":1151:1160   */\n  dup6\n    /* \"#utility.yul\":1147:1169   */\n  add\n    /* \"#utility.yul\":1115:1179   */\n  tag_37\n  jump\t// in\ntag_79:\n    /* \"#utility.yul\":1105:1179   */\n  swap2\n  pop\n    /* \"#utility.yul\":1061:1189   */\n  pop\n    /* \"#utility.yul\":845:1196   */\n  swap3\n  swap2\n  pop\n  pop\n  jump\t// out\n    /* \"#utility.yul\":1202:1301   */\ntag_38:\n    /* \"#utility.yul\":1254:1260   */\n  0x00\n    /* \"#utility.yul\":1288:1293   */\n  dup2\n    /* \"#utility.yul\":1282:1294   */\n  mload\n    /* \"#utility.yul\":1272:1294   */\n  swap1\n  pop\n    /* \"#utility.yul\":1202:1301   */\n  swap2\n  swap1\n  pop\n  jump\t// out\n    /* \"#utility.yul\":1307:1487   */\ntag_39:\n    /* \"#utility.yul\":1355:1432   */\n  0x4e487b7100000000000000000000000000000000000000000000000000000000\n    /* \"#utility.yul\":1352:1353   */\n  0x00\n    /* \"#utility.yul\":1345:1433   */\n  mstore\n    /* \"#utility.yul\":1452:1456   */\n  0x41\n    /* \"#utility.yul\":1449:1450   */\n  0x04\n    /* \"#utility.yul\":1442:1457   */\n  mstore\n    /* \"#utility.yul\":1476:1480   */\n  0x24\n    /* \"#utility.yul\":1473:1474   */\n  0x00\n    /* \"#utility.yul\":1466:1481   */\n  revert\n    /* \"#utility.yul\":1493:1673   */\ntag_40:\n    /* \"#utility.yul\":1541:1618   */\n  0x4e487b7100000000000000000000000000000000000000000000000000000000\n    /* \"#utility.yul\":1538:1539   */\n  0x00\n    /* \"#utility.yul\":1531:1619   */\n  mstore\n    /* \"#utility.yul\":1638:1642   */\n  0x22\n    /* \"#utility.yul\":1635:1636   */\n  0x04\n    /* \"#utility.yul\":1628:1643   */\n  mstore\n    /* \"#utility.yul\":1662:1666   */\n  0x24\n    /* \"#utility.yul\":1659:1660   */\n  0x00\n    /* \"#utility.yul\":1652:1667   */\n  revert\n    /* \"#utility.yul\":1679:1999   */\ntag_41:\n    /* \"#utility.yul\":1723:1729   */\n  0x00\n    /* \"#utility.yul\":1760:1761   */\n  0x02\n    /* \"#utility.yul\":1754:1758   */\n  dup3\n    /* \"#utility.yul\":1750:1762   */\n  div\n    /* \"#utility.yul\":1740:1762   */\n  swap1\n  pop\n    /* \"#utility.yul\":1807:1808   */\n  0x01\n    /* \"#utility.yul\":1801:1805   */\n  dup3\n    /* \"#utility.yul\":1797:1809   */\n  and\n    /* \"#utility.yul\":1828:1846   */\n  dup1\n    /* \"#utility.yul\":1818:1899   */\n  tag_84\n  jumpi\n    /* \"#utility.yul\":1884:1888   */\n  0x7f\n    /* \"#utility.yul\":1876:1882   */\n  dup3\n    /* \"#utility.yul\":1872:1889   */\n  and\n    /* \"#utility.yul\":1862:1889   */\n  swap2\n  pop\n    /* \"#utility.yul\":1818:1899   */\ntag_84:\n    /* \"#utility.yul\":1946:1948   */\n  0x20\n    /* \"#utility.yul\":1938:1944   */\n  dup3\n    /* \"#utility.yul\":1935:1949   */\n  lt\n    /* \"#utility.yul\":1915:1933   */\n  dup2\n    /* \"#utility.yul\":1912:1950   */\n  sub\n    /* \"#utility.yul\":1909:1993   */\n  tag_85\n  jumpi\n    /* \"#utility.yul\":1965:1983   */\n  tag_86\n  tag_40\n  jump\t// in\ntag_86:\n    /* \"#utility.yul\":1909:1993   */\ntag_85:\n    /* \"#utility.yul\":1730:1999   */\n  pop\n    /* \"#utility.yul\":1679:1999   */\n  swap2\n  swap1\n  pop\n  jump\t// out\n    /* \"#utility.yul\":2005:2146   */\ntag_42:\n    /* \"#utility.yul\":2054:2058   */\n  0x00\n    /* \"#utility.yul\":2077:2080   */\n  dup2\n    /* \"#utility.yul\":2069:2080   */\n  swap1\n  pop\n    /* \"#utility.yul\":2100:2103   */\n  dup2\n    /* \"#utility.yul\":2097:2098   */\n  0x00\n    /* \"#utility.yul\":2090:2104   */\n  mstore\n    /* \"#utility.yul\":2134:2138   */\n  0x20\n    /* \"#utility.yul\":2131:2132   */\n  0x00\n    /* \"#utility.yul\":2121:2139   */\n  keccak256\n    /* \"#utility.yul\":2113:2139   */\n  swap1\n  pop\n    /* \"#utility.yul\":2005:2146   */\n  swap2\n  swap1\n  pop\n  jump\t// out\n    /* \"#utility.yul\":2152:2245   */\ntag_43:\n    /* \"#utility.yul\":2189:2195   */\n  0x00\n    /* \"#utility.yul\":2236:2238   */\n  0x20\n    /* \"#utility.yul\":2231:2233   */\n  0x1f\n    /* \"#utility.yul\":2224:2229   */\n  dup4\n    /* \"#utility.yul\":2220:2234   */\n  add\n    /* \"#utility.yul\":2216:2239   */\n  div\n    /* \"#utility.yul\":2206:2239   */\n  swap1\n  pop\n    /* \"#utility.yul\":2152:2245   */\n  swap2\n  swap1\n  pop\n  jump\t// out\n    /* \"#utility.yul\":2251:2358   */\ntag_44:\n    /* \"#utility.yul\":2295:2303   */\n  0x00\n    /* \"#utility.yul\":2345:2350   */\n  dup3\n    /* \"#utility.yul\":2339:2343   */\n  dup3\n    /* \"#utility.yul\":2335:2351   */\n  shl\n    /* \"#utility.yul\":2314:2351   */\n  swap1\n  pop\n    /* \"#utility.yul\":2251:2358   */\n  swap3\n  swap2\n  pop\n  pop\n  jump\t// out\n    /* \"#utility.yul\":2364:2757   */\ntag_45:\n    /* \"#utility.yul\":2433:2439   */\n  0x00\n    /* \"#utility.yul\":2483:2484   */\n  0x08\n    /* \"#utility.yul\":2471:2481   */\n  dup4\n    /* \"#utility.yul\":2467:2485   */\n  mul\n    /* \"#utility.yul\":2506:2603   */\n  tag_91\n    /* \"#utility.yul\":2536:2602   */\n  0xffffffffffffffffffffffffffffffffffffffffffffffffffffffffffffffff\n    /* \"#utility.yul\":2525:2534   */\n  dup3\n    /* \"#utility.yul\":2506:2603   */\n  tag_44\n  jump\t// in\ntag_91:\n    /* \"#utility.yul\":2624:2663   */\n  tag_92\n    /* \"#utility.yul\":2654:2662   */\n  dup7\n    /* \"#utility.yul\":2643:2652   */\n  dup4\n    /* \"#utility.yul\":2624:2663   */\n  tag_44\n  jump\t// in\ntag_92:\n    /* \"#utility.yul\":2612:2663   */\n  swap6\n  pop\n    /* \"#utility.yul\":2696:2700   */\n  dup1\n    /* \"#utility.yul\":2692:2701   */\n  not\n    /* \"#utility.yul\":2685:2690   */\n  dup5\n    /* \"#utility.yul\":2681:2702   */\n  and\n    /* \"#utility.yul\":2672:2702   */\n  swap4\n  pop\n    /* \"#utility.yul\":2745:2749   */\n  dup1\n    /* \"#utility.yul\":2735:2743   */\n  dup7\n    /* \"#utility.yul\":2731:2750   */\n  and\n    /* \"#utility.yul\":2724:2729   */\n  dup5\n    /* \"#utility.yul\":2721:2751   */\n  or\n    /* \"#utility.yul\":2711:2751   */\n  swap3\n  pop\n    /* \"#utility.yul\":2440:2757   */\n  pop\n  pop\n    /* \"#utility.yul\":2364:2757   */\n  swap4\n  swap3\n  pop\n  pop\n  pop\n  jump\t// out\n    /* \"#utility.yul\":2763:2840   */\ntag_46:\n    /* \"#utility.yul\":2800:2807   */\n  0x00\n    /* \"#utility.yul\":2829:2834   */\n  dup2\n    /* \"#utility.yul\":2818:2834   */\n  swap1\n  pop\n    /* \"#utility.yul\":2763:2840   */\n  swap2\n  swap1\n  pop\n  jump\t// out\n    /* \"#utility.yul\":2846:2906   */\ntag_47:\n    /* \"#utility.yul\":2874:2877   */\n  0x00\n    /* \"#utility.yul\":2895:2900   */\n  dup2\n    /* \"#utility.yul\":2888:2900   */\n  swap1\n  pop\n    /* \"#utility.yul\":2846:2906   */\n  swap2\n  swap1\n  pop\n  jump\t// out\n    /* \"#utility.yul\":2912:3054   */\ntag_48:\n    /* \"#utility.yul\":2962:2971   */\n  0x00\n    /* \"#utility.yul\":2995:3048   */\n  tag_96\n    /* \"#utility.yul\":3013:3047   */\n  tag_97\n    /* \"#utility.yul\":3022:3046   */\n  tag_98\n    /* \"#utility.yul\":3040:3045   */\n  dup5\n    /* \"#utility.yul\":3022:3046   */\n  tag_46\n  jump\t// in\ntag_98:\n    /* \"#utility.yul\":3013:3047   */\n  tag_47\n  jump\t// in\ntag_97:\n    /* \"#utility.yul\":2995:3048   */\n  tag_46\n  jump\t// in\ntag_96:\n    /* \"#utility.yul\":2982:3048   */\n  swap1\n  pop\n    /* \"#utility.yul\":2912:3054   */\n  swap2\n  swap1\n  pop\n  jump\t// out\n    /* \"#utility.yul\":3060:3135   */\ntag_49:\n    /* \"#utility.yul\":3103:3106   */\n  0x00\n    /* \"#utility.yul\":3124:3129   */\n  dup2\n    /* \"#utility.yul\":3117:3129   */\n  swap1\n  pop\n    /* \"#utility.yul\":3060:3135   */\n  swap2\n  swap1\n  pop\n  jump\t// out\n    /* \"#utility.yul\":3141:3410   */\ntag_50:\n    /* \"#utility.yul\":3251:3290   */\n  tag_101\n    /* \"#utility.yul\":3282:3289   */\n  dup4\n    /* \"#utility.yul\":3251:3290   */\n  tag_48\n  jump\t// in\ntag_101:\n    /* \"#utility.yul\":3312:3403   */\n  tag_102\n    /* \"#utility.yul\":3361:3402   */\n  tag_103\n    /* \"#utility.yul\":3385:3401   */\n  dup3\n    /* \"#utility.yul\":3361:3402   */\n  tag_49\n  jump\t// in\ntag_103:\n    /* \"#utility.yul\":3353:3359   */\n  dup5\n    /* \"#utility.yul\":3346:3350   */\n  dup5\n    /* \"#utility.yul\":3340:3351   */\n  sload\n    /* \"#utility.yul\":3312:3403   */\n  tag_45\n  jump\t// in\ntag_102:\n    /* \"#utility.yul\":3306:3310   */\n  dup3\n    /* \"#utility.yul\":3299:3404   */\n  sstore\n    /* \"#utility.yul\":3217:3410   */\n  pop\n    /* \"#utility.yul\":3141:3410   */\n  pop\n  pop\n  pop\n  jump\t// out\n    /* \"#utility.yul\":3416:3489   */\ntag_51:\n    /* \"#utility.yul\":3461:3464   */\n  0x00\n    /* \"#utility.yul\":3416:3489   */\n  swap1\n  jump\t// out\n    /* \"#utility.yul\":3495:3684   */\ntag_52:\n    /* \"#utility.yul\":3572:3604   */\n  tag_106\n  tag_51\n  jump\t// in\ntag_106:\n    /* \"#utility.yul\":3613:3678   */\n  tag_107\n    /* \"#utility.yul\":3671:3677   */\n  dup2\n    /* \"#utility.yul\":3663:3669   */\n  dup5\n    /* \"#utility.yul\":3657:3661   */\n  dup5\n    /* \"#utility.yul\":3613:3678   */\n  tag_50\n  jump\t// in\ntag_107:\n    /* \"#utility.yul\":3548:3684   */\n  pop\n    /* \"#utility.yul\":3495:3684   */\n  pop\n  pop\n  jump\t// out\n    /* \"#utility.yul\":3690:3876   */\ntag_53:\n    /* \"#utility.yul\":3750:3870   */\ntag_109:\n    /* \"#utility.yul\":3767:3770   */\n  dup2\n    /* \"#utility.yul\":3760:3765   */\n  dup2\n    /* \"#utility.yul\":3757:3771   */\n  lt\n    /* \"#utility.yul\":3750:3870   */\n  iszero\n  tag_111\n  jumpi\n    /* \"#utility.yul\":3821:3860   */\n  tag_112\n    /* \"#utility.yul\":3858:3859   */\n  0x00\n    /* \"#utility.yul\":3851:3856   */\n  dup3\n    /* \"#utility.yul\":3821:3860   */\n  tag_52\n  jump\t// in\ntag_112:\n    /* \"#utility.yul\":3794:3795   */\n  0x01\n    /* \"#utility.yul\":3787:3792   */\n  dup2\n    /* \"#utility.yul\":3783:3796   */\n  add\n    /* \"#utility.yul\":3774:3796   */\n  swap1\n  pop\n    /* \"#utility.yul\":3750:3870   */\n  jump(tag_109)\ntag_111:\n    /* \"#utility.yul\":3690:3876   */\n  pop\n  pop\n  jump\t// out\n    /* \"#utility.yul\":3882:4425   */\ntag_54:\n    /* \"#utility.yul\":3983:3985   */\n  0x1f\n    /* \"#utility.yul\":3978:3981   */\n  dup3\n    /* \"#utility.yul\":3975:3986   */\n  gt\n    /* \"#utility.yul\":3972:4418   */\n  iszero\n  tag_114\n  jumpi\n    /* \"#utility.yul\":4017:4055   */\n  tag_115\n    /* \"#utility.yul\":4049:4054   */\n  dup2\n    /* \"#utility.yul\":4017:4055   */\n  tag_42\n  jump\t// in\ntag_115:\n    /* \"#utility.yul\":4101:4130   */\n  tag_116\n    /* \"#utility.yul\":4119:4129   */\n  dup5\n    /* \"#utility.yul\":4101:4130   */\n  tag_43\n  jump\t// in\ntag_116:\n    /* \"#utility.yul\":4091:4099   */\n  dup2\n    /* \"#utility.yul\":4087:4131   */\n  add\n    /* \"#utility.yul\":4284:4286   */\n  0x20\n    /* \"#utility.yul\":4272:4282   */\n  dup6\n    /* \"#utility.yul\":4269:4287   */\n  lt\n    /* \"#utility.yul\":4266:4315   */\n  iszero\n  tag_117\n  jumpi\n    /* \"#utility.yul\":4305:4313   */\n  dup2\n    /* \"#utility.yul\":4290:4313   */\n  swap1\n  pop\n    /* \"#utility.yul\":4266:4315   */\ntag_117:\n    /* \"#utility.yul\":4328:4408   */\n  tag_118\n    /* \"#utility.yul\":4384:4406   */\n  tag_119\n    /* \"#utility.yul\":4402:4405   */\n  dup6\n    /* \"#utility.yul\":4384:4406   */\n  tag_43\n  jump\t// in\ntag_119:\n    /* \"#utility.yul\":4374:4382   */\n  dup4\n    /* \"#utility.yul\":4370:4407   */\n  add\n    /* \"#utility.yul\":4357:4368   */\n  dup3\n    /* \"#utility.yul\":4328:4408   */\n  tag_53\n  jump\t// in\ntag_118:\n    /* \"#utility.yul\":3987:4418   */\n  pop\n  pop\n    /* \"#utility.yul\":3972:4418   */\ntag_114:\n    /* \"#utility.yul\":3882:4425   */\n  pop\n  pop\n  pop\n  jump\t// out\n    /* \"#utility.yul\":4431:4548   */\ntag_55:\n    /* \"#utility.yul\":4485:4493   */\n  0x00\n    /* \"#utility.yul\":4535:4540   */\n  dup3\n    /* \"#utility.yul\":4529:4533   */\n  dup3\n    /* \"#utility.yul\":4525:4541   */\n  shr\n    /* \"#utility.yul\":4504:4541   */\n  swap1\n  pop\n    /* \"#utility.yul\":4431:4548   */\n  swap3\n  swap2\n  pop\n  pop\n  jump\t// out\n    /* \"#utility.yul\":4554:4723   */\ntag_56:\n    /* \"#utility.yul\":4598:4604   */\n  0x00\n    /* \"#utility.yul\":4631:4682   */\n  tag_122\n    /* \"#utility.yul\":4679:4680   */\n  0x00\n    /* \"#utility.yul\":4675:4681   */\n  not\n    /* \"#utility.yul\":4667:4672   */\n  dup5\n    /* \"#utility.yul\":4664:4665   */\n  0x08\n    /* \"#utility.yul\":4660:4673   */\n  mul\n    /* \"#utility.yul\":4631:4682   */\n  tag_55\n  jump\t// in\ntag_122:\n    /* \"#utility.yul\":4627:4683   */\n  not\n    /* \"#utility.yul\":4712:4716   */\n  dup1\n    /* \"#utility.yul\":4706:4710   */\n  dup4\n    /* \"#utility.yul\":4702:4717   */\n  and\n    /* \"#utility.yul\":4692:4717   */\n  swap2\n  pop\n    /* \"#utility.yul\":4605:4723   */\n  pop\n    /* \"#utility.yul\":4554:4723   */\n  swap3\n  swap2\n  pop\n  pop\n  jump\t// out\n    /* \"#utility.yul\":4728:5023   */\ntag_57:\n    /* \"#utility.yul\":4804:4808   */\n  0x00\n    /* \"#utility.yul\":4950:4979   */\n  tag_124\n    /* \"#utility.yul\":4975:4978   */\n  dup4\n    /* \"#utility.yul\":4969:4973   */\n  dup4\n    /* \"#utility.yul\":4950:4979   */\n  tag_56\n  jump\t// in\ntag_124:\n    /* \"#utility.yul\":4942:4979   */\n  swap2\n  pop\n    /* \"#utility.yul\":5012:5015   */\n  dup3\n    /* \"#utility.yul\":5009:5010   */\n  0x02\n    /* \"#utility.yul\":5005:5016   */\n  mul\n    /* \"#utility.yul\":4999:5003   */\n  dup3\n    /* \"#utility.yul\":4996:5017   */\n  or\n    /* \"#utility.yul\":4988:5017   */\n  swap1\n  pop\n    /* \"#utility.yul\":4728:5023   */\n  swap3\n  swap2\n  pop\n  pop\n  jump\t// out\n    /* \"#utility.yul\":5028:6423   */\ntag_7:\n    /* \"#utility.yul\":5145:5182   */\n  tag_126\n    /* \"#utility.yul\":5178:5181   */\n  dup3\n    /* \"#utility.yul\":5145:5182   */\n  tag_38\n  jump\t// in\ntag_126:\n    /* \"#utility.yul\":5247:5265   */\n  0xffffffffffffffff\n    /* \"#utility.yul\":5239:5245   */\n  dup2\n    /* \"#utility.yul\":5236:5266   */\n  gt\n    /* \"#utility.yul\":5233:5289   */\n  iszero\n  tag_127\n  jumpi\n    /* \"#utility.yul\":5269:5287   */\n  tag_128\n  tag_39\n  jump\t// in\ntag_128:\n    /* \"#utility.yul\":5233:5289   */\ntag_127:\n    /* \"#utility.yul\":5313:5351   */\n  tag_129\n    /* \"#utility.yul\":5345:5349   */\n  dup3\n    /* \"#utility.yul\":5339:5350   */\n  sload\n    /* \"#utility.yul\":5313:5351   */\n  tag_41\n  jump\t// in\ntag_129:\n    /* \"#utility.yul\":5398:5465   */\n  tag_130\n    /* \"#utility.yul\":5458:5464   */\n  dup3\n    /* \"#utility.yul\":5450:5456   */\n  dup3\n    /* \"#utility.yul\":5444:5448   */\n  dup6\n    /* \"#utility.yul\":5398:5465   */\n  tag_54\n  jump\t// in\ntag_130:\n    /* \"#utility.yul\":5492:5493   */\n  0x00\n    /* \"#utility.yul\":5516:5520   */\n  0x20\n    /* \"#utility.yul\":5503:5520   */\n  swap1\n  pop\n    /* \"#utility.yul\":5548:5550   */\n  0x1f\n    /* \"#utility.yul\":5540:5546   */\n  dup4\n    /* \"#utility.yul\":5537:5551   */\n  gt\n    /* \"#utility.yul\":5565:5566   */\n  0x01\n    /* \"#utility.yul\":5560:6178   */\n  dup2\n  eq\n  tag_132\n  jumpi\n    /* \"#utility.yul\":6222:6223   */\n  0x00\n    /* \"#utility.yul\":6239:6245   */\n  dup5\n    /* \"#utility.yul\":6236:6313   */\n  iszero\n  tag_133\n  jumpi\n    /* \"#utility.yul\":6288:6297   */\n  dup3\n    /* \"#utility.yul\":6283:6286   */\n  dup8\n    /* \"#utility.yul\":6279:6298   */\n  add\n    /* \"#utility.yul\":6273:6299   */\n  mload\n    /* \"#utility.yul\":6264:6299   */\n  swap1\n  pop\n    /* \"#utility.yul\":6236:6313   */\ntag_133:\n    /* \"#utility.yul\":6339:6406   */\n  tag_134\n    /* \"#utility.yul\":6399:6405   */\n  dup6\n    /* \"#utility.yul\":6392:6397   */\n  dup3\n    /* \"#utility.yul\":6339:6406   */\n  tag_57\n  jump\t// in\ntag_134:\n    /* \"#utility.yul\":6333:6337   */\n  dup7\n    /* \"#utility.yul\":6326:6407   */\n  sstore\n    /* \"#utility.yul\":6195:6417   */\n  pop\n    /* \"#utility.yul\":5530:6417   */\n  jump(tag_131)\n    /* \"#utility.yul\":5560:6178   */\ntag_132:\n    /* \"#utility.yul\":5612:5616   */\n  0x1f\n    /* \"#utility.yul\":5608:5617   */\n  not\n    /* \"#utility.yul\":5600:5606   */\n  dup5\n    /* \"#utility.yul\":5596:5618   */\n  and\n    /* \"#utility.yul\":5646:5683   */\n  tag_135\n    /* \"#utility.yul\":5678:5682   */\n  dup7\n    /* \"#utility.yul\":5646:5683   */\n  tag_42\n  jump\t// in\ntag_135:\n    /* \"#utility.yul\":5705:5706   */\n  0x00\n    /* \"#utility.yul\":5719:5927   */\ntag_136:\n    /* \"#utility.yul\":5733:5740   */\n  dup3\n    /* \"#utility.yul\":5730:5731   */\n  dup2\n    /* \"#utility.yul\":5727:5741   */\n  lt\n    /* \"#utility.yul\":5719:5927   */\n  iszero\n  tag_138\n  jumpi\n    /* \"#utility.yul\":5812:5821   */\n  dup5\n    /* \"#utility.yul\":5807:5810   */\n  dup10\n    /* \"#utility.yul\":5803:5822   */\n  add\n    /* \"#utility.yul\":5797:5823   */\n  mload\n    /* \"#utility.yul\":5789:5795   */\n  dup3\n    /* \"#utility.yul\":5782:5824   */\n  sstore\n    /* \"#utility.yul\":5863:5864   */\n  0x01\n    /* \"#utility.yul\":5855:5861   */\n  dup3\n    /* \"#utility.yul\":5851:5865   */\n  add\n    /* \"#utility.yul\":5841:5865   */\n  swap2\n  pop\n    /* \"#utility.yul\":5910:5912   */\n  0x20\n    /* \"#utility.yul\":5899:5908   */\n  dup6\n    /* \"#utility.yul\":5895:5913   */\n  add\n    /* \"#utility.yul\":5882:5913   */\n  swap5\n  pop\n    /* \"#utility.yul\":5756:5760   */\n  0x20\n    /* \"#utility.yul\":5753:5754   */\n  dup2\n    /* \"#utility.yul\":5749:5761   */\n  add\n    /* \"#utility.yul\":5744:5761   */\n  swap1\n  pop\n    /* \"#utility.yul\":5719:5927   */\n  jump(tag_136)\ntag_138:\n    /* \"#utility.yul\":5955:5961   */\n  dup7\n    /* \"#utility.yul\":5946:5953   */\n  dup4\n    /* \"#utility.yul\":5943:5962   */\n  lt\n    /* \"#utility.yul\":5940:6119   */\n  iszero\n  tag_139\n  jumpi\n    /* \"#utility.yul\":6013:6022   */\n  dup5\n    /* \"#utility.yul\":6008:6011   */\n  dup10\n    /* \"#utility.yul\":6004:6023   */\n  add\n    /* \"#utility.yul\":5998:6024   */\n  mload\n    /* \"#utility.yul\":6056:6104   */\n  tag_140\n    /* \"#utility.yul\":6098:6102   */\n  0x1f\n    /* \"#utility.yul\":6090:6096   */\n  dup10\n    /* \"#utility.yul\":6086:6103   */\n  and\n    /* \"#utility.yul\":6075:6084   */\n  dup3\n    /* \"#utility.yul\":6056:6104   */\n  tag_56\n  jump\t// in\ntag_140:\n    /* \"#utility.yul\":6048:6054   */\n  dup4\n    /* \"#utility.yul\":6041:6105   */\n  sstore\n    /* \"#utility.yul\":5963:6119   */\n  pop\n    /* \"#utility.yul\":5940:6119   */\ntag_139:\n    /* \"#utility.yul\":6165:6166   */\n  0x01\n    /* \"#utility.yul\":6161:6162   */\n  0x02\n    /* \"#utility.yul\":6153:6159   */\n  dup9\n    /* \"#utility.yul\":6149:6163   */\n  mul\n    /* \"#utility.yul\":6145:6167   */\n  add\n    /* \"#utility.yul\":6139:6143   */\n  dup9\n    /* \"#utility.yul\":6132:6168   */\n  sstore\n    /* \"#utility.yul\":5567:6178   */\n  pop\n  pop\n  pop\n    /* \"#utility.yul\":5530:6417   */\ntag_131:\n  pop\n    /* \"#utility.yul\":5120:6423   */\n  pop\n  pop\n  pop\n    /* \"#utility.yul\":5028:6423   */\n  pop\n  pop\n  jump\t// out\n    /* \"#utility.yul\":6429:6609   */\ntag_58:\n    /* \"#utility.yul\":6477:6554   */\n  0x4e487b7100000000000000000000000000000000000000000000000000000000\n    /* \"#utility.yul\":6474:6475   */\n  0x00\n    /* \"#utility.yul\":6467:6555   */\n  mstore\n    /* \"#utility.yul\":6574:6578   */\n  0x11\n    /* \"#utility.yul\":6571:6572   */\n  0x04\n    /* \"#utility.yul\":6564:6579   */\n  mstore\n    /* \"#utility.yul\":6598:6602   */\n  0x24\n    /* \"#utility.yul\":6595:6596   */\n  0x00\n    /* \"#utility.yul\":6588:6603   */\n  revert\n    /* \"#utility.yul\":6615:6717   */\ntag_59:\n    /* \"#utility.yul\":6657:6665   */\n  0x00\n    /* \"#utility.yul\":6704:6709   */\n  dup2\n    /* \"#utility.yul\":6701:6702   */\n  0x01\n    /* \"#utility.yul\":6697:6710   */\n  shr\n    /* \"#utility.yul\":6676:6710   */\n  swap1\n  pop\n    /* \"#utility.yul\":6615:6717   */\n  swap2\n  swap1\n  pop\n  jump\t// out\n    /* \"#utility.yul\":6723:7571   */\ntag_60:\n    /* \"#utility.yul\":6784:6789   */\n  0x00\n    /* \"#utility.yul\":6791:6795   */\n  dup1\n    /* \"#utility.yul\":6815:6821   */\n  dup3\n    /* \"#utility.yul\":6806:6821   */\n  swap2\n  pop\n    /* \"#utility.yul\":6839:6844   */\n  dup4\n    /* \"#utility.yul\":6830:6844   */\n  swap1\n  pop\n    /* \"#utility.yul\":6853:7565   */\ntag_144:\n    /* \"#utility.yul\":6874:6875   */\n  0x01\n    /* \"#utility.yul\":6864:6872   */\n  dup6\n    /* \"#utility.yul\":6861:6876   */\n  gt\n    /* \"#utility.yul\":6853:7565   */\n  iszero\n  tag_146\n  jumpi\n    /* \"#utility.yul\":6969:6973   */\n  dup1\n    /* \"#utility.yul\":6964:6967   */\n  dup7\n    /* \"#utility.yul\":6960:6974   */\n  div\n    /* \"#utility.yul\":6954:6958   */\n  dup2\n    /* \"#utility.yul\":6951:6975   */\n  gt\n    /* \"#utility.yul\":6948:6998   */\n  iszero\n  tag_147\n  jumpi\n    /* \"#utility.yul\":6978:6996   */\n  tag_148\n  tag_58\n  jump\t// in\ntag_148:\n    /* \"#utility.yul\":6948:6998   */\ntag_147:\n    /* \"#utility.yul\":7028:7029   */\n  0x01\n    /* \"#utility.yul\":7018:7026   */\n  dup6\n    /* \"#utility.yul\":7014:7030   */\n  and\n    /* \"#utility.yul\":7011:7462   */\n  iszero\n  tag_149\n  jumpi\n    /* \"#utility.yul\":7443:7447   */\n  dup1\n    /* \"#utility.yul\":7436:7441   */\n  dup3\n    /* \"#utility.yul\":7432:7448   */\n  mul\n    /* \"#utility.yul\":7423:7448   */\n  swap2\n  pop\n    /* \"#utility.yul\":7011:7462   */\ntag_149:\n    /* \"#utility.yul\":7493:7497   */\n  dup1\n    /* \"#utility.yul\":7487:7491   */\n  dup2\n    /* \"#utility.yul\":7483:7498   */\n  mul\n    /* \"#utility.yul\":7475:7498   */\n  swap1\n  pop\n    /* \"#utility.yul\":7523:7555   */\n  tag_150\n    /* \"#utility.yul\":7546:7554   */\n  dup6\n    /* \"#utility.yul\":7523:7555   */\n  tag_59\n  jump\t// in\ntag_150:\n    /* \"#utility.yul\":7511:7555   */\n  swap5\n  pop\n    /* \"#utility.yul\":6853:7565   */\n  jump(tag_144)\ntag_146:\n    /* \"#utility.yul\":6723:7571   */\n  swap5\n  pop\n  swap5\n  swap3\n  pop\n  pop\n  pop\n  jump\t// out\n    /* \"#utility.yul\":7577:8650   */\ntag_61:\n    /* \"#utility.yul\":7631:7636   */\n  0x00\n    /* \"#utility.yul\":7822:7830   */\n  dup3\n    /* \"#utility.yul\":7812:7852   */\n  tag_152\n  jumpi\n    /* \"#utility.yul\":7843:7844   */\n  0x01\n    /* \"#utility.yul\":7834:7844   */\n  swap1\n  pop\n    /* \"#utility.yul\":7845:7850   */\n  jump(tag_151)\n    /* \"#utility.yul\":7812:7852   */\ntag_152:\n    /* \"#utility.yul\":7871:7875   */\n  dup2\n    /* \"#utility.yul\":7861:7897   */\n  tag_153\n  jumpi\n    /* \"#utility.yul\":7888:7889   */\n  0x00\n    /* \"#utility.yul\":7879:7889   */\n  swap1\n  pop\n    /* \"#utility.yul\":7890:7895   */\n  jump(tag_151)\n    /* \"#utility.yul\":7861:7897   */\ntag_153:\n    /* \"#utility.yul\":7957:7961   */\n  dup2\n    /* \"#utility.yul\":8005:8006   */\n  0x01\n    /* \"#utility.yul\":8000:8027   */\n  dup2\n  eq\n  tag_155\n  jumpi\n    /* \"#utility.yul\":8041:8042   */\n  0x02\n    /* \"#utility.yul\":8036:8227   */\n  dup2\n  eq\n  tag_156\n  jumpi\n    /* \"#utility.yul\":7950:8227   */\n  jump(tag_154)\n    /* \"#utility.yul\":8000:8027   */\ntag_155:\n    /* \"#utility.yul\":8018:8019   */\n  0x01\n    /* \"#utility.yul\":8009:8019   */\n  swap2\n  pop\n    /* \"#utility.yul\":8020:8025   */\n  pop\n  jump(tag_151)\n    /* \"#utility.yul\":8036:8227   */\ntag_156:\n    /* \"#utility.yul\":8081:8084   */\n  0xff\n    /* \"#utility.yul\":8071:8079   */\n  dup5\n    /* \"#utility.yul\":8068:8085   */\n  gt\n    /* \"#utility.yul\":8065:8108   */\n  iszero\n  tag_157\n  jumpi\n    /* \"#utility.yul\":8088:8106   */\n  tag_158\n  tag_58\n  jump\t// in\ntag_158:\n    /* \"#utility.yul\":8065:8108   */\ntag_157:\n    /* \"#utility.yul\":8137:8145   */\n  dup4\n    /* \"#utility.yul\":8134:8135   */\n  0x02\n    /* \"#utility.yul\":8130:8146   */\n  exp\n    /* \"#utility.yul\":8121:8146   */\n  swap2\n  pop\n    /* \"#utility.yul\":8172:8175   */\n  dup5\n    /* \"#utility.yul\":8165:8170   */\n  dup3\n    /* \"#utility.yul\":8162:8176   */\n  gt\n    /* \"#utility.yul\":8159:8199   */\n  iszero\n  tag_159\n  jumpi\n    /* \"#utility.yul\":8179:8197   */\n  tag_160\n  tag_58\n  jump\t// in\ntag_160:\n    /* \"#utility.yul\":8159:8199   */\ntag_159:\n    /* \"#utility.yul\":8212:8217   */\n  pop\n  jump(tag_151)\n    /* \"#utility.yul\":7950:8227   */\ntag_154:\n  pop\n    /* \"#utility.yul\":8336:8338   */\n  0x20\n    /* \"#utility.yul\":8326:8334   */\n  dup4\n    /* \"#utility.yul\":8323:8339   */\n  lt\n    /* \"#utility.yul\":8317:8320   */\n  0x0133\n    /* \"#utility.yul\":8311:8315   */\n  dup4\n    /* \"#utility.yul\":8308:8321   */\n  lt\n    /* \"#utility.yul\":8304:8340   */\n  and\n    /* \"#utility.yul\":8286:8288   */\n  0x4e\n    /* \"#utility.yul\":8276:8284   */\n  dup5\n    /* \"#utility.yul\":8273:8289   */\n  lt\n    /* \"#utility.yul\":8268:8270   */\n  0x0b\n    /* \"#utility.yul\":8262:8266   */\n  dup5\n    /* \"#utility.yul\":8259:8271   */\n  lt\n    /* \"#utility.yul\":8255:8290   */\n  and\n    /* \"#utility.yul\":8239:8350   */\n  or\n    /* \"#utility.yul\":8236:8482   */\n  iszero\n  tag_161\n  jumpi\n    /* \"#utility.yul\":8392:8400   */\n  dup3\n    /* \"#utility.yul\":8386:8390   */\n  dup3\n    /* \"#utility.yul\":8382:8401   */\n  exp\n    /* \"#utility.yul\":8373:8401   */\n  swap1\n  pop\n    /* \"#utility.yul\":8427:8430   */\n  dup4\n    /* \"#utility.yul\":8420:8425   */\n  dup2\n    /* \"#utility.yul\":8417:8431   */\n  gt\n    /* \"#utility.yul\":8414:8454   */\n  iszero\n  tag_162\n  jumpi\n    /* \"#utility.yul\":8434:8452   */\n  tag_163\n  tag_58\n  jump\t// in\ntag_163:\n    /* \"#utility.yul\":8414:8454   */\ntag_162:\n    /* \"#utility.yul\":8467:8472   */\n  jump(tag_151)\n    /* \"#utility.yul\":8236:8482   */\ntag_161:\n    /* \"#utility.yul\":8507:8549   */\n  tag_164\n    /* \"#utility.yul\":8545:8548   */\n  dup5\n    /* \"#utility.yul\":8535:8543   */\n  dup5\n    /* \"#utility.yul\":8529:8533   */\n  dup5\n    /* \"#utility.yul\":8526:8527   */\n  0x01\n    /* \"#utility.yul\":8507:8549   */\n  tag_60\n  jump\t// in\ntag_164:\n    /* \"#utility.yul\":8492:8549   */\n  swap3\n  pop\n  swap1\n  pop\n    /* \"#utility.yul\":8581:8585   */\n  dup2\n    /* \"#utility.yul\":8576:8579   */\n  dup5\n    /* \"#utility.yul\":8572:8586   */\n  div\n    /* \"#utility.yul\":8565:8570   */\n  dup2\n    /* \"#utility.yul\":8562:8587   */\n  gt\n    /* \"#utility.yul\":8559:8610   */\n  iszero\n  tag_165\n  jumpi\n    /* \"#utility.yul\":8590:8608   */\n  tag_166\n  tag_58\n  jump\t// in\ntag_166:\n    /* \"#utility.yul\":8559:8610   */\ntag_165:\n    /* \"#utility.yul\":8639:8643   */\n  dup2\n    /* \"#utility.yul\":8632:8637   */\n  dup2\n    /* \"#utility.yul\":8628:8644   */\n  mul\n    /* \"#utility.yul\":8619:8644   */\n  swap1\n  pop\n    /* \"#utility.yul\":7577:8650   */\ntag_151:\n  swap4\n  swap3\n  pop\n  pop\n  pop\n  jump\t// out\n    /* \"#utility.yul\":8656:8742   */\ntag_62:\n    /* \"#utility.yul\":8691:8698   */\n  0x00\n    /* \"#utility.yul\":8731:8735   */\n  0xff\n    /* \"#utility.yul\":8724:8729   */\n  dup3\n    /* \"#utility.yul\":8720:8736   */\n  and\n    /* \"#utility.yul\":8709:8736   */\n  swap1\n  pop\n    /* \"#utility.yul\":8656:8742   */\n  swap2\n  swap1\n  pop\n  jump\t// out\n    /* \"#utility.yul\":8748:9029   */\ntag_10:\n    /* \"#utility.yul\":8806:8811   */\n  0x00\n    /* \"#utility.yul\":8830:8853   */\n  tag_169\n    /* \"#utility.yul\":8848:8852   */\n  dup3\n    /* \"#utility.yul\":8830:8853   */\n  tag_46\n  jump\t// in\ntag_169:\n    /* \"#utility.yul\":8822:8853   */\n  swap2\n  pop\n    /* \"#utility.yul\":8874:8899   */\n  tag_170\n    /* \"#utility.yul\":8890:8898   */\n  dup4\n    /* \"#utility.yul\":8874:8899   */\n  tag_62\n  jump\t// in\ntag_170:\n    /* \"#utility.yul\":8862:8899   */\n  swap3\n  pop\n    /* \"#utility.yul\":8918:9022   */\n  tag_171\n    /* \"#utility.yul\":8955:9021   */\n  0xffffffffffffffffffffffffffffffffffffffffffffffffffffffffffffffff\n    /* \"#utility.yul\":8945:8953   */\n  dup5\n    /* \"#utility.yul\":8939:8943   */\n  dup5\n    /* \"#utility.yul\":8918:9022   */\n  tag_61\n  jump\t// in\ntag_171:\n    /* \"#utility.yul\":8909:9022   */\n  swap1\n  pop\n    /* \"#utility.yul\":8748:9029   */\n  swap3\n  swap2\n  pop\n  pop\n  jump\t// out\n    /* \"#utility.yul\":9035:9445   */\ntag_12:\n    /* \"#utility.yul\":9075:9082   */\n  0x00\n    /* \"#utility.yul\":9098:9118   */\n  tag_173\n    /* \"#utility.yul\":9116:9117   */\n  dup3\n    /* \"#utility.yul\":9098:9118   */\n  tag_46\n  jump\t// in\ntag_173:\n    /* \"#utility.yul\":9093:9118   */\n  swap2\n  pop\n    /* \"#utility.yul\":9132:9152   */\n  tag_174\n    /* \"#utility.yul\":9150:9151   */\n  dup4\n    /* \"#utility.yul\":9132:9152   */\n  tag_46\n  jump\t// in\ntag_174:\n    /* \"#utility.yul\":9127:9152   */\n  swap3\n  pop\n    /* \"#utility.yul\":9187:9188   */\n  dup3\n    /* \"#utility.yul\":9184:9185   */\n  dup3\n    /* \"#utility.yul\":9180:9189   */\n  mul\n    /* \"#utility.yul\":9209:9239   */\n  tag_175\n    /* \"#utility.yul\":9227:9238   */\n  dup2\n    /* \"#utility.yul\":9209:9239   */\n  tag_46\n  jump\t// in\ntag_175:\n    /* \"#utility.yul\":9198:9239   */\n  swap2\n  pop\n    /* \"#utility.yul\":9388:9389   */\n  dup3\n    /* \"#utility.yul\":9379:9386   */\n  dup3\n    /* \"#utility.yul\":9375:9390   */\n  div\n    /* \"#utility.yul\":9372:9373   */\n  dup5\n    /* \"#utility.yul\":9369:9391   */\n  eq\n    /* \"#utility.yul\":9349:9350   */\n  dup4\n    /* \"#utility.yul\":9342:9351   */\n  iszero\n    /* \"#utility.yul\":9322:9405   */\n  or\n    /* \"#utility.yul\":9299:9438   */\n  tag_176\n  jumpi\n    /* \"#utility.yul\":9418:9436   */\n  tag_177\n  tag_58\n  jump\t// in\ntag_177:\n    /* \"#utility.yul\":9299:9438   */\ntag_176:\n    /* \"#utility.yul\":9083:9445   */\n  pop\n    /* \"#utility.yul\":9035:9445   */\n  swap3\n  swap2\n  pop\n  pop\n  jump\t// out\n    /* \"#utility.yul\":9451:9645   */\ntag_25:\n    /* \"#utility.yul\":9491:9495   */\n  0x00\n    /* \"#utility.yul\":9511:9531   */\n  tag_179\n    /* \"#utility.yul\":9529:9530   */\n  dup3\n    /* \"#utility.yul\":9511:9531   */\n  tag_46\n  jump\t// in\ntag_179:\n    /* \"#utility.yul\":9506:9531   */\n  swap2\n  pop\n    /* \"#utility.yul\":9545:9565   */\n  tag_180\n    /* \"#utility.yul\":9563:9564   */\n  dup4\n    /* \"#utility.yul\":9545:9565   */\n  tag_46\n  jump\t// in\ntag_180:\n    /* \"#utility.yul\":9540:9565   */\n  swap3\n  pop\n    /* \"#utility.yul\":9589:9590   */\n  dup3\n    /* \"#utility.yul\":9586:9587   */\n  dup3\n    /* \"#utility.yul\":9582:9591   */\n  sub\n    /* \"#utility.yul\":9574:9591   */\n  swap1\n  pop\n    /* \"#utility.yul\":9613:9614   */\n  dup2\n    /* \"#utility.yul\":9607:9611   */\n  dup2\n    /* \"#utility.yul\":9604:9615   */\n  gt\n    /* \"#utility.yul\":9601:9638   */\n  iszero\n  tag_181\n  jumpi\n    /* \"#utility.yul\":9618:9636   */\n  tag_182\n  tag_58\n  jump\t// in\ntag_182:\n    /* \"#utility.yul\":9601:9638   */\ntag_181:\n    /* \"#utility.yul\":9451:9645   */\n  swap3\n  swap2\n  pop\n  pop\n  jump\t// out\n    /* \"#utility.yul\":9651:9842   */\ntag_27:\n    /* \"#utility.yul\":9691:9694   */\n  0x00\n    /* \"#utility.yul\":9710:9730   */\n  tag_184\n    /* \"#utility.yul\":9728:9729   */\n  dup3\n    /* \"#utility.yul\":9710:9730   */\n  tag_46\n  jump\t// in\ntag_184:\n    /* \"#utility.yul\":9705:9730   */\n  swap2\n  pop\n    /* \"#utility.yul\":9744:9764   */\n  tag_185\n    /* \"#utility.yul\":9762:9763   */\n  dup4\n    /* \"#utility.yul\":9744:9764   */\n  tag_46\n  jump\t// in\ntag_185:\n    /* \"#utility.yul\":9739:9764   */\n  swap3\n  pop\n    /* \"#utility.yul\":9787:9788   */\n  dup3\n    /* \"#utility.yul\":9784:9785   */\n  dup3\n    /* \"#utility.yul\":9780:9789   */\n  add\n    /* \"#utility.yul\":9773:9789   */\n  swap1\n  pop\n    /* \"#utility.yul\":9808:9811   */\n  dup1\n    /* \"#utility.yul\":9805:9806   */\n  dup3\n    /* \"#utility.yul\":9802:9812   */\n  gt\n    /* \"#utility.yul\":9799:9835   */\n  iszero\n  tag_186\n  jumpi\n    /* \"#utility.yul\":9815:9833   */\n  tag_187\n  tag_58\n  jump\t// in\ntag_187:\n    /* \"#utility.yul\":9799:9835   */\ntag_186:\n    /* \"#utility.yul\":9651:9842   */\n  swap3\n  swap2\n  pop\n  pop\n  jump\t// out\n    /* \"#utility.yul\":9848:9966   */\ntag_63:\n    /* \"#utility.yul\":9935:9959   */\n  tag_189\n    /* \"#utility.yul\":9953:9958   */\n  dup2\n    /* \"#utility.yul\":9935:9959   */\n  tag_46\n  jump\t// in\ntag_189:\n    /* \"#utility.yul\":9930:9933   */\n  dup3\n    /* \"#utility.yul\":9923:9960   */\n  mstore\n    /* \"#utility.yul\":9848:9966   */\n  pop\n  pop\n  jump\t// out\n    /* \"#utility.yul\":9972:10194   */\ntag_30:\n    /* \"#utility.yul\":10065:10069   */\n  0x00\n    /* \"#utility.yul\":10103:10105   */\n  0x20\n    /* \"#utility.yul\":10092:10101   */\n  dup3\n    /* \"#utility.yul\":10088:10106   */\n  add\n    /* \"#utility.yul\":10080:10106   */\n  swap1\n  pop\n    /* \"#utility.yul\":10116:10187   */\n  tag_191\n    /* \"#utility.yul\":10184:10185   */\n  0x00\n    /* \"#utility.yul\":10173:10182   */\n  dup4\n    /* \"#utility.yul\":10169:10186   */\n  add\n    /* \"#utility.yul\":10160:10166   */\n  dup5\n    /* \"#utility.yul\":10116:10187   */\n  tag_63\n  jump\t// in\ntag_191:\n    /* \"#utility.yul\":9972:10194   */\n  swap3\n  swap2\n  pop\n  pop\n  jump\t// out\n    /* \"smart_contracts/contracts/Polygon/Token.sol\":5569:15263  contract Token is Authenticator, IERC20, ICustomToken {... */\ntag_19:\n  mload(0x80)\n  codecopy(0x00, dataOffset(sub_0), dataSize(sub_0))\n  0x00\n  assignImmutable(\"0xe4b1702d9298fee62dfeccc57d322a463ad55ca201256d01f62b45b2e1c21c10\")\n  return(0x00, dataSize(sub_0))\nstop\n\nsub_0: assembly {\n        /* \"smart_contracts/contracts/Polygon/Token.sol\":5569:15263  contract Token is Authenticator, IERC20, ICustomToken {... */\n      mstore(0x40, 0x80)\n      callvalue\n      dup1\n      iszero\n      tag_1\n      jumpi\n      0x00\n      dup1\n      revert\n    tag_1:\n      pop\n      jumpi(tag_2, lt(calldatasize, 0x04))\n      shr(0xe0, calldataload(0x00))\n      dup1\n      0x4c496d4f\n      gt\n      tag_29\n      jumpi\n      dup1\n      0xa694fc3a\n      gt\n      tag_30\n      jumpi\n      dup1\n      0xdb3c5fca\n      gt\n      tag_31\n      jumpi\n      dup1\n      0xdb3c5fca\n      eq\n      tag_25\n      jumpi\n      dup1\n      0xdd62ed3e\n      eq\n      tag_26\n      jumpi\n      dup1\n      0xe4f1b27c\n      eq\n      tag_27\n      jumpi\n      dup1\n      0xf34e3723\n      eq\n      tag_28\n      jumpi\n      jump(tag_2)\n    tag_31:\n      dup1\n      0xa694fc3a\n      eq\n      tag_22\n      jumpi\n      dup1\n      0xa9059cbb\n      eq\n      tag_23\n      jumpi\n      dup1\n      0xd5abeb01\n      eq\n      tag_24\n      jumpi\n      jump(tag_2)\n    tag_30:\n      dup1\n      0x4c496d4f\n      eq\n      tag_16\n      jumpi\n      dup1\n      0x70a08231\n      eq\n      tag_17\n      jumpi\n      dup1\n      0x79ec5d3a\n      eq\n      tag_18\n      jumpi\n      dup1\n      0x817b1cd2\n      eq\n      tag_19\n      jumpi\n      dup1\n      0x95d89b41\n      eq\n      tag_20\n      jumpi\n      dup1\n      0x96b75b1a\n      eq\n      tag_21\n      jumpi\n      jump(tag_2)\n    tag_29:\n      dup1\n      0x23b872dd\n      gt\n      tag_32\n      jumpi\n      dup1\n      0x40c10f19\n      gt\n      tag_33\n      jumpi\n      dup1\n      0x40c10f19\n      eq\n      tag_12\n      jumpi\n      dup1\n      0x42623360\n      eq\n      tag_13\n      jumpi\n      dup1\n      0x42966c68\n      eq\n      tag_14\n      jumpi\n      dup1\n      0x4bf365df\n      eq\n      tag_15\n      jumpi\n      jump(tag_2)\n    tag_33:\n      dup1\n      0x23b872dd\n      eq\n      tag_9\n      jumpi\n      dup1\n      0x2e17de78\n      eq\n      tag_10\n      jumpi\n      dup1\n      0x313ce567\n      eq\n      tag_11\n      jumpi\n      jump(tag_2)\n    tag_32:\n      dup1\n      0x015af8ee\n      eq\n      tag_3\n      jumpi\n      dup1\n      0x06fdde03\n      eq\n      tag_4\n      jumpi\n      dup1\n      0x095ea7b3\n      eq\n      tag_5\n      jumpi\n      dup1\n      0x0d15fd77\n      eq\n      tag_6\n      jumpi\n      dup1\n      0x18160ddd\n      eq\n      tag_7\n      jumpi\n      dup1\n      0x1c1b8772\n      eq\n      tag_8\n      jumpi\n    tag_2:\n      0x00\n      dup1\n      revert\n        /* \"smart_contracts/contracts/Polygon/Token.sol\":13256:13966  function updateSettings(uint256 _bpFeeBurn, uint256 _bpFeeBank) external onlyAdmin returns (bool) {... */\n    tag_3:\n      tag_34\n      0x04\n      dup1\n      calldatasize\n      sub\n      dup2\n      add\n      swap1\n      tag_35\n      swap2\n      swap1\n      tag_36\n      jump\t// in\n    tag_35:\n      tag_37\n      jump\t// in\n    tag_34:\n      mload(0x40)\n      tag_38\n      swap2\n      swap1\n      tag_39\n      jump\t// in\n    tag_38:\n      mload(0x40)\n      dup1\n      swap2\n      sub\n      swap1\n      return\n        /* \"smart_contracts/contracts/Polygon/Token.sol\":14191:14264  function name() external view returns (string memory) {return meta.name;} */\n    tag_4:\n      tag_40\n      tag_41\n      jump\t// in\n    tag_40:\n      mload(0x40)\n      tag_42\n      swap2\n      swap1\n      tag_43\n      jump\t// in\n    tag_42:\n      mload(0x40)\n      dup1\n      swap2\n      sub\n      swap1\n      return\n        /* \"smart_contracts/contracts/Polygon/Token.sol\":11801:12133  function approve(address _spender, uint256 _value) external returns (bool) {... */\n    tag_5:\n      tag_44\n      0x04\n      dup1\n      calldatasize\n      sub\n      dup2\n      add\n      swap1\n      tag_45\n      swap2\n      swap1\n      tag_46\n      jump\t// in\n    tag_45:\n      tag_47\n      jump\t// in\n    tag_44:\n      mload(0x40)\n      tag_48\n      swap2\n      swap1\n      tag_39\n      jump\t// in\n    tag_48:\n      mload(0x40)\n      dup1\n      swap2\n      sub\n      swap1\n      return\n        /* \"smart_contracts/contracts/Polygon/Token.sol\":14429:14508  function totalVotes() external view returns (uint256) {return meta.totalVotes;} */\n    tag_6:\n      tag_49\n      tag_50\n      jump\t// in\n    tag_49:\n      mload(0x40)\n      tag_51\n      swap2\n      swap1\n      tag_52\n      jump\t// in\n    tag_51:\n      mload(0x40)\n      dup1\n      swap2\n      sub\n      swap1\n      return\n        /* \"smart_contracts/contracts/Polygon/Token.sol\":14599:14680  function totalSupply() external view returns (uint256) {return meta.totalSupply;} */\n    tag_7:\n      tag_53\n      tag_54\n      jump\t// in\n    tag_53:\n      mload(0x40)\n      tag_55\n      swap2\n      swap1\n      tag_52\n      jump\t// in\n    tag_55:\n      mload(0x40)\n      dup1\n      swap2\n      sub\n      swap1\n      return\n        /* \"smart_contracts/contracts/Polygon/Token.sol\":13972:14185  function update(address _vault) external onlyAdmin returns (bool) {... */\n    tag_8:\n      tag_56\n      0x04\n      dup1\n      calldatasize\n      sub\n      dup2\n      add\n      swap1\n      tag_57\n      swap2\n      swap1\n      tag_58\n      jump\t// in\n    tag_57:\n      tag_59\n      jump\t// in\n    tag_56:\n      mload(0x40)\n      tag_60\n      swap2\n      swap1\n      tag_39\n      jump\t// in\n    tag_60:\n      mload(0x40)\n      dup1\n      swap2\n      sub\n      swap1\n      return\n        /* \"smart_contracts/contracts/Polygon/Token.sol\":9243:9854  function transferFrom(address _from, address _to, uint256 _value) external returns (bool) {... */\n    tag_9:\n      tag_61\n      0x04\n      dup1\n      calldatasize\n      sub\n      dup2\n      add\n      swap1\n      tag_62\n      swap2\n      swap1\n      tag_63\n      jump\t// in\n    tag_62:\n      tag_64\n      jump\t// in\n    tag_61:\n      mload(0x40)\n      tag_65\n      swap2\n      swap1\n      tag_39\n      jump\t// in\n    tag_65:\n      mload(0x40)\n      dup1\n      swap2\n      sub\n      swap1\n      return\n        /* \"smart_contracts/contracts/Polygon/Token.sol\":10457:11100  function unstake(uint256 _value) external returns (bool) {... */\n    tag_10:\n      tag_66\n      0x04\n      dup1\n      calldatasize\n      sub\n      dup2\n      add\n      swap1\n      tag_67\n      swap2\n      swap1\n      tag_68\n      jump\t// in\n    tag_67:\n      tag_69\n      jump\t// in\n    tag_66:\n      mload(0x40)\n      tag_70\n      swap2\n      swap1\n      tag_39\n      jump\t// in\n    tag_70:\n      mload(0x40)\n      dup1\n      swap2\n      sub\n      swap1\n      return\n        /* \"smart_contracts/contracts/Polygon/Token.sol\":14351:14424  function decimals() external view returns (uint8) {return meta.decimals;} */\n    tag_11:\n      tag_71\n      tag_72\n      jump\t// in\n    tag_71:\n      mload(0x40)\n      tag_73\n      swap2\n      swap1\n      tag_74\n      jump\t// in\n    tag_73:\n      mload(0x40)\n      dup1\n      swap2\n      sub\n      swap1\n      return\n        /* \"smart_contracts/contracts/Polygon/Token.sol\":12139:12251  function mint(address _to, uint256 _value) external onlyAdmin returns (bool) {... */\n    tag_12:\n      tag_75\n      0x04\n      dup1\n      calldatasize\n      sub\n      dup2\n      add\n      swap1\n      tag_76\n      swap2\n      swap1\n      tag_46\n      jump\t// in\n    tag_76:\n      tag_77\n      jump\t// in\n    tag_75:\n      mload(0x40)\n      tag_78\n      swap2\n      swap1\n      tag_39\n      jump\t// in\n    tag_78:\n      mload(0x40)\n      dup1\n      swap2\n      sub\n      swap1\n      return\n        /* \"smart_contracts/contracts/Polygon/Token.sol\":14944:15033  function stakeOf(address _owner) external view returns (uint256) {return staked[_owner];} */\n    tag_13:\n      tag_79\n      0x04\n      dup1\n      calldatasize\n      sub\n      dup2\n      add\n      swap1\n      tag_80\n      swap2\n      swap1\n      tag_58\n      jump\t// in\n    tag_80:\n      tag_81\n      jump\t// in\n    tag_79:\n      mload(0x40)\n      tag_82\n      swap2\n      swap1\n      tag_52\n      jump\t// in\n    tag_82:\n      mload(0x40)\n      dup1\n      swap2\n      sub\n      swap1\n      return\n        /* \"smart_contracts/contracts/Polygon/Token.sol\":12461:12598  function burn(uint256 _value) external onlyAdmin returns (bool) {... */\n    tag_14:\n      tag_83\n      0x04\n      dup1\n      calldatasize\n      sub\n      dup2\n      add\n      swap1\n      tag_84\n      swap2\n      swap1\n      tag_68\n      jump\t// in\n    tag_84:\n      tag_85\n      jump\t// in\n    tag_83:\n      mload(0x40)\n      tag_86\n      swap2\n      swap1\n      tag_39\n      jump\t// in\n    tag_86:\n      mload(0x40)\n      dup1\n      swap2\n      sub\n      swap1\n      return\n        /* \"smart_contracts/contracts/Polygon/Token.sol\":14767:14842  function mintable() external view returns (uint256) {return meta.mintable;} */\n    tag_15:\n      tag_87\n      tag_88\n      jump\t// in\n    tag_87:\n      mload(0x40)\n      tag_89\n      swap2\n      swap1\n      tag_52\n      jump\t// in\n    tag_89:\n      mload(0x40)\n      dup1\n      swap2\n      sub\n      swap1\n      return\n        /* \"smart_contracts/contracts/Polygon/Token.sol\":12604:13250  function fetchSettings() external onlyAdmin returns (uint256, uint256, uint256, uint256, uint256, uint256) {... */\n    tag_16:\n      tag_90\n      tag_91\n      jump\t// in\n    tag_90:\n      mload(0x40)\n      tag_92\n      swap7\n      swap6\n      swap5\n      swap4\n      swap3\n      swap2\n      swap1\n      tag_93\n      jump\t// in\n    tag_92:\n      mload(0x40)\n      dup1\n      swap2\n      sub\n      swap1\n      return\n        /* \"smart_contracts/contracts/Polygon/Token.sol\":14847:14939  function balanceOf(address _owner) external view returns (uint256) {return balance[_owner];} */\n    tag_17:\n      tag_94\n      0x04\n      dup1\n      calldatasize\n      sub\n      dup2\n      add\n      swap1\n      tag_95\n      swap2\n      swap1\n      tag_58\n      jump\t// in\n    tag_95:\n      tag_96\n      jump\t// in\n    tag_94:\n      mload(0x40)\n      tag_97\n      swap2\n      swap1\n      tag_52\n      jump\t// in\n    tag_97:\n      mload(0x40)\n      dup1\n      swap2\n      sub\n      swap1\n      return\n        /* \"smart_contracts/contracts/Polygon/Token.sol\":15038:15126  function votesOf(address _owner) external view returns (uint256) {return votes[_owner];} */\n    tag_18:\n      tag_98\n      0x04\n      dup1\n      calldatasize\n      sub\n      dup2\n      add\n      swap1\n      tag_99\n      swap2\n      swap1\n      tag_58\n      jump\t// in\n    tag_99:\n      tag_100\n      jump\t// in\n    tag_98:\n      mload(0x40)\n      tag_101\n      swap2\n      swap1\n      tag_52\n      jump\t// in\n    tag_101:\n      mload(0x40)\n      dup1\n      swap2\n      sub\n      swap1\n      return\n        /* \"smart_contracts/contracts/Polygon/Token.sol\":14513:14594  function totalStaked() external view returns (uint256) {return meta.totalStaked;} */\n    tag_19:\n      tag_102\n      tag_103\n      jump\t// in\n    tag_102:\n      mload(0x40)\n      tag_104\n      swap2\n      swap1\n      tag_52\n      jump\t// in\n    tag_104:\n      mload(0x40)\n      dup1\n      swap2\n      sub\n      swap1\n      return\n        /* \"smart_contracts/contracts/Polygon/Token.sol\":14269:14346  function symbol() external view returns (string memory) {return meta.symbol;} */\n    tag_20:\n      tag_105\n      tag_106\n      jump\t// in\n    tag_105:\n      mload(0x40)\n      tag_107\n      swap2\n      swap1\n      tag_43\n      jump\t// in\n    tag_107:\n      mload(0x40)\n      dup1\n      swap2\n      sub\n      swap1\n      return\n        /* \"smart_contracts/contracts/Polygon/Token.sol\":2829:3063  function grantPermissionAdmin(address _owner) public onlyAdmin returns (bool) {... */\n    tag_21:\n      tag_108\n      0x04\n      dup1\n      calldatasize\n      sub\n      dup2\n      add\n      swap1\n      tag_109\n      swap2\n      swap1\n      tag_58\n      jump\t// in\n    tag_109:\n      tag_110\n      jump\t// in\n    tag_108:\n      mload(0x40)\n      tag_111\n      swap2\n      swap1\n      tag_39\n      jump\t// in\n    tag_111:\n      mload(0x40)\n      dup1\n      swap2\n      sub\n      swap1\n      return\n        /* \"smart_contracts/contracts/Polygon/Token.sol\":9860:10451  function stake(uint256 _value) external returns (bool) {... */\n    tag_22:\n      tag_112\n      0x04\n      dup1\n      calldatasize\n      sub\n      dup2\n      add\n      swap1\n      tag_113\n      swap2\n      swap1\n      tag_68\n      jump\t// in\n    tag_113:\n      tag_114\n      jump\t// in\n    tag_112:\n      mload(0x40)\n      tag_115\n      swap2\n      swap1\n      tag_39\n      jump\t// in\n    tag_115:\n      mload(0x40)\n      dup1\n      swap2\n      sub\n      swap1\n      return\n        /* \"smart_contracts/contracts/Polygon/Token.sol\":8825:9237  function transfer(address _to, uint256 _value) external returns (bool) {... */\n    tag_23:\n      tag_116\n      0x04\n      dup1\n      calldatasize\n      sub\n      dup2\n      add\n      swap1\n      tag_117\n      swap2\n      swap1\n      tag_46\n      jump\t// in\n    tag_117:\n      tag_118\n      jump\t// in\n    tag_116:\n      mload(0x40)\n      tag_119\n      swap2\n      swap1\n      tag_39\n      jump\t// in\n    tag_119:\n      mload(0x40)\n      dup1\n      swap2\n      sub\n      swap1\n      return\n        /* \"smart_contracts/contracts/Polygon/Token.sol\":14685:14762  function maxSupply() external view returns (uint256) {return meta.maxSupply;} */\n    tag_24:\n      tag_120\n      tag_121\n      jump\t// in\n    tag_120:\n      mload(0x40)\n      tag_122\n      swap2\n      swap1\n      tag_52\n      jump\t// in\n    tag_122:\n      mload(0x40)\n      dup1\n      swap2\n      sub\n      swap1\n      return\n        /* \"smart_contracts/contracts/Polygon/Token.sol\":3069:3306  function revokePermissionAdmin(address _owner) public onlyAdmin returns (bool) {... */\n    tag_25:\n      tag_123\n      0x04\n      dup1\n      calldatasize\n      sub\n      dup2\n      add\n      swap1\n      tag_124\n      swap2\n      swap1\n      tag_58\n      jump\t// in\n    tag_124:\n      tag_125\n      jump\t// in\n    tag_123:\n      mload(0x40)\n      tag_126\n      swap2\n      swap1\n      tag_39\n      jump\t// in\n    tag_126:\n      mload(0x40)\n      dup1\n      swap2\n      sub\n      swap1\n      return\n        /* \"smart_contracts/contracts/Polygon/Token.sol\":15131:15261  function allowance(address _owner, address _spender) external view returns (uint256 remaining) {return allowed[_owner][_spender];} */\n    tag_26:\n      tag_127\n      0x04\n      dup1\n      calldatasize\n      sub\n      dup2\n      add\n      swap1\n      tag_128\n      swap2\n      swap1\n      tag_129\n      jump\t// in\n    tag_128:\n      tag_130\n      jump\t// in\n    tag_127:\n      mload(0x40)\n      tag_131\n      swap2\n      swap1\n      tag_52\n      jump\t// in\n    tag_131:\n      mload(0x40)\n      dup1\n      swap2\n      sub\n      swap1\n      return\n        /* \"smart_contracts/contracts/Polygon/Token.sol\":12257:12455  function mintWithVesting(address _to, uint256 _value, uint256 _duration, string memory _caption) external onlyAdmin returns (bool) {... */\n    tag_27:\n      tag_132\n      0x04\n      dup1\n      calldatasize\n      sub\n      dup2\n      add\n      swap1\n      tag_133\n      swap2\n      swap1\n      tag_134\n      jump\t// in\n    tag_133:\n      tag_135\n      jump\t// in\n    tag_132:\n      mload(0x40)\n      tag_136\n      swap2\n      swap1\n      tag_39\n      jump\t// in\n    tag_136:\n      mload(0x40)\n      dup1\n      swap2\n      sub\n      swap1\n      return\n        /* \"smart_contracts/contracts/Polygon/Token.sol\":11106:11795  function release(string memory _caption) external returns (bool) {... */\n    tag_28:\n      tag_137\n      0x04\n      dup1\n      calldatasize\n      sub\n      dup2\n      add\n      swap1\n      tag_138\n      swap2\n      swap1\n      tag_139\n      jump\t// in\n    tag_138:\n      tag_140\n      jump\t// in\n    tag_137:\n      mload(0x40)\n      tag_141\n      swap2\n      swap1\n      tag_39\n      jump\t// in\n    tag_141:\n      mload(0x40)\n      dup1\n      swap2\n      sub\n      swap1\n      return\n        /* \"smart_contracts/contracts/Polygon/Token.sol\":13256:13966  function updateSettings(uint256 _bpFeeBurn, uint256 _bpFeeBank) external onlyAdmin returns (bool) {... */\n    tag_37:\n        /* \"smart_contracts/contracts/Polygon/Token.sol\":13348:13352  bool */\n      0x00\n        /* \"smart_contracts/contracts/Polygon/Token.sol\":2766:2770  true */\n      0x01\n        /* \"smart_contracts/contracts/Polygon/Token.sol\":2745:2770  admin[msg.sender] == true */\n      iszero\n      iszero\n        /* \"smart_contracts/contracts/Polygon/Token.sol\":2745:2750  admin */\n      0x00\n        /* \"smart_contracts/contracts/Polygon/Token.sol\":2745:2762  admin[msg.sender] */\n      dup1\n        /* \"smart_contracts/contracts/Polygon/Token.sol\":2751:2761  msg.sender */\n      caller\n        /* \"smart_contracts/contracts/Polygon/Token.sol\":2745:2762  admin[msg.sender] */\n      0xffffffffffffffffffffffffffffffffffffffff\n      and\n      0xffffffffffffffffffffffffffffffffffffffff\n      and\n      dup2\n      mstore\n      0x20\n      add\n      swap1\n      dup2\n      mstore\n      0x20\n      add\n      0x00\n      keccak256\n      0x00\n      swap1\n      sload\n      swap1\n      0x0100\n      exp\n      swap1\n      div\n      0xff\n      and\n        /* \"smart_contracts/contracts/Polygon/Token.sol\":2745:2770  admin[msg.sender] == true */\n      iszero\n      iszero\n      eq\n        /* \"smart_contracts/contracts/Polygon/Token.sol\":2724:2805  require(... */\n      tag_143\n      jumpi\n      mload(0x40)\n      0x08c379a000000000000000000000000000000000000000000000000000000000\n      dup2\n      mstore\n      0x04\n      add\n      tag_144\n      swap1\n      tag_145\n      jump\t// in\n    tag_144:\n      mload(0x40)\n      dup1\n      swap2\n      sub\n      swap1\n      revert\n    tag_143:\n        /* \"smart_contracts/contracts/Polygon/Token.sol\":13364:13385  uint256 _bpFeeBurnMin */\n      0x00\n        /* \"smart_contracts/contracts/Polygon/Token.sol\":13388:13396  settings */\n      0x01\n        /* \"smart_contracts/contracts/Polygon/Token.sol\":13388:13414  settings.bpTransferBurnMin */\n      0x00\n      add\n      sload\n        /* \"smart_contracts/contracts/Polygon/Token.sol\":13364:13414  uint256 _bpFeeBurnMin = settings.bpTransferBurnMin */\n      swap1\n      pop\n        /* \"smart_contracts/contracts/Polygon/Token.sol\":13424:13445  uint256 _bpFeeBankMin */\n      0x00\n        /* \"smart_contracts/contracts/Polygon/Token.sol\":13448:13456  settings */\n      0x01\n        /* \"smart_contracts/contracts/Polygon/Token.sol\":13448:13474  settings.bpTransferBankMin */\n      dup1\n      add\n      sload\n        /* \"smart_contracts/contracts/Polygon/Token.sol\":13424:13474  uint256 _bpFeeBankMin = settings.bpTransferBankMin */\n      swap1\n      pop\n        /* \"smart_contracts/contracts/Polygon/Token.sol\":13484:13505  uint256 _bpFeeBurnMax */\n      0x00\n        /* \"smart_contracts/contracts/Polygon/Token.sol\":13508:13516  settings */\n      0x01\n        /* \"smart_contracts/contracts/Polygon/Token.sol\":13508:13534  settings.bpTransferBurnMax */\n      0x02\n      add\n      sload\n        /* \"smart_contracts/contracts/Polygon/Token.sol\":13484:13534  uint256 _bpFeeBurnMax = settings.bpTransferBurnMax */\n      swap1\n      pop\n        /* \"smart_contracts/contracts/Polygon/Token.sol\":13544:13565  uint256 _bpFeeBankMax */\n      0x00\n        /* \"smart_contracts/contracts/Polygon/Token.sol\":13568:13576  settings */\n      0x01\n        /* \"smart_contracts/contracts/Polygon/Token.sol\":13568:13594  settings.bpTransferBankMax */\n      0x03\n      add\n      sload\n        /* \"smart_contracts/contracts/Polygon/Token.sol\":13544:13594  uint256 _bpFeeBankMax = settings.bpTransferBankMax */\n      swap1\n      pop\n        /* \"smart_contracts/contracts/Polygon/Token.sol\":13639:13652  _bpFeeBurnMin */\n      dup4\n        /* \"smart_contracts/contracts/Polygon/Token.sol\":13625:13635  _bpFeeBurn */\n      dup8\n        /* \"smart_contracts/contracts/Polygon/Token.sol\":13625:13652  _bpFeeBurn >= _bpFeeBurnMin */\n      lt\n      iszero\n        /* \"smart_contracts/contracts/Polygon/Token.sol\":13625:13695  _bpFeeBurn >= _bpFeeBurnMin &&... */\n      dup1\n      iszero\n      tag_147\n      jumpi\n      pop\n        /* \"smart_contracts/contracts/Polygon/Token.sol\":13682:13695  _bpFeeBurnMax */\n      dup2\n        /* \"smart_contracts/contracts/Polygon/Token.sol\":13668:13678  _bpFeeBurn */\n      dup8\n        /* \"smart_contracts/contracts/Polygon/Token.sol\":13668:13695  _bpFeeBurn <= _bpFeeBurnMax */\n      gt\n      iszero\n        /* \"smart_contracts/contracts/Polygon/Token.sol\":13625:13695  _bpFeeBurn >= _bpFeeBurnMin &&... */\n    tag_147:\n        /* \"smart_contracts/contracts/Polygon/Token.sol\":13625:13738  _bpFeeBurn >= _bpFeeBurnMin &&... */\n      dup1\n      iszero\n      tag_148\n      jumpi\n      pop\n        /* \"smart_contracts/contracts/Polygon/Token.sol\":13725:13738  _bpFeeBankMin */\n      dup3\n        /* \"smart_contracts/contracts/Polygon/Token.sol\":13711:13721  _bpFeeBank */\n      dup7\n        /* \"smart_contracts/contracts/Polygon/Token.sol\":13711:13738  _bpFeeBank >= _bpFeeBankMin */\n      lt\n      iszero\n        /* \"smart_contracts/contracts/Polygon/Token.sol\":13625:13738  _bpFeeBurn >= _bpFeeBurnMin &&... */\n    tag_148:\n        /* \"smart_contracts/contracts/Polygon/Token.sol\":13625:13781  _bpFeeBurn >= _bpFeeBurnMin &&... */\n      dup1\n      iszero\n      tag_149\n      jumpi\n      pop\n        /* \"smart_contracts/contracts/Polygon/Token.sol\":13768:13781  _bpFeeBankMax */\n      dup1\n        /* \"smart_contracts/contracts/Polygon/Token.sol\":13754:13764  _bpFeeBank */\n      dup7\n        /* \"smart_contracts/contracts/Polygon/Token.sol\":13754:13781  _bpFeeBank <= _bpFeeBankMax */\n      gt\n      iszero\n        /* \"smart_contracts/contracts/Polygon/Token.sol\":13625:13781  _bpFeeBurn >= _bpFeeBurnMin &&... */\n    tag_149:\n        /* \"smart_contracts/contracts/Polygon/Token.sol\":13604:13791  require(... */\n      tag_150\n      jumpi\n      0x00\n      dup1\n      revert\n    tag_150:\n        /* \"smart_contracts/contracts/Polygon/Token.sol\":13827:13837  _bpFeeBurn */\n      dup7\n        /* \"smart_contracts/contracts/Polygon/Token.sol\":13801:13809  settings */\n      0x01\n        /* \"smart_contracts/contracts/Polygon/Token.sol\":13801:13824  settings.bpTransferBurn */\n      0x04\n      add\n        /* \"smart_contracts/contracts/Polygon/Token.sol\":13801:13837  settings.bpTransferBurn = _bpFeeBurn */\n      dup2\n      swap1\n      sstore\n      pop\n        /* \"smart_contracts/contracts/Polygon/Token.sol\":13873:13883  _bpFeeBank */\n      dup6\n        /* \"smart_contracts/contracts/Polygon/Token.sol\":13847:13855  settings */\n      0x01\n        /* \"smart_contracts/contracts/Polygon/Token.sol\":13847:13870  settings.bpTransferBank */\n      0x05\n      add\n        /* \"smart_contracts/contracts/Polygon/Token.sol\":13847:13883  settings.bpTransferBank = _bpFeeBank */\n      dup2\n      swap1\n      sstore\n      pop\n        /* \"smart_contracts/contracts/Polygon/Token.sol\":13898:13938  UpdateToSettings(_bpFeeBurn, _bpFeeBank) */\n      0xf710d5c0fed44aca6b7e44715976f68b87187f4a4d505f8c14731a5c3906e9b9\n        /* \"smart_contracts/contracts/Polygon/Token.sol\":13915:13925  _bpFeeBurn */\n      dup8\n        /* \"smart_contracts/contracts/Polygon/Token.sol\":13927:13937  _bpFeeBank */\n      dup8\n        /* \"smart_contracts/contracts/Polygon/Token.sol\":13898:13938  UpdateToSettings(_bpFeeBurn, _bpFeeBank) */\n      mload(0x40)\n      tag_151\n      swap3\n      swap2\n      swap1\n      tag_152\n      jump\t// in\n    tag_151:\n      mload(0x40)\n      dup1\n      swap2\n      sub\n      swap1\n      log1\n        /* \"smart_contracts/contracts/Polygon/Token.sol\":13955:13959  true */\n      0x01\n        /* \"smart_contracts/contracts/Polygon/Token.sol\":13948:13959  return true */\n      swap5\n      pop\n      pop\n      pop\n      pop\n      pop\n        /* \"smart_contracts/contracts/Polygon/Token.sol\":13256:13966  function updateSettings(uint256 _bpFeeBurn, uint256 _bpFeeBank) external onlyAdmin returns (bool) {... */\n      swap3\n      swap2\n      pop\n      pop\n      jump\t// out\n        /* \"smart_contracts/contracts/Polygon/Token.sol\":14191:14264  function name() external view returns (string memory) {return meta.name;} */\n    tag_41:\n        /* \"smart_contracts/contracts/Polygon/Token.sol\":14230:14243  string memory */\n      0x60\n        /* \"smart_contracts/contracts/Polygon/Token.sol\":14253:14257  meta */\n      0x07\n        /* \"smart_contracts/contracts/Polygon/Token.sol\":14253:14262  meta.name */\n      0x00\n      add\n        /* \"smart_contracts/contracts/Polygon/Token.sol\":14246:14262  return meta.name */\n      dup1\n      sload\n      tag_154\n      swap1\n      tag_155\n      jump\t// in\n    tag_154:\n      dup1\n      0x1f\n      add\n      0x20\n      dup1\n      swap2\n      div\n      mul\n      0x20\n      add\n      mload(0x40)\n      swap1\n      dup2\n      add\n      0x40\n      mstore\n      dup1\n      swap3\n      swap2\n      swap1\n      dup2\n      dup2\n      mstore\n      0x20\n      add\n      dup3\n      dup1\n      sload\n      tag_156\n      swap1\n      tag_155\n      jump\t// in\n    tag_156:\n      dup1\n      iszero\n      tag_157\n      jumpi\n      dup1\n      0x1f\n      lt\n      tag_158\n      jumpi\n      0x0100\n      dup1\n      dup4\n      sload\n      div\n      mul\n      dup4\n      mstore\n      swap2\n      0x20\n      add\n      swap2\n      jump(tag_157)\n    tag_158:\n      dup3\n      add\n      swap2\n      swap1\n      0x00\n      mstore\n      keccak256(0x00, 0x20)\n      swap1\n    tag_159:\n      dup2\n      sload\n      dup2\n      mstore\n      swap1\n      0x01\n      add\n      swap1\n      0x20\n      add\n      dup1\n      dup4\n      gt\n      tag_159\n      jumpi\n      dup3\n      swap1\n      sub\n      0x1f\n      and\n      dup3\n      add\n      swap2\n    tag_157:\n      pop\n      pop\n      pop\n      pop\n      pop\n      swap1\n      pop\n        /* \"smart_contracts/contracts/Polygon/Token.sol\":14191:14264  function name() external view returns (string memory) {return meta.name;} */\n      swap1\n      jump\t// out\n        /* \"smart_contracts/contracts/Polygon/Token.sol\":11801:12133  function approve(address _spender, uint256 _value) external returns (bool) {... */\n    tag_47:\n        /* \"smart_contracts/contracts/Polygon/Token.sol\":11870:11874  bool */\n      0x00\n        /* \"smart_contracts/contracts/Polygon/Token.sol\":11886:11900  address _owner */\n      dup1\n        /* \"smart_contracts/contracts/Polygon/Token.sol\":11903:11913  msg.sender */\n      caller\n        /* \"smart_contracts/contracts/Polygon/Token.sol\":11886:11913  address _owner = msg.sender */\n      swap1\n      pop\n        /* \"smart_contracts/contracts/Polygon/Token.sol\":11962:11963  0 */\n      0x00\n        /* \"smart_contracts/contracts/Polygon/Token.sol\":11944:11964  _owner != address(0) */\n      0xffffffffffffffffffffffffffffffffffffffff\n      and\n        /* \"smart_contracts/contracts/Polygon/Token.sol\":11944:11950  _owner */\n      dup2\n        /* \"smart_contracts/contracts/Polygon/Token.sol\":11944:11964  _owner != address(0) */\n      0xffffffffffffffffffffffffffffffffffffffff\n      and\n      eq\n      iszero\n        /* \"smart_contracts/contracts/Polygon/Token.sol\":11944:12002  _owner != address(0) &&... */\n      dup1\n      iszero\n      tag_161\n      jumpi\n      pop\n        /* \"smart_contracts/contracts/Polygon/Token.sol\":12000:12001  0 */\n      0x00\n        /* \"smart_contracts/contracts/Polygon/Token.sol\":11980:12002  _spender != address(0) */\n      0xffffffffffffffffffffffffffffffffffffffff\n      and\n        /* \"smart_contracts/contracts/Polygon/Token.sol\":11980:11988  _spender */\n      dup5\n        /* \"smart_contracts/contracts/Polygon/Token.sol\":11980:12002  _spender != address(0) */\n      0xffffffffffffffffffffffffffffffffffffffff\n      and\n      eq\n      iszero\n        /* \"smart_contracts/contracts/Polygon/Token.sol\":11944:12002  _owner != address(0) &&... */\n    tag_161:\n        /* \"smart_contracts/contracts/Polygon/Token.sol\":11923:12012  require(... */\n      tag_162\n      jumpi\n      0x00\n      dup1\n      revert\n    tag_162:\n        /* \"smart_contracts/contracts/Polygon/Token.sol\":12050:12056  _value */\n      dup3\n        /* \"smart_contracts/contracts/Polygon/Token.sol\":12022:12029  allowed */\n      0x14\n        /* \"smart_contracts/contracts/Polygon/Token.sol\":12022:12037  allowed[_owner] */\n      0x00\n        /* \"smart_contracts/contracts/Polygon/Token.sol\":12030:12036  _owner */\n      dup4\n        /* \"smart_contracts/contracts/Polygon/Token.sol\":12022:12037  allowed[_owner] */\n      0xffffffffffffffffffffffffffffffffffffffff\n      and\n      0xffffffffffffffffffffffffffffffffffffffff\n      and\n      dup2\n      mstore\n      0x20\n      add\n      swap1\n      dup2\n      mstore\n      0x20\n      add\n      0x00\n      keccak256\n        /* \"smart_contracts/contracts/Polygon/Token.sol\":12022:12047  allowed[_owner][_spender] */\n      0x00\n        /* \"smart_contracts/contracts/Polygon/Token.sol\":12038:12046  _spender */\n      dup7\n        /* \"smart_contracts/contracts/Polygon/Token.sol\":12022:12047  allowed[_owner][_spender] */\n      0xffffffffffffffffffffffffffffffffffffffff\n      and\n      0xffffffffffffffffffffffffffffffffffffffff\n      and\n      dup2\n      mstore\n      0x20\n      add\n      swap1\n      dup2\n      mstore\n      0x20\n      add\n      0x00\n      keccak256\n        /* \"smart_contracts/contracts/Polygon/Token.sol\":12022:12056  allowed[_owner][_spender] = _value */\n      dup2\n      swap1\n      sstore\n      pop\n        /* \"smart_contracts/contracts/Polygon/Token.sol\":12088:12096  _spender */\n      dup4\n        /* \"smart_contracts/contracts/Polygon/Token.sol\":12071:12105  Approval(_owner, _spender, _value) */\n      0xffffffffffffffffffffffffffffffffffffffff\n      and\n        /* \"smart_contracts/contracts/Polygon/Token.sol\":12080:12086  _owner */\n      dup2\n        /* \"smart_contracts/contracts/Polygon/Token.sol\":12071:12105  Approval(_owner, _spender, _value) */\n      0xffffffffffffffffffffffffffffffffffffffff\n      and\n      0x8c5be1e5ebec7d5bd14f71427d1e84f3dd0314c0f7b2291e5b200ac8c7c3b925\n        /* \"smart_contracts/contracts/Polygon/Token.sol\":12098:12104  _value */\n      dup6\n        /* \"smart_contracts/contracts/Polygon/Token.sol\":12071:12105  Approval(_owner, _spender, _value) */\n      mload(0x40)\n      tag_163\n      swap2\n      swap1\n      tag_52\n      jump\t// in\n    tag_163:\n      mload(0x40)\n      dup1\n      swap2\n      sub\n      swap1\n      log3\n        /* \"smart_contracts/contracts/Polygon/Token.sol\":12122:12126  true */\n      0x01\n        /* \"smart_contracts/contracts/Polygon/Token.sol\":12115:12126  return true */\n      swap2\n      pop\n      pop\n        /* \"smart_contracts/contracts/Polygon/Token.sol\":11801:12133  function approve(address _spender, uint256 _value) external returns (bool) {... */\n      swap3\n      swap2\n      pop\n      pop\n      jump\t// out\n        /* \"smart_contracts/contracts/Polygon/Token.sol\":14429:14508  function totalVotes() external view returns (uint256) {return meta.totalVotes;} */\n    tag_50:\n        /* \"smart_contracts/contracts/Polygon/Token.sol\":14474:14481  uint256 */\n      0x00\n        /* \"smart_contracts/contracts/Polygon/Token.sol\":14491:14495  meta */\n      0x07\n        /* \"smart_contracts/contracts/Polygon/Token.sol\":14491:14506  meta.totalVotes */\n      dup1\n      add\n      sload\n        /* \"smart_contracts/contracts/Polygon/Token.sol\":14484:14506  return meta.totalVotes */\n      swap1\n      pop\n        /* \"smart_contracts/contracts/Polygon/Token.sol\":14429:14508  function totalVotes() external view returns (uint256) {return meta.totalVotes;} */\n      swap1\n      jump\t// out\n        /* \"smart_contracts/contracts/Polygon/Token.sol\":14599:14680  function totalSupply() external view returns (uint256) {return meta.totalSupply;} */\n    tag_54:\n        /* \"smart_contracts/contracts/Polygon/Token.sol\":14645:14652  uint256 */\n      0x00\n        /* \"smart_contracts/contracts/Polygon/Token.sol\":14662:14666  meta */\n      0x07\n        /* \"smart_contracts/contracts/Polygon/Token.sol\":14662:14678  meta.totalSupply */\n      0x04\n      add\n      sload\n        /* \"smart_contracts/contracts/Polygon/Token.sol\":14655:14678  return meta.totalSupply */\n      swap1\n      pop\n        /* \"smart_contracts/contracts/Polygon/Token.sol\":14599:14680  function totalSupply() external view returns (uint256) {return meta.totalSupply;} */\n      swap1\n      jump\t// out\n        /* \"smart_contracts/contracts/Polygon/Token.sol\":13972:14185  function update(address _vault) external onlyAdmin returns (bool) {... */\n    tag_59:\n        /* \"smart_contracts/contracts/Polygon/Token.sol\":14032:14036  bool */\n      0x00\n        /* \"smart_contracts/contracts/Polygon/Token.sol\":2766:2770  true */\n      0x01\n        /* \"smart_contracts/contracts/Polygon/Token.sol\":2745:2770  admin[msg.sender] == true */\n      iszero\n      iszero\n        /* \"smart_contracts/contracts/Polygon/Token.sol\":2745:2750  admin */\n      0x00\n        /* \"smart_contracts/contracts/Polygon/Token.sol\":2745:2762  admin[msg.sender] */\n      dup1\n        /* \"smart_contracts/contracts/Polygon/Token.sol\":2751:2761  msg.sender */\n      caller\n        /* \"smart_contracts/contracts/Polygon/Token.sol\":2745:2762  admin[msg.sender] */\n      0xffffffffffffffffffffffffffffffffffffffff\n      and\n      0xffffffffffffffffffffffffffffffffffffffff\n      and\n      dup2\n      mstore\n      0x20\n      add\n      swap1\n      dup2\n      mstore\n      0x20\n      add\n      0x00\n      keccak256\n      0x00\n      swap1\n      sload\n      swap1\n      0x0100\n      exp\n      swap1\n      div\n      0xff\n      and\n        /* \"smart_contracts/contracts/Polygon/Token.sol\":2745:2770  admin[msg.sender] == true */\n      iszero\n      iszero\n      eq\n        /* \"smart_contracts/contracts/Polygon/Token.sol\":2724:2805  require(... */\n      tag_167\n      jumpi\n      mload(0x40)\n      0x08c379a000000000000000000000000000000000000000000000000000000000\n      dup2\n      mstore\n      0x04\n      add\n      tag_168\n      swap1\n      tag_145\n      jump\t// in\n    tag_168:\n      mload(0x40)\n      dup1\n      swap2\n      sub\n      swap1\n      revert\n    tag_167:\n        /* \"smart_contracts/contracts/Polygon/Token.sol\":14087:14088  0 */\n      0x00\n        /* \"smart_contracts/contracts/Polygon/Token.sol\":14069:14089  _vault != address(0) */\n      0xffffffffffffffffffffffffffffffffffffffff\n      and\n        /* \"smart_contracts/contracts/Polygon/Token.sol\":14069:14075  _vault */\n      dup3\n        /* \"smart_contracts/contracts/Polygon/Token.sol\":14069:14089  _vault != address(0) */\n      0xffffffffffffffffffffffffffffffffffffffff\n      and\n      sub\n        /* \"smart_contracts/contracts/Polygon/Token.sol\":14048:14099  require(... */\n      tag_170\n      jumpi\n      0x00\n      dup1\n      revert\n    tag_170:\n        /* \"smart_contracts/contracts/Polygon/Token.sol\":14122:14128  _vault */\n      dup2\n        /* \"smart_contracts/contracts/Polygon/Token.sol\":14109:14113  meta */\n      0x07\n        /* \"smart_contracts/contracts/Polygon/Token.sol\":14109:14119  meta.vault */\n      0x09\n      add\n      0x00\n        /* \"smart_contracts/contracts/Polygon/Token.sol\":14109:14128  meta.vault = _vault */\n      0x0100\n      exp\n      dup2\n      sload\n      dup2\n      0xffffffffffffffffffffffffffffffffffffffff\n      mul\n      not\n      and\n      swap1\n      dup4\n      0xffffffffffffffffffffffffffffffffffffffff\n      and\n      mul\n      or\n      swap1\n      sstore\n      pop\n        /* \"smart_contracts/contracts/Polygon/Token.sol\":14150:14156  _vault */\n      dup2\n        /* \"smart_contracts/contracts/Polygon/Token.sol\":14143:14157  Update(_vault) */\n      0xffffffffffffffffffffffffffffffffffffffff\n      and\n      0xd456720fd185d4060f5cea4d82775d2af95048c1e10f227ec35bae950a4be2a8\n      mload(0x40)\n      mload(0x40)\n      dup1\n      swap2\n      sub\n      swap1\n      log2\n        /* \"smart_contracts/contracts/Polygon/Token.sol\":14174:14178  true */\n      0x01\n        /* \"smart_contracts/contracts/Polygon/Token.sol\":14167:14178  return true */\n      swap1\n      pop\n        /* \"smart_contracts/contracts/Polygon/Token.sol\":13972:14185  function update(address _vault) external onlyAdmin returns (bool) {... */\n      swap2\n      swap1\n      pop\n      jump\t// out\n        /* \"smart_contracts/contracts/Polygon/Token.sol\":9243:9854  function transferFrom(address _from, address _to, uint256 _value) external returns (bool) {... */\n    tag_64:\n        /* \"smart_contracts/contracts/Polygon/Token.sol\":9327:9331  bool */\n      0x00\n        /* \"smart_contracts/contracts/Polygon/Token.sol\":9343:9361  uint256 _allowance */\n      dup1\n        /* \"smart_contracts/contracts/Polygon/Token.sol\":9364:9371  allowed */\n      0x14\n        /* \"smart_contracts/contracts/Polygon/Token.sol\":9364:9378  allowed[_from] */\n      0x00\n        /* \"smart_contracts/contracts/Polygon/Token.sol\":9372:9377  _from */\n      dup7\n        /* \"smart_contracts/contracts/Polygon/Token.sol\":9364:9378  allowed[_from] */\n      0xffffffffffffffffffffffffffffffffffffffff\n      and\n      0xffffffffffffffffffffffffffffffffffffffff\n      and\n      dup2\n      mstore\n      0x20\n      add\n      swap1\n      dup2\n      mstore\n      0x20\n      add\n      0x00\n      keccak256\n        /* \"smart_contracts/contracts/Polygon/Token.sol\":9364:9390  allowed[_from][msg.sender] */\n      0x00\n        /* \"smart_contracts/contracts/Polygon/Token.sol\":9379:9389  msg.sender */\n      caller\n        /* \"smart_contracts/contracts/Polygon/Token.sol\":9364:9390  allowed[_from][msg.sender] */\n      0xffffffffffffffffffffffffffffffffffffffff\n      and\n      0xffffffffffffffffffffffffffffffffffffffff\n      and\n      dup2\n      mstore\n      0x20\n      add\n      swap1\n      dup2\n      mstore\n      0x20\n      add\n      0x00\n      keccak256\n      sload\n        /* \"smart_contracts/contracts/Polygon/Token.sol\":9343:9390  uint256 _allowance = allowed[_from][msg.sender] */\n      swap1\n      pop\n        /* \"smart_contracts/contracts/Polygon/Token.sol\":9435:9452  type(uint256).max */\n      0xffffffffffffffffffffffffffffffffffffffffffffffffffffffffffffffff\n        /* \"smart_contracts/contracts/Polygon/Token.sol\":9421:9431  _allowance */\n      dup2\n        /* \"smart_contracts/contracts/Polygon/Token.sol\":9421:9452  _allowance != type(uint256).max */\n      eq\n      iszero\n        /* \"smart_contracts/contracts/Polygon/Token.sol\":9421:9488  _allowance != type(uint256).max &&... */\n      dup1\n      iszero\n      tag_172\n      jumpi\n      pop\n        /* \"smart_contracts/contracts/Polygon/Token.sol\":9482:9488  _value */\n      dup3\n        /* \"smart_contracts/contracts/Polygon/Token.sol\":9468:9478  _allowance */\n      dup2\n        /* \"smart_contracts/contracts/Polygon/Token.sol\":9468:9488  _allowance >= _value */\n      lt\n      iszero\n        /* \"smart_contracts/contracts/Polygon/Token.sol\":9421:9488  _allowance != type(uint256).max &&... */\n    tag_172:\n        /* \"smart_contracts/contracts/Polygon/Token.sol\":9400:9498  require(... */\n      tag_173\n      jumpi\n      0x00\n      dup1\n      revert\n    tag_173:\n        /* \"smart_contracts/contracts/Polygon/Token.sol\":9538:9544  _value */\n      dup3\n        /* \"smart_contracts/contracts/Polygon/Token.sol\":9508:9515  allowed */\n      0x14\n        /* \"smart_contracts/contracts/Polygon/Token.sol\":9508:9522  allowed[_from] */\n      0x00\n        /* \"smart_contracts/contracts/Polygon/Token.sol\":9516:9521  _from */\n      dup8\n        /* \"smart_contracts/contracts/Polygon/Token.sol\":9508:9522  allowed[_from] */\n      0xffffffffffffffffffffffffffffffffffffffff\n      and\n      0xffffffffffffffffffffffffffffffffffffffff\n      and\n      dup2\n      mstore\n      0x20\n      add\n      swap1\n      dup2\n      mstore\n      0x20\n      add\n      0x00\n      keccak256\n        /* \"smart_contracts/contracts/Polygon/Token.sol\":9508:9534  allowed[_from][msg.sender] */\n      0x00\n        /* \"smart_contracts/contracts/Polygon/Token.sol\":9523:9533  msg.sender */\n      caller\n        /* \"smart_contracts/contracts/Polygon/Token.sol\":9508:9534  allowed[_from][msg.sender] */\n      0xffffffffffffffffffffffffffffffffffffffff\n      and\n      0xffffffffffffffffffffffffffffffffffffffff\n      and\n      dup2\n      mstore\n      0x20\n      add\n      swap1\n      dup2\n      mstore\n      0x20\n      add\n      0x00\n      keccak256\n      0x00\n        /* \"smart_contracts/contracts/Polygon/Token.sol\":9508:9544  allowed[_from][msg.sender] -= _value */\n      dup3\n      dup3\n      sload\n      tag_174\n      swap2\n      swap1\n      tag_175\n      jump\t// in\n    tag_174:\n      swap3\n      pop\n      pop\n      dup2\n      swap1\n      sstore\n      pop\n        /* \"smart_contracts/contracts/Polygon/Token.sol\":9554:9572  uint256 _bpFeeBurn */\n      0x00\n        /* \"smart_contracts/contracts/Polygon/Token.sol\":9575:9583  settings */\n      0x01\n        /* \"smart_contracts/contracts/Polygon/Token.sol\":9575:9598  settings.bpTransferBurn */\n      0x04\n      add\n      sload\n        /* \"smart_contracts/contracts/Polygon/Token.sol\":9554:9598  uint256 _bpFeeBurn = settings.bpTransferBurn */\n      swap1\n      pop\n        /* \"smart_contracts/contracts/Polygon/Token.sol\":9608:9626  uint256 _bpFeeBank */\n      0x00\n        /* \"smart_contracts/contracts/Polygon/Token.sol\":9629:9637  settings */\n      0x01\n        /* \"smart_contracts/contracts/Polygon/Token.sol\":9629:9652  settings.bpTransferBank */\n      0x05\n      add\n      sload\n        /* \"smart_contracts/contracts/Polygon/Token.sol\":9608:9652  uint256 _bpFeeBank = settings.bpTransferBank */\n      swap1\n      pop\n        /* \"smart_contracts/contracts/Polygon/Token.sol\":9663:9676  bool _success */\n      0x00\n        /* \"smart_contracts/contracts/Polygon/Token.sol\":9678:9695  uint256 _newValue */\n      dup1\n        /* \"smart_contracts/contracts/Polygon/Token.sol\":9699:9822  transfer_(... */\n      tag_176\n        /* \"smart_contracts/contracts/Polygon/Token.sol\":9722:9727  _from */\n      dup10\n        /* \"smart_contracts/contracts/Polygon/Token.sol\":9741:9744  _to */\n      dup10\n        /* \"smart_contracts/contracts/Polygon/Token.sol\":9758:9764  _value */\n      dup10\n        /* \"smart_contracts/contracts/Polygon/Token.sol\":9778:9788  _bpFeeBurn */\n      dup8\n        /* \"smart_contracts/contracts/Polygon/Token.sol\":9802:9812  _bpFeeBank */\n      dup8\n        /* \"smart_contracts/contracts/Polygon/Token.sol\":9699:9708  transfer_ */\n      tag_177\n        /* \"smart_contracts/contracts/Polygon/Token.sol\":9699:9822  transfer_(... */\n      jump\t// in\n    tag_176:\n        /* \"smart_contracts/contracts/Polygon/Token.sol\":9662:9822  (bool _success, uint256 _newValue) = transfer_(... */\n      swap2\n      pop\n      swap2\n      pop\n        /* \"smart_contracts/contracts/Polygon/Token.sol\":9839:9847  _success */\n      dup2\n        /* \"smart_contracts/contracts/Polygon/Token.sol\":9832:9847  return _success */\n      swap6\n      pop\n      pop\n      pop\n      pop\n      pop\n      pop\n        /* \"smart_contracts/contracts/Polygon/Token.sol\":9243:9854  function transferFrom(address _from, address _to, uint256 _value) external returns (bool) {... */\n      swap4\n      swap3\n      pop\n      pop\n      pop\n      jump\t// out\n        /* \"smart_contracts/contracts/Polygon/Token.sol\":10457:11100  function unstake(uint256 _value) external returns (bool) {... */\n    tag_69:\n        /* \"smart_contracts/contracts/Polygon/Token.sol\":10508:10512  bool */\n      0x00\n        /* \"smart_contracts/contracts/Polygon/Token.sol\":10524:10537  address _from */\n      dup1\n        /* \"smart_contracts/contracts/Polygon/Token.sol\":10540:10544  meta */\n      0x07\n        /* \"smart_contracts/contracts/Polygon/Token.sol\":10540:10550  meta.vault */\n      0x09\n      add\n      0x00\n      swap1\n      sload\n      swap1\n      0x0100\n      exp\n      swap1\n      div\n      0xffffffffffffffffffffffffffffffffffffffff\n      and\n        /* \"smart_contracts/contracts/Polygon/Token.sol\":10524:10550  address _from = meta.vault */\n      swap1\n      pop\n        /* \"smart_contracts/contracts/Polygon/Token.sol\":10560:10571  address _to */\n      0x00\n        /* \"smart_contracts/contracts/Polygon/Token.sol\":10574:10584  msg.sender */\n      caller\n        /* \"smart_contracts/contracts/Polygon/Token.sol\":10560:10584  address _to = msg.sender */\n      swap1\n      pop\n        /* \"smart_contracts/contracts/Polygon/Token.sol\":10594:10612  uint256 _bpFeeBurn */\n      0x00\n        /* \"smart_contracts/contracts/Polygon/Token.sol\":10615:10623  settings */\n      0x01\n        /* \"smart_contracts/contracts/Polygon/Token.sol\":10615:10638  settings.bpTransferBurn */\n      0x04\n      add\n      sload\n        /* \"smart_contracts/contracts/Polygon/Token.sol\":10594:10638  uint256 _bpFeeBurn = settings.bpTransferBurn */\n      swap1\n      pop\n        /* \"smart_contracts/contracts/Polygon/Token.sol\":10648:10666  uint256 _bpFeeBank */\n      0x00\n        /* \"smart_contracts/contracts/Polygon/Token.sol\":10669:10677  settings */\n      0x01\n        /* \"smart_contracts/contracts/Polygon/Token.sol\":10669:10692  settings.bpTransferBank */\n      0x05\n      add\n      sload\n        /* \"smart_contracts/contracts/Polygon/Token.sol\":10648:10692  uint256 _bpFeeBank = settings.bpTransferBank */\n      swap1\n      pop\n        /* \"smart_contracts/contracts/Polygon/Token.sol\":10733:10739  staked */\n      0x12\n        /* \"smart_contracts/contracts/Polygon/Token.sol\":10733:10744  staked[_to] */\n      0x00\n        /* \"smart_contracts/contracts/Polygon/Token.sol\":10740:10743  _to */\n      dup5\n        /* \"smart_contracts/contracts/Polygon/Token.sol\":10733:10744  staked[_to] */\n      0xffffffffffffffffffffffffffffffffffffffff\n      and\n      0xffffffffffffffffffffffffffffffffffffffff\n      and\n      dup2\n      mstore\n      0x20\n      add\n      swap1\n      dup2\n      mstore\n      0x20\n      add\n      0x00\n      keccak256\n      sload\n        /* \"smart_contracts/contracts/Polygon/Token.sol\":10723:10729  _value */\n      dup7\n        /* \"smart_contracts/contracts/Polygon/Token.sol\":10723:10744  _value <= staked[_to] */\n      gt\n      iszero\n        /* \"smart_contracts/contracts/Polygon/Token.sol\":10702:10754  require(... */\n      tag_179\n      jumpi\n      0x00\n      dup1\n      revert\n    tag_179:\n        /* \"smart_contracts/contracts/Polygon/Token.sol\":10765:10778  bool _success */\n      0x00\n        /* \"smart_contracts/contracts/Polygon/Token.sol\":10780:10797  uint256 _newValue */\n      dup1\n        /* \"smart_contracts/contracts/Polygon/Token.sol\":10801:10924  transfer_(... */\n      tag_180\n        /* \"smart_contracts/contracts/Polygon/Token.sol\":10824:10829  _from */\n      dup7\n        /* \"smart_contracts/contracts/Polygon/Token.sol\":10843:10846  _to */\n      dup7\n        /* \"smart_contracts/contracts/Polygon/Token.sol\":10860:10866  _value */\n      dup11\n        /* \"smart_contracts/contracts/Polygon/Token.sol\":10880:10890  _bpFeeBurn */\n      dup8\n        /* \"smart_contracts/contracts/Polygon/Token.sol\":10904:10914  _bpFeeBank */\n      dup8\n        /* \"smart_contracts/contracts/Polygon/Token.sol\":10801:10810  transfer_ */\n      tag_177\n        /* \"smart_contracts/contracts/Polygon/Token.sol\":10801:10924  transfer_(... */\n      jump\t// in\n    tag_180:\n        /* \"smart_contracts/contracts/Polygon/Token.sol\":10764:10924  (bool _success, uint256 _newValue) = transfer_(... */\n      swap2\n      pop\n      swap2\n      pop\n        /* \"smart_contracts/contracts/Polygon/Token.sol\":10954:10960  _value */\n      dup8\n        /* \"smart_contracts/contracts/Polygon/Token.sol\":10934:10940  staked */\n      0x12\n        /* \"smart_contracts/contracts/Polygon/Token.sol\":10934:10945  staked[_to] */\n      0x00\n        /* \"smart_contracts/contracts/Polygon/Token.sol\":10941:10944  _to */\n      dup8\n        /* \"smart_contracts/contracts/Polygon/Token.sol\":10934:10945  staked[_to] */\n      0xffffffffffffffffffffffffffffffffffffffff\n      and\n      0xffffffffffffffffffffffffffffffffffffffff\n      and\n      dup2\n      mstore\n      0x20\n      add\n      swap1\n      dup2\n      mstore\n      0x20\n      add\n      0x00\n      keccak256\n      0x00\n        /* \"smart_contracts/contracts/Polygon/Token.sol\":10934:10960  staked[_to]      -= _value */\n      dup3\n      dup3\n      sload\n      tag_181\n      swap2\n      swap1\n      tag_175\n      jump\t// in\n    tag_181:\n      swap3\n      pop\n      pop\n      dup2\n      swap1\n      sstore\n      pop\n        /* \"smart_contracts/contracts/Polygon/Token.sol\":10990:10996  _value */\n      dup8\n        /* \"smart_contracts/contracts/Polygon/Token.sol\":10970:10975  votes */\n      0x13\n        /* \"smart_contracts/contracts/Polygon/Token.sol\":10970:10980  votes[_to] */\n      0x00\n        /* \"smart_contracts/contracts/Polygon/Token.sol\":10976:10979  _to */\n      dup8\n        /* \"smart_contracts/contracts/Polygon/Token.sol\":10970:10980  votes[_to] */\n      0xffffffffffffffffffffffffffffffffffffffff\n      and\n      0xffffffffffffffffffffffffffffffffffffffff\n      and\n      dup2\n      mstore\n      0x20\n      add\n      swap1\n      dup2\n      mstore\n      0x20\n      add\n      0x00\n      keccak256\n      0x00\n        /* \"smart_contracts/contracts/Polygon/Token.sol\":10970:10996  votes[_to]       -= _value */\n      dup3\n      dup3\n      sload\n      tag_182\n      swap2\n      swap1\n      tag_175\n      jump\t// in\n    tag_182:\n      swap3\n      pop\n      pop\n      dup2\n      swap1\n      sstore\n      pop\n        /* \"smart_contracts/contracts/Polygon/Token.sol\":11026:11032  _value */\n      dup8\n        /* \"smart_contracts/contracts/Polygon/Token.sol\":11006:11010  meta */\n      0x07\n        /* \"smart_contracts/contracts/Polygon/Token.sol\":11006:11022  meta.totalStaked */\n      0x05\n      add\n      0x00\n        /* \"smart_contracts/contracts/Polygon/Token.sol\":11006:11032  meta.totalStaked -= _value */\n      dup3\n      dup3\n      sload\n      tag_183\n      swap2\n      swap1\n      tag_175\n      jump\t// in\n    tag_183:\n      swap3\n      pop\n      pop\n      dup2\n      swap1\n      sstore\n      pop\n        /* \"smart_contracts/contracts/Polygon/Token.sol\":11062:11068  _value */\n      dup8\n        /* \"smart_contracts/contracts/Polygon/Token.sol\":11042:11046  meta */\n      0x07\n        /* \"smart_contracts/contracts/Polygon/Token.sol\":11042:11057  meta.totalVotes */\n      dup1\n      add\n      0x00\n        /* \"smart_contracts/contracts/Polygon/Token.sol\":11042:11068  meta.totalVotes  -= _value */\n      dup3\n      dup3\n      sload\n      tag_184\n      swap2\n      swap1\n      tag_175\n      jump\t// in\n    tag_184:\n      swap3\n      pop\n      pop\n      dup2\n      swap1\n      sstore\n      pop\n        /* \"smart_contracts/contracts/Polygon/Token.sol\":11085:11093  _success */\n      dup2\n        /* \"smart_contracts/contracts/Polygon/Token.sol\":11078:11093  return _success */\n      swap7\n      pop\n      pop\n      pop\n      pop\n      pop\n      pop\n      pop\n        /* \"smart_contracts/contracts/Polygon/Token.sol\":10457:11100  function unstake(uint256 _value) external returns (bool) {... */\n      swap2\n      swap1\n      pop\n      jump\t// out\n        /* \"smart_contracts/contracts/Polygon/Token.sol\":14351:14424  function decimals() external view returns (uint8) {return meta.decimals;} */\n    tag_72:\n        /* \"smart_contracts/contracts/Polygon/Token.sol\":14394:14399  uint8 */\n      0x00\n        /* \"smart_contracts/contracts/Polygon/Token.sol\":14409:14413  meta */\n      0x07\n        /* \"smart_contracts/contracts/Polygon/Token.sol\":14409:14422  meta.decimals */\n      0x02\n      add\n      0x00\n      swap1\n      sload\n      swap1\n      0x0100\n      exp\n      swap1\n      div\n      0xff\n      and\n        /* \"smart_contracts/contracts/Polygon/Token.sol\":14402:14422  return meta.decimals */\n      swap1\n      pop\n        /* \"smart_contracts/contracts/Polygon/Token.sol\":14351:14424  function decimals() external view returns (uint8) {return meta.decimals;} */\n      swap1\n      jump\t// out\n        /* \"smart_contracts/contracts/Polygon/Token.sol\":12139:12251  function mint(address _to, uint256 _value) external onlyAdmin returns (bool) {... */\n    tag_77:\n        /* \"smart_contracts/contracts/Polygon/Token.sol\":12210:12214  bool */\n      0x00\n        /* \"smart_contracts/contracts/Polygon/Token.sol\":2766:2770  true */\n      0x01\n        /* \"smart_contracts/contracts/Polygon/Token.sol\":2745:2770  admin[msg.sender] == true */\n      iszero\n      iszero\n        /* \"smart_contracts/contracts/Polygon/Token.sol\":2745:2750  admin */\n      0x00\n        /* \"smart_contracts/contracts/Polygon/Token.sol\":2745:2762  admin[msg.sender] */\n      dup1\n        /* \"smart_contracts/contracts/Polygon/Token.sol\":2751:2761  msg.sender */\n      caller\n        /* \"smart_contracts/contracts/Polygon/Token.sol\":2745:2762  admin[msg.sender] */\n      0xffffffffffffffffffffffffffffffffffffffff\n      and\n      0xffffffffffffffffffffffffffffffffffffffff\n      and\n      dup2\n      mstore\n      0x20\n      add\n      swap1\n      dup2\n      mstore\n      0x20\n      add\n      0x00\n      keccak256\n      0x00\n      swap1\n      sload\n      swap1\n      0x0100\n      exp\n      swap1\n      div\n      0xff\n      and\n        /* \"smart_contracts/contracts/Polygon/Token.sol\":2745:2770  admin[msg.sender] == true */\n      iszero\n      iszero\n      eq\n        /* \"smart_contracts/contracts/Polygon/Token.sol\":2724:2805  require(... */\n      tag_187\n      jumpi\n      mload(0x40)\n      0x08c379a000000000000000000000000000000000000000000000000000000000\n      dup2\n      mstore\n      0x04\n      add\n      tag_188\n      swap1\n      tag_145\n      jump\t// in\n    tag_188:\n      mload(0x40)\n      dup1\n      swap2\n      sub\n      swap1\n      revert\n    tag_187:\n        /* \"smart_contracts/contracts/Polygon/Token.sol\":12226:12244  mint_(_to, _value) */\n      tag_190\n        /* \"smart_contracts/contracts/Polygon/Token.sol\":12232:12235  _to */\n      dup4\n        /* \"smart_contracts/contracts/Polygon/Token.sol\":12237:12243  _value */\n      dup4\n        /* \"smart_contracts/contracts/Polygon/Token.sol\":12226:12231  mint_ */\n      tag_191\n        /* \"smart_contracts/contracts/Polygon/Token.sol\":12226:12244  mint_(_to, _value) */\n      jump\t// in\n    tag_190:\n      pop\n        /* \"smart_contracts/contracts/Polygon/Token.sol\":12139:12251  function mint(address _to, uint256 _value) external onlyAdmin returns (bool) {... */\n      swap3\n      swap2\n      pop\n      pop\n      jump\t// out\n        /* \"smart_contracts/contracts/Polygon/Token.sol\":14944:15033  function stakeOf(address _owner) external view returns (uint256) {return staked[_owner];} */\n    tag_81:\n        /* \"smart_contracts/contracts/Polygon/Token.sol\":15000:15007  uint256 */\n      0x00\n        /* \"smart_contracts/contracts/Polygon/Token.sol\":15017:15023  staked */\n      0x12\n        /* \"smart_contracts/contracts/Polygon/Token.sol\":15017:15031  staked[_owner] */\n      0x00\n        /* \"smart_contracts/contracts/Polygon/Token.sol\":15024:15030  _owner */\n      dup4\n        /* \"smart_contracts/contracts/Polygon/Token.sol\":15017:15031  staked[_owner] */\n      0xffffffffffffffffffffffffffffffffffffffff\n      and\n      0xffffffffffffffffffffffffffffffffffffffff\n      and\n      dup2\n      mstore\n      0x20\n      add\n      swap1\n      dup2\n      mstore\n      0x20\n      add\n      0x00\n      keccak256\n      sload\n        /* \"smart_contracts/contracts/Polygon/Token.sol\":15010:15031  return staked[_owner] */\n      swap1\n      pop\n        /* \"smart_contracts/contracts/Polygon/Token.sol\":14944:15033  function stakeOf(address _owner) external view returns (uint256) {return staked[_owner];} */\n      swap2\n      swap1\n      pop\n      jump\t// out\n        /* \"smart_contracts/contracts/Polygon/Token.sol\":12461:12598  function burn(uint256 _value) external onlyAdmin returns (bool) {... */\n    tag_85:\n        /* \"smart_contracts/contracts/Polygon/Token.sol\":12519:12523  bool */\n      0x00\n        /* \"smart_contracts/contracts/Polygon/Token.sol\":2766:2770  true */\n      0x01\n        /* \"smart_contracts/contracts/Polygon/Token.sol\":2745:2770  admin[msg.sender] == true */\n      iszero\n      iszero\n        /* \"smart_contracts/contracts/Polygon/Token.sol\":2745:2750  admin */\n      0x00\n        /* \"smart_contracts/contracts/Polygon/Token.sol\":2745:2762  admin[msg.sender] */\n      dup1\n        /* \"smart_contracts/contracts/Polygon/Token.sol\":2751:2761  msg.sender */\n      caller\n        /* \"smart_contracts/contracts/Polygon/Token.sol\":2745:2762  admin[msg.sender] */\n      0xffffffffffffffffffffffffffffffffffffffff\n      and\n      0xffffffffffffffffffffffffffffffffffffffff\n      and\n      dup2\n      mstore\n      0x20\n      add\n      swap1\n      dup2\n      mstore\n      0x20\n      add\n      0x00\n      keccak256\n      0x00\n      swap1\n      sload\n      swap1\n      0x0100\n      exp\n      swap1\n      div\n      0xff\n      and\n        /* \"smart_contracts/contracts/Polygon/Token.sol\":2745:2770  admin[msg.sender] == true */\n      iszero\n      iszero\n      eq\n        /* \"smart_contracts/contracts/Polygon/Token.sol\":2724:2805  require(... */\n      tag_194\n      jumpi\n      mload(0x40)\n      0x08c379a000000000000000000000000000000000000000000000000000000000\n      dup2\n      mstore\n      0x04\n      add\n      tag_195\n      swap1\n      tag_145\n      jump\t// in\n    tag_195:\n      mload(0x40)\n      dup1\n      swap2\n      sub\n      swap1\n      revert\n    tag_194:\n        /* \"smart_contracts/contracts/Polygon/Token.sol\":12535:12548  address _from */\n      0x00\n        /* \"smart_contracts/contracts/Polygon/Token.sol\":12551:12561  msg.sender */\n      caller\n        /* \"smart_contracts/contracts/Polygon/Token.sol\":12535:12561  address _from = msg.sender */\n      swap1\n      pop\n        /* \"smart_contracts/contracts/Polygon/Token.sol\":12571:12591  burn_(_from, _value) */\n      tag_197\n        /* \"smart_contracts/contracts/Polygon/Token.sol\":12577:12582  _from */\n      dup2\n        /* \"smart_contracts/contracts/Polygon/Token.sol\":12584:12590  _value */\n      dup5\n        /* \"smart_contracts/contracts/Polygon/Token.sol\":12571:12576  burn_ */\n      tag_198\n        /* \"smart_contracts/contracts/Polygon/Token.sol\":12571:12591  burn_(_from, _value) */\n      jump\t// in\n    tag_197:\n      pop\n        /* \"smart_contracts/contracts/Polygon/Token.sol\":12525:12598  {... */\n      pop\n        /* \"smart_contracts/contracts/Polygon/Token.sol\":12461:12598  function burn(uint256 _value) external onlyAdmin returns (bool) {... */\n      swap2\n      swap1\n      pop\n      jump\t// out\n        /* \"smart_contracts/contracts/Polygon/Token.sol\":14767:14842  function mintable() external view returns (uint256) {return meta.mintable;} */\n    tag_88:\n        /* \"smart_contracts/contracts/Polygon/Token.sol\":14810:14817  uint256 */\n      0x00\n        /* \"smart_contracts/contracts/Polygon/Token.sol\":14827:14831  meta */\n      0x07\n        /* \"smart_contracts/contracts/Polygon/Token.sol\":14827:14840  meta.mintable */\n      0x03\n      add\n      sload\n        /* \"smart_contracts/contracts/Polygon/Token.sol\":14820:14840  return meta.mintable */\n      swap1\n      pop\n        /* \"smart_contracts/contracts/Polygon/Token.sol\":14767:14842  function mintable() external view returns (uint256) {return meta.mintable;} */\n      swap1\n      jump\t// out\n        /* \"smart_contracts/contracts/Polygon/Token.sol\":12604:13250  function fetchSettings() external onlyAdmin returns (uint256, uint256, uint256, uint256, uint256, uint256) {... */\n    tag_91:\n        /* \"smart_contracts/contracts/Polygon/Token.sol\":12657:12664  uint256 */\n      0x00\n        /* \"smart_contracts/contracts/Polygon/Token.sol\":12666:12673  uint256 */\n      dup1\n        /* \"smart_contracts/contracts/Polygon/Token.sol\":12675:12682  uint256 */\n      0x00\n        /* \"smart_contracts/contracts/Polygon/Token.sol\":12684:12691  uint256 */\n      dup1\n        /* \"smart_contracts/contracts/Polygon/Token.sol\":12693:12700  uint256 */\n      0x00\n        /* \"smart_contracts/contracts/Polygon/Token.sol\":12702:12709  uint256 */\n      dup1\n        /* \"smart_contracts/contracts/Polygon/Token.sol\":2766:2770  true */\n      0x01\n        /* \"smart_contracts/contracts/Polygon/Token.sol\":2745:2770  admin[msg.sender] == true */\n      iszero\n      iszero\n        /* \"smart_contracts/contracts/Polygon/Token.sol\":2745:2750  admin */\n      0x00\n        /* \"smart_contracts/contracts/Polygon/Token.sol\":2745:2762  admin[msg.sender] */\n      dup1\n        /* \"smart_contracts/contracts/Polygon/Token.sol\":2751:2761  msg.sender */\n      caller\n        /* \"smart_contracts/contracts/Polygon/Token.sol\":2745:2762  admin[msg.sender] */\n      0xffffffffffffffffffffffffffffffffffffffff\n      and\n      0xffffffffffffffffffffffffffffffffffffffff\n      and\n      dup2\n      mstore\n      0x20\n      add\n      swap1\n      dup2\n      mstore\n      0x20\n      add\n      0x00\n      keccak256\n      0x00\n      swap1\n      sload\n      swap1\n      0x0100\n      exp\n      swap1\n      div\n      0xff\n      and\n        /* \"smart_contracts/contracts/Polygon/Token.sol\":2745:2770  admin[msg.sender] == true */\n      iszero\n      iszero\n      eq\n        /* \"smart_contracts/contracts/Polygon/Token.sol\":2724:2805  require(... */\n      tag_201\n      jumpi\n      mload(0x40)\n      0x08c379a000000000000000000000000000000000000000000000000000000000\n      dup2\n      mstore\n      0x04\n      add\n      tag_202\n      swap1\n      tag_145\n      jump\t// in\n    tag_202:\n      mload(0x40)\n      dup1\n      swap2\n      sub\n      swap1\n      revert\n    tag_201:\n        /* \"smart_contracts/contracts/Polygon/Token.sol\":12721:12739  uint256 _bpFeeBurn */\n      0x00\n        /* \"smart_contracts/contracts/Polygon/Token.sol\":12742:12750  settings */\n      0x01\n        /* \"smart_contracts/contracts/Polygon/Token.sol\":12742:12765  settings.bpTransferBurn */\n      0x04\n      add\n      sload\n        /* \"smart_contracts/contracts/Polygon/Token.sol\":12721:12765  uint256 _bpFeeBurn = settings.bpTransferBurn */\n      swap1\n      pop\n        /* \"smart_contracts/contracts/Polygon/Token.sol\":12775:12793  uint256 _bpFeeBank */\n      0x00\n        /* \"smart_contracts/contracts/Polygon/Token.sol\":12796:12804  settings */\n      0x01\n        /* \"smart_contracts/contracts/Polygon/Token.sol\":12796:12819  settings.bpTransferBank */\n      0x05\n      add\n      sload\n        /* \"smart_contracts/contracts/Polygon/Token.sol\":12775:12819  uint256 _bpFeeBank = settings.bpTransferBank */\n      swap1\n      pop\n        /* \"smart_contracts/contracts/Polygon/Token.sol\":12829:12850  uint256 _bpFeeBurnMin */\n      0x00\n        /* \"smart_contracts/contracts/Polygon/Token.sol\":12853:12861  settings */\n      0x01\n        /* \"smart_contracts/contracts/Polygon/Token.sol\":12853:12879  settings.bpTransferBurnMin */\n      0x00\n      add\n      sload\n        /* \"smart_contracts/contracts/Polygon/Token.sol\":12829:12879  uint256 _bpFeeBurnMin = settings.bpTransferBurnMin */\n      swap1\n      pop\n        /* \"smart_contracts/contracts/Polygon/Token.sol\":12889:12910  uint256 _bpFeeBankMin */\n      0x00\n        /* \"smart_contracts/contracts/Polygon/Token.sol\":12913:12921  settings */\n      0x01\n        /* \"smart_contracts/contracts/Polygon/Token.sol\":12913:12939  settings.bpTransferBankMin */\n      dup1\n      add\n      sload\n        /* \"smart_contracts/contracts/Polygon/Token.sol\":12889:12939  uint256 _bpFeeBankMin = settings.bpTransferBankMin */\n      swap1\n      pop\n        /* \"smart_contracts/contracts/Polygon/Token.sol\":12949:12970  uint256 _bpFeeBurnMax */\n      0x00\n        /* \"smart_contracts/contracts/Polygon/Token.sol\":12973:12981  settings */\n      0x01\n        /* \"smart_contracts/contracts/Polygon/Token.sol\":12973:12999  settings.bpTransferBurnMax */\n      0x02\n      add\n      sload\n        /* \"smart_contracts/contracts/Polygon/Token.sol\":12949:12999  uint256 _bpFeeBurnMax = settings.bpTransferBurnMax */\n      swap1\n      pop\n        /* \"smart_contracts/contracts/Polygon/Token.sol\":13009:13030  uint256 _bpFeeBankMax */\n      0x00\n        /* \"smart_contracts/contracts/Polygon/Token.sol\":13033:13041  settings */\n      0x01\n        /* \"smart_contracts/contracts/Polygon/Token.sol\":13033:13059  settings.bpTransferBankMax */\n      0x03\n      add\n      sload\n        /* \"smart_contracts/contracts/Polygon/Token.sol\":13009:13059  uint256 _bpFeeBankMax = settings.bpTransferBankMax */\n      swap1\n      pop\n        /* \"smart_contracts/contracts/Polygon/Token.sol\":13091:13101  _bpFeeBurn */\n      dup6\n        /* \"smart_contracts/contracts/Polygon/Token.sol\":13115:13125  _bpFeeBank */\n      dup6\n        /* \"smart_contracts/contracts/Polygon/Token.sol\":13139:13152  _bpFeeBurnMin */\n      dup6\n        /* \"smart_contracts/contracts/Polygon/Token.sol\":13166:13179  _bpFeeBankMin */\n      dup6\n        /* \"smart_contracts/contracts/Polygon/Token.sol\":13193:13206  _bpFeeBurnMax */\n      dup6\n        /* \"smart_contracts/contracts/Polygon/Token.sol\":13220:13233  _bpFeeBankMax */\n      dup6\n        /* \"smart_contracts/contracts/Polygon/Token.sol\":13070:13243  return (... */\n      swap12\n      pop\n      swap12\n      pop\n      swap12\n      pop\n      swap12\n      pop\n      swap12\n      pop\n      swap12\n      pop\n      pop\n      pop\n      pop\n      pop\n      pop\n      pop\n        /* \"smart_contracts/contracts/Polygon/Token.sol\":12604:13250  function fetchSettings() external onlyAdmin returns (uint256, uint256, uint256, uint256, uint256, uint256) {... */\n      swap1\n      swap2\n      swap3\n      swap4\n      swap5\n      swap6\n      jump\t// out\n        /* \"smart_contracts/contracts/Polygon/Token.sol\":14847:14939  function balanceOf(address _owner) external view returns (uint256) {return balance[_owner];} */\n    tag_96:\n        /* \"smart_contracts/contracts/Polygon/Token.sol\":14905:14912  uint256 */\n      0x00\n        /* \"smart_contracts/contracts/Polygon/Token.sol\":14922:14929  balance */\n      0x11\n        /* \"smart_contracts/contracts/Polygon/Token.sol\":14922:14937  balance[_owner] */\n      0x00\n        /* \"smart_contracts/contracts/Polygon/Token.sol\":14930:14936  _owner */\n      dup4\n        /* \"smart_contracts/contracts/Polygon/Token.sol\":14922:14937  balance[_owner] */\n      0xffffffffffffffffffffffffffffffffffffffff\n      and\n      0xffffffffffffffffffffffffffffffffffffffff\n      and\n      dup2\n      mstore\n      0x20\n      add\n      swap1\n      dup2\n      mstore\n      0x20\n      add\n      0x00\n      keccak256\n      sload\n        /* \"smart_contracts/contracts/Polygon/Token.sol\":14915:14937  return balance[_owner] */\n      swap1\n      pop\n        /* \"smart_contracts/contracts/Polygon/Token.sol\":14847:14939  function balanceOf(address _owner) external view returns (uint256) {return balance[_owner];} */\n      swap2\n      swap1\n      pop\n      jump\t// out\n        /* \"smart_contracts/contracts/Polygon/Token.sol\":15038:15126  function votesOf(address _owner) external view returns (uint256) {return votes[_owner];} */\n    tag_100:\n        /* \"smart_contracts/contracts/Polygon/Token.sol\":15094:15101  uint256 */\n      0x00\n        /* \"smart_contracts/contracts/Polygon/Token.sol\":15111:15116  votes */\n      0x13\n        /* \"smart_contracts/contracts/Polygon/Token.sol\":15111:15124  votes[_owner] */\n      0x00\n        /* \"smart_contracts/contracts/Polygon/Token.sol\":15117:15123  _owner */\n      dup4\n        /* \"smart_contracts/contracts/Polygon/Token.sol\":15111:15124  votes[_owner] */\n      0xffffffffffffffffffffffffffffffffffffffff\n      and\n      0xffffffffffffffffffffffffffffffffffffffff\n      and\n      dup2\n      mstore\n      0x20\n      add\n      swap1\n      dup2\n      mstore\n      0x20\n      add\n      0x00\n      keccak256\n      sload\n        /* \"smart_contracts/contracts/Polygon/Token.sol\":15104:15124  return votes[_owner] */\n      swap1\n      pop\n        /* \"smart_contracts/contracts/Polygon/Token.sol\":15038:15126  function votesOf(address _owner) external view returns (uint256) {return votes[_owner];} */\n      swap2\n      swap1\n      pop\n      jump\t// out\n        /* \"smart_contracts/contracts/Polygon/Token.sol\":14513:14594  function totalStaked() external view returns (uint256) {return meta.totalStaked;} */\n    tag_103:\n        /* \"smart_contracts/contracts/Polygon/Token.sol\":14559:14566  uint256 */\n      0x00\n        /* \"smart_contracts/contracts/Polygon/Token.sol\":14576:14580  meta */\n      0x07\n        /* \"smart_contracts/contracts/Polygon/Token.sol\":14576:14592  meta.totalStaked */\n      0x05\n      add\n      sload\n        /* \"smart_contracts/contracts/Polygon/Token.sol\":14569:14592  return meta.totalStaked */\n      swap1\n      pop\n        /* \"smart_contracts/contracts/Polygon/Token.sol\":14513:14594  function totalStaked() external view returns (uint256) {return meta.totalStaked;} */\n      swap1\n      jump\t// out\n        /* \"smart_contracts/contracts/Polygon/Token.sol\":14269:14346  function symbol() external view returns (string memory) {return meta.symbol;} */\n    tag_106:\n        /* \"smart_contracts/contracts/Polygon/Token.sol\":14310:14323  string memory */\n      0x60\n        /* \"smart_contracts/contracts/Polygon/Token.sol\":14333:14337  meta */\n      0x07\n        /* \"smart_contracts/contracts/Polygon/Token.sol\":14333:14344  meta.symbol */\n      0x01\n      add\n        /* \"smart_contracts/contracts/Polygon/Token.sol\":14326:14344  return meta.symbol */\n      dup1\n      sload\n      tag_208\n      swap1\n      tag_155\n      jump\t// in\n    tag_208:\n      dup1\n      0x1f\n      add\n      0x20\n      dup1\n      swap2\n      div\n      mul\n      0x20\n      add\n      mload(0x40)\n      swap1\n      dup2\n      add\n      0x40\n      mstore\n      dup1\n      swap3\n      swap2\n      swap1\n      dup2\n      dup2\n      mstore\n      0x20\n      add\n      dup3\n      dup1\n      sload\n      tag_209\n      swap1\n      tag_155\n      jump\t// in\n    tag_209:\n      dup1\n      iszero\n      tag_210\n      jumpi\n      dup1\n      0x1f\n      lt\n      tag_211\n      jumpi\n      0x0100\n      dup1\n      dup4\n      sload\n      div\n      mul\n      dup4\n      mstore\n      swap2\n      0x20\n      add\n      swap2\n      jump(tag_210)\n    tag_211:\n      dup3\n      add\n      swap2\n      swap1\n      0x00\n      mstore\n      keccak256(0x00, 0x20)\n      swap1\n    tag_212:\n      dup2\n      sload\n      dup2\n      mstore\n      swap1\n      0x01\n      add\n      swap1\n      0x20\n      add\n      dup1\n      dup4\n      gt\n      tag_212\n      jumpi\n      dup3\n      swap1\n      sub\n      0x1f\n      and\n      dup3\n      add\n      swap2\n    tag_210:\n      pop\n      pop\n      pop\n      pop\n      pop\n      swap1\n      pop\n        /* \"smart_contracts/contracts/Polygon/Token.sol\":14269:14346  function symbol() external view returns (string memory) {return meta.symbol;} */\n      swap1\n      jump\t// out\n        /* \"smart_contracts/contracts/Polygon/Token.sol\":2829:3063  function grantPermissionAdmin(address _owner) public onlyAdmin returns (bool) {... */\n    tag_110:\n        /* \"smart_contracts/contracts/Polygon/Token.sol\":2901:2905  bool */\n      0x00\n        /* \"smart_contracts/contracts/Polygon/Token.sol\":2766:2770  true */\n      0x01\n        /* \"smart_contracts/contracts/Polygon/Token.sol\":2745:2770  admin[msg.sender] == true */\n      iszero\n      iszero\n        /* \"smart_contracts/contracts/Polygon/Token.sol\":2745:2750  admin */\n      0x00\n        /* \"smart_contracts/contracts/Polygon/Token.sol\":2745:2762  admin[msg.sender] */\n      dup1\n        /* \"smart_contracts/contracts/Polygon/Token.sol\":2751:2761  msg.sender */\n      caller\n        /* \"smart_contracts/contracts/Polygon/Token.sol\":2745:2762  admin[msg.sender] */\n      0xffffffffffffffffffffffffffffffffffffffff\n      and\n      0xffffffffffffffffffffffffffffffffffffffff\n      and\n      dup2\n      mstore\n      0x20\n      add\n      swap1\n      dup2\n      mstore\n      0x20\n      add\n      0x00\n      keccak256\n      0x00\n      swap1\n      sload\n      swap1\n      0x0100\n      exp\n      swap1\n      div\n      0xff\n      and\n        /* \"smart_contracts/contracts/Polygon/Token.sol\":2745:2770  admin[msg.sender] == true */\n      iszero\n      iszero\n      eq\n        /* \"smart_contracts/contracts/Polygon/Token.sol\":2724:2805  require(... */\n      tag_214\n      jumpi\n      mload(0x40)\n      0x08c379a000000000000000000000000000000000000000000000000000000000\n      dup2\n      mstore\n      0x04\n      add\n      tag_215\n      swap1\n      tag_145\n      jump\t// in\n    tag_215:\n      mload(0x40)\n      dup1\n      swap2\n      sub\n      swap1\n      revert\n    tag_214:\n        /* \"smart_contracts/contracts/Polygon/Token.sol\":2956:2957  0 */\n      0x00\n        /* \"smart_contracts/contracts/Polygon/Token.sol\":2938:2958  _owner != address(0) */\n      0xffffffffffffffffffffffffffffffffffffffff\n      and\n        /* \"smart_contracts/contracts/Polygon/Token.sol\":2938:2944  _owner */\n      dup3\n        /* \"smart_contracts/contracts/Polygon/Token.sol\":2938:2958  _owner != address(0) */\n      0xffffffffffffffffffffffffffffffffffffffff\n      and\n      eq\n      iszero\n        /* \"smart_contracts/contracts/Polygon/Token.sol\":2938:2995  _owner != address(0) &&... */\n      dup1\n      iszero\n      tag_217\n      jumpi\n      pop\n        /* \"smart_contracts/contracts/Polygon/Token.sol\":2991:2995  true */\n      0x01\n        /* \"smart_contracts/contracts/Polygon/Token.sol\":2974:2995  admin[_owner] != true */\n      iszero\n      iszero\n        /* \"smart_contracts/contracts/Polygon/Token.sol\":2974:2979  admin */\n      0x00\n        /* \"smart_contracts/contracts/Polygon/Token.sol\":2974:2987  admin[_owner] */\n      dup1\n        /* \"smart_contracts/contracts/Polygon/Token.sol\":2980:2986  _owner */\n      dup5\n        /* \"smart_contracts/contracts/Polygon/Token.sol\":2974:2987  admin[_owner] */\n      0xffffffffffffffffffffffffffffffffffffffff\n      and\n      0xffffffffffffffffffffffffffffffffffffffff\n      and\n      dup2\n      mstore\n      0x20\n      add\n      swap1\n      dup2\n      mstore\n      0x20\n      add\n      0x00\n      keccak256\n      0x00\n      swap1\n      sload\n      swap1\n      0x0100\n      exp\n      swap1\n      div\n      0xff\n      and\n        /* \"smart_contracts/contracts/Polygon/Token.sol\":2974:2995  admin[_owner] != true */\n      iszero\n      iszero\n      eq\n      iszero\n        /* \"smart_contracts/contracts/Polygon/Token.sol\":2938:2995  _owner != address(0) &&... */\n    tag_217:\n        /* \"smart_contracts/contracts/Polygon/Token.sol\":2917:3005  require(... */\n      tag_218\n      jumpi\n      0x00\n      dup1\n      revert\n    tag_218:\n        /* \"smart_contracts/contracts/Polygon/Token.sol\":3031:3035  true */\n      0x01\n        /* \"smart_contracts/contracts/Polygon/Token.sol\":3015:3020  admin */\n      0x00\n        /* \"smart_contracts/contracts/Polygon/Token.sol\":3015:3028  admin[_owner] */\n      dup1\n        /* \"smart_contracts/contracts/Polygon/Token.sol\":3021:3027  _owner */\n      dup5\n        /* \"smart_contracts/contracts/Polygon/Token.sol\":3015:3028  admin[_owner] */\n      0xffffffffffffffffffffffffffffffffffffffff\n      and\n      0xffffffffffffffffffffffffffffffffffffffff\n      and\n      dup2\n      mstore\n      0x20\n      add\n      swap1\n      dup2\n      mstore\n      0x20\n      add\n      0x00\n      keccak256\n      0x00\n        /* \"smart_contracts/contracts/Polygon/Token.sol\":3015:3035  admin[_owner] = true */\n      0x0100\n      exp\n      dup2\n      sload\n      dup2\n      0xff\n      mul\n      not\n      and\n      swap1\n      dup4\n      iszero\n      iszero\n      mul\n      or\n      swap1\n      sstore\n      pop\n        /* \"smart_contracts/contracts/Polygon/Token.sol\":3052:3056  true */\n      0x01\n        /* \"smart_contracts/contracts/Polygon/Token.sol\":3045:3056  return true */\n      swap1\n      pop\n        /* \"smart_contracts/contracts/Polygon/Token.sol\":2829:3063  function grantPermissionAdmin(address _owner) public onlyAdmin returns (bool) {... */\n      swap2\n      swap1\n      pop\n      jump\t// out\n        /* \"smart_contracts/contracts/Polygon/Token.sol\":9860:10451  function stake(uint256 _value) external returns (bool) {... */\n    tag_114:\n        /* \"smart_contracts/contracts/Polygon/Token.sol\":9909:9913  bool */\n      0x00\n        /* \"smart_contracts/contracts/Polygon/Token.sol\":9925:9938  address _from */\n      dup1\n        /* \"smart_contracts/contracts/Polygon/Token.sol\":9941:9951  msg.sender */\n      caller\n        /* \"smart_contracts/contracts/Polygon/Token.sol\":9925:9951  address _from = msg.sender */\n      swap1\n      pop\n        /* \"smart_contracts/contracts/Polygon/Token.sol\":9961:9972  address _to */\n      0x00\n        /* \"smart_contracts/contracts/Polygon/Token.sol\":9975:9979  meta */\n      0x07\n        /* \"smart_contracts/contracts/Polygon/Token.sol\":9975:9985  meta.vault */\n      0x09\n      add\n      0x00\n      swap1\n      sload\n      swap1\n      0x0100\n      exp\n      swap1\n      div\n      0xffffffffffffffffffffffffffffffffffffffff\n      and\n        /* \"smart_contracts/contracts/Polygon/Token.sol\":9961:9985  address _to = meta.vault */\n      swap1\n      pop\n        /* \"smart_contracts/contracts/Polygon/Token.sol\":9995:10013  uint256 _bpFeeBurn */\n      0x00\n        /* \"smart_contracts/contracts/Polygon/Token.sol\":10016:10024  settings */\n      0x01\n        /* \"smart_contracts/contracts/Polygon/Token.sol\":10016:10039  settings.bpTransferBurn */\n      0x04\n      add\n      sload\n        /* \"smart_contracts/contracts/Polygon/Token.sol\":9995:10039  uint256 _bpFeeBurn = settings.bpTransferBurn */\n      swap1\n      pop\n        /* \"smart_contracts/contracts/Polygon/Token.sol\":10049:10067  uint256 _bpFeeBank */\n      0x00\n        /* \"smart_contracts/contracts/Polygon/Token.sol\":10070:10078  settings */\n      0x01\n        /* \"smart_contracts/contracts/Polygon/Token.sol\":10070:10093  settings.bpTransferBank */\n      0x05\n      add\n      sload\n        /* \"smart_contracts/contracts/Polygon/Token.sol\":10049:10093  uint256 _bpFeeBank = settings.bpTransferBank */\n      swap1\n      pop\n        /* \"smart_contracts/contracts/Polygon/Token.sol\":10104:10117  bool _success */\n      0x00\n        /* \"smart_contracts/contracts/Polygon/Token.sol\":10119:10136  uint256 _newValue */\n      dup1\n        /* \"smart_contracts/contracts/Polygon/Token.sol\":10140:10263  transfer_(... */\n      tag_220\n        /* \"smart_contracts/contracts/Polygon/Token.sol\":10163:10168  _from */\n      dup7\n        /* \"smart_contracts/contracts/Polygon/Token.sol\":10182:10185  _to */\n      dup7\n        /* \"smart_contracts/contracts/Polygon/Token.sol\":10199:10205  _value */\n      dup11\n        /* \"smart_contracts/contracts/Polygon/Token.sol\":10219:10229  _bpFeeBurn */\n      dup8\n        /* \"smart_contracts/contracts/Polygon/Token.sol\":10243:10253  _bpFeeBank */\n      dup8\n        /* \"smart_contracts/contracts/Polygon/Token.sol\":10140:10149  transfer_ */\n      tag_177\n        /* \"smart_contracts/contracts/Polygon/Token.sol\":10140:10263  transfer_(... */\n      jump\t// in\n    tag_220:\n        /* \"smart_contracts/contracts/Polygon/Token.sol\":10103:10263  (bool _success, uint256 _newValue) = transfer_(... */\n      swap2\n      pop\n      swap2\n      pop\n        /* \"smart_contracts/contracts/Polygon/Token.sol\":10293:10302  _newValue */\n      dup1\n        /* \"smart_contracts/contracts/Polygon/Token.sol\":10273:10279  staked */\n      0x12\n        /* \"smart_contracts/contracts/Polygon/Token.sol\":10273:10286  staked[_from] */\n      0x00\n        /* \"smart_contracts/contracts/Polygon/Token.sol\":10280:10285  _from */\n      dup9\n        /* \"smart_contracts/contracts/Polygon/Token.sol\":10273:10286  staked[_from] */\n      0xffffffffffffffffffffffffffffffffffffffff\n      and\n      0xffffffffffffffffffffffffffffffffffffffff\n      and\n      dup2\n      mstore\n      0x20\n      add\n      swap1\n      dup2\n      mstore\n      0x20\n      add\n      0x00\n      keccak256\n      0x00\n        /* \"smart_contracts/contracts/Polygon/Token.sol\":10273:10302  staked[_from]    += _newValue */\n      dup3\n      dup3\n      sload\n      tag_221\n      swap2\n      swap1\n      tag_222\n      jump\t// in\n    tag_221:\n      swap3\n      pop\n      pop\n      dup2\n      swap1\n      sstore\n      pop\n        /* \"smart_contracts/contracts/Polygon/Token.sol\":10332:10341  _newValue */\n      dup1\n        /* \"smart_contracts/contracts/Polygon/Token.sol\":10312:10317  votes */\n      0x13\n        /* \"smart_contracts/contracts/Polygon/Token.sol\":10312:10324  votes[_from] */\n      0x00\n        /* \"smart_contracts/contracts/Polygon/Token.sol\":10318:10323  _from */\n      dup9\n        /* \"smart_contracts/contracts/Polygon/Token.sol\":10312:10324  votes[_from] */\n      0xffffffffffffffffffffffffffffffffffffffff\n      and\n      0xffffffffffffffffffffffffffffffffffffffff\n      and\n      dup2\n      mstore\n      0x20\n      add\n      swap1\n      dup2\n      mstore\n      0x20\n      add\n      0x00\n      keccak256\n      0x00\n        /* \"smart_contracts/contracts/Polygon/Token.sol\":10312:10341  votes[_from]     += _newValue */\n      dup3\n      dup3\n      sload\n      tag_223\n      swap2\n      swap1\n      tag_222\n      jump\t// in\n    tag_223:\n      swap3\n      pop\n      pop\n      dup2\n      swap1\n      sstore\n      pop\n        /* \"smart_contracts/contracts/Polygon/Token.sol\":10371:10380  _newValue */\n      dup1\n        /* \"smart_contracts/contracts/Polygon/Token.sol\":10351:10355  meta */\n      0x07\n        /* \"smart_contracts/contracts/Polygon/Token.sol\":10351:10367  meta.totalStaked */\n      0x05\n      add\n      0x00\n        /* \"smart_contracts/contracts/Polygon/Token.sol\":10351:10380  meta.totalStaked += _newValue */\n      dup3\n      dup3\n      sload\n      tag_224\n      swap2\n      swap1\n      tag_222\n      jump\t// in\n    tag_224:\n      swap3\n      pop\n      pop\n      dup2\n      swap1\n      sstore\n      pop\n        /* \"smart_contracts/contracts/Polygon/Token.sol\":10410:10419  _newValue */\n      dup1\n        /* \"smart_contracts/contracts/Polygon/Token.sol\":10390:10394  meta */\n      0x07\n        /* \"smart_contracts/contracts/Polygon/Token.sol\":10390:10405  meta.totalVotes */\n      dup1\n      add\n      0x00\n        /* \"smart_contracts/contracts/Polygon/Token.sol\":10390:10419  meta.totalVotes  += _newValue */\n      dup3\n      dup3\n      sload\n      tag_225\n      swap2\n      swap1\n      tag_222\n      jump\t// in\n    tag_225:\n      swap3\n      pop\n      pop\n      dup2\n      swap1\n      sstore\n      pop\n        /* \"smart_contracts/contracts/Polygon/Token.sol\":10436:10444  _success */\n      dup2\n        /* \"smart_contracts/contracts/Polygon/Token.sol\":10429:10444  return _success */\n      swap7\n      pop\n      pop\n      pop\n      pop\n      pop\n      pop\n      pop\n        /* \"smart_contracts/contracts/Polygon/Token.sol\":9860:10451  function stake(uint256 _value) external returns (bool) {... */\n      swap2\n      swap1\n      pop\n      jump\t// out\n        /* \"smart_contracts/contracts/Polygon/Token.sol\":8825:9237  function transfer(address _to, uint256 _value) external returns (bool) {... */\n    tag_118:\n        /* \"smart_contracts/contracts/Polygon/Token.sol\":8890:8894  bool */\n      0x00\n        /* \"smart_contracts/contracts/Polygon/Token.sol\":8906:8919  address _from */\n      dup1\n        /* \"smart_contracts/contracts/Polygon/Token.sol\":8922:8932  msg.sender */\n      caller\n        /* \"smart_contracts/contracts/Polygon/Token.sol\":8906:8932  address _from = msg.sender */\n      swap1\n      pop\n        /* \"smart_contracts/contracts/Polygon/Token.sol\":8942:8960  uint256 _bpFeeBurn */\n      0x00\n        /* \"smart_contracts/contracts/Polygon/Token.sol\":8963:8971  settings */\n      0x01\n        /* \"smart_contracts/contracts/Polygon/Token.sol\":8963:8986  settings.bpTransferBurn */\n      0x04\n      add\n      sload\n        /* \"smart_contracts/contracts/Polygon/Token.sol\":8942:8986  uint256 _bpFeeBurn = settings.bpTransferBurn */\n      swap1\n      pop\n        /* \"smart_contracts/contracts/Polygon/Token.sol\":8996:9014  uint256 _bpFeeBank */\n      0x00\n        /* \"smart_contracts/contracts/Polygon/Token.sol\":9017:9025  settings */\n      0x01\n        /* \"smart_contracts/contracts/Polygon/Token.sol\":9017:9040  settings.bpTransferBank */\n      0x05\n      add\n      sload\n        /* \"smart_contracts/contracts/Polygon/Token.sol\":8996:9040  uint256 _bpFeeBank = settings.bpTransferBank */\n      swap1\n      pop\n        /* \"smart_contracts/contracts/Polygon/Token.sol\":9051:9064  bool _success */\n      0x00\n        /* \"smart_contracts/contracts/Polygon/Token.sol\":9066:9083  uint256 _newValue */\n      dup1\n        /* \"smart_contracts/contracts/Polygon/Token.sol\":9087:9205  transfer_(... */\n      tag_227\n        /* \"smart_contracts/contracts/Polygon/Token.sol\":9110:9115  _from */\n      dup6\n        /* \"smart_contracts/contracts/Polygon/Token.sol\":9130:9133  _to */\n      dup10\n        /* \"smart_contracts/contracts/Polygon/Token.sol\":9148:9154  _value */\n      dup10\n        /* \"smart_contracts/contracts/Polygon/Token.sol\":9169:9179  _bpFeeBurn */\n      dup8\n        /* \"smart_contracts/contracts/Polygon/Token.sol\":9194:9204  _bpFeeBank */\n      dup8\n        /* \"smart_contracts/contracts/Polygon/Token.sol\":9087:9096  transfer_ */\n      tag_177\n        /* \"smart_contracts/contracts/Polygon/Token.sol\":9087:9205  transfer_(... */\n      jump\t// in\n    tag_227:\n        /* \"smart_contracts/contracts/Polygon/Token.sol\":9050:9205  (bool _success, uint256 _newValue) = transfer_(... */\n      swap2\n      pop\n      swap2\n      pop\n        /* \"smart_contracts/contracts/Polygon/Token.sol\":9222:9230  _success */\n      dup2\n        /* \"smart_contracts/contracts/Polygon/Token.sol\":9215:9230  return _success */\n      swap6\n      pop\n      pop\n      pop\n      pop\n      pop\n      pop\n        /* \"smart_contracts/contracts/Polygon/Token.sol\":8825:9237  function transfer(address _to, uint256 _value) external returns (bool) {... */\n      swap3\n      swap2\n      pop\n      pop\n      jump\t// out\n        /* \"smart_contracts/contracts/Polygon/Token.sol\":14685:14762  function maxSupply() external view returns (uint256) {return meta.maxSupply;} */\n    tag_121:\n        /* \"smart_contracts/contracts/Polygon/Token.sol\":14729:14736  uint256 */\n      0x00\n        /* \"smart_contracts/contracts/Polygon/Token.sol\":14746:14750  meta */\n      0x07\n        /* \"smart_contracts/contracts/Polygon/Token.sol\":14746:14760  meta.maxSupply */\n      0x08\n      add\n      sload\n        /* \"smart_contracts/contracts/Polygon/Token.sol\":14739:14760  return meta.maxSupply */\n      swap1\n      pop\n        /* \"smart_contracts/contracts/Polygon/Token.sol\":14685:14762  function maxSupply() external view returns (uint256) {return meta.maxSupply;} */\n      swap1\n      jump\t// out\n        /* \"smart_contracts/contracts/Polygon/Token.sol\":3069:3306  function revokePermissionAdmin(address _owner) public onlyAdmin returns (bool) {... */\n    tag_125:\n        /* \"smart_contracts/contracts/Polygon/Token.sol\":3142:3146  bool */\n      0x00\n        /* \"smart_contracts/contracts/Polygon/Token.sol\":2766:2770  true */\n      0x01\n        /* \"smart_contracts/contracts/Polygon/Token.sol\":2745:2770  admin[msg.sender] == true */\n      iszero\n      iszero\n        /* \"smart_contracts/contracts/Polygon/Token.sol\":2745:2750  admin */\n      0x00\n        /* \"smart_contracts/contracts/Polygon/Token.sol\":2745:2762  admin[msg.sender] */\n      dup1\n        /* \"smart_contracts/contracts/Polygon/Token.sol\":2751:2761  msg.sender */\n      caller\n        /* \"smart_contracts/contracts/Polygon/Token.sol\":2745:2762  admin[msg.sender] */\n      0xffffffffffffffffffffffffffffffffffffffff\n      and\n      0xffffffffffffffffffffffffffffffffffffffff\n      and\n      dup2\n      mstore\n      0x20\n      add\n      swap1\n      dup2\n      mstore\n      0x20\n      add\n      0x00\n      keccak256\n      0x00\n      swap1\n      sload\n      swap1\n      0x0100\n      exp\n      swap1\n      div\n      0xff\n      and\n        /* \"smart_contracts/contracts/Polygon/Token.sol\":2745:2770  admin[msg.sender] == true */\n      iszero\n      iszero\n      eq\n        /* \"smart_contracts/contracts/Polygon/Token.sol\":2724:2805  require(... */\n      tag_230\n      jumpi\n      mload(0x40)\n      0x08c379a000000000000000000000000000000000000000000000000000000000\n      dup2\n      mstore\n      0x04\n      add\n      tag_231\n      swap1\n      tag_145\n      jump\t// in\n    tag_231:\n      mload(0x40)\n      dup1\n      swap2\n      sub\n      swap1\n      revert\n    tag_230:\n        /* \"smart_contracts/contracts/Polygon/Token.sol\":3197:3198  0 */\n      0x00\n        /* \"smart_contracts/contracts/Polygon/Token.sol\":3179:3199  _owner != address(0) */\n      0xffffffffffffffffffffffffffffffffffffffff\n      and\n        /* \"smart_contracts/contracts/Polygon/Token.sol\":3179:3185  _owner */\n      dup3\n        /* \"smart_contracts/contracts/Polygon/Token.sol\":3179:3199  _owner != address(0) */\n      0xffffffffffffffffffffffffffffffffffffffff\n      and\n      eq\n      iszero\n        /* \"smart_contracts/contracts/Polygon/Token.sol\":3179:3237  _owner != address(0) &&... */\n      dup1\n      iszero\n      tag_233\n      jumpi\n      pop\n        /* \"smart_contracts/contracts/Polygon/Token.sol\":3232:3237  false */\n      0x00\n        /* \"smart_contracts/contracts/Polygon/Token.sol\":3215:3237  admin[_owner] != false */\n      iszero\n      iszero\n        /* \"smart_contracts/contracts/Polygon/Token.sol\":3215:3220  admin */\n      0x00\n        /* \"smart_contracts/contracts/Polygon/Token.sol\":3215:3228  admin[_owner] */\n      dup1\n        /* \"smart_contracts/contracts/Polygon/Token.sol\":3221:3227  _owner */\n      dup5\n        /* \"smart_contracts/contracts/Polygon/Token.sol\":3215:3228  admin[_owner] */\n      0xffffffffffffffffffffffffffffffffffffffff\n      and\n      0xffffffffffffffffffffffffffffffffffffffff\n      and\n      dup2\n      mstore\n      0x20\n      add\n      swap1\n      dup2\n      mstore\n      0x20\n      add\n      0x00\n      keccak256\n      0x00\n      swap1\n      sload\n      swap1\n      0x0100\n      exp\n      swap1\n      div\n      0xff\n      and\n        /* \"smart_contracts/contracts/Polygon/Token.sol\":3215:3237  admin[_owner] != false */\n      iszero\n      iszero\n      eq\n      iszero\n        /* \"smart_contracts/contracts/Polygon/Token.sol\":3179:3237  _owner != address(0) &&... */\n    tag_233:\n        /* \"smart_contracts/contracts/Polygon/Token.sol\":3158:3247  require(... */\n      tag_234\n      jumpi\n      0x00\n      dup1\n      revert\n    tag_234:\n        /* \"smart_contracts/contracts/Polygon/Token.sol\":3273:3278  false */\n      0x00\n        /* \"smart_contracts/contracts/Polygon/Token.sol\":3257:3262  admin */\n      dup1\n        /* \"smart_contracts/contracts/Polygon/Token.sol\":3257:3270  admin[_owner] */\n      0x00\n        /* \"smart_contracts/contracts/Polygon/Token.sol\":3263:3269  _owner */\n      dup5\n        /* \"smart_contracts/contracts/Polygon/Token.sol\":3257:3270  admin[_owner] */\n      0xffffffffffffffffffffffffffffffffffffffff\n      and\n      0xffffffffffffffffffffffffffffffffffffffff\n      and\n      dup2\n      mstore\n      0x20\n      add\n      swap1\n      dup2\n      mstore\n      0x20\n      add\n      0x00\n      keccak256\n      0x00\n        /* \"smart_contracts/contracts/Polygon/Token.sol\":3257:3278  admin[_owner] = false */\n      0x0100\n      exp\n      dup2\n      sload\n      dup2\n      0xff\n      mul\n      not\n      and\n      swap1\n      dup4\n      iszero\n      iszero\n      mul\n      or\n      swap1\n      sstore\n      pop\n        /* \"smart_contracts/contracts/Polygon/Token.sol\":3295:3299  true */\n      0x01\n        /* \"smart_contracts/contracts/Polygon/Token.sol\":3288:3299  return true */\n      swap1\n      pop\n        /* \"smart_contracts/contracts/Polygon/Token.sol\":3069:3306  function revokePermissionAdmin(address _owner) public onlyAdmin returns (bool) {... */\n      swap2\n      swap1\n      pop\n      jump\t// out\n        /* \"smart_contracts/contracts/Polygon/Token.sol\":15131:15261  function allowance(address _owner, address _spender) external view returns (uint256 remaining) {return allowed[_owner][_spender];} */\n    tag_130:\n        /* \"smart_contracts/contracts/Polygon/Token.sol\":15207:15224  uint256 remaining */\n      0x00\n        /* \"smart_contracts/contracts/Polygon/Token.sol\":15234:15241  allowed */\n      0x14\n        /* \"smart_contracts/contracts/Polygon/Token.sol\":15234:15249  allowed[_owner] */\n      0x00\n        /* \"smart_contracts/contracts/Polygon/Token.sol\":15242:15248  _owner */\n      dup5\n        /* \"smart_contracts/contracts/Polygon/Token.sol\":15234:15249  allowed[_owner] */\n      0xffffffffffffffffffffffffffffffffffffffff\n      and\n      0xffffffffffffffffffffffffffffffffffffffff\n      and\n      dup2\n      mstore\n      0x20\n      add\n      swap1\n      dup2\n      mstore\n      0x20\n      add\n      0x00\n      keccak256\n        /* \"smart_contracts/contracts/Polygon/Token.sol\":15234:15259  allowed[_owner][_spender] */\n      0x00\n        /* \"smart_contracts/contracts/Polygon/Token.sol\":15250:15258  _spender */\n      dup4\n        /* \"smart_contracts/contracts/Polygon/Token.sol\":15234:15259  allowed[_owner][_spender] */\n      0xffffffffffffffffffffffffffffffffffffffff\n      and\n      0xffffffffffffffffffffffffffffffffffffffff\n      and\n      dup2\n      mstore\n      0x20\n      add\n      swap1\n      dup2\n      mstore\n      0x20\n      add\n      0x00\n      keccak256\n      sload\n        /* \"smart_contracts/contracts/Polygon/Token.sol\":15227:15259  return allowed[_owner][_spender] */\n      swap1\n      pop\n        /* \"smart_contracts/contracts/Polygon/Token.sol\":15131:15261  function allowance(address _owner, address _spender) external view returns (uint256 remaining) {return allowed[_owner][_spender];} */\n      swap3\n      swap2\n      pop\n      pop\n      jump\t// out\n        /* \"smart_contracts/contracts/Polygon/Token.sol\":12257:12455  function mintWithVesting(address _to, uint256 _value, uint256 _duration, string memory _caption) external onlyAdmin returns (bool) {... */\n    tag_135:\n        /* \"smart_contracts/contracts/Polygon/Token.sol\":12382:12386  bool */\n      0x00\n        /* \"smart_contracts/contracts/Polygon/Token.sol\":2766:2770  true */\n      0x01\n        /* \"smart_contracts/contracts/Polygon/Token.sol\":2745:2770  admin[msg.sender] == true */\n      iszero\n      iszero\n        /* \"smart_contracts/contracts/Polygon/Token.sol\":2745:2750  admin */\n      0x00\n        /* \"smart_contracts/contracts/Polygon/Token.sol\":2745:2762  admin[msg.sender] */\n      dup1\n        /* \"smart_contracts/contracts/Polygon/Token.sol\":2751:2761  msg.sender */\n      caller\n        /* \"smart_contracts/contracts/Polygon/Token.sol\":2745:2762  admin[msg.sender] */\n      0xffffffffffffffffffffffffffffffffffffffff\n      and\n      0xffffffffffffffffffffffffffffffffffffffff\n      and\n      dup2\n      mstore\n      0x20\n      add\n      swap1\n      dup2\n      mstore\n      0x20\n      add\n      0x00\n      keccak256\n      0x00\n      swap1\n      sload\n      swap1\n      0x0100\n      exp\n      swap1\n      div\n      0xff\n      and\n        /* \"smart_contracts/contracts/Polygon/Token.sol\":2745:2770  admin[msg.sender] == true */\n      iszero\n      iszero\n      eq\n        /* \"smart_contracts/contracts/Polygon/Token.sol\":2724:2805  require(... */\n      tag_237\n      jumpi\n      mload(0x40)\n      0x08c379a000000000000000000000000000000000000000000000000000000000\n      dup2\n      mstore\n      0x04\n      add\n      tag_238\n      swap1\n      tag_145\n      jump\t// in\n    tag_238:\n      mload(0x40)\n      dup1\n      swap2\n      sub\n      swap1\n      revert\n    tag_237:\n        /* \"smart_contracts/contracts/Polygon/Token.sol\":12398:12448  mintWithVesting_(_to, _value, _duration, _caption) */\n      tag_240\n        /* \"smart_contracts/contracts/Polygon/Token.sol\":12415:12418  _to */\n      dup6\n        /* \"smart_contracts/contracts/Polygon/Token.sol\":12420:12426  _value */\n      dup6\n        /* \"smart_contracts/contracts/Polygon/Token.sol\":12428:12437  _duration */\n      dup6\n        /* \"smart_contracts/contracts/Polygon/Token.sol\":12439:12447  _caption */\n      dup6\n        /* \"smart_contracts/contracts/Polygon/Token.sol\":12398:12414  mintWithVesting_ */\n      tag_241\n        /* \"smart_contracts/contracts/Polygon/Token.sol\":12398:12448  mintWithVesting_(_to, _value, _duration, _caption) */\n      jump\t// in\n    tag_240:\n      pop\n        /* \"smart_contracts/contracts/Polygon/Token.sol\":12257:12455  function mintWithVesting(address _to, uint256 _value, uint256 _duration, string memory _caption) external onlyAdmin returns (bool) {... */\n      swap5\n      swap4\n      pop\n      pop\n      pop\n      pop\n      jump\t// out\n        /* \"smart_contracts/contracts/Polygon/Token.sol\":11106:11795  function release(string memory _caption) external returns (bool) {... */\n    tag_140:\n        /* \"smart_contracts/contracts/Polygon/Token.sol\":11165:11169  bool */\n      0x00\n        /* \"smart_contracts/contracts/Polygon/Token.sol\":11181:11194  address _from */\n      dup1\n        /* \"smart_contracts/contracts/Polygon/Token.sol\":11197:11201  meta */\n      0x07\n        /* \"smart_contracts/contracts/Polygon/Token.sol\":11197:11207  meta.vault */\n      0x09\n      add\n      0x00\n      swap1\n      sload\n      swap1\n      0x0100\n      exp\n      swap1\n      div\n      0xffffffffffffffffffffffffffffffffffffffff\n      and\n        /* \"smart_contracts/contracts/Polygon/Token.sol\":11181:11207  address _from = meta.vault */\n      swap1\n      pop\n        /* \"smart_contracts/contracts/Polygon/Token.sol\":11217:11228  address _to */\n      0x00\n        /* \"smart_contracts/contracts/Polygon/Token.sol\":11231:11241  msg.sender */\n      caller\n        /* \"smart_contracts/contracts/Polygon/Token.sol\":11217:11241  address _to = msg.sender */\n      swap1\n      pop\n        /* \"smart_contracts/contracts/Polygon/Token.sol\":11251:11263  uint256 _end */\n      0x00\n        /* \"smart_contracts/contracts/Polygon/Token.sol\":11266:11275  schedules */\n      0x15\n        /* \"smart_contracts/contracts/Polygon/Token.sol\":11266:11280  schedules[_to] */\n      0x00\n        /* \"smart_contracts/contracts/Polygon/Token.sol\":11276:11279  _to */\n      dup4\n        /* \"smart_contracts/contracts/Polygon/Token.sol\":11266:11280  schedules[_to] */\n      0xffffffffffffffffffffffffffffffffffffffff\n      and\n      0xffffffffffffffffffffffffffffffffffffffff\n      and\n      dup2\n      mstore\n      0x20\n      add\n      swap1\n      dup2\n      mstore\n      0x20\n      add\n      0x00\n      keccak256\n        /* \"smart_contracts/contracts/Polygon/Token.sol\":11281:11289  _caption */\n      dup6\n        /* \"smart_contracts/contracts/Polygon/Token.sol\":11266:11290  schedules[_to][_caption] */\n      mload(0x40)\n      tag_243\n      swap2\n      swap1\n      tag_244\n      jump\t// in\n    tag_243:\n      swap1\n      dup2\n      mstore\n      0x20\n      add\n      mload(0x40)\n      dup1\n      swap2\n      sub\n      swap1\n      keccak256\n        /* \"smart_contracts/contracts/Polygon/Token.sol\":11266:11294  schedules[_to][_caption].end */\n      0x03\n      add\n      sload\n        /* \"smart_contracts/contracts/Polygon/Token.sol\":11251:11294  uint256 _end = schedules[_to][_caption].end */\n      swap1\n      pop\n        /* \"smart_contracts/contracts/Polygon/Token.sol\":11304:11318  uint256 _value */\n      0x00\n        /* \"smart_contracts/contracts/Polygon/Token.sol\":11321:11330  schedules */\n      0x15\n        /* \"smart_contracts/contracts/Polygon/Token.sol\":11321:11335  schedules[_to] */\n      0x00\n        /* \"smart_contracts/contracts/Polygon/Token.sol\":11331:11334  _to */\n      dup5\n        /* \"smart_contracts/contracts/Polygon/Token.sol\":11321:11335  schedules[_to] */\n      0xffffffffffffffffffffffffffffffffffffffff\n      and\n      0xffffffffffffffffffffffffffffffffffffffff\n      and\n      dup2\n      mstore\n      0x20\n      add\n      swap1\n      dup2\n      mstore\n      0x20\n      add\n      0x00\n      keccak256\n        /* \"smart_contracts/contracts/Polygon/Token.sol\":11336:11344  _caption */\n      dup7\n        /* \"smart_contracts/contracts/Polygon/Token.sol\":11321:11345  schedules[_to][_caption] */\n      mload(0x40)\n      tag_245\n      swap2\n      swap1\n      tag_244\n      jump\t// in\n    tag_245:\n      swap1\n      dup2\n      mstore\n      0x20\n      add\n      mload(0x40)\n      dup1\n      swap2\n      sub\n      swap1\n      keccak256\n        /* \"smart_contracts/contracts/Polygon/Token.sol\":11321:11351  schedules[_to][_caption].value */\n      0x04\n      add\n      sload\n        /* \"smart_contracts/contracts/Polygon/Token.sol\":11304:11351  uint256 _value = schedules[_to][_caption].value */\n      swap1\n      pop\n        /* \"smart_contracts/contracts/Polygon/Token.sol\":11390:11405  block.timestamp */\n      timestamp\n        /* \"smart_contracts/contracts/Polygon/Token.sol\":11382:11386  _end */\n      dup3\n        /* \"smart_contracts/contracts/Polygon/Token.sol\":11382:11405  _end >= block.timestamp */\n      lt\n      iszero\n        /* \"smart_contracts/contracts/Polygon/Token.sol\":11382:11431  _end >= block.timestamp &&... */\n      dup1\n      iszero\n      tag_246\n      jumpi\n      pop\n        /* \"smart_contracts/contracts/Polygon/Token.sol\":11430:11431  0 */\n      0x00\n        /* \"smart_contracts/contracts/Polygon/Token.sol\":11421:11427  _value */\n      dup2\n        /* \"smart_contracts/contracts/Polygon/Token.sol\":11421:11431  _value > 0 */\n      gt\n        /* \"smart_contracts/contracts/Polygon/Token.sol\":11382:11431  _end >= block.timestamp &&... */\n    tag_246:\n        /* \"smart_contracts/contracts/Polygon/Token.sol\":11361:11441  require(... */\n      tag_247\n      jumpi\n      0x00\n      dup1\n      revert\n    tag_247:\n        /* \"smart_contracts/contracts/Polygon/Token.sol\":11451:11469  uint256 _bpFeeBurn */\n      0x00\n        /* \"smart_contracts/contracts/Polygon/Token.sol\":11472:11480  settings */\n      0x01\n        /* \"smart_contracts/contracts/Polygon/Token.sol\":11472:11495  settings.bpTransferBurn */\n      0x04\n      add\n      sload\n        /* \"smart_contracts/contracts/Polygon/Token.sol\":11451:11495  uint256 _bpFeeBurn = settings.bpTransferBurn */\n      swap1\n      pop\n        /* \"smart_contracts/contracts/Polygon/Token.sol\":11505:11523  uint256 _bpFeeBank */\n      0x00\n        /* \"smart_contracts/contracts/Polygon/Token.sol\":11526:11534  settings */\n      0x01\n        /* \"smart_contracts/contracts/Polygon/Token.sol\":11526:11549  settings.bpTransferBank */\n      0x05\n      add\n      sload\n        /* \"smart_contracts/contracts/Polygon/Token.sol\":11505:11549  uint256 _bpFeeBank = settings.bpTransferBank */\n      swap1\n      pop\n        /* \"smart_contracts/contracts/Polygon/Token.sol\":11560:11573  bool _success */\n      0x00\n        /* \"smart_contracts/contracts/Polygon/Token.sol\":11575:11592  uint256 _newValue */\n      dup1\n        /* \"smart_contracts/contracts/Polygon/Token.sol\":11596:11719  transfer_(... */\n      tag_248\n        /* \"smart_contracts/contracts/Polygon/Token.sol\":11619:11624  _from */\n      dup9\n        /* \"smart_contracts/contracts/Polygon/Token.sol\":11638:11641  _to */\n      dup9\n        /* \"smart_contracts/contracts/Polygon/Token.sol\":11655:11661  _value */\n      dup8\n        /* \"smart_contracts/contracts/Polygon/Token.sol\":11675:11685  _bpFeeBurn */\n      dup8\n        /* \"smart_contracts/contracts/Polygon/Token.sol\":11699:11709  _bpFeeBank */\n      dup8\n        /* \"smart_contracts/contracts/Polygon/Token.sol\":11596:11605  transfer_ */\n      tag_177\n        /* \"smart_contracts/contracts/Polygon/Token.sol\":11596:11719  transfer_(... */\n      jump\t// in\n    tag_248:\n        /* \"smart_contracts/contracts/Polygon/Token.sol\":11559:11719  (bool _success, uint256 _newValue) = transfer_(... */\n      swap2\n      pop\n      swap2\n      pop\n        /* \"smart_contracts/contracts/Polygon/Token.sol\":11762:11763  0 */\n      0x00\n        /* \"smart_contracts/contracts/Polygon/Token.sol\":11729:11738  schedules */\n      0x15\n        /* \"smart_contracts/contracts/Polygon/Token.sol\":11729:11743  schedules[_to] */\n      0x00\n        /* \"smart_contracts/contracts/Polygon/Token.sol\":11739:11742  _to */\n      dup10\n        /* \"smart_contracts/contracts/Polygon/Token.sol\":11729:11743  schedules[_to] */\n      0xffffffffffffffffffffffffffffffffffffffff\n      and\n      0xffffffffffffffffffffffffffffffffffffffff\n      and\n      dup2\n      mstore\n      0x20\n      add\n      swap1\n      dup2\n      mstore\n      0x20\n      add\n      0x00\n      keccak256\n        /* \"smart_contracts/contracts/Polygon/Token.sol\":11744:11752  _caption */\n      dup12\n        /* \"smart_contracts/contracts/Polygon/Token.sol\":11729:11753  schedules[_to][_caption] */\n      mload(0x40)\n      tag_249\n      swap2\n      swap1\n      tag_244\n      jump\t// in\n    tag_249:\n      swap1\n      dup2\n      mstore\n      0x20\n      add\n      mload(0x40)\n      dup1\n      swap2\n      sub\n      swap1\n      keccak256\n        /* \"smart_contracts/contracts/Polygon/Token.sol\":11729:11759  schedules[_to][_caption].value */\n      0x04\n      add\n        /* \"smart_contracts/contracts/Polygon/Token.sol\":11729:11763  schedules[_to][_caption].value = 0 */\n      dup2\n      swap1\n      sstore\n      pop\n        /* \"smart_contracts/contracts/Polygon/Token.sol\":11780:11788  _success */\n      dup2\n        /* \"smart_contracts/contracts/Polygon/Token.sol\":11773:11788  return _success */\n      swap9\n      pop\n      pop\n      pop\n      pop\n      pop\n      pop\n      pop\n      pop\n      pop\n        /* \"smart_contracts/contracts/Polygon/Token.sol\":11106:11795  function release(string memory _caption) external returns (bool) {... */\n      swap2\n      swap1\n      pop\n      jump\t// out\n        /* \"smart_contracts/contracts/Polygon/Token.sol\":6358:7282  function transfer_(address _from, address _to, uint256 _value, uint256 _bpFeeBurn, uint256 _bpFeeBank) internal returns (bool, uint256) {... */\n    tag_177:\n        /* \"smart_contracts/contracts/Polygon/Token.sol\":6479:6483  bool */\n      0x00\n        /* \"smart_contracts/contracts/Polygon/Token.sol\":6485:6492  uint256 */\n      dup1\n        /* \"smart_contracts/contracts/Polygon/Token.sol\":6553:6554  0 */\n      0x00\n        /* \"smart_contracts/contracts/Polygon/Token.sol\":6525:6555  _from            != address(0) */\n      0xffffffffffffffffffffffffffffffffffffffff\n      and\n        /* \"smart_contracts/contracts/Polygon/Token.sol\":6525:6530  _from */\n      dup8\n        /* \"smart_contracts/contracts/Polygon/Token.sol\":6525:6555  _from            != address(0) */\n      0xffffffffffffffffffffffffffffffffffffffff\n      and\n      eq\n      iszero\n        /* \"smart_contracts/contracts/Polygon/Token.sol\":6525:6601  _from            != address(0) &&... */\n      dup1\n      iszero\n      tag_251\n      jumpi\n      pop\n        /* \"smart_contracts/contracts/Polygon/Token.sol\":6599:6600  0 */\n      0x00\n        /* \"smart_contracts/contracts/Polygon/Token.sol\":6571:6601  _to              != address(0) */\n      0xffffffffffffffffffffffffffffffffffffffff\n      and\n        /* \"smart_contracts/contracts/Polygon/Token.sol\":6571:6574  _to */\n      dup7\n        /* \"smart_contracts/contracts/Polygon/Token.sol\":6571:6601  _to              != address(0) */\n      0xffffffffffffffffffffffffffffffffffffffff\n      and\n      eq\n      iszero\n        /* \"smart_contracts/contracts/Polygon/Token.sol\":6525:6601  _from            != address(0) &&... */\n    tag_251:\n        /* \"smart_contracts/contracts/Polygon/Token.sol\":6525:6643  _from            != address(0) &&... */\n      dup1\n      iszero\n      tag_252\n      jumpi\n      pop\n        /* \"smart_contracts/contracts/Polygon/Token.sol\":6637:6643  _value */\n      dup5\n        /* \"smart_contracts/contracts/Polygon/Token.sol\":6617:6624  balance */\n      0x11\n        /* \"smart_contracts/contracts/Polygon/Token.sol\":6617:6631  balance[_from] */\n      0x00\n        /* \"smart_contracts/contracts/Polygon/Token.sol\":6625:6630  _from */\n      dup10\n        /* \"smart_contracts/contracts/Polygon/Token.sol\":6617:6631  balance[_from] */\n      0xffffffffffffffffffffffffffffffffffffffff\n      and\n      0xffffffffffffffffffffffffffffffffffffffff\n      and\n      dup2\n      mstore\n      0x20\n      add\n      swap1\n      dup2\n      mstore\n      0x20\n      add\n      0x00\n      keccak256\n      sload\n        /* \"smart_contracts/contracts/Polygon/Token.sol\":6617:6643  balance[_from]   >= _value */\n      lt\n      iszero\n        /* \"smart_contracts/contracts/Polygon/Token.sol\":6525:6643  _from            != address(0) &&... */\n    tag_252:\n        /* \"smart_contracts/contracts/Polygon/Token.sol\":6525:6680  _from            != address(0) &&... */\n      dup1\n      iszero\n      tag_253\n      jumpi\n      pop\n        /* \"smart_contracts/contracts/Polygon/Token.sol\":6679:6680  0 */\n      0x00\n        /* \"smart_contracts/contracts/Polygon/Token.sol\":6659:6666  balance */\n      0x11\n        /* \"smart_contracts/contracts/Polygon/Token.sol\":6659:6673  balance[_from] */\n      0x00\n        /* \"smart_contracts/contracts/Polygon/Token.sol\":6667:6672  _from */\n      dup10\n        /* \"smart_contracts/contracts/Polygon/Token.sol\":6659:6673  balance[_from] */\n      0xffffffffffffffffffffffffffffffffffffffff\n      and\n      0xffffffffffffffffffffffffffffffffffffffff\n      and\n      dup2\n      mstore\n      0x20\n      add\n      swap1\n      dup2\n      mstore\n      0x20\n      add\n      0x00\n      keccak256\n      sload\n        /* \"smart_contracts/contracts/Polygon/Token.sol\":6659:6680  balance[_from]   >= 0 */\n      lt\n      iszero\n        /* \"smart_contracts/contracts/Polygon/Token.sol\":6525:6680  _from            != address(0) &&... */\n    tag_253:\n        /* \"smart_contracts/contracts/Polygon/Token.sol\":6525:6717  _from            != address(0) &&... */\n      dup1\n      iszero\n      tag_254\n      jumpi\n      pop\n        /* \"smart_contracts/contracts/Polygon/Token.sol\":6716:6717  0 */\n      0x00\n        /* \"smart_contracts/contracts/Polygon/Token.sol\":6696:6702  _value */\n      dup6\n        /* \"smart_contracts/contracts/Polygon/Token.sol\":6696:6717  _value           >= 0 */\n      lt\n      iszero\n        /* \"smart_contracts/contracts/Polygon/Token.sol\":6525:6717  _from            != address(0) &&... */\n    tag_254:\n        /* \"smart_contracts/contracts/Polygon/Token.sol\":6504:6727  require(... */\n      tag_255\n      jumpi\n      0x00\n      dup1\n      revert\n    tag_255:\n        /* \"smart_contracts/contracts/Polygon/Token.sol\":6755:6761  _value */\n      dup5\n        /* \"smart_contracts/contracts/Polygon/Token.sol\":6737:6744  balance */\n      0x11\n        /* \"smart_contracts/contracts/Polygon/Token.sol\":6737:6751  balance[_from] */\n      0x00\n        /* \"smart_contracts/contracts/Polygon/Token.sol\":6745:6750  _from */\n      dup10\n        /* \"smart_contracts/contracts/Polygon/Token.sol\":6737:6751  balance[_from] */\n      0xffffffffffffffffffffffffffffffffffffffff\n      and\n      0xffffffffffffffffffffffffffffffffffffffff\n      and\n      dup2\n      mstore\n      0x20\n      add\n      swap1\n      dup2\n      mstore\n      0x20\n      add\n      0x00\n      keccak256\n      0x00\n        /* \"smart_contracts/contracts/Polygon/Token.sol\":6737:6761  balance[_from] -= _value */\n      dup3\n      dup3\n      sload\n      tag_256\n      swap2\n      swap1\n      tag_175\n      jump\t// in\n    tag_256:\n      swap3\n      pop\n      pop\n      dup2\n      swap1\n      sstore\n      pop\n        /* \"smart_contracts/contracts/Polygon/Token.sol\":6771:6787  uint256 _feeBurn */\n      0x00\n        /* \"smart_contracts/contracts/Polygon/Token.sol\":6808:6818  _bpFeeBurn */\n      dup5\n        /* \"smart_contracts/contracts/Polygon/Token.sol\":6800:6804  1000 */\n      0x03e8\n        /* \"smart_contracts/contracts/Polygon/Token.sol\":6791:6797  _value */\n      dup8\n        /* \"smart_contracts/contracts/Polygon/Token.sol\":6791:6804  _value / 1000 */\n      tag_257\n      swap2\n      swap1\n      tag_258\n      jump\t// in\n    tag_257:\n        /* \"smart_contracts/contracts/Polygon/Token.sol\":6790:6818  (_value / 1000) * _bpFeeBurn */\n      tag_259\n      swap2\n      swap1\n      tag_260\n      jump\t// in\n    tag_259:\n        /* \"smart_contracts/contracts/Polygon/Token.sol\":6771:6818  uint256 _feeBurn = (_value / 1000) * _bpFeeBurn */\n      swap1\n      pop\n        /* \"smart_contracts/contracts/Polygon/Token.sol\":6828:6844  uint256 _feeBank */\n      0x00\n        /* \"smart_contracts/contracts/Polygon/Token.sol\":6865:6875  _bpFeeBank */\n      dup5\n        /* \"smart_contracts/contracts/Polygon/Token.sol\":6857:6861  1000 */\n      0x03e8\n        /* \"smart_contracts/contracts/Polygon/Token.sol\":6848:6854  _value */\n      dup9\n        /* \"smart_contracts/contracts/Polygon/Token.sol\":6848:6861  _value / 1000 */\n      tag_261\n      swap2\n      swap1\n      tag_258\n      jump\t// in\n    tag_261:\n        /* \"smart_contracts/contracts/Polygon/Token.sol\":6847:6875  (_value / 1000) * _bpFeeBank */\n      tag_262\n      swap2\n      swap1\n      tag_260\n      jump\t// in\n    tag_262:\n        /* \"smart_contracts/contracts/Polygon/Token.sol\":6828:6875  uint256 _feeBank = (_value / 1000) * _bpFeeBank */\n      swap1\n      pop\n        /* \"smart_contracts/contracts/Polygon/Token.sol\":6885:6902  uint256 _newValue */\n      0x00\n        /* \"smart_contracts/contracts/Polygon/Token.sol\":6926:6934  _feeBank */\n      dup2\n        /* \"smart_contracts/contracts/Polygon/Token.sol\":6915:6923  _feeBurn */\n      dup4\n        /* \"smart_contracts/contracts/Polygon/Token.sol\":6915:6934  _feeBurn + _feeBank */\n      tag_263\n      swap2\n      swap1\n      tag_222\n      jump\t// in\n    tag_263:\n        /* \"smart_contracts/contracts/Polygon/Token.sol\":6905:6911  _value */\n      dup9\n        /* \"smart_contracts/contracts/Polygon/Token.sol\":6905:6935  _value - (_feeBurn + _feeBank) */\n      tag_264\n      swap2\n      swap1\n      tag_175\n      jump\t// in\n    tag_264:\n        /* \"smart_contracts/contracts/Polygon/Token.sol\":6885:6935  uint256 _newValue = _value - (_feeBurn + _feeBank) */\n      swap1\n      pop\n        /* \"smart_contracts/contracts/Polygon/Token.sol\":6961:6970  _newValue */\n      dup1\n        /* \"smart_contracts/contracts/Polygon/Token.sol\":6945:6952  balance */\n      0x11\n        /* \"smart_contracts/contracts/Polygon/Token.sol\":6945:6957  balance[_to] */\n      0x00\n        /* \"smart_contracts/contracts/Polygon/Token.sol\":6953:6956  _to */\n      dup12\n        /* \"smart_contracts/contracts/Polygon/Token.sol\":6945:6957  balance[_to] */\n      0xffffffffffffffffffffffffffffffffffffffff\n      and\n      0xffffffffffffffffffffffffffffffffffffffff\n      and\n      dup2\n      mstore\n      0x20\n      add\n      swap1\n      dup2\n      mstore\n      0x20\n      add\n      0x00\n      keccak256\n      0x00\n        /* \"smart_contracts/contracts/Polygon/Token.sol\":6945:6970  balance[_to] += _newValue */\n      dup3\n      dup3\n      sload\n      tag_265\n      swap2\n      swap1\n      tag_222\n      jump\t// in\n    tag_265:\n      swap3\n      pop\n      pop\n      dup2\n      swap1\n      sstore\n      pop\n        /* \"smart_contracts/contracts/Polygon/Token.sol\":7003:7011  _feeBank */\n      dup2\n        /* \"smart_contracts/contracts/Polygon/Token.sol\":6980:6987  balance */\n      0x11\n        /* \"smart_contracts/contracts/Polygon/Token.sol\":6980:6999  balance[meta.vault] */\n      0x00\n        /* \"smart_contracts/contracts/Polygon/Token.sol\":6988:6992  meta */\n      0x07\n        /* \"smart_contracts/contracts/Polygon/Token.sol\":6988:6998  meta.vault */\n      0x09\n      add\n      0x00\n      swap1\n      sload\n      swap1\n      0x0100\n      exp\n      swap1\n      div\n      0xffffffffffffffffffffffffffffffffffffffff\n      and\n        /* \"smart_contracts/contracts/Polygon/Token.sol\":6980:6999  balance[meta.vault] */\n      0xffffffffffffffffffffffffffffffffffffffff\n      and\n      0xffffffffffffffffffffffffffffffffffffffff\n      and\n      dup2\n      mstore\n      0x20\n      add\n      swap1\n      dup2\n      mstore\n      0x20\n      add\n      0x00\n      keccak256\n      0x00\n        /* \"smart_contracts/contracts/Polygon/Token.sol\":6980:7011  balance[meta.vault] += _feeBank */\n      dup3\n      dup3\n      sload\n      tag_266\n      swap2\n      swap1\n      tag_222\n      jump\t// in\n    tag_266:\n      swap3\n      pop\n      pop\n      dup2\n      swap1\n      sstore\n      pop\n        /* \"smart_contracts/contracts/Polygon/Token.sol\":7041:7049  _feeBurn */\n      dup3\n        /* \"smart_contracts/contracts/Polygon/Token.sol\":7021:7025  meta */\n      0x07\n        /* \"smart_contracts/contracts/Polygon/Token.sol\":7021:7037  meta.totalSupply */\n      0x04\n      add\n      0x00\n        /* \"smart_contracts/contracts/Polygon/Token.sol\":7021:7049  meta.totalSupply -= _feeBurn */\n      dup3\n      dup3\n      sload\n      tag_267\n      swap2\n      swap1\n      tag_175\n      jump\t// in\n    tag_267:\n      swap3\n      pop\n      pop\n      dup2\n      swap1\n      sstore\n      pop\n        /* \"smart_contracts/contracts/Polygon/Token.sol\":7080:7083  _to */\n      dup9\n        /* \"smart_contracts/contracts/Polygon/Token.sol\":7064:7095  Transfer(_from, _to, _newValue) */\n      0xffffffffffffffffffffffffffffffffffffffff\n      and\n        /* \"smart_contracts/contracts/Polygon/Token.sol\":7073:7078  _from */\n      dup11\n        /* \"smart_contracts/contracts/Polygon/Token.sol\":7064:7095  Transfer(_from, _to, _newValue) */\n      0xffffffffffffffffffffffffffffffffffffffff\n      and\n      0xddf252ad1be2c89b69c2b068fc378daa952ba7f163c4a11628f55a4df523b3ef\n        /* \"smart_contracts/contracts/Polygon/Token.sol\":7085:7094  _newValue */\n      dup4\n        /* \"smart_contracts/contracts/Polygon/Token.sol\":7064:7095  Transfer(_from, _to, _newValue) */\n      mload(0x40)\n      tag_268\n      swap2\n      swap1\n      tag_52\n      jump\t// in\n    tag_268:\n      mload(0x40)\n      dup1\n      swap2\n      sub\n      swap1\n      log3\n        /* \"smart_contracts/contracts/Polygon/Token.sol\":7121:7122  0 */\n      0x00\n        /* \"smart_contracts/contracts/Polygon/Token.sol\":7109:7117  _feeBurn */\n      dup4\n        /* \"smart_contracts/contracts/Polygon/Token.sol\":7109:7122  _feeBurn != 0 */\n      eq\n        /* \"smart_contracts/contracts/Polygon/Token.sol\":7105:7169  if (_feeBurn != 0) {emit Transfer(_from, address(0), _feeBurn);} */\n      tag_269\n      jumpi\n        /* \"smart_contracts/contracts/Polygon/Token.sol\":7154:7155  0 */\n      0x00\n        /* \"smart_contracts/contracts/Polygon/Token.sol\":7130:7167  Transfer(_from, address(0), _feeBurn) */\n      0xffffffffffffffffffffffffffffffffffffffff\n      and\n        /* \"smart_contracts/contracts/Polygon/Token.sol\":7139:7144  _from */\n      dup11\n        /* \"smart_contracts/contracts/Polygon/Token.sol\":7130:7167  Transfer(_from, address(0), _feeBurn) */\n      0xffffffffffffffffffffffffffffffffffffffff\n      and\n      0xddf252ad1be2c89b69c2b068fc378daa952ba7f163c4a11628f55a4df523b3ef\n        /* \"smart_contracts/contracts/Polygon/Token.sol\":7158:7166  _feeBurn */\n      dup6\n        /* \"smart_contracts/contracts/Polygon/Token.sol\":7130:7167  Transfer(_from, address(0), _feeBurn) */\n      mload(0x40)\n      tag_270\n      swap2\n      swap1\n      tag_52\n      jump\t// in\n    tag_270:\n      mload(0x40)\n      dup1\n      swap2\n      sub\n      swap1\n      log3\n        /* \"smart_contracts/contracts/Polygon/Token.sol\":7105:7169  if (_feeBurn != 0) {emit Transfer(_from, address(0), _feeBurn);} */\n    tag_269:\n        /* \"smart_contracts/contracts/Polygon/Token.sol\":7194:7195  0 */\n      0x00\n        /* \"smart_contracts/contracts/Polygon/Token.sol\":7182:7190  _feeBank */\n      dup3\n        /* \"smart_contracts/contracts/Polygon/Token.sol\":7182:7195  _feeBank != 0 */\n      eq\n        /* \"smart_contracts/contracts/Polygon/Token.sol\":7178:7242  if (_feeBank != 0) {emit Transfer(_from, meta.vault, _feeBank);} */\n      tag_271\n      jumpi\n        /* \"smart_contracts/contracts/Polygon/Token.sol\":7219:7223  meta */\n      0x07\n        /* \"smart_contracts/contracts/Polygon/Token.sol\":7219:7229  meta.vault */\n      0x09\n      add\n      0x00\n      swap1\n      sload\n      swap1\n      0x0100\n      exp\n      swap1\n      div\n      0xffffffffffffffffffffffffffffffffffffffff\n      and\n        /* \"smart_contracts/contracts/Polygon/Token.sol\":7203:7240  Transfer(_from, meta.vault, _feeBank) */\n      0xffffffffffffffffffffffffffffffffffffffff\n      and\n        /* \"smart_contracts/contracts/Polygon/Token.sol\":7212:7217  _from */\n      dup11\n        /* \"smart_contracts/contracts/Polygon/Token.sol\":7203:7240  Transfer(_from, meta.vault, _feeBank) */\n      0xffffffffffffffffffffffffffffffffffffffff\n      and\n      0xddf252ad1be2c89b69c2b068fc378daa952ba7f163c4a11628f55a4df523b3ef\n        /* \"smart_contracts/contracts/Polygon/Token.sol\":7231:7239  _feeBank */\n      dup5\n        /* \"smart_contracts/contracts/Polygon/Token.sol\":7203:7240  Transfer(_from, meta.vault, _feeBank) */\n      mload(0x40)\n      tag_272\n      swap2\n      swap1\n      tag_52\n      jump\t// in\n    tag_272:\n      mload(0x40)\n      dup1\n      swap2\n      sub\n      swap1\n      log3\n        /* \"smart_contracts/contracts/Polygon/Token.sol\":7178:7242  if (_feeBank != 0) {emit Transfer(_from, meta.vault, _feeBank);} */\n    tag_271:\n        /* \"smart_contracts/contracts/Polygon/Token.sol\":7259:7263  true */\n      0x01\n        /* \"smart_contracts/contracts/Polygon/Token.sol\":7265:7274  _newValue */\n      dup2\n        /* \"smart_contracts/contracts/Polygon/Token.sol\":7251:7275  return (true, _newValue) */\n      swap5\n      pop\n      swap5\n      pop\n      pop\n      pop\n      pop\n        /* \"smart_contracts/contracts/Polygon/Token.sol\":6358:7282  function transfer_(address _from, address _to, uint256 _value, uint256 _bpFeeBurn, uint256 _bpFeeBank) internal returns (bool, uint256) {... */\n      swap6\n      pop\n      swap6\n      swap4\n      pop\n      pop\n      pop\n      pop\n      jump\t// out\n        /* \"smart_contracts/contracts/Polygon/Token.sol\":7288:7682  function mint_(address _to, uint256 _value) internal returns (bool) {... */\n    tag_191:\n        /* \"smart_contracts/contracts/Polygon/Token.sol\":7350:7354  bool */\n      0x00\n        /* \"smart_contracts/contracts/Polygon/Token.sol\":7366:7379  address _from */\n      dup1\n        /* \"smart_contracts/contracts/Polygon/Token.sol\":7390:7391  0 */\n      0x00\n        /* \"smart_contracts/contracts/Polygon/Token.sol\":7366:7392  address _from = address(0) */\n      swap1\n      pop\n        /* \"smart_contracts/contracts/Polygon/Token.sol\":7433:7434  0 */\n      0x00\n        /* \"smart_contracts/contracts/Polygon/Token.sol\":7423:7429  _value */\n      dup4\n        /* \"smart_contracts/contracts/Polygon/Token.sol\":7423:7434  _value >= 0 */\n      lt\n      iszero\n        /* \"smart_contracts/contracts/Polygon/Token.sol\":7423:7473  _value >= 0 &&... */\n      dup1\n      iszero\n      tag_274\n      jumpi\n      pop\n        /* \"smart_contracts/contracts/Polygon/Token.sol\":7460:7464  meta */\n      0x07\n        /* \"smart_contracts/contracts/Polygon/Token.sol\":7460:7473  meta.mintable */\n      0x03\n      add\n      sload\n        /* \"smart_contracts/contracts/Polygon/Token.sol\":7450:7456  _value */\n      dup4\n        /* \"smart_contracts/contracts/Polygon/Token.sol\":7450:7473  _value <= meta.mintable */\n      gt\n      iszero\n        /* \"smart_contracts/contracts/Polygon/Token.sol\":7423:7473  _value >= 0 &&... */\n    tag_274:\n        /* \"smart_contracts/contracts/Polygon/Token.sol\":7423:7506  _value >= 0 &&... */\n      dup1\n      iszero\n      tag_275\n      jumpi\n      pop\n        /* \"smart_contracts/contracts/Polygon/Token.sol\":7504:7505  0 */\n      0x00\n        /* \"smart_contracts/contracts/Polygon/Token.sol\":7489:7506  _to != address(0) */\n      0xffffffffffffffffffffffffffffffffffffffff\n      and\n        /* \"smart_contracts/contracts/Polygon/Token.sol\":7489:7492  _to */\n      dup5\n        /* \"smart_contracts/contracts/Polygon/Token.sol\":7489:7506  _to != address(0) */\n      0xffffffffffffffffffffffffffffffffffffffff\n      and\n      eq\n      iszero\n        /* \"smart_contracts/contracts/Polygon/Token.sol\":7423:7506  _value >= 0 &&... */\n    tag_275:\n        /* \"smart_contracts/contracts/Polygon/Token.sol\":7402:7516  require(... */\n      tag_276\n      jumpi\n      0x00\n      dup1\n      revert\n    tag_276:\n        /* \"smart_contracts/contracts/Polygon/Token.sol\":7543:7549  _value */\n      dup3\n        /* \"smart_contracts/contracts/Polygon/Token.sol\":7526:7530  meta */\n      0x07\n        /* \"smart_contracts/contracts/Polygon/Token.sol\":7526:7539  meta.mintable */\n      0x03\n      add\n      0x00\n        /* \"smart_contracts/contracts/Polygon/Token.sol\":7526:7549  meta.mintable -= _value */\n      dup3\n      dup3\n      sload\n      tag_277\n      swap2\n      swap1\n      tag_175\n      jump\t// in\n    tag_277:\n      swap3\n      pop\n      pop\n      dup2\n      swap1\n      sstore\n      pop\n        /* \"smart_contracts/contracts/Polygon/Token.sol\":7576:7582  _value */\n      dup3\n        /* \"smart_contracts/contracts/Polygon/Token.sol\":7560:7567  balance */\n      0x11\n        /* \"smart_contracts/contracts/Polygon/Token.sol\":7560:7572  balance[_to] */\n      0x00\n        /* \"smart_contracts/contracts/Polygon/Token.sol\":7568:7571  _to */\n      dup7\n        /* \"smart_contracts/contracts/Polygon/Token.sol\":7560:7572  balance[_to] */\n      0xffffffffffffffffffffffffffffffffffffffff\n      and\n      0xffffffffffffffffffffffffffffffffffffffff\n      and\n      dup2\n      mstore\n      0x20\n      add\n      swap1\n      dup2\n      mstore\n      0x20\n      add\n      0x00\n      keccak256\n      0x00\n        /* \"smart_contracts/contracts/Polygon/Token.sol\":7560:7582  balance[_to] += _value */\n      dup3\n      dup3\n      sload\n      tag_278\n      swap2\n      swap1\n      tag_222\n      jump\t// in\n    tag_278:\n      swap3\n      pop\n      pop\n      dup2\n      swap1\n      sstore\n        /* \"smart_contracts/contracts/Polygon/Token.sol\":7604:7610  _value */\n      dup4\n        /* \"smart_contracts/contracts/Polygon/Token.sol\":7584:7588  meta */\n      0x07\n        /* \"smart_contracts/contracts/Polygon/Token.sol\":7584:7600  meta.totalSupply */\n      0x04\n      add\n      0x00\n        /* \"smart_contracts/contracts/Polygon/Token.sol\":7584:7610  meta.totalSupply += _value */\n      dup3\n      dup3\n      sload\n      tag_279\n      swap2\n      swap1\n      tag_222\n      jump\t// in\n    tag_279:\n      swap3\n      pop\n      pop\n      dup2\n      swap1\n      sstore\n        /* \"smart_contracts/contracts/Polygon/Token.sol\":7559:7611  (balance[_to] += _value, meta.totalSupply += _value) */\n      pop\n      pop\n        /* \"smart_contracts/contracts/Polygon/Token.sol\":7642:7645  _to */\n      dup4\n        /* \"smart_contracts/contracts/Polygon/Token.sol\":7626:7654  Transfer(_from, _to, _value) */\n      0xffffffffffffffffffffffffffffffffffffffff\n      and\n        /* \"smart_contracts/contracts/Polygon/Token.sol\":7635:7640  _from */\n      dup2\n        /* \"smart_contracts/contracts/Polygon/Token.sol\":7626:7654  Transfer(_from, _to, _value) */\n      0xffffffffffffffffffffffffffffffffffffffff\n      and\n      0xddf252ad1be2c89b69c2b068fc378daa952ba7f163c4a11628f55a4df523b3ef\n        /* \"smart_contracts/contracts/Polygon/Token.sol\":7647:7653  _value */\n      dup6\n        /* \"smart_contracts/contracts/Polygon/Token.sol\":7626:7654  Transfer(_from, _to, _value) */\n      mload(0x40)\n      tag_280\n      swap2\n      swap1\n      tag_52\n      jump\t// in\n    tag_280:\n      mload(0x40)\n      dup1\n      swap2\n      sub\n      swap1\n      log3\n        /* \"smart_contracts/contracts/Polygon/Token.sol\":7671:7675  true */\n      0x01\n        /* \"smart_contracts/contracts/Polygon/Token.sol\":7664:7675  return true */\n      swap2\n      pop\n      pop\n        /* \"smart_contracts/contracts/Polygon/Token.sol\":7288:7682  function mint_(address _to, uint256 _value) internal returns (bool) {... */\n      swap3\n      swap2\n      pop\n      pop\n      jump\t// out\n        /* \"smart_contracts/contracts/Polygon/Token.sol\":8515:8819  function burn_(address _from, uint256 _value) internal returns (bool) {... */\n    tag_198:\n        /* \"smart_contracts/contracts/Polygon/Token.sol\":8579:8583  bool */\n      0x00\n        /* \"smart_contracts/contracts/Polygon/Token.sol\":8626:8627  0 */\n      dup1\n        /* \"smart_contracts/contracts/Polygon/Token.sol\":8616:8622  _value */\n      dup3\n        /* \"smart_contracts/contracts/Polygon/Token.sol\":8616:8627  _value >= 0 */\n      lt\n      iszero\n        /* \"smart_contracts/contracts/Polygon/Token.sol\":8616:8667  _value >= 0 &&... */\n      dup1\n      iszero\n      tag_282\n      jumpi\n      pop\n        /* \"smart_contracts/contracts/Polygon/Token.sol\":8653:8660  balance */\n      0x11\n        /* \"smart_contracts/contracts/Polygon/Token.sol\":8653:8667  balance[_from] */\n      0x00\n        /* \"smart_contracts/contracts/Polygon/Token.sol\":8661:8666  _from */\n      dup5\n        /* \"smart_contracts/contracts/Polygon/Token.sol\":8653:8667  balance[_from] */\n      0xffffffffffffffffffffffffffffffffffffffff\n      and\n      0xffffffffffffffffffffffffffffffffffffffff\n      and\n      dup2\n      mstore\n      0x20\n      add\n      swap1\n      dup2\n      mstore\n      0x20\n      add\n      0x00\n      keccak256\n      sload\n        /* \"smart_contracts/contracts/Polygon/Token.sol\":8643:8649  _value */\n      dup3\n        /* \"smart_contracts/contracts/Polygon/Token.sol\":8643:8667  _value <= balance[_from] */\n      gt\n      iszero\n        /* \"smart_contracts/contracts/Polygon/Token.sol\":8616:8667  _value >= 0 &&... */\n    tag_282:\n        /* \"smart_contracts/contracts/Polygon/Token.sol\":8595:8677  require(... */\n      tag_283\n      jumpi\n      0x00\n      dup1\n      revert\n    tag_283:\n        /* \"smart_contracts/contracts/Polygon/Token.sol\":8706:8712  _value */\n      dup2\n        /* \"smart_contracts/contracts/Polygon/Token.sol\":8688:8695  balance */\n      0x11\n        /* \"smart_contracts/contracts/Polygon/Token.sol\":8688:8702  balance[_from] */\n      0x00\n        /* \"smart_contracts/contracts/Polygon/Token.sol\":8696:8701  _from */\n      dup6\n        /* \"smart_contracts/contracts/Polygon/Token.sol\":8688:8702  balance[_from] */\n      0xffffffffffffffffffffffffffffffffffffffff\n      and\n      0xffffffffffffffffffffffffffffffffffffffff\n      and\n      dup2\n      mstore\n      0x20\n      add\n      swap1\n      dup2\n      mstore\n      0x20\n      add\n      0x00\n      keccak256\n      0x00\n        /* \"smart_contracts/contracts/Polygon/Token.sol\":8688:8712  balance[_from] -= _value */\n      dup3\n      dup3\n      sload\n      tag_284\n      swap2\n      swap1\n      tag_175\n      jump\t// in\n    tag_284:\n      swap3\n      pop\n      pop\n      dup2\n      swap1\n      sstore\n        /* \"smart_contracts/contracts/Polygon/Token.sol\":8734:8740  _value */\n      dup3\n        /* \"smart_contracts/contracts/Polygon/Token.sol\":8714:8718  meta */\n      0x07\n        /* \"smart_contracts/contracts/Polygon/Token.sol\":8714:8730  meta.totalSupply */\n      0x04\n      add\n      0x00\n        /* \"smart_contracts/contracts/Polygon/Token.sol\":8714:8740  meta.totalSupply -= _value */\n      dup3\n      dup3\n      sload\n      tag_285\n      swap2\n      swap1\n      tag_175\n      jump\t// in\n    tag_285:\n      swap3\n      pop\n      pop\n      dup2\n      swap1\n      sstore\n        /* \"smart_contracts/contracts/Polygon/Token.sol\":8687:8741  (balance[_from] -= _value, meta.totalSupply -= _value) */\n      pop\n      pop\n        /* \"smart_contracts/contracts/Polygon/Token.sol\":8780:8781  0 */\n      0x00\n        /* \"smart_contracts/contracts/Polygon/Token.sol\":8756:8791  Transfer(_from, address(0), _value) */\n      0xffffffffffffffffffffffffffffffffffffffff\n      and\n        /* \"smart_contracts/contracts/Polygon/Token.sol\":8765:8770  _from */\n      dup4\n        /* \"smart_contracts/contracts/Polygon/Token.sol\":8756:8791  Transfer(_from, address(0), _value) */\n      0xffffffffffffffffffffffffffffffffffffffff\n      and\n      0xddf252ad1be2c89b69c2b068fc378daa952ba7f163c4a11628f55a4df523b3ef\n        /* \"smart_contracts/contracts/Polygon/Token.sol\":8784:8790  _value */\n      dup5\n        /* \"smart_contracts/contracts/Polygon/Token.sol\":8756:8791  Transfer(_from, address(0), _value) */\n      mload(0x40)\n      tag_286\n      swap2\n      swap1\n      tag_52\n      jump\t// in\n    tag_286:\n      mload(0x40)\n      dup1\n      swap2\n      sub\n      swap1\n      log3\n        /* \"smart_contracts/contracts/Polygon/Token.sol\":8808:8812  true */\n      0x01\n        /* \"smart_contracts/contracts/Polygon/Token.sol\":8801:8812  return true */\n      swap1\n      pop\n        /* \"smart_contracts/contracts/Polygon/Token.sol\":8515:8819  function burn_(address _from, uint256 _value) internal returns (bool) {... */\n      swap3\n      swap2\n      pop\n      pop\n      jump\t// out\n        /* \"smart_contracts/contracts/Polygon/Token.sol\":7688:8505  function mintWithVesting_(address _to, uint256 _value, uint256 _duration, string memory _caption) internal returns (bool) {... */\n    tag_241:\n        /* \"smart_contracts/contracts/Polygon/Token.sol\":7804:7808  bool */\n      0x00\n        /* \"smart_contracts/contracts/Polygon/Token.sol\":7820:7833  address _from */\n      dup1\n        /* \"smart_contracts/contracts/Polygon/Token.sol\":7844:7845  0 */\n      0x00\n        /* \"smart_contracts/contracts/Polygon/Token.sol\":7820:7846  address _from = address(0) */\n      swap1\n      pop\n        /* \"smart_contracts/contracts/Polygon/Token.sol\":7856:7869  address _safe */\n      0x00\n        /* \"smart_contracts/contracts/Polygon/Token.sol\":7872:7876  meta */\n      0x07\n        /* \"smart_contracts/contracts/Polygon/Token.sol\":7872:7882  meta.vault */\n      0x09\n      add\n      0x00\n      swap1\n      sload\n      swap1\n      0x0100\n      exp\n      swap1\n      div\n      0xffffffffffffffffffffffffffffffffffffffff\n      and\n        /* \"smart_contracts/contracts/Polygon/Token.sol\":7856:7882  address _safe = meta.vault */\n      swap1\n      pop\n        /* \"smart_contracts/contracts/Polygon/Token.sol\":7946:7950  true */\n      0x01\n        /* \"smart_contracts/contracts/Polygon/Token.sol\":7913:7950  schedules[_to][_caption].used != true */\n      iszero\n      iszero\n        /* \"smart_contracts/contracts/Polygon/Token.sol\":7913:7922  schedules */\n      0x15\n        /* \"smart_contracts/contracts/Polygon/Token.sol\":7913:7927  schedules[_to] */\n      0x00\n        /* \"smart_contracts/contracts/Polygon/Token.sol\":7923:7926  _to */\n      dup10\n        /* \"smart_contracts/contracts/Polygon/Token.sol\":7913:7927  schedules[_to] */\n      0xffffffffffffffffffffffffffffffffffffffff\n      and\n      0xffffffffffffffffffffffffffffffffffffffff\n      and\n      dup2\n      mstore\n      0x20\n      add\n      swap1\n      dup2\n      mstore\n      0x20\n      add\n      0x00\n      keccak256\n        /* \"smart_contracts/contracts/Polygon/Token.sol\":7928:7936  _caption */\n      dup6\n        /* \"smart_contracts/contracts/Polygon/Token.sol\":7913:7937  schedules[_to][_caption] */\n      mload(0x40)\n      tag_288\n      swap2\n      swap1\n      tag_244\n      jump\t// in\n    tag_288:\n      swap1\n      dup2\n      mstore\n      0x20\n      add\n      mload(0x40)\n      dup1\n      swap2\n      sub\n      swap1\n      keccak256\n        /* \"smart_contracts/contracts/Polygon/Token.sol\":7913:7942  schedules[_to][_caption].used */\n      0x05\n      add\n      0x00\n      swap1\n      sload\n      swap1\n      0x0100\n      exp\n      swap1\n      div\n      0xff\n      and\n        /* \"smart_contracts/contracts/Polygon/Token.sol\":7913:7950  schedules[_to][_caption].used != true */\n      iszero\n      iszero\n      eq\n      iszero\n        /* \"smart_contracts/contracts/Polygon/Token.sol\":7913:7989  schedules[_to][_caption].used != true &&... */\n      dup1\n      iszero\n      tag_289\n      jumpi\n      pop\n        /* \"smart_contracts/contracts/Polygon/Token.sol\":7976:7980  meta */\n      0x07\n        /* \"smart_contracts/contracts/Polygon/Token.sol\":7976:7989  meta.mintable */\n      0x03\n      add\n      sload\n        /* \"smart_contracts/contracts/Polygon/Token.sol\":7966:7972  _value */\n      dup7\n        /* \"smart_contracts/contracts/Polygon/Token.sol\":7966:7989  _value <= meta.mintable */\n      gt\n      iszero\n        /* \"smart_contracts/contracts/Polygon/Token.sol\":7913:7989  schedules[_to][_caption].used != true &&... */\n    tag_289:\n        /* \"smart_contracts/contracts/Polygon/Token.sol\":7913:8022  schedules[_to][_caption].used != true &&... */\n      dup1\n      iszero\n      tag_290\n      jumpi\n      pop\n        /* \"smart_contracts/contracts/Polygon/Token.sol\":8020:8021  0 */\n      0x00\n        /* \"smart_contracts/contracts/Polygon/Token.sol\":8005:8022  _to != address(0) */\n      0xffffffffffffffffffffffffffffffffffffffff\n      and\n        /* \"smart_contracts/contracts/Polygon/Token.sol\":8005:8008  _to */\n      dup8\n        /* \"smart_contracts/contracts/Polygon/Token.sol\":8005:8022  _to != address(0) */\n      0xffffffffffffffffffffffffffffffffffffffff\n      and\n      eq\n      iszero\n        /* \"smart_contracts/contracts/Polygon/Token.sol\":7913:8022  schedules[_to][_caption].used != true &&... */\n    tag_290:\n        /* \"smart_contracts/contracts/Polygon/Token.sol\":7913:8049  schedules[_to][_caption].used != true &&... */\n      dup1\n      iszero\n      tag_291\n      jumpi\n      pop\n        /* \"smart_contracts/contracts/Polygon/Token.sol\":8048:8049  0 */\n      0x00\n        /* \"smart_contracts/contracts/Polygon/Token.sol\":8038:8044  _value */\n      dup7\n        /* \"smart_contracts/contracts/Polygon/Token.sol\":8038:8049  _value >= 0 */\n      lt\n      iszero\n        /* \"smart_contracts/contracts/Polygon/Token.sol\":7913:8049  schedules[_to][_caption].used != true &&... */\n    tag_291:\n        /* \"smart_contracts/contracts/Polygon/Token.sol\":7892:8059  require(... */\n      tag_292\n      jumpi\n      0x00\n      dup1\n      revert\n    tag_292:\n        /* \"smart_contracts/contracts/Polygon/Token.sol\":8088:8094  _value */\n      dup6\n        /* \"smart_contracts/contracts/Polygon/Token.sol\":8070:8074  meta */\n      0x07\n        /* \"smart_contracts/contracts/Polygon/Token.sol\":8070:8083  meta.mintable */\n      0x03\n      add\n      0x00\n        /* \"smart_contracts/contracts/Polygon/Token.sol\":8070:8094  meta.mintable -=  _value */\n      dup3\n      dup3\n      sload\n      tag_293\n      swap2\n      swap1\n      tag_175\n      jump\t// in\n    tag_293:\n      swap3\n      pop\n      pop\n      dup2\n      swap1\n      sstore\n        /* \"smart_contracts/contracts/Polygon/Token.sol\":8116:8122  _value */\n      dup7\n        /* \"smart_contracts/contracts/Polygon/Token.sol\":8096:8100  meta */\n      0x07\n        /* \"smart_contracts/contracts/Polygon/Token.sol\":8096:8112  meta.totalSupply */\n      0x04\n      add\n      0x00\n        /* \"smart_contracts/contracts/Polygon/Token.sol\":8096:8122  meta.totalSupply += _value */\n      dup3\n      dup3\n      sload\n      tag_294\n      swap2\n      swap1\n      tag_222\n      jump\t// in\n    tag_294:\n      swap3\n      pop\n      pop\n      dup2\n      swap1\n      sstore\n        /* \"smart_contracts/contracts/Polygon/Token.sol\":8142:8148  _value */\n      dup8\n        /* \"smart_contracts/contracts/Polygon/Token.sol\":8124:8131  balance */\n      0x11\n        /* \"smart_contracts/contracts/Polygon/Token.sol\":8124:8138  balance[_safe] */\n      0x00\n        /* \"smart_contracts/contracts/Polygon/Token.sol\":8132:8137  _safe */\n      dup6\n        /* \"smart_contracts/contracts/Polygon/Token.sol\":8124:8138  balance[_safe] */\n      0xffffffffffffffffffffffffffffffffffffffff\n      and\n      0xffffffffffffffffffffffffffffffffffffffff\n      and\n      dup2\n      mstore\n      0x20\n      add\n      swap1\n      dup2\n      mstore\n      0x20\n      add\n      0x00\n      keccak256\n      0x00\n        /* \"smart_contracts/contracts/Polygon/Token.sol\":8124:8148  balance[_safe] += _value */\n      dup3\n      dup3\n      sload\n      tag_295\n      swap2\n      swap1\n      tag_222\n      jump\t// in\n    tag_295:\n      swap3\n      pop\n      pop\n      dup2\n      swap1\n      sstore\n        /* \"smart_contracts/contracts/Polygon/Token.sol\":8069:8149  (meta.mintable -=  _value, meta.totalSupply += _value, balance[_safe] += _value) */\n      pop\n      pop\n      pop\n        /* \"smart_contracts/contracts/Polygon/Token.sol\":8159:8173  uint256 _start */\n      0x00\n        /* \"smart_contracts/contracts/Polygon/Token.sol\":8176:8191  block.timestamp */\n      timestamp\n        /* \"smart_contracts/contracts/Polygon/Token.sol\":8159:8191  uint256 _start = block.timestamp */\n      swap1\n      pop\n        /* \"smart_contracts/contracts/Polygon/Token.sol\":8228:8434  VestingSchedule({... */\n      mload(0x40)\n      dup1\n      0xc0\n      add\n      0x40\n      mstore\n      dup1\n        /* \"smart_contracts/contracts/Polygon/Token.sol\":8267:8275  _caption */\n      dup7\n        /* \"smart_contracts/contracts/Polygon/Token.sol\":8228:8434  VestingSchedule({... */\n      dup2\n      mstore\n      0x20\n      add\n        /* \"smart_contracts/contracts/Polygon/Token.sol\":8299:8308  _duration */\n      dup8\n        /* \"smart_contracts/contracts/Polygon/Token.sol\":8228:8434  VestingSchedule({... */\n      dup2\n      mstore\n      0x20\n      add\n        /* \"smart_contracts/contracts/Polygon/Token.sol\":8329:8335  _start */\n      dup3\n        /* \"smart_contracts/contracts/Polygon/Token.sol\":8228:8434  VestingSchedule({... */\n      dup2\n      mstore\n      0x20\n      add\n        /* \"smart_contracts/contracts/Polygon/Token.sol\":8363:8372  _duration */\n      dup8\n        /* \"smart_contracts/contracts/Polygon/Token.sol\":8354:8360  _start */\n      dup4\n        /* \"smart_contracts/contracts/Polygon/Token.sol\":8354:8372  _start + _duration */\n      tag_296\n      swap2\n      swap1\n      tag_222\n      jump\t// in\n    tag_296:\n        /* \"smart_contracts/contracts/Polygon/Token.sol\":8228:8434  VestingSchedule({... */\n      dup2\n      mstore\n      0x20\n      add\n        /* \"smart_contracts/contracts/Polygon/Token.sol\":8393:8399  _value */\n      dup9\n        /* \"smart_contracts/contracts/Polygon/Token.sol\":8228:8434  VestingSchedule({... */\n      dup2\n      mstore\n      0x20\n      add\n        /* \"smart_contracts/contracts/Polygon/Token.sol\":8419:8423  true */\n      0x01\n        /* \"smart_contracts/contracts/Polygon/Token.sol\":8228:8434  VestingSchedule({... */\n      iszero\n      iszero\n      dup2\n      mstore\n      pop\n        /* \"smart_contracts/contracts/Polygon/Token.sol\":8201:8210  schedules */\n      0x15\n        /* \"smart_contracts/contracts/Polygon/Token.sol\":8201:8215  schedules[_to] */\n      0x00\n        /* \"smart_contracts/contracts/Polygon/Token.sol\":8211:8214  _to */\n      dup11\n        /* \"smart_contracts/contracts/Polygon/Token.sol\":8201:8215  schedules[_to] */\n      0xffffffffffffffffffffffffffffffffffffffff\n      and\n      0xffffffffffffffffffffffffffffffffffffffff\n      and\n      dup2\n      mstore\n      0x20\n      add\n      swap1\n      dup2\n      mstore\n      0x20\n      add\n      0x00\n      keccak256\n        /* \"smart_contracts/contracts/Polygon/Token.sol\":8216:8224  _caption */\n      dup7\n        /* \"smart_contracts/contracts/Polygon/Token.sol\":8201:8225  schedules[_to][_caption] */\n      mload(0x40)\n      tag_297\n      swap2\n      swap1\n      tag_244\n      jump\t// in\n    tag_297:\n      swap1\n      dup2\n      mstore\n      0x20\n      add\n      mload(0x40)\n      dup1\n      swap2\n      sub\n      swap1\n      keccak256\n        /* \"smart_contracts/contracts/Polygon/Token.sol\":8201:8434  schedules[_to][_caption] = VestingSchedule({... */\n      0x00\n      dup3\n      add\n      mload\n      dup2\n      0x00\n      add\n      swap1\n      dup2\n      tag_298\n      swap2\n      swap1\n      tag_299\n      jump\t// in\n    tag_298:\n      pop\n      0x20\n      dup3\n      add\n      mload\n      dup2\n      0x01\n      add\n      sstore\n      0x40\n      dup3\n      add\n      mload\n      dup2\n      0x02\n      add\n      sstore\n      0x60\n      dup3\n      add\n      mload\n      dup2\n      0x03\n      add\n      sstore\n      0x80\n      dup3\n      add\n      mload\n      dup2\n      0x04\n      add\n      sstore\n      0xa0\n      dup3\n      add\n      mload\n      dup2\n      0x05\n      add\n      exp(0x0100, 0x00)\n      dup2\n      sload\n      dup2\n      0xff\n      mul\n      not\n      and\n      swap1\n      dup4\n      iszero\n      iszero\n      mul\n      or\n      swap1\n      sstore\n      pop\n      swap1\n      pop\n      pop\n        /* \"smart_contracts/contracts/Polygon/Token.sol\":8465:8468  _to */\n      dup8\n        /* \"smart_contracts/contracts/Polygon/Token.sol\":8449:8477  Transfer(_from, _to, _value) */\n      0xffffffffffffffffffffffffffffffffffffffff\n      and\n        /* \"smart_contracts/contracts/Polygon/Token.sol\":8458:8463  _from */\n      dup4\n        /* \"smart_contracts/contracts/Polygon/Token.sol\":8449:8477  Transfer(_from, _to, _value) */\n      0xffffffffffffffffffffffffffffffffffffffff\n      and\n      0xddf252ad1be2c89b69c2b068fc378daa952ba7f163c4a11628f55a4df523b3ef\n        /* \"smart_contracts/contracts/Polygon/Token.sol\":8470:8476  _value */\n      dup10\n        /* \"smart_contracts/contracts/Polygon/Token.sol\":8449:8477  Transfer(_from, _to, _value) */\n      mload(0x40)\n      tag_300\n      swap2\n      swap1\n      tag_52\n      jump\t// in\n    tag_300:\n      mload(0x40)\n      dup1\n      swap2\n      sub\n      swap1\n      log3\n        /* \"smart_contracts/contracts/Polygon/Token.sol\":8494:8498  true */\n      0x01\n        /* \"smart_contracts/contracts/Polygon/Token.sol\":8487:8498  return true */\n      swap4\n      pop\n      pop\n      pop\n      pop\n        /* \"smart_contracts/contracts/Polygon/Token.sol\":7688:8505  function mintWithVesting_(address _to, uint256 _value, uint256 _duration, string memory _caption) internal returns (bool) {... */\n      swap5\n      swap4\n      pop\n      pop\n      pop\n      pop\n      jump\t// out\n        /* \"#utility.yul\":7:82   */\n    tag_301:\n        /* \"#utility.yul\":40:46   */\n      0x00\n        /* \"#utility.yul\":73:75   */\n      0x40\n        /* \"#utility.yul\":67:76   */\n      mload\n        /* \"#utility.yul\":57:76   */\n      swap1\n      pop\n        /* \"#utility.yul\":7:82   */\n      swap1\n      jump\t// out\n        /* \"#utility.yul\":88:205   */\n    tag_302:\n        /* \"#utility.yul\":197:198   */\n      0x00\n        /* \"#utility.yul\":194:195   */\n      dup1\n        /* \"#utility.yul\":187:199   */\n      revert\n        /* \"#utility.yul\":211:328   */\n    tag_303:\n        /* \"#utility.yul\":320:321   */\n      0x00\n        /* \"#utility.yul\":317:318   */\n      dup1\n        /* \"#utility.yul\":310:322   */\n      revert\n        /* \"#utility.yul\":334:411   */\n    tag_304:\n        /* \"#utility.yul\":371:378   */\n      0x00\n        /* \"#utility.yul\":400:405   */\n      dup2\n        /* \"#utility.yul\":389:405   */\n      swap1\n      pop\n        /* \"#utility.yul\":334:411   */\n      swap2\n      swap1\n      pop\n      jump\t// out\n        /* \"#utility.yul\":417:539   */\n    tag_305:\n        /* \"#utility.yul\":490:514   */\n      tag_358\n        /* \"#utility.yul\":508:513   */\n      dup2\n        /* \"#utility.yul\":490:514   */\n      tag_304\n      jump\t// in\n    tag_358:\n        /* \"#utility.yul\":483:488   */\n      dup2\n        /* \"#utility.yul\":480:515   */\n      eq\n        /* \"#utility.yul\":470:533   */\n      tag_359\n      jumpi\n        /* \"#utility.yul\":529:530   */\n      0x00\n        /* \"#utility.yul\":526:527   */\n      dup1\n        /* \"#utility.yul\":519:531   */\n      revert\n        /* \"#utility.yul\":470:533   */\n    tag_359:\n        /* \"#utility.yul\":417:539   */\n      pop\n      jump\t// out\n        /* \"#utility.yul\":545:684   */\n    tag_306:\n        /* \"#utility.yul\":591:596   */\n      0x00\n        /* \"#utility.yul\":629:635   */\n      dup2\n        /* \"#utility.yul\":616:636   */\n      calldataload\n        /* \"#utility.yul\":607:636   */\n      swap1\n      pop\n        /* \"#utility.yul\":645:678   */\n      tag_361\n        /* \"#utility.yul\":672:677   */\n      dup2\n        /* \"#utility.yul\":645:678   */\n      tag_305\n      jump\t// in\n    tag_361:\n        /* \"#utility.yul\":545:684   */\n      swap3\n      swap2\n      pop\n      pop\n      jump\t// out\n        /* \"#utility.yul\":690:1164   */\n    tag_36:\n        /* \"#utility.yul\":758:764   */\n      0x00\n        /* \"#utility.yul\":766:772   */\n      dup1\n        /* \"#utility.yul\":815:817   */\n      0x40\n        /* \"#utility.yul\":803:812   */\n      dup4\n        /* \"#utility.yul\":794:801   */\n      dup6\n        /* \"#utility.yul\":790:813   */\n      sub\n        /* \"#utility.yul\":786:818   */\n      slt\n        /* \"#utility.yul\":783:902   */\n      iszero\n      tag_363\n      jumpi\n        /* \"#utility.yul\":821:900   */\n      tag_364\n      tag_302\n      jump\t// in\n    tag_364:\n        /* \"#utility.yul\":783:902   */\n    tag_363:\n        /* \"#utility.yul\":941:942   */\n      0x00\n        /* \"#utility.yul\":966:1019   */\n      tag_365\n        /* \"#utility.yul\":1011:1018   */\n      dup6\n        /* \"#utility.yul\":1002:1008   */\n      dup3\n        /* \"#utility.yul\":991:1000   */\n      dup7\n        /* \"#utility.yul\":987:1009   */\n      add\n        /* \"#utility.yul\":966:1019   */\n      tag_306\n      jump\t// in\n    tag_365:\n        /* \"#utility.yul\":956:1019   */\n      swap3\n      pop\n        /* \"#utility.yul\":912:1029   */\n      pop\n        /* \"#utility.yul\":1068:1070   */\n      0x20\n        /* \"#utility.yul\":1094:1147   */\n      tag_366\n        /* \"#utility.yul\":1139:1146   */\n      dup6\n        /* \"#utility.yul\":1130:1136   */\n      dup3\n        /* \"#utility.yul\":1119:1128   */\n      dup7\n        /* \"#utility.yul\":1115:1137   */\n      add\n        /* \"#utility.yul\":1094:1147   */\n      tag_306\n      jump\t// in\n    tag_366:\n        /* \"#utility.yul\":1084:1147   */\n      swap2\n      pop\n        /* \"#utility.yul\":1039:1157   */\n      pop\n        /* \"#utility.yul\":690:1164   */\n      swap3\n      pop\n      swap3\n      swap1\n      pop\n      jump\t// out\n        /* \"#utility.yul\":1170:1260   */\n    tag_307:\n        /* \"#utility.yul\":1204:1211   */\n      0x00\n        /* \"#utility.yul\":1247:1252   */\n      dup2\n        /* \"#utility.yul\":1240:1253   */\n      iszero\n        /* \"#utility.yul\":1233:1254   */\n      iszero\n        /* \"#utility.yul\":1222:1254   */\n      swap1\n      pop\n        /* \"#utility.yul\":1170:1260   */\n      swap2\n      swap1\n      pop\n      jump\t// out\n        /* \"#utility.yul\":1266:1375   */\n    tag_308:\n        /* \"#utility.yul\":1347:1368   */\n      tag_369\n        /* \"#utility.yul\":1362:1367   */\n      dup2\n        /* \"#utility.yul\":1347:1368   */\n      tag_307\n      jump\t// in\n    tag_369:\n        /* \"#utility.yul\":1342:1345   */\n      dup3\n        /* \"#utility.yul\":1335:1369   */\n      mstore\n        /* \"#utility.yul\":1266:1375   */\n      pop\n      pop\n      jump\t// out\n        /* \"#utility.yul\":1381:1591   */\n    tag_39:\n        /* \"#utility.yul\":1468:1472   */\n      0x00\n        /* \"#utility.yul\":1506:1508   */\n      0x20\n        /* \"#utility.yul\":1495:1504   */\n      dup3\n        /* \"#utility.yul\":1491:1509   */\n      add\n        /* \"#utility.yul\":1483:1509   */\n      swap1\n      pop\n        /* \"#utility.yul\":1519:1584   */\n      tag_371\n        /* \"#utility.yul\":1581:1582   */\n      0x00\n        /* \"#utility.yul\":1570:1579   */\n      dup4\n        /* \"#utility.yul\":1566:1583   */\n      add\n        /* \"#utility.yul\":1557:1563   */\n      dup5\n        /* \"#utility.yul\":1519:1584   */\n      tag_308\n      jump\t// in\n    tag_371:\n        /* \"#utility.yul\":1381:1591   */\n      swap3\n      swap2\n      pop\n      pop\n      jump\t// out\n        /* \"#utility.yul\":1597:1696   */\n    tag_309:\n        /* \"#utility.yul\":1649:1655   */\n      0x00\n        /* \"#utility.yul\":1683:1688   */\n      dup2\n        /* \"#utility.yul\":1677:1689   */\n      mload\n        /* \"#utility.yul\":1667:1689   */\n      swap1\n      pop\n        /* \"#utility.yul\":1597:1696   */\n      swap2\n      swap1\n      pop\n      jump\t// out\n        /* \"#utility.yul\":1702:1871   */\n    tag_310:\n        /* \"#utility.yul\":1786:1797   */\n      0x00\n        /* \"#utility.yul\":1820:1826   */\n      dup3\n        /* \"#utility.yul\":1815:1818   */\n      dup3\n        /* \"#utility.yul\":1808:1827   */\n      mstore\n        /* \"#utility.yul\":1860:1864   */\n      0x20\n        /* \"#utility.yul\":1855:1858   */\n      dup3\n        /* \"#utility.yul\":1851:1865   */\n      add\n        /* \"#utility.yul\":1836:1865   */\n      swap1\n      pop\n        /* \"#utility.yul\":1702:1871   */\n      swap3\n      swap2\n      pop\n      pop\n      jump\t// out\n        /* \"#utility.yul\":1877:2123   */\n    tag_311:\n        /* \"#utility.yul\":1958:1959   */\n      0x00\n        /* \"#utility.yul\":1968:2081   */\n    tag_375:\n        /* \"#utility.yul\":1982:1988   */\n      dup4\n        /* \"#utility.yul\":1979:1980   */\n      dup2\n        /* \"#utility.yul\":1976:1989   */\n      lt\n        /* \"#utility.yul\":1968:2081   */\n      iszero\n      tag_377\n      jumpi\n        /* \"#utility.yul\":2067:2068   */\n      dup1\n        /* \"#utility.yul\":2062:2065   */\n      dup3\n        /* \"#utility.yul\":2058:2069   */\n      add\n        /* \"#utility.yul\":2052:2070   */\n      mload\n        /* \"#utility.yul\":2048:2049   */\n      dup2\n        /* \"#utility.yul\":2043:2046   */\n      dup5\n        /* \"#utility.yul\":2039:2050   */\n      add\n        /* \"#utility.yul\":2032:2071   */\n      mstore\n        /* \"#utility.yul\":2004:2006   */\n      0x20\n        /* \"#utility.yul\":2001:2002   */\n      dup2\n        /* \"#utility.yul\":1997:2007   */\n      add\n        /* \"#utility.yul\":1992:2007   */\n      swap1\n      pop\n        /* \"#utility.yul\":1968:2081   */\n      jump(tag_375)\n    tag_377:\n        /* \"#utility.yul\":2115:2116   */\n      0x00\n        /* \"#utility.yul\":2106:2112   */\n      dup5\n        /* \"#utility.yul\":2101:2104   */\n      dup5\n        /* \"#utility.yul\":2097:2113   */\n      add\n        /* \"#utility.yul\":2090:2117   */\n      mstore\n        /* \"#utility.yul\":1939:2123   */\n      pop\n        /* \"#utility.yul\":1877:2123   */\n      pop\n      pop\n      pop\n      jump\t// out\n        /* \"#utility.yul\":2129:2231   */\n    tag_312:\n        /* \"#utility.yul\":2170:2176   */\n      0x00\n        /* \"#utility.yul\":2221:2223   */\n      0x1f\n        /* \"#utility.yul\":2217:2224   */\n      not\n        /* \"#utility.yul\":2212:2214   */\n      0x1f\n        /* \"#utility.yul\":2205:2210   */\n      dup4\n        /* \"#utility.yul\":2201:2215   */\n      add\n        /* \"#utility.yul\":2197:2225   */\n      and\n        /* \"#utility.yul\":2187:2225   */\n      swap1\n      pop\n        /* \"#utility.yul\":2129:2231   */\n      swap2\n      swap1\n      pop\n      jump\t// out\n        /* \"#utility.yul\":2237:2614   */\n    tag_313:\n        /* \"#utility.yul\":2325:2328   */\n      0x00\n        /* \"#utility.yul\":2353:2392   */\n      tag_380\n        /* \"#utility.yul\":2386:2391   */\n      dup3\n        /* \"#utility.yul\":2353:2392   */\n      tag_309\n      jump\t// in\n    tag_380:\n        /* \"#utility.yul\":2408:2479   */\n      tag_381\n        /* \"#utility.yul\":2472:2478   */\n      dup2\n        /* \"#utility.yul\":2467:2470   */\n      dup6\n        /* \"#utility.yul\":2408:2479   */\n      tag_310\n      jump\t// in\n    tag_381:\n        /* \"#utility.yul\":2401:2479   */\n      swap4\n      pop\n        /* \"#utility.yul\":2488:2553   */\n      tag_382\n        /* \"#utility.yul\":2546:2552   */\n      dup2\n        /* \"#utility.yul\":2541:2544   */\n      dup6\n        /* \"#utility.yul\":2534:2538   */\n      0x20\n        /* \"#utility.yul\":2527:2532   */\n      dup7\n        /* \"#utility.yul\":2523:2539   */\n      add\n        /* \"#utility.yul\":2488:2553   */\n      tag_311\n      jump\t// in\n    tag_382:\n        /* \"#utility.yul\":2578:2607   */\n      tag_383\n        /* \"#utility.yul\":2600:2606   */\n      dup2\n        /* \"#utility.yul\":2578:2607   */\n      tag_312\n      jump\t// in\n    tag_383:\n        /* \"#utility.yul\":2573:2576   */\n      dup5\n        /* \"#utility.yul\":2569:2608   */\n      add\n        /* \"#utility.yul\":2562:2608   */\n      swap2\n      pop\n        /* \"#utility.yul\":2329:2614   */\n      pop\n        /* \"#utility.yul\":2237:2614   */\n      swap3\n      swap2\n      pop\n      pop\n      jump\t// out\n        /* \"#utility.yul\":2620:2933   */\n    tag_43:\n        /* \"#utility.yul\":2733:2737   */\n      0x00\n        /* \"#utility.yul\":2771:2773   */\n      0x20\n        /* \"#utility.yul\":2760:2769   */\n      dup3\n        /* \"#utility.yul\":2756:2774   */\n      add\n        /* \"#utility.yul\":2748:2774   */\n      swap1\n      pop\n        /* \"#utility.yul\":2820:2829   */\n      dup2\n        /* \"#utility.yul\":2814:2818   */\n      dup2\n        /* \"#utility.yul\":2810:2830   */\n      sub\n        /* \"#utility.yul\":2806:2807   */\n      0x00\n        /* \"#utility.yul\":2795:2804   */\n      dup4\n        /* \"#utility.yul\":2791:2808   */\n      add\n        /* \"#utility.yul\":2784:2831   */\n      mstore\n        /* \"#utility.yul\":2848:2926   */\n      tag_385\n        /* \"#utility.yul\":2921:2925   */\n      dup2\n        /* \"#utility.yul\":2912:2918   */\n      dup5\n        /* \"#utility.yul\":2848:2926   */\n      tag_313\n      jump\t// in\n    tag_385:\n        /* \"#utility.yul\":2840:2926   */\n      swap1\n      pop\n        /* \"#utility.yul\":2620:2933   */\n      swap3\n      swap2\n      pop\n      pop\n      jump\t// out\n        /* \"#utility.yul\":2939:3065   */\n    tag_314:\n        /* \"#utility.yul\":2976:2983   */\n      0x00\n        /* \"#utility.yul\":3016:3058   */\n      0xffffffffffffffffffffffffffffffffffffffff\n        /* \"#utility.yul\":3009:3014   */\n      dup3\n        /* \"#utility.yul\":3005:3059   */\n      and\n        /* \"#utility.yul\":2994:3059   */\n      swap1\n      pop\n        /* \"#utility.yul\":2939:3065   */\n      swap2\n      swap1\n      pop\n      jump\t// out\n        /* \"#utility.yul\":3071:3167   */\n    tag_315:\n        /* \"#utility.yul\":3108:3115   */\n      0x00\n        /* \"#utility.yul\":3137:3161   */\n      tag_388\n        /* \"#utility.yul\":3155:3160   */\n      dup3\n        /* \"#utility.yul\":3137:3161   */\n      tag_314\n      jump\t// in\n    tag_388:\n        /* \"#utility.yul\":3126:3161   */\n      swap1\n      pop\n        /* \"#utility.yul\":3071:3167   */\n      swap2\n      swap1\n      pop\n      jump\t// out\n        /* \"#utility.yul\":3173:3295   */\n    tag_316:\n        /* \"#utility.yul\":3246:3270   */\n      tag_390\n        /* \"#utility.yul\":3264:3269   */\n      dup2\n        /* \"#utility.yul\":3246:3270   */\n      tag_315\n      jump\t// in\n    tag_390:\n        /* \"#utility.yul\":3239:3244   */\n      dup2\n        /* \"#utility.yul\":3236:3271   */\n      eq\n        /* \"#utility.yul\":3226:3289   */\n      tag_391\n      jumpi\n        /* \"#utility.yul\":3285:3286   */\n      0x00\n        /* \"#utility.yul\":3282:3283   */\n      dup1\n        /* \"#utility.yul\":3275:3287   */\n      revert\n        /* \"#utility.yul\":3226:3289   */\n    tag_391:\n        /* \"#utility.yul\":3173:3295   */\n      pop\n      jump\t// out\n        /* \"#utility.yul\":3301:3440   */\n    tag_317:\n        /* \"#utility.yul\":3347:3352   */\n      0x00\n        /* \"#utility.yul\":3385:3391   */\n      dup2\n        /* \"#utility.yul\":3372:3392   */\n      calldataload\n        /* \"#utility.yul\":3363:3392   */\n      swap1\n      pop\n        /* \"#utility.yul\":3401:3434   */\n      tag_393\n        /* \"#utility.yul\":3428:3433   */\n      dup2\n        /* \"#utility.yul\":3401:3434   */\n      tag_316\n      jump\t// in\n    tag_393:\n        /* \"#utility.yul\":3301:3440   */\n      swap3\n      swap2\n      pop\n      pop\n      jump\t// out\n        /* \"#utility.yul\":3446:3920   */\n    tag_46:\n        /* \"#utility.yul\":3514:3520   */\n      0x00\n        /* \"#utility.yul\":3522:3528   */\n      dup1\n        /* \"#utility.yul\":3571:3573   */\n      0x40\n        /* \"#utility.yul\":3559:3568   */\n      dup4\n        /* \"#utility.yul\":3550:3557   */\n      dup6\n        /* \"#utility.yul\":3546:3569   */\n      sub\n        /* \"#utility.yul\":3542:3574   */\n      slt\n        /* \"#utility.yul\":3539:3658   */\n      iszero\n      tag_395\n      jumpi\n        /* \"#utility.yul\":3577:3656   */\n      tag_396\n      tag_302\n      jump\t// in\n    tag_396:\n        /* \"#utility.yul\":3539:3658   */\n    tag_395:\n        /* \"#utility.yul\":3697:3698   */\n      0x00\n        /* \"#utility.yul\":3722:3775   */\n      tag_397\n        /* \"#utility.yul\":3767:3774   */\n      dup6\n        /* \"#utility.yul\":3758:3764   */\n      dup3\n        /* \"#utility.yul\":3747:3756   */\n      dup7\n        /* \"#utility.yul\":3743:3765   */\n      add\n        /* \"#utility.yul\":3722:3775   */\n      tag_317\n      jump\t// in\n    tag_397:\n        /* \"#utility.yul\":3712:3775   */\n      swap3\n      pop\n        /* \"#utility.yul\":3668:3785   */\n      pop\n        /* \"#utility.yul\":3824:3826   */\n      0x20\n        /* \"#utility.yul\":3850:3903   */\n      tag_398\n        /* \"#utility.yul\":3895:3902   */\n      dup6\n        /* \"#utility.yul\":3886:3892   */\n      dup3\n        /* \"#utility.yul\":3875:3884   */\n      dup7\n        /* \"#utility.yul\":3871:3893   */\n      add\n        /* \"#utility.yul\":3850:3903   */\n      tag_306\n      jump\t// in\n    tag_398:\n        /* \"#utility.yul\":3840:3903   */\n      swap2\n      pop\n        /* \"#utility.yul\":3795:3913   */\n      pop\n        /* \"#utility.yul\":3446:3920   */\n      swap3\n      pop\n      swap3\n      swap1\n      pop\n      jump\t// out\n        /* \"#utility.yul\":3926:4044   */\n    tag_318:\n        /* \"#utility.yul\":4013:4037   */\n      tag_400\n        /* \"#utility.yul\":4031:4036   */\n      dup2\n        /* \"#utility.yul\":4013:4037   */\n      tag_304\n      jump\t// in\n    tag_400:\n        /* \"#utility.yul\":4008:4011   */\n      dup3\n        /* \"#utility.yul\":4001:4038   */\n      mstore\n        /* \"#utility.yul\":3926:4044   */\n      pop\n      pop\n      jump\t// out\n        /* \"#utility.yul\":4050:4272   */\n    tag_52:\n        /* \"#utility.yul\":4143:4147   */\n      0x00\n        /* \"#utility.yul\":4181:4183   */\n      0x20\n        /* \"#utility.yul\":4170:4179   */\n      dup3\n        /* \"#utility.yul\":4166:4184   */\n      add\n        /* \"#utility.yul\":4158:4184   */\n      swap1\n      pop\n        /* \"#utility.yul\":4194:4265   */\n      tag_402\n        /* \"#utility.yul\":4262:4263   */\n      0x00\n        /* \"#utility.yul\":4251:4260   */\n      dup4\n        /* \"#utility.yul\":4247:4264   */\n      add\n        /* \"#utility.yul\":4238:4244   */\n      dup5\n        /* \"#utility.yul\":4194:4265   */\n      tag_318\n      jump\t// in\n    tag_402:\n        /* \"#utility.yul\":4050:4272   */\n      swap3\n      swap2\n      pop\n      pop\n      jump\t// out\n        /* \"#utility.yul\":4278:4607   */\n    tag_58:\n        /* \"#utility.yul\":4337:4343   */\n      0x00\n        /* \"#utility.yul\":4386:4388   */\n      0x20\n        /* \"#utility.yul\":4374:4383   */\n      dup3\n        /* \"#utility.yul\":4365:4372   */\n      dup5\n        /* \"#utility.yul\":4361:4384   */\n      sub\n        /* \"#utility.yul\":4357:4389   */\n      slt\n        /* \"#utility.yul\":4354:4473   */\n      iszero\n      tag_404\n      jumpi\n        /* \"#utility.yul\":4392:4471   */\n      tag_405\n      tag_302\n      jump\t// in\n    tag_405:\n        /* \"#utility.yul\":4354:4473   */\n    tag_404:\n        /* \"#utility.yul\":4512:4513   */\n      0x00\n        /* \"#utility.yul\":4537:4590   */\n      tag_406\n        /* \"#utility.yul\":4582:4589   */\n      dup5\n        /* \"#utility.yul\":4573:4579   */\n      dup3\n        /* \"#utility.yul\":4562:4571   */\n      dup6\n        /* \"#utility.yul\":4558:4580   */\n      add\n        /* \"#utility.yul\":4537:4590   */\n      tag_317\n      jump\t// in\n    tag_406:\n        /* \"#utility.yul\":4527:4590   */\n      swap2\n      pop\n        /* \"#utility.yul\":4483:4600   */\n      pop\n        /* \"#utility.yul\":4278:4607   */\n      swap3\n      swap2\n      pop\n      pop\n      jump\t// out\n        /* \"#utility.yul\":4613:5232   */\n    tag_63:\n        /* \"#utility.yul\":4690:4696   */\n      0x00\n        /* \"#utility.yul\":4698:4704   */\n      dup1\n        /* \"#utility.yul\":4706:4712   */\n      0x00\n        /* \"#utility.yul\":4755:4757   */\n      0x60\n        /* \"#utility.yul\":4743:4752   */\n      dup5\n        /* \"#utility.yul\":4734:4741   */\n      dup7\n        /* \"#utility.yul\":4730:4753   */\n      sub\n        /* \"#utility.yul\":4726:4758   */\n      slt\n        /* \"#utility.yul\":4723:4842   */\n      iszero\n      tag_408\n      jumpi\n        /* \"#utility.yul\":4761:4840   */\n      tag_409\n      tag_302\n      jump\t// in\n    tag_409:\n        /* \"#utility.yul\":4723:4842   */\n    tag_408:\n        /* \"#utility.yul\":4881:4882   */\n      0x00\n        /* \"#utility.yul\":4906:4959   */\n      tag_410\n        /* \"#utility.yul\":4951:4958   */\n      dup7\n        /* \"#utility.yul\":4942:4948   */\n      dup3\n        /* \"#utility.yul\":4931:4940   */\n      dup8\n        /* \"#utility.yul\":4927:4949   */\n      add\n        /* \"#utility.yul\":4906:4959   */\n      tag_317\n      jump\t// in\n    tag_410:\n        /* \"#utility.yul\":4896:4959   */\n      swap4\n      pop\n        /* \"#utility.yul\":4852:4969   */\n      pop\n        /* \"#utility.yul\":5008:5010   */\n      0x20\n        /* \"#utility.yul\":5034:5087   */\n      tag_411\n        /* \"#utility.yul\":5079:5086   */\n      dup7\n        /* \"#utility.yul\":5070:5076   */\n      dup3\n        /* \"#utility.yul\":5059:5068   */\n      dup8\n        /* \"#utility.yul\":5055:5077   */\n      add\n        /* \"#utility.yul\":5034:5087   */\n      tag_317\n      jump\t// in\n    tag_411:\n        /* \"#utility.yul\":5024:5087   */\n      swap3\n      pop\n        /* \"#utility.yul\":4979:5097   */\n      pop\n        /* \"#utility.yul\":5136:5138   */\n      0x40\n        /* \"#utility.yul\":5162:5215   */\n      tag_412\n        /* \"#utility.yul\":5207:5214   */\n      dup7\n        /* \"#utility.yul\":5198:5204   */\n      dup3\n        /* \"#utility.yul\":5187:5196   */\n      dup8\n        /* \"#utility.yul\":5183:5205   */\n      add\n        /* \"#utility.yul\":5162:5215   */\n      tag_306\n      jump\t// in\n    tag_412:\n        /* \"#utility.yul\":5152:5215   */\n      swap2\n      pop\n        /* \"#utility.yul\":5107:5225   */\n      pop\n        /* \"#utility.yul\":4613:5232   */\n      swap3\n      pop\n      swap3\n      pop\n      swap3\n      jump\t// out\n        /* \"#utility.yul\":5238:5567   */\n    tag_68:\n        /* \"#utility.yul\":5297:5303   */\n      0x00\n        /* \"#utility.yul\":5346:5348   */\n      0x20\n        /* \"#utility.yul\":5334:5343   */\n      dup3\n        /* \"#utility.yul\":5325:5332   */\n      dup5\n        /* \"#utility.yul\":5321:5344   */\n      sub\n        /* \"#utility.yul\":5317:5349   */\n      slt\n        /* \"#utility.yul\":5314:5433   */\n      iszero\n      tag_414\n      jumpi\n        /* \"#utility.yul\":5352:5431   */\n      tag_415\n      tag_302\n      jump\t// in\n    tag_415:\n        /* \"#utility.yul\":5314:5433   */\n    tag_414:\n        /* \"#utility.yul\":5472:5473   */\n      0x00\n        /* \"#utility.yul\":5497:5550   */\n      tag_416\n        /* \"#utility.yul\":5542:5549   */\n      dup5\n        /* \"#utility.yul\":5533:5539   */\n      dup3\n        /* \"#utility.yul\":5522:5531   */\n      dup6\n        /* \"#utility.yul\":5518:5540   */\n      add\n        /* \"#utility.yul\":5497:5550   */\n      tag_306\n      jump\t// in\n    tag_416:\n        /* \"#utility.yul\":5487:5550   */\n      swap2\n      pop\n        /* \"#utility.yul\":5443:5560   */\n      pop\n        /* \"#utility.yul\":5238:5567   */\n      swap3\n      swap2\n      pop\n      pop\n      jump\t// out\n        /* \"#utility.yul\":5573:5659   */\n    tag_319:\n        /* \"#utility.yul\":5608:5615   */\n      0x00\n        /* \"#utility.yul\":5648:5652   */\n      0xff\n        /* \"#utility.yul\":5641:5646   */\n      dup3\n        /* \"#utility.yul\":5637:5653   */\n      and\n        /* \"#utility.yul\":5626:5653   */\n      swap1\n      pop\n        /* \"#utility.yul\":5573:5659   */\n      swap2\n      swap1\n      pop\n      jump\t// out\n        /* \"#utility.yul\":5665:5777   */\n    tag_320:\n        /* \"#utility.yul\":5748:5770   */\n      tag_419\n        /* \"#utility.yul\":5764:5769   */\n      dup2\n        /* \"#utility.yul\":5748:5770   */\n      tag_319\n      jump\t// in\n    tag_419:\n        /* \"#utility.yul\":5743:5746   */\n      dup3\n        /* \"#utility.yul\":5736:5771   */\n      mstore\n        /* \"#utility.yul\":5665:5777   */\n      pop\n      pop\n      jump\t// out\n        /* \"#utility.yul\":5783:5997   */\n    tag_74:\n        /* \"#utility.yul\":5872:5876   */\n      0x00\n        /* \"#utility.yul\":5910:5912   */\n      0x20\n        /* \"#utility.yul\":5899:5908   */\n      dup3\n        /* \"#utility.yul\":5895:5913   */\n      add\n        /* \"#utility.yul\":5887:5913   */\n      swap1\n      pop\n        /* \"#utility.yul\":5923:5990   */\n      tag_421\n        /* \"#utility.yul\":5987:5988   */\n      0x00\n        /* \"#utility.yul\":5976:5985   */\n      dup4\n        /* \"#utility.yul\":5972:5989   */\n      add\n        /* \"#utility.yul\":5963:5969   */\n      dup5\n        /* \"#utility.yul\":5923:5990   */\n      tag_320\n      jump\t// in\n    tag_421:\n        /* \"#utility.yul\":5783:5997   */\n      swap3\n      swap2\n      pop\n      pop\n      jump\t// out\n        /* \"#utility.yul\":6003:6778   */\n    tag_93:\n        /* \"#utility.yul\":6236:6240   */\n      0x00\n        /* \"#utility.yul\":6274:6277   */\n      0xc0\n        /* \"#utility.yul\":6263:6272   */\n      dup3\n        /* \"#utility.yul\":6259:6278   */\n      add\n        /* \"#utility.yul\":6251:6278   */\n      swap1\n      pop\n        /* \"#utility.yul\":6288:6359   */\n      tag_423\n        /* \"#utility.yul\":6356:6357   */\n      0x00\n        /* \"#utility.yul\":6345:6354   */\n      dup4\n        /* \"#utility.yul\":6341:6358   */\n      add\n        /* \"#utility.yul\":6332:6338   */\n      dup10\n        /* \"#utility.yul\":6288:6359   */\n      tag_318\n      jump\t// in\n    tag_423:\n        /* \"#utility.yul\":6369:6441   */\n      tag_424\n        /* \"#utility.yul\":6437:6439   */\n      0x20\n        /* \"#utility.yul\":6426:6435   */\n      dup4\n        /* \"#utility.yul\":6422:6440   */\n      add\n        /* \"#utility.yul\":6413:6419   */\n      dup9\n        /* \"#utility.yul\":6369:6441   */\n      tag_318\n      jump\t// in\n    tag_424:\n        /* \"#utility.yul\":6451:6523   */\n      tag_425\n        /* \"#utility.yul\":6519:6521   */\n      0x40\n        /* \"#utility.yul\":6508:6517   */\n      dup4\n        /* \"#utility.yul\":6504:6522   */\n      add\n        /* \"#utility.yul\":6495:6501   */\n      dup8\n        /* \"#utility.yul\":6451:6523   */\n      tag_318\n      jump\t// in\n    tag_425:\n        /* \"#utility.yul\":6533:6605   */\n      tag_426\n        /* \"#utility.yul\":6601:6603   */\n      0x60\n        /* \"#utility.yul\":6590:6599   */\n      dup4\n        /* \"#utility.yul\":6586:6604   */\n      add\n        /* \"#utility.yul\":6577:6583   */\n      dup7\n        /* \"#utility.yul\":6533:6605   */\n      tag_318\n      jump\t// in\n    tag_426:\n        /* \"#utility.yul\":6615:6688   */\n      tag_427\n        /* \"#utility.yul\":6683:6686   */\n      0x80\n        /* \"#utility.yul\":6672:6681   */\n      dup4\n        /* \"#utility.yul\":6668:6687   */\n      add\n        /* \"#utility.yul\":6659:6665   */\n      dup6\n        /* \"#utility.yul\":6615:6688   */\n      tag_318\n      jump\t// in\n    tag_427:\n        /* \"#utility.yul\":6698:6771   */\n      tag_428\n        /* \"#utility.yul\":6766:6769   */\n      0xa0\n        /* \"#utility.yul\":6755:6764   */\n      dup4\n        /* \"#utility.yul\":6751:6770   */\n      add\n        /* \"#utility.yul\":6742:6748   */\n      dup5\n        /* \"#utility.yul\":6698:6771   */\n      tag_318\n      jump\t// in\n    tag_428:\n        /* \"#utility.yul\":6003:6778   */\n      swap8\n      swap7\n      pop\n      pop\n      pop\n      pop\n      pop\n      pop\n      pop\n      jump\t// out\n        /* \"#utility.yul\":6784:7258   */\n    tag_129:\n        /* \"#utility.yul\":6852:6858   */\n      0x00\n        /* \"#utility.yul\":6860:6866   */\n      dup1\n        /* \"#utility.yul\":6909:6911   */\n      0x40\n        /* \"#utility.yul\":6897:6906   */\n      dup4\n        /* \"#utility.yul\":6888:6895   */\n      dup6\n        /* \"#utility.yul\":6884:6907   */\n      sub\n        /* \"#utility.yul\":6880:6912   */\n      slt\n        /* \"#utility.yul\":6877:6996   */\n      iszero\n      tag_430\n      jumpi\n        /* \"#utility.yul\":6915:6994   */\n      tag_431\n      tag_302\n      jump\t// in\n    tag_431:\n        /* \"#utility.yul\":6877:6996   */\n    tag_430:\n        /* \"#utility.yul\":7035:7036   */\n      0x00\n        /* \"#utility.yul\":7060:7113   */\n      tag_432\n        /* \"#utility.yul\":7105:7112   */\n      dup6\n        /* \"#utility.yul\":7096:7102   */\n      dup3\n        /* \"#utility.yul\":7085:7094   */\n      dup7\n        /* \"#utility.yul\":7081:7103   */\n      add\n        /* \"#utility.yul\":7060:7113   */\n      tag_317\n      jump\t// in\n    tag_432:\n        /* \"#utility.yul\":7050:7113   */\n      swap3\n      pop\n        /* \"#utility.yul\":7006:7123   */\n      pop\n        /* \"#utility.yul\":7162:7164   */\n      0x20\n        /* \"#utility.yul\":7188:7241   */\n      tag_433\n        /* \"#utility.yul\":7233:7240   */\n      dup6\n        /* \"#utility.yul\":7224:7230   */\n      dup3\n        /* \"#utility.yul\":7213:7222   */\n      dup7\n        /* \"#utility.yul\":7209:7231   */\n      add\n        /* \"#utility.yul\":7188:7241   */\n      tag_317\n      jump\t// in\n    tag_433:\n        /* \"#utility.yul\":7178:7241   */\n      swap2\n      pop\n        /* \"#utility.yul\":7133:7251   */\n      pop\n        /* \"#utility.yul\":6784:7258   */\n      swap3\n      pop\n      swap3\n      swap1\n      pop\n      jump\t// out\n        /* \"#utility.yul\":7264:7381   */\n    tag_321:\n        /* \"#utility.yul\":7373:7374   */\n      0x00\n        /* \"#utility.yul\":7370:7371   */\n      dup1\n        /* \"#utility.yul\":7363:7375   */\n      revert\n        /* \"#utility.yul\":7387:7504   */\n    tag_322:\n        /* \"#utility.yul\":7496:7497   */\n      0x00\n        /* \"#utility.yul\":7493:7494   */\n      dup1\n        /* \"#utility.yul\":7486:7498   */\n      revert\n        /* \"#utility.yul\":7510:7690   */\n    tag_323:\n        /* \"#utility.yul\":7558:7635   */\n      0x4e487b7100000000000000000000000000000000000000000000000000000000\n        /* \"#utility.yul\":7555:7556   */\n      0x00\n        /* \"#utility.yul\":7548:7636   */\n      mstore\n        /* \"#utility.yul\":7655:7659   */\n      0x41\n        /* \"#utility.yul\":7652:7653   */\n      0x04\n        /* \"#utility.yul\":7645:7660   */\n      mstore\n        /* \"#utility.yul\":7679:7683   */\n      0x24\n        /* \"#utility.yul\":7676:7677   */\n      0x00\n        /* \"#utility.yul\":7669:7684   */\n      revert\n        /* \"#utility.yul\":7696:7977   */\n    tag_324:\n        /* \"#utility.yul\":7779:7806   */\n      tag_438\n        /* \"#utility.yul\":7801:7805   */\n      dup3\n        /* \"#utility.yul\":7779:7806   */\n      tag_312\n      jump\t// in\n    tag_438:\n        /* \"#utility.yul\":7771:7777   */\n      dup2\n        /* \"#utility.yul\":7767:7807   */\n      add\n        /* \"#utility.yul\":7909:7915   */\n      dup2\n        /* \"#utility.yul\":7897:7907   */\n      dup2\n        /* \"#utility.yul\":7894:7916   */\n      lt\n        /* \"#utility.yul\":7873:7891   */\n      0xffffffffffffffff\n        /* \"#utility.yul\":7861:7871   */\n      dup3\n        /* \"#utility.yul\":7858:7892   */\n      gt\n        /* \"#utility.yul\":7855:7917   */\n      or\n        /* \"#utility.yul\":7852:7940   */\n      iszero\n      tag_439\n      jumpi\n        /* \"#utility.yul\":7920:7938   */\n      tag_440\n      tag_323\n      jump\t// in\n    tag_440:\n        /* \"#utility.yul\":7852:7940   */\n    tag_439:\n        /* \"#utility.yul\":7960:7970   */\n      dup1\n        /* \"#utility.yul\":7956:7958   */\n      0x40\n        /* \"#utility.yul\":7949:7971   */\n      mstore\n        /* \"#utility.yul\":7739:7977   */\n      pop\n        /* \"#utility.yul\":7696:7977   */\n      pop\n      pop\n      jump\t// out\n        /* \"#utility.yul\":7983:8112   */\n    tag_325:\n        /* \"#utility.yul\":8017:8023   */\n      0x00\n        /* \"#utility.yul\":8044:8064   */\n      tag_442\n      tag_301\n      jump\t// in\n    tag_442:\n        /* \"#utility.yul\":8034:8064   */\n      swap1\n      pop\n        /* \"#utility.yul\":8073:8106   */\n      tag_443\n        /* \"#utility.yul\":8101:8105   */\n      dup3\n        /* \"#utility.yul\":8093:8099   */\n      dup3\n        /* \"#utility.yul\":8073:8106   */\n      tag_324\n      jump\t// in\n    tag_443:\n        /* \"#utility.yul\":7983:8112   */\n      swap2\n      swap1\n      pop\n      jump\t// out\n        /* \"#utility.yul\":8118:8426   */\n    tag_326:\n        /* \"#utility.yul\":8180:8184   */\n      0x00\n        /* \"#utility.yul\":8270:8288   */\n      0xffffffffffffffff\n        /* \"#utility.yul\":8262:8268   */\n      dup3\n        /* \"#utility.yul\":8259:8289   */\n      gt\n        /* \"#utility.yul\":8256:8312   */\n      iszero\n      tag_445\n      jumpi\n        /* \"#utility.yul\":8292:8310   */\n      tag_446\n      tag_323\n      jump\t// in\n    tag_446:\n        /* \"#utility.yul\":8256:8312   */\n    tag_445:\n        /* \"#utility.yul\":8330:8359   */\n      tag_447\n        /* \"#utility.yul\":8352:8358   */\n      dup3\n        /* \"#utility.yul\":8330:8359   */\n      tag_312\n      jump\t// in\n    tag_447:\n        /* \"#utility.yul\":8322:8359   */\n      swap1\n      pop\n        /* \"#utility.yul\":8414:8418   */\n      0x20\n        /* \"#utility.yul\":8408:8412   */\n      dup2\n        /* \"#utility.yul\":8404:8419   */\n      add\n        /* \"#utility.yul\":8396:8419   */\n      swap1\n      pop\n        /* \"#utility.yul\":8118:8426   */\n      swap2\n      swap1\n      pop\n      jump\t// out\n        /* \"#utility.yul\":8432:8578   */\n    tag_327:\n        /* \"#utility.yul\":8529:8535   */\n      dup3\n        /* \"#utility.yul\":8524:8527   */\n      dup2\n        /* \"#utility.yul\":8519:8522   */\n      dup4\n        /* \"#utility.yul\":8506:8536   */\n      calldatacopy\n        /* \"#utility.yul\":8570:8571   */\n      0x00\n        /* \"#utility.yul\":8561:8567   */\n      dup4\n        /* \"#utility.yul\":8556:8559   */\n      dup4\n        /* \"#utility.yul\":8552:8568   */\n      add\n        /* \"#utility.yul\":8545:8572   */\n      mstore\n        /* \"#utility.yul\":8432:8578   */\n      pop\n      pop\n      pop\n      jump\t// out\n        /* \"#utility.yul\":8584:9009   */\n    tag_328:\n        /* \"#utility.yul\":8662:8667   */\n      0x00\n        /* \"#utility.yul\":8687:8753   */\n      tag_450\n        /* \"#utility.yul\":8703:8752   */\n      tag_451\n        /* \"#utility.yul\":8745:8751   */\n      dup5\n        /* \"#utility.yul\":8703:8752   */\n      tag_326\n      jump\t// in\n    tag_451:\n        /* \"#utility.yul\":8687:8753   */\n      tag_325\n      jump\t// in\n    tag_450:\n        /* \"#utility.yul\":8678:8753   */\n      swap1\n      pop\n        /* \"#utility.yul\":8776:8782   */\n      dup3\n        /* \"#utility.yul\":8769:8774   */\n      dup2\n        /* \"#utility.yul\":8762:8783   */\n      mstore\n        /* \"#utility.yul\":8814:8818   */\n      0x20\n        /* \"#utility.yul\":8807:8812   */\n      dup2\n        /* \"#utility.yul\":8803:8819   */\n      add\n        /* \"#utility.yul\":8852:8855   */\n      dup5\n        /* \"#utility.yul\":8843:8849   */\n      dup5\n        /* \"#utility.yul\":8838:8841   */\n      dup5\n        /* \"#utility.yul\":8834:8850   */\n      add\n        /* \"#utility.yul\":8831:8856   */\n      gt\n        /* \"#utility.yul\":8828:8940   */\n      iszero\n      tag_452\n      jumpi\n        /* \"#utility.yul\":8859:8938   */\n      tag_453\n      tag_322\n      jump\t// in\n    tag_453:\n        /* \"#utility.yul\":8828:8940   */\n    tag_452:\n        /* \"#utility.yul\":8949:9003   */\n      tag_454\n        /* \"#utility.yul\":8996:9002   */\n      dup5\n        /* \"#utility.yul\":8991:8994   */\n      dup3\n        /* \"#utility.yul\":8986:8989   */\n      dup6\n        /* \"#utility.yul\":8949:9003   */\n      tag_327\n      jump\t// in\n    tag_454:\n        /* \"#utility.yul\":8668:9009   */\n      pop\n        /* \"#utility.yul\":8584:9009   */\n      swap4\n      swap3\n      pop\n      pop\n      pop\n      jump\t// out\n        /* \"#utility.yul\":9029:9369   */\n    tag_329:\n        /* \"#utility.yul\":9085:9090   */\n      0x00\n        /* \"#utility.yul\":9134:9137   */\n      dup3\n        /* \"#utility.yul\":9127:9131   */\n      0x1f\n        /* \"#utility.yul\":9119:9125   */\n      dup4\n        /* \"#utility.yul\":9115:9132   */\n      add\n        /* \"#utility.yul\":9111:9138   */\n      slt\n        /* \"#utility.yul\":9101:9223   */\n      tag_456\n      jumpi\n        /* \"#utility.yul\":9142:9221   */\n      tag_457\n      tag_321\n      jump\t// in\n    tag_457:\n        /* \"#utility.yul\":9101:9223   */\n    tag_456:\n        /* \"#utility.yul\":9259:9265   */\n      dup2\n        /* \"#utility.yul\":9246:9266   */\n      calldataload\n        /* \"#utility.yul\":9284:9363   */\n      tag_458\n        /* \"#utility.yul\":9359:9362   */\n      dup5\n        /* \"#utility.yul\":9351:9357   */\n      dup3\n        /* \"#utility.yul\":9344:9348   */\n      0x20\n        /* \"#utility.yul\":9336:9342   */\n      dup7\n        /* \"#utility.yul\":9332:9349   */\n      add\n        /* \"#utility.yul\":9284:9363   */\n      tag_328\n      jump\t// in\n    tag_458:\n        /* \"#utility.yul\":9275:9363   */\n      swap2\n      pop\n        /* \"#utility.yul\":9091:9369   */\n      pop\n        /* \"#utility.yul\":9029:9369   */\n      swap3\n      swap2\n      pop\n      pop\n      jump\t// out\n        /* \"#utility.yul\":9375:10320   */\n    tag_134:\n        /* \"#utility.yul\":9471:9477   */\n      0x00\n        /* \"#utility.yul\":9479:9485   */\n      dup1\n        /* \"#utility.yul\":9487:9493   */\n      0x00\n        /* \"#utility.yul\":9495:9501   */\n      dup1\n        /* \"#utility.yul\":9544:9547   */\n      0x80\n        /* \"#utility.yul\":9532:9541   */\n      dup6\n        /* \"#utility.yul\":9523:9530   */\n      dup8\n        /* \"#utility.yul\":9519:9542   */\n      sub\n        /* \"#utility.yul\":9515:9548   */\n      slt\n        /* \"#utility.yul\":9512:9632   */\n      iszero\n      tag_460\n      jumpi\n        /* \"#utility.yul\":9551:9630   */\n      tag_461\n      tag_302\n      jump\t// in\n    tag_461:\n        /* \"#utility.yul\":9512:9632   */\n    tag_460:\n        /* \"#utility.yul\":9671:9672   */\n      0x00\n        /* \"#utility.yul\":9696:9749   */\n      tag_462\n        /* \"#utility.yul\":9741:9748   */\n      dup8\n        /* \"#utility.yul\":9732:9738   */\n      dup3\n        /* \"#utility.yul\":9721:9730   */\n      dup9\n        /* \"#utility.yul\":9717:9739   */\n      add\n        /* \"#utility.yul\":9696:9749   */\n      tag_317\n      jump\t// in\n    tag_462:\n        /* \"#utility.yul\":9686:9749   */\n      swap5\n      pop\n        /* \"#utility.yul\":9642:9759   */\n      pop\n        /* \"#utility.yul\":9798:9800   */\n      0x20\n        /* \"#utility.yul\":9824:9877   */\n      tag_463\n        /* \"#utility.yul\":9869:9876   */\n      dup8\n        /* \"#utility.yul\":9860:9866   */\n      dup3\n        /* \"#utility.yul\":9849:9858   */\n      dup9\n        /* \"#utility.yul\":9845:9867   */\n      add\n        /* \"#utility.yul\":9824:9877   */\n      tag_306\n      jump\t// in\n    tag_463:\n        /* \"#utility.yul\":9814:9877   */\n      swap4\n      pop\n        /* \"#utility.yul\":9769:9887   */\n      pop\n        /* \"#utility.yul\":9926:9928   */\n      0x40\n        /* \"#utility.yul\":9952:10005   */\n      tag_464\n        /* \"#utility.yul\":9997:10004   */\n      dup8\n        /* \"#utility.yul\":9988:9994   */\n      dup3\n        /* \"#utility.yul\":9977:9986   */\n      dup9\n        /* \"#utility.yul\":9973:9995   */\n      add\n        /* \"#utility.yul\":9952:10005   */\n      tag_306\n      jump\t// in\n    tag_464:\n        /* \"#utility.yul\":9942:10005   */\n      swap3\n      pop\n        /* \"#utility.yul\":9897:10015   */\n      pop\n        /* \"#utility.yul\":10082:10084   */\n      0x60\n        /* \"#utility.yul\":10071:10080   */\n      dup6\n        /* \"#utility.yul\":10067:10085   */\n      add\n        /* \"#utility.yul\":10054:10086   */\n      calldataload\n        /* \"#utility.yul\":10113:10131   */\n      0xffffffffffffffff\n        /* \"#utility.yul\":10105:10111   */\n      dup2\n        /* \"#utility.yul\":10102:10132   */\n      gt\n        /* \"#utility.yul\":10099:10216   */\n      iszero\n      tag_465\n      jumpi\n        /* \"#utility.yul\":10135:10214   */\n      tag_466\n      tag_303\n      jump\t// in\n    tag_466:\n        /* \"#utility.yul\":10099:10216   */\n    tag_465:\n        /* \"#utility.yul\":10240:10303   */\n      tag_467\n        /* \"#utility.yul\":10295:10302   */\n      dup8\n        /* \"#utility.yul\":10286:10292   */\n      dup3\n        /* \"#utility.yul\":10275:10284   */\n      dup9\n        /* \"#utility.yul\":10271:10293   */\n      add\n        /* \"#utility.yul\":10240:10303   */\n      tag_329\n      jump\t// in\n    tag_467:\n        /* \"#utility.yul\":10230:10303   */\n      swap2\n      pop\n        /* \"#utility.yul\":10025:10313   */\n      pop\n        /* \"#utility.yul\":9375:10320   */\n      swap3\n      swap6\n      swap2\n      swap5\n      pop\n      swap3\n      pop\n      jump\t// out\n        /* \"#utility.yul\":10326:10835   */\n    tag_139:\n        /* \"#utility.yul\":10395:10401   */\n      0x00\n        /* \"#utility.yul\":10444:10446   */\n      0x20\n        /* \"#utility.yul\":10432:10441   */\n      dup3\n        /* \"#utility.yul\":10423:10430   */\n      dup5\n        /* \"#utility.yul\":10419:10442   */\n      sub\n        /* \"#utility.yul\":10415:10447   */\n      slt\n        /* \"#utility.yul\":10412:10531   */\n      iszero\n      tag_469\n      jumpi\n        /* \"#utility.yul\":10450:10529   */\n      tag_470\n      tag_302\n      jump\t// in\n    tag_470:\n        /* \"#utility.yul\":10412:10531   */\n    tag_469:\n        /* \"#utility.yul\":10598:10599   */\n      0x00\n        /* \"#utility.yul\":10587:10596   */\n      dup3\n        /* \"#utility.yul\":10583:10600   */\n      add\n        /* \"#utility.yul\":10570:10601   */\n      calldataload\n        /* \"#utility.yul\":10628:10646   */\n      0xffffffffffffffff\n        /* \"#utility.yul\":10620:10626   */\n      dup2\n        /* \"#utility.yul\":10617:10647   */\n      gt\n        /* \"#utility.yul\":10614:10731   */\n      iszero\n      tag_471\n      jumpi\n        /* \"#utility.yul\":10650:10729   */\n      tag_472\n      tag_303\n      jump\t// in\n    tag_472:\n        /* \"#utility.yul\":10614:10731   */\n    tag_471:\n        /* \"#utility.yul\":10755:10818   */\n      tag_473\n        /* \"#utility.yul\":10810:10817   */\n      dup5\n        /* \"#utility.yul\":10801:10807   */\n      dup3\n        /* \"#utility.yul\":10790:10799   */\n      dup6\n        /* \"#utility.yul\":10786:10808   */\n      add\n        /* \"#utility.yul\":10755:10818   */\n      tag_329\n      jump\t// in\n    tag_473:\n        /* \"#utility.yul\":10745:10818   */\n      swap2\n      pop\n        /* \"#utility.yul\":10541:10828   */\n      pop\n        /* \"#utility.yul\":10326:10835   */\n      swap3\n      swap2\n      pop\n      pop\n      jump\t// out\n        /* \"#utility.yul\":10841:11000   */\n    tag_330:\n        /* \"#utility.yul\":10981:10992   */\n      0x6f6e6c7941646d696e0000000000000000000000000000000000000000000000\n        /* \"#utility.yul\":10977:10978   */\n      0x00\n        /* \"#utility.yul\":10969:10975   */\n      dup3\n        /* \"#utility.yul\":10965:10979   */\n      add\n        /* \"#utility.yul\":10958:10993   */\n      mstore\n        /* \"#utility.yul\":10841:11000   */\n      pop\n      jump\t// out\n        /* \"#utility.yul\":11006:11371   */\n    tag_331:\n        /* \"#utility.yul\":11148:11151   */\n      0x00\n        /* \"#utility.yul\":11169:11235   */\n      tag_476\n        /* \"#utility.yul\":11233:11234   */\n      0x09\n        /* \"#utility.yul\":11228:11231   */\n      dup4\n        /* \"#utility.yul\":11169:11235   */\n      tag_310\n      jump\t// in\n    tag_476:\n        /* \"#utility.yul\":11162:11235   */\n      swap2\n      pop\n        /* \"#utility.yul\":11244:11337   */\n      tag_477\n        /* \"#utility.yul\":11333:11336   */\n      dup3\n        /* \"#utility.yul\":11244:11337   */\n      tag_330\n      jump\t// in\n    tag_477:\n        /* \"#utility.yul\":11362:11364   */\n      0x20\n        /* \"#utility.yul\":11357:11360   */\n      dup3\n        /* \"#utility.yul\":11353:11365   */\n      add\n        /* \"#utility.yul\":11346:11365   */\n      swap1\n      pop\n        /* \"#utility.yul\":11006:11371   */\n      swap2\n      swap1\n      pop\n      jump\t// out\n        /* \"#utility.yul\":11377:11796   */\n    tag_145:\n        /* \"#utility.yul\":11543:11547   */\n      0x00\n        /* \"#utility.yul\":11581:11583   */\n      0x20\n        /* \"#utility.yul\":11570:11579   */\n      dup3\n        /* \"#utility.yul\":11566:11584   */\n      add\n        /* \"#utility.yul\":11558:11584   */\n      swap1\n      pop\n        /* \"#utility.yul\":11630:11639   */\n      dup2\n        /* \"#utility.yul\":11624:11628   */\n      dup2\n        /* \"#utility.yul\":11620:11640   */\n      sub\n        /* \"#utility.yul\":11616:11617   */\n      0x00\n        /* \"#utility.yul\":11605:11614   */\n      dup4\n        /* \"#utility.yul\":11601:11618   */\n      add\n        /* \"#utility.yul\":11594:11641   */\n      mstore\n        /* \"#utility.yul\":11658:11789   */\n      tag_479\n        /* \"#utility.yul\":11784:11788   */\n      dup2\n        /* \"#utility.yul\":11658:11789   */\n      tag_331\n      jump\t// in\n    tag_479:\n        /* \"#utility.yul\":11650:11789   */\n      swap1\n      pop\n        /* \"#utility.yul\":11377:11796   */\n      swap2\n      swap1\n      pop\n      jump\t// out\n        /* \"#utility.yul\":11802:12134   */\n    tag_152:\n        /* \"#utility.yul\":11923:11927   */\n      0x00\n        /* \"#utility.yul\":11961:11963   */\n      0x40\n        /* \"#utility.yul\":11950:11959   */\n      dup3\n        /* \"#utility.yul\":11946:11964   */\n      add\n        /* \"#utility.yul\":11938:11964   */\n      swap1\n      pop\n        /* \"#utility.yul\":11974:12045   */\n      tag_481\n        /* \"#utility.yul\":12042:12043   */\n      0x00\n        /* \"#utility.yul\":12031:12040   */\n      dup4\n        /* \"#utility.yul\":12027:12044   */\n      add\n        /* \"#utility.yul\":12018:12024   */\n      dup6\n        /* \"#utility.yul\":11974:12045   */\n      tag_318\n      jump\t// in\n    tag_481:\n        /* \"#utility.yul\":12055:12127   */\n      tag_482\n        /* \"#utility.yul\":12123:12125   */\n      0x20\n        /* \"#utility.yul\":12112:12121   */\n      dup4\n        /* \"#utility.yul\":12108:12126   */\n      add\n        /* \"#utility.yul\":12099:12105   */\n      dup5\n        /* \"#utility.yul\":12055:12127   */\n      tag_318\n      jump\t// in\n    tag_482:\n        /* \"#utility.yul\":11802:12134   */\n      swap4\n      swap3\n      pop\n      pop\n      pop\n      jump\t// out\n        /* \"#utility.yul\":12140:12320   */\n    tag_332:\n        /* \"#utility.yul\":12188:12265   */\n      0x4e487b7100000000000000000000000000000000000000000000000000000000\n        /* \"#utility.yul\":12185:12186   */\n      0x00\n        /* \"#utility.yul\":12178:12266   */\n      mstore\n        /* \"#utility.yul\":12285:12289   */\n      0x22\n        /* \"#utility.yul\":12282:12283   */\n      0x04\n        /* \"#utility.yul\":12275:12290   */\n      mstore\n        /* \"#utility.yul\":12309:12313   */\n      0x24\n        /* \"#utility.yul\":12306:12307   */\n      0x00\n        /* \"#utility.yul\":12299:12314   */\n      revert\n        /* \"#utility.yul\":12326:12646   */\n    tag_155:\n        /* \"#utility.yul\":12370:12376   */\n      0x00\n        /* \"#utility.yul\":12407:12408   */\n      0x02\n        /* \"#utility.yul\":12401:12405   */\n      dup3\n        /* \"#utility.yul\":12397:12409   */\n      div\n        /* \"#utility.yul\":12387:12409   */\n      swap1\n      pop\n        /* \"#utility.yul\":12454:12455   */\n      0x01\n        /* \"#utility.yul\":12448:12452   */\n      dup3\n        /* \"#utility.yul\":12444:12456   */\n      and\n        /* \"#utility.yul\":12475:12493   */\n      dup1\n        /* \"#utility.yul\":12465:12546   */\n      tag_485\n      jumpi\n        /* \"#utility.yul\":12531:12535   */\n      0x7f\n        /* \"#utility.yul\":12523:12529   */\n      dup3\n        /* \"#utility.yul\":12519:12536   */\n      and\n        /* \"#utility.yul\":12509:12536   */\n      swap2\n      pop\n        /* \"#utility.yul\":12465:12546   */\n    tag_485:\n        /* \"#utility.yul\":12593:12595   */\n      0x20\n        /* \"#utility.yul\":12585:12591   */\n      dup3\n        /* \"#utility.yul\":12582:12596   */\n      lt\n        /* \"#utility.yul\":12562:12580   */\n      dup2\n        /* \"#utility.yul\":12559:12597   */\n      sub\n        /* \"#utility.yul\":12556:12640   */\n      tag_486\n      jumpi\n        /* \"#utility.yul\":12612:12630   */\n      tag_487\n      tag_332\n      jump\t// in\n    tag_487:\n        /* \"#utility.yul\":12556:12640   */\n    tag_486:\n        /* \"#utility.yul\":12377:12646   */\n      pop\n        /* \"#utility.yul\":12326:12646   */\n      swap2\n      swap1\n      pop\n      jump\t// out\n        /* \"#utility.yul\":12652:12832   */\n    tag_333:\n        /* \"#utility.yul\":12700:12777   */\n      0x4e487b7100000000000000000000000000000000000000000000000000000000\n        /* \"#utility.yul\":12697:12698   */\n      0x00\n        /* \"#utility.yul\":12690:12778   */\n      mstore\n        /* \"#utility.yul\":12797:12801   */\n      0x11\n        /* \"#utility.yul\":12794:12795   */\n      0x04\n        /* \"#utility.yul\":12787:12802   */\n      mstore\n        /* \"#utility.yul\":12821:12825   */\n      0x24\n        /* \"#utility.yul\":12818:12819   */\n      0x00\n        /* \"#utility.yul\":12811:12826   */\n      revert\n        /* \"#utility.yul\":12838:13032   */\n    tag_175:\n        /* \"#utility.yul\":12878:12882   */\n      0x00\n        /* \"#utility.yul\":12898:12918   */\n      tag_490\n        /* \"#utility.yul\":12916:12917   */\n      dup3\n        /* \"#utility.yul\":12898:12918   */\n      tag_304\n      jump\t// in\n    tag_490:\n        /* \"#utility.yul\":12893:12918   */\n      swap2\n      pop\n        /* \"#utility.yul\":12932:12952   */\n      tag_491\n        /* \"#utility.yul\":12950:12951   */\n      dup4\n        /* \"#utility.yul\":12932:12952   */\n      tag_304\n      jump\t// in\n    tag_491:\n        /* \"#utility.yul\":12927:12952   */\n      swap3\n      pop\n        /* \"#utility.yul\":12976:12977   */\n      dup3\n        /* \"#utility.yul\":12973:12974   */\n      dup3\n        /* \"#utility.yul\":12969:12978   */\n      sub\n        /* \"#utility.yul\":12961:12978   */\n      swap1\n      pop\n        /* \"#utility.yul\":13000:13001   */\n      dup2\n        /* \"#utility.yul\":12994:12998   */\n      dup2\n        /* \"#utility.yul\":12991:13002   */\n      gt\n        /* \"#utility.yul\":12988:13025   */\n      iszero\n      tag_492\n      jumpi\n        /* \"#utility.yul\":13005:13023   */\n      tag_493\n      tag_333\n      jump\t// in\n    tag_493:\n        /* \"#utility.yul\":12988:13025   */\n    tag_492:\n        /* \"#utility.yul\":12838:13032   */\n      swap3\n      swap2\n      pop\n      pop\n      jump\t// out\n        /* \"#utility.yul\":13038:13229   */\n    tag_222:\n        /* \"#utility.yul\":13078:13081   */\n      0x00\n        /* \"#utility.yul\":13097:13117   */\n      tag_495\n        /* \"#utility.yul\":13115:13116   */\n      dup3\n        /* \"#utility.yul\":13097:13117   */\n      tag_304\n      jump\t// in\n    tag_495:\n        /* \"#utility.yul\":13092:13117   */\n      swap2\n      pop\n        /* \"#utility.yul\":13131:13151   */\n      tag_496\n        /* \"#utility.yul\":13149:13150   */\n      dup4\n        /* \"#utility.yul\":13131:13151   */\n      tag_304\n      jump\t// in\n    tag_496:\n        /* \"#utility.yul\":13126:13151   */\n      swap3\n      pop\n        /* \"#utility.yul\":13174:13175   */\n      dup3\n        /* \"#utility.yul\":13171:13172   */\n      dup3\n        /* \"#utility.yul\":13167:13176   */\n      add\n        /* \"#utility.yul\":13160:13176   */\n      swap1\n      pop\n        /* \"#utility.yul\":13195:13198   */\n      dup1\n        /* \"#utility.yul\":13192:13193   */\n      dup3\n        /* \"#utility.yul\":13189:13199   */\n      gt\n        /* \"#utility.yul\":13186:13222   */\n      iszero\n      tag_497\n      jumpi\n        /* \"#utility.yul\":13202:13220   */\n      tag_498\n      tag_333\n      jump\t// in\n    tag_498:\n        /* \"#utility.yul\":13186:13222   */\n    tag_497:\n        /* \"#utility.yul\":13038:13229   */\n      swap3\n      swap2\n      pop\n      pop\n      jump\t// out\n        /* \"#utility.yul\":13235:13383   */\n    tag_334:\n        /* \"#utility.yul\":13337:13348   */\n      0x00\n        /* \"#utility.yul\":13374:13377   */\n      dup2\n        /* \"#utility.yul\":13359:13377   */\n      swap1\n      pop\n        /* \"#utility.yul\":13235:13383   */\n      swap3\n      swap2\n      pop\n      pop\n      jump\t// out\n        /* \"#utility.yul\":13389:13779   */\n    tag_335:\n        /* \"#utility.yul\":13495:13498   */\n      0x00\n        /* \"#utility.yul\":13523:13562   */\n      tag_501\n        /* \"#utility.yul\":13556:13561   */\n      dup3\n        /* \"#utility.yul\":13523:13562   */\n      tag_309\n      jump\t// in\n    tag_501:\n        /* \"#utility.yul\":13578:13667   */\n      tag_502\n        /* \"#utility.yul\":13660:13666   */\n      dup2\n        /* \"#utility.yul\":13655:13658   */\n      dup6\n        /* \"#utility.yul\":13578:13667   */\n      tag_334\n      jump\t// in\n    tag_502:\n        /* \"#utility.yul\":13571:13667   */\n      swap4\n      pop\n        /* \"#utility.yul\":13676:13741   */\n      tag_503\n        /* \"#utility.yul\":13734:13740   */\n      dup2\n        /* \"#utility.yul\":13729:13732   */\n      dup6\n        /* \"#utility.yul\":13722:13726   */\n      0x20\n        /* \"#utility.yul\":13715:13720   */\n      dup7\n        /* \"#utility.yul\":13711:13727   */\n      add\n        /* \"#utility.yul\":13676:13741   */\n      tag_311\n      jump\t// in\n    tag_503:\n        /* \"#utility.yul\":13766:13772   */\n      dup1\n        /* \"#utility.yul\":13761:13764   */\n      dup5\n        /* \"#utility.yul\":13757:13773   */\n      add\n        /* \"#utility.yul\":13750:13773   */\n      swap2\n      pop\n        /* \"#utility.yul\":13499:13779   */\n      pop\n        /* \"#utility.yul\":13389:13779   */\n      swap3\n      swap2\n      pop\n      pop\n      jump\t// out\n        /* \"#utility.yul\":13785:14060   */\n    tag_244:\n        /* \"#utility.yul\":13917:13920   */\n      0x00\n        /* \"#utility.yul\":13939:14034   */\n      tag_505\n        /* \"#utility.yul\":14030:14033   */\n      dup3\n        /* \"#utility.yul\":14021:14027   */\n      dup5\n        /* \"#utility.yul\":13939:14034   */\n      tag_335\n      jump\t// in\n    tag_505:\n        /* \"#utility.yul\":13932:14034   */\n      swap2\n      pop\n        /* \"#utility.yul\":14051:14054   */\n      dup2\n        /* \"#utility.yul\":14044:14054   */\n      swap1\n      pop\n        /* \"#utility.yul\":13785:14060   */\n      swap3\n      swap2\n      pop\n      pop\n      jump\t// out\n        /* \"#utility.yul\":14066:14246   */\n    tag_336:\n        /* \"#utility.yul\":14114:14191   */\n      0x4e487b7100000000000000000000000000000000000000000000000000000000\n        /* \"#utility.yul\":14111:14112   */\n      0x00\n        /* \"#utility.yul\":14104:14192   */\n      mstore\n        /* \"#utility.yul\":14211:14215   */\n      0x12\n        /* \"#utility.yul\":14208:14209   */\n      0x04\n        /* \"#utility.yul\":14201:14216   */\n      mstore\n        /* \"#utility.yul\":14235:14239   */\n      0x24\n        /* \"#utility.yul\":14232:14233   */\n      0x00\n        /* \"#utility.yul\":14225:14240   */\n      revert\n        /* \"#utility.yul\":14252:14437   */\n    tag_258:\n        /* \"#utility.yul\":14292:14293   */\n      0x00\n        /* \"#utility.yul\":14309:14329   */\n      tag_508\n        /* \"#utility.yul\":14327:14328   */\n      dup3\n        /* \"#utility.yul\":14309:14329   */\n      tag_304\n      jump\t// in\n    tag_508:\n        /* \"#utility.yul\":14304:14329   */\n      swap2\n      pop\n        /* \"#utility.yul\":14343:14363   */\n      tag_509\n        /* \"#utility.yul\":14361:14362   */\n      dup4\n        /* \"#utility.yul\":14343:14363   */\n      tag_304\n      jump\t// in\n    tag_509:\n        /* \"#utility.yul\":14338:14363   */\n      swap3\n      pop\n        /* \"#utility.yul\":14382:14383   */\n      dup3\n        /* \"#utility.yul\":14372:14407   */\n      tag_510\n      jumpi\n        /* \"#utility.yul\":14387:14405   */\n      tag_511\n      tag_336\n      jump\t// in\n    tag_511:\n        /* \"#utility.yul\":14372:14407   */\n    tag_510:\n        /* \"#utility.yul\":14429:14430   */\n      dup3\n        /* \"#utility.yul\":14426:14427   */\n      dup3\n        /* \"#utility.yul\":14422:14431   */\n      div\n        /* \"#utility.yul\":14417:14431   */\n      swap1\n      pop\n        /* \"#utility.yul\":14252:14437   */\n      swap3\n      swap2\n      pop\n      pop\n      jump\t// out\n        /* \"#utility.yul\":14443:14853   */\n    tag_260:\n        /* \"#utility.yul\":14483:14490   */\n      0x00\n        /* \"#utility.yul\":14506:14526   */\n      tag_513\n        /* \"#utility.yul\":14524:14525   */\n      dup3\n        /* \"#utility.yul\":14506:14526   */\n      tag_304\n      jump\t// in\n    tag_513:\n        /* \"#utility.yul\":14501:14526   */\n      swap2\n      pop\n        /* \"#utility.yul\":14540:14560   */\n      tag_514\n        /* \"#utility.yul\":14558:14559   */\n      dup4\n        /* \"#utility.yul\":14540:14560   */\n      tag_304\n      jump\t// in\n    tag_514:\n        /* \"#utility.yul\":14535:14560   */\n      swap3\n      pop\n        /* \"#utility.yul\":14595:14596   */\n      dup3\n        /* \"#utility.yul\":14592:14593   */\n      dup3\n        /* \"#utility.yul\":14588:14597   */\n      mul\n        /* \"#utility.yul\":14617:14647   */\n      tag_515\n        /* \"#utility.yul\":14635:14646   */\n      dup2\n        /* \"#utility.yul\":14617:14647   */\n      tag_304\n      jump\t// in\n    tag_515:\n        /* \"#utility.yul\":14606:14647   */\n      swap2\n      pop\n        /* \"#utility.yul\":14796:14797   */\n      dup3\n        /* \"#utility.yul\":14787:14794   */\n      dup3\n        /* \"#utility.yul\":14783:14798   */\n      div\n        /* \"#utility.yul\":14780:14781   */\n      dup5\n        /* \"#utility.yul\":14777:14799   */\n      eq\n        /* \"#utility.yul\":14757:14758   */\n      dup4\n        /* \"#utility.yul\":14750:14759   */\n      iszero\n        /* \"#utility.yul\":14730:14813   */\n      or\n        /* \"#utility.yul\":14707:14846   */\n      tag_516\n      jumpi\n        /* \"#utility.yul\":14826:14844   */\n      tag_517\n      tag_333\n      jump\t// in\n    tag_517:\n        /* \"#utility.yul\":14707:14846   */\n    tag_516:\n        /* \"#utility.yul\":14491:14853   */\n      pop\n        /* \"#utility.yul\":14443:14853   */\n      swap3\n      swap2\n      pop\n      pop\n      jump\t// out\n        /* \"#utility.yul\":14859:15000   */\n    tag_337:\n        /* \"#utility.yul\":14908:14912   */\n      0x00\n        /* \"#utility.yul\":14931:14934   */\n      dup2\n        /* \"#utility.yul\":14923:14934   */\n      swap1\n      pop\n        /* \"#utility.yul\":14954:14957   */\n      dup2\n        /* \"#utility.yul\":14951:14952   */\n      0x00\n        /* \"#utility.yul\":14944:14958   */\n      mstore\n        /* \"#utility.yul\":14988:14992   */\n      0x20\n        /* \"#utility.yul\":14985:14986   */\n      0x00\n        /* \"#utility.yul\":14975:14993   */\n      keccak256\n        /* \"#utility.yul\":14967:14993   */\n      swap1\n      pop\n        /* \"#utility.yul\":14859:15000   */\n      swap2\n      swap1\n      pop\n      jump\t// out\n        /* \"#utility.yul\":15006:15099   */\n    tag_338:\n        /* \"#utility.yul\":15043:15049   */\n      0x00\n        /* \"#utility.yul\":15090:15092   */\n      0x20\n        /* \"#utility.yul\":15085:15087   */\n      0x1f\n        /* \"#utility.yul\":15078:15083   */\n      dup4\n        /* \"#utility.yul\":15074:15088   */\n      add\n        /* \"#utility.yul\":15070:15093   */\n      div\n        /* \"#utility.yul\":15060:15093   */\n      swap1\n      pop\n        /* \"#utility.yul\":15006:15099   */\n      swap2\n      swap1\n      pop\n      jump\t// out\n        /* \"#utility.yul\":15105:15212   */\n    tag_339:\n        /* \"#utility.yul\":15149:15157   */\n      0x00\n        /* \"#utility.yul\":15199:15204   */\n      dup3\n        /* \"#utility.yul\":15193:15197   */\n      dup3\n        /* \"#utility.yul\":15189:15205   */\n      shl\n        /* \"#utility.yul\":15168:15205   */\n      swap1\n      pop\n        /* \"#utility.yul\":15105:15212   */\n      swap3\n      swap2\n      pop\n      pop\n      jump\t// out\n        /* \"#utility.yul\":15218:15611   */\n    tag_340:\n        /* \"#utility.yul\":15287:15293   */\n      0x00\n        /* \"#utility.yul\":15337:15338   */\n      0x08\n        /* \"#utility.yul\":15325:15335   */\n      dup4\n        /* \"#utility.yul\":15321:15339   */\n      mul\n        /* \"#utility.yul\":15360:15457   */\n      tag_522\n        /* \"#utility.yul\":15390:15456   */\n      0xffffffffffffffffffffffffffffffffffffffffffffffffffffffffffffffff\n        /* \"#utility.yul\":15379:15388   */\n      dup3\n        /* \"#utility.yul\":15360:15457   */\n      tag_339\n      jump\t// in\n    tag_522:\n        /* \"#utility.yul\":15478:15517   */\n      tag_523\n        /* \"#utility.yul\":15508:15516   */\n      dup7\n        /* \"#utility.yul\":15497:15506   */\n      dup4\n        /* \"#utility.yul\":15478:15517   */\n      tag_339\n      jump\t// in\n    tag_523:\n        /* \"#utility.yul\":15466:15517   */\n      swap6\n      pop\n        /* \"#utility.yul\":15550:15554   */\n      dup1\n        /* \"#utility.yul\":15546:15555   */\n      not\n        /* \"#utility.yul\":15539:15544   */\n      dup5\n        /* \"#utility.yul\":15535:15556   */\n      and\n        /* \"#utility.yul\":15526:15556   */\n      swap4\n      pop\n        /* \"#utility.yul\":15599:15603   */\n      dup1\n        /* \"#utility.yul\":15589:15597   */\n      dup7\n        /* \"#utility.yul\":15585:15604   */\n      and\n        /* \"#utility.yul\":15578:15583   */\n      dup5\n        /* \"#utility.yul\":15575:15605   */\n      or\n        /* \"#utility.yul\":15565:15605   */\n      swap3\n      pop\n        /* \"#utility.yul\":15294:15611   */\n      pop\n      pop\n        /* \"#utility.yul\":15218:15611   */\n      swap4\n      swap3\n      pop\n      pop\n      pop\n      jump\t// out\n        /* \"#utility.yul\":15617:15677   */\n    tag_341:\n        /* \"#utility.yul\":15645:15648   */\n      0x00\n        /* \"#utility.yul\":15666:15671   */\n      dup2\n        /* \"#utility.yul\":15659:15671   */\n      swap1\n      pop\n        /* \"#utility.yul\":15617:15677   */\n      swap2\n      swap1\n      pop\n      jump\t// out\n        /* \"#utility.yul\":15683:15825   */\n    tag_342:\n        /* \"#utility.yul\":15733:15742   */\n      0x00\n        /* \"#utility.yul\":15766:15819   */\n      tag_526\n        /* \"#utility.yul\":15784:15818   */\n      tag_527\n        /* \"#utility.yul\":15793:15817   */\n      tag_528\n        /* \"#utility.yul\":15811:15816   */\n      dup5\n        /* \"#utility.yul\":15793:15817   */\n      tag_304\n      jump\t// in\n    tag_528:\n        /* \"#utility.yul\":15784:15818   */\n      tag_341\n      jump\t// in\n    tag_527:\n        /* \"#utility.yul\":15766:15819   */\n      tag_304\n      jump\t// in\n    tag_526:\n        /* \"#utility.yul\":15753:15819   */\n      swap1\n      pop\n        /* \"#utility.yul\":15683:15825   */\n      swap2\n      swap1\n      pop\n      jump\t// out\n        /* \"#utility.yul\":15831:15906   */\n    tag_343:\n        /* \"#utility.yul\":15874:15877   */\n      0x00\n        /* \"#utility.yul\":15895:15900   */\n      dup2\n        /* \"#utility.yul\":15888:15900   */\n      swap1\n      pop\n        /* \"#utility.yul\":15831:15906   */\n      swap2\n      swap1\n      pop\n      jump\t// out\n        /* \"#utility.yul\":15912:16181   */\n    tag_344:\n        /* \"#utility.yul\":16022:16061   */\n      tag_531\n        /* \"#utility.yul\":16053:16060   */\n      dup4\n        /* \"#utility.yul\":16022:16061   */\n      tag_342\n      jump\t// in\n    tag_531:\n        /* \"#utility.yul\":16083:16174   */\n      tag_532\n        /* \"#utility.yul\":16132:16173   */\n      tag_533\n        /* \"#utility.yul\":16156:16172   */\n      dup3\n        /* \"#utility.yul\":16132:16173   */\n      tag_343\n      jump\t// in\n    tag_533:\n        /* \"#utility.yul\":16124:16130   */\n      dup5\n        /* \"#utility.yul\":16117:16121   */\n      dup5\n        /* \"#utility.yul\":16111:16122   */\n      sload\n        /* \"#utility.yul\":16083:16174   */\n      tag_340\n      jump\t// in\n    tag_532:\n        /* \"#utility.yul\":16077:16081   */\n      dup3\n        /* \"#utility.yul\":16070:16175   */\n      sstore\n        /* \"#utility.yul\":15988:16181   */\n      pop\n        /* \"#utility.yul\":15912:16181   */\n      pop\n      pop\n      pop\n      jump\t// out\n        /* \"#utility.yul\":16187:16260   */\n    tag_345:\n        /* \"#utility.yul\":16232:16235   */\n      0x00\n        /* \"#utility.yul\":16187:16260   */\n      swap1\n      jump\t// out\n        /* \"#utility.yul\":16266:16455   */\n    tag_346:\n        /* \"#utility.yul\":16343:16375   */\n      tag_536\n      tag_345\n      jump\t// in\n    tag_536:\n        /* \"#utility.yul\":16384:16449   */\n      tag_537\n        /* \"#utility.yul\":16442:16448   */\n      dup2\n        /* \"#utility.yul\":16434:16440   */\n      dup5\n        /* \"#utility.yul\":16428:16432   */\n      dup5\n        /* \"#utility.yul\":16384:16449   */\n      tag_344\n      jump\t// in\n    tag_537:\n        /* \"#utility.yul\":16319:16455   */\n      pop\n        /* \"#utility.yul\":16266:16455   */\n      pop\n      pop\n      jump\t// out\n        /* \"#utility.yul\":16461:16647   */\n    tag_347:\n        /* \"#utility.yul\":16521:16641   */\n    tag_539:\n        /* \"#utility.yul\":16538:16541   */\n      dup2\n        /* \"#utility.yul\":16531:16536   */\n      dup2\n        /* \"#utility.yul\":16528:16542   */\n      lt\n        /* \"#utility.yul\":16521:16641   */\n      iszero\n      tag_541\n      jumpi\n        /* \"#utility.yul\":16592:16631   */\n      tag_542\n        /* \"#utility.yul\":16629:16630   */\n      0x00\n        /* \"#utility.yul\":16622:16627   */\n      dup3\n        /* \"#utility.yul\":16592:16631   */\n      tag_346\n      jump\t// in\n    tag_542:\n        /* \"#utility.yul\":16565:16566   */\n      0x01\n        /* \"#utility.yul\":16558:16563   */\n      dup2\n        /* \"#utility.yul\":16554:16567   */\n      add\n        /* \"#utility.yul\":16545:16567   */\n      swap1\n      pop\n        /* \"#utility.yul\":16521:16641   */\n      jump(tag_539)\n    tag_541:\n        /* \"#utility.yul\":16461:16647   */\n      pop\n      pop\n      jump\t// out\n        /* \"#utility.yul\":16653:17196   */\n    tag_348:\n        /* \"#utility.yul\":16754:16756   */\n      0x1f\n        /* \"#utility.yul\":16749:16752   */\n      dup3\n        /* \"#utility.yul\":16746:16757   */\n      gt\n        /* \"#utility.yul\":16743:17189   */\n      iszero\n      tag_544\n      jumpi\n        /* \"#utility.yul\":16788:16826   */\n      tag_545\n        /* \"#utility.yul\":16820:16825   */\n      dup2\n        /* \"#utility.yul\":16788:16826   */\n      tag_337\n      jump\t// in\n    tag_545:\n        /* \"#utility.yul\":16872:16901   */\n      tag_546\n        /* \"#utility.yul\":16890:16900   */\n      dup5\n        /* \"#utility.yul\":16872:16901   */\n      tag_338\n      jump\t// in\n    tag_546:\n        /* \"#utility.yul\":16862:16870   */\n      dup2\n        /* \"#utility.yul\":16858:16902   */\n      add\n        /* \"#utility.yul\":17055:17057   */\n      0x20\n        /* \"#utility.yul\":17043:17053   */\n      dup6\n        /* \"#utility.yul\":17040:17058   */\n      lt\n        /* \"#utility.yul\":17037:17086   */\n      iszero\n      tag_547\n      jumpi\n        /* \"#utility.yul\":17076:17084   */\n      dup2\n        /* \"#utility.yul\":17061:17084   */\n      swap1\n      pop\n        /* \"#utility.yul\":17037:17086   */\n    tag_547:\n        /* \"#utility.yul\":17099:17179   */\n      tag_548\n        /* \"#utility.yul\":17155:17177   */\n      tag_549\n        /* \"#utility.yul\":17173:17176   */\n      dup6\n        /* \"#utility.yul\":17155:17177   */\n      tag_338\n      jump\t// in\n    tag_549:\n        /* \"#utility.yul\":17145:17153   */\n      dup4\n        /* \"#utility.yul\":17141:17178   */\n      add\n        /* \"#utility.yul\":17128:17139   */\n      dup3\n        /* \"#utility.yul\":17099:17179   */\n      tag_347\n      jump\t// in\n    tag_548:\n        /* \"#utility.yul\":16758:17189   */\n      pop\n      pop\n        /* \"#utility.yul\":16743:17189   */\n    tag_544:\n        /* \"#utility.yul\":16653:17196   */\n      pop\n      pop\n      pop\n      jump\t// out\n        /* \"#utility.yul\":17202:17319   */\n    tag_349:\n        /* \"#utility.yul\":17256:17264   */\n      0x00\n        /* \"#utility.yul\":17306:17311   */\n      dup3\n        /* \"#utility.yul\":17300:17304   */\n      dup3\n        /* \"#utility.yul\":17296:17312   */\n      shr\n        /* \"#utility.yul\":17275:17312   */\n      swap1\n      pop\n        /* \"#utility.yul\":17202:17319   */\n      swap3\n      swap2\n      pop\n      pop\n      jump\t// out\n        /* \"#utility.yul\":17325:17494   */\n    tag_350:\n        /* \"#utility.yul\":17369:17375   */\n      0x00\n        /* \"#utility.yul\":17402:17453   */\n      tag_552\n        /* \"#utility.yul\":17450:17451   */\n      0x00\n        /* \"#utility.yul\":17446:17452   */\n      not\n        /* \"#utility.yul\":17438:17443   */\n      dup5\n        /* \"#utility.yul\":17435:17436   */\n      0x08\n        /* \"#utility.yul\":17431:17444   */\n      mul\n        /* \"#utility.yul\":17402:17453   */\n      tag_349\n      jump\t// in\n    tag_552:\n        /* \"#utility.yul\":17398:17454   */\n      not\n        /* \"#utility.yul\":17483:17487   */\n      dup1\n        /* \"#utility.yul\":17477:17481   */\n      dup4\n        /* \"#utility.yul\":17473:17488   */\n      and\n        /* \"#utility.yul\":17463:17488   */\n      swap2\n      pop\n        /* \"#utility.yul\":17376:17494   */\n      pop\n        /* \"#utility.yul\":17325:17494   */\n      swap3\n      swap2\n      pop\n      pop\n      jump\t// out\n        /* \"#utility.yul\":17499:17794   */\n    tag_351:\n        /* \"#utility.yul\":17575:17579   */\n      0x00\n        /* \"#utility.yul\":17721:17750   */\n      tag_554\n        /* \"#utility.yul\":17746:17749   */\n      dup4\n        /* \"#utility.yul\":17740:17744   */\n      dup4\n        /* \"#utility.yul\":17721:17750   */\n      tag_350\n      jump\t// in\n    tag_554:\n        /* \"#utility.yul\":17713:17750   */\n      swap2\n      pop\n        /* \"#utility.yul\":17783:17786   */\n      dup3\n        /* \"#utility.yul\":17780:17781   */\n      0x02\n        /* \"#utility.yul\":17776:17787   */\n      mul\n        /* \"#utility.yul\":17770:17774   */\n      dup3\n        /* \"#utility.yul\":17767:17788   */\n      or\n        /* \"#utility.yul\":17759:17788   */\n      swap1\n      pop\n        /* \"#utility.yul\":17499:17794   */\n      swap3\n      swap2\n      pop\n      pop\n      jump\t// out\n        /* \"#utility.yul\":17799:19194   */\n    tag_299:\n        /* \"#utility.yul\":17916:17953   */\n      tag_556\n        /* \"#utility.yul\":17949:17952   */\n      dup3\n        /* \"#utility.yul\":17916:17953   */\n      tag_309\n      jump\t// in\n    tag_556:\n        /* \"#utility.yul\":18018:18036   */\n      0xffffffffffffffff\n        /* \"#utility.yul\":18010:18016   */\n      dup2\n        /* \"#utility.yul\":18007:18037   */\n      gt\n        /* \"#utility.yul\":18004:18060   */\n      iszero\n      tag_557\n      jumpi\n        /* \"#utility.yul\":18040:18058   */\n      tag_558\n      tag_323\n      jump\t// in\n    tag_558:\n        /* \"#utility.yul\":18004:18060   */\n    tag_557:\n        /* \"#utility.yul\":18084:18122   */\n      tag_559\n        /* \"#utility.yul\":18116:18120   */\n      dup3\n        /* \"#utility.yul\":18110:18121   */\n      sload\n        /* \"#utility.yul\":18084:18122   */\n      tag_155\n      jump\t// in\n    tag_559:\n        /* \"#utility.yul\":18169:18236   */\n      tag_560\n        /* \"#utility.yul\":18229:18235   */\n      dup3\n        /* \"#utility.yul\":18221:18227   */\n      dup3\n        /* \"#utility.yul\":18215:18219   */\n      dup6\n        /* \"#utility.yul\":18169:18236   */\n      tag_348\n      jump\t// in\n    tag_560:\n        /* \"#utility.yul\":18263:18264   */\n      0x00\n        /* \"#utility.yul\":18287:18291   */\n      0x20\n        /* \"#utility.yul\":18274:18291   */\n      swap1\n      pop\n        /* \"#utility.yul\":18319:18321   */\n      0x1f\n        /* \"#utility.yul\":18311:18317   */\n      dup4\n        /* \"#utility.yul\":18308:18322   */\n      gt\n        /* \"#utility.yul\":18336:18337   */\n      0x01\n        /* \"#utility.yul\":18331:18949   */\n      dup2\n      eq\n      tag_562\n      jumpi\n        /* \"#utility.yul\":18993:18994   */\n      0x00\n        /* \"#utility.yul\":19010:19016   */\n      dup5\n        /* \"#utility.yul\":19007:19084   */\n      iszero\n      tag_563\n      jumpi\n        /* \"#utility.yul\":19059:19068   */\n      dup3\n        /* \"#utility.yul\":19054:19057   */\n      dup8\n        /* \"#utility.yul\":19050:19069   */\n      add\n        /* \"#utility.yul\":19044:19070   */\n      mload\n        /* \"#utility.yul\":19035:19070   */\n      swap1\n      pop\n        /* \"#utility.yul\":19007:19084   */\n    tag_563:\n        /* \"#utility.yul\":19110:19177   */\n      tag_564\n        /* \"#utility.yul\":19170:19176   */\n      dup6\n        /* \"#utility.yul\":19163:19168   */\n      dup3\n        /* \"#utility.yul\":19110:19177   */\n      tag_351\n      jump\t// in\n    tag_564:\n        /* \"#utility.yul\":19104:19108   */\n      dup7\n        /* \"#utility.yul\":19097:19178   */\n      sstore\n        /* \"#utility.yul\":18966:19188   */\n      pop\n        /* \"#utility.yul\":18301:19188   */\n      jump(tag_561)\n        /* \"#utility.yul\":18331:18949   */\n    tag_562:\n        /* \"#utility.yul\":18383:18387   */\n      0x1f\n        /* \"#utility.yul\":18379:18388   */\n      not\n        /* \"#utility.yul\":18371:18377   */\n      dup5\n        /* \"#utility.yul\":18367:18389   */\n      and\n        /* \"#utility.yul\":18417:18454   */\n      tag_565\n        /* \"#utility.yul\":18449:18453   */\n      dup7\n        /* \"#utility.yul\":18417:18454   */\n      tag_337\n      jump\t// in\n    tag_565:\n        /* \"#utility.yul\":18476:18477   */\n      0x00\n        /* \"#utility.yul\":18490:18698   */\n    tag_566:\n        /* \"#utility.yul\":18504:18511   */\n      dup3\n        /* \"#utility.yul\":18501:18502   */\n      dup2\n        /* \"#utility.yul\":18498:18512   */\n      lt\n        /* \"#utility.yul\":18490:18698   */\n      iszero\n      tag_568\n      jumpi\n        /* \"#utility.yul\":18583:18592   */\n      dup5\n        /* \"#utility.yul\":18578:18581   */\n      dup10\n        /* \"#utility.yul\":18574:18593   */\n      add\n        /* \"#utility.yul\":18568:18594   */\n      mload\n        /* \"#utility.yul\":18560:18566   */\n      dup3\n        /* \"#utility.yul\":18553:18595   */\n      sstore\n        /* \"#utility.yul\":18634:18635   */\n      0x01\n        /* \"#utility.yul\":18626:18632   */\n      dup3\n        /* \"#utility.yul\":18622:18636   */\n      add\n        /* \"#utility.yul\":18612:18636   */\n      swap2\n      pop\n        /* \"#utility.yul\":18681:18683   */\n      0x20\n        /* \"#utility.yul\":18670:18679   */\n      dup6\n        /* \"#utility.yul\":18666:18684   */\n      add\n        /* \"#utility.yul\":18653:18684   */\n      swap5\n      pop\n        /* \"#utility.yul\":18527:18531   */\n      0x20\n        /* \"#utility.yul\":18524:18525   */\n      dup2\n        /* \"#utility.yul\":18520:18532   */\n      add\n        /* \"#utility.yul\":18515:18532   */\n      swap1\n      pop\n        /* \"#utility.yul\":18490:18698   */\n      jump(tag_566)\n    tag_568:\n        /* \"#utility.yul\":18726:18732   */\n      dup7\n        /* \"#utility.yul\":18717:18724   */\n      dup4\n        /* \"#utility.yul\":18714:18733   */\n      lt\n        /* \"#utility.yul\":18711:18890   */\n      iszero\n      tag_569\n      jumpi\n        /* \"#utility.yul\":18784:18793   */\n      dup5\n        /* \"#utility.yul\":18779:18782   */\n      dup10\n        /* \"#utility.yul\":18775:18794   */\n      add\n        /* \"#utility.yul\":18769:18795   */\n      mload\n        /* \"#utility.yul\":18827:18875   */\n      tag_570\n        /* \"#utility.yul\":18869:18873   */\n      0x1f\n        /* \"#utility.yul\":18861:18867   */\n      dup10\n        /* \"#utility.yul\":18857:18874   */\n      and\n        /* \"#utility.yul\":18846:18855   */\n      dup3\n        /* \"#utility.yul\":18827:18875   */\n      tag_350\n      jump\t// in\n    tag_570:\n        /* \"#utility.yul\":18819:18825   */\n      dup4\n        /* \"#utility.yul\":18812:18876   */\n      sstore\n        /* \"#utility.yul\":18734:18890   */\n      pop\n        /* \"#utility.yul\":18711:18890   */\n    tag_569:\n        /* \"#utility.yul\":18936:18937   */\n      0x01\n        /* \"#utility.yul\":18932:18933   */\n      0x02\n        /* \"#utility.yul\":18924:18930   */\n      dup9\n        /* \"#utility.yul\":18920:18934   */\n      mul\n        /* \"#utility.yul\":18916:18938   */\n      add\n        /* \"#utility.yul\":18910:18914   */\n      dup9\n        /* \"#utility.yul\":18903:18939   */\n      sstore\n        /* \"#utility.yul\":18338:18949   */\n      pop\n      pop\n      pop\n        /* \"#utility.yul\":18301:19188   */\n    tag_561:\n      pop\n        /* \"#utility.yul\":17891:19194   */\n      pop\n      pop\n      pop\n        /* \"#utility.yul\":17799:19194   */\n      pop\n      pop\n      jump\t// out\n\n    auxdata: 0xa26469706673582212205c169c3ea12d18908514da915af6b90815a0b3b9efc54162035a2e28858269c364736f6c63430008120033\n}\n",
				"bytecode": {
					"linkReferences": {},
					"object": "60a06040527fffffffffffffffffffffffffffffffffffffffffffffffffffffffffffffffff6080908152503480156200003857600080fd5b50604051620039343803806200393483398181016040528101906200005e9190620004e4565b60016000803073ffffffffffffffffffffffffffffffffffffffff1673ffffffffffffffffffffffffffffffffffffffff16815260200190815260200160002060006101000a81548160ff02191690831515021790555060016000808373ffffffffffffffffffffffffffffffffffffffff1673ffffffffffffffffffffffffffffffffffffffff16815260200190815260200160002060006101000a81548160ff0219169083151502179055506040518060400160405280600c81526020017f447265616d6361746368657200000000000000000000000000000000000000008152506007600001908162000155919062000790565b506040518060400160405280600581526020017f445245414d000000000000000000000000000000000000000000000000000000815250600760010190816200019f919062000790565b506012600760020160006101000a81548160ff021916908360ff1602179055506000600760040181905550600760020160009054906101000a900460ff16600a620001eb919062000a07565b630bebc200620001fc919062000a58565b600760080181905550600760020160009054906101000a900460ff16600a62000226919062000a07565b630bebc20062000237919062000a58565b60076003018190555030600760090160006101000a81548173ffffffffffffffffffffffffffffffffffffffff021916908373ffffffffffffffffffffffffffffffffffffffff160217905550600060016004018190555060006001600501819055506000600160000181905550600060018001819055506127106001600201819055506127106001600301819055506200030a33600760020160009054906101000a900460ff16600a620002ed919062000a07565b630bebc200620002fe919062000a58565b6200031260201b60201c565b505062000b47565b60008060009050600083101580156200033057506007600301548311155b80156200036a5750600073ffffffffffffffffffffffffffffffffffffffff168473ffffffffffffffffffffffffffffffffffffffff1614155b6200037457600080fd5b82600760030160008282546200038b919062000aa3565b9250508190555082601160008673ffffffffffffffffffffffffffffffffffffffff1673ffffffffffffffffffffffffffffffffffffffff1681526020019081526020016000206000828254620003e3919062000ade565b925050819055836007600401600082825462000400919062000ade565b92505081905550508373ffffffffffffffffffffffffffffffffffffffff168173ffffffffffffffffffffffffffffffffffffffff167fddf252ad1be2c89b69c2b068fc378daa952ba7f163c4a11628f55a4df523b3ef8560405162000467919062000b2a565b60405180910390a3600191505092915050565b600080fd5b600073ffffffffffffffffffffffffffffffffffffffff82169050919050565b6000620004ac826200047f565b9050919050565b620004be816200049f565b8114620004ca57600080fd5b50565b600081519050620004de81620004b3565b92915050565b600060208284031215620004fd57620004fc6200047a565b5b60006200050d84828501620004cd565b91505092915050565b600081519050919050565b7f4e487b7100000000000000000000000000000000000000000000000000000000600052604160045260246000fd5b7f4e487b7100000000000000000000000000000000000000000000000000000000600052602260045260246000fd5b600060028204905060018216806200059857607f821691505b602082108103620005ae57620005ad62000550565b5b50919050565b60008190508160005260206000209050919050565b60006020601f8301049050919050565b600082821b905092915050565b600060088302620006187fffffffffffffffffffffffffffffffffffffffffffffffffffffffffffffffff82620005d9565b620006248683620005d9565b95508019841693508086168417925050509392505050565b6000819050919050565b6000819050919050565b6000620006716200066b62000665846200063c565b62000646565b6200063c565b9050919050565b6000819050919050565b6200068d8362000650565b620006a56200069c8262000678565b848454620005e6565b825550505050565b600090565b620006bc620006ad565b620006c981848462000682565b505050565b5b81811015620006f157620006e5600082620006b2565b600181019050620006cf565b5050565b601f82111562000740576200070a81620005b4565b6200071584620005c9565b8101602085101562000725578190505b6200073d6200073485620005c9565b830182620006ce565b50505b505050565b600082821c905092915050565b6000620007656000198460080262000745565b1980831691505092915050565b600062000780838362000752565b9150826002028217905092915050565b6200079b8262000516565b67ffffffffffffffff811115620007b757620007b662000521565b5b620007c382546200057f565b620007d0828285620006f5565b600060209050601f831160018114620008085760008415620007f3578287015190505b620007ff858262000772565b8655506200086f565b601f1984166200081886620005b4565b60005b8281101562000842578489015182556001820191506020850194506020810190506200081b565b868310156200086257848901516200085e601f89168262000752565b8355505b6001600288020188555050505b505050505050565b7f4e487b7100000000000000000000000000000000000000000000000000000000600052601160045260246000fd5b60008160011c9050919050565b6000808291508390505b60018511156200090557808604811115620008dd57620008dc62000877565b5b6001851615620008ed5780820291505b8081029050620008fd85620008a6565b9450620008bd565b94509492505050565b600082620009205760019050620009f3565b81620009305760009050620009f3565b816001811462000949576002811462000954576200098a565b6001915050620009f3565b60ff84111562000969576200096862000877565b5b8360020a91508482111562000983576200098262000877565b5b50620009f3565b5060208310610133831016604e8410600b8410161715620009c45782820a905083811115620009be57620009bd62000877565b5b620009f3565b620009d38484846001620008b3565b92509050818404811115620009ed57620009ec62000877565b5b81810290505b9392505050565b600060ff82169050919050565b600062000a14826200063c565b915062000a2183620009fa565b925062000a507fffffffffffffffffffffffffffffffffffffffffffffffffffffffffffffffff84846200090e565b905092915050565b600062000a65826200063c565b915062000a72836200063c565b925082820262000a82816200063c565b9150828204841483151762000a9c5762000a9b62000877565b5b5092915050565b600062000ab0826200063c565b915062000abd836200063c565b925082820390508181111562000ad85762000ad762000877565b5b92915050565b600062000aeb826200063c565b915062000af8836200063c565b925082820190508082111562000b135762000b1262000877565b5b92915050565b62000b24816200063c565b82525050565b600060208201905062000b41600083018462000b19565b92915050565b608051612dd462000b6060003960005050612dd46000f3fe608060405234801561001057600080fd5b506004361061018e5760003560e01c80634c496d4f116100de578063a694fc3a11610097578063db3c5fca11610071578063db3c5fca14610516578063dd62ed3e14610546578063e4f1b27c14610576578063f34e3723146105a65761018e565b8063a694fc3a14610498578063a9059cbb146104c8578063d5abeb01146104f85761018e565b80634c496d4f146103a957806370a08231146103cc57806379ec5d3a146103fc578063817b1cd21461042c57806395d89b411461044a57806396b75b1a146104685761018e565b806323b872dd1161014b57806340c10f191161012557806340c10f19146102fb578063426233601461032b57806342966c681461035b5780634bf365df1461038b5761018e565b806323b872dd1461027d5780632e17de78146102ad578063313ce567146102dd5761018e565b8063015af8ee1461019357806306fdde03146101c3578063095ea7b3146101e15780630d15fd771461021157806318160ddd1461022f5780631c1b87721461024d575b600080fd5b6101ad60048036038101906101a89190612329565b6105d6565b6040516101ba9190612384565b60405180910390f35b6101cb61071d565b6040516101d8919061242f565b60405180910390f35b6101fb60048036038101906101f691906124af565b6107b2565b6040516102089190612384565b60405180910390f35b61021961091c565b60405161022691906124fe565b60405180910390f35b610237610928565b60405161024491906124fe565b60405180910390f35b61026760048036038101906102629190612519565b610935565b6040516102749190612384565b60405180910390f35b61029760048036038101906102929190612546565b610a92565b6040516102a49190612384565b60405180910390f35b6102c760048036038101906102c29190612599565b610c17565b6040516102d49190612384565b60405180910390f35b6102e5610dac565b6040516102f291906125e2565b60405180910390f35b610315600480360381019061031091906124af565b610dc6565b6040516103229190612384565b60405180910390f35b61034560048036038101906103409190612519565b610e6b565b60405161035291906124fe565b60405180910390f35b61037560048036038101906103709190612599565b610eb4565b6040516103829190612384565b60405180910390f35b610393610f5e565b6040516103a091906124fe565b60405180910390f35b6103b1610f6b565b6040516103c3969594939291906125fd565b60405180910390f35b6103e660048036038101906103e19190612519565b611061565b6040516103f391906124fe565b60405180910390f35b61041660048036038101906104119190612519565b6110aa565b60405161042391906124fe565b60405180910390f35b6104346110f3565b60405161044191906124fe565b60405180910390f35b610452611100565b60405161045f919061242f565b60405180910390f35b610482600480360381019061047d9190612519565b611195565b60405161048f9190612384565b60405180910390f35b6104b260048036038101906104ad9190612599565b61131f565b6040516104bf9190612384565b60405180910390f35b6104e260048036038101906104dd91906124af565b611468565b6040516104ef9190612384565b60405180910390f35b6105006114a4565b60405161050d91906124fe565b60405180910390f35b610530600480360381019061052b9190612519565b6114b1565b60405161053d9190612384565b60405180910390f35b610560600480360381019061055b919061265e565b61163b565b60405161056d91906124fe565b60405180910390f35b610590600480360381019061058b91906127d3565b6116c2565b60405161059d9190612384565b60405180910390f35b6105c060048036038101906105bb9190612856565b61176b565b6040516105cd9190612384565b60405180910390f35b6000600115156000803373ffffffffffffffffffffffffffffffffffffffff1673ffffffffffffffffffffffffffffffffffffffff16815260200190815260200160002060009054906101000a900460ff1615151461066a576040517f08c379a0000000000000000000000000000000000000000000000000000000008152600401610661906128eb565b60405180910390fd5b6000600160000154905060006001800154905060006001600201549050600060016003015490508387101580156106a15750818711155b80156106ad5750828610155b80156106b95750808611155b6106c257600080fd5b86600160040181905550856001600501819055507ff710d5c0fed44aca6b7e44715976f68b87187f4a4d505f8c14731a5c3906e9b9878760405161070792919061290b565b60405180910390a1600194505050505092915050565b60606007600001805461072f90612963565b80601f016020809104026020016040519081016040528092919081815260200182805461075b90612963565b80156107a85780601f1061077d576101008083540402835291602001916107a8565b820191906000526020600020905b81548152906001019060200180831161078b57829003601f168201915b5050505050905090565b600080339050600073ffffffffffffffffffffffffffffffffffffffff168173ffffffffffffffffffffffffffffffffffffffff16141580156108225750600073ffffffffffffffffffffffffffffffffffffffff168473ffffffffffffffffffffffffffffffffffffffff1614155b61082b57600080fd5b82601460008373ffffffffffffffffffffffffffffffffffffffff1673ffffffffffffffffffffffffffffffffffffffff16815260200190815260200160002060008673ffffffffffffffffffffffffffffffffffffffff1673ffffffffffffffffffffffffffffffffffffffff168152602001908152602001600020819055508373ffffffffffffffffffffffffffffffffffffffff168173ffffffffffffffffffffffffffffffffffffffff167f8c5be1e5ebec7d5bd14f71427d1e84f3dd0314c0f7b2291e5b200ac8c7c3b9258560405161090991906124fe565b60405180910390a3600191505092915050565b60006007800154905090565b6000600760040154905090565b6000600115156000803373ffffffffffffffffffffffffffffffffffffffff1673ffffffffffffffffffffffffffffffffffffffff16815260200190815260200160002060009054906101000a900460ff161515146109c9576040517f08c379a00000000000000000000000000000000000000000000000000000000081526004016109c0906128eb565b60405180910390fd5b600073ffffffffffffffffffffffffffffffffffffffff168273ffffffffffffffffffffffffffffffffffffffff1603610a0257600080fd5b81600760090160006101000a81548173ffffffffffffffffffffffffffffffffffffffff021916908373ffffffffffffffffffffffffffffffffffffffff1602179055508173ffffffffffffffffffffffffffffffffffffffff167fd456720fd185d4060f5cea4d82775d2af95048c1e10f227ec35bae950a4be2a860405160405180910390a260019050919050565b600080601460008673ffffffffffffffffffffffffffffffffffffffff1673ffffffffffffffffffffffffffffffffffffffff16815260200190815260200160002060003373ffffffffffffffffffffffffffffffffffffffff1673ffffffffffffffffffffffffffffffffffffffff1681526020019081526020016000205490507fffffffffffffffffffffffffffffffffffffffffffffffffffffffffffffffff8114158015610b445750828110155b610b4d57600080fd5b82601460008773ffffffffffffffffffffffffffffffffffffffff1673ffffffffffffffffffffffffffffffffffffffff16815260200190815260200160002060003373ffffffffffffffffffffffffffffffffffffffff1673ffffffffffffffffffffffffffffffffffffffff1681526020019081526020016000206000828254610bd991906129c3565b925050819055506000600160040154905060006001600501549050600080610c048989898787611916565b9150915081955050505050509392505050565b600080600760090160009054906101000a900473ffffffffffffffffffffffffffffffffffffffff16905060003390506000600160040154905060006001600501549050601260008473ffffffffffffffffffffffffffffffffffffffff1673ffffffffffffffffffffffffffffffffffffffff16815260200190815260200160002054861115610ca757600080fd5b600080610cb786868a8787611916565b9150915087601260008773ffffffffffffffffffffffffffffffffffffffff1673ffffffffffffffffffffffffffffffffffffffff1681526020019081526020016000206000828254610d0a91906129c3565b9250508190555087601360008773ffffffffffffffffffffffffffffffffffffffff1673ffffffffffffffffffffffffffffffffffffffff1681526020019081526020016000206000828254610d6091906129c3565b925050819055508760076005016000828254610d7c91906129c3565b9250508190555087600780016000828254610d9791906129c3565b92505081905550819650505050505050919050565b6000600760020160009054906101000a900460ff16905090565b6000600115156000803373ffffffffffffffffffffffffffffffffffffffff1673ffffffffffffffffffffffffffffffffffffffff16815260200190815260200160002060009054906101000a900460ff16151514610e5a576040517f08c379a0000000000000000000000000000000000000000000000000000000008152600401610e51906128eb565b60405180910390fd5b610e648383611d43565b5092915050565b6000601260008373ffffffffffffffffffffffffffffffffffffffff1673ffffffffffffffffffffffffffffffffffffffff168152602001908152602001600020549050919050565b6000600115156000803373ffffffffffffffffffffffffffffffffffffffff1673ffffffffffffffffffffffffffffffffffffffff16815260200190815260200160002060009054906101000a900460ff16151514610f48576040517f08c379a0000000000000000000000000000000000000000000000000000000008152600401610f3f906128eb565b60405180910390fd5b6000339050610f578184611ea0565b5050919050565b6000600760030154905090565b600080600080600080600115156000803373ffffffffffffffffffffffffffffffffffffffff1673ffffffffffffffffffffffffffffffffffffffff16815260200190815260200160002060009054906101000a900460ff16151514611006576040517f08c379a0000000000000000000000000000000000000000000000000000000008152600401610ffd906128eb565b60405180910390fd5b60006001600401549050600060016005015490506000600160000154905060006001800154905060006001600201549050600060016003015490508585858585859b509b509b509b509b509b50505050505050909192939495565b6000601160008373ffffffffffffffffffffffffffffffffffffffff1673ffffffffffffffffffffffffffffffffffffffff168152602001908152602001600020549050919050565b6000601360008373ffffffffffffffffffffffffffffffffffffffff1673ffffffffffffffffffffffffffffffffffffffff168152602001908152602001600020549050919050565b6000600760050154905090565b60606007600101805461111290612963565b80601f016020809104026020016040519081016040528092919081815260200182805461113e90612963565b801561118b5780601f106111605761010080835404028352916020019161118b565b820191906000526020600020905b81548152906001019060200180831161116e57829003601f168201915b5050505050905090565b6000600115156000803373ffffffffffffffffffffffffffffffffffffffff1673ffffffffffffffffffffffffffffffffffffffff16815260200190815260200160002060009054906101000a900460ff16151514611229576040517f08c379a0000000000000000000000000000000000000000000000000000000008152600401611220906128eb565b60405180910390fd5b600073ffffffffffffffffffffffffffffffffffffffff168273ffffffffffffffffffffffffffffffffffffffff16141580156112b65750600115156000808473ffffffffffffffffffffffffffffffffffffffff1673ffffffffffffffffffffffffffffffffffffffff16815260200190815260200160002060009054906101000a900460ff16151514155b6112bf57600080fd5b60016000808473ffffffffffffffffffffffffffffffffffffffff1673ffffffffffffffffffffffffffffffffffffffff16815260200190815260200160002060006101000a81548160ff02191690831515021790555060019050919050565b6000803390506000600760090160009054906101000a900473ffffffffffffffffffffffffffffffffffffffff169050600060016004015490506000600160050154905060008061137386868a8787611916565b9150915080601260008873ffffffffffffffffffffffffffffffffffffffff1673ffffffffffffffffffffffffffffffffffffffff16815260200190815260200160002060008282546113c691906129f7565b9250508190555080601360008873ffffffffffffffffffffffffffffffffffffffff1673ffffffffffffffffffffffffffffffffffffffff168152602001908152602001600020600082825461141c91906129f7565b92505081905550806007600501600082825461143891906129f7565b925050819055508060078001600082825461145391906129f7565b92505081905550819650505050505050919050565b60008033905060006001600401549050600060016005015490506000806114928589898787611916565b91509150819550505050505092915050565b6000600760080154905090565b6000600115156000803373ffffffffffffffffffffffffffffffffffffffff1673ffffffffffffffffffffffffffffffffffffffff16815260200190815260200160002060009054906101000a900460ff16151514611545576040517f08c379a000000000000000000000000000000000000000000000000000000000815260040161153c906128eb565b60405180910390fd5b600073ffffffffffffffffffffffffffffffffffffffff168273ffffffffffffffffffffffffffffffffffffffff16141580156115d25750600015156000808473ffffffffffffffffffffffffffffffffffffffff1673ffffffffffffffffffffffffffffffffffffffff16815260200190815260200160002060009054906101000a900460ff16151514155b6115db57600080fd5b60008060008473ffffffffffffffffffffffffffffffffffffffff1673ffffffffffffffffffffffffffffffffffffffff16815260200190815260200160002060006101000a81548160ff02191690831515021790555060019050919050565b6000601460008473ffffffffffffffffffffffffffffffffffffffff1673ffffffffffffffffffffffffffffffffffffffff16815260200190815260200160002060008373ffffffffffffffffffffffffffffffffffffffff1673ffffffffffffffffffffffffffffffffffffffff16815260200190815260200160002054905092915050565b6000600115156000803373ffffffffffffffffffffffffffffffffffffffff1673ffffffffffffffffffffffffffffffffffffffff16815260200190815260200160002060009054906101000a900460ff16151514611756576040517f08c379a000000000000000000000000000000000000000000000000000000000815260040161174d906128eb565b60405180910390fd5b61176285858585611fdc565b50949350505050565b600080600760090160009054906101000a900473ffffffffffffffffffffffffffffffffffffffff16905060003390506000601560008373ffffffffffffffffffffffffffffffffffffffff1673ffffffffffffffffffffffffffffffffffffffff168152602001908152602001600020856040516117ea9190612a67565b90815260200160405180910390206003015490506000601560008473ffffffffffffffffffffffffffffffffffffffff1673ffffffffffffffffffffffffffffffffffffffff1681526020019081526020016000208660405161184d9190612a67565b90815260200160405180910390206004015490504282101580156118715750600081115b61187a57600080fd5b600060016004015490506000600160050154905060008061189e8888878787611916565b915091506000601560008973ffffffffffffffffffffffffffffffffffffffff1673ffffffffffffffffffffffffffffffffffffffff1681526020019081526020016000208b6040516118f19190612a67565b9081526020016040518091039020600401819055508198505050505050505050919050565b600080600073ffffffffffffffffffffffffffffffffffffffff168773ffffffffffffffffffffffffffffffffffffffff16141580156119835750600073ffffffffffffffffffffffffffffffffffffffff168673ffffffffffffffffffffffffffffffffffffffff1614155b80156119ce575084601160008973ffffffffffffffffffffffffffffffffffffffff1673ffffffffffffffffffffffffffffffffffffffff1681526020019081526020016000205410155b8015611a1a57506000601160008973ffffffffffffffffffffffffffffffffffffffff1673ffffffffffffffffffffffffffffffffffffffff1681526020019081526020016000205410155b8015611a27575060008510155b611a3057600080fd5b84601160008973ffffffffffffffffffffffffffffffffffffffff1673ffffffffffffffffffffffffffffffffffffffff1681526020019081526020016000206000828254611a7f91906129c3565b925050819055506000846103e887611a979190612aad565b611aa19190612ade565b90506000846103e888611ab49190612aad565b611abe9190612ade565b905060008183611ace91906129f7565b88611ad991906129c3565b905080601160008b73ffffffffffffffffffffffffffffffffffffffff1673ffffffffffffffffffffffffffffffffffffffff1681526020019081526020016000206000828254611b2a91906129f7565b925050819055508160116000600760090160009054906101000a900473ffffffffffffffffffffffffffffffffffffffff1673ffffffffffffffffffffffffffffffffffffffff1673ffffffffffffffffffffffffffffffffffffffff1681526020019081526020016000206000828254611ba591906129f7565b925050819055508260076004016000828254611bc191906129c3565b925050819055508873ffffffffffffffffffffffffffffffffffffffff168a73ffffffffffffffffffffffffffffffffffffffff167fddf252ad1be2c89b69c2b068fc378daa952ba7f163c4a11628f55a4df523b3ef83604051611c2591906124fe565b60405180910390a360008314611c9c57600073ffffffffffffffffffffffffffffffffffffffff168a73ffffffffffffffffffffffffffffffffffffffff167fddf252ad1be2c89b69c2b068fc378daa952ba7f163c4a11628f55a4df523b3ef85604051611c9391906124fe565b60405180910390a35b60008214611d2f57600760090160009054906101000a900473ffffffffffffffffffffffffffffffffffffffff1673ffffffffffffffffffffffffffffffffffffffff168a73ffffffffffffffffffffffffffffffffffffffff167fddf252ad1be2c89b69c2b068fc378daa952ba7f163c4a11628f55a4df523b3ef84604051611d2691906124fe565b60405180910390a35b600181945094505050509550959350505050565b6000806000905060008310158015611d6057506007600301548311155b8015611d995750600073ffffffffffffffffffffffffffffffffffffffff168473ffffffffffffffffffffffffffffffffffffffff1614155b611da257600080fd5b8260076003016000828254611db791906129c3565b9250508190555082601160008673ffffffffffffffffffffffffffffffffffffffff1673ffffffffffffffffffffffffffffffffffffffff1681526020019081526020016000206000828254611e0d91906129f7565b9250508190558360076004016000828254611e2891906129f7565b92505081905550508373ffffffffffffffffffffffffffffffffffffffff168173ffffffffffffffffffffffffffffffffffffffff167fddf252ad1be2c89b69c2b068fc378daa952ba7f163c4a11628f55a4df523b3ef85604051611e8d91906124fe565b60405180910390a3600191505092915050565b6000808210158015611ef15750601160008473ffffffffffffffffffffffffffffffffffffffff1673ffffffffffffffffffffffffffffffffffffffff168152602001908152602001600020548211155b611efa57600080fd5b81601160008573ffffffffffffffffffffffffffffffffffffffff1673ffffffffffffffffffffffffffffffffffffffff1681526020019081526020016000206000828254611f4991906129c3565b9250508190558260076004016000828254611f6491906129c3565b9250508190555050600073ffffffffffffffffffffffffffffffffffffffff168373ffffffffffffffffffffffffffffffffffffffff167fddf252ad1be2c89b69c2b068fc378daa952ba7f163c4a11628f55a4df523b3ef84604051611fca91906124fe565b60405180910390a36001905092915050565b600080600090506000600760090160009054906101000a900473ffffffffffffffffffffffffffffffffffffffff16905060011515601560008973ffffffffffffffffffffffffffffffffffffffff1673ffffffffffffffffffffffffffffffffffffffff1681526020019081526020016000208560405161205e9190612a67565b908152602001604051809103902060050160009054906101000a900460ff1615151415801561209257506007600301548611155b80156120cb5750600073ffffffffffffffffffffffffffffffffffffffff168773ffffffffffffffffffffffffffffffffffffffff1614155b80156120d8575060008610155b6120e157600080fd5b85600760030160008282546120f691906129c3565b925050819055866007600401600082825461211191906129f7565b92505081905587601160008573ffffffffffffffffffffffffffffffffffffffff1673ffffffffffffffffffffffffffffffffffffffff168152602001908152602001600020600082825461216691906129f7565b92505081905550505060004290506040518060c00160405280868152602001878152602001828152602001878361219d91906129f7565b815260200188815260200160011515815250601560008a73ffffffffffffffffffffffffffffffffffffffff1673ffffffffffffffffffffffffffffffffffffffff168152602001908152602001600020866040516121fc9190612a67565b9081526020016040518091039020600082015181600001908161221f9190612ccc565b506020820151816001015560408201518160020155606082015181600301556080820151816004015560a08201518160050160006101000a81548160ff0219169083151502179055509050508773ffffffffffffffffffffffffffffffffffffffff168373ffffffffffffffffffffffffffffffffffffffff167fddf252ad1be2c89b69c2b068fc378daa952ba7f163c4a11628f55a4df523b3ef896040516122c891906124fe565b60405180910390a360019350505050949350505050565b6000604051905090565b600080fd5b600080fd5b6000819050919050565b612306816122f3565b811461231157600080fd5b50565b600081359050612323816122fd565b92915050565b600080604083850312156123405761233f6122e9565b5b600061234e85828601612314565b925050602061235f85828601612314565b9150509250929050565b60008115159050919050565b61237e81612369565b82525050565b60006020820190506123996000830184612375565b92915050565b600081519050919050565b600082825260208201905092915050565b60005b838110156123d95780820151818401526020810190506123be565b60008484015250505050565b6000601f19601f8301169050919050565b60006124018261239f565b61240b81856123aa565b935061241b8185602086016123bb565b612424816123e5565b840191505092915050565b6000602082019050818103600083015261244981846123f6565b905092915050565b600073ffffffffffffffffffffffffffffffffffffffff82169050919050565b600061247c82612451565b9050919050565b61248c81612471565b811461249757600080fd5b50565b6000813590506124a981612483565b92915050565b600080604083850312156124c6576124c56122e9565b5b60006124d48582860161249a565b92505060206124e585828601612314565b9150509250929050565b6124f8816122f3565b82525050565b600060208201905061251360008301846124ef565b92915050565b60006020828403121561252f5761252e6122e9565b5b600061253d8482850161249a565b91505092915050565b60008060006060848603121561255f5761255e6122e9565b5b600061256d8682870161249a565b935050602061257e8682870161249a565b925050604061258f86828701612314565b9150509250925092565b6000602082840312156125af576125ae6122e9565b5b60006125bd84828501612314565b91505092915050565b600060ff82169050919050565b6125dc816125c6565b82525050565b60006020820190506125f760008301846125d3565b92915050565b600060c08201905061261260008301896124ef565b61261f60208301886124ef565b61262c60408301876124ef565b61263960608301866124ef565b61264660808301856124ef565b61265360a08301846124ef565b979650505050505050565b60008060408385031215612675576126746122e9565b5b60006126838582860161249a565b92505060206126948582860161249a565b9150509250929050565b600080fd5b600080fd5b7f4e487b7100000000000000000000000000000000000000000000000000000000600052604160045260246000fd5b6126e0826123e5565b810181811067ffffffffffffffff821117156126ff576126fe6126a8565b5b80604052505050565b60006127126122df565b905061271e82826126d7565b919050565b600067ffffffffffffffff82111561273e5761273d6126a8565b5b612747826123e5565b9050602081019050919050565b82818337600083830152505050565b600061277661277184612723565b612708565b905082815260208101848484011115612792576127916126a3565b5b61279d848285612754565b509392505050565b600082601f8301126127ba576127b961269e565b5b81356127ca848260208601612763565b91505092915050565b600080600080608085870312156127ed576127ec6122e9565b5b60006127fb8782880161249a565b945050602061280c87828801612314565b935050604061281d87828801612314565b925050606085013567ffffffffffffffff81111561283e5761283d6122ee565b5b61284a878288016127a5565b91505092959194509250565b60006020828403121561286c5761286b6122e9565b5b600082013567ffffffffffffffff81111561288a576128896122ee565b5b612896848285016127a5565b91505092915050565b7f6f6e6c7941646d696e0000000000000000000000000000000000000000000000600082015250565b60006128d56009836123aa565b91506128e08261289f565b602082019050919050565b60006020820190508181036000830152612904816128c8565b9050919050565b600060408201905061292060008301856124ef565b61292d60208301846124ef565b9392505050565b7f4e487b7100000000000000000000000000000000000000000000000000000000600052602260045260246000fd5b6000600282049050600182168061297b57607f821691505b60208210810361298e5761298d612934565b5b50919050565b7f4e487b7100000000000000000000000000000000000000000000000000000000600052601160045260246000fd5b60006129ce826122f3565b91506129d9836122f3565b92508282039050818111156129f1576129f0612994565b5b92915050565b6000612a02826122f3565b9150612a0d836122f3565b9250828201905080821115612a2557612a24612994565b5b92915050565b600081905092915050565b6000612a418261239f565b612a4b8185612a2b565b9350612a5b8185602086016123bb565b80840191505092915050565b6000612a738284612a36565b915081905092915050565b7f4e487b7100000000000000000000000000000000000000000000000000000000600052601260045260246000fd5b6000612ab8826122f3565b9150612ac3836122f3565b925082612ad357612ad2612a7e565b5b828204905092915050565b6000612ae9826122f3565b9150612af4836122f3565b9250828202612b02816122f3565b91508282048414831517612b1957612b18612994565b5b5092915050565b60008190508160005260206000209050919050565b60006020601f8301049050919050565b600082821b905092915050565b600060088302612b827fffffffffffffffffffffffffffffffffffffffffffffffffffffffffffffffff82612b45565b612b8c8683612b45565b95508019841693508086168417925050509392505050565b6000819050919050565b6000612bc9612bc4612bbf846122f3565b612ba4565b6122f3565b9050919050565b6000819050919050565b612be383612bae565b612bf7612bef82612bd0565b848454612b52565b825550505050565b600090565b612c0c612bff565b612c17818484612bda565b505050565b5b81811015612c3b57612c30600082612c04565b600181019050612c1d565b5050565b601f821115612c8057612c5181612b20565b612c5a84612b35565b81016020851015612c69578190505b612c7d612c7585612b35565b830182612c1c565b50505b505050565b600082821c905092915050565b6000612ca360001984600802612c85565b1980831691505092915050565b6000612cbc8383612c92565b9150826002028217905092915050565b612cd58261239f565b67ffffffffffffffff811115612cee57612ced6126a8565b5b612cf88254612963565b612d03828285612c3f565b600060209050601f831160018114612d365760008415612d24578287015190505b612d2e8582612cb0565b865550612d96565b601f198416612d4486612b20565b60005b82811015612d6c57848901518255600182019150602085019450602081019050612d47565b86831015612d895784890151612d85601f891682612c92565b8355505b6001600288020188555050505b50505050505056fea26469706673582212205c169c3ea12d18908514da915af6b90815a0b3b9efc54162035a2e28858269c364736f6c63430008120033",
					"opcodes": "PUSH1 0xA0 PUSH1 0x40 MSTORE PUSH32 0xFFFFFFFFFFFFFFFFFFFFFFFFFFFFFFFFFFFFFFFFFFFFFFFFFFFFFFFFFFFFFFFF PUSH1 0x80 SWAP1 DUP2 MSTORE POP CALLVALUE DUP1 ISZERO PUSH3 0x38 JUMPI PUSH1 0x0 DUP1 REVERT JUMPDEST POP PUSH1 0x40 MLOAD PUSH3 0x3934 CODESIZE SUB DUP1 PUSH3 0x3934 DUP4 CODECOPY DUP2 DUP2 ADD PUSH1 0x40 MSTORE DUP2 ADD SWAP1 PUSH3 0x5E SWAP2 SWAP1 PUSH3 0x4E4 JUMP JUMPDEST PUSH1 0x1 PUSH1 0x0 DUP1 ADDRESS PUSH20 0xFFFFFFFFFFFFFFFFFFFFFFFFFFFFFFFFFFFFFFFF AND PUSH20 0xFFFFFFFFFFFFFFFFFFFFFFFFFFFFFFFFFFFFFFFF AND DUP2 MSTORE PUSH1 0x20 ADD SWAP1 DUP2 MSTORE PUSH1 0x20 ADD PUSH1 0x0 KECCAK256 PUSH1 0x0 PUSH2 0x100 EXP DUP2 SLOAD DUP2 PUSH1 0xFF MUL NOT AND SWAP1 DUP4 ISZERO ISZERO MUL OR SWAP1 SSTORE POP PUSH1 0x1 PUSH1 0x0 DUP1 DUP4 PUSH20 0xFFFFFFFFFFFFFFFFFFFFFFFFFFFFFFFFFFFFFFFF AND PUSH20 0xFFFFFFFFFFFFFFFFFFFFFFFFFFFFFFFFFFFFFFFF AND DUP2 MSTORE PUSH1 0x20 ADD SWAP1 DUP2 MSTORE PUSH1 0x20 ADD PUSH1 0x0 KECCAK256 PUSH1 0x0 PUSH2 0x100 EXP DUP2 SLOAD DUP2 PUSH1 0xFF MUL NOT AND SWAP1 DUP4 ISZERO ISZERO MUL OR SWAP1 SSTORE POP PUSH1 0x40 MLOAD DUP1 PUSH1 0x40 ADD PUSH1 0x40 MSTORE DUP1 PUSH1 0xC DUP2 MSTORE PUSH1 0x20 ADD PUSH32 0x447265616D636174636865720000000000000000000000000000000000000000 DUP2 MSTORE POP PUSH1 0x7 PUSH1 0x0 ADD SWAP1 DUP2 PUSH3 0x155 SWAP2 SWAP1 PUSH3 0x790 JUMP JUMPDEST POP PUSH1 0x40 MLOAD DUP1 PUSH1 0x40 ADD PUSH1 0x40 MSTORE DUP1 PUSH1 0x5 DUP2 MSTORE PUSH1 0x20 ADD PUSH32 0x445245414D000000000000000000000000000000000000000000000000000000 DUP2 MSTORE POP PUSH1 0x7 PUSH1 0x1 ADD SWAP1 DUP2 PUSH3 0x19F SWAP2 SWAP1 PUSH3 0x790 JUMP JUMPDEST POP PUSH1 0x12 PUSH1 0x7 PUSH1 0x2 ADD PUSH1 0x0 PUSH2 0x100 EXP DUP2 SLOAD DUP2 PUSH1 0xFF MUL NOT AND SWAP1 DUP4 PUSH1 0xFF AND MUL OR SWAP1 SSTORE POP PUSH1 0x0 PUSH1 0x7 PUSH1 0x4 ADD DUP2 SWAP1 SSTORE POP PUSH1 0x7 PUSH1 0x2 ADD PUSH1 0x0 SWAP1 SLOAD SWAP1 PUSH2 0x100 EXP SWAP1 DIV PUSH1 0xFF AND PUSH1 0xA PUSH3 0x1EB SWAP2 SWAP1 PUSH3 0xA07 JUMP JUMPDEST PUSH4 0xBEBC200 PUSH3 0x1FC SWAP2 SWAP1 PUSH3 0xA58 JUMP JUMPDEST PUSH1 0x7 PUSH1 0x8 ADD DUP2 SWAP1 SSTORE POP PUSH1 0x7 PUSH1 0x2 ADD PUSH1 0x0 SWAP1 SLOAD SWAP1 PUSH2 0x100 EXP SWAP1 DIV PUSH1 0xFF AND PUSH1 0xA PUSH3 0x226 SWAP2 SWAP1 PUSH3 0xA07 JUMP JUMPDEST PUSH4 0xBEBC200 PUSH3 0x237 SWAP2 SWAP1 PUSH3 0xA58 JUMP JUMPDEST PUSH1 0x7 PUSH1 0x3 ADD DUP2 SWAP1 SSTORE POP ADDRESS PUSH1 0x7 PUSH1 0x9 ADD PUSH1 0x0 PUSH2 0x100 EXP DUP2 SLOAD DUP2 PUSH20 0xFFFFFFFFFFFFFFFFFFFFFFFFFFFFFFFFFFFFFFFF MUL NOT AND SWAP1 DUP4 PUSH20 0xFFFFFFFFFFFFFFFFFFFFFFFFFFFFFFFFFFFFFFFF AND MUL OR SWAP1 SSTORE POP PUSH1 0x0 PUSH1 0x1 PUSH1 0x4 ADD DUP2 SWAP1 SSTORE POP PUSH1 0x0 PUSH1 0x1 PUSH1 0x5 ADD DUP2 SWAP1 SSTORE POP PUSH1 0x0 PUSH1 0x1 PUSH1 0x0 ADD DUP2 SWAP1 SSTORE POP PUSH1 0x0 PUSH1 0x1 DUP1 ADD DUP2 SWAP1 SSTORE POP PUSH2 0x2710 PUSH1 0x1 PUSH1 0x2 ADD DUP2 SWAP1 SSTORE POP PUSH2 0x2710 PUSH1 0x1 PUSH1 0x3 ADD DUP2 SWAP1 SSTORE POP PUSH3 0x30A CALLER PUSH1 0x7 PUSH1 0x2 ADD PUSH1 0x0 SWAP1 SLOAD SWAP1 PUSH2 0x100 EXP SWAP1 DIV PUSH1 0xFF AND PUSH1 0xA PUSH3 0x2ED SWAP2 SWAP1 PUSH3 0xA07 JUMP JUMPDEST PUSH4 0xBEBC200 PUSH3 0x2FE SWAP2 SWAP1 PUSH3 0xA58 JUMP JUMPDEST PUSH3 0x312 PUSH1 0x20 SHL PUSH1 0x20 SHR JUMP JUMPDEST POP POP PUSH3 0xB47 JUMP JUMPDEST PUSH1 0x0 DUP1 PUSH1 0x0 SWAP1 POP PUSH1 0x0 DUP4 LT ISZERO DUP1 ISZERO PUSH3 0x330 JUMPI POP PUSH1 0x7 PUSH1 0x3 ADD SLOAD DUP4 GT ISZERO JUMPDEST DUP1 ISZERO PUSH3 0x36A JUMPI POP PUSH1 0x0 PUSH20 0xFFFFFFFFFFFFFFFFFFFFFFFFFFFFFFFFFFFFFFFF AND DUP5 PUSH20 0xFFFFFFFFFFFFFFFFFFFFFFFFFFFFFFFFFFFFFFFF AND EQ ISZERO JUMPDEST PUSH3 0x374 JUMPI PUSH1 0x0 DUP1 REVERT JUMPDEST DUP3 PUSH1 0x7 PUSH1 0x3 ADD PUSH1 0x0 DUP3 DUP3 SLOAD PUSH3 0x38B SWAP2 SWAP1 PUSH3 0xAA3 JUMP JUMPDEST SWAP3 POP POP DUP2 SWAP1 SSTORE POP DUP3 PUSH1 0x11 PUSH1 0x0 DUP7 PUSH20 0xFFFFFFFFFFFFFFFFFFFFFFFFFFFFFFFFFFFFFFFF AND PUSH20 0xFFFFFFFFFFFFFFFFFFFFFFFFFFFFFFFFFFFFFFFF AND DUP2 MSTORE PUSH1 0x20 ADD SWAP1 DUP2 MSTORE PUSH1 0x20 ADD PUSH1 0x0 KECCAK256 PUSH1 0x0 DUP3 DUP3 SLOAD PUSH3 0x3E3 SWAP2 SWAP1 PUSH3 0xADE JUMP JUMPDEST SWAP3 POP POP DUP2 SWAP1 SSTORE DUP4 PUSH1 0x7 PUSH1 0x4 ADD PUSH1 0x0 DUP3 DUP3 SLOAD PUSH3 0x400 SWAP2 SWAP1 PUSH3 0xADE JUMP JUMPDEST SWAP3 POP POP DUP2 SWAP1 SSTORE POP POP DUP4 PUSH20 0xFFFFFFFFFFFFFFFFFFFFFFFFFFFFFFFFFFFFFFFF AND DUP2 PUSH20 0xFFFFFFFFFFFFFFFFFFFFFFFFFFFFFFFFFFFFFFFF AND PUSH32 0xDDF252AD1BE2C89B69C2B068FC378DAA952BA7F163C4A11628F55A4DF523B3EF DUP6 PUSH1 0x40 MLOAD PUSH3 0x467 SWAP2 SWAP1 PUSH3 0xB2A JUMP JUMPDEST PUSH1 0x40 MLOAD DUP1 SWAP2 SUB SWAP1 LOG3 PUSH1 0x1 SWAP2 POP POP SWAP3 SWAP2 POP POP JUMP JUMPDEST PUSH1 0x0 DUP1 REVERT JUMPDEST PUSH1 0x0 PUSH20 0xFFFFFFFFFFFFFFFFFFFFFFFFFFFFFFFFFFFFFFFF DUP3 AND SWAP1 POP SWAP2 SWAP1 POP JUMP JUMPDEST PUSH1 0x0 PUSH3 0x4AC DUP3 PUSH3 0x47F JUMP JUMPDEST SWAP1 POP SWAP2 SWAP1 POP JUMP JUMPDEST PUSH3 0x4BE DUP2 PUSH3 0x49F JUMP JUMPDEST DUP2 EQ PUSH3 0x4CA JUMPI PUSH1 0x0 DUP1 REVERT JUMPDEST POP JUMP JUMPDEST PUSH1 0x0 DUP2 MLOAD SWAP1 POP PUSH3 0x4DE DUP2 PUSH3 0x4B3 JUMP JUMPDEST SWAP3 SWAP2 POP POP JUMP JUMPDEST PUSH1 0x0 PUSH1 0x20 DUP3 DUP5 SUB SLT ISZERO PUSH3 0x4FD JUMPI PUSH3 0x4FC PUSH3 0x47A JUMP JUMPDEST JUMPDEST PUSH1 0x0 PUSH3 0x50D DUP5 DUP3 DUP6 ADD PUSH3 0x4CD JUMP JUMPDEST SWAP2 POP POP SWAP3 SWAP2 POP POP JUMP JUMPDEST PUSH1 0x0 DUP2 MLOAD SWAP1 POP SWAP2 SWAP1 POP JUMP JUMPDEST PUSH32 0x4E487B7100000000000000000000000000000000000000000000000000000000 PUSH1 0x0 MSTORE PUSH1 0x41 PUSH1 0x4 MSTORE PUSH1 0x24 PUSH1 0x0 REVERT JUMPDEST PUSH32 0x4E487B7100000000000000000000000000000000000000000000000000000000 PUSH1 0x0 MSTORE PUSH1 0x22 PUSH1 0x4 MSTORE PUSH1 0x24 PUSH1 0x0 REVERT JUMPDEST PUSH1 0x0 PUSH1 0x2 DUP3 DIV SWAP1 POP PUSH1 0x1 DUP3 AND DUP1 PUSH3 0x598 JUMPI PUSH1 0x7F DUP3 AND SWAP2 POP JUMPDEST PUSH1 0x20 DUP3 LT DUP2 SUB PUSH3 0x5AE JUMPI PUSH3 0x5AD PUSH3 0x550 JUMP JUMPDEST JUMPDEST POP SWAP2 SWAP1 POP JUMP JUMPDEST PUSH1 0x0 DUP2 SWAP1 POP DUP2 PUSH1 0x0 MSTORE PUSH1 0x20 PUSH1 0x0 KECCAK256 SWAP1 POP SWAP2 SWAP1 POP JUMP JUMPDEST PUSH1 0x0 PUSH1 0x20 PUSH1 0x1F DUP4 ADD DIV SWAP1 POP SWAP2 SWAP1 POP JUMP JUMPDEST PUSH1 0x0 DUP3 DUP3 SHL SWAP1 POP SWAP3 SWAP2 POP POP JUMP JUMPDEST PUSH1 0x0 PUSH1 0x8 DUP4 MUL PUSH3 0x618 PUSH32 0xFFFFFFFFFFFFFFFFFFFFFFFFFFFFFFFFFFFFFFFFFFFFFFFFFFFFFFFFFFFFFFFF DUP3 PUSH3 0x5D9 JUMP JUMPDEST PUSH3 0x624 DUP7 DUP4 PUSH3 0x5D9 JUMP JUMPDEST SWAP6 POP DUP1 NOT DUP5 AND SWAP4 POP DUP1 DUP7 AND DUP5 OR SWAP3 POP POP POP SWAP4 SWAP3 POP POP POP JUMP JUMPDEST PUSH1 0x0 DUP2 SWAP1 POP SWAP2 SWAP1 POP JUMP JUMPDEST PUSH1 0x0 DUP2 SWAP1 POP SWAP2 SWAP1 POP JUMP JUMPDEST PUSH1 0x0 PUSH3 0x671 PUSH3 0x66B PUSH3 0x665 DUP5 PUSH3 0x63C JUMP JUMPDEST PUSH3 0x646 JUMP JUMPDEST PUSH3 0x63C JUMP JUMPDEST SWAP1 POP SWAP2 SWAP1 POP JUMP JUMPDEST PUSH1 0x0 DUP2 SWAP1 POP SWAP2 SWAP1 POP JUMP JUMPDEST PUSH3 0x68D DUP4 PUSH3 0x650 JUMP JUMPDEST PUSH3 0x6A5 PUSH3 0x69C DUP3 PUSH3 0x678 JUMP JUMPDEST DUP5 DUP5 SLOAD PUSH3 0x5E6 JUMP JUMPDEST DUP3 SSTORE POP POP POP POP JUMP JUMPDEST PUSH1 0x0 SWAP1 JUMP JUMPDEST PUSH3 0x6BC PUSH3 0x6AD JUMP JUMPDEST PUSH3 0x6C9 DUP2 DUP5 DUP5 PUSH3 0x682 JUMP JUMPDEST POP POP POP JUMP JUMPDEST JUMPDEST DUP2 DUP2 LT ISZERO PUSH3 0x6F1 JUMPI PUSH3 0x6E5 PUSH1 0x0 DUP3 PUSH3 0x6B2 JUMP JUMPDEST PUSH1 0x1 DUP2 ADD SWAP1 POP PUSH3 0x6CF JUMP JUMPDEST POP POP JUMP JUMPDEST PUSH1 0x1F DUP3 GT ISZERO PUSH3 0x740 JUMPI PUSH3 0x70A DUP2 PUSH3 0x5B4 JUMP JUMPDEST PUSH3 0x715 DUP5 PUSH3 0x5C9 JUMP JUMPDEST DUP2 ADD PUSH1 0x20 DUP6 LT ISZERO PUSH3 0x725 JUMPI DUP2 SWAP1 POP JUMPDEST PUSH3 0x73D PUSH3 0x734 DUP6 PUSH3 0x5C9 JUMP JUMPDEST DUP4 ADD DUP3 PUSH3 0x6CE JUMP JUMPDEST POP POP JUMPDEST POP POP POP JUMP JUMPDEST PUSH1 0x0 DUP3 DUP3 SHR SWAP1 POP SWAP3 SWAP2 POP POP JUMP JUMPDEST PUSH1 0x0 PUSH3 0x765 PUSH1 0x0 NOT DUP5 PUSH1 0x8 MUL PUSH3 0x745 JUMP JUMPDEST NOT DUP1 DUP4 AND SWAP2 POP POP SWAP3 SWAP2 POP POP JUMP JUMPDEST PUSH1 0x0 PUSH3 0x780 DUP4 DUP4 PUSH3 0x752 JUMP JUMPDEST SWAP2 POP DUP3 PUSH1 0x2 MUL DUP3 OR SWAP1 POP SWAP3 SWAP2 POP POP JUMP JUMPDEST PUSH3 0x79B DUP3 PUSH3 0x516 JUMP JUMPDEST PUSH8 0xFFFFFFFFFFFFFFFF DUP2 GT ISZERO PUSH3 0x7B7 JUMPI PUSH3 0x7B6 PUSH3 0x521 JUMP JUMPDEST JUMPDEST PUSH3 0x7C3 DUP3 SLOAD PUSH3 0x57F JUMP JUMPDEST PUSH3 0x7D0 DUP3 DUP3 DUP6 PUSH3 0x6F5 JUMP JUMPDEST PUSH1 0x0 PUSH1 0x20 SWAP1 POP PUSH1 0x1F DUP4 GT PUSH1 0x1 DUP2 EQ PUSH3 0x808 JUMPI PUSH1 0x0 DUP5 ISZERO PUSH3 0x7F3 JUMPI DUP3 DUP8 ADD MLOAD SWAP1 POP JUMPDEST PUSH3 0x7FF DUP6 DUP3 PUSH3 0x772 JUMP JUMPDEST DUP7 SSTORE POP PUSH3 0x86F JUMP JUMPDEST PUSH1 0x1F NOT DUP5 AND PUSH3 0x818 DUP7 PUSH3 0x5B4 JUMP JUMPDEST PUSH1 0x0 JUMPDEST DUP3 DUP2 LT ISZERO PUSH3 0x842 JUMPI DUP5 DUP10 ADD MLOAD DUP3 SSTORE PUSH1 0x1 DUP3 ADD SWAP2 POP PUSH1 0x20 DUP6 ADD SWAP5 POP PUSH1 0x20 DUP2 ADD SWAP1 POP PUSH3 0x81B JUMP JUMPDEST DUP7 DUP4 LT ISZERO PUSH3 0x862 JUMPI DUP5 DUP10 ADD MLOAD PUSH3 0x85E PUSH1 0x1F DUP10 AND DUP3 PUSH3 0x752 JUMP JUMPDEST DUP4 SSTORE POP JUMPDEST PUSH1 0x1 PUSH1 0x2 DUP9 MUL ADD DUP9 SSTORE POP POP POP JUMPDEST POP POP POP POP POP POP JUMP JUMPDEST PUSH32 0x4E487B7100000000000000000000000000000000000000000000000000000000 PUSH1 0x0 MSTORE PUSH1 0x11 PUSH1 0x4 MSTORE PUSH1 0x24 PUSH1 0x0 REVERT JUMPDEST PUSH1 0x0 DUP2 PUSH1 0x1 SHR SWAP1 POP SWAP2 SWAP1 POP JUMP JUMPDEST PUSH1 0x0 DUP1 DUP3 SWAP2 POP DUP4 SWAP1 POP JUMPDEST PUSH1 0x1 DUP6 GT ISZERO PUSH3 0x905 JUMPI DUP1 DUP7 DIV DUP2 GT ISZERO PUSH3 0x8DD JUMPI PUSH3 0x8DC PUSH3 0x877 JUMP JUMPDEST JUMPDEST PUSH1 0x1 DUP6 AND ISZERO PUSH3 0x8ED JUMPI DUP1 DUP3 MUL SWAP2 POP JUMPDEST DUP1 DUP2 MUL SWAP1 POP PUSH3 0x8FD DUP6 PUSH3 0x8A6 JUMP JUMPDEST SWAP5 POP PUSH3 0x8BD JUMP JUMPDEST SWAP5 POP SWAP5 SWAP3 POP POP POP JUMP JUMPDEST PUSH1 0x0 DUP3 PUSH3 0x920 JUMPI PUSH1 0x1 SWAP1 POP PUSH3 0x9F3 JUMP JUMPDEST DUP2 PUSH3 0x930 JUMPI PUSH1 0x0 SWAP1 POP PUSH3 0x9F3 JUMP JUMPDEST DUP2 PUSH1 0x1 DUP2 EQ PUSH3 0x949 JUMPI PUSH1 0x2 DUP2 EQ PUSH3 0x954 JUMPI PUSH3 0x98A JUMP JUMPDEST PUSH1 0x1 SWAP2 POP POP PUSH3 0x9F3 JUMP JUMPDEST PUSH1 0xFF DUP5 GT ISZERO PUSH3 0x969 JUMPI PUSH3 0x968 PUSH3 0x877 JUMP JUMPDEST JUMPDEST DUP4 PUSH1 0x2 EXP SWAP2 POP DUP5 DUP3 GT ISZERO PUSH3 0x983 JUMPI PUSH3 0x982 PUSH3 0x877 JUMP JUMPDEST JUMPDEST POP PUSH3 0x9F3 JUMP JUMPDEST POP PUSH1 0x20 DUP4 LT PUSH2 0x133 DUP4 LT AND PUSH1 0x4E DUP5 LT PUSH1 0xB DUP5 LT AND OR ISZERO PUSH3 0x9C4 JUMPI DUP3 DUP3 EXP SWAP1 POP DUP4 DUP2 GT ISZERO PUSH3 0x9BE JUMPI PUSH3 0x9BD PUSH3 0x877 JUMP JUMPDEST JUMPDEST PUSH3 0x9F3 JUMP JUMPDEST PUSH3 0x9D3 DUP5 DUP5 DUP5 PUSH1 0x1 PUSH3 0x8B3 JUMP JUMPDEST SWAP3 POP SWAP1 POP DUP2 DUP5 DIV DUP2 GT ISZERO PUSH3 0x9ED JUMPI PUSH3 0x9EC PUSH3 0x877 JUMP JUMPDEST JUMPDEST DUP2 DUP2 MUL SWAP1 POP JUMPDEST SWAP4 SWAP3 POP POP POP JUMP JUMPDEST PUSH1 0x0 PUSH1 0xFF DUP3 AND SWAP1 POP SWAP2 SWAP1 POP JUMP JUMPDEST PUSH1 0x0 PUSH3 0xA14 DUP3 PUSH3 0x63C JUMP JUMPDEST SWAP2 POP PUSH3 0xA21 DUP4 PUSH3 0x9FA JUMP JUMPDEST SWAP3 POP PUSH3 0xA50 PUSH32 0xFFFFFFFFFFFFFFFFFFFFFFFFFFFFFFFFFFFFFFFFFFFFFFFFFFFFFFFFFFFFFFFF DUP5 DUP5 PUSH3 0x90E JUMP JUMPDEST SWAP1 POP SWAP3 SWAP2 POP POP JUMP JUMPDEST PUSH1 0x0 PUSH3 0xA65 DUP3 PUSH3 0x63C JUMP JUMPDEST SWAP2 POP PUSH3 0xA72 DUP4 PUSH3 0x63C JUMP JUMPDEST SWAP3 POP DUP3 DUP3 MUL PUSH3 0xA82 DUP2 PUSH3 0x63C JUMP JUMPDEST SWAP2 POP DUP3 DUP3 DIV DUP5 EQ DUP4 ISZERO OR PUSH3 0xA9C JUMPI PUSH3 0xA9B PUSH3 0x877 JUMP JUMPDEST JUMPDEST POP SWAP3 SWAP2 POP POP JUMP JUMPDEST PUSH1 0x0 PUSH3 0xAB0 DUP3 PUSH3 0x63C JUMP JUMPDEST SWAP2 POP PUSH3 0xABD DUP4 PUSH3 0x63C JUMP JUMPDEST SWAP3 POP DUP3 DUP3 SUB SWAP1 POP DUP2 DUP2 GT ISZERO PUSH3 0xAD8 JUMPI PUSH3 0xAD7 PUSH3 0x877 JUMP JUMPDEST JUMPDEST SWAP3 SWAP2 POP POP JUMP JUMPDEST PUSH1 0x0 PUSH3 0xAEB DUP3 PUSH3 0x63C JUMP JUMPDEST SWAP2 POP PUSH3 0xAF8 DUP4 PUSH3 0x63C JUMP JUMPDEST SWAP3 POP DUP3 DUP3 ADD SWAP1 POP DUP1 DUP3 GT ISZERO PUSH3 0xB13 JUMPI PUSH3 0xB12 PUSH3 0x877 JUMP JUMPDEST JUMPDEST SWAP3 SWAP2 POP POP JUMP JUMPDEST PUSH3 0xB24 DUP2 PUSH3 0x63C JUMP JUMPDEST DUP3 MSTORE POP POP JUMP JUMPDEST PUSH1 0x0 PUSH1 0x20 DUP3 ADD SWAP1 POP PUSH3 0xB41 PUSH1 0x0 DUP4 ADD DUP5 PUSH3 0xB19 JUMP JUMPDEST SWAP3 SWAP2 POP POP JUMP JUMPDEST PUSH1 0x80 MLOAD PUSH2 0x2DD4 PUSH3 0xB60 PUSH1 0x0 CODECOPY PUSH1 0x0 POP POP PUSH2 0x2DD4 PUSH1 0x0 RETURN INVALID PUSH1 0x80 PUSH1 0x40 MSTORE CALLVALUE DUP1 ISZERO PUSH2 0x10 JUMPI PUSH1 0x0 DUP1 REVERT JUMPDEST POP PUSH1 0x4 CALLDATASIZE LT PUSH2 0x18E JUMPI PUSH1 0x0 CALLDATALOAD PUSH1 0xE0 SHR DUP1 PUSH4 0x4C496D4F GT PUSH2 0xDE JUMPI DUP1 PUSH4 0xA694FC3A GT PUSH2 0x97 JUMPI DUP1 PUSH4 0xDB3C5FCA GT PUSH2 0x71 JUMPI DUP1 PUSH4 0xDB3C5FCA EQ PUSH2 0x516 JUMPI DUP1 PUSH4 0xDD62ED3E EQ PUSH2 0x546 JUMPI DUP1 PUSH4 0xE4F1B27C EQ PUSH2 0x576 JUMPI DUP1 PUSH4 0xF34E3723 EQ PUSH2 0x5A6 JUMPI PUSH2 0x18E JUMP JUMPDEST DUP1 PUSH4 0xA694FC3A EQ PUSH2 0x498 JUMPI DUP1 PUSH4 0xA9059CBB EQ PUSH2 0x4C8 JUMPI DUP1 PUSH4 0xD5ABEB01 EQ PUSH2 0x4F8 JUMPI PUSH2 0x18E JUMP JUMPDEST DUP1 PUSH4 0x4C496D4F EQ PUSH2 0x3A9 JUMPI DUP1 PUSH4 0x70A08231 EQ PUSH2 0x3CC JUMPI DUP1 PUSH4 0x79EC5D3A EQ PUSH2 0x3FC JUMPI DUP1 PUSH4 0x817B1CD2 EQ PUSH2 0x42C JUMPI DUP1 PUSH4 0x95D89B41 EQ PUSH2 0x44A JUMPI DUP1 PUSH4 0x96B75B1A EQ PUSH2 0x468 JUMPI PUSH2 0x18E JUMP JUMPDEST DUP1 PUSH4 0x23B872DD GT PUSH2 0x14B JUMPI DUP1 PUSH4 0x40C10F19 GT PUSH2 0x125 JUMPI DUP1 PUSH4 0x40C10F19 EQ PUSH2 0x2FB JUMPI DUP1 PUSH4 0x42623360 EQ PUSH2 0x32B JUMPI DUP1 PUSH4 0x42966C68 EQ PUSH2 0x35B JUMPI DUP1 PUSH4 0x4BF365DF EQ PUSH2 0x38B JUMPI PUSH2 0x18E JUMP JUMPDEST DUP1 PUSH4 0x23B872DD EQ PUSH2 0x27D JUMPI DUP1 PUSH4 0x2E17DE78 EQ PUSH2 0x2AD JUMPI DUP1 PUSH4 0x313CE567 EQ PUSH2 0x2DD JUMPI PUSH2 0x18E JUMP JUMPDEST DUP1 PUSH4 0x15AF8EE EQ PUSH2 0x193 JUMPI DUP1 PUSH4 0x6FDDE03 EQ PUSH2 0x1C3 JUMPI DUP1 PUSH4 0x95EA7B3 EQ PUSH2 0x1E1 JUMPI DUP1 PUSH4 0xD15FD77 EQ PUSH2 0x211 JUMPI DUP1 PUSH4 0x18160DDD EQ PUSH2 0x22F JUMPI DUP1 PUSH4 0x1C1B8772 EQ PUSH2 0x24D JUMPI JUMPDEST PUSH1 0x0 DUP1 REVERT JUMPDEST PUSH2 0x1AD PUSH1 0x4 DUP1 CALLDATASIZE SUB DUP2 ADD SWAP1 PUSH2 0x1A8 SWAP2 SWAP1 PUSH2 0x2329 JUMP JUMPDEST PUSH2 0x5D6 JUMP JUMPDEST PUSH1 0x40 MLOAD PUSH2 0x1BA SWAP2 SWAP1 PUSH2 0x2384 JUMP JUMPDEST PUSH1 0x40 MLOAD DUP1 SWAP2 SUB SWAP1 RETURN JUMPDEST PUSH2 0x1CB PUSH2 0x71D JUMP JUMPDEST PUSH1 0x40 MLOAD PUSH2 0x1D8 SWAP2 SWAP1 PUSH2 0x242F JUMP JUMPDEST PUSH1 0x40 MLOAD DUP1 SWAP2 SUB SWAP1 RETURN JUMPDEST PUSH2 0x1FB PUSH1 0x4 DUP1 CALLDATASIZE SUB DUP2 ADD SWAP1 PUSH2 0x1F6 SWAP2 SWAP1 PUSH2 0x24AF JUMP JUMPDEST PUSH2 0x7B2 JUMP JUMPDEST PUSH1 0x40 MLOAD PUSH2 0x208 SWAP2 SWAP1 PUSH2 0x2384 JUMP JUMPDEST PUSH1 0x40 MLOAD DUP1 SWAP2 SUB SWAP1 RETURN JUMPDEST PUSH2 0x219 PUSH2 0x91C JUMP JUMPDEST PUSH1 0x40 MLOAD PUSH2 0x226 SWAP2 SWAP1 PUSH2 0x24FE JUMP JUMPDEST PUSH1 0x40 MLOAD DUP1 SWAP2 SUB SWAP1 RETURN JUMPDEST PUSH2 0x237 PUSH2 0x928 JUMP JUMPDEST PUSH1 0x40 MLOAD PUSH2 0x244 SWAP2 SWAP1 PUSH2 0x24FE JUMP JUMPDEST PUSH1 0x40 MLOAD DUP1 SWAP2 SUB SWAP1 RETURN JUMPDEST PUSH2 0x267 PUSH1 0x4 DUP1 CALLDATASIZE SUB DUP2 ADD SWAP1 PUSH2 0x262 SWAP2 SWAP1 PUSH2 0x2519 JUMP JUMPDEST PUSH2 0x935 JUMP JUMPDEST PUSH1 0x40 MLOAD PUSH2 0x274 SWAP2 SWAP1 PUSH2 0x2384 JUMP JUMPDEST PUSH1 0x40 MLOAD DUP1 SWAP2 SUB SWAP1 RETURN JUMPDEST PUSH2 0x297 PUSH1 0x4 DUP1 CALLDATASIZE SUB DUP2 ADD SWAP1 PUSH2 0x292 SWAP2 SWAP1 PUSH2 0x2546 JUMP JUMPDEST PUSH2 0xA92 JUMP JUMPDEST PUSH1 0x40 MLOAD PUSH2 0x2A4 SWAP2 SWAP1 PUSH2 0x2384 JUMP JUMPDEST PUSH1 0x40 MLOAD DUP1 SWAP2 SUB SWAP1 RETURN JUMPDEST PUSH2 0x2C7 PUSH1 0x4 DUP1 CALLDATASIZE SUB DUP2 ADD SWAP1 PUSH2 0x2C2 SWAP2 SWAP1 PUSH2 0x2599 JUMP JUMPDEST PUSH2 0xC17 JUMP JUMPDEST PUSH1 0x40 MLOAD PUSH2 0x2D4 SWAP2 SWAP1 PUSH2 0x2384 JUMP JUMPDEST PUSH1 0x40 MLOAD DUP1 SWAP2 SUB SWAP1 RETURN JUMPDEST PUSH2 0x2E5 PUSH2 0xDAC JUMP JUMPDEST PUSH1 0x40 MLOAD PUSH2 0x2F2 SWAP2 SWAP1 PUSH2 0x25E2 JUMP JUMPDEST PUSH1 0x40 MLOAD DUP1 SWAP2 SUB SWAP1 RETURN JUMPDEST PUSH2 0x315 PUSH1 0x4 DUP1 CALLDATASIZE SUB DUP2 ADD SWAP1 PUSH2 0x310 SWAP2 SWAP1 PUSH2 0x24AF JUMP JUMPDEST PUSH2 0xDC6 JUMP JUMPDEST PUSH1 0x40 MLOAD PUSH2 0x322 SWAP2 SWAP1 PUSH2 0x2384 JUMP JUMPDEST PUSH1 0x40 MLOAD DUP1 SWAP2 SUB SWAP1 RETURN JUMPDEST PUSH2 0x345 PUSH1 0x4 DUP1 CALLDATASIZE SUB DUP2 ADD SWAP1 PUSH2 0x340 SWAP2 SWAP1 PUSH2 0x2519 JUMP JUMPDEST PUSH2 0xE6B JUMP JUMPDEST PUSH1 0x40 MLOAD PUSH2 0x352 SWAP2 SWAP1 PUSH2 0x24FE JUMP JUMPDEST PUSH1 0x40 MLOAD DUP1 SWAP2 SUB SWAP1 RETURN JUMPDEST PUSH2 0x375 PUSH1 0x4 DUP1 CALLDATASIZE SUB DUP2 ADD SWAP1 PUSH2 0x370 SWAP2 SWAP1 PUSH2 0x2599 JUMP JUMPDEST PUSH2 0xEB4 JUMP JUMPDEST PUSH1 0x40 MLOAD PUSH2 0x382 SWAP2 SWAP1 PUSH2 0x2384 JUMP JUMPDEST PUSH1 0x40 MLOAD DUP1 SWAP2 SUB SWAP1 RETURN JUMPDEST PUSH2 0x393 PUSH2 0xF5E JUMP JUMPDEST PUSH1 0x40 MLOAD PUSH2 0x3A0 SWAP2 SWAP1 PUSH2 0x24FE JUMP JUMPDEST PUSH1 0x40 MLOAD DUP1 SWAP2 SUB SWAP1 RETURN JUMPDEST PUSH2 0x3B1 PUSH2 0xF6B JUMP JUMPDEST PUSH1 0x40 MLOAD PUSH2 0x3C3 SWAP7 SWAP6 SWAP5 SWAP4 SWAP3 SWAP2 SWAP1 PUSH2 0x25FD JUMP JUMPDEST PUSH1 0x40 MLOAD DUP1 SWAP2 SUB SWAP1 RETURN JUMPDEST PUSH2 0x3E6 PUSH1 0x4 DUP1 CALLDATASIZE SUB DUP2 ADD SWAP1 PUSH2 0x3E1 SWAP2 SWAP1 PUSH2 0x2519 JUMP JUMPDEST PUSH2 0x1061 JUMP JUMPDEST PUSH1 0x40 MLOAD PUSH2 0x3F3 SWAP2 SWAP1 PUSH2 0x24FE JUMP JUMPDEST PUSH1 0x40 MLOAD DUP1 SWAP2 SUB SWAP1 RETURN JUMPDEST PUSH2 0x416 PUSH1 0x4 DUP1 CALLDATASIZE SUB DUP2 ADD SWAP1 PUSH2 0x411 SWAP2 SWAP1 PUSH2 0x2519 JUMP JUMPDEST PUSH2 0x10AA JUMP JUMPDEST PUSH1 0x40 MLOAD PUSH2 0x423 SWAP2 SWAP1 PUSH2 0x24FE JUMP JUMPDEST PUSH1 0x40 MLOAD DUP1 SWAP2 SUB SWAP1 RETURN JUMPDEST PUSH2 0x434 PUSH2 0x10F3 JUMP JUMPDEST PUSH1 0x40 MLOAD PUSH2 0x441 SWAP2 SWAP1 PUSH2 0x24FE JUMP JUMPDEST PUSH1 0x40 MLOAD DUP1 SWAP2 SUB SWAP1 RETURN JUMPDEST PUSH2 0x452 PUSH2 0x1100 JUMP JUMPDEST PUSH1 0x40 MLOAD PUSH2 0x45F SWAP2 SWAP1 PUSH2 0x242F JUMP JUMPDEST PUSH1 0x40 MLOAD DUP1 SWAP2 SUB SWAP1 RETURN JUMPDEST PUSH2 0x482 PUSH1 0x4 DUP1 CALLDATASIZE SUB DUP2 ADD SWAP1 PUSH2 0x47D SWAP2 SWAP1 PUSH2 0x2519 JUMP JUMPDEST PUSH2 0x1195 JUMP JUMPDEST PUSH1 0x40 MLOAD PUSH2 0x48F SWAP2 SWAP1 PUSH2 0x2384 JUMP JUMPDEST PUSH1 0x40 MLOAD DUP1 SWAP2 SUB SWAP1 RETURN JUMPDEST PUSH2 0x4B2 PUSH1 0x4 DUP1 CALLDATASIZE SUB DUP2 ADD SWAP1 PUSH2 0x4AD SWAP2 SWAP1 PUSH2 0x2599 JUMP JUMPDEST PUSH2 0x131F JUMP JUMPDEST PUSH1 0x40 MLOAD PUSH2 0x4BF SWAP2 SWAP1 PUSH2 0x2384 JUMP JUMPDEST PUSH1 0x40 MLOAD DUP1 SWAP2 SUB SWAP1 RETURN JUMPDEST PUSH2 0x4E2 PUSH1 0x4 DUP1 CALLDATASIZE SUB DUP2 ADD SWAP1 PUSH2 0x4DD SWAP2 SWAP1 PUSH2 0x24AF JUMP JUMPDEST PUSH2 0x1468 JUMP JUMPDEST PUSH1 0x40 MLOAD PUSH2 0x4EF SWAP2 SWAP1 PUSH2 0x2384 JUMP JUMPDEST PUSH1 0x40 MLOAD DUP1 SWAP2 SUB SWAP1 RETURN JUMPDEST PUSH2 0x500 PUSH2 0x14A4 JUMP JUMPDEST PUSH1 0x40 MLOAD PUSH2 0x50D SWAP2 SWAP1 PUSH2 0x24FE JUMP JUMPDEST PUSH1 0x40 MLOAD DUP1 SWAP2 SUB SWAP1 RETURN JUMPDEST PUSH2 0x530 PUSH1 0x4 DUP1 CALLDATASIZE SUB DUP2 ADD SWAP1 PUSH2 0x52B SWAP2 SWAP1 PUSH2 0x2519 JUMP JUMPDEST PUSH2 0x14B1 JUMP JUMPDEST PUSH1 0x40 MLOAD PUSH2 0x53D SWAP2 SWAP1 PUSH2 0x2384 JUMP JUMPDEST PUSH1 0x40 MLOAD DUP1 SWAP2 SUB SWAP1 RETURN JUMPDEST PUSH2 0x560 PUSH1 0x4 DUP1 CALLDATASIZE SUB DUP2 ADD SWAP1 PUSH2 0x55B SWAP2 SWAP1 PUSH2 0x265E JUMP JUMPDEST PUSH2 0x163B JUMP JUMPDEST PUSH1 0x40 MLOAD PUSH2 0x56D SWAP2 SWAP1 PUSH2 0x24FE JUMP JUMPDEST PUSH1 0x40 MLOAD DUP1 SWAP2 SUB SWAP1 RETURN JUMPDEST PUSH2 0x590 PUSH1 0x4 DUP1 CALLDATASIZE SUB DUP2 ADD SWAP1 PUSH2 0x58B SWAP2 SWAP1 PUSH2 0x27D3 JUMP JUMPDEST PUSH2 0x16C2 JUMP JUMPDEST PUSH1 0x40 MLOAD PUSH2 0x59D SWAP2 SWAP1 PUSH2 0x2384 JUMP JUMPDEST PUSH1 0x40 MLOAD DUP1 SWAP2 SUB SWAP1 RETURN JUMPDEST PUSH2 0x5C0 PUSH1 0x4 DUP1 CALLDATASIZE SUB DUP2 ADD SWAP1 PUSH2 0x5BB SWAP2 SWAP1 PUSH2 0x2856 JUMP JUMPDEST PUSH2 0x176B JUMP JUMPDEST PUSH1 0x40 MLOAD PUSH2 0x5CD SWAP2 SWAP1 PUSH2 0x2384 JUMP JUMPDEST PUSH1 0x40 MLOAD DUP1 SWAP2 SUB SWAP1 RETURN JUMPDEST PUSH1 0x0 PUSH1 0x1 ISZERO ISZERO PUSH1 0x0 DUP1 CALLER PUSH20 0xFFFFFFFFFFFFFFFFFFFFFFFFFFFFFFFFFFFFFFFF AND PUSH20 0xFFFFFFFFFFFFFFFFFFFFFFFFFFFFFFFFFFFFFFFF AND DUP2 MSTORE PUSH1 0x20 ADD SWAP1 DUP2 MSTORE PUSH1 0x20 ADD PUSH1 0x0 KECCAK256 PUSH1 0x0 SWAP1 SLOAD SWAP1 PUSH2 0x100 EXP SWAP1 DIV PUSH1 0xFF AND ISZERO ISZERO EQ PUSH2 0x66A JUMPI PUSH1 0x40 MLOAD PUSH32 0x8C379A000000000000000000000000000000000000000000000000000000000 DUP2 MSTORE PUSH1 0x4 ADD PUSH2 0x661 SWAP1 PUSH2 0x28EB JUMP JUMPDEST PUSH1 0x40 MLOAD DUP1 SWAP2 SUB SWAP1 REVERT JUMPDEST PUSH1 0x0 PUSH1 0x1 PUSH1 0x0 ADD SLOAD SWAP1 POP PUSH1 0x0 PUSH1 0x1 DUP1 ADD SLOAD SWAP1 POP PUSH1 0x0 PUSH1 0x1 PUSH1 0x2 ADD SLOAD SWAP1 POP PUSH1 0x0 PUSH1 0x1 PUSH1 0x3 ADD SLOAD SWAP1 POP DUP4 DUP8 LT ISZERO DUP1 ISZERO PUSH2 0x6A1 JUMPI POP DUP2 DUP8 GT ISZERO JUMPDEST DUP1 ISZERO PUSH2 0x6AD JUMPI POP DUP3 DUP7 LT ISZERO JUMPDEST DUP1 ISZERO PUSH2 0x6B9 JUMPI POP DUP1 DUP7 GT ISZERO JUMPDEST PUSH2 0x6C2 JUMPI PUSH1 0x0 DUP1 REVERT JUMPDEST DUP7 PUSH1 0x1 PUSH1 0x4 ADD DUP2 SWAP1 SSTORE POP DUP6 PUSH1 0x1 PUSH1 0x5 ADD DUP2 SWAP1 SSTORE POP PUSH32 0xF710D5C0FED44ACA6B7E44715976F68B87187F4A4D505F8C14731A5C3906E9B9 DUP8 DUP8 PUSH1 0x40 MLOAD PUSH2 0x707 SWAP3 SWAP2 SWAP1 PUSH2 0x290B JUMP JUMPDEST PUSH1 0x40 MLOAD DUP1 SWAP2 SUB SWAP1 LOG1 PUSH1 0x1 SWAP5 POP POP POP POP POP SWAP3 SWAP2 POP POP JUMP JUMPDEST PUSH1 0x60 PUSH1 0x7 PUSH1 0x0 ADD DUP1 SLOAD PUSH2 0x72F SWAP1 PUSH2 0x2963 JUMP JUMPDEST DUP1 PUSH1 0x1F ADD PUSH1 0x20 DUP1 SWAP2 DIV MUL PUSH1 0x20 ADD PUSH1 0x40 MLOAD SWAP1 DUP2 ADD PUSH1 0x40 MSTORE DUP1 SWAP3 SWAP2 SWAP1 DUP2 DUP2 MSTORE PUSH1 0x20 ADD DUP3 DUP1 SLOAD PUSH2 0x75B SWAP1 PUSH2 0x2963 JUMP JUMPDEST DUP1 ISZERO PUSH2 0x7A8 JUMPI DUP1 PUSH1 0x1F LT PUSH2 0x77D JUMPI PUSH2 0x100 DUP1 DUP4 SLOAD DIV MUL DUP4 MSTORE SWAP2 PUSH1 0x20 ADD SWAP2 PUSH2 0x7A8 JUMP JUMPDEST DUP3 ADD SWAP2 SWAP1 PUSH1 0x0 MSTORE PUSH1 0x20 PUSH1 0x0 KECCAK256 SWAP1 JUMPDEST DUP2 SLOAD DUP2 MSTORE SWAP1 PUSH1 0x1 ADD SWAP1 PUSH1 0x20 ADD DUP1 DUP4 GT PUSH2 0x78B JUMPI DUP3 SWAP1 SUB PUSH1 0x1F AND DUP3 ADD SWAP2 JUMPDEST POP POP POP POP POP SWAP1 POP SWAP1 JUMP JUMPDEST PUSH1 0x0 DUP1 CALLER SWAP1 POP PUSH1 0x0 PUSH20 0xFFFFFFFFFFFFFFFFFFFFFFFFFFFFFFFFFFFFFFFF AND DUP2 PUSH20 0xFFFFFFFFFFFFFFFFFFFFFFFFFFFFFFFFFFFFFFFF AND EQ ISZERO DUP1 ISZERO PUSH2 0x822 JUMPI POP PUSH1 0x0 PUSH20 0xFFFFFFFFFFFFFFFFFFFFFFFFFFFFFFFFFFFFFFFF AND DUP5 PUSH20 0xFFFFFFFFFFFFFFFFFFFFFFFFFFFFFFFFFFFFFFFF AND EQ ISZERO JUMPDEST PUSH2 0x82B JUMPI PUSH1 0x0 DUP1 REVERT JUMPDEST DUP3 PUSH1 0x14 PUSH1 0x0 DUP4 PUSH20 0xFFFFFFFFFFFFFFFFFFFFFFFFFFFFFFFFFFFFFFFF AND PUSH20 0xFFFFFFFFFFFFFFFFFFFFFFFFFFFFFFFFFFFFFFFF AND DUP2 MSTORE PUSH1 0x20 ADD SWAP1 DUP2 MSTORE PUSH1 0x20 ADD PUSH1 0x0 KECCAK256 PUSH1 0x0 DUP7 PUSH20 0xFFFFFFFFFFFFFFFFFFFFFFFFFFFFFFFFFFFFFFFF AND PUSH20 0xFFFFFFFFFFFFFFFFFFFFFFFFFFFFFFFFFFFFFFFF AND DUP2 MSTORE PUSH1 0x20 ADD SWAP1 DUP2 MSTORE PUSH1 0x20 ADD PUSH1 0x0 KECCAK256 DUP2 SWAP1 SSTORE POP DUP4 PUSH20 0xFFFFFFFFFFFFFFFFFFFFFFFFFFFFFFFFFFFFFFFF AND DUP2 PUSH20 0xFFFFFFFFFFFFFFFFFFFFFFFFFFFFFFFFFFFFFFFF AND PUSH32 0x8C5BE1E5EBEC7D5BD14F71427D1E84F3DD0314C0F7B2291E5B200AC8C7C3B925 DUP6 PUSH1 0x40 MLOAD PUSH2 0x909 SWAP2 SWAP1 PUSH2 0x24FE JUMP JUMPDEST PUSH1 0x40 MLOAD DUP1 SWAP2 SUB SWAP1 LOG3 PUSH1 0x1 SWAP2 POP POP SWAP3 SWAP2 POP POP JUMP JUMPDEST PUSH1 0x0 PUSH1 0x7 DUP1 ADD SLOAD SWAP1 POP SWAP1 JUMP JUMPDEST PUSH1 0x0 PUSH1 0x7 PUSH1 0x4 ADD SLOAD SWAP1 POP SWAP1 JUMP JUMPDEST PUSH1 0x0 PUSH1 0x1 ISZERO ISZERO PUSH1 0x0 DUP1 CALLER PUSH20 0xFFFFFFFFFFFFFFFFFFFFFFFFFFFFFFFFFFFFFFFF AND PUSH20 0xFFFFFFFFFFFFFFFFFFFFFFFFFFFFFFFFFFFFFFFF AND DUP2 MSTORE PUSH1 0x20 ADD SWAP1 DUP2 MSTORE PUSH1 0x20 ADD PUSH1 0x0 KECCAK256 PUSH1 0x0 SWAP1 SLOAD SWAP1 PUSH2 0x100 EXP SWAP1 DIV PUSH1 0xFF AND ISZERO ISZERO EQ PUSH2 0x9C9 JUMPI PUSH1 0x40 MLOAD PUSH32 0x8C379A000000000000000000000000000000000000000000000000000000000 DUP2 MSTORE PUSH1 0x4 ADD PUSH2 0x9C0 SWAP1 PUSH2 0x28EB JUMP JUMPDEST PUSH1 0x40 MLOAD DUP1 SWAP2 SUB SWAP1 REVERT JUMPDEST PUSH1 0x0 PUSH20 0xFFFFFFFFFFFFFFFFFFFFFFFFFFFFFFFFFFFFFFFF AND DUP3 PUSH20 0xFFFFFFFFFFFFFFFFFFFFFFFFFFFFFFFFFFFFFFFF AND SUB PUSH2 0xA02 JUMPI PUSH1 0x0 DUP1 REVERT JUMPDEST DUP2 PUSH1 0x7 PUSH1 0x9 ADD PUSH1 0x0 PUSH2 0x100 EXP DUP2 SLOAD DUP2 PUSH20 0xFFFFFFFFFFFFFFFFFFFFFFFFFFFFFFFFFFFFFFFF MUL NOT AND SWAP1 DUP4 PUSH20 0xFFFFFFFFFFFFFFFFFFFFFFFFFFFFFFFFFFFFFFFF AND MUL OR SWAP1 SSTORE POP DUP2 PUSH20 0xFFFFFFFFFFFFFFFFFFFFFFFFFFFFFFFFFFFFFFFF AND PUSH32 0xD456720FD185D4060F5CEA4D82775D2AF95048C1E10F227EC35BAE950A4BE2A8 PUSH1 0x40 MLOAD PUSH1 0x40 MLOAD DUP1 SWAP2 SUB SWAP1 LOG2 PUSH1 0x1 SWAP1 POP SWAP2 SWAP1 POP JUMP JUMPDEST PUSH1 0x0 DUP1 PUSH1 0x14 PUSH1 0x0 DUP7 PUSH20 0xFFFFFFFFFFFFFFFFFFFFFFFFFFFFFFFFFFFFFFFF AND PUSH20 0xFFFFFFFFFFFFFFFFFFFFFFFFFFFFFFFFFFFFFFFF AND DUP2 MSTORE PUSH1 0x20 ADD SWAP1 DUP2 MSTORE PUSH1 0x20 ADD PUSH1 0x0 KECCAK256 PUSH1 0x0 CALLER PUSH20 0xFFFFFFFFFFFFFFFFFFFFFFFFFFFFFFFFFFFFFFFF AND PUSH20 0xFFFFFFFFFFFFFFFFFFFFFFFFFFFFFFFFFFFFFFFF AND DUP2 MSTORE PUSH1 0x20 ADD SWAP1 DUP2 MSTORE PUSH1 0x20 ADD PUSH1 0x0 KECCAK256 SLOAD SWAP1 POP PUSH32 0xFFFFFFFFFFFFFFFFFFFFFFFFFFFFFFFFFFFFFFFFFFFFFFFFFFFFFFFFFFFFFFFF DUP2 EQ ISZERO DUP1 ISZERO PUSH2 0xB44 JUMPI POP DUP3 DUP2 LT ISZERO JUMPDEST PUSH2 0xB4D JUMPI PUSH1 0x0 DUP1 REVERT JUMPDEST DUP3 PUSH1 0x14 PUSH1 0x0 DUP8 PUSH20 0xFFFFFFFFFFFFFFFFFFFFFFFFFFFFFFFFFFFFFFFF AND PUSH20 0xFFFFFFFFFFFFFFFFFFFFFFFFFFFFFFFFFFFFFFFF AND DUP2 MSTORE PUSH1 0x20 ADD SWAP1 DUP2 MSTORE PUSH1 0x20 ADD PUSH1 0x0 KECCAK256 PUSH1 0x0 CALLER PUSH20 0xFFFFFFFFFFFFFFFFFFFFFFFFFFFFFFFFFFFFFFFF AND PUSH20 0xFFFFFFFFFFFFFFFFFFFFFFFFFFFFFFFFFFFFFFFF AND DUP2 MSTORE PUSH1 0x20 ADD SWAP1 DUP2 MSTORE PUSH1 0x20 ADD PUSH1 0x0 KECCAK256 PUSH1 0x0 DUP3 DUP3 SLOAD PUSH2 0xBD9 SWAP2 SWAP1 PUSH2 0x29C3 JUMP JUMPDEST SWAP3 POP POP DUP2 SWAP1 SSTORE POP PUSH1 0x0 PUSH1 0x1 PUSH1 0x4 ADD SLOAD SWAP1 POP PUSH1 0x0 PUSH1 0x1 PUSH1 0x5 ADD SLOAD SWAP1 POP PUSH1 0x0 DUP1 PUSH2 0xC04 DUP10 DUP10 DUP10 DUP8 DUP8 PUSH2 0x1916 JUMP JUMPDEST SWAP2 POP SWAP2 POP DUP2 SWAP6 POP POP POP POP POP POP SWAP4 SWAP3 POP POP POP JUMP JUMPDEST PUSH1 0x0 DUP1 PUSH1 0x7 PUSH1 0x9 ADD PUSH1 0x0 SWAP1 SLOAD SWAP1 PUSH2 0x100 EXP SWAP1 DIV PUSH20 0xFFFFFFFFFFFFFFFFFFFFFFFFFFFFFFFFFFFFFFFF AND SWAP1 POP PUSH1 0x0 CALLER SWAP1 POP PUSH1 0x0 PUSH1 0x1 PUSH1 0x4 ADD SLOAD SWAP1 POP PUSH1 0x0 PUSH1 0x1 PUSH1 0x5 ADD SLOAD SWAP1 POP PUSH1 0x12 PUSH1 0x0 DUP5 PUSH20 0xFFFFFFFFFFFFFFFFFFFFFFFFFFFFFFFFFFFFFFFF AND PUSH20 0xFFFFFFFFFFFFFFFFFFFFFFFFFFFFFFFFFFFFFFFF AND DUP2 MSTORE PUSH1 0x20 ADD SWAP1 DUP2 MSTORE PUSH1 0x20 ADD PUSH1 0x0 KECCAK256 SLOAD DUP7 GT ISZERO PUSH2 0xCA7 JUMPI PUSH1 0x0 DUP1 REVERT JUMPDEST PUSH1 0x0 DUP1 PUSH2 0xCB7 DUP7 DUP7 DUP11 DUP8 DUP8 PUSH2 0x1916 JUMP JUMPDEST SWAP2 POP SWAP2 POP DUP8 PUSH1 0x12 PUSH1 0x0 DUP8 PUSH20 0xFFFFFFFFFFFFFFFFFFFFFFFFFFFFFFFFFFFFFFFF AND PUSH20 0xFFFFFFFFFFFFFFFFFFFFFFFFFFFFFFFFFFFFFFFF AND DUP2 MSTORE PUSH1 0x20 ADD SWAP1 DUP2 MSTORE PUSH1 0x20 ADD PUSH1 0x0 KECCAK256 PUSH1 0x0 DUP3 DUP3 SLOAD PUSH2 0xD0A SWAP2 SWAP1 PUSH2 0x29C3 JUMP JUMPDEST SWAP3 POP POP DUP2 SWAP1 SSTORE POP DUP8 PUSH1 0x13 PUSH1 0x0 DUP8 PUSH20 0xFFFFFFFFFFFFFFFFFFFFFFFFFFFFFFFFFFFFFFFF AND PUSH20 0xFFFFFFFFFFFFFFFFFFFFFFFFFFFFFFFFFFFFFFFF AND DUP2 MSTORE PUSH1 0x20 ADD SWAP1 DUP2 MSTORE PUSH1 0x20 ADD PUSH1 0x0 KECCAK256 PUSH1 0x0 DUP3 DUP3 SLOAD PUSH2 0xD60 SWAP2 SWAP1 PUSH2 0x29C3 JUMP JUMPDEST SWAP3 POP POP DUP2 SWAP1 SSTORE POP DUP8 PUSH1 0x7 PUSH1 0x5 ADD PUSH1 0x0 DUP3 DUP3 SLOAD PUSH2 0xD7C SWAP2 SWAP1 PUSH2 0x29C3 JUMP JUMPDEST SWAP3 POP POP DUP2 SWAP1 SSTORE POP DUP8 PUSH1 0x7 DUP1 ADD PUSH1 0x0 DUP3 DUP3 SLOAD PUSH2 0xD97 SWAP2 SWAP1 PUSH2 0x29C3 JUMP JUMPDEST SWAP3 POP POP DUP2 SWAP1 SSTORE POP DUP2 SWAP7 POP POP POP POP POP POP POP SWAP2 SWAP1 POP JUMP JUMPDEST PUSH1 0x0 PUSH1 0x7 PUSH1 0x2 ADD PUSH1 0x0 SWAP1 SLOAD SWAP1 PUSH2 0x100 EXP SWAP1 DIV PUSH1 0xFF AND SWAP1 POP SWAP1 JUMP JUMPDEST PUSH1 0x0 PUSH1 0x1 ISZERO ISZERO PUSH1 0x0 DUP1 CALLER PUSH20 0xFFFFFFFFFFFFFFFFFFFFFFFFFFFFFFFFFFFFFFFF AND PUSH20 0xFFFFFFFFFFFFFFFFFFFFFFFFFFFFFFFFFFFFFFFF AND DUP2 MSTORE PUSH1 0x20 ADD SWAP1 DUP2 MSTORE PUSH1 0x20 ADD PUSH1 0x0 KECCAK256 PUSH1 0x0 SWAP1 SLOAD SWAP1 PUSH2 0x100 EXP SWAP1 DIV PUSH1 0xFF AND ISZERO ISZERO EQ PUSH2 0xE5A JUMPI PUSH1 0x40 MLOAD PUSH32 0x8C379A000000000000000000000000000000000000000000000000000000000 DUP2 MSTORE PUSH1 0x4 ADD PUSH2 0xE51 SWAP1 PUSH2 0x28EB JUMP JUMPDEST PUSH1 0x40 MLOAD DUP1 SWAP2 SUB SWAP1 REVERT JUMPDEST PUSH2 0xE64 DUP4 DUP4 PUSH2 0x1D43 JUMP JUMPDEST POP SWAP3 SWAP2 POP POP JUMP JUMPDEST PUSH1 0x0 PUSH1 0x12 PUSH1 0x0 DUP4 PUSH20 0xFFFFFFFFFFFFFFFFFFFFFFFFFFFFFFFFFFFFFFFF AND PUSH20 0xFFFFFFFFFFFFFFFFFFFFFFFFFFFFFFFFFFFFFFFF AND DUP2 MSTORE PUSH1 0x20 ADD SWAP1 DUP2 MSTORE PUSH1 0x20 ADD PUSH1 0x0 KECCAK256 SLOAD SWAP1 POP SWAP2 SWAP1 POP JUMP JUMPDEST PUSH1 0x0 PUSH1 0x1 ISZERO ISZERO PUSH1 0x0 DUP1 CALLER PUSH20 0xFFFFFFFFFFFFFFFFFFFFFFFFFFFFFFFFFFFFFFFF AND PUSH20 0xFFFFFFFFFFFFFFFFFFFFFFFFFFFFFFFFFFFFFFFF AND DUP2 MSTORE PUSH1 0x20 ADD SWAP1 DUP2 MSTORE PUSH1 0x20 ADD PUSH1 0x0 KECCAK256 PUSH1 0x0 SWAP1 SLOAD SWAP1 PUSH2 0x100 EXP SWAP1 DIV PUSH1 0xFF AND ISZERO ISZERO EQ PUSH2 0xF48 JUMPI PUSH1 0x40 MLOAD PUSH32 0x8C379A000000000000000000000000000000000000000000000000000000000 DUP2 MSTORE PUSH1 0x4 ADD PUSH2 0xF3F SWAP1 PUSH2 0x28EB JUMP JUMPDEST PUSH1 0x40 MLOAD DUP1 SWAP2 SUB SWAP1 REVERT JUMPDEST PUSH1 0x0 CALLER SWAP1 POP PUSH2 0xF57 DUP2 DUP5 PUSH2 0x1EA0 JUMP JUMPDEST POP POP SWAP2 SWAP1 POP JUMP JUMPDEST PUSH1 0x0 PUSH1 0x7 PUSH1 0x3 ADD SLOAD SWAP1 POP SWAP1 JUMP JUMPDEST PUSH1 0x0 DUP1 PUSH1 0x0 DUP1 PUSH1 0x0 DUP1 PUSH1 0x1 ISZERO ISZERO PUSH1 0x0 DUP1 CALLER PUSH20 0xFFFFFFFFFFFFFFFFFFFFFFFFFFFFFFFFFFFFFFFF AND PUSH20 0xFFFFFFFFFFFFFFFFFFFFFFFFFFFFFFFFFFFFFFFF AND DUP2 MSTORE PUSH1 0x20 ADD SWAP1 DUP2 MSTORE PUSH1 0x20 ADD PUSH1 0x0 KECCAK256 PUSH1 0x0 SWAP1 SLOAD SWAP1 PUSH2 0x100 EXP SWAP1 DIV PUSH1 0xFF AND ISZERO ISZERO EQ PUSH2 0x1006 JUMPI PUSH1 0x40 MLOAD PUSH32 0x8C379A000000000000000000000000000000000000000000000000000000000 DUP2 MSTORE PUSH1 0x4 ADD PUSH2 0xFFD SWAP1 PUSH2 0x28EB JUMP JUMPDEST PUSH1 0x40 MLOAD DUP1 SWAP2 SUB SWAP1 REVERT JUMPDEST PUSH1 0x0 PUSH1 0x1 PUSH1 0x4 ADD SLOAD SWAP1 POP PUSH1 0x0 PUSH1 0x1 PUSH1 0x5 ADD SLOAD SWAP1 POP PUSH1 0x0 PUSH1 0x1 PUSH1 0x0 ADD SLOAD SWAP1 POP PUSH1 0x0 PUSH1 0x1 DUP1 ADD SLOAD SWAP1 POP PUSH1 0x0 PUSH1 0x1 PUSH1 0x2 ADD SLOAD SWAP1 POP PUSH1 0x0 PUSH1 0x1 PUSH1 0x3 ADD SLOAD SWAP1 POP DUP6 DUP6 DUP6 DUP6 DUP6 DUP6 SWAP12 POP SWAP12 POP SWAP12 POP SWAP12 POP SWAP12 POP SWAP12 POP POP POP POP POP POP POP SWAP1 SWAP2 SWAP3 SWAP4 SWAP5 SWAP6 JUMP JUMPDEST PUSH1 0x0 PUSH1 0x11 PUSH1 0x0 DUP4 PUSH20 0xFFFFFFFFFFFFFFFFFFFFFFFFFFFFFFFFFFFFFFFF AND PUSH20 0xFFFFFFFFFFFFFFFFFFFFFFFFFFFFFFFFFFFFFFFF AND DUP2 MSTORE PUSH1 0x20 ADD SWAP1 DUP2 MSTORE PUSH1 0x20 ADD PUSH1 0x0 KECCAK256 SLOAD SWAP1 POP SWAP2 SWAP1 POP JUMP JUMPDEST PUSH1 0x0 PUSH1 0x13 PUSH1 0x0 DUP4 PUSH20 0xFFFFFFFFFFFFFFFFFFFFFFFFFFFFFFFFFFFFFFFF AND PUSH20 0xFFFFFFFFFFFFFFFFFFFFFFFFFFFFFFFFFFFFFFFF AND DUP2 MSTORE PUSH1 0x20 ADD SWAP1 DUP2 MSTORE PUSH1 0x20 ADD PUSH1 0x0 KECCAK256 SLOAD SWAP1 POP SWAP2 SWAP1 POP JUMP JUMPDEST PUSH1 0x0 PUSH1 0x7 PUSH1 0x5 ADD SLOAD SWAP1 POP SWAP1 JUMP JUMPDEST PUSH1 0x60 PUSH1 0x7 PUSH1 0x1 ADD DUP1 SLOAD PUSH2 0x1112 SWAP1 PUSH2 0x2963 JUMP JUMPDEST DUP1 PUSH1 0x1F ADD PUSH1 0x20 DUP1 SWAP2 DIV MUL PUSH1 0x20 ADD PUSH1 0x40 MLOAD SWAP1 DUP2 ADD PUSH1 0x40 MSTORE DUP1 SWAP3 SWAP2 SWAP1 DUP2 DUP2 MSTORE PUSH1 0x20 ADD DUP3 DUP1 SLOAD PUSH2 0x113E SWAP1 PUSH2 0x2963 JUMP JUMPDEST DUP1 ISZERO PUSH2 0x118B JUMPI DUP1 PUSH1 0x1F LT PUSH2 0x1160 JUMPI PUSH2 0x100 DUP1 DUP4 SLOAD DIV MUL DUP4 MSTORE SWAP2 PUSH1 0x20 ADD SWAP2 PUSH2 0x118B JUMP JUMPDEST DUP3 ADD SWAP2 SWAP1 PUSH1 0x0 MSTORE PUSH1 0x20 PUSH1 0x0 KECCAK256 SWAP1 JUMPDEST DUP2 SLOAD DUP2 MSTORE SWAP1 PUSH1 0x1 ADD SWAP1 PUSH1 0x20 ADD DUP1 DUP4 GT PUSH2 0x116E JUMPI DUP3 SWAP1 SUB PUSH1 0x1F AND DUP3 ADD SWAP2 JUMPDEST POP POP POP POP POP SWAP1 POP SWAP1 JUMP JUMPDEST PUSH1 0x0 PUSH1 0x1 ISZERO ISZERO PUSH1 0x0 DUP1 CALLER PUSH20 0xFFFFFFFFFFFFFFFFFFFFFFFFFFFFFFFFFFFFFFFF AND PUSH20 0xFFFFFFFFFFFFFFFFFFFFFFFFFFFFFFFFFFFFFFFF AND DUP2 MSTORE PUSH1 0x20 ADD SWAP1 DUP2 MSTORE PUSH1 0x20 ADD PUSH1 0x0 KECCAK256 PUSH1 0x0 SWAP1 SLOAD SWAP1 PUSH2 0x100 EXP SWAP1 DIV PUSH1 0xFF AND ISZERO ISZERO EQ PUSH2 0x1229 JUMPI PUSH1 0x40 MLOAD PUSH32 0x8C379A000000000000000000000000000000000000000000000000000000000 DUP2 MSTORE PUSH1 0x4 ADD PUSH2 0x1220 SWAP1 PUSH2 0x28EB JUMP JUMPDEST PUSH1 0x40 MLOAD DUP1 SWAP2 SUB SWAP1 REVERT JUMPDEST PUSH1 0x0 PUSH20 0xFFFFFFFFFFFFFFFFFFFFFFFFFFFFFFFFFFFFFFFF AND DUP3 PUSH20 0xFFFFFFFFFFFFFFFFFFFFFFFFFFFFFFFFFFFFFFFF AND EQ ISZERO DUP1 ISZERO PUSH2 0x12B6 JUMPI POP PUSH1 0x1 ISZERO ISZERO PUSH1 0x0 DUP1 DUP5 PUSH20 0xFFFFFFFFFFFFFFFFFFFFFFFFFFFFFFFFFFFFFFFF AND PUSH20 0xFFFFFFFFFFFFFFFFFFFFFFFFFFFFFFFFFFFFFFFF AND DUP2 MSTORE PUSH1 0x20 ADD SWAP1 DUP2 MSTORE PUSH1 0x20 ADD PUSH1 0x0 KECCAK256 PUSH1 0x0 SWAP1 SLOAD SWAP1 PUSH2 0x100 EXP SWAP1 DIV PUSH1 0xFF AND ISZERO ISZERO EQ ISZERO JUMPDEST PUSH2 0x12BF JUMPI PUSH1 0x0 DUP1 REVERT JUMPDEST PUSH1 0x1 PUSH1 0x0 DUP1 DUP5 PUSH20 0xFFFFFFFFFFFFFFFFFFFFFFFFFFFFFFFFFFFFFFFF AND PUSH20 0xFFFFFFFFFFFFFFFFFFFFFFFFFFFFFFFFFFFFFFFF AND DUP2 MSTORE PUSH1 0x20 ADD SWAP1 DUP2 MSTORE PUSH1 0x20 ADD PUSH1 0x0 KECCAK256 PUSH1 0x0 PUSH2 0x100 EXP DUP2 SLOAD DUP2 PUSH1 0xFF MUL NOT AND SWAP1 DUP4 ISZERO ISZERO MUL OR SWAP1 SSTORE POP PUSH1 0x1 SWAP1 POP SWAP2 SWAP1 POP JUMP JUMPDEST PUSH1 0x0 DUP1 CALLER SWAP1 POP PUSH1 0x0 PUSH1 0x7 PUSH1 0x9 ADD PUSH1 0x0 SWAP1 SLOAD SWAP1 PUSH2 0x100 EXP SWAP1 DIV PUSH20 0xFFFFFFFFFFFFFFFFFFFFFFFFFFFFFFFFFFFFFFFF AND SWAP1 POP PUSH1 0x0 PUSH1 0x1 PUSH1 0x4 ADD SLOAD SWAP1 POP PUSH1 0x0 PUSH1 0x1 PUSH1 0x5 ADD SLOAD SWAP1 POP PUSH1 0x0 DUP1 PUSH2 0x1373 DUP7 DUP7 DUP11 DUP8 DUP8 PUSH2 0x1916 JUMP JUMPDEST SWAP2 POP SWAP2 POP DUP1 PUSH1 0x12 PUSH1 0x0 DUP9 PUSH20 0xFFFFFFFFFFFFFFFFFFFFFFFFFFFFFFFFFFFFFFFF AND PUSH20 0xFFFFFFFFFFFFFFFFFFFFFFFFFFFFFFFFFFFFFFFF AND DUP2 MSTORE PUSH1 0x20 ADD SWAP1 DUP2 MSTORE PUSH1 0x20 ADD PUSH1 0x0 KECCAK256 PUSH1 0x0 DUP3 DUP3 SLOAD PUSH2 0x13C6 SWAP2 SWAP1 PUSH2 0x29F7 JUMP JUMPDEST SWAP3 POP POP DUP2 SWAP1 SSTORE POP DUP1 PUSH1 0x13 PUSH1 0x0 DUP9 PUSH20 0xFFFFFFFFFFFFFFFFFFFFFFFFFFFFFFFFFFFFFFFF AND PUSH20 0xFFFFFFFFFFFFFFFFFFFFFFFFFFFFFFFFFFFFFFFF AND DUP2 MSTORE PUSH1 0x20 ADD SWAP1 DUP2 MSTORE PUSH1 0x20 ADD PUSH1 0x0 KECCAK256 PUSH1 0x0 DUP3 DUP3 SLOAD PUSH2 0x141C SWAP2 SWAP1 PUSH2 0x29F7 JUMP JUMPDEST SWAP3 POP POP DUP2 SWAP1 SSTORE POP DUP1 PUSH1 0x7 PUSH1 0x5 ADD PUSH1 0x0 DUP3 DUP3 SLOAD PUSH2 0x1438 SWAP2 SWAP1 PUSH2 0x29F7 JUMP JUMPDEST SWAP3 POP POP DUP2 SWAP1 SSTORE POP DUP1 PUSH1 0x7 DUP1 ADD PUSH1 0x0 DUP3 DUP3 SLOAD PUSH2 0x1453 SWAP2 SWAP1 PUSH2 0x29F7 JUMP JUMPDEST SWAP3 POP POP DUP2 SWAP1 SSTORE POP DUP2 SWAP7 POP POP POP POP POP POP POP SWAP2 SWAP1 POP JUMP JUMPDEST PUSH1 0x0 DUP1 CALLER SWAP1 POP PUSH1 0x0 PUSH1 0x1 PUSH1 0x4 ADD SLOAD SWAP1 POP PUSH1 0x0 PUSH1 0x1 PUSH1 0x5 ADD SLOAD SWAP1 POP PUSH1 0x0 DUP1 PUSH2 0x1492 DUP6 DUP10 DUP10 DUP8 DUP8 PUSH2 0x1916 JUMP JUMPDEST SWAP2 POP SWAP2 POP DUP2 SWAP6 POP POP POP POP POP POP SWAP3 SWAP2 POP POP JUMP JUMPDEST PUSH1 0x0 PUSH1 0x7 PUSH1 0x8 ADD SLOAD SWAP1 POP SWAP1 JUMP JUMPDEST PUSH1 0x0 PUSH1 0x1 ISZERO ISZERO PUSH1 0x0 DUP1 CALLER PUSH20 0xFFFFFFFFFFFFFFFFFFFFFFFFFFFFFFFFFFFFFFFF AND PUSH20 0xFFFFFFFFFFFFFFFFFFFFFFFFFFFFFFFFFFFFFFFF AND DUP2 MSTORE PUSH1 0x20 ADD SWAP1 DUP2 MSTORE PUSH1 0x20 ADD PUSH1 0x0 KECCAK256 PUSH1 0x0 SWAP1 SLOAD SWAP1 PUSH2 0x100 EXP SWAP1 DIV PUSH1 0xFF AND ISZERO ISZERO EQ PUSH2 0x1545 JUMPI PUSH1 0x40 MLOAD PUSH32 0x8C379A000000000000000000000000000000000000000000000000000000000 DUP2 MSTORE PUSH1 0x4 ADD PUSH2 0x153C SWAP1 PUSH2 0x28EB JUMP JUMPDEST PUSH1 0x40 MLOAD DUP1 SWAP2 SUB SWAP1 REVERT JUMPDEST PUSH1 0x0 PUSH20 0xFFFFFFFFFFFFFFFFFFFFFFFFFFFFFFFFFFFFFFFF AND DUP3 PUSH20 0xFFFFFFFFFFFFFFFFFFFFFFFFFFFFFFFFFFFFFFFF AND EQ ISZERO DUP1 ISZERO PUSH2 0x15D2 JUMPI POP PUSH1 0x0 ISZERO ISZERO PUSH1 0x0 DUP1 DUP5 PUSH20 0xFFFFFFFFFFFFFFFFFFFFFFFFFFFFFFFFFFFFFFFF AND PUSH20 0xFFFFFFFFFFFFFFFFFFFFFFFFFFFFFFFFFFFFFFFF AND DUP2 MSTORE PUSH1 0x20 ADD SWAP1 DUP2 MSTORE PUSH1 0x20 ADD PUSH1 0x0 KECCAK256 PUSH1 0x0 SWAP1 SLOAD SWAP1 PUSH2 0x100 EXP SWAP1 DIV PUSH1 0xFF AND ISZERO ISZERO EQ ISZERO JUMPDEST PUSH2 0x15DB JUMPI PUSH1 0x0 DUP1 REVERT JUMPDEST PUSH1 0x0 DUP1 PUSH1 0x0 DUP5 PUSH20 0xFFFFFFFFFFFFFFFFFFFFFFFFFFFFFFFFFFFFFFFF AND PUSH20 0xFFFFFFFFFFFFFFFFFFFFFFFFFFFFFFFFFFFFFFFF AND DUP2 MSTORE PUSH1 0x20 ADD SWAP1 DUP2 MSTORE PUSH1 0x20 ADD PUSH1 0x0 KECCAK256 PUSH1 0x0 PUSH2 0x100 EXP DUP2 SLOAD DUP2 PUSH1 0xFF MUL NOT AND SWAP1 DUP4 ISZERO ISZERO MUL OR SWAP1 SSTORE POP PUSH1 0x1 SWAP1 POP SWAP2 SWAP1 POP JUMP JUMPDEST PUSH1 0x0 PUSH1 0x14 PUSH1 0x0 DUP5 PUSH20 0xFFFFFFFFFFFFFFFFFFFFFFFFFFFFFFFFFFFFFFFF AND PUSH20 0xFFFFFFFFFFFFFFFFFFFFFFFFFFFFFFFFFFFFFFFF AND DUP2 MSTORE PUSH1 0x20 ADD SWAP1 DUP2 MSTORE PUSH1 0x20 ADD PUSH1 0x0 KECCAK256 PUSH1 0x0 DUP4 PUSH20 0xFFFFFFFFFFFFFFFFFFFFFFFFFFFFFFFFFFFFFFFF AND PUSH20 0xFFFFFFFFFFFFFFFFFFFFFFFFFFFFFFFFFFFFFFFF AND DUP2 MSTORE PUSH1 0x20 ADD SWAP1 DUP2 MSTORE PUSH1 0x20 ADD PUSH1 0x0 KECCAK256 SLOAD SWAP1 POP SWAP3 SWAP2 POP POP JUMP JUMPDEST PUSH1 0x0 PUSH1 0x1 ISZERO ISZERO PUSH1 0x0 DUP1 CALLER PUSH20 0xFFFFFFFFFFFFFFFFFFFFFFFFFFFFFFFFFFFFFFFF AND PUSH20 0xFFFFFFFFFFFFFFFFFFFFFFFFFFFFFFFFFFFFFFFF AND DUP2 MSTORE PUSH1 0x20 ADD SWAP1 DUP2 MSTORE PUSH1 0x20 ADD PUSH1 0x0 KECCAK256 PUSH1 0x0 SWAP1 SLOAD SWAP1 PUSH2 0x100 EXP SWAP1 DIV PUSH1 0xFF AND ISZERO ISZERO EQ PUSH2 0x1756 JUMPI PUSH1 0x40 MLOAD PUSH32 0x8C379A000000000000000000000000000000000000000000000000000000000 DUP2 MSTORE PUSH1 0x4 ADD PUSH2 0x174D SWAP1 PUSH2 0x28EB JUMP JUMPDEST PUSH1 0x40 MLOAD DUP1 SWAP2 SUB SWAP1 REVERT JUMPDEST PUSH2 0x1762 DUP6 DUP6 DUP6 DUP6 PUSH2 0x1FDC JUMP JUMPDEST POP SWAP5 SWAP4 POP POP POP POP JUMP JUMPDEST PUSH1 0x0 DUP1 PUSH1 0x7 PUSH1 0x9 ADD PUSH1 0x0 SWAP1 SLOAD SWAP1 PUSH2 0x100 EXP SWAP1 DIV PUSH20 0xFFFFFFFFFFFFFFFFFFFFFFFFFFFFFFFFFFFFFFFF AND SWAP1 POP PUSH1 0x0 CALLER SWAP1 POP PUSH1 0x0 PUSH1 0x15 PUSH1 0x0 DUP4 PUSH20 0xFFFFFFFFFFFFFFFFFFFFFFFFFFFFFFFFFFFFFFFF AND PUSH20 0xFFFFFFFFFFFFFFFFFFFFFFFFFFFFFFFFFFFFFFFF AND DUP2 MSTORE PUSH1 0x20 ADD SWAP1 DUP2 MSTORE PUSH1 0x20 ADD PUSH1 0x0 KECCAK256 DUP6 PUSH1 0x40 MLOAD PUSH2 0x17EA SWAP2 SWAP1 PUSH2 0x2A67 JUMP JUMPDEST SWAP1 DUP2 MSTORE PUSH1 0x20 ADD PUSH1 0x40 MLOAD DUP1 SWAP2 SUB SWAP1 KECCAK256 PUSH1 0x3 ADD SLOAD SWAP1 POP PUSH1 0x0 PUSH1 0x15 PUSH1 0x0 DUP5 PUSH20 0xFFFFFFFFFFFFFFFFFFFFFFFFFFFFFFFFFFFFFFFF AND PUSH20 0xFFFFFFFFFFFFFFFFFFFFFFFFFFFFFFFFFFFFFFFF AND DUP2 MSTORE PUSH1 0x20 ADD SWAP1 DUP2 MSTORE PUSH1 0x20 ADD PUSH1 0x0 KECCAK256 DUP7 PUSH1 0x40 MLOAD PUSH2 0x184D SWAP2 SWAP1 PUSH2 0x2A67 JUMP JUMPDEST SWAP1 DUP2 MSTORE PUSH1 0x20 ADD PUSH1 0x40 MLOAD DUP1 SWAP2 SUB SWAP1 KECCAK256 PUSH1 0x4 ADD SLOAD SWAP1 POP TIMESTAMP DUP3 LT ISZERO DUP1 ISZERO PUSH2 0x1871 JUMPI POP PUSH1 0x0 DUP2 GT JUMPDEST PUSH2 0x187A JUMPI PUSH1 0x0 DUP1 REVERT JUMPDEST PUSH1 0x0 PUSH1 0x1 PUSH1 0x4 ADD SLOAD SWAP1 POP PUSH1 0x0 PUSH1 0x1 PUSH1 0x5 ADD SLOAD SWAP1 POP PUSH1 0x0 DUP1 PUSH2 0x189E DUP9 DUP9 DUP8 DUP8 DUP8 PUSH2 0x1916 JUMP JUMPDEST SWAP2 POP SWAP2 POP PUSH1 0x0 PUSH1 0x15 PUSH1 0x0 DUP10 PUSH20 0xFFFFFFFFFFFFFFFFFFFFFFFFFFFFFFFFFFFFFFFF AND PUSH20 0xFFFFFFFFFFFFFFFFFFFFFFFFFFFFFFFFFFFFFFFF AND DUP2 MSTORE PUSH1 0x20 ADD SWAP1 DUP2 MSTORE PUSH1 0x20 ADD PUSH1 0x0 KECCAK256 DUP12 PUSH1 0x40 MLOAD PUSH2 0x18F1 SWAP2 SWAP1 PUSH2 0x2A67 JUMP JUMPDEST SWAP1 DUP2 MSTORE PUSH1 0x20 ADD PUSH1 0x40 MLOAD DUP1 SWAP2 SUB SWAP1 KECCAK256 PUSH1 0x4 ADD DUP2 SWAP1 SSTORE POP DUP2 SWAP9 POP POP POP POP POP POP POP POP POP SWAP2 SWAP1 POP JUMP JUMPDEST PUSH1 0x0 DUP1 PUSH1 0x0 PUSH20 0xFFFFFFFFFFFFFFFFFFFFFFFFFFFFFFFFFFFFFFFF AND DUP8 PUSH20 0xFFFFFFFFFFFFFFFFFFFFFFFFFFFFFFFFFFFFFFFF AND EQ ISZERO DUP1 ISZERO PUSH2 0x1983 JUMPI POP PUSH1 0x0 PUSH20 0xFFFFFFFFFFFFFFFFFFFFFFFFFFFFFFFFFFFFFFFF AND DUP7 PUSH20 0xFFFFFFFFFFFFFFFFFFFFFFFFFFFFFFFFFFFFFFFF AND EQ ISZERO JUMPDEST DUP1 ISZERO PUSH2 0x19CE JUMPI POP DUP5 PUSH1 0x11 PUSH1 0x0 DUP10 PUSH20 0xFFFFFFFFFFFFFFFFFFFFFFFFFFFFFFFFFFFFFFFF AND PUSH20 0xFFFFFFFFFFFFFFFFFFFFFFFFFFFFFFFFFFFFFFFF AND DUP2 MSTORE PUSH1 0x20 ADD SWAP1 DUP2 MSTORE PUSH1 0x20 ADD PUSH1 0x0 KECCAK256 SLOAD LT ISZERO JUMPDEST DUP1 ISZERO PUSH2 0x1A1A JUMPI POP PUSH1 0x0 PUSH1 0x11 PUSH1 0x0 DUP10 PUSH20 0xFFFFFFFFFFFFFFFFFFFFFFFFFFFFFFFFFFFFFFFF AND PUSH20 0xFFFFFFFFFFFFFFFFFFFFFFFFFFFFFFFFFFFFFFFF AND DUP2 MSTORE PUSH1 0x20 ADD SWAP1 DUP2 MSTORE PUSH1 0x20 ADD PUSH1 0x0 KECCAK256 SLOAD LT ISZERO JUMPDEST DUP1 ISZERO PUSH2 0x1A27 JUMPI POP PUSH1 0x0 DUP6 LT ISZERO JUMPDEST PUSH2 0x1A30 JUMPI PUSH1 0x0 DUP1 REVERT JUMPDEST DUP5 PUSH1 0x11 PUSH1 0x0 DUP10 PUSH20 0xFFFFFFFFFFFFFFFFFFFFFFFFFFFFFFFFFFFFFFFF AND PUSH20 0xFFFFFFFFFFFFFFFFFFFFFFFFFFFFFFFFFFFFFFFF AND DUP2 MSTORE PUSH1 0x20 ADD SWAP1 DUP2 MSTORE PUSH1 0x20 ADD PUSH1 0x0 KECCAK256 PUSH1 0x0 DUP3 DUP3 SLOAD PUSH2 0x1A7F SWAP2 SWAP1 PUSH2 0x29C3 JUMP JUMPDEST SWAP3 POP POP DUP2 SWAP1 SSTORE POP PUSH1 0x0 DUP5 PUSH2 0x3E8 DUP8 PUSH2 0x1A97 SWAP2 SWAP1 PUSH2 0x2AAD JUMP JUMPDEST PUSH2 0x1AA1 SWAP2 SWAP1 PUSH2 0x2ADE JUMP JUMPDEST SWAP1 POP PUSH1 0x0 DUP5 PUSH2 0x3E8 DUP9 PUSH2 0x1AB4 SWAP2 SWAP1 PUSH2 0x2AAD JUMP JUMPDEST PUSH2 0x1ABE SWAP2 SWAP1 PUSH2 0x2ADE JUMP JUMPDEST SWAP1 POP PUSH1 0x0 DUP2 DUP4 PUSH2 0x1ACE SWAP2 SWAP1 PUSH2 0x29F7 JUMP JUMPDEST DUP9 PUSH2 0x1AD9 SWAP2 SWAP1 PUSH2 0x29C3 JUMP JUMPDEST SWAP1 POP DUP1 PUSH1 0x11 PUSH1 0x0 DUP12 PUSH20 0xFFFFFFFFFFFFFFFFFFFFFFFFFFFFFFFFFFFFFFFF AND PUSH20 0xFFFFFFFFFFFFFFFFFFFFFFFFFFFFFFFFFFFFFFFF AND DUP2 MSTORE PUSH1 0x20 ADD SWAP1 DUP2 MSTORE PUSH1 0x20 ADD PUSH1 0x0 KECCAK256 PUSH1 0x0 DUP3 DUP3 SLOAD PUSH2 0x1B2A SWAP2 SWAP1 PUSH2 0x29F7 JUMP JUMPDEST SWAP3 POP POP DUP2 SWAP1 SSTORE POP DUP2 PUSH1 0x11 PUSH1 0x0 PUSH1 0x7 PUSH1 0x9 ADD PUSH1 0x0 SWAP1 SLOAD SWAP1 PUSH2 0x100 EXP SWAP1 DIV PUSH20 0xFFFFFFFFFFFFFFFFFFFFFFFFFFFFFFFFFFFFFFFF AND PUSH20 0xFFFFFFFFFFFFFFFFFFFFFFFFFFFFFFFFFFFFFFFF AND PUSH20 0xFFFFFFFFFFFFFFFFFFFFFFFFFFFFFFFFFFFFFFFF AND DUP2 MSTORE PUSH1 0x20 ADD SWAP1 DUP2 MSTORE PUSH1 0x20 ADD PUSH1 0x0 KECCAK256 PUSH1 0x0 DUP3 DUP3 SLOAD PUSH2 0x1BA5 SWAP2 SWAP1 PUSH2 0x29F7 JUMP JUMPDEST SWAP3 POP POP DUP2 SWAP1 SSTORE POP DUP3 PUSH1 0x7 PUSH1 0x4 ADD PUSH1 0x0 DUP3 DUP3 SLOAD PUSH2 0x1BC1 SWAP2 SWAP1 PUSH2 0x29C3 JUMP JUMPDEST SWAP3 POP POP DUP2 SWAP1 SSTORE POP DUP9 PUSH20 0xFFFFFFFFFFFFFFFFFFFFFFFFFFFFFFFFFFFFFFFF AND DUP11 PUSH20 0xFFFFFFFFFFFFFFFFFFFFFFFFFFFFFFFFFFFFFFFF AND PUSH32 0xDDF252AD1BE2C89B69C2B068FC378DAA952BA7F163C4A11628F55A4DF523B3EF DUP4 PUSH1 0x40 MLOAD PUSH2 0x1C25 SWAP2 SWAP1 PUSH2 0x24FE JUMP JUMPDEST PUSH1 0x40 MLOAD DUP1 SWAP2 SUB SWAP1 LOG3 PUSH1 0x0 DUP4 EQ PUSH2 0x1C9C JUMPI PUSH1 0x0 PUSH20 0xFFFFFFFFFFFFFFFFFFFFFFFFFFFFFFFFFFFFFFFF AND DUP11 PUSH20 0xFFFFFFFFFFFFFFFFFFFFFFFFFFFFFFFFFFFFFFFF AND PUSH32 0xDDF252AD1BE2C89B69C2B068FC378DAA952BA7F163C4A11628F55A4DF523B3EF DUP6 PUSH1 0x40 MLOAD PUSH2 0x1C93 SWAP2 SWAP1 PUSH2 0x24FE JUMP JUMPDEST PUSH1 0x40 MLOAD DUP1 SWAP2 SUB SWAP1 LOG3 JUMPDEST PUSH1 0x0 DUP3 EQ PUSH2 0x1D2F JUMPI PUSH1 0x7 PUSH1 0x9 ADD PUSH1 0x0 SWAP1 SLOAD SWAP1 PUSH2 0x100 EXP SWAP1 DIV PUSH20 0xFFFFFFFFFFFFFFFFFFFFFFFFFFFFFFFFFFFFFFFF AND PUSH20 0xFFFFFFFFFFFFFFFFFFFFFFFFFFFFFFFFFFFFFFFF AND DUP11 PUSH20 0xFFFFFFFFFFFFFFFFFFFFFFFFFFFFFFFFFFFFFFFF AND PUSH32 0xDDF252AD1BE2C89B69C2B068FC378DAA952BA7F163C4A11628F55A4DF523B3EF DUP5 PUSH1 0x40 MLOAD PUSH2 0x1D26 SWAP2 SWAP1 PUSH2 0x24FE JUMP JUMPDEST PUSH1 0x40 MLOAD DUP1 SWAP2 SUB SWAP1 LOG3 JUMPDEST PUSH1 0x1 DUP2 SWAP5 POP SWAP5 POP POP POP POP SWAP6 POP SWAP6 SWAP4 POP POP POP POP JUMP JUMPDEST PUSH1 0x0 DUP1 PUSH1 0x0 SWAP1 POP PUSH1 0x0 DUP4 LT ISZERO DUP1 ISZERO PUSH2 0x1D60 JUMPI POP PUSH1 0x7 PUSH1 0x3 ADD SLOAD DUP4 GT ISZERO JUMPDEST DUP1 ISZERO PUSH2 0x1D99 JUMPI POP PUSH1 0x0 PUSH20 0xFFFFFFFFFFFFFFFFFFFFFFFFFFFFFFFFFFFFFFFF AND DUP5 PUSH20 0xFFFFFFFFFFFFFFFFFFFFFFFFFFFFFFFFFFFFFFFF AND EQ ISZERO JUMPDEST PUSH2 0x1DA2 JUMPI PUSH1 0x0 DUP1 REVERT JUMPDEST DUP3 PUSH1 0x7 PUSH1 0x3 ADD PUSH1 0x0 DUP3 DUP3 SLOAD PUSH2 0x1DB7 SWAP2 SWAP1 PUSH2 0x29C3 JUMP JUMPDEST SWAP3 POP POP DUP2 SWAP1 SSTORE POP DUP3 PUSH1 0x11 PUSH1 0x0 DUP7 PUSH20 0xFFFFFFFFFFFFFFFFFFFFFFFFFFFFFFFFFFFFFFFF AND PUSH20 0xFFFFFFFFFFFFFFFFFFFFFFFFFFFFFFFFFFFFFFFF AND DUP2 MSTORE PUSH1 0x20 ADD SWAP1 DUP2 MSTORE PUSH1 0x20 ADD PUSH1 0x0 KECCAK256 PUSH1 0x0 DUP3 DUP3 SLOAD PUSH2 0x1E0D SWAP2 SWAP1 PUSH2 0x29F7 JUMP JUMPDEST SWAP3 POP POP DUP2 SWAP1 SSTORE DUP4 PUSH1 0x7 PUSH1 0x4 ADD PUSH1 0x0 DUP3 DUP3 SLOAD PUSH2 0x1E28 SWAP2 SWAP1 PUSH2 0x29F7 JUMP JUMPDEST SWAP3 POP POP DUP2 SWAP1 SSTORE POP POP DUP4 PUSH20 0xFFFFFFFFFFFFFFFFFFFFFFFFFFFFFFFFFFFFFFFF AND DUP2 PUSH20 0xFFFFFFFFFFFFFFFFFFFFFFFFFFFFFFFFFFFFFFFF AND PUSH32 0xDDF252AD1BE2C89B69C2B068FC378DAA952BA7F163C4A11628F55A4DF523B3EF DUP6 PUSH1 0x40 MLOAD PUSH2 0x1E8D SWAP2 SWAP1 PUSH2 0x24FE JUMP JUMPDEST PUSH1 0x40 MLOAD DUP1 SWAP2 SUB SWAP1 LOG3 PUSH1 0x1 SWAP2 POP POP SWAP3 SWAP2 POP POP JUMP JUMPDEST PUSH1 0x0 DUP1 DUP3 LT ISZERO DUP1 ISZERO PUSH2 0x1EF1 JUMPI POP PUSH1 0x11 PUSH1 0x0 DUP5 PUSH20 0xFFFFFFFFFFFFFFFFFFFFFFFFFFFFFFFFFFFFFFFF AND PUSH20 0xFFFFFFFFFFFFFFFFFFFFFFFFFFFFFFFFFFFFFFFF AND DUP2 MSTORE PUSH1 0x20 ADD SWAP1 DUP2 MSTORE PUSH1 0x20 ADD PUSH1 0x0 KECCAK256 SLOAD DUP3 GT ISZERO JUMPDEST PUSH2 0x1EFA JUMPI PUSH1 0x0 DUP1 REVERT JUMPDEST DUP2 PUSH1 0x11 PUSH1 0x0 DUP6 PUSH20 0xFFFFFFFFFFFFFFFFFFFFFFFFFFFFFFFFFFFFFFFF AND PUSH20 0xFFFFFFFFFFFFFFFFFFFFFFFFFFFFFFFFFFFFFFFF AND DUP2 MSTORE PUSH1 0x20 ADD SWAP1 DUP2 MSTORE PUSH1 0x20 ADD PUSH1 0x0 KECCAK256 PUSH1 0x0 DUP3 DUP3 SLOAD PUSH2 0x1F49 SWAP2 SWAP1 PUSH2 0x29C3 JUMP JUMPDEST SWAP3 POP POP DUP2 SWAP1 SSTORE DUP3 PUSH1 0x7 PUSH1 0x4 ADD PUSH1 0x0 DUP3 DUP3 SLOAD PUSH2 0x1F64 SWAP2 SWAP1 PUSH2 0x29C3 JUMP JUMPDEST SWAP3 POP POP DUP2 SWAP1 SSTORE POP POP PUSH1 0x0 PUSH20 0xFFFFFFFFFFFFFFFFFFFFFFFFFFFFFFFFFFFFFFFF AND DUP4 PUSH20 0xFFFFFFFFFFFFFFFFFFFFFFFFFFFFFFFFFFFFFFFF AND PUSH32 0xDDF252AD1BE2C89B69C2B068FC378DAA952BA7F163C4A11628F55A4DF523B3EF DUP5 PUSH1 0x40 MLOAD PUSH2 0x1FCA SWAP2 SWAP1 PUSH2 0x24FE JUMP JUMPDEST PUSH1 0x40 MLOAD DUP1 SWAP2 SUB SWAP1 LOG3 PUSH1 0x1 SWAP1 POP SWAP3 SWAP2 POP POP JUMP JUMPDEST PUSH1 0x0 DUP1 PUSH1 0x0 SWAP1 POP PUSH1 0x0 PUSH1 0x7 PUSH1 0x9 ADD PUSH1 0x0 SWAP1 SLOAD SWAP1 PUSH2 0x100 EXP SWAP1 DIV PUSH20 0xFFFFFFFFFFFFFFFFFFFFFFFFFFFFFFFFFFFFFFFF AND SWAP1 POP PUSH1 0x1 ISZERO ISZERO PUSH1 0x15 PUSH1 0x0 DUP10 PUSH20 0xFFFFFFFFFFFFFFFFFFFFFFFFFFFFFFFFFFFFFFFF AND PUSH20 0xFFFFFFFFFFFFFFFFFFFFFFFFFFFFFFFFFFFFFFFF AND DUP2 MSTORE PUSH1 0x20 ADD SWAP1 DUP2 MSTORE PUSH1 0x20 ADD PUSH1 0x0 KECCAK256 DUP6 PUSH1 0x40 MLOAD PUSH2 0x205E SWAP2 SWAP1 PUSH2 0x2A67 JUMP JUMPDEST SWAP1 DUP2 MSTORE PUSH1 0x20 ADD PUSH1 0x40 MLOAD DUP1 SWAP2 SUB SWAP1 KECCAK256 PUSH1 0x5 ADD PUSH1 0x0 SWAP1 SLOAD SWAP1 PUSH2 0x100 EXP SWAP1 DIV PUSH1 0xFF AND ISZERO ISZERO EQ ISZERO DUP1 ISZERO PUSH2 0x2092 JUMPI POP PUSH1 0x7 PUSH1 0x3 ADD SLOAD DUP7 GT ISZERO JUMPDEST DUP1 ISZERO PUSH2 0x20CB JUMPI POP PUSH1 0x0 PUSH20 0xFFFFFFFFFFFFFFFFFFFFFFFFFFFFFFFFFFFFFFFF AND DUP8 PUSH20 0xFFFFFFFFFFFFFFFFFFFFFFFFFFFFFFFFFFFFFFFF AND EQ ISZERO JUMPDEST DUP1 ISZERO PUSH2 0x20D8 JUMPI POP PUSH1 0x0 DUP7 LT ISZERO JUMPDEST PUSH2 0x20E1 JUMPI PUSH1 0x0 DUP1 REVERT JUMPDEST DUP6 PUSH1 0x7 PUSH1 0x3 ADD PUSH1 0x0 DUP3 DUP3 SLOAD PUSH2 0x20F6 SWAP2 SWAP1 PUSH2 0x29C3 JUMP JUMPDEST SWAP3 POP POP DUP2 SWAP1 SSTORE DUP7 PUSH1 0x7 PUSH1 0x4 ADD PUSH1 0x0 DUP3 DUP3 SLOAD PUSH2 0x2111 SWAP2 SWAP1 PUSH2 0x29F7 JUMP JUMPDEST SWAP3 POP POP DUP2 SWAP1 SSTORE DUP8 PUSH1 0x11 PUSH1 0x0 DUP6 PUSH20 0xFFFFFFFFFFFFFFFFFFFFFFFFFFFFFFFFFFFFFFFF AND PUSH20 0xFFFFFFFFFFFFFFFFFFFFFFFFFFFFFFFFFFFFFFFF AND DUP2 MSTORE PUSH1 0x20 ADD SWAP1 DUP2 MSTORE PUSH1 0x20 ADD PUSH1 0x0 KECCAK256 PUSH1 0x0 DUP3 DUP3 SLOAD PUSH2 0x2166 SWAP2 SWAP1 PUSH2 0x29F7 JUMP JUMPDEST SWAP3 POP POP DUP2 SWAP1 SSTORE POP POP POP PUSH1 0x0 TIMESTAMP SWAP1 POP PUSH1 0x40 MLOAD DUP1 PUSH1 0xC0 ADD PUSH1 0x40 MSTORE DUP1 DUP7 DUP2 MSTORE PUSH1 0x20 ADD DUP8 DUP2 MSTORE PUSH1 0x20 ADD DUP3 DUP2 MSTORE PUSH1 0x20 ADD DUP8 DUP4 PUSH2 0x219D SWAP2 SWAP1 PUSH2 0x29F7 JUMP JUMPDEST DUP2 MSTORE PUSH1 0x20 ADD DUP9 DUP2 MSTORE PUSH1 0x20 ADD PUSH1 0x1 ISZERO ISZERO DUP2 MSTORE POP PUSH1 0x15 PUSH1 0x0 DUP11 PUSH20 0xFFFFFFFFFFFFFFFFFFFFFFFFFFFFFFFFFFFFFFFF AND PUSH20 0xFFFFFFFFFFFFFFFFFFFFFFFFFFFFFFFFFFFFFFFF AND DUP2 MSTORE PUSH1 0x20 ADD SWAP1 DUP2 MSTORE PUSH1 0x20 ADD PUSH1 0x0 KECCAK256 DUP7 PUSH1 0x40 MLOAD PUSH2 0x21FC SWAP2 SWAP1 PUSH2 0x2A67 JUMP JUMPDEST SWAP1 DUP2 MSTORE PUSH1 0x20 ADD PUSH1 0x40 MLOAD DUP1 SWAP2 SUB SWAP1 KECCAK256 PUSH1 0x0 DUP3 ADD MLOAD DUP2 PUSH1 0x0 ADD SWAP1 DUP2 PUSH2 0x221F SWAP2 SWAP1 PUSH2 0x2CCC JUMP JUMPDEST POP PUSH1 0x20 DUP3 ADD MLOAD DUP2 PUSH1 0x1 ADD SSTORE PUSH1 0x40 DUP3 ADD MLOAD DUP2 PUSH1 0x2 ADD SSTORE PUSH1 0x60 DUP3 ADD MLOAD DUP2 PUSH1 0x3 ADD SSTORE PUSH1 0x80 DUP3 ADD MLOAD DUP2 PUSH1 0x4 ADD SSTORE PUSH1 0xA0 DUP3 ADD MLOAD DUP2 PUSH1 0x5 ADD PUSH1 0x0 PUSH2 0x100 EXP DUP2 SLOAD DUP2 PUSH1 0xFF MUL NOT AND SWAP1 DUP4 ISZERO ISZERO MUL OR SWAP1 SSTORE POP SWAP1 POP POP DUP8 PUSH20 0xFFFFFFFFFFFFFFFFFFFFFFFFFFFFFFFFFFFFFFFF AND DUP4 PUSH20 0xFFFFFFFFFFFFFFFFFFFFFFFFFFFFFFFFFFFFFFFF AND PUSH32 0xDDF252AD1BE2C89B69C2B068FC378DAA952BA7F163C4A11628F55A4DF523B3EF DUP10 PUSH1 0x40 MLOAD PUSH2 0x22C8 SWAP2 SWAP1 PUSH2 0x24FE JUMP JUMPDEST PUSH1 0x40 MLOAD DUP1 SWAP2 SUB SWAP1 LOG3 PUSH1 0x1 SWAP4 POP POP POP POP SWAP5 SWAP4 POP POP POP POP JUMP JUMPDEST PUSH1 0x0 PUSH1 0x40 MLOAD SWAP1 POP SWAP1 JUMP JUMPDEST PUSH1 0x0 DUP1 REVERT JUMPDEST PUSH1 0x0 DUP1 REVERT JUMPDEST PUSH1 0x0 DUP2 SWAP1 POP SWAP2 SWAP1 POP JUMP JUMPDEST PUSH2 0x2306 DUP2 PUSH2 0x22F3 JUMP JUMPDEST DUP2 EQ PUSH2 0x2311 JUMPI PUSH1 0x0 DUP1 REVERT JUMPDEST POP JUMP JUMPDEST PUSH1 0x0 DUP2 CALLDATALOAD SWAP1 POP PUSH2 0x2323 DUP2 PUSH2 0x22FD JUMP JUMPDEST SWAP3 SWAP2 POP POP JUMP JUMPDEST PUSH1 0x0 DUP1 PUSH1 0x40 DUP4 DUP6 SUB SLT ISZERO PUSH2 0x2340 JUMPI PUSH2 0x233F PUSH2 0x22E9 JUMP JUMPDEST JUMPDEST PUSH1 0x0 PUSH2 0x234E DUP6 DUP3 DUP7 ADD PUSH2 0x2314 JUMP JUMPDEST SWAP3 POP POP PUSH1 0x20 PUSH2 0x235F DUP6 DUP3 DUP7 ADD PUSH2 0x2314 JUMP JUMPDEST SWAP2 POP POP SWAP3 POP SWAP3 SWAP1 POP JUMP JUMPDEST PUSH1 0x0 DUP2 ISZERO ISZERO SWAP1 POP SWAP2 SWAP1 POP JUMP JUMPDEST PUSH2 0x237E DUP2 PUSH2 0x2369 JUMP JUMPDEST DUP3 MSTORE POP POP JUMP JUMPDEST PUSH1 0x0 PUSH1 0x20 DUP3 ADD SWAP1 POP PUSH2 0x2399 PUSH1 0x0 DUP4 ADD DUP5 PUSH2 0x2375 JUMP JUMPDEST SWAP3 SWAP2 POP POP JUMP JUMPDEST PUSH1 0x0 DUP2 MLOAD SWAP1 POP SWAP2 SWAP1 POP JUMP JUMPDEST PUSH1 0x0 DUP3 DUP3 MSTORE PUSH1 0x20 DUP3 ADD SWAP1 POP SWAP3 SWAP2 POP POP JUMP JUMPDEST PUSH1 0x0 JUMPDEST DUP4 DUP2 LT ISZERO PUSH2 0x23D9 JUMPI DUP1 DUP3 ADD MLOAD DUP2 DUP5 ADD MSTORE PUSH1 0x20 DUP2 ADD SWAP1 POP PUSH2 0x23BE JUMP JUMPDEST PUSH1 0x0 DUP5 DUP5 ADD MSTORE POP POP POP POP JUMP JUMPDEST PUSH1 0x0 PUSH1 0x1F NOT PUSH1 0x1F DUP4 ADD AND SWAP1 POP SWAP2 SWAP1 POP JUMP JUMPDEST PUSH1 0x0 PUSH2 0x2401 DUP3 PUSH2 0x239F JUMP JUMPDEST PUSH2 0x240B DUP2 DUP6 PUSH2 0x23AA JUMP JUMPDEST SWAP4 POP PUSH2 0x241B DUP2 DUP6 PUSH1 0x20 DUP7 ADD PUSH2 0x23BB JUMP JUMPDEST PUSH2 0x2424 DUP2 PUSH2 0x23E5 JUMP JUMPDEST DUP5 ADD SWAP2 POP POP SWAP3 SWAP2 POP POP JUMP JUMPDEST PUSH1 0x0 PUSH1 0x20 DUP3 ADD SWAP1 POP DUP2 DUP2 SUB PUSH1 0x0 DUP4 ADD MSTORE PUSH2 0x2449 DUP2 DUP5 PUSH2 0x23F6 JUMP JUMPDEST SWAP1 POP SWAP3 SWAP2 POP POP JUMP JUMPDEST PUSH1 0x0 PUSH20 0xFFFFFFFFFFFFFFFFFFFFFFFFFFFFFFFFFFFFFFFF DUP3 AND SWAP1 POP SWAP2 SWAP1 POP JUMP JUMPDEST PUSH1 0x0 PUSH2 0x247C DUP3 PUSH2 0x2451 JUMP JUMPDEST SWAP1 POP SWAP2 SWAP1 POP JUMP JUMPDEST PUSH2 0x248C DUP2 PUSH2 0x2471 JUMP JUMPDEST DUP2 EQ PUSH2 0x2497 JUMPI PUSH1 0x0 DUP1 REVERT JUMPDEST POP JUMP JUMPDEST PUSH1 0x0 DUP2 CALLDATALOAD SWAP1 POP PUSH2 0x24A9 DUP2 PUSH2 0x2483 JUMP JUMPDEST SWAP3 SWAP2 POP POP JUMP JUMPDEST PUSH1 0x0 DUP1 PUSH1 0x40 DUP4 DUP6 SUB SLT ISZERO PUSH2 0x24C6 JUMPI PUSH2 0x24C5 PUSH2 0x22E9 JUMP JUMPDEST JUMPDEST PUSH1 0x0 PUSH2 0x24D4 DUP6 DUP3 DUP7 ADD PUSH2 0x249A JUMP JUMPDEST SWAP3 POP POP PUSH1 0x20 PUSH2 0x24E5 DUP6 DUP3 DUP7 ADD PUSH2 0x2314 JUMP JUMPDEST SWAP2 POP POP SWAP3 POP SWAP3 SWAP1 POP JUMP JUMPDEST PUSH2 0x24F8 DUP2 PUSH2 0x22F3 JUMP JUMPDEST DUP3 MSTORE POP POP JUMP JUMPDEST PUSH1 0x0 PUSH1 0x20 DUP3 ADD SWAP1 POP PUSH2 0x2513 PUSH1 0x0 DUP4 ADD DUP5 PUSH2 0x24EF JUMP JUMPDEST SWAP3 SWAP2 POP POP JUMP JUMPDEST PUSH1 0x0 PUSH1 0x20 DUP3 DUP5 SUB SLT ISZERO PUSH2 0x252F JUMPI PUSH2 0x252E PUSH2 0x22E9 JUMP JUMPDEST JUMPDEST PUSH1 0x0 PUSH2 0x253D DUP5 DUP3 DUP6 ADD PUSH2 0x249A JUMP JUMPDEST SWAP2 POP POP SWAP3 SWAP2 POP POP JUMP JUMPDEST PUSH1 0x0 DUP1 PUSH1 0x0 PUSH1 0x60 DUP5 DUP7 SUB SLT ISZERO PUSH2 0x255F JUMPI PUSH2 0x255E PUSH2 0x22E9 JUMP JUMPDEST JUMPDEST PUSH1 0x0 PUSH2 0x256D DUP7 DUP3 DUP8 ADD PUSH2 0x249A JUMP JUMPDEST SWAP4 POP POP PUSH1 0x20 PUSH2 0x257E DUP7 DUP3 DUP8 ADD PUSH2 0x249A JUMP JUMPDEST SWAP3 POP POP PUSH1 0x40 PUSH2 0x258F DUP7 DUP3 DUP8 ADD PUSH2 0x2314 JUMP JUMPDEST SWAP2 POP POP SWAP3 POP SWAP3 POP SWAP3 JUMP JUMPDEST PUSH1 0x0 PUSH1 0x20 DUP3 DUP5 SUB SLT ISZERO PUSH2 0x25AF JUMPI PUSH2 0x25AE PUSH2 0x22E9 JUMP JUMPDEST JUMPDEST PUSH1 0x0 PUSH2 0x25BD DUP5 DUP3 DUP6 ADD PUSH2 0x2314 JUMP JUMPDEST SWAP2 POP POP SWAP3 SWAP2 POP POP JUMP JUMPDEST PUSH1 0x0 PUSH1 0xFF DUP3 AND SWAP1 POP SWAP2 SWAP1 POP JUMP JUMPDEST PUSH2 0x25DC DUP2 PUSH2 0x25C6 JUMP JUMPDEST DUP3 MSTORE POP POP JUMP JUMPDEST PUSH1 0x0 PUSH1 0x20 DUP3 ADD SWAP1 POP PUSH2 0x25F7 PUSH1 0x0 DUP4 ADD DUP5 PUSH2 0x25D3 JUMP JUMPDEST SWAP3 SWAP2 POP POP JUMP JUMPDEST PUSH1 0x0 PUSH1 0xC0 DUP3 ADD SWAP1 POP PUSH2 0x2612 PUSH1 0x0 DUP4 ADD DUP10 PUSH2 0x24EF JUMP JUMPDEST PUSH2 0x261F PUSH1 0x20 DUP4 ADD DUP9 PUSH2 0x24EF JUMP JUMPDEST PUSH2 0x262C PUSH1 0x40 DUP4 ADD DUP8 PUSH2 0x24EF JUMP JUMPDEST PUSH2 0x2639 PUSH1 0x60 DUP4 ADD DUP7 PUSH2 0x24EF JUMP JUMPDEST PUSH2 0x2646 PUSH1 0x80 DUP4 ADD DUP6 PUSH2 0x24EF JUMP JUMPDEST PUSH2 0x2653 PUSH1 0xA0 DUP4 ADD DUP5 PUSH2 0x24EF JUMP JUMPDEST SWAP8 SWAP7 POP POP POP POP POP POP POP JUMP JUMPDEST PUSH1 0x0 DUP1 PUSH1 0x40 DUP4 DUP6 SUB SLT ISZERO PUSH2 0x2675 JUMPI PUSH2 0x2674 PUSH2 0x22E9 JUMP JUMPDEST JUMPDEST PUSH1 0x0 PUSH2 0x2683 DUP6 DUP3 DUP7 ADD PUSH2 0x249A JUMP JUMPDEST SWAP3 POP POP PUSH1 0x20 PUSH2 0x2694 DUP6 DUP3 DUP7 ADD PUSH2 0x249A JUMP JUMPDEST SWAP2 POP POP SWAP3 POP SWAP3 SWAP1 POP JUMP JUMPDEST PUSH1 0x0 DUP1 REVERT JUMPDEST PUSH1 0x0 DUP1 REVERT JUMPDEST PUSH32 0x4E487B7100000000000000000000000000000000000000000000000000000000 PUSH1 0x0 MSTORE PUSH1 0x41 PUSH1 0x4 MSTORE PUSH1 0x24 PUSH1 0x0 REVERT JUMPDEST PUSH2 0x26E0 DUP3 PUSH2 0x23E5 JUMP JUMPDEST DUP2 ADD DUP2 DUP2 LT PUSH8 0xFFFFFFFFFFFFFFFF DUP3 GT OR ISZERO PUSH2 0x26FF JUMPI PUSH2 0x26FE PUSH2 0x26A8 JUMP JUMPDEST JUMPDEST DUP1 PUSH1 0x40 MSTORE POP POP POP JUMP JUMPDEST PUSH1 0x0 PUSH2 0x2712 PUSH2 0x22DF JUMP JUMPDEST SWAP1 POP PUSH2 0x271E DUP3 DUP3 PUSH2 0x26D7 JUMP JUMPDEST SWAP2 SWAP1 POP JUMP JUMPDEST PUSH1 0x0 PUSH8 0xFFFFFFFFFFFFFFFF DUP3 GT ISZERO PUSH2 0x273E JUMPI PUSH2 0x273D PUSH2 0x26A8 JUMP JUMPDEST JUMPDEST PUSH2 0x2747 DUP3 PUSH2 0x23E5 JUMP JUMPDEST SWAP1 POP PUSH1 0x20 DUP2 ADD SWAP1 POP SWAP2 SWAP1 POP JUMP JUMPDEST DUP3 DUP2 DUP4 CALLDATACOPY PUSH1 0x0 DUP4 DUP4 ADD MSTORE POP POP POP JUMP JUMPDEST PUSH1 0x0 PUSH2 0x2776 PUSH2 0x2771 DUP5 PUSH2 0x2723 JUMP JUMPDEST PUSH2 0x2708 JUMP JUMPDEST SWAP1 POP DUP3 DUP2 MSTORE PUSH1 0x20 DUP2 ADD DUP5 DUP5 DUP5 ADD GT ISZERO PUSH2 0x2792 JUMPI PUSH2 0x2791 PUSH2 0x26A3 JUMP JUMPDEST JUMPDEST PUSH2 0x279D DUP5 DUP3 DUP6 PUSH2 0x2754 JUMP JUMPDEST POP SWAP4 SWAP3 POP POP POP JUMP JUMPDEST PUSH1 0x0 DUP3 PUSH1 0x1F DUP4 ADD SLT PUSH2 0x27BA JUMPI PUSH2 0x27B9 PUSH2 0x269E JUMP JUMPDEST JUMPDEST DUP2 CALLDATALOAD PUSH2 0x27CA DUP5 DUP3 PUSH1 0x20 DUP7 ADD PUSH2 0x2763 JUMP JUMPDEST SWAP2 POP POP SWAP3 SWAP2 POP POP JUMP JUMPDEST PUSH1 0x0 DUP1 PUSH1 0x0 DUP1 PUSH1 0x80 DUP6 DUP8 SUB SLT ISZERO PUSH2 0x27ED JUMPI PUSH2 0x27EC PUSH2 0x22E9 JUMP JUMPDEST JUMPDEST PUSH1 0x0 PUSH2 0x27FB DUP8 DUP3 DUP9 ADD PUSH2 0x249A JUMP JUMPDEST SWAP5 POP POP PUSH1 0x20 PUSH2 0x280C DUP8 DUP3 DUP9 ADD PUSH2 0x2314 JUMP JUMPDEST SWAP4 POP POP PUSH1 0x40 PUSH2 0x281D DUP8 DUP3 DUP9 ADD PUSH2 0x2314 JUMP JUMPDEST SWAP3 POP POP PUSH1 0x60 DUP6 ADD CALLDATALOAD PUSH8 0xFFFFFFFFFFFFFFFF DUP2 GT ISZERO PUSH2 0x283E JUMPI PUSH2 0x283D PUSH2 0x22EE JUMP JUMPDEST JUMPDEST PUSH2 0x284A DUP8 DUP3 DUP9 ADD PUSH2 0x27A5 JUMP JUMPDEST SWAP2 POP POP SWAP3 SWAP6 SWAP2 SWAP5 POP SWAP3 POP JUMP JUMPDEST PUSH1 0x0 PUSH1 0x20 DUP3 DUP5 SUB SLT ISZERO PUSH2 0x286C JUMPI PUSH2 0x286B PUSH2 0x22E9 JUMP JUMPDEST JUMPDEST PUSH1 0x0 DUP3 ADD CALLDATALOAD PUSH8 0xFFFFFFFFFFFFFFFF DUP2 GT ISZERO PUSH2 0x288A JUMPI PUSH2 0x2889 PUSH2 0x22EE JUMP JUMPDEST JUMPDEST PUSH2 0x2896 DUP5 DUP3 DUP6 ADD PUSH2 0x27A5 JUMP JUMPDEST SWAP2 POP POP SWAP3 SWAP2 POP POP JUMP JUMPDEST PUSH32 0x6F6E6C7941646D696E0000000000000000000000000000000000000000000000 PUSH1 0x0 DUP3 ADD MSTORE POP JUMP JUMPDEST PUSH1 0x0 PUSH2 0x28D5 PUSH1 0x9 DUP4 PUSH2 0x23AA JUMP JUMPDEST SWAP2 POP PUSH2 0x28E0 DUP3 PUSH2 0x289F JUMP JUMPDEST PUSH1 0x20 DUP3 ADD SWAP1 POP SWAP2 SWAP1 POP JUMP JUMPDEST PUSH1 0x0 PUSH1 0x20 DUP3 ADD SWAP1 POP DUP2 DUP2 SUB PUSH1 0x0 DUP4 ADD MSTORE PUSH2 0x2904 DUP2 PUSH2 0x28C8 JUMP JUMPDEST SWAP1 POP SWAP2 SWAP1 POP JUMP JUMPDEST PUSH1 0x0 PUSH1 0x40 DUP3 ADD SWAP1 POP PUSH2 0x2920 PUSH1 0x0 DUP4 ADD DUP6 PUSH2 0x24EF JUMP JUMPDEST PUSH2 0x292D PUSH1 0x20 DUP4 ADD DUP5 PUSH2 0x24EF JUMP JUMPDEST SWAP4 SWAP3 POP POP POP JUMP JUMPDEST PUSH32 0x4E487B7100000000000000000000000000000000000000000000000000000000 PUSH1 0x0 MSTORE PUSH1 0x22 PUSH1 0x4 MSTORE PUSH1 0x24 PUSH1 0x0 REVERT JUMPDEST PUSH1 0x0 PUSH1 0x2 DUP3 DIV SWAP1 POP PUSH1 0x1 DUP3 AND DUP1 PUSH2 0x297B JUMPI PUSH1 0x7F DUP3 AND SWAP2 POP JUMPDEST PUSH1 0x20 DUP3 LT DUP2 SUB PUSH2 0x298E JUMPI PUSH2 0x298D PUSH2 0x2934 JUMP JUMPDEST JUMPDEST POP SWAP2 SWAP1 POP JUMP JUMPDEST PUSH32 0x4E487B7100000000000000000000000000000000000000000000000000000000 PUSH1 0x0 MSTORE PUSH1 0x11 PUSH1 0x4 MSTORE PUSH1 0x24 PUSH1 0x0 REVERT JUMPDEST PUSH1 0x0 PUSH2 0x29CE DUP3 PUSH2 0x22F3 JUMP JUMPDEST SWAP2 POP PUSH2 0x29D9 DUP4 PUSH2 0x22F3 JUMP JUMPDEST SWAP3 POP DUP3 DUP3 SUB SWAP1 POP DUP2 DUP2 GT ISZERO PUSH2 0x29F1 JUMPI PUSH2 0x29F0 PUSH2 0x2994 JUMP JUMPDEST JUMPDEST SWAP3 SWAP2 POP POP JUMP JUMPDEST PUSH1 0x0 PUSH2 0x2A02 DUP3 PUSH2 0x22F3 JUMP JUMPDEST SWAP2 POP PUSH2 0x2A0D DUP4 PUSH2 0x22F3 JUMP JUMPDEST SWAP3 POP DUP3 DUP3 ADD SWAP1 POP DUP1 DUP3 GT ISZERO PUSH2 0x2A25 JUMPI PUSH2 0x2A24 PUSH2 0x2994 JUMP JUMPDEST JUMPDEST SWAP3 SWAP2 POP POP JUMP JUMPDEST PUSH1 0x0 DUP2 SWAP1 POP SWAP3 SWAP2 POP POP JUMP JUMPDEST PUSH1 0x0 PUSH2 0x2A41 DUP3 PUSH2 0x239F JUMP JUMPDEST PUSH2 0x2A4B DUP2 DUP6 PUSH2 0x2A2B JUMP JUMPDEST SWAP4 POP PUSH2 0x2A5B DUP2 DUP6 PUSH1 0x20 DUP7 ADD PUSH2 0x23BB JUMP JUMPDEST DUP1 DUP5 ADD SWAP2 POP POP SWAP3 SWAP2 POP POP JUMP JUMPDEST PUSH1 0x0 PUSH2 0x2A73 DUP3 DUP5 PUSH2 0x2A36 JUMP JUMPDEST SWAP2 POP DUP2 SWAP1 POP SWAP3 SWAP2 POP POP JUMP JUMPDEST PUSH32 0x4E487B7100000000000000000000000000000000000000000000000000000000 PUSH1 0x0 MSTORE PUSH1 0x12 PUSH1 0x4 MSTORE PUSH1 0x24 PUSH1 0x0 REVERT JUMPDEST PUSH1 0x0 PUSH2 0x2AB8 DUP3 PUSH2 0x22F3 JUMP JUMPDEST SWAP2 POP PUSH2 0x2AC3 DUP4 PUSH2 0x22F3 JUMP JUMPDEST SWAP3 POP DUP3 PUSH2 0x2AD3 JUMPI PUSH2 0x2AD2 PUSH2 0x2A7E JUMP JUMPDEST JUMPDEST DUP3 DUP3 DIV SWAP1 POP SWAP3 SWAP2 POP POP JUMP JUMPDEST PUSH1 0x0 PUSH2 0x2AE9 DUP3 PUSH2 0x22F3 JUMP JUMPDEST SWAP2 POP PUSH2 0x2AF4 DUP4 PUSH2 0x22F3 JUMP JUMPDEST SWAP3 POP DUP3 DUP3 MUL PUSH2 0x2B02 DUP2 PUSH2 0x22F3 JUMP JUMPDEST SWAP2 POP DUP3 DUP3 DIV DUP5 EQ DUP4 ISZERO OR PUSH2 0x2B19 JUMPI PUSH2 0x2B18 PUSH2 0x2994 JUMP JUMPDEST JUMPDEST POP SWAP3 SWAP2 POP POP JUMP JUMPDEST PUSH1 0x0 DUP2 SWAP1 POP DUP2 PUSH1 0x0 MSTORE PUSH1 0x20 PUSH1 0x0 KECCAK256 SWAP1 POP SWAP2 SWAP1 POP JUMP JUMPDEST PUSH1 0x0 PUSH1 0x20 PUSH1 0x1F DUP4 ADD DIV SWAP1 POP SWAP2 SWAP1 POP JUMP JUMPDEST PUSH1 0x0 DUP3 DUP3 SHL SWAP1 POP SWAP3 SWAP2 POP POP JUMP JUMPDEST PUSH1 0x0 PUSH1 0x8 DUP4 MUL PUSH2 0x2B82 PUSH32 0xFFFFFFFFFFFFFFFFFFFFFFFFFFFFFFFFFFFFFFFFFFFFFFFFFFFFFFFFFFFFFFFF DUP3 PUSH2 0x2B45 JUMP JUMPDEST PUSH2 0x2B8C DUP7 DUP4 PUSH2 0x2B45 JUMP JUMPDEST SWAP6 POP DUP1 NOT DUP5 AND SWAP4 POP DUP1 DUP7 AND DUP5 OR SWAP3 POP POP POP SWAP4 SWAP3 POP POP POP JUMP JUMPDEST PUSH1 0x0 DUP2 SWAP1 POP SWAP2 SWAP1 POP JUMP JUMPDEST PUSH1 0x0 PUSH2 0x2BC9 PUSH2 0x2BC4 PUSH2 0x2BBF DUP5 PUSH2 0x22F3 JUMP JUMPDEST PUSH2 0x2BA4 JUMP JUMPDEST PUSH2 0x22F3 JUMP JUMPDEST SWAP1 POP SWAP2 SWAP1 POP JUMP JUMPDEST PUSH1 0x0 DUP2 SWAP1 POP SWAP2 SWAP1 POP JUMP JUMPDEST PUSH2 0x2BE3 DUP4 PUSH2 0x2BAE JUMP JUMPDEST PUSH2 0x2BF7 PUSH2 0x2BEF DUP3 PUSH2 0x2BD0 JUMP JUMPDEST DUP5 DUP5 SLOAD PUSH2 0x2B52 JUMP JUMPDEST DUP3 SSTORE POP POP POP POP JUMP JUMPDEST PUSH1 0x0 SWAP1 JUMP JUMPDEST PUSH2 0x2C0C PUSH2 0x2BFF JUMP JUMPDEST PUSH2 0x2C17 DUP2 DUP5 DUP5 PUSH2 0x2BDA JUMP JUMPDEST POP POP POP JUMP JUMPDEST JUMPDEST DUP2 DUP2 LT ISZERO PUSH2 0x2C3B JUMPI PUSH2 0x2C30 PUSH1 0x0 DUP3 PUSH2 0x2C04 JUMP JUMPDEST PUSH1 0x1 DUP2 ADD SWAP1 POP PUSH2 0x2C1D JUMP JUMPDEST POP POP JUMP JUMPDEST PUSH1 0x1F DUP3 GT ISZERO PUSH2 0x2C80 JUMPI PUSH2 0x2C51 DUP2 PUSH2 0x2B20 JUMP JUMPDEST PUSH2 0x2C5A DUP5 PUSH2 0x2B35 JUMP JUMPDEST DUP2 ADD PUSH1 0x20 DUP6 LT ISZERO PUSH2 0x2C69 JUMPI DUP2 SWAP1 POP JUMPDEST PUSH2 0x2C7D PUSH2 0x2C75 DUP6 PUSH2 0x2B35 JUMP JUMPDEST DUP4 ADD DUP3 PUSH2 0x2C1C JUMP JUMPDEST POP POP JUMPDEST POP POP POP JUMP JUMPDEST PUSH1 0x0 DUP3 DUP3 SHR SWAP1 POP SWAP3 SWAP2 POP POP JUMP JUMPDEST PUSH1 0x0 PUSH2 0x2CA3 PUSH1 0x0 NOT DUP5 PUSH1 0x8 MUL PUSH2 0x2C85 JUMP JUMPDEST NOT DUP1 DUP4 AND SWAP2 POP POP SWAP3 SWAP2 POP POP JUMP JUMPDEST PUSH1 0x0 PUSH2 0x2CBC DUP4 DUP4 PUSH2 0x2C92 JUMP JUMPDEST SWAP2 POP DUP3 PUSH1 0x2 MUL DUP3 OR SWAP1 POP SWAP3 SWAP2 POP POP JUMP JUMPDEST PUSH2 0x2CD5 DUP3 PUSH2 0x239F JUMP JUMPDEST PUSH8 0xFFFFFFFFFFFFFFFF DUP2 GT ISZERO PUSH2 0x2CEE JUMPI PUSH2 0x2CED PUSH2 0x26A8 JUMP JUMPDEST JUMPDEST PUSH2 0x2CF8 DUP3 SLOAD PUSH2 0x2963 JUMP JUMPDEST PUSH2 0x2D03 DUP3 DUP3 DUP6 PUSH2 0x2C3F JUMP JUMPDEST PUSH1 0x0 PUSH1 0x20 SWAP1 POP PUSH1 0x1F DUP4 GT PUSH1 0x1 DUP2 EQ PUSH2 0x2D36 JUMPI PUSH1 0x0 DUP5 ISZERO PUSH2 0x2D24 JUMPI DUP3 DUP8 ADD MLOAD SWAP1 POP JUMPDEST PUSH2 0x2D2E DUP6 DUP3 PUSH2 0x2CB0 JUMP JUMPDEST DUP7 SSTORE POP PUSH2 0x2D96 JUMP JUMPDEST PUSH1 0x1F NOT DUP5 AND PUSH2 0x2D44 DUP7 PUSH2 0x2B20 JUMP JUMPDEST PUSH1 0x0 JUMPDEST DUP3 DUP2 LT ISZERO PUSH2 0x2D6C JUMPI DUP5 DUP10 ADD MLOAD DUP3 SSTORE PUSH1 0x1 DUP3 ADD SWAP2 POP PUSH1 0x20 DUP6 ADD SWAP5 POP PUSH1 0x20 DUP2 ADD SWAP1 POP PUSH2 0x2D47 JUMP JUMPDEST DUP7 DUP4 LT ISZERO PUSH2 0x2D89 JUMPI DUP5 DUP10 ADD MLOAD PUSH2 0x2D85 PUSH1 0x1F DUP10 AND DUP3 PUSH2 0x2C92 JUMP JUMPDEST DUP4 SSTORE POP JUMPDEST PUSH1 0x1 PUSH1 0x2 DUP9 MUL ADD DUP9 SSTORE POP POP POP JUMPDEST POP POP POP POP POP POP JUMP INVALID LOG2 PUSH5 0x6970667358 0x22 SLT KECCAK256 0x5C AND SWAP13 RETURNDATACOPY LOG1 0x2D XOR SWAP1 DUP6 EQ 0xDA SWAP2 GAS 0xF6 0xB9 ADDMOD ISZERO LOG0 0xB3 0xB9 0xEF 0xC5 COINBASE PUSH3 0x35A2E 0x28 DUP6 DUP3 PUSH10 0xC364736F6C6343000812 STOP CALLER "
				},
				"gasEstimates": {
					"creation": {
						"codeDepositCost": "2346400",
						"executionCost": "infinite",
						"totalCost": "infinite"
					},
					"external": {
						"allowance(address,address)": "infinite",
						"approve(address,uint256)": "infinite",
						"balanceOf(address)": "2886",
						"burn(uint256)": "infinite",
						"decimals()": "2575",
						"fetchSettings()": "infinite",
						"grantPermissionAdmin(address)": "29717",
						"maxSupply()": "2532",
						"mint(address,uint256)": "infinite",
						"mintWithVesting(address,uint256,uint256,string)": "infinite",
						"mintable()": "2554",
						"name()": "infinite",
						"release(string)": "infinite",
						"revokePermissionAdmin(address)": "29628",
						"stake(uint256)": "infinite",
						"stakeOf(address)": "2908",
						"symbol()": "infinite",
						"totalStaked()": "2532",
						"totalSupply()": "2555",
						"totalVotes()": "2533",
						"transfer(address,uint256)": "infinite",
						"transferFrom(address,address,uint256)": "infinite",
						"unstake(uint256)": "infinite",
						"update(address)": "28520",
						"updateSettings(uint256,uint256)": "infinite",
						"votesOf(address)": "2908"
					},
					"internal": {
						"burn_(address,uint256)": "infinite",
						"mintWithVesting_(address,uint256,uint256,string memory)": "infinite",
						"mint_(address,uint256)": "infinite",
						"transfer_(address,address,uint256,uint256,uint256)": "infinite"
					}
				},
				"methodIdentifiers": {
					"allowance(address,address)": "dd62ed3e",
					"approve(address,uint256)": "095ea7b3",
					"balanceOf(address)": "70a08231",
					"burn(uint256)": "42966c68",
					"decimals()": "313ce567",
					"fetchSettings()": "4c496d4f",
					"grantPermissionAdmin(address)": "96b75b1a",
					"maxSupply()": "d5abeb01",
					"mint(address,uint256)": "40c10f19",
					"mintWithVesting(address,uint256,uint256,string)": "e4f1b27c",
					"mintable()": "4bf365df",
					"name()": "06fdde03",
					"release(string)": "f34e3723",
					"revokePermissionAdmin(address)": "db3c5fca",
					"stake(uint256)": "a694fc3a",
					"stakeOf(address)": "42623360",
					"symbol()": "95d89b41",
					"totalStaked()": "817b1cd2",
					"totalSupply()": "18160ddd",
					"totalVotes()": "0d15fd77",
					"transfer(address,uint256)": "a9059cbb",
					"transferFrom(address,address,uint256)": "23b872dd",
					"unstake(uint256)": "2e17de78",
					"update(address)": "1c1b8772",
					"updateSettings(uint256,uint256)": "015af8ee",
					"votesOf(address)": "79ec5d3a"
				}
			},
			"storageLayout": {
				"storage": [
					{
						"astId": 25,
						"contract": "smart_contracts/contracts/Polygon/Token.sol:Token",
						"label": "admin",
						"offset": 0,
						"slot": "0",
						"type": "t_mapping(t_address,t_bool)"
					},
					{
						"astId": 62,
						"contract": "smart_contracts/contracts/Polygon/Token.sol:Token",
						"label": "settings",
						"offset": 0,
						"slot": "1",
						"type": "t_struct(Settings)21_storage"
					},
					{
						"astId": 65,
						"contract": "smart_contracts/contracts/Polygon/Token.sol:Token",
						"label": "meta",
						"offset": 0,
						"slot": "7",
						"type": "t_struct(Meta)46_storage"
					},
					{
						"astId": 69,
						"contract": "smart_contracts/contracts/Polygon/Token.sol:Token",
						"label": "balance",
						"offset": 0,
						"slot": "17",
						"type": "t_mapping(t_address,t_uint256)"
					},
					{
						"astId": 73,
						"contract": "smart_contracts/contracts/Polygon/Token.sol:Token",
						"label": "staked",
						"offset": 0,
						"slot": "18",
						"type": "t_mapping(t_address,t_uint256)"
					},
					{
						"astId": 77,
						"contract": "smart_contracts/contracts/Polygon/Token.sol:Token",
						"label": "votes",
						"offset": 0,
						"slot": "19",
						"type": "t_mapping(t_address,t_uint256)"
					},
					{
						"astId": 83,
						"contract": "smart_contracts/contracts/Polygon/Token.sol:Token",
						"label": "allowed",
						"offset": 0,
						"slot": "20",
						"type": "t_mapping(t_address,t_mapping(t_address,t_uint256))"
					},
					{
						"astId": 90,
						"contract": "smart_contracts/contracts/Polygon/Token.sol:Token",
						"label": "schedules",
						"offset": 0,
						"slot": "21",
						"type": "t_mapping(t_address,t_mapping(t_string_memory_ptr,t_struct(VestingSchedule)59_storage))"
					}
				],
				"types": {
					"t_address": {
						"encoding": "inplace",
						"label": "address",
						"numberOfBytes": "20"
					},
					"t_bool": {
						"encoding": "inplace",
						"label": "bool",
						"numberOfBytes": "1"
					},
					"t_mapping(t_address,t_bool)": {
						"encoding": "mapping",
						"key": "t_address",
						"label": "mapping(address => bool)",
						"numberOfBytes": "32",
						"value": "t_bool"
					},
					"t_mapping(t_address,t_mapping(t_address,t_uint256))": {
						"encoding": "mapping",
						"key": "t_address",
						"label": "mapping(address => mapping(address => uint256))",
						"numberOfBytes": "32",
						"value": "t_mapping(t_address,t_uint256)"
					},
					"t_mapping(t_address,t_mapping(t_string_memory_ptr,t_struct(VestingSchedule)59_storage))": {
						"encoding": "mapping",
						"key": "t_address",
						"label": "mapping(address => mapping(string => struct State.VestingSchedule))",
						"numberOfBytes": "32",
						"value": "t_mapping(t_string_memory_ptr,t_struct(VestingSchedule)59_storage)"
					},
					"t_mapping(t_address,t_uint256)": {
						"encoding": "mapping",
						"key": "t_address",
						"label": "mapping(address => uint256)",
						"numberOfBytes": "32",
						"value": "t_uint256"
					},
					"t_mapping(t_string_memory_ptr,t_struct(VestingSchedule)59_storage)": {
						"encoding": "mapping",
						"key": "t_string_memory_ptr",
						"label": "mapping(string => struct State.VestingSchedule)",
						"numberOfBytes": "32",
						"value": "t_struct(VestingSchedule)59_storage"
					},
					"t_string_memory_ptr": {
						"encoding": "bytes",
						"label": "string",
						"numberOfBytes": "32"
					},
					"t_string_storage": {
						"encoding": "bytes",
						"label": "string",
						"numberOfBytes": "32"
					},
					"t_struct(Meta)46_storage": {
						"encoding": "inplace",
						"label": "struct State.Meta",
						"members": [
							{
								"astId": 27,
								"contract": "smart_contracts/contracts/Polygon/Token.sol:Token",
								"label": "name",
								"offset": 0,
								"slot": "0",
								"type": "t_string_storage"
							},
							{
								"astId": 29,
								"contract": "smart_contracts/contracts/Polygon/Token.sol:Token",
								"label": "symbol",
								"offset": 0,
								"slot": "1",
								"type": "t_string_storage"
							},
							{
								"astId": 31,
								"contract": "smart_contracts/contracts/Polygon/Token.sol:Token",
								"label": "decimals",
								"offset": 0,
								"slot": "2",
								"type": "t_uint8"
							},
							{
								"astId": 33,
								"contract": "smart_contracts/contracts/Polygon/Token.sol:Token",
								"label": "mintable",
								"offset": 0,
								"slot": "3",
								"type": "t_uint256"
							},
							{
								"astId": 35,
								"contract": "smart_contracts/contracts/Polygon/Token.sol:Token",
								"label": "totalSupply",
								"offset": 0,
								"slot": "4",
								"type": "t_uint256"
							},
							{
								"astId": 37,
								"contract": "smart_contracts/contracts/Polygon/Token.sol:Token",
								"label": "totalStaked",
								"offset": 0,
								"slot": "5",
								"type": "t_uint256"
							},
							{
								"astId": 39,
								"contract": "smart_contracts/contracts/Polygon/Token.sol:Token",
								"label": "totalVested",
								"offset": 0,
								"slot": "6",
								"type": "t_uint256"
							},
							{
								"astId": 41,
								"contract": "smart_contracts/contracts/Polygon/Token.sol:Token",
								"label": "totalVotes",
								"offset": 0,
								"slot": "7",
								"type": "t_uint256"
							},
							{
								"astId": 43,
								"contract": "smart_contracts/contracts/Polygon/Token.sol:Token",
								"label": "maxSupply",
								"offset": 0,
								"slot": "8",
								"type": "t_uint256"
							},
							{
								"astId": 45,
								"contract": "smart_contracts/contracts/Polygon/Token.sol:Token",
								"label": "vault",
								"offset": 0,
								"slot": "9",
								"type": "t_address"
							}
						],
						"numberOfBytes": "320"
					},
					"t_struct(Settings)21_storage": {
						"encoding": "inplace",
						"label": "struct State.Settings",
						"members": [
							{
								"astId": 10,
								"contract": "smart_contracts/contracts/Polygon/Token.sol:Token",
								"label": "bpTransferBurnMin",
								"offset": 0,
								"slot": "0",
								"type": "t_uint256"
							},
							{
								"astId": 12,
								"contract": "smart_contracts/contracts/Polygon/Token.sol:Token",
								"label": "bpTransferBankMin",
								"offset": 0,
								"slot": "1",
								"type": "t_uint256"
							},
							{
								"astId": 14,
								"contract": "smart_contracts/contracts/Polygon/Token.sol:Token",
								"label": "bpTransferBurnMax",
								"offset": 0,
								"slot": "2",
								"type": "t_uint256"
							},
							{
								"astId": 16,
								"contract": "smart_contracts/contracts/Polygon/Token.sol:Token",
								"label": "bpTransferBankMax",
								"offset": 0,
								"slot": "3",
								"type": "t_uint256"
							},
							{
								"astId": 18,
								"contract": "smart_contracts/contracts/Polygon/Token.sol:Token",
								"label": "bpTransferBurn",
								"offset": 0,
								"slot": "4",
								"type": "t_uint256"
							},
							{
								"astId": 20,
								"contract": "smart_contracts/contracts/Polygon/Token.sol:Token",
								"label": "bpTransferBank",
								"offset": 0,
								"slot": "5",
								"type": "t_uint256"
							}
						],
						"numberOfBytes": "192"
					},
					"t_struct(VestingSchedule)59_storage": {
						"encoding": "inplace",
						"label": "struct State.VestingSchedule",
						"members": [
							{
								"astId": 48,
								"contract": "smart_contracts/contracts/Polygon/Token.sol:Token",
								"label": "caption",
								"offset": 0,
								"slot": "0",
								"type": "t_string_storage"
							},
							{
								"astId": 50,
								"contract": "smart_contracts/contracts/Polygon/Token.sol:Token",
								"label": "duration",
								"offset": 0,
								"slot": "1",
								"type": "t_uint256"
							},
							{
								"astId": 52,
								"contract": "smart_contracts/contracts/Polygon/Token.sol:Token",
								"label": "start",
								"offset": 0,
								"slot": "2",
								"type": "t_uint256"
							},
							{
								"astId": 54,
								"contract": "smart_contracts/contracts/Polygon/Token.sol:Token",
								"label": "end",
								"offset": 0,
								"slot": "3",
								"type": "t_uint256"
							},
							{
								"astId": 56,
								"contract": "smart_contracts/contracts/Polygon/Token.sol:Token",
								"label": "value",
								"offset": 0,
								"slot": "4",
								"type": "t_uint256"
							},
							{
								"astId": 58,
								"contract": "smart_contracts/contracts/Polygon/Token.sol:Token",
								"label": "used",
								"offset": 0,
								"slot": "5",
								"type": "t_bool"
							}
						],
						"numberOfBytes": "192"
					},
					"t_uint256": {
						"encoding": "inplace",
						"label": "uint256",
						"numberOfBytes": "32"
					},
					"t_uint8": {
						"encoding": "inplace",
						"label": "uint8",
						"numberOfBytes": "1"
					}
				}
			},
			"userdoc": {
				"kind": "user",
				"methods": {},
				"version": 1
			}
		}
	}
}