{
	"data": {
		"bytecode": {
			"linkReferences": {},
			"object": "61016060405234801562000011575f80fd5b50306040518060400160405280600a81526020017f447265616d546f6b656e00000000000000000000000000000000000000000000815250806040518060400160405280600181526020017f31000000000000000000000000000000000000000000000000000000000000008152506040518060400160405280600a81526020017f447265616d546f6b656e000000000000000000000000000000000000000000008152506040518060400160405280600581526020017f445245414d0000000000000000000000000000000000000000000000000000008152508160039081620000fd919062000bae565b5080600490816200010f919062000bae565b505050620001286009836200024660201b90919060201c565b610120818152505062000146600a826200024660201b90919060201c565b6101408181525050818051906020012060e08181525050808051906020012061010081815250504660a08181525050620001856200029b60201b60201c565b608081815250503073ffffffffffffffffffffffffffffffffffffffff1660c08173ffffffffffffffffffffffffffffffffffffffff1681525050505050620001d481620002f760201b60201c565b50620001ea630bebc200620003ba60201b60201c565b600e8190555062000205630bebc200620003ba60201b60201c565b600f81905550620002406200021f620003e260201b60201c565b62000234630bebc200620003ba60201b60201c565b620003e960201b60201c565b62001100565b5f6020835110156200026b5762000263836200042a60201b60201c565b905062000295565b826200027d836200049460201b60201c565b5f0190816200028d919062000bae565b5060ff5f1b90505b92915050565b5f7f8b73c3c69bb8fe3d512ecc4cf759cc79239f7b179b0ffacaa9a75d522b39400f60e051610100514630604051602001620002dc95949392919062000d00565b60405160208183030381529060405280519060200120905090565b5f600d5f9054906101000a900473ffffffffffffffffffffffffffffffffffffffff16905081600d5f6101000a81548173ffffffffffffffffffffffffffffffffffffffff021916908373ffffffffffffffffffffffffffffffffffffffff1602179055508173ffffffffffffffffffffffffffffffffffffffff168173ffffffffffffffffffffffffffffffffffffffff167f8be0079c531659141344cd1fd0a4f28419497f9722a3daafe3b4186f6b6457e060405160405180910390a35050565b5f620003cb6200049d60201b60201c565b60ff1682620003db919062000d88565b9050919050565b5f33905090565b620003fa81620004a560201b60201c565b80600e5f8282546200040d919062000dd2565b92505081905550620004268282620004f060201b60201c565b5050565b5f80829050601f815111156200047957826040517f305a27a900000000000000000000000000000000000000000000000000000000815260040162000470919062000e96565b60405180910390fd5b805181620004879062000ee7565b5f1c175f1b915050919050565b5f819050919050565b5f6012905090565b600e54811115620004ed576040517f08c379a0000000000000000000000000000000000000000000000000000000008152600401620004e49062000ff0565b60405180910390fd5b50565b5f73ffffffffffffffffffffffffffffffffffffffff168273ffffffffffffffffffffffffffffffffffffffff160362000561576040517f08c379a000000000000000000000000000000000000000000000000000000000815260040162000558906200105e565b60405180910390fd5b620005745f83836200065560201b60201c565b8060025f8282546200058791906200107e565b92505081905550805f808473ffffffffffffffffffffffffffffffffffffffff1673ffffffffffffffffffffffffffffffffffffffff1681526020019081526020015f205f82825401925050819055508173ffffffffffffffffffffffffffffffffffffffff165f73ffffffffffffffffffffffffffffffffffffffff167fddf252ad1be2c89b69c2b068fc378daa952ba7f163c4a11628f55a4df523b3ef83604051620006369190620010b8565b60405180910390a3620006515f83836200066d60201b60201c565b5050565b620006688383836200068560201b60201c565b505050565b620006808383836200077760201b60201c565b505050565b620006988383836200077c60201b60201c565b5f73ffffffffffffffffffffffffffffffffffffffff168373ffffffffffffffffffffffffffffffffffffffff1603620006f357620006dd826200078160201b60201c565b620006ed620007e260201b60201c565b62000772565b5f73ffffffffffffffffffffffffffffffffffffffff168273ffffffffffffffffffffffffffffffffffffffff16036200074e5762000738836200078160201b60201c565b62000748620007e260201b60201c565b62000771565b6200075f836200078160201b60201c565b62000770826200078160201b60201c565b5b5b505050565b505050565b505050565b620007df60055f8373ffffffffffffffffffffffffffffffffffffffff1673ffffffffffffffffffffffffffffffffffffffff1681526020019081526020015f20620007d3836200080660201b60201c565b6200084b60201b60201c565b50565b620008046006620007f8620008ce60201b60201c565b6200084b60201b60201c565b565b5f805f8373ffffffffffffffffffffffffffffffffffffffff1673ffffffffffffffffffffffffffffffffffffffff1681526020019081526020015f20549050919050565b5f6200085c620008d760201b60201c565b90508062000872845f01620008ef60201b60201c565b1015620008c957825f0181908060018154018082558091505060019003905f5260205f20015f90919091909150558260010182908060018154018082558091505060019003905f5260205f20015f90919091909150555b505050565b5f600254905090565b5f620008ea60086200093e60201b60201c565b905090565b5f8082805490500362000905575f905062000939565b816001838054905062000919919062000dd2565b815481106200092d576200092c620010d3565b5b905f5260205f20015490505b919050565b5f815f01549050919050565b5f81519050919050565b7f4e487b71000000000000000000000000000000000000000000000000000000005f52604160045260245ffd5b7f4e487b71000000000000000000000000000000000000000000000000000000005f52602260045260245ffd5b5f6002820490506001821680620009c657607f821691505b602082108103620009dc57620009db62000981565b5b50919050565b5f819050815f5260205f209050919050565b5f6020601f8301049050919050565b5f82821b905092915050565b5f6008830262000a407fffffffffffffffffffffffffffffffffffffffffffffffffffffffffffffffff8262000a03565b62000a4c868362000a03565b95508019841693508086168417925050509392505050565b5f819050919050565b5f819050919050565b5f62000a9662000a9062000a8a8462000a64565b62000a6d565b62000a64565b9050919050565b5f819050919050565b62000ab18362000a76565b62000ac962000ac08262000a9d565b84845462000a0f565b825550505050565b5f90565b62000adf62000ad1565b62000aec81848462000aa6565b505050565b5b8181101562000b135762000b075f8262000ad5565b60018101905062000af2565b5050565b601f82111562000b625762000b2c81620009e2565b62000b3784620009f4565b8101602085101562000b47578190505b62000b5f62000b5685620009f4565b83018262000af1565b50505b505050565b5f82821c905092915050565b5f62000b845f198460080262000b67565b1980831691505092915050565b5f62000b9e838362000b73565b9150826002028217905092915050565b62000bb9826200094a565b67ffffffffffffffff81111562000bd55762000bd462000954565b5b62000be18254620009ae565b62000bee82828562000b17565b5f60209050601f83116001811462000c24575f841562000c0f578287015190505b62000c1b858262000b91565b86555062000c8a565b601f19841662000c3486620009e2565b5f5b8281101562000c5d5784890151825560018201915060208501945060208101905062000c36565b8683101562000c7d578489015162000c79601f89168262000b73565b8355505b6001600288020188555050505b505050505050565b5f819050919050565b62000ca68162000c92565b82525050565b62000cb78162000a64565b82525050565b5f73ffffffffffffffffffffffffffffffffffffffff82169050919050565b5f62000ce88262000cbd565b9050919050565b62000cfa8162000cdc565b82525050565b5f60a08201905062000d155f83018862000c9b565b62000d24602083018762000c9b565b62000d33604083018662000c9b565b62000d42606083018562000cac565b62000d51608083018462000cef565b9695505050505050565b7f4e487b71000000000000000000000000000000000000000000000000000000005f52601160045260245ffd5b5f62000d948262000a64565b915062000da18362000a64565b925082820262000db18162000a64565b9150828204841483151762000dcb5762000dca62000d5b565b5b5092915050565b5f62000dde8262000a64565b915062000deb8362000a64565b925082820390508181111562000e065762000e0562000d5b565b5b92915050565b5f82825260208201905092915050565b5f5b8381101562000e3b57808201518184015260208101905062000e1e565b5f8484015250505050565b5f601f19601f8301169050919050565b5f62000e62826200094a565b62000e6e818562000e0c565b935062000e8081856020860162000e1c565b62000e8b8162000e46565b840191505092915050565b5f6020820190508181035f83015262000eb0818462000e56565b905092915050565b5f81519050919050565b5f819050602082019050919050565b5f62000ede825162000c92565b80915050919050565b5f62000ef38262000eb8565b8262000eff8462000ec2565b905062000f0c8162000ed1565b9250602082101562000f4f5762000f4a7fffffffffffffffffffffffffffffffffffffffffffffffffffffffffffffffff8360200360080262000a03565b831692505b5050919050565b7f496e73756666696369656e74206d696e7461626c6520616d6f756e742e2054685f8201527f652072657175657374656420616d6f756e74206578636565647320746865206160208201527f7661696c61626c65206d696e7461626c6520746f6b656e732e00000000000000604082015250565b5f62000fd860598362000e0c565b915062000fe58262000f56565b606082019050919050565b5f6020820190508181035f830152620010098162000fca565b9050919050565b7f45524332303a206d696e7420746f20746865207a65726f2061646472657373005f82015250565b5f62001046601f8362000e0c565b9150620010538262001010565b602082019050919050565b5f6020820190508181035f830152620010778162001038565b9050919050565b5f6200108a8262000a64565b9150620010978362000a64565b9250828201905080821115620010b257620010b162000d5b565b5b92915050565b5f602082019050620010cd5f83018462000cac565b92915050565b7f4e487b71000000000000000000000000000000000000000000000000000000005f52603260045260245ffd5b60805160a05160c05160e051610100516101205161014051613046620011525f395f61082601525f6107f201525f61169301525f61167201525f61116d01525f6111c301525f6111ec01526130465ff3fe608060405234801561000f575f80fd5b506004361061018c575f3560e01c8063715018a6116100dc578063981b24d011610095578063d505accf1161006f578063d505accf146104b4578063d5abeb01146104d0578063dd62ed3e146104ee578063f2fde38b1461051e5761018c565b8063981b24d014610424578063a457c2d714610454578063a9059cbb146104845761018c565b8063715018a61461036e57806379cc6790146103785780637ecebe001461039457806384b0196e146103c45780638da5cb5b146103e857806395d89b41146104065761018c565b806339509351116101495780634ee2cd7e116101235780634ee2cd7e146102d25780635439ad861461030257806368e4c64e1461032057806370a082311461033e5761018c565b8063395093511461026857806342966c68146102985780634bf365df146102b45761018c565b806306fdde0314610190578063095ea7b3146101ae57806318160ddd146101de57806323b872dd146101fc578063313ce5671461022c5780633644e5151461024a575b5f80fd5b61019861053a565b6040516101a59190611f5e565b60405180910390f35b6101c860048036038101906101c3919061200f565b6105ca565b6040516101d59190612067565b60405180910390f35b6101e66105ec565b6040516101f3919061208f565b60405180910390f35b610216600480360381019061021191906120a8565b6105f5565b6040516102239190612067565b60405180910390f35b610234610623565b6040516102419190612113565b60405180910390f35b61025261062b565b60405161025f9190612144565b60405180910390f35b610282600480360381019061027d919061200f565b610639565b60405161028f9190612067565b60405180910390f35b6102b260048036038101906102ad919061215d565b61066f565b005b6102bc610683565b6040516102c9919061208f565b60405180910390f35b6102ec60048036038101906102e7919061200f565b61068c565b6040516102f9919061208f565b60405180910390f35b61030a6106f8565b604051610317919061208f565b60405180910390f35b610328610706565b604051610335919061208f565b60405180910390f35b61035860048036038101906103539190612188565b61071d565b604051610365919061208f565b60405180910390f35b610376610762565b005b610392600480360381019061038d919061200f565b610775565b005b6103ae60048036038101906103a99190612188565b610795565b6040516103bb919061208f565b60405180910390f35b6103cc6107e2565b6040516103df97969594939291906122b3565b60405180910390f35b6103f06108df565b6040516103fd9190612335565b60405180910390f35b61040e610907565b60405161041b9190611f5e565b60405180910390f35b61043e6004803603810190610439919061215d565b610997565b60405161044b919061208f565b60405180910390f35b61046e6004803603810190610469919061200f565b6109c6565b60405161047b9190612067565b60405180910390f35b61049e6004803603810190610499919061200f565b610a3b565b6040516104ab9190612067565b60405180910390f35b6104ce60048036038101906104c991906123a2565b610a5d565b005b6104d8610b9c565b6040516104e5919061208f565b60405180910390f35b6105086004803603810190610503919061243f565b610ba5565b604051610515919061208f565b60405180910390f35b61053860048036038101906105339190612188565b610c27565b005b606060038054610549906124aa565b80601f0160208091040260200160405190810160405280929190818152602001828054610575906124aa565b80156105c05780601f10610597576101008083540402835291602001916105c0565b820191905f5260205f20905b8154815290600101906020018083116105a357829003601f168201915b5050505050905090565b5f806105d4610ca9565b90506105e1818585610cb0565b600191505092915050565b5f600254905090565b5f806105ff610ca9565b905061060c858285610e73565b610617858585610efe565b60019150509392505050565b5f6012905090565b5f61063461116a565b905090565b5f80610643610ca9565b90506106648185856106558589610ba5565b61065f9190612507565b610cb0565b600191505092915050565b61068061067a610ca9565b82611220565b50565b5f600e54905090565b5f805f6106d58460055f8873ffffffffffffffffffffffffffffffffffffffff1673ffffffffffffffffffffffffffffffffffffffff1681526020019081526020015f20611246565b91509150816106ec576106e78561071d565b6106ee565b805b9250505092915050565b5f610701611333565b905090565b5f61070f611343565b50610718611333565b905090565b5f805f8373ffffffffffffffffffffffffffffffffffffffff1673ffffffffffffffffffffffffffffffffffffffff1681526020019081526020015f20549050919050565b61076a611397565b6107735f611415565b565b61078782610781610ca9565b83610e73565b6107918282611220565b5050565b5f6107db600b5f8473ffffffffffffffffffffffffffffffffffffffff1673ffffffffffffffffffffffffffffffffffffffff1681526020019081526020015f206114d8565b9050919050565b5f6060805f805f606061081f60097f00000000000000000000000000000000000000000000000000000000000000006114e490919063ffffffff16565b610853600a7f00000000000000000000000000000000000000000000000000000000000000006114e490919063ffffffff16565b46305f801b5f67ffffffffffffffff8111156108725761087161253a565b5b6040519080825280602002602001820160405280156108a05781602001602082028036833780820191505090505b507f0f00000000000000000000000000000000000000000000000000000000000000959493929190965096509650965096509650965090919293949596565b5f600d5f9054906101000a900473ffffffffffffffffffffffffffffffffffffffff16905090565b606060048054610916906124aa565b80601f0160208091040260200160405190810160405280929190818152602001828054610942906124aa565b801561098d5780601f106109645761010080835404028352916020019161098d565b820191905f5260205f20905b81548152906001019060200180831161097057829003601f168201915b5050505050905090565b5f805f6109a5846006611246565b91509150816109bb576109b66105ec565b6109bd565b805b92505050919050565b5f806109d0610ca9565b90505f6109dd8286610ba5565b905083811015610a22576040517f08c379a0000000000000000000000000000000000000000000000000000000008152600401610a19906125d7565b60405180910390fd5b610a2f8286868403610cb0565b60019250505092915050565b5f80610a45610ca9565b9050610a52818585610efe565b600191505092915050565b83421115610aa0576040517f08c379a0000000000000000000000000000000000000000000000000000000008152600401610a979061263f565b60405180910390fd5b5f7f6e71edae12b1b97f4d1f60370fef10105fa2faae0126114a169c64845d6126c9888888610ace8c611591565b89604051602001610ae49695949392919061265d565b6040516020818303038152906040528051906020012090505f610b06826115ec565b90505f610b1582878787611605565b90508973ffffffffffffffffffffffffffffffffffffffff168173ffffffffffffffffffffffffffffffffffffffff1614610b85576040517f08c379a0000000000000000000000000000000000000000000000000000000008152600401610b7c90612706565b60405180910390fd5b610b908a8a8a610cb0565b50505050505050505050565b5f600f54905090565b5f60015f8473ffffffffffffffffffffffffffffffffffffffff1673ffffffffffffffffffffffffffffffffffffffff1681526020019081526020015f205f8373ffffffffffffffffffffffffffffffffffffffff1673ffffffffffffffffffffffffffffffffffffffff1681526020019081526020015f2054905092915050565b610c2f611397565b5f73ffffffffffffffffffffffffffffffffffffffff168173ffffffffffffffffffffffffffffffffffffffff1603610c9d576040517f08c379a0000000000000000000000000000000000000000000000000000000008152600401610c9490612794565b60405180910390fd5b610ca681611415565b50565b5f33905090565b5f73ffffffffffffffffffffffffffffffffffffffff168373ffffffffffffffffffffffffffffffffffffffff1603610d1e576040517f08c379a0000000000000000000000000000000000000000000000000000000008152600401610d1590612822565b60405180910390fd5b5f73ffffffffffffffffffffffffffffffffffffffff168273ffffffffffffffffffffffffffffffffffffffff1603610d8c576040517f08c379a0000000000000000000000000000000000000000000000000000000008152600401610d83906128b0565b60405180910390fd5b8060015f8573ffffffffffffffffffffffffffffffffffffffff1673ffffffffffffffffffffffffffffffffffffffff1681526020019081526020015f205f8473ffffffffffffffffffffffffffffffffffffffff1673ffffffffffffffffffffffffffffffffffffffff1681526020019081526020015f20819055508173ffffffffffffffffffffffffffffffffffffffff168373ffffffffffffffffffffffffffffffffffffffff167f8c5be1e5ebec7d5bd14f71427d1e84f3dd0314c0f7b2291e5b200ac8c7c3b92583604051610e66919061208f565b60405180910390a3505050565b5f610e7e8484610ba5565b90507fffffffffffffffffffffffffffffffffffffffffffffffffffffffffffffffff8114610ef85781811015610eea576040517f08c379a0000000000000000000000000000000000000000000000000000000008152600401610ee190612918565b60405180910390fd5b610ef78484848403610cb0565b5b50505050565b5f73ffffffffffffffffffffffffffffffffffffffff168373ffffffffffffffffffffffffffffffffffffffff1603610f6c576040517f08c379a0000000000000000000000000000000000000000000000000000000008152600401610f63906129a6565b60405180910390fd5b5f73ffffffffffffffffffffffffffffffffffffffff168273ffffffffffffffffffffffffffffffffffffffff1603610fda576040517f08c379a0000000000000000000000000000000000000000000000000000000008152600401610fd190612a34565b60405180910390fd5b610fe583838361162e565b5f805f8573ffffffffffffffffffffffffffffffffffffffff1673ffffffffffffffffffffffffffffffffffffffff1681526020019081526020015f2054905081811015611068576040517f08c379a000000000000000000000000000000000000000000000000000000000815260040161105f90612ac2565b60405180910390fd5b8181035f808673ffffffffffffffffffffffffffffffffffffffff1673ffffffffffffffffffffffffffffffffffffffff1681526020019081526020015f2081905550815f808573ffffffffffffffffffffffffffffffffffffffff1673ffffffffffffffffffffffffffffffffffffffff1681526020019081526020015f205f82825401925050819055508273ffffffffffffffffffffffffffffffffffffffff168473ffffffffffffffffffffffffffffffffffffffff167fddf252ad1be2c89b69c2b068fc378daa952ba7f163c4a11628f55a4df523b3ef84604051611151919061208f565b60405180910390a361116484848461163e565b50505050565b5f7f000000000000000000000000000000000000000000000000000000000000000073ffffffffffffffffffffffffffffffffffffffff163073ffffffffffffffffffffffffffffffffffffffff161480156111e557507f000000000000000000000000000000000000000000000000000000000000000046145b15611212577f0000000000000000000000000000000000000000000000000000000000000000905061121d565b61121a61164e565b90505b90565b80600f5f8282546112319190612ae0565b9250508190555061124282826116e3565b5050565b5f805f841161128a576040517f08c379a000000000000000000000000000000000000000000000000000000000815260040161128190612b5d565b60405180910390fd5b611292611333565b8411156112d4576040517f08c379a00000000000000000000000000000000000000000000000000000000081526004016112cb90612bc5565b60405180910390fd5b5f6112ea85855f016118a690919063ffffffff16565b9050835f01805490508103611305575f80925092505061132c565b600184600101828154811061131d5761131c612be3565b5b905f5260205f20015492509250505b9250929050565b5f61133e60086114d8565b905090565b5f61134e6008611958565b5f611357611333565b90507f8030e83b04d87bef53480e26263266d6ca66863aa8506aca6f2559d18aa1cb6781604051611388919061208f565b60405180910390a18091505090565b61139f610ca9565b73ffffffffffffffffffffffffffffffffffffffff166113bd6108df565b73ffffffffffffffffffffffffffffffffffffffff1614611413576040517f08c379a000000000000000000000000000000000000000000000000000000000815260040161140a90612c5a565b60405180910390fd5b565b5f600d5f9054906101000a900473ffffffffffffffffffffffffffffffffffffffff16905081600d5f6101000a81548173ffffffffffffffffffffffffffffffffffffffff021916908373ffffffffffffffffffffffffffffffffffffffff1602179055508173ffffffffffffffffffffffffffffffffffffffff168173ffffffffffffffffffffffffffffffffffffffff167f8be0079c531659141344cd1fd0a4f28419497f9722a3daafe3b4186f6b6457e060405160405180910390a35050565b5f815f01549050919050565b606060ff5f1b8314611500576114f98361196c565b905061158b565b81805461150c906124aa565b80601f0160208091040260200160405190810160405280929190818152602001828054611538906124aa565b80156115835780601f1061155a57610100808354040283529160200191611583565b820191905f5260205f20905b81548152906001019060200180831161156657829003601f168201915b505050505090505b92915050565b5f80600b5f8473ffffffffffffffffffffffffffffffffffffffff1673ffffffffffffffffffffffffffffffffffffffff1681526020019081526020015f2090506115db816114d8565b91506115e681611958565b50919050565b5f6115fe6115f861116a565b836119de565b9050919050565b5f805f61161487878787611a1e565b9150915061162181611af6565b8192505050949350505050565b611639838383611c5a565b505050565b611649838383611d10565b505050565b5f7f8b73c3c69bb8fe3d512ecc4cf759cc79239f7b179b0ffacaa9a75d522b39400f7f00000000000000000000000000000000000000000000000000000000000000007f000000000000000000000000000000000000000000000000000000000000000046306040516020016116c8959493929190612c78565b60405160208183030381529060405280519060200120905090565b5f73ffffffffffffffffffffffffffffffffffffffff168273ffffffffffffffffffffffffffffffffffffffff1603611751576040517f08c379a000000000000000000000000000000000000000000000000000000000815260040161174890612d39565b60405180910390fd5b61175c825f8361162e565b5f805f8473ffffffffffffffffffffffffffffffffffffffff1673ffffffffffffffffffffffffffffffffffffffff1681526020019081526020015f20549050818110156117df576040517f08c379a00000000000000000000000000000000000000000000000000000000081526004016117d690612dc7565b60405180910390fd5b8181035f808573ffffffffffffffffffffffffffffffffffffffff1673ffffffffffffffffffffffffffffffffffffffff1681526020019081526020015f20819055508160025f82825403925050819055505f73ffffffffffffffffffffffffffffffffffffffff168373ffffffffffffffffffffffffffffffffffffffff167fddf252ad1be2c89b69c2b068fc378daa952ba7f163c4a11628f55a4df523b3ef8460405161188e919061208f565b60405180910390a36118a1835f8461163e565b505050565b5f808380549050036118ba575f9050611952565b5f80848054905090505b8082101561190b575f6118d78383611d15565b9050846118e48783611d3a565b5f015411156118f557809150611905565b6001816119029190612507565b92505b506118c4565b5f8211801561193157508361192c866001856119279190612ae0565b611d3a565b5f0154145b1561194c576001826119439190612ae0565b92505050611952565b81925050505b92915050565b6001815f015f828254019250508190555050565b60605f61197883611d59565b90505f602067ffffffffffffffff8111156119965761199561253a565b5b6040519080825280601f01601f1916602001820160405280156119c85781602001600182028036833780820191505090505b5090508181528360208201528092505050919050565b5f6040517f190100000000000000000000000000000000000000000000000000000000000081528360028201528260228201526042812091505092915050565b5f807f7fffffffffffffffffffffffffffffff5d576e7357a4501ddfe92f46681b20a0835f1c1115611a56575f600391509150611aed565b5f6001878787876040515f8152602001604052604051611a799493929190612de5565b6020604051602081039080840390855afa158015611a99573d5f803e3d5ffd5b5050506020604051035190505f73ffffffffffffffffffffffffffffffffffffffff168173ffffffffffffffffffffffffffffffffffffffff1603611ae5575f60019250925050611aed565b805f92509250505b94509492505050565b5f6003811115611b0957611b08612e28565b5b816003811115611b1c57611b1b612e28565b5b0315611c575760016003811115611b3657611b35612e28565b5b816003811115611b4957611b48612e28565b5b03611b89576040517f08c379a0000000000000000000000000000000000000000000000000000000008152600401611b8090612e9f565b60405180910390fd5b60026003811115611b9d57611b9c612e28565b5b816003811115611bb057611baf612e28565b5b03611bf0576040517f08c379a0000000000000000000000000000000000000000000000000000000008152600401611be790612f07565b60405180910390fd5b600380811115611c0357611c02612e28565b5b816003811115611c1657611c15612e28565b5b03611c56576040517f08c379a0000000000000000000000000000000000000000000000000000000008152600401611c4d90612f95565b60405180910390fd5b5b50565b611c65838383611da7565b5f73ffffffffffffffffffffffffffffffffffffffff168373ffffffffffffffffffffffffffffffffffffffff1603611cae57611ca182611dac565b611ca9611dfd565b611d0b565b5f73ffffffffffffffffffffffffffffffffffffffff168273ffffffffffffffffffffffffffffffffffffffff1603611cf757611cea83611dac565b611cf2611dfd565b611d0a565b611d0083611dac565b611d0982611dac565b5b5b505050565b505050565b5f6002828418611d259190612fe0565b828416611d329190612507565b905092915050565b5f80835f528260205f20019050611d5081611e11565b91505092915050565b5f8060ff835f1c169050601f811115611d9e576040517fb3512b0c00000000000000000000000000000000000000000000000000000000815260040160405180910390fd5b80915050919050565b505050565b611dfa60055f8373ffffffffffffffffffffffffffffffffffffffff1673ffffffffffffffffffffffffffffffffffffffff1681526020019081526020015f20611df58361071d565b611e1a565b50565b611e0f6006611e0a6105ec565b611e1a565b565b5f819050919050565b5f611e23611333565b905080611e31845f01611e8c565b1015611e8757825f0181908060018154018082558091505060019003905f5260205f20015f90919091909150558260010182908060018154018082558091505060019003905f5260205f20015f90919091909150555b505050565b5f80828054905003611ea0575f9050611ecf565b8160018380549050611eb29190612ae0565b81548110611ec357611ec2612be3565b5b905f5260205f20015490505b919050565b5f81519050919050565b5f82825260208201905092915050565b5f5b83811015611f0b578082015181840152602081019050611ef0565b5f8484015250505050565b5f601f19601f8301169050919050565b5f611f3082611ed4565b611f3a8185611ede565b9350611f4a818560208601611eee565b611f5381611f16565b840191505092915050565b5f6020820190508181035f830152611f768184611f26565b905092915050565b5f80fd5b5f73ffffffffffffffffffffffffffffffffffffffff82169050919050565b5f611fab82611f82565b9050919050565b611fbb81611fa1565b8114611fc5575f80fd5b50565b5f81359050611fd681611fb2565b92915050565b5f819050919050565b611fee81611fdc565b8114611ff8575f80fd5b50565b5f8135905061200981611fe5565b92915050565b5f806040838503121561202557612024611f7e565b5b5f61203285828601611fc8565b925050602061204385828601611ffb565b9150509250929050565b5f8115159050919050565b6120618161204d565b82525050565b5f60208201905061207a5f830184612058565b92915050565b61208981611fdc565b82525050565b5f6020820190506120a25f830184612080565b92915050565b5f805f606084860312156120bf576120be611f7e565b5b5f6120cc86828701611fc8565b93505060206120dd86828701611fc8565b92505060406120ee86828701611ffb565b9150509250925092565b5f60ff82169050919050565b61210d816120f8565b82525050565b5f6020820190506121265f830184612104565b92915050565b5f819050919050565b61213e8161212c565b82525050565b5f6020820190506121575f830184612135565b92915050565b5f6020828403121561217257612171611f7e565b5b5f61217f84828501611ffb565b91505092915050565b5f6020828403121561219d5761219c611f7e565b5b5f6121aa84828501611fc8565b91505092915050565b5f7fff0000000000000000000000000000000000000000000000000000000000000082169050919050565b6121e7816121b3565b82525050565b6121f681611fa1565b82525050565b5f81519050919050565b5f82825260208201905092915050565b5f819050602082019050919050565b61222e81611fdc565b82525050565b5f61223f8383612225565b60208301905092915050565b5f602082019050919050565b5f612261826121fc565b61226b8185612206565b935061227683612216565b805f5b838110156122a657815161228d8882612234565b97506122988361224b565b925050600181019050612279565b5085935050505092915050565b5f60e0820190506122c65f83018a6121de565b81810360208301526122d88189611f26565b905081810360408301526122ec8188611f26565b90506122fb6060830187612080565b61230860808301866121ed565b61231560a0830185612135565b81810360c08301526123278184612257565b905098975050505050505050565b5f6020820190506123485f8301846121ed565b92915050565b612357816120f8565b8114612361575f80fd5b50565b5f813590506123728161234e565b92915050565b6123818161212c565b811461238b575f80fd5b50565b5f8135905061239c81612378565b92915050565b5f805f805f805f60e0888a0312156123bd576123bc611f7e565b5b5f6123ca8a828b01611fc8565b97505060206123db8a828b01611fc8565b96505060406123ec8a828b01611ffb565b95505060606123fd8a828b01611ffb565b945050608061240e8a828b01612364565b93505060a061241f8a828b0161238e565b92505060c06124308a828b0161238e565b91505092959891949750929550565b5f806040838503121561245557612454611f7e565b5b5f61246285828601611fc8565b925050602061247385828601611fc8565b9150509250929050565b7f4e487b71000000000000000000000000000000000000000000000000000000005f52602260045260245ffd5b5f60028204905060018216806124c157607f821691505b6020821081036124d4576124d361247d565b5b50919050565b7f4e487b71000000000000000000000000000000000000000000000000000000005f52601160045260245ffd5b5f61251182611fdc565b915061251c83611fdc565b9250828201905080821115612534576125336124da565b5b92915050565b7f4e487b71000000000000000000000000000000000000000000000000000000005f52604160045260245ffd5b7f45524332303a2064656372656173656420616c6c6f77616e63652062656c6f775f8201527f207a65726f000000000000000000000000000000000000000000000000000000602082015250565b5f6125c1602583611ede565b91506125cc82612567565b604082019050919050565b5f6020820190508181035f8301526125ee816125b5565b9050919050565b7f45524332305065726d69743a206578706972656420646561646c696e650000005f82015250565b5f612629601d83611ede565b9150612634826125f5565b602082019050919050565b5f6020820190508181035f8301526126568161261d565b9050919050565b5f60c0820190506126705f830189612135565b61267d60208301886121ed565b61268a60408301876121ed565b6126976060830186612080565b6126a46080830185612080565b6126b160a0830184612080565b979650505050505050565b7f45524332305065726d69743a20696e76616c6964207369676e617475726500005f82015250565b5f6126f0601e83611ede565b91506126fb826126bc565b602082019050919050565b5f6020820190508181035f83015261271d816126e4565b9050919050565b7f4f776e61626c653a206e6577206f776e657220697320746865207a65726f20615f8201527f6464726573730000000000000000000000000000000000000000000000000000602082015250565b5f61277e602683611ede565b915061278982612724565b604082019050919050565b5f6020820190508181035f8301526127ab81612772565b9050919050565b7f45524332303a20617070726f76652066726f6d20746865207a65726f206164645f8201527f7265737300000000000000000000000000000000000000000000000000000000602082015250565b5f61280c602483611ede565b9150612817826127b2565b604082019050919050565b5f6020820190508181035f83015261283981612800565b9050919050565b7f45524332303a20617070726f766520746f20746865207a65726f2061646472655f8201527f7373000000000000000000000000000000000000000000000000000000000000602082015250565b5f61289a602283611ede565b91506128a582612840565b604082019050919050565b5f6020820190508181035f8301526128c78161288e565b9050919050565b7f45524332303a20696e73756666696369656e7420616c6c6f77616e63650000005f82015250565b5f612902601d83611ede565b915061290d826128ce565b602082019050919050565b5f6020820190508181035f83015261292f816128f6565b9050919050565b7f45524332303a207472616e736665722066726f6d20746865207a65726f2061645f8201527f6472657373000000000000000000000000000000000000000000000000000000602082015250565b5f612990602583611ede565b915061299b82612936565b604082019050919050565b5f6020820190508181035f8301526129bd81612984565b9050919050565b7f45524332303a207472616e7366657220746f20746865207a65726f20616464725f8201527f6573730000000000000000000000000000000000000000000000000000000000602082015250565b5f612a1e602383611ede565b9150612a29826129c4565b604082019050919050565b5f6020820190508181035f830152612a4b81612a12565b9050919050565b7f45524332303a207472616e7366657220616d6f756e74206578636565647320625f8201527f616c616e63650000000000000000000000000000000000000000000000000000602082015250565b5f612aac602683611ede565b9150612ab782612a52565b604082019050919050565b5f6020820190508181035f830152612ad981612aa0565b9050919050565b5f612aea82611fdc565b9150612af583611fdc565b9250828203905081811115612b0d57612b0c6124da565b5b92915050565b7f4552433230536e617073686f743a2069642069732030000000000000000000005f82015250565b5f612b47601683611ede565b9150612b5282612b13565b602082019050919050565b5f6020820190508181035f830152612b7481612b3b565b9050919050565b7f4552433230536e617073686f743a206e6f6e6578697374656e742069640000005f82015250565b5f612baf601d83611ede565b9150612bba82612b7b565b602082019050919050565b5f6020820190508181035f830152612bdc81612ba3565b9050919050565b7f4e487b71000000000000000000000000000000000000000000000000000000005f52603260045260245ffd5b7f4f776e61626c653a2063616c6c6572206973206e6f7420746865206f776e65725f82015250565b5f612c44602083611ede565b9150612c4f82612c10565b602082019050919050565b5f6020820190508181035f830152612c7181612c38565b9050919050565b5f60a082019050612c8b5f830188612135565b612c986020830187612135565b612ca56040830186612135565b612cb26060830185612080565b612cbf60808301846121ed565b9695505050505050565b7f45524332303a206275726e2066726f6d20746865207a65726f206164647265735f8201527f7300000000000000000000000000000000000000000000000000000000000000602082015250565b5f612d23602183611ede565b9150612d2e82612cc9565b604082019050919050565b5f6020820190508181035f830152612d5081612d17565b9050919050565b7f45524332303a206275726e20616d6f756e7420657863656564732062616c616e5f8201527f6365000000000000000000000000000000000000000000000000000000000000602082015250565b5f612db1602283611ede565b9150612dbc82612d57565b604082019050919050565b5f6020820190508181035f830152612dde81612da5565b9050919050565b5f608082019050612df85f830187612135565b612e056020830186612104565b612e126040830185612135565b612e1f6060830184612135565b95945050505050565b7f4e487b71000000000000000000000000000000000000000000000000000000005f52602160045260245ffd5b7f45434453413a20696e76616c6964207369676e617475726500000000000000005f82015250565b5f612e89601883611ede565b9150612e9482612e55565b602082019050919050565b5f6020820190508181035f830152612eb681612e7d565b9050919050565b7f45434453413a20696e76616c6964207369676e6174757265206c656e677468005f82015250565b5f612ef1601f83611ede565b9150612efc82612ebd565b602082019050919050565b5f6020820190508181035f830152612f1e81612ee5565b9050919050565b7f45434453413a20696e76616c6964207369676e6174757265202773272076616c5f8201527f7565000000000000000000000000000000000000000000000000000000000000602082015250565b5f612f7f602283611ede565b9150612f8a82612f25565b604082019050919050565b5f6020820190508181035f830152612fac81612f73565b9050919050565b7f4e487b71000000000000000000000000000000000000000000000000000000005f52601260045260245ffd5b5f612fea82611fdc565b9150612ff583611fdc565b92508261300557613004612fb3565b5b82820490509291505056fea2646970667358221220ba86926c4f0ae547036270fc24252682fcb5fb23dc9249abd2cb128c0c94b87c64736f6c63430008140033",
			"opcodes": "PUSH2 0x160 PUSH1 0x40 MSTORE CALLVALUE DUP1 ISZERO PUSH3 0x11 JUMPI PUSH0 DUP1 REVERT JUMPDEST POP ADDRESS PUSH1 0x40 MLOAD DUP1 PUSH1 0x40 ADD PUSH1 0x40 MSTORE DUP1 PUSH1 0xA DUP2 MSTORE PUSH1 0x20 ADD PUSH32 0x447265616D546F6B656E00000000000000000000000000000000000000000000 DUP2 MSTORE POP DUP1 PUSH1 0x40 MLOAD DUP1 PUSH1 0x40 ADD PUSH1 0x40 MSTORE DUP1 PUSH1 0x1 DUP2 MSTORE PUSH1 0x20 ADD PUSH32 0x3100000000000000000000000000000000000000000000000000000000000000 DUP2 MSTORE POP PUSH1 0x40 MLOAD DUP1 PUSH1 0x40 ADD PUSH1 0x40 MSTORE DUP1 PUSH1 0xA DUP2 MSTORE PUSH1 0x20 ADD PUSH32 0x447265616D546F6B656E00000000000000000000000000000000000000000000 DUP2 MSTORE POP PUSH1 0x40 MLOAD DUP1 PUSH1 0x40 ADD PUSH1 0x40 MSTORE DUP1 PUSH1 0x5 DUP2 MSTORE PUSH1 0x20 ADD PUSH32 0x445245414D000000000000000000000000000000000000000000000000000000 DUP2 MSTORE POP DUP2 PUSH1 0x3 SWAP1 DUP2 PUSH3 0xFD SWAP2 SWAP1 PUSH3 0xBAE JUMP JUMPDEST POP DUP1 PUSH1 0x4 SWAP1 DUP2 PUSH3 0x10F SWAP2 SWAP1 PUSH3 0xBAE JUMP JUMPDEST POP POP POP PUSH3 0x128 PUSH1 0x9 DUP4 PUSH3 0x246 PUSH1 0x20 SHL SWAP1 SWAP2 SWAP1 PUSH1 0x20 SHR JUMP JUMPDEST PUSH2 0x120 DUP2 DUP2 MSTORE POP POP PUSH3 0x146 PUSH1 0xA DUP3 PUSH3 0x246 PUSH1 0x20 SHL SWAP1 SWAP2 SWAP1 PUSH1 0x20 SHR JUMP JUMPDEST PUSH2 0x140 DUP2 DUP2 MSTORE POP POP DUP2 DUP1 MLOAD SWAP1 PUSH1 0x20 ADD KECCAK256 PUSH1 0xE0 DUP2 DUP2 MSTORE POP POP DUP1 DUP1 MLOAD SWAP1 PUSH1 0x20 ADD KECCAK256 PUSH2 0x100 DUP2 DUP2 MSTORE POP POP CHAINID PUSH1 0xA0 DUP2 DUP2 MSTORE POP POP PUSH3 0x185 PUSH3 0x29B PUSH1 0x20 SHL PUSH1 0x20 SHR JUMP JUMPDEST PUSH1 0x80 DUP2 DUP2 MSTORE POP POP ADDRESS PUSH20 0xFFFFFFFFFFFFFFFFFFFFFFFFFFFFFFFFFFFFFFFF AND PUSH1 0xC0 DUP2 PUSH20 0xFFFFFFFFFFFFFFFFFFFFFFFFFFFFFFFFFFFFFFFF AND DUP2 MSTORE POP POP POP POP POP PUSH3 0x1D4 DUP2 PUSH3 0x2F7 PUSH1 0x20 SHL PUSH1 0x20 SHR JUMP JUMPDEST POP PUSH3 0x1EA PUSH4 0xBEBC200 PUSH3 0x3BA PUSH1 0x20 SHL PUSH1 0x20 SHR JUMP JUMPDEST PUSH1 0xE DUP2 SWAP1 SSTORE POP PUSH3 0x205 PUSH4 0xBEBC200 PUSH3 0x3BA PUSH1 0x20 SHL PUSH1 0x20 SHR JUMP JUMPDEST PUSH1 0xF DUP2 SWAP1 SSTORE POP PUSH3 0x240 PUSH3 0x21F PUSH3 0x3E2 PUSH1 0x20 SHL PUSH1 0x20 SHR JUMP JUMPDEST PUSH3 0x234 PUSH4 0xBEBC200 PUSH3 0x3BA PUSH1 0x20 SHL PUSH1 0x20 SHR JUMP JUMPDEST PUSH3 0x3E9 PUSH1 0x20 SHL PUSH1 0x20 SHR JUMP JUMPDEST PUSH3 0x1100 JUMP JUMPDEST PUSH0 PUSH1 0x20 DUP4 MLOAD LT ISZERO PUSH3 0x26B JUMPI PUSH3 0x263 DUP4 PUSH3 0x42A PUSH1 0x20 SHL PUSH1 0x20 SHR JUMP JUMPDEST SWAP1 POP PUSH3 0x295 JUMP JUMPDEST DUP3 PUSH3 0x27D DUP4 PUSH3 0x494 PUSH1 0x20 SHL PUSH1 0x20 SHR JUMP JUMPDEST PUSH0 ADD SWAP1 DUP2 PUSH3 0x28D SWAP2 SWAP1 PUSH3 0xBAE JUMP JUMPDEST POP PUSH1 0xFF PUSH0 SHL SWAP1 POP JUMPDEST SWAP3 SWAP2 POP POP JUMP JUMPDEST PUSH0 PUSH32 0x8B73C3C69BB8FE3D512ECC4CF759CC79239F7B179B0FFACAA9A75D522B39400F PUSH1 0xE0 MLOAD PUSH2 0x100 MLOAD CHAINID ADDRESS PUSH1 0x40 MLOAD PUSH1 0x20 ADD PUSH3 0x2DC SWAP6 SWAP5 SWAP4 SWAP3 SWAP2 SWAP1 PUSH3 0xD00 JUMP JUMPDEST PUSH1 0x40 MLOAD PUSH1 0x20 DUP2 DUP4 SUB SUB DUP2 MSTORE SWAP1 PUSH1 0x40 MSTORE DUP1 MLOAD SWAP1 PUSH1 0x20 ADD KECCAK256 SWAP1 POP SWAP1 JUMP JUMPDEST PUSH0 PUSH1 0xD PUSH0 SWAP1 SLOAD SWAP1 PUSH2 0x100 EXP SWAP1 DIV PUSH20 0xFFFFFFFFFFFFFFFFFFFFFFFFFFFFFFFFFFFFFFFF AND SWAP1 POP DUP2 PUSH1 0xD PUSH0 PUSH2 0x100 EXP DUP2 SLOAD DUP2 PUSH20 0xFFFFFFFFFFFFFFFFFFFFFFFFFFFFFFFFFFFFFFFF MUL NOT AND SWAP1 DUP4 PUSH20 0xFFFFFFFFFFFFFFFFFFFFFFFFFFFFFFFFFFFFFFFF AND MUL OR SWAP1 SSTORE POP DUP2 PUSH20 0xFFFFFFFFFFFFFFFFFFFFFFFFFFFFFFFFFFFFFFFF AND DUP2 PUSH20 0xFFFFFFFFFFFFFFFFFFFFFFFFFFFFFFFFFFFFFFFF AND PUSH32 0x8BE0079C531659141344CD1FD0A4F28419497F9722A3DAAFE3B4186F6B6457E0 PUSH1 0x40 MLOAD PUSH1 0x40 MLOAD DUP1 SWAP2 SUB SWAP1 LOG3 POP POP JUMP JUMPDEST PUSH0 PUSH3 0x3CB PUSH3 0x49D PUSH1 0x20 SHL PUSH1 0x20 SHR JUMP JUMPDEST PUSH1 0xFF AND DUP3 PUSH3 0x3DB SWAP2 SWAP1 PUSH3 0xD88 JUMP JUMPDEST SWAP1 POP SWAP2 SWAP1 POP JUMP JUMPDEST PUSH0 CALLER SWAP1 POP SWAP1 JUMP JUMPDEST PUSH3 0x3FA DUP2 PUSH3 0x4A5 PUSH1 0x20 SHL PUSH1 0x20 SHR JUMP JUMPDEST DUP1 PUSH1 0xE PUSH0 DUP3 DUP3 SLOAD PUSH3 0x40D SWAP2 SWAP1 PUSH3 0xDD2 JUMP JUMPDEST SWAP3 POP POP DUP2 SWAP1 SSTORE POP PUSH3 0x426 DUP3 DUP3 PUSH3 0x4F0 PUSH1 0x20 SHL PUSH1 0x20 SHR JUMP JUMPDEST POP POP JUMP JUMPDEST PUSH0 DUP1 DUP3 SWAP1 POP PUSH1 0x1F DUP2 MLOAD GT ISZERO PUSH3 0x479 JUMPI DUP3 PUSH1 0x40 MLOAD PUSH32 0x305A27A900000000000000000000000000000000000000000000000000000000 DUP2 MSTORE PUSH1 0x4 ADD PUSH3 0x470 SWAP2 SWAP1 PUSH3 0xE96 JUMP JUMPDEST PUSH1 0x40 MLOAD DUP1 SWAP2 SUB SWAP1 REVERT JUMPDEST DUP1 MLOAD DUP2 PUSH3 0x487 SWAP1 PUSH3 0xEE7 JUMP JUMPDEST PUSH0 SHR OR PUSH0 SHL SWAP2 POP POP SWAP2 SWAP1 POP JUMP JUMPDEST PUSH0 DUP2 SWAP1 POP SWAP2 SWAP1 POP JUMP JUMPDEST PUSH0 PUSH1 0x12 SWAP1 POP SWAP1 JUMP JUMPDEST PUSH1 0xE SLOAD DUP2 GT ISZERO PUSH3 0x4ED JUMPI PUSH1 0x40 MLOAD PUSH32 0x8C379A000000000000000000000000000000000000000000000000000000000 DUP2 MSTORE PUSH1 0x4 ADD PUSH3 0x4E4 SWAP1 PUSH3 0xFF0 JUMP JUMPDEST PUSH1 0x40 MLOAD DUP1 SWAP2 SUB SWAP1 REVERT JUMPDEST POP JUMP JUMPDEST PUSH0 PUSH20 0xFFFFFFFFFFFFFFFFFFFFFFFFFFFFFFFFFFFFFFFF AND DUP3 PUSH20 0xFFFFFFFFFFFFFFFFFFFFFFFFFFFFFFFFFFFFFFFF AND SUB PUSH3 0x561 JUMPI PUSH1 0x40 MLOAD PUSH32 0x8C379A000000000000000000000000000000000000000000000000000000000 DUP2 MSTORE PUSH1 0x4 ADD PUSH3 0x558 SWAP1 PUSH3 0x105E JUMP JUMPDEST PUSH1 0x40 MLOAD DUP1 SWAP2 SUB SWAP1 REVERT JUMPDEST PUSH3 0x574 PUSH0 DUP4 DUP4 PUSH3 0x655 PUSH1 0x20 SHL PUSH1 0x20 SHR JUMP JUMPDEST DUP1 PUSH1 0x2 PUSH0 DUP3 DUP3 SLOAD PUSH3 0x587 SWAP2 SWAP1 PUSH3 0x107E JUMP JUMPDEST SWAP3 POP POP DUP2 SWAP1 SSTORE POP DUP1 PUSH0 DUP1 DUP5 PUSH20 0xFFFFFFFFFFFFFFFFFFFFFFFFFFFFFFFFFFFFFFFF AND PUSH20 0xFFFFFFFFFFFFFFFFFFFFFFFFFFFFFFFFFFFFFFFF AND DUP2 MSTORE PUSH1 0x20 ADD SWAP1 DUP2 MSTORE PUSH1 0x20 ADD PUSH0 KECCAK256 PUSH0 DUP3 DUP3 SLOAD ADD SWAP3 POP POP DUP2 SWAP1 SSTORE POP DUP2 PUSH20 0xFFFFFFFFFFFFFFFFFFFFFFFFFFFFFFFFFFFFFFFF AND PUSH0 PUSH20 0xFFFFFFFFFFFFFFFFFFFFFFFFFFFFFFFFFFFFFFFF AND PUSH32 0xDDF252AD1BE2C89B69C2B068FC378DAA952BA7F163C4A11628F55A4DF523B3EF DUP4 PUSH1 0x40 MLOAD PUSH3 0x636 SWAP2 SWAP1 PUSH3 0x10B8 JUMP JUMPDEST PUSH1 0x40 MLOAD DUP1 SWAP2 SUB SWAP1 LOG3 PUSH3 0x651 PUSH0 DUP4 DUP4 PUSH3 0x66D PUSH1 0x20 SHL PUSH1 0x20 SHR JUMP JUMPDEST POP POP JUMP JUMPDEST PUSH3 0x668 DUP4 DUP4 DUP4 PUSH3 0x685 PUSH1 0x20 SHL PUSH1 0x20 SHR JUMP JUMPDEST POP POP POP JUMP JUMPDEST PUSH3 0x680 DUP4 DUP4 DUP4 PUSH3 0x777 PUSH1 0x20 SHL PUSH1 0x20 SHR JUMP JUMPDEST POP POP POP JUMP JUMPDEST PUSH3 0x698 DUP4 DUP4 DUP4 PUSH3 0x77C PUSH1 0x20 SHL PUSH1 0x20 SHR JUMP JUMPDEST PUSH0 PUSH20 0xFFFFFFFFFFFFFFFFFFFFFFFFFFFFFFFFFFFFFFFF AND DUP4 PUSH20 0xFFFFFFFFFFFFFFFFFFFFFFFFFFFFFFFFFFFFFFFF AND SUB PUSH3 0x6F3 JUMPI PUSH3 0x6DD DUP3 PUSH3 0x781 PUSH1 0x20 SHL PUSH1 0x20 SHR JUMP JUMPDEST PUSH3 0x6ED PUSH3 0x7E2 PUSH1 0x20 SHL PUSH1 0x20 SHR JUMP JUMPDEST PUSH3 0x772 JUMP JUMPDEST PUSH0 PUSH20 0xFFFFFFFFFFFFFFFFFFFFFFFFFFFFFFFFFFFFFFFF AND DUP3 PUSH20 0xFFFFFFFFFFFFFFFFFFFFFFFFFFFFFFFFFFFFFFFF AND SUB PUSH3 0x74E JUMPI PUSH3 0x738 DUP4 PUSH3 0x781 PUSH1 0x20 SHL PUSH1 0x20 SHR JUMP JUMPDEST PUSH3 0x748 PUSH3 0x7E2 PUSH1 0x20 SHL PUSH1 0x20 SHR JUMP JUMPDEST PUSH3 0x771 JUMP JUMPDEST PUSH3 0x75F DUP4 PUSH3 0x781 PUSH1 0x20 SHL PUSH1 0x20 SHR JUMP JUMPDEST PUSH3 0x770 DUP3 PUSH3 0x781 PUSH1 0x20 SHL PUSH1 0x20 SHR JUMP JUMPDEST JUMPDEST JUMPDEST POP POP POP JUMP JUMPDEST POP POP POP JUMP JUMPDEST POP POP POP JUMP JUMPDEST PUSH3 0x7DF PUSH1 0x5 PUSH0 DUP4 PUSH20 0xFFFFFFFFFFFFFFFFFFFFFFFFFFFFFFFFFFFFFFFF AND PUSH20 0xFFFFFFFFFFFFFFFFFFFFFFFFFFFFFFFFFFFFFFFF AND DUP2 MSTORE PUSH1 0x20 ADD SWAP1 DUP2 MSTORE PUSH1 0x20 ADD PUSH0 KECCAK256 PUSH3 0x7D3 DUP4 PUSH3 0x806 PUSH1 0x20 SHL PUSH1 0x20 SHR JUMP JUMPDEST PUSH3 0x84B PUSH1 0x20 SHL PUSH1 0x20 SHR JUMP JUMPDEST POP JUMP JUMPDEST PUSH3 0x804 PUSH1 0x6 PUSH3 0x7F8 PUSH3 0x8CE PUSH1 0x20 SHL PUSH1 0x20 SHR JUMP JUMPDEST PUSH3 0x84B PUSH1 0x20 SHL PUSH1 0x20 SHR JUMP JUMPDEST JUMP JUMPDEST PUSH0 DUP1 PUSH0 DUP4 PUSH20 0xFFFFFFFFFFFFFFFFFFFFFFFFFFFFFFFFFFFFFFFF AND PUSH20 0xFFFFFFFFFFFFFFFFFFFFFFFFFFFFFFFFFFFFFFFF AND DUP2 MSTORE PUSH1 0x20 ADD SWAP1 DUP2 MSTORE PUSH1 0x20 ADD PUSH0 KECCAK256 SLOAD SWAP1 POP SWAP2 SWAP1 POP JUMP JUMPDEST PUSH0 PUSH3 0x85C PUSH3 0x8D7 PUSH1 0x20 SHL PUSH1 0x20 SHR JUMP JUMPDEST SWAP1 POP DUP1 PUSH3 0x872 DUP5 PUSH0 ADD PUSH3 0x8EF PUSH1 0x20 SHL PUSH1 0x20 SHR JUMP JUMPDEST LT ISZERO PUSH3 0x8C9 JUMPI DUP3 PUSH0 ADD DUP2 SWAP1 DUP1 PUSH1 0x1 DUP2 SLOAD ADD DUP1 DUP3 SSTORE DUP1 SWAP2 POP POP PUSH1 0x1 SWAP1 SUB SWAP1 PUSH0 MSTORE PUSH1 0x20 PUSH0 KECCAK256 ADD PUSH0 SWAP1 SWAP2 SWAP1 SWAP2 SWAP1 SWAP2 POP SSTORE DUP3 PUSH1 0x1 ADD DUP3 SWAP1 DUP1 PUSH1 0x1 DUP2 SLOAD ADD DUP1 DUP3 SSTORE DUP1 SWAP2 POP POP PUSH1 0x1 SWAP1 SUB SWAP1 PUSH0 MSTORE PUSH1 0x20 PUSH0 KECCAK256 ADD PUSH0 SWAP1 SWAP2 SWAP1 SWAP2 SWAP1 SWAP2 POP SSTORE JUMPDEST POP POP POP JUMP JUMPDEST PUSH0 PUSH1 0x2 SLOAD SWAP1 POP SWAP1 JUMP JUMPDEST PUSH0 PUSH3 0x8EA PUSH1 0x8 PUSH3 0x93E PUSH1 0x20 SHL PUSH1 0x20 SHR JUMP JUMPDEST SWAP1 POP SWAP1 JUMP JUMPDEST PUSH0 DUP1 DUP3 DUP1 SLOAD SWAP1 POP SUB PUSH3 0x905 JUMPI PUSH0 SWAP1 POP PUSH3 0x939 JUMP JUMPDEST DUP2 PUSH1 0x1 DUP4 DUP1 SLOAD SWAP1 POP PUSH3 0x919 SWAP2 SWAP1 PUSH3 0xDD2 JUMP JUMPDEST DUP2 SLOAD DUP2 LT PUSH3 0x92D JUMPI PUSH3 0x92C PUSH3 0x10D3 JUMP JUMPDEST JUMPDEST SWAP1 PUSH0 MSTORE PUSH1 0x20 PUSH0 KECCAK256 ADD SLOAD SWAP1 POP JUMPDEST SWAP2 SWAP1 POP JUMP JUMPDEST PUSH0 DUP2 PUSH0 ADD SLOAD SWAP1 POP SWAP2 SWAP1 POP JUMP JUMPDEST PUSH0 DUP2 MLOAD SWAP1 POP SWAP2 SWAP1 POP JUMP JUMPDEST PUSH32 0x4E487B7100000000000000000000000000000000000000000000000000000000 PUSH0 MSTORE PUSH1 0x41 PUSH1 0x4 MSTORE PUSH1 0x24 PUSH0 REVERT JUMPDEST PUSH32 0x4E487B7100000000000000000000000000000000000000000000000000000000 PUSH0 MSTORE PUSH1 0x22 PUSH1 0x4 MSTORE PUSH1 0x24 PUSH0 REVERT JUMPDEST PUSH0 PUSH1 0x2 DUP3 DIV SWAP1 POP PUSH1 0x1 DUP3 AND DUP1 PUSH3 0x9C6 JUMPI PUSH1 0x7F DUP3 AND SWAP2 POP JUMPDEST PUSH1 0x20 DUP3 LT DUP2 SUB PUSH3 0x9DC JUMPI PUSH3 0x9DB PUSH3 0x981 JUMP JUMPDEST JUMPDEST POP SWAP2 SWAP1 POP JUMP JUMPDEST PUSH0 DUP2 SWAP1 POP DUP2 PUSH0 MSTORE PUSH1 0x20 PUSH0 KECCAK256 SWAP1 POP SWAP2 SWAP1 POP JUMP JUMPDEST PUSH0 PUSH1 0x20 PUSH1 0x1F DUP4 ADD DIV SWAP1 POP SWAP2 SWAP1 POP JUMP JUMPDEST PUSH0 DUP3 DUP3 SHL SWAP1 POP SWAP3 SWAP2 POP POP JUMP JUMPDEST PUSH0 PUSH1 0x8 DUP4 MUL PUSH3 0xA40 PUSH32 0xFFFFFFFFFFFFFFFFFFFFFFFFFFFFFFFFFFFFFFFFFFFFFFFFFFFFFFFFFFFFFFFF DUP3 PUSH3 0xA03 JUMP JUMPDEST PUSH3 0xA4C DUP7 DUP4 PUSH3 0xA03 JUMP JUMPDEST SWAP6 POP DUP1 NOT DUP5 AND SWAP4 POP DUP1 DUP7 AND DUP5 OR SWAP3 POP POP POP SWAP4 SWAP3 POP POP POP JUMP JUMPDEST PUSH0 DUP2 SWAP1 POP SWAP2 SWAP1 POP JUMP JUMPDEST PUSH0 DUP2 SWAP1 POP SWAP2 SWAP1 POP JUMP JUMPDEST PUSH0 PUSH3 0xA96 PUSH3 0xA90 PUSH3 0xA8A DUP5 PUSH3 0xA64 JUMP JUMPDEST PUSH3 0xA6D JUMP JUMPDEST PUSH3 0xA64 JUMP JUMPDEST SWAP1 POP SWAP2 SWAP1 POP JUMP JUMPDEST PUSH0 DUP2 SWAP1 POP SWAP2 SWAP1 POP JUMP JUMPDEST PUSH3 0xAB1 DUP4 PUSH3 0xA76 JUMP JUMPDEST PUSH3 0xAC9 PUSH3 0xAC0 DUP3 PUSH3 0xA9D JUMP JUMPDEST DUP5 DUP5 SLOAD PUSH3 0xA0F JUMP JUMPDEST DUP3 SSTORE POP POP POP POP JUMP JUMPDEST PUSH0 SWAP1 JUMP JUMPDEST PUSH3 0xADF PUSH3 0xAD1 JUMP JUMPDEST PUSH3 0xAEC DUP2 DUP5 DUP5 PUSH3 0xAA6 JUMP JUMPDEST POP POP POP JUMP JUMPDEST JUMPDEST DUP2 DUP2 LT ISZERO PUSH3 0xB13 JUMPI PUSH3 0xB07 PUSH0 DUP3 PUSH3 0xAD5 JUMP JUMPDEST PUSH1 0x1 DUP2 ADD SWAP1 POP PUSH3 0xAF2 JUMP JUMPDEST POP POP JUMP JUMPDEST PUSH1 0x1F DUP3 GT ISZERO PUSH3 0xB62 JUMPI PUSH3 0xB2C DUP2 PUSH3 0x9E2 JUMP JUMPDEST PUSH3 0xB37 DUP5 PUSH3 0x9F4 JUMP JUMPDEST DUP2 ADD PUSH1 0x20 DUP6 LT ISZERO PUSH3 0xB47 JUMPI DUP2 SWAP1 POP JUMPDEST PUSH3 0xB5F PUSH3 0xB56 DUP6 PUSH3 0x9F4 JUMP JUMPDEST DUP4 ADD DUP3 PUSH3 0xAF1 JUMP JUMPDEST POP POP JUMPDEST POP POP POP JUMP JUMPDEST PUSH0 DUP3 DUP3 SHR SWAP1 POP SWAP3 SWAP2 POP POP JUMP JUMPDEST PUSH0 PUSH3 0xB84 PUSH0 NOT DUP5 PUSH1 0x8 MUL PUSH3 0xB67 JUMP JUMPDEST NOT DUP1 DUP4 AND SWAP2 POP POP SWAP3 SWAP2 POP POP JUMP JUMPDEST PUSH0 PUSH3 0xB9E DUP4 DUP4 PUSH3 0xB73 JUMP JUMPDEST SWAP2 POP DUP3 PUSH1 0x2 MUL DUP3 OR SWAP1 POP SWAP3 SWAP2 POP POP JUMP JUMPDEST PUSH3 0xBB9 DUP3 PUSH3 0x94A JUMP JUMPDEST PUSH8 0xFFFFFFFFFFFFFFFF DUP2 GT ISZERO PUSH3 0xBD5 JUMPI PUSH3 0xBD4 PUSH3 0x954 JUMP JUMPDEST JUMPDEST PUSH3 0xBE1 DUP3 SLOAD PUSH3 0x9AE JUMP JUMPDEST PUSH3 0xBEE DUP3 DUP3 DUP6 PUSH3 0xB17 JUMP JUMPDEST PUSH0 PUSH1 0x20 SWAP1 POP PUSH1 0x1F DUP4 GT PUSH1 0x1 DUP2 EQ PUSH3 0xC24 JUMPI PUSH0 DUP5 ISZERO PUSH3 0xC0F JUMPI DUP3 DUP8 ADD MLOAD SWAP1 POP JUMPDEST PUSH3 0xC1B DUP6 DUP3 PUSH3 0xB91 JUMP JUMPDEST DUP7 SSTORE POP PUSH3 0xC8A JUMP JUMPDEST PUSH1 0x1F NOT DUP5 AND PUSH3 0xC34 DUP7 PUSH3 0x9E2 JUMP JUMPDEST PUSH0 JUMPDEST DUP3 DUP2 LT ISZERO PUSH3 0xC5D JUMPI DUP5 DUP10 ADD MLOAD DUP3 SSTORE PUSH1 0x1 DUP3 ADD SWAP2 POP PUSH1 0x20 DUP6 ADD SWAP5 POP PUSH1 0x20 DUP2 ADD SWAP1 POP PUSH3 0xC36 JUMP JUMPDEST DUP7 DUP4 LT ISZERO PUSH3 0xC7D JUMPI DUP5 DUP10 ADD MLOAD PUSH3 0xC79 PUSH1 0x1F DUP10 AND DUP3 PUSH3 0xB73 JUMP JUMPDEST DUP4 SSTORE POP JUMPDEST PUSH1 0x1 PUSH1 0x2 DUP9 MUL ADD DUP9 SSTORE POP POP POP JUMPDEST POP POP POP POP POP POP JUMP JUMPDEST PUSH0 DUP2 SWAP1 POP SWAP2 SWAP1 POP JUMP JUMPDEST PUSH3 0xCA6 DUP2 PUSH3 0xC92 JUMP JUMPDEST DUP3 MSTORE POP POP JUMP JUMPDEST PUSH3 0xCB7 DUP2 PUSH3 0xA64 JUMP JUMPDEST DUP3 MSTORE POP POP JUMP JUMPDEST PUSH0 PUSH20 0xFFFFFFFFFFFFFFFFFFFFFFFFFFFFFFFFFFFFFFFF DUP3 AND SWAP1 POP SWAP2 SWAP1 POP JUMP JUMPDEST PUSH0 PUSH3 0xCE8 DUP3 PUSH3 0xCBD JUMP JUMPDEST SWAP1 POP SWAP2 SWAP1 POP JUMP JUMPDEST PUSH3 0xCFA DUP2 PUSH3 0xCDC JUMP JUMPDEST DUP3 MSTORE POP POP JUMP JUMPDEST PUSH0 PUSH1 0xA0 DUP3 ADD SWAP1 POP PUSH3 0xD15 PUSH0 DUP4 ADD DUP9 PUSH3 0xC9B JUMP JUMPDEST PUSH3 0xD24 PUSH1 0x20 DUP4 ADD DUP8 PUSH3 0xC9B JUMP JUMPDEST PUSH3 0xD33 PUSH1 0x40 DUP4 ADD DUP7 PUSH3 0xC9B JUMP JUMPDEST PUSH3 0xD42 PUSH1 0x60 DUP4 ADD DUP6 PUSH3 0xCAC JUMP JUMPDEST PUSH3 0xD51 PUSH1 0x80 DUP4 ADD DUP5 PUSH3 0xCEF JUMP JUMPDEST SWAP7 SWAP6 POP POP POP POP POP POP JUMP JUMPDEST PUSH32 0x4E487B7100000000000000000000000000000000000000000000000000000000 PUSH0 MSTORE PUSH1 0x11 PUSH1 0x4 MSTORE PUSH1 0x24 PUSH0 REVERT JUMPDEST PUSH0 PUSH3 0xD94 DUP3 PUSH3 0xA64 JUMP JUMPDEST SWAP2 POP PUSH3 0xDA1 DUP4 PUSH3 0xA64 JUMP JUMPDEST SWAP3 POP DUP3 DUP3 MUL PUSH3 0xDB1 DUP2 PUSH3 0xA64 JUMP JUMPDEST SWAP2 POP DUP3 DUP3 DIV DUP5 EQ DUP4 ISZERO OR PUSH3 0xDCB JUMPI PUSH3 0xDCA PUSH3 0xD5B JUMP JUMPDEST JUMPDEST POP SWAP3 SWAP2 POP POP JUMP JUMPDEST PUSH0 PUSH3 0xDDE DUP3 PUSH3 0xA64 JUMP JUMPDEST SWAP2 POP PUSH3 0xDEB DUP4 PUSH3 0xA64 JUMP JUMPDEST SWAP3 POP DUP3 DUP3 SUB SWAP1 POP DUP2 DUP2 GT ISZERO PUSH3 0xE06 JUMPI PUSH3 0xE05 PUSH3 0xD5B JUMP JUMPDEST JUMPDEST SWAP3 SWAP2 POP POP JUMP JUMPDEST PUSH0 DUP3 DUP3 MSTORE PUSH1 0x20 DUP3 ADD SWAP1 POP SWAP3 SWAP2 POP POP JUMP JUMPDEST PUSH0 JUMPDEST DUP4 DUP2 LT ISZERO PUSH3 0xE3B JUMPI DUP1 DUP3 ADD MLOAD DUP2 DUP5 ADD MSTORE PUSH1 0x20 DUP2 ADD SWAP1 POP PUSH3 0xE1E JUMP JUMPDEST PUSH0 DUP5 DUP5 ADD MSTORE POP POP POP POP JUMP JUMPDEST PUSH0 PUSH1 0x1F NOT PUSH1 0x1F DUP4 ADD AND SWAP1 POP SWAP2 SWAP1 POP JUMP JUMPDEST PUSH0 PUSH3 0xE62 DUP3 PUSH3 0x94A JUMP JUMPDEST PUSH3 0xE6E DUP2 DUP6 PUSH3 0xE0C JUMP JUMPDEST SWAP4 POP PUSH3 0xE80 DUP2 DUP6 PUSH1 0x20 DUP7 ADD PUSH3 0xE1C JUMP JUMPDEST PUSH3 0xE8B DUP2 PUSH3 0xE46 JUMP JUMPDEST DUP5 ADD SWAP2 POP POP SWAP3 SWAP2 POP POP JUMP JUMPDEST PUSH0 PUSH1 0x20 DUP3 ADD SWAP1 POP DUP2 DUP2 SUB PUSH0 DUP4 ADD MSTORE PUSH3 0xEB0 DUP2 DUP5 PUSH3 0xE56 JUMP JUMPDEST SWAP1 POP SWAP3 SWAP2 POP POP JUMP JUMPDEST PUSH0 DUP2 MLOAD SWAP1 POP SWAP2 SWAP1 POP JUMP JUMPDEST PUSH0 DUP2 SWAP1 POP PUSH1 0x20 DUP3 ADD SWAP1 POP SWAP2 SWAP1 POP JUMP JUMPDEST PUSH0 PUSH3 0xEDE DUP3 MLOAD PUSH3 0xC92 JUMP JUMPDEST DUP1 SWAP2 POP POP SWAP2 SWAP1 POP JUMP JUMPDEST PUSH0 PUSH3 0xEF3 DUP3 PUSH3 0xEB8 JUMP JUMPDEST DUP3 PUSH3 0xEFF DUP5 PUSH3 0xEC2 JUMP JUMPDEST SWAP1 POP PUSH3 0xF0C DUP2 PUSH3 0xED1 JUMP JUMPDEST SWAP3 POP PUSH1 0x20 DUP3 LT ISZERO PUSH3 0xF4F JUMPI PUSH3 0xF4A PUSH32 0xFFFFFFFFFFFFFFFFFFFFFFFFFFFFFFFFFFFFFFFFFFFFFFFFFFFFFFFFFFFFFFFF DUP4 PUSH1 0x20 SUB PUSH1 0x8 MUL PUSH3 0xA03 JUMP JUMPDEST DUP4 AND SWAP3 POP JUMPDEST POP POP SWAP2 SWAP1 POP JUMP JUMPDEST PUSH32 0x496E73756666696369656E74206D696E7461626C6520616D6F756E742E205468 PUSH0 DUP3 ADD MSTORE PUSH32 0x652072657175657374656420616D6F756E742065786365656473207468652061 PUSH1 0x20 DUP3 ADD MSTORE PUSH32 0x7661696C61626C65206D696E7461626C6520746F6B656E732E00000000000000 PUSH1 0x40 DUP3 ADD MSTORE POP JUMP JUMPDEST PUSH0 PUSH3 0xFD8 PUSH1 0x59 DUP4 PUSH3 0xE0C JUMP JUMPDEST SWAP2 POP PUSH3 0xFE5 DUP3 PUSH3 0xF56 JUMP JUMPDEST PUSH1 0x60 DUP3 ADD SWAP1 POP SWAP2 SWAP1 POP JUMP JUMPDEST PUSH0 PUSH1 0x20 DUP3 ADD SWAP1 POP DUP2 DUP2 SUB PUSH0 DUP4 ADD MSTORE PUSH3 0x1009 DUP2 PUSH3 0xFCA JUMP JUMPDEST SWAP1 POP SWAP2 SWAP1 POP JUMP JUMPDEST PUSH32 0x45524332303A206D696E7420746F20746865207A65726F206164647265737300 PUSH0 DUP3 ADD MSTORE POP JUMP JUMPDEST PUSH0 PUSH3 0x1046 PUSH1 0x1F DUP4 PUSH3 0xE0C JUMP JUMPDEST SWAP2 POP PUSH3 0x1053 DUP3 PUSH3 0x1010 JUMP JUMPDEST PUSH1 0x20 DUP3 ADD SWAP1 POP SWAP2 SWAP1 POP JUMP JUMPDEST PUSH0 PUSH1 0x20 DUP3 ADD SWAP1 POP DUP2 DUP2 SUB PUSH0 DUP4 ADD MSTORE PUSH3 0x1077 DUP2 PUSH3 0x1038 JUMP JUMPDEST SWAP1 POP SWAP2 SWAP1 POP JUMP JUMPDEST PUSH0 PUSH3 0x108A DUP3 PUSH3 0xA64 JUMP JUMPDEST SWAP2 POP PUSH3 0x1097 DUP4 PUSH3 0xA64 JUMP JUMPDEST SWAP3 POP DUP3 DUP3 ADD SWAP1 POP DUP1 DUP3 GT ISZERO PUSH3 0x10B2 JUMPI PUSH3 0x10B1 PUSH3 0xD5B JUMP JUMPDEST JUMPDEST SWAP3 SWAP2 POP POP JUMP JUMPDEST PUSH0 PUSH1 0x20 DUP3 ADD SWAP1 POP PUSH3 0x10CD PUSH0 DUP4 ADD DUP5 PUSH3 0xCAC JUMP JUMPDEST SWAP3 SWAP2 POP POP JUMP JUMPDEST PUSH32 0x4E487B7100000000000000000000000000000000000000000000000000000000 PUSH0 MSTORE PUSH1 0x32 PUSH1 0x4 MSTORE PUSH1 0x24 PUSH0 REVERT JUMPDEST PUSH1 0x80 MLOAD PUSH1 0xA0 MLOAD PUSH1 0xC0 MLOAD PUSH1 0xE0 MLOAD PUSH2 0x100 MLOAD PUSH2 0x120 MLOAD PUSH2 0x140 MLOAD PUSH2 0x3046 PUSH3 0x1152 PUSH0 CODECOPY PUSH0 PUSH2 0x826 ADD MSTORE PUSH0 PUSH2 0x7F2 ADD MSTORE PUSH0 PUSH2 0x1693 ADD MSTORE PUSH0 PUSH2 0x1672 ADD MSTORE PUSH0 PUSH2 0x116D ADD MSTORE PUSH0 PUSH2 0x11C3 ADD MSTORE PUSH0 PUSH2 0x11EC ADD MSTORE PUSH2 0x3046 PUSH0 RETURN INVALID PUSH1 0x80 PUSH1 0x40 MSTORE CALLVALUE DUP1 ISZERO PUSH2 0xF JUMPI PUSH0 DUP1 REVERT JUMPDEST POP PUSH1 0x4 CALLDATASIZE LT PUSH2 0x18C JUMPI PUSH0 CALLDATALOAD PUSH1 0xE0 SHR DUP1 PUSH4 0x715018A6 GT PUSH2 0xDC JUMPI DUP1 PUSH4 0x981B24D0 GT PUSH2 0x95 JUMPI DUP1 PUSH4 0xD505ACCF GT PUSH2 0x6F JUMPI DUP1 PUSH4 0xD505ACCF EQ PUSH2 0x4B4 JUMPI DUP1 PUSH4 0xD5ABEB01 EQ PUSH2 0x4D0 JUMPI DUP1 PUSH4 0xDD62ED3E EQ PUSH2 0x4EE JUMPI DUP1 PUSH4 0xF2FDE38B EQ PUSH2 0x51E JUMPI PUSH2 0x18C JUMP JUMPDEST DUP1 PUSH4 0x981B24D0 EQ PUSH2 0x424 JUMPI DUP1 PUSH4 0xA457C2D7 EQ PUSH2 0x454 JUMPI DUP1 PUSH4 0xA9059CBB EQ PUSH2 0x484 JUMPI PUSH2 0x18C JUMP JUMPDEST DUP1 PUSH4 0x715018A6 EQ PUSH2 0x36E JUMPI DUP1 PUSH4 0x79CC6790 EQ PUSH2 0x378 JUMPI DUP1 PUSH4 0x7ECEBE00 EQ PUSH2 0x394 JUMPI DUP1 PUSH4 0x84B0196E EQ PUSH2 0x3C4 JUMPI DUP1 PUSH4 0x8DA5CB5B EQ PUSH2 0x3E8 JUMPI DUP1 PUSH4 0x95D89B41 EQ PUSH2 0x406 JUMPI PUSH2 0x18C JUMP JUMPDEST DUP1 PUSH4 0x39509351 GT PUSH2 0x149 JUMPI DUP1 PUSH4 0x4EE2CD7E GT PUSH2 0x123 JUMPI DUP1 PUSH4 0x4EE2CD7E EQ PUSH2 0x2D2 JUMPI DUP1 PUSH4 0x5439AD86 EQ PUSH2 0x302 JUMPI DUP1 PUSH4 0x68E4C64E EQ PUSH2 0x320 JUMPI DUP1 PUSH4 0x70A08231 EQ PUSH2 0x33E JUMPI PUSH2 0x18C JUMP JUMPDEST DUP1 PUSH4 0x39509351 EQ PUSH2 0x268 JUMPI DUP1 PUSH4 0x42966C68 EQ PUSH2 0x298 JUMPI DUP1 PUSH4 0x4BF365DF EQ PUSH2 0x2B4 JUMPI PUSH2 0x18C JUMP JUMPDEST DUP1 PUSH4 0x6FDDE03 EQ PUSH2 0x190 JUMPI DUP1 PUSH4 0x95EA7B3 EQ PUSH2 0x1AE JUMPI DUP1 PUSH4 0x18160DDD EQ PUSH2 0x1DE JUMPI DUP1 PUSH4 0x23B872DD EQ PUSH2 0x1FC JUMPI DUP1 PUSH4 0x313CE567 EQ PUSH2 0x22C JUMPI DUP1 PUSH4 0x3644E515 EQ PUSH2 0x24A JUMPI JUMPDEST PUSH0 DUP1 REVERT JUMPDEST PUSH2 0x198 PUSH2 0x53A JUMP JUMPDEST PUSH1 0x40 MLOAD PUSH2 0x1A5 SWAP2 SWAP1 PUSH2 0x1F5E JUMP JUMPDEST PUSH1 0x40 MLOAD DUP1 SWAP2 SUB SWAP1 RETURN JUMPDEST PUSH2 0x1C8 PUSH1 0x4 DUP1 CALLDATASIZE SUB DUP2 ADD SWAP1 PUSH2 0x1C3 SWAP2 SWAP1 PUSH2 0x200F JUMP JUMPDEST PUSH2 0x5CA JUMP JUMPDEST PUSH1 0x40 MLOAD PUSH2 0x1D5 SWAP2 SWAP1 PUSH2 0x2067 JUMP JUMPDEST PUSH1 0x40 MLOAD DUP1 SWAP2 SUB SWAP1 RETURN JUMPDEST PUSH2 0x1E6 PUSH2 0x5EC JUMP JUMPDEST PUSH1 0x40 MLOAD PUSH2 0x1F3 SWAP2 SWAP1 PUSH2 0x208F JUMP JUMPDEST PUSH1 0x40 MLOAD DUP1 SWAP2 SUB SWAP1 RETURN JUMPDEST PUSH2 0x216 PUSH1 0x4 DUP1 CALLDATASIZE SUB DUP2 ADD SWAP1 PUSH2 0x211 SWAP2 SWAP1 PUSH2 0x20A8 JUMP JUMPDEST PUSH2 0x5F5 JUMP JUMPDEST PUSH1 0x40 MLOAD PUSH2 0x223 SWAP2 SWAP1 PUSH2 0x2067 JUMP JUMPDEST PUSH1 0x40 MLOAD DUP1 SWAP2 SUB SWAP1 RETURN JUMPDEST PUSH2 0x234 PUSH2 0x623 JUMP JUMPDEST PUSH1 0x40 MLOAD PUSH2 0x241 SWAP2 SWAP1 PUSH2 0x2113 JUMP JUMPDEST PUSH1 0x40 MLOAD DUP1 SWAP2 SUB SWAP1 RETURN JUMPDEST PUSH2 0x252 PUSH2 0x62B JUMP JUMPDEST PUSH1 0x40 MLOAD PUSH2 0x25F SWAP2 SWAP1 PUSH2 0x2144 JUMP JUMPDEST PUSH1 0x40 MLOAD DUP1 SWAP2 SUB SWAP1 RETURN JUMPDEST PUSH2 0x282 PUSH1 0x4 DUP1 CALLDATASIZE SUB DUP2 ADD SWAP1 PUSH2 0x27D SWAP2 SWAP1 PUSH2 0x200F JUMP JUMPDEST PUSH2 0x639 JUMP JUMPDEST PUSH1 0x40 MLOAD PUSH2 0x28F SWAP2 SWAP1 PUSH2 0x2067 JUMP JUMPDEST PUSH1 0x40 MLOAD DUP1 SWAP2 SUB SWAP1 RETURN JUMPDEST PUSH2 0x2B2 PUSH1 0x4 DUP1 CALLDATASIZE SUB DUP2 ADD SWAP1 PUSH2 0x2AD SWAP2 SWAP1 PUSH2 0x215D JUMP JUMPDEST PUSH2 0x66F JUMP JUMPDEST STOP JUMPDEST PUSH2 0x2BC PUSH2 0x683 JUMP JUMPDEST PUSH1 0x40 MLOAD PUSH2 0x2C9 SWAP2 SWAP1 PUSH2 0x208F JUMP JUMPDEST PUSH1 0x40 MLOAD DUP1 SWAP2 SUB SWAP1 RETURN JUMPDEST PUSH2 0x2EC PUSH1 0x4 DUP1 CALLDATASIZE SUB DUP2 ADD SWAP1 PUSH2 0x2E7 SWAP2 SWAP1 PUSH2 0x200F JUMP JUMPDEST PUSH2 0x68C JUMP JUMPDEST PUSH1 0x40 MLOAD PUSH2 0x2F9 SWAP2 SWAP1 PUSH2 0x208F JUMP JUMPDEST PUSH1 0x40 MLOAD DUP1 SWAP2 SUB SWAP1 RETURN JUMPDEST PUSH2 0x30A PUSH2 0x6F8 JUMP JUMPDEST PUSH1 0x40 MLOAD PUSH2 0x317 SWAP2 SWAP1 PUSH2 0x208F JUMP JUMPDEST PUSH1 0x40 MLOAD DUP1 SWAP2 SUB SWAP1 RETURN JUMPDEST PUSH2 0x328 PUSH2 0x706 JUMP JUMPDEST PUSH1 0x40 MLOAD PUSH2 0x335 SWAP2 SWAP1 PUSH2 0x208F JUMP JUMPDEST PUSH1 0x40 MLOAD DUP1 SWAP2 SUB SWAP1 RETURN JUMPDEST PUSH2 0x358 PUSH1 0x4 DUP1 CALLDATASIZE SUB DUP2 ADD SWAP1 PUSH2 0x353 SWAP2 SWAP1 PUSH2 0x2188 JUMP JUMPDEST PUSH2 0x71D JUMP JUMPDEST PUSH1 0x40 MLOAD PUSH2 0x365 SWAP2 SWAP1 PUSH2 0x208F JUMP JUMPDEST PUSH1 0x40 MLOAD DUP1 SWAP2 SUB SWAP1 RETURN JUMPDEST PUSH2 0x376 PUSH2 0x762 JUMP JUMPDEST STOP JUMPDEST PUSH2 0x392 PUSH1 0x4 DUP1 CALLDATASIZE SUB DUP2 ADD SWAP1 PUSH2 0x38D SWAP2 SWAP1 PUSH2 0x200F JUMP JUMPDEST PUSH2 0x775 JUMP JUMPDEST STOP JUMPDEST PUSH2 0x3AE PUSH1 0x4 DUP1 CALLDATASIZE SUB DUP2 ADD SWAP1 PUSH2 0x3A9 SWAP2 SWAP1 PUSH2 0x2188 JUMP JUMPDEST PUSH2 0x795 JUMP JUMPDEST PUSH1 0x40 MLOAD PUSH2 0x3BB SWAP2 SWAP1 PUSH2 0x208F JUMP JUMPDEST PUSH1 0x40 MLOAD DUP1 SWAP2 SUB SWAP1 RETURN JUMPDEST PUSH2 0x3CC PUSH2 0x7E2 JUMP JUMPDEST PUSH1 0x40 MLOAD PUSH2 0x3DF SWAP8 SWAP7 SWAP6 SWAP5 SWAP4 SWAP3 SWAP2 SWAP1 PUSH2 0x22B3 JUMP JUMPDEST PUSH1 0x40 MLOAD DUP1 SWAP2 SUB SWAP1 RETURN JUMPDEST PUSH2 0x3F0 PUSH2 0x8DF JUMP JUMPDEST PUSH1 0x40 MLOAD PUSH2 0x3FD SWAP2 SWAP1 PUSH2 0x2335 JUMP JUMPDEST PUSH1 0x40 MLOAD DUP1 SWAP2 SUB SWAP1 RETURN JUMPDEST PUSH2 0x40E PUSH2 0x907 JUMP JUMPDEST PUSH1 0x40 MLOAD PUSH2 0x41B SWAP2 SWAP1 PUSH2 0x1F5E JUMP JUMPDEST PUSH1 0x40 MLOAD DUP1 SWAP2 SUB SWAP1 RETURN JUMPDEST PUSH2 0x43E PUSH1 0x4 DUP1 CALLDATASIZE SUB DUP2 ADD SWAP1 PUSH2 0x439 SWAP2 SWAP1 PUSH2 0x215D JUMP JUMPDEST PUSH2 0x997 JUMP JUMPDEST PUSH1 0x40 MLOAD PUSH2 0x44B SWAP2 SWAP1 PUSH2 0x208F JUMP JUMPDEST PUSH1 0x40 MLOAD DUP1 SWAP2 SUB SWAP1 RETURN JUMPDEST PUSH2 0x46E PUSH1 0x4 DUP1 CALLDATASIZE SUB DUP2 ADD SWAP1 PUSH2 0x469 SWAP2 SWAP1 PUSH2 0x200F JUMP JUMPDEST PUSH2 0x9C6 JUMP JUMPDEST PUSH1 0x40 MLOAD PUSH2 0x47B SWAP2 SWAP1 PUSH2 0x2067 JUMP JUMPDEST PUSH1 0x40 MLOAD DUP1 SWAP2 SUB SWAP1 RETURN JUMPDEST PUSH2 0x49E PUSH1 0x4 DUP1 CALLDATASIZE SUB DUP2 ADD SWAP1 PUSH2 0x499 SWAP2 SWAP1 PUSH2 0x200F JUMP JUMPDEST PUSH2 0xA3B JUMP JUMPDEST PUSH1 0x40 MLOAD PUSH2 0x4AB SWAP2 SWAP1 PUSH2 0x2067 JUMP JUMPDEST PUSH1 0x40 MLOAD DUP1 SWAP2 SUB SWAP1 RETURN JUMPDEST PUSH2 0x4CE PUSH1 0x4 DUP1 CALLDATASIZE SUB DUP2 ADD SWAP1 PUSH2 0x4C9 SWAP2 SWAP1 PUSH2 0x23A2 JUMP JUMPDEST PUSH2 0xA5D JUMP JUMPDEST STOP JUMPDEST PUSH2 0x4D8 PUSH2 0xB9C JUMP JUMPDEST PUSH1 0x40 MLOAD PUSH2 0x4E5 SWAP2 SWAP1 PUSH2 0x208F JUMP JUMPDEST PUSH1 0x40 MLOAD DUP1 SWAP2 SUB SWAP1 RETURN JUMPDEST PUSH2 0x508 PUSH1 0x4 DUP1 CALLDATASIZE SUB DUP2 ADD SWAP1 PUSH2 0x503 SWAP2 SWAP1 PUSH2 0x243F JUMP JUMPDEST PUSH2 0xBA5 JUMP JUMPDEST PUSH1 0x40 MLOAD PUSH2 0x515 SWAP2 SWAP1 PUSH2 0x208F JUMP JUMPDEST PUSH1 0x40 MLOAD DUP1 SWAP2 SUB SWAP1 RETURN JUMPDEST PUSH2 0x538 PUSH1 0x4 DUP1 CALLDATASIZE SUB DUP2 ADD SWAP1 PUSH2 0x533 SWAP2 SWAP1 PUSH2 0x2188 JUMP JUMPDEST PUSH2 0xC27 JUMP JUMPDEST STOP JUMPDEST PUSH1 0x60 PUSH1 0x3 DUP1 SLOAD PUSH2 0x549 SWAP1 PUSH2 0x24AA JUMP JUMPDEST DUP1 PUSH1 0x1F ADD PUSH1 0x20 DUP1 SWAP2 DIV MUL PUSH1 0x20 ADD PUSH1 0x40 MLOAD SWAP1 DUP2 ADD PUSH1 0x40 MSTORE DUP1 SWAP3 SWAP2 SWAP1 DUP2 DUP2 MSTORE PUSH1 0x20 ADD DUP3 DUP1 SLOAD PUSH2 0x575 SWAP1 PUSH2 0x24AA JUMP JUMPDEST DUP1 ISZERO PUSH2 0x5C0 JUMPI DUP1 PUSH1 0x1F LT PUSH2 0x597 JUMPI PUSH2 0x100 DUP1 DUP4 SLOAD DIV MUL DUP4 MSTORE SWAP2 PUSH1 0x20 ADD SWAP2 PUSH2 0x5C0 JUMP JUMPDEST DUP3 ADD SWAP2 SWAP1 PUSH0 MSTORE PUSH1 0x20 PUSH0 KECCAK256 SWAP1 JUMPDEST DUP2 SLOAD DUP2 MSTORE SWAP1 PUSH1 0x1 ADD SWAP1 PUSH1 0x20 ADD DUP1 DUP4 GT PUSH2 0x5A3 JUMPI DUP3 SWAP1 SUB PUSH1 0x1F AND DUP3 ADD SWAP2 JUMPDEST POP POP POP POP POP SWAP1 POP SWAP1 JUMP JUMPDEST PUSH0 DUP1 PUSH2 0x5D4 PUSH2 0xCA9 JUMP JUMPDEST SWAP1 POP PUSH2 0x5E1 DUP2 DUP6 DUP6 PUSH2 0xCB0 JUMP JUMPDEST PUSH1 0x1 SWAP2 POP POP SWAP3 SWAP2 POP POP JUMP JUMPDEST PUSH0 PUSH1 0x2 SLOAD SWAP1 POP SWAP1 JUMP JUMPDEST PUSH0 DUP1 PUSH2 0x5FF PUSH2 0xCA9 JUMP JUMPDEST SWAP1 POP PUSH2 0x60C DUP6 DUP3 DUP6 PUSH2 0xE73 JUMP JUMPDEST PUSH2 0x617 DUP6 DUP6 DUP6 PUSH2 0xEFE JUMP JUMPDEST PUSH1 0x1 SWAP2 POP POP SWAP4 SWAP3 POP POP POP JUMP JUMPDEST PUSH0 PUSH1 0x12 SWAP1 POP SWAP1 JUMP JUMPDEST PUSH0 PUSH2 0x634 PUSH2 0x116A JUMP JUMPDEST SWAP1 POP SWAP1 JUMP JUMPDEST PUSH0 DUP1 PUSH2 0x643 PUSH2 0xCA9 JUMP JUMPDEST SWAP1 POP PUSH2 0x664 DUP2 DUP6 DUP6 PUSH2 0x655 DUP6 DUP10 PUSH2 0xBA5 JUMP JUMPDEST PUSH2 0x65F SWAP2 SWAP1 PUSH2 0x2507 JUMP JUMPDEST PUSH2 0xCB0 JUMP JUMPDEST PUSH1 0x1 SWAP2 POP POP SWAP3 SWAP2 POP POP JUMP JUMPDEST PUSH2 0x680 PUSH2 0x67A PUSH2 0xCA9 JUMP JUMPDEST DUP3 PUSH2 0x1220 JUMP JUMPDEST POP JUMP JUMPDEST PUSH0 PUSH1 0xE SLOAD SWAP1 POP SWAP1 JUMP JUMPDEST PUSH0 DUP1 PUSH0 PUSH2 0x6D5 DUP5 PUSH1 0x5 PUSH0 DUP9 PUSH20 0xFFFFFFFFFFFFFFFFFFFFFFFFFFFFFFFFFFFFFFFF AND PUSH20 0xFFFFFFFFFFFFFFFFFFFFFFFFFFFFFFFFFFFFFFFF AND DUP2 MSTORE PUSH1 0x20 ADD SWAP1 DUP2 MSTORE PUSH1 0x20 ADD PUSH0 KECCAK256 PUSH2 0x1246 JUMP JUMPDEST SWAP2 POP SWAP2 POP DUP2 PUSH2 0x6EC JUMPI PUSH2 0x6E7 DUP6 PUSH2 0x71D JUMP JUMPDEST PUSH2 0x6EE JUMP JUMPDEST DUP1 JUMPDEST SWAP3 POP POP POP SWAP3 SWAP2 POP POP JUMP JUMPDEST PUSH0 PUSH2 0x701 PUSH2 0x1333 JUMP JUMPDEST SWAP1 POP SWAP1 JUMP JUMPDEST PUSH0 PUSH2 0x70F PUSH2 0x1343 JUMP JUMPDEST POP PUSH2 0x718 PUSH2 0x1333 JUMP JUMPDEST SWAP1 POP SWAP1 JUMP JUMPDEST PUSH0 DUP1 PUSH0 DUP4 PUSH20 0xFFFFFFFFFFFFFFFFFFFFFFFFFFFFFFFFFFFFFFFF AND PUSH20 0xFFFFFFFFFFFFFFFFFFFFFFFFFFFFFFFFFFFFFFFF AND DUP2 MSTORE PUSH1 0x20 ADD SWAP1 DUP2 MSTORE PUSH1 0x20 ADD PUSH0 KECCAK256 SLOAD SWAP1 POP SWAP2 SWAP1 POP JUMP JUMPDEST PUSH2 0x76A PUSH2 0x1397 JUMP JUMPDEST PUSH2 0x773 PUSH0 PUSH2 0x1415 JUMP JUMPDEST JUMP JUMPDEST PUSH2 0x787 DUP3 PUSH2 0x781 PUSH2 0xCA9 JUMP JUMPDEST DUP4 PUSH2 0xE73 JUMP JUMPDEST PUSH2 0x791 DUP3 DUP3 PUSH2 0x1220 JUMP JUMPDEST POP POP JUMP JUMPDEST PUSH0 PUSH2 0x7DB PUSH1 0xB PUSH0 DUP5 PUSH20 0xFFFFFFFFFFFFFFFFFFFFFFFFFFFFFFFFFFFFFFFF AND PUSH20 0xFFFFFFFFFFFFFFFFFFFFFFFFFFFFFFFFFFFFFFFF AND DUP2 MSTORE PUSH1 0x20 ADD SWAP1 DUP2 MSTORE PUSH1 0x20 ADD PUSH0 KECCAK256 PUSH2 0x14D8 JUMP JUMPDEST SWAP1 POP SWAP2 SWAP1 POP JUMP JUMPDEST PUSH0 PUSH1 0x60 DUP1 PUSH0 DUP1 PUSH0 PUSH1 0x60 PUSH2 0x81F PUSH1 0x9 PUSH32 0x0 PUSH2 0x14E4 SWAP1 SWAP2 SWAP1 PUSH4 0xFFFFFFFF AND JUMP JUMPDEST PUSH2 0x853 PUSH1 0xA PUSH32 0x0 PUSH2 0x14E4 SWAP1 SWAP2 SWAP1 PUSH4 0xFFFFFFFF AND JUMP JUMPDEST CHAINID ADDRESS PUSH0 DUP1 SHL PUSH0 PUSH8 0xFFFFFFFFFFFFFFFF DUP2 GT ISZERO PUSH2 0x872 JUMPI PUSH2 0x871 PUSH2 0x253A JUMP JUMPDEST JUMPDEST PUSH1 0x40 MLOAD SWAP1 DUP1 DUP3 MSTORE DUP1 PUSH1 0x20 MUL PUSH1 0x20 ADD DUP3 ADD PUSH1 0x40 MSTORE DUP1 ISZERO PUSH2 0x8A0 JUMPI DUP2 PUSH1 0x20 ADD PUSH1 0x20 DUP3 MUL DUP1 CALLDATASIZE DUP4 CALLDATACOPY DUP1 DUP3 ADD SWAP2 POP POP SWAP1 POP JUMPDEST POP PUSH32 0xF00000000000000000000000000000000000000000000000000000000000000 SWAP6 SWAP5 SWAP4 SWAP3 SWAP2 SWAP1 SWAP7 POP SWAP7 POP SWAP7 POP SWAP7 POP SWAP7 POP SWAP7 POP SWAP7 POP SWAP1 SWAP2 SWAP3 SWAP4 SWAP5 SWAP6 SWAP7 JUMP JUMPDEST PUSH0 PUSH1 0xD PUSH0 SWAP1 SLOAD SWAP1 PUSH2 0x100 EXP SWAP1 DIV PUSH20 0xFFFFFFFFFFFFFFFFFFFFFFFFFFFFFFFFFFFFFFFF AND SWAP1 POP SWAP1 JUMP JUMPDEST PUSH1 0x60 PUSH1 0x4 DUP1 SLOAD PUSH2 0x916 SWAP1 PUSH2 0x24AA JUMP JUMPDEST DUP1 PUSH1 0x1F ADD PUSH1 0x20 DUP1 SWAP2 DIV MUL PUSH1 0x20 ADD PUSH1 0x40 MLOAD SWAP1 DUP2 ADD PUSH1 0x40 MSTORE DUP1 SWAP3 SWAP2 SWAP1 DUP2 DUP2 MSTORE PUSH1 0x20 ADD DUP3 DUP1 SLOAD PUSH2 0x942 SWAP1 PUSH2 0x24AA JUMP JUMPDEST DUP1 ISZERO PUSH2 0x98D JUMPI DUP1 PUSH1 0x1F LT PUSH2 0x964 JUMPI PUSH2 0x100 DUP1 DUP4 SLOAD DIV MUL DUP4 MSTORE SWAP2 PUSH1 0x20 ADD SWAP2 PUSH2 0x98D JUMP JUMPDEST DUP3 ADD SWAP2 SWAP1 PUSH0 MSTORE PUSH1 0x20 PUSH0 KECCAK256 SWAP1 JUMPDEST DUP2 SLOAD DUP2 MSTORE SWAP1 PUSH1 0x1 ADD SWAP1 PUSH1 0x20 ADD DUP1 DUP4 GT PUSH2 0x970 JUMPI DUP3 SWAP1 SUB PUSH1 0x1F AND DUP3 ADD SWAP2 JUMPDEST POP POP POP POP POP SWAP1 POP SWAP1 JUMP JUMPDEST PUSH0 DUP1 PUSH0 PUSH2 0x9A5 DUP5 PUSH1 0x6 PUSH2 0x1246 JUMP JUMPDEST SWAP2 POP SWAP2 POP DUP2 PUSH2 0x9BB JUMPI PUSH2 0x9B6 PUSH2 0x5EC JUMP JUMPDEST PUSH2 0x9BD JUMP JUMPDEST DUP1 JUMPDEST SWAP3 POP POP POP SWAP2 SWAP1 POP JUMP JUMPDEST PUSH0 DUP1 PUSH2 0x9D0 PUSH2 0xCA9 JUMP JUMPDEST SWAP1 POP PUSH0 PUSH2 0x9DD DUP3 DUP7 PUSH2 0xBA5 JUMP JUMPDEST SWAP1 POP DUP4 DUP2 LT ISZERO PUSH2 0xA22 JUMPI PUSH1 0x40 MLOAD PUSH32 0x8C379A000000000000000000000000000000000000000000000000000000000 DUP2 MSTORE PUSH1 0x4 ADD PUSH2 0xA19 SWAP1 PUSH2 0x25D7 JUMP JUMPDEST PUSH1 0x40 MLOAD DUP1 SWAP2 SUB SWAP1 REVERT JUMPDEST PUSH2 0xA2F DUP3 DUP7 DUP7 DUP5 SUB PUSH2 0xCB0 JUMP JUMPDEST PUSH1 0x1 SWAP3 POP POP POP SWAP3 SWAP2 POP POP JUMP JUMPDEST PUSH0 DUP1 PUSH2 0xA45 PUSH2 0xCA9 JUMP JUMPDEST SWAP1 POP PUSH2 0xA52 DUP2 DUP6 DUP6 PUSH2 0xEFE JUMP JUMPDEST PUSH1 0x1 SWAP2 POP POP SWAP3 SWAP2 POP POP JUMP JUMPDEST DUP4 TIMESTAMP GT ISZERO PUSH2 0xAA0 JUMPI PUSH1 0x40 MLOAD PUSH32 0x8C379A000000000000000000000000000000000000000000000000000000000 DUP2 MSTORE PUSH1 0x4 ADD PUSH2 0xA97 SWAP1 PUSH2 0x263F JUMP JUMPDEST PUSH1 0x40 MLOAD DUP1 SWAP2 SUB SWAP1 REVERT JUMPDEST PUSH0 PUSH32 0x6E71EDAE12B1B97F4D1F60370FEF10105FA2FAAE0126114A169C64845D6126C9 DUP9 DUP9 DUP9 PUSH2 0xACE DUP13 PUSH2 0x1591 JUMP JUMPDEST DUP10 PUSH1 0x40 MLOAD PUSH1 0x20 ADD PUSH2 0xAE4 SWAP7 SWAP6 SWAP5 SWAP4 SWAP3 SWAP2 SWAP1 PUSH2 0x265D JUMP JUMPDEST PUSH1 0x40 MLOAD PUSH1 0x20 DUP2 DUP4 SUB SUB DUP2 MSTORE SWAP1 PUSH1 0x40 MSTORE DUP1 MLOAD SWAP1 PUSH1 0x20 ADD KECCAK256 SWAP1 POP PUSH0 PUSH2 0xB06 DUP3 PUSH2 0x15EC JUMP JUMPDEST SWAP1 POP PUSH0 PUSH2 0xB15 DUP3 DUP8 DUP8 DUP8 PUSH2 0x1605 JUMP JUMPDEST SWAP1 POP DUP10 PUSH20 0xFFFFFFFFFFFFFFFFFFFFFFFFFFFFFFFFFFFFFFFF AND DUP2 PUSH20 0xFFFFFFFFFFFFFFFFFFFFFFFFFFFFFFFFFFFFFFFF AND EQ PUSH2 0xB85 JUMPI PUSH1 0x40 MLOAD PUSH32 0x8C379A000000000000000000000000000000000000000000000000000000000 DUP2 MSTORE PUSH1 0x4 ADD PUSH2 0xB7C SWAP1 PUSH2 0x2706 JUMP JUMPDEST PUSH1 0x40 MLOAD DUP1 SWAP2 SUB SWAP1 REVERT JUMPDEST PUSH2 0xB90 DUP11 DUP11 DUP11 PUSH2 0xCB0 JUMP JUMPDEST POP POP POP POP POP POP POP POP POP POP JUMP JUMPDEST PUSH0 PUSH1 0xF SLOAD SWAP1 POP SWAP1 JUMP JUMPDEST PUSH0 PUSH1 0x1 PUSH0 DUP5 PUSH20 0xFFFFFFFFFFFFFFFFFFFFFFFFFFFFFFFFFFFFFFFF AND PUSH20 0xFFFFFFFFFFFFFFFFFFFFFFFFFFFFFFFFFFFFFFFF AND DUP2 MSTORE PUSH1 0x20 ADD SWAP1 DUP2 MSTORE PUSH1 0x20 ADD PUSH0 KECCAK256 PUSH0 DUP4 PUSH20 0xFFFFFFFFFFFFFFFFFFFFFFFFFFFFFFFFFFFFFFFF AND PUSH20 0xFFFFFFFFFFFFFFFFFFFFFFFFFFFFFFFFFFFFFFFF AND DUP2 MSTORE PUSH1 0x20 ADD SWAP1 DUP2 MSTORE PUSH1 0x20 ADD PUSH0 KECCAK256 SLOAD SWAP1 POP SWAP3 SWAP2 POP POP JUMP JUMPDEST PUSH2 0xC2F PUSH2 0x1397 JUMP JUMPDEST PUSH0 PUSH20 0xFFFFFFFFFFFFFFFFFFFFFFFFFFFFFFFFFFFFFFFF AND DUP2 PUSH20 0xFFFFFFFFFFFFFFFFFFFFFFFFFFFFFFFFFFFFFFFF AND SUB PUSH2 0xC9D JUMPI PUSH1 0x40 MLOAD PUSH32 0x8C379A000000000000000000000000000000000000000000000000000000000 DUP2 MSTORE PUSH1 0x4 ADD PUSH2 0xC94 SWAP1 PUSH2 0x2794 JUMP JUMPDEST PUSH1 0x40 MLOAD DUP1 SWAP2 SUB SWAP1 REVERT JUMPDEST PUSH2 0xCA6 DUP2 PUSH2 0x1415 JUMP JUMPDEST POP JUMP JUMPDEST PUSH0 CALLER SWAP1 POP SWAP1 JUMP JUMPDEST PUSH0 PUSH20 0xFFFFFFFFFFFFFFFFFFFFFFFFFFFFFFFFFFFFFFFF AND DUP4 PUSH20 0xFFFFFFFFFFFFFFFFFFFFFFFFFFFFFFFFFFFFFFFF AND SUB PUSH2 0xD1E JUMPI PUSH1 0x40 MLOAD PUSH32 0x8C379A000000000000000000000000000000000000000000000000000000000 DUP2 MSTORE PUSH1 0x4 ADD PUSH2 0xD15 SWAP1 PUSH2 0x2822 JUMP JUMPDEST PUSH1 0x40 MLOAD DUP1 SWAP2 SUB SWAP1 REVERT JUMPDEST PUSH0 PUSH20 0xFFFFFFFFFFFFFFFFFFFFFFFFFFFFFFFFFFFFFFFF AND DUP3 PUSH20 0xFFFFFFFFFFFFFFFFFFFFFFFFFFFFFFFFFFFFFFFF AND SUB PUSH2 0xD8C JUMPI PUSH1 0x40 MLOAD PUSH32 0x8C379A000000000000000000000000000000000000000000000000000000000 DUP2 MSTORE PUSH1 0x4 ADD PUSH2 0xD83 SWAP1 PUSH2 0x28B0 JUMP JUMPDEST PUSH1 0x40 MLOAD DUP1 SWAP2 SUB SWAP1 REVERT JUMPDEST DUP1 PUSH1 0x1 PUSH0 DUP6 PUSH20 0xFFFFFFFFFFFFFFFFFFFFFFFFFFFFFFFFFFFFFFFF AND PUSH20 0xFFFFFFFFFFFFFFFFFFFFFFFFFFFFFFFFFFFFFFFF AND DUP2 MSTORE PUSH1 0x20 ADD SWAP1 DUP2 MSTORE PUSH1 0x20 ADD PUSH0 KECCAK256 PUSH0 DUP5 PUSH20 0xFFFFFFFFFFFFFFFFFFFFFFFFFFFFFFFFFFFFFFFF AND PUSH20 0xFFFFFFFFFFFFFFFFFFFFFFFFFFFFFFFFFFFFFFFF AND DUP2 MSTORE PUSH1 0x20 ADD SWAP1 DUP2 MSTORE PUSH1 0x20 ADD PUSH0 KECCAK256 DUP2 SWAP1 SSTORE POP DUP2 PUSH20 0xFFFFFFFFFFFFFFFFFFFFFFFFFFFFFFFFFFFFFFFF AND DUP4 PUSH20 0xFFFFFFFFFFFFFFFFFFFFFFFFFFFFFFFFFFFFFFFF AND PUSH32 0x8C5BE1E5EBEC7D5BD14F71427D1E84F3DD0314C0F7B2291E5B200AC8C7C3B925 DUP4 PUSH1 0x40 MLOAD PUSH2 0xE66 SWAP2 SWAP1 PUSH2 0x208F JUMP JUMPDEST PUSH1 0x40 MLOAD DUP1 SWAP2 SUB SWAP1 LOG3 POP POP POP JUMP JUMPDEST PUSH0 PUSH2 0xE7E DUP5 DUP5 PUSH2 0xBA5 JUMP JUMPDEST SWAP1 POP PUSH32 0xFFFFFFFFFFFFFFFFFFFFFFFFFFFFFFFFFFFFFFFFFFFFFFFFFFFFFFFFFFFFFFFF DUP2 EQ PUSH2 0xEF8 JUMPI DUP2 DUP2 LT ISZERO PUSH2 0xEEA JUMPI PUSH1 0x40 MLOAD PUSH32 0x8C379A000000000000000000000000000000000000000000000000000000000 DUP2 MSTORE PUSH1 0x4 ADD PUSH2 0xEE1 SWAP1 PUSH2 0x2918 JUMP JUMPDEST PUSH1 0x40 MLOAD DUP1 SWAP2 SUB SWAP1 REVERT JUMPDEST PUSH2 0xEF7 DUP5 DUP5 DUP5 DUP5 SUB PUSH2 0xCB0 JUMP JUMPDEST JUMPDEST POP POP POP POP JUMP JUMPDEST PUSH0 PUSH20 0xFFFFFFFFFFFFFFFFFFFFFFFFFFFFFFFFFFFFFFFF AND DUP4 PUSH20 0xFFFFFFFFFFFFFFFFFFFFFFFFFFFFFFFFFFFFFFFF AND SUB PUSH2 0xF6C JUMPI PUSH1 0x40 MLOAD PUSH32 0x8C379A000000000000000000000000000000000000000000000000000000000 DUP2 MSTORE PUSH1 0x4 ADD PUSH2 0xF63 SWAP1 PUSH2 0x29A6 JUMP JUMPDEST PUSH1 0x40 MLOAD DUP1 SWAP2 SUB SWAP1 REVERT JUMPDEST PUSH0 PUSH20 0xFFFFFFFFFFFFFFFFFFFFFFFFFFFFFFFFFFFFFFFF AND DUP3 PUSH20 0xFFFFFFFFFFFFFFFFFFFFFFFFFFFFFFFFFFFFFFFF AND SUB PUSH2 0xFDA JUMPI PUSH1 0x40 MLOAD PUSH32 0x8C379A000000000000000000000000000000000000000000000000000000000 DUP2 MSTORE PUSH1 0x4 ADD PUSH2 0xFD1 SWAP1 PUSH2 0x2A34 JUMP JUMPDEST PUSH1 0x40 MLOAD DUP1 SWAP2 SUB SWAP1 REVERT JUMPDEST PUSH2 0xFE5 DUP4 DUP4 DUP4 PUSH2 0x162E JUMP JUMPDEST PUSH0 DUP1 PUSH0 DUP6 PUSH20 0xFFFFFFFFFFFFFFFFFFFFFFFFFFFFFFFFFFFFFFFF AND PUSH20 0xFFFFFFFFFFFFFFFFFFFFFFFFFFFFFFFFFFFFFFFF AND DUP2 MSTORE PUSH1 0x20 ADD SWAP1 DUP2 MSTORE PUSH1 0x20 ADD PUSH0 KECCAK256 SLOAD SWAP1 POP DUP2 DUP2 LT ISZERO PUSH2 0x1068 JUMPI PUSH1 0x40 MLOAD PUSH32 0x8C379A000000000000000000000000000000000000000000000000000000000 DUP2 MSTORE PUSH1 0x4 ADD PUSH2 0x105F SWAP1 PUSH2 0x2AC2 JUMP JUMPDEST PUSH1 0x40 MLOAD DUP1 SWAP2 SUB SWAP1 REVERT JUMPDEST DUP2 DUP2 SUB PUSH0 DUP1 DUP7 PUSH20 0xFFFFFFFFFFFFFFFFFFFFFFFFFFFFFFFFFFFFFFFF AND PUSH20 0xFFFFFFFFFFFFFFFFFFFFFFFFFFFFFFFFFFFFFFFF AND DUP2 MSTORE PUSH1 0x20 ADD SWAP1 DUP2 MSTORE PUSH1 0x20 ADD PUSH0 KECCAK256 DUP2 SWAP1 SSTORE POP DUP2 PUSH0 DUP1 DUP6 PUSH20 0xFFFFFFFFFFFFFFFFFFFFFFFFFFFFFFFFFFFFFFFF AND PUSH20 0xFFFFFFFFFFFFFFFFFFFFFFFFFFFFFFFFFFFFFFFF AND DUP2 MSTORE PUSH1 0x20 ADD SWAP1 DUP2 MSTORE PUSH1 0x20 ADD PUSH0 KECCAK256 PUSH0 DUP3 DUP3 SLOAD ADD SWAP3 POP POP DUP2 SWAP1 SSTORE POP DUP3 PUSH20 0xFFFFFFFFFFFFFFFFFFFFFFFFFFFFFFFFFFFFFFFF AND DUP5 PUSH20 0xFFFFFFFFFFFFFFFFFFFFFFFFFFFFFFFFFFFFFFFF AND PUSH32 0xDDF252AD1BE2C89B69C2B068FC378DAA952BA7F163C4A11628F55A4DF523B3EF DUP5 PUSH1 0x40 MLOAD PUSH2 0x1151 SWAP2 SWAP1 PUSH2 0x208F JUMP JUMPDEST PUSH1 0x40 MLOAD DUP1 SWAP2 SUB SWAP1 LOG3 PUSH2 0x1164 DUP5 DUP5 DUP5 PUSH2 0x163E JUMP JUMPDEST POP POP POP POP JUMP JUMPDEST PUSH0 PUSH32 0x0 PUSH20 0xFFFFFFFFFFFFFFFFFFFFFFFFFFFFFFFFFFFFFFFF AND ADDRESS PUSH20 0xFFFFFFFFFFFFFFFFFFFFFFFFFFFFFFFFFFFFFFFF AND EQ DUP1 ISZERO PUSH2 0x11E5 JUMPI POP PUSH32 0x0 CHAINID EQ JUMPDEST ISZERO PUSH2 0x1212 JUMPI PUSH32 0x0 SWAP1 POP PUSH2 0x121D JUMP JUMPDEST PUSH2 0x121A PUSH2 0x164E JUMP JUMPDEST SWAP1 POP JUMPDEST SWAP1 JUMP JUMPDEST DUP1 PUSH1 0xF PUSH0 DUP3 DUP3 SLOAD PUSH2 0x1231 SWAP2 SWAP1 PUSH2 0x2AE0 JUMP JUMPDEST SWAP3 POP POP DUP2 SWAP1 SSTORE POP PUSH2 0x1242 DUP3 DUP3 PUSH2 0x16E3 JUMP JUMPDEST POP POP JUMP JUMPDEST PUSH0 DUP1 PUSH0 DUP5 GT PUSH2 0x128A JUMPI PUSH1 0x40 MLOAD PUSH32 0x8C379A000000000000000000000000000000000000000000000000000000000 DUP2 MSTORE PUSH1 0x4 ADD PUSH2 0x1281 SWAP1 PUSH2 0x2B5D JUMP JUMPDEST PUSH1 0x40 MLOAD DUP1 SWAP2 SUB SWAP1 REVERT JUMPDEST PUSH2 0x1292 PUSH2 0x1333 JUMP JUMPDEST DUP5 GT ISZERO PUSH2 0x12D4 JUMPI PUSH1 0x40 MLOAD PUSH32 0x8C379A000000000000000000000000000000000000000000000000000000000 DUP2 MSTORE PUSH1 0x4 ADD PUSH2 0x12CB SWAP1 PUSH2 0x2BC5 JUMP JUMPDEST PUSH1 0x40 MLOAD DUP1 SWAP2 SUB SWAP1 REVERT JUMPDEST PUSH0 PUSH2 0x12EA DUP6 DUP6 PUSH0 ADD PUSH2 0x18A6 SWAP1 SWAP2 SWAP1 PUSH4 0xFFFFFFFF AND JUMP JUMPDEST SWAP1 POP DUP4 PUSH0 ADD DUP1 SLOAD SWAP1 POP DUP2 SUB PUSH2 0x1305 JUMPI PUSH0 DUP1 SWAP3 POP SWAP3 POP POP PUSH2 0x132C JUMP JUMPDEST PUSH1 0x1 DUP5 PUSH1 0x1 ADD DUP3 DUP2 SLOAD DUP2 LT PUSH2 0x131D JUMPI PUSH2 0x131C PUSH2 0x2BE3 JUMP JUMPDEST JUMPDEST SWAP1 PUSH0 MSTORE PUSH1 0x20 PUSH0 KECCAK256 ADD SLOAD SWAP3 POP SWAP3 POP POP JUMPDEST SWAP3 POP SWAP3 SWAP1 POP JUMP JUMPDEST PUSH0 PUSH2 0x133E PUSH1 0x8 PUSH2 0x14D8 JUMP JUMPDEST SWAP1 POP SWAP1 JUMP JUMPDEST PUSH0 PUSH2 0x134E PUSH1 0x8 PUSH2 0x1958 JUMP JUMPDEST PUSH0 PUSH2 0x1357 PUSH2 0x1333 JUMP JUMPDEST SWAP1 POP PUSH32 0x8030E83B04D87BEF53480E26263266D6CA66863AA8506ACA6F2559D18AA1CB67 DUP2 PUSH1 0x40 MLOAD PUSH2 0x1388 SWAP2 SWAP1 PUSH2 0x208F JUMP JUMPDEST PUSH1 0x40 MLOAD DUP1 SWAP2 SUB SWAP1 LOG1 DUP1 SWAP2 POP POP SWAP1 JUMP JUMPDEST PUSH2 0x139F PUSH2 0xCA9 JUMP JUMPDEST PUSH20 0xFFFFFFFFFFFFFFFFFFFFFFFFFFFFFFFFFFFFFFFF AND PUSH2 0x13BD PUSH2 0x8DF JUMP JUMPDEST PUSH20 0xFFFFFFFFFFFFFFFFFFFFFFFFFFFFFFFFFFFFFFFF AND EQ PUSH2 0x1413 JUMPI PUSH1 0x40 MLOAD PUSH32 0x8C379A000000000000000000000000000000000000000000000000000000000 DUP2 MSTORE PUSH1 0x4 ADD PUSH2 0x140A SWAP1 PUSH2 0x2C5A JUMP JUMPDEST PUSH1 0x40 MLOAD DUP1 SWAP2 SUB SWAP1 REVERT JUMPDEST JUMP JUMPDEST PUSH0 PUSH1 0xD PUSH0 SWAP1 SLOAD SWAP1 PUSH2 0x100 EXP SWAP1 DIV PUSH20 0xFFFFFFFFFFFFFFFFFFFFFFFFFFFFFFFFFFFFFFFF AND SWAP1 POP DUP2 PUSH1 0xD PUSH0 PUSH2 0x100 EXP DUP2 SLOAD DUP2 PUSH20 0xFFFFFFFFFFFFFFFFFFFFFFFFFFFFFFFFFFFFFFFF MUL NOT AND SWAP1 DUP4 PUSH20 0xFFFFFFFFFFFFFFFFFFFFFFFFFFFFFFFFFFFFFFFF AND MUL OR SWAP1 SSTORE POP DUP2 PUSH20 0xFFFFFFFFFFFFFFFFFFFFFFFFFFFFFFFFFFFFFFFF AND DUP2 PUSH20 0xFFFFFFFFFFFFFFFFFFFFFFFFFFFFFFFFFFFFFFFF AND PUSH32 0x8BE0079C531659141344CD1FD0A4F28419497F9722A3DAAFE3B4186F6B6457E0 PUSH1 0x40 MLOAD PUSH1 0x40 MLOAD DUP1 SWAP2 SUB SWAP1 LOG3 POP POP JUMP JUMPDEST PUSH0 DUP2 PUSH0 ADD SLOAD SWAP1 POP SWAP2 SWAP1 POP JUMP JUMPDEST PUSH1 0x60 PUSH1 0xFF PUSH0 SHL DUP4 EQ PUSH2 0x1500 JUMPI PUSH2 0x14F9 DUP4 PUSH2 0x196C JUMP JUMPDEST SWAP1 POP PUSH2 0x158B JUMP JUMPDEST DUP2 DUP1 SLOAD PUSH2 0x150C SWAP1 PUSH2 0x24AA JUMP JUMPDEST DUP1 PUSH1 0x1F ADD PUSH1 0x20 DUP1 SWAP2 DIV MUL PUSH1 0x20 ADD PUSH1 0x40 MLOAD SWAP1 DUP2 ADD PUSH1 0x40 MSTORE DUP1 SWAP3 SWAP2 SWAP1 DUP2 DUP2 MSTORE PUSH1 0x20 ADD DUP3 DUP1 SLOAD PUSH2 0x1538 SWAP1 PUSH2 0x24AA JUMP JUMPDEST DUP1 ISZERO PUSH2 0x1583 JUMPI DUP1 PUSH1 0x1F LT PUSH2 0x155A JUMPI PUSH2 0x100 DUP1 DUP4 SLOAD DIV MUL DUP4 MSTORE SWAP2 PUSH1 0x20 ADD SWAP2 PUSH2 0x1583 JUMP JUMPDEST DUP3 ADD SWAP2 SWAP1 PUSH0 MSTORE PUSH1 0x20 PUSH0 KECCAK256 SWAP1 JUMPDEST DUP2 SLOAD DUP2 MSTORE SWAP1 PUSH1 0x1 ADD SWAP1 PUSH1 0x20 ADD DUP1 DUP4 GT PUSH2 0x1566 JUMPI DUP3 SWAP1 SUB PUSH1 0x1F AND DUP3 ADD SWAP2 JUMPDEST POP POP POP POP POP SWAP1 POP JUMPDEST SWAP3 SWAP2 POP POP JUMP JUMPDEST PUSH0 DUP1 PUSH1 0xB PUSH0 DUP5 PUSH20 0xFFFFFFFFFFFFFFFFFFFFFFFFFFFFFFFFFFFFFFFF AND PUSH20 0xFFFFFFFFFFFFFFFFFFFFFFFFFFFFFFFFFFFFFFFF AND DUP2 MSTORE PUSH1 0x20 ADD SWAP1 DUP2 MSTORE PUSH1 0x20 ADD PUSH0 KECCAK256 SWAP1 POP PUSH2 0x15DB DUP2 PUSH2 0x14D8 JUMP JUMPDEST SWAP2 POP PUSH2 0x15E6 DUP2 PUSH2 0x1958 JUMP JUMPDEST POP SWAP2 SWAP1 POP JUMP JUMPDEST PUSH0 PUSH2 0x15FE PUSH2 0x15F8 PUSH2 0x116A JUMP JUMPDEST DUP4 PUSH2 0x19DE JUMP JUMPDEST SWAP1 POP SWAP2 SWAP1 POP JUMP JUMPDEST PUSH0 DUP1 PUSH0 PUSH2 0x1614 DUP8 DUP8 DUP8 DUP8 PUSH2 0x1A1E JUMP JUMPDEST SWAP2 POP SWAP2 POP PUSH2 0x1621 DUP2 PUSH2 0x1AF6 JUMP JUMPDEST DUP2 SWAP3 POP POP POP SWAP5 SWAP4 POP POP POP POP JUMP JUMPDEST PUSH2 0x1639 DUP4 DUP4 DUP4 PUSH2 0x1C5A JUMP JUMPDEST POP POP POP JUMP JUMPDEST PUSH2 0x1649 DUP4 DUP4 DUP4 PUSH2 0x1D10 JUMP JUMPDEST POP POP POP JUMP JUMPDEST PUSH0 PUSH32 0x8B73C3C69BB8FE3D512ECC4CF759CC79239F7B179B0FFACAA9A75D522B39400F PUSH32 0x0 PUSH32 0x0 CHAINID ADDRESS PUSH1 0x40 MLOAD PUSH1 0x20 ADD PUSH2 0x16C8 SWAP6 SWAP5 SWAP4 SWAP3 SWAP2 SWAP1 PUSH2 0x2C78 JUMP JUMPDEST PUSH1 0x40 MLOAD PUSH1 0x20 DUP2 DUP4 SUB SUB DUP2 MSTORE SWAP1 PUSH1 0x40 MSTORE DUP1 MLOAD SWAP1 PUSH1 0x20 ADD KECCAK256 SWAP1 POP SWAP1 JUMP JUMPDEST PUSH0 PUSH20 0xFFFFFFFFFFFFFFFFFFFFFFFFFFFFFFFFFFFFFFFF AND DUP3 PUSH20 0xFFFFFFFFFFFFFFFFFFFFFFFFFFFFFFFFFFFFFFFF AND SUB PUSH2 0x1751 JUMPI PUSH1 0x40 MLOAD PUSH32 0x8C379A000000000000000000000000000000000000000000000000000000000 DUP2 MSTORE PUSH1 0x4 ADD PUSH2 0x1748 SWAP1 PUSH2 0x2D39 JUMP JUMPDEST PUSH1 0x40 MLOAD DUP1 SWAP2 SUB SWAP1 REVERT JUMPDEST PUSH2 0x175C DUP3 PUSH0 DUP4 PUSH2 0x162E JUMP JUMPDEST PUSH0 DUP1 PUSH0 DUP5 PUSH20 0xFFFFFFFFFFFFFFFFFFFFFFFFFFFFFFFFFFFFFFFF AND PUSH20 0xFFFFFFFFFFFFFFFFFFFFFFFFFFFFFFFFFFFFFFFF AND DUP2 MSTORE PUSH1 0x20 ADD SWAP1 DUP2 MSTORE PUSH1 0x20 ADD PUSH0 KECCAK256 SLOAD SWAP1 POP DUP2 DUP2 LT ISZERO PUSH2 0x17DF JUMPI PUSH1 0x40 MLOAD PUSH32 0x8C379A000000000000000000000000000000000000000000000000000000000 DUP2 MSTORE PUSH1 0x4 ADD PUSH2 0x17D6 SWAP1 PUSH2 0x2DC7 JUMP JUMPDEST PUSH1 0x40 MLOAD DUP1 SWAP2 SUB SWAP1 REVERT JUMPDEST DUP2 DUP2 SUB PUSH0 DUP1 DUP6 PUSH20 0xFFFFFFFFFFFFFFFFFFFFFFFFFFFFFFFFFFFFFFFF AND PUSH20 0xFFFFFFFFFFFFFFFFFFFFFFFFFFFFFFFFFFFFFFFF AND DUP2 MSTORE PUSH1 0x20 ADD SWAP1 DUP2 MSTORE PUSH1 0x20 ADD PUSH0 KECCAK256 DUP2 SWAP1 SSTORE POP DUP2 PUSH1 0x2 PUSH0 DUP3 DUP3 SLOAD SUB SWAP3 POP POP DUP2 SWAP1 SSTORE POP PUSH0 PUSH20 0xFFFFFFFFFFFFFFFFFFFFFFFFFFFFFFFFFFFFFFFF AND DUP4 PUSH20 0xFFFFFFFFFFFFFFFFFFFFFFFFFFFFFFFFFFFFFFFF AND PUSH32 0xDDF252AD1BE2C89B69C2B068FC378DAA952BA7F163C4A11628F55A4DF523B3EF DUP5 PUSH1 0x40 MLOAD PUSH2 0x188E SWAP2 SWAP1 PUSH2 0x208F JUMP JUMPDEST PUSH1 0x40 MLOAD DUP1 SWAP2 SUB SWAP1 LOG3 PUSH2 0x18A1 DUP4 PUSH0 DUP5 PUSH2 0x163E JUMP JUMPDEST POP POP POP JUMP JUMPDEST PUSH0 DUP1 DUP4 DUP1 SLOAD SWAP1 POP SUB PUSH2 0x18BA JUMPI PUSH0 SWAP1 POP PUSH2 0x1952 JUMP JUMPDEST PUSH0 DUP1 DUP5 DUP1 SLOAD SWAP1 POP SWAP1 POP JUMPDEST DUP1 DUP3 LT ISZERO PUSH2 0x190B JUMPI PUSH0 PUSH2 0x18D7 DUP4 DUP4 PUSH2 0x1D15 JUMP JUMPDEST SWAP1 POP DUP5 PUSH2 0x18E4 DUP8 DUP4 PUSH2 0x1D3A JUMP JUMPDEST PUSH0 ADD SLOAD GT ISZERO PUSH2 0x18F5 JUMPI DUP1 SWAP2 POP PUSH2 0x1905 JUMP JUMPDEST PUSH1 0x1 DUP2 PUSH2 0x1902 SWAP2 SWAP1 PUSH2 0x2507 JUMP JUMPDEST SWAP3 POP JUMPDEST POP PUSH2 0x18C4 JUMP JUMPDEST PUSH0 DUP3 GT DUP1 ISZERO PUSH2 0x1931 JUMPI POP DUP4 PUSH2 0x192C DUP7 PUSH1 0x1 DUP6 PUSH2 0x1927 SWAP2 SWAP1 PUSH2 0x2AE0 JUMP JUMPDEST PUSH2 0x1D3A JUMP JUMPDEST PUSH0 ADD SLOAD EQ JUMPDEST ISZERO PUSH2 0x194C JUMPI PUSH1 0x1 DUP3 PUSH2 0x1943 SWAP2 SWAP1 PUSH2 0x2AE0 JUMP JUMPDEST SWAP3 POP POP POP PUSH2 0x1952 JUMP JUMPDEST DUP2 SWAP3 POP POP POP JUMPDEST SWAP3 SWAP2 POP POP JUMP JUMPDEST PUSH1 0x1 DUP2 PUSH0 ADD PUSH0 DUP3 DUP3 SLOAD ADD SWAP3 POP POP DUP2 SWAP1 SSTORE POP POP JUMP JUMPDEST PUSH1 0x60 PUSH0 PUSH2 0x1978 DUP4 PUSH2 0x1D59 JUMP JUMPDEST SWAP1 POP PUSH0 PUSH1 0x20 PUSH8 0xFFFFFFFFFFFFFFFF DUP2 GT ISZERO PUSH2 0x1996 JUMPI PUSH2 0x1995 PUSH2 0x253A JUMP JUMPDEST JUMPDEST PUSH1 0x40 MLOAD SWAP1 DUP1 DUP3 MSTORE DUP1 PUSH1 0x1F ADD PUSH1 0x1F NOT AND PUSH1 0x20 ADD DUP3 ADD PUSH1 0x40 MSTORE DUP1 ISZERO PUSH2 0x19C8 JUMPI DUP2 PUSH1 0x20 ADD PUSH1 0x1 DUP3 MUL DUP1 CALLDATASIZE DUP4 CALLDATACOPY DUP1 DUP3 ADD SWAP2 POP POP SWAP1 POP JUMPDEST POP SWAP1 POP DUP2 DUP2 MSTORE DUP4 PUSH1 0x20 DUP3 ADD MSTORE DUP1 SWAP3 POP POP POP SWAP2 SWAP1 POP JUMP JUMPDEST PUSH0 PUSH1 0x40 MLOAD PUSH32 0x1901000000000000000000000000000000000000000000000000000000000000 DUP2 MSTORE DUP4 PUSH1 0x2 DUP3 ADD MSTORE DUP3 PUSH1 0x22 DUP3 ADD MSTORE PUSH1 0x42 DUP2 KECCAK256 SWAP2 POP POP SWAP3 SWAP2 POP POP JUMP JUMPDEST PUSH0 DUP1 PUSH32 0x7FFFFFFFFFFFFFFFFFFFFFFFFFFFFFFF5D576E7357A4501DDFE92F46681B20A0 DUP4 PUSH0 SHR GT ISZERO PUSH2 0x1A56 JUMPI PUSH0 PUSH1 0x3 SWAP2 POP SWAP2 POP PUSH2 0x1AED JUMP JUMPDEST PUSH0 PUSH1 0x1 DUP8 DUP8 DUP8 DUP8 PUSH1 0x40 MLOAD PUSH0 DUP2 MSTORE PUSH1 0x20 ADD PUSH1 0x40 MSTORE PUSH1 0x40 MLOAD PUSH2 0x1A79 SWAP5 SWAP4 SWAP3 SWAP2 SWAP1 PUSH2 0x2DE5 JUMP JUMPDEST PUSH1 0x20 PUSH1 0x40 MLOAD PUSH1 0x20 DUP2 SUB SWAP1 DUP1 DUP5 SUB SWAP1 DUP6 GAS STATICCALL ISZERO DUP1 ISZERO PUSH2 0x1A99 JUMPI RETURNDATASIZE PUSH0 DUP1 RETURNDATACOPY RETURNDATASIZE PUSH0 REVERT JUMPDEST POP POP POP PUSH1 0x20 PUSH1 0x40 MLOAD SUB MLOAD SWAP1 POP PUSH0 PUSH20 0xFFFFFFFFFFFFFFFFFFFFFFFFFFFFFFFFFFFFFFFF AND DUP2 PUSH20 0xFFFFFFFFFFFFFFFFFFFFFFFFFFFFFFFFFFFFFFFF AND SUB PUSH2 0x1AE5 JUMPI PUSH0 PUSH1 0x1 SWAP3 POP SWAP3 POP POP PUSH2 0x1AED JUMP JUMPDEST DUP1 PUSH0 SWAP3 POP SWAP3 POP POP JUMPDEST SWAP5 POP SWAP5 SWAP3 POP POP POP JUMP JUMPDEST PUSH0 PUSH1 0x3 DUP2 GT ISZERO PUSH2 0x1B09 JUMPI PUSH2 0x1B08 PUSH2 0x2E28 JUMP JUMPDEST JUMPDEST DUP2 PUSH1 0x3 DUP2 GT ISZERO PUSH2 0x1B1C JUMPI PUSH2 0x1B1B PUSH2 0x2E28 JUMP JUMPDEST JUMPDEST SUB ISZERO PUSH2 0x1C57 JUMPI PUSH1 0x1 PUSH1 0x3 DUP2 GT ISZERO PUSH2 0x1B36 JUMPI PUSH2 0x1B35 PUSH2 0x2E28 JUMP JUMPDEST JUMPDEST DUP2 PUSH1 0x3 DUP2 GT ISZERO PUSH2 0x1B49 JUMPI PUSH2 0x1B48 PUSH2 0x2E28 JUMP JUMPDEST JUMPDEST SUB PUSH2 0x1B89 JUMPI PUSH1 0x40 MLOAD PUSH32 0x8C379A000000000000000000000000000000000000000000000000000000000 DUP2 MSTORE PUSH1 0x4 ADD PUSH2 0x1B80 SWAP1 PUSH2 0x2E9F JUMP JUMPDEST PUSH1 0x40 MLOAD DUP1 SWAP2 SUB SWAP1 REVERT JUMPDEST PUSH1 0x2 PUSH1 0x3 DUP2 GT ISZERO PUSH2 0x1B9D JUMPI PUSH2 0x1B9C PUSH2 0x2E28 JUMP JUMPDEST JUMPDEST DUP2 PUSH1 0x3 DUP2 GT ISZERO PUSH2 0x1BB0 JUMPI PUSH2 0x1BAF PUSH2 0x2E28 JUMP JUMPDEST JUMPDEST SUB PUSH2 0x1BF0 JUMPI PUSH1 0x40 MLOAD PUSH32 0x8C379A000000000000000000000000000000000000000000000000000000000 DUP2 MSTORE PUSH1 0x4 ADD PUSH2 0x1BE7 SWAP1 PUSH2 0x2F07 JUMP JUMPDEST PUSH1 0x40 MLOAD DUP1 SWAP2 SUB SWAP1 REVERT JUMPDEST PUSH1 0x3 DUP1 DUP2 GT ISZERO PUSH2 0x1C03 JUMPI PUSH2 0x1C02 PUSH2 0x2E28 JUMP JUMPDEST JUMPDEST DUP2 PUSH1 0x3 DUP2 GT ISZERO PUSH2 0x1C16 JUMPI PUSH2 0x1C15 PUSH2 0x2E28 JUMP JUMPDEST JUMPDEST SUB PUSH2 0x1C56 JUMPI PUSH1 0x40 MLOAD PUSH32 0x8C379A000000000000000000000000000000000000000000000000000000000 DUP2 MSTORE PUSH1 0x4 ADD PUSH2 0x1C4D SWAP1 PUSH2 0x2F95 JUMP JUMPDEST PUSH1 0x40 MLOAD DUP1 SWAP2 SUB SWAP1 REVERT JUMPDEST JUMPDEST POP JUMP JUMPDEST PUSH2 0x1C65 DUP4 DUP4 DUP4 PUSH2 0x1DA7 JUMP JUMPDEST PUSH0 PUSH20 0xFFFFFFFFFFFFFFFFFFFFFFFFFFFFFFFFFFFFFFFF AND DUP4 PUSH20 0xFFFFFFFFFFFFFFFFFFFFFFFFFFFFFFFFFFFFFFFF AND SUB PUSH2 0x1CAE JUMPI PUSH2 0x1CA1 DUP3 PUSH2 0x1DAC JUMP JUMPDEST PUSH2 0x1CA9 PUSH2 0x1DFD JUMP JUMPDEST PUSH2 0x1D0B JUMP JUMPDEST PUSH0 PUSH20 0xFFFFFFFFFFFFFFFFFFFFFFFFFFFFFFFFFFFFFFFF AND DUP3 PUSH20 0xFFFFFFFFFFFFFFFFFFFFFFFFFFFFFFFFFFFFFFFF AND SUB PUSH2 0x1CF7 JUMPI PUSH2 0x1CEA DUP4 PUSH2 0x1DAC JUMP JUMPDEST PUSH2 0x1CF2 PUSH2 0x1DFD JUMP JUMPDEST PUSH2 0x1D0A JUMP JUMPDEST PUSH2 0x1D00 DUP4 PUSH2 0x1DAC JUMP JUMPDEST PUSH2 0x1D09 DUP3 PUSH2 0x1DAC JUMP JUMPDEST JUMPDEST JUMPDEST POP POP POP JUMP JUMPDEST POP POP POP JUMP JUMPDEST PUSH0 PUSH1 0x2 DUP3 DUP5 XOR PUSH2 0x1D25 SWAP2 SWAP1 PUSH2 0x2FE0 JUMP JUMPDEST DUP3 DUP5 AND PUSH2 0x1D32 SWAP2 SWAP1 PUSH2 0x2507 JUMP JUMPDEST SWAP1 POP SWAP3 SWAP2 POP POP JUMP JUMPDEST PUSH0 DUP1 DUP4 PUSH0 MSTORE DUP3 PUSH1 0x20 PUSH0 KECCAK256 ADD SWAP1 POP PUSH2 0x1D50 DUP2 PUSH2 0x1E11 JUMP JUMPDEST SWAP2 POP POP SWAP3 SWAP2 POP POP JUMP JUMPDEST PUSH0 DUP1 PUSH1 0xFF DUP4 PUSH0 SHR AND SWAP1 POP PUSH1 0x1F DUP2 GT ISZERO PUSH2 0x1D9E JUMPI PUSH1 0x40 MLOAD PUSH32 0xB3512B0C00000000000000000000000000000000000000000000000000000000 DUP2 MSTORE PUSH1 0x4 ADD PUSH1 0x40 MLOAD DUP1 SWAP2 SUB SWAP1 REVERT JUMPDEST DUP1 SWAP2 POP POP SWAP2 SWAP1 POP JUMP JUMPDEST POP POP POP JUMP JUMPDEST PUSH2 0x1DFA PUSH1 0x5 PUSH0 DUP4 PUSH20 0xFFFFFFFFFFFFFFFFFFFFFFFFFFFFFFFFFFFFFFFF AND PUSH20 0xFFFFFFFFFFFFFFFFFFFFFFFFFFFFFFFFFFFFFFFF AND DUP2 MSTORE PUSH1 0x20 ADD SWAP1 DUP2 MSTORE PUSH1 0x20 ADD PUSH0 KECCAK256 PUSH2 0x1DF5 DUP4 PUSH2 0x71D JUMP JUMPDEST PUSH2 0x1E1A JUMP JUMPDEST POP JUMP JUMPDEST PUSH2 0x1E0F PUSH1 0x6 PUSH2 0x1E0A PUSH2 0x5EC JUMP JUMPDEST PUSH2 0x1E1A JUMP JUMPDEST JUMP JUMPDEST PUSH0 DUP2 SWAP1 POP SWAP2 SWAP1 POP JUMP JUMPDEST PUSH0 PUSH2 0x1E23 PUSH2 0x1333 JUMP JUMPDEST SWAP1 POP DUP1 PUSH2 0x1E31 DUP5 PUSH0 ADD PUSH2 0x1E8C JUMP JUMPDEST LT ISZERO PUSH2 0x1E87 JUMPI DUP3 PUSH0 ADD DUP2 SWAP1 DUP1 PUSH1 0x1 DUP2 SLOAD ADD DUP1 DUP3 SSTORE DUP1 SWAP2 POP POP PUSH1 0x1 SWAP1 SUB SWAP1 PUSH0 MSTORE PUSH1 0x20 PUSH0 KECCAK256 ADD PUSH0 SWAP1 SWAP2 SWAP1 SWAP2 SWAP1 SWAP2 POP SSTORE DUP3 PUSH1 0x1 ADD DUP3 SWAP1 DUP1 PUSH1 0x1 DUP2 SLOAD ADD DUP1 DUP3 SSTORE DUP1 SWAP2 POP POP PUSH1 0x1 SWAP1 SUB SWAP1 PUSH0 MSTORE PUSH1 0x20 PUSH0 KECCAK256 ADD PUSH0 SWAP1 SWAP2 SWAP1 SWAP2 SWAP1 SWAP2 POP SSTORE JUMPDEST POP POP POP JUMP JUMPDEST PUSH0 DUP1 DUP3 DUP1 SLOAD SWAP1 POP SUB PUSH2 0x1EA0 JUMPI PUSH0 SWAP1 POP PUSH2 0x1ECF JUMP JUMPDEST DUP2 PUSH1 0x1 DUP4 DUP1 SLOAD SWAP1 POP PUSH2 0x1EB2 SWAP2 SWAP1 PUSH2 0x2AE0 JUMP JUMPDEST DUP2 SLOAD DUP2 LT PUSH2 0x1EC3 JUMPI PUSH2 0x1EC2 PUSH2 0x2BE3 JUMP JUMPDEST JUMPDEST SWAP1 PUSH0 MSTORE PUSH1 0x20 PUSH0 KECCAK256 ADD SLOAD SWAP1 POP JUMPDEST SWAP2 SWAP1 POP JUMP JUMPDEST PUSH0 DUP2 MLOAD SWAP1 POP SWAP2 SWAP1 POP JUMP JUMPDEST PUSH0 DUP3 DUP3 MSTORE PUSH1 0x20 DUP3 ADD SWAP1 POP SWAP3 SWAP2 POP POP JUMP JUMPDEST PUSH0 JUMPDEST DUP4 DUP2 LT ISZERO PUSH2 0x1F0B JUMPI DUP1 DUP3 ADD MLOAD DUP2 DUP5 ADD MSTORE PUSH1 0x20 DUP2 ADD SWAP1 POP PUSH2 0x1EF0 JUMP JUMPDEST PUSH0 DUP5 DUP5 ADD MSTORE POP POP POP POP JUMP JUMPDEST PUSH0 PUSH1 0x1F NOT PUSH1 0x1F DUP4 ADD AND SWAP1 POP SWAP2 SWAP1 POP JUMP JUMPDEST PUSH0 PUSH2 0x1F30 DUP3 PUSH2 0x1ED4 JUMP JUMPDEST PUSH2 0x1F3A DUP2 DUP6 PUSH2 0x1EDE JUMP JUMPDEST SWAP4 POP PUSH2 0x1F4A DUP2 DUP6 PUSH1 0x20 DUP7 ADD PUSH2 0x1EEE JUMP JUMPDEST PUSH2 0x1F53 DUP2 PUSH2 0x1F16 JUMP JUMPDEST DUP5 ADD SWAP2 POP POP SWAP3 SWAP2 POP POP JUMP JUMPDEST PUSH0 PUSH1 0x20 DUP3 ADD SWAP1 POP DUP2 DUP2 SUB PUSH0 DUP4 ADD MSTORE PUSH2 0x1F76 DUP2 DUP5 PUSH2 0x1F26 JUMP JUMPDEST SWAP1 POP SWAP3 SWAP2 POP POP JUMP JUMPDEST PUSH0 DUP1 REVERT JUMPDEST PUSH0 PUSH20 0xFFFFFFFFFFFFFFFFFFFFFFFFFFFFFFFFFFFFFFFF DUP3 AND SWAP1 POP SWAP2 SWAP1 POP JUMP JUMPDEST PUSH0 PUSH2 0x1FAB DUP3 PUSH2 0x1F82 JUMP JUMPDEST SWAP1 POP SWAP2 SWAP1 POP JUMP JUMPDEST PUSH2 0x1FBB DUP2 PUSH2 0x1FA1 JUMP JUMPDEST DUP2 EQ PUSH2 0x1FC5 JUMPI PUSH0 DUP1 REVERT JUMPDEST POP JUMP JUMPDEST PUSH0 DUP2 CALLDATALOAD SWAP1 POP PUSH2 0x1FD6 DUP2 PUSH2 0x1FB2 JUMP JUMPDEST SWAP3 SWAP2 POP POP JUMP JUMPDEST PUSH0 DUP2 SWAP1 POP SWAP2 SWAP1 POP JUMP JUMPDEST PUSH2 0x1FEE DUP2 PUSH2 0x1FDC JUMP JUMPDEST DUP2 EQ PUSH2 0x1FF8 JUMPI PUSH0 DUP1 REVERT JUMPDEST POP JUMP JUMPDEST PUSH0 DUP2 CALLDATALOAD SWAP1 POP PUSH2 0x2009 DUP2 PUSH2 0x1FE5 JUMP JUMPDEST SWAP3 SWAP2 POP POP JUMP JUMPDEST PUSH0 DUP1 PUSH1 0x40 DUP4 DUP6 SUB SLT ISZERO PUSH2 0x2025 JUMPI PUSH2 0x2024 PUSH2 0x1F7E JUMP JUMPDEST JUMPDEST PUSH0 PUSH2 0x2032 DUP6 DUP3 DUP7 ADD PUSH2 0x1FC8 JUMP JUMPDEST SWAP3 POP POP PUSH1 0x20 PUSH2 0x2043 DUP6 DUP3 DUP7 ADD PUSH2 0x1FFB JUMP JUMPDEST SWAP2 POP POP SWAP3 POP SWAP3 SWAP1 POP JUMP JUMPDEST PUSH0 DUP2 ISZERO ISZERO SWAP1 POP SWAP2 SWAP1 POP JUMP JUMPDEST PUSH2 0x2061 DUP2 PUSH2 0x204D JUMP JUMPDEST DUP3 MSTORE POP POP JUMP JUMPDEST PUSH0 PUSH1 0x20 DUP3 ADD SWAP1 POP PUSH2 0x207A PUSH0 DUP4 ADD DUP5 PUSH2 0x2058 JUMP JUMPDEST SWAP3 SWAP2 POP POP JUMP JUMPDEST PUSH2 0x2089 DUP2 PUSH2 0x1FDC JUMP JUMPDEST DUP3 MSTORE POP POP JUMP JUMPDEST PUSH0 PUSH1 0x20 DUP3 ADD SWAP1 POP PUSH2 0x20A2 PUSH0 DUP4 ADD DUP5 PUSH2 0x2080 JUMP JUMPDEST SWAP3 SWAP2 POP POP JUMP JUMPDEST PUSH0 DUP1 PUSH0 PUSH1 0x60 DUP5 DUP7 SUB SLT ISZERO PUSH2 0x20BF JUMPI PUSH2 0x20BE PUSH2 0x1F7E JUMP JUMPDEST JUMPDEST PUSH0 PUSH2 0x20CC DUP7 DUP3 DUP8 ADD PUSH2 0x1FC8 JUMP JUMPDEST SWAP4 POP POP PUSH1 0x20 PUSH2 0x20DD DUP7 DUP3 DUP8 ADD PUSH2 0x1FC8 JUMP JUMPDEST SWAP3 POP POP PUSH1 0x40 PUSH2 0x20EE DUP7 DUP3 DUP8 ADD PUSH2 0x1FFB JUMP JUMPDEST SWAP2 POP POP SWAP3 POP SWAP3 POP SWAP3 JUMP JUMPDEST PUSH0 PUSH1 0xFF DUP3 AND SWAP1 POP SWAP2 SWAP1 POP JUMP JUMPDEST PUSH2 0x210D DUP2 PUSH2 0x20F8 JUMP JUMPDEST DUP3 MSTORE POP POP JUMP JUMPDEST PUSH0 PUSH1 0x20 DUP3 ADD SWAP1 POP PUSH2 0x2126 PUSH0 DUP4 ADD DUP5 PUSH2 0x2104 JUMP JUMPDEST SWAP3 SWAP2 POP POP JUMP JUMPDEST PUSH0 DUP2 SWAP1 POP SWAP2 SWAP1 POP JUMP JUMPDEST PUSH2 0x213E DUP2 PUSH2 0x212C JUMP JUMPDEST DUP3 MSTORE POP POP JUMP JUMPDEST PUSH0 PUSH1 0x20 DUP3 ADD SWAP1 POP PUSH2 0x2157 PUSH0 DUP4 ADD DUP5 PUSH2 0x2135 JUMP JUMPDEST SWAP3 SWAP2 POP POP JUMP JUMPDEST PUSH0 PUSH1 0x20 DUP3 DUP5 SUB SLT ISZERO PUSH2 0x2172 JUMPI PUSH2 0x2171 PUSH2 0x1F7E JUMP JUMPDEST JUMPDEST PUSH0 PUSH2 0x217F DUP5 DUP3 DUP6 ADD PUSH2 0x1FFB JUMP JUMPDEST SWAP2 POP POP SWAP3 SWAP2 POP POP JUMP JUMPDEST PUSH0 PUSH1 0x20 DUP3 DUP5 SUB SLT ISZERO PUSH2 0x219D JUMPI PUSH2 0x219C PUSH2 0x1F7E JUMP JUMPDEST JUMPDEST PUSH0 PUSH2 0x21AA DUP5 DUP3 DUP6 ADD PUSH2 0x1FC8 JUMP JUMPDEST SWAP2 POP POP SWAP3 SWAP2 POP POP JUMP JUMPDEST PUSH0 PUSH32 0xFF00000000000000000000000000000000000000000000000000000000000000 DUP3 AND SWAP1 POP SWAP2 SWAP1 POP JUMP JUMPDEST PUSH2 0x21E7 DUP2 PUSH2 0x21B3 JUMP JUMPDEST DUP3 MSTORE POP POP JUMP JUMPDEST PUSH2 0x21F6 DUP2 PUSH2 0x1FA1 JUMP JUMPDEST DUP3 MSTORE POP POP JUMP JUMPDEST PUSH0 DUP2 MLOAD SWAP1 POP SWAP2 SWAP1 POP JUMP JUMPDEST PUSH0 DUP3 DUP3 MSTORE PUSH1 0x20 DUP3 ADD SWAP1 POP SWAP3 SWAP2 POP POP JUMP JUMPDEST PUSH0 DUP2 SWAP1 POP PUSH1 0x20 DUP3 ADD SWAP1 POP SWAP2 SWAP1 POP JUMP JUMPDEST PUSH2 0x222E DUP2 PUSH2 0x1FDC JUMP JUMPDEST DUP3 MSTORE POP POP JUMP JUMPDEST PUSH0 PUSH2 0x223F DUP4 DUP4 PUSH2 0x2225 JUMP JUMPDEST PUSH1 0x20 DUP4 ADD SWAP1 POP SWAP3 SWAP2 POP POP JUMP JUMPDEST PUSH0 PUSH1 0x20 DUP3 ADD SWAP1 POP SWAP2 SWAP1 POP JUMP JUMPDEST PUSH0 PUSH2 0x2261 DUP3 PUSH2 0x21FC JUMP JUMPDEST PUSH2 0x226B DUP2 DUP6 PUSH2 0x2206 JUMP JUMPDEST SWAP4 POP PUSH2 0x2276 DUP4 PUSH2 0x2216 JUMP JUMPDEST DUP1 PUSH0 JUMPDEST DUP4 DUP2 LT ISZERO PUSH2 0x22A6 JUMPI DUP2 MLOAD PUSH2 0x228D DUP9 DUP3 PUSH2 0x2234 JUMP JUMPDEST SWAP8 POP PUSH2 0x2298 DUP4 PUSH2 0x224B JUMP JUMPDEST SWAP3 POP POP PUSH1 0x1 DUP2 ADD SWAP1 POP PUSH2 0x2279 JUMP JUMPDEST POP DUP6 SWAP4 POP POP POP POP SWAP3 SWAP2 POP POP JUMP JUMPDEST PUSH0 PUSH1 0xE0 DUP3 ADD SWAP1 POP PUSH2 0x22C6 PUSH0 DUP4 ADD DUP11 PUSH2 0x21DE JUMP JUMPDEST DUP2 DUP2 SUB PUSH1 0x20 DUP4 ADD MSTORE PUSH2 0x22D8 DUP2 DUP10 PUSH2 0x1F26 JUMP JUMPDEST SWAP1 POP DUP2 DUP2 SUB PUSH1 0x40 DUP4 ADD MSTORE PUSH2 0x22EC DUP2 DUP9 PUSH2 0x1F26 JUMP JUMPDEST SWAP1 POP PUSH2 0x22FB PUSH1 0x60 DUP4 ADD DUP8 PUSH2 0x2080 JUMP JUMPDEST PUSH2 0x2308 PUSH1 0x80 DUP4 ADD DUP7 PUSH2 0x21ED JUMP JUMPDEST PUSH2 0x2315 PUSH1 0xA0 DUP4 ADD DUP6 PUSH2 0x2135 JUMP JUMPDEST DUP2 DUP2 SUB PUSH1 0xC0 DUP4 ADD MSTORE PUSH2 0x2327 DUP2 DUP5 PUSH2 0x2257 JUMP JUMPDEST SWAP1 POP SWAP9 SWAP8 POP POP POP POP POP POP POP POP JUMP JUMPDEST PUSH0 PUSH1 0x20 DUP3 ADD SWAP1 POP PUSH2 0x2348 PUSH0 DUP4 ADD DUP5 PUSH2 0x21ED JUMP JUMPDEST SWAP3 SWAP2 POP POP JUMP JUMPDEST PUSH2 0x2357 DUP2 PUSH2 0x20F8 JUMP JUMPDEST DUP2 EQ PUSH2 0x2361 JUMPI PUSH0 DUP1 REVERT JUMPDEST POP JUMP JUMPDEST PUSH0 DUP2 CALLDATALOAD SWAP1 POP PUSH2 0x2372 DUP2 PUSH2 0x234E JUMP JUMPDEST SWAP3 SWAP2 POP POP JUMP JUMPDEST PUSH2 0x2381 DUP2 PUSH2 0x212C JUMP JUMPDEST DUP2 EQ PUSH2 0x238B JUMPI PUSH0 DUP1 REVERT JUMPDEST POP JUMP JUMPDEST PUSH0 DUP2 CALLDATALOAD SWAP1 POP PUSH2 0x239C DUP2 PUSH2 0x2378 JUMP JUMPDEST SWAP3 SWAP2 POP POP JUMP JUMPDEST PUSH0 DUP1 PUSH0 DUP1 PUSH0 DUP1 PUSH0 PUSH1 0xE0 DUP9 DUP11 SUB SLT ISZERO PUSH2 0x23BD JUMPI PUSH2 0x23BC PUSH2 0x1F7E JUMP JUMPDEST JUMPDEST PUSH0 PUSH2 0x23CA DUP11 DUP3 DUP12 ADD PUSH2 0x1FC8 JUMP JUMPDEST SWAP8 POP POP PUSH1 0x20 PUSH2 0x23DB DUP11 DUP3 DUP12 ADD PUSH2 0x1FC8 JUMP JUMPDEST SWAP7 POP POP PUSH1 0x40 PUSH2 0x23EC DUP11 DUP3 DUP12 ADD PUSH2 0x1FFB JUMP JUMPDEST SWAP6 POP POP PUSH1 0x60 PUSH2 0x23FD DUP11 DUP3 DUP12 ADD PUSH2 0x1FFB JUMP JUMPDEST SWAP5 POP POP PUSH1 0x80 PUSH2 0x240E DUP11 DUP3 DUP12 ADD PUSH2 0x2364 JUMP JUMPDEST SWAP4 POP POP PUSH1 0xA0 PUSH2 0x241F DUP11 DUP3 DUP12 ADD PUSH2 0x238E JUMP JUMPDEST SWAP3 POP POP PUSH1 0xC0 PUSH2 0x2430 DUP11 DUP3 DUP12 ADD PUSH2 0x238E JUMP JUMPDEST SWAP2 POP POP SWAP3 SWAP6 SWAP9 SWAP2 SWAP5 SWAP8 POP SWAP3 SWAP6 POP JUMP JUMPDEST PUSH0 DUP1 PUSH1 0x40 DUP4 DUP6 SUB SLT ISZERO PUSH2 0x2455 JUMPI PUSH2 0x2454 PUSH2 0x1F7E JUMP JUMPDEST JUMPDEST PUSH0 PUSH2 0x2462 DUP6 DUP3 DUP7 ADD PUSH2 0x1FC8 JUMP JUMPDEST SWAP3 POP POP PUSH1 0x20 PUSH2 0x2473 DUP6 DUP3 DUP7 ADD PUSH2 0x1FC8 JUMP JUMPDEST SWAP2 POP POP SWAP3 POP SWAP3 SWAP1 POP JUMP JUMPDEST PUSH32 0x4E487B7100000000000000000000000000000000000000000000000000000000 PUSH0 MSTORE PUSH1 0x22 PUSH1 0x4 MSTORE PUSH1 0x24 PUSH0 REVERT JUMPDEST PUSH0 PUSH1 0x2 DUP3 DIV SWAP1 POP PUSH1 0x1 DUP3 AND DUP1 PUSH2 0x24C1 JUMPI PUSH1 0x7F DUP3 AND SWAP2 POP JUMPDEST PUSH1 0x20 DUP3 LT DUP2 SUB PUSH2 0x24D4 JUMPI PUSH2 0x24D3 PUSH2 0x247D JUMP JUMPDEST JUMPDEST POP SWAP2 SWAP1 POP JUMP JUMPDEST PUSH32 0x4E487B7100000000000000000000000000000000000000000000000000000000 PUSH0 MSTORE PUSH1 0x11 PUSH1 0x4 MSTORE PUSH1 0x24 PUSH0 REVERT JUMPDEST PUSH0 PUSH2 0x2511 DUP3 PUSH2 0x1FDC JUMP JUMPDEST SWAP2 POP PUSH2 0x251C DUP4 PUSH2 0x1FDC JUMP JUMPDEST SWAP3 POP DUP3 DUP3 ADD SWAP1 POP DUP1 DUP3 GT ISZERO PUSH2 0x2534 JUMPI PUSH2 0x2533 PUSH2 0x24DA JUMP JUMPDEST JUMPDEST SWAP3 SWAP2 POP POP JUMP JUMPDEST PUSH32 0x4E487B7100000000000000000000000000000000000000000000000000000000 PUSH0 MSTORE PUSH1 0x41 PUSH1 0x4 MSTORE PUSH1 0x24 PUSH0 REVERT JUMPDEST PUSH32 0x45524332303A2064656372656173656420616C6C6F77616E63652062656C6F77 PUSH0 DUP3 ADD MSTORE PUSH32 0x207A65726F000000000000000000000000000000000000000000000000000000 PUSH1 0x20 DUP3 ADD MSTORE POP JUMP JUMPDEST PUSH0 PUSH2 0x25C1 PUSH1 0x25 DUP4 PUSH2 0x1EDE JUMP JUMPDEST SWAP2 POP PUSH2 0x25CC DUP3 PUSH2 0x2567 JUMP JUMPDEST PUSH1 0x40 DUP3 ADD SWAP1 POP SWAP2 SWAP1 POP JUMP JUMPDEST PUSH0 PUSH1 0x20 DUP3 ADD SWAP1 POP DUP2 DUP2 SUB PUSH0 DUP4 ADD MSTORE PUSH2 0x25EE DUP2 PUSH2 0x25B5 JUMP JUMPDEST SWAP1 POP SWAP2 SWAP1 POP JUMP JUMPDEST PUSH32 0x45524332305065726D69743A206578706972656420646561646C696E65000000 PUSH0 DUP3 ADD MSTORE POP JUMP JUMPDEST PUSH0 PUSH2 0x2629 PUSH1 0x1D DUP4 PUSH2 0x1EDE JUMP JUMPDEST SWAP2 POP PUSH2 0x2634 DUP3 PUSH2 0x25F5 JUMP JUMPDEST PUSH1 0x20 DUP3 ADD SWAP1 POP SWAP2 SWAP1 POP JUMP JUMPDEST PUSH0 PUSH1 0x20 DUP3 ADD SWAP1 POP DUP2 DUP2 SUB PUSH0 DUP4 ADD MSTORE PUSH2 0x2656 DUP2 PUSH2 0x261D JUMP JUMPDEST SWAP1 POP SWAP2 SWAP1 POP JUMP JUMPDEST PUSH0 PUSH1 0xC0 DUP3 ADD SWAP1 POP PUSH2 0x2670 PUSH0 DUP4 ADD DUP10 PUSH2 0x2135 JUMP JUMPDEST PUSH2 0x267D PUSH1 0x20 DUP4 ADD DUP9 PUSH2 0x21ED JUMP JUMPDEST PUSH2 0x268A PUSH1 0x40 DUP4 ADD DUP8 PUSH2 0x21ED JUMP JUMPDEST PUSH2 0x2697 PUSH1 0x60 DUP4 ADD DUP7 PUSH2 0x2080 JUMP JUMPDEST PUSH2 0x26A4 PUSH1 0x80 DUP4 ADD DUP6 PUSH2 0x2080 JUMP JUMPDEST PUSH2 0x26B1 PUSH1 0xA0 DUP4 ADD DUP5 PUSH2 0x2080 JUMP JUMPDEST SWAP8 SWAP7 POP POP POP POP POP POP POP JUMP JUMPDEST PUSH32 0x45524332305065726D69743A20696E76616C6964207369676E61747572650000 PUSH0 DUP3 ADD MSTORE POP JUMP JUMPDEST PUSH0 PUSH2 0x26F0 PUSH1 0x1E DUP4 PUSH2 0x1EDE JUMP JUMPDEST SWAP2 POP PUSH2 0x26FB DUP3 PUSH2 0x26BC JUMP JUMPDEST PUSH1 0x20 DUP3 ADD SWAP1 POP SWAP2 SWAP1 POP JUMP JUMPDEST PUSH0 PUSH1 0x20 DUP3 ADD SWAP1 POP DUP2 DUP2 SUB PUSH0 DUP4 ADD MSTORE PUSH2 0x271D DUP2 PUSH2 0x26E4 JUMP JUMPDEST SWAP1 POP SWAP2 SWAP1 POP JUMP JUMPDEST PUSH32 0x4F776E61626C653A206E6577206F776E657220697320746865207A65726F2061 PUSH0 DUP3 ADD MSTORE PUSH32 0x6464726573730000000000000000000000000000000000000000000000000000 PUSH1 0x20 DUP3 ADD MSTORE POP JUMP JUMPDEST PUSH0 PUSH2 0x277E PUSH1 0x26 DUP4 PUSH2 0x1EDE JUMP JUMPDEST SWAP2 POP PUSH2 0x2789 DUP3 PUSH2 0x2724 JUMP JUMPDEST PUSH1 0x40 DUP3 ADD SWAP1 POP SWAP2 SWAP1 POP JUMP JUMPDEST PUSH0 PUSH1 0x20 DUP3 ADD SWAP1 POP DUP2 DUP2 SUB PUSH0 DUP4 ADD MSTORE PUSH2 0x27AB DUP2 PUSH2 0x2772 JUMP JUMPDEST SWAP1 POP SWAP2 SWAP1 POP JUMP JUMPDEST PUSH32 0x45524332303A20617070726F76652066726F6D20746865207A65726F20616464 PUSH0 DUP3 ADD MSTORE PUSH32 0x7265737300000000000000000000000000000000000000000000000000000000 PUSH1 0x20 DUP3 ADD MSTORE POP JUMP JUMPDEST PUSH0 PUSH2 0x280C PUSH1 0x24 DUP4 PUSH2 0x1EDE JUMP JUMPDEST SWAP2 POP PUSH2 0x2817 DUP3 PUSH2 0x27B2 JUMP JUMPDEST PUSH1 0x40 DUP3 ADD SWAP1 POP SWAP2 SWAP1 POP JUMP JUMPDEST PUSH0 PUSH1 0x20 DUP3 ADD SWAP1 POP DUP2 DUP2 SUB PUSH0 DUP4 ADD MSTORE PUSH2 0x2839 DUP2 PUSH2 0x2800 JUMP JUMPDEST SWAP1 POP SWAP2 SWAP1 POP JUMP JUMPDEST PUSH32 0x45524332303A20617070726F766520746F20746865207A65726F206164647265 PUSH0 DUP3 ADD MSTORE PUSH32 0x7373000000000000000000000000000000000000000000000000000000000000 PUSH1 0x20 DUP3 ADD MSTORE POP JUMP JUMPDEST PUSH0 PUSH2 0x289A PUSH1 0x22 DUP4 PUSH2 0x1EDE JUMP JUMPDEST SWAP2 POP PUSH2 0x28A5 DUP3 PUSH2 0x2840 JUMP JUMPDEST PUSH1 0x40 DUP3 ADD SWAP1 POP SWAP2 SWAP1 POP JUMP JUMPDEST PUSH0 PUSH1 0x20 DUP3 ADD SWAP1 POP DUP2 DUP2 SUB PUSH0 DUP4 ADD MSTORE PUSH2 0x28C7 DUP2 PUSH2 0x288E JUMP JUMPDEST SWAP1 POP SWAP2 SWAP1 POP JUMP JUMPDEST PUSH32 0x45524332303A20696E73756666696369656E7420616C6C6F77616E6365000000 PUSH0 DUP3 ADD MSTORE POP JUMP JUMPDEST PUSH0 PUSH2 0x2902 PUSH1 0x1D DUP4 PUSH2 0x1EDE JUMP JUMPDEST SWAP2 POP PUSH2 0x290D DUP3 PUSH2 0x28CE JUMP JUMPDEST PUSH1 0x20 DUP3 ADD SWAP1 POP SWAP2 SWAP1 POP JUMP JUMPDEST PUSH0 PUSH1 0x20 DUP3 ADD SWAP1 POP DUP2 DUP2 SUB PUSH0 DUP4 ADD MSTORE PUSH2 0x292F DUP2 PUSH2 0x28F6 JUMP JUMPDEST SWAP1 POP SWAP2 SWAP1 POP JUMP JUMPDEST PUSH32 0x45524332303A207472616E736665722066726F6D20746865207A65726F206164 PUSH0 DUP3 ADD MSTORE PUSH32 0x6472657373000000000000000000000000000000000000000000000000000000 PUSH1 0x20 DUP3 ADD MSTORE POP JUMP JUMPDEST PUSH0 PUSH2 0x2990 PUSH1 0x25 DUP4 PUSH2 0x1EDE JUMP JUMPDEST SWAP2 POP PUSH2 0x299B DUP3 PUSH2 0x2936 JUMP JUMPDEST PUSH1 0x40 DUP3 ADD SWAP1 POP SWAP2 SWAP1 POP JUMP JUMPDEST PUSH0 PUSH1 0x20 DUP3 ADD SWAP1 POP DUP2 DUP2 SUB PUSH0 DUP4 ADD MSTORE PUSH2 0x29BD DUP2 PUSH2 0x2984 JUMP JUMPDEST SWAP1 POP SWAP2 SWAP1 POP JUMP JUMPDEST PUSH32 0x45524332303A207472616E7366657220746F20746865207A65726F2061646472 PUSH0 DUP3 ADD MSTORE PUSH32 0x6573730000000000000000000000000000000000000000000000000000000000 PUSH1 0x20 DUP3 ADD MSTORE POP JUMP JUMPDEST PUSH0 PUSH2 0x2A1E PUSH1 0x23 DUP4 PUSH2 0x1EDE JUMP JUMPDEST SWAP2 POP PUSH2 0x2A29 DUP3 PUSH2 0x29C4 JUMP JUMPDEST PUSH1 0x40 DUP3 ADD SWAP1 POP SWAP2 SWAP1 POP JUMP JUMPDEST PUSH0 PUSH1 0x20 DUP3 ADD SWAP1 POP DUP2 DUP2 SUB PUSH0 DUP4 ADD MSTORE PUSH2 0x2A4B DUP2 PUSH2 0x2A12 JUMP JUMPDEST SWAP1 POP SWAP2 SWAP1 POP JUMP JUMPDEST PUSH32 0x45524332303A207472616E7366657220616D6F756E7420657863656564732062 PUSH0 DUP3 ADD MSTORE PUSH32 0x616C616E63650000000000000000000000000000000000000000000000000000 PUSH1 0x20 DUP3 ADD MSTORE POP JUMP JUMPDEST PUSH0 PUSH2 0x2AAC PUSH1 0x26 DUP4 PUSH2 0x1EDE JUMP JUMPDEST SWAP2 POP PUSH2 0x2AB7 DUP3 PUSH2 0x2A52 JUMP JUMPDEST PUSH1 0x40 DUP3 ADD SWAP1 POP SWAP2 SWAP1 POP JUMP JUMPDEST PUSH0 PUSH1 0x20 DUP3 ADD SWAP1 POP DUP2 DUP2 SUB PUSH0 DUP4 ADD MSTORE PUSH2 0x2AD9 DUP2 PUSH2 0x2AA0 JUMP JUMPDEST SWAP1 POP SWAP2 SWAP1 POP JUMP JUMPDEST PUSH0 PUSH2 0x2AEA DUP3 PUSH2 0x1FDC JUMP JUMPDEST SWAP2 POP PUSH2 0x2AF5 DUP4 PUSH2 0x1FDC JUMP JUMPDEST SWAP3 POP DUP3 DUP3 SUB SWAP1 POP DUP2 DUP2 GT ISZERO PUSH2 0x2B0D JUMPI PUSH2 0x2B0C PUSH2 0x24DA JUMP JUMPDEST JUMPDEST SWAP3 SWAP2 POP POP JUMP JUMPDEST PUSH32 0x4552433230536E617073686F743A206964206973203000000000000000000000 PUSH0 DUP3 ADD MSTORE POP JUMP JUMPDEST PUSH0 PUSH2 0x2B47 PUSH1 0x16 DUP4 PUSH2 0x1EDE JUMP JUMPDEST SWAP2 POP PUSH2 0x2B52 DUP3 PUSH2 0x2B13 JUMP JUMPDEST PUSH1 0x20 DUP3 ADD SWAP1 POP SWAP2 SWAP1 POP JUMP JUMPDEST PUSH0 PUSH1 0x20 DUP3 ADD SWAP1 POP DUP2 DUP2 SUB PUSH0 DUP4 ADD MSTORE PUSH2 0x2B74 DUP2 PUSH2 0x2B3B JUMP JUMPDEST SWAP1 POP SWAP2 SWAP1 POP JUMP JUMPDEST PUSH32 0x4552433230536E617073686F743A206E6F6E6578697374656E74206964000000 PUSH0 DUP3 ADD MSTORE POP JUMP JUMPDEST PUSH0 PUSH2 0x2BAF PUSH1 0x1D DUP4 PUSH2 0x1EDE JUMP JUMPDEST SWAP2 POP PUSH2 0x2BBA DUP3 PUSH2 0x2B7B JUMP JUMPDEST PUSH1 0x20 DUP3 ADD SWAP1 POP SWAP2 SWAP1 POP JUMP JUMPDEST PUSH0 PUSH1 0x20 DUP3 ADD SWAP1 POP DUP2 DUP2 SUB PUSH0 DUP4 ADD MSTORE PUSH2 0x2BDC DUP2 PUSH2 0x2BA3 JUMP JUMPDEST SWAP1 POP SWAP2 SWAP1 POP JUMP JUMPDEST PUSH32 0x4E487B7100000000000000000000000000000000000000000000000000000000 PUSH0 MSTORE PUSH1 0x32 PUSH1 0x4 MSTORE PUSH1 0x24 PUSH0 REVERT JUMPDEST PUSH32 0x4F776E61626C653A2063616C6C6572206973206E6F7420746865206F776E6572 PUSH0 DUP3 ADD MSTORE POP JUMP JUMPDEST PUSH0 PUSH2 0x2C44 PUSH1 0x20 DUP4 PUSH2 0x1EDE JUMP JUMPDEST SWAP2 POP PUSH2 0x2C4F DUP3 PUSH2 0x2C10 JUMP JUMPDEST PUSH1 0x20 DUP3 ADD SWAP1 POP SWAP2 SWAP1 POP JUMP JUMPDEST PUSH0 PUSH1 0x20 DUP3 ADD SWAP1 POP DUP2 DUP2 SUB PUSH0 DUP4 ADD MSTORE PUSH2 0x2C71 DUP2 PUSH2 0x2C38 JUMP JUMPDEST SWAP1 POP SWAP2 SWAP1 POP JUMP JUMPDEST PUSH0 PUSH1 0xA0 DUP3 ADD SWAP1 POP PUSH2 0x2C8B PUSH0 DUP4 ADD DUP9 PUSH2 0x2135 JUMP JUMPDEST PUSH2 0x2C98 PUSH1 0x20 DUP4 ADD DUP8 PUSH2 0x2135 JUMP JUMPDEST PUSH2 0x2CA5 PUSH1 0x40 DUP4 ADD DUP7 PUSH2 0x2135 JUMP JUMPDEST PUSH2 0x2CB2 PUSH1 0x60 DUP4 ADD DUP6 PUSH2 0x2080 JUMP JUMPDEST PUSH2 0x2CBF PUSH1 0x80 DUP4 ADD DUP5 PUSH2 0x21ED JUMP JUMPDEST SWAP7 SWAP6 POP POP POP POP POP POP JUMP JUMPDEST PUSH32 0x45524332303A206275726E2066726F6D20746865207A65726F20616464726573 PUSH0 DUP3 ADD MSTORE PUSH32 0x7300000000000000000000000000000000000000000000000000000000000000 PUSH1 0x20 DUP3 ADD MSTORE POP JUMP JUMPDEST PUSH0 PUSH2 0x2D23 PUSH1 0x21 DUP4 PUSH2 0x1EDE JUMP JUMPDEST SWAP2 POP PUSH2 0x2D2E DUP3 PUSH2 0x2CC9 JUMP JUMPDEST PUSH1 0x40 DUP3 ADD SWAP1 POP SWAP2 SWAP1 POP JUMP JUMPDEST PUSH0 PUSH1 0x20 DUP3 ADD SWAP1 POP DUP2 DUP2 SUB PUSH0 DUP4 ADD MSTORE PUSH2 0x2D50 DUP2 PUSH2 0x2D17 JUMP JUMPDEST SWAP1 POP SWAP2 SWAP1 POP JUMP JUMPDEST PUSH32 0x45524332303A206275726E20616D6F756E7420657863656564732062616C616E PUSH0 DUP3 ADD MSTORE PUSH32 0x6365000000000000000000000000000000000000000000000000000000000000 PUSH1 0x20 DUP3 ADD MSTORE POP JUMP JUMPDEST PUSH0 PUSH2 0x2DB1 PUSH1 0x22 DUP4 PUSH2 0x1EDE JUMP JUMPDEST SWAP2 POP PUSH2 0x2DBC DUP3 PUSH2 0x2D57 JUMP JUMPDEST PUSH1 0x40 DUP3 ADD SWAP1 POP SWAP2 SWAP1 POP JUMP JUMPDEST PUSH0 PUSH1 0x20 DUP3 ADD SWAP1 POP DUP2 DUP2 SUB PUSH0 DUP4 ADD MSTORE PUSH2 0x2DDE DUP2 PUSH2 0x2DA5 JUMP JUMPDEST SWAP1 POP SWAP2 SWAP1 POP JUMP JUMPDEST PUSH0 PUSH1 0x80 DUP3 ADD SWAP1 POP PUSH2 0x2DF8 PUSH0 DUP4 ADD DUP8 PUSH2 0x2135 JUMP JUMPDEST PUSH2 0x2E05 PUSH1 0x20 DUP4 ADD DUP7 PUSH2 0x2104 JUMP JUMPDEST PUSH2 0x2E12 PUSH1 0x40 DUP4 ADD DUP6 PUSH2 0x2135 JUMP JUMPDEST PUSH2 0x2E1F PUSH1 0x60 DUP4 ADD DUP5 PUSH2 0x2135 JUMP JUMPDEST SWAP6 SWAP5 POP POP POP POP POP JUMP JUMPDEST PUSH32 0x4E487B7100000000000000000000000000000000000000000000000000000000 PUSH0 MSTORE PUSH1 0x21 PUSH1 0x4 MSTORE PUSH1 0x24 PUSH0 REVERT JUMPDEST PUSH32 0x45434453413A20696E76616C6964207369676E61747572650000000000000000 PUSH0 DUP3 ADD MSTORE POP JUMP JUMPDEST PUSH0 PUSH2 0x2E89 PUSH1 0x18 DUP4 PUSH2 0x1EDE JUMP JUMPDEST SWAP2 POP PUSH2 0x2E94 DUP3 PUSH2 0x2E55 JUMP JUMPDEST PUSH1 0x20 DUP3 ADD SWAP1 POP SWAP2 SWAP1 POP JUMP JUMPDEST PUSH0 PUSH1 0x20 DUP3 ADD SWAP1 POP DUP2 DUP2 SUB PUSH0 DUP4 ADD MSTORE PUSH2 0x2EB6 DUP2 PUSH2 0x2E7D JUMP JUMPDEST SWAP1 POP SWAP2 SWAP1 POP JUMP JUMPDEST PUSH32 0x45434453413A20696E76616C6964207369676E6174757265206C656E67746800 PUSH0 DUP3 ADD MSTORE POP JUMP JUMPDEST PUSH0 PUSH2 0x2EF1 PUSH1 0x1F DUP4 PUSH2 0x1EDE JUMP JUMPDEST SWAP2 POP PUSH2 0x2EFC DUP3 PUSH2 0x2EBD JUMP JUMPDEST PUSH1 0x20 DUP3 ADD SWAP1 POP SWAP2 SWAP1 POP JUMP JUMPDEST PUSH0 PUSH1 0x20 DUP3 ADD SWAP1 POP DUP2 DUP2 SUB PUSH0 DUP4 ADD MSTORE PUSH2 0x2F1E DUP2 PUSH2 0x2EE5 JUMP JUMPDEST SWAP1 POP SWAP2 SWAP1 POP JUMP JUMPDEST PUSH32 0x45434453413A20696E76616C6964207369676E6174757265202773272076616C PUSH0 DUP3 ADD MSTORE PUSH32 0x7565000000000000000000000000000000000000000000000000000000000000 PUSH1 0x20 DUP3 ADD MSTORE POP JUMP JUMPDEST PUSH0 PUSH2 0x2F7F PUSH1 0x22 DUP4 PUSH2 0x1EDE JUMP JUMPDEST SWAP2 POP PUSH2 0x2F8A DUP3 PUSH2 0x2F25 JUMP JUMPDEST PUSH1 0x40 DUP3 ADD SWAP1 POP SWAP2 SWAP1 POP JUMP JUMPDEST PUSH0 PUSH1 0x20 DUP3 ADD SWAP1 POP DUP2 DUP2 SUB PUSH0 DUP4 ADD MSTORE PUSH2 0x2FAC DUP2 PUSH2 0x2F73 JUMP JUMPDEST SWAP1 POP SWAP2 SWAP1 POP JUMP JUMPDEST PUSH32 0x4E487B7100000000000000000000000000000000000000000000000000000000 PUSH0 MSTORE PUSH1 0x12 PUSH1 0x4 MSTORE PUSH1 0x24 PUSH0 REVERT JUMPDEST PUSH0 PUSH2 0x2FEA DUP3 PUSH2 0x1FDC JUMP JUMPDEST SWAP2 POP PUSH2 0x2FF5 DUP4 PUSH2 0x1FDC JUMP JUMPDEST SWAP3 POP DUP3 PUSH2 0x3005 JUMPI PUSH2 0x3004 PUSH2 0x2FB3 JUMP JUMPDEST JUMPDEST DUP3 DUP3 DIV SWAP1 POP SWAP3 SWAP2 POP POP JUMP INVALID LOG2 PUSH5 0x6970667358 0x22 SLT KECCAK256 0xBA DUP7 SWAP3 PUSH13 0x4F0AE547036270FC24252682FC 0xB5 0xFB 0x23 0xDC SWAP3 0x49 0xAB 0xD2 0xCB SLT DUP13 0xC SWAP5 0xB8 PUSH29 0x64736F6C63430008140033000000000000000000000000000000000000 "
		},
		"gasEstimates": {
			"creation": {
				"codeDepositCost": "2471600",
				"executionCost": "infinite",
				"totalCost": "infinite"
			},
			"external": {
				"DOMAIN_SEPARATOR()": "infinite",
				"allowance(address,address)": "infinite",
				"approve(address,uint256)": "infinite",
				"balanceOf(address)": "2940",
				"balanceOfAt(address,uint256)": "infinite",
				"burn(uint256)": "infinite",
				"burnFrom(address,uint256)": "infinite",
				"decimals()": "450",
				"decreaseAllowance(address,uint256)": "infinite",
				"eip712Domain()": "infinite",
				"getCurrentSnapshotId()": "2580",
				"increaseAllowance(address,uint256)": "infinite",
				"maxSupply()": "2498",
				"mintable()": "2522",
				"name()": "infinite",
				"nonces(address)": "2943",
				"owner()": "2626",
				"permit(address,address,uint256,uint256,uint8,bytes32,bytes32)": "infinite",
				"renounceOwnership()": "30413",
				"snapshot_()": "infinite",
				"symbol()": "infinite",
				"totalSupply()": "2500",
				"totalSupplyAt(uint256)": "infinite",
				"transfer(address,uint256)": "infinite",
				"transferFrom(address,address,uint256)": "infinite",
				"transferOwnership(address)": "30841"
			},
			"internal": {
				"_afterTokenTransfer(address,address,uint256)": "54",
				"_beforeTokenTransfer(address,address,uint256)": "infinite",
				"_burn(address,uint256)": "infinite",
				"_convertToWei(uint256)": "infinite",
				"_mint(address,uint256)": "infinite",
				"_mustBeMintable(uint256)": "infinite"
			}
		},
		"methodIdentifiers": {
			"DOMAIN_SEPARATOR()": "3644e515",
			"allowance(address,address)": "dd62ed3e",
			"approve(address,uint256)": "095ea7b3",
			"balanceOf(address)": "70a08231",
			"balanceOfAt(address,uint256)": "4ee2cd7e",
			"burn(uint256)": "42966c68",
			"burnFrom(address,uint256)": "79cc6790",
			"decimals()": "313ce567",
			"decreaseAllowance(address,uint256)": "a457c2d7",
			"eip712Domain()": "84b0196e",
			"getCurrentSnapshotId()": "5439ad86",
			"increaseAllowance(address,uint256)": "39509351",
			"maxSupply()": "d5abeb01",
			"mintable()": "4bf365df",
			"name()": "06fdde03",
			"nonces(address)": "7ecebe00",
			"owner()": "8da5cb5b",
			"permit(address,address,uint256,uint256,uint8,bytes32,bytes32)": "d505accf",
			"renounceOwnership()": "715018a6",
			"snapshot_()": "68e4c64e",
			"symbol()": "95d89b41",
			"totalSupply()": "18160ddd",
			"totalSupplyAt(uint256)": "981b24d0",
			"transfer(address,uint256)": "a9059cbb",
			"transferFrom(address,address,uint256)": "23b872dd",
			"transferOwnership(address)": "f2fde38b"
		}
	},
	"abi": [
		{
			"inputs": [],
			"stateMutability": "nonpayable",
			"type": "constructor"
		},
		{
			"inputs": [],
			"name": "InvalidShortString",
			"type": "error"
		},
		{
			"inputs": [
				{
					"internalType": "string",
					"name": "str",
					"type": "string"
				}
			],
			"name": "StringTooLong",
			"type": "error"
		},
		{
			"anonymous": false,
			"inputs": [
				{
					"indexed": true,
					"internalType": "address",
					"name": "owner",
					"type": "address"
				},
				{
					"indexed": true,
					"internalType": "address",
					"name": "spender",
					"type": "address"
				},
				{
					"indexed": false,
					"internalType": "uint256",
					"name": "value",
					"type": "uint256"
				}
			],
			"name": "Approval",
			"type": "event"
		},
		{
			"anonymous": false,
			"inputs": [],
			"name": "EIP712DomainChanged",
			"type": "event"
		},
		{
			"anonymous": false,
			"inputs": [
				{
					"indexed": true,
					"internalType": "address",
					"name": "previousOwner",
					"type": "address"
				},
				{
					"indexed": true,
					"internalType": "address",
					"name": "newOwner",
					"type": "address"
				}
			],
			"name": "OwnershipTransferred",
			"type": "event"
		},
		{
			"anonymous": false,
			"inputs": [
				{
					"indexed": false,
					"internalType": "uint256",
					"name": "id",
					"type": "uint256"
				}
			],
			"name": "Snapshot",
			"type": "event"
		},
		{
			"anonymous": false,
			"inputs": [
				{
					"indexed": true,
					"internalType": "address",
					"name": "from",
					"type": "address"
				},
				{
					"indexed": true,
					"internalType": "address",
					"name": "to",
					"type": "address"
				},
				{
					"indexed": false,
					"internalType": "uint256",
					"name": "value",
					"type": "uint256"
				}
			],
			"name": "Transfer",
			"type": "event"
		},
		{
			"inputs": [],
			"name": "DOMAIN_SEPARATOR",
			"outputs": [
				{
					"internalType": "bytes32",
					"name": "",
					"type": "bytes32"
				}
			],
			"stateMutability": "view",
			"type": "function"
		},
		{
			"inputs": [
				{
					"internalType": "address",
					"name": "owner",
					"type": "address"
				},
				{
					"internalType": "address",
					"name": "spender",
					"type": "address"
				}
			],
			"name": "allowance",
			"outputs": [
				{
					"internalType": "uint256",
					"name": "",
					"type": "uint256"
				}
			],
			"stateMutability": "view",
			"type": "function"
		},
		{
			"inputs": [
				{
					"internalType": "address",
					"name": "spender",
					"type": "address"
				},
				{
					"internalType": "uint256",
					"name": "amount",
					"type": "uint256"
				}
			],
			"name": "approve",
			"outputs": [
				{
					"internalType": "bool",
					"name": "",
					"type": "bool"
				}
			],
			"stateMutability": "nonpayable",
			"type": "function"
		},
		{
			"inputs": [
				{
					"internalType": "address",
					"name": "account",
					"type": "address"
				}
			],
			"name": "balanceOf",
			"outputs": [
				{
					"internalType": "uint256",
					"name": "",
					"type": "uint256"
				}
			],
			"stateMutability": "view",
			"type": "function"
		},
		{
			"inputs": [
				{
					"internalType": "address",
					"name": "account",
					"type": "address"
				},
				{
					"internalType": "uint256",
					"name": "snapshotId",
					"type": "uint256"
				}
			],
			"name": "balanceOfAt",
			"outputs": [
				{
					"internalType": "uint256",
					"name": "",
					"type": "uint256"
				}
			],
			"stateMutability": "view",
			"type": "function"
		},
		{
			"inputs": [
				{
					"internalType": "uint256",
					"name": "amount",
					"type": "uint256"
				}
			],
			"name": "burn",
			"outputs": [],
			"stateMutability": "nonpayable",
			"type": "function"
		},
		{
			"inputs": [
				{
					"internalType": "address",
					"name": "account",
					"type": "address"
				},
				{
					"internalType": "uint256",
					"name": "amount",
					"type": "uint256"
				}
			],
			"name": "burnFrom",
			"outputs": [],
			"stateMutability": "nonpayable",
			"type": "function"
		},
		{
			"inputs": [],
			"name": "decimals",
			"outputs": [
				{
					"internalType": "uint8",
					"name": "",
					"type": "uint8"
				}
			],
			"stateMutability": "view",
			"type": "function"
		},
		{
			"inputs": [
				{
					"internalType": "address",
					"name": "spender",
					"type": "address"
				},
				{
					"internalType": "uint256",
					"name": "subtractedValue",
					"type": "uint256"
				}
			],
			"name": "decreaseAllowance",
			"outputs": [
				{
					"internalType": "bool",
					"name": "",
					"type": "bool"
				}
			],
			"stateMutability": "nonpayable",
			"type": "function"
		},
		{
			"inputs": [],
			"name": "eip712Domain",
			"outputs": [
				{
					"internalType": "bytes1",
					"name": "fields",
					"type": "bytes1"
				},
				{
					"internalType": "string",
					"name": "name",
					"type": "string"
				},
				{
					"internalType": "string",
					"name": "version",
					"type": "string"
				},
				{
					"internalType": "uint256",
					"name": "chainId",
					"type": "uint256"
				},
				{
					"internalType": "address",
					"name": "verifyingContract",
					"type": "address"
				},
				{
					"internalType": "bytes32",
					"name": "salt",
					"type": "bytes32"
				},
				{
					"internalType": "uint256[]",
					"name": "extensions",
					"type": "uint256[]"
				}
			],
			"stateMutability": "view",
			"type": "function"
		},
		{
			"inputs": [],
			"name": "getCurrentSnapshotId",
			"outputs": [
				{
					"internalType": "uint256",
					"name": "",
					"type": "uint256"
				}
			],
			"stateMutability": "view",
			"type": "function"
		},
		{
			"inputs": [
				{
					"internalType": "address",
					"name": "spender",
					"type": "address"
				},
				{
					"internalType": "uint256",
					"name": "addedValue",
					"type": "uint256"
				}
			],
			"name": "increaseAllowance",
			"outputs": [
				{
					"internalType": "bool",
					"name": "",
					"type": "bool"
				}
			],
			"stateMutability": "nonpayable",
			"type": "function"
		},
		{
			"inputs": [],
			"name": "maxSupply",
			"outputs": [
				{
					"internalType": "uint256",
					"name": "",
					"type": "uint256"
				}
			],
			"stateMutability": "view",
			"type": "function"
		},
		{
			"inputs": [],
			"name": "mintable",
			"outputs": [
				{
					"internalType": "uint256",
					"name": "",
					"type": "uint256"
				}
			],
			"stateMutability": "view",
			"type": "function"
		},
		{
			"inputs": [],
			"name": "name",
			"outputs": [
				{
					"internalType": "string",
					"name": "",
					"type": "string"
				}
			],
			"stateMutability": "view",
			"type": "function"
		},
		{
			"inputs": [
				{
					"internalType": "address",
					"name": "owner",
					"type": "address"
				}
			],
			"name": "nonces",
			"outputs": [
				{
					"internalType": "uint256",
					"name": "",
					"type": "uint256"
				}
			],
			"stateMutability": "view",
			"type": "function"
		},
		{
			"inputs": [],
			"name": "owner",
			"outputs": [
				{
					"internalType": "address",
					"name": "",
					"type": "address"
				}
			],
			"stateMutability": "view",
			"type": "function"
		},
		{
			"inputs": [
				{
					"internalType": "address",
					"name": "owner",
					"type": "address"
				},
				{
					"internalType": "address",
					"name": "spender",
					"type": "address"
				},
				{
					"internalType": "uint256",
					"name": "value",
					"type": "uint256"
				},
				{
					"internalType": "uint256",
					"name": "deadline",
					"type": "uint256"
				},
				{
					"internalType": "uint8",
					"name": "v",
					"type": "uint8"
				},
				{
					"internalType": "bytes32",
					"name": "r",
					"type": "bytes32"
				},
				{
					"internalType": "bytes32",
					"name": "s",
					"type": "bytes32"
				}
			],
			"name": "permit",
			"outputs": [],
			"stateMutability": "nonpayable",
			"type": "function"
		},
		{
			"inputs": [],
			"name": "renounceOwnership",
			"outputs": [],
			"stateMutability": "nonpayable",
			"type": "function"
		},
		{
			"inputs": [],
			"name": "snapshot_",
			"outputs": [
				{
					"internalType": "uint256",
					"name": "",
					"type": "uint256"
				}
			],
			"stateMutability": "nonpayable",
			"type": "function"
		},
		{
			"inputs": [],
			"name": "symbol",
			"outputs": [
				{
					"internalType": "string",
					"name": "",
					"type": "string"
				}
			],
			"stateMutability": "view",
			"type": "function"
		},
		{
			"inputs": [],
			"name": "totalSupply",
			"outputs": [
				{
					"internalType": "uint256",
					"name": "",
					"type": "uint256"
				}
			],
			"stateMutability": "view",
			"type": "function"
		},
		{
			"inputs": [
				{
					"internalType": "uint256",
					"name": "snapshotId",
					"type": "uint256"
				}
			],
			"name": "totalSupplyAt",
			"outputs": [
				{
					"internalType": "uint256",
					"name": "",
					"type": "uint256"
				}
			],
			"stateMutability": "view",
			"type": "function"
		},
		{
			"inputs": [
				{
					"internalType": "address",
					"name": "to",
					"type": "address"
				},
				{
					"internalType": "uint256",
					"name": "amount",
					"type": "uint256"
				}
			],
			"name": "transfer",
			"outputs": [
				{
					"internalType": "bool",
					"name": "",
					"type": "bool"
				}
			],
			"stateMutability": "nonpayable",
			"type": "function"
		},
		{
			"inputs": [
				{
					"internalType": "address",
					"name": "from",
					"type": "address"
				},
				{
					"internalType": "address",
					"name": "to",
					"type": "address"
				},
				{
					"internalType": "uint256",
					"name": "amount",
					"type": "uint256"
				}
			],
			"name": "transferFrom",
			"outputs": [
				{
					"internalType": "bool",
					"name": "",
					"type": "bool"
				}
			],
			"stateMutability": "nonpayable",
			"type": "function"
		},
		{
			"inputs": [
				{
					"internalType": "address",
					"name": "newOwner",
					"type": "address"
				}
			],
			"name": "transferOwnership",
			"outputs": [],
			"stateMutability": "nonpayable",
			"type": "function"
		}
	]
}