{
	"data": {
		"bytecode": {
			"linkReferences": {
				"blockchain/contracts/Polygon/Pool/Prototype/pool/lib.sol": {
					"Lib": [
						{
							"length": 20,
							"start": 1850
						},
						{
							"length": 20,
							"start": 2260
						}
					]
				}
			},
			"object": "6080604052604051620026fb380380620026fb833981016040819052620000269162000376565b62093a8062000036818a6200047d565b8810156200004357600080fd5b60013410156200005257600080fd5b60018210156200006157600080fd5b30338c8c8c8c8c8c604051620000779062000265565b6200008a989796959493929190620004d3565b604051809103906000f080158015620000a7573d6000803e3d6000fd5b50600080546001600160a01b0319166001600160a01b0392909216919091179055601260ff84161115620000da57600080fd5b848484604051620000eb9062000273565b620000f99392919062000542565b604051809103906000f08015801562000116573d6000803e3d6000fd5b50600180546001600160a01b0319166001600160a01b0392909216919091179055620001428262000186565b5050600054600280546001600160a01b039283166001600160a01b0319918216179091556001546003805491909316911617905550620005a4975050505050505050565b60015460405163140e25ad60e31b81526004810183905233916001600160a01b03169063a0712d6890602401600060405180830381600087803b158015620001cd57600080fd5b505af1158015620001e2573d6000803e3d6000fd5b505060015460405163a9059cbb60e01b81526001600160a01b03858116600483015260248201879052909116925063a9059cbb91506044016020604051808303816000875af11580156200023a573d6000803e3d6000fd5b505050506040513d601f19601f820116820180604052508101906200026091906200057f565b505050565b610d418062000e5083390190565b610b6a8062001b9183390190565b634e487b7160e01b600052604160045260246000fd5b60005b83811015620002b45781810151838201526020016200029a565b50506000910152565b600082601f830112620002cf57600080fd5b81516001600160401b0380821115620002ec57620002ec62000281565b604051601f8301601f19908116603f0116810190828211818310171562000317576200031762000281565b816040528381528660208588010111156200033157600080fd5b6200034484602083016020890162000297565b9695505050505050565b805180151581146200035f57600080fd5b919050565b805160ff811681146200035f57600080fd5b6000806000806000806000806000806101408b8d0312156200039757600080fd5b8a516001600160401b0380821115620003af57600080fd5b620003bd8e838f01620002bd565b9b5060208d0151915080821115620003d457600080fd5b620003e28e838f01620002bd565b9a5060408d0151995060608d0151985060808d015197506200040760a08e016200034e565b965060c08d01519150808211156200041e57600080fd5b6200042c8e838f01620002bd565b955060e08d01519150808211156200044357600080fd5b50620004528d828e01620002bd565b935050620004646101008c0162000364565b91506101208b015190509295989b9194979a5092959850565b808201808211156200049f57634e487b7160e01b600052601160045260246000fd5b92915050565b60008151808452620004bf81602086016020860162000297565b601f01601f19169290920160200192915050565b6001600160a01b0389811682528816602082015261010060408201819052600090620005028382018a620004a5565b90508281036060840152620005188189620004a5565b9150508560808301528460a08301528360c083015282151560e08301529998505050505050505050565b606081526000620005576060830186620004a5565b82810360208401526200056b8186620004a5565b91505060ff83166040830152949350505050565b6000602082840312156200059257600080fd5b6200059d826200034e565b9392505050565b61089c80620005b46000396000f3fe60806040526004361061003f5760003560e01c80630f851666146100445780632e1a7d4d1461007b5780633c964865146100ab578063c1cbbca7146100c9575b600080fd5b34801561005057600080fd5b506003546001600160a01b03165b6040516001600160a01b0390911681526020015b60405180910390f35b34801561008757600080fd5b5061009b6100963660046106f5565b6100dc565b6040519015158152602001610072565b3480156100b757600080fd5b506002546001600160a01b031661005e565b61009b6100d73660046106f5565b610207565b6000808290506000600160009054906101000a90046001600160a01b03166001600160a01b03166318160ddd6040518163ffffffff1660e01b8152600401602060405180830381865afa158015610137573d6000803e3d6000fd5b505050506040513d601f19601f8201168201806040525081019061015b919061070e565b604051634f2cf82560e01b81526004810184905260248101829052476044820181905291925060009073__$141014915f569a33f196563eb3a33fc3e6$__90634f2cf82590606401602060405180830381865af41580156101c0573d6000803e3d6000fd5b505050506040513d601f19601f820116820180604052508101906101e4919061070e565b9050336101f08561045c565b6101fa8183610543565b5060019695505050505050565b6000805460405163b976110160e01b81526004810184905282916001600160a01b03169063b97611019060240160a060405180830381865afa158015610251573d6000803e3d6000fd5b505050506040513d601f19601f82011682018060405250810190610275919061073c565b600154604080516318160ddd60e01b8152905192935034926000926001600160a01b0316916318160ddd9160048083019260209291908290030181865afa1580156102c4573d6000803e3d6000fd5b505050506040513d601f19601f820116820180604052508101906102e8919061070e565b905060006102f683476107c5565b604051630daf830160e01b815260048101859052602481018490526044810182905290915060009073__$141014915f569a33f196563eb3a33fc3e6$__90630daf830190606401602060405180830381865af415801561035a573d6000803e3d6000fd5b505050506040513d601f19601f8201168201806040525081019061037e919061070e565b90506000841161038d57600080fd5b6000831161039a57600080fd5b600082116103a757600080fd5b84602001514211156103b857600080fd5b60008054604051630248ffa560e21b81523360048201526001600160a01b0390911690630923fe9490602401602060405180830381865afa158015610401573d6000803e3d6000fd5b505050506040513d601f19601f8201168201806040525081019061042591906107ec565b905085606001511561043c57805161043c57600080fd5b610445856105df565b61044e82610620565b506001979650505050505050565b6001546040516323b872dd60e01b81523360048201819052306024830181905260448301859052909290916001600160a01b03909116906323b872dd906064016020604051808303816000875af11580156104bb573d6000803e3d6000fd5b505050506040513d601f19601f820116820180604052508101906104df9190610844565b50600154604051630852cd8d60e31b8152600481018590526001600160a01b03909116906342966c6890602401600060405180830381600087803b15801561052657600080fd5b505af115801561053a573d6000803e3d6000fd5b50505050505050565b600054604051632e1a7d4d60e01b8152600481018390526001600160a01b0390911690632e1a7d4d90602401600060405180830381600087803b15801561058957600080fd5b505af115801561059d573d6000803e3d6000fd5b50506040518492506001600160a01b038316915083156108fc029084906000818181858888f193505050501580156105d9573d6000803e3d6000fd5b50505050565b600080546040516001600160a01b0390911691829184156108fc0291859190818181858888f1935050505015801561061b573d6000803e3d6000fd5b505050565b60015460405163140e25ad60e31b81526004810183905233916001600160a01b03169063a0712d6890602401600060405180830381600087803b15801561066657600080fd5b505af115801561067a573d6000803e3d6000fd5b505060015460405163a9059cbb60e01b81526001600160a01b03858116600483015260248201879052909116925063a9059cbb91506044016020604051808303816000875af11580156106d1573d6000803e3d6000fd5b505050506040513d601f19601f8201168201806040525081019061061b9190610844565b60006020828403121561070757600080fd5b5035919050565b60006020828403121561072057600080fd5b5051919050565b8051801515811461073757600080fd5b919050565b600060a0828403121561074e57600080fd5b60405160a0810181811067ffffffffffffffff8211171561077f57634e487b7160e01b600052604160045260246000fd5b80604052508251815260208301516020820152604083015160408201526107a860608401610727565b60608201526107b960808401610727565b60808201529392505050565b818103818111156107e657634e487b7160e01b600052601160045260246000fd5b92915050565b6000602082840312156107fe57600080fd5b6040516020810181811067ffffffffffffffff8211171561082f57634e487b7160e01b600052604160045260246000fd5b60405261083b83610727565b81529392505050565b60006020828403121561085657600080fd5b61085f82610727565b939250505056fea26469706673582212205056f98671fbb0111a5481e22563eaeaf9189bf068088ed1282a12fc31a724f164736f6c6343000812003360806040523480156200001157600080fd5b5060405162000d4138038062000d41833981016040819052620000349162000350565b600062000042858562000418565b905062093a8062530e80818510156200005a57600080fd5b808310156200006857600080fd5b6040805160a081018252888152602080820189815292820188815287151560608401908152600060808501818152818052600790945293517f6d5257204ebe7d88fd91ae87941cb2dd9d8062b64ae5a2bd2d28ec40b9fbf6df5593517f6d5257204ebe7d88fd91ae87941cb2dd9d8062b64ae5a2bd2d28ec40b9fbf6e055517f6d5257204ebe7d88fd91ae87941cb2dd9d8062b64ae5a2bd2d28ec40b9fbf6e155915160008051602062000d218339815191528054935115156101000261ff00199215159290921661ffff1990941693909317179091558590036200016e5760008052600760205260008051602062000d21833981519152805461ff0019166101001790555b6001600160a01b038b166200018257600080fd5b6001600160a01b038a166200019657600080fd5b60008054610100600160a81b0319166101006001600160a01b038e81169190910291909117909155600180546001600160a01b031916918c169190911790556003620001e38a82620004cf565b506004620001f28982620004cf565b5042600581905550896001600160a01b03168b6001600160a01b03167fa9791d0b29cae9f1171eeb4160f282930ca6a1ee4f5d2760fdb5bee857b6057e8b8b6005548c8c8c8c6040516200024d9796959493929190620005c9565b60405180910390a350505050505050505050506200061f565b80516001600160a01b03811681146200027e57600080fd5b919050565b634e487b7160e01b600052604160045260246000fd5b60005b83811015620002b65781810151838201526020016200029c565b50506000910152565b600082601f830112620002d157600080fd5b81516001600160401b0380821115620002ee57620002ee62000283565b604051601f8301601f19908116603f0116810190828211818310171562000319576200031962000283565b816040528381528660208588010111156200033357600080fd5b6200034684602083016020890162000299565b9695505050505050565b600080600080600080600080610100898b0312156200036e57600080fd5b620003798962000266565b97506200038960208a0162000266565b60408a01519097506001600160401b0380821115620003a757600080fd5b620003b58c838d01620002bf565b975060608b0151915080821115620003cc57600080fd5b50620003db8b828c01620002bf565b9550506080890151935060a0890151925060c0890151915060e089015180151581146200040757600080fd5b809150509295985092959890939650565b818103818111156200043a57634e487b7160e01b600052601160045260246000fd5b92915050565b600181811c908216806200045557607f821691505b6020821081036200047657634e487b7160e01b600052602260045260246000fd5b50919050565b601f821115620004ca57600081815260208120601f850160051c81016020861015620004a55750805b601f850160051c820191505b81811015620004c657828155600101620004b1565b5050505b505050565b81516001600160401b03811115620004eb57620004eb62000283565b6200050381620004fc845462000440565b846200047c565b602080601f8311600181146200053b5760008415620005225750858301515b600019600386901b1c1916600185901b178555620004c6565b600085815260208120601f198616915b828110156200056c578886015182559484019460019091019084016200054b565b50858210156200058b5787850151600019600388901b60f8161c191681555b5050505050600190811b01905550565b60008151808452620005b581602086016020860162000299565b601f01601f19169290920160200192915050565b60e081526000620005de60e083018a6200059b565b8281036020840152620005f2818a6200059b565b604084019890985250506060810194909452608084019290925260a0830152151560c09091015292915050565b6106f2806200062f6000396000f3fe6080604052600436106100595760003560e01c80630923fe94146100c057806324a5af311461012a5780632e1a7d4d1461014c57806390b410af1461016c578063b97611011461019c578063dd12776a1461020257600080fd5b366100bb5760005461010090046001600160a01b0316331461007a57600080fd5b60408051338082523460208301819052909290917fe1fffcc4923d04b559f4d29a8bfc6cda04eb5b0d3c460751c2402c5c5cc9109c910160405180910390a1005b600080fd5b3480156100cc57600080fd5b506101146100db3660046104fb565b60408051602080820183526000918290526001600160a01b039390931681526006835281902081519283019091525460ff161515815290565b6040519051151581526020015b60405180910390f35b34801561013657600080fd5b5061014a61014536600461051d565b610222565b005b34801561015857600080fd5b5061014a610167366004610547565b6102c6565b34801561017857600080fd5b5061018c610187366004610571565b610369565b6040519015158152602001610121565b3480156101a857600080fd5b506101bc6101b7366004610547565b6103b4565b6040516101219190600060a08201905082518252602083015160208301526040830151604083015260608301511515606083015260808301511515608083015292915050565b34801561020e57600080fd5b5061018c61021d3660046105f2565b610444565b60005461010090046001600160a01b0316331461023e57600080fd5b60005460405163a9059cbb60e01b81526101009091046001600160a01b03908116600483018190526024830184905291849182169063a9059cbb906044016020604051808303816000875af115801561029b573d6000803e3d6000fd5b505050506040513d601f19601f820116820180604052508101906102bf919061069f565b5050505050565b60005461010090046001600160a01b031633146102e257600080fd5b600080546040516101009091046001600160a01b03169182916108fc85150291859190818181858888f19350505050158015610322573d6000803e3d6000fd5b50604080516001600160a01b0383168152602081018490527f884edad9ce6fa2440d8a54cc123490eb96d2768479d49ff9c7366125a9424364910160405180910390a15050565b6000805461010090046001600160a01b0316331461038657600080fd5b506001600160a01b039190911660009081526006602052604090209051815460ff1916901515179055600190565b6103ea6040518060a001604052806000815260200160008152602001600081526020016000151581526020016000151581525090565b50600090815260076020908152604091829020825160a0810184528154815260018201549281019290925260028101549282019290925260039091015460ff80821615156060840152610100909104161515608082015290565b6000805461010090046001600160a01b0316331461046157600080fd5b60008381526007602052604090205442111561047c57600080fd5b506000828152600760209081526040918290208351815590830151600180830191909155918301516002820155606083015160039091018054608085015115156101000261ff00199315159390931661ffff199091161791909117905592915050565b80356001600160a01b03811681146104f657600080fd5b919050565b60006020828403121561050d57600080fd5b610516826104df565b9392505050565b6000806040838503121561053057600080fd5b610539836104df565b946020939093013593505050565b60006020828403121561055957600080fd5b5035919050565b801515811461056e57600080fd5b50565b600080828403604081121561058557600080fd5b61058e846104df565b92506020601f19820112156105a257600080fd5b506040516020810181811067ffffffffffffffff821117156105d457634e487b7160e01b600052604160045260246000fd5b60405260208401356105e581610560565b8152919491935090915050565b60008082840360c081121561060657600080fd5b8335925060a0601f198201121561061c57600080fd5b5060405160a0810181811067ffffffffffffffff8211171561064e57634e487b7160e01b600052604160045260246000fd5b8060405250602084013581526040840135602082015260608401356040820152608084013561067c81610560565b606082015260a084013561068f81610560565b6080820152919491935090915050565b6000602082840312156106b157600080fd5b81516105168161056056fea26469706673582212201603d0dc89f1bd849e33733d0727e4b4c00dbd2776e4f310e7e5c7154fc420e064736f6c634300081200336d5257204ebe7d88fd91ae87941cb2dd9d8062b64ae5a2bd2d28ec40b9fbf6e260806040523480156200001157600080fd5b5060405162000b6a38038062000b6a833981016040819052620000349162000146565b60128160ff1611156200004657600080fd5b60006200005484826200025a565b5060016200006383826200025a565b506002805460ff191660ff9290921691909117905550620003269050565b634e487b7160e01b600052604160045260246000fd5b600082601f830112620000a957600080fd5b81516001600160401b0380821115620000c657620000c662000081565b604051601f8301601f19908116603f01168101908282118183101715620000f157620000f162000081565b816040528381526020925086838588010111156200010e57600080fd5b600091505b8382101562000132578582018301518183018401529082019062000113565b600093810190920192909252949350505050565b6000806000606084860312156200015c57600080fd5b83516001600160401b03808211156200017457600080fd5b620001828783880162000097565b945060208601519150808211156200019957600080fd5b50620001a88682870162000097565b925050604084015160ff81168114620001c057600080fd5b809150509250925092565b600181811c90821680620001e057607f821691505b6020821081036200020157634e487b7160e01b600052602260045260246000fd5b50919050565b601f8211156200025557600081815260208120601f850160051c81016020861015620002305750805b601f850160051c820191505b8181101562000251578281556001016200023c565b5050505b505050565b81516001600160401b0381111562000276576200027662000081565b6200028e81620002878454620001cb565b8462000207565b602080601f831160018114620002c65760008415620002ad5750858301515b600019600386901b1c1916600185901b17855562000251565b600085815260208120601f198616915b82811015620002f757888601518255948401946001909101908401620002d6565b5085821015620003165787850151600019600388901b60f8161c191681555b5050505050600190811b01905550565b61083480620003366000396000f3fe608060405234801561001057600080fd5b50600436106100a95760003560e01c806342966c681161007157806342966c681461012957806370a082311461013e57806395d89b4114610167578063a0712d681461016f578063a9059cbb14610182578063dd62ed3e1461019557600080fd5b806306fdde03146100ae578063095ea7b3146100cc57806318160ddd146100ef57806323b872dd14610101578063313ce56714610114575b600080fd5b6100b66101ce565b6040516100c3919061064a565b60405180910390f35b6100df6100da3660046106b4565b610262565b60405190151581526020016100c3565b6003545b6040519081526020016100c3565b6100df61010f3660046106de565b6102ea565b60025460405160ff90911681526020016100c3565b61013c61013736600461071a565b610377565b005b6100f361014c366004610733565b6001600160a01b031660009081526005602052604090205490565b6100b661039d565b61013c61017d36600461071a565b6103af565b6100df6101903660046106b4565b6103d1565b6100f36101a3366004610755565b6001600160a01b03918216600090815260066020908152604080832093909416825291909152205490565b60606000800180546101df90610788565b80601f016020809104026020016040519081016040528092919081815260200182805461020b90610788565b80156102585780601f1061022d57610100808354040283529160200191610258565b820191906000526020600020905b81548152906001019060200180831161023b57829003601f168201915b5050505050905090565b6000338061026f57600080fd5b6001600160a01b03841661028257600080fd5b6001600160a01b0381811660008181526006602090815260408083209489168084529482529182902087905590518681527f8c5be1e5ebec7d5bd14f71427d1e84f3dd0314c0f7b2291e5b200ac8c7c3b925910160405180910390a360019150505b92915050565b3360009081526006602090815260408083206001600160a01b03861684529091528120546001810161031b57600080fd5b8281101561032857600080fd5b3360009081526006602090815260408083206001600160a01b03881684529091528120805485929061035b9084906107d8565b9091555061036c90508585856103e9565b506001949350505050565b6004546001600160a01b0316331461038e57600080fd5b3361039981836104e6565b5050565b6060600060010180546101df90610788565b6004546001600160a01b031633146103c657600080fd5b33610399818361059a565b6000336103df8185856103e9565b5060019392505050565b6001600160a01b0383166000818152600560205260409020549061040c57600080fd5b6001600160a01b03831661041f57600080fd5b8181101561042c57600080fd5b801561043757600080fd5b6001600160a01b0384166000908152600560205260408120805484929061045f9084906107d8565b90915550506001600160a01b0383166000908152600560205260408120805484929061048c9084906107eb565b92505081905550826001600160a01b0316846001600160a01b03167fddf252ad1be2c89b69c2b068fc378daa952ba7f163c4a11628f55a4df523b3ef846040516104d891815260200190565b60405180910390a350505050565b6001600160a01b0382166000908152600560205260408120548083111561050c57600080fd5b6001600160a01b038416600090815260056020526040812080548592906105349084906107d8565b90915550506003805484919060009061054e9084906107d8565b92505081905550816001600160a01b0316846001600160a01b03167fddf252ad1be2c89b69c2b068fc378daa952ba7f163c4a11628f55a4df523b3ef856040516104d891815260200190565b60006001600160a01b0383166105af57600080fd5b6001600160a01b038316600090815260056020526040812080548492906105d79084906107eb565b9091555050600380548391906000906105f19084906107eb565b92505081905550826001600160a01b0316816001600160a01b03167fddf252ad1be2c89b69c2b068fc378daa952ba7f163c4a11628f55a4df523b3ef8460405161063d91815260200190565b60405180910390a3505050565b600060208083528351808285015260005b818110156106775785810183015185820160400152820161065b565b506000604082860101526040601f19601f8301168501019250505092915050565b80356001600160a01b03811681146106af57600080fd5b919050565b600080604083850312156106c757600080fd5b6106d083610698565b946020939093013593505050565b6000806000606084860312156106f357600080fd5b6106fc84610698565b925061070a60208501610698565b9150604084013590509250925092565b60006020828403121561072c57600080fd5b5035919050565b60006020828403121561074557600080fd5b61074e82610698565b9392505050565b6000806040838503121561076857600080fd5b61077183610698565b915061077f60208401610698565b90509250929050565b600181811c9082168061079c57607f821691505b6020821081036107bc57634e487b7160e01b600052602260045260246000fd5b50919050565b634e487b7160e01b600052601160045260246000fd5b818103818111156102e4576102e46107c2565b808201808211156102e4576102e46107c256fea2646970667358221220b5d48efaf89e99480352ff6cb42f44417236c4ddd7c663b98acca7c88cb1a93e64736f6c63430008120033",
			"opcodes": "PUSH1 0x80 PUSH1 0x40 MSTORE PUSH1 0x40 MLOAD PUSH3 0x26FB CODESIZE SUB DUP1 PUSH3 0x26FB DUP4 CODECOPY DUP2 ADD PUSH1 0x40 DUP2 SWAP1 MSTORE PUSH3 0x26 SWAP2 PUSH3 0x376 JUMP JUMPDEST PUSH3 0x93A80 PUSH3 0x36 DUP2 DUP11 PUSH3 0x47D JUMP JUMPDEST DUP9 LT ISZERO PUSH3 0x43 JUMPI PUSH1 0x0 DUP1 REVERT JUMPDEST PUSH1 0x1 CALLVALUE LT ISZERO PUSH3 0x52 JUMPI PUSH1 0x0 DUP1 REVERT JUMPDEST PUSH1 0x1 DUP3 LT ISZERO PUSH3 0x61 JUMPI PUSH1 0x0 DUP1 REVERT JUMPDEST ADDRESS CALLER DUP13 DUP13 DUP13 DUP13 DUP13 DUP13 PUSH1 0x40 MLOAD PUSH3 0x77 SWAP1 PUSH3 0x265 JUMP JUMPDEST PUSH3 0x8A SWAP9 SWAP8 SWAP7 SWAP6 SWAP5 SWAP4 SWAP3 SWAP2 SWAP1 PUSH3 0x4D3 JUMP JUMPDEST PUSH1 0x40 MLOAD DUP1 SWAP2 SUB SWAP1 PUSH1 0x0 CREATE DUP1 ISZERO DUP1 ISZERO PUSH3 0xA7 JUMPI RETURNDATASIZE PUSH1 0x0 DUP1 RETURNDATACOPY RETURNDATASIZE PUSH1 0x0 REVERT JUMPDEST POP PUSH1 0x0 DUP1 SLOAD PUSH1 0x1 PUSH1 0x1 PUSH1 0xA0 SHL SUB NOT AND PUSH1 0x1 PUSH1 0x1 PUSH1 0xA0 SHL SUB SWAP3 SWAP1 SWAP3 AND SWAP2 SWAP1 SWAP2 OR SWAP1 SSTORE PUSH1 0x12 PUSH1 0xFF DUP5 AND GT ISZERO PUSH3 0xDA JUMPI PUSH1 0x0 DUP1 REVERT JUMPDEST DUP5 DUP5 DUP5 PUSH1 0x40 MLOAD PUSH3 0xEB SWAP1 PUSH3 0x273 JUMP JUMPDEST PUSH3 0xF9 SWAP4 SWAP3 SWAP2 SWAP1 PUSH3 0x542 JUMP JUMPDEST PUSH1 0x40 MLOAD DUP1 SWAP2 SUB SWAP1 PUSH1 0x0 CREATE DUP1 ISZERO DUP1 ISZERO PUSH3 0x116 JUMPI RETURNDATASIZE PUSH1 0x0 DUP1 RETURNDATACOPY RETURNDATASIZE PUSH1 0x0 REVERT JUMPDEST POP PUSH1 0x1 DUP1 SLOAD PUSH1 0x1 PUSH1 0x1 PUSH1 0xA0 SHL SUB NOT AND PUSH1 0x1 PUSH1 0x1 PUSH1 0xA0 SHL SUB SWAP3 SWAP1 SWAP3 AND SWAP2 SWAP1 SWAP2 OR SWAP1 SSTORE PUSH3 0x142 DUP3 PUSH3 0x186 JUMP JUMPDEST POP POP PUSH1 0x0 SLOAD PUSH1 0x2 DUP1 SLOAD PUSH1 0x1 PUSH1 0x1 PUSH1 0xA0 SHL SUB SWAP3 DUP4 AND PUSH1 0x1 PUSH1 0x1 PUSH1 0xA0 SHL SUB NOT SWAP2 DUP3 AND OR SWAP1 SWAP2 SSTORE PUSH1 0x1 SLOAD PUSH1 0x3 DUP1 SLOAD SWAP2 SWAP1 SWAP4 AND SWAP2 AND OR SWAP1 SSTORE POP PUSH3 0x5A4 SWAP8 POP POP POP POP POP POP POP POP JUMP JUMPDEST PUSH1 0x1 SLOAD PUSH1 0x40 MLOAD PUSH4 0x140E25AD PUSH1 0xE3 SHL DUP2 MSTORE PUSH1 0x4 DUP2 ADD DUP4 SWAP1 MSTORE CALLER SWAP2 PUSH1 0x1 PUSH1 0x1 PUSH1 0xA0 SHL SUB AND SWAP1 PUSH4 0xA0712D68 SWAP1 PUSH1 0x24 ADD PUSH1 0x0 PUSH1 0x40 MLOAD DUP1 DUP4 SUB DUP2 PUSH1 0x0 DUP8 DUP1 EXTCODESIZE ISZERO DUP1 ISZERO PUSH3 0x1CD JUMPI PUSH1 0x0 DUP1 REVERT JUMPDEST POP GAS CALL ISZERO DUP1 ISZERO PUSH3 0x1E2 JUMPI RETURNDATASIZE PUSH1 0x0 DUP1 RETURNDATACOPY RETURNDATASIZE PUSH1 0x0 REVERT JUMPDEST POP POP PUSH1 0x1 SLOAD PUSH1 0x40 MLOAD PUSH4 0xA9059CBB PUSH1 0xE0 SHL DUP2 MSTORE PUSH1 0x1 PUSH1 0x1 PUSH1 0xA0 SHL SUB DUP6 DUP2 AND PUSH1 0x4 DUP4 ADD MSTORE PUSH1 0x24 DUP3 ADD DUP8 SWAP1 MSTORE SWAP1 SWAP2 AND SWAP3 POP PUSH4 0xA9059CBB SWAP2 POP PUSH1 0x44 ADD PUSH1 0x20 PUSH1 0x40 MLOAD DUP1 DUP4 SUB DUP2 PUSH1 0x0 DUP8 GAS CALL ISZERO DUP1 ISZERO PUSH3 0x23A JUMPI RETURNDATASIZE PUSH1 0x0 DUP1 RETURNDATACOPY RETURNDATASIZE PUSH1 0x0 REVERT JUMPDEST POP POP POP POP PUSH1 0x40 MLOAD RETURNDATASIZE PUSH1 0x1F NOT PUSH1 0x1F DUP3 ADD AND DUP3 ADD DUP1 PUSH1 0x40 MSTORE POP DUP2 ADD SWAP1 PUSH3 0x260 SWAP2 SWAP1 PUSH3 0x57F JUMP JUMPDEST POP POP POP JUMP JUMPDEST PUSH2 0xD41 DUP1 PUSH3 0xE50 DUP4 CODECOPY ADD SWAP1 JUMP JUMPDEST PUSH2 0xB6A DUP1 PUSH3 0x1B91 DUP4 CODECOPY ADD SWAP1 JUMP JUMPDEST PUSH4 0x4E487B71 PUSH1 0xE0 SHL PUSH1 0x0 MSTORE PUSH1 0x41 PUSH1 0x4 MSTORE PUSH1 0x24 PUSH1 0x0 REVERT JUMPDEST PUSH1 0x0 JUMPDEST DUP4 DUP2 LT ISZERO PUSH3 0x2B4 JUMPI DUP2 DUP2 ADD MLOAD DUP4 DUP3 ADD MSTORE PUSH1 0x20 ADD PUSH3 0x29A JUMP JUMPDEST POP POP PUSH1 0x0 SWAP2 ADD MSTORE JUMP JUMPDEST PUSH1 0x0 DUP3 PUSH1 0x1F DUP4 ADD SLT PUSH3 0x2CF JUMPI PUSH1 0x0 DUP1 REVERT JUMPDEST DUP2 MLOAD PUSH1 0x1 PUSH1 0x1 PUSH1 0x40 SHL SUB DUP1 DUP3 GT ISZERO PUSH3 0x2EC JUMPI PUSH3 0x2EC PUSH3 0x281 JUMP JUMPDEST PUSH1 0x40 MLOAD PUSH1 0x1F DUP4 ADD PUSH1 0x1F NOT SWAP1 DUP2 AND PUSH1 0x3F ADD AND DUP2 ADD SWAP1 DUP3 DUP3 GT DUP2 DUP4 LT OR ISZERO PUSH3 0x317 JUMPI PUSH3 0x317 PUSH3 0x281 JUMP JUMPDEST DUP2 PUSH1 0x40 MSTORE DUP4 DUP2 MSTORE DUP7 PUSH1 0x20 DUP6 DUP9 ADD ADD GT ISZERO PUSH3 0x331 JUMPI PUSH1 0x0 DUP1 REVERT JUMPDEST PUSH3 0x344 DUP5 PUSH1 0x20 DUP4 ADD PUSH1 0x20 DUP10 ADD PUSH3 0x297 JUMP JUMPDEST SWAP7 SWAP6 POP POP POP POP POP POP JUMP JUMPDEST DUP1 MLOAD DUP1 ISZERO ISZERO DUP2 EQ PUSH3 0x35F JUMPI PUSH1 0x0 DUP1 REVERT JUMPDEST SWAP2 SWAP1 POP JUMP JUMPDEST DUP1 MLOAD PUSH1 0xFF DUP2 AND DUP2 EQ PUSH3 0x35F JUMPI PUSH1 0x0 DUP1 REVERT JUMPDEST PUSH1 0x0 DUP1 PUSH1 0x0 DUP1 PUSH1 0x0 DUP1 PUSH1 0x0 DUP1 PUSH1 0x0 DUP1 PUSH2 0x140 DUP12 DUP14 SUB SLT ISZERO PUSH3 0x397 JUMPI PUSH1 0x0 DUP1 REVERT JUMPDEST DUP11 MLOAD PUSH1 0x1 PUSH1 0x1 PUSH1 0x40 SHL SUB DUP1 DUP3 GT ISZERO PUSH3 0x3AF JUMPI PUSH1 0x0 DUP1 REVERT JUMPDEST PUSH3 0x3BD DUP15 DUP4 DUP16 ADD PUSH3 0x2BD JUMP JUMPDEST SWAP12 POP PUSH1 0x20 DUP14 ADD MLOAD SWAP2 POP DUP1 DUP3 GT ISZERO PUSH3 0x3D4 JUMPI PUSH1 0x0 DUP1 REVERT JUMPDEST PUSH3 0x3E2 DUP15 DUP4 DUP16 ADD PUSH3 0x2BD JUMP JUMPDEST SWAP11 POP PUSH1 0x40 DUP14 ADD MLOAD SWAP10 POP PUSH1 0x60 DUP14 ADD MLOAD SWAP9 POP PUSH1 0x80 DUP14 ADD MLOAD SWAP8 POP PUSH3 0x407 PUSH1 0xA0 DUP15 ADD PUSH3 0x34E JUMP JUMPDEST SWAP7 POP PUSH1 0xC0 DUP14 ADD MLOAD SWAP2 POP DUP1 DUP3 GT ISZERO PUSH3 0x41E JUMPI PUSH1 0x0 DUP1 REVERT JUMPDEST PUSH3 0x42C DUP15 DUP4 DUP16 ADD PUSH3 0x2BD JUMP JUMPDEST SWAP6 POP PUSH1 0xE0 DUP14 ADD MLOAD SWAP2 POP DUP1 DUP3 GT ISZERO PUSH3 0x443 JUMPI PUSH1 0x0 DUP1 REVERT JUMPDEST POP PUSH3 0x452 DUP14 DUP3 DUP15 ADD PUSH3 0x2BD JUMP JUMPDEST SWAP4 POP POP PUSH3 0x464 PUSH2 0x100 DUP13 ADD PUSH3 0x364 JUMP JUMPDEST SWAP2 POP PUSH2 0x120 DUP12 ADD MLOAD SWAP1 POP SWAP3 SWAP6 SWAP9 SWAP12 SWAP2 SWAP5 SWAP8 SWAP11 POP SWAP3 SWAP6 SWAP9 POP JUMP JUMPDEST DUP1 DUP3 ADD DUP1 DUP3 GT ISZERO PUSH3 0x49F JUMPI PUSH4 0x4E487B71 PUSH1 0xE0 SHL PUSH1 0x0 MSTORE PUSH1 0x11 PUSH1 0x4 MSTORE PUSH1 0x24 PUSH1 0x0 REVERT JUMPDEST SWAP3 SWAP2 POP POP JUMP JUMPDEST PUSH1 0x0 DUP2 MLOAD DUP1 DUP5 MSTORE PUSH3 0x4BF DUP2 PUSH1 0x20 DUP7 ADD PUSH1 0x20 DUP7 ADD PUSH3 0x297 JUMP JUMPDEST PUSH1 0x1F ADD PUSH1 0x1F NOT AND SWAP3 SWAP1 SWAP3 ADD PUSH1 0x20 ADD SWAP3 SWAP2 POP POP JUMP JUMPDEST PUSH1 0x1 PUSH1 0x1 PUSH1 0xA0 SHL SUB DUP10 DUP2 AND DUP3 MSTORE DUP9 AND PUSH1 0x20 DUP3 ADD MSTORE PUSH2 0x100 PUSH1 0x40 DUP3 ADD DUP2 SWAP1 MSTORE PUSH1 0x0 SWAP1 PUSH3 0x502 DUP4 DUP3 ADD DUP11 PUSH3 0x4A5 JUMP JUMPDEST SWAP1 POP DUP3 DUP2 SUB PUSH1 0x60 DUP5 ADD MSTORE PUSH3 0x518 DUP2 DUP10 PUSH3 0x4A5 JUMP JUMPDEST SWAP2 POP POP DUP6 PUSH1 0x80 DUP4 ADD MSTORE DUP5 PUSH1 0xA0 DUP4 ADD MSTORE DUP4 PUSH1 0xC0 DUP4 ADD MSTORE DUP3 ISZERO ISZERO PUSH1 0xE0 DUP4 ADD MSTORE SWAP10 SWAP9 POP POP POP POP POP POP POP POP POP JUMP JUMPDEST PUSH1 0x60 DUP2 MSTORE PUSH1 0x0 PUSH3 0x557 PUSH1 0x60 DUP4 ADD DUP7 PUSH3 0x4A5 JUMP JUMPDEST DUP3 DUP2 SUB PUSH1 0x20 DUP5 ADD MSTORE PUSH3 0x56B DUP2 DUP7 PUSH3 0x4A5 JUMP JUMPDEST SWAP2 POP POP PUSH1 0xFF DUP4 AND PUSH1 0x40 DUP4 ADD MSTORE SWAP5 SWAP4 POP POP POP POP JUMP JUMPDEST PUSH1 0x0 PUSH1 0x20 DUP3 DUP5 SUB SLT ISZERO PUSH3 0x592 JUMPI PUSH1 0x0 DUP1 REVERT JUMPDEST PUSH3 0x59D DUP3 PUSH3 0x34E JUMP JUMPDEST SWAP4 SWAP3 POP POP POP JUMP JUMPDEST PUSH2 0x89C DUP1 PUSH3 0x5B4 PUSH1 0x0 CODECOPY PUSH1 0x0 RETURN INVALID PUSH1 0x80 PUSH1 0x40 MSTORE PUSH1 0x4 CALLDATASIZE LT PUSH2 0x3F JUMPI PUSH1 0x0 CALLDATALOAD PUSH1 0xE0 SHR DUP1 PUSH4 0xF851666 EQ PUSH2 0x44 JUMPI DUP1 PUSH4 0x2E1A7D4D EQ PUSH2 0x7B JUMPI DUP1 PUSH4 0x3C964865 EQ PUSH2 0xAB JUMPI DUP1 PUSH4 0xC1CBBCA7 EQ PUSH2 0xC9 JUMPI JUMPDEST PUSH1 0x0 DUP1 REVERT JUMPDEST CALLVALUE DUP1 ISZERO PUSH2 0x50 JUMPI PUSH1 0x0 DUP1 REVERT JUMPDEST POP PUSH1 0x3 SLOAD PUSH1 0x1 PUSH1 0x1 PUSH1 0xA0 SHL SUB AND JUMPDEST PUSH1 0x40 MLOAD PUSH1 0x1 PUSH1 0x1 PUSH1 0xA0 SHL SUB SWAP1 SWAP2 AND DUP2 MSTORE PUSH1 0x20 ADD JUMPDEST PUSH1 0x40 MLOAD DUP1 SWAP2 SUB SWAP1 RETURN JUMPDEST CALLVALUE DUP1 ISZERO PUSH2 0x87 JUMPI PUSH1 0x0 DUP1 REVERT JUMPDEST POP PUSH2 0x9B PUSH2 0x96 CALLDATASIZE PUSH1 0x4 PUSH2 0x6F5 JUMP JUMPDEST PUSH2 0xDC JUMP JUMPDEST PUSH1 0x40 MLOAD SWAP1 ISZERO ISZERO DUP2 MSTORE PUSH1 0x20 ADD PUSH2 0x72 JUMP JUMPDEST CALLVALUE DUP1 ISZERO PUSH2 0xB7 JUMPI PUSH1 0x0 DUP1 REVERT JUMPDEST POP PUSH1 0x2 SLOAD PUSH1 0x1 PUSH1 0x1 PUSH1 0xA0 SHL SUB AND PUSH2 0x5E JUMP JUMPDEST PUSH2 0x9B PUSH2 0xD7 CALLDATASIZE PUSH1 0x4 PUSH2 0x6F5 JUMP JUMPDEST PUSH2 0x207 JUMP JUMPDEST PUSH1 0x0 DUP1 DUP3 SWAP1 POP PUSH1 0x0 PUSH1 0x1 PUSH1 0x0 SWAP1 SLOAD SWAP1 PUSH2 0x100 EXP SWAP1 DIV PUSH1 0x1 PUSH1 0x1 PUSH1 0xA0 SHL SUB AND PUSH1 0x1 PUSH1 0x1 PUSH1 0xA0 SHL SUB AND PUSH4 0x18160DDD PUSH1 0x40 MLOAD DUP2 PUSH4 0xFFFFFFFF AND PUSH1 0xE0 SHL DUP2 MSTORE PUSH1 0x4 ADD PUSH1 0x20 PUSH1 0x40 MLOAD DUP1 DUP4 SUB DUP2 DUP7 GAS STATICCALL ISZERO DUP1 ISZERO PUSH2 0x137 JUMPI RETURNDATASIZE PUSH1 0x0 DUP1 RETURNDATACOPY RETURNDATASIZE PUSH1 0x0 REVERT JUMPDEST POP POP POP POP PUSH1 0x40 MLOAD RETURNDATASIZE PUSH1 0x1F NOT PUSH1 0x1F DUP3 ADD AND DUP3 ADD DUP1 PUSH1 0x40 MSTORE POP DUP2 ADD SWAP1 PUSH2 0x15B SWAP2 SWAP1 PUSH2 0x70E JUMP JUMPDEST PUSH1 0x40 MLOAD PUSH4 0x4F2CF825 PUSH1 0xE0 SHL DUP2 MSTORE PUSH1 0x4 DUP2 ADD DUP5 SWAP1 MSTORE PUSH1 0x24 DUP2 ADD DUP3 SWAP1 MSTORE SELFBALANCE PUSH1 0x44 DUP3 ADD DUP2 SWAP1 MSTORE SWAP2 SWAP3 POP PUSH1 0x0 SWAP1 PUSH20 0x0 SWAP1 PUSH4 0x4F2CF825 SWAP1 PUSH1 0x64 ADD PUSH1 0x20 PUSH1 0x40 MLOAD DUP1 DUP4 SUB DUP2 DUP7 GAS DELEGATECALL ISZERO DUP1 ISZERO PUSH2 0x1C0 JUMPI RETURNDATASIZE PUSH1 0x0 DUP1 RETURNDATACOPY RETURNDATASIZE PUSH1 0x0 REVERT JUMPDEST POP POP POP POP PUSH1 0x40 MLOAD RETURNDATASIZE PUSH1 0x1F NOT PUSH1 0x1F DUP3 ADD AND DUP3 ADD DUP1 PUSH1 0x40 MSTORE POP DUP2 ADD SWAP1 PUSH2 0x1E4 SWAP2 SWAP1 PUSH2 0x70E JUMP JUMPDEST SWAP1 POP CALLER PUSH2 0x1F0 DUP6 PUSH2 0x45C JUMP JUMPDEST PUSH2 0x1FA DUP2 DUP4 PUSH2 0x543 JUMP JUMPDEST POP PUSH1 0x1 SWAP7 SWAP6 POP POP POP POP POP POP JUMP JUMPDEST PUSH1 0x0 DUP1 SLOAD PUSH1 0x40 MLOAD PUSH4 0xB9761101 PUSH1 0xE0 SHL DUP2 MSTORE PUSH1 0x4 DUP2 ADD DUP5 SWAP1 MSTORE DUP3 SWAP2 PUSH1 0x1 PUSH1 0x1 PUSH1 0xA0 SHL SUB AND SWAP1 PUSH4 0xB9761101 SWAP1 PUSH1 0x24 ADD PUSH1 0xA0 PUSH1 0x40 MLOAD DUP1 DUP4 SUB DUP2 DUP7 GAS STATICCALL ISZERO DUP1 ISZERO PUSH2 0x251 JUMPI RETURNDATASIZE PUSH1 0x0 DUP1 RETURNDATACOPY RETURNDATASIZE PUSH1 0x0 REVERT JUMPDEST POP POP POP POP PUSH1 0x40 MLOAD RETURNDATASIZE PUSH1 0x1F NOT PUSH1 0x1F DUP3 ADD AND DUP3 ADD DUP1 PUSH1 0x40 MSTORE POP DUP2 ADD SWAP1 PUSH2 0x275 SWAP2 SWAP1 PUSH2 0x73C JUMP JUMPDEST PUSH1 0x1 SLOAD PUSH1 0x40 DUP1 MLOAD PUSH4 0x18160DDD PUSH1 0xE0 SHL DUP2 MSTORE SWAP1 MLOAD SWAP3 SWAP4 POP CALLVALUE SWAP3 PUSH1 0x0 SWAP3 PUSH1 0x1 PUSH1 0x1 PUSH1 0xA0 SHL SUB AND SWAP2 PUSH4 0x18160DDD SWAP2 PUSH1 0x4 DUP1 DUP4 ADD SWAP3 PUSH1 0x20 SWAP3 SWAP2 SWAP1 DUP3 SWAP1 SUB ADD DUP2 DUP7 GAS STATICCALL ISZERO DUP1 ISZERO PUSH2 0x2C4 JUMPI RETURNDATASIZE PUSH1 0x0 DUP1 RETURNDATACOPY RETURNDATASIZE PUSH1 0x0 REVERT JUMPDEST POP POP POP POP PUSH1 0x40 MLOAD RETURNDATASIZE PUSH1 0x1F NOT PUSH1 0x1F DUP3 ADD AND DUP3 ADD DUP1 PUSH1 0x40 MSTORE POP DUP2 ADD SWAP1 PUSH2 0x2E8 SWAP2 SWAP1 PUSH2 0x70E JUMP JUMPDEST SWAP1 POP PUSH1 0x0 PUSH2 0x2F6 DUP4 SELFBALANCE PUSH2 0x7C5 JUMP JUMPDEST PUSH1 0x40 MLOAD PUSH4 0xDAF8301 PUSH1 0xE0 SHL DUP2 MSTORE PUSH1 0x4 DUP2 ADD DUP6 SWAP1 MSTORE PUSH1 0x24 DUP2 ADD DUP5 SWAP1 MSTORE PUSH1 0x44 DUP2 ADD DUP3 SWAP1 MSTORE SWAP1 SWAP2 POP PUSH1 0x0 SWAP1 PUSH20 0x0 SWAP1 PUSH4 0xDAF8301 SWAP1 PUSH1 0x64 ADD PUSH1 0x20 PUSH1 0x40 MLOAD DUP1 DUP4 SUB DUP2 DUP7 GAS DELEGATECALL ISZERO DUP1 ISZERO PUSH2 0x35A JUMPI RETURNDATASIZE PUSH1 0x0 DUP1 RETURNDATACOPY RETURNDATASIZE PUSH1 0x0 REVERT JUMPDEST POP POP POP POP PUSH1 0x40 MLOAD RETURNDATASIZE PUSH1 0x1F NOT PUSH1 0x1F DUP3 ADD AND DUP3 ADD DUP1 PUSH1 0x40 MSTORE POP DUP2 ADD SWAP1 PUSH2 0x37E SWAP2 SWAP1 PUSH2 0x70E JUMP JUMPDEST SWAP1 POP PUSH1 0x0 DUP5 GT PUSH2 0x38D JUMPI PUSH1 0x0 DUP1 REVERT JUMPDEST PUSH1 0x0 DUP4 GT PUSH2 0x39A JUMPI PUSH1 0x0 DUP1 REVERT JUMPDEST PUSH1 0x0 DUP3 GT PUSH2 0x3A7 JUMPI PUSH1 0x0 DUP1 REVERT JUMPDEST DUP5 PUSH1 0x20 ADD MLOAD TIMESTAMP GT ISZERO PUSH2 0x3B8 JUMPI PUSH1 0x0 DUP1 REVERT JUMPDEST PUSH1 0x0 DUP1 SLOAD PUSH1 0x40 MLOAD PUSH4 0x248FFA5 PUSH1 0xE2 SHL DUP2 MSTORE CALLER PUSH1 0x4 DUP3 ADD MSTORE PUSH1 0x1 PUSH1 0x1 PUSH1 0xA0 SHL SUB SWAP1 SWAP2 AND SWAP1 PUSH4 0x923FE94 SWAP1 PUSH1 0x24 ADD PUSH1 0x20 PUSH1 0x40 MLOAD DUP1 DUP4 SUB DUP2 DUP7 GAS STATICCALL ISZERO DUP1 ISZERO PUSH2 0x401 JUMPI RETURNDATASIZE PUSH1 0x0 DUP1 RETURNDATACOPY RETURNDATASIZE PUSH1 0x0 REVERT JUMPDEST POP POP POP POP PUSH1 0x40 MLOAD RETURNDATASIZE PUSH1 0x1F NOT PUSH1 0x1F DUP3 ADD AND DUP3 ADD DUP1 PUSH1 0x40 MSTORE POP DUP2 ADD SWAP1 PUSH2 0x425 SWAP2 SWAP1 PUSH2 0x7EC JUMP JUMPDEST SWAP1 POP DUP6 PUSH1 0x60 ADD MLOAD ISZERO PUSH2 0x43C JUMPI DUP1 MLOAD PUSH2 0x43C JUMPI PUSH1 0x0 DUP1 REVERT JUMPDEST PUSH2 0x445 DUP6 PUSH2 0x5DF JUMP JUMPDEST PUSH2 0x44E DUP3 PUSH2 0x620 JUMP JUMPDEST POP PUSH1 0x1 SWAP8 SWAP7 POP POP POP POP POP POP POP JUMP JUMPDEST PUSH1 0x1 SLOAD PUSH1 0x40 MLOAD PUSH4 0x23B872DD PUSH1 0xE0 SHL DUP2 MSTORE CALLER PUSH1 0x4 DUP3 ADD DUP2 SWAP1 MSTORE ADDRESS PUSH1 0x24 DUP4 ADD DUP2 SWAP1 MSTORE PUSH1 0x44 DUP4 ADD DUP6 SWAP1 MSTORE SWAP1 SWAP3 SWAP1 SWAP2 PUSH1 0x1 PUSH1 0x1 PUSH1 0xA0 SHL SUB SWAP1 SWAP2 AND SWAP1 PUSH4 0x23B872DD SWAP1 PUSH1 0x64 ADD PUSH1 0x20 PUSH1 0x40 MLOAD DUP1 DUP4 SUB DUP2 PUSH1 0x0 DUP8 GAS CALL ISZERO DUP1 ISZERO PUSH2 0x4BB JUMPI RETURNDATASIZE PUSH1 0x0 DUP1 RETURNDATACOPY RETURNDATASIZE PUSH1 0x0 REVERT JUMPDEST POP POP POP POP PUSH1 0x40 MLOAD RETURNDATASIZE PUSH1 0x1F NOT PUSH1 0x1F DUP3 ADD AND DUP3 ADD DUP1 PUSH1 0x40 MSTORE POP DUP2 ADD SWAP1 PUSH2 0x4DF SWAP2 SWAP1 PUSH2 0x844 JUMP JUMPDEST POP PUSH1 0x1 SLOAD PUSH1 0x40 MLOAD PUSH4 0x852CD8D PUSH1 0xE3 SHL DUP2 MSTORE PUSH1 0x4 DUP2 ADD DUP6 SWAP1 MSTORE PUSH1 0x1 PUSH1 0x1 PUSH1 0xA0 SHL SUB SWAP1 SWAP2 AND SWAP1 PUSH4 0x42966C68 SWAP1 PUSH1 0x24 ADD PUSH1 0x0 PUSH1 0x40 MLOAD DUP1 DUP4 SUB DUP2 PUSH1 0x0 DUP8 DUP1 EXTCODESIZE ISZERO DUP1 ISZERO PUSH2 0x526 JUMPI PUSH1 0x0 DUP1 REVERT JUMPDEST POP GAS CALL ISZERO DUP1 ISZERO PUSH2 0x53A JUMPI RETURNDATASIZE PUSH1 0x0 DUP1 RETURNDATACOPY RETURNDATASIZE PUSH1 0x0 REVERT JUMPDEST POP POP POP POP POP POP POP JUMP JUMPDEST PUSH1 0x0 SLOAD PUSH1 0x40 MLOAD PUSH4 0x2E1A7D4D PUSH1 0xE0 SHL DUP2 MSTORE PUSH1 0x4 DUP2 ADD DUP4 SWAP1 MSTORE PUSH1 0x1 PUSH1 0x1 PUSH1 0xA0 SHL SUB SWAP1 SWAP2 AND SWAP1 PUSH4 0x2E1A7D4D SWAP1 PUSH1 0x24 ADD PUSH1 0x0 PUSH1 0x40 MLOAD DUP1 DUP4 SUB DUP2 PUSH1 0x0 DUP8 DUP1 EXTCODESIZE ISZERO DUP1 ISZERO PUSH2 0x589 JUMPI PUSH1 0x0 DUP1 REVERT JUMPDEST POP GAS CALL ISZERO DUP1 ISZERO PUSH2 0x59D JUMPI RETURNDATASIZE PUSH1 0x0 DUP1 RETURNDATACOPY RETURNDATASIZE PUSH1 0x0 REVERT JUMPDEST POP POP PUSH1 0x40 MLOAD DUP5 SWAP3 POP PUSH1 0x1 PUSH1 0x1 PUSH1 0xA0 SHL SUB DUP4 AND SWAP2 POP DUP4 ISZERO PUSH2 0x8FC MUL SWAP1 DUP5 SWAP1 PUSH1 0x0 DUP2 DUP2 DUP2 DUP6 DUP9 DUP9 CALL SWAP4 POP POP POP POP ISZERO DUP1 ISZERO PUSH2 0x5D9 JUMPI RETURNDATASIZE PUSH1 0x0 DUP1 RETURNDATACOPY RETURNDATASIZE PUSH1 0x0 REVERT JUMPDEST POP POP POP POP JUMP JUMPDEST PUSH1 0x0 DUP1 SLOAD PUSH1 0x40 MLOAD PUSH1 0x1 PUSH1 0x1 PUSH1 0xA0 SHL SUB SWAP1 SWAP2 AND SWAP2 DUP3 SWAP2 DUP5 ISZERO PUSH2 0x8FC MUL SWAP2 DUP6 SWAP2 SWAP1 DUP2 DUP2 DUP2 DUP6 DUP9 DUP9 CALL SWAP4 POP POP POP POP ISZERO DUP1 ISZERO PUSH2 0x61B JUMPI RETURNDATASIZE PUSH1 0x0 DUP1 RETURNDATACOPY RETURNDATASIZE PUSH1 0x0 REVERT JUMPDEST POP POP POP JUMP JUMPDEST PUSH1 0x1 SLOAD PUSH1 0x40 MLOAD PUSH4 0x140E25AD PUSH1 0xE3 SHL DUP2 MSTORE PUSH1 0x4 DUP2 ADD DUP4 SWAP1 MSTORE CALLER SWAP2 PUSH1 0x1 PUSH1 0x1 PUSH1 0xA0 SHL SUB AND SWAP1 PUSH4 0xA0712D68 SWAP1 PUSH1 0x24 ADD PUSH1 0x0 PUSH1 0x40 MLOAD DUP1 DUP4 SUB DUP2 PUSH1 0x0 DUP8 DUP1 EXTCODESIZE ISZERO DUP1 ISZERO PUSH2 0x666 JUMPI PUSH1 0x0 DUP1 REVERT JUMPDEST POP GAS CALL ISZERO DUP1 ISZERO PUSH2 0x67A JUMPI RETURNDATASIZE PUSH1 0x0 DUP1 RETURNDATACOPY RETURNDATASIZE PUSH1 0x0 REVERT JUMPDEST POP POP PUSH1 0x1 SLOAD PUSH1 0x40 MLOAD PUSH4 0xA9059CBB PUSH1 0xE0 SHL DUP2 MSTORE PUSH1 0x1 PUSH1 0x1 PUSH1 0xA0 SHL SUB DUP6 DUP2 AND PUSH1 0x4 DUP4 ADD MSTORE PUSH1 0x24 DUP3 ADD DUP8 SWAP1 MSTORE SWAP1 SWAP2 AND SWAP3 POP PUSH4 0xA9059CBB SWAP2 POP PUSH1 0x44 ADD PUSH1 0x20 PUSH1 0x40 MLOAD DUP1 DUP4 SUB DUP2 PUSH1 0x0 DUP8 GAS CALL ISZERO DUP1 ISZERO PUSH2 0x6D1 JUMPI RETURNDATASIZE PUSH1 0x0 DUP1 RETURNDATACOPY RETURNDATASIZE PUSH1 0x0 REVERT JUMPDEST POP POP POP POP PUSH1 0x40 MLOAD RETURNDATASIZE PUSH1 0x1F NOT PUSH1 0x1F DUP3 ADD AND DUP3 ADD DUP1 PUSH1 0x40 MSTORE POP DUP2 ADD SWAP1 PUSH2 0x61B SWAP2 SWAP1 PUSH2 0x844 JUMP JUMPDEST PUSH1 0x0 PUSH1 0x20 DUP3 DUP5 SUB SLT ISZERO PUSH2 0x707 JUMPI PUSH1 0x0 DUP1 REVERT JUMPDEST POP CALLDATALOAD SWAP2 SWAP1 POP JUMP JUMPDEST PUSH1 0x0 PUSH1 0x20 DUP3 DUP5 SUB SLT ISZERO PUSH2 0x720 JUMPI PUSH1 0x0 DUP1 REVERT JUMPDEST POP MLOAD SWAP2 SWAP1 POP JUMP JUMPDEST DUP1 MLOAD DUP1 ISZERO ISZERO DUP2 EQ PUSH2 0x737 JUMPI PUSH1 0x0 DUP1 REVERT JUMPDEST SWAP2 SWAP1 POP JUMP JUMPDEST PUSH1 0x0 PUSH1 0xA0 DUP3 DUP5 SUB SLT ISZERO PUSH2 0x74E JUMPI PUSH1 0x0 DUP1 REVERT JUMPDEST PUSH1 0x40 MLOAD PUSH1 0xA0 DUP2 ADD DUP2 DUP2 LT PUSH8 0xFFFFFFFFFFFFFFFF DUP3 GT OR ISZERO PUSH2 0x77F JUMPI PUSH4 0x4E487B71 PUSH1 0xE0 SHL PUSH1 0x0 MSTORE PUSH1 0x41 PUSH1 0x4 MSTORE PUSH1 0x24 PUSH1 0x0 REVERT JUMPDEST DUP1 PUSH1 0x40 MSTORE POP DUP3 MLOAD DUP2 MSTORE PUSH1 0x20 DUP4 ADD MLOAD PUSH1 0x20 DUP3 ADD MSTORE PUSH1 0x40 DUP4 ADD MLOAD PUSH1 0x40 DUP3 ADD MSTORE PUSH2 0x7A8 PUSH1 0x60 DUP5 ADD PUSH2 0x727 JUMP JUMPDEST PUSH1 0x60 DUP3 ADD MSTORE PUSH2 0x7B9 PUSH1 0x80 DUP5 ADD PUSH2 0x727 JUMP JUMPDEST PUSH1 0x80 DUP3 ADD MSTORE SWAP4 SWAP3 POP POP POP JUMP JUMPDEST DUP2 DUP2 SUB DUP2 DUP2 GT ISZERO PUSH2 0x7E6 JUMPI PUSH4 0x4E487B71 PUSH1 0xE0 SHL PUSH1 0x0 MSTORE PUSH1 0x11 PUSH1 0x4 MSTORE PUSH1 0x24 PUSH1 0x0 REVERT JUMPDEST SWAP3 SWAP2 POP POP JUMP JUMPDEST PUSH1 0x0 PUSH1 0x20 DUP3 DUP5 SUB SLT ISZERO PUSH2 0x7FE JUMPI PUSH1 0x0 DUP1 REVERT JUMPDEST PUSH1 0x40 MLOAD PUSH1 0x20 DUP2 ADD DUP2 DUP2 LT PUSH8 0xFFFFFFFFFFFFFFFF DUP3 GT OR ISZERO PUSH2 0x82F JUMPI PUSH4 0x4E487B71 PUSH1 0xE0 SHL PUSH1 0x0 MSTORE PUSH1 0x41 PUSH1 0x4 MSTORE PUSH1 0x24 PUSH1 0x0 REVERT JUMPDEST PUSH1 0x40 MSTORE PUSH2 0x83B DUP4 PUSH2 0x727 JUMP JUMPDEST DUP2 MSTORE SWAP4 SWAP3 POP POP POP JUMP JUMPDEST PUSH1 0x0 PUSH1 0x20 DUP3 DUP5 SUB SLT ISZERO PUSH2 0x856 JUMPI PUSH1 0x0 DUP1 REVERT JUMPDEST PUSH2 0x85F DUP3 PUSH2 0x727 JUMP JUMPDEST SWAP4 SWAP3 POP POP POP JUMP INVALID LOG2 PUSH5 0x6970667358 0x22 SLT KECCAK256 POP JUMP 0xF9 DUP7 PUSH18 0xFBB0111A5481E22563EAEAF9189BF068088E 0xD1 0x28 0x2A SLT 0xFC BALANCE 0xA7 0x24 CALL PUSH5 0x736F6C6343 STOP ADDMOD SLT STOP CALLER PUSH1 0x80 PUSH1 0x40 MSTORE CALLVALUE DUP1 ISZERO PUSH3 0x11 JUMPI PUSH1 0x0 DUP1 REVERT JUMPDEST POP PUSH1 0x40 MLOAD PUSH3 0xD41 CODESIZE SUB DUP1 PUSH3 0xD41 DUP4 CODECOPY DUP2 ADD PUSH1 0x40 DUP2 SWAP1 MSTORE PUSH3 0x34 SWAP2 PUSH3 0x350 JUMP JUMPDEST PUSH1 0x0 PUSH3 0x42 DUP6 DUP6 PUSH3 0x418 JUMP JUMPDEST SWAP1 POP PUSH3 0x93A80 PUSH3 0x530E80 DUP2 DUP6 LT ISZERO PUSH3 0x5A JUMPI PUSH1 0x0 DUP1 REVERT JUMPDEST DUP1 DUP4 LT ISZERO PUSH3 0x68 JUMPI PUSH1 0x0 DUP1 REVERT JUMPDEST PUSH1 0x40 DUP1 MLOAD PUSH1 0xA0 DUP2 ADD DUP3 MSTORE DUP9 DUP2 MSTORE PUSH1 0x20 DUP1 DUP3 ADD DUP10 DUP2 MSTORE SWAP3 DUP3 ADD DUP9 DUP2 MSTORE DUP8 ISZERO ISZERO PUSH1 0x60 DUP5 ADD SWAP1 DUP2 MSTORE PUSH1 0x0 PUSH1 0x80 DUP6 ADD DUP2 DUP2 MSTORE DUP2 DUP1 MSTORE PUSH1 0x7 SWAP1 SWAP5 MSTORE SWAP4 MLOAD PUSH32 0x6D5257204EBE7D88FD91AE87941CB2DD9D8062B64AE5A2BD2D28EC40B9FBF6DF SSTORE SWAP4 MLOAD PUSH32 0x6D5257204EBE7D88FD91AE87941CB2DD9D8062B64AE5A2BD2D28EC40B9FBF6E0 SSTORE MLOAD PUSH32 0x6D5257204EBE7D88FD91AE87941CB2DD9D8062B64AE5A2BD2D28EC40B9FBF6E1 SSTORE SWAP2 MLOAD PUSH1 0x0 DUP1 MLOAD PUSH1 0x20 PUSH3 0xD21 DUP4 CODECOPY DUP2 MLOAD SWAP2 MSTORE DUP1 SLOAD SWAP4 MLOAD ISZERO ISZERO PUSH2 0x100 MUL PUSH2 0xFF00 NOT SWAP3 ISZERO ISZERO SWAP3 SWAP1 SWAP3 AND PUSH2 0xFFFF NOT SWAP1 SWAP5 AND SWAP4 SWAP1 SWAP4 OR OR SWAP1 SWAP2 SSTORE DUP6 SWAP1 SUB PUSH3 0x16E JUMPI PUSH1 0x0 DUP1 MSTORE PUSH1 0x7 PUSH1 0x20 MSTORE PUSH1 0x0 DUP1 MLOAD PUSH1 0x20 PUSH3 0xD21 DUP4 CODECOPY DUP2 MLOAD SWAP2 MSTORE DUP1 SLOAD PUSH2 0xFF00 NOT AND PUSH2 0x100 OR SWAP1 SSTORE JUMPDEST PUSH1 0x1 PUSH1 0x1 PUSH1 0xA0 SHL SUB DUP12 AND PUSH3 0x182 JUMPI PUSH1 0x0 DUP1 REVERT JUMPDEST PUSH1 0x1 PUSH1 0x1 PUSH1 0xA0 SHL SUB DUP11 AND PUSH3 0x196 JUMPI PUSH1 0x0 DUP1 REVERT JUMPDEST PUSH1 0x0 DUP1 SLOAD PUSH2 0x100 PUSH1 0x1 PUSH1 0xA8 SHL SUB NOT AND PUSH2 0x100 PUSH1 0x1 PUSH1 0x1 PUSH1 0xA0 SHL SUB DUP15 DUP2 AND SWAP2 SWAP1 SWAP2 MUL SWAP2 SWAP1 SWAP2 OR SWAP1 SWAP2 SSTORE PUSH1 0x1 DUP1 SLOAD PUSH1 0x1 PUSH1 0x1 PUSH1 0xA0 SHL SUB NOT AND SWAP2 DUP13 AND SWAP2 SWAP1 SWAP2 OR SWAP1 SSTORE PUSH1 0x3 PUSH3 0x1E3 DUP11 DUP3 PUSH3 0x4CF JUMP JUMPDEST POP PUSH1 0x4 PUSH3 0x1F2 DUP10 DUP3 PUSH3 0x4CF JUMP JUMPDEST POP TIMESTAMP PUSH1 0x5 DUP2 SWAP1 SSTORE POP DUP10 PUSH1 0x1 PUSH1 0x1 PUSH1 0xA0 SHL SUB AND DUP12 PUSH1 0x1 PUSH1 0x1 PUSH1 0xA0 SHL SUB AND PUSH32 0xA9791D0B29CAE9F1171EEB4160F282930CA6A1EE4F5D2760FDB5BEE857B6057E DUP12 DUP12 PUSH1 0x5 SLOAD DUP13 DUP13 DUP13 DUP13 PUSH1 0x40 MLOAD PUSH3 0x24D SWAP8 SWAP7 SWAP6 SWAP5 SWAP4 SWAP3 SWAP2 SWAP1 PUSH3 0x5C9 JUMP JUMPDEST PUSH1 0x40 MLOAD DUP1 SWAP2 SUB SWAP1 LOG3 POP POP POP POP POP POP POP POP POP POP POP PUSH3 0x61F JUMP JUMPDEST DUP1 MLOAD PUSH1 0x1 PUSH1 0x1 PUSH1 0xA0 SHL SUB DUP2 AND DUP2 EQ PUSH3 0x27E JUMPI PUSH1 0x0 DUP1 REVERT JUMPDEST SWAP2 SWAP1 POP JUMP JUMPDEST PUSH4 0x4E487B71 PUSH1 0xE0 SHL PUSH1 0x0 MSTORE PUSH1 0x41 PUSH1 0x4 MSTORE PUSH1 0x24 PUSH1 0x0 REVERT JUMPDEST PUSH1 0x0 JUMPDEST DUP4 DUP2 LT ISZERO PUSH3 0x2B6 JUMPI DUP2 DUP2 ADD MLOAD DUP4 DUP3 ADD MSTORE PUSH1 0x20 ADD PUSH3 0x29C JUMP JUMPDEST POP POP PUSH1 0x0 SWAP2 ADD MSTORE JUMP JUMPDEST PUSH1 0x0 DUP3 PUSH1 0x1F DUP4 ADD SLT PUSH3 0x2D1 JUMPI PUSH1 0x0 DUP1 REVERT JUMPDEST DUP2 MLOAD PUSH1 0x1 PUSH1 0x1 PUSH1 0x40 SHL SUB DUP1 DUP3 GT ISZERO PUSH3 0x2EE JUMPI PUSH3 0x2EE PUSH3 0x283 JUMP JUMPDEST PUSH1 0x40 MLOAD PUSH1 0x1F DUP4 ADD PUSH1 0x1F NOT SWAP1 DUP2 AND PUSH1 0x3F ADD AND DUP2 ADD SWAP1 DUP3 DUP3 GT DUP2 DUP4 LT OR ISZERO PUSH3 0x319 JUMPI PUSH3 0x319 PUSH3 0x283 JUMP JUMPDEST DUP2 PUSH1 0x40 MSTORE DUP4 DUP2 MSTORE DUP7 PUSH1 0x20 DUP6 DUP9 ADD ADD GT ISZERO PUSH3 0x333 JUMPI PUSH1 0x0 DUP1 REVERT JUMPDEST PUSH3 0x346 DUP5 PUSH1 0x20 DUP4 ADD PUSH1 0x20 DUP10 ADD PUSH3 0x299 JUMP JUMPDEST SWAP7 SWAP6 POP POP POP POP POP POP JUMP JUMPDEST PUSH1 0x0 DUP1 PUSH1 0x0 DUP1 PUSH1 0x0 DUP1 PUSH1 0x0 DUP1 PUSH2 0x100 DUP10 DUP12 SUB SLT ISZERO PUSH3 0x36E JUMPI PUSH1 0x0 DUP1 REVERT JUMPDEST PUSH3 0x379 DUP10 PUSH3 0x266 JUMP JUMPDEST SWAP8 POP PUSH3 0x389 PUSH1 0x20 DUP11 ADD PUSH3 0x266 JUMP JUMPDEST PUSH1 0x40 DUP11 ADD MLOAD SWAP1 SWAP8 POP PUSH1 0x1 PUSH1 0x1 PUSH1 0x40 SHL SUB DUP1 DUP3 GT ISZERO PUSH3 0x3A7 JUMPI PUSH1 0x0 DUP1 REVERT JUMPDEST PUSH3 0x3B5 DUP13 DUP4 DUP14 ADD PUSH3 0x2BF JUMP JUMPDEST SWAP8 POP PUSH1 0x60 DUP12 ADD MLOAD SWAP2 POP DUP1 DUP3 GT ISZERO PUSH3 0x3CC JUMPI PUSH1 0x0 DUP1 REVERT JUMPDEST POP PUSH3 0x3DB DUP12 DUP3 DUP13 ADD PUSH3 0x2BF JUMP JUMPDEST SWAP6 POP POP PUSH1 0x80 DUP10 ADD MLOAD SWAP4 POP PUSH1 0xA0 DUP10 ADD MLOAD SWAP3 POP PUSH1 0xC0 DUP10 ADD MLOAD SWAP2 POP PUSH1 0xE0 DUP10 ADD MLOAD DUP1 ISZERO ISZERO DUP2 EQ PUSH3 0x407 JUMPI PUSH1 0x0 DUP1 REVERT JUMPDEST DUP1 SWAP2 POP POP SWAP3 SWAP6 SWAP9 POP SWAP3 SWAP6 SWAP9 SWAP1 SWAP4 SWAP7 POP JUMP JUMPDEST DUP2 DUP2 SUB DUP2 DUP2 GT ISZERO PUSH3 0x43A JUMPI PUSH4 0x4E487B71 PUSH1 0xE0 SHL PUSH1 0x0 MSTORE PUSH1 0x11 PUSH1 0x4 MSTORE PUSH1 0x24 PUSH1 0x0 REVERT JUMPDEST SWAP3 SWAP2 POP POP JUMP JUMPDEST PUSH1 0x1 DUP2 DUP2 SHR SWAP1 DUP3 AND DUP1 PUSH3 0x455 JUMPI PUSH1 0x7F DUP3 AND SWAP2 POP JUMPDEST PUSH1 0x20 DUP3 LT DUP2 SUB PUSH3 0x476 JUMPI PUSH4 0x4E487B71 PUSH1 0xE0 SHL PUSH1 0x0 MSTORE PUSH1 0x22 PUSH1 0x4 MSTORE PUSH1 0x24 PUSH1 0x0 REVERT JUMPDEST POP SWAP2 SWAP1 POP JUMP JUMPDEST PUSH1 0x1F DUP3 GT ISZERO PUSH3 0x4CA JUMPI PUSH1 0x0 DUP2 DUP2 MSTORE PUSH1 0x20 DUP2 KECCAK256 PUSH1 0x1F DUP6 ADD PUSH1 0x5 SHR DUP2 ADD PUSH1 0x20 DUP7 LT ISZERO PUSH3 0x4A5 JUMPI POP DUP1 JUMPDEST PUSH1 0x1F DUP6 ADD PUSH1 0x5 SHR DUP3 ADD SWAP2 POP JUMPDEST DUP2 DUP2 LT ISZERO PUSH3 0x4C6 JUMPI DUP3 DUP2 SSTORE PUSH1 0x1 ADD PUSH3 0x4B1 JUMP JUMPDEST POP POP POP JUMPDEST POP POP POP JUMP JUMPDEST DUP2 MLOAD PUSH1 0x1 PUSH1 0x1 PUSH1 0x40 SHL SUB DUP2 GT ISZERO PUSH3 0x4EB JUMPI PUSH3 0x4EB PUSH3 0x283 JUMP JUMPDEST PUSH3 0x503 DUP2 PUSH3 0x4FC DUP5 SLOAD PUSH3 0x440 JUMP JUMPDEST DUP5 PUSH3 0x47C JUMP JUMPDEST PUSH1 0x20 DUP1 PUSH1 0x1F DUP4 GT PUSH1 0x1 DUP2 EQ PUSH3 0x53B JUMPI PUSH1 0x0 DUP5 ISZERO PUSH3 0x522 JUMPI POP DUP6 DUP4 ADD MLOAD JUMPDEST PUSH1 0x0 NOT PUSH1 0x3 DUP7 SWAP1 SHL SHR NOT AND PUSH1 0x1 DUP6 SWAP1 SHL OR DUP6 SSTORE PUSH3 0x4C6 JUMP JUMPDEST PUSH1 0x0 DUP6 DUP2 MSTORE PUSH1 0x20 DUP2 KECCAK256 PUSH1 0x1F NOT DUP7 AND SWAP2 JUMPDEST DUP3 DUP2 LT ISZERO PUSH3 0x56C JUMPI DUP9 DUP7 ADD MLOAD DUP3 SSTORE SWAP5 DUP5 ADD SWAP5 PUSH1 0x1 SWAP1 SWAP2 ADD SWAP1 DUP5 ADD PUSH3 0x54B JUMP JUMPDEST POP DUP6 DUP3 LT ISZERO PUSH3 0x58B JUMPI DUP8 DUP6 ADD MLOAD PUSH1 0x0 NOT PUSH1 0x3 DUP9 SWAP1 SHL PUSH1 0xF8 AND SHR NOT AND DUP2 SSTORE JUMPDEST POP POP POP POP POP PUSH1 0x1 SWAP1 DUP2 SHL ADD SWAP1 SSTORE POP JUMP JUMPDEST PUSH1 0x0 DUP2 MLOAD DUP1 DUP5 MSTORE PUSH3 0x5B5 DUP2 PUSH1 0x20 DUP7 ADD PUSH1 0x20 DUP7 ADD PUSH3 0x299 JUMP JUMPDEST PUSH1 0x1F ADD PUSH1 0x1F NOT AND SWAP3 SWAP1 SWAP3 ADD PUSH1 0x20 ADD SWAP3 SWAP2 POP POP JUMP JUMPDEST PUSH1 0xE0 DUP2 MSTORE PUSH1 0x0 PUSH3 0x5DE PUSH1 0xE0 DUP4 ADD DUP11 PUSH3 0x59B JUMP JUMPDEST DUP3 DUP2 SUB PUSH1 0x20 DUP5 ADD MSTORE PUSH3 0x5F2 DUP2 DUP11 PUSH3 0x59B JUMP JUMPDEST PUSH1 0x40 DUP5 ADD SWAP9 SWAP1 SWAP9 MSTORE POP POP PUSH1 0x60 DUP2 ADD SWAP5 SWAP1 SWAP5 MSTORE PUSH1 0x80 DUP5 ADD SWAP3 SWAP1 SWAP3 MSTORE PUSH1 0xA0 DUP4 ADD MSTORE ISZERO ISZERO PUSH1 0xC0 SWAP1 SWAP2 ADD MSTORE SWAP3 SWAP2 POP POP JUMP JUMPDEST PUSH2 0x6F2 DUP1 PUSH3 0x62F PUSH1 0x0 CODECOPY PUSH1 0x0 RETURN INVALID PUSH1 0x80 PUSH1 0x40 MSTORE PUSH1 0x4 CALLDATASIZE LT PUSH2 0x59 JUMPI PUSH1 0x0 CALLDATALOAD PUSH1 0xE0 SHR DUP1 PUSH4 0x923FE94 EQ PUSH2 0xC0 JUMPI DUP1 PUSH4 0x24A5AF31 EQ PUSH2 0x12A JUMPI DUP1 PUSH4 0x2E1A7D4D EQ PUSH2 0x14C JUMPI DUP1 PUSH4 0x90B410AF EQ PUSH2 0x16C JUMPI DUP1 PUSH4 0xB9761101 EQ PUSH2 0x19C JUMPI DUP1 PUSH4 0xDD12776A EQ PUSH2 0x202 JUMPI PUSH1 0x0 DUP1 REVERT JUMPDEST CALLDATASIZE PUSH2 0xBB JUMPI PUSH1 0x0 SLOAD PUSH2 0x100 SWAP1 DIV PUSH1 0x1 PUSH1 0x1 PUSH1 0xA0 SHL SUB AND CALLER EQ PUSH2 0x7A JUMPI PUSH1 0x0 DUP1 REVERT JUMPDEST PUSH1 0x40 DUP1 MLOAD CALLER DUP1 DUP3 MSTORE CALLVALUE PUSH1 0x20 DUP4 ADD DUP2 SWAP1 MSTORE SWAP1 SWAP3 SWAP1 SWAP2 PUSH32 0xE1FFFCC4923D04B559F4D29A8BFC6CDA04EB5B0D3C460751C2402C5C5CC9109C SWAP2 ADD PUSH1 0x40 MLOAD DUP1 SWAP2 SUB SWAP1 LOG1 STOP JUMPDEST PUSH1 0x0 DUP1 REVERT JUMPDEST CALLVALUE DUP1 ISZERO PUSH2 0xCC JUMPI PUSH1 0x0 DUP1 REVERT JUMPDEST POP PUSH2 0x114 PUSH2 0xDB CALLDATASIZE PUSH1 0x4 PUSH2 0x4FB JUMP JUMPDEST PUSH1 0x40 DUP1 MLOAD PUSH1 0x20 DUP1 DUP3 ADD DUP4 MSTORE PUSH1 0x0 SWAP2 DUP3 SWAP1 MSTORE PUSH1 0x1 PUSH1 0x1 PUSH1 0xA0 SHL SUB SWAP4 SWAP1 SWAP4 AND DUP2 MSTORE PUSH1 0x6 DUP4 MSTORE DUP2 SWAP1 KECCAK256 DUP2 MLOAD SWAP3 DUP4 ADD SWAP1 SWAP2 MSTORE SLOAD PUSH1 0xFF AND ISZERO ISZERO DUP2 MSTORE SWAP1 JUMP JUMPDEST PUSH1 0x40 MLOAD SWAP1 MLOAD ISZERO ISZERO DUP2 MSTORE PUSH1 0x20 ADD JUMPDEST PUSH1 0x40 MLOAD DUP1 SWAP2 SUB SWAP1 RETURN JUMPDEST CALLVALUE DUP1 ISZERO PUSH2 0x136 JUMPI PUSH1 0x0 DUP1 REVERT JUMPDEST POP PUSH2 0x14A PUSH2 0x145 CALLDATASIZE PUSH1 0x4 PUSH2 0x51D JUMP JUMPDEST PUSH2 0x222 JUMP JUMPDEST STOP JUMPDEST CALLVALUE DUP1 ISZERO PUSH2 0x158 JUMPI PUSH1 0x0 DUP1 REVERT JUMPDEST POP PUSH2 0x14A PUSH2 0x167 CALLDATASIZE PUSH1 0x4 PUSH2 0x547 JUMP JUMPDEST PUSH2 0x2C6 JUMP JUMPDEST CALLVALUE DUP1 ISZERO PUSH2 0x178 JUMPI PUSH1 0x0 DUP1 REVERT JUMPDEST POP PUSH2 0x18C PUSH2 0x187 CALLDATASIZE PUSH1 0x4 PUSH2 0x571 JUMP JUMPDEST PUSH2 0x369 JUMP JUMPDEST PUSH1 0x40 MLOAD SWAP1 ISZERO ISZERO DUP2 MSTORE PUSH1 0x20 ADD PUSH2 0x121 JUMP JUMPDEST CALLVALUE DUP1 ISZERO PUSH2 0x1A8 JUMPI PUSH1 0x0 DUP1 REVERT JUMPDEST POP PUSH2 0x1BC PUSH2 0x1B7 CALLDATASIZE PUSH1 0x4 PUSH2 0x547 JUMP JUMPDEST PUSH2 0x3B4 JUMP JUMPDEST PUSH1 0x40 MLOAD PUSH2 0x121 SWAP2 SWAP1 PUSH1 0x0 PUSH1 0xA0 DUP3 ADD SWAP1 POP DUP3 MLOAD DUP3 MSTORE PUSH1 0x20 DUP4 ADD MLOAD PUSH1 0x20 DUP4 ADD MSTORE PUSH1 0x40 DUP4 ADD MLOAD PUSH1 0x40 DUP4 ADD MSTORE PUSH1 0x60 DUP4 ADD MLOAD ISZERO ISZERO PUSH1 0x60 DUP4 ADD MSTORE PUSH1 0x80 DUP4 ADD MLOAD ISZERO ISZERO PUSH1 0x80 DUP4 ADD MSTORE SWAP3 SWAP2 POP POP JUMP JUMPDEST CALLVALUE DUP1 ISZERO PUSH2 0x20E JUMPI PUSH1 0x0 DUP1 REVERT JUMPDEST POP PUSH2 0x18C PUSH2 0x21D CALLDATASIZE PUSH1 0x4 PUSH2 0x5F2 JUMP JUMPDEST PUSH2 0x444 JUMP JUMPDEST PUSH1 0x0 SLOAD PUSH2 0x100 SWAP1 DIV PUSH1 0x1 PUSH1 0x1 PUSH1 0xA0 SHL SUB AND CALLER EQ PUSH2 0x23E JUMPI PUSH1 0x0 DUP1 REVERT JUMPDEST PUSH1 0x0 SLOAD PUSH1 0x40 MLOAD PUSH4 0xA9059CBB PUSH1 0xE0 SHL DUP2 MSTORE PUSH2 0x100 SWAP1 SWAP2 DIV PUSH1 0x1 PUSH1 0x1 PUSH1 0xA0 SHL SUB SWAP1 DUP2 AND PUSH1 0x4 DUP4 ADD DUP2 SWAP1 MSTORE PUSH1 0x24 DUP4 ADD DUP5 SWAP1 MSTORE SWAP2 DUP5 SWAP2 DUP3 AND SWAP1 PUSH4 0xA9059CBB SWAP1 PUSH1 0x44 ADD PUSH1 0x20 PUSH1 0x40 MLOAD DUP1 DUP4 SUB DUP2 PUSH1 0x0 DUP8 GAS CALL ISZERO DUP1 ISZERO PUSH2 0x29B JUMPI RETURNDATASIZE PUSH1 0x0 DUP1 RETURNDATACOPY RETURNDATASIZE PUSH1 0x0 REVERT JUMPDEST POP POP POP POP PUSH1 0x40 MLOAD RETURNDATASIZE PUSH1 0x1F NOT PUSH1 0x1F DUP3 ADD AND DUP3 ADD DUP1 PUSH1 0x40 MSTORE POP DUP2 ADD SWAP1 PUSH2 0x2BF SWAP2 SWAP1 PUSH2 0x69F JUMP JUMPDEST POP POP POP POP POP JUMP JUMPDEST PUSH1 0x0 SLOAD PUSH2 0x100 SWAP1 DIV PUSH1 0x1 PUSH1 0x1 PUSH1 0xA0 SHL SUB AND CALLER EQ PUSH2 0x2E2 JUMPI PUSH1 0x0 DUP1 REVERT JUMPDEST PUSH1 0x0 DUP1 SLOAD PUSH1 0x40 MLOAD PUSH2 0x100 SWAP1 SWAP2 DIV PUSH1 0x1 PUSH1 0x1 PUSH1 0xA0 SHL SUB AND SWAP2 DUP3 SWAP2 PUSH2 0x8FC DUP6 ISZERO MUL SWAP2 DUP6 SWAP2 SWAP1 DUP2 DUP2 DUP2 DUP6 DUP9 DUP9 CALL SWAP4 POP POP POP POP ISZERO DUP1 ISZERO PUSH2 0x322 JUMPI RETURNDATASIZE PUSH1 0x0 DUP1 RETURNDATACOPY RETURNDATASIZE PUSH1 0x0 REVERT JUMPDEST POP PUSH1 0x40 DUP1 MLOAD PUSH1 0x1 PUSH1 0x1 PUSH1 0xA0 SHL SUB DUP4 AND DUP2 MSTORE PUSH1 0x20 DUP2 ADD DUP5 SWAP1 MSTORE PUSH32 0x884EDAD9CE6FA2440D8A54CC123490EB96D2768479D49FF9C7366125A9424364 SWAP2 ADD PUSH1 0x40 MLOAD DUP1 SWAP2 SUB SWAP1 LOG1 POP POP JUMP JUMPDEST PUSH1 0x0 DUP1 SLOAD PUSH2 0x100 SWAP1 DIV PUSH1 0x1 PUSH1 0x1 PUSH1 0xA0 SHL SUB AND CALLER EQ PUSH2 0x386 JUMPI PUSH1 0x0 DUP1 REVERT JUMPDEST POP PUSH1 0x1 PUSH1 0x1 PUSH1 0xA0 SHL SUB SWAP2 SWAP1 SWAP2 AND PUSH1 0x0 SWAP1 DUP2 MSTORE PUSH1 0x6 PUSH1 0x20 MSTORE PUSH1 0x40 SWAP1 KECCAK256 SWAP1 MLOAD DUP2 SLOAD PUSH1 0xFF NOT AND SWAP1 ISZERO ISZERO OR SWAP1 SSTORE PUSH1 0x1 SWAP1 JUMP JUMPDEST PUSH2 0x3EA PUSH1 0x40 MLOAD DUP1 PUSH1 0xA0 ADD PUSH1 0x40 MSTORE DUP1 PUSH1 0x0 DUP2 MSTORE PUSH1 0x20 ADD PUSH1 0x0 DUP2 MSTORE PUSH1 0x20 ADD PUSH1 0x0 DUP2 MSTORE PUSH1 0x20 ADD PUSH1 0x0 ISZERO ISZERO DUP2 MSTORE PUSH1 0x20 ADD PUSH1 0x0 ISZERO ISZERO DUP2 MSTORE POP SWAP1 JUMP JUMPDEST POP PUSH1 0x0 SWAP1 DUP2 MSTORE PUSH1 0x7 PUSH1 0x20 SWAP1 DUP2 MSTORE PUSH1 0x40 SWAP2 DUP3 SWAP1 KECCAK256 DUP3 MLOAD PUSH1 0xA0 DUP2 ADD DUP5 MSTORE DUP2 SLOAD DUP2 MSTORE PUSH1 0x1 DUP3 ADD SLOAD SWAP3 DUP2 ADD SWAP3 SWAP1 SWAP3 MSTORE PUSH1 0x2 DUP2 ADD SLOAD SWAP3 DUP3 ADD SWAP3 SWAP1 SWAP3 MSTORE PUSH1 0x3 SWAP1 SWAP2 ADD SLOAD PUSH1 0xFF DUP1 DUP3 AND ISZERO ISZERO PUSH1 0x60 DUP5 ADD MSTORE PUSH2 0x100 SWAP1 SWAP2 DIV AND ISZERO ISZERO PUSH1 0x80 DUP3 ADD MSTORE SWAP1 JUMP JUMPDEST PUSH1 0x0 DUP1 SLOAD PUSH2 0x100 SWAP1 DIV PUSH1 0x1 PUSH1 0x1 PUSH1 0xA0 SHL SUB AND CALLER EQ PUSH2 0x461 JUMPI PUSH1 0x0 DUP1 REVERT JUMPDEST PUSH1 0x0 DUP4 DUP2 MSTORE PUSH1 0x7 PUSH1 0x20 MSTORE PUSH1 0x40 SWAP1 KECCAK256 SLOAD TIMESTAMP GT ISZERO PUSH2 0x47C JUMPI PUSH1 0x0 DUP1 REVERT JUMPDEST POP PUSH1 0x0 DUP3 DUP2 MSTORE PUSH1 0x7 PUSH1 0x20 SWAP1 DUP2 MSTORE PUSH1 0x40 SWAP2 DUP3 SWAP1 KECCAK256 DUP4 MLOAD DUP2 SSTORE SWAP1 DUP4 ADD MLOAD PUSH1 0x1 DUP1 DUP4 ADD SWAP2 SWAP1 SWAP2 SSTORE SWAP2 DUP4 ADD MLOAD PUSH1 0x2 DUP3 ADD SSTORE PUSH1 0x60 DUP4 ADD MLOAD PUSH1 0x3 SWAP1 SWAP2 ADD DUP1 SLOAD PUSH1 0x80 DUP6 ADD MLOAD ISZERO ISZERO PUSH2 0x100 MUL PUSH2 0xFF00 NOT SWAP4 ISZERO ISZERO SWAP4 SWAP1 SWAP4 AND PUSH2 0xFFFF NOT SWAP1 SWAP2 AND OR SWAP2 SWAP1 SWAP2 OR SWAP1 SSTORE SWAP3 SWAP2 POP POP JUMP JUMPDEST DUP1 CALLDATALOAD PUSH1 0x1 PUSH1 0x1 PUSH1 0xA0 SHL SUB DUP2 AND DUP2 EQ PUSH2 0x4F6 JUMPI PUSH1 0x0 DUP1 REVERT JUMPDEST SWAP2 SWAP1 POP JUMP JUMPDEST PUSH1 0x0 PUSH1 0x20 DUP3 DUP5 SUB SLT ISZERO PUSH2 0x50D JUMPI PUSH1 0x0 DUP1 REVERT JUMPDEST PUSH2 0x516 DUP3 PUSH2 0x4DF JUMP JUMPDEST SWAP4 SWAP3 POP POP POP JUMP JUMPDEST PUSH1 0x0 DUP1 PUSH1 0x40 DUP4 DUP6 SUB SLT ISZERO PUSH2 0x530 JUMPI PUSH1 0x0 DUP1 REVERT JUMPDEST PUSH2 0x539 DUP4 PUSH2 0x4DF JUMP JUMPDEST SWAP5 PUSH1 0x20 SWAP4 SWAP1 SWAP4 ADD CALLDATALOAD SWAP4 POP POP POP JUMP JUMPDEST PUSH1 0x0 PUSH1 0x20 DUP3 DUP5 SUB SLT ISZERO PUSH2 0x559 JUMPI PUSH1 0x0 DUP1 REVERT JUMPDEST POP CALLDATALOAD SWAP2 SWAP1 POP JUMP JUMPDEST DUP1 ISZERO ISZERO DUP2 EQ PUSH2 0x56E JUMPI PUSH1 0x0 DUP1 REVERT JUMPDEST POP JUMP JUMPDEST PUSH1 0x0 DUP1 DUP3 DUP5 SUB PUSH1 0x40 DUP2 SLT ISZERO PUSH2 0x585 JUMPI PUSH1 0x0 DUP1 REVERT JUMPDEST PUSH2 0x58E DUP5 PUSH2 0x4DF JUMP JUMPDEST SWAP3 POP PUSH1 0x20 PUSH1 0x1F NOT DUP3 ADD SLT ISZERO PUSH2 0x5A2 JUMPI PUSH1 0x0 DUP1 REVERT JUMPDEST POP PUSH1 0x40 MLOAD PUSH1 0x20 DUP2 ADD DUP2 DUP2 LT PUSH8 0xFFFFFFFFFFFFFFFF DUP3 GT OR ISZERO PUSH2 0x5D4 JUMPI PUSH4 0x4E487B71 PUSH1 0xE0 SHL PUSH1 0x0 MSTORE PUSH1 0x41 PUSH1 0x4 MSTORE PUSH1 0x24 PUSH1 0x0 REVERT JUMPDEST PUSH1 0x40 MSTORE PUSH1 0x20 DUP5 ADD CALLDATALOAD PUSH2 0x5E5 DUP2 PUSH2 0x560 JUMP JUMPDEST DUP2 MSTORE SWAP2 SWAP5 SWAP2 SWAP4 POP SWAP1 SWAP2 POP POP JUMP JUMPDEST PUSH1 0x0 DUP1 DUP3 DUP5 SUB PUSH1 0xC0 DUP2 SLT ISZERO PUSH2 0x606 JUMPI PUSH1 0x0 DUP1 REVERT JUMPDEST DUP4 CALLDATALOAD SWAP3 POP PUSH1 0xA0 PUSH1 0x1F NOT DUP3 ADD SLT ISZERO PUSH2 0x61C JUMPI PUSH1 0x0 DUP1 REVERT JUMPDEST POP PUSH1 0x40 MLOAD PUSH1 0xA0 DUP2 ADD DUP2 DUP2 LT PUSH8 0xFFFFFFFFFFFFFFFF DUP3 GT OR ISZERO PUSH2 0x64E JUMPI PUSH4 0x4E487B71 PUSH1 0xE0 SHL PUSH1 0x0 MSTORE PUSH1 0x41 PUSH1 0x4 MSTORE PUSH1 0x24 PUSH1 0x0 REVERT JUMPDEST DUP1 PUSH1 0x40 MSTORE POP PUSH1 0x20 DUP5 ADD CALLDATALOAD DUP2 MSTORE PUSH1 0x40 DUP5 ADD CALLDATALOAD PUSH1 0x20 DUP3 ADD MSTORE PUSH1 0x60 DUP5 ADD CALLDATALOAD PUSH1 0x40 DUP3 ADD MSTORE PUSH1 0x80 DUP5 ADD CALLDATALOAD PUSH2 0x67C DUP2 PUSH2 0x560 JUMP JUMPDEST PUSH1 0x60 DUP3 ADD MSTORE PUSH1 0xA0 DUP5 ADD CALLDATALOAD PUSH2 0x68F DUP2 PUSH2 0x560 JUMP JUMPDEST PUSH1 0x80 DUP3 ADD MSTORE SWAP2 SWAP5 SWAP2 SWAP4 POP SWAP1 SWAP2 POP POP JUMP JUMPDEST PUSH1 0x0 PUSH1 0x20 DUP3 DUP5 SUB SLT ISZERO PUSH2 0x6B1 JUMPI PUSH1 0x0 DUP1 REVERT JUMPDEST DUP2 MLOAD PUSH2 0x516 DUP2 PUSH2 0x560 JUMP INVALID LOG2 PUSH5 0x6970667358 0x22 SLT KECCAK256 AND SUB 0xD0 0xDC DUP10 CALL 0xBD DUP5 SWAP15 CALLER PUSH20 0x3D0727E4B4C00DBD2776E4F310E7E5C7154FC420 0xE0 PUSH5 0x736F6C6343 STOP ADDMOD SLT STOP CALLER PUSH14 0x5257204EBE7D88FD91AE87941CB2 0xDD SWAP14 DUP1 PUSH3 0xB64AE5 LOG2 0xBD 0x2D 0x28 0xEC BLOCKHASH 0xB9 0xFB 0xF6 0xE2 PUSH1 0x80 PUSH1 0x40 MSTORE CALLVALUE DUP1 ISZERO PUSH3 0x11 JUMPI PUSH1 0x0 DUP1 REVERT JUMPDEST POP PUSH1 0x40 MLOAD PUSH3 0xB6A CODESIZE SUB DUP1 PUSH3 0xB6A DUP4 CODECOPY DUP2 ADD PUSH1 0x40 DUP2 SWAP1 MSTORE PUSH3 0x34 SWAP2 PUSH3 0x146 JUMP JUMPDEST PUSH1 0x12 DUP2 PUSH1 0xFF AND GT ISZERO PUSH3 0x46 JUMPI PUSH1 0x0 DUP1 REVERT JUMPDEST PUSH1 0x0 PUSH3 0x54 DUP5 DUP3 PUSH3 0x25A JUMP JUMPDEST POP PUSH1 0x1 PUSH3 0x63 DUP4 DUP3 PUSH3 0x25A JUMP JUMPDEST POP PUSH1 0x2 DUP1 SLOAD PUSH1 0xFF NOT AND PUSH1 0xFF SWAP3 SWAP1 SWAP3 AND SWAP2 SWAP1 SWAP2 OR SWAP1 SSTORE POP PUSH3 0x326 SWAP1 POP JUMP JUMPDEST PUSH4 0x4E487B71 PUSH1 0xE0 SHL PUSH1 0x0 MSTORE PUSH1 0x41 PUSH1 0x4 MSTORE PUSH1 0x24 PUSH1 0x0 REVERT JUMPDEST PUSH1 0x0 DUP3 PUSH1 0x1F DUP4 ADD SLT PUSH3 0xA9 JUMPI PUSH1 0x0 DUP1 REVERT JUMPDEST DUP2 MLOAD PUSH1 0x1 PUSH1 0x1 PUSH1 0x40 SHL SUB DUP1 DUP3 GT ISZERO PUSH3 0xC6 JUMPI PUSH3 0xC6 PUSH3 0x81 JUMP JUMPDEST PUSH1 0x40 MLOAD PUSH1 0x1F DUP4 ADD PUSH1 0x1F NOT SWAP1 DUP2 AND PUSH1 0x3F ADD AND DUP2 ADD SWAP1 DUP3 DUP3 GT DUP2 DUP4 LT OR ISZERO PUSH3 0xF1 JUMPI PUSH3 0xF1 PUSH3 0x81 JUMP JUMPDEST DUP2 PUSH1 0x40 MSTORE DUP4 DUP2 MSTORE PUSH1 0x20 SWAP3 POP DUP7 DUP4 DUP6 DUP9 ADD ADD GT ISZERO PUSH3 0x10E JUMPI PUSH1 0x0 DUP1 REVERT JUMPDEST PUSH1 0x0 SWAP2 POP JUMPDEST DUP4 DUP3 LT ISZERO PUSH3 0x132 JUMPI DUP6 DUP3 ADD DUP4 ADD MLOAD DUP2 DUP4 ADD DUP5 ADD MSTORE SWAP1 DUP3 ADD SWAP1 PUSH3 0x113 JUMP JUMPDEST PUSH1 0x0 SWAP4 DUP2 ADD SWAP1 SWAP3 ADD SWAP3 SWAP1 SWAP3 MSTORE SWAP5 SWAP4 POP POP POP POP JUMP JUMPDEST PUSH1 0x0 DUP1 PUSH1 0x0 PUSH1 0x60 DUP5 DUP7 SUB SLT ISZERO PUSH3 0x15C JUMPI PUSH1 0x0 DUP1 REVERT JUMPDEST DUP4 MLOAD PUSH1 0x1 PUSH1 0x1 PUSH1 0x40 SHL SUB DUP1 DUP3 GT ISZERO PUSH3 0x174 JUMPI PUSH1 0x0 DUP1 REVERT JUMPDEST PUSH3 0x182 DUP8 DUP4 DUP9 ADD PUSH3 0x97 JUMP JUMPDEST SWAP5 POP PUSH1 0x20 DUP7 ADD MLOAD SWAP2 POP DUP1 DUP3 GT ISZERO PUSH3 0x199 JUMPI PUSH1 0x0 DUP1 REVERT JUMPDEST POP PUSH3 0x1A8 DUP7 DUP3 DUP8 ADD PUSH3 0x97 JUMP JUMPDEST SWAP3 POP POP PUSH1 0x40 DUP5 ADD MLOAD PUSH1 0xFF DUP2 AND DUP2 EQ PUSH3 0x1C0 JUMPI PUSH1 0x0 DUP1 REVERT JUMPDEST DUP1 SWAP2 POP POP SWAP3 POP SWAP3 POP SWAP3 JUMP JUMPDEST PUSH1 0x1 DUP2 DUP2 SHR SWAP1 DUP3 AND DUP1 PUSH3 0x1E0 JUMPI PUSH1 0x7F DUP3 AND SWAP2 POP JUMPDEST PUSH1 0x20 DUP3 LT DUP2 SUB PUSH3 0x201 JUMPI PUSH4 0x4E487B71 PUSH1 0xE0 SHL PUSH1 0x0 MSTORE PUSH1 0x22 PUSH1 0x4 MSTORE PUSH1 0x24 PUSH1 0x0 REVERT JUMPDEST POP SWAP2 SWAP1 POP JUMP JUMPDEST PUSH1 0x1F DUP3 GT ISZERO PUSH3 0x255 JUMPI PUSH1 0x0 DUP2 DUP2 MSTORE PUSH1 0x20 DUP2 KECCAK256 PUSH1 0x1F DUP6 ADD PUSH1 0x5 SHR DUP2 ADD PUSH1 0x20 DUP7 LT ISZERO PUSH3 0x230 JUMPI POP DUP1 JUMPDEST PUSH1 0x1F DUP6 ADD PUSH1 0x5 SHR DUP3 ADD SWAP2 POP JUMPDEST DUP2 DUP2 LT ISZERO PUSH3 0x251 JUMPI DUP3 DUP2 SSTORE PUSH1 0x1 ADD PUSH3 0x23C JUMP JUMPDEST POP POP POP JUMPDEST POP POP POP JUMP JUMPDEST DUP2 MLOAD PUSH1 0x1 PUSH1 0x1 PUSH1 0x40 SHL SUB DUP2 GT ISZERO PUSH3 0x276 JUMPI PUSH3 0x276 PUSH3 0x81 JUMP JUMPDEST PUSH3 0x28E DUP2 PUSH3 0x287 DUP5 SLOAD PUSH3 0x1CB JUMP JUMPDEST DUP5 PUSH3 0x207 JUMP JUMPDEST PUSH1 0x20 DUP1 PUSH1 0x1F DUP4 GT PUSH1 0x1 DUP2 EQ PUSH3 0x2C6 JUMPI PUSH1 0x0 DUP5 ISZERO PUSH3 0x2AD JUMPI POP DUP6 DUP4 ADD MLOAD JUMPDEST PUSH1 0x0 NOT PUSH1 0x3 DUP7 SWAP1 SHL SHR NOT AND PUSH1 0x1 DUP6 SWAP1 SHL OR DUP6 SSTORE PUSH3 0x251 JUMP JUMPDEST PUSH1 0x0 DUP6 DUP2 MSTORE PUSH1 0x20 DUP2 KECCAK256 PUSH1 0x1F NOT DUP7 AND SWAP2 JUMPDEST DUP3 DUP2 LT ISZERO PUSH3 0x2F7 JUMPI DUP9 DUP7 ADD MLOAD DUP3 SSTORE SWAP5 DUP5 ADD SWAP5 PUSH1 0x1 SWAP1 SWAP2 ADD SWAP1 DUP5 ADD PUSH3 0x2D6 JUMP JUMPDEST POP DUP6 DUP3 LT ISZERO PUSH3 0x316 JUMPI DUP8 DUP6 ADD MLOAD PUSH1 0x0 NOT PUSH1 0x3 DUP9 SWAP1 SHL PUSH1 0xF8 AND SHR NOT AND DUP2 SSTORE JUMPDEST POP POP POP POP POP PUSH1 0x1 SWAP1 DUP2 SHL ADD SWAP1 SSTORE POP JUMP JUMPDEST PUSH2 0x834 DUP1 PUSH3 0x336 PUSH1 0x0 CODECOPY PUSH1 0x0 RETURN INVALID PUSH1 0x80 PUSH1 0x40 MSTORE CALLVALUE DUP1 ISZERO PUSH2 0x10 JUMPI PUSH1 0x0 DUP1 REVERT JUMPDEST POP PUSH1 0x4 CALLDATASIZE LT PUSH2 0xA9 JUMPI PUSH1 0x0 CALLDATALOAD PUSH1 0xE0 SHR DUP1 PUSH4 0x42966C68 GT PUSH2 0x71 JUMPI DUP1 PUSH4 0x42966C68 EQ PUSH2 0x129 JUMPI DUP1 PUSH4 0x70A08231 EQ PUSH2 0x13E JUMPI DUP1 PUSH4 0x95D89B41 EQ PUSH2 0x167 JUMPI DUP1 PUSH4 0xA0712D68 EQ PUSH2 0x16F JUMPI DUP1 PUSH4 0xA9059CBB EQ PUSH2 0x182 JUMPI DUP1 PUSH4 0xDD62ED3E EQ PUSH2 0x195 JUMPI PUSH1 0x0 DUP1 REVERT JUMPDEST DUP1 PUSH4 0x6FDDE03 EQ PUSH2 0xAE JUMPI DUP1 PUSH4 0x95EA7B3 EQ PUSH2 0xCC JUMPI DUP1 PUSH4 0x18160DDD EQ PUSH2 0xEF JUMPI DUP1 PUSH4 0x23B872DD EQ PUSH2 0x101 JUMPI DUP1 PUSH4 0x313CE567 EQ PUSH2 0x114 JUMPI JUMPDEST PUSH1 0x0 DUP1 REVERT JUMPDEST PUSH2 0xB6 PUSH2 0x1CE JUMP JUMPDEST PUSH1 0x40 MLOAD PUSH2 0xC3 SWAP2 SWAP1 PUSH2 0x64A JUMP JUMPDEST PUSH1 0x40 MLOAD DUP1 SWAP2 SUB SWAP1 RETURN JUMPDEST PUSH2 0xDF PUSH2 0xDA CALLDATASIZE PUSH1 0x4 PUSH2 0x6B4 JUMP JUMPDEST PUSH2 0x262 JUMP JUMPDEST PUSH1 0x40 MLOAD SWAP1 ISZERO ISZERO DUP2 MSTORE PUSH1 0x20 ADD PUSH2 0xC3 JUMP JUMPDEST PUSH1 0x3 SLOAD JUMPDEST PUSH1 0x40 MLOAD SWAP1 DUP2 MSTORE PUSH1 0x20 ADD PUSH2 0xC3 JUMP JUMPDEST PUSH2 0xDF PUSH2 0x10F CALLDATASIZE PUSH1 0x4 PUSH2 0x6DE JUMP JUMPDEST PUSH2 0x2EA JUMP JUMPDEST PUSH1 0x2 SLOAD PUSH1 0x40 MLOAD PUSH1 0xFF SWAP1 SWAP2 AND DUP2 MSTORE PUSH1 0x20 ADD PUSH2 0xC3 JUMP JUMPDEST PUSH2 0x13C PUSH2 0x137 CALLDATASIZE PUSH1 0x4 PUSH2 0x71A JUMP JUMPDEST PUSH2 0x377 JUMP JUMPDEST STOP JUMPDEST PUSH2 0xF3 PUSH2 0x14C CALLDATASIZE PUSH1 0x4 PUSH2 0x733 JUMP JUMPDEST PUSH1 0x1 PUSH1 0x1 PUSH1 0xA0 SHL SUB AND PUSH1 0x0 SWAP1 DUP2 MSTORE PUSH1 0x5 PUSH1 0x20 MSTORE PUSH1 0x40 SWAP1 KECCAK256 SLOAD SWAP1 JUMP JUMPDEST PUSH2 0xB6 PUSH2 0x39D JUMP JUMPDEST PUSH2 0x13C PUSH2 0x17D CALLDATASIZE PUSH1 0x4 PUSH2 0x71A JUMP JUMPDEST PUSH2 0x3AF JUMP JUMPDEST PUSH2 0xDF PUSH2 0x190 CALLDATASIZE PUSH1 0x4 PUSH2 0x6B4 JUMP JUMPDEST PUSH2 0x3D1 JUMP JUMPDEST PUSH2 0xF3 PUSH2 0x1A3 CALLDATASIZE PUSH1 0x4 PUSH2 0x755 JUMP JUMPDEST PUSH1 0x1 PUSH1 0x1 PUSH1 0xA0 SHL SUB SWAP2 DUP3 AND PUSH1 0x0 SWAP1 DUP2 MSTORE PUSH1 0x6 PUSH1 0x20 SWAP1 DUP2 MSTORE PUSH1 0x40 DUP1 DUP4 KECCAK256 SWAP4 SWAP1 SWAP5 AND DUP3 MSTORE SWAP2 SWAP1 SWAP2 MSTORE KECCAK256 SLOAD SWAP1 JUMP JUMPDEST PUSH1 0x60 PUSH1 0x0 DUP1 ADD DUP1 SLOAD PUSH2 0x1DF SWAP1 PUSH2 0x788 JUMP JUMPDEST DUP1 PUSH1 0x1F ADD PUSH1 0x20 DUP1 SWAP2 DIV MUL PUSH1 0x20 ADD PUSH1 0x40 MLOAD SWAP1 DUP2 ADD PUSH1 0x40 MSTORE DUP1 SWAP3 SWAP2 SWAP1 DUP2 DUP2 MSTORE PUSH1 0x20 ADD DUP3 DUP1 SLOAD PUSH2 0x20B SWAP1 PUSH2 0x788 JUMP JUMPDEST DUP1 ISZERO PUSH2 0x258 JUMPI DUP1 PUSH1 0x1F LT PUSH2 0x22D JUMPI PUSH2 0x100 DUP1 DUP4 SLOAD DIV MUL DUP4 MSTORE SWAP2 PUSH1 0x20 ADD SWAP2 PUSH2 0x258 JUMP JUMPDEST DUP3 ADD SWAP2 SWAP1 PUSH1 0x0 MSTORE PUSH1 0x20 PUSH1 0x0 KECCAK256 SWAP1 JUMPDEST DUP2 SLOAD DUP2 MSTORE SWAP1 PUSH1 0x1 ADD SWAP1 PUSH1 0x20 ADD DUP1 DUP4 GT PUSH2 0x23B JUMPI DUP3 SWAP1 SUB PUSH1 0x1F AND DUP3 ADD SWAP2 JUMPDEST POP POP POP POP POP SWAP1 POP SWAP1 JUMP JUMPDEST PUSH1 0x0 CALLER DUP1 PUSH2 0x26F JUMPI PUSH1 0x0 DUP1 REVERT JUMPDEST PUSH1 0x1 PUSH1 0x1 PUSH1 0xA0 SHL SUB DUP5 AND PUSH2 0x282 JUMPI PUSH1 0x0 DUP1 REVERT JUMPDEST PUSH1 0x1 PUSH1 0x1 PUSH1 0xA0 SHL SUB DUP2 DUP2 AND PUSH1 0x0 DUP2 DUP2 MSTORE PUSH1 0x6 PUSH1 0x20 SWAP1 DUP2 MSTORE PUSH1 0x40 DUP1 DUP4 KECCAK256 SWAP5 DUP10 AND DUP1 DUP5 MSTORE SWAP5 DUP3 MSTORE SWAP2 DUP3 SWAP1 KECCAK256 DUP8 SWAP1 SSTORE SWAP1 MLOAD DUP7 DUP2 MSTORE PUSH32 0x8C5BE1E5EBEC7D5BD14F71427D1E84F3DD0314C0F7B2291E5B200AC8C7C3B925 SWAP2 ADD PUSH1 0x40 MLOAD DUP1 SWAP2 SUB SWAP1 LOG3 PUSH1 0x1 SWAP2 POP POP JUMPDEST SWAP3 SWAP2 POP POP JUMP JUMPDEST CALLER PUSH1 0x0 SWAP1 DUP2 MSTORE PUSH1 0x6 PUSH1 0x20 SWAP1 DUP2 MSTORE PUSH1 0x40 DUP1 DUP4 KECCAK256 PUSH1 0x1 PUSH1 0x1 PUSH1 0xA0 SHL SUB DUP7 AND DUP5 MSTORE SWAP1 SWAP2 MSTORE DUP2 KECCAK256 SLOAD PUSH1 0x1 DUP2 ADD PUSH2 0x31B JUMPI PUSH1 0x0 DUP1 REVERT JUMPDEST DUP3 DUP2 LT ISZERO PUSH2 0x328 JUMPI PUSH1 0x0 DUP1 REVERT JUMPDEST CALLER PUSH1 0x0 SWAP1 DUP2 MSTORE PUSH1 0x6 PUSH1 0x20 SWAP1 DUP2 MSTORE PUSH1 0x40 DUP1 DUP4 KECCAK256 PUSH1 0x1 PUSH1 0x1 PUSH1 0xA0 SHL SUB DUP9 AND DUP5 MSTORE SWAP1 SWAP2 MSTORE DUP2 KECCAK256 DUP1 SLOAD DUP6 SWAP3 SWAP1 PUSH2 0x35B SWAP1 DUP5 SWAP1 PUSH2 0x7D8 JUMP JUMPDEST SWAP1 SWAP2 SSTORE POP PUSH2 0x36C SWAP1 POP DUP6 DUP6 DUP6 PUSH2 0x3E9 JUMP JUMPDEST POP PUSH1 0x1 SWAP5 SWAP4 POP POP POP POP JUMP JUMPDEST PUSH1 0x4 SLOAD PUSH1 0x1 PUSH1 0x1 PUSH1 0xA0 SHL SUB AND CALLER EQ PUSH2 0x38E JUMPI PUSH1 0x0 DUP1 REVERT JUMPDEST CALLER PUSH2 0x399 DUP2 DUP4 PUSH2 0x4E6 JUMP JUMPDEST POP POP JUMP JUMPDEST PUSH1 0x60 PUSH1 0x0 PUSH1 0x1 ADD DUP1 SLOAD PUSH2 0x1DF SWAP1 PUSH2 0x788 JUMP JUMPDEST PUSH1 0x4 SLOAD PUSH1 0x1 PUSH1 0x1 PUSH1 0xA0 SHL SUB AND CALLER EQ PUSH2 0x3C6 JUMPI PUSH1 0x0 DUP1 REVERT JUMPDEST CALLER PUSH2 0x399 DUP2 DUP4 PUSH2 0x59A JUMP JUMPDEST PUSH1 0x0 CALLER PUSH2 0x3DF DUP2 DUP6 DUP6 PUSH2 0x3E9 JUMP JUMPDEST POP PUSH1 0x1 SWAP4 SWAP3 POP POP POP JUMP JUMPDEST PUSH1 0x1 PUSH1 0x1 PUSH1 0xA0 SHL SUB DUP4 AND PUSH1 0x0 DUP2 DUP2 MSTORE PUSH1 0x5 PUSH1 0x20 MSTORE PUSH1 0x40 SWAP1 KECCAK256 SLOAD SWAP1 PUSH2 0x40C JUMPI PUSH1 0x0 DUP1 REVERT JUMPDEST PUSH1 0x1 PUSH1 0x1 PUSH1 0xA0 SHL SUB DUP4 AND PUSH2 0x41F JUMPI PUSH1 0x0 DUP1 REVERT JUMPDEST DUP2 DUP2 LT ISZERO PUSH2 0x42C JUMPI PUSH1 0x0 DUP1 REVERT JUMPDEST DUP1 ISZERO PUSH2 0x437 JUMPI PUSH1 0x0 DUP1 REVERT JUMPDEST PUSH1 0x1 PUSH1 0x1 PUSH1 0xA0 SHL SUB DUP5 AND PUSH1 0x0 SWAP1 DUP2 MSTORE PUSH1 0x5 PUSH1 0x20 MSTORE PUSH1 0x40 DUP2 KECCAK256 DUP1 SLOAD DUP5 SWAP3 SWAP1 PUSH2 0x45F SWAP1 DUP5 SWAP1 PUSH2 0x7D8 JUMP JUMPDEST SWAP1 SWAP2 SSTORE POP POP PUSH1 0x1 PUSH1 0x1 PUSH1 0xA0 SHL SUB DUP4 AND PUSH1 0x0 SWAP1 DUP2 MSTORE PUSH1 0x5 PUSH1 0x20 MSTORE PUSH1 0x40 DUP2 KECCAK256 DUP1 SLOAD DUP5 SWAP3 SWAP1 PUSH2 0x48C SWAP1 DUP5 SWAP1 PUSH2 0x7EB JUMP JUMPDEST SWAP3 POP POP DUP2 SWAP1 SSTORE POP DUP3 PUSH1 0x1 PUSH1 0x1 PUSH1 0xA0 SHL SUB AND DUP5 PUSH1 0x1 PUSH1 0x1 PUSH1 0xA0 SHL SUB AND PUSH32 0xDDF252AD1BE2C89B69C2B068FC378DAA952BA7F163C4A11628F55A4DF523B3EF DUP5 PUSH1 0x40 MLOAD PUSH2 0x4D8 SWAP2 DUP2 MSTORE PUSH1 0x20 ADD SWAP1 JUMP JUMPDEST PUSH1 0x40 MLOAD DUP1 SWAP2 SUB SWAP1 LOG3 POP POP POP POP JUMP JUMPDEST PUSH1 0x1 PUSH1 0x1 PUSH1 0xA0 SHL SUB DUP3 AND PUSH1 0x0 SWAP1 DUP2 MSTORE PUSH1 0x5 PUSH1 0x20 MSTORE PUSH1 0x40 DUP2 KECCAK256 SLOAD DUP1 DUP4 GT ISZERO PUSH2 0x50C JUMPI PUSH1 0x0 DUP1 REVERT JUMPDEST PUSH1 0x1 PUSH1 0x1 PUSH1 0xA0 SHL SUB DUP5 AND PUSH1 0x0 SWAP1 DUP2 MSTORE PUSH1 0x5 PUSH1 0x20 MSTORE PUSH1 0x40 DUP2 KECCAK256 DUP1 SLOAD DUP6 SWAP3 SWAP1 PUSH2 0x534 SWAP1 DUP5 SWAP1 PUSH2 0x7D8 JUMP JUMPDEST SWAP1 SWAP2 SSTORE POP POP PUSH1 0x3 DUP1 SLOAD DUP5 SWAP2 SWAP1 PUSH1 0x0 SWAP1 PUSH2 0x54E SWAP1 DUP5 SWAP1 PUSH2 0x7D8 JUMP JUMPDEST SWAP3 POP POP DUP2 SWAP1 SSTORE POP DUP2 PUSH1 0x1 PUSH1 0x1 PUSH1 0xA0 SHL SUB AND DUP5 PUSH1 0x1 PUSH1 0x1 PUSH1 0xA0 SHL SUB AND PUSH32 0xDDF252AD1BE2C89B69C2B068FC378DAA952BA7F163C4A11628F55A4DF523B3EF DUP6 PUSH1 0x40 MLOAD PUSH2 0x4D8 SWAP2 DUP2 MSTORE PUSH1 0x20 ADD SWAP1 JUMP JUMPDEST PUSH1 0x0 PUSH1 0x1 PUSH1 0x1 PUSH1 0xA0 SHL SUB DUP4 AND PUSH2 0x5AF JUMPI PUSH1 0x0 DUP1 REVERT JUMPDEST PUSH1 0x1 PUSH1 0x1 PUSH1 0xA0 SHL SUB DUP4 AND PUSH1 0x0 SWAP1 DUP2 MSTORE PUSH1 0x5 PUSH1 0x20 MSTORE PUSH1 0x40 DUP2 KECCAK256 DUP1 SLOAD DUP5 SWAP3 SWAP1 PUSH2 0x5D7 SWAP1 DUP5 SWAP1 PUSH2 0x7EB JUMP JUMPDEST SWAP1 SWAP2 SSTORE POP POP PUSH1 0x3 DUP1 SLOAD DUP4 SWAP2 SWAP1 PUSH1 0x0 SWAP1 PUSH2 0x5F1 SWAP1 DUP5 SWAP1 PUSH2 0x7EB JUMP JUMPDEST SWAP3 POP POP DUP2 SWAP1 SSTORE POP DUP3 PUSH1 0x1 PUSH1 0x1 PUSH1 0xA0 SHL SUB AND DUP2 PUSH1 0x1 PUSH1 0x1 PUSH1 0xA0 SHL SUB AND PUSH32 0xDDF252AD1BE2C89B69C2B068FC378DAA952BA7F163C4A11628F55A4DF523B3EF DUP5 PUSH1 0x40 MLOAD PUSH2 0x63D SWAP2 DUP2 MSTORE PUSH1 0x20 ADD SWAP1 JUMP JUMPDEST PUSH1 0x40 MLOAD DUP1 SWAP2 SUB SWAP1 LOG3 POP POP POP JUMP JUMPDEST PUSH1 0x0 PUSH1 0x20 DUP1 DUP4 MSTORE DUP4 MLOAD DUP1 DUP3 DUP6 ADD MSTORE PUSH1 0x0 JUMPDEST DUP2 DUP2 LT ISZERO PUSH2 0x677 JUMPI DUP6 DUP2 ADD DUP4 ADD MLOAD DUP6 DUP3 ADD PUSH1 0x40 ADD MSTORE DUP3 ADD PUSH2 0x65B JUMP JUMPDEST POP PUSH1 0x0 PUSH1 0x40 DUP3 DUP7 ADD ADD MSTORE PUSH1 0x40 PUSH1 0x1F NOT PUSH1 0x1F DUP4 ADD AND DUP6 ADD ADD SWAP3 POP POP POP SWAP3 SWAP2 POP POP JUMP JUMPDEST DUP1 CALLDATALOAD PUSH1 0x1 PUSH1 0x1 PUSH1 0xA0 SHL SUB DUP2 AND DUP2 EQ PUSH2 0x6AF JUMPI PUSH1 0x0 DUP1 REVERT JUMPDEST SWAP2 SWAP1 POP JUMP JUMPDEST PUSH1 0x0 DUP1 PUSH1 0x40 DUP4 DUP6 SUB SLT ISZERO PUSH2 0x6C7 JUMPI PUSH1 0x0 DUP1 REVERT JUMPDEST PUSH2 0x6D0 DUP4 PUSH2 0x698 JUMP JUMPDEST SWAP5 PUSH1 0x20 SWAP4 SWAP1 SWAP4 ADD CALLDATALOAD SWAP4 POP POP POP JUMP JUMPDEST PUSH1 0x0 DUP1 PUSH1 0x0 PUSH1 0x60 DUP5 DUP7 SUB SLT ISZERO PUSH2 0x6F3 JUMPI PUSH1 0x0 DUP1 REVERT JUMPDEST PUSH2 0x6FC DUP5 PUSH2 0x698 JUMP JUMPDEST SWAP3 POP PUSH2 0x70A PUSH1 0x20 DUP6 ADD PUSH2 0x698 JUMP JUMPDEST SWAP2 POP PUSH1 0x40 DUP5 ADD CALLDATALOAD SWAP1 POP SWAP3 POP SWAP3 POP SWAP3 JUMP JUMPDEST PUSH1 0x0 PUSH1 0x20 DUP3 DUP5 SUB SLT ISZERO PUSH2 0x72C JUMPI PUSH1 0x0 DUP1 REVERT JUMPDEST POP CALLDATALOAD SWAP2 SWAP1 POP JUMP JUMPDEST PUSH1 0x0 PUSH1 0x20 DUP3 DUP5 SUB SLT ISZERO PUSH2 0x745 JUMPI PUSH1 0x0 DUP1 REVERT JUMPDEST PUSH2 0x74E DUP3 PUSH2 0x698 JUMP JUMPDEST SWAP4 SWAP3 POP POP POP JUMP JUMPDEST PUSH1 0x0 DUP1 PUSH1 0x40 DUP4 DUP6 SUB SLT ISZERO PUSH2 0x768 JUMPI PUSH1 0x0 DUP1 REVERT JUMPDEST PUSH2 0x771 DUP4 PUSH2 0x698 JUMP JUMPDEST SWAP2 POP PUSH2 0x77F PUSH1 0x20 DUP5 ADD PUSH2 0x698 JUMP JUMPDEST SWAP1 POP SWAP3 POP SWAP3 SWAP1 POP JUMP JUMPDEST PUSH1 0x1 DUP2 DUP2 SHR SWAP1 DUP3 AND DUP1 PUSH2 0x79C JUMPI PUSH1 0x7F DUP3 AND SWAP2 POP JUMPDEST PUSH1 0x20 DUP3 LT DUP2 SUB PUSH2 0x7BC JUMPI PUSH4 0x4E487B71 PUSH1 0xE0 SHL PUSH1 0x0 MSTORE PUSH1 0x22 PUSH1 0x4 MSTORE PUSH1 0x24 PUSH1 0x0 REVERT JUMPDEST POP SWAP2 SWAP1 POP JUMP JUMPDEST PUSH4 0x4E487B71 PUSH1 0xE0 SHL PUSH1 0x0 MSTORE PUSH1 0x11 PUSH1 0x4 MSTORE PUSH1 0x24 PUSH1 0x0 REVERT JUMPDEST DUP2 DUP2 SUB DUP2 DUP2 GT ISZERO PUSH2 0x2E4 JUMPI PUSH2 0x2E4 PUSH2 0x7C2 JUMP JUMPDEST DUP1 DUP3 ADD DUP1 DUP3 GT ISZERO PUSH2 0x2E4 JUMPI PUSH2 0x2E4 PUSH2 0x7C2 JUMP INVALID LOG2 PUSH5 0x6970667358 0x22 SLT KECCAK256 0xB5 0xD4 DUP15 STATICCALL 0xF8 SWAP15 SWAP10 BASEFEE SUB MSTORE SELFDESTRUCT PUSH13 0xB42F44417236C4DDD7C663B98A 0xCC 0xA7 0xC8 DUP13 0xB1 0xA9 RETURNDATACOPY PUSH5 0x736F6C6343 STOP ADDMOD SLT STOP CALLER "
		},
		"gasEstimates": {
			"creation": {
				"codeDepositCost": "440800",
				"executionCost": "infinite",
				"totalCost": "infinite"
			},
			"external": {
				"contribute(uint256)": "infinite",
				"reveal_native_token()": "2287",
				"reveal_state()": "2342",
				"withdraw(uint256)": "infinite"
			},
			"internal": {
				"burn_(uint256)": "infinite",
				"deposit_(uint256)": "infinite",
				"deposit_erc20_(address,uint256)": "infinite",
				"mint_(uint256)": "infinite",
				"withdraw_(address,uint256)": "infinite",
				"withdraw_erc20_(address,uint256)": "infinite"
			}
		},
		"methodIdentifiers": {
			"contribute(uint256)": "c1cbbca7",
			"reveal_native_token()": "0f851666",
			"reveal_state()": "3c964865",
			"withdraw(uint256)": "2e1a7d4d"
		}
	},
	"abi": [
		{
			"inputs": [
				{
					"internalType": "string",
					"name": "_name",
					"type": "string"
				},
				{
					"internalType": "string",
					"name": "_description",
					"type": "string"
				},
				{
					"internalType": "uint256",
					"name": "_funding_start",
					"type": "uint256"
				},
				{
					"internalType": "uint256",
					"name": "_funding_end",
					"type": "uint256"
				},
				{
					"internalType": "uint256",
					"name": "_funding_required",
					"type": "uint256"
				},
				{
					"internalType": "bool",
					"name": "_whitelisted",
					"type": "bool"
				},
				{
					"internalType": "string",
					"name": "_token_name",
					"type": "string"
				},
				{
					"internalType": "string",
					"name": "_token_symbol",
					"type": "string"
				},
				{
					"internalType": "uint8",
					"name": "_token_decimals",
					"type": "uint8"
				},
				{
					"internalType": "uint256",
					"name": "_initial_supply",
					"type": "uint256"
				}
			],
			"stateMutability": "payable",
			"type": "constructor"
		},
		{
			"inputs": [
				{
					"internalType": "uint256",
					"name": "_id",
					"type": "uint256"
				}
			],
			"name": "contribute",
			"outputs": [
				{
					"internalType": "bool",
					"name": "",
					"type": "bool"
				}
			],
			"stateMutability": "payable",
			"type": "function"
		},
		{
			"inputs": [],
			"name": "reveal_native_token",
			"outputs": [
				{
					"internalType": "address",
					"name": "",
					"type": "address"
				}
			],
			"stateMutability": "view",
			"type": "function"
		},
		{
			"inputs": [],
			"name": "reveal_state",
			"outputs": [
				{
					"internalType": "address",
					"name": "",
					"type": "address"
				}
			],
			"stateMutability": "view",
			"type": "function"
		},
		{
			"inputs": [
				{
					"internalType": "uint256",
					"name": "_value",
					"type": "uint256"
				}
			],
			"name": "withdraw",
			"outputs": [
				{
					"internalType": "bool",
					"name": "",
					"type": "bool"
				}
			],
			"stateMutability": "nonpayable",
			"type": "function"
		}
	]
}