{
	"data": {
		"bytecode": {
			"linkReferences": {},
			"object": "608060405234801562000010575f80fd5b506040516200323b3803806200323b83398181016040528101906200003691906200021d565b806200004881620000d960201b60201c565b5060018081905550604b60035f018190555062093a806003600101819055506301e1338060036002018190555062278d006003800181905550620000966302625a006200019a60201b60201c565b600360040181905550620000b4630bebc2006200019a60201b60201c565b6003600501819055505f600360060181905550606460036007018190555050620002cd565b5f805f9054906101000a900473ffffffffffffffffffffffffffffffffffffffff169050815f806101000a81548173ffffffffffffffffffffffffffffffffffffffff021916908373ffffffffffffffffffffffffffffffffffffffff1602179055508173ffffffffffffffffffffffffffffffffffffffff168173ffffffffffffffffffffffffffffffffffffffff167f8be0079c531659141344cd1fd0a4f28419497f9722a3daafe3b4186f6b6457e060405160405180910390a35050565b5f670de0b6b3a764000082620001b1919062000283565b9050919050565b5f80fd5b5f73ffffffffffffffffffffffffffffffffffffffff82169050919050565b5f620001e782620001bc565b9050919050565b620001f981620001db565b811462000204575f80fd5b50565b5f815190506200021781620001ee565b92915050565b5f60208284031215620002355762000234620001b8565b5b5f620002448482850162000207565b91505092915050565b5f819050919050565b7f4e487b71000000000000000000000000000000000000000000000000000000005f52601160045260245ffd5b5f6200028f826200024d565b91506200029c836200024d565b9250828202620002ac816200024d565b91508282048414831517620002c657620002c562000256565b5b5092915050565b612f6080620002db5f395ff3fe608060405234801561000f575f80fd5b5060043610610091575f3560e01c8063a66b972111610064578063a66b97211461010b578063b384abef1461013d578063f2fde38b1461016d578063fc8c501e14610189578063fe0d94c1146101a757610091565b806340e58ee514610095578063715018a6146100c55780638da5cb5b146100cf57806390c63ed4146100ed575b5f80fd5b6100af60048036038101906100aa9190611a30565b6101d7565b6040516100bc9190611a75565b60405180910390f35b6100cd610202565b005b6100d7610215565b6040516100e49190611acd565b60405180910390f35b6100f561023c565b6040516101029190611af5565b60405180910390f35b61012560048036038101906101209190611d3c565b610272565b60405161013493929190611e54565b60405180910390f35b61015760048036038101906101529190611e89565b6102bf565b6040516101649190611a75565b60405180910390f35b61018760048036038101906101829190611ec7565b6102ec565b005b61019161036e565b60405161019e9190611af5565b60405180910390f35b6101c160048036038101906101bc9190611a30565b610379565b6040516101ce9190611a75565b60405180910390f35b5f6101e06103a4565b6101e8610422565b6101f182610471565b600190506101fd61051e565b919050565b61020a6103a4565b6102135f610527565b565b5f805f9054906101000a900473ffffffffffffffffffffffffffffffffffffffff16905090565b5f806102685f7fffffffffffffffffffffffffffffffffffffffffffffffffffffffffffffffff6105e8565b9150508091505090565b5f805f61027d6103a4565b610285610422565b5f806102988e8e8e8e8e8e8e8e8e6106de565b915091506001828294509450945050506102b061051e565b99509950999650505050505050565b5f6102c86103a4565b6102d0610422565b6102da8383610c75565b600190506102e661051e565b92915050565b6102f46103a4565b5f73ffffffffffffffffffffffffffffffffffffffff168173ffffffffffffffffffffffffffffffffffffffff1603610362576040517f08c379a000000000000000000000000000000000000000000000000000000000815260040161035990611f72565b60405180910390fd5b61036b81610527565b50565b5f60025f0154905090565b5f6103826103a4565b61038a610422565b61039382611655565b6001905061039f61051e565b919050565b6103ac611703565b73ffffffffffffffffffffffffffffffffffffffff166103ca610215565b73ffffffffffffffffffffffffffffffffffffffff1614610420576040517f08c379a000000000000000000000000000000000000000000000000000000000815260040161041790611fda565b60405180910390fd5b565b600260015403610467576040517f08c379a000000000000000000000000000000000000000000000000000000000815260040161045e90612042565b60405180910390fd5b6002600181905550565b61047a8161170a565b61048381611761565b61048c816117c6565b6104958161182a565b61049e8161188f565b5f600c5f8381526020019081526020015f209050600181600d015f6101000a81548160ff021916908315150217905550426104d7611703565b73ffffffffffffffffffffffffffffffffffffffff16837faa17fdf5ffb610a4cc0887f35c13c501975a370005080f68441055871952eb8160405160405180910390a45050565b60018081905550565b5f805f9054906101000a900473ffffffffffffffffffffffffffffffffffffffff169050815f806101000a81548173ffffffffffffffffffffffffffffffffffffffff021916908373ffffffffffffffffffffffffffffffffffffffff1602179055508173ffffffffffffffffffffffffffffffffffffffff168173ffffffffffffffffffffffffffffffffffffffff167f8be0079c531659141344cd1fd0a4f28419497f9722a3daafe3b4186f6b6457e060405160405180910390a35050565b5f805f805f600190505b60025f01548110156106c3575f600c5f8381526020019081526020015f2090508060040154881015801561062a575080600501548711155b801561064957505f151581600d015f9054906101000a900460ff161515145b801561066957505f151581600d0160019054906101000a900460ff161515145b801561068957505f151581600d0160029054906101000a900460ff161515145b156106af5783806106999061208d565b9450508060070154836106ac91906120d4565b92505b5080806106bb9061208d565b9150506105f2565b5081816106d09190612134565b829350935050509250929050565b5f805f4290505f73ffffffffffffffffffffffffffffffffffffffff16610703611703565b73ffffffffffffffffffffffffffffffffffffffff1603610759576040517f08c379a0000000000000000000000000000000000000000000000000000000008152600401610750906121d4565b60405180910390fd5b8a81101561079c576040517f08c379a000000000000000000000000000000000000000000000000000000000815260040161079390612262565b60405180910390fd5b6003600101548a101580156107b657506003600201548a11155b6107f5576040517f08c379a00000000000000000000000000000000000000000000000000000000081526004016107ec906122f0565b60405180910390fd5b5f73ffffffffffffffffffffffffffffffffffffffff168673ffffffffffffffffffffffffffffffffffffffff1603610863576040517f08c379a000000000000000000000000000000000000000000000000000000000815260040161085a90612358565b60405180910390fd5b600f5f8773ffffffffffffffffffffffffffffffffffffffff1673ffffffffffffffffffffffffffffffffffffffff1681526020019081526020015f205f9054906101000a900460ff166108ec576040517f08c379a00000000000000000000000000000000000000000000000000000000081526004016108e3906123e6565b60405180910390fd5b600360060154881015801561090657506003600701548811155b61090e575f80fd5b60025f015f8154809291906109229061208d565b91905055505f60025f015490505f600c5f8381526020019081526020015f20905081815f018190555060036008015f9054906101000a900473ffffffffffffffffffffffffffffffffffffffff1673ffffffffffffffffffffffffffffffffffffffff16639711715a6040518163ffffffff1660e01b81526004016020604051808303815f875af11580156109b9573d5f803e3d5ffd5b505050506040513d601f19601f820116820180604052508101906109dd9190612418565b81600101819055506109ed611703565b816002015f6101000a81548173ffffffffffffffffffffffffffffffffffffffff021916908373ffffffffffffffffffffffffffffffffffffffff1602179055508d816003019081610a3f9190612647565b505f8d03610a4f57829c50610a59565b8c81600401819055505b5f8c03610a6d576003600101549b50610a77565b8b81600601819055505b80600601548160040154610a8b91906120d4565b81600501819055505f8b03610af7575f610ab4600380015485610aae9190612716565b856105e8565b509050600360040154811015610ad1576003600401549050610ae8565b600360050154811115610ae75760036005015490505b5b80826008018190555050610b01565b8a81600801819055505b5f8a03610b1a5760035f015481600c0181905550610b24565b8981600c01819055505b8881600d0160036101000a81548160ff0219169083151502179055508681600e019081610b519190612647565b508581600f019081610b6391906127ab565b5080600301604051610b759190612904565b6040518091039020816002015f9054906101000a900473ffffffffffffffffffffffffffffffffffffffff1673ffffffffffffffffffffffffffffffffffffffff16825f01547f64b7c32f1f09f7222eaf1bffc6be99be9bd672a228018ee7f160b81f43949e148460010154856004015486600501548760060154886008015489600c01548a600d0160039054906101000a900460ff168b600d0160049054906101000a900473ffffffffffffffffffffffffffffffffffffffff168c600e018d600f01604051610c4f9a99989796959493929190612a2c565b60405180910390a4805f0154816001015494509450505050995099975050505050505050565b610c7e8261170a565b610c8782611761565b610c90826117c6565b610c998261188f565b5f600c5f8481526020019081526020015f2090505f826002811115610cc157610cc0612ad4565b5b90505f60036008015f9054906101000a900473ffffffffffffffffffffffffffffffffffffffff1673ffffffffffffffffffffffffffffffffffffffff16639324bffa610d0c611703565b85600101546040518363ffffffff1660e01b8152600401610d2e929190612b01565b602060405180830381865afa158015610d49573d5f803e3d5ffd5b505050506040513d601f19601f82011682018060405250810190610d6d9190612418565b90505f429050600e5f610d7e611703565b73ffffffffffffffffffffffffffffffffffffffff1673ffffffffffffffffffffffffffffffffffffffff1681526020019081526020015f205f8781526020019081526020015f205f9054906101000a900460ff1615611224575f6002811115610deb57610dea612ad4565b5b600d5f610df6611703565b73ffffffffffffffffffffffffffffffffffffffff1673ffffffffffffffffffffffffffffffffffffffff1681526020019081526020015f205f8881526020019081526020015f205f9054906101000a900460ff166002811115610e5d57610e5c612ad4565b5b03610e81578184600b015f828254610e759190612716565b92505081905550610fd2565b60016002811115610e9557610e94612ad4565b5b600d5f610ea0611703565b73ffffffffffffffffffffffffffffffffffffffff1673ffffffffffffffffffffffffffffffffffffffff1681526020019081526020015f205f8881526020019081526020015f205f9054906101000a900460ff166002811115610f0757610f06612ad4565b5b03610f2b5781846009015f828254610f1f9190612716565b92505081905550610fd1565b600280811115610f3e57610f3d612ad4565b5b600d5f610f49611703565b73ffffffffffffffffffffffffffffffffffffffff1673ffffffffffffffffffffffffffffffffffffffff1681526020019081526020015f205f8881526020019081526020015f205f9054906101000a900460ff166002811115610fb057610faf612ad4565b5b03610fd0578184600a015f828254610fc89190612716565b925050819055505b5b5b5f6002811115610fe557610fe4612ad4565b5b836002811115610ff857610ff7612ad4565b5b03611096575f600d5f611009611703565b73ffffffffffffffffffffffffffffffffffffffff1673ffffffffffffffffffffffffffffffffffffffff1681526020019081526020015f205f8881526020019081526020015f205f6101000a81548160ff0219169083600281111561107257611071612ad4565b5b02179055508184600b015f82825461108a91906120d4565b9250508190555061121f565b600160028111156110aa576110a9612ad4565b5b8360028111156110bd576110bc612ad4565b5b0361115c576001600d5f6110cf611703565b73ffffffffffffffffffffffffffffffffffffffff1673ffffffffffffffffffffffffffffffffffffffff1681526020019081526020015f205f8881526020019081526020015f205f6101000a81548160ff0219169083600281111561113857611137612ad4565b5b021790555081846009015f82825461115091906120d4565b9250508190555061121e565b60028081111561116f5761116e612ad4565b5b83600281111561118257611181612ad4565b5b0361121d576002600d5f611194611703565b73ffffffffffffffffffffffffffffffffffffffff1673ffffffffffffffffffffffffffffffffffffffff1681526020019081526020015f205f8881526020019081526020015f205f6101000a81548160ff021916908360028111156111fd576111fc612ad4565b5b02179055508184600a015f82825461121591906120d4565b925050819055505b5b5b6114f7565b6001600e5f611231611703565b73ffffffffffffffffffffffffffffffffffffffff1673ffffffffffffffffffffffffffffffffffffffff1681526020019081526020015f205f8881526020019081526020015f205f6101000a81548160ff02191690831515021790555081846007015f8282546112a291906120d4565b925050819055505f60028111156112bc576112bb612ad4565b5b8360028111156112cf576112ce612ad4565b5b0361136d575f600d5f6112e0611703565b73ffffffffffffffffffffffffffffffffffffffff1673ffffffffffffffffffffffffffffffffffffffff1681526020019081526020015f205f8881526020019081526020015f205f6101000a81548160ff0219169083600281111561134957611348612ad4565b5b02179055508184600b015f82825461136191906120d4565b925050819055506114f6565b6001600281111561138157611380612ad4565b5b83600281111561139457611393612ad4565b5b03611433576001600d5f6113a6611703565b73ffffffffffffffffffffffffffffffffffffffff1673ffffffffffffffffffffffffffffffffffffffff1681526020019081526020015f205f8881526020019081526020015f205f6101000a81548160ff0219169083600281111561140f5761140e612ad4565b5b021790555081846009015f82825461142791906120d4565b925050819055506114f5565b60028081111561144657611445612ad4565b5b83600281111561145957611458612ad4565b5b036114f4576002600d5f61146b611703565b73ffffffffffffffffffffffffffffffffffffffff1673ffffffffffffffffffffffffffffffffffffffff1681526020019081526020015f205f8881526020019081526020015f205f6101000a81548160ff021916908360028111156114d4576114d3612ad4565b5b02179055508184600a015f8282546114ec91906120d4565b925050819055505b5b5b5b81611500611703565b73ffffffffffffffffffffffffffffffffffffffff16855f01547fe23e924bfb9c3da01f0c2cd4ee3f44f74a6991630bc64db5fd793e08c0b4aff084600d5f611547611703565b73ffffffffffffffffffffffffffffffffffffffff1673ffffffffffffffffffffffffffffffffffffffff1681526020019081526020015f205f8c81526020019081526020015f205f9054906101000a900460ff166040516115aa929190612b6e565b60405180910390a46115bb866118e8565b80156115cc57506115cb86611920565b5b1561164d57600184600d0160026101000a81548160ff021916908315150217905550806115f7611703565b73ffffffffffffffffffffffffffffffffffffffff16855f01547f37c8c392e341a19fe40a3c935e07f030699ab0e6f80aa488c980632c5b00210987600701546040516116449190611af5565b60405180910390a45b505050505050565b61165e8161170a565b6116678161188f565b6116708161182a565b61167981611988565b611682816117c6565b5f600c5f8381526020019081526020015f209050600181600d0160016101000a81548160ff021916908315150217905550426116bc611703565b73ffffffffffffffffffffffffffffffffffffffff16837f12c8907d32b752d626a36cf18f31719e25f1a3b6f750ee948c22c036373d48aa60405160405180910390a45050565b5f33905090565b6001811015801561171f575060025f01548111155b61175e576040517f08c379a000000000000000000000000000000000000000000000000000000000815260040161175590612c05565b60405180910390fd5b50565b600c5f8281526020019081526020015f20600d0160029054906101000a900460ff16156117c3576040517f08c379a00000000000000000000000000000000000000000000000000000000081526004016117ba90612c93565b60405180910390fd5b50565b600c5f8281526020019081526020015f20600d015f9054906101000a900460ff1615611827576040517f08c379a000000000000000000000000000000000000000000000000000000000815260040161181e90612d21565b60405180910390fd5b50565b600c5f8281526020019081526020015f20600d0160019054906101000a900460ff161561188c576040517f08c379a000000000000000000000000000000000000000000000000000000000815260040161188390612daf565b60405180910390fd5b50565b600c5f8281526020019081526020015f206005015442106118e5576040517f08c379a00000000000000000000000000000000000000000000000000000000081526004016118dc90612e3d565b60405180910390fd5b50565b5f80600c5f8481526020019081526020015f209050806008015481600701541061191657600191505061191b565b5f9150505b919050565b5f80600c5f8481526020019081526020015f2090505f81600a0154826009015461194a91906120d4565b6064836009015461195b9190612e5b565b6119659190612134565b905081600c0154811061197d57600192505050611983565b5f925050505b919050565b600c5f8281526020019081526020015f20600d0160029054906101000a900460ff166119e9576040517f08c379a00000000000000000000000000000000000000000000000000000000081526004016119e090612f0c565b60405180910390fd5b50565b5f604051905090565b5f80fd5b5f80fd5b5f819050919050565b611a0f816119fd565b8114611a19575f80fd5b50565b5f81359050611a2a81611a06565b92915050565b5f60208284031215611a4557611a446119f5565b5b5f611a5284828501611a1c565b91505092915050565b5f8115159050919050565b611a6f81611a5b565b82525050565b5f602082019050611a885f830184611a66565b92915050565b5f73ffffffffffffffffffffffffffffffffffffffff82169050919050565b5f611ab782611a8e565b9050919050565b611ac781611aad565b82525050565b5f602082019050611ae05f830184611abe565b92915050565b611aef816119fd565b82525050565b5f602082019050611b085f830184611ae6565b92915050565b5f80fd5b5f80fd5b5f601f19601f8301169050919050565b7f4e487b71000000000000000000000000000000000000000000000000000000005f52604160045260245ffd5b611b5c82611b16565b810181811067ffffffffffffffff82111715611b7b57611b7a611b26565b5b80604052505050565b5f611b8d6119ec565b9050611b998282611b53565b919050565b5f67ffffffffffffffff821115611bb857611bb7611b26565b5b611bc182611b16565b9050602081019050919050565b828183375f83830152505050565b5f611bee611be984611b9e565b611b84565b905082815260208101848484011115611c0a57611c09611b12565b5b611c15848285611bce565b509392505050565b5f82601f830112611c3157611c30611b0e565b5b8135611c41848260208601611bdc565b91505092915050565b611c5381611a5b565b8114611c5d575f80fd5b50565b5f81359050611c6e81611c4a565b92915050565b611c7d81611aad565b8114611c87575f80fd5b50565b5f81359050611c9881611c74565b92915050565b5f67ffffffffffffffff821115611cb857611cb7611b26565b5b611cc182611b16565b9050602081019050919050565b5f611ce0611cdb84611c9e565b611b84565b905082815260208101848484011115611cfc57611cfb611b12565b5b611d07848285611bce565b509392505050565b5f82601f830112611d2357611d22611b0e565b5b8135611d33848260208601611cce565b91505092915050565b5f805f805f805f805f6101208a8c031215611d5a57611d596119f5565b5b5f8a013567ffffffffffffffff811115611d7757611d766119f9565b5b611d838c828d01611c1d565b9950506020611d948c828d01611a1c565b9850506040611da58c828d01611a1c565b9750506060611db68c828d01611a1c565b9650506080611dc78c828d01611a1c565b95505060a0611dd88c828d01611c60565b94505060c0611de98c828d01611c8a565b93505060e08a013567ffffffffffffffff811115611e0a57611e096119f9565b5b611e168c828d01611c1d565b9250506101008a013567ffffffffffffffff811115611e3857611e376119f9565b5b611e448c828d01611d0f565b9150509295985092959850929598565b5f606082019050611e675f830186611a66565b611e746020830185611ae6565b611e816040830184611ae6565b949350505050565b5f8060408385031215611e9f57611e9e6119f5565b5b5f611eac85828601611a1c565b9250506020611ebd85828601611a1c565b9150509250929050565b5f60208284031215611edc57611edb6119f5565b5b5f611ee984828501611c8a565b91505092915050565b5f82825260208201905092915050565b7f4f776e61626c653a206e6577206f776e657220697320746865207a65726f20615f8201527f6464726573730000000000000000000000000000000000000000000000000000602082015250565b5f611f5c602683611ef2565b9150611f6782611f02565b604082019050919050565b5f6020820190508181035f830152611f8981611f50565b9050919050565b7f4f776e61626c653a2063616c6c6572206973206e6f7420746865206f776e65725f82015250565b5f611fc4602083611ef2565b9150611fcf82611f90565b602082019050919050565b5f6020820190508181035f830152611ff181611fb8565b9050919050565b7f5265656e7472616e637947756172643a207265656e7472616e742063616c6c005f82015250565b5f61202c601f83611ef2565b915061203782611ff8565b602082019050919050565b5f6020820190508181035f83015261205981612020565b9050919050565b7f4e487b71000000000000000000000000000000000000000000000000000000005f52601160045260245ffd5b5f612097826119fd565b91507fffffffffffffffffffffffffffffffffffffffffffffffffffffffffffffffff82036120c9576120c8612060565b5b600182019050919050565b5f6120de826119fd565b91506120e9836119fd565b925082820190508082111561210157612100612060565b5b92915050565b7f4e487b71000000000000000000000000000000000000000000000000000000005f52601260045260245ffd5b5f61213e826119fd565b9150612149836119fd565b92508261215957612158612107565b5b828204905092915050565b7f5265666572656e64756d733a205f6d736753656e6465722829203d3d206164645f8201527f7265737328302900000000000000000000000000000000000000000000000000602082015250565b5f6121be602783611ef2565b91506121c982612164565b604082019050919050565b5f6020820190508181035f8301526121eb816121b2565b9050919050565b7f5265666572656e64756d733a20737461727454696d657374616d7020697320695f8201527f6e20746865207061737400000000000000000000000000000000000000000000602082015250565b5f61224c602a83611ef2565b9150612257826121f2565b604082019050919050565b5f6020820190508181035f83015261227981612240565b9050919050565b7f5265666572656e64756d733a2074696d656f75742076616c7565206f7574206f5f8201527f6620626f756e6473000000000000000000000000000000000000000000000000602082015250565b5f6122da602883611ef2565b91506122e582612280565b604082019050919050565b5f6020820190508181035f830152612307816122ce565b9050919050565b7f5265666572656e64756d3a20746172676574203d3d20616464726573732830295f82015250565b5f612342602083611ef2565b915061234d8261230e565b602082019050919050565b5f6020820190508181035f83015261236f81612336565b9050919050565b7f5265666572656e64756d3a20746172676574206973206e6f742077686974656c5f8201527f6973746564000000000000000000000000000000000000000000000000000000602082015250565b5f6123d0602583611ef2565b91506123db82612376565b604082019050919050565b5f6020820190508181035f8301526123fd816123c4565b9050919050565b5f8151905061241281611a06565b92915050565b5f6020828403121561242d5761242c6119f5565b5b5f61243a84828501612404565b91505092915050565b5f81519050919050565b7f4e487b71000000000000000000000000000000000000000000000000000000005f52602260045260245ffd5b5f600282049050600182168061249157607f821691505b6020821081036124a4576124a361244d565b5b50919050565b5f819050815f5260205f209050919050565b5f6020601f8301049050919050565b5f82821b905092915050565b5f600883026125067fffffffffffffffffffffffffffffffffffffffffffffffffffffffffffffffff826124cb565b61251086836124cb565b95508019841693508086168417925050509392505050565b5f819050919050565b5f61254b612546612541846119fd565b612528565b6119fd565b9050919050565b5f819050919050565b61256483612531565b61257861257082612552565b8484546124d7565b825550505050565b5f90565b61258c612580565b61259781848461255b565b505050565b5b818110156125ba576125af5f82612584565b60018101905061259d565b5050565b601f8211156125ff576125d0816124aa565b6125d9846124bc565b810160208510156125e8578190505b6125fc6125f4856124bc565b83018261259c565b50505b505050565b5f82821c905092915050565b5f61261f5f1984600802612604565b1980831691505092915050565b5f6126378383612610565b9150826002028217905092915050565b61265082612443565b67ffffffffffffffff81111561266957612668611b26565b5b612673825461247a565b61267e8282856125be565b5f60209050601f8311600181146126af575f841561269d578287015190505b6126a7858261262c565b86555061270e565b601f1984166126bd866124aa565b5f5b828110156126e4578489015182556001820191506020850194506020810190506126bf565b8683101561270157848901516126fd601f891682612610565b8355505b6001600288020188555050505b505050505050565b5f612720826119fd565b915061272b836119fd565b925082820390508181111561274357612742612060565b5b92915050565b5f81519050919050565b5f819050815f5260205f209050919050565b601f8211156127a65761277781612753565b612780846124bc565b8101602085101561278f578190505b6127a361279b856124bc565b83018261259c565b50505b505050565b6127b482612749565b67ffffffffffffffff8111156127cd576127cc611b26565b5b6127d7825461247a565b6127e2828285612765565b5f60209050601f831160018114612813575f8415612801578287015190505b61280b858261262c565b865550612872565b601f19841661282186612753565b5f5b8281101561284857848901518255600182019150602085019450602081019050612823565b868310156128655784890151612861601f891682612610565b8355505b6001600288020188555050505b505050505050565b5f81905092915050565b5f81546128908161247a565b61289a818661287a565b9450600182165f81146128b457600181146128c9576128fb565b60ff19831686528115158202860193506128fb565b6128d2856124aa565b5f5b838110156128f3578154818901526001820191506020810190506128d4565b838801955050505b50505092915050565b5f61290f8284612884565b915081905092915050565b5f81546129268161247a565b6129308186611ef2565b9450600182165f811461294a576001811461296057612992565b60ff198316865281151560200286019350612992565b612969856124aa565b5f5b8381101561298a5781548189015260018201915060208101905061296b565b808801955050505b50505092915050565b5f82825260208201905092915050565b5f81546129b78161247a565b6129c1818661299b565b9450600182165f81146129db57600181146129f157612a23565b60ff198316865281151560200286019350612a23565b6129fa85612753565b5f5b83811015612a1b578154818901526001820191506020810190506129fc565b808801955050505b50505092915050565b5f61014082019050612a405f83018d611ae6565b612a4d602083018c611ae6565b612a5a604083018b611ae6565b612a67606083018a611ae6565b612a746080830189611ae6565b612a8160a0830188611ae6565b612a8e60c0830187611a66565b612a9b60e0830186611abe565b818103610100830152612aae818561291a565b9050818103610120830152612ac381846129ab565b90509b9a5050505050505050505050565b7f4e487b71000000000000000000000000000000000000000000000000000000005f52602160045260245ffd5b5f604082019050612b145f830185611abe565b612b216020830184611ae6565b9392505050565b60038110612b3957612b38612ad4565b5b50565b5f819050612b4982612b28565b919050565b5f612b5882612b3c565b9050919050565b612b6881612b4e565b82525050565b5f604082019050612b815f830185611ae6565b612b8e6020830184612b5f565b9392505050565b7f5265666572656e64756d733a206964656e74696669657220646f6573206e6f745f8201527f20706f696e7420746f20616e206578697374696e67207265666572656e64756d602082015250565b5f612bef604083611ef2565b9150612bfa82612b95565b604082019050919050565b5f6020820190508181035f830152612c1c81612be3565b9050919050565b7f5265666572656e64756d733a207265666572656e64756d20686173206265656e5f8201527f2070617373656400000000000000000000000000000000000000000000000000602082015250565b5f612c7d602783611ef2565b9150612c8882612c23565b604082019050919050565b5f6020820190508181035f830152612caa81612c71565b9050919050565b7f5265666572656e64756d733a207265666572656e64756d20686173206265656e5f8201527f2063616e63656c6c656400000000000000000000000000000000000000000000602082015250565b5f612d0b602a83611ef2565b9150612d1682612cb1565b604082019050919050565b5f6020820190508181035f830152612d3881612cff565b9050919050565b7f5265666572656e64756d733a207265666572656e64756d20686173206265656e5f8201527f2065786563757465640000000000000000000000000000000000000000000000602082015250565b5f612d99602983611ef2565b9150612da482612d3f565b604082019050919050565b5f6020820190508181035f830152612dc681612d8d565b9050919050565b7f5265666572656e64756d733a207265666572656e64756d2068617320657870695f8201527f7265640000000000000000000000000000000000000000000000000000000000602082015250565b5f612e27602383611ef2565b9150612e3282612dcd565b604082019050919050565b5f6020820190508181035f830152612e5481612e1b565b9050919050565b5f612e65826119fd565b9150612e70836119fd565b9250828202612e7e816119fd565b91508282048414831517612e9557612e94612060565b5b5092915050565b7f5265666572656e64756d733a207265666572656e64756d20686173206e6f74205f8201527f6265656e20706173736564000000000000000000000000000000000000000000602082015250565b5f612ef6602b83611ef2565b9150612f0182612e9c565b604082019050919050565b5f6020820190508181035f830152612f2381612eea565b905091905056fea26469706673582212201d13146dd3b1d0e2ed3d73d685657a2e928b4ca59460e74845d4e8e877baab3a64736f6c63430008140033",
			"opcodes": "PUSH1 0x80 PUSH1 0x40 MSTORE CALLVALUE DUP1 ISZERO PUSH3 0x10 JUMPI PUSH0 DUP1 REVERT JUMPDEST POP PUSH1 0x40 MLOAD PUSH3 0x323B CODESIZE SUB DUP1 PUSH3 0x323B DUP4 CODECOPY DUP2 DUP2 ADD PUSH1 0x40 MSTORE DUP2 ADD SWAP1 PUSH3 0x36 SWAP2 SWAP1 PUSH3 0x21D JUMP JUMPDEST DUP1 PUSH3 0x48 DUP2 PUSH3 0xD9 PUSH1 0x20 SHL PUSH1 0x20 SHR JUMP JUMPDEST POP PUSH1 0x1 DUP1 DUP2 SWAP1 SSTORE POP PUSH1 0x4B PUSH1 0x3 PUSH0 ADD DUP2 SWAP1 SSTORE POP PUSH3 0x93A80 PUSH1 0x3 PUSH1 0x1 ADD DUP2 SWAP1 SSTORE POP PUSH4 0x1E13380 PUSH1 0x3 PUSH1 0x2 ADD DUP2 SWAP1 SSTORE POP PUSH3 0x278D00 PUSH1 0x3 DUP1 ADD DUP2 SWAP1 SSTORE POP PUSH3 0x96 PUSH4 0x2625A00 PUSH3 0x19A PUSH1 0x20 SHL PUSH1 0x20 SHR JUMP JUMPDEST PUSH1 0x3 PUSH1 0x4 ADD DUP2 SWAP1 SSTORE POP PUSH3 0xB4 PUSH4 0xBEBC200 PUSH3 0x19A PUSH1 0x20 SHL PUSH1 0x20 SHR JUMP JUMPDEST PUSH1 0x3 PUSH1 0x5 ADD DUP2 SWAP1 SSTORE POP PUSH0 PUSH1 0x3 PUSH1 0x6 ADD DUP2 SWAP1 SSTORE POP PUSH1 0x64 PUSH1 0x3 PUSH1 0x7 ADD DUP2 SWAP1 SSTORE POP POP PUSH3 0x2CD JUMP JUMPDEST PUSH0 DUP1 PUSH0 SWAP1 SLOAD SWAP1 PUSH2 0x100 EXP SWAP1 DIV PUSH20 0xFFFFFFFFFFFFFFFFFFFFFFFFFFFFFFFFFFFFFFFF AND SWAP1 POP DUP2 PUSH0 DUP1 PUSH2 0x100 EXP DUP2 SLOAD DUP2 PUSH20 0xFFFFFFFFFFFFFFFFFFFFFFFFFFFFFFFFFFFFFFFF MUL NOT AND SWAP1 DUP4 PUSH20 0xFFFFFFFFFFFFFFFFFFFFFFFFFFFFFFFFFFFFFFFF AND MUL OR SWAP1 SSTORE POP DUP2 PUSH20 0xFFFFFFFFFFFFFFFFFFFFFFFFFFFFFFFFFFFFFFFF AND DUP2 PUSH20 0xFFFFFFFFFFFFFFFFFFFFFFFFFFFFFFFFFFFFFFFF AND PUSH32 0x8BE0079C531659141344CD1FD0A4F28419497F9722A3DAAFE3B4186F6B6457E0 PUSH1 0x40 MLOAD PUSH1 0x40 MLOAD DUP1 SWAP2 SUB SWAP1 LOG3 POP POP JUMP JUMPDEST PUSH0 PUSH8 0xDE0B6B3A7640000 DUP3 PUSH3 0x1B1 SWAP2 SWAP1 PUSH3 0x283 JUMP JUMPDEST SWAP1 POP SWAP2 SWAP1 POP JUMP JUMPDEST PUSH0 DUP1 REVERT JUMPDEST PUSH0 PUSH20 0xFFFFFFFFFFFFFFFFFFFFFFFFFFFFFFFFFFFFFFFF DUP3 AND SWAP1 POP SWAP2 SWAP1 POP JUMP JUMPDEST PUSH0 PUSH3 0x1E7 DUP3 PUSH3 0x1BC JUMP JUMPDEST SWAP1 POP SWAP2 SWAP1 POP JUMP JUMPDEST PUSH3 0x1F9 DUP2 PUSH3 0x1DB JUMP JUMPDEST DUP2 EQ PUSH3 0x204 JUMPI PUSH0 DUP1 REVERT JUMPDEST POP JUMP JUMPDEST PUSH0 DUP2 MLOAD SWAP1 POP PUSH3 0x217 DUP2 PUSH3 0x1EE JUMP JUMPDEST SWAP3 SWAP2 POP POP JUMP JUMPDEST PUSH0 PUSH1 0x20 DUP3 DUP5 SUB SLT ISZERO PUSH3 0x235 JUMPI PUSH3 0x234 PUSH3 0x1B8 JUMP JUMPDEST JUMPDEST PUSH0 PUSH3 0x244 DUP5 DUP3 DUP6 ADD PUSH3 0x207 JUMP JUMPDEST SWAP2 POP POP SWAP3 SWAP2 POP POP JUMP JUMPDEST PUSH0 DUP2 SWAP1 POP SWAP2 SWAP1 POP JUMP JUMPDEST PUSH32 0x4E487B7100000000000000000000000000000000000000000000000000000000 PUSH0 MSTORE PUSH1 0x11 PUSH1 0x4 MSTORE PUSH1 0x24 PUSH0 REVERT JUMPDEST PUSH0 PUSH3 0x28F DUP3 PUSH3 0x24D JUMP JUMPDEST SWAP2 POP PUSH3 0x29C DUP4 PUSH3 0x24D JUMP JUMPDEST SWAP3 POP DUP3 DUP3 MUL PUSH3 0x2AC DUP2 PUSH3 0x24D JUMP JUMPDEST SWAP2 POP DUP3 DUP3 DIV DUP5 EQ DUP4 ISZERO OR PUSH3 0x2C6 JUMPI PUSH3 0x2C5 PUSH3 0x256 JUMP JUMPDEST JUMPDEST POP SWAP3 SWAP2 POP POP JUMP JUMPDEST PUSH2 0x2F60 DUP1 PUSH3 0x2DB PUSH0 CODECOPY PUSH0 RETURN INVALID PUSH1 0x80 PUSH1 0x40 MSTORE CALLVALUE DUP1 ISZERO PUSH2 0xF JUMPI PUSH0 DUP1 REVERT JUMPDEST POP PUSH1 0x4 CALLDATASIZE LT PUSH2 0x91 JUMPI PUSH0 CALLDATALOAD PUSH1 0xE0 SHR DUP1 PUSH4 0xA66B9721 GT PUSH2 0x64 JUMPI DUP1 PUSH4 0xA66B9721 EQ PUSH2 0x10B JUMPI DUP1 PUSH4 0xB384ABEF EQ PUSH2 0x13D JUMPI DUP1 PUSH4 0xF2FDE38B EQ PUSH2 0x16D JUMPI DUP1 PUSH4 0xFC8C501E EQ PUSH2 0x189 JUMPI DUP1 PUSH4 0xFE0D94C1 EQ PUSH2 0x1A7 JUMPI PUSH2 0x91 JUMP JUMPDEST DUP1 PUSH4 0x40E58EE5 EQ PUSH2 0x95 JUMPI DUP1 PUSH4 0x715018A6 EQ PUSH2 0xC5 JUMPI DUP1 PUSH4 0x8DA5CB5B EQ PUSH2 0xCF JUMPI DUP1 PUSH4 0x90C63ED4 EQ PUSH2 0xED JUMPI JUMPDEST PUSH0 DUP1 REVERT JUMPDEST PUSH2 0xAF PUSH1 0x4 DUP1 CALLDATASIZE SUB DUP2 ADD SWAP1 PUSH2 0xAA SWAP2 SWAP1 PUSH2 0x1A30 JUMP JUMPDEST PUSH2 0x1D7 JUMP JUMPDEST PUSH1 0x40 MLOAD PUSH2 0xBC SWAP2 SWAP1 PUSH2 0x1A75 JUMP JUMPDEST PUSH1 0x40 MLOAD DUP1 SWAP2 SUB SWAP1 RETURN JUMPDEST PUSH2 0xCD PUSH2 0x202 JUMP JUMPDEST STOP JUMPDEST PUSH2 0xD7 PUSH2 0x215 JUMP JUMPDEST PUSH1 0x40 MLOAD PUSH2 0xE4 SWAP2 SWAP1 PUSH2 0x1ACD JUMP JUMPDEST PUSH1 0x40 MLOAD DUP1 SWAP2 SUB SWAP1 RETURN JUMPDEST PUSH2 0xF5 PUSH2 0x23C JUMP JUMPDEST PUSH1 0x40 MLOAD PUSH2 0x102 SWAP2 SWAP1 PUSH2 0x1AF5 JUMP JUMPDEST PUSH1 0x40 MLOAD DUP1 SWAP2 SUB SWAP1 RETURN JUMPDEST PUSH2 0x125 PUSH1 0x4 DUP1 CALLDATASIZE SUB DUP2 ADD SWAP1 PUSH2 0x120 SWAP2 SWAP1 PUSH2 0x1D3C JUMP JUMPDEST PUSH2 0x272 JUMP JUMPDEST PUSH1 0x40 MLOAD PUSH2 0x134 SWAP4 SWAP3 SWAP2 SWAP1 PUSH2 0x1E54 JUMP JUMPDEST PUSH1 0x40 MLOAD DUP1 SWAP2 SUB SWAP1 RETURN JUMPDEST PUSH2 0x157 PUSH1 0x4 DUP1 CALLDATASIZE SUB DUP2 ADD SWAP1 PUSH2 0x152 SWAP2 SWAP1 PUSH2 0x1E89 JUMP JUMPDEST PUSH2 0x2BF JUMP JUMPDEST PUSH1 0x40 MLOAD PUSH2 0x164 SWAP2 SWAP1 PUSH2 0x1A75 JUMP JUMPDEST PUSH1 0x40 MLOAD DUP1 SWAP2 SUB SWAP1 RETURN JUMPDEST PUSH2 0x187 PUSH1 0x4 DUP1 CALLDATASIZE SUB DUP2 ADD SWAP1 PUSH2 0x182 SWAP2 SWAP1 PUSH2 0x1EC7 JUMP JUMPDEST PUSH2 0x2EC JUMP JUMPDEST STOP JUMPDEST PUSH2 0x191 PUSH2 0x36E JUMP JUMPDEST PUSH1 0x40 MLOAD PUSH2 0x19E SWAP2 SWAP1 PUSH2 0x1AF5 JUMP JUMPDEST PUSH1 0x40 MLOAD DUP1 SWAP2 SUB SWAP1 RETURN JUMPDEST PUSH2 0x1C1 PUSH1 0x4 DUP1 CALLDATASIZE SUB DUP2 ADD SWAP1 PUSH2 0x1BC SWAP2 SWAP1 PUSH2 0x1A30 JUMP JUMPDEST PUSH2 0x379 JUMP JUMPDEST PUSH1 0x40 MLOAD PUSH2 0x1CE SWAP2 SWAP1 PUSH2 0x1A75 JUMP JUMPDEST PUSH1 0x40 MLOAD DUP1 SWAP2 SUB SWAP1 RETURN JUMPDEST PUSH0 PUSH2 0x1E0 PUSH2 0x3A4 JUMP JUMPDEST PUSH2 0x1E8 PUSH2 0x422 JUMP JUMPDEST PUSH2 0x1F1 DUP3 PUSH2 0x471 JUMP JUMPDEST PUSH1 0x1 SWAP1 POP PUSH2 0x1FD PUSH2 0x51E JUMP JUMPDEST SWAP2 SWAP1 POP JUMP JUMPDEST PUSH2 0x20A PUSH2 0x3A4 JUMP JUMPDEST PUSH2 0x213 PUSH0 PUSH2 0x527 JUMP JUMPDEST JUMP JUMPDEST PUSH0 DUP1 PUSH0 SWAP1 SLOAD SWAP1 PUSH2 0x100 EXP SWAP1 DIV PUSH20 0xFFFFFFFFFFFFFFFFFFFFFFFFFFFFFFFFFFFFFFFF AND SWAP1 POP SWAP1 JUMP JUMPDEST PUSH0 DUP1 PUSH2 0x268 PUSH0 PUSH32 0xFFFFFFFFFFFFFFFFFFFFFFFFFFFFFFFFFFFFFFFFFFFFFFFFFFFFFFFFFFFFFFFF PUSH2 0x5E8 JUMP JUMPDEST SWAP2 POP POP DUP1 SWAP2 POP POP SWAP1 JUMP JUMPDEST PUSH0 DUP1 PUSH0 PUSH2 0x27D PUSH2 0x3A4 JUMP JUMPDEST PUSH2 0x285 PUSH2 0x422 JUMP JUMPDEST PUSH0 DUP1 PUSH2 0x298 DUP15 DUP15 DUP15 DUP15 DUP15 DUP15 DUP15 DUP15 DUP15 PUSH2 0x6DE JUMP JUMPDEST SWAP2 POP SWAP2 POP PUSH1 0x1 DUP3 DUP3 SWAP5 POP SWAP5 POP SWAP5 POP POP POP PUSH2 0x2B0 PUSH2 0x51E JUMP JUMPDEST SWAP10 POP SWAP10 POP SWAP10 SWAP7 POP POP POP POP POP POP POP JUMP JUMPDEST PUSH0 PUSH2 0x2C8 PUSH2 0x3A4 JUMP JUMPDEST PUSH2 0x2D0 PUSH2 0x422 JUMP JUMPDEST PUSH2 0x2DA DUP4 DUP4 PUSH2 0xC75 JUMP JUMPDEST PUSH1 0x1 SWAP1 POP PUSH2 0x2E6 PUSH2 0x51E JUMP JUMPDEST SWAP3 SWAP2 POP POP JUMP JUMPDEST PUSH2 0x2F4 PUSH2 0x3A4 JUMP JUMPDEST PUSH0 PUSH20 0xFFFFFFFFFFFFFFFFFFFFFFFFFFFFFFFFFFFFFFFF AND DUP2 PUSH20 0xFFFFFFFFFFFFFFFFFFFFFFFFFFFFFFFFFFFFFFFF AND SUB PUSH2 0x362 JUMPI PUSH1 0x40 MLOAD PUSH32 0x8C379A000000000000000000000000000000000000000000000000000000000 DUP2 MSTORE PUSH1 0x4 ADD PUSH2 0x359 SWAP1 PUSH2 0x1F72 JUMP JUMPDEST PUSH1 0x40 MLOAD DUP1 SWAP2 SUB SWAP1 REVERT JUMPDEST PUSH2 0x36B DUP2 PUSH2 0x527 JUMP JUMPDEST POP JUMP JUMPDEST PUSH0 PUSH1 0x2 PUSH0 ADD SLOAD SWAP1 POP SWAP1 JUMP JUMPDEST PUSH0 PUSH2 0x382 PUSH2 0x3A4 JUMP JUMPDEST PUSH2 0x38A PUSH2 0x422 JUMP JUMPDEST PUSH2 0x393 DUP3 PUSH2 0x1655 JUMP JUMPDEST PUSH1 0x1 SWAP1 POP PUSH2 0x39F PUSH2 0x51E JUMP JUMPDEST SWAP2 SWAP1 POP JUMP JUMPDEST PUSH2 0x3AC PUSH2 0x1703 JUMP JUMPDEST PUSH20 0xFFFFFFFFFFFFFFFFFFFFFFFFFFFFFFFFFFFFFFFF AND PUSH2 0x3CA PUSH2 0x215 JUMP JUMPDEST PUSH20 0xFFFFFFFFFFFFFFFFFFFFFFFFFFFFFFFFFFFFFFFF AND EQ PUSH2 0x420 JUMPI PUSH1 0x40 MLOAD PUSH32 0x8C379A000000000000000000000000000000000000000000000000000000000 DUP2 MSTORE PUSH1 0x4 ADD PUSH2 0x417 SWAP1 PUSH2 0x1FDA JUMP JUMPDEST PUSH1 0x40 MLOAD DUP1 SWAP2 SUB SWAP1 REVERT JUMPDEST JUMP JUMPDEST PUSH1 0x2 PUSH1 0x1 SLOAD SUB PUSH2 0x467 JUMPI PUSH1 0x40 MLOAD PUSH32 0x8C379A000000000000000000000000000000000000000000000000000000000 DUP2 MSTORE PUSH1 0x4 ADD PUSH2 0x45E SWAP1 PUSH2 0x2042 JUMP JUMPDEST PUSH1 0x40 MLOAD DUP1 SWAP2 SUB SWAP1 REVERT JUMPDEST PUSH1 0x2 PUSH1 0x1 DUP2 SWAP1 SSTORE POP JUMP JUMPDEST PUSH2 0x47A DUP2 PUSH2 0x170A JUMP JUMPDEST PUSH2 0x483 DUP2 PUSH2 0x1761 JUMP JUMPDEST PUSH2 0x48C DUP2 PUSH2 0x17C6 JUMP JUMPDEST PUSH2 0x495 DUP2 PUSH2 0x182A JUMP JUMPDEST PUSH2 0x49E DUP2 PUSH2 0x188F JUMP JUMPDEST PUSH0 PUSH1 0xC PUSH0 DUP4 DUP2 MSTORE PUSH1 0x20 ADD SWAP1 DUP2 MSTORE PUSH1 0x20 ADD PUSH0 KECCAK256 SWAP1 POP PUSH1 0x1 DUP2 PUSH1 0xD ADD PUSH0 PUSH2 0x100 EXP DUP2 SLOAD DUP2 PUSH1 0xFF MUL NOT AND SWAP1 DUP4 ISZERO ISZERO MUL OR SWAP1 SSTORE POP TIMESTAMP PUSH2 0x4D7 PUSH2 0x1703 JUMP JUMPDEST PUSH20 0xFFFFFFFFFFFFFFFFFFFFFFFFFFFFFFFFFFFFFFFF AND DUP4 PUSH32 0xAA17FDF5FFB610A4CC0887F35C13C501975A370005080F68441055871952EB81 PUSH1 0x40 MLOAD PUSH1 0x40 MLOAD DUP1 SWAP2 SUB SWAP1 LOG4 POP POP JUMP JUMPDEST PUSH1 0x1 DUP1 DUP2 SWAP1 SSTORE POP JUMP JUMPDEST PUSH0 DUP1 PUSH0 SWAP1 SLOAD SWAP1 PUSH2 0x100 EXP SWAP1 DIV PUSH20 0xFFFFFFFFFFFFFFFFFFFFFFFFFFFFFFFFFFFFFFFF AND SWAP1 POP DUP2 PUSH0 DUP1 PUSH2 0x100 EXP DUP2 SLOAD DUP2 PUSH20 0xFFFFFFFFFFFFFFFFFFFFFFFFFFFFFFFFFFFFFFFF MUL NOT AND SWAP1 DUP4 PUSH20 0xFFFFFFFFFFFFFFFFFFFFFFFFFFFFFFFFFFFFFFFF AND MUL OR SWAP1 SSTORE POP DUP2 PUSH20 0xFFFFFFFFFFFFFFFFFFFFFFFFFFFFFFFFFFFFFFFF AND DUP2 PUSH20 0xFFFFFFFFFFFFFFFFFFFFFFFFFFFFFFFFFFFFFFFF AND PUSH32 0x8BE0079C531659141344CD1FD0A4F28419497F9722A3DAAFE3B4186F6B6457E0 PUSH1 0x40 MLOAD PUSH1 0x40 MLOAD DUP1 SWAP2 SUB SWAP1 LOG3 POP POP JUMP JUMPDEST PUSH0 DUP1 PUSH0 DUP1 PUSH0 PUSH1 0x1 SWAP1 POP JUMPDEST PUSH1 0x2 PUSH0 ADD SLOAD DUP2 LT ISZERO PUSH2 0x6C3 JUMPI PUSH0 PUSH1 0xC PUSH0 DUP4 DUP2 MSTORE PUSH1 0x20 ADD SWAP1 DUP2 MSTORE PUSH1 0x20 ADD PUSH0 KECCAK256 SWAP1 POP DUP1 PUSH1 0x4 ADD SLOAD DUP9 LT ISZERO DUP1 ISZERO PUSH2 0x62A JUMPI POP DUP1 PUSH1 0x5 ADD SLOAD DUP8 GT ISZERO JUMPDEST DUP1 ISZERO PUSH2 0x649 JUMPI POP PUSH0 ISZERO ISZERO DUP2 PUSH1 0xD ADD PUSH0 SWAP1 SLOAD SWAP1 PUSH2 0x100 EXP SWAP1 DIV PUSH1 0xFF AND ISZERO ISZERO EQ JUMPDEST DUP1 ISZERO PUSH2 0x669 JUMPI POP PUSH0 ISZERO ISZERO DUP2 PUSH1 0xD ADD PUSH1 0x1 SWAP1 SLOAD SWAP1 PUSH2 0x100 EXP SWAP1 DIV PUSH1 0xFF AND ISZERO ISZERO EQ JUMPDEST DUP1 ISZERO PUSH2 0x689 JUMPI POP PUSH0 ISZERO ISZERO DUP2 PUSH1 0xD ADD PUSH1 0x2 SWAP1 SLOAD SWAP1 PUSH2 0x100 EXP SWAP1 DIV PUSH1 0xFF AND ISZERO ISZERO EQ JUMPDEST ISZERO PUSH2 0x6AF JUMPI DUP4 DUP1 PUSH2 0x699 SWAP1 PUSH2 0x208D JUMP JUMPDEST SWAP5 POP POP DUP1 PUSH1 0x7 ADD SLOAD DUP4 PUSH2 0x6AC SWAP2 SWAP1 PUSH2 0x20D4 JUMP JUMPDEST SWAP3 POP JUMPDEST POP DUP1 DUP1 PUSH2 0x6BB SWAP1 PUSH2 0x208D JUMP JUMPDEST SWAP2 POP POP PUSH2 0x5F2 JUMP JUMPDEST POP DUP2 DUP2 PUSH2 0x6D0 SWAP2 SWAP1 PUSH2 0x2134 JUMP JUMPDEST DUP3 SWAP4 POP SWAP4 POP POP POP SWAP3 POP SWAP3 SWAP1 POP JUMP JUMPDEST PUSH0 DUP1 PUSH0 TIMESTAMP SWAP1 POP PUSH0 PUSH20 0xFFFFFFFFFFFFFFFFFFFFFFFFFFFFFFFFFFFFFFFF AND PUSH2 0x703 PUSH2 0x1703 JUMP JUMPDEST PUSH20 0xFFFFFFFFFFFFFFFFFFFFFFFFFFFFFFFFFFFFFFFF AND SUB PUSH2 0x759 JUMPI PUSH1 0x40 MLOAD PUSH32 0x8C379A000000000000000000000000000000000000000000000000000000000 DUP2 MSTORE PUSH1 0x4 ADD PUSH2 0x750 SWAP1 PUSH2 0x21D4 JUMP JUMPDEST PUSH1 0x40 MLOAD DUP1 SWAP2 SUB SWAP1 REVERT JUMPDEST DUP11 DUP2 LT ISZERO PUSH2 0x79C JUMPI PUSH1 0x40 MLOAD PUSH32 0x8C379A000000000000000000000000000000000000000000000000000000000 DUP2 MSTORE PUSH1 0x4 ADD PUSH2 0x793 SWAP1 PUSH2 0x2262 JUMP JUMPDEST PUSH1 0x40 MLOAD DUP1 SWAP2 SUB SWAP1 REVERT JUMPDEST PUSH1 0x3 PUSH1 0x1 ADD SLOAD DUP11 LT ISZERO DUP1 ISZERO PUSH2 0x7B6 JUMPI POP PUSH1 0x3 PUSH1 0x2 ADD SLOAD DUP11 GT ISZERO JUMPDEST PUSH2 0x7F5 JUMPI PUSH1 0x40 MLOAD PUSH32 0x8C379A000000000000000000000000000000000000000000000000000000000 DUP2 MSTORE PUSH1 0x4 ADD PUSH2 0x7EC SWAP1 PUSH2 0x22F0 JUMP JUMPDEST PUSH1 0x40 MLOAD DUP1 SWAP2 SUB SWAP1 REVERT JUMPDEST PUSH0 PUSH20 0xFFFFFFFFFFFFFFFFFFFFFFFFFFFFFFFFFFFFFFFF AND DUP7 PUSH20 0xFFFFFFFFFFFFFFFFFFFFFFFFFFFFFFFFFFFFFFFF AND SUB PUSH2 0x863 JUMPI PUSH1 0x40 MLOAD PUSH32 0x8C379A000000000000000000000000000000000000000000000000000000000 DUP2 MSTORE PUSH1 0x4 ADD PUSH2 0x85A SWAP1 PUSH2 0x2358 JUMP JUMPDEST PUSH1 0x40 MLOAD DUP1 SWAP2 SUB SWAP1 REVERT JUMPDEST PUSH1 0xF PUSH0 DUP8 PUSH20 0xFFFFFFFFFFFFFFFFFFFFFFFFFFFFFFFFFFFFFFFF AND PUSH20 0xFFFFFFFFFFFFFFFFFFFFFFFFFFFFFFFFFFFFFFFF AND DUP2 MSTORE PUSH1 0x20 ADD SWAP1 DUP2 MSTORE PUSH1 0x20 ADD PUSH0 KECCAK256 PUSH0 SWAP1 SLOAD SWAP1 PUSH2 0x100 EXP SWAP1 DIV PUSH1 0xFF AND PUSH2 0x8EC JUMPI PUSH1 0x40 MLOAD PUSH32 0x8C379A000000000000000000000000000000000000000000000000000000000 DUP2 MSTORE PUSH1 0x4 ADD PUSH2 0x8E3 SWAP1 PUSH2 0x23E6 JUMP JUMPDEST PUSH1 0x40 MLOAD DUP1 SWAP2 SUB SWAP1 REVERT JUMPDEST PUSH1 0x3 PUSH1 0x6 ADD SLOAD DUP9 LT ISZERO DUP1 ISZERO PUSH2 0x906 JUMPI POP PUSH1 0x3 PUSH1 0x7 ADD SLOAD DUP9 GT ISZERO JUMPDEST PUSH2 0x90E JUMPI PUSH0 DUP1 REVERT JUMPDEST PUSH1 0x2 PUSH0 ADD PUSH0 DUP2 SLOAD DUP1 SWAP3 SWAP2 SWAP1 PUSH2 0x922 SWAP1 PUSH2 0x208D JUMP JUMPDEST SWAP2 SWAP1 POP SSTORE POP PUSH0 PUSH1 0x2 PUSH0 ADD SLOAD SWAP1 POP PUSH0 PUSH1 0xC PUSH0 DUP4 DUP2 MSTORE PUSH1 0x20 ADD SWAP1 DUP2 MSTORE PUSH1 0x20 ADD PUSH0 KECCAK256 SWAP1 POP DUP2 DUP2 PUSH0 ADD DUP2 SWAP1 SSTORE POP PUSH1 0x3 PUSH1 0x8 ADD PUSH0 SWAP1 SLOAD SWAP1 PUSH2 0x100 EXP SWAP1 DIV PUSH20 0xFFFFFFFFFFFFFFFFFFFFFFFFFFFFFFFFFFFFFFFF AND PUSH20 0xFFFFFFFFFFFFFFFFFFFFFFFFFFFFFFFFFFFFFFFF AND PUSH4 0x9711715A PUSH1 0x40 MLOAD DUP2 PUSH4 0xFFFFFFFF AND PUSH1 0xE0 SHL DUP2 MSTORE PUSH1 0x4 ADD PUSH1 0x20 PUSH1 0x40 MLOAD DUP1 DUP4 SUB DUP2 PUSH0 DUP8 GAS CALL ISZERO DUP1 ISZERO PUSH2 0x9B9 JUMPI RETURNDATASIZE PUSH0 DUP1 RETURNDATACOPY RETURNDATASIZE PUSH0 REVERT JUMPDEST POP POP POP POP PUSH1 0x40 MLOAD RETURNDATASIZE PUSH1 0x1F NOT PUSH1 0x1F DUP3 ADD AND DUP3 ADD DUP1 PUSH1 0x40 MSTORE POP DUP2 ADD SWAP1 PUSH2 0x9DD SWAP2 SWAP1 PUSH2 0x2418 JUMP JUMPDEST DUP2 PUSH1 0x1 ADD DUP2 SWAP1 SSTORE POP PUSH2 0x9ED PUSH2 0x1703 JUMP JUMPDEST DUP2 PUSH1 0x2 ADD PUSH0 PUSH2 0x100 EXP DUP2 SLOAD DUP2 PUSH20 0xFFFFFFFFFFFFFFFFFFFFFFFFFFFFFFFFFFFFFFFF MUL NOT AND SWAP1 DUP4 PUSH20 0xFFFFFFFFFFFFFFFFFFFFFFFFFFFFFFFFFFFFFFFF AND MUL OR SWAP1 SSTORE POP DUP14 DUP2 PUSH1 0x3 ADD SWAP1 DUP2 PUSH2 0xA3F SWAP2 SWAP1 PUSH2 0x2647 JUMP JUMPDEST POP PUSH0 DUP14 SUB PUSH2 0xA4F JUMPI DUP3 SWAP13 POP PUSH2 0xA59 JUMP JUMPDEST DUP13 DUP2 PUSH1 0x4 ADD DUP2 SWAP1 SSTORE POP JUMPDEST PUSH0 DUP13 SUB PUSH2 0xA6D JUMPI PUSH1 0x3 PUSH1 0x1 ADD SLOAD SWAP12 POP PUSH2 0xA77 JUMP JUMPDEST DUP12 DUP2 PUSH1 0x6 ADD DUP2 SWAP1 SSTORE POP JUMPDEST DUP1 PUSH1 0x6 ADD SLOAD DUP2 PUSH1 0x4 ADD SLOAD PUSH2 0xA8B SWAP2 SWAP1 PUSH2 0x20D4 JUMP JUMPDEST DUP2 PUSH1 0x5 ADD DUP2 SWAP1 SSTORE POP PUSH0 DUP12 SUB PUSH2 0xAF7 JUMPI PUSH0 PUSH2 0xAB4 PUSH1 0x3 DUP1 ADD SLOAD DUP6 PUSH2 0xAAE SWAP2 SWAP1 PUSH2 0x2716 JUMP JUMPDEST DUP6 PUSH2 0x5E8 JUMP JUMPDEST POP SWAP1 POP PUSH1 0x3 PUSH1 0x4 ADD SLOAD DUP2 LT ISZERO PUSH2 0xAD1 JUMPI PUSH1 0x3 PUSH1 0x4 ADD SLOAD SWAP1 POP PUSH2 0xAE8 JUMP JUMPDEST PUSH1 0x3 PUSH1 0x5 ADD SLOAD DUP2 GT ISZERO PUSH2 0xAE7 JUMPI PUSH1 0x3 PUSH1 0x5 ADD SLOAD SWAP1 POP JUMPDEST JUMPDEST DUP1 DUP3 PUSH1 0x8 ADD DUP2 SWAP1 SSTORE POP POP PUSH2 0xB01 JUMP JUMPDEST DUP11 DUP2 PUSH1 0x8 ADD DUP2 SWAP1 SSTORE POP JUMPDEST PUSH0 DUP11 SUB PUSH2 0xB1A JUMPI PUSH1 0x3 PUSH0 ADD SLOAD DUP2 PUSH1 0xC ADD DUP2 SWAP1 SSTORE POP PUSH2 0xB24 JUMP JUMPDEST DUP10 DUP2 PUSH1 0xC ADD DUP2 SWAP1 SSTORE POP JUMPDEST DUP9 DUP2 PUSH1 0xD ADD PUSH1 0x3 PUSH2 0x100 EXP DUP2 SLOAD DUP2 PUSH1 0xFF MUL NOT AND SWAP1 DUP4 ISZERO ISZERO MUL OR SWAP1 SSTORE POP DUP7 DUP2 PUSH1 0xE ADD SWAP1 DUP2 PUSH2 0xB51 SWAP2 SWAP1 PUSH2 0x2647 JUMP JUMPDEST POP DUP6 DUP2 PUSH1 0xF ADD SWAP1 DUP2 PUSH2 0xB63 SWAP2 SWAP1 PUSH2 0x27AB JUMP JUMPDEST POP DUP1 PUSH1 0x3 ADD PUSH1 0x40 MLOAD PUSH2 0xB75 SWAP2 SWAP1 PUSH2 0x2904 JUMP JUMPDEST PUSH1 0x40 MLOAD DUP1 SWAP2 SUB SWAP1 KECCAK256 DUP2 PUSH1 0x2 ADD PUSH0 SWAP1 SLOAD SWAP1 PUSH2 0x100 EXP SWAP1 DIV PUSH20 0xFFFFFFFFFFFFFFFFFFFFFFFFFFFFFFFFFFFFFFFF AND PUSH20 0xFFFFFFFFFFFFFFFFFFFFFFFFFFFFFFFFFFFFFFFF AND DUP3 PUSH0 ADD SLOAD PUSH32 0x64B7C32F1F09F7222EAF1BFFC6BE99BE9BD672A228018EE7F160B81F43949E14 DUP5 PUSH1 0x1 ADD SLOAD DUP6 PUSH1 0x4 ADD SLOAD DUP7 PUSH1 0x5 ADD SLOAD DUP8 PUSH1 0x6 ADD SLOAD DUP9 PUSH1 0x8 ADD SLOAD DUP10 PUSH1 0xC ADD SLOAD DUP11 PUSH1 0xD ADD PUSH1 0x3 SWAP1 SLOAD SWAP1 PUSH2 0x100 EXP SWAP1 DIV PUSH1 0xFF AND DUP12 PUSH1 0xD ADD PUSH1 0x4 SWAP1 SLOAD SWAP1 PUSH2 0x100 EXP SWAP1 DIV PUSH20 0xFFFFFFFFFFFFFFFFFFFFFFFFFFFFFFFFFFFFFFFF AND DUP13 PUSH1 0xE ADD DUP14 PUSH1 0xF ADD PUSH1 0x40 MLOAD PUSH2 0xC4F SWAP11 SWAP10 SWAP9 SWAP8 SWAP7 SWAP6 SWAP5 SWAP4 SWAP3 SWAP2 SWAP1 PUSH2 0x2A2C JUMP JUMPDEST PUSH1 0x40 MLOAD DUP1 SWAP2 SUB SWAP1 LOG4 DUP1 PUSH0 ADD SLOAD DUP2 PUSH1 0x1 ADD SLOAD SWAP5 POP SWAP5 POP POP POP POP SWAP10 POP SWAP10 SWAP8 POP POP POP POP POP POP POP POP JUMP JUMPDEST PUSH2 0xC7E DUP3 PUSH2 0x170A JUMP JUMPDEST PUSH2 0xC87 DUP3 PUSH2 0x1761 JUMP JUMPDEST PUSH2 0xC90 DUP3 PUSH2 0x17C6 JUMP JUMPDEST PUSH2 0xC99 DUP3 PUSH2 0x188F JUMP JUMPDEST PUSH0 PUSH1 0xC PUSH0 DUP5 DUP2 MSTORE PUSH1 0x20 ADD SWAP1 DUP2 MSTORE PUSH1 0x20 ADD PUSH0 KECCAK256 SWAP1 POP PUSH0 DUP3 PUSH1 0x2 DUP2 GT ISZERO PUSH2 0xCC1 JUMPI PUSH2 0xCC0 PUSH2 0x2AD4 JUMP JUMPDEST JUMPDEST SWAP1 POP PUSH0 PUSH1 0x3 PUSH1 0x8 ADD PUSH0 SWAP1 SLOAD SWAP1 PUSH2 0x100 EXP SWAP1 DIV PUSH20 0xFFFFFFFFFFFFFFFFFFFFFFFFFFFFFFFFFFFFFFFF AND PUSH20 0xFFFFFFFFFFFFFFFFFFFFFFFFFFFFFFFFFFFFFFFF AND PUSH4 0x9324BFFA PUSH2 0xD0C PUSH2 0x1703 JUMP JUMPDEST DUP6 PUSH1 0x1 ADD SLOAD PUSH1 0x40 MLOAD DUP4 PUSH4 0xFFFFFFFF AND PUSH1 0xE0 SHL DUP2 MSTORE PUSH1 0x4 ADD PUSH2 0xD2E SWAP3 SWAP2 SWAP1 PUSH2 0x2B01 JUMP JUMPDEST PUSH1 0x20 PUSH1 0x40 MLOAD DUP1 DUP4 SUB DUP2 DUP7 GAS STATICCALL ISZERO DUP1 ISZERO PUSH2 0xD49 JUMPI RETURNDATASIZE PUSH0 DUP1 RETURNDATACOPY RETURNDATASIZE PUSH0 REVERT JUMPDEST POP POP POP POP PUSH1 0x40 MLOAD RETURNDATASIZE PUSH1 0x1F NOT PUSH1 0x1F DUP3 ADD AND DUP3 ADD DUP1 PUSH1 0x40 MSTORE POP DUP2 ADD SWAP1 PUSH2 0xD6D SWAP2 SWAP1 PUSH2 0x2418 JUMP JUMPDEST SWAP1 POP PUSH0 TIMESTAMP SWAP1 POP PUSH1 0xE PUSH0 PUSH2 0xD7E PUSH2 0x1703 JUMP JUMPDEST PUSH20 0xFFFFFFFFFFFFFFFFFFFFFFFFFFFFFFFFFFFFFFFF AND PUSH20 0xFFFFFFFFFFFFFFFFFFFFFFFFFFFFFFFFFFFFFFFF AND DUP2 MSTORE PUSH1 0x20 ADD SWAP1 DUP2 MSTORE PUSH1 0x20 ADD PUSH0 KECCAK256 PUSH0 DUP8 DUP2 MSTORE PUSH1 0x20 ADD SWAP1 DUP2 MSTORE PUSH1 0x20 ADD PUSH0 KECCAK256 PUSH0 SWAP1 SLOAD SWAP1 PUSH2 0x100 EXP SWAP1 DIV PUSH1 0xFF AND ISZERO PUSH2 0x1224 JUMPI PUSH0 PUSH1 0x2 DUP2 GT ISZERO PUSH2 0xDEB JUMPI PUSH2 0xDEA PUSH2 0x2AD4 JUMP JUMPDEST JUMPDEST PUSH1 0xD PUSH0 PUSH2 0xDF6 PUSH2 0x1703 JUMP JUMPDEST PUSH20 0xFFFFFFFFFFFFFFFFFFFFFFFFFFFFFFFFFFFFFFFF AND PUSH20 0xFFFFFFFFFFFFFFFFFFFFFFFFFFFFFFFFFFFFFFFF AND DUP2 MSTORE PUSH1 0x20 ADD SWAP1 DUP2 MSTORE PUSH1 0x20 ADD PUSH0 KECCAK256 PUSH0 DUP9 DUP2 MSTORE PUSH1 0x20 ADD SWAP1 DUP2 MSTORE PUSH1 0x20 ADD PUSH0 KECCAK256 PUSH0 SWAP1 SLOAD SWAP1 PUSH2 0x100 EXP SWAP1 DIV PUSH1 0xFF AND PUSH1 0x2 DUP2 GT ISZERO PUSH2 0xE5D JUMPI PUSH2 0xE5C PUSH2 0x2AD4 JUMP JUMPDEST JUMPDEST SUB PUSH2 0xE81 JUMPI DUP2 DUP5 PUSH1 0xB ADD PUSH0 DUP3 DUP3 SLOAD PUSH2 0xE75 SWAP2 SWAP1 PUSH2 0x2716 JUMP JUMPDEST SWAP3 POP POP DUP2 SWAP1 SSTORE POP PUSH2 0xFD2 JUMP JUMPDEST PUSH1 0x1 PUSH1 0x2 DUP2 GT ISZERO PUSH2 0xE95 JUMPI PUSH2 0xE94 PUSH2 0x2AD4 JUMP JUMPDEST JUMPDEST PUSH1 0xD PUSH0 PUSH2 0xEA0 PUSH2 0x1703 JUMP JUMPDEST PUSH20 0xFFFFFFFFFFFFFFFFFFFFFFFFFFFFFFFFFFFFFFFF AND PUSH20 0xFFFFFFFFFFFFFFFFFFFFFFFFFFFFFFFFFFFFFFFF AND DUP2 MSTORE PUSH1 0x20 ADD SWAP1 DUP2 MSTORE PUSH1 0x20 ADD PUSH0 KECCAK256 PUSH0 DUP9 DUP2 MSTORE PUSH1 0x20 ADD SWAP1 DUP2 MSTORE PUSH1 0x20 ADD PUSH0 KECCAK256 PUSH0 SWAP1 SLOAD SWAP1 PUSH2 0x100 EXP SWAP1 DIV PUSH1 0xFF AND PUSH1 0x2 DUP2 GT ISZERO PUSH2 0xF07 JUMPI PUSH2 0xF06 PUSH2 0x2AD4 JUMP JUMPDEST JUMPDEST SUB PUSH2 0xF2B JUMPI DUP2 DUP5 PUSH1 0x9 ADD PUSH0 DUP3 DUP3 SLOAD PUSH2 0xF1F SWAP2 SWAP1 PUSH2 0x2716 JUMP JUMPDEST SWAP3 POP POP DUP2 SWAP1 SSTORE POP PUSH2 0xFD1 JUMP JUMPDEST PUSH1 0x2 DUP1 DUP2 GT ISZERO PUSH2 0xF3E JUMPI PUSH2 0xF3D PUSH2 0x2AD4 JUMP JUMPDEST JUMPDEST PUSH1 0xD PUSH0 PUSH2 0xF49 PUSH2 0x1703 JUMP JUMPDEST PUSH20 0xFFFFFFFFFFFFFFFFFFFFFFFFFFFFFFFFFFFFFFFF AND PUSH20 0xFFFFFFFFFFFFFFFFFFFFFFFFFFFFFFFFFFFFFFFF AND DUP2 MSTORE PUSH1 0x20 ADD SWAP1 DUP2 MSTORE PUSH1 0x20 ADD PUSH0 KECCAK256 PUSH0 DUP9 DUP2 MSTORE PUSH1 0x20 ADD SWAP1 DUP2 MSTORE PUSH1 0x20 ADD PUSH0 KECCAK256 PUSH0 SWAP1 SLOAD SWAP1 PUSH2 0x100 EXP SWAP1 DIV PUSH1 0xFF AND PUSH1 0x2 DUP2 GT ISZERO PUSH2 0xFB0 JUMPI PUSH2 0xFAF PUSH2 0x2AD4 JUMP JUMPDEST JUMPDEST SUB PUSH2 0xFD0 JUMPI DUP2 DUP5 PUSH1 0xA ADD PUSH0 DUP3 DUP3 SLOAD PUSH2 0xFC8 SWAP2 SWAP1 PUSH2 0x2716 JUMP JUMPDEST SWAP3 POP POP DUP2 SWAP1 SSTORE POP JUMPDEST JUMPDEST JUMPDEST PUSH0 PUSH1 0x2 DUP2 GT ISZERO PUSH2 0xFE5 JUMPI PUSH2 0xFE4 PUSH2 0x2AD4 JUMP JUMPDEST JUMPDEST DUP4 PUSH1 0x2 DUP2 GT ISZERO PUSH2 0xFF8 JUMPI PUSH2 0xFF7 PUSH2 0x2AD4 JUMP JUMPDEST JUMPDEST SUB PUSH2 0x1096 JUMPI PUSH0 PUSH1 0xD PUSH0 PUSH2 0x1009 PUSH2 0x1703 JUMP JUMPDEST PUSH20 0xFFFFFFFFFFFFFFFFFFFFFFFFFFFFFFFFFFFFFFFF AND PUSH20 0xFFFFFFFFFFFFFFFFFFFFFFFFFFFFFFFFFFFFFFFF AND DUP2 MSTORE PUSH1 0x20 ADD SWAP1 DUP2 MSTORE PUSH1 0x20 ADD PUSH0 KECCAK256 PUSH0 DUP9 DUP2 MSTORE PUSH1 0x20 ADD SWAP1 DUP2 MSTORE PUSH1 0x20 ADD PUSH0 KECCAK256 PUSH0 PUSH2 0x100 EXP DUP2 SLOAD DUP2 PUSH1 0xFF MUL NOT AND SWAP1 DUP4 PUSH1 0x2 DUP2 GT ISZERO PUSH2 0x1072 JUMPI PUSH2 0x1071 PUSH2 0x2AD4 JUMP JUMPDEST JUMPDEST MUL OR SWAP1 SSTORE POP DUP2 DUP5 PUSH1 0xB ADD PUSH0 DUP3 DUP3 SLOAD PUSH2 0x108A SWAP2 SWAP1 PUSH2 0x20D4 JUMP JUMPDEST SWAP3 POP POP DUP2 SWAP1 SSTORE POP PUSH2 0x121F JUMP JUMPDEST PUSH1 0x1 PUSH1 0x2 DUP2 GT ISZERO PUSH2 0x10AA JUMPI PUSH2 0x10A9 PUSH2 0x2AD4 JUMP JUMPDEST JUMPDEST DUP4 PUSH1 0x2 DUP2 GT ISZERO PUSH2 0x10BD JUMPI PUSH2 0x10BC PUSH2 0x2AD4 JUMP JUMPDEST JUMPDEST SUB PUSH2 0x115C JUMPI PUSH1 0x1 PUSH1 0xD PUSH0 PUSH2 0x10CF PUSH2 0x1703 JUMP JUMPDEST PUSH20 0xFFFFFFFFFFFFFFFFFFFFFFFFFFFFFFFFFFFFFFFF AND PUSH20 0xFFFFFFFFFFFFFFFFFFFFFFFFFFFFFFFFFFFFFFFF AND DUP2 MSTORE PUSH1 0x20 ADD SWAP1 DUP2 MSTORE PUSH1 0x20 ADD PUSH0 KECCAK256 PUSH0 DUP9 DUP2 MSTORE PUSH1 0x20 ADD SWAP1 DUP2 MSTORE PUSH1 0x20 ADD PUSH0 KECCAK256 PUSH0 PUSH2 0x100 EXP DUP2 SLOAD DUP2 PUSH1 0xFF MUL NOT AND SWAP1 DUP4 PUSH1 0x2 DUP2 GT ISZERO PUSH2 0x1138 JUMPI PUSH2 0x1137 PUSH2 0x2AD4 JUMP JUMPDEST JUMPDEST MUL OR SWAP1 SSTORE POP DUP2 DUP5 PUSH1 0x9 ADD PUSH0 DUP3 DUP3 SLOAD PUSH2 0x1150 SWAP2 SWAP1 PUSH2 0x20D4 JUMP JUMPDEST SWAP3 POP POP DUP2 SWAP1 SSTORE POP PUSH2 0x121E JUMP JUMPDEST PUSH1 0x2 DUP1 DUP2 GT ISZERO PUSH2 0x116F JUMPI PUSH2 0x116E PUSH2 0x2AD4 JUMP JUMPDEST JUMPDEST DUP4 PUSH1 0x2 DUP2 GT ISZERO PUSH2 0x1182 JUMPI PUSH2 0x1181 PUSH2 0x2AD4 JUMP JUMPDEST JUMPDEST SUB PUSH2 0x121D JUMPI PUSH1 0x2 PUSH1 0xD PUSH0 PUSH2 0x1194 PUSH2 0x1703 JUMP JUMPDEST PUSH20 0xFFFFFFFFFFFFFFFFFFFFFFFFFFFFFFFFFFFFFFFF AND PUSH20 0xFFFFFFFFFFFFFFFFFFFFFFFFFFFFFFFFFFFFFFFF AND DUP2 MSTORE PUSH1 0x20 ADD SWAP1 DUP2 MSTORE PUSH1 0x20 ADD PUSH0 KECCAK256 PUSH0 DUP9 DUP2 MSTORE PUSH1 0x20 ADD SWAP1 DUP2 MSTORE PUSH1 0x20 ADD PUSH0 KECCAK256 PUSH0 PUSH2 0x100 EXP DUP2 SLOAD DUP2 PUSH1 0xFF MUL NOT AND SWAP1 DUP4 PUSH1 0x2 DUP2 GT ISZERO PUSH2 0x11FD JUMPI PUSH2 0x11FC PUSH2 0x2AD4 JUMP JUMPDEST JUMPDEST MUL OR SWAP1 SSTORE POP DUP2 DUP5 PUSH1 0xA ADD PUSH0 DUP3 DUP3 SLOAD PUSH2 0x1215 SWAP2 SWAP1 PUSH2 0x20D4 JUMP JUMPDEST SWAP3 POP POP DUP2 SWAP1 SSTORE POP JUMPDEST JUMPDEST JUMPDEST PUSH2 0x14F7 JUMP JUMPDEST PUSH1 0x1 PUSH1 0xE PUSH0 PUSH2 0x1231 PUSH2 0x1703 JUMP JUMPDEST PUSH20 0xFFFFFFFFFFFFFFFFFFFFFFFFFFFFFFFFFFFFFFFF AND PUSH20 0xFFFFFFFFFFFFFFFFFFFFFFFFFFFFFFFFFFFFFFFF AND DUP2 MSTORE PUSH1 0x20 ADD SWAP1 DUP2 MSTORE PUSH1 0x20 ADD PUSH0 KECCAK256 PUSH0 DUP9 DUP2 MSTORE PUSH1 0x20 ADD SWAP1 DUP2 MSTORE PUSH1 0x20 ADD PUSH0 KECCAK256 PUSH0 PUSH2 0x100 EXP DUP2 SLOAD DUP2 PUSH1 0xFF MUL NOT AND SWAP1 DUP4 ISZERO ISZERO MUL OR SWAP1 SSTORE POP DUP2 DUP5 PUSH1 0x7 ADD PUSH0 DUP3 DUP3 SLOAD PUSH2 0x12A2 SWAP2 SWAP1 PUSH2 0x20D4 JUMP JUMPDEST SWAP3 POP POP DUP2 SWAP1 SSTORE POP PUSH0 PUSH1 0x2 DUP2 GT ISZERO PUSH2 0x12BC JUMPI PUSH2 0x12BB PUSH2 0x2AD4 JUMP JUMPDEST JUMPDEST DUP4 PUSH1 0x2 DUP2 GT ISZERO PUSH2 0x12CF JUMPI PUSH2 0x12CE PUSH2 0x2AD4 JUMP JUMPDEST JUMPDEST SUB PUSH2 0x136D JUMPI PUSH0 PUSH1 0xD PUSH0 PUSH2 0x12E0 PUSH2 0x1703 JUMP JUMPDEST PUSH20 0xFFFFFFFFFFFFFFFFFFFFFFFFFFFFFFFFFFFFFFFF AND PUSH20 0xFFFFFFFFFFFFFFFFFFFFFFFFFFFFFFFFFFFFFFFF AND DUP2 MSTORE PUSH1 0x20 ADD SWAP1 DUP2 MSTORE PUSH1 0x20 ADD PUSH0 KECCAK256 PUSH0 DUP9 DUP2 MSTORE PUSH1 0x20 ADD SWAP1 DUP2 MSTORE PUSH1 0x20 ADD PUSH0 KECCAK256 PUSH0 PUSH2 0x100 EXP DUP2 SLOAD DUP2 PUSH1 0xFF MUL NOT AND SWAP1 DUP4 PUSH1 0x2 DUP2 GT ISZERO PUSH2 0x1349 JUMPI PUSH2 0x1348 PUSH2 0x2AD4 JUMP JUMPDEST JUMPDEST MUL OR SWAP1 SSTORE POP DUP2 DUP5 PUSH1 0xB ADD PUSH0 DUP3 DUP3 SLOAD PUSH2 0x1361 SWAP2 SWAP1 PUSH2 0x20D4 JUMP JUMPDEST SWAP3 POP POP DUP2 SWAP1 SSTORE POP PUSH2 0x14F6 JUMP JUMPDEST PUSH1 0x1 PUSH1 0x2 DUP2 GT ISZERO PUSH2 0x1381 JUMPI PUSH2 0x1380 PUSH2 0x2AD4 JUMP JUMPDEST JUMPDEST DUP4 PUSH1 0x2 DUP2 GT ISZERO PUSH2 0x1394 JUMPI PUSH2 0x1393 PUSH2 0x2AD4 JUMP JUMPDEST JUMPDEST SUB PUSH2 0x1433 JUMPI PUSH1 0x1 PUSH1 0xD PUSH0 PUSH2 0x13A6 PUSH2 0x1703 JUMP JUMPDEST PUSH20 0xFFFFFFFFFFFFFFFFFFFFFFFFFFFFFFFFFFFFFFFF AND PUSH20 0xFFFFFFFFFFFFFFFFFFFFFFFFFFFFFFFFFFFFFFFF AND DUP2 MSTORE PUSH1 0x20 ADD SWAP1 DUP2 MSTORE PUSH1 0x20 ADD PUSH0 KECCAK256 PUSH0 DUP9 DUP2 MSTORE PUSH1 0x20 ADD SWAP1 DUP2 MSTORE PUSH1 0x20 ADD PUSH0 KECCAK256 PUSH0 PUSH2 0x100 EXP DUP2 SLOAD DUP2 PUSH1 0xFF MUL NOT AND SWAP1 DUP4 PUSH1 0x2 DUP2 GT ISZERO PUSH2 0x140F JUMPI PUSH2 0x140E PUSH2 0x2AD4 JUMP JUMPDEST JUMPDEST MUL OR SWAP1 SSTORE POP DUP2 DUP5 PUSH1 0x9 ADD PUSH0 DUP3 DUP3 SLOAD PUSH2 0x1427 SWAP2 SWAP1 PUSH2 0x20D4 JUMP JUMPDEST SWAP3 POP POP DUP2 SWAP1 SSTORE POP PUSH2 0x14F5 JUMP JUMPDEST PUSH1 0x2 DUP1 DUP2 GT ISZERO PUSH2 0x1446 JUMPI PUSH2 0x1445 PUSH2 0x2AD4 JUMP JUMPDEST JUMPDEST DUP4 PUSH1 0x2 DUP2 GT ISZERO PUSH2 0x1459 JUMPI PUSH2 0x1458 PUSH2 0x2AD4 JUMP JUMPDEST JUMPDEST SUB PUSH2 0x14F4 JUMPI PUSH1 0x2 PUSH1 0xD PUSH0 PUSH2 0x146B PUSH2 0x1703 JUMP JUMPDEST PUSH20 0xFFFFFFFFFFFFFFFFFFFFFFFFFFFFFFFFFFFFFFFF AND PUSH20 0xFFFFFFFFFFFFFFFFFFFFFFFFFFFFFFFFFFFFFFFF AND DUP2 MSTORE PUSH1 0x20 ADD SWAP1 DUP2 MSTORE PUSH1 0x20 ADD PUSH0 KECCAK256 PUSH0 DUP9 DUP2 MSTORE PUSH1 0x20 ADD SWAP1 DUP2 MSTORE PUSH1 0x20 ADD PUSH0 KECCAK256 PUSH0 PUSH2 0x100 EXP DUP2 SLOAD DUP2 PUSH1 0xFF MUL NOT AND SWAP1 DUP4 PUSH1 0x2 DUP2 GT ISZERO PUSH2 0x14D4 JUMPI PUSH2 0x14D3 PUSH2 0x2AD4 JUMP JUMPDEST JUMPDEST MUL OR SWAP1 SSTORE POP DUP2 DUP5 PUSH1 0xA ADD PUSH0 DUP3 DUP3 SLOAD PUSH2 0x14EC SWAP2 SWAP1 PUSH2 0x20D4 JUMP JUMPDEST SWAP3 POP POP DUP2 SWAP1 SSTORE POP JUMPDEST JUMPDEST JUMPDEST JUMPDEST DUP2 PUSH2 0x1500 PUSH2 0x1703 JUMP JUMPDEST PUSH20 0xFFFFFFFFFFFFFFFFFFFFFFFFFFFFFFFFFFFFFFFF AND DUP6 PUSH0 ADD SLOAD PUSH32 0xE23E924BFB9C3DA01F0C2CD4EE3F44F74A6991630BC64DB5FD793E08C0B4AFF0 DUP5 PUSH1 0xD PUSH0 PUSH2 0x1547 PUSH2 0x1703 JUMP JUMPDEST PUSH20 0xFFFFFFFFFFFFFFFFFFFFFFFFFFFFFFFFFFFFFFFF AND PUSH20 0xFFFFFFFFFFFFFFFFFFFFFFFFFFFFFFFFFFFFFFFF AND DUP2 MSTORE PUSH1 0x20 ADD SWAP1 DUP2 MSTORE PUSH1 0x20 ADD PUSH0 KECCAK256 PUSH0 DUP13 DUP2 MSTORE PUSH1 0x20 ADD SWAP1 DUP2 MSTORE PUSH1 0x20 ADD PUSH0 KECCAK256 PUSH0 SWAP1 SLOAD SWAP1 PUSH2 0x100 EXP SWAP1 DIV PUSH1 0xFF AND PUSH1 0x40 MLOAD PUSH2 0x15AA SWAP3 SWAP2 SWAP1 PUSH2 0x2B6E JUMP JUMPDEST PUSH1 0x40 MLOAD DUP1 SWAP2 SUB SWAP1 LOG4 PUSH2 0x15BB DUP7 PUSH2 0x18E8 JUMP JUMPDEST DUP1 ISZERO PUSH2 0x15CC JUMPI POP PUSH2 0x15CB DUP7 PUSH2 0x1920 JUMP JUMPDEST JUMPDEST ISZERO PUSH2 0x164D JUMPI PUSH1 0x1 DUP5 PUSH1 0xD ADD PUSH1 0x2 PUSH2 0x100 EXP DUP2 SLOAD DUP2 PUSH1 0xFF MUL NOT AND SWAP1 DUP4 ISZERO ISZERO MUL OR SWAP1 SSTORE POP DUP1 PUSH2 0x15F7 PUSH2 0x1703 JUMP JUMPDEST PUSH20 0xFFFFFFFFFFFFFFFFFFFFFFFFFFFFFFFFFFFFFFFF AND DUP6 PUSH0 ADD SLOAD PUSH32 0x37C8C392E341A19FE40A3C935E07F030699AB0E6F80AA488C980632C5B002109 DUP8 PUSH1 0x7 ADD SLOAD PUSH1 0x40 MLOAD PUSH2 0x1644 SWAP2 SWAP1 PUSH2 0x1AF5 JUMP JUMPDEST PUSH1 0x40 MLOAD DUP1 SWAP2 SUB SWAP1 LOG4 JUMPDEST POP POP POP POP POP POP JUMP JUMPDEST PUSH2 0x165E DUP2 PUSH2 0x170A JUMP JUMPDEST PUSH2 0x1667 DUP2 PUSH2 0x188F JUMP JUMPDEST PUSH2 0x1670 DUP2 PUSH2 0x182A JUMP JUMPDEST PUSH2 0x1679 DUP2 PUSH2 0x1988 JUMP JUMPDEST PUSH2 0x1682 DUP2 PUSH2 0x17C6 JUMP JUMPDEST PUSH0 PUSH1 0xC PUSH0 DUP4 DUP2 MSTORE PUSH1 0x20 ADD SWAP1 DUP2 MSTORE PUSH1 0x20 ADD PUSH0 KECCAK256 SWAP1 POP PUSH1 0x1 DUP2 PUSH1 0xD ADD PUSH1 0x1 PUSH2 0x100 EXP DUP2 SLOAD DUP2 PUSH1 0xFF MUL NOT AND SWAP1 DUP4 ISZERO ISZERO MUL OR SWAP1 SSTORE POP TIMESTAMP PUSH2 0x16BC PUSH2 0x1703 JUMP JUMPDEST PUSH20 0xFFFFFFFFFFFFFFFFFFFFFFFFFFFFFFFFFFFFFFFF AND DUP4 PUSH32 0x12C8907D32B752D626A36CF18F31719E25F1A3B6F750EE948C22C036373D48AA PUSH1 0x40 MLOAD PUSH1 0x40 MLOAD DUP1 SWAP2 SUB SWAP1 LOG4 POP POP JUMP JUMPDEST PUSH0 CALLER SWAP1 POP SWAP1 JUMP JUMPDEST PUSH1 0x1 DUP2 LT ISZERO DUP1 ISZERO PUSH2 0x171F JUMPI POP PUSH1 0x2 PUSH0 ADD SLOAD DUP2 GT ISZERO JUMPDEST PUSH2 0x175E JUMPI PUSH1 0x40 MLOAD PUSH32 0x8C379A000000000000000000000000000000000000000000000000000000000 DUP2 MSTORE PUSH1 0x4 ADD PUSH2 0x1755 SWAP1 PUSH2 0x2C05 JUMP JUMPDEST PUSH1 0x40 MLOAD DUP1 SWAP2 SUB SWAP1 REVERT JUMPDEST POP JUMP JUMPDEST PUSH1 0xC PUSH0 DUP3 DUP2 MSTORE PUSH1 0x20 ADD SWAP1 DUP2 MSTORE PUSH1 0x20 ADD PUSH0 KECCAK256 PUSH1 0xD ADD PUSH1 0x2 SWAP1 SLOAD SWAP1 PUSH2 0x100 EXP SWAP1 DIV PUSH1 0xFF AND ISZERO PUSH2 0x17C3 JUMPI PUSH1 0x40 MLOAD PUSH32 0x8C379A000000000000000000000000000000000000000000000000000000000 DUP2 MSTORE PUSH1 0x4 ADD PUSH2 0x17BA SWAP1 PUSH2 0x2C93 JUMP JUMPDEST PUSH1 0x40 MLOAD DUP1 SWAP2 SUB SWAP1 REVERT JUMPDEST POP JUMP JUMPDEST PUSH1 0xC PUSH0 DUP3 DUP2 MSTORE PUSH1 0x20 ADD SWAP1 DUP2 MSTORE PUSH1 0x20 ADD PUSH0 KECCAK256 PUSH1 0xD ADD PUSH0 SWAP1 SLOAD SWAP1 PUSH2 0x100 EXP SWAP1 DIV PUSH1 0xFF AND ISZERO PUSH2 0x1827 JUMPI PUSH1 0x40 MLOAD PUSH32 0x8C379A000000000000000000000000000000000000000000000000000000000 DUP2 MSTORE PUSH1 0x4 ADD PUSH2 0x181E SWAP1 PUSH2 0x2D21 JUMP JUMPDEST PUSH1 0x40 MLOAD DUP1 SWAP2 SUB SWAP1 REVERT JUMPDEST POP JUMP JUMPDEST PUSH1 0xC PUSH0 DUP3 DUP2 MSTORE PUSH1 0x20 ADD SWAP1 DUP2 MSTORE PUSH1 0x20 ADD PUSH0 KECCAK256 PUSH1 0xD ADD PUSH1 0x1 SWAP1 SLOAD SWAP1 PUSH2 0x100 EXP SWAP1 DIV PUSH1 0xFF AND ISZERO PUSH2 0x188C JUMPI PUSH1 0x40 MLOAD PUSH32 0x8C379A000000000000000000000000000000000000000000000000000000000 DUP2 MSTORE PUSH1 0x4 ADD PUSH2 0x1883 SWAP1 PUSH2 0x2DAF JUMP JUMPDEST PUSH1 0x40 MLOAD DUP1 SWAP2 SUB SWAP1 REVERT JUMPDEST POP JUMP JUMPDEST PUSH1 0xC PUSH0 DUP3 DUP2 MSTORE PUSH1 0x20 ADD SWAP1 DUP2 MSTORE PUSH1 0x20 ADD PUSH0 KECCAK256 PUSH1 0x5 ADD SLOAD TIMESTAMP LT PUSH2 0x18E5 JUMPI PUSH1 0x40 MLOAD PUSH32 0x8C379A000000000000000000000000000000000000000000000000000000000 DUP2 MSTORE PUSH1 0x4 ADD PUSH2 0x18DC SWAP1 PUSH2 0x2E3D JUMP JUMPDEST PUSH1 0x40 MLOAD DUP1 SWAP2 SUB SWAP1 REVERT JUMPDEST POP JUMP JUMPDEST PUSH0 DUP1 PUSH1 0xC PUSH0 DUP5 DUP2 MSTORE PUSH1 0x20 ADD SWAP1 DUP2 MSTORE PUSH1 0x20 ADD PUSH0 KECCAK256 SWAP1 POP DUP1 PUSH1 0x8 ADD SLOAD DUP2 PUSH1 0x7 ADD SLOAD LT PUSH2 0x1916 JUMPI PUSH1 0x1 SWAP2 POP POP PUSH2 0x191B JUMP JUMPDEST PUSH0 SWAP2 POP POP JUMPDEST SWAP2 SWAP1 POP JUMP JUMPDEST PUSH0 DUP1 PUSH1 0xC PUSH0 DUP5 DUP2 MSTORE PUSH1 0x20 ADD SWAP1 DUP2 MSTORE PUSH1 0x20 ADD PUSH0 KECCAK256 SWAP1 POP PUSH0 DUP2 PUSH1 0xA ADD SLOAD DUP3 PUSH1 0x9 ADD SLOAD PUSH2 0x194A SWAP2 SWAP1 PUSH2 0x20D4 JUMP JUMPDEST PUSH1 0x64 DUP4 PUSH1 0x9 ADD SLOAD PUSH2 0x195B SWAP2 SWAP1 PUSH2 0x2E5B JUMP JUMPDEST PUSH2 0x1965 SWAP2 SWAP1 PUSH2 0x2134 JUMP JUMPDEST SWAP1 POP DUP2 PUSH1 0xC ADD SLOAD DUP2 LT PUSH2 0x197D JUMPI PUSH1 0x1 SWAP3 POP POP POP PUSH2 0x1983 JUMP JUMPDEST PUSH0 SWAP3 POP POP POP JUMPDEST SWAP2 SWAP1 POP JUMP JUMPDEST PUSH1 0xC PUSH0 DUP3 DUP2 MSTORE PUSH1 0x20 ADD SWAP1 DUP2 MSTORE PUSH1 0x20 ADD PUSH0 KECCAK256 PUSH1 0xD ADD PUSH1 0x2 SWAP1 SLOAD SWAP1 PUSH2 0x100 EXP SWAP1 DIV PUSH1 0xFF AND PUSH2 0x19E9 JUMPI PUSH1 0x40 MLOAD PUSH32 0x8C379A000000000000000000000000000000000000000000000000000000000 DUP2 MSTORE PUSH1 0x4 ADD PUSH2 0x19E0 SWAP1 PUSH2 0x2F0C JUMP JUMPDEST PUSH1 0x40 MLOAD DUP1 SWAP2 SUB SWAP1 REVERT JUMPDEST POP JUMP JUMPDEST PUSH0 PUSH1 0x40 MLOAD SWAP1 POP SWAP1 JUMP JUMPDEST PUSH0 DUP1 REVERT JUMPDEST PUSH0 DUP1 REVERT JUMPDEST PUSH0 DUP2 SWAP1 POP SWAP2 SWAP1 POP JUMP JUMPDEST PUSH2 0x1A0F DUP2 PUSH2 0x19FD JUMP JUMPDEST DUP2 EQ PUSH2 0x1A19 JUMPI PUSH0 DUP1 REVERT JUMPDEST POP JUMP JUMPDEST PUSH0 DUP2 CALLDATALOAD SWAP1 POP PUSH2 0x1A2A DUP2 PUSH2 0x1A06 JUMP JUMPDEST SWAP3 SWAP2 POP POP JUMP JUMPDEST PUSH0 PUSH1 0x20 DUP3 DUP5 SUB SLT ISZERO PUSH2 0x1A45 JUMPI PUSH2 0x1A44 PUSH2 0x19F5 JUMP JUMPDEST JUMPDEST PUSH0 PUSH2 0x1A52 DUP5 DUP3 DUP6 ADD PUSH2 0x1A1C JUMP JUMPDEST SWAP2 POP POP SWAP3 SWAP2 POP POP JUMP JUMPDEST PUSH0 DUP2 ISZERO ISZERO SWAP1 POP SWAP2 SWAP1 POP JUMP JUMPDEST PUSH2 0x1A6F DUP2 PUSH2 0x1A5B JUMP JUMPDEST DUP3 MSTORE POP POP JUMP JUMPDEST PUSH0 PUSH1 0x20 DUP3 ADD SWAP1 POP PUSH2 0x1A88 PUSH0 DUP4 ADD DUP5 PUSH2 0x1A66 JUMP JUMPDEST SWAP3 SWAP2 POP POP JUMP JUMPDEST PUSH0 PUSH20 0xFFFFFFFFFFFFFFFFFFFFFFFFFFFFFFFFFFFFFFFF DUP3 AND SWAP1 POP SWAP2 SWAP1 POP JUMP JUMPDEST PUSH0 PUSH2 0x1AB7 DUP3 PUSH2 0x1A8E JUMP JUMPDEST SWAP1 POP SWAP2 SWAP1 POP JUMP JUMPDEST PUSH2 0x1AC7 DUP2 PUSH2 0x1AAD JUMP JUMPDEST DUP3 MSTORE POP POP JUMP JUMPDEST PUSH0 PUSH1 0x20 DUP3 ADD SWAP1 POP PUSH2 0x1AE0 PUSH0 DUP4 ADD DUP5 PUSH2 0x1ABE JUMP JUMPDEST SWAP3 SWAP2 POP POP JUMP JUMPDEST PUSH2 0x1AEF DUP2 PUSH2 0x19FD JUMP JUMPDEST DUP3 MSTORE POP POP JUMP JUMPDEST PUSH0 PUSH1 0x20 DUP3 ADD SWAP1 POP PUSH2 0x1B08 PUSH0 DUP4 ADD DUP5 PUSH2 0x1AE6 JUMP JUMPDEST SWAP3 SWAP2 POP POP JUMP JUMPDEST PUSH0 DUP1 REVERT JUMPDEST PUSH0 DUP1 REVERT JUMPDEST PUSH0 PUSH1 0x1F NOT PUSH1 0x1F DUP4 ADD AND SWAP1 POP SWAP2 SWAP1 POP JUMP JUMPDEST PUSH32 0x4E487B7100000000000000000000000000000000000000000000000000000000 PUSH0 MSTORE PUSH1 0x41 PUSH1 0x4 MSTORE PUSH1 0x24 PUSH0 REVERT JUMPDEST PUSH2 0x1B5C DUP3 PUSH2 0x1B16 JUMP JUMPDEST DUP2 ADD DUP2 DUP2 LT PUSH8 0xFFFFFFFFFFFFFFFF DUP3 GT OR ISZERO PUSH2 0x1B7B JUMPI PUSH2 0x1B7A PUSH2 0x1B26 JUMP JUMPDEST JUMPDEST DUP1 PUSH1 0x40 MSTORE POP POP POP JUMP JUMPDEST PUSH0 PUSH2 0x1B8D PUSH2 0x19EC JUMP JUMPDEST SWAP1 POP PUSH2 0x1B99 DUP3 DUP3 PUSH2 0x1B53 JUMP JUMPDEST SWAP2 SWAP1 POP JUMP JUMPDEST PUSH0 PUSH8 0xFFFFFFFFFFFFFFFF DUP3 GT ISZERO PUSH2 0x1BB8 JUMPI PUSH2 0x1BB7 PUSH2 0x1B26 JUMP JUMPDEST JUMPDEST PUSH2 0x1BC1 DUP3 PUSH2 0x1B16 JUMP JUMPDEST SWAP1 POP PUSH1 0x20 DUP2 ADD SWAP1 POP SWAP2 SWAP1 POP JUMP JUMPDEST DUP3 DUP2 DUP4 CALLDATACOPY PUSH0 DUP4 DUP4 ADD MSTORE POP POP POP JUMP JUMPDEST PUSH0 PUSH2 0x1BEE PUSH2 0x1BE9 DUP5 PUSH2 0x1B9E JUMP JUMPDEST PUSH2 0x1B84 JUMP JUMPDEST SWAP1 POP DUP3 DUP2 MSTORE PUSH1 0x20 DUP2 ADD DUP5 DUP5 DUP5 ADD GT ISZERO PUSH2 0x1C0A JUMPI PUSH2 0x1C09 PUSH2 0x1B12 JUMP JUMPDEST JUMPDEST PUSH2 0x1C15 DUP5 DUP3 DUP6 PUSH2 0x1BCE JUMP JUMPDEST POP SWAP4 SWAP3 POP POP POP JUMP JUMPDEST PUSH0 DUP3 PUSH1 0x1F DUP4 ADD SLT PUSH2 0x1C31 JUMPI PUSH2 0x1C30 PUSH2 0x1B0E JUMP JUMPDEST JUMPDEST DUP2 CALLDATALOAD PUSH2 0x1C41 DUP5 DUP3 PUSH1 0x20 DUP7 ADD PUSH2 0x1BDC JUMP JUMPDEST SWAP2 POP POP SWAP3 SWAP2 POP POP JUMP JUMPDEST PUSH2 0x1C53 DUP2 PUSH2 0x1A5B JUMP JUMPDEST DUP2 EQ PUSH2 0x1C5D JUMPI PUSH0 DUP1 REVERT JUMPDEST POP JUMP JUMPDEST PUSH0 DUP2 CALLDATALOAD SWAP1 POP PUSH2 0x1C6E DUP2 PUSH2 0x1C4A JUMP JUMPDEST SWAP3 SWAP2 POP POP JUMP JUMPDEST PUSH2 0x1C7D DUP2 PUSH2 0x1AAD JUMP JUMPDEST DUP2 EQ PUSH2 0x1C87 JUMPI PUSH0 DUP1 REVERT JUMPDEST POP JUMP JUMPDEST PUSH0 DUP2 CALLDATALOAD SWAP1 POP PUSH2 0x1C98 DUP2 PUSH2 0x1C74 JUMP JUMPDEST SWAP3 SWAP2 POP POP JUMP JUMPDEST PUSH0 PUSH8 0xFFFFFFFFFFFFFFFF DUP3 GT ISZERO PUSH2 0x1CB8 JUMPI PUSH2 0x1CB7 PUSH2 0x1B26 JUMP JUMPDEST JUMPDEST PUSH2 0x1CC1 DUP3 PUSH2 0x1B16 JUMP JUMPDEST SWAP1 POP PUSH1 0x20 DUP2 ADD SWAP1 POP SWAP2 SWAP1 POP JUMP JUMPDEST PUSH0 PUSH2 0x1CE0 PUSH2 0x1CDB DUP5 PUSH2 0x1C9E JUMP JUMPDEST PUSH2 0x1B84 JUMP JUMPDEST SWAP1 POP DUP3 DUP2 MSTORE PUSH1 0x20 DUP2 ADD DUP5 DUP5 DUP5 ADD GT ISZERO PUSH2 0x1CFC JUMPI PUSH2 0x1CFB PUSH2 0x1B12 JUMP JUMPDEST JUMPDEST PUSH2 0x1D07 DUP5 DUP3 DUP6 PUSH2 0x1BCE JUMP JUMPDEST POP SWAP4 SWAP3 POP POP POP JUMP JUMPDEST PUSH0 DUP3 PUSH1 0x1F DUP4 ADD SLT PUSH2 0x1D23 JUMPI PUSH2 0x1D22 PUSH2 0x1B0E JUMP JUMPDEST JUMPDEST DUP2 CALLDATALOAD PUSH2 0x1D33 DUP5 DUP3 PUSH1 0x20 DUP7 ADD PUSH2 0x1CCE JUMP JUMPDEST SWAP2 POP POP SWAP3 SWAP2 POP POP JUMP JUMPDEST PUSH0 DUP1 PUSH0 DUP1 PUSH0 DUP1 PUSH0 DUP1 PUSH0 PUSH2 0x120 DUP11 DUP13 SUB SLT ISZERO PUSH2 0x1D5A JUMPI PUSH2 0x1D59 PUSH2 0x19F5 JUMP JUMPDEST JUMPDEST PUSH0 DUP11 ADD CALLDATALOAD PUSH8 0xFFFFFFFFFFFFFFFF DUP2 GT ISZERO PUSH2 0x1D77 JUMPI PUSH2 0x1D76 PUSH2 0x19F9 JUMP JUMPDEST JUMPDEST PUSH2 0x1D83 DUP13 DUP3 DUP14 ADD PUSH2 0x1C1D JUMP JUMPDEST SWAP10 POP POP PUSH1 0x20 PUSH2 0x1D94 DUP13 DUP3 DUP14 ADD PUSH2 0x1A1C JUMP JUMPDEST SWAP9 POP POP PUSH1 0x40 PUSH2 0x1DA5 DUP13 DUP3 DUP14 ADD PUSH2 0x1A1C JUMP JUMPDEST SWAP8 POP POP PUSH1 0x60 PUSH2 0x1DB6 DUP13 DUP3 DUP14 ADD PUSH2 0x1A1C JUMP JUMPDEST SWAP7 POP POP PUSH1 0x80 PUSH2 0x1DC7 DUP13 DUP3 DUP14 ADD PUSH2 0x1A1C JUMP JUMPDEST SWAP6 POP POP PUSH1 0xA0 PUSH2 0x1DD8 DUP13 DUP3 DUP14 ADD PUSH2 0x1C60 JUMP JUMPDEST SWAP5 POP POP PUSH1 0xC0 PUSH2 0x1DE9 DUP13 DUP3 DUP14 ADD PUSH2 0x1C8A JUMP JUMPDEST SWAP4 POP POP PUSH1 0xE0 DUP11 ADD CALLDATALOAD PUSH8 0xFFFFFFFFFFFFFFFF DUP2 GT ISZERO PUSH2 0x1E0A JUMPI PUSH2 0x1E09 PUSH2 0x19F9 JUMP JUMPDEST JUMPDEST PUSH2 0x1E16 DUP13 DUP3 DUP14 ADD PUSH2 0x1C1D JUMP JUMPDEST SWAP3 POP POP PUSH2 0x100 DUP11 ADD CALLDATALOAD PUSH8 0xFFFFFFFFFFFFFFFF DUP2 GT ISZERO PUSH2 0x1E38 JUMPI PUSH2 0x1E37 PUSH2 0x19F9 JUMP JUMPDEST JUMPDEST PUSH2 0x1E44 DUP13 DUP3 DUP14 ADD PUSH2 0x1D0F JUMP JUMPDEST SWAP2 POP POP SWAP3 SWAP6 SWAP9 POP SWAP3 SWAP6 SWAP9 POP SWAP3 SWAP6 SWAP9 JUMP JUMPDEST PUSH0 PUSH1 0x60 DUP3 ADD SWAP1 POP PUSH2 0x1E67 PUSH0 DUP4 ADD DUP7 PUSH2 0x1A66 JUMP JUMPDEST PUSH2 0x1E74 PUSH1 0x20 DUP4 ADD DUP6 PUSH2 0x1AE6 JUMP JUMPDEST PUSH2 0x1E81 PUSH1 0x40 DUP4 ADD DUP5 PUSH2 0x1AE6 JUMP JUMPDEST SWAP5 SWAP4 POP POP POP POP JUMP JUMPDEST PUSH0 DUP1 PUSH1 0x40 DUP4 DUP6 SUB SLT ISZERO PUSH2 0x1E9F JUMPI PUSH2 0x1E9E PUSH2 0x19F5 JUMP JUMPDEST JUMPDEST PUSH0 PUSH2 0x1EAC DUP6 DUP3 DUP7 ADD PUSH2 0x1A1C JUMP JUMPDEST SWAP3 POP POP PUSH1 0x20 PUSH2 0x1EBD DUP6 DUP3 DUP7 ADD PUSH2 0x1A1C JUMP JUMPDEST SWAP2 POP POP SWAP3 POP SWAP3 SWAP1 POP JUMP JUMPDEST PUSH0 PUSH1 0x20 DUP3 DUP5 SUB SLT ISZERO PUSH2 0x1EDC JUMPI PUSH2 0x1EDB PUSH2 0x19F5 JUMP JUMPDEST JUMPDEST PUSH0 PUSH2 0x1EE9 DUP5 DUP3 DUP6 ADD PUSH2 0x1C8A JUMP JUMPDEST SWAP2 POP POP SWAP3 SWAP2 POP POP JUMP JUMPDEST PUSH0 DUP3 DUP3 MSTORE PUSH1 0x20 DUP3 ADD SWAP1 POP SWAP3 SWAP2 POP POP JUMP JUMPDEST PUSH32 0x4F776E61626C653A206E6577206F776E657220697320746865207A65726F2061 PUSH0 DUP3 ADD MSTORE PUSH32 0x6464726573730000000000000000000000000000000000000000000000000000 PUSH1 0x20 DUP3 ADD MSTORE POP JUMP JUMPDEST PUSH0 PUSH2 0x1F5C PUSH1 0x26 DUP4 PUSH2 0x1EF2 JUMP JUMPDEST SWAP2 POP PUSH2 0x1F67 DUP3 PUSH2 0x1F02 JUMP JUMPDEST PUSH1 0x40 DUP3 ADD SWAP1 POP SWAP2 SWAP1 POP JUMP JUMPDEST PUSH0 PUSH1 0x20 DUP3 ADD SWAP1 POP DUP2 DUP2 SUB PUSH0 DUP4 ADD MSTORE PUSH2 0x1F89 DUP2 PUSH2 0x1F50 JUMP JUMPDEST SWAP1 POP SWAP2 SWAP1 POP JUMP JUMPDEST PUSH32 0x4F776E61626C653A2063616C6C6572206973206E6F7420746865206F776E6572 PUSH0 DUP3 ADD MSTORE POP JUMP JUMPDEST PUSH0 PUSH2 0x1FC4 PUSH1 0x20 DUP4 PUSH2 0x1EF2 JUMP JUMPDEST SWAP2 POP PUSH2 0x1FCF DUP3 PUSH2 0x1F90 JUMP JUMPDEST PUSH1 0x20 DUP3 ADD SWAP1 POP SWAP2 SWAP1 POP JUMP JUMPDEST PUSH0 PUSH1 0x20 DUP3 ADD SWAP1 POP DUP2 DUP2 SUB PUSH0 DUP4 ADD MSTORE PUSH2 0x1FF1 DUP2 PUSH2 0x1FB8 JUMP JUMPDEST SWAP1 POP SWAP2 SWAP1 POP JUMP JUMPDEST PUSH32 0x5265656E7472616E637947756172643A207265656E7472616E742063616C6C00 PUSH0 DUP3 ADD MSTORE POP JUMP JUMPDEST PUSH0 PUSH2 0x202C PUSH1 0x1F DUP4 PUSH2 0x1EF2 JUMP JUMPDEST SWAP2 POP PUSH2 0x2037 DUP3 PUSH2 0x1FF8 JUMP JUMPDEST PUSH1 0x20 DUP3 ADD SWAP1 POP SWAP2 SWAP1 POP JUMP JUMPDEST PUSH0 PUSH1 0x20 DUP3 ADD SWAP1 POP DUP2 DUP2 SUB PUSH0 DUP4 ADD MSTORE PUSH2 0x2059 DUP2 PUSH2 0x2020 JUMP JUMPDEST SWAP1 POP SWAP2 SWAP1 POP JUMP JUMPDEST PUSH32 0x4E487B7100000000000000000000000000000000000000000000000000000000 PUSH0 MSTORE PUSH1 0x11 PUSH1 0x4 MSTORE PUSH1 0x24 PUSH0 REVERT JUMPDEST PUSH0 PUSH2 0x2097 DUP3 PUSH2 0x19FD JUMP JUMPDEST SWAP2 POP PUSH32 0xFFFFFFFFFFFFFFFFFFFFFFFFFFFFFFFFFFFFFFFFFFFFFFFFFFFFFFFFFFFFFFFF DUP3 SUB PUSH2 0x20C9 JUMPI PUSH2 0x20C8 PUSH2 0x2060 JUMP JUMPDEST JUMPDEST PUSH1 0x1 DUP3 ADD SWAP1 POP SWAP2 SWAP1 POP JUMP JUMPDEST PUSH0 PUSH2 0x20DE DUP3 PUSH2 0x19FD JUMP JUMPDEST SWAP2 POP PUSH2 0x20E9 DUP4 PUSH2 0x19FD JUMP JUMPDEST SWAP3 POP DUP3 DUP3 ADD SWAP1 POP DUP1 DUP3 GT ISZERO PUSH2 0x2101 JUMPI PUSH2 0x2100 PUSH2 0x2060 JUMP JUMPDEST JUMPDEST SWAP3 SWAP2 POP POP JUMP JUMPDEST PUSH32 0x4E487B7100000000000000000000000000000000000000000000000000000000 PUSH0 MSTORE PUSH1 0x12 PUSH1 0x4 MSTORE PUSH1 0x24 PUSH0 REVERT JUMPDEST PUSH0 PUSH2 0x213E DUP3 PUSH2 0x19FD JUMP JUMPDEST SWAP2 POP PUSH2 0x2149 DUP4 PUSH2 0x19FD JUMP JUMPDEST SWAP3 POP DUP3 PUSH2 0x2159 JUMPI PUSH2 0x2158 PUSH2 0x2107 JUMP JUMPDEST JUMPDEST DUP3 DUP3 DIV SWAP1 POP SWAP3 SWAP2 POP POP JUMP JUMPDEST PUSH32 0x5265666572656E64756D733A205F6D736753656E6465722829203D3D20616464 PUSH0 DUP3 ADD MSTORE PUSH32 0x7265737328302900000000000000000000000000000000000000000000000000 PUSH1 0x20 DUP3 ADD MSTORE POP JUMP JUMPDEST PUSH0 PUSH2 0x21BE PUSH1 0x27 DUP4 PUSH2 0x1EF2 JUMP JUMPDEST SWAP2 POP PUSH2 0x21C9 DUP3 PUSH2 0x2164 JUMP JUMPDEST PUSH1 0x40 DUP3 ADD SWAP1 POP SWAP2 SWAP1 POP JUMP JUMPDEST PUSH0 PUSH1 0x20 DUP3 ADD SWAP1 POP DUP2 DUP2 SUB PUSH0 DUP4 ADD MSTORE PUSH2 0x21EB DUP2 PUSH2 0x21B2 JUMP JUMPDEST SWAP1 POP SWAP2 SWAP1 POP JUMP JUMPDEST PUSH32 0x5265666572656E64756D733A20737461727454696D657374616D702069732069 PUSH0 DUP3 ADD MSTORE PUSH32 0x6E20746865207061737400000000000000000000000000000000000000000000 PUSH1 0x20 DUP3 ADD MSTORE POP JUMP JUMPDEST PUSH0 PUSH2 0x224C PUSH1 0x2A DUP4 PUSH2 0x1EF2 JUMP JUMPDEST SWAP2 POP PUSH2 0x2257 DUP3 PUSH2 0x21F2 JUMP JUMPDEST PUSH1 0x40 DUP3 ADD SWAP1 POP SWAP2 SWAP1 POP JUMP JUMPDEST PUSH0 PUSH1 0x20 DUP3 ADD SWAP1 POP DUP2 DUP2 SUB PUSH0 DUP4 ADD MSTORE PUSH2 0x2279 DUP2 PUSH2 0x2240 JUMP JUMPDEST SWAP1 POP SWAP2 SWAP1 POP JUMP JUMPDEST PUSH32 0x5265666572656E64756D733A2074696D656F75742076616C7565206F7574206F PUSH0 DUP3 ADD MSTORE PUSH32 0x6620626F756E6473000000000000000000000000000000000000000000000000 PUSH1 0x20 DUP3 ADD MSTORE POP JUMP JUMPDEST PUSH0 PUSH2 0x22DA PUSH1 0x28 DUP4 PUSH2 0x1EF2 JUMP JUMPDEST SWAP2 POP PUSH2 0x22E5 DUP3 PUSH2 0x2280 JUMP JUMPDEST PUSH1 0x40 DUP3 ADD SWAP1 POP SWAP2 SWAP1 POP JUMP JUMPDEST PUSH0 PUSH1 0x20 DUP3 ADD SWAP1 POP DUP2 DUP2 SUB PUSH0 DUP4 ADD MSTORE PUSH2 0x2307 DUP2 PUSH2 0x22CE JUMP JUMPDEST SWAP1 POP SWAP2 SWAP1 POP JUMP JUMPDEST PUSH32 0x5265666572656E64756D3A20746172676574203D3D2061646472657373283029 PUSH0 DUP3 ADD MSTORE POP JUMP JUMPDEST PUSH0 PUSH2 0x2342 PUSH1 0x20 DUP4 PUSH2 0x1EF2 JUMP JUMPDEST SWAP2 POP PUSH2 0x234D DUP3 PUSH2 0x230E JUMP JUMPDEST PUSH1 0x20 DUP3 ADD SWAP1 POP SWAP2 SWAP1 POP JUMP JUMPDEST PUSH0 PUSH1 0x20 DUP3 ADD SWAP1 POP DUP2 DUP2 SUB PUSH0 DUP4 ADD MSTORE PUSH2 0x236F DUP2 PUSH2 0x2336 JUMP JUMPDEST SWAP1 POP SWAP2 SWAP1 POP JUMP JUMPDEST PUSH32 0x5265666572656E64756D3A20746172676574206973206E6F742077686974656C PUSH0 DUP3 ADD MSTORE PUSH32 0x6973746564000000000000000000000000000000000000000000000000000000 PUSH1 0x20 DUP3 ADD MSTORE POP JUMP JUMPDEST PUSH0 PUSH2 0x23D0 PUSH1 0x25 DUP4 PUSH2 0x1EF2 JUMP JUMPDEST SWAP2 POP PUSH2 0x23DB DUP3 PUSH2 0x2376 JUMP JUMPDEST PUSH1 0x40 DUP3 ADD SWAP1 POP SWAP2 SWAP1 POP JUMP JUMPDEST PUSH0 PUSH1 0x20 DUP3 ADD SWAP1 POP DUP2 DUP2 SUB PUSH0 DUP4 ADD MSTORE PUSH2 0x23FD DUP2 PUSH2 0x23C4 JUMP JUMPDEST SWAP1 POP SWAP2 SWAP1 POP JUMP JUMPDEST PUSH0 DUP2 MLOAD SWAP1 POP PUSH2 0x2412 DUP2 PUSH2 0x1A06 JUMP JUMPDEST SWAP3 SWAP2 POP POP JUMP JUMPDEST PUSH0 PUSH1 0x20 DUP3 DUP5 SUB SLT ISZERO PUSH2 0x242D JUMPI PUSH2 0x242C PUSH2 0x19F5 JUMP JUMPDEST JUMPDEST PUSH0 PUSH2 0x243A DUP5 DUP3 DUP6 ADD PUSH2 0x2404 JUMP JUMPDEST SWAP2 POP POP SWAP3 SWAP2 POP POP JUMP JUMPDEST PUSH0 DUP2 MLOAD SWAP1 POP SWAP2 SWAP1 POP JUMP JUMPDEST PUSH32 0x4E487B7100000000000000000000000000000000000000000000000000000000 PUSH0 MSTORE PUSH1 0x22 PUSH1 0x4 MSTORE PUSH1 0x24 PUSH0 REVERT JUMPDEST PUSH0 PUSH1 0x2 DUP3 DIV SWAP1 POP PUSH1 0x1 DUP3 AND DUP1 PUSH2 0x2491 JUMPI PUSH1 0x7F DUP3 AND SWAP2 POP JUMPDEST PUSH1 0x20 DUP3 LT DUP2 SUB PUSH2 0x24A4 JUMPI PUSH2 0x24A3 PUSH2 0x244D JUMP JUMPDEST JUMPDEST POP SWAP2 SWAP1 POP JUMP JUMPDEST PUSH0 DUP2 SWAP1 POP DUP2 PUSH0 MSTORE PUSH1 0x20 PUSH0 KECCAK256 SWAP1 POP SWAP2 SWAP1 POP JUMP JUMPDEST PUSH0 PUSH1 0x20 PUSH1 0x1F DUP4 ADD DIV SWAP1 POP SWAP2 SWAP1 POP JUMP JUMPDEST PUSH0 DUP3 DUP3 SHL SWAP1 POP SWAP3 SWAP2 POP POP JUMP JUMPDEST PUSH0 PUSH1 0x8 DUP4 MUL PUSH2 0x2506 PUSH32 0xFFFFFFFFFFFFFFFFFFFFFFFFFFFFFFFFFFFFFFFFFFFFFFFFFFFFFFFFFFFFFFFF DUP3 PUSH2 0x24CB JUMP JUMPDEST PUSH2 0x2510 DUP7 DUP4 PUSH2 0x24CB JUMP JUMPDEST SWAP6 POP DUP1 NOT DUP5 AND SWAP4 POP DUP1 DUP7 AND DUP5 OR SWAP3 POP POP POP SWAP4 SWAP3 POP POP POP JUMP JUMPDEST PUSH0 DUP2 SWAP1 POP SWAP2 SWAP1 POP JUMP JUMPDEST PUSH0 PUSH2 0x254B PUSH2 0x2546 PUSH2 0x2541 DUP5 PUSH2 0x19FD JUMP JUMPDEST PUSH2 0x2528 JUMP JUMPDEST PUSH2 0x19FD JUMP JUMPDEST SWAP1 POP SWAP2 SWAP1 POP JUMP JUMPDEST PUSH0 DUP2 SWAP1 POP SWAP2 SWAP1 POP JUMP JUMPDEST PUSH2 0x2564 DUP4 PUSH2 0x2531 JUMP JUMPDEST PUSH2 0x2578 PUSH2 0x2570 DUP3 PUSH2 0x2552 JUMP JUMPDEST DUP5 DUP5 SLOAD PUSH2 0x24D7 JUMP JUMPDEST DUP3 SSTORE POP POP POP POP JUMP JUMPDEST PUSH0 SWAP1 JUMP JUMPDEST PUSH2 0x258C PUSH2 0x2580 JUMP JUMPDEST PUSH2 0x2597 DUP2 DUP5 DUP5 PUSH2 0x255B JUMP JUMPDEST POP POP POP JUMP JUMPDEST JUMPDEST DUP2 DUP2 LT ISZERO PUSH2 0x25BA JUMPI PUSH2 0x25AF PUSH0 DUP3 PUSH2 0x2584 JUMP JUMPDEST PUSH1 0x1 DUP2 ADD SWAP1 POP PUSH2 0x259D JUMP JUMPDEST POP POP JUMP JUMPDEST PUSH1 0x1F DUP3 GT ISZERO PUSH2 0x25FF JUMPI PUSH2 0x25D0 DUP2 PUSH2 0x24AA JUMP JUMPDEST PUSH2 0x25D9 DUP5 PUSH2 0x24BC JUMP JUMPDEST DUP2 ADD PUSH1 0x20 DUP6 LT ISZERO PUSH2 0x25E8 JUMPI DUP2 SWAP1 POP JUMPDEST PUSH2 0x25FC PUSH2 0x25F4 DUP6 PUSH2 0x24BC JUMP JUMPDEST DUP4 ADD DUP3 PUSH2 0x259C JUMP JUMPDEST POP POP JUMPDEST POP POP POP JUMP JUMPDEST PUSH0 DUP3 DUP3 SHR SWAP1 POP SWAP3 SWAP2 POP POP JUMP JUMPDEST PUSH0 PUSH2 0x261F PUSH0 NOT DUP5 PUSH1 0x8 MUL PUSH2 0x2604 JUMP JUMPDEST NOT DUP1 DUP4 AND SWAP2 POP POP SWAP3 SWAP2 POP POP JUMP JUMPDEST PUSH0 PUSH2 0x2637 DUP4 DUP4 PUSH2 0x2610 JUMP JUMPDEST SWAP2 POP DUP3 PUSH1 0x2 MUL DUP3 OR SWAP1 POP SWAP3 SWAP2 POP POP JUMP JUMPDEST PUSH2 0x2650 DUP3 PUSH2 0x2443 JUMP JUMPDEST PUSH8 0xFFFFFFFFFFFFFFFF DUP2 GT ISZERO PUSH2 0x2669 JUMPI PUSH2 0x2668 PUSH2 0x1B26 JUMP JUMPDEST JUMPDEST PUSH2 0x2673 DUP3 SLOAD PUSH2 0x247A JUMP JUMPDEST PUSH2 0x267E DUP3 DUP3 DUP6 PUSH2 0x25BE JUMP JUMPDEST PUSH0 PUSH1 0x20 SWAP1 POP PUSH1 0x1F DUP4 GT PUSH1 0x1 DUP2 EQ PUSH2 0x26AF JUMPI PUSH0 DUP5 ISZERO PUSH2 0x269D JUMPI DUP3 DUP8 ADD MLOAD SWAP1 POP JUMPDEST PUSH2 0x26A7 DUP6 DUP3 PUSH2 0x262C JUMP JUMPDEST DUP7 SSTORE POP PUSH2 0x270E JUMP JUMPDEST PUSH1 0x1F NOT DUP5 AND PUSH2 0x26BD DUP7 PUSH2 0x24AA JUMP JUMPDEST PUSH0 JUMPDEST DUP3 DUP2 LT ISZERO PUSH2 0x26E4 JUMPI DUP5 DUP10 ADD MLOAD DUP3 SSTORE PUSH1 0x1 DUP3 ADD SWAP2 POP PUSH1 0x20 DUP6 ADD SWAP5 POP PUSH1 0x20 DUP2 ADD SWAP1 POP PUSH2 0x26BF JUMP JUMPDEST DUP7 DUP4 LT ISZERO PUSH2 0x2701 JUMPI DUP5 DUP10 ADD MLOAD PUSH2 0x26FD PUSH1 0x1F DUP10 AND DUP3 PUSH2 0x2610 JUMP JUMPDEST DUP4 SSTORE POP JUMPDEST PUSH1 0x1 PUSH1 0x2 DUP9 MUL ADD DUP9 SSTORE POP POP POP JUMPDEST POP POP POP POP POP POP JUMP JUMPDEST PUSH0 PUSH2 0x2720 DUP3 PUSH2 0x19FD JUMP JUMPDEST SWAP2 POP PUSH2 0x272B DUP4 PUSH2 0x19FD JUMP JUMPDEST SWAP3 POP DUP3 DUP3 SUB SWAP1 POP DUP2 DUP2 GT ISZERO PUSH2 0x2743 JUMPI PUSH2 0x2742 PUSH2 0x2060 JUMP JUMPDEST JUMPDEST SWAP3 SWAP2 POP POP JUMP JUMPDEST PUSH0 DUP2 MLOAD SWAP1 POP SWAP2 SWAP1 POP JUMP JUMPDEST PUSH0 DUP2 SWAP1 POP DUP2 PUSH0 MSTORE PUSH1 0x20 PUSH0 KECCAK256 SWAP1 POP SWAP2 SWAP1 POP JUMP JUMPDEST PUSH1 0x1F DUP3 GT ISZERO PUSH2 0x27A6 JUMPI PUSH2 0x2777 DUP2 PUSH2 0x2753 JUMP JUMPDEST PUSH2 0x2780 DUP5 PUSH2 0x24BC JUMP JUMPDEST DUP2 ADD PUSH1 0x20 DUP6 LT ISZERO PUSH2 0x278F JUMPI DUP2 SWAP1 POP JUMPDEST PUSH2 0x27A3 PUSH2 0x279B DUP6 PUSH2 0x24BC JUMP JUMPDEST DUP4 ADD DUP3 PUSH2 0x259C JUMP JUMPDEST POP POP JUMPDEST POP POP POP JUMP JUMPDEST PUSH2 0x27B4 DUP3 PUSH2 0x2749 JUMP JUMPDEST PUSH8 0xFFFFFFFFFFFFFFFF DUP2 GT ISZERO PUSH2 0x27CD JUMPI PUSH2 0x27CC PUSH2 0x1B26 JUMP JUMPDEST JUMPDEST PUSH2 0x27D7 DUP3 SLOAD PUSH2 0x247A JUMP JUMPDEST PUSH2 0x27E2 DUP3 DUP3 DUP6 PUSH2 0x2765 JUMP JUMPDEST PUSH0 PUSH1 0x20 SWAP1 POP PUSH1 0x1F DUP4 GT PUSH1 0x1 DUP2 EQ PUSH2 0x2813 JUMPI PUSH0 DUP5 ISZERO PUSH2 0x2801 JUMPI DUP3 DUP8 ADD MLOAD SWAP1 POP JUMPDEST PUSH2 0x280B DUP6 DUP3 PUSH2 0x262C JUMP JUMPDEST DUP7 SSTORE POP PUSH2 0x2872 JUMP JUMPDEST PUSH1 0x1F NOT DUP5 AND PUSH2 0x2821 DUP7 PUSH2 0x2753 JUMP JUMPDEST PUSH0 JUMPDEST DUP3 DUP2 LT ISZERO PUSH2 0x2848 JUMPI DUP5 DUP10 ADD MLOAD DUP3 SSTORE PUSH1 0x1 DUP3 ADD SWAP2 POP PUSH1 0x20 DUP6 ADD SWAP5 POP PUSH1 0x20 DUP2 ADD SWAP1 POP PUSH2 0x2823 JUMP JUMPDEST DUP7 DUP4 LT ISZERO PUSH2 0x2865 JUMPI DUP5 DUP10 ADD MLOAD PUSH2 0x2861 PUSH1 0x1F DUP10 AND DUP3 PUSH2 0x2610 JUMP JUMPDEST DUP4 SSTORE POP JUMPDEST PUSH1 0x1 PUSH1 0x2 DUP9 MUL ADD DUP9 SSTORE POP POP POP JUMPDEST POP POP POP POP POP POP JUMP JUMPDEST PUSH0 DUP2 SWAP1 POP SWAP3 SWAP2 POP POP JUMP JUMPDEST PUSH0 DUP2 SLOAD PUSH2 0x2890 DUP2 PUSH2 0x247A JUMP JUMPDEST PUSH2 0x289A DUP2 DUP7 PUSH2 0x287A JUMP JUMPDEST SWAP5 POP PUSH1 0x1 DUP3 AND PUSH0 DUP2 EQ PUSH2 0x28B4 JUMPI PUSH1 0x1 DUP2 EQ PUSH2 0x28C9 JUMPI PUSH2 0x28FB JUMP JUMPDEST PUSH1 0xFF NOT DUP4 AND DUP7 MSTORE DUP2 ISZERO ISZERO DUP3 MUL DUP7 ADD SWAP4 POP PUSH2 0x28FB JUMP JUMPDEST PUSH2 0x28D2 DUP6 PUSH2 0x24AA JUMP JUMPDEST PUSH0 JUMPDEST DUP4 DUP2 LT ISZERO PUSH2 0x28F3 JUMPI DUP2 SLOAD DUP2 DUP10 ADD MSTORE PUSH1 0x1 DUP3 ADD SWAP2 POP PUSH1 0x20 DUP2 ADD SWAP1 POP PUSH2 0x28D4 JUMP JUMPDEST DUP4 DUP9 ADD SWAP6 POP POP POP JUMPDEST POP POP POP SWAP3 SWAP2 POP POP JUMP JUMPDEST PUSH0 PUSH2 0x290F DUP3 DUP5 PUSH2 0x2884 JUMP JUMPDEST SWAP2 POP DUP2 SWAP1 POP SWAP3 SWAP2 POP POP JUMP JUMPDEST PUSH0 DUP2 SLOAD PUSH2 0x2926 DUP2 PUSH2 0x247A JUMP JUMPDEST PUSH2 0x2930 DUP2 DUP7 PUSH2 0x1EF2 JUMP JUMPDEST SWAP5 POP PUSH1 0x1 DUP3 AND PUSH0 DUP2 EQ PUSH2 0x294A JUMPI PUSH1 0x1 DUP2 EQ PUSH2 0x2960 JUMPI PUSH2 0x2992 JUMP JUMPDEST PUSH1 0xFF NOT DUP4 AND DUP7 MSTORE DUP2 ISZERO ISZERO PUSH1 0x20 MUL DUP7 ADD SWAP4 POP PUSH2 0x2992 JUMP JUMPDEST PUSH2 0x2969 DUP6 PUSH2 0x24AA JUMP JUMPDEST PUSH0 JUMPDEST DUP4 DUP2 LT ISZERO PUSH2 0x298A JUMPI DUP2 SLOAD DUP2 DUP10 ADD MSTORE PUSH1 0x1 DUP3 ADD SWAP2 POP PUSH1 0x20 DUP2 ADD SWAP1 POP PUSH2 0x296B JUMP JUMPDEST DUP1 DUP9 ADD SWAP6 POP POP POP JUMPDEST POP POP POP SWAP3 SWAP2 POP POP JUMP JUMPDEST PUSH0 DUP3 DUP3 MSTORE PUSH1 0x20 DUP3 ADD SWAP1 POP SWAP3 SWAP2 POP POP JUMP JUMPDEST PUSH0 DUP2 SLOAD PUSH2 0x29B7 DUP2 PUSH2 0x247A JUMP JUMPDEST PUSH2 0x29C1 DUP2 DUP7 PUSH2 0x299B JUMP JUMPDEST SWAP5 POP PUSH1 0x1 DUP3 AND PUSH0 DUP2 EQ PUSH2 0x29DB JUMPI PUSH1 0x1 DUP2 EQ PUSH2 0x29F1 JUMPI PUSH2 0x2A23 JUMP JUMPDEST PUSH1 0xFF NOT DUP4 AND DUP7 MSTORE DUP2 ISZERO ISZERO PUSH1 0x20 MUL DUP7 ADD SWAP4 POP PUSH2 0x2A23 JUMP JUMPDEST PUSH2 0x29FA DUP6 PUSH2 0x2753 JUMP JUMPDEST PUSH0 JUMPDEST DUP4 DUP2 LT ISZERO PUSH2 0x2A1B JUMPI DUP2 SLOAD DUP2 DUP10 ADD MSTORE PUSH1 0x1 DUP3 ADD SWAP2 POP PUSH1 0x20 DUP2 ADD SWAP1 POP PUSH2 0x29FC JUMP JUMPDEST DUP1 DUP9 ADD SWAP6 POP POP POP JUMPDEST POP POP POP SWAP3 SWAP2 POP POP JUMP JUMPDEST PUSH0 PUSH2 0x140 DUP3 ADD SWAP1 POP PUSH2 0x2A40 PUSH0 DUP4 ADD DUP14 PUSH2 0x1AE6 JUMP JUMPDEST PUSH2 0x2A4D PUSH1 0x20 DUP4 ADD DUP13 PUSH2 0x1AE6 JUMP JUMPDEST PUSH2 0x2A5A PUSH1 0x40 DUP4 ADD DUP12 PUSH2 0x1AE6 JUMP JUMPDEST PUSH2 0x2A67 PUSH1 0x60 DUP4 ADD DUP11 PUSH2 0x1AE6 JUMP JUMPDEST PUSH2 0x2A74 PUSH1 0x80 DUP4 ADD DUP10 PUSH2 0x1AE6 JUMP JUMPDEST PUSH2 0x2A81 PUSH1 0xA0 DUP4 ADD DUP9 PUSH2 0x1AE6 JUMP JUMPDEST PUSH2 0x2A8E PUSH1 0xC0 DUP4 ADD DUP8 PUSH2 0x1A66 JUMP JUMPDEST PUSH2 0x2A9B PUSH1 0xE0 DUP4 ADD DUP7 PUSH2 0x1ABE JUMP JUMPDEST DUP2 DUP2 SUB PUSH2 0x100 DUP4 ADD MSTORE PUSH2 0x2AAE DUP2 DUP6 PUSH2 0x291A JUMP JUMPDEST SWAP1 POP DUP2 DUP2 SUB PUSH2 0x120 DUP4 ADD MSTORE PUSH2 0x2AC3 DUP2 DUP5 PUSH2 0x29AB JUMP JUMPDEST SWAP1 POP SWAP12 SWAP11 POP POP POP POP POP POP POP POP POP POP POP JUMP JUMPDEST PUSH32 0x4E487B7100000000000000000000000000000000000000000000000000000000 PUSH0 MSTORE PUSH1 0x21 PUSH1 0x4 MSTORE PUSH1 0x24 PUSH0 REVERT JUMPDEST PUSH0 PUSH1 0x40 DUP3 ADD SWAP1 POP PUSH2 0x2B14 PUSH0 DUP4 ADD DUP6 PUSH2 0x1ABE JUMP JUMPDEST PUSH2 0x2B21 PUSH1 0x20 DUP4 ADD DUP5 PUSH2 0x1AE6 JUMP JUMPDEST SWAP4 SWAP3 POP POP POP JUMP JUMPDEST PUSH1 0x3 DUP2 LT PUSH2 0x2B39 JUMPI PUSH2 0x2B38 PUSH2 0x2AD4 JUMP JUMPDEST JUMPDEST POP JUMP JUMPDEST PUSH0 DUP2 SWAP1 POP PUSH2 0x2B49 DUP3 PUSH2 0x2B28 JUMP JUMPDEST SWAP2 SWAP1 POP JUMP JUMPDEST PUSH0 PUSH2 0x2B58 DUP3 PUSH2 0x2B3C JUMP JUMPDEST SWAP1 POP SWAP2 SWAP1 POP JUMP JUMPDEST PUSH2 0x2B68 DUP2 PUSH2 0x2B4E JUMP JUMPDEST DUP3 MSTORE POP POP JUMP JUMPDEST PUSH0 PUSH1 0x40 DUP3 ADD SWAP1 POP PUSH2 0x2B81 PUSH0 DUP4 ADD DUP6 PUSH2 0x1AE6 JUMP JUMPDEST PUSH2 0x2B8E PUSH1 0x20 DUP4 ADD DUP5 PUSH2 0x2B5F JUMP JUMPDEST SWAP4 SWAP3 POP POP POP JUMP JUMPDEST PUSH32 0x5265666572656E64756D733A206964656E74696669657220646F6573206E6F74 PUSH0 DUP3 ADD MSTORE PUSH32 0x20706F696E7420746F20616E206578697374696E67207265666572656E64756D PUSH1 0x20 DUP3 ADD MSTORE POP JUMP JUMPDEST PUSH0 PUSH2 0x2BEF PUSH1 0x40 DUP4 PUSH2 0x1EF2 JUMP JUMPDEST SWAP2 POP PUSH2 0x2BFA DUP3 PUSH2 0x2B95 JUMP JUMPDEST PUSH1 0x40 DUP3 ADD SWAP1 POP SWAP2 SWAP1 POP JUMP JUMPDEST PUSH0 PUSH1 0x20 DUP3 ADD SWAP1 POP DUP2 DUP2 SUB PUSH0 DUP4 ADD MSTORE PUSH2 0x2C1C DUP2 PUSH2 0x2BE3 JUMP JUMPDEST SWAP1 POP SWAP2 SWAP1 POP JUMP JUMPDEST PUSH32 0x5265666572656E64756D733A207265666572656E64756D20686173206265656E PUSH0 DUP3 ADD MSTORE PUSH32 0x2070617373656400000000000000000000000000000000000000000000000000 PUSH1 0x20 DUP3 ADD MSTORE POP JUMP JUMPDEST PUSH0 PUSH2 0x2C7D PUSH1 0x27 DUP4 PUSH2 0x1EF2 JUMP JUMPDEST SWAP2 POP PUSH2 0x2C88 DUP3 PUSH2 0x2C23 JUMP JUMPDEST PUSH1 0x40 DUP3 ADD SWAP1 POP SWAP2 SWAP1 POP JUMP JUMPDEST PUSH0 PUSH1 0x20 DUP3 ADD SWAP1 POP DUP2 DUP2 SUB PUSH0 DUP4 ADD MSTORE PUSH2 0x2CAA DUP2 PUSH2 0x2C71 JUMP JUMPDEST SWAP1 POP SWAP2 SWAP1 POP JUMP JUMPDEST PUSH32 0x5265666572656E64756D733A207265666572656E64756D20686173206265656E PUSH0 DUP3 ADD MSTORE PUSH32 0x2063616E63656C6C656400000000000000000000000000000000000000000000 PUSH1 0x20 DUP3 ADD MSTORE POP JUMP JUMPDEST PUSH0 PUSH2 0x2D0B PUSH1 0x2A DUP4 PUSH2 0x1EF2 JUMP JUMPDEST SWAP2 POP PUSH2 0x2D16 DUP3 PUSH2 0x2CB1 JUMP JUMPDEST PUSH1 0x40 DUP3 ADD SWAP1 POP SWAP2 SWAP1 POP JUMP JUMPDEST PUSH0 PUSH1 0x20 DUP3 ADD SWAP1 POP DUP2 DUP2 SUB PUSH0 DUP4 ADD MSTORE PUSH2 0x2D38 DUP2 PUSH2 0x2CFF JUMP JUMPDEST SWAP1 POP SWAP2 SWAP1 POP JUMP JUMPDEST PUSH32 0x5265666572656E64756D733A207265666572656E64756D20686173206265656E PUSH0 DUP3 ADD MSTORE PUSH32 0x2065786563757465640000000000000000000000000000000000000000000000 PUSH1 0x20 DUP3 ADD MSTORE POP JUMP JUMPDEST PUSH0 PUSH2 0x2D99 PUSH1 0x29 DUP4 PUSH2 0x1EF2 JUMP JUMPDEST SWAP2 POP PUSH2 0x2DA4 DUP3 PUSH2 0x2D3F JUMP JUMPDEST PUSH1 0x40 DUP3 ADD SWAP1 POP SWAP2 SWAP1 POP JUMP JUMPDEST PUSH0 PUSH1 0x20 DUP3 ADD SWAP1 POP DUP2 DUP2 SUB PUSH0 DUP4 ADD MSTORE PUSH2 0x2DC6 DUP2 PUSH2 0x2D8D JUMP JUMPDEST SWAP1 POP SWAP2 SWAP1 POP JUMP JUMPDEST PUSH32 0x5265666572656E64756D733A207265666572656E64756D206861732065787069 PUSH0 DUP3 ADD MSTORE PUSH32 0x7265640000000000000000000000000000000000000000000000000000000000 PUSH1 0x20 DUP3 ADD MSTORE POP JUMP JUMPDEST PUSH0 PUSH2 0x2E27 PUSH1 0x23 DUP4 PUSH2 0x1EF2 JUMP JUMPDEST SWAP2 POP PUSH2 0x2E32 DUP3 PUSH2 0x2DCD JUMP JUMPDEST PUSH1 0x40 DUP3 ADD SWAP1 POP SWAP2 SWAP1 POP JUMP JUMPDEST PUSH0 PUSH1 0x20 DUP3 ADD SWAP1 POP DUP2 DUP2 SUB PUSH0 DUP4 ADD MSTORE PUSH2 0x2E54 DUP2 PUSH2 0x2E1B JUMP JUMPDEST SWAP1 POP SWAP2 SWAP1 POP JUMP JUMPDEST PUSH0 PUSH2 0x2E65 DUP3 PUSH2 0x19FD JUMP JUMPDEST SWAP2 POP PUSH2 0x2E70 DUP4 PUSH2 0x19FD JUMP JUMPDEST SWAP3 POP DUP3 DUP3 MUL PUSH2 0x2E7E DUP2 PUSH2 0x19FD JUMP JUMPDEST SWAP2 POP DUP3 DUP3 DIV DUP5 EQ DUP4 ISZERO OR PUSH2 0x2E95 JUMPI PUSH2 0x2E94 PUSH2 0x2060 JUMP JUMPDEST JUMPDEST POP SWAP3 SWAP2 POP POP JUMP JUMPDEST PUSH32 0x5265666572656E64756D733A207265666572656E64756D20686173206E6F7420 PUSH0 DUP3 ADD MSTORE PUSH32 0x6265656E20706173736564000000000000000000000000000000000000000000 PUSH1 0x20 DUP3 ADD MSTORE POP JUMP JUMPDEST PUSH0 PUSH2 0x2EF6 PUSH1 0x2B DUP4 PUSH2 0x1EF2 JUMP JUMPDEST SWAP2 POP PUSH2 0x2F01 DUP3 PUSH2 0x2E9C JUMP JUMPDEST PUSH1 0x40 DUP3 ADD SWAP1 POP SWAP2 SWAP1 POP JUMP JUMPDEST PUSH0 PUSH1 0x20 DUP3 ADD SWAP1 POP DUP2 DUP2 SUB PUSH0 DUP4 ADD MSTORE PUSH2 0x2F23 DUP2 PUSH2 0x2EEA JUMP JUMPDEST SWAP1 POP SWAP2 SWAP1 POP JUMP INVALID LOG2 PUSH5 0x6970667358 0x22 SLT KECCAK256 SAR SGT EQ PUSH14 0xD3B1D0E2ED3D73D685657A2E928B 0x4C 0xA5 SWAP5 PUSH1 0xE7 BASEFEE GASLIMIT 0xD4 0xE8 0xE8 PUSH24 0xBAAB3A64736F6C6343000814003300000000000000000000 "
		},
		"gasEstimates": {
			"creation": {
				"codeDepositCost": "2425600",
				"executionCost": "infinite",
				"totalCost": "infinite"
			},
			"external": {
				"cancel(uint256)": "infinite",
				"execute(uint256)": "infinite",
				"new_(string,uint256,uint256,uint256,uint256,bool,address,string,bytes)": "infinite",
				"numberOfActiveReferendums()": "infinite",
				"numberOfReferendums()": "2503",
				"owner()": "2560",
				"renounceOwnership()": "30413",
				"transferOwnership(address)": "30775",
				"vote(uint256,uint256)": "infinite"
			},
			"internal": {
				"_cancel(uint256)": "infinite",
				"_execute(uint256)": "infinite",
				"_getAverageActiveQuorum(uint256,uint256)": "infinite",
				"_mustBeCancelled(uint256)": "infinite",
				"_mustBeExecuted(uint256)": "infinite",
				"_mustBePassed(uint256)": "infinite",
				"_mustBePresent(uint256)": "infinite",
				"_mustNotBeCancelled(uint256)": "infinite",
				"_mustNotBeExecuted(uint256)": "infinite",
				"_mustNotBeExpired(uint256)": "infinite",
				"_mustNotBePassed(uint256)": "infinite",
				"_new(string memory,uint256,uint256,uint256,uint256,bool,address,string memory,bytes memory)": "infinite",
				"_requiredQuorumHasBeenMet(uint256)": "4368",
				"_requiredThresholdHasBeenMet(uint256)": "infinite",
				"_vote(uint256,uint256)": "infinite"
			}
		},
		"methodIdentifiers": {
			"cancel(uint256)": "40e58ee5",
			"execute(uint256)": "fe0d94c1",
			"new_(string,uint256,uint256,uint256,uint256,bool,address,string,bytes)": "a66b9721",
			"numberOfActiveReferendums()": "90c63ed4",
			"numberOfReferendums()": "fc8c501e",
			"owner()": "8da5cb5b",
			"renounceOwnership()": "715018a6",
			"transferOwnership(address)": "f2fde38b",
			"vote(uint256,uint256)": "b384abef"
		}
	},
	"abi": [
		{
			"inputs": [
				{
					"internalType": "address",
					"name": "owner",
					"type": "address"
				}
			],
			"stateMutability": "nonpayable",
			"type": "constructor"
		},
		{
			"anonymous": false,
			"inputs": [
				{
					"indexed": true,
					"internalType": "uint256",
					"name": "identifier",
					"type": "uint256"
				},
				{
					"indexed": true,
					"internalType": "address",
					"name": "caller",
					"type": "address"
				},
				{
					"indexed": true,
					"internalType": "uint256",
					"name": "timestamp",
					"type": "uint256"
				}
			],
			"name": "Cancelled",
			"type": "event"
		},
		{
			"anonymous": false,
			"inputs": [
				{
					"indexed": true,
					"internalType": "uint256",
					"name": "identifier",
					"type": "uint256"
				},
				{
					"indexed": true,
					"internalType": "address",
					"name": "caller",
					"type": "address"
				},
				{
					"indexed": true,
					"internalType": "uint256",
					"name": "timestamp",
					"type": "uint256"
				}
			],
			"name": "Executed",
			"type": "event"
		},
		{
			"anonymous": false,
			"inputs": [
				{
					"indexed": true,
					"internalType": "address",
					"name": "previousOwner",
					"type": "address"
				},
				{
					"indexed": true,
					"internalType": "address",
					"name": "newOwner",
					"type": "address"
				}
			],
			"name": "OwnershipTransferred",
			"type": "event"
		},
		{
			"anonymous": false,
			"inputs": [
				{
					"indexed": true,
					"internalType": "uint256",
					"name": "identifier",
					"type": "uint256"
				},
				{
					"indexed": true,
					"internalType": "address",
					"name": "lastVoter",
					"type": "address"
				},
				{
					"indexed": true,
					"internalType": "uint256",
					"name": "timestamp",
					"type": "uint256"
				},
				{
					"indexed": false,
					"internalType": "uint256",
					"name": "quorum",
					"type": "uint256"
				}
			],
			"name": "Passed",
			"type": "event"
		},
		{
			"anonymous": false,
			"inputs": [
				{
					"indexed": true,
					"internalType": "uint256",
					"name": "identifier",
					"type": "uint256"
				},
				{
					"indexed": false,
					"internalType": "uint256",
					"name": "snapshot",
					"type": "uint256"
				},
				{
					"indexed": true,
					"internalType": "address",
					"name": "creator",
					"type": "address"
				},
				{
					"indexed": true,
					"internalType": "string",
					"name": "reason",
					"type": "string"
				},
				{
					"indexed": false,
					"internalType": "uint256",
					"name": "startTimestamp",
					"type": "uint256"
				},
				{
					"indexed": false,
					"internalType": "uint256",
					"name": "endTimestamp",
					"type": "uint256"
				},
				{
					"indexed": false,
					"internalType": "uint256",
					"name": "timeout",
					"type": "uint256"
				},
				{
					"indexed": false,
					"internalType": "uint256",
					"name": "quorumRequired",
					"type": "uint256"
				},
				{
					"indexed": false,
					"internalType": "uint256",
					"name": "threshold",
					"type": "uint256"
				},
				{
					"indexed": false,
					"internalType": "bool",
					"name": "delegatecall",
					"type": "bool"
				},
				{
					"indexed": false,
					"internalType": "address",
					"name": "target",
					"type": "address"
				},
				{
					"indexed": false,
					"internalType": "string",
					"name": "signature",
					"type": "string"
				},
				{
					"indexed": false,
					"internalType": "bytes",
					"name": "args",
					"type": "bytes"
				}
			],
			"name": "ReferendumCreated",
			"type": "event"
		},
		{
			"anonymous": false,
			"inputs": [
				{
					"indexed": true,
					"internalType": "uint256",
					"name": "identifier",
					"type": "uint256"
				},
				{
					"indexed": true,
					"internalType": "address",
					"name": "voter",
					"type": "address"
				},
				{
					"indexed": true,
					"internalType": "uint256",
					"name": "votes",
					"type": "uint256"
				},
				{
					"indexed": false,
					"internalType": "uint256",
					"name": "timestamp",
					"type": "uint256"
				},
				{
					"indexed": false,
					"internalType": "enum Referendums.Side",
					"name": "side",
					"type": "uint8"
				}
			],
			"name": "Voted",
			"type": "event"
		},
		{
			"inputs": [
				{
					"internalType": "uint256",
					"name": "identifier",
					"type": "uint256"
				}
			],
			"name": "cancel",
			"outputs": [
				{
					"internalType": "bool",
					"name": "success",
					"type": "bool"
				}
			],
			"stateMutability": "nonpayable",
			"type": "function"
		},
		{
			"inputs": [
				{
					"internalType": "uint256",
					"name": "identifier",
					"type": "uint256"
				}
			],
			"name": "execute",
			"outputs": [
				{
					"internalType": "bool",
					"name": "success",
					"type": "bool"
				}
			],
			"stateMutability": "nonpayable",
			"type": "function"
		},
		{
			"inputs": [
				{
					"internalType": "string",
					"name": "reason",
					"type": "string"
				},
				{
					"internalType": "uint256",
					"name": "startTimestamp",
					"type": "uint256"
				},
				{
					"internalType": "uint256",
					"name": "timeout",
					"type": "uint256"
				},
				{
					"internalType": "uint256",
					"name": "quorumRequired",
					"type": "uint256"
				},
				{
					"internalType": "uint256",
					"name": "threshold",
					"type": "uint256"
				},
				{
					"internalType": "bool",
					"name": "delegatecall",
					"type": "bool"
				},
				{
					"internalType": "address",
					"name": "target",
					"type": "address"
				},
				{
					"internalType": "string",
					"name": "signature",
					"type": "string"
				},
				{
					"internalType": "bytes",
					"name": "args",
					"type": "bytes"
				}
			],
			"name": "new_",
			"outputs": [
				{
					"internalType": "bool",
					"name": "success",
					"type": "bool"
				},
				{
					"internalType": "uint256",
					"name": "identifier_",
					"type": "uint256"
				},
				{
					"internalType": "uint256",
					"name": "snapshot_",
					"type": "uint256"
				}
			],
			"stateMutability": "nonpayable",
			"type": "function"
		},
		{
			"inputs": [],
			"name": "numberOfActiveReferendums",
			"outputs": [
				{
					"internalType": "uint256",
					"name": "",
					"type": "uint256"
				}
			],
			"stateMutability": "nonpayable",
			"type": "function"
		},
		{
			"inputs": [],
			"name": "numberOfReferendums",
			"outputs": [
				{
					"internalType": "uint256",
					"name": "",
					"type": "uint256"
				}
			],
			"stateMutability": "view",
			"type": "function"
		},
		{
			"inputs": [],
			"name": "owner",
			"outputs": [
				{
					"internalType": "address",
					"name": "",
					"type": "address"
				}
			],
			"stateMutability": "view",
			"type": "function"
		},
		{
			"inputs": [],
			"name": "renounceOwnership",
			"outputs": [],
			"stateMutability": "nonpayable",
			"type": "function"
		},
		{
			"inputs": [
				{
					"internalType": "address",
					"name": "newOwner",
					"type": "address"
				}
			],
			"name": "transferOwnership",
			"outputs": [],
			"stateMutability": "nonpayable",
			"type": "function"
		},
		{
			"inputs": [
				{
					"internalType": "uint256",
					"name": "identifier",
					"type": "uint256"
				},
				{
					"internalType": "uint256",
					"name": "side",
					"type": "uint256"
				}
			],
			"name": "vote",
			"outputs": [
				{
					"internalType": "bool",
					"name": "success",
					"type": "bool"
				}
			],
			"stateMutability": "nonpayable",
			"type": "function"
		}
	]
}