{
	"smart_contracts/contracts/Vault/Vault.sol": {
		"Vault": {
			"abi": [
				{
					"inputs": [
						{
							"internalType": "address",
							"name": "_dev",
							"type": "address"
						}
					],
					"stateMutability": "nonpayable",
					"type": "constructor"
				},
				{
					"inputs": [
						{
							"internalType": "address",
							"name": "_tokenContract",
							"type": "address"
						}
					],
					"name": "IBalanceOf",
					"outputs": [
						{
							"internalType": "uint256",
							"name": "",
							"type": "uint256"
						}
					],
					"stateMutability": "nonpayable",
					"type": "function"
				},
				{
					"inputs": [
						{
							"internalType": "address",
							"name": "_tokenContract",
							"type": "address"
						},
						{
							"internalType": "address",
							"name": "_to",
							"type": "address"
						},
						{
							"internalType": "uint256",
							"name": "_value",
							"type": "uint256"
						}
					],
					"name": "ITransferFromVault",
					"outputs": [
						{
							"internalType": "bool",
							"name": "",
							"type": "bool"
						}
					],
					"stateMutability": "payable",
					"type": "function"
				},
				{
					"inputs": [
						{
							"internalType": "address",
							"name": "_owner",
							"type": "address"
						}
					],
					"name": "grantPermissionAdmin",
					"outputs": [
						{
							"internalType": "bool",
							"name": "",
							"type": "bool"
						}
					],
					"stateMutability": "nonpayable",
					"type": "function"
				},
				{
					"inputs": [
						{
							"internalType": "address",
							"name": "_owner",
							"type": "address"
						}
					],
					"name": "revokePermissionAdmin",
					"outputs": [
						{
							"internalType": "bool",
							"name": "",
							"type": "bool"
						}
					],
					"stateMutability": "nonpayable",
					"type": "function"
				}
			],
			"devdoc": {
				"kind": "dev",
				"methods": {},
				"version": 1
			},
			"evm": {
				"assembly": "    /* \"smart_contracts/contracts/Vault/Vault.sol\":1933:2919  contract Vault is Authenticator {... */\n  mstore(0x40, 0x80)\n    /* \"smart_contracts/contracts/Vault/Vault.sol\":2138:2268  constructor(address _dev) {... */\n  callvalue\n  dup1\n  iszero\n  tag_1\n  jumpi\n  0x00\n  dup1\n  revert\ntag_1:\n  pop\n  mload(0x40)\n  sub(codesize, bytecodeSize)\n  dup1\n  bytecodeSize\n  dup4\n  codecopy\n  dup2\n  dup2\n  add\n  0x40\n  mstore\n  dup2\n  add\n  swap1\n  tag_2\n  swap2\n  swap1\n  tag_3\n  jump\t// in\ntag_2:\n    /* \"smart_contracts/contracts/Vault/Vault.sol\":2194:2198  true */\n  0x01\n    /* \"smart_contracts/contracts/Vault/Vault.sol\":2174:2179  admin */\n  dup1\n    /* \"smart_contracts/contracts/Vault/Vault.sol\":2174:2191  admin[msg.sender] */\n  0x00\n    /* \"smart_contracts/contracts/Vault/Vault.sol\":2180:2190  msg.sender */\n  caller\n    /* \"smart_contracts/contracts/Vault/Vault.sol\":2174:2191  admin[msg.sender] */\n  0xffffffffffffffffffffffffffffffffffffffff\n  and\n  0xffffffffffffffffffffffffffffffffffffffff\n  and\n  dup2\n  mstore\n  0x20\n  add\n  swap1\n  dup2\n  mstore\n  0x20\n  add\n  0x00\n  keccak256\n  0x00\n    /* \"smart_contracts/contracts/Vault/Vault.sol\":2174:2198  admin[msg.sender] = true */\n  0x0100\n  exp\n  dup2\n  sload\n  dup2\n  0xff\n  mul\n  not\n  and\n  swap1\n  dup4\n  iszero\n  iszero\n  mul\n  or\n  swap1\n  sstore\n  pop\n    /* \"smart_contracts/contracts/Vault/Vault.sol\":2221:2225  _dev */\n  dup1\n    /* \"smart_contracts/contracts/Vault/Vault.sol\":2208:2212  meta */\n  0x02\n    /* \"smart_contracts/contracts/Vault/Vault.sol\":2208:2218  meta.vault */\n  0x00\n  add\n  0x00\n    /* \"smart_contracts/contracts/Vault/Vault.sol\":2208:2225  meta.vault = _dev */\n  0x0100\n  exp\n  dup2\n  sload\n  dup2\n  0xffffffffffffffffffffffffffffffffffffffff\n  mul\n  not\n  and\n  swap1\n  dup4\n  0xffffffffffffffffffffffffffffffffffffffff\n  and\n  mul\n  or\n  swap1\n  sstore\n  pop\n    /* \"smart_contracts/contracts/Vault/Vault.sol\":2235:2261  grantPermissionAdmin(_dev) */\n  tag_6\n    /* \"smart_contracts/contracts/Vault/Vault.sol\":2256:2260  _dev */\n  dup2\n    /* \"smart_contracts/contracts/Vault/Vault.sol\":2235:2255  grantPermissionAdmin */\n  shl(0x20, tag_7)\n    /* \"smart_contracts/contracts/Vault/Vault.sol\":2235:2261  grantPermissionAdmin(_dev) */\n  0x20\n  shr\n  jump\t// in\ntag_6:\n  pop\n    /* \"smart_contracts/contracts/Vault/Vault.sol\":2138:2268  constructor(address _dev) {... */\n  pop\n    /* \"smart_contracts/contracts/Vault/Vault.sol\":1933:2919  contract Vault is Authenticator {... */\n  jump(tag_8)\n    /* \"smart_contracts/contracts/Vault/Vault.sol\":1015:1249  function grantPermissionAdmin(address _owner) public onlyAdmin returns (bool) {... */\ntag_7:\n    /* \"smart_contracts/contracts/Vault/Vault.sol\":1087:1091  bool */\n  0x00\n    /* \"smart_contracts/contracts/Vault/Vault.sol\":874:889  address _sender */\n  dup1\n    /* \"smart_contracts/contracts/Vault/Vault.sol\":892:902  msg.sender */\n  caller\n    /* \"smart_contracts/contracts/Vault/Vault.sol\":874:902  address _sender = msg.sender */\n  swap1\n  pop\n    /* \"smart_contracts/contracts/Vault/Vault.sol\":951:956  false */\n  0x00\n    /* \"smart_contracts/contracts/Vault/Vault.sol\":933:956  admin[_sender] != false */\n  iszero\n  iszero\n    /* \"smart_contracts/contracts/Vault/Vault.sol\":933:938  admin */\n  0x01\n    /* \"smart_contracts/contracts/Vault/Vault.sol\":933:947  admin[_sender] */\n  0x00\n    /* \"smart_contracts/contracts/Vault/Vault.sol\":939:946  _sender */\n  dup4\n    /* \"smart_contracts/contracts/Vault/Vault.sol\":933:947  admin[_sender] */\n  0xffffffffffffffffffffffffffffffffffffffff\n  and\n  0xffffffffffffffffffffffffffffffffffffffff\n  and\n  dup2\n  mstore\n  0x20\n  add\n  swap1\n  dup2\n  mstore\n  0x20\n  add\n  0x00\n  keccak256\n  0x00\n  swap1\n  sload\n  swap1\n  0x0100\n  exp\n  swap1\n  div\n  0xff\n  and\n    /* \"smart_contracts/contracts/Vault/Vault.sol\":933:956  admin[_sender] != false */\n  iszero\n  iszero\n  sub\n    /* \"smart_contracts/contracts/Vault/Vault.sol\":912:991  require(... */\n  tag_10\n  jumpi\n  mload(0x40)\n  0x08c379a000000000000000000000000000000000000000000000000000000000\n  dup2\n  mstore\n  0x04\n  add\n  tag_11\n  swap1\n  tag_12\n  jump\t// in\ntag_11:\n  mload(0x40)\n  dup1\n  swap2\n  sub\n  swap1\n  revert\ntag_10:\n    /* \"smart_contracts/contracts/Vault/Vault.sol\":1142:1143  0 */\n  0x00\n    /* \"smart_contracts/contracts/Vault/Vault.sol\":1124:1144  _owner != address(0) */\n  0xffffffffffffffffffffffffffffffffffffffff\n  and\n    /* \"smart_contracts/contracts/Vault/Vault.sol\":1124:1130  _owner */\n  dup4\n    /* \"smart_contracts/contracts/Vault/Vault.sol\":1124:1144  _owner != address(0) */\n  0xffffffffffffffffffffffffffffffffffffffff\n  and\n  eq\n  iszero\n    /* \"smart_contracts/contracts/Vault/Vault.sol\":1124:1181  _owner != address(0) &&... */\n  dup1\n  iszero\n  tag_14\n  jumpi\n  pop\n    /* \"smart_contracts/contracts/Vault/Vault.sol\":1177:1181  true */\n  0x01\n    /* \"smart_contracts/contracts/Vault/Vault.sol\":1160:1181  admin[_owner] != true */\n  iszero\n  iszero\n    /* \"smart_contracts/contracts/Vault/Vault.sol\":1160:1165  admin */\n  0x01\n    /* \"smart_contracts/contracts/Vault/Vault.sol\":1160:1173  admin[_owner] */\n  0x00\n    /* \"smart_contracts/contracts/Vault/Vault.sol\":1166:1172  _owner */\n  dup6\n    /* \"smart_contracts/contracts/Vault/Vault.sol\":1160:1173  admin[_owner] */\n  0xffffffffffffffffffffffffffffffffffffffff\n  and\n  0xffffffffffffffffffffffffffffffffffffffff\n  and\n  dup2\n  mstore\n  0x20\n  add\n  swap1\n  dup2\n  mstore\n  0x20\n  add\n  0x00\n  keccak256\n  0x00\n  swap1\n  sload\n  swap1\n  0x0100\n  exp\n  swap1\n  div\n  0xff\n  and\n    /* \"smart_contracts/contracts/Vault/Vault.sol\":1160:1181  admin[_owner] != true */\n  iszero\n  iszero\n  eq\n  iszero\n    /* \"smart_contracts/contracts/Vault/Vault.sol\":1124:1181  _owner != address(0) &&... */\ntag_14:\n    /* \"smart_contracts/contracts/Vault/Vault.sol\":1103:1191  require(... */\n  tag_15\n  jumpi\n  0x00\n  dup1\n  revert\ntag_15:\n    /* \"smart_contracts/contracts/Vault/Vault.sol\":1217:1221  true */\n  0x01\n    /* \"smart_contracts/contracts/Vault/Vault.sol\":1201:1206  admin */\n  dup1\n    /* \"smart_contracts/contracts/Vault/Vault.sol\":1201:1214  admin[_owner] */\n  0x00\n    /* \"smart_contracts/contracts/Vault/Vault.sol\":1207:1213  _owner */\n  dup6\n    /* \"smart_contracts/contracts/Vault/Vault.sol\":1201:1214  admin[_owner] */\n  0xffffffffffffffffffffffffffffffffffffffff\n  and\n  0xffffffffffffffffffffffffffffffffffffffff\n  and\n  dup2\n  mstore\n  0x20\n  add\n  swap1\n  dup2\n  mstore\n  0x20\n  add\n  0x00\n  keccak256\n  0x00\n    /* \"smart_contracts/contracts/Vault/Vault.sol\":1201:1221  admin[_owner] = true */\n  0x0100\n  exp\n  dup2\n  sload\n  dup2\n  0xff\n  mul\n  not\n  and\n  swap1\n  dup4\n  iszero\n  iszero\n  mul\n  or\n  swap1\n  sstore\n  pop\n    /* \"smart_contracts/contracts/Vault/Vault.sol\":1238:1242  true */\n  0x01\n    /* \"smart_contracts/contracts/Vault/Vault.sol\":1231:1242  return true */\n  swap2\n  pop\n    /* \"smart_contracts/contracts/Vault/Vault.sol\":864:1009  {... */\n  pop\n    /* \"smart_contracts/contracts/Vault/Vault.sol\":1015:1249  function grantPermissionAdmin(address _owner) public onlyAdmin returns (bool) {... */\n  swap2\n  swap1\n  pop\n  jump\t// out\n    /* \"#utility.yul\":88:205   */\ntag_17:\n    /* \"#utility.yul\":197:198   */\n  0x00\n    /* \"#utility.yul\":194:195   */\n  dup1\n    /* \"#utility.yul\":187:199   */\n  revert\n    /* \"#utility.yul\":334:460   */\ntag_19:\n    /* \"#utility.yul\":371:378   */\n  0x00\n    /* \"#utility.yul\":411:453   */\n  0xffffffffffffffffffffffffffffffffffffffff\n    /* \"#utility.yul\":404:409   */\n  dup3\n    /* \"#utility.yul\":400:454   */\n  and\n    /* \"#utility.yul\":389:454   */\n  swap1\n  pop\n    /* \"#utility.yul\":334:460   */\n  swap2\n  swap1\n  pop\n  jump\t// out\n    /* \"#utility.yul\":466:562   */\ntag_20:\n    /* \"#utility.yul\":503:510   */\n  0x00\n    /* \"#utility.yul\":532:556   */\n  tag_32\n    /* \"#utility.yul\":550:555   */\n  dup3\n    /* \"#utility.yul\":532:556   */\n  tag_19\n  jump\t// in\ntag_32:\n    /* \"#utility.yul\":521:556   */\n  swap1\n  pop\n    /* \"#utility.yul\":466:562   */\n  swap2\n  swap1\n  pop\n  jump\t// out\n    /* \"#utility.yul\":568:690   */\ntag_21:\n    /* \"#utility.yul\":641:665   */\n  tag_34\n    /* \"#utility.yul\":659:664   */\n  dup2\n    /* \"#utility.yul\":641:665   */\n  tag_20\n  jump\t// in\ntag_34:\n    /* \"#utility.yul\":634:639   */\n  dup2\n    /* \"#utility.yul\":631:666   */\n  eq\n    /* \"#utility.yul\":621:684   */\n  tag_35\n  jumpi\n    /* \"#utility.yul\":680:681   */\n  0x00\n    /* \"#utility.yul\":677:678   */\n  dup1\n    /* \"#utility.yul\":670:682   */\n  revert\n    /* \"#utility.yul\":621:684   */\ntag_35:\n    /* \"#utility.yul\":568:690   */\n  pop\n  jump\t// out\n    /* \"#utility.yul\":696:839   */\ntag_22:\n    /* \"#utility.yul\":753:758   */\n  0x00\n    /* \"#utility.yul\":784:790   */\n  dup2\n    /* \"#utility.yul\":778:791   */\n  mload\n    /* \"#utility.yul\":769:791   */\n  swap1\n  pop\n    /* \"#utility.yul\":800:833   */\n  tag_37\n    /* \"#utility.yul\":827:832   */\n  dup2\n    /* \"#utility.yul\":800:833   */\n  tag_21\n  jump\t// in\ntag_37:\n    /* \"#utility.yul\":696:839   */\n  swap3\n  swap2\n  pop\n  pop\n  jump\t// out\n    /* \"#utility.yul\":845:1196   */\ntag_3:\n    /* \"#utility.yul\":915:921   */\n  0x00\n    /* \"#utility.yul\":964:966   */\n  0x20\n    /* \"#utility.yul\":952:961   */\n  dup3\n    /* \"#utility.yul\":943:950   */\n  dup5\n    /* \"#utility.yul\":939:962   */\n  sub\n    /* \"#utility.yul\":935:967   */\n  slt\n    /* \"#utility.yul\":932:1051   */\n  iszero\n  tag_39\n  jumpi\n    /* \"#utility.yul\":970:1049   */\n  tag_40\n  tag_17\n  jump\t// in\ntag_40:\n    /* \"#utility.yul\":932:1051   */\ntag_39:\n    /* \"#utility.yul\":1090:1091   */\n  0x00\n    /* \"#utility.yul\":1115:1179   */\n  tag_41\n    /* \"#utility.yul\":1171:1178   */\n  dup5\n    /* \"#utility.yul\":1162:1168   */\n  dup3\n    /* \"#utility.yul\":1151:1160   */\n  dup6\n    /* \"#utility.yul\":1147:1169   */\n  add\n    /* \"#utility.yul\":1115:1179   */\n  tag_22\n  jump\t// in\ntag_41:\n    /* \"#utility.yul\":1105:1179   */\n  swap2\n  pop\n    /* \"#utility.yul\":1061:1189   */\n  pop\n    /* \"#utility.yul\":845:1196   */\n  swap3\n  swap2\n  pop\n  pop\n  jump\t// out\n    /* \"#utility.yul\":1202:1371   */\ntag_23:\n    /* \"#utility.yul\":1286:1297   */\n  0x00\n    /* \"#utility.yul\":1320:1326   */\n  dup3\n    /* \"#utility.yul\":1315:1318   */\n  dup3\n    /* \"#utility.yul\":1308:1327   */\n  mstore\n    /* \"#utility.yul\":1360:1364   */\n  0x20\n    /* \"#utility.yul\":1355:1358   */\n  dup3\n    /* \"#utility.yul\":1351:1365   */\n  add\n    /* \"#utility.yul\":1336:1365   */\n  swap1\n  pop\n    /* \"#utility.yul\":1202:1371   */\n  swap3\n  swap2\n  pop\n  pop\n  jump\t// out\n    /* \"#utility.yul\":1377:1536   */\ntag_24:\n    /* \"#utility.yul\":1517:1528   */\n  0x6f6e6c7941646d696e0000000000000000000000000000000000000000000000\n    /* \"#utility.yul\":1513:1514   */\n  0x00\n    /* \"#utility.yul\":1505:1511   */\n  dup3\n    /* \"#utility.yul\":1501:1515   */\n  add\n    /* \"#utility.yul\":1494:1529   */\n  mstore\n    /* \"#utility.yul\":1377:1536   */\n  pop\n  jump\t// out\n    /* \"#utility.yul\":1542:1907   */\ntag_25:\n    /* \"#utility.yul\":1684:1687   */\n  0x00\n    /* \"#utility.yul\":1705:1771   */\n  tag_45\n    /* \"#utility.yul\":1769:1770   */\n  0x09\n    /* \"#utility.yul\":1764:1767   */\n  dup4\n    /* \"#utility.yul\":1705:1771   */\n  tag_23\n  jump\t// in\ntag_45:\n    /* \"#utility.yul\":1698:1771   */\n  swap2\n  pop\n    /* \"#utility.yul\":1780:1873   */\n  tag_46\n    /* \"#utility.yul\":1869:1872   */\n  dup3\n    /* \"#utility.yul\":1780:1873   */\n  tag_24\n  jump\t// in\ntag_46:\n    /* \"#utility.yul\":1898:1900   */\n  0x20\n    /* \"#utility.yul\":1893:1896   */\n  dup3\n    /* \"#utility.yul\":1889:1901   */\n  add\n    /* \"#utility.yul\":1882:1901   */\n  swap1\n  pop\n    /* \"#utility.yul\":1542:1907   */\n  swap2\n  swap1\n  pop\n  jump\t// out\n    /* \"#utility.yul\":1913:2332   */\ntag_12:\n    /* \"#utility.yul\":2079:2083   */\n  0x00\n    /* \"#utility.yul\":2117:2119   */\n  0x20\n    /* \"#utility.yul\":2106:2115   */\n  dup3\n    /* \"#utility.yul\":2102:2120   */\n  add\n    /* \"#utility.yul\":2094:2120   */\n  swap1\n  pop\n    /* \"#utility.yul\":2166:2175   */\n  dup2\n    /* \"#utility.yul\":2160:2164   */\n  dup2\n    /* \"#utility.yul\":2156:2176   */\n  sub\n    /* \"#utility.yul\":2152:2153   */\n  0x00\n    /* \"#utility.yul\":2141:2150   */\n  dup4\n    /* \"#utility.yul\":2137:2154   */\n  add\n    /* \"#utility.yul\":2130:2177   */\n  mstore\n    /* \"#utility.yul\":2194:2325   */\n  tag_48\n    /* \"#utility.yul\":2320:2324   */\n  dup2\n    /* \"#utility.yul\":2194:2325   */\n  tag_25\n  jump\t// in\ntag_48:\n    /* \"#utility.yul\":2186:2325   */\n  swap1\n  pop\n    /* \"#utility.yul\":1913:2332   */\n  swap2\n  swap1\n  pop\n  jump\t// out\n    /* \"smart_contracts/contracts/Vault/Vault.sol\":1933:2919  contract Vault is Authenticator {... */\ntag_8:\n  dataSize(sub_0)\n  dup1\n  dataOffset(sub_0)\n  0x00\n  codecopy\n  0x00\n  return\nstop\n\nsub_0: assembly {\n        /* \"smart_contracts/contracts/Vault/Vault.sol\":1933:2919  contract Vault is Authenticator {... */\n      mstore(0x40, 0x80)\n      jumpi(tag_1, lt(calldatasize, 0x04))\n      shr(0xe0, calldataload(0x00))\n      dup1\n      0x57f3fccd\n      eq\n      tag_2\n      jumpi\n      dup1\n      0x96b75b1a\n      eq\n      tag_3\n      jumpi\n      dup1\n      0xdb3c5fca\n      eq\n      tag_4\n      jumpi\n      dup1\n      0xf0cb83a5\n      eq\n      tag_5\n      jumpi\n    tag_1:\n      0x00\n      dup1\n      revert\n        /* \"smart_contracts/contracts/Vault/Vault.sol\":2274:2511  function IBalanceOf(address _tokenContract) external returns (uint256) {... */\n    tag_2:\n      callvalue\n      dup1\n      iszero\n      tag_6\n      jumpi\n      0x00\n      dup1\n      revert\n    tag_6:\n      pop\n      tag_7\n      0x04\n      dup1\n      calldatasize\n      sub\n      dup2\n      add\n      swap1\n      tag_8\n      swap2\n      swap1\n      tag_9\n      jump\t// in\n    tag_8:\n      tag_10\n      jump\t// in\n    tag_7:\n      mload(0x40)\n      tag_11\n      swap2\n      swap1\n      tag_12\n      jump\t// in\n    tag_11:\n      mload(0x40)\n      dup1\n      swap2\n      sub\n      swap1\n      return\n        /* \"smart_contracts/contracts/Vault/Vault.sol\":1015:1249  function grantPermissionAdmin(address _owner) public onlyAdmin returns (bool) {... */\n    tag_3:\n      callvalue\n      dup1\n      iszero\n      tag_13\n      jumpi\n      0x00\n      dup1\n      revert\n    tag_13:\n      pop\n      tag_14\n      0x04\n      dup1\n      calldatasize\n      sub\n      dup2\n      add\n      swap1\n      tag_15\n      swap2\n      swap1\n      tag_9\n      jump\t// in\n    tag_15:\n      tag_16\n      jump\t// in\n    tag_14:\n      mload(0x40)\n      tag_17\n      swap2\n      swap1\n      tag_18\n      jump\t// in\n    tag_17:\n      mload(0x40)\n      dup1\n      swap2\n      sub\n      swap1\n      return\n        /* \"smart_contracts/contracts/Vault/Vault.sol\":1255:1492  function revokePermissionAdmin(address _owner) public onlyAdmin returns (bool) {... */\n    tag_4:\n      callvalue\n      dup1\n      iszero\n      tag_19\n      jumpi\n      0x00\n      dup1\n      revert\n    tag_19:\n      pop\n      tag_20\n      0x04\n      dup1\n      calldatasize\n      sub\n      dup2\n      add\n      swap1\n      tag_21\n      swap2\n      swap1\n      tag_9\n      jump\t// in\n    tag_21:\n      tag_22\n      jump\t// in\n    tag_20:\n      mload(0x40)\n      tag_23\n      swap2\n      swap1\n      tag_18\n      jump\t// in\n    tag_23:\n      mload(0x40)\n      dup1\n      swap2\n      sub\n      swap1\n      return\n        /* \"smart_contracts/contracts/Vault/Vault.sol\":2517:2917  function ITransferFromVault(address _tokenContract, address _to, uint256 _value) payable external onlyAdmin returns (bool) {... */\n    tag_5:\n      tag_24\n      0x04\n      dup1\n      calldatasize\n      sub\n      dup2\n      add\n      swap1\n      tag_25\n      swap2\n      swap1\n      tag_26\n      jump\t// in\n    tag_25:\n      tag_27\n      jump\t// in\n    tag_24:\n      mload(0x40)\n      tag_28\n      swap2\n      swap1\n      tag_18\n      jump\t// in\n    tag_28:\n      mload(0x40)\n      dup1\n      swap2\n      sub\n      swap1\n      return\n        /* \"smart_contracts/contracts/Vault/Vault.sol\":2274:2511  function IBalanceOf(address _tokenContract) external returns (uint256) {... */\n    tag_10:\n        /* \"smart_contracts/contracts/Vault/Vault.sol\":2336:2343  uint256 */\n      0x00\n        /* \"smart_contracts/contracts/Vault/Vault.sol\":2355:2368  IERC20 _token */\n      dup1\n        /* \"smart_contracts/contracts/Vault/Vault.sol\":2378:2392  _tokenContract */\n      dup3\n        /* \"smart_contracts/contracts/Vault/Vault.sol\":2355:2393  IERC20 _token = IERC20(_tokenContract) */\n      swap1\n      pop\n        /* \"smart_contracts/contracts/Vault/Vault.sol\":2403:2417  address _owner */\n      0x00\n        /* \"smart_contracts/contracts/Vault/Vault.sol\":2420:2424  meta */\n      0x02\n        /* \"smart_contracts/contracts/Vault/Vault.sol\":2420:2430  meta.vault */\n      0x00\n      add\n      0x00\n      swap1\n      sload\n      swap1\n      0x0100\n      exp\n      swap1\n      div\n      0xffffffffffffffffffffffffffffffffffffffff\n      and\n        /* \"smart_contracts/contracts/Vault/Vault.sol\":2403:2430  address _owner = meta.vault */\n      swap1\n      pop\n        /* \"smart_contracts/contracts/Vault/Vault.sol\":2440:2454  uint256 _value */\n      0x00\n        /* \"smart_contracts/contracts/Vault/Vault.sol\":2457:2463  _token */\n      dup3\n        /* \"smart_contracts/contracts/Vault/Vault.sol\":2457:2473  _token.balanceOf */\n      0xffffffffffffffffffffffffffffffffffffffff\n      and\n      0x70a08231\n        /* \"smart_contracts/contracts/Vault/Vault.sol\":2474:2480  _owner */\n      dup4\n        /* \"smart_contracts/contracts/Vault/Vault.sol\":2457:2481  _token.balanceOf(_owner) */\n      mload(0x40)\n      dup3\n      0xffffffff\n      and\n      0xe0\n      shl\n      dup2\n      mstore\n      0x04\n      add\n      tag_30\n      swap2\n      swap1\n      tag_31\n      jump\t// in\n    tag_30:\n      0x20\n      mload(0x40)\n      dup1\n      dup4\n      sub\n      dup2\n      dup7\n      gas\n      staticcall\n      iszero\n      dup1\n      iszero\n      tag_33\n      jumpi\n      returndatasize\n      0x00\n      dup1\n      returndatacopy\n      revert(0x00, returndatasize)\n    tag_33:\n      pop\n      pop\n      pop\n      pop\n      mload(0x40)\n      returndatasize\n      not(0x1f)\n      0x1f\n      dup3\n      add\n      and\n      dup3\n      add\n      dup1\n      0x40\n      mstore\n      pop\n      dup2\n      add\n      swap1\n      tag_34\n      swap2\n      swap1\n      tag_35\n      jump\t// in\n    tag_34:\n        /* \"smart_contracts/contracts/Vault/Vault.sol\":2440:2481  uint256 _value = _token.balanceOf(_owner) */\n      swap1\n      pop\n        /* \"smart_contracts/contracts/Vault/Vault.sol\":2498:2504  _value */\n      dup1\n        /* \"smart_contracts/contracts/Vault/Vault.sol\":2491:2504  return _value */\n      swap4\n      pop\n      pop\n      pop\n      pop\n        /* \"smart_contracts/contracts/Vault/Vault.sol\":2274:2511  function IBalanceOf(address _tokenContract) external returns (uint256) {... */\n      swap2\n      swap1\n      pop\n      jump\t// out\n        /* \"smart_contracts/contracts/Vault/Vault.sol\":1015:1249  function grantPermissionAdmin(address _owner) public onlyAdmin returns (bool) {... */\n    tag_16:\n        /* \"smart_contracts/contracts/Vault/Vault.sol\":1087:1091  bool */\n      0x00\n        /* \"smart_contracts/contracts/Vault/Vault.sol\":874:889  address _sender */\n      dup1\n        /* \"smart_contracts/contracts/Vault/Vault.sol\":892:902  msg.sender */\n      caller\n        /* \"smart_contracts/contracts/Vault/Vault.sol\":874:902  address _sender = msg.sender */\n      swap1\n      pop\n        /* \"smart_contracts/contracts/Vault/Vault.sol\":951:956  false */\n      0x00\n        /* \"smart_contracts/contracts/Vault/Vault.sol\":933:956  admin[_sender] != false */\n      iszero\n      iszero\n        /* \"smart_contracts/contracts/Vault/Vault.sol\":933:938  admin */\n      0x01\n        /* \"smart_contracts/contracts/Vault/Vault.sol\":933:947  admin[_sender] */\n      0x00\n        /* \"smart_contracts/contracts/Vault/Vault.sol\":939:946  _sender */\n      dup4\n        /* \"smart_contracts/contracts/Vault/Vault.sol\":933:947  admin[_sender] */\n      0xffffffffffffffffffffffffffffffffffffffff\n      and\n      0xffffffffffffffffffffffffffffffffffffffff\n      and\n      dup2\n      mstore\n      0x20\n      add\n      swap1\n      dup2\n      mstore\n      0x20\n      add\n      0x00\n      keccak256\n      0x00\n      swap1\n      sload\n      swap1\n      0x0100\n      exp\n      swap1\n      div\n      0xff\n      and\n        /* \"smart_contracts/contracts/Vault/Vault.sol\":933:956  admin[_sender] != false */\n      iszero\n      iszero\n      sub\n        /* \"smart_contracts/contracts/Vault/Vault.sol\":912:991  require(... */\n      tag_37\n      jumpi\n      mload(0x40)\n      0x08c379a000000000000000000000000000000000000000000000000000000000\n      dup2\n      mstore\n      0x04\n      add\n      tag_38\n      swap1\n      tag_39\n      jump\t// in\n    tag_38:\n      mload(0x40)\n      dup1\n      swap2\n      sub\n      swap1\n      revert\n    tag_37:\n        /* \"smart_contracts/contracts/Vault/Vault.sol\":1142:1143  0 */\n      0x00\n        /* \"smart_contracts/contracts/Vault/Vault.sol\":1124:1144  _owner != address(0) */\n      0xffffffffffffffffffffffffffffffffffffffff\n      and\n        /* \"smart_contracts/contracts/Vault/Vault.sol\":1124:1130  _owner */\n      dup4\n        /* \"smart_contracts/contracts/Vault/Vault.sol\":1124:1144  _owner != address(0) */\n      0xffffffffffffffffffffffffffffffffffffffff\n      and\n      eq\n      iszero\n        /* \"smart_contracts/contracts/Vault/Vault.sol\":1124:1181  _owner != address(0) &&... */\n      dup1\n      iszero\n      tag_41\n      jumpi\n      pop\n        /* \"smart_contracts/contracts/Vault/Vault.sol\":1177:1181  true */\n      0x01\n        /* \"smart_contracts/contracts/Vault/Vault.sol\":1160:1181  admin[_owner] != true */\n      iszero\n      iszero\n        /* \"smart_contracts/contracts/Vault/Vault.sol\":1160:1165  admin */\n      0x01\n        /* \"smart_contracts/contracts/Vault/Vault.sol\":1160:1173  admin[_owner] */\n      0x00\n        /* \"smart_contracts/contracts/Vault/Vault.sol\":1166:1172  _owner */\n      dup6\n        /* \"smart_contracts/contracts/Vault/Vault.sol\":1160:1173  admin[_owner] */\n      0xffffffffffffffffffffffffffffffffffffffff\n      and\n      0xffffffffffffffffffffffffffffffffffffffff\n      and\n      dup2\n      mstore\n      0x20\n      add\n      swap1\n      dup2\n      mstore\n      0x20\n      add\n      0x00\n      keccak256\n      0x00\n      swap1\n      sload\n      swap1\n      0x0100\n      exp\n      swap1\n      div\n      0xff\n      and\n        /* \"smart_contracts/contracts/Vault/Vault.sol\":1160:1181  admin[_owner] != true */\n      iszero\n      iszero\n      eq\n      iszero\n        /* \"smart_contracts/contracts/Vault/Vault.sol\":1124:1181  _owner != address(0) &&... */\n    tag_41:\n        /* \"smart_contracts/contracts/Vault/Vault.sol\":1103:1191  require(... */\n      tag_42\n      jumpi\n      0x00\n      dup1\n      revert\n    tag_42:\n        /* \"smart_contracts/contracts/Vault/Vault.sol\":1217:1221  true */\n      0x01\n        /* \"smart_contracts/contracts/Vault/Vault.sol\":1201:1206  admin */\n      dup1\n        /* \"smart_contracts/contracts/Vault/Vault.sol\":1201:1214  admin[_owner] */\n      0x00\n        /* \"smart_contracts/contracts/Vault/Vault.sol\":1207:1213  _owner */\n      dup6\n        /* \"smart_contracts/contracts/Vault/Vault.sol\":1201:1214  admin[_owner] */\n      0xffffffffffffffffffffffffffffffffffffffff\n      and\n      0xffffffffffffffffffffffffffffffffffffffff\n      and\n      dup2\n      mstore\n      0x20\n      add\n      swap1\n      dup2\n      mstore\n      0x20\n      add\n      0x00\n      keccak256\n      0x00\n        /* \"smart_contracts/contracts/Vault/Vault.sol\":1201:1221  admin[_owner] = true */\n      0x0100\n      exp\n      dup2\n      sload\n      dup2\n      0xff\n      mul\n      not\n      and\n      swap1\n      dup4\n      iszero\n      iszero\n      mul\n      or\n      swap1\n      sstore\n      pop\n        /* \"smart_contracts/contracts/Vault/Vault.sol\":1238:1242  true */\n      0x01\n        /* \"smart_contracts/contracts/Vault/Vault.sol\":1231:1242  return true */\n      swap2\n      pop\n        /* \"smart_contracts/contracts/Vault/Vault.sol\":864:1009  {... */\n      pop\n        /* \"smart_contracts/contracts/Vault/Vault.sol\":1015:1249  function grantPermissionAdmin(address _owner) public onlyAdmin returns (bool) {... */\n      swap2\n      swap1\n      pop\n      jump\t// out\n        /* \"smart_contracts/contracts/Vault/Vault.sol\":1255:1492  function revokePermissionAdmin(address _owner) public onlyAdmin returns (bool) {... */\n    tag_22:\n        /* \"smart_contracts/contracts/Vault/Vault.sol\":1328:1332  bool */\n      0x00\n        /* \"smart_contracts/contracts/Vault/Vault.sol\":874:889  address _sender */\n      dup1\n        /* \"smart_contracts/contracts/Vault/Vault.sol\":892:902  msg.sender */\n      caller\n        /* \"smart_contracts/contracts/Vault/Vault.sol\":874:902  address _sender = msg.sender */\n      swap1\n      pop\n        /* \"smart_contracts/contracts/Vault/Vault.sol\":951:956  false */\n      0x00\n        /* \"smart_contracts/contracts/Vault/Vault.sol\":933:956  admin[_sender] != false */\n      iszero\n      iszero\n        /* \"smart_contracts/contracts/Vault/Vault.sol\":933:938  admin */\n      0x01\n        /* \"smart_contracts/contracts/Vault/Vault.sol\":933:947  admin[_sender] */\n      0x00\n        /* \"smart_contracts/contracts/Vault/Vault.sol\":939:946  _sender */\n      dup4\n        /* \"smart_contracts/contracts/Vault/Vault.sol\":933:947  admin[_sender] */\n      0xffffffffffffffffffffffffffffffffffffffff\n      and\n      0xffffffffffffffffffffffffffffffffffffffff\n      and\n      dup2\n      mstore\n      0x20\n      add\n      swap1\n      dup2\n      mstore\n      0x20\n      add\n      0x00\n      keccak256\n      0x00\n      swap1\n      sload\n      swap1\n      0x0100\n      exp\n      swap1\n      div\n      0xff\n      and\n        /* \"smart_contracts/contracts/Vault/Vault.sol\":933:956  admin[_sender] != false */\n      iszero\n      iszero\n      sub\n        /* \"smart_contracts/contracts/Vault/Vault.sol\":912:991  require(... */\n      tag_44\n      jumpi\n      mload(0x40)\n      0x08c379a000000000000000000000000000000000000000000000000000000000\n      dup2\n      mstore\n      0x04\n      add\n      tag_45\n      swap1\n      tag_39\n      jump\t// in\n    tag_45:\n      mload(0x40)\n      dup1\n      swap2\n      sub\n      swap1\n      revert\n    tag_44:\n        /* \"smart_contracts/contracts/Vault/Vault.sol\":1383:1384  0 */\n      0x00\n        /* \"smart_contracts/contracts/Vault/Vault.sol\":1365:1385  _owner != address(0) */\n      0xffffffffffffffffffffffffffffffffffffffff\n      and\n        /* \"smart_contracts/contracts/Vault/Vault.sol\":1365:1371  _owner */\n      dup4\n        /* \"smart_contracts/contracts/Vault/Vault.sol\":1365:1385  _owner != address(0) */\n      0xffffffffffffffffffffffffffffffffffffffff\n      and\n      eq\n      iszero\n        /* \"smart_contracts/contracts/Vault/Vault.sol\":1365:1423  _owner != address(0) &&... */\n      dup1\n      iszero\n      tag_47\n      jumpi\n      pop\n        /* \"smart_contracts/contracts/Vault/Vault.sol\":1418:1423  false */\n      0x00\n        /* \"smart_contracts/contracts/Vault/Vault.sol\":1401:1423  admin[_owner] != false */\n      iszero\n      iszero\n        /* \"smart_contracts/contracts/Vault/Vault.sol\":1401:1406  admin */\n      0x01\n        /* \"smart_contracts/contracts/Vault/Vault.sol\":1401:1414  admin[_owner] */\n      0x00\n        /* \"smart_contracts/contracts/Vault/Vault.sol\":1407:1413  _owner */\n      dup6\n        /* \"smart_contracts/contracts/Vault/Vault.sol\":1401:1414  admin[_owner] */\n      0xffffffffffffffffffffffffffffffffffffffff\n      and\n      0xffffffffffffffffffffffffffffffffffffffff\n      and\n      dup2\n      mstore\n      0x20\n      add\n      swap1\n      dup2\n      mstore\n      0x20\n      add\n      0x00\n      keccak256\n      0x00\n      swap1\n      sload\n      swap1\n      0x0100\n      exp\n      swap1\n      div\n      0xff\n      and\n        /* \"smart_contracts/contracts/Vault/Vault.sol\":1401:1423  admin[_owner] != false */\n      iszero\n      iszero\n      eq\n      iszero\n        /* \"smart_contracts/contracts/Vault/Vault.sol\":1365:1423  _owner != address(0) &&... */\n    tag_47:\n        /* \"smart_contracts/contracts/Vault/Vault.sol\":1344:1433  require(... */\n      tag_48\n      jumpi\n      0x00\n      dup1\n      revert\n    tag_48:\n        /* \"smart_contracts/contracts/Vault/Vault.sol\":1459:1464  false */\n      0x00\n        /* \"smart_contracts/contracts/Vault/Vault.sol\":1443:1448  admin */\n      0x01\n        /* \"smart_contracts/contracts/Vault/Vault.sol\":1443:1456  admin[_owner] */\n      0x00\n        /* \"smart_contracts/contracts/Vault/Vault.sol\":1449:1455  _owner */\n      dup6\n        /* \"smart_contracts/contracts/Vault/Vault.sol\":1443:1456  admin[_owner] */\n      0xffffffffffffffffffffffffffffffffffffffff\n      and\n      0xffffffffffffffffffffffffffffffffffffffff\n      and\n      dup2\n      mstore\n      0x20\n      add\n      swap1\n      dup2\n      mstore\n      0x20\n      add\n      0x00\n      keccak256\n      0x00\n        /* \"smart_contracts/contracts/Vault/Vault.sol\":1443:1464  admin[_owner] = false */\n      0x0100\n      exp\n      dup2\n      sload\n      dup2\n      0xff\n      mul\n      not\n      and\n      swap1\n      dup4\n      iszero\n      iszero\n      mul\n      or\n      swap1\n      sstore\n      pop\n        /* \"smart_contracts/contracts/Vault/Vault.sol\":1481:1485  true */\n      0x01\n        /* \"smart_contracts/contracts/Vault/Vault.sol\":1474:1485  return true */\n      swap2\n      pop\n        /* \"smart_contracts/contracts/Vault/Vault.sol\":864:1009  {... */\n      pop\n        /* \"smart_contracts/contracts/Vault/Vault.sol\":1255:1492  function revokePermissionAdmin(address _owner) public onlyAdmin returns (bool) {... */\n      swap2\n      swap1\n      pop\n      jump\t// out\n        /* \"smart_contracts/contracts/Vault/Vault.sol\":2517:2917  function ITransferFromVault(address _tokenContract, address _to, uint256 _value) payable external onlyAdmin returns (bool) {... */\n    tag_27:\n        /* \"smart_contracts/contracts/Vault/Vault.sol\":2634:2638  bool */\n      0x00\n        /* \"smart_contracts/contracts/Vault/Vault.sol\":874:889  address _sender */\n      dup1\n        /* \"smart_contracts/contracts/Vault/Vault.sol\":892:902  msg.sender */\n      caller\n        /* \"smart_contracts/contracts/Vault/Vault.sol\":874:902  address _sender = msg.sender */\n      swap1\n      pop\n        /* \"smart_contracts/contracts/Vault/Vault.sol\":951:956  false */\n      0x00\n        /* \"smart_contracts/contracts/Vault/Vault.sol\":933:956  admin[_sender] != false */\n      iszero\n      iszero\n        /* \"smart_contracts/contracts/Vault/Vault.sol\":933:938  admin */\n      0x01\n        /* \"smart_contracts/contracts/Vault/Vault.sol\":933:947  admin[_sender] */\n      0x00\n        /* \"smart_contracts/contracts/Vault/Vault.sol\":939:946  _sender */\n      dup4\n        /* \"smart_contracts/contracts/Vault/Vault.sol\":933:947  admin[_sender] */\n      0xffffffffffffffffffffffffffffffffffffffff\n      and\n      0xffffffffffffffffffffffffffffffffffffffff\n      and\n      dup2\n      mstore\n      0x20\n      add\n      swap1\n      dup2\n      mstore\n      0x20\n      add\n      0x00\n      keccak256\n      0x00\n      swap1\n      sload\n      swap1\n      0x0100\n      exp\n      swap1\n      div\n      0xff\n      and\n        /* \"smart_contracts/contracts/Vault/Vault.sol\":933:956  admin[_sender] != false */\n      iszero\n      iszero\n      sub\n        /* \"smart_contracts/contracts/Vault/Vault.sol\":912:991  require(... */\n      tag_50\n      jumpi\n      mload(0x40)\n      0x08c379a000000000000000000000000000000000000000000000000000000000\n      dup2\n      mstore\n      0x04\n      add\n      tag_51\n      swap1\n      tag_39\n      jump\t// in\n    tag_51:\n      mload(0x40)\n      dup1\n      swap2\n      sub\n      swap1\n      revert\n    tag_50:\n        /* \"smart_contracts/contracts/Vault/Vault.sol\":2650:2663  IERC20 _token */\n      0x00\n        /* \"smart_contracts/contracts/Vault/Vault.sol\":2673:2687  _tokenContract */\n      dup6\n        /* \"smart_contracts/contracts/Vault/Vault.sol\":2650:2688  IERC20 _token = IERC20(_tokenContract) */\n      swap1\n      pop\n        /* \"smart_contracts/contracts/Vault/Vault.sol\":2698:2711  address _from */\n      0x00\n        /* \"smart_contracts/contracts/Vault/Vault.sol\":2714:2718  meta */\n      0x02\n        /* \"smart_contracts/contracts/Vault/Vault.sol\":2714:2724  meta.vault */\n      0x00\n      add\n      0x00\n      swap1\n      sload\n      swap1\n      0x0100\n      exp\n      swap1\n      div\n      0xffffffffffffffffffffffffffffffffffffffff\n      and\n        /* \"smart_contracts/contracts/Vault/Vault.sol\":2698:2724  address _from = meta.vault */\n      swap1\n      pop\n        /* \"smart_contracts/contracts/Vault/Vault.sol\":2770:2771  0 */\n      0x00\n        /* \"smart_contracts/contracts/Vault/Vault.sol\":2755:2772  _to != address(0) */\n      0xffffffffffffffffffffffffffffffffffffffff\n      and\n        /* \"smart_contracts/contracts/Vault/Vault.sol\":2755:2758  _to */\n      dup7\n        /* \"smart_contracts/contracts/Vault/Vault.sol\":2755:2772  _to != address(0) */\n      0xffffffffffffffffffffffffffffffffffffffff\n      and\n      eq\n      iszero\n        /* \"smart_contracts/contracts/Vault/Vault.sol\":2755:2821  _to != address(0) &&... */\n      dup1\n      iszero\n      tag_53\n      jumpi\n      pop\n        /* \"smart_contracts/contracts/Vault/Vault.sol\":2815:2821  _value */\n      dup5\n        /* \"smart_contracts/contracts/Vault/Vault.sol\":2788:2794  _token */\n      dup3\n        /* \"smart_contracts/contracts/Vault/Vault.sol\":2788:2804  _token.balanceOf */\n      0xffffffffffffffffffffffffffffffffffffffff\n      and\n      0x70a08231\n        /* \"smart_contracts/contracts/Vault/Vault.sol\":2805:2810  _from */\n      dup4\n        /* \"smart_contracts/contracts/Vault/Vault.sol\":2788:2811  _token.balanceOf(_from) */\n      mload(0x40)\n      dup3\n      0xffffffff\n      and\n      0xe0\n      shl\n      dup2\n      mstore\n      0x04\n      add\n      tag_54\n      swap2\n      swap1\n      tag_31\n      jump\t// in\n    tag_54:\n      0x20\n      mload(0x40)\n      dup1\n      dup4\n      sub\n      dup2\n      dup7\n      gas\n      staticcall\n      iszero\n      dup1\n      iszero\n      tag_56\n      jumpi\n      returndatasize\n      0x00\n      dup1\n      returndatacopy\n      revert(0x00, returndatasize)\n    tag_56:\n      pop\n      pop\n      pop\n      pop\n      mload(0x40)\n      returndatasize\n      not(0x1f)\n      0x1f\n      dup3\n      add\n      and\n      dup3\n      add\n      dup1\n      0x40\n      mstore\n      pop\n      dup2\n      add\n      swap1\n      tag_57\n      swap2\n      swap1\n      tag_35\n      jump\t// in\n    tag_57:\n        /* \"smart_contracts/contracts/Vault/Vault.sol\":2788:2821  _token.balanceOf(_from) >= _value */\n      lt\n      iszero\n        /* \"smart_contracts/contracts/Vault/Vault.sol\":2755:2821  _to != address(0) &&... */\n    tag_53:\n        /* \"smart_contracts/contracts/Vault/Vault.sol\":2734:2831  require(... */\n      tag_58\n      jumpi\n      0x00\n      dup1\n      revert\n    tag_58:\n        /* \"smart_contracts/contracts/Vault/Vault.sol\":2841:2854  bool _success */\n      0x00\n        /* \"smart_contracts/contracts/Vault/Vault.sol\":2857:2863  _token */\n      dup3\n        /* \"smart_contracts/contracts/Vault/Vault.sol\":2857:2872  _token.transfer */\n      0xffffffffffffffffffffffffffffffffffffffff\n      and\n      0xa9059cbb\n        /* \"smart_contracts/contracts/Vault/Vault.sol\":2873:2876  _to */\n      dup9\n        /* \"smart_contracts/contracts/Vault/Vault.sol\":2878:2884  _value */\n      dup9\n        /* \"smart_contracts/contracts/Vault/Vault.sol\":2857:2885  _token.transfer(_to, _value) */\n      mload(0x40)\n      dup4\n      0xffffffff\n      and\n      0xe0\n      shl\n      dup2\n      mstore\n      0x04\n      add\n      tag_59\n      swap3\n      swap2\n      swap1\n      tag_60\n      jump\t// in\n    tag_59:\n      0x20\n      mload(0x40)\n      dup1\n      dup4\n      sub\n      dup2\n      0x00\n      dup8\n      gas\n      call\n      iszero\n      dup1\n      iszero\n      tag_62\n      jumpi\n      returndatasize\n      0x00\n      dup1\n      returndatacopy\n      revert(0x00, returndatasize)\n    tag_62:\n      pop\n      pop\n      pop\n      pop\n      mload(0x40)\n      returndatasize\n      not(0x1f)\n      0x1f\n      dup3\n      add\n      and\n      dup3\n      add\n      dup1\n      0x40\n      mstore\n      pop\n      dup2\n      add\n      swap1\n      tag_63\n      swap2\n      swap1\n      tag_64\n      jump\t// in\n    tag_63:\n        /* \"smart_contracts/contracts/Vault/Vault.sol\":2841:2885  bool _success = _token.transfer(_to, _value) */\n      swap1\n      pop\n        /* \"smart_contracts/contracts/Vault/Vault.sol\":2902:2910  _success */\n      dup1\n        /* \"smart_contracts/contracts/Vault/Vault.sol\":2895:2910  return _success */\n      swap5\n      pop\n      pop\n      pop\n      pop\n        /* \"smart_contracts/contracts/Vault/Vault.sol\":864:1009  {... */\n      pop\n        /* \"smart_contracts/contracts/Vault/Vault.sol\":2517:2917  function ITransferFromVault(address _tokenContract, address _to, uint256 _value) payable external onlyAdmin returns (bool) {... */\n      swap4\n      swap3\n      pop\n      pop\n      pop\n      jump\t// out\n        /* \"#utility.yul\":88:205   */\n    tag_66:\n        /* \"#utility.yul\":197:198   */\n      0x00\n        /* \"#utility.yul\":194:195   */\n      dup1\n        /* \"#utility.yul\":187:199   */\n      revert\n        /* \"#utility.yul\":334:460   */\n    tag_68:\n        /* \"#utility.yul\":371:378   */\n      0x00\n        /* \"#utility.yul\":411:453   */\n      0xffffffffffffffffffffffffffffffffffffffff\n        /* \"#utility.yul\":404:409   */\n      dup3\n        /* \"#utility.yul\":400:454   */\n      and\n        /* \"#utility.yul\":389:454   */\n      swap1\n      pop\n        /* \"#utility.yul\":334:460   */\n      swap2\n      swap1\n      pop\n      jump\t// out\n        /* \"#utility.yul\":466:562   */\n    tag_69:\n        /* \"#utility.yul\":503:510   */\n      0x00\n        /* \"#utility.yul\":532:556   */\n      tag_91\n        /* \"#utility.yul\":550:555   */\n      dup3\n        /* \"#utility.yul\":532:556   */\n      tag_68\n      jump\t// in\n    tag_91:\n        /* \"#utility.yul\":521:556   */\n      swap1\n      pop\n        /* \"#utility.yul\":466:562   */\n      swap2\n      swap1\n      pop\n      jump\t// out\n        /* \"#utility.yul\":568:690   */\n    tag_70:\n        /* \"#utility.yul\":641:665   */\n      tag_93\n        /* \"#utility.yul\":659:664   */\n      dup2\n        /* \"#utility.yul\":641:665   */\n      tag_69\n      jump\t// in\n    tag_93:\n        /* \"#utility.yul\":634:639   */\n      dup2\n        /* \"#utility.yul\":631:666   */\n      eq\n        /* \"#utility.yul\":621:684   */\n      tag_94\n      jumpi\n        /* \"#utility.yul\":680:681   */\n      0x00\n        /* \"#utility.yul\":677:678   */\n      dup1\n        /* \"#utility.yul\":670:682   */\n      revert\n        /* \"#utility.yul\":621:684   */\n    tag_94:\n        /* \"#utility.yul\":568:690   */\n      pop\n      jump\t// out\n        /* \"#utility.yul\":696:835   */\n    tag_71:\n        /* \"#utility.yul\":742:747   */\n      0x00\n        /* \"#utility.yul\":780:786   */\n      dup2\n        /* \"#utility.yul\":767:787   */\n      calldataload\n        /* \"#utility.yul\":758:787   */\n      swap1\n      pop\n        /* \"#utility.yul\":796:829   */\n      tag_96\n        /* \"#utility.yul\":823:828   */\n      dup2\n        /* \"#utility.yul\":796:829   */\n      tag_70\n      jump\t// in\n    tag_96:\n        /* \"#utility.yul\":696:835   */\n      swap3\n      swap2\n      pop\n      pop\n      jump\t// out\n        /* \"#utility.yul\":841:1170   */\n    tag_9:\n        /* \"#utility.yul\":900:906   */\n      0x00\n        /* \"#utility.yul\":949:951   */\n      0x20\n        /* \"#utility.yul\":937:946   */\n      dup3\n        /* \"#utility.yul\":928:935   */\n      dup5\n        /* \"#utility.yul\":924:947   */\n      sub\n        /* \"#utility.yul\":920:952   */\n      slt\n        /* \"#utility.yul\":917:1036   */\n      iszero\n      tag_98\n      jumpi\n        /* \"#utility.yul\":955:1034   */\n      tag_99\n      tag_66\n      jump\t// in\n    tag_99:\n        /* \"#utility.yul\":917:1036   */\n    tag_98:\n        /* \"#utility.yul\":1075:1076   */\n      0x00\n        /* \"#utility.yul\":1100:1153   */\n      tag_100\n        /* \"#utility.yul\":1145:1152   */\n      dup5\n        /* \"#utility.yul\":1136:1142   */\n      dup3\n        /* \"#utility.yul\":1125:1134   */\n      dup6\n        /* \"#utility.yul\":1121:1143   */\n      add\n        /* \"#utility.yul\":1100:1153   */\n      tag_71\n      jump\t// in\n    tag_100:\n        /* \"#utility.yul\":1090:1153   */\n      swap2\n      pop\n        /* \"#utility.yul\":1046:1163   */\n      pop\n        /* \"#utility.yul\":841:1170   */\n      swap3\n      swap2\n      pop\n      pop\n      jump\t// out\n        /* \"#utility.yul\":1176:1253   */\n    tag_72:\n        /* \"#utility.yul\":1213:1220   */\n      0x00\n        /* \"#utility.yul\":1242:1247   */\n      dup2\n        /* \"#utility.yul\":1231:1247   */\n      swap1\n      pop\n        /* \"#utility.yul\":1176:1253   */\n      swap2\n      swap1\n      pop\n      jump\t// out\n        /* \"#utility.yul\":1259:1377   */\n    tag_73:\n        /* \"#utility.yul\":1346:1370   */\n      tag_103\n        /* \"#utility.yul\":1364:1369   */\n      dup2\n        /* \"#utility.yul\":1346:1370   */\n      tag_72\n      jump\t// in\n    tag_103:\n        /* \"#utility.yul\":1341:1344   */\n      dup3\n        /* \"#utility.yul\":1334:1371   */\n      mstore\n        /* \"#utility.yul\":1259:1377   */\n      pop\n      pop\n      jump\t// out\n        /* \"#utility.yul\":1383:1605   */\n    tag_12:\n        /* \"#utility.yul\":1476:1480   */\n      0x00\n        /* \"#utility.yul\":1514:1516   */\n      0x20\n        /* \"#utility.yul\":1503:1512   */\n      dup3\n        /* \"#utility.yul\":1499:1517   */\n      add\n        /* \"#utility.yul\":1491:1517   */\n      swap1\n      pop\n        /* \"#utility.yul\":1527:1598   */\n      tag_105\n        /* \"#utility.yul\":1595:1596   */\n      0x00\n        /* \"#utility.yul\":1584:1593   */\n      dup4\n        /* \"#utility.yul\":1580:1597   */\n      add\n        /* \"#utility.yul\":1571:1577   */\n      dup5\n        /* \"#utility.yul\":1527:1598   */\n      tag_73\n      jump\t// in\n    tag_105:\n        /* \"#utility.yul\":1383:1605   */\n      swap3\n      swap2\n      pop\n      pop\n      jump\t// out\n        /* \"#utility.yul\":1611:1701   */\n    tag_74:\n        /* \"#utility.yul\":1645:1652   */\n      0x00\n        /* \"#utility.yul\":1688:1693   */\n      dup2\n        /* \"#utility.yul\":1681:1694   */\n      iszero\n        /* \"#utility.yul\":1674:1695   */\n      iszero\n        /* \"#utility.yul\":1663:1695   */\n      swap1\n      pop\n        /* \"#utility.yul\":1611:1701   */\n      swap2\n      swap1\n      pop\n      jump\t// out\n        /* \"#utility.yul\":1707:1816   */\n    tag_75:\n        /* \"#utility.yul\":1788:1809   */\n      tag_108\n        /* \"#utility.yul\":1803:1808   */\n      dup2\n        /* \"#utility.yul\":1788:1809   */\n      tag_74\n      jump\t// in\n    tag_108:\n        /* \"#utility.yul\":1783:1786   */\n      dup3\n        /* \"#utility.yul\":1776:1810   */\n      mstore\n        /* \"#utility.yul\":1707:1816   */\n      pop\n      pop\n      jump\t// out\n        /* \"#utility.yul\":1822:2032   */\n    tag_18:\n        /* \"#utility.yul\":1909:1913   */\n      0x00\n        /* \"#utility.yul\":1947:1949   */\n      0x20\n        /* \"#utility.yul\":1936:1945   */\n      dup3\n        /* \"#utility.yul\":1932:1950   */\n      add\n        /* \"#utility.yul\":1924:1950   */\n      swap1\n      pop\n        /* \"#utility.yul\":1960:2025   */\n      tag_110\n        /* \"#utility.yul\":2022:2023   */\n      0x00\n        /* \"#utility.yul\":2011:2020   */\n      dup4\n        /* \"#utility.yul\":2007:2024   */\n      add\n        /* \"#utility.yul\":1998:2004   */\n      dup5\n        /* \"#utility.yul\":1960:2025   */\n      tag_75\n      jump\t// in\n    tag_110:\n        /* \"#utility.yul\":1822:2032   */\n      swap3\n      swap2\n      pop\n      pop\n      jump\t// out\n        /* \"#utility.yul\":2038:2160   */\n    tag_76:\n        /* \"#utility.yul\":2111:2135   */\n      tag_112\n        /* \"#utility.yul\":2129:2134   */\n      dup2\n        /* \"#utility.yul\":2111:2135   */\n      tag_72\n      jump\t// in\n    tag_112:\n        /* \"#utility.yul\":2104:2109   */\n      dup2\n        /* \"#utility.yul\":2101:2136   */\n      eq\n        /* \"#utility.yul\":2091:2154   */\n      tag_113\n      jumpi\n        /* \"#utility.yul\":2150:2151   */\n      0x00\n        /* \"#utility.yul\":2147:2148   */\n      dup1\n        /* \"#utility.yul\":2140:2152   */\n      revert\n        /* \"#utility.yul\":2091:2154   */\n    tag_113:\n        /* \"#utility.yul\":2038:2160   */\n      pop\n      jump\t// out\n        /* \"#utility.yul\":2166:2305   */\n    tag_77:\n        /* \"#utility.yul\":2212:2217   */\n      0x00\n        /* \"#utility.yul\":2250:2256   */\n      dup2\n        /* \"#utility.yul\":2237:2257   */\n      calldataload\n        /* \"#utility.yul\":2228:2257   */\n      swap1\n      pop\n        /* \"#utility.yul\":2266:2299   */\n      tag_115\n        /* \"#utility.yul\":2293:2298   */\n      dup2\n        /* \"#utility.yul\":2266:2299   */\n      tag_76\n      jump\t// in\n    tag_115:\n        /* \"#utility.yul\":2166:2305   */\n      swap3\n      swap2\n      pop\n      pop\n      jump\t// out\n        /* \"#utility.yul\":2311:2930   */\n    tag_26:\n        /* \"#utility.yul\":2388:2394   */\n      0x00\n        /* \"#utility.yul\":2396:2402   */\n      dup1\n        /* \"#utility.yul\":2404:2410   */\n      0x00\n        /* \"#utility.yul\":2453:2455   */\n      0x60\n        /* \"#utility.yul\":2441:2450   */\n      dup5\n        /* \"#utility.yul\":2432:2439   */\n      dup7\n        /* \"#utility.yul\":2428:2451   */\n      sub\n        /* \"#utility.yul\":2424:2456   */\n      slt\n        /* \"#utility.yul\":2421:2540   */\n      iszero\n      tag_117\n      jumpi\n        /* \"#utility.yul\":2459:2538   */\n      tag_118\n      tag_66\n      jump\t// in\n    tag_118:\n        /* \"#utility.yul\":2421:2540   */\n    tag_117:\n        /* \"#utility.yul\":2579:2580   */\n      0x00\n        /* \"#utility.yul\":2604:2657   */\n      tag_119\n        /* \"#utility.yul\":2649:2656   */\n      dup7\n        /* \"#utility.yul\":2640:2646   */\n      dup3\n        /* \"#utility.yul\":2629:2638   */\n      dup8\n        /* \"#utility.yul\":2625:2647   */\n      add\n        /* \"#utility.yul\":2604:2657   */\n      tag_71\n      jump\t// in\n    tag_119:\n        /* \"#utility.yul\":2594:2657   */\n      swap4\n      pop\n        /* \"#utility.yul\":2550:2667   */\n      pop\n        /* \"#utility.yul\":2706:2708   */\n      0x20\n        /* \"#utility.yul\":2732:2785   */\n      tag_120\n        /* \"#utility.yul\":2777:2784   */\n      dup7\n        /* \"#utility.yul\":2768:2774   */\n      dup3\n        /* \"#utility.yul\":2757:2766   */\n      dup8\n        /* \"#utility.yul\":2753:2775   */\n      add\n        /* \"#utility.yul\":2732:2785   */\n      tag_71\n      jump\t// in\n    tag_120:\n        /* \"#utility.yul\":2722:2785   */\n      swap3\n      pop\n        /* \"#utility.yul\":2677:2795   */\n      pop\n        /* \"#utility.yul\":2834:2836   */\n      0x40\n        /* \"#utility.yul\":2860:2913   */\n      tag_121\n        /* \"#utility.yul\":2905:2912   */\n      dup7\n        /* \"#utility.yul\":2896:2902   */\n      dup3\n        /* \"#utility.yul\":2885:2894   */\n      dup8\n        /* \"#utility.yul\":2881:2903   */\n      add\n        /* \"#utility.yul\":2860:2913   */\n      tag_77\n      jump\t// in\n    tag_121:\n        /* \"#utility.yul\":2850:2913   */\n      swap2\n      pop\n        /* \"#utility.yul\":2805:2923   */\n      pop\n        /* \"#utility.yul\":2311:2930   */\n      swap3\n      pop\n      swap3\n      pop\n      swap3\n      jump\t// out\n        /* \"#utility.yul\":2936:3054   */\n    tag_78:\n        /* \"#utility.yul\":3023:3047   */\n      tag_123\n        /* \"#utility.yul\":3041:3046   */\n      dup2\n        /* \"#utility.yul\":3023:3047   */\n      tag_69\n      jump\t// in\n    tag_123:\n        /* \"#utility.yul\":3018:3021   */\n      dup3\n        /* \"#utility.yul\":3011:3048   */\n      mstore\n        /* \"#utility.yul\":2936:3054   */\n      pop\n      pop\n      jump\t// out\n        /* \"#utility.yul\":3060:3282   */\n    tag_31:\n        /* \"#utility.yul\":3153:3157   */\n      0x00\n        /* \"#utility.yul\":3191:3193   */\n      0x20\n        /* \"#utility.yul\":3180:3189   */\n      dup3\n        /* \"#utility.yul\":3176:3194   */\n      add\n        /* \"#utility.yul\":3168:3194   */\n      swap1\n      pop\n        /* \"#utility.yul\":3204:3275   */\n      tag_125\n        /* \"#utility.yul\":3272:3273   */\n      0x00\n        /* \"#utility.yul\":3261:3270   */\n      dup4\n        /* \"#utility.yul\":3257:3274   */\n      add\n        /* \"#utility.yul\":3248:3254   */\n      dup5\n        /* \"#utility.yul\":3204:3275   */\n      tag_78\n      jump\t// in\n    tag_125:\n        /* \"#utility.yul\":3060:3282   */\n      swap3\n      swap2\n      pop\n      pop\n      jump\t// out\n        /* \"#utility.yul\":3288:3431   */\n    tag_79:\n        /* \"#utility.yul\":3345:3350   */\n      0x00\n        /* \"#utility.yul\":3376:3382   */\n      dup2\n        /* \"#utility.yul\":3370:3383   */\n      mload\n        /* \"#utility.yul\":3361:3383   */\n      swap1\n      pop\n        /* \"#utility.yul\":3392:3425   */\n      tag_127\n        /* \"#utility.yul\":3419:3424   */\n      dup2\n        /* \"#utility.yul\":3392:3425   */\n      tag_76\n      jump\t// in\n    tag_127:\n        /* \"#utility.yul\":3288:3431   */\n      swap3\n      swap2\n      pop\n      pop\n      jump\t// out\n        /* \"#utility.yul\":3437:3788   */\n    tag_35:\n        /* \"#utility.yul\":3507:3513   */\n      0x00\n        /* \"#utility.yul\":3556:3558   */\n      0x20\n        /* \"#utility.yul\":3544:3553   */\n      dup3\n        /* \"#utility.yul\":3535:3542   */\n      dup5\n        /* \"#utility.yul\":3531:3554   */\n      sub\n        /* \"#utility.yul\":3527:3559   */\n      slt\n        /* \"#utility.yul\":3524:3643   */\n      iszero\n      tag_129\n      jumpi\n        /* \"#utility.yul\":3562:3641   */\n      tag_130\n      tag_66\n      jump\t// in\n    tag_130:\n        /* \"#utility.yul\":3524:3643   */\n    tag_129:\n        /* \"#utility.yul\":3682:3683   */\n      0x00\n        /* \"#utility.yul\":3707:3771   */\n      tag_131\n        /* \"#utility.yul\":3763:3770   */\n      dup5\n        /* \"#utility.yul\":3754:3760   */\n      dup3\n        /* \"#utility.yul\":3743:3752   */\n      dup6\n        /* \"#utility.yul\":3739:3761   */\n      add\n        /* \"#utility.yul\":3707:3771   */\n      tag_79\n      jump\t// in\n    tag_131:\n        /* \"#utility.yul\":3697:3771   */\n      swap2\n      pop\n        /* \"#utility.yul\":3653:3781   */\n      pop\n        /* \"#utility.yul\":3437:3788   */\n      swap3\n      swap2\n      pop\n      pop\n      jump\t// out\n        /* \"#utility.yul\":3794:3963   */\n    tag_80:\n        /* \"#utility.yul\":3878:3889   */\n      0x00\n        /* \"#utility.yul\":3912:3918   */\n      dup3\n        /* \"#utility.yul\":3907:3910   */\n      dup3\n        /* \"#utility.yul\":3900:3919   */\n      mstore\n        /* \"#utility.yul\":3952:3956   */\n      0x20\n        /* \"#utility.yul\":3947:3950   */\n      dup3\n        /* \"#utility.yul\":3943:3957   */\n      add\n        /* \"#utility.yul\":3928:3957   */\n      swap1\n      pop\n        /* \"#utility.yul\":3794:3963   */\n      swap3\n      swap2\n      pop\n      pop\n      jump\t// out\n        /* \"#utility.yul\":3969:4128   */\n    tag_81:\n        /* \"#utility.yul\":4109:4120   */\n      0x6f6e6c7941646d696e0000000000000000000000000000000000000000000000\n        /* \"#utility.yul\":4105:4106   */\n      0x00\n        /* \"#utility.yul\":4097:4103   */\n      dup3\n        /* \"#utility.yul\":4093:4107   */\n      add\n        /* \"#utility.yul\":4086:4121   */\n      mstore\n        /* \"#utility.yul\":3969:4128   */\n      pop\n      jump\t// out\n        /* \"#utility.yul\":4134:4499   */\n    tag_82:\n        /* \"#utility.yul\":4276:4279   */\n      0x00\n        /* \"#utility.yul\":4297:4363   */\n      tag_135\n        /* \"#utility.yul\":4361:4362   */\n      0x09\n        /* \"#utility.yul\":4356:4359   */\n      dup4\n        /* \"#utility.yul\":4297:4363   */\n      tag_80\n      jump\t// in\n    tag_135:\n        /* \"#utility.yul\":4290:4363   */\n      swap2\n      pop\n        /* \"#utility.yul\":4372:4465   */\n      tag_136\n        /* \"#utility.yul\":4461:4464   */\n      dup3\n        /* \"#utility.yul\":4372:4465   */\n      tag_81\n      jump\t// in\n    tag_136:\n        /* \"#utility.yul\":4490:4492   */\n      0x20\n        /* \"#utility.yul\":4485:4488   */\n      dup3\n        /* \"#utility.yul\":4481:4493   */\n      add\n        /* \"#utility.yul\":4474:4493   */\n      swap1\n      pop\n        /* \"#utility.yul\":4134:4499   */\n      swap2\n      swap1\n      pop\n      jump\t// out\n        /* \"#utility.yul\":4505:4924   */\n    tag_39:\n        /* \"#utility.yul\":4671:4675   */\n      0x00\n        /* \"#utility.yul\":4709:4711   */\n      0x20\n        /* \"#utility.yul\":4698:4707   */\n      dup3\n        /* \"#utility.yul\":4694:4712   */\n      add\n        /* \"#utility.yul\":4686:4712   */\n      swap1\n      pop\n        /* \"#utility.yul\":4758:4767   */\n      dup2\n        /* \"#utility.yul\":4752:4756   */\n      dup2\n        /* \"#utility.yul\":4748:4768   */\n      sub\n        /* \"#utility.yul\":4744:4745   */\n      0x00\n        /* \"#utility.yul\":4733:4742   */\n      dup4\n        /* \"#utility.yul\":4729:4746   */\n      add\n        /* \"#utility.yul\":4722:4769   */\n      mstore\n        /* \"#utility.yul\":4786:4917   */\n      tag_138\n        /* \"#utility.yul\":4912:4916   */\n      dup2\n        /* \"#utility.yul\":4786:4917   */\n      tag_82\n      jump\t// in\n    tag_138:\n        /* \"#utility.yul\":4778:4917   */\n      swap1\n      pop\n        /* \"#utility.yul\":4505:4924   */\n      swap2\n      swap1\n      pop\n      jump\t// out\n        /* \"#utility.yul\":4930:5262   */\n    tag_60:\n        /* \"#utility.yul\":5051:5055   */\n      0x00\n        /* \"#utility.yul\":5089:5091   */\n      0x40\n        /* \"#utility.yul\":5078:5087   */\n      dup3\n        /* \"#utility.yul\":5074:5092   */\n      add\n        /* \"#utility.yul\":5066:5092   */\n      swap1\n      pop\n        /* \"#utility.yul\":5102:5173   */\n      tag_140\n        /* \"#utility.yul\":5170:5171   */\n      0x00\n        /* \"#utility.yul\":5159:5168   */\n      dup4\n        /* \"#utility.yul\":5155:5172   */\n      add\n        /* \"#utility.yul\":5146:5152   */\n      dup6\n        /* \"#utility.yul\":5102:5173   */\n      tag_78\n      jump\t// in\n    tag_140:\n        /* \"#utility.yul\":5183:5255   */\n      tag_141\n        /* \"#utility.yul\":5251:5253   */\n      0x20\n        /* \"#utility.yul\":5240:5249   */\n      dup4\n        /* \"#utility.yul\":5236:5254   */\n      add\n        /* \"#utility.yul\":5227:5233   */\n      dup5\n        /* \"#utility.yul\":5183:5255   */\n      tag_73\n      jump\t// in\n    tag_141:\n        /* \"#utility.yul\":4930:5262   */\n      swap4\n      swap3\n      pop\n      pop\n      pop\n      jump\t// out\n        /* \"#utility.yul\":5268:5384   */\n    tag_83:\n        /* \"#utility.yul\":5338:5359   */\n      tag_143\n        /* \"#utility.yul\":5353:5358   */\n      dup2\n        /* \"#utility.yul\":5338:5359   */\n      tag_74\n      jump\t// in\n    tag_143:\n        /* \"#utility.yul\":5331:5336   */\n      dup2\n        /* \"#utility.yul\":5328:5360   */\n      eq\n        /* \"#utility.yul\":5318:5378   */\n      tag_144\n      jumpi\n        /* \"#utility.yul\":5374:5375   */\n      0x00\n        /* \"#utility.yul\":5371:5372   */\n      dup1\n        /* \"#utility.yul\":5364:5376   */\n      revert\n        /* \"#utility.yul\":5318:5378   */\n    tag_144:\n        /* \"#utility.yul\":5268:5384   */\n      pop\n      jump\t// out\n        /* \"#utility.yul\":5390:5527   */\n    tag_84:\n        /* \"#utility.yul\":5444:5449   */\n      0x00\n        /* \"#utility.yul\":5475:5481   */\n      dup2\n        /* \"#utility.yul\":5469:5482   */\n      mload\n        /* \"#utility.yul\":5460:5482   */\n      swap1\n      pop\n        /* \"#utility.yul\":5491:5521   */\n      tag_146\n        /* \"#utility.yul\":5515:5520   */\n      dup2\n        /* \"#utility.yul\":5491:5521   */\n      tag_83\n      jump\t// in\n    tag_146:\n        /* \"#utility.yul\":5390:5527   */\n      swap3\n      swap2\n      pop\n      pop\n      jump\t// out\n        /* \"#utility.yul\":5533:5878   */\n    tag_64:\n        /* \"#utility.yul\":5600:5606   */\n      0x00\n        /* \"#utility.yul\":5649:5651   */\n      0x20\n        /* \"#utility.yul\":5637:5646   */\n      dup3\n        /* \"#utility.yul\":5628:5635   */\n      dup5\n        /* \"#utility.yul\":5624:5647   */\n      sub\n        /* \"#utility.yul\":5620:5652   */\n      slt\n        /* \"#utility.yul\":5617:5736   */\n      iszero\n      tag_148\n      jumpi\n        /* \"#utility.yul\":5655:5734   */\n      tag_149\n      tag_66\n      jump\t// in\n    tag_149:\n        /* \"#utility.yul\":5617:5736   */\n    tag_148:\n        /* \"#utility.yul\":5775:5776   */\n      0x00\n        /* \"#utility.yul\":5800:5861   */\n      tag_150\n        /* \"#utility.yul\":5853:5860   */\n      dup5\n        /* \"#utility.yul\":5844:5850   */\n      dup3\n        /* \"#utility.yul\":5833:5842   */\n      dup6\n        /* \"#utility.yul\":5829:5851   */\n      add\n        /* \"#utility.yul\":5800:5861   */\n      tag_84\n      jump\t// in\n    tag_150:\n        /* \"#utility.yul\":5790:5861   */\n      swap2\n      pop\n        /* \"#utility.yul\":5746:5871   */\n      pop\n        /* \"#utility.yul\":5533:5878   */\n      swap3\n      swap2\n      pop\n      pop\n      jump\t// out\n\n    auxdata: 0xa2646970667358221220f1935eaad8eed1de1d9a950fccd631c3892e9cd413cd8c19cd44cdb1b92c54b464736f6c63430008120033\n}\n",
				"bytecode": {
					"linkReferences": {},
					"object": "60806040523480156200001157600080fd5b5060405162000de838038062000de88339818101604052810190620000379190620002eb565b60018060003373ffffffffffffffffffffffffffffffffffffffff1673ffffffffffffffffffffffffffffffffffffffff16815260200190815260200160002060006101000a81548160ff02191690831515021790555080600260000160006101000a81548173ffffffffffffffffffffffffffffffffffffffff021916908373ffffffffffffffffffffffffffffffffffffffff160217905550620000e381620000eb60201b60201c565b5050620003a0565b60008033905060001515600160008373ffffffffffffffffffffffffffffffffffffffff1673ffffffffffffffffffffffffffffffffffffffff16815260200190815260200160002060009054906101000a900460ff1615150362000187576040517f08c379a00000000000000000000000000000000000000000000000000000000081526004016200017e906200037e565b60405180910390fd5b600073ffffffffffffffffffffffffffffffffffffffff168373ffffffffffffffffffffffffffffffffffffffff161415801562000216575060011515600160008573ffffffffffffffffffffffffffffffffffffffff1673ffffffffffffffffffffffffffffffffffffffff16815260200190815260200160002060009054906101000a900460ff16151514155b6200022057600080fd5b60018060008573ffffffffffffffffffffffffffffffffffffffff1673ffffffffffffffffffffffffffffffffffffffff16815260200190815260200160002060006101000a81548160ff0219169083151502179055506001915050919050565b600080fd5b600073ffffffffffffffffffffffffffffffffffffffff82169050919050565b6000620002b38262000286565b9050919050565b620002c581620002a6565b8114620002d157600080fd5b50565b600081519050620002e581620002ba565b92915050565b60006020828403121562000304576200030362000281565b5b60006200031484828501620002d4565b91505092915050565b600082825260208201905092915050565b7f6f6e6c7941646d696e0000000000000000000000000000000000000000000000600082015250565b6000620003666009836200031d565b915062000373826200032e565b602082019050919050565b60006020820190508181036000830152620003998162000357565b9050919050565b610a3880620003b06000396000f3fe60806040526004361061003f5760003560e01c806357f3fccd1461004457806396b75b1a14610081578063db3c5fca146100be578063f0cb83a5146100fb575b600080fd5b34801561005057600080fd5b5061006b60048036038101906100669190610781565b61012b565b60405161007891906107c7565b60405180910390f35b34801561008d57600080fd5b506100a860048036038101906100a39190610781565b6101e4565b6040516100b591906107fd565b60405180910390f35b3480156100ca57600080fd5b506100e560048036038101906100e09190610781565b610375565b6040516100f291906107fd565b60405180910390f35b61011560048036038101906101109190610844565b610507565b60405161012291906107fd565b60405180910390f35b6000808290506000600260000160009054906101000a900473ffffffffffffffffffffffffffffffffffffffff16905060008273ffffffffffffffffffffffffffffffffffffffff166370a08231836040518263ffffffff1660e01b815260040161019691906108a6565b602060405180830381865afa1580156101b3573d6000803e3d6000fd5b505050506040513d601f19601f820116820180604052508101906101d791906108d6565b9050809350505050919050565b60008033905060001515600160008373ffffffffffffffffffffffffffffffffffffffff1673ffffffffffffffffffffffffffffffffffffffff16815260200190815260200160002060009054906101000a900460ff1615150361027d576040517f08c379a000000000000000000000000000000000000000000000000000000000815260040161027490610960565b60405180910390fd5b600073ffffffffffffffffffffffffffffffffffffffff168373ffffffffffffffffffffffffffffffffffffffff161415801561030b575060011515600160008573ffffffffffffffffffffffffffffffffffffffff1673ffffffffffffffffffffffffffffffffffffffff16815260200190815260200160002060009054906101000a900460ff16151514155b61031457600080fd5b60018060008573ffffffffffffffffffffffffffffffffffffffff1673ffffffffffffffffffffffffffffffffffffffff16815260200190815260200160002060006101000a81548160ff0219169083151502179055506001915050919050565b60008033905060001515600160008373ffffffffffffffffffffffffffffffffffffffff1673ffffffffffffffffffffffffffffffffffffffff16815260200190815260200160002060009054906101000a900460ff1615150361040e576040517f08c379a000000000000000000000000000000000000000000000000000000000815260040161040590610960565b60405180910390fd5b600073ffffffffffffffffffffffffffffffffffffffff168373ffffffffffffffffffffffffffffffffffffffff161415801561049c575060001515600160008573ffffffffffffffffffffffffffffffffffffffff1673ffffffffffffffffffffffffffffffffffffffff16815260200190815260200160002060009054906101000a900460ff16151514155b6104a557600080fd5b6000600160008573ffffffffffffffffffffffffffffffffffffffff1673ffffffffffffffffffffffffffffffffffffffff16815260200190815260200160002060006101000a81548160ff0219169083151502179055506001915050919050565b60008033905060001515600160008373ffffffffffffffffffffffffffffffffffffffff1673ffffffffffffffffffffffffffffffffffffffff16815260200190815260200160002060009054906101000a900460ff161515036105a0576040517f08c379a000000000000000000000000000000000000000000000000000000000815260040161059790610960565b60405180910390fd5b60008590506000600260000160009054906101000a900473ffffffffffffffffffffffffffffffffffffffff169050600073ffffffffffffffffffffffffffffffffffffffff168673ffffffffffffffffffffffffffffffffffffffff16141580156106855750848273ffffffffffffffffffffffffffffffffffffffff166370a08231836040518263ffffffff1660e01b815260040161064191906108a6565b602060405180830381865afa15801561065e573d6000803e3d6000fd5b505050506040513d601f19601f8201168201806040525081019061068291906108d6565b10155b61068e57600080fd5b60008273ffffffffffffffffffffffffffffffffffffffff1663a9059cbb88886040518363ffffffff1660e01b81526004016106cb929190610980565b6020604051808303816000875af11580156106ea573d6000803e3d6000fd5b505050506040513d601f19601f8201168201806040525081019061070e91906109d5565b9050809450505050509392505050565b600080fd5b600073ffffffffffffffffffffffffffffffffffffffff82169050919050565b600061074e82610723565b9050919050565b61075e81610743565b811461076957600080fd5b50565b60008135905061077b81610755565b92915050565b6000602082840312156107975761079661071e565b5b60006107a58482850161076c565b91505092915050565b6000819050919050565b6107c1816107ae565b82525050565b60006020820190506107dc60008301846107b8565b92915050565b60008115159050919050565b6107f7816107e2565b82525050565b600060208201905061081260008301846107ee565b92915050565b610821816107ae565b811461082c57600080fd5b50565b60008135905061083e81610818565b92915050565b60008060006060848603121561085d5761085c61071e565b5b600061086b8682870161076c565b935050602061087c8682870161076c565b925050604061088d8682870161082f565b9150509250925092565b6108a081610743565b82525050565b60006020820190506108bb6000830184610897565b92915050565b6000815190506108d081610818565b92915050565b6000602082840312156108ec576108eb61071e565b5b60006108fa848285016108c1565b91505092915050565b600082825260208201905092915050565b7f6f6e6c7941646d696e0000000000000000000000000000000000000000000000600082015250565b600061094a600983610903565b915061095582610914565b602082019050919050565b600060208201905081810360008301526109798161093d565b9050919050565b60006040820190506109956000830185610897565b6109a260208301846107b8565b9392505050565b6109b2816107e2565b81146109bd57600080fd5b50565b6000815190506109cf816109a9565b92915050565b6000602082840312156109eb576109ea61071e565b5b60006109f9848285016109c0565b9150509291505056fea2646970667358221220f1935eaad8eed1de1d9a950fccd631c3892e9cd413cd8c19cd44cdb1b92c54b464736f6c63430008120033",
					"opcodes": "PUSH1 0x80 PUSH1 0x40 MSTORE CALLVALUE DUP1 ISZERO PUSH3 0x11 JUMPI PUSH1 0x0 DUP1 REVERT JUMPDEST POP PUSH1 0x40 MLOAD PUSH3 0xDE8 CODESIZE SUB DUP1 PUSH3 0xDE8 DUP4 CODECOPY DUP2 DUP2 ADD PUSH1 0x40 MSTORE DUP2 ADD SWAP1 PUSH3 0x37 SWAP2 SWAP1 PUSH3 0x2EB JUMP JUMPDEST PUSH1 0x1 DUP1 PUSH1 0x0 CALLER PUSH20 0xFFFFFFFFFFFFFFFFFFFFFFFFFFFFFFFFFFFFFFFF AND PUSH20 0xFFFFFFFFFFFFFFFFFFFFFFFFFFFFFFFFFFFFFFFF AND DUP2 MSTORE PUSH1 0x20 ADD SWAP1 DUP2 MSTORE PUSH1 0x20 ADD PUSH1 0x0 KECCAK256 PUSH1 0x0 PUSH2 0x100 EXP DUP2 SLOAD DUP2 PUSH1 0xFF MUL NOT AND SWAP1 DUP4 ISZERO ISZERO MUL OR SWAP1 SSTORE POP DUP1 PUSH1 0x2 PUSH1 0x0 ADD PUSH1 0x0 PUSH2 0x100 EXP DUP2 SLOAD DUP2 PUSH20 0xFFFFFFFFFFFFFFFFFFFFFFFFFFFFFFFFFFFFFFFF MUL NOT AND SWAP1 DUP4 PUSH20 0xFFFFFFFFFFFFFFFFFFFFFFFFFFFFFFFFFFFFFFFF AND MUL OR SWAP1 SSTORE POP PUSH3 0xE3 DUP2 PUSH3 0xEB PUSH1 0x20 SHL PUSH1 0x20 SHR JUMP JUMPDEST POP POP PUSH3 0x3A0 JUMP JUMPDEST PUSH1 0x0 DUP1 CALLER SWAP1 POP PUSH1 0x0 ISZERO ISZERO PUSH1 0x1 PUSH1 0x0 DUP4 PUSH20 0xFFFFFFFFFFFFFFFFFFFFFFFFFFFFFFFFFFFFFFFF AND PUSH20 0xFFFFFFFFFFFFFFFFFFFFFFFFFFFFFFFFFFFFFFFF AND DUP2 MSTORE PUSH1 0x20 ADD SWAP1 DUP2 MSTORE PUSH1 0x20 ADD PUSH1 0x0 KECCAK256 PUSH1 0x0 SWAP1 SLOAD SWAP1 PUSH2 0x100 EXP SWAP1 DIV PUSH1 0xFF AND ISZERO ISZERO SUB PUSH3 0x187 JUMPI PUSH1 0x40 MLOAD PUSH32 0x8C379A000000000000000000000000000000000000000000000000000000000 DUP2 MSTORE PUSH1 0x4 ADD PUSH3 0x17E SWAP1 PUSH3 0x37E JUMP JUMPDEST PUSH1 0x40 MLOAD DUP1 SWAP2 SUB SWAP1 REVERT JUMPDEST PUSH1 0x0 PUSH20 0xFFFFFFFFFFFFFFFFFFFFFFFFFFFFFFFFFFFFFFFF AND DUP4 PUSH20 0xFFFFFFFFFFFFFFFFFFFFFFFFFFFFFFFFFFFFFFFF AND EQ ISZERO DUP1 ISZERO PUSH3 0x216 JUMPI POP PUSH1 0x1 ISZERO ISZERO PUSH1 0x1 PUSH1 0x0 DUP6 PUSH20 0xFFFFFFFFFFFFFFFFFFFFFFFFFFFFFFFFFFFFFFFF AND PUSH20 0xFFFFFFFFFFFFFFFFFFFFFFFFFFFFFFFFFFFFFFFF AND DUP2 MSTORE PUSH1 0x20 ADD SWAP1 DUP2 MSTORE PUSH1 0x20 ADD PUSH1 0x0 KECCAK256 PUSH1 0x0 SWAP1 SLOAD SWAP1 PUSH2 0x100 EXP SWAP1 DIV PUSH1 0xFF AND ISZERO ISZERO EQ ISZERO JUMPDEST PUSH3 0x220 JUMPI PUSH1 0x0 DUP1 REVERT JUMPDEST PUSH1 0x1 DUP1 PUSH1 0x0 DUP6 PUSH20 0xFFFFFFFFFFFFFFFFFFFFFFFFFFFFFFFFFFFFFFFF AND PUSH20 0xFFFFFFFFFFFFFFFFFFFFFFFFFFFFFFFFFFFFFFFF AND DUP2 MSTORE PUSH1 0x20 ADD SWAP1 DUP2 MSTORE PUSH1 0x20 ADD PUSH1 0x0 KECCAK256 PUSH1 0x0 PUSH2 0x100 EXP DUP2 SLOAD DUP2 PUSH1 0xFF MUL NOT AND SWAP1 DUP4 ISZERO ISZERO MUL OR SWAP1 SSTORE POP PUSH1 0x1 SWAP2 POP POP SWAP2 SWAP1 POP JUMP JUMPDEST PUSH1 0x0 DUP1 REVERT JUMPDEST PUSH1 0x0 PUSH20 0xFFFFFFFFFFFFFFFFFFFFFFFFFFFFFFFFFFFFFFFF DUP3 AND SWAP1 POP SWAP2 SWAP1 POP JUMP JUMPDEST PUSH1 0x0 PUSH3 0x2B3 DUP3 PUSH3 0x286 JUMP JUMPDEST SWAP1 POP SWAP2 SWAP1 POP JUMP JUMPDEST PUSH3 0x2C5 DUP2 PUSH3 0x2A6 JUMP JUMPDEST DUP2 EQ PUSH3 0x2D1 JUMPI PUSH1 0x0 DUP1 REVERT JUMPDEST POP JUMP JUMPDEST PUSH1 0x0 DUP2 MLOAD SWAP1 POP PUSH3 0x2E5 DUP2 PUSH3 0x2BA JUMP JUMPDEST SWAP3 SWAP2 POP POP JUMP JUMPDEST PUSH1 0x0 PUSH1 0x20 DUP3 DUP5 SUB SLT ISZERO PUSH3 0x304 JUMPI PUSH3 0x303 PUSH3 0x281 JUMP JUMPDEST JUMPDEST PUSH1 0x0 PUSH3 0x314 DUP5 DUP3 DUP6 ADD PUSH3 0x2D4 JUMP JUMPDEST SWAP2 POP POP SWAP3 SWAP2 POP POP JUMP JUMPDEST PUSH1 0x0 DUP3 DUP3 MSTORE PUSH1 0x20 DUP3 ADD SWAP1 POP SWAP3 SWAP2 POP POP JUMP JUMPDEST PUSH32 0x6F6E6C7941646D696E0000000000000000000000000000000000000000000000 PUSH1 0x0 DUP3 ADD MSTORE POP JUMP JUMPDEST PUSH1 0x0 PUSH3 0x366 PUSH1 0x9 DUP4 PUSH3 0x31D JUMP JUMPDEST SWAP2 POP PUSH3 0x373 DUP3 PUSH3 0x32E JUMP JUMPDEST PUSH1 0x20 DUP3 ADD SWAP1 POP SWAP2 SWAP1 POP JUMP JUMPDEST PUSH1 0x0 PUSH1 0x20 DUP3 ADD SWAP1 POP DUP2 DUP2 SUB PUSH1 0x0 DUP4 ADD MSTORE PUSH3 0x399 DUP2 PUSH3 0x357 JUMP JUMPDEST SWAP1 POP SWAP2 SWAP1 POP JUMP JUMPDEST PUSH2 0xA38 DUP1 PUSH3 0x3B0 PUSH1 0x0 CODECOPY PUSH1 0x0 RETURN INVALID PUSH1 0x80 PUSH1 0x40 MSTORE PUSH1 0x4 CALLDATASIZE LT PUSH2 0x3F JUMPI PUSH1 0x0 CALLDATALOAD PUSH1 0xE0 SHR DUP1 PUSH4 0x57F3FCCD EQ PUSH2 0x44 JUMPI DUP1 PUSH4 0x96B75B1A EQ PUSH2 0x81 JUMPI DUP1 PUSH4 0xDB3C5FCA EQ PUSH2 0xBE JUMPI DUP1 PUSH4 0xF0CB83A5 EQ PUSH2 0xFB JUMPI JUMPDEST PUSH1 0x0 DUP1 REVERT JUMPDEST CALLVALUE DUP1 ISZERO PUSH2 0x50 JUMPI PUSH1 0x0 DUP1 REVERT JUMPDEST POP PUSH2 0x6B PUSH1 0x4 DUP1 CALLDATASIZE SUB DUP2 ADD SWAP1 PUSH2 0x66 SWAP2 SWAP1 PUSH2 0x781 JUMP JUMPDEST PUSH2 0x12B JUMP JUMPDEST PUSH1 0x40 MLOAD PUSH2 0x78 SWAP2 SWAP1 PUSH2 0x7C7 JUMP JUMPDEST PUSH1 0x40 MLOAD DUP1 SWAP2 SUB SWAP1 RETURN JUMPDEST CALLVALUE DUP1 ISZERO PUSH2 0x8D JUMPI PUSH1 0x0 DUP1 REVERT JUMPDEST POP PUSH2 0xA8 PUSH1 0x4 DUP1 CALLDATASIZE SUB DUP2 ADD SWAP1 PUSH2 0xA3 SWAP2 SWAP1 PUSH2 0x781 JUMP JUMPDEST PUSH2 0x1E4 JUMP JUMPDEST PUSH1 0x40 MLOAD PUSH2 0xB5 SWAP2 SWAP1 PUSH2 0x7FD JUMP JUMPDEST PUSH1 0x40 MLOAD DUP1 SWAP2 SUB SWAP1 RETURN JUMPDEST CALLVALUE DUP1 ISZERO PUSH2 0xCA JUMPI PUSH1 0x0 DUP1 REVERT JUMPDEST POP PUSH2 0xE5 PUSH1 0x4 DUP1 CALLDATASIZE SUB DUP2 ADD SWAP1 PUSH2 0xE0 SWAP2 SWAP1 PUSH2 0x781 JUMP JUMPDEST PUSH2 0x375 JUMP JUMPDEST PUSH1 0x40 MLOAD PUSH2 0xF2 SWAP2 SWAP1 PUSH2 0x7FD JUMP JUMPDEST PUSH1 0x40 MLOAD DUP1 SWAP2 SUB SWAP1 RETURN JUMPDEST PUSH2 0x115 PUSH1 0x4 DUP1 CALLDATASIZE SUB DUP2 ADD SWAP1 PUSH2 0x110 SWAP2 SWAP1 PUSH2 0x844 JUMP JUMPDEST PUSH2 0x507 JUMP JUMPDEST PUSH1 0x40 MLOAD PUSH2 0x122 SWAP2 SWAP1 PUSH2 0x7FD JUMP JUMPDEST PUSH1 0x40 MLOAD DUP1 SWAP2 SUB SWAP1 RETURN JUMPDEST PUSH1 0x0 DUP1 DUP3 SWAP1 POP PUSH1 0x0 PUSH1 0x2 PUSH1 0x0 ADD PUSH1 0x0 SWAP1 SLOAD SWAP1 PUSH2 0x100 EXP SWAP1 DIV PUSH20 0xFFFFFFFFFFFFFFFFFFFFFFFFFFFFFFFFFFFFFFFF AND SWAP1 POP PUSH1 0x0 DUP3 PUSH20 0xFFFFFFFFFFFFFFFFFFFFFFFFFFFFFFFFFFFFFFFF AND PUSH4 0x70A08231 DUP4 PUSH1 0x40 MLOAD DUP3 PUSH4 0xFFFFFFFF AND PUSH1 0xE0 SHL DUP2 MSTORE PUSH1 0x4 ADD PUSH2 0x196 SWAP2 SWAP1 PUSH2 0x8A6 JUMP JUMPDEST PUSH1 0x20 PUSH1 0x40 MLOAD DUP1 DUP4 SUB DUP2 DUP7 GAS STATICCALL ISZERO DUP1 ISZERO PUSH2 0x1B3 JUMPI RETURNDATASIZE PUSH1 0x0 DUP1 RETURNDATACOPY RETURNDATASIZE PUSH1 0x0 REVERT JUMPDEST POP POP POP POP PUSH1 0x40 MLOAD RETURNDATASIZE PUSH1 0x1F NOT PUSH1 0x1F DUP3 ADD AND DUP3 ADD DUP1 PUSH1 0x40 MSTORE POP DUP2 ADD SWAP1 PUSH2 0x1D7 SWAP2 SWAP1 PUSH2 0x8D6 JUMP JUMPDEST SWAP1 POP DUP1 SWAP4 POP POP POP POP SWAP2 SWAP1 POP JUMP JUMPDEST PUSH1 0x0 DUP1 CALLER SWAP1 POP PUSH1 0x0 ISZERO ISZERO PUSH1 0x1 PUSH1 0x0 DUP4 PUSH20 0xFFFFFFFFFFFFFFFFFFFFFFFFFFFFFFFFFFFFFFFF AND PUSH20 0xFFFFFFFFFFFFFFFFFFFFFFFFFFFFFFFFFFFFFFFF AND DUP2 MSTORE PUSH1 0x20 ADD SWAP1 DUP2 MSTORE PUSH1 0x20 ADD PUSH1 0x0 KECCAK256 PUSH1 0x0 SWAP1 SLOAD SWAP1 PUSH2 0x100 EXP SWAP1 DIV PUSH1 0xFF AND ISZERO ISZERO SUB PUSH2 0x27D JUMPI PUSH1 0x40 MLOAD PUSH32 0x8C379A000000000000000000000000000000000000000000000000000000000 DUP2 MSTORE PUSH1 0x4 ADD PUSH2 0x274 SWAP1 PUSH2 0x960 JUMP JUMPDEST PUSH1 0x40 MLOAD DUP1 SWAP2 SUB SWAP1 REVERT JUMPDEST PUSH1 0x0 PUSH20 0xFFFFFFFFFFFFFFFFFFFFFFFFFFFFFFFFFFFFFFFF AND DUP4 PUSH20 0xFFFFFFFFFFFFFFFFFFFFFFFFFFFFFFFFFFFFFFFF AND EQ ISZERO DUP1 ISZERO PUSH2 0x30B JUMPI POP PUSH1 0x1 ISZERO ISZERO PUSH1 0x1 PUSH1 0x0 DUP6 PUSH20 0xFFFFFFFFFFFFFFFFFFFFFFFFFFFFFFFFFFFFFFFF AND PUSH20 0xFFFFFFFFFFFFFFFFFFFFFFFFFFFFFFFFFFFFFFFF AND DUP2 MSTORE PUSH1 0x20 ADD SWAP1 DUP2 MSTORE PUSH1 0x20 ADD PUSH1 0x0 KECCAK256 PUSH1 0x0 SWAP1 SLOAD SWAP1 PUSH2 0x100 EXP SWAP1 DIV PUSH1 0xFF AND ISZERO ISZERO EQ ISZERO JUMPDEST PUSH2 0x314 JUMPI PUSH1 0x0 DUP1 REVERT JUMPDEST PUSH1 0x1 DUP1 PUSH1 0x0 DUP6 PUSH20 0xFFFFFFFFFFFFFFFFFFFFFFFFFFFFFFFFFFFFFFFF AND PUSH20 0xFFFFFFFFFFFFFFFFFFFFFFFFFFFFFFFFFFFFFFFF AND DUP2 MSTORE PUSH1 0x20 ADD SWAP1 DUP2 MSTORE PUSH1 0x20 ADD PUSH1 0x0 KECCAK256 PUSH1 0x0 PUSH2 0x100 EXP DUP2 SLOAD DUP2 PUSH1 0xFF MUL NOT AND SWAP1 DUP4 ISZERO ISZERO MUL OR SWAP1 SSTORE POP PUSH1 0x1 SWAP2 POP POP SWAP2 SWAP1 POP JUMP JUMPDEST PUSH1 0x0 DUP1 CALLER SWAP1 POP PUSH1 0x0 ISZERO ISZERO PUSH1 0x1 PUSH1 0x0 DUP4 PUSH20 0xFFFFFFFFFFFFFFFFFFFFFFFFFFFFFFFFFFFFFFFF AND PUSH20 0xFFFFFFFFFFFFFFFFFFFFFFFFFFFFFFFFFFFFFFFF AND DUP2 MSTORE PUSH1 0x20 ADD SWAP1 DUP2 MSTORE PUSH1 0x20 ADD PUSH1 0x0 KECCAK256 PUSH1 0x0 SWAP1 SLOAD SWAP1 PUSH2 0x100 EXP SWAP1 DIV PUSH1 0xFF AND ISZERO ISZERO SUB PUSH2 0x40E JUMPI PUSH1 0x40 MLOAD PUSH32 0x8C379A000000000000000000000000000000000000000000000000000000000 DUP2 MSTORE PUSH1 0x4 ADD PUSH2 0x405 SWAP1 PUSH2 0x960 JUMP JUMPDEST PUSH1 0x40 MLOAD DUP1 SWAP2 SUB SWAP1 REVERT JUMPDEST PUSH1 0x0 PUSH20 0xFFFFFFFFFFFFFFFFFFFFFFFFFFFFFFFFFFFFFFFF AND DUP4 PUSH20 0xFFFFFFFFFFFFFFFFFFFFFFFFFFFFFFFFFFFFFFFF AND EQ ISZERO DUP1 ISZERO PUSH2 0x49C JUMPI POP PUSH1 0x0 ISZERO ISZERO PUSH1 0x1 PUSH1 0x0 DUP6 PUSH20 0xFFFFFFFFFFFFFFFFFFFFFFFFFFFFFFFFFFFFFFFF AND PUSH20 0xFFFFFFFFFFFFFFFFFFFFFFFFFFFFFFFFFFFFFFFF AND DUP2 MSTORE PUSH1 0x20 ADD SWAP1 DUP2 MSTORE PUSH1 0x20 ADD PUSH1 0x0 KECCAK256 PUSH1 0x0 SWAP1 SLOAD SWAP1 PUSH2 0x100 EXP SWAP1 DIV PUSH1 0xFF AND ISZERO ISZERO EQ ISZERO JUMPDEST PUSH2 0x4A5 JUMPI PUSH1 0x0 DUP1 REVERT JUMPDEST PUSH1 0x0 PUSH1 0x1 PUSH1 0x0 DUP6 PUSH20 0xFFFFFFFFFFFFFFFFFFFFFFFFFFFFFFFFFFFFFFFF AND PUSH20 0xFFFFFFFFFFFFFFFFFFFFFFFFFFFFFFFFFFFFFFFF AND DUP2 MSTORE PUSH1 0x20 ADD SWAP1 DUP2 MSTORE PUSH1 0x20 ADD PUSH1 0x0 KECCAK256 PUSH1 0x0 PUSH2 0x100 EXP DUP2 SLOAD DUP2 PUSH1 0xFF MUL NOT AND SWAP1 DUP4 ISZERO ISZERO MUL OR SWAP1 SSTORE POP PUSH1 0x1 SWAP2 POP POP SWAP2 SWAP1 POP JUMP JUMPDEST PUSH1 0x0 DUP1 CALLER SWAP1 POP PUSH1 0x0 ISZERO ISZERO PUSH1 0x1 PUSH1 0x0 DUP4 PUSH20 0xFFFFFFFFFFFFFFFFFFFFFFFFFFFFFFFFFFFFFFFF AND PUSH20 0xFFFFFFFFFFFFFFFFFFFFFFFFFFFFFFFFFFFFFFFF AND DUP2 MSTORE PUSH1 0x20 ADD SWAP1 DUP2 MSTORE PUSH1 0x20 ADD PUSH1 0x0 KECCAK256 PUSH1 0x0 SWAP1 SLOAD SWAP1 PUSH2 0x100 EXP SWAP1 DIV PUSH1 0xFF AND ISZERO ISZERO SUB PUSH2 0x5A0 JUMPI PUSH1 0x40 MLOAD PUSH32 0x8C379A000000000000000000000000000000000000000000000000000000000 DUP2 MSTORE PUSH1 0x4 ADD PUSH2 0x597 SWAP1 PUSH2 0x960 JUMP JUMPDEST PUSH1 0x40 MLOAD DUP1 SWAP2 SUB SWAP1 REVERT JUMPDEST PUSH1 0x0 DUP6 SWAP1 POP PUSH1 0x0 PUSH1 0x2 PUSH1 0x0 ADD PUSH1 0x0 SWAP1 SLOAD SWAP1 PUSH2 0x100 EXP SWAP1 DIV PUSH20 0xFFFFFFFFFFFFFFFFFFFFFFFFFFFFFFFFFFFFFFFF AND SWAP1 POP PUSH1 0x0 PUSH20 0xFFFFFFFFFFFFFFFFFFFFFFFFFFFFFFFFFFFFFFFF AND DUP7 PUSH20 0xFFFFFFFFFFFFFFFFFFFFFFFFFFFFFFFFFFFFFFFF AND EQ ISZERO DUP1 ISZERO PUSH2 0x685 JUMPI POP DUP5 DUP3 PUSH20 0xFFFFFFFFFFFFFFFFFFFFFFFFFFFFFFFFFFFFFFFF AND PUSH4 0x70A08231 DUP4 PUSH1 0x40 MLOAD DUP3 PUSH4 0xFFFFFFFF AND PUSH1 0xE0 SHL DUP2 MSTORE PUSH1 0x4 ADD PUSH2 0x641 SWAP2 SWAP1 PUSH2 0x8A6 JUMP JUMPDEST PUSH1 0x20 PUSH1 0x40 MLOAD DUP1 DUP4 SUB DUP2 DUP7 GAS STATICCALL ISZERO DUP1 ISZERO PUSH2 0x65E JUMPI RETURNDATASIZE PUSH1 0x0 DUP1 RETURNDATACOPY RETURNDATASIZE PUSH1 0x0 REVERT JUMPDEST POP POP POP POP PUSH1 0x40 MLOAD RETURNDATASIZE PUSH1 0x1F NOT PUSH1 0x1F DUP3 ADD AND DUP3 ADD DUP1 PUSH1 0x40 MSTORE POP DUP2 ADD SWAP1 PUSH2 0x682 SWAP2 SWAP1 PUSH2 0x8D6 JUMP JUMPDEST LT ISZERO JUMPDEST PUSH2 0x68E JUMPI PUSH1 0x0 DUP1 REVERT JUMPDEST PUSH1 0x0 DUP3 PUSH20 0xFFFFFFFFFFFFFFFFFFFFFFFFFFFFFFFFFFFFFFFF AND PUSH4 0xA9059CBB DUP9 DUP9 PUSH1 0x40 MLOAD DUP4 PUSH4 0xFFFFFFFF AND PUSH1 0xE0 SHL DUP2 MSTORE PUSH1 0x4 ADD PUSH2 0x6CB SWAP3 SWAP2 SWAP1 PUSH2 0x980 JUMP JUMPDEST PUSH1 0x20 PUSH1 0x40 MLOAD DUP1 DUP4 SUB DUP2 PUSH1 0x0 DUP8 GAS CALL ISZERO DUP1 ISZERO PUSH2 0x6EA JUMPI RETURNDATASIZE PUSH1 0x0 DUP1 RETURNDATACOPY RETURNDATASIZE PUSH1 0x0 REVERT JUMPDEST POP POP POP POP PUSH1 0x40 MLOAD RETURNDATASIZE PUSH1 0x1F NOT PUSH1 0x1F DUP3 ADD AND DUP3 ADD DUP1 PUSH1 0x40 MSTORE POP DUP2 ADD SWAP1 PUSH2 0x70E SWAP2 SWAP1 PUSH2 0x9D5 JUMP JUMPDEST SWAP1 POP DUP1 SWAP5 POP POP POP POP POP SWAP4 SWAP3 POP POP POP JUMP JUMPDEST PUSH1 0x0 DUP1 REVERT JUMPDEST PUSH1 0x0 PUSH20 0xFFFFFFFFFFFFFFFFFFFFFFFFFFFFFFFFFFFFFFFF DUP3 AND SWAP1 POP SWAP2 SWAP1 POP JUMP JUMPDEST PUSH1 0x0 PUSH2 0x74E DUP3 PUSH2 0x723 JUMP JUMPDEST SWAP1 POP SWAP2 SWAP1 POP JUMP JUMPDEST PUSH2 0x75E DUP2 PUSH2 0x743 JUMP JUMPDEST DUP2 EQ PUSH2 0x769 JUMPI PUSH1 0x0 DUP1 REVERT JUMPDEST POP JUMP JUMPDEST PUSH1 0x0 DUP2 CALLDATALOAD SWAP1 POP PUSH2 0x77B DUP2 PUSH2 0x755 JUMP JUMPDEST SWAP3 SWAP2 POP POP JUMP JUMPDEST PUSH1 0x0 PUSH1 0x20 DUP3 DUP5 SUB SLT ISZERO PUSH2 0x797 JUMPI PUSH2 0x796 PUSH2 0x71E JUMP JUMPDEST JUMPDEST PUSH1 0x0 PUSH2 0x7A5 DUP5 DUP3 DUP6 ADD PUSH2 0x76C JUMP JUMPDEST SWAP2 POP POP SWAP3 SWAP2 POP POP JUMP JUMPDEST PUSH1 0x0 DUP2 SWAP1 POP SWAP2 SWAP1 POP JUMP JUMPDEST PUSH2 0x7C1 DUP2 PUSH2 0x7AE JUMP JUMPDEST DUP3 MSTORE POP POP JUMP JUMPDEST PUSH1 0x0 PUSH1 0x20 DUP3 ADD SWAP1 POP PUSH2 0x7DC PUSH1 0x0 DUP4 ADD DUP5 PUSH2 0x7B8 JUMP JUMPDEST SWAP3 SWAP2 POP POP JUMP JUMPDEST PUSH1 0x0 DUP2 ISZERO ISZERO SWAP1 POP SWAP2 SWAP1 POP JUMP JUMPDEST PUSH2 0x7F7 DUP2 PUSH2 0x7E2 JUMP JUMPDEST DUP3 MSTORE POP POP JUMP JUMPDEST PUSH1 0x0 PUSH1 0x20 DUP3 ADD SWAP1 POP PUSH2 0x812 PUSH1 0x0 DUP4 ADD DUP5 PUSH2 0x7EE JUMP JUMPDEST SWAP3 SWAP2 POP POP JUMP JUMPDEST PUSH2 0x821 DUP2 PUSH2 0x7AE JUMP JUMPDEST DUP2 EQ PUSH2 0x82C JUMPI PUSH1 0x0 DUP1 REVERT JUMPDEST POP JUMP JUMPDEST PUSH1 0x0 DUP2 CALLDATALOAD SWAP1 POP PUSH2 0x83E DUP2 PUSH2 0x818 JUMP JUMPDEST SWAP3 SWAP2 POP POP JUMP JUMPDEST PUSH1 0x0 DUP1 PUSH1 0x0 PUSH1 0x60 DUP5 DUP7 SUB SLT ISZERO PUSH2 0x85D JUMPI PUSH2 0x85C PUSH2 0x71E JUMP JUMPDEST JUMPDEST PUSH1 0x0 PUSH2 0x86B DUP7 DUP3 DUP8 ADD PUSH2 0x76C JUMP JUMPDEST SWAP4 POP POP PUSH1 0x20 PUSH2 0x87C DUP7 DUP3 DUP8 ADD PUSH2 0x76C JUMP JUMPDEST SWAP3 POP POP PUSH1 0x40 PUSH2 0x88D DUP7 DUP3 DUP8 ADD PUSH2 0x82F JUMP JUMPDEST SWAP2 POP POP SWAP3 POP SWAP3 POP SWAP3 JUMP JUMPDEST PUSH2 0x8A0 DUP2 PUSH2 0x743 JUMP JUMPDEST DUP3 MSTORE POP POP JUMP JUMPDEST PUSH1 0x0 PUSH1 0x20 DUP3 ADD SWAP1 POP PUSH2 0x8BB PUSH1 0x0 DUP4 ADD DUP5 PUSH2 0x897 JUMP JUMPDEST SWAP3 SWAP2 POP POP JUMP JUMPDEST PUSH1 0x0 DUP2 MLOAD SWAP1 POP PUSH2 0x8D0 DUP2 PUSH2 0x818 JUMP JUMPDEST SWAP3 SWAP2 POP POP JUMP JUMPDEST PUSH1 0x0 PUSH1 0x20 DUP3 DUP5 SUB SLT ISZERO PUSH2 0x8EC JUMPI PUSH2 0x8EB PUSH2 0x71E JUMP JUMPDEST JUMPDEST PUSH1 0x0 PUSH2 0x8FA DUP5 DUP3 DUP6 ADD PUSH2 0x8C1 JUMP JUMPDEST SWAP2 POP POP SWAP3 SWAP2 POP POP JUMP JUMPDEST PUSH1 0x0 DUP3 DUP3 MSTORE PUSH1 0x20 DUP3 ADD SWAP1 POP SWAP3 SWAP2 POP POP JUMP JUMPDEST PUSH32 0x6F6E6C7941646D696E0000000000000000000000000000000000000000000000 PUSH1 0x0 DUP3 ADD MSTORE POP JUMP JUMPDEST PUSH1 0x0 PUSH2 0x94A PUSH1 0x9 DUP4 PUSH2 0x903 JUMP JUMPDEST SWAP2 POP PUSH2 0x955 DUP3 PUSH2 0x914 JUMP JUMPDEST PUSH1 0x20 DUP3 ADD SWAP1 POP SWAP2 SWAP1 POP JUMP JUMPDEST PUSH1 0x0 PUSH1 0x20 DUP3 ADD SWAP1 POP DUP2 DUP2 SUB PUSH1 0x0 DUP4 ADD MSTORE PUSH2 0x979 DUP2 PUSH2 0x93D JUMP JUMPDEST SWAP1 POP SWAP2 SWAP1 POP JUMP JUMPDEST PUSH1 0x0 PUSH1 0x40 DUP3 ADD SWAP1 POP PUSH2 0x995 PUSH1 0x0 DUP4 ADD DUP6 PUSH2 0x897 JUMP JUMPDEST PUSH2 0x9A2 PUSH1 0x20 DUP4 ADD DUP5 PUSH2 0x7B8 JUMP JUMPDEST SWAP4 SWAP3 POP POP POP JUMP JUMPDEST PUSH2 0x9B2 DUP2 PUSH2 0x7E2 JUMP JUMPDEST DUP2 EQ PUSH2 0x9BD JUMPI PUSH1 0x0 DUP1 REVERT JUMPDEST POP JUMP JUMPDEST PUSH1 0x0 DUP2 MLOAD SWAP1 POP PUSH2 0x9CF DUP2 PUSH2 0x9A9 JUMP JUMPDEST SWAP3 SWAP2 POP POP JUMP JUMPDEST PUSH1 0x0 PUSH1 0x20 DUP3 DUP5 SUB SLT ISZERO PUSH2 0x9EB JUMPI PUSH2 0x9EA PUSH2 0x71E JUMP JUMPDEST JUMPDEST PUSH1 0x0 PUSH2 0x9F9 DUP5 DUP3 DUP6 ADD PUSH2 0x9C0 JUMP JUMPDEST SWAP2 POP POP SWAP3 SWAP2 POP POP JUMP INVALID LOG2 PUSH5 0x6970667358 0x22 SLT KECCAK256 CALL SWAP4 0x5E 0xAA 0xD8 0xEE 0xD1 0xDE SAR SWAP11 SWAP6 0xF 0xCC 0xD6 BALANCE 0xC3 DUP10 0x2E SWAP13 0xD4 SGT 0xCD DUP13 NOT 0xCD PREVRANDAO 0xCD 0xB1 0xB9 0x2C SLOAD 0xB4 PUSH5 0x736F6C6343 STOP ADDMOD SLT STOP CALLER "
				},
				"gasEstimates": {
					"creation": {
						"codeDepositCost": "523200",
						"executionCost": "infinite",
						"totalCost": "infinite"
					},
					"external": {
						"IBalanceOf(address)": "infinite",
						"ITransferFromVault(address,address,uint256)": "infinite",
						"grantPermissionAdmin(address)": "29597",
						"revokePermissionAdmin(address)": "29619"
					}
				},
				"methodIdentifiers": {
					"IBalanceOf(address)": "57f3fccd",
					"ITransferFromVault(address,address,uint256)": "f0cb83a5",
					"grantPermissionAdmin(address)": "96b75b1a",
					"revokePermissionAdmin(address)": "db3c5fca"
				}
			},
			"storageLayout": {
				"storage": [
					{
						"astId": 44,
						"contract": "smart_contracts/contracts/Vault/Vault.sol:Vault",
						"label": "allocation",
						"offset": 0,
						"slot": "0",
						"type": "t_mapping(t_string_memory_ptr,t_uint256)"
					},
					{
						"astId": 48,
						"contract": "smart_contracts/contracts/Vault/Vault.sol:Vault",
						"label": "admin",
						"offset": 0,
						"slot": "1",
						"type": "t_mapping(t_address,t_bool)"
					},
					{
						"astId": 54,
						"contract": "smart_contracts/contracts/Vault/Vault.sol:Vault",
						"label": "meta",
						"offset": 0,
						"slot": "2",
						"type": "t_struct(Meta)51_storage"
					}
				],
				"types": {
					"t_address": {
						"encoding": "inplace",
						"label": "address",
						"numberOfBytes": "20"
					},
					"t_bool": {
						"encoding": "inplace",
						"label": "bool",
						"numberOfBytes": "1"
					},
					"t_mapping(t_address,t_bool)": {
						"encoding": "mapping",
						"key": "t_address",
						"label": "mapping(address => bool)",
						"numberOfBytes": "32",
						"value": "t_bool"
					},
					"t_mapping(t_string_memory_ptr,t_uint256)": {
						"encoding": "mapping",
						"key": "t_string_memory_ptr",
						"label": "mapping(string => uint256)",
						"numberOfBytes": "32",
						"value": "t_uint256"
					},
					"t_string_memory_ptr": {
						"encoding": "bytes",
						"label": "string",
						"numberOfBytes": "32"
					},
					"t_struct(Meta)51_storage": {
						"encoding": "inplace",
						"label": "struct State.Meta",
						"members": [
							{
								"astId": 50,
								"contract": "smart_contracts/contracts/Vault/Vault.sol:Vault",
								"label": "vault",
								"offset": 0,
								"slot": "0",
								"type": "t_address"
							}
						],
						"numberOfBytes": "32"
					},
					"t_uint256": {
						"encoding": "inplace",
						"label": "uint256",
						"numberOfBytes": "32"
					}
				}
			},
			"userdoc": {
				"kind": "user",
				"methods": {
					"constructor": {
						"notice": "Pre Seed Funding    $0.035 Seed Funding        $0.05 Series A            $0.25 Series B            $0.50 ICO                 $1.00"
					}
				},
				"version": 1
			}
		}
	}
}