{
	"contracts/templates/modular_upgradeable/ModuleManager.sol": {
		"ModuleManager": {
			"abi": [
				{
					"inputs": [
						{
							"internalType": "address",
							"name": "owner",
							"type": "address"
						}
					],
					"stateMutability": "nonpayable",
					"type": "constructor"
				},
				{
					"anonymous": false,
					"inputs": [
						{
							"indexed": true,
							"internalType": "string",
							"name": "module",
							"type": "string"
						},
						{
							"indexed": false,
							"internalType": "address",
							"name": "implementation",
							"type": "address"
						}
					],
					"name": "ModuleAquired",
					"type": "event"
				},
				{
					"anonymous": false,
					"inputs": [
						{
							"indexed": true,
							"internalType": "string",
							"name": "module",
							"type": "string"
						},
						{
							"indexed": false,
							"internalType": "address",
							"name": "newImplementation",
							"type": "address"
						}
					],
					"name": "ModuleUpgraded",
					"type": "event"
				},
				{
					"anonymous": false,
					"inputs": [
						{
							"indexed": true,
							"internalType": "address",
							"name": "previousOwner",
							"type": "address"
						},
						{
							"indexed": true,
							"internalType": "address",
							"name": "newOwner",
							"type": "address"
						}
					],
					"name": "OwnershipTransferred",
					"type": "event"
				},
				{
					"inputs": [
						{
							"internalType": "string",
							"name": "module",
							"type": "string"
						},
						{
							"internalType": "address",
							"name": "implementation",
							"type": "address"
						}
					],
					"name": "aquire",
					"outputs": [
						{
							"internalType": "bool",
							"name": "",
							"type": "bool"
						}
					],
					"stateMutability": "nonpayable",
					"type": "function"
				},
				{
					"inputs": [
						{
							"internalType": "string",
							"name": "module",
							"type": "string"
						},
						{
							"internalType": "uint256",
							"name": "version",
							"type": "uint256"
						}
					],
					"name": "getImplementation",
					"outputs": [
						{
							"internalType": "address",
							"name": "",
							"type": "address"
						}
					],
					"stateMutability": "view",
					"type": "function"
				},
				{
					"inputs": [
						{
							"internalType": "string",
							"name": "module",
							"type": "string"
						}
					],
					"name": "getLatestImplementation",
					"outputs": [
						{
							"internalType": "address",
							"name": "",
							"type": "address"
						}
					],
					"stateMutability": "view",
					"type": "function"
				},
				{
					"inputs": [
						{
							"internalType": "string",
							"name": "module",
							"type": "string"
						}
					],
					"name": "getLatestVersion",
					"outputs": [
						{
							"internalType": "uint256",
							"name": "",
							"type": "uint256"
						}
					],
					"stateMutability": "view",
					"type": "function"
				},
				{
					"inputs": [
						{
							"internalType": "string",
							"name": "",
							"type": "string"
						}
					],
					"name": "hasGovernancePermission",
					"outputs": [
						{
							"internalType": "bool",
							"name": "",
							"type": "bool"
						}
					],
					"stateMutability": "view",
					"type": "function"
				},
				{
					"inputs": [
						{
							"internalType": "string",
							"name": "module",
							"type": "string"
						}
					],
					"name": "hasGovernancePermission_",
					"outputs": [
						{
							"internalType": "bool",
							"name": "",
							"type": "bool"
						}
					],
					"stateMutability": "view",
					"type": "function"
				},
				{
					"inputs": [
						{
							"internalType": "uint256",
							"name": "",
							"type": "uint256"
						}
					],
					"name": "modules",
					"outputs": [
						{
							"internalType": "string",
							"name": "",
							"type": "string"
						}
					],
					"stateMutability": "view",
					"type": "function"
				},
				{
					"inputs": [],
					"name": "numberOfModules",
					"outputs": [
						{
							"internalType": "uint256",
							"name": "",
							"type": "uint256"
						}
					],
					"stateMutability": "view",
					"type": "function"
				},
				{
					"inputs": [],
					"name": "owner",
					"outputs": [
						{
							"internalType": "address",
							"name": "",
							"type": "address"
						}
					],
					"stateMutability": "view",
					"type": "function"
				},
				{
					"inputs": [],
					"name": "renounceOwnership",
					"outputs": [],
					"stateMutability": "nonpayable",
					"type": "function"
				},
				{
					"inputs": [
						{
							"internalType": "address",
							"name": "newOwner",
							"type": "address"
						}
					],
					"name": "transferOwnership",
					"outputs": [],
					"stateMutability": "nonpayable",
					"type": "function"
				},
				{
					"inputs": [
						{
							"internalType": "string",
							"name": "module",
							"type": "string"
						},
						{
							"internalType": "address",
							"name": "newImplementation",
							"type": "address"
						}
					],
					"name": "upgrade",
					"outputs": [
						{
							"internalType": "bool",
							"name": "",
							"type": "bool"
						}
					],
					"stateMutability": "nonpayable",
					"type": "function"
				}
			],
			"devdoc": {
				"kind": "dev",
				"methods": {
					"owner()": {
						"details": "Returns the address of the current owner."
					},
					"renounceOwnership()": {
						"details": "Leaves the contract without owner. It will not be possible to call `onlyOwner` functions. Can only be called by the current owner. NOTE: Renouncing ownership will leave the contract without an owner, thereby disabling any functionality that is only available to the owner."
					},
					"transferOwnership(address)": {
						"details": "Transfers ownership of the contract to a new account (`newOwner`). Can only be called by the current owner."
					}
				},
				"version": 1
			},
			"evm": {
				"assembly": "    /* \"contracts/templates/modular_upgradeable/ModuleManager.sol\":867:5362  contract ModuleManager is Ownable {... */\n  mstore(0x40, 0x80)\n    /* \"contracts/templates/modular_upgradeable/ModuleManager.sol\":2796:2840  constructor(address owner) Ownable(owner) {} */\n  callvalue\n  dup1\n  iszero\n  tag_1\n  jumpi\n  0x00\n  dup1\n  revert\ntag_1:\n  pop\n  mload(0x40)\n  sub(codesize, bytecodeSize)\n  dup1\n  bytecodeSize\n  dup4\n  codecopy\n  dup2\n  dup2\n  add\n  0x40\n  mstore\n  dup2\n  add\n  swap1\n  tag_2\n  swap2\n  swap1\n  tag_3\n  jump\t// in\ntag_2:\n    /* \"contracts/templates/modular_upgradeable/ModuleManager.sol\":2831:2836  owner */\n  dup1\n    /* \"contracts/deps/openzeppelin/access/Ownable.sol\":957:989  _transferOwnership(initialOwner) */\n  tag_7\n    /* \"contracts/deps/openzeppelin/access/Ownable.sol\":976:988  initialOwner */\n  dup2\n    /* \"contracts/deps/openzeppelin/access/Ownable.sol\":957:975  _transferOwnership */\n  shl(0x20, tag_8)\n    /* \"contracts/deps/openzeppelin/access/Ownable.sol\":957:989  _transferOwnership(initialOwner) */\n  0x20\n  shr\n  jump\t// in\ntag_7:\n    /* \"contracts/deps/openzeppelin/access/Ownable.sol\":913:996  constructor(address initialOwner) {... */\n  pop\n    /* \"contracts/templates/modular_upgradeable/ModuleManager.sol\":2796:2840  constructor(address owner) Ownable(owner) {} */\n  pop\n    /* \"contracts/templates/modular_upgradeable/ModuleManager.sol\":867:5362  contract ModuleManager is Ownable {... */\n  jump(tag_10)\n    /* \"contracts/deps/openzeppelin/access/Ownable.sol\":2447:2634  function _transferOwnership(address newOwner) internal virtual {... */\ntag_8:\n    /* \"contracts/deps/openzeppelin/access/Ownable.sol\":2520:2536  address oldOwner */\n  0x00\n    /* \"contracts/deps/openzeppelin/access/Ownable.sol\":2539:2545  _owner */\n  dup1\n  0x00\n  swap1\n  sload\n  swap1\n  0x0100\n  exp\n  swap1\n  div\n  0xffffffffffffffffffffffffffffffffffffffff\n  and\n    /* \"contracts/deps/openzeppelin/access/Ownable.sol\":2520:2545  address oldOwner = _owner */\n  swap1\n  pop\n    /* \"contracts/deps/openzeppelin/access/Ownable.sol\":2564:2572  newOwner */\n  dup2\n    /* \"contracts/deps/openzeppelin/access/Ownable.sol\":2555:2561  _owner */\n  0x00\n  dup1\n    /* \"contracts/deps/openzeppelin/access/Ownable.sol\":2555:2572  _owner = newOwner */\n  0x0100\n  exp\n  dup2\n  sload\n  dup2\n  0xffffffffffffffffffffffffffffffffffffffff\n  mul\n  not\n  and\n  swap1\n  dup4\n  0xffffffffffffffffffffffffffffffffffffffff\n  and\n  mul\n  or\n  swap1\n  sstore\n  pop\n    /* \"contracts/deps/openzeppelin/access/Ownable.sol\":2618:2626  newOwner */\n  dup2\n    /* \"contracts/deps/openzeppelin/access/Ownable.sol\":2587:2627  OwnershipTransferred(oldOwner, newOwner) */\n  0xffffffffffffffffffffffffffffffffffffffff\n  and\n    /* \"contracts/deps/openzeppelin/access/Ownable.sol\":2608:2616  oldOwner */\n  dup2\n    /* \"contracts/deps/openzeppelin/access/Ownable.sol\":2587:2627  OwnershipTransferred(oldOwner, newOwner) */\n  0xffffffffffffffffffffffffffffffffffffffff\n  and\n  0x8be0079c531659141344cd1fd0a4f28419497f9722a3daafe3b4186f6b6457e0\n  mload(0x40)\n  mload(0x40)\n  dup1\n  swap2\n  sub\n  swap1\n  log3\n    /* \"contracts/deps/openzeppelin/access/Ownable.sol\":2510:2634  {... */\n  pop\n    /* \"contracts/deps/openzeppelin/access/Ownable.sol\":2447:2634  function _transferOwnership(address newOwner) internal virtual {... */\n  pop\n  jump\t// out\n    /* \"#utility.yul\":88:205   */\ntag_13:\n    /* \"#utility.yul\":197:198   */\n  0x00\n    /* \"#utility.yul\":194:195   */\n  dup1\n    /* \"#utility.yul\":187:199   */\n  revert\n    /* \"#utility.yul\":334:460   */\ntag_15:\n    /* \"#utility.yul\":371:378   */\n  0x00\n    /* \"#utility.yul\":411:453   */\n  0xffffffffffffffffffffffffffffffffffffffff\n    /* \"#utility.yul\":404:409   */\n  dup3\n    /* \"#utility.yul\":400:454   */\n  and\n    /* \"#utility.yul\":389:454   */\n  swap1\n  pop\n    /* \"#utility.yul\":334:460   */\n  swap2\n  swap1\n  pop\n  jump\t// out\n    /* \"#utility.yul\":466:562   */\ntag_16:\n    /* \"#utility.yul\":503:510   */\n  0x00\n    /* \"#utility.yul\":532:556   */\n  tag_25\n    /* \"#utility.yul\":550:555   */\n  dup3\n    /* \"#utility.yul\":532:556   */\n  tag_15\n  jump\t// in\ntag_25:\n    /* \"#utility.yul\":521:556   */\n  swap1\n  pop\n    /* \"#utility.yul\":466:562   */\n  swap2\n  swap1\n  pop\n  jump\t// out\n    /* \"#utility.yul\":568:690   */\ntag_17:\n    /* \"#utility.yul\":641:665   */\n  tag_27\n    /* \"#utility.yul\":659:664   */\n  dup2\n    /* \"#utility.yul\":641:665   */\n  tag_16\n  jump\t// in\ntag_27:\n    /* \"#utility.yul\":634:639   */\n  dup2\n    /* \"#utility.yul\":631:666   */\n  eq\n    /* \"#utility.yul\":621:684   */\n  tag_28\n  jumpi\n    /* \"#utility.yul\":680:681   */\n  0x00\n    /* \"#utility.yul\":677:678   */\n  dup1\n    /* \"#utility.yul\":670:682   */\n  revert\n    /* \"#utility.yul\":621:684   */\ntag_28:\n    /* \"#utility.yul\":568:690   */\n  pop\n  jump\t// out\n    /* \"#utility.yul\":696:839   */\ntag_18:\n    /* \"#utility.yul\":753:758   */\n  0x00\n    /* \"#utility.yul\":784:790   */\n  dup2\n    /* \"#utility.yul\":778:791   */\n  mload\n    /* \"#utility.yul\":769:791   */\n  swap1\n  pop\n    /* \"#utility.yul\":800:833   */\n  tag_30\n    /* \"#utility.yul\":827:832   */\n  dup2\n    /* \"#utility.yul\":800:833   */\n  tag_17\n  jump\t// in\ntag_30:\n    /* \"#utility.yul\":696:839   */\n  swap3\n  swap2\n  pop\n  pop\n  jump\t// out\n    /* \"#utility.yul\":845:1196   */\ntag_3:\n    /* \"#utility.yul\":915:921   */\n  0x00\n    /* \"#utility.yul\":964:966   */\n  0x20\n    /* \"#utility.yul\":952:961   */\n  dup3\n    /* \"#utility.yul\":943:950   */\n  dup5\n    /* \"#utility.yul\":939:962   */\n  sub\n    /* \"#utility.yul\":935:967   */\n  slt\n    /* \"#utility.yul\":932:1051   */\n  iszero\n  tag_32\n  jumpi\n    /* \"#utility.yul\":970:1049   */\n  tag_33\n  tag_13\n  jump\t// in\ntag_33:\n    /* \"#utility.yul\":932:1051   */\ntag_32:\n    /* \"#utility.yul\":1090:1091   */\n  0x00\n    /* \"#utility.yul\":1115:1179   */\n  tag_34\n    /* \"#utility.yul\":1171:1178   */\n  dup5\n    /* \"#utility.yul\":1162:1168   */\n  dup3\n    /* \"#utility.yul\":1151:1160   */\n  dup6\n    /* \"#utility.yul\":1147:1169   */\n  add\n    /* \"#utility.yul\":1115:1179   */\n  tag_18\n  jump\t// in\ntag_34:\n    /* \"#utility.yul\":1105:1179   */\n  swap2\n  pop\n    /* \"#utility.yul\":1061:1189   */\n  pop\n    /* \"#utility.yul\":845:1196   */\n  swap3\n  swap2\n  pop\n  pop\n  jump\t// out\n    /* \"contracts/templates/modular_upgradeable/ModuleManager.sol\":867:5362  contract ModuleManager is Ownable {... */\ntag_10:\n  dataSize(sub_0)\n  dup1\n  dataOffset(sub_0)\n  0x00\n  codecopy\n  0x00\n  return\nstop\n\nsub_0: assembly {\n        /* \"contracts/templates/modular_upgradeable/ModuleManager.sol\":867:5362  contract ModuleManager is Ownable {... */\n      mstore(0x40, 0x80)\n      callvalue\n      dup1\n      iszero\n      tag_1\n      jumpi\n      0x00\n      dup1\n      revert\n    tag_1:\n      pop\n      jumpi(tag_2, lt(calldatasize, 0x04))\n      shr(0xe0, calldataload(0x00))\n      dup1\n      0x980d37e8\n      gt\n      tag_15\n      jumpi\n      dup1\n      0x980d37e8\n      eq\n      tag_9\n      jumpi\n      dup1\n      0xcae96761\n      eq\n      tag_10\n      jumpi\n      dup1\n      0xd285f839\n      eq\n      tag_11\n      jumpi\n      dup1\n      0xe8009dda\n      eq\n      tag_12\n      jumpi\n      dup1\n      0xf2fde38b\n      eq\n      tag_13\n      jumpi\n      dup1\n      0xf3f342fa\n      eq\n      tag_14\n      jumpi\n      jump(tag_2)\n    tag_15:\n      dup1\n      0x5332c74d\n      eq\n      tag_3\n      jumpi\n      dup1\n      0x54cbbd6e\n      eq\n      tag_4\n      jumpi\n      dup1\n      0x715018a6\n      eq\n      tag_5\n      jumpi\n      dup1\n      0x7ac3ab14\n      eq\n      tag_6\n      jumpi\n      dup1\n      0x81b2248a\n      eq\n      tag_7\n      jumpi\n      dup1\n      0x8da5cb5b\n      eq\n      tag_8\n      jumpi\n    tag_2:\n      0x00\n      dup1\n      revert\n        /* \"contracts/templates/modular_upgradeable/ModuleManager.sol\":4461:4630  function upgrade(string memory module, address newImplementation)... */\n    tag_3:\n      tag_16\n      0x04\n      dup1\n      calldatasize\n      sub\n      dup2\n      add\n      swap1\n      tag_17\n      swap2\n      swap1\n      tag_18\n      jump\t// in\n    tag_17:\n      tag_19\n      jump\t// in\n    tag_16:\n      mload(0x40)\n      tag_20\n      swap2\n      swap1\n      tag_21\n      jump\t// in\n    tag_20:\n      mload(0x40)\n      dup1\n      swap2\n      sub\n      swap1\n      return\n        /* \"contracts/templates/modular_upgradeable/ModuleManager.sol\":4294:4455  function aquire(string memory module, address implementation)... */\n    tag_4:\n      tag_22\n      0x04\n      dup1\n      calldatasize\n      sub\n      dup2\n      add\n      swap1\n      tag_23\n      swap2\n      swap1\n      tag_18\n      jump\t// in\n    tag_23:\n      tag_24\n      jump\t// in\n    tag_22:\n      mload(0x40)\n      tag_25\n      swap2\n      swap1\n      tag_21\n      jump\t// in\n    tag_25:\n      mload(0x40)\n      dup1\n      swap2\n      sub\n      swap1\n      return\n        /* \"contracts/deps/openzeppelin/access/Ownable.sol\":1845:1946  function renounceOwnership() public virtual onlyOwner {... */\n    tag_5:\n      tag_26\n      tag_27\n      jump\t// in\n    tag_26:\n      stop\n        /* \"contracts/templates/modular_upgradeable/ModuleManager.sol\":998:1052  mapping(string => bool) public hasGovernancePermission */\n    tag_6:\n      tag_28\n      0x04\n      dup1\n      calldatasize\n      sub\n      dup2\n      add\n      swap1\n      tag_29\n      swap2\n      swap1\n      tag_30\n      jump\t// in\n    tag_29:\n      tag_31\n      jump\t// in\n    tag_28:\n      mload(0x40)\n      tag_32\n      swap2\n      swap1\n      tag_21\n      jump\t// in\n    tag_32:\n      mload(0x40)\n      dup1\n      swap2\n      sub\n      swap1\n      return\n        /* \"contracts/templates/modular_upgradeable/ModuleManager.sol\":1132:1155  string[] public modules */\n    tag_7:\n      tag_33\n      0x04\n      dup1\n      calldatasize\n      sub\n      dup2\n      add\n      swap1\n      tag_34\n      swap2\n      swap1\n      tag_35\n      jump\t// in\n    tag_34:\n      tag_36\n      jump\t// in\n    tag_33:\n      mload(0x40)\n      tag_37\n      swap2\n      swap1\n      tag_38\n      jump\t// in\n    tag_37:\n      mload(0x40)\n      dup1\n      swap2\n      sub\n      swap1\n      return\n        /* \"contracts/deps/openzeppelin/access/Ownable.sol\":1222:1307  function owner() public view virtual returns (address) {... */\n    tag_8:\n      tag_39\n      tag_40\n      jump\t// in\n    tag_39:\n      mload(0x40)\n      tag_41\n      swap2\n      swap1\n      tag_42\n      jump\t// in\n    tag_41:\n      mload(0x40)\n      dup1\n      swap2\n      sub\n      swap1\n      return\n        /* \"contracts/templates/modular_upgradeable/ModuleManager.sol\":5167:5360  function hasGovernancePermission_(string memory module)... */\n    tag_9:\n      tag_43\n      0x04\n      dup1\n      calldatasize\n      sub\n      dup2\n      add\n      swap1\n      tag_44\n      swap2\n      swap1\n      tag_30\n      jump\t// in\n    tag_44:\n      tag_45\n      jump\t// in\n    tag_43:\n      mload(0x40)\n      tag_46\n      swap2\n      swap1\n      tag_21\n      jump\t// in\n    tag_46:\n      mload(0x40)\n      dup1\n      swap2\n      sub\n      swap1\n      return\n        /* \"contracts/templates/modular_upgradeable/ModuleManager.sol\":4636:4793  function getLatestVersion(string memory module)... */\n    tag_10:\n      tag_47\n      0x04\n      dup1\n      calldatasize\n      sub\n      dup2\n      add\n      swap1\n      tag_48\n      swap2\n      swap1\n      tag_30\n      jump\t// in\n    tag_48:\n      tag_49\n      jump\t// in\n    tag_47:\n      mload(0x40)\n      tag_50\n      swap2\n      swap1\n      tag_51\n      jump\t// in\n    tag_50:\n      mload(0x40)\n      dup1\n      swap2\n      sub\n      swap1\n      return\n        /* \"contracts/templates/modular_upgradeable/ModuleManager.sol\":4799:4970  function getLatestImplementation(string memory module)... */\n    tag_11:\n      tag_52\n      0x04\n      dup1\n      calldatasize\n      sub\n      dup2\n      add\n      swap1\n      tag_53\n      swap2\n      swap1\n      tag_30\n      jump\t// in\n    tag_53:\n      tag_54\n      jump\t// in\n    tag_52:\n      mload(0x40)\n      tag_55\n      swap2\n      swap1\n      tag_42\n      jump\t// in\n    tag_55:\n      mload(0x40)\n      dup1\n      swap2\n      sub\n      swap1\n      return\n        /* \"contracts/templates/modular_upgradeable/ModuleManager.sol\":4976:5161  function getImplementation(string memory module, uint256 version)... */\n    tag_12:\n      tag_56\n      0x04\n      dup1\n      calldatasize\n      sub\n      dup2\n      add\n      swap1\n      tag_57\n      swap2\n      swap1\n      tag_58\n      jump\t// in\n    tag_57:\n      tag_59\n      jump\t// in\n    tag_56:\n      mload(0x40)\n      tag_60\n      swap2\n      swap1\n      tag_42\n      jump\t// in\n    tag_60:\n      mload(0x40)\n      dup1\n      swap2\n      sub\n      swap1\n      return\n        /* \"contracts/deps/openzeppelin/access/Ownable.sol\":2095:2293  function transferOwnership(address newOwner) public virtual onlyOwner {... */\n    tag_13:\n      tag_61\n      0x04\n      dup1\n      calldatasize\n      sub\n      dup2\n      add\n      swap1\n      tag_62\n      swap2\n      swap1\n      tag_63\n      jump\t// in\n    tag_62:\n      tag_64\n      jump\t// in\n    tag_61:\n      stop\n        /* \"contracts/templates/modular_upgradeable/ModuleManager.sol\":961:991  uint256 public numberOfModules */\n    tag_14:\n      tag_65\n      tag_66\n      jump\t// in\n    tag_65:\n      mload(0x40)\n      tag_67\n      swap2\n      swap1\n      tag_51\n      jump\t// in\n    tag_67:\n      mload(0x40)\n      dup1\n      swap2\n      sub\n      swap1\n      return\n        /* \"contracts/templates/modular_upgradeable/ModuleManager.sol\":4461:4630  function upgrade(string memory module, address newImplementation)... */\n    tag_19:\n        /* \"contracts/templates/modular_upgradeable/ModuleManager.sol\":4561:4565  bool */\n      0x00\n        /* \"contracts/templates/modular_upgradeable/ModuleManager.sol\":4588:4623  _upgrade(module, newImplementation) */\n      tag_69\n        /* \"contracts/templates/modular_upgradeable/ModuleManager.sol\":4597:4603  module */\n      dup4\n        /* \"contracts/templates/modular_upgradeable/ModuleManager.sol\":4605:4622  newImplementation */\n      dup4\n        /* \"contracts/templates/modular_upgradeable/ModuleManager.sol\":4588:4596  _upgrade */\n      tag_70\n        /* \"contracts/templates/modular_upgradeable/ModuleManager.sol\":4588:4623  _upgrade(module, newImplementation) */\n      jump\t// in\n    tag_69:\n        /* \"contracts/templates/modular_upgradeable/ModuleManager.sol\":4581:4623  return _upgrade(module, newImplementation) */\n      swap1\n      pop\n        /* \"contracts/templates/modular_upgradeable/ModuleManager.sol\":4461:4630  function upgrade(string memory module, address newImplementation)... */\n      swap3\n      swap2\n      pop\n      pop\n      jump\t// out\n        /* \"contracts/templates/modular_upgradeable/ModuleManager.sol\":4294:4455  function aquire(string memory module, address implementation)... */\n    tag_24:\n        /* \"contracts/templates/modular_upgradeable/ModuleManager.sol\":4390:4394  bool */\n      0x00\n        /* \"contracts/templates/modular_upgradeable/ModuleManager.sol\":4417:4448  _aquire(module, implementation) */\n      tag_72\n        /* \"contracts/templates/modular_upgradeable/ModuleManager.sol\":4425:4431  module */\n      dup4\n        /* \"contracts/templates/modular_upgradeable/ModuleManager.sol\":4433:4447  implementation */\n      dup4\n        /* \"contracts/templates/modular_upgradeable/ModuleManager.sol\":4417:4424  _aquire */\n      tag_73\n        /* \"contracts/templates/modular_upgradeable/ModuleManager.sol\":4417:4448  _aquire(module, implementation) */\n      jump\t// in\n    tag_72:\n        /* \"contracts/templates/modular_upgradeable/ModuleManager.sol\":4410:4448  return _aquire(module, implementation) */\n      swap1\n      pop\n        /* \"contracts/templates/modular_upgradeable/ModuleManager.sol\":4294:4455  function aquire(string memory module, address implementation)... */\n      swap3\n      swap2\n      pop\n      pop\n      jump\t// out\n        /* \"contracts/deps/openzeppelin/access/Ownable.sol\":1845:1946  function renounceOwnership() public virtual onlyOwner {... */\n    tag_27:\n        /* \"contracts/deps/openzeppelin/access/Ownable.sol\":1115:1128  _checkOwner() */\n      tag_75\n        /* \"contracts/deps/openzeppelin/access/Ownable.sol\":1115:1126  _checkOwner */\n      tag_76\n        /* \"contracts/deps/openzeppelin/access/Ownable.sol\":1115:1128  _checkOwner() */\n      jump\t// in\n    tag_75:\n        /* \"contracts/deps/openzeppelin/access/Ownable.sol\":1909:1939  _transferOwnership(address(0)) */\n      tag_78\n        /* \"contracts/deps/openzeppelin/access/Ownable.sol\":1936:1937  0 */\n      0x00\n        /* \"contracts/deps/openzeppelin/access/Ownable.sol\":1909:1927  _transferOwnership */\n      tag_79\n        /* \"contracts/deps/openzeppelin/access/Ownable.sol\":1909:1939  _transferOwnership(address(0)) */\n      jump\t// in\n    tag_78:\n        /* \"contracts/deps/openzeppelin/access/Ownable.sol\":1845:1946  function renounceOwnership() public virtual onlyOwner {... */\n      jump\t// out\n        /* \"contracts/templates/modular_upgradeable/ModuleManager.sol\":998:1052  mapping(string => bool) public hasGovernancePermission */\n    tag_31:\n      0x02\n      dup2\n      dup1\n      mload\n      0x20\n      dup2\n      add\n      dup3\n      add\n      dup1\n      mload\n      dup5\n      dup3\n      mstore\n      0x20\n      dup4\n      add\n      0x20\n      dup6\n      add\n      keccak256\n      dup2\n      dup4\n      mstore\n      dup1\n      swap6\n      pop\n      pop\n      pop\n      pop\n      pop\n      pop\n      0x00\n      swap2\n      pop\n      sload\n      swap1\n      0x0100\n      exp\n      swap1\n      div\n      0xff\n      and\n      dup2\n      jump\t// out\n        /* \"contracts/templates/modular_upgradeable/ModuleManager.sol\":1132:1155  string[] public modules */\n    tag_36:\n      0x04\n      dup2\n      dup2\n      sload\n      dup2\n      lt\n      tag_80\n      jumpi\n      0x00\n      dup1\n      revert\n    tag_80:\n      swap1\n      0x00\n      mstore\n      keccak256(0x00, 0x20)\n      add\n      0x00\n      swap2\n      pop\n      swap1\n      pop\n      dup1\n      sload\n      tag_82\n      swap1\n      tag_83\n      jump\t// in\n    tag_82:\n      dup1\n      0x1f\n      add\n      0x20\n      dup1\n      swap2\n      div\n      mul\n      0x20\n      add\n      mload(0x40)\n      swap1\n      dup2\n      add\n      0x40\n      mstore\n      dup1\n      swap3\n      swap2\n      swap1\n      dup2\n      dup2\n      mstore\n      0x20\n      add\n      dup3\n      dup1\n      sload\n      tag_84\n      swap1\n      tag_83\n      jump\t// in\n    tag_84:\n      dup1\n      iszero\n      tag_85\n      jumpi\n      dup1\n      0x1f\n      lt\n      tag_86\n      jumpi\n      0x0100\n      dup1\n      dup4\n      sload\n      div\n      mul\n      dup4\n      mstore\n      swap2\n      0x20\n      add\n      swap2\n      jump(tag_85)\n    tag_86:\n      dup3\n      add\n      swap2\n      swap1\n      0x00\n      mstore\n      keccak256(0x00, 0x20)\n      swap1\n    tag_87:\n      dup2\n      sload\n      dup2\n      mstore\n      swap1\n      0x01\n      add\n      swap1\n      0x20\n      add\n      dup1\n      dup4\n      gt\n      tag_87\n      jumpi\n      dup3\n      swap1\n      sub\n      0x1f\n      and\n      dup3\n      add\n      swap2\n    tag_85:\n      pop\n      pop\n      pop\n      pop\n      pop\n      dup2\n      jump\t// out\n        /* \"contracts/deps/openzeppelin/access/Ownable.sol\":1222:1307  function owner() public view virtual returns (address) {... */\n    tag_40:\n        /* \"contracts/deps/openzeppelin/access/Ownable.sol\":1268:1275  address */\n      0x00\n        /* \"contracts/deps/openzeppelin/access/Ownable.sol\":1294:1300  _owner */\n      dup1\n      0x00\n      swap1\n      sload\n      swap1\n      0x0100\n      exp\n      swap1\n      div\n      0xffffffffffffffffffffffffffffffffffffffff\n      and\n        /* \"contracts/deps/openzeppelin/access/Ownable.sol\":1287:1300  return _owner */\n      swap1\n      pop\n        /* \"contracts/deps/openzeppelin/access/Ownable.sol\":1222:1307  function owner() public view virtual returns (address) {... */\n      swap1\n      jump\t// out\n        /* \"contracts/templates/modular_upgradeable/ModuleManager.sol\":5167:5360  function hasGovernancePermission_(string memory module)... */\n    tag_45:\n        /* \"contracts/templates/modular_upgradeable/ModuleManager.sol\":5322:5326  bool */\n      0x00\n        /* \"contracts/templates/modular_upgradeable/ModuleManager.sol\":5297:5303  module */\n      dup2\n        /* \"contracts/templates/modular_upgradeable/ModuleManager.sol\":1260:1283  hasGovernancePermission */\n      0x02\n        /* \"contracts/templates/modular_upgradeable/ModuleManager.sol\":1284:1290  module */\n      dup2\n        /* \"contracts/templates/modular_upgradeable/ModuleManager.sol\":1260:1291  hasGovernancePermission[module] */\n      mload(0x40)\n      tag_90\n      swap2\n      swap1\n      tag_91\n      jump\t// in\n    tag_90:\n      swap1\n      dup2\n      mstore\n      0x20\n      add\n      mload(0x40)\n      dup1\n      swap2\n      sub\n      swap1\n      keccak256\n      0x00\n      swap1\n      sload\n      swap1\n      0x0100\n      exp\n      swap1\n      div\n      0xff\n      and\n        /* \"contracts/templates/modular_upgradeable/ModuleManager.sol\":1239:1375  require(... */\n      tag_92\n      jumpi\n      mload(0x40)\n      0x08c379a000000000000000000000000000000000000000000000000000000000\n      dup2\n      mstore\n      0x04\n      add\n      tag_93\n      swap1\n      tag_94\n      jump\t// in\n    tag_93:\n      mload(0x40)\n      dup1\n      swap2\n      sub\n      swap1\n      revert\n    tag_92:\n        /* \"contracts/templates/modular_upgradeable/ModuleManager.sol\":1421:1453  _getLatestImplementation(module) */\n      tag_95\n        /* \"contracts/templates/modular_upgradeable/ModuleManager.sol\":1446:1452  module */\n      dup2\n        /* \"contracts/templates/modular_upgradeable/ModuleManager.sol\":1421:1445  _getLatestImplementation */\n      tag_96\n        /* \"contracts/templates/modular_upgradeable/ModuleManager.sol\":1421:1453  _getLatestImplementation(module) */\n      jump\t// in\n    tag_95:\n        /* \"contracts/templates/modular_upgradeable/ModuleManager.sol\":1407:1453  msg.sender == _getLatestImplementation(module) */\n      0xffffffffffffffffffffffffffffffffffffffff\n      and\n        /* \"contracts/templates/modular_upgradeable/ModuleManager.sol\":1407:1417  msg.sender */\n      caller\n        /* \"contracts/templates/modular_upgradeable/ModuleManager.sol\":1407:1453  msg.sender == _getLatestImplementation(module) */\n      0xffffffffffffffffffffffffffffffffffffffff\n      and\n      eq\n        /* \"contracts/templates/modular_upgradeable/ModuleManager.sol\":1386:1534  require(... */\n      tag_97\n      jumpi\n      mload(0x40)\n      0x08c379a000000000000000000000000000000000000000000000000000000000\n      dup2\n      mstore\n      0x04\n      add\n      tag_98\n      swap1\n      tag_99\n      jump\t// in\n    tag_98:\n      mload(0x40)\n      dup1\n      swap2\n      sub\n      swap1\n      revert\n    tag_97:\n        /* \"contracts/templates/modular_upgradeable/ModuleManager.sol\":5349:5353  true */\n      0x01\n        /* \"contracts/templates/modular_upgradeable/ModuleManager.sol\":5342:5353  return true */\n      swap2\n      pop\n        /* \"contracts/templates/modular_upgradeable/ModuleManager.sol\":5167:5360  function hasGovernancePermission_(string memory module)... */\n      pop\n      swap2\n      swap1\n      pop\n      jump\t// out\n        /* \"contracts/templates/modular_upgradeable/ModuleManager.sol\":4636:4793  function getLatestVersion(string memory module)... */\n    tag_49:\n        /* \"contracts/templates/modular_upgradeable/ModuleManager.sol\":4731:4738  uint256 */\n      0x00\n        /* \"contracts/templates/modular_upgradeable/ModuleManager.sol\":4761:4786  _getLatestVersion(module) */\n      tag_102\n        /* \"contracts/templates/modular_upgradeable/ModuleManager.sol\":4779:4785  module */\n      dup3\n        /* \"contracts/templates/modular_upgradeable/ModuleManager.sol\":4761:4778  _getLatestVersion */\n      tag_103\n        /* \"contracts/templates/modular_upgradeable/ModuleManager.sol\":4761:4786  _getLatestVersion(module) */\n      jump\t// in\n    tag_102:\n        /* \"contracts/templates/modular_upgradeable/ModuleManager.sol\":4754:4786  return _getLatestVersion(module) */\n      swap1\n      pop\n        /* \"contracts/templates/modular_upgradeable/ModuleManager.sol\":4636:4793  function getLatestVersion(string memory module)... */\n      swap2\n      swap1\n      pop\n      jump\t// out\n        /* \"contracts/templates/modular_upgradeable/ModuleManager.sol\":4799:4970  function getLatestImplementation(string memory module)... */\n    tag_54:\n        /* \"contracts/templates/modular_upgradeable/ModuleManager.sol\":4901:4908  address */\n      0x00\n        /* \"contracts/templates/modular_upgradeable/ModuleManager.sol\":4931:4963  _getLatestImplementation(module) */\n      tag_105\n        /* \"contracts/templates/modular_upgradeable/ModuleManager.sol\":4956:4962  module */\n      dup3\n        /* \"contracts/templates/modular_upgradeable/ModuleManager.sol\":4931:4955  _getLatestImplementation */\n      tag_96\n        /* \"contracts/templates/modular_upgradeable/ModuleManager.sol\":4931:4963  _getLatestImplementation(module) */\n      jump\t// in\n    tag_105:\n        /* \"contracts/templates/modular_upgradeable/ModuleManager.sol\":4924:4963  return _getLatestImplementation(module) */\n      swap1\n      pop\n        /* \"contracts/templates/modular_upgradeable/ModuleManager.sol\":4799:4970  function getLatestImplementation(string memory module)... */\n      swap2\n      swap1\n      pop\n      jump\t// out\n        /* \"contracts/templates/modular_upgradeable/ModuleManager.sol\":4976:5161  function getImplementation(string memory module, uint256 version)... */\n    tag_59:\n        /* \"contracts/templates/modular_upgradeable/ModuleManager.sol\":5089:5096  address */\n      0x00\n        /* \"contracts/templates/modular_upgradeable/ModuleManager.sol\":5119:5154  _getImplementation(module, version) */\n      tag_107\n        /* \"contracts/templates/modular_upgradeable/ModuleManager.sol\":5138:5144  module */\n      dup4\n        /* \"contracts/templates/modular_upgradeable/ModuleManager.sol\":5146:5153  version */\n      dup4\n        /* \"contracts/templates/modular_upgradeable/ModuleManager.sol\":5119:5137  _getImplementation */\n      tag_108\n        /* \"contracts/templates/modular_upgradeable/ModuleManager.sol\":5119:5154  _getImplementation(module, version) */\n      jump\t// in\n    tag_107:\n        /* \"contracts/templates/modular_upgradeable/ModuleManager.sol\":5112:5154  return _getImplementation(module, version) */\n      swap1\n      pop\n        /* \"contracts/templates/modular_upgradeable/ModuleManager.sol\":4976:5161  function getImplementation(string memory module, uint256 version)... */\n      swap3\n      swap2\n      pop\n      pop\n      jump\t// out\n        /* \"contracts/deps/openzeppelin/access/Ownable.sol\":2095:2293  function transferOwnership(address newOwner) public virtual onlyOwner {... */\n    tag_64:\n        /* \"contracts/deps/openzeppelin/access/Ownable.sol\":1115:1128  _checkOwner() */\n      tag_110\n        /* \"contracts/deps/openzeppelin/access/Ownable.sol\":1115:1126  _checkOwner */\n      tag_76\n        /* \"contracts/deps/openzeppelin/access/Ownable.sol\":1115:1128  _checkOwner() */\n      jump\t// in\n    tag_110:\n        /* \"contracts/deps/openzeppelin/access/Ownable.sol\":2203:2204  0 */\n      0x00\n        /* \"contracts/deps/openzeppelin/access/Ownable.sol\":2183:2205  newOwner != address(0) */\n      0xffffffffffffffffffffffffffffffffffffffff\n      and\n        /* \"contracts/deps/openzeppelin/access/Ownable.sol\":2183:2191  newOwner */\n      dup2\n        /* \"contracts/deps/openzeppelin/access/Ownable.sol\":2183:2205  newOwner != address(0) */\n      0xffffffffffffffffffffffffffffffffffffffff\n      and\n      sub\n        /* \"contracts/deps/openzeppelin/access/Ownable.sol\":2175:2248  require(newOwner != address(0), \"Ownable: new owner is the zero address\") */\n      tag_112\n      jumpi\n      mload(0x40)\n      0x08c379a000000000000000000000000000000000000000000000000000000000\n      dup2\n      mstore\n      0x04\n      add\n      tag_113\n      swap1\n      tag_114\n      jump\t// in\n    tag_113:\n      mload(0x40)\n      dup1\n      swap2\n      sub\n      swap1\n      revert\n    tag_112:\n        /* \"contracts/deps/openzeppelin/access/Ownable.sol\":2258:2286  _transferOwnership(newOwner) */\n      tag_115\n        /* \"contracts/deps/openzeppelin/access/Ownable.sol\":2277:2285  newOwner */\n      dup2\n        /* \"contracts/deps/openzeppelin/access/Ownable.sol\":2258:2276  _transferOwnership */\n      tag_79\n        /* \"contracts/deps/openzeppelin/access/Ownable.sol\":2258:2286  _transferOwnership(newOwner) */\n      jump\t// in\n    tag_115:\n        /* \"contracts/deps/openzeppelin/access/Ownable.sol\":2095:2293  function transferOwnership(address newOwner) public virtual onlyOwner {... */\n      pop\n      jump\t// out\n        /* \"contracts/templates/modular_upgradeable/ModuleManager.sol\":961:991  uint256 public numberOfModules */\n    tag_66:\n      sload(0x01)\n      dup2\n      jump\t// out\n        /* \"contracts/templates/modular_upgradeable/ModuleManager.sol\":3964:4288  function _upgrade(string memory module, address newImplementation)... */\n    tag_70:\n        /* \"contracts/templates/modular_upgradeable/ModuleManager.sol\":4136:4140  bool */\n      0x00\n        /* \"contracts/deps/openzeppelin/access/Ownable.sol\":1115:1128  _checkOwner() */\n      tag_117\n        /* \"contracts/deps/openzeppelin/access/Ownable.sol\":1115:1126  _checkOwner */\n      tag_76\n        /* \"contracts/deps/openzeppelin/access/Ownable.sol\":1115:1128  _checkOwner() */\n      jump\t// in\n    tag_117:\n        /* \"contracts/templates/modular_upgradeable/ModuleManager.sol\":4111:4117  module */\n      dup3\n        /* \"contracts/templates/modular_upgradeable/ModuleManager.sol\":1884:1885  1 */\n      0x01\n        /* \"contracts/templates/modular_upgradeable/ModuleManager.sol\":1847:1880  _implementations[module].length() */\n      tag_119\n        /* \"contracts/templates/modular_upgradeable/ModuleManager.sol\":1847:1863  _implementations */\n      0x03\n        /* \"contracts/templates/modular_upgradeable/ModuleManager.sol\":1864:1870  module */\n      dup4\n        /* \"contracts/templates/modular_upgradeable/ModuleManager.sol\":1847:1871  _implementations[module] */\n      mload(0x40)\n      tag_120\n      swap2\n      swap1\n      tag_91\n      jump\t// in\n    tag_120:\n      swap1\n      dup2\n      mstore\n      0x20\n      add\n      mload(0x40)\n      dup1\n      swap2\n      sub\n      swap1\n      keccak256\n        /* \"contracts/templates/modular_upgradeable/ModuleManager.sol\":1847:1878  _implementations[module].length */\n      tag_121\n        /* \"contracts/templates/modular_upgradeable/ModuleManager.sol\":1847:1880  _implementations[module].length() */\n      jump\t// in\n    tag_119:\n        /* \"contracts/templates/modular_upgradeable/ModuleManager.sol\":1847:1885  _implementations[module].length() >= 1 */\n      lt\n      iszero\n        /* \"contracts/templates/modular_upgradeable/ModuleManager.sol\":1826:1947  require(... */\n      tag_122\n      jumpi\n      mload(0x40)\n      0x08c379a000000000000000000000000000000000000000000000000000000000\n      dup2\n      mstore\n      0x04\n      add\n      tag_123\n      swap1\n      tag_124\n      jump\t// in\n    tag_123:\n      mload(0x40)\n      dup1\n      swap2\n      sub\n      swap1\n      revert\n    tag_122:\n        /* \"contracts/templates/modular_upgradeable/ModuleManager.sol\":4156:4203  _implementations[module].add(newImplementation) */\n      tag_126\n        /* \"contracts/templates/modular_upgradeable/ModuleManager.sol\":4185:4202  newImplementation */\n      dup4\n        /* \"contracts/templates/modular_upgradeable/ModuleManager.sol\":4156:4172  _implementations */\n      0x03\n        /* \"contracts/templates/modular_upgradeable/ModuleManager.sol\":4173:4179  module */\n      dup7\n        /* \"contracts/templates/modular_upgradeable/ModuleManager.sol\":4156:4180  _implementations[module] */\n      mload(0x40)\n      tag_127\n      swap2\n      swap1\n      tag_91\n      jump\t// in\n    tag_127:\n      swap1\n      dup2\n      mstore\n      0x20\n      add\n      mload(0x40)\n      dup1\n      swap2\n      sub\n      swap1\n      keccak256\n        /* \"contracts/templates/modular_upgradeable/ModuleManager.sol\":4156:4184  _implementations[module].add */\n      tag_128\n      swap1\n        /* \"contracts/templates/modular_upgradeable/ModuleManager.sol\":4156:4203  _implementations[module].add(newImplementation) */\n      swap2\n      swap1\n      0xffffffff\n      and\n      jump\t// in\n    tag_126:\n      pop\n        /* \"contracts/templates/modular_upgradeable/ModuleManager.sol\":4234:4240  module */\n      dup4\n        /* \"contracts/templates/modular_upgradeable/ModuleManager.sol\":4219:4260  ModuleUpgraded(module, newImplementation) */\n      mload(0x40)\n      tag_129\n      swap2\n      swap1\n      tag_91\n      jump\t// in\n    tag_129:\n      mload(0x40)\n      dup1\n      swap2\n      sub\n      swap1\n      keccak256\n      0x1f13caeb007f29cd5fc6f97bcff68492c71932a30b875a50bd24a06f71b719bd\n        /* \"contracts/templates/modular_upgradeable/ModuleManager.sol\":4242:4259  newImplementation */\n      dup5\n        /* \"contracts/templates/modular_upgradeable/ModuleManager.sol\":4219:4260  ModuleUpgraded(module, newImplementation) */\n      mload(0x40)\n      tag_130\n      swap2\n      swap1\n      tag_42\n      jump\t// in\n    tag_130:\n      mload(0x40)\n      dup1\n      swap2\n      sub\n      swap1\n      log2\n        /* \"contracts/templates/modular_upgradeable/ModuleManager.sol\":4277:4281  true */\n      0x01\n        /* \"contracts/templates/modular_upgradeable/ModuleManager.sol\":4270:4281  return true */\n      swap2\n      pop\n        /* \"contracts/deps/openzeppelin/access/Ownable.sol\":1138:1139  _ */\n      pop\n        /* \"contracts/templates/modular_upgradeable/ModuleManager.sol\":3964:4288  function _upgrade(string memory module, address newImplementation)... */\n      swap3\n      swap2\n      pop\n      pop\n      jump\t// out\n        /* \"contracts/templates/modular_upgradeable/ModuleManager.sol\":3584:3958  function _aquire(string memory module, address implementation)... */\n    tag_73:\n        /* \"contracts/templates/modular_upgradeable/ModuleManager.sol\":3755:3759  bool */\n      0x00\n        /* \"contracts/deps/openzeppelin/access/Ownable.sol\":1115:1128  _checkOwner() */\n      tag_132\n        /* \"contracts/deps/openzeppelin/access/Ownable.sol\":1115:1126  _checkOwner */\n      tag_76\n        /* \"contracts/deps/openzeppelin/access/Ownable.sol\":1115:1128  _checkOwner() */\n      jump\t// in\n    tag_132:\n        /* \"contracts/templates/modular_upgradeable/ModuleManager.sol\":3730:3736  module */\n      dup3\n        /* \"contracts/templates/modular_upgradeable/ModuleManager.sol\":1681:1682  0 */\n      0x00\n        /* \"contracts/templates/modular_upgradeable/ModuleManager.sol\":1644:1677  _implementations[module].length() */\n      tag_134\n        /* \"contracts/templates/modular_upgradeable/ModuleManager.sol\":1644:1660  _implementations */\n      0x03\n        /* \"contracts/templates/modular_upgradeable/ModuleManager.sol\":1661:1667  module */\n      dup4\n        /* \"contracts/templates/modular_upgradeable/ModuleManager.sol\":1644:1668  _implementations[module] */\n      mload(0x40)\n      tag_135\n      swap2\n      swap1\n      tag_91\n      jump\t// in\n    tag_135:\n      swap1\n      dup2\n      mstore\n      0x20\n      add\n      mload(0x40)\n      dup1\n      swap2\n      sub\n      swap1\n      keccak256\n        /* \"contracts/templates/modular_upgradeable/ModuleManager.sol\":1644:1675  _implementations[module].length */\n      tag_121\n        /* \"contracts/templates/modular_upgradeable/ModuleManager.sol\":1644:1677  _implementations[module].length() */\n      jump\t// in\n    tag_134:\n        /* \"contracts/templates/modular_upgradeable/ModuleManager.sol\":1644:1682  _implementations[module].length() == 0 */\n      eq\n        /* \"contracts/templates/modular_upgradeable/ModuleManager.sol\":1623:1740  require(... */\n      tag_136\n      jumpi\n      mload(0x40)\n      0x08c379a000000000000000000000000000000000000000000000000000000000\n      dup2\n      mstore\n      0x04\n      add\n      tag_137\n      swap1\n      tag_138\n      jump\t// in\n    tag_137:\n      mload(0x40)\n      dup1\n      swap2\n      sub\n      swap1\n      revert\n    tag_136:\n        /* \"contracts/templates/modular_upgradeable/ModuleManager.sol\":3775:3790  numberOfModules */\n      0x01\n      0x00\n        /* \"contracts/templates/modular_upgradeable/ModuleManager.sol\":3775:3792  numberOfModules++ */\n      dup2\n      sload\n      dup1\n      swap3\n      swap2\n      swap1\n      tag_140\n      swap1\n      tag_141\n      jump\t// in\n    tag_140:\n      swap2\n      swap1\n      pop\n      sstore\n      pop\n        /* \"contracts/templates/modular_upgradeable/ModuleManager.sol\":3802:3846  _implementations[module].add(implementation) */\n      tag_142\n        /* \"contracts/templates/modular_upgradeable/ModuleManager.sol\":3831:3845  implementation */\n      dup4\n        /* \"contracts/templates/modular_upgradeable/ModuleManager.sol\":3802:3818  _implementations */\n      0x03\n        /* \"contracts/templates/modular_upgradeable/ModuleManager.sol\":3819:3825  module */\n      dup7\n        /* \"contracts/templates/modular_upgradeable/ModuleManager.sol\":3802:3826  _implementations[module] */\n      mload(0x40)\n      tag_143\n      swap2\n      swap1\n      tag_91\n      jump\t// in\n    tag_143:\n      swap1\n      dup2\n      mstore\n      0x20\n      add\n      mload(0x40)\n      dup1\n      swap2\n      sub\n      swap1\n      keccak256\n        /* \"contracts/templates/modular_upgradeable/ModuleManager.sol\":3802:3830  _implementations[module].add */\n      tag_128\n      swap1\n        /* \"contracts/templates/modular_upgradeable/ModuleManager.sol\":3802:3846  _implementations[module].add(implementation) */\n      swap2\n      swap1\n      0xffffffff\n      and\n      jump\t// in\n    tag_142:\n      pop\n        /* \"contracts/templates/modular_upgradeable/ModuleManager.sol\":3857:3864  modules */\n      0x04\n        /* \"contracts/templates/modular_upgradeable/ModuleManager.sol\":3870:3876  module */\n      dup5\n        /* \"contracts/templates/modular_upgradeable/ModuleManager.sol\":3857:3877  modules.push(module) */\n      swap1\n      dup1\n      0x01\n      dup2\n      sload\n      add\n      dup1\n      dup3\n      sstore\n      dup1\n      swap2\n      pop\n      pop\n      0x01\n      swap1\n      sub\n      swap1\n      0x00\n      mstore\n      keccak256(0x00, 0x20)\n      add\n      0x00\n      swap1\n      swap2\n      swap1\n      swap2\n      swap1\n      swap2\n      pop\n      swap1\n      dup2\n      tag_145\n      swap2\n      swap1\n      tag_146\n      jump\t// in\n    tag_145:\n      pop\n        /* \"contracts/templates/modular_upgradeable/ModuleManager.sol\":3907:3913  module */\n      dup4\n        /* \"contracts/templates/modular_upgradeable/ModuleManager.sol\":3893:3930  ModuleAquired(module, implementation) */\n      mload(0x40)\n      tag_147\n      swap2\n      swap1\n      tag_91\n      jump\t// in\n    tag_147:\n      mload(0x40)\n      dup1\n      swap2\n      sub\n      swap1\n      keccak256\n      0x4eff43c6bb175fbf2b5c22be9f2c9fa7a8f90fef6e42a20a6f45a766c8221365\n        /* \"contracts/templates/modular_upgradeable/ModuleManager.sol\":3915:3929  implementation */\n      dup5\n        /* \"contracts/templates/modular_upgradeable/ModuleManager.sol\":3893:3930  ModuleAquired(module, implementation) */\n      mload(0x40)\n      tag_148\n      swap2\n      swap1\n      tag_42\n      jump\t// in\n    tag_148:\n      mload(0x40)\n      dup1\n      swap2\n      sub\n      swap1\n      log2\n        /* \"contracts/templates/modular_upgradeable/ModuleManager.sol\":3947:3951  true */\n      0x01\n        /* \"contracts/templates/modular_upgradeable/ModuleManager.sol\":3940:3951  return true */\n      swap2\n      pop\n        /* \"contracts/deps/openzeppelin/access/Ownable.sol\":1138:1139  _ */\n      pop\n        /* \"contracts/templates/modular_upgradeable/ModuleManager.sol\":3584:3958  function _aquire(string memory module, address implementation)... */\n      swap3\n      swap2\n      pop\n      pop\n      jump\t// out\n        /* \"contracts/deps/openzeppelin/access/Ownable.sol\":1380:1510  function _checkOwner() internal view virtual {... */\n    tag_76:\n        /* \"contracts/deps/openzeppelin/access/Ownable.sol\":1454:1466  _msgSender() */\n      tag_150\n        /* \"contracts/deps/openzeppelin/access/Ownable.sol\":1454:1464  _msgSender */\n      tag_151\n        /* \"contracts/deps/openzeppelin/access/Ownable.sol\":1454:1466  _msgSender() */\n      jump\t// in\n    tag_150:\n        /* \"contracts/deps/openzeppelin/access/Ownable.sol\":1443:1466  owner() == _msgSender() */\n      0xffffffffffffffffffffffffffffffffffffffff\n      and\n        /* \"contracts/deps/openzeppelin/access/Ownable.sol\":1443:1450  owner() */\n      tag_152\n        /* \"contracts/deps/openzeppelin/access/Ownable.sol\":1443:1448  owner */\n      tag_40\n        /* \"contracts/deps/openzeppelin/access/Ownable.sol\":1443:1450  owner() */\n      jump\t// in\n    tag_152:\n        /* \"contracts/deps/openzeppelin/access/Ownable.sol\":1443:1466  owner() == _msgSender() */\n      0xffffffffffffffffffffffffffffffffffffffff\n      and\n      eq\n        /* \"contracts/deps/openzeppelin/access/Ownable.sol\":1435:1503  require(owner() == _msgSender(), \"Ownable: caller is not the owner\") */\n      tag_153\n      jumpi\n      mload(0x40)\n      0x08c379a000000000000000000000000000000000000000000000000000000000\n      dup2\n      mstore\n      0x04\n      add\n      tag_154\n      swap1\n      tag_155\n      jump\t// in\n    tag_154:\n      mload(0x40)\n      dup1\n      swap2\n      sub\n      swap1\n      revert\n    tag_153:\n        /* \"contracts/deps/openzeppelin/access/Ownable.sol\":1380:1510  function _checkOwner() internal view virtual {... */\n      jump\t// out\n        /* \"contracts/deps/openzeppelin/access/Ownable.sol\":2447:2634  function _transferOwnership(address newOwner) internal virtual {... */\n    tag_79:\n        /* \"contracts/deps/openzeppelin/access/Ownable.sol\":2520:2536  address oldOwner */\n      0x00\n        /* \"contracts/deps/openzeppelin/access/Ownable.sol\":2539:2545  _owner */\n      dup1\n      0x00\n      swap1\n      sload\n      swap1\n      0x0100\n      exp\n      swap1\n      div\n      0xffffffffffffffffffffffffffffffffffffffff\n      and\n        /* \"contracts/deps/openzeppelin/access/Ownable.sol\":2520:2545  address oldOwner = _owner */\n      swap1\n      pop\n        /* \"contracts/deps/openzeppelin/access/Ownable.sol\":2564:2572  newOwner */\n      dup2\n        /* \"contracts/deps/openzeppelin/access/Ownable.sol\":2555:2561  _owner */\n      0x00\n      dup1\n        /* \"contracts/deps/openzeppelin/access/Ownable.sol\":2555:2572  _owner = newOwner */\n      0x0100\n      exp\n      dup2\n      sload\n      dup2\n      0xffffffffffffffffffffffffffffffffffffffff\n      mul\n      not\n      and\n      swap1\n      dup4\n      0xffffffffffffffffffffffffffffffffffffffff\n      and\n      mul\n      or\n      swap1\n      sstore\n      pop\n        /* \"contracts/deps/openzeppelin/access/Ownable.sol\":2618:2626  newOwner */\n      dup2\n        /* \"contracts/deps/openzeppelin/access/Ownable.sol\":2587:2627  OwnershipTransferred(oldOwner, newOwner) */\n      0xffffffffffffffffffffffffffffffffffffffff\n      and\n        /* \"contracts/deps/openzeppelin/access/Ownable.sol\":2608:2616  oldOwner */\n      dup2\n        /* \"contracts/deps/openzeppelin/access/Ownable.sol\":2587:2627  OwnershipTransferred(oldOwner, newOwner) */\n      0xffffffffffffffffffffffffffffffffffffffff\n      and\n      0x8be0079c531659141344cd1fd0a4f28419497f9722a3daafe3b4186f6b6457e0\n      mload(0x40)\n      mload(0x40)\n      dup1\n      swap2\n      sub\n      swap1\n      log3\n        /* \"contracts/deps/openzeppelin/access/Ownable.sol\":2510:2634  {... */\n      pop\n        /* \"contracts/deps/openzeppelin/access/Ownable.sol\":2447:2634  function _transferOwnership(address newOwner) internal virtual {... */\n      pop\n      jump\t// out\n        /* \"contracts/templates/modular_upgradeable/ModuleManager.sol\":3075:3322  function _getLatestImplementation(string memory module)... */\n    tag_96:\n        /* \"contracts/templates/modular_upgradeable/ModuleManager.sol\":3231:3238  address */\n      0x00\n        /* \"contracts/templates/modular_upgradeable/ModuleManager.sol\":3206:3212  module */\n      dup2\n        /* \"contracts/templates/modular_upgradeable/ModuleManager.sol\":1884:1885  1 */\n      0x01\n        /* \"contracts/templates/modular_upgradeable/ModuleManager.sol\":1847:1880  _implementations[module].length() */\n      tag_158\n        /* \"contracts/templates/modular_upgradeable/ModuleManager.sol\":1847:1863  _implementations */\n      0x03\n        /* \"contracts/templates/modular_upgradeable/ModuleManager.sol\":1864:1870  module */\n      dup4\n        /* \"contracts/templates/modular_upgradeable/ModuleManager.sol\":1847:1871  _implementations[module] */\n      mload(0x40)\n      tag_159\n      swap2\n      swap1\n      tag_91\n      jump\t// in\n    tag_159:\n      swap1\n      dup2\n      mstore\n      0x20\n      add\n      mload(0x40)\n      dup1\n      swap2\n      sub\n      swap1\n      keccak256\n        /* \"contracts/templates/modular_upgradeable/ModuleManager.sol\":1847:1878  _implementations[module].length */\n      tag_121\n        /* \"contracts/templates/modular_upgradeable/ModuleManager.sol\":1847:1880  _implementations[module].length() */\n      jump\t// in\n    tag_158:\n        /* \"contracts/templates/modular_upgradeable/ModuleManager.sol\":1847:1885  _implementations[module].length() >= 1 */\n      lt\n      iszero\n        /* \"contracts/templates/modular_upgradeable/ModuleManager.sol\":1826:1947  require(... */\n      tag_160\n      jumpi\n      mload(0x40)\n      0x08c379a000000000000000000000000000000000000000000000000000000000\n      dup2\n      mstore\n      0x04\n      add\n      tag_161\n      swap1\n      tag_124\n      jump\t// in\n    tag_161:\n      mload(0x40)\n      dup1\n      swap2\n      sub\n      swap1\n      revert\n    tag_160:\n        /* \"contracts/templates/modular_upgradeable/ModuleManager.sol\":3261:3315  _implementations[module].at(_getLatestVersion(module)) */\n      tag_163\n        /* \"contracts/templates/modular_upgradeable/ModuleManager.sol\":3289:3314  _getLatestVersion(module) */\n      tag_164\n        /* \"contracts/templates/modular_upgradeable/ModuleManager.sol\":3307:3313  module */\n      dup5\n        /* \"contracts/templates/modular_upgradeable/ModuleManager.sol\":3289:3306  _getLatestVersion */\n      tag_103\n        /* \"contracts/templates/modular_upgradeable/ModuleManager.sol\":3289:3314  _getLatestVersion(module) */\n      jump\t// in\n    tag_164:\n        /* \"contracts/templates/modular_upgradeable/ModuleManager.sol\":3261:3277  _implementations */\n      0x03\n        /* \"contracts/templates/modular_upgradeable/ModuleManager.sol\":3278:3284  module */\n      dup6\n        /* \"contracts/templates/modular_upgradeable/ModuleManager.sol\":3261:3285  _implementations[module] */\n      mload(0x40)\n      tag_165\n      swap2\n      swap1\n      tag_91\n      jump\t// in\n    tag_165:\n      swap1\n      dup2\n      mstore\n      0x20\n      add\n      mload(0x40)\n      dup1\n      swap2\n      sub\n      swap1\n      keccak256\n        /* \"contracts/templates/modular_upgradeable/ModuleManager.sol\":3261:3288  _implementations[module].at */\n      tag_166\n      swap1\n        /* \"contracts/templates/modular_upgradeable/ModuleManager.sol\":3261:3315  _implementations[module].at(_getLatestVersion(module)) */\n      swap2\n      swap1\n      0xffffffff\n      and\n      jump\t// in\n    tag_163:\n        /* \"contracts/templates/modular_upgradeable/ModuleManager.sol\":3254:3315  return _implementations[module].at(_getLatestVersion(module)) */\n      swap2\n      pop\n        /* \"contracts/templates/modular_upgradeable/ModuleManager.sol\":3075:3322  function _getLatestImplementation(string memory module)... */\n      pop\n      swap2\n      swap1\n      pop\n      jump\t// out\n        /* \"contracts/templates/modular_upgradeable/ModuleManager.sol\":2846:3069  function _getLatestVersion(string memory module)... */\n    tag_103:\n        /* \"contracts/templates/modular_upgradeable/ModuleManager.sol\":2995:3002  uint256 */\n      0x00\n        /* \"contracts/templates/modular_upgradeable/ModuleManager.sol\":2970:2976  module */\n      dup2\n        /* \"contracts/templates/modular_upgradeable/ModuleManager.sol\":1884:1885  1 */\n      0x01\n        /* \"contracts/templates/modular_upgradeable/ModuleManager.sol\":1847:1880  _implementations[module].length() */\n      tag_168\n        /* \"contracts/templates/modular_upgradeable/ModuleManager.sol\":1847:1863  _implementations */\n      0x03\n        /* \"contracts/templates/modular_upgradeable/ModuleManager.sol\":1864:1870  module */\n      dup4\n        /* \"contracts/templates/modular_upgradeable/ModuleManager.sol\":1847:1871  _implementations[module] */\n      mload(0x40)\n      tag_169\n      swap2\n      swap1\n      tag_91\n      jump\t// in\n    tag_169:\n      swap1\n      dup2\n      mstore\n      0x20\n      add\n      mload(0x40)\n      dup1\n      swap2\n      sub\n      swap1\n      keccak256\n        /* \"contracts/templates/modular_upgradeable/ModuleManager.sol\":1847:1878  _implementations[module].length */\n      tag_121\n        /* \"contracts/templates/modular_upgradeable/ModuleManager.sol\":1847:1880  _implementations[module].length() */\n      jump\t// in\n    tag_168:\n        /* \"contracts/templates/modular_upgradeable/ModuleManager.sol\":1847:1885  _implementations[module].length() >= 1 */\n      lt\n      iszero\n        /* \"contracts/templates/modular_upgradeable/ModuleManager.sol\":1826:1947  require(... */\n      tag_170\n      jumpi\n      mload(0x40)\n      0x08c379a000000000000000000000000000000000000000000000000000000000\n      dup2\n      mstore\n      0x04\n      add\n      tag_171\n      swap1\n      tag_124\n      jump\t// in\n    tag_171:\n      mload(0x40)\n      dup1\n      swap2\n      sub\n      swap1\n      revert\n    tag_170:\n        /* \"contracts/templates/modular_upgradeable/ModuleManager.sol\":3061:3062  1 */\n      0x01\n        /* \"contracts/templates/modular_upgradeable/ModuleManager.sol\":3025:3058  _implementations[module].length() */\n      tag_173\n        /* \"contracts/templates/modular_upgradeable/ModuleManager.sol\":3025:3041  _implementations */\n      0x03\n        /* \"contracts/templates/modular_upgradeable/ModuleManager.sol\":3042:3048  module */\n      dup6\n        /* \"contracts/templates/modular_upgradeable/ModuleManager.sol\":3025:3049  _implementations[module] */\n      mload(0x40)\n      tag_174\n      swap2\n      swap1\n      tag_91\n      jump\t// in\n    tag_174:\n      swap1\n      dup2\n      mstore\n      0x20\n      add\n      mload(0x40)\n      dup1\n      swap2\n      sub\n      swap1\n      keccak256\n        /* \"contracts/templates/modular_upgradeable/ModuleManager.sol\":3025:3056  _implementations[module].length */\n      tag_121\n        /* \"contracts/templates/modular_upgradeable/ModuleManager.sol\":3025:3058  _implementations[module].length() */\n      jump\t// in\n    tag_173:\n        /* \"contracts/templates/modular_upgradeable/ModuleManager.sol\":3025:3062  _implementations[module].length() - 1 */\n      tag_175\n      swap2\n      swap1\n      tag_176\n      jump\t// in\n    tag_175:\n        /* \"contracts/templates/modular_upgradeable/ModuleManager.sol\":3018:3062  return _implementations[module].length() - 1 */\n      swap2\n      pop\n        /* \"contracts/templates/modular_upgradeable/ModuleManager.sol\":2846:3069  function _getLatestVersion(string memory module)... */\n      pop\n      swap2\n      swap1\n      pop\n      jump\t// out\n        /* \"contracts/templates/modular_upgradeable/ModuleManager.sol\":3328:3578  function _getImplementation(string memory module, uint256 version)... */\n    tag_108:\n        /* \"contracts/templates/modular_upgradeable/ModuleManager.sol\":3505:3512  address */\n      0x00\n        /* \"contracts/templates/modular_upgradeable/ModuleManager.sol\":3471:3477  module */\n      dup3\n        /* \"contracts/templates/modular_upgradeable/ModuleManager.sol\":3479:3486  version */\n      dup3\n        /* \"contracts/templates/modular_upgradeable/ModuleManager.sol\":2256:2281  _getLatestVersion(module) */\n      tag_178\n        /* \"contracts/templates/modular_upgradeable/ModuleManager.sol\":2274:2280  module */\n      dup3\n        /* \"contracts/templates/modular_upgradeable/ModuleManager.sol\":2256:2273  _getLatestVersion */\n      tag_103\n        /* \"contracts/templates/modular_upgradeable/ModuleManager.sol\":2256:2281  _getLatestVersion(module) */\n      jump\t// in\n    tag_178:\n        /* \"contracts/templates/modular_upgradeable/ModuleManager.sol\":2245:2252  version */\n      dup2\n        /* \"contracts/templates/modular_upgradeable/ModuleManager.sol\":2245:2281  version <= _getLatestVersion(module) */\n      gt\n      iszero\n        /* \"contracts/templates/modular_upgradeable/ModuleManager.sol\":2224:2344  require(... */\n      tag_179\n      jumpi\n      mload(0x40)\n      0x08c379a000000000000000000000000000000000000000000000000000000000\n      dup2\n      mstore\n      0x04\n      add\n      tag_180\n      swap1\n      tag_181\n      jump\t// in\n    tag_180:\n      mload(0x40)\n      dup1\n      swap2\n      sub\n      swap1\n      revert\n    tag_179:\n        /* \"contracts/templates/modular_upgradeable/ModuleManager.sol\":3535:3571  _implementations[module].at(version) */\n      tag_183\n        /* \"contracts/templates/modular_upgradeable/ModuleManager.sol\":3563:3570  version */\n      dup5\n        /* \"contracts/templates/modular_upgradeable/ModuleManager.sol\":3535:3551  _implementations */\n      0x03\n        /* \"contracts/templates/modular_upgradeable/ModuleManager.sol\":3552:3558  module */\n      dup8\n        /* \"contracts/templates/modular_upgradeable/ModuleManager.sol\":3535:3559  _implementations[module] */\n      mload(0x40)\n      tag_184\n      swap2\n      swap1\n      tag_91\n      jump\t// in\n    tag_184:\n      swap1\n      dup2\n      mstore\n      0x20\n      add\n      mload(0x40)\n      dup1\n      swap2\n      sub\n      swap1\n      keccak256\n        /* \"contracts/templates/modular_upgradeable/ModuleManager.sol\":3535:3562  _implementations[module].at */\n      tag_166\n      swap1\n        /* \"contracts/templates/modular_upgradeable/ModuleManager.sol\":3535:3571  _implementations[module].at(version) */\n      swap2\n      swap1\n      0xffffffff\n      and\n      jump\t// in\n    tag_183:\n        /* \"contracts/templates/modular_upgradeable/ModuleManager.sol\":3528:3571  return _implementations[module].at(version) */\n      swap3\n      pop\n        /* \"contracts/templates/modular_upgradeable/ModuleManager.sol\":3328:3578  function _getImplementation(string memory module, uint256 version)... */\n      pop\n      pop\n      swap3\n      swap2\n      pop\n      pop\n      jump\t// out\n        /* \"contracts/deps/openzeppelin/utils/structs/EnumerableSet.sol\":9107:9222  function length(AddressSet storage set) internal view returns (uint256) {... */\n    tag_121:\n        /* \"contracts/deps/openzeppelin/utils/structs/EnumerableSet.sol\":9170:9177  uint256 */\n      0x00\n        /* \"contracts/deps/openzeppelin/utils/structs/EnumerableSet.sol\":9196:9215  _length(set._inner) */\n      tag_186\n        /* \"contracts/deps/openzeppelin/utils/structs/EnumerableSet.sol\":9204:9207  set */\n      dup3\n        /* \"contracts/deps/openzeppelin/utils/structs/EnumerableSet.sol\":9204:9214  set._inner */\n      0x00\n      add\n        /* \"contracts/deps/openzeppelin/utils/structs/EnumerableSet.sol\":9196:9203  _length */\n      tag_187\n        /* \"contracts/deps/openzeppelin/utils/structs/EnumerableSet.sol\":9196:9215  _length(set._inner) */\n      jump\t// in\n    tag_186:\n        /* \"contracts/deps/openzeppelin/utils/structs/EnumerableSet.sol\":9189:9215  return _length(set._inner) */\n      swap1\n      pop\n        /* \"contracts/deps/openzeppelin/utils/structs/EnumerableSet.sol\":9107:9222  function length(AddressSet storage set) internal view returns (uint256) {... */\n      swap2\n      swap1\n      pop\n      jump\t// out\n        /* \"contracts/deps/openzeppelin/utils/structs/EnumerableSet.sol\":8306:8456  function add(AddressSet storage set, address value) internal returns (bool) {... */\n    tag_128:\n        /* \"contracts/deps/openzeppelin/utils/structs/EnumerableSet.sol\":8376:8380  bool */\n      0x00\n        /* \"contracts/deps/openzeppelin/utils/structs/EnumerableSet.sol\":8399:8449  _add(set._inner, bytes32(uint256(uint160(value)))) */\n      tag_189\n        /* \"contracts/deps/openzeppelin/utils/structs/EnumerableSet.sol\":8404:8407  set */\n      dup4\n        /* \"contracts/deps/openzeppelin/utils/structs/EnumerableSet.sol\":8404:8414  set._inner */\n      0x00\n      add\n        /* \"contracts/deps/openzeppelin/utils/structs/EnumerableSet.sol\":8440:8445  value */\n      dup4\n        /* \"contracts/deps/openzeppelin/utils/structs/EnumerableSet.sol\":8424:8447  uint256(uint160(value)) */\n      0xffffffffffffffffffffffffffffffffffffffff\n      and\n        /* \"contracts/deps/openzeppelin/utils/structs/EnumerableSet.sol\":8416:8448  bytes32(uint256(uint160(value))) */\n      0x00\n      shl\n        /* \"contracts/deps/openzeppelin/utils/structs/EnumerableSet.sol\":8399:8403  _add */\n      tag_190\n        /* \"contracts/deps/openzeppelin/utils/structs/EnumerableSet.sol\":8399:8449  _add(set._inner, bytes32(uint256(uint160(value)))) */\n      jump\t// in\n    tag_189:\n        /* \"contracts/deps/openzeppelin/utils/structs/EnumerableSet.sol\":8392:8449  return _add(set._inner, bytes32(uint256(uint160(value)))) */\n      swap1\n      pop\n        /* \"contracts/deps/openzeppelin/utils/structs/EnumerableSet.sol\":8306:8456  function add(AddressSet storage set, address value) internal returns (bool) {... */\n      swap3\n      swap2\n      pop\n      pop\n      jump\t// out\n        /* \"contracts/deps/openzeppelin/utils/Context.sol\":641:737  function _msgSender() internal view virtual returns (address) {... */\n    tag_151:\n        /* \"contracts/deps/openzeppelin/utils/Context.sol\":694:701  address */\n      0x00\n        /* \"contracts/deps/openzeppelin/utils/Context.sol\":720:730  msg.sender */\n      caller\n        /* \"contracts/deps/openzeppelin/utils/Context.sol\":713:730  return msg.sender */\n      swap1\n      pop\n        /* \"contracts/deps/openzeppelin/utils/Context.sol\":641:737  function _msgSender() internal view virtual returns (address) {... */\n      swap1\n      jump\t// out\n        /* \"contracts/deps/openzeppelin/utils/structs/EnumerableSet.sol\":9564:9720  function at(AddressSet storage set, uint256 index) internal view returns (address) {... */\n    tag_166:\n        /* \"contracts/deps/openzeppelin/utils/structs/EnumerableSet.sol\":9638:9645  address */\n      0x00\n        /* \"contracts/deps/openzeppelin/utils/structs/EnumerableSet.sol\":9688:9710  _at(set._inner, index) */\n      tag_193\n        /* \"contracts/deps/openzeppelin/utils/structs/EnumerableSet.sol\":9692:9695  set */\n      dup4\n        /* \"contracts/deps/openzeppelin/utils/structs/EnumerableSet.sol\":9692:9702  set._inner */\n      0x00\n      add\n        /* \"contracts/deps/openzeppelin/utils/structs/EnumerableSet.sol\":9704:9709  index */\n      dup4\n        /* \"contracts/deps/openzeppelin/utils/structs/EnumerableSet.sol\":9688:9691  _at */\n      tag_194\n        /* \"contracts/deps/openzeppelin/utils/structs/EnumerableSet.sol\":9688:9710  _at(set._inner, index) */\n      jump\t// in\n    tag_193:\n        /* \"contracts/deps/openzeppelin/utils/structs/EnumerableSet.sol\":9680:9711  uint256(_at(set._inner, index)) */\n      0x00\n      shr\n        /* \"contracts/deps/openzeppelin/utils/structs/EnumerableSet.sol\":9657:9713  return address(uint160(uint256(_at(set._inner, index)))) */\n      swap1\n      pop\n        /* \"contracts/deps/openzeppelin/utils/structs/EnumerableSet.sol\":9564:9720  function at(AddressSet storage set, uint256 index) internal view returns (address) {... */\n      swap3\n      swap2\n      pop\n      pop\n      jump\t// out\n        /* \"contracts/deps/openzeppelin/utils/structs/EnumerableSet.sol\":4464:4571  function _length(Set storage set) private view returns (uint256) {... */\n    tag_187:\n        /* \"contracts/deps/openzeppelin/utils/structs/EnumerableSet.sol\":4520:4527  uint256 */\n      0x00\n        /* \"contracts/deps/openzeppelin/utils/structs/EnumerableSet.sol\":4546:4549  set */\n      dup2\n        /* \"contracts/deps/openzeppelin/utils/structs/EnumerableSet.sol\":4546:4557  set._values */\n      0x00\n      add\n        /* \"contracts/deps/openzeppelin/utils/structs/EnumerableSet.sol\":4546:4564  set._values.length */\n      dup1\n      sload\n      swap1\n      pop\n        /* \"contracts/deps/openzeppelin/utils/structs/EnumerableSet.sol\":4539:4564  return set._values.length */\n      swap1\n      pop\n        /* \"contracts/deps/openzeppelin/utils/structs/EnumerableSet.sol\":4464:4571  function _length(Set storage set) private view returns (uint256) {... */\n      swap2\n      swap1\n      pop\n      jump\t// out\n        /* \"contracts/deps/openzeppelin/utils/structs/EnumerableSet.sol\":2215:2619  function _add(Set storage set, bytes32 value) private returns (bool) {... */\n    tag_190:\n        /* \"contracts/deps/openzeppelin/utils/structs/EnumerableSet.sol\":2278:2282  bool */\n      0x00\n        /* \"contracts/deps/openzeppelin/utils/structs/EnumerableSet.sol\":2299:2320  _contains(set, value) */\n      tag_197\n        /* \"contracts/deps/openzeppelin/utils/structs/EnumerableSet.sol\":2309:2312  set */\n      dup4\n        /* \"contracts/deps/openzeppelin/utils/structs/EnumerableSet.sol\":2314:2319  value */\n      dup4\n        /* \"contracts/deps/openzeppelin/utils/structs/EnumerableSet.sol\":2299:2308  _contains */\n      tag_198\n        /* \"contracts/deps/openzeppelin/utils/structs/EnumerableSet.sol\":2299:2320  _contains(set, value) */\n      jump\t// in\n    tag_197:\n        /* \"contracts/deps/openzeppelin/utils/structs/EnumerableSet.sol\":2294:2613  if (!_contains(set, value)) {... */\n      tag_199\n      jumpi\n        /* \"contracts/deps/openzeppelin/utils/structs/EnumerableSet.sol\":2336:2339  set */\n      dup3\n        /* \"contracts/deps/openzeppelin/utils/structs/EnumerableSet.sol\":2336:2347  set._values */\n      0x00\n      add\n        /* \"contracts/deps/openzeppelin/utils/structs/EnumerableSet.sol\":2353:2358  value */\n      dup3\n        /* \"contracts/deps/openzeppelin/utils/structs/EnumerableSet.sol\":2336:2359  set._values.push(value) */\n      swap1\n      dup1\n      0x01\n      dup2\n      sload\n      add\n      dup1\n      dup3\n      sstore\n      dup1\n      swap2\n      pop\n      pop\n      0x01\n      swap1\n      sub\n      swap1\n      0x00\n      mstore\n      keccak256(0x00, 0x20)\n      add\n      0x00\n      swap1\n      swap2\n      swap1\n      swap2\n      swap1\n      swap2\n      pop\n      sstore\n        /* \"contracts/deps/openzeppelin/utils/structs/EnumerableSet.sol\":2516:2519  set */\n      dup3\n        /* \"contracts/deps/openzeppelin/utils/structs/EnumerableSet.sol\":2516:2527  set._values */\n      0x00\n      add\n        /* \"contracts/deps/openzeppelin/utils/structs/EnumerableSet.sol\":2516:2534  set._values.length */\n      dup1\n      sload\n      swap1\n      pop\n        /* \"contracts/deps/openzeppelin/utils/structs/EnumerableSet.sol\":2494:2497  set */\n      dup4\n        /* \"contracts/deps/openzeppelin/utils/structs/EnumerableSet.sol\":2494:2506  set._indexes */\n      0x01\n      add\n        /* \"contracts/deps/openzeppelin/utils/structs/EnumerableSet.sol\":2494:2513  set._indexes[value] */\n      0x00\n        /* \"contracts/deps/openzeppelin/utils/structs/EnumerableSet.sol\":2507:2512  value */\n      dup5\n        /* \"contracts/deps/openzeppelin/utils/structs/EnumerableSet.sol\":2494:2513  set._indexes[value] */\n      dup2\n      mstore\n      0x20\n      add\n      swap1\n      dup2\n      mstore\n      0x20\n      add\n      0x00\n      keccak256\n        /* \"contracts/deps/openzeppelin/utils/structs/EnumerableSet.sol\":2494:2534  set._indexes[value] = set._values.length */\n      dup2\n      swap1\n      sstore\n      pop\n        /* \"contracts/deps/openzeppelin/utils/structs/EnumerableSet.sol\":2555:2559  true */\n      0x01\n        /* \"contracts/deps/openzeppelin/utils/structs/EnumerableSet.sol\":2548:2559  return true */\n      swap1\n      pop\n      jump(tag_196)\n        /* \"contracts/deps/openzeppelin/utils/structs/EnumerableSet.sol\":2294:2613  if (!_contains(set, value)) {... */\n    tag_199:\n        /* \"contracts/deps/openzeppelin/utils/structs/EnumerableSet.sol\":2597:2602  false */\n      0x00\n        /* \"contracts/deps/openzeppelin/utils/structs/EnumerableSet.sol\":2590:2602  return false */\n      swap1\n      pop\n        /* \"contracts/deps/openzeppelin/utils/structs/EnumerableSet.sol\":2215:2619  function _add(Set storage set, bytes32 value) private returns (bool) {... */\n    tag_196:\n      swap3\n      swap2\n      pop\n      pop\n      jump\t// out\n        /* \"contracts/deps/openzeppelin/utils/structs/EnumerableSet.sol\":4913:5031  function _at(Set storage set, uint256 index) private view returns (bytes32) {... */\n    tag_194:\n        /* \"contracts/deps/openzeppelin/utils/structs/EnumerableSet.sol\":4980:4987  bytes32 */\n      0x00\n        /* \"contracts/deps/openzeppelin/utils/structs/EnumerableSet.sol\":5006:5009  set */\n      dup3\n        /* \"contracts/deps/openzeppelin/utils/structs/EnumerableSet.sol\":5006:5017  set._values */\n      0x00\n      add\n        /* \"contracts/deps/openzeppelin/utils/structs/EnumerableSet.sol\":5018:5023  index */\n      dup3\n        /* \"contracts/deps/openzeppelin/utils/structs/EnumerableSet.sol\":5006:5024  set._values[index] */\n      dup2\n      sload\n      dup2\n      lt\n      tag_203\n      jumpi\n      tag_204\n      tag_205\n      jump\t// in\n    tag_204:\n    tag_203:\n      swap1\n      0x00\n      mstore\n      keccak256(0x00, 0x20)\n      add\n      sload\n        /* \"contracts/deps/openzeppelin/utils/structs/EnumerableSet.sol\":4999:5024  return set._values[index] */\n      swap1\n      pop\n        /* \"contracts/deps/openzeppelin/utils/structs/EnumerableSet.sol\":4913:5031  function _at(Set storage set, uint256 index) private view returns (bytes32) {... */\n      swap3\n      swap2\n      pop\n      pop\n      jump\t// out\n        /* \"contracts/deps/openzeppelin/utils/structs/EnumerableSet.sol\":4256:4383  function _contains(Set storage set, bytes32 value) private view returns (bool) {... */\n    tag_198:\n        /* \"contracts/deps/openzeppelin/utils/structs/EnumerableSet.sol\":4329:4333  bool */\n      0x00\n        /* \"contracts/deps/openzeppelin/utils/structs/EnumerableSet.sol\":4375:4376  0 */\n      dup1\n        /* \"contracts/deps/openzeppelin/utils/structs/EnumerableSet.sol\":4352:4355  set */\n      dup4\n        /* \"contracts/deps/openzeppelin/utils/structs/EnumerableSet.sol\":4352:4364  set._indexes */\n      0x01\n      add\n        /* \"contracts/deps/openzeppelin/utils/structs/EnumerableSet.sol\":4352:4371  set._indexes[value] */\n      0x00\n        /* \"contracts/deps/openzeppelin/utils/structs/EnumerableSet.sol\":4365:4370  value */\n      dup5\n        /* \"contracts/deps/openzeppelin/utils/structs/EnumerableSet.sol\":4352:4371  set._indexes[value] */\n      dup2\n      mstore\n      0x20\n      add\n      swap1\n      dup2\n      mstore\n      0x20\n      add\n      0x00\n      keccak256\n      sload\n        /* \"contracts/deps/openzeppelin/utils/structs/EnumerableSet.sol\":4352:4376  set._indexes[value] != 0 */\n      eq\n      iszero\n        /* \"contracts/deps/openzeppelin/utils/structs/EnumerableSet.sol\":4345:4376  return set._indexes[value] != 0 */\n      swap1\n      pop\n        /* \"contracts/deps/openzeppelin/utils/structs/EnumerableSet.sol\":4256:4383  function _contains(Set storage set, bytes32 value) private view returns (bool) {... */\n      swap3\n      swap2\n      pop\n      pop\n      jump\t// out\n        /* \"#utility.yul\":7:82   */\n    tag_208:\n        /* \"#utility.yul\":40:46   */\n      0x00\n        /* \"#utility.yul\":73:75   */\n      0x40\n        /* \"#utility.yul\":67:76   */\n      mload\n        /* \"#utility.yul\":57:76   */\n      swap1\n      pop\n        /* \"#utility.yul\":7:82   */\n      swap1\n      jump\t// out\n        /* \"#utility.yul\":88:205   */\n    tag_209:\n        /* \"#utility.yul\":197:198   */\n      0x00\n        /* \"#utility.yul\":194:195   */\n      dup1\n        /* \"#utility.yul\":187:199   */\n      revert\n        /* \"#utility.yul\":211:328   */\n    tag_210:\n        /* \"#utility.yul\":320:321   */\n      0x00\n        /* \"#utility.yul\":317:318   */\n      dup1\n        /* \"#utility.yul\":310:322   */\n      revert\n        /* \"#utility.yul\":334:451   */\n    tag_211:\n        /* \"#utility.yul\":443:444   */\n      0x00\n        /* \"#utility.yul\":440:441   */\n      dup1\n        /* \"#utility.yul\":433:445   */\n      revert\n        /* \"#utility.yul\":457:574   */\n    tag_212:\n        /* \"#utility.yul\":566:567   */\n      0x00\n        /* \"#utility.yul\":563:564   */\n      dup1\n        /* \"#utility.yul\":556:568   */\n      revert\n        /* \"#utility.yul\":580:682   */\n    tag_213:\n        /* \"#utility.yul\":621:627   */\n      0x00\n        /* \"#utility.yul\":672:674   */\n      0x1f\n        /* \"#utility.yul\":668:675   */\n      not\n        /* \"#utility.yul\":663:665   */\n      0x1f\n        /* \"#utility.yul\":656:661   */\n      dup4\n        /* \"#utility.yul\":652:666   */\n      add\n        /* \"#utility.yul\":648:676   */\n      and\n        /* \"#utility.yul\":638:676   */\n      swap1\n      pop\n        /* \"#utility.yul\":580:682   */\n      swap2\n      swap1\n      pop\n      jump\t// out\n        /* \"#utility.yul\":688:868   */\n    tag_214:\n        /* \"#utility.yul\":736:813   */\n      0x4e487b7100000000000000000000000000000000000000000000000000000000\n        /* \"#utility.yul\":733:734   */\n      0x00\n        /* \"#utility.yul\":726:814   */\n      mstore\n        /* \"#utility.yul\":833:837   */\n      0x41\n        /* \"#utility.yul\":830:831   */\n      0x04\n        /* \"#utility.yul\":823:838   */\n      mstore\n        /* \"#utility.yul\":857:861   */\n      0x24\n        /* \"#utility.yul\":854:855   */\n      0x00\n        /* \"#utility.yul\":847:862   */\n      revert\n        /* \"#utility.yul\":874:1155   */\n    tag_215:\n        /* \"#utility.yul\":957:984   */\n      tag_278\n        /* \"#utility.yul\":979:983   */\n      dup3\n        /* \"#utility.yul\":957:984   */\n      tag_213\n      jump\t// in\n    tag_278:\n        /* \"#utility.yul\":949:955   */\n      dup2\n        /* \"#utility.yul\":945:985   */\n      add\n        /* \"#utility.yul\":1087:1093   */\n      dup2\n        /* \"#utility.yul\":1075:1085   */\n      dup2\n        /* \"#utility.yul\":1072:1094   */\n      lt\n        /* \"#utility.yul\":1051:1069   */\n      0xffffffffffffffff\n        /* \"#utility.yul\":1039:1049   */\n      dup3\n        /* \"#utility.yul\":1036:1070   */\n      gt\n        /* \"#utility.yul\":1033:1095   */\n      or\n        /* \"#utility.yul\":1030:1118   */\n      iszero\n      tag_279\n      jumpi\n        /* \"#utility.yul\":1098:1116   */\n      tag_280\n      tag_214\n      jump\t// in\n    tag_280:\n        /* \"#utility.yul\":1030:1118   */\n    tag_279:\n        /* \"#utility.yul\":1138:1148   */\n      dup1\n        /* \"#utility.yul\":1134:1136   */\n      0x40\n        /* \"#utility.yul\":1127:1149   */\n      mstore\n        /* \"#utility.yul\":917:1155   */\n      pop\n        /* \"#utility.yul\":874:1155   */\n      pop\n      pop\n      jump\t// out\n        /* \"#utility.yul\":1161:1290   */\n    tag_216:\n        /* \"#utility.yul\":1195:1201   */\n      0x00\n        /* \"#utility.yul\":1222:1242   */\n      tag_282\n      tag_208\n      jump\t// in\n    tag_282:\n        /* \"#utility.yul\":1212:1242   */\n      swap1\n      pop\n        /* \"#utility.yul\":1251:1284   */\n      tag_283\n        /* \"#utility.yul\":1279:1283   */\n      dup3\n        /* \"#utility.yul\":1271:1277   */\n      dup3\n        /* \"#utility.yul\":1251:1284   */\n      tag_215\n      jump\t// in\n    tag_283:\n        /* \"#utility.yul\":1161:1290   */\n      swap2\n      swap1\n      pop\n      jump\t// out\n        /* \"#utility.yul\":1296:1604   */\n    tag_217:\n        /* \"#utility.yul\":1358:1362   */\n      0x00\n        /* \"#utility.yul\":1448:1466   */\n      0xffffffffffffffff\n        /* \"#utility.yul\":1440:1446   */\n      dup3\n        /* \"#utility.yul\":1437:1467   */\n      gt\n        /* \"#utility.yul\":1434:1490   */\n      iszero\n      tag_285\n      jumpi\n        /* \"#utility.yul\":1470:1488   */\n      tag_286\n      tag_214\n      jump\t// in\n    tag_286:\n        /* \"#utility.yul\":1434:1490   */\n    tag_285:\n        /* \"#utility.yul\":1508:1537   */\n      tag_287\n        /* \"#utility.yul\":1530:1536   */\n      dup3\n        /* \"#utility.yul\":1508:1537   */\n      tag_213\n      jump\t// in\n    tag_287:\n        /* \"#utility.yul\":1500:1537   */\n      swap1\n      pop\n        /* \"#utility.yul\":1592:1596   */\n      0x20\n        /* \"#utility.yul\":1586:1590   */\n      dup2\n        /* \"#utility.yul\":1582:1597   */\n      add\n        /* \"#utility.yul\":1574:1597   */\n      swap1\n      pop\n        /* \"#utility.yul\":1296:1604   */\n      swap2\n      swap1\n      pop\n      jump\t// out\n        /* \"#utility.yul\":1610:1756   */\n    tag_218:\n        /* \"#utility.yul\":1707:1713   */\n      dup3\n        /* \"#utility.yul\":1702:1705   */\n      dup2\n        /* \"#utility.yul\":1697:1700   */\n      dup4\n        /* \"#utility.yul\":1684:1714   */\n      calldatacopy\n        /* \"#utility.yul\":1748:1749   */\n      0x00\n        /* \"#utility.yul\":1739:1745   */\n      dup4\n        /* \"#utility.yul\":1734:1737   */\n      dup4\n        /* \"#utility.yul\":1730:1746   */\n      add\n        /* \"#utility.yul\":1723:1750   */\n      mstore\n        /* \"#utility.yul\":1610:1756   */\n      pop\n      pop\n      pop\n      jump\t// out\n        /* \"#utility.yul\":1762:2187   */\n    tag_219:\n        /* \"#utility.yul\":1840:1845   */\n      0x00\n        /* \"#utility.yul\":1865:1931   */\n      tag_290\n        /* \"#utility.yul\":1881:1930   */\n      tag_291\n        /* \"#utility.yul\":1923:1929   */\n      dup5\n        /* \"#utility.yul\":1881:1930   */\n      tag_217\n      jump\t// in\n    tag_291:\n        /* \"#utility.yul\":1865:1931   */\n      tag_216\n      jump\t// in\n    tag_290:\n        /* \"#utility.yul\":1856:1931   */\n      swap1\n      pop\n        /* \"#utility.yul\":1954:1960   */\n      dup3\n        /* \"#utility.yul\":1947:1952   */\n      dup2\n        /* \"#utility.yul\":1940:1961   */\n      mstore\n        /* \"#utility.yul\":1992:1996   */\n      0x20\n        /* \"#utility.yul\":1985:1990   */\n      dup2\n        /* \"#utility.yul\":1981:1997   */\n      add\n        /* \"#utility.yul\":2030:2033   */\n      dup5\n        /* \"#utility.yul\":2021:2027   */\n      dup5\n        /* \"#utility.yul\":2016:2019   */\n      dup5\n        /* \"#utility.yul\":2012:2028   */\n      add\n        /* \"#utility.yul\":2009:2034   */\n      gt\n        /* \"#utility.yul\":2006:2118   */\n      iszero\n      tag_292\n      jumpi\n        /* \"#utility.yul\":2037:2116   */\n      tag_293\n      tag_212\n      jump\t// in\n    tag_293:\n        /* \"#utility.yul\":2006:2118   */\n    tag_292:\n        /* \"#utility.yul\":2127:2181   */\n      tag_294\n        /* \"#utility.yul\":2174:2180   */\n      dup5\n        /* \"#utility.yul\":2169:2172   */\n      dup3\n        /* \"#utility.yul\":2164:2167   */\n      dup6\n        /* \"#utility.yul\":2127:2181   */\n      tag_218\n      jump\t// in\n    tag_294:\n        /* \"#utility.yul\":1846:2187   */\n      pop\n        /* \"#utility.yul\":1762:2187   */\n      swap4\n      swap3\n      pop\n      pop\n      pop\n      jump\t// out\n        /* \"#utility.yul\":2207:2547   */\n    tag_220:\n        /* \"#utility.yul\":2263:2268   */\n      0x00\n        /* \"#utility.yul\":2312:2315   */\n      dup3\n        /* \"#utility.yul\":2305:2309   */\n      0x1f\n        /* \"#utility.yul\":2297:2303   */\n      dup4\n        /* \"#utility.yul\":2293:2310   */\n      add\n        /* \"#utility.yul\":2289:2316   */\n      slt\n        /* \"#utility.yul\":2279:2401   */\n      tag_296\n      jumpi\n        /* \"#utility.yul\":2320:2399   */\n      tag_297\n      tag_211\n      jump\t// in\n    tag_297:\n        /* \"#utility.yul\":2279:2401   */\n    tag_296:\n        /* \"#utility.yul\":2437:2443   */\n      dup2\n        /* \"#utility.yul\":2424:2444   */\n      calldataload\n        /* \"#utility.yul\":2462:2541   */\n      tag_298\n        /* \"#utility.yul\":2537:2540   */\n      dup5\n        /* \"#utility.yul\":2529:2535   */\n      dup3\n        /* \"#utility.yul\":2522:2526   */\n      0x20\n        /* \"#utility.yul\":2514:2520   */\n      dup7\n        /* \"#utility.yul\":2510:2527   */\n      add\n        /* \"#utility.yul\":2462:2541   */\n      tag_219\n      jump\t// in\n    tag_298:\n        /* \"#utility.yul\":2453:2541   */\n      swap2\n      pop\n        /* \"#utility.yul\":2269:2547   */\n      pop\n        /* \"#utility.yul\":2207:2547   */\n      swap3\n      swap2\n      pop\n      pop\n      jump\t// out\n        /* \"#utility.yul\":2553:2679   */\n    tag_221:\n        /* \"#utility.yul\":2590:2597   */\n      0x00\n        /* \"#utility.yul\":2630:2672   */\n      0xffffffffffffffffffffffffffffffffffffffff\n        /* \"#utility.yul\":2623:2628   */\n      dup3\n        /* \"#utility.yul\":2619:2673   */\n      and\n        /* \"#utility.yul\":2608:2673   */\n      swap1\n      pop\n        /* \"#utility.yul\":2553:2679   */\n      swap2\n      swap1\n      pop\n      jump\t// out\n        /* \"#utility.yul\":2685:2781   */\n    tag_222:\n        /* \"#utility.yul\":2722:2729   */\n      0x00\n        /* \"#utility.yul\":2751:2775   */\n      tag_301\n        /* \"#utility.yul\":2769:2774   */\n      dup3\n        /* \"#utility.yul\":2751:2775   */\n      tag_221\n      jump\t// in\n    tag_301:\n        /* \"#utility.yul\":2740:2775   */\n      swap1\n      pop\n        /* \"#utility.yul\":2685:2781   */\n      swap2\n      swap1\n      pop\n      jump\t// out\n        /* \"#utility.yul\":2787:2909   */\n    tag_223:\n        /* \"#utility.yul\":2860:2884   */\n      tag_303\n        /* \"#utility.yul\":2878:2883   */\n      dup2\n        /* \"#utility.yul\":2860:2884   */\n      tag_222\n      jump\t// in\n    tag_303:\n        /* \"#utility.yul\":2853:2858   */\n      dup2\n        /* \"#utility.yul\":2850:2885   */\n      eq\n        /* \"#utility.yul\":2840:2903   */\n      tag_304\n      jumpi\n        /* \"#utility.yul\":2899:2900   */\n      0x00\n        /* \"#utility.yul\":2896:2897   */\n      dup1\n        /* \"#utility.yul\":2889:2901   */\n      revert\n        /* \"#utility.yul\":2840:2903   */\n    tag_304:\n        /* \"#utility.yul\":2787:2909   */\n      pop\n      jump\t// out\n        /* \"#utility.yul\":2915:3054   */\n    tag_224:\n        /* \"#utility.yul\":2961:2966   */\n      0x00\n        /* \"#utility.yul\":2999:3005   */\n      dup2\n        /* \"#utility.yul\":2986:3006   */\n      calldataload\n        /* \"#utility.yul\":2977:3006   */\n      swap1\n      pop\n        /* \"#utility.yul\":3015:3048   */\n      tag_306\n        /* \"#utility.yul\":3042:3047   */\n      dup2\n        /* \"#utility.yul\":3015:3048   */\n      tag_223\n      jump\t// in\n    tag_306:\n        /* \"#utility.yul\":2915:3054   */\n      swap3\n      swap2\n      pop\n      pop\n      jump\t// out\n        /* \"#utility.yul\":3060:3714   */\n    tag_18:\n        /* \"#utility.yul\":3138:3144   */\n      0x00\n        /* \"#utility.yul\":3146:3152   */\n      dup1\n        /* \"#utility.yul\":3195:3197   */\n      0x40\n        /* \"#utility.yul\":3183:3192   */\n      dup4\n        /* \"#utility.yul\":3174:3181   */\n      dup6\n        /* \"#utility.yul\":3170:3193   */\n      sub\n        /* \"#utility.yul\":3166:3198   */\n      slt\n        /* \"#utility.yul\":3163:3282   */\n      iszero\n      tag_308\n      jumpi\n        /* \"#utility.yul\":3201:3280   */\n      tag_309\n      tag_209\n      jump\t// in\n    tag_309:\n        /* \"#utility.yul\":3163:3282   */\n    tag_308:\n        /* \"#utility.yul\":3349:3350   */\n      0x00\n        /* \"#utility.yul\":3338:3347   */\n      dup4\n        /* \"#utility.yul\":3334:3351   */\n      add\n        /* \"#utility.yul\":3321:3352   */\n      calldataload\n        /* \"#utility.yul\":3379:3397   */\n      0xffffffffffffffff\n        /* \"#utility.yul\":3371:3377   */\n      dup2\n        /* \"#utility.yul\":3368:3398   */\n      gt\n        /* \"#utility.yul\":3365:3482   */\n      iszero\n      tag_310\n      jumpi\n        /* \"#utility.yul\":3401:3480   */\n      tag_311\n      tag_210\n      jump\t// in\n    tag_311:\n        /* \"#utility.yul\":3365:3482   */\n    tag_310:\n        /* \"#utility.yul\":3506:3569   */\n      tag_312\n        /* \"#utility.yul\":3561:3568   */\n      dup6\n        /* \"#utility.yul\":3552:3558   */\n      dup3\n        /* \"#utility.yul\":3541:3550   */\n      dup7\n        /* \"#utility.yul\":3537:3559   */\n      add\n        /* \"#utility.yul\":3506:3569   */\n      tag_220\n      jump\t// in\n    tag_312:\n        /* \"#utility.yul\":3496:3569   */\n      swap3\n      pop\n        /* \"#utility.yul\":3292:3579   */\n      pop\n        /* \"#utility.yul\":3618:3620   */\n      0x20\n        /* \"#utility.yul\":3644:3697   */\n      tag_313\n        /* \"#utility.yul\":3689:3696   */\n      dup6\n        /* \"#utility.yul\":3680:3686   */\n      dup3\n        /* \"#utility.yul\":3669:3678   */\n      dup7\n        /* \"#utility.yul\":3665:3687   */\n      add\n        /* \"#utility.yul\":3644:3697   */\n      tag_224\n      jump\t// in\n    tag_313:\n        /* \"#utility.yul\":3634:3697   */\n      swap2\n      pop\n        /* \"#utility.yul\":3589:3707   */\n      pop\n        /* \"#utility.yul\":3060:3714   */\n      swap3\n      pop\n      swap3\n      swap1\n      pop\n      jump\t// out\n        /* \"#utility.yul\":3720:3810   */\n    tag_225:\n        /* \"#utility.yul\":3754:3761   */\n      0x00\n        /* \"#utility.yul\":3797:3802   */\n      dup2\n        /* \"#utility.yul\":3790:3803   */\n      iszero\n        /* \"#utility.yul\":3783:3804   */\n      iszero\n        /* \"#utility.yul\":3772:3804   */\n      swap1\n      pop\n        /* \"#utility.yul\":3720:3810   */\n      swap2\n      swap1\n      pop\n      jump\t// out\n        /* \"#utility.yul\":3816:3925   */\n    tag_226:\n        /* \"#utility.yul\":3897:3918   */\n      tag_316\n        /* \"#utility.yul\":3912:3917   */\n      dup2\n        /* \"#utility.yul\":3897:3918   */\n      tag_225\n      jump\t// in\n    tag_316:\n        /* \"#utility.yul\":3892:3895   */\n      dup3\n        /* \"#utility.yul\":3885:3919   */\n      mstore\n        /* \"#utility.yul\":3816:3925   */\n      pop\n      pop\n      jump\t// out\n        /* \"#utility.yul\":3931:4141   */\n    tag_21:\n        /* \"#utility.yul\":4018:4022   */\n      0x00\n        /* \"#utility.yul\":4056:4058   */\n      0x20\n        /* \"#utility.yul\":4045:4054   */\n      dup3\n        /* \"#utility.yul\":4041:4059   */\n      add\n        /* \"#utility.yul\":4033:4059   */\n      swap1\n      pop\n        /* \"#utility.yul\":4069:4134   */\n      tag_318\n        /* \"#utility.yul\":4131:4132   */\n      0x00\n        /* \"#utility.yul\":4120:4129   */\n      dup4\n        /* \"#utility.yul\":4116:4133   */\n      add\n        /* \"#utility.yul\":4107:4113   */\n      dup5\n        /* \"#utility.yul\":4069:4134   */\n      tag_226\n      jump\t// in\n    tag_318:\n        /* \"#utility.yul\":3931:4141   */\n      swap3\n      swap2\n      pop\n      pop\n      jump\t// out\n        /* \"#utility.yul\":4147:4656   */\n    tag_30:\n        /* \"#utility.yul\":4216:4222   */\n      0x00\n        /* \"#utility.yul\":4265:4267   */\n      0x20\n        /* \"#utility.yul\":4253:4262   */\n      dup3\n        /* \"#utility.yul\":4244:4251   */\n      dup5\n        /* \"#utility.yul\":4240:4263   */\n      sub\n        /* \"#utility.yul\":4236:4268   */\n      slt\n        /* \"#utility.yul\":4233:4352   */\n      iszero\n      tag_320\n      jumpi\n        /* \"#utility.yul\":4271:4350   */\n      tag_321\n      tag_209\n      jump\t// in\n    tag_321:\n        /* \"#utility.yul\":4233:4352   */\n    tag_320:\n        /* \"#utility.yul\":4419:4420   */\n      0x00\n        /* \"#utility.yul\":4408:4417   */\n      dup3\n        /* \"#utility.yul\":4404:4421   */\n      add\n        /* \"#utility.yul\":4391:4422   */\n      calldataload\n        /* \"#utility.yul\":4449:4467   */\n      0xffffffffffffffff\n        /* \"#utility.yul\":4441:4447   */\n      dup2\n        /* \"#utility.yul\":4438:4468   */\n      gt\n        /* \"#utility.yul\":4435:4552   */\n      iszero\n      tag_322\n      jumpi\n        /* \"#utility.yul\":4471:4550   */\n      tag_323\n      tag_210\n      jump\t// in\n    tag_323:\n        /* \"#utility.yul\":4435:4552   */\n    tag_322:\n        /* \"#utility.yul\":4576:4639   */\n      tag_324\n        /* \"#utility.yul\":4631:4638   */\n      dup5\n        /* \"#utility.yul\":4622:4628   */\n      dup3\n        /* \"#utility.yul\":4611:4620   */\n      dup6\n        /* \"#utility.yul\":4607:4629   */\n      add\n        /* \"#utility.yul\":4576:4639   */\n      tag_220\n      jump\t// in\n    tag_324:\n        /* \"#utility.yul\":4566:4639   */\n      swap2\n      pop\n        /* \"#utility.yul\":4362:4649   */\n      pop\n        /* \"#utility.yul\":4147:4656   */\n      swap3\n      swap2\n      pop\n      pop\n      jump\t// out\n        /* \"#utility.yul\":4662:4739   */\n    tag_227:\n        /* \"#utility.yul\":4699:4706   */\n      0x00\n        /* \"#utility.yul\":4728:4733   */\n      dup2\n        /* \"#utility.yul\":4717:4733   */\n      swap1\n      pop\n        /* \"#utility.yul\":4662:4739   */\n      swap2\n      swap1\n      pop\n      jump\t// out\n        /* \"#utility.yul\":4745:4867   */\n    tag_228:\n        /* \"#utility.yul\":4818:4842   */\n      tag_327\n        /* \"#utility.yul\":4836:4841   */\n      dup2\n        /* \"#utility.yul\":4818:4842   */\n      tag_227\n      jump\t// in\n    tag_327:\n        /* \"#utility.yul\":4811:4816   */\n      dup2\n        /* \"#utility.yul\":4808:4843   */\n      eq\n        /* \"#utility.yul\":4798:4861   */\n      tag_328\n      jumpi\n        /* \"#utility.yul\":4857:4858   */\n      0x00\n        /* \"#utility.yul\":4854:4855   */\n      dup1\n        /* \"#utility.yul\":4847:4859   */\n      revert\n        /* \"#utility.yul\":4798:4861   */\n    tag_328:\n        /* \"#utility.yul\":4745:4867   */\n      pop\n      jump\t// out\n        /* \"#utility.yul\":4873:5012   */\n    tag_229:\n        /* \"#utility.yul\":4919:4924   */\n      0x00\n        /* \"#utility.yul\":4957:4963   */\n      dup2\n        /* \"#utility.yul\":4944:4964   */\n      calldataload\n        /* \"#utility.yul\":4935:4964   */\n      swap1\n      pop\n        /* \"#utility.yul\":4973:5006   */\n      tag_330\n        /* \"#utility.yul\":5000:5005   */\n      dup2\n        /* \"#utility.yul\":4973:5006   */\n      tag_228\n      jump\t// in\n    tag_330:\n        /* \"#utility.yul\":4873:5012   */\n      swap3\n      swap2\n      pop\n      pop\n      jump\t// out\n        /* \"#utility.yul\":5018:5347   */\n    tag_35:\n        /* \"#utility.yul\":5077:5083   */\n      0x00\n        /* \"#utility.yul\":5126:5128   */\n      0x20\n        /* \"#utility.yul\":5114:5123   */\n      dup3\n        /* \"#utility.yul\":5105:5112   */\n      dup5\n        /* \"#utility.yul\":5101:5124   */\n      sub\n        /* \"#utility.yul\":5097:5129   */\n      slt\n        /* \"#utility.yul\":5094:5213   */\n      iszero\n      tag_332\n      jumpi\n        /* \"#utility.yul\":5132:5211   */\n      tag_333\n      tag_209\n      jump\t// in\n    tag_333:\n        /* \"#utility.yul\":5094:5213   */\n    tag_332:\n        /* \"#utility.yul\":5252:5253   */\n      0x00\n        /* \"#utility.yul\":5277:5330   */\n      tag_334\n        /* \"#utility.yul\":5322:5329   */\n      dup5\n        /* \"#utility.yul\":5313:5319   */\n      dup3\n        /* \"#utility.yul\":5302:5311   */\n      dup6\n        /* \"#utility.yul\":5298:5320   */\n      add\n        /* \"#utility.yul\":5277:5330   */\n      tag_229\n      jump\t// in\n    tag_334:\n        /* \"#utility.yul\":5267:5330   */\n      swap2\n      pop\n        /* \"#utility.yul\":5223:5340   */\n      pop\n        /* \"#utility.yul\":5018:5347   */\n      swap3\n      swap2\n      pop\n      pop\n      jump\t// out\n        /* \"#utility.yul\":5353:5452   */\n    tag_230:\n        /* \"#utility.yul\":5405:5411   */\n      0x00\n        /* \"#utility.yul\":5439:5444   */\n      dup2\n        /* \"#utility.yul\":5433:5445   */\n      mload\n        /* \"#utility.yul\":5423:5445   */\n      swap1\n      pop\n        /* \"#utility.yul\":5353:5452   */\n      swap2\n      swap1\n      pop\n      jump\t// out\n        /* \"#utility.yul\":5458:5627   */\n    tag_231:\n        /* \"#utility.yul\":5542:5553   */\n      0x00\n        /* \"#utility.yul\":5576:5582   */\n      dup3\n        /* \"#utility.yul\":5571:5574   */\n      dup3\n        /* \"#utility.yul\":5564:5583   */\n      mstore\n        /* \"#utility.yul\":5616:5620   */\n      0x20\n        /* \"#utility.yul\":5611:5614   */\n      dup3\n        /* \"#utility.yul\":5607:5621   */\n      add\n        /* \"#utility.yul\":5592:5621   */\n      swap1\n      pop\n        /* \"#utility.yul\":5458:5627   */\n      swap3\n      swap2\n      pop\n      pop\n      jump\t// out\n        /* \"#utility.yul\":5633:5879   */\n    tag_232:\n        /* \"#utility.yul\":5714:5715   */\n      0x00\n        /* \"#utility.yul\":5724:5837   */\n    tag_338:\n        /* \"#utility.yul\":5738:5744   */\n      dup4\n        /* \"#utility.yul\":5735:5736   */\n      dup2\n        /* \"#utility.yul\":5732:5745   */\n      lt\n        /* \"#utility.yul\":5724:5837   */\n      iszero\n      tag_340\n      jumpi\n        /* \"#utility.yul\":5823:5824   */\n      dup1\n        /* \"#utility.yul\":5818:5821   */\n      dup3\n        /* \"#utility.yul\":5814:5825   */\n      add\n        /* \"#utility.yul\":5808:5826   */\n      mload\n        /* \"#utility.yul\":5804:5805   */\n      dup2\n        /* \"#utility.yul\":5799:5802   */\n      dup5\n        /* \"#utility.yul\":5795:5806   */\n      add\n        /* \"#utility.yul\":5788:5827   */\n      mstore\n        /* \"#utility.yul\":5760:5762   */\n      0x20\n        /* \"#utility.yul\":5757:5758   */\n      dup2\n        /* \"#utility.yul\":5753:5763   */\n      add\n        /* \"#utility.yul\":5748:5763   */\n      swap1\n      pop\n        /* \"#utility.yul\":5724:5837   */\n      jump(tag_338)\n    tag_340:\n        /* \"#utility.yul\":5871:5872   */\n      0x00\n        /* \"#utility.yul\":5862:5868   */\n      dup5\n        /* \"#utility.yul\":5857:5860   */\n      dup5\n        /* \"#utility.yul\":5853:5869   */\n      add\n        /* \"#utility.yul\":5846:5873   */\n      mstore\n        /* \"#utility.yul\":5695:5879   */\n      pop\n        /* \"#utility.yul\":5633:5879   */\n      pop\n      pop\n      pop\n      jump\t// out\n        /* \"#utility.yul\":5885:6262   */\n    tag_233:\n        /* \"#utility.yul\":5973:5976   */\n      0x00\n        /* \"#utility.yul\":6001:6040   */\n      tag_342\n        /* \"#utility.yul\":6034:6039   */\n      dup3\n        /* \"#utility.yul\":6001:6040   */\n      tag_230\n      jump\t// in\n    tag_342:\n        /* \"#utility.yul\":6056:6127   */\n      tag_343\n        /* \"#utility.yul\":6120:6126   */\n      dup2\n        /* \"#utility.yul\":6115:6118   */\n      dup6\n        /* \"#utility.yul\":6056:6127   */\n      tag_231\n      jump\t// in\n    tag_343:\n        /* \"#utility.yul\":6049:6127   */\n      swap4\n      pop\n        /* \"#utility.yul\":6136:6201   */\n      tag_344\n        /* \"#utility.yul\":6194:6200   */\n      dup2\n        /* \"#utility.yul\":6189:6192   */\n      dup6\n        /* \"#utility.yul\":6182:6186   */\n      0x20\n        /* \"#utility.yul\":6175:6180   */\n      dup7\n        /* \"#utility.yul\":6171:6187   */\n      add\n        /* \"#utility.yul\":6136:6201   */\n      tag_232\n      jump\t// in\n    tag_344:\n        /* \"#utility.yul\":6226:6255   */\n      tag_345\n        /* \"#utility.yul\":6248:6254   */\n      dup2\n        /* \"#utility.yul\":6226:6255   */\n      tag_213\n      jump\t// in\n    tag_345:\n        /* \"#utility.yul\":6221:6224   */\n      dup5\n        /* \"#utility.yul\":6217:6256   */\n      add\n        /* \"#utility.yul\":6210:6256   */\n      swap2\n      pop\n        /* \"#utility.yul\":5977:6262   */\n      pop\n        /* \"#utility.yul\":5885:6262   */\n      swap3\n      swap2\n      pop\n      pop\n      jump\t// out\n        /* \"#utility.yul\":6268:6581   */\n    tag_38:\n        /* \"#utility.yul\":6381:6385   */\n      0x00\n        /* \"#utility.yul\":6419:6421   */\n      0x20\n        /* \"#utility.yul\":6408:6417   */\n      dup3\n        /* \"#utility.yul\":6404:6422   */\n      add\n        /* \"#utility.yul\":6396:6422   */\n      swap1\n      pop\n        /* \"#utility.yul\":6468:6477   */\n      dup2\n        /* \"#utility.yul\":6462:6466   */\n      dup2\n        /* \"#utility.yul\":6458:6478   */\n      sub\n        /* \"#utility.yul\":6454:6455   */\n      0x00\n        /* \"#utility.yul\":6443:6452   */\n      dup4\n        /* \"#utility.yul\":6439:6456   */\n      add\n        /* \"#utility.yul\":6432:6479   */\n      mstore\n        /* \"#utility.yul\":6496:6574   */\n      tag_347\n        /* \"#utility.yul\":6569:6573   */\n      dup2\n        /* \"#utility.yul\":6560:6566   */\n      dup5\n        /* \"#utility.yul\":6496:6574   */\n      tag_233\n      jump\t// in\n    tag_347:\n        /* \"#utility.yul\":6488:6574   */\n      swap1\n      pop\n        /* \"#utility.yul\":6268:6581   */\n      swap3\n      swap2\n      pop\n      pop\n      jump\t// out\n        /* \"#utility.yul\":6587:6705   */\n    tag_234:\n        /* \"#utility.yul\":6674:6698   */\n      tag_349\n        /* \"#utility.yul\":6692:6697   */\n      dup2\n        /* \"#utility.yul\":6674:6698   */\n      tag_222\n      jump\t// in\n    tag_349:\n        /* \"#utility.yul\":6669:6672   */\n      dup3\n        /* \"#utility.yul\":6662:6699   */\n      mstore\n        /* \"#utility.yul\":6587:6705   */\n      pop\n      pop\n      jump\t// out\n        /* \"#utility.yul\":6711:6933   */\n    tag_42:\n        /* \"#utility.yul\":6804:6808   */\n      0x00\n        /* \"#utility.yul\":6842:6844   */\n      0x20\n        /* \"#utility.yul\":6831:6840   */\n      dup3\n        /* \"#utility.yul\":6827:6845   */\n      add\n        /* \"#utility.yul\":6819:6845   */\n      swap1\n      pop\n        /* \"#utility.yul\":6855:6926   */\n      tag_351\n        /* \"#utility.yul\":6923:6924   */\n      0x00\n        /* \"#utility.yul\":6912:6921   */\n      dup4\n        /* \"#utility.yul\":6908:6925   */\n      add\n        /* \"#utility.yul\":6899:6905   */\n      dup5\n        /* \"#utility.yul\":6855:6926   */\n      tag_234\n      jump\t// in\n    tag_351:\n        /* \"#utility.yul\":6711:6933   */\n      swap3\n      swap2\n      pop\n      pop\n      jump\t// out\n        /* \"#utility.yul\":6939:7057   */\n    tag_235:\n        /* \"#utility.yul\":7026:7050   */\n      tag_353\n        /* \"#utility.yul\":7044:7049   */\n      dup2\n        /* \"#utility.yul\":7026:7050   */\n      tag_227\n      jump\t// in\n    tag_353:\n        /* \"#utility.yul\":7021:7024   */\n      dup3\n        /* \"#utility.yul\":7014:7051   */\n      mstore\n        /* \"#utility.yul\":6939:7057   */\n      pop\n      pop\n      jump\t// out\n        /* \"#utility.yul\":7063:7285   */\n    tag_51:\n        /* \"#utility.yul\":7156:7160   */\n      0x00\n        /* \"#utility.yul\":7194:7196   */\n      0x20\n        /* \"#utility.yul\":7183:7192   */\n      dup3\n        /* \"#utility.yul\":7179:7197   */\n      add\n        /* \"#utility.yul\":7171:7197   */\n      swap1\n      pop\n        /* \"#utility.yul\":7207:7278   */\n      tag_355\n        /* \"#utility.yul\":7275:7276   */\n      0x00\n        /* \"#utility.yul\":7264:7273   */\n      dup4\n        /* \"#utility.yul\":7260:7277   */\n      add\n        /* \"#utility.yul\":7251:7257   */\n      dup5\n        /* \"#utility.yul\":7207:7278   */\n      tag_235\n      jump\t// in\n    tag_355:\n        /* \"#utility.yul\":7063:7285   */\n      swap3\n      swap2\n      pop\n      pop\n      jump\t// out\n        /* \"#utility.yul\":7291:7945   */\n    tag_58:\n        /* \"#utility.yul\":7369:7375   */\n      0x00\n        /* \"#utility.yul\":7377:7383   */\n      dup1\n        /* \"#utility.yul\":7426:7428   */\n      0x40\n        /* \"#utility.yul\":7414:7423   */\n      dup4\n        /* \"#utility.yul\":7405:7412   */\n      dup6\n        /* \"#utility.yul\":7401:7424   */\n      sub\n        /* \"#utility.yul\":7397:7429   */\n      slt\n        /* \"#utility.yul\":7394:7513   */\n      iszero\n      tag_357\n      jumpi\n        /* \"#utility.yul\":7432:7511   */\n      tag_358\n      tag_209\n      jump\t// in\n    tag_358:\n        /* \"#utility.yul\":7394:7513   */\n    tag_357:\n        /* \"#utility.yul\":7580:7581   */\n      0x00\n        /* \"#utility.yul\":7569:7578   */\n      dup4\n        /* \"#utility.yul\":7565:7582   */\n      add\n        /* \"#utility.yul\":7552:7583   */\n      calldataload\n        /* \"#utility.yul\":7610:7628   */\n      0xffffffffffffffff\n        /* \"#utility.yul\":7602:7608   */\n      dup2\n        /* \"#utility.yul\":7599:7629   */\n      gt\n        /* \"#utility.yul\":7596:7713   */\n      iszero\n      tag_359\n      jumpi\n        /* \"#utility.yul\":7632:7711   */\n      tag_360\n      tag_210\n      jump\t// in\n    tag_360:\n        /* \"#utility.yul\":7596:7713   */\n    tag_359:\n        /* \"#utility.yul\":7737:7800   */\n      tag_361\n        /* \"#utility.yul\":7792:7799   */\n      dup6\n        /* \"#utility.yul\":7783:7789   */\n      dup3\n        /* \"#utility.yul\":7772:7781   */\n      dup7\n        /* \"#utility.yul\":7768:7790   */\n      add\n        /* \"#utility.yul\":7737:7800   */\n      tag_220\n      jump\t// in\n    tag_361:\n        /* \"#utility.yul\":7727:7800   */\n      swap3\n      pop\n        /* \"#utility.yul\":7523:7810   */\n      pop\n        /* \"#utility.yul\":7849:7851   */\n      0x20\n        /* \"#utility.yul\":7875:7928   */\n      tag_362\n        /* \"#utility.yul\":7920:7927   */\n      dup6\n        /* \"#utility.yul\":7911:7917   */\n      dup3\n        /* \"#utility.yul\":7900:7909   */\n      dup7\n        /* \"#utility.yul\":7896:7918   */\n      add\n        /* \"#utility.yul\":7875:7928   */\n      tag_229\n      jump\t// in\n    tag_362:\n        /* \"#utility.yul\":7865:7928   */\n      swap2\n      pop\n        /* \"#utility.yul\":7820:7938   */\n      pop\n        /* \"#utility.yul\":7291:7945   */\n      swap3\n      pop\n      swap3\n      swap1\n      pop\n      jump\t// out\n        /* \"#utility.yul\":7951:8280   */\n    tag_63:\n        /* \"#utility.yul\":8010:8016   */\n      0x00\n        /* \"#utility.yul\":8059:8061   */\n      0x20\n        /* \"#utility.yul\":8047:8056   */\n      dup3\n        /* \"#utility.yul\":8038:8045   */\n      dup5\n        /* \"#utility.yul\":8034:8057   */\n      sub\n        /* \"#utility.yul\":8030:8062   */\n      slt\n        /* \"#utility.yul\":8027:8146   */\n      iszero\n      tag_364\n      jumpi\n        /* \"#utility.yul\":8065:8144   */\n      tag_365\n      tag_209\n      jump\t// in\n    tag_365:\n        /* \"#utility.yul\":8027:8146   */\n    tag_364:\n        /* \"#utility.yul\":8185:8186   */\n      0x00\n        /* \"#utility.yul\":8210:8263   */\n      tag_366\n        /* \"#utility.yul\":8255:8262   */\n      dup5\n        /* \"#utility.yul\":8246:8252   */\n      dup3\n        /* \"#utility.yul\":8235:8244   */\n      dup6\n        /* \"#utility.yul\":8231:8253   */\n      add\n        /* \"#utility.yul\":8210:8263   */\n      tag_224\n      jump\t// in\n    tag_366:\n        /* \"#utility.yul\":8200:8263   */\n      swap2\n      pop\n        /* \"#utility.yul\":8156:8273   */\n      pop\n        /* \"#utility.yul\":7951:8280   */\n      swap3\n      swap2\n      pop\n      pop\n      jump\t// out\n        /* \"#utility.yul\":8286:8466   */\n    tag_236:\n        /* \"#utility.yul\":8334:8411   */\n      0x4e487b7100000000000000000000000000000000000000000000000000000000\n        /* \"#utility.yul\":8331:8332   */\n      0x00\n        /* \"#utility.yul\":8324:8412   */\n      mstore\n        /* \"#utility.yul\":8431:8435   */\n      0x22\n        /* \"#utility.yul\":8428:8429   */\n      0x04\n        /* \"#utility.yul\":8421:8436   */\n      mstore\n        /* \"#utility.yul\":8455:8459   */\n      0x24\n        /* \"#utility.yul\":8452:8453   */\n      0x00\n        /* \"#utility.yul\":8445:8460   */\n      revert\n        /* \"#utility.yul\":8472:8792   */\n    tag_83:\n        /* \"#utility.yul\":8516:8522   */\n      0x00\n        /* \"#utility.yul\":8553:8554   */\n      0x02\n        /* \"#utility.yul\":8547:8551   */\n      dup3\n        /* \"#utility.yul\":8543:8555   */\n      div\n        /* \"#utility.yul\":8533:8555   */\n      swap1\n      pop\n        /* \"#utility.yul\":8600:8601   */\n      0x01\n        /* \"#utility.yul\":8594:8598   */\n      dup3\n        /* \"#utility.yul\":8590:8602   */\n      and\n        /* \"#utility.yul\":8621:8639   */\n      dup1\n        /* \"#utility.yul\":8611:8692   */\n      tag_369\n      jumpi\n        /* \"#utility.yul\":8677:8681   */\n      0x7f\n        /* \"#utility.yul\":8669:8675   */\n      dup3\n        /* \"#utility.yul\":8665:8682   */\n      and\n        /* \"#utility.yul\":8655:8682   */\n      swap2\n      pop\n        /* \"#utility.yul\":8611:8692   */\n    tag_369:\n        /* \"#utility.yul\":8739:8741   */\n      0x20\n        /* \"#utility.yul\":8731:8737   */\n      dup3\n        /* \"#utility.yul\":8728:8742   */\n      lt\n        /* \"#utility.yul\":8708:8726   */\n      dup2\n        /* \"#utility.yul\":8705:8743   */\n      sub\n        /* \"#utility.yul\":8702:8786   */\n      tag_370\n      jumpi\n        /* \"#utility.yul\":8758:8776   */\n      tag_371\n      tag_236\n      jump\t// in\n    tag_371:\n        /* \"#utility.yul\":8702:8786   */\n    tag_370:\n        /* \"#utility.yul\":8523:8792   */\n      pop\n        /* \"#utility.yul\":8472:8792   */\n      swap2\n      swap1\n      pop\n      jump\t// out\n        /* \"#utility.yul\":8798:8946   */\n    tag_237:\n        /* \"#utility.yul\":8900:8911   */\n      0x00\n        /* \"#utility.yul\":8937:8940   */\n      dup2\n        /* \"#utility.yul\":8922:8940   */\n      swap1\n      pop\n        /* \"#utility.yul\":8798:8946   */\n      swap3\n      swap2\n      pop\n      pop\n      jump\t// out\n        /* \"#utility.yul\":8952:9342   */\n    tag_238:\n        /* \"#utility.yul\":9058:9061   */\n      0x00\n        /* \"#utility.yul\":9086:9125   */\n      tag_374\n        /* \"#utility.yul\":9119:9124   */\n      dup3\n        /* \"#utility.yul\":9086:9125   */\n      tag_230\n      jump\t// in\n    tag_374:\n        /* \"#utility.yul\":9141:9230   */\n      tag_375\n        /* \"#utility.yul\":9223:9229   */\n      dup2\n        /* \"#utility.yul\":9218:9221   */\n      dup6\n        /* \"#utility.yul\":9141:9230   */\n      tag_237\n      jump\t// in\n    tag_375:\n        /* \"#utility.yul\":9134:9230   */\n      swap4\n      pop\n        /* \"#utility.yul\":9239:9304   */\n      tag_376\n        /* \"#utility.yul\":9297:9303   */\n      dup2\n        /* \"#utility.yul\":9292:9295   */\n      dup6\n        /* \"#utility.yul\":9285:9289   */\n      0x20\n        /* \"#utility.yul\":9278:9283   */\n      dup7\n        /* \"#utility.yul\":9274:9290   */\n      add\n        /* \"#utility.yul\":9239:9304   */\n      tag_232\n      jump\t// in\n    tag_376:\n        /* \"#utility.yul\":9329:9335   */\n      dup1\n        /* \"#utility.yul\":9324:9327   */\n      dup5\n        /* \"#utility.yul\":9320:9336   */\n      add\n        /* \"#utility.yul\":9313:9336   */\n      swap2\n      pop\n        /* \"#utility.yul\":9062:9342   */\n      pop\n        /* \"#utility.yul\":8952:9342   */\n      swap3\n      swap2\n      pop\n      pop\n      jump\t// out\n        /* \"#utility.yul\":9348:9623   */\n    tag_91:\n        /* \"#utility.yul\":9480:9483   */\n      0x00\n        /* \"#utility.yul\":9502:9597   */\n      tag_378\n        /* \"#utility.yul\":9593:9596   */\n      dup3\n        /* \"#utility.yul\":9584:9590   */\n      dup5\n        /* \"#utility.yul\":9502:9597   */\n      tag_238\n      jump\t// in\n    tag_378:\n        /* \"#utility.yul\":9495:9597   */\n      swap2\n      pop\n        /* \"#utility.yul\":9614:9617   */\n      dup2\n        /* \"#utility.yul\":9607:9617   */\n      swap1\n      pop\n        /* \"#utility.yul\":9348:9623   */\n      swap3\n      swap2\n      pop\n      pop\n      jump\t// out\n        /* \"#utility.yul\":9629:9874   */\n    tag_239:\n        /* \"#utility.yul\":9769:9803   */\n      0x4d6f64756c654d616e616765723a204d6f64756c6520646f6573206e6f742068\n        /* \"#utility.yul\":9765:9766   */\n      0x00\n        /* \"#utility.yul\":9757:9763   */\n      dup3\n        /* \"#utility.yul\":9753:9767   */\n      add\n        /* \"#utility.yul\":9746:9804   */\n      mstore\n        /* \"#utility.yul\":9838:9866   */\n      0x61766520676f7665726e616e6365207065726d697373696f6e2e000000000000\n        /* \"#utility.yul\":9833:9835   */\n      0x20\n        /* \"#utility.yul\":9825:9831   */\n      dup3\n        /* \"#utility.yul\":9821:9836   */\n      add\n        /* \"#utility.yul\":9814:9867   */\n      mstore\n        /* \"#utility.yul\":9629:9874   */\n      pop\n      jump\t// out\n        /* \"#utility.yul\":9880:10246   */\n    tag_240:\n        /* \"#utility.yul\":10022:10025   */\n      0x00\n        /* \"#utility.yul\":10043:10110   */\n      tag_381\n        /* \"#utility.yul\":10107:10109   */\n      0x3a\n        /* \"#utility.yul\":10102:10105   */\n      dup4\n        /* \"#utility.yul\":10043:10110   */\n      tag_231\n      jump\t// in\n    tag_381:\n        /* \"#utility.yul\":10036:10110   */\n      swap2\n      pop\n        /* \"#utility.yul\":10119:10212   */\n      tag_382\n        /* \"#utility.yul\":10208:10211   */\n      dup3\n        /* \"#utility.yul\":10119:10212   */\n      tag_239\n      jump\t// in\n    tag_382:\n        /* \"#utility.yul\":10237:10239   */\n      0x40\n        /* \"#utility.yul\":10232:10235   */\n      dup3\n        /* \"#utility.yul\":10228:10240   */\n      add\n        /* \"#utility.yul\":10221:10240   */\n      swap1\n      pop\n        /* \"#utility.yul\":9880:10246   */\n      swap2\n      swap1\n      pop\n      jump\t// out\n        /* \"#utility.yul\":10252:10671   */\n    tag_94:\n        /* \"#utility.yul\":10418:10422   */\n      0x00\n        /* \"#utility.yul\":10456:10458   */\n      0x20\n        /* \"#utility.yul\":10445:10454   */\n      dup3\n        /* \"#utility.yul\":10441:10459   */\n      add\n        /* \"#utility.yul\":10433:10459   */\n      swap1\n      pop\n        /* \"#utility.yul\":10505:10514   */\n      dup2\n        /* \"#utility.yul\":10499:10503   */\n      dup2\n        /* \"#utility.yul\":10495:10515   */\n      sub\n        /* \"#utility.yul\":10491:10492   */\n      0x00\n        /* \"#utility.yul\":10480:10489   */\n      dup4\n        /* \"#utility.yul\":10476:10493   */\n      add\n        /* \"#utility.yul\":10469:10516   */\n      mstore\n        /* \"#utility.yul\":10533:10664   */\n      tag_384\n        /* \"#utility.yul\":10659:10663   */\n      dup2\n        /* \"#utility.yul\":10533:10664   */\n      tag_240\n      jump\t// in\n    tag_384:\n        /* \"#utility.yul\":10525:10664   */\n      swap1\n      pop\n        /* \"#utility.yul\":10252:10671   */\n      swap2\n      swap1\n      pop\n      jump\t// out\n        /* \"#utility.yul\":10677:10919   */\n    tag_241:\n        /* \"#utility.yul\":10817:10851   */\n      0x4d6f64756c654d616e616765723a2043616c6c6572206973206e6f7420746865\n        /* \"#utility.yul\":10813:10814   */\n      0x00\n        /* \"#utility.yul\":10805:10811   */\n      dup3\n        /* \"#utility.yul\":10801:10815   */\n      add\n        /* \"#utility.yul\":10794:10852   */\n      mstore\n        /* \"#utility.yul\":10886:10911   */\n      0x206c617465737420696d706c656d656e746174696f6e2e000000000000000000\n        /* \"#utility.yul\":10881:10883   */\n      0x20\n        /* \"#utility.yul\":10873:10879   */\n      dup3\n        /* \"#utility.yul\":10869:10884   */\n      add\n        /* \"#utility.yul\":10862:10912   */\n      mstore\n        /* \"#utility.yul\":10677:10919   */\n      pop\n      jump\t// out\n        /* \"#utility.yul\":10925:11291   */\n    tag_242:\n        /* \"#utility.yul\":11067:11070   */\n      0x00\n        /* \"#utility.yul\":11088:11155   */\n      tag_387\n        /* \"#utility.yul\":11152:11154   */\n      0x37\n        /* \"#utility.yul\":11147:11150   */\n      dup4\n        /* \"#utility.yul\":11088:11155   */\n      tag_231\n      jump\t// in\n    tag_387:\n        /* \"#utility.yul\":11081:11155   */\n      swap2\n      pop\n        /* \"#utility.yul\":11164:11257   */\n      tag_388\n        /* \"#utility.yul\":11253:11256   */\n      dup3\n        /* \"#utility.yul\":11164:11257   */\n      tag_241\n      jump\t// in\n    tag_388:\n        /* \"#utility.yul\":11282:11284   */\n      0x40\n        /* \"#utility.yul\":11277:11280   */\n      dup3\n        /* \"#utility.yul\":11273:11285   */\n      add\n        /* \"#utility.yul\":11266:11285   */\n      swap1\n      pop\n        /* \"#utility.yul\":10925:11291   */\n      swap2\n      swap1\n      pop\n      jump\t// out\n        /* \"#utility.yul\":11297:11716   */\n    tag_99:\n        /* \"#utility.yul\":11463:11467   */\n      0x00\n        /* \"#utility.yul\":11501:11503   */\n      0x20\n        /* \"#utility.yul\":11490:11499   */\n      dup3\n        /* \"#utility.yul\":11486:11504   */\n      add\n        /* \"#utility.yul\":11478:11504   */\n      swap1\n      pop\n        /* \"#utility.yul\":11550:11559   */\n      dup2\n        /* \"#utility.yul\":11544:11548   */\n      dup2\n        /* \"#utility.yul\":11540:11560   */\n      sub\n        /* \"#utility.yul\":11536:11537   */\n      0x00\n        /* \"#utility.yul\":11525:11534   */\n      dup4\n        /* \"#utility.yul\":11521:11538   */\n      add\n        /* \"#utility.yul\":11514:11561   */\n      mstore\n        /* \"#utility.yul\":11578:11709   */\n      tag_390\n        /* \"#utility.yul\":11704:11708   */\n      dup2\n        /* \"#utility.yul\":11578:11709   */\n      tag_242\n      jump\t// in\n    tag_390:\n        /* \"#utility.yul\":11570:11709   */\n      swap1\n      pop\n        /* \"#utility.yul\":11297:11716   */\n      swap2\n      swap1\n      pop\n      jump\t// out\n        /* \"#utility.yul\":11722:11947   */\n    tag_243:\n        /* \"#utility.yul\":11862:11896   */\n      0x4f776e61626c653a206e6577206f776e657220697320746865207a65726f2061\n        /* \"#utility.yul\":11858:11859   */\n      0x00\n        /* \"#utility.yul\":11850:11856   */\n      dup3\n        /* \"#utility.yul\":11846:11860   */\n      add\n        /* \"#utility.yul\":11839:11897   */\n      mstore\n        /* \"#utility.yul\":11931:11939   */\n      0x6464726573730000000000000000000000000000000000000000000000000000\n        /* \"#utility.yul\":11926:11928   */\n      0x20\n        /* \"#utility.yul\":11918:11924   */\n      dup3\n        /* \"#utility.yul\":11914:11929   */\n      add\n        /* \"#utility.yul\":11907:11940   */\n      mstore\n        /* \"#utility.yul\":11722:11947   */\n      pop\n      jump\t// out\n        /* \"#utility.yul\":11953:12319   */\n    tag_244:\n        /* \"#utility.yul\":12095:12098   */\n      0x00\n        /* \"#utility.yul\":12116:12183   */\n      tag_393\n        /* \"#utility.yul\":12180:12182   */\n      0x26\n        /* \"#utility.yul\":12175:12178   */\n      dup4\n        /* \"#utility.yul\":12116:12183   */\n      tag_231\n      jump\t// in\n    tag_393:\n        /* \"#utility.yul\":12109:12183   */\n      swap2\n      pop\n        /* \"#utility.yul\":12192:12285   */\n      tag_394\n        /* \"#utility.yul\":12281:12284   */\n      dup3\n        /* \"#utility.yul\":12192:12285   */\n      tag_243\n      jump\t// in\n    tag_394:\n        /* \"#utility.yul\":12310:12312   */\n      0x40\n        /* \"#utility.yul\":12305:12308   */\n      dup3\n        /* \"#utility.yul\":12301:12313   */\n      add\n        /* \"#utility.yul\":12294:12313   */\n      swap1\n      pop\n        /* \"#utility.yul\":11953:12319   */\n      swap2\n      swap1\n      pop\n      jump\t// out\n        /* \"#utility.yul\":12325:12744   */\n    tag_114:\n        /* \"#utility.yul\":12491:12495   */\n      0x00\n        /* \"#utility.yul\":12529:12531   */\n      0x20\n        /* \"#utility.yul\":12518:12527   */\n      dup3\n        /* \"#utility.yul\":12514:12532   */\n      add\n        /* \"#utility.yul\":12506:12532   */\n      swap1\n      pop\n        /* \"#utility.yul\":12578:12587   */\n      dup2\n        /* \"#utility.yul\":12572:12576   */\n      dup2\n        /* \"#utility.yul\":12568:12588   */\n      sub\n        /* \"#utility.yul\":12564:12565   */\n      0x00\n        /* \"#utility.yul\":12553:12562   */\n      dup4\n        /* \"#utility.yul\":12549:12566   */\n      add\n        /* \"#utility.yul\":12542:12589   */\n      mstore\n        /* \"#utility.yul\":12606:12737   */\n      tag_396\n        /* \"#utility.yul\":12732:12736   */\n      dup2\n        /* \"#utility.yul\":12606:12737   */\n      tag_244\n      jump\t// in\n    tag_396:\n        /* \"#utility.yul\":12598:12737   */\n      swap1\n      pop\n        /* \"#utility.yul\":12325:12744   */\n      swap2\n      swap1\n      pop\n      jump\t// out\n        /* \"#utility.yul\":12750:12973   */\n    tag_245:\n        /* \"#utility.yul\":12890:12924   */\n      0x4d6f64756c654d616e616765723a204d6f64756c6520776173206e6f7420666f\n        /* \"#utility.yul\":12886:12887   */\n      0x00\n        /* \"#utility.yul\":12878:12884   */\n      dup3\n        /* \"#utility.yul\":12874:12888   */\n      add\n        /* \"#utility.yul\":12867:12925   */\n      mstore\n        /* \"#utility.yul\":12959:12965   */\n      0x756e642e00000000000000000000000000000000000000000000000000000000\n        /* \"#utility.yul\":12954:12956   */\n      0x20\n        /* \"#utility.yul\":12946:12952   */\n      dup3\n        /* \"#utility.yul\":12942:12957   */\n      add\n        /* \"#utility.yul\":12935:12966   */\n      mstore\n        /* \"#utility.yul\":12750:12973   */\n      pop\n      jump\t// out\n        /* \"#utility.yul\":12979:13345   */\n    tag_246:\n        /* \"#utility.yul\":13121:13124   */\n      0x00\n        /* \"#utility.yul\":13142:13209   */\n      tag_399\n        /* \"#utility.yul\":13206:13208   */\n      0x24\n        /* \"#utility.yul\":13201:13204   */\n      dup4\n        /* \"#utility.yul\":13142:13209   */\n      tag_231\n      jump\t// in\n    tag_399:\n        /* \"#utility.yul\":13135:13209   */\n      swap2\n      pop\n        /* \"#utility.yul\":13218:13311   */\n      tag_400\n        /* \"#utility.yul\":13307:13310   */\n      dup3\n        /* \"#utility.yul\":13218:13311   */\n      tag_245\n      jump\t// in\n    tag_400:\n        /* \"#utility.yul\":13336:13338   */\n      0x40\n        /* \"#utility.yul\":13331:13334   */\n      dup3\n        /* \"#utility.yul\":13327:13339   */\n      add\n        /* \"#utility.yul\":13320:13339   */\n      swap1\n      pop\n        /* \"#utility.yul\":12979:13345   */\n      swap2\n      swap1\n      pop\n      jump\t// out\n        /* \"#utility.yul\":13351:13770   */\n    tag_124:\n        /* \"#utility.yul\":13517:13521   */\n      0x00\n        /* \"#utility.yul\":13555:13557   */\n      0x20\n        /* \"#utility.yul\":13544:13553   */\n      dup3\n        /* \"#utility.yul\":13540:13558   */\n      add\n        /* \"#utility.yul\":13532:13558   */\n      swap1\n      pop\n        /* \"#utility.yul\":13604:13613   */\n      dup2\n        /* \"#utility.yul\":13598:13602   */\n      dup2\n        /* \"#utility.yul\":13594:13614   */\n      sub\n        /* \"#utility.yul\":13590:13591   */\n      0x00\n        /* \"#utility.yul\":13579:13588   */\n      dup4\n        /* \"#utility.yul\":13575:13592   */\n      add\n        /* \"#utility.yul\":13568:13615   */\n      mstore\n        /* \"#utility.yul\":13632:13763   */\n      tag_402\n        /* \"#utility.yul\":13758:13762   */\n      dup2\n        /* \"#utility.yul\":13632:13763   */\n      tag_246\n      jump\t// in\n    tag_402:\n        /* \"#utility.yul\":13624:13763   */\n      swap1\n      pop\n        /* \"#utility.yul\":13351:13770   */\n      swap2\n      swap1\n      pop\n      jump\t// out\n        /* \"#utility.yul\":13776:13958   */\n    tag_247:\n        /* \"#utility.yul\":13916:13950   */\n      0x4d6f64756c654d616e616765723a204d6f64756c652077617320666f756e642e\n        /* \"#utility.yul\":13912:13913   */\n      0x00\n        /* \"#utility.yul\":13904:13910   */\n      dup3\n        /* \"#utility.yul\":13900:13914   */\n      add\n        /* \"#utility.yul\":13893:13951   */\n      mstore\n        /* \"#utility.yul\":13776:13958   */\n      pop\n      jump\t// out\n        /* \"#utility.yul\":13964:14330   */\n    tag_248:\n        /* \"#utility.yul\":14106:14109   */\n      0x00\n        /* \"#utility.yul\":14127:14194   */\n      tag_405\n        /* \"#utility.yul\":14191:14193   */\n      0x20\n        /* \"#utility.yul\":14186:14189   */\n      dup4\n        /* \"#utility.yul\":14127:14194   */\n      tag_231\n      jump\t// in\n    tag_405:\n        /* \"#utility.yul\":14120:14194   */\n      swap2\n      pop\n        /* \"#utility.yul\":14203:14296   */\n      tag_406\n        /* \"#utility.yul\":14292:14295   */\n      dup3\n        /* \"#utility.yul\":14203:14296   */\n      tag_247\n      jump\t// in\n    tag_406:\n        /* \"#utility.yul\":14321:14323   */\n      0x20\n        /* \"#utility.yul\":14316:14319   */\n      dup3\n        /* \"#utility.yul\":14312:14324   */\n      add\n        /* \"#utility.yul\":14305:14324   */\n      swap1\n      pop\n        /* \"#utility.yul\":13964:14330   */\n      swap2\n      swap1\n      pop\n      jump\t// out\n        /* \"#utility.yul\":14336:14755   */\n    tag_138:\n        /* \"#utility.yul\":14502:14506   */\n      0x00\n        /* \"#utility.yul\":14540:14542   */\n      0x20\n        /* \"#utility.yul\":14529:14538   */\n      dup3\n        /* \"#utility.yul\":14525:14543   */\n      add\n        /* \"#utility.yul\":14517:14543   */\n      swap1\n      pop\n        /* \"#utility.yul\":14589:14598   */\n      dup2\n        /* \"#utility.yul\":14583:14587   */\n      dup2\n        /* \"#utility.yul\":14579:14599   */\n      sub\n        /* \"#utility.yul\":14575:14576   */\n      0x00\n        /* \"#utility.yul\":14564:14573   */\n      dup4\n        /* \"#utility.yul\":14560:14577   */\n      add\n        /* \"#utility.yul\":14553:14600   */\n      mstore\n        /* \"#utility.yul\":14617:14748   */\n      tag_408\n        /* \"#utility.yul\":14743:14747   */\n      dup2\n        /* \"#utility.yul\":14617:14748   */\n      tag_248\n      jump\t// in\n    tag_408:\n        /* \"#utility.yul\":14609:14748   */\n      swap1\n      pop\n        /* \"#utility.yul\":14336:14755   */\n      swap2\n      swap1\n      pop\n      jump\t// out\n        /* \"#utility.yul\":14761:14941   */\n    tag_249:\n        /* \"#utility.yul\":14809:14886   */\n      0x4e487b7100000000000000000000000000000000000000000000000000000000\n        /* \"#utility.yul\":14806:14807   */\n      0x00\n        /* \"#utility.yul\":14799:14887   */\n      mstore\n        /* \"#utility.yul\":14906:14910   */\n      0x11\n        /* \"#utility.yul\":14903:14904   */\n      0x04\n        /* \"#utility.yul\":14896:14911   */\n      mstore\n        /* \"#utility.yul\":14930:14934   */\n      0x24\n        /* \"#utility.yul\":14927:14928   */\n      0x00\n        /* \"#utility.yul\":14920:14935   */\n      revert\n        /* \"#utility.yul\":14947:15180   */\n    tag_141:\n        /* \"#utility.yul\":14986:14989   */\n      0x00\n        /* \"#utility.yul\":15009:15033   */\n      tag_411\n        /* \"#utility.yul\":15027:15032   */\n      dup3\n        /* \"#utility.yul\":15009:15033   */\n      tag_227\n      jump\t// in\n    tag_411:\n        /* \"#utility.yul\":15000:15033   */\n      swap2\n      pop\n        /* \"#utility.yul\":15055:15121   */\n      0xffffffffffffffffffffffffffffffffffffffffffffffffffffffffffffffff\n        /* \"#utility.yul\":15048:15053   */\n      dup3\n        /* \"#utility.yul\":15045:15122   */\n      sub\n        /* \"#utility.yul\":15042:15145   */\n      tag_412\n      jumpi\n        /* \"#utility.yul\":15125:15143   */\n      tag_413\n      tag_249\n      jump\t// in\n    tag_413:\n        /* \"#utility.yul\":15042:15145   */\n    tag_412:\n        /* \"#utility.yul\":15172:15173   */\n      0x01\n        /* \"#utility.yul\":15165:15170   */\n      dup3\n        /* \"#utility.yul\":15161:15174   */\n      add\n        /* \"#utility.yul\":15154:15174   */\n      swap1\n      pop\n        /* \"#utility.yul\":14947:15180   */\n      swap2\n      swap1\n      pop\n      jump\t// out\n        /* \"#utility.yul\":15186:15327   */\n    tag_250:\n        /* \"#utility.yul\":15235:15239   */\n      0x00\n        /* \"#utility.yul\":15258:15261   */\n      dup2\n        /* \"#utility.yul\":15250:15261   */\n      swap1\n      pop\n        /* \"#utility.yul\":15281:15284   */\n      dup2\n        /* \"#utility.yul\":15278:15279   */\n      0x00\n        /* \"#utility.yul\":15271:15285   */\n      mstore\n        /* \"#utility.yul\":15315:15319   */\n      0x20\n        /* \"#utility.yul\":15312:15313   */\n      0x00\n        /* \"#utility.yul\":15302:15320   */\n      keccak256\n        /* \"#utility.yul\":15294:15320   */\n      swap1\n      pop\n        /* \"#utility.yul\":15186:15327   */\n      swap2\n      swap1\n      pop\n      jump\t// out\n        /* \"#utility.yul\":15333:15426   */\n    tag_251:\n        /* \"#utility.yul\":15370:15376   */\n      0x00\n        /* \"#utility.yul\":15417:15419   */\n      0x20\n        /* \"#utility.yul\":15412:15414   */\n      0x1f\n        /* \"#utility.yul\":15405:15410   */\n      dup4\n        /* \"#utility.yul\":15401:15415   */\n      add\n        /* \"#utility.yul\":15397:15420   */\n      div\n        /* \"#utility.yul\":15387:15420   */\n      swap1\n      pop\n        /* \"#utility.yul\":15333:15426   */\n      swap2\n      swap1\n      pop\n      jump\t// out\n        /* \"#utility.yul\":15432:15539   */\n    tag_252:\n        /* \"#utility.yul\":15476:15484   */\n      0x00\n        /* \"#utility.yul\":15526:15531   */\n      dup3\n        /* \"#utility.yul\":15520:15524   */\n      dup3\n        /* \"#utility.yul\":15516:15532   */\n      shl\n        /* \"#utility.yul\":15495:15532   */\n      swap1\n      pop\n        /* \"#utility.yul\":15432:15539   */\n      swap3\n      swap2\n      pop\n      pop\n      jump\t// out\n        /* \"#utility.yul\":15545:15938   */\n    tag_253:\n        /* \"#utility.yul\":15614:15620   */\n      0x00\n        /* \"#utility.yul\":15664:15665   */\n      0x08\n        /* \"#utility.yul\":15652:15662   */\n      dup4\n        /* \"#utility.yul\":15648:15666   */\n      mul\n        /* \"#utility.yul\":15687:15784   */\n      tag_418\n        /* \"#utility.yul\":15717:15783   */\n      0xffffffffffffffffffffffffffffffffffffffffffffffffffffffffffffffff\n        /* \"#utility.yul\":15706:15715   */\n      dup3\n        /* \"#utility.yul\":15687:15784   */\n      tag_252\n      jump\t// in\n    tag_418:\n        /* \"#utility.yul\":15805:15844   */\n      tag_419\n        /* \"#utility.yul\":15835:15843   */\n      dup7\n        /* \"#utility.yul\":15824:15833   */\n      dup4\n        /* \"#utility.yul\":15805:15844   */\n      tag_252\n      jump\t// in\n    tag_419:\n        /* \"#utility.yul\":15793:15844   */\n      swap6\n      pop\n        /* \"#utility.yul\":15877:15881   */\n      dup1\n        /* \"#utility.yul\":15873:15882   */\n      not\n        /* \"#utility.yul\":15866:15871   */\n      dup5\n        /* \"#utility.yul\":15862:15883   */\n      and\n        /* \"#utility.yul\":15853:15883   */\n      swap4\n      pop\n        /* \"#utility.yul\":15926:15930   */\n      dup1\n        /* \"#utility.yul\":15916:15924   */\n      dup7\n        /* \"#utility.yul\":15912:15931   */\n      and\n        /* \"#utility.yul\":15905:15910   */\n      dup5\n        /* \"#utility.yul\":15902:15932   */\n      or\n        /* \"#utility.yul\":15892:15932   */\n      swap3\n      pop\n        /* \"#utility.yul\":15621:15938   */\n      pop\n      pop\n        /* \"#utility.yul\":15545:15938   */\n      swap4\n      swap3\n      pop\n      pop\n      pop\n      jump\t// out\n        /* \"#utility.yul\":15944:16004   */\n    tag_254:\n        /* \"#utility.yul\":15972:15975   */\n      0x00\n        /* \"#utility.yul\":15993:15998   */\n      dup2\n        /* \"#utility.yul\":15986:15998   */\n      swap1\n      pop\n        /* \"#utility.yul\":15944:16004   */\n      swap2\n      swap1\n      pop\n      jump\t// out\n        /* \"#utility.yul\":16010:16152   */\n    tag_255:\n        /* \"#utility.yul\":16060:16069   */\n      0x00\n        /* \"#utility.yul\":16093:16146   */\n      tag_422\n        /* \"#utility.yul\":16111:16145   */\n      tag_423\n        /* \"#utility.yul\":16120:16144   */\n      tag_424\n        /* \"#utility.yul\":16138:16143   */\n      dup5\n        /* \"#utility.yul\":16120:16144   */\n      tag_227\n      jump\t// in\n    tag_424:\n        /* \"#utility.yul\":16111:16145   */\n      tag_254\n      jump\t// in\n    tag_423:\n        /* \"#utility.yul\":16093:16146   */\n      tag_227\n      jump\t// in\n    tag_422:\n        /* \"#utility.yul\":16080:16146   */\n      swap1\n      pop\n        /* \"#utility.yul\":16010:16152   */\n      swap2\n      swap1\n      pop\n      jump\t// out\n        /* \"#utility.yul\":16158:16233   */\n    tag_256:\n        /* \"#utility.yul\":16201:16204   */\n      0x00\n        /* \"#utility.yul\":16222:16227   */\n      dup2\n        /* \"#utility.yul\":16215:16227   */\n      swap1\n      pop\n        /* \"#utility.yul\":16158:16233   */\n      swap2\n      swap1\n      pop\n      jump\t// out\n        /* \"#utility.yul\":16239:16508   */\n    tag_257:\n        /* \"#utility.yul\":16349:16388   */\n      tag_427\n        /* \"#utility.yul\":16380:16387   */\n      dup4\n        /* \"#utility.yul\":16349:16388   */\n      tag_255\n      jump\t// in\n    tag_427:\n        /* \"#utility.yul\":16410:16501   */\n      tag_428\n        /* \"#utility.yul\":16459:16500   */\n      tag_429\n        /* \"#utility.yul\":16483:16499   */\n      dup3\n        /* \"#utility.yul\":16459:16500   */\n      tag_256\n      jump\t// in\n    tag_429:\n        /* \"#utility.yul\":16451:16457   */\n      dup5\n        /* \"#utility.yul\":16444:16448   */\n      dup5\n        /* \"#utility.yul\":16438:16449   */\n      sload\n        /* \"#utility.yul\":16410:16501   */\n      tag_253\n      jump\t// in\n    tag_428:\n        /* \"#utility.yul\":16404:16408   */\n      dup3\n        /* \"#utility.yul\":16397:16502   */\n      sstore\n        /* \"#utility.yul\":16315:16508   */\n      pop\n        /* \"#utility.yul\":16239:16508   */\n      pop\n      pop\n      pop\n      jump\t// out\n        /* \"#utility.yul\":16514:16587   */\n    tag_258:\n        /* \"#utility.yul\":16559:16562   */\n      0x00\n        /* \"#utility.yul\":16514:16587   */\n      swap1\n      jump\t// out\n        /* \"#utility.yul\":16593:16782   */\n    tag_259:\n        /* \"#utility.yul\":16670:16702   */\n      tag_432\n      tag_258\n      jump\t// in\n    tag_432:\n        /* \"#utility.yul\":16711:16776   */\n      tag_433\n        /* \"#utility.yul\":16769:16775   */\n      dup2\n        /* \"#utility.yul\":16761:16767   */\n      dup5\n        /* \"#utility.yul\":16755:16759   */\n      dup5\n        /* \"#utility.yul\":16711:16776   */\n      tag_257\n      jump\t// in\n    tag_433:\n        /* \"#utility.yul\":16646:16782   */\n      pop\n        /* \"#utility.yul\":16593:16782   */\n      pop\n      pop\n      jump\t// out\n        /* \"#utility.yul\":16788:16974   */\n    tag_260:\n        /* \"#utility.yul\":16848:16968   */\n    tag_435:\n        /* \"#utility.yul\":16865:16868   */\n      dup2\n        /* \"#utility.yul\":16858:16863   */\n      dup2\n        /* \"#utility.yul\":16855:16869   */\n      lt\n        /* \"#utility.yul\":16848:16968   */\n      iszero\n      tag_437\n      jumpi\n        /* \"#utility.yul\":16919:16958   */\n      tag_438\n        /* \"#utility.yul\":16956:16957   */\n      0x00\n        /* \"#utility.yul\":16949:16954   */\n      dup3\n        /* \"#utility.yul\":16919:16958   */\n      tag_259\n      jump\t// in\n    tag_438:\n        /* \"#utility.yul\":16892:16893   */\n      0x01\n        /* \"#utility.yul\":16885:16890   */\n      dup2\n        /* \"#utility.yul\":16881:16894   */\n      add\n        /* \"#utility.yul\":16872:16894   */\n      swap1\n      pop\n        /* \"#utility.yul\":16848:16968   */\n      jump(tag_435)\n    tag_437:\n        /* \"#utility.yul\":16788:16974   */\n      pop\n      pop\n      jump\t// out\n        /* \"#utility.yul\":16980:17523   */\n    tag_261:\n        /* \"#utility.yul\":17081:17083   */\n      0x1f\n        /* \"#utility.yul\":17076:17079   */\n      dup3\n        /* \"#utility.yul\":17073:17084   */\n      gt\n        /* \"#utility.yul\":17070:17516   */\n      iszero\n      tag_440\n      jumpi\n        /* \"#utility.yul\":17115:17153   */\n      tag_441\n        /* \"#utility.yul\":17147:17152   */\n      dup2\n        /* \"#utility.yul\":17115:17153   */\n      tag_250\n      jump\t// in\n    tag_441:\n        /* \"#utility.yul\":17199:17228   */\n      tag_442\n        /* \"#utility.yul\":17217:17227   */\n      dup5\n        /* \"#utility.yul\":17199:17228   */\n      tag_251\n      jump\t// in\n    tag_442:\n        /* \"#utility.yul\":17189:17197   */\n      dup2\n        /* \"#utility.yul\":17185:17229   */\n      add\n        /* \"#utility.yul\":17382:17384   */\n      0x20\n        /* \"#utility.yul\":17370:17380   */\n      dup6\n        /* \"#utility.yul\":17367:17385   */\n      lt\n        /* \"#utility.yul\":17364:17413   */\n      iszero\n      tag_443\n      jumpi\n        /* \"#utility.yul\":17403:17411   */\n      dup2\n        /* \"#utility.yul\":17388:17411   */\n      swap1\n      pop\n        /* \"#utility.yul\":17364:17413   */\n    tag_443:\n        /* \"#utility.yul\":17426:17506   */\n      tag_444\n        /* \"#utility.yul\":17482:17504   */\n      tag_445\n        /* \"#utility.yul\":17500:17503   */\n      dup6\n        /* \"#utility.yul\":17482:17504   */\n      tag_251\n      jump\t// in\n    tag_445:\n        /* \"#utility.yul\":17472:17480   */\n      dup4\n        /* \"#utility.yul\":17468:17505   */\n      add\n        /* \"#utility.yul\":17455:17466   */\n      dup3\n        /* \"#utility.yul\":17426:17506   */\n      tag_260\n      jump\t// in\n    tag_444:\n        /* \"#utility.yul\":17085:17516   */\n      pop\n      pop\n        /* \"#utility.yul\":17070:17516   */\n    tag_440:\n        /* \"#utility.yul\":16980:17523   */\n      pop\n      pop\n      pop\n      jump\t// out\n        /* \"#utility.yul\":17529:17646   */\n    tag_262:\n        /* \"#utility.yul\":17583:17591   */\n      0x00\n        /* \"#utility.yul\":17633:17638   */\n      dup3\n        /* \"#utility.yul\":17627:17631   */\n      dup3\n        /* \"#utility.yul\":17623:17639   */\n      shr\n        /* \"#utility.yul\":17602:17639   */\n      swap1\n      pop\n        /* \"#utility.yul\":17529:17646   */\n      swap3\n      swap2\n      pop\n      pop\n      jump\t// out\n        /* \"#utility.yul\":17652:17821   */\n    tag_263:\n        /* \"#utility.yul\":17696:17702   */\n      0x00\n        /* \"#utility.yul\":17729:17780   */\n      tag_448\n        /* \"#utility.yul\":17777:17778   */\n      0x00\n        /* \"#utility.yul\":17773:17779   */\n      not\n        /* \"#utility.yul\":17765:17770   */\n      dup5\n        /* \"#utility.yul\":17762:17763   */\n      0x08\n        /* \"#utility.yul\":17758:17771   */\n      mul\n        /* \"#utility.yul\":17729:17780   */\n      tag_262\n      jump\t// in\n    tag_448:\n        /* \"#utility.yul\":17725:17781   */\n      not\n        /* \"#utility.yul\":17810:17814   */\n      dup1\n        /* \"#utility.yul\":17804:17808   */\n      dup4\n        /* \"#utility.yul\":17800:17815   */\n      and\n        /* \"#utility.yul\":17790:17815   */\n      swap2\n      pop\n        /* \"#utility.yul\":17703:17821   */\n      pop\n        /* \"#utility.yul\":17652:17821   */\n      swap3\n      swap2\n      pop\n      pop\n      jump\t// out\n        /* \"#utility.yul\":17826:18121   */\n    tag_264:\n        /* \"#utility.yul\":17902:17906   */\n      0x00\n        /* \"#utility.yul\":18048:18077   */\n      tag_450\n        /* \"#utility.yul\":18073:18076   */\n      dup4\n        /* \"#utility.yul\":18067:18071   */\n      dup4\n        /* \"#utility.yul\":18048:18077   */\n      tag_263\n      jump\t// in\n    tag_450:\n        /* \"#utility.yul\":18040:18077   */\n      swap2\n      pop\n        /* \"#utility.yul\":18110:18113   */\n      dup3\n        /* \"#utility.yul\":18107:18108   */\n      0x02\n        /* \"#utility.yul\":18103:18114   */\n      mul\n        /* \"#utility.yul\":18097:18101   */\n      dup3\n        /* \"#utility.yul\":18094:18115   */\n      or\n        /* \"#utility.yul\":18086:18115   */\n      swap1\n      pop\n        /* \"#utility.yul\":17826:18121   */\n      swap3\n      swap2\n      pop\n      pop\n      jump\t// out\n        /* \"#utility.yul\":18126:19521   */\n    tag_146:\n        /* \"#utility.yul\":18243:18280   */\n      tag_452\n        /* \"#utility.yul\":18276:18279   */\n      dup3\n        /* \"#utility.yul\":18243:18280   */\n      tag_230\n      jump\t// in\n    tag_452:\n        /* \"#utility.yul\":18345:18363   */\n      0xffffffffffffffff\n        /* \"#utility.yul\":18337:18343   */\n      dup2\n        /* \"#utility.yul\":18334:18364   */\n      gt\n        /* \"#utility.yul\":18331:18387   */\n      iszero\n      tag_453\n      jumpi\n        /* \"#utility.yul\":18367:18385   */\n      tag_454\n      tag_214\n      jump\t// in\n    tag_454:\n        /* \"#utility.yul\":18331:18387   */\n    tag_453:\n        /* \"#utility.yul\":18411:18449   */\n      tag_455\n        /* \"#utility.yul\":18443:18447   */\n      dup3\n        /* \"#utility.yul\":18437:18448   */\n      sload\n        /* \"#utility.yul\":18411:18449   */\n      tag_83\n      jump\t// in\n    tag_455:\n        /* \"#utility.yul\":18496:18563   */\n      tag_456\n        /* \"#utility.yul\":18556:18562   */\n      dup3\n        /* \"#utility.yul\":18548:18554   */\n      dup3\n        /* \"#utility.yul\":18542:18546   */\n      dup6\n        /* \"#utility.yul\":18496:18563   */\n      tag_261\n      jump\t// in\n    tag_456:\n        /* \"#utility.yul\":18590:18591   */\n      0x00\n        /* \"#utility.yul\":18614:18618   */\n      0x20\n        /* \"#utility.yul\":18601:18618   */\n      swap1\n      pop\n        /* \"#utility.yul\":18646:18648   */\n      0x1f\n        /* \"#utility.yul\":18638:18644   */\n      dup4\n        /* \"#utility.yul\":18635:18649   */\n      gt\n        /* \"#utility.yul\":18663:18664   */\n      0x01\n        /* \"#utility.yul\":18658:19276   */\n      dup2\n      eq\n      tag_458\n      jumpi\n        /* \"#utility.yul\":19320:19321   */\n      0x00\n        /* \"#utility.yul\":19337:19343   */\n      dup5\n        /* \"#utility.yul\":19334:19411   */\n      iszero\n      tag_459\n      jumpi\n        /* \"#utility.yul\":19386:19395   */\n      dup3\n        /* \"#utility.yul\":19381:19384   */\n      dup8\n        /* \"#utility.yul\":19377:19396   */\n      add\n        /* \"#utility.yul\":19371:19397   */\n      mload\n        /* \"#utility.yul\":19362:19397   */\n      swap1\n      pop\n        /* \"#utility.yul\":19334:19411   */\n    tag_459:\n        /* \"#utility.yul\":19437:19504   */\n      tag_460\n        /* \"#utility.yul\":19497:19503   */\n      dup6\n        /* \"#utility.yul\":19490:19495   */\n      dup3\n        /* \"#utility.yul\":19437:19504   */\n      tag_264\n      jump\t// in\n    tag_460:\n        /* \"#utility.yul\":19431:19435   */\n      dup7\n        /* \"#utility.yul\":19424:19505   */\n      sstore\n        /* \"#utility.yul\":19293:19515   */\n      pop\n        /* \"#utility.yul\":18628:19515   */\n      jump(tag_457)\n        /* \"#utility.yul\":18658:19276   */\n    tag_458:\n        /* \"#utility.yul\":18710:18714   */\n      0x1f\n        /* \"#utility.yul\":18706:18715   */\n      not\n        /* \"#utility.yul\":18698:18704   */\n      dup5\n        /* \"#utility.yul\":18694:18716   */\n      and\n        /* \"#utility.yul\":18744:18781   */\n      tag_461\n        /* \"#utility.yul\":18776:18780   */\n      dup7\n        /* \"#utility.yul\":18744:18781   */\n      tag_250\n      jump\t// in\n    tag_461:\n        /* \"#utility.yul\":18803:18804   */\n      0x00\n        /* \"#utility.yul\":18817:19025   */\n    tag_462:\n        /* \"#utility.yul\":18831:18838   */\n      dup3\n        /* \"#utility.yul\":18828:18829   */\n      dup2\n        /* \"#utility.yul\":18825:18839   */\n      lt\n        /* \"#utility.yul\":18817:19025   */\n      iszero\n      tag_464\n      jumpi\n        /* \"#utility.yul\":18910:18919   */\n      dup5\n        /* \"#utility.yul\":18905:18908   */\n      dup10\n        /* \"#utility.yul\":18901:18920   */\n      add\n        /* \"#utility.yul\":18895:18921   */\n      mload\n        /* \"#utility.yul\":18887:18893   */\n      dup3\n        /* \"#utility.yul\":18880:18922   */\n      sstore\n        /* \"#utility.yul\":18961:18962   */\n      0x01\n        /* \"#utility.yul\":18953:18959   */\n      dup3\n        /* \"#utility.yul\":18949:18963   */\n      add\n        /* \"#utility.yul\":18939:18963   */\n      swap2\n      pop\n        /* \"#utility.yul\":19008:19010   */\n      0x20\n        /* \"#utility.yul\":18997:19006   */\n      dup6\n        /* \"#utility.yul\":18993:19011   */\n      add\n        /* \"#utility.yul\":18980:19011   */\n      swap5\n      pop\n        /* \"#utility.yul\":18854:18858   */\n      0x20\n        /* \"#utility.yul\":18851:18852   */\n      dup2\n        /* \"#utility.yul\":18847:18859   */\n      add\n        /* \"#utility.yul\":18842:18859   */\n      swap1\n      pop\n        /* \"#utility.yul\":18817:19025   */\n      jump(tag_462)\n    tag_464:\n        /* \"#utility.yul\":19053:19059   */\n      dup7\n        /* \"#utility.yul\":19044:19051   */\n      dup4\n        /* \"#utility.yul\":19041:19060   */\n      lt\n        /* \"#utility.yul\":19038:19217   */\n      iszero\n      tag_465\n      jumpi\n        /* \"#utility.yul\":19111:19120   */\n      dup5\n        /* \"#utility.yul\":19106:19109   */\n      dup10\n        /* \"#utility.yul\":19102:19121   */\n      add\n        /* \"#utility.yul\":19096:19122   */\n      mload\n        /* \"#utility.yul\":19154:19202   */\n      tag_466\n        /* \"#utility.yul\":19196:19200   */\n      0x1f\n        /* \"#utility.yul\":19188:19194   */\n      dup10\n        /* \"#utility.yul\":19184:19201   */\n      and\n        /* \"#utility.yul\":19173:19182   */\n      dup3\n        /* \"#utility.yul\":19154:19202   */\n      tag_263\n      jump\t// in\n    tag_466:\n        /* \"#utility.yul\":19146:19152   */\n      dup4\n        /* \"#utility.yul\":19139:19203   */\n      sstore\n        /* \"#utility.yul\":19061:19217   */\n      pop\n        /* \"#utility.yul\":19038:19217   */\n    tag_465:\n        /* \"#utility.yul\":19263:19264   */\n      0x01\n        /* \"#utility.yul\":19259:19260   */\n      0x02\n        /* \"#utility.yul\":19251:19257   */\n      dup9\n        /* \"#utility.yul\":19247:19261   */\n      mul\n        /* \"#utility.yul\":19243:19265   */\n      add\n        /* \"#utility.yul\":19237:19241   */\n      dup9\n        /* \"#utility.yul\":19230:19266   */\n      sstore\n        /* \"#utility.yul\":18665:19276   */\n      pop\n      pop\n      pop\n        /* \"#utility.yul\":18628:19515   */\n    tag_457:\n      pop\n        /* \"#utility.yul\":18218:19521   */\n      pop\n      pop\n      pop\n        /* \"#utility.yul\":18126:19521   */\n      pop\n      pop\n      jump\t// out\n        /* \"#utility.yul\":19527:19709   */\n    tag_265:\n        /* \"#utility.yul\":19667:19701   */\n      0x4f776e61626c653a2063616c6c6572206973206e6f7420746865206f776e6572\n        /* \"#utility.yul\":19663:19664   */\n      0x00\n        /* \"#utility.yul\":19655:19661   */\n      dup3\n        /* \"#utility.yul\":19651:19665   */\n      add\n        /* \"#utility.yul\":19644:19702   */\n      mstore\n        /* \"#utility.yul\":19527:19709   */\n      pop\n      jump\t// out\n        /* \"#utility.yul\":19715:20081   */\n    tag_266:\n        /* \"#utility.yul\":19857:19860   */\n      0x00\n        /* \"#utility.yul\":19878:19945   */\n      tag_469\n        /* \"#utility.yul\":19942:19944   */\n      0x20\n        /* \"#utility.yul\":19937:19940   */\n      dup4\n        /* \"#utility.yul\":19878:19945   */\n      tag_231\n      jump\t// in\n    tag_469:\n        /* \"#utility.yul\":19871:19945   */\n      swap2\n      pop\n        /* \"#utility.yul\":19954:20047   */\n      tag_470\n        /* \"#utility.yul\":20043:20046   */\n      dup3\n        /* \"#utility.yul\":19954:20047   */\n      tag_265\n      jump\t// in\n    tag_470:\n        /* \"#utility.yul\":20072:20074   */\n      0x20\n        /* \"#utility.yul\":20067:20070   */\n      dup3\n        /* \"#utility.yul\":20063:20075   */\n      add\n        /* \"#utility.yul\":20056:20075   */\n      swap1\n      pop\n        /* \"#utility.yul\":19715:20081   */\n      swap2\n      swap1\n      pop\n      jump\t// out\n        /* \"#utility.yul\":20087:20506   */\n    tag_155:\n        /* \"#utility.yul\":20253:20257   */\n      0x00\n        /* \"#utility.yul\":20291:20293   */\n      0x20\n        /* \"#utility.yul\":20280:20289   */\n      dup3\n        /* \"#utility.yul\":20276:20294   */\n      add\n        /* \"#utility.yul\":20268:20294   */\n      swap1\n      pop\n        /* \"#utility.yul\":20340:20349   */\n      dup2\n        /* \"#utility.yul\":20334:20338   */\n      dup2\n        /* \"#utility.yul\":20330:20350   */\n      sub\n        /* \"#utility.yul\":20326:20327   */\n      0x00\n        /* \"#utility.yul\":20315:20324   */\n      dup4\n        /* \"#utility.yul\":20311:20328   */\n      add\n        /* \"#utility.yul\":20304:20351   */\n      mstore\n        /* \"#utility.yul\":20368:20499   */\n      tag_472\n        /* \"#utility.yul\":20494:20498   */\n      dup2\n        /* \"#utility.yul\":20368:20499   */\n      tag_266\n      jump\t// in\n    tag_472:\n        /* \"#utility.yul\":20360:20499   */\n      swap1\n      pop\n        /* \"#utility.yul\":20087:20506   */\n      swap2\n      swap1\n      pop\n      jump\t// out\n        /* \"#utility.yul\":20512:20706   */\n    tag_176:\n        /* \"#utility.yul\":20552:20556   */\n      0x00\n        /* \"#utility.yul\":20572:20592   */\n      tag_474\n        /* \"#utility.yul\":20590:20591   */\n      dup3\n        /* \"#utility.yul\":20572:20592   */\n      tag_227\n      jump\t// in\n    tag_474:\n        /* \"#utility.yul\":20567:20592   */\n      swap2\n      pop\n        /* \"#utility.yul\":20606:20626   */\n      tag_475\n        /* \"#utility.yul\":20624:20625   */\n      dup4\n        /* \"#utility.yul\":20606:20626   */\n      tag_227\n      jump\t// in\n    tag_475:\n        /* \"#utility.yul\":20601:20626   */\n      swap3\n      pop\n        /* \"#utility.yul\":20650:20651   */\n      dup3\n        /* \"#utility.yul\":20647:20648   */\n      dup3\n        /* \"#utility.yul\":20643:20652   */\n      sub\n        /* \"#utility.yul\":20635:20652   */\n      swap1\n      pop\n        /* \"#utility.yul\":20674:20675   */\n      dup2\n        /* \"#utility.yul\":20668:20672   */\n      dup2\n        /* \"#utility.yul\":20665:20676   */\n      gt\n        /* \"#utility.yul\":20662:20699   */\n      iszero\n      tag_476\n      jumpi\n        /* \"#utility.yul\":20679:20697   */\n      tag_477\n      tag_249\n      jump\t// in\n    tag_477:\n        /* \"#utility.yul\":20662:20699   */\n    tag_476:\n        /* \"#utility.yul\":20512:20706   */\n      swap3\n      swap2\n      pop\n      pop\n      jump\t// out\n        /* \"#utility.yul\":20712:20936   */\n    tag_267:\n        /* \"#utility.yul\":20852:20886   */\n      0x4d6f64756c654d616e616765723a2056657273696f6e20776173206e6f742066\n        /* \"#utility.yul\":20848:20849   */\n      0x00\n        /* \"#utility.yul\":20840:20846   */\n      dup3\n        /* \"#utility.yul\":20836:20850   */\n      add\n        /* \"#utility.yul\":20829:20887   */\n      mstore\n        /* \"#utility.yul\":20921:20928   */\n      0x6f756e642e000000000000000000000000000000000000000000000000000000\n        /* \"#utility.yul\":20916:20918   */\n      0x20\n        /* \"#utility.yul\":20908:20914   */\n      dup3\n        /* \"#utility.yul\":20904:20919   */\n      add\n        /* \"#utility.yul\":20897:20929   */\n      mstore\n        /* \"#utility.yul\":20712:20936   */\n      pop\n      jump\t// out\n        /* \"#utility.yul\":20942:21308   */\n    tag_268:\n        /* \"#utility.yul\":21084:21087   */\n      0x00\n        /* \"#utility.yul\":21105:21172   */\n      tag_480\n        /* \"#utility.yul\":21169:21171   */\n      0x25\n        /* \"#utility.yul\":21164:21167   */\n      dup4\n        /* \"#utility.yul\":21105:21172   */\n      tag_231\n      jump\t// in\n    tag_480:\n        /* \"#utility.yul\":21098:21172   */\n      swap2\n      pop\n        /* \"#utility.yul\":21181:21274   */\n      tag_481\n        /* \"#utility.yul\":21270:21273   */\n      dup3\n        /* \"#utility.yul\":21181:21274   */\n      tag_267\n      jump\t// in\n    tag_481:\n        /* \"#utility.yul\":21299:21301   */\n      0x40\n        /* \"#utility.yul\":21294:21297   */\n      dup3\n        /* \"#utility.yul\":21290:21302   */\n      add\n        /* \"#utility.yul\":21283:21302   */\n      swap1\n      pop\n        /* \"#utility.yul\":20942:21308   */\n      swap2\n      swap1\n      pop\n      jump\t// out\n        /* \"#utility.yul\":21314:21733   */\n    tag_181:\n        /* \"#utility.yul\":21480:21484   */\n      0x00\n        /* \"#utility.yul\":21518:21520   */\n      0x20\n        /* \"#utility.yul\":21507:21516   */\n      dup3\n        /* \"#utility.yul\":21503:21521   */\n      add\n        /* \"#utility.yul\":21495:21521   */\n      swap1\n      pop\n        /* \"#utility.yul\":21567:21576   */\n      dup2\n        /* \"#utility.yul\":21561:21565   */\n      dup2\n        /* \"#utility.yul\":21557:21577   */\n      sub\n        /* \"#utility.yul\":21553:21554   */\n      0x00\n        /* \"#utility.yul\":21542:21551   */\n      dup4\n        /* \"#utility.yul\":21538:21555   */\n      add\n        /* \"#utility.yul\":21531:21578   */\n      mstore\n        /* \"#utility.yul\":21595:21726   */\n      tag_483\n        /* \"#utility.yul\":21721:21725   */\n      dup2\n        /* \"#utility.yul\":21595:21726   */\n      tag_268\n      jump\t// in\n    tag_483:\n        /* \"#utility.yul\":21587:21726   */\n      swap1\n      pop\n        /* \"#utility.yul\":21314:21733   */\n      swap2\n      swap1\n      pop\n      jump\t// out\n        /* \"#utility.yul\":21739:21919   */\n    tag_205:\n        /* \"#utility.yul\":21787:21864   */\n      0x4e487b7100000000000000000000000000000000000000000000000000000000\n        /* \"#utility.yul\":21784:21785   */\n      0x00\n        /* \"#utility.yul\":21777:21865   */\n      mstore\n        /* \"#utility.yul\":21884:21888   */\n      0x32\n        /* \"#utility.yul\":21881:21882   */\n      0x04\n        /* \"#utility.yul\":21874:21889   */\n      mstore\n        /* \"#utility.yul\":21908:21912   */\n      0x24\n        /* \"#utility.yul\":21905:21906   */\n      0x00\n        /* \"#utility.yul\":21898:21913   */\n      revert\n\n    auxdata: 0xa2646970667358221220e9362456b7d8c8bc17815e4aac6ffef21dced209ff22480608e286510c2009d564736f6c63430008130033\n}\n",
				"bytecode": {
					"linkReferences": {},
					"object": "60806040523480156200001157600080fd5b5060405162001a5238038062001a5283398181016040528101906200003791906200017f565b8062000049816200005160201b60201c565b5050620001b1565b60008060009054906101000a900473ffffffffffffffffffffffffffffffffffffffff169050816000806101000a81548173ffffffffffffffffffffffffffffffffffffffff021916908373ffffffffffffffffffffffffffffffffffffffff1602179055508173ffffffffffffffffffffffffffffffffffffffff168173ffffffffffffffffffffffffffffffffffffffff167f8be0079c531659141344cd1fd0a4f28419497f9722a3daafe3b4186f6b6457e060405160405180910390a35050565b600080fd5b600073ffffffffffffffffffffffffffffffffffffffff82169050919050565b600062000147826200011a565b9050919050565b62000159816200013a565b81146200016557600080fd5b50565b60008151905062000179816200014e565b92915050565b60006020828403121562000198576200019762000115565b5b6000620001a88482850162000168565b91505092915050565b61189180620001c16000396000f3fe608060405234801561001057600080fd5b50600436106100b45760003560e01c8063980d37e811610071578063980d37e8146101a1578063cae96761146101d1578063d285f83914610201578063e8009dda14610231578063f2fde38b14610261578063f3f342fa1461027d576100b4565b80635332c74d146100b957806354cbbd6e146100e9578063715018a6146101195780637ac3ab141461012357806381b2248a146101535780638da5cb5b14610183575b600080fd5b6100d360048036038101906100ce9190610de2565b61029b565b6040516100e09190610e59565b60405180910390f35b61010360048036038101906100fe9190610de2565b6102af565b6040516101109190610e59565b60405180910390f35b6101216102c3565b005b61013d60048036038101906101389190610e74565b6102d7565b60405161014a9190610e59565b60405180910390f35b61016d60048036038101906101689190610ef3565b61030d565b60405161017a9190610f9f565b60405180910390f35b61018b6103b9565b6040516101989190610fd0565b60405180910390f35b6101bb60048036038101906101b69190610e74565b6103e2565b6040516101c89190610e59565b60405180910390f35b6101eb60048036038101906101e69190610e74565b6104d0565b6040516101f89190610ffa565b60405180910390f35b61021b60048036038101906102169190610e74565b6104e2565b6040516102289190610fd0565b60405180910390f35b61024b60048036038101906102469190611015565b6104f4565b6040516102589190610fd0565b60405180910390f35b61027b60048036038101906102769190611071565b610508565b005b61028561058b565b6040516102929190610ffa565b60405180910390f35b60006102a78383610591565b905092915050565b60006102bb838361068e565b905092915050565b6102cb6107d7565b6102d56000610855565b565b6002818051602081018201805184825260208301602085012081835280955050505050506000915054906101000a900460ff1681565b6004818154811061031d57600080fd5b906000526020600020016000915090508054610338906110cd565b80601f0160208091040260200160405190810160405280929190818152602001828054610364906110cd565b80156103b15780601f10610386576101008083540402835291602001916103b1565b820191906000526020600020905b81548152906001019060200180831161039457829003601f168201915b505050505081565b60008060009054906101000a900473ffffffffffffffffffffffffffffffffffffffff16905090565b6000816002816040516103f5919061113a565b908152602001604051809103902060009054906101000a900460ff16610450576040517f08c379a0000000000000000000000000000000000000000000000000000000008152600401610447906111c3565b60405180910390fd5b61045981610919565b73ffffffffffffffffffffffffffffffffffffffff163373ffffffffffffffffffffffffffffffffffffffff16146104c6576040517f08c379a00000000000000000000000000000000000000000000000000000000081526004016104bd90611255565b60405180910390fd5b6001915050919050565b60006104db826109c5565b9050919050565b60006104ed82610919565b9050919050565b60006105008383610a6b565b905092915050565b6105106107d7565b600073ffffffffffffffffffffffffffffffffffffffff168173ffffffffffffffffffffffffffffffffffffffff160361057f576040517f08c379a0000000000000000000000000000000000000000000000000000000008152600401610576906112e7565b60405180910390fd5b61058881610855565b50565b60015481565b600061059b6107d7565b8260016105c46003836040516105b1919061113a565b9081526020016040518091039020610af4565b1015610605576040517f08c379a00000000000000000000000000000000000000000000000000000000081526004016105fc90611379565b60405180910390fd5b61063583600386604051610619919061113a565b9081526020016040518091039020610b0990919063ffffffff16565b5083604051610644919061113a565b60405180910390207f1f13caeb007f29cd5fc6f97bcff68492c71932a30b875a50bd24a06f71b719bd8460405161067b9190610fd0565b60405180910390a2600191505092915050565b60006106986107d7565b8260006106c16003836040516106ae919061113a565b9081526020016040518091039020610af4565b14610701576040517f08c379a00000000000000000000000000000000000000000000000000000000081526004016106f8906113e5565b60405180910390fd5b6001600081548092919061071490611434565b91905055506107498360038660405161072d919061113a565b9081526020016040518091039020610b0990919063ffffffff16565b5060048490806001815401808255809150506001900390600052602060002001600090919091909150908161077e9190611628565b508360405161078d919061113a565b60405180910390207f4eff43c6bb175fbf2b5c22be9f2c9fa7a8f90fef6e42a20a6f45a766c8221365846040516107c49190610fd0565b60405180910390a2600191505092915050565b6107df610b39565b73ffffffffffffffffffffffffffffffffffffffff166107fd6103b9565b73ffffffffffffffffffffffffffffffffffffffff1614610853576040517f08c379a000000000000000000000000000000000000000000000000000000000815260040161084a90611746565b60405180910390fd5b565b60008060009054906101000a900473ffffffffffffffffffffffffffffffffffffffff169050816000806101000a81548173ffffffffffffffffffffffffffffffffffffffff021916908373ffffffffffffffffffffffffffffffffffffffff1602179055508173ffffffffffffffffffffffffffffffffffffffff168173ffffffffffffffffffffffffffffffffffffffff167f8be0079c531659141344cd1fd0a4f28419497f9722a3daafe3b4186f6b6457e060405160405180910390a35050565b6000816001610944600383604051610931919061113a565b9081526020016040518091039020610af4565b1015610985576040517f08c379a000000000000000000000000000000000000000000000000000000000815260040161097c90611379565b60405180910390fd5b6109bd610991846109c5565b6003856040516109a1919061113a565b9081526020016040518091039020610b4190919063ffffffff16565b915050919050565b60008160016109f06003836040516109dd919061113a565b9081526020016040518091039020610af4565b1015610a31576040517f08c379a0000000000000000000000000000000000000000000000000000000008152600401610a2890611379565b60405180910390fd5b6001610a59600385604051610a46919061113a565b9081526020016040518091039020610af4565b610a639190611766565b915050919050565b60008282610a78826109c5565b811115610aba576040517f08c379a0000000000000000000000000000000000000000000000000000000008152600401610ab19061180c565b60405180910390fd5b610aea84600387604051610ace919061113a565b9081526020016040518091039020610b4190919063ffffffff16565b9250505092915050565b6000610b0282600001610b5b565b9050919050565b6000610b31836000018373ffffffffffffffffffffffffffffffffffffffff1660001b610b6c565b905092915050565b600033905090565b6000610b508360000183610bdc565b60001c905092915050565b600081600001805490509050919050565b6000610b788383610c07565b610bd1578260000182908060018154018082558091505060019003906000526020600020016000909190919091505582600001805490508360010160008481526020019081526020016000208190555060019050610bd6565b600090505b92915050565b6000826000018281548110610bf457610bf361182c565b5b9060005260206000200154905092915050565b600080836001016000848152602001908152602001600020541415905092915050565b6000604051905090565b600080fd5b600080fd5b600080fd5b600080fd5b6000601f19601f8301169050919050565b7f4e487b7100000000000000000000000000000000000000000000000000000000600052604160045260246000fd5b610c9182610c48565b810181811067ffffffffffffffff82111715610cb057610caf610c59565b5b80604052505050565b6000610cc3610c2a565b9050610ccf8282610c88565b919050565b600067ffffffffffffffff821115610cef57610cee610c59565b5b610cf882610c48565b9050602081019050919050565b82818337600083830152505050565b6000610d27610d2284610cd4565b610cb9565b905082815260208101848484011115610d4357610d42610c43565b5b610d4e848285610d05565b509392505050565b600082601f830112610d6b57610d6a610c3e565b5b8135610d7b848260208601610d14565b91505092915050565b600073ffffffffffffffffffffffffffffffffffffffff82169050919050565b6000610daf82610d84565b9050919050565b610dbf81610da4565b8114610dca57600080fd5b50565b600081359050610ddc81610db6565b92915050565b60008060408385031215610df957610df8610c34565b5b600083013567ffffffffffffffff811115610e1757610e16610c39565b5b610e2385828601610d56565b9250506020610e3485828601610dcd565b9150509250929050565b60008115159050919050565b610e5381610e3e565b82525050565b6000602082019050610e6e6000830184610e4a565b92915050565b600060208284031215610e8a57610e89610c34565b5b600082013567ffffffffffffffff811115610ea857610ea7610c39565b5b610eb484828501610d56565b91505092915050565b6000819050919050565b610ed081610ebd565b8114610edb57600080fd5b50565b600081359050610eed81610ec7565b92915050565b600060208284031215610f0957610f08610c34565b5b6000610f1784828501610ede565b91505092915050565b600081519050919050565b600082825260208201905092915050565b60005b83811015610f5a578082015181840152602081019050610f3f565b60008484015250505050565b6000610f7182610f20565b610f7b8185610f2b565b9350610f8b818560208601610f3c565b610f9481610c48565b840191505092915050565b60006020820190508181036000830152610fb98184610f66565b905092915050565b610fca81610da4565b82525050565b6000602082019050610fe56000830184610fc1565b92915050565b610ff481610ebd565b82525050565b600060208201905061100f6000830184610feb565b92915050565b6000806040838503121561102c5761102b610c34565b5b600083013567ffffffffffffffff81111561104a57611049610c39565b5b61105685828601610d56565b925050602061106785828601610ede565b9150509250929050565b60006020828403121561108757611086610c34565b5b600061109584828501610dcd565b91505092915050565b7f4e487b7100000000000000000000000000000000000000000000000000000000600052602260045260246000fd5b600060028204905060018216806110e557607f821691505b6020821081036110f8576110f761109e565b5b50919050565b600081905092915050565b600061111482610f20565b61111e81856110fe565b935061112e818560208601610f3c565b80840191505092915050565b60006111468284611109565b915081905092915050565b7f4d6f64756c654d616e616765723a204d6f64756c6520646f6573206e6f74206860008201527f61766520676f7665726e616e6365207065726d697373696f6e2e000000000000602082015250565b60006111ad603a83610f2b565b91506111b882611151565b604082019050919050565b600060208201905081810360008301526111dc816111a0565b9050919050565b7f4d6f64756c654d616e616765723a2043616c6c6572206973206e6f742074686560008201527f206c617465737420696d706c656d656e746174696f6e2e000000000000000000602082015250565b600061123f603783610f2b565b915061124a826111e3565b604082019050919050565b6000602082019050818103600083015261126e81611232565b9050919050565b7f4f776e61626c653a206e6577206f776e657220697320746865207a65726f206160008201527f6464726573730000000000000000000000000000000000000000000000000000602082015250565b60006112d1602683610f2b565b91506112dc82611275565b604082019050919050565b60006020820190508181036000830152611300816112c4565b9050919050565b7f4d6f64756c654d616e616765723a204d6f64756c6520776173206e6f7420666f60008201527f756e642e00000000000000000000000000000000000000000000000000000000602082015250565b6000611363602483610f2b565b915061136e82611307565b604082019050919050565b6000602082019050818103600083015261139281611356565b9050919050565b7f4d6f64756c654d616e616765723a204d6f64756c652077617320666f756e642e600082015250565b60006113cf602083610f2b565b91506113da82611399565b602082019050919050565b600060208201905081810360008301526113fe816113c2565b9050919050565b7f4e487b7100000000000000000000000000000000000000000000000000000000600052601160045260246000fd5b600061143f82610ebd565b91507fffffffffffffffffffffffffffffffffffffffffffffffffffffffffffffffff820361147157611470611405565b5b600182019050919050565b60008190508160005260206000209050919050565b60006020601f8301049050919050565b600082821b905092915050565b6000600883026114de7fffffffffffffffffffffffffffffffffffffffffffffffffffffffffffffffff826114a1565b6114e886836114a1565b95508019841693508086168417925050509392505050565b6000819050919050565b600061152561152061151b84610ebd565b611500565b610ebd565b9050919050565b6000819050919050565b61153f8361150a565b61155361154b8261152c565b8484546114ae565b825550505050565b600090565b61156861155b565b611573818484611536565b505050565b5b818110156115975761158c600082611560565b600181019050611579565b5050565b601f8211156115dc576115ad8161147c565b6115b684611491565b810160208510156115c5578190505b6115d96115d185611491565b830182611578565b50505b505050565b600082821c905092915050565b60006115ff600019846008026115e1565b1980831691505092915050565b600061161883836115ee565b9150826002028217905092915050565b61163182610f20565b67ffffffffffffffff81111561164a57611649610c59565b5b61165482546110cd565b61165f82828561159b565b600060209050601f8311600181146116925760008415611680578287015190505b61168a858261160c565b8655506116f2565b601f1984166116a08661147c565b60005b828110156116c8578489015182556001820191506020850194506020810190506116a3565b868310156116e557848901516116e1601f8916826115ee565b8355505b6001600288020188555050505b505050505050565b7f4f776e61626c653a2063616c6c6572206973206e6f7420746865206f776e6572600082015250565b6000611730602083610f2b565b915061173b826116fa565b602082019050919050565b6000602082019050818103600083015261175f81611723565b9050919050565b600061177182610ebd565b915061177c83610ebd565b925082820390508181111561179457611793611405565b5b92915050565b7f4d6f64756c654d616e616765723a2056657273696f6e20776173206e6f74206660008201527f6f756e642e000000000000000000000000000000000000000000000000000000602082015250565b60006117f6602583610f2b565b91506118018261179a565b604082019050919050565b60006020820190508181036000830152611825816117e9565b9050919050565b7f4e487b7100000000000000000000000000000000000000000000000000000000600052603260045260246000fdfea2646970667358221220e9362456b7d8c8bc17815e4aac6ffef21dced209ff22480608e286510c2009d564736f6c63430008130033",
					"opcodes": "PUSH1 0x80 PUSH1 0x40 MSTORE CALLVALUE DUP1 ISZERO PUSH3 0x11 JUMPI PUSH1 0x0 DUP1 REVERT JUMPDEST POP PUSH1 0x40 MLOAD PUSH3 0x1A52 CODESIZE SUB DUP1 PUSH3 0x1A52 DUP4 CODECOPY DUP2 DUP2 ADD PUSH1 0x40 MSTORE DUP2 ADD SWAP1 PUSH3 0x37 SWAP2 SWAP1 PUSH3 0x17F JUMP JUMPDEST DUP1 PUSH3 0x49 DUP2 PUSH3 0x51 PUSH1 0x20 SHL PUSH1 0x20 SHR JUMP JUMPDEST POP POP PUSH3 0x1B1 JUMP JUMPDEST PUSH1 0x0 DUP1 PUSH1 0x0 SWAP1 SLOAD SWAP1 PUSH2 0x100 EXP SWAP1 DIV PUSH20 0xFFFFFFFFFFFFFFFFFFFFFFFFFFFFFFFFFFFFFFFF AND SWAP1 POP DUP2 PUSH1 0x0 DUP1 PUSH2 0x100 EXP DUP2 SLOAD DUP2 PUSH20 0xFFFFFFFFFFFFFFFFFFFFFFFFFFFFFFFFFFFFFFFF MUL NOT AND SWAP1 DUP4 PUSH20 0xFFFFFFFFFFFFFFFFFFFFFFFFFFFFFFFFFFFFFFFF AND MUL OR SWAP1 SSTORE POP DUP2 PUSH20 0xFFFFFFFFFFFFFFFFFFFFFFFFFFFFFFFFFFFFFFFF AND DUP2 PUSH20 0xFFFFFFFFFFFFFFFFFFFFFFFFFFFFFFFFFFFFFFFF AND PUSH32 0x8BE0079C531659141344CD1FD0A4F28419497F9722A3DAAFE3B4186F6B6457E0 PUSH1 0x40 MLOAD PUSH1 0x40 MLOAD DUP1 SWAP2 SUB SWAP1 LOG3 POP POP JUMP JUMPDEST PUSH1 0x0 DUP1 REVERT JUMPDEST PUSH1 0x0 PUSH20 0xFFFFFFFFFFFFFFFFFFFFFFFFFFFFFFFFFFFFFFFF DUP3 AND SWAP1 POP SWAP2 SWAP1 POP JUMP JUMPDEST PUSH1 0x0 PUSH3 0x147 DUP3 PUSH3 0x11A JUMP JUMPDEST SWAP1 POP SWAP2 SWAP1 POP JUMP JUMPDEST PUSH3 0x159 DUP2 PUSH3 0x13A JUMP JUMPDEST DUP2 EQ PUSH3 0x165 JUMPI PUSH1 0x0 DUP1 REVERT JUMPDEST POP JUMP JUMPDEST PUSH1 0x0 DUP2 MLOAD SWAP1 POP PUSH3 0x179 DUP2 PUSH3 0x14E JUMP JUMPDEST SWAP3 SWAP2 POP POP JUMP JUMPDEST PUSH1 0x0 PUSH1 0x20 DUP3 DUP5 SUB SLT ISZERO PUSH3 0x198 JUMPI PUSH3 0x197 PUSH3 0x115 JUMP JUMPDEST JUMPDEST PUSH1 0x0 PUSH3 0x1A8 DUP5 DUP3 DUP6 ADD PUSH3 0x168 JUMP JUMPDEST SWAP2 POP POP SWAP3 SWAP2 POP POP JUMP JUMPDEST PUSH2 0x1891 DUP1 PUSH3 0x1C1 PUSH1 0x0 CODECOPY PUSH1 0x0 RETURN INVALID PUSH1 0x80 PUSH1 0x40 MSTORE CALLVALUE DUP1 ISZERO PUSH2 0x10 JUMPI PUSH1 0x0 DUP1 REVERT JUMPDEST POP PUSH1 0x4 CALLDATASIZE LT PUSH2 0xB4 JUMPI PUSH1 0x0 CALLDATALOAD PUSH1 0xE0 SHR DUP1 PUSH4 0x980D37E8 GT PUSH2 0x71 JUMPI DUP1 PUSH4 0x980D37E8 EQ PUSH2 0x1A1 JUMPI DUP1 PUSH4 0xCAE96761 EQ PUSH2 0x1D1 JUMPI DUP1 PUSH4 0xD285F839 EQ PUSH2 0x201 JUMPI DUP1 PUSH4 0xE8009DDA EQ PUSH2 0x231 JUMPI DUP1 PUSH4 0xF2FDE38B EQ PUSH2 0x261 JUMPI DUP1 PUSH4 0xF3F342FA EQ PUSH2 0x27D JUMPI PUSH2 0xB4 JUMP JUMPDEST DUP1 PUSH4 0x5332C74D EQ PUSH2 0xB9 JUMPI DUP1 PUSH4 0x54CBBD6E EQ PUSH2 0xE9 JUMPI DUP1 PUSH4 0x715018A6 EQ PUSH2 0x119 JUMPI DUP1 PUSH4 0x7AC3AB14 EQ PUSH2 0x123 JUMPI DUP1 PUSH4 0x81B2248A EQ PUSH2 0x153 JUMPI DUP1 PUSH4 0x8DA5CB5B EQ PUSH2 0x183 JUMPI JUMPDEST PUSH1 0x0 DUP1 REVERT JUMPDEST PUSH2 0xD3 PUSH1 0x4 DUP1 CALLDATASIZE SUB DUP2 ADD SWAP1 PUSH2 0xCE SWAP2 SWAP1 PUSH2 0xDE2 JUMP JUMPDEST PUSH2 0x29B JUMP JUMPDEST PUSH1 0x40 MLOAD PUSH2 0xE0 SWAP2 SWAP1 PUSH2 0xE59 JUMP JUMPDEST PUSH1 0x40 MLOAD DUP1 SWAP2 SUB SWAP1 RETURN JUMPDEST PUSH2 0x103 PUSH1 0x4 DUP1 CALLDATASIZE SUB DUP2 ADD SWAP1 PUSH2 0xFE SWAP2 SWAP1 PUSH2 0xDE2 JUMP JUMPDEST PUSH2 0x2AF JUMP JUMPDEST PUSH1 0x40 MLOAD PUSH2 0x110 SWAP2 SWAP1 PUSH2 0xE59 JUMP JUMPDEST PUSH1 0x40 MLOAD DUP1 SWAP2 SUB SWAP1 RETURN JUMPDEST PUSH2 0x121 PUSH2 0x2C3 JUMP JUMPDEST STOP JUMPDEST PUSH2 0x13D PUSH1 0x4 DUP1 CALLDATASIZE SUB DUP2 ADD SWAP1 PUSH2 0x138 SWAP2 SWAP1 PUSH2 0xE74 JUMP JUMPDEST PUSH2 0x2D7 JUMP JUMPDEST PUSH1 0x40 MLOAD PUSH2 0x14A SWAP2 SWAP1 PUSH2 0xE59 JUMP JUMPDEST PUSH1 0x40 MLOAD DUP1 SWAP2 SUB SWAP1 RETURN JUMPDEST PUSH2 0x16D PUSH1 0x4 DUP1 CALLDATASIZE SUB DUP2 ADD SWAP1 PUSH2 0x168 SWAP2 SWAP1 PUSH2 0xEF3 JUMP JUMPDEST PUSH2 0x30D JUMP JUMPDEST PUSH1 0x40 MLOAD PUSH2 0x17A SWAP2 SWAP1 PUSH2 0xF9F JUMP JUMPDEST PUSH1 0x40 MLOAD DUP1 SWAP2 SUB SWAP1 RETURN JUMPDEST PUSH2 0x18B PUSH2 0x3B9 JUMP JUMPDEST PUSH1 0x40 MLOAD PUSH2 0x198 SWAP2 SWAP1 PUSH2 0xFD0 JUMP JUMPDEST PUSH1 0x40 MLOAD DUP1 SWAP2 SUB SWAP1 RETURN JUMPDEST PUSH2 0x1BB PUSH1 0x4 DUP1 CALLDATASIZE SUB DUP2 ADD SWAP1 PUSH2 0x1B6 SWAP2 SWAP1 PUSH2 0xE74 JUMP JUMPDEST PUSH2 0x3E2 JUMP JUMPDEST PUSH1 0x40 MLOAD PUSH2 0x1C8 SWAP2 SWAP1 PUSH2 0xE59 JUMP JUMPDEST PUSH1 0x40 MLOAD DUP1 SWAP2 SUB SWAP1 RETURN JUMPDEST PUSH2 0x1EB PUSH1 0x4 DUP1 CALLDATASIZE SUB DUP2 ADD SWAP1 PUSH2 0x1E6 SWAP2 SWAP1 PUSH2 0xE74 JUMP JUMPDEST PUSH2 0x4D0 JUMP JUMPDEST PUSH1 0x40 MLOAD PUSH2 0x1F8 SWAP2 SWAP1 PUSH2 0xFFA JUMP JUMPDEST PUSH1 0x40 MLOAD DUP1 SWAP2 SUB SWAP1 RETURN JUMPDEST PUSH2 0x21B PUSH1 0x4 DUP1 CALLDATASIZE SUB DUP2 ADD SWAP1 PUSH2 0x216 SWAP2 SWAP1 PUSH2 0xE74 JUMP JUMPDEST PUSH2 0x4E2 JUMP JUMPDEST PUSH1 0x40 MLOAD PUSH2 0x228 SWAP2 SWAP1 PUSH2 0xFD0 JUMP JUMPDEST PUSH1 0x40 MLOAD DUP1 SWAP2 SUB SWAP1 RETURN JUMPDEST PUSH2 0x24B PUSH1 0x4 DUP1 CALLDATASIZE SUB DUP2 ADD SWAP1 PUSH2 0x246 SWAP2 SWAP1 PUSH2 0x1015 JUMP JUMPDEST PUSH2 0x4F4 JUMP JUMPDEST PUSH1 0x40 MLOAD PUSH2 0x258 SWAP2 SWAP1 PUSH2 0xFD0 JUMP JUMPDEST PUSH1 0x40 MLOAD DUP1 SWAP2 SUB SWAP1 RETURN JUMPDEST PUSH2 0x27B PUSH1 0x4 DUP1 CALLDATASIZE SUB DUP2 ADD SWAP1 PUSH2 0x276 SWAP2 SWAP1 PUSH2 0x1071 JUMP JUMPDEST PUSH2 0x508 JUMP JUMPDEST STOP JUMPDEST PUSH2 0x285 PUSH2 0x58B JUMP JUMPDEST PUSH1 0x40 MLOAD PUSH2 0x292 SWAP2 SWAP1 PUSH2 0xFFA JUMP JUMPDEST PUSH1 0x40 MLOAD DUP1 SWAP2 SUB SWAP1 RETURN JUMPDEST PUSH1 0x0 PUSH2 0x2A7 DUP4 DUP4 PUSH2 0x591 JUMP JUMPDEST SWAP1 POP SWAP3 SWAP2 POP POP JUMP JUMPDEST PUSH1 0x0 PUSH2 0x2BB DUP4 DUP4 PUSH2 0x68E JUMP JUMPDEST SWAP1 POP SWAP3 SWAP2 POP POP JUMP JUMPDEST PUSH2 0x2CB PUSH2 0x7D7 JUMP JUMPDEST PUSH2 0x2D5 PUSH1 0x0 PUSH2 0x855 JUMP JUMPDEST JUMP JUMPDEST PUSH1 0x2 DUP2 DUP1 MLOAD PUSH1 0x20 DUP2 ADD DUP3 ADD DUP1 MLOAD DUP5 DUP3 MSTORE PUSH1 0x20 DUP4 ADD PUSH1 0x20 DUP6 ADD KECCAK256 DUP2 DUP4 MSTORE DUP1 SWAP6 POP POP POP POP POP POP PUSH1 0x0 SWAP2 POP SLOAD SWAP1 PUSH2 0x100 EXP SWAP1 DIV PUSH1 0xFF AND DUP2 JUMP JUMPDEST PUSH1 0x4 DUP2 DUP2 SLOAD DUP2 LT PUSH2 0x31D JUMPI PUSH1 0x0 DUP1 REVERT JUMPDEST SWAP1 PUSH1 0x0 MSTORE PUSH1 0x20 PUSH1 0x0 KECCAK256 ADD PUSH1 0x0 SWAP2 POP SWAP1 POP DUP1 SLOAD PUSH2 0x338 SWAP1 PUSH2 0x10CD JUMP JUMPDEST DUP1 PUSH1 0x1F ADD PUSH1 0x20 DUP1 SWAP2 DIV MUL PUSH1 0x20 ADD PUSH1 0x40 MLOAD SWAP1 DUP2 ADD PUSH1 0x40 MSTORE DUP1 SWAP3 SWAP2 SWAP1 DUP2 DUP2 MSTORE PUSH1 0x20 ADD DUP3 DUP1 SLOAD PUSH2 0x364 SWAP1 PUSH2 0x10CD JUMP JUMPDEST DUP1 ISZERO PUSH2 0x3B1 JUMPI DUP1 PUSH1 0x1F LT PUSH2 0x386 JUMPI PUSH2 0x100 DUP1 DUP4 SLOAD DIV MUL DUP4 MSTORE SWAP2 PUSH1 0x20 ADD SWAP2 PUSH2 0x3B1 JUMP JUMPDEST DUP3 ADD SWAP2 SWAP1 PUSH1 0x0 MSTORE PUSH1 0x20 PUSH1 0x0 KECCAK256 SWAP1 JUMPDEST DUP2 SLOAD DUP2 MSTORE SWAP1 PUSH1 0x1 ADD SWAP1 PUSH1 0x20 ADD DUP1 DUP4 GT PUSH2 0x394 JUMPI DUP3 SWAP1 SUB PUSH1 0x1F AND DUP3 ADD SWAP2 JUMPDEST POP POP POP POP POP DUP2 JUMP JUMPDEST PUSH1 0x0 DUP1 PUSH1 0x0 SWAP1 SLOAD SWAP1 PUSH2 0x100 EXP SWAP1 DIV PUSH20 0xFFFFFFFFFFFFFFFFFFFFFFFFFFFFFFFFFFFFFFFF AND SWAP1 POP SWAP1 JUMP JUMPDEST PUSH1 0x0 DUP2 PUSH1 0x2 DUP2 PUSH1 0x40 MLOAD PUSH2 0x3F5 SWAP2 SWAP1 PUSH2 0x113A JUMP JUMPDEST SWAP1 DUP2 MSTORE PUSH1 0x20 ADD PUSH1 0x40 MLOAD DUP1 SWAP2 SUB SWAP1 KECCAK256 PUSH1 0x0 SWAP1 SLOAD SWAP1 PUSH2 0x100 EXP SWAP1 DIV PUSH1 0xFF AND PUSH2 0x450 JUMPI PUSH1 0x40 MLOAD PUSH32 0x8C379A000000000000000000000000000000000000000000000000000000000 DUP2 MSTORE PUSH1 0x4 ADD PUSH2 0x447 SWAP1 PUSH2 0x11C3 JUMP JUMPDEST PUSH1 0x40 MLOAD DUP1 SWAP2 SUB SWAP1 REVERT JUMPDEST PUSH2 0x459 DUP2 PUSH2 0x919 JUMP JUMPDEST PUSH20 0xFFFFFFFFFFFFFFFFFFFFFFFFFFFFFFFFFFFFFFFF AND CALLER PUSH20 0xFFFFFFFFFFFFFFFFFFFFFFFFFFFFFFFFFFFFFFFF AND EQ PUSH2 0x4C6 JUMPI PUSH1 0x40 MLOAD PUSH32 0x8C379A000000000000000000000000000000000000000000000000000000000 DUP2 MSTORE PUSH1 0x4 ADD PUSH2 0x4BD SWAP1 PUSH2 0x1255 JUMP JUMPDEST PUSH1 0x40 MLOAD DUP1 SWAP2 SUB SWAP1 REVERT JUMPDEST PUSH1 0x1 SWAP2 POP POP SWAP2 SWAP1 POP JUMP JUMPDEST PUSH1 0x0 PUSH2 0x4DB DUP3 PUSH2 0x9C5 JUMP JUMPDEST SWAP1 POP SWAP2 SWAP1 POP JUMP JUMPDEST PUSH1 0x0 PUSH2 0x4ED DUP3 PUSH2 0x919 JUMP JUMPDEST SWAP1 POP SWAP2 SWAP1 POP JUMP JUMPDEST PUSH1 0x0 PUSH2 0x500 DUP4 DUP4 PUSH2 0xA6B JUMP JUMPDEST SWAP1 POP SWAP3 SWAP2 POP POP JUMP JUMPDEST PUSH2 0x510 PUSH2 0x7D7 JUMP JUMPDEST PUSH1 0x0 PUSH20 0xFFFFFFFFFFFFFFFFFFFFFFFFFFFFFFFFFFFFFFFF AND DUP2 PUSH20 0xFFFFFFFFFFFFFFFFFFFFFFFFFFFFFFFFFFFFFFFF AND SUB PUSH2 0x57F JUMPI PUSH1 0x40 MLOAD PUSH32 0x8C379A000000000000000000000000000000000000000000000000000000000 DUP2 MSTORE PUSH1 0x4 ADD PUSH2 0x576 SWAP1 PUSH2 0x12E7 JUMP JUMPDEST PUSH1 0x40 MLOAD DUP1 SWAP2 SUB SWAP1 REVERT JUMPDEST PUSH2 0x588 DUP2 PUSH2 0x855 JUMP JUMPDEST POP JUMP JUMPDEST PUSH1 0x1 SLOAD DUP2 JUMP JUMPDEST PUSH1 0x0 PUSH2 0x59B PUSH2 0x7D7 JUMP JUMPDEST DUP3 PUSH1 0x1 PUSH2 0x5C4 PUSH1 0x3 DUP4 PUSH1 0x40 MLOAD PUSH2 0x5B1 SWAP2 SWAP1 PUSH2 0x113A JUMP JUMPDEST SWAP1 DUP2 MSTORE PUSH1 0x20 ADD PUSH1 0x40 MLOAD DUP1 SWAP2 SUB SWAP1 KECCAK256 PUSH2 0xAF4 JUMP JUMPDEST LT ISZERO PUSH2 0x605 JUMPI PUSH1 0x40 MLOAD PUSH32 0x8C379A000000000000000000000000000000000000000000000000000000000 DUP2 MSTORE PUSH1 0x4 ADD PUSH2 0x5FC SWAP1 PUSH2 0x1379 JUMP JUMPDEST PUSH1 0x40 MLOAD DUP1 SWAP2 SUB SWAP1 REVERT JUMPDEST PUSH2 0x635 DUP4 PUSH1 0x3 DUP7 PUSH1 0x40 MLOAD PUSH2 0x619 SWAP2 SWAP1 PUSH2 0x113A JUMP JUMPDEST SWAP1 DUP2 MSTORE PUSH1 0x20 ADD PUSH1 0x40 MLOAD DUP1 SWAP2 SUB SWAP1 KECCAK256 PUSH2 0xB09 SWAP1 SWAP2 SWAP1 PUSH4 0xFFFFFFFF AND JUMP JUMPDEST POP DUP4 PUSH1 0x40 MLOAD PUSH2 0x644 SWAP2 SWAP1 PUSH2 0x113A JUMP JUMPDEST PUSH1 0x40 MLOAD DUP1 SWAP2 SUB SWAP1 KECCAK256 PUSH32 0x1F13CAEB007F29CD5FC6F97BCFF68492C71932A30B875A50BD24A06F71B719BD DUP5 PUSH1 0x40 MLOAD PUSH2 0x67B SWAP2 SWAP1 PUSH2 0xFD0 JUMP JUMPDEST PUSH1 0x40 MLOAD DUP1 SWAP2 SUB SWAP1 LOG2 PUSH1 0x1 SWAP2 POP POP SWAP3 SWAP2 POP POP JUMP JUMPDEST PUSH1 0x0 PUSH2 0x698 PUSH2 0x7D7 JUMP JUMPDEST DUP3 PUSH1 0x0 PUSH2 0x6C1 PUSH1 0x3 DUP4 PUSH1 0x40 MLOAD PUSH2 0x6AE SWAP2 SWAP1 PUSH2 0x113A JUMP JUMPDEST SWAP1 DUP2 MSTORE PUSH1 0x20 ADD PUSH1 0x40 MLOAD DUP1 SWAP2 SUB SWAP1 KECCAK256 PUSH2 0xAF4 JUMP JUMPDEST EQ PUSH2 0x701 JUMPI PUSH1 0x40 MLOAD PUSH32 0x8C379A000000000000000000000000000000000000000000000000000000000 DUP2 MSTORE PUSH1 0x4 ADD PUSH2 0x6F8 SWAP1 PUSH2 0x13E5 JUMP JUMPDEST PUSH1 0x40 MLOAD DUP1 SWAP2 SUB SWAP1 REVERT JUMPDEST PUSH1 0x1 PUSH1 0x0 DUP2 SLOAD DUP1 SWAP3 SWAP2 SWAP1 PUSH2 0x714 SWAP1 PUSH2 0x1434 JUMP JUMPDEST SWAP2 SWAP1 POP SSTORE POP PUSH2 0x749 DUP4 PUSH1 0x3 DUP7 PUSH1 0x40 MLOAD PUSH2 0x72D SWAP2 SWAP1 PUSH2 0x113A JUMP JUMPDEST SWAP1 DUP2 MSTORE PUSH1 0x20 ADD PUSH1 0x40 MLOAD DUP1 SWAP2 SUB SWAP1 KECCAK256 PUSH2 0xB09 SWAP1 SWAP2 SWAP1 PUSH4 0xFFFFFFFF AND JUMP JUMPDEST POP PUSH1 0x4 DUP5 SWAP1 DUP1 PUSH1 0x1 DUP2 SLOAD ADD DUP1 DUP3 SSTORE DUP1 SWAP2 POP POP PUSH1 0x1 SWAP1 SUB SWAP1 PUSH1 0x0 MSTORE PUSH1 0x20 PUSH1 0x0 KECCAK256 ADD PUSH1 0x0 SWAP1 SWAP2 SWAP1 SWAP2 SWAP1 SWAP2 POP SWAP1 DUP2 PUSH2 0x77E SWAP2 SWAP1 PUSH2 0x1628 JUMP JUMPDEST POP DUP4 PUSH1 0x40 MLOAD PUSH2 0x78D SWAP2 SWAP1 PUSH2 0x113A JUMP JUMPDEST PUSH1 0x40 MLOAD DUP1 SWAP2 SUB SWAP1 KECCAK256 PUSH32 0x4EFF43C6BB175FBF2B5C22BE9F2C9FA7A8F90FEF6E42A20A6F45A766C8221365 DUP5 PUSH1 0x40 MLOAD PUSH2 0x7C4 SWAP2 SWAP1 PUSH2 0xFD0 JUMP JUMPDEST PUSH1 0x40 MLOAD DUP1 SWAP2 SUB SWAP1 LOG2 PUSH1 0x1 SWAP2 POP POP SWAP3 SWAP2 POP POP JUMP JUMPDEST PUSH2 0x7DF PUSH2 0xB39 JUMP JUMPDEST PUSH20 0xFFFFFFFFFFFFFFFFFFFFFFFFFFFFFFFFFFFFFFFF AND PUSH2 0x7FD PUSH2 0x3B9 JUMP JUMPDEST PUSH20 0xFFFFFFFFFFFFFFFFFFFFFFFFFFFFFFFFFFFFFFFF AND EQ PUSH2 0x853 JUMPI PUSH1 0x40 MLOAD PUSH32 0x8C379A000000000000000000000000000000000000000000000000000000000 DUP2 MSTORE PUSH1 0x4 ADD PUSH2 0x84A SWAP1 PUSH2 0x1746 JUMP JUMPDEST PUSH1 0x40 MLOAD DUP1 SWAP2 SUB SWAP1 REVERT JUMPDEST JUMP JUMPDEST PUSH1 0x0 DUP1 PUSH1 0x0 SWAP1 SLOAD SWAP1 PUSH2 0x100 EXP SWAP1 DIV PUSH20 0xFFFFFFFFFFFFFFFFFFFFFFFFFFFFFFFFFFFFFFFF AND SWAP1 POP DUP2 PUSH1 0x0 DUP1 PUSH2 0x100 EXP DUP2 SLOAD DUP2 PUSH20 0xFFFFFFFFFFFFFFFFFFFFFFFFFFFFFFFFFFFFFFFF MUL NOT AND SWAP1 DUP4 PUSH20 0xFFFFFFFFFFFFFFFFFFFFFFFFFFFFFFFFFFFFFFFF AND MUL OR SWAP1 SSTORE POP DUP2 PUSH20 0xFFFFFFFFFFFFFFFFFFFFFFFFFFFFFFFFFFFFFFFF AND DUP2 PUSH20 0xFFFFFFFFFFFFFFFFFFFFFFFFFFFFFFFFFFFFFFFF AND PUSH32 0x8BE0079C531659141344CD1FD0A4F28419497F9722A3DAAFE3B4186F6B6457E0 PUSH1 0x40 MLOAD PUSH1 0x40 MLOAD DUP1 SWAP2 SUB SWAP1 LOG3 POP POP JUMP JUMPDEST PUSH1 0x0 DUP2 PUSH1 0x1 PUSH2 0x944 PUSH1 0x3 DUP4 PUSH1 0x40 MLOAD PUSH2 0x931 SWAP2 SWAP1 PUSH2 0x113A JUMP JUMPDEST SWAP1 DUP2 MSTORE PUSH1 0x20 ADD PUSH1 0x40 MLOAD DUP1 SWAP2 SUB SWAP1 KECCAK256 PUSH2 0xAF4 JUMP JUMPDEST LT ISZERO PUSH2 0x985 JUMPI PUSH1 0x40 MLOAD PUSH32 0x8C379A000000000000000000000000000000000000000000000000000000000 DUP2 MSTORE PUSH1 0x4 ADD PUSH2 0x97C SWAP1 PUSH2 0x1379 JUMP JUMPDEST PUSH1 0x40 MLOAD DUP1 SWAP2 SUB SWAP1 REVERT JUMPDEST PUSH2 0x9BD PUSH2 0x991 DUP5 PUSH2 0x9C5 JUMP JUMPDEST PUSH1 0x3 DUP6 PUSH1 0x40 MLOAD PUSH2 0x9A1 SWAP2 SWAP1 PUSH2 0x113A JUMP JUMPDEST SWAP1 DUP2 MSTORE PUSH1 0x20 ADD PUSH1 0x40 MLOAD DUP1 SWAP2 SUB SWAP1 KECCAK256 PUSH2 0xB41 SWAP1 SWAP2 SWAP1 PUSH4 0xFFFFFFFF AND JUMP JUMPDEST SWAP2 POP POP SWAP2 SWAP1 POP JUMP JUMPDEST PUSH1 0x0 DUP2 PUSH1 0x1 PUSH2 0x9F0 PUSH1 0x3 DUP4 PUSH1 0x40 MLOAD PUSH2 0x9DD SWAP2 SWAP1 PUSH2 0x113A JUMP JUMPDEST SWAP1 DUP2 MSTORE PUSH1 0x20 ADD PUSH1 0x40 MLOAD DUP1 SWAP2 SUB SWAP1 KECCAK256 PUSH2 0xAF4 JUMP JUMPDEST LT ISZERO PUSH2 0xA31 JUMPI PUSH1 0x40 MLOAD PUSH32 0x8C379A000000000000000000000000000000000000000000000000000000000 DUP2 MSTORE PUSH1 0x4 ADD PUSH2 0xA28 SWAP1 PUSH2 0x1379 JUMP JUMPDEST PUSH1 0x40 MLOAD DUP1 SWAP2 SUB SWAP1 REVERT JUMPDEST PUSH1 0x1 PUSH2 0xA59 PUSH1 0x3 DUP6 PUSH1 0x40 MLOAD PUSH2 0xA46 SWAP2 SWAP1 PUSH2 0x113A JUMP JUMPDEST SWAP1 DUP2 MSTORE PUSH1 0x20 ADD PUSH1 0x40 MLOAD DUP1 SWAP2 SUB SWAP1 KECCAK256 PUSH2 0xAF4 JUMP JUMPDEST PUSH2 0xA63 SWAP2 SWAP1 PUSH2 0x1766 JUMP JUMPDEST SWAP2 POP POP SWAP2 SWAP1 POP JUMP JUMPDEST PUSH1 0x0 DUP3 DUP3 PUSH2 0xA78 DUP3 PUSH2 0x9C5 JUMP JUMPDEST DUP2 GT ISZERO PUSH2 0xABA JUMPI PUSH1 0x40 MLOAD PUSH32 0x8C379A000000000000000000000000000000000000000000000000000000000 DUP2 MSTORE PUSH1 0x4 ADD PUSH2 0xAB1 SWAP1 PUSH2 0x180C JUMP JUMPDEST PUSH1 0x40 MLOAD DUP1 SWAP2 SUB SWAP1 REVERT JUMPDEST PUSH2 0xAEA DUP5 PUSH1 0x3 DUP8 PUSH1 0x40 MLOAD PUSH2 0xACE SWAP2 SWAP1 PUSH2 0x113A JUMP JUMPDEST SWAP1 DUP2 MSTORE PUSH1 0x20 ADD PUSH1 0x40 MLOAD DUP1 SWAP2 SUB SWAP1 KECCAK256 PUSH2 0xB41 SWAP1 SWAP2 SWAP1 PUSH4 0xFFFFFFFF AND JUMP JUMPDEST SWAP3 POP POP POP SWAP3 SWAP2 POP POP JUMP JUMPDEST PUSH1 0x0 PUSH2 0xB02 DUP3 PUSH1 0x0 ADD PUSH2 0xB5B JUMP JUMPDEST SWAP1 POP SWAP2 SWAP1 POP JUMP JUMPDEST PUSH1 0x0 PUSH2 0xB31 DUP4 PUSH1 0x0 ADD DUP4 PUSH20 0xFFFFFFFFFFFFFFFFFFFFFFFFFFFFFFFFFFFFFFFF AND PUSH1 0x0 SHL PUSH2 0xB6C JUMP JUMPDEST SWAP1 POP SWAP3 SWAP2 POP POP JUMP JUMPDEST PUSH1 0x0 CALLER SWAP1 POP SWAP1 JUMP JUMPDEST PUSH1 0x0 PUSH2 0xB50 DUP4 PUSH1 0x0 ADD DUP4 PUSH2 0xBDC JUMP JUMPDEST PUSH1 0x0 SHR SWAP1 POP SWAP3 SWAP2 POP POP JUMP JUMPDEST PUSH1 0x0 DUP2 PUSH1 0x0 ADD DUP1 SLOAD SWAP1 POP SWAP1 POP SWAP2 SWAP1 POP JUMP JUMPDEST PUSH1 0x0 PUSH2 0xB78 DUP4 DUP4 PUSH2 0xC07 JUMP JUMPDEST PUSH2 0xBD1 JUMPI DUP3 PUSH1 0x0 ADD DUP3 SWAP1 DUP1 PUSH1 0x1 DUP2 SLOAD ADD DUP1 DUP3 SSTORE DUP1 SWAP2 POP POP PUSH1 0x1 SWAP1 SUB SWAP1 PUSH1 0x0 MSTORE PUSH1 0x20 PUSH1 0x0 KECCAK256 ADD PUSH1 0x0 SWAP1 SWAP2 SWAP1 SWAP2 SWAP1 SWAP2 POP SSTORE DUP3 PUSH1 0x0 ADD DUP1 SLOAD SWAP1 POP DUP4 PUSH1 0x1 ADD PUSH1 0x0 DUP5 DUP2 MSTORE PUSH1 0x20 ADD SWAP1 DUP2 MSTORE PUSH1 0x20 ADD PUSH1 0x0 KECCAK256 DUP2 SWAP1 SSTORE POP PUSH1 0x1 SWAP1 POP PUSH2 0xBD6 JUMP JUMPDEST PUSH1 0x0 SWAP1 POP JUMPDEST SWAP3 SWAP2 POP POP JUMP JUMPDEST PUSH1 0x0 DUP3 PUSH1 0x0 ADD DUP3 DUP2 SLOAD DUP2 LT PUSH2 0xBF4 JUMPI PUSH2 0xBF3 PUSH2 0x182C JUMP JUMPDEST JUMPDEST SWAP1 PUSH1 0x0 MSTORE PUSH1 0x20 PUSH1 0x0 KECCAK256 ADD SLOAD SWAP1 POP SWAP3 SWAP2 POP POP JUMP JUMPDEST PUSH1 0x0 DUP1 DUP4 PUSH1 0x1 ADD PUSH1 0x0 DUP5 DUP2 MSTORE PUSH1 0x20 ADD SWAP1 DUP2 MSTORE PUSH1 0x20 ADD PUSH1 0x0 KECCAK256 SLOAD EQ ISZERO SWAP1 POP SWAP3 SWAP2 POP POP JUMP JUMPDEST PUSH1 0x0 PUSH1 0x40 MLOAD SWAP1 POP SWAP1 JUMP JUMPDEST PUSH1 0x0 DUP1 REVERT JUMPDEST PUSH1 0x0 DUP1 REVERT JUMPDEST PUSH1 0x0 DUP1 REVERT JUMPDEST PUSH1 0x0 DUP1 REVERT JUMPDEST PUSH1 0x0 PUSH1 0x1F NOT PUSH1 0x1F DUP4 ADD AND SWAP1 POP SWAP2 SWAP1 POP JUMP JUMPDEST PUSH32 0x4E487B7100000000000000000000000000000000000000000000000000000000 PUSH1 0x0 MSTORE PUSH1 0x41 PUSH1 0x4 MSTORE PUSH1 0x24 PUSH1 0x0 REVERT JUMPDEST PUSH2 0xC91 DUP3 PUSH2 0xC48 JUMP JUMPDEST DUP2 ADD DUP2 DUP2 LT PUSH8 0xFFFFFFFFFFFFFFFF DUP3 GT OR ISZERO PUSH2 0xCB0 JUMPI PUSH2 0xCAF PUSH2 0xC59 JUMP JUMPDEST JUMPDEST DUP1 PUSH1 0x40 MSTORE POP POP POP JUMP JUMPDEST PUSH1 0x0 PUSH2 0xCC3 PUSH2 0xC2A JUMP JUMPDEST SWAP1 POP PUSH2 0xCCF DUP3 DUP3 PUSH2 0xC88 JUMP JUMPDEST SWAP2 SWAP1 POP JUMP JUMPDEST PUSH1 0x0 PUSH8 0xFFFFFFFFFFFFFFFF DUP3 GT ISZERO PUSH2 0xCEF JUMPI PUSH2 0xCEE PUSH2 0xC59 JUMP JUMPDEST JUMPDEST PUSH2 0xCF8 DUP3 PUSH2 0xC48 JUMP JUMPDEST SWAP1 POP PUSH1 0x20 DUP2 ADD SWAP1 POP SWAP2 SWAP1 POP JUMP JUMPDEST DUP3 DUP2 DUP4 CALLDATACOPY PUSH1 0x0 DUP4 DUP4 ADD MSTORE POP POP POP JUMP JUMPDEST PUSH1 0x0 PUSH2 0xD27 PUSH2 0xD22 DUP5 PUSH2 0xCD4 JUMP JUMPDEST PUSH2 0xCB9 JUMP JUMPDEST SWAP1 POP DUP3 DUP2 MSTORE PUSH1 0x20 DUP2 ADD DUP5 DUP5 DUP5 ADD GT ISZERO PUSH2 0xD43 JUMPI PUSH2 0xD42 PUSH2 0xC43 JUMP JUMPDEST JUMPDEST PUSH2 0xD4E DUP5 DUP3 DUP6 PUSH2 0xD05 JUMP JUMPDEST POP SWAP4 SWAP3 POP POP POP JUMP JUMPDEST PUSH1 0x0 DUP3 PUSH1 0x1F DUP4 ADD SLT PUSH2 0xD6B JUMPI PUSH2 0xD6A PUSH2 0xC3E JUMP JUMPDEST JUMPDEST DUP2 CALLDATALOAD PUSH2 0xD7B DUP5 DUP3 PUSH1 0x20 DUP7 ADD PUSH2 0xD14 JUMP JUMPDEST SWAP2 POP POP SWAP3 SWAP2 POP POP JUMP JUMPDEST PUSH1 0x0 PUSH20 0xFFFFFFFFFFFFFFFFFFFFFFFFFFFFFFFFFFFFFFFF DUP3 AND SWAP1 POP SWAP2 SWAP1 POP JUMP JUMPDEST PUSH1 0x0 PUSH2 0xDAF DUP3 PUSH2 0xD84 JUMP JUMPDEST SWAP1 POP SWAP2 SWAP1 POP JUMP JUMPDEST PUSH2 0xDBF DUP2 PUSH2 0xDA4 JUMP JUMPDEST DUP2 EQ PUSH2 0xDCA JUMPI PUSH1 0x0 DUP1 REVERT JUMPDEST POP JUMP JUMPDEST PUSH1 0x0 DUP2 CALLDATALOAD SWAP1 POP PUSH2 0xDDC DUP2 PUSH2 0xDB6 JUMP JUMPDEST SWAP3 SWAP2 POP POP JUMP JUMPDEST PUSH1 0x0 DUP1 PUSH1 0x40 DUP4 DUP6 SUB SLT ISZERO PUSH2 0xDF9 JUMPI PUSH2 0xDF8 PUSH2 0xC34 JUMP JUMPDEST JUMPDEST PUSH1 0x0 DUP4 ADD CALLDATALOAD PUSH8 0xFFFFFFFFFFFFFFFF DUP2 GT ISZERO PUSH2 0xE17 JUMPI PUSH2 0xE16 PUSH2 0xC39 JUMP JUMPDEST JUMPDEST PUSH2 0xE23 DUP6 DUP3 DUP7 ADD PUSH2 0xD56 JUMP JUMPDEST SWAP3 POP POP PUSH1 0x20 PUSH2 0xE34 DUP6 DUP3 DUP7 ADD PUSH2 0xDCD JUMP JUMPDEST SWAP2 POP POP SWAP3 POP SWAP3 SWAP1 POP JUMP JUMPDEST PUSH1 0x0 DUP2 ISZERO ISZERO SWAP1 POP SWAP2 SWAP1 POP JUMP JUMPDEST PUSH2 0xE53 DUP2 PUSH2 0xE3E JUMP JUMPDEST DUP3 MSTORE POP POP JUMP JUMPDEST PUSH1 0x0 PUSH1 0x20 DUP3 ADD SWAP1 POP PUSH2 0xE6E PUSH1 0x0 DUP4 ADD DUP5 PUSH2 0xE4A JUMP JUMPDEST SWAP3 SWAP2 POP POP JUMP JUMPDEST PUSH1 0x0 PUSH1 0x20 DUP3 DUP5 SUB SLT ISZERO PUSH2 0xE8A JUMPI PUSH2 0xE89 PUSH2 0xC34 JUMP JUMPDEST JUMPDEST PUSH1 0x0 DUP3 ADD CALLDATALOAD PUSH8 0xFFFFFFFFFFFFFFFF DUP2 GT ISZERO PUSH2 0xEA8 JUMPI PUSH2 0xEA7 PUSH2 0xC39 JUMP JUMPDEST JUMPDEST PUSH2 0xEB4 DUP5 DUP3 DUP6 ADD PUSH2 0xD56 JUMP JUMPDEST SWAP2 POP POP SWAP3 SWAP2 POP POP JUMP JUMPDEST PUSH1 0x0 DUP2 SWAP1 POP SWAP2 SWAP1 POP JUMP JUMPDEST PUSH2 0xED0 DUP2 PUSH2 0xEBD JUMP JUMPDEST DUP2 EQ PUSH2 0xEDB JUMPI PUSH1 0x0 DUP1 REVERT JUMPDEST POP JUMP JUMPDEST PUSH1 0x0 DUP2 CALLDATALOAD SWAP1 POP PUSH2 0xEED DUP2 PUSH2 0xEC7 JUMP JUMPDEST SWAP3 SWAP2 POP POP JUMP JUMPDEST PUSH1 0x0 PUSH1 0x20 DUP3 DUP5 SUB SLT ISZERO PUSH2 0xF09 JUMPI PUSH2 0xF08 PUSH2 0xC34 JUMP JUMPDEST JUMPDEST PUSH1 0x0 PUSH2 0xF17 DUP5 DUP3 DUP6 ADD PUSH2 0xEDE JUMP JUMPDEST SWAP2 POP POP SWAP3 SWAP2 POP POP JUMP JUMPDEST PUSH1 0x0 DUP2 MLOAD SWAP1 POP SWAP2 SWAP1 POP JUMP JUMPDEST PUSH1 0x0 DUP3 DUP3 MSTORE PUSH1 0x20 DUP3 ADD SWAP1 POP SWAP3 SWAP2 POP POP JUMP JUMPDEST PUSH1 0x0 JUMPDEST DUP4 DUP2 LT ISZERO PUSH2 0xF5A JUMPI DUP1 DUP3 ADD MLOAD DUP2 DUP5 ADD MSTORE PUSH1 0x20 DUP2 ADD SWAP1 POP PUSH2 0xF3F JUMP JUMPDEST PUSH1 0x0 DUP5 DUP5 ADD MSTORE POP POP POP POP JUMP JUMPDEST PUSH1 0x0 PUSH2 0xF71 DUP3 PUSH2 0xF20 JUMP JUMPDEST PUSH2 0xF7B DUP2 DUP6 PUSH2 0xF2B JUMP JUMPDEST SWAP4 POP PUSH2 0xF8B DUP2 DUP6 PUSH1 0x20 DUP7 ADD PUSH2 0xF3C JUMP JUMPDEST PUSH2 0xF94 DUP2 PUSH2 0xC48 JUMP JUMPDEST DUP5 ADD SWAP2 POP POP SWAP3 SWAP2 POP POP JUMP JUMPDEST PUSH1 0x0 PUSH1 0x20 DUP3 ADD SWAP1 POP DUP2 DUP2 SUB PUSH1 0x0 DUP4 ADD MSTORE PUSH2 0xFB9 DUP2 DUP5 PUSH2 0xF66 JUMP JUMPDEST SWAP1 POP SWAP3 SWAP2 POP POP JUMP JUMPDEST PUSH2 0xFCA DUP2 PUSH2 0xDA4 JUMP JUMPDEST DUP3 MSTORE POP POP JUMP JUMPDEST PUSH1 0x0 PUSH1 0x20 DUP3 ADD SWAP1 POP PUSH2 0xFE5 PUSH1 0x0 DUP4 ADD DUP5 PUSH2 0xFC1 JUMP JUMPDEST SWAP3 SWAP2 POP POP JUMP JUMPDEST PUSH2 0xFF4 DUP2 PUSH2 0xEBD JUMP JUMPDEST DUP3 MSTORE POP POP JUMP JUMPDEST PUSH1 0x0 PUSH1 0x20 DUP3 ADD SWAP1 POP PUSH2 0x100F PUSH1 0x0 DUP4 ADD DUP5 PUSH2 0xFEB JUMP JUMPDEST SWAP3 SWAP2 POP POP JUMP JUMPDEST PUSH1 0x0 DUP1 PUSH1 0x40 DUP4 DUP6 SUB SLT ISZERO PUSH2 0x102C JUMPI PUSH2 0x102B PUSH2 0xC34 JUMP JUMPDEST JUMPDEST PUSH1 0x0 DUP4 ADD CALLDATALOAD PUSH8 0xFFFFFFFFFFFFFFFF DUP2 GT ISZERO PUSH2 0x104A JUMPI PUSH2 0x1049 PUSH2 0xC39 JUMP JUMPDEST JUMPDEST PUSH2 0x1056 DUP6 DUP3 DUP7 ADD PUSH2 0xD56 JUMP JUMPDEST SWAP3 POP POP PUSH1 0x20 PUSH2 0x1067 DUP6 DUP3 DUP7 ADD PUSH2 0xEDE JUMP JUMPDEST SWAP2 POP POP SWAP3 POP SWAP3 SWAP1 POP JUMP JUMPDEST PUSH1 0x0 PUSH1 0x20 DUP3 DUP5 SUB SLT ISZERO PUSH2 0x1087 JUMPI PUSH2 0x1086 PUSH2 0xC34 JUMP JUMPDEST JUMPDEST PUSH1 0x0 PUSH2 0x1095 DUP5 DUP3 DUP6 ADD PUSH2 0xDCD JUMP JUMPDEST SWAP2 POP POP SWAP3 SWAP2 POP POP JUMP JUMPDEST PUSH32 0x4E487B7100000000000000000000000000000000000000000000000000000000 PUSH1 0x0 MSTORE PUSH1 0x22 PUSH1 0x4 MSTORE PUSH1 0x24 PUSH1 0x0 REVERT JUMPDEST PUSH1 0x0 PUSH1 0x2 DUP3 DIV SWAP1 POP PUSH1 0x1 DUP3 AND DUP1 PUSH2 0x10E5 JUMPI PUSH1 0x7F DUP3 AND SWAP2 POP JUMPDEST PUSH1 0x20 DUP3 LT DUP2 SUB PUSH2 0x10F8 JUMPI PUSH2 0x10F7 PUSH2 0x109E JUMP JUMPDEST JUMPDEST POP SWAP2 SWAP1 POP JUMP JUMPDEST PUSH1 0x0 DUP2 SWAP1 POP SWAP3 SWAP2 POP POP JUMP JUMPDEST PUSH1 0x0 PUSH2 0x1114 DUP3 PUSH2 0xF20 JUMP JUMPDEST PUSH2 0x111E DUP2 DUP6 PUSH2 0x10FE JUMP JUMPDEST SWAP4 POP PUSH2 0x112E DUP2 DUP6 PUSH1 0x20 DUP7 ADD PUSH2 0xF3C JUMP JUMPDEST DUP1 DUP5 ADD SWAP2 POP POP SWAP3 SWAP2 POP POP JUMP JUMPDEST PUSH1 0x0 PUSH2 0x1146 DUP3 DUP5 PUSH2 0x1109 JUMP JUMPDEST SWAP2 POP DUP2 SWAP1 POP SWAP3 SWAP2 POP POP JUMP JUMPDEST PUSH32 0x4D6F64756C654D616E616765723A204D6F64756C6520646F6573206E6F742068 PUSH1 0x0 DUP3 ADD MSTORE PUSH32 0x61766520676F7665726E616E6365207065726D697373696F6E2E000000000000 PUSH1 0x20 DUP3 ADD MSTORE POP JUMP JUMPDEST PUSH1 0x0 PUSH2 0x11AD PUSH1 0x3A DUP4 PUSH2 0xF2B JUMP JUMPDEST SWAP2 POP PUSH2 0x11B8 DUP3 PUSH2 0x1151 JUMP JUMPDEST PUSH1 0x40 DUP3 ADD SWAP1 POP SWAP2 SWAP1 POP JUMP JUMPDEST PUSH1 0x0 PUSH1 0x20 DUP3 ADD SWAP1 POP DUP2 DUP2 SUB PUSH1 0x0 DUP4 ADD MSTORE PUSH2 0x11DC DUP2 PUSH2 0x11A0 JUMP JUMPDEST SWAP1 POP SWAP2 SWAP1 POP JUMP JUMPDEST PUSH32 0x4D6F64756C654D616E616765723A2043616C6C6572206973206E6F7420746865 PUSH1 0x0 DUP3 ADD MSTORE PUSH32 0x206C617465737420696D706C656D656E746174696F6E2E000000000000000000 PUSH1 0x20 DUP3 ADD MSTORE POP JUMP JUMPDEST PUSH1 0x0 PUSH2 0x123F PUSH1 0x37 DUP4 PUSH2 0xF2B JUMP JUMPDEST SWAP2 POP PUSH2 0x124A DUP3 PUSH2 0x11E3 JUMP JUMPDEST PUSH1 0x40 DUP3 ADD SWAP1 POP SWAP2 SWAP1 POP JUMP JUMPDEST PUSH1 0x0 PUSH1 0x20 DUP3 ADD SWAP1 POP DUP2 DUP2 SUB PUSH1 0x0 DUP4 ADD MSTORE PUSH2 0x126E DUP2 PUSH2 0x1232 JUMP JUMPDEST SWAP1 POP SWAP2 SWAP1 POP JUMP JUMPDEST PUSH32 0x4F776E61626C653A206E6577206F776E657220697320746865207A65726F2061 PUSH1 0x0 DUP3 ADD MSTORE PUSH32 0x6464726573730000000000000000000000000000000000000000000000000000 PUSH1 0x20 DUP3 ADD MSTORE POP JUMP JUMPDEST PUSH1 0x0 PUSH2 0x12D1 PUSH1 0x26 DUP4 PUSH2 0xF2B JUMP JUMPDEST SWAP2 POP PUSH2 0x12DC DUP3 PUSH2 0x1275 JUMP JUMPDEST PUSH1 0x40 DUP3 ADD SWAP1 POP SWAP2 SWAP1 POP JUMP JUMPDEST PUSH1 0x0 PUSH1 0x20 DUP3 ADD SWAP1 POP DUP2 DUP2 SUB PUSH1 0x0 DUP4 ADD MSTORE PUSH2 0x1300 DUP2 PUSH2 0x12C4 JUMP JUMPDEST SWAP1 POP SWAP2 SWAP1 POP JUMP JUMPDEST PUSH32 0x4D6F64756C654D616E616765723A204D6F64756C6520776173206E6F7420666F PUSH1 0x0 DUP3 ADD MSTORE PUSH32 0x756E642E00000000000000000000000000000000000000000000000000000000 PUSH1 0x20 DUP3 ADD MSTORE POP JUMP JUMPDEST PUSH1 0x0 PUSH2 0x1363 PUSH1 0x24 DUP4 PUSH2 0xF2B JUMP JUMPDEST SWAP2 POP PUSH2 0x136E DUP3 PUSH2 0x1307 JUMP JUMPDEST PUSH1 0x40 DUP3 ADD SWAP1 POP SWAP2 SWAP1 POP JUMP JUMPDEST PUSH1 0x0 PUSH1 0x20 DUP3 ADD SWAP1 POP DUP2 DUP2 SUB PUSH1 0x0 DUP4 ADD MSTORE PUSH2 0x1392 DUP2 PUSH2 0x1356 JUMP JUMPDEST SWAP1 POP SWAP2 SWAP1 POP JUMP JUMPDEST PUSH32 0x4D6F64756C654D616E616765723A204D6F64756C652077617320666F756E642E PUSH1 0x0 DUP3 ADD MSTORE POP JUMP JUMPDEST PUSH1 0x0 PUSH2 0x13CF PUSH1 0x20 DUP4 PUSH2 0xF2B JUMP JUMPDEST SWAP2 POP PUSH2 0x13DA DUP3 PUSH2 0x1399 JUMP JUMPDEST PUSH1 0x20 DUP3 ADD SWAP1 POP SWAP2 SWAP1 POP JUMP JUMPDEST PUSH1 0x0 PUSH1 0x20 DUP3 ADD SWAP1 POP DUP2 DUP2 SUB PUSH1 0x0 DUP4 ADD MSTORE PUSH2 0x13FE DUP2 PUSH2 0x13C2 JUMP JUMPDEST SWAP1 POP SWAP2 SWAP1 POP JUMP JUMPDEST PUSH32 0x4E487B7100000000000000000000000000000000000000000000000000000000 PUSH1 0x0 MSTORE PUSH1 0x11 PUSH1 0x4 MSTORE PUSH1 0x24 PUSH1 0x0 REVERT JUMPDEST PUSH1 0x0 PUSH2 0x143F DUP3 PUSH2 0xEBD JUMP JUMPDEST SWAP2 POP PUSH32 0xFFFFFFFFFFFFFFFFFFFFFFFFFFFFFFFFFFFFFFFFFFFFFFFFFFFFFFFFFFFFFFFF DUP3 SUB PUSH2 0x1471 JUMPI PUSH2 0x1470 PUSH2 0x1405 JUMP JUMPDEST JUMPDEST PUSH1 0x1 DUP3 ADD SWAP1 POP SWAP2 SWAP1 POP JUMP JUMPDEST PUSH1 0x0 DUP2 SWAP1 POP DUP2 PUSH1 0x0 MSTORE PUSH1 0x20 PUSH1 0x0 KECCAK256 SWAP1 POP SWAP2 SWAP1 POP JUMP JUMPDEST PUSH1 0x0 PUSH1 0x20 PUSH1 0x1F DUP4 ADD DIV SWAP1 POP SWAP2 SWAP1 POP JUMP JUMPDEST PUSH1 0x0 DUP3 DUP3 SHL SWAP1 POP SWAP3 SWAP2 POP POP JUMP JUMPDEST PUSH1 0x0 PUSH1 0x8 DUP4 MUL PUSH2 0x14DE PUSH32 0xFFFFFFFFFFFFFFFFFFFFFFFFFFFFFFFFFFFFFFFFFFFFFFFFFFFFFFFFFFFFFFFF DUP3 PUSH2 0x14A1 JUMP JUMPDEST PUSH2 0x14E8 DUP7 DUP4 PUSH2 0x14A1 JUMP JUMPDEST SWAP6 POP DUP1 NOT DUP5 AND SWAP4 POP DUP1 DUP7 AND DUP5 OR SWAP3 POP POP POP SWAP4 SWAP3 POP POP POP JUMP JUMPDEST PUSH1 0x0 DUP2 SWAP1 POP SWAP2 SWAP1 POP JUMP JUMPDEST PUSH1 0x0 PUSH2 0x1525 PUSH2 0x1520 PUSH2 0x151B DUP5 PUSH2 0xEBD JUMP JUMPDEST PUSH2 0x1500 JUMP JUMPDEST PUSH2 0xEBD JUMP JUMPDEST SWAP1 POP SWAP2 SWAP1 POP JUMP JUMPDEST PUSH1 0x0 DUP2 SWAP1 POP SWAP2 SWAP1 POP JUMP JUMPDEST PUSH2 0x153F DUP4 PUSH2 0x150A JUMP JUMPDEST PUSH2 0x1553 PUSH2 0x154B DUP3 PUSH2 0x152C JUMP JUMPDEST DUP5 DUP5 SLOAD PUSH2 0x14AE JUMP JUMPDEST DUP3 SSTORE POP POP POP POP JUMP JUMPDEST PUSH1 0x0 SWAP1 JUMP JUMPDEST PUSH2 0x1568 PUSH2 0x155B JUMP JUMPDEST PUSH2 0x1573 DUP2 DUP5 DUP5 PUSH2 0x1536 JUMP JUMPDEST POP POP POP JUMP JUMPDEST JUMPDEST DUP2 DUP2 LT ISZERO PUSH2 0x1597 JUMPI PUSH2 0x158C PUSH1 0x0 DUP3 PUSH2 0x1560 JUMP JUMPDEST PUSH1 0x1 DUP2 ADD SWAP1 POP PUSH2 0x1579 JUMP JUMPDEST POP POP JUMP JUMPDEST PUSH1 0x1F DUP3 GT ISZERO PUSH2 0x15DC JUMPI PUSH2 0x15AD DUP2 PUSH2 0x147C JUMP JUMPDEST PUSH2 0x15B6 DUP5 PUSH2 0x1491 JUMP JUMPDEST DUP2 ADD PUSH1 0x20 DUP6 LT ISZERO PUSH2 0x15C5 JUMPI DUP2 SWAP1 POP JUMPDEST PUSH2 0x15D9 PUSH2 0x15D1 DUP6 PUSH2 0x1491 JUMP JUMPDEST DUP4 ADD DUP3 PUSH2 0x1578 JUMP JUMPDEST POP POP JUMPDEST POP POP POP JUMP JUMPDEST PUSH1 0x0 DUP3 DUP3 SHR SWAP1 POP SWAP3 SWAP2 POP POP JUMP JUMPDEST PUSH1 0x0 PUSH2 0x15FF PUSH1 0x0 NOT DUP5 PUSH1 0x8 MUL PUSH2 0x15E1 JUMP JUMPDEST NOT DUP1 DUP4 AND SWAP2 POP POP SWAP3 SWAP2 POP POP JUMP JUMPDEST PUSH1 0x0 PUSH2 0x1618 DUP4 DUP4 PUSH2 0x15EE JUMP JUMPDEST SWAP2 POP DUP3 PUSH1 0x2 MUL DUP3 OR SWAP1 POP SWAP3 SWAP2 POP POP JUMP JUMPDEST PUSH2 0x1631 DUP3 PUSH2 0xF20 JUMP JUMPDEST PUSH8 0xFFFFFFFFFFFFFFFF DUP2 GT ISZERO PUSH2 0x164A JUMPI PUSH2 0x1649 PUSH2 0xC59 JUMP JUMPDEST JUMPDEST PUSH2 0x1654 DUP3 SLOAD PUSH2 0x10CD JUMP JUMPDEST PUSH2 0x165F DUP3 DUP3 DUP6 PUSH2 0x159B JUMP JUMPDEST PUSH1 0x0 PUSH1 0x20 SWAP1 POP PUSH1 0x1F DUP4 GT PUSH1 0x1 DUP2 EQ PUSH2 0x1692 JUMPI PUSH1 0x0 DUP5 ISZERO PUSH2 0x1680 JUMPI DUP3 DUP8 ADD MLOAD SWAP1 POP JUMPDEST PUSH2 0x168A DUP6 DUP3 PUSH2 0x160C JUMP JUMPDEST DUP7 SSTORE POP PUSH2 0x16F2 JUMP JUMPDEST PUSH1 0x1F NOT DUP5 AND PUSH2 0x16A0 DUP7 PUSH2 0x147C JUMP JUMPDEST PUSH1 0x0 JUMPDEST DUP3 DUP2 LT ISZERO PUSH2 0x16C8 JUMPI DUP5 DUP10 ADD MLOAD DUP3 SSTORE PUSH1 0x1 DUP3 ADD SWAP2 POP PUSH1 0x20 DUP6 ADD SWAP5 POP PUSH1 0x20 DUP2 ADD SWAP1 POP PUSH2 0x16A3 JUMP JUMPDEST DUP7 DUP4 LT ISZERO PUSH2 0x16E5 JUMPI DUP5 DUP10 ADD MLOAD PUSH2 0x16E1 PUSH1 0x1F DUP10 AND DUP3 PUSH2 0x15EE JUMP JUMPDEST DUP4 SSTORE POP JUMPDEST PUSH1 0x1 PUSH1 0x2 DUP9 MUL ADD DUP9 SSTORE POP POP POP JUMPDEST POP POP POP POP POP POP JUMP JUMPDEST PUSH32 0x4F776E61626C653A2063616C6C6572206973206E6F7420746865206F776E6572 PUSH1 0x0 DUP3 ADD MSTORE POP JUMP JUMPDEST PUSH1 0x0 PUSH2 0x1730 PUSH1 0x20 DUP4 PUSH2 0xF2B JUMP JUMPDEST SWAP2 POP PUSH2 0x173B DUP3 PUSH2 0x16FA JUMP JUMPDEST PUSH1 0x20 DUP3 ADD SWAP1 POP SWAP2 SWAP1 POP JUMP JUMPDEST PUSH1 0x0 PUSH1 0x20 DUP3 ADD SWAP1 POP DUP2 DUP2 SUB PUSH1 0x0 DUP4 ADD MSTORE PUSH2 0x175F DUP2 PUSH2 0x1723 JUMP JUMPDEST SWAP1 POP SWAP2 SWAP1 POP JUMP JUMPDEST PUSH1 0x0 PUSH2 0x1771 DUP3 PUSH2 0xEBD JUMP JUMPDEST SWAP2 POP PUSH2 0x177C DUP4 PUSH2 0xEBD JUMP JUMPDEST SWAP3 POP DUP3 DUP3 SUB SWAP1 POP DUP2 DUP2 GT ISZERO PUSH2 0x1794 JUMPI PUSH2 0x1793 PUSH2 0x1405 JUMP JUMPDEST JUMPDEST SWAP3 SWAP2 POP POP JUMP JUMPDEST PUSH32 0x4D6F64756C654D616E616765723A2056657273696F6E20776173206E6F742066 PUSH1 0x0 DUP3 ADD MSTORE PUSH32 0x6F756E642E000000000000000000000000000000000000000000000000000000 PUSH1 0x20 DUP3 ADD MSTORE POP JUMP JUMPDEST PUSH1 0x0 PUSH2 0x17F6 PUSH1 0x25 DUP4 PUSH2 0xF2B JUMP JUMPDEST SWAP2 POP PUSH2 0x1801 DUP3 PUSH2 0x179A JUMP JUMPDEST PUSH1 0x40 DUP3 ADD SWAP1 POP SWAP2 SWAP1 POP JUMP JUMPDEST PUSH1 0x0 PUSH1 0x20 DUP3 ADD SWAP1 POP DUP2 DUP2 SUB PUSH1 0x0 DUP4 ADD MSTORE PUSH2 0x1825 DUP2 PUSH2 0x17E9 JUMP JUMPDEST SWAP1 POP SWAP2 SWAP1 POP JUMP JUMPDEST PUSH32 0x4E487B7100000000000000000000000000000000000000000000000000000000 PUSH1 0x0 MSTORE PUSH1 0x32 PUSH1 0x4 MSTORE PUSH1 0x24 PUSH1 0x0 REVERT INVALID LOG2 PUSH5 0x6970667358 0x22 SLT KECCAK256 0xE9 CALLDATASIZE 0x24 JUMP 0xB7 0xD8 0xC8 0xBC OR DUP2 0x5E 0x4A 0xAC PUSH16 0xFEF21DCED209FF22480608E286510C20 MULMOD 0xD5 PUSH5 0x736F6C6343 STOP ADDMOD SGT STOP CALLER "
				},
				"gasEstimates": {
					"creation": {
						"codeDepositCost": "1257800",
						"executionCost": "infinite",
						"totalCost": "infinite"
					},
					"external": {
						"aquire(string,address)": "infinite",
						"getImplementation(string,uint256)": "infinite",
						"getLatestImplementation(string)": "infinite",
						"getLatestVersion(string)": "infinite",
						"hasGovernancePermission(string)": "infinite",
						"hasGovernancePermission_(string)": "infinite",
						"modules(uint256)": "infinite",
						"numberOfModules()": "2539",
						"owner()": "2633",
						"renounceOwnership()": "30443",
						"transferOwnership(address)": "30832",
						"upgrade(string,address)": "infinite"
					},
					"internal": {
						"_aquire(string memory,address)": "infinite",
						"_getImplementation(string memory,uint256)": "infinite",
						"_getLatestImplementation(string memory)": "infinite",
						"_getLatestVersion(string memory)": "infinite",
						"_upgrade(string memory,address)": "infinite"
					}
				},
				"methodIdentifiers": {
					"aquire(string,address)": "54cbbd6e",
					"getImplementation(string,uint256)": "e8009dda",
					"getLatestImplementation(string)": "d285f839",
					"getLatestVersion(string)": "cae96761",
					"hasGovernancePermission(string)": "7ac3ab14",
					"hasGovernancePermission_(string)": "980d37e8",
					"modules(uint256)": "81b2248a",
					"numberOfModules()": "f3f342fa",
					"owner()": "8da5cb5b",
					"renounceOwnership()": "715018a6",
					"transferOwnership(address)": "f2fde38b",
					"upgrade(string,address)": "5332c74d"
				}
			},
			"storageLayout": {
				"storage": [
					{
						"astId": 7,
						"contract": "contracts/templates/modular_upgradeable/ModuleManager.sol:ModuleManager",
						"label": "_owner",
						"offset": 0,
						"slot": "0",
						"type": "t_address"
					},
					{
						"astId": 807,
						"contract": "contracts/templates/modular_upgradeable/ModuleManager.sol:ModuleManager",
						"label": "numberOfModules",
						"offset": 0,
						"slot": "1",
						"type": "t_uint256"
					},
					{
						"astId": 811,
						"contract": "contracts/templates/modular_upgradeable/ModuleManager.sol:ModuleManager",
						"label": "hasGovernancePermission",
						"offset": 0,
						"slot": "2",
						"type": "t_mapping(t_string_memory_ptr,t_bool)"
					},
					{
						"astId": 816,
						"contract": "contracts/templates/modular_upgradeable/ModuleManager.sol:ModuleManager",
						"label": "_implementations",
						"offset": 0,
						"slot": "3",
						"type": "t_mapping(t_string_memory_ptr,t_struct(AddressSet)461_storage)"
					},
					{
						"astId": 819,
						"contract": "contracts/templates/modular_upgradeable/ModuleManager.sol:ModuleManager",
						"label": "modules",
						"offset": 0,
						"slot": "4",
						"type": "t_array(t_string_storage)dyn_storage"
					}
				],
				"types": {
					"t_address": {
						"encoding": "inplace",
						"label": "address",
						"numberOfBytes": "20"
					},
					"t_array(t_bytes32)dyn_storage": {
						"base": "t_bytes32",
						"encoding": "dynamic_array",
						"label": "bytes32[]",
						"numberOfBytes": "32"
					},
					"t_array(t_string_storage)dyn_storage": {
						"base": "t_string_storage",
						"encoding": "dynamic_array",
						"label": "string[]",
						"numberOfBytes": "32"
					},
					"t_bool": {
						"encoding": "inplace",
						"label": "bool",
						"numberOfBytes": "1"
					},
					"t_bytes32": {
						"encoding": "inplace",
						"label": "bytes32",
						"numberOfBytes": "32"
					},
					"t_mapping(t_bytes32,t_uint256)": {
						"encoding": "mapping",
						"key": "t_bytes32",
						"label": "mapping(bytes32 => uint256)",
						"numberOfBytes": "32",
						"value": "t_uint256"
					},
					"t_mapping(t_string_memory_ptr,t_bool)": {
						"encoding": "mapping",
						"key": "t_string_memory_ptr",
						"label": "mapping(string => bool)",
						"numberOfBytes": "32",
						"value": "t_bool"
					},
					"t_mapping(t_string_memory_ptr,t_struct(AddressSet)461_storage)": {
						"encoding": "mapping",
						"key": "t_string_memory_ptr",
						"label": "mapping(string => struct EnumerableSet.AddressSet)",
						"numberOfBytes": "32",
						"value": "t_struct(AddressSet)461_storage"
					},
					"t_string_memory_ptr": {
						"encoding": "bytes",
						"label": "string",
						"numberOfBytes": "32"
					},
					"t_string_storage": {
						"encoding": "bytes",
						"label": "string",
						"numberOfBytes": "32"
					},
					"t_struct(AddressSet)461_storage": {
						"encoding": "inplace",
						"label": "struct EnumerableSet.AddressSet",
						"members": [
							{
								"astId": 460,
								"contract": "contracts/templates/modular_upgradeable/ModuleManager.sol:ModuleManager",
								"label": "_inner",
								"offset": 0,
								"slot": "0",
								"type": "t_struct(Set)146_storage"
							}
						],
						"numberOfBytes": "64"
					},
					"t_struct(Set)146_storage": {
						"encoding": "inplace",
						"label": "struct EnumerableSet.Set",
						"members": [
							{
								"astId": 141,
								"contract": "contracts/templates/modular_upgradeable/ModuleManager.sol:ModuleManager",
								"label": "_values",
								"offset": 0,
								"slot": "0",
								"type": "t_array(t_bytes32)dyn_storage"
							},
							{
								"astId": 145,
								"contract": "contracts/templates/modular_upgradeable/ModuleManager.sol:ModuleManager",
								"label": "_indexes",
								"offset": 0,
								"slot": "1",
								"type": "t_mapping(t_bytes32,t_uint256)"
							}
						],
						"numberOfBytes": "64"
					},
					"t_uint256": {
						"encoding": "inplace",
						"label": "uint256",
						"numberOfBytes": "32"
					}
				}
			},
			"userdoc": {
				"kind": "user",
				"methods": {},
				"version": 1
			}
		}
	}
}