{
	"data": {
		"bytecode": {
			"linkReferences": {},
			"object": "608060405234801561001057600080fd5b50600160005561120c806100256000396000f3fe608060405234801561001057600080fd5b50600436106100be5760003560e01c8063b6a46b3b11610076578063d285f8391161005b578063d285f8391461017a578063e8009dda146101b2578063fb68ba31146101c557600080fd5b8063b6a46b3b14610154578063cae967611461016757600080fd5b80635332c74d116100a75780635332c74d1461010a578063812a4f8c1461011f578063b2494df31461013f57600080fd5b806306661abd146100c3578063278be867146100df575b600080fd5b6100cc60015481565b6040519081526020015b60405180910390f35b6100cc6100ed366004610caf565b805160208183018101805160038252928201919093012091525481565b61011d610118366004610ce4565b6101d8565b005b61013261012d366004610caf565b610276565b6040516100d69190610d4f565b61014761037d565b6040516100d69190610dcd565b6100cc610162366004610caf565b6104bc565b6100cc610175366004610caf565b610584565b61018d610188366004610caf565b6105cd565b60405173ffffffffffffffffffffffffffffffffffffffff90911681526020016100d6565b61018d6101c0366004610e83565b61061c565b61011d6101d3366004610e83565b61067d565b6101e0610756565b6101ea82826107ce565b6101f482826108ab565b8073ffffffffffffffffffffffffffffffffffffffff1660038360405161021b9190610ec8565b908152602001604051809103902054836040516102389190610ec8565b604051908190038120907f302019a635b19d3c4a1cf2d61269495b26e45b91cbb29a4f8cf400e68e18da7f90600090a46102726001600055565b5050565b606060006002600060038560405161028e9190610ec8565b9081526020016040518091039020548152602001908152602001600020905060006102bb82600201610905565b6102c6906001610f13565b67ffffffffffffffff8111156102de576102de610bd5565b604051908082528060200260200182016040528015610307578160200160208202803683370190505b50905060015b61031983600201610905565b81116103755761032c600284018261090f565b82828151811061033e5761033e610f26565b73ffffffffffffffffffffffffffffffffffffffff909216602092830291909101909101528061036d81610f55565b91505061030d565b509392505050565b6060600060015460016103909190610f13565b67ffffffffffffffff8111156103a8576103a8610bd5565b6040519080825280602002602001820160405280156103db57816020015b60608152602001906001900390816103c65790505b50905060015b60015481116104b657600081815260026020526040902060018101805461040790610f8d565b80601f016020809104026020016040519081016040528092919081815260200182805461043390610f8d565b80156104805780601f1061045557610100808354040283529160200191610480565b820191906000526020600020905b81548152906001019060200180831161046357829003601f168201915b505050505083838151811061049757610497610f26565b60200260200101819052505080806104ae90610f55565b9150506103e1565b50919050565b60006104c6610756565b6104cf8261091b565b60018060008282546104e19190610f13565b909155505060015460008181526002602052604090819020905190919060039061050c908690610ec8565b90815260405190819003602001902055600180548255810161052e8482611028565b508054604051610542906001840190611142565b604051908190038120907fe0e6e8b81ae036efc4ae16444815ccc05dd21be3412ddacd8376ebb5cdb4723890600090a354905061057f6001600055565b919050565b6000806002600060038560405161059b9190610ec8565b908152602001604051809103902054815260200190815260200160002090506105c681600201610905565b9392505050565b600080600260006003856040516105e49190610ec8565b908152602001604051809103902054815260200190815260200160002090506105c661061282600201610905565b600283019061090f565b600061062883836109a6565b60006002600060038660405161063e9190610ec8565b90815260200160405180910390205481526020019081526020016000209050610673838260020161090f90919063ffffffff16565b9150505b92915050565b610685610756565b61068e82610a83565b6000600260006003856040516106a49190610ec8565b908152602001604051809103902054815260200190815260200160002090506106e2836106dd848460020161090f90919063ffffffff16565b6108ab565b6106ef600282018361090f565b73ffffffffffffffffffffffffffffffffffffffff1681600001548260010160405161071b9190611142565b604051908190038120907f8f06933070a3367170d50b358e9d73813dfbaaa11081bd5580ae4af2baba122d90600090a4506102726001600055565b6002600054036107c7576040517f08c379a000000000000000000000000000000000000000000000000000000000815260206004820152601f60248201527f5265656e7472616e637947756172643a207265656e7472616e742063616c6c0060448201526064015b60405180910390fd5b6002600055565b6000600260006003856040516107e49190610ec8565b908152602001604051809103902054815260200190815260200160002090506108198282600201610b0b90919063ffffffff16565b156108a6576040517f08c379a000000000000000000000000000000000000000000000000000000000815260206004820152602760248201527f4d6f64756c6520616c726561647920686173207468697320696d706c656d656e60448201527f746174696f6e2e0000000000000000000000000000000000000000000000000060648201526084016107be565b505050565b6108b482610a83565b6000600260006003856040516108ca9190610ec8565b908152602001604051809103902054815260200190815260200160002090506108ff8282600201610b3a90919063ffffffff16565b50505050565b6000610677825490565b60006105c68383610b5c565b60038160405161092b9190610ec8565b9081526020016040518091039020546000146109a3576040517f08c379a000000000000000000000000000000000000000000000000000000000815260206004820152601960248201527f4d6f64756c6520697320616c726561647920696e207573652e0000000000000060448201526064016107be565b50565b6000600260006003856040516109bc9190610ec8565b90815260200160405180910390205481526020019081526020016000209050600182101580156109f757506109f381600201610905565b8211155b6108a6576040517f08c379a000000000000000000000000000000000000000000000000000000000815260206004820152603560248201527f56657273696f6e20646f6573206e6f7420706f696e7420746f20616e2065786960448201527f7374696e6720696d706c656d656e746174696f6e2e000000000000000000000060648201526084016107be565b600381604051610a939190610ec8565b9081526020016040518091039020546000036109a3576040517f08c379a000000000000000000000000000000000000000000000000000000000815260206004820152601660248201527f4d6f64756c6520646f6573206e6f742065786973742e0000000000000000000060448201526064016107be565b73ffffffffffffffffffffffffffffffffffffffff8116600090815260018301602052604081205415156105c6565b60006105c68373ffffffffffffffffffffffffffffffffffffffff8416610b86565b6000826000018281548110610b7357610b73610f26565b9060005260206000200154905092915050565b6000818152600183016020526040812054610bcd57508154600181810184556000848152602080822090930184905584548482528286019093526040902091909155610677565b506000610677565b7f4e487b7100000000000000000000000000000000000000000000000000000000600052604160045260246000fd5b600082601f830112610c1557600080fd5b813567ffffffffffffffff80821115610c3057610c30610bd5565b604051601f83017fffffffffffffffffffffffffffffffffffffffffffffffffffffffffffffffe0908116603f01168101908282118183101715610c7657610c76610bd5565b81604052838152866020858801011115610c8f57600080fd5b836020870160208301376000602085830101528094505050505092915050565b600060208284031215610cc157600080fd5b813567ffffffffffffffff811115610cd857600080fd5b61067384828501610c04565b60008060408385031215610cf757600080fd5b823567ffffffffffffffff811115610d0e57600080fd5b610d1a85828601610c04565b925050602083013573ffffffffffffffffffffffffffffffffffffffff81168114610d4457600080fd5b809150509250929050565b6020808252825182820181905260009190848201906040850190845b81811015610d9d57835173ffffffffffffffffffffffffffffffffffffffff1683529284019291840191600101610d6b565b50909695505050505050565b60005b83811015610dc4578181015183820152602001610dac565b50506000910152565b6000602080830181845280855180835260408601915060408160051b870101925083870160005b82811015610e76577fffffffffffffffffffffffffffffffffffffffffffffffffffffffffffffffc088860301845281518051808752610e39818989018a8501610da9565b601f017fffffffffffffffffffffffffffffffffffffffffffffffffffffffffffffffe01695909501860194509285019290850190600101610df4565b5092979650505050505050565b60008060408385031215610e9657600080fd5b823567ffffffffffffffff811115610ead57600080fd5b610eb985828601610c04565b95602094909401359450505050565b60008251610eda818460208701610da9565b9190910192915050565b7f4e487b7100000000000000000000000000000000000000000000000000000000600052601160045260246000fd5b8082018082111561067757610677610ee4565b7f4e487b7100000000000000000000000000000000000000000000000000000000600052603260045260246000fd5b60007fffffffffffffffffffffffffffffffffffffffffffffffffffffffffffffffff8203610f8657610f86610ee4565b5060010190565b600181811c90821680610fa157607f821691505b6020821081036104b6577f4e487b7100000000000000000000000000000000000000000000000000000000600052602260045260246000fd5b601f8211156108a657600081815260208120601f850160051c810160208610156110015750805b601f850160051c820191505b818110156110205782815560010161100d565b505050505050565b815167ffffffffffffffff81111561104257611042610bd5565b611056816110508454610f8d565b84610fda565b602080601f8311600181146110a957600084156110735750858301515b7fffffffffffffffffffffffffffffffffffffffffffffffffffffffffffffffff600386901b1c1916600185901b178555611020565b6000858152602081207fffffffffffffffffffffffffffffffffffffffffffffffffffffffffffffffe08616915b828110156110f6578886015182559484019460019091019084016110d7565b508582101561113257878501517fffffffffffffffffffffffffffffffffffffffffffffffffffffffffffffffff600388901b60f8161c191681555b5050505050600190811b01905550565b600080835461115081610f8d565b60018281168015611168576001811461119b576111ca565b7fffffffffffffffffffffffffffffffffffffffffffffffffffffffffffffff00841687528215158302870194506111ca565b8760005260208060002060005b858110156111c15781548a8201529084019082016111a8565b50505082870194505b5092969550505050505056fea26469706673582212205947ba0feda127839e70b0a98ea3350ae6e774cec40f63b4a537b827ffed266164736f6c63430008130033",
			"opcodes": "PUSH1 0x80 PUSH1 0x40 MSTORE CALLVALUE DUP1 ISZERO PUSH2 0x10 JUMPI PUSH1 0x0 DUP1 REVERT JUMPDEST POP PUSH1 0x1 PUSH1 0x0 SSTORE PUSH2 0x120C DUP1 PUSH2 0x25 PUSH1 0x0 CODECOPY PUSH1 0x0 RETURN INVALID PUSH1 0x80 PUSH1 0x40 MSTORE CALLVALUE DUP1 ISZERO PUSH2 0x10 JUMPI PUSH1 0x0 DUP1 REVERT JUMPDEST POP PUSH1 0x4 CALLDATASIZE LT PUSH2 0xBE JUMPI PUSH1 0x0 CALLDATALOAD PUSH1 0xE0 SHR DUP1 PUSH4 0xB6A46B3B GT PUSH2 0x76 JUMPI DUP1 PUSH4 0xD285F839 GT PUSH2 0x5B JUMPI DUP1 PUSH4 0xD285F839 EQ PUSH2 0x17A JUMPI DUP1 PUSH4 0xE8009DDA EQ PUSH2 0x1B2 JUMPI DUP1 PUSH4 0xFB68BA31 EQ PUSH2 0x1C5 JUMPI PUSH1 0x0 DUP1 REVERT JUMPDEST DUP1 PUSH4 0xB6A46B3B EQ PUSH2 0x154 JUMPI DUP1 PUSH4 0xCAE96761 EQ PUSH2 0x167 JUMPI PUSH1 0x0 DUP1 REVERT JUMPDEST DUP1 PUSH4 0x5332C74D GT PUSH2 0xA7 JUMPI DUP1 PUSH4 0x5332C74D EQ PUSH2 0x10A JUMPI DUP1 PUSH4 0x812A4F8C EQ PUSH2 0x11F JUMPI DUP1 PUSH4 0xB2494DF3 EQ PUSH2 0x13F JUMPI PUSH1 0x0 DUP1 REVERT JUMPDEST DUP1 PUSH4 0x6661ABD EQ PUSH2 0xC3 JUMPI DUP1 PUSH4 0x278BE867 EQ PUSH2 0xDF JUMPI JUMPDEST PUSH1 0x0 DUP1 REVERT JUMPDEST PUSH2 0xCC PUSH1 0x1 SLOAD DUP2 JUMP JUMPDEST PUSH1 0x40 MLOAD SWAP1 DUP2 MSTORE PUSH1 0x20 ADD JUMPDEST PUSH1 0x40 MLOAD DUP1 SWAP2 SUB SWAP1 RETURN JUMPDEST PUSH2 0xCC PUSH2 0xED CALLDATASIZE PUSH1 0x4 PUSH2 0xCAF JUMP JUMPDEST DUP1 MLOAD PUSH1 0x20 DUP2 DUP4 ADD DUP2 ADD DUP1 MLOAD PUSH1 0x3 DUP3 MSTORE SWAP3 DUP3 ADD SWAP2 SWAP1 SWAP4 ADD KECCAK256 SWAP2 MSTORE SLOAD DUP2 JUMP JUMPDEST PUSH2 0x11D PUSH2 0x118 CALLDATASIZE PUSH1 0x4 PUSH2 0xCE4 JUMP JUMPDEST PUSH2 0x1D8 JUMP JUMPDEST STOP JUMPDEST PUSH2 0x132 PUSH2 0x12D CALLDATASIZE PUSH1 0x4 PUSH2 0xCAF JUMP JUMPDEST PUSH2 0x276 JUMP JUMPDEST PUSH1 0x40 MLOAD PUSH2 0xD6 SWAP2 SWAP1 PUSH2 0xD4F JUMP JUMPDEST PUSH2 0x147 PUSH2 0x37D JUMP JUMPDEST PUSH1 0x40 MLOAD PUSH2 0xD6 SWAP2 SWAP1 PUSH2 0xDCD JUMP JUMPDEST PUSH2 0xCC PUSH2 0x162 CALLDATASIZE PUSH1 0x4 PUSH2 0xCAF JUMP JUMPDEST PUSH2 0x4BC JUMP JUMPDEST PUSH2 0xCC PUSH2 0x175 CALLDATASIZE PUSH1 0x4 PUSH2 0xCAF JUMP JUMPDEST PUSH2 0x584 JUMP JUMPDEST PUSH2 0x18D PUSH2 0x188 CALLDATASIZE PUSH1 0x4 PUSH2 0xCAF JUMP JUMPDEST PUSH2 0x5CD JUMP JUMPDEST PUSH1 0x40 MLOAD PUSH20 0xFFFFFFFFFFFFFFFFFFFFFFFFFFFFFFFFFFFFFFFF SWAP1 SWAP2 AND DUP2 MSTORE PUSH1 0x20 ADD PUSH2 0xD6 JUMP JUMPDEST PUSH2 0x18D PUSH2 0x1C0 CALLDATASIZE PUSH1 0x4 PUSH2 0xE83 JUMP JUMPDEST PUSH2 0x61C JUMP JUMPDEST PUSH2 0x11D PUSH2 0x1D3 CALLDATASIZE PUSH1 0x4 PUSH2 0xE83 JUMP JUMPDEST PUSH2 0x67D JUMP JUMPDEST PUSH2 0x1E0 PUSH2 0x756 JUMP JUMPDEST PUSH2 0x1EA DUP3 DUP3 PUSH2 0x7CE JUMP JUMPDEST PUSH2 0x1F4 DUP3 DUP3 PUSH2 0x8AB JUMP JUMPDEST DUP1 PUSH20 0xFFFFFFFFFFFFFFFFFFFFFFFFFFFFFFFFFFFFFFFF AND PUSH1 0x3 DUP4 PUSH1 0x40 MLOAD PUSH2 0x21B SWAP2 SWAP1 PUSH2 0xEC8 JUMP JUMPDEST SWAP1 DUP2 MSTORE PUSH1 0x20 ADD PUSH1 0x40 MLOAD DUP1 SWAP2 SUB SWAP1 KECCAK256 SLOAD DUP4 PUSH1 0x40 MLOAD PUSH2 0x238 SWAP2 SWAP1 PUSH2 0xEC8 JUMP JUMPDEST PUSH1 0x40 MLOAD SWAP1 DUP2 SWAP1 SUB DUP2 KECCAK256 SWAP1 PUSH32 0x302019A635B19D3C4A1CF2D61269495B26E45B91CBB29A4F8CF400E68E18DA7F SWAP1 PUSH1 0x0 SWAP1 LOG4 PUSH2 0x272 PUSH1 0x1 PUSH1 0x0 SSTORE JUMP JUMPDEST POP POP JUMP JUMPDEST PUSH1 0x60 PUSH1 0x0 PUSH1 0x2 PUSH1 0x0 PUSH1 0x3 DUP6 PUSH1 0x40 MLOAD PUSH2 0x28E SWAP2 SWAP1 PUSH2 0xEC8 JUMP JUMPDEST SWAP1 DUP2 MSTORE PUSH1 0x20 ADD PUSH1 0x40 MLOAD DUP1 SWAP2 SUB SWAP1 KECCAK256 SLOAD DUP2 MSTORE PUSH1 0x20 ADD SWAP1 DUP2 MSTORE PUSH1 0x20 ADD PUSH1 0x0 KECCAK256 SWAP1 POP PUSH1 0x0 PUSH2 0x2BB DUP3 PUSH1 0x2 ADD PUSH2 0x905 JUMP JUMPDEST PUSH2 0x2C6 SWAP1 PUSH1 0x1 PUSH2 0xF13 JUMP JUMPDEST PUSH8 0xFFFFFFFFFFFFFFFF DUP2 GT ISZERO PUSH2 0x2DE JUMPI PUSH2 0x2DE PUSH2 0xBD5 JUMP JUMPDEST PUSH1 0x40 MLOAD SWAP1 DUP1 DUP3 MSTORE DUP1 PUSH1 0x20 MUL PUSH1 0x20 ADD DUP3 ADD PUSH1 0x40 MSTORE DUP1 ISZERO PUSH2 0x307 JUMPI DUP2 PUSH1 0x20 ADD PUSH1 0x20 DUP3 MUL DUP1 CALLDATASIZE DUP4 CALLDATACOPY ADD SWAP1 POP JUMPDEST POP SWAP1 POP PUSH1 0x1 JUMPDEST PUSH2 0x319 DUP4 PUSH1 0x2 ADD PUSH2 0x905 JUMP JUMPDEST DUP2 GT PUSH2 0x375 JUMPI PUSH2 0x32C PUSH1 0x2 DUP5 ADD DUP3 PUSH2 0x90F JUMP JUMPDEST DUP3 DUP3 DUP2 MLOAD DUP2 LT PUSH2 0x33E JUMPI PUSH2 0x33E PUSH2 0xF26 JUMP JUMPDEST PUSH20 0xFFFFFFFFFFFFFFFFFFFFFFFFFFFFFFFFFFFFFFFF SWAP1 SWAP3 AND PUSH1 0x20 SWAP3 DUP4 MUL SWAP2 SWAP1 SWAP2 ADD SWAP1 SWAP2 ADD MSTORE DUP1 PUSH2 0x36D DUP2 PUSH2 0xF55 JUMP JUMPDEST SWAP2 POP POP PUSH2 0x30D JUMP JUMPDEST POP SWAP4 SWAP3 POP POP POP JUMP JUMPDEST PUSH1 0x60 PUSH1 0x0 PUSH1 0x1 SLOAD PUSH1 0x1 PUSH2 0x390 SWAP2 SWAP1 PUSH2 0xF13 JUMP JUMPDEST PUSH8 0xFFFFFFFFFFFFFFFF DUP2 GT ISZERO PUSH2 0x3A8 JUMPI PUSH2 0x3A8 PUSH2 0xBD5 JUMP JUMPDEST PUSH1 0x40 MLOAD SWAP1 DUP1 DUP3 MSTORE DUP1 PUSH1 0x20 MUL PUSH1 0x20 ADD DUP3 ADD PUSH1 0x40 MSTORE DUP1 ISZERO PUSH2 0x3DB JUMPI DUP2 PUSH1 0x20 ADD JUMPDEST PUSH1 0x60 DUP2 MSTORE PUSH1 0x20 ADD SWAP1 PUSH1 0x1 SWAP1 SUB SWAP1 DUP2 PUSH2 0x3C6 JUMPI SWAP1 POP JUMPDEST POP SWAP1 POP PUSH1 0x1 JUMPDEST PUSH1 0x1 SLOAD DUP2 GT PUSH2 0x4B6 JUMPI PUSH1 0x0 DUP2 DUP2 MSTORE PUSH1 0x2 PUSH1 0x20 MSTORE PUSH1 0x40 SWAP1 KECCAK256 PUSH1 0x1 DUP2 ADD DUP1 SLOAD PUSH2 0x407 SWAP1 PUSH2 0xF8D JUMP JUMPDEST DUP1 PUSH1 0x1F ADD PUSH1 0x20 DUP1 SWAP2 DIV MUL PUSH1 0x20 ADD PUSH1 0x40 MLOAD SWAP1 DUP2 ADD PUSH1 0x40 MSTORE DUP1 SWAP3 SWAP2 SWAP1 DUP2 DUP2 MSTORE PUSH1 0x20 ADD DUP3 DUP1 SLOAD PUSH2 0x433 SWAP1 PUSH2 0xF8D JUMP JUMPDEST DUP1 ISZERO PUSH2 0x480 JUMPI DUP1 PUSH1 0x1F LT PUSH2 0x455 JUMPI PUSH2 0x100 DUP1 DUP4 SLOAD DIV MUL DUP4 MSTORE SWAP2 PUSH1 0x20 ADD SWAP2 PUSH2 0x480 JUMP JUMPDEST DUP3 ADD SWAP2 SWAP1 PUSH1 0x0 MSTORE PUSH1 0x20 PUSH1 0x0 KECCAK256 SWAP1 JUMPDEST DUP2 SLOAD DUP2 MSTORE SWAP1 PUSH1 0x1 ADD SWAP1 PUSH1 0x20 ADD DUP1 DUP4 GT PUSH2 0x463 JUMPI DUP3 SWAP1 SUB PUSH1 0x1F AND DUP3 ADD SWAP2 JUMPDEST POP POP POP POP POP DUP4 DUP4 DUP2 MLOAD DUP2 LT PUSH2 0x497 JUMPI PUSH2 0x497 PUSH2 0xF26 JUMP JUMPDEST PUSH1 0x20 MUL PUSH1 0x20 ADD ADD DUP2 SWAP1 MSTORE POP POP DUP1 DUP1 PUSH2 0x4AE SWAP1 PUSH2 0xF55 JUMP JUMPDEST SWAP2 POP POP PUSH2 0x3E1 JUMP JUMPDEST POP SWAP2 SWAP1 POP JUMP JUMPDEST PUSH1 0x0 PUSH2 0x4C6 PUSH2 0x756 JUMP JUMPDEST PUSH2 0x4CF DUP3 PUSH2 0x91B JUMP JUMPDEST PUSH1 0x1 DUP1 PUSH1 0x0 DUP3 DUP3 SLOAD PUSH2 0x4E1 SWAP2 SWAP1 PUSH2 0xF13 JUMP JUMPDEST SWAP1 SWAP2 SSTORE POP POP PUSH1 0x1 SLOAD PUSH1 0x0 DUP2 DUP2 MSTORE PUSH1 0x2 PUSH1 0x20 MSTORE PUSH1 0x40 SWAP1 DUP2 SWAP1 KECCAK256 SWAP1 MLOAD SWAP1 SWAP2 SWAP1 PUSH1 0x3 SWAP1 PUSH2 0x50C SWAP1 DUP7 SWAP1 PUSH2 0xEC8 JUMP JUMPDEST SWAP1 DUP2 MSTORE PUSH1 0x40 MLOAD SWAP1 DUP2 SWAP1 SUB PUSH1 0x20 ADD SWAP1 KECCAK256 SSTORE PUSH1 0x1 DUP1 SLOAD DUP3 SSTORE DUP2 ADD PUSH2 0x52E DUP5 DUP3 PUSH2 0x1028 JUMP JUMPDEST POP DUP1 SLOAD PUSH1 0x40 MLOAD PUSH2 0x542 SWAP1 PUSH1 0x1 DUP5 ADD SWAP1 PUSH2 0x1142 JUMP JUMPDEST PUSH1 0x40 MLOAD SWAP1 DUP2 SWAP1 SUB DUP2 KECCAK256 SWAP1 PUSH32 0xE0E6E8B81AE036EFC4AE16444815CCC05DD21BE3412DDACD8376EBB5CDB47238 SWAP1 PUSH1 0x0 SWAP1 LOG3 SLOAD SWAP1 POP PUSH2 0x57F PUSH1 0x1 PUSH1 0x0 SSTORE JUMP JUMPDEST SWAP2 SWAP1 POP JUMP JUMPDEST PUSH1 0x0 DUP1 PUSH1 0x2 PUSH1 0x0 PUSH1 0x3 DUP6 PUSH1 0x40 MLOAD PUSH2 0x59B SWAP2 SWAP1 PUSH2 0xEC8 JUMP JUMPDEST SWAP1 DUP2 MSTORE PUSH1 0x20 ADD PUSH1 0x40 MLOAD DUP1 SWAP2 SUB SWAP1 KECCAK256 SLOAD DUP2 MSTORE PUSH1 0x20 ADD SWAP1 DUP2 MSTORE PUSH1 0x20 ADD PUSH1 0x0 KECCAK256 SWAP1 POP PUSH2 0x5C6 DUP2 PUSH1 0x2 ADD PUSH2 0x905 JUMP JUMPDEST SWAP4 SWAP3 POP POP POP JUMP JUMPDEST PUSH1 0x0 DUP1 PUSH1 0x2 PUSH1 0x0 PUSH1 0x3 DUP6 PUSH1 0x40 MLOAD PUSH2 0x5E4 SWAP2 SWAP1 PUSH2 0xEC8 JUMP JUMPDEST SWAP1 DUP2 MSTORE PUSH1 0x20 ADD PUSH1 0x40 MLOAD DUP1 SWAP2 SUB SWAP1 KECCAK256 SLOAD DUP2 MSTORE PUSH1 0x20 ADD SWAP1 DUP2 MSTORE PUSH1 0x20 ADD PUSH1 0x0 KECCAK256 SWAP1 POP PUSH2 0x5C6 PUSH2 0x612 DUP3 PUSH1 0x2 ADD PUSH2 0x905 JUMP JUMPDEST PUSH1 0x2 DUP4 ADD SWAP1 PUSH2 0x90F JUMP JUMPDEST PUSH1 0x0 PUSH2 0x628 DUP4 DUP4 PUSH2 0x9A6 JUMP JUMPDEST PUSH1 0x0 PUSH1 0x2 PUSH1 0x0 PUSH1 0x3 DUP7 PUSH1 0x40 MLOAD PUSH2 0x63E SWAP2 SWAP1 PUSH2 0xEC8 JUMP JUMPDEST SWAP1 DUP2 MSTORE PUSH1 0x20 ADD PUSH1 0x40 MLOAD DUP1 SWAP2 SUB SWAP1 KECCAK256 SLOAD DUP2 MSTORE PUSH1 0x20 ADD SWAP1 DUP2 MSTORE PUSH1 0x20 ADD PUSH1 0x0 KECCAK256 SWAP1 POP PUSH2 0x673 DUP4 DUP3 PUSH1 0x2 ADD PUSH2 0x90F SWAP1 SWAP2 SWAP1 PUSH4 0xFFFFFFFF AND JUMP JUMPDEST SWAP2 POP POP JUMPDEST SWAP3 SWAP2 POP POP JUMP JUMPDEST PUSH2 0x685 PUSH2 0x756 JUMP JUMPDEST PUSH2 0x68E DUP3 PUSH2 0xA83 JUMP JUMPDEST PUSH1 0x0 PUSH1 0x2 PUSH1 0x0 PUSH1 0x3 DUP6 PUSH1 0x40 MLOAD PUSH2 0x6A4 SWAP2 SWAP1 PUSH2 0xEC8 JUMP JUMPDEST SWAP1 DUP2 MSTORE PUSH1 0x20 ADD PUSH1 0x40 MLOAD DUP1 SWAP2 SUB SWAP1 KECCAK256 SLOAD DUP2 MSTORE PUSH1 0x20 ADD SWAP1 DUP2 MSTORE PUSH1 0x20 ADD PUSH1 0x0 KECCAK256 SWAP1 POP PUSH2 0x6E2 DUP4 PUSH2 0x6DD DUP5 DUP5 PUSH1 0x2 ADD PUSH2 0x90F SWAP1 SWAP2 SWAP1 PUSH4 0xFFFFFFFF AND JUMP JUMPDEST PUSH2 0x8AB JUMP JUMPDEST PUSH2 0x6EF PUSH1 0x2 DUP3 ADD DUP4 PUSH2 0x90F JUMP JUMPDEST PUSH20 0xFFFFFFFFFFFFFFFFFFFFFFFFFFFFFFFFFFFFFFFF AND DUP2 PUSH1 0x0 ADD SLOAD DUP3 PUSH1 0x1 ADD PUSH1 0x40 MLOAD PUSH2 0x71B SWAP2 SWAP1 PUSH2 0x1142 JUMP JUMPDEST PUSH1 0x40 MLOAD SWAP1 DUP2 SWAP1 SUB DUP2 KECCAK256 SWAP1 PUSH32 0x8F06933070A3367170D50B358E9D73813DFBAAA11081BD5580AE4AF2BABA122D SWAP1 PUSH1 0x0 SWAP1 LOG4 POP PUSH2 0x272 PUSH1 0x1 PUSH1 0x0 SSTORE JUMP JUMPDEST PUSH1 0x2 PUSH1 0x0 SLOAD SUB PUSH2 0x7C7 JUMPI PUSH1 0x40 MLOAD PUSH32 0x8C379A000000000000000000000000000000000000000000000000000000000 DUP2 MSTORE PUSH1 0x20 PUSH1 0x4 DUP3 ADD MSTORE PUSH1 0x1F PUSH1 0x24 DUP3 ADD MSTORE PUSH32 0x5265656E7472616E637947756172643A207265656E7472616E742063616C6C00 PUSH1 0x44 DUP3 ADD MSTORE PUSH1 0x64 ADD JUMPDEST PUSH1 0x40 MLOAD DUP1 SWAP2 SUB SWAP1 REVERT JUMPDEST PUSH1 0x2 PUSH1 0x0 SSTORE JUMP JUMPDEST PUSH1 0x0 PUSH1 0x2 PUSH1 0x0 PUSH1 0x3 DUP6 PUSH1 0x40 MLOAD PUSH2 0x7E4 SWAP2 SWAP1 PUSH2 0xEC8 JUMP JUMPDEST SWAP1 DUP2 MSTORE PUSH1 0x20 ADD PUSH1 0x40 MLOAD DUP1 SWAP2 SUB SWAP1 KECCAK256 SLOAD DUP2 MSTORE PUSH1 0x20 ADD SWAP1 DUP2 MSTORE PUSH1 0x20 ADD PUSH1 0x0 KECCAK256 SWAP1 POP PUSH2 0x819 DUP3 DUP3 PUSH1 0x2 ADD PUSH2 0xB0B SWAP1 SWAP2 SWAP1 PUSH4 0xFFFFFFFF AND JUMP JUMPDEST ISZERO PUSH2 0x8A6 JUMPI PUSH1 0x40 MLOAD PUSH32 0x8C379A000000000000000000000000000000000000000000000000000000000 DUP2 MSTORE PUSH1 0x20 PUSH1 0x4 DUP3 ADD MSTORE PUSH1 0x27 PUSH1 0x24 DUP3 ADD MSTORE PUSH32 0x4D6F64756C6520616C726561647920686173207468697320696D706C656D656E PUSH1 0x44 DUP3 ADD MSTORE PUSH32 0x746174696F6E2E00000000000000000000000000000000000000000000000000 PUSH1 0x64 DUP3 ADD MSTORE PUSH1 0x84 ADD PUSH2 0x7BE JUMP JUMPDEST POP POP POP JUMP JUMPDEST PUSH2 0x8B4 DUP3 PUSH2 0xA83 JUMP JUMPDEST PUSH1 0x0 PUSH1 0x2 PUSH1 0x0 PUSH1 0x3 DUP6 PUSH1 0x40 MLOAD PUSH2 0x8CA SWAP2 SWAP1 PUSH2 0xEC8 JUMP JUMPDEST SWAP1 DUP2 MSTORE PUSH1 0x20 ADD PUSH1 0x40 MLOAD DUP1 SWAP2 SUB SWAP1 KECCAK256 SLOAD DUP2 MSTORE PUSH1 0x20 ADD SWAP1 DUP2 MSTORE PUSH1 0x20 ADD PUSH1 0x0 KECCAK256 SWAP1 POP PUSH2 0x8FF DUP3 DUP3 PUSH1 0x2 ADD PUSH2 0xB3A SWAP1 SWAP2 SWAP1 PUSH4 0xFFFFFFFF AND JUMP JUMPDEST POP POP POP POP JUMP JUMPDEST PUSH1 0x0 PUSH2 0x677 DUP3 SLOAD SWAP1 JUMP JUMPDEST PUSH1 0x0 PUSH2 0x5C6 DUP4 DUP4 PUSH2 0xB5C JUMP JUMPDEST PUSH1 0x3 DUP2 PUSH1 0x40 MLOAD PUSH2 0x92B SWAP2 SWAP1 PUSH2 0xEC8 JUMP JUMPDEST SWAP1 DUP2 MSTORE PUSH1 0x20 ADD PUSH1 0x40 MLOAD DUP1 SWAP2 SUB SWAP1 KECCAK256 SLOAD PUSH1 0x0 EQ PUSH2 0x9A3 JUMPI PUSH1 0x40 MLOAD PUSH32 0x8C379A000000000000000000000000000000000000000000000000000000000 DUP2 MSTORE PUSH1 0x20 PUSH1 0x4 DUP3 ADD MSTORE PUSH1 0x19 PUSH1 0x24 DUP3 ADD MSTORE PUSH32 0x4D6F64756C6520697320616C726561647920696E207573652E00000000000000 PUSH1 0x44 DUP3 ADD MSTORE PUSH1 0x64 ADD PUSH2 0x7BE JUMP JUMPDEST POP JUMP JUMPDEST PUSH1 0x0 PUSH1 0x2 PUSH1 0x0 PUSH1 0x3 DUP6 PUSH1 0x40 MLOAD PUSH2 0x9BC SWAP2 SWAP1 PUSH2 0xEC8 JUMP JUMPDEST SWAP1 DUP2 MSTORE PUSH1 0x20 ADD PUSH1 0x40 MLOAD DUP1 SWAP2 SUB SWAP1 KECCAK256 SLOAD DUP2 MSTORE PUSH1 0x20 ADD SWAP1 DUP2 MSTORE PUSH1 0x20 ADD PUSH1 0x0 KECCAK256 SWAP1 POP PUSH1 0x1 DUP3 LT ISZERO DUP1 ISZERO PUSH2 0x9F7 JUMPI POP PUSH2 0x9F3 DUP2 PUSH1 0x2 ADD PUSH2 0x905 JUMP JUMPDEST DUP3 GT ISZERO JUMPDEST PUSH2 0x8A6 JUMPI PUSH1 0x40 MLOAD PUSH32 0x8C379A000000000000000000000000000000000000000000000000000000000 DUP2 MSTORE PUSH1 0x20 PUSH1 0x4 DUP3 ADD MSTORE PUSH1 0x35 PUSH1 0x24 DUP3 ADD MSTORE PUSH32 0x56657273696F6E20646F6573206E6F7420706F696E7420746F20616E20657869 PUSH1 0x44 DUP3 ADD MSTORE PUSH32 0x7374696E6720696D706C656D656E746174696F6E2E0000000000000000000000 PUSH1 0x64 DUP3 ADD MSTORE PUSH1 0x84 ADD PUSH2 0x7BE JUMP JUMPDEST PUSH1 0x3 DUP2 PUSH1 0x40 MLOAD PUSH2 0xA93 SWAP2 SWAP1 PUSH2 0xEC8 JUMP JUMPDEST SWAP1 DUP2 MSTORE PUSH1 0x20 ADD PUSH1 0x40 MLOAD DUP1 SWAP2 SUB SWAP1 KECCAK256 SLOAD PUSH1 0x0 SUB PUSH2 0x9A3 JUMPI PUSH1 0x40 MLOAD PUSH32 0x8C379A000000000000000000000000000000000000000000000000000000000 DUP2 MSTORE PUSH1 0x20 PUSH1 0x4 DUP3 ADD MSTORE PUSH1 0x16 PUSH1 0x24 DUP3 ADD MSTORE PUSH32 0x4D6F64756C6520646F6573206E6F742065786973742E00000000000000000000 PUSH1 0x44 DUP3 ADD MSTORE PUSH1 0x64 ADD PUSH2 0x7BE JUMP JUMPDEST PUSH20 0xFFFFFFFFFFFFFFFFFFFFFFFFFFFFFFFFFFFFFFFF DUP2 AND PUSH1 0x0 SWAP1 DUP2 MSTORE PUSH1 0x1 DUP4 ADD PUSH1 0x20 MSTORE PUSH1 0x40 DUP2 KECCAK256 SLOAD ISZERO ISZERO PUSH2 0x5C6 JUMP JUMPDEST PUSH1 0x0 PUSH2 0x5C6 DUP4 PUSH20 0xFFFFFFFFFFFFFFFFFFFFFFFFFFFFFFFFFFFFFFFF DUP5 AND PUSH2 0xB86 JUMP JUMPDEST PUSH1 0x0 DUP3 PUSH1 0x0 ADD DUP3 DUP2 SLOAD DUP2 LT PUSH2 0xB73 JUMPI PUSH2 0xB73 PUSH2 0xF26 JUMP JUMPDEST SWAP1 PUSH1 0x0 MSTORE PUSH1 0x20 PUSH1 0x0 KECCAK256 ADD SLOAD SWAP1 POP SWAP3 SWAP2 POP POP JUMP JUMPDEST PUSH1 0x0 DUP2 DUP2 MSTORE PUSH1 0x1 DUP4 ADD PUSH1 0x20 MSTORE PUSH1 0x40 DUP2 KECCAK256 SLOAD PUSH2 0xBCD JUMPI POP DUP2 SLOAD PUSH1 0x1 DUP2 DUP2 ADD DUP5 SSTORE PUSH1 0x0 DUP5 DUP2 MSTORE PUSH1 0x20 DUP1 DUP3 KECCAK256 SWAP1 SWAP4 ADD DUP5 SWAP1 SSTORE DUP5 SLOAD DUP5 DUP3 MSTORE DUP3 DUP7 ADD SWAP1 SWAP4 MSTORE PUSH1 0x40 SWAP1 KECCAK256 SWAP2 SWAP1 SWAP2 SSTORE PUSH2 0x677 JUMP JUMPDEST POP PUSH1 0x0 PUSH2 0x677 JUMP JUMPDEST PUSH32 0x4E487B7100000000000000000000000000000000000000000000000000000000 PUSH1 0x0 MSTORE PUSH1 0x41 PUSH1 0x4 MSTORE PUSH1 0x24 PUSH1 0x0 REVERT JUMPDEST PUSH1 0x0 DUP3 PUSH1 0x1F DUP4 ADD SLT PUSH2 0xC15 JUMPI PUSH1 0x0 DUP1 REVERT JUMPDEST DUP2 CALLDATALOAD PUSH8 0xFFFFFFFFFFFFFFFF DUP1 DUP3 GT ISZERO PUSH2 0xC30 JUMPI PUSH2 0xC30 PUSH2 0xBD5 JUMP JUMPDEST PUSH1 0x40 MLOAD PUSH1 0x1F DUP4 ADD PUSH32 0xFFFFFFFFFFFFFFFFFFFFFFFFFFFFFFFFFFFFFFFFFFFFFFFFFFFFFFFFFFFFFFE0 SWAP1 DUP2 AND PUSH1 0x3F ADD AND DUP2 ADD SWAP1 DUP3 DUP3 GT DUP2 DUP4 LT OR ISZERO PUSH2 0xC76 JUMPI PUSH2 0xC76 PUSH2 0xBD5 JUMP JUMPDEST DUP2 PUSH1 0x40 MSTORE DUP4 DUP2 MSTORE DUP7 PUSH1 0x20 DUP6 DUP9 ADD ADD GT ISZERO PUSH2 0xC8F JUMPI PUSH1 0x0 DUP1 REVERT JUMPDEST DUP4 PUSH1 0x20 DUP8 ADD PUSH1 0x20 DUP4 ADD CALLDATACOPY PUSH1 0x0 PUSH1 0x20 DUP6 DUP4 ADD ADD MSTORE DUP1 SWAP5 POP POP POP POP POP SWAP3 SWAP2 POP POP JUMP JUMPDEST PUSH1 0x0 PUSH1 0x20 DUP3 DUP5 SUB SLT ISZERO PUSH2 0xCC1 JUMPI PUSH1 0x0 DUP1 REVERT JUMPDEST DUP2 CALLDATALOAD PUSH8 0xFFFFFFFFFFFFFFFF DUP2 GT ISZERO PUSH2 0xCD8 JUMPI PUSH1 0x0 DUP1 REVERT JUMPDEST PUSH2 0x673 DUP5 DUP3 DUP6 ADD PUSH2 0xC04 JUMP JUMPDEST PUSH1 0x0 DUP1 PUSH1 0x40 DUP4 DUP6 SUB SLT ISZERO PUSH2 0xCF7 JUMPI PUSH1 0x0 DUP1 REVERT JUMPDEST DUP3 CALLDATALOAD PUSH8 0xFFFFFFFFFFFFFFFF DUP2 GT ISZERO PUSH2 0xD0E JUMPI PUSH1 0x0 DUP1 REVERT JUMPDEST PUSH2 0xD1A DUP6 DUP3 DUP7 ADD PUSH2 0xC04 JUMP JUMPDEST SWAP3 POP POP PUSH1 0x20 DUP4 ADD CALLDATALOAD PUSH20 0xFFFFFFFFFFFFFFFFFFFFFFFFFFFFFFFFFFFFFFFF DUP2 AND DUP2 EQ PUSH2 0xD44 JUMPI PUSH1 0x0 DUP1 REVERT JUMPDEST DUP1 SWAP2 POP POP SWAP3 POP SWAP3 SWAP1 POP JUMP JUMPDEST PUSH1 0x20 DUP1 DUP3 MSTORE DUP3 MLOAD DUP3 DUP3 ADD DUP2 SWAP1 MSTORE PUSH1 0x0 SWAP2 SWAP1 DUP5 DUP3 ADD SWAP1 PUSH1 0x40 DUP6 ADD SWAP1 DUP5 JUMPDEST DUP2 DUP2 LT ISZERO PUSH2 0xD9D JUMPI DUP4 MLOAD PUSH20 0xFFFFFFFFFFFFFFFFFFFFFFFFFFFFFFFFFFFFFFFF AND DUP4 MSTORE SWAP3 DUP5 ADD SWAP3 SWAP2 DUP5 ADD SWAP2 PUSH1 0x1 ADD PUSH2 0xD6B JUMP JUMPDEST POP SWAP1 SWAP7 SWAP6 POP POP POP POP POP POP JUMP JUMPDEST PUSH1 0x0 JUMPDEST DUP4 DUP2 LT ISZERO PUSH2 0xDC4 JUMPI DUP2 DUP2 ADD MLOAD DUP4 DUP3 ADD MSTORE PUSH1 0x20 ADD PUSH2 0xDAC JUMP JUMPDEST POP POP PUSH1 0x0 SWAP2 ADD MSTORE JUMP JUMPDEST PUSH1 0x0 PUSH1 0x20 DUP1 DUP4 ADD DUP2 DUP5 MSTORE DUP1 DUP6 MLOAD DUP1 DUP4 MSTORE PUSH1 0x40 DUP7 ADD SWAP2 POP PUSH1 0x40 DUP2 PUSH1 0x5 SHL DUP8 ADD ADD SWAP3 POP DUP4 DUP8 ADD PUSH1 0x0 JUMPDEST DUP3 DUP2 LT ISZERO PUSH2 0xE76 JUMPI PUSH32 0xFFFFFFFFFFFFFFFFFFFFFFFFFFFFFFFFFFFFFFFFFFFFFFFFFFFFFFFFFFFFFFC0 DUP9 DUP7 SUB ADD DUP5 MSTORE DUP2 MLOAD DUP1 MLOAD DUP1 DUP8 MSTORE PUSH2 0xE39 DUP2 DUP10 DUP10 ADD DUP11 DUP6 ADD PUSH2 0xDA9 JUMP JUMPDEST PUSH1 0x1F ADD PUSH32 0xFFFFFFFFFFFFFFFFFFFFFFFFFFFFFFFFFFFFFFFFFFFFFFFFFFFFFFFFFFFFFFE0 AND SWAP6 SWAP1 SWAP6 ADD DUP7 ADD SWAP5 POP SWAP3 DUP6 ADD SWAP3 SWAP1 DUP6 ADD SWAP1 PUSH1 0x1 ADD PUSH2 0xDF4 JUMP JUMPDEST POP SWAP3 SWAP8 SWAP7 POP POP POP POP POP POP POP JUMP JUMPDEST PUSH1 0x0 DUP1 PUSH1 0x40 DUP4 DUP6 SUB SLT ISZERO PUSH2 0xE96 JUMPI PUSH1 0x0 DUP1 REVERT JUMPDEST DUP3 CALLDATALOAD PUSH8 0xFFFFFFFFFFFFFFFF DUP2 GT ISZERO PUSH2 0xEAD JUMPI PUSH1 0x0 DUP1 REVERT JUMPDEST PUSH2 0xEB9 DUP6 DUP3 DUP7 ADD PUSH2 0xC04 JUMP JUMPDEST SWAP6 PUSH1 0x20 SWAP5 SWAP1 SWAP5 ADD CALLDATALOAD SWAP5 POP POP POP POP JUMP JUMPDEST PUSH1 0x0 DUP3 MLOAD PUSH2 0xEDA DUP2 DUP5 PUSH1 0x20 DUP8 ADD PUSH2 0xDA9 JUMP JUMPDEST SWAP2 SWAP1 SWAP2 ADD SWAP3 SWAP2 POP POP JUMP JUMPDEST PUSH32 0x4E487B7100000000000000000000000000000000000000000000000000000000 PUSH1 0x0 MSTORE PUSH1 0x11 PUSH1 0x4 MSTORE PUSH1 0x24 PUSH1 0x0 REVERT JUMPDEST DUP1 DUP3 ADD DUP1 DUP3 GT ISZERO PUSH2 0x677 JUMPI PUSH2 0x677 PUSH2 0xEE4 JUMP JUMPDEST PUSH32 0x4E487B7100000000000000000000000000000000000000000000000000000000 PUSH1 0x0 MSTORE PUSH1 0x32 PUSH1 0x4 MSTORE PUSH1 0x24 PUSH1 0x0 REVERT JUMPDEST PUSH1 0x0 PUSH32 0xFFFFFFFFFFFFFFFFFFFFFFFFFFFFFFFFFFFFFFFFFFFFFFFFFFFFFFFFFFFFFFFF DUP3 SUB PUSH2 0xF86 JUMPI PUSH2 0xF86 PUSH2 0xEE4 JUMP JUMPDEST POP PUSH1 0x1 ADD SWAP1 JUMP JUMPDEST PUSH1 0x1 DUP2 DUP2 SHR SWAP1 DUP3 AND DUP1 PUSH2 0xFA1 JUMPI PUSH1 0x7F DUP3 AND SWAP2 POP JUMPDEST PUSH1 0x20 DUP3 LT DUP2 SUB PUSH2 0x4B6 JUMPI PUSH32 0x4E487B7100000000000000000000000000000000000000000000000000000000 PUSH1 0x0 MSTORE PUSH1 0x22 PUSH1 0x4 MSTORE PUSH1 0x24 PUSH1 0x0 REVERT JUMPDEST PUSH1 0x1F DUP3 GT ISZERO PUSH2 0x8A6 JUMPI PUSH1 0x0 DUP2 DUP2 MSTORE PUSH1 0x20 DUP2 KECCAK256 PUSH1 0x1F DUP6 ADD PUSH1 0x5 SHR DUP2 ADD PUSH1 0x20 DUP7 LT ISZERO PUSH2 0x1001 JUMPI POP DUP1 JUMPDEST PUSH1 0x1F DUP6 ADD PUSH1 0x5 SHR DUP3 ADD SWAP2 POP JUMPDEST DUP2 DUP2 LT ISZERO PUSH2 0x1020 JUMPI DUP3 DUP2 SSTORE PUSH1 0x1 ADD PUSH2 0x100D JUMP JUMPDEST POP POP POP POP POP POP JUMP JUMPDEST DUP2 MLOAD PUSH8 0xFFFFFFFFFFFFFFFF DUP2 GT ISZERO PUSH2 0x1042 JUMPI PUSH2 0x1042 PUSH2 0xBD5 JUMP JUMPDEST PUSH2 0x1056 DUP2 PUSH2 0x1050 DUP5 SLOAD PUSH2 0xF8D JUMP JUMPDEST DUP5 PUSH2 0xFDA JUMP JUMPDEST PUSH1 0x20 DUP1 PUSH1 0x1F DUP4 GT PUSH1 0x1 DUP2 EQ PUSH2 0x10A9 JUMPI PUSH1 0x0 DUP5 ISZERO PUSH2 0x1073 JUMPI POP DUP6 DUP4 ADD MLOAD JUMPDEST PUSH32 0xFFFFFFFFFFFFFFFFFFFFFFFFFFFFFFFFFFFFFFFFFFFFFFFFFFFFFFFFFFFFFFFF PUSH1 0x3 DUP7 SWAP1 SHL SHR NOT AND PUSH1 0x1 DUP6 SWAP1 SHL OR DUP6 SSTORE PUSH2 0x1020 JUMP JUMPDEST PUSH1 0x0 DUP6 DUP2 MSTORE PUSH1 0x20 DUP2 KECCAK256 PUSH32 0xFFFFFFFFFFFFFFFFFFFFFFFFFFFFFFFFFFFFFFFFFFFFFFFFFFFFFFFFFFFFFFE0 DUP7 AND SWAP2 JUMPDEST DUP3 DUP2 LT ISZERO PUSH2 0x10F6 JUMPI DUP9 DUP7 ADD MLOAD DUP3 SSTORE SWAP5 DUP5 ADD SWAP5 PUSH1 0x1 SWAP1 SWAP2 ADD SWAP1 DUP5 ADD PUSH2 0x10D7 JUMP JUMPDEST POP DUP6 DUP3 LT ISZERO PUSH2 0x1132 JUMPI DUP8 DUP6 ADD MLOAD PUSH32 0xFFFFFFFFFFFFFFFFFFFFFFFFFFFFFFFFFFFFFFFFFFFFFFFFFFFFFFFFFFFFFFFF PUSH1 0x3 DUP9 SWAP1 SHL PUSH1 0xF8 AND SHR NOT AND DUP2 SSTORE JUMPDEST POP POP POP POP POP PUSH1 0x1 SWAP1 DUP2 SHL ADD SWAP1 SSTORE POP JUMP JUMPDEST PUSH1 0x0 DUP1 DUP4 SLOAD PUSH2 0x1150 DUP2 PUSH2 0xF8D JUMP JUMPDEST PUSH1 0x1 DUP3 DUP2 AND DUP1 ISZERO PUSH2 0x1168 JUMPI PUSH1 0x1 DUP2 EQ PUSH2 0x119B JUMPI PUSH2 0x11CA JUMP JUMPDEST PUSH32 0xFFFFFFFFFFFFFFFFFFFFFFFFFFFFFFFFFFFFFFFFFFFFFFFFFFFFFFFFFFFFFF00 DUP5 AND DUP8 MSTORE DUP3 ISZERO ISZERO DUP4 MUL DUP8 ADD SWAP5 POP PUSH2 0x11CA JUMP JUMPDEST DUP8 PUSH1 0x0 MSTORE PUSH1 0x20 DUP1 PUSH1 0x0 KECCAK256 PUSH1 0x0 JUMPDEST DUP6 DUP2 LT ISZERO PUSH2 0x11C1 JUMPI DUP2 SLOAD DUP11 DUP3 ADD MSTORE SWAP1 DUP5 ADD SWAP1 DUP3 ADD PUSH2 0x11A8 JUMP JUMPDEST POP POP POP DUP3 DUP8 ADD SWAP5 POP JUMPDEST POP SWAP3 SWAP7 SWAP6 POP POP POP POP POP POP JUMP INVALID LOG2 PUSH5 0x6970667358 0x22 SLT KECCAK256 MSIZE SELFBALANCE 0xBA 0xF 0xED LOG1 0x27 DUP4 SWAP15 PUSH17 0xB0A98EA3350AE6E774CEC40F63B4A537B8 0x27 SELFDESTRUCT 0xED 0x26 PUSH2 0x6473 PUSH16 0x6C634300081300330000000000000000 "
		},
		"gasEstimates": {
			"creation": {
				"codeDepositCost": "924000",
				"executionCost": "23068",
				"totalCost": "947068"
			},
			"external": {
				"count()": "2308",
				"create(string)": "infinite",
				"downgrade(string,uint256)": "infinite",
				"getImplementation(string,uint256)": "infinite",
				"getImplementations(string)": "infinite",
				"getLatestImplementation(string)": "infinite",
				"getLatestVersion(string)": "infinite",
				"getModules()": "infinite",
				"nameToIdentifier(string)": "infinite",
				"upgrade(string,address)": "infinite"
			},
			"internal": {
				"_mustBeExistingModule(string memory)": "infinite",
				"_mustBeExistingVersion(string memory,uint256)": "infinite",
				"_mustNotBeDuplicateImplementation(string memory,address)": "infinite",
				"_mustNotBeExistingModule(string memory)": "infinite",
				"_upgrade(string memory,address)": "infinite"
			}
		},
		"methodIdentifiers": {
			"count()": "06661abd",
			"create(string)": "b6a46b3b",
			"downgrade(string,uint256)": "fb68ba31",
			"getImplementation(string,uint256)": "e8009dda",
			"getImplementations(string)": "812a4f8c",
			"getLatestImplementation(string)": "d285f839",
			"getLatestVersion(string)": "cae96761",
			"getModules()": "b2494df3",
			"nameToIdentifier(string)": "278be867",
			"upgrade(string,address)": "5332c74d"
		}
	},
	"abi": [
		{
			"inputs": [],
			"stateMutability": "nonpayable",
			"type": "constructor"
		},
		{
			"anonymous": false,
			"inputs": [
				{
					"indexed": true,
					"internalType": "string",
					"name": "name",
					"type": "string"
				},
				{
					"indexed": true,
					"internalType": "uint256",
					"name": "identifer",
					"type": "uint256"
				}
			],
			"name": "ModuleCreated",
			"type": "event"
		},
		{
			"anonymous": false,
			"inputs": [
				{
					"indexed": true,
					"internalType": "string",
					"name": "name",
					"type": "string"
				},
				{
					"indexed": true,
					"internalType": "uint256",
					"name": "identifier",
					"type": "uint256"
				},
				{
					"indexed": true,
					"internalType": "address",
					"name": "newImplementation",
					"type": "address"
				}
			],
			"name": "ModuleDowngraded",
			"type": "event"
		},
		{
			"anonymous": false,
			"inputs": [
				{
					"indexed": true,
					"internalType": "string",
					"name": "name",
					"type": "string"
				},
				{
					"indexed": true,
					"internalType": "uint256",
					"name": "identifier",
					"type": "uint256"
				},
				{
					"indexed": true,
					"internalType": "address",
					"name": "newImplementation",
					"type": "address"
				}
			],
			"name": "ModuleUpgraded",
			"type": "event"
		},
		{
			"inputs": [],
			"name": "count",
			"outputs": [
				{
					"internalType": "uint256",
					"name": "",
					"type": "uint256"
				}
			],
			"stateMutability": "view",
			"type": "function"
		},
		{
			"inputs": [
				{
					"internalType": "string",
					"name": "name",
					"type": "string"
				}
			],
			"name": "create",
			"outputs": [
				{
					"internalType": "uint256",
					"name": "",
					"type": "uint256"
				}
			],
			"stateMutability": "nonpayable",
			"type": "function"
		},
		{
			"inputs": [
				{
					"internalType": "string",
					"name": "name",
					"type": "string"
				},
				{
					"internalType": "uint256",
					"name": "version",
					"type": "uint256"
				}
			],
			"name": "downgrade",
			"outputs": [],
			"stateMutability": "nonpayable",
			"type": "function"
		},
		{
			"inputs": [
				{
					"internalType": "string",
					"name": "name",
					"type": "string"
				},
				{
					"internalType": "uint256",
					"name": "version",
					"type": "uint256"
				}
			],
			"name": "getImplementation",
			"outputs": [
				{
					"internalType": "address",
					"name": "",
					"type": "address"
				}
			],
			"stateMutability": "view",
			"type": "function"
		},
		{
			"inputs": [
				{
					"internalType": "string",
					"name": "name",
					"type": "string"
				}
			],
			"name": "getImplementations",
			"outputs": [
				{
					"internalType": "address[]",
					"name": "",
					"type": "address[]"
				}
			],
			"stateMutability": "view",
			"type": "function"
		},
		{
			"inputs": [
				{
					"internalType": "string",
					"name": "name",
					"type": "string"
				}
			],
			"name": "getLatestImplementation",
			"outputs": [
				{
					"internalType": "address",
					"name": "",
					"type": "address"
				}
			],
			"stateMutability": "view",
			"type": "function"
		},
		{
			"inputs": [
				{
					"internalType": "string",
					"name": "name",
					"type": "string"
				}
			],
			"name": "getLatestVersion",
			"outputs": [
				{
					"internalType": "uint256",
					"name": "",
					"type": "uint256"
				}
			],
			"stateMutability": "view",
			"type": "function"
		},
		{
			"inputs": [],
			"name": "getModules",
			"outputs": [
				{
					"internalType": "string[]",
					"name": "",
					"type": "string[]"
				}
			],
			"stateMutability": "view",
			"type": "function"
		},
		{
			"inputs": [
				{
					"internalType": "string",
					"name": "",
					"type": "string"
				}
			],
			"name": "nameToIdentifier",
			"outputs": [
				{
					"internalType": "uint256",
					"name": "",
					"type": "uint256"
				}
			],
			"stateMutability": "view",
			"type": "function"
		},
		{
			"inputs": [
				{
					"internalType": "string",
					"name": "name",
					"type": "string"
				},
				{
					"internalType": "address",
					"name": "newImplementation",
					"type": "address"
				}
			],
			"name": "upgrade",
			"outputs": [],
			"stateMutability": "nonpayable",
			"type": "function"
		}
	]
}