{
	"data": {
		"bytecode": {
			"linkReferences": {},
			"object": "608060405234801561000f575f80fd5b5060015f55611175806100215f395ff3fe608060405234801561000f575f80fd5b50600436106100b9575f3560e01c8063b6a46b3b11610072578063d285f83911610058578063d285f83914610174578063e8009dda146101ac578063fb68ba31146101bf575f80fd5b8063b6a46b3b1461014e578063cae9676114610161575f80fd5b80635332c74d116100a25780635332c74d14610104578063812a4f8c14610119578063b2494df314610139575f80fd5b806306661abd146100bd578063278be867146100d9575b5f80fd5b6100c660015481565b6040519081526020015b60405180910390f35b6100c66100e7366004610c51565b805160208183018101805160038252928201919093012091525481565b610117610112366004610c83565b6101d2565b005b61012c610127366004610c51565b61026e565b6040516100d09190610cea565b610141610365565b6040516100d09190610d65565b6100c661015c366004610c51565b610493565b6100c661016f366004610c51565b610554565b610187610182366004610c51565b61059a565b60405173ffffffffffffffffffffffffffffffffffffffff90911681526020016100d0565b6101876101ba366004610e19565b6105e6565b6101176101cd366004610e19565b610643565b6101da610716565b6101e4828261078c565b6101ee8282610866565b8073ffffffffffffffffffffffffffffffffffffffff166003836040516102159190610e5b565b908152602001604051809103902054836040516102329190610e5b565b604051908190038120907f302019a635b19d3c4a1cf2d61269495b26e45b91cbb29a4f8cf400e68e18da7f905f90a461026a60015f55565b5050565b60605f60025f6003856040516102849190610e5b565b90815260200160405180910390205481526020019081526020015f2090505f6102af826002016108bd565b67ffffffffffffffff8111156102c7576102c7610b7d565b6040519080825280602002602001820160405280156102f0578160200160208202803683370190505b5090505f5b610301836002016108bd565b811161035d5761031460028401826108c6565b82828151811061032657610326610e76565b73ffffffffffffffffffffffffffffffffffffffff909216602092830291909101909101528061035581610ea3565b9150506102f5565b509392505050565b60605f60015467ffffffffffffffff81111561038357610383610b7d565b6040519080825280602002602001820160405280156103b657816020015b60608152602001906001900390816103a15790505b5090505f5b600154811161048d575f8181526002602052604090206001810180546103e090610eff565b80601f016020809104026020016040519081016040528092919081815260200182805461040c90610eff565b80156104575780601f1061042e57610100808354040283529160200191610457565b820191905f5260205f20905b81548152906001019060200180831161043a57829003601f168201915b505050505083838151811061046e5761046e610e76565b602002602001018190525050808061048590610ea3565b9150506103bb565b50919050565b5f61049c610716565b6104a5826108d1565b60018054905f6104b483610ea3565b90915550506001545f818152600260205260409081902090519091906003906104de908690610e5b565b9081526040519081900360200190205560018054825581016105008482610f97565b5080546040516105149060018401906110af565b604051908190038120907fe0e6e8b81ae036efc4ae16444815ccc05dd21be3412ddacd8376ebb5cdb47238905f90a354905061054f60015f55565b919050565b5f8060025f6003856040516105699190610e5b565b90815260200160405180910390205481526020019081526020015f209050610593816002016108bd565b9392505050565b5f8060025f6003856040516105af9190610e5b565b90815260200160405180910390205481526020019081526020015f2090506105936105dc826002016108bd565b60028301906108c6565b5f6105f1838361095b565b5f60025f6003866040516106059190610e5b565b90815260200160405180910390205481526020019081526020015f20905061063983826002016108c690919063ffffffff16565b9150505b92915050565b61064b610716565b61065482610a35565b5f60025f6003856040516106689190610e5b565b90815260200160405180910390205481526020019081526020015f2090506106a5836106a084846002016108c690919063ffffffff16565b610866565b6106b260028201836108c6565b73ffffffffffffffffffffffffffffffffffffffff16815f0154826001016040516106dd91906110af565b604051908190038120907f8f06933070a3367170d50b358e9d73813dfbaaa11081bd5580ae4af2baba122d905f90a45061026a60015f55565b60025f5403610786576040517f08c379a000000000000000000000000000000000000000000000000000000000815260206004820152601f60248201527f5265656e7472616e637947756172643a207265656e7472616e742063616c6c0060448201526064015b60405180910390fd5b60025f55565b5f60025f6003856040516107a09190610e5b565b90815260200160405180910390205481526020019081526020015f2090506107d48282600201610abc90919063ffffffff16565b15610861576040517f08c379a000000000000000000000000000000000000000000000000000000000815260206004820152602760248201527f4d6f64756c6520616c726561647920686173207468697320696d706c656d656e60448201527f746174696f6e2e00000000000000000000000000000000000000000000000000606482015260840161077d565b505050565b61086f82610a35565b5f60025f6003856040516108839190610e5b565b90815260200160405180910390205481526020019081526020015f2090506108b78282600201610aea90919063ffffffff16565b50505050565b5f61063d825490565b5f6105938383610b0b565b6003816040516108e19190610e5b565b9081526020016040518091039020545f14610958576040517f08c379a000000000000000000000000000000000000000000000000000000000815260206004820152601e60248201527f4d6f64756c65206e616d6520697320616c726561647920696e207573652e0000604482015260640161077d565b50565b5f60025f60038560405161096f9190610e5b565b90815260200160405180910390205481526020019081526020015f209050600182101580156109a957506109a5816002016108bd565b8211155b610861576040517f08c379a000000000000000000000000000000000000000000000000000000000815260206004820152603560248201527f56657273696f6e20646f6573206e6f7420706f696e7420746f20616e2065786960448201527f7374696e6720696d706c656d656e746174696f6e2e0000000000000000000000606482015260840161077d565b600381604051610a459190610e5b565b9081526020016040518091039020545f03610958576040517f08c379a000000000000000000000000000000000000000000000000000000000815260206004820152601660248201527f4d6f64756c6520646f6573206e6f742065786973742e00000000000000000000604482015260640161077d565b73ffffffffffffffffffffffffffffffffffffffff81165f9081526001830160205260408120541515610593565b5f6105938373ffffffffffffffffffffffffffffffffffffffff8416610b31565b5f825f018281548110610b2057610b20610e76565b905f5260205f200154905092915050565b5f818152600183016020526040812054610b7657508154600181810184555f84815260208082209093018490558454848252828601909352604090209190915561063d565b505f61063d565b7f4e487b71000000000000000000000000000000000000000000000000000000005f52604160045260245ffd5b5f82601f830112610bb9575f80fd5b813567ffffffffffffffff80821115610bd457610bd4610b7d565b604051601f83017fffffffffffffffffffffffffffffffffffffffffffffffffffffffffffffffe0908116603f01168101908282118183101715610c1a57610c1a610b7d565b81604052838152866020858801011115610c32575f80fd5b836020870160208301375f602085830101528094505050505092915050565b5f60208284031215610c61575f80fd5b813567ffffffffffffffff811115610c77575f80fd5b61063984828501610baa565b5f8060408385031215610c94575f80fd5b823567ffffffffffffffff811115610caa575f80fd5b610cb685828601610baa565b925050602083013573ffffffffffffffffffffffffffffffffffffffff81168114610cdf575f80fd5b809150509250929050565b602080825282518282018190525f9190848201906040850190845b81811015610d3757835173ffffffffffffffffffffffffffffffffffffffff1683529284019291840191600101610d05565b50909695505050505050565b5f5b83811015610d5d578181015183820152602001610d45565b50505f910152565b5f602080830181845280855180835260408601915060408160051b87010192508387015f5b82811015610e0c577fffffffffffffffffffffffffffffffffffffffffffffffffffffffffffffffc088860301845281518051808752610dcf818989018a8501610d43565b601f017fffffffffffffffffffffffffffffffffffffffffffffffffffffffffffffffe01695909501860194509285019290850190600101610d8a565b5092979650505050505050565b5f8060408385031215610e2a575f80fd5b823567ffffffffffffffff811115610e40575f80fd5b610e4c85828601610baa565b95602094909401359450505050565b5f8251610e6c818460208701610d43565b9190910192915050565b7f4e487b71000000000000000000000000000000000000000000000000000000005f52603260045260245ffd5b5f7fffffffffffffffffffffffffffffffffffffffffffffffffffffffffffffffff8203610ef8577f4e487b71000000000000000000000000000000000000000000000000000000005f52601160045260245ffd5b5060010190565b600181811c90821680610f1357607f821691505b60208210810361048d577f4e487b71000000000000000000000000000000000000000000000000000000005f52602260045260245ffd5b601f821115610861575f81815260208120601f850160051c81016020861015610f705750805b601f850160051c820191505b81811015610f8f57828155600101610f7c565b505050505050565b815167ffffffffffffffff811115610fb157610fb1610b7d565b610fc581610fbf8454610eff565b84610f4a565b602080601f831160018114611017575f8415610fe15750858301515b7fffffffffffffffffffffffffffffffffffffffffffffffffffffffffffffffff600386901b1c1916600185901b178555610f8f565b5f858152602081207fffffffffffffffffffffffffffffffffffffffffffffffffffffffffffffffe08616915b8281101561106357888601518255948401946001909101908401611044565b508582101561109f57878501517fffffffffffffffffffffffffffffffffffffffffffffffffffffffffffffffff600388901b60f8161c191681555b5050505050600190811b01905550565b5f8083546110bc81610eff565b600182811680156110d4576001811461110757611133565b7fffffffffffffffffffffffffffffffffffffffffffffffffffffffffffffff0084168752821515830287019450611133565b875f526020805f205f5b8581101561112a5781548a820152908401908201611111565b50505082870194505b5092969550505050505056fea2646970667358221220e8596f6c4dcafd84bcc9991170e23d0f4e737250941b21005fc9cce2c7b83b8664736f6c63430008140033",
			"opcodes": "PUSH1 0x80 PUSH1 0x40 MSTORE CALLVALUE DUP1 ISZERO PUSH2 0xF JUMPI PUSH0 DUP1 REVERT JUMPDEST POP PUSH1 0x1 PUSH0 SSTORE PUSH2 0x1175 DUP1 PUSH2 0x21 PUSH0 CODECOPY PUSH0 RETURN INVALID PUSH1 0x80 PUSH1 0x40 MSTORE CALLVALUE DUP1 ISZERO PUSH2 0xF JUMPI PUSH0 DUP1 REVERT JUMPDEST POP PUSH1 0x4 CALLDATASIZE LT PUSH2 0xB9 JUMPI PUSH0 CALLDATALOAD PUSH1 0xE0 SHR DUP1 PUSH4 0xB6A46B3B GT PUSH2 0x72 JUMPI DUP1 PUSH4 0xD285F839 GT PUSH2 0x58 JUMPI DUP1 PUSH4 0xD285F839 EQ PUSH2 0x174 JUMPI DUP1 PUSH4 0xE8009DDA EQ PUSH2 0x1AC JUMPI DUP1 PUSH4 0xFB68BA31 EQ PUSH2 0x1BF JUMPI PUSH0 DUP1 REVERT JUMPDEST DUP1 PUSH4 0xB6A46B3B EQ PUSH2 0x14E JUMPI DUP1 PUSH4 0xCAE96761 EQ PUSH2 0x161 JUMPI PUSH0 DUP1 REVERT JUMPDEST DUP1 PUSH4 0x5332C74D GT PUSH2 0xA2 JUMPI DUP1 PUSH4 0x5332C74D EQ PUSH2 0x104 JUMPI DUP1 PUSH4 0x812A4F8C EQ PUSH2 0x119 JUMPI DUP1 PUSH4 0xB2494DF3 EQ PUSH2 0x139 JUMPI PUSH0 DUP1 REVERT JUMPDEST DUP1 PUSH4 0x6661ABD EQ PUSH2 0xBD JUMPI DUP1 PUSH4 0x278BE867 EQ PUSH2 0xD9 JUMPI JUMPDEST PUSH0 DUP1 REVERT JUMPDEST PUSH2 0xC6 PUSH1 0x1 SLOAD DUP2 JUMP JUMPDEST PUSH1 0x40 MLOAD SWAP1 DUP2 MSTORE PUSH1 0x20 ADD JUMPDEST PUSH1 0x40 MLOAD DUP1 SWAP2 SUB SWAP1 RETURN JUMPDEST PUSH2 0xC6 PUSH2 0xE7 CALLDATASIZE PUSH1 0x4 PUSH2 0xC51 JUMP JUMPDEST DUP1 MLOAD PUSH1 0x20 DUP2 DUP4 ADD DUP2 ADD DUP1 MLOAD PUSH1 0x3 DUP3 MSTORE SWAP3 DUP3 ADD SWAP2 SWAP1 SWAP4 ADD KECCAK256 SWAP2 MSTORE SLOAD DUP2 JUMP JUMPDEST PUSH2 0x117 PUSH2 0x112 CALLDATASIZE PUSH1 0x4 PUSH2 0xC83 JUMP JUMPDEST PUSH2 0x1D2 JUMP JUMPDEST STOP JUMPDEST PUSH2 0x12C PUSH2 0x127 CALLDATASIZE PUSH1 0x4 PUSH2 0xC51 JUMP JUMPDEST PUSH2 0x26E JUMP JUMPDEST PUSH1 0x40 MLOAD PUSH2 0xD0 SWAP2 SWAP1 PUSH2 0xCEA JUMP JUMPDEST PUSH2 0x141 PUSH2 0x365 JUMP JUMPDEST PUSH1 0x40 MLOAD PUSH2 0xD0 SWAP2 SWAP1 PUSH2 0xD65 JUMP JUMPDEST PUSH2 0xC6 PUSH2 0x15C CALLDATASIZE PUSH1 0x4 PUSH2 0xC51 JUMP JUMPDEST PUSH2 0x493 JUMP JUMPDEST PUSH2 0xC6 PUSH2 0x16F CALLDATASIZE PUSH1 0x4 PUSH2 0xC51 JUMP JUMPDEST PUSH2 0x554 JUMP JUMPDEST PUSH2 0x187 PUSH2 0x182 CALLDATASIZE PUSH1 0x4 PUSH2 0xC51 JUMP JUMPDEST PUSH2 0x59A JUMP JUMPDEST PUSH1 0x40 MLOAD PUSH20 0xFFFFFFFFFFFFFFFFFFFFFFFFFFFFFFFFFFFFFFFF SWAP1 SWAP2 AND DUP2 MSTORE PUSH1 0x20 ADD PUSH2 0xD0 JUMP JUMPDEST PUSH2 0x187 PUSH2 0x1BA CALLDATASIZE PUSH1 0x4 PUSH2 0xE19 JUMP JUMPDEST PUSH2 0x5E6 JUMP JUMPDEST PUSH2 0x117 PUSH2 0x1CD CALLDATASIZE PUSH1 0x4 PUSH2 0xE19 JUMP JUMPDEST PUSH2 0x643 JUMP JUMPDEST PUSH2 0x1DA PUSH2 0x716 JUMP JUMPDEST PUSH2 0x1E4 DUP3 DUP3 PUSH2 0x78C JUMP JUMPDEST PUSH2 0x1EE DUP3 DUP3 PUSH2 0x866 JUMP JUMPDEST DUP1 PUSH20 0xFFFFFFFFFFFFFFFFFFFFFFFFFFFFFFFFFFFFFFFF AND PUSH1 0x3 DUP4 PUSH1 0x40 MLOAD PUSH2 0x215 SWAP2 SWAP1 PUSH2 0xE5B JUMP JUMPDEST SWAP1 DUP2 MSTORE PUSH1 0x20 ADD PUSH1 0x40 MLOAD DUP1 SWAP2 SUB SWAP1 KECCAK256 SLOAD DUP4 PUSH1 0x40 MLOAD PUSH2 0x232 SWAP2 SWAP1 PUSH2 0xE5B JUMP JUMPDEST PUSH1 0x40 MLOAD SWAP1 DUP2 SWAP1 SUB DUP2 KECCAK256 SWAP1 PUSH32 0x302019A635B19D3C4A1CF2D61269495B26E45B91CBB29A4F8CF400E68E18DA7F SWAP1 PUSH0 SWAP1 LOG4 PUSH2 0x26A PUSH1 0x1 PUSH0 SSTORE JUMP JUMPDEST POP POP JUMP JUMPDEST PUSH1 0x60 PUSH0 PUSH1 0x2 PUSH0 PUSH1 0x3 DUP6 PUSH1 0x40 MLOAD PUSH2 0x284 SWAP2 SWAP1 PUSH2 0xE5B JUMP JUMPDEST SWAP1 DUP2 MSTORE PUSH1 0x20 ADD PUSH1 0x40 MLOAD DUP1 SWAP2 SUB SWAP1 KECCAK256 SLOAD DUP2 MSTORE PUSH1 0x20 ADD SWAP1 DUP2 MSTORE PUSH1 0x20 ADD PUSH0 KECCAK256 SWAP1 POP PUSH0 PUSH2 0x2AF DUP3 PUSH1 0x2 ADD PUSH2 0x8BD JUMP JUMPDEST PUSH8 0xFFFFFFFFFFFFFFFF DUP2 GT ISZERO PUSH2 0x2C7 JUMPI PUSH2 0x2C7 PUSH2 0xB7D JUMP JUMPDEST PUSH1 0x40 MLOAD SWAP1 DUP1 DUP3 MSTORE DUP1 PUSH1 0x20 MUL PUSH1 0x20 ADD DUP3 ADD PUSH1 0x40 MSTORE DUP1 ISZERO PUSH2 0x2F0 JUMPI DUP2 PUSH1 0x20 ADD PUSH1 0x20 DUP3 MUL DUP1 CALLDATASIZE DUP4 CALLDATACOPY ADD SWAP1 POP JUMPDEST POP SWAP1 POP PUSH0 JUMPDEST PUSH2 0x301 DUP4 PUSH1 0x2 ADD PUSH2 0x8BD JUMP JUMPDEST DUP2 GT PUSH2 0x35D JUMPI PUSH2 0x314 PUSH1 0x2 DUP5 ADD DUP3 PUSH2 0x8C6 JUMP JUMPDEST DUP3 DUP3 DUP2 MLOAD DUP2 LT PUSH2 0x326 JUMPI PUSH2 0x326 PUSH2 0xE76 JUMP JUMPDEST PUSH20 0xFFFFFFFFFFFFFFFFFFFFFFFFFFFFFFFFFFFFFFFF SWAP1 SWAP3 AND PUSH1 0x20 SWAP3 DUP4 MUL SWAP2 SWAP1 SWAP2 ADD SWAP1 SWAP2 ADD MSTORE DUP1 PUSH2 0x355 DUP2 PUSH2 0xEA3 JUMP JUMPDEST SWAP2 POP POP PUSH2 0x2F5 JUMP JUMPDEST POP SWAP4 SWAP3 POP POP POP JUMP JUMPDEST PUSH1 0x60 PUSH0 PUSH1 0x1 SLOAD PUSH8 0xFFFFFFFFFFFFFFFF DUP2 GT ISZERO PUSH2 0x383 JUMPI PUSH2 0x383 PUSH2 0xB7D JUMP JUMPDEST PUSH1 0x40 MLOAD SWAP1 DUP1 DUP3 MSTORE DUP1 PUSH1 0x20 MUL PUSH1 0x20 ADD DUP3 ADD PUSH1 0x40 MSTORE DUP1 ISZERO PUSH2 0x3B6 JUMPI DUP2 PUSH1 0x20 ADD JUMPDEST PUSH1 0x60 DUP2 MSTORE PUSH1 0x20 ADD SWAP1 PUSH1 0x1 SWAP1 SUB SWAP1 DUP2 PUSH2 0x3A1 JUMPI SWAP1 POP JUMPDEST POP SWAP1 POP PUSH0 JUMPDEST PUSH1 0x1 SLOAD DUP2 GT PUSH2 0x48D JUMPI PUSH0 DUP2 DUP2 MSTORE PUSH1 0x2 PUSH1 0x20 MSTORE PUSH1 0x40 SWAP1 KECCAK256 PUSH1 0x1 DUP2 ADD DUP1 SLOAD PUSH2 0x3E0 SWAP1 PUSH2 0xEFF JUMP JUMPDEST DUP1 PUSH1 0x1F ADD PUSH1 0x20 DUP1 SWAP2 DIV MUL PUSH1 0x20 ADD PUSH1 0x40 MLOAD SWAP1 DUP2 ADD PUSH1 0x40 MSTORE DUP1 SWAP3 SWAP2 SWAP1 DUP2 DUP2 MSTORE PUSH1 0x20 ADD DUP3 DUP1 SLOAD PUSH2 0x40C SWAP1 PUSH2 0xEFF JUMP JUMPDEST DUP1 ISZERO PUSH2 0x457 JUMPI DUP1 PUSH1 0x1F LT PUSH2 0x42E JUMPI PUSH2 0x100 DUP1 DUP4 SLOAD DIV MUL DUP4 MSTORE SWAP2 PUSH1 0x20 ADD SWAP2 PUSH2 0x457 JUMP JUMPDEST DUP3 ADD SWAP2 SWAP1 PUSH0 MSTORE PUSH1 0x20 PUSH0 KECCAK256 SWAP1 JUMPDEST DUP2 SLOAD DUP2 MSTORE SWAP1 PUSH1 0x1 ADD SWAP1 PUSH1 0x20 ADD DUP1 DUP4 GT PUSH2 0x43A JUMPI DUP3 SWAP1 SUB PUSH1 0x1F AND DUP3 ADD SWAP2 JUMPDEST POP POP POP POP POP DUP4 DUP4 DUP2 MLOAD DUP2 LT PUSH2 0x46E JUMPI PUSH2 0x46E PUSH2 0xE76 JUMP JUMPDEST PUSH1 0x20 MUL PUSH1 0x20 ADD ADD DUP2 SWAP1 MSTORE POP POP DUP1 DUP1 PUSH2 0x485 SWAP1 PUSH2 0xEA3 JUMP JUMPDEST SWAP2 POP POP PUSH2 0x3BB JUMP JUMPDEST POP SWAP2 SWAP1 POP JUMP JUMPDEST PUSH0 PUSH2 0x49C PUSH2 0x716 JUMP JUMPDEST PUSH2 0x4A5 DUP3 PUSH2 0x8D1 JUMP JUMPDEST PUSH1 0x1 DUP1 SLOAD SWAP1 PUSH0 PUSH2 0x4B4 DUP4 PUSH2 0xEA3 JUMP JUMPDEST SWAP1 SWAP2 SSTORE POP POP PUSH1 0x1 SLOAD PUSH0 DUP2 DUP2 MSTORE PUSH1 0x2 PUSH1 0x20 MSTORE PUSH1 0x40 SWAP1 DUP2 SWAP1 KECCAK256 SWAP1 MLOAD SWAP1 SWAP2 SWAP1 PUSH1 0x3 SWAP1 PUSH2 0x4DE SWAP1 DUP7 SWAP1 PUSH2 0xE5B JUMP JUMPDEST SWAP1 DUP2 MSTORE PUSH1 0x40 MLOAD SWAP1 DUP2 SWAP1 SUB PUSH1 0x20 ADD SWAP1 KECCAK256 SSTORE PUSH1 0x1 DUP1 SLOAD DUP3 SSTORE DUP2 ADD PUSH2 0x500 DUP5 DUP3 PUSH2 0xF97 JUMP JUMPDEST POP DUP1 SLOAD PUSH1 0x40 MLOAD PUSH2 0x514 SWAP1 PUSH1 0x1 DUP5 ADD SWAP1 PUSH2 0x10AF JUMP JUMPDEST PUSH1 0x40 MLOAD SWAP1 DUP2 SWAP1 SUB DUP2 KECCAK256 SWAP1 PUSH32 0xE0E6E8B81AE036EFC4AE16444815CCC05DD21BE3412DDACD8376EBB5CDB47238 SWAP1 PUSH0 SWAP1 LOG3 SLOAD SWAP1 POP PUSH2 0x54F PUSH1 0x1 PUSH0 SSTORE JUMP JUMPDEST SWAP2 SWAP1 POP JUMP JUMPDEST PUSH0 DUP1 PUSH1 0x2 PUSH0 PUSH1 0x3 DUP6 PUSH1 0x40 MLOAD PUSH2 0x569 SWAP2 SWAP1 PUSH2 0xE5B JUMP JUMPDEST SWAP1 DUP2 MSTORE PUSH1 0x20 ADD PUSH1 0x40 MLOAD DUP1 SWAP2 SUB SWAP1 KECCAK256 SLOAD DUP2 MSTORE PUSH1 0x20 ADD SWAP1 DUP2 MSTORE PUSH1 0x20 ADD PUSH0 KECCAK256 SWAP1 POP PUSH2 0x593 DUP2 PUSH1 0x2 ADD PUSH2 0x8BD JUMP JUMPDEST SWAP4 SWAP3 POP POP POP JUMP JUMPDEST PUSH0 DUP1 PUSH1 0x2 PUSH0 PUSH1 0x3 DUP6 PUSH1 0x40 MLOAD PUSH2 0x5AF SWAP2 SWAP1 PUSH2 0xE5B JUMP JUMPDEST SWAP1 DUP2 MSTORE PUSH1 0x20 ADD PUSH1 0x40 MLOAD DUP1 SWAP2 SUB SWAP1 KECCAK256 SLOAD DUP2 MSTORE PUSH1 0x20 ADD SWAP1 DUP2 MSTORE PUSH1 0x20 ADD PUSH0 KECCAK256 SWAP1 POP PUSH2 0x593 PUSH2 0x5DC DUP3 PUSH1 0x2 ADD PUSH2 0x8BD JUMP JUMPDEST PUSH1 0x2 DUP4 ADD SWAP1 PUSH2 0x8C6 JUMP JUMPDEST PUSH0 PUSH2 0x5F1 DUP4 DUP4 PUSH2 0x95B JUMP JUMPDEST PUSH0 PUSH1 0x2 PUSH0 PUSH1 0x3 DUP7 PUSH1 0x40 MLOAD PUSH2 0x605 SWAP2 SWAP1 PUSH2 0xE5B JUMP JUMPDEST SWAP1 DUP2 MSTORE PUSH1 0x20 ADD PUSH1 0x40 MLOAD DUP1 SWAP2 SUB SWAP1 KECCAK256 SLOAD DUP2 MSTORE PUSH1 0x20 ADD SWAP1 DUP2 MSTORE PUSH1 0x20 ADD PUSH0 KECCAK256 SWAP1 POP PUSH2 0x639 DUP4 DUP3 PUSH1 0x2 ADD PUSH2 0x8C6 SWAP1 SWAP2 SWAP1 PUSH4 0xFFFFFFFF AND JUMP JUMPDEST SWAP2 POP POP JUMPDEST SWAP3 SWAP2 POP POP JUMP JUMPDEST PUSH2 0x64B PUSH2 0x716 JUMP JUMPDEST PUSH2 0x654 DUP3 PUSH2 0xA35 JUMP JUMPDEST PUSH0 PUSH1 0x2 PUSH0 PUSH1 0x3 DUP6 PUSH1 0x40 MLOAD PUSH2 0x668 SWAP2 SWAP1 PUSH2 0xE5B JUMP JUMPDEST SWAP1 DUP2 MSTORE PUSH1 0x20 ADD PUSH1 0x40 MLOAD DUP1 SWAP2 SUB SWAP1 KECCAK256 SLOAD DUP2 MSTORE PUSH1 0x20 ADD SWAP1 DUP2 MSTORE PUSH1 0x20 ADD PUSH0 KECCAK256 SWAP1 POP PUSH2 0x6A5 DUP4 PUSH2 0x6A0 DUP5 DUP5 PUSH1 0x2 ADD PUSH2 0x8C6 SWAP1 SWAP2 SWAP1 PUSH4 0xFFFFFFFF AND JUMP JUMPDEST PUSH2 0x866 JUMP JUMPDEST PUSH2 0x6B2 PUSH1 0x2 DUP3 ADD DUP4 PUSH2 0x8C6 JUMP JUMPDEST PUSH20 0xFFFFFFFFFFFFFFFFFFFFFFFFFFFFFFFFFFFFFFFF AND DUP2 PUSH0 ADD SLOAD DUP3 PUSH1 0x1 ADD PUSH1 0x40 MLOAD PUSH2 0x6DD SWAP2 SWAP1 PUSH2 0x10AF JUMP JUMPDEST PUSH1 0x40 MLOAD SWAP1 DUP2 SWAP1 SUB DUP2 KECCAK256 SWAP1 PUSH32 0x8F06933070A3367170D50B358E9D73813DFBAAA11081BD5580AE4AF2BABA122D SWAP1 PUSH0 SWAP1 LOG4 POP PUSH2 0x26A PUSH1 0x1 PUSH0 SSTORE JUMP JUMPDEST PUSH1 0x2 PUSH0 SLOAD SUB PUSH2 0x786 JUMPI PUSH1 0x40 MLOAD PUSH32 0x8C379A000000000000000000000000000000000000000000000000000000000 DUP2 MSTORE PUSH1 0x20 PUSH1 0x4 DUP3 ADD MSTORE PUSH1 0x1F PUSH1 0x24 DUP3 ADD MSTORE PUSH32 0x5265656E7472616E637947756172643A207265656E7472616E742063616C6C00 PUSH1 0x44 DUP3 ADD MSTORE PUSH1 0x64 ADD JUMPDEST PUSH1 0x40 MLOAD DUP1 SWAP2 SUB SWAP1 REVERT JUMPDEST PUSH1 0x2 PUSH0 SSTORE JUMP JUMPDEST PUSH0 PUSH1 0x2 PUSH0 PUSH1 0x3 DUP6 PUSH1 0x40 MLOAD PUSH2 0x7A0 SWAP2 SWAP1 PUSH2 0xE5B JUMP JUMPDEST SWAP1 DUP2 MSTORE PUSH1 0x20 ADD PUSH1 0x40 MLOAD DUP1 SWAP2 SUB SWAP1 KECCAK256 SLOAD DUP2 MSTORE PUSH1 0x20 ADD SWAP1 DUP2 MSTORE PUSH1 0x20 ADD PUSH0 KECCAK256 SWAP1 POP PUSH2 0x7D4 DUP3 DUP3 PUSH1 0x2 ADD PUSH2 0xABC SWAP1 SWAP2 SWAP1 PUSH4 0xFFFFFFFF AND JUMP JUMPDEST ISZERO PUSH2 0x861 JUMPI PUSH1 0x40 MLOAD PUSH32 0x8C379A000000000000000000000000000000000000000000000000000000000 DUP2 MSTORE PUSH1 0x20 PUSH1 0x4 DUP3 ADD MSTORE PUSH1 0x27 PUSH1 0x24 DUP3 ADD MSTORE PUSH32 0x4D6F64756C6520616C726561647920686173207468697320696D706C656D656E PUSH1 0x44 DUP3 ADD MSTORE PUSH32 0x746174696F6E2E00000000000000000000000000000000000000000000000000 PUSH1 0x64 DUP3 ADD MSTORE PUSH1 0x84 ADD PUSH2 0x77D JUMP JUMPDEST POP POP POP JUMP JUMPDEST PUSH2 0x86F DUP3 PUSH2 0xA35 JUMP JUMPDEST PUSH0 PUSH1 0x2 PUSH0 PUSH1 0x3 DUP6 PUSH1 0x40 MLOAD PUSH2 0x883 SWAP2 SWAP1 PUSH2 0xE5B JUMP JUMPDEST SWAP1 DUP2 MSTORE PUSH1 0x20 ADD PUSH1 0x40 MLOAD DUP1 SWAP2 SUB SWAP1 KECCAK256 SLOAD DUP2 MSTORE PUSH1 0x20 ADD SWAP1 DUP2 MSTORE PUSH1 0x20 ADD PUSH0 KECCAK256 SWAP1 POP PUSH2 0x8B7 DUP3 DUP3 PUSH1 0x2 ADD PUSH2 0xAEA SWAP1 SWAP2 SWAP1 PUSH4 0xFFFFFFFF AND JUMP JUMPDEST POP POP POP POP JUMP JUMPDEST PUSH0 PUSH2 0x63D DUP3 SLOAD SWAP1 JUMP JUMPDEST PUSH0 PUSH2 0x593 DUP4 DUP4 PUSH2 0xB0B JUMP JUMPDEST PUSH1 0x3 DUP2 PUSH1 0x40 MLOAD PUSH2 0x8E1 SWAP2 SWAP1 PUSH2 0xE5B JUMP JUMPDEST SWAP1 DUP2 MSTORE PUSH1 0x20 ADD PUSH1 0x40 MLOAD DUP1 SWAP2 SUB SWAP1 KECCAK256 SLOAD PUSH0 EQ PUSH2 0x958 JUMPI PUSH1 0x40 MLOAD PUSH32 0x8C379A000000000000000000000000000000000000000000000000000000000 DUP2 MSTORE PUSH1 0x20 PUSH1 0x4 DUP3 ADD MSTORE PUSH1 0x1E PUSH1 0x24 DUP3 ADD MSTORE PUSH32 0x4D6F64756C65206E616D6520697320616C726561647920696E207573652E0000 PUSH1 0x44 DUP3 ADD MSTORE PUSH1 0x64 ADD PUSH2 0x77D JUMP JUMPDEST POP JUMP JUMPDEST PUSH0 PUSH1 0x2 PUSH0 PUSH1 0x3 DUP6 PUSH1 0x40 MLOAD PUSH2 0x96F SWAP2 SWAP1 PUSH2 0xE5B JUMP JUMPDEST SWAP1 DUP2 MSTORE PUSH1 0x20 ADD PUSH1 0x40 MLOAD DUP1 SWAP2 SUB SWAP1 KECCAK256 SLOAD DUP2 MSTORE PUSH1 0x20 ADD SWAP1 DUP2 MSTORE PUSH1 0x20 ADD PUSH0 KECCAK256 SWAP1 POP PUSH1 0x1 DUP3 LT ISZERO DUP1 ISZERO PUSH2 0x9A9 JUMPI POP PUSH2 0x9A5 DUP2 PUSH1 0x2 ADD PUSH2 0x8BD JUMP JUMPDEST DUP3 GT ISZERO JUMPDEST PUSH2 0x861 JUMPI PUSH1 0x40 MLOAD PUSH32 0x8C379A000000000000000000000000000000000000000000000000000000000 DUP2 MSTORE PUSH1 0x20 PUSH1 0x4 DUP3 ADD MSTORE PUSH1 0x35 PUSH1 0x24 DUP3 ADD MSTORE PUSH32 0x56657273696F6E20646F6573206E6F7420706F696E7420746F20616E20657869 PUSH1 0x44 DUP3 ADD MSTORE PUSH32 0x7374696E6720696D706C656D656E746174696F6E2E0000000000000000000000 PUSH1 0x64 DUP3 ADD MSTORE PUSH1 0x84 ADD PUSH2 0x77D JUMP JUMPDEST PUSH1 0x3 DUP2 PUSH1 0x40 MLOAD PUSH2 0xA45 SWAP2 SWAP1 PUSH2 0xE5B JUMP JUMPDEST SWAP1 DUP2 MSTORE PUSH1 0x20 ADD PUSH1 0x40 MLOAD DUP1 SWAP2 SUB SWAP1 KECCAK256 SLOAD PUSH0 SUB PUSH2 0x958 JUMPI PUSH1 0x40 MLOAD PUSH32 0x8C379A000000000000000000000000000000000000000000000000000000000 DUP2 MSTORE PUSH1 0x20 PUSH1 0x4 DUP3 ADD MSTORE PUSH1 0x16 PUSH1 0x24 DUP3 ADD MSTORE PUSH32 0x4D6F64756C6520646F6573206E6F742065786973742E00000000000000000000 PUSH1 0x44 DUP3 ADD MSTORE PUSH1 0x64 ADD PUSH2 0x77D JUMP JUMPDEST PUSH20 0xFFFFFFFFFFFFFFFFFFFFFFFFFFFFFFFFFFFFFFFF DUP2 AND PUSH0 SWAP1 DUP2 MSTORE PUSH1 0x1 DUP4 ADD PUSH1 0x20 MSTORE PUSH1 0x40 DUP2 KECCAK256 SLOAD ISZERO ISZERO PUSH2 0x593 JUMP JUMPDEST PUSH0 PUSH2 0x593 DUP4 PUSH20 0xFFFFFFFFFFFFFFFFFFFFFFFFFFFFFFFFFFFFFFFF DUP5 AND PUSH2 0xB31 JUMP JUMPDEST PUSH0 DUP3 PUSH0 ADD DUP3 DUP2 SLOAD DUP2 LT PUSH2 0xB20 JUMPI PUSH2 0xB20 PUSH2 0xE76 JUMP JUMPDEST SWAP1 PUSH0 MSTORE PUSH1 0x20 PUSH0 KECCAK256 ADD SLOAD SWAP1 POP SWAP3 SWAP2 POP POP JUMP JUMPDEST PUSH0 DUP2 DUP2 MSTORE PUSH1 0x1 DUP4 ADD PUSH1 0x20 MSTORE PUSH1 0x40 DUP2 KECCAK256 SLOAD PUSH2 0xB76 JUMPI POP DUP2 SLOAD PUSH1 0x1 DUP2 DUP2 ADD DUP5 SSTORE PUSH0 DUP5 DUP2 MSTORE PUSH1 0x20 DUP1 DUP3 KECCAK256 SWAP1 SWAP4 ADD DUP5 SWAP1 SSTORE DUP5 SLOAD DUP5 DUP3 MSTORE DUP3 DUP7 ADD SWAP1 SWAP4 MSTORE PUSH1 0x40 SWAP1 KECCAK256 SWAP2 SWAP1 SWAP2 SSTORE PUSH2 0x63D JUMP JUMPDEST POP PUSH0 PUSH2 0x63D JUMP JUMPDEST PUSH32 0x4E487B7100000000000000000000000000000000000000000000000000000000 PUSH0 MSTORE PUSH1 0x41 PUSH1 0x4 MSTORE PUSH1 0x24 PUSH0 REVERT JUMPDEST PUSH0 DUP3 PUSH1 0x1F DUP4 ADD SLT PUSH2 0xBB9 JUMPI PUSH0 DUP1 REVERT JUMPDEST DUP2 CALLDATALOAD PUSH8 0xFFFFFFFFFFFFFFFF DUP1 DUP3 GT ISZERO PUSH2 0xBD4 JUMPI PUSH2 0xBD4 PUSH2 0xB7D JUMP JUMPDEST PUSH1 0x40 MLOAD PUSH1 0x1F DUP4 ADD PUSH32 0xFFFFFFFFFFFFFFFFFFFFFFFFFFFFFFFFFFFFFFFFFFFFFFFFFFFFFFFFFFFFFFE0 SWAP1 DUP2 AND PUSH1 0x3F ADD AND DUP2 ADD SWAP1 DUP3 DUP3 GT DUP2 DUP4 LT OR ISZERO PUSH2 0xC1A JUMPI PUSH2 0xC1A PUSH2 0xB7D JUMP JUMPDEST DUP2 PUSH1 0x40 MSTORE DUP4 DUP2 MSTORE DUP7 PUSH1 0x20 DUP6 DUP9 ADD ADD GT ISZERO PUSH2 0xC32 JUMPI PUSH0 DUP1 REVERT JUMPDEST DUP4 PUSH1 0x20 DUP8 ADD PUSH1 0x20 DUP4 ADD CALLDATACOPY PUSH0 PUSH1 0x20 DUP6 DUP4 ADD ADD MSTORE DUP1 SWAP5 POP POP POP POP POP SWAP3 SWAP2 POP POP JUMP JUMPDEST PUSH0 PUSH1 0x20 DUP3 DUP5 SUB SLT ISZERO PUSH2 0xC61 JUMPI PUSH0 DUP1 REVERT JUMPDEST DUP2 CALLDATALOAD PUSH8 0xFFFFFFFFFFFFFFFF DUP2 GT ISZERO PUSH2 0xC77 JUMPI PUSH0 DUP1 REVERT JUMPDEST PUSH2 0x639 DUP5 DUP3 DUP6 ADD PUSH2 0xBAA JUMP JUMPDEST PUSH0 DUP1 PUSH1 0x40 DUP4 DUP6 SUB SLT ISZERO PUSH2 0xC94 JUMPI PUSH0 DUP1 REVERT JUMPDEST DUP3 CALLDATALOAD PUSH8 0xFFFFFFFFFFFFFFFF DUP2 GT ISZERO PUSH2 0xCAA JUMPI PUSH0 DUP1 REVERT JUMPDEST PUSH2 0xCB6 DUP6 DUP3 DUP7 ADD PUSH2 0xBAA JUMP JUMPDEST SWAP3 POP POP PUSH1 0x20 DUP4 ADD CALLDATALOAD PUSH20 0xFFFFFFFFFFFFFFFFFFFFFFFFFFFFFFFFFFFFFFFF DUP2 AND DUP2 EQ PUSH2 0xCDF JUMPI PUSH0 DUP1 REVERT JUMPDEST DUP1 SWAP2 POP POP SWAP3 POP SWAP3 SWAP1 POP JUMP JUMPDEST PUSH1 0x20 DUP1 DUP3 MSTORE DUP3 MLOAD DUP3 DUP3 ADD DUP2 SWAP1 MSTORE PUSH0 SWAP2 SWAP1 DUP5 DUP3 ADD SWAP1 PUSH1 0x40 DUP6 ADD SWAP1 DUP5 JUMPDEST DUP2 DUP2 LT ISZERO PUSH2 0xD37 JUMPI DUP4 MLOAD PUSH20 0xFFFFFFFFFFFFFFFFFFFFFFFFFFFFFFFFFFFFFFFF AND DUP4 MSTORE SWAP3 DUP5 ADD SWAP3 SWAP2 DUP5 ADD SWAP2 PUSH1 0x1 ADD PUSH2 0xD05 JUMP JUMPDEST POP SWAP1 SWAP7 SWAP6 POP POP POP POP POP POP JUMP JUMPDEST PUSH0 JUMPDEST DUP4 DUP2 LT ISZERO PUSH2 0xD5D JUMPI DUP2 DUP2 ADD MLOAD DUP4 DUP3 ADD MSTORE PUSH1 0x20 ADD PUSH2 0xD45 JUMP JUMPDEST POP POP PUSH0 SWAP2 ADD MSTORE JUMP JUMPDEST PUSH0 PUSH1 0x20 DUP1 DUP4 ADD DUP2 DUP5 MSTORE DUP1 DUP6 MLOAD DUP1 DUP4 MSTORE PUSH1 0x40 DUP7 ADD SWAP2 POP PUSH1 0x40 DUP2 PUSH1 0x5 SHL DUP8 ADD ADD SWAP3 POP DUP4 DUP8 ADD PUSH0 JUMPDEST DUP3 DUP2 LT ISZERO PUSH2 0xE0C JUMPI PUSH32 0xFFFFFFFFFFFFFFFFFFFFFFFFFFFFFFFFFFFFFFFFFFFFFFFFFFFFFFFFFFFFFFC0 DUP9 DUP7 SUB ADD DUP5 MSTORE DUP2 MLOAD DUP1 MLOAD DUP1 DUP8 MSTORE PUSH2 0xDCF DUP2 DUP10 DUP10 ADD DUP11 DUP6 ADD PUSH2 0xD43 JUMP JUMPDEST PUSH1 0x1F ADD PUSH32 0xFFFFFFFFFFFFFFFFFFFFFFFFFFFFFFFFFFFFFFFFFFFFFFFFFFFFFFFFFFFFFFE0 AND SWAP6 SWAP1 SWAP6 ADD DUP7 ADD SWAP5 POP SWAP3 DUP6 ADD SWAP3 SWAP1 DUP6 ADD SWAP1 PUSH1 0x1 ADD PUSH2 0xD8A JUMP JUMPDEST POP SWAP3 SWAP8 SWAP7 POP POP POP POP POP POP POP JUMP JUMPDEST PUSH0 DUP1 PUSH1 0x40 DUP4 DUP6 SUB SLT ISZERO PUSH2 0xE2A JUMPI PUSH0 DUP1 REVERT JUMPDEST DUP3 CALLDATALOAD PUSH8 0xFFFFFFFFFFFFFFFF DUP2 GT ISZERO PUSH2 0xE40 JUMPI PUSH0 DUP1 REVERT JUMPDEST PUSH2 0xE4C DUP6 DUP3 DUP7 ADD PUSH2 0xBAA JUMP JUMPDEST SWAP6 PUSH1 0x20 SWAP5 SWAP1 SWAP5 ADD CALLDATALOAD SWAP5 POP POP POP POP JUMP JUMPDEST PUSH0 DUP3 MLOAD PUSH2 0xE6C DUP2 DUP5 PUSH1 0x20 DUP8 ADD PUSH2 0xD43 JUMP JUMPDEST SWAP2 SWAP1 SWAP2 ADD SWAP3 SWAP2 POP POP JUMP JUMPDEST PUSH32 0x4E487B7100000000000000000000000000000000000000000000000000000000 PUSH0 MSTORE PUSH1 0x32 PUSH1 0x4 MSTORE PUSH1 0x24 PUSH0 REVERT JUMPDEST PUSH0 PUSH32 0xFFFFFFFFFFFFFFFFFFFFFFFFFFFFFFFFFFFFFFFFFFFFFFFFFFFFFFFFFFFFFFFF DUP3 SUB PUSH2 0xEF8 JUMPI PUSH32 0x4E487B7100000000000000000000000000000000000000000000000000000000 PUSH0 MSTORE PUSH1 0x11 PUSH1 0x4 MSTORE PUSH1 0x24 PUSH0 REVERT JUMPDEST POP PUSH1 0x1 ADD SWAP1 JUMP JUMPDEST PUSH1 0x1 DUP2 DUP2 SHR SWAP1 DUP3 AND DUP1 PUSH2 0xF13 JUMPI PUSH1 0x7F DUP3 AND SWAP2 POP JUMPDEST PUSH1 0x20 DUP3 LT DUP2 SUB PUSH2 0x48D JUMPI PUSH32 0x4E487B7100000000000000000000000000000000000000000000000000000000 PUSH0 MSTORE PUSH1 0x22 PUSH1 0x4 MSTORE PUSH1 0x24 PUSH0 REVERT JUMPDEST PUSH1 0x1F DUP3 GT ISZERO PUSH2 0x861 JUMPI PUSH0 DUP2 DUP2 MSTORE PUSH1 0x20 DUP2 KECCAK256 PUSH1 0x1F DUP6 ADD PUSH1 0x5 SHR DUP2 ADD PUSH1 0x20 DUP7 LT ISZERO PUSH2 0xF70 JUMPI POP DUP1 JUMPDEST PUSH1 0x1F DUP6 ADD PUSH1 0x5 SHR DUP3 ADD SWAP2 POP JUMPDEST DUP2 DUP2 LT ISZERO PUSH2 0xF8F JUMPI DUP3 DUP2 SSTORE PUSH1 0x1 ADD PUSH2 0xF7C JUMP JUMPDEST POP POP POP POP POP POP JUMP JUMPDEST DUP2 MLOAD PUSH8 0xFFFFFFFFFFFFFFFF DUP2 GT ISZERO PUSH2 0xFB1 JUMPI PUSH2 0xFB1 PUSH2 0xB7D JUMP JUMPDEST PUSH2 0xFC5 DUP2 PUSH2 0xFBF DUP5 SLOAD PUSH2 0xEFF JUMP JUMPDEST DUP5 PUSH2 0xF4A JUMP JUMPDEST PUSH1 0x20 DUP1 PUSH1 0x1F DUP4 GT PUSH1 0x1 DUP2 EQ PUSH2 0x1017 JUMPI PUSH0 DUP5 ISZERO PUSH2 0xFE1 JUMPI POP DUP6 DUP4 ADD MLOAD JUMPDEST PUSH32 0xFFFFFFFFFFFFFFFFFFFFFFFFFFFFFFFFFFFFFFFFFFFFFFFFFFFFFFFFFFFFFFFF PUSH1 0x3 DUP7 SWAP1 SHL SHR NOT AND PUSH1 0x1 DUP6 SWAP1 SHL OR DUP6 SSTORE PUSH2 0xF8F JUMP JUMPDEST PUSH0 DUP6 DUP2 MSTORE PUSH1 0x20 DUP2 KECCAK256 PUSH32 0xFFFFFFFFFFFFFFFFFFFFFFFFFFFFFFFFFFFFFFFFFFFFFFFFFFFFFFFFFFFFFFE0 DUP7 AND SWAP2 JUMPDEST DUP3 DUP2 LT ISZERO PUSH2 0x1063 JUMPI DUP9 DUP7 ADD MLOAD DUP3 SSTORE SWAP5 DUP5 ADD SWAP5 PUSH1 0x1 SWAP1 SWAP2 ADD SWAP1 DUP5 ADD PUSH2 0x1044 JUMP JUMPDEST POP DUP6 DUP3 LT ISZERO PUSH2 0x109F JUMPI DUP8 DUP6 ADD MLOAD PUSH32 0xFFFFFFFFFFFFFFFFFFFFFFFFFFFFFFFFFFFFFFFFFFFFFFFFFFFFFFFFFFFFFFFF PUSH1 0x3 DUP9 SWAP1 SHL PUSH1 0xF8 AND SHR NOT AND DUP2 SSTORE JUMPDEST POP POP POP POP POP PUSH1 0x1 SWAP1 DUP2 SHL ADD SWAP1 SSTORE POP JUMP JUMPDEST PUSH0 DUP1 DUP4 SLOAD PUSH2 0x10BC DUP2 PUSH2 0xEFF JUMP JUMPDEST PUSH1 0x1 DUP3 DUP2 AND DUP1 ISZERO PUSH2 0x10D4 JUMPI PUSH1 0x1 DUP2 EQ PUSH2 0x1107 JUMPI PUSH2 0x1133 JUMP JUMPDEST PUSH32 0xFFFFFFFFFFFFFFFFFFFFFFFFFFFFFFFFFFFFFFFFFFFFFFFFFFFFFFFFFFFFFF00 DUP5 AND DUP8 MSTORE DUP3 ISZERO ISZERO DUP4 MUL DUP8 ADD SWAP5 POP PUSH2 0x1133 JUMP JUMPDEST DUP8 PUSH0 MSTORE PUSH1 0x20 DUP1 PUSH0 KECCAK256 PUSH0 JUMPDEST DUP6 DUP2 LT ISZERO PUSH2 0x112A JUMPI DUP2 SLOAD DUP11 DUP3 ADD MSTORE SWAP1 DUP5 ADD SWAP1 DUP3 ADD PUSH2 0x1111 JUMP JUMPDEST POP POP POP DUP3 DUP8 ADD SWAP5 POP JUMPDEST POP SWAP3 SWAP7 SWAP6 POP POP POP POP POP POP JUMP INVALID LOG2 PUSH5 0x6970667358 0x22 SLT KECCAK256 0xE8 MSIZE PUSH16 0x6C4DCAFD84BCC9991170E23D0F4E7372 POP SWAP5 SHL 0x21 STOP PUSH0 0xC9 0xCC 0xE2 0xC7 0xB8 EXTCODESIZE DUP7 PUSH5 0x736F6C6343 STOP ADDMOD EQ STOP CALLER "
		},
		"gasEstimates": {
			"creation": {
				"codeDepositCost": "893800",
				"executionCost": "23032",
				"totalCost": "916832"
			},
			"external": {
				"count()": "2307",
				"create(string)": "infinite",
				"downgrade(string,uint256)": "infinite",
				"getImplementation(string,uint256)": "infinite",
				"getImplementations(string)": "infinite",
				"getLatestImplementation(string)": "infinite",
				"getLatestVersion(string)": "infinite",
				"getModules()": "infinite",
				"nameToIdentifier(string)": "infinite",
				"upgrade(string,address)": "infinite"
			},
			"internal": {
				"_mustBeExistingModule(string memory)": "infinite",
				"_mustBeExistingVersion(string memory,uint256)": "infinite",
				"_mustNotBeDuplicateImplementation(string memory,address)": "infinite",
				"_mustNotBeExistingModule(string memory)": "infinite",
				"_upgrade(string memory,address)": "infinite"
			}
		},
		"methodIdentifiers": {
			"count()": "06661abd",
			"create(string)": "b6a46b3b",
			"downgrade(string,uint256)": "fb68ba31",
			"getImplementation(string,uint256)": "e8009dda",
			"getImplementations(string)": "812a4f8c",
			"getLatestImplementation(string)": "d285f839",
			"getLatestVersion(string)": "cae96761",
			"getModules()": "b2494df3",
			"nameToIdentifier(string)": "278be867",
			"upgrade(string,address)": "5332c74d"
		}
	},
	"abi": [
		{
			"inputs": [],
			"stateMutability": "nonpayable",
			"type": "constructor"
		},
		{
			"anonymous": false,
			"inputs": [
				{
					"indexed": true,
					"internalType": "string",
					"name": "name",
					"type": "string"
				},
				{
					"indexed": true,
					"internalType": "uint256",
					"name": "identifer",
					"type": "uint256"
				}
			],
			"name": "ModuleCreated",
			"type": "event"
		},
		{
			"anonymous": false,
			"inputs": [
				{
					"indexed": true,
					"internalType": "string",
					"name": "name",
					"type": "string"
				},
				{
					"indexed": true,
					"internalType": "uint256",
					"name": "identifier",
					"type": "uint256"
				},
				{
					"indexed": true,
					"internalType": "address",
					"name": "newImplementation",
					"type": "address"
				}
			],
			"name": "ModuleDowngraded",
			"type": "event"
		},
		{
			"anonymous": false,
			"inputs": [
				{
					"indexed": true,
					"internalType": "string",
					"name": "name",
					"type": "string"
				},
				{
					"indexed": true,
					"internalType": "uint256",
					"name": "identifier",
					"type": "uint256"
				},
				{
					"indexed": true,
					"internalType": "address",
					"name": "newImplementation",
					"type": "address"
				}
			],
			"name": "ModuleUpgraded",
			"type": "event"
		},
		{
			"inputs": [],
			"name": "count",
			"outputs": [
				{
					"internalType": "uint256",
					"name": "",
					"type": "uint256"
				}
			],
			"stateMutability": "view",
			"type": "function"
		},
		{
			"inputs": [
				{
					"internalType": "string",
					"name": "name",
					"type": "string"
				}
			],
			"name": "create",
			"outputs": [
				{
					"internalType": "uint256",
					"name": "",
					"type": "uint256"
				}
			],
			"stateMutability": "nonpayable",
			"type": "function"
		},
		{
			"inputs": [
				{
					"internalType": "string",
					"name": "name",
					"type": "string"
				},
				{
					"internalType": "uint256",
					"name": "version",
					"type": "uint256"
				}
			],
			"name": "downgrade",
			"outputs": [],
			"stateMutability": "nonpayable",
			"type": "function"
		},
		{
			"inputs": [
				{
					"internalType": "string",
					"name": "name",
					"type": "string"
				},
				{
					"internalType": "uint256",
					"name": "version",
					"type": "uint256"
				}
			],
			"name": "getImplementation",
			"outputs": [
				{
					"internalType": "address",
					"name": "",
					"type": "address"
				}
			],
			"stateMutability": "view",
			"type": "function"
		},
		{
			"inputs": [
				{
					"internalType": "string",
					"name": "name",
					"type": "string"
				}
			],
			"name": "getImplementations",
			"outputs": [
				{
					"internalType": "address[]",
					"name": "",
					"type": "address[]"
				}
			],
			"stateMutability": "view",
			"type": "function"
		},
		{
			"inputs": [
				{
					"internalType": "string",
					"name": "name",
					"type": "string"
				}
			],
			"name": "getLatestImplementation",
			"outputs": [
				{
					"internalType": "address",
					"name": "",
					"type": "address"
				}
			],
			"stateMutability": "view",
			"type": "function"
		},
		{
			"inputs": [
				{
					"internalType": "string",
					"name": "name",
					"type": "string"
				}
			],
			"name": "getLatestVersion",
			"outputs": [
				{
					"internalType": "uint256",
					"name": "",
					"type": "uint256"
				}
			],
			"stateMutability": "view",
			"type": "function"
		},
		{
			"inputs": [],
			"name": "getModules",
			"outputs": [
				{
					"internalType": "string[]",
					"name": "",
					"type": "string[]"
				}
			],
			"stateMutability": "view",
			"type": "function"
		},
		{
			"inputs": [
				{
					"internalType": "string",
					"name": "",
					"type": "string"
				}
			],
			"name": "nameToIdentifier",
			"outputs": [
				{
					"internalType": "uint256",
					"name": "",
					"type": "uint256"
				}
			],
			"stateMutability": "view",
			"type": "function"
		},
		{
			"inputs": [
				{
					"internalType": "string",
					"name": "name",
					"type": "string"
				},
				{
					"internalType": "address",
					"name": "newImplementation",
					"type": "address"
				}
			],
			"name": "upgrade",
			"outputs": [],
			"stateMutability": "nonpayable",
			"type": "function"
		}
	]
}