{
	"data": {
		"bytecode": {
			"linkReferences": {},
			"object": "6101806040523480156200001257600080fd5b50620000236200029260201b60201c565b600a6200003191906200103a565b630bebc2006200004291906200108b565b6040518060400160405280600c81526020017f447265616d636174636865720000000000000000000000000000000000000000815250806040518060400160405280600181526020017f31000000000000000000000000000000000000000000000000000000000000008152506040518060400160405280600c81526020017f447265616d6361746368657200000000000000000000000000000000000000008152506040518060400160405280600581526020017f445245414d00000000000000000000000000000000000000000000000000000081525081600390816200012c919062001346565b5080600490816200013e919062001346565b5050506200015c6005836200029b60201b620010ec1790919060201c565b60e081815250506200017e6006826200029b60201b620010ec1790919060201c565b610100818152505081805190602001206101208181525050808051906020012061014081815250504660a08181525050620001be620002f860201b60201c565b608081815250503073ffffffffffffffffffffffffffffffffffffffff1660c08173ffffffffffffffffffffffffffffffffffffffff16815250505050506000811162000242576040517f08c379a000000000000000000000000000000000000000000000000000000000815260040162000239906200148e565b60405180910390fd5b806101608181525050506200028c33620002616200029260201b60201c565b600a6200026f91906200103a565b630bebc2006200028091906200108b565b6200035660201b60201c565b62001ac6565b60006012905090565b6000602083511015620002c157620002b9836200037160201b60201c565b9050620002f2565b82620002d883620003de60201b620011301760201c565b6000019081620002e9919062001346565b5060ff60001b90505b92915050565b60007f8b73c3c69bb8fe3d512ecc4cf759cc79239f7b179b0ffacaa9a75d522b39400f610120516101405146306040516020016200033b95949392919062001521565b60405160208183030381529060405280519060200120905090565b6200036d8282620003e860201b6200113a1760201c565b5050565b600080829050601f81511115620003c157826040517f305a27a9000000000000000000000000000000000000000000000000000000008152600401620003b89190620015fc565b60405180910390fd5b805181620003cf9062001652565b60001c1760001b915050919050565b6000819050919050565b620003f86200047960201b60201c565b816200040e6200048460201b620006501760201c565b6200041a9190620016c2565b11156200045e576040517f08c379a000000000000000000000000000000000000000000000000000000000815260040162000455906200174d565b60405180910390fd5b6200047582826200048e60201b620011a41760201c565b5050565b600061016051905090565b6000600254905090565b620004a582826200054c60201b620012311760201c565b620004b5620006b960201b60201c565b7bffffffffffffffffffffffffffffffffffffffffffffffffffffffff16620004e36200048460201b60201c565b111562000527576040517f08c379a00000000000000000000000000000000000000000000000000000000081526004016200051e90620017e5565b60405180910390fd5b62000546600b620006dd60201b620013871783620006f560201b60201c565b50505050565b600073ffffffffffffffffffffffffffffffffffffffff168273ffffffffffffffffffffffffffffffffffffffff1603620005be576040517f08c379a0000000000000000000000000000000000000000000000000000000008152600401620005b59062001857565b60405180910390fd5b620005d26000838362000a1a60201b60201c565b8060026000828254620005e69190620016c2565b92505081905550806000808473ffffffffffffffffffffffffffffffffffffffff1673ffffffffffffffffffffffffffffffffffffffff168152602001908152602001600020600082825401925050819055508173ffffffffffffffffffffffffffffffffffffffff16600073ffffffffffffffffffffffffffffffffffffffff167fddf252ad1be2c89b69c2b068fc378daa952ba7f163c4a11628f55a4df523b3ef8360405162000699919062001879565b60405180910390a3620006b56000838362000a3760201b60201c565b5050565b60007bffffffffffffffffffffffffffffffffffffffffffffffffffffffff905090565b60008183620006ed9190620016c2565b905092915050565b6000806000858054905090506000808214620007c55762000720876001840362000a5460201b60201c565b6040518060400160405290816000820160009054906101000a900463ffffffff1663ffffffff1663ffffffff1681526020016000820160049054906101000a90047bffffffffffffffffffffffffffffffffffffffffffffffffffffffff167bffffffffffffffffffffffffffffffffffffffffffffffffffffffff167bffffffffffffffffffffffffffffffffffffffffffffffffffffffff168152505062000801565b6040518060400160405280600063ffffffff16815260200160007bffffffffffffffffffffffffffffffffffffffffffffffffffffffff168152505b905080602001517bffffffffffffffffffffffffffffffffffffffffffffffffffffffff1693506200083484868860201c565b92506000821180156200086757506200085262000a6960201b60201c565b65ffffffffffff16816000015163ffffffff16145b15620008ef57620008838362000a8660201b6200139d1760201c565b62000898886001850362000a5460201b60201c565b60000160046101000a8154817bffffffffffffffffffffffffffffffffffffffffffffffffffffffff02191690837bffffffffffffffffffffffffffffffffffffffffffffffffffffffff16021790555062000a10565b866040518060400160405280620009286200090f62000a6960201b60201c565b65ffffffffffff1662000af460201b620014081760201c565b63ffffffff168152602001620009498662000a8660201b6200139d1760201c565b7bffffffffffffffffffffffffffffffffffffffffffffffffffffffff168152509080600181540180825580915050600190039060005260206000200160009091909190915060008201518160000160006101000a81548163ffffffff021916908363ffffffff16021790555060208201518160000160046101000a8154817bffffffffffffffffffffffffffffffffffffffffffffffffffffffff02191690837bffffffffffffffffffffffffffffffffffffffffffffffffffffffff16021790555050505b5050935093915050565b62000a3283838362000b4a60201b6200145b1760201c565b505050565b62000a4f83838362000b4f60201b620014601760201c565b505050565b60008260005281602060002001905092915050565b600062000a814362000b9f60201b6200148b1760201c565b905090565b60007bffffffffffffffffffffffffffffffffffffffffffffffffffffffff801682111562000aec576040517f08c379a000000000000000000000000000000000000000000000000000000000815260040162000ae3906200190c565b60405180910390fd5b819050919050565b600063ffffffff801682111562000b42576040517f08c379a000000000000000000000000000000000000000000000000000000000815260040162000b3990620019a4565b60405180910390fd5b819050919050565b505050565b62000b6783838362000bf760201b620014e01760201c565b62000b9a62000b7c8462000bfc60201b60201c565b62000b8d8462000bfc60201b60201c565b8362000c6560201b60201c565b505050565b600065ffffffffffff801682111562000bef576040517f08c379a000000000000000000000000000000000000000000000000000000000815260040162000be69062001a3c565b60405180910390fd5b819050919050565b505050565b6000600960008373ffffffffffffffffffffffffffffffffffffffff1673ffffffffffffffffffffffffffffffffffffffff16815260200190815260200160002060009054906101000a900473ffffffffffffffffffffffffffffffffffffffff169050919050565b8173ffffffffffffffffffffffffffffffffffffffff168373ffffffffffffffffffffffffffffffffffffffff161415801562000ca25750600081115b1562000e8357600073ffffffffffffffffffffffffffffffffffffffff168373ffffffffffffffffffffffffffffffffffffffff161462000d955760008062000d3c600a60008773ffffffffffffffffffffffffffffffffffffffff1673ffffffffffffffffffffffffffffffffffffffff16815260200190815260200160002062000e8860201b620014e51785620006f560201b60201c565b915091508473ffffffffffffffffffffffffffffffffffffffff167fdec2bacdd2f05b59de34da9b523dff8be42e5e38e818c82fdb0bae774387a724838360405162000d8a92919062001a5e565b60405180910390a250505b600073ffffffffffffffffffffffffffffffffffffffff168273ffffffffffffffffffffffffffffffffffffffff161462000e825760008062000e29600a60008673ffffffffffffffffffffffffffffffffffffffff1673ffffffffffffffffffffffffffffffffffffffff168152602001908152602001600020620006dd60201b620013871785620006f560201b60201c565b915091508373ffffffffffffffffffffffffffffffffffffffff167fdec2bacdd2f05b59de34da9b523dff8be42e5e38e818c82fdb0bae774387a724838360405162000e7792919062001a5e565b60405180910390a250505b5b505050565b6000818362000e98919062001a8b565b905092915050565b7f4e487b7100000000000000000000000000000000000000000000000000000000600052601160045260246000fd5b60008160011c9050919050565b6000808291508390505b600185111562000f2e5780860481111562000f065762000f0562000ea0565b5b600185161562000f165780820291505b808102905062000f268562000ecf565b945062000ee6565b94509492505050565b60008262000f4957600190506200101c565b8162000f5957600090506200101c565b816001811462000f72576002811462000f7d5762000fb3565b60019150506200101c565b60ff84111562000f925762000f9162000ea0565b5b8360020a91508482111562000fac5762000fab62000ea0565b5b506200101c565b5060208310610133831016604e8410600b841016171562000fed5782820a90508381111562000fe75762000fe662000ea0565b5b6200101c565b62000ffc848484600162000edc565b9250905081840481111562001016576200101562000ea0565b5b81810290505b9392505050565b6000819050919050565b600060ff82169050919050565b6000620010478262001023565b915062001054836200102d565b9250620010837fffffffffffffffffffffffffffffffffffffffffffffffffffffffffffffffff848462000f37565b905092915050565b6000620010988262001023565b9150620010a58362001023565b9250828202620010b58162001023565b91508282048414831517620010cf57620010ce62000ea0565b5b5092915050565b600081519050919050565b7f4e487b7100000000000000000000000000000000000000000000000000000000600052604160045260246000fd5b7f4e487b7100000000000000000000000000000000000000000000000000000000600052602260045260246000fd5b600060028204905060018216806200115857607f821691505b6020821081036200116e576200116d62001110565b5b50919050565b60008190508160005260206000209050919050565b60006020601f8301049050919050565b600082821b905092915050565b600060088302620011d87fffffffffffffffffffffffffffffffffffffffffffffffffffffffffffffffff8262001199565b620011e4868362001199565b95508019841693508086168417925050509392505050565b6000819050919050565b600062001227620012216200121b8462001023565b620011fc565b62001023565b9050919050565b6000819050919050565b620012438362001206565b6200125b62001252826200122e565b848454620011a6565b825550505050565b600090565b6200127262001263565b6200127f81848462001238565b505050565b5b81811015620012a7576200129b60008262001268565b60018101905062001285565b5050565b601f821115620012f657620012c08162001174565b620012cb8462001189565b81016020851015620012db578190505b620012f3620012ea8562001189565b83018262001284565b50505b505050565b600082821c905092915050565b60006200131b60001984600802620012fb565b1980831691505092915050565b600062001336838362001308565b9150826002028217905092915050565b6200135182620010d6565b67ffffffffffffffff8111156200136d576200136c620010e1565b5b6200137982546200113f565b62001386828285620012ab565b600060209050601f831160018114620013be5760008415620013a9578287015190505b620013b5858262001328565b86555062001425565b601f198416620013ce8662001174565b60005b82811015620013f857848901518255600182019150602085019450602081019050620013d1565b8683101562001418578489015162001414601f89168262001308565b8355505b6001600288020188555050505b505050505050565b600082825260208201905092915050565b7f45524332304361707065643a2063617020697320300000000000000000000000600082015250565b6000620014766015836200142d565b915062001483826200143e565b602082019050919050565b60006020820190508181036000830152620014a98162001467565b9050919050565b6000819050919050565b620014c581620014b0565b82525050565b620014d68162001023565b82525050565b600073ffffffffffffffffffffffffffffffffffffffff82169050919050565b60006200150982620014dc565b9050919050565b6200151b81620014fc565b82525050565b600060a082019050620015386000830188620014ba565b620015476020830187620014ba565b620015566040830186620014ba565b620015656060830185620014cb565b62001574608083018462001510565b9695505050505050565b60005b838110156200159e57808201518184015260208101905062001581565b60008484015250505050565b6000601f19601f8301169050919050565b6000620015c882620010d6565b620015d481856200142d565b9350620015e68185602086016200157e565b620015f181620015aa565b840191505092915050565b60006020820190508181036000830152620016188184620015bb565b905092915050565b600081519050919050565b6000819050602082019050919050565b6000620016498251620014b0565b80915050919050565b60006200165f8262001620565b826200166b846200162b565b905062001678816200163b565b92506020821015620016bb57620016b67fffffffffffffffffffffffffffffffffffffffffffffffffffffffffffffffff8360200360080262001199565b831692505b5050919050565b6000620016cf8262001023565b9150620016dc8362001023565b9250828201905080821115620016f757620016f662000ea0565b5b92915050565b7f45524332304361707065643a2063617020657863656564656400000000000000600082015250565b6000620017356019836200142d565b91506200174282620016fd565b602082019050919050565b60006020820190508181036000830152620017688162001726565b9050919050565b7f4552433230566f7465733a20746f74616c20737570706c79207269736b73206f60008201527f766572666c6f77696e6720766f74657300000000000000000000000000000000602082015250565b6000620017cd6030836200142d565b9150620017da826200176f565b604082019050919050565b600060208201905081810360008301526200180081620017be565b9050919050565b7f45524332303a206d696e7420746f20746865207a65726f206164647265737300600082015250565b60006200183f601f836200142d565b91506200184c8262001807565b602082019050919050565b60006020820190508181036000830152620018728162001830565b9050919050565b6000602082019050620018906000830184620014cb565b92915050565b7f53616665436173743a2076616c756520646f65736e27742066697420696e203260008201527f3234206269747300000000000000000000000000000000000000000000000000602082015250565b6000620018f46027836200142d565b9150620019018262001896565b604082019050919050565b600060208201905081810360008301526200192781620018e5565b9050919050565b7f53616665436173743a2076616c756520646f65736e27742066697420696e203360008201527f3220626974730000000000000000000000000000000000000000000000000000602082015250565b60006200198c6026836200142d565b915062001999826200192e565b604082019050919050565b60006020820190508181036000830152620019bf816200197d565b9050919050565b7f53616665436173743a2076616c756520646f65736e27742066697420696e203460008201527f3820626974730000000000000000000000000000000000000000000000000000602082015250565b600062001a246026836200142d565b915062001a3182620019c6565b604082019050919050565b6000602082019050818103600083015262001a578162001a15565b9050919050565b600060408201905062001a756000830185620014cb565b62001a846020830184620014cb565b9392505050565b600062001a988262001023565b915062001aa58362001023565b925082820390508181111562001ac05762001abf62000ea0565b5b92915050565b60805160a05160c05160e0516101005161012051610140516101605161432462001b2c60003960006106960152600061240e015260006123ed015260006109ab01526000610977015260006119d201526000611a2801526000611a5101526143246000f3fe608060405234801561001057600080fd5b506004361061018e5760003560e01c806370a08231116100de5780639ab24eb011610097578063c3cda52011610071578063c3cda52014610503578063d505accf1461051f578063dd62ed3e1461053b578063f1127ed81461056b5761018e565b80639ab24eb014610473578063a457c2d7146104a3578063a9059cbb146104d35761018e565b806370a08231146103835780637ecebe00146103b357806384b0196e146103e35780638e539e8c1461040757806391ddadf41461043757806395d89b41146104555761018e565b80633644e5151161014b5780634bf5d7e9116101255780634bf5d7e9146102e9578063587cde1e146103075780635c19a95c146103375780636fcfff45146103535761018e565b80633644e5151461026b57806339509351146102895780633a46b1a8146102b95761018e565b806306fdde0314610193578063095ea7b3146101b157806318160ddd146101e157806323b872dd146101ff578063313ce5671461022f578063355274ea1461024d575b600080fd5b61019b61059b565b6040516101a89190612abd565b60405180910390f35b6101cb60048036038101906101c69190612b78565b61062d565b6040516101d89190612bd3565b60405180910390f35b6101e9610650565b6040516101f69190612bfd565b60405180910390f35b61021960048036038101906102149190612c18565b61065a565b6040516102269190612bd3565b60405180910390f35b610237610689565b6040516102449190612c87565b60405180910390f35b610255610692565b6040516102629190612bfd565b60405180910390f35b6102736106ba565b6040516102809190612cbb565b60405180910390f35b6102a3600480360381019061029e9190612b78565b6106c9565b6040516102b09190612bd3565b60405180910390f35b6102d360048036038101906102ce9190612b78565b610700565b6040516102e09190612bfd565b60405180910390f35b6102f16107a3565b6040516102fe9190612abd565b60405180910390f35b610321600480360381019061031c9190612cd6565b6107fb565b60405161032e9190612d12565b60405180910390f35b610351600480360381019061034c9190612cd6565b610864565b005b61036d60048036038101906103689190612cd6565b610878565b60405161037a9190612d4c565b60405180910390f35b61039d60048036038101906103989190612cd6565b6108cc565b6040516103aa9190612bfd565b60405180910390f35b6103cd60048036038101906103c89190612cd6565b610914565b6040516103da9190612bfd565b60405180910390f35b6103eb610964565b6040516103fe9796959493929190612e60565b60405180910390f35b610421600480360381019061041c9190612ee4565b610a66565b60405161042e9190612bfd565b60405180910390f35b61043f610acb565b60405161044c9190612f32565b60405180910390f35b61045d610adb565b60405161046a9190612abd565b60405180910390f35b61048d60048036038101906104889190612cd6565b610b6d565b60405161049a9190612bfd565b60405180910390f35b6104bd60048036038101906104b89190612b78565b610c75565b6040516104ca9190612bd3565b60405180910390f35b6104ed60048036038101906104e89190612b78565b610cec565b6040516104fa9190612bd3565b60405180910390f35b61051d60048036038101906105189190612fa5565b610d0f565b005b61053960048036038101906105349190613032565b610e13565b005b610555600480360381019061055091906130d4565b610f55565b6040516105629190612bfd565b60405180910390f35b61058560048036038101906105809190613140565b610fdc565b60405161059291906131f5565b60405180910390f35b6060600380546105aa9061323f565b80601f01602080910402602001604051908101604052809291908181526020018280546105d69061323f565b80156106235780601f106105f857610100808354040283529160200191610623565b820191906000526020600020905b81548152906001019060200180831161060657829003601f168201915b5050505050905090565b6000806106386114fb565b9050610645818585611503565b600191505092915050565b6000600254905090565b6000806106656114fb565b90506106728582856116cc565b61067d858585611758565b60019150509392505050565b60006012905090565b60007f0000000000000000000000000000000000000000000000000000000000000000905090565b60006106c46119ce565b905090565b6000806106d46114fb565b90506106f58185856106e68589610f55565b6106f0919061329f565b611503565b600191505092915050565b600061070a610acb565b65ffffffffffff168210610753576040517f08c379a000000000000000000000000000000000000000000000000000000000815260040161074a9061331f565b60405180910390fd5b61079b600a60008573ffffffffffffffffffffffffffffffffffffffff1673ffffffffffffffffffffffffffffffffffffffff16815260200190815260200160002083611a85565b905092915050565b6060436107ae610acb565b65ffffffffffff16146107c057600080fd5b6040518060400160405280601d81526020017f6d6f64653d626c6f636b6e756d6265722666726f6d3d64656661756c74000000815250905090565b6000600960008373ffffffffffffffffffffffffffffffffffffffff1673ffffffffffffffffffffffffffffffffffffffff16815260200190815260200160002060009054906101000a900473ffffffffffffffffffffffffffffffffffffffff169050919050565b61087561086f6114fb565b82611bcd565b50565b60006108c5600a60008473ffffffffffffffffffffffffffffffffffffffff1673ffffffffffffffffffffffffffffffffffffffff16815260200190815260200160002080549050611408565b9050919050565b60008060008373ffffffffffffffffffffffffffffffffffffffff1673ffffffffffffffffffffffffffffffffffffffff168152602001908152602001600020549050919050565b600061095d600760008473ffffffffffffffffffffffffffffffffffffffff1673ffffffffffffffffffffffffffffffffffffffff168152602001908152602001600020611ce7565b9050919050565b6000606080600080600060606109a460057f0000000000000000000000000000000000000000000000000000000000000000611cf590919063ffffffff16565b6109d860067f0000000000000000000000000000000000000000000000000000000000000000611cf590919063ffffffff16565b46306000801b600067ffffffffffffffff8111156109f9576109f861333f565b5b604051908082528060200260200182016040528015610a275781602001602082028036833780820191505090505b507f0f00000000000000000000000000000000000000000000000000000000000000959493929190965096509650965096509650965090919293949596565b6000610a70610acb565b65ffffffffffff168210610ab9576040517f08c379a0000000000000000000000000000000000000000000000000000000008152600401610ab09061331f565b60405180910390fd5b610ac4600b83611a85565b9050919050565b6000610ad64361148b565b905090565b606060048054610aea9061323f565b80601f0160208091040260200160405190810160405280929190818152602001828054610b169061323f565b8015610b635780601f10610b3857610100808354040283529160200191610b63565b820191906000526020600020905b815481529060010190602001808311610b4657829003601f168201915b5050505050905090565b600080600a60008473ffffffffffffffffffffffffffffffffffffffff1673ffffffffffffffffffffffffffffffffffffffff16815260200190815260200160002080549050905060008114610c4c57600a60008473ffffffffffffffffffffffffffffffffffffffff1673ffffffffffffffffffffffffffffffffffffffff1681526020019081526020016000206001820381548110610c1157610c1061336e565b5b9060005260206000200160000160049054906101000a90047bffffffffffffffffffffffffffffffffffffffffffffffffffffffff16610c4f565b60005b7bffffffffffffffffffffffffffffffffffffffffffffffffffffffff16915050919050565b600080610c806114fb565b90506000610c8e8286610f55565b905083811015610cd3576040517f08c379a0000000000000000000000000000000000000000000000000000000008152600401610cca9061340f565b60405180910390fd5b610ce08286868403611503565b60019250505092915050565b600080610cf76114fb565b9050610d04818585611758565b600191505092915050565b83421115610d52576040517f08c379a0000000000000000000000000000000000000000000000000000000008152600401610d499061347b565b60405180910390fd5b6000610db4610dac7fe48329057bfd03d55e49b547132e39cffd9c1820ad7b9d4c5307691425d15adf898989604051602001610d91949392919061349b565b60405160208183030381529060405280519060200120611da5565b858585611dbf565b9050610dbf81611dea565b8614610e00576040517f08c379a0000000000000000000000000000000000000000000000000000000008152600401610df79061352c565b60405180910390fd5b610e0a8188611bcd565b50505050505050565b83421115610e56576040517f08c379a0000000000000000000000000000000000000000000000000000000008152600401610e4d90613598565b60405180910390fd5b60007f6e71edae12b1b97f4d1f60370fef10105fa2faae0126114a169c64845d6126c9888888610e858c611dea565b89604051602001610e9b969594939291906135b8565b6040516020818303038152906040528051906020012090506000610ebe82611da5565b90506000610ece82878787611dbf565b90508973ffffffffffffffffffffffffffffffffffffffff168173ffffffffffffffffffffffffffffffffffffffff1614610f3e576040517f08c379a0000000000000000000000000000000000000000000000000000000008152600401610f3590613665565b60405180910390fd5b610f498a8a8a611503565b50505050505050505050565b6000600160008473ffffffffffffffffffffffffffffffffffffffff1673ffffffffffffffffffffffffffffffffffffffff16815260200190815260200160002060008373ffffffffffffffffffffffffffffffffffffffff1673ffffffffffffffffffffffffffffffffffffffff16815260200190815260200160002054905092915050565b610fe46129ef565b600a60008473ffffffffffffffffffffffffffffffffffffffff1673ffffffffffffffffffffffffffffffffffffffff1681526020019081526020016000208263ffffffff168154811061103b5761103a61336e565b5b906000526020600020016040518060400160405290816000820160009054906101000a900463ffffffff1663ffffffff1663ffffffff1681526020016000820160049054906101000a90047bffffffffffffffffffffffffffffffffffffffffffffffffffffffff167bffffffffffffffffffffffffffffffffffffffffffffffffffffffff167bffffffffffffffffffffffffffffffffffffffffffffffffffffffff1681525050905092915050565b60006020835110156111085761110183611e48565b905061112a565b8261111283611130565b60000190816111219190613831565b5060ff60001b90505b92915050565b6000819050919050565b611142610692565b8161114b610650565b611155919061329f565b1115611196576040517f08c379a000000000000000000000000000000000000000000000000000000000815260040161118d9061394f565b60405180910390fd5b6111a082826111a4565b5050565b6111ae8282611231565b6111b6611eb0565b7bffffffffffffffffffffffffffffffffffffffffffffffffffffffff166111dc610650565b111561121d576040517f08c379a0000000000000000000000000000000000000000000000000000000008152600401611214906139e1565b60405180910390fd5b61122b600b61138783611ed4565b50505050565b600073ffffffffffffffffffffffffffffffffffffffff168273ffffffffffffffffffffffffffffffffffffffff16036112a0576040517f08c379a000000000000000000000000000000000000000000000000000000000815260040161129790613a4d565b60405180910390fd5b6112ac600083836121af565b80600260008282546112be919061329f565b92505081905550806000808473ffffffffffffffffffffffffffffffffffffffff1673ffffffffffffffffffffffffffffffffffffffff168152602001908152602001600020600082825401925050819055508173ffffffffffffffffffffffffffffffffffffffff16600073ffffffffffffffffffffffffffffffffffffffff167fddf252ad1be2c89b69c2b068fc378daa952ba7f163c4a11628f55a4df523b3ef8360405161136f9190612bfd565b60405180910390a3611383600083836121bf565b5050565b60008183611395919061329f565b905092915050565b60007bffffffffffffffffffffffffffffffffffffffffffffffffffffffff8016821115611400576040517f08c379a00000000000000000000000000000000000000000000000000000000081526004016113f790613adf565b60405180910390fd5b819050919050565b600063ffffffff8016821115611453576040517f08c379a000000000000000000000000000000000000000000000000000000000815260040161144a90613b71565b60405180910390fd5b819050919050565b505050565b61146b8383836114e0565b611486611477846107fb565b611480846107fb565b836121cf565b505050565b600065ffffffffffff80168211156114d8576040517f08c379a00000000000000000000000000000000000000000000000000000000081526004016114cf90613c03565b60405180910390fd5b819050919050565b505050565b600081836114f39190613c23565b905092915050565b600033905090565b600073ffffffffffffffffffffffffffffffffffffffff168373ffffffffffffffffffffffffffffffffffffffff1603611572576040517f08c379a000000000000000000000000000000000000000000000000000000000815260040161156990613cc9565b60405180910390fd5b600073ffffffffffffffffffffffffffffffffffffffff168273ffffffffffffffffffffffffffffffffffffffff16036115e1576040517f08c379a00000000000000000000000000000000000000000000000000000000081526004016115d890613d5b565b60405180910390fd5b80600160008573ffffffffffffffffffffffffffffffffffffffff1673ffffffffffffffffffffffffffffffffffffffff16815260200190815260200160002060008473ffffffffffffffffffffffffffffffffffffffff1673ffffffffffffffffffffffffffffffffffffffff168152602001908152602001600020819055508173ffffffffffffffffffffffffffffffffffffffff168373ffffffffffffffffffffffffffffffffffffffff167f8c5be1e5ebec7d5bd14f71427d1e84f3dd0314c0f7b2291e5b200ac8c7c3b925836040516116bf9190612bfd565b60405180910390a3505050565b60006116d88484610f55565b90507fffffffffffffffffffffffffffffffffffffffffffffffffffffffffffffffff81146117525781811015611744576040517f08c379a000000000000000000000000000000000000000000000000000000000815260040161173b90613dc7565b60405180910390fd5b6117518484848403611503565b5b50505050565b600073ffffffffffffffffffffffffffffffffffffffff168373ffffffffffffffffffffffffffffffffffffffff16036117c7576040517f08c379a00000000000000000000000000000000000000000000000000000000081526004016117be90613e59565b60405180910390fd5b600073ffffffffffffffffffffffffffffffffffffffff168273ffffffffffffffffffffffffffffffffffffffff1603611836576040517f08c379a000000000000000000000000000000000000000000000000000000000815260040161182d90613eeb565b60405180910390fd5b6118418383836121af565b60008060008573ffffffffffffffffffffffffffffffffffffffff1673ffffffffffffffffffffffffffffffffffffffff168152602001908152602001600020549050818110156118c7576040517f08c379a00000000000000000000000000000000000000000000000000000000081526004016118be90613f7d565b60405180910390fd5b8181036000808673ffffffffffffffffffffffffffffffffffffffff1673ffffffffffffffffffffffffffffffffffffffff16815260200190815260200160002081905550816000808573ffffffffffffffffffffffffffffffffffffffff1673ffffffffffffffffffffffffffffffffffffffff168152602001908152602001600020600082825401925050819055508273ffffffffffffffffffffffffffffffffffffffff168473ffffffffffffffffffffffffffffffffffffffff167fddf252ad1be2c89b69c2b068fc378daa952ba7f163c4a11628f55a4df523b3ef846040516119b59190612bfd565b60405180910390a36119c88484846121bf565b50505050565b60007f000000000000000000000000000000000000000000000000000000000000000073ffffffffffffffffffffffffffffffffffffffff163073ffffffffffffffffffffffffffffffffffffffff16148015611a4a57507f000000000000000000000000000000000000000000000000000000000000000046145b15611a77577f00000000000000000000000000000000000000000000000000000000000000009050611a82565b611a7f6123c8565b90505b90565b600080838054905090506000808290506005831115611afb576000611aa98461245e565b84611ab49190613c23565b905085611ac18883612557565b60000160009054906101000a900463ffffffff1663ffffffff161115611ae957809150611af9565b600181611af6919061329f565b92505b505b5b80821015611b5b576000611b10838361256c565b905085611b1d8883612557565b60000160009054906101000a900463ffffffff1663ffffffff161115611b4557809150611b55565b600181611b52919061329f565b92505b50611afc565b60008114611ba157611b708660018303612557565b60000160049054906101000a90047bffffffffffffffffffffffffffffffffffffffffffffffffffffffff16611ba4565b60005b7bffffffffffffffffffffffffffffffffffffffffffffffffffffffff16935050505092915050565b6000611bd8836107fb565b90506000611be5846108cc565b905082600960008673ffffffffffffffffffffffffffffffffffffffff1673ffffffffffffffffffffffffffffffffffffffff16815260200190815260200160002060006101000a81548173ffffffffffffffffffffffffffffffffffffffff021916908373ffffffffffffffffffffffffffffffffffffffff1602179055508273ffffffffffffffffffffffffffffffffffffffff168273ffffffffffffffffffffffffffffffffffffffff168573ffffffffffffffffffffffffffffffffffffffff167f3134e8a2e6d97e929a7e54011ea5485d7d196dd5f0ba4d4ef95803e8e3fc257f60405160405180910390a4611ce18284836121cf565b50505050565b600081600001549050919050565b606060ff60001b8314611d1257611d0b83612592565b9050611d9f565b818054611d1e9061323f565b80601f0160208091040260200160405190810160405280929190818152602001828054611d4a9061323f565b8015611d975780601f10611d6c57610100808354040283529160200191611d97565b820191906000526020600020905b815481529060010190602001808311611d7a57829003601f168201915b505050505090505b92915050565b6000611db8611db26119ce565b83612606565b9050919050565b6000806000611dd087878787612647565b91509150611ddd81612729565b8192505050949350505050565b600080600760008473ffffffffffffffffffffffffffffffffffffffff1673ffffffffffffffffffffffffffffffffffffffff1681526020019081526020016000209050611e3781611ce7565b9150611e428161288f565b50919050565b600080829050601f81511115611e9557826040517f305a27a9000000000000000000000000000000000000000000000000000000008152600401611e8c9190612abd565b60405180910390fd5b805181611ea190613fcd565b60001c1760001b915050919050565b60007bffffffffffffffffffffffffffffffffffffffffffffffffffffffff905090565b6000806000858054905090506000808214611f9a57611ef68760018403612557565b6040518060400160405290816000820160009054906101000a900463ffffffff1663ffffffff1663ffffffff1681526020016000820160049054906101000a90047bffffffffffffffffffffffffffffffffffffffffffffffffffffffff167bffffffffffffffffffffffffffffffffffffffffffffffffffffffff167bffffffffffffffffffffffffffffffffffffffffffffffffffffffff1681525050611fd6565b6040518060400160405280600063ffffffff16815260200160007bffffffffffffffffffffffffffffffffffffffffffffffffffffffff168152505b905080602001517bffffffffffffffffffffffffffffffffffffffffffffffffffffffff16935061200b84868863ffffffff16565b92506000821180156120355750612020610acb565b65ffffffffffff16816000015163ffffffff16145b156120a6576120438361139d565b6120508860018503612557565b60000160046101000a8154817bffffffffffffffffffffffffffffffffffffffffffffffffffffffff02191690837bffffffffffffffffffffffffffffffffffffffffffffffffffffffff1602179055506121a5565b8660405180604001604052806120ca6120bd610acb565b65ffffffffffff16611408565b63ffffffff1681526020016120de8661139d565b7bffffffffffffffffffffffffffffffffffffffffffffffffffffffff168152509080600181540180825580915050600190039060005260206000200160009091909190915060008201518160000160006101000a81548163ffffffff021916908363ffffffff16021790555060208201518160000160046101000a8154817bffffffffffffffffffffffffffffffffffffffffffffffffffffffff02191690837bffffffffffffffffffffffffffffffffffffffffffffffffffffffff16021790555050505b5050935093915050565b6121ba83838361145b565b505050565b6121ca838383611460565b505050565b8173ffffffffffffffffffffffffffffffffffffffff168373ffffffffffffffffffffffffffffffffffffffff161415801561220b5750600081115b156123c357600073ffffffffffffffffffffffffffffffffffffffff168373ffffffffffffffffffffffffffffffffffffffff16146122e957600080612292600a60008773ffffffffffffffffffffffffffffffffffffffff1673ffffffffffffffffffffffffffffffffffffffff1681526020019081526020016000206114e585611ed4565b915091508473ffffffffffffffffffffffffffffffffffffffff167fdec2bacdd2f05b59de34da9b523dff8be42e5e38e818c82fdb0bae774387a72483836040516122de929190614034565b60405180910390a250505b600073ffffffffffffffffffffffffffffffffffffffff168273ffffffffffffffffffffffffffffffffffffffff16146123c25760008061236b600a60008673ffffffffffffffffffffffffffffffffffffffff1673ffffffffffffffffffffffffffffffffffffffff16815260200190815260200160002061138785611ed4565b915091508373ffffffffffffffffffffffffffffffffffffffff167fdec2bacdd2f05b59de34da9b523dff8be42e5e38e818c82fdb0bae774387a72483836040516123b7929190614034565b60405180910390a250505b5b505050565b60007f8b73c3c69bb8fe3d512ecc4cf759cc79239f7b179b0ffacaa9a75d522b39400f7f00000000000000000000000000000000000000000000000000000000000000007f0000000000000000000000000000000000000000000000000000000000000000463060405160200161244395949392919061405d565b60405160208183030381529060405280519060200120905090565b60008082036124705760009050612552565b6000600161247d846128a5565b901c6001901b90506001818481612497576124966140b0565b5b048201901c905060018184816124b0576124af6140b0565b5b048201901c905060018184816124c9576124c86140b0565b5b048201901c905060018184816124e2576124e16140b0565b5b048201901c905060018184816124fb576124fa6140b0565b5b048201901c90506001818481612514576125136140b0565b5b048201901c9050600181848161252d5761252c6140b0565b5b048201901c905061254e81828581612548576125476140b0565b5b04612986565b9150505b919050565b60008260005281602060002001905092915050565b6000600282841861257d91906140df565b82841661258a919061329f565b905092915050565b6060600061259f8361299f565b90506000602067ffffffffffffffff8111156125be576125bd61333f565b5b6040519080825280601f01601f1916602001820160405280156125f05781602001600182028036833780820191505090505b5090508181528360208201528092505050919050565b60006040517f190100000000000000000000000000000000000000000000000000000000000081528360028201528260228201526042812091505092915050565b6000807f7fffffffffffffffffffffffffffffff5d576e7357a4501ddfe92f46681b20a08360001c1115612682576000600391509150612720565b6000600187878787604051600081526020016040526040516126a79493929190614110565b6020604051602081039080840390855afa1580156126c9573d6000803e3d6000fd5b505050602060405103519050600073ffffffffffffffffffffffffffffffffffffffff168173ffffffffffffffffffffffffffffffffffffffff160361271757600060019250925050612720565b80600092509250505b94509492505050565b6000600481111561273d5761273c614155565b5b8160048111156127505761274f614155565b5b031561288c576001600481111561276a57612769614155565b5b81600481111561277d5761277c614155565b5b036127bd576040517f08c379a00000000000000000000000000000000000000000000000000000000081526004016127b4906141d0565b60405180910390fd5b600260048111156127d1576127d0614155565b5b8160048111156127e4576127e3614155565b5b03612824576040517f08c379a000000000000000000000000000000000000000000000000000000000815260040161281b9061423c565b60405180910390fd5b6003600481111561283857612837614155565b5b81600481111561284b5761284a614155565b5b0361288b576040517f08c379a0000000000000000000000000000000000000000000000000000000008152600401612882906142ce565b60405180910390fd5b5b50565b6001816000016000828254019250508190555050565b600080600090506000608084901c11156128c757608083901c92506080810190505b6000604084901c11156128e257604083901c92506040810190505b6000602084901c11156128fd57602083901c92506020810190505b6000601084901c111561291857601083901c92506010810190505b6000600884901c111561293357600883901c92506008810190505b6000600484901c111561294e57600483901c92506004810190505b6000600284901c111561296957600283901c92506002810190505b6000600184901c111561297d576001810190505b80915050919050565b60008183106129955781612997565b825b905092915050565b60008060ff8360001c169050601f8111156129e6576040517fb3512b0c00000000000000000000000000000000000000000000000000000000815260040160405180910390fd5b80915050919050565b6040518060400160405280600063ffffffff16815260200160007bffffffffffffffffffffffffffffffffffffffffffffffffffffffff1681525090565b600081519050919050565b600082825260208201905092915050565b60005b83811015612a67578082015181840152602081019050612a4c565b60008484015250505050565b6000601f19601f8301169050919050565b6000612a8f82612a2d565b612a998185612a38565b9350612aa9818560208601612a49565b612ab281612a73565b840191505092915050565b60006020820190508181036000830152612ad78184612a84565b905092915050565b600080fd5b600073ffffffffffffffffffffffffffffffffffffffff82169050919050565b6000612b0f82612ae4565b9050919050565b612b1f81612b04565b8114612b2a57600080fd5b50565b600081359050612b3c81612b16565b92915050565b6000819050919050565b612b5581612b42565b8114612b6057600080fd5b50565b600081359050612b7281612b4c565b92915050565b60008060408385031215612b8f57612b8e612adf565b5b6000612b9d85828601612b2d565b9250506020612bae85828601612b63565b9150509250929050565b60008115159050919050565b612bcd81612bb8565b82525050565b6000602082019050612be86000830184612bc4565b92915050565b612bf781612b42565b82525050565b6000602082019050612c126000830184612bee565b92915050565b600080600060608486031215612c3157612c30612adf565b5b6000612c3f86828701612b2d565b9350506020612c5086828701612b2d565b9250506040612c6186828701612b63565b9150509250925092565b600060ff82169050919050565b612c8181612c6b565b82525050565b6000602082019050612c9c6000830184612c78565b92915050565b6000819050919050565b612cb581612ca2565b82525050565b6000602082019050612cd06000830184612cac565b92915050565b600060208284031215612cec57612ceb612adf565b5b6000612cfa84828501612b2d565b91505092915050565b612d0c81612b04565b82525050565b6000602082019050612d276000830184612d03565b92915050565b600063ffffffff82169050919050565b612d4681612d2d565b82525050565b6000602082019050612d616000830184612d3d565b92915050565b60007fff0000000000000000000000000000000000000000000000000000000000000082169050919050565b612d9c81612d67565b82525050565b600081519050919050565b600082825260208201905092915050565b6000819050602082019050919050565b612dd781612b42565b82525050565b6000612de98383612dce565b60208301905092915050565b6000602082019050919050565b6000612e0d82612da2565b612e178185612dad565b9350612e2283612dbe565b8060005b83811015612e53578151612e3a8882612ddd565b9750612e4583612df5565b925050600181019050612e26565b5085935050505092915050565b600060e082019050612e75600083018a612d93565b8181036020830152612e878189612a84565b90508181036040830152612e9b8188612a84565b9050612eaa6060830187612bee565b612eb76080830186612d03565b612ec460a0830185612cac565b81810360c0830152612ed68184612e02565b905098975050505050505050565b600060208284031215612efa57612ef9612adf565b5b6000612f0884828501612b63565b91505092915050565b600065ffffffffffff82169050919050565b612f2c81612f11565b82525050565b6000602082019050612f476000830184612f23565b92915050565b612f5681612c6b565b8114612f6157600080fd5b50565b600081359050612f7381612f4d565b92915050565b612f8281612ca2565b8114612f8d57600080fd5b50565b600081359050612f9f81612f79565b92915050565b60008060008060008060c08789031215612fc257612fc1612adf565b5b6000612fd089828a01612b2d565b9650506020612fe189828a01612b63565b9550506040612ff289828a01612b63565b945050606061300389828a01612f64565b935050608061301489828a01612f90565b92505060a061302589828a01612f90565b9150509295509295509295565b600080600080600080600060e0888a03121561305157613050612adf565b5b600061305f8a828b01612b2d565b97505060206130708a828b01612b2d565b96505060406130818a828b01612b63565b95505060606130928a828b01612b63565b94505060806130a38a828b01612f64565b93505060a06130b48a828b01612f90565b92505060c06130c58a828b01612f90565b91505092959891949750929550565b600080604083850312156130eb576130ea612adf565b5b60006130f985828601612b2d565b925050602061310a85828601612b2d565b9150509250929050565b61311d81612d2d565b811461312857600080fd5b50565b60008135905061313a81613114565b92915050565b6000806040838503121561315757613156612adf565b5b600061316585828601612b2d565b92505060206131768582860161312b565b9150509250929050565b61318981612d2d565b82525050565b60007bffffffffffffffffffffffffffffffffffffffffffffffffffffffff82169050919050565b6131c08161318f565b82525050565b6040820160008201516131dc6000850182613180565b5060208201516131ef60208501826131b7565b50505050565b600060408201905061320a60008301846131c6565b92915050565b7f4e487b7100000000000000000000000000000000000000000000000000000000600052602260045260246000fd5b6000600282049050600182168061325757607f821691505b60208210810361326a57613269613210565b5b50919050565b7f4e487b7100000000000000000000000000000000000000000000000000000000600052601160045260246000fd5b60006132aa82612b42565b91506132b583612b42565b92508282019050808211156132cd576132cc613270565b5b92915050565b7f4552433230566f7465733a20667574757265206c6f6f6b757000000000000000600082015250565b6000613309601983612a38565b9150613314826132d3565b602082019050919050565b60006020820190508181036000830152613338816132fc565b9050919050565b7f4e487b7100000000000000000000000000000000000000000000000000000000600052604160045260246000fd5b7f4e487b7100000000000000000000000000000000000000000000000000000000600052603260045260246000fd5b7f45524332303a2064656372656173656420616c6c6f77616e63652062656c6f7760008201527f207a65726f000000000000000000000000000000000000000000000000000000602082015250565b60006133f9602583612a38565b91506134048261339d565b604082019050919050565b60006020820190508181036000830152613428816133ec565b9050919050565b7f4552433230566f7465733a207369676e61747572652065787069726564000000600082015250565b6000613465601d83612a38565b91506134708261342f565b602082019050919050565b6000602082019050818103600083015261349481613458565b9050919050565b60006080820190506134b06000830187612cac565b6134bd6020830186612d03565b6134ca6040830185612bee565b6134d76060830184612bee565b95945050505050565b7f4552433230566f7465733a20696e76616c6964206e6f6e636500000000000000600082015250565b6000613516601983612a38565b9150613521826134e0565b602082019050919050565b6000602082019050818103600083015261354581613509565b9050919050565b7f45524332305065726d69743a206578706972656420646561646c696e65000000600082015250565b6000613582601d83612a38565b915061358d8261354c565b602082019050919050565b600060208201905081810360008301526135b181613575565b9050919050565b600060c0820190506135cd6000830189612cac565b6135da6020830188612d03565b6135e76040830187612d03565b6135f46060830186612bee565b6136016080830185612bee565b61360e60a0830184612bee565b979650505050505050565b7f45524332305065726d69743a20696e76616c6964207369676e61747572650000600082015250565b600061364f601e83612a38565b915061365a82613619565b602082019050919050565b6000602082019050818103600083015261367e81613642565b9050919050565b60008190508160005260206000209050919050565b60006020601f8301049050919050565b600082821b905092915050565b6000600883026136e77fffffffffffffffffffffffffffffffffffffffffffffffffffffffffffffffff826136aa565b6136f186836136aa565b95508019841693508086168417925050509392505050565b6000819050919050565b600061372e61372961372484612b42565b613709565b612b42565b9050919050565b6000819050919050565b61374883613713565b61375c61375482613735565b8484546136b7565b825550505050565b600090565b613771613764565b61377c81848461373f565b505050565b5b818110156137a057613795600082613769565b600181019050613782565b5050565b601f8211156137e5576137b681613685565b6137bf8461369a565b810160208510156137ce578190505b6137e26137da8561369a565b830182613781565b50505b505050565b600082821c905092915050565b6000613808600019846008026137ea565b1980831691505092915050565b600061382183836137f7565b9150826002028217905092915050565b61383a82612a2d565b67ffffffffffffffff8111156138535761385261333f565b5b61385d825461323f565b6138688282856137a4565b600060209050601f83116001811461389b5760008415613889578287015190505b6138938582613815565b8655506138fb565b601f1984166138a986613685565b60005b828110156138d1578489015182556001820191506020850194506020810190506138ac565b868310156138ee57848901516138ea601f8916826137f7565b8355505b6001600288020188555050505b505050505050565b7f45524332304361707065643a2063617020657863656564656400000000000000600082015250565b6000613939601983612a38565b915061394482613903565b602082019050919050565b600060208201905081810360008301526139688161392c565b9050919050565b7f4552433230566f7465733a20746f74616c20737570706c79207269736b73206f60008201527f766572666c6f77696e6720766f74657300000000000000000000000000000000602082015250565b60006139cb603083612a38565b91506139d68261396f565b604082019050919050565b600060208201905081810360008301526139fa816139be565b9050919050565b7f45524332303a206d696e7420746f20746865207a65726f206164647265737300600082015250565b6000613a37601f83612a38565b9150613a4282613a01565b602082019050919050565b60006020820190508181036000830152613a6681613a2a565b9050919050565b7f53616665436173743a2076616c756520646f65736e27742066697420696e203260008201527f3234206269747300000000000000000000000000000000000000000000000000602082015250565b6000613ac9602783612a38565b9150613ad482613a6d565b604082019050919050565b60006020820190508181036000830152613af881613abc565b9050919050565b7f53616665436173743a2076616c756520646f65736e27742066697420696e203360008201527f3220626974730000000000000000000000000000000000000000000000000000602082015250565b6000613b5b602683612a38565b9150613b6682613aff565b604082019050919050565b60006020820190508181036000830152613b8a81613b4e565b9050919050565b7f53616665436173743a2076616c756520646f65736e27742066697420696e203460008201527f3820626974730000000000000000000000000000000000000000000000000000602082015250565b6000613bed602683612a38565b9150613bf882613b91565b604082019050919050565b60006020820190508181036000830152613c1c81613be0565b9050919050565b6000613c2e82612b42565b9150613c3983612b42565b9250828203905081811115613c5157613c50613270565b5b92915050565b7f45524332303a20617070726f76652066726f6d20746865207a65726f2061646460008201527f7265737300000000000000000000000000000000000000000000000000000000602082015250565b6000613cb3602483612a38565b9150613cbe82613c57565b604082019050919050565b60006020820190508181036000830152613ce281613ca6565b9050919050565b7f45524332303a20617070726f766520746f20746865207a65726f20616464726560008201527f7373000000000000000000000000000000000000000000000000000000000000602082015250565b6000613d45602283612a38565b9150613d5082613ce9565b604082019050919050565b60006020820190508181036000830152613d7481613d38565b9050919050565b7f45524332303a20696e73756666696369656e7420616c6c6f77616e6365000000600082015250565b6000613db1601d83612a38565b9150613dbc82613d7b565b602082019050919050565b60006020820190508181036000830152613de081613da4565b9050919050565b7f45524332303a207472616e736665722066726f6d20746865207a65726f20616460008201527f6472657373000000000000000000000000000000000000000000000000000000602082015250565b6000613e43602583612a38565b9150613e4e82613de7565b604082019050919050565b60006020820190508181036000830152613e7281613e36565b9050919050565b7f45524332303a207472616e7366657220746f20746865207a65726f206164647260008201527f6573730000000000000000000000000000000000000000000000000000000000602082015250565b6000613ed5602383612a38565b9150613ee082613e79565b604082019050919050565b60006020820190508181036000830152613f0481613ec8565b9050919050565b7f45524332303a207472616e7366657220616d6f756e742065786365656473206260008201527f616c616e63650000000000000000000000000000000000000000000000000000602082015250565b6000613f67602683612a38565b9150613f7282613f0b565b604082019050919050565b60006020820190508181036000830152613f9681613f5a565b9050919050565b600081519050919050565b6000819050602082019050919050565b6000613fc48251612ca2565b80915050919050565b6000613fd882613f9d565b82613fe284613fa8565b9050613fed81613fb8565b9250602082101561402d576140287fffffffffffffffffffffffffffffffffffffffffffffffffffffffffffffffff836020036008026136aa565b831692505b5050919050565b60006040820190506140496000830185612bee565b6140566020830184612bee565b9392505050565b600060a0820190506140726000830188612cac565b61407f6020830187612cac565b61408c6040830186612cac565b6140996060830185612bee565b6140a66080830184612d03565b9695505050505050565b7f4e487b7100000000000000000000000000000000000000000000000000000000600052601260045260246000fd5b60006140ea82612b42565b91506140f583612b42565b925082614105576141046140b0565b5b828204905092915050565b60006080820190506141256000830187612cac565b6141326020830186612c78565b61413f6040830185612cac565b61414c6060830184612cac565b95945050505050565b7f4e487b7100000000000000000000000000000000000000000000000000000000600052602160045260246000fd5b7f45434453413a20696e76616c6964207369676e61747572650000000000000000600082015250565b60006141ba601883612a38565b91506141c582614184565b602082019050919050565b600060208201905081810360008301526141e9816141ad565b9050919050565b7f45434453413a20696e76616c6964207369676e6174757265206c656e67746800600082015250565b6000614226601f83612a38565b9150614231826141f0565b602082019050919050565b6000602082019050818103600083015261425581614219565b9050919050565b7f45434453413a20696e76616c6964207369676e6174757265202773272076616c60008201527f7565000000000000000000000000000000000000000000000000000000000000602082015250565b60006142b8602283612a38565b91506142c38261425c565b604082019050919050565b600060208201905081810360008301526142e7816142ab565b905091905056fea26469706673582212205ed712467ade4e16636b4502208a038195d120fb514d095066c11a5886381cac64736f6c63430008120033",
			"opcodes": "PUSH2 0x180 PUSH1 0x40 MSTORE CALLVALUE DUP1 ISZERO PUSH3 0x12 JUMPI PUSH1 0x0 DUP1 REVERT JUMPDEST POP PUSH3 0x23 PUSH3 0x292 PUSH1 0x20 SHL PUSH1 0x20 SHR JUMP JUMPDEST PUSH1 0xA PUSH3 0x31 SWAP2 SWAP1 PUSH3 0x103A JUMP JUMPDEST PUSH4 0xBEBC200 PUSH3 0x42 SWAP2 SWAP1 PUSH3 0x108B JUMP JUMPDEST PUSH1 0x40 MLOAD DUP1 PUSH1 0x40 ADD PUSH1 0x40 MSTORE DUP1 PUSH1 0xC DUP2 MSTORE PUSH1 0x20 ADD PUSH32 0x447265616D636174636865720000000000000000000000000000000000000000 DUP2 MSTORE POP DUP1 PUSH1 0x40 MLOAD DUP1 PUSH1 0x40 ADD PUSH1 0x40 MSTORE DUP1 PUSH1 0x1 DUP2 MSTORE PUSH1 0x20 ADD PUSH32 0x3100000000000000000000000000000000000000000000000000000000000000 DUP2 MSTORE POP PUSH1 0x40 MLOAD DUP1 PUSH1 0x40 ADD PUSH1 0x40 MSTORE DUP1 PUSH1 0xC DUP2 MSTORE PUSH1 0x20 ADD PUSH32 0x447265616D636174636865720000000000000000000000000000000000000000 DUP2 MSTORE POP PUSH1 0x40 MLOAD DUP1 PUSH1 0x40 ADD PUSH1 0x40 MSTORE DUP1 PUSH1 0x5 DUP2 MSTORE PUSH1 0x20 ADD PUSH32 0x445245414D000000000000000000000000000000000000000000000000000000 DUP2 MSTORE POP DUP2 PUSH1 0x3 SWAP1 DUP2 PUSH3 0x12C SWAP2 SWAP1 PUSH3 0x1346 JUMP JUMPDEST POP DUP1 PUSH1 0x4 SWAP1 DUP2 PUSH3 0x13E SWAP2 SWAP1 PUSH3 0x1346 JUMP JUMPDEST POP POP POP PUSH3 0x15C PUSH1 0x5 DUP4 PUSH3 0x29B PUSH1 0x20 SHL PUSH3 0x10EC OR SWAP1 SWAP2 SWAP1 PUSH1 0x20 SHR JUMP JUMPDEST PUSH1 0xE0 DUP2 DUP2 MSTORE POP POP PUSH3 0x17E PUSH1 0x6 DUP3 PUSH3 0x29B PUSH1 0x20 SHL PUSH3 0x10EC OR SWAP1 SWAP2 SWAP1 PUSH1 0x20 SHR JUMP JUMPDEST PUSH2 0x100 DUP2 DUP2 MSTORE POP POP DUP2 DUP1 MLOAD SWAP1 PUSH1 0x20 ADD KECCAK256 PUSH2 0x120 DUP2 DUP2 MSTORE POP POP DUP1 DUP1 MLOAD SWAP1 PUSH1 0x20 ADD KECCAK256 PUSH2 0x140 DUP2 DUP2 MSTORE POP POP CHAINID PUSH1 0xA0 DUP2 DUP2 MSTORE POP POP PUSH3 0x1BE PUSH3 0x2F8 PUSH1 0x20 SHL PUSH1 0x20 SHR JUMP JUMPDEST PUSH1 0x80 DUP2 DUP2 MSTORE POP POP ADDRESS PUSH20 0xFFFFFFFFFFFFFFFFFFFFFFFFFFFFFFFFFFFFFFFF AND PUSH1 0xC0 DUP2 PUSH20 0xFFFFFFFFFFFFFFFFFFFFFFFFFFFFFFFFFFFFFFFF AND DUP2 MSTORE POP POP POP POP POP PUSH1 0x0 DUP2 GT PUSH3 0x242 JUMPI PUSH1 0x40 MLOAD PUSH32 0x8C379A000000000000000000000000000000000000000000000000000000000 DUP2 MSTORE PUSH1 0x4 ADD PUSH3 0x239 SWAP1 PUSH3 0x148E JUMP JUMPDEST PUSH1 0x40 MLOAD DUP1 SWAP2 SUB SWAP1 REVERT JUMPDEST DUP1 PUSH2 0x160 DUP2 DUP2 MSTORE POP POP POP PUSH3 0x28C CALLER PUSH3 0x261 PUSH3 0x292 PUSH1 0x20 SHL PUSH1 0x20 SHR JUMP JUMPDEST PUSH1 0xA PUSH3 0x26F SWAP2 SWAP1 PUSH3 0x103A JUMP JUMPDEST PUSH4 0xBEBC200 PUSH3 0x280 SWAP2 SWAP1 PUSH3 0x108B JUMP JUMPDEST PUSH3 0x356 PUSH1 0x20 SHL PUSH1 0x20 SHR JUMP JUMPDEST PUSH3 0x1AC6 JUMP JUMPDEST PUSH1 0x0 PUSH1 0x12 SWAP1 POP SWAP1 JUMP JUMPDEST PUSH1 0x0 PUSH1 0x20 DUP4 MLOAD LT ISZERO PUSH3 0x2C1 JUMPI PUSH3 0x2B9 DUP4 PUSH3 0x371 PUSH1 0x20 SHL PUSH1 0x20 SHR JUMP JUMPDEST SWAP1 POP PUSH3 0x2F2 JUMP JUMPDEST DUP3 PUSH3 0x2D8 DUP4 PUSH3 0x3DE PUSH1 0x20 SHL PUSH3 0x1130 OR PUSH1 0x20 SHR JUMP JUMPDEST PUSH1 0x0 ADD SWAP1 DUP2 PUSH3 0x2E9 SWAP2 SWAP1 PUSH3 0x1346 JUMP JUMPDEST POP PUSH1 0xFF PUSH1 0x0 SHL SWAP1 POP JUMPDEST SWAP3 SWAP2 POP POP JUMP JUMPDEST PUSH1 0x0 PUSH32 0x8B73C3C69BB8FE3D512ECC4CF759CC79239F7B179B0FFACAA9A75D522B39400F PUSH2 0x120 MLOAD PUSH2 0x140 MLOAD CHAINID ADDRESS PUSH1 0x40 MLOAD PUSH1 0x20 ADD PUSH3 0x33B SWAP6 SWAP5 SWAP4 SWAP3 SWAP2 SWAP1 PUSH3 0x1521 JUMP JUMPDEST PUSH1 0x40 MLOAD PUSH1 0x20 DUP2 DUP4 SUB SUB DUP2 MSTORE SWAP1 PUSH1 0x40 MSTORE DUP1 MLOAD SWAP1 PUSH1 0x20 ADD KECCAK256 SWAP1 POP SWAP1 JUMP JUMPDEST PUSH3 0x36D DUP3 DUP3 PUSH3 0x3E8 PUSH1 0x20 SHL PUSH3 0x113A OR PUSH1 0x20 SHR JUMP JUMPDEST POP POP JUMP JUMPDEST PUSH1 0x0 DUP1 DUP3 SWAP1 POP PUSH1 0x1F DUP2 MLOAD GT ISZERO PUSH3 0x3C1 JUMPI DUP3 PUSH1 0x40 MLOAD PUSH32 0x305A27A900000000000000000000000000000000000000000000000000000000 DUP2 MSTORE PUSH1 0x4 ADD PUSH3 0x3B8 SWAP2 SWAP1 PUSH3 0x15FC JUMP JUMPDEST PUSH1 0x40 MLOAD DUP1 SWAP2 SUB SWAP1 REVERT JUMPDEST DUP1 MLOAD DUP2 PUSH3 0x3CF SWAP1 PUSH3 0x1652 JUMP JUMPDEST PUSH1 0x0 SHR OR PUSH1 0x0 SHL SWAP2 POP POP SWAP2 SWAP1 POP JUMP JUMPDEST PUSH1 0x0 DUP2 SWAP1 POP SWAP2 SWAP1 POP JUMP JUMPDEST PUSH3 0x3F8 PUSH3 0x479 PUSH1 0x20 SHL PUSH1 0x20 SHR JUMP JUMPDEST DUP2 PUSH3 0x40E PUSH3 0x484 PUSH1 0x20 SHL PUSH3 0x650 OR PUSH1 0x20 SHR JUMP JUMPDEST PUSH3 0x41A SWAP2 SWAP1 PUSH3 0x16C2 JUMP JUMPDEST GT ISZERO PUSH3 0x45E JUMPI PUSH1 0x40 MLOAD PUSH32 0x8C379A000000000000000000000000000000000000000000000000000000000 DUP2 MSTORE PUSH1 0x4 ADD PUSH3 0x455 SWAP1 PUSH3 0x174D JUMP JUMPDEST PUSH1 0x40 MLOAD DUP1 SWAP2 SUB SWAP1 REVERT JUMPDEST PUSH3 0x475 DUP3 DUP3 PUSH3 0x48E PUSH1 0x20 SHL PUSH3 0x11A4 OR PUSH1 0x20 SHR JUMP JUMPDEST POP POP JUMP JUMPDEST PUSH1 0x0 PUSH2 0x160 MLOAD SWAP1 POP SWAP1 JUMP JUMPDEST PUSH1 0x0 PUSH1 0x2 SLOAD SWAP1 POP SWAP1 JUMP JUMPDEST PUSH3 0x4A5 DUP3 DUP3 PUSH3 0x54C PUSH1 0x20 SHL PUSH3 0x1231 OR PUSH1 0x20 SHR JUMP JUMPDEST PUSH3 0x4B5 PUSH3 0x6B9 PUSH1 0x20 SHL PUSH1 0x20 SHR JUMP JUMPDEST PUSH28 0xFFFFFFFFFFFFFFFFFFFFFFFFFFFFFFFFFFFFFFFFFFFFFFFFFFFFFFFF AND PUSH3 0x4E3 PUSH3 0x484 PUSH1 0x20 SHL PUSH1 0x20 SHR JUMP JUMPDEST GT ISZERO PUSH3 0x527 JUMPI PUSH1 0x40 MLOAD PUSH32 0x8C379A000000000000000000000000000000000000000000000000000000000 DUP2 MSTORE PUSH1 0x4 ADD PUSH3 0x51E SWAP1 PUSH3 0x17E5 JUMP JUMPDEST PUSH1 0x40 MLOAD DUP1 SWAP2 SUB SWAP1 REVERT JUMPDEST PUSH3 0x546 PUSH1 0xB PUSH3 0x6DD PUSH1 0x20 SHL PUSH3 0x1387 OR DUP4 PUSH3 0x6F5 PUSH1 0x20 SHL PUSH1 0x20 SHR JUMP JUMPDEST POP POP POP POP JUMP JUMPDEST PUSH1 0x0 PUSH20 0xFFFFFFFFFFFFFFFFFFFFFFFFFFFFFFFFFFFFFFFF AND DUP3 PUSH20 0xFFFFFFFFFFFFFFFFFFFFFFFFFFFFFFFFFFFFFFFF AND SUB PUSH3 0x5BE JUMPI PUSH1 0x40 MLOAD PUSH32 0x8C379A000000000000000000000000000000000000000000000000000000000 DUP2 MSTORE PUSH1 0x4 ADD PUSH3 0x5B5 SWAP1 PUSH3 0x1857 JUMP JUMPDEST PUSH1 0x40 MLOAD DUP1 SWAP2 SUB SWAP1 REVERT JUMPDEST PUSH3 0x5D2 PUSH1 0x0 DUP4 DUP4 PUSH3 0xA1A PUSH1 0x20 SHL PUSH1 0x20 SHR JUMP JUMPDEST DUP1 PUSH1 0x2 PUSH1 0x0 DUP3 DUP3 SLOAD PUSH3 0x5E6 SWAP2 SWAP1 PUSH3 0x16C2 JUMP JUMPDEST SWAP3 POP POP DUP2 SWAP1 SSTORE POP DUP1 PUSH1 0x0 DUP1 DUP5 PUSH20 0xFFFFFFFFFFFFFFFFFFFFFFFFFFFFFFFFFFFFFFFF AND PUSH20 0xFFFFFFFFFFFFFFFFFFFFFFFFFFFFFFFFFFFFFFFF AND DUP2 MSTORE PUSH1 0x20 ADD SWAP1 DUP2 MSTORE PUSH1 0x20 ADD PUSH1 0x0 KECCAK256 PUSH1 0x0 DUP3 DUP3 SLOAD ADD SWAP3 POP POP DUP2 SWAP1 SSTORE POP DUP2 PUSH20 0xFFFFFFFFFFFFFFFFFFFFFFFFFFFFFFFFFFFFFFFF AND PUSH1 0x0 PUSH20 0xFFFFFFFFFFFFFFFFFFFFFFFFFFFFFFFFFFFFFFFF AND PUSH32 0xDDF252AD1BE2C89B69C2B068FC378DAA952BA7F163C4A11628F55A4DF523B3EF DUP4 PUSH1 0x40 MLOAD PUSH3 0x699 SWAP2 SWAP1 PUSH3 0x1879 JUMP JUMPDEST PUSH1 0x40 MLOAD DUP1 SWAP2 SUB SWAP1 LOG3 PUSH3 0x6B5 PUSH1 0x0 DUP4 DUP4 PUSH3 0xA37 PUSH1 0x20 SHL PUSH1 0x20 SHR JUMP JUMPDEST POP POP JUMP JUMPDEST PUSH1 0x0 PUSH28 0xFFFFFFFFFFFFFFFFFFFFFFFFFFFFFFFFFFFFFFFFFFFFFFFFFFFFFFFF SWAP1 POP SWAP1 JUMP JUMPDEST PUSH1 0x0 DUP2 DUP4 PUSH3 0x6ED SWAP2 SWAP1 PUSH3 0x16C2 JUMP JUMPDEST SWAP1 POP SWAP3 SWAP2 POP POP JUMP JUMPDEST PUSH1 0x0 DUP1 PUSH1 0x0 DUP6 DUP1 SLOAD SWAP1 POP SWAP1 POP PUSH1 0x0 DUP1 DUP3 EQ PUSH3 0x7C5 JUMPI PUSH3 0x720 DUP8 PUSH1 0x1 DUP5 SUB PUSH3 0xA54 PUSH1 0x20 SHL PUSH1 0x20 SHR JUMP JUMPDEST PUSH1 0x40 MLOAD DUP1 PUSH1 0x40 ADD PUSH1 0x40 MSTORE SWAP1 DUP2 PUSH1 0x0 DUP3 ADD PUSH1 0x0 SWAP1 SLOAD SWAP1 PUSH2 0x100 EXP SWAP1 DIV PUSH4 0xFFFFFFFF AND PUSH4 0xFFFFFFFF AND PUSH4 0xFFFFFFFF AND DUP2 MSTORE PUSH1 0x20 ADD PUSH1 0x0 DUP3 ADD PUSH1 0x4 SWAP1 SLOAD SWAP1 PUSH2 0x100 EXP SWAP1 DIV PUSH28 0xFFFFFFFFFFFFFFFFFFFFFFFFFFFFFFFFFFFFFFFFFFFFFFFFFFFFFFFF AND PUSH28 0xFFFFFFFFFFFFFFFFFFFFFFFFFFFFFFFFFFFFFFFFFFFFFFFFFFFFFFFF AND PUSH28 0xFFFFFFFFFFFFFFFFFFFFFFFFFFFFFFFFFFFFFFFFFFFFFFFFFFFFFFFF AND DUP2 MSTORE POP POP PUSH3 0x801 JUMP JUMPDEST PUSH1 0x40 MLOAD DUP1 PUSH1 0x40 ADD PUSH1 0x40 MSTORE DUP1 PUSH1 0x0 PUSH4 0xFFFFFFFF AND DUP2 MSTORE PUSH1 0x20 ADD PUSH1 0x0 PUSH28 0xFFFFFFFFFFFFFFFFFFFFFFFFFFFFFFFFFFFFFFFFFFFFFFFFFFFFFFFF AND DUP2 MSTORE POP JUMPDEST SWAP1 POP DUP1 PUSH1 0x20 ADD MLOAD PUSH28 0xFFFFFFFFFFFFFFFFFFFFFFFFFFFFFFFFFFFFFFFFFFFFFFFFFFFFFFFF AND SWAP4 POP PUSH3 0x834 DUP5 DUP7 DUP9 PUSH1 0x20 SHR JUMP JUMPDEST SWAP3 POP PUSH1 0x0 DUP3 GT DUP1 ISZERO PUSH3 0x867 JUMPI POP PUSH3 0x852 PUSH3 0xA69 PUSH1 0x20 SHL PUSH1 0x20 SHR JUMP JUMPDEST PUSH6 0xFFFFFFFFFFFF AND DUP2 PUSH1 0x0 ADD MLOAD PUSH4 0xFFFFFFFF AND EQ JUMPDEST ISZERO PUSH3 0x8EF JUMPI PUSH3 0x883 DUP4 PUSH3 0xA86 PUSH1 0x20 SHL PUSH3 0x139D OR PUSH1 0x20 SHR JUMP JUMPDEST PUSH3 0x898 DUP9 PUSH1 0x1 DUP6 SUB PUSH3 0xA54 PUSH1 0x20 SHL PUSH1 0x20 SHR JUMP JUMPDEST PUSH1 0x0 ADD PUSH1 0x4 PUSH2 0x100 EXP DUP2 SLOAD DUP2 PUSH28 0xFFFFFFFFFFFFFFFFFFFFFFFFFFFFFFFFFFFFFFFFFFFFFFFFFFFFFFFF MUL NOT AND SWAP1 DUP4 PUSH28 0xFFFFFFFFFFFFFFFFFFFFFFFFFFFFFFFFFFFFFFFFFFFFFFFFFFFFFFFF AND MUL OR SWAP1 SSTORE POP PUSH3 0xA10 JUMP JUMPDEST DUP7 PUSH1 0x40 MLOAD DUP1 PUSH1 0x40 ADD PUSH1 0x40 MSTORE DUP1 PUSH3 0x928 PUSH3 0x90F PUSH3 0xA69 PUSH1 0x20 SHL PUSH1 0x20 SHR JUMP JUMPDEST PUSH6 0xFFFFFFFFFFFF AND PUSH3 0xAF4 PUSH1 0x20 SHL PUSH3 0x1408 OR PUSH1 0x20 SHR JUMP JUMPDEST PUSH4 0xFFFFFFFF AND DUP2 MSTORE PUSH1 0x20 ADD PUSH3 0x949 DUP7 PUSH3 0xA86 PUSH1 0x20 SHL PUSH3 0x139D OR PUSH1 0x20 SHR JUMP JUMPDEST PUSH28 0xFFFFFFFFFFFFFFFFFFFFFFFFFFFFFFFFFFFFFFFFFFFFFFFFFFFFFFFF AND DUP2 MSTORE POP SWAP1 DUP1 PUSH1 0x1 DUP2 SLOAD ADD DUP1 DUP3 SSTORE DUP1 SWAP2 POP POP PUSH1 0x1 SWAP1 SUB SWAP1 PUSH1 0x0 MSTORE PUSH1 0x20 PUSH1 0x0 KECCAK256 ADD PUSH1 0x0 SWAP1 SWAP2 SWAP1 SWAP2 SWAP1 SWAP2 POP PUSH1 0x0 DUP3 ADD MLOAD DUP2 PUSH1 0x0 ADD PUSH1 0x0 PUSH2 0x100 EXP DUP2 SLOAD DUP2 PUSH4 0xFFFFFFFF MUL NOT AND SWAP1 DUP4 PUSH4 0xFFFFFFFF AND MUL OR SWAP1 SSTORE POP PUSH1 0x20 DUP3 ADD MLOAD DUP2 PUSH1 0x0 ADD PUSH1 0x4 PUSH2 0x100 EXP DUP2 SLOAD DUP2 PUSH28 0xFFFFFFFFFFFFFFFFFFFFFFFFFFFFFFFFFFFFFFFFFFFFFFFFFFFFFFFF MUL NOT AND SWAP1 DUP4 PUSH28 0xFFFFFFFFFFFFFFFFFFFFFFFFFFFFFFFFFFFFFFFFFFFFFFFFFFFFFFFF AND MUL OR SWAP1 SSTORE POP POP POP JUMPDEST POP POP SWAP4 POP SWAP4 SWAP2 POP POP JUMP JUMPDEST PUSH3 0xA32 DUP4 DUP4 DUP4 PUSH3 0xB4A PUSH1 0x20 SHL PUSH3 0x145B OR PUSH1 0x20 SHR JUMP JUMPDEST POP POP POP JUMP JUMPDEST PUSH3 0xA4F DUP4 DUP4 DUP4 PUSH3 0xB4F PUSH1 0x20 SHL PUSH3 0x1460 OR PUSH1 0x20 SHR JUMP JUMPDEST POP POP POP JUMP JUMPDEST PUSH1 0x0 DUP3 PUSH1 0x0 MSTORE DUP2 PUSH1 0x20 PUSH1 0x0 KECCAK256 ADD SWAP1 POP SWAP3 SWAP2 POP POP JUMP JUMPDEST PUSH1 0x0 PUSH3 0xA81 NUMBER PUSH3 0xB9F PUSH1 0x20 SHL PUSH3 0x148B OR PUSH1 0x20 SHR JUMP JUMPDEST SWAP1 POP SWAP1 JUMP JUMPDEST PUSH1 0x0 PUSH28 0xFFFFFFFFFFFFFFFFFFFFFFFFFFFFFFFFFFFFFFFFFFFFFFFFFFFFFFFF DUP1 AND DUP3 GT ISZERO PUSH3 0xAEC JUMPI PUSH1 0x40 MLOAD PUSH32 0x8C379A000000000000000000000000000000000000000000000000000000000 DUP2 MSTORE PUSH1 0x4 ADD PUSH3 0xAE3 SWAP1 PUSH3 0x190C JUMP JUMPDEST PUSH1 0x40 MLOAD DUP1 SWAP2 SUB SWAP1 REVERT JUMPDEST DUP2 SWAP1 POP SWAP2 SWAP1 POP JUMP JUMPDEST PUSH1 0x0 PUSH4 0xFFFFFFFF DUP1 AND DUP3 GT ISZERO PUSH3 0xB42 JUMPI PUSH1 0x40 MLOAD PUSH32 0x8C379A000000000000000000000000000000000000000000000000000000000 DUP2 MSTORE PUSH1 0x4 ADD PUSH3 0xB39 SWAP1 PUSH3 0x19A4 JUMP JUMPDEST PUSH1 0x40 MLOAD DUP1 SWAP2 SUB SWAP1 REVERT JUMPDEST DUP2 SWAP1 POP SWAP2 SWAP1 POP JUMP JUMPDEST POP POP POP JUMP JUMPDEST PUSH3 0xB67 DUP4 DUP4 DUP4 PUSH3 0xBF7 PUSH1 0x20 SHL PUSH3 0x14E0 OR PUSH1 0x20 SHR JUMP JUMPDEST PUSH3 0xB9A PUSH3 0xB7C DUP5 PUSH3 0xBFC PUSH1 0x20 SHL PUSH1 0x20 SHR JUMP JUMPDEST PUSH3 0xB8D DUP5 PUSH3 0xBFC PUSH1 0x20 SHL PUSH1 0x20 SHR JUMP JUMPDEST DUP4 PUSH3 0xC65 PUSH1 0x20 SHL PUSH1 0x20 SHR JUMP JUMPDEST POP POP POP JUMP JUMPDEST PUSH1 0x0 PUSH6 0xFFFFFFFFFFFF DUP1 AND DUP3 GT ISZERO PUSH3 0xBEF JUMPI PUSH1 0x40 MLOAD PUSH32 0x8C379A000000000000000000000000000000000000000000000000000000000 DUP2 MSTORE PUSH1 0x4 ADD PUSH3 0xBE6 SWAP1 PUSH3 0x1A3C JUMP JUMPDEST PUSH1 0x40 MLOAD DUP1 SWAP2 SUB SWAP1 REVERT JUMPDEST DUP2 SWAP1 POP SWAP2 SWAP1 POP JUMP JUMPDEST POP POP POP JUMP JUMPDEST PUSH1 0x0 PUSH1 0x9 PUSH1 0x0 DUP4 PUSH20 0xFFFFFFFFFFFFFFFFFFFFFFFFFFFFFFFFFFFFFFFF AND PUSH20 0xFFFFFFFFFFFFFFFFFFFFFFFFFFFFFFFFFFFFFFFF AND DUP2 MSTORE PUSH1 0x20 ADD SWAP1 DUP2 MSTORE PUSH1 0x20 ADD PUSH1 0x0 KECCAK256 PUSH1 0x0 SWAP1 SLOAD SWAP1 PUSH2 0x100 EXP SWAP1 DIV PUSH20 0xFFFFFFFFFFFFFFFFFFFFFFFFFFFFFFFFFFFFFFFF AND SWAP1 POP SWAP2 SWAP1 POP JUMP JUMPDEST DUP2 PUSH20 0xFFFFFFFFFFFFFFFFFFFFFFFFFFFFFFFFFFFFFFFF AND DUP4 PUSH20 0xFFFFFFFFFFFFFFFFFFFFFFFFFFFFFFFFFFFFFFFF AND EQ ISZERO DUP1 ISZERO PUSH3 0xCA2 JUMPI POP PUSH1 0x0 DUP2 GT JUMPDEST ISZERO PUSH3 0xE83 JUMPI PUSH1 0x0 PUSH20 0xFFFFFFFFFFFFFFFFFFFFFFFFFFFFFFFFFFFFFFFF AND DUP4 PUSH20 0xFFFFFFFFFFFFFFFFFFFFFFFFFFFFFFFFFFFFFFFF AND EQ PUSH3 0xD95 JUMPI PUSH1 0x0 DUP1 PUSH3 0xD3C PUSH1 0xA PUSH1 0x0 DUP8 PUSH20 0xFFFFFFFFFFFFFFFFFFFFFFFFFFFFFFFFFFFFFFFF AND PUSH20 0xFFFFFFFFFFFFFFFFFFFFFFFFFFFFFFFFFFFFFFFF AND DUP2 MSTORE PUSH1 0x20 ADD SWAP1 DUP2 MSTORE PUSH1 0x20 ADD PUSH1 0x0 KECCAK256 PUSH3 0xE88 PUSH1 0x20 SHL PUSH3 0x14E5 OR DUP6 PUSH3 0x6F5 PUSH1 0x20 SHL PUSH1 0x20 SHR JUMP JUMPDEST SWAP2 POP SWAP2 POP DUP5 PUSH20 0xFFFFFFFFFFFFFFFFFFFFFFFFFFFFFFFFFFFFFFFF AND PUSH32 0xDEC2BACDD2F05B59DE34DA9B523DFF8BE42E5E38E818C82FDB0BAE774387A724 DUP4 DUP4 PUSH1 0x40 MLOAD PUSH3 0xD8A SWAP3 SWAP2 SWAP1 PUSH3 0x1A5E JUMP JUMPDEST PUSH1 0x40 MLOAD DUP1 SWAP2 SUB SWAP1 LOG2 POP POP JUMPDEST PUSH1 0x0 PUSH20 0xFFFFFFFFFFFFFFFFFFFFFFFFFFFFFFFFFFFFFFFF AND DUP3 PUSH20 0xFFFFFFFFFFFFFFFFFFFFFFFFFFFFFFFFFFFFFFFF AND EQ PUSH3 0xE82 JUMPI PUSH1 0x0 DUP1 PUSH3 0xE29 PUSH1 0xA PUSH1 0x0 DUP7 PUSH20 0xFFFFFFFFFFFFFFFFFFFFFFFFFFFFFFFFFFFFFFFF AND PUSH20 0xFFFFFFFFFFFFFFFFFFFFFFFFFFFFFFFFFFFFFFFF AND DUP2 MSTORE PUSH1 0x20 ADD SWAP1 DUP2 MSTORE PUSH1 0x20 ADD PUSH1 0x0 KECCAK256 PUSH3 0x6DD PUSH1 0x20 SHL PUSH3 0x1387 OR DUP6 PUSH3 0x6F5 PUSH1 0x20 SHL PUSH1 0x20 SHR JUMP JUMPDEST SWAP2 POP SWAP2 POP DUP4 PUSH20 0xFFFFFFFFFFFFFFFFFFFFFFFFFFFFFFFFFFFFFFFF AND PUSH32 0xDEC2BACDD2F05B59DE34DA9B523DFF8BE42E5E38E818C82FDB0BAE774387A724 DUP4 DUP4 PUSH1 0x40 MLOAD PUSH3 0xE77 SWAP3 SWAP2 SWAP1 PUSH3 0x1A5E JUMP JUMPDEST PUSH1 0x40 MLOAD DUP1 SWAP2 SUB SWAP1 LOG2 POP POP JUMPDEST JUMPDEST POP POP POP JUMP JUMPDEST PUSH1 0x0 DUP2 DUP4 PUSH3 0xE98 SWAP2 SWAP1 PUSH3 0x1A8B JUMP JUMPDEST SWAP1 POP SWAP3 SWAP2 POP POP JUMP JUMPDEST PUSH32 0x4E487B7100000000000000000000000000000000000000000000000000000000 PUSH1 0x0 MSTORE PUSH1 0x11 PUSH1 0x4 MSTORE PUSH1 0x24 PUSH1 0x0 REVERT JUMPDEST PUSH1 0x0 DUP2 PUSH1 0x1 SHR SWAP1 POP SWAP2 SWAP1 POP JUMP JUMPDEST PUSH1 0x0 DUP1 DUP3 SWAP2 POP DUP4 SWAP1 POP JUMPDEST PUSH1 0x1 DUP6 GT ISZERO PUSH3 0xF2E JUMPI DUP1 DUP7 DIV DUP2 GT ISZERO PUSH3 0xF06 JUMPI PUSH3 0xF05 PUSH3 0xEA0 JUMP JUMPDEST JUMPDEST PUSH1 0x1 DUP6 AND ISZERO PUSH3 0xF16 JUMPI DUP1 DUP3 MUL SWAP2 POP JUMPDEST DUP1 DUP2 MUL SWAP1 POP PUSH3 0xF26 DUP6 PUSH3 0xECF JUMP JUMPDEST SWAP5 POP PUSH3 0xEE6 JUMP JUMPDEST SWAP5 POP SWAP5 SWAP3 POP POP POP JUMP JUMPDEST PUSH1 0x0 DUP3 PUSH3 0xF49 JUMPI PUSH1 0x1 SWAP1 POP PUSH3 0x101C JUMP JUMPDEST DUP2 PUSH3 0xF59 JUMPI PUSH1 0x0 SWAP1 POP PUSH3 0x101C JUMP JUMPDEST DUP2 PUSH1 0x1 DUP2 EQ PUSH3 0xF72 JUMPI PUSH1 0x2 DUP2 EQ PUSH3 0xF7D JUMPI PUSH3 0xFB3 JUMP JUMPDEST PUSH1 0x1 SWAP2 POP POP PUSH3 0x101C JUMP JUMPDEST PUSH1 0xFF DUP5 GT ISZERO PUSH3 0xF92 JUMPI PUSH3 0xF91 PUSH3 0xEA0 JUMP JUMPDEST JUMPDEST DUP4 PUSH1 0x2 EXP SWAP2 POP DUP5 DUP3 GT ISZERO PUSH3 0xFAC JUMPI PUSH3 0xFAB PUSH3 0xEA0 JUMP JUMPDEST JUMPDEST POP PUSH3 0x101C JUMP JUMPDEST POP PUSH1 0x20 DUP4 LT PUSH2 0x133 DUP4 LT AND PUSH1 0x4E DUP5 LT PUSH1 0xB DUP5 LT AND OR ISZERO PUSH3 0xFED JUMPI DUP3 DUP3 EXP SWAP1 POP DUP4 DUP2 GT ISZERO PUSH3 0xFE7 JUMPI PUSH3 0xFE6 PUSH3 0xEA0 JUMP JUMPDEST JUMPDEST PUSH3 0x101C JUMP JUMPDEST PUSH3 0xFFC DUP5 DUP5 DUP5 PUSH1 0x1 PUSH3 0xEDC JUMP JUMPDEST SWAP3 POP SWAP1 POP DUP2 DUP5 DIV DUP2 GT ISZERO PUSH3 0x1016 JUMPI PUSH3 0x1015 PUSH3 0xEA0 JUMP JUMPDEST JUMPDEST DUP2 DUP2 MUL SWAP1 POP JUMPDEST SWAP4 SWAP3 POP POP POP JUMP JUMPDEST PUSH1 0x0 DUP2 SWAP1 POP SWAP2 SWAP1 POP JUMP JUMPDEST PUSH1 0x0 PUSH1 0xFF DUP3 AND SWAP1 POP SWAP2 SWAP1 POP JUMP JUMPDEST PUSH1 0x0 PUSH3 0x1047 DUP3 PUSH3 0x1023 JUMP JUMPDEST SWAP2 POP PUSH3 0x1054 DUP4 PUSH3 0x102D JUMP JUMPDEST SWAP3 POP PUSH3 0x1083 PUSH32 0xFFFFFFFFFFFFFFFFFFFFFFFFFFFFFFFFFFFFFFFFFFFFFFFFFFFFFFFFFFFFFFFF DUP5 DUP5 PUSH3 0xF37 JUMP JUMPDEST SWAP1 POP SWAP3 SWAP2 POP POP JUMP JUMPDEST PUSH1 0x0 PUSH3 0x1098 DUP3 PUSH3 0x1023 JUMP JUMPDEST SWAP2 POP PUSH3 0x10A5 DUP4 PUSH3 0x1023 JUMP JUMPDEST SWAP3 POP DUP3 DUP3 MUL PUSH3 0x10B5 DUP2 PUSH3 0x1023 JUMP JUMPDEST SWAP2 POP DUP3 DUP3 DIV DUP5 EQ DUP4 ISZERO OR PUSH3 0x10CF JUMPI PUSH3 0x10CE PUSH3 0xEA0 JUMP JUMPDEST JUMPDEST POP SWAP3 SWAP2 POP POP JUMP JUMPDEST PUSH1 0x0 DUP2 MLOAD SWAP1 POP SWAP2 SWAP1 POP JUMP JUMPDEST PUSH32 0x4E487B7100000000000000000000000000000000000000000000000000000000 PUSH1 0x0 MSTORE PUSH1 0x41 PUSH1 0x4 MSTORE PUSH1 0x24 PUSH1 0x0 REVERT JUMPDEST PUSH32 0x4E487B7100000000000000000000000000000000000000000000000000000000 PUSH1 0x0 MSTORE PUSH1 0x22 PUSH1 0x4 MSTORE PUSH1 0x24 PUSH1 0x0 REVERT JUMPDEST PUSH1 0x0 PUSH1 0x2 DUP3 DIV SWAP1 POP PUSH1 0x1 DUP3 AND DUP1 PUSH3 0x1158 JUMPI PUSH1 0x7F DUP3 AND SWAP2 POP JUMPDEST PUSH1 0x20 DUP3 LT DUP2 SUB PUSH3 0x116E JUMPI PUSH3 0x116D PUSH3 0x1110 JUMP JUMPDEST JUMPDEST POP SWAP2 SWAP1 POP JUMP JUMPDEST PUSH1 0x0 DUP2 SWAP1 POP DUP2 PUSH1 0x0 MSTORE PUSH1 0x20 PUSH1 0x0 KECCAK256 SWAP1 POP SWAP2 SWAP1 POP JUMP JUMPDEST PUSH1 0x0 PUSH1 0x20 PUSH1 0x1F DUP4 ADD DIV SWAP1 POP SWAP2 SWAP1 POP JUMP JUMPDEST PUSH1 0x0 DUP3 DUP3 SHL SWAP1 POP SWAP3 SWAP2 POP POP JUMP JUMPDEST PUSH1 0x0 PUSH1 0x8 DUP4 MUL PUSH3 0x11D8 PUSH32 0xFFFFFFFFFFFFFFFFFFFFFFFFFFFFFFFFFFFFFFFFFFFFFFFFFFFFFFFFFFFFFFFF DUP3 PUSH3 0x1199 JUMP JUMPDEST PUSH3 0x11E4 DUP7 DUP4 PUSH3 0x1199 JUMP JUMPDEST SWAP6 POP DUP1 NOT DUP5 AND SWAP4 POP DUP1 DUP7 AND DUP5 OR SWAP3 POP POP POP SWAP4 SWAP3 POP POP POP JUMP JUMPDEST PUSH1 0x0 DUP2 SWAP1 POP SWAP2 SWAP1 POP JUMP JUMPDEST PUSH1 0x0 PUSH3 0x1227 PUSH3 0x1221 PUSH3 0x121B DUP5 PUSH3 0x1023 JUMP JUMPDEST PUSH3 0x11FC JUMP JUMPDEST PUSH3 0x1023 JUMP JUMPDEST SWAP1 POP SWAP2 SWAP1 POP JUMP JUMPDEST PUSH1 0x0 DUP2 SWAP1 POP SWAP2 SWAP1 POP JUMP JUMPDEST PUSH3 0x1243 DUP4 PUSH3 0x1206 JUMP JUMPDEST PUSH3 0x125B PUSH3 0x1252 DUP3 PUSH3 0x122E JUMP JUMPDEST DUP5 DUP5 SLOAD PUSH3 0x11A6 JUMP JUMPDEST DUP3 SSTORE POP POP POP POP JUMP JUMPDEST PUSH1 0x0 SWAP1 JUMP JUMPDEST PUSH3 0x1272 PUSH3 0x1263 JUMP JUMPDEST PUSH3 0x127F DUP2 DUP5 DUP5 PUSH3 0x1238 JUMP JUMPDEST POP POP POP JUMP JUMPDEST JUMPDEST DUP2 DUP2 LT ISZERO PUSH3 0x12A7 JUMPI PUSH3 0x129B PUSH1 0x0 DUP3 PUSH3 0x1268 JUMP JUMPDEST PUSH1 0x1 DUP2 ADD SWAP1 POP PUSH3 0x1285 JUMP JUMPDEST POP POP JUMP JUMPDEST PUSH1 0x1F DUP3 GT ISZERO PUSH3 0x12F6 JUMPI PUSH3 0x12C0 DUP2 PUSH3 0x1174 JUMP JUMPDEST PUSH3 0x12CB DUP5 PUSH3 0x1189 JUMP JUMPDEST DUP2 ADD PUSH1 0x20 DUP6 LT ISZERO PUSH3 0x12DB JUMPI DUP2 SWAP1 POP JUMPDEST PUSH3 0x12F3 PUSH3 0x12EA DUP6 PUSH3 0x1189 JUMP JUMPDEST DUP4 ADD DUP3 PUSH3 0x1284 JUMP JUMPDEST POP POP JUMPDEST POP POP POP JUMP JUMPDEST PUSH1 0x0 DUP3 DUP3 SHR SWAP1 POP SWAP3 SWAP2 POP POP JUMP JUMPDEST PUSH1 0x0 PUSH3 0x131B PUSH1 0x0 NOT DUP5 PUSH1 0x8 MUL PUSH3 0x12FB JUMP JUMPDEST NOT DUP1 DUP4 AND SWAP2 POP POP SWAP3 SWAP2 POP POP JUMP JUMPDEST PUSH1 0x0 PUSH3 0x1336 DUP4 DUP4 PUSH3 0x1308 JUMP JUMPDEST SWAP2 POP DUP3 PUSH1 0x2 MUL DUP3 OR SWAP1 POP SWAP3 SWAP2 POP POP JUMP JUMPDEST PUSH3 0x1351 DUP3 PUSH3 0x10D6 JUMP JUMPDEST PUSH8 0xFFFFFFFFFFFFFFFF DUP2 GT ISZERO PUSH3 0x136D JUMPI PUSH3 0x136C PUSH3 0x10E1 JUMP JUMPDEST JUMPDEST PUSH3 0x1379 DUP3 SLOAD PUSH3 0x113F JUMP JUMPDEST PUSH3 0x1386 DUP3 DUP3 DUP6 PUSH3 0x12AB JUMP JUMPDEST PUSH1 0x0 PUSH1 0x20 SWAP1 POP PUSH1 0x1F DUP4 GT PUSH1 0x1 DUP2 EQ PUSH3 0x13BE JUMPI PUSH1 0x0 DUP5 ISZERO PUSH3 0x13A9 JUMPI DUP3 DUP8 ADD MLOAD SWAP1 POP JUMPDEST PUSH3 0x13B5 DUP6 DUP3 PUSH3 0x1328 JUMP JUMPDEST DUP7 SSTORE POP PUSH3 0x1425 JUMP JUMPDEST PUSH1 0x1F NOT DUP5 AND PUSH3 0x13CE DUP7 PUSH3 0x1174 JUMP JUMPDEST PUSH1 0x0 JUMPDEST DUP3 DUP2 LT ISZERO PUSH3 0x13F8 JUMPI DUP5 DUP10 ADD MLOAD DUP3 SSTORE PUSH1 0x1 DUP3 ADD SWAP2 POP PUSH1 0x20 DUP6 ADD SWAP5 POP PUSH1 0x20 DUP2 ADD SWAP1 POP PUSH3 0x13D1 JUMP JUMPDEST DUP7 DUP4 LT ISZERO PUSH3 0x1418 JUMPI DUP5 DUP10 ADD MLOAD PUSH3 0x1414 PUSH1 0x1F DUP10 AND DUP3 PUSH3 0x1308 JUMP JUMPDEST DUP4 SSTORE POP JUMPDEST PUSH1 0x1 PUSH1 0x2 DUP9 MUL ADD DUP9 SSTORE POP POP POP JUMPDEST POP POP POP POP POP POP JUMP JUMPDEST PUSH1 0x0 DUP3 DUP3 MSTORE PUSH1 0x20 DUP3 ADD SWAP1 POP SWAP3 SWAP2 POP POP JUMP JUMPDEST PUSH32 0x45524332304361707065643A2063617020697320300000000000000000000000 PUSH1 0x0 DUP3 ADD MSTORE POP JUMP JUMPDEST PUSH1 0x0 PUSH3 0x1476 PUSH1 0x15 DUP4 PUSH3 0x142D JUMP JUMPDEST SWAP2 POP PUSH3 0x1483 DUP3 PUSH3 0x143E JUMP JUMPDEST PUSH1 0x20 DUP3 ADD SWAP1 POP SWAP2 SWAP1 POP JUMP JUMPDEST PUSH1 0x0 PUSH1 0x20 DUP3 ADD SWAP1 POP DUP2 DUP2 SUB PUSH1 0x0 DUP4 ADD MSTORE PUSH3 0x14A9 DUP2 PUSH3 0x1467 JUMP JUMPDEST SWAP1 POP SWAP2 SWAP1 POP JUMP JUMPDEST PUSH1 0x0 DUP2 SWAP1 POP SWAP2 SWAP1 POP JUMP JUMPDEST PUSH3 0x14C5 DUP2 PUSH3 0x14B0 JUMP JUMPDEST DUP3 MSTORE POP POP JUMP JUMPDEST PUSH3 0x14D6 DUP2 PUSH3 0x1023 JUMP JUMPDEST DUP3 MSTORE POP POP JUMP JUMPDEST PUSH1 0x0 PUSH20 0xFFFFFFFFFFFFFFFFFFFFFFFFFFFFFFFFFFFFFFFF DUP3 AND SWAP1 POP SWAP2 SWAP1 POP JUMP JUMPDEST PUSH1 0x0 PUSH3 0x1509 DUP3 PUSH3 0x14DC JUMP JUMPDEST SWAP1 POP SWAP2 SWAP1 POP JUMP JUMPDEST PUSH3 0x151B DUP2 PUSH3 0x14FC JUMP JUMPDEST DUP3 MSTORE POP POP JUMP JUMPDEST PUSH1 0x0 PUSH1 0xA0 DUP3 ADD SWAP1 POP PUSH3 0x1538 PUSH1 0x0 DUP4 ADD DUP9 PUSH3 0x14BA JUMP JUMPDEST PUSH3 0x1547 PUSH1 0x20 DUP4 ADD DUP8 PUSH3 0x14BA JUMP JUMPDEST PUSH3 0x1556 PUSH1 0x40 DUP4 ADD DUP7 PUSH3 0x14BA JUMP JUMPDEST PUSH3 0x1565 PUSH1 0x60 DUP4 ADD DUP6 PUSH3 0x14CB JUMP JUMPDEST PUSH3 0x1574 PUSH1 0x80 DUP4 ADD DUP5 PUSH3 0x1510 JUMP JUMPDEST SWAP7 SWAP6 POP POP POP POP POP POP JUMP JUMPDEST PUSH1 0x0 JUMPDEST DUP4 DUP2 LT ISZERO PUSH3 0x159E JUMPI DUP1 DUP3 ADD MLOAD DUP2 DUP5 ADD MSTORE PUSH1 0x20 DUP2 ADD SWAP1 POP PUSH3 0x1581 JUMP JUMPDEST PUSH1 0x0 DUP5 DUP5 ADD MSTORE POP POP POP POP JUMP JUMPDEST PUSH1 0x0 PUSH1 0x1F NOT PUSH1 0x1F DUP4 ADD AND SWAP1 POP SWAP2 SWAP1 POP JUMP JUMPDEST PUSH1 0x0 PUSH3 0x15C8 DUP3 PUSH3 0x10D6 JUMP JUMPDEST PUSH3 0x15D4 DUP2 DUP6 PUSH3 0x142D JUMP JUMPDEST SWAP4 POP PUSH3 0x15E6 DUP2 DUP6 PUSH1 0x20 DUP7 ADD PUSH3 0x157E JUMP JUMPDEST PUSH3 0x15F1 DUP2 PUSH3 0x15AA JUMP JUMPDEST DUP5 ADD SWAP2 POP POP SWAP3 SWAP2 POP POP JUMP JUMPDEST PUSH1 0x0 PUSH1 0x20 DUP3 ADD SWAP1 POP DUP2 DUP2 SUB PUSH1 0x0 DUP4 ADD MSTORE PUSH3 0x1618 DUP2 DUP5 PUSH3 0x15BB JUMP JUMPDEST SWAP1 POP SWAP3 SWAP2 POP POP JUMP JUMPDEST PUSH1 0x0 DUP2 MLOAD SWAP1 POP SWAP2 SWAP1 POP JUMP JUMPDEST PUSH1 0x0 DUP2 SWAP1 POP PUSH1 0x20 DUP3 ADD SWAP1 POP SWAP2 SWAP1 POP JUMP JUMPDEST PUSH1 0x0 PUSH3 0x1649 DUP3 MLOAD PUSH3 0x14B0 JUMP JUMPDEST DUP1 SWAP2 POP POP SWAP2 SWAP1 POP JUMP JUMPDEST PUSH1 0x0 PUSH3 0x165F DUP3 PUSH3 0x1620 JUMP JUMPDEST DUP3 PUSH3 0x166B DUP5 PUSH3 0x162B JUMP JUMPDEST SWAP1 POP PUSH3 0x1678 DUP2 PUSH3 0x163B JUMP JUMPDEST SWAP3 POP PUSH1 0x20 DUP3 LT ISZERO PUSH3 0x16BB JUMPI PUSH3 0x16B6 PUSH32 0xFFFFFFFFFFFFFFFFFFFFFFFFFFFFFFFFFFFFFFFFFFFFFFFFFFFFFFFFFFFFFFFF DUP4 PUSH1 0x20 SUB PUSH1 0x8 MUL PUSH3 0x1199 JUMP JUMPDEST DUP4 AND SWAP3 POP JUMPDEST POP POP SWAP2 SWAP1 POP JUMP JUMPDEST PUSH1 0x0 PUSH3 0x16CF DUP3 PUSH3 0x1023 JUMP JUMPDEST SWAP2 POP PUSH3 0x16DC DUP4 PUSH3 0x1023 JUMP JUMPDEST SWAP3 POP DUP3 DUP3 ADD SWAP1 POP DUP1 DUP3 GT ISZERO PUSH3 0x16F7 JUMPI PUSH3 0x16F6 PUSH3 0xEA0 JUMP JUMPDEST JUMPDEST SWAP3 SWAP2 POP POP JUMP JUMPDEST PUSH32 0x45524332304361707065643A2063617020657863656564656400000000000000 PUSH1 0x0 DUP3 ADD MSTORE POP JUMP JUMPDEST PUSH1 0x0 PUSH3 0x1735 PUSH1 0x19 DUP4 PUSH3 0x142D JUMP JUMPDEST SWAP2 POP PUSH3 0x1742 DUP3 PUSH3 0x16FD JUMP JUMPDEST PUSH1 0x20 DUP3 ADD SWAP1 POP SWAP2 SWAP1 POP JUMP JUMPDEST PUSH1 0x0 PUSH1 0x20 DUP3 ADD SWAP1 POP DUP2 DUP2 SUB PUSH1 0x0 DUP4 ADD MSTORE PUSH3 0x1768 DUP2 PUSH3 0x1726 JUMP JUMPDEST SWAP1 POP SWAP2 SWAP1 POP JUMP JUMPDEST PUSH32 0x4552433230566F7465733A20746F74616C20737570706C79207269736B73206F PUSH1 0x0 DUP3 ADD MSTORE PUSH32 0x766572666C6F77696E6720766F74657300000000000000000000000000000000 PUSH1 0x20 DUP3 ADD MSTORE POP JUMP JUMPDEST PUSH1 0x0 PUSH3 0x17CD PUSH1 0x30 DUP4 PUSH3 0x142D JUMP JUMPDEST SWAP2 POP PUSH3 0x17DA DUP3 PUSH3 0x176F JUMP JUMPDEST PUSH1 0x40 DUP3 ADD SWAP1 POP SWAP2 SWAP1 POP JUMP JUMPDEST PUSH1 0x0 PUSH1 0x20 DUP3 ADD SWAP1 POP DUP2 DUP2 SUB PUSH1 0x0 DUP4 ADD MSTORE PUSH3 0x1800 DUP2 PUSH3 0x17BE JUMP JUMPDEST SWAP1 POP SWAP2 SWAP1 POP JUMP JUMPDEST PUSH32 0x45524332303A206D696E7420746F20746865207A65726F206164647265737300 PUSH1 0x0 DUP3 ADD MSTORE POP JUMP JUMPDEST PUSH1 0x0 PUSH3 0x183F PUSH1 0x1F DUP4 PUSH3 0x142D JUMP JUMPDEST SWAP2 POP PUSH3 0x184C DUP3 PUSH3 0x1807 JUMP JUMPDEST PUSH1 0x20 DUP3 ADD SWAP1 POP SWAP2 SWAP1 POP JUMP JUMPDEST PUSH1 0x0 PUSH1 0x20 DUP3 ADD SWAP1 POP DUP2 DUP2 SUB PUSH1 0x0 DUP4 ADD MSTORE PUSH3 0x1872 DUP2 PUSH3 0x1830 JUMP JUMPDEST SWAP1 POP SWAP2 SWAP1 POP JUMP JUMPDEST PUSH1 0x0 PUSH1 0x20 DUP3 ADD SWAP1 POP PUSH3 0x1890 PUSH1 0x0 DUP4 ADD DUP5 PUSH3 0x14CB JUMP JUMPDEST SWAP3 SWAP2 POP POP JUMP JUMPDEST PUSH32 0x53616665436173743A2076616C756520646F65736E27742066697420696E2032 PUSH1 0x0 DUP3 ADD MSTORE PUSH32 0x3234206269747300000000000000000000000000000000000000000000000000 PUSH1 0x20 DUP3 ADD MSTORE POP JUMP JUMPDEST PUSH1 0x0 PUSH3 0x18F4 PUSH1 0x27 DUP4 PUSH3 0x142D JUMP JUMPDEST SWAP2 POP PUSH3 0x1901 DUP3 PUSH3 0x1896 JUMP JUMPDEST PUSH1 0x40 DUP3 ADD SWAP1 POP SWAP2 SWAP1 POP JUMP JUMPDEST PUSH1 0x0 PUSH1 0x20 DUP3 ADD SWAP1 POP DUP2 DUP2 SUB PUSH1 0x0 DUP4 ADD MSTORE PUSH3 0x1927 DUP2 PUSH3 0x18E5 JUMP JUMPDEST SWAP1 POP SWAP2 SWAP1 POP JUMP JUMPDEST PUSH32 0x53616665436173743A2076616C756520646F65736E27742066697420696E2033 PUSH1 0x0 DUP3 ADD MSTORE PUSH32 0x3220626974730000000000000000000000000000000000000000000000000000 PUSH1 0x20 DUP3 ADD MSTORE POP JUMP JUMPDEST PUSH1 0x0 PUSH3 0x198C PUSH1 0x26 DUP4 PUSH3 0x142D JUMP JUMPDEST SWAP2 POP PUSH3 0x1999 DUP3 PUSH3 0x192E JUMP JUMPDEST PUSH1 0x40 DUP3 ADD SWAP1 POP SWAP2 SWAP1 POP JUMP JUMPDEST PUSH1 0x0 PUSH1 0x20 DUP3 ADD SWAP1 POP DUP2 DUP2 SUB PUSH1 0x0 DUP4 ADD MSTORE PUSH3 0x19BF DUP2 PUSH3 0x197D JUMP JUMPDEST SWAP1 POP SWAP2 SWAP1 POP JUMP JUMPDEST PUSH32 0x53616665436173743A2076616C756520646F65736E27742066697420696E2034 PUSH1 0x0 DUP3 ADD MSTORE PUSH32 0x3820626974730000000000000000000000000000000000000000000000000000 PUSH1 0x20 DUP3 ADD MSTORE POP JUMP JUMPDEST PUSH1 0x0 PUSH3 0x1A24 PUSH1 0x26 DUP4 PUSH3 0x142D JUMP JUMPDEST SWAP2 POP PUSH3 0x1A31 DUP3 PUSH3 0x19C6 JUMP JUMPDEST PUSH1 0x40 DUP3 ADD SWAP1 POP SWAP2 SWAP1 POP JUMP JUMPDEST PUSH1 0x0 PUSH1 0x20 DUP3 ADD SWAP1 POP DUP2 DUP2 SUB PUSH1 0x0 DUP4 ADD MSTORE PUSH3 0x1A57 DUP2 PUSH3 0x1A15 JUMP JUMPDEST SWAP1 POP SWAP2 SWAP1 POP JUMP JUMPDEST PUSH1 0x0 PUSH1 0x40 DUP3 ADD SWAP1 POP PUSH3 0x1A75 PUSH1 0x0 DUP4 ADD DUP6 PUSH3 0x14CB JUMP JUMPDEST PUSH3 0x1A84 PUSH1 0x20 DUP4 ADD DUP5 PUSH3 0x14CB JUMP JUMPDEST SWAP4 SWAP3 POP POP POP JUMP JUMPDEST PUSH1 0x0 PUSH3 0x1A98 DUP3 PUSH3 0x1023 JUMP JUMPDEST SWAP2 POP PUSH3 0x1AA5 DUP4 PUSH3 0x1023 JUMP JUMPDEST SWAP3 POP DUP3 DUP3 SUB SWAP1 POP DUP2 DUP2 GT ISZERO PUSH3 0x1AC0 JUMPI PUSH3 0x1ABF PUSH3 0xEA0 JUMP JUMPDEST JUMPDEST SWAP3 SWAP2 POP POP JUMP JUMPDEST PUSH1 0x80 MLOAD PUSH1 0xA0 MLOAD PUSH1 0xC0 MLOAD PUSH1 0xE0 MLOAD PUSH2 0x100 MLOAD PUSH2 0x120 MLOAD PUSH2 0x140 MLOAD PUSH2 0x160 MLOAD PUSH2 0x4324 PUSH3 0x1B2C PUSH1 0x0 CODECOPY PUSH1 0x0 PUSH2 0x696 ADD MSTORE PUSH1 0x0 PUSH2 0x240E ADD MSTORE PUSH1 0x0 PUSH2 0x23ED ADD MSTORE PUSH1 0x0 PUSH2 0x9AB ADD MSTORE PUSH1 0x0 PUSH2 0x977 ADD MSTORE PUSH1 0x0 PUSH2 0x19D2 ADD MSTORE PUSH1 0x0 PUSH2 0x1A28 ADD MSTORE PUSH1 0x0 PUSH2 0x1A51 ADD MSTORE PUSH2 0x4324 PUSH1 0x0 RETURN INVALID PUSH1 0x80 PUSH1 0x40 MSTORE CALLVALUE DUP1 ISZERO PUSH2 0x10 JUMPI PUSH1 0x0 DUP1 REVERT JUMPDEST POP PUSH1 0x4 CALLDATASIZE LT PUSH2 0x18E JUMPI PUSH1 0x0 CALLDATALOAD PUSH1 0xE0 SHR DUP1 PUSH4 0x70A08231 GT PUSH2 0xDE JUMPI DUP1 PUSH4 0x9AB24EB0 GT PUSH2 0x97 JUMPI DUP1 PUSH4 0xC3CDA520 GT PUSH2 0x71 JUMPI DUP1 PUSH4 0xC3CDA520 EQ PUSH2 0x503 JUMPI DUP1 PUSH4 0xD505ACCF EQ PUSH2 0x51F JUMPI DUP1 PUSH4 0xDD62ED3E EQ PUSH2 0x53B JUMPI DUP1 PUSH4 0xF1127ED8 EQ PUSH2 0x56B JUMPI PUSH2 0x18E JUMP JUMPDEST DUP1 PUSH4 0x9AB24EB0 EQ PUSH2 0x473 JUMPI DUP1 PUSH4 0xA457C2D7 EQ PUSH2 0x4A3 JUMPI DUP1 PUSH4 0xA9059CBB EQ PUSH2 0x4D3 JUMPI PUSH2 0x18E JUMP JUMPDEST DUP1 PUSH4 0x70A08231 EQ PUSH2 0x383 JUMPI DUP1 PUSH4 0x7ECEBE00 EQ PUSH2 0x3B3 JUMPI DUP1 PUSH4 0x84B0196E EQ PUSH2 0x3E3 JUMPI DUP1 PUSH4 0x8E539E8C EQ PUSH2 0x407 JUMPI DUP1 PUSH4 0x91DDADF4 EQ PUSH2 0x437 JUMPI DUP1 PUSH4 0x95D89B41 EQ PUSH2 0x455 JUMPI PUSH2 0x18E JUMP JUMPDEST DUP1 PUSH4 0x3644E515 GT PUSH2 0x14B JUMPI DUP1 PUSH4 0x4BF5D7E9 GT PUSH2 0x125 JUMPI DUP1 PUSH4 0x4BF5D7E9 EQ PUSH2 0x2E9 JUMPI DUP1 PUSH4 0x587CDE1E EQ PUSH2 0x307 JUMPI DUP1 PUSH4 0x5C19A95C EQ PUSH2 0x337 JUMPI DUP1 PUSH4 0x6FCFFF45 EQ PUSH2 0x353 JUMPI PUSH2 0x18E JUMP JUMPDEST DUP1 PUSH4 0x3644E515 EQ PUSH2 0x26B JUMPI DUP1 PUSH4 0x39509351 EQ PUSH2 0x289 JUMPI DUP1 PUSH4 0x3A46B1A8 EQ PUSH2 0x2B9 JUMPI PUSH2 0x18E JUMP JUMPDEST DUP1 PUSH4 0x6FDDE03 EQ PUSH2 0x193 JUMPI DUP1 PUSH4 0x95EA7B3 EQ PUSH2 0x1B1 JUMPI DUP1 PUSH4 0x18160DDD EQ PUSH2 0x1E1 JUMPI DUP1 PUSH4 0x23B872DD EQ PUSH2 0x1FF JUMPI DUP1 PUSH4 0x313CE567 EQ PUSH2 0x22F JUMPI DUP1 PUSH4 0x355274EA EQ PUSH2 0x24D JUMPI JUMPDEST PUSH1 0x0 DUP1 REVERT JUMPDEST PUSH2 0x19B PUSH2 0x59B JUMP JUMPDEST PUSH1 0x40 MLOAD PUSH2 0x1A8 SWAP2 SWAP1 PUSH2 0x2ABD JUMP JUMPDEST PUSH1 0x40 MLOAD DUP1 SWAP2 SUB SWAP1 RETURN JUMPDEST PUSH2 0x1CB PUSH1 0x4 DUP1 CALLDATASIZE SUB DUP2 ADD SWAP1 PUSH2 0x1C6 SWAP2 SWAP1 PUSH2 0x2B78 JUMP JUMPDEST PUSH2 0x62D JUMP JUMPDEST PUSH1 0x40 MLOAD PUSH2 0x1D8 SWAP2 SWAP1 PUSH2 0x2BD3 JUMP JUMPDEST PUSH1 0x40 MLOAD DUP1 SWAP2 SUB SWAP1 RETURN JUMPDEST PUSH2 0x1E9 PUSH2 0x650 JUMP JUMPDEST PUSH1 0x40 MLOAD PUSH2 0x1F6 SWAP2 SWAP1 PUSH2 0x2BFD JUMP JUMPDEST PUSH1 0x40 MLOAD DUP1 SWAP2 SUB SWAP1 RETURN JUMPDEST PUSH2 0x219 PUSH1 0x4 DUP1 CALLDATASIZE SUB DUP2 ADD SWAP1 PUSH2 0x214 SWAP2 SWAP1 PUSH2 0x2C18 JUMP JUMPDEST PUSH2 0x65A JUMP JUMPDEST PUSH1 0x40 MLOAD PUSH2 0x226 SWAP2 SWAP1 PUSH2 0x2BD3 JUMP JUMPDEST PUSH1 0x40 MLOAD DUP1 SWAP2 SUB SWAP1 RETURN JUMPDEST PUSH2 0x237 PUSH2 0x689 JUMP JUMPDEST PUSH1 0x40 MLOAD PUSH2 0x244 SWAP2 SWAP1 PUSH2 0x2C87 JUMP JUMPDEST PUSH1 0x40 MLOAD DUP1 SWAP2 SUB SWAP1 RETURN JUMPDEST PUSH2 0x255 PUSH2 0x692 JUMP JUMPDEST PUSH1 0x40 MLOAD PUSH2 0x262 SWAP2 SWAP1 PUSH2 0x2BFD JUMP JUMPDEST PUSH1 0x40 MLOAD DUP1 SWAP2 SUB SWAP1 RETURN JUMPDEST PUSH2 0x273 PUSH2 0x6BA JUMP JUMPDEST PUSH1 0x40 MLOAD PUSH2 0x280 SWAP2 SWAP1 PUSH2 0x2CBB JUMP JUMPDEST PUSH1 0x40 MLOAD DUP1 SWAP2 SUB SWAP1 RETURN JUMPDEST PUSH2 0x2A3 PUSH1 0x4 DUP1 CALLDATASIZE SUB DUP2 ADD SWAP1 PUSH2 0x29E SWAP2 SWAP1 PUSH2 0x2B78 JUMP JUMPDEST PUSH2 0x6C9 JUMP JUMPDEST PUSH1 0x40 MLOAD PUSH2 0x2B0 SWAP2 SWAP1 PUSH2 0x2BD3 JUMP JUMPDEST PUSH1 0x40 MLOAD DUP1 SWAP2 SUB SWAP1 RETURN JUMPDEST PUSH2 0x2D3 PUSH1 0x4 DUP1 CALLDATASIZE SUB DUP2 ADD SWAP1 PUSH2 0x2CE SWAP2 SWAP1 PUSH2 0x2B78 JUMP JUMPDEST PUSH2 0x700 JUMP JUMPDEST PUSH1 0x40 MLOAD PUSH2 0x2E0 SWAP2 SWAP1 PUSH2 0x2BFD JUMP JUMPDEST PUSH1 0x40 MLOAD DUP1 SWAP2 SUB SWAP1 RETURN JUMPDEST PUSH2 0x2F1 PUSH2 0x7A3 JUMP JUMPDEST PUSH1 0x40 MLOAD PUSH2 0x2FE SWAP2 SWAP1 PUSH2 0x2ABD JUMP JUMPDEST PUSH1 0x40 MLOAD DUP1 SWAP2 SUB SWAP1 RETURN JUMPDEST PUSH2 0x321 PUSH1 0x4 DUP1 CALLDATASIZE SUB DUP2 ADD SWAP1 PUSH2 0x31C SWAP2 SWAP1 PUSH2 0x2CD6 JUMP JUMPDEST PUSH2 0x7FB JUMP JUMPDEST PUSH1 0x40 MLOAD PUSH2 0x32E SWAP2 SWAP1 PUSH2 0x2D12 JUMP JUMPDEST PUSH1 0x40 MLOAD DUP1 SWAP2 SUB SWAP1 RETURN JUMPDEST PUSH2 0x351 PUSH1 0x4 DUP1 CALLDATASIZE SUB DUP2 ADD SWAP1 PUSH2 0x34C SWAP2 SWAP1 PUSH2 0x2CD6 JUMP JUMPDEST PUSH2 0x864 JUMP JUMPDEST STOP JUMPDEST PUSH2 0x36D PUSH1 0x4 DUP1 CALLDATASIZE SUB DUP2 ADD SWAP1 PUSH2 0x368 SWAP2 SWAP1 PUSH2 0x2CD6 JUMP JUMPDEST PUSH2 0x878 JUMP JUMPDEST PUSH1 0x40 MLOAD PUSH2 0x37A SWAP2 SWAP1 PUSH2 0x2D4C JUMP JUMPDEST PUSH1 0x40 MLOAD DUP1 SWAP2 SUB SWAP1 RETURN JUMPDEST PUSH2 0x39D PUSH1 0x4 DUP1 CALLDATASIZE SUB DUP2 ADD SWAP1 PUSH2 0x398 SWAP2 SWAP1 PUSH2 0x2CD6 JUMP JUMPDEST PUSH2 0x8CC JUMP JUMPDEST PUSH1 0x40 MLOAD PUSH2 0x3AA SWAP2 SWAP1 PUSH2 0x2BFD JUMP JUMPDEST PUSH1 0x40 MLOAD DUP1 SWAP2 SUB SWAP1 RETURN JUMPDEST PUSH2 0x3CD PUSH1 0x4 DUP1 CALLDATASIZE SUB DUP2 ADD SWAP1 PUSH2 0x3C8 SWAP2 SWAP1 PUSH2 0x2CD6 JUMP JUMPDEST PUSH2 0x914 JUMP JUMPDEST PUSH1 0x40 MLOAD PUSH2 0x3DA SWAP2 SWAP1 PUSH2 0x2BFD JUMP JUMPDEST PUSH1 0x40 MLOAD DUP1 SWAP2 SUB SWAP1 RETURN JUMPDEST PUSH2 0x3EB PUSH2 0x964 JUMP JUMPDEST PUSH1 0x40 MLOAD PUSH2 0x3FE SWAP8 SWAP7 SWAP6 SWAP5 SWAP4 SWAP3 SWAP2 SWAP1 PUSH2 0x2E60 JUMP JUMPDEST PUSH1 0x40 MLOAD DUP1 SWAP2 SUB SWAP1 RETURN JUMPDEST PUSH2 0x421 PUSH1 0x4 DUP1 CALLDATASIZE SUB DUP2 ADD SWAP1 PUSH2 0x41C SWAP2 SWAP1 PUSH2 0x2EE4 JUMP JUMPDEST PUSH2 0xA66 JUMP JUMPDEST PUSH1 0x40 MLOAD PUSH2 0x42E SWAP2 SWAP1 PUSH2 0x2BFD JUMP JUMPDEST PUSH1 0x40 MLOAD DUP1 SWAP2 SUB SWAP1 RETURN JUMPDEST PUSH2 0x43F PUSH2 0xACB JUMP JUMPDEST PUSH1 0x40 MLOAD PUSH2 0x44C SWAP2 SWAP1 PUSH2 0x2F32 JUMP JUMPDEST PUSH1 0x40 MLOAD DUP1 SWAP2 SUB SWAP1 RETURN JUMPDEST PUSH2 0x45D PUSH2 0xADB JUMP JUMPDEST PUSH1 0x40 MLOAD PUSH2 0x46A SWAP2 SWAP1 PUSH2 0x2ABD JUMP JUMPDEST PUSH1 0x40 MLOAD DUP1 SWAP2 SUB SWAP1 RETURN JUMPDEST PUSH2 0x48D PUSH1 0x4 DUP1 CALLDATASIZE SUB DUP2 ADD SWAP1 PUSH2 0x488 SWAP2 SWAP1 PUSH2 0x2CD6 JUMP JUMPDEST PUSH2 0xB6D JUMP JUMPDEST PUSH1 0x40 MLOAD PUSH2 0x49A SWAP2 SWAP1 PUSH2 0x2BFD JUMP JUMPDEST PUSH1 0x40 MLOAD DUP1 SWAP2 SUB SWAP1 RETURN JUMPDEST PUSH2 0x4BD PUSH1 0x4 DUP1 CALLDATASIZE SUB DUP2 ADD SWAP1 PUSH2 0x4B8 SWAP2 SWAP1 PUSH2 0x2B78 JUMP JUMPDEST PUSH2 0xC75 JUMP JUMPDEST PUSH1 0x40 MLOAD PUSH2 0x4CA SWAP2 SWAP1 PUSH2 0x2BD3 JUMP JUMPDEST PUSH1 0x40 MLOAD DUP1 SWAP2 SUB SWAP1 RETURN JUMPDEST PUSH2 0x4ED PUSH1 0x4 DUP1 CALLDATASIZE SUB DUP2 ADD SWAP1 PUSH2 0x4E8 SWAP2 SWAP1 PUSH2 0x2B78 JUMP JUMPDEST PUSH2 0xCEC JUMP JUMPDEST PUSH1 0x40 MLOAD PUSH2 0x4FA SWAP2 SWAP1 PUSH2 0x2BD3 JUMP JUMPDEST PUSH1 0x40 MLOAD DUP1 SWAP2 SUB SWAP1 RETURN JUMPDEST PUSH2 0x51D PUSH1 0x4 DUP1 CALLDATASIZE SUB DUP2 ADD SWAP1 PUSH2 0x518 SWAP2 SWAP1 PUSH2 0x2FA5 JUMP JUMPDEST PUSH2 0xD0F JUMP JUMPDEST STOP JUMPDEST PUSH2 0x539 PUSH1 0x4 DUP1 CALLDATASIZE SUB DUP2 ADD SWAP1 PUSH2 0x534 SWAP2 SWAP1 PUSH2 0x3032 JUMP JUMPDEST PUSH2 0xE13 JUMP JUMPDEST STOP JUMPDEST PUSH2 0x555 PUSH1 0x4 DUP1 CALLDATASIZE SUB DUP2 ADD SWAP1 PUSH2 0x550 SWAP2 SWAP1 PUSH2 0x30D4 JUMP JUMPDEST PUSH2 0xF55 JUMP JUMPDEST PUSH1 0x40 MLOAD PUSH2 0x562 SWAP2 SWAP1 PUSH2 0x2BFD JUMP JUMPDEST PUSH1 0x40 MLOAD DUP1 SWAP2 SUB SWAP1 RETURN JUMPDEST PUSH2 0x585 PUSH1 0x4 DUP1 CALLDATASIZE SUB DUP2 ADD SWAP1 PUSH2 0x580 SWAP2 SWAP1 PUSH2 0x3140 JUMP JUMPDEST PUSH2 0xFDC JUMP JUMPDEST PUSH1 0x40 MLOAD PUSH2 0x592 SWAP2 SWAP1 PUSH2 0x31F5 JUMP JUMPDEST PUSH1 0x40 MLOAD DUP1 SWAP2 SUB SWAP1 RETURN JUMPDEST PUSH1 0x60 PUSH1 0x3 DUP1 SLOAD PUSH2 0x5AA SWAP1 PUSH2 0x323F JUMP JUMPDEST DUP1 PUSH1 0x1F ADD PUSH1 0x20 DUP1 SWAP2 DIV MUL PUSH1 0x20 ADD PUSH1 0x40 MLOAD SWAP1 DUP2 ADD PUSH1 0x40 MSTORE DUP1 SWAP3 SWAP2 SWAP1 DUP2 DUP2 MSTORE PUSH1 0x20 ADD DUP3 DUP1 SLOAD PUSH2 0x5D6 SWAP1 PUSH2 0x323F JUMP JUMPDEST DUP1 ISZERO PUSH2 0x623 JUMPI DUP1 PUSH1 0x1F LT PUSH2 0x5F8 JUMPI PUSH2 0x100 DUP1 DUP4 SLOAD DIV MUL DUP4 MSTORE SWAP2 PUSH1 0x20 ADD SWAP2 PUSH2 0x623 JUMP JUMPDEST DUP3 ADD SWAP2 SWAP1 PUSH1 0x0 MSTORE PUSH1 0x20 PUSH1 0x0 KECCAK256 SWAP1 JUMPDEST DUP2 SLOAD DUP2 MSTORE SWAP1 PUSH1 0x1 ADD SWAP1 PUSH1 0x20 ADD DUP1 DUP4 GT PUSH2 0x606 JUMPI DUP3 SWAP1 SUB PUSH1 0x1F AND DUP3 ADD SWAP2 JUMPDEST POP POP POP POP POP SWAP1 POP SWAP1 JUMP JUMPDEST PUSH1 0x0 DUP1 PUSH2 0x638 PUSH2 0x14FB JUMP JUMPDEST SWAP1 POP PUSH2 0x645 DUP2 DUP6 DUP6 PUSH2 0x1503 JUMP JUMPDEST PUSH1 0x1 SWAP2 POP POP SWAP3 SWAP2 POP POP JUMP JUMPDEST PUSH1 0x0 PUSH1 0x2 SLOAD SWAP1 POP SWAP1 JUMP JUMPDEST PUSH1 0x0 DUP1 PUSH2 0x665 PUSH2 0x14FB JUMP JUMPDEST SWAP1 POP PUSH2 0x672 DUP6 DUP3 DUP6 PUSH2 0x16CC JUMP JUMPDEST PUSH2 0x67D DUP6 DUP6 DUP6 PUSH2 0x1758 JUMP JUMPDEST PUSH1 0x1 SWAP2 POP POP SWAP4 SWAP3 POP POP POP JUMP JUMPDEST PUSH1 0x0 PUSH1 0x12 SWAP1 POP SWAP1 JUMP JUMPDEST PUSH1 0x0 PUSH32 0x0 SWAP1 POP SWAP1 JUMP JUMPDEST PUSH1 0x0 PUSH2 0x6C4 PUSH2 0x19CE JUMP JUMPDEST SWAP1 POP SWAP1 JUMP JUMPDEST PUSH1 0x0 DUP1 PUSH2 0x6D4 PUSH2 0x14FB JUMP JUMPDEST SWAP1 POP PUSH2 0x6F5 DUP2 DUP6 DUP6 PUSH2 0x6E6 DUP6 DUP10 PUSH2 0xF55 JUMP JUMPDEST PUSH2 0x6F0 SWAP2 SWAP1 PUSH2 0x329F JUMP JUMPDEST PUSH2 0x1503 JUMP JUMPDEST PUSH1 0x1 SWAP2 POP POP SWAP3 SWAP2 POP POP JUMP JUMPDEST PUSH1 0x0 PUSH2 0x70A PUSH2 0xACB JUMP JUMPDEST PUSH6 0xFFFFFFFFFFFF AND DUP3 LT PUSH2 0x753 JUMPI PUSH1 0x40 MLOAD PUSH32 0x8C379A000000000000000000000000000000000000000000000000000000000 DUP2 MSTORE PUSH1 0x4 ADD PUSH2 0x74A SWAP1 PUSH2 0x331F JUMP JUMPDEST PUSH1 0x40 MLOAD DUP1 SWAP2 SUB SWAP1 REVERT JUMPDEST PUSH2 0x79B PUSH1 0xA PUSH1 0x0 DUP6 PUSH20 0xFFFFFFFFFFFFFFFFFFFFFFFFFFFFFFFFFFFFFFFF AND PUSH20 0xFFFFFFFFFFFFFFFFFFFFFFFFFFFFFFFFFFFFFFFF AND DUP2 MSTORE PUSH1 0x20 ADD SWAP1 DUP2 MSTORE PUSH1 0x20 ADD PUSH1 0x0 KECCAK256 DUP4 PUSH2 0x1A85 JUMP JUMPDEST SWAP1 POP SWAP3 SWAP2 POP POP JUMP JUMPDEST PUSH1 0x60 NUMBER PUSH2 0x7AE PUSH2 0xACB JUMP JUMPDEST PUSH6 0xFFFFFFFFFFFF AND EQ PUSH2 0x7C0 JUMPI PUSH1 0x0 DUP1 REVERT JUMPDEST PUSH1 0x40 MLOAD DUP1 PUSH1 0x40 ADD PUSH1 0x40 MSTORE DUP1 PUSH1 0x1D DUP2 MSTORE PUSH1 0x20 ADD PUSH32 0x6D6F64653D626C6F636B6E756D6265722666726F6D3D64656661756C74000000 DUP2 MSTORE POP SWAP1 POP SWAP1 JUMP JUMPDEST PUSH1 0x0 PUSH1 0x9 PUSH1 0x0 DUP4 PUSH20 0xFFFFFFFFFFFFFFFFFFFFFFFFFFFFFFFFFFFFFFFF AND PUSH20 0xFFFFFFFFFFFFFFFFFFFFFFFFFFFFFFFFFFFFFFFF AND DUP2 MSTORE PUSH1 0x20 ADD SWAP1 DUP2 MSTORE PUSH1 0x20 ADD PUSH1 0x0 KECCAK256 PUSH1 0x0 SWAP1 SLOAD SWAP1 PUSH2 0x100 EXP SWAP1 DIV PUSH20 0xFFFFFFFFFFFFFFFFFFFFFFFFFFFFFFFFFFFFFFFF AND SWAP1 POP SWAP2 SWAP1 POP JUMP JUMPDEST PUSH2 0x875 PUSH2 0x86F PUSH2 0x14FB JUMP JUMPDEST DUP3 PUSH2 0x1BCD JUMP JUMPDEST POP JUMP JUMPDEST PUSH1 0x0 PUSH2 0x8C5 PUSH1 0xA PUSH1 0x0 DUP5 PUSH20 0xFFFFFFFFFFFFFFFFFFFFFFFFFFFFFFFFFFFFFFFF AND PUSH20 0xFFFFFFFFFFFFFFFFFFFFFFFFFFFFFFFFFFFFFFFF AND DUP2 MSTORE PUSH1 0x20 ADD SWAP1 DUP2 MSTORE PUSH1 0x20 ADD PUSH1 0x0 KECCAK256 DUP1 SLOAD SWAP1 POP PUSH2 0x1408 JUMP JUMPDEST SWAP1 POP SWAP2 SWAP1 POP JUMP JUMPDEST PUSH1 0x0 DUP1 PUSH1 0x0 DUP4 PUSH20 0xFFFFFFFFFFFFFFFFFFFFFFFFFFFFFFFFFFFFFFFF AND PUSH20 0xFFFFFFFFFFFFFFFFFFFFFFFFFFFFFFFFFFFFFFFF AND DUP2 MSTORE PUSH1 0x20 ADD SWAP1 DUP2 MSTORE PUSH1 0x20 ADD PUSH1 0x0 KECCAK256 SLOAD SWAP1 POP SWAP2 SWAP1 POP JUMP JUMPDEST PUSH1 0x0 PUSH2 0x95D PUSH1 0x7 PUSH1 0x0 DUP5 PUSH20 0xFFFFFFFFFFFFFFFFFFFFFFFFFFFFFFFFFFFFFFFF AND PUSH20 0xFFFFFFFFFFFFFFFFFFFFFFFFFFFFFFFFFFFFFFFF AND DUP2 MSTORE PUSH1 0x20 ADD SWAP1 DUP2 MSTORE PUSH1 0x20 ADD PUSH1 0x0 KECCAK256 PUSH2 0x1CE7 JUMP JUMPDEST SWAP1 POP SWAP2 SWAP1 POP JUMP JUMPDEST PUSH1 0x0 PUSH1 0x60 DUP1 PUSH1 0x0 DUP1 PUSH1 0x0 PUSH1 0x60 PUSH2 0x9A4 PUSH1 0x5 PUSH32 0x0 PUSH2 0x1CF5 SWAP1 SWAP2 SWAP1 PUSH4 0xFFFFFFFF AND JUMP JUMPDEST PUSH2 0x9D8 PUSH1 0x6 PUSH32 0x0 PUSH2 0x1CF5 SWAP1 SWAP2 SWAP1 PUSH4 0xFFFFFFFF AND JUMP JUMPDEST CHAINID ADDRESS PUSH1 0x0 DUP1 SHL PUSH1 0x0 PUSH8 0xFFFFFFFFFFFFFFFF DUP2 GT ISZERO PUSH2 0x9F9 JUMPI PUSH2 0x9F8 PUSH2 0x333F JUMP JUMPDEST JUMPDEST PUSH1 0x40 MLOAD SWAP1 DUP1 DUP3 MSTORE DUP1 PUSH1 0x20 MUL PUSH1 0x20 ADD DUP3 ADD PUSH1 0x40 MSTORE DUP1 ISZERO PUSH2 0xA27 JUMPI DUP2 PUSH1 0x20 ADD PUSH1 0x20 DUP3 MUL DUP1 CALLDATASIZE DUP4 CALLDATACOPY DUP1 DUP3 ADD SWAP2 POP POP SWAP1 POP JUMPDEST POP PUSH32 0xF00000000000000000000000000000000000000000000000000000000000000 SWAP6 SWAP5 SWAP4 SWAP3 SWAP2 SWAP1 SWAP7 POP SWAP7 POP SWAP7 POP SWAP7 POP SWAP7 POP SWAP7 POP SWAP7 POP SWAP1 SWAP2 SWAP3 SWAP4 SWAP5 SWAP6 SWAP7 JUMP JUMPDEST PUSH1 0x0 PUSH2 0xA70 PUSH2 0xACB JUMP JUMPDEST PUSH6 0xFFFFFFFFFFFF AND DUP3 LT PUSH2 0xAB9 JUMPI PUSH1 0x40 MLOAD PUSH32 0x8C379A000000000000000000000000000000000000000000000000000000000 DUP2 MSTORE PUSH1 0x4 ADD PUSH2 0xAB0 SWAP1 PUSH2 0x331F JUMP JUMPDEST PUSH1 0x40 MLOAD DUP1 SWAP2 SUB SWAP1 REVERT JUMPDEST PUSH2 0xAC4 PUSH1 0xB DUP4 PUSH2 0x1A85 JUMP JUMPDEST SWAP1 POP SWAP2 SWAP1 POP JUMP JUMPDEST PUSH1 0x0 PUSH2 0xAD6 NUMBER PUSH2 0x148B JUMP JUMPDEST SWAP1 POP SWAP1 JUMP JUMPDEST PUSH1 0x60 PUSH1 0x4 DUP1 SLOAD PUSH2 0xAEA SWAP1 PUSH2 0x323F JUMP JUMPDEST DUP1 PUSH1 0x1F ADD PUSH1 0x20 DUP1 SWAP2 DIV MUL PUSH1 0x20 ADD PUSH1 0x40 MLOAD SWAP1 DUP2 ADD PUSH1 0x40 MSTORE DUP1 SWAP3 SWAP2 SWAP1 DUP2 DUP2 MSTORE PUSH1 0x20 ADD DUP3 DUP1 SLOAD PUSH2 0xB16 SWAP1 PUSH2 0x323F JUMP JUMPDEST DUP1 ISZERO PUSH2 0xB63 JUMPI DUP1 PUSH1 0x1F LT PUSH2 0xB38 JUMPI PUSH2 0x100 DUP1 DUP4 SLOAD DIV MUL DUP4 MSTORE SWAP2 PUSH1 0x20 ADD SWAP2 PUSH2 0xB63 JUMP JUMPDEST DUP3 ADD SWAP2 SWAP1 PUSH1 0x0 MSTORE PUSH1 0x20 PUSH1 0x0 KECCAK256 SWAP1 JUMPDEST DUP2 SLOAD DUP2 MSTORE SWAP1 PUSH1 0x1 ADD SWAP1 PUSH1 0x20 ADD DUP1 DUP4 GT PUSH2 0xB46 JUMPI DUP3 SWAP1 SUB PUSH1 0x1F AND DUP3 ADD SWAP2 JUMPDEST POP POP POP POP POP SWAP1 POP SWAP1 JUMP JUMPDEST PUSH1 0x0 DUP1 PUSH1 0xA PUSH1 0x0 DUP5 PUSH20 0xFFFFFFFFFFFFFFFFFFFFFFFFFFFFFFFFFFFFFFFF AND PUSH20 0xFFFFFFFFFFFFFFFFFFFFFFFFFFFFFFFFFFFFFFFF AND DUP2 MSTORE PUSH1 0x20 ADD SWAP1 DUP2 MSTORE PUSH1 0x20 ADD PUSH1 0x0 KECCAK256 DUP1 SLOAD SWAP1 POP SWAP1 POP PUSH1 0x0 DUP2 EQ PUSH2 0xC4C JUMPI PUSH1 0xA PUSH1 0x0 DUP5 PUSH20 0xFFFFFFFFFFFFFFFFFFFFFFFFFFFFFFFFFFFFFFFF AND PUSH20 0xFFFFFFFFFFFFFFFFFFFFFFFFFFFFFFFFFFFFFFFF AND DUP2 MSTORE PUSH1 0x20 ADD SWAP1 DUP2 MSTORE PUSH1 0x20 ADD PUSH1 0x0 KECCAK256 PUSH1 0x1 DUP3 SUB DUP2 SLOAD DUP2 LT PUSH2 0xC11 JUMPI PUSH2 0xC10 PUSH2 0x336E JUMP JUMPDEST JUMPDEST SWAP1 PUSH1 0x0 MSTORE PUSH1 0x20 PUSH1 0x0 KECCAK256 ADD PUSH1 0x0 ADD PUSH1 0x4 SWAP1 SLOAD SWAP1 PUSH2 0x100 EXP SWAP1 DIV PUSH28 0xFFFFFFFFFFFFFFFFFFFFFFFFFFFFFFFFFFFFFFFFFFFFFFFFFFFFFFFF AND PUSH2 0xC4F JUMP JUMPDEST PUSH1 0x0 JUMPDEST PUSH28 0xFFFFFFFFFFFFFFFFFFFFFFFFFFFFFFFFFFFFFFFFFFFFFFFFFFFFFFFF AND SWAP2 POP POP SWAP2 SWAP1 POP JUMP JUMPDEST PUSH1 0x0 DUP1 PUSH2 0xC80 PUSH2 0x14FB JUMP JUMPDEST SWAP1 POP PUSH1 0x0 PUSH2 0xC8E DUP3 DUP7 PUSH2 0xF55 JUMP JUMPDEST SWAP1 POP DUP4 DUP2 LT ISZERO PUSH2 0xCD3 JUMPI PUSH1 0x40 MLOAD PUSH32 0x8C379A000000000000000000000000000000000000000000000000000000000 DUP2 MSTORE PUSH1 0x4 ADD PUSH2 0xCCA SWAP1 PUSH2 0x340F JUMP JUMPDEST PUSH1 0x40 MLOAD DUP1 SWAP2 SUB SWAP1 REVERT JUMPDEST PUSH2 0xCE0 DUP3 DUP7 DUP7 DUP5 SUB PUSH2 0x1503 JUMP JUMPDEST PUSH1 0x1 SWAP3 POP POP POP SWAP3 SWAP2 POP POP JUMP JUMPDEST PUSH1 0x0 DUP1 PUSH2 0xCF7 PUSH2 0x14FB JUMP JUMPDEST SWAP1 POP PUSH2 0xD04 DUP2 DUP6 DUP6 PUSH2 0x1758 JUMP JUMPDEST PUSH1 0x1 SWAP2 POP POP SWAP3 SWAP2 POP POP JUMP JUMPDEST DUP4 TIMESTAMP GT ISZERO PUSH2 0xD52 JUMPI PUSH1 0x40 MLOAD PUSH32 0x8C379A000000000000000000000000000000000000000000000000000000000 DUP2 MSTORE PUSH1 0x4 ADD PUSH2 0xD49 SWAP1 PUSH2 0x347B JUMP JUMPDEST PUSH1 0x40 MLOAD DUP1 SWAP2 SUB SWAP1 REVERT JUMPDEST PUSH1 0x0 PUSH2 0xDB4 PUSH2 0xDAC PUSH32 0xE48329057BFD03D55E49B547132E39CFFD9C1820AD7B9D4C5307691425D15ADF DUP10 DUP10 DUP10 PUSH1 0x40 MLOAD PUSH1 0x20 ADD PUSH2 0xD91 SWAP5 SWAP4 SWAP3 SWAP2 SWAP1 PUSH2 0x349B JUMP JUMPDEST PUSH1 0x40 MLOAD PUSH1 0x20 DUP2 DUP4 SUB SUB DUP2 MSTORE SWAP1 PUSH1 0x40 MSTORE DUP1 MLOAD SWAP1 PUSH1 0x20 ADD KECCAK256 PUSH2 0x1DA5 JUMP JUMPDEST DUP6 DUP6 DUP6 PUSH2 0x1DBF JUMP JUMPDEST SWAP1 POP PUSH2 0xDBF DUP2 PUSH2 0x1DEA JUMP JUMPDEST DUP7 EQ PUSH2 0xE00 JUMPI PUSH1 0x40 MLOAD PUSH32 0x8C379A000000000000000000000000000000000000000000000000000000000 DUP2 MSTORE PUSH1 0x4 ADD PUSH2 0xDF7 SWAP1 PUSH2 0x352C JUMP JUMPDEST PUSH1 0x40 MLOAD DUP1 SWAP2 SUB SWAP1 REVERT JUMPDEST PUSH2 0xE0A DUP2 DUP9 PUSH2 0x1BCD JUMP JUMPDEST POP POP POP POP POP POP POP JUMP JUMPDEST DUP4 TIMESTAMP GT ISZERO PUSH2 0xE56 JUMPI PUSH1 0x40 MLOAD PUSH32 0x8C379A000000000000000000000000000000000000000000000000000000000 DUP2 MSTORE PUSH1 0x4 ADD PUSH2 0xE4D SWAP1 PUSH2 0x3598 JUMP JUMPDEST PUSH1 0x40 MLOAD DUP1 SWAP2 SUB SWAP1 REVERT JUMPDEST PUSH1 0x0 PUSH32 0x6E71EDAE12B1B97F4D1F60370FEF10105FA2FAAE0126114A169C64845D6126C9 DUP9 DUP9 DUP9 PUSH2 0xE85 DUP13 PUSH2 0x1DEA JUMP JUMPDEST DUP10 PUSH1 0x40 MLOAD PUSH1 0x20 ADD PUSH2 0xE9B SWAP7 SWAP6 SWAP5 SWAP4 SWAP3 SWAP2 SWAP1 PUSH2 0x35B8 JUMP JUMPDEST PUSH1 0x40 MLOAD PUSH1 0x20 DUP2 DUP4 SUB SUB DUP2 MSTORE SWAP1 PUSH1 0x40 MSTORE DUP1 MLOAD SWAP1 PUSH1 0x20 ADD KECCAK256 SWAP1 POP PUSH1 0x0 PUSH2 0xEBE DUP3 PUSH2 0x1DA5 JUMP JUMPDEST SWAP1 POP PUSH1 0x0 PUSH2 0xECE DUP3 DUP8 DUP8 DUP8 PUSH2 0x1DBF JUMP JUMPDEST SWAP1 POP DUP10 PUSH20 0xFFFFFFFFFFFFFFFFFFFFFFFFFFFFFFFFFFFFFFFF AND DUP2 PUSH20 0xFFFFFFFFFFFFFFFFFFFFFFFFFFFFFFFFFFFFFFFF AND EQ PUSH2 0xF3E JUMPI PUSH1 0x40 MLOAD PUSH32 0x8C379A000000000000000000000000000000000000000000000000000000000 DUP2 MSTORE PUSH1 0x4 ADD PUSH2 0xF35 SWAP1 PUSH2 0x3665 JUMP JUMPDEST PUSH1 0x40 MLOAD DUP1 SWAP2 SUB SWAP1 REVERT JUMPDEST PUSH2 0xF49 DUP11 DUP11 DUP11 PUSH2 0x1503 JUMP JUMPDEST POP POP POP POP POP POP POP POP POP POP JUMP JUMPDEST PUSH1 0x0 PUSH1 0x1 PUSH1 0x0 DUP5 PUSH20 0xFFFFFFFFFFFFFFFFFFFFFFFFFFFFFFFFFFFFFFFF AND PUSH20 0xFFFFFFFFFFFFFFFFFFFFFFFFFFFFFFFFFFFFFFFF AND DUP2 MSTORE PUSH1 0x20 ADD SWAP1 DUP2 MSTORE PUSH1 0x20 ADD PUSH1 0x0 KECCAK256 PUSH1 0x0 DUP4 PUSH20 0xFFFFFFFFFFFFFFFFFFFFFFFFFFFFFFFFFFFFFFFF AND PUSH20 0xFFFFFFFFFFFFFFFFFFFFFFFFFFFFFFFFFFFFFFFF AND DUP2 MSTORE PUSH1 0x20 ADD SWAP1 DUP2 MSTORE PUSH1 0x20 ADD PUSH1 0x0 KECCAK256 SLOAD SWAP1 POP SWAP3 SWAP2 POP POP JUMP JUMPDEST PUSH2 0xFE4 PUSH2 0x29EF JUMP JUMPDEST PUSH1 0xA PUSH1 0x0 DUP5 PUSH20 0xFFFFFFFFFFFFFFFFFFFFFFFFFFFFFFFFFFFFFFFF AND PUSH20 0xFFFFFFFFFFFFFFFFFFFFFFFFFFFFFFFFFFFFFFFF AND DUP2 MSTORE PUSH1 0x20 ADD SWAP1 DUP2 MSTORE PUSH1 0x20 ADD PUSH1 0x0 KECCAK256 DUP3 PUSH4 0xFFFFFFFF AND DUP2 SLOAD DUP2 LT PUSH2 0x103B JUMPI PUSH2 0x103A PUSH2 0x336E JUMP JUMPDEST JUMPDEST SWAP1 PUSH1 0x0 MSTORE PUSH1 0x20 PUSH1 0x0 KECCAK256 ADD PUSH1 0x40 MLOAD DUP1 PUSH1 0x40 ADD PUSH1 0x40 MSTORE SWAP1 DUP2 PUSH1 0x0 DUP3 ADD PUSH1 0x0 SWAP1 SLOAD SWAP1 PUSH2 0x100 EXP SWAP1 DIV PUSH4 0xFFFFFFFF AND PUSH4 0xFFFFFFFF AND PUSH4 0xFFFFFFFF AND DUP2 MSTORE PUSH1 0x20 ADD PUSH1 0x0 DUP3 ADD PUSH1 0x4 SWAP1 SLOAD SWAP1 PUSH2 0x100 EXP SWAP1 DIV PUSH28 0xFFFFFFFFFFFFFFFFFFFFFFFFFFFFFFFFFFFFFFFFFFFFFFFFFFFFFFFF AND PUSH28 0xFFFFFFFFFFFFFFFFFFFFFFFFFFFFFFFFFFFFFFFFFFFFFFFFFFFFFFFF AND PUSH28 0xFFFFFFFFFFFFFFFFFFFFFFFFFFFFFFFFFFFFFFFFFFFFFFFFFFFFFFFF AND DUP2 MSTORE POP POP SWAP1 POP SWAP3 SWAP2 POP POP JUMP JUMPDEST PUSH1 0x0 PUSH1 0x20 DUP4 MLOAD LT ISZERO PUSH2 0x1108 JUMPI PUSH2 0x1101 DUP4 PUSH2 0x1E48 JUMP JUMPDEST SWAP1 POP PUSH2 0x112A JUMP JUMPDEST DUP3 PUSH2 0x1112 DUP4 PUSH2 0x1130 JUMP JUMPDEST PUSH1 0x0 ADD SWAP1 DUP2 PUSH2 0x1121 SWAP2 SWAP1 PUSH2 0x3831 JUMP JUMPDEST POP PUSH1 0xFF PUSH1 0x0 SHL SWAP1 POP JUMPDEST SWAP3 SWAP2 POP POP JUMP JUMPDEST PUSH1 0x0 DUP2 SWAP1 POP SWAP2 SWAP1 POP JUMP JUMPDEST PUSH2 0x1142 PUSH2 0x692 JUMP JUMPDEST DUP2 PUSH2 0x114B PUSH2 0x650 JUMP JUMPDEST PUSH2 0x1155 SWAP2 SWAP1 PUSH2 0x329F JUMP JUMPDEST GT ISZERO PUSH2 0x1196 JUMPI PUSH1 0x40 MLOAD PUSH32 0x8C379A000000000000000000000000000000000000000000000000000000000 DUP2 MSTORE PUSH1 0x4 ADD PUSH2 0x118D SWAP1 PUSH2 0x394F JUMP JUMPDEST PUSH1 0x40 MLOAD DUP1 SWAP2 SUB SWAP1 REVERT JUMPDEST PUSH2 0x11A0 DUP3 DUP3 PUSH2 0x11A4 JUMP JUMPDEST POP POP JUMP JUMPDEST PUSH2 0x11AE DUP3 DUP3 PUSH2 0x1231 JUMP JUMPDEST PUSH2 0x11B6 PUSH2 0x1EB0 JUMP JUMPDEST PUSH28 0xFFFFFFFFFFFFFFFFFFFFFFFFFFFFFFFFFFFFFFFFFFFFFFFFFFFFFFFF AND PUSH2 0x11DC PUSH2 0x650 JUMP JUMPDEST GT ISZERO PUSH2 0x121D JUMPI PUSH1 0x40 MLOAD PUSH32 0x8C379A000000000000000000000000000000000000000000000000000000000 DUP2 MSTORE PUSH1 0x4 ADD PUSH2 0x1214 SWAP1 PUSH2 0x39E1 JUMP JUMPDEST PUSH1 0x40 MLOAD DUP1 SWAP2 SUB SWAP1 REVERT JUMPDEST PUSH2 0x122B PUSH1 0xB PUSH2 0x1387 DUP4 PUSH2 0x1ED4 JUMP JUMPDEST POP POP POP POP JUMP JUMPDEST PUSH1 0x0 PUSH20 0xFFFFFFFFFFFFFFFFFFFFFFFFFFFFFFFFFFFFFFFF AND DUP3 PUSH20 0xFFFFFFFFFFFFFFFFFFFFFFFFFFFFFFFFFFFFFFFF AND SUB PUSH2 0x12A0 JUMPI PUSH1 0x40 MLOAD PUSH32 0x8C379A000000000000000000000000000000000000000000000000000000000 DUP2 MSTORE PUSH1 0x4 ADD PUSH2 0x1297 SWAP1 PUSH2 0x3A4D JUMP JUMPDEST PUSH1 0x40 MLOAD DUP1 SWAP2 SUB SWAP1 REVERT JUMPDEST PUSH2 0x12AC PUSH1 0x0 DUP4 DUP4 PUSH2 0x21AF JUMP JUMPDEST DUP1 PUSH1 0x2 PUSH1 0x0 DUP3 DUP3 SLOAD PUSH2 0x12BE SWAP2 SWAP1 PUSH2 0x329F JUMP JUMPDEST SWAP3 POP POP DUP2 SWAP1 SSTORE POP DUP1 PUSH1 0x0 DUP1 DUP5 PUSH20 0xFFFFFFFFFFFFFFFFFFFFFFFFFFFFFFFFFFFFFFFF AND PUSH20 0xFFFFFFFFFFFFFFFFFFFFFFFFFFFFFFFFFFFFFFFF AND DUP2 MSTORE PUSH1 0x20 ADD SWAP1 DUP2 MSTORE PUSH1 0x20 ADD PUSH1 0x0 KECCAK256 PUSH1 0x0 DUP3 DUP3 SLOAD ADD SWAP3 POP POP DUP2 SWAP1 SSTORE POP DUP2 PUSH20 0xFFFFFFFFFFFFFFFFFFFFFFFFFFFFFFFFFFFFFFFF AND PUSH1 0x0 PUSH20 0xFFFFFFFFFFFFFFFFFFFFFFFFFFFFFFFFFFFFFFFF AND PUSH32 0xDDF252AD1BE2C89B69C2B068FC378DAA952BA7F163C4A11628F55A4DF523B3EF DUP4 PUSH1 0x40 MLOAD PUSH2 0x136F SWAP2 SWAP1 PUSH2 0x2BFD JUMP JUMPDEST PUSH1 0x40 MLOAD DUP1 SWAP2 SUB SWAP1 LOG3 PUSH2 0x1383 PUSH1 0x0 DUP4 DUP4 PUSH2 0x21BF JUMP JUMPDEST POP POP JUMP JUMPDEST PUSH1 0x0 DUP2 DUP4 PUSH2 0x1395 SWAP2 SWAP1 PUSH2 0x329F JUMP JUMPDEST SWAP1 POP SWAP3 SWAP2 POP POP JUMP JUMPDEST PUSH1 0x0 PUSH28 0xFFFFFFFFFFFFFFFFFFFFFFFFFFFFFFFFFFFFFFFFFFFFFFFFFFFFFFFF DUP1 AND DUP3 GT ISZERO PUSH2 0x1400 JUMPI PUSH1 0x40 MLOAD PUSH32 0x8C379A000000000000000000000000000000000000000000000000000000000 DUP2 MSTORE PUSH1 0x4 ADD PUSH2 0x13F7 SWAP1 PUSH2 0x3ADF JUMP JUMPDEST PUSH1 0x40 MLOAD DUP1 SWAP2 SUB SWAP1 REVERT JUMPDEST DUP2 SWAP1 POP SWAP2 SWAP1 POP JUMP JUMPDEST PUSH1 0x0 PUSH4 0xFFFFFFFF DUP1 AND DUP3 GT ISZERO PUSH2 0x1453 JUMPI PUSH1 0x40 MLOAD PUSH32 0x8C379A000000000000000000000000000000000000000000000000000000000 DUP2 MSTORE PUSH1 0x4 ADD PUSH2 0x144A SWAP1 PUSH2 0x3B71 JUMP JUMPDEST PUSH1 0x40 MLOAD DUP1 SWAP2 SUB SWAP1 REVERT JUMPDEST DUP2 SWAP1 POP SWAP2 SWAP1 POP JUMP JUMPDEST POP POP POP JUMP JUMPDEST PUSH2 0x146B DUP4 DUP4 DUP4 PUSH2 0x14E0 JUMP JUMPDEST PUSH2 0x1486 PUSH2 0x1477 DUP5 PUSH2 0x7FB JUMP JUMPDEST PUSH2 0x1480 DUP5 PUSH2 0x7FB JUMP JUMPDEST DUP4 PUSH2 0x21CF JUMP JUMPDEST POP POP POP JUMP JUMPDEST PUSH1 0x0 PUSH6 0xFFFFFFFFFFFF DUP1 AND DUP3 GT ISZERO PUSH2 0x14D8 JUMPI PUSH1 0x40 MLOAD PUSH32 0x8C379A000000000000000000000000000000000000000000000000000000000 DUP2 MSTORE PUSH1 0x4 ADD PUSH2 0x14CF SWAP1 PUSH2 0x3C03 JUMP JUMPDEST PUSH1 0x40 MLOAD DUP1 SWAP2 SUB SWAP1 REVERT JUMPDEST DUP2 SWAP1 POP SWAP2 SWAP1 POP JUMP JUMPDEST POP POP POP JUMP JUMPDEST PUSH1 0x0 DUP2 DUP4 PUSH2 0x14F3 SWAP2 SWAP1 PUSH2 0x3C23 JUMP JUMPDEST SWAP1 POP SWAP3 SWAP2 POP POP JUMP JUMPDEST PUSH1 0x0 CALLER SWAP1 POP SWAP1 JUMP JUMPDEST PUSH1 0x0 PUSH20 0xFFFFFFFFFFFFFFFFFFFFFFFFFFFFFFFFFFFFFFFF AND DUP4 PUSH20 0xFFFFFFFFFFFFFFFFFFFFFFFFFFFFFFFFFFFFFFFF AND SUB PUSH2 0x1572 JUMPI PUSH1 0x40 MLOAD PUSH32 0x8C379A000000000000000000000000000000000000000000000000000000000 DUP2 MSTORE PUSH1 0x4 ADD PUSH2 0x1569 SWAP1 PUSH2 0x3CC9 JUMP JUMPDEST PUSH1 0x40 MLOAD DUP1 SWAP2 SUB SWAP1 REVERT JUMPDEST PUSH1 0x0 PUSH20 0xFFFFFFFFFFFFFFFFFFFFFFFFFFFFFFFFFFFFFFFF AND DUP3 PUSH20 0xFFFFFFFFFFFFFFFFFFFFFFFFFFFFFFFFFFFFFFFF AND SUB PUSH2 0x15E1 JUMPI PUSH1 0x40 MLOAD PUSH32 0x8C379A000000000000000000000000000000000000000000000000000000000 DUP2 MSTORE PUSH1 0x4 ADD PUSH2 0x15D8 SWAP1 PUSH2 0x3D5B JUMP JUMPDEST PUSH1 0x40 MLOAD DUP1 SWAP2 SUB SWAP1 REVERT JUMPDEST DUP1 PUSH1 0x1 PUSH1 0x0 DUP6 PUSH20 0xFFFFFFFFFFFFFFFFFFFFFFFFFFFFFFFFFFFFFFFF AND PUSH20 0xFFFFFFFFFFFFFFFFFFFFFFFFFFFFFFFFFFFFFFFF AND DUP2 MSTORE PUSH1 0x20 ADD SWAP1 DUP2 MSTORE PUSH1 0x20 ADD PUSH1 0x0 KECCAK256 PUSH1 0x0 DUP5 PUSH20 0xFFFFFFFFFFFFFFFFFFFFFFFFFFFFFFFFFFFFFFFF AND PUSH20 0xFFFFFFFFFFFFFFFFFFFFFFFFFFFFFFFFFFFFFFFF AND DUP2 MSTORE PUSH1 0x20 ADD SWAP1 DUP2 MSTORE PUSH1 0x20 ADD PUSH1 0x0 KECCAK256 DUP2 SWAP1 SSTORE POP DUP2 PUSH20 0xFFFFFFFFFFFFFFFFFFFFFFFFFFFFFFFFFFFFFFFF AND DUP4 PUSH20 0xFFFFFFFFFFFFFFFFFFFFFFFFFFFFFFFFFFFFFFFF AND PUSH32 0x8C5BE1E5EBEC7D5BD14F71427D1E84F3DD0314C0F7B2291E5B200AC8C7C3B925 DUP4 PUSH1 0x40 MLOAD PUSH2 0x16BF SWAP2 SWAP1 PUSH2 0x2BFD JUMP JUMPDEST PUSH1 0x40 MLOAD DUP1 SWAP2 SUB SWAP1 LOG3 POP POP POP JUMP JUMPDEST PUSH1 0x0 PUSH2 0x16D8 DUP5 DUP5 PUSH2 0xF55 JUMP JUMPDEST SWAP1 POP PUSH32 0xFFFFFFFFFFFFFFFFFFFFFFFFFFFFFFFFFFFFFFFFFFFFFFFFFFFFFFFFFFFFFFFF DUP2 EQ PUSH2 0x1752 JUMPI DUP2 DUP2 LT ISZERO PUSH2 0x1744 JUMPI PUSH1 0x40 MLOAD PUSH32 0x8C379A000000000000000000000000000000000000000000000000000000000 DUP2 MSTORE PUSH1 0x4 ADD PUSH2 0x173B SWAP1 PUSH2 0x3DC7 JUMP JUMPDEST PUSH1 0x40 MLOAD DUP1 SWAP2 SUB SWAP1 REVERT JUMPDEST PUSH2 0x1751 DUP5 DUP5 DUP5 DUP5 SUB PUSH2 0x1503 JUMP JUMPDEST JUMPDEST POP POP POP POP JUMP JUMPDEST PUSH1 0x0 PUSH20 0xFFFFFFFFFFFFFFFFFFFFFFFFFFFFFFFFFFFFFFFF AND DUP4 PUSH20 0xFFFFFFFFFFFFFFFFFFFFFFFFFFFFFFFFFFFFFFFF AND SUB PUSH2 0x17C7 JUMPI PUSH1 0x40 MLOAD PUSH32 0x8C379A000000000000000000000000000000000000000000000000000000000 DUP2 MSTORE PUSH1 0x4 ADD PUSH2 0x17BE SWAP1 PUSH2 0x3E59 JUMP JUMPDEST PUSH1 0x40 MLOAD DUP1 SWAP2 SUB SWAP1 REVERT JUMPDEST PUSH1 0x0 PUSH20 0xFFFFFFFFFFFFFFFFFFFFFFFFFFFFFFFFFFFFFFFF AND DUP3 PUSH20 0xFFFFFFFFFFFFFFFFFFFFFFFFFFFFFFFFFFFFFFFF AND SUB PUSH2 0x1836 JUMPI PUSH1 0x40 MLOAD PUSH32 0x8C379A000000000000000000000000000000000000000000000000000000000 DUP2 MSTORE PUSH1 0x4 ADD PUSH2 0x182D SWAP1 PUSH2 0x3EEB JUMP JUMPDEST PUSH1 0x40 MLOAD DUP1 SWAP2 SUB SWAP1 REVERT JUMPDEST PUSH2 0x1841 DUP4 DUP4 DUP4 PUSH2 0x21AF JUMP JUMPDEST PUSH1 0x0 DUP1 PUSH1 0x0 DUP6 PUSH20 0xFFFFFFFFFFFFFFFFFFFFFFFFFFFFFFFFFFFFFFFF AND PUSH20 0xFFFFFFFFFFFFFFFFFFFFFFFFFFFFFFFFFFFFFFFF AND DUP2 MSTORE PUSH1 0x20 ADD SWAP1 DUP2 MSTORE PUSH1 0x20 ADD PUSH1 0x0 KECCAK256 SLOAD SWAP1 POP DUP2 DUP2 LT ISZERO PUSH2 0x18C7 JUMPI PUSH1 0x40 MLOAD PUSH32 0x8C379A000000000000000000000000000000000000000000000000000000000 DUP2 MSTORE PUSH1 0x4 ADD PUSH2 0x18BE SWAP1 PUSH2 0x3F7D JUMP JUMPDEST PUSH1 0x40 MLOAD DUP1 SWAP2 SUB SWAP1 REVERT JUMPDEST DUP2 DUP2 SUB PUSH1 0x0 DUP1 DUP7 PUSH20 0xFFFFFFFFFFFFFFFFFFFFFFFFFFFFFFFFFFFFFFFF AND PUSH20 0xFFFFFFFFFFFFFFFFFFFFFFFFFFFFFFFFFFFFFFFF AND DUP2 MSTORE PUSH1 0x20 ADD SWAP1 DUP2 MSTORE PUSH1 0x20 ADD PUSH1 0x0 KECCAK256 DUP2 SWAP1 SSTORE POP DUP2 PUSH1 0x0 DUP1 DUP6 PUSH20 0xFFFFFFFFFFFFFFFFFFFFFFFFFFFFFFFFFFFFFFFF AND PUSH20 0xFFFFFFFFFFFFFFFFFFFFFFFFFFFFFFFFFFFFFFFF AND DUP2 MSTORE PUSH1 0x20 ADD SWAP1 DUP2 MSTORE PUSH1 0x20 ADD PUSH1 0x0 KECCAK256 PUSH1 0x0 DUP3 DUP3 SLOAD ADD SWAP3 POP POP DUP2 SWAP1 SSTORE POP DUP3 PUSH20 0xFFFFFFFFFFFFFFFFFFFFFFFFFFFFFFFFFFFFFFFF AND DUP5 PUSH20 0xFFFFFFFFFFFFFFFFFFFFFFFFFFFFFFFFFFFFFFFF AND PUSH32 0xDDF252AD1BE2C89B69C2B068FC378DAA952BA7F163C4A11628F55A4DF523B3EF DUP5 PUSH1 0x40 MLOAD PUSH2 0x19B5 SWAP2 SWAP1 PUSH2 0x2BFD JUMP JUMPDEST PUSH1 0x40 MLOAD DUP1 SWAP2 SUB SWAP1 LOG3 PUSH2 0x19C8 DUP5 DUP5 DUP5 PUSH2 0x21BF JUMP JUMPDEST POP POP POP POP JUMP JUMPDEST PUSH1 0x0 PUSH32 0x0 PUSH20 0xFFFFFFFFFFFFFFFFFFFFFFFFFFFFFFFFFFFFFFFF AND ADDRESS PUSH20 0xFFFFFFFFFFFFFFFFFFFFFFFFFFFFFFFFFFFFFFFF AND EQ DUP1 ISZERO PUSH2 0x1A4A JUMPI POP PUSH32 0x0 CHAINID EQ JUMPDEST ISZERO PUSH2 0x1A77 JUMPI PUSH32 0x0 SWAP1 POP PUSH2 0x1A82 JUMP JUMPDEST PUSH2 0x1A7F PUSH2 0x23C8 JUMP JUMPDEST SWAP1 POP JUMPDEST SWAP1 JUMP JUMPDEST PUSH1 0x0 DUP1 DUP4 DUP1 SLOAD SWAP1 POP SWAP1 POP PUSH1 0x0 DUP1 DUP3 SWAP1 POP PUSH1 0x5 DUP4 GT ISZERO PUSH2 0x1AFB JUMPI PUSH1 0x0 PUSH2 0x1AA9 DUP5 PUSH2 0x245E JUMP JUMPDEST DUP5 PUSH2 0x1AB4 SWAP2 SWAP1 PUSH2 0x3C23 JUMP JUMPDEST SWAP1 POP DUP6 PUSH2 0x1AC1 DUP9 DUP4 PUSH2 0x2557 JUMP JUMPDEST PUSH1 0x0 ADD PUSH1 0x0 SWAP1 SLOAD SWAP1 PUSH2 0x100 EXP SWAP1 DIV PUSH4 0xFFFFFFFF AND PUSH4 0xFFFFFFFF AND GT ISZERO PUSH2 0x1AE9 JUMPI DUP1 SWAP2 POP PUSH2 0x1AF9 JUMP JUMPDEST PUSH1 0x1 DUP2 PUSH2 0x1AF6 SWAP2 SWAP1 PUSH2 0x329F JUMP JUMPDEST SWAP3 POP JUMPDEST POP JUMPDEST JUMPDEST DUP1 DUP3 LT ISZERO PUSH2 0x1B5B JUMPI PUSH1 0x0 PUSH2 0x1B10 DUP4 DUP4 PUSH2 0x256C JUMP JUMPDEST SWAP1 POP DUP6 PUSH2 0x1B1D DUP9 DUP4 PUSH2 0x2557 JUMP JUMPDEST PUSH1 0x0 ADD PUSH1 0x0 SWAP1 SLOAD SWAP1 PUSH2 0x100 EXP SWAP1 DIV PUSH4 0xFFFFFFFF AND PUSH4 0xFFFFFFFF AND GT ISZERO PUSH2 0x1B45 JUMPI DUP1 SWAP2 POP PUSH2 0x1B55 JUMP JUMPDEST PUSH1 0x1 DUP2 PUSH2 0x1B52 SWAP2 SWAP1 PUSH2 0x329F JUMP JUMPDEST SWAP3 POP JUMPDEST POP PUSH2 0x1AFC JUMP JUMPDEST PUSH1 0x0 DUP2 EQ PUSH2 0x1BA1 JUMPI PUSH2 0x1B70 DUP7 PUSH1 0x1 DUP4 SUB PUSH2 0x2557 JUMP JUMPDEST PUSH1 0x0 ADD PUSH1 0x4 SWAP1 SLOAD SWAP1 PUSH2 0x100 EXP SWAP1 DIV PUSH28 0xFFFFFFFFFFFFFFFFFFFFFFFFFFFFFFFFFFFFFFFFFFFFFFFFFFFFFFFF AND PUSH2 0x1BA4 JUMP JUMPDEST PUSH1 0x0 JUMPDEST PUSH28 0xFFFFFFFFFFFFFFFFFFFFFFFFFFFFFFFFFFFFFFFFFFFFFFFFFFFFFFFF AND SWAP4 POP POP POP POP SWAP3 SWAP2 POP POP JUMP JUMPDEST PUSH1 0x0 PUSH2 0x1BD8 DUP4 PUSH2 0x7FB JUMP JUMPDEST SWAP1 POP PUSH1 0x0 PUSH2 0x1BE5 DUP5 PUSH2 0x8CC JUMP JUMPDEST SWAP1 POP DUP3 PUSH1 0x9 PUSH1 0x0 DUP7 PUSH20 0xFFFFFFFFFFFFFFFFFFFFFFFFFFFFFFFFFFFFFFFF AND PUSH20 0xFFFFFFFFFFFFFFFFFFFFFFFFFFFFFFFFFFFFFFFF AND DUP2 MSTORE PUSH1 0x20 ADD SWAP1 DUP2 MSTORE PUSH1 0x20 ADD PUSH1 0x0 KECCAK256 PUSH1 0x0 PUSH2 0x100 EXP DUP2 SLOAD DUP2 PUSH20 0xFFFFFFFFFFFFFFFFFFFFFFFFFFFFFFFFFFFFFFFF MUL NOT AND SWAP1 DUP4 PUSH20 0xFFFFFFFFFFFFFFFFFFFFFFFFFFFFFFFFFFFFFFFF AND MUL OR SWAP1 SSTORE POP DUP3 PUSH20 0xFFFFFFFFFFFFFFFFFFFFFFFFFFFFFFFFFFFFFFFF AND DUP3 PUSH20 0xFFFFFFFFFFFFFFFFFFFFFFFFFFFFFFFFFFFFFFFF AND DUP6 PUSH20 0xFFFFFFFFFFFFFFFFFFFFFFFFFFFFFFFFFFFFFFFF AND PUSH32 0x3134E8A2E6D97E929A7E54011EA5485D7D196DD5F0BA4D4EF95803E8E3FC257F PUSH1 0x40 MLOAD PUSH1 0x40 MLOAD DUP1 SWAP2 SUB SWAP1 LOG4 PUSH2 0x1CE1 DUP3 DUP5 DUP4 PUSH2 0x21CF JUMP JUMPDEST POP POP POP POP JUMP JUMPDEST PUSH1 0x0 DUP2 PUSH1 0x0 ADD SLOAD SWAP1 POP SWAP2 SWAP1 POP JUMP JUMPDEST PUSH1 0x60 PUSH1 0xFF PUSH1 0x0 SHL DUP4 EQ PUSH2 0x1D12 JUMPI PUSH2 0x1D0B DUP4 PUSH2 0x2592 JUMP JUMPDEST SWAP1 POP PUSH2 0x1D9F JUMP JUMPDEST DUP2 DUP1 SLOAD PUSH2 0x1D1E SWAP1 PUSH2 0x323F JUMP JUMPDEST DUP1 PUSH1 0x1F ADD PUSH1 0x20 DUP1 SWAP2 DIV MUL PUSH1 0x20 ADD PUSH1 0x40 MLOAD SWAP1 DUP2 ADD PUSH1 0x40 MSTORE DUP1 SWAP3 SWAP2 SWAP1 DUP2 DUP2 MSTORE PUSH1 0x20 ADD DUP3 DUP1 SLOAD PUSH2 0x1D4A SWAP1 PUSH2 0x323F JUMP JUMPDEST DUP1 ISZERO PUSH2 0x1D97 JUMPI DUP1 PUSH1 0x1F LT PUSH2 0x1D6C JUMPI PUSH2 0x100 DUP1 DUP4 SLOAD DIV MUL DUP4 MSTORE SWAP2 PUSH1 0x20 ADD SWAP2 PUSH2 0x1D97 JUMP JUMPDEST DUP3 ADD SWAP2 SWAP1 PUSH1 0x0 MSTORE PUSH1 0x20 PUSH1 0x0 KECCAK256 SWAP1 JUMPDEST DUP2 SLOAD DUP2 MSTORE SWAP1 PUSH1 0x1 ADD SWAP1 PUSH1 0x20 ADD DUP1 DUP4 GT PUSH2 0x1D7A JUMPI DUP3 SWAP1 SUB PUSH1 0x1F AND DUP3 ADD SWAP2 JUMPDEST POP POP POP POP POP SWAP1 POP JUMPDEST SWAP3 SWAP2 POP POP JUMP JUMPDEST PUSH1 0x0 PUSH2 0x1DB8 PUSH2 0x1DB2 PUSH2 0x19CE JUMP JUMPDEST DUP4 PUSH2 0x2606 JUMP JUMPDEST SWAP1 POP SWAP2 SWAP1 POP JUMP JUMPDEST PUSH1 0x0 DUP1 PUSH1 0x0 PUSH2 0x1DD0 DUP8 DUP8 DUP8 DUP8 PUSH2 0x2647 JUMP JUMPDEST SWAP2 POP SWAP2 POP PUSH2 0x1DDD DUP2 PUSH2 0x2729 JUMP JUMPDEST DUP2 SWAP3 POP POP POP SWAP5 SWAP4 POP POP POP POP JUMP JUMPDEST PUSH1 0x0 DUP1 PUSH1 0x7 PUSH1 0x0 DUP5 PUSH20 0xFFFFFFFFFFFFFFFFFFFFFFFFFFFFFFFFFFFFFFFF AND PUSH20 0xFFFFFFFFFFFFFFFFFFFFFFFFFFFFFFFFFFFFFFFF AND DUP2 MSTORE PUSH1 0x20 ADD SWAP1 DUP2 MSTORE PUSH1 0x20 ADD PUSH1 0x0 KECCAK256 SWAP1 POP PUSH2 0x1E37 DUP2 PUSH2 0x1CE7 JUMP JUMPDEST SWAP2 POP PUSH2 0x1E42 DUP2 PUSH2 0x288F JUMP JUMPDEST POP SWAP2 SWAP1 POP JUMP JUMPDEST PUSH1 0x0 DUP1 DUP3 SWAP1 POP PUSH1 0x1F DUP2 MLOAD GT ISZERO PUSH2 0x1E95 JUMPI DUP3 PUSH1 0x40 MLOAD PUSH32 0x305A27A900000000000000000000000000000000000000000000000000000000 DUP2 MSTORE PUSH1 0x4 ADD PUSH2 0x1E8C SWAP2 SWAP1 PUSH2 0x2ABD JUMP JUMPDEST PUSH1 0x40 MLOAD DUP1 SWAP2 SUB SWAP1 REVERT JUMPDEST DUP1 MLOAD DUP2 PUSH2 0x1EA1 SWAP1 PUSH2 0x3FCD JUMP JUMPDEST PUSH1 0x0 SHR OR PUSH1 0x0 SHL SWAP2 POP POP SWAP2 SWAP1 POP JUMP JUMPDEST PUSH1 0x0 PUSH28 0xFFFFFFFFFFFFFFFFFFFFFFFFFFFFFFFFFFFFFFFFFFFFFFFFFFFFFFFF SWAP1 POP SWAP1 JUMP JUMPDEST PUSH1 0x0 DUP1 PUSH1 0x0 DUP6 DUP1 SLOAD SWAP1 POP SWAP1 POP PUSH1 0x0 DUP1 DUP3 EQ PUSH2 0x1F9A JUMPI PUSH2 0x1EF6 DUP8 PUSH1 0x1 DUP5 SUB PUSH2 0x2557 JUMP JUMPDEST PUSH1 0x40 MLOAD DUP1 PUSH1 0x40 ADD PUSH1 0x40 MSTORE SWAP1 DUP2 PUSH1 0x0 DUP3 ADD PUSH1 0x0 SWAP1 SLOAD SWAP1 PUSH2 0x100 EXP SWAP1 DIV PUSH4 0xFFFFFFFF AND PUSH4 0xFFFFFFFF AND PUSH4 0xFFFFFFFF AND DUP2 MSTORE PUSH1 0x20 ADD PUSH1 0x0 DUP3 ADD PUSH1 0x4 SWAP1 SLOAD SWAP1 PUSH2 0x100 EXP SWAP1 DIV PUSH28 0xFFFFFFFFFFFFFFFFFFFFFFFFFFFFFFFFFFFFFFFFFFFFFFFFFFFFFFFF AND PUSH28 0xFFFFFFFFFFFFFFFFFFFFFFFFFFFFFFFFFFFFFFFFFFFFFFFFFFFFFFFF AND PUSH28 0xFFFFFFFFFFFFFFFFFFFFFFFFFFFFFFFFFFFFFFFFFFFFFFFFFFFFFFFF AND DUP2 MSTORE POP POP PUSH2 0x1FD6 JUMP JUMPDEST PUSH1 0x40 MLOAD DUP1 PUSH1 0x40 ADD PUSH1 0x40 MSTORE DUP1 PUSH1 0x0 PUSH4 0xFFFFFFFF AND DUP2 MSTORE PUSH1 0x20 ADD PUSH1 0x0 PUSH28 0xFFFFFFFFFFFFFFFFFFFFFFFFFFFFFFFFFFFFFFFFFFFFFFFFFFFFFFFF AND DUP2 MSTORE POP JUMPDEST SWAP1 POP DUP1 PUSH1 0x20 ADD MLOAD PUSH28 0xFFFFFFFFFFFFFFFFFFFFFFFFFFFFFFFFFFFFFFFFFFFFFFFFFFFFFFFF AND SWAP4 POP PUSH2 0x200B DUP5 DUP7 DUP9 PUSH4 0xFFFFFFFF AND JUMP JUMPDEST SWAP3 POP PUSH1 0x0 DUP3 GT DUP1 ISZERO PUSH2 0x2035 JUMPI POP PUSH2 0x2020 PUSH2 0xACB JUMP JUMPDEST PUSH6 0xFFFFFFFFFFFF AND DUP2 PUSH1 0x0 ADD MLOAD PUSH4 0xFFFFFFFF AND EQ JUMPDEST ISZERO PUSH2 0x20A6 JUMPI PUSH2 0x2043 DUP4 PUSH2 0x139D JUMP JUMPDEST PUSH2 0x2050 DUP9 PUSH1 0x1 DUP6 SUB PUSH2 0x2557 JUMP JUMPDEST PUSH1 0x0 ADD PUSH1 0x4 PUSH2 0x100 EXP DUP2 SLOAD DUP2 PUSH28 0xFFFFFFFFFFFFFFFFFFFFFFFFFFFFFFFFFFFFFFFFFFFFFFFFFFFFFFFF MUL NOT AND SWAP1 DUP4 PUSH28 0xFFFFFFFFFFFFFFFFFFFFFFFFFFFFFFFFFFFFFFFFFFFFFFFFFFFFFFFF AND MUL OR SWAP1 SSTORE POP PUSH2 0x21A5 JUMP JUMPDEST DUP7 PUSH1 0x40 MLOAD DUP1 PUSH1 0x40 ADD PUSH1 0x40 MSTORE DUP1 PUSH2 0x20CA PUSH2 0x20BD PUSH2 0xACB JUMP JUMPDEST PUSH6 0xFFFFFFFFFFFF AND PUSH2 0x1408 JUMP JUMPDEST PUSH4 0xFFFFFFFF AND DUP2 MSTORE PUSH1 0x20 ADD PUSH2 0x20DE DUP7 PUSH2 0x139D JUMP JUMPDEST PUSH28 0xFFFFFFFFFFFFFFFFFFFFFFFFFFFFFFFFFFFFFFFFFFFFFFFFFFFFFFFF AND DUP2 MSTORE POP SWAP1 DUP1 PUSH1 0x1 DUP2 SLOAD ADD DUP1 DUP3 SSTORE DUP1 SWAP2 POP POP PUSH1 0x1 SWAP1 SUB SWAP1 PUSH1 0x0 MSTORE PUSH1 0x20 PUSH1 0x0 KECCAK256 ADD PUSH1 0x0 SWAP1 SWAP2 SWAP1 SWAP2 SWAP1 SWAP2 POP PUSH1 0x0 DUP3 ADD MLOAD DUP2 PUSH1 0x0 ADD PUSH1 0x0 PUSH2 0x100 EXP DUP2 SLOAD DUP2 PUSH4 0xFFFFFFFF MUL NOT AND SWAP1 DUP4 PUSH4 0xFFFFFFFF AND MUL OR SWAP1 SSTORE POP PUSH1 0x20 DUP3 ADD MLOAD DUP2 PUSH1 0x0 ADD PUSH1 0x4 PUSH2 0x100 EXP DUP2 SLOAD DUP2 PUSH28 0xFFFFFFFFFFFFFFFFFFFFFFFFFFFFFFFFFFFFFFFFFFFFFFFFFFFFFFFF MUL NOT AND SWAP1 DUP4 PUSH28 0xFFFFFFFFFFFFFFFFFFFFFFFFFFFFFFFFFFFFFFFFFFFFFFFFFFFFFFFF AND MUL OR SWAP1 SSTORE POP POP POP JUMPDEST POP POP SWAP4 POP SWAP4 SWAP2 POP POP JUMP JUMPDEST PUSH2 0x21BA DUP4 DUP4 DUP4 PUSH2 0x145B JUMP JUMPDEST POP POP POP JUMP JUMPDEST PUSH2 0x21CA DUP4 DUP4 DUP4 PUSH2 0x1460 JUMP JUMPDEST POP POP POP JUMP JUMPDEST DUP2 PUSH20 0xFFFFFFFFFFFFFFFFFFFFFFFFFFFFFFFFFFFFFFFF AND DUP4 PUSH20 0xFFFFFFFFFFFFFFFFFFFFFFFFFFFFFFFFFFFFFFFF AND EQ ISZERO DUP1 ISZERO PUSH2 0x220B JUMPI POP PUSH1 0x0 DUP2 GT JUMPDEST ISZERO PUSH2 0x23C3 JUMPI PUSH1 0x0 PUSH20 0xFFFFFFFFFFFFFFFFFFFFFFFFFFFFFFFFFFFFFFFF AND DUP4 PUSH20 0xFFFFFFFFFFFFFFFFFFFFFFFFFFFFFFFFFFFFFFFF AND EQ PUSH2 0x22E9 JUMPI PUSH1 0x0 DUP1 PUSH2 0x2292 PUSH1 0xA PUSH1 0x0 DUP8 PUSH20 0xFFFFFFFFFFFFFFFFFFFFFFFFFFFFFFFFFFFFFFFF AND PUSH20 0xFFFFFFFFFFFFFFFFFFFFFFFFFFFFFFFFFFFFFFFF AND DUP2 MSTORE PUSH1 0x20 ADD SWAP1 DUP2 MSTORE PUSH1 0x20 ADD PUSH1 0x0 KECCAK256 PUSH2 0x14E5 DUP6 PUSH2 0x1ED4 JUMP JUMPDEST SWAP2 POP SWAP2 POP DUP5 PUSH20 0xFFFFFFFFFFFFFFFFFFFFFFFFFFFFFFFFFFFFFFFF AND PUSH32 0xDEC2BACDD2F05B59DE34DA9B523DFF8BE42E5E38E818C82FDB0BAE774387A724 DUP4 DUP4 PUSH1 0x40 MLOAD PUSH2 0x22DE SWAP3 SWAP2 SWAP1 PUSH2 0x4034 JUMP JUMPDEST PUSH1 0x40 MLOAD DUP1 SWAP2 SUB SWAP1 LOG2 POP POP JUMPDEST PUSH1 0x0 PUSH20 0xFFFFFFFFFFFFFFFFFFFFFFFFFFFFFFFFFFFFFFFF AND DUP3 PUSH20 0xFFFFFFFFFFFFFFFFFFFFFFFFFFFFFFFFFFFFFFFF AND EQ PUSH2 0x23C2 JUMPI PUSH1 0x0 DUP1 PUSH2 0x236B PUSH1 0xA PUSH1 0x0 DUP7 PUSH20 0xFFFFFFFFFFFFFFFFFFFFFFFFFFFFFFFFFFFFFFFF AND PUSH20 0xFFFFFFFFFFFFFFFFFFFFFFFFFFFFFFFFFFFFFFFF AND DUP2 MSTORE PUSH1 0x20 ADD SWAP1 DUP2 MSTORE PUSH1 0x20 ADD PUSH1 0x0 KECCAK256 PUSH2 0x1387 DUP6 PUSH2 0x1ED4 JUMP JUMPDEST SWAP2 POP SWAP2 POP DUP4 PUSH20 0xFFFFFFFFFFFFFFFFFFFFFFFFFFFFFFFFFFFFFFFF AND PUSH32 0xDEC2BACDD2F05B59DE34DA9B523DFF8BE42E5E38E818C82FDB0BAE774387A724 DUP4 DUP4 PUSH1 0x40 MLOAD PUSH2 0x23B7 SWAP3 SWAP2 SWAP1 PUSH2 0x4034 JUMP JUMPDEST PUSH1 0x40 MLOAD DUP1 SWAP2 SUB SWAP1 LOG2 POP POP JUMPDEST JUMPDEST POP POP POP JUMP JUMPDEST PUSH1 0x0 PUSH32 0x8B73C3C69BB8FE3D512ECC4CF759CC79239F7B179B0FFACAA9A75D522B39400F PUSH32 0x0 PUSH32 0x0 CHAINID ADDRESS PUSH1 0x40 MLOAD PUSH1 0x20 ADD PUSH2 0x2443 SWAP6 SWAP5 SWAP4 SWAP3 SWAP2 SWAP1 PUSH2 0x405D JUMP JUMPDEST PUSH1 0x40 MLOAD PUSH1 0x20 DUP2 DUP4 SUB SUB DUP2 MSTORE SWAP1 PUSH1 0x40 MSTORE DUP1 MLOAD SWAP1 PUSH1 0x20 ADD KECCAK256 SWAP1 POP SWAP1 JUMP JUMPDEST PUSH1 0x0 DUP1 DUP3 SUB PUSH2 0x2470 JUMPI PUSH1 0x0 SWAP1 POP PUSH2 0x2552 JUMP JUMPDEST PUSH1 0x0 PUSH1 0x1 PUSH2 0x247D DUP5 PUSH2 0x28A5 JUMP JUMPDEST SWAP1 SHR PUSH1 0x1 SWAP1 SHL SWAP1 POP PUSH1 0x1 DUP2 DUP5 DUP2 PUSH2 0x2497 JUMPI PUSH2 0x2496 PUSH2 0x40B0 JUMP JUMPDEST JUMPDEST DIV DUP3 ADD SWAP1 SHR SWAP1 POP PUSH1 0x1 DUP2 DUP5 DUP2 PUSH2 0x24B0 JUMPI PUSH2 0x24AF PUSH2 0x40B0 JUMP JUMPDEST JUMPDEST DIV DUP3 ADD SWAP1 SHR SWAP1 POP PUSH1 0x1 DUP2 DUP5 DUP2 PUSH2 0x24C9 JUMPI PUSH2 0x24C8 PUSH2 0x40B0 JUMP JUMPDEST JUMPDEST DIV DUP3 ADD SWAP1 SHR SWAP1 POP PUSH1 0x1 DUP2 DUP5 DUP2 PUSH2 0x24E2 JUMPI PUSH2 0x24E1 PUSH2 0x40B0 JUMP JUMPDEST JUMPDEST DIV DUP3 ADD SWAP1 SHR SWAP1 POP PUSH1 0x1 DUP2 DUP5 DUP2 PUSH2 0x24FB JUMPI PUSH2 0x24FA PUSH2 0x40B0 JUMP JUMPDEST JUMPDEST DIV DUP3 ADD SWAP1 SHR SWAP1 POP PUSH1 0x1 DUP2 DUP5 DUP2 PUSH2 0x2514 JUMPI PUSH2 0x2513 PUSH2 0x40B0 JUMP JUMPDEST JUMPDEST DIV DUP3 ADD SWAP1 SHR SWAP1 POP PUSH1 0x1 DUP2 DUP5 DUP2 PUSH2 0x252D JUMPI PUSH2 0x252C PUSH2 0x40B0 JUMP JUMPDEST JUMPDEST DIV DUP3 ADD SWAP1 SHR SWAP1 POP PUSH2 0x254E DUP2 DUP3 DUP6 DUP2 PUSH2 0x2548 JUMPI PUSH2 0x2547 PUSH2 0x40B0 JUMP JUMPDEST JUMPDEST DIV PUSH2 0x2986 JUMP JUMPDEST SWAP2 POP POP JUMPDEST SWAP2 SWAP1 POP JUMP JUMPDEST PUSH1 0x0 DUP3 PUSH1 0x0 MSTORE DUP2 PUSH1 0x20 PUSH1 0x0 KECCAK256 ADD SWAP1 POP SWAP3 SWAP2 POP POP JUMP JUMPDEST PUSH1 0x0 PUSH1 0x2 DUP3 DUP5 XOR PUSH2 0x257D SWAP2 SWAP1 PUSH2 0x40DF JUMP JUMPDEST DUP3 DUP5 AND PUSH2 0x258A SWAP2 SWAP1 PUSH2 0x329F JUMP JUMPDEST SWAP1 POP SWAP3 SWAP2 POP POP JUMP JUMPDEST PUSH1 0x60 PUSH1 0x0 PUSH2 0x259F DUP4 PUSH2 0x299F JUMP JUMPDEST SWAP1 POP PUSH1 0x0 PUSH1 0x20 PUSH8 0xFFFFFFFFFFFFFFFF DUP2 GT ISZERO PUSH2 0x25BE JUMPI PUSH2 0x25BD PUSH2 0x333F JUMP JUMPDEST JUMPDEST PUSH1 0x40 MLOAD SWAP1 DUP1 DUP3 MSTORE DUP1 PUSH1 0x1F ADD PUSH1 0x1F NOT AND PUSH1 0x20 ADD DUP3 ADD PUSH1 0x40 MSTORE DUP1 ISZERO PUSH2 0x25F0 JUMPI DUP2 PUSH1 0x20 ADD PUSH1 0x1 DUP3 MUL DUP1 CALLDATASIZE DUP4 CALLDATACOPY DUP1 DUP3 ADD SWAP2 POP POP SWAP1 POP JUMPDEST POP SWAP1 POP DUP2 DUP2 MSTORE DUP4 PUSH1 0x20 DUP3 ADD MSTORE DUP1 SWAP3 POP POP POP SWAP2 SWAP1 POP JUMP JUMPDEST PUSH1 0x0 PUSH1 0x40 MLOAD PUSH32 0x1901000000000000000000000000000000000000000000000000000000000000 DUP2 MSTORE DUP4 PUSH1 0x2 DUP3 ADD MSTORE DUP3 PUSH1 0x22 DUP3 ADD MSTORE PUSH1 0x42 DUP2 KECCAK256 SWAP2 POP POP SWAP3 SWAP2 POP POP JUMP JUMPDEST PUSH1 0x0 DUP1 PUSH32 0x7FFFFFFFFFFFFFFFFFFFFFFFFFFFFFFF5D576E7357A4501DDFE92F46681B20A0 DUP4 PUSH1 0x0 SHR GT ISZERO PUSH2 0x2682 JUMPI PUSH1 0x0 PUSH1 0x3 SWAP2 POP SWAP2 POP PUSH2 0x2720 JUMP JUMPDEST PUSH1 0x0 PUSH1 0x1 DUP8 DUP8 DUP8 DUP8 PUSH1 0x40 MLOAD PUSH1 0x0 DUP2 MSTORE PUSH1 0x20 ADD PUSH1 0x40 MSTORE PUSH1 0x40 MLOAD PUSH2 0x26A7 SWAP5 SWAP4 SWAP3 SWAP2 SWAP1 PUSH2 0x4110 JUMP JUMPDEST PUSH1 0x20 PUSH1 0x40 MLOAD PUSH1 0x20 DUP2 SUB SWAP1 DUP1 DUP5 SUB SWAP1 DUP6 GAS STATICCALL ISZERO DUP1 ISZERO PUSH2 0x26C9 JUMPI RETURNDATASIZE PUSH1 0x0 DUP1 RETURNDATACOPY RETURNDATASIZE PUSH1 0x0 REVERT JUMPDEST POP POP POP PUSH1 0x20 PUSH1 0x40 MLOAD SUB MLOAD SWAP1 POP PUSH1 0x0 PUSH20 0xFFFFFFFFFFFFFFFFFFFFFFFFFFFFFFFFFFFFFFFF AND DUP2 PUSH20 0xFFFFFFFFFFFFFFFFFFFFFFFFFFFFFFFFFFFFFFFF AND SUB PUSH2 0x2717 JUMPI PUSH1 0x0 PUSH1 0x1 SWAP3 POP SWAP3 POP POP PUSH2 0x2720 JUMP JUMPDEST DUP1 PUSH1 0x0 SWAP3 POP SWAP3 POP POP JUMPDEST SWAP5 POP SWAP5 SWAP3 POP POP POP JUMP JUMPDEST PUSH1 0x0 PUSH1 0x4 DUP2 GT ISZERO PUSH2 0x273D JUMPI PUSH2 0x273C PUSH2 0x4155 JUMP JUMPDEST JUMPDEST DUP2 PUSH1 0x4 DUP2 GT ISZERO PUSH2 0x2750 JUMPI PUSH2 0x274F PUSH2 0x4155 JUMP JUMPDEST JUMPDEST SUB ISZERO PUSH2 0x288C JUMPI PUSH1 0x1 PUSH1 0x4 DUP2 GT ISZERO PUSH2 0x276A JUMPI PUSH2 0x2769 PUSH2 0x4155 JUMP JUMPDEST JUMPDEST DUP2 PUSH1 0x4 DUP2 GT ISZERO PUSH2 0x277D JUMPI PUSH2 0x277C PUSH2 0x4155 JUMP JUMPDEST JUMPDEST SUB PUSH2 0x27BD JUMPI PUSH1 0x40 MLOAD PUSH32 0x8C379A000000000000000000000000000000000000000000000000000000000 DUP2 MSTORE PUSH1 0x4 ADD PUSH2 0x27B4 SWAP1 PUSH2 0x41D0 JUMP JUMPDEST PUSH1 0x40 MLOAD DUP1 SWAP2 SUB SWAP1 REVERT JUMPDEST PUSH1 0x2 PUSH1 0x4 DUP2 GT ISZERO PUSH2 0x27D1 JUMPI PUSH2 0x27D0 PUSH2 0x4155 JUMP JUMPDEST JUMPDEST DUP2 PUSH1 0x4 DUP2 GT ISZERO PUSH2 0x27E4 JUMPI PUSH2 0x27E3 PUSH2 0x4155 JUMP JUMPDEST JUMPDEST SUB PUSH2 0x2824 JUMPI PUSH1 0x40 MLOAD PUSH32 0x8C379A000000000000000000000000000000000000000000000000000000000 DUP2 MSTORE PUSH1 0x4 ADD PUSH2 0x281B SWAP1 PUSH2 0x423C JUMP JUMPDEST PUSH1 0x40 MLOAD DUP1 SWAP2 SUB SWAP1 REVERT JUMPDEST PUSH1 0x3 PUSH1 0x4 DUP2 GT ISZERO PUSH2 0x2838 JUMPI PUSH2 0x2837 PUSH2 0x4155 JUMP JUMPDEST JUMPDEST DUP2 PUSH1 0x4 DUP2 GT ISZERO PUSH2 0x284B JUMPI PUSH2 0x284A PUSH2 0x4155 JUMP JUMPDEST JUMPDEST SUB PUSH2 0x288B JUMPI PUSH1 0x40 MLOAD PUSH32 0x8C379A000000000000000000000000000000000000000000000000000000000 DUP2 MSTORE PUSH1 0x4 ADD PUSH2 0x2882 SWAP1 PUSH2 0x42CE JUMP JUMPDEST PUSH1 0x40 MLOAD DUP1 SWAP2 SUB SWAP1 REVERT JUMPDEST JUMPDEST POP JUMP JUMPDEST PUSH1 0x1 DUP2 PUSH1 0x0 ADD PUSH1 0x0 DUP3 DUP3 SLOAD ADD SWAP3 POP POP DUP2 SWAP1 SSTORE POP POP JUMP JUMPDEST PUSH1 0x0 DUP1 PUSH1 0x0 SWAP1 POP PUSH1 0x0 PUSH1 0x80 DUP5 SWAP1 SHR GT ISZERO PUSH2 0x28C7 JUMPI PUSH1 0x80 DUP4 SWAP1 SHR SWAP3 POP PUSH1 0x80 DUP2 ADD SWAP1 POP JUMPDEST PUSH1 0x0 PUSH1 0x40 DUP5 SWAP1 SHR GT ISZERO PUSH2 0x28E2 JUMPI PUSH1 0x40 DUP4 SWAP1 SHR SWAP3 POP PUSH1 0x40 DUP2 ADD SWAP1 POP JUMPDEST PUSH1 0x0 PUSH1 0x20 DUP5 SWAP1 SHR GT ISZERO PUSH2 0x28FD JUMPI PUSH1 0x20 DUP4 SWAP1 SHR SWAP3 POP PUSH1 0x20 DUP2 ADD SWAP1 POP JUMPDEST PUSH1 0x0 PUSH1 0x10 DUP5 SWAP1 SHR GT ISZERO PUSH2 0x2918 JUMPI PUSH1 0x10 DUP4 SWAP1 SHR SWAP3 POP PUSH1 0x10 DUP2 ADD SWAP1 POP JUMPDEST PUSH1 0x0 PUSH1 0x8 DUP5 SWAP1 SHR GT ISZERO PUSH2 0x2933 JUMPI PUSH1 0x8 DUP4 SWAP1 SHR SWAP3 POP PUSH1 0x8 DUP2 ADD SWAP1 POP JUMPDEST PUSH1 0x0 PUSH1 0x4 DUP5 SWAP1 SHR GT ISZERO PUSH2 0x294E JUMPI PUSH1 0x4 DUP4 SWAP1 SHR SWAP3 POP PUSH1 0x4 DUP2 ADD SWAP1 POP JUMPDEST PUSH1 0x0 PUSH1 0x2 DUP5 SWAP1 SHR GT ISZERO PUSH2 0x2969 JUMPI PUSH1 0x2 DUP4 SWAP1 SHR SWAP3 POP PUSH1 0x2 DUP2 ADD SWAP1 POP JUMPDEST PUSH1 0x0 PUSH1 0x1 DUP5 SWAP1 SHR GT ISZERO PUSH2 0x297D JUMPI PUSH1 0x1 DUP2 ADD SWAP1 POP JUMPDEST DUP1 SWAP2 POP POP SWAP2 SWAP1 POP JUMP JUMPDEST PUSH1 0x0 DUP2 DUP4 LT PUSH2 0x2995 JUMPI DUP2 PUSH2 0x2997 JUMP JUMPDEST DUP3 JUMPDEST SWAP1 POP SWAP3 SWAP2 POP POP JUMP JUMPDEST PUSH1 0x0 DUP1 PUSH1 0xFF DUP4 PUSH1 0x0 SHR AND SWAP1 POP PUSH1 0x1F DUP2 GT ISZERO PUSH2 0x29E6 JUMPI PUSH1 0x40 MLOAD PUSH32 0xB3512B0C00000000000000000000000000000000000000000000000000000000 DUP2 MSTORE PUSH1 0x4 ADD PUSH1 0x40 MLOAD DUP1 SWAP2 SUB SWAP1 REVERT JUMPDEST DUP1 SWAP2 POP POP SWAP2 SWAP1 POP JUMP JUMPDEST PUSH1 0x40 MLOAD DUP1 PUSH1 0x40 ADD PUSH1 0x40 MSTORE DUP1 PUSH1 0x0 PUSH4 0xFFFFFFFF AND DUP2 MSTORE PUSH1 0x20 ADD PUSH1 0x0 PUSH28 0xFFFFFFFFFFFFFFFFFFFFFFFFFFFFFFFFFFFFFFFFFFFFFFFFFFFFFFFF AND DUP2 MSTORE POP SWAP1 JUMP JUMPDEST PUSH1 0x0 DUP2 MLOAD SWAP1 POP SWAP2 SWAP1 POP JUMP JUMPDEST PUSH1 0x0 DUP3 DUP3 MSTORE PUSH1 0x20 DUP3 ADD SWAP1 POP SWAP3 SWAP2 POP POP JUMP JUMPDEST PUSH1 0x0 JUMPDEST DUP4 DUP2 LT ISZERO PUSH2 0x2A67 JUMPI DUP1 DUP3 ADD MLOAD DUP2 DUP5 ADD MSTORE PUSH1 0x20 DUP2 ADD SWAP1 POP PUSH2 0x2A4C JUMP JUMPDEST PUSH1 0x0 DUP5 DUP5 ADD MSTORE POP POP POP POP JUMP JUMPDEST PUSH1 0x0 PUSH1 0x1F NOT PUSH1 0x1F DUP4 ADD AND SWAP1 POP SWAP2 SWAP1 POP JUMP JUMPDEST PUSH1 0x0 PUSH2 0x2A8F DUP3 PUSH2 0x2A2D JUMP JUMPDEST PUSH2 0x2A99 DUP2 DUP6 PUSH2 0x2A38 JUMP JUMPDEST SWAP4 POP PUSH2 0x2AA9 DUP2 DUP6 PUSH1 0x20 DUP7 ADD PUSH2 0x2A49 JUMP JUMPDEST PUSH2 0x2AB2 DUP2 PUSH2 0x2A73 JUMP JUMPDEST DUP5 ADD SWAP2 POP POP SWAP3 SWAP2 POP POP JUMP JUMPDEST PUSH1 0x0 PUSH1 0x20 DUP3 ADD SWAP1 POP DUP2 DUP2 SUB PUSH1 0x0 DUP4 ADD MSTORE PUSH2 0x2AD7 DUP2 DUP5 PUSH2 0x2A84 JUMP JUMPDEST SWAP1 POP SWAP3 SWAP2 POP POP JUMP JUMPDEST PUSH1 0x0 DUP1 REVERT JUMPDEST PUSH1 0x0 PUSH20 0xFFFFFFFFFFFFFFFFFFFFFFFFFFFFFFFFFFFFFFFF DUP3 AND SWAP1 POP SWAP2 SWAP1 POP JUMP JUMPDEST PUSH1 0x0 PUSH2 0x2B0F DUP3 PUSH2 0x2AE4 JUMP JUMPDEST SWAP1 POP SWAP2 SWAP1 POP JUMP JUMPDEST PUSH2 0x2B1F DUP2 PUSH2 0x2B04 JUMP JUMPDEST DUP2 EQ PUSH2 0x2B2A JUMPI PUSH1 0x0 DUP1 REVERT JUMPDEST POP JUMP JUMPDEST PUSH1 0x0 DUP2 CALLDATALOAD SWAP1 POP PUSH2 0x2B3C DUP2 PUSH2 0x2B16 JUMP JUMPDEST SWAP3 SWAP2 POP POP JUMP JUMPDEST PUSH1 0x0 DUP2 SWAP1 POP SWAP2 SWAP1 POP JUMP JUMPDEST PUSH2 0x2B55 DUP2 PUSH2 0x2B42 JUMP JUMPDEST DUP2 EQ PUSH2 0x2B60 JUMPI PUSH1 0x0 DUP1 REVERT JUMPDEST POP JUMP JUMPDEST PUSH1 0x0 DUP2 CALLDATALOAD SWAP1 POP PUSH2 0x2B72 DUP2 PUSH2 0x2B4C JUMP JUMPDEST SWAP3 SWAP2 POP POP JUMP JUMPDEST PUSH1 0x0 DUP1 PUSH1 0x40 DUP4 DUP6 SUB SLT ISZERO PUSH2 0x2B8F JUMPI PUSH2 0x2B8E PUSH2 0x2ADF JUMP JUMPDEST JUMPDEST PUSH1 0x0 PUSH2 0x2B9D DUP6 DUP3 DUP7 ADD PUSH2 0x2B2D JUMP JUMPDEST SWAP3 POP POP PUSH1 0x20 PUSH2 0x2BAE DUP6 DUP3 DUP7 ADD PUSH2 0x2B63 JUMP JUMPDEST SWAP2 POP POP SWAP3 POP SWAP3 SWAP1 POP JUMP JUMPDEST PUSH1 0x0 DUP2 ISZERO ISZERO SWAP1 POP SWAP2 SWAP1 POP JUMP JUMPDEST PUSH2 0x2BCD DUP2 PUSH2 0x2BB8 JUMP JUMPDEST DUP3 MSTORE POP POP JUMP JUMPDEST PUSH1 0x0 PUSH1 0x20 DUP3 ADD SWAP1 POP PUSH2 0x2BE8 PUSH1 0x0 DUP4 ADD DUP5 PUSH2 0x2BC4 JUMP JUMPDEST SWAP3 SWAP2 POP POP JUMP JUMPDEST PUSH2 0x2BF7 DUP2 PUSH2 0x2B42 JUMP JUMPDEST DUP3 MSTORE POP POP JUMP JUMPDEST PUSH1 0x0 PUSH1 0x20 DUP3 ADD SWAP1 POP PUSH2 0x2C12 PUSH1 0x0 DUP4 ADD DUP5 PUSH2 0x2BEE JUMP JUMPDEST SWAP3 SWAP2 POP POP JUMP JUMPDEST PUSH1 0x0 DUP1 PUSH1 0x0 PUSH1 0x60 DUP5 DUP7 SUB SLT ISZERO PUSH2 0x2C31 JUMPI PUSH2 0x2C30 PUSH2 0x2ADF JUMP JUMPDEST JUMPDEST PUSH1 0x0 PUSH2 0x2C3F DUP7 DUP3 DUP8 ADD PUSH2 0x2B2D JUMP JUMPDEST SWAP4 POP POP PUSH1 0x20 PUSH2 0x2C50 DUP7 DUP3 DUP8 ADD PUSH2 0x2B2D JUMP JUMPDEST SWAP3 POP POP PUSH1 0x40 PUSH2 0x2C61 DUP7 DUP3 DUP8 ADD PUSH2 0x2B63 JUMP JUMPDEST SWAP2 POP POP SWAP3 POP SWAP3 POP SWAP3 JUMP JUMPDEST PUSH1 0x0 PUSH1 0xFF DUP3 AND SWAP1 POP SWAP2 SWAP1 POP JUMP JUMPDEST PUSH2 0x2C81 DUP2 PUSH2 0x2C6B JUMP JUMPDEST DUP3 MSTORE POP POP JUMP JUMPDEST PUSH1 0x0 PUSH1 0x20 DUP3 ADD SWAP1 POP PUSH2 0x2C9C PUSH1 0x0 DUP4 ADD DUP5 PUSH2 0x2C78 JUMP JUMPDEST SWAP3 SWAP2 POP POP JUMP JUMPDEST PUSH1 0x0 DUP2 SWAP1 POP SWAP2 SWAP1 POP JUMP JUMPDEST PUSH2 0x2CB5 DUP2 PUSH2 0x2CA2 JUMP JUMPDEST DUP3 MSTORE POP POP JUMP JUMPDEST PUSH1 0x0 PUSH1 0x20 DUP3 ADD SWAP1 POP PUSH2 0x2CD0 PUSH1 0x0 DUP4 ADD DUP5 PUSH2 0x2CAC JUMP JUMPDEST SWAP3 SWAP2 POP POP JUMP JUMPDEST PUSH1 0x0 PUSH1 0x20 DUP3 DUP5 SUB SLT ISZERO PUSH2 0x2CEC JUMPI PUSH2 0x2CEB PUSH2 0x2ADF JUMP JUMPDEST JUMPDEST PUSH1 0x0 PUSH2 0x2CFA DUP5 DUP3 DUP6 ADD PUSH2 0x2B2D JUMP JUMPDEST SWAP2 POP POP SWAP3 SWAP2 POP POP JUMP JUMPDEST PUSH2 0x2D0C DUP2 PUSH2 0x2B04 JUMP JUMPDEST DUP3 MSTORE POP POP JUMP JUMPDEST PUSH1 0x0 PUSH1 0x20 DUP3 ADD SWAP1 POP PUSH2 0x2D27 PUSH1 0x0 DUP4 ADD DUP5 PUSH2 0x2D03 JUMP JUMPDEST SWAP3 SWAP2 POP POP JUMP JUMPDEST PUSH1 0x0 PUSH4 0xFFFFFFFF DUP3 AND SWAP1 POP SWAP2 SWAP1 POP JUMP JUMPDEST PUSH2 0x2D46 DUP2 PUSH2 0x2D2D JUMP JUMPDEST DUP3 MSTORE POP POP JUMP JUMPDEST PUSH1 0x0 PUSH1 0x20 DUP3 ADD SWAP1 POP PUSH2 0x2D61 PUSH1 0x0 DUP4 ADD DUP5 PUSH2 0x2D3D JUMP JUMPDEST SWAP3 SWAP2 POP POP JUMP JUMPDEST PUSH1 0x0 PUSH32 0xFF00000000000000000000000000000000000000000000000000000000000000 DUP3 AND SWAP1 POP SWAP2 SWAP1 POP JUMP JUMPDEST PUSH2 0x2D9C DUP2 PUSH2 0x2D67 JUMP JUMPDEST DUP3 MSTORE POP POP JUMP JUMPDEST PUSH1 0x0 DUP2 MLOAD SWAP1 POP SWAP2 SWAP1 POP JUMP JUMPDEST PUSH1 0x0 DUP3 DUP3 MSTORE PUSH1 0x20 DUP3 ADD SWAP1 POP SWAP3 SWAP2 POP POP JUMP JUMPDEST PUSH1 0x0 DUP2 SWAP1 POP PUSH1 0x20 DUP3 ADD SWAP1 POP SWAP2 SWAP1 POP JUMP JUMPDEST PUSH2 0x2DD7 DUP2 PUSH2 0x2B42 JUMP JUMPDEST DUP3 MSTORE POP POP JUMP JUMPDEST PUSH1 0x0 PUSH2 0x2DE9 DUP4 DUP4 PUSH2 0x2DCE JUMP JUMPDEST PUSH1 0x20 DUP4 ADD SWAP1 POP SWAP3 SWAP2 POP POP JUMP JUMPDEST PUSH1 0x0 PUSH1 0x20 DUP3 ADD SWAP1 POP SWAP2 SWAP1 POP JUMP JUMPDEST PUSH1 0x0 PUSH2 0x2E0D DUP3 PUSH2 0x2DA2 JUMP JUMPDEST PUSH2 0x2E17 DUP2 DUP6 PUSH2 0x2DAD JUMP JUMPDEST SWAP4 POP PUSH2 0x2E22 DUP4 PUSH2 0x2DBE JUMP JUMPDEST DUP1 PUSH1 0x0 JUMPDEST DUP4 DUP2 LT ISZERO PUSH2 0x2E53 JUMPI DUP2 MLOAD PUSH2 0x2E3A DUP9 DUP3 PUSH2 0x2DDD JUMP JUMPDEST SWAP8 POP PUSH2 0x2E45 DUP4 PUSH2 0x2DF5 JUMP JUMPDEST SWAP3 POP POP PUSH1 0x1 DUP2 ADD SWAP1 POP PUSH2 0x2E26 JUMP JUMPDEST POP DUP6 SWAP4 POP POP POP POP SWAP3 SWAP2 POP POP JUMP JUMPDEST PUSH1 0x0 PUSH1 0xE0 DUP3 ADD SWAP1 POP PUSH2 0x2E75 PUSH1 0x0 DUP4 ADD DUP11 PUSH2 0x2D93 JUMP JUMPDEST DUP2 DUP2 SUB PUSH1 0x20 DUP4 ADD MSTORE PUSH2 0x2E87 DUP2 DUP10 PUSH2 0x2A84 JUMP JUMPDEST SWAP1 POP DUP2 DUP2 SUB PUSH1 0x40 DUP4 ADD MSTORE PUSH2 0x2E9B DUP2 DUP9 PUSH2 0x2A84 JUMP JUMPDEST SWAP1 POP PUSH2 0x2EAA PUSH1 0x60 DUP4 ADD DUP8 PUSH2 0x2BEE JUMP JUMPDEST PUSH2 0x2EB7 PUSH1 0x80 DUP4 ADD DUP7 PUSH2 0x2D03 JUMP JUMPDEST PUSH2 0x2EC4 PUSH1 0xA0 DUP4 ADD DUP6 PUSH2 0x2CAC JUMP JUMPDEST DUP2 DUP2 SUB PUSH1 0xC0 DUP4 ADD MSTORE PUSH2 0x2ED6 DUP2 DUP5 PUSH2 0x2E02 JUMP JUMPDEST SWAP1 POP SWAP9 SWAP8 POP POP POP POP POP POP POP POP JUMP JUMPDEST PUSH1 0x0 PUSH1 0x20 DUP3 DUP5 SUB SLT ISZERO PUSH2 0x2EFA JUMPI PUSH2 0x2EF9 PUSH2 0x2ADF JUMP JUMPDEST JUMPDEST PUSH1 0x0 PUSH2 0x2F08 DUP5 DUP3 DUP6 ADD PUSH2 0x2B63 JUMP JUMPDEST SWAP2 POP POP SWAP3 SWAP2 POP POP JUMP JUMPDEST PUSH1 0x0 PUSH6 0xFFFFFFFFFFFF DUP3 AND SWAP1 POP SWAP2 SWAP1 POP JUMP JUMPDEST PUSH2 0x2F2C DUP2 PUSH2 0x2F11 JUMP JUMPDEST DUP3 MSTORE POP POP JUMP JUMPDEST PUSH1 0x0 PUSH1 0x20 DUP3 ADD SWAP1 POP PUSH2 0x2F47 PUSH1 0x0 DUP4 ADD DUP5 PUSH2 0x2F23 JUMP JUMPDEST SWAP3 SWAP2 POP POP JUMP JUMPDEST PUSH2 0x2F56 DUP2 PUSH2 0x2C6B JUMP JUMPDEST DUP2 EQ PUSH2 0x2F61 JUMPI PUSH1 0x0 DUP1 REVERT JUMPDEST POP JUMP JUMPDEST PUSH1 0x0 DUP2 CALLDATALOAD SWAP1 POP PUSH2 0x2F73 DUP2 PUSH2 0x2F4D JUMP JUMPDEST SWAP3 SWAP2 POP POP JUMP JUMPDEST PUSH2 0x2F82 DUP2 PUSH2 0x2CA2 JUMP JUMPDEST DUP2 EQ PUSH2 0x2F8D JUMPI PUSH1 0x0 DUP1 REVERT JUMPDEST POP JUMP JUMPDEST PUSH1 0x0 DUP2 CALLDATALOAD SWAP1 POP PUSH2 0x2F9F DUP2 PUSH2 0x2F79 JUMP JUMPDEST SWAP3 SWAP2 POP POP JUMP JUMPDEST PUSH1 0x0 DUP1 PUSH1 0x0 DUP1 PUSH1 0x0 DUP1 PUSH1 0xC0 DUP8 DUP10 SUB SLT ISZERO PUSH2 0x2FC2 JUMPI PUSH2 0x2FC1 PUSH2 0x2ADF JUMP JUMPDEST JUMPDEST PUSH1 0x0 PUSH2 0x2FD0 DUP10 DUP3 DUP11 ADD PUSH2 0x2B2D JUMP JUMPDEST SWAP7 POP POP PUSH1 0x20 PUSH2 0x2FE1 DUP10 DUP3 DUP11 ADD PUSH2 0x2B63 JUMP JUMPDEST SWAP6 POP POP PUSH1 0x40 PUSH2 0x2FF2 DUP10 DUP3 DUP11 ADD PUSH2 0x2B63 JUMP JUMPDEST SWAP5 POP POP PUSH1 0x60 PUSH2 0x3003 DUP10 DUP3 DUP11 ADD PUSH2 0x2F64 JUMP JUMPDEST SWAP4 POP POP PUSH1 0x80 PUSH2 0x3014 DUP10 DUP3 DUP11 ADD PUSH2 0x2F90 JUMP JUMPDEST SWAP3 POP POP PUSH1 0xA0 PUSH2 0x3025 DUP10 DUP3 DUP11 ADD PUSH2 0x2F90 JUMP JUMPDEST SWAP2 POP POP SWAP3 SWAP6 POP SWAP3 SWAP6 POP SWAP3 SWAP6 JUMP JUMPDEST PUSH1 0x0 DUP1 PUSH1 0x0 DUP1 PUSH1 0x0 DUP1 PUSH1 0x0 PUSH1 0xE0 DUP9 DUP11 SUB SLT ISZERO PUSH2 0x3051 JUMPI PUSH2 0x3050 PUSH2 0x2ADF JUMP JUMPDEST JUMPDEST PUSH1 0x0 PUSH2 0x305F DUP11 DUP3 DUP12 ADD PUSH2 0x2B2D JUMP JUMPDEST SWAP8 POP POP PUSH1 0x20 PUSH2 0x3070 DUP11 DUP3 DUP12 ADD PUSH2 0x2B2D JUMP JUMPDEST SWAP7 POP POP PUSH1 0x40 PUSH2 0x3081 DUP11 DUP3 DUP12 ADD PUSH2 0x2B63 JUMP JUMPDEST SWAP6 POP POP PUSH1 0x60 PUSH2 0x3092 DUP11 DUP3 DUP12 ADD PUSH2 0x2B63 JUMP JUMPDEST SWAP5 POP POP PUSH1 0x80 PUSH2 0x30A3 DUP11 DUP3 DUP12 ADD PUSH2 0x2F64 JUMP JUMPDEST SWAP4 POP POP PUSH1 0xA0 PUSH2 0x30B4 DUP11 DUP3 DUP12 ADD PUSH2 0x2F90 JUMP JUMPDEST SWAP3 POP POP PUSH1 0xC0 PUSH2 0x30C5 DUP11 DUP3 DUP12 ADD PUSH2 0x2F90 JUMP JUMPDEST SWAP2 POP POP SWAP3 SWAP6 SWAP9 SWAP2 SWAP5 SWAP8 POP SWAP3 SWAP6 POP JUMP JUMPDEST PUSH1 0x0 DUP1 PUSH1 0x40 DUP4 DUP6 SUB SLT ISZERO PUSH2 0x30EB JUMPI PUSH2 0x30EA PUSH2 0x2ADF JUMP JUMPDEST JUMPDEST PUSH1 0x0 PUSH2 0x30F9 DUP6 DUP3 DUP7 ADD PUSH2 0x2B2D JUMP JUMPDEST SWAP3 POP POP PUSH1 0x20 PUSH2 0x310A DUP6 DUP3 DUP7 ADD PUSH2 0x2B2D JUMP JUMPDEST SWAP2 POP POP SWAP3 POP SWAP3 SWAP1 POP JUMP JUMPDEST PUSH2 0x311D DUP2 PUSH2 0x2D2D JUMP JUMPDEST DUP2 EQ PUSH2 0x3128 JUMPI PUSH1 0x0 DUP1 REVERT JUMPDEST POP JUMP JUMPDEST PUSH1 0x0 DUP2 CALLDATALOAD SWAP1 POP PUSH2 0x313A DUP2 PUSH2 0x3114 JUMP JUMPDEST SWAP3 SWAP2 POP POP JUMP JUMPDEST PUSH1 0x0 DUP1 PUSH1 0x40 DUP4 DUP6 SUB SLT ISZERO PUSH2 0x3157 JUMPI PUSH2 0x3156 PUSH2 0x2ADF JUMP JUMPDEST JUMPDEST PUSH1 0x0 PUSH2 0x3165 DUP6 DUP3 DUP7 ADD PUSH2 0x2B2D JUMP JUMPDEST SWAP3 POP POP PUSH1 0x20 PUSH2 0x3176 DUP6 DUP3 DUP7 ADD PUSH2 0x312B JUMP JUMPDEST SWAP2 POP POP SWAP3 POP SWAP3 SWAP1 POP JUMP JUMPDEST PUSH2 0x3189 DUP2 PUSH2 0x2D2D JUMP JUMPDEST DUP3 MSTORE POP POP JUMP JUMPDEST PUSH1 0x0 PUSH28 0xFFFFFFFFFFFFFFFFFFFFFFFFFFFFFFFFFFFFFFFFFFFFFFFFFFFFFFFF DUP3 AND SWAP1 POP SWAP2 SWAP1 POP JUMP JUMPDEST PUSH2 0x31C0 DUP2 PUSH2 0x318F JUMP JUMPDEST DUP3 MSTORE POP POP JUMP JUMPDEST PUSH1 0x40 DUP3 ADD PUSH1 0x0 DUP3 ADD MLOAD PUSH2 0x31DC PUSH1 0x0 DUP6 ADD DUP3 PUSH2 0x3180 JUMP JUMPDEST POP PUSH1 0x20 DUP3 ADD MLOAD PUSH2 0x31EF PUSH1 0x20 DUP6 ADD DUP3 PUSH2 0x31B7 JUMP JUMPDEST POP POP POP POP JUMP JUMPDEST PUSH1 0x0 PUSH1 0x40 DUP3 ADD SWAP1 POP PUSH2 0x320A PUSH1 0x0 DUP4 ADD DUP5 PUSH2 0x31C6 JUMP JUMPDEST SWAP3 SWAP2 POP POP JUMP JUMPDEST PUSH32 0x4E487B7100000000000000000000000000000000000000000000000000000000 PUSH1 0x0 MSTORE PUSH1 0x22 PUSH1 0x4 MSTORE PUSH1 0x24 PUSH1 0x0 REVERT JUMPDEST PUSH1 0x0 PUSH1 0x2 DUP3 DIV SWAP1 POP PUSH1 0x1 DUP3 AND DUP1 PUSH2 0x3257 JUMPI PUSH1 0x7F DUP3 AND SWAP2 POP JUMPDEST PUSH1 0x20 DUP3 LT DUP2 SUB PUSH2 0x326A JUMPI PUSH2 0x3269 PUSH2 0x3210 JUMP JUMPDEST JUMPDEST POP SWAP2 SWAP1 POP JUMP JUMPDEST PUSH32 0x4E487B7100000000000000000000000000000000000000000000000000000000 PUSH1 0x0 MSTORE PUSH1 0x11 PUSH1 0x4 MSTORE PUSH1 0x24 PUSH1 0x0 REVERT JUMPDEST PUSH1 0x0 PUSH2 0x32AA DUP3 PUSH2 0x2B42 JUMP JUMPDEST SWAP2 POP PUSH2 0x32B5 DUP4 PUSH2 0x2B42 JUMP JUMPDEST SWAP3 POP DUP3 DUP3 ADD SWAP1 POP DUP1 DUP3 GT ISZERO PUSH2 0x32CD JUMPI PUSH2 0x32CC PUSH2 0x3270 JUMP JUMPDEST JUMPDEST SWAP3 SWAP2 POP POP JUMP JUMPDEST PUSH32 0x4552433230566F7465733A20667574757265206C6F6F6B757000000000000000 PUSH1 0x0 DUP3 ADD MSTORE POP JUMP JUMPDEST PUSH1 0x0 PUSH2 0x3309 PUSH1 0x19 DUP4 PUSH2 0x2A38 JUMP JUMPDEST SWAP2 POP PUSH2 0x3314 DUP3 PUSH2 0x32D3 JUMP JUMPDEST PUSH1 0x20 DUP3 ADD SWAP1 POP SWAP2 SWAP1 POP JUMP JUMPDEST PUSH1 0x0 PUSH1 0x20 DUP3 ADD SWAP1 POP DUP2 DUP2 SUB PUSH1 0x0 DUP4 ADD MSTORE PUSH2 0x3338 DUP2 PUSH2 0x32FC JUMP JUMPDEST SWAP1 POP SWAP2 SWAP1 POP JUMP JUMPDEST PUSH32 0x4E487B7100000000000000000000000000000000000000000000000000000000 PUSH1 0x0 MSTORE PUSH1 0x41 PUSH1 0x4 MSTORE PUSH1 0x24 PUSH1 0x0 REVERT JUMPDEST PUSH32 0x4E487B7100000000000000000000000000000000000000000000000000000000 PUSH1 0x0 MSTORE PUSH1 0x32 PUSH1 0x4 MSTORE PUSH1 0x24 PUSH1 0x0 REVERT JUMPDEST PUSH32 0x45524332303A2064656372656173656420616C6C6F77616E63652062656C6F77 PUSH1 0x0 DUP3 ADD MSTORE PUSH32 0x207A65726F000000000000000000000000000000000000000000000000000000 PUSH1 0x20 DUP3 ADD MSTORE POP JUMP JUMPDEST PUSH1 0x0 PUSH2 0x33F9 PUSH1 0x25 DUP4 PUSH2 0x2A38 JUMP JUMPDEST SWAP2 POP PUSH2 0x3404 DUP3 PUSH2 0x339D JUMP JUMPDEST PUSH1 0x40 DUP3 ADD SWAP1 POP SWAP2 SWAP1 POP JUMP JUMPDEST PUSH1 0x0 PUSH1 0x20 DUP3 ADD SWAP1 POP DUP2 DUP2 SUB PUSH1 0x0 DUP4 ADD MSTORE PUSH2 0x3428 DUP2 PUSH2 0x33EC JUMP JUMPDEST SWAP1 POP SWAP2 SWAP1 POP JUMP JUMPDEST PUSH32 0x4552433230566F7465733A207369676E61747572652065787069726564000000 PUSH1 0x0 DUP3 ADD MSTORE POP JUMP JUMPDEST PUSH1 0x0 PUSH2 0x3465 PUSH1 0x1D DUP4 PUSH2 0x2A38 JUMP JUMPDEST SWAP2 POP PUSH2 0x3470 DUP3 PUSH2 0x342F JUMP JUMPDEST PUSH1 0x20 DUP3 ADD SWAP1 POP SWAP2 SWAP1 POP JUMP JUMPDEST PUSH1 0x0 PUSH1 0x20 DUP3 ADD SWAP1 POP DUP2 DUP2 SUB PUSH1 0x0 DUP4 ADD MSTORE PUSH2 0x3494 DUP2 PUSH2 0x3458 JUMP JUMPDEST SWAP1 POP SWAP2 SWAP1 POP JUMP JUMPDEST PUSH1 0x0 PUSH1 0x80 DUP3 ADD SWAP1 POP PUSH2 0x34B0 PUSH1 0x0 DUP4 ADD DUP8 PUSH2 0x2CAC JUMP JUMPDEST PUSH2 0x34BD PUSH1 0x20 DUP4 ADD DUP7 PUSH2 0x2D03 JUMP JUMPDEST PUSH2 0x34CA PUSH1 0x40 DUP4 ADD DUP6 PUSH2 0x2BEE JUMP JUMPDEST PUSH2 0x34D7 PUSH1 0x60 DUP4 ADD DUP5 PUSH2 0x2BEE JUMP JUMPDEST SWAP6 SWAP5 POP POP POP POP POP JUMP JUMPDEST PUSH32 0x4552433230566F7465733A20696E76616C6964206E6F6E636500000000000000 PUSH1 0x0 DUP3 ADD MSTORE POP JUMP JUMPDEST PUSH1 0x0 PUSH2 0x3516 PUSH1 0x19 DUP4 PUSH2 0x2A38 JUMP JUMPDEST SWAP2 POP PUSH2 0x3521 DUP3 PUSH2 0x34E0 JUMP JUMPDEST PUSH1 0x20 DUP3 ADD SWAP1 POP SWAP2 SWAP1 POP JUMP JUMPDEST PUSH1 0x0 PUSH1 0x20 DUP3 ADD SWAP1 POP DUP2 DUP2 SUB PUSH1 0x0 DUP4 ADD MSTORE PUSH2 0x3545 DUP2 PUSH2 0x3509 JUMP JUMPDEST SWAP1 POP SWAP2 SWAP1 POP JUMP JUMPDEST PUSH32 0x45524332305065726D69743A206578706972656420646561646C696E65000000 PUSH1 0x0 DUP3 ADD MSTORE POP JUMP JUMPDEST PUSH1 0x0 PUSH2 0x3582 PUSH1 0x1D DUP4 PUSH2 0x2A38 JUMP JUMPDEST SWAP2 POP PUSH2 0x358D DUP3 PUSH2 0x354C JUMP JUMPDEST PUSH1 0x20 DUP3 ADD SWAP1 POP SWAP2 SWAP1 POP JUMP JUMPDEST PUSH1 0x0 PUSH1 0x20 DUP3 ADD SWAP1 POP DUP2 DUP2 SUB PUSH1 0x0 DUP4 ADD MSTORE PUSH2 0x35B1 DUP2 PUSH2 0x3575 JUMP JUMPDEST SWAP1 POP SWAP2 SWAP1 POP JUMP JUMPDEST PUSH1 0x0 PUSH1 0xC0 DUP3 ADD SWAP1 POP PUSH2 0x35CD PUSH1 0x0 DUP4 ADD DUP10 PUSH2 0x2CAC JUMP JUMPDEST PUSH2 0x35DA PUSH1 0x20 DUP4 ADD DUP9 PUSH2 0x2D03 JUMP JUMPDEST PUSH2 0x35E7 PUSH1 0x40 DUP4 ADD DUP8 PUSH2 0x2D03 JUMP JUMPDEST PUSH2 0x35F4 PUSH1 0x60 DUP4 ADD DUP7 PUSH2 0x2BEE JUMP JUMPDEST PUSH2 0x3601 PUSH1 0x80 DUP4 ADD DUP6 PUSH2 0x2BEE JUMP JUMPDEST PUSH2 0x360E PUSH1 0xA0 DUP4 ADD DUP5 PUSH2 0x2BEE JUMP JUMPDEST SWAP8 SWAP7 POP POP POP POP POP POP POP JUMP JUMPDEST PUSH32 0x45524332305065726D69743A20696E76616C6964207369676E61747572650000 PUSH1 0x0 DUP3 ADD MSTORE POP JUMP JUMPDEST PUSH1 0x0 PUSH2 0x364F PUSH1 0x1E DUP4 PUSH2 0x2A38 JUMP JUMPDEST SWAP2 POP PUSH2 0x365A DUP3 PUSH2 0x3619 JUMP JUMPDEST PUSH1 0x20 DUP3 ADD SWAP1 POP SWAP2 SWAP1 POP JUMP JUMPDEST PUSH1 0x0 PUSH1 0x20 DUP3 ADD SWAP1 POP DUP2 DUP2 SUB PUSH1 0x0 DUP4 ADD MSTORE PUSH2 0x367E DUP2 PUSH2 0x3642 JUMP JUMPDEST SWAP1 POP SWAP2 SWAP1 POP JUMP JUMPDEST PUSH1 0x0 DUP2 SWAP1 POP DUP2 PUSH1 0x0 MSTORE PUSH1 0x20 PUSH1 0x0 KECCAK256 SWAP1 POP SWAP2 SWAP1 POP JUMP JUMPDEST PUSH1 0x0 PUSH1 0x20 PUSH1 0x1F DUP4 ADD DIV SWAP1 POP SWAP2 SWAP1 POP JUMP JUMPDEST PUSH1 0x0 DUP3 DUP3 SHL SWAP1 POP SWAP3 SWAP2 POP POP JUMP JUMPDEST PUSH1 0x0 PUSH1 0x8 DUP4 MUL PUSH2 0x36E7 PUSH32 0xFFFFFFFFFFFFFFFFFFFFFFFFFFFFFFFFFFFFFFFFFFFFFFFFFFFFFFFFFFFFFFFF DUP3 PUSH2 0x36AA JUMP JUMPDEST PUSH2 0x36F1 DUP7 DUP4 PUSH2 0x36AA JUMP JUMPDEST SWAP6 POP DUP1 NOT DUP5 AND SWAP4 POP DUP1 DUP7 AND DUP5 OR SWAP3 POP POP POP SWAP4 SWAP3 POP POP POP JUMP JUMPDEST PUSH1 0x0 DUP2 SWAP1 POP SWAP2 SWAP1 POP JUMP JUMPDEST PUSH1 0x0 PUSH2 0x372E PUSH2 0x3729 PUSH2 0x3724 DUP5 PUSH2 0x2B42 JUMP JUMPDEST PUSH2 0x3709 JUMP JUMPDEST PUSH2 0x2B42 JUMP JUMPDEST SWAP1 POP SWAP2 SWAP1 POP JUMP JUMPDEST PUSH1 0x0 DUP2 SWAP1 POP SWAP2 SWAP1 POP JUMP JUMPDEST PUSH2 0x3748 DUP4 PUSH2 0x3713 JUMP JUMPDEST PUSH2 0x375C PUSH2 0x3754 DUP3 PUSH2 0x3735 JUMP JUMPDEST DUP5 DUP5 SLOAD PUSH2 0x36B7 JUMP JUMPDEST DUP3 SSTORE POP POP POP POP JUMP JUMPDEST PUSH1 0x0 SWAP1 JUMP JUMPDEST PUSH2 0x3771 PUSH2 0x3764 JUMP JUMPDEST PUSH2 0x377C DUP2 DUP5 DUP5 PUSH2 0x373F JUMP JUMPDEST POP POP POP JUMP JUMPDEST JUMPDEST DUP2 DUP2 LT ISZERO PUSH2 0x37A0 JUMPI PUSH2 0x3795 PUSH1 0x0 DUP3 PUSH2 0x3769 JUMP JUMPDEST PUSH1 0x1 DUP2 ADD SWAP1 POP PUSH2 0x3782 JUMP JUMPDEST POP POP JUMP JUMPDEST PUSH1 0x1F DUP3 GT ISZERO PUSH2 0x37E5 JUMPI PUSH2 0x37B6 DUP2 PUSH2 0x3685 JUMP JUMPDEST PUSH2 0x37BF DUP5 PUSH2 0x369A JUMP JUMPDEST DUP2 ADD PUSH1 0x20 DUP6 LT ISZERO PUSH2 0x37CE JUMPI DUP2 SWAP1 POP JUMPDEST PUSH2 0x37E2 PUSH2 0x37DA DUP6 PUSH2 0x369A JUMP JUMPDEST DUP4 ADD DUP3 PUSH2 0x3781 JUMP JUMPDEST POP POP JUMPDEST POP POP POP JUMP JUMPDEST PUSH1 0x0 DUP3 DUP3 SHR SWAP1 POP SWAP3 SWAP2 POP POP JUMP JUMPDEST PUSH1 0x0 PUSH2 0x3808 PUSH1 0x0 NOT DUP5 PUSH1 0x8 MUL PUSH2 0x37EA JUMP JUMPDEST NOT DUP1 DUP4 AND SWAP2 POP POP SWAP3 SWAP2 POP POP JUMP JUMPDEST PUSH1 0x0 PUSH2 0x3821 DUP4 DUP4 PUSH2 0x37F7 JUMP JUMPDEST SWAP2 POP DUP3 PUSH1 0x2 MUL DUP3 OR SWAP1 POP SWAP3 SWAP2 POP POP JUMP JUMPDEST PUSH2 0x383A DUP3 PUSH2 0x2A2D JUMP JUMPDEST PUSH8 0xFFFFFFFFFFFFFFFF DUP2 GT ISZERO PUSH2 0x3853 JUMPI PUSH2 0x3852 PUSH2 0x333F JUMP JUMPDEST JUMPDEST PUSH2 0x385D DUP3 SLOAD PUSH2 0x323F JUMP JUMPDEST PUSH2 0x3868 DUP3 DUP3 DUP6 PUSH2 0x37A4 JUMP JUMPDEST PUSH1 0x0 PUSH1 0x20 SWAP1 POP PUSH1 0x1F DUP4 GT PUSH1 0x1 DUP2 EQ PUSH2 0x389B JUMPI PUSH1 0x0 DUP5 ISZERO PUSH2 0x3889 JUMPI DUP3 DUP8 ADD MLOAD SWAP1 POP JUMPDEST PUSH2 0x3893 DUP6 DUP3 PUSH2 0x3815 JUMP JUMPDEST DUP7 SSTORE POP PUSH2 0x38FB JUMP JUMPDEST PUSH1 0x1F NOT DUP5 AND PUSH2 0x38A9 DUP7 PUSH2 0x3685 JUMP JUMPDEST PUSH1 0x0 JUMPDEST DUP3 DUP2 LT ISZERO PUSH2 0x38D1 JUMPI DUP5 DUP10 ADD MLOAD DUP3 SSTORE PUSH1 0x1 DUP3 ADD SWAP2 POP PUSH1 0x20 DUP6 ADD SWAP5 POP PUSH1 0x20 DUP2 ADD SWAP1 POP PUSH2 0x38AC JUMP JUMPDEST DUP7 DUP4 LT ISZERO PUSH2 0x38EE JUMPI DUP5 DUP10 ADD MLOAD PUSH2 0x38EA PUSH1 0x1F DUP10 AND DUP3 PUSH2 0x37F7 JUMP JUMPDEST DUP4 SSTORE POP JUMPDEST PUSH1 0x1 PUSH1 0x2 DUP9 MUL ADD DUP9 SSTORE POP POP POP JUMPDEST POP POP POP POP POP POP JUMP JUMPDEST PUSH32 0x45524332304361707065643A2063617020657863656564656400000000000000 PUSH1 0x0 DUP3 ADD MSTORE POP JUMP JUMPDEST PUSH1 0x0 PUSH2 0x3939 PUSH1 0x19 DUP4 PUSH2 0x2A38 JUMP JUMPDEST SWAP2 POP PUSH2 0x3944 DUP3 PUSH2 0x3903 JUMP JUMPDEST PUSH1 0x20 DUP3 ADD SWAP1 POP SWAP2 SWAP1 POP JUMP JUMPDEST PUSH1 0x0 PUSH1 0x20 DUP3 ADD SWAP1 POP DUP2 DUP2 SUB PUSH1 0x0 DUP4 ADD MSTORE PUSH2 0x3968 DUP2 PUSH2 0x392C JUMP JUMPDEST SWAP1 POP SWAP2 SWAP1 POP JUMP JUMPDEST PUSH32 0x4552433230566F7465733A20746F74616C20737570706C79207269736B73206F PUSH1 0x0 DUP3 ADD MSTORE PUSH32 0x766572666C6F77696E6720766F74657300000000000000000000000000000000 PUSH1 0x20 DUP3 ADD MSTORE POP JUMP JUMPDEST PUSH1 0x0 PUSH2 0x39CB PUSH1 0x30 DUP4 PUSH2 0x2A38 JUMP JUMPDEST SWAP2 POP PUSH2 0x39D6 DUP3 PUSH2 0x396F JUMP JUMPDEST PUSH1 0x40 DUP3 ADD SWAP1 POP SWAP2 SWAP1 POP JUMP JUMPDEST PUSH1 0x0 PUSH1 0x20 DUP3 ADD SWAP1 POP DUP2 DUP2 SUB PUSH1 0x0 DUP4 ADD MSTORE PUSH2 0x39FA DUP2 PUSH2 0x39BE JUMP JUMPDEST SWAP1 POP SWAP2 SWAP1 POP JUMP JUMPDEST PUSH32 0x45524332303A206D696E7420746F20746865207A65726F206164647265737300 PUSH1 0x0 DUP3 ADD MSTORE POP JUMP JUMPDEST PUSH1 0x0 PUSH2 0x3A37 PUSH1 0x1F DUP4 PUSH2 0x2A38 JUMP JUMPDEST SWAP2 POP PUSH2 0x3A42 DUP3 PUSH2 0x3A01 JUMP JUMPDEST PUSH1 0x20 DUP3 ADD SWAP1 POP SWAP2 SWAP1 POP JUMP JUMPDEST PUSH1 0x0 PUSH1 0x20 DUP3 ADD SWAP1 POP DUP2 DUP2 SUB PUSH1 0x0 DUP4 ADD MSTORE PUSH2 0x3A66 DUP2 PUSH2 0x3A2A JUMP JUMPDEST SWAP1 POP SWAP2 SWAP1 POP JUMP JUMPDEST PUSH32 0x53616665436173743A2076616C756520646F65736E27742066697420696E2032 PUSH1 0x0 DUP3 ADD MSTORE PUSH32 0x3234206269747300000000000000000000000000000000000000000000000000 PUSH1 0x20 DUP3 ADD MSTORE POP JUMP JUMPDEST PUSH1 0x0 PUSH2 0x3AC9 PUSH1 0x27 DUP4 PUSH2 0x2A38 JUMP JUMPDEST SWAP2 POP PUSH2 0x3AD4 DUP3 PUSH2 0x3A6D JUMP JUMPDEST PUSH1 0x40 DUP3 ADD SWAP1 POP SWAP2 SWAP1 POP JUMP JUMPDEST PUSH1 0x0 PUSH1 0x20 DUP3 ADD SWAP1 POP DUP2 DUP2 SUB PUSH1 0x0 DUP4 ADD MSTORE PUSH2 0x3AF8 DUP2 PUSH2 0x3ABC JUMP JUMPDEST SWAP1 POP SWAP2 SWAP1 POP JUMP JUMPDEST PUSH32 0x53616665436173743A2076616C756520646F65736E27742066697420696E2033 PUSH1 0x0 DUP3 ADD MSTORE PUSH32 0x3220626974730000000000000000000000000000000000000000000000000000 PUSH1 0x20 DUP3 ADD MSTORE POP JUMP JUMPDEST PUSH1 0x0 PUSH2 0x3B5B PUSH1 0x26 DUP4 PUSH2 0x2A38 JUMP JUMPDEST SWAP2 POP PUSH2 0x3B66 DUP3 PUSH2 0x3AFF JUMP JUMPDEST PUSH1 0x40 DUP3 ADD SWAP1 POP SWAP2 SWAP1 POP JUMP JUMPDEST PUSH1 0x0 PUSH1 0x20 DUP3 ADD SWAP1 POP DUP2 DUP2 SUB PUSH1 0x0 DUP4 ADD MSTORE PUSH2 0x3B8A DUP2 PUSH2 0x3B4E JUMP JUMPDEST SWAP1 POP SWAP2 SWAP1 POP JUMP JUMPDEST PUSH32 0x53616665436173743A2076616C756520646F65736E27742066697420696E2034 PUSH1 0x0 DUP3 ADD MSTORE PUSH32 0x3820626974730000000000000000000000000000000000000000000000000000 PUSH1 0x20 DUP3 ADD MSTORE POP JUMP JUMPDEST PUSH1 0x0 PUSH2 0x3BED PUSH1 0x26 DUP4 PUSH2 0x2A38 JUMP JUMPDEST SWAP2 POP PUSH2 0x3BF8 DUP3 PUSH2 0x3B91 JUMP JUMPDEST PUSH1 0x40 DUP3 ADD SWAP1 POP SWAP2 SWAP1 POP JUMP JUMPDEST PUSH1 0x0 PUSH1 0x20 DUP3 ADD SWAP1 POP DUP2 DUP2 SUB PUSH1 0x0 DUP4 ADD MSTORE PUSH2 0x3C1C DUP2 PUSH2 0x3BE0 JUMP JUMPDEST SWAP1 POP SWAP2 SWAP1 POP JUMP JUMPDEST PUSH1 0x0 PUSH2 0x3C2E DUP3 PUSH2 0x2B42 JUMP JUMPDEST SWAP2 POP PUSH2 0x3C39 DUP4 PUSH2 0x2B42 JUMP JUMPDEST SWAP3 POP DUP3 DUP3 SUB SWAP1 POP DUP2 DUP2 GT ISZERO PUSH2 0x3C51 JUMPI PUSH2 0x3C50 PUSH2 0x3270 JUMP JUMPDEST JUMPDEST SWAP3 SWAP2 POP POP JUMP JUMPDEST PUSH32 0x45524332303A20617070726F76652066726F6D20746865207A65726F20616464 PUSH1 0x0 DUP3 ADD MSTORE PUSH32 0x7265737300000000000000000000000000000000000000000000000000000000 PUSH1 0x20 DUP3 ADD MSTORE POP JUMP JUMPDEST PUSH1 0x0 PUSH2 0x3CB3 PUSH1 0x24 DUP4 PUSH2 0x2A38 JUMP JUMPDEST SWAP2 POP PUSH2 0x3CBE DUP3 PUSH2 0x3C57 JUMP JUMPDEST PUSH1 0x40 DUP3 ADD SWAP1 POP SWAP2 SWAP1 POP JUMP JUMPDEST PUSH1 0x0 PUSH1 0x20 DUP3 ADD SWAP1 POP DUP2 DUP2 SUB PUSH1 0x0 DUP4 ADD MSTORE PUSH2 0x3CE2 DUP2 PUSH2 0x3CA6 JUMP JUMPDEST SWAP1 POP SWAP2 SWAP1 POP JUMP JUMPDEST PUSH32 0x45524332303A20617070726F766520746F20746865207A65726F206164647265 PUSH1 0x0 DUP3 ADD MSTORE PUSH32 0x7373000000000000000000000000000000000000000000000000000000000000 PUSH1 0x20 DUP3 ADD MSTORE POP JUMP JUMPDEST PUSH1 0x0 PUSH2 0x3D45 PUSH1 0x22 DUP4 PUSH2 0x2A38 JUMP JUMPDEST SWAP2 POP PUSH2 0x3D50 DUP3 PUSH2 0x3CE9 JUMP JUMPDEST PUSH1 0x40 DUP3 ADD SWAP1 POP SWAP2 SWAP1 POP JUMP JUMPDEST PUSH1 0x0 PUSH1 0x20 DUP3 ADD SWAP1 POP DUP2 DUP2 SUB PUSH1 0x0 DUP4 ADD MSTORE PUSH2 0x3D74 DUP2 PUSH2 0x3D38 JUMP JUMPDEST SWAP1 POP SWAP2 SWAP1 POP JUMP JUMPDEST PUSH32 0x45524332303A20696E73756666696369656E7420616C6C6F77616E6365000000 PUSH1 0x0 DUP3 ADD MSTORE POP JUMP JUMPDEST PUSH1 0x0 PUSH2 0x3DB1 PUSH1 0x1D DUP4 PUSH2 0x2A38 JUMP JUMPDEST SWAP2 POP PUSH2 0x3DBC DUP3 PUSH2 0x3D7B JUMP JUMPDEST PUSH1 0x20 DUP3 ADD SWAP1 POP SWAP2 SWAP1 POP JUMP JUMPDEST PUSH1 0x0 PUSH1 0x20 DUP3 ADD SWAP1 POP DUP2 DUP2 SUB PUSH1 0x0 DUP4 ADD MSTORE PUSH2 0x3DE0 DUP2 PUSH2 0x3DA4 JUMP JUMPDEST SWAP1 POP SWAP2 SWAP1 POP JUMP JUMPDEST PUSH32 0x45524332303A207472616E736665722066726F6D20746865207A65726F206164 PUSH1 0x0 DUP3 ADD MSTORE PUSH32 0x6472657373000000000000000000000000000000000000000000000000000000 PUSH1 0x20 DUP3 ADD MSTORE POP JUMP JUMPDEST PUSH1 0x0 PUSH2 0x3E43 PUSH1 0x25 DUP4 PUSH2 0x2A38 JUMP JUMPDEST SWAP2 POP PUSH2 0x3E4E DUP3 PUSH2 0x3DE7 JUMP JUMPDEST PUSH1 0x40 DUP3 ADD SWAP1 POP SWAP2 SWAP1 POP JUMP JUMPDEST PUSH1 0x0 PUSH1 0x20 DUP3 ADD SWAP1 POP DUP2 DUP2 SUB PUSH1 0x0 DUP4 ADD MSTORE PUSH2 0x3E72 DUP2 PUSH2 0x3E36 JUMP JUMPDEST SWAP1 POP SWAP2 SWAP1 POP JUMP JUMPDEST PUSH32 0x45524332303A207472616E7366657220746F20746865207A65726F2061646472 PUSH1 0x0 DUP3 ADD MSTORE PUSH32 0x6573730000000000000000000000000000000000000000000000000000000000 PUSH1 0x20 DUP3 ADD MSTORE POP JUMP JUMPDEST PUSH1 0x0 PUSH2 0x3ED5 PUSH1 0x23 DUP4 PUSH2 0x2A38 JUMP JUMPDEST SWAP2 POP PUSH2 0x3EE0 DUP3 PUSH2 0x3E79 JUMP JUMPDEST PUSH1 0x40 DUP3 ADD SWAP1 POP SWAP2 SWAP1 POP JUMP JUMPDEST PUSH1 0x0 PUSH1 0x20 DUP3 ADD SWAP1 POP DUP2 DUP2 SUB PUSH1 0x0 DUP4 ADD MSTORE PUSH2 0x3F04 DUP2 PUSH2 0x3EC8 JUMP JUMPDEST SWAP1 POP SWAP2 SWAP1 POP JUMP JUMPDEST PUSH32 0x45524332303A207472616E7366657220616D6F756E7420657863656564732062 PUSH1 0x0 DUP3 ADD MSTORE PUSH32 0x616C616E63650000000000000000000000000000000000000000000000000000 PUSH1 0x20 DUP3 ADD MSTORE POP JUMP JUMPDEST PUSH1 0x0 PUSH2 0x3F67 PUSH1 0x26 DUP4 PUSH2 0x2A38 JUMP JUMPDEST SWAP2 POP PUSH2 0x3F72 DUP3 PUSH2 0x3F0B JUMP JUMPDEST PUSH1 0x40 DUP3 ADD SWAP1 POP SWAP2 SWAP1 POP JUMP JUMPDEST PUSH1 0x0 PUSH1 0x20 DUP3 ADD SWAP1 POP DUP2 DUP2 SUB PUSH1 0x0 DUP4 ADD MSTORE PUSH2 0x3F96 DUP2 PUSH2 0x3F5A JUMP JUMPDEST SWAP1 POP SWAP2 SWAP1 POP JUMP JUMPDEST PUSH1 0x0 DUP2 MLOAD SWAP1 POP SWAP2 SWAP1 POP JUMP JUMPDEST PUSH1 0x0 DUP2 SWAP1 POP PUSH1 0x20 DUP3 ADD SWAP1 POP SWAP2 SWAP1 POP JUMP JUMPDEST PUSH1 0x0 PUSH2 0x3FC4 DUP3 MLOAD PUSH2 0x2CA2 JUMP JUMPDEST DUP1 SWAP2 POP POP SWAP2 SWAP1 POP JUMP JUMPDEST PUSH1 0x0 PUSH2 0x3FD8 DUP3 PUSH2 0x3F9D JUMP JUMPDEST DUP3 PUSH2 0x3FE2 DUP5 PUSH2 0x3FA8 JUMP JUMPDEST SWAP1 POP PUSH2 0x3FED DUP2 PUSH2 0x3FB8 JUMP JUMPDEST SWAP3 POP PUSH1 0x20 DUP3 LT ISZERO PUSH2 0x402D JUMPI PUSH2 0x4028 PUSH32 0xFFFFFFFFFFFFFFFFFFFFFFFFFFFFFFFFFFFFFFFFFFFFFFFFFFFFFFFFFFFFFFFF DUP4 PUSH1 0x20 SUB PUSH1 0x8 MUL PUSH2 0x36AA JUMP JUMPDEST DUP4 AND SWAP3 POP JUMPDEST POP POP SWAP2 SWAP1 POP JUMP JUMPDEST PUSH1 0x0 PUSH1 0x40 DUP3 ADD SWAP1 POP PUSH2 0x4049 PUSH1 0x0 DUP4 ADD DUP6 PUSH2 0x2BEE JUMP JUMPDEST PUSH2 0x4056 PUSH1 0x20 DUP4 ADD DUP5 PUSH2 0x2BEE JUMP JUMPDEST SWAP4 SWAP3 POP POP POP JUMP JUMPDEST PUSH1 0x0 PUSH1 0xA0 DUP3 ADD SWAP1 POP PUSH2 0x4072 PUSH1 0x0 DUP4 ADD DUP9 PUSH2 0x2CAC JUMP JUMPDEST PUSH2 0x407F PUSH1 0x20 DUP4 ADD DUP8 PUSH2 0x2CAC JUMP JUMPDEST PUSH2 0x408C PUSH1 0x40 DUP4 ADD DUP7 PUSH2 0x2CAC JUMP JUMPDEST PUSH2 0x4099 PUSH1 0x60 DUP4 ADD DUP6 PUSH2 0x2BEE JUMP JUMPDEST PUSH2 0x40A6 PUSH1 0x80 DUP4 ADD DUP5 PUSH2 0x2D03 JUMP JUMPDEST SWAP7 SWAP6 POP POP POP POP POP POP JUMP JUMPDEST PUSH32 0x4E487B7100000000000000000000000000000000000000000000000000000000 PUSH1 0x0 MSTORE PUSH1 0x12 PUSH1 0x4 MSTORE PUSH1 0x24 PUSH1 0x0 REVERT JUMPDEST PUSH1 0x0 PUSH2 0x40EA DUP3 PUSH2 0x2B42 JUMP JUMPDEST SWAP2 POP PUSH2 0x40F5 DUP4 PUSH2 0x2B42 JUMP JUMPDEST SWAP3 POP DUP3 PUSH2 0x4105 JUMPI PUSH2 0x4104 PUSH2 0x40B0 JUMP JUMPDEST JUMPDEST DUP3 DUP3 DIV SWAP1 POP SWAP3 SWAP2 POP POP JUMP JUMPDEST PUSH1 0x0 PUSH1 0x80 DUP3 ADD SWAP1 POP PUSH2 0x4125 PUSH1 0x0 DUP4 ADD DUP8 PUSH2 0x2CAC JUMP JUMPDEST PUSH2 0x4132 PUSH1 0x20 DUP4 ADD DUP7 PUSH2 0x2C78 JUMP JUMPDEST PUSH2 0x413F PUSH1 0x40 DUP4 ADD DUP6 PUSH2 0x2CAC JUMP JUMPDEST PUSH2 0x414C PUSH1 0x60 DUP4 ADD DUP5 PUSH2 0x2CAC JUMP JUMPDEST SWAP6 SWAP5 POP POP POP POP POP JUMP JUMPDEST PUSH32 0x4E487B7100000000000000000000000000000000000000000000000000000000 PUSH1 0x0 MSTORE PUSH1 0x21 PUSH1 0x4 MSTORE PUSH1 0x24 PUSH1 0x0 REVERT JUMPDEST PUSH32 0x45434453413A20696E76616C6964207369676E61747572650000000000000000 PUSH1 0x0 DUP3 ADD MSTORE POP JUMP JUMPDEST PUSH1 0x0 PUSH2 0x41BA PUSH1 0x18 DUP4 PUSH2 0x2A38 JUMP JUMPDEST SWAP2 POP PUSH2 0x41C5 DUP3 PUSH2 0x4184 JUMP JUMPDEST PUSH1 0x20 DUP3 ADD SWAP1 POP SWAP2 SWAP1 POP JUMP JUMPDEST PUSH1 0x0 PUSH1 0x20 DUP3 ADD SWAP1 POP DUP2 DUP2 SUB PUSH1 0x0 DUP4 ADD MSTORE PUSH2 0x41E9 DUP2 PUSH2 0x41AD JUMP JUMPDEST SWAP1 POP SWAP2 SWAP1 POP JUMP JUMPDEST PUSH32 0x45434453413A20696E76616C6964207369676E6174757265206C656E67746800 PUSH1 0x0 DUP3 ADD MSTORE POP JUMP JUMPDEST PUSH1 0x0 PUSH2 0x4226 PUSH1 0x1F DUP4 PUSH2 0x2A38 JUMP JUMPDEST SWAP2 POP PUSH2 0x4231 DUP3 PUSH2 0x41F0 JUMP JUMPDEST PUSH1 0x20 DUP3 ADD SWAP1 POP SWAP2 SWAP1 POP JUMP JUMPDEST PUSH1 0x0 PUSH1 0x20 DUP3 ADD SWAP1 POP DUP2 DUP2 SUB PUSH1 0x0 DUP4 ADD MSTORE PUSH2 0x4255 DUP2 PUSH2 0x4219 JUMP JUMPDEST SWAP1 POP SWAP2 SWAP1 POP JUMP JUMPDEST PUSH32 0x45434453413A20696E76616C6964207369676E6174757265202773272076616C PUSH1 0x0 DUP3 ADD MSTORE PUSH32 0x7565000000000000000000000000000000000000000000000000000000000000 PUSH1 0x20 DUP3 ADD MSTORE POP JUMP JUMPDEST PUSH1 0x0 PUSH2 0x42B8 PUSH1 0x22 DUP4 PUSH2 0x2A38 JUMP JUMPDEST SWAP2 POP PUSH2 0x42C3 DUP3 PUSH2 0x425C JUMP JUMPDEST PUSH1 0x40 DUP3 ADD SWAP1 POP SWAP2 SWAP1 POP JUMP JUMPDEST PUSH1 0x0 PUSH1 0x20 DUP3 ADD SWAP1 POP DUP2 DUP2 SUB PUSH1 0x0 DUP4 ADD MSTORE PUSH2 0x42E7 DUP2 PUSH2 0x42AB JUMP JUMPDEST SWAP1 POP SWAP2 SWAP1 POP JUMP INVALID LOG2 PUSH5 0x6970667358 0x22 SLT KECCAK256 0x5E 0xD7 SLT CHAINID PUSH27 0xDE4E16636B4502208A038195D120FB514D095066C11A5886381CAC PUSH5 0x736F6C6343 STOP ADDMOD SLT STOP CALLER "
		},
		"gasEstimates": {
			"creation": {
				"codeDepositCost": "3437600",
				"executionCost": "infinite",
				"totalCost": "infinite"
			},
			"external": {
				"CLOCK_MODE()": "infinite",
				"DOMAIN_SEPARATOR()": "infinite",
				"allowance(address,address)": "infinite",
				"approve(address,uint256)": "infinite",
				"balanceOf(address)": "2864",
				"cap()": "infinite",
				"checkpoints(address,uint32)": "infinite",
				"clock()": "617",
				"decimals()": "455",
				"decreaseAllowance(address,uint256)": "infinite",
				"delegate(address)": "infinite",
				"delegateBySig(address,uint256,uint256,uint8,bytes32,bytes32)": "infinite",
				"delegates(address)": "infinite",
				"eip712Domain()": "infinite",
				"getPastTotalSupply(uint256)": "infinite",
				"getPastVotes(address,uint256)": "infinite",
				"getVotes(address)": "7415",
				"increaseAllowance(address,uint256)": "infinite",
				"name()": "infinite",
				"nonces(address)": "2935",
				"numCheckpoints(address)": "3125",
				"permit(address,address,uint256,uint256,uint8,bytes32,bytes32)": "infinite",
				"symbol()": "infinite",
				"totalSupply()": "2505",
				"transfer(address,uint256)": "infinite",
				"transferFrom(address,address,uint256)": "infinite"
			},
			"internal": {
				"_afterTokenTransfer(address,address,uint256)": "infinite",
				"_beforeTokenTransfer(address,address,uint256)": "54",
				"_burn(address,uint256)": "infinite",
				"_mint(address,uint256)": "infinite"
			}
		},
		"methodIdentifiers": {
			"CLOCK_MODE()": "4bf5d7e9",
			"DOMAIN_SEPARATOR()": "3644e515",
			"allowance(address,address)": "dd62ed3e",
			"approve(address,uint256)": "095ea7b3",
			"balanceOf(address)": "70a08231",
			"cap()": "355274ea",
			"checkpoints(address,uint32)": "f1127ed8",
			"clock()": "91ddadf4",
			"decimals()": "313ce567",
			"decreaseAllowance(address,uint256)": "a457c2d7",
			"delegate(address)": "5c19a95c",
			"delegateBySig(address,uint256,uint256,uint8,bytes32,bytes32)": "c3cda520",
			"delegates(address)": "587cde1e",
			"eip712Domain()": "84b0196e",
			"getPastTotalSupply(uint256)": "8e539e8c",
			"getPastVotes(address,uint256)": "3a46b1a8",
			"getVotes(address)": "9ab24eb0",
			"increaseAllowance(address,uint256)": "39509351",
			"name()": "06fdde03",
			"nonces(address)": "7ecebe00",
			"numCheckpoints(address)": "6fcfff45",
			"permit(address,address,uint256,uint256,uint8,bytes32,bytes32)": "d505accf",
			"symbol()": "95d89b41",
			"totalSupply()": "18160ddd",
			"transfer(address,uint256)": "a9059cbb",
			"transferFrom(address,address,uint256)": "23b872dd"
		}
	},
	"abi": [
		{
			"inputs": [],
			"stateMutability": "nonpayable",
			"type": "constructor"
		},
		{
			"inputs": [],
			"name": "InvalidShortString",
			"type": "error"
		},
		{
			"inputs": [
				{
					"internalType": "string",
					"name": "str",
					"type": "string"
				}
			],
			"name": "StringTooLong",
			"type": "error"
		},
		{
			"anonymous": false,
			"inputs": [
				{
					"indexed": true,
					"internalType": "address",
					"name": "owner",
					"type": "address"
				},
				{
					"indexed": true,
					"internalType": "address",
					"name": "spender",
					"type": "address"
				},
				{
					"indexed": false,
					"internalType": "uint256",
					"name": "value",
					"type": "uint256"
				}
			],
			"name": "Approval",
			"type": "event"
		},
		{
			"anonymous": false,
			"inputs": [
				{
					"indexed": true,
					"internalType": "address",
					"name": "delegator",
					"type": "address"
				},
				{
					"indexed": true,
					"internalType": "address",
					"name": "fromDelegate",
					"type": "address"
				},
				{
					"indexed": true,
					"internalType": "address",
					"name": "toDelegate",
					"type": "address"
				}
			],
			"name": "DelegateChanged",
			"type": "event"
		},
		{
			"anonymous": false,
			"inputs": [
				{
					"indexed": true,
					"internalType": "address",
					"name": "delegate",
					"type": "address"
				},
				{
					"indexed": false,
					"internalType": "uint256",
					"name": "previousBalance",
					"type": "uint256"
				},
				{
					"indexed": false,
					"internalType": "uint256",
					"name": "newBalance",
					"type": "uint256"
				}
			],
			"name": "DelegateVotesChanged",
			"type": "event"
		},
		{
			"anonymous": false,
			"inputs": [],
			"name": "EIP712DomainChanged",
			"type": "event"
		},
		{
			"anonymous": false,
			"inputs": [
				{
					"indexed": true,
					"internalType": "address",
					"name": "from",
					"type": "address"
				},
				{
					"indexed": true,
					"internalType": "address",
					"name": "to",
					"type": "address"
				},
				{
					"indexed": false,
					"internalType": "uint256",
					"name": "value",
					"type": "uint256"
				}
			],
			"name": "Transfer",
			"type": "event"
		},
		{
			"inputs": [],
			"name": "CLOCK_MODE",
			"outputs": [
				{
					"internalType": "string",
					"name": "",
					"type": "string"
				}
			],
			"stateMutability": "view",
			"type": "function"
		},
		{
			"inputs": [],
			"name": "DOMAIN_SEPARATOR",
			"outputs": [
				{
					"internalType": "bytes32",
					"name": "",
					"type": "bytes32"
				}
			],
			"stateMutability": "view",
			"type": "function"
		},
		{
			"inputs": [
				{
					"internalType": "address",
					"name": "owner",
					"type": "address"
				},
				{
					"internalType": "address",
					"name": "spender",
					"type": "address"
				}
			],
			"name": "allowance",
			"outputs": [
				{
					"internalType": "uint256",
					"name": "",
					"type": "uint256"
				}
			],
			"stateMutability": "view",
			"type": "function"
		},
		{
			"inputs": [
				{
					"internalType": "address",
					"name": "spender",
					"type": "address"
				},
				{
					"internalType": "uint256",
					"name": "amount",
					"type": "uint256"
				}
			],
			"name": "approve",
			"outputs": [
				{
					"internalType": "bool",
					"name": "",
					"type": "bool"
				}
			],
			"stateMutability": "nonpayable",
			"type": "function"
		},
		{
			"inputs": [
				{
					"internalType": "address",
					"name": "account",
					"type": "address"
				}
			],
			"name": "balanceOf",
			"outputs": [
				{
					"internalType": "uint256",
					"name": "",
					"type": "uint256"
				}
			],
			"stateMutability": "view",
			"type": "function"
		},
		{
			"inputs": [],
			"name": "cap",
			"outputs": [
				{
					"internalType": "uint256",
					"name": "",
					"type": "uint256"
				}
			],
			"stateMutability": "view",
			"type": "function"
		},
		{
			"inputs": [
				{
					"internalType": "address",
					"name": "account",
					"type": "address"
				},
				{
					"internalType": "uint32",
					"name": "pos",
					"type": "uint32"
				}
			],
			"name": "checkpoints",
			"outputs": [
				{
					"components": [
						{
							"internalType": "uint32",
							"name": "fromBlock",
							"type": "uint32"
						},
						{
							"internalType": "uint224",
							"name": "votes",
							"type": "uint224"
						}
					],
					"internalType": "struct ERC20Votes.Checkpoint",
					"name": "",
					"type": "tuple"
				}
			],
			"stateMutability": "view",
			"type": "function"
		},
		{
			"inputs": [],
			"name": "clock",
			"outputs": [
				{
					"internalType": "uint48",
					"name": "",
					"type": "uint48"
				}
			],
			"stateMutability": "view",
			"type": "function"
		},
		{
			"inputs": [],
			"name": "decimals",
			"outputs": [
				{
					"internalType": "uint8",
					"name": "",
					"type": "uint8"
				}
			],
			"stateMutability": "view",
			"type": "function"
		},
		{
			"inputs": [
				{
					"internalType": "address",
					"name": "spender",
					"type": "address"
				},
				{
					"internalType": "uint256",
					"name": "subtractedValue",
					"type": "uint256"
				}
			],
			"name": "decreaseAllowance",
			"outputs": [
				{
					"internalType": "bool",
					"name": "",
					"type": "bool"
				}
			],
			"stateMutability": "nonpayable",
			"type": "function"
		},
		{
			"inputs": [
				{
					"internalType": "address",
					"name": "delegatee",
					"type": "address"
				}
			],
			"name": "delegate",
			"outputs": [],
			"stateMutability": "nonpayable",
			"type": "function"
		},
		{
			"inputs": [
				{
					"internalType": "address",
					"name": "delegatee",
					"type": "address"
				},
				{
					"internalType": "uint256",
					"name": "nonce",
					"type": "uint256"
				},
				{
					"internalType": "uint256",
					"name": "expiry",
					"type": "uint256"
				},
				{
					"internalType": "uint8",
					"name": "v",
					"type": "uint8"
				},
				{
					"internalType": "bytes32",
					"name": "r",
					"type": "bytes32"
				},
				{
					"internalType": "bytes32",
					"name": "s",
					"type": "bytes32"
				}
			],
			"name": "delegateBySig",
			"outputs": [],
			"stateMutability": "nonpayable",
			"type": "function"
		},
		{
			"inputs": [
				{
					"internalType": "address",
					"name": "account",
					"type": "address"
				}
			],
			"name": "delegates",
			"outputs": [
				{
					"internalType": "address",
					"name": "",
					"type": "address"
				}
			],
			"stateMutability": "view",
			"type": "function"
		},
		{
			"inputs": [],
			"name": "eip712Domain",
			"outputs": [
				{
					"internalType": "bytes1",
					"name": "fields",
					"type": "bytes1"
				},
				{
					"internalType": "string",
					"name": "name",
					"type": "string"
				},
				{
					"internalType": "string",
					"name": "version",
					"type": "string"
				},
				{
					"internalType": "uint256",
					"name": "chainId",
					"type": "uint256"
				},
				{
					"internalType": "address",
					"name": "verifyingContract",
					"type": "address"
				},
				{
					"internalType": "bytes32",
					"name": "salt",
					"type": "bytes32"
				},
				{
					"internalType": "uint256[]",
					"name": "extensions",
					"type": "uint256[]"
				}
			],
			"stateMutability": "view",
			"type": "function"
		},
		{
			"inputs": [
				{
					"internalType": "uint256",
					"name": "timepoint",
					"type": "uint256"
				}
			],
			"name": "getPastTotalSupply",
			"outputs": [
				{
					"internalType": "uint256",
					"name": "",
					"type": "uint256"
				}
			],
			"stateMutability": "view",
			"type": "function"
		},
		{
			"inputs": [
				{
					"internalType": "address",
					"name": "account",
					"type": "address"
				},
				{
					"internalType": "uint256",
					"name": "timepoint",
					"type": "uint256"
				}
			],
			"name": "getPastVotes",
			"outputs": [
				{
					"internalType": "uint256",
					"name": "",
					"type": "uint256"
				}
			],
			"stateMutability": "view",
			"type": "function"
		},
		{
			"inputs": [
				{
					"internalType": "address",
					"name": "account",
					"type": "address"
				}
			],
			"name": "getVotes",
			"outputs": [
				{
					"internalType": "uint256",
					"name": "",
					"type": "uint256"
				}
			],
			"stateMutability": "view",
			"type": "function"
		},
		{
			"inputs": [
				{
					"internalType": "address",
					"name": "spender",
					"type": "address"
				},
				{
					"internalType": "uint256",
					"name": "addedValue",
					"type": "uint256"
				}
			],
			"name": "increaseAllowance",
			"outputs": [
				{
					"internalType": "bool",
					"name": "",
					"type": "bool"
				}
			],
			"stateMutability": "nonpayable",
			"type": "function"
		},
		{
			"inputs": [],
			"name": "name",
			"outputs": [
				{
					"internalType": "string",
					"name": "",
					"type": "string"
				}
			],
			"stateMutability": "view",
			"type": "function"
		},
		{
			"inputs": [
				{
					"internalType": "address",
					"name": "owner",
					"type": "address"
				}
			],
			"name": "nonces",
			"outputs": [
				{
					"internalType": "uint256",
					"name": "",
					"type": "uint256"
				}
			],
			"stateMutability": "view",
			"type": "function"
		},
		{
			"inputs": [
				{
					"internalType": "address",
					"name": "account",
					"type": "address"
				}
			],
			"name": "numCheckpoints",
			"outputs": [
				{
					"internalType": "uint32",
					"name": "",
					"type": "uint32"
				}
			],
			"stateMutability": "view",
			"type": "function"
		},
		{
			"inputs": [
				{
					"internalType": "address",
					"name": "owner",
					"type": "address"
				},
				{
					"internalType": "address",
					"name": "spender",
					"type": "address"
				},
				{
					"internalType": "uint256",
					"name": "value",
					"type": "uint256"
				},
				{
					"internalType": "uint256",
					"name": "deadline",
					"type": "uint256"
				},
				{
					"internalType": "uint8",
					"name": "v",
					"type": "uint8"
				},
				{
					"internalType": "bytes32",
					"name": "r",
					"type": "bytes32"
				},
				{
					"internalType": "bytes32",
					"name": "s",
					"type": "bytes32"
				}
			],
			"name": "permit",
			"outputs": [],
			"stateMutability": "nonpayable",
			"type": "function"
		},
		{
			"inputs": [],
			"name": "symbol",
			"outputs": [
				{
					"internalType": "string",
					"name": "",
					"type": "string"
				}
			],
			"stateMutability": "view",
			"type": "function"
		},
		{
			"inputs": [],
			"name": "totalSupply",
			"outputs": [
				{
					"internalType": "uint256",
					"name": "",
					"type": "uint256"
				}
			],
			"stateMutability": "view",
			"type": "function"
		},
		{
			"inputs": [
				{
					"internalType": "address",
					"name": "to",
					"type": "address"
				},
				{
					"internalType": "uint256",
					"name": "amount",
					"type": "uint256"
				}
			],
			"name": "transfer",
			"outputs": [
				{
					"internalType": "bool",
					"name": "",
					"type": "bool"
				}
			],
			"stateMutability": "nonpayable",
			"type": "function"
		},
		{
			"inputs": [
				{
					"internalType": "address",
					"name": "from",
					"type": "address"
				},
				{
					"internalType": "address",
					"name": "to",
					"type": "address"
				},
				{
					"internalType": "uint256",
					"name": "amount",
					"type": "uint256"
				}
			],
			"name": "transferFrom",
			"outputs": [
				{
					"internalType": "bool",
					"name": "",
					"type": "bool"
				}
			],
			"stateMutability": "nonpayable",
			"type": "function"
		}
	]
}