{
	"data": {
		"bytecode": {
			"linkReferences": {},
			"object": "608060405234801561000f575f80fd5b5061003a7f2172861495e7b85edac73e3cd5fbb42dd675baadf627720e687bcfdaca0250963061003f565b6100dc565b5f828152602081815260408083206001600160a01b038516845290915290205460ff166100d8575f828152602081815260408083206001600160a01b03851684529091529020805460ff191660011790556100973390565b6001600160a01b0316816001600160a01b0316837f2f8788117e7eff1d82e926ec794901d17c78024a50270940304540a733656f0d60405160405180910390a45b5050565b611c27806100e95f395ff3fe608060405234801561000f575f80fd5b506004361061013d575f3560e01c8063a006294f116100b4578063d1a8dd2e11610079578063d1a8dd2e1461030a578063d391014b1461031d578063d547741f14610344578063ef78463f14610357578063fc406a021461036a578063fd7522e21461037d575f80fd5b8063a006294f14610284578063a217fddf14610297578063c5bb81591461029e578063c703278a146102c0578063cff92081146102eb575f80fd5b80633bdd8a9b116101055780633bdd8a9b146101e85780636708a436146101fb5780636a9f010b1461020f5780636b1a242a146102345780636d02ca9f1461024757806391d1485414610271575f80fd5b806301ffc9a7146101415780632371b2cf14610169578063248a9ca31461019e5780632f2ff15d146101c057806336568abe146101d5575b5f80fd5b61015461014f36600461150c565b6103a4565b60405190151581526020015b60405180910390f35b6101907f917a6160fa9b4361968cd14f786810932b4c8dbf43d8aeaec262e7c931f2741681565b604051908152602001610160565b6101906101ac366004611533565b5f9081526020819052604090206001015490565b6101d36101ce366004611565565b6103da565b005b6101d36101e3366004611565565b610403565b6101d36101f6366004611640565b610486565b6101905f80516020611bb283398151915281565b61015461021d366004611533565b5f9081526002602052604090206003015460ff1690565b6101d3610242366004611533565b6106f6565b610154610255366004611533565b5f90815260026020526040902060030154610100900460ff1690565b61015461027f366004611565565b610818565b6101d3610292366004611533565b610840565b6101905f81565b6101906102ac366004611533565b5f9081526002602052604090206001015490565b6101546102ce366004611533565b5f9081526002602052604090206003015462010000900460ff1690565b6101906102f9366004611533565b5f9081526002602052604090205490565b6101d361031836600461174d565b6109c5565b6101907f2172861495e7b85edac73e3cd5fbb42dd675baadf627720e687bcfdaca02509681565b6101d3610352366004611565565b610a4e565b6101d3610365366004611533565b610a72565b610154610378366004611533565b610c43565b6101907fe892760268ab8265e73c67b2387f8e09c46bd3818c36eebd25a5a4e862cf031881565b5f6001600160e01b03198216637965db0b60e01b14806103d457506301ffc9a760e01b6001600160e01b03198316145b92915050565b5f828152602081905260409020600101546103f481610eda565b6103fe8383610ee7565b505050565b6001600160a01b03811633146104785760405162461bcd60e51b815260206004820152602f60248201527f416363657373436f6e74726f6c3a2063616e206f6e6c792072656e6f756e636560448201526e103937b632b9903337b91039b2b63360891b60648201526084015b60405180910390fd5b6104828282610f6a565b5050565b5f80516020611bb283398151915261049d81610eda565b865160028110159060091015816104ed5760405162461bcd60e51b815260206004820152601460248201527339b4b3b732b939af973632b733ba34101f1e901960611b604482015260640161046f565b806105315760405162461bcd60e51b81526020600482015260146024820152737369676e6572735f2e6c656e677468203c3d203960601b604482015260640161046f565b6001805f828254610542919061179a565b90915550506001546040805161012081019091524280825291906020810161056a8c8561179a565b81526020018a81526020015f151581526020015f151581526020015f15158152602001896001600160a01b031681526020018881526020018781525060025f8381526020019081526020015f205f820151815f015560208201518160010155604082015181600201556060820151816003015f6101000a81548160ff02191690831515021790555060808201518160030160016101000a81548160ff02191690831515021790555060a08201518160030160026101000a81548160ff02191690831515021790555060c08201518160030160036101000a8154816001600160a01b0302191690836001600160a01b0316021790555060e08201518160040190816106749190611832565b50610100820151600582019061068a9082611832565b509050505f5b8b518110156106e8576106d58c82815181106106ae576106ae6118ee565b602002602001015160035f8581526020019081526020015f20610fce90919063ffffffff16565b50806106e081611902565b915050610690565b505050505050505050505050565b5f818152600260205260409020600101548190421080159061072a5760405162461bcd60e51b815260040161046f9061191a565b5f83815260026020526040902060030154839060ff16801561075e5760405162461bcd60e51b815260040161046f9061194e565b5f858152600260205260409020600301548590610100900460ff1680156107975760405162461bcd60e51b815260040161046f90611989565b5f80516020611bb28339815191526107ae81610eda565b5f8881526002602052604090819020600301805460ff191660011790555133907f6f8d378fdfefc2f30423fc5f253857bdedecb65f6b917cb1a2216ece60d86ad690610806908b904290918252602082015260400190565b60405180910390a25050505050505050565b5f918252602082815260408084206001600160a01b0393909316845291905290205460ff1690565b5f81815260026020526040902060010154819042108015906108745760405162461bcd60e51b815260040161046f9061191a565b5f83815260026020526040902060030154839060ff1680156108a85760405162461bcd60e51b815260040161046f9061194e565b5f8581526004602052604081208691906108c29033610fe9565b90508061092f5760405162461bcd60e51b815260206004820152603560248201527f63616c6c657220686173206e6f74207369676e656420666f722073656c6563746044820152741959081b5d5b1d1a481cda59c81c1c9bdc1bdcd85b605a1b606482015260840161046f565b5f8781526003602052604081208891906109499033610fe9565b9050806109685760405162461bcd60e51b815260040161046f906119c7565b5f89815260046020526040902061097f903361100a565b50604080518a815242602082015233917f3899555e234af4b23ccd4d5cbb21bb3598913aae9624d1ea8ba81aba3d79c0ae910160405180910390a2505050505050505050565b7f2172861495e7b85edac73e3cd5fbb42dd675baadf627720e687bcfdaca0250966109ef81610eda565b6001600160a01b0383165f81815260056020908152604091829020805460ff191686151590811790915591519182527f886b99fabe6dc54ace264fa831ea6f7e9b0fee2b24308316f5c78edccd2cbd9a910160405180910390a2505050565b5f82815260208190526040902060010154610a6881610eda565b6103fe8383610f6a565b5f8181526002602052604090206001015481904210801590610aa65760405162461bcd60e51b815260040161046f9061191a565b5f83815260026020526040902060030154839060ff168015610ada5760405162461bcd60e51b815260040161046f9061194e565b5f858152600460205260408120869190610af49033610fe9565b90508015610b6a5760405162461bcd60e51b815260206004820152603960248201527f63616c6c65722068617320616c7265616479207369676e656420666f7220736560448201527f6c6563746564206d756c7469207369672070726f706f73616c00000000000000606482015260840161046f565b5f878152600360205260408120889190610b849033610fe9565b905080610ba35760405162461bcd60e51b815260040161046f906119c7565b5f898152600460205260409020610bba9033610fce565b50604080518a815242602082015233917f65c6a5495c336c3b8aff2bea37f4d8440fdb0a2c30c23c1a0db4a659856c0cfc910160405180910390a25f898152600460205260408120610c0b9061101e565b5f8b8152600360205260409020610c219061101e565b610c2c906064611a24565b610c369190611a3b565b5050505050505050505050565b5f8181526002602052604081206001015482904210801590610c775760405162461bcd60e51b815260040161046f9061191a565b5f84815260026020526040902060030154849060ff168015610cab5760405162461bcd60e51b815260040161046f9061194e565b5f86815260026020526040902060030154869062010000900460ff1680610d195760405162461bcd60e51b815260206004820152602f60248201525f80516020611bd283398151915260448201526e1b9bdd081899595b881c185cdcd959608a1b606482015260840161046f565b5f888152600260205260409020600301548890610100900460ff168015610d525760405162461bcd60e51b815260040161046f90611989565b5f80516020611bb2833981519152610d6981610eda565b5f8b815260026020526040812060038101546004909101805463010000009092046001600160a01b03169291610d9e906117ad565b80601f0160208091040260200160405190810160405280929190818152602001828054610dca906117ad565b8015610e155780601f10610dec57610100808354040283529160200191610e15565b820191905f5260205f20905b815481529060010190602001808311610df857829003601f168201915b505050505090505f60025f8f81526020019081526020015f206005018054610e3c906117ad565b80601f0160208091040260200160405190810160405280929190818152602001828054610e68906117ad565b8015610eb35780601f10610e8a57610100808354040283529160200191610eb3565b820191905f5260205f20905b815481529060010190602001808311610e9657829003601f168201915b50505050509050610ec5838383611027565b5060019e9d5050505050505050505050505050565b610ee481336111dc565b50565b610ef18282610818565b610482575f828152602081815260408083206001600160a01b03851684529091529020805460ff19166001179055610f263390565b6001600160a01b0316816001600160a01b0316837f2f8788117e7eff1d82e926ec794901d17c78024a50270940304540a733656f0d60405160405180910390a45050565b610f748282610818565b15610482575f828152602081815260408083206001600160a01b0385168085529252808320805460ff1916905551339285917ff6391f5c32d9c69d2a47ea670b442974b53935d1edc7fd64eb21e047a839171b9190a45050565b5f610fe2836001600160a01b038416611235565b9392505050565b6001600160a01b0381165f9081526001830160205260408120541515610fe2565b5f610fe2836001600160a01b038416611281565b5f6103d4825490565b6001600160a01b0383165f90815260056020526040812054849060ff166110905760405162461bcd60e51b815260206004820152601b60248201527f636f6e7472616374206973206e6f742077686974656c69737465640000000000604482015260640161046f565b5f856001600160a01b031685856040516024016110ad9190611aa7565b60408051601f1981840301815290829052916110c891611ab9565b60408051918290039091206020830180516001600160e01b03166001600160e01b0319909216919091179052516110ff9190611ab9565b5f60405180830381855af49150503d805f8114611137576040519150601f19603f3d011682016040523d82523d5f602084013e61113c565b606091505b505090508061118d5760405162461bcd60e51b815260206004820152601760248201527f63616c6c20776173206e6f74207375636365737366756c000000000000000000604482015260640161046f565b856001600160a01b03167f252691dd33f541d0df9a4b90b1e016c53c8cf013a20e926499ff41a6b3908d8886866040516111c8929190611ad4565b60405180910390a250600195945050505050565b6111e68282610818565b610482576111f381611364565b6111fe836020611376565b60405160200161120f929190611b01565b60408051601f198184030181529082905262461bcd60e51b825261046f91600401611aa7565b5f81815260018301602052604081205461127a57508154600181810184555f8481526020808220909301849055845484825282860190935260409020919091556103d4565b505f6103d4565b5f818152600183016020526040812054801561135b575f6112a3600183611b75565b85549091505f906112b690600190611b75565b9050818114611315575f865f0182815481106112d4576112d46118ee565b905f5260205f200154905080875f0184815481106112f4576112f46118ee565b5f918252602080832090910192909255918252600188019052604090208390555b855486908061132657611326611b88565b600190038181905f5260205f20015f90559055856001015f8681526020019081526020015f205f9055600193505050506103d4565b5f9150506103d4565b60606103d46001600160a01b03831660145b60605f611384836002611a24565b61138f90600261179a565b67ffffffffffffffff8111156113a7576113a761158f565b6040519080825280601f01601f1916602001820160405280156113d1576020820181803683370190505b509050600360fc1b815f815181106113eb576113eb6118ee565b60200101906001600160f81b03191690815f1a905350600f60fb1b81600181518110611419576114196118ee565b60200101906001600160f81b03191690815f1a9053505f61143b846002611a24565b61144690600161179a565b90505b60018111156114bd576f181899199a1a9b1b9c1cb0b131b232b360811b85600f166010811061147a5761147a6118ee565b1a60f81b828281518110611490576114906118ee565b60200101906001600160f81b03191690815f1a90535060049490941c936114b681611b9c565b9050611449565b508315610fe25760405162461bcd60e51b815260206004820181905260248201527f537472696e67733a20686578206c656e67746820696e73756666696369656e74604482015260640161046f565b5f6020828403121561151c575f80fd5b81356001600160e01b031981168114610fe2575f80fd5b5f60208284031215611543575f80fd5b5035919050565b80356001600160a01b0381168114611560575f80fd5b919050565b5f8060408385031215611576575f80fd5b823591506115866020840161154a565b90509250929050565b634e487b7160e01b5f52604160045260245ffd5b604051601f8201601f1916810167ffffffffffffffff811182821017156115cc576115cc61158f565b604052919050565b5f82601f8301126115e3575f80fd5b813567ffffffffffffffff8111156115fd576115fd61158f565b611610601f8201601f19166020016115a3565b818152846020838601011115611624575f80fd5b816020850160208301375f918101602001919091529392505050565b5f805f805f8060c08789031215611655575f80fd5b863567ffffffffffffffff8082111561166c575f80fd5b818901915089601f83011261167f575f80fd5b81356020828211156116935761169361158f565b8160051b6116a28282016115a3565b928352848101820192828101908e8511156116bb575f80fd5b958301955b848710156116e0576116d18761154a565b825295830195908301906116c0565b9b5050508a0135975050604089013595506116fd60608a0161154a565b94506080890135915080821115611712575f80fd5b61171e8a838b016115d4565b935060a0890135915080821115611733575f80fd5b5061174089828a016115d4565b9150509295509295509295565b5f806040838503121561175e575f80fd5b6117678361154a565b91506020830135801515811461177b575f80fd5b809150509250929050565b634e487b7160e01b5f52601160045260245ffd5b808201808211156103d4576103d4611786565b600181811c908216806117c157607f821691505b6020821081036117df57634e487b7160e01b5f52602260045260245ffd5b50919050565b601f8211156103fe575f81815260208120601f850160051c8101602086101561180b5750805b601f850160051c820191505b8181101561182a57828155600101611817565b505050505050565b815167ffffffffffffffff81111561184c5761184c61158f565b6118608161185a84546117ad565b846117e5565b602080601f831160018114611893575f841561187c5750858301515b5f19600386901b1c1916600185901b17855561182a565b5f85815260208120601f198616915b828110156118c1578886015182559484019460019091019084016118a2565b50858210156118de57878501515f19600388901b60f8161c191681555b5050505050600190811b01905550565b634e487b7160e01b5f52603260045260245ffd5b5f6001820161191357611913611786565b5060010190565b60208082526027908201525f80516020611bd2833981519152604082015266195e1c1a5c995960ca1b606082015260800190565b6020808252602e908201525f80516020611bd283398151915260408201526d1899595b8818d85b98d95b1b195960921b606082015260800190565b60208082526031908201525f80516020611bd28339815191526040820152701b9bdd081899595b88195e1958dd5d1959607a1b606082015260800190565b6020808252603a908201527f63616c6c6572206973206e6f742061207369676e657220666f7220746865207360408201527f656c6563746564206d756c7469207369672070726f706f73616c000000000000606082015260800190565b80820281158282048414176103d4576103d4611786565b5f82611a5557634e487b7160e01b5f52601260045260245ffd5b500490565b5f5b83811015611a74578181015183820152602001611a5c565b50505f910152565b5f8151808452611a93816020860160208601611a5a565b601f01601f19169290920160200192915050565b602081525f610fe26020830184611a7c565b5f8251611aca818460208701611a5a565b9190910192915050565b604081525f611ae66040830185611a7c565b8281036020840152611af88185611a7c565b95945050505050565b7f416363657373436f6e74726f6c3a206163636f756e742000000000000000000081525f8351611b38816017850160208801611a5a565b7001034b99036b4b9b9b4b733903937b6329607d1b6017918401918201528351611b69816028840160208801611a5a565b01602801949350505050565b818103818111156103d4576103d4611786565b634e487b7160e01b5f52603160045260245ffd5b5f81611baa57611baa611786565b505f19019056fe47591fe9b3890b87c7c043cb927ef194625cccad01ddfc64c8238b926e67749073656c6563746564206d756c7469207369672070726f706f73616c2068617320a2646970667358221220ff9c8a19108883434d9d96637beaf9c3eacd81e1a317529ab49ba3b0f6e1af4564736f6c63430008140033",
			"opcodes": "PUSH1 0x80 PUSH1 0x40 MSTORE CALLVALUE DUP1 ISZERO PUSH2 0xF JUMPI PUSH0 DUP1 REVERT JUMPDEST POP PUSH2 0x3A PUSH32 0x2172861495E7B85EDAC73E3CD5FBB42DD675BAADF627720E687BCFDACA025096 ADDRESS PUSH2 0x3F JUMP JUMPDEST PUSH2 0xDC JUMP JUMPDEST PUSH0 DUP3 DUP2 MSTORE PUSH1 0x20 DUP2 DUP2 MSTORE PUSH1 0x40 DUP1 DUP4 KECCAK256 PUSH1 0x1 PUSH1 0x1 PUSH1 0xA0 SHL SUB DUP6 AND DUP5 MSTORE SWAP1 SWAP2 MSTORE SWAP1 KECCAK256 SLOAD PUSH1 0xFF AND PUSH2 0xD8 JUMPI PUSH0 DUP3 DUP2 MSTORE PUSH1 0x20 DUP2 DUP2 MSTORE PUSH1 0x40 DUP1 DUP4 KECCAK256 PUSH1 0x1 PUSH1 0x1 PUSH1 0xA0 SHL SUB DUP6 AND DUP5 MSTORE SWAP1 SWAP2 MSTORE SWAP1 KECCAK256 DUP1 SLOAD PUSH1 0xFF NOT AND PUSH1 0x1 OR SWAP1 SSTORE PUSH2 0x97 CALLER SWAP1 JUMP JUMPDEST PUSH1 0x1 PUSH1 0x1 PUSH1 0xA0 SHL SUB AND DUP2 PUSH1 0x1 PUSH1 0x1 PUSH1 0xA0 SHL SUB AND DUP4 PUSH32 0x2F8788117E7EFF1D82E926EC794901D17C78024A50270940304540A733656F0D PUSH1 0x40 MLOAD PUSH1 0x40 MLOAD DUP1 SWAP2 SUB SWAP1 LOG4 JUMPDEST POP POP JUMP JUMPDEST PUSH2 0x1C27 DUP1 PUSH2 0xE9 PUSH0 CODECOPY PUSH0 RETURN INVALID PUSH1 0x80 PUSH1 0x40 MSTORE CALLVALUE DUP1 ISZERO PUSH2 0xF JUMPI PUSH0 DUP1 REVERT JUMPDEST POP PUSH1 0x4 CALLDATASIZE LT PUSH2 0x13D JUMPI PUSH0 CALLDATALOAD PUSH1 0xE0 SHR DUP1 PUSH4 0xA006294F GT PUSH2 0xB4 JUMPI DUP1 PUSH4 0xD1A8DD2E GT PUSH2 0x79 JUMPI DUP1 PUSH4 0xD1A8DD2E EQ PUSH2 0x30A JUMPI DUP1 PUSH4 0xD391014B EQ PUSH2 0x31D JUMPI DUP1 PUSH4 0xD547741F EQ PUSH2 0x344 JUMPI DUP1 PUSH4 0xEF78463F EQ PUSH2 0x357 JUMPI DUP1 PUSH4 0xFC406A02 EQ PUSH2 0x36A JUMPI DUP1 PUSH4 0xFD7522E2 EQ PUSH2 0x37D JUMPI PUSH0 DUP1 REVERT JUMPDEST DUP1 PUSH4 0xA006294F EQ PUSH2 0x284 JUMPI DUP1 PUSH4 0xA217FDDF EQ PUSH2 0x297 JUMPI DUP1 PUSH4 0xC5BB8159 EQ PUSH2 0x29E JUMPI DUP1 PUSH4 0xC703278A EQ PUSH2 0x2C0 JUMPI DUP1 PUSH4 0xCFF92081 EQ PUSH2 0x2EB JUMPI PUSH0 DUP1 REVERT JUMPDEST DUP1 PUSH4 0x3BDD8A9B GT PUSH2 0x105 JUMPI DUP1 PUSH4 0x3BDD8A9B EQ PUSH2 0x1E8 JUMPI DUP1 PUSH4 0x6708A436 EQ PUSH2 0x1FB JUMPI DUP1 PUSH4 0x6A9F010B EQ PUSH2 0x20F JUMPI DUP1 PUSH4 0x6B1A242A EQ PUSH2 0x234 JUMPI DUP1 PUSH4 0x6D02CA9F EQ PUSH2 0x247 JUMPI DUP1 PUSH4 0x91D14854 EQ PUSH2 0x271 JUMPI PUSH0 DUP1 REVERT JUMPDEST DUP1 PUSH4 0x1FFC9A7 EQ PUSH2 0x141 JUMPI DUP1 PUSH4 0x2371B2CF EQ PUSH2 0x169 JUMPI DUP1 PUSH4 0x248A9CA3 EQ PUSH2 0x19E JUMPI DUP1 PUSH4 0x2F2FF15D EQ PUSH2 0x1C0 JUMPI DUP1 PUSH4 0x36568ABE EQ PUSH2 0x1D5 JUMPI JUMPDEST PUSH0 DUP1 REVERT JUMPDEST PUSH2 0x154 PUSH2 0x14F CALLDATASIZE PUSH1 0x4 PUSH2 0x150C JUMP JUMPDEST PUSH2 0x3A4 JUMP JUMPDEST PUSH1 0x40 MLOAD SWAP1 ISZERO ISZERO DUP2 MSTORE PUSH1 0x20 ADD JUMPDEST PUSH1 0x40 MLOAD DUP1 SWAP2 SUB SWAP1 RETURN JUMPDEST PUSH2 0x190 PUSH32 0x917A6160FA9B4361968CD14F786810932B4C8DBF43D8AEAEC262E7C931F27416 DUP2 JUMP JUMPDEST PUSH1 0x40 MLOAD SWAP1 DUP2 MSTORE PUSH1 0x20 ADD PUSH2 0x160 JUMP JUMPDEST PUSH2 0x190 PUSH2 0x1AC CALLDATASIZE PUSH1 0x4 PUSH2 0x1533 JUMP JUMPDEST PUSH0 SWAP1 DUP2 MSTORE PUSH1 0x20 DUP2 SWAP1 MSTORE PUSH1 0x40 SWAP1 KECCAK256 PUSH1 0x1 ADD SLOAD SWAP1 JUMP JUMPDEST PUSH2 0x1D3 PUSH2 0x1CE CALLDATASIZE PUSH1 0x4 PUSH2 0x1565 JUMP JUMPDEST PUSH2 0x3DA JUMP JUMPDEST STOP JUMPDEST PUSH2 0x1D3 PUSH2 0x1E3 CALLDATASIZE PUSH1 0x4 PUSH2 0x1565 JUMP JUMPDEST PUSH2 0x403 JUMP JUMPDEST PUSH2 0x1D3 PUSH2 0x1F6 CALLDATASIZE PUSH1 0x4 PUSH2 0x1640 JUMP JUMPDEST PUSH2 0x486 JUMP JUMPDEST PUSH2 0x190 PUSH0 DUP1 MLOAD PUSH1 0x20 PUSH2 0x1BB2 DUP4 CODECOPY DUP2 MLOAD SWAP2 MSTORE DUP2 JUMP JUMPDEST PUSH2 0x154 PUSH2 0x21D CALLDATASIZE PUSH1 0x4 PUSH2 0x1533 JUMP JUMPDEST PUSH0 SWAP1 DUP2 MSTORE PUSH1 0x2 PUSH1 0x20 MSTORE PUSH1 0x40 SWAP1 KECCAK256 PUSH1 0x3 ADD SLOAD PUSH1 0xFF AND SWAP1 JUMP JUMPDEST PUSH2 0x1D3 PUSH2 0x242 CALLDATASIZE PUSH1 0x4 PUSH2 0x1533 JUMP JUMPDEST PUSH2 0x6F6 JUMP JUMPDEST PUSH2 0x154 PUSH2 0x255 CALLDATASIZE PUSH1 0x4 PUSH2 0x1533 JUMP JUMPDEST PUSH0 SWAP1 DUP2 MSTORE PUSH1 0x2 PUSH1 0x20 MSTORE PUSH1 0x40 SWAP1 KECCAK256 PUSH1 0x3 ADD SLOAD PUSH2 0x100 SWAP1 DIV PUSH1 0xFF AND SWAP1 JUMP JUMPDEST PUSH2 0x154 PUSH2 0x27F CALLDATASIZE PUSH1 0x4 PUSH2 0x1565 JUMP JUMPDEST PUSH2 0x818 JUMP JUMPDEST PUSH2 0x1D3 PUSH2 0x292 CALLDATASIZE PUSH1 0x4 PUSH2 0x1533 JUMP JUMPDEST PUSH2 0x840 JUMP JUMPDEST PUSH2 0x190 PUSH0 DUP2 JUMP JUMPDEST PUSH2 0x190 PUSH2 0x2AC CALLDATASIZE PUSH1 0x4 PUSH2 0x1533 JUMP JUMPDEST PUSH0 SWAP1 DUP2 MSTORE PUSH1 0x2 PUSH1 0x20 MSTORE PUSH1 0x40 SWAP1 KECCAK256 PUSH1 0x1 ADD SLOAD SWAP1 JUMP JUMPDEST PUSH2 0x154 PUSH2 0x2CE CALLDATASIZE PUSH1 0x4 PUSH2 0x1533 JUMP JUMPDEST PUSH0 SWAP1 DUP2 MSTORE PUSH1 0x2 PUSH1 0x20 MSTORE PUSH1 0x40 SWAP1 KECCAK256 PUSH1 0x3 ADD SLOAD PUSH3 0x10000 SWAP1 DIV PUSH1 0xFF AND SWAP1 JUMP JUMPDEST PUSH2 0x190 PUSH2 0x2F9 CALLDATASIZE PUSH1 0x4 PUSH2 0x1533 JUMP JUMPDEST PUSH0 SWAP1 DUP2 MSTORE PUSH1 0x2 PUSH1 0x20 MSTORE PUSH1 0x40 SWAP1 KECCAK256 SLOAD SWAP1 JUMP JUMPDEST PUSH2 0x1D3 PUSH2 0x318 CALLDATASIZE PUSH1 0x4 PUSH2 0x174D JUMP JUMPDEST PUSH2 0x9C5 JUMP JUMPDEST PUSH2 0x190 PUSH32 0x2172861495E7B85EDAC73E3CD5FBB42DD675BAADF627720E687BCFDACA025096 DUP2 JUMP JUMPDEST PUSH2 0x1D3 PUSH2 0x352 CALLDATASIZE PUSH1 0x4 PUSH2 0x1565 JUMP JUMPDEST PUSH2 0xA4E JUMP JUMPDEST PUSH2 0x1D3 PUSH2 0x365 CALLDATASIZE PUSH1 0x4 PUSH2 0x1533 JUMP JUMPDEST PUSH2 0xA72 JUMP JUMPDEST PUSH2 0x154 PUSH2 0x378 CALLDATASIZE PUSH1 0x4 PUSH2 0x1533 JUMP JUMPDEST PUSH2 0xC43 JUMP JUMPDEST PUSH2 0x190 PUSH32 0xE892760268AB8265E73C67B2387F8E09C46BD3818C36EEBD25A5A4E862CF0318 DUP2 JUMP JUMPDEST PUSH0 PUSH1 0x1 PUSH1 0x1 PUSH1 0xE0 SHL SUB NOT DUP3 AND PUSH4 0x7965DB0B PUSH1 0xE0 SHL EQ DUP1 PUSH2 0x3D4 JUMPI POP PUSH4 0x1FFC9A7 PUSH1 0xE0 SHL PUSH1 0x1 PUSH1 0x1 PUSH1 0xE0 SHL SUB NOT DUP4 AND EQ JUMPDEST SWAP3 SWAP2 POP POP JUMP JUMPDEST PUSH0 DUP3 DUP2 MSTORE PUSH1 0x20 DUP2 SWAP1 MSTORE PUSH1 0x40 SWAP1 KECCAK256 PUSH1 0x1 ADD SLOAD PUSH2 0x3F4 DUP2 PUSH2 0xEDA JUMP JUMPDEST PUSH2 0x3FE DUP4 DUP4 PUSH2 0xEE7 JUMP JUMPDEST POP POP POP JUMP JUMPDEST PUSH1 0x1 PUSH1 0x1 PUSH1 0xA0 SHL SUB DUP2 AND CALLER EQ PUSH2 0x478 JUMPI PUSH1 0x40 MLOAD PUSH3 0x461BCD PUSH1 0xE5 SHL DUP2 MSTORE PUSH1 0x20 PUSH1 0x4 DUP3 ADD MSTORE PUSH1 0x2F PUSH1 0x24 DUP3 ADD MSTORE PUSH32 0x416363657373436F6E74726F6C3A2063616E206F6E6C792072656E6F756E6365 PUSH1 0x44 DUP3 ADD MSTORE PUSH15 0x103937B632B9903337B91039B2B633 PUSH1 0x89 SHL PUSH1 0x64 DUP3 ADD MSTORE PUSH1 0x84 ADD JUMPDEST PUSH1 0x40 MLOAD DUP1 SWAP2 SUB SWAP1 REVERT JUMPDEST PUSH2 0x482 DUP3 DUP3 PUSH2 0xF6A JUMP JUMPDEST POP POP JUMP JUMPDEST PUSH0 DUP1 MLOAD PUSH1 0x20 PUSH2 0x1BB2 DUP4 CODECOPY DUP2 MLOAD SWAP2 MSTORE PUSH2 0x49D DUP2 PUSH2 0xEDA JUMP JUMPDEST DUP7 MLOAD PUSH1 0x2 DUP2 LT ISZERO SWAP1 PUSH1 0x9 LT ISZERO DUP2 PUSH2 0x4ED JUMPI PUSH1 0x40 MLOAD PUSH3 0x461BCD PUSH1 0xE5 SHL DUP2 MSTORE PUSH1 0x20 PUSH1 0x4 DUP3 ADD MSTORE PUSH1 0x14 PUSH1 0x24 DUP3 ADD MSTORE PUSH20 0x39B4B3B732B939AF973632B733BA34101F1E9019 PUSH1 0x61 SHL PUSH1 0x44 DUP3 ADD MSTORE PUSH1 0x64 ADD PUSH2 0x46F JUMP JUMPDEST DUP1 PUSH2 0x531 JUMPI PUSH1 0x40 MLOAD PUSH3 0x461BCD PUSH1 0xE5 SHL DUP2 MSTORE PUSH1 0x20 PUSH1 0x4 DUP3 ADD MSTORE PUSH1 0x14 PUSH1 0x24 DUP3 ADD MSTORE PUSH20 0x7369676E6572735F2E6C656E677468203C3D2039 PUSH1 0x60 SHL PUSH1 0x44 DUP3 ADD MSTORE PUSH1 0x64 ADD PUSH2 0x46F JUMP JUMPDEST PUSH1 0x1 DUP1 PUSH0 DUP3 DUP3 SLOAD PUSH2 0x542 SWAP2 SWAP1 PUSH2 0x179A JUMP JUMPDEST SWAP1 SWAP2 SSTORE POP POP PUSH1 0x1 SLOAD PUSH1 0x40 DUP1 MLOAD PUSH2 0x120 DUP2 ADD SWAP1 SWAP2 MSTORE TIMESTAMP DUP1 DUP3 MSTORE SWAP2 SWAP1 PUSH1 0x20 DUP2 ADD PUSH2 0x56A DUP13 DUP6 PUSH2 0x179A JUMP JUMPDEST DUP2 MSTORE PUSH1 0x20 ADD DUP11 DUP2 MSTORE PUSH1 0x20 ADD PUSH0 ISZERO ISZERO DUP2 MSTORE PUSH1 0x20 ADD PUSH0 ISZERO ISZERO DUP2 MSTORE PUSH1 0x20 ADD PUSH0 ISZERO ISZERO DUP2 MSTORE PUSH1 0x20 ADD DUP10 PUSH1 0x1 PUSH1 0x1 PUSH1 0xA0 SHL SUB AND DUP2 MSTORE PUSH1 0x20 ADD DUP9 DUP2 MSTORE PUSH1 0x20 ADD DUP8 DUP2 MSTORE POP PUSH1 0x2 PUSH0 DUP4 DUP2 MSTORE PUSH1 0x20 ADD SWAP1 DUP2 MSTORE PUSH1 0x20 ADD PUSH0 KECCAK256 PUSH0 DUP3 ADD MLOAD DUP2 PUSH0 ADD SSTORE PUSH1 0x20 DUP3 ADD MLOAD DUP2 PUSH1 0x1 ADD SSTORE PUSH1 0x40 DUP3 ADD MLOAD DUP2 PUSH1 0x2 ADD SSTORE PUSH1 0x60 DUP3 ADD MLOAD DUP2 PUSH1 0x3 ADD PUSH0 PUSH2 0x100 EXP DUP2 SLOAD DUP2 PUSH1 0xFF MUL NOT AND SWAP1 DUP4 ISZERO ISZERO MUL OR SWAP1 SSTORE POP PUSH1 0x80 DUP3 ADD MLOAD DUP2 PUSH1 0x3 ADD PUSH1 0x1 PUSH2 0x100 EXP DUP2 SLOAD DUP2 PUSH1 0xFF MUL NOT AND SWAP1 DUP4 ISZERO ISZERO MUL OR SWAP1 SSTORE POP PUSH1 0xA0 DUP3 ADD MLOAD DUP2 PUSH1 0x3 ADD PUSH1 0x2 PUSH2 0x100 EXP DUP2 SLOAD DUP2 PUSH1 0xFF MUL NOT AND SWAP1 DUP4 ISZERO ISZERO MUL OR SWAP1 SSTORE POP PUSH1 0xC0 DUP3 ADD MLOAD DUP2 PUSH1 0x3 ADD PUSH1 0x3 PUSH2 0x100 EXP DUP2 SLOAD DUP2 PUSH1 0x1 PUSH1 0x1 PUSH1 0xA0 SHL SUB MUL NOT AND SWAP1 DUP4 PUSH1 0x1 PUSH1 0x1 PUSH1 0xA0 SHL SUB AND MUL OR SWAP1 SSTORE POP PUSH1 0xE0 DUP3 ADD MLOAD DUP2 PUSH1 0x4 ADD SWAP1 DUP2 PUSH2 0x674 SWAP2 SWAP1 PUSH2 0x1832 JUMP JUMPDEST POP PUSH2 0x100 DUP3 ADD MLOAD PUSH1 0x5 DUP3 ADD SWAP1 PUSH2 0x68A SWAP1 DUP3 PUSH2 0x1832 JUMP JUMPDEST POP SWAP1 POP POP PUSH0 JUMPDEST DUP12 MLOAD DUP2 LT ISZERO PUSH2 0x6E8 JUMPI PUSH2 0x6D5 DUP13 DUP3 DUP2 MLOAD DUP2 LT PUSH2 0x6AE JUMPI PUSH2 0x6AE PUSH2 0x18EE JUMP JUMPDEST PUSH1 0x20 MUL PUSH1 0x20 ADD ADD MLOAD PUSH1 0x3 PUSH0 DUP6 DUP2 MSTORE PUSH1 0x20 ADD SWAP1 DUP2 MSTORE PUSH1 0x20 ADD PUSH0 KECCAK256 PUSH2 0xFCE SWAP1 SWAP2 SWAP1 PUSH4 0xFFFFFFFF AND JUMP JUMPDEST POP DUP1 PUSH2 0x6E0 DUP2 PUSH2 0x1902 JUMP JUMPDEST SWAP2 POP POP PUSH2 0x690 JUMP JUMPDEST POP POP POP POP POP POP POP POP POP POP POP POP JUMP JUMPDEST PUSH0 DUP2 DUP2 MSTORE PUSH1 0x2 PUSH1 0x20 MSTORE PUSH1 0x40 SWAP1 KECCAK256 PUSH1 0x1 ADD SLOAD DUP2 SWAP1 TIMESTAMP LT DUP1 ISZERO SWAP1 PUSH2 0x72A JUMPI PUSH1 0x40 MLOAD PUSH3 0x461BCD PUSH1 0xE5 SHL DUP2 MSTORE PUSH1 0x4 ADD PUSH2 0x46F SWAP1 PUSH2 0x191A JUMP JUMPDEST PUSH0 DUP4 DUP2 MSTORE PUSH1 0x2 PUSH1 0x20 MSTORE PUSH1 0x40 SWAP1 KECCAK256 PUSH1 0x3 ADD SLOAD DUP4 SWAP1 PUSH1 0xFF AND DUP1 ISZERO PUSH2 0x75E JUMPI PUSH1 0x40 MLOAD PUSH3 0x461BCD PUSH1 0xE5 SHL DUP2 MSTORE PUSH1 0x4 ADD PUSH2 0x46F SWAP1 PUSH2 0x194E JUMP JUMPDEST PUSH0 DUP6 DUP2 MSTORE PUSH1 0x2 PUSH1 0x20 MSTORE PUSH1 0x40 SWAP1 KECCAK256 PUSH1 0x3 ADD SLOAD DUP6 SWAP1 PUSH2 0x100 SWAP1 DIV PUSH1 0xFF AND DUP1 ISZERO PUSH2 0x797 JUMPI PUSH1 0x40 MLOAD PUSH3 0x461BCD PUSH1 0xE5 SHL DUP2 MSTORE PUSH1 0x4 ADD PUSH2 0x46F SWAP1 PUSH2 0x1989 JUMP JUMPDEST PUSH0 DUP1 MLOAD PUSH1 0x20 PUSH2 0x1BB2 DUP4 CODECOPY DUP2 MLOAD SWAP2 MSTORE PUSH2 0x7AE DUP2 PUSH2 0xEDA JUMP JUMPDEST PUSH0 DUP9 DUP2 MSTORE PUSH1 0x2 PUSH1 0x20 MSTORE PUSH1 0x40 SWAP1 DUP2 SWAP1 KECCAK256 PUSH1 0x3 ADD DUP1 SLOAD PUSH1 0xFF NOT AND PUSH1 0x1 OR SWAP1 SSTORE MLOAD CALLER SWAP1 PUSH32 0x6F8D378FDFEFC2F30423FC5F253857BDEDECB65F6B917CB1A2216ECE60D86AD6 SWAP1 PUSH2 0x806 SWAP1 DUP12 SWAP1 TIMESTAMP SWAP1 SWAP2 DUP3 MSTORE PUSH1 0x20 DUP3 ADD MSTORE PUSH1 0x40 ADD SWAP1 JUMP JUMPDEST PUSH1 0x40 MLOAD DUP1 SWAP2 SUB SWAP1 LOG2 POP POP POP POP POP POP POP POP JUMP JUMPDEST PUSH0 SWAP2 DUP3 MSTORE PUSH1 0x20 DUP3 DUP2 MSTORE PUSH1 0x40 DUP1 DUP5 KECCAK256 PUSH1 0x1 PUSH1 0x1 PUSH1 0xA0 SHL SUB SWAP4 SWAP1 SWAP4 AND DUP5 MSTORE SWAP2 SWAP1 MSTORE SWAP1 KECCAK256 SLOAD PUSH1 0xFF AND SWAP1 JUMP JUMPDEST PUSH0 DUP2 DUP2 MSTORE PUSH1 0x2 PUSH1 0x20 MSTORE PUSH1 0x40 SWAP1 KECCAK256 PUSH1 0x1 ADD SLOAD DUP2 SWAP1 TIMESTAMP LT DUP1 ISZERO SWAP1 PUSH2 0x874 JUMPI PUSH1 0x40 MLOAD PUSH3 0x461BCD PUSH1 0xE5 SHL DUP2 MSTORE PUSH1 0x4 ADD PUSH2 0x46F SWAP1 PUSH2 0x191A JUMP JUMPDEST PUSH0 DUP4 DUP2 MSTORE PUSH1 0x2 PUSH1 0x20 MSTORE PUSH1 0x40 SWAP1 KECCAK256 PUSH1 0x3 ADD SLOAD DUP4 SWAP1 PUSH1 0xFF AND DUP1 ISZERO PUSH2 0x8A8 JUMPI PUSH1 0x40 MLOAD PUSH3 0x461BCD PUSH1 0xE5 SHL DUP2 MSTORE PUSH1 0x4 ADD PUSH2 0x46F SWAP1 PUSH2 0x194E JUMP JUMPDEST PUSH0 DUP6 DUP2 MSTORE PUSH1 0x4 PUSH1 0x20 MSTORE PUSH1 0x40 DUP2 KECCAK256 DUP7 SWAP2 SWAP1 PUSH2 0x8C2 SWAP1 CALLER PUSH2 0xFE9 JUMP JUMPDEST SWAP1 POP DUP1 PUSH2 0x92F JUMPI PUSH1 0x40 MLOAD PUSH3 0x461BCD PUSH1 0xE5 SHL DUP2 MSTORE PUSH1 0x20 PUSH1 0x4 DUP3 ADD MSTORE PUSH1 0x35 PUSH1 0x24 DUP3 ADD MSTORE PUSH32 0x63616C6C657220686173206E6F74207369676E656420666F722073656C656374 PUSH1 0x44 DUP3 ADD MSTORE PUSH21 0x1959081B5D5B1D1A481CDA59C81C1C9BDC1BDCD85B PUSH1 0x5A SHL PUSH1 0x64 DUP3 ADD MSTORE PUSH1 0x84 ADD PUSH2 0x46F JUMP JUMPDEST PUSH0 DUP8 DUP2 MSTORE PUSH1 0x3 PUSH1 0x20 MSTORE PUSH1 0x40 DUP2 KECCAK256 DUP9 SWAP2 SWAP1 PUSH2 0x949 SWAP1 CALLER PUSH2 0xFE9 JUMP JUMPDEST SWAP1 POP DUP1 PUSH2 0x968 JUMPI PUSH1 0x40 MLOAD PUSH3 0x461BCD PUSH1 0xE5 SHL DUP2 MSTORE PUSH1 0x4 ADD PUSH2 0x46F SWAP1 PUSH2 0x19C7 JUMP JUMPDEST PUSH0 DUP10 DUP2 MSTORE PUSH1 0x4 PUSH1 0x20 MSTORE PUSH1 0x40 SWAP1 KECCAK256 PUSH2 0x97F SWAP1 CALLER PUSH2 0x100A JUMP JUMPDEST POP PUSH1 0x40 DUP1 MLOAD DUP11 DUP2 MSTORE TIMESTAMP PUSH1 0x20 DUP3 ADD MSTORE CALLER SWAP2 PUSH32 0x3899555E234AF4B23CCD4D5CBB21BB3598913AAE9624D1EA8BA81ABA3D79C0AE SWAP2 ADD PUSH1 0x40 MLOAD DUP1 SWAP2 SUB SWAP1 LOG2 POP POP POP POP POP POP POP POP POP JUMP JUMPDEST PUSH32 0x2172861495E7B85EDAC73E3CD5FBB42DD675BAADF627720E687BCFDACA025096 PUSH2 0x9EF DUP2 PUSH2 0xEDA JUMP JUMPDEST PUSH1 0x1 PUSH1 0x1 PUSH1 0xA0 SHL SUB DUP4 AND PUSH0 DUP2 DUP2 MSTORE PUSH1 0x5 PUSH1 0x20 SWAP1 DUP2 MSTORE PUSH1 0x40 SWAP2 DUP3 SWAP1 KECCAK256 DUP1 SLOAD PUSH1 0xFF NOT AND DUP7 ISZERO ISZERO SWAP1 DUP2 OR SWAP1 SWAP2 SSTORE SWAP2 MLOAD SWAP2 DUP3 MSTORE PUSH32 0x886B99FABE6DC54ACE264FA831EA6F7E9B0FEE2B24308316F5C78EDCCD2CBD9A SWAP2 ADD PUSH1 0x40 MLOAD DUP1 SWAP2 SUB SWAP1 LOG2 POP POP POP JUMP JUMPDEST PUSH0 DUP3 DUP2 MSTORE PUSH1 0x20 DUP2 SWAP1 MSTORE PUSH1 0x40 SWAP1 KECCAK256 PUSH1 0x1 ADD SLOAD PUSH2 0xA68 DUP2 PUSH2 0xEDA JUMP JUMPDEST PUSH2 0x3FE DUP4 DUP4 PUSH2 0xF6A JUMP JUMPDEST PUSH0 DUP2 DUP2 MSTORE PUSH1 0x2 PUSH1 0x20 MSTORE PUSH1 0x40 SWAP1 KECCAK256 PUSH1 0x1 ADD SLOAD DUP2 SWAP1 TIMESTAMP LT DUP1 ISZERO SWAP1 PUSH2 0xAA6 JUMPI PUSH1 0x40 MLOAD PUSH3 0x461BCD PUSH1 0xE5 SHL DUP2 MSTORE PUSH1 0x4 ADD PUSH2 0x46F SWAP1 PUSH2 0x191A JUMP JUMPDEST PUSH0 DUP4 DUP2 MSTORE PUSH1 0x2 PUSH1 0x20 MSTORE PUSH1 0x40 SWAP1 KECCAK256 PUSH1 0x3 ADD SLOAD DUP4 SWAP1 PUSH1 0xFF AND DUP1 ISZERO PUSH2 0xADA JUMPI PUSH1 0x40 MLOAD PUSH3 0x461BCD PUSH1 0xE5 SHL DUP2 MSTORE PUSH1 0x4 ADD PUSH2 0x46F SWAP1 PUSH2 0x194E JUMP JUMPDEST PUSH0 DUP6 DUP2 MSTORE PUSH1 0x4 PUSH1 0x20 MSTORE PUSH1 0x40 DUP2 KECCAK256 DUP7 SWAP2 SWAP1 PUSH2 0xAF4 SWAP1 CALLER PUSH2 0xFE9 JUMP JUMPDEST SWAP1 POP DUP1 ISZERO PUSH2 0xB6A JUMPI PUSH1 0x40 MLOAD PUSH3 0x461BCD PUSH1 0xE5 SHL DUP2 MSTORE PUSH1 0x20 PUSH1 0x4 DUP3 ADD MSTORE PUSH1 0x39 PUSH1 0x24 DUP3 ADD MSTORE PUSH32 0x63616C6C65722068617320616C7265616479207369676E656420666F72207365 PUSH1 0x44 DUP3 ADD MSTORE PUSH32 0x6C6563746564206D756C7469207369672070726F706F73616C00000000000000 PUSH1 0x64 DUP3 ADD MSTORE PUSH1 0x84 ADD PUSH2 0x46F JUMP JUMPDEST PUSH0 DUP8 DUP2 MSTORE PUSH1 0x3 PUSH1 0x20 MSTORE PUSH1 0x40 DUP2 KECCAK256 DUP9 SWAP2 SWAP1 PUSH2 0xB84 SWAP1 CALLER PUSH2 0xFE9 JUMP JUMPDEST SWAP1 POP DUP1 PUSH2 0xBA3 JUMPI PUSH1 0x40 MLOAD PUSH3 0x461BCD PUSH1 0xE5 SHL DUP2 MSTORE PUSH1 0x4 ADD PUSH2 0x46F SWAP1 PUSH2 0x19C7 JUMP JUMPDEST PUSH0 DUP10 DUP2 MSTORE PUSH1 0x4 PUSH1 0x20 MSTORE PUSH1 0x40 SWAP1 KECCAK256 PUSH2 0xBBA SWAP1 CALLER PUSH2 0xFCE JUMP JUMPDEST POP PUSH1 0x40 DUP1 MLOAD DUP11 DUP2 MSTORE TIMESTAMP PUSH1 0x20 DUP3 ADD MSTORE CALLER SWAP2 PUSH32 0x65C6A5495C336C3B8AFF2BEA37F4D8440FDB0A2C30C23C1A0DB4A659856C0CFC SWAP2 ADD PUSH1 0x40 MLOAD DUP1 SWAP2 SUB SWAP1 LOG2 PUSH0 DUP10 DUP2 MSTORE PUSH1 0x4 PUSH1 0x20 MSTORE PUSH1 0x40 DUP2 KECCAK256 PUSH2 0xC0B SWAP1 PUSH2 0x101E JUMP JUMPDEST PUSH0 DUP12 DUP2 MSTORE PUSH1 0x3 PUSH1 0x20 MSTORE PUSH1 0x40 SWAP1 KECCAK256 PUSH2 0xC21 SWAP1 PUSH2 0x101E JUMP JUMPDEST PUSH2 0xC2C SWAP1 PUSH1 0x64 PUSH2 0x1A24 JUMP JUMPDEST PUSH2 0xC36 SWAP2 SWAP1 PUSH2 0x1A3B JUMP JUMPDEST POP POP POP POP POP POP POP POP POP POP POP JUMP JUMPDEST PUSH0 DUP2 DUP2 MSTORE PUSH1 0x2 PUSH1 0x20 MSTORE PUSH1 0x40 DUP2 KECCAK256 PUSH1 0x1 ADD SLOAD DUP3 SWAP1 TIMESTAMP LT DUP1 ISZERO SWAP1 PUSH2 0xC77 JUMPI PUSH1 0x40 MLOAD PUSH3 0x461BCD PUSH1 0xE5 SHL DUP2 MSTORE PUSH1 0x4 ADD PUSH2 0x46F SWAP1 PUSH2 0x191A JUMP JUMPDEST PUSH0 DUP5 DUP2 MSTORE PUSH1 0x2 PUSH1 0x20 MSTORE PUSH1 0x40 SWAP1 KECCAK256 PUSH1 0x3 ADD SLOAD DUP5 SWAP1 PUSH1 0xFF AND DUP1 ISZERO PUSH2 0xCAB JUMPI PUSH1 0x40 MLOAD PUSH3 0x461BCD PUSH1 0xE5 SHL DUP2 MSTORE PUSH1 0x4 ADD PUSH2 0x46F SWAP1 PUSH2 0x194E JUMP JUMPDEST PUSH0 DUP7 DUP2 MSTORE PUSH1 0x2 PUSH1 0x20 MSTORE PUSH1 0x40 SWAP1 KECCAK256 PUSH1 0x3 ADD SLOAD DUP7 SWAP1 PUSH3 0x10000 SWAP1 DIV PUSH1 0xFF AND DUP1 PUSH2 0xD19 JUMPI PUSH1 0x40 MLOAD PUSH3 0x461BCD PUSH1 0xE5 SHL DUP2 MSTORE PUSH1 0x20 PUSH1 0x4 DUP3 ADD MSTORE PUSH1 0x2F PUSH1 0x24 DUP3 ADD MSTORE PUSH0 DUP1 MLOAD PUSH1 0x20 PUSH2 0x1BD2 DUP4 CODECOPY DUP2 MLOAD SWAP2 MSTORE PUSH1 0x44 DUP3 ADD MSTORE PUSH15 0x1B9BDD081899595B881C185CDCD959 PUSH1 0x8A SHL PUSH1 0x64 DUP3 ADD MSTORE PUSH1 0x84 ADD PUSH2 0x46F JUMP JUMPDEST PUSH0 DUP9 DUP2 MSTORE PUSH1 0x2 PUSH1 0x20 MSTORE PUSH1 0x40 SWAP1 KECCAK256 PUSH1 0x3 ADD SLOAD DUP9 SWAP1 PUSH2 0x100 SWAP1 DIV PUSH1 0xFF AND DUP1 ISZERO PUSH2 0xD52 JUMPI PUSH1 0x40 MLOAD PUSH3 0x461BCD PUSH1 0xE5 SHL DUP2 MSTORE PUSH1 0x4 ADD PUSH2 0x46F SWAP1 PUSH2 0x1989 JUMP JUMPDEST PUSH0 DUP1 MLOAD PUSH1 0x20 PUSH2 0x1BB2 DUP4 CODECOPY DUP2 MLOAD SWAP2 MSTORE PUSH2 0xD69 DUP2 PUSH2 0xEDA JUMP JUMPDEST PUSH0 DUP12 DUP2 MSTORE PUSH1 0x2 PUSH1 0x20 MSTORE PUSH1 0x40 DUP2 KECCAK256 PUSH1 0x3 DUP2 ADD SLOAD PUSH1 0x4 SWAP1 SWAP2 ADD DUP1 SLOAD PUSH4 0x1000000 SWAP1 SWAP3 DIV PUSH1 0x1 PUSH1 0x1 PUSH1 0xA0 SHL SUB AND SWAP3 SWAP2 PUSH2 0xD9E SWAP1 PUSH2 0x17AD JUMP JUMPDEST DUP1 PUSH1 0x1F ADD PUSH1 0x20 DUP1 SWAP2 DIV MUL PUSH1 0x20 ADD PUSH1 0x40 MLOAD SWAP1 DUP2 ADD PUSH1 0x40 MSTORE DUP1 SWAP3 SWAP2 SWAP1 DUP2 DUP2 MSTORE PUSH1 0x20 ADD DUP3 DUP1 SLOAD PUSH2 0xDCA SWAP1 PUSH2 0x17AD JUMP JUMPDEST DUP1 ISZERO PUSH2 0xE15 JUMPI DUP1 PUSH1 0x1F LT PUSH2 0xDEC JUMPI PUSH2 0x100 DUP1 DUP4 SLOAD DIV MUL DUP4 MSTORE SWAP2 PUSH1 0x20 ADD SWAP2 PUSH2 0xE15 JUMP JUMPDEST DUP3 ADD SWAP2 SWAP1 PUSH0 MSTORE PUSH1 0x20 PUSH0 KECCAK256 SWAP1 JUMPDEST DUP2 SLOAD DUP2 MSTORE SWAP1 PUSH1 0x1 ADD SWAP1 PUSH1 0x20 ADD DUP1 DUP4 GT PUSH2 0xDF8 JUMPI DUP3 SWAP1 SUB PUSH1 0x1F AND DUP3 ADD SWAP2 JUMPDEST POP POP POP POP POP SWAP1 POP PUSH0 PUSH1 0x2 PUSH0 DUP16 DUP2 MSTORE PUSH1 0x20 ADD SWAP1 DUP2 MSTORE PUSH1 0x20 ADD PUSH0 KECCAK256 PUSH1 0x5 ADD DUP1 SLOAD PUSH2 0xE3C SWAP1 PUSH2 0x17AD JUMP JUMPDEST DUP1 PUSH1 0x1F ADD PUSH1 0x20 DUP1 SWAP2 DIV MUL PUSH1 0x20 ADD PUSH1 0x40 MLOAD SWAP1 DUP2 ADD PUSH1 0x40 MSTORE DUP1 SWAP3 SWAP2 SWAP1 DUP2 DUP2 MSTORE PUSH1 0x20 ADD DUP3 DUP1 SLOAD PUSH2 0xE68 SWAP1 PUSH2 0x17AD JUMP JUMPDEST DUP1 ISZERO PUSH2 0xEB3 JUMPI DUP1 PUSH1 0x1F LT PUSH2 0xE8A JUMPI PUSH2 0x100 DUP1 DUP4 SLOAD DIV MUL DUP4 MSTORE SWAP2 PUSH1 0x20 ADD SWAP2 PUSH2 0xEB3 JUMP JUMPDEST DUP3 ADD SWAP2 SWAP1 PUSH0 MSTORE PUSH1 0x20 PUSH0 KECCAK256 SWAP1 JUMPDEST DUP2 SLOAD DUP2 MSTORE SWAP1 PUSH1 0x1 ADD SWAP1 PUSH1 0x20 ADD DUP1 DUP4 GT PUSH2 0xE96 JUMPI DUP3 SWAP1 SUB PUSH1 0x1F AND DUP3 ADD SWAP2 JUMPDEST POP POP POP POP POP SWAP1 POP PUSH2 0xEC5 DUP4 DUP4 DUP4 PUSH2 0x1027 JUMP JUMPDEST POP PUSH1 0x1 SWAP15 SWAP14 POP POP POP POP POP POP POP POP POP POP POP POP POP POP JUMP JUMPDEST PUSH2 0xEE4 DUP2 CALLER PUSH2 0x11DC JUMP JUMPDEST POP JUMP JUMPDEST PUSH2 0xEF1 DUP3 DUP3 PUSH2 0x818 JUMP JUMPDEST PUSH2 0x482 JUMPI PUSH0 DUP3 DUP2 MSTORE PUSH1 0x20 DUP2 DUP2 MSTORE PUSH1 0x40 DUP1 DUP4 KECCAK256 PUSH1 0x1 PUSH1 0x1 PUSH1 0xA0 SHL SUB DUP6 AND DUP5 MSTORE SWAP1 SWAP2 MSTORE SWAP1 KECCAK256 DUP1 SLOAD PUSH1 0xFF NOT AND PUSH1 0x1 OR SWAP1 SSTORE PUSH2 0xF26 CALLER SWAP1 JUMP JUMPDEST PUSH1 0x1 PUSH1 0x1 PUSH1 0xA0 SHL SUB AND DUP2 PUSH1 0x1 PUSH1 0x1 PUSH1 0xA0 SHL SUB AND DUP4 PUSH32 0x2F8788117E7EFF1D82E926EC794901D17C78024A50270940304540A733656F0D PUSH1 0x40 MLOAD PUSH1 0x40 MLOAD DUP1 SWAP2 SUB SWAP1 LOG4 POP POP JUMP JUMPDEST PUSH2 0xF74 DUP3 DUP3 PUSH2 0x818 JUMP JUMPDEST ISZERO PUSH2 0x482 JUMPI PUSH0 DUP3 DUP2 MSTORE PUSH1 0x20 DUP2 DUP2 MSTORE PUSH1 0x40 DUP1 DUP4 KECCAK256 PUSH1 0x1 PUSH1 0x1 PUSH1 0xA0 SHL SUB DUP6 AND DUP1 DUP6 MSTORE SWAP3 MSTORE DUP1 DUP4 KECCAK256 DUP1 SLOAD PUSH1 0xFF NOT AND SWAP1 SSTORE MLOAD CALLER SWAP3 DUP6 SWAP2 PUSH32 0xF6391F5C32D9C69D2A47EA670B442974B53935D1EDC7FD64EB21E047A839171B SWAP2 SWAP1 LOG4 POP POP JUMP JUMPDEST PUSH0 PUSH2 0xFE2 DUP4 PUSH1 0x1 PUSH1 0x1 PUSH1 0xA0 SHL SUB DUP5 AND PUSH2 0x1235 JUMP JUMPDEST SWAP4 SWAP3 POP POP POP JUMP JUMPDEST PUSH1 0x1 PUSH1 0x1 PUSH1 0xA0 SHL SUB DUP2 AND PUSH0 SWAP1 DUP2 MSTORE PUSH1 0x1 DUP4 ADD PUSH1 0x20 MSTORE PUSH1 0x40 DUP2 KECCAK256 SLOAD ISZERO ISZERO PUSH2 0xFE2 JUMP JUMPDEST PUSH0 PUSH2 0xFE2 DUP4 PUSH1 0x1 PUSH1 0x1 PUSH1 0xA0 SHL SUB DUP5 AND PUSH2 0x1281 JUMP JUMPDEST PUSH0 PUSH2 0x3D4 DUP3 SLOAD SWAP1 JUMP JUMPDEST PUSH1 0x1 PUSH1 0x1 PUSH1 0xA0 SHL SUB DUP4 AND PUSH0 SWAP1 DUP2 MSTORE PUSH1 0x5 PUSH1 0x20 MSTORE PUSH1 0x40 DUP2 KECCAK256 SLOAD DUP5 SWAP1 PUSH1 0xFF AND PUSH2 0x1090 JUMPI PUSH1 0x40 MLOAD PUSH3 0x461BCD PUSH1 0xE5 SHL DUP2 MSTORE PUSH1 0x20 PUSH1 0x4 DUP3 ADD MSTORE PUSH1 0x1B PUSH1 0x24 DUP3 ADD MSTORE PUSH32 0x636F6E7472616374206973206E6F742077686974656C69737465640000000000 PUSH1 0x44 DUP3 ADD MSTORE PUSH1 0x64 ADD PUSH2 0x46F JUMP JUMPDEST PUSH0 DUP6 PUSH1 0x1 PUSH1 0x1 PUSH1 0xA0 SHL SUB AND DUP6 DUP6 PUSH1 0x40 MLOAD PUSH1 0x24 ADD PUSH2 0x10AD SWAP2 SWAP1 PUSH2 0x1AA7 JUMP JUMPDEST PUSH1 0x40 DUP1 MLOAD PUSH1 0x1F NOT DUP2 DUP5 SUB ADD DUP2 MSTORE SWAP1 DUP3 SWAP1 MSTORE SWAP2 PUSH2 0x10C8 SWAP2 PUSH2 0x1AB9 JUMP JUMPDEST PUSH1 0x40 DUP1 MLOAD SWAP2 DUP3 SWAP1 SUB SWAP1 SWAP2 KECCAK256 PUSH1 0x20 DUP4 ADD DUP1 MLOAD PUSH1 0x1 PUSH1 0x1 PUSH1 0xE0 SHL SUB AND PUSH1 0x1 PUSH1 0x1 PUSH1 0xE0 SHL SUB NOT SWAP1 SWAP3 AND SWAP2 SWAP1 SWAP2 OR SWAP1 MSTORE MLOAD PUSH2 0x10FF SWAP2 SWAP1 PUSH2 0x1AB9 JUMP JUMPDEST PUSH0 PUSH1 0x40 MLOAD DUP1 DUP4 SUB DUP2 DUP6 GAS DELEGATECALL SWAP2 POP POP RETURNDATASIZE DUP1 PUSH0 DUP2 EQ PUSH2 0x1137 JUMPI PUSH1 0x40 MLOAD SWAP2 POP PUSH1 0x1F NOT PUSH1 0x3F RETURNDATASIZE ADD AND DUP3 ADD PUSH1 0x40 MSTORE RETURNDATASIZE DUP3 MSTORE RETURNDATASIZE PUSH0 PUSH1 0x20 DUP5 ADD RETURNDATACOPY PUSH2 0x113C JUMP JUMPDEST PUSH1 0x60 SWAP2 POP JUMPDEST POP POP SWAP1 POP DUP1 PUSH2 0x118D JUMPI PUSH1 0x40 MLOAD PUSH3 0x461BCD PUSH1 0xE5 SHL DUP2 MSTORE PUSH1 0x20 PUSH1 0x4 DUP3 ADD MSTORE PUSH1 0x17 PUSH1 0x24 DUP3 ADD MSTORE PUSH32 0x63616C6C20776173206E6F74207375636365737366756C000000000000000000 PUSH1 0x44 DUP3 ADD MSTORE PUSH1 0x64 ADD PUSH2 0x46F JUMP JUMPDEST DUP6 PUSH1 0x1 PUSH1 0x1 PUSH1 0xA0 SHL SUB AND PUSH32 0x252691DD33F541D0DF9A4B90B1E016C53C8CF013A20E926499FF41A6B3908D88 DUP7 DUP7 PUSH1 0x40 MLOAD PUSH2 0x11C8 SWAP3 SWAP2 SWAP1 PUSH2 0x1AD4 JUMP JUMPDEST PUSH1 0x40 MLOAD DUP1 SWAP2 SUB SWAP1 LOG2 POP PUSH1 0x1 SWAP6 SWAP5 POP POP POP POP POP JUMP JUMPDEST PUSH2 0x11E6 DUP3 DUP3 PUSH2 0x818 JUMP JUMPDEST PUSH2 0x482 JUMPI PUSH2 0x11F3 DUP2 PUSH2 0x1364 JUMP JUMPDEST PUSH2 0x11FE DUP4 PUSH1 0x20 PUSH2 0x1376 JUMP JUMPDEST PUSH1 0x40 MLOAD PUSH1 0x20 ADD PUSH2 0x120F SWAP3 SWAP2 SWAP1 PUSH2 0x1B01 JUMP JUMPDEST PUSH1 0x40 DUP1 MLOAD PUSH1 0x1F NOT DUP2 DUP5 SUB ADD DUP2 MSTORE SWAP1 DUP3 SWAP1 MSTORE PUSH3 0x461BCD PUSH1 0xE5 SHL DUP3 MSTORE PUSH2 0x46F SWAP2 PUSH1 0x4 ADD PUSH2 0x1AA7 JUMP JUMPDEST PUSH0 DUP2 DUP2 MSTORE PUSH1 0x1 DUP4 ADD PUSH1 0x20 MSTORE PUSH1 0x40 DUP2 KECCAK256 SLOAD PUSH2 0x127A JUMPI POP DUP2 SLOAD PUSH1 0x1 DUP2 DUP2 ADD DUP5 SSTORE PUSH0 DUP5 DUP2 MSTORE PUSH1 0x20 DUP1 DUP3 KECCAK256 SWAP1 SWAP4 ADD DUP5 SWAP1 SSTORE DUP5 SLOAD DUP5 DUP3 MSTORE DUP3 DUP7 ADD SWAP1 SWAP4 MSTORE PUSH1 0x40 SWAP1 KECCAK256 SWAP2 SWAP1 SWAP2 SSTORE PUSH2 0x3D4 JUMP JUMPDEST POP PUSH0 PUSH2 0x3D4 JUMP JUMPDEST PUSH0 DUP2 DUP2 MSTORE PUSH1 0x1 DUP4 ADD PUSH1 0x20 MSTORE PUSH1 0x40 DUP2 KECCAK256 SLOAD DUP1 ISZERO PUSH2 0x135B JUMPI PUSH0 PUSH2 0x12A3 PUSH1 0x1 DUP4 PUSH2 0x1B75 JUMP JUMPDEST DUP6 SLOAD SWAP1 SWAP2 POP PUSH0 SWAP1 PUSH2 0x12B6 SWAP1 PUSH1 0x1 SWAP1 PUSH2 0x1B75 JUMP JUMPDEST SWAP1 POP DUP2 DUP2 EQ PUSH2 0x1315 JUMPI PUSH0 DUP7 PUSH0 ADD DUP3 DUP2 SLOAD DUP2 LT PUSH2 0x12D4 JUMPI PUSH2 0x12D4 PUSH2 0x18EE JUMP JUMPDEST SWAP1 PUSH0 MSTORE PUSH1 0x20 PUSH0 KECCAK256 ADD SLOAD SWAP1 POP DUP1 DUP8 PUSH0 ADD DUP5 DUP2 SLOAD DUP2 LT PUSH2 0x12F4 JUMPI PUSH2 0x12F4 PUSH2 0x18EE JUMP JUMPDEST PUSH0 SWAP2 DUP3 MSTORE PUSH1 0x20 DUP1 DUP4 KECCAK256 SWAP1 SWAP2 ADD SWAP3 SWAP1 SWAP3 SSTORE SWAP2 DUP3 MSTORE PUSH1 0x1 DUP9 ADD SWAP1 MSTORE PUSH1 0x40 SWAP1 KECCAK256 DUP4 SWAP1 SSTORE JUMPDEST DUP6 SLOAD DUP7 SWAP1 DUP1 PUSH2 0x1326 JUMPI PUSH2 0x1326 PUSH2 0x1B88 JUMP JUMPDEST PUSH1 0x1 SWAP1 SUB DUP2 DUP2 SWAP1 PUSH0 MSTORE PUSH1 0x20 PUSH0 KECCAK256 ADD PUSH0 SWAP1 SSTORE SWAP1 SSTORE DUP6 PUSH1 0x1 ADD PUSH0 DUP7 DUP2 MSTORE PUSH1 0x20 ADD SWAP1 DUP2 MSTORE PUSH1 0x20 ADD PUSH0 KECCAK256 PUSH0 SWAP1 SSTORE PUSH1 0x1 SWAP4 POP POP POP POP PUSH2 0x3D4 JUMP JUMPDEST PUSH0 SWAP2 POP POP PUSH2 0x3D4 JUMP JUMPDEST PUSH1 0x60 PUSH2 0x3D4 PUSH1 0x1 PUSH1 0x1 PUSH1 0xA0 SHL SUB DUP4 AND PUSH1 0x14 JUMPDEST PUSH1 0x60 PUSH0 PUSH2 0x1384 DUP4 PUSH1 0x2 PUSH2 0x1A24 JUMP JUMPDEST PUSH2 0x138F SWAP1 PUSH1 0x2 PUSH2 0x179A JUMP JUMPDEST PUSH8 0xFFFFFFFFFFFFFFFF DUP2 GT ISZERO PUSH2 0x13A7 JUMPI PUSH2 0x13A7 PUSH2 0x158F JUMP JUMPDEST PUSH1 0x40 MLOAD SWAP1 DUP1 DUP3 MSTORE DUP1 PUSH1 0x1F ADD PUSH1 0x1F NOT AND PUSH1 0x20 ADD DUP3 ADD PUSH1 0x40 MSTORE DUP1 ISZERO PUSH2 0x13D1 JUMPI PUSH1 0x20 DUP3 ADD DUP2 DUP1 CALLDATASIZE DUP4 CALLDATACOPY ADD SWAP1 POP JUMPDEST POP SWAP1 POP PUSH1 0x3 PUSH1 0xFC SHL DUP2 PUSH0 DUP2 MLOAD DUP2 LT PUSH2 0x13EB JUMPI PUSH2 0x13EB PUSH2 0x18EE JUMP JUMPDEST PUSH1 0x20 ADD ADD SWAP1 PUSH1 0x1 PUSH1 0x1 PUSH1 0xF8 SHL SUB NOT AND SWAP1 DUP2 PUSH0 BYTE SWAP1 MSTORE8 POP PUSH1 0xF PUSH1 0xFB SHL DUP2 PUSH1 0x1 DUP2 MLOAD DUP2 LT PUSH2 0x1419 JUMPI PUSH2 0x1419 PUSH2 0x18EE JUMP JUMPDEST PUSH1 0x20 ADD ADD SWAP1 PUSH1 0x1 PUSH1 0x1 PUSH1 0xF8 SHL SUB NOT AND SWAP1 DUP2 PUSH0 BYTE SWAP1 MSTORE8 POP PUSH0 PUSH2 0x143B DUP5 PUSH1 0x2 PUSH2 0x1A24 JUMP JUMPDEST PUSH2 0x1446 SWAP1 PUSH1 0x1 PUSH2 0x179A JUMP JUMPDEST SWAP1 POP JUMPDEST PUSH1 0x1 DUP2 GT ISZERO PUSH2 0x14BD JUMPI PUSH16 0x181899199A1A9B1B9C1CB0B131B232B3 PUSH1 0x81 SHL DUP6 PUSH1 0xF AND PUSH1 0x10 DUP2 LT PUSH2 0x147A JUMPI PUSH2 0x147A PUSH2 0x18EE JUMP JUMPDEST BYTE PUSH1 0xF8 SHL DUP3 DUP3 DUP2 MLOAD DUP2 LT PUSH2 0x1490 JUMPI PUSH2 0x1490 PUSH2 0x18EE JUMP JUMPDEST PUSH1 0x20 ADD ADD SWAP1 PUSH1 0x1 PUSH1 0x1 PUSH1 0xF8 SHL SUB NOT AND SWAP1 DUP2 PUSH0 BYTE SWAP1 MSTORE8 POP PUSH1 0x4 SWAP5 SWAP1 SWAP5 SHR SWAP4 PUSH2 0x14B6 DUP2 PUSH2 0x1B9C JUMP JUMPDEST SWAP1 POP PUSH2 0x1449 JUMP JUMPDEST POP DUP4 ISZERO PUSH2 0xFE2 JUMPI PUSH1 0x40 MLOAD PUSH3 0x461BCD PUSH1 0xE5 SHL DUP2 MSTORE PUSH1 0x20 PUSH1 0x4 DUP3 ADD DUP2 SWAP1 MSTORE PUSH1 0x24 DUP3 ADD MSTORE PUSH32 0x537472696E67733A20686578206C656E67746820696E73756666696369656E74 PUSH1 0x44 DUP3 ADD MSTORE PUSH1 0x64 ADD PUSH2 0x46F JUMP JUMPDEST PUSH0 PUSH1 0x20 DUP3 DUP5 SUB SLT ISZERO PUSH2 0x151C JUMPI PUSH0 DUP1 REVERT JUMPDEST DUP2 CALLDATALOAD PUSH1 0x1 PUSH1 0x1 PUSH1 0xE0 SHL SUB NOT DUP2 AND DUP2 EQ PUSH2 0xFE2 JUMPI PUSH0 DUP1 REVERT JUMPDEST PUSH0 PUSH1 0x20 DUP3 DUP5 SUB SLT ISZERO PUSH2 0x1543 JUMPI PUSH0 DUP1 REVERT JUMPDEST POP CALLDATALOAD SWAP2 SWAP1 POP JUMP JUMPDEST DUP1 CALLDATALOAD PUSH1 0x1 PUSH1 0x1 PUSH1 0xA0 SHL SUB DUP2 AND DUP2 EQ PUSH2 0x1560 JUMPI PUSH0 DUP1 REVERT JUMPDEST SWAP2 SWAP1 POP JUMP JUMPDEST PUSH0 DUP1 PUSH1 0x40 DUP4 DUP6 SUB SLT ISZERO PUSH2 0x1576 JUMPI PUSH0 DUP1 REVERT JUMPDEST DUP3 CALLDATALOAD SWAP2 POP PUSH2 0x1586 PUSH1 0x20 DUP5 ADD PUSH2 0x154A JUMP JUMPDEST SWAP1 POP SWAP3 POP SWAP3 SWAP1 POP JUMP JUMPDEST PUSH4 0x4E487B71 PUSH1 0xE0 SHL PUSH0 MSTORE PUSH1 0x41 PUSH1 0x4 MSTORE PUSH1 0x24 PUSH0 REVERT JUMPDEST PUSH1 0x40 MLOAD PUSH1 0x1F DUP3 ADD PUSH1 0x1F NOT AND DUP2 ADD PUSH8 0xFFFFFFFFFFFFFFFF DUP2 GT DUP3 DUP3 LT OR ISZERO PUSH2 0x15CC JUMPI PUSH2 0x15CC PUSH2 0x158F JUMP JUMPDEST PUSH1 0x40 MSTORE SWAP2 SWAP1 POP JUMP JUMPDEST PUSH0 DUP3 PUSH1 0x1F DUP4 ADD SLT PUSH2 0x15E3 JUMPI PUSH0 DUP1 REVERT JUMPDEST DUP2 CALLDATALOAD PUSH8 0xFFFFFFFFFFFFFFFF DUP2 GT ISZERO PUSH2 0x15FD JUMPI PUSH2 0x15FD PUSH2 0x158F JUMP JUMPDEST PUSH2 0x1610 PUSH1 0x1F DUP3 ADD PUSH1 0x1F NOT AND PUSH1 0x20 ADD PUSH2 0x15A3 JUMP JUMPDEST DUP2 DUP2 MSTORE DUP5 PUSH1 0x20 DUP4 DUP7 ADD ADD GT ISZERO PUSH2 0x1624 JUMPI PUSH0 DUP1 REVERT JUMPDEST DUP2 PUSH1 0x20 DUP6 ADD PUSH1 0x20 DUP4 ADD CALLDATACOPY PUSH0 SWAP2 DUP2 ADD PUSH1 0x20 ADD SWAP2 SWAP1 SWAP2 MSTORE SWAP4 SWAP3 POP POP POP JUMP JUMPDEST PUSH0 DUP1 PUSH0 DUP1 PUSH0 DUP1 PUSH1 0xC0 DUP8 DUP10 SUB SLT ISZERO PUSH2 0x1655 JUMPI PUSH0 DUP1 REVERT JUMPDEST DUP7 CALLDATALOAD PUSH8 0xFFFFFFFFFFFFFFFF DUP1 DUP3 GT ISZERO PUSH2 0x166C JUMPI PUSH0 DUP1 REVERT JUMPDEST DUP2 DUP10 ADD SWAP2 POP DUP10 PUSH1 0x1F DUP4 ADD SLT PUSH2 0x167F JUMPI PUSH0 DUP1 REVERT JUMPDEST DUP2 CALLDATALOAD PUSH1 0x20 DUP3 DUP3 GT ISZERO PUSH2 0x1693 JUMPI PUSH2 0x1693 PUSH2 0x158F JUMP JUMPDEST DUP2 PUSH1 0x5 SHL PUSH2 0x16A2 DUP3 DUP3 ADD PUSH2 0x15A3 JUMP JUMPDEST SWAP3 DUP4 MSTORE DUP5 DUP2 ADD DUP3 ADD SWAP3 DUP3 DUP2 ADD SWAP1 DUP15 DUP6 GT ISZERO PUSH2 0x16BB JUMPI PUSH0 DUP1 REVERT JUMPDEST SWAP6 DUP4 ADD SWAP6 JUMPDEST DUP5 DUP8 LT ISZERO PUSH2 0x16E0 JUMPI PUSH2 0x16D1 DUP8 PUSH2 0x154A JUMP JUMPDEST DUP3 MSTORE SWAP6 DUP4 ADD SWAP6 SWAP1 DUP4 ADD SWAP1 PUSH2 0x16C0 JUMP JUMPDEST SWAP12 POP POP POP DUP11 ADD CALLDATALOAD SWAP8 POP POP PUSH1 0x40 DUP10 ADD CALLDATALOAD SWAP6 POP PUSH2 0x16FD PUSH1 0x60 DUP11 ADD PUSH2 0x154A JUMP JUMPDEST SWAP5 POP PUSH1 0x80 DUP10 ADD CALLDATALOAD SWAP2 POP DUP1 DUP3 GT ISZERO PUSH2 0x1712 JUMPI PUSH0 DUP1 REVERT JUMPDEST PUSH2 0x171E DUP11 DUP4 DUP12 ADD PUSH2 0x15D4 JUMP JUMPDEST SWAP4 POP PUSH1 0xA0 DUP10 ADD CALLDATALOAD SWAP2 POP DUP1 DUP3 GT ISZERO PUSH2 0x1733 JUMPI PUSH0 DUP1 REVERT JUMPDEST POP PUSH2 0x1740 DUP10 DUP3 DUP11 ADD PUSH2 0x15D4 JUMP JUMPDEST SWAP2 POP POP SWAP3 SWAP6 POP SWAP3 SWAP6 POP SWAP3 SWAP6 JUMP JUMPDEST PUSH0 DUP1 PUSH1 0x40 DUP4 DUP6 SUB SLT ISZERO PUSH2 0x175E JUMPI PUSH0 DUP1 REVERT JUMPDEST PUSH2 0x1767 DUP4 PUSH2 0x154A JUMP JUMPDEST SWAP2 POP PUSH1 0x20 DUP4 ADD CALLDATALOAD DUP1 ISZERO ISZERO DUP2 EQ PUSH2 0x177B JUMPI PUSH0 DUP1 REVERT JUMPDEST DUP1 SWAP2 POP POP SWAP3 POP SWAP3 SWAP1 POP JUMP JUMPDEST PUSH4 0x4E487B71 PUSH1 0xE0 SHL PUSH0 MSTORE PUSH1 0x11 PUSH1 0x4 MSTORE PUSH1 0x24 PUSH0 REVERT JUMPDEST DUP1 DUP3 ADD DUP1 DUP3 GT ISZERO PUSH2 0x3D4 JUMPI PUSH2 0x3D4 PUSH2 0x1786 JUMP JUMPDEST PUSH1 0x1 DUP2 DUP2 SHR SWAP1 DUP3 AND DUP1 PUSH2 0x17C1 JUMPI PUSH1 0x7F DUP3 AND SWAP2 POP JUMPDEST PUSH1 0x20 DUP3 LT DUP2 SUB PUSH2 0x17DF JUMPI PUSH4 0x4E487B71 PUSH1 0xE0 SHL PUSH0 MSTORE PUSH1 0x22 PUSH1 0x4 MSTORE PUSH1 0x24 PUSH0 REVERT JUMPDEST POP SWAP2 SWAP1 POP JUMP JUMPDEST PUSH1 0x1F DUP3 GT ISZERO PUSH2 0x3FE JUMPI PUSH0 DUP2 DUP2 MSTORE PUSH1 0x20 DUP2 KECCAK256 PUSH1 0x1F DUP6 ADD PUSH1 0x5 SHR DUP2 ADD PUSH1 0x20 DUP7 LT ISZERO PUSH2 0x180B JUMPI POP DUP1 JUMPDEST PUSH1 0x1F DUP6 ADD PUSH1 0x5 SHR DUP3 ADD SWAP2 POP JUMPDEST DUP2 DUP2 LT ISZERO PUSH2 0x182A JUMPI DUP3 DUP2 SSTORE PUSH1 0x1 ADD PUSH2 0x1817 JUMP JUMPDEST POP POP POP POP POP POP JUMP JUMPDEST DUP2 MLOAD PUSH8 0xFFFFFFFFFFFFFFFF DUP2 GT ISZERO PUSH2 0x184C JUMPI PUSH2 0x184C PUSH2 0x158F JUMP JUMPDEST PUSH2 0x1860 DUP2 PUSH2 0x185A DUP5 SLOAD PUSH2 0x17AD JUMP JUMPDEST DUP5 PUSH2 0x17E5 JUMP JUMPDEST PUSH1 0x20 DUP1 PUSH1 0x1F DUP4 GT PUSH1 0x1 DUP2 EQ PUSH2 0x1893 JUMPI PUSH0 DUP5 ISZERO PUSH2 0x187C JUMPI POP DUP6 DUP4 ADD MLOAD JUMPDEST PUSH0 NOT PUSH1 0x3 DUP7 SWAP1 SHL SHR NOT AND PUSH1 0x1 DUP6 SWAP1 SHL OR DUP6 SSTORE PUSH2 0x182A JUMP JUMPDEST PUSH0 DUP6 DUP2 MSTORE PUSH1 0x20 DUP2 KECCAK256 PUSH1 0x1F NOT DUP7 AND SWAP2 JUMPDEST DUP3 DUP2 LT ISZERO PUSH2 0x18C1 JUMPI DUP9 DUP7 ADD MLOAD DUP3 SSTORE SWAP5 DUP5 ADD SWAP5 PUSH1 0x1 SWAP1 SWAP2 ADD SWAP1 DUP5 ADD PUSH2 0x18A2 JUMP JUMPDEST POP DUP6 DUP3 LT ISZERO PUSH2 0x18DE JUMPI DUP8 DUP6 ADD MLOAD PUSH0 NOT PUSH1 0x3 DUP9 SWAP1 SHL PUSH1 0xF8 AND SHR NOT AND DUP2 SSTORE JUMPDEST POP POP POP POP POP PUSH1 0x1 SWAP1 DUP2 SHL ADD SWAP1 SSTORE POP JUMP JUMPDEST PUSH4 0x4E487B71 PUSH1 0xE0 SHL PUSH0 MSTORE PUSH1 0x32 PUSH1 0x4 MSTORE PUSH1 0x24 PUSH0 REVERT JUMPDEST PUSH0 PUSH1 0x1 DUP3 ADD PUSH2 0x1913 JUMPI PUSH2 0x1913 PUSH2 0x1786 JUMP JUMPDEST POP PUSH1 0x1 ADD SWAP1 JUMP JUMPDEST PUSH1 0x20 DUP1 DUP3 MSTORE PUSH1 0x27 SWAP1 DUP3 ADD MSTORE PUSH0 DUP1 MLOAD PUSH1 0x20 PUSH2 0x1BD2 DUP4 CODECOPY DUP2 MLOAD SWAP2 MSTORE PUSH1 0x40 DUP3 ADD MSTORE PUSH7 0x195E1C1A5C9959 PUSH1 0xCA SHL PUSH1 0x60 DUP3 ADD MSTORE PUSH1 0x80 ADD SWAP1 JUMP JUMPDEST PUSH1 0x20 DUP1 DUP3 MSTORE PUSH1 0x2E SWAP1 DUP3 ADD MSTORE PUSH0 DUP1 MLOAD PUSH1 0x20 PUSH2 0x1BD2 DUP4 CODECOPY DUP2 MLOAD SWAP2 MSTORE PUSH1 0x40 DUP3 ADD MSTORE PUSH14 0x1899595B8818D85B98D95B1B1959 PUSH1 0x92 SHL PUSH1 0x60 DUP3 ADD MSTORE PUSH1 0x80 ADD SWAP1 JUMP JUMPDEST PUSH1 0x20 DUP1 DUP3 MSTORE PUSH1 0x31 SWAP1 DUP3 ADD MSTORE PUSH0 DUP1 MLOAD PUSH1 0x20 PUSH2 0x1BD2 DUP4 CODECOPY DUP2 MLOAD SWAP2 MSTORE PUSH1 0x40 DUP3 ADD MSTORE PUSH17 0x1B9BDD081899595B88195E1958DD5D1959 PUSH1 0x7A SHL PUSH1 0x60 DUP3 ADD MSTORE PUSH1 0x80 ADD SWAP1 JUMP JUMPDEST PUSH1 0x20 DUP1 DUP3 MSTORE PUSH1 0x3A SWAP1 DUP3 ADD MSTORE PUSH32 0x63616C6C6572206973206E6F742061207369676E657220666F72207468652073 PUSH1 0x40 DUP3 ADD MSTORE PUSH32 0x656C6563746564206D756C7469207369672070726F706F73616C000000000000 PUSH1 0x60 DUP3 ADD MSTORE PUSH1 0x80 ADD SWAP1 JUMP JUMPDEST DUP1 DUP3 MUL DUP2 ISZERO DUP3 DUP3 DIV DUP5 EQ OR PUSH2 0x3D4 JUMPI PUSH2 0x3D4 PUSH2 0x1786 JUMP JUMPDEST PUSH0 DUP3 PUSH2 0x1A55 JUMPI PUSH4 0x4E487B71 PUSH1 0xE0 SHL PUSH0 MSTORE PUSH1 0x12 PUSH1 0x4 MSTORE PUSH1 0x24 PUSH0 REVERT JUMPDEST POP DIV SWAP1 JUMP JUMPDEST PUSH0 JUMPDEST DUP4 DUP2 LT ISZERO PUSH2 0x1A74 JUMPI DUP2 DUP2 ADD MLOAD DUP4 DUP3 ADD MSTORE PUSH1 0x20 ADD PUSH2 0x1A5C JUMP JUMPDEST POP POP PUSH0 SWAP2 ADD MSTORE JUMP JUMPDEST PUSH0 DUP2 MLOAD DUP1 DUP5 MSTORE PUSH2 0x1A93 DUP2 PUSH1 0x20 DUP7 ADD PUSH1 0x20 DUP7 ADD PUSH2 0x1A5A JUMP JUMPDEST PUSH1 0x1F ADD PUSH1 0x1F NOT AND SWAP3 SWAP1 SWAP3 ADD PUSH1 0x20 ADD SWAP3 SWAP2 POP POP JUMP JUMPDEST PUSH1 0x20 DUP2 MSTORE PUSH0 PUSH2 0xFE2 PUSH1 0x20 DUP4 ADD DUP5 PUSH2 0x1A7C JUMP JUMPDEST PUSH0 DUP3 MLOAD PUSH2 0x1ACA DUP2 DUP5 PUSH1 0x20 DUP8 ADD PUSH2 0x1A5A JUMP JUMPDEST SWAP2 SWAP1 SWAP2 ADD SWAP3 SWAP2 POP POP JUMP JUMPDEST PUSH1 0x40 DUP2 MSTORE PUSH0 PUSH2 0x1AE6 PUSH1 0x40 DUP4 ADD DUP6 PUSH2 0x1A7C JUMP JUMPDEST DUP3 DUP2 SUB PUSH1 0x20 DUP5 ADD MSTORE PUSH2 0x1AF8 DUP2 DUP6 PUSH2 0x1A7C JUMP JUMPDEST SWAP6 SWAP5 POP POP POP POP POP JUMP JUMPDEST PUSH32 0x416363657373436F6E74726F6C3A206163636F756E7420000000000000000000 DUP2 MSTORE PUSH0 DUP4 MLOAD PUSH2 0x1B38 DUP2 PUSH1 0x17 DUP6 ADD PUSH1 0x20 DUP9 ADD PUSH2 0x1A5A JUMP JUMPDEST PUSH17 0x1034B99036B4B9B9B4B733903937B6329 PUSH1 0x7D SHL PUSH1 0x17 SWAP2 DUP5 ADD SWAP2 DUP3 ADD MSTORE DUP4 MLOAD PUSH2 0x1B69 DUP2 PUSH1 0x28 DUP5 ADD PUSH1 0x20 DUP9 ADD PUSH2 0x1A5A JUMP JUMPDEST ADD PUSH1 0x28 ADD SWAP5 SWAP4 POP POP POP POP JUMP JUMPDEST DUP2 DUP2 SUB DUP2 DUP2 GT ISZERO PUSH2 0x3D4 JUMPI PUSH2 0x3D4 PUSH2 0x1786 JUMP JUMPDEST PUSH4 0x4E487B71 PUSH1 0xE0 SHL PUSH0 MSTORE PUSH1 0x31 PUSH1 0x4 MSTORE PUSH1 0x24 PUSH0 REVERT JUMPDEST PUSH0 DUP2 PUSH2 0x1BAA JUMPI PUSH2 0x1BAA PUSH2 0x1786 JUMP JUMPDEST POP PUSH0 NOT ADD SWAP1 JUMP INVALID SELFBALANCE MSIZE 0x1F 0xE9 0xB3 DUP10 SIGNEXTEND DUP8 0xC7 0xC0 NUMBER 0xCB SWAP3 PUSH31 0xF194625CCCAD01DDFC64C8238B926E67749073656C6563746564206D756C74 PUSH10 0x207369672070726F706F PUSH20 0x616C2068617320A2646970667358221220FF9C8A NOT LT DUP9 DUP4 NUMBER 0x4D SWAP14 SWAP7 PUSH4 0x7BEAF9C3 0xEA 0xCD DUP2 0xE1 LOG3 OR MSTORE SWAP11 0xB4 SWAP12 LOG3 0xB0 0xF6 0xE1 0xAF GASLIMIT PUSH5 0x736F6C6343 STOP ADDMOD EQ STOP CALLER "
		},
		"gasEstimates": {
			"creation": {
				"codeDepositCost": "1441400",
				"executionCost": "30161",
				"totalCost": "1471561"
			},
			"external": {
				"DEFAULT_ADMIN_ROLE()": "238",
				"ROLE_ADMIN()": "238",
				"ROLE_BOARD()": "infinite",
				"ROLE_MEMBER()": "326",
				"ROLE_SYNDICATE()": "240",
				"getRoleAdmin(bytes32)": "2512",
				"grantRole(bytes32,address)": "infinite",
				"hasRole(bytes32,address)": "2781",
				"multiSigProposalCancel(uint256)": "infinite",
				"multiSigProposalEndTimestamp(uint256)": "2508",
				"multiSigProposalExecute(uint256)": "infinite",
				"multiSigProposalHasBeenCancelled(uint256)": "2509",
				"multiSigProposalHasBeenExecuted(uint256)": "2564",
				"multiSigProposalHasBeenPassed(uint256)": "2542",
				"multiSigProposalSign(uint256)": "infinite",
				"multiSigProposalStartTimestamp(uint256)": "2546",
				"multiSigProposalUnsign(uint256)": "infinite",
				"newMultiSigProposal(address[],uint256,uint256,address,string,bytes)": "infinite",
				"renounceRole(bytes32,address)": "29103",
				"revokeRole(bytes32,address)": "infinite",
				"setObjWhitelist(address,bool)": "infinite",
				"supportsInterface(bytes4)": "447"
			},
			"internal": {
				"_safeConnect(address,string memory,bytes memory)": "infinite"
			}
		},
		"methodIdentifiers": {
			"DEFAULT_ADMIN_ROLE()": "a217fddf",
			"ROLE_ADMIN()": "d391014b",
			"ROLE_BOARD()": "6708a436",
			"ROLE_MEMBER()": "fd7522e2",
			"ROLE_SYNDICATE()": "2371b2cf",
			"getRoleAdmin(bytes32)": "248a9ca3",
			"grantRole(bytes32,address)": "2f2ff15d",
			"hasRole(bytes32,address)": "91d14854",
			"multiSigProposalCancel(uint256)": "6b1a242a",
			"multiSigProposalEndTimestamp(uint256)": "c5bb8159",
			"multiSigProposalExecute(uint256)": "fc406a02",
			"multiSigProposalHasBeenCancelled(uint256)": "6a9f010b",
			"multiSigProposalHasBeenExecuted(uint256)": "6d02ca9f",
			"multiSigProposalHasBeenPassed(uint256)": "c703278a",
			"multiSigProposalSign(uint256)": "ef78463f",
			"multiSigProposalStartTimestamp(uint256)": "cff92081",
			"multiSigProposalUnsign(uint256)": "a006294f",
			"newMultiSigProposal(address[],uint256,uint256,address,string,bytes)": "3bdd8a9b",
			"renounceRole(bytes32,address)": "36568abe",
			"revokeRole(bytes32,address)": "d547741f",
			"setObjWhitelist(address,bool)": "d1a8dd2e",
			"supportsInterface(bytes4)": "01ffc9a7"
		}
	},
	"abi": [
		{
			"inputs": [],
			"stateMutability": "nonpayable",
			"type": "constructor"
		},
		{
			"anonymous": false,
			"inputs": [
				{
					"indexed": true,
					"internalType": "address",
					"name": "contract_",
					"type": "address"
				},
				{
					"indexed": false,
					"internalType": "string",
					"name": "signature",
					"type": "string"
				},
				{
					"indexed": false,
					"internalType": "bytes",
					"name": "args",
					"type": "bytes"
				}
			],
			"name": "ConnectionEstablished",
			"type": "event"
		},
		{
			"anonymous": false,
			"inputs": [
				{
					"indexed": false,
					"internalType": "uint256",
					"name": "ref",
					"type": "uint256"
				},
				{
					"indexed": true,
					"internalType": "address",
					"name": "caller",
					"type": "address"
				},
				{
					"indexed": false,
					"internalType": "uint256",
					"name": "timestamp",
					"type": "uint256"
				}
			],
			"name": "MultiSigProposalCancelled",
			"type": "event"
		},
		{
			"anonymous": false,
			"inputs": [
				{
					"indexed": false,
					"internalType": "uint256",
					"name": "ref",
					"type": "uint256"
				},
				{
					"indexed": true,
					"internalType": "address",
					"name": "lastSigner",
					"type": "address"
				},
				{
					"indexed": false,
					"internalType": "uint256",
					"name": "timestamp",
					"type": "uint256"
				},
				{
					"indexed": false,
					"internalType": "uint256",
					"name": "numberOfSignatures",
					"type": "uint256"
				}
			],
			"name": "MultiSigProposalHasBeenPassed",
			"type": "event"
		},
		{
			"anonymous": false,
			"inputs": [
				{
					"indexed": false,
					"internalType": "uint256",
					"name": "ref",
					"type": "uint256"
				},
				{
					"indexed": true,
					"internalType": "address",
					"name": "signer_",
					"type": "address"
				},
				{
					"indexed": false,
					"internalType": "uint256",
					"name": "timestamp",
					"type": "uint256"
				}
			],
			"name": "MultiSigProposalSignatureRevoked",
			"type": "event"
		},
		{
			"anonymous": false,
			"inputs": [
				{
					"indexed": false,
					"internalType": "uint256",
					"name": "ref",
					"type": "uint256"
				},
				{
					"indexed": true,
					"internalType": "address",
					"name": "signer_",
					"type": "address"
				},
				{
					"indexed": false,
					"internalType": "uint256",
					"name": "timestamp",
					"type": "uint256"
				}
			],
			"name": "MultiSigProposalSigned",
			"type": "event"
		},
		{
			"anonymous": false,
			"inputs": [
				{
					"indexed": true,
					"internalType": "address",
					"name": "obj",
					"type": "address"
				},
				{
					"indexed": false,
					"internalType": "bool",
					"name": "isWhitelisted",
					"type": "bool"
				}
			],
			"name": "ObjWhitelistEdit",
			"type": "event"
		},
		{
			"anonymous": false,
			"inputs": [
				{
					"indexed": true,
					"internalType": "bytes32",
					"name": "role",
					"type": "bytes32"
				},
				{
					"indexed": true,
					"internalType": "bytes32",
					"name": "previousAdminRole",
					"type": "bytes32"
				},
				{
					"indexed": true,
					"internalType": "bytes32",
					"name": "newAdminRole",
					"type": "bytes32"
				}
			],
			"name": "RoleAdminChanged",
			"type": "event"
		},
		{
			"anonymous": false,
			"inputs": [
				{
					"indexed": true,
					"internalType": "bytes32",
					"name": "role",
					"type": "bytes32"
				},
				{
					"indexed": true,
					"internalType": "address",
					"name": "account",
					"type": "address"
				},
				{
					"indexed": true,
					"internalType": "address",
					"name": "sender",
					"type": "address"
				}
			],
			"name": "RoleGranted",
			"type": "event"
		},
		{
			"anonymous": false,
			"inputs": [
				{
					"indexed": true,
					"internalType": "bytes32",
					"name": "role",
					"type": "bytes32"
				},
				{
					"indexed": true,
					"internalType": "address",
					"name": "account",
					"type": "address"
				},
				{
					"indexed": true,
					"internalType": "address",
					"name": "sender",
					"type": "address"
				}
			],
			"name": "RoleRevoked",
			"type": "event"
		},
		{
			"inputs": [],
			"name": "DEFAULT_ADMIN_ROLE",
			"outputs": [
				{
					"internalType": "bytes32",
					"name": "",
					"type": "bytes32"
				}
			],
			"stateMutability": "view",
			"type": "function"
		},
		{
			"inputs": [],
			"name": "ROLE_ADMIN",
			"outputs": [
				{
					"internalType": "bytes32",
					"name": "",
					"type": "bytes32"
				}
			],
			"stateMutability": "view",
			"type": "function"
		},
		{
			"inputs": [],
			"name": "ROLE_BOARD",
			"outputs": [
				{
					"internalType": "bytes32",
					"name": "",
					"type": "bytes32"
				}
			],
			"stateMutability": "view",
			"type": "function"
		},
		{
			"inputs": [],
			"name": "ROLE_MEMBER",
			"outputs": [
				{
					"internalType": "bytes32",
					"name": "",
					"type": "bytes32"
				}
			],
			"stateMutability": "view",
			"type": "function"
		},
		{
			"inputs": [],
			"name": "ROLE_SYNDICATE",
			"outputs": [
				{
					"internalType": "bytes32",
					"name": "",
					"type": "bytes32"
				}
			],
			"stateMutability": "view",
			"type": "function"
		},
		{
			"inputs": [
				{
					"internalType": "bytes32",
					"name": "role",
					"type": "bytes32"
				}
			],
			"name": "getRoleAdmin",
			"outputs": [
				{
					"internalType": "bytes32",
					"name": "",
					"type": "bytes32"
				}
			],
			"stateMutability": "view",
			"type": "function"
		},
		{
			"inputs": [
				{
					"internalType": "bytes32",
					"name": "role",
					"type": "bytes32"
				},
				{
					"internalType": "address",
					"name": "account",
					"type": "address"
				}
			],
			"name": "grantRole",
			"outputs": [],
			"stateMutability": "nonpayable",
			"type": "function"
		},
		{
			"inputs": [
				{
					"internalType": "bytes32",
					"name": "role",
					"type": "bytes32"
				},
				{
					"internalType": "address",
					"name": "account",
					"type": "address"
				}
			],
			"name": "hasRole",
			"outputs": [
				{
					"internalType": "bool",
					"name": "",
					"type": "bool"
				}
			],
			"stateMutability": "view",
			"type": "function"
		},
		{
			"inputs": [
				{
					"internalType": "uint256",
					"name": "ref",
					"type": "uint256"
				}
			],
			"name": "multiSigProposalCancel",
			"outputs": [],
			"stateMutability": "nonpayable",
			"type": "function"
		},
		{
			"inputs": [
				{
					"internalType": "uint256",
					"name": "ref",
					"type": "uint256"
				}
			],
			"name": "multiSigProposalEndTimestamp",
			"outputs": [
				{
					"internalType": "uint256",
					"name": "",
					"type": "uint256"
				}
			],
			"stateMutability": "view",
			"type": "function"
		},
		{
			"inputs": [
				{
					"internalType": "uint256",
					"name": "ref",
					"type": "uint256"
				}
			],
			"name": "multiSigProposalExecute",
			"outputs": [
				{
					"internalType": "bool",
					"name": "",
					"type": "bool"
				}
			],
			"stateMutability": "nonpayable",
			"type": "function"
		},
		{
			"inputs": [
				{
					"internalType": "uint256",
					"name": "ref",
					"type": "uint256"
				}
			],
			"name": "multiSigProposalHasBeenCancelled",
			"outputs": [
				{
					"internalType": "bool",
					"name": "",
					"type": "bool"
				}
			],
			"stateMutability": "view",
			"type": "function"
		},
		{
			"inputs": [
				{
					"internalType": "uint256",
					"name": "ref",
					"type": "uint256"
				}
			],
			"name": "multiSigProposalHasBeenExecuted",
			"outputs": [
				{
					"internalType": "bool",
					"name": "",
					"type": "bool"
				}
			],
			"stateMutability": "view",
			"type": "function"
		},
		{
			"inputs": [
				{
					"internalType": "uint256",
					"name": "ref",
					"type": "uint256"
				}
			],
			"name": "multiSigProposalHasBeenPassed",
			"outputs": [
				{
					"internalType": "bool",
					"name": "",
					"type": "bool"
				}
			],
			"stateMutability": "view",
			"type": "function"
		},
		{
			"inputs": [
				{
					"internalType": "uint256",
					"name": "ref",
					"type": "uint256"
				}
			],
			"name": "multiSigProposalSign",
			"outputs": [],
			"stateMutability": "nonpayable",
			"type": "function"
		},
		{
			"inputs": [
				{
					"internalType": "uint256",
					"name": "ref",
					"type": "uint256"
				}
			],
			"name": "multiSigProposalStartTimestamp",
			"outputs": [
				{
					"internalType": "uint256",
					"name": "",
					"type": "uint256"
				}
			],
			"stateMutability": "view",
			"type": "function"
		},
		{
			"inputs": [
				{
					"internalType": "uint256",
					"name": "ref",
					"type": "uint256"
				}
			],
			"name": "multiSigProposalUnsign",
			"outputs": [],
			"stateMutability": "nonpayable",
			"type": "function"
		},
		{
			"inputs": [
				{
					"internalType": "address[]",
					"name": "signers_",
					"type": "address[]"
				},
				{
					"internalType": "uint256",
					"name": "timeout",
					"type": "uint256"
				},
				{
					"internalType": "uint256",
					"name": "threshold_",
					"type": "uint256"
				},
				{
					"internalType": "address",
					"name": "obj_",
					"type": "address"
				},
				{
					"internalType": "string",
					"name": "signature_",
					"type": "string"
				},
				{
					"internalType": "bytes",
					"name": "args_",
					"type": "bytes"
				}
			],
			"name": "newMultiSigProposal",
			"outputs": [],
			"stateMutability": "nonpayable",
			"type": "function"
		},
		{
			"inputs": [
				{
					"internalType": "bytes32",
					"name": "role",
					"type": "bytes32"
				},
				{
					"internalType": "address",
					"name": "account",
					"type": "address"
				}
			],
			"name": "renounceRole",
			"outputs": [],
			"stateMutability": "nonpayable",
			"type": "function"
		},
		{
			"inputs": [
				{
					"internalType": "bytes32",
					"name": "role",
					"type": "bytes32"
				},
				{
					"internalType": "address",
					"name": "account",
					"type": "address"
				}
			],
			"name": "revokeRole",
			"outputs": [],
			"stateMutability": "nonpayable",
			"type": "function"
		},
		{
			"inputs": [
				{
					"internalType": "address",
					"name": "contract_",
					"type": "address"
				},
				{
					"internalType": "bool",
					"name": "newWhitelistState",
					"type": "bool"
				}
			],
			"name": "setObjWhitelist",
			"outputs": [],
			"stateMutability": "nonpayable",
			"type": "function"
		},
		{
			"inputs": [
				{
					"internalType": "bytes4",
					"name": "interfaceId",
					"type": "bytes4"
				}
			],
			"name": "supportsInterface",
			"outputs": [
				{
					"internalType": "bool",
					"name": "",
					"type": "bool"
				}
			],
			"stateMutability": "view",
			"type": "function"
		}
	]
}