{
	"contracts/MyToken.sol": {
		"MyToken": {
			"abi": [
				{
					"inputs": [],
					"stateMutability": "nonpayable",
					"type": "constructor"
				},
				{
					"anonymous": false,
					"inputs": [
						{
							"indexed": true,
							"internalType": "address",
							"name": "owner",
							"type": "address"
						},
						{
							"indexed": true,
							"internalType": "address",
							"name": "spender",
							"type": "address"
						},
						{
							"indexed": false,
							"internalType": "uint256",
							"name": "value",
							"type": "uint256"
						}
					],
					"name": "Approval",
					"type": "event"
				},
				{
					"anonymous": false,
					"inputs": [
						{
							"indexed": false,
							"internalType": "uint8",
							"name": "version",
							"type": "uint8"
						}
					],
					"name": "Initialized",
					"type": "event"
				},
				{
					"anonymous": false,
					"inputs": [
						{
							"indexed": true,
							"internalType": "address",
							"name": "previousOwner",
							"type": "address"
						},
						{
							"indexed": true,
							"internalType": "address",
							"name": "newOwner",
							"type": "address"
						}
					],
					"name": "OwnershipTransferred",
					"type": "event"
				},
				{
					"anonymous": false,
					"inputs": [
						{
							"indexed": false,
							"internalType": "address",
							"name": "account",
							"type": "address"
						}
					],
					"name": "Paused",
					"type": "event"
				},
				{
					"anonymous": false,
					"inputs": [
						{
							"indexed": true,
							"internalType": "address",
							"name": "from",
							"type": "address"
						},
						{
							"indexed": true,
							"internalType": "address",
							"name": "to",
							"type": "address"
						},
						{
							"indexed": false,
							"internalType": "uint256",
							"name": "value",
							"type": "uint256"
						}
					],
					"name": "Transfer",
					"type": "event"
				},
				{
					"anonymous": false,
					"inputs": [
						{
							"indexed": false,
							"internalType": "address",
							"name": "account",
							"type": "address"
						}
					],
					"name": "Unpaused",
					"type": "event"
				},
				{
					"inputs": [
						{
							"internalType": "address",
							"name": "owner",
							"type": "address"
						},
						{
							"internalType": "address",
							"name": "spender",
							"type": "address"
						}
					],
					"name": "allowance",
					"outputs": [
						{
							"internalType": "uint256",
							"name": "",
							"type": "uint256"
						}
					],
					"stateMutability": "view",
					"type": "function"
				},
				{
					"inputs": [
						{
							"internalType": "address",
							"name": "spender",
							"type": "address"
						},
						{
							"internalType": "uint256",
							"name": "amount",
							"type": "uint256"
						}
					],
					"name": "approve",
					"outputs": [
						{
							"internalType": "bool",
							"name": "",
							"type": "bool"
						}
					],
					"stateMutability": "nonpayable",
					"type": "function"
				},
				{
					"inputs": [
						{
							"internalType": "address",
							"name": "account",
							"type": "address"
						}
					],
					"name": "balanceOf",
					"outputs": [
						{
							"internalType": "uint256",
							"name": "",
							"type": "uint256"
						}
					],
					"stateMutability": "view",
					"type": "function"
				},
				{
					"inputs": [
						{
							"internalType": "uint256",
							"name": "amount",
							"type": "uint256"
						}
					],
					"name": "burn",
					"outputs": [],
					"stateMutability": "nonpayable",
					"type": "function"
				},
				{
					"inputs": [
						{
							"internalType": "address",
							"name": "account",
							"type": "address"
						},
						{
							"internalType": "uint256",
							"name": "amount",
							"type": "uint256"
						}
					],
					"name": "burnFrom",
					"outputs": [],
					"stateMutability": "nonpayable",
					"type": "function"
				},
				{
					"inputs": [],
					"name": "decimals",
					"outputs": [
						{
							"internalType": "uint8",
							"name": "",
							"type": "uint8"
						}
					],
					"stateMutability": "view",
					"type": "function"
				},
				{
					"inputs": [
						{
							"internalType": "address",
							"name": "spender",
							"type": "address"
						},
						{
							"internalType": "uint256",
							"name": "subtractedValue",
							"type": "uint256"
						}
					],
					"name": "decreaseAllowance",
					"outputs": [
						{
							"internalType": "bool",
							"name": "",
							"type": "bool"
						}
					],
					"stateMutability": "nonpayable",
					"type": "function"
				},
				{
					"inputs": [
						{
							"internalType": "address",
							"name": "spender",
							"type": "address"
						},
						{
							"internalType": "uint256",
							"name": "addedValue",
							"type": "uint256"
						}
					],
					"name": "increaseAllowance",
					"outputs": [
						{
							"internalType": "bool",
							"name": "",
							"type": "bool"
						}
					],
					"stateMutability": "nonpayable",
					"type": "function"
				},
				{
					"inputs": [],
					"name": "initialize",
					"outputs": [],
					"stateMutability": "nonpayable",
					"type": "function"
				},
				{
					"inputs": [
						{
							"internalType": "address",
							"name": "to",
							"type": "address"
						},
						{
							"internalType": "uint256",
							"name": "amount",
							"type": "uint256"
						}
					],
					"name": "mint",
					"outputs": [],
					"stateMutability": "nonpayable",
					"type": "function"
				},
				{
					"inputs": [],
					"name": "name",
					"outputs": [
						{
							"internalType": "string",
							"name": "",
							"type": "string"
						}
					],
					"stateMutability": "view",
					"type": "function"
				},
				{
					"inputs": [],
					"name": "owner",
					"outputs": [
						{
							"internalType": "address",
							"name": "",
							"type": "address"
						}
					],
					"stateMutability": "view",
					"type": "function"
				},
				{
					"inputs": [],
					"name": "pause",
					"outputs": [],
					"stateMutability": "nonpayable",
					"type": "function"
				},
				{
					"inputs": [],
					"name": "paused",
					"outputs": [
						{
							"internalType": "bool",
							"name": "",
							"type": "bool"
						}
					],
					"stateMutability": "view",
					"type": "function"
				},
				{
					"inputs": [],
					"name": "renounceOwnership",
					"outputs": [],
					"stateMutability": "nonpayable",
					"type": "function"
				},
				{
					"inputs": [],
					"name": "symbol",
					"outputs": [
						{
							"internalType": "string",
							"name": "",
							"type": "string"
						}
					],
					"stateMutability": "view",
					"type": "function"
				},
				{
					"inputs": [],
					"name": "totalSupply",
					"outputs": [
						{
							"internalType": "uint256",
							"name": "",
							"type": "uint256"
						}
					],
					"stateMutability": "view",
					"type": "function"
				},
				{
					"inputs": [
						{
							"internalType": "address",
							"name": "to",
							"type": "address"
						},
						{
							"internalType": "uint256",
							"name": "amount",
							"type": "uint256"
						}
					],
					"name": "transfer",
					"outputs": [
						{
							"internalType": "bool",
							"name": "",
							"type": "bool"
						}
					],
					"stateMutability": "nonpayable",
					"type": "function"
				},
				{
					"inputs": [
						{
							"internalType": "address",
							"name": "from",
							"type": "address"
						},
						{
							"internalType": "address",
							"name": "to",
							"type": "address"
						},
						{
							"internalType": "uint256",
							"name": "amount",
							"type": "uint256"
						}
					],
					"name": "transferFrom",
					"outputs": [
						{
							"internalType": "bool",
							"name": "",
							"type": "bool"
						}
					],
					"stateMutability": "nonpayable",
					"type": "function"
				},
				{
					"inputs": [
						{
							"internalType": "address",
							"name": "newOwner",
							"type": "address"
						}
					],
					"name": "transferOwnership",
					"outputs": [],
					"stateMutability": "nonpayable",
					"type": "function"
				},
				{
					"inputs": [],
					"name": "unpause",
					"outputs": [],
					"stateMutability": "nonpayable",
					"type": "function"
				}
			],
			"devdoc": {
				"events": {
					"Approval(address,address,uint256)": {
						"details": "Emitted when the allowance of a `spender` for an `owner` is set by a call to {approve}. `value` is the new allowance."
					},
					"Initialized(uint8)": {
						"details": "Triggered when the contract has been initialized or reinitialized."
					},
					"Paused(address)": {
						"details": "Emitted when the pause is triggered by `account`."
					},
					"Transfer(address,address,uint256)": {
						"details": "Emitted when `value` tokens are moved from one account (`from`) to another (`to`). Note that `value` may be zero."
					},
					"Unpaused(address)": {
						"details": "Emitted when the pause is lifted by `account`."
					}
				},
				"kind": "dev",
				"methods": {
					"allowance(address,address)": {
						"details": "See {IERC20-allowance}."
					},
					"approve(address,uint256)": {
						"details": "See {IERC20-approve}. NOTE: If `amount` is the maximum `uint256`, the allowance is not updated on `transferFrom`. This is semantically equivalent to an infinite approval. Requirements: - `spender` cannot be the zero address."
					},
					"balanceOf(address)": {
						"details": "See {IERC20-balanceOf}."
					},
					"burn(uint256)": {
						"details": "Destroys `amount` tokens from the caller. See {ERC20-_burn}."
					},
					"burnFrom(address,uint256)": {
						"details": "Destroys `amount` tokens from `account`, deducting from the caller's allowance. See {ERC20-_burn} and {ERC20-allowance}. Requirements: - the caller must have allowance for ``accounts``'s tokens of at least `amount`."
					},
					"constructor": {
						"custom:oz-upgrades-unsafe-allow": "constructor"
					},
					"decimals()": {
						"details": "Returns the number of decimals used to get its user representation. For example, if `decimals` equals `2`, a balance of `505` tokens should be displayed to a user as `5.05` (`505 / 10 ** 2`). Tokens usually opt for a value of 18, imitating the relationship between Ether and Wei. This is the value {ERC20} uses, unless this function is overridden; NOTE: This information is only used for _display_ purposes: it in no way affects any of the arithmetic of the contract, including {IERC20-balanceOf} and {IERC20-transfer}."
					},
					"decreaseAllowance(address,uint256)": {
						"details": "Atomically decreases the allowance granted to `spender` by the caller. This is an alternative to {approve} that can be used as a mitigation for problems described in {IERC20-approve}. Emits an {Approval} event indicating the updated allowance. Requirements: - `spender` cannot be the zero address. - `spender` must have allowance for the caller of at least `subtractedValue`."
					},
					"increaseAllowance(address,uint256)": {
						"details": "Atomically increases the allowance granted to `spender` by the caller. This is an alternative to {approve} that can be used as a mitigation for problems described in {IERC20-approve}. Emits an {Approval} event indicating the updated allowance. Requirements: - `spender` cannot be the zero address."
					},
					"name()": {
						"details": "Returns the name of the token."
					},
					"owner()": {
						"details": "Returns the address of the current owner."
					},
					"paused()": {
						"details": "Returns true if the contract is paused, and false otherwise."
					},
					"renounceOwnership()": {
						"details": "Leaves the contract without owner. It will not be possible to call `onlyOwner` functions anymore. Can only be called by the current owner. NOTE: Renouncing ownership will leave the contract without an owner, thereby removing any functionality that is only available to the owner."
					},
					"symbol()": {
						"details": "Returns the symbol of the token, usually a shorter version of the name."
					},
					"totalSupply()": {
						"details": "See {IERC20-totalSupply}."
					},
					"transfer(address,uint256)": {
						"details": "See {IERC20-transfer}. Requirements: - `to` cannot be the zero address. - the caller must have a balance of at least `amount`."
					},
					"transferFrom(address,address,uint256)": {
						"details": "See {IERC20-transferFrom}. Emits an {Approval} event indicating the updated allowance. This is not required by the EIP. See the note at the beginning of {ERC20}. NOTE: Does not update the allowance if the current allowance is the maximum `uint256`. Requirements: - `from` and `to` cannot be the zero address. - `from` must have a balance of at least `amount`. - the caller must have allowance for ``from``'s tokens of at least `amount`."
					},
					"transferOwnership(address)": {
						"details": "Transfers ownership of the contract to a new account (`newOwner`). Can only be called by the current owner."
					}
				},
				"version": 1
			},
			"evm": {
				"assembly": "    /* \"contracts/MyToken.sol\":466:1310  contract MyToken is Initializable, ERC20Upgradeable, ERC20BurnableUpgradeable, PausableUpgradeable, OwnableUpgradeable {... */\n  mstore(0x40, 0x80)\n    /* \"contracts/MyToken.sol\":644:697  constructor() {... */\n  callvalue\n  dup1\n  iszero\n  tag_1\n  jumpi\n  0x00\n  dup1\n  revert\ntag_1:\n  pop\n    /* \"contracts/MyToken.sol\":668:690  _disableInitializers() */\n  tag_4\n    /* \"contracts/MyToken.sol\":668:688  _disableInitializers */\n  shl(0x20, tag_5)\n    /* \"contracts/MyToken.sol\":668:690  _disableInitializers() */\n  0x20\n  shr\n  jump\t// in\ntag_4:\n    /* \"contracts/MyToken.sol\":466:1310  contract MyToken is Initializable, ERC20Upgradeable, ERC20BurnableUpgradeable, PausableUpgradeable, OwnableUpgradeable {... */\n  jump(tag_6)\n    /* \"@openzeppelin/contracts-upgradeable/proxy/utils/Initializable.sol\":5928:6207  function _disableInitializers() internal virtual {... */\ntag_5:\n    /* \"@openzeppelin/contracts-upgradeable/proxy/utils/Initializable.sol\":5996:6009  _initializing */\n  0x00\n  0x01\n  swap1\n  sload\n  swap1\n  0x0100\n  exp\n  swap1\n  div\n  0xff\n  and\n    /* \"@openzeppelin/contracts-upgradeable/proxy/utils/Initializable.sol\":5995:6009  !_initializing */\n  iszero\n    /* \"@openzeppelin/contracts-upgradeable/proxy/utils/Initializable.sol\":5987:6053  require(!_initializing, \"Initializable: contract is initializing\") */\n  tag_8\n  jumpi\n  mload(0x40)\n  0x08c379a000000000000000000000000000000000000000000000000000000000\n  dup2\n  mstore\n  0x04\n  add\n  tag_9\n  swap1\n  tag_10\n  jump\t// in\ntag_9:\n  mload(0x40)\n  dup1\n  swap2\n  sub\n  swap1\n  revert\ntag_8:\n    /* \"@openzeppelin/contracts-upgradeable/proxy/utils/Initializable.sol\":6082:6097  type(uint8).max */\n  0xff\n    /* \"@openzeppelin/contracts-upgradeable/proxy/utils/Initializable.sol\":6067:6097  _initialized < type(uint8).max */\n  dup1\n  and\n    /* \"@openzeppelin/contracts-upgradeable/proxy/utils/Initializable.sol\":6067:6079  _initialized */\n  0x00\n  dup1\n  sload\n  swap1\n  0x0100\n  exp\n  swap1\n  div\n  0xff\n  and\n    /* \"@openzeppelin/contracts-upgradeable/proxy/utils/Initializable.sol\":6067:6097  _initialized < type(uint8).max */\n  0xff\n  and\n  lt\n    /* \"@openzeppelin/contracts-upgradeable/proxy/utils/Initializable.sol\":6063:6201  if (_initialized < type(uint8).max) {... */\n  iszero\n  tag_11\n  jumpi\n    /* \"@openzeppelin/contracts-upgradeable/proxy/utils/Initializable.sol\":6128:6143  type(uint8).max */\n  0xff\n    /* \"@openzeppelin/contracts-upgradeable/proxy/utils/Initializable.sol\":6113:6125  _initialized */\n  0x00\n  dup1\n    /* \"@openzeppelin/contracts-upgradeable/proxy/utils/Initializable.sol\":6113:6143  _initialized = type(uint8).max */\n  0x0100\n  exp\n  dup2\n  sload\n  dup2\n  0xff\n  mul\n  not\n  and\n  swap1\n  dup4\n  0xff\n  and\n  mul\n  or\n  swap1\n  sstore\n  pop\n    /* \"@openzeppelin/contracts-upgradeable/proxy/utils/Initializable.sol\":6162:6190  Initialized(type(uint8).max) */\n  0x7f26b83ff96e1f2b6a682f133852f6798a09c465da95921460cefb3847402498\n    /* \"@openzeppelin/contracts-upgradeable/proxy/utils/Initializable.sol\":6174:6189  type(uint8).max */\n  0xff\n    /* \"@openzeppelin/contracts-upgradeable/proxy/utils/Initializable.sol\":6162:6190  Initialized(type(uint8).max) */\n  mload(0x40)\n  tag_12\n  swap2\n  swap1\n  tag_13\n  jump\t// in\ntag_12:\n  mload(0x40)\n  dup1\n  swap2\n  sub\n  swap1\n  log1\n    /* \"@openzeppelin/contracts-upgradeable/proxy/utils/Initializable.sol\":6063:6201  if (_initialized < type(uint8).max) {... */\ntag_11:\n    /* \"@openzeppelin/contracts-upgradeable/proxy/utils/Initializable.sol\":5928:6207  function _disableInitializers() internal virtual {... */\n  jump\t// out\n    /* \"#utility.yul\":7:176   */\ntag_14:\n    /* \"#utility.yul\":91:102   */\n  0x00\n    /* \"#utility.yul\":125:131   */\n  dup3\n    /* \"#utility.yul\":120:123   */\n  dup3\n    /* \"#utility.yul\":113:132   */\n  mstore\n    /* \"#utility.yul\":165:169   */\n  0x20\n    /* \"#utility.yul\":160:163   */\n  dup3\n    /* \"#utility.yul\":156:170   */\n  add\n    /* \"#utility.yul\":141:170   */\n  swap1\n  pop\n    /* \"#utility.yul\":7:176   */\n  swap3\n  swap2\n  pop\n  pop\n  jump\t// out\n    /* \"#utility.yul\":182:408   */\ntag_15:\n    /* \"#utility.yul\":322:356   */\n  0x496e697469616c697a61626c653a20636f6e747261637420697320696e697469\n    /* \"#utility.yul\":318:319   */\n  0x00\n    /* \"#utility.yul\":310:316   */\n  dup3\n    /* \"#utility.yul\":306:320   */\n  add\n    /* \"#utility.yul\":299:357   */\n  mstore\n    /* \"#utility.yul\":391:400   */\n  0x616c697a696e6700000000000000000000000000000000000000000000000000\n    /* \"#utility.yul\":386:388   */\n  0x20\n    /* \"#utility.yul\":378:384   */\n  dup3\n    /* \"#utility.yul\":374:389   */\n  add\n    /* \"#utility.yul\":367:401   */\n  mstore\n    /* \"#utility.yul\":182:408   */\n  pop\n  jump\t// out\n    /* \"#utility.yul\":414:780   */\ntag_16:\n    /* \"#utility.yul\":556:559   */\n  0x00\n    /* \"#utility.yul\":577:644   */\n  tag_23\n    /* \"#utility.yul\":641:643   */\n  0x27\n    /* \"#utility.yul\":636:639   */\n  dup4\n    /* \"#utility.yul\":577:644   */\n  tag_14\n  jump\t// in\ntag_23:\n    /* \"#utility.yul\":570:644   */\n  swap2\n  pop\n    /* \"#utility.yul\":653:746   */\n  tag_24\n    /* \"#utility.yul\":742:745   */\n  dup3\n    /* \"#utility.yul\":653:746   */\n  tag_15\n  jump\t// in\ntag_24:\n    /* \"#utility.yul\":771:773   */\n  0x40\n    /* \"#utility.yul\":766:769   */\n  dup3\n    /* \"#utility.yul\":762:774   */\n  add\n    /* \"#utility.yul\":755:774   */\n  swap1\n  pop\n    /* \"#utility.yul\":414:780   */\n  swap2\n  swap1\n  pop\n  jump\t// out\n    /* \"#utility.yul\":786:1205   */\ntag_10:\n    /* \"#utility.yul\":952:956   */\n  0x00\n    /* \"#utility.yul\":990:992   */\n  0x20\n    /* \"#utility.yul\":979:988   */\n  dup3\n    /* \"#utility.yul\":975:993   */\n  add\n    /* \"#utility.yul\":967:993   */\n  swap1\n  pop\n    /* \"#utility.yul\":1039:1048   */\n  dup2\n    /* \"#utility.yul\":1033:1037   */\n  dup2\n    /* \"#utility.yul\":1029:1049   */\n  sub\n    /* \"#utility.yul\":1025:1026   */\n  0x00\n    /* \"#utility.yul\":1014:1023   */\n  dup4\n    /* \"#utility.yul\":1010:1027   */\n  add\n    /* \"#utility.yul\":1003:1050   */\n  mstore\n    /* \"#utility.yul\":1067:1198   */\n  tag_26\n    /* \"#utility.yul\":1193:1197   */\n  dup2\n    /* \"#utility.yul\":1067:1198   */\n  tag_16\n  jump\t// in\ntag_26:\n    /* \"#utility.yul\":1059:1198   */\n  swap1\n  pop\n    /* \"#utility.yul\":786:1205   */\n  swap2\n  swap1\n  pop\n  jump\t// out\n    /* \"#utility.yul\":1211:1297   */\ntag_17:\n    /* \"#utility.yul\":1246:1253   */\n  0x00\n    /* \"#utility.yul\":1286:1290   */\n  0xff\n    /* \"#utility.yul\":1279:1284   */\n  dup3\n    /* \"#utility.yul\":1275:1291   */\n  and\n    /* \"#utility.yul\":1264:1291   */\n  swap1\n  pop\n    /* \"#utility.yul\":1211:1297   */\n  swap2\n  swap1\n  pop\n  jump\t// out\n    /* \"#utility.yul\":1303:1415   */\ntag_18:\n    /* \"#utility.yul\":1386:1408   */\n  tag_29\n    /* \"#utility.yul\":1402:1407   */\n  dup2\n    /* \"#utility.yul\":1386:1408   */\n  tag_17\n  jump\t// in\ntag_29:\n    /* \"#utility.yul\":1381:1384   */\n  dup3\n    /* \"#utility.yul\":1374:1409   */\n  mstore\n    /* \"#utility.yul\":1303:1415   */\n  pop\n  pop\n  jump\t// out\n    /* \"#utility.yul\":1421:1635   */\ntag_13:\n    /* \"#utility.yul\":1510:1514   */\n  0x00\n    /* \"#utility.yul\":1548:1550   */\n  0x20\n    /* \"#utility.yul\":1537:1546   */\n  dup3\n    /* \"#utility.yul\":1533:1551   */\n  add\n    /* \"#utility.yul\":1525:1551   */\n  swap1\n  pop\n    /* \"#utility.yul\":1561:1628   */\n  tag_31\n    /* \"#utility.yul\":1625:1626   */\n  0x00\n    /* \"#utility.yul\":1614:1623   */\n  dup4\n    /* \"#utility.yul\":1610:1627   */\n  add\n    /* \"#utility.yul\":1601:1607   */\n  dup5\n    /* \"#utility.yul\":1561:1628   */\n  tag_18\n  jump\t// in\ntag_31:\n    /* \"#utility.yul\":1421:1635   */\n  swap3\n  swap2\n  pop\n  pop\n  jump\t// out\n    /* \"contracts/MyToken.sol\":466:1310  contract MyToken is Initializable, ERC20Upgradeable, ERC20BurnableUpgradeable, PausableUpgradeable, OwnableUpgradeable {... */\ntag_6:\n  dataSize(sub_0)\n  dup1\n  dataOffset(sub_0)\n  0x00\n  codecopy\n  0x00\n  return\nstop\n\nsub_0: assembly {\n        /* \"contracts/MyToken.sol\":466:1310  contract MyToken is Initializable, ERC20Upgradeable, ERC20BurnableUpgradeable, PausableUpgradeable, OwnableUpgradeable {... */\n      mstore(0x40, 0x80)\n      callvalue\n      dup1\n      iszero\n      tag_1\n      jumpi\n      0x00\n      dup1\n      revert\n    tag_1:\n      pop\n      jumpi(tag_2, lt(calldatasize, 0x04))\n      shr(0xe0, calldataload(0x00))\n      dup1\n      0x70a08231\n      gt\n      tag_24\n      jumpi\n      dup1\n      0x8da5cb5b\n      gt\n      tag_25\n      jumpi\n      dup1\n      0x8da5cb5b\n      eq\n      tag_18\n      jumpi\n      dup1\n      0x95d89b41\n      eq\n      tag_19\n      jumpi\n      dup1\n      0xa457c2d7\n      eq\n      tag_20\n      jumpi\n      dup1\n      0xa9059cbb\n      eq\n      tag_21\n      jumpi\n      dup1\n      0xdd62ed3e\n      eq\n      tag_22\n      jumpi\n      dup1\n      0xf2fde38b\n      eq\n      tag_23\n      jumpi\n      jump(tag_2)\n    tag_25:\n      dup1\n      0x70a08231\n      eq\n      tag_13\n      jumpi\n      dup1\n      0x715018a6\n      eq\n      tag_14\n      jumpi\n      dup1\n      0x79cc6790\n      eq\n      tag_15\n      jumpi\n      dup1\n      0x8129fc1c\n      eq\n      tag_16\n      jumpi\n      dup1\n      0x8456cb59\n      eq\n      tag_17\n      jumpi\n      jump(tag_2)\n    tag_24:\n      dup1\n      0x39509351\n      gt\n      tag_26\n      jumpi\n      dup1\n      0x39509351\n      eq\n      tag_8\n      jumpi\n      dup1\n      0x3f4ba83a\n      eq\n      tag_9\n      jumpi\n      dup1\n      0x40c10f19\n      eq\n      tag_10\n      jumpi\n      dup1\n      0x42966c68\n      eq\n      tag_11\n      jumpi\n      dup1\n      0x5c975abb\n      eq\n      tag_12\n      jumpi\n      jump(tag_2)\n    tag_26:\n      dup1\n      0x06fdde03\n      eq\n      tag_3\n      jumpi\n      dup1\n      0x095ea7b3\n      eq\n      tag_4\n      jumpi\n      dup1\n      0x18160ddd\n      eq\n      tag_5\n      jumpi\n      dup1\n      0x23b872dd\n      eq\n      tag_6\n      jumpi\n      dup1\n      0x313ce567\n      eq\n      tag_7\n      jumpi\n    tag_2:\n      0x00\n      dup1\n      revert\n        /* \"@openzeppelin/contracts-upgradeable/token/ERC20/ERC20Upgradeable.sol\":2491:2589  function name() public view virtual override returns (string memory) {... */\n    tag_3:\n      tag_27\n      tag_28\n      jump\t// in\n    tag_27:\n      mload(0x40)\n      tag_29\n      swap2\n      swap1\n      tag_30\n      jump\t// in\n    tag_29:\n      mload(0x40)\n      dup1\n      swap2\n      sub\n      swap1\n      return\n        /* \"@openzeppelin/contracts-upgradeable/token/ERC20/ERC20Upgradeable.sol\":4768:4965  function approve(address spender, uint256 amount) public virtual override returns (bool) {... */\n    tag_4:\n      tag_31\n      0x04\n      dup1\n      calldatasize\n      sub\n      dup2\n      add\n      swap1\n      tag_32\n      swap2\n      swap1\n      tag_33\n      jump\t// in\n    tag_32:\n      tag_34\n      jump\t// in\n    tag_31:\n      mload(0x40)\n      tag_35\n      swap2\n      swap1\n      tag_36\n      jump\t// in\n    tag_35:\n      mload(0x40)\n      dup1\n      swap2\n      sub\n      swap1\n      return\n        /* \"@openzeppelin/contracts-upgradeable/token/ERC20/ERC20Upgradeable.sol\":3579:3685  function totalSupply() public view virtual override returns (uint256) {... */\n    tag_5:\n      tag_37\n      tag_38\n      jump\t// in\n    tag_37:\n      mload(0x40)\n      tag_39\n      swap2\n      swap1\n      tag_40\n      jump\t// in\n    tag_39:\n      mload(0x40)\n      dup1\n      swap2\n      sub\n      swap1\n      return\n        /* \"@openzeppelin/contracts-upgradeable/token/ERC20/ERC20Upgradeable.sol\":5527:5813  function transferFrom(... */\n    tag_6:\n      tag_41\n      0x04\n      dup1\n      calldatasize\n      sub\n      dup2\n      add\n      swap1\n      tag_42\n      swap2\n      swap1\n      tag_43\n      jump\t// in\n    tag_42:\n      tag_44\n      jump\t// in\n    tag_41:\n      mload(0x40)\n      tag_45\n      swap2\n      swap1\n      tag_36\n      jump\t// in\n    tag_45:\n      mload(0x40)\n      dup1\n      swap2\n      sub\n      swap1\n      return\n        /* \"@openzeppelin/contracts-upgradeable/token/ERC20/ERC20Upgradeable.sol\":3428:3519  function decimals() public view virtual override returns (uint8) {... */\n    tag_7:\n      tag_46\n      tag_47\n      jump\t// in\n    tag_46:\n      mload(0x40)\n      tag_48\n      swap2\n      swap1\n      tag_49\n      jump\t// in\n    tag_48:\n      mload(0x40)\n      dup1\n      swap2\n      sub\n      swap1\n      return\n        /* \"@openzeppelin/contracts-upgradeable/token/ERC20/ERC20Upgradeable.sol\":6208:6442  function increaseAllowance(address spender, uint256 addedValue) public virtual returns (bool) {... */\n    tag_8:\n      tag_50\n      0x04\n      dup1\n      calldatasize\n      sub\n      dup2\n      add\n      swap1\n      tag_51\n      swap2\n      swap1\n      tag_33\n      jump\t// in\n    tag_51:\n      tag_52\n      jump\t// in\n    tag_50:\n      mload(0x40)\n      tag_53\n      swap2\n      swap1\n      tag_36\n      jump\t// in\n    tag_53:\n      mload(0x40)\n      dup1\n      swap2\n      sub\n      swap1\n      return\n        /* \"contracts/MyToken.sol\":947:1010  function unpause() public onlyOwner {... */\n    tag_9:\n      tag_54\n      tag_55\n      jump\t// in\n    tag_54:\n      stop\n        /* \"contracts/MyToken.sol\":1016:1109  function mint(address to, uint256 amount) public onlyOwner {... */\n    tag_10:\n      tag_56\n      0x04\n      dup1\n      calldatasize\n      sub\n      dup2\n      add\n      swap1\n      tag_57\n      swap2\n      swap1\n      tag_33\n      jump\t// in\n    tag_57:\n      tag_58\n      jump\t// in\n    tag_56:\n      stop\n        /* \"@openzeppelin/contracts-upgradeable/token/ERC20/extensions/ERC20BurnableUpgradeable.sol\":848:937  function burn(uint256 amount) public virtual {... */\n    tag_11:\n      tag_59\n      0x04\n      dup1\n      calldatasize\n      sub\n      dup2\n      add\n      swap1\n      tag_60\n      swap2\n      swap1\n      tag_61\n      jump\t// in\n    tag_60:\n      tag_62\n      jump\t// in\n    tag_59:\n      stop\n        /* \"@openzeppelin/contracts-upgradeable/security/PausableUpgradeable.sol\":1858:1942  function paused() public view virtual returns (bool) {... */\n    tag_12:\n      tag_63\n      tag_64\n      jump\t// in\n    tag_63:\n      mload(0x40)\n      tag_65\n      swap2\n      swap1\n      tag_36\n      jump\t// in\n    tag_65:\n      mload(0x40)\n      dup1\n      swap2\n      sub\n      swap1\n      return\n        /* \"@openzeppelin/contracts-upgradeable/token/ERC20/ERC20Upgradeable.sol\":3743:3868  function balanceOf(address account) public view virtual override returns (uint256) {... */\n    tag_13:\n      tag_66\n      0x04\n      dup1\n      calldatasize\n      sub\n      dup2\n      add\n      swap1\n      tag_67\n      swap2\n      swap1\n      tag_68\n      jump\t// in\n    tag_67:\n      tag_69\n      jump\t// in\n    tag_66:\n      mload(0x40)\n      tag_70\n      swap2\n      swap1\n      tag_40\n      jump\t// in\n    tag_70:\n      mload(0x40)\n      dup1\n      swap2\n      sub\n      swap1\n      return\n        /* \"@openzeppelin/contracts-upgradeable/access/OwnableUpgradeable.sol\":2071:2172  function renounceOwnership() public virtual onlyOwner {... */\n    tag_14:\n      tag_71\n      tag_72\n      jump\t// in\n    tag_71:\n      stop\n        /* \"@openzeppelin/contracts-upgradeable/token/ERC20/extensions/ERC20BurnableUpgradeable.sol\":1243:1404  function burnFrom(address account, uint256 amount) public virtual {... */\n    tag_15:\n      tag_73\n      0x04\n      dup1\n      calldatasize\n      sub\n      dup2\n      add\n      swap1\n      tag_74\n      swap2\n      swap1\n      tag_33\n      jump\t// in\n    tag_74:\n      tag_75\n      jump\t// in\n    tag_73:\n      stop\n        /* \"contracts/MyToken.sol\":703:876  function initialize() initializer public {... */\n    tag_16:\n      tag_76\n      tag_77\n      jump\t// in\n    tag_76:\n      stop\n        /* \"contracts/MyToken.sol\":882:941  function pause() public onlyOwner {... */\n    tag_17:\n      tag_78\n      tag_79\n      jump\t// in\n    tag_78:\n      stop\n        /* \"@openzeppelin/contracts-upgradeable/access/OwnableUpgradeable.sol\":1441:1526  function owner() public view virtual returns (address) {... */\n    tag_18:\n      tag_80\n      tag_81\n      jump\t// in\n    tag_80:\n      mload(0x40)\n      tag_82\n      swap2\n      swap1\n      tag_83\n      jump\t// in\n    tag_82:\n      mload(0x40)\n      dup1\n      swap2\n      sub\n      swap1\n      return\n        /* \"@openzeppelin/contracts-upgradeable/token/ERC20/ERC20Upgradeable.sol\":2702:2804  function symbol() public view virtual override returns (string memory) {... */\n    tag_19:\n      tag_84\n      tag_85\n      jump\t// in\n    tag_84:\n      mload(0x40)\n      tag_86\n      swap2\n      swap1\n      tag_30\n      jump\t// in\n    tag_86:\n      mload(0x40)\n      dup1\n      swap2\n      sub\n      swap1\n      return\n        /* \"@openzeppelin/contracts-upgradeable/token/ERC20/ERC20Upgradeable.sol\":6929:7356  function decreaseAllowance(address spender, uint256 subtractedValue) public virtual returns (bool) {... */\n    tag_20:\n      tag_87\n      0x04\n      dup1\n      calldatasize\n      sub\n      dup2\n      add\n      swap1\n      tag_88\n      swap2\n      swap1\n      tag_33\n      jump\t// in\n    tag_88:\n      tag_89\n      jump\t// in\n    tag_87:\n      mload(0x40)\n      tag_90\n      swap2\n      swap1\n      tag_36\n      jump\t// in\n    tag_90:\n      mload(0x40)\n      dup1\n      swap2\n      sub\n      swap1\n      return\n        /* \"@openzeppelin/contracts-upgradeable/token/ERC20/ERC20Upgradeable.sol\":4064:4253  function transfer(address to, uint256 amount) public virtual override returns (bool) {... */\n    tag_21:\n      tag_91\n      0x04\n      dup1\n      calldatasize\n      sub\n      dup2\n      add\n      swap1\n      tag_92\n      swap2\n      swap1\n      tag_33\n      jump\t// in\n    tag_92:\n      tag_93\n      jump\t// in\n    tag_91:\n      mload(0x40)\n      tag_94\n      swap2\n      swap1\n      tag_36\n      jump\t// in\n    tag_94:\n      mload(0x40)\n      dup1\n      swap2\n      sub\n      swap1\n      return\n        /* \"@openzeppelin/contracts-upgradeable/token/ERC20/ERC20Upgradeable.sol\":4311:4460  function allowance(address owner, address spender) public view virtual override returns (uint256) {... */\n    tag_22:\n      tag_95\n      0x04\n      dup1\n      calldatasize\n      sub\n      dup2\n      add\n      swap1\n      tag_96\n      swap2\n      swap1\n      tag_97\n      jump\t// in\n    tag_96:\n      tag_98\n      jump\t// in\n    tag_95:\n      mload(0x40)\n      tag_99\n      swap2\n      swap1\n      tag_40\n      jump\t// in\n    tag_99:\n      mload(0x40)\n      dup1\n      swap2\n      sub\n      swap1\n      return\n        /* \"@openzeppelin/contracts-upgradeable/access/OwnableUpgradeable.sol\":2321:2519  function transferOwnership(address newOwner) public virtual onlyOwner {... */\n    tag_23:\n      tag_100\n      0x04\n      dup1\n      calldatasize\n      sub\n      dup2\n      add\n      swap1\n      tag_101\n      swap2\n      swap1\n      tag_68\n      jump\t// in\n    tag_101:\n      tag_102\n      jump\t// in\n    tag_100:\n      stop\n        /* \"@openzeppelin/contracts-upgradeable/token/ERC20/ERC20Upgradeable.sol\":2491:2589  function name() public view virtual override returns (string memory) {... */\n    tag_28:\n        /* \"@openzeppelin/contracts-upgradeable/token/ERC20/ERC20Upgradeable.sol\":2545:2558  string memory */\n      0x60\n        /* \"@openzeppelin/contracts-upgradeable/token/ERC20/ERC20Upgradeable.sol\":2577:2582  _name */\n      0x36\n        /* \"@openzeppelin/contracts-upgradeable/token/ERC20/ERC20Upgradeable.sol\":2570:2582  return _name */\n      dup1\n      sload\n      tag_104\n      swap1\n      tag_105\n      jump\t// in\n    tag_104:\n      dup1\n      0x1f\n      add\n      0x20\n      dup1\n      swap2\n      div\n      mul\n      0x20\n      add\n      mload(0x40)\n      swap1\n      dup2\n      add\n      0x40\n      mstore\n      dup1\n      swap3\n      swap2\n      swap1\n      dup2\n      dup2\n      mstore\n      0x20\n      add\n      dup3\n      dup1\n      sload\n      tag_106\n      swap1\n      tag_105\n      jump\t// in\n    tag_106:\n      dup1\n      iszero\n      tag_107\n      jumpi\n      dup1\n      0x1f\n      lt\n      tag_108\n      jumpi\n      0x0100\n      dup1\n      dup4\n      sload\n      div\n      mul\n      dup4\n      mstore\n      swap2\n      0x20\n      add\n      swap2\n      jump(tag_107)\n    tag_108:\n      dup3\n      add\n      swap2\n      swap1\n      0x00\n      mstore\n      keccak256(0x00, 0x20)\n      swap1\n    tag_109:\n      dup2\n      sload\n      dup2\n      mstore\n      swap1\n      0x01\n      add\n      swap1\n      0x20\n      add\n      dup1\n      dup4\n      gt\n      tag_109\n      jumpi\n      dup3\n      swap1\n      sub\n      0x1f\n      and\n      dup3\n      add\n      swap2\n    tag_107:\n      pop\n      pop\n      pop\n      pop\n      pop\n      swap1\n      pop\n        /* \"@openzeppelin/contracts-upgradeable/token/ERC20/ERC20Upgradeable.sol\":2491:2589  function name() public view virtual override returns (string memory) {... */\n      swap1\n      jump\t// out\n        /* \"@openzeppelin/contracts-upgradeable/token/ERC20/ERC20Upgradeable.sol\":4768:4965  function approve(address spender, uint256 amount) public virtual override returns (bool) {... */\n    tag_34:\n        /* \"@openzeppelin/contracts-upgradeable/token/ERC20/ERC20Upgradeable.sol\":4851:4855  bool */\n      0x00\n        /* \"@openzeppelin/contracts-upgradeable/token/ERC20/ERC20Upgradeable.sol\":4867:4880  address owner */\n      dup1\n        /* \"@openzeppelin/contracts-upgradeable/token/ERC20/ERC20Upgradeable.sol\":4883:4895  _msgSender() */\n      tag_111\n        /* \"@openzeppelin/contracts-upgradeable/token/ERC20/ERC20Upgradeable.sol\":4883:4893  _msgSender */\n      tag_112\n        /* \"@openzeppelin/contracts-upgradeable/token/ERC20/ERC20Upgradeable.sol\":4883:4895  _msgSender() */\n      jump\t// in\n    tag_111:\n        /* \"@openzeppelin/contracts-upgradeable/token/ERC20/ERC20Upgradeable.sol\":4867:4895  address owner = _msgSender() */\n      swap1\n      pop\n        /* \"@openzeppelin/contracts-upgradeable/token/ERC20/ERC20Upgradeable.sol\":4905:4937  _approve(owner, spender, amount) */\n      tag_113\n        /* \"@openzeppelin/contracts-upgradeable/token/ERC20/ERC20Upgradeable.sol\":4914:4919  owner */\n      dup2\n        /* \"@openzeppelin/contracts-upgradeable/token/ERC20/ERC20Upgradeable.sol\":4921:4928  spender */\n      dup6\n        /* \"@openzeppelin/contracts-upgradeable/token/ERC20/ERC20Upgradeable.sol\":4930:4936  amount */\n      dup6\n        /* \"@openzeppelin/contracts-upgradeable/token/ERC20/ERC20Upgradeable.sol\":4905:4913  _approve */\n      tag_114\n        /* \"@openzeppelin/contracts-upgradeable/token/ERC20/ERC20Upgradeable.sol\":4905:4937  _approve(owner, spender, amount) */\n      jump\t// in\n    tag_113:\n        /* \"@openzeppelin/contracts-upgradeable/token/ERC20/ERC20Upgradeable.sol\":4954:4958  true */\n      0x01\n        /* \"@openzeppelin/contracts-upgradeable/token/ERC20/ERC20Upgradeable.sol\":4947:4958  return true */\n      swap2\n      pop\n      pop\n        /* \"@openzeppelin/contracts-upgradeable/token/ERC20/ERC20Upgradeable.sol\":4768:4965  function approve(address spender, uint256 amount) public virtual override returns (bool) {... */\n      swap3\n      swap2\n      pop\n      pop\n      jump\t// out\n        /* \"@openzeppelin/contracts-upgradeable/token/ERC20/ERC20Upgradeable.sol\":3579:3685  function totalSupply() public view virtual override returns (uint256) {... */\n    tag_38:\n        /* \"@openzeppelin/contracts-upgradeable/token/ERC20/ERC20Upgradeable.sol\":3640:3647  uint256 */\n      0x00\n        /* \"@openzeppelin/contracts-upgradeable/token/ERC20/ERC20Upgradeable.sol\":3666:3678  _totalSupply */\n      sload(0x35)\n        /* \"@openzeppelin/contracts-upgradeable/token/ERC20/ERC20Upgradeable.sol\":3659:3678  return _totalSupply */\n      swap1\n      pop\n        /* \"@openzeppelin/contracts-upgradeable/token/ERC20/ERC20Upgradeable.sol\":3579:3685  function totalSupply() public view virtual override returns (uint256) {... */\n      swap1\n      jump\t// out\n        /* \"@openzeppelin/contracts-upgradeable/token/ERC20/ERC20Upgradeable.sol\":5527:5813  function transferFrom(... */\n    tag_44:\n        /* \"@openzeppelin/contracts-upgradeable/token/ERC20/ERC20Upgradeable.sol\":5654:5658  bool */\n      0x00\n        /* \"@openzeppelin/contracts-upgradeable/token/ERC20/ERC20Upgradeable.sol\":5670:5685  address spender */\n      dup1\n        /* \"@openzeppelin/contracts-upgradeable/token/ERC20/ERC20Upgradeable.sol\":5688:5700  _msgSender() */\n      tag_117\n        /* \"@openzeppelin/contracts-upgradeable/token/ERC20/ERC20Upgradeable.sol\":5688:5698  _msgSender */\n      tag_112\n        /* \"@openzeppelin/contracts-upgradeable/token/ERC20/ERC20Upgradeable.sol\":5688:5700  _msgSender() */\n      jump\t// in\n    tag_117:\n        /* \"@openzeppelin/contracts-upgradeable/token/ERC20/ERC20Upgradeable.sol\":5670:5700  address spender = _msgSender() */\n      swap1\n      pop\n        /* \"@openzeppelin/contracts-upgradeable/token/ERC20/ERC20Upgradeable.sol\":5710:5748  _spendAllowance(from, spender, amount) */\n      tag_118\n        /* \"@openzeppelin/contracts-upgradeable/token/ERC20/ERC20Upgradeable.sol\":5726:5730  from */\n      dup6\n        /* \"@openzeppelin/contracts-upgradeable/token/ERC20/ERC20Upgradeable.sol\":5732:5739  spender */\n      dup3\n        /* \"@openzeppelin/contracts-upgradeable/token/ERC20/ERC20Upgradeable.sol\":5741:5747  amount */\n      dup6\n        /* \"@openzeppelin/contracts-upgradeable/token/ERC20/ERC20Upgradeable.sol\":5710:5725  _spendAllowance */\n      tag_119\n        /* \"@openzeppelin/contracts-upgradeable/token/ERC20/ERC20Upgradeable.sol\":5710:5748  _spendAllowance(from, spender, amount) */\n      jump\t// in\n    tag_118:\n        /* \"@openzeppelin/contracts-upgradeable/token/ERC20/ERC20Upgradeable.sol\":5758:5785  _transfer(from, to, amount) */\n      tag_120\n        /* \"@openzeppelin/contracts-upgradeable/token/ERC20/ERC20Upgradeable.sol\":5768:5772  from */\n      dup6\n        /* \"@openzeppelin/contracts-upgradeable/token/ERC20/ERC20Upgradeable.sol\":5774:5776  to */\n      dup6\n        /* \"@openzeppelin/contracts-upgradeable/token/ERC20/ERC20Upgradeable.sol\":5778:5784  amount */\n      dup6\n        /* \"@openzeppelin/contracts-upgradeable/token/ERC20/ERC20Upgradeable.sol\":5758:5767  _transfer */\n      tag_121\n        /* \"@openzeppelin/contracts-upgradeable/token/ERC20/ERC20Upgradeable.sol\":5758:5785  _transfer(from, to, amount) */\n      jump\t// in\n    tag_120:\n        /* \"@openzeppelin/contracts-upgradeable/token/ERC20/ERC20Upgradeable.sol\":5802:5806  true */\n      0x01\n        /* \"@openzeppelin/contracts-upgradeable/token/ERC20/ERC20Upgradeable.sol\":5795:5806  return true */\n      swap2\n      pop\n      pop\n        /* \"@openzeppelin/contracts-upgradeable/token/ERC20/ERC20Upgradeable.sol\":5527:5813  function transferFrom(... */\n      swap4\n      swap3\n      pop\n      pop\n      pop\n      jump\t// out\n        /* \"@openzeppelin/contracts-upgradeable/token/ERC20/ERC20Upgradeable.sol\":3428:3519  function decimals() public view virtual override returns (uint8) {... */\n    tag_47:\n        /* \"@openzeppelin/contracts-upgradeable/token/ERC20/ERC20Upgradeable.sol\":3486:3491  uint8 */\n      0x00\n        /* \"@openzeppelin/contracts-upgradeable/token/ERC20/ERC20Upgradeable.sol\":3510:3512  18 */\n      0x12\n        /* \"@openzeppelin/contracts-upgradeable/token/ERC20/ERC20Upgradeable.sol\":3503:3512  return 18 */\n      swap1\n      pop\n        /* \"@openzeppelin/contracts-upgradeable/token/ERC20/ERC20Upgradeable.sol\":3428:3519  function decimals() public view virtual override returns (uint8) {... */\n      swap1\n      jump\t// out\n        /* \"@openzeppelin/contracts-upgradeable/token/ERC20/ERC20Upgradeable.sol\":6208:6442  function increaseAllowance(address spender, uint256 addedValue) public virtual returns (bool) {... */\n    tag_52:\n        /* \"@openzeppelin/contracts-upgradeable/token/ERC20/ERC20Upgradeable.sol\":6296:6300  bool */\n      0x00\n        /* \"@openzeppelin/contracts-upgradeable/token/ERC20/ERC20Upgradeable.sol\":6312:6325  address owner */\n      dup1\n        /* \"@openzeppelin/contracts-upgradeable/token/ERC20/ERC20Upgradeable.sol\":6328:6340  _msgSender() */\n      tag_124\n        /* \"@openzeppelin/contracts-upgradeable/token/ERC20/ERC20Upgradeable.sol\":6328:6338  _msgSender */\n      tag_112\n        /* \"@openzeppelin/contracts-upgradeable/token/ERC20/ERC20Upgradeable.sol\":6328:6340  _msgSender() */\n      jump\t// in\n    tag_124:\n        /* \"@openzeppelin/contracts-upgradeable/token/ERC20/ERC20Upgradeable.sol\":6312:6340  address owner = _msgSender() */\n      swap1\n      pop\n        /* \"@openzeppelin/contracts-upgradeable/token/ERC20/ERC20Upgradeable.sol\":6350:6414  _approve(owner, spender, allowance(owner, spender) + addedValue) */\n      tag_125\n        /* \"@openzeppelin/contracts-upgradeable/token/ERC20/ERC20Upgradeable.sol\":6359:6364  owner */\n      dup2\n        /* \"@openzeppelin/contracts-upgradeable/token/ERC20/ERC20Upgradeable.sol\":6366:6373  spender */\n      dup6\n        /* \"@openzeppelin/contracts-upgradeable/token/ERC20/ERC20Upgradeable.sol\":6403:6413  addedValue */\n      dup6\n        /* \"@openzeppelin/contracts-upgradeable/token/ERC20/ERC20Upgradeable.sol\":6375:6400  allowance(owner, spender) */\n      tag_126\n        /* \"@openzeppelin/contracts-upgradeable/token/ERC20/ERC20Upgradeable.sol\":6385:6390  owner */\n      dup6\n        /* \"@openzeppelin/contracts-upgradeable/token/ERC20/ERC20Upgradeable.sol\":6392:6399  spender */\n      dup10\n        /* \"@openzeppelin/contracts-upgradeable/token/ERC20/ERC20Upgradeable.sol\":6375:6384  allowance */\n      tag_98\n        /* \"@openzeppelin/contracts-upgradeable/token/ERC20/ERC20Upgradeable.sol\":6375:6400  allowance(owner, spender) */\n      jump\t// in\n    tag_126:\n        /* \"@openzeppelin/contracts-upgradeable/token/ERC20/ERC20Upgradeable.sol\":6375:6413  allowance(owner, spender) + addedValue */\n      tag_127\n      swap2\n      swap1\n      tag_128\n      jump\t// in\n    tag_127:\n        /* \"@openzeppelin/contracts-upgradeable/token/ERC20/ERC20Upgradeable.sol\":6350:6358  _approve */\n      tag_114\n        /* \"@openzeppelin/contracts-upgradeable/token/ERC20/ERC20Upgradeable.sol\":6350:6414  _approve(owner, spender, allowance(owner, spender) + addedValue) */\n      jump\t// in\n    tag_125:\n        /* \"@openzeppelin/contracts-upgradeable/token/ERC20/ERC20Upgradeable.sol\":6431:6435  true */\n      0x01\n        /* \"@openzeppelin/contracts-upgradeable/token/ERC20/ERC20Upgradeable.sol\":6424:6435  return true */\n      swap2\n      pop\n      pop\n        /* \"@openzeppelin/contracts-upgradeable/token/ERC20/ERC20Upgradeable.sol\":6208:6442  function increaseAllowance(address spender, uint256 addedValue) public virtual returns (bool) {... */\n      swap3\n      swap2\n      pop\n      pop\n      jump\t// out\n        /* \"contracts/MyToken.sol\":947:1010  function unpause() public onlyOwner {... */\n    tag_55:\n        /* \"@openzeppelin/contracts-upgradeable/access/OwnableUpgradeable.sol\":1334:1347  _checkOwner() */\n      tag_130\n        /* \"@openzeppelin/contracts-upgradeable/access/OwnableUpgradeable.sol\":1334:1345  _checkOwner */\n      tag_131\n        /* \"@openzeppelin/contracts-upgradeable/access/OwnableUpgradeable.sol\":1334:1347  _checkOwner() */\n      jump\t// in\n    tag_130:\n        /* \"contracts/MyToken.sol\":993:1003  _unpause() */\n      tag_133\n        /* \"contracts/MyToken.sol\":993:1001  _unpause */\n      tag_134\n        /* \"contracts/MyToken.sol\":993:1003  _unpause() */\n      jump\t// in\n    tag_133:\n        /* \"contracts/MyToken.sol\":947:1010  function unpause() public onlyOwner {... */\n      jump\t// out\n        /* \"contracts/MyToken.sol\":1016:1109  function mint(address to, uint256 amount) public onlyOwner {... */\n    tag_58:\n        /* \"@openzeppelin/contracts-upgradeable/access/OwnableUpgradeable.sol\":1334:1347  _checkOwner() */\n      tag_136\n        /* \"@openzeppelin/contracts-upgradeable/access/OwnableUpgradeable.sol\":1334:1345  _checkOwner */\n      tag_131\n        /* \"@openzeppelin/contracts-upgradeable/access/OwnableUpgradeable.sol\":1334:1347  _checkOwner() */\n      jump\t// in\n    tag_136:\n        /* \"contracts/MyToken.sol\":1085:1102  _mint(to, amount) */\n      tag_138\n        /* \"contracts/MyToken.sol\":1091:1093  to */\n      dup3\n        /* \"contracts/MyToken.sol\":1095:1101  amount */\n      dup3\n        /* \"contracts/MyToken.sol\":1085:1090  _mint */\n      tag_139\n        /* \"contracts/MyToken.sol\":1085:1102  _mint(to, amount) */\n      jump\t// in\n    tag_138:\n        /* \"contracts/MyToken.sol\":1016:1109  function mint(address to, uint256 amount) public onlyOwner {... */\n      pop\n      pop\n      jump\t// out\n        /* \"@openzeppelin/contracts-upgradeable/token/ERC20/extensions/ERC20BurnableUpgradeable.sol\":848:937  function burn(uint256 amount) public virtual {... */\n    tag_62:\n        /* \"@openzeppelin/contracts-upgradeable/token/ERC20/extensions/ERC20BurnableUpgradeable.sol\":903:930  _burn(_msgSender(), amount) */\n      tag_141\n        /* \"@openzeppelin/contracts-upgradeable/token/ERC20/extensions/ERC20BurnableUpgradeable.sol\":909:921  _msgSender() */\n      tag_142\n        /* \"@openzeppelin/contracts-upgradeable/token/ERC20/extensions/ERC20BurnableUpgradeable.sol\":909:919  _msgSender */\n      tag_112\n        /* \"@openzeppelin/contracts-upgradeable/token/ERC20/extensions/ERC20BurnableUpgradeable.sol\":909:921  _msgSender() */\n      jump\t// in\n    tag_142:\n        /* \"@openzeppelin/contracts-upgradeable/token/ERC20/extensions/ERC20BurnableUpgradeable.sol\":923:929  amount */\n      dup3\n        /* \"@openzeppelin/contracts-upgradeable/token/ERC20/extensions/ERC20BurnableUpgradeable.sol\":903:908  _burn */\n      tag_143\n        /* \"@openzeppelin/contracts-upgradeable/token/ERC20/extensions/ERC20BurnableUpgradeable.sol\":903:930  _burn(_msgSender(), amount) */\n      jump\t// in\n    tag_141:\n        /* \"@openzeppelin/contracts-upgradeable/token/ERC20/extensions/ERC20BurnableUpgradeable.sol\":848:937  function burn(uint256 amount) public virtual {... */\n      pop\n      jump\t// out\n        /* \"@openzeppelin/contracts-upgradeable/security/PausableUpgradeable.sol\":1858:1942  function paused() public view virtual returns (bool) {... */\n    tag_64:\n        /* \"@openzeppelin/contracts-upgradeable/security/PausableUpgradeable.sol\":1905:1909  bool */\n      0x00\n        /* \"@openzeppelin/contracts-upgradeable/security/PausableUpgradeable.sol\":1928:1935  _paused */\n      0x97\n      0x00\n      swap1\n      sload\n      swap1\n      0x0100\n      exp\n      swap1\n      div\n      0xff\n      and\n        /* \"@openzeppelin/contracts-upgradeable/security/PausableUpgradeable.sol\":1921:1935  return _paused */\n      swap1\n      pop\n        /* \"@openzeppelin/contracts-upgradeable/security/PausableUpgradeable.sol\":1858:1942  function paused() public view virtual returns (bool) {... */\n      swap1\n      jump\t// out\n        /* \"@openzeppelin/contracts-upgradeable/token/ERC20/ERC20Upgradeable.sol\":3743:3868  function balanceOf(address account) public view virtual override returns (uint256) {... */\n    tag_69:\n        /* \"@openzeppelin/contracts-upgradeable/token/ERC20/ERC20Upgradeable.sol\":3817:3824  uint256 */\n      0x00\n        /* \"@openzeppelin/contracts-upgradeable/token/ERC20/ERC20Upgradeable.sol\":3843:3852  _balances */\n      0x33\n        /* \"@openzeppelin/contracts-upgradeable/token/ERC20/ERC20Upgradeable.sol\":3843:3861  _balances[account] */\n      0x00\n        /* \"@openzeppelin/contracts-upgradeable/token/ERC20/ERC20Upgradeable.sol\":3853:3860  account */\n      dup4\n        /* \"@openzeppelin/contracts-upgradeable/token/ERC20/ERC20Upgradeable.sol\":3843:3861  _balances[account] */\n      0xffffffffffffffffffffffffffffffffffffffff\n      and\n      0xffffffffffffffffffffffffffffffffffffffff\n      and\n      dup2\n      mstore\n      0x20\n      add\n      swap1\n      dup2\n      mstore\n      0x20\n      add\n      0x00\n      keccak256\n      sload\n        /* \"@openzeppelin/contracts-upgradeable/token/ERC20/ERC20Upgradeable.sol\":3836:3861  return _balances[account] */\n      swap1\n      pop\n        /* \"@openzeppelin/contracts-upgradeable/token/ERC20/ERC20Upgradeable.sol\":3743:3868  function balanceOf(address account) public view virtual override returns (uint256) {... */\n      swap2\n      swap1\n      pop\n      jump\t// out\n        /* \"@openzeppelin/contracts-upgradeable/access/OwnableUpgradeable.sol\":2071:2172  function renounceOwnership() public virtual onlyOwner {... */\n    tag_72:\n        /* \"@openzeppelin/contracts-upgradeable/access/OwnableUpgradeable.sol\":1334:1347  _checkOwner() */\n      tag_147\n        /* \"@openzeppelin/contracts-upgradeable/access/OwnableUpgradeable.sol\":1334:1345  _checkOwner */\n      tag_131\n        /* \"@openzeppelin/contracts-upgradeable/access/OwnableUpgradeable.sol\":1334:1347  _checkOwner() */\n      jump\t// in\n    tag_147:\n        /* \"@openzeppelin/contracts-upgradeable/access/OwnableUpgradeable.sol\":2135:2165  _transferOwnership(address(0)) */\n      tag_149\n        /* \"@openzeppelin/contracts-upgradeable/access/OwnableUpgradeable.sol\":2162:2163  0 */\n      0x00\n        /* \"@openzeppelin/contracts-upgradeable/access/OwnableUpgradeable.sol\":2135:2153  _transferOwnership */\n      tag_150\n        /* \"@openzeppelin/contracts-upgradeable/access/OwnableUpgradeable.sol\":2135:2165  _transferOwnership(address(0)) */\n      jump\t// in\n    tag_149:\n        /* \"@openzeppelin/contracts-upgradeable/access/OwnableUpgradeable.sol\":2071:2172  function renounceOwnership() public virtual onlyOwner {... */\n      jump\t// out\n        /* \"@openzeppelin/contracts-upgradeable/token/ERC20/extensions/ERC20BurnableUpgradeable.sol\":1243:1404  function burnFrom(address account, uint256 amount) public virtual {... */\n    tag_75:\n        /* \"@openzeppelin/contracts-upgradeable/token/ERC20/extensions/ERC20BurnableUpgradeable.sol\":1319:1365  _spendAllowance(account, _msgSender(), amount) */\n      tag_152\n        /* \"@openzeppelin/contracts-upgradeable/token/ERC20/extensions/ERC20BurnableUpgradeable.sol\":1335:1342  account */\n      dup3\n        /* \"@openzeppelin/contracts-upgradeable/token/ERC20/extensions/ERC20BurnableUpgradeable.sol\":1344:1356  _msgSender() */\n      tag_153\n        /* \"@openzeppelin/contracts-upgradeable/token/ERC20/extensions/ERC20BurnableUpgradeable.sol\":1344:1354  _msgSender */\n      tag_112\n        /* \"@openzeppelin/contracts-upgradeable/token/ERC20/extensions/ERC20BurnableUpgradeable.sol\":1344:1356  _msgSender() */\n      jump\t// in\n    tag_153:\n        /* \"@openzeppelin/contracts-upgradeable/token/ERC20/extensions/ERC20BurnableUpgradeable.sol\":1358:1364  amount */\n      dup4\n        /* \"@openzeppelin/contracts-upgradeable/token/ERC20/extensions/ERC20BurnableUpgradeable.sol\":1319:1334  _spendAllowance */\n      tag_119\n        /* \"@openzeppelin/contracts-upgradeable/token/ERC20/extensions/ERC20BurnableUpgradeable.sol\":1319:1365  _spendAllowance(account, _msgSender(), amount) */\n      jump\t// in\n    tag_152:\n        /* \"@openzeppelin/contracts-upgradeable/token/ERC20/extensions/ERC20BurnableUpgradeable.sol\":1375:1397  _burn(account, amount) */\n      tag_154\n        /* \"@openzeppelin/contracts-upgradeable/token/ERC20/extensions/ERC20BurnableUpgradeable.sol\":1381:1388  account */\n      dup3\n        /* \"@openzeppelin/contracts-upgradeable/token/ERC20/extensions/ERC20BurnableUpgradeable.sol\":1390:1396  amount */\n      dup3\n        /* \"@openzeppelin/contracts-upgradeable/token/ERC20/extensions/ERC20BurnableUpgradeable.sol\":1375:1380  _burn */\n      tag_143\n        /* \"@openzeppelin/contracts-upgradeable/token/ERC20/extensions/ERC20BurnableUpgradeable.sol\":1375:1397  _burn(account, amount) */\n      jump\t// in\n    tag_154:\n        /* \"@openzeppelin/contracts-upgradeable/token/ERC20/extensions/ERC20BurnableUpgradeable.sol\":1243:1404  function burnFrom(address account, uint256 amount) public virtual {... */\n      pop\n      pop\n      jump\t// out\n        /* \"contracts/MyToken.sol\":703:876  function initialize() initializer public {... */\n    tag_77:\n        /* \"@openzeppelin/contracts-upgradeable/proxy/utils/Initializable.sol\":3268:3287  bool isTopLevelCall */\n      0x00\n        /* \"@openzeppelin/contracts-upgradeable/proxy/utils/Initializable.sol\":3291:3304  _initializing */\n      dup1\n      0x01\n      swap1\n      sload\n      swap1\n      0x0100\n      exp\n      swap1\n      div\n      0xff\n      and\n        /* \"@openzeppelin/contracts-upgradeable/proxy/utils/Initializable.sol\":3290:3304  !_initializing */\n      iszero\n        /* \"@openzeppelin/contracts-upgradeable/proxy/utils/Initializable.sol\":3268:3304  bool isTopLevelCall = !_initializing */\n      swap1\n      pop\n        /* \"@openzeppelin/contracts-upgradeable/proxy/utils/Initializable.sol\":3336:3350  isTopLevelCall */\n      dup1\n        /* \"@openzeppelin/contracts-upgradeable/proxy/utils/Initializable.sol\":3336:3370  isTopLevelCall && _initialized < 1 */\n      dup1\n      iszero\n      tag_156\n      jumpi\n      pop\n        /* \"@openzeppelin/contracts-upgradeable/proxy/utils/Initializable.sol\":3369:3370  1 */\n      0x01\n        /* \"@openzeppelin/contracts-upgradeable/proxy/utils/Initializable.sol\":3354:3366  _initialized */\n      0x00\n      dup1\n      sload\n      swap1\n      0x0100\n      exp\n      swap1\n      div\n      0xff\n      and\n        /* \"@openzeppelin/contracts-upgradeable/proxy/utils/Initializable.sol\":3354:3370  _initialized < 1 */\n      0xff\n      and\n      lt\n        /* \"@openzeppelin/contracts-upgradeable/proxy/utils/Initializable.sol\":3336:3370  isTopLevelCall && _initialized < 1 */\n    tag_156:\n        /* \"@openzeppelin/contracts-upgradeable/proxy/utils/Initializable.sol\":3335:3443  (isTopLevelCall && _initialized < 1) || (!AddressUpgradeable.isContract(address(this)) && _initialized == 1) */\n      dup1\n      tag_157\n      jumpi\n      pop\n        /* \"@openzeppelin/contracts-upgradeable/proxy/utils/Initializable.sol\":3377:3421  AddressUpgradeable.isContract(address(this)) */\n      tag_158\n        /* \"@openzeppelin/contracts-upgradeable/proxy/utils/Initializable.sol\":3415:3419  this */\n      address\n        /* \"@openzeppelin/contracts-upgradeable/proxy/utils/Initializable.sol\":3377:3406  AddressUpgradeable.isContract */\n      tag_159\n        /* \"@openzeppelin/contracts-upgradeable/proxy/utils/Initializable.sol\":3377:3421  AddressUpgradeable.isContract(address(this)) */\n      jump\t// in\n    tag_158:\n        /* \"@openzeppelin/contracts-upgradeable/proxy/utils/Initializable.sol\":3376:3421  !AddressUpgradeable.isContract(address(this)) */\n      iszero\n        /* \"@openzeppelin/contracts-upgradeable/proxy/utils/Initializable.sol\":3376:3442  !AddressUpgradeable.isContract(address(this)) && _initialized == 1 */\n      dup1\n      iszero\n      tag_160\n      jumpi\n      pop\n        /* \"@openzeppelin/contracts-upgradeable/proxy/utils/Initializable.sol\":3441:3442  1 */\n      0x01\n        /* \"@openzeppelin/contracts-upgradeable/proxy/utils/Initializable.sol\":3425:3437  _initialized */\n      0x00\n      dup1\n      sload\n      swap1\n      0x0100\n      exp\n      swap1\n      div\n      0xff\n      and\n        /* \"@openzeppelin/contracts-upgradeable/proxy/utils/Initializable.sol\":3425:3442  _initialized == 1 */\n      0xff\n      and\n      eq\n        /* \"@openzeppelin/contracts-upgradeable/proxy/utils/Initializable.sol\":3376:3442  !AddressUpgradeable.isContract(address(this)) && _initialized == 1 */\n    tag_160:\n        /* \"@openzeppelin/contracts-upgradeable/proxy/utils/Initializable.sol\":3335:3443  (isTopLevelCall && _initialized < 1) || (!AddressUpgradeable.isContract(address(this)) && _initialized == 1) */\n    tag_157:\n        /* \"@openzeppelin/contracts-upgradeable/proxy/utils/Initializable.sol\":3314:3515  require(... */\n      tag_161\n      jumpi\n      mload(0x40)\n      0x08c379a000000000000000000000000000000000000000000000000000000000\n      dup2\n      mstore\n      0x04\n      add\n      tag_162\n      swap1\n      tag_163\n      jump\t// in\n    tag_162:\n      mload(0x40)\n      dup1\n      swap2\n      sub\n      swap1\n      revert\n    tag_161:\n        /* \"@openzeppelin/contracts-upgradeable/proxy/utils/Initializable.sol\":3540:3541  1 */\n      0x01\n        /* \"@openzeppelin/contracts-upgradeable/proxy/utils/Initializable.sol\":3525:3537  _initialized */\n      0x00\n      dup1\n        /* \"@openzeppelin/contracts-upgradeable/proxy/utils/Initializable.sol\":3525:3541  _initialized = 1 */\n      0x0100\n      exp\n      dup2\n      sload\n      dup2\n      0xff\n      mul\n      not\n      and\n      swap1\n      dup4\n      0xff\n      and\n      mul\n      or\n      swap1\n      sstore\n      pop\n        /* \"@openzeppelin/contracts-upgradeable/proxy/utils/Initializable.sol\":3555:3569  isTopLevelCall */\n      dup1\n        /* \"@openzeppelin/contracts-upgradeable/proxy/utils/Initializable.sol\":3551:3616  if (isTopLevelCall) {... */\n      iszero\n      tag_164\n      jumpi\n        /* \"@openzeppelin/contracts-upgradeable/proxy/utils/Initializable.sol\":3601:3605  true */\n      0x01\n        /* \"@openzeppelin/contracts-upgradeable/proxy/utils/Initializable.sol\":3585:3598  _initializing */\n      0x00\n      0x01\n        /* \"@openzeppelin/contracts-upgradeable/proxy/utils/Initializable.sol\":3585:3605  _initializing = true */\n      0x0100\n      exp\n      dup2\n      sload\n      dup2\n      0xff\n      mul\n      not\n      and\n      swap1\n      dup4\n      iszero\n      iszero\n      mul\n      or\n      swap1\n      sstore\n      pop\n        /* \"@openzeppelin/contracts-upgradeable/proxy/utils/Initializable.sol\":3551:3616  if (isTopLevelCall) {... */\n    tag_164:\n        /* \"contracts/MyToken.sol\":754:784  __ERC20_init(\"MyToken\", \"MTK\") */\n      tag_166\n      mload(0x40)\n      dup1\n      0x40\n      add\n      0x40\n      mstore\n      dup1\n      0x07\n      dup2\n      mstore\n      0x20\n      add\n      0x4d79546f6b656e00000000000000000000000000000000000000000000000000\n      dup2\n      mstore\n      pop\n      mload(0x40)\n      dup1\n      0x40\n      add\n      0x40\n      mstore\n      dup1\n      0x03\n      dup2\n      mstore\n      0x20\n      add\n      0x4d544b0000000000000000000000000000000000000000000000000000000000\n      dup2\n      mstore\n      pop\n        /* \"contracts/MyToken.sol\":754:766  __ERC20_init */\n      tag_167\n        /* \"contracts/MyToken.sol\":754:784  __ERC20_init(\"MyToken\", \"MTK\") */\n      jump\t// in\n    tag_166:\n        /* \"contracts/MyToken.sol\":794:816  __ERC20Burnable_init() */\n      tag_168\n        /* \"contracts/MyToken.sol\":794:814  __ERC20Burnable_init */\n      tag_169\n        /* \"contracts/MyToken.sol\":794:816  __ERC20Burnable_init() */\n      jump\t// in\n    tag_168:\n        /* \"contracts/MyToken.sol\":826:843  __Pausable_init() */\n      tag_170\n        /* \"contracts/MyToken.sol\":826:841  __Pausable_init */\n      tag_171\n        /* \"contracts/MyToken.sol\":826:843  __Pausable_init() */\n      jump\t// in\n    tag_170:\n        /* \"contracts/MyToken.sol\":853:869  __Ownable_init() */\n      tag_172\n        /* \"contracts/MyToken.sol\":853:867  __Ownable_init */\n      tag_173\n        /* \"contracts/MyToken.sol\":853:869  __Ownable_init() */\n      jump\t// in\n    tag_172:\n        /* \"@openzeppelin/contracts-upgradeable/proxy/utils/Initializable.sol\":3640:3654  isTopLevelCall */\n      dup1\n        /* \"@openzeppelin/contracts-upgradeable/proxy/utils/Initializable.sol\":3636:3735  if (isTopLevelCall) {... */\n      iszero\n      tag_174\n      jumpi\n        /* \"@openzeppelin/contracts-upgradeable/proxy/utils/Initializable.sol\":3686:3691  false */\n      0x00\n        /* \"@openzeppelin/contracts-upgradeable/proxy/utils/Initializable.sol\":3670:3683  _initializing */\n      dup1\n      0x01\n        /* \"@openzeppelin/contracts-upgradeable/proxy/utils/Initializable.sol\":3670:3691  _initializing = false */\n      0x0100\n      exp\n      dup2\n      sload\n      dup2\n      0xff\n      mul\n      not\n      and\n      swap1\n      dup4\n      iszero\n      iszero\n      mul\n      or\n      swap1\n      sstore\n      pop\n        /* \"@openzeppelin/contracts-upgradeable/proxy/utils/Initializable.sol\":3710:3724  Initialized(1) */\n      0x7f26b83ff96e1f2b6a682f133852f6798a09c465da95921460cefb3847402498\n        /* \"@openzeppelin/contracts-upgradeable/proxy/utils/Initializable.sol\":3722:3723  1 */\n      0x01\n        /* \"@openzeppelin/contracts-upgradeable/proxy/utils/Initializable.sol\":3710:3724  Initialized(1) */\n      mload(0x40)\n      tag_175\n      swap2\n      swap1\n      tag_176\n      jump\t// in\n    tag_175:\n      mload(0x40)\n      dup1\n      swap2\n      sub\n      swap1\n      log1\n        /* \"@openzeppelin/contracts-upgradeable/proxy/utils/Initializable.sol\":3636:3735  if (isTopLevelCall) {... */\n    tag_174:\n        /* \"@openzeppelin/contracts-upgradeable/proxy/utils/Initializable.sol\":3258:3741  {... */\n      pop\n        /* \"contracts/MyToken.sol\":703:876  function initialize() initializer public {... */\n      jump\t// out\n        /* \"contracts/MyToken.sol\":882:941  function pause() public onlyOwner {... */\n    tag_79:\n        /* \"@openzeppelin/contracts-upgradeable/access/OwnableUpgradeable.sol\":1334:1347  _checkOwner() */\n      tag_178\n        /* \"@openzeppelin/contracts-upgradeable/access/OwnableUpgradeable.sol\":1334:1345  _checkOwner */\n      tag_131\n        /* \"@openzeppelin/contracts-upgradeable/access/OwnableUpgradeable.sol\":1334:1347  _checkOwner() */\n      jump\t// in\n    tag_178:\n        /* \"contracts/MyToken.sol\":926:934  _pause() */\n      tag_180\n        /* \"contracts/MyToken.sol\":926:932  _pause */\n      tag_181\n        /* \"contracts/MyToken.sol\":926:934  _pause() */\n      jump\t// in\n    tag_180:\n        /* \"contracts/MyToken.sol\":882:941  function pause() public onlyOwner {... */\n      jump\t// out\n        /* \"@openzeppelin/contracts-upgradeable/access/OwnableUpgradeable.sol\":1441:1526  function owner() public view virtual returns (address) {... */\n    tag_81:\n        /* \"@openzeppelin/contracts-upgradeable/access/OwnableUpgradeable.sol\":1487:1494  address */\n      0x00\n        /* \"@openzeppelin/contracts-upgradeable/access/OwnableUpgradeable.sol\":1513:1519  _owner */\n      0xc9\n      0x00\n      swap1\n      sload\n      swap1\n      0x0100\n      exp\n      swap1\n      div\n      0xffffffffffffffffffffffffffffffffffffffff\n      and\n        /* \"@openzeppelin/contracts-upgradeable/access/OwnableUpgradeable.sol\":1506:1519  return _owner */\n      swap1\n      pop\n        /* \"@openzeppelin/contracts-upgradeable/access/OwnableUpgradeable.sol\":1441:1526  function owner() public view virtual returns (address) {... */\n      swap1\n      jump\t// out\n        /* \"@openzeppelin/contracts-upgradeable/token/ERC20/ERC20Upgradeable.sol\":2702:2804  function symbol() public view virtual override returns (string memory) {... */\n    tag_85:\n        /* \"@openzeppelin/contracts-upgradeable/token/ERC20/ERC20Upgradeable.sol\":2758:2771  string memory */\n      0x60\n        /* \"@openzeppelin/contracts-upgradeable/token/ERC20/ERC20Upgradeable.sol\":2790:2797  _symbol */\n      0x37\n        /* \"@openzeppelin/contracts-upgradeable/token/ERC20/ERC20Upgradeable.sol\":2783:2797  return _symbol */\n      dup1\n      sload\n      tag_184\n      swap1\n      tag_105\n      jump\t// in\n    tag_184:\n      dup1\n      0x1f\n      add\n      0x20\n      dup1\n      swap2\n      div\n      mul\n      0x20\n      add\n      mload(0x40)\n      swap1\n      dup2\n      add\n      0x40\n      mstore\n      dup1\n      swap3\n      swap2\n      swap1\n      dup2\n      dup2\n      mstore\n      0x20\n      add\n      dup3\n      dup1\n      sload\n      tag_185\n      swap1\n      tag_105\n      jump\t// in\n    tag_185:\n      dup1\n      iszero\n      tag_186\n      jumpi\n      dup1\n      0x1f\n      lt\n      tag_187\n      jumpi\n      0x0100\n      dup1\n      dup4\n      sload\n      div\n      mul\n      dup4\n      mstore\n      swap2\n      0x20\n      add\n      swap2\n      jump(tag_186)\n    tag_187:\n      dup3\n      add\n      swap2\n      swap1\n      0x00\n      mstore\n      keccak256(0x00, 0x20)\n      swap1\n    tag_188:\n      dup2\n      sload\n      dup2\n      mstore\n      swap1\n      0x01\n      add\n      swap1\n      0x20\n      add\n      dup1\n      dup4\n      gt\n      tag_188\n      jumpi\n      dup3\n      swap1\n      sub\n      0x1f\n      and\n      dup3\n      add\n      swap2\n    tag_186:\n      pop\n      pop\n      pop\n      pop\n      pop\n      swap1\n      pop\n        /* \"@openzeppelin/contracts-upgradeable/token/ERC20/ERC20Upgradeable.sol\":2702:2804  function symbol() public view virtual override returns (string memory) {... */\n      swap1\n      jump\t// out\n        /* \"@openzeppelin/contracts-upgradeable/token/ERC20/ERC20Upgradeable.sol\":6929:7356  function decreaseAllowance(address spender, uint256 subtractedValue) public virtual returns (bool) {... */\n    tag_89:\n        /* \"@openzeppelin/contracts-upgradeable/token/ERC20/ERC20Upgradeable.sol\":7022:7026  bool */\n      0x00\n        /* \"@openzeppelin/contracts-upgradeable/token/ERC20/ERC20Upgradeable.sol\":7038:7051  address owner */\n      dup1\n        /* \"@openzeppelin/contracts-upgradeable/token/ERC20/ERC20Upgradeable.sol\":7054:7066  _msgSender() */\n      tag_190\n        /* \"@openzeppelin/contracts-upgradeable/token/ERC20/ERC20Upgradeable.sol\":7054:7064  _msgSender */\n      tag_112\n        /* \"@openzeppelin/contracts-upgradeable/token/ERC20/ERC20Upgradeable.sol\":7054:7066  _msgSender() */\n      jump\t// in\n    tag_190:\n        /* \"@openzeppelin/contracts-upgradeable/token/ERC20/ERC20Upgradeable.sol\":7038:7066  address owner = _msgSender() */\n      swap1\n      pop\n        /* \"@openzeppelin/contracts-upgradeable/token/ERC20/ERC20Upgradeable.sol\":7076:7100  uint256 currentAllowance */\n      0x00\n        /* \"@openzeppelin/contracts-upgradeable/token/ERC20/ERC20Upgradeable.sol\":7103:7128  allowance(owner, spender) */\n      tag_191\n        /* \"@openzeppelin/contracts-upgradeable/token/ERC20/ERC20Upgradeable.sol\":7113:7118  owner */\n      dup3\n        /* \"@openzeppelin/contracts-upgradeable/token/ERC20/ERC20Upgradeable.sol\":7120:7127  spender */\n      dup7\n        /* \"@openzeppelin/contracts-upgradeable/token/ERC20/ERC20Upgradeable.sol\":7103:7112  allowance */\n      tag_98\n        /* \"@openzeppelin/contracts-upgradeable/token/ERC20/ERC20Upgradeable.sol\":7103:7128  allowance(owner, spender) */\n      jump\t// in\n    tag_191:\n        /* \"@openzeppelin/contracts-upgradeable/token/ERC20/ERC20Upgradeable.sol\":7076:7128  uint256 currentAllowance = allowance(owner, spender) */\n      swap1\n      pop\n        /* \"@openzeppelin/contracts-upgradeable/token/ERC20/ERC20Upgradeable.sol\":7166:7181  subtractedValue */\n      dup4\n        /* \"@openzeppelin/contracts-upgradeable/token/ERC20/ERC20Upgradeable.sol\":7146:7162  currentAllowance */\n      dup2\n        /* \"@openzeppelin/contracts-upgradeable/token/ERC20/ERC20Upgradeable.sol\":7146:7181  currentAllowance >= subtractedValue */\n      lt\n      iszero\n        /* \"@openzeppelin/contracts-upgradeable/token/ERC20/ERC20Upgradeable.sol\":7138:7223  require(currentAllowance >= subtractedValue, \"ERC20: decreased allowance below zero\") */\n      tag_192\n      jumpi\n      mload(0x40)\n      0x08c379a000000000000000000000000000000000000000000000000000000000\n      dup2\n      mstore\n      0x04\n      add\n      tag_193\n      swap1\n      tag_194\n      jump\t// in\n    tag_193:\n      mload(0x40)\n      dup1\n      swap2\n      sub\n      swap1\n      revert\n    tag_192:\n        /* \"@openzeppelin/contracts-upgradeable/token/ERC20/ERC20Upgradeable.sol\":7257:7317  _approve(owner, spender, currentAllowance - subtractedValue) */\n      tag_195\n        /* \"@openzeppelin/contracts-upgradeable/token/ERC20/ERC20Upgradeable.sol\":7266:7271  owner */\n      dup3\n        /* \"@openzeppelin/contracts-upgradeable/token/ERC20/ERC20Upgradeable.sol\":7273:7280  spender */\n      dup7\n        /* \"@openzeppelin/contracts-upgradeable/token/ERC20/ERC20Upgradeable.sol\":7301:7316  subtractedValue */\n      dup7\n        /* \"@openzeppelin/contracts-upgradeable/token/ERC20/ERC20Upgradeable.sol\":7282:7298  currentAllowance */\n      dup5\n        /* \"@openzeppelin/contracts-upgradeable/token/ERC20/ERC20Upgradeable.sol\":7282:7316  currentAllowance - subtractedValue */\n      sub\n        /* \"@openzeppelin/contracts-upgradeable/token/ERC20/ERC20Upgradeable.sol\":7257:7265  _approve */\n      tag_114\n        /* \"@openzeppelin/contracts-upgradeable/token/ERC20/ERC20Upgradeable.sol\":7257:7317  _approve(owner, spender, currentAllowance - subtractedValue) */\n      jump\t// in\n    tag_195:\n        /* \"@openzeppelin/contracts-upgradeable/token/ERC20/ERC20Upgradeable.sol\":7345:7349  true */\n      0x01\n        /* \"@openzeppelin/contracts-upgradeable/token/ERC20/ERC20Upgradeable.sol\":7338:7349  return true */\n      swap3\n      pop\n      pop\n      pop\n        /* \"@openzeppelin/contracts-upgradeable/token/ERC20/ERC20Upgradeable.sol\":6929:7356  function decreaseAllowance(address spender, uint256 subtractedValue) public virtual returns (bool) {... */\n      swap3\n      swap2\n      pop\n      pop\n      jump\t// out\n        /* \"@openzeppelin/contracts-upgradeable/token/ERC20/ERC20Upgradeable.sol\":4064:4253  function transfer(address to, uint256 amount) public virtual override returns (bool) {... */\n    tag_93:\n        /* \"@openzeppelin/contracts-upgradeable/token/ERC20/ERC20Upgradeable.sol\":4143:4147  bool */\n      0x00\n        /* \"@openzeppelin/contracts-upgradeable/token/ERC20/ERC20Upgradeable.sol\":4159:4172  address owner */\n      dup1\n        /* \"@openzeppelin/contracts-upgradeable/token/ERC20/ERC20Upgradeable.sol\":4175:4187  _msgSender() */\n      tag_197\n        /* \"@openzeppelin/contracts-upgradeable/token/ERC20/ERC20Upgradeable.sol\":4175:4185  _msgSender */\n      tag_112\n        /* \"@openzeppelin/contracts-upgradeable/token/ERC20/ERC20Upgradeable.sol\":4175:4187  _msgSender() */\n      jump\t// in\n    tag_197:\n        /* \"@openzeppelin/contracts-upgradeable/token/ERC20/ERC20Upgradeable.sol\":4159:4187  address owner = _msgSender() */\n      swap1\n      pop\n        /* \"@openzeppelin/contracts-upgradeable/token/ERC20/ERC20Upgradeable.sol\":4197:4225  _transfer(owner, to, amount) */\n      tag_198\n        /* \"@openzeppelin/contracts-upgradeable/token/ERC20/ERC20Upgradeable.sol\":4207:4212  owner */\n      dup2\n        /* \"@openzeppelin/contracts-upgradeable/token/ERC20/ERC20Upgradeable.sol\":4214:4216  to */\n      dup6\n        /* \"@openzeppelin/contracts-upgradeable/token/ERC20/ERC20Upgradeable.sol\":4218:4224  amount */\n      dup6\n        /* \"@openzeppelin/contracts-upgradeable/token/ERC20/ERC20Upgradeable.sol\":4197:4206  _transfer */\n      tag_121\n        /* \"@openzeppelin/contracts-upgradeable/token/ERC20/ERC20Upgradeable.sol\":4197:4225  _transfer(owner, to, amount) */\n      jump\t// in\n    tag_198:\n        /* \"@openzeppelin/contracts-upgradeable/token/ERC20/ERC20Upgradeable.sol\":4242:4246  true */\n      0x01\n        /* \"@openzeppelin/contracts-upgradeable/token/ERC20/ERC20Upgradeable.sol\":4235:4246  return true */\n      swap2\n      pop\n      pop\n        /* \"@openzeppelin/contracts-upgradeable/token/ERC20/ERC20Upgradeable.sol\":4064:4253  function transfer(address to, uint256 amount) public virtual override returns (bool) {... */\n      swap3\n      swap2\n      pop\n      pop\n      jump\t// out\n        /* \"@openzeppelin/contracts-upgradeable/token/ERC20/ERC20Upgradeable.sol\":4311:4460  function allowance(address owner, address spender) public view virtual override returns (uint256) {... */\n    tag_98:\n        /* \"@openzeppelin/contracts-upgradeable/token/ERC20/ERC20Upgradeable.sol\":4400:4407  uint256 */\n      0x00\n        /* \"@openzeppelin/contracts-upgradeable/token/ERC20/ERC20Upgradeable.sol\":4426:4437  _allowances */\n      0x34\n        /* \"@openzeppelin/contracts-upgradeable/token/ERC20/ERC20Upgradeable.sol\":4426:4444  _allowances[owner] */\n      0x00\n        /* \"@openzeppelin/contracts-upgradeable/token/ERC20/ERC20Upgradeable.sol\":4438:4443  owner */\n      dup5\n        /* \"@openzeppelin/contracts-upgradeable/token/ERC20/ERC20Upgradeable.sol\":4426:4444  _allowances[owner] */\n      0xffffffffffffffffffffffffffffffffffffffff\n      and\n      0xffffffffffffffffffffffffffffffffffffffff\n      and\n      dup2\n      mstore\n      0x20\n      add\n      swap1\n      dup2\n      mstore\n      0x20\n      add\n      0x00\n      keccak256\n        /* \"@openzeppelin/contracts-upgradeable/token/ERC20/ERC20Upgradeable.sol\":4426:4453  _allowances[owner][spender] */\n      0x00\n        /* \"@openzeppelin/contracts-upgradeable/token/ERC20/ERC20Upgradeable.sol\":4445:4452  spender */\n      dup4\n        /* \"@openzeppelin/contracts-upgradeable/token/ERC20/ERC20Upgradeable.sol\":4426:4453  _allowances[owner][spender] */\n      0xffffffffffffffffffffffffffffffffffffffff\n      and\n      0xffffffffffffffffffffffffffffffffffffffff\n      and\n      dup2\n      mstore\n      0x20\n      add\n      swap1\n      dup2\n      mstore\n      0x20\n      add\n      0x00\n      keccak256\n      sload\n        /* \"@openzeppelin/contracts-upgradeable/token/ERC20/ERC20Upgradeable.sol\":4419:4453  return _allowances[owner][spender] */\n      swap1\n      pop\n        /* \"@openzeppelin/contracts-upgradeable/token/ERC20/ERC20Upgradeable.sol\":4311:4460  function allowance(address owner, address spender) public view virtual override returns (uint256) {... */\n      swap3\n      swap2\n      pop\n      pop\n      jump\t// out\n        /* \"@openzeppelin/contracts-upgradeable/access/OwnableUpgradeable.sol\":2321:2519  function transferOwnership(address newOwner) public virtual onlyOwner {... */\n    tag_102:\n        /* \"@openzeppelin/contracts-upgradeable/access/OwnableUpgradeable.sol\":1334:1347  _checkOwner() */\n      tag_201\n        /* \"@openzeppelin/contracts-upgradeable/access/OwnableUpgradeable.sol\":1334:1345  _checkOwner */\n      tag_131\n        /* \"@openzeppelin/contracts-upgradeable/access/OwnableUpgradeable.sol\":1334:1347  _checkOwner() */\n      jump\t// in\n    tag_201:\n        /* \"@openzeppelin/contracts-upgradeable/access/OwnableUpgradeable.sol\":2429:2430  0 */\n      0x00\n        /* \"@openzeppelin/contracts-upgradeable/access/OwnableUpgradeable.sol\":2409:2431  newOwner != address(0) */\n      0xffffffffffffffffffffffffffffffffffffffff\n      and\n        /* \"@openzeppelin/contracts-upgradeable/access/OwnableUpgradeable.sol\":2409:2417  newOwner */\n      dup2\n        /* \"@openzeppelin/contracts-upgradeable/access/OwnableUpgradeable.sol\":2409:2431  newOwner != address(0) */\n      0xffffffffffffffffffffffffffffffffffffffff\n      and\n      sub\n        /* \"@openzeppelin/contracts-upgradeable/access/OwnableUpgradeable.sol\":2401:2474  require(newOwner != address(0), \"Ownable: new owner is the zero address\") */\n      tag_203\n      jumpi\n      mload(0x40)\n      0x08c379a000000000000000000000000000000000000000000000000000000000\n      dup2\n      mstore\n      0x04\n      add\n      tag_204\n      swap1\n      tag_205\n      jump\t// in\n    tag_204:\n      mload(0x40)\n      dup1\n      swap2\n      sub\n      swap1\n      revert\n    tag_203:\n        /* \"@openzeppelin/contracts-upgradeable/access/OwnableUpgradeable.sol\":2484:2512  _transferOwnership(newOwner) */\n      tag_206\n        /* \"@openzeppelin/contracts-upgradeable/access/OwnableUpgradeable.sol\":2503:2511  newOwner */\n      dup2\n        /* \"@openzeppelin/contracts-upgradeable/access/OwnableUpgradeable.sol\":2484:2502  _transferOwnership */\n      tag_150\n        /* \"@openzeppelin/contracts-upgradeable/access/OwnableUpgradeable.sol\":2484:2512  _transferOwnership(newOwner) */\n      jump\t// in\n    tag_206:\n        /* \"@openzeppelin/contracts-upgradeable/access/OwnableUpgradeable.sol\":2321:2519  function transferOwnership(address newOwner) public virtual onlyOwner {... */\n      pop\n      jump\t// out\n        /* \"@openzeppelin/contracts-upgradeable/utils/ContextUpgradeable.sol\":850:946  function _msgSender() internal view virtual returns (address) {... */\n    tag_112:\n        /* \"@openzeppelin/contracts-upgradeable/utils/ContextUpgradeable.sol\":903:910  address */\n      0x00\n        /* \"@openzeppelin/contracts-upgradeable/utils/ContextUpgradeable.sol\":929:939  msg.sender */\n      caller\n        /* \"@openzeppelin/contracts-upgradeable/utils/ContextUpgradeable.sol\":922:939  return msg.sender */\n      swap1\n      pop\n        /* \"@openzeppelin/contracts-upgradeable/utils/ContextUpgradeable.sol\":850:946  function _msgSender() internal view virtual returns (address) {... */\n      swap1\n      jump\t// out\n        /* \"@openzeppelin/contracts-upgradeable/token/ERC20/ERC20Upgradeable.sol\":10841:11211  function _approve(... */\n    tag_114:\n        /* \"@openzeppelin/contracts-upgradeable/token/ERC20/ERC20Upgradeable.sol\":10989:10990  0 */\n      0x00\n        /* \"@openzeppelin/contracts-upgradeable/token/ERC20/ERC20Upgradeable.sol\":10972:10991  owner != address(0) */\n      0xffffffffffffffffffffffffffffffffffffffff\n      and\n        /* \"@openzeppelin/contracts-upgradeable/token/ERC20/ERC20Upgradeable.sol\":10972:10977  owner */\n      dup4\n        /* \"@openzeppelin/contracts-upgradeable/token/ERC20/ERC20Upgradeable.sol\":10972:10991  owner != address(0) */\n      0xffffffffffffffffffffffffffffffffffffffff\n      and\n      sub\n        /* \"@openzeppelin/contracts-upgradeable/token/ERC20/ERC20Upgradeable.sol\":10964:11032  require(owner != address(0), \"ERC20: approve from the zero address\") */\n      tag_209\n      jumpi\n      mload(0x40)\n      0x08c379a000000000000000000000000000000000000000000000000000000000\n      dup2\n      mstore\n      0x04\n      add\n      tag_210\n      swap1\n      tag_211\n      jump\t// in\n    tag_210:\n      mload(0x40)\n      dup1\n      swap2\n      sub\n      swap1\n      revert\n    tag_209:\n        /* \"@openzeppelin/contracts-upgradeable/token/ERC20/ERC20Upgradeable.sol\":11069:11070  0 */\n      0x00\n        /* \"@openzeppelin/contracts-upgradeable/token/ERC20/ERC20Upgradeable.sol\":11050:11071  spender != address(0) */\n      0xffffffffffffffffffffffffffffffffffffffff\n      and\n        /* \"@openzeppelin/contracts-upgradeable/token/ERC20/ERC20Upgradeable.sol\":11050:11057  spender */\n      dup3\n        /* \"@openzeppelin/contracts-upgradeable/token/ERC20/ERC20Upgradeable.sol\":11050:11071  spender != address(0) */\n      0xffffffffffffffffffffffffffffffffffffffff\n      and\n      sub\n        /* \"@openzeppelin/contracts-upgradeable/token/ERC20/ERC20Upgradeable.sol\":11042:11110  require(spender != address(0), \"ERC20: approve to the zero address\") */\n      tag_212\n      jumpi\n      mload(0x40)\n      0x08c379a000000000000000000000000000000000000000000000000000000000\n      dup2\n      mstore\n      0x04\n      add\n      tag_213\n      swap1\n      tag_214\n      jump\t// in\n    tag_213:\n      mload(0x40)\n      dup1\n      swap2\n      sub\n      swap1\n      revert\n    tag_212:\n        /* \"@openzeppelin/contracts-upgradeable/token/ERC20/ERC20Upgradeable.sol\":11151:11157  amount */\n      dup1\n        /* \"@openzeppelin/contracts-upgradeable/token/ERC20/ERC20Upgradeable.sol\":11121:11132  _allowances */\n      0x34\n        /* \"@openzeppelin/contracts-upgradeable/token/ERC20/ERC20Upgradeable.sol\":11121:11139  _allowances[owner] */\n      0x00\n        /* \"@openzeppelin/contracts-upgradeable/token/ERC20/ERC20Upgradeable.sol\":11133:11138  owner */\n      dup6\n        /* \"@openzeppelin/contracts-upgradeable/token/ERC20/ERC20Upgradeable.sol\":11121:11139  _allowances[owner] */\n      0xffffffffffffffffffffffffffffffffffffffff\n      and\n      0xffffffffffffffffffffffffffffffffffffffff\n      and\n      dup2\n      mstore\n      0x20\n      add\n      swap1\n      dup2\n      mstore\n      0x20\n      add\n      0x00\n      keccak256\n        /* \"@openzeppelin/contracts-upgradeable/token/ERC20/ERC20Upgradeable.sol\":11121:11148  _allowances[owner][spender] */\n      0x00\n        /* \"@openzeppelin/contracts-upgradeable/token/ERC20/ERC20Upgradeable.sol\":11140:11147  spender */\n      dup5\n        /* \"@openzeppelin/contracts-upgradeable/token/ERC20/ERC20Upgradeable.sol\":11121:11148  _allowances[owner][spender] */\n      0xffffffffffffffffffffffffffffffffffffffff\n      and\n      0xffffffffffffffffffffffffffffffffffffffff\n      and\n      dup2\n      mstore\n      0x20\n      add\n      swap1\n      dup2\n      mstore\n      0x20\n      add\n      0x00\n      keccak256\n        /* \"@openzeppelin/contracts-upgradeable/token/ERC20/ERC20Upgradeable.sol\":11121:11157  _allowances[owner][spender] = amount */\n      dup2\n      swap1\n      sstore\n      pop\n        /* \"@openzeppelin/contracts-upgradeable/token/ERC20/ERC20Upgradeable.sol\":11188:11195  spender */\n      dup2\n        /* \"@openzeppelin/contracts-upgradeable/token/ERC20/ERC20Upgradeable.sol\":11172:11204  Approval(owner, spender, amount) */\n      0xffffffffffffffffffffffffffffffffffffffff\n      and\n        /* \"@openzeppelin/contracts-upgradeable/token/ERC20/ERC20Upgradeable.sol\":11181:11186  owner */\n      dup4\n        /* \"@openzeppelin/contracts-upgradeable/token/ERC20/ERC20Upgradeable.sol\":11172:11204  Approval(owner, spender, amount) */\n      0xffffffffffffffffffffffffffffffffffffffff\n      and\n      0x8c5be1e5ebec7d5bd14f71427d1e84f3dd0314c0f7b2291e5b200ac8c7c3b925\n        /* \"@openzeppelin/contracts-upgradeable/token/ERC20/ERC20Upgradeable.sol\":11197:11203  amount */\n      dup4\n        /* \"@openzeppelin/contracts-upgradeable/token/ERC20/ERC20Upgradeable.sol\":11172:11204  Approval(owner, spender, amount) */\n      mload(0x40)\n      tag_215\n      swap2\n      swap1\n      tag_40\n      jump\t// in\n    tag_215:\n      mload(0x40)\n      dup1\n      swap2\n      sub\n      swap1\n      log3\n        /* \"@openzeppelin/contracts-upgradeable/token/ERC20/ERC20Upgradeable.sol\":10841:11211  function _approve(... */\n      pop\n      pop\n      pop\n      jump\t// out\n        /* \"@openzeppelin/contracts-upgradeable/token/ERC20/ERC20Upgradeable.sol\":11492:11933  function _spendAllowance(... */\n    tag_119:\n        /* \"@openzeppelin/contracts-upgradeable/token/ERC20/ERC20Upgradeable.sol\":11622:11646  uint256 currentAllowance */\n      0x00\n        /* \"@openzeppelin/contracts-upgradeable/token/ERC20/ERC20Upgradeable.sol\":11649:11674  allowance(owner, spender) */\n      tag_217\n        /* \"@openzeppelin/contracts-upgradeable/token/ERC20/ERC20Upgradeable.sol\":11659:11664  owner */\n      dup5\n        /* \"@openzeppelin/contracts-upgradeable/token/ERC20/ERC20Upgradeable.sol\":11666:11673  spender */\n      dup5\n        /* \"@openzeppelin/contracts-upgradeable/token/ERC20/ERC20Upgradeable.sol\":11649:11658  allowance */\n      tag_98\n        /* \"@openzeppelin/contracts-upgradeable/token/ERC20/ERC20Upgradeable.sol\":11649:11674  allowance(owner, spender) */\n      jump\t// in\n    tag_217:\n        /* \"@openzeppelin/contracts-upgradeable/token/ERC20/ERC20Upgradeable.sol\":11622:11674  uint256 currentAllowance = allowance(owner, spender) */\n      swap1\n      pop\n        /* \"@openzeppelin/contracts-upgradeable/token/ERC20/ERC20Upgradeable.sol\":11708:11725  type(uint256).max */\n      0xffffffffffffffffffffffffffffffffffffffffffffffffffffffffffffffff\n        /* \"@openzeppelin/contracts-upgradeable/token/ERC20/ERC20Upgradeable.sol\":11688:11704  currentAllowance */\n      dup2\n        /* \"@openzeppelin/contracts-upgradeable/token/ERC20/ERC20Upgradeable.sol\":11688:11725  currentAllowance != type(uint256).max */\n      eq\n        /* \"@openzeppelin/contracts-upgradeable/token/ERC20/ERC20Upgradeable.sol\":11684:11927  if (currentAllowance != type(uint256).max) {... */\n      tag_218\n      jumpi\n        /* \"@openzeppelin/contracts-upgradeable/token/ERC20/ERC20Upgradeable.sol\":11769:11775  amount */\n      dup2\n        /* \"@openzeppelin/contracts-upgradeable/token/ERC20/ERC20Upgradeable.sol\":11749:11765  currentAllowance */\n      dup2\n        /* \"@openzeppelin/contracts-upgradeable/token/ERC20/ERC20Upgradeable.sol\":11749:11775  currentAllowance >= amount */\n      lt\n      iszero\n        /* \"@openzeppelin/contracts-upgradeable/token/ERC20/ERC20Upgradeable.sol\":11741:11809  require(currentAllowance >= amount, \"ERC20: insufficient allowance\") */\n      tag_219\n      jumpi\n      mload(0x40)\n      0x08c379a000000000000000000000000000000000000000000000000000000000\n      dup2\n      mstore\n      0x04\n      add\n      tag_220\n      swap1\n      tag_221\n      jump\t// in\n    tag_220:\n      mload(0x40)\n      dup1\n      swap2\n      sub\n      swap1\n      revert\n    tag_219:\n        /* \"@openzeppelin/contracts-upgradeable/token/ERC20/ERC20Upgradeable.sol\":11851:11902  _approve(owner, spender, currentAllowance - amount) */\n      tag_222\n        /* \"@openzeppelin/contracts-upgradeable/token/ERC20/ERC20Upgradeable.sol\":11860:11865  owner */\n      dup5\n        /* \"@openzeppelin/contracts-upgradeable/token/ERC20/ERC20Upgradeable.sol\":11867:11874  spender */\n      dup5\n        /* \"@openzeppelin/contracts-upgradeable/token/ERC20/ERC20Upgradeable.sol\":11895:11901  amount */\n      dup5\n        /* \"@openzeppelin/contracts-upgradeable/token/ERC20/ERC20Upgradeable.sol\":11876:11892  currentAllowance */\n      dup5\n        /* \"@openzeppelin/contracts-upgradeable/token/ERC20/ERC20Upgradeable.sol\":11876:11901  currentAllowance - amount */\n      sub\n        /* \"@openzeppelin/contracts-upgradeable/token/ERC20/ERC20Upgradeable.sol\":11851:11859  _approve */\n      tag_114\n        /* \"@openzeppelin/contracts-upgradeable/token/ERC20/ERC20Upgradeable.sol\":11851:11902  _approve(owner, spender, currentAllowance - amount) */\n      jump\t// in\n    tag_222:\n        /* \"@openzeppelin/contracts-upgradeable/token/ERC20/ERC20Upgradeable.sol\":11684:11927  if (currentAllowance != type(uint256).max) {... */\n    tag_218:\n        /* \"@openzeppelin/contracts-upgradeable/token/ERC20/ERC20Upgradeable.sol\":11612:11933  {... */\n      pop\n        /* \"@openzeppelin/contracts-upgradeable/token/ERC20/ERC20Upgradeable.sol\":11492:11933  function _spendAllowance(... */\n      pop\n      pop\n      pop\n      jump\t// out\n        /* \"@openzeppelin/contracts-upgradeable/token/ERC20/ERC20Upgradeable.sol\":7810:8628  function _transfer(... */\n    tag_121:\n        /* \"@openzeppelin/contracts-upgradeable/token/ERC20/ERC20Upgradeable.sol\":7952:7953  0 */\n      0x00\n        /* \"@openzeppelin/contracts-upgradeable/token/ERC20/ERC20Upgradeable.sol\":7936:7954  from != address(0) */\n      0xffffffffffffffffffffffffffffffffffffffff\n      and\n        /* \"@openzeppelin/contracts-upgradeable/token/ERC20/ERC20Upgradeable.sol\":7936:7940  from */\n      dup4\n        /* \"@openzeppelin/contracts-upgradeable/token/ERC20/ERC20Upgradeable.sol\":7936:7954  from != address(0) */\n      0xffffffffffffffffffffffffffffffffffffffff\n      and\n      sub\n        /* \"@openzeppelin/contracts-upgradeable/token/ERC20/ERC20Upgradeable.sol\":7928:7996  require(from != address(0), \"ERC20: transfer from the zero address\") */\n      tag_224\n      jumpi\n      mload(0x40)\n      0x08c379a000000000000000000000000000000000000000000000000000000000\n      dup2\n      mstore\n      0x04\n      add\n      tag_225\n      swap1\n      tag_226\n      jump\t// in\n    tag_225:\n      mload(0x40)\n      dup1\n      swap2\n      sub\n      swap1\n      revert\n    tag_224:\n        /* \"@openzeppelin/contracts-upgradeable/token/ERC20/ERC20Upgradeable.sol\":8028:8029  0 */\n      0x00\n        /* \"@openzeppelin/contracts-upgradeable/token/ERC20/ERC20Upgradeable.sol\":8014:8030  to != address(0) */\n      0xffffffffffffffffffffffffffffffffffffffff\n      and\n        /* \"@openzeppelin/contracts-upgradeable/token/ERC20/ERC20Upgradeable.sol\":8014:8016  to */\n      dup3\n        /* \"@openzeppelin/contracts-upgradeable/token/ERC20/ERC20Upgradeable.sol\":8014:8030  to != address(0) */\n      0xffffffffffffffffffffffffffffffffffffffff\n      and\n      sub\n        /* \"@openzeppelin/contracts-upgradeable/token/ERC20/ERC20Upgradeable.sol\":8006:8070  require(to != address(0), \"ERC20: transfer to the zero address\") */\n      tag_227\n      jumpi\n      mload(0x40)\n      0x08c379a000000000000000000000000000000000000000000000000000000000\n      dup2\n      mstore\n      0x04\n      add\n      tag_228\n      swap1\n      tag_229\n      jump\t// in\n    tag_228:\n      mload(0x40)\n      dup1\n      swap2\n      sub\n      swap1\n      revert\n    tag_227:\n        /* \"@openzeppelin/contracts-upgradeable/token/ERC20/ERC20Upgradeable.sol\":8081:8119  _beforeTokenTransfer(from, to, amount) */\n      tag_230\n        /* \"@openzeppelin/contracts-upgradeable/token/ERC20/ERC20Upgradeable.sol\":8102:8106  from */\n      dup4\n        /* \"@openzeppelin/contracts-upgradeable/token/ERC20/ERC20Upgradeable.sol\":8108:8110  to */\n      dup4\n        /* \"@openzeppelin/contracts-upgradeable/token/ERC20/ERC20Upgradeable.sol\":8112:8118  amount */\n      dup4\n        /* \"@openzeppelin/contracts-upgradeable/token/ERC20/ERC20Upgradeable.sol\":8081:8101  _beforeTokenTransfer */\n      tag_231\n        /* \"@openzeppelin/contracts-upgradeable/token/ERC20/ERC20Upgradeable.sol\":8081:8119  _beforeTokenTransfer(from, to, amount) */\n      jump\t// in\n    tag_230:\n        /* \"@openzeppelin/contracts-upgradeable/token/ERC20/ERC20Upgradeable.sol\":8130:8149  uint256 fromBalance */\n      0x00\n        /* \"@openzeppelin/contracts-upgradeable/token/ERC20/ERC20Upgradeable.sol\":8152:8161  _balances */\n      0x33\n        /* \"@openzeppelin/contracts-upgradeable/token/ERC20/ERC20Upgradeable.sol\":8152:8167  _balances[from] */\n      0x00\n        /* \"@openzeppelin/contracts-upgradeable/token/ERC20/ERC20Upgradeable.sol\":8162:8166  from */\n      dup6\n        /* \"@openzeppelin/contracts-upgradeable/token/ERC20/ERC20Upgradeable.sol\":8152:8167  _balances[from] */\n      0xffffffffffffffffffffffffffffffffffffffff\n      and\n      0xffffffffffffffffffffffffffffffffffffffff\n      and\n      dup2\n      mstore\n      0x20\n      add\n      swap1\n      dup2\n      mstore\n      0x20\n      add\n      0x00\n      keccak256\n      sload\n        /* \"@openzeppelin/contracts-upgradeable/token/ERC20/ERC20Upgradeable.sol\":8130:8167  uint256 fromBalance = _balances[from] */\n      swap1\n      pop\n        /* \"@openzeppelin/contracts-upgradeable/token/ERC20/ERC20Upgradeable.sol\":8200:8206  amount */\n      dup2\n        /* \"@openzeppelin/contracts-upgradeable/token/ERC20/ERC20Upgradeable.sol\":8185:8196  fromBalance */\n      dup2\n        /* \"@openzeppelin/contracts-upgradeable/token/ERC20/ERC20Upgradeable.sol\":8185:8206  fromBalance >= amount */\n      lt\n      iszero\n        /* \"@openzeppelin/contracts-upgradeable/token/ERC20/ERC20Upgradeable.sol\":8177:8249  require(fromBalance >= amount, \"ERC20: transfer amount exceeds balance\") */\n      tag_232\n      jumpi\n      mload(0x40)\n      0x08c379a000000000000000000000000000000000000000000000000000000000\n      dup2\n      mstore\n      0x04\n      add\n      tag_233\n      swap1\n      tag_234\n      jump\t// in\n    tag_233:\n      mload(0x40)\n      dup1\n      swap2\n      sub\n      swap1\n      revert\n    tag_232:\n        /* \"@openzeppelin/contracts-upgradeable/token/ERC20/ERC20Upgradeable.sol\":8315:8321  amount */\n      dup2\n        /* \"@openzeppelin/contracts-upgradeable/token/ERC20/ERC20Upgradeable.sol\":8301:8312  fromBalance */\n      dup2\n        /* \"@openzeppelin/contracts-upgradeable/token/ERC20/ERC20Upgradeable.sol\":8301:8321  fromBalance - amount */\n      sub\n        /* \"@openzeppelin/contracts-upgradeable/token/ERC20/ERC20Upgradeable.sol\":8283:8292  _balances */\n      0x33\n        /* \"@openzeppelin/contracts-upgradeable/token/ERC20/ERC20Upgradeable.sol\":8283:8298  _balances[from] */\n      0x00\n        /* \"@openzeppelin/contracts-upgradeable/token/ERC20/ERC20Upgradeable.sol\":8293:8297  from */\n      dup7\n        /* \"@openzeppelin/contracts-upgradeable/token/ERC20/ERC20Upgradeable.sol\":8283:8298  _balances[from] */\n      0xffffffffffffffffffffffffffffffffffffffff\n      and\n      0xffffffffffffffffffffffffffffffffffffffff\n      and\n      dup2\n      mstore\n      0x20\n      add\n      swap1\n      dup2\n      mstore\n      0x20\n      add\n      0x00\n      keccak256\n        /* \"@openzeppelin/contracts-upgradeable/token/ERC20/ERC20Upgradeable.sol\":8283:8321  _balances[from] = fromBalance - amount */\n      dup2\n      swap1\n      sstore\n      pop\n        /* \"@openzeppelin/contracts-upgradeable/token/ERC20/ERC20Upgradeable.sol\":8515:8521  amount */\n      dup2\n        /* \"@openzeppelin/contracts-upgradeable/token/ERC20/ERC20Upgradeable.sol\":8498:8507  _balances */\n      0x33\n        /* \"@openzeppelin/contracts-upgradeable/token/ERC20/ERC20Upgradeable.sol\":8498:8511  _balances[to] */\n      0x00\n        /* \"@openzeppelin/contracts-upgradeable/token/ERC20/ERC20Upgradeable.sol\":8508:8510  to */\n      dup6\n        /* \"@openzeppelin/contracts-upgradeable/token/ERC20/ERC20Upgradeable.sol\":8498:8511  _balances[to] */\n      0xffffffffffffffffffffffffffffffffffffffff\n      and\n      0xffffffffffffffffffffffffffffffffffffffff\n      and\n      dup2\n      mstore\n      0x20\n      add\n      swap1\n      dup2\n      mstore\n      0x20\n      add\n      0x00\n      keccak256\n      0x00\n        /* \"@openzeppelin/contracts-upgradeable/token/ERC20/ERC20Upgradeable.sol\":8498:8521  _balances[to] += amount */\n      dup3\n      dup3\n      sload\n      add\n      swap3\n      pop\n      pop\n      dup2\n      swap1\n      sstore\n      pop\n        /* \"@openzeppelin/contracts-upgradeable/token/ERC20/ERC20Upgradeable.sol\":8562:8564  to */\n      dup3\n        /* \"@openzeppelin/contracts-upgradeable/token/ERC20/ERC20Upgradeable.sol\":8547:8573  Transfer(from, to, amount) */\n      0xffffffffffffffffffffffffffffffffffffffff\n      and\n        /* \"@openzeppelin/contracts-upgradeable/token/ERC20/ERC20Upgradeable.sol\":8556:8560  from */\n      dup5\n        /* \"@openzeppelin/contracts-upgradeable/token/ERC20/ERC20Upgradeable.sol\":8547:8573  Transfer(from, to, amount) */\n      0xffffffffffffffffffffffffffffffffffffffff\n      and\n      0xddf252ad1be2c89b69c2b068fc378daa952ba7f163c4a11628f55a4df523b3ef\n        /* \"@openzeppelin/contracts-upgradeable/token/ERC20/ERC20Upgradeable.sol\":8566:8572  amount */\n      dup5\n        /* \"@openzeppelin/contracts-upgradeable/token/ERC20/ERC20Upgradeable.sol\":8547:8573  Transfer(from, to, amount) */\n      mload(0x40)\n      tag_235\n      swap2\n      swap1\n      tag_40\n      jump\t// in\n    tag_235:\n      mload(0x40)\n      dup1\n      swap2\n      sub\n      swap1\n      log3\n        /* \"@openzeppelin/contracts-upgradeable/token/ERC20/ERC20Upgradeable.sol\":8584:8621  _afterTokenTransfer(from, to, amount) */\n      tag_236\n        /* \"@openzeppelin/contracts-upgradeable/token/ERC20/ERC20Upgradeable.sol\":8604:8608  from */\n      dup5\n        /* \"@openzeppelin/contracts-upgradeable/token/ERC20/ERC20Upgradeable.sol\":8610:8612  to */\n      dup5\n        /* \"@openzeppelin/contracts-upgradeable/token/ERC20/ERC20Upgradeable.sol\":8614:8620  amount */\n      dup5\n        /* \"@openzeppelin/contracts-upgradeable/token/ERC20/ERC20Upgradeable.sol\":8584:8603  _afterTokenTransfer */\n      tag_237\n        /* \"@openzeppelin/contracts-upgradeable/token/ERC20/ERC20Upgradeable.sol\":8584:8621  _afterTokenTransfer(from, to, amount) */\n      jump\t// in\n    tag_236:\n        /* \"@openzeppelin/contracts-upgradeable/token/ERC20/ERC20Upgradeable.sol\":7918:8628  {... */\n      pop\n        /* \"@openzeppelin/contracts-upgradeable/token/ERC20/ERC20Upgradeable.sol\":7810:8628  function _transfer(... */\n      pop\n      pop\n      pop\n      jump\t// out\n        /* \"@openzeppelin/contracts-upgradeable/access/OwnableUpgradeable.sol\":1599:1729  function _checkOwner() internal view virtual {... */\n    tag_131:\n        /* \"@openzeppelin/contracts-upgradeable/access/OwnableUpgradeable.sol\":1673:1685  _msgSender() */\n      tag_239\n        /* \"@openzeppelin/contracts-upgradeable/access/OwnableUpgradeable.sol\":1673:1683  _msgSender */\n      tag_112\n        /* \"@openzeppelin/contracts-upgradeable/access/OwnableUpgradeable.sol\":1673:1685  _msgSender() */\n      jump\t// in\n    tag_239:\n        /* \"@openzeppelin/contracts-upgradeable/access/OwnableUpgradeable.sol\":1662:1685  owner() == _msgSender() */\n      0xffffffffffffffffffffffffffffffffffffffff\n      and\n        /* \"@openzeppelin/contracts-upgradeable/access/OwnableUpgradeable.sol\":1662:1669  owner() */\n      tag_240\n        /* \"@openzeppelin/contracts-upgradeable/access/OwnableUpgradeable.sol\":1662:1667  owner */\n      tag_81\n        /* \"@openzeppelin/contracts-upgradeable/access/OwnableUpgradeable.sol\":1662:1669  owner() */\n      jump\t// in\n    tag_240:\n        /* \"@openzeppelin/contracts-upgradeable/access/OwnableUpgradeable.sol\":1662:1685  owner() == _msgSender() */\n      0xffffffffffffffffffffffffffffffffffffffff\n      and\n      eq\n        /* \"@openzeppelin/contracts-upgradeable/access/OwnableUpgradeable.sol\":1654:1722  require(owner() == _msgSender(), \"Ownable: caller is not the owner\") */\n      tag_241\n      jumpi\n      mload(0x40)\n      0x08c379a000000000000000000000000000000000000000000000000000000000\n      dup2\n      mstore\n      0x04\n      add\n      tag_242\n      swap1\n      tag_243\n      jump\t// in\n    tag_242:\n      mload(0x40)\n      dup1\n      swap2\n      sub\n      swap1\n      revert\n    tag_241:\n        /* \"@openzeppelin/contracts-upgradeable/access/OwnableUpgradeable.sol\":1599:1729  function _checkOwner() internal view virtual {... */\n      jump\t// out\n        /* \"@openzeppelin/contracts-upgradeable/security/PausableUpgradeable.sol\":2676:2793  function _unpause() internal virtual whenPaused {... */\n    tag_134:\n        /* \"@openzeppelin/contracts-upgradeable/security/PausableUpgradeable.sol\":1729:1745  _requirePaused() */\n      tag_245\n        /* \"@openzeppelin/contracts-upgradeable/security/PausableUpgradeable.sol\":1729:1743  _requirePaused */\n      tag_246\n        /* \"@openzeppelin/contracts-upgradeable/security/PausableUpgradeable.sol\":1729:1745  _requirePaused() */\n      jump\t// in\n    tag_245:\n        /* \"@openzeppelin/contracts-upgradeable/security/PausableUpgradeable.sol\":2744:2749  false */\n      0x00\n        /* \"@openzeppelin/contracts-upgradeable/security/PausableUpgradeable.sol\":2734:2741  _paused */\n      0x97\n      0x00\n        /* \"@openzeppelin/contracts-upgradeable/security/PausableUpgradeable.sol\":2734:2749  _paused = false */\n      0x0100\n      exp\n      dup2\n      sload\n      dup2\n      0xff\n      mul\n      not\n      and\n      swap1\n      dup4\n      iszero\n      iszero\n      mul\n      or\n      swap1\n      sstore\n      pop\n        /* \"@openzeppelin/contracts-upgradeable/security/PausableUpgradeable.sol\":2764:2786  Unpaused(_msgSender()) */\n      0x5db9ee0a495bf2e6ff9c91a7834c1ba4fdd244a5e8aa4e537bd38aeae4b073aa\n        /* \"@openzeppelin/contracts-upgradeable/security/PausableUpgradeable.sol\":2773:2785  _msgSender() */\n      tag_248\n        /* \"@openzeppelin/contracts-upgradeable/security/PausableUpgradeable.sol\":2773:2783  _msgSender */\n      tag_112\n        /* \"@openzeppelin/contracts-upgradeable/security/PausableUpgradeable.sol\":2773:2785  _msgSender() */\n      jump\t// in\n    tag_248:\n        /* \"@openzeppelin/contracts-upgradeable/security/PausableUpgradeable.sol\":2764:2786  Unpaused(_msgSender()) */\n      mload(0x40)\n      tag_249\n      swap2\n      swap1\n      tag_83\n      jump\t// in\n    tag_249:\n      mload(0x40)\n      dup1\n      swap2\n      sub\n      swap1\n      log1\n        /* \"@openzeppelin/contracts-upgradeable/security/PausableUpgradeable.sol\":2676:2793  function _unpause() internal virtual whenPaused {... */\n      jump\t// out\n        /* \"@openzeppelin/contracts-upgradeable/token/ERC20/ERC20Upgradeable.sol\":8904:9439  function _mint(address account, uint256 amount) internal virtual {... */\n    tag_139:\n        /* \"@openzeppelin/contracts-upgradeable/token/ERC20/ERC20Upgradeable.sol\":9006:9007  0 */\n      0x00\n        /* \"@openzeppelin/contracts-upgradeable/token/ERC20/ERC20Upgradeable.sol\":8987:9008  account != address(0) */\n      0xffffffffffffffffffffffffffffffffffffffff\n      and\n        /* \"@openzeppelin/contracts-upgradeable/token/ERC20/ERC20Upgradeable.sol\":8987:8994  account */\n      dup3\n        /* \"@openzeppelin/contracts-upgradeable/token/ERC20/ERC20Upgradeable.sol\":8987:9008  account != address(0) */\n      0xffffffffffffffffffffffffffffffffffffffff\n      and\n      sub\n        /* \"@openzeppelin/contracts-upgradeable/token/ERC20/ERC20Upgradeable.sol\":8979:9044  require(account != address(0), \"ERC20: mint to the zero address\") */\n      tag_251\n      jumpi\n      mload(0x40)\n      0x08c379a000000000000000000000000000000000000000000000000000000000\n      dup2\n      mstore\n      0x04\n      add\n      tag_252\n      swap1\n      tag_253\n      jump\t// in\n    tag_252:\n      mload(0x40)\n      dup1\n      swap2\n      sub\n      swap1\n      revert\n    tag_251:\n        /* \"@openzeppelin/contracts-upgradeable/token/ERC20/ERC20Upgradeable.sol\":9055:9104  _beforeTokenTransfer(address(0), account, amount) */\n      tag_254\n        /* \"@openzeppelin/contracts-upgradeable/token/ERC20/ERC20Upgradeable.sol\":9084:9085  0 */\n      0x00\n        /* \"@openzeppelin/contracts-upgradeable/token/ERC20/ERC20Upgradeable.sol\":9088:9095  account */\n      dup4\n        /* \"@openzeppelin/contracts-upgradeable/token/ERC20/ERC20Upgradeable.sol\":9097:9103  amount */\n      dup4\n        /* \"@openzeppelin/contracts-upgradeable/token/ERC20/ERC20Upgradeable.sol\":9055:9075  _beforeTokenTransfer */\n      tag_231\n        /* \"@openzeppelin/contracts-upgradeable/token/ERC20/ERC20Upgradeable.sol\":9055:9104  _beforeTokenTransfer(address(0), account, amount) */\n      jump\t// in\n    tag_254:\n        /* \"@openzeppelin/contracts-upgradeable/token/ERC20/ERC20Upgradeable.sol\":9131:9137  amount */\n      dup1\n        /* \"@openzeppelin/contracts-upgradeable/token/ERC20/ERC20Upgradeable.sol\":9115:9127  _totalSupply */\n      0x35\n      0x00\n        /* \"@openzeppelin/contracts-upgradeable/token/ERC20/ERC20Upgradeable.sol\":9115:9137  _totalSupply += amount */\n      dup3\n      dup3\n      sload\n      tag_255\n      swap2\n      swap1\n      tag_128\n      jump\t// in\n    tag_255:\n      swap3\n      pop\n      pop\n      dup2\n      swap1\n      sstore\n      pop\n        /* \"@openzeppelin/contracts-upgradeable/token/ERC20/ERC20Upgradeable.sol\":9305:9311  amount */\n      dup1\n        /* \"@openzeppelin/contracts-upgradeable/token/ERC20/ERC20Upgradeable.sol\":9283:9292  _balances */\n      0x33\n        /* \"@openzeppelin/contracts-upgradeable/token/ERC20/ERC20Upgradeable.sol\":9283:9301  _balances[account] */\n      0x00\n        /* \"@openzeppelin/contracts-upgradeable/token/ERC20/ERC20Upgradeable.sol\":9293:9300  account */\n      dup5\n        /* \"@openzeppelin/contracts-upgradeable/token/ERC20/ERC20Upgradeable.sol\":9283:9301  _balances[account] */\n      0xffffffffffffffffffffffffffffffffffffffff\n      and\n      0xffffffffffffffffffffffffffffffffffffffff\n      and\n      dup2\n      mstore\n      0x20\n      add\n      swap1\n      dup2\n      mstore\n      0x20\n      add\n      0x00\n      keccak256\n      0x00\n        /* \"@openzeppelin/contracts-upgradeable/token/ERC20/ERC20Upgradeable.sol\":9283:9311  _balances[account] += amount */\n      dup3\n      dup3\n      sload\n      add\n      swap3\n      pop\n      pop\n      dup2\n      swap1\n      sstore\n      pop\n        /* \"@openzeppelin/contracts-upgradeable/token/ERC20/ERC20Upgradeable.sol\":9357:9364  account */\n      dup2\n        /* \"@openzeppelin/contracts-upgradeable/token/ERC20/ERC20Upgradeable.sol\":9336:9373  Transfer(address(0), account, amount) */\n      0xffffffffffffffffffffffffffffffffffffffff\n      and\n        /* \"@openzeppelin/contracts-upgradeable/token/ERC20/ERC20Upgradeable.sol\":9353:9354  0 */\n      0x00\n        /* \"@openzeppelin/contracts-upgradeable/token/ERC20/ERC20Upgradeable.sol\":9336:9373  Transfer(address(0), account, amount) */\n      0xffffffffffffffffffffffffffffffffffffffff\n      and\n      0xddf252ad1be2c89b69c2b068fc378daa952ba7f163c4a11628f55a4df523b3ef\n        /* \"@openzeppelin/contracts-upgradeable/token/ERC20/ERC20Upgradeable.sol\":9366:9372  amount */\n      dup4\n        /* \"@openzeppelin/contracts-upgradeable/token/ERC20/ERC20Upgradeable.sol\":9336:9373  Transfer(address(0), account, amount) */\n      mload(0x40)\n      tag_256\n      swap2\n      swap1\n      tag_40\n      jump\t// in\n    tag_256:\n      mload(0x40)\n      dup1\n      swap2\n      sub\n      swap1\n      log3\n        /* \"@openzeppelin/contracts-upgradeable/token/ERC20/ERC20Upgradeable.sol\":9384:9432  _afterTokenTransfer(address(0), account, amount) */\n      tag_257\n        /* \"@openzeppelin/contracts-upgradeable/token/ERC20/ERC20Upgradeable.sol\":9412:9413  0 */\n      0x00\n        /* \"@openzeppelin/contracts-upgradeable/token/ERC20/ERC20Upgradeable.sol\":9416:9423  account */\n      dup4\n        /* \"@openzeppelin/contracts-upgradeable/token/ERC20/ERC20Upgradeable.sol\":9425:9431  amount */\n      dup4\n        /* \"@openzeppelin/contracts-upgradeable/token/ERC20/ERC20Upgradeable.sol\":9384:9403  _afterTokenTransfer */\n      tag_237\n        /* \"@openzeppelin/contracts-upgradeable/token/ERC20/ERC20Upgradeable.sol\":9384:9432  _afterTokenTransfer(address(0), account, amount) */\n      jump\t// in\n    tag_257:\n        /* \"@openzeppelin/contracts-upgradeable/token/ERC20/ERC20Upgradeable.sol\":8904:9439  function _mint(address account, uint256 amount) internal virtual {... */\n      pop\n      pop\n      jump\t// out\n        /* \"@openzeppelin/contracts-upgradeable/token/ERC20/ERC20Upgradeable.sol\":9759:10418  function _burn(address account, uint256 amount) internal virtual {... */\n    tag_143:\n        /* \"@openzeppelin/contracts-upgradeable/token/ERC20/ERC20Upgradeable.sol\":9861:9862  0 */\n      0x00\n        /* \"@openzeppelin/contracts-upgradeable/token/ERC20/ERC20Upgradeable.sol\":9842:9863  account != address(0) */\n      0xffffffffffffffffffffffffffffffffffffffff\n      and\n        /* \"@openzeppelin/contracts-upgradeable/token/ERC20/ERC20Upgradeable.sol\":9842:9849  account */\n      dup3\n        /* \"@openzeppelin/contracts-upgradeable/token/ERC20/ERC20Upgradeable.sol\":9842:9863  account != address(0) */\n      0xffffffffffffffffffffffffffffffffffffffff\n      and\n      sub\n        /* \"@openzeppelin/contracts-upgradeable/token/ERC20/ERC20Upgradeable.sol\":9834:9901  require(account != address(0), \"ERC20: burn from the zero address\") */\n      tag_259\n      jumpi\n      mload(0x40)\n      0x08c379a000000000000000000000000000000000000000000000000000000000\n      dup2\n      mstore\n      0x04\n      add\n      tag_260\n      swap1\n      tag_261\n      jump\t// in\n    tag_260:\n      mload(0x40)\n      dup1\n      swap2\n      sub\n      swap1\n      revert\n    tag_259:\n        /* \"@openzeppelin/contracts-upgradeable/token/ERC20/ERC20Upgradeable.sol\":9912:9961  _beforeTokenTransfer(account, address(0), amount) */\n      tag_262\n        /* \"@openzeppelin/contracts-upgradeable/token/ERC20/ERC20Upgradeable.sol\":9933:9940  account */\n      dup3\n        /* \"@openzeppelin/contracts-upgradeable/token/ERC20/ERC20Upgradeable.sol\":9950:9951  0 */\n      0x00\n        /* \"@openzeppelin/contracts-upgradeable/token/ERC20/ERC20Upgradeable.sol\":9954:9960  amount */\n      dup4\n        /* \"@openzeppelin/contracts-upgradeable/token/ERC20/ERC20Upgradeable.sol\":9912:9932  _beforeTokenTransfer */\n      tag_231\n        /* \"@openzeppelin/contracts-upgradeable/token/ERC20/ERC20Upgradeable.sol\":9912:9961  _beforeTokenTransfer(account, address(0), amount) */\n      jump\t// in\n    tag_262:\n        /* \"@openzeppelin/contracts-upgradeable/token/ERC20/ERC20Upgradeable.sol\":9972:9994  uint256 accountBalance */\n      0x00\n        /* \"@openzeppelin/contracts-upgradeable/token/ERC20/ERC20Upgradeable.sol\":9997:10006  _balances */\n      0x33\n        /* \"@openzeppelin/contracts-upgradeable/token/ERC20/ERC20Upgradeable.sol\":9997:10015  _balances[account] */\n      0x00\n        /* \"@openzeppelin/contracts-upgradeable/token/ERC20/ERC20Upgradeable.sol\":10007:10014  account */\n      dup5\n        /* \"@openzeppelin/contracts-upgradeable/token/ERC20/ERC20Upgradeable.sol\":9997:10015  _balances[account] */\n      0xffffffffffffffffffffffffffffffffffffffff\n      and\n      0xffffffffffffffffffffffffffffffffffffffff\n      and\n      dup2\n      mstore\n      0x20\n      add\n      swap1\n      dup2\n      mstore\n      0x20\n      add\n      0x00\n      keccak256\n      sload\n        /* \"@openzeppelin/contracts-upgradeable/token/ERC20/ERC20Upgradeable.sol\":9972:10015  uint256 accountBalance = _balances[account] */\n      swap1\n      pop\n        /* \"@openzeppelin/contracts-upgradeable/token/ERC20/ERC20Upgradeable.sol\":10051:10057  amount */\n      dup2\n        /* \"@openzeppelin/contracts-upgradeable/token/ERC20/ERC20Upgradeable.sol\":10033:10047  accountBalance */\n      dup2\n        /* \"@openzeppelin/contracts-upgradeable/token/ERC20/ERC20Upgradeable.sol\":10033:10057  accountBalance >= amount */\n      lt\n      iszero\n        /* \"@openzeppelin/contracts-upgradeable/token/ERC20/ERC20Upgradeable.sol\":10025:10096  require(accountBalance >= amount, \"ERC20: burn amount exceeds balance\") */\n      tag_263\n      jumpi\n      mload(0x40)\n      0x08c379a000000000000000000000000000000000000000000000000000000000\n      dup2\n      mstore\n      0x04\n      add\n      tag_264\n      swap1\n      tag_265\n      jump\t// in\n    tag_264:\n      mload(0x40)\n      dup1\n      swap2\n      sub\n      swap1\n      revert\n    tag_263:\n        /* \"@openzeppelin/contracts-upgradeable/token/ERC20/ERC20Upgradeable.sol\":10168:10174  amount */\n      dup2\n        /* \"@openzeppelin/contracts-upgradeable/token/ERC20/ERC20Upgradeable.sol\":10151:10165  accountBalance */\n      dup2\n        /* \"@openzeppelin/contracts-upgradeable/token/ERC20/ERC20Upgradeable.sol\":10151:10174  accountBalance - amount */\n      sub\n        /* \"@openzeppelin/contracts-upgradeable/token/ERC20/ERC20Upgradeable.sol\":10130:10139  _balances */\n      0x33\n        /* \"@openzeppelin/contracts-upgradeable/token/ERC20/ERC20Upgradeable.sol\":10130:10148  _balances[account] */\n      0x00\n        /* \"@openzeppelin/contracts-upgradeable/token/ERC20/ERC20Upgradeable.sol\":10140:10147  account */\n      dup6\n        /* \"@openzeppelin/contracts-upgradeable/token/ERC20/ERC20Upgradeable.sol\":10130:10148  _balances[account] */\n      0xffffffffffffffffffffffffffffffffffffffff\n      and\n      0xffffffffffffffffffffffffffffffffffffffff\n      and\n      dup2\n      mstore\n      0x20\n      add\n      swap1\n      dup2\n      mstore\n      0x20\n      add\n      0x00\n      keccak256\n        /* \"@openzeppelin/contracts-upgradeable/token/ERC20/ERC20Upgradeable.sol\":10130:10174  _balances[account] = accountBalance - amount */\n      dup2\n      swap1\n      sstore\n      pop\n        /* \"@openzeppelin/contracts-upgradeable/token/ERC20/ERC20Upgradeable.sol\":10283:10289  amount */\n      dup2\n        /* \"@openzeppelin/contracts-upgradeable/token/ERC20/ERC20Upgradeable.sol\":10267:10279  _totalSupply */\n      0x35\n      0x00\n        /* \"@openzeppelin/contracts-upgradeable/token/ERC20/ERC20Upgradeable.sol\":10267:10289  _totalSupply -= amount */\n      dup3\n      dup3\n      sload\n      sub\n      swap3\n      pop\n      pop\n      dup2\n      swap1\n      sstore\n      pop\n        /* \"@openzeppelin/contracts-upgradeable/token/ERC20/ERC20Upgradeable.sol\":10341:10342  0 */\n      0x00\n        /* \"@openzeppelin/contracts-upgradeable/token/ERC20/ERC20Upgradeable.sol\":10315:10352  Transfer(account, address(0), amount) */\n      0xffffffffffffffffffffffffffffffffffffffff\n      and\n        /* \"@openzeppelin/contracts-upgradeable/token/ERC20/ERC20Upgradeable.sol\":10324:10331  account */\n      dup4\n        /* \"@openzeppelin/contracts-upgradeable/token/ERC20/ERC20Upgradeable.sol\":10315:10352  Transfer(account, address(0), amount) */\n      0xffffffffffffffffffffffffffffffffffffffff\n      and\n      0xddf252ad1be2c89b69c2b068fc378daa952ba7f163c4a11628f55a4df523b3ef\n        /* \"@openzeppelin/contracts-upgradeable/token/ERC20/ERC20Upgradeable.sol\":10345:10351  amount */\n      dup5\n        /* \"@openzeppelin/contracts-upgradeable/token/ERC20/ERC20Upgradeable.sol\":10315:10352  Transfer(account, address(0), amount) */\n      mload(0x40)\n      tag_266\n      swap2\n      swap1\n      tag_40\n      jump\t// in\n    tag_266:\n      mload(0x40)\n      dup1\n      swap2\n      sub\n      swap1\n      log3\n        /* \"@openzeppelin/contracts-upgradeable/token/ERC20/ERC20Upgradeable.sol\":10363:10411  _afterTokenTransfer(account, address(0), amount) */\n      tag_267\n        /* \"@openzeppelin/contracts-upgradeable/token/ERC20/ERC20Upgradeable.sol\":10383:10390  account */\n      dup4\n        /* \"@openzeppelin/contracts-upgradeable/token/ERC20/ERC20Upgradeable.sol\":10400:10401  0 */\n      0x00\n        /* \"@openzeppelin/contracts-upgradeable/token/ERC20/ERC20Upgradeable.sol\":10404:10410  amount */\n      dup5\n        /* \"@openzeppelin/contracts-upgradeable/token/ERC20/ERC20Upgradeable.sol\":10363:10382  _afterTokenTransfer */\n      tag_237\n        /* \"@openzeppelin/contracts-upgradeable/token/ERC20/ERC20Upgradeable.sol\":10363:10411  _afterTokenTransfer(account, address(0), amount) */\n      jump\t// in\n    tag_267:\n        /* \"@openzeppelin/contracts-upgradeable/token/ERC20/ERC20Upgradeable.sol\":9824:10418  {... */\n      pop\n        /* \"@openzeppelin/contracts-upgradeable/token/ERC20/ERC20Upgradeable.sol\":9759:10418  function _burn(address account, uint256 amount) internal virtual {... */\n      pop\n      pop\n      jump\t// out\n        /* \"@openzeppelin/contracts-upgradeable/access/OwnableUpgradeable.sol\":2673:2860  function _transferOwnership(address newOwner) internal virtual {... */\n    tag_150:\n        /* \"@openzeppelin/contracts-upgradeable/access/OwnableUpgradeable.sol\":2746:2762  address oldOwner */\n      0x00\n        /* \"@openzeppelin/contracts-upgradeable/access/OwnableUpgradeable.sol\":2765:2771  _owner */\n      0xc9\n      0x00\n      swap1\n      sload\n      swap1\n      0x0100\n      exp\n      swap1\n      div\n      0xffffffffffffffffffffffffffffffffffffffff\n      and\n        /* \"@openzeppelin/contracts-upgradeable/access/OwnableUpgradeable.sol\":2746:2771  address oldOwner = _owner */\n      swap1\n      pop\n        /* \"@openzeppelin/contracts-upgradeable/access/OwnableUpgradeable.sol\":2790:2798  newOwner */\n      dup2\n        /* \"@openzeppelin/contracts-upgradeable/access/OwnableUpgradeable.sol\":2781:2787  _owner */\n      0xc9\n      0x00\n        /* \"@openzeppelin/contracts-upgradeable/access/OwnableUpgradeable.sol\":2781:2798  _owner = newOwner */\n      0x0100\n      exp\n      dup2\n      sload\n      dup2\n      0xffffffffffffffffffffffffffffffffffffffff\n      mul\n      not\n      and\n      swap1\n      dup4\n      0xffffffffffffffffffffffffffffffffffffffff\n      and\n      mul\n      or\n      swap1\n      sstore\n      pop\n        /* \"@openzeppelin/contracts-upgradeable/access/OwnableUpgradeable.sol\":2844:2852  newOwner */\n      dup2\n        /* \"@openzeppelin/contracts-upgradeable/access/OwnableUpgradeable.sol\":2813:2853  OwnershipTransferred(oldOwner, newOwner) */\n      0xffffffffffffffffffffffffffffffffffffffff\n      and\n        /* \"@openzeppelin/contracts-upgradeable/access/OwnableUpgradeable.sol\":2834:2842  oldOwner */\n      dup2\n        /* \"@openzeppelin/contracts-upgradeable/access/OwnableUpgradeable.sol\":2813:2853  OwnershipTransferred(oldOwner, newOwner) */\n      0xffffffffffffffffffffffffffffffffffffffff\n      and\n      0x8be0079c531659141344cd1fd0a4f28419497f9722a3daafe3b4186f6b6457e0\n      mload(0x40)\n      mload(0x40)\n      dup1\n      swap2\n      sub\n      swap1\n      log3\n        /* \"@openzeppelin/contracts-upgradeable/access/OwnableUpgradeable.sol\":2736:2860  {... */\n      pop\n        /* \"@openzeppelin/contracts-upgradeable/access/OwnableUpgradeable.sol\":2673:2860  function _transferOwnership(address newOwner) internal virtual {... */\n      pop\n      jump\t// out\n        /* \"@openzeppelin/contracts-upgradeable/utils/AddressUpgradeable.sol\":1186:1506  function isContract(address account) internal view returns (bool) {... */\n    tag_159:\n        /* \"@openzeppelin/contracts-upgradeable/utils/AddressUpgradeable.sol\":1246:1250  bool */\n      0x00\n        /* \"@openzeppelin/contracts-upgradeable/utils/AddressUpgradeable.sol\":1498:1499  0 */\n      dup1\n        /* \"@openzeppelin/contracts-upgradeable/utils/AddressUpgradeable.sol\":1476:1483  account */\n      dup3\n        /* \"@openzeppelin/contracts-upgradeable/utils/AddressUpgradeable.sol\":1476:1495  account.code.length */\n      0xffffffffffffffffffffffffffffffffffffffff\n      and\n      extcodesize\n        /* \"@openzeppelin/contracts-upgradeable/utils/AddressUpgradeable.sol\":1476:1499  account.code.length > 0 */\n      gt\n        /* \"@openzeppelin/contracts-upgradeable/utils/AddressUpgradeable.sol\":1469:1499  return account.code.length > 0 */\n      swap1\n      pop\n        /* \"@openzeppelin/contracts-upgradeable/utils/AddressUpgradeable.sol\":1186:1506  function isContract(address account) internal view returns (bool) {... */\n      swap2\n      swap1\n      pop\n      jump\t// out\n        /* \"@openzeppelin/contracts-upgradeable/token/ERC20/ERC20Upgradeable.sol\":2114:2261  function __ERC20_init(string memory name_, string memory symbol_) internal onlyInitializing {... */\n    tag_167:\n        /* \"@openzeppelin/contracts-upgradeable/proxy/utils/Initializable.sol\":5363:5376  _initializing */\n      0x00\n      0x01\n      swap1\n      sload\n      swap1\n      0x0100\n      exp\n      swap1\n      div\n      0xff\n      and\n        /* \"@openzeppelin/contracts-upgradeable/proxy/utils/Initializable.sol\":5355:5424  require(_initializing, \"Initializable: contract is not initializing\") */\n      tag_271\n      jumpi\n      mload(0x40)\n      0x08c379a000000000000000000000000000000000000000000000000000000000\n      dup2\n      mstore\n      0x04\n      add\n      tag_272\n      swap1\n      tag_273\n      jump\t// in\n    tag_272:\n      mload(0x40)\n      dup1\n      swap2\n      sub\n      swap1\n      revert\n    tag_271:\n        /* \"@openzeppelin/contracts-upgradeable/token/ERC20/ERC20Upgradeable.sol\":2216:2254  __ERC20_init_unchained(name_, symbol_) */\n      tag_275\n        /* \"@openzeppelin/contracts-upgradeable/token/ERC20/ERC20Upgradeable.sol\":2239:2244  name_ */\n      dup3\n        /* \"@openzeppelin/contracts-upgradeable/token/ERC20/ERC20Upgradeable.sol\":2246:2253  symbol_ */\n      dup3\n        /* \"@openzeppelin/contracts-upgradeable/token/ERC20/ERC20Upgradeable.sol\":2216:2238  __ERC20_init_unchained */\n      tag_276\n        /* \"@openzeppelin/contracts-upgradeable/token/ERC20/ERC20Upgradeable.sol\":2216:2254  __ERC20_init_unchained(name_, symbol_) */\n      jump\t// in\n    tag_275:\n        /* \"@openzeppelin/contracts-upgradeable/token/ERC20/ERC20Upgradeable.sol\":2114:2261  function __ERC20_init(string memory name_, string memory symbol_) internal onlyInitializing {... */\n      pop\n      pop\n      jump\t// out\n        /* \"@openzeppelin/contracts-upgradeable/token/ERC20/extensions/ERC20BurnableUpgradeable.sol\":594:659  function __ERC20Burnable_init() internal onlyInitializing {... */\n    tag_169:\n        /* \"@openzeppelin/contracts-upgradeable/proxy/utils/Initializable.sol\":5363:5376  _initializing */\n      0x00\n      0x01\n      swap1\n      sload\n      swap1\n      0x0100\n      exp\n      swap1\n      div\n      0xff\n      and\n        /* \"@openzeppelin/contracts-upgradeable/proxy/utils/Initializable.sol\":5355:5424  require(_initializing, \"Initializable: contract is not initializing\") */\n      tag_278\n      jumpi\n      mload(0x40)\n      0x08c379a000000000000000000000000000000000000000000000000000000000\n      dup2\n      mstore\n      0x04\n      add\n      tag_279\n      swap1\n      tag_273\n      jump\t// in\n    tag_279:\n      mload(0x40)\n      dup1\n      swap2\n      sub\n      swap1\n      revert\n    tag_278:\n        /* \"@openzeppelin/contracts-upgradeable/token/ERC20/extensions/ERC20BurnableUpgradeable.sol\":594:659  function __ERC20Burnable_init() internal onlyInitializing {... */\n      jump\t// out\n        /* \"@openzeppelin/contracts-upgradeable/security/PausableUpgradeable.sol\":1063:1160  function __Pausable_init() internal onlyInitializing {... */\n    tag_171:\n        /* \"@openzeppelin/contracts-upgradeable/proxy/utils/Initializable.sol\":5363:5376  _initializing */\n      0x00\n      0x01\n      swap1\n      sload\n      swap1\n      0x0100\n      exp\n      swap1\n      div\n      0xff\n      and\n        /* \"@openzeppelin/contracts-upgradeable/proxy/utils/Initializable.sol\":5355:5424  require(_initializing, \"Initializable: contract is not initializing\") */\n      tag_282\n      jumpi\n      mload(0x40)\n      0x08c379a000000000000000000000000000000000000000000000000000000000\n      dup2\n      mstore\n      0x04\n      add\n      tag_283\n      swap1\n      tag_273\n      jump\t// in\n    tag_283:\n      mload(0x40)\n      dup1\n      swap2\n      sub\n      swap1\n      revert\n    tag_282:\n        /* \"@openzeppelin/contracts-upgradeable/security/PausableUpgradeable.sol\":1126:1153  __Pausable_init_unchained() */\n      tag_285\n        /* \"@openzeppelin/contracts-upgradeable/security/PausableUpgradeable.sol\":1126:1151  __Pausable_init_unchained */\n      tag_286\n        /* \"@openzeppelin/contracts-upgradeable/security/PausableUpgradeable.sol\":1126:1153  __Pausable_init_unchained() */\n      jump\t// in\n    tag_285:\n        /* \"@openzeppelin/contracts-upgradeable/security/PausableUpgradeable.sol\":1063:1160  function __Pausable_init() internal onlyInitializing {... */\n      jump\t// out\n        /* \"@openzeppelin/contracts-upgradeable/access/OwnableUpgradeable.sol\":1003:1098  function __Ownable_init() internal onlyInitializing {... */\n    tag_173:\n        /* \"@openzeppelin/contracts-upgradeable/proxy/utils/Initializable.sol\":5363:5376  _initializing */\n      0x00\n      0x01\n      swap1\n      sload\n      swap1\n      0x0100\n      exp\n      swap1\n      div\n      0xff\n      and\n        /* \"@openzeppelin/contracts-upgradeable/proxy/utils/Initializable.sol\":5355:5424  require(_initializing, \"Initializable: contract is not initializing\") */\n      tag_288\n      jumpi\n      mload(0x40)\n      0x08c379a000000000000000000000000000000000000000000000000000000000\n      dup2\n      mstore\n      0x04\n      add\n      tag_289\n      swap1\n      tag_273\n      jump\t// in\n    tag_289:\n      mload(0x40)\n      dup1\n      swap2\n      sub\n      swap1\n      revert\n    tag_288:\n        /* \"@openzeppelin/contracts-upgradeable/access/OwnableUpgradeable.sol\":1065:1091  __Ownable_init_unchained() */\n      tag_291\n        /* \"@openzeppelin/contracts-upgradeable/access/OwnableUpgradeable.sol\":1065:1089  __Ownable_init_unchained */\n      tag_292\n        /* \"@openzeppelin/contracts-upgradeable/access/OwnableUpgradeable.sol\":1065:1091  __Ownable_init_unchained() */\n      jump\t// in\n    tag_291:\n        /* \"@openzeppelin/contracts-upgradeable/access/OwnableUpgradeable.sol\":1003:1098  function __Ownable_init() internal onlyInitializing {... */\n      jump\t// out\n        /* \"@openzeppelin/contracts-upgradeable/security/PausableUpgradeable.sol\":2429:2544  function _pause() internal virtual whenNotPaused {... */\n    tag_181:\n        /* \"@openzeppelin/contracts-upgradeable/security/PausableUpgradeable.sol\":1482:1501  _requireNotPaused() */\n      tag_294\n        /* \"@openzeppelin/contracts-upgradeable/security/PausableUpgradeable.sol\":1482:1499  _requireNotPaused */\n      tag_295\n        /* \"@openzeppelin/contracts-upgradeable/security/PausableUpgradeable.sol\":1482:1501  _requireNotPaused() */\n      jump\t// in\n    tag_294:\n        /* \"@openzeppelin/contracts-upgradeable/security/PausableUpgradeable.sol\":2498:2502  true */\n      0x01\n        /* \"@openzeppelin/contracts-upgradeable/security/PausableUpgradeable.sol\":2488:2495  _paused */\n      0x97\n      0x00\n        /* \"@openzeppelin/contracts-upgradeable/security/PausableUpgradeable.sol\":2488:2502  _paused = true */\n      0x0100\n      exp\n      dup2\n      sload\n      dup2\n      0xff\n      mul\n      not\n      and\n      swap1\n      dup4\n      iszero\n      iszero\n      mul\n      or\n      swap1\n      sstore\n      pop\n        /* \"@openzeppelin/contracts-upgradeable/security/PausableUpgradeable.sol\":2517:2537  Paused(_msgSender()) */\n      0x62e78cea01bee320cd4e420270b5ea74000d11b0c9f74754ebdbfc544b05a258\n        /* \"@openzeppelin/contracts-upgradeable/security/PausableUpgradeable.sol\":2524:2536  _msgSender() */\n      tag_297\n        /* \"@openzeppelin/contracts-upgradeable/security/PausableUpgradeable.sol\":2524:2534  _msgSender */\n      tag_112\n        /* \"@openzeppelin/contracts-upgradeable/security/PausableUpgradeable.sol\":2524:2536  _msgSender() */\n      jump\t// in\n    tag_297:\n        /* \"@openzeppelin/contracts-upgradeable/security/PausableUpgradeable.sol\":2517:2537  Paused(_msgSender()) */\n      mload(0x40)\n      tag_298\n      swap2\n      swap1\n      tag_83\n      jump\t// in\n    tag_298:\n      mload(0x40)\n      dup1\n      swap2\n      sub\n      swap1\n      log1\n        /* \"@openzeppelin/contracts-upgradeable/security/PausableUpgradeable.sol\":2429:2544  function _pause() internal virtual whenNotPaused {... */\n      jump\t// out\n        /* \"contracts/MyToken.sol\":1115:1308  function _beforeTokenTransfer(address from, address to, uint256 amount)... */\n    tag_231:\n        /* \"@openzeppelin/contracts-upgradeable/security/PausableUpgradeable.sol\":1482:1501  _requireNotPaused() */\n      tag_300\n        /* \"@openzeppelin/contracts-upgradeable/security/PausableUpgradeable.sol\":1482:1499  _requireNotPaused */\n      tag_295\n        /* \"@openzeppelin/contracts-upgradeable/security/PausableUpgradeable.sol\":1482:1501  _requireNotPaused() */\n      jump\t// in\n    tag_300:\n        /* \"contracts/MyToken.sol\":1257:1301  super._beforeTokenTransfer(from, to, amount) */\n      tag_302\n        /* \"contracts/MyToken.sol\":1284:1288  from */\n      dup4\n        /* \"contracts/MyToken.sol\":1290:1292  to */\n      dup4\n        /* \"contracts/MyToken.sol\":1294:1300  amount */\n      dup4\n        /* \"contracts/MyToken.sol\":1257:1283  super._beforeTokenTransfer */\n      tag_303\n        /* \"contracts/MyToken.sol\":1257:1301  super._beforeTokenTransfer(from, to, amount) */\n      jump\t// in\n    tag_302:\n        /* \"contracts/MyToken.sol\":1115:1308  function _beforeTokenTransfer(address from, address to, uint256 amount)... */\n      pop\n      pop\n      pop\n      jump\t// out\n        /* \"@openzeppelin/contracts-upgradeable/token/ERC20/ERC20Upgradeable.sol\":13226:13346  function _afterTokenTransfer(... */\n    tag_237:\n      pop\n      pop\n      pop\n      jump\t// out\n        /* \"@openzeppelin/contracts-upgradeable/security/PausableUpgradeable.sol\":2188:2294  function _requirePaused() internal view virtual {... */\n    tag_246:\n        /* \"@openzeppelin/contracts-upgradeable/security/PausableUpgradeable.sol\":2254:2262  paused() */\n      tag_306\n        /* \"@openzeppelin/contracts-upgradeable/security/PausableUpgradeable.sol\":2254:2260  paused */\n      tag_64\n        /* \"@openzeppelin/contracts-upgradeable/security/PausableUpgradeable.sol\":2254:2262  paused() */\n      jump\t// in\n    tag_306:\n        /* \"@openzeppelin/contracts-upgradeable/security/PausableUpgradeable.sol\":2246:2287  require(paused(), \"Pausable: not paused\") */\n      tag_307\n      jumpi\n      mload(0x40)\n      0x08c379a000000000000000000000000000000000000000000000000000000000\n      dup2\n      mstore\n      0x04\n      add\n      tag_308\n      swap1\n      tag_309\n      jump\t// in\n    tag_308:\n      mload(0x40)\n      dup1\n      swap2\n      sub\n      swap1\n      revert\n    tag_307:\n        /* \"@openzeppelin/contracts-upgradeable/security/PausableUpgradeable.sol\":2188:2294  function _requirePaused() internal view virtual {... */\n      jump\t// out\n        /* \"@openzeppelin/contracts-upgradeable/token/ERC20/ERC20Upgradeable.sol\":2267:2426  function __ERC20_init_unchained(string memory name_, string memory symbol_) internal onlyInitializing {... */\n    tag_276:\n        /* \"@openzeppelin/contracts-upgradeable/proxy/utils/Initializable.sol\":5363:5376  _initializing */\n      0x00\n      0x01\n      swap1\n      sload\n      swap1\n      0x0100\n      exp\n      swap1\n      div\n      0xff\n      and\n        /* \"@openzeppelin/contracts-upgradeable/proxy/utils/Initializable.sol\":5355:5424  require(_initializing, \"Initializable: contract is not initializing\") */\n      tag_311\n      jumpi\n      mload(0x40)\n      0x08c379a000000000000000000000000000000000000000000000000000000000\n      dup2\n      mstore\n      0x04\n      add\n      tag_312\n      swap1\n      tag_273\n      jump\t// in\n    tag_312:\n      mload(0x40)\n      dup1\n      swap2\n      sub\n      swap1\n      revert\n    tag_311:\n        /* \"@openzeppelin/contracts-upgradeable/token/ERC20/ERC20Upgradeable.sol\":2387:2392  name_ */\n      dup2\n        /* \"@openzeppelin/contracts-upgradeable/token/ERC20/ERC20Upgradeable.sol\":2379:2384  _name */\n      0x36\n        /* \"@openzeppelin/contracts-upgradeable/token/ERC20/ERC20Upgradeable.sol\":2379:2392  _name = name_ */\n      swap1\n      dup2\n      tag_314\n      swap2\n      swap1\n      tag_315\n      jump\t// in\n    tag_314:\n      pop\n        /* \"@openzeppelin/contracts-upgradeable/token/ERC20/ERC20Upgradeable.sol\":2412:2419  symbol_ */\n      dup1\n        /* \"@openzeppelin/contracts-upgradeable/token/ERC20/ERC20Upgradeable.sol\":2402:2409  _symbol */\n      0x37\n        /* \"@openzeppelin/contracts-upgradeable/token/ERC20/ERC20Upgradeable.sol\":2402:2419  _symbol = symbol_ */\n      swap1\n      dup2\n      tag_316\n      swap2\n      swap1\n      tag_315\n      jump\t// in\n    tag_316:\n      pop\n        /* \"@openzeppelin/contracts-upgradeable/token/ERC20/ERC20Upgradeable.sol\":2267:2426  function __ERC20_init_unchained(string memory name_, string memory symbol_) internal onlyInitializing {... */\n      pop\n      pop\n      jump\t// out\n        /* \"@openzeppelin/contracts-upgradeable/security/PausableUpgradeable.sol\":1166:1261  function __Pausable_init_unchained() internal onlyInitializing {... */\n    tag_286:\n        /* \"@openzeppelin/contracts-upgradeable/proxy/utils/Initializable.sol\":5363:5376  _initializing */\n      0x00\n      0x01\n      swap1\n      sload\n      swap1\n      0x0100\n      exp\n      swap1\n      div\n      0xff\n      and\n        /* \"@openzeppelin/contracts-upgradeable/proxy/utils/Initializable.sol\":5355:5424  require(_initializing, \"Initializable: contract is not initializing\") */\n      tag_318\n      jumpi\n      mload(0x40)\n      0x08c379a000000000000000000000000000000000000000000000000000000000\n      dup2\n      mstore\n      0x04\n      add\n      tag_319\n      swap1\n      tag_273\n      jump\t// in\n    tag_319:\n      mload(0x40)\n      dup1\n      swap2\n      sub\n      swap1\n      revert\n    tag_318:\n        /* \"@openzeppelin/contracts-upgradeable/security/PausableUpgradeable.sol\":1249:1254  false */\n      0x00\n        /* \"@openzeppelin/contracts-upgradeable/security/PausableUpgradeable.sol\":1239:1246  _paused */\n      0x97\n      0x00\n        /* \"@openzeppelin/contracts-upgradeable/security/PausableUpgradeable.sol\":1239:1254  _paused = false */\n      0x0100\n      exp\n      dup2\n      sload\n      dup2\n      0xff\n      mul\n      not\n      and\n      swap1\n      dup4\n      iszero\n      iszero\n      mul\n      or\n      swap1\n      sstore\n      pop\n        /* \"@openzeppelin/contracts-upgradeable/security/PausableUpgradeable.sol\":1166:1261  function __Pausable_init_unchained() internal onlyInitializing {... */\n      jump\t// out\n        /* \"@openzeppelin/contracts-upgradeable/access/OwnableUpgradeable.sol\":1104:1215  function __Ownable_init_unchained() internal onlyInitializing {... */\n    tag_292:\n        /* \"@openzeppelin/contracts-upgradeable/proxy/utils/Initializable.sol\":5363:5376  _initializing */\n      0x00\n      0x01\n      swap1\n      sload\n      swap1\n      0x0100\n      exp\n      swap1\n      div\n      0xff\n      and\n        /* \"@openzeppelin/contracts-upgradeable/proxy/utils/Initializable.sol\":5355:5424  require(_initializing, \"Initializable: contract is not initializing\") */\n      tag_322\n      jumpi\n      mload(0x40)\n      0x08c379a000000000000000000000000000000000000000000000000000000000\n      dup2\n      mstore\n      0x04\n      add\n      tag_323\n      swap1\n      tag_273\n      jump\t// in\n    tag_323:\n      mload(0x40)\n      dup1\n      swap2\n      sub\n      swap1\n      revert\n    tag_322:\n        /* \"@openzeppelin/contracts-upgradeable/access/OwnableUpgradeable.sol\":1176:1208  _transferOwnership(_msgSender()) */\n      tag_325\n        /* \"@openzeppelin/contracts-upgradeable/access/OwnableUpgradeable.sol\":1195:1207  _msgSender() */\n      tag_326\n        /* \"@openzeppelin/contracts-upgradeable/access/OwnableUpgradeable.sol\":1195:1205  _msgSender */\n      tag_112\n        /* \"@openzeppelin/contracts-upgradeable/access/OwnableUpgradeable.sol\":1195:1207  _msgSender() */\n      jump\t// in\n    tag_326:\n        /* \"@openzeppelin/contracts-upgradeable/access/OwnableUpgradeable.sol\":1176:1194  _transferOwnership */\n      tag_150\n        /* \"@openzeppelin/contracts-upgradeable/access/OwnableUpgradeable.sol\":1176:1208  _transferOwnership(_msgSender()) */\n      jump\t// in\n    tag_325:\n        /* \"@openzeppelin/contracts-upgradeable/access/OwnableUpgradeable.sol\":1104:1215  function __Ownable_init_unchained() internal onlyInitializing {... */\n      jump\t// out\n        /* \"@openzeppelin/contracts-upgradeable/security/PausableUpgradeable.sol\":2010:2116  function _requireNotPaused() internal view virtual {... */\n    tag_295:\n        /* \"@openzeppelin/contracts-upgradeable/security/PausableUpgradeable.sol\":2080:2088  paused() */\n      tag_328\n        /* \"@openzeppelin/contracts-upgradeable/security/PausableUpgradeable.sol\":2080:2086  paused */\n      tag_64\n        /* \"@openzeppelin/contracts-upgradeable/security/PausableUpgradeable.sol\":2080:2088  paused() */\n      jump\t// in\n    tag_328:\n        /* \"@openzeppelin/contracts-upgradeable/security/PausableUpgradeable.sol\":2079:2088  !paused() */\n      iszero\n        /* \"@openzeppelin/contracts-upgradeable/security/PausableUpgradeable.sol\":2071:2109  require(!paused(), \"Pausable: paused\") */\n      tag_329\n      jumpi\n      mload(0x40)\n      0x08c379a000000000000000000000000000000000000000000000000000000000\n      dup2\n      mstore\n      0x04\n      add\n      tag_330\n      swap1\n      tag_331\n      jump\t// in\n    tag_330:\n      mload(0x40)\n      dup1\n      swap2\n      sub\n      swap1\n      revert\n    tag_329:\n        /* \"@openzeppelin/contracts-upgradeable/security/PausableUpgradeable.sol\":2010:2116  function _requireNotPaused() internal view virtual {... */\n      jump\t// out\n        /* \"@openzeppelin/contracts-upgradeable/token/ERC20/ERC20Upgradeable.sol\":12517:12638  function _beforeTokenTransfer(... */\n    tag_303:\n      pop\n      pop\n      pop\n      jump\t// out\n        /* \"#utility.yul\":7:106   */\n    tag_333:\n        /* \"#utility.yul\":59:65   */\n      0x00\n        /* \"#utility.yul\":93:98   */\n      dup2\n        /* \"#utility.yul\":87:99   */\n      mload\n        /* \"#utility.yul\":77:99   */\n      swap1\n      pop\n        /* \"#utility.yul\":7:106   */\n      swap2\n      swap1\n      pop\n      jump\t// out\n        /* \"#utility.yul\":112:281   */\n    tag_334:\n        /* \"#utility.yul\":196:207   */\n      0x00\n        /* \"#utility.yul\":230:236   */\n      dup3\n        /* \"#utility.yul\":225:228   */\n      dup3\n        /* \"#utility.yul\":218:237   */\n      mstore\n        /* \"#utility.yul\":270:274   */\n      0x20\n        /* \"#utility.yul\":265:268   */\n      dup3\n        /* \"#utility.yul\":261:275   */\n      add\n        /* \"#utility.yul\":246:275   */\n      swap1\n      pop\n        /* \"#utility.yul\":112:281   */\n      swap3\n      swap2\n      pop\n      pop\n      jump\t// out\n        /* \"#utility.yul\":287:533   */\n    tag_335:\n        /* \"#utility.yul\":368:369   */\n      0x00\n        /* \"#utility.yul\":378:491   */\n    tag_411:\n        /* \"#utility.yul\":392:398   */\n      dup4\n        /* \"#utility.yul\":389:390   */\n      dup2\n        /* \"#utility.yul\":386:399   */\n      lt\n        /* \"#utility.yul\":378:491   */\n      iszero\n      tag_413\n      jumpi\n        /* \"#utility.yul\":477:478   */\n      dup1\n        /* \"#utility.yul\":472:475   */\n      dup3\n        /* \"#utility.yul\":468:479   */\n      add\n        /* \"#utility.yul\":462:480   */\n      mload\n        /* \"#utility.yul\":458:459   */\n      dup2\n        /* \"#utility.yul\":453:456   */\n      dup5\n        /* \"#utility.yul\":449:460   */\n      add\n        /* \"#utility.yul\":442:481   */\n      mstore\n        /* \"#utility.yul\":414:416   */\n      0x20\n        /* \"#utility.yul\":411:412   */\n      dup2\n        /* \"#utility.yul\":407:417   */\n      add\n        /* \"#utility.yul\":402:417   */\n      swap1\n      pop\n        /* \"#utility.yul\":378:491   */\n      jump(tag_411)\n    tag_413:\n        /* \"#utility.yul\":525:526   */\n      0x00\n        /* \"#utility.yul\":516:522   */\n      dup5\n        /* \"#utility.yul\":511:514   */\n      dup5\n        /* \"#utility.yul\":507:523   */\n      add\n        /* \"#utility.yul\":500:527   */\n      mstore\n        /* \"#utility.yul\":349:533   */\n      pop\n        /* \"#utility.yul\":287:533   */\n      pop\n      pop\n      pop\n      jump\t// out\n        /* \"#utility.yul\":539:641   */\n    tag_336:\n        /* \"#utility.yul\":580:586   */\n      0x00\n        /* \"#utility.yul\":631:633   */\n      0x1f\n        /* \"#utility.yul\":627:634   */\n      not\n        /* \"#utility.yul\":622:624   */\n      0x1f\n        /* \"#utility.yul\":615:620   */\n      dup4\n        /* \"#utility.yul\":611:625   */\n      add\n        /* \"#utility.yul\":607:635   */\n      and\n        /* \"#utility.yul\":597:635   */\n      swap1\n      pop\n        /* \"#utility.yul\":539:641   */\n      swap2\n      swap1\n      pop\n      jump\t// out\n        /* \"#utility.yul\":647:1024   */\n    tag_337:\n        /* \"#utility.yul\":735:738   */\n      0x00\n        /* \"#utility.yul\":763:802   */\n      tag_416\n        /* \"#utility.yul\":796:801   */\n      dup3\n        /* \"#utility.yul\":763:802   */\n      tag_333\n      jump\t// in\n    tag_416:\n        /* \"#utility.yul\":818:889   */\n      tag_417\n        /* \"#utility.yul\":882:888   */\n      dup2\n        /* \"#utility.yul\":877:880   */\n      dup6\n        /* \"#utility.yul\":818:889   */\n      tag_334\n      jump\t// in\n    tag_417:\n        /* \"#utility.yul\":811:889   */\n      swap4\n      pop\n        /* \"#utility.yul\":898:963   */\n      tag_418\n        /* \"#utility.yul\":956:962   */\n      dup2\n        /* \"#utility.yul\":951:954   */\n      dup6\n        /* \"#utility.yul\":944:948   */\n      0x20\n        /* \"#utility.yul\":937:942   */\n      dup7\n        /* \"#utility.yul\":933:949   */\n      add\n        /* \"#utility.yul\":898:963   */\n      tag_335\n      jump\t// in\n    tag_418:\n        /* \"#utility.yul\":988:1017   */\n      tag_419\n        /* \"#utility.yul\":1010:1016   */\n      dup2\n        /* \"#utility.yul\":988:1017   */\n      tag_336\n      jump\t// in\n    tag_419:\n        /* \"#utility.yul\":983:986   */\n      dup5\n        /* \"#utility.yul\":979:1018   */\n      add\n        /* \"#utility.yul\":972:1018   */\n      swap2\n      pop\n        /* \"#utility.yul\":739:1024   */\n      pop\n        /* \"#utility.yul\":647:1024   */\n      swap3\n      swap2\n      pop\n      pop\n      jump\t// out\n        /* \"#utility.yul\":1030:1343   */\n    tag_30:\n        /* \"#utility.yul\":1143:1147   */\n      0x00\n        /* \"#utility.yul\":1181:1183   */\n      0x20\n        /* \"#utility.yul\":1170:1179   */\n      dup3\n        /* \"#utility.yul\":1166:1184   */\n      add\n        /* \"#utility.yul\":1158:1184   */\n      swap1\n      pop\n        /* \"#utility.yul\":1230:1239   */\n      dup2\n        /* \"#utility.yul\":1224:1228   */\n      dup2\n        /* \"#utility.yul\":1220:1240   */\n      sub\n        /* \"#utility.yul\":1216:1217   */\n      0x00\n        /* \"#utility.yul\":1205:1214   */\n      dup4\n        /* \"#utility.yul\":1201:1218   */\n      add\n        /* \"#utility.yul\":1194:1241   */\n      mstore\n        /* \"#utility.yul\":1258:1336   */\n      tag_421\n        /* \"#utility.yul\":1331:1335   */\n      dup2\n        /* \"#utility.yul\":1322:1328   */\n      dup5\n        /* \"#utility.yul\":1258:1336   */\n      tag_337\n      jump\t// in\n    tag_421:\n        /* \"#utility.yul\":1250:1336   */\n      swap1\n      pop\n        /* \"#utility.yul\":1030:1343   */\n      swap3\n      swap2\n      pop\n      pop\n      jump\t// out\n        /* \"#utility.yul\":1430:1547   */\n    tag_339:\n        /* \"#utility.yul\":1539:1540   */\n      0x00\n        /* \"#utility.yul\":1536:1537   */\n      dup1\n        /* \"#utility.yul\":1529:1541   */\n      revert\n        /* \"#utility.yul\":1676:1802   */\n    tag_341:\n        /* \"#utility.yul\":1713:1720   */\n      0x00\n        /* \"#utility.yul\":1753:1795   */\n      0xffffffffffffffffffffffffffffffffffffffff\n        /* \"#utility.yul\":1746:1751   */\n      dup3\n        /* \"#utility.yul\":1742:1796   */\n      and\n        /* \"#utility.yul\":1731:1796   */\n      swap1\n      pop\n        /* \"#utility.yul\":1676:1802   */\n      swap2\n      swap1\n      pop\n      jump\t// out\n        /* \"#utility.yul\":1808:1904   */\n    tag_342:\n        /* \"#utility.yul\":1845:1852   */\n      0x00\n        /* \"#utility.yul\":1874:1898   */\n      tag_427\n        /* \"#utility.yul\":1892:1897   */\n      dup3\n        /* \"#utility.yul\":1874:1898   */\n      tag_341\n      jump\t// in\n    tag_427:\n        /* \"#utility.yul\":1863:1898   */\n      swap1\n      pop\n        /* \"#utility.yul\":1808:1904   */\n      swap2\n      swap1\n      pop\n      jump\t// out\n        /* \"#utility.yul\":1910:2032   */\n    tag_343:\n        /* \"#utility.yul\":1983:2007   */\n      tag_429\n        /* \"#utility.yul\":2001:2006   */\n      dup2\n        /* \"#utility.yul\":1983:2007   */\n      tag_342\n      jump\t// in\n    tag_429:\n        /* \"#utility.yul\":1976:1981   */\n      dup2\n        /* \"#utility.yul\":1973:2008   */\n      eq\n        /* \"#utility.yul\":1963:2026   */\n      tag_430\n      jumpi\n        /* \"#utility.yul\":2022:2023   */\n      0x00\n        /* \"#utility.yul\":2019:2020   */\n      dup1\n        /* \"#utility.yul\":2012:2024   */\n      revert\n        /* \"#utility.yul\":1963:2026   */\n    tag_430:\n        /* \"#utility.yul\":1910:2032   */\n      pop\n      jump\t// out\n        /* \"#utility.yul\":2038:2177   */\n    tag_344:\n        /* \"#utility.yul\":2084:2089   */\n      0x00\n        /* \"#utility.yul\":2122:2128   */\n      dup2\n        /* \"#utility.yul\":2109:2129   */\n      calldataload\n        /* \"#utility.yul\":2100:2129   */\n      swap1\n      pop\n        /* \"#utility.yul\":2138:2171   */\n      tag_432\n        /* \"#utility.yul\":2165:2170   */\n      dup2\n        /* \"#utility.yul\":2138:2171   */\n      tag_343\n      jump\t// in\n    tag_432:\n        /* \"#utility.yul\":2038:2177   */\n      swap3\n      swap2\n      pop\n      pop\n      jump\t// out\n        /* \"#utility.yul\":2183:2260   */\n    tag_345:\n        /* \"#utility.yul\":2220:2227   */\n      0x00\n        /* \"#utility.yul\":2249:2254   */\n      dup2\n        /* \"#utility.yul\":2238:2254   */\n      swap1\n      pop\n        /* \"#utility.yul\":2183:2260   */\n      swap2\n      swap1\n      pop\n      jump\t// out\n        /* \"#utility.yul\":2266:2388   */\n    tag_346:\n        /* \"#utility.yul\":2339:2363   */\n      tag_435\n        /* \"#utility.yul\":2357:2362   */\n      dup2\n        /* \"#utility.yul\":2339:2363   */\n      tag_345\n      jump\t// in\n    tag_435:\n        /* \"#utility.yul\":2332:2337   */\n      dup2\n        /* \"#utility.yul\":2329:2364   */\n      eq\n        /* \"#utility.yul\":2319:2382   */\n      tag_436\n      jumpi\n        /* \"#utility.yul\":2378:2379   */\n      0x00\n        /* \"#utility.yul\":2375:2376   */\n      dup1\n        /* \"#utility.yul\":2368:2380   */\n      revert\n        /* \"#utility.yul\":2319:2382   */\n    tag_436:\n        /* \"#utility.yul\":2266:2388   */\n      pop\n      jump\t// out\n        /* \"#utility.yul\":2394:2533   */\n    tag_347:\n        /* \"#utility.yul\":2440:2445   */\n      0x00\n        /* \"#utility.yul\":2478:2484   */\n      dup2\n        /* \"#utility.yul\":2465:2485   */\n      calldataload\n        /* \"#utility.yul\":2456:2485   */\n      swap1\n      pop\n        /* \"#utility.yul\":2494:2527   */\n      tag_438\n        /* \"#utility.yul\":2521:2526   */\n      dup2\n        /* \"#utility.yul\":2494:2527   */\n      tag_346\n      jump\t// in\n    tag_438:\n        /* \"#utility.yul\":2394:2533   */\n      swap3\n      swap2\n      pop\n      pop\n      jump\t// out\n        /* \"#utility.yul\":2539:3013   */\n    tag_33:\n        /* \"#utility.yul\":2607:2613   */\n      0x00\n        /* \"#utility.yul\":2615:2621   */\n      dup1\n        /* \"#utility.yul\":2664:2666   */\n      0x40\n        /* \"#utility.yul\":2652:2661   */\n      dup4\n        /* \"#utility.yul\":2643:2650   */\n      dup6\n        /* \"#utility.yul\":2639:2662   */\n      sub\n        /* \"#utility.yul\":2635:2667   */\n      slt\n        /* \"#utility.yul\":2632:2751   */\n      iszero\n      tag_440\n      jumpi\n        /* \"#utility.yul\":2670:2749   */\n      tag_441\n      tag_339\n      jump\t// in\n    tag_441:\n        /* \"#utility.yul\":2632:2751   */\n    tag_440:\n        /* \"#utility.yul\":2790:2791   */\n      0x00\n        /* \"#utility.yul\":2815:2868   */\n      tag_442\n        /* \"#utility.yul\":2860:2867   */\n      dup6\n        /* \"#utility.yul\":2851:2857   */\n      dup3\n        /* \"#utility.yul\":2840:2849   */\n      dup7\n        /* \"#utility.yul\":2836:2858   */\n      add\n        /* \"#utility.yul\":2815:2868   */\n      tag_344\n      jump\t// in\n    tag_442:\n        /* \"#utility.yul\":2805:2868   */\n      swap3\n      pop\n        /* \"#utility.yul\":2761:2878   */\n      pop\n        /* \"#utility.yul\":2917:2919   */\n      0x20\n        /* \"#utility.yul\":2943:2996   */\n      tag_443\n        /* \"#utility.yul\":2988:2995   */\n      dup6\n        /* \"#utility.yul\":2979:2985   */\n      dup3\n        /* \"#utility.yul\":2968:2977   */\n      dup7\n        /* \"#utility.yul\":2964:2986   */\n      add\n        /* \"#utility.yul\":2943:2996   */\n      tag_347\n      jump\t// in\n    tag_443:\n        /* \"#utility.yul\":2933:2996   */\n      swap2\n      pop\n        /* \"#utility.yul\":2888:3006   */\n      pop\n        /* \"#utility.yul\":2539:3013   */\n      swap3\n      pop\n      swap3\n      swap1\n      pop\n      jump\t// out\n        /* \"#utility.yul\":3019:3109   */\n    tag_348:\n        /* \"#utility.yul\":3053:3060   */\n      0x00\n        /* \"#utility.yul\":3096:3101   */\n      dup2\n        /* \"#utility.yul\":3089:3102   */\n      iszero\n        /* \"#utility.yul\":3082:3103   */\n      iszero\n        /* \"#utility.yul\":3071:3103   */\n      swap1\n      pop\n        /* \"#utility.yul\":3019:3109   */\n      swap2\n      swap1\n      pop\n      jump\t// out\n        /* \"#utility.yul\":3115:3224   */\n    tag_349:\n        /* \"#utility.yul\":3196:3217   */\n      tag_446\n        /* \"#utility.yul\":3211:3216   */\n      dup2\n        /* \"#utility.yul\":3196:3217   */\n      tag_348\n      jump\t// in\n    tag_446:\n        /* \"#utility.yul\":3191:3194   */\n      dup3\n        /* \"#utility.yul\":3184:3218   */\n      mstore\n        /* \"#utility.yul\":3115:3224   */\n      pop\n      pop\n      jump\t// out\n        /* \"#utility.yul\":3230:3440   */\n    tag_36:\n        /* \"#utility.yul\":3317:3321   */\n      0x00\n        /* \"#utility.yul\":3355:3357   */\n      0x20\n        /* \"#utility.yul\":3344:3353   */\n      dup3\n        /* \"#utility.yul\":3340:3358   */\n      add\n        /* \"#utility.yul\":3332:3358   */\n      swap1\n      pop\n        /* \"#utility.yul\":3368:3433   */\n      tag_448\n        /* \"#utility.yul\":3430:3431   */\n      0x00\n        /* \"#utility.yul\":3419:3428   */\n      dup4\n        /* \"#utility.yul\":3415:3432   */\n      add\n        /* \"#utility.yul\":3406:3412   */\n      dup5\n        /* \"#utility.yul\":3368:3433   */\n      tag_349\n      jump\t// in\n    tag_448:\n        /* \"#utility.yul\":3230:3440   */\n      swap3\n      swap2\n      pop\n      pop\n      jump\t// out\n        /* \"#utility.yul\":3446:3564   */\n    tag_350:\n        /* \"#utility.yul\":3533:3557   */\n      tag_450\n        /* \"#utility.yul\":3551:3556   */\n      dup2\n        /* \"#utility.yul\":3533:3557   */\n      tag_345\n      jump\t// in\n    tag_450:\n        /* \"#utility.yul\":3528:3531   */\n      dup3\n        /* \"#utility.yul\":3521:3558   */\n      mstore\n        /* \"#utility.yul\":3446:3564   */\n      pop\n      pop\n      jump\t// out\n        /* \"#utility.yul\":3570:3792   */\n    tag_40:\n        /* \"#utility.yul\":3663:3667   */\n      0x00\n        /* \"#utility.yul\":3701:3703   */\n      0x20\n        /* \"#utility.yul\":3690:3699   */\n      dup3\n        /* \"#utility.yul\":3686:3704   */\n      add\n        /* \"#utility.yul\":3678:3704   */\n      swap1\n      pop\n        /* \"#utility.yul\":3714:3785   */\n      tag_452\n        /* \"#utility.yul\":3782:3783   */\n      0x00\n        /* \"#utility.yul\":3771:3780   */\n      dup4\n        /* \"#utility.yul\":3767:3784   */\n      add\n        /* \"#utility.yul\":3758:3764   */\n      dup5\n        /* \"#utility.yul\":3714:3785   */\n      tag_350\n      jump\t// in\n    tag_452:\n        /* \"#utility.yul\":3570:3792   */\n      swap3\n      swap2\n      pop\n      pop\n      jump\t// out\n        /* \"#utility.yul\":3798:4417   */\n    tag_43:\n        /* \"#utility.yul\":3875:3881   */\n      0x00\n        /* \"#utility.yul\":3883:3889   */\n      dup1\n        /* \"#utility.yul\":3891:3897   */\n      0x00\n        /* \"#utility.yul\":3940:3942   */\n      0x60\n        /* \"#utility.yul\":3928:3937   */\n      dup5\n        /* \"#utility.yul\":3919:3926   */\n      dup7\n        /* \"#utility.yul\":3915:3938   */\n      sub\n        /* \"#utility.yul\":3911:3943   */\n      slt\n        /* \"#utility.yul\":3908:4027   */\n      iszero\n      tag_454\n      jumpi\n        /* \"#utility.yul\":3946:4025   */\n      tag_455\n      tag_339\n      jump\t// in\n    tag_455:\n        /* \"#utility.yul\":3908:4027   */\n    tag_454:\n        /* \"#utility.yul\":4066:4067   */\n      0x00\n        /* \"#utility.yul\":4091:4144   */\n      tag_456\n        /* \"#utility.yul\":4136:4143   */\n      dup7\n        /* \"#utility.yul\":4127:4133   */\n      dup3\n        /* \"#utility.yul\":4116:4125   */\n      dup8\n        /* \"#utility.yul\":4112:4134   */\n      add\n        /* \"#utility.yul\":4091:4144   */\n      tag_344\n      jump\t// in\n    tag_456:\n        /* \"#utility.yul\":4081:4144   */\n      swap4\n      pop\n        /* \"#utility.yul\":4037:4154   */\n      pop\n        /* \"#utility.yul\":4193:4195   */\n      0x20\n        /* \"#utility.yul\":4219:4272   */\n      tag_457\n        /* \"#utility.yul\":4264:4271   */\n      dup7\n        /* \"#utility.yul\":4255:4261   */\n      dup3\n        /* \"#utility.yul\":4244:4253   */\n      dup8\n        /* \"#utility.yul\":4240:4262   */\n      add\n        /* \"#utility.yul\":4219:4272   */\n      tag_344\n      jump\t// in\n    tag_457:\n        /* \"#utility.yul\":4209:4272   */\n      swap3\n      pop\n        /* \"#utility.yul\":4164:4282   */\n      pop\n        /* \"#utility.yul\":4321:4323   */\n      0x40\n        /* \"#utility.yul\":4347:4400   */\n      tag_458\n        /* \"#utility.yul\":4392:4399   */\n      dup7\n        /* \"#utility.yul\":4383:4389   */\n      dup3\n        /* \"#utility.yul\":4372:4381   */\n      dup8\n        /* \"#utility.yul\":4368:4390   */\n      add\n        /* \"#utility.yul\":4347:4400   */\n      tag_347\n      jump\t// in\n    tag_458:\n        /* \"#utility.yul\":4337:4400   */\n      swap2\n      pop\n        /* \"#utility.yul\":4292:4410   */\n      pop\n        /* \"#utility.yul\":3798:4417   */\n      swap3\n      pop\n      swap3\n      pop\n      swap3\n      jump\t// out\n        /* \"#utility.yul\":4423:4509   */\n    tag_351:\n        /* \"#utility.yul\":4458:4465   */\n      0x00\n        /* \"#utility.yul\":4498:4502   */\n      0xff\n        /* \"#utility.yul\":4491:4496   */\n      dup3\n        /* \"#utility.yul\":4487:4503   */\n      and\n        /* \"#utility.yul\":4476:4503   */\n      swap1\n      pop\n        /* \"#utility.yul\":4423:4509   */\n      swap2\n      swap1\n      pop\n      jump\t// out\n        /* \"#utility.yul\":4515:4627   */\n    tag_352:\n        /* \"#utility.yul\":4598:4620   */\n      tag_461\n        /* \"#utility.yul\":4614:4619   */\n      dup2\n        /* \"#utility.yul\":4598:4620   */\n      tag_351\n      jump\t// in\n    tag_461:\n        /* \"#utility.yul\":4593:4596   */\n      dup3\n        /* \"#utility.yul\":4586:4621   */\n      mstore\n        /* \"#utility.yul\":4515:4627   */\n      pop\n      pop\n      jump\t// out\n        /* \"#utility.yul\":4633:4847   */\n    tag_49:\n        /* \"#utility.yul\":4722:4726   */\n      0x00\n        /* \"#utility.yul\":4760:4762   */\n      0x20\n        /* \"#utility.yul\":4749:4758   */\n      dup3\n        /* \"#utility.yul\":4745:4763   */\n      add\n        /* \"#utility.yul\":4737:4763   */\n      swap1\n      pop\n        /* \"#utility.yul\":4773:4840   */\n      tag_463\n        /* \"#utility.yul\":4837:4838   */\n      0x00\n        /* \"#utility.yul\":4826:4835   */\n      dup4\n        /* \"#utility.yul\":4822:4839   */\n      add\n        /* \"#utility.yul\":4813:4819   */\n      dup5\n        /* \"#utility.yul\":4773:4840   */\n      tag_352\n      jump\t// in\n    tag_463:\n        /* \"#utility.yul\":4633:4847   */\n      swap3\n      swap2\n      pop\n      pop\n      jump\t// out\n        /* \"#utility.yul\":4853:5182   */\n    tag_61:\n        /* \"#utility.yul\":4912:4918   */\n      0x00\n        /* \"#utility.yul\":4961:4963   */\n      0x20\n        /* \"#utility.yul\":4949:4958   */\n      dup3\n        /* \"#utility.yul\":4940:4947   */\n      dup5\n        /* \"#utility.yul\":4936:4959   */\n      sub\n        /* \"#utility.yul\":4932:4964   */\n      slt\n        /* \"#utility.yul\":4929:5048   */\n      iszero\n      tag_465\n      jumpi\n        /* \"#utility.yul\":4967:5046   */\n      tag_466\n      tag_339\n      jump\t// in\n    tag_466:\n        /* \"#utility.yul\":4929:5048   */\n    tag_465:\n        /* \"#utility.yul\":5087:5088   */\n      0x00\n        /* \"#utility.yul\":5112:5165   */\n      tag_467\n        /* \"#utility.yul\":5157:5164   */\n      dup5\n        /* \"#utility.yul\":5148:5154   */\n      dup3\n        /* \"#utility.yul\":5137:5146   */\n      dup6\n        /* \"#utility.yul\":5133:5155   */\n      add\n        /* \"#utility.yul\":5112:5165   */\n      tag_347\n      jump\t// in\n    tag_467:\n        /* \"#utility.yul\":5102:5165   */\n      swap2\n      pop\n        /* \"#utility.yul\":5058:5175   */\n      pop\n        /* \"#utility.yul\":4853:5182   */\n      swap3\n      swap2\n      pop\n      pop\n      jump\t// out\n        /* \"#utility.yul\":5188:5517   */\n    tag_68:\n        /* \"#utility.yul\":5247:5253   */\n      0x00\n        /* \"#utility.yul\":5296:5298   */\n      0x20\n        /* \"#utility.yul\":5284:5293   */\n      dup3\n        /* \"#utility.yul\":5275:5282   */\n      dup5\n        /* \"#utility.yul\":5271:5294   */\n      sub\n        /* \"#utility.yul\":5267:5299   */\n      slt\n        /* \"#utility.yul\":5264:5383   */\n      iszero\n      tag_469\n      jumpi\n        /* \"#utility.yul\":5302:5381   */\n      tag_470\n      tag_339\n      jump\t// in\n    tag_470:\n        /* \"#utility.yul\":5264:5383   */\n    tag_469:\n        /* \"#utility.yul\":5422:5423   */\n      0x00\n        /* \"#utility.yul\":5447:5500   */\n      tag_471\n        /* \"#utility.yul\":5492:5499   */\n      dup5\n        /* \"#utility.yul\":5483:5489   */\n      dup3\n        /* \"#utility.yul\":5472:5481   */\n      dup6\n        /* \"#utility.yul\":5468:5490   */\n      add\n        /* \"#utility.yul\":5447:5500   */\n      tag_344\n      jump\t// in\n    tag_471:\n        /* \"#utility.yul\":5437:5500   */\n      swap2\n      pop\n        /* \"#utility.yul\":5393:5510   */\n      pop\n        /* \"#utility.yul\":5188:5517   */\n      swap3\n      swap2\n      pop\n      pop\n      jump\t// out\n        /* \"#utility.yul\":5523:5641   */\n    tag_353:\n        /* \"#utility.yul\":5610:5634   */\n      tag_473\n        /* \"#utility.yul\":5628:5633   */\n      dup2\n        /* \"#utility.yul\":5610:5634   */\n      tag_342\n      jump\t// in\n    tag_473:\n        /* \"#utility.yul\":5605:5608   */\n      dup3\n        /* \"#utility.yul\":5598:5635   */\n      mstore\n        /* \"#utility.yul\":5523:5641   */\n      pop\n      pop\n      jump\t// out\n        /* \"#utility.yul\":5647:5869   */\n    tag_83:\n        /* \"#utility.yul\":5740:5744   */\n      0x00\n        /* \"#utility.yul\":5778:5780   */\n      0x20\n        /* \"#utility.yul\":5767:5776   */\n      dup3\n        /* \"#utility.yul\":5763:5781   */\n      add\n        /* \"#utility.yul\":5755:5781   */\n      swap1\n      pop\n        /* \"#utility.yul\":5791:5862   */\n      tag_475\n        /* \"#utility.yul\":5859:5860   */\n      0x00\n        /* \"#utility.yul\":5848:5857   */\n      dup4\n        /* \"#utility.yul\":5844:5861   */\n      add\n        /* \"#utility.yul\":5835:5841   */\n      dup5\n        /* \"#utility.yul\":5791:5862   */\n      tag_353\n      jump\t// in\n    tag_475:\n        /* \"#utility.yul\":5647:5869   */\n      swap3\n      swap2\n      pop\n      pop\n      jump\t// out\n        /* \"#utility.yul\":5875:6349   */\n    tag_97:\n        /* \"#utility.yul\":5943:5949   */\n      0x00\n        /* \"#utility.yul\":5951:5957   */\n      dup1\n        /* \"#utility.yul\":6000:6002   */\n      0x40\n        /* \"#utility.yul\":5988:5997   */\n      dup4\n        /* \"#utility.yul\":5979:5986   */\n      dup6\n        /* \"#utility.yul\":5975:5998   */\n      sub\n        /* \"#utility.yul\":5971:6003   */\n      slt\n        /* \"#utility.yul\":5968:6087   */\n      iszero\n      tag_477\n      jumpi\n        /* \"#utility.yul\":6006:6085   */\n      tag_478\n      tag_339\n      jump\t// in\n    tag_478:\n        /* \"#utility.yul\":5968:6087   */\n    tag_477:\n        /* \"#utility.yul\":6126:6127   */\n      0x00\n        /* \"#utility.yul\":6151:6204   */\n      tag_479\n        /* \"#utility.yul\":6196:6203   */\n      dup6\n        /* \"#utility.yul\":6187:6193   */\n      dup3\n        /* \"#utility.yul\":6176:6185   */\n      dup7\n        /* \"#utility.yul\":6172:6194   */\n      add\n        /* \"#utility.yul\":6151:6204   */\n      tag_344\n      jump\t// in\n    tag_479:\n        /* \"#utility.yul\":6141:6204   */\n      swap3\n      pop\n        /* \"#utility.yul\":6097:6214   */\n      pop\n        /* \"#utility.yul\":6253:6255   */\n      0x20\n        /* \"#utility.yul\":6279:6332   */\n      tag_480\n        /* \"#utility.yul\":6324:6331   */\n      dup6\n        /* \"#utility.yul\":6315:6321   */\n      dup3\n        /* \"#utility.yul\":6304:6313   */\n      dup7\n        /* \"#utility.yul\":6300:6322   */\n      add\n        /* \"#utility.yul\":6279:6332   */\n      tag_344\n      jump\t// in\n    tag_480:\n        /* \"#utility.yul\":6269:6332   */\n      swap2\n      pop\n        /* \"#utility.yul\":6224:6342   */\n      pop\n        /* \"#utility.yul\":5875:6349   */\n      swap3\n      pop\n      swap3\n      swap1\n      pop\n      jump\t// out\n        /* \"#utility.yul\":6355:6535   */\n    tag_354:\n        /* \"#utility.yul\":6403:6480   */\n      0x4e487b7100000000000000000000000000000000000000000000000000000000\n        /* \"#utility.yul\":6400:6401   */\n      0x00\n        /* \"#utility.yul\":6393:6481   */\n      mstore\n        /* \"#utility.yul\":6500:6504   */\n      0x22\n        /* \"#utility.yul\":6497:6498   */\n      0x04\n        /* \"#utility.yul\":6490:6505   */\n      mstore\n        /* \"#utility.yul\":6524:6528   */\n      0x24\n        /* \"#utility.yul\":6521:6522   */\n      0x00\n        /* \"#utility.yul\":6514:6529   */\n      revert\n        /* \"#utility.yul\":6541:6861   */\n    tag_105:\n        /* \"#utility.yul\":6585:6591   */\n      0x00\n        /* \"#utility.yul\":6622:6623   */\n      0x02\n        /* \"#utility.yul\":6616:6620   */\n      dup3\n        /* \"#utility.yul\":6612:6624   */\n      div\n        /* \"#utility.yul\":6602:6624   */\n      swap1\n      pop\n        /* \"#utility.yul\":6669:6670   */\n      0x01\n        /* \"#utility.yul\":6663:6667   */\n      dup3\n        /* \"#utility.yul\":6659:6671   */\n      and\n        /* \"#utility.yul\":6690:6708   */\n      dup1\n        /* \"#utility.yul\":6680:6761   */\n      tag_483\n      jumpi\n        /* \"#utility.yul\":6746:6750   */\n      0x7f\n        /* \"#utility.yul\":6738:6744   */\n      dup3\n        /* \"#utility.yul\":6734:6751   */\n      and\n        /* \"#utility.yul\":6724:6751   */\n      swap2\n      pop\n        /* \"#utility.yul\":6680:6761   */\n    tag_483:\n        /* \"#utility.yul\":6808:6810   */\n      0x20\n        /* \"#utility.yul\":6800:6806   */\n      dup3\n        /* \"#utility.yul\":6797:6811   */\n      lt\n        /* \"#utility.yul\":6777:6795   */\n      dup2\n        /* \"#utility.yul\":6774:6812   */\n      sub\n        /* \"#utility.yul\":6771:6855   */\n      tag_484\n      jumpi\n        /* \"#utility.yul\":6827:6845   */\n      tag_485\n      tag_354\n      jump\t// in\n    tag_485:\n        /* \"#utility.yul\":6771:6855   */\n    tag_484:\n        /* \"#utility.yul\":6592:6861   */\n      pop\n        /* \"#utility.yul\":6541:6861   */\n      swap2\n      swap1\n      pop\n      jump\t// out\n        /* \"#utility.yul\":6867:7047   */\n    tag_355:\n        /* \"#utility.yul\":6915:6992   */\n      0x4e487b7100000000000000000000000000000000000000000000000000000000\n        /* \"#utility.yul\":6912:6913   */\n      0x00\n        /* \"#utility.yul\":6905:6993   */\n      mstore\n        /* \"#utility.yul\":7012:7016   */\n      0x11\n        /* \"#utility.yul\":7009:7010   */\n      0x04\n        /* \"#utility.yul\":7002:7017   */\n      mstore\n        /* \"#utility.yul\":7036:7040   */\n      0x24\n        /* \"#utility.yul\":7033:7034   */\n      0x00\n        /* \"#utility.yul\":7026:7041   */\n      revert\n        /* \"#utility.yul\":7053:7244   */\n    tag_128:\n        /* \"#utility.yul\":7093:7096   */\n      0x00\n        /* \"#utility.yul\":7112:7132   */\n      tag_488\n        /* \"#utility.yul\":7130:7131   */\n      dup3\n        /* \"#utility.yul\":7112:7132   */\n      tag_345\n      jump\t// in\n    tag_488:\n        /* \"#utility.yul\":7107:7132   */\n      swap2\n      pop\n        /* \"#utility.yul\":7146:7166   */\n      tag_489\n        /* \"#utility.yul\":7164:7165   */\n      dup4\n        /* \"#utility.yul\":7146:7166   */\n      tag_345\n      jump\t// in\n    tag_489:\n        /* \"#utility.yul\":7141:7166   */\n      swap3\n      pop\n        /* \"#utility.yul\":7189:7190   */\n      dup3\n        /* \"#utility.yul\":7186:7187   */\n      dup3\n        /* \"#utility.yul\":7182:7191   */\n      add\n        /* \"#utility.yul\":7175:7191   */\n      swap1\n      pop\n        /* \"#utility.yul\":7210:7213   */\n      dup1\n        /* \"#utility.yul\":7207:7208   */\n      dup3\n        /* \"#utility.yul\":7204:7214   */\n      gt\n        /* \"#utility.yul\":7201:7237   */\n      iszero\n      tag_490\n      jumpi\n        /* \"#utility.yul\":7217:7235   */\n      tag_491\n      tag_355\n      jump\t// in\n    tag_491:\n        /* \"#utility.yul\":7201:7237   */\n    tag_490:\n        /* \"#utility.yul\":7053:7244   */\n      swap3\n      swap2\n      pop\n      pop\n      jump\t// out\n        /* \"#utility.yul\":7250:7483   */\n    tag_356:\n        /* \"#utility.yul\":7390:7424   */\n      0x496e697469616c697a61626c653a20636f6e747261637420697320616c726561\n        /* \"#utility.yul\":7386:7387   */\n      0x00\n        /* \"#utility.yul\":7378:7384   */\n      dup3\n        /* \"#utility.yul\":7374:7388   */\n      add\n        /* \"#utility.yul\":7367:7425   */\n      mstore\n        /* \"#utility.yul\":7459:7475   */\n      0x647920696e697469616c697a6564000000000000000000000000000000000000\n        /* \"#utility.yul\":7454:7456   */\n      0x20\n        /* \"#utility.yul\":7446:7452   */\n      dup3\n        /* \"#utility.yul\":7442:7457   */\n      add\n        /* \"#utility.yul\":7435:7476   */\n      mstore\n        /* \"#utility.yul\":7250:7483   */\n      pop\n      jump\t// out\n        /* \"#utility.yul\":7489:7855   */\n    tag_357:\n        /* \"#utility.yul\":7631:7634   */\n      0x00\n        /* \"#utility.yul\":7652:7719   */\n      tag_494\n        /* \"#utility.yul\":7716:7718   */\n      0x2e\n        /* \"#utility.yul\":7711:7714   */\n      dup4\n        /* \"#utility.yul\":7652:7719   */\n      tag_334\n      jump\t// in\n    tag_494:\n        /* \"#utility.yul\":7645:7719   */\n      swap2\n      pop\n        /* \"#utility.yul\":7728:7821   */\n      tag_495\n        /* \"#utility.yul\":7817:7820   */\n      dup3\n        /* \"#utility.yul\":7728:7821   */\n      tag_356\n      jump\t// in\n    tag_495:\n        /* \"#utility.yul\":7846:7848   */\n      0x40\n        /* \"#utility.yul\":7841:7844   */\n      dup3\n        /* \"#utility.yul\":7837:7849   */\n      add\n        /* \"#utility.yul\":7830:7849   */\n      swap1\n      pop\n        /* \"#utility.yul\":7489:7855   */\n      swap2\n      swap1\n      pop\n      jump\t// out\n        /* \"#utility.yul\":7861:8280   */\n    tag_163:\n        /* \"#utility.yul\":8027:8031   */\n      0x00\n        /* \"#utility.yul\":8065:8067   */\n      0x20\n        /* \"#utility.yul\":8054:8063   */\n      dup3\n        /* \"#utility.yul\":8050:8068   */\n      add\n        /* \"#utility.yul\":8042:8068   */\n      swap1\n      pop\n        /* \"#utility.yul\":8114:8123   */\n      dup2\n        /* \"#utility.yul\":8108:8112   */\n      dup2\n        /* \"#utility.yul\":8104:8124   */\n      sub\n        /* \"#utility.yul\":8100:8101   */\n      0x00\n        /* \"#utility.yul\":8089:8098   */\n      dup4\n        /* \"#utility.yul\":8085:8102   */\n      add\n        /* \"#utility.yul\":8078:8125   */\n      mstore\n        /* \"#utility.yul\":8142:8273   */\n      tag_497\n        /* \"#utility.yul\":8268:8272   */\n      dup2\n        /* \"#utility.yul\":8142:8273   */\n      tag_357\n      jump\t// in\n    tag_497:\n        /* \"#utility.yul\":8134:8273   */\n      swap1\n      pop\n        /* \"#utility.yul\":7861:8280   */\n      swap2\n      swap1\n      pop\n      jump\t// out\n        /* \"#utility.yul\":8286:8371   */\n    tag_358:\n        /* \"#utility.yul\":8331:8338   */\n      0x00\n        /* \"#utility.yul\":8360:8365   */\n      dup2\n        /* \"#utility.yul\":8349:8365   */\n      swap1\n      pop\n        /* \"#utility.yul\":8286:8371   */\n      swap2\n      swap1\n      pop\n      jump\t// out\n        /* \"#utility.yul\":8377:8437   */\n    tag_359:\n        /* \"#utility.yul\":8405:8408   */\n      0x00\n        /* \"#utility.yul\":8426:8431   */\n      dup2\n        /* \"#utility.yul\":8419:8431   */\n      swap1\n      pop\n        /* \"#utility.yul\":8377:8437   */\n      swap2\n      swap1\n      pop\n      jump\t// out\n        /* \"#utility.yul\":8443:8597   */\n    tag_360:\n        /* \"#utility.yul\":8499:8508   */\n      0x00\n        /* \"#utility.yul\":8532:8591   */\n      tag_501\n        /* \"#utility.yul\":8548:8590   */\n      tag_502\n        /* \"#utility.yul\":8557:8589   */\n      tag_503\n        /* \"#utility.yul\":8583:8588   */\n      dup5\n        /* \"#utility.yul\":8557:8589   */\n      tag_358\n      jump\t// in\n    tag_503:\n        /* \"#utility.yul\":8548:8590   */\n      tag_359\n      jump\t// in\n    tag_502:\n        /* \"#utility.yul\":8532:8591   */\n      tag_351\n      jump\t// in\n    tag_501:\n        /* \"#utility.yul\":8519:8591   */\n      swap1\n      pop\n        /* \"#utility.yul\":8443:8597   */\n      swap2\n      swap1\n      pop\n      jump\t// out\n        /* \"#utility.yul\":8603:8746   */\n    tag_361:\n        /* \"#utility.yul\":8696:8739   */\n      tag_505\n        /* \"#utility.yul\":8733:8738   */\n      dup2\n        /* \"#utility.yul\":8696:8739   */\n      tag_360\n      jump\t// in\n    tag_505:\n        /* \"#utility.yul\":8691:8694   */\n      dup3\n        /* \"#utility.yul\":8684:8740   */\n      mstore\n        /* \"#utility.yul\":8603:8746   */\n      pop\n      pop\n      jump\t// out\n        /* \"#utility.yul\":8752:8986   */\n    tag_176:\n        /* \"#utility.yul\":8851:8855   */\n      0x00\n        /* \"#utility.yul\":8889:8891   */\n      0x20\n        /* \"#utility.yul\":8878:8887   */\n      dup3\n        /* \"#utility.yul\":8874:8892   */\n      add\n        /* \"#utility.yul\":8866:8892   */\n      swap1\n      pop\n        /* \"#utility.yul\":8902:8979   */\n      tag_507\n        /* \"#utility.yul\":8976:8977   */\n      0x00\n        /* \"#utility.yul\":8965:8974   */\n      dup4\n        /* \"#utility.yul\":8961:8978   */\n      add\n        /* \"#utility.yul\":8952:8958   */\n      dup5\n        /* \"#utility.yul\":8902:8979   */\n      tag_361\n      jump\t// in\n    tag_507:\n        /* \"#utility.yul\":8752:8986   */\n      swap3\n      swap2\n      pop\n      pop\n      jump\t// out\n        /* \"#utility.yul\":8992:9216   */\n    tag_362:\n        /* \"#utility.yul\":9132:9166   */\n      0x45524332303a2064656372656173656420616c6c6f77616e63652062656c6f77\n        /* \"#utility.yul\":9128:9129   */\n      0x00\n        /* \"#utility.yul\":9120:9126   */\n      dup3\n        /* \"#utility.yul\":9116:9130   */\n      add\n        /* \"#utility.yul\":9109:9167   */\n      mstore\n        /* \"#utility.yul\":9201:9208   */\n      0x207a65726f000000000000000000000000000000000000000000000000000000\n        /* \"#utility.yul\":9196:9198   */\n      0x20\n        /* \"#utility.yul\":9188:9194   */\n      dup3\n        /* \"#utility.yul\":9184:9199   */\n      add\n        /* \"#utility.yul\":9177:9209   */\n      mstore\n        /* \"#utility.yul\":8992:9216   */\n      pop\n      jump\t// out\n        /* \"#utility.yul\":9222:9588   */\n    tag_363:\n        /* \"#utility.yul\":9364:9367   */\n      0x00\n        /* \"#utility.yul\":9385:9452   */\n      tag_510\n        /* \"#utility.yul\":9449:9451   */\n      0x25\n        /* \"#utility.yul\":9444:9447   */\n      dup4\n        /* \"#utility.yul\":9385:9452   */\n      tag_334\n      jump\t// in\n    tag_510:\n        /* \"#utility.yul\":9378:9452   */\n      swap2\n      pop\n        /* \"#utility.yul\":9461:9554   */\n      tag_511\n        /* \"#utility.yul\":9550:9553   */\n      dup3\n        /* \"#utility.yul\":9461:9554   */\n      tag_362\n      jump\t// in\n    tag_511:\n        /* \"#utility.yul\":9579:9581   */\n      0x40\n        /* \"#utility.yul\":9574:9577   */\n      dup3\n        /* \"#utility.yul\":9570:9582   */\n      add\n        /* \"#utility.yul\":9563:9582   */\n      swap1\n      pop\n        /* \"#utility.yul\":9222:9588   */\n      swap2\n      swap1\n      pop\n      jump\t// out\n        /* \"#utility.yul\":9594:10013   */\n    tag_194:\n        /* \"#utility.yul\":9760:9764   */\n      0x00\n        /* \"#utility.yul\":9798:9800   */\n      0x20\n        /* \"#utility.yul\":9787:9796   */\n      dup3\n        /* \"#utility.yul\":9783:9801   */\n      add\n        /* \"#utility.yul\":9775:9801   */\n      swap1\n      pop\n        /* \"#utility.yul\":9847:9856   */\n      dup2\n        /* \"#utility.yul\":9841:9845   */\n      dup2\n        /* \"#utility.yul\":9837:9857   */\n      sub\n        /* \"#utility.yul\":9833:9834   */\n      0x00\n        /* \"#utility.yul\":9822:9831   */\n      dup4\n        /* \"#utility.yul\":9818:9835   */\n      add\n        /* \"#utility.yul\":9811:9858   */\n      mstore\n        /* \"#utility.yul\":9875:10006   */\n      tag_513\n        /* \"#utility.yul\":10001:10005   */\n      dup2\n        /* \"#utility.yul\":9875:10006   */\n      tag_363\n      jump\t// in\n    tag_513:\n        /* \"#utility.yul\":9867:10006   */\n      swap1\n      pop\n        /* \"#utility.yul\":9594:10013   */\n      swap2\n      swap1\n      pop\n      jump\t// out\n        /* \"#utility.yul\":10019:10244   */\n    tag_364:\n        /* \"#utility.yul\":10159:10193   */\n      0x4f776e61626c653a206e6577206f776e657220697320746865207a65726f2061\n        /* \"#utility.yul\":10155:10156   */\n      0x00\n        /* \"#utility.yul\":10147:10153   */\n      dup3\n        /* \"#utility.yul\":10143:10157   */\n      add\n        /* \"#utility.yul\":10136:10194   */\n      mstore\n        /* \"#utility.yul\":10228:10236   */\n      0x6464726573730000000000000000000000000000000000000000000000000000\n        /* \"#utility.yul\":10223:10225   */\n      0x20\n        /* \"#utility.yul\":10215:10221   */\n      dup3\n        /* \"#utility.yul\":10211:10226   */\n      add\n        /* \"#utility.yul\":10204:10237   */\n      mstore\n        /* \"#utility.yul\":10019:10244   */\n      pop\n      jump\t// out\n        /* \"#utility.yul\":10250:10616   */\n    tag_365:\n        /* \"#utility.yul\":10392:10395   */\n      0x00\n        /* \"#utility.yul\":10413:10480   */\n      tag_516\n        /* \"#utility.yul\":10477:10479   */\n      0x26\n        /* \"#utility.yul\":10472:10475   */\n      dup4\n        /* \"#utility.yul\":10413:10480   */\n      tag_334\n      jump\t// in\n    tag_516:\n        /* \"#utility.yul\":10406:10480   */\n      swap2\n      pop\n        /* \"#utility.yul\":10489:10582   */\n      tag_517\n        /* \"#utility.yul\":10578:10581   */\n      dup3\n        /* \"#utility.yul\":10489:10582   */\n      tag_364\n      jump\t// in\n    tag_517:\n        /* \"#utility.yul\":10607:10609   */\n      0x40\n        /* \"#utility.yul\":10602:10605   */\n      dup3\n        /* \"#utility.yul\":10598:10610   */\n      add\n        /* \"#utility.yul\":10591:10610   */\n      swap1\n      pop\n        /* \"#utility.yul\":10250:10616   */\n      swap2\n      swap1\n      pop\n      jump\t// out\n        /* \"#utility.yul\":10622:11041   */\n    tag_205:\n        /* \"#utility.yul\":10788:10792   */\n      0x00\n        /* \"#utility.yul\":10826:10828   */\n      0x20\n        /* \"#utility.yul\":10815:10824   */\n      dup3\n        /* \"#utility.yul\":10811:10829   */\n      add\n        /* \"#utility.yul\":10803:10829   */\n      swap1\n      pop\n        /* \"#utility.yul\":10875:10884   */\n      dup2\n        /* \"#utility.yul\":10869:10873   */\n      dup2\n        /* \"#utility.yul\":10865:10885   */\n      sub\n        /* \"#utility.yul\":10861:10862   */\n      0x00\n        /* \"#utility.yul\":10850:10859   */\n      dup4\n        /* \"#utility.yul\":10846:10863   */\n      add\n        /* \"#utility.yul\":10839:10886   */\n      mstore\n        /* \"#utility.yul\":10903:11034   */\n      tag_519\n        /* \"#utility.yul\":11029:11033   */\n      dup2\n        /* \"#utility.yul\":10903:11034   */\n      tag_365\n      jump\t// in\n    tag_519:\n        /* \"#utility.yul\":10895:11034   */\n      swap1\n      pop\n        /* \"#utility.yul\":10622:11041   */\n      swap2\n      swap1\n      pop\n      jump\t// out\n        /* \"#utility.yul\":11047:11270   */\n    tag_366:\n        /* \"#utility.yul\":11187:11221   */\n      0x45524332303a20617070726f76652066726f6d20746865207a65726f20616464\n        /* \"#utility.yul\":11183:11184   */\n      0x00\n        /* \"#utility.yul\":11175:11181   */\n      dup3\n        /* \"#utility.yul\":11171:11185   */\n      add\n        /* \"#utility.yul\":11164:11222   */\n      mstore\n        /* \"#utility.yul\":11256:11262   */\n      0x7265737300000000000000000000000000000000000000000000000000000000\n        /* \"#utility.yul\":11251:11253   */\n      0x20\n        /* \"#utility.yul\":11243:11249   */\n      dup3\n        /* \"#utility.yul\":11239:11254   */\n      add\n        /* \"#utility.yul\":11232:11263   */\n      mstore\n        /* \"#utility.yul\":11047:11270   */\n      pop\n      jump\t// out\n        /* \"#utility.yul\":11276:11642   */\n    tag_367:\n        /* \"#utility.yul\":11418:11421   */\n      0x00\n        /* \"#utility.yul\":11439:11506   */\n      tag_522\n        /* \"#utility.yul\":11503:11505   */\n      0x24\n        /* \"#utility.yul\":11498:11501   */\n      dup4\n        /* \"#utility.yul\":11439:11506   */\n      tag_334\n      jump\t// in\n    tag_522:\n        /* \"#utility.yul\":11432:11506   */\n      swap2\n      pop\n        /* \"#utility.yul\":11515:11608   */\n      tag_523\n        /* \"#utility.yul\":11604:11607   */\n      dup3\n        /* \"#utility.yul\":11515:11608   */\n      tag_366\n      jump\t// in\n    tag_523:\n        /* \"#utility.yul\":11633:11635   */\n      0x40\n        /* \"#utility.yul\":11628:11631   */\n      dup3\n        /* \"#utility.yul\":11624:11636   */\n      add\n        /* \"#utility.yul\":11617:11636   */\n      swap1\n      pop\n        /* \"#utility.yul\":11276:11642   */\n      swap2\n      swap1\n      pop\n      jump\t// out\n        /* \"#utility.yul\":11648:12067   */\n    tag_211:\n        /* \"#utility.yul\":11814:11818   */\n      0x00\n        /* \"#utility.yul\":11852:11854   */\n      0x20\n        /* \"#utility.yul\":11841:11850   */\n      dup3\n        /* \"#utility.yul\":11837:11855   */\n      add\n        /* \"#utility.yul\":11829:11855   */\n      swap1\n      pop\n        /* \"#utility.yul\":11901:11910   */\n      dup2\n        /* \"#utility.yul\":11895:11899   */\n      dup2\n        /* \"#utility.yul\":11891:11911   */\n      sub\n        /* \"#utility.yul\":11887:11888   */\n      0x00\n        /* \"#utility.yul\":11876:11885   */\n      dup4\n        /* \"#utility.yul\":11872:11889   */\n      add\n        /* \"#utility.yul\":11865:11912   */\n      mstore\n        /* \"#utility.yul\":11929:12060   */\n      tag_525\n        /* \"#utility.yul\":12055:12059   */\n      dup2\n        /* \"#utility.yul\":11929:12060   */\n      tag_367\n      jump\t// in\n    tag_525:\n        /* \"#utility.yul\":11921:12060   */\n      swap1\n      pop\n        /* \"#utility.yul\":11648:12067   */\n      swap2\n      swap1\n      pop\n      jump\t// out\n        /* \"#utility.yul\":12073:12294   */\n    tag_368:\n        /* \"#utility.yul\":12213:12247   */\n      0x45524332303a20617070726f766520746f20746865207a65726f206164647265\n        /* \"#utility.yul\":12209:12210   */\n      0x00\n        /* \"#utility.yul\":12201:12207   */\n      dup3\n        /* \"#utility.yul\":12197:12211   */\n      add\n        /* \"#utility.yul\":12190:12248   */\n      mstore\n        /* \"#utility.yul\":12282:12286   */\n      0x7373000000000000000000000000000000000000000000000000000000000000\n        /* \"#utility.yul\":12277:12279   */\n      0x20\n        /* \"#utility.yul\":12269:12275   */\n      dup3\n        /* \"#utility.yul\":12265:12280   */\n      add\n        /* \"#utility.yul\":12258:12287   */\n      mstore\n        /* \"#utility.yul\":12073:12294   */\n      pop\n      jump\t// out\n        /* \"#utility.yul\":12300:12666   */\n    tag_369:\n        /* \"#utility.yul\":12442:12445   */\n      0x00\n        /* \"#utility.yul\":12463:12530   */\n      tag_528\n        /* \"#utility.yul\":12527:12529   */\n      0x22\n        /* \"#utility.yul\":12522:12525   */\n      dup4\n        /* \"#utility.yul\":12463:12530   */\n      tag_334\n      jump\t// in\n    tag_528:\n        /* \"#utility.yul\":12456:12530   */\n      swap2\n      pop\n        /* \"#utility.yul\":12539:12632   */\n      tag_529\n        /* \"#utility.yul\":12628:12631   */\n      dup3\n        /* \"#utility.yul\":12539:12632   */\n      tag_368\n      jump\t// in\n    tag_529:\n        /* \"#utility.yul\":12657:12659   */\n      0x40\n        /* \"#utility.yul\":12652:12655   */\n      dup3\n        /* \"#utility.yul\":12648:12660   */\n      add\n        /* \"#utility.yul\":12641:12660   */\n      swap1\n      pop\n        /* \"#utility.yul\":12300:12666   */\n      swap2\n      swap1\n      pop\n      jump\t// out\n        /* \"#utility.yul\":12672:13091   */\n    tag_214:\n        /* \"#utility.yul\":12838:12842   */\n      0x00\n        /* \"#utility.yul\":12876:12878   */\n      0x20\n        /* \"#utility.yul\":12865:12874   */\n      dup3\n        /* \"#utility.yul\":12861:12879   */\n      add\n        /* \"#utility.yul\":12853:12879   */\n      swap1\n      pop\n        /* \"#utility.yul\":12925:12934   */\n      dup2\n        /* \"#utility.yul\":12919:12923   */\n      dup2\n        /* \"#utility.yul\":12915:12935   */\n      sub\n        /* \"#utility.yul\":12911:12912   */\n      0x00\n        /* \"#utility.yul\":12900:12909   */\n      dup4\n        /* \"#utility.yul\":12896:12913   */\n      add\n        /* \"#utility.yul\":12889:12936   */\n      mstore\n        /* \"#utility.yul\":12953:13084   */\n      tag_531\n        /* \"#utility.yul\":13079:13083   */\n      dup2\n        /* \"#utility.yul\":12953:13084   */\n      tag_369\n      jump\t// in\n    tag_531:\n        /* \"#utility.yul\":12945:13084   */\n      swap1\n      pop\n        /* \"#utility.yul\":12672:13091   */\n      swap2\n      swap1\n      pop\n      jump\t// out\n        /* \"#utility.yul\":13097:13276   */\n    tag_370:\n        /* \"#utility.yul\":13237:13268   */\n      0x45524332303a20696e73756666696369656e7420616c6c6f77616e6365000000\n        /* \"#utility.yul\":13233:13234   */\n      0x00\n        /* \"#utility.yul\":13225:13231   */\n      dup3\n        /* \"#utility.yul\":13221:13235   */\n      add\n        /* \"#utility.yul\":13214:13269   */\n      mstore\n        /* \"#utility.yul\":13097:13276   */\n      pop\n      jump\t// out\n        /* \"#utility.yul\":13282:13648   */\n    tag_371:\n        /* \"#utility.yul\":13424:13427   */\n      0x00\n        /* \"#utility.yul\":13445:13512   */\n      tag_534\n        /* \"#utility.yul\":13509:13511   */\n      0x1d\n        /* \"#utility.yul\":13504:13507   */\n      dup4\n        /* \"#utility.yul\":13445:13512   */\n      tag_334\n      jump\t// in\n    tag_534:\n        /* \"#utility.yul\":13438:13512   */\n      swap2\n      pop\n        /* \"#utility.yul\":13521:13614   */\n      tag_535\n        /* \"#utility.yul\":13610:13613   */\n      dup3\n        /* \"#utility.yul\":13521:13614   */\n      tag_370\n      jump\t// in\n    tag_535:\n        /* \"#utility.yul\":13639:13641   */\n      0x20\n        /* \"#utility.yul\":13634:13637   */\n      dup3\n        /* \"#utility.yul\":13630:13642   */\n      add\n        /* \"#utility.yul\":13623:13642   */\n      swap1\n      pop\n        /* \"#utility.yul\":13282:13648   */\n      swap2\n      swap1\n      pop\n      jump\t// out\n        /* \"#utility.yul\":13654:14073   */\n    tag_221:\n        /* \"#utility.yul\":13820:13824   */\n      0x00\n        /* \"#utility.yul\":13858:13860   */\n      0x20\n        /* \"#utility.yul\":13847:13856   */\n      dup3\n        /* \"#utility.yul\":13843:13861   */\n      add\n        /* \"#utility.yul\":13835:13861   */\n      swap1\n      pop\n        /* \"#utility.yul\":13907:13916   */\n      dup2\n        /* \"#utility.yul\":13901:13905   */\n      dup2\n        /* \"#utility.yul\":13897:13917   */\n      sub\n        /* \"#utility.yul\":13893:13894   */\n      0x00\n        /* \"#utility.yul\":13882:13891   */\n      dup4\n        /* \"#utility.yul\":13878:13895   */\n      add\n        /* \"#utility.yul\":13871:13918   */\n      mstore\n        /* \"#utility.yul\":13935:14066   */\n      tag_537\n        /* \"#utility.yul\":14061:14065   */\n      dup2\n        /* \"#utility.yul\":13935:14066   */\n      tag_371\n      jump\t// in\n    tag_537:\n        /* \"#utility.yul\":13927:14066   */\n      swap1\n      pop\n        /* \"#utility.yul\":13654:14073   */\n      swap2\n      swap1\n      pop\n      jump\t// out\n        /* \"#utility.yul\":14079:14303   */\n    tag_372:\n        /* \"#utility.yul\":14219:14253   */\n      0x45524332303a207472616e736665722066726f6d20746865207a65726f206164\n        /* \"#utility.yul\":14215:14216   */\n      0x00\n        /* \"#utility.yul\":14207:14213   */\n      dup3\n        /* \"#utility.yul\":14203:14217   */\n      add\n        /* \"#utility.yul\":14196:14254   */\n      mstore\n        /* \"#utility.yul\":14288:14295   */\n      0x6472657373000000000000000000000000000000000000000000000000000000\n        /* \"#utility.yul\":14283:14285   */\n      0x20\n        /* \"#utility.yul\":14275:14281   */\n      dup3\n        /* \"#utility.yul\":14271:14286   */\n      add\n        /* \"#utility.yul\":14264:14296   */\n      mstore\n        /* \"#utility.yul\":14079:14303   */\n      pop\n      jump\t// out\n        /* \"#utility.yul\":14309:14675   */\n    tag_373:\n        /* \"#utility.yul\":14451:14454   */\n      0x00\n        /* \"#utility.yul\":14472:14539   */\n      tag_540\n        /* \"#utility.yul\":14536:14538   */\n      0x25\n        /* \"#utility.yul\":14531:14534   */\n      dup4\n        /* \"#utility.yul\":14472:14539   */\n      tag_334\n      jump\t// in\n    tag_540:\n        /* \"#utility.yul\":14465:14539   */\n      swap2\n      pop\n        /* \"#utility.yul\":14548:14641   */\n      tag_541\n        /* \"#utility.yul\":14637:14640   */\n      dup3\n        /* \"#utility.yul\":14548:14641   */\n      tag_372\n      jump\t// in\n    tag_541:\n        /* \"#utility.yul\":14666:14668   */\n      0x40\n        /* \"#utility.yul\":14661:14664   */\n      dup3\n        /* \"#utility.yul\":14657:14669   */\n      add\n        /* \"#utility.yul\":14650:14669   */\n      swap1\n      pop\n        /* \"#utility.yul\":14309:14675   */\n      swap2\n      swap1\n      pop\n      jump\t// out\n        /* \"#utility.yul\":14681:15100   */\n    tag_226:\n        /* \"#utility.yul\":14847:14851   */\n      0x00\n        /* \"#utility.yul\":14885:14887   */\n      0x20\n        /* \"#utility.yul\":14874:14883   */\n      dup3\n        /* \"#utility.yul\":14870:14888   */\n      add\n        /* \"#utility.yul\":14862:14888   */\n      swap1\n      pop\n        /* \"#utility.yul\":14934:14943   */\n      dup2\n        /* \"#utility.yul\":14928:14932   */\n      dup2\n        /* \"#utility.yul\":14924:14944   */\n      sub\n        /* \"#utility.yul\":14920:14921   */\n      0x00\n        /* \"#utility.yul\":14909:14918   */\n      dup4\n        /* \"#utility.yul\":14905:14922   */\n      add\n        /* \"#utility.yul\":14898:14945   */\n      mstore\n        /* \"#utility.yul\":14962:15093   */\n      tag_543\n        /* \"#utility.yul\":15088:15092   */\n      dup2\n        /* \"#utility.yul\":14962:15093   */\n      tag_373\n      jump\t// in\n    tag_543:\n        /* \"#utility.yul\":14954:15093   */\n      swap1\n      pop\n        /* \"#utility.yul\":14681:15100   */\n      swap2\n      swap1\n      pop\n      jump\t// out\n        /* \"#utility.yul\":15106:15328   */\n    tag_374:\n        /* \"#utility.yul\":15246:15280   */\n      0x45524332303a207472616e7366657220746f20746865207a65726f2061646472\n        /* \"#utility.yul\":15242:15243   */\n      0x00\n        /* \"#utility.yul\":15234:15240   */\n      dup3\n        /* \"#utility.yul\":15230:15244   */\n      add\n        /* \"#utility.yul\":15223:15281   */\n      mstore\n        /* \"#utility.yul\":15315:15320   */\n      0x6573730000000000000000000000000000000000000000000000000000000000\n        /* \"#utility.yul\":15310:15312   */\n      0x20\n        /* \"#utility.yul\":15302:15308   */\n      dup3\n        /* \"#utility.yul\":15298:15313   */\n      add\n        /* \"#utility.yul\":15291:15321   */\n      mstore\n        /* \"#utility.yul\":15106:15328   */\n      pop\n      jump\t// out\n        /* \"#utility.yul\":15334:15700   */\n    tag_375:\n        /* \"#utility.yul\":15476:15479   */\n      0x00\n        /* \"#utility.yul\":15497:15564   */\n      tag_546\n        /* \"#utility.yul\":15561:15563   */\n      0x23\n        /* \"#utility.yul\":15556:15559   */\n      dup4\n        /* \"#utility.yul\":15497:15564   */\n      tag_334\n      jump\t// in\n    tag_546:\n        /* \"#utility.yul\":15490:15564   */\n      swap2\n      pop\n        /* \"#utility.yul\":15573:15666   */\n      tag_547\n        /* \"#utility.yul\":15662:15665   */\n      dup3\n        /* \"#utility.yul\":15573:15666   */\n      tag_374\n      jump\t// in\n    tag_547:\n        /* \"#utility.yul\":15691:15693   */\n      0x40\n        /* \"#utility.yul\":15686:15689   */\n      dup3\n        /* \"#utility.yul\":15682:15694   */\n      add\n        /* \"#utility.yul\":15675:15694   */\n      swap1\n      pop\n        /* \"#utility.yul\":15334:15700   */\n      swap2\n      swap1\n      pop\n      jump\t// out\n        /* \"#utility.yul\":15706:16125   */\n    tag_229:\n        /* \"#utility.yul\":15872:15876   */\n      0x00\n        /* \"#utility.yul\":15910:15912   */\n      0x20\n        /* \"#utility.yul\":15899:15908   */\n      dup3\n        /* \"#utility.yul\":15895:15913   */\n      add\n        /* \"#utility.yul\":15887:15913   */\n      swap1\n      pop\n        /* \"#utility.yul\":15959:15968   */\n      dup2\n        /* \"#utility.yul\":15953:15957   */\n      dup2\n        /* \"#utility.yul\":15949:15969   */\n      sub\n        /* \"#utility.yul\":15945:15946   */\n      0x00\n        /* \"#utility.yul\":15934:15943   */\n      dup4\n        /* \"#utility.yul\":15930:15947   */\n      add\n        /* \"#utility.yul\":15923:15970   */\n      mstore\n        /* \"#utility.yul\":15987:16118   */\n      tag_549\n        /* \"#utility.yul\":16113:16117   */\n      dup2\n        /* \"#utility.yul\":15987:16118   */\n      tag_375\n      jump\t// in\n    tag_549:\n        /* \"#utility.yul\":15979:16118   */\n      swap1\n      pop\n        /* \"#utility.yul\":15706:16125   */\n      swap2\n      swap1\n      pop\n      jump\t// out\n        /* \"#utility.yul\":16131:16356   */\n    tag_376:\n        /* \"#utility.yul\":16271:16305   */\n      0x45524332303a207472616e7366657220616d6f756e7420657863656564732062\n        /* \"#utility.yul\":16267:16268   */\n      0x00\n        /* \"#utility.yul\":16259:16265   */\n      dup3\n        /* \"#utility.yul\":16255:16269   */\n      add\n        /* \"#utility.yul\":16248:16306   */\n      mstore\n        /* \"#utility.yul\":16340:16348   */\n      0x616c616e63650000000000000000000000000000000000000000000000000000\n        /* \"#utility.yul\":16335:16337   */\n      0x20\n        /* \"#utility.yul\":16327:16333   */\n      dup3\n        /* \"#utility.yul\":16323:16338   */\n      add\n        /* \"#utility.yul\":16316:16349   */\n      mstore\n        /* \"#utility.yul\":16131:16356   */\n      pop\n      jump\t// out\n        /* \"#utility.yul\":16362:16728   */\n    tag_377:\n        /* \"#utility.yul\":16504:16507   */\n      0x00\n        /* \"#utility.yul\":16525:16592   */\n      tag_552\n        /* \"#utility.yul\":16589:16591   */\n      0x26\n        /* \"#utility.yul\":16584:16587   */\n      dup4\n        /* \"#utility.yul\":16525:16592   */\n      tag_334\n      jump\t// in\n    tag_552:\n        /* \"#utility.yul\":16518:16592   */\n      swap2\n      pop\n        /* \"#utility.yul\":16601:16694   */\n      tag_553\n        /* \"#utility.yul\":16690:16693   */\n      dup3\n        /* \"#utility.yul\":16601:16694   */\n      tag_376\n      jump\t// in\n    tag_553:\n        /* \"#utility.yul\":16719:16721   */\n      0x40\n        /* \"#utility.yul\":16714:16717   */\n      dup3\n        /* \"#utility.yul\":16710:16722   */\n      add\n        /* \"#utility.yul\":16703:16722   */\n      swap1\n      pop\n        /* \"#utility.yul\":16362:16728   */\n      swap2\n      swap1\n      pop\n      jump\t// out\n        /* \"#utility.yul\":16734:17153   */\n    tag_234:\n        /* \"#utility.yul\":16900:16904   */\n      0x00\n        /* \"#utility.yul\":16938:16940   */\n      0x20\n        /* \"#utility.yul\":16927:16936   */\n      dup3\n        /* \"#utility.yul\":16923:16941   */\n      add\n        /* \"#utility.yul\":16915:16941   */\n      swap1\n      pop\n        /* \"#utility.yul\":16987:16996   */\n      dup2\n        /* \"#utility.yul\":16981:16985   */\n      dup2\n        /* \"#utility.yul\":16977:16997   */\n      sub\n        /* \"#utility.yul\":16973:16974   */\n      0x00\n        /* \"#utility.yul\":16962:16971   */\n      dup4\n        /* \"#utility.yul\":16958:16975   */\n      add\n        /* \"#utility.yul\":16951:16998   */\n      mstore\n        /* \"#utility.yul\":17015:17146   */\n      tag_555\n        /* \"#utility.yul\":17141:17145   */\n      dup2\n        /* \"#utility.yul\":17015:17146   */\n      tag_377\n      jump\t// in\n    tag_555:\n        /* \"#utility.yul\":17007:17146   */\n      swap1\n      pop\n        /* \"#utility.yul\":16734:17153   */\n      swap2\n      swap1\n      pop\n      jump\t// out\n        /* \"#utility.yul\":17159:17341   */\n    tag_378:\n        /* \"#utility.yul\":17299:17333   */\n      0x4f776e61626c653a2063616c6c6572206973206e6f7420746865206f776e6572\n        /* \"#utility.yul\":17295:17296   */\n      0x00\n        /* \"#utility.yul\":17287:17293   */\n      dup3\n        /* \"#utility.yul\":17283:17297   */\n      add\n        /* \"#utility.yul\":17276:17334   */\n      mstore\n        /* \"#utility.yul\":17159:17341   */\n      pop\n      jump\t// out\n        /* \"#utility.yul\":17347:17713   */\n    tag_379:\n        /* \"#utility.yul\":17489:17492   */\n      0x00\n        /* \"#utility.yul\":17510:17577   */\n      tag_558\n        /* \"#utility.yul\":17574:17576   */\n      0x20\n        /* \"#utility.yul\":17569:17572   */\n      dup4\n        /* \"#utility.yul\":17510:17577   */\n      tag_334\n      jump\t// in\n    tag_558:\n        /* \"#utility.yul\":17503:17577   */\n      swap2\n      pop\n        /* \"#utility.yul\":17586:17679   */\n      tag_559\n        /* \"#utility.yul\":17675:17678   */\n      dup3\n        /* \"#utility.yul\":17586:17679   */\n      tag_378\n      jump\t// in\n    tag_559:\n        /* \"#utility.yul\":17704:17706   */\n      0x20\n        /* \"#utility.yul\":17699:17702   */\n      dup3\n        /* \"#utility.yul\":17695:17707   */\n      add\n        /* \"#utility.yul\":17688:17707   */\n      swap1\n      pop\n        /* \"#utility.yul\":17347:17713   */\n      swap2\n      swap1\n      pop\n      jump\t// out\n        /* \"#utility.yul\":17719:18138   */\n    tag_243:\n        /* \"#utility.yul\":17885:17889   */\n      0x00\n        /* \"#utility.yul\":17923:17925   */\n      0x20\n        /* \"#utility.yul\":17912:17921   */\n      dup3\n        /* \"#utility.yul\":17908:17926   */\n      add\n        /* \"#utility.yul\":17900:17926   */\n      swap1\n      pop\n        /* \"#utility.yul\":17972:17981   */\n      dup2\n        /* \"#utility.yul\":17966:17970   */\n      dup2\n        /* \"#utility.yul\":17962:17982   */\n      sub\n        /* \"#utility.yul\":17958:17959   */\n      0x00\n        /* \"#utility.yul\":17947:17956   */\n      dup4\n        /* \"#utility.yul\":17943:17960   */\n      add\n        /* \"#utility.yul\":17936:17983   */\n      mstore\n        /* \"#utility.yul\":18000:18131   */\n      tag_561\n        /* \"#utility.yul\":18126:18130   */\n      dup2\n        /* \"#utility.yul\":18000:18131   */\n      tag_379\n      jump\t// in\n    tag_561:\n        /* \"#utility.yul\":17992:18131   */\n      swap1\n      pop\n        /* \"#utility.yul\":17719:18138   */\n      swap2\n      swap1\n      pop\n      jump\t// out\n        /* \"#utility.yul\":18144:18325   */\n    tag_380:\n        /* \"#utility.yul\":18284:18317   */\n      0x45524332303a206d696e7420746f20746865207a65726f206164647265737300\n        /* \"#utility.yul\":18280:18281   */\n      0x00\n        /* \"#utility.yul\":18272:18278   */\n      dup3\n        /* \"#utility.yul\":18268:18282   */\n      add\n        /* \"#utility.yul\":18261:18318   */\n      mstore\n        /* \"#utility.yul\":18144:18325   */\n      pop\n      jump\t// out\n        /* \"#utility.yul\":18331:18697   */\n    tag_381:\n        /* \"#utility.yul\":18473:18476   */\n      0x00\n        /* \"#utility.yul\":18494:18561   */\n      tag_564\n        /* \"#utility.yul\":18558:18560   */\n      0x1f\n        /* \"#utility.yul\":18553:18556   */\n      dup4\n        /* \"#utility.yul\":18494:18561   */\n      tag_334\n      jump\t// in\n    tag_564:\n        /* \"#utility.yul\":18487:18561   */\n      swap2\n      pop\n        /* \"#utility.yul\":18570:18663   */\n      tag_565\n        /* \"#utility.yul\":18659:18662   */\n      dup3\n        /* \"#utility.yul\":18570:18663   */\n      tag_380\n      jump\t// in\n    tag_565:\n        /* \"#utility.yul\":18688:18690   */\n      0x20\n        /* \"#utility.yul\":18683:18686   */\n      dup3\n        /* \"#utility.yul\":18679:18691   */\n      add\n        /* \"#utility.yul\":18672:18691   */\n      swap1\n      pop\n        /* \"#utility.yul\":18331:18697   */\n      swap2\n      swap1\n      pop\n      jump\t// out\n        /* \"#utility.yul\":18703:19122   */\n    tag_253:\n        /* \"#utility.yul\":18869:18873   */\n      0x00\n        /* \"#utility.yul\":18907:18909   */\n      0x20\n        /* \"#utility.yul\":18896:18905   */\n      dup3\n        /* \"#utility.yul\":18892:18910   */\n      add\n        /* \"#utility.yul\":18884:18910   */\n      swap1\n      pop\n        /* \"#utility.yul\":18956:18965   */\n      dup2\n        /* \"#utility.yul\":18950:18954   */\n      dup2\n        /* \"#utility.yul\":18946:18966   */\n      sub\n        /* \"#utility.yul\":18942:18943   */\n      0x00\n        /* \"#utility.yul\":18931:18940   */\n      dup4\n        /* \"#utility.yul\":18927:18944   */\n      add\n        /* \"#utility.yul\":18920:18967   */\n      mstore\n        /* \"#utility.yul\":18984:19115   */\n      tag_567\n        /* \"#utility.yul\":19110:19114   */\n      dup2\n        /* \"#utility.yul\":18984:19115   */\n      tag_381\n      jump\t// in\n    tag_567:\n        /* \"#utility.yul\":18976:19115   */\n      swap1\n      pop\n        /* \"#utility.yul\":18703:19122   */\n      swap2\n      swap1\n      pop\n      jump\t// out\n        /* \"#utility.yul\":19128:19348   */\n    tag_382:\n        /* \"#utility.yul\":19268:19302   */\n      0x45524332303a206275726e2066726f6d20746865207a65726f20616464726573\n        /* \"#utility.yul\":19264:19265   */\n      0x00\n        /* \"#utility.yul\":19256:19262   */\n      dup3\n        /* \"#utility.yul\":19252:19266   */\n      add\n        /* \"#utility.yul\":19245:19303   */\n      mstore\n        /* \"#utility.yul\":19337:19340   */\n      0x7300000000000000000000000000000000000000000000000000000000000000\n        /* \"#utility.yul\":19332:19334   */\n      0x20\n        /* \"#utility.yul\":19324:19330   */\n      dup3\n        /* \"#utility.yul\":19320:19335   */\n      add\n        /* \"#utility.yul\":19313:19341   */\n      mstore\n        /* \"#utility.yul\":19128:19348   */\n      pop\n      jump\t// out\n        /* \"#utility.yul\":19354:19720   */\n    tag_383:\n        /* \"#utility.yul\":19496:19499   */\n      0x00\n        /* \"#utility.yul\":19517:19584   */\n      tag_570\n        /* \"#utility.yul\":19581:19583   */\n      0x21\n        /* \"#utility.yul\":19576:19579   */\n      dup4\n        /* \"#utility.yul\":19517:19584   */\n      tag_334\n      jump\t// in\n    tag_570:\n        /* \"#utility.yul\":19510:19584   */\n      swap2\n      pop\n        /* \"#utility.yul\":19593:19686   */\n      tag_571\n        /* \"#utility.yul\":19682:19685   */\n      dup3\n        /* \"#utility.yul\":19593:19686   */\n      tag_382\n      jump\t// in\n    tag_571:\n        /* \"#utility.yul\":19711:19713   */\n      0x40\n        /* \"#utility.yul\":19706:19709   */\n      dup3\n        /* \"#utility.yul\":19702:19714   */\n      add\n        /* \"#utility.yul\":19695:19714   */\n      swap1\n      pop\n        /* \"#utility.yul\":19354:19720   */\n      swap2\n      swap1\n      pop\n      jump\t// out\n        /* \"#utility.yul\":19726:20145   */\n    tag_261:\n        /* \"#utility.yul\":19892:19896   */\n      0x00\n        /* \"#utility.yul\":19930:19932   */\n      0x20\n        /* \"#utility.yul\":19919:19928   */\n      dup3\n        /* \"#utility.yul\":19915:19933   */\n      add\n        /* \"#utility.yul\":19907:19933   */\n      swap1\n      pop\n        /* \"#utility.yul\":19979:19988   */\n      dup2\n        /* \"#utility.yul\":19973:19977   */\n      dup2\n        /* \"#utility.yul\":19969:19989   */\n      sub\n        /* \"#utility.yul\":19965:19966   */\n      0x00\n        /* \"#utility.yul\":19954:19963   */\n      dup4\n        /* \"#utility.yul\":19950:19967   */\n      add\n        /* \"#utility.yul\":19943:19990   */\n      mstore\n        /* \"#utility.yul\":20007:20138   */\n      tag_573\n        /* \"#utility.yul\":20133:20137   */\n      dup2\n        /* \"#utility.yul\":20007:20138   */\n      tag_383\n      jump\t// in\n    tag_573:\n        /* \"#utility.yul\":19999:20138   */\n      swap1\n      pop\n        /* \"#utility.yul\":19726:20145   */\n      swap2\n      swap1\n      pop\n      jump\t// out\n        /* \"#utility.yul\":20151:20372   */\n    tag_384:\n        /* \"#utility.yul\":20291:20325   */\n      0x45524332303a206275726e20616d6f756e7420657863656564732062616c616e\n        /* \"#utility.yul\":20287:20288   */\n      0x00\n        /* \"#utility.yul\":20279:20285   */\n      dup3\n        /* \"#utility.yul\":20275:20289   */\n      add\n        /* \"#utility.yul\":20268:20326   */\n      mstore\n        /* \"#utility.yul\":20360:20364   */\n      0x6365000000000000000000000000000000000000000000000000000000000000\n        /* \"#utility.yul\":20355:20357   */\n      0x20\n        /* \"#utility.yul\":20347:20353   */\n      dup3\n        /* \"#utility.yul\":20343:20358   */\n      add\n        /* \"#utility.yul\":20336:20365   */\n      mstore\n        /* \"#utility.yul\":20151:20372   */\n      pop\n      jump\t// out\n        /* \"#utility.yul\":20378:20744   */\n    tag_385:\n        /* \"#utility.yul\":20520:20523   */\n      0x00\n        /* \"#utility.yul\":20541:20608   */\n      tag_576\n        /* \"#utility.yul\":20605:20607   */\n      0x22\n        /* \"#utility.yul\":20600:20603   */\n      dup4\n        /* \"#utility.yul\":20541:20608   */\n      tag_334\n      jump\t// in\n    tag_576:\n        /* \"#utility.yul\":20534:20608   */\n      swap2\n      pop\n        /* \"#utility.yul\":20617:20710   */\n      tag_577\n        /* \"#utility.yul\":20706:20709   */\n      dup3\n        /* \"#utility.yul\":20617:20710   */\n      tag_384\n      jump\t// in\n    tag_577:\n        /* \"#utility.yul\":20735:20737   */\n      0x40\n        /* \"#utility.yul\":20730:20733   */\n      dup3\n        /* \"#utility.yul\":20726:20738   */\n      add\n        /* \"#utility.yul\":20719:20738   */\n      swap1\n      pop\n        /* \"#utility.yul\":20378:20744   */\n      swap2\n      swap1\n      pop\n      jump\t// out\n        /* \"#utility.yul\":20750:21169   */\n    tag_265:\n        /* \"#utility.yul\":20916:20920   */\n      0x00\n        /* \"#utility.yul\":20954:20956   */\n      0x20\n        /* \"#utility.yul\":20943:20952   */\n      dup3\n        /* \"#utility.yul\":20939:20957   */\n      add\n        /* \"#utility.yul\":20931:20957   */\n      swap1\n      pop\n        /* \"#utility.yul\":21003:21012   */\n      dup2\n        /* \"#utility.yul\":20997:21001   */\n      dup2\n        /* \"#utility.yul\":20993:21013   */\n      sub\n        /* \"#utility.yul\":20989:20990   */\n      0x00\n        /* \"#utility.yul\":20978:20987   */\n      dup4\n        /* \"#utility.yul\":20974:20991   */\n      add\n        /* \"#utility.yul\":20967:21014   */\n      mstore\n        /* \"#utility.yul\":21031:21162   */\n      tag_579\n        /* \"#utility.yul\":21157:21161   */\n      dup2\n        /* \"#utility.yul\":21031:21162   */\n      tag_385\n      jump\t// in\n    tag_579:\n        /* \"#utility.yul\":21023:21162   */\n      swap1\n      pop\n        /* \"#utility.yul\":20750:21169   */\n      swap2\n      swap1\n      pop\n      jump\t// out\n        /* \"#utility.yul\":21175:21405   */\n    tag_386:\n        /* \"#utility.yul\":21315:21349   */\n      0x496e697469616c697a61626c653a20636f6e7472616374206973206e6f742069\n        /* \"#utility.yul\":21311:21312   */\n      0x00\n        /* \"#utility.yul\":21303:21309   */\n      dup3\n        /* \"#utility.yul\":21299:21313   */\n      add\n        /* \"#utility.yul\":21292:21350   */\n      mstore\n        /* \"#utility.yul\":21384:21397   */\n      0x6e697469616c697a696e67000000000000000000000000000000000000000000\n        /* \"#utility.yul\":21379:21381   */\n      0x20\n        /* \"#utility.yul\":21371:21377   */\n      dup3\n        /* \"#utility.yul\":21367:21382   */\n      add\n        /* \"#utility.yul\":21360:21398   */\n      mstore\n        /* \"#utility.yul\":21175:21405   */\n      pop\n      jump\t// out\n        /* \"#utility.yul\":21411:21777   */\n    tag_387:\n        /* \"#utility.yul\":21553:21556   */\n      0x00\n        /* \"#utility.yul\":21574:21641   */\n      tag_582\n        /* \"#utility.yul\":21638:21640   */\n      0x2b\n        /* \"#utility.yul\":21633:21636   */\n      dup4\n        /* \"#utility.yul\":21574:21641   */\n      tag_334\n      jump\t// in\n    tag_582:\n        /* \"#utility.yul\":21567:21641   */\n      swap2\n      pop\n        /* \"#utility.yul\":21650:21743   */\n      tag_583\n        /* \"#utility.yul\":21739:21742   */\n      dup3\n        /* \"#utility.yul\":21650:21743   */\n      tag_386\n      jump\t// in\n    tag_583:\n        /* \"#utility.yul\":21768:21770   */\n      0x40\n        /* \"#utility.yul\":21763:21766   */\n      dup3\n        /* \"#utility.yul\":21759:21771   */\n      add\n        /* \"#utility.yul\":21752:21771   */\n      swap1\n      pop\n        /* \"#utility.yul\":21411:21777   */\n      swap2\n      swap1\n      pop\n      jump\t// out\n        /* \"#utility.yul\":21783:22202   */\n    tag_273:\n        /* \"#utility.yul\":21949:21953   */\n      0x00\n        /* \"#utility.yul\":21987:21989   */\n      0x20\n        /* \"#utility.yul\":21976:21985   */\n      dup3\n        /* \"#utility.yul\":21972:21990   */\n      add\n        /* \"#utility.yul\":21964:21990   */\n      swap1\n      pop\n        /* \"#utility.yul\":22036:22045   */\n      dup2\n        /* \"#utility.yul\":22030:22034   */\n      dup2\n        /* \"#utility.yul\":22026:22046   */\n      sub\n        /* \"#utility.yul\":22022:22023   */\n      0x00\n        /* \"#utility.yul\":22011:22020   */\n      dup4\n        /* \"#utility.yul\":22007:22024   */\n      add\n        /* \"#utility.yul\":22000:22047   */\n      mstore\n        /* \"#utility.yul\":22064:22195   */\n      tag_585\n        /* \"#utility.yul\":22190:22194   */\n      dup2\n        /* \"#utility.yul\":22064:22195   */\n      tag_387\n      jump\t// in\n    tag_585:\n        /* \"#utility.yul\":22056:22195   */\n      swap1\n      pop\n        /* \"#utility.yul\":21783:22202   */\n      swap2\n      swap1\n      pop\n      jump\t// out\n        /* \"#utility.yul\":22208:22378   */\n    tag_388:\n        /* \"#utility.yul\":22348:22370   */\n      0x5061757361626c653a206e6f7420706175736564000000000000000000000000\n        /* \"#utility.yul\":22344:22345   */\n      0x00\n        /* \"#utility.yul\":22336:22342   */\n      dup3\n        /* \"#utility.yul\":22332:22346   */\n      add\n        /* \"#utility.yul\":22325:22371   */\n      mstore\n        /* \"#utility.yul\":22208:22378   */\n      pop\n      jump\t// out\n        /* \"#utility.yul\":22384:22750   */\n    tag_389:\n        /* \"#utility.yul\":22526:22529   */\n      0x00\n        /* \"#utility.yul\":22547:22614   */\n      tag_588\n        /* \"#utility.yul\":22611:22613   */\n      0x14\n        /* \"#utility.yul\":22606:22609   */\n      dup4\n        /* \"#utility.yul\":22547:22614   */\n      tag_334\n      jump\t// in\n    tag_588:\n        /* \"#utility.yul\":22540:22614   */\n      swap2\n      pop\n        /* \"#utility.yul\":22623:22716   */\n      tag_589\n        /* \"#utility.yul\":22712:22715   */\n      dup3\n        /* \"#utility.yul\":22623:22716   */\n      tag_388\n      jump\t// in\n    tag_589:\n        /* \"#utility.yul\":22741:22743   */\n      0x20\n        /* \"#utility.yul\":22736:22739   */\n      dup3\n        /* \"#utility.yul\":22732:22744   */\n      add\n        /* \"#utility.yul\":22725:22744   */\n      swap1\n      pop\n        /* \"#utility.yul\":22384:22750   */\n      swap2\n      swap1\n      pop\n      jump\t// out\n        /* \"#utility.yul\":22756:23175   */\n    tag_309:\n        /* \"#utility.yul\":22922:22926   */\n      0x00\n        /* \"#utility.yul\":22960:22962   */\n      0x20\n        /* \"#utility.yul\":22949:22958   */\n      dup3\n        /* \"#utility.yul\":22945:22963   */\n      add\n        /* \"#utility.yul\":22937:22963   */\n      swap1\n      pop\n        /* \"#utility.yul\":23009:23018   */\n      dup2\n        /* \"#utility.yul\":23003:23007   */\n      dup2\n        /* \"#utility.yul\":22999:23019   */\n      sub\n        /* \"#utility.yul\":22995:22996   */\n      0x00\n        /* \"#utility.yul\":22984:22993   */\n      dup4\n        /* \"#utility.yul\":22980:22997   */\n      add\n        /* \"#utility.yul\":22973:23020   */\n      mstore\n        /* \"#utility.yul\":23037:23168   */\n      tag_591\n        /* \"#utility.yul\":23163:23167   */\n      dup2\n        /* \"#utility.yul\":23037:23168   */\n      tag_389\n      jump\t// in\n    tag_591:\n        /* \"#utility.yul\":23029:23168   */\n      swap1\n      pop\n        /* \"#utility.yul\":22756:23175   */\n      swap2\n      swap1\n      pop\n      jump\t// out\n        /* \"#utility.yul\":23181:23361   */\n    tag_390:\n        /* \"#utility.yul\":23229:23306   */\n      0x4e487b7100000000000000000000000000000000000000000000000000000000\n        /* \"#utility.yul\":23226:23227   */\n      0x00\n        /* \"#utility.yul\":23219:23307   */\n      mstore\n        /* \"#utility.yul\":23326:23330   */\n      0x41\n        /* \"#utility.yul\":23323:23324   */\n      0x04\n        /* \"#utility.yul\":23316:23331   */\n      mstore\n        /* \"#utility.yul\":23350:23354   */\n      0x24\n        /* \"#utility.yul\":23347:23348   */\n      0x00\n        /* \"#utility.yul\":23340:23355   */\n      revert\n        /* \"#utility.yul\":23367:23508   */\n    tag_391:\n        /* \"#utility.yul\":23416:23420   */\n      0x00\n        /* \"#utility.yul\":23439:23442   */\n      dup2\n        /* \"#utility.yul\":23431:23442   */\n      swap1\n      pop\n        /* \"#utility.yul\":23462:23465   */\n      dup2\n        /* \"#utility.yul\":23459:23460   */\n      0x00\n        /* \"#utility.yul\":23452:23466   */\n      mstore\n        /* \"#utility.yul\":23496:23500   */\n      0x20\n        /* \"#utility.yul\":23493:23494   */\n      0x00\n        /* \"#utility.yul\":23483:23501   */\n      keccak256\n        /* \"#utility.yul\":23475:23501   */\n      swap1\n      pop\n        /* \"#utility.yul\":23367:23508   */\n      swap2\n      swap1\n      pop\n      jump\t// out\n        /* \"#utility.yul\":23514:23607   */\n    tag_392:\n        /* \"#utility.yul\":23551:23557   */\n      0x00\n        /* \"#utility.yul\":23598:23600   */\n      0x20\n        /* \"#utility.yul\":23593:23595   */\n      0x1f\n        /* \"#utility.yul\":23586:23591   */\n      dup4\n        /* \"#utility.yul\":23582:23596   */\n      add\n        /* \"#utility.yul\":23578:23601   */\n      div\n        /* \"#utility.yul\":23568:23601   */\n      swap1\n      pop\n        /* \"#utility.yul\":23514:23607   */\n      swap2\n      swap1\n      pop\n      jump\t// out\n        /* \"#utility.yul\":23613:23720   */\n    tag_393:\n        /* \"#utility.yul\":23657:23665   */\n      0x00\n        /* \"#utility.yul\":23707:23712   */\n      dup3\n        /* \"#utility.yul\":23701:23705   */\n      dup3\n        /* \"#utility.yul\":23697:23713   */\n      shl\n        /* \"#utility.yul\":23676:23713   */\n      swap1\n      pop\n        /* \"#utility.yul\":23613:23720   */\n      swap3\n      swap2\n      pop\n      pop\n      jump\t// out\n        /* \"#utility.yul\":23726:24119   */\n    tag_394:\n        /* \"#utility.yul\":23795:23801   */\n      0x00\n        /* \"#utility.yul\":23845:23846   */\n      0x08\n        /* \"#utility.yul\":23833:23843   */\n      dup4\n        /* \"#utility.yul\":23829:23847   */\n      mul\n        /* \"#utility.yul\":23868:23965   */\n      tag_597\n        /* \"#utility.yul\":23898:23964   */\n      0xffffffffffffffffffffffffffffffffffffffffffffffffffffffffffffffff\n        /* \"#utility.yul\":23887:23896   */\n      dup3\n        /* \"#utility.yul\":23868:23965   */\n      tag_393\n      jump\t// in\n    tag_597:\n        /* \"#utility.yul\":23986:24025   */\n      tag_598\n        /* \"#utility.yul\":24016:24024   */\n      dup7\n        /* \"#utility.yul\":24005:24014   */\n      dup4\n        /* \"#utility.yul\":23986:24025   */\n      tag_393\n      jump\t// in\n    tag_598:\n        /* \"#utility.yul\":23974:24025   */\n      swap6\n      pop\n        /* \"#utility.yul\":24058:24062   */\n      dup1\n        /* \"#utility.yul\":24054:24063   */\n      not\n        /* \"#utility.yul\":24047:24052   */\n      dup5\n        /* \"#utility.yul\":24043:24064   */\n      and\n        /* \"#utility.yul\":24034:24064   */\n      swap4\n      pop\n        /* \"#utility.yul\":24107:24111   */\n      dup1\n        /* \"#utility.yul\":24097:24105   */\n      dup7\n        /* \"#utility.yul\":24093:24112   */\n      and\n        /* \"#utility.yul\":24086:24091   */\n      dup5\n        /* \"#utility.yul\":24083:24113   */\n      or\n        /* \"#utility.yul\":24073:24113   */\n      swap3\n      pop\n        /* \"#utility.yul\":23802:24119   */\n      pop\n      pop\n        /* \"#utility.yul\":23726:24119   */\n      swap4\n      swap3\n      pop\n      pop\n      pop\n      jump\t// out\n        /* \"#utility.yul\":24125:24267   */\n    tag_395:\n        /* \"#utility.yul\":24175:24184   */\n      0x00\n        /* \"#utility.yul\":24208:24261   */\n      tag_600\n        /* \"#utility.yul\":24226:24260   */\n      tag_601\n        /* \"#utility.yul\":24235:24259   */\n      tag_602\n        /* \"#utility.yul\":24253:24258   */\n      dup5\n        /* \"#utility.yul\":24235:24259   */\n      tag_345\n      jump\t// in\n    tag_602:\n        /* \"#utility.yul\":24226:24260   */\n      tag_359\n      jump\t// in\n    tag_601:\n        /* \"#utility.yul\":24208:24261   */\n      tag_345\n      jump\t// in\n    tag_600:\n        /* \"#utility.yul\":24195:24261   */\n      swap1\n      pop\n        /* \"#utility.yul\":24125:24267   */\n      swap2\n      swap1\n      pop\n      jump\t// out\n        /* \"#utility.yul\":24273:24348   */\n    tag_396:\n        /* \"#utility.yul\":24316:24319   */\n      0x00\n        /* \"#utility.yul\":24337:24342   */\n      dup2\n        /* \"#utility.yul\":24330:24342   */\n      swap1\n      pop\n        /* \"#utility.yul\":24273:24348   */\n      swap2\n      swap1\n      pop\n      jump\t// out\n        /* \"#utility.yul\":24354:24623   */\n    tag_397:\n        /* \"#utility.yul\":24464:24503   */\n      tag_605\n        /* \"#utility.yul\":24495:24502   */\n      dup4\n        /* \"#utility.yul\":24464:24503   */\n      tag_395\n      jump\t// in\n    tag_605:\n        /* \"#utility.yul\":24525:24616   */\n      tag_606\n        /* \"#utility.yul\":24574:24615   */\n      tag_607\n        /* \"#utility.yul\":24598:24614   */\n      dup3\n        /* \"#utility.yul\":24574:24615   */\n      tag_396\n      jump\t// in\n    tag_607:\n        /* \"#utility.yul\":24566:24572   */\n      dup5\n        /* \"#utility.yul\":24559:24563   */\n      dup5\n        /* \"#utility.yul\":24553:24564   */\n      sload\n        /* \"#utility.yul\":24525:24616   */\n      tag_394\n      jump\t// in\n    tag_606:\n        /* \"#utility.yul\":24519:24523   */\n      dup3\n        /* \"#utility.yul\":24512:24617   */\n      sstore\n        /* \"#utility.yul\":24430:24623   */\n      pop\n        /* \"#utility.yul\":24354:24623   */\n      pop\n      pop\n      pop\n      jump\t// out\n        /* \"#utility.yul\":24629:24702   */\n    tag_398:\n        /* \"#utility.yul\":24674:24677   */\n      0x00\n        /* \"#utility.yul\":24629:24702   */\n      swap1\n      jump\t// out\n        /* \"#utility.yul\":24708:24897   */\n    tag_399:\n        /* \"#utility.yul\":24785:24817   */\n      tag_610\n      tag_398\n      jump\t// in\n    tag_610:\n        /* \"#utility.yul\":24826:24891   */\n      tag_611\n        /* \"#utility.yul\":24884:24890   */\n      dup2\n        /* \"#utility.yul\":24876:24882   */\n      dup5\n        /* \"#utility.yul\":24870:24874   */\n      dup5\n        /* \"#utility.yul\":24826:24891   */\n      tag_397\n      jump\t// in\n    tag_611:\n        /* \"#utility.yul\":24761:24897   */\n      pop\n        /* \"#utility.yul\":24708:24897   */\n      pop\n      pop\n      jump\t// out\n        /* \"#utility.yul\":24903:25089   */\n    tag_400:\n        /* \"#utility.yul\":24963:25083   */\n    tag_613:\n        /* \"#utility.yul\":24980:24983   */\n      dup2\n        /* \"#utility.yul\":24973:24978   */\n      dup2\n        /* \"#utility.yul\":24970:24984   */\n      lt\n        /* \"#utility.yul\":24963:25083   */\n      iszero\n      tag_615\n      jumpi\n        /* \"#utility.yul\":25034:25073   */\n      tag_616\n        /* \"#utility.yul\":25071:25072   */\n      0x00\n        /* \"#utility.yul\":25064:25069   */\n      dup3\n        /* \"#utility.yul\":25034:25073   */\n      tag_399\n      jump\t// in\n    tag_616:\n        /* \"#utility.yul\":25007:25008   */\n      0x01\n        /* \"#utility.yul\":25000:25005   */\n      dup2\n        /* \"#utility.yul\":24996:25009   */\n      add\n        /* \"#utility.yul\":24987:25009   */\n      swap1\n      pop\n        /* \"#utility.yul\":24963:25083   */\n      jump(tag_613)\n    tag_615:\n        /* \"#utility.yul\":24903:25089   */\n      pop\n      pop\n      jump\t// out\n        /* \"#utility.yul\":25095:25638   */\n    tag_401:\n        /* \"#utility.yul\":25196:25198   */\n      0x1f\n        /* \"#utility.yul\":25191:25194   */\n      dup3\n        /* \"#utility.yul\":25188:25199   */\n      gt\n        /* \"#utility.yul\":25185:25631   */\n      iszero\n      tag_618\n      jumpi\n        /* \"#utility.yul\":25230:25268   */\n      tag_619\n        /* \"#utility.yul\":25262:25267   */\n      dup2\n        /* \"#utility.yul\":25230:25268   */\n      tag_391\n      jump\t// in\n    tag_619:\n        /* \"#utility.yul\":25314:25343   */\n      tag_620\n        /* \"#utility.yul\":25332:25342   */\n      dup5\n        /* \"#utility.yul\":25314:25343   */\n      tag_392\n      jump\t// in\n    tag_620:\n        /* \"#utility.yul\":25304:25312   */\n      dup2\n        /* \"#utility.yul\":25300:25344   */\n      add\n        /* \"#utility.yul\":25497:25499   */\n      0x20\n        /* \"#utility.yul\":25485:25495   */\n      dup6\n        /* \"#utility.yul\":25482:25500   */\n      lt\n        /* \"#utility.yul\":25479:25528   */\n      iszero\n      tag_621\n      jumpi\n        /* \"#utility.yul\":25518:25526   */\n      dup2\n        /* \"#utility.yul\":25503:25526   */\n      swap1\n      pop\n        /* \"#utility.yul\":25479:25528   */\n    tag_621:\n        /* \"#utility.yul\":25541:25621   */\n      tag_622\n        /* \"#utility.yul\":25597:25619   */\n      tag_623\n        /* \"#utility.yul\":25615:25618   */\n      dup6\n        /* \"#utility.yul\":25597:25619   */\n      tag_392\n      jump\t// in\n    tag_623:\n        /* \"#utility.yul\":25587:25595   */\n      dup4\n        /* \"#utility.yul\":25583:25620   */\n      add\n        /* \"#utility.yul\":25570:25581   */\n      dup3\n        /* \"#utility.yul\":25541:25621   */\n      tag_400\n      jump\t// in\n    tag_622:\n        /* \"#utility.yul\":25200:25631   */\n      pop\n      pop\n        /* \"#utility.yul\":25185:25631   */\n    tag_618:\n        /* \"#utility.yul\":25095:25638   */\n      pop\n      pop\n      pop\n      jump\t// out\n        /* \"#utility.yul\":25644:25761   */\n    tag_402:\n        /* \"#utility.yul\":25698:25706   */\n      0x00\n        /* \"#utility.yul\":25748:25753   */\n      dup3\n        /* \"#utility.yul\":25742:25746   */\n      dup3\n        /* \"#utility.yul\":25738:25754   */\n      shr\n        /* \"#utility.yul\":25717:25754   */\n      swap1\n      pop\n        /* \"#utility.yul\":25644:25761   */\n      swap3\n      swap2\n      pop\n      pop\n      jump\t// out\n        /* \"#utility.yul\":25767:25936   */\n    tag_403:\n        /* \"#utility.yul\":25811:25817   */\n      0x00\n        /* \"#utility.yul\":25844:25895   */\n      tag_626\n        /* \"#utility.yul\":25892:25893   */\n      0x00\n        /* \"#utility.yul\":25888:25894   */\n      not\n        /* \"#utility.yul\":25880:25885   */\n      dup5\n        /* \"#utility.yul\":25877:25878   */\n      0x08\n        /* \"#utility.yul\":25873:25886   */\n      mul\n        /* \"#utility.yul\":25844:25895   */\n      tag_402\n      jump\t// in\n    tag_626:\n        /* \"#utility.yul\":25840:25896   */\n      not\n        /* \"#utility.yul\":25925:25929   */\n      dup1\n        /* \"#utility.yul\":25919:25923   */\n      dup4\n        /* \"#utility.yul\":25915:25930   */\n      and\n        /* \"#utility.yul\":25905:25930   */\n      swap2\n      pop\n        /* \"#utility.yul\":25818:25936   */\n      pop\n        /* \"#utility.yul\":25767:25936   */\n      swap3\n      swap2\n      pop\n      pop\n      jump\t// out\n        /* \"#utility.yul\":25941:26236   */\n    tag_404:\n        /* \"#utility.yul\":26017:26021   */\n      0x00\n        /* \"#utility.yul\":26163:26192   */\n      tag_628\n        /* \"#utility.yul\":26188:26191   */\n      dup4\n        /* \"#utility.yul\":26182:26186   */\n      dup4\n        /* \"#utility.yul\":26163:26192   */\n      tag_403\n      jump\t// in\n    tag_628:\n        /* \"#utility.yul\":26155:26192   */\n      swap2\n      pop\n        /* \"#utility.yul\":26225:26228   */\n      dup3\n        /* \"#utility.yul\":26222:26223   */\n      0x02\n        /* \"#utility.yul\":26218:26229   */\n      mul\n        /* \"#utility.yul\":26212:26216   */\n      dup3\n        /* \"#utility.yul\":26209:26230   */\n      or\n        /* \"#utility.yul\":26201:26230   */\n      swap1\n      pop\n        /* \"#utility.yul\":25941:26236   */\n      swap3\n      swap2\n      pop\n      pop\n      jump\t// out\n        /* \"#utility.yul\":26241:27636   */\n    tag_315:\n        /* \"#utility.yul\":26358:26395   */\n      tag_630\n        /* \"#utility.yul\":26391:26394   */\n      dup3\n        /* \"#utility.yul\":26358:26395   */\n      tag_333\n      jump\t// in\n    tag_630:\n        /* \"#utility.yul\":26460:26478   */\n      0xffffffffffffffff\n        /* \"#utility.yul\":26452:26458   */\n      dup2\n        /* \"#utility.yul\":26449:26479   */\n      gt\n        /* \"#utility.yul\":26446:26502   */\n      iszero\n      tag_631\n      jumpi\n        /* \"#utility.yul\":26482:26500   */\n      tag_632\n      tag_390\n      jump\t// in\n    tag_632:\n        /* \"#utility.yul\":26446:26502   */\n    tag_631:\n        /* \"#utility.yul\":26526:26564   */\n      tag_633\n        /* \"#utility.yul\":26558:26562   */\n      dup3\n        /* \"#utility.yul\":26552:26563   */\n      sload\n        /* \"#utility.yul\":26526:26564   */\n      tag_105\n      jump\t// in\n    tag_633:\n        /* \"#utility.yul\":26611:26678   */\n      tag_634\n        /* \"#utility.yul\":26671:26677   */\n      dup3\n        /* \"#utility.yul\":26663:26669   */\n      dup3\n        /* \"#utility.yul\":26657:26661   */\n      dup6\n        /* \"#utility.yul\":26611:26678   */\n      tag_401\n      jump\t// in\n    tag_634:\n        /* \"#utility.yul\":26705:26706   */\n      0x00\n        /* \"#utility.yul\":26729:26733   */\n      0x20\n        /* \"#utility.yul\":26716:26733   */\n      swap1\n      pop\n        /* \"#utility.yul\":26761:26763   */\n      0x1f\n        /* \"#utility.yul\":26753:26759   */\n      dup4\n        /* \"#utility.yul\":26750:26764   */\n      gt\n        /* \"#utility.yul\":26778:26779   */\n      0x01\n        /* \"#utility.yul\":26773:27391   */\n      dup2\n      eq\n      tag_636\n      jumpi\n        /* \"#utility.yul\":27435:27436   */\n      0x00\n        /* \"#utility.yul\":27452:27458   */\n      dup5\n        /* \"#utility.yul\":27449:27526   */\n      iszero\n      tag_637\n      jumpi\n        /* \"#utility.yul\":27501:27510   */\n      dup3\n        /* \"#utility.yul\":27496:27499   */\n      dup8\n        /* \"#utility.yul\":27492:27511   */\n      add\n        /* \"#utility.yul\":27486:27512   */\n      mload\n        /* \"#utility.yul\":27477:27512   */\n      swap1\n      pop\n        /* \"#utility.yul\":27449:27526   */\n    tag_637:\n        /* \"#utility.yul\":27552:27619   */\n      tag_638\n        /* \"#utility.yul\":27612:27618   */\n      dup6\n        /* \"#utility.yul\":27605:27610   */\n      dup3\n        /* \"#utility.yul\":27552:27619   */\n      tag_404\n      jump\t// in\n    tag_638:\n        /* \"#utility.yul\":27546:27550   */\n      dup7\n        /* \"#utility.yul\":27539:27620   */\n      sstore\n        /* \"#utility.yul\":27408:27630   */\n      pop\n        /* \"#utility.yul\":26743:27630   */\n      jump(tag_635)\n        /* \"#utility.yul\":26773:27391   */\n    tag_636:\n        /* \"#utility.yul\":26825:26829   */\n      0x1f\n        /* \"#utility.yul\":26821:26830   */\n      not\n        /* \"#utility.yul\":26813:26819   */\n      dup5\n        /* \"#utility.yul\":26809:26831   */\n      and\n        /* \"#utility.yul\":26859:26896   */\n      tag_639\n        /* \"#utility.yul\":26891:26895   */\n      dup7\n        /* \"#utility.yul\":26859:26896   */\n      tag_391\n      jump\t// in\n    tag_639:\n        /* \"#utility.yul\":26918:26919   */\n      0x00\n        /* \"#utility.yul\":26932:27140   */\n    tag_640:\n        /* \"#utility.yul\":26946:26953   */\n      dup3\n        /* \"#utility.yul\":26943:26944   */\n      dup2\n        /* \"#utility.yul\":26940:26954   */\n      lt\n        /* \"#utility.yul\":26932:27140   */\n      iszero\n      tag_642\n      jumpi\n        /* \"#utility.yul\":27025:27034   */\n      dup5\n        /* \"#utility.yul\":27020:27023   */\n      dup10\n        /* \"#utility.yul\":27016:27035   */\n      add\n        /* \"#utility.yul\":27010:27036   */\n      mload\n        /* \"#utility.yul\":27002:27008   */\n      dup3\n        /* \"#utility.yul\":26995:27037   */\n      sstore\n        /* \"#utility.yul\":27076:27077   */\n      0x01\n        /* \"#utility.yul\":27068:27074   */\n      dup3\n        /* \"#utility.yul\":27064:27078   */\n      add\n        /* \"#utility.yul\":27054:27078   */\n      swap2\n      pop\n        /* \"#utility.yul\":27123:27125   */\n      0x20\n        /* \"#utility.yul\":27112:27121   */\n      dup6\n        /* \"#utility.yul\":27108:27126   */\n      add\n        /* \"#utility.yul\":27095:27126   */\n      swap5\n      pop\n        /* \"#utility.yul\":26969:26973   */\n      0x20\n        /* \"#utility.yul\":26966:26967   */\n      dup2\n        /* \"#utility.yul\":26962:26974   */\n      add\n        /* \"#utility.yul\":26957:26974   */\n      swap1\n      pop\n        /* \"#utility.yul\":26932:27140   */\n      jump(tag_640)\n    tag_642:\n        /* \"#utility.yul\":27168:27174   */\n      dup7\n        /* \"#utility.yul\":27159:27166   */\n      dup4\n        /* \"#utility.yul\":27156:27175   */\n      lt\n        /* \"#utility.yul\":27153:27332   */\n      iszero\n      tag_643\n      jumpi\n        /* \"#utility.yul\":27226:27235   */\n      dup5\n        /* \"#utility.yul\":27221:27224   */\n      dup10\n        /* \"#utility.yul\":27217:27236   */\n      add\n        /* \"#utility.yul\":27211:27237   */\n      mload\n        /* \"#utility.yul\":27269:27317   */\n      tag_644\n        /* \"#utility.yul\":27311:27315   */\n      0x1f\n        /* \"#utility.yul\":27303:27309   */\n      dup10\n        /* \"#utility.yul\":27299:27316   */\n      and\n        /* \"#utility.yul\":27288:27297   */\n      dup3\n        /* \"#utility.yul\":27269:27317   */\n      tag_403\n      jump\t// in\n    tag_644:\n        /* \"#utility.yul\":27261:27267   */\n      dup4\n        /* \"#utility.yul\":27254:27318   */\n      sstore\n        /* \"#utility.yul\":27176:27332   */\n      pop\n        /* \"#utility.yul\":27153:27332   */\n    tag_643:\n        /* \"#utility.yul\":27378:27379   */\n      0x01\n        /* \"#utility.yul\":27374:27375   */\n      0x02\n        /* \"#utility.yul\":27366:27372   */\n      dup9\n        /* \"#utility.yul\":27362:27376   */\n      mul\n        /* \"#utility.yul\":27358:27380   */\n      add\n        /* \"#utility.yul\":27352:27356   */\n      dup9\n        /* \"#utility.yul\":27345:27381   */\n      sstore\n        /* \"#utility.yul\":26780:27391   */\n      pop\n      pop\n      pop\n        /* \"#utility.yul\":26743:27630   */\n    tag_635:\n      pop\n        /* \"#utility.yul\":26333:27636   */\n      pop\n      pop\n      pop\n        /* \"#utility.yul\":26241:27636   */\n      pop\n      pop\n      jump\t// out\n        /* \"#utility.yul\":27642:27808   */\n    tag_405:\n        /* \"#utility.yul\":27782:27800   */\n      0x5061757361626c653a2070617573656400000000000000000000000000000000\n        /* \"#utility.yul\":27778:27779   */\n      0x00\n        /* \"#utility.yul\":27770:27776   */\n      dup3\n        /* \"#utility.yul\":27766:27780   */\n      add\n        /* \"#utility.yul\":27759:27801   */\n      mstore\n        /* \"#utility.yul\":27642:27808   */\n      pop\n      jump\t// out\n        /* \"#utility.yul\":27814:28180   */\n    tag_406:\n        /* \"#utility.yul\":27956:27959   */\n      0x00\n        /* \"#utility.yul\":27977:28044   */\n      tag_647\n        /* \"#utility.yul\":28041:28043   */\n      0x10\n        /* \"#utility.yul\":28036:28039   */\n      dup4\n        /* \"#utility.yul\":27977:28044   */\n      tag_334\n      jump\t// in\n    tag_647:\n        /* \"#utility.yul\":27970:28044   */\n      swap2\n      pop\n        /* \"#utility.yul\":28053:28146   */\n      tag_648\n        /* \"#utility.yul\":28142:28145   */\n      dup3\n        /* \"#utility.yul\":28053:28146   */\n      tag_405\n      jump\t// in\n    tag_648:\n        /* \"#utility.yul\":28171:28173   */\n      0x20\n        /* \"#utility.yul\":28166:28169   */\n      dup3\n        /* \"#utility.yul\":28162:28174   */\n      add\n        /* \"#utility.yul\":28155:28174   */\n      swap1\n      pop\n        /* \"#utility.yul\":27814:28180   */\n      swap2\n      swap1\n      pop\n      jump\t// out\n        /* \"#utility.yul\":28186:28605   */\n    tag_331:\n        /* \"#utility.yul\":28352:28356   */\n      0x00\n        /* \"#utility.yul\":28390:28392   */\n      0x20\n        /* \"#utility.yul\":28379:28388   */\n      dup3\n        /* \"#utility.yul\":28375:28393   */\n      add\n        /* \"#utility.yul\":28367:28393   */\n      swap1\n      pop\n        /* \"#utility.yul\":28439:28448   */\n      dup2\n        /* \"#utility.yul\":28433:28437   */\n      dup2\n        /* \"#utility.yul\":28429:28449   */\n      sub\n        /* \"#utility.yul\":28425:28426   */\n      0x00\n        /* \"#utility.yul\":28414:28423   */\n      dup4\n        /* \"#utility.yul\":28410:28427   */\n      add\n        /* \"#utility.yul\":28403:28450   */\n      mstore\n        /* \"#utility.yul\":28467:28598   */\n      tag_650\n        /* \"#utility.yul\":28593:28597   */\n      dup2\n        /* \"#utility.yul\":28467:28598   */\n      tag_406\n      jump\t// in\n    tag_650:\n        /* \"#utility.yul\":28459:28598   */\n      swap1\n      pop\n        /* \"#utility.yul\":28186:28605   */\n      swap2\n      swap1\n      pop\n      jump\t// out\n\n    auxdata: 0xa2646970667358221220d7e0fb5663aa8f37089277f94228afd796674c7e1da46604b1c557425b526d0e64736f6c63430008120033\n}\n",
				"bytecode": {
					"linkReferences": {},
					"object": "60806040523480156200001157600080fd5b50620000226200002860201b60201c565b620001d3565b600060019054906101000a900460ff16156200007b576040517f08c379a0000000000000000000000000000000000000000000000000000000008152600401620000729062000176565b60405180910390fd5b60ff801660008054906101000a900460ff1660ff161015620000ed5760ff6000806101000a81548160ff021916908360ff1602179055507f7f26b83ff96e1f2b6a682f133852f6798a09c465da95921460cefb384740249860ff604051620000e49190620001b6565b60405180910390a15b565b600082825260208201905092915050565b7f496e697469616c697a61626c653a20636f6e747261637420697320696e69746960008201527f616c697a696e6700000000000000000000000000000000000000000000000000602082015250565b60006200015e602783620000ef565b91506200016b8262000100565b604082019050919050565b6000602082019050818103600083015262000191816200014f565b9050919050565b600060ff82169050919050565b620001b08162000198565b82525050565b6000602082019050620001cd6000830184620001a5565b92915050565b61271f80620001e36000396000f3fe608060405234801561001057600080fd5b50600436106101375760003560e01c806370a08231116100b85780638da5cb5b1161007c5780638da5cb5b146102f057806395d89b411461030e578063a457c2d71461032c578063a9059cbb1461035c578063dd62ed3e1461038c578063f2fde38b146103bc57610137565b806370a0823114610286578063715018a6146102b657806379cc6790146102c05780638129fc1c146102dc5780638456cb59146102e657610137565b806339509351116100ff57806339509351146101f65780633f4ba83a1461022657806340c10f191461023057806342966c681461024c5780635c975abb1461026857610137565b806306fdde031461013c578063095ea7b31461015a57806318160ddd1461018a57806323b872dd146101a8578063313ce567146101d8575b600080fd5b6101446103d8565b6040516101519190611818565b60405180910390f35b610174600480360381019061016f91906118d3565b61046a565b604051610181919061192e565b60405180910390f35b61019261048d565b60405161019f9190611958565b60405180910390f35b6101c260048036038101906101bd9190611973565b610497565b6040516101cf919061192e565b60405180910390f35b6101e06104c6565b6040516101ed91906119e2565b60405180910390f35b610210600480360381019061020b91906118d3565b6104cf565b60405161021d919061192e565b60405180910390f35b61022e610506565b005b61024a600480360381019061024591906118d3565b610518565b005b610266600480360381019061026191906119fd565b61052e565b005b610270610542565b60405161027d919061192e565b60405180910390f35b6102a0600480360381019061029b9190611a2a565b610559565b6040516102ad9190611958565b60405180910390f35b6102be6105a2565b005b6102da60048036038101906102d591906118d3565b6105b6565b005b6102e46105d6565b005b6102ee610798565b005b6102f86107aa565b6040516103059190611a66565b60405180910390f35b6103166107d4565b6040516103239190611818565b60405180910390f35b610346600480360381019061034191906118d3565b610866565b604051610353919061192e565b60405180910390f35b610376600480360381019061037191906118d3565b6108dd565b604051610383919061192e565b60405180910390f35b6103a660048036038101906103a19190611a81565b610900565b6040516103b39190611958565b60405180910390f35b6103d660048036038101906103d19190611a2a565b610987565b005b6060603680546103e790611af0565b80601f016020809104026020016040519081016040528092919081815260200182805461041390611af0565b80156104605780601f1061043557610100808354040283529160200191610460565b820191906000526020600020905b81548152906001019060200180831161044357829003601f168201915b5050505050905090565b600080610475610a0a565b9050610482818585610a12565b600191505092915050565b6000603554905090565b6000806104a2610a0a565b90506104af858285610bdb565b6104ba858585610c67565b60019150509392505050565b60006012905090565b6000806104da610a0a565b90506104fb8185856104ec8589610900565b6104f69190611b50565b610a12565b600191505092915050565b61050e610ee0565b610516610f5e565b565b610520610ee0565b61052a8282610fc1565b5050565b61053f610539610a0a565b82611118565b50565b6000609760009054906101000a900460ff16905090565b6000603360008373ffffffffffffffffffffffffffffffffffffffff1673ffffffffffffffffffffffffffffffffffffffff168152602001908152602001600020549050919050565b6105aa610ee0565b6105b460006112e7565b565b6105c8826105c2610a0a565b83610bdb565b6105d28282611118565b5050565b60008060019054906101000a900460ff161590508080156106075750600160008054906101000a900460ff1660ff16105b806106345750610616306113ad565b1580156106335750600160008054906101000a900460ff1660ff16145b5b610673576040517f08c379a000000000000000000000000000000000000000000000000000000000815260040161066a90611bf6565b60405180910390fd5b60016000806101000a81548160ff021916908360ff16021790555080156106b0576001600060016101000a81548160ff0219169083151502179055505b6107246040518060400160405280600781526020017f4d79546f6b656e000000000000000000000000000000000000000000000000008152506040518060400160405280600381526020017f4d544b00000000000000000000000000000000000000000000000000000000008152506113d0565b61072c61142d565b61073461147e565b61073c6114d7565b80156107955760008060016101000a81548160ff0219169083151502179055507f7f26b83ff96e1f2b6a682f133852f6798a09c465da95921460cefb3847402498600160405161078c9190611c5b565b60405180910390a15b50565b6107a0610ee0565b6107a8611530565b565b600060c960009054906101000a900473ffffffffffffffffffffffffffffffffffffffff16905090565b6060603780546107e390611af0565b80601f016020809104026020016040519081016040528092919081815260200182805461080f90611af0565b801561085c5780601f106108315761010080835404028352916020019161085c565b820191906000526020600020905b81548152906001019060200180831161083f57829003601f168201915b5050505050905090565b600080610871610a0a565b9050600061087f8286610900565b9050838110156108c4576040517f08c379a00000000000000000000000000000000000000000000000000000000081526004016108bb90611ce8565b60405180910390fd5b6108d18286868403610a12565b60019250505092915050565b6000806108e8610a0a565b90506108f5818585610c67565b600191505092915050565b6000603460008473ffffffffffffffffffffffffffffffffffffffff1673ffffffffffffffffffffffffffffffffffffffff16815260200190815260200160002060008373ffffffffffffffffffffffffffffffffffffffff1673ffffffffffffffffffffffffffffffffffffffff16815260200190815260200160002054905092915050565b61098f610ee0565b600073ffffffffffffffffffffffffffffffffffffffff168173ffffffffffffffffffffffffffffffffffffffff16036109fe576040517f08c379a00000000000000000000000000000000000000000000000000000000081526004016109f590611d7a565b60405180910390fd5b610a07816112e7565b50565b600033905090565b600073ffffffffffffffffffffffffffffffffffffffff168373ffffffffffffffffffffffffffffffffffffffff1603610a81576040517f08c379a0000000000000000000000000000000000000000000000000000000008152600401610a7890611e0c565b60405180910390fd5b600073ffffffffffffffffffffffffffffffffffffffff168273ffffffffffffffffffffffffffffffffffffffff1603610af0576040517f08c379a0000000000000000000000000000000000000000000000000000000008152600401610ae790611e9e565b60405180910390fd5b80603460008573ffffffffffffffffffffffffffffffffffffffff1673ffffffffffffffffffffffffffffffffffffffff16815260200190815260200160002060008473ffffffffffffffffffffffffffffffffffffffff1673ffffffffffffffffffffffffffffffffffffffff168152602001908152602001600020819055508173ffffffffffffffffffffffffffffffffffffffff168373ffffffffffffffffffffffffffffffffffffffff167f8c5be1e5ebec7d5bd14f71427d1e84f3dd0314c0f7b2291e5b200ac8c7c3b92583604051610bce9190611958565b60405180910390a3505050565b6000610be78484610900565b90507fffffffffffffffffffffffffffffffffffffffffffffffffffffffffffffffff8114610c615781811015610c53576040517f08c379a0000000000000000000000000000000000000000000000000000000008152600401610c4a90611f0a565b60405180910390fd5b610c608484848403610a12565b5b50505050565b600073ffffffffffffffffffffffffffffffffffffffff168373ffffffffffffffffffffffffffffffffffffffff1603610cd6576040517f08c379a0000000000000000000000000000000000000000000000000000000008152600401610ccd90611f9c565b60405180910390fd5b600073ffffffffffffffffffffffffffffffffffffffff168273ffffffffffffffffffffffffffffffffffffffff1603610d45576040517f08c379a0000000000000000000000000000000000000000000000000000000008152600401610d3c9061202e565b60405180910390fd5b610d50838383611593565b6000603360008573ffffffffffffffffffffffffffffffffffffffff1673ffffffffffffffffffffffffffffffffffffffff16815260200190815260200160002054905081811015610dd7576040517f08c379a0000000000000000000000000000000000000000000000000000000008152600401610dce906120c0565b60405180910390fd5b818103603360008673ffffffffffffffffffffffffffffffffffffffff1673ffffffffffffffffffffffffffffffffffffffff1681526020019081526020016000208190555081603360008573ffffffffffffffffffffffffffffffffffffffff1673ffffffffffffffffffffffffffffffffffffffff168152602001908152602001600020600082825401925050819055508273ffffffffffffffffffffffffffffffffffffffff168473ffffffffffffffffffffffffffffffffffffffff167fddf252ad1be2c89b69c2b068fc378daa952ba7f163c4a11628f55a4df523b3ef84604051610ec79190611958565b60405180910390a3610eda8484846115ab565b50505050565b610ee8610a0a565b73ffffffffffffffffffffffffffffffffffffffff16610f066107aa565b73ffffffffffffffffffffffffffffffffffffffff1614610f5c576040517f08c379a0000000000000000000000000000000000000000000000000000000008152600401610f539061212c565b60405180910390fd5b565b610f666115b0565b6000609760006101000a81548160ff0219169083151502179055507f5db9ee0a495bf2e6ff9c91a7834c1ba4fdd244a5e8aa4e537bd38aeae4b073aa610faa610a0a565b604051610fb79190611a66565b60405180910390a1565b600073ffffffffffffffffffffffffffffffffffffffff168273ffffffffffffffffffffffffffffffffffffffff1603611030576040517f08c379a000000000000000000000000000000000000000000000000000000000815260040161102790612198565b60405180910390fd5b61103c60008383611593565b806035600082825461104e9190611b50565b9250508190555080603360008473ffffffffffffffffffffffffffffffffffffffff1673ffffffffffffffffffffffffffffffffffffffff168152602001908152602001600020600082825401925050819055508173ffffffffffffffffffffffffffffffffffffffff16600073ffffffffffffffffffffffffffffffffffffffff167fddf252ad1be2c89b69c2b068fc378daa952ba7f163c4a11628f55a4df523b3ef836040516111009190611958565b60405180910390a3611114600083836115ab565b5050565b600073ffffffffffffffffffffffffffffffffffffffff168273ffffffffffffffffffffffffffffffffffffffff1603611187576040517f08c379a000000000000000000000000000000000000000000000000000000000815260040161117e9061222a565b60405180910390fd5b61119382600083611593565b6000603360008473ffffffffffffffffffffffffffffffffffffffff1673ffffffffffffffffffffffffffffffffffffffff1681526020019081526020016000205490508181101561121a576040517f08c379a0000000000000000000000000000000000000000000000000000000008152600401611211906122bc565b60405180910390fd5b818103603360008573ffffffffffffffffffffffffffffffffffffffff1673ffffffffffffffffffffffffffffffffffffffff1681526020019081526020016000208190555081603560008282540392505081905550600073ffffffffffffffffffffffffffffffffffffffff168373ffffffffffffffffffffffffffffffffffffffff167fddf252ad1be2c89b69c2b068fc378daa952ba7f163c4a11628f55a4df523b3ef846040516112ce9190611958565b60405180910390a36112e2836000846115ab565b505050565b600060c960009054906101000a900473ffffffffffffffffffffffffffffffffffffffff1690508160c960006101000a81548173ffffffffffffffffffffffffffffffffffffffff021916908373ffffffffffffffffffffffffffffffffffffffff1602179055508173ffffffffffffffffffffffffffffffffffffffff168173ffffffffffffffffffffffffffffffffffffffff167f8be0079c531659141344cd1fd0a4f28419497f9722a3daafe3b4186f6b6457e060405160405180910390a35050565b6000808273ffffffffffffffffffffffffffffffffffffffff163b119050919050565b600060019054906101000a900460ff1661141f576040517f08c379a00000000000000000000000000000000000000000000000000000000081526004016114169061234e565b60405180910390fd5b61142982826115f9565b5050565b600060019054906101000a900460ff1661147c576040517f08c379a00000000000000000000000000000000000000000000000000000000081526004016114739061234e565b60405180910390fd5b565b600060019054906101000a900460ff166114cd576040517f08c379a00000000000000000000000000000000000000000000000000000000081526004016114c49061234e565b60405180910390fd5b6114d561166c565b565b600060019054906101000a900460ff16611526576040517f08c379a000000000000000000000000000000000000000000000000000000000815260040161151d9061234e565b60405180910390fd5b61152e6116d8565b565b611538611739565b6001609760006101000a81548160ff0219169083151502179055507f62e78cea01bee320cd4e420270b5ea74000d11b0c9f74754ebdbfc544b05a25861157c610a0a565b6040516115899190611a66565b60405180910390a1565b61159b611739565b6115a6838383611783565b505050565b505050565b6115b8610542565b6115f7576040517f08c379a00000000000000000000000000000000000000000000000000000000081526004016115ee906123ba565b60405180910390fd5b565b600060019054906101000a900460ff16611648576040517f08c379a000000000000000000000000000000000000000000000000000000000815260040161163f9061234e565b60405180910390fd5b816036908161165791906125ab565b50806037908161166791906125ab565b505050565b600060019054906101000a900460ff166116bb576040517f08c379a00000000000000000000000000000000000000000000000000000000081526004016116b29061234e565b60405180910390fd5b6000609760006101000a81548160ff021916908315150217905550565b600060019054906101000a900460ff16611727576040517f08c379a000000000000000000000000000000000000000000000000000000000815260040161171e9061234e565b60405180910390fd5b611737611732610a0a565b6112e7565b565b611741610542565b15611781576040517f08c379a0000000000000000000000000000000000000000000000000000000008152600401611778906126c9565b60405180910390fd5b565b505050565b600081519050919050565b600082825260208201905092915050565b60005b838110156117c25780820151818401526020810190506117a7565b60008484015250505050565b6000601f19601f8301169050919050565b60006117ea82611788565b6117f48185611793565b93506118048185602086016117a4565b61180d816117ce565b840191505092915050565b6000602082019050818103600083015261183281846117df565b905092915050565b600080fd5b600073ffffffffffffffffffffffffffffffffffffffff82169050919050565b600061186a8261183f565b9050919050565b61187a8161185f565b811461188557600080fd5b50565b60008135905061189781611871565b92915050565b6000819050919050565b6118b08161189d565b81146118bb57600080fd5b50565b6000813590506118cd816118a7565b92915050565b600080604083850312156118ea576118e961183a565b5b60006118f885828601611888565b9250506020611909858286016118be565b9150509250929050565b60008115159050919050565b61192881611913565b82525050565b6000602082019050611943600083018461191f565b92915050565b6119528161189d565b82525050565b600060208201905061196d6000830184611949565b92915050565b60008060006060848603121561198c5761198b61183a565b5b600061199a86828701611888565b93505060206119ab86828701611888565b92505060406119bc868287016118be565b9150509250925092565b600060ff82169050919050565b6119dc816119c6565b82525050565b60006020820190506119f760008301846119d3565b92915050565b600060208284031215611a1357611a1261183a565b5b6000611a21848285016118be565b91505092915050565b600060208284031215611a4057611a3f61183a565b5b6000611a4e84828501611888565b91505092915050565b611a608161185f565b82525050565b6000602082019050611a7b6000830184611a57565b92915050565b60008060408385031215611a9857611a9761183a565b5b6000611aa685828601611888565b9250506020611ab785828601611888565b9150509250929050565b7f4e487b7100000000000000000000000000000000000000000000000000000000600052602260045260246000fd5b60006002820490506001821680611b0857607f821691505b602082108103611b1b57611b1a611ac1565b5b50919050565b7f4e487b7100000000000000000000000000000000000000000000000000000000600052601160045260246000fd5b6000611b5b8261189d565b9150611b668361189d565b9250828201905080821115611b7e57611b7d611b21565b5b92915050565b7f496e697469616c697a61626c653a20636f6e747261637420697320616c72656160008201527f647920696e697469616c697a6564000000000000000000000000000000000000602082015250565b6000611be0602e83611793565b9150611beb82611b84565b604082019050919050565b60006020820190508181036000830152611c0f81611bd3565b9050919050565b6000819050919050565b6000819050919050565b6000611c45611c40611c3b84611c16565b611c20565b6119c6565b9050919050565b611c5581611c2a565b82525050565b6000602082019050611c706000830184611c4c565b92915050565b7f45524332303a2064656372656173656420616c6c6f77616e63652062656c6f7760008201527f207a65726f000000000000000000000000000000000000000000000000000000602082015250565b6000611cd2602583611793565b9150611cdd82611c76565b604082019050919050565b60006020820190508181036000830152611d0181611cc5565b9050919050565b7f4f776e61626c653a206e6577206f776e657220697320746865207a65726f206160008201527f6464726573730000000000000000000000000000000000000000000000000000602082015250565b6000611d64602683611793565b9150611d6f82611d08565b604082019050919050565b60006020820190508181036000830152611d9381611d57565b9050919050565b7f45524332303a20617070726f76652066726f6d20746865207a65726f2061646460008201527f7265737300000000000000000000000000000000000000000000000000000000602082015250565b6000611df6602483611793565b9150611e0182611d9a565b604082019050919050565b60006020820190508181036000830152611e2581611de9565b9050919050565b7f45524332303a20617070726f766520746f20746865207a65726f20616464726560008201527f7373000000000000000000000000000000000000000000000000000000000000602082015250565b6000611e88602283611793565b9150611e9382611e2c565b604082019050919050565b60006020820190508181036000830152611eb781611e7b565b9050919050565b7f45524332303a20696e73756666696369656e7420616c6c6f77616e6365000000600082015250565b6000611ef4601d83611793565b9150611eff82611ebe565b602082019050919050565b60006020820190508181036000830152611f2381611ee7565b9050919050565b7f45524332303a207472616e736665722066726f6d20746865207a65726f20616460008201527f6472657373000000000000000000000000000000000000000000000000000000602082015250565b6000611f86602583611793565b9150611f9182611f2a565b604082019050919050565b60006020820190508181036000830152611fb581611f79565b9050919050565b7f45524332303a207472616e7366657220746f20746865207a65726f206164647260008201527f6573730000000000000000000000000000000000000000000000000000000000602082015250565b6000612018602383611793565b915061202382611fbc565b604082019050919050565b600060208201905081810360008301526120478161200b565b9050919050565b7f45524332303a207472616e7366657220616d6f756e742065786365656473206260008201527f616c616e63650000000000000000000000000000000000000000000000000000602082015250565b60006120aa602683611793565b91506120b58261204e565b604082019050919050565b600060208201905081810360008301526120d98161209d565b9050919050565b7f4f776e61626c653a2063616c6c6572206973206e6f7420746865206f776e6572600082015250565b6000612116602083611793565b9150612121826120e0565b602082019050919050565b6000602082019050818103600083015261214581612109565b9050919050565b7f45524332303a206d696e7420746f20746865207a65726f206164647265737300600082015250565b6000612182601f83611793565b915061218d8261214c565b602082019050919050565b600060208201905081810360008301526121b181612175565b9050919050565b7f45524332303a206275726e2066726f6d20746865207a65726f2061646472657360008201527f7300000000000000000000000000000000000000000000000000000000000000602082015250565b6000612214602183611793565b915061221f826121b8565b604082019050919050565b6000602082019050818103600083015261224381612207565b9050919050565b7f45524332303a206275726e20616d6f756e7420657863656564732062616c616e60008201527f6365000000000000000000000000000000000000000000000000000000000000602082015250565b60006122a6602283611793565b91506122b18261224a565b604082019050919050565b600060208201905081810360008301526122d581612299565b9050919050565b7f496e697469616c697a61626c653a20636f6e7472616374206973206e6f74206960008201527f6e697469616c697a696e67000000000000000000000000000000000000000000602082015250565b6000612338602b83611793565b9150612343826122dc565b604082019050919050565b600060208201905081810360008301526123678161232b565b9050919050565b7f5061757361626c653a206e6f7420706175736564000000000000000000000000600082015250565b60006123a4601483611793565b91506123af8261236e565b602082019050919050565b600060208201905081810360008301526123d381612397565b9050919050565b7f4e487b7100000000000000000000000000000000000000000000000000000000600052604160045260246000fd5b60008190508160005260206000209050919050565b60006020601f8301049050919050565b600082821b905092915050565b60006008830261246b7fffffffffffffffffffffffffffffffffffffffffffffffffffffffffffffffff8261242e565b612475868361242e565b95508019841693508086168417925050509392505050565b60006124a86124a361249e8461189d565b611c20565b61189d565b9050919050565b6000819050919050565b6124c28361248d565b6124d66124ce826124af565b84845461243b565b825550505050565b600090565b6124eb6124de565b6124f68184846124b9565b505050565b5b8181101561251a5761250f6000826124e3565b6001810190506124fc565b5050565b601f82111561255f5761253081612409565b6125398461241e565b81016020851015612548578190505b61255c6125548561241e565b8301826124fb565b50505b505050565b600082821c905092915050565b600061258260001984600802612564565b1980831691505092915050565b600061259b8383612571565b9150826002028217905092915050565b6125b482611788565b67ffffffffffffffff8111156125cd576125cc6123da565b5b6125d78254611af0565b6125e282828561251e565b600060209050601f8311600181146126155760008415612603578287015190505b61260d858261258f565b865550612675565b601f19841661262386612409565b60005b8281101561264b57848901518255600182019150602085019450602081019050612626565b868310156126685784890151612664601f891682612571565b8355505b6001600288020188555050505b505050505050565b7f5061757361626c653a2070617573656400000000000000000000000000000000600082015250565b60006126b3601083611793565b91506126be8261267d565b602082019050919050565b600060208201905081810360008301526126e2816126a6565b905091905056fea2646970667358221220d7e0fb5663aa8f37089277f94228afd796674c7e1da46604b1c557425b526d0e64736f6c63430008120033",
					"opcodes": "PUSH1 0x80 PUSH1 0x40 MSTORE CALLVALUE DUP1 ISZERO PUSH3 0x11 JUMPI PUSH1 0x0 DUP1 REVERT JUMPDEST POP PUSH3 0x22 PUSH3 0x28 PUSH1 0x20 SHL PUSH1 0x20 SHR JUMP JUMPDEST PUSH3 0x1D3 JUMP JUMPDEST PUSH1 0x0 PUSH1 0x1 SWAP1 SLOAD SWAP1 PUSH2 0x100 EXP SWAP1 DIV PUSH1 0xFF AND ISZERO PUSH3 0x7B JUMPI PUSH1 0x40 MLOAD PUSH32 0x8C379A000000000000000000000000000000000000000000000000000000000 DUP2 MSTORE PUSH1 0x4 ADD PUSH3 0x72 SWAP1 PUSH3 0x176 JUMP JUMPDEST PUSH1 0x40 MLOAD DUP1 SWAP2 SUB SWAP1 REVERT JUMPDEST PUSH1 0xFF DUP1 AND PUSH1 0x0 DUP1 SLOAD SWAP1 PUSH2 0x100 EXP SWAP1 DIV PUSH1 0xFF AND PUSH1 0xFF AND LT ISZERO PUSH3 0xED JUMPI PUSH1 0xFF PUSH1 0x0 DUP1 PUSH2 0x100 EXP DUP2 SLOAD DUP2 PUSH1 0xFF MUL NOT AND SWAP1 DUP4 PUSH1 0xFF AND MUL OR SWAP1 SSTORE POP PUSH32 0x7F26B83FF96E1F2B6A682F133852F6798A09C465DA95921460CEFB3847402498 PUSH1 0xFF PUSH1 0x40 MLOAD PUSH3 0xE4 SWAP2 SWAP1 PUSH3 0x1B6 JUMP JUMPDEST PUSH1 0x40 MLOAD DUP1 SWAP2 SUB SWAP1 LOG1 JUMPDEST JUMP JUMPDEST PUSH1 0x0 DUP3 DUP3 MSTORE PUSH1 0x20 DUP3 ADD SWAP1 POP SWAP3 SWAP2 POP POP JUMP JUMPDEST PUSH32 0x496E697469616C697A61626C653A20636F6E747261637420697320696E697469 PUSH1 0x0 DUP3 ADD MSTORE PUSH32 0x616C697A696E6700000000000000000000000000000000000000000000000000 PUSH1 0x20 DUP3 ADD MSTORE POP JUMP JUMPDEST PUSH1 0x0 PUSH3 0x15E PUSH1 0x27 DUP4 PUSH3 0xEF JUMP JUMPDEST SWAP2 POP PUSH3 0x16B DUP3 PUSH3 0x100 JUMP JUMPDEST PUSH1 0x40 DUP3 ADD SWAP1 POP SWAP2 SWAP1 POP JUMP JUMPDEST PUSH1 0x0 PUSH1 0x20 DUP3 ADD SWAP1 POP DUP2 DUP2 SUB PUSH1 0x0 DUP4 ADD MSTORE PUSH3 0x191 DUP2 PUSH3 0x14F JUMP JUMPDEST SWAP1 POP SWAP2 SWAP1 POP JUMP JUMPDEST PUSH1 0x0 PUSH1 0xFF DUP3 AND SWAP1 POP SWAP2 SWAP1 POP JUMP JUMPDEST PUSH3 0x1B0 DUP2 PUSH3 0x198 JUMP JUMPDEST DUP3 MSTORE POP POP JUMP JUMPDEST PUSH1 0x0 PUSH1 0x20 DUP3 ADD SWAP1 POP PUSH3 0x1CD PUSH1 0x0 DUP4 ADD DUP5 PUSH3 0x1A5 JUMP JUMPDEST SWAP3 SWAP2 POP POP JUMP JUMPDEST PUSH2 0x271F DUP1 PUSH3 0x1E3 PUSH1 0x0 CODECOPY PUSH1 0x0 RETURN INVALID PUSH1 0x80 PUSH1 0x40 MSTORE CALLVALUE DUP1 ISZERO PUSH2 0x10 JUMPI PUSH1 0x0 DUP1 REVERT JUMPDEST POP PUSH1 0x4 CALLDATASIZE LT PUSH2 0x137 JUMPI PUSH1 0x0 CALLDATALOAD PUSH1 0xE0 SHR DUP1 PUSH4 0x70A08231 GT PUSH2 0xB8 JUMPI DUP1 PUSH4 0x8DA5CB5B GT PUSH2 0x7C JUMPI DUP1 PUSH4 0x8DA5CB5B EQ PUSH2 0x2F0 JUMPI DUP1 PUSH4 0x95D89B41 EQ PUSH2 0x30E JUMPI DUP1 PUSH4 0xA457C2D7 EQ PUSH2 0x32C JUMPI DUP1 PUSH4 0xA9059CBB EQ PUSH2 0x35C JUMPI DUP1 PUSH4 0xDD62ED3E EQ PUSH2 0x38C JUMPI DUP1 PUSH4 0xF2FDE38B EQ PUSH2 0x3BC JUMPI PUSH2 0x137 JUMP JUMPDEST DUP1 PUSH4 0x70A08231 EQ PUSH2 0x286 JUMPI DUP1 PUSH4 0x715018A6 EQ PUSH2 0x2B6 JUMPI DUP1 PUSH4 0x79CC6790 EQ PUSH2 0x2C0 JUMPI DUP1 PUSH4 0x8129FC1C EQ PUSH2 0x2DC JUMPI DUP1 PUSH4 0x8456CB59 EQ PUSH2 0x2E6 JUMPI PUSH2 0x137 JUMP JUMPDEST DUP1 PUSH4 0x39509351 GT PUSH2 0xFF JUMPI DUP1 PUSH4 0x39509351 EQ PUSH2 0x1F6 JUMPI DUP1 PUSH4 0x3F4BA83A EQ PUSH2 0x226 JUMPI DUP1 PUSH4 0x40C10F19 EQ PUSH2 0x230 JUMPI DUP1 PUSH4 0x42966C68 EQ PUSH2 0x24C JUMPI DUP1 PUSH4 0x5C975ABB EQ PUSH2 0x268 JUMPI PUSH2 0x137 JUMP JUMPDEST DUP1 PUSH4 0x6FDDE03 EQ PUSH2 0x13C JUMPI DUP1 PUSH4 0x95EA7B3 EQ PUSH2 0x15A JUMPI DUP1 PUSH4 0x18160DDD EQ PUSH2 0x18A JUMPI DUP1 PUSH4 0x23B872DD EQ PUSH2 0x1A8 JUMPI DUP1 PUSH4 0x313CE567 EQ PUSH2 0x1D8 JUMPI JUMPDEST PUSH1 0x0 DUP1 REVERT JUMPDEST PUSH2 0x144 PUSH2 0x3D8 JUMP JUMPDEST PUSH1 0x40 MLOAD PUSH2 0x151 SWAP2 SWAP1 PUSH2 0x1818 JUMP JUMPDEST PUSH1 0x40 MLOAD DUP1 SWAP2 SUB SWAP1 RETURN JUMPDEST PUSH2 0x174 PUSH1 0x4 DUP1 CALLDATASIZE SUB DUP2 ADD SWAP1 PUSH2 0x16F SWAP2 SWAP1 PUSH2 0x18D3 JUMP JUMPDEST PUSH2 0x46A JUMP JUMPDEST PUSH1 0x40 MLOAD PUSH2 0x181 SWAP2 SWAP1 PUSH2 0x192E JUMP JUMPDEST PUSH1 0x40 MLOAD DUP1 SWAP2 SUB SWAP1 RETURN JUMPDEST PUSH2 0x192 PUSH2 0x48D JUMP JUMPDEST PUSH1 0x40 MLOAD PUSH2 0x19F SWAP2 SWAP1 PUSH2 0x1958 JUMP JUMPDEST PUSH1 0x40 MLOAD DUP1 SWAP2 SUB SWAP1 RETURN JUMPDEST PUSH2 0x1C2 PUSH1 0x4 DUP1 CALLDATASIZE SUB DUP2 ADD SWAP1 PUSH2 0x1BD SWAP2 SWAP1 PUSH2 0x1973 JUMP JUMPDEST PUSH2 0x497 JUMP JUMPDEST PUSH1 0x40 MLOAD PUSH2 0x1CF SWAP2 SWAP1 PUSH2 0x192E JUMP JUMPDEST PUSH1 0x40 MLOAD DUP1 SWAP2 SUB SWAP1 RETURN JUMPDEST PUSH2 0x1E0 PUSH2 0x4C6 JUMP JUMPDEST PUSH1 0x40 MLOAD PUSH2 0x1ED SWAP2 SWAP1 PUSH2 0x19E2 JUMP JUMPDEST PUSH1 0x40 MLOAD DUP1 SWAP2 SUB SWAP1 RETURN JUMPDEST PUSH2 0x210 PUSH1 0x4 DUP1 CALLDATASIZE SUB DUP2 ADD SWAP1 PUSH2 0x20B SWAP2 SWAP1 PUSH2 0x18D3 JUMP JUMPDEST PUSH2 0x4CF JUMP JUMPDEST PUSH1 0x40 MLOAD PUSH2 0x21D SWAP2 SWAP1 PUSH2 0x192E JUMP JUMPDEST PUSH1 0x40 MLOAD DUP1 SWAP2 SUB SWAP1 RETURN JUMPDEST PUSH2 0x22E PUSH2 0x506 JUMP JUMPDEST STOP JUMPDEST PUSH2 0x24A PUSH1 0x4 DUP1 CALLDATASIZE SUB DUP2 ADD SWAP1 PUSH2 0x245 SWAP2 SWAP1 PUSH2 0x18D3 JUMP JUMPDEST PUSH2 0x518 JUMP JUMPDEST STOP JUMPDEST PUSH2 0x266 PUSH1 0x4 DUP1 CALLDATASIZE SUB DUP2 ADD SWAP1 PUSH2 0x261 SWAP2 SWAP1 PUSH2 0x19FD JUMP JUMPDEST PUSH2 0x52E JUMP JUMPDEST STOP JUMPDEST PUSH2 0x270 PUSH2 0x542 JUMP JUMPDEST PUSH1 0x40 MLOAD PUSH2 0x27D SWAP2 SWAP1 PUSH2 0x192E JUMP JUMPDEST PUSH1 0x40 MLOAD DUP1 SWAP2 SUB SWAP1 RETURN JUMPDEST PUSH2 0x2A0 PUSH1 0x4 DUP1 CALLDATASIZE SUB DUP2 ADD SWAP1 PUSH2 0x29B SWAP2 SWAP1 PUSH2 0x1A2A JUMP JUMPDEST PUSH2 0x559 JUMP JUMPDEST PUSH1 0x40 MLOAD PUSH2 0x2AD SWAP2 SWAP1 PUSH2 0x1958 JUMP JUMPDEST PUSH1 0x40 MLOAD DUP1 SWAP2 SUB SWAP1 RETURN JUMPDEST PUSH2 0x2BE PUSH2 0x5A2 JUMP JUMPDEST STOP JUMPDEST PUSH2 0x2DA PUSH1 0x4 DUP1 CALLDATASIZE SUB DUP2 ADD SWAP1 PUSH2 0x2D5 SWAP2 SWAP1 PUSH2 0x18D3 JUMP JUMPDEST PUSH2 0x5B6 JUMP JUMPDEST STOP JUMPDEST PUSH2 0x2E4 PUSH2 0x5D6 JUMP JUMPDEST STOP JUMPDEST PUSH2 0x2EE PUSH2 0x798 JUMP JUMPDEST STOP JUMPDEST PUSH2 0x2F8 PUSH2 0x7AA JUMP JUMPDEST PUSH1 0x40 MLOAD PUSH2 0x305 SWAP2 SWAP1 PUSH2 0x1A66 JUMP JUMPDEST PUSH1 0x40 MLOAD DUP1 SWAP2 SUB SWAP1 RETURN JUMPDEST PUSH2 0x316 PUSH2 0x7D4 JUMP JUMPDEST PUSH1 0x40 MLOAD PUSH2 0x323 SWAP2 SWAP1 PUSH2 0x1818 JUMP JUMPDEST PUSH1 0x40 MLOAD DUP1 SWAP2 SUB SWAP1 RETURN JUMPDEST PUSH2 0x346 PUSH1 0x4 DUP1 CALLDATASIZE SUB DUP2 ADD SWAP1 PUSH2 0x341 SWAP2 SWAP1 PUSH2 0x18D3 JUMP JUMPDEST PUSH2 0x866 JUMP JUMPDEST PUSH1 0x40 MLOAD PUSH2 0x353 SWAP2 SWAP1 PUSH2 0x192E JUMP JUMPDEST PUSH1 0x40 MLOAD DUP1 SWAP2 SUB SWAP1 RETURN JUMPDEST PUSH2 0x376 PUSH1 0x4 DUP1 CALLDATASIZE SUB DUP2 ADD SWAP1 PUSH2 0x371 SWAP2 SWAP1 PUSH2 0x18D3 JUMP JUMPDEST PUSH2 0x8DD JUMP JUMPDEST PUSH1 0x40 MLOAD PUSH2 0x383 SWAP2 SWAP1 PUSH2 0x192E JUMP JUMPDEST PUSH1 0x40 MLOAD DUP1 SWAP2 SUB SWAP1 RETURN JUMPDEST PUSH2 0x3A6 PUSH1 0x4 DUP1 CALLDATASIZE SUB DUP2 ADD SWAP1 PUSH2 0x3A1 SWAP2 SWAP1 PUSH2 0x1A81 JUMP JUMPDEST PUSH2 0x900 JUMP JUMPDEST PUSH1 0x40 MLOAD PUSH2 0x3B3 SWAP2 SWAP1 PUSH2 0x1958 JUMP JUMPDEST PUSH1 0x40 MLOAD DUP1 SWAP2 SUB SWAP1 RETURN JUMPDEST PUSH2 0x3D6 PUSH1 0x4 DUP1 CALLDATASIZE SUB DUP2 ADD SWAP1 PUSH2 0x3D1 SWAP2 SWAP1 PUSH2 0x1A2A JUMP JUMPDEST PUSH2 0x987 JUMP JUMPDEST STOP JUMPDEST PUSH1 0x60 PUSH1 0x36 DUP1 SLOAD PUSH2 0x3E7 SWAP1 PUSH2 0x1AF0 JUMP JUMPDEST DUP1 PUSH1 0x1F ADD PUSH1 0x20 DUP1 SWAP2 DIV MUL PUSH1 0x20 ADD PUSH1 0x40 MLOAD SWAP1 DUP2 ADD PUSH1 0x40 MSTORE DUP1 SWAP3 SWAP2 SWAP1 DUP2 DUP2 MSTORE PUSH1 0x20 ADD DUP3 DUP1 SLOAD PUSH2 0x413 SWAP1 PUSH2 0x1AF0 JUMP JUMPDEST DUP1 ISZERO PUSH2 0x460 JUMPI DUP1 PUSH1 0x1F LT PUSH2 0x435 JUMPI PUSH2 0x100 DUP1 DUP4 SLOAD DIV MUL DUP4 MSTORE SWAP2 PUSH1 0x20 ADD SWAP2 PUSH2 0x460 JUMP JUMPDEST DUP3 ADD SWAP2 SWAP1 PUSH1 0x0 MSTORE PUSH1 0x20 PUSH1 0x0 KECCAK256 SWAP1 JUMPDEST DUP2 SLOAD DUP2 MSTORE SWAP1 PUSH1 0x1 ADD SWAP1 PUSH1 0x20 ADD DUP1 DUP4 GT PUSH2 0x443 JUMPI DUP3 SWAP1 SUB PUSH1 0x1F AND DUP3 ADD SWAP2 JUMPDEST POP POP POP POP POP SWAP1 POP SWAP1 JUMP JUMPDEST PUSH1 0x0 DUP1 PUSH2 0x475 PUSH2 0xA0A JUMP JUMPDEST SWAP1 POP PUSH2 0x482 DUP2 DUP6 DUP6 PUSH2 0xA12 JUMP JUMPDEST PUSH1 0x1 SWAP2 POP POP SWAP3 SWAP2 POP POP JUMP JUMPDEST PUSH1 0x0 PUSH1 0x35 SLOAD SWAP1 POP SWAP1 JUMP JUMPDEST PUSH1 0x0 DUP1 PUSH2 0x4A2 PUSH2 0xA0A JUMP JUMPDEST SWAP1 POP PUSH2 0x4AF DUP6 DUP3 DUP6 PUSH2 0xBDB JUMP JUMPDEST PUSH2 0x4BA DUP6 DUP6 DUP6 PUSH2 0xC67 JUMP JUMPDEST PUSH1 0x1 SWAP2 POP POP SWAP4 SWAP3 POP POP POP JUMP JUMPDEST PUSH1 0x0 PUSH1 0x12 SWAP1 POP SWAP1 JUMP JUMPDEST PUSH1 0x0 DUP1 PUSH2 0x4DA PUSH2 0xA0A JUMP JUMPDEST SWAP1 POP PUSH2 0x4FB DUP2 DUP6 DUP6 PUSH2 0x4EC DUP6 DUP10 PUSH2 0x900 JUMP JUMPDEST PUSH2 0x4F6 SWAP2 SWAP1 PUSH2 0x1B50 JUMP JUMPDEST PUSH2 0xA12 JUMP JUMPDEST PUSH1 0x1 SWAP2 POP POP SWAP3 SWAP2 POP POP JUMP JUMPDEST PUSH2 0x50E PUSH2 0xEE0 JUMP JUMPDEST PUSH2 0x516 PUSH2 0xF5E JUMP JUMPDEST JUMP JUMPDEST PUSH2 0x520 PUSH2 0xEE0 JUMP JUMPDEST PUSH2 0x52A DUP3 DUP3 PUSH2 0xFC1 JUMP JUMPDEST POP POP JUMP JUMPDEST PUSH2 0x53F PUSH2 0x539 PUSH2 0xA0A JUMP JUMPDEST DUP3 PUSH2 0x1118 JUMP JUMPDEST POP JUMP JUMPDEST PUSH1 0x0 PUSH1 0x97 PUSH1 0x0 SWAP1 SLOAD SWAP1 PUSH2 0x100 EXP SWAP1 DIV PUSH1 0xFF AND SWAP1 POP SWAP1 JUMP JUMPDEST PUSH1 0x0 PUSH1 0x33 PUSH1 0x0 DUP4 PUSH20 0xFFFFFFFFFFFFFFFFFFFFFFFFFFFFFFFFFFFFFFFF AND PUSH20 0xFFFFFFFFFFFFFFFFFFFFFFFFFFFFFFFFFFFFFFFF AND DUP2 MSTORE PUSH1 0x20 ADD SWAP1 DUP2 MSTORE PUSH1 0x20 ADD PUSH1 0x0 KECCAK256 SLOAD SWAP1 POP SWAP2 SWAP1 POP JUMP JUMPDEST PUSH2 0x5AA PUSH2 0xEE0 JUMP JUMPDEST PUSH2 0x5B4 PUSH1 0x0 PUSH2 0x12E7 JUMP JUMPDEST JUMP JUMPDEST PUSH2 0x5C8 DUP3 PUSH2 0x5C2 PUSH2 0xA0A JUMP JUMPDEST DUP4 PUSH2 0xBDB JUMP JUMPDEST PUSH2 0x5D2 DUP3 DUP3 PUSH2 0x1118 JUMP JUMPDEST POP POP JUMP JUMPDEST PUSH1 0x0 DUP1 PUSH1 0x1 SWAP1 SLOAD SWAP1 PUSH2 0x100 EXP SWAP1 DIV PUSH1 0xFF AND ISZERO SWAP1 POP DUP1 DUP1 ISZERO PUSH2 0x607 JUMPI POP PUSH1 0x1 PUSH1 0x0 DUP1 SLOAD SWAP1 PUSH2 0x100 EXP SWAP1 DIV PUSH1 0xFF AND PUSH1 0xFF AND LT JUMPDEST DUP1 PUSH2 0x634 JUMPI POP PUSH2 0x616 ADDRESS PUSH2 0x13AD JUMP JUMPDEST ISZERO DUP1 ISZERO PUSH2 0x633 JUMPI POP PUSH1 0x1 PUSH1 0x0 DUP1 SLOAD SWAP1 PUSH2 0x100 EXP SWAP1 DIV PUSH1 0xFF AND PUSH1 0xFF AND EQ JUMPDEST JUMPDEST PUSH2 0x673 JUMPI PUSH1 0x40 MLOAD PUSH32 0x8C379A000000000000000000000000000000000000000000000000000000000 DUP2 MSTORE PUSH1 0x4 ADD PUSH2 0x66A SWAP1 PUSH2 0x1BF6 JUMP JUMPDEST PUSH1 0x40 MLOAD DUP1 SWAP2 SUB SWAP1 REVERT JUMPDEST PUSH1 0x1 PUSH1 0x0 DUP1 PUSH2 0x100 EXP DUP2 SLOAD DUP2 PUSH1 0xFF MUL NOT AND SWAP1 DUP4 PUSH1 0xFF AND MUL OR SWAP1 SSTORE POP DUP1 ISZERO PUSH2 0x6B0 JUMPI PUSH1 0x1 PUSH1 0x0 PUSH1 0x1 PUSH2 0x100 EXP DUP2 SLOAD DUP2 PUSH1 0xFF MUL NOT AND SWAP1 DUP4 ISZERO ISZERO MUL OR SWAP1 SSTORE POP JUMPDEST PUSH2 0x724 PUSH1 0x40 MLOAD DUP1 PUSH1 0x40 ADD PUSH1 0x40 MSTORE DUP1 PUSH1 0x7 DUP2 MSTORE PUSH1 0x20 ADD PUSH32 0x4D79546F6B656E00000000000000000000000000000000000000000000000000 DUP2 MSTORE POP PUSH1 0x40 MLOAD DUP1 PUSH1 0x40 ADD PUSH1 0x40 MSTORE DUP1 PUSH1 0x3 DUP2 MSTORE PUSH1 0x20 ADD PUSH32 0x4D544B0000000000000000000000000000000000000000000000000000000000 DUP2 MSTORE POP PUSH2 0x13D0 JUMP JUMPDEST PUSH2 0x72C PUSH2 0x142D JUMP JUMPDEST PUSH2 0x734 PUSH2 0x147E JUMP JUMPDEST PUSH2 0x73C PUSH2 0x14D7 JUMP JUMPDEST DUP1 ISZERO PUSH2 0x795 JUMPI PUSH1 0x0 DUP1 PUSH1 0x1 PUSH2 0x100 EXP DUP2 SLOAD DUP2 PUSH1 0xFF MUL NOT AND SWAP1 DUP4 ISZERO ISZERO MUL OR SWAP1 SSTORE POP PUSH32 0x7F26B83FF96E1F2B6A682F133852F6798A09C465DA95921460CEFB3847402498 PUSH1 0x1 PUSH1 0x40 MLOAD PUSH2 0x78C SWAP2 SWAP1 PUSH2 0x1C5B JUMP JUMPDEST PUSH1 0x40 MLOAD DUP1 SWAP2 SUB SWAP1 LOG1 JUMPDEST POP JUMP JUMPDEST PUSH2 0x7A0 PUSH2 0xEE0 JUMP JUMPDEST PUSH2 0x7A8 PUSH2 0x1530 JUMP JUMPDEST JUMP JUMPDEST PUSH1 0x0 PUSH1 0xC9 PUSH1 0x0 SWAP1 SLOAD SWAP1 PUSH2 0x100 EXP SWAP1 DIV PUSH20 0xFFFFFFFFFFFFFFFFFFFFFFFFFFFFFFFFFFFFFFFF AND SWAP1 POP SWAP1 JUMP JUMPDEST PUSH1 0x60 PUSH1 0x37 DUP1 SLOAD PUSH2 0x7E3 SWAP1 PUSH2 0x1AF0 JUMP JUMPDEST DUP1 PUSH1 0x1F ADD PUSH1 0x20 DUP1 SWAP2 DIV MUL PUSH1 0x20 ADD PUSH1 0x40 MLOAD SWAP1 DUP2 ADD PUSH1 0x40 MSTORE DUP1 SWAP3 SWAP2 SWAP1 DUP2 DUP2 MSTORE PUSH1 0x20 ADD DUP3 DUP1 SLOAD PUSH2 0x80F SWAP1 PUSH2 0x1AF0 JUMP JUMPDEST DUP1 ISZERO PUSH2 0x85C JUMPI DUP1 PUSH1 0x1F LT PUSH2 0x831 JUMPI PUSH2 0x100 DUP1 DUP4 SLOAD DIV MUL DUP4 MSTORE SWAP2 PUSH1 0x20 ADD SWAP2 PUSH2 0x85C JUMP JUMPDEST DUP3 ADD SWAP2 SWAP1 PUSH1 0x0 MSTORE PUSH1 0x20 PUSH1 0x0 KECCAK256 SWAP1 JUMPDEST DUP2 SLOAD DUP2 MSTORE SWAP1 PUSH1 0x1 ADD SWAP1 PUSH1 0x20 ADD DUP1 DUP4 GT PUSH2 0x83F JUMPI DUP3 SWAP1 SUB PUSH1 0x1F AND DUP3 ADD SWAP2 JUMPDEST POP POP POP POP POP SWAP1 POP SWAP1 JUMP JUMPDEST PUSH1 0x0 DUP1 PUSH2 0x871 PUSH2 0xA0A JUMP JUMPDEST SWAP1 POP PUSH1 0x0 PUSH2 0x87F DUP3 DUP7 PUSH2 0x900 JUMP JUMPDEST SWAP1 POP DUP4 DUP2 LT ISZERO PUSH2 0x8C4 JUMPI PUSH1 0x40 MLOAD PUSH32 0x8C379A000000000000000000000000000000000000000000000000000000000 DUP2 MSTORE PUSH1 0x4 ADD PUSH2 0x8BB SWAP1 PUSH2 0x1CE8 JUMP JUMPDEST PUSH1 0x40 MLOAD DUP1 SWAP2 SUB SWAP1 REVERT JUMPDEST PUSH2 0x8D1 DUP3 DUP7 DUP7 DUP5 SUB PUSH2 0xA12 JUMP JUMPDEST PUSH1 0x1 SWAP3 POP POP POP SWAP3 SWAP2 POP POP JUMP JUMPDEST PUSH1 0x0 DUP1 PUSH2 0x8E8 PUSH2 0xA0A JUMP JUMPDEST SWAP1 POP PUSH2 0x8F5 DUP2 DUP6 DUP6 PUSH2 0xC67 JUMP JUMPDEST PUSH1 0x1 SWAP2 POP POP SWAP3 SWAP2 POP POP JUMP JUMPDEST PUSH1 0x0 PUSH1 0x34 PUSH1 0x0 DUP5 PUSH20 0xFFFFFFFFFFFFFFFFFFFFFFFFFFFFFFFFFFFFFFFF AND PUSH20 0xFFFFFFFFFFFFFFFFFFFFFFFFFFFFFFFFFFFFFFFF AND DUP2 MSTORE PUSH1 0x20 ADD SWAP1 DUP2 MSTORE PUSH1 0x20 ADD PUSH1 0x0 KECCAK256 PUSH1 0x0 DUP4 PUSH20 0xFFFFFFFFFFFFFFFFFFFFFFFFFFFFFFFFFFFFFFFF AND PUSH20 0xFFFFFFFFFFFFFFFFFFFFFFFFFFFFFFFFFFFFFFFF AND DUP2 MSTORE PUSH1 0x20 ADD SWAP1 DUP2 MSTORE PUSH1 0x20 ADD PUSH1 0x0 KECCAK256 SLOAD SWAP1 POP SWAP3 SWAP2 POP POP JUMP JUMPDEST PUSH2 0x98F PUSH2 0xEE0 JUMP JUMPDEST PUSH1 0x0 PUSH20 0xFFFFFFFFFFFFFFFFFFFFFFFFFFFFFFFFFFFFFFFF AND DUP2 PUSH20 0xFFFFFFFFFFFFFFFFFFFFFFFFFFFFFFFFFFFFFFFF AND SUB PUSH2 0x9FE JUMPI PUSH1 0x40 MLOAD PUSH32 0x8C379A000000000000000000000000000000000000000000000000000000000 DUP2 MSTORE PUSH1 0x4 ADD PUSH2 0x9F5 SWAP1 PUSH2 0x1D7A JUMP JUMPDEST PUSH1 0x40 MLOAD DUP1 SWAP2 SUB SWAP1 REVERT JUMPDEST PUSH2 0xA07 DUP2 PUSH2 0x12E7 JUMP JUMPDEST POP JUMP JUMPDEST PUSH1 0x0 CALLER SWAP1 POP SWAP1 JUMP JUMPDEST PUSH1 0x0 PUSH20 0xFFFFFFFFFFFFFFFFFFFFFFFFFFFFFFFFFFFFFFFF AND DUP4 PUSH20 0xFFFFFFFFFFFFFFFFFFFFFFFFFFFFFFFFFFFFFFFF AND SUB PUSH2 0xA81 JUMPI PUSH1 0x40 MLOAD PUSH32 0x8C379A000000000000000000000000000000000000000000000000000000000 DUP2 MSTORE PUSH1 0x4 ADD PUSH2 0xA78 SWAP1 PUSH2 0x1E0C JUMP JUMPDEST PUSH1 0x40 MLOAD DUP1 SWAP2 SUB SWAP1 REVERT JUMPDEST PUSH1 0x0 PUSH20 0xFFFFFFFFFFFFFFFFFFFFFFFFFFFFFFFFFFFFFFFF AND DUP3 PUSH20 0xFFFFFFFFFFFFFFFFFFFFFFFFFFFFFFFFFFFFFFFF AND SUB PUSH2 0xAF0 JUMPI PUSH1 0x40 MLOAD PUSH32 0x8C379A000000000000000000000000000000000000000000000000000000000 DUP2 MSTORE PUSH1 0x4 ADD PUSH2 0xAE7 SWAP1 PUSH2 0x1E9E JUMP JUMPDEST PUSH1 0x40 MLOAD DUP1 SWAP2 SUB SWAP1 REVERT JUMPDEST DUP1 PUSH1 0x34 PUSH1 0x0 DUP6 PUSH20 0xFFFFFFFFFFFFFFFFFFFFFFFFFFFFFFFFFFFFFFFF AND PUSH20 0xFFFFFFFFFFFFFFFFFFFFFFFFFFFFFFFFFFFFFFFF AND DUP2 MSTORE PUSH1 0x20 ADD SWAP1 DUP2 MSTORE PUSH1 0x20 ADD PUSH1 0x0 KECCAK256 PUSH1 0x0 DUP5 PUSH20 0xFFFFFFFFFFFFFFFFFFFFFFFFFFFFFFFFFFFFFFFF AND PUSH20 0xFFFFFFFFFFFFFFFFFFFFFFFFFFFFFFFFFFFFFFFF AND DUP2 MSTORE PUSH1 0x20 ADD SWAP1 DUP2 MSTORE PUSH1 0x20 ADD PUSH1 0x0 KECCAK256 DUP2 SWAP1 SSTORE POP DUP2 PUSH20 0xFFFFFFFFFFFFFFFFFFFFFFFFFFFFFFFFFFFFFFFF AND DUP4 PUSH20 0xFFFFFFFFFFFFFFFFFFFFFFFFFFFFFFFFFFFFFFFF AND PUSH32 0x8C5BE1E5EBEC7D5BD14F71427D1E84F3DD0314C0F7B2291E5B200AC8C7C3B925 DUP4 PUSH1 0x40 MLOAD PUSH2 0xBCE SWAP2 SWAP1 PUSH2 0x1958 JUMP JUMPDEST PUSH1 0x40 MLOAD DUP1 SWAP2 SUB SWAP1 LOG3 POP POP POP JUMP JUMPDEST PUSH1 0x0 PUSH2 0xBE7 DUP5 DUP5 PUSH2 0x900 JUMP JUMPDEST SWAP1 POP PUSH32 0xFFFFFFFFFFFFFFFFFFFFFFFFFFFFFFFFFFFFFFFFFFFFFFFFFFFFFFFFFFFFFFFF DUP2 EQ PUSH2 0xC61 JUMPI DUP2 DUP2 LT ISZERO PUSH2 0xC53 JUMPI PUSH1 0x40 MLOAD PUSH32 0x8C379A000000000000000000000000000000000000000000000000000000000 DUP2 MSTORE PUSH1 0x4 ADD PUSH2 0xC4A SWAP1 PUSH2 0x1F0A JUMP JUMPDEST PUSH1 0x40 MLOAD DUP1 SWAP2 SUB SWAP1 REVERT JUMPDEST PUSH2 0xC60 DUP5 DUP5 DUP5 DUP5 SUB PUSH2 0xA12 JUMP JUMPDEST JUMPDEST POP POP POP POP JUMP JUMPDEST PUSH1 0x0 PUSH20 0xFFFFFFFFFFFFFFFFFFFFFFFFFFFFFFFFFFFFFFFF AND DUP4 PUSH20 0xFFFFFFFFFFFFFFFFFFFFFFFFFFFFFFFFFFFFFFFF AND SUB PUSH2 0xCD6 JUMPI PUSH1 0x40 MLOAD PUSH32 0x8C379A000000000000000000000000000000000000000000000000000000000 DUP2 MSTORE PUSH1 0x4 ADD PUSH2 0xCCD SWAP1 PUSH2 0x1F9C JUMP JUMPDEST PUSH1 0x40 MLOAD DUP1 SWAP2 SUB SWAP1 REVERT JUMPDEST PUSH1 0x0 PUSH20 0xFFFFFFFFFFFFFFFFFFFFFFFFFFFFFFFFFFFFFFFF AND DUP3 PUSH20 0xFFFFFFFFFFFFFFFFFFFFFFFFFFFFFFFFFFFFFFFF AND SUB PUSH2 0xD45 JUMPI PUSH1 0x40 MLOAD PUSH32 0x8C379A000000000000000000000000000000000000000000000000000000000 DUP2 MSTORE PUSH1 0x4 ADD PUSH2 0xD3C SWAP1 PUSH2 0x202E JUMP JUMPDEST PUSH1 0x40 MLOAD DUP1 SWAP2 SUB SWAP1 REVERT JUMPDEST PUSH2 0xD50 DUP4 DUP4 DUP4 PUSH2 0x1593 JUMP JUMPDEST PUSH1 0x0 PUSH1 0x33 PUSH1 0x0 DUP6 PUSH20 0xFFFFFFFFFFFFFFFFFFFFFFFFFFFFFFFFFFFFFFFF AND PUSH20 0xFFFFFFFFFFFFFFFFFFFFFFFFFFFFFFFFFFFFFFFF AND DUP2 MSTORE PUSH1 0x20 ADD SWAP1 DUP2 MSTORE PUSH1 0x20 ADD PUSH1 0x0 KECCAK256 SLOAD SWAP1 POP DUP2 DUP2 LT ISZERO PUSH2 0xDD7 JUMPI PUSH1 0x40 MLOAD PUSH32 0x8C379A000000000000000000000000000000000000000000000000000000000 DUP2 MSTORE PUSH1 0x4 ADD PUSH2 0xDCE SWAP1 PUSH2 0x20C0 JUMP JUMPDEST PUSH1 0x40 MLOAD DUP1 SWAP2 SUB SWAP1 REVERT JUMPDEST DUP2 DUP2 SUB PUSH1 0x33 PUSH1 0x0 DUP7 PUSH20 0xFFFFFFFFFFFFFFFFFFFFFFFFFFFFFFFFFFFFFFFF AND PUSH20 0xFFFFFFFFFFFFFFFFFFFFFFFFFFFFFFFFFFFFFFFF AND DUP2 MSTORE PUSH1 0x20 ADD SWAP1 DUP2 MSTORE PUSH1 0x20 ADD PUSH1 0x0 KECCAK256 DUP2 SWAP1 SSTORE POP DUP2 PUSH1 0x33 PUSH1 0x0 DUP6 PUSH20 0xFFFFFFFFFFFFFFFFFFFFFFFFFFFFFFFFFFFFFFFF AND PUSH20 0xFFFFFFFFFFFFFFFFFFFFFFFFFFFFFFFFFFFFFFFF AND DUP2 MSTORE PUSH1 0x20 ADD SWAP1 DUP2 MSTORE PUSH1 0x20 ADD PUSH1 0x0 KECCAK256 PUSH1 0x0 DUP3 DUP3 SLOAD ADD SWAP3 POP POP DUP2 SWAP1 SSTORE POP DUP3 PUSH20 0xFFFFFFFFFFFFFFFFFFFFFFFFFFFFFFFFFFFFFFFF AND DUP5 PUSH20 0xFFFFFFFFFFFFFFFFFFFFFFFFFFFFFFFFFFFFFFFF AND PUSH32 0xDDF252AD1BE2C89B69C2B068FC378DAA952BA7F163C4A11628F55A4DF523B3EF DUP5 PUSH1 0x40 MLOAD PUSH2 0xEC7 SWAP2 SWAP1 PUSH2 0x1958 JUMP JUMPDEST PUSH1 0x40 MLOAD DUP1 SWAP2 SUB SWAP1 LOG3 PUSH2 0xEDA DUP5 DUP5 DUP5 PUSH2 0x15AB JUMP JUMPDEST POP POP POP POP JUMP JUMPDEST PUSH2 0xEE8 PUSH2 0xA0A JUMP JUMPDEST PUSH20 0xFFFFFFFFFFFFFFFFFFFFFFFFFFFFFFFFFFFFFFFF AND PUSH2 0xF06 PUSH2 0x7AA JUMP JUMPDEST PUSH20 0xFFFFFFFFFFFFFFFFFFFFFFFFFFFFFFFFFFFFFFFF AND EQ PUSH2 0xF5C JUMPI PUSH1 0x40 MLOAD PUSH32 0x8C379A000000000000000000000000000000000000000000000000000000000 DUP2 MSTORE PUSH1 0x4 ADD PUSH2 0xF53 SWAP1 PUSH2 0x212C JUMP JUMPDEST PUSH1 0x40 MLOAD DUP1 SWAP2 SUB SWAP1 REVERT JUMPDEST JUMP JUMPDEST PUSH2 0xF66 PUSH2 0x15B0 JUMP JUMPDEST PUSH1 0x0 PUSH1 0x97 PUSH1 0x0 PUSH2 0x100 EXP DUP2 SLOAD DUP2 PUSH1 0xFF MUL NOT AND SWAP1 DUP4 ISZERO ISZERO MUL OR SWAP1 SSTORE POP PUSH32 0x5DB9EE0A495BF2E6FF9C91A7834C1BA4FDD244A5E8AA4E537BD38AEAE4B073AA PUSH2 0xFAA PUSH2 0xA0A JUMP JUMPDEST PUSH1 0x40 MLOAD PUSH2 0xFB7 SWAP2 SWAP1 PUSH2 0x1A66 JUMP JUMPDEST PUSH1 0x40 MLOAD DUP1 SWAP2 SUB SWAP1 LOG1 JUMP JUMPDEST PUSH1 0x0 PUSH20 0xFFFFFFFFFFFFFFFFFFFFFFFFFFFFFFFFFFFFFFFF AND DUP3 PUSH20 0xFFFFFFFFFFFFFFFFFFFFFFFFFFFFFFFFFFFFFFFF AND SUB PUSH2 0x1030 JUMPI PUSH1 0x40 MLOAD PUSH32 0x8C379A000000000000000000000000000000000000000000000000000000000 DUP2 MSTORE PUSH1 0x4 ADD PUSH2 0x1027 SWAP1 PUSH2 0x2198 JUMP JUMPDEST PUSH1 0x40 MLOAD DUP1 SWAP2 SUB SWAP1 REVERT JUMPDEST PUSH2 0x103C PUSH1 0x0 DUP4 DUP4 PUSH2 0x1593 JUMP JUMPDEST DUP1 PUSH1 0x35 PUSH1 0x0 DUP3 DUP3 SLOAD PUSH2 0x104E SWAP2 SWAP1 PUSH2 0x1B50 JUMP JUMPDEST SWAP3 POP POP DUP2 SWAP1 SSTORE POP DUP1 PUSH1 0x33 PUSH1 0x0 DUP5 PUSH20 0xFFFFFFFFFFFFFFFFFFFFFFFFFFFFFFFFFFFFFFFF AND PUSH20 0xFFFFFFFFFFFFFFFFFFFFFFFFFFFFFFFFFFFFFFFF AND DUP2 MSTORE PUSH1 0x20 ADD SWAP1 DUP2 MSTORE PUSH1 0x20 ADD PUSH1 0x0 KECCAK256 PUSH1 0x0 DUP3 DUP3 SLOAD ADD SWAP3 POP POP DUP2 SWAP1 SSTORE POP DUP2 PUSH20 0xFFFFFFFFFFFFFFFFFFFFFFFFFFFFFFFFFFFFFFFF AND PUSH1 0x0 PUSH20 0xFFFFFFFFFFFFFFFFFFFFFFFFFFFFFFFFFFFFFFFF AND PUSH32 0xDDF252AD1BE2C89B69C2B068FC378DAA952BA7F163C4A11628F55A4DF523B3EF DUP4 PUSH1 0x40 MLOAD PUSH2 0x1100 SWAP2 SWAP1 PUSH2 0x1958 JUMP JUMPDEST PUSH1 0x40 MLOAD DUP1 SWAP2 SUB SWAP1 LOG3 PUSH2 0x1114 PUSH1 0x0 DUP4 DUP4 PUSH2 0x15AB JUMP JUMPDEST POP POP JUMP JUMPDEST PUSH1 0x0 PUSH20 0xFFFFFFFFFFFFFFFFFFFFFFFFFFFFFFFFFFFFFFFF AND DUP3 PUSH20 0xFFFFFFFFFFFFFFFFFFFFFFFFFFFFFFFFFFFFFFFF AND SUB PUSH2 0x1187 JUMPI PUSH1 0x40 MLOAD PUSH32 0x8C379A000000000000000000000000000000000000000000000000000000000 DUP2 MSTORE PUSH1 0x4 ADD PUSH2 0x117E SWAP1 PUSH2 0x222A JUMP JUMPDEST PUSH1 0x40 MLOAD DUP1 SWAP2 SUB SWAP1 REVERT JUMPDEST PUSH2 0x1193 DUP3 PUSH1 0x0 DUP4 PUSH2 0x1593 JUMP JUMPDEST PUSH1 0x0 PUSH1 0x33 PUSH1 0x0 DUP5 PUSH20 0xFFFFFFFFFFFFFFFFFFFFFFFFFFFFFFFFFFFFFFFF AND PUSH20 0xFFFFFFFFFFFFFFFFFFFFFFFFFFFFFFFFFFFFFFFF AND DUP2 MSTORE PUSH1 0x20 ADD SWAP1 DUP2 MSTORE PUSH1 0x20 ADD PUSH1 0x0 KECCAK256 SLOAD SWAP1 POP DUP2 DUP2 LT ISZERO PUSH2 0x121A JUMPI PUSH1 0x40 MLOAD PUSH32 0x8C379A000000000000000000000000000000000000000000000000000000000 DUP2 MSTORE PUSH1 0x4 ADD PUSH2 0x1211 SWAP1 PUSH2 0x22BC JUMP JUMPDEST PUSH1 0x40 MLOAD DUP1 SWAP2 SUB SWAP1 REVERT JUMPDEST DUP2 DUP2 SUB PUSH1 0x33 PUSH1 0x0 DUP6 PUSH20 0xFFFFFFFFFFFFFFFFFFFFFFFFFFFFFFFFFFFFFFFF AND PUSH20 0xFFFFFFFFFFFFFFFFFFFFFFFFFFFFFFFFFFFFFFFF AND DUP2 MSTORE PUSH1 0x20 ADD SWAP1 DUP2 MSTORE PUSH1 0x20 ADD PUSH1 0x0 KECCAK256 DUP2 SWAP1 SSTORE POP DUP2 PUSH1 0x35 PUSH1 0x0 DUP3 DUP3 SLOAD SUB SWAP3 POP POP DUP2 SWAP1 SSTORE POP PUSH1 0x0 PUSH20 0xFFFFFFFFFFFFFFFFFFFFFFFFFFFFFFFFFFFFFFFF AND DUP4 PUSH20 0xFFFFFFFFFFFFFFFFFFFFFFFFFFFFFFFFFFFFFFFF AND PUSH32 0xDDF252AD1BE2C89B69C2B068FC378DAA952BA7F163C4A11628F55A4DF523B3EF DUP5 PUSH1 0x40 MLOAD PUSH2 0x12CE SWAP2 SWAP1 PUSH2 0x1958 JUMP JUMPDEST PUSH1 0x40 MLOAD DUP1 SWAP2 SUB SWAP1 LOG3 PUSH2 0x12E2 DUP4 PUSH1 0x0 DUP5 PUSH2 0x15AB JUMP JUMPDEST POP POP POP JUMP JUMPDEST PUSH1 0x0 PUSH1 0xC9 PUSH1 0x0 SWAP1 SLOAD SWAP1 PUSH2 0x100 EXP SWAP1 DIV PUSH20 0xFFFFFFFFFFFFFFFFFFFFFFFFFFFFFFFFFFFFFFFF AND SWAP1 POP DUP2 PUSH1 0xC9 PUSH1 0x0 PUSH2 0x100 EXP DUP2 SLOAD DUP2 PUSH20 0xFFFFFFFFFFFFFFFFFFFFFFFFFFFFFFFFFFFFFFFF MUL NOT AND SWAP1 DUP4 PUSH20 0xFFFFFFFFFFFFFFFFFFFFFFFFFFFFFFFFFFFFFFFF AND MUL OR SWAP1 SSTORE POP DUP2 PUSH20 0xFFFFFFFFFFFFFFFFFFFFFFFFFFFFFFFFFFFFFFFF AND DUP2 PUSH20 0xFFFFFFFFFFFFFFFFFFFFFFFFFFFFFFFFFFFFFFFF AND PUSH32 0x8BE0079C531659141344CD1FD0A4F28419497F9722A3DAAFE3B4186F6B6457E0 PUSH1 0x40 MLOAD PUSH1 0x40 MLOAD DUP1 SWAP2 SUB SWAP1 LOG3 POP POP JUMP JUMPDEST PUSH1 0x0 DUP1 DUP3 PUSH20 0xFFFFFFFFFFFFFFFFFFFFFFFFFFFFFFFFFFFFFFFF AND EXTCODESIZE GT SWAP1 POP SWAP2 SWAP1 POP JUMP JUMPDEST PUSH1 0x0 PUSH1 0x1 SWAP1 SLOAD SWAP1 PUSH2 0x100 EXP SWAP1 DIV PUSH1 0xFF AND PUSH2 0x141F JUMPI PUSH1 0x40 MLOAD PUSH32 0x8C379A000000000000000000000000000000000000000000000000000000000 DUP2 MSTORE PUSH1 0x4 ADD PUSH2 0x1416 SWAP1 PUSH2 0x234E JUMP JUMPDEST PUSH1 0x40 MLOAD DUP1 SWAP2 SUB SWAP1 REVERT JUMPDEST PUSH2 0x1429 DUP3 DUP3 PUSH2 0x15F9 JUMP JUMPDEST POP POP JUMP JUMPDEST PUSH1 0x0 PUSH1 0x1 SWAP1 SLOAD SWAP1 PUSH2 0x100 EXP SWAP1 DIV PUSH1 0xFF AND PUSH2 0x147C JUMPI PUSH1 0x40 MLOAD PUSH32 0x8C379A000000000000000000000000000000000000000000000000000000000 DUP2 MSTORE PUSH1 0x4 ADD PUSH2 0x1473 SWAP1 PUSH2 0x234E JUMP JUMPDEST PUSH1 0x40 MLOAD DUP1 SWAP2 SUB SWAP1 REVERT JUMPDEST JUMP JUMPDEST PUSH1 0x0 PUSH1 0x1 SWAP1 SLOAD SWAP1 PUSH2 0x100 EXP SWAP1 DIV PUSH1 0xFF AND PUSH2 0x14CD JUMPI PUSH1 0x40 MLOAD PUSH32 0x8C379A000000000000000000000000000000000000000000000000000000000 DUP2 MSTORE PUSH1 0x4 ADD PUSH2 0x14C4 SWAP1 PUSH2 0x234E JUMP JUMPDEST PUSH1 0x40 MLOAD DUP1 SWAP2 SUB SWAP1 REVERT JUMPDEST PUSH2 0x14D5 PUSH2 0x166C JUMP JUMPDEST JUMP JUMPDEST PUSH1 0x0 PUSH1 0x1 SWAP1 SLOAD SWAP1 PUSH2 0x100 EXP SWAP1 DIV PUSH1 0xFF AND PUSH2 0x1526 JUMPI PUSH1 0x40 MLOAD PUSH32 0x8C379A000000000000000000000000000000000000000000000000000000000 DUP2 MSTORE PUSH1 0x4 ADD PUSH2 0x151D SWAP1 PUSH2 0x234E JUMP JUMPDEST PUSH1 0x40 MLOAD DUP1 SWAP2 SUB SWAP1 REVERT JUMPDEST PUSH2 0x152E PUSH2 0x16D8 JUMP JUMPDEST JUMP JUMPDEST PUSH2 0x1538 PUSH2 0x1739 JUMP JUMPDEST PUSH1 0x1 PUSH1 0x97 PUSH1 0x0 PUSH2 0x100 EXP DUP2 SLOAD DUP2 PUSH1 0xFF MUL NOT AND SWAP1 DUP4 ISZERO ISZERO MUL OR SWAP1 SSTORE POP PUSH32 0x62E78CEA01BEE320CD4E420270B5EA74000D11B0C9F74754EBDBFC544B05A258 PUSH2 0x157C PUSH2 0xA0A JUMP JUMPDEST PUSH1 0x40 MLOAD PUSH2 0x1589 SWAP2 SWAP1 PUSH2 0x1A66 JUMP JUMPDEST PUSH1 0x40 MLOAD DUP1 SWAP2 SUB SWAP1 LOG1 JUMP JUMPDEST PUSH2 0x159B PUSH2 0x1739 JUMP JUMPDEST PUSH2 0x15A6 DUP4 DUP4 DUP4 PUSH2 0x1783 JUMP JUMPDEST POP POP POP JUMP JUMPDEST POP POP POP JUMP JUMPDEST PUSH2 0x15B8 PUSH2 0x542 JUMP JUMPDEST PUSH2 0x15F7 JUMPI PUSH1 0x40 MLOAD PUSH32 0x8C379A000000000000000000000000000000000000000000000000000000000 DUP2 MSTORE PUSH1 0x4 ADD PUSH2 0x15EE SWAP1 PUSH2 0x23BA JUMP JUMPDEST PUSH1 0x40 MLOAD DUP1 SWAP2 SUB SWAP1 REVERT JUMPDEST JUMP JUMPDEST PUSH1 0x0 PUSH1 0x1 SWAP1 SLOAD SWAP1 PUSH2 0x100 EXP SWAP1 DIV PUSH1 0xFF AND PUSH2 0x1648 JUMPI PUSH1 0x40 MLOAD PUSH32 0x8C379A000000000000000000000000000000000000000000000000000000000 DUP2 MSTORE PUSH1 0x4 ADD PUSH2 0x163F SWAP1 PUSH2 0x234E JUMP JUMPDEST PUSH1 0x40 MLOAD DUP1 SWAP2 SUB SWAP1 REVERT JUMPDEST DUP2 PUSH1 0x36 SWAP1 DUP2 PUSH2 0x1657 SWAP2 SWAP1 PUSH2 0x25AB JUMP JUMPDEST POP DUP1 PUSH1 0x37 SWAP1 DUP2 PUSH2 0x1667 SWAP2 SWAP1 PUSH2 0x25AB JUMP JUMPDEST POP POP POP JUMP JUMPDEST PUSH1 0x0 PUSH1 0x1 SWAP1 SLOAD SWAP1 PUSH2 0x100 EXP SWAP1 DIV PUSH1 0xFF AND PUSH2 0x16BB JUMPI PUSH1 0x40 MLOAD PUSH32 0x8C379A000000000000000000000000000000000000000000000000000000000 DUP2 MSTORE PUSH1 0x4 ADD PUSH2 0x16B2 SWAP1 PUSH2 0x234E JUMP JUMPDEST PUSH1 0x40 MLOAD DUP1 SWAP2 SUB SWAP1 REVERT JUMPDEST PUSH1 0x0 PUSH1 0x97 PUSH1 0x0 PUSH2 0x100 EXP DUP2 SLOAD DUP2 PUSH1 0xFF MUL NOT AND SWAP1 DUP4 ISZERO ISZERO MUL OR SWAP1 SSTORE POP JUMP JUMPDEST PUSH1 0x0 PUSH1 0x1 SWAP1 SLOAD SWAP1 PUSH2 0x100 EXP SWAP1 DIV PUSH1 0xFF AND PUSH2 0x1727 JUMPI PUSH1 0x40 MLOAD PUSH32 0x8C379A000000000000000000000000000000000000000000000000000000000 DUP2 MSTORE PUSH1 0x4 ADD PUSH2 0x171E SWAP1 PUSH2 0x234E JUMP JUMPDEST PUSH1 0x40 MLOAD DUP1 SWAP2 SUB SWAP1 REVERT JUMPDEST PUSH2 0x1737 PUSH2 0x1732 PUSH2 0xA0A JUMP JUMPDEST PUSH2 0x12E7 JUMP JUMPDEST JUMP JUMPDEST PUSH2 0x1741 PUSH2 0x542 JUMP JUMPDEST ISZERO PUSH2 0x1781 JUMPI PUSH1 0x40 MLOAD PUSH32 0x8C379A000000000000000000000000000000000000000000000000000000000 DUP2 MSTORE PUSH1 0x4 ADD PUSH2 0x1778 SWAP1 PUSH2 0x26C9 JUMP JUMPDEST PUSH1 0x40 MLOAD DUP1 SWAP2 SUB SWAP1 REVERT JUMPDEST JUMP JUMPDEST POP POP POP JUMP JUMPDEST PUSH1 0x0 DUP2 MLOAD SWAP1 POP SWAP2 SWAP1 POP JUMP JUMPDEST PUSH1 0x0 DUP3 DUP3 MSTORE PUSH1 0x20 DUP3 ADD SWAP1 POP SWAP3 SWAP2 POP POP JUMP JUMPDEST PUSH1 0x0 JUMPDEST DUP4 DUP2 LT ISZERO PUSH2 0x17C2 JUMPI DUP1 DUP3 ADD MLOAD DUP2 DUP5 ADD MSTORE PUSH1 0x20 DUP2 ADD SWAP1 POP PUSH2 0x17A7 JUMP JUMPDEST PUSH1 0x0 DUP5 DUP5 ADD MSTORE POP POP POP POP JUMP JUMPDEST PUSH1 0x0 PUSH1 0x1F NOT PUSH1 0x1F DUP4 ADD AND SWAP1 POP SWAP2 SWAP1 POP JUMP JUMPDEST PUSH1 0x0 PUSH2 0x17EA DUP3 PUSH2 0x1788 JUMP JUMPDEST PUSH2 0x17F4 DUP2 DUP6 PUSH2 0x1793 JUMP JUMPDEST SWAP4 POP PUSH2 0x1804 DUP2 DUP6 PUSH1 0x20 DUP7 ADD PUSH2 0x17A4 JUMP JUMPDEST PUSH2 0x180D DUP2 PUSH2 0x17CE JUMP JUMPDEST DUP5 ADD SWAP2 POP POP SWAP3 SWAP2 POP POP JUMP JUMPDEST PUSH1 0x0 PUSH1 0x20 DUP3 ADD SWAP1 POP DUP2 DUP2 SUB PUSH1 0x0 DUP4 ADD MSTORE PUSH2 0x1832 DUP2 DUP5 PUSH2 0x17DF JUMP JUMPDEST SWAP1 POP SWAP3 SWAP2 POP POP JUMP JUMPDEST PUSH1 0x0 DUP1 REVERT JUMPDEST PUSH1 0x0 PUSH20 0xFFFFFFFFFFFFFFFFFFFFFFFFFFFFFFFFFFFFFFFF DUP3 AND SWAP1 POP SWAP2 SWAP1 POP JUMP JUMPDEST PUSH1 0x0 PUSH2 0x186A DUP3 PUSH2 0x183F JUMP JUMPDEST SWAP1 POP SWAP2 SWAP1 POP JUMP JUMPDEST PUSH2 0x187A DUP2 PUSH2 0x185F JUMP JUMPDEST DUP2 EQ PUSH2 0x1885 JUMPI PUSH1 0x0 DUP1 REVERT JUMPDEST POP JUMP JUMPDEST PUSH1 0x0 DUP2 CALLDATALOAD SWAP1 POP PUSH2 0x1897 DUP2 PUSH2 0x1871 JUMP JUMPDEST SWAP3 SWAP2 POP POP JUMP JUMPDEST PUSH1 0x0 DUP2 SWAP1 POP SWAP2 SWAP1 POP JUMP JUMPDEST PUSH2 0x18B0 DUP2 PUSH2 0x189D JUMP JUMPDEST DUP2 EQ PUSH2 0x18BB JUMPI PUSH1 0x0 DUP1 REVERT JUMPDEST POP JUMP JUMPDEST PUSH1 0x0 DUP2 CALLDATALOAD SWAP1 POP PUSH2 0x18CD DUP2 PUSH2 0x18A7 JUMP JUMPDEST SWAP3 SWAP2 POP POP JUMP JUMPDEST PUSH1 0x0 DUP1 PUSH1 0x40 DUP4 DUP6 SUB SLT ISZERO PUSH2 0x18EA JUMPI PUSH2 0x18E9 PUSH2 0x183A JUMP JUMPDEST JUMPDEST PUSH1 0x0 PUSH2 0x18F8 DUP6 DUP3 DUP7 ADD PUSH2 0x1888 JUMP JUMPDEST SWAP3 POP POP PUSH1 0x20 PUSH2 0x1909 DUP6 DUP3 DUP7 ADD PUSH2 0x18BE JUMP JUMPDEST SWAP2 POP POP SWAP3 POP SWAP3 SWAP1 POP JUMP JUMPDEST PUSH1 0x0 DUP2 ISZERO ISZERO SWAP1 POP SWAP2 SWAP1 POP JUMP JUMPDEST PUSH2 0x1928 DUP2 PUSH2 0x1913 JUMP JUMPDEST DUP3 MSTORE POP POP JUMP JUMPDEST PUSH1 0x0 PUSH1 0x20 DUP3 ADD SWAP1 POP PUSH2 0x1943 PUSH1 0x0 DUP4 ADD DUP5 PUSH2 0x191F JUMP JUMPDEST SWAP3 SWAP2 POP POP JUMP JUMPDEST PUSH2 0x1952 DUP2 PUSH2 0x189D JUMP JUMPDEST DUP3 MSTORE POP POP JUMP JUMPDEST PUSH1 0x0 PUSH1 0x20 DUP3 ADD SWAP1 POP PUSH2 0x196D PUSH1 0x0 DUP4 ADD DUP5 PUSH2 0x1949 JUMP JUMPDEST SWAP3 SWAP2 POP POP JUMP JUMPDEST PUSH1 0x0 DUP1 PUSH1 0x0 PUSH1 0x60 DUP5 DUP7 SUB SLT ISZERO PUSH2 0x198C JUMPI PUSH2 0x198B PUSH2 0x183A JUMP JUMPDEST JUMPDEST PUSH1 0x0 PUSH2 0x199A DUP7 DUP3 DUP8 ADD PUSH2 0x1888 JUMP JUMPDEST SWAP4 POP POP PUSH1 0x20 PUSH2 0x19AB DUP7 DUP3 DUP8 ADD PUSH2 0x1888 JUMP JUMPDEST SWAP3 POP POP PUSH1 0x40 PUSH2 0x19BC DUP7 DUP3 DUP8 ADD PUSH2 0x18BE JUMP JUMPDEST SWAP2 POP POP SWAP3 POP SWAP3 POP SWAP3 JUMP JUMPDEST PUSH1 0x0 PUSH1 0xFF DUP3 AND SWAP1 POP SWAP2 SWAP1 POP JUMP JUMPDEST PUSH2 0x19DC DUP2 PUSH2 0x19C6 JUMP JUMPDEST DUP3 MSTORE POP POP JUMP JUMPDEST PUSH1 0x0 PUSH1 0x20 DUP3 ADD SWAP1 POP PUSH2 0x19F7 PUSH1 0x0 DUP4 ADD DUP5 PUSH2 0x19D3 JUMP JUMPDEST SWAP3 SWAP2 POP POP JUMP JUMPDEST PUSH1 0x0 PUSH1 0x20 DUP3 DUP5 SUB SLT ISZERO PUSH2 0x1A13 JUMPI PUSH2 0x1A12 PUSH2 0x183A JUMP JUMPDEST JUMPDEST PUSH1 0x0 PUSH2 0x1A21 DUP5 DUP3 DUP6 ADD PUSH2 0x18BE JUMP JUMPDEST SWAP2 POP POP SWAP3 SWAP2 POP POP JUMP JUMPDEST PUSH1 0x0 PUSH1 0x20 DUP3 DUP5 SUB SLT ISZERO PUSH2 0x1A40 JUMPI PUSH2 0x1A3F PUSH2 0x183A JUMP JUMPDEST JUMPDEST PUSH1 0x0 PUSH2 0x1A4E DUP5 DUP3 DUP6 ADD PUSH2 0x1888 JUMP JUMPDEST SWAP2 POP POP SWAP3 SWAP2 POP POP JUMP JUMPDEST PUSH2 0x1A60 DUP2 PUSH2 0x185F JUMP JUMPDEST DUP3 MSTORE POP POP JUMP JUMPDEST PUSH1 0x0 PUSH1 0x20 DUP3 ADD SWAP1 POP PUSH2 0x1A7B PUSH1 0x0 DUP4 ADD DUP5 PUSH2 0x1A57 JUMP JUMPDEST SWAP3 SWAP2 POP POP JUMP JUMPDEST PUSH1 0x0 DUP1 PUSH1 0x40 DUP4 DUP6 SUB SLT ISZERO PUSH2 0x1A98 JUMPI PUSH2 0x1A97 PUSH2 0x183A JUMP JUMPDEST JUMPDEST PUSH1 0x0 PUSH2 0x1AA6 DUP6 DUP3 DUP7 ADD PUSH2 0x1888 JUMP JUMPDEST SWAP3 POP POP PUSH1 0x20 PUSH2 0x1AB7 DUP6 DUP3 DUP7 ADD PUSH2 0x1888 JUMP JUMPDEST SWAP2 POP POP SWAP3 POP SWAP3 SWAP1 POP JUMP JUMPDEST PUSH32 0x4E487B7100000000000000000000000000000000000000000000000000000000 PUSH1 0x0 MSTORE PUSH1 0x22 PUSH1 0x4 MSTORE PUSH1 0x24 PUSH1 0x0 REVERT JUMPDEST PUSH1 0x0 PUSH1 0x2 DUP3 DIV SWAP1 POP PUSH1 0x1 DUP3 AND DUP1 PUSH2 0x1B08 JUMPI PUSH1 0x7F DUP3 AND SWAP2 POP JUMPDEST PUSH1 0x20 DUP3 LT DUP2 SUB PUSH2 0x1B1B JUMPI PUSH2 0x1B1A PUSH2 0x1AC1 JUMP JUMPDEST JUMPDEST POP SWAP2 SWAP1 POP JUMP JUMPDEST PUSH32 0x4E487B7100000000000000000000000000000000000000000000000000000000 PUSH1 0x0 MSTORE PUSH1 0x11 PUSH1 0x4 MSTORE PUSH1 0x24 PUSH1 0x0 REVERT JUMPDEST PUSH1 0x0 PUSH2 0x1B5B DUP3 PUSH2 0x189D JUMP JUMPDEST SWAP2 POP PUSH2 0x1B66 DUP4 PUSH2 0x189D JUMP JUMPDEST SWAP3 POP DUP3 DUP3 ADD SWAP1 POP DUP1 DUP3 GT ISZERO PUSH2 0x1B7E JUMPI PUSH2 0x1B7D PUSH2 0x1B21 JUMP JUMPDEST JUMPDEST SWAP3 SWAP2 POP POP JUMP JUMPDEST PUSH32 0x496E697469616C697A61626C653A20636F6E747261637420697320616C726561 PUSH1 0x0 DUP3 ADD MSTORE PUSH32 0x647920696E697469616C697A6564000000000000000000000000000000000000 PUSH1 0x20 DUP3 ADD MSTORE POP JUMP JUMPDEST PUSH1 0x0 PUSH2 0x1BE0 PUSH1 0x2E DUP4 PUSH2 0x1793 JUMP JUMPDEST SWAP2 POP PUSH2 0x1BEB DUP3 PUSH2 0x1B84 JUMP JUMPDEST PUSH1 0x40 DUP3 ADD SWAP1 POP SWAP2 SWAP1 POP JUMP JUMPDEST PUSH1 0x0 PUSH1 0x20 DUP3 ADD SWAP1 POP DUP2 DUP2 SUB PUSH1 0x0 DUP4 ADD MSTORE PUSH2 0x1C0F DUP2 PUSH2 0x1BD3 JUMP JUMPDEST SWAP1 POP SWAP2 SWAP1 POP JUMP JUMPDEST PUSH1 0x0 DUP2 SWAP1 POP SWAP2 SWAP1 POP JUMP JUMPDEST PUSH1 0x0 DUP2 SWAP1 POP SWAP2 SWAP1 POP JUMP JUMPDEST PUSH1 0x0 PUSH2 0x1C45 PUSH2 0x1C40 PUSH2 0x1C3B DUP5 PUSH2 0x1C16 JUMP JUMPDEST PUSH2 0x1C20 JUMP JUMPDEST PUSH2 0x19C6 JUMP JUMPDEST SWAP1 POP SWAP2 SWAP1 POP JUMP JUMPDEST PUSH2 0x1C55 DUP2 PUSH2 0x1C2A JUMP JUMPDEST DUP3 MSTORE POP POP JUMP JUMPDEST PUSH1 0x0 PUSH1 0x20 DUP3 ADD SWAP1 POP PUSH2 0x1C70 PUSH1 0x0 DUP4 ADD DUP5 PUSH2 0x1C4C JUMP JUMPDEST SWAP3 SWAP2 POP POP JUMP JUMPDEST PUSH32 0x45524332303A2064656372656173656420616C6C6F77616E63652062656C6F77 PUSH1 0x0 DUP3 ADD MSTORE PUSH32 0x207A65726F000000000000000000000000000000000000000000000000000000 PUSH1 0x20 DUP3 ADD MSTORE POP JUMP JUMPDEST PUSH1 0x0 PUSH2 0x1CD2 PUSH1 0x25 DUP4 PUSH2 0x1793 JUMP JUMPDEST SWAP2 POP PUSH2 0x1CDD DUP3 PUSH2 0x1C76 JUMP JUMPDEST PUSH1 0x40 DUP3 ADD SWAP1 POP SWAP2 SWAP1 POP JUMP JUMPDEST PUSH1 0x0 PUSH1 0x20 DUP3 ADD SWAP1 POP DUP2 DUP2 SUB PUSH1 0x0 DUP4 ADD MSTORE PUSH2 0x1D01 DUP2 PUSH2 0x1CC5 JUMP JUMPDEST SWAP1 POP SWAP2 SWAP1 POP JUMP JUMPDEST PUSH32 0x4F776E61626C653A206E6577206F776E657220697320746865207A65726F2061 PUSH1 0x0 DUP3 ADD MSTORE PUSH32 0x6464726573730000000000000000000000000000000000000000000000000000 PUSH1 0x20 DUP3 ADD MSTORE POP JUMP JUMPDEST PUSH1 0x0 PUSH2 0x1D64 PUSH1 0x26 DUP4 PUSH2 0x1793 JUMP JUMPDEST SWAP2 POP PUSH2 0x1D6F DUP3 PUSH2 0x1D08 JUMP JUMPDEST PUSH1 0x40 DUP3 ADD SWAP1 POP SWAP2 SWAP1 POP JUMP JUMPDEST PUSH1 0x0 PUSH1 0x20 DUP3 ADD SWAP1 POP DUP2 DUP2 SUB PUSH1 0x0 DUP4 ADD MSTORE PUSH2 0x1D93 DUP2 PUSH2 0x1D57 JUMP JUMPDEST SWAP1 POP SWAP2 SWAP1 POP JUMP JUMPDEST PUSH32 0x45524332303A20617070726F76652066726F6D20746865207A65726F20616464 PUSH1 0x0 DUP3 ADD MSTORE PUSH32 0x7265737300000000000000000000000000000000000000000000000000000000 PUSH1 0x20 DUP3 ADD MSTORE POP JUMP JUMPDEST PUSH1 0x0 PUSH2 0x1DF6 PUSH1 0x24 DUP4 PUSH2 0x1793 JUMP JUMPDEST SWAP2 POP PUSH2 0x1E01 DUP3 PUSH2 0x1D9A JUMP JUMPDEST PUSH1 0x40 DUP3 ADD SWAP1 POP SWAP2 SWAP1 POP JUMP JUMPDEST PUSH1 0x0 PUSH1 0x20 DUP3 ADD SWAP1 POP DUP2 DUP2 SUB PUSH1 0x0 DUP4 ADD MSTORE PUSH2 0x1E25 DUP2 PUSH2 0x1DE9 JUMP JUMPDEST SWAP1 POP SWAP2 SWAP1 POP JUMP JUMPDEST PUSH32 0x45524332303A20617070726F766520746F20746865207A65726F206164647265 PUSH1 0x0 DUP3 ADD MSTORE PUSH32 0x7373000000000000000000000000000000000000000000000000000000000000 PUSH1 0x20 DUP3 ADD MSTORE POP JUMP JUMPDEST PUSH1 0x0 PUSH2 0x1E88 PUSH1 0x22 DUP4 PUSH2 0x1793 JUMP JUMPDEST SWAP2 POP PUSH2 0x1E93 DUP3 PUSH2 0x1E2C JUMP JUMPDEST PUSH1 0x40 DUP3 ADD SWAP1 POP SWAP2 SWAP1 POP JUMP JUMPDEST PUSH1 0x0 PUSH1 0x20 DUP3 ADD SWAP1 POP DUP2 DUP2 SUB PUSH1 0x0 DUP4 ADD MSTORE PUSH2 0x1EB7 DUP2 PUSH2 0x1E7B JUMP JUMPDEST SWAP1 POP SWAP2 SWAP1 POP JUMP JUMPDEST PUSH32 0x45524332303A20696E73756666696369656E7420616C6C6F77616E6365000000 PUSH1 0x0 DUP3 ADD MSTORE POP JUMP JUMPDEST PUSH1 0x0 PUSH2 0x1EF4 PUSH1 0x1D DUP4 PUSH2 0x1793 JUMP JUMPDEST SWAP2 POP PUSH2 0x1EFF DUP3 PUSH2 0x1EBE JUMP JUMPDEST PUSH1 0x20 DUP3 ADD SWAP1 POP SWAP2 SWAP1 POP JUMP JUMPDEST PUSH1 0x0 PUSH1 0x20 DUP3 ADD SWAP1 POP DUP2 DUP2 SUB PUSH1 0x0 DUP4 ADD MSTORE PUSH2 0x1F23 DUP2 PUSH2 0x1EE7 JUMP JUMPDEST SWAP1 POP SWAP2 SWAP1 POP JUMP JUMPDEST PUSH32 0x45524332303A207472616E736665722066726F6D20746865207A65726F206164 PUSH1 0x0 DUP3 ADD MSTORE PUSH32 0x6472657373000000000000000000000000000000000000000000000000000000 PUSH1 0x20 DUP3 ADD MSTORE POP JUMP JUMPDEST PUSH1 0x0 PUSH2 0x1F86 PUSH1 0x25 DUP4 PUSH2 0x1793 JUMP JUMPDEST SWAP2 POP PUSH2 0x1F91 DUP3 PUSH2 0x1F2A JUMP JUMPDEST PUSH1 0x40 DUP3 ADD SWAP1 POP SWAP2 SWAP1 POP JUMP JUMPDEST PUSH1 0x0 PUSH1 0x20 DUP3 ADD SWAP1 POP DUP2 DUP2 SUB PUSH1 0x0 DUP4 ADD MSTORE PUSH2 0x1FB5 DUP2 PUSH2 0x1F79 JUMP JUMPDEST SWAP1 POP SWAP2 SWAP1 POP JUMP JUMPDEST PUSH32 0x45524332303A207472616E7366657220746F20746865207A65726F2061646472 PUSH1 0x0 DUP3 ADD MSTORE PUSH32 0x6573730000000000000000000000000000000000000000000000000000000000 PUSH1 0x20 DUP3 ADD MSTORE POP JUMP JUMPDEST PUSH1 0x0 PUSH2 0x2018 PUSH1 0x23 DUP4 PUSH2 0x1793 JUMP JUMPDEST SWAP2 POP PUSH2 0x2023 DUP3 PUSH2 0x1FBC JUMP JUMPDEST PUSH1 0x40 DUP3 ADD SWAP1 POP SWAP2 SWAP1 POP JUMP JUMPDEST PUSH1 0x0 PUSH1 0x20 DUP3 ADD SWAP1 POP DUP2 DUP2 SUB PUSH1 0x0 DUP4 ADD MSTORE PUSH2 0x2047 DUP2 PUSH2 0x200B JUMP JUMPDEST SWAP1 POP SWAP2 SWAP1 POP JUMP JUMPDEST PUSH32 0x45524332303A207472616E7366657220616D6F756E7420657863656564732062 PUSH1 0x0 DUP3 ADD MSTORE PUSH32 0x616C616E63650000000000000000000000000000000000000000000000000000 PUSH1 0x20 DUP3 ADD MSTORE POP JUMP JUMPDEST PUSH1 0x0 PUSH2 0x20AA PUSH1 0x26 DUP4 PUSH2 0x1793 JUMP JUMPDEST SWAP2 POP PUSH2 0x20B5 DUP3 PUSH2 0x204E JUMP JUMPDEST PUSH1 0x40 DUP3 ADD SWAP1 POP SWAP2 SWAP1 POP JUMP JUMPDEST PUSH1 0x0 PUSH1 0x20 DUP3 ADD SWAP1 POP DUP2 DUP2 SUB PUSH1 0x0 DUP4 ADD MSTORE PUSH2 0x20D9 DUP2 PUSH2 0x209D JUMP JUMPDEST SWAP1 POP SWAP2 SWAP1 POP JUMP JUMPDEST PUSH32 0x4F776E61626C653A2063616C6C6572206973206E6F7420746865206F776E6572 PUSH1 0x0 DUP3 ADD MSTORE POP JUMP JUMPDEST PUSH1 0x0 PUSH2 0x2116 PUSH1 0x20 DUP4 PUSH2 0x1793 JUMP JUMPDEST SWAP2 POP PUSH2 0x2121 DUP3 PUSH2 0x20E0 JUMP JUMPDEST PUSH1 0x20 DUP3 ADD SWAP1 POP SWAP2 SWAP1 POP JUMP JUMPDEST PUSH1 0x0 PUSH1 0x20 DUP3 ADD SWAP1 POP DUP2 DUP2 SUB PUSH1 0x0 DUP4 ADD MSTORE PUSH2 0x2145 DUP2 PUSH2 0x2109 JUMP JUMPDEST SWAP1 POP SWAP2 SWAP1 POP JUMP JUMPDEST PUSH32 0x45524332303A206D696E7420746F20746865207A65726F206164647265737300 PUSH1 0x0 DUP3 ADD MSTORE POP JUMP JUMPDEST PUSH1 0x0 PUSH2 0x2182 PUSH1 0x1F DUP4 PUSH2 0x1793 JUMP JUMPDEST SWAP2 POP PUSH2 0x218D DUP3 PUSH2 0x214C JUMP JUMPDEST PUSH1 0x20 DUP3 ADD SWAP1 POP SWAP2 SWAP1 POP JUMP JUMPDEST PUSH1 0x0 PUSH1 0x20 DUP3 ADD SWAP1 POP DUP2 DUP2 SUB PUSH1 0x0 DUP4 ADD MSTORE PUSH2 0x21B1 DUP2 PUSH2 0x2175 JUMP JUMPDEST SWAP1 POP SWAP2 SWAP1 POP JUMP JUMPDEST PUSH32 0x45524332303A206275726E2066726F6D20746865207A65726F20616464726573 PUSH1 0x0 DUP3 ADD MSTORE PUSH32 0x7300000000000000000000000000000000000000000000000000000000000000 PUSH1 0x20 DUP3 ADD MSTORE POP JUMP JUMPDEST PUSH1 0x0 PUSH2 0x2214 PUSH1 0x21 DUP4 PUSH2 0x1793 JUMP JUMPDEST SWAP2 POP PUSH2 0x221F DUP3 PUSH2 0x21B8 JUMP JUMPDEST PUSH1 0x40 DUP3 ADD SWAP1 POP SWAP2 SWAP1 POP JUMP JUMPDEST PUSH1 0x0 PUSH1 0x20 DUP3 ADD SWAP1 POP DUP2 DUP2 SUB PUSH1 0x0 DUP4 ADD MSTORE PUSH2 0x2243 DUP2 PUSH2 0x2207 JUMP JUMPDEST SWAP1 POP SWAP2 SWAP1 POP JUMP JUMPDEST PUSH32 0x45524332303A206275726E20616D6F756E7420657863656564732062616C616E PUSH1 0x0 DUP3 ADD MSTORE PUSH32 0x6365000000000000000000000000000000000000000000000000000000000000 PUSH1 0x20 DUP3 ADD MSTORE POP JUMP JUMPDEST PUSH1 0x0 PUSH2 0x22A6 PUSH1 0x22 DUP4 PUSH2 0x1793 JUMP JUMPDEST SWAP2 POP PUSH2 0x22B1 DUP3 PUSH2 0x224A JUMP JUMPDEST PUSH1 0x40 DUP3 ADD SWAP1 POP SWAP2 SWAP1 POP JUMP JUMPDEST PUSH1 0x0 PUSH1 0x20 DUP3 ADD SWAP1 POP DUP2 DUP2 SUB PUSH1 0x0 DUP4 ADD MSTORE PUSH2 0x22D5 DUP2 PUSH2 0x2299 JUMP JUMPDEST SWAP1 POP SWAP2 SWAP1 POP JUMP JUMPDEST PUSH32 0x496E697469616C697A61626C653A20636F6E7472616374206973206E6F742069 PUSH1 0x0 DUP3 ADD MSTORE PUSH32 0x6E697469616C697A696E67000000000000000000000000000000000000000000 PUSH1 0x20 DUP3 ADD MSTORE POP JUMP JUMPDEST PUSH1 0x0 PUSH2 0x2338 PUSH1 0x2B DUP4 PUSH2 0x1793 JUMP JUMPDEST SWAP2 POP PUSH2 0x2343 DUP3 PUSH2 0x22DC JUMP JUMPDEST PUSH1 0x40 DUP3 ADD SWAP1 POP SWAP2 SWAP1 POP JUMP JUMPDEST PUSH1 0x0 PUSH1 0x20 DUP3 ADD SWAP1 POP DUP2 DUP2 SUB PUSH1 0x0 DUP4 ADD MSTORE PUSH2 0x2367 DUP2 PUSH2 0x232B JUMP JUMPDEST SWAP1 POP SWAP2 SWAP1 POP JUMP JUMPDEST PUSH32 0x5061757361626C653A206E6F7420706175736564000000000000000000000000 PUSH1 0x0 DUP3 ADD MSTORE POP JUMP JUMPDEST PUSH1 0x0 PUSH2 0x23A4 PUSH1 0x14 DUP4 PUSH2 0x1793 JUMP JUMPDEST SWAP2 POP PUSH2 0x23AF DUP3 PUSH2 0x236E JUMP JUMPDEST PUSH1 0x20 DUP3 ADD SWAP1 POP SWAP2 SWAP1 POP JUMP JUMPDEST PUSH1 0x0 PUSH1 0x20 DUP3 ADD SWAP1 POP DUP2 DUP2 SUB PUSH1 0x0 DUP4 ADD MSTORE PUSH2 0x23D3 DUP2 PUSH2 0x2397 JUMP JUMPDEST SWAP1 POP SWAP2 SWAP1 POP JUMP JUMPDEST PUSH32 0x4E487B7100000000000000000000000000000000000000000000000000000000 PUSH1 0x0 MSTORE PUSH1 0x41 PUSH1 0x4 MSTORE PUSH1 0x24 PUSH1 0x0 REVERT JUMPDEST PUSH1 0x0 DUP2 SWAP1 POP DUP2 PUSH1 0x0 MSTORE PUSH1 0x20 PUSH1 0x0 KECCAK256 SWAP1 POP SWAP2 SWAP1 POP JUMP JUMPDEST PUSH1 0x0 PUSH1 0x20 PUSH1 0x1F DUP4 ADD DIV SWAP1 POP SWAP2 SWAP1 POP JUMP JUMPDEST PUSH1 0x0 DUP3 DUP3 SHL SWAP1 POP SWAP3 SWAP2 POP POP JUMP JUMPDEST PUSH1 0x0 PUSH1 0x8 DUP4 MUL PUSH2 0x246B PUSH32 0xFFFFFFFFFFFFFFFFFFFFFFFFFFFFFFFFFFFFFFFFFFFFFFFFFFFFFFFFFFFFFFFF DUP3 PUSH2 0x242E JUMP JUMPDEST PUSH2 0x2475 DUP7 DUP4 PUSH2 0x242E JUMP JUMPDEST SWAP6 POP DUP1 NOT DUP5 AND SWAP4 POP DUP1 DUP7 AND DUP5 OR SWAP3 POP POP POP SWAP4 SWAP3 POP POP POP JUMP JUMPDEST PUSH1 0x0 PUSH2 0x24A8 PUSH2 0x24A3 PUSH2 0x249E DUP5 PUSH2 0x189D JUMP JUMPDEST PUSH2 0x1C20 JUMP JUMPDEST PUSH2 0x189D JUMP JUMPDEST SWAP1 POP SWAP2 SWAP1 POP JUMP JUMPDEST PUSH1 0x0 DUP2 SWAP1 POP SWAP2 SWAP1 POP JUMP JUMPDEST PUSH2 0x24C2 DUP4 PUSH2 0x248D JUMP JUMPDEST PUSH2 0x24D6 PUSH2 0x24CE DUP3 PUSH2 0x24AF JUMP JUMPDEST DUP5 DUP5 SLOAD PUSH2 0x243B JUMP JUMPDEST DUP3 SSTORE POP POP POP POP JUMP JUMPDEST PUSH1 0x0 SWAP1 JUMP JUMPDEST PUSH2 0x24EB PUSH2 0x24DE JUMP JUMPDEST PUSH2 0x24F6 DUP2 DUP5 DUP5 PUSH2 0x24B9 JUMP JUMPDEST POP POP POP JUMP JUMPDEST JUMPDEST DUP2 DUP2 LT ISZERO PUSH2 0x251A JUMPI PUSH2 0x250F PUSH1 0x0 DUP3 PUSH2 0x24E3 JUMP JUMPDEST PUSH1 0x1 DUP2 ADD SWAP1 POP PUSH2 0x24FC JUMP JUMPDEST POP POP JUMP JUMPDEST PUSH1 0x1F DUP3 GT ISZERO PUSH2 0x255F JUMPI PUSH2 0x2530 DUP2 PUSH2 0x2409 JUMP JUMPDEST PUSH2 0x2539 DUP5 PUSH2 0x241E JUMP JUMPDEST DUP2 ADD PUSH1 0x20 DUP6 LT ISZERO PUSH2 0x2548 JUMPI DUP2 SWAP1 POP JUMPDEST PUSH2 0x255C PUSH2 0x2554 DUP6 PUSH2 0x241E JUMP JUMPDEST DUP4 ADD DUP3 PUSH2 0x24FB JUMP JUMPDEST POP POP JUMPDEST POP POP POP JUMP JUMPDEST PUSH1 0x0 DUP3 DUP3 SHR SWAP1 POP SWAP3 SWAP2 POP POP JUMP JUMPDEST PUSH1 0x0 PUSH2 0x2582 PUSH1 0x0 NOT DUP5 PUSH1 0x8 MUL PUSH2 0x2564 JUMP JUMPDEST NOT DUP1 DUP4 AND SWAP2 POP POP SWAP3 SWAP2 POP POP JUMP JUMPDEST PUSH1 0x0 PUSH2 0x259B DUP4 DUP4 PUSH2 0x2571 JUMP JUMPDEST SWAP2 POP DUP3 PUSH1 0x2 MUL DUP3 OR SWAP1 POP SWAP3 SWAP2 POP POP JUMP JUMPDEST PUSH2 0x25B4 DUP3 PUSH2 0x1788 JUMP JUMPDEST PUSH8 0xFFFFFFFFFFFFFFFF DUP2 GT ISZERO PUSH2 0x25CD JUMPI PUSH2 0x25CC PUSH2 0x23DA JUMP JUMPDEST JUMPDEST PUSH2 0x25D7 DUP3 SLOAD PUSH2 0x1AF0 JUMP JUMPDEST PUSH2 0x25E2 DUP3 DUP3 DUP6 PUSH2 0x251E JUMP JUMPDEST PUSH1 0x0 PUSH1 0x20 SWAP1 POP PUSH1 0x1F DUP4 GT PUSH1 0x1 DUP2 EQ PUSH2 0x2615 JUMPI PUSH1 0x0 DUP5 ISZERO PUSH2 0x2603 JUMPI DUP3 DUP8 ADD MLOAD SWAP1 POP JUMPDEST PUSH2 0x260D DUP6 DUP3 PUSH2 0x258F JUMP JUMPDEST DUP7 SSTORE POP PUSH2 0x2675 JUMP JUMPDEST PUSH1 0x1F NOT DUP5 AND PUSH2 0x2623 DUP7 PUSH2 0x2409 JUMP JUMPDEST PUSH1 0x0 JUMPDEST DUP3 DUP2 LT ISZERO PUSH2 0x264B JUMPI DUP5 DUP10 ADD MLOAD DUP3 SSTORE PUSH1 0x1 DUP3 ADD SWAP2 POP PUSH1 0x20 DUP6 ADD SWAP5 POP PUSH1 0x20 DUP2 ADD SWAP1 POP PUSH2 0x2626 JUMP JUMPDEST DUP7 DUP4 LT ISZERO PUSH2 0x2668 JUMPI DUP5 DUP10 ADD MLOAD PUSH2 0x2664 PUSH1 0x1F DUP10 AND DUP3 PUSH2 0x2571 JUMP JUMPDEST DUP4 SSTORE POP JUMPDEST PUSH1 0x1 PUSH1 0x2 DUP9 MUL ADD DUP9 SSTORE POP POP POP JUMPDEST POP POP POP POP POP POP JUMP JUMPDEST PUSH32 0x5061757361626C653A2070617573656400000000000000000000000000000000 PUSH1 0x0 DUP3 ADD MSTORE POP JUMP JUMPDEST PUSH1 0x0 PUSH2 0x26B3 PUSH1 0x10 DUP4 PUSH2 0x1793 JUMP JUMPDEST SWAP2 POP PUSH2 0x26BE DUP3 PUSH2 0x267D JUMP JUMPDEST PUSH1 0x20 DUP3 ADD SWAP1 POP SWAP2 SWAP1 POP JUMP JUMPDEST PUSH1 0x0 PUSH1 0x20 DUP3 ADD SWAP1 POP DUP2 DUP2 SUB PUSH1 0x0 DUP4 ADD MSTORE PUSH2 0x26E2 DUP2 PUSH2 0x26A6 JUMP JUMPDEST SWAP1 POP SWAP2 SWAP1 POP JUMP INVALID LOG2 PUSH5 0x6970667358 0x22 SLT KECCAK256 0xD7 0xE0 0xFB JUMP PUSH4 0xAA8F3708 SWAP3 PUSH24 0xF94228AFD796674C7E1DA46604B1C557425B526D0E64736F PUSH13 0x63430008120033000000000000 "
				},
				"gasEstimates": {
					"creation": {
						"codeDepositCost": "2003000",
						"executionCost": "infinite",
						"totalCost": "infinite"
					},
					"external": {
						"allowance(address,address)": "infinite",
						"approve(address,uint256)": "infinite",
						"balanceOf(address)": "2864",
						"burn(uint256)": "infinite",
						"burnFrom(address,uint256)": "infinite",
						"decimals()": "455",
						"decreaseAllowance(address,uint256)": "infinite",
						"increaseAllowance(address,uint256)": "infinite",
						"initialize()": "infinite",
						"mint(address,uint256)": "infinite",
						"name()": "infinite",
						"owner()": "2544",
						"pause()": "infinite",
						"paused()": "2590",
						"renounceOwnership()": "30443",
						"symbol()": "infinite",
						"totalSupply()": "2505",
						"transfer(address,uint256)": "infinite",
						"transferFrom(address,address,uint256)": "infinite",
						"transferOwnership(address)": "30876",
						"unpause()": "infinite"
					},
					"internal": {
						"_beforeTokenTransfer(address,address,uint256)": "infinite"
					}
				},
				"methodIdentifiers": {
					"allowance(address,address)": "dd62ed3e",
					"approve(address,uint256)": "095ea7b3",
					"balanceOf(address)": "70a08231",
					"burn(uint256)": "42966c68",
					"burnFrom(address,uint256)": "79cc6790",
					"decimals()": "313ce567",
					"decreaseAllowance(address,uint256)": "a457c2d7",
					"increaseAllowance(address,uint256)": "39509351",
					"initialize()": "8129fc1c",
					"mint(address,uint256)": "40c10f19",
					"name()": "06fdde03",
					"owner()": "8da5cb5b",
					"pause()": "8456cb59",
					"paused()": "5c975abb",
					"renounceOwnership()": "715018a6",
					"symbol()": "95d89b41",
					"totalSupply()": "18160ddd",
					"transfer(address,uint256)": "a9059cbb",
					"transferFrom(address,address,uint256)": "23b872dd",
					"transferOwnership(address)": "f2fde38b",
					"unpause()": "3f4ba83a"
				}
			},
			"storageLayout": {
				"storage": [
					{
						"astId": 138,
						"contract": "contracts/MyToken.sol:MyToken",
						"label": "_initialized",
						"offset": 0,
						"slot": "0",
						"type": "t_uint8"
					},
					{
						"astId": 141,
						"contract": "contracts/MyToken.sol:MyToken",
						"label": "_initializing",
						"offset": 1,
						"slot": "0",
						"type": "t_bool"
					},
					{
						"astId": 1531,
						"contract": "contracts/MyToken.sol:MyToken",
						"label": "__gap",
						"offset": 0,
						"slot": "1",
						"type": "t_array(t_uint256)50_storage"
					},
					{
						"astId": 446,
						"contract": "contracts/MyToken.sol:MyToken",
						"label": "_balances",
						"offset": 0,
						"slot": "51",
						"type": "t_mapping(t_address,t_uint256)"
					},
					{
						"astId": 452,
						"contract": "contracts/MyToken.sol:MyToken",
						"label": "_allowances",
						"offset": 0,
						"slot": "52",
						"type": "t_mapping(t_address,t_mapping(t_address,t_uint256))"
					},
					{
						"astId": 454,
						"contract": "contracts/MyToken.sol:MyToken",
						"label": "_totalSupply",
						"offset": 0,
						"slot": "53",
						"type": "t_uint256"
					},
					{
						"astId": 456,
						"contract": "contracts/MyToken.sol:MyToken",
						"label": "_name",
						"offset": 0,
						"slot": "54",
						"type": "t_string_storage"
					},
					{
						"astId": 458,
						"contract": "contracts/MyToken.sol:MyToken",
						"label": "_symbol",
						"offset": 0,
						"slot": "55",
						"type": "t_string_storage"
					},
					{
						"astId": 1038,
						"contract": "contracts/MyToken.sol:MyToken",
						"label": "__gap",
						"offset": 0,
						"slot": "56",
						"type": "t_array(t_uint256)45_storage"
					},
					{
						"astId": 1180,
						"contract": "contracts/MyToken.sol:MyToken",
						"label": "__gap",
						"offset": 0,
						"slot": "101",
						"type": "t_array(t_uint256)50_storage"
					},
					{
						"astId": 321,
						"contract": "contracts/MyToken.sol:MyToken",
						"label": "_paused",
						"offset": 0,
						"slot": "151",
						"type": "t_bool"
					},
					{
						"astId": 426,
						"contract": "contracts/MyToken.sol:MyToken",
						"label": "__gap",
						"offset": 0,
						"slot": "152",
						"type": "t_array(t_uint256)49_storage"
					},
					{
						"astId": 10,
						"contract": "contracts/MyToken.sol:MyToken",
						"label": "_owner",
						"offset": 0,
						"slot": "201",
						"type": "t_address"
					},
					{
						"astId": 130,
						"contract": "contracts/MyToken.sol:MyToken",
						"label": "__gap",
						"offset": 0,
						"slot": "202",
						"type": "t_array(t_uint256)49_storage"
					}
				],
				"types": {
					"t_address": {
						"encoding": "inplace",
						"label": "address",
						"numberOfBytes": "20"
					},
					"t_array(t_uint256)45_storage": {
						"base": "t_uint256",
						"encoding": "inplace",
						"label": "uint256[45]",
						"numberOfBytes": "1440"
					},
					"t_array(t_uint256)49_storage": {
						"base": "t_uint256",
						"encoding": "inplace",
						"label": "uint256[49]",
						"numberOfBytes": "1568"
					},
					"t_array(t_uint256)50_storage": {
						"base": "t_uint256",
						"encoding": "inplace",
						"label": "uint256[50]",
						"numberOfBytes": "1600"
					},
					"t_bool": {
						"encoding": "inplace",
						"label": "bool",
						"numberOfBytes": "1"
					},
					"t_mapping(t_address,t_mapping(t_address,t_uint256))": {
						"encoding": "mapping",
						"key": "t_address",
						"label": "mapping(address => mapping(address => uint256))",
						"numberOfBytes": "32",
						"value": "t_mapping(t_address,t_uint256)"
					},
					"t_mapping(t_address,t_uint256)": {
						"encoding": "mapping",
						"key": "t_address",
						"label": "mapping(address => uint256)",
						"numberOfBytes": "32",
						"value": "t_uint256"
					},
					"t_string_storage": {
						"encoding": "bytes",
						"label": "string",
						"numberOfBytes": "32"
					},
					"t_uint256": {
						"encoding": "inplace",
						"label": "uint256",
						"numberOfBytes": "32"
					},
					"t_uint8": {
						"encoding": "inplace",
						"label": "uint8",
						"numberOfBytes": "1"
					}
				}
			},
			"userdoc": {
				"kind": "user",
				"methods": {},
				"version": 1
			}
		}
	}
}