{
	"data": {
		"bytecode": {
			"linkReferences": {
				"blockchain/contracts/Polygon/Pools/Prototype/Utils.sol": {
					"Utils": [
						{
							"length": 20,
							"start": 1855
						},
						{
							"length": 20,
							"start": 6164
						}
					]
				}
			},
			"object": "608060405234801561001057600080fd5b5061001a33610023565b60018055610073565b600080546001600160a01b038381166001600160a01b0319831681178455604051919092169283917f8be0079c531659141344cd1fd0a4f28419497f9722a3daafe3b4186f6b6457e09190a35050565b61449f80620000836000396000f3fe608060405260043610620000a95760003560e01c80638da5cb5b116200006c5780638da5cb5b1462000147578063a6e07de31462000171578063ac4afa3814620001e8578063e06174e41462000222578063f2fde38b146200028c578063f52bccad14620002b157600080fd5b80630968f26414620000ae5780631913a27614620000e8578063420f0bf014620000ff57806344090c6c1462000116578063715018a6146200012d575b600080fd5b348015620000bb57600080fd5b50620000d3620000cd36600462002415565b620002d9565b60405190151581526020015b60405180910390f35b620000d3620000f936600462002415565b620008ec565b620000d36200011036600462002415565b620009a3565b620000d36200012736600462002415565b62001108565b3480156200013a57600080fd5b506200014562001b97565b005b3480156200015457600080fd5b506000546040516001600160a01b039091168152602001620000df565b3480156200017e57600080fd5b50620001c5620001903660046200249d565b600460209081526000928352604080842090915290825290208054600182015460028301546003909301549192909160ff1684565b6040805194855260208501939093529183015215156060820152608001620000df565b348015620001f557600080fd5b506200020d62000207366004620024c0565b62001baf565b604051620000df97969594939291906200252e565b3480156200022f57600080fd5b50600654600754600854600954600a5462000257949392916001600160a01b03908116911685565b604080519586526020860194909452928401919091526001600160a01b03908116606084015216608082015260a001620000df565b3480156200029957600080fd5b5062000145620002ab366004620025cd565b62001cc8565b348015620002be57600080fd5b50600254620002ca9081565b604051908152602001620000df565b6000620002e562001d47565b60008083806020019051810190620002fe9190620025f4565b9150915060008111620003625760405162461bcd60e51b815260206004820152602160248201527f53696e676c6553746174653a3a77697468647261773a2076616c7565203c3d206044820152600360fc1b60648201526084015b60405180910390fd5b60006003600084815260200190815260200160002060405180610120016040529081600082015481526020016001820180546200039f9062002619565b80601f0160208091040260200160405190810160405280929190818152602001828054620003cd9062002619565b80156200041e5780601f10620003f2576101008083540402835291602001916200041e565b820191906000526020600020905b8154815290600101906020018083116200040057829003601f168201915b50505091835250506040805160a08082018352600285015482526003850154602083810191909152600486015483850152600586015460ff80821615156060808701919091526101009092041615156080808601919091528287019490945260068701546001600160a01b031685870152600787015490860152600886015492850192909252600985015490840152600a8401805483518184028101840190945280845260c09094019390918301828280156200050557602002820191906000526020600020905b81546001600160a01b03168152600190910190602001808311620004e6575b50505050508152602001600b82018054806020026020016040519081016040528092919081815260200182805480156200055f57602002820191906000526020600020905b8154815260200190600101908083116200054a575b5050505050815250509050600081606001516001600160a01b03166318160ddd6040518163ffffffff1660e01b8152600401602060405180830381865afa158015620005af573d6000803e3d6000fd5b505050506040513d601f19601f82011682018060405250810190620005d5919062002655565b60c083015190915081620006375760405162461bcd60e51b815260206004820152602260248201527f53696e676c6553746174653a3a77697468647261773a20737570706c79203c3d604482015261020360f41b606482015260840162000359565b60008111620006955760405162461bcd60e51b815260206004820152602360248201527f53696e676c6553746174653a3a77697468647261773a2062616c616e6365203c60448201526203d20360ec1b606482015260840162000359565b60405163011c4c2160e21b815260048101859052602481018390526044810182905260009073__$60bc0b1d1e5c1feb9f72093f6d95d7e6c2$__90630471308490606401602060405180830381865af4158015620006f7573d6000803e3d6000fd5b505050506040513d601f19601f820116820180604052508101906200071d919062002655565b9050808460c001511015620007ae5760405162461bcd60e51b815260206004820152604a60248201527f53696e676c6553746174653a3a77697468647261773a20696e7375666669636960448201527f656e742062616c616e6365206f6e20636f6e747261637420746f206d616b65206064820152691dda5d1a191c985dd85b60b21b608482015260a40162000359565b60085415620008045760085460009061271090620007cd908862002685565b620007d99190620026a5565b9050620007e78183620026c8565b600a5490925062000802906001600160a01b03168262001da2565b505b606084015160405163079cc67960e41b8152336004820152602481018790526001600160a01b03909116906379cc679090604401600060405180830381600087803b1580156200085357600080fd5b505af115801562000868573d6000803e3d6000fd5b5050505062000878338262001da2565b808460c0018181516200088c9190620026c8565b905250602084015160405133917f8abd2c969830597ba5ec419d56dd04a713cccf5cf1764ca5c55e9e8b2db0d8f191620008cb919089908690620026de565b60405180910390a260019650505050505050620008e760018055565b919050565b6000806000808480602001905181019062000908919062002705565b925092509250620009198362001ec6565b6200099b5760405162461bcd60e51b8152602060048201526044602482018190527f53696e676c6553746174653a3a6e6577436f6c6c61745441677265656d656e74908201527f3a2063616c6c6572206973206e6f74206d616e61676572206f662074686973206064820152631c1bdbdb60e21b608482015260a40162000359565b505050919050565b6000620009af62001d47565b600080600080600080600088806020019051810190620009d091906200283a565b965096509650965096509650965062093a8083101562000a595760405162461bcd60e51b815260206004820152603c60248201527f53696e676c6553746174653a3a6372656174654e6577506f6f6c3a206475726160448201527f74696f6e5365636f6e6473203c20363034383030207365636f6e647300000000606482015260840162000359565b6006541562000aea57600954600a546006546040516323b872dd60e01b81523360048201526001600160a01b03928316602482015260448101919091529116906323b872dd906064016020604051808303816000875af115801562000ac2573d6000803e3d6000fd5b505050506040513d601f19601f8201168201806040525081019062000ae891906200291a565b505b6002546000191162000b745760405162461bcd60e51b815260206004820152604660248201527f53696e676c6553746174653a3a6372656174654e6577506f6f6c3a207472616360448201527f6b65722e6e756d6265724f66506f6f6c73203e3d20747970652875696e74323560648201526506c525cdac2f60d31b608482015260a40162000359565b6002805490600062000b868362002938565b90915550506002546040516000908790879062000ba390620021a7565b62000bb092919062002954565b604051809103906000f08015801562000bcd573d6000803e3d6000fd5b506040805160a08101825260006080820152428082526020820189905291810187905285151560608201529192509062000c06620021b5565b84815260208082018d81523460c084015260408084018590526001600160a01b0387166060850152600060a085018190528881526003909352909120825181559051829190600182019062000c5c9082620029d8565b5060408281015180516002840155602080820151600385015591810151600484015560608082015160058501805460809485015115156101000261ff00199315159390931661ffff19909116179190911790558401516006840180546001600160a01b039092166001600160a01b0319909216919091179055830151600783015560a0830151600883015560c0830151600983015560e0830151805162000d0a92600a85019201906200223f565b50610100820151805162000d2991600b840191602090910190620022a9565b5090505060005b8b518110156200109e576000600560008e848151811062000d555762000d5562002aa5565b60200260200101516001600160a01b03166001600160a01b031681526020019081526020016000206040518060800160405290816000820180548060200260200160405190810160405280929190818152602001828054801562000df957602002820191906000526020600020906000905b825461010083900a900460ff16151581526020600192830181810494850194909303909202910180841162000dc75790505b505050505081526020016001820180548060200260200160405190810160405280929190818152602001828054801562000e7357602002820191906000526020600020906000905b825461010083900a900460ff16151581526020600192830181810494850194909303909202910180841162000e415790505b505050505081526020016002820180548060200260200160405190810160405280929190818152602001828054801562000eed57602002820191906000526020600020906000905b825461010083900a900460ff16151581526020600192830181810494850194909303909202910180841162000ebb5790505b505050505081526020016003820180548060200260200160405190810160405280929190818152602001828054801562000f6757602002820191906000526020600020906000905b825461010083900a900460ff16151581526020600192830181810494850194909303909202910180841162000f355790505b505050505081525050905060018160400151888151811062000f8d5762000f8d62002aa5565b60200260200101901515908115158152505060018160600151888151811062000fba5762000fba62002aa5565b60200260200101901515908115158152505080600560008f858151811062000fe65762000fe662002aa5565b60200260200101516001600160a01b03166001600160a01b0316815260200190815260200160002060008201518160000190805190602001906200102c929190620022e7565b506020828101518051620010479260018501920190620022e7565b506040820151805162001065916002840191602090910190620022e7565b506060820151805162001083916003840191602090910190620022e7565b50905050508080620010959062002938565b91505062000d30565b50336001600160a01b03167fe4d157602a9d2c12fc689c6a17ab66d95454a3e4b5d3dc543d37a622d932d6428d8d8d8d8d8d8d604051620010e6979695949392919062002abb565b60405180910390a260019c50505050505050505050505050620008e760018055565b60006200111462001d47565b6000828060200190518101906200112c919062002655565b905034806200118a5760405162461bcd60e51b815260206004820152602360248201527f53696e676c6553746174653a3a636f6e747269627574653a2076616c7565203c60448201526203d20360ec1b606482015260840162000359565b3360009081526005602090815260408083208151815460a094810282018501909352608081018381529093919284928491908401828280156200120d57602002820191906000526020600020906000905b825461010083900a900460ff161515815260206001928301818104948501949093039092029101808411620011db5790505b50505050508152602001600182018054806020026020016040519081016040528092919081815260200182805480156200128757602002820191906000526020600020906000905b825461010083900a900460ff161515815260206001928301818104948501949093039092029101808411620012555790505b50505050508152602001600282018054806020026020016040519081016040528092919081815260200182805480156200130157602002820191906000526020600020906000905b825461010083900a900460ff161515815260206001928301818104948501949093039092029101808411620012cf5790505b50505050508152602001600382018054806020026020016040519081016040528092919081815260200182805480156200137b57602002820191906000526020600020906000905b825461010083900a900460ff161515815260206001928301818104948501949093039092029101808411620013495790505b50505050508152505090506000600360008581526020019081526020016000206040518061012001604052908160008201548152602001600182018054620013c39062002619565b80601f0160208091040260200160405190810160405280929190818152602001828054620013f19062002619565b8015620014425780601f10620014165761010080835404028352916020019162001442565b820191906000526020600020905b8154815290600101906020018083116200142457829003601f168201915b50505091835250506040805160a08082018352600285015482526003850154602083810191909152600486015483850152600586015460ff80821615156060808701919091526101009092041615156080808601919091528287019490945260068701546001600160a01b031685870152600787015490860152600886015492850192909252600985015490840152600a8401805483518184028101840190945280845260c09094019390918301828280156200152957602002820191906000526020600020905b81546001600160a01b031681526001909101906020018083116200150a575b50505050508152602001600b82018054806020026020016040519081016040528092919081815260200182805480156200158357602002820191906000526020600020905b8154815260200190600101908083116200156e575b5050505050815250509050806040015160600151156200163c5781606001518481518110620015b657620015b662002aa5565b60200260200101516200163c5760405162461bcd60e51b815260206004820152604160248201527f53696e676c6553746174653a3a636f6e747269627574653a2063616c6c65722060448201527f6973206e6f74206f6e2077686974656c69737420666f72207468697320706f6f6064820152601b60fa1b608482015260a40162000359565b600081606001516001600160a01b03166318160ddd6040518163ffffffff1660e01b8152600401602060405180830381865afa15801562001681573d6000803e3d6000fd5b505050506040513d601f19601f82011682018060405250810190620016a7919062002655565b60c0830151909150816200170a5760405162461bcd60e51b8152602060048201526024808201527f53696e676c6553746174653a3a636f6e747269627574653a20737570706c792060448201526303c3d20360e41b606482015260840162000359565b600081116200176a5760405162461bcd60e51b815260206004820152602560248201527f53696e676c6553746174653a3a636f6e747269627574653a2062616c616e63656044820152640203c3d20360dc1b606482015260840162000359565b6040516301e2dbf560e21b815260048101869052602481018390526044810182905260009073__$60bc0b1d1e5c1feb9f72093f6d95d7e6c2$__9063078b6fd490606401602060405180830381865af4158015620017cc573d6000803e3d6000fd5b505050506040513d601f19601f82011682018060405250810190620017f2919062002655565b6040850151602081015190519192506200180c9162002b6a565b421115620018955760405162461bcd60e51b815260206004820152604960248201527f53696e676c6553746174653a3a636f6e747269627574653a20696e697469616c60448201527f2066756e64696e6720706572696f6420666f72207468697320706f6f6c2068616064820152681cc8195e1c1a5c995960ba1b608482015260a40162000359565b600754156200193e5760075460009061271090620018b4908462002685565b620018c09190620026a5565b9050620018ce8183620026c8565b6060860151600a546040516340c10f1960e01b81526001600160a01b0391821660048201526024810185905292945016906340c10f1990604401600060405180830381600087803b1580156200192357600080fd5b505af115801562001938573d6000803e3d6000fd5b50505050505b858460c00181815162001952919062002b6a565b90525060608401516040516340c10f1960e01b8152336004820152602481018390526001600160a01b03909116906340c10f1990604401600060405180830381600087803b158015620019a457600080fd5b505af1158015620019b9573d6000803e3d6000fd5b505050600088815260036020908152604090912086518155908601518692506001820190620019e99082620029d8565b5060408281015180516002840155602080820151600385015591810151600484015560608082015160058501805460809485015115156101000261ff00199315159390931661ffff19909116179190911790558401516006840180546001600160a01b039092166001600160a01b0319909216919091179055830151600783015560a0830151600883015560c0830151600983015560e0830151805162001a9792600a85019201906200223f565b50610100820151805162001ab691600b840191602090910190620022a9565b505033600090815260056020908152604090912087518051899450919262001ae492849290910190620022e7565b50602082810151805162001aff9260018501920190620022e7565b506040820151805162001b1d916002840191602090910190620022e7565b506060820151805162001b3b916003840191602090910190620022e7565b505050602084015160405133917f8d907c93ff18e98723678268b6c80dcc66ad895aa3f180551f1f0052c8af39439162001b7a91908a908690620026de565b60405180910390a26001975050505050505050620008e760018055565b62001ba1620020fb565b62001bad600062002157565b565b6003602052600090815260409020805460018201805491929162001bd39062002619565b80601f016020809104026020016040519081016040528092919081815260200182805462001c019062002619565b801562001c525780601f1062001c265761010080835404028352916020019162001c52565b820191906000526020600020905b81548152906001019060200180831162001c3457829003601f168201915b50506040805160a0810182526002870154815260038701546020820152600487015491810191909152600586015460ff808216151560608401526101009091041615156080820152600686015460078701546008880154600990980154969792966001600160a01b039092169550935090915087565b62001cd2620020fb565b6001600160a01b03811662001d395760405162461bcd60e51b815260206004820152602660248201527f4f776e61626c653a206e6577206f776e657220697320746865207a65726f206160448201526564647265737360d01b606482015260840162000359565b62001d448162002157565b50565b60026001540362001d9b5760405162461bcd60e51b815260206004820152601f60248201527f5265656e7472616e637947756172643a207265656e7472616e742063616c6c00604482015260640162000359565b6002600155565b8047101562001df45760405162461bcd60e51b815260206004820152601d60248201527f416464726573733a20696e73756666696369656e742062616c616e6365000000604482015260640162000359565b6000826001600160a01b03168260405160006040518083038185875af1925050503d806000811462001e43576040519150601f19603f3d011682016040523d82523d6000602084013e62001e48565b606091505b505090508062001ec15760405162461bcd60e51b815260206004820152603a60248201527f416464726573733a20756e61626c6520746f2073656e642076616c75652c207260448201527f6563697069656e74206d61792068617665207265766572746564000000000000606482015260840162000359565b505050565b3360009081526005602090815260408083208151815460a0948102820185019093526080810183815285949193849284919084018282801562001f4957602002820191906000526020600020906000905b825461010083900a900460ff16151581526020600192830181810494850194909303909202910180841162001f175790505b505050505081526020016001820180548060200260200160405190810160405280929190818152602001828054801562001fc357602002820191906000526020600020906000905b825461010083900a900460ff16151581526020600192830181810494850194909303909202910180841162001f915790505b50505050508152602001600282018054806020026020016040519081016040528092919081815260200182805480156200203d57602002820191906000526020600020906000905b825461010083900a900460ff1615158152602060019283018181049485019490930390920291018084116200200b5790505b5050505050815260200160038201805480602002602001604051908101604052809291908181526020018280548015620020b757602002820191906000526020600020906000905b825461010083900a900460ff161515815260206001928301818104948501949093039092029101808411620020855790505b505050505081525050905080604001518381518110620020db57620020db62002aa5565b602002602001015115620020f25750600192915050565b50600092915050565b6000546001600160a01b0316331462001bad5760405162461bcd60e51b815260206004820181905260248201527f4f776e61626c653a2063616c6c6572206973206e6f7420746865206f776e6572604482015260640162000359565b600080546001600160a01b038381166001600160a01b0319831681178455604051919092169283917f8be0079c531659141344cd1fd0a4f28419497f9722a3daafe3b4186f6b6457e09190a35050565b6118e98062002b8183390190565b6040518061012001604052806000815260200160608152602001620022066040518060a001604052806000815260200160008152602001600081526020016000151581526020016000151581525090565b815260200160006001600160a01b0316815260200160008152602001600081526020016000815260200160608152602001606081525090565b82805482825590600052602060002090810192821562002297579160200282015b828111156200229757825182546001600160a01b0319166001600160a01b0390911617825560209092019160019091019062002260565b50620022a592915062002389565b5090565b82805482825590600052602060002090810192821562002297579160200282015b8281111562002297578251825591602001919060010190620022ca565b82805482825590600052602060002090601f01602090048101928215620022975791602002820160005b838211156200235057835183826101000a81548160ff021916908315150217905550926020019260010160208160000104928301926001030262002311565b80156200237f5782816101000a81549060ff021916905560010160208160000104928301926001030262002350565b5050620022a59291505b5b80821115620022a557600081556001016200238a565b634e487b7160e01b600052604160045260246000fd5b604051601f8201601f1916810167ffffffffffffffff81118282101715620023e257620023e2620023a0565b604052919050565b600067ffffffffffffffff821115620024075762002407620023a0565b50601f01601f191660200190565b6000602082840312156200242857600080fd5b813567ffffffffffffffff8111156200244057600080fd5b8201601f810184136200245257600080fd5b8035620024696200246382620023ea565b620023b6565b8181528560208385010111156200247f57600080fd5b81602084016020830137600091810160200191909152949350505050565b60008060408385031215620024b157600080fd5b50508035926020909101359150565b600060208284031215620024d357600080fd5b5035919050565b60005b83811015620024f7578181015183820152602001620024dd565b50506000910152565b600081518084526200251a816020860160208601620024da565b601f01601f19169290920160200192915050565b60006101608983528060208401526200254a8184018a62002500565b9150508651604083015260208701516060830152604087015160808301526060870151151560a08301526080870151151560c08301526200259660e08301876001600160a01b03169052565b84610100830152836101208301528261014083015298975050505050505050565b6001600160a01b038116811462001d4457600080fd5b600060208284031215620025e057600080fd5b8135620025ed81620025b7565b9392505050565b600080604083850312156200260857600080fd5b505080516020909101519092909150565b600181811c908216806200262e57607f821691505b6020821081036200264f57634e487b7160e01b600052602260045260246000fd5b50919050565b6000602082840312156200266857600080fd5b5051919050565b634e487b7160e01b600052601160045260246000fd5b80820281158282048414176200269f576200269f6200266f565b92915050565b600082620026c357634e487b7160e01b600052601260045260246000fd5b500490565b818103818111156200269f576200269f6200266f565b606081526000620026f3606083018662002500565b60208301949094525060400152919050565b6000806000606084860312156200271b57600080fd5b8351925060208401516200272f81620025b7565b80925050604084015190509250925092565b600082601f8301126200275357600080fd5b8151620027646200246382620023ea565b8181528460208386010111156200277a57600080fd5b6200278d826020830160208701620024da565b949350505050565b600082601f830112620027a757600080fd5b8151602067ffffffffffffffff821115620027c657620027c6620023a0565b8160051b620027d7828201620023b6565b9283528481018201928281019087851115620027f257600080fd5b83870192505b848310156200281e5782516200280e81620025b7565b82529183019190830190620027f8565b979650505050505050565b80518015158114620008e757600080fd5b600080600080600080600060e0888a0312156200285657600080fd5b875167ffffffffffffffff808211156200286f57600080fd5b6200287d8b838c0162002741565b985060208a01519150808211156200289457600080fd5b620028a28b838c0162002795565b975060408a0151915080821115620028b957600080fd5b620028c78b838c0162002741565b965060608a0151915080821115620028de57600080fd5b50620028ed8a828b0162002741565b9450506080880151925060a088015191506200290c60c0890162002829565b905092959891949750929550565b6000602082840312156200292d57600080fd5b620025ed8262002829565b6000600182016200294d576200294d6200266f565b5060010190565b60408152600062002969604083018562002500565b82810360208401526200297d818562002500565b95945050505050565b601f82111562001ec157600081815260208120601f850160051c81016020861015620029af5750805b601f850160051c820191505b81811015620029d057828155600101620029bb565b505050505050565b815167ffffffffffffffff811115620029f557620029f5620023a0565b62002a0d8162002a06845462002619565b8462002986565b602080601f83116001811462002a45576000841562002a2c5750858301515b600019600386901b1c1916600185901b178555620029d0565b600085815260208120601f198616915b8281101562002a765788860151825594840194600190910190840162002a55565b508582101562002a955787850151600019600388901b60f8161c191681555b5050505050600190811b01905550565b634e487b7160e01b600052603260045260246000fd5b60e08152600062002ad060e083018a62002500565b82810360208481019190915289518083528a82019282019060005b8181101562002b125784516001600160a01b03168352938301939183019160010162002aeb565b5050848103604086015262002b28818b62002500565b92505050828103606084015262002b40818862002500565b9150508460808301528360a083015262002b5e60c083018415159052565b98975050505050505050565b808201808211156200269f576200269f6200266f56fe6101406040523480156200001257600080fd5b50604051620018e9380380620018e9833981016040819052620000359162000242565b6040805180820190915260018152603160f81b602082015282908190818460036200006183826200033b565b5060046200007082826200033b565b50506005805460ff1916905550620000883362000123565b815160208084019190912082518383012060e08290526101008190524660a0818152604080517f8b73c3c69bb8fe3d512ecc4cf759cc79239f7b179b0ffacaa9a75d522b39400f81880181905281830187905260608201869052608082019490945230818401528151808203909301835260c00190528051940193909320919290916080523060c05261012052506200040795505050505050565b600580546001600160a01b03838116610100818102610100600160a81b031985161790945560405193909204169182907f8be0079c531659141344cd1fd0a4f28419497f9722a3daafe3b4186f6b6457e090600090a35050565b634e487b7160e01b600052604160045260246000fd5b600082601f830112620001a557600080fd5b81516001600160401b0380821115620001c257620001c26200017d565b604051601f8301601f19908116603f01168101908282118183101715620001ed57620001ed6200017d565b816040528381526020925086838588010111156200020a57600080fd5b600091505b838210156200022e57858201830151818301840152908201906200020f565b600093810190920192909252949350505050565b600080604083850312156200025657600080fd5b82516001600160401b03808211156200026e57600080fd5b6200027c8683870162000193565b935060208501519150808211156200029357600080fd5b50620002a28582860162000193565b9150509250929050565b600181811c90821680620002c157607f821691505b602082108103620002e257634e487b7160e01b600052602260045260246000fd5b50919050565b601f8211156200033657600081815260208120601f850160051c81016020861015620003115750805b601f850160051c820191505b8181101562000332578281556001016200031d565b5050505b505050565b81516001600160401b038111156200035757620003576200017d565b6200036f81620003688454620002ac565b84620002e8565b602080601f831160018114620003a757600084156200038e5750858301515b600019600386901b1c1916600185901b17855562000332565b600085815260208120601f198616915b82811015620003d857888601518255948401946001909101908401620003b7565b5085821015620003f75787850151600019600388901b60f8161c191681555b5050505050600190811b01905550565b60805160a05160c05160e0516101005161012051611492620004576000396000610b1101526000610b6001526000610b3b01526000610a9401526000610abe01526000610ae801526114926000f3fe608060405234801561001057600080fd5b506004361061014d5760003560e01c806370a08231116100c357806395d89b411161007c57806395d89b41146102a5578063a457c2d7146102ad578063a9059cbb146102c0578063d505accf146102d3578063dd62ed3e146102e6578063f2fde38b146102f957600080fd5b806370a082311461021d578063715018a61461024657806379cc67901461024e5780637ecebe00146102615780638456cb59146102745780638da5cb5b1461027c57600080fd5b80633644e515116101155780633644e515146101c757806339509351146101cf5780633f4ba83a146101e257806340c10f19146101ec57806342966c68146101ff5780635c975abb1461021257600080fd5b806306fdde0314610152578063095ea7b31461017057806318160ddd1461019357806323b872dd146101a5578063313ce567146101b8575b600080fd5b61015a61030c565b6040516101679190611240565b60405180910390f35b61018361017e3660046112aa565b61039e565b6040519015158152602001610167565b6002545b604051908152602001610167565b6101836101b33660046112d4565b6103b8565b60405160128152602001610167565b6101976103dc565b6101836101dd3660046112aa565b6103eb565b6101ea61040d565b005b6101ea6101fa3660046112aa565b61041f565b6101ea61020d366004611310565b610435565b60055460ff16610183565b61019761022b366004611329565b6001600160a01b031660009081526020819052604090205490565b6101ea610442565b6101ea61025c3660046112aa565b610454565b61019761026f366004611329565b610469565b6101ea610487565b60055461010090046001600160a01b03166040516001600160a01b039091168152602001610167565b61015a610497565b6101836102bb3660046112aa565b6104a6565b6101836102ce3660046112aa565b610526565b6101ea6102e136600461134b565b610534565b6101976102f43660046113be565b610698565b6101ea610307366004611329565b6106c3565b60606003805461031b906113f1565b80601f0160208091040260200160405190810160405280929190818152602001828054610347906113f1565b80156103945780601f1061036957610100808354040283529160200191610394565b820191906000526020600020905b81548152906001019060200180831161037757829003601f168201915b5050505050905090565b6000336103ac818585610739565b60019150505b92915050565b6000336103c685828561085e565b6103d18585856108d8565b506001949350505050565b60006103e6610a87565b905090565b6000336103ac8185856103fe8383610698565b6104089190611425565b610739565b610415610bae565b61041d610c0e565b565b610427610bae565b6104318282610c60565b5050565b61043f3382610d2b565b50565b61044a610bae565b61041d6000610e61565b61045f82338361085e565b6104318282610d2b565b6001600160a01b0381166000908152600660205260408120546103b2565b61048f610bae565b61041d610ebb565b60606004805461031b906113f1565b600033816104b48286610698565b9050838110156105195760405162461bcd60e51b815260206004820152602560248201527f45524332303a2064656372656173656420616c6c6f77616e63652062656c6f77604482015264207a65726f60d81b60648201526084015b60405180910390fd5b6103d18286868403610739565b6000336103ac8185856108d8565b834211156105845760405162461bcd60e51b815260206004820152601d60248201527f45524332305065726d69743a206578706972656420646561646c696e650000006044820152606401610510565b60007f6e71edae12b1b97f4d1f60370fef10105fa2faae0126114a169c64845d6126c98888886105b38c610ef8565b6040805160208101969096526001600160a01b0394851690860152929091166060840152608083015260a082015260c0810186905260e001604051602081830303815290604052805190602001209050600061060e82610f20565b9050600061061e82878787610f6e565b9050896001600160a01b0316816001600160a01b0316146106815760405162461bcd60e51b815260206004820152601e60248201527f45524332305065726d69743a20696e76616c6964207369676e617475726500006044820152606401610510565b61068c8a8a8a610739565b50505050505050505050565b6001600160a01b03918216600090815260016020908152604080832093909416825291909152205490565b6106cb610bae565b6001600160a01b0381166107305760405162461bcd60e51b815260206004820152602660248201527f4f776e61626c653a206e6577206f776e657220697320746865207a65726f206160448201526564647265737360d01b6064820152608401610510565b61043f81610e61565b6001600160a01b03831661079b5760405162461bcd60e51b8152602060048201526024808201527f45524332303a20617070726f76652066726f6d20746865207a65726f206164646044820152637265737360e01b6064820152608401610510565b6001600160a01b0382166107fc5760405162461bcd60e51b815260206004820152602260248201527f45524332303a20617070726f766520746f20746865207a65726f206164647265604482015261737360f01b6064820152608401610510565b6001600160a01b0383811660008181526001602090815260408083209487168084529482529182902085905590518481527f8c5be1e5ebec7d5bd14f71427d1e84f3dd0314c0f7b2291e5b200ac8c7c3b92591015b60405180910390a3505050565b600061086a8484610698565b905060001981146108d257818110156108c55760405162461bcd60e51b815260206004820152601d60248201527f45524332303a20696e73756666696369656e7420616c6c6f77616e63650000006044820152606401610510565b6108d28484848403610739565b50505050565b6001600160a01b03831661093c5760405162461bcd60e51b815260206004820152602560248201527f45524332303a207472616e736665722066726f6d20746865207a65726f206164604482015264647265737360d81b6064820152608401610510565b6001600160a01b03821661099e5760405162461bcd60e51b815260206004820152602360248201527f45524332303a207472616e7366657220746f20746865207a65726f206164647260448201526265737360e81b6064820152608401610510565b6109a9838383610f96565b6001600160a01b03831660009081526020819052604090205481811015610a215760405162461bcd60e51b815260206004820152602660248201527f45524332303a207472616e7366657220616d6f756e7420657863656564732062604482015265616c616e636560d01b6064820152608401610510565b6001600160a01b03848116600081815260208181526040808320878703905593871680835291849020805487019055925185815290927fddf252ad1be2c89b69c2b068fc378daa952ba7f163c4a11628f55a4df523b3ef910160405180910390a36108d2565b6000306001600160a01b037f000000000000000000000000000000000000000000000000000000000000000016148015610ae057507f000000000000000000000000000000000000000000000000000000000000000046145b15610b0a57507f000000000000000000000000000000000000000000000000000000000000000090565b50604080517f00000000000000000000000000000000000000000000000000000000000000006020808301919091527f0000000000000000000000000000000000000000000000000000000000000000828401527f000000000000000000000000000000000000000000000000000000000000000060608301524660808301523060a0808401919091528351808403909101815260c0909201909252805191012090565b6005546001600160a01b0361010090910416331461041d5760405162461bcd60e51b815260206004820181905260248201527f4f776e61626c653a2063616c6c6572206973206e6f7420746865206f776e65726044820152606401610510565b610c16610fa3565b6005805460ff191690557f5db9ee0a495bf2e6ff9c91a7834c1ba4fdd244a5e8aa4e537bd38aeae4b073aa335b6040516001600160a01b03909116815260200160405180910390a1565b6001600160a01b038216610cb65760405162461bcd60e51b815260206004820152601f60248201527f45524332303a206d696e7420746f20746865207a65726f2061646472657373006044820152606401610510565b610cc260008383610f96565b8060026000828254610cd49190611425565b90915550506001600160a01b038216600081815260208181526040808320805486019055518481527fddf252ad1be2c89b69c2b068fc378daa952ba7f163c4a11628f55a4df523b3ef910160405180910390a35050565b6001600160a01b038216610d8b5760405162461bcd60e51b815260206004820152602160248201527f45524332303a206275726e2066726f6d20746865207a65726f206164647265736044820152607360f81b6064820152608401610510565b610d9782600083610f96565b6001600160a01b03821660009081526020819052604090205481811015610e0b5760405162461bcd60e51b815260206004820152602260248201527f45524332303a206275726e20616d6f756e7420657863656564732062616c616e604482015261636560f01b6064820152608401610510565b6001600160a01b0383166000818152602081815260408083208686039055600280548790039055518581529192917fddf252ad1be2c89b69c2b068fc378daa952ba7f163c4a11628f55a4df523b3ef9101610851565b600580546001600160a01b03838116610100818102610100600160a81b031985161790945560405193909204169182907f8be0079c531659141344cd1fd0a4f28419497f9722a3daafe3b4186f6b6457e090600090a35050565b610ec3610fec565b6005805460ff191660011790557f62e78cea01bee320cd4e420270b5ea74000d11b0c9f74754ebdbfc544b05a258610c433390565b6001600160a01b03811660009081526006602052604090208054600181018255905b50919050565b60006103b2610f2d610a87565b8360405161190160f01b6020820152602281018390526042810182905260009060620160405160208183030381529060405280519060200120905092915050565b6000806000610f7f87878787611032565b91509150610f8c816110f6565b5095945050505050565b610f9e610fec565b505050565b60055460ff1661041d5760405162461bcd60e51b815260206004820152601460248201527314185d5cd8589b194e881b9bdd081c185d5cd95960621b6044820152606401610510565b60055460ff161561041d5760405162461bcd60e51b815260206004820152601060248201526f14185d5cd8589b194e881c185d5cd95960821b6044820152606401610510565b6000807f7fffffffffffffffffffffffffffffff5d576e7357a4501ddfe92f46681b20a083111561106957506000905060036110ed565b6040805160008082526020820180845289905260ff881692820192909252606081018690526080810185905260019060a0016020604051602081039080840390855afa1580156110bd573d6000803e3d6000fd5b5050604051601f1901519150506001600160a01b0381166110e6576000600192509250506110ed565b9150600090505b94509492505050565b600081600481111561110a5761110a611446565b036111125750565b600181600481111561112657611126611446565b036111735760405162461bcd60e51b815260206004820152601860248201527f45434453413a20696e76616c6964207369676e617475726500000000000000006044820152606401610510565b600281600481111561118757611187611446565b036111d45760405162461bcd60e51b815260206004820152601f60248201527f45434453413a20696e76616c6964207369676e6174757265206c656e677468006044820152606401610510565b60038160048111156111e8576111e8611446565b0361043f5760405162461bcd60e51b815260206004820152602260248201527f45434453413a20696e76616c6964207369676e6174757265202773272076616c604482015261756560f01b6064820152608401610510565b600060208083528351808285015260005b8181101561126d57858101830151858201604001528201611251565b506000604082860101526040601f19601f8301168501019250505092915050565b80356001600160a01b03811681146112a557600080fd5b919050565b600080604083850312156112bd57600080fd5b6112c68361128e565b946020939093013593505050565b6000806000606084860312156112e957600080fd5b6112f28461128e565b92506113006020850161128e565b9150604084013590509250925092565b60006020828403121561132257600080fd5b5035919050565b60006020828403121561133b57600080fd5b6113448261128e565b9392505050565b600080600080600080600060e0888a03121561136657600080fd5b61136f8861128e565b965061137d6020890161128e565b95506040880135945060608801359350608088013560ff811681146113a157600080fd5b9699959850939692959460a0840135945060c09093013592915050565b600080604083850312156113d157600080fd5b6113da8361128e565b91506113e86020840161128e565b90509250929050565b600181811c9082168061140557607f821691505b602082108103610f1a57634e487b7160e01b600052602260045260246000fd5b808201808211156103b257634e487b7160e01b600052601160045260246000fd5b634e487b7160e01b600052602160045260246000fdfea26469706673582212202f544b13dc28762326ced10b1f1261c42f9cb2048f9d5af5f1f097c74676905f64736f6c63430008120033a2646970667358221220657ac91c680de0a59c5c613e81b7b65809029383e98666e8a2a85b7d0baed9e564736f6c63430008120033",
			"opcodes": "PUSH1 0x80 PUSH1 0x40 MSTORE CALLVALUE DUP1 ISZERO PUSH2 0x10 JUMPI PUSH1 0x0 DUP1 REVERT JUMPDEST POP PUSH2 0x1A CALLER PUSH2 0x23 JUMP JUMPDEST PUSH1 0x1 DUP1 SSTORE PUSH2 0x73 JUMP JUMPDEST PUSH1 0x0 DUP1 SLOAD PUSH1 0x1 PUSH1 0x1 PUSH1 0xA0 SHL SUB DUP4 DUP2 AND PUSH1 0x1 PUSH1 0x1 PUSH1 0xA0 SHL SUB NOT DUP4 AND DUP2 OR DUP5 SSTORE PUSH1 0x40 MLOAD SWAP2 SWAP1 SWAP3 AND SWAP3 DUP4 SWAP2 PUSH32 0x8BE0079C531659141344CD1FD0A4F28419497F9722A3DAAFE3B4186F6B6457E0 SWAP2 SWAP1 LOG3 POP POP JUMP JUMPDEST PUSH2 0x449F DUP1 PUSH3 0x83 PUSH1 0x0 CODECOPY PUSH1 0x0 RETURN INVALID PUSH1 0x80 PUSH1 0x40 MSTORE PUSH1 0x4 CALLDATASIZE LT PUSH3 0xA9 JUMPI PUSH1 0x0 CALLDATALOAD PUSH1 0xE0 SHR DUP1 PUSH4 0x8DA5CB5B GT PUSH3 0x6C JUMPI DUP1 PUSH4 0x8DA5CB5B EQ PUSH3 0x147 JUMPI DUP1 PUSH4 0xA6E07DE3 EQ PUSH3 0x171 JUMPI DUP1 PUSH4 0xAC4AFA38 EQ PUSH3 0x1E8 JUMPI DUP1 PUSH4 0xE06174E4 EQ PUSH3 0x222 JUMPI DUP1 PUSH4 0xF2FDE38B EQ PUSH3 0x28C JUMPI DUP1 PUSH4 0xF52BCCAD EQ PUSH3 0x2B1 JUMPI PUSH1 0x0 DUP1 REVERT JUMPDEST DUP1 PUSH4 0x968F264 EQ PUSH3 0xAE JUMPI DUP1 PUSH4 0x1913A276 EQ PUSH3 0xE8 JUMPI DUP1 PUSH4 0x420F0BF0 EQ PUSH3 0xFF JUMPI DUP1 PUSH4 0x44090C6C EQ PUSH3 0x116 JUMPI DUP1 PUSH4 0x715018A6 EQ PUSH3 0x12D JUMPI JUMPDEST PUSH1 0x0 DUP1 REVERT JUMPDEST CALLVALUE DUP1 ISZERO PUSH3 0xBB JUMPI PUSH1 0x0 DUP1 REVERT JUMPDEST POP PUSH3 0xD3 PUSH3 0xCD CALLDATASIZE PUSH1 0x4 PUSH3 0x2415 JUMP JUMPDEST PUSH3 0x2D9 JUMP JUMPDEST PUSH1 0x40 MLOAD SWAP1 ISZERO ISZERO DUP2 MSTORE PUSH1 0x20 ADD JUMPDEST PUSH1 0x40 MLOAD DUP1 SWAP2 SUB SWAP1 RETURN JUMPDEST PUSH3 0xD3 PUSH3 0xF9 CALLDATASIZE PUSH1 0x4 PUSH3 0x2415 JUMP JUMPDEST PUSH3 0x8EC JUMP JUMPDEST PUSH3 0xD3 PUSH3 0x110 CALLDATASIZE PUSH1 0x4 PUSH3 0x2415 JUMP JUMPDEST PUSH3 0x9A3 JUMP JUMPDEST PUSH3 0xD3 PUSH3 0x127 CALLDATASIZE PUSH1 0x4 PUSH3 0x2415 JUMP JUMPDEST PUSH3 0x1108 JUMP JUMPDEST CALLVALUE DUP1 ISZERO PUSH3 0x13A JUMPI PUSH1 0x0 DUP1 REVERT JUMPDEST POP PUSH3 0x145 PUSH3 0x1B97 JUMP JUMPDEST STOP JUMPDEST CALLVALUE DUP1 ISZERO PUSH3 0x154 JUMPI PUSH1 0x0 DUP1 REVERT JUMPDEST POP PUSH1 0x0 SLOAD PUSH1 0x40 MLOAD PUSH1 0x1 PUSH1 0x1 PUSH1 0xA0 SHL SUB SWAP1 SWAP2 AND DUP2 MSTORE PUSH1 0x20 ADD PUSH3 0xDF JUMP JUMPDEST CALLVALUE DUP1 ISZERO PUSH3 0x17E JUMPI PUSH1 0x0 DUP1 REVERT JUMPDEST POP PUSH3 0x1C5 PUSH3 0x190 CALLDATASIZE PUSH1 0x4 PUSH3 0x249D JUMP JUMPDEST PUSH1 0x4 PUSH1 0x20 SWAP1 DUP2 MSTORE PUSH1 0x0 SWAP3 DUP4 MSTORE PUSH1 0x40 DUP1 DUP5 KECCAK256 SWAP1 SWAP2 MSTORE SWAP1 DUP3 MSTORE SWAP1 KECCAK256 DUP1 SLOAD PUSH1 0x1 DUP3 ADD SLOAD PUSH1 0x2 DUP4 ADD SLOAD PUSH1 0x3 SWAP1 SWAP4 ADD SLOAD SWAP2 SWAP3 SWAP1 SWAP2 PUSH1 0xFF AND DUP5 JUMP JUMPDEST PUSH1 0x40 DUP1 MLOAD SWAP5 DUP6 MSTORE PUSH1 0x20 DUP6 ADD SWAP4 SWAP1 SWAP4 MSTORE SWAP2 DUP4 ADD MSTORE ISZERO ISZERO PUSH1 0x60 DUP3 ADD MSTORE PUSH1 0x80 ADD PUSH3 0xDF JUMP JUMPDEST CALLVALUE DUP1 ISZERO PUSH3 0x1F5 JUMPI PUSH1 0x0 DUP1 REVERT JUMPDEST POP PUSH3 0x20D PUSH3 0x207 CALLDATASIZE PUSH1 0x4 PUSH3 0x24C0 JUMP JUMPDEST PUSH3 0x1BAF JUMP JUMPDEST PUSH1 0x40 MLOAD PUSH3 0xDF SWAP8 SWAP7 SWAP6 SWAP5 SWAP4 SWAP3 SWAP2 SWAP1 PUSH3 0x252E JUMP JUMPDEST CALLVALUE DUP1 ISZERO PUSH3 0x22F JUMPI PUSH1 0x0 DUP1 REVERT JUMPDEST POP PUSH1 0x6 SLOAD PUSH1 0x7 SLOAD PUSH1 0x8 SLOAD PUSH1 0x9 SLOAD PUSH1 0xA SLOAD PUSH3 0x257 SWAP5 SWAP4 SWAP3 SWAP2 PUSH1 0x1 PUSH1 0x1 PUSH1 0xA0 SHL SUB SWAP1 DUP2 AND SWAP2 AND DUP6 JUMP JUMPDEST PUSH1 0x40 DUP1 MLOAD SWAP6 DUP7 MSTORE PUSH1 0x20 DUP7 ADD SWAP5 SWAP1 SWAP5 MSTORE SWAP3 DUP5 ADD SWAP2 SWAP1 SWAP2 MSTORE PUSH1 0x1 PUSH1 0x1 PUSH1 0xA0 SHL SUB SWAP1 DUP2 AND PUSH1 0x60 DUP5 ADD MSTORE AND PUSH1 0x80 DUP3 ADD MSTORE PUSH1 0xA0 ADD PUSH3 0xDF JUMP JUMPDEST CALLVALUE DUP1 ISZERO PUSH3 0x299 JUMPI PUSH1 0x0 DUP1 REVERT JUMPDEST POP PUSH3 0x145 PUSH3 0x2AB CALLDATASIZE PUSH1 0x4 PUSH3 0x25CD JUMP JUMPDEST PUSH3 0x1CC8 JUMP JUMPDEST CALLVALUE DUP1 ISZERO PUSH3 0x2BE JUMPI PUSH1 0x0 DUP1 REVERT JUMPDEST POP PUSH1 0x2 SLOAD PUSH3 0x2CA SWAP1 DUP2 JUMP JUMPDEST PUSH1 0x40 MLOAD SWAP1 DUP2 MSTORE PUSH1 0x20 ADD PUSH3 0xDF JUMP JUMPDEST PUSH1 0x0 PUSH3 0x2E5 PUSH3 0x1D47 JUMP JUMPDEST PUSH1 0x0 DUP1 DUP4 DUP1 PUSH1 0x20 ADD SWAP1 MLOAD DUP2 ADD SWAP1 PUSH3 0x2FE SWAP2 SWAP1 PUSH3 0x25F4 JUMP JUMPDEST SWAP2 POP SWAP2 POP PUSH1 0x0 DUP2 GT PUSH3 0x362 JUMPI PUSH1 0x40 MLOAD PUSH3 0x461BCD PUSH1 0xE5 SHL DUP2 MSTORE PUSH1 0x20 PUSH1 0x4 DUP3 ADD MSTORE PUSH1 0x21 PUSH1 0x24 DUP3 ADD MSTORE PUSH32 0x53696E676C6553746174653A3A77697468647261773A2076616C7565203C3D20 PUSH1 0x44 DUP3 ADD MSTORE PUSH1 0x3 PUSH1 0xFC SHL PUSH1 0x64 DUP3 ADD MSTORE PUSH1 0x84 ADD JUMPDEST PUSH1 0x40 MLOAD DUP1 SWAP2 SUB SWAP1 REVERT JUMPDEST PUSH1 0x0 PUSH1 0x3 PUSH1 0x0 DUP5 DUP2 MSTORE PUSH1 0x20 ADD SWAP1 DUP2 MSTORE PUSH1 0x20 ADD PUSH1 0x0 KECCAK256 PUSH1 0x40 MLOAD DUP1 PUSH2 0x120 ADD PUSH1 0x40 MSTORE SWAP1 DUP2 PUSH1 0x0 DUP3 ADD SLOAD DUP2 MSTORE PUSH1 0x20 ADD PUSH1 0x1 DUP3 ADD DUP1 SLOAD PUSH3 0x39F SWAP1 PUSH3 0x2619 JUMP JUMPDEST DUP1 PUSH1 0x1F ADD PUSH1 0x20 DUP1 SWAP2 DIV MUL PUSH1 0x20 ADD PUSH1 0x40 MLOAD SWAP1 DUP2 ADD PUSH1 0x40 MSTORE DUP1 SWAP3 SWAP2 SWAP1 DUP2 DUP2 MSTORE PUSH1 0x20 ADD DUP3 DUP1 SLOAD PUSH3 0x3CD SWAP1 PUSH3 0x2619 JUMP JUMPDEST DUP1 ISZERO PUSH3 0x41E JUMPI DUP1 PUSH1 0x1F LT PUSH3 0x3F2 JUMPI PUSH2 0x100 DUP1 DUP4 SLOAD DIV MUL DUP4 MSTORE SWAP2 PUSH1 0x20 ADD SWAP2 PUSH3 0x41E JUMP JUMPDEST DUP3 ADD SWAP2 SWAP1 PUSH1 0x0 MSTORE PUSH1 0x20 PUSH1 0x0 KECCAK256 SWAP1 JUMPDEST DUP2 SLOAD DUP2 MSTORE SWAP1 PUSH1 0x1 ADD SWAP1 PUSH1 0x20 ADD DUP1 DUP4 GT PUSH3 0x400 JUMPI DUP3 SWAP1 SUB PUSH1 0x1F AND DUP3 ADD SWAP2 JUMPDEST POP POP POP SWAP2 DUP4 MSTORE POP POP PUSH1 0x40 DUP1 MLOAD PUSH1 0xA0 DUP1 DUP3 ADD DUP4 MSTORE PUSH1 0x2 DUP6 ADD SLOAD DUP3 MSTORE PUSH1 0x3 DUP6 ADD SLOAD PUSH1 0x20 DUP4 DUP2 ADD SWAP2 SWAP1 SWAP2 MSTORE PUSH1 0x4 DUP7 ADD SLOAD DUP4 DUP6 ADD MSTORE PUSH1 0x5 DUP7 ADD SLOAD PUSH1 0xFF DUP1 DUP3 AND ISZERO ISZERO PUSH1 0x60 DUP1 DUP8 ADD SWAP2 SWAP1 SWAP2 MSTORE PUSH2 0x100 SWAP1 SWAP3 DIV AND ISZERO ISZERO PUSH1 0x80 DUP1 DUP7 ADD SWAP2 SWAP1 SWAP2 MSTORE DUP3 DUP8 ADD SWAP5 SWAP1 SWAP5 MSTORE PUSH1 0x6 DUP8 ADD SLOAD PUSH1 0x1 PUSH1 0x1 PUSH1 0xA0 SHL SUB AND DUP6 DUP8 ADD MSTORE PUSH1 0x7 DUP8 ADD SLOAD SWAP1 DUP7 ADD MSTORE PUSH1 0x8 DUP7 ADD SLOAD SWAP3 DUP6 ADD SWAP3 SWAP1 SWAP3 MSTORE PUSH1 0x9 DUP6 ADD SLOAD SWAP1 DUP5 ADD MSTORE PUSH1 0xA DUP5 ADD DUP1 SLOAD DUP4 MLOAD DUP2 DUP5 MUL DUP2 ADD DUP5 ADD SWAP1 SWAP5 MSTORE DUP1 DUP5 MSTORE PUSH1 0xC0 SWAP1 SWAP5 ADD SWAP4 SWAP1 SWAP2 DUP4 ADD DUP3 DUP3 DUP1 ISZERO PUSH3 0x505 JUMPI PUSH1 0x20 MUL DUP3 ADD SWAP2 SWAP1 PUSH1 0x0 MSTORE PUSH1 0x20 PUSH1 0x0 KECCAK256 SWAP1 JUMPDEST DUP2 SLOAD PUSH1 0x1 PUSH1 0x1 PUSH1 0xA0 SHL SUB AND DUP2 MSTORE PUSH1 0x1 SWAP1 SWAP2 ADD SWAP1 PUSH1 0x20 ADD DUP1 DUP4 GT PUSH3 0x4E6 JUMPI JUMPDEST POP POP POP POP POP DUP2 MSTORE PUSH1 0x20 ADD PUSH1 0xB DUP3 ADD DUP1 SLOAD DUP1 PUSH1 0x20 MUL PUSH1 0x20 ADD PUSH1 0x40 MLOAD SWAP1 DUP2 ADD PUSH1 0x40 MSTORE DUP1 SWAP3 SWAP2 SWAP1 DUP2 DUP2 MSTORE PUSH1 0x20 ADD DUP3 DUP1 SLOAD DUP1 ISZERO PUSH3 0x55F JUMPI PUSH1 0x20 MUL DUP3 ADD SWAP2 SWAP1 PUSH1 0x0 MSTORE PUSH1 0x20 PUSH1 0x0 KECCAK256 SWAP1 JUMPDEST DUP2 SLOAD DUP2 MSTORE PUSH1 0x20 ADD SWAP1 PUSH1 0x1 ADD SWAP1 DUP1 DUP4 GT PUSH3 0x54A JUMPI JUMPDEST POP POP POP POP POP DUP2 MSTORE POP POP SWAP1 POP PUSH1 0x0 DUP2 PUSH1 0x60 ADD MLOAD PUSH1 0x1 PUSH1 0x1 PUSH1 0xA0 SHL SUB AND PUSH4 0x18160DDD PUSH1 0x40 MLOAD DUP2 PUSH4 0xFFFFFFFF AND PUSH1 0xE0 SHL DUP2 MSTORE PUSH1 0x4 ADD PUSH1 0x20 PUSH1 0x40 MLOAD DUP1 DUP4 SUB DUP2 DUP7 GAS STATICCALL ISZERO DUP1 ISZERO PUSH3 0x5AF JUMPI RETURNDATASIZE PUSH1 0x0 DUP1 RETURNDATACOPY RETURNDATASIZE PUSH1 0x0 REVERT JUMPDEST POP POP POP POP PUSH1 0x40 MLOAD RETURNDATASIZE PUSH1 0x1F NOT PUSH1 0x1F DUP3 ADD AND DUP3 ADD DUP1 PUSH1 0x40 MSTORE POP DUP2 ADD SWAP1 PUSH3 0x5D5 SWAP2 SWAP1 PUSH3 0x2655 JUMP JUMPDEST PUSH1 0xC0 DUP4 ADD MLOAD SWAP1 SWAP2 POP DUP2 PUSH3 0x637 JUMPI PUSH1 0x40 MLOAD PUSH3 0x461BCD PUSH1 0xE5 SHL DUP2 MSTORE PUSH1 0x20 PUSH1 0x4 DUP3 ADD MSTORE PUSH1 0x22 PUSH1 0x24 DUP3 ADD MSTORE PUSH32 0x53696E676C6553746174653A3A77697468647261773A20737570706C79203C3D PUSH1 0x44 DUP3 ADD MSTORE PUSH2 0x203 PUSH1 0xF4 SHL PUSH1 0x64 DUP3 ADD MSTORE PUSH1 0x84 ADD PUSH3 0x359 JUMP JUMPDEST PUSH1 0x0 DUP2 GT PUSH3 0x695 JUMPI PUSH1 0x40 MLOAD PUSH3 0x461BCD PUSH1 0xE5 SHL DUP2 MSTORE PUSH1 0x20 PUSH1 0x4 DUP3 ADD MSTORE PUSH1 0x23 PUSH1 0x24 DUP3 ADD MSTORE PUSH32 0x53696E676C6553746174653A3A77697468647261773A2062616C616E6365203C PUSH1 0x44 DUP3 ADD MSTORE PUSH3 0x3D203 PUSH1 0xEC SHL PUSH1 0x64 DUP3 ADD MSTORE PUSH1 0x84 ADD PUSH3 0x359 JUMP JUMPDEST PUSH1 0x40 MLOAD PUSH4 0x11C4C21 PUSH1 0xE2 SHL DUP2 MSTORE PUSH1 0x4 DUP2 ADD DUP6 SWAP1 MSTORE PUSH1 0x24 DUP2 ADD DUP4 SWAP1 MSTORE PUSH1 0x44 DUP2 ADD DUP3 SWAP1 MSTORE PUSH1 0x0 SWAP1 PUSH20 0x0 SWAP1 PUSH4 0x4713084 SWAP1 PUSH1 0x64 ADD PUSH1 0x20 PUSH1 0x40 MLOAD DUP1 DUP4 SUB DUP2 DUP7 GAS DELEGATECALL ISZERO DUP1 ISZERO PUSH3 0x6F7 JUMPI RETURNDATASIZE PUSH1 0x0 DUP1 RETURNDATACOPY RETURNDATASIZE PUSH1 0x0 REVERT JUMPDEST POP POP POP POP PUSH1 0x40 MLOAD RETURNDATASIZE PUSH1 0x1F NOT PUSH1 0x1F DUP3 ADD AND DUP3 ADD DUP1 PUSH1 0x40 MSTORE POP DUP2 ADD SWAP1 PUSH3 0x71D SWAP2 SWAP1 PUSH3 0x2655 JUMP JUMPDEST SWAP1 POP DUP1 DUP5 PUSH1 0xC0 ADD MLOAD LT ISZERO PUSH3 0x7AE JUMPI PUSH1 0x40 MLOAD PUSH3 0x461BCD PUSH1 0xE5 SHL DUP2 MSTORE PUSH1 0x20 PUSH1 0x4 DUP3 ADD MSTORE PUSH1 0x4A PUSH1 0x24 DUP3 ADD MSTORE PUSH32 0x53696E676C6553746174653A3A77697468647261773A20696E73756666696369 PUSH1 0x44 DUP3 ADD MSTORE PUSH32 0x656E742062616C616E6365206F6E20636F6E747261637420746F206D616B6520 PUSH1 0x64 DUP3 ADD MSTORE PUSH10 0x1DDA5D1A191C985DD85B PUSH1 0xB2 SHL PUSH1 0x84 DUP3 ADD MSTORE PUSH1 0xA4 ADD PUSH3 0x359 JUMP JUMPDEST PUSH1 0x8 SLOAD ISZERO PUSH3 0x804 JUMPI PUSH1 0x8 SLOAD PUSH1 0x0 SWAP1 PUSH2 0x2710 SWAP1 PUSH3 0x7CD SWAP1 DUP9 PUSH3 0x2685 JUMP JUMPDEST PUSH3 0x7D9 SWAP2 SWAP1 PUSH3 0x26A5 JUMP JUMPDEST SWAP1 POP PUSH3 0x7E7 DUP2 DUP4 PUSH3 0x26C8 JUMP JUMPDEST PUSH1 0xA SLOAD SWAP1 SWAP3 POP PUSH3 0x802 SWAP1 PUSH1 0x1 PUSH1 0x1 PUSH1 0xA0 SHL SUB AND DUP3 PUSH3 0x1DA2 JUMP JUMPDEST POP JUMPDEST PUSH1 0x60 DUP5 ADD MLOAD PUSH1 0x40 MLOAD PUSH4 0x79CC679 PUSH1 0xE4 SHL DUP2 MSTORE CALLER PUSH1 0x4 DUP3 ADD MSTORE PUSH1 0x24 DUP2 ADD DUP8 SWAP1 MSTORE PUSH1 0x1 PUSH1 0x1 PUSH1 0xA0 SHL SUB SWAP1 SWAP2 AND SWAP1 PUSH4 0x79CC6790 SWAP1 PUSH1 0x44 ADD PUSH1 0x0 PUSH1 0x40 MLOAD DUP1 DUP4 SUB DUP2 PUSH1 0x0 DUP8 DUP1 EXTCODESIZE ISZERO DUP1 ISZERO PUSH3 0x853 JUMPI PUSH1 0x0 DUP1 REVERT JUMPDEST POP GAS CALL ISZERO DUP1 ISZERO PUSH3 0x868 JUMPI RETURNDATASIZE PUSH1 0x0 DUP1 RETURNDATACOPY RETURNDATASIZE PUSH1 0x0 REVERT JUMPDEST POP POP POP POP PUSH3 0x878 CALLER DUP3 PUSH3 0x1DA2 JUMP JUMPDEST DUP1 DUP5 PUSH1 0xC0 ADD DUP2 DUP2 MLOAD PUSH3 0x88C SWAP2 SWAP1 PUSH3 0x26C8 JUMP JUMPDEST SWAP1 MSTORE POP PUSH1 0x20 DUP5 ADD MLOAD PUSH1 0x40 MLOAD CALLER SWAP2 PUSH32 0x8ABD2C969830597BA5EC419D56DD04A713CCCF5CF1764CA5C55E9E8B2DB0D8F1 SWAP2 PUSH3 0x8CB SWAP2 SWAP1 DUP10 SWAP1 DUP7 SWAP1 PUSH3 0x26DE JUMP JUMPDEST PUSH1 0x40 MLOAD DUP1 SWAP2 SUB SWAP1 LOG2 PUSH1 0x1 SWAP7 POP POP POP POP POP POP POP PUSH3 0x8E7 PUSH1 0x1 DUP1 SSTORE JUMP JUMPDEST SWAP2 SWAP1 POP JUMP JUMPDEST PUSH1 0x0 DUP1 PUSH1 0x0 DUP1 DUP5 DUP1 PUSH1 0x20 ADD SWAP1 MLOAD DUP2 ADD SWAP1 PUSH3 0x908 SWAP2 SWAP1 PUSH3 0x2705 JUMP JUMPDEST SWAP3 POP SWAP3 POP SWAP3 POP PUSH3 0x919 DUP4 PUSH3 0x1EC6 JUMP JUMPDEST PUSH3 0x99B JUMPI PUSH1 0x40 MLOAD PUSH3 0x461BCD PUSH1 0xE5 SHL DUP2 MSTORE PUSH1 0x20 PUSH1 0x4 DUP3 ADD MSTORE PUSH1 0x44 PUSH1 0x24 DUP3 ADD DUP2 SWAP1 MSTORE PUSH32 0x53696E676C6553746174653A3A6E6577436F6C6C61745441677265656D656E74 SWAP1 DUP3 ADD MSTORE PUSH32 0x3A2063616C6C6572206973206E6F74206D616E61676572206F66207468697320 PUSH1 0x64 DUP3 ADD MSTORE PUSH4 0x1C1BDBDB PUSH1 0xE2 SHL PUSH1 0x84 DUP3 ADD MSTORE PUSH1 0xA4 ADD PUSH3 0x359 JUMP JUMPDEST POP POP POP SWAP2 SWAP1 POP JUMP JUMPDEST PUSH1 0x0 PUSH3 0x9AF PUSH3 0x1D47 JUMP JUMPDEST PUSH1 0x0 DUP1 PUSH1 0x0 DUP1 PUSH1 0x0 DUP1 PUSH1 0x0 DUP9 DUP1 PUSH1 0x20 ADD SWAP1 MLOAD DUP2 ADD SWAP1 PUSH3 0x9D0 SWAP2 SWAP1 PUSH3 0x283A JUMP JUMPDEST SWAP7 POP SWAP7 POP SWAP7 POP SWAP7 POP SWAP7 POP SWAP7 POP SWAP7 POP PUSH3 0x93A80 DUP4 LT ISZERO PUSH3 0xA59 JUMPI PUSH1 0x40 MLOAD PUSH3 0x461BCD PUSH1 0xE5 SHL DUP2 MSTORE PUSH1 0x20 PUSH1 0x4 DUP3 ADD MSTORE PUSH1 0x3C PUSH1 0x24 DUP3 ADD MSTORE PUSH32 0x53696E676C6553746174653A3A6372656174654E6577506F6F6C3A2064757261 PUSH1 0x44 DUP3 ADD MSTORE PUSH32 0x74696F6E5365636F6E6473203C20363034383030207365636F6E647300000000 PUSH1 0x64 DUP3 ADD MSTORE PUSH1 0x84 ADD PUSH3 0x359 JUMP JUMPDEST PUSH1 0x6 SLOAD ISZERO PUSH3 0xAEA JUMPI PUSH1 0x9 SLOAD PUSH1 0xA SLOAD PUSH1 0x6 SLOAD PUSH1 0x40 MLOAD PUSH4 0x23B872DD PUSH1 0xE0 SHL DUP2 MSTORE CALLER PUSH1 0x4 DUP3 ADD MSTORE PUSH1 0x1 PUSH1 0x1 PUSH1 0xA0 SHL SUB SWAP3 DUP4 AND PUSH1 0x24 DUP3 ADD MSTORE PUSH1 0x44 DUP2 ADD SWAP2 SWAP1 SWAP2 MSTORE SWAP2 AND SWAP1 PUSH4 0x23B872DD SWAP1 PUSH1 0x64 ADD PUSH1 0x20 PUSH1 0x40 MLOAD DUP1 DUP4 SUB DUP2 PUSH1 0x0 DUP8 GAS CALL ISZERO DUP1 ISZERO PUSH3 0xAC2 JUMPI RETURNDATASIZE PUSH1 0x0 DUP1 RETURNDATACOPY RETURNDATASIZE PUSH1 0x0 REVERT JUMPDEST POP POP POP POP PUSH1 0x40 MLOAD RETURNDATASIZE PUSH1 0x1F NOT PUSH1 0x1F DUP3 ADD AND DUP3 ADD DUP1 PUSH1 0x40 MSTORE POP DUP2 ADD SWAP1 PUSH3 0xAE8 SWAP2 SWAP1 PUSH3 0x291A JUMP JUMPDEST POP JUMPDEST PUSH1 0x2 SLOAD PUSH1 0x0 NOT GT PUSH3 0xB74 JUMPI PUSH1 0x40 MLOAD PUSH3 0x461BCD PUSH1 0xE5 SHL DUP2 MSTORE PUSH1 0x20 PUSH1 0x4 DUP3 ADD MSTORE PUSH1 0x46 PUSH1 0x24 DUP3 ADD MSTORE PUSH32 0x53696E676C6553746174653A3A6372656174654E6577506F6F6C3A2074726163 PUSH1 0x44 DUP3 ADD MSTORE PUSH32 0x6B65722E6E756D6265724F66506F6F6C73203E3D20747970652875696E743235 PUSH1 0x64 DUP3 ADD MSTORE PUSH6 0x6C525CDAC2F PUSH1 0xD3 SHL PUSH1 0x84 DUP3 ADD MSTORE PUSH1 0xA4 ADD PUSH3 0x359 JUMP JUMPDEST PUSH1 0x2 DUP1 SLOAD SWAP1 PUSH1 0x0 PUSH3 0xB86 DUP4 PUSH3 0x2938 JUMP JUMPDEST SWAP1 SWAP2 SSTORE POP POP PUSH1 0x2 SLOAD PUSH1 0x40 MLOAD PUSH1 0x0 SWAP1 DUP8 SWAP1 DUP8 SWAP1 PUSH3 0xBA3 SWAP1 PUSH3 0x21A7 JUMP JUMPDEST PUSH3 0xBB0 SWAP3 SWAP2 SWAP1 PUSH3 0x2954 JUMP JUMPDEST PUSH1 0x40 MLOAD DUP1 SWAP2 SUB SWAP1 PUSH1 0x0 CREATE DUP1 ISZERO DUP1 ISZERO PUSH3 0xBCD JUMPI RETURNDATASIZE PUSH1 0x0 DUP1 RETURNDATACOPY RETURNDATASIZE PUSH1 0x0 REVERT JUMPDEST POP PUSH1 0x40 DUP1 MLOAD PUSH1 0xA0 DUP2 ADD DUP3 MSTORE PUSH1 0x0 PUSH1 0x80 DUP3 ADD MSTORE TIMESTAMP DUP1 DUP3 MSTORE PUSH1 0x20 DUP3 ADD DUP10 SWAP1 MSTORE SWAP2 DUP2 ADD DUP8 SWAP1 MSTORE DUP6 ISZERO ISZERO PUSH1 0x60 DUP3 ADD MSTORE SWAP2 SWAP3 POP SWAP1 PUSH3 0xC06 PUSH3 0x21B5 JUMP JUMPDEST DUP5 DUP2 MSTORE PUSH1 0x20 DUP1 DUP3 ADD DUP14 DUP2 MSTORE CALLVALUE PUSH1 0xC0 DUP5 ADD MSTORE PUSH1 0x40 DUP1 DUP5 ADD DUP6 SWAP1 MSTORE PUSH1 0x1 PUSH1 0x1 PUSH1 0xA0 SHL SUB DUP8 AND PUSH1 0x60 DUP6 ADD MSTORE PUSH1 0x0 PUSH1 0xA0 DUP6 ADD DUP2 SWAP1 MSTORE DUP9 DUP2 MSTORE PUSH1 0x3 SWAP1 SWAP4 MSTORE SWAP1 SWAP2 KECCAK256 DUP3 MLOAD DUP2 SSTORE SWAP1 MLOAD DUP3 SWAP2 SWAP1 PUSH1 0x1 DUP3 ADD SWAP1 PUSH3 0xC5C SWAP1 DUP3 PUSH3 0x29D8 JUMP JUMPDEST POP PUSH1 0x40 DUP3 DUP2 ADD MLOAD DUP1 MLOAD PUSH1 0x2 DUP5 ADD SSTORE PUSH1 0x20 DUP1 DUP3 ADD MLOAD PUSH1 0x3 DUP6 ADD SSTORE SWAP2 DUP2 ADD MLOAD PUSH1 0x4 DUP5 ADD SSTORE PUSH1 0x60 DUP1 DUP3 ADD MLOAD PUSH1 0x5 DUP6 ADD DUP1 SLOAD PUSH1 0x80 SWAP5 DUP6 ADD MLOAD ISZERO ISZERO PUSH2 0x100 MUL PUSH2 0xFF00 NOT SWAP4 ISZERO ISZERO SWAP4 SWAP1 SWAP4 AND PUSH2 0xFFFF NOT SWAP1 SWAP2 AND OR SWAP2 SWAP1 SWAP2 OR SWAP1 SSTORE DUP5 ADD MLOAD PUSH1 0x6 DUP5 ADD DUP1 SLOAD PUSH1 0x1 PUSH1 0x1 PUSH1 0xA0 SHL SUB SWAP1 SWAP3 AND PUSH1 0x1 PUSH1 0x1 PUSH1 0xA0 SHL SUB NOT SWAP1 SWAP3 AND SWAP2 SWAP1 SWAP2 OR SWAP1 SSTORE DUP4 ADD MLOAD PUSH1 0x7 DUP4 ADD SSTORE PUSH1 0xA0 DUP4 ADD MLOAD PUSH1 0x8 DUP4 ADD SSTORE PUSH1 0xC0 DUP4 ADD MLOAD PUSH1 0x9 DUP4 ADD SSTORE PUSH1 0xE0 DUP4 ADD MLOAD DUP1 MLOAD PUSH3 0xD0A SWAP3 PUSH1 0xA DUP6 ADD SWAP3 ADD SWAP1 PUSH3 0x223F JUMP JUMPDEST POP PUSH2 0x100 DUP3 ADD MLOAD DUP1 MLOAD PUSH3 0xD29 SWAP2 PUSH1 0xB DUP5 ADD SWAP2 PUSH1 0x20 SWAP1 SWAP2 ADD SWAP1 PUSH3 0x22A9 JUMP JUMPDEST POP SWAP1 POP POP PUSH1 0x0 JUMPDEST DUP12 MLOAD DUP2 LT ISZERO PUSH3 0x109E JUMPI PUSH1 0x0 PUSH1 0x5 PUSH1 0x0 DUP15 DUP5 DUP2 MLOAD DUP2 LT PUSH3 0xD55 JUMPI PUSH3 0xD55 PUSH3 0x2AA5 JUMP JUMPDEST PUSH1 0x20 MUL PUSH1 0x20 ADD ADD MLOAD PUSH1 0x1 PUSH1 0x1 PUSH1 0xA0 SHL SUB AND PUSH1 0x1 PUSH1 0x1 PUSH1 0xA0 SHL SUB AND DUP2 MSTORE PUSH1 0x20 ADD SWAP1 DUP2 MSTORE PUSH1 0x20 ADD PUSH1 0x0 KECCAK256 PUSH1 0x40 MLOAD DUP1 PUSH1 0x80 ADD PUSH1 0x40 MSTORE SWAP1 DUP2 PUSH1 0x0 DUP3 ADD DUP1 SLOAD DUP1 PUSH1 0x20 MUL PUSH1 0x20 ADD PUSH1 0x40 MLOAD SWAP1 DUP2 ADD PUSH1 0x40 MSTORE DUP1 SWAP3 SWAP2 SWAP1 DUP2 DUP2 MSTORE PUSH1 0x20 ADD DUP3 DUP1 SLOAD DUP1 ISZERO PUSH3 0xDF9 JUMPI PUSH1 0x20 MUL DUP3 ADD SWAP2 SWAP1 PUSH1 0x0 MSTORE PUSH1 0x20 PUSH1 0x0 KECCAK256 SWAP1 PUSH1 0x0 SWAP1 JUMPDEST DUP3 SLOAD PUSH2 0x100 DUP4 SWAP1 EXP SWAP1 DIV PUSH1 0xFF AND ISZERO ISZERO DUP2 MSTORE PUSH1 0x20 PUSH1 0x1 SWAP3 DUP4 ADD DUP2 DUP2 DIV SWAP5 DUP6 ADD SWAP5 SWAP1 SWAP4 SUB SWAP1 SWAP3 MUL SWAP2 ADD DUP1 DUP5 GT PUSH3 0xDC7 JUMPI SWAP1 POP JUMPDEST POP POP POP POP POP DUP2 MSTORE PUSH1 0x20 ADD PUSH1 0x1 DUP3 ADD DUP1 SLOAD DUP1 PUSH1 0x20 MUL PUSH1 0x20 ADD PUSH1 0x40 MLOAD SWAP1 DUP2 ADD PUSH1 0x40 MSTORE DUP1 SWAP3 SWAP2 SWAP1 DUP2 DUP2 MSTORE PUSH1 0x20 ADD DUP3 DUP1 SLOAD DUP1 ISZERO PUSH3 0xE73 JUMPI PUSH1 0x20 MUL DUP3 ADD SWAP2 SWAP1 PUSH1 0x0 MSTORE PUSH1 0x20 PUSH1 0x0 KECCAK256 SWAP1 PUSH1 0x0 SWAP1 JUMPDEST DUP3 SLOAD PUSH2 0x100 DUP4 SWAP1 EXP SWAP1 DIV PUSH1 0xFF AND ISZERO ISZERO DUP2 MSTORE PUSH1 0x20 PUSH1 0x1 SWAP3 DUP4 ADD DUP2 DUP2 DIV SWAP5 DUP6 ADD SWAP5 SWAP1 SWAP4 SUB SWAP1 SWAP3 MUL SWAP2 ADD DUP1 DUP5 GT PUSH3 0xE41 JUMPI SWAP1 POP JUMPDEST POP POP POP POP POP DUP2 MSTORE PUSH1 0x20 ADD PUSH1 0x2 DUP3 ADD DUP1 SLOAD DUP1 PUSH1 0x20 MUL PUSH1 0x20 ADD PUSH1 0x40 MLOAD SWAP1 DUP2 ADD PUSH1 0x40 MSTORE DUP1 SWAP3 SWAP2 SWAP1 DUP2 DUP2 MSTORE PUSH1 0x20 ADD DUP3 DUP1 SLOAD DUP1 ISZERO PUSH3 0xEED JUMPI PUSH1 0x20 MUL DUP3 ADD SWAP2 SWAP1 PUSH1 0x0 MSTORE PUSH1 0x20 PUSH1 0x0 KECCAK256 SWAP1 PUSH1 0x0 SWAP1 JUMPDEST DUP3 SLOAD PUSH2 0x100 DUP4 SWAP1 EXP SWAP1 DIV PUSH1 0xFF AND ISZERO ISZERO DUP2 MSTORE PUSH1 0x20 PUSH1 0x1 SWAP3 DUP4 ADD DUP2 DUP2 DIV SWAP5 DUP6 ADD SWAP5 SWAP1 SWAP4 SUB SWAP1 SWAP3 MUL SWAP2 ADD DUP1 DUP5 GT PUSH3 0xEBB JUMPI SWAP1 POP JUMPDEST POP POP POP POP POP DUP2 MSTORE PUSH1 0x20 ADD PUSH1 0x3 DUP3 ADD DUP1 SLOAD DUP1 PUSH1 0x20 MUL PUSH1 0x20 ADD PUSH1 0x40 MLOAD SWAP1 DUP2 ADD PUSH1 0x40 MSTORE DUP1 SWAP3 SWAP2 SWAP1 DUP2 DUP2 MSTORE PUSH1 0x20 ADD DUP3 DUP1 SLOAD DUP1 ISZERO PUSH3 0xF67 JUMPI PUSH1 0x20 MUL DUP3 ADD SWAP2 SWAP1 PUSH1 0x0 MSTORE PUSH1 0x20 PUSH1 0x0 KECCAK256 SWAP1 PUSH1 0x0 SWAP1 JUMPDEST DUP3 SLOAD PUSH2 0x100 DUP4 SWAP1 EXP SWAP1 DIV PUSH1 0xFF AND ISZERO ISZERO DUP2 MSTORE PUSH1 0x20 PUSH1 0x1 SWAP3 DUP4 ADD DUP2 DUP2 DIV SWAP5 DUP6 ADD SWAP5 SWAP1 SWAP4 SUB SWAP1 SWAP3 MUL SWAP2 ADD DUP1 DUP5 GT PUSH3 0xF35 JUMPI SWAP1 POP JUMPDEST POP POP POP POP POP DUP2 MSTORE POP POP SWAP1 POP PUSH1 0x1 DUP2 PUSH1 0x40 ADD MLOAD DUP9 DUP2 MLOAD DUP2 LT PUSH3 0xF8D JUMPI PUSH3 0xF8D PUSH3 0x2AA5 JUMP JUMPDEST PUSH1 0x20 MUL PUSH1 0x20 ADD ADD SWAP1 ISZERO ISZERO SWAP1 DUP2 ISZERO ISZERO DUP2 MSTORE POP POP PUSH1 0x1 DUP2 PUSH1 0x60 ADD MLOAD DUP9 DUP2 MLOAD DUP2 LT PUSH3 0xFBA JUMPI PUSH3 0xFBA PUSH3 0x2AA5 JUMP JUMPDEST PUSH1 0x20 MUL PUSH1 0x20 ADD ADD SWAP1 ISZERO ISZERO SWAP1 DUP2 ISZERO ISZERO DUP2 MSTORE POP POP DUP1 PUSH1 0x5 PUSH1 0x0 DUP16 DUP6 DUP2 MLOAD DUP2 LT PUSH3 0xFE6 JUMPI PUSH3 0xFE6 PUSH3 0x2AA5 JUMP JUMPDEST PUSH1 0x20 MUL PUSH1 0x20 ADD ADD MLOAD PUSH1 0x1 PUSH1 0x1 PUSH1 0xA0 SHL SUB AND PUSH1 0x1 PUSH1 0x1 PUSH1 0xA0 SHL SUB AND DUP2 MSTORE PUSH1 0x20 ADD SWAP1 DUP2 MSTORE PUSH1 0x20 ADD PUSH1 0x0 KECCAK256 PUSH1 0x0 DUP3 ADD MLOAD DUP2 PUSH1 0x0 ADD SWAP1 DUP1 MLOAD SWAP1 PUSH1 0x20 ADD SWAP1 PUSH3 0x102C SWAP3 SWAP2 SWAP1 PUSH3 0x22E7 JUMP JUMPDEST POP PUSH1 0x20 DUP3 DUP2 ADD MLOAD DUP1 MLOAD PUSH3 0x1047 SWAP3 PUSH1 0x1 DUP6 ADD SWAP3 ADD SWAP1 PUSH3 0x22E7 JUMP JUMPDEST POP PUSH1 0x40 DUP3 ADD MLOAD DUP1 MLOAD PUSH3 0x1065 SWAP2 PUSH1 0x2 DUP5 ADD SWAP2 PUSH1 0x20 SWAP1 SWAP2 ADD SWAP1 PUSH3 0x22E7 JUMP JUMPDEST POP PUSH1 0x60 DUP3 ADD MLOAD DUP1 MLOAD PUSH3 0x1083 SWAP2 PUSH1 0x3 DUP5 ADD SWAP2 PUSH1 0x20 SWAP1 SWAP2 ADD SWAP1 PUSH3 0x22E7 JUMP JUMPDEST POP SWAP1 POP POP POP DUP1 DUP1 PUSH3 0x1095 SWAP1 PUSH3 0x2938 JUMP JUMPDEST SWAP2 POP POP PUSH3 0xD30 JUMP JUMPDEST POP CALLER PUSH1 0x1 PUSH1 0x1 PUSH1 0xA0 SHL SUB AND PUSH32 0xE4D157602A9D2C12FC689C6A17AB66D95454A3E4B5D3DC543D37A622D932D642 DUP14 DUP14 DUP14 DUP14 DUP14 DUP14 DUP14 PUSH1 0x40 MLOAD PUSH3 0x10E6 SWAP8 SWAP7 SWAP6 SWAP5 SWAP4 SWAP3 SWAP2 SWAP1 PUSH3 0x2ABB JUMP JUMPDEST PUSH1 0x40 MLOAD DUP1 SWAP2 SUB SWAP1 LOG2 PUSH1 0x1 SWAP13 POP POP POP POP POP POP POP POP POP POP POP POP POP PUSH3 0x8E7 PUSH1 0x1 DUP1 SSTORE JUMP JUMPDEST PUSH1 0x0 PUSH3 0x1114 PUSH3 0x1D47 JUMP JUMPDEST PUSH1 0x0 DUP3 DUP1 PUSH1 0x20 ADD SWAP1 MLOAD DUP2 ADD SWAP1 PUSH3 0x112C SWAP2 SWAP1 PUSH3 0x2655 JUMP JUMPDEST SWAP1 POP CALLVALUE DUP1 PUSH3 0x118A JUMPI PUSH1 0x40 MLOAD PUSH3 0x461BCD PUSH1 0xE5 SHL DUP2 MSTORE PUSH1 0x20 PUSH1 0x4 DUP3 ADD MSTORE PUSH1 0x23 PUSH1 0x24 DUP3 ADD MSTORE PUSH32 0x53696E676C6553746174653A3A636F6E747269627574653A2076616C7565203C PUSH1 0x44 DUP3 ADD MSTORE PUSH3 0x3D203 PUSH1 0xEC SHL PUSH1 0x64 DUP3 ADD MSTORE PUSH1 0x84 ADD PUSH3 0x359 JUMP JUMPDEST CALLER PUSH1 0x0 SWAP1 DUP2 MSTORE PUSH1 0x5 PUSH1 0x20 SWAP1 DUP2 MSTORE PUSH1 0x40 DUP1 DUP4 KECCAK256 DUP2 MLOAD DUP2 SLOAD PUSH1 0xA0 SWAP5 DUP2 MUL DUP3 ADD DUP6 ADD SWAP1 SWAP4 MSTORE PUSH1 0x80 DUP2 ADD DUP4 DUP2 MSTORE SWAP1 SWAP4 SWAP2 SWAP3 DUP5 SWAP3 DUP5 SWAP2 SWAP1 DUP5 ADD DUP3 DUP3 DUP1 ISZERO PUSH3 0x120D JUMPI PUSH1 0x20 MUL DUP3 ADD SWAP2 SWAP1 PUSH1 0x0 MSTORE PUSH1 0x20 PUSH1 0x0 KECCAK256 SWAP1 PUSH1 0x0 SWAP1 JUMPDEST DUP3 SLOAD PUSH2 0x100 DUP4 SWAP1 EXP SWAP1 DIV PUSH1 0xFF AND ISZERO ISZERO DUP2 MSTORE PUSH1 0x20 PUSH1 0x1 SWAP3 DUP4 ADD DUP2 DUP2 DIV SWAP5 DUP6 ADD SWAP5 SWAP1 SWAP4 SUB SWAP1 SWAP3 MUL SWAP2 ADD DUP1 DUP5 GT PUSH3 0x11DB JUMPI SWAP1 POP JUMPDEST POP POP POP POP POP DUP2 MSTORE PUSH1 0x20 ADD PUSH1 0x1 DUP3 ADD DUP1 SLOAD DUP1 PUSH1 0x20 MUL PUSH1 0x20 ADD PUSH1 0x40 MLOAD SWAP1 DUP2 ADD PUSH1 0x40 MSTORE DUP1 SWAP3 SWAP2 SWAP1 DUP2 DUP2 MSTORE PUSH1 0x20 ADD DUP3 DUP1 SLOAD DUP1 ISZERO PUSH3 0x1287 JUMPI PUSH1 0x20 MUL DUP3 ADD SWAP2 SWAP1 PUSH1 0x0 MSTORE PUSH1 0x20 PUSH1 0x0 KECCAK256 SWAP1 PUSH1 0x0 SWAP1 JUMPDEST DUP3 SLOAD PUSH2 0x100 DUP4 SWAP1 EXP SWAP1 DIV PUSH1 0xFF AND ISZERO ISZERO DUP2 MSTORE PUSH1 0x20 PUSH1 0x1 SWAP3 DUP4 ADD DUP2 DUP2 DIV SWAP5 DUP6 ADD SWAP5 SWAP1 SWAP4 SUB SWAP1 SWAP3 MUL SWAP2 ADD DUP1 DUP5 GT PUSH3 0x1255 JUMPI SWAP1 POP JUMPDEST POP POP POP POP POP DUP2 MSTORE PUSH1 0x20 ADD PUSH1 0x2 DUP3 ADD DUP1 SLOAD DUP1 PUSH1 0x20 MUL PUSH1 0x20 ADD PUSH1 0x40 MLOAD SWAP1 DUP2 ADD PUSH1 0x40 MSTORE DUP1 SWAP3 SWAP2 SWAP1 DUP2 DUP2 MSTORE PUSH1 0x20 ADD DUP3 DUP1 SLOAD DUP1 ISZERO PUSH3 0x1301 JUMPI PUSH1 0x20 MUL DUP3 ADD SWAP2 SWAP1 PUSH1 0x0 MSTORE PUSH1 0x20 PUSH1 0x0 KECCAK256 SWAP1 PUSH1 0x0 SWAP1 JUMPDEST DUP3 SLOAD PUSH2 0x100 DUP4 SWAP1 EXP SWAP1 DIV PUSH1 0xFF AND ISZERO ISZERO DUP2 MSTORE PUSH1 0x20 PUSH1 0x1 SWAP3 DUP4 ADD DUP2 DUP2 DIV SWAP5 DUP6 ADD SWAP5 SWAP1 SWAP4 SUB SWAP1 SWAP3 MUL SWAP2 ADD DUP1 DUP5 GT PUSH3 0x12CF JUMPI SWAP1 POP JUMPDEST POP POP POP POP POP DUP2 MSTORE PUSH1 0x20 ADD PUSH1 0x3 DUP3 ADD DUP1 SLOAD DUP1 PUSH1 0x20 MUL PUSH1 0x20 ADD PUSH1 0x40 MLOAD SWAP1 DUP2 ADD PUSH1 0x40 MSTORE DUP1 SWAP3 SWAP2 SWAP1 DUP2 DUP2 MSTORE PUSH1 0x20 ADD DUP3 DUP1 SLOAD DUP1 ISZERO PUSH3 0x137B JUMPI PUSH1 0x20 MUL DUP3 ADD SWAP2 SWAP1 PUSH1 0x0 MSTORE PUSH1 0x20 PUSH1 0x0 KECCAK256 SWAP1 PUSH1 0x0 SWAP1 JUMPDEST DUP3 SLOAD PUSH2 0x100 DUP4 SWAP1 EXP SWAP1 DIV PUSH1 0xFF AND ISZERO ISZERO DUP2 MSTORE PUSH1 0x20 PUSH1 0x1 SWAP3 DUP4 ADD DUP2 DUP2 DIV SWAP5 DUP6 ADD SWAP5 SWAP1 SWAP4 SUB SWAP1 SWAP3 MUL SWAP2 ADD DUP1 DUP5 GT PUSH3 0x1349 JUMPI SWAP1 POP JUMPDEST POP POP POP POP POP DUP2 MSTORE POP POP SWAP1 POP PUSH1 0x0 PUSH1 0x3 PUSH1 0x0 DUP6 DUP2 MSTORE PUSH1 0x20 ADD SWAP1 DUP2 MSTORE PUSH1 0x20 ADD PUSH1 0x0 KECCAK256 PUSH1 0x40 MLOAD DUP1 PUSH2 0x120 ADD PUSH1 0x40 MSTORE SWAP1 DUP2 PUSH1 0x0 DUP3 ADD SLOAD DUP2 MSTORE PUSH1 0x20 ADD PUSH1 0x1 DUP3 ADD DUP1 SLOAD PUSH3 0x13C3 SWAP1 PUSH3 0x2619 JUMP JUMPDEST DUP1 PUSH1 0x1F ADD PUSH1 0x20 DUP1 SWAP2 DIV MUL PUSH1 0x20 ADD PUSH1 0x40 MLOAD SWAP1 DUP2 ADD PUSH1 0x40 MSTORE DUP1 SWAP3 SWAP2 SWAP1 DUP2 DUP2 MSTORE PUSH1 0x20 ADD DUP3 DUP1 SLOAD PUSH3 0x13F1 SWAP1 PUSH3 0x2619 JUMP JUMPDEST DUP1 ISZERO PUSH3 0x1442 JUMPI DUP1 PUSH1 0x1F LT PUSH3 0x1416 JUMPI PUSH2 0x100 DUP1 DUP4 SLOAD DIV MUL DUP4 MSTORE SWAP2 PUSH1 0x20 ADD SWAP2 PUSH3 0x1442 JUMP JUMPDEST DUP3 ADD SWAP2 SWAP1 PUSH1 0x0 MSTORE PUSH1 0x20 PUSH1 0x0 KECCAK256 SWAP1 JUMPDEST DUP2 SLOAD DUP2 MSTORE SWAP1 PUSH1 0x1 ADD SWAP1 PUSH1 0x20 ADD DUP1 DUP4 GT PUSH3 0x1424 JUMPI DUP3 SWAP1 SUB PUSH1 0x1F AND DUP3 ADD SWAP2 JUMPDEST POP POP POP SWAP2 DUP4 MSTORE POP POP PUSH1 0x40 DUP1 MLOAD PUSH1 0xA0 DUP1 DUP3 ADD DUP4 MSTORE PUSH1 0x2 DUP6 ADD SLOAD DUP3 MSTORE PUSH1 0x3 DUP6 ADD SLOAD PUSH1 0x20 DUP4 DUP2 ADD SWAP2 SWAP1 SWAP2 MSTORE PUSH1 0x4 DUP7 ADD SLOAD DUP4 DUP6 ADD MSTORE PUSH1 0x5 DUP7 ADD SLOAD PUSH1 0xFF DUP1 DUP3 AND ISZERO ISZERO PUSH1 0x60 DUP1 DUP8 ADD SWAP2 SWAP1 SWAP2 MSTORE PUSH2 0x100 SWAP1 SWAP3 DIV AND ISZERO ISZERO PUSH1 0x80 DUP1 DUP7 ADD SWAP2 SWAP1 SWAP2 MSTORE DUP3 DUP8 ADD SWAP5 SWAP1 SWAP5 MSTORE PUSH1 0x6 DUP8 ADD SLOAD PUSH1 0x1 PUSH1 0x1 PUSH1 0xA0 SHL SUB AND DUP6 DUP8 ADD MSTORE PUSH1 0x7 DUP8 ADD SLOAD SWAP1 DUP7 ADD MSTORE PUSH1 0x8 DUP7 ADD SLOAD SWAP3 DUP6 ADD SWAP3 SWAP1 SWAP3 MSTORE PUSH1 0x9 DUP6 ADD SLOAD SWAP1 DUP5 ADD MSTORE PUSH1 0xA DUP5 ADD DUP1 SLOAD DUP4 MLOAD DUP2 DUP5 MUL DUP2 ADD DUP5 ADD SWAP1 SWAP5 MSTORE DUP1 DUP5 MSTORE PUSH1 0xC0 SWAP1 SWAP5 ADD SWAP4 SWAP1 SWAP2 DUP4 ADD DUP3 DUP3 DUP1 ISZERO PUSH3 0x1529 JUMPI PUSH1 0x20 MUL DUP3 ADD SWAP2 SWAP1 PUSH1 0x0 MSTORE PUSH1 0x20 PUSH1 0x0 KECCAK256 SWAP1 JUMPDEST DUP2 SLOAD PUSH1 0x1 PUSH1 0x1 PUSH1 0xA0 SHL SUB AND DUP2 MSTORE PUSH1 0x1 SWAP1 SWAP2 ADD SWAP1 PUSH1 0x20 ADD DUP1 DUP4 GT PUSH3 0x150A JUMPI JUMPDEST POP POP POP POP POP DUP2 MSTORE PUSH1 0x20 ADD PUSH1 0xB DUP3 ADD DUP1 SLOAD DUP1 PUSH1 0x20 MUL PUSH1 0x20 ADD PUSH1 0x40 MLOAD SWAP1 DUP2 ADD PUSH1 0x40 MSTORE DUP1 SWAP3 SWAP2 SWAP1 DUP2 DUP2 MSTORE PUSH1 0x20 ADD DUP3 DUP1 SLOAD DUP1 ISZERO PUSH3 0x1583 JUMPI PUSH1 0x20 MUL DUP3 ADD SWAP2 SWAP1 PUSH1 0x0 MSTORE PUSH1 0x20 PUSH1 0x0 KECCAK256 SWAP1 JUMPDEST DUP2 SLOAD DUP2 MSTORE PUSH1 0x20 ADD SWAP1 PUSH1 0x1 ADD SWAP1 DUP1 DUP4 GT PUSH3 0x156E JUMPI JUMPDEST POP POP POP POP POP DUP2 MSTORE POP POP SWAP1 POP DUP1 PUSH1 0x40 ADD MLOAD PUSH1 0x60 ADD MLOAD ISZERO PUSH3 0x163C JUMPI DUP2 PUSH1 0x60 ADD MLOAD DUP5 DUP2 MLOAD DUP2 LT PUSH3 0x15B6 JUMPI PUSH3 0x15B6 PUSH3 0x2AA5 JUMP JUMPDEST PUSH1 0x20 MUL PUSH1 0x20 ADD ADD MLOAD PUSH3 0x163C JUMPI PUSH1 0x40 MLOAD PUSH3 0x461BCD PUSH1 0xE5 SHL DUP2 MSTORE PUSH1 0x20 PUSH1 0x4 DUP3 ADD MSTORE PUSH1 0x41 PUSH1 0x24 DUP3 ADD MSTORE PUSH32 0x53696E676C6553746174653A3A636F6E747269627574653A2063616C6C657220 PUSH1 0x44 DUP3 ADD MSTORE PUSH32 0x6973206E6F74206F6E2077686974656C69737420666F72207468697320706F6F PUSH1 0x64 DUP3 ADD MSTORE PUSH1 0x1B PUSH1 0xFA SHL PUSH1 0x84 DUP3 ADD MSTORE PUSH1 0xA4 ADD PUSH3 0x359 JUMP JUMPDEST PUSH1 0x0 DUP2 PUSH1 0x60 ADD MLOAD PUSH1 0x1 PUSH1 0x1 PUSH1 0xA0 SHL SUB AND PUSH4 0x18160DDD PUSH1 0x40 MLOAD DUP2 PUSH4 0xFFFFFFFF AND PUSH1 0xE0 SHL DUP2 MSTORE PUSH1 0x4 ADD PUSH1 0x20 PUSH1 0x40 MLOAD DUP1 DUP4 SUB DUP2 DUP7 GAS STATICCALL ISZERO DUP1 ISZERO PUSH3 0x1681 JUMPI RETURNDATASIZE PUSH1 0x0 DUP1 RETURNDATACOPY RETURNDATASIZE PUSH1 0x0 REVERT JUMPDEST POP POP POP POP PUSH1 0x40 MLOAD RETURNDATASIZE PUSH1 0x1F NOT PUSH1 0x1F DUP3 ADD AND DUP3 ADD DUP1 PUSH1 0x40 MSTORE POP DUP2 ADD SWAP1 PUSH3 0x16A7 SWAP2 SWAP1 PUSH3 0x2655 JUMP JUMPDEST PUSH1 0xC0 DUP4 ADD MLOAD SWAP1 SWAP2 POP DUP2 PUSH3 0x170A JUMPI PUSH1 0x40 MLOAD PUSH3 0x461BCD PUSH1 0xE5 SHL DUP2 MSTORE PUSH1 0x20 PUSH1 0x4 DUP3 ADD MSTORE PUSH1 0x24 DUP1 DUP3 ADD MSTORE PUSH32 0x53696E676C6553746174653A3A636F6E747269627574653A20737570706C7920 PUSH1 0x44 DUP3 ADD MSTORE PUSH4 0x3C3D203 PUSH1 0xE4 SHL PUSH1 0x64 DUP3 ADD MSTORE PUSH1 0x84 ADD PUSH3 0x359 JUMP JUMPDEST PUSH1 0x0 DUP2 GT PUSH3 0x176A JUMPI PUSH1 0x40 MLOAD PUSH3 0x461BCD PUSH1 0xE5 SHL DUP2 MSTORE PUSH1 0x20 PUSH1 0x4 DUP3 ADD MSTORE PUSH1 0x25 PUSH1 0x24 DUP3 ADD MSTORE PUSH32 0x53696E676C6553746174653A3A636F6E747269627574653A2062616C616E6365 PUSH1 0x44 DUP3 ADD MSTORE PUSH5 0x203C3D203 PUSH1 0xDC SHL PUSH1 0x64 DUP3 ADD MSTORE PUSH1 0x84 ADD PUSH3 0x359 JUMP JUMPDEST PUSH1 0x40 MLOAD PUSH4 0x1E2DBF5 PUSH1 0xE2 SHL DUP2 MSTORE PUSH1 0x4 DUP2 ADD DUP7 SWAP1 MSTORE PUSH1 0x24 DUP2 ADD DUP4 SWAP1 MSTORE PUSH1 0x44 DUP2 ADD DUP3 SWAP1 MSTORE PUSH1 0x0 SWAP1 PUSH20 0x0 SWAP1 PUSH4 0x78B6FD4 SWAP1 PUSH1 0x64 ADD PUSH1 0x20 PUSH1 0x40 MLOAD DUP1 DUP4 SUB DUP2 DUP7 GAS DELEGATECALL ISZERO DUP1 ISZERO PUSH3 0x17CC JUMPI RETURNDATASIZE PUSH1 0x0 DUP1 RETURNDATACOPY RETURNDATASIZE PUSH1 0x0 REVERT JUMPDEST POP POP POP POP PUSH1 0x40 MLOAD RETURNDATASIZE PUSH1 0x1F NOT PUSH1 0x1F DUP3 ADD AND DUP3 ADD DUP1 PUSH1 0x40 MSTORE POP DUP2 ADD SWAP1 PUSH3 0x17F2 SWAP2 SWAP1 PUSH3 0x2655 JUMP JUMPDEST PUSH1 0x40 DUP6 ADD MLOAD PUSH1 0x20 DUP2 ADD MLOAD SWAP1 MLOAD SWAP2 SWAP3 POP PUSH3 0x180C SWAP2 PUSH3 0x2B6A JUMP JUMPDEST TIMESTAMP GT ISZERO PUSH3 0x1895 JUMPI PUSH1 0x40 MLOAD PUSH3 0x461BCD PUSH1 0xE5 SHL DUP2 MSTORE PUSH1 0x20 PUSH1 0x4 DUP3 ADD MSTORE PUSH1 0x49 PUSH1 0x24 DUP3 ADD MSTORE PUSH32 0x53696E676C6553746174653A3A636F6E747269627574653A20696E697469616C PUSH1 0x44 DUP3 ADD MSTORE PUSH32 0x2066756E64696E6720706572696F6420666F72207468697320706F6F6C206861 PUSH1 0x64 DUP3 ADD MSTORE PUSH9 0x1CC8195E1C1A5C9959 PUSH1 0xBA SHL PUSH1 0x84 DUP3 ADD MSTORE PUSH1 0xA4 ADD PUSH3 0x359 JUMP JUMPDEST PUSH1 0x7 SLOAD ISZERO PUSH3 0x193E JUMPI PUSH1 0x7 SLOAD PUSH1 0x0 SWAP1 PUSH2 0x2710 SWAP1 PUSH3 0x18B4 SWAP1 DUP5 PUSH3 0x2685 JUMP JUMPDEST PUSH3 0x18C0 SWAP2 SWAP1 PUSH3 0x26A5 JUMP JUMPDEST SWAP1 POP PUSH3 0x18CE DUP2 DUP4 PUSH3 0x26C8 JUMP JUMPDEST PUSH1 0x60 DUP7 ADD MLOAD PUSH1 0xA SLOAD PUSH1 0x40 MLOAD PUSH4 0x40C10F19 PUSH1 0xE0 SHL DUP2 MSTORE PUSH1 0x1 PUSH1 0x1 PUSH1 0xA0 SHL SUB SWAP2 DUP3 AND PUSH1 0x4 DUP3 ADD MSTORE PUSH1 0x24 DUP2 ADD DUP6 SWAP1 MSTORE SWAP3 SWAP5 POP AND SWAP1 PUSH4 0x40C10F19 SWAP1 PUSH1 0x44 ADD PUSH1 0x0 PUSH1 0x40 MLOAD DUP1 DUP4 SUB DUP2 PUSH1 0x0 DUP8 DUP1 EXTCODESIZE ISZERO DUP1 ISZERO PUSH3 0x1923 JUMPI PUSH1 0x0 DUP1 REVERT JUMPDEST POP GAS CALL ISZERO DUP1 ISZERO PUSH3 0x1938 JUMPI RETURNDATASIZE PUSH1 0x0 DUP1 RETURNDATACOPY RETURNDATASIZE PUSH1 0x0 REVERT JUMPDEST POP POP POP POP POP JUMPDEST DUP6 DUP5 PUSH1 0xC0 ADD DUP2 DUP2 MLOAD PUSH3 0x1952 SWAP2 SWAP1 PUSH3 0x2B6A JUMP JUMPDEST SWAP1 MSTORE POP PUSH1 0x60 DUP5 ADD MLOAD PUSH1 0x40 MLOAD PUSH4 0x40C10F19 PUSH1 0xE0 SHL DUP2 MSTORE CALLER PUSH1 0x4 DUP3 ADD MSTORE PUSH1 0x24 DUP2 ADD DUP4 SWAP1 MSTORE PUSH1 0x1 PUSH1 0x1 PUSH1 0xA0 SHL SUB SWAP1 SWAP2 AND SWAP1 PUSH4 0x40C10F19 SWAP1 PUSH1 0x44 ADD PUSH1 0x0 PUSH1 0x40 MLOAD DUP1 DUP4 SUB DUP2 PUSH1 0x0 DUP8 DUP1 EXTCODESIZE ISZERO DUP1 ISZERO PUSH3 0x19A4 JUMPI PUSH1 0x0 DUP1 REVERT JUMPDEST POP GAS CALL ISZERO DUP1 ISZERO PUSH3 0x19B9 JUMPI RETURNDATASIZE PUSH1 0x0 DUP1 RETURNDATACOPY RETURNDATASIZE PUSH1 0x0 REVERT JUMPDEST POP POP POP PUSH1 0x0 DUP9 DUP2 MSTORE PUSH1 0x3 PUSH1 0x20 SWAP1 DUP2 MSTORE PUSH1 0x40 SWAP1 SWAP2 KECCAK256 DUP7 MLOAD DUP2 SSTORE SWAP1 DUP7 ADD MLOAD DUP7 SWAP3 POP PUSH1 0x1 DUP3 ADD SWAP1 PUSH3 0x19E9 SWAP1 DUP3 PUSH3 0x29D8 JUMP JUMPDEST POP PUSH1 0x40 DUP3 DUP2 ADD MLOAD DUP1 MLOAD PUSH1 0x2 DUP5 ADD SSTORE PUSH1 0x20 DUP1 DUP3 ADD MLOAD PUSH1 0x3 DUP6 ADD SSTORE SWAP2 DUP2 ADD MLOAD PUSH1 0x4 DUP5 ADD SSTORE PUSH1 0x60 DUP1 DUP3 ADD MLOAD PUSH1 0x5 DUP6 ADD DUP1 SLOAD PUSH1 0x80 SWAP5 DUP6 ADD MLOAD ISZERO ISZERO PUSH2 0x100 MUL PUSH2 0xFF00 NOT SWAP4 ISZERO ISZERO SWAP4 SWAP1 SWAP4 AND PUSH2 0xFFFF NOT SWAP1 SWAP2 AND OR SWAP2 SWAP1 SWAP2 OR SWAP1 SSTORE DUP5 ADD MLOAD PUSH1 0x6 DUP5 ADD DUP1 SLOAD PUSH1 0x1 PUSH1 0x1 PUSH1 0xA0 SHL SUB SWAP1 SWAP3 AND PUSH1 0x1 PUSH1 0x1 PUSH1 0xA0 SHL SUB NOT SWAP1 SWAP3 AND SWAP2 SWAP1 SWAP2 OR SWAP1 SSTORE DUP4 ADD MLOAD PUSH1 0x7 DUP4 ADD SSTORE PUSH1 0xA0 DUP4 ADD MLOAD PUSH1 0x8 DUP4 ADD SSTORE PUSH1 0xC0 DUP4 ADD MLOAD PUSH1 0x9 DUP4 ADD SSTORE PUSH1 0xE0 DUP4 ADD MLOAD DUP1 MLOAD PUSH3 0x1A97 SWAP3 PUSH1 0xA DUP6 ADD SWAP3 ADD SWAP1 PUSH3 0x223F JUMP JUMPDEST POP PUSH2 0x100 DUP3 ADD MLOAD DUP1 MLOAD PUSH3 0x1AB6 SWAP2 PUSH1 0xB DUP5 ADD SWAP2 PUSH1 0x20 SWAP1 SWAP2 ADD SWAP1 PUSH3 0x22A9 JUMP JUMPDEST POP POP CALLER PUSH1 0x0 SWAP1 DUP2 MSTORE PUSH1 0x5 PUSH1 0x20 SWAP1 DUP2 MSTORE PUSH1 0x40 SWAP1 SWAP2 KECCAK256 DUP8 MLOAD DUP1 MLOAD DUP10 SWAP5 POP SWAP2 SWAP3 PUSH3 0x1AE4 SWAP3 DUP5 SWAP3 SWAP1 SWAP2 ADD SWAP1 PUSH3 0x22E7 JUMP JUMPDEST POP PUSH1 0x20 DUP3 DUP2 ADD MLOAD DUP1 MLOAD PUSH3 0x1AFF SWAP3 PUSH1 0x1 DUP6 ADD SWAP3 ADD SWAP1 PUSH3 0x22E7 JUMP JUMPDEST POP PUSH1 0x40 DUP3 ADD MLOAD DUP1 MLOAD PUSH3 0x1B1D SWAP2 PUSH1 0x2 DUP5 ADD SWAP2 PUSH1 0x20 SWAP1 SWAP2 ADD SWAP1 PUSH3 0x22E7 JUMP JUMPDEST POP PUSH1 0x60 DUP3 ADD MLOAD DUP1 MLOAD PUSH3 0x1B3B SWAP2 PUSH1 0x3 DUP5 ADD SWAP2 PUSH1 0x20 SWAP1 SWAP2 ADD SWAP1 PUSH3 0x22E7 JUMP JUMPDEST POP POP POP PUSH1 0x20 DUP5 ADD MLOAD PUSH1 0x40 MLOAD CALLER SWAP2 PUSH32 0x8D907C93FF18E98723678268B6C80DCC66AD895AA3F180551F1F0052C8AF3943 SWAP2 PUSH3 0x1B7A SWAP2 SWAP1 DUP11 SWAP1 DUP7 SWAP1 PUSH3 0x26DE JUMP JUMPDEST PUSH1 0x40 MLOAD DUP1 SWAP2 SUB SWAP1 LOG2 PUSH1 0x1 SWAP8 POP POP POP POP POP POP POP POP PUSH3 0x8E7 PUSH1 0x1 DUP1 SSTORE JUMP JUMPDEST PUSH3 0x1BA1 PUSH3 0x20FB JUMP JUMPDEST PUSH3 0x1BAD PUSH1 0x0 PUSH3 0x2157 JUMP JUMPDEST JUMP JUMPDEST PUSH1 0x3 PUSH1 0x20 MSTORE PUSH1 0x0 SWAP1 DUP2 MSTORE PUSH1 0x40 SWAP1 KECCAK256 DUP1 SLOAD PUSH1 0x1 DUP3 ADD DUP1 SLOAD SWAP2 SWAP3 SWAP2 PUSH3 0x1BD3 SWAP1 PUSH3 0x2619 JUMP JUMPDEST DUP1 PUSH1 0x1F ADD PUSH1 0x20 DUP1 SWAP2 DIV MUL PUSH1 0x20 ADD PUSH1 0x40 MLOAD SWAP1 DUP2 ADD PUSH1 0x40 MSTORE DUP1 SWAP3 SWAP2 SWAP1 DUP2 DUP2 MSTORE PUSH1 0x20 ADD DUP3 DUP1 SLOAD PUSH3 0x1C01 SWAP1 PUSH3 0x2619 JUMP JUMPDEST DUP1 ISZERO PUSH3 0x1C52 JUMPI DUP1 PUSH1 0x1F LT PUSH3 0x1C26 JUMPI PUSH2 0x100 DUP1 DUP4 SLOAD DIV MUL DUP4 MSTORE SWAP2 PUSH1 0x20 ADD SWAP2 PUSH3 0x1C52 JUMP JUMPDEST DUP3 ADD SWAP2 SWAP1 PUSH1 0x0 MSTORE PUSH1 0x20 PUSH1 0x0 KECCAK256 SWAP1 JUMPDEST DUP2 SLOAD DUP2 MSTORE SWAP1 PUSH1 0x1 ADD SWAP1 PUSH1 0x20 ADD DUP1 DUP4 GT PUSH3 0x1C34 JUMPI DUP3 SWAP1 SUB PUSH1 0x1F AND DUP3 ADD SWAP2 JUMPDEST POP POP PUSH1 0x40 DUP1 MLOAD PUSH1 0xA0 DUP2 ADD DUP3 MSTORE PUSH1 0x2 DUP8 ADD SLOAD DUP2 MSTORE PUSH1 0x3 DUP8 ADD SLOAD PUSH1 0x20 DUP3 ADD MSTORE PUSH1 0x4 DUP8 ADD SLOAD SWAP2 DUP2 ADD SWAP2 SWAP1 SWAP2 MSTORE PUSH1 0x5 DUP7 ADD SLOAD PUSH1 0xFF DUP1 DUP3 AND ISZERO ISZERO PUSH1 0x60 DUP5 ADD MSTORE PUSH2 0x100 SWAP1 SWAP2 DIV AND ISZERO ISZERO PUSH1 0x80 DUP3 ADD MSTORE PUSH1 0x6 DUP7 ADD SLOAD PUSH1 0x7 DUP8 ADD SLOAD PUSH1 0x8 DUP9 ADD SLOAD PUSH1 0x9 SWAP1 SWAP9 ADD SLOAD SWAP7 SWAP8 SWAP3 SWAP7 PUSH1 0x1 PUSH1 0x1 PUSH1 0xA0 SHL SUB SWAP1 SWAP3 AND SWAP6 POP SWAP4 POP SWAP1 SWAP2 POP DUP8 JUMP JUMPDEST PUSH3 0x1CD2 PUSH3 0x20FB JUMP JUMPDEST PUSH1 0x1 PUSH1 0x1 PUSH1 0xA0 SHL SUB DUP2 AND PUSH3 0x1D39 JUMPI PUSH1 0x40 MLOAD PUSH3 0x461BCD PUSH1 0xE5 SHL DUP2 MSTORE PUSH1 0x20 PUSH1 0x4 DUP3 ADD MSTORE PUSH1 0x26 PUSH1 0x24 DUP3 ADD MSTORE PUSH32 0x4F776E61626C653A206E6577206F776E657220697320746865207A65726F2061 PUSH1 0x44 DUP3 ADD MSTORE PUSH6 0x646472657373 PUSH1 0xD0 SHL PUSH1 0x64 DUP3 ADD MSTORE PUSH1 0x84 ADD PUSH3 0x359 JUMP JUMPDEST PUSH3 0x1D44 DUP2 PUSH3 0x2157 JUMP JUMPDEST POP JUMP JUMPDEST PUSH1 0x2 PUSH1 0x1 SLOAD SUB PUSH3 0x1D9B JUMPI PUSH1 0x40 MLOAD PUSH3 0x461BCD PUSH1 0xE5 SHL DUP2 MSTORE PUSH1 0x20 PUSH1 0x4 DUP3 ADD MSTORE PUSH1 0x1F PUSH1 0x24 DUP3 ADD MSTORE PUSH32 0x5265656E7472616E637947756172643A207265656E7472616E742063616C6C00 PUSH1 0x44 DUP3 ADD MSTORE PUSH1 0x64 ADD PUSH3 0x359 JUMP JUMPDEST PUSH1 0x2 PUSH1 0x1 SSTORE JUMP JUMPDEST DUP1 SELFBALANCE LT ISZERO PUSH3 0x1DF4 JUMPI PUSH1 0x40 MLOAD PUSH3 0x461BCD PUSH1 0xE5 SHL DUP2 MSTORE PUSH1 0x20 PUSH1 0x4 DUP3 ADD MSTORE PUSH1 0x1D PUSH1 0x24 DUP3 ADD MSTORE PUSH32 0x416464726573733A20696E73756666696369656E742062616C616E6365000000 PUSH1 0x44 DUP3 ADD MSTORE PUSH1 0x64 ADD PUSH3 0x359 JUMP JUMPDEST PUSH1 0x0 DUP3 PUSH1 0x1 PUSH1 0x1 PUSH1 0xA0 SHL SUB AND DUP3 PUSH1 0x40 MLOAD PUSH1 0x0 PUSH1 0x40 MLOAD DUP1 DUP4 SUB DUP2 DUP6 DUP8 GAS CALL SWAP3 POP POP POP RETURNDATASIZE DUP1 PUSH1 0x0 DUP2 EQ PUSH3 0x1E43 JUMPI PUSH1 0x40 MLOAD SWAP2 POP PUSH1 0x1F NOT PUSH1 0x3F RETURNDATASIZE ADD AND DUP3 ADD PUSH1 0x40 MSTORE RETURNDATASIZE DUP3 MSTORE RETURNDATASIZE PUSH1 0x0 PUSH1 0x20 DUP5 ADD RETURNDATACOPY PUSH3 0x1E48 JUMP JUMPDEST PUSH1 0x60 SWAP2 POP JUMPDEST POP POP SWAP1 POP DUP1 PUSH3 0x1EC1 JUMPI PUSH1 0x40 MLOAD PUSH3 0x461BCD PUSH1 0xE5 SHL DUP2 MSTORE PUSH1 0x20 PUSH1 0x4 DUP3 ADD MSTORE PUSH1 0x3A PUSH1 0x24 DUP3 ADD MSTORE PUSH32 0x416464726573733A20756E61626C6520746F2073656E642076616C75652C2072 PUSH1 0x44 DUP3 ADD MSTORE PUSH32 0x6563697069656E74206D61792068617665207265766572746564000000000000 PUSH1 0x64 DUP3 ADD MSTORE PUSH1 0x84 ADD PUSH3 0x359 JUMP JUMPDEST POP POP POP JUMP JUMPDEST CALLER PUSH1 0x0 SWAP1 DUP2 MSTORE PUSH1 0x5 PUSH1 0x20 SWAP1 DUP2 MSTORE PUSH1 0x40 DUP1 DUP4 KECCAK256 DUP2 MLOAD DUP2 SLOAD PUSH1 0xA0 SWAP5 DUP2 MUL DUP3 ADD DUP6 ADD SWAP1 SWAP4 MSTORE PUSH1 0x80 DUP2 ADD DUP4 DUP2 MSTORE DUP6 SWAP5 SWAP2 SWAP4 DUP5 SWAP3 DUP5 SWAP2 SWAP1 DUP5 ADD DUP3 DUP3 DUP1 ISZERO PUSH3 0x1F49 JUMPI PUSH1 0x20 MUL DUP3 ADD SWAP2 SWAP1 PUSH1 0x0 MSTORE PUSH1 0x20 PUSH1 0x0 KECCAK256 SWAP1 PUSH1 0x0 SWAP1 JUMPDEST DUP3 SLOAD PUSH2 0x100 DUP4 SWAP1 EXP SWAP1 DIV PUSH1 0xFF AND ISZERO ISZERO DUP2 MSTORE PUSH1 0x20 PUSH1 0x1 SWAP3 DUP4 ADD DUP2 DUP2 DIV SWAP5 DUP6 ADD SWAP5 SWAP1 SWAP4 SUB SWAP1 SWAP3 MUL SWAP2 ADD DUP1 DUP5 GT PUSH3 0x1F17 JUMPI SWAP1 POP JUMPDEST POP POP POP POP POP DUP2 MSTORE PUSH1 0x20 ADD PUSH1 0x1 DUP3 ADD DUP1 SLOAD DUP1 PUSH1 0x20 MUL PUSH1 0x20 ADD PUSH1 0x40 MLOAD SWAP1 DUP2 ADD PUSH1 0x40 MSTORE DUP1 SWAP3 SWAP2 SWAP1 DUP2 DUP2 MSTORE PUSH1 0x20 ADD DUP3 DUP1 SLOAD DUP1 ISZERO PUSH3 0x1FC3 JUMPI PUSH1 0x20 MUL DUP3 ADD SWAP2 SWAP1 PUSH1 0x0 MSTORE PUSH1 0x20 PUSH1 0x0 KECCAK256 SWAP1 PUSH1 0x0 SWAP1 JUMPDEST DUP3 SLOAD PUSH2 0x100 DUP4 SWAP1 EXP SWAP1 DIV PUSH1 0xFF AND ISZERO ISZERO DUP2 MSTORE PUSH1 0x20 PUSH1 0x1 SWAP3 DUP4 ADD DUP2 DUP2 DIV SWAP5 DUP6 ADD SWAP5 SWAP1 SWAP4 SUB SWAP1 SWAP3 MUL SWAP2 ADD DUP1 DUP5 GT PUSH3 0x1F91 JUMPI SWAP1 POP JUMPDEST POP POP POP POP POP DUP2 MSTORE PUSH1 0x20 ADD PUSH1 0x2 DUP3 ADD DUP1 SLOAD DUP1 PUSH1 0x20 MUL PUSH1 0x20 ADD PUSH1 0x40 MLOAD SWAP1 DUP2 ADD PUSH1 0x40 MSTORE DUP1 SWAP3 SWAP2 SWAP1 DUP2 DUP2 MSTORE PUSH1 0x20 ADD DUP3 DUP1 SLOAD DUP1 ISZERO PUSH3 0x203D JUMPI PUSH1 0x20 MUL DUP3 ADD SWAP2 SWAP1 PUSH1 0x0 MSTORE PUSH1 0x20 PUSH1 0x0 KECCAK256 SWAP1 PUSH1 0x0 SWAP1 JUMPDEST DUP3 SLOAD PUSH2 0x100 DUP4 SWAP1 EXP SWAP1 DIV PUSH1 0xFF AND ISZERO ISZERO DUP2 MSTORE PUSH1 0x20 PUSH1 0x1 SWAP3 DUP4 ADD DUP2 DUP2 DIV SWAP5 DUP6 ADD SWAP5 SWAP1 SWAP4 SUB SWAP1 SWAP3 MUL SWAP2 ADD DUP1 DUP5 GT PUSH3 0x200B JUMPI SWAP1 POP JUMPDEST POP POP POP POP POP DUP2 MSTORE PUSH1 0x20 ADD PUSH1 0x3 DUP3 ADD DUP1 SLOAD DUP1 PUSH1 0x20 MUL PUSH1 0x20 ADD PUSH1 0x40 MLOAD SWAP1 DUP2 ADD PUSH1 0x40 MSTORE DUP1 SWAP3 SWAP2 SWAP1 DUP2 DUP2 MSTORE PUSH1 0x20 ADD DUP3 DUP1 SLOAD DUP1 ISZERO PUSH3 0x20B7 JUMPI PUSH1 0x20 MUL DUP3 ADD SWAP2 SWAP1 PUSH1 0x0 MSTORE PUSH1 0x20 PUSH1 0x0 KECCAK256 SWAP1 PUSH1 0x0 SWAP1 JUMPDEST DUP3 SLOAD PUSH2 0x100 DUP4 SWAP1 EXP SWAP1 DIV PUSH1 0xFF AND ISZERO ISZERO DUP2 MSTORE PUSH1 0x20 PUSH1 0x1 SWAP3 DUP4 ADD DUP2 DUP2 DIV SWAP5 DUP6 ADD SWAP5 SWAP1 SWAP4 SUB SWAP1 SWAP3 MUL SWAP2 ADD DUP1 DUP5 GT PUSH3 0x2085 JUMPI SWAP1 POP JUMPDEST POP POP POP POP POP DUP2 MSTORE POP POP SWAP1 POP DUP1 PUSH1 0x40 ADD MLOAD DUP4 DUP2 MLOAD DUP2 LT PUSH3 0x20DB JUMPI PUSH3 0x20DB PUSH3 0x2AA5 JUMP JUMPDEST PUSH1 0x20 MUL PUSH1 0x20 ADD ADD MLOAD ISZERO PUSH3 0x20F2 JUMPI POP PUSH1 0x1 SWAP3 SWAP2 POP POP JUMP JUMPDEST POP PUSH1 0x0 SWAP3 SWAP2 POP POP JUMP JUMPDEST PUSH1 0x0 SLOAD PUSH1 0x1 PUSH1 0x1 PUSH1 0xA0 SHL SUB AND CALLER EQ PUSH3 0x1BAD JUMPI PUSH1 0x40 MLOAD PUSH3 0x461BCD PUSH1 0xE5 SHL DUP2 MSTORE PUSH1 0x20 PUSH1 0x4 DUP3 ADD DUP2 SWAP1 MSTORE PUSH1 0x24 DUP3 ADD MSTORE PUSH32 0x4F776E61626C653A2063616C6C6572206973206E6F7420746865206F776E6572 PUSH1 0x44 DUP3 ADD MSTORE PUSH1 0x64 ADD PUSH3 0x359 JUMP JUMPDEST PUSH1 0x0 DUP1 SLOAD PUSH1 0x1 PUSH1 0x1 PUSH1 0xA0 SHL SUB DUP4 DUP2 AND PUSH1 0x1 PUSH1 0x1 PUSH1 0xA0 SHL SUB NOT DUP4 AND DUP2 OR DUP5 SSTORE PUSH1 0x40 MLOAD SWAP2 SWAP1 SWAP3 AND SWAP3 DUP4 SWAP2 PUSH32 0x8BE0079C531659141344CD1FD0A4F28419497F9722A3DAAFE3B4186F6B6457E0 SWAP2 SWAP1 LOG3 POP POP JUMP JUMPDEST PUSH2 0x18E9 DUP1 PUSH3 0x2B81 DUP4 CODECOPY ADD SWAP1 JUMP JUMPDEST PUSH1 0x40 MLOAD DUP1 PUSH2 0x120 ADD PUSH1 0x40 MSTORE DUP1 PUSH1 0x0 DUP2 MSTORE PUSH1 0x20 ADD PUSH1 0x60 DUP2 MSTORE PUSH1 0x20 ADD PUSH3 0x2206 PUSH1 0x40 MLOAD DUP1 PUSH1 0xA0 ADD PUSH1 0x40 MSTORE DUP1 PUSH1 0x0 DUP2 MSTORE PUSH1 0x20 ADD PUSH1 0x0 DUP2 MSTORE PUSH1 0x20 ADD PUSH1 0x0 DUP2 MSTORE PUSH1 0x20 ADD PUSH1 0x0 ISZERO ISZERO DUP2 MSTORE PUSH1 0x20 ADD PUSH1 0x0 ISZERO ISZERO DUP2 MSTORE POP SWAP1 JUMP JUMPDEST DUP2 MSTORE PUSH1 0x20 ADD PUSH1 0x0 PUSH1 0x1 PUSH1 0x1 PUSH1 0xA0 SHL SUB AND DUP2 MSTORE PUSH1 0x20 ADD PUSH1 0x0 DUP2 MSTORE PUSH1 0x20 ADD PUSH1 0x0 DUP2 MSTORE PUSH1 0x20 ADD PUSH1 0x0 DUP2 MSTORE PUSH1 0x20 ADD PUSH1 0x60 DUP2 MSTORE PUSH1 0x20 ADD PUSH1 0x60 DUP2 MSTORE POP SWAP1 JUMP JUMPDEST DUP3 DUP1 SLOAD DUP3 DUP3 SSTORE SWAP1 PUSH1 0x0 MSTORE PUSH1 0x20 PUSH1 0x0 KECCAK256 SWAP1 DUP2 ADD SWAP3 DUP3 ISZERO PUSH3 0x2297 JUMPI SWAP2 PUSH1 0x20 MUL DUP3 ADD JUMPDEST DUP3 DUP2 GT ISZERO PUSH3 0x2297 JUMPI DUP3 MLOAD DUP3 SLOAD PUSH1 0x1 PUSH1 0x1 PUSH1 0xA0 SHL SUB NOT AND PUSH1 0x1 PUSH1 0x1 PUSH1 0xA0 SHL SUB SWAP1 SWAP2 AND OR DUP3 SSTORE PUSH1 0x20 SWAP1 SWAP3 ADD SWAP2 PUSH1 0x1 SWAP1 SWAP2 ADD SWAP1 PUSH3 0x2260 JUMP JUMPDEST POP PUSH3 0x22A5 SWAP3 SWAP2 POP PUSH3 0x2389 JUMP JUMPDEST POP SWAP1 JUMP JUMPDEST DUP3 DUP1 SLOAD DUP3 DUP3 SSTORE SWAP1 PUSH1 0x0 MSTORE PUSH1 0x20 PUSH1 0x0 KECCAK256 SWAP1 DUP2 ADD SWAP3 DUP3 ISZERO PUSH3 0x2297 JUMPI SWAP2 PUSH1 0x20 MUL DUP3 ADD JUMPDEST DUP3 DUP2 GT ISZERO PUSH3 0x2297 JUMPI DUP3 MLOAD DUP3 SSTORE SWAP2 PUSH1 0x20 ADD SWAP2 SWAP1 PUSH1 0x1 ADD SWAP1 PUSH3 0x22CA JUMP JUMPDEST DUP3 DUP1 SLOAD DUP3 DUP3 SSTORE SWAP1 PUSH1 0x0 MSTORE PUSH1 0x20 PUSH1 0x0 KECCAK256 SWAP1 PUSH1 0x1F ADD PUSH1 0x20 SWAP1 DIV DUP2 ADD SWAP3 DUP3 ISZERO PUSH3 0x2297 JUMPI SWAP2 PUSH1 0x20 MUL DUP3 ADD PUSH1 0x0 JUMPDEST DUP4 DUP3 GT ISZERO PUSH3 0x2350 JUMPI DUP4 MLOAD DUP4 DUP3 PUSH2 0x100 EXP DUP2 SLOAD DUP2 PUSH1 0xFF MUL NOT AND SWAP1 DUP4 ISZERO ISZERO MUL OR SWAP1 SSTORE POP SWAP3 PUSH1 0x20 ADD SWAP3 PUSH1 0x1 ADD PUSH1 0x20 DUP2 PUSH1 0x0 ADD DIV SWAP3 DUP4 ADD SWAP3 PUSH1 0x1 SUB MUL PUSH3 0x2311 JUMP JUMPDEST DUP1 ISZERO PUSH3 0x237F JUMPI DUP3 DUP2 PUSH2 0x100 EXP DUP2 SLOAD SWAP1 PUSH1 0xFF MUL NOT AND SWAP1 SSTORE PUSH1 0x1 ADD PUSH1 0x20 DUP2 PUSH1 0x0 ADD DIV SWAP3 DUP4 ADD SWAP3 PUSH1 0x1 SUB MUL PUSH3 0x2350 JUMP JUMPDEST POP POP PUSH3 0x22A5 SWAP3 SWAP2 POP JUMPDEST JUMPDEST DUP1 DUP3 GT ISZERO PUSH3 0x22A5 JUMPI PUSH1 0x0 DUP2 SSTORE PUSH1 0x1 ADD PUSH3 0x238A JUMP JUMPDEST PUSH4 0x4E487B71 PUSH1 0xE0 SHL PUSH1 0x0 MSTORE PUSH1 0x41 PUSH1 0x4 MSTORE PUSH1 0x24 PUSH1 0x0 REVERT JUMPDEST PUSH1 0x40 MLOAD PUSH1 0x1F DUP3 ADD PUSH1 0x1F NOT AND DUP2 ADD PUSH8 0xFFFFFFFFFFFFFFFF DUP2 GT DUP3 DUP3 LT OR ISZERO PUSH3 0x23E2 JUMPI PUSH3 0x23E2 PUSH3 0x23A0 JUMP JUMPDEST PUSH1 0x40 MSTORE SWAP2 SWAP1 POP JUMP JUMPDEST PUSH1 0x0 PUSH8 0xFFFFFFFFFFFFFFFF DUP3 GT ISZERO PUSH3 0x2407 JUMPI PUSH3 0x2407 PUSH3 0x23A0 JUMP JUMPDEST POP PUSH1 0x1F ADD PUSH1 0x1F NOT AND PUSH1 0x20 ADD SWAP1 JUMP JUMPDEST PUSH1 0x0 PUSH1 0x20 DUP3 DUP5 SUB SLT ISZERO PUSH3 0x2428 JUMPI PUSH1 0x0 DUP1 REVERT JUMPDEST DUP2 CALLDATALOAD PUSH8 0xFFFFFFFFFFFFFFFF DUP2 GT ISZERO PUSH3 0x2440 JUMPI PUSH1 0x0 DUP1 REVERT JUMPDEST DUP3 ADD PUSH1 0x1F DUP2 ADD DUP5 SGT PUSH3 0x2452 JUMPI PUSH1 0x0 DUP1 REVERT JUMPDEST DUP1 CALLDATALOAD PUSH3 0x2469 PUSH3 0x2463 DUP3 PUSH3 0x23EA JUMP JUMPDEST PUSH3 0x23B6 JUMP JUMPDEST DUP2 DUP2 MSTORE DUP6 PUSH1 0x20 DUP4 DUP6 ADD ADD GT ISZERO PUSH3 0x247F JUMPI PUSH1 0x0 DUP1 REVERT JUMPDEST DUP2 PUSH1 0x20 DUP5 ADD PUSH1 0x20 DUP4 ADD CALLDATACOPY PUSH1 0x0 SWAP2 DUP2 ADD PUSH1 0x20 ADD SWAP2 SWAP1 SWAP2 MSTORE SWAP5 SWAP4 POP POP POP POP JUMP JUMPDEST PUSH1 0x0 DUP1 PUSH1 0x40 DUP4 DUP6 SUB SLT ISZERO PUSH3 0x24B1 JUMPI PUSH1 0x0 DUP1 REVERT JUMPDEST POP POP DUP1 CALLDATALOAD SWAP3 PUSH1 0x20 SWAP1 SWAP2 ADD CALLDATALOAD SWAP2 POP JUMP JUMPDEST PUSH1 0x0 PUSH1 0x20 DUP3 DUP5 SUB SLT ISZERO PUSH3 0x24D3 JUMPI PUSH1 0x0 DUP1 REVERT JUMPDEST POP CALLDATALOAD SWAP2 SWAP1 POP JUMP JUMPDEST PUSH1 0x0 JUMPDEST DUP4 DUP2 LT ISZERO PUSH3 0x24F7 JUMPI DUP2 DUP2 ADD MLOAD DUP4 DUP3 ADD MSTORE PUSH1 0x20 ADD PUSH3 0x24DD JUMP JUMPDEST POP POP PUSH1 0x0 SWAP2 ADD MSTORE JUMP JUMPDEST PUSH1 0x0 DUP2 MLOAD DUP1 DUP5 MSTORE PUSH3 0x251A DUP2 PUSH1 0x20 DUP7 ADD PUSH1 0x20 DUP7 ADD PUSH3 0x24DA JUMP JUMPDEST PUSH1 0x1F ADD PUSH1 0x1F NOT AND SWAP3 SWAP1 SWAP3 ADD PUSH1 0x20 ADD SWAP3 SWAP2 POP POP JUMP JUMPDEST PUSH1 0x0 PUSH2 0x160 DUP10 DUP4 MSTORE DUP1 PUSH1 0x20 DUP5 ADD MSTORE PUSH3 0x254A DUP2 DUP5 ADD DUP11 PUSH3 0x2500 JUMP JUMPDEST SWAP2 POP POP DUP7 MLOAD PUSH1 0x40 DUP4 ADD MSTORE PUSH1 0x20 DUP8 ADD MLOAD PUSH1 0x60 DUP4 ADD MSTORE PUSH1 0x40 DUP8 ADD MLOAD PUSH1 0x80 DUP4 ADD MSTORE PUSH1 0x60 DUP8 ADD MLOAD ISZERO ISZERO PUSH1 0xA0 DUP4 ADD MSTORE PUSH1 0x80 DUP8 ADD MLOAD ISZERO ISZERO PUSH1 0xC0 DUP4 ADD MSTORE PUSH3 0x2596 PUSH1 0xE0 DUP4 ADD DUP8 PUSH1 0x1 PUSH1 0x1 PUSH1 0xA0 SHL SUB AND SWAP1 MSTORE JUMP JUMPDEST DUP5 PUSH2 0x100 DUP4 ADD MSTORE DUP4 PUSH2 0x120 DUP4 ADD MSTORE DUP3 PUSH2 0x140 DUP4 ADD MSTORE SWAP9 SWAP8 POP POP POP POP POP POP POP POP JUMP JUMPDEST PUSH1 0x1 PUSH1 0x1 PUSH1 0xA0 SHL SUB DUP2 AND DUP2 EQ PUSH3 0x1D44 JUMPI PUSH1 0x0 DUP1 REVERT JUMPDEST PUSH1 0x0 PUSH1 0x20 DUP3 DUP5 SUB SLT ISZERO PUSH3 0x25E0 JUMPI PUSH1 0x0 DUP1 REVERT JUMPDEST DUP2 CALLDATALOAD PUSH3 0x25ED DUP2 PUSH3 0x25B7 JUMP JUMPDEST SWAP4 SWAP3 POP POP POP JUMP JUMPDEST PUSH1 0x0 DUP1 PUSH1 0x40 DUP4 DUP6 SUB SLT ISZERO PUSH3 0x2608 JUMPI PUSH1 0x0 DUP1 REVERT JUMPDEST POP POP DUP1 MLOAD PUSH1 0x20 SWAP1 SWAP2 ADD MLOAD SWAP1 SWAP3 SWAP1 SWAP2 POP JUMP JUMPDEST PUSH1 0x1 DUP2 DUP2 SHR SWAP1 DUP3 AND DUP1 PUSH3 0x262E JUMPI PUSH1 0x7F DUP3 AND SWAP2 POP JUMPDEST PUSH1 0x20 DUP3 LT DUP2 SUB PUSH3 0x264F JUMPI PUSH4 0x4E487B71 PUSH1 0xE0 SHL PUSH1 0x0 MSTORE PUSH1 0x22 PUSH1 0x4 MSTORE PUSH1 0x24 PUSH1 0x0 REVERT JUMPDEST POP SWAP2 SWAP1 POP JUMP JUMPDEST PUSH1 0x0 PUSH1 0x20 DUP3 DUP5 SUB SLT ISZERO PUSH3 0x2668 JUMPI PUSH1 0x0 DUP1 REVERT JUMPDEST POP MLOAD SWAP2 SWAP1 POP JUMP JUMPDEST PUSH4 0x4E487B71 PUSH1 0xE0 SHL PUSH1 0x0 MSTORE PUSH1 0x11 PUSH1 0x4 MSTORE PUSH1 0x24 PUSH1 0x0 REVERT JUMPDEST DUP1 DUP3 MUL DUP2 ISZERO DUP3 DUP3 DIV DUP5 EQ OR PUSH3 0x269F JUMPI PUSH3 0x269F PUSH3 0x266F JUMP JUMPDEST SWAP3 SWAP2 POP POP JUMP JUMPDEST PUSH1 0x0 DUP3 PUSH3 0x26C3 JUMPI PUSH4 0x4E487B71 PUSH1 0xE0 SHL PUSH1 0x0 MSTORE PUSH1 0x12 PUSH1 0x4 MSTORE PUSH1 0x24 PUSH1 0x0 REVERT JUMPDEST POP DIV SWAP1 JUMP JUMPDEST DUP2 DUP2 SUB DUP2 DUP2 GT ISZERO PUSH3 0x269F JUMPI PUSH3 0x269F PUSH3 0x266F JUMP JUMPDEST PUSH1 0x60 DUP2 MSTORE PUSH1 0x0 PUSH3 0x26F3 PUSH1 0x60 DUP4 ADD DUP7 PUSH3 0x2500 JUMP JUMPDEST PUSH1 0x20 DUP4 ADD SWAP5 SWAP1 SWAP5 MSTORE POP PUSH1 0x40 ADD MSTORE SWAP2 SWAP1 POP JUMP JUMPDEST PUSH1 0x0 DUP1 PUSH1 0x0 PUSH1 0x60 DUP5 DUP7 SUB SLT ISZERO PUSH3 0x271B JUMPI PUSH1 0x0 DUP1 REVERT JUMPDEST DUP4 MLOAD SWAP3 POP PUSH1 0x20 DUP5 ADD MLOAD PUSH3 0x272F DUP2 PUSH3 0x25B7 JUMP JUMPDEST DUP1 SWAP3 POP POP PUSH1 0x40 DUP5 ADD MLOAD SWAP1 POP SWAP3 POP SWAP3 POP SWAP3 JUMP JUMPDEST PUSH1 0x0 DUP3 PUSH1 0x1F DUP4 ADD SLT PUSH3 0x2753 JUMPI PUSH1 0x0 DUP1 REVERT JUMPDEST DUP2 MLOAD PUSH3 0x2764 PUSH3 0x2463 DUP3 PUSH3 0x23EA JUMP JUMPDEST DUP2 DUP2 MSTORE DUP5 PUSH1 0x20 DUP4 DUP7 ADD ADD GT ISZERO PUSH3 0x277A JUMPI PUSH1 0x0 DUP1 REVERT JUMPDEST PUSH3 0x278D DUP3 PUSH1 0x20 DUP4 ADD PUSH1 0x20 DUP8 ADD PUSH3 0x24DA JUMP JUMPDEST SWAP5 SWAP4 POP POP POP POP JUMP JUMPDEST PUSH1 0x0 DUP3 PUSH1 0x1F DUP4 ADD SLT PUSH3 0x27A7 JUMPI PUSH1 0x0 DUP1 REVERT JUMPDEST DUP2 MLOAD PUSH1 0x20 PUSH8 0xFFFFFFFFFFFFFFFF DUP3 GT ISZERO PUSH3 0x27C6 JUMPI PUSH3 0x27C6 PUSH3 0x23A0 JUMP JUMPDEST DUP2 PUSH1 0x5 SHL PUSH3 0x27D7 DUP3 DUP3 ADD PUSH3 0x23B6 JUMP JUMPDEST SWAP3 DUP4 MSTORE DUP5 DUP2 ADD DUP3 ADD SWAP3 DUP3 DUP2 ADD SWAP1 DUP8 DUP6 GT ISZERO PUSH3 0x27F2 JUMPI PUSH1 0x0 DUP1 REVERT JUMPDEST DUP4 DUP8 ADD SWAP3 POP JUMPDEST DUP5 DUP4 LT ISZERO PUSH3 0x281E JUMPI DUP3 MLOAD PUSH3 0x280E DUP2 PUSH3 0x25B7 JUMP JUMPDEST DUP3 MSTORE SWAP2 DUP4 ADD SWAP2 SWAP1 DUP4 ADD SWAP1 PUSH3 0x27F8 JUMP JUMPDEST SWAP8 SWAP7 POP POP POP POP POP POP POP JUMP JUMPDEST DUP1 MLOAD DUP1 ISZERO ISZERO DUP2 EQ PUSH3 0x8E7 JUMPI PUSH1 0x0 DUP1 REVERT JUMPDEST PUSH1 0x0 DUP1 PUSH1 0x0 DUP1 PUSH1 0x0 DUP1 PUSH1 0x0 PUSH1 0xE0 DUP9 DUP11 SUB SLT ISZERO PUSH3 0x2856 JUMPI PUSH1 0x0 DUP1 REVERT JUMPDEST DUP8 MLOAD PUSH8 0xFFFFFFFFFFFFFFFF DUP1 DUP3 GT ISZERO PUSH3 0x286F JUMPI PUSH1 0x0 DUP1 REVERT JUMPDEST PUSH3 0x287D DUP12 DUP4 DUP13 ADD PUSH3 0x2741 JUMP JUMPDEST SWAP9 POP PUSH1 0x20 DUP11 ADD MLOAD SWAP2 POP DUP1 DUP3 GT ISZERO PUSH3 0x2894 JUMPI PUSH1 0x0 DUP1 REVERT JUMPDEST PUSH3 0x28A2 DUP12 DUP4 DUP13 ADD PUSH3 0x2795 JUMP JUMPDEST SWAP8 POP PUSH1 0x40 DUP11 ADD MLOAD SWAP2 POP DUP1 DUP3 GT ISZERO PUSH3 0x28B9 JUMPI PUSH1 0x0 DUP1 REVERT JUMPDEST PUSH3 0x28C7 DUP12 DUP4 DUP13 ADD PUSH3 0x2741 JUMP JUMPDEST SWAP7 POP PUSH1 0x60 DUP11 ADD MLOAD SWAP2 POP DUP1 DUP3 GT ISZERO PUSH3 0x28DE JUMPI PUSH1 0x0 DUP1 REVERT JUMPDEST POP PUSH3 0x28ED DUP11 DUP3 DUP12 ADD PUSH3 0x2741 JUMP JUMPDEST SWAP5 POP POP PUSH1 0x80 DUP9 ADD MLOAD SWAP3 POP PUSH1 0xA0 DUP9 ADD MLOAD SWAP2 POP PUSH3 0x290C PUSH1 0xC0 DUP10 ADD PUSH3 0x2829 JUMP JUMPDEST SWAP1 POP SWAP3 SWAP6 SWAP9 SWAP2 SWAP5 SWAP8 POP SWAP3 SWAP6 POP JUMP JUMPDEST PUSH1 0x0 PUSH1 0x20 DUP3 DUP5 SUB SLT ISZERO PUSH3 0x292D JUMPI PUSH1 0x0 DUP1 REVERT JUMPDEST PUSH3 0x25ED DUP3 PUSH3 0x2829 JUMP JUMPDEST PUSH1 0x0 PUSH1 0x1 DUP3 ADD PUSH3 0x294D JUMPI PUSH3 0x294D PUSH3 0x266F JUMP JUMPDEST POP PUSH1 0x1 ADD SWAP1 JUMP JUMPDEST PUSH1 0x40 DUP2 MSTORE PUSH1 0x0 PUSH3 0x2969 PUSH1 0x40 DUP4 ADD DUP6 PUSH3 0x2500 JUMP JUMPDEST DUP3 DUP2 SUB PUSH1 0x20 DUP5 ADD MSTORE PUSH3 0x297D DUP2 DUP6 PUSH3 0x2500 JUMP JUMPDEST SWAP6 SWAP5 POP POP POP POP POP JUMP JUMPDEST PUSH1 0x1F DUP3 GT ISZERO PUSH3 0x1EC1 JUMPI PUSH1 0x0 DUP2 DUP2 MSTORE PUSH1 0x20 DUP2 KECCAK256 PUSH1 0x1F DUP6 ADD PUSH1 0x5 SHR DUP2 ADD PUSH1 0x20 DUP7 LT ISZERO PUSH3 0x29AF JUMPI POP DUP1 JUMPDEST PUSH1 0x1F DUP6 ADD PUSH1 0x5 SHR DUP3 ADD SWAP2 POP JUMPDEST DUP2 DUP2 LT ISZERO PUSH3 0x29D0 JUMPI DUP3 DUP2 SSTORE PUSH1 0x1 ADD PUSH3 0x29BB JUMP JUMPDEST POP POP POP POP POP POP JUMP JUMPDEST DUP2 MLOAD PUSH8 0xFFFFFFFFFFFFFFFF DUP2 GT ISZERO PUSH3 0x29F5 JUMPI PUSH3 0x29F5 PUSH3 0x23A0 JUMP JUMPDEST PUSH3 0x2A0D DUP2 PUSH3 0x2A06 DUP5 SLOAD PUSH3 0x2619 JUMP JUMPDEST DUP5 PUSH3 0x2986 JUMP JUMPDEST PUSH1 0x20 DUP1 PUSH1 0x1F DUP4 GT PUSH1 0x1 DUP2 EQ PUSH3 0x2A45 JUMPI PUSH1 0x0 DUP5 ISZERO PUSH3 0x2A2C JUMPI POP DUP6 DUP4 ADD MLOAD JUMPDEST PUSH1 0x0 NOT PUSH1 0x3 DUP7 SWAP1 SHL SHR NOT AND PUSH1 0x1 DUP6 SWAP1 SHL OR DUP6 SSTORE PUSH3 0x29D0 JUMP JUMPDEST PUSH1 0x0 DUP6 DUP2 MSTORE PUSH1 0x20 DUP2 KECCAK256 PUSH1 0x1F NOT DUP7 AND SWAP2 JUMPDEST DUP3 DUP2 LT ISZERO PUSH3 0x2A76 JUMPI DUP9 DUP7 ADD MLOAD DUP3 SSTORE SWAP5 DUP5 ADD SWAP5 PUSH1 0x1 SWAP1 SWAP2 ADD SWAP1 DUP5 ADD PUSH3 0x2A55 JUMP JUMPDEST POP DUP6 DUP3 LT ISZERO PUSH3 0x2A95 JUMPI DUP8 DUP6 ADD MLOAD PUSH1 0x0 NOT PUSH1 0x3 DUP9 SWAP1 SHL PUSH1 0xF8 AND SHR NOT AND DUP2 SSTORE JUMPDEST POP POP POP POP POP PUSH1 0x1 SWAP1 DUP2 SHL ADD SWAP1 SSTORE POP JUMP JUMPDEST PUSH4 0x4E487B71 PUSH1 0xE0 SHL PUSH1 0x0 MSTORE PUSH1 0x32 PUSH1 0x4 MSTORE PUSH1 0x24 PUSH1 0x0 REVERT JUMPDEST PUSH1 0xE0 DUP2 MSTORE PUSH1 0x0 PUSH3 0x2AD0 PUSH1 0xE0 DUP4 ADD DUP11 PUSH3 0x2500 JUMP JUMPDEST DUP3 DUP2 SUB PUSH1 0x20 DUP5 DUP2 ADD SWAP2 SWAP1 SWAP2 MSTORE DUP10 MLOAD DUP1 DUP4 MSTORE DUP11 DUP3 ADD SWAP3 DUP3 ADD SWAP1 PUSH1 0x0 JUMPDEST DUP2 DUP2 LT ISZERO PUSH3 0x2B12 JUMPI DUP5 MLOAD PUSH1 0x1 PUSH1 0x1 PUSH1 0xA0 SHL SUB AND DUP4 MSTORE SWAP4 DUP4 ADD SWAP4 SWAP2 DUP4 ADD SWAP2 PUSH1 0x1 ADD PUSH3 0x2AEB JUMP JUMPDEST POP POP DUP5 DUP2 SUB PUSH1 0x40 DUP7 ADD MSTORE PUSH3 0x2B28 DUP2 DUP12 PUSH3 0x2500 JUMP JUMPDEST SWAP3 POP POP POP DUP3 DUP2 SUB PUSH1 0x60 DUP5 ADD MSTORE PUSH3 0x2B40 DUP2 DUP9 PUSH3 0x2500 JUMP JUMPDEST SWAP2 POP POP DUP5 PUSH1 0x80 DUP4 ADD MSTORE DUP4 PUSH1 0xA0 DUP4 ADD MSTORE PUSH3 0x2B5E PUSH1 0xC0 DUP4 ADD DUP5 ISZERO ISZERO SWAP1 MSTORE JUMP JUMPDEST SWAP9 SWAP8 POP POP POP POP POP POP POP POP JUMP JUMPDEST DUP1 DUP3 ADD DUP1 DUP3 GT ISZERO PUSH3 0x269F JUMPI PUSH3 0x269F PUSH3 0x266F JUMP INVALID PUSH2 0x140 PUSH1 0x40 MSTORE CALLVALUE DUP1 ISZERO PUSH3 0x12 JUMPI PUSH1 0x0 DUP1 REVERT JUMPDEST POP PUSH1 0x40 MLOAD PUSH3 0x18E9 CODESIZE SUB DUP1 PUSH3 0x18E9 DUP4 CODECOPY DUP2 ADD PUSH1 0x40 DUP2 SWAP1 MSTORE PUSH3 0x35 SWAP2 PUSH3 0x242 JUMP JUMPDEST PUSH1 0x40 DUP1 MLOAD DUP1 DUP3 ADD SWAP1 SWAP2 MSTORE PUSH1 0x1 DUP2 MSTORE PUSH1 0x31 PUSH1 0xF8 SHL PUSH1 0x20 DUP3 ADD MSTORE DUP3 SWAP1 DUP2 SWAP1 DUP2 DUP5 PUSH1 0x3 PUSH3 0x61 DUP4 DUP3 PUSH3 0x33B JUMP JUMPDEST POP PUSH1 0x4 PUSH3 0x70 DUP3 DUP3 PUSH3 0x33B JUMP JUMPDEST POP POP PUSH1 0x5 DUP1 SLOAD PUSH1 0xFF NOT AND SWAP1 SSTORE POP PUSH3 0x88 CALLER PUSH3 0x123 JUMP JUMPDEST DUP2 MLOAD PUSH1 0x20 DUP1 DUP5 ADD SWAP2 SWAP1 SWAP2 KECCAK256 DUP3 MLOAD DUP4 DUP4 ADD KECCAK256 PUSH1 0xE0 DUP3 SWAP1 MSTORE PUSH2 0x100 DUP2 SWAP1 MSTORE CHAINID PUSH1 0xA0 DUP2 DUP2 MSTORE PUSH1 0x40 DUP1 MLOAD PUSH32 0x8B73C3C69BB8FE3D512ECC4CF759CC79239F7B179B0FFACAA9A75D522B39400F DUP2 DUP9 ADD DUP2 SWAP1 MSTORE DUP2 DUP4 ADD DUP8 SWAP1 MSTORE PUSH1 0x60 DUP3 ADD DUP7 SWAP1 MSTORE PUSH1 0x80 DUP3 ADD SWAP5 SWAP1 SWAP5 MSTORE ADDRESS DUP2 DUP5 ADD MSTORE DUP2 MLOAD DUP1 DUP3 SUB SWAP1 SWAP4 ADD DUP4 MSTORE PUSH1 0xC0 ADD SWAP1 MSTORE DUP1 MLOAD SWAP5 ADD SWAP4 SWAP1 SWAP4 KECCAK256 SWAP2 SWAP3 SWAP1 SWAP2 PUSH1 0x80 MSTORE ADDRESS PUSH1 0xC0 MSTORE PUSH2 0x120 MSTORE POP PUSH3 0x407 SWAP6 POP POP POP POP POP POP JUMP JUMPDEST PUSH1 0x5 DUP1 SLOAD PUSH1 0x1 PUSH1 0x1 PUSH1 0xA0 SHL SUB DUP4 DUP2 AND PUSH2 0x100 DUP2 DUP2 MUL PUSH2 0x100 PUSH1 0x1 PUSH1 0xA8 SHL SUB NOT DUP6 AND OR SWAP1 SWAP5 SSTORE PUSH1 0x40 MLOAD SWAP4 SWAP1 SWAP3 DIV AND SWAP2 DUP3 SWAP1 PUSH32 0x8BE0079C531659141344CD1FD0A4F28419497F9722A3DAAFE3B4186F6B6457E0 SWAP1 PUSH1 0x0 SWAP1 LOG3 POP POP JUMP JUMPDEST PUSH4 0x4E487B71 PUSH1 0xE0 SHL PUSH1 0x0 MSTORE PUSH1 0x41 PUSH1 0x4 MSTORE PUSH1 0x24 PUSH1 0x0 REVERT JUMPDEST PUSH1 0x0 DUP3 PUSH1 0x1F DUP4 ADD SLT PUSH3 0x1A5 JUMPI PUSH1 0x0 DUP1 REVERT JUMPDEST DUP2 MLOAD PUSH1 0x1 PUSH1 0x1 PUSH1 0x40 SHL SUB DUP1 DUP3 GT ISZERO PUSH3 0x1C2 JUMPI PUSH3 0x1C2 PUSH3 0x17D JUMP JUMPDEST PUSH1 0x40 MLOAD PUSH1 0x1F DUP4 ADD PUSH1 0x1F NOT SWAP1 DUP2 AND PUSH1 0x3F ADD AND DUP2 ADD SWAP1 DUP3 DUP3 GT DUP2 DUP4 LT OR ISZERO PUSH3 0x1ED JUMPI PUSH3 0x1ED PUSH3 0x17D JUMP JUMPDEST DUP2 PUSH1 0x40 MSTORE DUP4 DUP2 MSTORE PUSH1 0x20 SWAP3 POP DUP7 DUP4 DUP6 DUP9 ADD ADD GT ISZERO PUSH3 0x20A JUMPI PUSH1 0x0 DUP1 REVERT JUMPDEST PUSH1 0x0 SWAP2 POP JUMPDEST DUP4 DUP3 LT ISZERO PUSH3 0x22E JUMPI DUP6 DUP3 ADD DUP4 ADD MLOAD DUP2 DUP4 ADD DUP5 ADD MSTORE SWAP1 DUP3 ADD SWAP1 PUSH3 0x20F JUMP JUMPDEST PUSH1 0x0 SWAP4 DUP2 ADD SWAP1 SWAP3 ADD SWAP3 SWAP1 SWAP3 MSTORE SWAP5 SWAP4 POP POP POP POP JUMP JUMPDEST PUSH1 0x0 DUP1 PUSH1 0x40 DUP4 DUP6 SUB SLT ISZERO PUSH3 0x256 JUMPI PUSH1 0x0 DUP1 REVERT JUMPDEST DUP3 MLOAD PUSH1 0x1 PUSH1 0x1 PUSH1 0x40 SHL SUB DUP1 DUP3 GT ISZERO PUSH3 0x26E JUMPI PUSH1 0x0 DUP1 REVERT JUMPDEST PUSH3 0x27C DUP7 DUP4 DUP8 ADD PUSH3 0x193 JUMP JUMPDEST SWAP4 POP PUSH1 0x20 DUP6 ADD MLOAD SWAP2 POP DUP1 DUP3 GT ISZERO PUSH3 0x293 JUMPI PUSH1 0x0 DUP1 REVERT JUMPDEST POP PUSH3 0x2A2 DUP6 DUP3 DUP7 ADD PUSH3 0x193 JUMP JUMPDEST SWAP2 POP POP SWAP3 POP SWAP3 SWAP1 POP JUMP JUMPDEST PUSH1 0x1 DUP2 DUP2 SHR SWAP1 DUP3 AND DUP1 PUSH3 0x2C1 JUMPI PUSH1 0x7F DUP3 AND SWAP2 POP JUMPDEST PUSH1 0x20 DUP3 LT DUP2 SUB PUSH3 0x2E2 JUMPI PUSH4 0x4E487B71 PUSH1 0xE0 SHL PUSH1 0x0 MSTORE PUSH1 0x22 PUSH1 0x4 MSTORE PUSH1 0x24 PUSH1 0x0 REVERT JUMPDEST POP SWAP2 SWAP1 POP JUMP JUMPDEST PUSH1 0x1F DUP3 GT ISZERO PUSH3 0x336 JUMPI PUSH1 0x0 DUP2 DUP2 MSTORE PUSH1 0x20 DUP2 KECCAK256 PUSH1 0x1F DUP6 ADD PUSH1 0x5 SHR DUP2 ADD PUSH1 0x20 DUP7 LT ISZERO PUSH3 0x311 JUMPI POP DUP1 JUMPDEST PUSH1 0x1F DUP6 ADD PUSH1 0x5 SHR DUP3 ADD SWAP2 POP JUMPDEST DUP2 DUP2 LT ISZERO PUSH3 0x332 JUMPI DUP3 DUP2 SSTORE PUSH1 0x1 ADD PUSH3 0x31D JUMP JUMPDEST POP POP POP JUMPDEST POP POP POP JUMP JUMPDEST DUP2 MLOAD PUSH1 0x1 PUSH1 0x1 PUSH1 0x40 SHL SUB DUP2 GT ISZERO PUSH3 0x357 JUMPI PUSH3 0x357 PUSH3 0x17D JUMP JUMPDEST PUSH3 0x36F DUP2 PUSH3 0x368 DUP5 SLOAD PUSH3 0x2AC JUMP JUMPDEST DUP5 PUSH3 0x2E8 JUMP JUMPDEST PUSH1 0x20 DUP1 PUSH1 0x1F DUP4 GT PUSH1 0x1 DUP2 EQ PUSH3 0x3A7 JUMPI PUSH1 0x0 DUP5 ISZERO PUSH3 0x38E JUMPI POP DUP6 DUP4 ADD MLOAD JUMPDEST PUSH1 0x0 NOT PUSH1 0x3 DUP7 SWAP1 SHL SHR NOT AND PUSH1 0x1 DUP6 SWAP1 SHL OR DUP6 SSTORE PUSH3 0x332 JUMP JUMPDEST PUSH1 0x0 DUP6 DUP2 MSTORE PUSH1 0x20 DUP2 KECCAK256 PUSH1 0x1F NOT DUP7 AND SWAP2 JUMPDEST DUP3 DUP2 LT ISZERO PUSH3 0x3D8 JUMPI DUP9 DUP7 ADD MLOAD DUP3 SSTORE SWAP5 DUP5 ADD SWAP5 PUSH1 0x1 SWAP1 SWAP2 ADD SWAP1 DUP5 ADD PUSH3 0x3B7 JUMP JUMPDEST POP DUP6 DUP3 LT ISZERO PUSH3 0x3F7 JUMPI DUP8 DUP6 ADD MLOAD PUSH1 0x0 NOT PUSH1 0x3 DUP9 SWAP1 SHL PUSH1 0xF8 AND SHR NOT AND DUP2 SSTORE JUMPDEST POP POP POP POP POP PUSH1 0x1 SWAP1 DUP2 SHL ADD SWAP1 SSTORE POP JUMP JUMPDEST PUSH1 0x80 MLOAD PUSH1 0xA0 MLOAD PUSH1 0xC0 MLOAD PUSH1 0xE0 MLOAD PUSH2 0x100 MLOAD PUSH2 0x120 MLOAD PUSH2 0x1492 PUSH3 0x457 PUSH1 0x0 CODECOPY PUSH1 0x0 PUSH2 0xB11 ADD MSTORE PUSH1 0x0 PUSH2 0xB60 ADD MSTORE PUSH1 0x0 PUSH2 0xB3B ADD MSTORE PUSH1 0x0 PUSH2 0xA94 ADD MSTORE PUSH1 0x0 PUSH2 0xABE ADD MSTORE PUSH1 0x0 PUSH2 0xAE8 ADD MSTORE PUSH2 0x1492 PUSH1 0x0 RETURN INVALID PUSH1 0x80 PUSH1 0x40 MSTORE CALLVALUE DUP1 ISZERO PUSH2 0x10 JUMPI PUSH1 0x0 DUP1 REVERT JUMPDEST POP PUSH1 0x4 CALLDATASIZE LT PUSH2 0x14D JUMPI PUSH1 0x0 CALLDATALOAD PUSH1 0xE0 SHR DUP1 PUSH4 0x70A08231 GT PUSH2 0xC3 JUMPI DUP1 PUSH4 0x95D89B41 GT PUSH2 0x7C JUMPI DUP1 PUSH4 0x95D89B41 EQ PUSH2 0x2A5 JUMPI DUP1 PUSH4 0xA457C2D7 EQ PUSH2 0x2AD JUMPI DUP1 PUSH4 0xA9059CBB EQ PUSH2 0x2C0 JUMPI DUP1 PUSH4 0xD505ACCF EQ PUSH2 0x2D3 JUMPI DUP1 PUSH4 0xDD62ED3E EQ PUSH2 0x2E6 JUMPI DUP1 PUSH4 0xF2FDE38B EQ PUSH2 0x2F9 JUMPI PUSH1 0x0 DUP1 REVERT JUMPDEST DUP1 PUSH4 0x70A08231 EQ PUSH2 0x21D JUMPI DUP1 PUSH4 0x715018A6 EQ PUSH2 0x246 JUMPI DUP1 PUSH4 0x79CC6790 EQ PUSH2 0x24E JUMPI DUP1 PUSH4 0x7ECEBE00 EQ PUSH2 0x261 JUMPI DUP1 PUSH4 0x8456CB59 EQ PUSH2 0x274 JUMPI DUP1 PUSH4 0x8DA5CB5B EQ PUSH2 0x27C JUMPI PUSH1 0x0 DUP1 REVERT JUMPDEST DUP1 PUSH4 0x3644E515 GT PUSH2 0x115 JUMPI DUP1 PUSH4 0x3644E515 EQ PUSH2 0x1C7 JUMPI DUP1 PUSH4 0x39509351 EQ PUSH2 0x1CF JUMPI DUP1 PUSH4 0x3F4BA83A EQ PUSH2 0x1E2 JUMPI DUP1 PUSH4 0x40C10F19 EQ PUSH2 0x1EC JUMPI DUP1 PUSH4 0x42966C68 EQ PUSH2 0x1FF JUMPI DUP1 PUSH4 0x5C975ABB EQ PUSH2 0x212 JUMPI PUSH1 0x0 DUP1 REVERT JUMPDEST DUP1 PUSH4 0x6FDDE03 EQ PUSH2 0x152 JUMPI DUP1 PUSH4 0x95EA7B3 EQ PUSH2 0x170 JUMPI DUP1 PUSH4 0x18160DDD EQ PUSH2 0x193 JUMPI DUP1 PUSH4 0x23B872DD EQ PUSH2 0x1A5 JUMPI DUP1 PUSH4 0x313CE567 EQ PUSH2 0x1B8 JUMPI JUMPDEST PUSH1 0x0 DUP1 REVERT JUMPDEST PUSH2 0x15A PUSH2 0x30C JUMP JUMPDEST PUSH1 0x40 MLOAD PUSH2 0x167 SWAP2 SWAP1 PUSH2 0x1240 JUMP JUMPDEST PUSH1 0x40 MLOAD DUP1 SWAP2 SUB SWAP1 RETURN JUMPDEST PUSH2 0x183 PUSH2 0x17E CALLDATASIZE PUSH1 0x4 PUSH2 0x12AA JUMP JUMPDEST PUSH2 0x39E JUMP JUMPDEST PUSH1 0x40 MLOAD SWAP1 ISZERO ISZERO DUP2 MSTORE PUSH1 0x20 ADD PUSH2 0x167 JUMP JUMPDEST PUSH1 0x2 SLOAD JUMPDEST PUSH1 0x40 MLOAD SWAP1 DUP2 MSTORE PUSH1 0x20 ADD PUSH2 0x167 JUMP JUMPDEST PUSH2 0x183 PUSH2 0x1B3 CALLDATASIZE PUSH1 0x4 PUSH2 0x12D4 JUMP JUMPDEST PUSH2 0x3B8 JUMP JUMPDEST PUSH1 0x40 MLOAD PUSH1 0x12 DUP2 MSTORE PUSH1 0x20 ADD PUSH2 0x167 JUMP JUMPDEST PUSH2 0x197 PUSH2 0x3DC JUMP JUMPDEST PUSH2 0x183 PUSH2 0x1DD CALLDATASIZE PUSH1 0x4 PUSH2 0x12AA JUMP JUMPDEST PUSH2 0x3EB JUMP JUMPDEST PUSH2 0x1EA PUSH2 0x40D JUMP JUMPDEST STOP JUMPDEST PUSH2 0x1EA PUSH2 0x1FA CALLDATASIZE PUSH1 0x4 PUSH2 0x12AA JUMP JUMPDEST PUSH2 0x41F JUMP JUMPDEST PUSH2 0x1EA PUSH2 0x20D CALLDATASIZE PUSH1 0x4 PUSH2 0x1310 JUMP JUMPDEST PUSH2 0x435 JUMP JUMPDEST PUSH1 0x5 SLOAD PUSH1 0xFF AND PUSH2 0x183 JUMP JUMPDEST PUSH2 0x197 PUSH2 0x22B CALLDATASIZE PUSH1 0x4 PUSH2 0x1329 JUMP JUMPDEST PUSH1 0x1 PUSH1 0x1 PUSH1 0xA0 SHL SUB AND PUSH1 0x0 SWAP1 DUP2 MSTORE PUSH1 0x20 DUP2 SWAP1 MSTORE PUSH1 0x40 SWAP1 KECCAK256 SLOAD SWAP1 JUMP JUMPDEST PUSH2 0x1EA PUSH2 0x442 JUMP JUMPDEST PUSH2 0x1EA PUSH2 0x25C CALLDATASIZE PUSH1 0x4 PUSH2 0x12AA JUMP JUMPDEST PUSH2 0x454 JUMP JUMPDEST PUSH2 0x197 PUSH2 0x26F CALLDATASIZE PUSH1 0x4 PUSH2 0x1329 JUMP JUMPDEST PUSH2 0x469 JUMP JUMPDEST PUSH2 0x1EA PUSH2 0x487 JUMP JUMPDEST PUSH1 0x5 SLOAD PUSH2 0x100 SWAP1 DIV PUSH1 0x1 PUSH1 0x1 PUSH1 0xA0 SHL SUB AND PUSH1 0x40 MLOAD PUSH1 0x1 PUSH1 0x1 PUSH1 0xA0 SHL SUB SWAP1 SWAP2 AND DUP2 MSTORE PUSH1 0x20 ADD PUSH2 0x167 JUMP JUMPDEST PUSH2 0x15A PUSH2 0x497 JUMP JUMPDEST PUSH2 0x183 PUSH2 0x2BB CALLDATASIZE PUSH1 0x4 PUSH2 0x12AA JUMP JUMPDEST PUSH2 0x4A6 JUMP JUMPDEST PUSH2 0x183 PUSH2 0x2CE CALLDATASIZE PUSH1 0x4 PUSH2 0x12AA JUMP JUMPDEST PUSH2 0x526 JUMP JUMPDEST PUSH2 0x1EA PUSH2 0x2E1 CALLDATASIZE PUSH1 0x4 PUSH2 0x134B JUMP JUMPDEST PUSH2 0x534 JUMP JUMPDEST PUSH2 0x197 PUSH2 0x2F4 CALLDATASIZE PUSH1 0x4 PUSH2 0x13BE JUMP JUMPDEST PUSH2 0x698 JUMP JUMPDEST PUSH2 0x1EA PUSH2 0x307 CALLDATASIZE PUSH1 0x4 PUSH2 0x1329 JUMP JUMPDEST PUSH2 0x6C3 JUMP JUMPDEST PUSH1 0x60 PUSH1 0x3 DUP1 SLOAD PUSH2 0x31B SWAP1 PUSH2 0x13F1 JUMP JUMPDEST DUP1 PUSH1 0x1F ADD PUSH1 0x20 DUP1 SWAP2 DIV MUL PUSH1 0x20 ADD PUSH1 0x40 MLOAD SWAP1 DUP2 ADD PUSH1 0x40 MSTORE DUP1 SWAP3 SWAP2 SWAP1 DUP2 DUP2 MSTORE PUSH1 0x20 ADD DUP3 DUP1 SLOAD PUSH2 0x347 SWAP1 PUSH2 0x13F1 JUMP JUMPDEST DUP1 ISZERO PUSH2 0x394 JUMPI DUP1 PUSH1 0x1F LT PUSH2 0x369 JUMPI PUSH2 0x100 DUP1 DUP4 SLOAD DIV MUL DUP4 MSTORE SWAP2 PUSH1 0x20 ADD SWAP2 PUSH2 0x394 JUMP JUMPDEST DUP3 ADD SWAP2 SWAP1 PUSH1 0x0 MSTORE PUSH1 0x20 PUSH1 0x0 KECCAK256 SWAP1 JUMPDEST DUP2 SLOAD DUP2 MSTORE SWAP1 PUSH1 0x1 ADD SWAP1 PUSH1 0x20 ADD DUP1 DUP4 GT PUSH2 0x377 JUMPI DUP3 SWAP1 SUB PUSH1 0x1F AND DUP3 ADD SWAP2 JUMPDEST POP POP POP POP POP SWAP1 POP SWAP1 JUMP JUMPDEST PUSH1 0x0 CALLER PUSH2 0x3AC DUP2 DUP6 DUP6 PUSH2 0x739 JUMP JUMPDEST PUSH1 0x1 SWAP2 POP POP JUMPDEST SWAP3 SWAP2 POP POP JUMP JUMPDEST PUSH1 0x0 CALLER PUSH2 0x3C6 DUP6 DUP3 DUP6 PUSH2 0x85E JUMP JUMPDEST PUSH2 0x3D1 DUP6 DUP6 DUP6 PUSH2 0x8D8 JUMP JUMPDEST POP PUSH1 0x1 SWAP5 SWAP4 POP POP POP POP JUMP JUMPDEST PUSH1 0x0 PUSH2 0x3E6 PUSH2 0xA87 JUMP JUMPDEST SWAP1 POP SWAP1 JUMP JUMPDEST PUSH1 0x0 CALLER PUSH2 0x3AC DUP2 DUP6 DUP6 PUSH2 0x3FE DUP4 DUP4 PUSH2 0x698 JUMP JUMPDEST PUSH2 0x408 SWAP2 SWAP1 PUSH2 0x1425 JUMP JUMPDEST PUSH2 0x739 JUMP JUMPDEST PUSH2 0x415 PUSH2 0xBAE JUMP JUMPDEST PUSH2 0x41D PUSH2 0xC0E JUMP JUMPDEST JUMP JUMPDEST PUSH2 0x427 PUSH2 0xBAE JUMP JUMPDEST PUSH2 0x431 DUP3 DUP3 PUSH2 0xC60 JUMP JUMPDEST POP POP JUMP JUMPDEST PUSH2 0x43F CALLER DUP3 PUSH2 0xD2B JUMP JUMPDEST POP JUMP JUMPDEST PUSH2 0x44A PUSH2 0xBAE JUMP JUMPDEST PUSH2 0x41D PUSH1 0x0 PUSH2 0xE61 JUMP JUMPDEST PUSH2 0x45F DUP3 CALLER DUP4 PUSH2 0x85E JUMP JUMPDEST PUSH2 0x431 DUP3 DUP3 PUSH2 0xD2B JUMP JUMPDEST PUSH1 0x1 PUSH1 0x1 PUSH1 0xA0 SHL SUB DUP2 AND PUSH1 0x0 SWAP1 DUP2 MSTORE PUSH1 0x6 PUSH1 0x20 MSTORE PUSH1 0x40 DUP2 KECCAK256 SLOAD PUSH2 0x3B2 JUMP JUMPDEST PUSH2 0x48F PUSH2 0xBAE JUMP JUMPDEST PUSH2 0x41D PUSH2 0xEBB JUMP JUMPDEST PUSH1 0x60 PUSH1 0x4 DUP1 SLOAD PUSH2 0x31B SWAP1 PUSH2 0x13F1 JUMP JUMPDEST PUSH1 0x0 CALLER DUP2 PUSH2 0x4B4 DUP3 DUP7 PUSH2 0x698 JUMP JUMPDEST SWAP1 POP DUP4 DUP2 LT ISZERO PUSH2 0x519 JUMPI PUSH1 0x40 MLOAD PUSH3 0x461BCD PUSH1 0xE5 SHL DUP2 MSTORE PUSH1 0x20 PUSH1 0x4 DUP3 ADD MSTORE PUSH1 0x25 PUSH1 0x24 DUP3 ADD MSTORE PUSH32 0x45524332303A2064656372656173656420616C6C6F77616E63652062656C6F77 PUSH1 0x44 DUP3 ADD MSTORE PUSH5 0x207A65726F PUSH1 0xD8 SHL PUSH1 0x64 DUP3 ADD MSTORE PUSH1 0x84 ADD JUMPDEST PUSH1 0x40 MLOAD DUP1 SWAP2 SUB SWAP1 REVERT JUMPDEST PUSH2 0x3D1 DUP3 DUP7 DUP7 DUP5 SUB PUSH2 0x739 JUMP JUMPDEST PUSH1 0x0 CALLER PUSH2 0x3AC DUP2 DUP6 DUP6 PUSH2 0x8D8 JUMP JUMPDEST DUP4 TIMESTAMP GT ISZERO PUSH2 0x584 JUMPI PUSH1 0x40 MLOAD PUSH3 0x461BCD PUSH1 0xE5 SHL DUP2 MSTORE PUSH1 0x20 PUSH1 0x4 DUP3 ADD MSTORE PUSH1 0x1D PUSH1 0x24 DUP3 ADD MSTORE PUSH32 0x45524332305065726D69743A206578706972656420646561646C696E65000000 PUSH1 0x44 DUP3 ADD MSTORE PUSH1 0x64 ADD PUSH2 0x510 JUMP JUMPDEST PUSH1 0x0 PUSH32 0x6E71EDAE12B1B97F4D1F60370FEF10105FA2FAAE0126114A169C64845D6126C9 DUP9 DUP9 DUP9 PUSH2 0x5B3 DUP13 PUSH2 0xEF8 JUMP JUMPDEST PUSH1 0x40 DUP1 MLOAD PUSH1 0x20 DUP2 ADD SWAP7 SWAP1 SWAP7 MSTORE PUSH1 0x1 PUSH1 0x1 PUSH1 0xA0 SHL SUB SWAP5 DUP6 AND SWAP1 DUP7 ADD MSTORE SWAP3 SWAP1 SWAP2 AND PUSH1 0x60 DUP5 ADD MSTORE PUSH1 0x80 DUP4 ADD MSTORE PUSH1 0xA0 DUP3 ADD MSTORE PUSH1 0xC0 DUP2 ADD DUP7 SWAP1 MSTORE PUSH1 0xE0 ADD PUSH1 0x40 MLOAD PUSH1 0x20 DUP2 DUP4 SUB SUB DUP2 MSTORE SWAP1 PUSH1 0x40 MSTORE DUP1 MLOAD SWAP1 PUSH1 0x20 ADD KECCAK256 SWAP1 POP PUSH1 0x0 PUSH2 0x60E DUP3 PUSH2 0xF20 JUMP JUMPDEST SWAP1 POP PUSH1 0x0 PUSH2 0x61E DUP3 DUP8 DUP8 DUP8 PUSH2 0xF6E JUMP JUMPDEST SWAP1 POP DUP10 PUSH1 0x1 PUSH1 0x1 PUSH1 0xA0 SHL SUB AND DUP2 PUSH1 0x1 PUSH1 0x1 PUSH1 0xA0 SHL SUB AND EQ PUSH2 0x681 JUMPI PUSH1 0x40 MLOAD PUSH3 0x461BCD PUSH1 0xE5 SHL DUP2 MSTORE PUSH1 0x20 PUSH1 0x4 DUP3 ADD MSTORE PUSH1 0x1E PUSH1 0x24 DUP3 ADD MSTORE PUSH32 0x45524332305065726D69743A20696E76616C6964207369676E61747572650000 PUSH1 0x44 DUP3 ADD MSTORE PUSH1 0x64 ADD PUSH2 0x510 JUMP JUMPDEST PUSH2 0x68C DUP11 DUP11 DUP11 PUSH2 0x739 JUMP JUMPDEST POP POP POP POP POP POP POP POP POP POP JUMP JUMPDEST PUSH1 0x1 PUSH1 0x1 PUSH1 0xA0 SHL SUB SWAP2 DUP3 AND PUSH1 0x0 SWAP1 DUP2 MSTORE PUSH1 0x1 PUSH1 0x20 SWAP1 DUP2 MSTORE PUSH1 0x40 DUP1 DUP4 KECCAK256 SWAP4 SWAP1 SWAP5 AND DUP3 MSTORE SWAP2 SWAP1 SWAP2 MSTORE KECCAK256 SLOAD SWAP1 JUMP JUMPDEST PUSH2 0x6CB PUSH2 0xBAE JUMP JUMPDEST PUSH1 0x1 PUSH1 0x1 PUSH1 0xA0 SHL SUB DUP2 AND PUSH2 0x730 JUMPI PUSH1 0x40 MLOAD PUSH3 0x461BCD PUSH1 0xE5 SHL DUP2 MSTORE PUSH1 0x20 PUSH1 0x4 DUP3 ADD MSTORE PUSH1 0x26 PUSH1 0x24 DUP3 ADD MSTORE PUSH32 0x4F776E61626C653A206E6577206F776E657220697320746865207A65726F2061 PUSH1 0x44 DUP3 ADD MSTORE PUSH6 0x646472657373 PUSH1 0xD0 SHL PUSH1 0x64 DUP3 ADD MSTORE PUSH1 0x84 ADD PUSH2 0x510 JUMP JUMPDEST PUSH2 0x43F DUP2 PUSH2 0xE61 JUMP JUMPDEST PUSH1 0x1 PUSH1 0x1 PUSH1 0xA0 SHL SUB DUP4 AND PUSH2 0x79B JUMPI PUSH1 0x40 MLOAD PUSH3 0x461BCD PUSH1 0xE5 SHL DUP2 MSTORE PUSH1 0x20 PUSH1 0x4 DUP3 ADD MSTORE PUSH1 0x24 DUP1 DUP3 ADD MSTORE PUSH32 0x45524332303A20617070726F76652066726F6D20746865207A65726F20616464 PUSH1 0x44 DUP3 ADD MSTORE PUSH4 0x72657373 PUSH1 0xE0 SHL PUSH1 0x64 DUP3 ADD MSTORE PUSH1 0x84 ADD PUSH2 0x510 JUMP JUMPDEST PUSH1 0x1 PUSH1 0x1 PUSH1 0xA0 SHL SUB DUP3 AND PUSH2 0x7FC JUMPI PUSH1 0x40 MLOAD PUSH3 0x461BCD PUSH1 0xE5 SHL DUP2 MSTORE PUSH1 0x20 PUSH1 0x4 DUP3 ADD MSTORE PUSH1 0x22 PUSH1 0x24 DUP3 ADD MSTORE PUSH32 0x45524332303A20617070726F766520746F20746865207A65726F206164647265 PUSH1 0x44 DUP3 ADD MSTORE PUSH2 0x7373 PUSH1 0xF0 SHL PUSH1 0x64 DUP3 ADD MSTORE PUSH1 0x84 ADD PUSH2 0x510 JUMP JUMPDEST PUSH1 0x1 PUSH1 0x1 PUSH1 0xA0 SHL SUB DUP4 DUP2 AND PUSH1 0x0 DUP2 DUP2 MSTORE PUSH1 0x1 PUSH1 0x20 SWAP1 DUP2 MSTORE PUSH1 0x40 DUP1 DUP4 KECCAK256 SWAP5 DUP8 AND DUP1 DUP5 MSTORE SWAP5 DUP3 MSTORE SWAP2 DUP3 SWAP1 KECCAK256 DUP6 SWAP1 SSTORE SWAP1 MLOAD DUP5 DUP2 MSTORE PUSH32 0x8C5BE1E5EBEC7D5BD14F71427D1E84F3DD0314C0F7B2291E5B200AC8C7C3B925 SWAP2 ADD JUMPDEST PUSH1 0x40 MLOAD DUP1 SWAP2 SUB SWAP1 LOG3 POP POP POP JUMP JUMPDEST PUSH1 0x0 PUSH2 0x86A DUP5 DUP5 PUSH2 0x698 JUMP JUMPDEST SWAP1 POP PUSH1 0x0 NOT DUP2 EQ PUSH2 0x8D2 JUMPI DUP2 DUP2 LT ISZERO PUSH2 0x8C5 JUMPI PUSH1 0x40 MLOAD PUSH3 0x461BCD PUSH1 0xE5 SHL DUP2 MSTORE PUSH1 0x20 PUSH1 0x4 DUP3 ADD MSTORE PUSH1 0x1D PUSH1 0x24 DUP3 ADD MSTORE PUSH32 0x45524332303A20696E73756666696369656E7420616C6C6F77616E6365000000 PUSH1 0x44 DUP3 ADD MSTORE PUSH1 0x64 ADD PUSH2 0x510 JUMP JUMPDEST PUSH2 0x8D2 DUP5 DUP5 DUP5 DUP5 SUB PUSH2 0x739 JUMP JUMPDEST POP POP POP POP JUMP JUMPDEST PUSH1 0x1 PUSH1 0x1 PUSH1 0xA0 SHL SUB DUP4 AND PUSH2 0x93C JUMPI PUSH1 0x40 MLOAD PUSH3 0x461BCD PUSH1 0xE5 SHL DUP2 MSTORE PUSH1 0x20 PUSH1 0x4 DUP3 ADD MSTORE PUSH1 0x25 PUSH1 0x24 DUP3 ADD MSTORE PUSH32 0x45524332303A207472616E736665722066726F6D20746865207A65726F206164 PUSH1 0x44 DUP3 ADD MSTORE PUSH5 0x6472657373 PUSH1 0xD8 SHL PUSH1 0x64 DUP3 ADD MSTORE PUSH1 0x84 ADD PUSH2 0x510 JUMP JUMPDEST PUSH1 0x1 PUSH1 0x1 PUSH1 0xA0 SHL SUB DUP3 AND PUSH2 0x99E JUMPI PUSH1 0x40 MLOAD PUSH3 0x461BCD PUSH1 0xE5 SHL DUP2 MSTORE PUSH1 0x20 PUSH1 0x4 DUP3 ADD MSTORE PUSH1 0x23 PUSH1 0x24 DUP3 ADD MSTORE PUSH32 0x45524332303A207472616E7366657220746F20746865207A65726F2061646472 PUSH1 0x44 DUP3 ADD MSTORE PUSH3 0x657373 PUSH1 0xE8 SHL PUSH1 0x64 DUP3 ADD MSTORE PUSH1 0x84 ADD PUSH2 0x510 JUMP JUMPDEST PUSH2 0x9A9 DUP4 DUP4 DUP4 PUSH2 0xF96 JUMP JUMPDEST PUSH1 0x1 PUSH1 0x1 PUSH1 0xA0 SHL SUB DUP4 AND PUSH1 0x0 SWAP1 DUP2 MSTORE PUSH1 0x20 DUP2 SWAP1 MSTORE PUSH1 0x40 SWAP1 KECCAK256 SLOAD DUP2 DUP2 LT ISZERO PUSH2 0xA21 JUMPI PUSH1 0x40 MLOAD PUSH3 0x461BCD PUSH1 0xE5 SHL DUP2 MSTORE PUSH1 0x20 PUSH1 0x4 DUP3 ADD MSTORE PUSH1 0x26 PUSH1 0x24 DUP3 ADD MSTORE PUSH32 0x45524332303A207472616E7366657220616D6F756E7420657863656564732062 PUSH1 0x44 DUP3 ADD MSTORE PUSH6 0x616C616E6365 PUSH1 0xD0 SHL PUSH1 0x64 DUP3 ADD MSTORE PUSH1 0x84 ADD PUSH2 0x510 JUMP JUMPDEST PUSH1 0x1 PUSH1 0x1 PUSH1 0xA0 SHL SUB DUP5 DUP2 AND PUSH1 0x0 DUP2 DUP2 MSTORE PUSH1 0x20 DUP2 DUP2 MSTORE PUSH1 0x40 DUP1 DUP4 KECCAK256 DUP8 DUP8 SUB SWAP1 SSTORE SWAP4 DUP8 AND DUP1 DUP4 MSTORE SWAP2 DUP5 SWAP1 KECCAK256 DUP1 SLOAD DUP8 ADD SWAP1 SSTORE SWAP3 MLOAD DUP6 DUP2 MSTORE SWAP1 SWAP3 PUSH32 0xDDF252AD1BE2C89B69C2B068FC378DAA952BA7F163C4A11628F55A4DF523B3EF SWAP2 ADD PUSH1 0x40 MLOAD DUP1 SWAP2 SUB SWAP1 LOG3 PUSH2 0x8D2 JUMP JUMPDEST PUSH1 0x0 ADDRESS PUSH1 0x1 PUSH1 0x1 PUSH1 0xA0 SHL SUB PUSH32 0x0 AND EQ DUP1 ISZERO PUSH2 0xAE0 JUMPI POP PUSH32 0x0 CHAINID EQ JUMPDEST ISZERO PUSH2 0xB0A JUMPI POP PUSH32 0x0 SWAP1 JUMP JUMPDEST POP PUSH1 0x40 DUP1 MLOAD PUSH32 0x0 PUSH1 0x20 DUP1 DUP4 ADD SWAP2 SWAP1 SWAP2 MSTORE PUSH32 0x0 DUP3 DUP5 ADD MSTORE PUSH32 0x0 PUSH1 0x60 DUP4 ADD MSTORE CHAINID PUSH1 0x80 DUP4 ADD MSTORE ADDRESS PUSH1 0xA0 DUP1 DUP5 ADD SWAP2 SWAP1 SWAP2 MSTORE DUP4 MLOAD DUP1 DUP5 SUB SWAP1 SWAP2 ADD DUP2 MSTORE PUSH1 0xC0 SWAP1 SWAP3 ADD SWAP1 SWAP3 MSTORE DUP1 MLOAD SWAP2 ADD KECCAK256 SWAP1 JUMP JUMPDEST PUSH1 0x5 SLOAD PUSH1 0x1 PUSH1 0x1 PUSH1 0xA0 SHL SUB PUSH2 0x100 SWAP1 SWAP2 DIV AND CALLER EQ PUSH2 0x41D JUMPI PUSH1 0x40 MLOAD PUSH3 0x461BCD PUSH1 0xE5 SHL DUP2 MSTORE PUSH1 0x20 PUSH1 0x4 DUP3 ADD DUP2 SWAP1 MSTORE PUSH1 0x24 DUP3 ADD MSTORE PUSH32 0x4F776E61626C653A2063616C6C6572206973206E6F7420746865206F776E6572 PUSH1 0x44 DUP3 ADD MSTORE PUSH1 0x64 ADD PUSH2 0x510 JUMP JUMPDEST PUSH2 0xC16 PUSH2 0xFA3 JUMP JUMPDEST PUSH1 0x5 DUP1 SLOAD PUSH1 0xFF NOT AND SWAP1 SSTORE PUSH32 0x5DB9EE0A495BF2E6FF9C91A7834C1BA4FDD244A5E8AA4E537BD38AEAE4B073AA CALLER JUMPDEST PUSH1 0x40 MLOAD PUSH1 0x1 PUSH1 0x1 PUSH1 0xA0 SHL SUB SWAP1 SWAP2 AND DUP2 MSTORE PUSH1 0x20 ADD PUSH1 0x40 MLOAD DUP1 SWAP2 SUB SWAP1 LOG1 JUMP JUMPDEST PUSH1 0x1 PUSH1 0x1 PUSH1 0xA0 SHL SUB DUP3 AND PUSH2 0xCB6 JUMPI PUSH1 0x40 MLOAD PUSH3 0x461BCD PUSH1 0xE5 SHL DUP2 MSTORE PUSH1 0x20 PUSH1 0x4 DUP3 ADD MSTORE PUSH1 0x1F PUSH1 0x24 DUP3 ADD MSTORE PUSH32 0x45524332303A206D696E7420746F20746865207A65726F206164647265737300 PUSH1 0x44 DUP3 ADD MSTORE PUSH1 0x64 ADD PUSH2 0x510 JUMP JUMPDEST PUSH2 0xCC2 PUSH1 0x0 DUP4 DUP4 PUSH2 0xF96 JUMP JUMPDEST DUP1 PUSH1 0x2 PUSH1 0x0 DUP3 DUP3 SLOAD PUSH2 0xCD4 SWAP2 SWAP1 PUSH2 0x1425 JUMP JUMPDEST SWAP1 SWAP2 SSTORE POP POP PUSH1 0x1 PUSH1 0x1 PUSH1 0xA0 SHL SUB DUP3 AND PUSH1 0x0 DUP2 DUP2 MSTORE PUSH1 0x20 DUP2 DUP2 MSTORE PUSH1 0x40 DUP1 DUP4 KECCAK256 DUP1 SLOAD DUP7 ADD SWAP1 SSTORE MLOAD DUP5 DUP2 MSTORE PUSH32 0xDDF252AD1BE2C89B69C2B068FC378DAA952BA7F163C4A11628F55A4DF523B3EF SWAP2 ADD PUSH1 0x40 MLOAD DUP1 SWAP2 SUB SWAP1 LOG3 POP POP JUMP JUMPDEST PUSH1 0x1 PUSH1 0x1 PUSH1 0xA0 SHL SUB DUP3 AND PUSH2 0xD8B JUMPI PUSH1 0x40 MLOAD PUSH3 0x461BCD PUSH1 0xE5 SHL DUP2 MSTORE PUSH1 0x20 PUSH1 0x4 DUP3 ADD MSTORE PUSH1 0x21 PUSH1 0x24 DUP3 ADD MSTORE PUSH32 0x45524332303A206275726E2066726F6D20746865207A65726F20616464726573 PUSH1 0x44 DUP3 ADD MSTORE PUSH1 0x73 PUSH1 0xF8 SHL PUSH1 0x64 DUP3 ADD MSTORE PUSH1 0x84 ADD PUSH2 0x510 JUMP JUMPDEST PUSH2 0xD97 DUP3 PUSH1 0x0 DUP4 PUSH2 0xF96 JUMP JUMPDEST PUSH1 0x1 PUSH1 0x1 PUSH1 0xA0 SHL SUB DUP3 AND PUSH1 0x0 SWAP1 DUP2 MSTORE PUSH1 0x20 DUP2 SWAP1 MSTORE PUSH1 0x40 SWAP1 KECCAK256 SLOAD DUP2 DUP2 LT ISZERO PUSH2 0xE0B JUMPI PUSH1 0x40 MLOAD PUSH3 0x461BCD PUSH1 0xE5 SHL DUP2 MSTORE PUSH1 0x20 PUSH1 0x4 DUP3 ADD MSTORE PUSH1 0x22 PUSH1 0x24 DUP3 ADD MSTORE PUSH32 0x45524332303A206275726E20616D6F756E7420657863656564732062616C616E PUSH1 0x44 DUP3 ADD MSTORE PUSH2 0x6365 PUSH1 0xF0 SHL PUSH1 0x64 DUP3 ADD MSTORE PUSH1 0x84 ADD PUSH2 0x510 JUMP JUMPDEST PUSH1 0x1 PUSH1 0x1 PUSH1 0xA0 SHL SUB DUP4 AND PUSH1 0x0 DUP2 DUP2 MSTORE PUSH1 0x20 DUP2 DUP2 MSTORE PUSH1 0x40 DUP1 DUP4 KECCAK256 DUP7 DUP7 SUB SWAP1 SSTORE PUSH1 0x2 DUP1 SLOAD DUP8 SWAP1 SUB SWAP1 SSTORE MLOAD DUP6 DUP2 MSTORE SWAP2 SWAP3 SWAP2 PUSH32 0xDDF252AD1BE2C89B69C2B068FC378DAA952BA7F163C4A11628F55A4DF523B3EF SWAP2 ADD PUSH2 0x851 JUMP JUMPDEST PUSH1 0x5 DUP1 SLOAD PUSH1 0x1 PUSH1 0x1 PUSH1 0xA0 SHL SUB DUP4 DUP2 AND PUSH2 0x100 DUP2 DUP2 MUL PUSH2 0x100 PUSH1 0x1 PUSH1 0xA8 SHL SUB NOT DUP6 AND OR SWAP1 SWAP5 SSTORE PUSH1 0x40 MLOAD SWAP4 SWAP1 SWAP3 DIV AND SWAP2 DUP3 SWAP1 PUSH32 0x8BE0079C531659141344CD1FD0A4F28419497F9722A3DAAFE3B4186F6B6457E0 SWAP1 PUSH1 0x0 SWAP1 LOG3 POP POP JUMP JUMPDEST PUSH2 0xEC3 PUSH2 0xFEC JUMP JUMPDEST PUSH1 0x5 DUP1 SLOAD PUSH1 0xFF NOT AND PUSH1 0x1 OR SWAP1 SSTORE PUSH32 0x62E78CEA01BEE320CD4E420270B5EA74000D11B0C9F74754EBDBFC544B05A258 PUSH2 0xC43 CALLER SWAP1 JUMP JUMPDEST PUSH1 0x1 PUSH1 0x1 PUSH1 0xA0 SHL SUB DUP2 AND PUSH1 0x0 SWAP1 DUP2 MSTORE PUSH1 0x6 PUSH1 0x20 MSTORE PUSH1 0x40 SWAP1 KECCAK256 DUP1 SLOAD PUSH1 0x1 DUP2 ADD DUP3 SSTORE SWAP1 JUMPDEST POP SWAP2 SWAP1 POP JUMP JUMPDEST PUSH1 0x0 PUSH2 0x3B2 PUSH2 0xF2D PUSH2 0xA87 JUMP JUMPDEST DUP4 PUSH1 0x40 MLOAD PUSH2 0x1901 PUSH1 0xF0 SHL PUSH1 0x20 DUP3 ADD MSTORE PUSH1 0x22 DUP2 ADD DUP4 SWAP1 MSTORE PUSH1 0x42 DUP2 ADD DUP3 SWAP1 MSTORE PUSH1 0x0 SWAP1 PUSH1 0x62 ADD PUSH1 0x40 MLOAD PUSH1 0x20 DUP2 DUP4 SUB SUB DUP2 MSTORE SWAP1 PUSH1 0x40 MSTORE DUP1 MLOAD SWAP1 PUSH1 0x20 ADD KECCAK256 SWAP1 POP SWAP3 SWAP2 POP POP JUMP JUMPDEST PUSH1 0x0 DUP1 PUSH1 0x0 PUSH2 0xF7F DUP8 DUP8 DUP8 DUP8 PUSH2 0x1032 JUMP JUMPDEST SWAP2 POP SWAP2 POP PUSH2 0xF8C DUP2 PUSH2 0x10F6 JUMP JUMPDEST POP SWAP6 SWAP5 POP POP POP POP POP JUMP JUMPDEST PUSH2 0xF9E PUSH2 0xFEC JUMP JUMPDEST POP POP POP JUMP JUMPDEST PUSH1 0x5 SLOAD PUSH1 0xFF AND PUSH2 0x41D JUMPI PUSH1 0x40 MLOAD PUSH3 0x461BCD PUSH1 0xE5 SHL DUP2 MSTORE PUSH1 0x20 PUSH1 0x4 DUP3 ADD MSTORE PUSH1 0x14 PUSH1 0x24 DUP3 ADD MSTORE PUSH20 0x14185D5CD8589B194E881B9BDD081C185D5CD959 PUSH1 0x62 SHL PUSH1 0x44 DUP3 ADD MSTORE PUSH1 0x64 ADD PUSH2 0x510 JUMP JUMPDEST PUSH1 0x5 SLOAD PUSH1 0xFF AND ISZERO PUSH2 0x41D JUMPI PUSH1 0x40 MLOAD PUSH3 0x461BCD PUSH1 0xE5 SHL DUP2 MSTORE PUSH1 0x20 PUSH1 0x4 DUP3 ADD MSTORE PUSH1 0x10 PUSH1 0x24 DUP3 ADD MSTORE PUSH16 0x14185D5CD8589B194E881C185D5CD959 PUSH1 0x82 SHL PUSH1 0x44 DUP3 ADD MSTORE PUSH1 0x64 ADD PUSH2 0x510 JUMP JUMPDEST PUSH1 0x0 DUP1 PUSH32 0x7FFFFFFFFFFFFFFFFFFFFFFFFFFFFFFF5D576E7357A4501DDFE92F46681B20A0 DUP4 GT ISZERO PUSH2 0x1069 JUMPI POP PUSH1 0x0 SWAP1 POP PUSH1 0x3 PUSH2 0x10ED JUMP JUMPDEST PUSH1 0x40 DUP1 MLOAD PUSH1 0x0 DUP1 DUP3 MSTORE PUSH1 0x20 DUP3 ADD DUP1 DUP5 MSTORE DUP10 SWAP1 MSTORE PUSH1 0xFF DUP9 AND SWAP3 DUP3 ADD SWAP3 SWAP1 SWAP3 MSTORE PUSH1 0x60 DUP2 ADD DUP7 SWAP1 MSTORE PUSH1 0x80 DUP2 ADD DUP6 SWAP1 MSTORE PUSH1 0x1 SWAP1 PUSH1 0xA0 ADD PUSH1 0x20 PUSH1 0x40 MLOAD PUSH1 0x20 DUP2 SUB SWAP1 DUP1 DUP5 SUB SWAP1 DUP6 GAS STATICCALL ISZERO DUP1 ISZERO PUSH2 0x10BD JUMPI RETURNDATASIZE PUSH1 0x0 DUP1 RETURNDATACOPY RETURNDATASIZE PUSH1 0x0 REVERT JUMPDEST POP POP PUSH1 0x40 MLOAD PUSH1 0x1F NOT ADD MLOAD SWAP2 POP POP PUSH1 0x1 PUSH1 0x1 PUSH1 0xA0 SHL SUB DUP2 AND PUSH2 0x10E6 JUMPI PUSH1 0x0 PUSH1 0x1 SWAP3 POP SWAP3 POP POP PUSH2 0x10ED JUMP JUMPDEST SWAP2 POP PUSH1 0x0 SWAP1 POP JUMPDEST SWAP5 POP SWAP5 SWAP3 POP POP POP JUMP JUMPDEST PUSH1 0x0 DUP2 PUSH1 0x4 DUP2 GT ISZERO PUSH2 0x110A JUMPI PUSH2 0x110A PUSH2 0x1446 JUMP JUMPDEST SUB PUSH2 0x1112 JUMPI POP JUMP JUMPDEST PUSH1 0x1 DUP2 PUSH1 0x4 DUP2 GT ISZERO PUSH2 0x1126 JUMPI PUSH2 0x1126 PUSH2 0x1446 JUMP JUMPDEST SUB PUSH2 0x1173 JUMPI PUSH1 0x40 MLOAD PUSH3 0x461BCD PUSH1 0xE5 SHL DUP2 MSTORE PUSH1 0x20 PUSH1 0x4 DUP3 ADD MSTORE PUSH1 0x18 PUSH1 0x24 DUP3 ADD MSTORE PUSH32 0x45434453413A20696E76616C6964207369676E61747572650000000000000000 PUSH1 0x44 DUP3 ADD MSTORE PUSH1 0x64 ADD PUSH2 0x510 JUMP JUMPDEST PUSH1 0x2 DUP2 PUSH1 0x4 DUP2 GT ISZERO PUSH2 0x1187 JUMPI PUSH2 0x1187 PUSH2 0x1446 JUMP JUMPDEST SUB PUSH2 0x11D4 JUMPI PUSH1 0x40 MLOAD PUSH3 0x461BCD PUSH1 0xE5 SHL DUP2 MSTORE PUSH1 0x20 PUSH1 0x4 DUP3 ADD MSTORE PUSH1 0x1F PUSH1 0x24 DUP3 ADD MSTORE PUSH32 0x45434453413A20696E76616C6964207369676E6174757265206C656E67746800 PUSH1 0x44 DUP3 ADD MSTORE PUSH1 0x64 ADD PUSH2 0x510 JUMP JUMPDEST PUSH1 0x3 DUP2 PUSH1 0x4 DUP2 GT ISZERO PUSH2 0x11E8 JUMPI PUSH2 0x11E8 PUSH2 0x1446 JUMP JUMPDEST SUB PUSH2 0x43F JUMPI PUSH1 0x40 MLOAD PUSH3 0x461BCD PUSH1 0xE5 SHL DUP2 MSTORE PUSH1 0x20 PUSH1 0x4 DUP3 ADD MSTORE PUSH1 0x22 PUSH1 0x24 DUP3 ADD MSTORE PUSH32 0x45434453413A20696E76616C6964207369676E6174757265202773272076616C PUSH1 0x44 DUP3 ADD MSTORE PUSH2 0x7565 PUSH1 0xF0 SHL PUSH1 0x64 DUP3 ADD MSTORE PUSH1 0x84 ADD PUSH2 0x510 JUMP JUMPDEST PUSH1 0x0 PUSH1 0x20 DUP1 DUP4 MSTORE DUP4 MLOAD DUP1 DUP3 DUP6 ADD MSTORE PUSH1 0x0 JUMPDEST DUP2 DUP2 LT ISZERO PUSH2 0x126D JUMPI DUP6 DUP2 ADD DUP4 ADD MLOAD DUP6 DUP3 ADD PUSH1 0x40 ADD MSTORE DUP3 ADD PUSH2 0x1251 JUMP JUMPDEST POP PUSH1 0x0 PUSH1 0x40 DUP3 DUP7 ADD ADD MSTORE PUSH1 0x40 PUSH1 0x1F NOT PUSH1 0x1F DUP4 ADD AND DUP6 ADD ADD SWAP3 POP POP POP SWAP3 SWAP2 POP POP JUMP JUMPDEST DUP1 CALLDATALOAD PUSH1 0x1 PUSH1 0x1 PUSH1 0xA0 SHL SUB DUP2 AND DUP2 EQ PUSH2 0x12A5 JUMPI PUSH1 0x0 DUP1 REVERT JUMPDEST SWAP2 SWAP1 POP JUMP JUMPDEST PUSH1 0x0 DUP1 PUSH1 0x40 DUP4 DUP6 SUB SLT ISZERO PUSH2 0x12BD JUMPI PUSH1 0x0 DUP1 REVERT JUMPDEST PUSH2 0x12C6 DUP4 PUSH2 0x128E JUMP JUMPDEST SWAP5 PUSH1 0x20 SWAP4 SWAP1 SWAP4 ADD CALLDATALOAD SWAP4 POP POP POP JUMP JUMPDEST PUSH1 0x0 DUP1 PUSH1 0x0 PUSH1 0x60 DUP5 DUP7 SUB SLT ISZERO PUSH2 0x12E9 JUMPI PUSH1 0x0 DUP1 REVERT JUMPDEST PUSH2 0x12F2 DUP5 PUSH2 0x128E JUMP JUMPDEST SWAP3 POP PUSH2 0x1300 PUSH1 0x20 DUP6 ADD PUSH2 0x128E JUMP JUMPDEST SWAP2 POP PUSH1 0x40 DUP5 ADD CALLDATALOAD SWAP1 POP SWAP3 POP SWAP3 POP SWAP3 JUMP JUMPDEST PUSH1 0x0 PUSH1 0x20 DUP3 DUP5 SUB SLT ISZERO PUSH2 0x1322 JUMPI PUSH1 0x0 DUP1 REVERT JUMPDEST POP CALLDATALOAD SWAP2 SWAP1 POP JUMP JUMPDEST PUSH1 0x0 PUSH1 0x20 DUP3 DUP5 SUB SLT ISZERO PUSH2 0x133B JUMPI PUSH1 0x0 DUP1 REVERT JUMPDEST PUSH2 0x1344 DUP3 PUSH2 0x128E JUMP JUMPDEST SWAP4 SWAP3 POP POP POP JUMP JUMPDEST PUSH1 0x0 DUP1 PUSH1 0x0 DUP1 PUSH1 0x0 DUP1 PUSH1 0x0 PUSH1 0xE0 DUP9 DUP11 SUB SLT ISZERO PUSH2 0x1366 JUMPI PUSH1 0x0 DUP1 REVERT JUMPDEST PUSH2 0x136F DUP9 PUSH2 0x128E JUMP JUMPDEST SWAP7 POP PUSH2 0x137D PUSH1 0x20 DUP10 ADD PUSH2 0x128E JUMP JUMPDEST SWAP6 POP PUSH1 0x40 DUP9 ADD CALLDATALOAD SWAP5 POP PUSH1 0x60 DUP9 ADD CALLDATALOAD SWAP4 POP PUSH1 0x80 DUP9 ADD CALLDATALOAD PUSH1 0xFF DUP2 AND DUP2 EQ PUSH2 0x13A1 JUMPI PUSH1 0x0 DUP1 REVERT JUMPDEST SWAP7 SWAP10 SWAP6 SWAP9 POP SWAP4 SWAP7 SWAP3 SWAP6 SWAP5 PUSH1 0xA0 DUP5 ADD CALLDATALOAD SWAP5 POP PUSH1 0xC0 SWAP1 SWAP4 ADD CALLDATALOAD SWAP3 SWAP2 POP POP JUMP JUMPDEST PUSH1 0x0 DUP1 PUSH1 0x40 DUP4 DUP6 SUB SLT ISZERO PUSH2 0x13D1 JUMPI PUSH1 0x0 DUP1 REVERT JUMPDEST PUSH2 0x13DA DUP4 PUSH2 0x128E JUMP JUMPDEST SWAP2 POP PUSH2 0x13E8 PUSH1 0x20 DUP5 ADD PUSH2 0x128E JUMP JUMPDEST SWAP1 POP SWAP3 POP SWAP3 SWAP1 POP JUMP JUMPDEST PUSH1 0x1 DUP2 DUP2 SHR SWAP1 DUP3 AND DUP1 PUSH2 0x1405 JUMPI PUSH1 0x7F DUP3 AND SWAP2 POP JUMPDEST PUSH1 0x20 DUP3 LT DUP2 SUB PUSH2 0xF1A JUMPI PUSH4 0x4E487B71 PUSH1 0xE0 SHL PUSH1 0x0 MSTORE PUSH1 0x22 PUSH1 0x4 MSTORE PUSH1 0x24 PUSH1 0x0 REVERT JUMPDEST DUP1 DUP3 ADD DUP1 DUP3 GT ISZERO PUSH2 0x3B2 JUMPI PUSH4 0x4E487B71 PUSH1 0xE0 SHL PUSH1 0x0 MSTORE PUSH1 0x11 PUSH1 0x4 MSTORE PUSH1 0x24 PUSH1 0x0 REVERT JUMPDEST PUSH4 0x4E487B71 PUSH1 0xE0 SHL PUSH1 0x0 MSTORE PUSH1 0x21 PUSH1 0x4 MSTORE PUSH1 0x24 PUSH1 0x0 REVERT INVALID LOG2 PUSH5 0x6970667358 0x22 SLT KECCAK256 0x2F SLOAD 0x4B SGT 0xDC 0x28 PUSH23 0x2326CED10B1F1261C42F9CB2048F9D5AF5F1F097C74676 SWAP1 0x5F PUSH5 0x736F6C6343 STOP ADDMOD SLT STOP CALLER LOG2 PUSH5 0x6970667358 0x22 SLT KECCAK256 PUSH6 0x7AC91C680DE0 0xA5 SWAP13 0x5C PUSH2 0x3E81 0xB7 0xB6 PC MULMOD MUL SWAP4 DUP4 0xE9 DUP7 PUSH7 0xE8A2A85B7D0BAE 0xD9 0xE5 PUSH5 0x736F6C6343 STOP ADDMOD SLT STOP CALLER "
		},
		"gasEstimates": {
			"creation": {
				"codeDepositCost": "3513400",
				"executionCost": "51880",
				"totalCost": "3565280"
			},
			"external": {
				"contribute(bytes)": "infinite",
				"createNewPool(bytes)": "infinite",
				"newCollatTAgreement(bytes)": "infinite",
				"owner()": "2301",
				"pools(uint256)": "infinite",
				"poolsCollatTSchedules(uint256,uint256)": "8969",
				"renounceOwnership()": "infinite",
				"settings()": "10923",
				"tracker()": "2408",
				"transferOwnership(address)": "infinite",
				"withdraw(bytes)": "infinite"
			},
			"internal": {
				"_checkIsManagerOf(uint256)": "infinite",
				"_connect(address,string memory,bytes memory)": "infinite",
				"_getNetAssetValueOf(bytes memory)": "infinite"
			}
		},
		"methodIdentifiers": {
			"contribute(bytes)": "44090c6c",
			"createNewPool(bytes)": "420f0bf0",
			"newCollatTAgreement(bytes)": "1913a276",
			"owner()": "8da5cb5b",
			"pools(uint256)": "ac4afa38",
			"poolsCollatTSchedules(uint256,uint256)": "a6e07de3",
			"renounceOwnership()": "715018a6",
			"settings()": "e06174e4",
			"tracker()": "f52bccad",
			"transferOwnership(address)": "f2fde38b",
			"withdraw(bytes)": "0968f264"
		}
	},
	"abi": [
		{
			"inputs": [],
			"stateMutability": "nonpayable",
			"type": "constructor"
		},
		{
			"anonymous": false,
			"inputs": [
				{
					"indexed": true,
					"internalType": "address",
					"name": "contributor",
					"type": "address"
				},
				{
					"indexed": false,
					"internalType": "string",
					"name": "name",
					"type": "string"
				},
				{
					"indexed": false,
					"internalType": "uint256",
					"name": "contribution",
					"type": "uint256"
				},
				{
					"indexed": false,
					"internalType": "uint256",
					"name": "amountMinted",
					"type": "uint256"
				}
			],
			"name": "Contribution",
			"type": "event"
		},
		{
			"anonymous": false,
			"inputs": [
				{
					"indexed": true,
					"internalType": "address",
					"name": "creator",
					"type": "address"
				},
				{
					"indexed": false,
					"internalType": "string",
					"name": "name",
					"type": "string"
				},
				{
					"indexed": false,
					"internalType": "address[]",
					"name": "managers",
					"type": "address[]"
				},
				{
					"indexed": false,
					"internalType": "string",
					"name": "nameToken",
					"type": "string"
				},
				{
					"indexed": false,
					"internalType": "string",
					"name": "symbolToken",
					"type": "string"
				},
				{
					"indexed": false,
					"internalType": "uint256",
					"name": "durationSeconds",
					"type": "uint256"
				},
				{
					"indexed": false,
					"internalType": "uint256",
					"name": "requiredInMatic",
					"type": "uint256"
				},
				{
					"indexed": false,
					"internalType": "bool",
					"name": "isWhitelisted",
					"type": "bool"
				}
			],
			"name": "NewPoolCreated",
			"type": "event"
		},
		{
			"anonymous": false,
			"inputs": [
				{
					"indexed": true,
					"internalType": "address",
					"name": "previousOwner",
					"type": "address"
				},
				{
					"indexed": true,
					"internalType": "address",
					"name": "newOwner",
					"type": "address"
				}
			],
			"name": "OwnershipTransferred",
			"type": "event"
		},
		{
			"anonymous": false,
			"inputs": [
				{
					"indexed": true,
					"internalType": "address",
					"name": "withdrawer",
					"type": "address"
				},
				{
					"indexed": false,
					"internalType": "string",
					"name": "name",
					"type": "string"
				},
				{
					"indexed": false,
					"internalType": "uint256",
					"name": "amountBurnt",
					"type": "uint256"
				},
				{
					"indexed": false,
					"internalType": "uint256",
					"name": "withdraw",
					"type": "uint256"
				}
			],
			"name": "Withdrawal",
			"type": "event"
		},
		{
			"inputs": [
				{
					"internalType": "bytes",
					"name": "args",
					"type": "bytes"
				}
			],
			"name": "contribute",
			"outputs": [
				{
					"internalType": "bool",
					"name": "",
					"type": "bool"
				}
			],
			"stateMutability": "payable",
			"type": "function"
		},
		{
			"inputs": [
				{
					"internalType": "bytes",
					"name": "args",
					"type": "bytes"
				}
			],
			"name": "createNewPool",
			"outputs": [
				{
					"internalType": "bool",
					"name": "",
					"type": "bool"
				}
			],
			"stateMutability": "payable",
			"type": "function"
		},
		{
			"inputs": [
				{
					"internalType": "bytes",
					"name": "args",
					"type": "bytes"
				}
			],
			"name": "newCollatTAgreement",
			"outputs": [
				{
					"internalType": "bool",
					"name": "",
					"type": "bool"
				}
			],
			"stateMutability": "payable",
			"type": "function"
		},
		{
			"inputs": [],
			"name": "owner",
			"outputs": [
				{
					"internalType": "address",
					"name": "",
					"type": "address"
				}
			],
			"stateMutability": "view",
			"type": "function"
		},
		{
			"inputs": [
				{
					"internalType": "uint256",
					"name": "",
					"type": "uint256"
				}
			],
			"name": "pools",
			"outputs": [
				{
					"internalType": "uint256",
					"name": "id",
					"type": "uint256"
				},
				{
					"internalType": "string",
					"name": "name",
					"type": "string"
				},
				{
					"components": [
						{
							"internalType": "uint256",
							"name": "startTimestamp",
							"type": "uint256"
						},
						{
							"internalType": "uint256",
							"name": "durationSeconds",
							"type": "uint256"
						},
						{
							"internalType": "uint256",
							"name": "requiredInMatic",
							"type": "uint256"
						},
						{
							"internalType": "bool",
							"name": "isWhitelisted",
							"type": "bool"
						},
						{
							"internalType": "bool",
							"name": "success",
							"type": "bool"
						}
					],
					"internalType": "struct SingleState.InitialFundingSchedule",
					"name": "initialFundingSchedule",
					"type": "tuple"
				},
				{
					"internalType": "contract SimpleToken",
					"name": "simpleToken",
					"type": "address"
				},
				{
					"internalType": "uint256",
					"name": "numberOfCollatTSchedules",
					"type": "uint256"
				},
				{
					"internalType": "uint256",
					"name": "nav",
					"type": "uint256"
				},
				{
					"internalType": "uint256",
					"name": "balanceInMatic",
					"type": "uint256"
				}
			],
			"stateMutability": "view",
			"type": "function"
		},
		{
			"inputs": [
				{
					"internalType": "uint256",
					"name": "",
					"type": "uint256"
				},
				{
					"internalType": "uint256",
					"name": "",
					"type": "uint256"
				}
			],
			"name": "poolsCollatTSchedules",
			"outputs": [
				{
					"internalType": "uint256",
					"name": "startTimestamp",
					"type": "uint256"
				},
				{
					"internalType": "uint256",
					"name": "remainingTime",
					"type": "uint256"
				},
				{
					"internalType": "uint256",
					"name": "collateralInMatic",
					"type": "uint256"
				},
				{
					"internalType": "bool",
					"name": "complete",
					"type": "bool"
				}
			],
			"stateMutability": "view",
			"type": "function"
		},
		{
			"inputs": [],
			"name": "renounceOwnership",
			"outputs": [],
			"stateMutability": "nonpayable",
			"type": "function"
		},
		{
			"inputs": [],
			"name": "settings",
			"outputs": [
				{
					"internalType": "uint256",
					"name": "priceToCreateNewPool",
					"type": "uint256"
				},
				{
					"internalType": "uint256",
					"name": "feeToContribute",
					"type": "uint256"
				},
				{
					"internalType": "uint256",
					"name": "feeToWithdraw",
					"type": "uint256"
				},
				{
					"internalType": "address",
					"name": "dreamToken",
					"type": "address"
				},
				{
					"internalType": "address",
					"name": "safe",
					"type": "address"
				}
			],
			"stateMutability": "view",
			"type": "function"
		},
		{
			"inputs": [],
			"name": "tracker",
			"outputs": [
				{
					"internalType": "uint256",
					"name": "numberOfPools",
					"type": "uint256"
				}
			],
			"stateMutability": "view",
			"type": "function"
		},
		{
			"inputs": [
				{
					"internalType": "address",
					"name": "newOwner",
					"type": "address"
				}
			],
			"name": "transferOwnership",
			"outputs": [],
			"stateMutability": "nonpayable",
			"type": "function"
		},
		{
			"inputs": [
				{
					"internalType": "bytes",
					"name": "args",
					"type": "bytes"
				}
			],
			"name": "withdraw",
			"outputs": [
				{
					"internalType": "bool",
					"name": "",
					"type": "bool"
				}
			],
			"stateMutability": "nonpayable",
			"type": "function"
		}
	]
}