{
	"blockchain/contracts/Polygon/Pool/Prototype/pool/state.sol": {
		"State": {
			"abi": [
				{
					"inputs": [
						{
							"internalType": "address",
							"name": "_logic",
							"type": "address"
						},
						{
							"internalType": "address",
							"name": "_creator",
							"type": "address"
						},
						{
							"internalType": "address",
							"name": "_governor",
							"type": "address"
						},
						{
							"internalType": "string",
							"name": "_name",
							"type": "string"
						},
						{
							"internalType": "uint256",
							"name": "_duration",
							"type": "uint256"
						},
						{
							"internalType": "uint256",
							"name": "_required",
							"type": "uint256"
						},
						{
							"internalType": "bool",
							"name": "_whitelisted",
							"type": "bool"
						}
					],
					"stateMutability": "nonpayable",
					"type": "constructor"
				},
				{
					"anonymous": false,
					"inputs": [
						{
							"indexed": true,
							"internalType": "address",
							"name": "_logic",
							"type": "address"
						},
						{
							"indexed": true,
							"internalType": "address",
							"name": "_creator",
							"type": "address"
						},
						{
							"indexed": true,
							"internalType": "address",
							"name": "_governor",
							"type": "address"
						},
						{
							"indexed": false,
							"internalType": "string",
							"name": "_name",
							"type": "string"
						},
						{
							"indexed": false,
							"internalType": "uint256",
							"name": "_inception",
							"type": "uint256"
						},
						{
							"indexed": false,
							"internalType": "uint256",
							"name": "_funding_round_end",
							"type": "uint256"
						},
						{
							"indexed": false,
							"internalType": "uint256",
							"name": "_required",
							"type": "uint256"
						},
						{
							"indexed": false,
							"internalType": "bool",
							"name": "_whitelisted",
							"type": "bool"
						}
					],
					"name": "PoolCreated",
					"type": "event"
				},
				{
					"anonymous": false,
					"inputs": [
						{
							"indexed": true,
							"internalType": "address",
							"name": "_new_logic",
							"type": "address"
						},
						{
							"indexed": true,
							"internalType": "address",
							"name": "_new_creator",
							"type": "address"
						},
						{
							"indexed": true,
							"internalType": "address",
							"name": "_new_governor",
							"type": "address"
						}
					],
					"name": "UpdateToAuthenticator",
					"type": "event"
				},
				{
					"anonymous": false,
					"inputs": [
						{
							"indexed": false,
							"internalType": "uint256",
							"name": "_start",
							"type": "uint256"
						},
						{
							"indexed": false,
							"internalType": "uint256",
							"name": "_end",
							"type": "uint256"
						},
						{
							"indexed": false,
							"internalType": "uint256",
							"name": "_required",
							"type": "uint256"
						},
						{
							"indexed": false,
							"internalType": "bool",
							"name": "_whitelisted",
							"type": "bool"
						},
						{
							"indexed": false,
							"internalType": "bool",
							"name": "_success",
							"type": "bool"
						}
					],
					"name": "UpdateToLaunch",
					"type": "event"
				},
				{
					"anonymous": false,
					"inputs": [
						{
							"indexed": true,
							"internalType": "address",
							"name": "_address",
							"type": "address"
						},
						{
							"indexed": false,
							"internalType": "bool",
							"name": "_is_manager",
							"type": "bool"
						},
						{
							"indexed": false,
							"internalType": "bool",
							"name": "_is_on_whitelist",
							"type": "bool"
						},
						{
							"indexed": false,
							"internalType": "uint256",
							"name": "_flux",
							"type": "uint256"
						}
					],
					"name": "UpdateToProfile",
					"type": "event"
				},
				{
					"anonymous": false,
					"inputs": [
						{
							"indexed": false,
							"internalType": "uint256",
							"name": "_start",
							"type": "uint256"
						},
						{
							"indexed": false,
							"internalType": "uint256",
							"name": "_end",
							"type": "uint256"
						}
					],
					"name": "UpdateToYield",
					"type": "event"
				},
				{
					"inputs": [],
					"name": "pull_authenticator",
					"outputs": [
						{
							"internalType": "address",
							"name": "",
							"type": "address"
						},
						{
							"internalType": "address",
							"name": "",
							"type": "address"
						},
						{
							"internalType": "address",
							"name": "",
							"type": "address"
						}
					],
					"stateMutability": "view",
					"type": "function"
				},
				{
					"inputs": [],
					"name": "pull_launch",
					"outputs": [
						{
							"internalType": "uint256",
							"name": "",
							"type": "uint256"
						},
						{
							"internalType": "uint256",
							"name": "",
							"type": "uint256"
						},
						{
							"internalType": "uint256",
							"name": "",
							"type": "uint256"
						},
						{
							"internalType": "bool",
							"name": "",
							"type": "bool"
						},
						{
							"internalType": "bool",
							"name": "",
							"type": "bool"
						}
					],
					"stateMutability": "view",
					"type": "function"
				},
				{
					"inputs": [
						{
							"internalType": "address",
							"name": "_address",
							"type": "address"
						}
					],
					"name": "pull_profile",
					"outputs": [
						{
							"internalType": "bool",
							"name": "",
							"type": "bool"
						},
						{
							"internalType": "bool",
							"name": "",
							"type": "bool"
						},
						{
							"internalType": "uint256",
							"name": "",
							"type": "uint256"
						}
					],
					"stateMutability": "view",
					"type": "function"
				},
				{
					"inputs": [],
					"name": "pull_yield",
					"outputs": [
						{
							"internalType": "uint256",
							"name": "",
							"type": "uint256"
						},
						{
							"internalType": "uint256",
							"name": "",
							"type": "uint256"
						}
					],
					"stateMutability": "view",
					"type": "function"
				},
				{
					"inputs": [
						{
							"internalType": "address",
							"name": "_logic",
							"type": "address"
						},
						{
							"internalType": "address",
							"name": "_creator",
							"type": "address"
						},
						{
							"internalType": "address",
							"name": "_governor",
							"type": "address"
						}
					],
					"name": "push_authenticator",
					"outputs": [],
					"stateMutability": "nonpayable",
					"type": "function"
				},
				{
					"inputs": [
						{
							"internalType": "uint256",
							"name": "_start",
							"type": "uint256"
						},
						{
							"internalType": "uint256",
							"name": "_end",
							"type": "uint256"
						},
						{
							"internalType": "uint256",
							"name": "_required",
							"type": "uint256"
						},
						{
							"internalType": "bool",
							"name": "_whitelisted",
							"type": "bool"
						},
						{
							"internalType": "bool",
							"name": "_success",
							"type": "bool"
						}
					],
					"name": "push_launch",
					"outputs": [],
					"stateMutability": "nonpayable",
					"type": "function"
				},
				{
					"inputs": [
						{
							"internalType": "address",
							"name": "_address",
							"type": "address"
						},
						{
							"internalType": "bool",
							"name": "_is_manager",
							"type": "bool"
						},
						{
							"internalType": "bool",
							"name": "_is_on_whitelist",
							"type": "bool"
						},
						{
							"internalType": "uint256",
							"name": "_flux",
							"type": "uint256"
						}
					],
					"name": "push_profile",
					"outputs": [],
					"stateMutability": "nonpayable",
					"type": "function"
				},
				{
					"inputs": [
						{
							"internalType": "uint256",
							"name": "_start",
							"type": "uint256"
						},
						{
							"internalType": "uint256",
							"name": "_end",
							"type": "uint256"
						}
					],
					"name": "push_yield",
					"outputs": [],
					"stateMutability": "nonpayable",
					"type": "function"
				},
				{
					"inputs": [
						{
							"internalType": "uint256",
							"name": "_value_in_wei",
							"type": "uint256"
						}
					],
					"name": "withdraw",
					"outputs": [],
					"stateMutability": "nonpayable",
					"type": "function"
				}
			],
			"devdoc": {
				"kind": "dev",
				"methods": {},
				"version": 1
			},
			"evm": {
				"assembly": "    /* \"blockchain/contracts/Polygon/Pool/Prototype/pool/state.sol\":2505:6981  contract State is IState, Safety, Authenticator {... */\n  mstore(0x40, 0x80)\n    /* \"blockchain/contracts/Polygon/Pool/Prototype/pool/state.sol\":3000:4013  constructor(... */\n  callvalue\n  dup1\n  iszero\n  tag_1\n  jumpi\n  0x00\n  dup1\n  revert\ntag_1:\n  pop\n  mload(0x40)\n  sub(codesize, bytecodeSize)\n  dup1\n  bytecodeSize\n  dup4\n  codecopy\n  dup2\n  dup2\n  add\n  0x40\n  mstore\n  dup2\n  add\n  swap1\n  tag_2\n  swap2\n  swap1\n  tag_3\n  jump\t// in\ntag_2:\n    /* \"blockchain/contracts/Polygon/Pool/Prototype/pool/state.sol\":3247:3248  0 */\n  0x00\n    /* \"blockchain/contracts/Polygon/Pool/Prototype/pool/state.sol\":3234:3243  _duration */\n  dup4\n    /* \"blockchain/contracts/Polygon/Pool/Prototype/pool/state.sol\":3234:3248  _duration >= 0 */\n  lt\n  iszero\n    /* \"blockchain/contracts/Polygon/Pool/Prototype/pool/state.sol\":3226:3249  require(_duration >= 0) */\n  tag_6\n  jumpi\n  0x00\n  dup1\n  revert\ntag_6:\n    /* \"blockchain/contracts/Polygon/Pool/Prototype/pool/state.sol\":3280:3281  0 */\n  0x00\n    /* \"blockchain/contracts/Polygon/Pool/Prototype/pool/state.sol\":3267:3276  _required */\n  dup3\n    /* \"blockchain/contracts/Polygon/Pool/Prototype/pool/state.sol\":3267:3281  _required >= 0 */\n  lt\n  iszero\n    /* \"blockchain/contracts/Polygon/Pool/Prototype/pool/state.sol\":3259:3282  require(_required >= 0) */\n  tag_7\n  jumpi\n  0x00\n  dup1\n  revert\ntag_7:\n    /* \"blockchain/contracts/Polygon/Pool/Prototype/pool/state.sol\":3312:3319  1 weeks */\n  0x093a80\n    /* \"blockchain/contracts/Polygon/Pool/Prototype/pool/state.sol\":3300:3309  _duration */\n  dup4\n    /* \"blockchain/contracts/Polygon/Pool/Prototype/pool/state.sol\":3300:3319  _duration >=1 weeks */\n  lt\n  iszero\n    /* \"blockchain/contracts/Polygon/Pool/Prototype/pool/state.sol\":3292:3320  require(_duration >=1 weeks) */\n  tag_8\n  jumpi\n  0x00\n  dup1\n  revert\ntag_8:\n    /* \"blockchain/contracts/Polygon/Pool/Prototype/pool/state.sol\":3350:3357  9 weeks */\n  0x530e80\n    /* \"blockchain/contracts/Polygon/Pool/Prototype/pool/state.sol\":3338:3347  _duration */\n  dup4\n    /* \"blockchain/contracts/Polygon/Pool/Prototype/pool/state.sol\":3338:3357  _duration <=9 weeks */\n  gt\n  iszero\n    /* \"blockchain/contracts/Polygon/Pool/Prototype/pool/state.sol\":3330:3358  require(_duration <=9 weeks) */\n  tag_9\n  jumpi\n  0x00\n  dup1\n  revert\ntag_9:\n    /* \"blockchain/contracts/Polygon/Pool/Prototype/pool/state.sol\":3369:3381  uint256 _now */\n  0x00\n    /* \"blockchain/contracts/Polygon/Pool/Prototype/pool/state.sol\":3391:3406  block.timestamp */\n  timestamp\n    /* \"blockchain/contracts/Polygon/Pool/Prototype/pool/state.sol\":3369:3406  uint256 _now         =block.timestamp */\n  swap1\n  pop\n    /* \"blockchain/contracts/Polygon/Pool/Prototype/pool/state.sol\":3438:3442  _now */\n  dup1\n    /* \"blockchain/contracts/Polygon/Pool/Prototype/pool/state.sol\":3416:3422  launch */\n  0x07\n    /* \"blockchain/contracts/Polygon/Pool/Prototype/pool/state.sol\":3416:3428  launch.start */\n  0x00\n  add\n    /* \"blockchain/contracts/Polygon/Pool/Prototype/pool/state.sol\":3416:3442  launch.start         =_now */\n  dup2\n  swap1\n  sstore\n  pop\n    /* \"blockchain/contracts/Polygon/Pool/Prototype/pool/state.sol\":3480:3489  _duration */\n  dup4\n    /* \"blockchain/contracts/Polygon/Pool/Prototype/pool/state.sol\":3474:3478  _now */\n  dup2\n    /* \"blockchain/contracts/Polygon/Pool/Prototype/pool/state.sol\":3474:3489  _now +_duration */\n  tag_10\n  swap2\n  swap1\n  tag_11\n  jump\t// in\ntag_10:\n    /* \"blockchain/contracts/Polygon/Pool/Prototype/pool/state.sol\":3452:3458  launch */\n  0x07\n    /* \"blockchain/contracts/Polygon/Pool/Prototype/pool/state.sol\":3452:3462  launch.end */\n  0x01\n  add\n    /* \"blockchain/contracts/Polygon/Pool/Prototype/pool/state.sol\":3452:3489  launch.end           =_now +_duration */\n  dup2\n  swap1\n  sstore\n  pop\n    /* \"blockchain/contracts/Polygon/Pool/Prototype/pool/state.sol\":3521:3530  _required */\n  dup3\n    /* \"blockchain/contracts/Polygon/Pool/Prototype/pool/state.sol\":3499:3505  launch */\n  0x07\n    /* \"blockchain/contracts/Polygon/Pool/Prototype/pool/state.sol\":3499:3514  launch.required */\n  0x02\n  add\n    /* \"blockchain/contracts/Polygon/Pool/Prototype/pool/state.sol\":3499:3530  launch.required      =_required */\n  dup2\n  swap1\n  sstore\n  pop\n    /* \"blockchain/contracts/Polygon/Pool/Prototype/pool/state.sol\":3562:3574  _whitelisted */\n  dup2\n    /* \"blockchain/contracts/Polygon/Pool/Prototype/pool/state.sol\":3540:3546  launch */\n  0x07\n    /* \"blockchain/contracts/Polygon/Pool/Prototype/pool/state.sol\":3540:3558  launch.whitelisted */\n  0x03\n  add\n  0x00\n    /* \"blockchain/contracts/Polygon/Pool/Prototype/pool/state.sol\":3540:3574  launch.whitelisted   =_whitelisted */\n  0x0100\n  exp\n  dup2\n  sload\n  dup2\n  0xff\n  mul\n  not\n  and\n  swap1\n  dup4\n  iszero\n  iszero\n  mul\n  or\n  swap1\n  sstore\n  pop\n    /* \"blockchain/contracts/Polygon/Pool/Prototype/pool/state.sol\":3609:3610  0 */\n  0x00\n    /* \"blockchain/contracts/Polygon/Pool/Prototype/pool/state.sol\":3597:3606  _required */\n  dup4\n    /* \"blockchain/contracts/Polygon/Pool/Prototype/pool/state.sol\":3597:3610  _required ==0 */\n  sub\n    /* \"blockchain/contracts/Polygon/Pool/Prototype/pool/state.sol\":3593:3635  if (_required ==0) {launch.success =true;} */\n  tag_12\n  jumpi\n    /* \"blockchain/contracts/Polygon/Pool/Prototype/pool/state.sol\":3629:3633  true */\n  0x01\n    /* \"blockchain/contracts/Polygon/Pool/Prototype/pool/state.sol\":3613:3619  launch */\n  0x07\n    /* \"blockchain/contracts/Polygon/Pool/Prototype/pool/state.sol\":3613:3627  launch.success */\n  0x03\n  add\n  0x01\n    /* \"blockchain/contracts/Polygon/Pool/Prototype/pool/state.sol\":3613:3633  launch.success =true */\n  0x0100\n  exp\n  dup2\n  sload\n  dup2\n  0xff\n  mul\n  not\n  and\n  swap1\n  dup4\n  iszero\n  iszero\n  mul\n  or\n  swap1\n  sstore\n  pop\n    /* \"blockchain/contracts/Polygon/Pool/Prototype/pool/state.sol\":3593:3635  if (_required ==0) {launch.success =true;} */\ntag_12:\n    /* \"blockchain/contracts/Polygon/Pool/Prototype/pool/state.sol\":3670:3671  0 */\n  0x00\n    /* \"blockchain/contracts/Polygon/Pool/Prototype/pool/state.sol\":3653:3672  _logic !=address(0) */\n  0xffffffffffffffffffffffffffffffffffffffff\n  and\n    /* \"blockchain/contracts/Polygon/Pool/Prototype/pool/state.sol\":3653:3659  _logic */\n  dup9\n    /* \"blockchain/contracts/Polygon/Pool/Prototype/pool/state.sol\":3653:3672  _logic !=address(0) */\n  0xffffffffffffffffffffffffffffffffffffffff\n  and\n  sub\n    /* \"blockchain/contracts/Polygon/Pool/Prototype/pool/state.sol\":3645:3673  require(_logic !=address(0)) */\n  tag_13\n  jumpi\n  0x00\n  dup1\n  revert\ntag_13:\n    /* \"blockchain/contracts/Polygon/Pool/Prototype/pool/state.sol\":3710:3711  0 */\n  0x00\n    /* \"blockchain/contracts/Polygon/Pool/Prototype/pool/state.sol\":3691:3712  _creator !=address(0) */\n  0xffffffffffffffffffffffffffffffffffffffff\n  and\n    /* \"blockchain/contracts/Polygon/Pool/Prototype/pool/state.sol\":3691:3699  _creator */\n  dup8\n    /* \"blockchain/contracts/Polygon/Pool/Prototype/pool/state.sol\":3691:3712  _creator !=address(0) */\n  0xffffffffffffffffffffffffffffffffffffffff\n  and\n  sub\n    /* \"blockchain/contracts/Polygon/Pool/Prototype/pool/state.sol\":3683:3713  require(_creator !=address(0)) */\n  tag_14\n  jumpi\n  0x00\n  dup1\n  revert\ntag_14:\n    /* \"blockchain/contracts/Polygon/Pool/Prototype/pool/state.sol\":3734:3740  _logic */\n  dup8\n    /* \"blockchain/contracts/Polygon/Pool/Prototype/pool/state.sol\":3724:3729  logic */\n  0x00\n  0x01\n    /* \"blockchain/contracts/Polygon/Pool/Prototype/pool/state.sol\":3724:3740  logic    =_logic */\n  0x0100\n  exp\n  dup2\n  sload\n  dup2\n  0xffffffffffffffffffffffffffffffffffffffff\n  mul\n  not\n  and\n  swap1\n  dup4\n  0xffffffffffffffffffffffffffffffffffffffff\n  and\n  mul\n  or\n  swap1\n  sstore\n  pop\n    /* \"blockchain/contracts/Polygon/Pool/Prototype/pool/state.sol\":3760:3768  _creator */\n  dup7\n    /* \"blockchain/contracts/Polygon/Pool/Prototype/pool/state.sol\":3750:3757  creator */\n  0x01\n  0x00\n    /* \"blockchain/contracts/Polygon/Pool/Prototype/pool/state.sol\":3750:3768  creator  =_creator */\n  0x0100\n  exp\n  dup2\n  sload\n  dup2\n  0xffffffffffffffffffffffffffffffffffffffff\n  mul\n  not\n  and\n  swap1\n  dup4\n  0xffffffffffffffffffffffffffffffffffffffff\n  and\n  mul\n  or\n  swap1\n  sstore\n  pop\n    /* \"blockchain/contracts/Polygon/Pool/Prototype/pool/state.sol\":3789:3794  _name */\n  dup5\n    /* \"blockchain/contracts/Polygon/Pool/Prototype/pool/state.sol\":3779:3783  name */\n  0x03\n    /* \"blockchain/contracts/Polygon/Pool/Prototype/pool/state.sol\":3779:3794  name     =_name */\n  swap1\n  dup2\n  tag_15\n  swap2\n  swap1\n  tag_16\n  jump\t// in\ntag_15:\n  pop\n    /* \"blockchain/contracts/Polygon/Pool/Prototype/pool/state.sol\":3877:3886  _governor */\n  dup6\n    /* \"blockchain/contracts/Polygon/Pool/Prototype/pool/state.sol\":3810:4006  PoolCreated(... */\n  0xffffffffffffffffffffffffffffffffffffffff\n  and\n    /* \"blockchain/contracts/Polygon/Pool/Prototype/pool/state.sol\":3855:3863  _creator */\n  dup8\n    /* \"blockchain/contracts/Polygon/Pool/Prototype/pool/state.sol\":3810:4006  PoolCreated(... */\n  0xffffffffffffffffffffffffffffffffffffffff\n  and\n    /* \"blockchain/contracts/Polygon/Pool/Prototype/pool/state.sol\":3835:3841  _logic */\n  dup10\n    /* \"blockchain/contracts/Polygon/Pool/Prototype/pool/state.sol\":3810:4006  PoolCreated(... */\n  0xffffffffffffffffffffffffffffffffffffffff\n  and\n  0xe9ea401d47e3cb04c779d3506d208fa62b08c0b96ba7940a0b9103266706a8e7\n    /* \"blockchain/contracts/Polygon/Pool/Prototype/pool/state.sol\":3900:3905  _name */\n  dup9\n    /* \"blockchain/contracts/Polygon/Pool/Prototype/pool/state.sol\":3919:3923  _now */\n  dup6\n    /* \"blockchain/contracts/Polygon/Pool/Prototype/pool/state.sol\":3937:3943  launch */\n  0x07\n    /* \"blockchain/contracts/Polygon/Pool/Prototype/pool/state.sol\":3937:3947  launch.end */\n  0x01\n  add\n  sload\n    /* \"blockchain/contracts/Polygon/Pool/Prototype/pool/state.sol\":3961:3970  _required */\n  dup10\n    /* \"blockchain/contracts/Polygon/Pool/Prototype/pool/state.sol\":3984:3996  _whitelisted */\n  dup10\n    /* \"blockchain/contracts/Polygon/Pool/Prototype/pool/state.sol\":3810:4006  PoolCreated(... */\n  mload(0x40)\n  tag_17\n  swap6\n  swap5\n  swap4\n  swap3\n  swap2\n  swap1\n  tag_18\n  jump\t// in\ntag_17:\n  mload(0x40)\n  dup1\n  swap2\n  sub\n  swap1\n  log4\n    /* \"blockchain/contracts/Polygon/Pool/Prototype/pool/state.sol\":3216:4013  {... */\n  pop\n    /* \"blockchain/contracts/Polygon/Pool/Prototype/pool/state.sol\":3000:4013  constructor(... */\n  pop\n  pop\n  pop\n  pop\n  pop\n  pop\n  pop\n    /* \"blockchain/contracts/Polygon/Pool/Prototype/pool/state.sol\":2505:6981  contract State is IState, Safety, Authenticator {... */\n  jump(tag_19)\n    /* \"#utility.yul\":7:82   */\ntag_20:\n    /* \"#utility.yul\":40:46   */\n  0x00\n    /* \"#utility.yul\":73:75   */\n  0x40\n    /* \"#utility.yul\":67:76   */\n  mload\n    /* \"#utility.yul\":57:76   */\n  swap1\n  pop\n    /* \"#utility.yul\":7:82   */\n  swap1\n  jump\t// out\n    /* \"#utility.yul\":88:205   */\ntag_21:\n    /* \"#utility.yul\":197:198   */\n  0x00\n    /* \"#utility.yul\":194:195   */\n  dup1\n    /* \"#utility.yul\":187:199   */\n  revert\n    /* \"#utility.yul\":211:328   */\ntag_22:\n    /* \"#utility.yul\":320:321   */\n  0x00\n    /* \"#utility.yul\":317:318   */\n  dup1\n    /* \"#utility.yul\":310:322   */\n  revert\n    /* \"#utility.yul\":334:460   */\ntag_23:\n    /* \"#utility.yul\":371:378   */\n  0x00\n    /* \"#utility.yul\":411:453   */\n  0xffffffffffffffffffffffffffffffffffffffff\n    /* \"#utility.yul\":404:409   */\n  dup3\n    /* \"#utility.yul\":400:454   */\n  and\n    /* \"#utility.yul\":389:454   */\n  swap1\n  pop\n    /* \"#utility.yul\":334:460   */\n  swap2\n  swap1\n  pop\n  jump\t// out\n    /* \"#utility.yul\":466:562   */\ntag_24:\n    /* \"#utility.yul\":503:510   */\n  0x00\n    /* \"#utility.yul\":532:556   */\n  tag_72\n    /* \"#utility.yul\":550:555   */\n  dup3\n    /* \"#utility.yul\":532:556   */\n  tag_23\n  jump\t// in\ntag_72:\n    /* \"#utility.yul\":521:556   */\n  swap1\n  pop\n    /* \"#utility.yul\":466:562   */\n  swap2\n  swap1\n  pop\n  jump\t// out\n    /* \"#utility.yul\":568:690   */\ntag_25:\n    /* \"#utility.yul\":641:665   */\n  tag_74\n    /* \"#utility.yul\":659:664   */\n  dup2\n    /* \"#utility.yul\":641:665   */\n  tag_24\n  jump\t// in\ntag_74:\n    /* \"#utility.yul\":634:639   */\n  dup2\n    /* \"#utility.yul\":631:666   */\n  eq\n    /* \"#utility.yul\":621:684   */\n  tag_75\n  jumpi\n    /* \"#utility.yul\":680:681   */\n  0x00\n    /* \"#utility.yul\":677:678   */\n  dup1\n    /* \"#utility.yul\":670:682   */\n  revert\n    /* \"#utility.yul\":621:684   */\ntag_75:\n    /* \"#utility.yul\":568:690   */\n  pop\n  jump\t// out\n    /* \"#utility.yul\":696:839   */\ntag_26:\n    /* \"#utility.yul\":753:758   */\n  0x00\n    /* \"#utility.yul\":784:790   */\n  dup2\n    /* \"#utility.yul\":778:791   */\n  mload\n    /* \"#utility.yul\":769:791   */\n  swap1\n  pop\n    /* \"#utility.yul\":800:833   */\n  tag_77\n    /* \"#utility.yul\":827:832   */\n  dup2\n    /* \"#utility.yul\":800:833   */\n  tag_25\n  jump\t// in\ntag_77:\n    /* \"#utility.yul\":696:839   */\n  swap3\n  swap2\n  pop\n  pop\n  jump\t// out\n    /* \"#utility.yul\":845:962   */\ntag_27:\n    /* \"#utility.yul\":954:955   */\n  0x00\n    /* \"#utility.yul\":951:952   */\n  dup1\n    /* \"#utility.yul\":944:956   */\n  revert\n    /* \"#utility.yul\":968:1085   */\ntag_28:\n    /* \"#utility.yul\":1077:1078   */\n  0x00\n    /* \"#utility.yul\":1074:1075   */\n  dup1\n    /* \"#utility.yul\":1067:1079   */\n  revert\n    /* \"#utility.yul\":1091:1193   */\ntag_29:\n    /* \"#utility.yul\":1132:1138   */\n  0x00\n    /* \"#utility.yul\":1183:1185   */\n  0x1f\n    /* \"#utility.yul\":1179:1186   */\n  not\n    /* \"#utility.yul\":1174:1176   */\n  0x1f\n    /* \"#utility.yul\":1167:1172   */\n  dup4\n    /* \"#utility.yul\":1163:1177   */\n  add\n    /* \"#utility.yul\":1159:1187   */\n  and\n    /* \"#utility.yul\":1149:1187   */\n  swap1\n  pop\n    /* \"#utility.yul\":1091:1193   */\n  swap2\n  swap1\n  pop\n  jump\t// out\n    /* \"#utility.yul\":1199:1379   */\ntag_30:\n    /* \"#utility.yul\":1247:1324   */\n  0x4e487b7100000000000000000000000000000000000000000000000000000000\n    /* \"#utility.yul\":1244:1245   */\n  0x00\n    /* \"#utility.yul\":1237:1325   */\n  mstore\n    /* \"#utility.yul\":1344:1348   */\n  0x41\n    /* \"#utility.yul\":1341:1342   */\n  0x04\n    /* \"#utility.yul\":1334:1349   */\n  mstore\n    /* \"#utility.yul\":1368:1372   */\n  0x24\n    /* \"#utility.yul\":1365:1366   */\n  0x00\n    /* \"#utility.yul\":1358:1373   */\n  revert\n    /* \"#utility.yul\":1385:1666   */\ntag_31:\n    /* \"#utility.yul\":1468:1495   */\n  tag_83\n    /* \"#utility.yul\":1490:1494   */\n  dup3\n    /* \"#utility.yul\":1468:1495   */\n  tag_29\n  jump\t// in\ntag_83:\n    /* \"#utility.yul\":1460:1466   */\n  dup2\n    /* \"#utility.yul\":1456:1496   */\n  add\n    /* \"#utility.yul\":1598:1604   */\n  dup2\n    /* \"#utility.yul\":1586:1596   */\n  dup2\n    /* \"#utility.yul\":1583:1605   */\n  lt\n    /* \"#utility.yul\":1562:1580   */\n  0xffffffffffffffff\n    /* \"#utility.yul\":1550:1560   */\n  dup3\n    /* \"#utility.yul\":1547:1581   */\n  gt\n    /* \"#utility.yul\":1544:1606   */\n  or\n    /* \"#utility.yul\":1541:1629   */\n  iszero\n  tag_84\n  jumpi\n    /* \"#utility.yul\":1609:1627   */\n  tag_85\n  tag_30\n  jump\t// in\ntag_85:\n    /* \"#utility.yul\":1541:1629   */\ntag_84:\n    /* \"#utility.yul\":1649:1659   */\n  dup1\n    /* \"#utility.yul\":1645:1647   */\n  0x40\n    /* \"#utility.yul\":1638:1660   */\n  mstore\n    /* \"#utility.yul\":1428:1666   */\n  pop\n    /* \"#utility.yul\":1385:1666   */\n  pop\n  pop\n  jump\t// out\n    /* \"#utility.yul\":1672:1801   */\ntag_32:\n    /* \"#utility.yul\":1706:1712   */\n  0x00\n    /* \"#utility.yul\":1733:1753   */\n  tag_87\n  tag_20\n  jump\t// in\ntag_87:\n    /* \"#utility.yul\":1723:1753   */\n  swap1\n  pop\n    /* \"#utility.yul\":1762:1795   */\n  tag_88\n    /* \"#utility.yul\":1790:1794   */\n  dup3\n    /* \"#utility.yul\":1782:1788   */\n  dup3\n    /* \"#utility.yul\":1762:1795   */\n  tag_31\n  jump\t// in\ntag_88:\n    /* \"#utility.yul\":1672:1801   */\n  swap2\n  swap1\n  pop\n  jump\t// out\n    /* \"#utility.yul\":1807:2115   */\ntag_33:\n    /* \"#utility.yul\":1869:1873   */\n  0x00\n    /* \"#utility.yul\":1959:1977   */\n  0xffffffffffffffff\n    /* \"#utility.yul\":1951:1957   */\n  dup3\n    /* \"#utility.yul\":1948:1978   */\n  gt\n    /* \"#utility.yul\":1945:2001   */\n  iszero\n  tag_90\n  jumpi\n    /* \"#utility.yul\":1981:1999   */\n  tag_91\n  tag_30\n  jump\t// in\ntag_91:\n    /* \"#utility.yul\":1945:2001   */\ntag_90:\n    /* \"#utility.yul\":2019:2048   */\n  tag_92\n    /* \"#utility.yul\":2041:2047   */\n  dup3\n    /* \"#utility.yul\":2019:2048   */\n  tag_29\n  jump\t// in\ntag_92:\n    /* \"#utility.yul\":2011:2048   */\n  swap1\n  pop\n    /* \"#utility.yul\":2103:2107   */\n  0x20\n    /* \"#utility.yul\":2097:2101   */\n  dup2\n    /* \"#utility.yul\":2093:2108   */\n  add\n    /* \"#utility.yul\":2085:2108   */\n  swap1\n  pop\n    /* \"#utility.yul\":1807:2115   */\n  swap2\n  swap1\n  pop\n  jump\t// out\n    /* \"#utility.yul\":2121:2367   */\ntag_34:\n    /* \"#utility.yul\":2202:2203   */\n  0x00\n    /* \"#utility.yul\":2212:2325   */\ntag_94:\n    /* \"#utility.yul\":2226:2232   */\n  dup4\n    /* \"#utility.yul\":2223:2224   */\n  dup2\n    /* \"#utility.yul\":2220:2233   */\n  lt\n    /* \"#utility.yul\":2212:2325   */\n  iszero\n  tag_96\n  jumpi\n    /* \"#utility.yul\":2311:2312   */\n  dup1\n    /* \"#utility.yul\":2306:2309   */\n  dup3\n    /* \"#utility.yul\":2302:2313   */\n  add\n    /* \"#utility.yul\":2296:2314   */\n  mload\n    /* \"#utility.yul\":2292:2293   */\n  dup2\n    /* \"#utility.yul\":2287:2290   */\n  dup5\n    /* \"#utility.yul\":2283:2294   */\n  add\n    /* \"#utility.yul\":2276:2315   */\n  mstore\n    /* \"#utility.yul\":2248:2250   */\n  0x20\n    /* \"#utility.yul\":2245:2246   */\n  dup2\n    /* \"#utility.yul\":2241:2251   */\n  add\n    /* \"#utility.yul\":2236:2251   */\n  swap1\n  pop\n    /* \"#utility.yul\":2212:2325   */\n  jump(tag_94)\ntag_96:\n    /* \"#utility.yul\":2359:2360   */\n  0x00\n    /* \"#utility.yul\":2350:2356   */\n  dup5\n    /* \"#utility.yul\":2345:2348   */\n  dup5\n    /* \"#utility.yul\":2341:2357   */\n  add\n    /* \"#utility.yul\":2334:2361   */\n  mstore\n    /* \"#utility.yul\":2183:2367   */\n  pop\n    /* \"#utility.yul\":2121:2367   */\n  pop\n  pop\n  pop\n  jump\t// out\n    /* \"#utility.yul\":2373:2807   */\ntag_35:\n    /* \"#utility.yul\":2462:2467   */\n  0x00\n    /* \"#utility.yul\":2487:2553   */\n  tag_98\n    /* \"#utility.yul\":2503:2552   */\n  tag_99\n    /* \"#utility.yul\":2545:2551   */\n  dup5\n    /* \"#utility.yul\":2503:2552   */\n  tag_33\n  jump\t// in\ntag_99:\n    /* \"#utility.yul\":2487:2553   */\n  tag_32\n  jump\t// in\ntag_98:\n    /* \"#utility.yul\":2478:2553   */\n  swap1\n  pop\n    /* \"#utility.yul\":2576:2582   */\n  dup3\n    /* \"#utility.yul\":2569:2574   */\n  dup2\n    /* \"#utility.yul\":2562:2583   */\n  mstore\n    /* \"#utility.yul\":2614:2618   */\n  0x20\n    /* \"#utility.yul\":2607:2612   */\n  dup2\n    /* \"#utility.yul\":2603:2619   */\n  add\n    /* \"#utility.yul\":2652:2655   */\n  dup5\n    /* \"#utility.yul\":2643:2649   */\n  dup5\n    /* \"#utility.yul\":2638:2641   */\n  dup5\n    /* \"#utility.yul\":2634:2650   */\n  add\n    /* \"#utility.yul\":2631:2656   */\n  gt\n    /* \"#utility.yul\":2628:2740   */\n  iszero\n  tag_100\n  jumpi\n    /* \"#utility.yul\":2659:2738   */\n  tag_101\n  tag_28\n  jump\t// in\ntag_101:\n    /* \"#utility.yul\":2628:2740   */\ntag_100:\n    /* \"#utility.yul\":2749:2801   */\n  tag_102\n    /* \"#utility.yul\":2794:2800   */\n  dup5\n    /* \"#utility.yul\":2789:2792   */\n  dup3\n    /* \"#utility.yul\":2784:2787   */\n  dup6\n    /* \"#utility.yul\":2749:2801   */\n  tag_34\n  jump\t// in\ntag_102:\n    /* \"#utility.yul\":2468:2807   */\n  pop\n    /* \"#utility.yul\":2373:2807   */\n  swap4\n  swap3\n  pop\n  pop\n  pop\n  jump\t// out\n    /* \"#utility.yul\":2827:3182   */\ntag_36:\n    /* \"#utility.yul\":2894:2899   */\n  0x00\n    /* \"#utility.yul\":2943:2946   */\n  dup3\n    /* \"#utility.yul\":2936:2940   */\n  0x1f\n    /* \"#utility.yul\":2928:2934   */\n  dup4\n    /* \"#utility.yul\":2924:2941   */\n  add\n    /* \"#utility.yul\":2920:2947   */\n  slt\n    /* \"#utility.yul\":2910:3032   */\n  tag_104\n  jumpi\n    /* \"#utility.yul\":2951:3030   */\n  tag_105\n  tag_27\n  jump\t// in\ntag_105:\n    /* \"#utility.yul\":2910:3032   */\ntag_104:\n    /* \"#utility.yul\":3061:3067   */\n  dup2\n    /* \"#utility.yul\":3055:3068   */\n  mload\n    /* \"#utility.yul\":3086:3176   */\n  tag_106\n    /* \"#utility.yul\":3172:3175   */\n  dup5\n    /* \"#utility.yul\":3164:3170   */\n  dup3\n    /* \"#utility.yul\":3157:3161   */\n  0x20\n    /* \"#utility.yul\":3149:3155   */\n  dup7\n    /* \"#utility.yul\":3145:3162   */\n  add\n    /* \"#utility.yul\":3086:3176   */\n  tag_35\n  jump\t// in\ntag_106:\n    /* \"#utility.yul\":3077:3176   */\n  swap2\n  pop\n    /* \"#utility.yul\":2900:3182   */\n  pop\n    /* \"#utility.yul\":2827:3182   */\n  swap3\n  swap2\n  pop\n  pop\n  jump\t// out\n    /* \"#utility.yul\":3188:3265   */\ntag_37:\n    /* \"#utility.yul\":3225:3232   */\n  0x00\n    /* \"#utility.yul\":3254:3259   */\n  dup2\n    /* \"#utility.yul\":3243:3259   */\n  swap1\n  pop\n    /* \"#utility.yul\":3188:3265   */\n  swap2\n  swap1\n  pop\n  jump\t// out\n    /* \"#utility.yul\":3271:3393   */\ntag_38:\n    /* \"#utility.yul\":3344:3368   */\n  tag_109\n    /* \"#utility.yul\":3362:3367   */\n  dup2\n    /* \"#utility.yul\":3344:3368   */\n  tag_37\n  jump\t// in\ntag_109:\n    /* \"#utility.yul\":3337:3342   */\n  dup2\n    /* \"#utility.yul\":3334:3369   */\n  eq\n    /* \"#utility.yul\":3324:3387   */\n  tag_110\n  jumpi\n    /* \"#utility.yul\":3383:3384   */\n  0x00\n    /* \"#utility.yul\":3380:3381   */\n  dup1\n    /* \"#utility.yul\":3373:3385   */\n  revert\n    /* \"#utility.yul\":3324:3387   */\ntag_110:\n    /* \"#utility.yul\":3271:3393   */\n  pop\n  jump\t// out\n    /* \"#utility.yul\":3399:3542   */\ntag_39:\n    /* \"#utility.yul\":3456:3461   */\n  0x00\n    /* \"#utility.yul\":3487:3493   */\n  dup2\n    /* \"#utility.yul\":3481:3494   */\n  mload\n    /* \"#utility.yul\":3472:3494   */\n  swap1\n  pop\n    /* \"#utility.yul\":3503:3536   */\n  tag_112\n    /* \"#utility.yul\":3530:3535   */\n  dup2\n    /* \"#utility.yul\":3503:3536   */\n  tag_38\n  jump\t// in\ntag_112:\n    /* \"#utility.yul\":3399:3542   */\n  swap3\n  swap2\n  pop\n  pop\n  jump\t// out\n    /* \"#utility.yul\":3548:3638   */\ntag_40:\n    /* \"#utility.yul\":3582:3589   */\n  0x00\n    /* \"#utility.yul\":3625:3630   */\n  dup2\n    /* \"#utility.yul\":3618:3631   */\n  iszero\n    /* \"#utility.yul\":3611:3632   */\n  iszero\n    /* \"#utility.yul\":3600:3632   */\n  swap1\n  pop\n    /* \"#utility.yul\":3548:3638   */\n  swap2\n  swap1\n  pop\n  jump\t// out\n    /* \"#utility.yul\":3644:3760   */\ntag_41:\n    /* \"#utility.yul\":3714:3735   */\n  tag_115\n    /* \"#utility.yul\":3729:3734   */\n  dup2\n    /* \"#utility.yul\":3714:3735   */\n  tag_40\n  jump\t// in\ntag_115:\n    /* \"#utility.yul\":3707:3712   */\n  dup2\n    /* \"#utility.yul\":3704:3736   */\n  eq\n    /* \"#utility.yul\":3694:3754   */\n  tag_116\n  jumpi\n    /* \"#utility.yul\":3750:3751   */\n  0x00\n    /* \"#utility.yul\":3747:3748   */\n  dup1\n    /* \"#utility.yul\":3740:3752   */\n  revert\n    /* \"#utility.yul\":3694:3754   */\ntag_116:\n    /* \"#utility.yul\":3644:3760   */\n  pop\n  jump\t// out\n    /* \"#utility.yul\":3766:3903   */\ntag_42:\n    /* \"#utility.yul\":3820:3825   */\n  0x00\n    /* \"#utility.yul\":3851:3857   */\n  dup2\n    /* \"#utility.yul\":3845:3858   */\n  mload\n    /* \"#utility.yul\":3836:3858   */\n  swap1\n  pop\n    /* \"#utility.yul\":3867:3897   */\n  tag_118\n    /* \"#utility.yul\":3891:3896   */\n  dup2\n    /* \"#utility.yul\":3867:3897   */\n  tag_41\n  jump\t// in\ntag_118:\n    /* \"#utility.yul\":3766:3903   */\n  swap3\n  swap2\n  pop\n  pop\n  jump\t// out\n    /* \"#utility.yul\":3909:5367   */\ntag_3:\n    /* \"#utility.yul\":4040:4046   */\n  0x00\n    /* \"#utility.yul\":4048:4054   */\n  dup1\n    /* \"#utility.yul\":4056:4062   */\n  0x00\n    /* \"#utility.yul\":4064:4070   */\n  dup1\n    /* \"#utility.yul\":4072:4078   */\n  0x00\n    /* \"#utility.yul\":4080:4086   */\n  dup1\n    /* \"#utility.yul\":4088:4094   */\n  0x00\n    /* \"#utility.yul\":4137:4140   */\n  0xe0\n    /* \"#utility.yul\":4125:4134   */\n  dup9\n    /* \"#utility.yul\":4116:4123   */\n  dup11\n    /* \"#utility.yul\":4112:4135   */\n  sub\n    /* \"#utility.yul\":4108:4141   */\n  slt\n    /* \"#utility.yul\":4105:4225   */\n  iszero\n  tag_120\n  jumpi\n    /* \"#utility.yul\":4144:4223   */\n  tag_121\n  tag_21\n  jump\t// in\ntag_121:\n    /* \"#utility.yul\":4105:4225   */\ntag_120:\n    /* \"#utility.yul\":4264:4265   */\n  0x00\n    /* \"#utility.yul\":4289:4353   */\n  tag_122\n    /* \"#utility.yul\":4345:4352   */\n  dup11\n    /* \"#utility.yul\":4336:4342   */\n  dup3\n    /* \"#utility.yul\":4325:4334   */\n  dup12\n    /* \"#utility.yul\":4321:4343   */\n  add\n    /* \"#utility.yul\":4289:4353   */\n  tag_26\n  jump\t// in\ntag_122:\n    /* \"#utility.yul\":4279:4353   */\n  swap8\n  pop\n    /* \"#utility.yul\":4235:4363   */\n  pop\n    /* \"#utility.yul\":4402:4404   */\n  0x20\n    /* \"#utility.yul\":4428:4492   */\n  tag_123\n    /* \"#utility.yul\":4484:4491   */\n  dup11\n    /* \"#utility.yul\":4475:4481   */\n  dup3\n    /* \"#utility.yul\":4464:4473   */\n  dup12\n    /* \"#utility.yul\":4460:4482   */\n  add\n    /* \"#utility.yul\":4428:4492   */\n  tag_26\n  jump\t// in\ntag_123:\n    /* \"#utility.yul\":4418:4492   */\n  swap7\n  pop\n    /* \"#utility.yul\":4373:4502   */\n  pop\n    /* \"#utility.yul\":4541:4543   */\n  0x40\n    /* \"#utility.yul\":4567:4631   */\n  tag_124\n    /* \"#utility.yul\":4623:4630   */\n  dup11\n    /* \"#utility.yul\":4614:4620   */\n  dup3\n    /* \"#utility.yul\":4603:4612   */\n  dup12\n    /* \"#utility.yul\":4599:4621   */\n  add\n    /* \"#utility.yul\":4567:4631   */\n  tag_26\n  jump\t// in\ntag_124:\n    /* \"#utility.yul\":4557:4631   */\n  swap6\n  pop\n    /* \"#utility.yul\":4512:4641   */\n  pop\n    /* \"#utility.yul\":4701:4703   */\n  0x60\n    /* \"#utility.yul\":4690:4699   */\n  dup9\n    /* \"#utility.yul\":4686:4704   */\n  add\n    /* \"#utility.yul\":4680:4705   */\n  mload\n    /* \"#utility.yul\":4732:4750   */\n  0xffffffffffffffff\n    /* \"#utility.yul\":4724:4730   */\n  dup2\n    /* \"#utility.yul\":4721:4751   */\n  gt\n    /* \"#utility.yul\":4718:4835   */\n  iszero\n  tag_125\n  jumpi\n    /* \"#utility.yul\":4754:4833   */\n  tag_126\n  tag_22\n  jump\t// in\ntag_126:\n    /* \"#utility.yul\":4718:4835   */\ntag_125:\n    /* \"#utility.yul\":4859:4933   */\n  tag_127\n    /* \"#utility.yul\":4925:4932   */\n  dup11\n    /* \"#utility.yul\":4916:4922   */\n  dup3\n    /* \"#utility.yul\":4905:4914   */\n  dup12\n    /* \"#utility.yul\":4901:4923   */\n  add\n    /* \"#utility.yul\":4859:4933   */\n  tag_36\n  jump\t// in\ntag_127:\n    /* \"#utility.yul\":4849:4933   */\n  swap5\n  pop\n    /* \"#utility.yul\":4651:4943   */\n  pop\n    /* \"#utility.yul\":4982:4985   */\n  0x80\n    /* \"#utility.yul\":5009:5073   */\n  tag_128\n    /* \"#utility.yul\":5065:5072   */\n  dup11\n    /* \"#utility.yul\":5056:5062   */\n  dup3\n    /* \"#utility.yul\":5045:5054   */\n  dup12\n    /* \"#utility.yul\":5041:5063   */\n  add\n    /* \"#utility.yul\":5009:5073   */\n  tag_39\n  jump\t// in\ntag_128:\n    /* \"#utility.yul\":4999:5073   */\n  swap4\n  pop\n    /* \"#utility.yul\":4953:5083   */\n  pop\n    /* \"#utility.yul\":5122:5125   */\n  0xa0\n    /* \"#utility.yul\":5149:5213   */\n  tag_129\n    /* \"#utility.yul\":5205:5212   */\n  dup11\n    /* \"#utility.yul\":5196:5202   */\n  dup3\n    /* \"#utility.yul\":5185:5194   */\n  dup12\n    /* \"#utility.yul\":5181:5203   */\n  add\n    /* \"#utility.yul\":5149:5213   */\n  tag_39\n  jump\t// in\ntag_129:\n    /* \"#utility.yul\":5139:5213   */\n  swap3\n  pop\n    /* \"#utility.yul\":5093:5223   */\n  pop\n    /* \"#utility.yul\":5262:5265   */\n  0xc0\n    /* \"#utility.yul\":5289:5350   */\n  tag_130\n    /* \"#utility.yul\":5342:5349   */\n  dup11\n    /* \"#utility.yul\":5333:5339   */\n  dup3\n    /* \"#utility.yul\":5322:5331   */\n  dup12\n    /* \"#utility.yul\":5318:5340   */\n  add\n    /* \"#utility.yul\":5289:5350   */\n  tag_42\n  jump\t// in\ntag_130:\n    /* \"#utility.yul\":5279:5350   */\n  swap2\n  pop\n    /* \"#utility.yul\":5233:5360   */\n  pop\n    /* \"#utility.yul\":3909:5367   */\n  swap3\n  swap6\n  swap9\n  swap2\n  swap5\n  swap8\n  pop\n  swap3\n  swap6\n  pop\n  jump\t// out\n    /* \"#utility.yul\":5373:5553   */\ntag_43:\n    /* \"#utility.yul\":5421:5498   */\n  0x4e487b7100000000000000000000000000000000000000000000000000000000\n    /* \"#utility.yul\":5418:5419   */\n  0x00\n    /* \"#utility.yul\":5411:5499   */\n  mstore\n    /* \"#utility.yul\":5518:5522   */\n  0x11\n    /* \"#utility.yul\":5515:5516   */\n  0x04\n    /* \"#utility.yul\":5508:5523   */\n  mstore\n    /* \"#utility.yul\":5542:5546   */\n  0x24\n    /* \"#utility.yul\":5539:5540   */\n  0x00\n    /* \"#utility.yul\":5532:5547   */\n  revert\n    /* \"#utility.yul\":5559:5750   */\ntag_11:\n    /* \"#utility.yul\":5599:5602   */\n  0x00\n    /* \"#utility.yul\":5618:5638   */\n  tag_133\n    /* \"#utility.yul\":5636:5637   */\n  dup3\n    /* \"#utility.yul\":5618:5638   */\n  tag_37\n  jump\t// in\ntag_133:\n    /* \"#utility.yul\":5613:5638   */\n  swap2\n  pop\n    /* \"#utility.yul\":5652:5672   */\n  tag_134\n    /* \"#utility.yul\":5670:5671   */\n  dup4\n    /* \"#utility.yul\":5652:5672   */\n  tag_37\n  jump\t// in\ntag_134:\n    /* \"#utility.yul\":5647:5672   */\n  swap3\n  pop\n    /* \"#utility.yul\":5695:5696   */\n  dup3\n    /* \"#utility.yul\":5692:5693   */\n  dup3\n    /* \"#utility.yul\":5688:5697   */\n  add\n    /* \"#utility.yul\":5681:5697   */\n  swap1\n  pop\n    /* \"#utility.yul\":5716:5719   */\n  dup1\n    /* \"#utility.yul\":5713:5714   */\n  dup3\n    /* \"#utility.yul\":5710:5720   */\n  gt\n    /* \"#utility.yul\":5707:5743   */\n  iszero\n  tag_135\n  jumpi\n    /* \"#utility.yul\":5723:5741   */\n  tag_136\n  tag_43\n  jump\t// in\ntag_136:\n    /* \"#utility.yul\":5707:5743   */\ntag_135:\n    /* \"#utility.yul\":5559:5750   */\n  swap3\n  swap2\n  pop\n  pop\n  jump\t// out\n    /* \"#utility.yul\":5756:5855   */\ntag_44:\n    /* \"#utility.yul\":5808:5814   */\n  0x00\n    /* \"#utility.yul\":5842:5847   */\n  dup2\n    /* \"#utility.yul\":5836:5848   */\n  mload\n    /* \"#utility.yul\":5826:5848   */\n  swap1\n  pop\n    /* \"#utility.yul\":5756:5855   */\n  swap2\n  swap1\n  pop\n  jump\t// out\n    /* \"#utility.yul\":5861:6041   */\ntag_45:\n    /* \"#utility.yul\":5909:5986   */\n  0x4e487b7100000000000000000000000000000000000000000000000000000000\n    /* \"#utility.yul\":5906:5907   */\n  0x00\n    /* \"#utility.yul\":5899:5987   */\n  mstore\n    /* \"#utility.yul\":6006:6010   */\n  0x22\n    /* \"#utility.yul\":6003:6004   */\n  0x04\n    /* \"#utility.yul\":5996:6011   */\n  mstore\n    /* \"#utility.yul\":6030:6034   */\n  0x24\n    /* \"#utility.yul\":6027:6028   */\n  0x00\n    /* \"#utility.yul\":6020:6035   */\n  revert\n    /* \"#utility.yul\":6047:6367   */\ntag_46:\n    /* \"#utility.yul\":6091:6097   */\n  0x00\n    /* \"#utility.yul\":6128:6129   */\n  0x02\n    /* \"#utility.yul\":6122:6126   */\n  dup3\n    /* \"#utility.yul\":6118:6130   */\n  div\n    /* \"#utility.yul\":6108:6130   */\n  swap1\n  pop\n    /* \"#utility.yul\":6175:6176   */\n  0x01\n    /* \"#utility.yul\":6169:6173   */\n  dup3\n    /* \"#utility.yul\":6165:6177   */\n  and\n    /* \"#utility.yul\":6196:6214   */\n  dup1\n    /* \"#utility.yul\":6186:6267   */\n  tag_140\n  jumpi\n    /* \"#utility.yul\":6252:6256   */\n  0x7f\n    /* \"#utility.yul\":6244:6250   */\n  dup3\n    /* \"#utility.yul\":6240:6257   */\n  and\n    /* \"#utility.yul\":6230:6257   */\n  swap2\n  pop\n    /* \"#utility.yul\":6186:6267   */\ntag_140:\n    /* \"#utility.yul\":6314:6316   */\n  0x20\n    /* \"#utility.yul\":6306:6312   */\n  dup3\n    /* \"#utility.yul\":6303:6317   */\n  lt\n    /* \"#utility.yul\":6283:6301   */\n  dup2\n    /* \"#utility.yul\":6280:6318   */\n  sub\n    /* \"#utility.yul\":6277:6361   */\n  tag_141\n  jumpi\n    /* \"#utility.yul\":6333:6351   */\n  tag_142\n  tag_45\n  jump\t// in\ntag_142:\n    /* \"#utility.yul\":6277:6361   */\ntag_141:\n    /* \"#utility.yul\":6098:6367   */\n  pop\n    /* \"#utility.yul\":6047:6367   */\n  swap2\n  swap1\n  pop\n  jump\t// out\n    /* \"#utility.yul\":6373:6514   */\ntag_47:\n    /* \"#utility.yul\":6422:6426   */\n  0x00\n    /* \"#utility.yul\":6445:6448   */\n  dup2\n    /* \"#utility.yul\":6437:6448   */\n  swap1\n  pop\n    /* \"#utility.yul\":6468:6471   */\n  dup2\n    /* \"#utility.yul\":6465:6466   */\n  0x00\n    /* \"#utility.yul\":6458:6472   */\n  mstore\n    /* \"#utility.yul\":6502:6506   */\n  0x20\n    /* \"#utility.yul\":6499:6500   */\n  0x00\n    /* \"#utility.yul\":6489:6507   */\n  keccak256\n    /* \"#utility.yul\":6481:6507   */\n  swap1\n  pop\n    /* \"#utility.yul\":6373:6514   */\n  swap2\n  swap1\n  pop\n  jump\t// out\n    /* \"#utility.yul\":6520:6613   */\ntag_48:\n    /* \"#utility.yul\":6557:6563   */\n  0x00\n    /* \"#utility.yul\":6604:6606   */\n  0x20\n    /* \"#utility.yul\":6599:6601   */\n  0x1f\n    /* \"#utility.yul\":6592:6597   */\n  dup4\n    /* \"#utility.yul\":6588:6602   */\n  add\n    /* \"#utility.yul\":6584:6607   */\n  div\n    /* \"#utility.yul\":6574:6607   */\n  swap1\n  pop\n    /* \"#utility.yul\":6520:6613   */\n  swap2\n  swap1\n  pop\n  jump\t// out\n    /* \"#utility.yul\":6619:6726   */\ntag_49:\n    /* \"#utility.yul\":6663:6671   */\n  0x00\n    /* \"#utility.yul\":6713:6718   */\n  dup3\n    /* \"#utility.yul\":6707:6711   */\n  dup3\n    /* \"#utility.yul\":6703:6719   */\n  shl\n    /* \"#utility.yul\":6682:6719   */\n  swap1\n  pop\n    /* \"#utility.yul\":6619:6726   */\n  swap3\n  swap2\n  pop\n  pop\n  jump\t// out\n    /* \"#utility.yul\":6732:7125   */\ntag_50:\n    /* \"#utility.yul\":6801:6807   */\n  0x00\n    /* \"#utility.yul\":6851:6852   */\n  0x08\n    /* \"#utility.yul\":6839:6849   */\n  dup4\n    /* \"#utility.yul\":6835:6853   */\n  mul\n    /* \"#utility.yul\":6874:6971   */\n  tag_147\n    /* \"#utility.yul\":6904:6970   */\n  0xffffffffffffffffffffffffffffffffffffffffffffffffffffffffffffffff\n    /* \"#utility.yul\":6893:6902   */\n  dup3\n    /* \"#utility.yul\":6874:6971   */\n  tag_49\n  jump\t// in\ntag_147:\n    /* \"#utility.yul\":6992:7031   */\n  tag_148\n    /* \"#utility.yul\":7022:7030   */\n  dup7\n    /* \"#utility.yul\":7011:7020   */\n  dup4\n    /* \"#utility.yul\":6992:7031   */\n  tag_49\n  jump\t// in\ntag_148:\n    /* \"#utility.yul\":6980:7031   */\n  swap6\n  pop\n    /* \"#utility.yul\":7064:7068   */\n  dup1\n    /* \"#utility.yul\":7060:7069   */\n  not\n    /* \"#utility.yul\":7053:7058   */\n  dup5\n    /* \"#utility.yul\":7049:7070   */\n  and\n    /* \"#utility.yul\":7040:7070   */\n  swap4\n  pop\n    /* \"#utility.yul\":7113:7117   */\n  dup1\n    /* \"#utility.yul\":7103:7111   */\n  dup7\n    /* \"#utility.yul\":7099:7118   */\n  and\n    /* \"#utility.yul\":7092:7097   */\n  dup5\n    /* \"#utility.yul\":7089:7119   */\n  or\n    /* \"#utility.yul\":7079:7119   */\n  swap3\n  pop\n    /* \"#utility.yul\":6808:7125   */\n  pop\n  pop\n    /* \"#utility.yul\":6732:7125   */\n  swap4\n  swap3\n  pop\n  pop\n  pop\n  jump\t// out\n    /* \"#utility.yul\":7131:7191   */\ntag_51:\n    /* \"#utility.yul\":7159:7162   */\n  0x00\n    /* \"#utility.yul\":7180:7185   */\n  dup2\n    /* \"#utility.yul\":7173:7185   */\n  swap1\n  pop\n    /* \"#utility.yul\":7131:7191   */\n  swap2\n  swap1\n  pop\n  jump\t// out\n    /* \"#utility.yul\":7197:7339   */\ntag_52:\n    /* \"#utility.yul\":7247:7256   */\n  0x00\n    /* \"#utility.yul\":7280:7333   */\n  tag_151\n    /* \"#utility.yul\":7298:7332   */\n  tag_152\n    /* \"#utility.yul\":7307:7331   */\n  tag_153\n    /* \"#utility.yul\":7325:7330   */\n  dup5\n    /* \"#utility.yul\":7307:7331   */\n  tag_37\n  jump\t// in\ntag_153:\n    /* \"#utility.yul\":7298:7332   */\n  tag_51\n  jump\t// in\ntag_152:\n    /* \"#utility.yul\":7280:7333   */\n  tag_37\n  jump\t// in\ntag_151:\n    /* \"#utility.yul\":7267:7333   */\n  swap1\n  pop\n    /* \"#utility.yul\":7197:7339   */\n  swap2\n  swap1\n  pop\n  jump\t// out\n    /* \"#utility.yul\":7345:7420   */\ntag_53:\n    /* \"#utility.yul\":7388:7391   */\n  0x00\n    /* \"#utility.yul\":7409:7414   */\n  dup2\n    /* \"#utility.yul\":7402:7414   */\n  swap1\n  pop\n    /* \"#utility.yul\":7345:7420   */\n  swap2\n  swap1\n  pop\n  jump\t// out\n    /* \"#utility.yul\":7426:7695   */\ntag_54:\n    /* \"#utility.yul\":7536:7575   */\n  tag_156\n    /* \"#utility.yul\":7567:7574   */\n  dup4\n    /* \"#utility.yul\":7536:7575   */\n  tag_52\n  jump\t// in\ntag_156:\n    /* \"#utility.yul\":7597:7688   */\n  tag_157\n    /* \"#utility.yul\":7646:7687   */\n  tag_158\n    /* \"#utility.yul\":7670:7686   */\n  dup3\n    /* \"#utility.yul\":7646:7687   */\n  tag_53\n  jump\t// in\ntag_158:\n    /* \"#utility.yul\":7638:7644   */\n  dup5\n    /* \"#utility.yul\":7631:7635   */\n  dup5\n    /* \"#utility.yul\":7625:7636   */\n  sload\n    /* \"#utility.yul\":7597:7688   */\n  tag_50\n  jump\t// in\ntag_157:\n    /* \"#utility.yul\":7591:7595   */\n  dup3\n    /* \"#utility.yul\":7584:7689   */\n  sstore\n    /* \"#utility.yul\":7502:7695   */\n  pop\n    /* \"#utility.yul\":7426:7695   */\n  pop\n  pop\n  pop\n  jump\t// out\n    /* \"#utility.yul\":7701:7774   */\ntag_55:\n    /* \"#utility.yul\":7746:7749   */\n  0x00\n    /* \"#utility.yul\":7701:7774   */\n  swap1\n  jump\t// out\n    /* \"#utility.yul\":7780:7969   */\ntag_56:\n    /* \"#utility.yul\":7857:7889   */\n  tag_161\n  tag_55\n  jump\t// in\ntag_161:\n    /* \"#utility.yul\":7898:7963   */\n  tag_162\n    /* \"#utility.yul\":7956:7962   */\n  dup2\n    /* \"#utility.yul\":7948:7954   */\n  dup5\n    /* \"#utility.yul\":7942:7946   */\n  dup5\n    /* \"#utility.yul\":7898:7963   */\n  tag_54\n  jump\t// in\ntag_162:\n    /* \"#utility.yul\":7833:7969   */\n  pop\n    /* \"#utility.yul\":7780:7969   */\n  pop\n  pop\n  jump\t// out\n    /* \"#utility.yul\":7975:8161   */\ntag_57:\n    /* \"#utility.yul\":8035:8155   */\ntag_164:\n    /* \"#utility.yul\":8052:8055   */\n  dup2\n    /* \"#utility.yul\":8045:8050   */\n  dup2\n    /* \"#utility.yul\":8042:8056   */\n  lt\n    /* \"#utility.yul\":8035:8155   */\n  iszero\n  tag_166\n  jumpi\n    /* \"#utility.yul\":8106:8145   */\n  tag_167\n    /* \"#utility.yul\":8143:8144   */\n  0x00\n    /* \"#utility.yul\":8136:8141   */\n  dup3\n    /* \"#utility.yul\":8106:8145   */\n  tag_56\n  jump\t// in\ntag_167:\n    /* \"#utility.yul\":8079:8080   */\n  0x01\n    /* \"#utility.yul\":8072:8077   */\n  dup2\n    /* \"#utility.yul\":8068:8081   */\n  add\n    /* \"#utility.yul\":8059:8081   */\n  swap1\n  pop\n    /* \"#utility.yul\":8035:8155   */\n  jump(tag_164)\ntag_166:\n    /* \"#utility.yul\":7975:8161   */\n  pop\n  pop\n  jump\t// out\n    /* \"#utility.yul\":8167:8710   */\ntag_58:\n    /* \"#utility.yul\":8268:8270   */\n  0x1f\n    /* \"#utility.yul\":8263:8266   */\n  dup3\n    /* \"#utility.yul\":8260:8271   */\n  gt\n    /* \"#utility.yul\":8257:8703   */\n  iszero\n  tag_169\n  jumpi\n    /* \"#utility.yul\":8302:8340   */\n  tag_170\n    /* \"#utility.yul\":8334:8339   */\n  dup2\n    /* \"#utility.yul\":8302:8340   */\n  tag_47\n  jump\t// in\ntag_170:\n    /* \"#utility.yul\":8386:8415   */\n  tag_171\n    /* \"#utility.yul\":8404:8414   */\n  dup5\n    /* \"#utility.yul\":8386:8415   */\n  tag_48\n  jump\t// in\ntag_171:\n    /* \"#utility.yul\":8376:8384   */\n  dup2\n    /* \"#utility.yul\":8372:8416   */\n  add\n    /* \"#utility.yul\":8569:8571   */\n  0x20\n    /* \"#utility.yul\":8557:8567   */\n  dup6\n    /* \"#utility.yul\":8554:8572   */\n  lt\n    /* \"#utility.yul\":8551:8600   */\n  iszero\n  tag_172\n  jumpi\n    /* \"#utility.yul\":8590:8598   */\n  dup2\n    /* \"#utility.yul\":8575:8598   */\n  swap1\n  pop\n    /* \"#utility.yul\":8551:8600   */\ntag_172:\n    /* \"#utility.yul\":8613:8693   */\n  tag_173\n    /* \"#utility.yul\":8669:8691   */\n  tag_174\n    /* \"#utility.yul\":8687:8690   */\n  dup6\n    /* \"#utility.yul\":8669:8691   */\n  tag_48\n  jump\t// in\ntag_174:\n    /* \"#utility.yul\":8659:8667   */\n  dup4\n    /* \"#utility.yul\":8655:8692   */\n  add\n    /* \"#utility.yul\":8642:8653   */\n  dup3\n    /* \"#utility.yul\":8613:8693   */\n  tag_57\n  jump\t// in\ntag_173:\n    /* \"#utility.yul\":8272:8703   */\n  pop\n  pop\n    /* \"#utility.yul\":8257:8703   */\ntag_169:\n    /* \"#utility.yul\":8167:8710   */\n  pop\n  pop\n  pop\n  jump\t// out\n    /* \"#utility.yul\":8716:8833   */\ntag_59:\n    /* \"#utility.yul\":8770:8778   */\n  0x00\n    /* \"#utility.yul\":8820:8825   */\n  dup3\n    /* \"#utility.yul\":8814:8818   */\n  dup3\n    /* \"#utility.yul\":8810:8826   */\n  shr\n    /* \"#utility.yul\":8789:8826   */\n  swap1\n  pop\n    /* \"#utility.yul\":8716:8833   */\n  swap3\n  swap2\n  pop\n  pop\n  jump\t// out\n    /* \"#utility.yul\":8839:9008   */\ntag_60:\n    /* \"#utility.yul\":8883:8889   */\n  0x00\n    /* \"#utility.yul\":8916:8967   */\n  tag_177\n    /* \"#utility.yul\":8964:8965   */\n  0x00\n    /* \"#utility.yul\":8960:8966   */\n  not\n    /* \"#utility.yul\":8952:8957   */\n  dup5\n    /* \"#utility.yul\":8949:8950   */\n  0x08\n    /* \"#utility.yul\":8945:8958   */\n  mul\n    /* \"#utility.yul\":8916:8967   */\n  tag_59\n  jump\t// in\ntag_177:\n    /* \"#utility.yul\":8912:8968   */\n  not\n    /* \"#utility.yul\":8997:9001   */\n  dup1\n    /* \"#utility.yul\":8991:8995   */\n  dup4\n    /* \"#utility.yul\":8987:9002   */\n  and\n    /* \"#utility.yul\":8977:9002   */\n  swap2\n  pop\n    /* \"#utility.yul\":8890:9008   */\n  pop\n    /* \"#utility.yul\":8839:9008   */\n  swap3\n  swap2\n  pop\n  pop\n  jump\t// out\n    /* \"#utility.yul\":9013:9308   */\ntag_61:\n    /* \"#utility.yul\":9089:9093   */\n  0x00\n    /* \"#utility.yul\":9235:9264   */\n  tag_179\n    /* \"#utility.yul\":9260:9263   */\n  dup4\n    /* \"#utility.yul\":9254:9258   */\n  dup4\n    /* \"#utility.yul\":9235:9264   */\n  tag_60\n  jump\t// in\ntag_179:\n    /* \"#utility.yul\":9227:9264   */\n  swap2\n  pop\n    /* \"#utility.yul\":9297:9300   */\n  dup3\n    /* \"#utility.yul\":9294:9295   */\n  0x02\n    /* \"#utility.yul\":9290:9301   */\n  mul\n    /* \"#utility.yul\":9284:9288   */\n  dup3\n    /* \"#utility.yul\":9281:9302   */\n  or\n    /* \"#utility.yul\":9273:9302   */\n  swap1\n  pop\n    /* \"#utility.yul\":9013:9308   */\n  swap3\n  swap2\n  pop\n  pop\n  jump\t// out\n    /* \"#utility.yul\":9313:10708   */\ntag_16:\n    /* \"#utility.yul\":9430:9467   */\n  tag_181\n    /* \"#utility.yul\":9463:9466   */\n  dup3\n    /* \"#utility.yul\":9430:9467   */\n  tag_44\n  jump\t// in\ntag_181:\n    /* \"#utility.yul\":9532:9550   */\n  0xffffffffffffffff\n    /* \"#utility.yul\":9524:9530   */\n  dup2\n    /* \"#utility.yul\":9521:9551   */\n  gt\n    /* \"#utility.yul\":9518:9574   */\n  iszero\n  tag_182\n  jumpi\n    /* \"#utility.yul\":9554:9572   */\n  tag_183\n  tag_30\n  jump\t// in\ntag_183:\n    /* \"#utility.yul\":9518:9574   */\ntag_182:\n    /* \"#utility.yul\":9598:9636   */\n  tag_184\n    /* \"#utility.yul\":9630:9634   */\n  dup3\n    /* \"#utility.yul\":9624:9635   */\n  sload\n    /* \"#utility.yul\":9598:9636   */\n  tag_46\n  jump\t// in\ntag_184:\n    /* \"#utility.yul\":9683:9750   */\n  tag_185\n    /* \"#utility.yul\":9743:9749   */\n  dup3\n    /* \"#utility.yul\":9735:9741   */\n  dup3\n    /* \"#utility.yul\":9729:9733   */\n  dup6\n    /* \"#utility.yul\":9683:9750   */\n  tag_58\n  jump\t// in\ntag_185:\n    /* \"#utility.yul\":9777:9778   */\n  0x00\n    /* \"#utility.yul\":9801:9805   */\n  0x20\n    /* \"#utility.yul\":9788:9805   */\n  swap1\n  pop\n    /* \"#utility.yul\":9833:9835   */\n  0x1f\n    /* \"#utility.yul\":9825:9831   */\n  dup4\n    /* \"#utility.yul\":9822:9836   */\n  gt\n    /* \"#utility.yul\":9850:9851   */\n  0x01\n    /* \"#utility.yul\":9845:10463   */\n  dup2\n  eq\n  tag_187\n  jumpi\n    /* \"#utility.yul\":10507:10508   */\n  0x00\n    /* \"#utility.yul\":10524:10530   */\n  dup5\n    /* \"#utility.yul\":10521:10598   */\n  iszero\n  tag_188\n  jumpi\n    /* \"#utility.yul\":10573:10582   */\n  dup3\n    /* \"#utility.yul\":10568:10571   */\n  dup8\n    /* \"#utility.yul\":10564:10583   */\n  add\n    /* \"#utility.yul\":10558:10584   */\n  mload\n    /* \"#utility.yul\":10549:10584   */\n  swap1\n  pop\n    /* \"#utility.yul\":10521:10598   */\ntag_188:\n    /* \"#utility.yul\":10624:10691   */\n  tag_189\n    /* \"#utility.yul\":10684:10690   */\n  dup6\n    /* \"#utility.yul\":10677:10682   */\n  dup3\n    /* \"#utility.yul\":10624:10691   */\n  tag_61\n  jump\t// in\ntag_189:\n    /* \"#utility.yul\":10618:10622   */\n  dup7\n    /* \"#utility.yul\":10611:10692   */\n  sstore\n    /* \"#utility.yul\":10480:10702   */\n  pop\n    /* \"#utility.yul\":9815:10702   */\n  jump(tag_186)\n    /* \"#utility.yul\":9845:10463   */\ntag_187:\n    /* \"#utility.yul\":9897:9901   */\n  0x1f\n    /* \"#utility.yul\":9893:9902   */\n  not\n    /* \"#utility.yul\":9885:9891   */\n  dup5\n    /* \"#utility.yul\":9881:9903   */\n  and\n    /* \"#utility.yul\":9931:9968   */\n  tag_190\n    /* \"#utility.yul\":9963:9967   */\n  dup7\n    /* \"#utility.yul\":9931:9968   */\n  tag_47\n  jump\t// in\ntag_190:\n    /* \"#utility.yul\":9990:9991   */\n  0x00\n    /* \"#utility.yul\":10004:10212   */\ntag_191:\n    /* \"#utility.yul\":10018:10025   */\n  dup3\n    /* \"#utility.yul\":10015:10016   */\n  dup2\n    /* \"#utility.yul\":10012:10026   */\n  lt\n    /* \"#utility.yul\":10004:10212   */\n  iszero\n  tag_193\n  jumpi\n    /* \"#utility.yul\":10097:10106   */\n  dup5\n    /* \"#utility.yul\":10092:10095   */\n  dup10\n    /* \"#utility.yul\":10088:10107   */\n  add\n    /* \"#utility.yul\":10082:10108   */\n  mload\n    /* \"#utility.yul\":10074:10080   */\n  dup3\n    /* \"#utility.yul\":10067:10109   */\n  sstore\n    /* \"#utility.yul\":10148:10149   */\n  0x01\n    /* \"#utility.yul\":10140:10146   */\n  dup3\n    /* \"#utility.yul\":10136:10150   */\n  add\n    /* \"#utility.yul\":10126:10150   */\n  swap2\n  pop\n    /* \"#utility.yul\":10195:10197   */\n  0x20\n    /* \"#utility.yul\":10184:10193   */\n  dup6\n    /* \"#utility.yul\":10180:10198   */\n  add\n    /* \"#utility.yul\":10167:10198   */\n  swap5\n  pop\n    /* \"#utility.yul\":10041:10045   */\n  0x20\n    /* \"#utility.yul\":10038:10039   */\n  dup2\n    /* \"#utility.yul\":10034:10046   */\n  add\n    /* \"#utility.yul\":10029:10046   */\n  swap1\n  pop\n    /* \"#utility.yul\":10004:10212   */\n  jump(tag_191)\ntag_193:\n    /* \"#utility.yul\":10240:10246   */\n  dup7\n    /* \"#utility.yul\":10231:10238   */\n  dup4\n    /* \"#utility.yul\":10228:10247   */\n  lt\n    /* \"#utility.yul\":10225:10404   */\n  iszero\n  tag_194\n  jumpi\n    /* \"#utility.yul\":10298:10307   */\n  dup5\n    /* \"#utility.yul\":10293:10296   */\n  dup10\n    /* \"#utility.yul\":10289:10308   */\n  add\n    /* \"#utility.yul\":10283:10309   */\n  mload\n    /* \"#utility.yul\":10341:10389   */\n  tag_195\n    /* \"#utility.yul\":10383:10387   */\n  0x1f\n    /* \"#utility.yul\":10375:10381   */\n  dup10\n    /* \"#utility.yul\":10371:10388   */\n  and\n    /* \"#utility.yul\":10360:10369   */\n  dup3\n    /* \"#utility.yul\":10341:10389   */\n  tag_60\n  jump\t// in\ntag_195:\n    /* \"#utility.yul\":10333:10339   */\n  dup4\n    /* \"#utility.yul\":10326:10390   */\n  sstore\n    /* \"#utility.yul\":10248:10404   */\n  pop\n    /* \"#utility.yul\":10225:10404   */\ntag_194:\n    /* \"#utility.yul\":10450:10451   */\n  0x01\n    /* \"#utility.yul\":10446:10447   */\n  0x02\n    /* \"#utility.yul\":10438:10444   */\n  dup9\n    /* \"#utility.yul\":10434:10448   */\n  mul\n    /* \"#utility.yul\":10430:10452   */\n  add\n    /* \"#utility.yul\":10424:10428   */\n  dup9\n    /* \"#utility.yul\":10417:10453   */\n  sstore\n    /* \"#utility.yul\":9852:10463   */\n  pop\n  pop\n  pop\n    /* \"#utility.yul\":9815:10702   */\ntag_186:\n  pop\n    /* \"#utility.yul\":9405:10708   */\n  pop\n  pop\n  pop\n    /* \"#utility.yul\":9313:10708   */\n  pop\n  pop\n  jump\t// out\n    /* \"#utility.yul\":10714:10883   */\ntag_62:\n    /* \"#utility.yul\":10798:10809   */\n  0x00\n    /* \"#utility.yul\":10832:10838   */\n  dup3\n    /* \"#utility.yul\":10827:10830   */\n  dup3\n    /* \"#utility.yul\":10820:10839   */\n  mstore\n    /* \"#utility.yul\":10872:10876   */\n  0x20\n    /* \"#utility.yul\":10867:10870   */\n  dup3\n    /* \"#utility.yul\":10863:10877   */\n  add\n    /* \"#utility.yul\":10848:10877   */\n  swap1\n  pop\n    /* \"#utility.yul\":10714:10883   */\n  swap3\n  swap2\n  pop\n  pop\n  jump\t// out\n    /* \"#utility.yul\":10889:11266   */\ntag_63:\n    /* \"#utility.yul\":10977:10980   */\n  0x00\n    /* \"#utility.yul\":11005:11044   */\n  tag_198\n    /* \"#utility.yul\":11038:11043   */\n  dup3\n    /* \"#utility.yul\":11005:11044   */\n  tag_44\n  jump\t// in\ntag_198:\n    /* \"#utility.yul\":11060:11131   */\n  tag_199\n    /* \"#utility.yul\":11124:11130   */\n  dup2\n    /* \"#utility.yul\":11119:11122   */\n  dup6\n    /* \"#utility.yul\":11060:11131   */\n  tag_62\n  jump\t// in\ntag_199:\n    /* \"#utility.yul\":11053:11131   */\n  swap4\n  pop\n    /* \"#utility.yul\":11140:11205   */\n  tag_200\n    /* \"#utility.yul\":11198:11204   */\n  dup2\n    /* \"#utility.yul\":11193:11196   */\n  dup6\n    /* \"#utility.yul\":11186:11190   */\n  0x20\n    /* \"#utility.yul\":11179:11184   */\n  dup7\n    /* \"#utility.yul\":11175:11191   */\n  add\n    /* \"#utility.yul\":11140:11205   */\n  tag_34\n  jump\t// in\ntag_200:\n    /* \"#utility.yul\":11230:11259   */\n  tag_201\n    /* \"#utility.yul\":11252:11258   */\n  dup2\n    /* \"#utility.yul\":11230:11259   */\n  tag_29\n  jump\t// in\ntag_201:\n    /* \"#utility.yul\":11225:11228   */\n  dup5\n    /* \"#utility.yul\":11221:11260   */\n  add\n    /* \"#utility.yul\":11214:11260   */\n  swap2\n  pop\n    /* \"#utility.yul\":10981:11266   */\n  pop\n    /* \"#utility.yul\":10889:11266   */\n  swap3\n  swap2\n  pop\n  pop\n  jump\t// out\n    /* \"#utility.yul\":11272:11390   */\ntag_64:\n    /* \"#utility.yul\":11359:11383   */\n  tag_203\n    /* \"#utility.yul\":11377:11382   */\n  dup2\n    /* \"#utility.yul\":11359:11383   */\n  tag_37\n  jump\t// in\ntag_203:\n    /* \"#utility.yul\":11354:11357   */\n  dup3\n    /* \"#utility.yul\":11347:11384   */\n  mstore\n    /* \"#utility.yul\":11272:11390   */\n  pop\n  pop\n  jump\t// out\n    /* \"#utility.yul\":11396:11505   */\ntag_65:\n    /* \"#utility.yul\":11477:11498   */\n  tag_205\n    /* \"#utility.yul\":11492:11497   */\n  dup2\n    /* \"#utility.yul\":11477:11498   */\n  tag_40\n  jump\t// in\ntag_205:\n    /* \"#utility.yul\":11472:11475   */\n  dup3\n    /* \"#utility.yul\":11465:11499   */\n  mstore\n    /* \"#utility.yul\":11396:11505   */\n  pop\n  pop\n  jump\t// out\n    /* \"#utility.yul\":11511:12254   */\ntag_18:\n    /* \"#utility.yul\":11730:11734   */\n  0x00\n    /* \"#utility.yul\":11768:11771   */\n  0xa0\n    /* \"#utility.yul\":11757:11766   */\n  dup3\n    /* \"#utility.yul\":11753:11772   */\n  add\n    /* \"#utility.yul\":11745:11772   */\n  swap1\n  pop\n    /* \"#utility.yul\":11818:11827   */\n  dup2\n    /* \"#utility.yul\":11812:11816   */\n  dup2\n    /* \"#utility.yul\":11808:11828   */\n  sub\n    /* \"#utility.yul\":11804:11805   */\n  0x00\n    /* \"#utility.yul\":11793:11802   */\n  dup4\n    /* \"#utility.yul\":11789:11806   */\n  add\n    /* \"#utility.yul\":11782:11829   */\n  mstore\n    /* \"#utility.yul\":11846:11924   */\n  tag_207\n    /* \"#utility.yul\":11919:11923   */\n  dup2\n    /* \"#utility.yul\":11910:11916   */\n  dup9\n    /* \"#utility.yul\":11846:11924   */\n  tag_63\n  jump\t// in\ntag_207:\n    /* \"#utility.yul\":11838:11924   */\n  swap1\n  pop\n    /* \"#utility.yul\":11934:12006   */\n  tag_208\n    /* \"#utility.yul\":12002:12004   */\n  0x20\n    /* \"#utility.yul\":11991:12000   */\n  dup4\n    /* \"#utility.yul\":11987:12005   */\n  add\n    /* \"#utility.yul\":11978:11984   */\n  dup8\n    /* \"#utility.yul\":11934:12006   */\n  tag_64\n  jump\t// in\ntag_208:\n    /* \"#utility.yul\":12016:12088   */\n  tag_209\n    /* \"#utility.yul\":12084:12086   */\n  0x40\n    /* \"#utility.yul\":12073:12082   */\n  dup4\n    /* \"#utility.yul\":12069:12087   */\n  add\n    /* \"#utility.yul\":12060:12066   */\n  dup7\n    /* \"#utility.yul\":12016:12088   */\n  tag_64\n  jump\t// in\ntag_209:\n    /* \"#utility.yul\":12098:12170   */\n  tag_210\n    /* \"#utility.yul\":12166:12168   */\n  0x60\n    /* \"#utility.yul\":12155:12164   */\n  dup4\n    /* \"#utility.yul\":12151:12169   */\n  add\n    /* \"#utility.yul\":12142:12148   */\n  dup6\n    /* \"#utility.yul\":12098:12170   */\n  tag_64\n  jump\t// in\ntag_210:\n    /* \"#utility.yul\":12180:12247   */\n  tag_211\n    /* \"#utility.yul\":12242:12245   */\n  0x80\n    /* \"#utility.yul\":12231:12240   */\n  dup4\n    /* \"#utility.yul\":12227:12246   */\n  add\n    /* \"#utility.yul\":12218:12224   */\n  dup5\n    /* \"#utility.yul\":12180:12247   */\n  tag_65\n  jump\t// in\ntag_211:\n    /* \"#utility.yul\":11511:12254   */\n  swap7\n  swap6\n  pop\n  pop\n  pop\n  pop\n  pop\n  pop\n  jump\t// out\n    /* \"blockchain/contracts/Polygon/Pool/Prototype/pool/state.sol\":2505:6981  contract State is IState, Safety, Authenticator {... */\ntag_19:\n  dataSize(sub_0)\n  dup1\n  dataOffset(sub_0)\n  0x00\n  codecopy\n  0x00\n  return\nstop\n\nsub_0: assembly {\n        /* \"blockchain/contracts/Polygon/Pool/Prototype/pool/state.sol\":2505:6981  contract State is IState, Safety, Authenticator {... */\n      mstore(0x40, 0x80)\n      callvalue\n      dup1\n      iszero\n      tag_1\n      jumpi\n      0x00\n      dup1\n      revert\n    tag_1:\n      pop\n      jumpi(tag_2, lt(calldatasize, 0x04))\n      shr(0xe0, calldataload(0x00))\n      dup1\n      0x728c844b\n      gt\n      tag_12\n      jumpi\n      dup1\n      0x728c844b\n      eq\n      tag_7\n      jumpi\n      dup1\n      0x9fa60218\n      eq\n      tag_8\n      jumpi\n      dup1\n      0xa3691c70\n      eq\n      tag_9\n      jumpi\n      dup1\n      0xb48ab19c\n      eq\n      tag_10\n      jumpi\n      dup1\n      0xff5d6b62\n      eq\n      tag_11\n      jumpi\n      jump(tag_2)\n    tag_12:\n      dup1\n      0x0c0a8f24\n      eq\n      tag_3\n      jumpi\n      dup1\n      0x2e1a7d4d\n      eq\n      tag_4\n      jumpi\n      dup1\n      0x5936f067\n      eq\n      tag_5\n      jumpi\n      dup1\n      0x6f6752fe\n      eq\n      tag_6\n      jumpi\n    tag_2:\n      0x00\n      dup1\n      revert\n        /* \"blockchain/contracts/Polygon/Pool/Prototype/pool/state.sol\":4492:4758  function pull_profile(address _address) public view returns (... */\n    tag_3:\n      tag_13\n      0x04\n      dup1\n      calldatasize\n      sub\n      dup2\n      add\n      swap1\n      tag_14\n      swap2\n      swap1\n      tag_15\n      jump\t// in\n    tag_14:\n      tag_16\n      jump\t// in\n    tag_13:\n      mload(0x40)\n      tag_17\n      swap4\n      swap3\n      swap2\n      swap1\n      tag_18\n      jump\t// in\n    tag_17:\n      mload(0x40)\n      dup1\n      swap2\n      sub\n      swap1\n      return\n        /* \"blockchain/contracts/Polygon/Pool/Prototype/pool/state.sol\":4764:4926  function withdraw(uint256 _value_in_wei) public only_logic one_at_a_time {... */\n    tag_4:\n      tag_19\n      0x04\n      dup1\n      calldatasize\n      sub\n      dup2\n      add\n      swap1\n      tag_20\n      swap2\n      swap1\n      tag_21\n      jump\t// in\n    tag_20:\n      tag_22\n      jump\t// in\n    tag_19:\n      stop\n        /* \"blockchain/contracts/Polygon/Pool/Prototype/pool/state.sol\":5619:6157  function push_launch(... */\n    tag_5:\n      tag_23\n      0x04\n      dup1\n      calldatasize\n      sub\n      dup2\n      add\n      swap1\n      tag_24\n      swap2\n      swap1\n      tag_25\n      jump\t// in\n    tag_24:\n      tag_26\n      jump\t// in\n    tag_23:\n      stop\n        /* \"blockchain/contracts/Polygon/Pool/Prototype/pool/state.sol\":5408:5613  function pull_authenticator() public view returns (... */\n    tag_6:\n      tag_27\n      tag_28\n      jump\t// in\n    tag_27:\n      mload(0x40)\n      tag_29\n      swap4\n      swap3\n      swap2\n      swap1\n      tag_30\n      jump\t// in\n    tag_29:\n      mload(0x40)\n      dup1\n      swap2\n      sub\n      swap1\n      return\n        /* \"blockchain/contracts/Polygon/Pool/Prototype/pool/state.sol\":6813:6979  function pull_yield() public view returns (... */\n    tag_7:\n      tag_31\n      tag_32\n      jump\t// in\n    tag_31:\n      mload(0x40)\n      tag_33\n      swap3\n      swap2\n      swap1\n      tag_34\n      jump\t// in\n    tag_33:\n      mload(0x40)\n      dup1\n      swap2\n      sub\n      swap1\n      return\n        /* \"blockchain/contracts/Polygon/Pool/Prototype/pool/state.sol\":4019:4486  function push_profile(... */\n    tag_8:\n      tag_35\n      0x04\n      dup1\n      calldatasize\n      sub\n      dup2\n      add\n      swap1\n      tag_36\n      swap2\n      swap1\n      tag_37\n      jump\t// in\n    tag_36:\n      tag_38\n      jump\t// in\n    tag_35:\n      stop\n        /* \"blockchain/contracts/Polygon/Pool/Prototype/pool/state.sol\":6472:6807  function push_yield(... */\n    tag_9:\n      tag_39\n      0x04\n      dup1\n      calldatasize\n      sub\n      dup2\n      add\n      swap1\n      tag_40\n      swap2\n      swap1\n      tag_41\n      jump\t// in\n    tag_40:\n      tag_42\n      jump\t// in\n    tag_39:\n      stop\n        /* \"blockchain/contracts/Polygon/Pool/Prototype/pool/state.sol\":4932:5402  function push_authenticator(... */\n    tag_10:\n      tag_43\n      0x04\n      dup1\n      calldatasize\n      sub\n      dup2\n      add\n      swap1\n      tag_44\n      swap2\n      swap1\n      tag_45\n      jump\t// in\n    tag_44:\n      tag_46\n      jump\t// in\n    tag_43:\n      stop\n        /* \"blockchain/contracts/Polygon/Pool/Prototype/pool/state.sol\":6163:6466  function pull_launch() public view returns (... */\n    tag_11:\n      tag_47\n      tag_48\n      jump\t// in\n    tag_47:\n      mload(0x40)\n      tag_49\n      swap6\n      swap5\n      swap4\n      swap3\n      swap2\n      swap1\n      tag_50\n      jump\t// in\n    tag_49:\n      mload(0x40)\n      dup1\n      swap2\n      sub\n      swap1\n      return\n        /* \"blockchain/contracts/Polygon/Pool/Prototype/pool/state.sol\":4492:4758  function pull_profile(address _address) public view returns (... */\n    tag_16:\n        /* \"blockchain/contracts/Polygon/Pool/Prototype/pool/state.sol\":4562:4566  bool */\n      0x00\n        /* \"blockchain/contracts/Polygon/Pool/Prototype/pool/state.sol\":4576:4580  bool */\n      dup1\n        /* \"blockchain/contracts/Polygon/Pool/Prototype/pool/state.sol\":4590:4597  uint256 */\n      0x00\n        /* \"blockchain/contracts/Polygon/Pool/Prototype/pool/state.sol\":4635:4645  is_manager */\n      0x04\n        /* \"blockchain/contracts/Polygon/Pool/Prototype/pool/state.sol\":4635:4661  is_manager      [_address] */\n      0x00\n        /* \"blockchain/contracts/Polygon/Pool/Prototype/pool/state.sol\":4652:4660  _address */\n      dup6\n        /* \"blockchain/contracts/Polygon/Pool/Prototype/pool/state.sol\":4635:4661  is_manager      [_address] */\n      0xffffffffffffffffffffffffffffffffffffffff\n      and\n      0xffffffffffffffffffffffffffffffffffffffff\n      and\n      dup2\n      mstore\n      0x20\n      add\n      swap1\n      dup2\n      mstore\n      0x20\n      add\n      0x00\n      keccak256\n      0x00\n      swap1\n      sload\n      swap1\n      0x0100\n      exp\n      swap1\n      div\n      0xff\n      and\n        /* \"blockchain/contracts/Polygon/Pool/Prototype/pool/state.sol\":4675:4690  is_on_Whitelist */\n      0x05\n        /* \"blockchain/contracts/Polygon/Pool/Prototype/pool/state.sol\":4675:4701  is_on_Whitelist [_address] */\n      0x00\n        /* \"blockchain/contracts/Polygon/Pool/Prototype/pool/state.sol\":4692:4700  _address */\n      dup7\n        /* \"blockchain/contracts/Polygon/Pool/Prototype/pool/state.sol\":4675:4701  is_on_Whitelist [_address] */\n      0xffffffffffffffffffffffffffffffffffffffff\n      and\n      0xffffffffffffffffffffffffffffffffffffffff\n      and\n      dup2\n      mstore\n      0x20\n      add\n      swap1\n      dup2\n      mstore\n      0x20\n      add\n      0x00\n      keccak256\n      0x00\n      swap1\n      sload\n      swap1\n      0x0100\n      exp\n      swap1\n      div\n      0xff\n      and\n        /* \"blockchain/contracts/Polygon/Pool/Prototype/pool/state.sol\":4715:4719  flux */\n      0x06\n        /* \"blockchain/contracts/Polygon/Pool/Prototype/pool/state.sol\":4715:4741  flux            [_address] */\n      0x00\n        /* \"blockchain/contracts/Polygon/Pool/Prototype/pool/state.sol\":4732:4740  _address */\n      dup8\n        /* \"blockchain/contracts/Polygon/Pool/Prototype/pool/state.sol\":4715:4741  flux            [_address] */\n      0xffffffffffffffffffffffffffffffffffffffff\n      and\n      0xffffffffffffffffffffffffffffffffffffffff\n      and\n      dup2\n      mstore\n      0x20\n      add\n      swap1\n      dup2\n      mstore\n      0x20\n      add\n      0x00\n      keccak256\n      sload\n        /* \"blockchain/contracts/Polygon/Pool/Prototype/pool/state.sol\":4614:4751  return (... */\n      swap3\n      pop\n      swap3\n      pop\n      swap3\n      pop\n        /* \"blockchain/contracts/Polygon/Pool/Prototype/pool/state.sol\":4492:4758  function pull_profile(address _address) public view returns (... */\n      swap2\n      swap4\n      swap1\n      swap3\n      pop\n      jump\t// out\n        /* \"blockchain/contracts/Polygon/Pool/Prototype/pool/state.sol\":4764:4926  function withdraw(uint256 _value_in_wei) public only_logic one_at_a_time {... */\n    tag_22:\n        /* \"blockchain/contracts/Polygon/Pool/Prototype/pool/state.sol\":2258:2263  logic */\n      0x00\n      0x01\n      swap1\n      sload\n      swap1\n      0x0100\n      exp\n      swap1\n      div\n      0xffffffffffffffffffffffffffffffffffffffff\n      and\n        /* \"blockchain/contracts/Polygon/Pool/Prototype/pool/state.sol\":2245:2263  msg.sender ==logic */\n      0xffffffffffffffffffffffffffffffffffffffff\n      and\n        /* \"blockchain/contracts/Polygon/Pool/Prototype/pool/state.sol\":2245:2255  msg.sender */\n      caller\n        /* \"blockchain/contracts/Polygon/Pool/Prototype/pool/state.sol\":2245:2263  msg.sender ==logic */\n      0xffffffffffffffffffffffffffffffffffffffff\n      and\n      eq\n        /* \"blockchain/contracts/Polygon/Pool/Prototype/pool/state.sol\":2237:2264  require(msg.sender ==logic) */\n      tag_53\n      jumpi\n      0x00\n      dup1\n      revert\n    tag_53:\n        /* \"blockchain/contracts/Polygon/Pool/Prototype/pool/state.sol\":2084:2089  false */\n      0x00\n        /* \"blockchain/contracts/Polygon/Pool/Prototype/pool/state.sol\":2075:2089  locked ==false */\n      iszero\n      iszero\n        /* \"blockchain/contracts/Polygon/Pool/Prototype/pool/state.sol\":2075:2081  locked */\n      0x00\n      dup1\n      sload\n      swap1\n      0x0100\n      exp\n      swap1\n      div\n      0xff\n      and\n        /* \"blockchain/contracts/Polygon/Pool/Prototype/pool/state.sol\":2075:2089  locked ==false */\n      iszero\n      iszero\n      eq\n        /* \"blockchain/contracts/Polygon/Pool/Prototype/pool/state.sol\":2067:2090  require(locked ==false) */\n      tag_55\n      jumpi\n      0x00\n      dup1\n      revert\n    tag_55:\n        /* \"blockchain/contracts/Polygon/Pool/Prototype/pool/state.sol\":2108:2112  true */\n      0x01\n        /* \"blockchain/contracts/Polygon/Pool/Prototype/pool/state.sol\":2100:2106  locked */\n      0x00\n      dup1\n        /* \"blockchain/contracts/Polygon/Pool/Prototype/pool/state.sol\":2100:2112  locked =true */\n      0x0100\n      exp\n      dup2\n      sload\n      dup2\n      0xff\n      mul\n      not\n      and\n      swap1\n      dup4\n      iszero\n      iszero\n      mul\n      or\n      swap1\n      sstore\n      pop\n        /* \"blockchain/contracts/Polygon/Pool/Prototype/pool/state.sol\":4847:4866  address payable _to */\n      0x00\n        /* \"blockchain/contracts/Polygon/Pool/Prototype/pool/state.sol\":4876:4881  logic */\n      dup1\n      0x01\n      swap1\n      sload\n      swap1\n      0x0100\n      exp\n      swap1\n      div\n      0xffffffffffffffffffffffffffffffffffffffff\n      and\n        /* \"blockchain/contracts/Polygon/Pool/Prototype/pool/state.sol\":4847:4882  address payable _to =payable(logic) */\n      swap1\n      pop\n        /* \"blockchain/contracts/Polygon/Pool/Prototype/pool/state.sol\":4892:4895  _to */\n      dup1\n        /* \"blockchain/contracts/Polygon/Pool/Prototype/pool/state.sol\":4892:4904  _to.transfer */\n      0xffffffffffffffffffffffffffffffffffffffff\n      and\n        /* \"blockchain/contracts/Polygon/Pool/Prototype/pool/state.sol\":4892:4919  _to.transfer(_value_in_wei) */\n      0x08fc\n        /* \"blockchain/contracts/Polygon/Pool/Prototype/pool/state.sol\":4905:4918  _value_in_wei */\n      dup4\n        /* \"blockchain/contracts/Polygon/Pool/Prototype/pool/state.sol\":4892:4919  _to.transfer(_value_in_wei) */\n      swap1\n      dup2\n      iszero\n      mul\n      swap1\n      mload(0x40)\n      0x00\n      mload(0x40)\n      dup1\n      dup4\n      sub\n      dup2\n      dup6\n      dup9\n      dup9\n      call\n      swap4\n      pop\n      pop\n      pop\n      pop\n      iszero\n      dup1\n      iszero\n      tag_58\n      jumpi\n      returndatasize\n      0x00\n      dup1\n      returndatacopy\n      revert(0x00, returndatasize)\n    tag_58:\n      pop\n        /* \"blockchain/contracts/Polygon/Pool/Prototype/pool/state.sol\":4837:4926  {... */\n      pop\n        /* \"blockchain/contracts/Polygon/Pool/Prototype/pool/state.sol\":2141:2146  false */\n      0x00\n        /* \"blockchain/contracts/Polygon/Pool/Prototype/pool/state.sol\":2133:2139  locked */\n      dup1\n      0x00\n        /* \"blockchain/contracts/Polygon/Pool/Prototype/pool/state.sol\":2133:2146  locked =false */\n      0x0100\n      exp\n      dup2\n      sload\n      dup2\n      0xff\n      mul\n      not\n      and\n      swap1\n      dup4\n      iszero\n      iszero\n      mul\n      or\n      swap1\n      sstore\n      pop\n        /* \"blockchain/contracts/Polygon/Pool/Prototype/pool/state.sol\":4764:4926  function withdraw(uint256 _value_in_wei) public only_logic one_at_a_time {... */\n      pop\n      jump\t// out\n        /* \"blockchain/contracts/Polygon/Pool/Prototype/pool/state.sol\":5619:6157  function push_launch(... */\n    tag_26:\n        /* \"blockchain/contracts/Polygon/Pool/Prototype/pool/state.sol\":2258:2263  logic */\n      0x00\n      0x01\n      swap1\n      sload\n      swap1\n      0x0100\n      exp\n      swap1\n      div\n      0xffffffffffffffffffffffffffffffffffffffff\n      and\n        /* \"blockchain/contracts/Polygon/Pool/Prototype/pool/state.sol\":2245:2263  msg.sender ==logic */\n      0xffffffffffffffffffffffffffffffffffffffff\n      and\n        /* \"blockchain/contracts/Polygon/Pool/Prototype/pool/state.sol\":2245:2255  msg.sender */\n      caller\n        /* \"blockchain/contracts/Polygon/Pool/Prototype/pool/state.sol\":2245:2263  msg.sender ==logic */\n      0xffffffffffffffffffffffffffffffffffffffff\n      and\n      eq\n        /* \"blockchain/contracts/Polygon/Pool/Prototype/pool/state.sol\":2237:2264  require(msg.sender ==logic) */\n      tag_60\n      jumpi\n      0x00\n      dup1\n      revert\n    tag_60:\n        /* \"blockchain/contracts/Polygon/Pool/Prototype/pool/state.sol\":2084:2089  false */\n      0x00\n        /* \"blockchain/contracts/Polygon/Pool/Prototype/pool/state.sol\":2075:2089  locked ==false */\n      iszero\n      iszero\n        /* \"blockchain/contracts/Polygon/Pool/Prototype/pool/state.sol\":2075:2081  locked */\n      0x00\n      dup1\n      sload\n      swap1\n      0x0100\n      exp\n      swap1\n      div\n      0xff\n      and\n        /* \"blockchain/contracts/Polygon/Pool/Prototype/pool/state.sol\":2075:2089  locked ==false */\n      iszero\n      iszero\n      eq\n        /* \"blockchain/contracts/Polygon/Pool/Prototype/pool/state.sol\":2067:2090  require(locked ==false) */\n      tag_62\n      jumpi\n      0x00\n      dup1\n      revert\n    tag_62:\n        /* \"blockchain/contracts/Polygon/Pool/Prototype/pool/state.sol\":2108:2112  true */\n      0x01\n        /* \"blockchain/contracts/Polygon/Pool/Prototype/pool/state.sol\":2100:2106  locked */\n      0x00\n      dup1\n        /* \"blockchain/contracts/Polygon/Pool/Prototype/pool/state.sol\":2100:2112  locked =true */\n      0x0100\n      exp\n      dup2\n      sload\n      dup2\n      0xff\n      mul\n      not\n      and\n      swap1\n      dup4\n      iszero\n      iszero\n      mul\n      or\n      swap1\n      sstore\n      pop\n        /* \"blockchain/contracts/Polygon/Pool/Prototype/pool/state.sol\":5834:5840  _start */\n      dup5\n        /* \"blockchain/contracts/Polygon/Pool/Prototype/pool/state.sol\":5812:5818  launch */\n      0x07\n        /* \"blockchain/contracts/Polygon/Pool/Prototype/pool/state.sol\":5812:5824  launch.start */\n      0x00\n      add\n        /* \"blockchain/contracts/Polygon/Pool/Prototype/pool/state.sol\":5812:5840  launch.start         =_start */\n      dup2\n      swap1\n      sstore\n      pop\n        /* \"blockchain/contracts/Polygon/Pool/Prototype/pool/state.sol\":5872:5876  _end */\n      dup4\n        /* \"blockchain/contracts/Polygon/Pool/Prototype/pool/state.sol\":5850:5856  launch */\n      0x07\n        /* \"blockchain/contracts/Polygon/Pool/Prototype/pool/state.sol\":5850:5860  launch.end */\n      0x01\n      add\n        /* \"blockchain/contracts/Polygon/Pool/Prototype/pool/state.sol\":5850:5876  launch.end           =_end */\n      dup2\n      swap1\n      sstore\n      pop\n        /* \"blockchain/contracts/Polygon/Pool/Prototype/pool/state.sol\":5908:5917  _required */\n      dup3\n        /* \"blockchain/contracts/Polygon/Pool/Prototype/pool/state.sol\":5886:5892  launch */\n      0x07\n        /* \"blockchain/contracts/Polygon/Pool/Prototype/pool/state.sol\":5886:5901  launch.required */\n      0x02\n      add\n        /* \"blockchain/contracts/Polygon/Pool/Prototype/pool/state.sol\":5886:5917  launch.required      =_required */\n      dup2\n      swap1\n      sstore\n      pop\n        /* \"blockchain/contracts/Polygon/Pool/Prototype/pool/state.sol\":5949:5961  _whitelisted */\n      dup2\n        /* \"blockchain/contracts/Polygon/Pool/Prototype/pool/state.sol\":5927:5933  launch */\n      0x07\n        /* \"blockchain/contracts/Polygon/Pool/Prototype/pool/state.sol\":5927:5945  launch.whitelisted */\n      0x03\n      add\n      0x00\n        /* \"blockchain/contracts/Polygon/Pool/Prototype/pool/state.sol\":5927:5961  launch.whitelisted   =_whitelisted */\n      0x0100\n      exp\n      dup2\n      sload\n      dup2\n      0xff\n      mul\n      not\n      and\n      swap1\n      dup4\n      iszero\n      iszero\n      mul\n      or\n      swap1\n      sstore\n      pop\n        /* \"blockchain/contracts/Polygon/Pool/Prototype/pool/state.sol\":5993:6001  _success */\n      dup1\n        /* \"blockchain/contracts/Polygon/Pool/Prototype/pool/state.sol\":5971:5977  launch */\n      0x07\n        /* \"blockchain/contracts/Polygon/Pool/Prototype/pool/state.sol\":5971:5985  launch.success */\n      0x03\n      add\n      0x01\n        /* \"blockchain/contracts/Polygon/Pool/Prototype/pool/state.sol\":5971:6001  launch.success       =_success */\n      0x0100\n      exp\n      dup2\n      sload\n      dup2\n      0xff\n      mul\n      not\n      and\n      swap1\n      dup4\n      iszero\n      iszero\n      mul\n      or\n      swap1\n      sstore\n      pop\n        /* \"blockchain/contracts/Polygon/Pool/Prototype/pool/state.sol\":6017:6150  UpdateToLaunch(... */\n      0x5f3a6e7a9309e860fa0c5f7d649c831e3fbce430b835da14e1f7eee23861de67\n        /* \"blockchain/contracts/Polygon/Pool/Prototype/pool/state.sol\":6045:6051  _start */\n      dup6\n        /* \"blockchain/contracts/Polygon/Pool/Prototype/pool/state.sol\":6065:6069  _end */\n      dup6\n        /* \"blockchain/contracts/Polygon/Pool/Prototype/pool/state.sol\":6083:6092  _required */\n      dup6\n        /* \"blockchain/contracts/Polygon/Pool/Prototype/pool/state.sol\":6106:6118  _whitelisted */\n      dup6\n        /* \"blockchain/contracts/Polygon/Pool/Prototype/pool/state.sol\":6132:6140  _success */\n      dup6\n        /* \"blockchain/contracts/Polygon/Pool/Prototype/pool/state.sol\":6017:6150  UpdateToLaunch(... */\n      mload(0x40)\n      tag_64\n      swap6\n      swap5\n      swap4\n      swap3\n      swap2\n      swap1\n      tag_50\n      jump\t// in\n    tag_64:\n      mload(0x40)\n      dup1\n      swap2\n      sub\n      swap1\n      log1\n        /* \"blockchain/contracts/Polygon/Pool/Prototype/pool/state.sol\":2141:2146  false */\n      0x00\n        /* \"blockchain/contracts/Polygon/Pool/Prototype/pool/state.sol\":2133:2139  locked */\n      dup1\n      0x00\n        /* \"blockchain/contracts/Polygon/Pool/Prototype/pool/state.sol\":2133:2146  locked =false */\n      0x0100\n      exp\n      dup2\n      sload\n      dup2\n      0xff\n      mul\n      not\n      and\n      swap1\n      dup4\n      iszero\n      iszero\n      mul\n      or\n      swap1\n      sstore\n      pop\n        /* \"blockchain/contracts/Polygon/Pool/Prototype/pool/state.sol\":5619:6157  function push_launch(... */\n      pop\n      pop\n      pop\n      pop\n      pop\n      jump\t// out\n        /* \"blockchain/contracts/Polygon/Pool/Prototype/pool/state.sol\":5408:5613  function pull_authenticator() public view returns (... */\n    tag_28:\n        /* \"blockchain/contracts/Polygon/Pool/Prototype/pool/state.sol\":5468:5475  address */\n      0x00\n        /* \"blockchain/contracts/Polygon/Pool/Prototype/pool/state.sol\":5485:5492  address */\n      dup1\n        /* \"blockchain/contracts/Polygon/Pool/Prototype/pool/state.sol\":5502:5509  address */\n      0x00\n        /* \"blockchain/contracts/Polygon/Pool/Prototype/pool/state.sol\":5548:5553  logic */\n      dup1\n      0x01\n      swap1\n      sload\n      swap1\n      0x0100\n      exp\n      swap1\n      div\n      0xffffffffffffffffffffffffffffffffffffffff\n      and\n        /* \"blockchain/contracts/Polygon/Pool/Prototype/pool/state.sol\":5567:5574  creator */\n      0x01\n      0x00\n      swap1\n      sload\n      swap1\n      0x0100\n      exp\n      swap1\n      div\n      0xffffffffffffffffffffffffffffffffffffffff\n      and\n        /* \"blockchain/contracts/Polygon/Pool/Prototype/pool/state.sol\":5588:5596  governor */\n      0x02\n      0x00\n      swap1\n      sload\n      swap1\n      0x0100\n      exp\n      swap1\n      div\n      0xffffffffffffffffffffffffffffffffffffffff\n      and\n        /* \"blockchain/contracts/Polygon/Pool/Prototype/pool/state.sol\":5527:5606  return (... */\n      swap3\n      pop\n      swap3\n      pop\n      swap3\n      pop\n        /* \"blockchain/contracts/Polygon/Pool/Prototype/pool/state.sol\":5408:5613  function pull_authenticator() public view returns (... */\n      swap1\n      swap2\n      swap3\n      jump\t// out\n        /* \"blockchain/contracts/Polygon/Pool/Prototype/pool/state.sol\":6813:6979  function pull_yield() public view returns (... */\n    tag_32:\n        /* \"blockchain/contracts/Polygon/Pool/Prototype/pool/state.sol\":6865:6872  uint256 */\n      0x00\n        /* \"blockchain/contracts/Polygon/Pool/Prototype/pool/state.sol\":6882:6889  uint256 */\n      dup1\n        /* \"blockchain/contracts/Polygon/Pool/Prototype/pool/state.sol\":6928:6933  yield */\n      0x0b\n        /* \"blockchain/contracts/Polygon/Pool/Prototype/pool/state.sol\":6928:6939  yield.start */\n      0x00\n      add\n      sload\n        /* \"blockchain/contracts/Polygon/Pool/Prototype/pool/state.sol\":6953:6958  yield */\n      0x0b\n        /* \"blockchain/contracts/Polygon/Pool/Prototype/pool/state.sol\":6953:6962  yield.end */\n      0x01\n      add\n      sload\n        /* \"blockchain/contracts/Polygon/Pool/Prototype/pool/state.sol\":6907:6972  return (... */\n      swap2\n      pop\n      swap2\n      pop\n        /* \"blockchain/contracts/Polygon/Pool/Prototype/pool/state.sol\":6813:6979  function pull_yield() public view returns (... */\n      swap1\n      swap2\n      jump\t// out\n        /* \"blockchain/contracts/Polygon/Pool/Prototype/pool/state.sol\":4019:4486  function push_profile(... */\n    tag_38:\n        /* \"blockchain/contracts/Polygon/Pool/Prototype/pool/state.sol\":2258:2263  logic */\n      0x00\n      0x01\n      swap1\n      sload\n      swap1\n      0x0100\n      exp\n      swap1\n      div\n      0xffffffffffffffffffffffffffffffffffffffff\n      and\n        /* \"blockchain/contracts/Polygon/Pool/Prototype/pool/state.sol\":2245:2263  msg.sender ==logic */\n      0xffffffffffffffffffffffffffffffffffffffff\n      and\n        /* \"blockchain/contracts/Polygon/Pool/Prototype/pool/state.sol\":2245:2255  msg.sender */\n      caller\n        /* \"blockchain/contracts/Polygon/Pool/Prototype/pool/state.sol\":2245:2263  msg.sender ==logic */\n      0xffffffffffffffffffffffffffffffffffffffff\n      and\n      eq\n        /* \"blockchain/contracts/Polygon/Pool/Prototype/pool/state.sol\":2237:2264  require(msg.sender ==logic) */\n      tag_68\n      jumpi\n      0x00\n      dup1\n      revert\n    tag_68:\n        /* \"blockchain/contracts/Polygon/Pool/Prototype/pool/state.sol\":2084:2089  false */\n      0x00\n        /* \"blockchain/contracts/Polygon/Pool/Prototype/pool/state.sol\":2075:2089  locked ==false */\n      iszero\n      iszero\n        /* \"blockchain/contracts/Polygon/Pool/Prototype/pool/state.sol\":2075:2081  locked */\n      0x00\n      dup1\n      sload\n      swap1\n      0x0100\n      exp\n      swap1\n      div\n      0xff\n      and\n        /* \"blockchain/contracts/Polygon/Pool/Prototype/pool/state.sol\":2075:2089  locked ==false */\n      iszero\n      iszero\n      eq\n        /* \"blockchain/contracts/Polygon/Pool/Prototype/pool/state.sol\":2067:2090  require(locked ==false) */\n      tag_70\n      jumpi\n      0x00\n      dup1\n      revert\n    tag_70:\n        /* \"blockchain/contracts/Polygon/Pool/Prototype/pool/state.sol\":2108:2112  true */\n      0x01\n        /* \"blockchain/contracts/Polygon/Pool/Prototype/pool/state.sol\":2100:2106  locked */\n      0x00\n      dup1\n        /* \"blockchain/contracts/Polygon/Pool/Prototype/pool/state.sol\":2100:2112  locked =true */\n      0x0100\n      exp\n      dup2\n      sload\n      dup2\n      0xff\n      mul\n      not\n      and\n      swap1\n      dup4\n      iszero\n      iszero\n      mul\n      or\n      swap1\n      sstore\n      pop\n        /* \"blockchain/contracts/Polygon/Pool/Prototype/pool/state.sol\":4234:4245  _is_manager */\n      dup3\n        /* \"blockchain/contracts/Polygon/Pool/Prototype/pool/state.sol\":4206:4216  is_manager */\n      0x04\n        /* \"blockchain/contracts/Polygon/Pool/Prototype/pool/state.sol\":4206:4232  is_manager      [_address] */\n      0x00\n        /* \"blockchain/contracts/Polygon/Pool/Prototype/pool/state.sol\":4223:4231  _address */\n      dup7\n        /* \"blockchain/contracts/Polygon/Pool/Prototype/pool/state.sol\":4206:4232  is_manager      [_address] */\n      0xffffffffffffffffffffffffffffffffffffffff\n      and\n      0xffffffffffffffffffffffffffffffffffffffff\n      and\n      dup2\n      mstore\n      0x20\n      add\n      swap1\n      dup2\n      mstore\n      0x20\n      add\n      0x00\n      keccak256\n      0x00\n        /* \"blockchain/contracts/Polygon/Pool/Prototype/pool/state.sol\":4206:4245  is_manager      [_address] =_is_manager */\n      0x0100\n      exp\n      dup2\n      sload\n      dup2\n      0xff\n      mul\n      not\n      and\n      swap1\n      dup4\n      iszero\n      iszero\n      mul\n      or\n      swap1\n      sstore\n      pop\n        /* \"blockchain/contracts/Polygon/Pool/Prototype/pool/state.sol\":4283:4299  _is_on_whitelist */\n      dup2\n        /* \"blockchain/contracts/Polygon/Pool/Prototype/pool/state.sol\":4255:4270  is_on_Whitelist */\n      0x05\n        /* \"blockchain/contracts/Polygon/Pool/Prototype/pool/state.sol\":4255:4281  is_on_Whitelist [_address] */\n      0x00\n        /* \"blockchain/contracts/Polygon/Pool/Prototype/pool/state.sol\":4272:4280  _address */\n      dup7\n        /* \"blockchain/contracts/Polygon/Pool/Prototype/pool/state.sol\":4255:4281  is_on_Whitelist [_address] */\n      0xffffffffffffffffffffffffffffffffffffffff\n      and\n      0xffffffffffffffffffffffffffffffffffffffff\n      and\n      dup2\n      mstore\n      0x20\n      add\n      swap1\n      dup2\n      mstore\n      0x20\n      add\n      0x00\n      keccak256\n      0x00\n        /* \"blockchain/contracts/Polygon/Pool/Prototype/pool/state.sol\":4255:4299  is_on_Whitelist [_address] =_is_on_whitelist */\n      0x0100\n      exp\n      dup2\n      sload\n      dup2\n      0xff\n      mul\n      not\n      and\n      swap1\n      dup4\n      iszero\n      iszero\n      mul\n      or\n      swap1\n      sstore\n      pop\n        /* \"blockchain/contracts/Polygon/Pool/Prototype/pool/state.sol\":4337:4342  _flux */\n      dup1\n        /* \"blockchain/contracts/Polygon/Pool/Prototype/pool/state.sol\":4309:4313  flux */\n      0x06\n        /* \"blockchain/contracts/Polygon/Pool/Prototype/pool/state.sol\":4309:4335  flux            [_address] */\n      0x00\n        /* \"blockchain/contracts/Polygon/Pool/Prototype/pool/state.sol\":4326:4334  _address */\n      dup7\n        /* \"blockchain/contracts/Polygon/Pool/Prototype/pool/state.sol\":4309:4335  flux            [_address] */\n      0xffffffffffffffffffffffffffffffffffffffff\n      and\n      0xffffffffffffffffffffffffffffffffffffffff\n      and\n      dup2\n      mstore\n      0x20\n      add\n      swap1\n      dup2\n      mstore\n      0x20\n      add\n      0x00\n      keccak256\n        /* \"blockchain/contracts/Polygon/Pool/Prototype/pool/state.sol\":4309:4342  flux            [_address] =_flux */\n      dup2\n      swap1\n      sstore\n      pop\n        /* \"blockchain/contracts/Polygon/Pool/Prototype/pool/state.sol\":4387:4395  _address */\n      dup4\n        /* \"blockchain/contracts/Polygon/Pool/Prototype/pool/state.sol\":4358:4479  UpdateToProfile(... */\n      0xffffffffffffffffffffffffffffffffffffffff\n      and\n      0xba39a5d1d0f136d3d3d54d8197e91c85ec53cf01ee31cafe0f824f3b160b157e\n        /* \"blockchain/contracts/Polygon/Pool/Prototype/pool/state.sol\":4409:4420  _is_manager */\n      dup5\n        /* \"blockchain/contracts/Polygon/Pool/Prototype/pool/state.sol\":4434:4450  _is_on_whitelist */\n      dup5\n        /* \"blockchain/contracts/Polygon/Pool/Prototype/pool/state.sol\":4464:4469  _flux */\n      dup5\n        /* \"blockchain/contracts/Polygon/Pool/Prototype/pool/state.sol\":4358:4479  UpdateToProfile(... */\n      mload(0x40)\n      tag_72\n      swap4\n      swap3\n      swap2\n      swap1\n      tag_18\n      jump\t// in\n    tag_72:\n      mload(0x40)\n      dup1\n      swap2\n      sub\n      swap1\n      log2\n        /* \"blockchain/contracts/Polygon/Pool/Prototype/pool/state.sol\":2141:2146  false */\n      0x00\n        /* \"blockchain/contracts/Polygon/Pool/Prototype/pool/state.sol\":2133:2139  locked */\n      dup1\n      0x00\n        /* \"blockchain/contracts/Polygon/Pool/Prototype/pool/state.sol\":2133:2146  locked =false */\n      0x0100\n      exp\n      dup2\n      sload\n      dup2\n      0xff\n      mul\n      not\n      and\n      swap1\n      dup4\n      iszero\n      iszero\n      mul\n      or\n      swap1\n      sstore\n      pop\n        /* \"blockchain/contracts/Polygon/Pool/Prototype/pool/state.sol\":4019:4486  function push_profile(... */\n      pop\n      pop\n      pop\n      pop\n      jump\t// out\n        /* \"blockchain/contracts/Polygon/Pool/Prototype/pool/state.sol\":6472:6807  function push_yield(... */\n    tag_42:\n        /* \"blockchain/contracts/Polygon/Pool/Prototype/pool/state.sol\":2258:2263  logic */\n      0x00\n      0x01\n      swap1\n      sload\n      swap1\n      0x0100\n      exp\n      swap1\n      div\n      0xffffffffffffffffffffffffffffffffffffffff\n      and\n        /* \"blockchain/contracts/Polygon/Pool/Prototype/pool/state.sol\":2245:2263  msg.sender ==logic */\n      0xffffffffffffffffffffffffffffffffffffffff\n      and\n        /* \"blockchain/contracts/Polygon/Pool/Prototype/pool/state.sol\":2245:2255  msg.sender */\n      caller\n        /* \"blockchain/contracts/Polygon/Pool/Prototype/pool/state.sol\":2245:2263  msg.sender ==logic */\n      0xffffffffffffffffffffffffffffffffffffffff\n      and\n      eq\n        /* \"blockchain/contracts/Polygon/Pool/Prototype/pool/state.sol\":2237:2264  require(msg.sender ==logic) */\n      tag_74\n      jumpi\n      0x00\n      dup1\n      revert\n    tag_74:\n        /* \"blockchain/contracts/Polygon/Pool/Prototype/pool/state.sol\":2084:2089  false */\n      0x00\n        /* \"blockchain/contracts/Polygon/Pool/Prototype/pool/state.sol\":2075:2089  locked ==false */\n      iszero\n      iszero\n        /* \"blockchain/contracts/Polygon/Pool/Prototype/pool/state.sol\":2075:2081  locked */\n      0x00\n      dup1\n      sload\n      swap1\n      0x0100\n      exp\n      swap1\n      div\n      0xff\n      and\n        /* \"blockchain/contracts/Polygon/Pool/Prototype/pool/state.sol\":2075:2089  locked ==false */\n      iszero\n      iszero\n      eq\n        /* \"blockchain/contracts/Polygon/Pool/Prototype/pool/state.sol\":2067:2090  require(locked ==false) */\n      tag_76\n      jumpi\n      0x00\n      dup1\n      revert\n    tag_76:\n        /* \"blockchain/contracts/Polygon/Pool/Prototype/pool/state.sol\":2108:2112  true */\n      0x01\n        /* \"blockchain/contracts/Polygon/Pool/Prototype/pool/state.sol\":2100:2106  locked */\n      0x00\n      dup1\n        /* \"blockchain/contracts/Polygon/Pool/Prototype/pool/state.sol\":2100:2112  locked =true */\n      0x0100\n      exp\n      dup2\n      sload\n      dup2\n      0xff\n      mul\n      not\n      and\n      swap1\n      dup4\n      iszero\n      iszero\n      mul\n      or\n      swap1\n      sstore\n      pop\n        /* \"blockchain/contracts/Polygon/Pool/Prototype/pool/state.sol\":6616:6623  1 weeks */\n      0x093a80\n        /* \"blockchain/contracts/Polygon/Pool/Prototype/pool/state.sol\":6604:6610  launch */\n      0x07\n        /* \"blockchain/contracts/Polygon/Pool/Prototype/pool/state.sol\":6604:6614  launch.end */\n      0x01\n      add\n      sload\n        /* \"blockchain/contracts/Polygon/Pool/Prototype/pool/state.sol\":6604:6623  launch.end +1 weeks */\n      tag_78\n      swap2\n      swap1\n      tag_79\n      jump\t// in\n    tag_78:\n        /* \"blockchain/contracts/Polygon/Pool/Prototype/pool/state.sol\":6595:6601  _start */\n      dup3\n        /* \"blockchain/contracts/Polygon/Pool/Prototype/pool/state.sol\":6595:6623  _start >=launch.end +1 weeks */\n      lt\n      iszero\n        /* \"blockchain/contracts/Polygon/Pool/Prototype/pool/state.sol\":6587:6624  require(_start >=launch.end +1 weeks) */\n      tag_80\n      jumpi\n      0x00\n      dup1\n      revert\n    tag_80:\n        /* \"blockchain/contracts/Polygon/Pool/Prototype/pool/state.sol\":6657:6664  1 weeks */\n      0x093a80\n        /* \"blockchain/contracts/Polygon/Pool/Prototype/pool/state.sol\":6649:6655  _start */\n      dup3\n        /* \"blockchain/contracts/Polygon/Pool/Prototype/pool/state.sol\":6649:6664  _start +1 weeks */\n      tag_81\n      swap2\n      swap1\n      tag_79\n      jump\t// in\n    tag_81:\n        /* \"blockchain/contracts/Polygon/Pool/Prototype/pool/state.sol\":6642:6646  _end */\n      dup2\n        /* \"blockchain/contracts/Polygon/Pool/Prototype/pool/state.sol\":6642:6664  _end >=_start +1 weeks */\n      lt\n      iszero\n        /* \"blockchain/contracts/Polygon/Pool/Prototype/pool/state.sol\":6634:6665  require(_end >=_start +1 weeks) */\n      tag_82\n      jumpi\n      0x00\n      dup1\n      revert\n    tag_82:\n        /* \"blockchain/contracts/Polygon/Pool/Prototype/pool/state.sol\":6689:6695  _start */\n      dup2\n        /* \"blockchain/contracts/Polygon/Pool/Prototype/pool/state.sol\":6675:6680  yield */\n      0x0b\n        /* \"blockchain/contracts/Polygon/Pool/Prototype/pool/state.sol\":6675:6686  yield.start */\n      0x00\n      add\n        /* \"blockchain/contracts/Polygon/Pool/Prototype/pool/state.sol\":6675:6695  yield.start  =_start */\n      dup2\n      swap1\n      sstore\n      pop\n        /* \"blockchain/contracts/Polygon/Pool/Prototype/pool/state.sol\":6719:6723  _end */\n      dup1\n        /* \"blockchain/contracts/Polygon/Pool/Prototype/pool/state.sol\":6705:6710  yield */\n      0x0b\n        /* \"blockchain/contracts/Polygon/Pool/Prototype/pool/state.sol\":6705:6714  yield.end */\n      0x01\n      add\n        /* \"blockchain/contracts/Polygon/Pool/Prototype/pool/state.sol\":6705:6723  yield.end    =_end */\n      dup2\n      swap1\n      sstore\n      pop\n        /* \"blockchain/contracts/Polygon/Pool/Prototype/pool/state.sol\":6739:6800  UpdateToYield(... */\n      0xe9b0a43fcc234c21d82587b79aefeb27e126c56f0bdad1c45d14f7739965d5a9\n        /* \"blockchain/contracts/Polygon/Pool/Prototype/pool/state.sol\":6766:6772  _start */\n      dup3\n        /* \"blockchain/contracts/Polygon/Pool/Prototype/pool/state.sol\":6786:6790  _end */\n      dup3\n        /* \"blockchain/contracts/Polygon/Pool/Prototype/pool/state.sol\":6739:6800  UpdateToYield(... */\n      mload(0x40)\n      tag_83\n      swap3\n      swap2\n      swap1\n      tag_34\n      jump\t// in\n    tag_83:\n      mload(0x40)\n      dup1\n      swap2\n      sub\n      swap1\n      log1\n        /* \"blockchain/contracts/Polygon/Pool/Prototype/pool/state.sol\":2141:2146  false */\n      0x00\n        /* \"blockchain/contracts/Polygon/Pool/Prototype/pool/state.sol\":2133:2139  locked */\n      dup1\n      0x00\n        /* \"blockchain/contracts/Polygon/Pool/Prototype/pool/state.sol\":2133:2146  locked =false */\n      0x0100\n      exp\n      dup2\n      sload\n      dup2\n      0xff\n      mul\n      not\n      and\n      swap1\n      dup4\n      iszero\n      iszero\n      mul\n      or\n      swap1\n      sstore\n      pop\n        /* \"blockchain/contracts/Polygon/Pool/Prototype/pool/state.sol\":6472:6807  function push_yield(... */\n      pop\n      pop\n      jump\t// out\n        /* \"blockchain/contracts/Polygon/Pool/Prototype/pool/state.sol\":4932:5402  function push_authenticator(... */\n    tag_46:\n        /* \"blockchain/contracts/Polygon/Pool/Prototype/pool/state.sol\":2258:2263  logic */\n      0x00\n      0x01\n      swap1\n      sload\n      swap1\n      0x0100\n      exp\n      swap1\n      div\n      0xffffffffffffffffffffffffffffffffffffffff\n      and\n        /* \"blockchain/contracts/Polygon/Pool/Prototype/pool/state.sol\":2245:2263  msg.sender ==logic */\n      0xffffffffffffffffffffffffffffffffffffffff\n      and\n        /* \"blockchain/contracts/Polygon/Pool/Prototype/pool/state.sol\":2245:2255  msg.sender */\n      caller\n        /* \"blockchain/contracts/Polygon/Pool/Prototype/pool/state.sol\":2245:2263  msg.sender ==logic */\n      0xffffffffffffffffffffffffffffffffffffffff\n      and\n      eq\n        /* \"blockchain/contracts/Polygon/Pool/Prototype/pool/state.sol\":2237:2264  require(msg.sender ==logic) */\n      tag_85\n      jumpi\n      0x00\n      dup1\n      revert\n    tag_85:\n        /* \"blockchain/contracts/Polygon/Pool/Prototype/pool/state.sol\":2084:2089  false */\n      0x00\n        /* \"blockchain/contracts/Polygon/Pool/Prototype/pool/state.sol\":2075:2089  locked ==false */\n      iszero\n      iszero\n        /* \"blockchain/contracts/Polygon/Pool/Prototype/pool/state.sol\":2075:2081  locked */\n      0x00\n      dup1\n      sload\n      swap1\n      0x0100\n      exp\n      swap1\n      div\n      0xff\n      and\n        /* \"blockchain/contracts/Polygon/Pool/Prototype/pool/state.sol\":2075:2089  locked ==false */\n      iszero\n      iszero\n      eq\n        /* \"blockchain/contracts/Polygon/Pool/Prototype/pool/state.sol\":2067:2090  require(locked ==false) */\n      tag_87\n      jumpi\n      0x00\n      dup1\n      revert\n    tag_87:\n        /* \"blockchain/contracts/Polygon/Pool/Prototype/pool/state.sol\":2108:2112  true */\n      0x01\n        /* \"blockchain/contracts/Polygon/Pool/Prototype/pool/state.sol\":2100:2106  locked */\n      0x00\n      dup1\n        /* \"blockchain/contracts/Polygon/Pool/Prototype/pool/state.sol\":2100:2112  locked =true */\n      0x0100\n      exp\n      dup2\n      sload\n      dup2\n      0xff\n      mul\n      not\n      and\n      swap1\n      dup4\n      iszero\n      iszero\n      mul\n      or\n      swap1\n      sstore\n      pop\n        /* \"blockchain/contracts/Polygon/Pool/Prototype/pool/state.sol\":5119:5120  0 */\n      0x00\n        /* \"blockchain/contracts/Polygon/Pool/Prototype/pool/state.sol\":5102:5121  _logic !=address(0) */\n      0xffffffffffffffffffffffffffffffffffffffff\n      and\n        /* \"blockchain/contracts/Polygon/Pool/Prototype/pool/state.sol\":5102:5108  _logic */\n      dup4\n        /* \"blockchain/contracts/Polygon/Pool/Prototype/pool/state.sol\":5102:5121  _logic !=address(0) */\n      0xffffffffffffffffffffffffffffffffffffffff\n      and\n      sub\n        /* \"blockchain/contracts/Polygon/Pool/Prototype/pool/state.sol\":5094:5122  require(_logic !=address(0)) */\n      tag_89\n      jumpi\n      0x00\n      dup1\n      revert\n    tag_89:\n        /* \"blockchain/contracts/Polygon/Pool/Prototype/pool/state.sol\":5159:5160  0 */\n      0x00\n        /* \"blockchain/contracts/Polygon/Pool/Prototype/pool/state.sol\":5140:5161  _creator !=address(0) */\n      0xffffffffffffffffffffffffffffffffffffffff\n      and\n        /* \"blockchain/contracts/Polygon/Pool/Prototype/pool/state.sol\":5140:5148  _creator */\n      dup3\n        /* \"blockchain/contracts/Polygon/Pool/Prototype/pool/state.sol\":5140:5161  _creator !=address(0) */\n      0xffffffffffffffffffffffffffffffffffffffff\n      and\n      sub\n        /* \"blockchain/contracts/Polygon/Pool/Prototype/pool/state.sol\":5132:5162  require(_creator !=address(0)) */\n      tag_90\n      jumpi\n      0x00\n      dup1\n      revert\n    tag_90:\n        /* \"blockchain/contracts/Polygon/Pool/Prototype/pool/state.sol\":5200:5201  0 */\n      0x00\n        /* \"blockchain/contracts/Polygon/Pool/Prototype/pool/state.sol\":5180:5202  _governor !=address(0) */\n      0xffffffffffffffffffffffffffffffffffffffff\n      and\n        /* \"blockchain/contracts/Polygon/Pool/Prototype/pool/state.sol\":5180:5189  _governor */\n      dup2\n        /* \"blockchain/contracts/Polygon/Pool/Prototype/pool/state.sol\":5180:5202  _governor !=address(0) */\n      0xffffffffffffffffffffffffffffffffffffffff\n      and\n      sub\n        /* \"blockchain/contracts/Polygon/Pool/Prototype/pool/state.sol\":5172:5203  require(_governor !=address(0)) */\n      tag_91\n      jumpi\n      0x00\n      dup1\n      revert\n    tag_91:\n        /* \"blockchain/contracts/Polygon/Pool/Prototype/pool/state.sol\":5221:5227  _logic */\n      dup3\n        /* \"blockchain/contracts/Polygon/Pool/Prototype/pool/state.sol\":5214:5219  logic */\n      0x00\n      0x01\n        /* \"blockchain/contracts/Polygon/Pool/Prototype/pool/state.sol\":5214:5227  logic =_logic */\n      0x0100\n      exp\n      dup2\n      sload\n      dup2\n      0xffffffffffffffffffffffffffffffffffffffff\n      mul\n      not\n      and\n      swap1\n      dup4\n      0xffffffffffffffffffffffffffffffffffffffff\n      and\n      mul\n      or\n      swap1\n      sstore\n      pop\n        /* \"blockchain/contracts/Polygon/Pool/Prototype/pool/state.sol\":5246:5254  _creator */\n      dup2\n        /* \"blockchain/contracts/Polygon/Pool/Prototype/pool/state.sol\":5237:5244  creator */\n      0x01\n      0x00\n        /* \"blockchain/contracts/Polygon/Pool/Prototype/pool/state.sol\":5237:5254  creator =_creator */\n      0x0100\n      exp\n      dup2\n      sload\n      dup2\n      0xffffffffffffffffffffffffffffffffffffffff\n      mul\n      not\n      and\n      swap1\n      dup4\n      0xffffffffffffffffffffffffffffffffffffffff\n      and\n      mul\n      or\n      swap1\n      sstore\n      pop\n        /* \"blockchain/contracts/Polygon/Pool/Prototype/pool/state.sol\":5274:5283  _governor */\n      dup1\n        /* \"blockchain/contracts/Polygon/Pool/Prototype/pool/state.sol\":5264:5272  governor */\n      0x02\n      0x00\n        /* \"blockchain/contracts/Polygon/Pool/Prototype/pool/state.sol\":5264:5283  governor =_governor */\n      0x0100\n      exp\n      dup2\n      sload\n      dup2\n      0xffffffffffffffffffffffffffffffffffffffff\n      mul\n      not\n      and\n      swap1\n      dup4\n      0xffffffffffffffffffffffffffffffffffffffff\n      and\n      mul\n      or\n      swap1\n      sstore\n      pop\n        /* \"blockchain/contracts/Polygon/Pool/Prototype/pool/state.sol\":5376:5385  _governor */\n      dup1\n        /* \"blockchain/contracts/Polygon/Pool/Prototype/pool/state.sol\":5299:5395  UpdateToAuthenticator(... */\n      0xffffffffffffffffffffffffffffffffffffffff\n      and\n        /* \"blockchain/contracts/Polygon/Pool/Prototype/pool/state.sol\":5354:5362  _creator */\n      dup3\n        /* \"blockchain/contracts/Polygon/Pool/Prototype/pool/state.sol\":5299:5395  UpdateToAuthenticator(... */\n      0xffffffffffffffffffffffffffffffffffffffff\n      and\n        /* \"blockchain/contracts/Polygon/Pool/Prototype/pool/state.sol\":5334:5340  _logic */\n      dup5\n        /* \"blockchain/contracts/Polygon/Pool/Prototype/pool/state.sol\":5299:5395  UpdateToAuthenticator(... */\n      0xffffffffffffffffffffffffffffffffffffffff\n      and\n      0x558b08919db4953667819ba17b813c3b1b02640b1164d32f581c75eaa7b2d3a2\n      mload(0x40)\n      mload(0x40)\n      dup1\n      swap2\n      sub\n      swap1\n      log4\n        /* \"blockchain/contracts/Polygon/Pool/Prototype/pool/state.sol\":2141:2146  false */\n      0x00\n        /* \"blockchain/contracts/Polygon/Pool/Prototype/pool/state.sol\":2133:2139  locked */\n      dup1\n      0x00\n        /* \"blockchain/contracts/Polygon/Pool/Prototype/pool/state.sol\":2133:2146  locked =false */\n      0x0100\n      exp\n      dup2\n      sload\n      dup2\n      0xff\n      mul\n      not\n      and\n      swap1\n      dup4\n      iszero\n      iszero\n      mul\n      or\n      swap1\n      sstore\n      pop\n        /* \"blockchain/contracts/Polygon/Pool/Prototype/pool/state.sol\":4932:5402  function push_authenticator(... */\n      pop\n      pop\n      pop\n      jump\t// out\n        /* \"blockchain/contracts/Polygon/Pool/Prototype/pool/state.sol\":6163:6466  function pull_launch() public view returns (... */\n    tag_48:\n        /* \"blockchain/contracts/Polygon/Pool/Prototype/pool/state.sol\":6216:6223  uint256 */\n      0x00\n        /* \"blockchain/contracts/Polygon/Pool/Prototype/pool/state.sol\":6233:6240  uint256 */\n      dup1\n        /* \"blockchain/contracts/Polygon/Pool/Prototype/pool/state.sol\":6250:6257  uint256 */\n      0x00\n        /* \"blockchain/contracts/Polygon/Pool/Prototype/pool/state.sol\":6267:6271  bool */\n      dup1\n        /* \"blockchain/contracts/Polygon/Pool/Prototype/pool/state.sol\":6281:6285  bool */\n      0x00\n        /* \"blockchain/contracts/Polygon/Pool/Prototype/pool/state.sol\":6324:6330  launch */\n      0x07\n        /* \"blockchain/contracts/Polygon/Pool/Prototype/pool/state.sol\":6324:6336  launch.start */\n      0x00\n      add\n      sload\n        /* \"blockchain/contracts/Polygon/Pool/Prototype/pool/state.sol\":6350:6356  launch */\n      0x07\n        /* \"blockchain/contracts/Polygon/Pool/Prototype/pool/state.sol\":6350:6360  launch.end */\n      0x01\n      add\n      sload\n        /* \"blockchain/contracts/Polygon/Pool/Prototype/pool/state.sol\":6374:6380  launch */\n      0x07\n        /* \"blockchain/contracts/Polygon/Pool/Prototype/pool/state.sol\":6374:6389  launch.required */\n      0x02\n      add\n      sload\n        /* \"blockchain/contracts/Polygon/Pool/Prototype/pool/state.sol\":6403:6409  launch */\n      0x07\n        /* \"blockchain/contracts/Polygon/Pool/Prototype/pool/state.sol\":6403:6421  launch.whitelisted */\n      0x03\n      add\n      0x00\n      swap1\n      sload\n      swap1\n      0x0100\n      exp\n      swap1\n      div\n      0xff\n      and\n        /* \"blockchain/contracts/Polygon/Pool/Prototype/pool/state.sol\":6435:6441  launch */\n      0x07\n        /* \"blockchain/contracts/Polygon/Pool/Prototype/pool/state.sol\":6435:6449  launch.success */\n      0x03\n      add\n      0x01\n      swap1\n      sload\n      swap1\n      0x0100\n      exp\n      swap1\n      div\n      0xff\n      and\n        /* \"blockchain/contracts/Polygon/Pool/Prototype/pool/state.sol\":6303:6459  return (... */\n      swap5\n      pop\n      swap5\n      pop\n      swap5\n      pop\n      swap5\n      pop\n      swap5\n      pop\n        /* \"blockchain/contracts/Polygon/Pool/Prototype/pool/state.sol\":6163:6466  function pull_launch() public view returns (... */\n      swap1\n      swap2\n      swap3\n      swap4\n      swap5\n      jump\t// out\n        /* \"#utility.yul\":88:205   */\n    tag_94:\n        /* \"#utility.yul\":197:198   */\n      0x00\n        /* \"#utility.yul\":194:195   */\n      dup1\n        /* \"#utility.yul\":187:199   */\n      revert\n        /* \"#utility.yul\":334:460   */\n    tag_96:\n        /* \"#utility.yul\":371:378   */\n      0x00\n        /* \"#utility.yul\":411:453   */\n      0xffffffffffffffffffffffffffffffffffffffff\n        /* \"#utility.yul\":404:409   */\n      dup3\n        /* \"#utility.yul\":400:454   */\n      and\n        /* \"#utility.yul\":389:454   */\n      swap1\n      pop\n        /* \"#utility.yul\":334:460   */\n      swap2\n      swap1\n      pop\n      jump\t// out\n        /* \"#utility.yul\":466:562   */\n    tag_97:\n        /* \"#utility.yul\":503:510   */\n      0x00\n        /* \"#utility.yul\":532:556   */\n      tag_116\n        /* \"#utility.yul\":550:555   */\n      dup3\n        /* \"#utility.yul\":532:556   */\n      tag_96\n      jump\t// in\n    tag_116:\n        /* \"#utility.yul\":521:556   */\n      swap1\n      pop\n        /* \"#utility.yul\":466:562   */\n      swap2\n      swap1\n      pop\n      jump\t// out\n        /* \"#utility.yul\":568:690   */\n    tag_98:\n        /* \"#utility.yul\":641:665   */\n      tag_118\n        /* \"#utility.yul\":659:664   */\n      dup2\n        /* \"#utility.yul\":641:665   */\n      tag_97\n      jump\t// in\n    tag_118:\n        /* \"#utility.yul\":634:639   */\n      dup2\n        /* \"#utility.yul\":631:666   */\n      eq\n        /* \"#utility.yul\":621:684   */\n      tag_119\n      jumpi\n        /* \"#utility.yul\":680:681   */\n      0x00\n        /* \"#utility.yul\":677:678   */\n      dup1\n        /* \"#utility.yul\":670:682   */\n      revert\n        /* \"#utility.yul\":621:684   */\n    tag_119:\n        /* \"#utility.yul\":568:690   */\n      pop\n      jump\t// out\n        /* \"#utility.yul\":696:835   */\n    tag_99:\n        /* \"#utility.yul\":742:747   */\n      0x00\n        /* \"#utility.yul\":780:786   */\n      dup2\n        /* \"#utility.yul\":767:787   */\n      calldataload\n        /* \"#utility.yul\":758:787   */\n      swap1\n      pop\n        /* \"#utility.yul\":796:829   */\n      tag_121\n        /* \"#utility.yul\":823:828   */\n      dup2\n        /* \"#utility.yul\":796:829   */\n      tag_98\n      jump\t// in\n    tag_121:\n        /* \"#utility.yul\":696:835   */\n      swap3\n      swap2\n      pop\n      pop\n      jump\t// out\n        /* \"#utility.yul\":841:1170   */\n    tag_15:\n        /* \"#utility.yul\":900:906   */\n      0x00\n        /* \"#utility.yul\":949:951   */\n      0x20\n        /* \"#utility.yul\":937:946   */\n      dup3\n        /* \"#utility.yul\":928:935   */\n      dup5\n        /* \"#utility.yul\":924:947   */\n      sub\n        /* \"#utility.yul\":920:952   */\n      slt\n        /* \"#utility.yul\":917:1036   */\n      iszero\n      tag_123\n      jumpi\n        /* \"#utility.yul\":955:1034   */\n      tag_124\n      tag_94\n      jump\t// in\n    tag_124:\n        /* \"#utility.yul\":917:1036   */\n    tag_123:\n        /* \"#utility.yul\":1075:1076   */\n      0x00\n        /* \"#utility.yul\":1100:1153   */\n      tag_125\n        /* \"#utility.yul\":1145:1152   */\n      dup5\n        /* \"#utility.yul\":1136:1142   */\n      dup3\n        /* \"#utility.yul\":1125:1134   */\n      dup6\n        /* \"#utility.yul\":1121:1143   */\n      add\n        /* \"#utility.yul\":1100:1153   */\n      tag_99\n      jump\t// in\n    tag_125:\n        /* \"#utility.yul\":1090:1153   */\n      swap2\n      pop\n        /* \"#utility.yul\":1046:1163   */\n      pop\n        /* \"#utility.yul\":841:1170   */\n      swap3\n      swap2\n      pop\n      pop\n      jump\t// out\n        /* \"#utility.yul\":1176:1266   */\n    tag_100:\n        /* \"#utility.yul\":1210:1217   */\n      0x00\n        /* \"#utility.yul\":1253:1258   */\n      dup2\n        /* \"#utility.yul\":1246:1259   */\n      iszero\n        /* \"#utility.yul\":1239:1260   */\n      iszero\n        /* \"#utility.yul\":1228:1260   */\n      swap1\n      pop\n        /* \"#utility.yul\":1176:1266   */\n      swap2\n      swap1\n      pop\n      jump\t// out\n        /* \"#utility.yul\":1272:1381   */\n    tag_101:\n        /* \"#utility.yul\":1353:1374   */\n      tag_128\n        /* \"#utility.yul\":1368:1373   */\n      dup2\n        /* \"#utility.yul\":1353:1374   */\n      tag_100\n      jump\t// in\n    tag_128:\n        /* \"#utility.yul\":1348:1351   */\n      dup3\n        /* \"#utility.yul\":1341:1375   */\n      mstore\n        /* \"#utility.yul\":1272:1381   */\n      pop\n      pop\n      jump\t// out\n        /* \"#utility.yul\":1387:1464   */\n    tag_102:\n        /* \"#utility.yul\":1424:1431   */\n      0x00\n        /* \"#utility.yul\":1453:1458   */\n      dup2\n        /* \"#utility.yul\":1442:1458   */\n      swap1\n      pop\n        /* \"#utility.yul\":1387:1464   */\n      swap2\n      swap1\n      pop\n      jump\t// out\n        /* \"#utility.yul\":1470:1588   */\n    tag_103:\n        /* \"#utility.yul\":1557:1581   */\n      tag_131\n        /* \"#utility.yul\":1575:1580   */\n      dup2\n        /* \"#utility.yul\":1557:1581   */\n      tag_102\n      jump\t// in\n    tag_131:\n        /* \"#utility.yul\":1552:1555   */\n      dup3\n        /* \"#utility.yul\":1545:1582   */\n      mstore\n        /* \"#utility.yul\":1470:1588   */\n      pop\n      pop\n      jump\t// out\n        /* \"#utility.yul\":1594:2012   */\n    tag_18:\n        /* \"#utility.yul\":1731:1735   */\n      0x00\n        /* \"#utility.yul\":1769:1771   */\n      0x60\n        /* \"#utility.yul\":1758:1767   */\n      dup3\n        /* \"#utility.yul\":1754:1772   */\n      add\n        /* \"#utility.yul\":1746:1772   */\n      swap1\n      pop\n        /* \"#utility.yul\":1782:1847   */\n      tag_133\n        /* \"#utility.yul\":1844:1845   */\n      0x00\n        /* \"#utility.yul\":1833:1842   */\n      dup4\n        /* \"#utility.yul\":1829:1846   */\n      add\n        /* \"#utility.yul\":1820:1826   */\n      dup7\n        /* \"#utility.yul\":1782:1847   */\n      tag_101\n      jump\t// in\n    tag_133:\n        /* \"#utility.yul\":1857:1923   */\n      tag_134\n        /* \"#utility.yul\":1919:1921   */\n      0x20\n        /* \"#utility.yul\":1908:1917   */\n      dup4\n        /* \"#utility.yul\":1904:1922   */\n      add\n        /* \"#utility.yul\":1895:1901   */\n      dup6\n        /* \"#utility.yul\":1857:1923   */\n      tag_101\n      jump\t// in\n    tag_134:\n        /* \"#utility.yul\":1933:2005   */\n      tag_135\n        /* \"#utility.yul\":2001:2003   */\n      0x40\n        /* \"#utility.yul\":1990:1999   */\n      dup4\n        /* \"#utility.yul\":1986:2004   */\n      add\n        /* \"#utility.yul\":1977:1983   */\n      dup5\n        /* \"#utility.yul\":1933:2005   */\n      tag_103\n      jump\t// in\n    tag_135:\n        /* \"#utility.yul\":1594:2012   */\n      swap5\n      swap4\n      pop\n      pop\n      pop\n      pop\n      jump\t// out\n        /* \"#utility.yul\":2018:2140   */\n    tag_104:\n        /* \"#utility.yul\":2091:2115   */\n      tag_137\n        /* \"#utility.yul\":2109:2114   */\n      dup2\n        /* \"#utility.yul\":2091:2115   */\n      tag_102\n      jump\t// in\n    tag_137:\n        /* \"#utility.yul\":2084:2089   */\n      dup2\n        /* \"#utility.yul\":2081:2116   */\n      eq\n        /* \"#utility.yul\":2071:2134   */\n      tag_138\n      jumpi\n        /* \"#utility.yul\":2130:2131   */\n      0x00\n        /* \"#utility.yul\":2127:2128   */\n      dup1\n        /* \"#utility.yul\":2120:2132   */\n      revert\n        /* \"#utility.yul\":2071:2134   */\n    tag_138:\n        /* \"#utility.yul\":2018:2140   */\n      pop\n      jump\t// out\n        /* \"#utility.yul\":2146:2285   */\n    tag_105:\n        /* \"#utility.yul\":2192:2197   */\n      0x00\n        /* \"#utility.yul\":2230:2236   */\n      dup2\n        /* \"#utility.yul\":2217:2237   */\n      calldataload\n        /* \"#utility.yul\":2208:2237   */\n      swap1\n      pop\n        /* \"#utility.yul\":2246:2279   */\n      tag_140\n        /* \"#utility.yul\":2273:2278   */\n      dup2\n        /* \"#utility.yul\":2246:2279   */\n      tag_104\n      jump\t// in\n    tag_140:\n        /* \"#utility.yul\":2146:2285   */\n      swap3\n      swap2\n      pop\n      pop\n      jump\t// out\n        /* \"#utility.yul\":2291:2620   */\n    tag_21:\n        /* \"#utility.yul\":2350:2356   */\n      0x00\n        /* \"#utility.yul\":2399:2401   */\n      0x20\n        /* \"#utility.yul\":2387:2396   */\n      dup3\n        /* \"#utility.yul\":2378:2385   */\n      dup5\n        /* \"#utility.yul\":2374:2397   */\n      sub\n        /* \"#utility.yul\":2370:2402   */\n      slt\n        /* \"#utility.yul\":2367:2486   */\n      iszero\n      tag_142\n      jumpi\n        /* \"#utility.yul\":2405:2484   */\n      tag_143\n      tag_94\n      jump\t// in\n    tag_143:\n        /* \"#utility.yul\":2367:2486   */\n    tag_142:\n        /* \"#utility.yul\":2525:2526   */\n      0x00\n        /* \"#utility.yul\":2550:2603   */\n      tag_144\n        /* \"#utility.yul\":2595:2602   */\n      dup5\n        /* \"#utility.yul\":2586:2592   */\n      dup3\n        /* \"#utility.yul\":2575:2584   */\n      dup6\n        /* \"#utility.yul\":2571:2593   */\n      add\n        /* \"#utility.yul\":2550:2603   */\n      tag_105\n      jump\t// in\n    tag_144:\n        /* \"#utility.yul\":2540:2603   */\n      swap2\n      pop\n        /* \"#utility.yul\":2496:2613   */\n      pop\n        /* \"#utility.yul\":2291:2620   */\n      swap3\n      swap2\n      pop\n      pop\n      jump\t// out\n        /* \"#utility.yul\":2626:2742   */\n    tag_106:\n        /* \"#utility.yul\":2696:2717   */\n      tag_146\n        /* \"#utility.yul\":2711:2716   */\n      dup2\n        /* \"#utility.yul\":2696:2717   */\n      tag_100\n      jump\t// in\n    tag_146:\n        /* \"#utility.yul\":2689:2694   */\n      dup2\n        /* \"#utility.yul\":2686:2718   */\n      eq\n        /* \"#utility.yul\":2676:2736   */\n      tag_147\n      jumpi\n        /* \"#utility.yul\":2732:2733   */\n      0x00\n        /* \"#utility.yul\":2729:2730   */\n      dup1\n        /* \"#utility.yul\":2722:2734   */\n      revert\n        /* \"#utility.yul\":2676:2736   */\n    tag_147:\n        /* \"#utility.yul\":2626:2742   */\n      pop\n      jump\t// out\n        /* \"#utility.yul\":2748:2881   */\n    tag_107:\n        /* \"#utility.yul\":2791:2796   */\n      0x00\n        /* \"#utility.yul\":2829:2835   */\n      dup2\n        /* \"#utility.yul\":2816:2836   */\n      calldataload\n        /* \"#utility.yul\":2807:2836   */\n      swap1\n      pop\n        /* \"#utility.yul\":2845:2875   */\n      tag_149\n        /* \"#utility.yul\":2869:2874   */\n      dup2\n        /* \"#utility.yul\":2845:2875   */\n      tag_106\n      jump\t// in\n    tag_149:\n        /* \"#utility.yul\":2748:2881   */\n      swap3\n      swap2\n      pop\n      pop\n      jump\t// out\n        /* \"#utility.yul\":2887:3786   */\n    tag_25:\n        /* \"#utility.yul\":2976:2982   */\n      0x00\n        /* \"#utility.yul\":2984:2990   */\n      dup1\n        /* \"#utility.yul\":2992:2998   */\n      0x00\n        /* \"#utility.yul\":3000:3006   */\n      dup1\n        /* \"#utility.yul\":3008:3014   */\n      0x00\n        /* \"#utility.yul\":3057:3060   */\n      0xa0\n        /* \"#utility.yul\":3045:3054   */\n      dup7\n        /* \"#utility.yul\":3036:3043   */\n      dup9\n        /* \"#utility.yul\":3032:3055   */\n      sub\n        /* \"#utility.yul\":3028:3061   */\n      slt\n        /* \"#utility.yul\":3025:3145   */\n      iszero\n      tag_151\n      jumpi\n        /* \"#utility.yul\":3064:3143   */\n      tag_152\n      tag_94\n      jump\t// in\n    tag_152:\n        /* \"#utility.yul\":3025:3145   */\n    tag_151:\n        /* \"#utility.yul\":3184:3185   */\n      0x00\n        /* \"#utility.yul\":3209:3262   */\n      tag_153\n        /* \"#utility.yul\":3254:3261   */\n      dup9\n        /* \"#utility.yul\":3245:3251   */\n      dup3\n        /* \"#utility.yul\":3234:3243   */\n      dup10\n        /* \"#utility.yul\":3230:3252   */\n      add\n        /* \"#utility.yul\":3209:3262   */\n      tag_105\n      jump\t// in\n    tag_153:\n        /* \"#utility.yul\":3199:3262   */\n      swap6\n      pop\n        /* \"#utility.yul\":3155:3272   */\n      pop\n        /* \"#utility.yul\":3311:3313   */\n      0x20\n        /* \"#utility.yul\":3337:3390   */\n      tag_154\n        /* \"#utility.yul\":3382:3389   */\n      dup9\n        /* \"#utility.yul\":3373:3379   */\n      dup3\n        /* \"#utility.yul\":3362:3371   */\n      dup10\n        /* \"#utility.yul\":3358:3380   */\n      add\n        /* \"#utility.yul\":3337:3390   */\n      tag_105\n      jump\t// in\n    tag_154:\n        /* \"#utility.yul\":3327:3390   */\n      swap5\n      pop\n        /* \"#utility.yul\":3282:3400   */\n      pop\n        /* \"#utility.yul\":3439:3441   */\n      0x40\n        /* \"#utility.yul\":3465:3518   */\n      tag_155\n        /* \"#utility.yul\":3510:3517   */\n      dup9\n        /* \"#utility.yul\":3501:3507   */\n      dup3\n        /* \"#utility.yul\":3490:3499   */\n      dup10\n        /* \"#utility.yul\":3486:3508   */\n      add\n        /* \"#utility.yul\":3465:3518   */\n      tag_105\n      jump\t// in\n    tag_155:\n        /* \"#utility.yul\":3455:3518   */\n      swap4\n      pop\n        /* \"#utility.yul\":3410:3528   */\n      pop\n        /* \"#utility.yul\":3567:3569   */\n      0x60\n        /* \"#utility.yul\":3593:3643   */\n      tag_156\n        /* \"#utility.yul\":3635:3642   */\n      dup9\n        /* \"#utility.yul\":3626:3632   */\n      dup3\n        /* \"#utility.yul\":3615:3624   */\n      dup10\n        /* \"#utility.yul\":3611:3633   */\n      add\n        /* \"#utility.yul\":3593:3643   */\n      tag_107\n      jump\t// in\n    tag_156:\n        /* \"#utility.yul\":3583:3643   */\n      swap3\n      pop\n        /* \"#utility.yul\":3538:3653   */\n      pop\n        /* \"#utility.yul\":3692:3695   */\n      0x80\n        /* \"#utility.yul\":3719:3769   */\n      tag_157\n        /* \"#utility.yul\":3761:3768   */\n      dup9\n        /* \"#utility.yul\":3752:3758   */\n      dup3\n        /* \"#utility.yul\":3741:3750   */\n      dup10\n        /* \"#utility.yul\":3737:3759   */\n      add\n        /* \"#utility.yul\":3719:3769   */\n      tag_107\n      jump\t// in\n    tag_157:\n        /* \"#utility.yul\":3709:3769   */\n      swap2\n      pop\n        /* \"#utility.yul\":3663:3779   */\n      pop\n        /* \"#utility.yul\":2887:3786   */\n      swap3\n      swap6\n      pop\n      swap3\n      swap6\n      swap1\n      swap4\n      pop\n      jump\t// out\n        /* \"#utility.yul\":3792:3910   */\n    tag_108:\n        /* \"#utility.yul\":3879:3903   */\n      tag_159\n        /* \"#utility.yul\":3897:3902   */\n      dup2\n        /* \"#utility.yul\":3879:3903   */\n      tag_97\n      jump\t// in\n    tag_159:\n        /* \"#utility.yul\":3874:3877   */\n      dup3\n        /* \"#utility.yul\":3867:3904   */\n      mstore\n        /* \"#utility.yul\":3792:3910   */\n      pop\n      pop\n      jump\t// out\n        /* \"#utility.yul\":3916:4358   */\n    tag_30:\n        /* \"#utility.yul\":4065:4069   */\n      0x00\n        /* \"#utility.yul\":4103:4105   */\n      0x60\n        /* \"#utility.yul\":4092:4101   */\n      dup3\n        /* \"#utility.yul\":4088:4106   */\n      add\n        /* \"#utility.yul\":4080:4106   */\n      swap1\n      pop\n        /* \"#utility.yul\":4116:4187   */\n      tag_161\n        /* \"#utility.yul\":4184:4185   */\n      0x00\n        /* \"#utility.yul\":4173:4182   */\n      dup4\n        /* \"#utility.yul\":4169:4186   */\n      add\n        /* \"#utility.yul\":4160:4166   */\n      dup7\n        /* \"#utility.yul\":4116:4187   */\n      tag_108\n      jump\t// in\n    tag_161:\n        /* \"#utility.yul\":4197:4269   */\n      tag_162\n        /* \"#utility.yul\":4265:4267   */\n      0x20\n        /* \"#utility.yul\":4254:4263   */\n      dup4\n        /* \"#utility.yul\":4250:4268   */\n      add\n        /* \"#utility.yul\":4241:4247   */\n      dup6\n        /* \"#utility.yul\":4197:4269   */\n      tag_108\n      jump\t// in\n    tag_162:\n        /* \"#utility.yul\":4279:4351   */\n      tag_163\n        /* \"#utility.yul\":4347:4349   */\n      0x40\n        /* \"#utility.yul\":4336:4345   */\n      dup4\n        /* \"#utility.yul\":4332:4350   */\n      add\n        /* \"#utility.yul\":4323:4329   */\n      dup5\n        /* \"#utility.yul\":4279:4351   */\n      tag_108\n      jump\t// in\n    tag_163:\n        /* \"#utility.yul\":3916:4358   */\n      swap5\n      swap4\n      pop\n      pop\n      pop\n      pop\n      jump\t// out\n        /* \"#utility.yul\":4364:4696   */\n    tag_34:\n        /* \"#utility.yul\":4485:4489   */\n      0x00\n        /* \"#utility.yul\":4523:4525   */\n      0x40\n        /* \"#utility.yul\":4512:4521   */\n      dup3\n        /* \"#utility.yul\":4508:4526   */\n      add\n        /* \"#utility.yul\":4500:4526   */\n      swap1\n      pop\n        /* \"#utility.yul\":4536:4607   */\n      tag_165\n        /* \"#utility.yul\":4604:4605   */\n      0x00\n        /* \"#utility.yul\":4593:4602   */\n      dup4\n        /* \"#utility.yul\":4589:4606   */\n      add\n        /* \"#utility.yul\":4580:4586   */\n      dup6\n        /* \"#utility.yul\":4536:4607   */\n      tag_103\n      jump\t// in\n    tag_165:\n        /* \"#utility.yul\":4617:4689   */\n      tag_166\n        /* \"#utility.yul\":4685:4687   */\n      0x20\n        /* \"#utility.yul\":4674:4683   */\n      dup4\n        /* \"#utility.yul\":4670:4688   */\n      add\n        /* \"#utility.yul\":4661:4667   */\n      dup5\n        /* \"#utility.yul\":4617:4689   */\n      tag_103\n      jump\t// in\n    tag_166:\n        /* \"#utility.yul\":4364:4696   */\n      swap4\n      swap3\n      pop\n      pop\n      pop\n      jump\t// out\n        /* \"#utility.yul\":4702:5455   */\n    tag_37:\n        /* \"#utility.yul\":4782:4788   */\n      0x00\n        /* \"#utility.yul\":4790:4796   */\n      dup1\n        /* \"#utility.yul\":4798:4804   */\n      0x00\n        /* \"#utility.yul\":4806:4812   */\n      dup1\n        /* \"#utility.yul\":4855:4858   */\n      0x80\n        /* \"#utility.yul\":4843:4852   */\n      dup6\n        /* \"#utility.yul\":4834:4841   */\n      dup8\n        /* \"#utility.yul\":4830:4853   */\n      sub\n        /* \"#utility.yul\":4826:4859   */\n      slt\n        /* \"#utility.yul\":4823:4943   */\n      iszero\n      tag_168\n      jumpi\n        /* \"#utility.yul\":4862:4941   */\n      tag_169\n      tag_94\n      jump\t// in\n    tag_169:\n        /* \"#utility.yul\":4823:4943   */\n    tag_168:\n        /* \"#utility.yul\":4982:4983   */\n      0x00\n        /* \"#utility.yul\":5007:5060   */\n      tag_170\n        /* \"#utility.yul\":5052:5059   */\n      dup8\n        /* \"#utility.yul\":5043:5049   */\n      dup3\n        /* \"#utility.yul\":5032:5041   */\n      dup9\n        /* \"#utility.yul\":5028:5050   */\n      add\n        /* \"#utility.yul\":5007:5060   */\n      tag_99\n      jump\t// in\n    tag_170:\n        /* \"#utility.yul\":4997:5060   */\n      swap5\n      pop\n        /* \"#utility.yul\":4953:5070   */\n      pop\n        /* \"#utility.yul\":5109:5111   */\n      0x20\n        /* \"#utility.yul\":5135:5185   */\n      tag_171\n        /* \"#utility.yul\":5177:5184   */\n      dup8\n        /* \"#utility.yul\":5168:5174   */\n      dup3\n        /* \"#utility.yul\":5157:5166   */\n      dup9\n        /* \"#utility.yul\":5153:5175   */\n      add\n        /* \"#utility.yul\":5135:5185   */\n      tag_107\n      jump\t// in\n    tag_171:\n        /* \"#utility.yul\":5125:5185   */\n      swap4\n      pop\n        /* \"#utility.yul\":5080:5195   */\n      pop\n        /* \"#utility.yul\":5234:5236   */\n      0x40\n        /* \"#utility.yul\":5260:5310   */\n      tag_172\n        /* \"#utility.yul\":5302:5309   */\n      dup8\n        /* \"#utility.yul\":5293:5299   */\n      dup3\n        /* \"#utility.yul\":5282:5291   */\n      dup9\n        /* \"#utility.yul\":5278:5300   */\n      add\n        /* \"#utility.yul\":5260:5310   */\n      tag_107\n      jump\t// in\n    tag_172:\n        /* \"#utility.yul\":5250:5310   */\n      swap3\n      pop\n        /* \"#utility.yul\":5205:5320   */\n      pop\n        /* \"#utility.yul\":5359:5361   */\n      0x60\n        /* \"#utility.yul\":5385:5438   */\n      tag_173\n        /* \"#utility.yul\":5430:5437   */\n      dup8\n        /* \"#utility.yul\":5421:5427   */\n      dup3\n        /* \"#utility.yul\":5410:5419   */\n      dup9\n        /* \"#utility.yul\":5406:5428   */\n      add\n        /* \"#utility.yul\":5385:5438   */\n      tag_105\n      jump\t// in\n    tag_173:\n        /* \"#utility.yul\":5375:5438   */\n      swap2\n      pop\n        /* \"#utility.yul\":5330:5448   */\n      pop\n        /* \"#utility.yul\":4702:5455   */\n      swap3\n      swap6\n      swap2\n      swap5\n      pop\n      swap3\n      pop\n      jump\t// out\n        /* \"#utility.yul\":5461:5935   */\n    tag_41:\n        /* \"#utility.yul\":5529:5535   */\n      0x00\n        /* \"#utility.yul\":5537:5543   */\n      dup1\n        /* \"#utility.yul\":5586:5588   */\n      0x40\n        /* \"#utility.yul\":5574:5583   */\n      dup4\n        /* \"#utility.yul\":5565:5572   */\n      dup6\n        /* \"#utility.yul\":5561:5584   */\n      sub\n        /* \"#utility.yul\":5557:5589   */\n      slt\n        /* \"#utility.yul\":5554:5673   */\n      iszero\n      tag_175\n      jumpi\n        /* \"#utility.yul\":5592:5671   */\n      tag_176\n      tag_94\n      jump\t// in\n    tag_176:\n        /* \"#utility.yul\":5554:5673   */\n    tag_175:\n        /* \"#utility.yul\":5712:5713   */\n      0x00\n        /* \"#utility.yul\":5737:5790   */\n      tag_177\n        /* \"#utility.yul\":5782:5789   */\n      dup6\n        /* \"#utility.yul\":5773:5779   */\n      dup3\n        /* \"#utility.yul\":5762:5771   */\n      dup7\n        /* \"#utility.yul\":5758:5780   */\n      add\n        /* \"#utility.yul\":5737:5790   */\n      tag_105\n      jump\t// in\n    tag_177:\n        /* \"#utility.yul\":5727:5790   */\n      swap3\n      pop\n        /* \"#utility.yul\":5683:5800   */\n      pop\n        /* \"#utility.yul\":5839:5841   */\n      0x20\n        /* \"#utility.yul\":5865:5918   */\n      tag_178\n        /* \"#utility.yul\":5910:5917   */\n      dup6\n        /* \"#utility.yul\":5901:5907   */\n      dup3\n        /* \"#utility.yul\":5890:5899   */\n      dup7\n        /* \"#utility.yul\":5886:5908   */\n      add\n        /* \"#utility.yul\":5865:5918   */\n      tag_105\n      jump\t// in\n    tag_178:\n        /* \"#utility.yul\":5855:5918   */\n      swap2\n      pop\n        /* \"#utility.yul\":5810:5928   */\n      pop\n        /* \"#utility.yul\":5461:5935   */\n      swap3\n      pop\n      swap3\n      swap1\n      pop\n      jump\t// out\n        /* \"#utility.yul\":5941:6560   */\n    tag_45:\n        /* \"#utility.yul\":6018:6024   */\n      0x00\n        /* \"#utility.yul\":6026:6032   */\n      dup1\n        /* \"#utility.yul\":6034:6040   */\n      0x00\n        /* \"#utility.yul\":6083:6085   */\n      0x60\n        /* \"#utility.yul\":6071:6080   */\n      dup5\n        /* \"#utility.yul\":6062:6069   */\n      dup7\n        /* \"#utility.yul\":6058:6081   */\n      sub\n        /* \"#utility.yul\":6054:6086   */\n      slt\n        /* \"#utility.yul\":6051:6170   */\n      iszero\n      tag_180\n      jumpi\n        /* \"#utility.yul\":6089:6168   */\n      tag_181\n      tag_94\n      jump\t// in\n    tag_181:\n        /* \"#utility.yul\":6051:6170   */\n    tag_180:\n        /* \"#utility.yul\":6209:6210   */\n      0x00\n        /* \"#utility.yul\":6234:6287   */\n      tag_182\n        /* \"#utility.yul\":6279:6286   */\n      dup7\n        /* \"#utility.yul\":6270:6276   */\n      dup3\n        /* \"#utility.yul\":6259:6268   */\n      dup8\n        /* \"#utility.yul\":6255:6277   */\n      add\n        /* \"#utility.yul\":6234:6287   */\n      tag_99\n      jump\t// in\n    tag_182:\n        /* \"#utility.yul\":6224:6287   */\n      swap4\n      pop\n        /* \"#utility.yul\":6180:6297   */\n      pop\n        /* \"#utility.yul\":6336:6338   */\n      0x20\n        /* \"#utility.yul\":6362:6415   */\n      tag_183\n        /* \"#utility.yul\":6407:6414   */\n      dup7\n        /* \"#utility.yul\":6398:6404   */\n      dup3\n        /* \"#utility.yul\":6387:6396   */\n      dup8\n        /* \"#utility.yul\":6383:6405   */\n      add\n        /* \"#utility.yul\":6362:6415   */\n      tag_99\n      jump\t// in\n    tag_183:\n        /* \"#utility.yul\":6352:6415   */\n      swap3\n      pop\n        /* \"#utility.yul\":6307:6425   */\n      pop\n        /* \"#utility.yul\":6464:6466   */\n      0x40\n        /* \"#utility.yul\":6490:6543   */\n      tag_184\n        /* \"#utility.yul\":6535:6542   */\n      dup7\n        /* \"#utility.yul\":6526:6532   */\n      dup3\n        /* \"#utility.yul\":6515:6524   */\n      dup8\n        /* \"#utility.yul\":6511:6533   */\n      add\n        /* \"#utility.yul\":6490:6543   */\n      tag_99\n      jump\t// in\n    tag_184:\n        /* \"#utility.yul\":6480:6543   */\n      swap2\n      pop\n        /* \"#utility.yul\":6435:6553   */\n      pop\n        /* \"#utility.yul\":5941:6560   */\n      swap3\n      pop\n      swap3\n      pop\n      swap3\n      jump\t// out\n        /* \"#utility.yul\":6566:7206   */\n    tag_50:\n        /* \"#utility.yul\":6759:6763   */\n      0x00\n        /* \"#utility.yul\":6797:6800   */\n      0xa0\n        /* \"#utility.yul\":6786:6795   */\n      dup3\n        /* \"#utility.yul\":6782:6801   */\n      add\n        /* \"#utility.yul\":6774:6801   */\n      swap1\n      pop\n        /* \"#utility.yul\":6811:6882   */\n      tag_186\n        /* \"#utility.yul\":6879:6880   */\n      0x00\n        /* \"#utility.yul\":6868:6877   */\n      dup4\n        /* \"#utility.yul\":6864:6881   */\n      add\n        /* \"#utility.yul\":6855:6861   */\n      dup9\n        /* \"#utility.yul\":6811:6882   */\n      tag_103\n      jump\t// in\n    tag_186:\n        /* \"#utility.yul\":6892:6964   */\n      tag_187\n        /* \"#utility.yul\":6960:6962   */\n      0x20\n        /* \"#utility.yul\":6949:6958   */\n      dup4\n        /* \"#utility.yul\":6945:6963   */\n      add\n        /* \"#utility.yul\":6936:6942   */\n      dup8\n        /* \"#utility.yul\":6892:6964   */\n      tag_103\n      jump\t// in\n    tag_187:\n        /* \"#utility.yul\":6974:7046   */\n      tag_188\n        /* \"#utility.yul\":7042:7044   */\n      0x40\n        /* \"#utility.yul\":7031:7040   */\n      dup4\n        /* \"#utility.yul\":7027:7045   */\n      add\n        /* \"#utility.yul\":7018:7024   */\n      dup7\n        /* \"#utility.yul\":6974:7046   */\n      tag_103\n      jump\t// in\n    tag_188:\n        /* \"#utility.yul\":7056:7122   */\n      tag_189\n        /* \"#utility.yul\":7118:7120   */\n      0x60\n        /* \"#utility.yul\":7107:7116   */\n      dup4\n        /* \"#utility.yul\":7103:7121   */\n      add\n        /* \"#utility.yul\":7094:7100   */\n      dup6\n        /* \"#utility.yul\":7056:7122   */\n      tag_101\n      jump\t// in\n    tag_189:\n        /* \"#utility.yul\":7132:7199   */\n      tag_190\n        /* \"#utility.yul\":7194:7197   */\n      0x80\n        /* \"#utility.yul\":7183:7192   */\n      dup4\n        /* \"#utility.yul\":7179:7198   */\n      add\n        /* \"#utility.yul\":7170:7176   */\n      dup5\n        /* \"#utility.yul\":7132:7199   */\n      tag_101\n      jump\t// in\n    tag_190:\n        /* \"#utility.yul\":6566:7206   */\n      swap7\n      swap6\n      pop\n      pop\n      pop\n      pop\n      pop\n      pop\n      jump\t// out\n        /* \"#utility.yul\":7212:7392   */\n    tag_109:\n        /* \"#utility.yul\":7260:7337   */\n      0x4e487b7100000000000000000000000000000000000000000000000000000000\n        /* \"#utility.yul\":7257:7258   */\n      0x00\n        /* \"#utility.yul\":7250:7338   */\n      mstore\n        /* \"#utility.yul\":7357:7361   */\n      0x11\n        /* \"#utility.yul\":7354:7355   */\n      0x04\n        /* \"#utility.yul\":7347:7362   */\n      mstore\n        /* \"#utility.yul\":7381:7385   */\n      0x24\n        /* \"#utility.yul\":7378:7379   */\n      0x00\n        /* \"#utility.yul\":7371:7386   */\n      revert\n        /* \"#utility.yul\":7398:7589   */\n    tag_79:\n        /* \"#utility.yul\":7438:7441   */\n      0x00\n        /* \"#utility.yul\":7457:7477   */\n      tag_193\n        /* \"#utility.yul\":7475:7476   */\n      dup3\n        /* \"#utility.yul\":7457:7477   */\n      tag_102\n      jump\t// in\n    tag_193:\n        /* \"#utility.yul\":7452:7477   */\n      swap2\n      pop\n        /* \"#utility.yul\":7491:7511   */\n      tag_194\n        /* \"#utility.yul\":7509:7510   */\n      dup4\n        /* \"#utility.yul\":7491:7511   */\n      tag_102\n      jump\t// in\n    tag_194:\n        /* \"#utility.yul\":7486:7511   */\n      swap3\n      pop\n        /* \"#utility.yul\":7534:7535   */\n      dup3\n        /* \"#utility.yul\":7531:7532   */\n      dup3\n        /* \"#utility.yul\":7527:7536   */\n      add\n        /* \"#utility.yul\":7520:7536   */\n      swap1\n      pop\n        /* \"#utility.yul\":7555:7558   */\n      dup1\n        /* \"#utility.yul\":7552:7553   */\n      dup3\n        /* \"#utility.yul\":7549:7559   */\n      gt\n        /* \"#utility.yul\":7546:7582   */\n      iszero\n      tag_195\n      jumpi\n        /* \"#utility.yul\":7562:7580   */\n      tag_196\n      tag_109\n      jump\t// in\n    tag_196:\n        /* \"#utility.yul\":7546:7582   */\n    tag_195:\n        /* \"#utility.yul\":7398:7589   */\n      swap3\n      swap2\n      pop\n      pop\n      jump\t// out\n\n    auxdata: 0xa26469706673582212203f8914f1a45c2dc275c947449ad21ffe333e900e8556ee1e5f476e8e97de9c9464736f6c63430008120033\n}\n",
				"bytecode": {
					"linkReferences": {},
					"object": "60806040523480156200001157600080fd5b5060405162001a4138038062001a418339818101604052810190620000379190620004fd565b60008310156200004657600080fd5b60008210156200005557600080fd5b62093a808310156200006657600080fd5b62530e808311156200007757600080fd5b6000429050806007600001819055508381620000949190620005fe565b6007600101819055508260076002018190555081600760030160006101000a81548160ff02191690831515021790555060008303620000ec576001600760030160016101000a81548160ff0219169083151502179055505b600073ffffffffffffffffffffffffffffffffffffffff168873ffffffffffffffffffffffffffffffffffffffff16036200012657600080fd5b600073ffffffffffffffffffffffffffffffffffffffff168773ffffffffffffffffffffffffffffffffffffffff16036200016057600080fd5b87600060016101000a81548173ffffffffffffffffffffffffffffffffffffffff021916908373ffffffffffffffffffffffffffffffffffffffff16021790555086600160006101000a81548173ffffffffffffffffffffffffffffffffffffffff021916908373ffffffffffffffffffffffffffffffffffffffff1602179055508460039081620001f391906200087a565b508573ffffffffffffffffffffffffffffffffffffffff168773ffffffffffffffffffffffffffffffffffffffff168973ffffffffffffffffffffffffffffffffffffffff167fe9ea401d47e3cb04c779d3506d208fa62b08c0b96ba7940a0b9103266706a8e78885600760010154898960405162000277959493929190620009d5565b60405180910390a4505050505050505062000a39565b6000604051905090565b600080fd5b600080fd5b600073ffffffffffffffffffffffffffffffffffffffff82169050919050565b6000620002ce82620002a1565b9050919050565b620002e081620002c1565b8114620002ec57600080fd5b50565b6000815190506200030081620002d5565b92915050565b600080fd5b600080fd5b6000601f19601f8301169050919050565b7f4e487b7100000000000000000000000000000000000000000000000000000000600052604160045260246000fd5b6200035b8262000310565b810181811067ffffffffffffffff821117156200037d576200037c62000321565b5b80604052505050565b6000620003926200028d565b9050620003a0828262000350565b919050565b600067ffffffffffffffff821115620003c357620003c262000321565b5b620003ce8262000310565b9050602081019050919050565b60005b83811015620003fb578082015181840152602081019050620003de565b60008484015250505050565b60006200041e6200041884620003a5565b62000386565b9050828152602081018484840111156200043d576200043c6200030b565b5b6200044a848285620003db565b509392505050565b600082601f8301126200046a576200046962000306565b5b81516200047c84826020860162000407565b91505092915050565b6000819050919050565b6200049a8162000485565b8114620004a657600080fd5b50565b600081519050620004ba816200048f565b92915050565b60008115159050919050565b620004d781620004c0565b8114620004e357600080fd5b50565b600081519050620004f781620004cc565b92915050565b600080600080600080600060e0888a0312156200051f576200051e62000297565b5b60006200052f8a828b01620002ef565b9750506020620005428a828b01620002ef565b9650506040620005558a828b01620002ef565b955050606088015167ffffffffffffffff8111156200057957620005786200029c565b5b620005878a828b0162000452565b94505060806200059a8a828b01620004a9565b93505060a0620005ad8a828b01620004a9565b92505060c0620005c08a828b01620004e6565b91505092959891949750929550565b7f4e487b7100000000000000000000000000000000000000000000000000000000600052601160045260246000fd5b60006200060b8262000485565b9150620006188362000485565b9250828201905080821115620006335762000632620005cf565b5b92915050565b600081519050919050565b7f4e487b7100000000000000000000000000000000000000000000000000000000600052602260045260246000fd5b600060028204905060018216806200068c57607f821691505b602082108103620006a257620006a162000644565b5b50919050565b60008190508160005260206000209050919050565b60006020601f8301049050919050565b600082821b905092915050565b6000600883026200070c7fffffffffffffffffffffffffffffffffffffffffffffffffffffffffffffffff82620006cd565b620007188683620006cd565b95508019841693508086168417925050509392505050565b6000819050919050565b60006200075b620007556200074f8462000485565b62000730565b62000485565b9050919050565b6000819050919050565b62000777836200073a565b6200078f620007868262000762565b848454620006da565b825550505050565b600090565b620007a662000797565b620007b38184846200076c565b505050565b5b81811015620007db57620007cf6000826200079c565b600181019050620007b9565b5050565b601f8211156200082a57620007f481620006a8565b620007ff84620006bd565b810160208510156200080f578190505b620008276200081e85620006bd565b830182620007b8565b50505b505050565b600082821c905092915050565b60006200084f600019846008026200082f565b1980831691505092915050565b60006200086a83836200083c565b9150826002028217905092915050565b620008858262000639565b67ffffffffffffffff811115620008a157620008a062000321565b5b620008ad825462000673565b620008ba828285620007df565b600060209050601f831160018114620008f25760008415620008dd578287015190505b620008e985826200085c565b86555062000959565b601f1984166200090286620006a8565b60005b828110156200092c5784890151825560018201915060208501945060208101905062000905565b868310156200094c578489015162000948601f8916826200083c565b8355505b6001600288020188555050505b505050505050565b600082825260208201905092915050565b60006200097f8262000639565b6200098b818562000961565b93506200099d818560208601620003db565b620009a88162000310565b840191505092915050565b620009be8162000485565b82525050565b620009cf81620004c0565b82525050565b600060a0820190508181036000830152620009f1818862000972565b905062000a026020830187620009b3565b62000a116040830186620009b3565b62000a206060830185620009b3565b62000a2f6080830184620009c4565b9695505050505050565b610ff88062000a496000396000f3fe608060405234801561001057600080fd5b50600436106100935760003560e01c8063728c844b11610066578063728c844b146101225780639fa6021814610141578063a3691c701461015d578063b48ab19c14610179578063ff5d6b621461019557610093565b80630c0a8f24146100985780632e1a7d4d146100ca5780635936f067146100e65780636f6752fe14610102575b600080fd5b6100b260048036038101906100ad9190610c0b565b6101b7565b6040516100c193929190610c6c565b60405180910390f35b6100e460048036038101906100df9190610ccf565b6102a3565b005b61010060048036038101906100fb9190610d28565b6103c0565b005b61010a61050a565b60405161011993929190610db2565b60405180910390f35b61012a610582565b604051610138929190610de9565b60405180910390f35b61015b60048036038101906101569190610e12565b610599565b005b61017760048036038101906101729190610e79565b61078f565b005b610193600480360381019061018e9190610eb9565b6108c7565b005b61019d610b57565b6040516101ae959493929190610f0c565b60405180910390f35b6000806000600460008573ffffffffffffffffffffffffffffffffffffffff1673ffffffffffffffffffffffffffffffffffffffff16815260200190815260200160002060009054906101000a900460ff16600560008673ffffffffffffffffffffffffffffffffffffffff1673ffffffffffffffffffffffffffffffffffffffff16815260200190815260200160002060009054906101000a900460ff16600660008773ffffffffffffffffffffffffffffffffffffffff1673ffffffffffffffffffffffffffffffffffffffff168152602001908152602001600020549250925092509193909250565b600060019054906101000a900473ffffffffffffffffffffffffffffffffffffffff1673ffffffffffffffffffffffffffffffffffffffff163373ffffffffffffffffffffffffffffffffffffffff16146102fd57600080fd5b6000151560008054906101000a900460ff1615151461031b57600080fd5b60016000806101000a81548160ff02191690831515021790555060008060019054906101000a900473ffffffffffffffffffffffffffffffffffffffff1690508073ffffffffffffffffffffffffffffffffffffffff166108fc839081150290604051600060405180830381858888f193505050501580156103a1573d6000803e3d6000fd5b505060008060006101000a81548160ff02191690831515021790555050565b600060019054906101000a900473ffffffffffffffffffffffffffffffffffffffff1673ffffffffffffffffffffffffffffffffffffffff163373ffffffffffffffffffffffffffffffffffffffff161461041a57600080fd5b6000151560008054906101000a900460ff1615151461043857600080fd5b60016000806101000a81548160ff02191690831515021790555084600760000181905550836007600101819055508260076002018190555081600760030160006101000a81548160ff02191690831515021790555080600760030160016101000a81548160ff0219169083151502179055507f5f3a6e7a9309e860fa0c5f7d649c831e3fbce430b835da14e1f7eee23861de6785858585856040516104e1959493929190610f0c565b60405180910390a160008060006101000a81548160ff0219169083151502179055505050505050565b60008060008060019054906101000a900473ffffffffffffffffffffffffffffffffffffffff16600160009054906101000a900473ffffffffffffffffffffffffffffffffffffffff16600260009054906101000a900473ffffffffffffffffffffffffffffffffffffffff16925092509250909192565b600080600b60000154600b60010154915091509091565b600060019054906101000a900473ffffffffffffffffffffffffffffffffffffffff1673ffffffffffffffffffffffffffffffffffffffff163373ffffffffffffffffffffffffffffffffffffffff16146105f357600080fd5b6000151560008054906101000a900460ff1615151461061157600080fd5b60016000806101000a81548160ff02191690831515021790555082600460008673ffffffffffffffffffffffffffffffffffffffff1673ffffffffffffffffffffffffffffffffffffffff16815260200190815260200160002060006101000a81548160ff02191690831515021790555081600560008673ffffffffffffffffffffffffffffffffffffffff1673ffffffffffffffffffffffffffffffffffffffff16815260200190815260200160002060006101000a81548160ff02191690831515021790555080600660008673ffffffffffffffffffffffffffffffffffffffff1673ffffffffffffffffffffffffffffffffffffffff168152602001908152602001600020819055508373ffffffffffffffffffffffffffffffffffffffff167fba39a5d1d0f136d3d3d54d8197e91c85ec53cf01ee31cafe0f824f3b160b157e84848460405161076793929190610c6c565b60405180910390a260008060006101000a81548160ff02191690831515021790555050505050565b600060019054906101000a900473ffffffffffffffffffffffffffffffffffffffff1673ffffffffffffffffffffffffffffffffffffffff163373ffffffffffffffffffffffffffffffffffffffff16146107e957600080fd5b6000151560008054906101000a900460ff1615151461080757600080fd5b60016000806101000a81548160ff02191690831515021790555062093a806007600101546108359190610f8e565b82101561084157600080fd5b62093a80826108509190610f8e565b81101561085c57600080fd5b81600b6000018190555080600b600101819055507fe9b0a43fcc234c21d82587b79aefeb27e126c56f0bdad1c45d14f7739965d5a982826040516108a1929190610de9565b60405180910390a160008060006101000a81548160ff0219169083151502179055505050565b600060019054906101000a900473ffffffffffffffffffffffffffffffffffffffff1673ffffffffffffffffffffffffffffffffffffffff163373ffffffffffffffffffffffffffffffffffffffff161461092157600080fd5b6000151560008054906101000a900460ff1615151461093f57600080fd5b60016000806101000a81548160ff021916908315150217905550600073ffffffffffffffffffffffffffffffffffffffff168373ffffffffffffffffffffffffffffffffffffffff160361099257600080fd5b600073ffffffffffffffffffffffffffffffffffffffff168273ffffffffffffffffffffffffffffffffffffffff16036109cb57600080fd5b600073ffffffffffffffffffffffffffffffffffffffff168173ffffffffffffffffffffffffffffffffffffffff1603610a0457600080fd5b82600060016101000a81548173ffffffffffffffffffffffffffffffffffffffff021916908373ffffffffffffffffffffffffffffffffffffffff16021790555081600160006101000a81548173ffffffffffffffffffffffffffffffffffffffff021916908373ffffffffffffffffffffffffffffffffffffffff16021790555080600260006101000a81548173ffffffffffffffffffffffffffffffffffffffff021916908373ffffffffffffffffffffffffffffffffffffffff1602179055508073ffffffffffffffffffffffffffffffffffffffff168273ffffffffffffffffffffffffffffffffffffffff168473ffffffffffffffffffffffffffffffffffffffff167f558b08919db4953667819ba17b813c3b1b02640b1164d32f581c75eaa7b2d3a260405160405180910390a460008060006101000a81548160ff021916908315150217905550505050565b6000806000806000600760000154600760010154600760020154600760030160009054906101000a900460ff16600760030160019054906101000a900460ff16945094509450945094509091929394565b600080fd5b600073ffffffffffffffffffffffffffffffffffffffff82169050919050565b6000610bd882610bad565b9050919050565b610be881610bcd565b8114610bf357600080fd5b50565b600081359050610c0581610bdf565b92915050565b600060208284031215610c2157610c20610ba8565b5b6000610c2f84828501610bf6565b91505092915050565b60008115159050919050565b610c4d81610c38565b82525050565b6000819050919050565b610c6681610c53565b82525050565b6000606082019050610c816000830186610c44565b610c8e6020830185610c44565b610c9b6040830184610c5d565b949350505050565b610cac81610c53565b8114610cb757600080fd5b50565b600081359050610cc981610ca3565b92915050565b600060208284031215610ce557610ce4610ba8565b5b6000610cf384828501610cba565b91505092915050565b610d0581610c38565b8114610d1057600080fd5b50565b600081359050610d2281610cfc565b92915050565b600080600080600060a08688031215610d4457610d43610ba8565b5b6000610d5288828901610cba565b9550506020610d6388828901610cba565b9450506040610d7488828901610cba565b9350506060610d8588828901610d13565b9250506080610d9688828901610d13565b9150509295509295909350565b610dac81610bcd565b82525050565b6000606082019050610dc76000830186610da3565b610dd46020830185610da3565b610de16040830184610da3565b949350505050565b6000604082019050610dfe6000830185610c5d565b610e0b6020830184610c5d565b9392505050565b60008060008060808587031215610e2c57610e2b610ba8565b5b6000610e3a87828801610bf6565b9450506020610e4b87828801610d13565b9350506040610e5c87828801610d13565b9250506060610e6d87828801610cba565b91505092959194509250565b60008060408385031215610e9057610e8f610ba8565b5b6000610e9e85828601610cba565b9250506020610eaf85828601610cba565b9150509250929050565b600080600060608486031215610ed257610ed1610ba8565b5b6000610ee086828701610bf6565b9350506020610ef186828701610bf6565b9250506040610f0286828701610bf6565b9150509250925092565b600060a082019050610f216000830188610c5d565b610f2e6020830187610c5d565b610f3b6040830186610c5d565b610f486060830185610c44565b610f556080830184610c44565b9695505050505050565b7f4e487b7100000000000000000000000000000000000000000000000000000000600052601160045260246000fd5b6000610f9982610c53565b9150610fa483610c53565b9250828201905080821115610fbc57610fbb610f5f565b5b9291505056fea26469706673582212203f8914f1a45c2dc275c947449ad21ffe333e900e8556ee1e5f476e8e97de9c9464736f6c63430008120033",
					"opcodes": "PUSH1 0x80 PUSH1 0x40 MSTORE CALLVALUE DUP1 ISZERO PUSH3 0x11 JUMPI PUSH1 0x0 DUP1 REVERT JUMPDEST POP PUSH1 0x40 MLOAD PUSH3 0x1A41 CODESIZE SUB DUP1 PUSH3 0x1A41 DUP4 CODECOPY DUP2 DUP2 ADD PUSH1 0x40 MSTORE DUP2 ADD SWAP1 PUSH3 0x37 SWAP2 SWAP1 PUSH3 0x4FD JUMP JUMPDEST PUSH1 0x0 DUP4 LT ISZERO PUSH3 0x46 JUMPI PUSH1 0x0 DUP1 REVERT JUMPDEST PUSH1 0x0 DUP3 LT ISZERO PUSH3 0x55 JUMPI PUSH1 0x0 DUP1 REVERT JUMPDEST PUSH3 0x93A80 DUP4 LT ISZERO PUSH3 0x66 JUMPI PUSH1 0x0 DUP1 REVERT JUMPDEST PUSH3 0x530E80 DUP4 GT ISZERO PUSH3 0x77 JUMPI PUSH1 0x0 DUP1 REVERT JUMPDEST PUSH1 0x0 TIMESTAMP SWAP1 POP DUP1 PUSH1 0x7 PUSH1 0x0 ADD DUP2 SWAP1 SSTORE POP DUP4 DUP2 PUSH3 0x94 SWAP2 SWAP1 PUSH3 0x5FE JUMP JUMPDEST PUSH1 0x7 PUSH1 0x1 ADD DUP2 SWAP1 SSTORE POP DUP3 PUSH1 0x7 PUSH1 0x2 ADD DUP2 SWAP1 SSTORE POP DUP2 PUSH1 0x7 PUSH1 0x3 ADD PUSH1 0x0 PUSH2 0x100 EXP DUP2 SLOAD DUP2 PUSH1 0xFF MUL NOT AND SWAP1 DUP4 ISZERO ISZERO MUL OR SWAP1 SSTORE POP PUSH1 0x0 DUP4 SUB PUSH3 0xEC JUMPI PUSH1 0x1 PUSH1 0x7 PUSH1 0x3 ADD PUSH1 0x1 PUSH2 0x100 EXP DUP2 SLOAD DUP2 PUSH1 0xFF MUL NOT AND SWAP1 DUP4 ISZERO ISZERO MUL OR SWAP1 SSTORE POP JUMPDEST PUSH1 0x0 PUSH20 0xFFFFFFFFFFFFFFFFFFFFFFFFFFFFFFFFFFFFFFFF AND DUP9 PUSH20 0xFFFFFFFFFFFFFFFFFFFFFFFFFFFFFFFFFFFFFFFF AND SUB PUSH3 0x126 JUMPI PUSH1 0x0 DUP1 REVERT JUMPDEST PUSH1 0x0 PUSH20 0xFFFFFFFFFFFFFFFFFFFFFFFFFFFFFFFFFFFFFFFF AND DUP8 PUSH20 0xFFFFFFFFFFFFFFFFFFFFFFFFFFFFFFFFFFFFFFFF AND SUB PUSH3 0x160 JUMPI PUSH1 0x0 DUP1 REVERT JUMPDEST DUP8 PUSH1 0x0 PUSH1 0x1 PUSH2 0x100 EXP DUP2 SLOAD DUP2 PUSH20 0xFFFFFFFFFFFFFFFFFFFFFFFFFFFFFFFFFFFFFFFF MUL NOT AND SWAP1 DUP4 PUSH20 0xFFFFFFFFFFFFFFFFFFFFFFFFFFFFFFFFFFFFFFFF AND MUL OR SWAP1 SSTORE POP DUP7 PUSH1 0x1 PUSH1 0x0 PUSH2 0x100 EXP DUP2 SLOAD DUP2 PUSH20 0xFFFFFFFFFFFFFFFFFFFFFFFFFFFFFFFFFFFFFFFF MUL NOT AND SWAP1 DUP4 PUSH20 0xFFFFFFFFFFFFFFFFFFFFFFFFFFFFFFFFFFFFFFFF AND MUL OR SWAP1 SSTORE POP DUP5 PUSH1 0x3 SWAP1 DUP2 PUSH3 0x1F3 SWAP2 SWAP1 PUSH3 0x87A JUMP JUMPDEST POP DUP6 PUSH20 0xFFFFFFFFFFFFFFFFFFFFFFFFFFFFFFFFFFFFFFFF AND DUP8 PUSH20 0xFFFFFFFFFFFFFFFFFFFFFFFFFFFFFFFFFFFFFFFF AND DUP10 PUSH20 0xFFFFFFFFFFFFFFFFFFFFFFFFFFFFFFFFFFFFFFFF AND PUSH32 0xE9EA401D47E3CB04C779D3506D208FA62B08C0B96BA7940A0B9103266706A8E7 DUP9 DUP6 PUSH1 0x7 PUSH1 0x1 ADD SLOAD DUP10 DUP10 PUSH1 0x40 MLOAD PUSH3 0x277 SWAP6 SWAP5 SWAP4 SWAP3 SWAP2 SWAP1 PUSH3 0x9D5 JUMP JUMPDEST PUSH1 0x40 MLOAD DUP1 SWAP2 SUB SWAP1 LOG4 POP POP POP POP POP POP POP POP PUSH3 0xA39 JUMP JUMPDEST PUSH1 0x0 PUSH1 0x40 MLOAD SWAP1 POP SWAP1 JUMP JUMPDEST PUSH1 0x0 DUP1 REVERT JUMPDEST PUSH1 0x0 DUP1 REVERT JUMPDEST PUSH1 0x0 PUSH20 0xFFFFFFFFFFFFFFFFFFFFFFFFFFFFFFFFFFFFFFFF DUP3 AND SWAP1 POP SWAP2 SWAP1 POP JUMP JUMPDEST PUSH1 0x0 PUSH3 0x2CE DUP3 PUSH3 0x2A1 JUMP JUMPDEST SWAP1 POP SWAP2 SWAP1 POP JUMP JUMPDEST PUSH3 0x2E0 DUP2 PUSH3 0x2C1 JUMP JUMPDEST DUP2 EQ PUSH3 0x2EC JUMPI PUSH1 0x0 DUP1 REVERT JUMPDEST POP JUMP JUMPDEST PUSH1 0x0 DUP2 MLOAD SWAP1 POP PUSH3 0x300 DUP2 PUSH3 0x2D5 JUMP JUMPDEST SWAP3 SWAP2 POP POP JUMP JUMPDEST PUSH1 0x0 DUP1 REVERT JUMPDEST PUSH1 0x0 DUP1 REVERT JUMPDEST PUSH1 0x0 PUSH1 0x1F NOT PUSH1 0x1F DUP4 ADD AND SWAP1 POP SWAP2 SWAP1 POP JUMP JUMPDEST PUSH32 0x4E487B7100000000000000000000000000000000000000000000000000000000 PUSH1 0x0 MSTORE PUSH1 0x41 PUSH1 0x4 MSTORE PUSH1 0x24 PUSH1 0x0 REVERT JUMPDEST PUSH3 0x35B DUP3 PUSH3 0x310 JUMP JUMPDEST DUP2 ADD DUP2 DUP2 LT PUSH8 0xFFFFFFFFFFFFFFFF DUP3 GT OR ISZERO PUSH3 0x37D JUMPI PUSH3 0x37C PUSH3 0x321 JUMP JUMPDEST JUMPDEST DUP1 PUSH1 0x40 MSTORE POP POP POP JUMP JUMPDEST PUSH1 0x0 PUSH3 0x392 PUSH3 0x28D JUMP JUMPDEST SWAP1 POP PUSH3 0x3A0 DUP3 DUP3 PUSH3 0x350 JUMP JUMPDEST SWAP2 SWAP1 POP JUMP JUMPDEST PUSH1 0x0 PUSH8 0xFFFFFFFFFFFFFFFF DUP3 GT ISZERO PUSH3 0x3C3 JUMPI PUSH3 0x3C2 PUSH3 0x321 JUMP JUMPDEST JUMPDEST PUSH3 0x3CE DUP3 PUSH3 0x310 JUMP JUMPDEST SWAP1 POP PUSH1 0x20 DUP2 ADD SWAP1 POP SWAP2 SWAP1 POP JUMP JUMPDEST PUSH1 0x0 JUMPDEST DUP4 DUP2 LT ISZERO PUSH3 0x3FB JUMPI DUP1 DUP3 ADD MLOAD DUP2 DUP5 ADD MSTORE PUSH1 0x20 DUP2 ADD SWAP1 POP PUSH3 0x3DE JUMP JUMPDEST PUSH1 0x0 DUP5 DUP5 ADD MSTORE POP POP POP POP JUMP JUMPDEST PUSH1 0x0 PUSH3 0x41E PUSH3 0x418 DUP5 PUSH3 0x3A5 JUMP JUMPDEST PUSH3 0x386 JUMP JUMPDEST SWAP1 POP DUP3 DUP2 MSTORE PUSH1 0x20 DUP2 ADD DUP5 DUP5 DUP5 ADD GT ISZERO PUSH3 0x43D JUMPI PUSH3 0x43C PUSH3 0x30B JUMP JUMPDEST JUMPDEST PUSH3 0x44A DUP5 DUP3 DUP6 PUSH3 0x3DB JUMP JUMPDEST POP SWAP4 SWAP3 POP POP POP JUMP JUMPDEST PUSH1 0x0 DUP3 PUSH1 0x1F DUP4 ADD SLT PUSH3 0x46A JUMPI PUSH3 0x469 PUSH3 0x306 JUMP JUMPDEST JUMPDEST DUP2 MLOAD PUSH3 0x47C DUP5 DUP3 PUSH1 0x20 DUP7 ADD PUSH3 0x407 JUMP JUMPDEST SWAP2 POP POP SWAP3 SWAP2 POP POP JUMP JUMPDEST PUSH1 0x0 DUP2 SWAP1 POP SWAP2 SWAP1 POP JUMP JUMPDEST PUSH3 0x49A DUP2 PUSH3 0x485 JUMP JUMPDEST DUP2 EQ PUSH3 0x4A6 JUMPI PUSH1 0x0 DUP1 REVERT JUMPDEST POP JUMP JUMPDEST PUSH1 0x0 DUP2 MLOAD SWAP1 POP PUSH3 0x4BA DUP2 PUSH3 0x48F JUMP JUMPDEST SWAP3 SWAP2 POP POP JUMP JUMPDEST PUSH1 0x0 DUP2 ISZERO ISZERO SWAP1 POP SWAP2 SWAP1 POP JUMP JUMPDEST PUSH3 0x4D7 DUP2 PUSH3 0x4C0 JUMP JUMPDEST DUP2 EQ PUSH3 0x4E3 JUMPI PUSH1 0x0 DUP1 REVERT JUMPDEST POP JUMP JUMPDEST PUSH1 0x0 DUP2 MLOAD SWAP1 POP PUSH3 0x4F7 DUP2 PUSH3 0x4CC JUMP JUMPDEST SWAP3 SWAP2 POP POP JUMP JUMPDEST PUSH1 0x0 DUP1 PUSH1 0x0 DUP1 PUSH1 0x0 DUP1 PUSH1 0x0 PUSH1 0xE0 DUP9 DUP11 SUB SLT ISZERO PUSH3 0x51F JUMPI PUSH3 0x51E PUSH3 0x297 JUMP JUMPDEST JUMPDEST PUSH1 0x0 PUSH3 0x52F DUP11 DUP3 DUP12 ADD PUSH3 0x2EF JUMP JUMPDEST SWAP8 POP POP PUSH1 0x20 PUSH3 0x542 DUP11 DUP3 DUP12 ADD PUSH3 0x2EF JUMP JUMPDEST SWAP7 POP POP PUSH1 0x40 PUSH3 0x555 DUP11 DUP3 DUP12 ADD PUSH3 0x2EF JUMP JUMPDEST SWAP6 POP POP PUSH1 0x60 DUP9 ADD MLOAD PUSH8 0xFFFFFFFFFFFFFFFF DUP2 GT ISZERO PUSH3 0x579 JUMPI PUSH3 0x578 PUSH3 0x29C JUMP JUMPDEST JUMPDEST PUSH3 0x587 DUP11 DUP3 DUP12 ADD PUSH3 0x452 JUMP JUMPDEST SWAP5 POP POP PUSH1 0x80 PUSH3 0x59A DUP11 DUP3 DUP12 ADD PUSH3 0x4A9 JUMP JUMPDEST SWAP4 POP POP PUSH1 0xA0 PUSH3 0x5AD DUP11 DUP3 DUP12 ADD PUSH3 0x4A9 JUMP JUMPDEST SWAP3 POP POP PUSH1 0xC0 PUSH3 0x5C0 DUP11 DUP3 DUP12 ADD PUSH3 0x4E6 JUMP JUMPDEST SWAP2 POP POP SWAP3 SWAP6 SWAP9 SWAP2 SWAP5 SWAP8 POP SWAP3 SWAP6 POP JUMP JUMPDEST PUSH32 0x4E487B7100000000000000000000000000000000000000000000000000000000 PUSH1 0x0 MSTORE PUSH1 0x11 PUSH1 0x4 MSTORE PUSH1 0x24 PUSH1 0x0 REVERT JUMPDEST PUSH1 0x0 PUSH3 0x60B DUP3 PUSH3 0x485 JUMP JUMPDEST SWAP2 POP PUSH3 0x618 DUP4 PUSH3 0x485 JUMP JUMPDEST SWAP3 POP DUP3 DUP3 ADD SWAP1 POP DUP1 DUP3 GT ISZERO PUSH3 0x633 JUMPI PUSH3 0x632 PUSH3 0x5CF JUMP JUMPDEST JUMPDEST SWAP3 SWAP2 POP POP JUMP JUMPDEST PUSH1 0x0 DUP2 MLOAD SWAP1 POP SWAP2 SWAP1 POP JUMP JUMPDEST PUSH32 0x4E487B7100000000000000000000000000000000000000000000000000000000 PUSH1 0x0 MSTORE PUSH1 0x22 PUSH1 0x4 MSTORE PUSH1 0x24 PUSH1 0x0 REVERT JUMPDEST PUSH1 0x0 PUSH1 0x2 DUP3 DIV SWAP1 POP PUSH1 0x1 DUP3 AND DUP1 PUSH3 0x68C JUMPI PUSH1 0x7F DUP3 AND SWAP2 POP JUMPDEST PUSH1 0x20 DUP3 LT DUP2 SUB PUSH3 0x6A2 JUMPI PUSH3 0x6A1 PUSH3 0x644 JUMP JUMPDEST JUMPDEST POP SWAP2 SWAP1 POP JUMP JUMPDEST PUSH1 0x0 DUP2 SWAP1 POP DUP2 PUSH1 0x0 MSTORE PUSH1 0x20 PUSH1 0x0 KECCAK256 SWAP1 POP SWAP2 SWAP1 POP JUMP JUMPDEST PUSH1 0x0 PUSH1 0x20 PUSH1 0x1F DUP4 ADD DIV SWAP1 POP SWAP2 SWAP1 POP JUMP JUMPDEST PUSH1 0x0 DUP3 DUP3 SHL SWAP1 POP SWAP3 SWAP2 POP POP JUMP JUMPDEST PUSH1 0x0 PUSH1 0x8 DUP4 MUL PUSH3 0x70C PUSH32 0xFFFFFFFFFFFFFFFFFFFFFFFFFFFFFFFFFFFFFFFFFFFFFFFFFFFFFFFFFFFFFFFF DUP3 PUSH3 0x6CD JUMP JUMPDEST PUSH3 0x718 DUP7 DUP4 PUSH3 0x6CD JUMP JUMPDEST SWAP6 POP DUP1 NOT DUP5 AND SWAP4 POP DUP1 DUP7 AND DUP5 OR SWAP3 POP POP POP SWAP4 SWAP3 POP POP POP JUMP JUMPDEST PUSH1 0x0 DUP2 SWAP1 POP SWAP2 SWAP1 POP JUMP JUMPDEST PUSH1 0x0 PUSH3 0x75B PUSH3 0x755 PUSH3 0x74F DUP5 PUSH3 0x485 JUMP JUMPDEST PUSH3 0x730 JUMP JUMPDEST PUSH3 0x485 JUMP JUMPDEST SWAP1 POP SWAP2 SWAP1 POP JUMP JUMPDEST PUSH1 0x0 DUP2 SWAP1 POP SWAP2 SWAP1 POP JUMP JUMPDEST PUSH3 0x777 DUP4 PUSH3 0x73A JUMP JUMPDEST PUSH3 0x78F PUSH3 0x786 DUP3 PUSH3 0x762 JUMP JUMPDEST DUP5 DUP5 SLOAD PUSH3 0x6DA JUMP JUMPDEST DUP3 SSTORE POP POP POP POP JUMP JUMPDEST PUSH1 0x0 SWAP1 JUMP JUMPDEST PUSH3 0x7A6 PUSH3 0x797 JUMP JUMPDEST PUSH3 0x7B3 DUP2 DUP5 DUP5 PUSH3 0x76C JUMP JUMPDEST POP POP POP JUMP JUMPDEST JUMPDEST DUP2 DUP2 LT ISZERO PUSH3 0x7DB JUMPI PUSH3 0x7CF PUSH1 0x0 DUP3 PUSH3 0x79C JUMP JUMPDEST PUSH1 0x1 DUP2 ADD SWAP1 POP PUSH3 0x7B9 JUMP JUMPDEST POP POP JUMP JUMPDEST PUSH1 0x1F DUP3 GT ISZERO PUSH3 0x82A JUMPI PUSH3 0x7F4 DUP2 PUSH3 0x6A8 JUMP JUMPDEST PUSH3 0x7FF DUP5 PUSH3 0x6BD JUMP JUMPDEST DUP2 ADD PUSH1 0x20 DUP6 LT ISZERO PUSH3 0x80F JUMPI DUP2 SWAP1 POP JUMPDEST PUSH3 0x827 PUSH3 0x81E DUP6 PUSH3 0x6BD JUMP JUMPDEST DUP4 ADD DUP3 PUSH3 0x7B8 JUMP JUMPDEST POP POP JUMPDEST POP POP POP JUMP JUMPDEST PUSH1 0x0 DUP3 DUP3 SHR SWAP1 POP SWAP3 SWAP2 POP POP JUMP JUMPDEST PUSH1 0x0 PUSH3 0x84F PUSH1 0x0 NOT DUP5 PUSH1 0x8 MUL PUSH3 0x82F JUMP JUMPDEST NOT DUP1 DUP4 AND SWAP2 POP POP SWAP3 SWAP2 POP POP JUMP JUMPDEST PUSH1 0x0 PUSH3 0x86A DUP4 DUP4 PUSH3 0x83C JUMP JUMPDEST SWAP2 POP DUP3 PUSH1 0x2 MUL DUP3 OR SWAP1 POP SWAP3 SWAP2 POP POP JUMP JUMPDEST PUSH3 0x885 DUP3 PUSH3 0x639 JUMP JUMPDEST PUSH8 0xFFFFFFFFFFFFFFFF DUP2 GT ISZERO PUSH3 0x8A1 JUMPI PUSH3 0x8A0 PUSH3 0x321 JUMP JUMPDEST JUMPDEST PUSH3 0x8AD DUP3 SLOAD PUSH3 0x673 JUMP JUMPDEST PUSH3 0x8BA DUP3 DUP3 DUP6 PUSH3 0x7DF JUMP JUMPDEST PUSH1 0x0 PUSH1 0x20 SWAP1 POP PUSH1 0x1F DUP4 GT PUSH1 0x1 DUP2 EQ PUSH3 0x8F2 JUMPI PUSH1 0x0 DUP5 ISZERO PUSH3 0x8DD JUMPI DUP3 DUP8 ADD MLOAD SWAP1 POP JUMPDEST PUSH3 0x8E9 DUP6 DUP3 PUSH3 0x85C JUMP JUMPDEST DUP7 SSTORE POP PUSH3 0x959 JUMP JUMPDEST PUSH1 0x1F NOT DUP5 AND PUSH3 0x902 DUP7 PUSH3 0x6A8 JUMP JUMPDEST PUSH1 0x0 JUMPDEST DUP3 DUP2 LT ISZERO PUSH3 0x92C JUMPI DUP5 DUP10 ADD MLOAD DUP3 SSTORE PUSH1 0x1 DUP3 ADD SWAP2 POP PUSH1 0x20 DUP6 ADD SWAP5 POP PUSH1 0x20 DUP2 ADD SWAP1 POP PUSH3 0x905 JUMP JUMPDEST DUP7 DUP4 LT ISZERO PUSH3 0x94C JUMPI DUP5 DUP10 ADD MLOAD PUSH3 0x948 PUSH1 0x1F DUP10 AND DUP3 PUSH3 0x83C JUMP JUMPDEST DUP4 SSTORE POP JUMPDEST PUSH1 0x1 PUSH1 0x2 DUP9 MUL ADD DUP9 SSTORE POP POP POP JUMPDEST POP POP POP POP POP POP JUMP JUMPDEST PUSH1 0x0 DUP3 DUP3 MSTORE PUSH1 0x20 DUP3 ADD SWAP1 POP SWAP3 SWAP2 POP POP JUMP JUMPDEST PUSH1 0x0 PUSH3 0x97F DUP3 PUSH3 0x639 JUMP JUMPDEST PUSH3 0x98B DUP2 DUP6 PUSH3 0x961 JUMP JUMPDEST SWAP4 POP PUSH3 0x99D DUP2 DUP6 PUSH1 0x20 DUP7 ADD PUSH3 0x3DB JUMP JUMPDEST PUSH3 0x9A8 DUP2 PUSH3 0x310 JUMP JUMPDEST DUP5 ADD SWAP2 POP POP SWAP3 SWAP2 POP POP JUMP JUMPDEST PUSH3 0x9BE DUP2 PUSH3 0x485 JUMP JUMPDEST DUP3 MSTORE POP POP JUMP JUMPDEST PUSH3 0x9CF DUP2 PUSH3 0x4C0 JUMP JUMPDEST DUP3 MSTORE POP POP JUMP JUMPDEST PUSH1 0x0 PUSH1 0xA0 DUP3 ADD SWAP1 POP DUP2 DUP2 SUB PUSH1 0x0 DUP4 ADD MSTORE PUSH3 0x9F1 DUP2 DUP9 PUSH3 0x972 JUMP JUMPDEST SWAP1 POP PUSH3 0xA02 PUSH1 0x20 DUP4 ADD DUP8 PUSH3 0x9B3 JUMP JUMPDEST PUSH3 0xA11 PUSH1 0x40 DUP4 ADD DUP7 PUSH3 0x9B3 JUMP JUMPDEST PUSH3 0xA20 PUSH1 0x60 DUP4 ADD DUP6 PUSH3 0x9B3 JUMP JUMPDEST PUSH3 0xA2F PUSH1 0x80 DUP4 ADD DUP5 PUSH3 0x9C4 JUMP JUMPDEST SWAP7 SWAP6 POP POP POP POP POP POP JUMP JUMPDEST PUSH2 0xFF8 DUP1 PUSH3 0xA49 PUSH1 0x0 CODECOPY PUSH1 0x0 RETURN INVALID PUSH1 0x80 PUSH1 0x40 MSTORE CALLVALUE DUP1 ISZERO PUSH2 0x10 JUMPI PUSH1 0x0 DUP1 REVERT JUMPDEST POP PUSH1 0x4 CALLDATASIZE LT PUSH2 0x93 JUMPI PUSH1 0x0 CALLDATALOAD PUSH1 0xE0 SHR DUP1 PUSH4 0x728C844B GT PUSH2 0x66 JUMPI DUP1 PUSH4 0x728C844B EQ PUSH2 0x122 JUMPI DUP1 PUSH4 0x9FA60218 EQ PUSH2 0x141 JUMPI DUP1 PUSH4 0xA3691C70 EQ PUSH2 0x15D JUMPI DUP1 PUSH4 0xB48AB19C EQ PUSH2 0x179 JUMPI DUP1 PUSH4 0xFF5D6B62 EQ PUSH2 0x195 JUMPI PUSH2 0x93 JUMP JUMPDEST DUP1 PUSH4 0xC0A8F24 EQ PUSH2 0x98 JUMPI DUP1 PUSH4 0x2E1A7D4D EQ PUSH2 0xCA JUMPI DUP1 PUSH4 0x5936F067 EQ PUSH2 0xE6 JUMPI DUP1 PUSH4 0x6F6752FE EQ PUSH2 0x102 JUMPI JUMPDEST PUSH1 0x0 DUP1 REVERT JUMPDEST PUSH2 0xB2 PUSH1 0x4 DUP1 CALLDATASIZE SUB DUP2 ADD SWAP1 PUSH2 0xAD SWAP2 SWAP1 PUSH2 0xC0B JUMP JUMPDEST PUSH2 0x1B7 JUMP JUMPDEST PUSH1 0x40 MLOAD PUSH2 0xC1 SWAP4 SWAP3 SWAP2 SWAP1 PUSH2 0xC6C JUMP JUMPDEST PUSH1 0x40 MLOAD DUP1 SWAP2 SUB SWAP1 RETURN JUMPDEST PUSH2 0xE4 PUSH1 0x4 DUP1 CALLDATASIZE SUB DUP2 ADD SWAP1 PUSH2 0xDF SWAP2 SWAP1 PUSH2 0xCCF JUMP JUMPDEST PUSH2 0x2A3 JUMP JUMPDEST STOP JUMPDEST PUSH2 0x100 PUSH1 0x4 DUP1 CALLDATASIZE SUB DUP2 ADD SWAP1 PUSH2 0xFB SWAP2 SWAP1 PUSH2 0xD28 JUMP JUMPDEST PUSH2 0x3C0 JUMP JUMPDEST STOP JUMPDEST PUSH2 0x10A PUSH2 0x50A JUMP JUMPDEST PUSH1 0x40 MLOAD PUSH2 0x119 SWAP4 SWAP3 SWAP2 SWAP1 PUSH2 0xDB2 JUMP JUMPDEST PUSH1 0x40 MLOAD DUP1 SWAP2 SUB SWAP1 RETURN JUMPDEST PUSH2 0x12A PUSH2 0x582 JUMP JUMPDEST PUSH1 0x40 MLOAD PUSH2 0x138 SWAP3 SWAP2 SWAP1 PUSH2 0xDE9 JUMP JUMPDEST PUSH1 0x40 MLOAD DUP1 SWAP2 SUB SWAP1 RETURN JUMPDEST PUSH2 0x15B PUSH1 0x4 DUP1 CALLDATASIZE SUB DUP2 ADD SWAP1 PUSH2 0x156 SWAP2 SWAP1 PUSH2 0xE12 JUMP JUMPDEST PUSH2 0x599 JUMP JUMPDEST STOP JUMPDEST PUSH2 0x177 PUSH1 0x4 DUP1 CALLDATASIZE SUB DUP2 ADD SWAP1 PUSH2 0x172 SWAP2 SWAP1 PUSH2 0xE79 JUMP JUMPDEST PUSH2 0x78F JUMP JUMPDEST STOP JUMPDEST PUSH2 0x193 PUSH1 0x4 DUP1 CALLDATASIZE SUB DUP2 ADD SWAP1 PUSH2 0x18E SWAP2 SWAP1 PUSH2 0xEB9 JUMP JUMPDEST PUSH2 0x8C7 JUMP JUMPDEST STOP JUMPDEST PUSH2 0x19D PUSH2 0xB57 JUMP JUMPDEST PUSH1 0x40 MLOAD PUSH2 0x1AE SWAP6 SWAP5 SWAP4 SWAP3 SWAP2 SWAP1 PUSH2 0xF0C JUMP JUMPDEST PUSH1 0x40 MLOAD DUP1 SWAP2 SUB SWAP1 RETURN JUMPDEST PUSH1 0x0 DUP1 PUSH1 0x0 PUSH1 0x4 PUSH1 0x0 DUP6 PUSH20 0xFFFFFFFFFFFFFFFFFFFFFFFFFFFFFFFFFFFFFFFF AND PUSH20 0xFFFFFFFFFFFFFFFFFFFFFFFFFFFFFFFFFFFFFFFF AND DUP2 MSTORE PUSH1 0x20 ADD SWAP1 DUP2 MSTORE PUSH1 0x20 ADD PUSH1 0x0 KECCAK256 PUSH1 0x0 SWAP1 SLOAD SWAP1 PUSH2 0x100 EXP SWAP1 DIV PUSH1 0xFF AND PUSH1 0x5 PUSH1 0x0 DUP7 PUSH20 0xFFFFFFFFFFFFFFFFFFFFFFFFFFFFFFFFFFFFFFFF AND PUSH20 0xFFFFFFFFFFFFFFFFFFFFFFFFFFFFFFFFFFFFFFFF AND DUP2 MSTORE PUSH1 0x20 ADD SWAP1 DUP2 MSTORE PUSH1 0x20 ADD PUSH1 0x0 KECCAK256 PUSH1 0x0 SWAP1 SLOAD SWAP1 PUSH2 0x100 EXP SWAP1 DIV PUSH1 0xFF AND PUSH1 0x6 PUSH1 0x0 DUP8 PUSH20 0xFFFFFFFFFFFFFFFFFFFFFFFFFFFFFFFFFFFFFFFF AND PUSH20 0xFFFFFFFFFFFFFFFFFFFFFFFFFFFFFFFFFFFFFFFF AND DUP2 MSTORE PUSH1 0x20 ADD SWAP1 DUP2 MSTORE PUSH1 0x20 ADD PUSH1 0x0 KECCAK256 SLOAD SWAP3 POP SWAP3 POP SWAP3 POP SWAP2 SWAP4 SWAP1 SWAP3 POP JUMP JUMPDEST PUSH1 0x0 PUSH1 0x1 SWAP1 SLOAD SWAP1 PUSH2 0x100 EXP SWAP1 DIV PUSH20 0xFFFFFFFFFFFFFFFFFFFFFFFFFFFFFFFFFFFFFFFF AND PUSH20 0xFFFFFFFFFFFFFFFFFFFFFFFFFFFFFFFFFFFFFFFF AND CALLER PUSH20 0xFFFFFFFFFFFFFFFFFFFFFFFFFFFFFFFFFFFFFFFF AND EQ PUSH2 0x2FD JUMPI PUSH1 0x0 DUP1 REVERT JUMPDEST PUSH1 0x0 ISZERO ISZERO PUSH1 0x0 DUP1 SLOAD SWAP1 PUSH2 0x100 EXP SWAP1 DIV PUSH1 0xFF AND ISZERO ISZERO EQ PUSH2 0x31B JUMPI PUSH1 0x0 DUP1 REVERT JUMPDEST PUSH1 0x1 PUSH1 0x0 DUP1 PUSH2 0x100 EXP DUP2 SLOAD DUP2 PUSH1 0xFF MUL NOT AND SWAP1 DUP4 ISZERO ISZERO MUL OR SWAP1 SSTORE POP PUSH1 0x0 DUP1 PUSH1 0x1 SWAP1 SLOAD SWAP1 PUSH2 0x100 EXP SWAP1 DIV PUSH20 0xFFFFFFFFFFFFFFFFFFFFFFFFFFFFFFFFFFFFFFFF AND SWAP1 POP DUP1 PUSH20 0xFFFFFFFFFFFFFFFFFFFFFFFFFFFFFFFFFFFFFFFF AND PUSH2 0x8FC DUP4 SWAP1 DUP2 ISZERO MUL SWAP1 PUSH1 0x40 MLOAD PUSH1 0x0 PUSH1 0x40 MLOAD DUP1 DUP4 SUB DUP2 DUP6 DUP9 DUP9 CALL SWAP4 POP POP POP POP ISZERO DUP1 ISZERO PUSH2 0x3A1 JUMPI RETURNDATASIZE PUSH1 0x0 DUP1 RETURNDATACOPY RETURNDATASIZE PUSH1 0x0 REVERT JUMPDEST POP POP PUSH1 0x0 DUP1 PUSH1 0x0 PUSH2 0x100 EXP DUP2 SLOAD DUP2 PUSH1 0xFF MUL NOT AND SWAP1 DUP4 ISZERO ISZERO MUL OR SWAP1 SSTORE POP POP JUMP JUMPDEST PUSH1 0x0 PUSH1 0x1 SWAP1 SLOAD SWAP1 PUSH2 0x100 EXP SWAP1 DIV PUSH20 0xFFFFFFFFFFFFFFFFFFFFFFFFFFFFFFFFFFFFFFFF AND PUSH20 0xFFFFFFFFFFFFFFFFFFFFFFFFFFFFFFFFFFFFFFFF AND CALLER PUSH20 0xFFFFFFFFFFFFFFFFFFFFFFFFFFFFFFFFFFFFFFFF AND EQ PUSH2 0x41A JUMPI PUSH1 0x0 DUP1 REVERT JUMPDEST PUSH1 0x0 ISZERO ISZERO PUSH1 0x0 DUP1 SLOAD SWAP1 PUSH2 0x100 EXP SWAP1 DIV PUSH1 0xFF AND ISZERO ISZERO EQ PUSH2 0x438 JUMPI PUSH1 0x0 DUP1 REVERT JUMPDEST PUSH1 0x1 PUSH1 0x0 DUP1 PUSH2 0x100 EXP DUP2 SLOAD DUP2 PUSH1 0xFF MUL NOT AND SWAP1 DUP4 ISZERO ISZERO MUL OR SWAP1 SSTORE POP DUP5 PUSH1 0x7 PUSH1 0x0 ADD DUP2 SWAP1 SSTORE POP DUP4 PUSH1 0x7 PUSH1 0x1 ADD DUP2 SWAP1 SSTORE POP DUP3 PUSH1 0x7 PUSH1 0x2 ADD DUP2 SWAP1 SSTORE POP DUP2 PUSH1 0x7 PUSH1 0x3 ADD PUSH1 0x0 PUSH2 0x100 EXP DUP2 SLOAD DUP2 PUSH1 0xFF MUL NOT AND SWAP1 DUP4 ISZERO ISZERO MUL OR SWAP1 SSTORE POP DUP1 PUSH1 0x7 PUSH1 0x3 ADD PUSH1 0x1 PUSH2 0x100 EXP DUP2 SLOAD DUP2 PUSH1 0xFF MUL NOT AND SWAP1 DUP4 ISZERO ISZERO MUL OR SWAP1 SSTORE POP PUSH32 0x5F3A6E7A9309E860FA0C5F7D649C831E3FBCE430B835DA14E1F7EEE23861DE67 DUP6 DUP6 DUP6 DUP6 DUP6 PUSH1 0x40 MLOAD PUSH2 0x4E1 SWAP6 SWAP5 SWAP4 SWAP3 SWAP2 SWAP1 PUSH2 0xF0C JUMP JUMPDEST PUSH1 0x40 MLOAD DUP1 SWAP2 SUB SWAP1 LOG1 PUSH1 0x0 DUP1 PUSH1 0x0 PUSH2 0x100 EXP DUP2 SLOAD DUP2 PUSH1 0xFF MUL NOT AND SWAP1 DUP4 ISZERO ISZERO MUL OR SWAP1 SSTORE POP POP POP POP POP POP JUMP JUMPDEST PUSH1 0x0 DUP1 PUSH1 0x0 DUP1 PUSH1 0x1 SWAP1 SLOAD SWAP1 PUSH2 0x100 EXP SWAP1 DIV PUSH20 0xFFFFFFFFFFFFFFFFFFFFFFFFFFFFFFFFFFFFFFFF AND PUSH1 0x1 PUSH1 0x0 SWAP1 SLOAD SWAP1 PUSH2 0x100 EXP SWAP1 DIV PUSH20 0xFFFFFFFFFFFFFFFFFFFFFFFFFFFFFFFFFFFFFFFF AND PUSH1 0x2 PUSH1 0x0 SWAP1 SLOAD SWAP1 PUSH2 0x100 EXP SWAP1 DIV PUSH20 0xFFFFFFFFFFFFFFFFFFFFFFFFFFFFFFFFFFFFFFFF AND SWAP3 POP SWAP3 POP SWAP3 POP SWAP1 SWAP2 SWAP3 JUMP JUMPDEST PUSH1 0x0 DUP1 PUSH1 0xB PUSH1 0x0 ADD SLOAD PUSH1 0xB PUSH1 0x1 ADD SLOAD SWAP2 POP SWAP2 POP SWAP1 SWAP2 JUMP JUMPDEST PUSH1 0x0 PUSH1 0x1 SWAP1 SLOAD SWAP1 PUSH2 0x100 EXP SWAP1 DIV PUSH20 0xFFFFFFFFFFFFFFFFFFFFFFFFFFFFFFFFFFFFFFFF AND PUSH20 0xFFFFFFFFFFFFFFFFFFFFFFFFFFFFFFFFFFFFFFFF AND CALLER PUSH20 0xFFFFFFFFFFFFFFFFFFFFFFFFFFFFFFFFFFFFFFFF AND EQ PUSH2 0x5F3 JUMPI PUSH1 0x0 DUP1 REVERT JUMPDEST PUSH1 0x0 ISZERO ISZERO PUSH1 0x0 DUP1 SLOAD SWAP1 PUSH2 0x100 EXP SWAP1 DIV PUSH1 0xFF AND ISZERO ISZERO EQ PUSH2 0x611 JUMPI PUSH1 0x0 DUP1 REVERT JUMPDEST PUSH1 0x1 PUSH1 0x0 DUP1 PUSH2 0x100 EXP DUP2 SLOAD DUP2 PUSH1 0xFF MUL NOT AND SWAP1 DUP4 ISZERO ISZERO MUL OR SWAP1 SSTORE POP DUP3 PUSH1 0x4 PUSH1 0x0 DUP7 PUSH20 0xFFFFFFFFFFFFFFFFFFFFFFFFFFFFFFFFFFFFFFFF AND PUSH20 0xFFFFFFFFFFFFFFFFFFFFFFFFFFFFFFFFFFFFFFFF AND DUP2 MSTORE PUSH1 0x20 ADD SWAP1 DUP2 MSTORE PUSH1 0x20 ADD PUSH1 0x0 KECCAK256 PUSH1 0x0 PUSH2 0x100 EXP DUP2 SLOAD DUP2 PUSH1 0xFF MUL NOT AND SWAP1 DUP4 ISZERO ISZERO MUL OR SWAP1 SSTORE POP DUP2 PUSH1 0x5 PUSH1 0x0 DUP7 PUSH20 0xFFFFFFFFFFFFFFFFFFFFFFFFFFFFFFFFFFFFFFFF AND PUSH20 0xFFFFFFFFFFFFFFFFFFFFFFFFFFFFFFFFFFFFFFFF AND DUP2 MSTORE PUSH1 0x20 ADD SWAP1 DUP2 MSTORE PUSH1 0x20 ADD PUSH1 0x0 KECCAK256 PUSH1 0x0 PUSH2 0x100 EXP DUP2 SLOAD DUP2 PUSH1 0xFF MUL NOT AND SWAP1 DUP4 ISZERO ISZERO MUL OR SWAP1 SSTORE POP DUP1 PUSH1 0x6 PUSH1 0x0 DUP7 PUSH20 0xFFFFFFFFFFFFFFFFFFFFFFFFFFFFFFFFFFFFFFFF AND PUSH20 0xFFFFFFFFFFFFFFFFFFFFFFFFFFFFFFFFFFFFFFFF AND DUP2 MSTORE PUSH1 0x20 ADD SWAP1 DUP2 MSTORE PUSH1 0x20 ADD PUSH1 0x0 KECCAK256 DUP2 SWAP1 SSTORE POP DUP4 PUSH20 0xFFFFFFFFFFFFFFFFFFFFFFFFFFFFFFFFFFFFFFFF AND PUSH32 0xBA39A5D1D0F136D3D3D54D8197E91C85EC53CF01EE31CAFE0F824F3B160B157E DUP5 DUP5 DUP5 PUSH1 0x40 MLOAD PUSH2 0x767 SWAP4 SWAP3 SWAP2 SWAP1 PUSH2 0xC6C JUMP JUMPDEST PUSH1 0x40 MLOAD DUP1 SWAP2 SUB SWAP1 LOG2 PUSH1 0x0 DUP1 PUSH1 0x0 PUSH2 0x100 EXP DUP2 SLOAD DUP2 PUSH1 0xFF MUL NOT AND SWAP1 DUP4 ISZERO ISZERO MUL OR SWAP1 SSTORE POP POP POP POP POP JUMP JUMPDEST PUSH1 0x0 PUSH1 0x1 SWAP1 SLOAD SWAP1 PUSH2 0x100 EXP SWAP1 DIV PUSH20 0xFFFFFFFFFFFFFFFFFFFFFFFFFFFFFFFFFFFFFFFF AND PUSH20 0xFFFFFFFFFFFFFFFFFFFFFFFFFFFFFFFFFFFFFFFF AND CALLER PUSH20 0xFFFFFFFFFFFFFFFFFFFFFFFFFFFFFFFFFFFFFFFF AND EQ PUSH2 0x7E9 JUMPI PUSH1 0x0 DUP1 REVERT JUMPDEST PUSH1 0x0 ISZERO ISZERO PUSH1 0x0 DUP1 SLOAD SWAP1 PUSH2 0x100 EXP SWAP1 DIV PUSH1 0xFF AND ISZERO ISZERO EQ PUSH2 0x807 JUMPI PUSH1 0x0 DUP1 REVERT JUMPDEST PUSH1 0x1 PUSH1 0x0 DUP1 PUSH2 0x100 EXP DUP2 SLOAD DUP2 PUSH1 0xFF MUL NOT AND SWAP1 DUP4 ISZERO ISZERO MUL OR SWAP1 SSTORE POP PUSH3 0x93A80 PUSH1 0x7 PUSH1 0x1 ADD SLOAD PUSH2 0x835 SWAP2 SWAP1 PUSH2 0xF8E JUMP JUMPDEST DUP3 LT ISZERO PUSH2 0x841 JUMPI PUSH1 0x0 DUP1 REVERT JUMPDEST PUSH3 0x93A80 DUP3 PUSH2 0x850 SWAP2 SWAP1 PUSH2 0xF8E JUMP JUMPDEST DUP2 LT ISZERO PUSH2 0x85C JUMPI PUSH1 0x0 DUP1 REVERT JUMPDEST DUP2 PUSH1 0xB PUSH1 0x0 ADD DUP2 SWAP1 SSTORE POP DUP1 PUSH1 0xB PUSH1 0x1 ADD DUP2 SWAP1 SSTORE POP PUSH32 0xE9B0A43FCC234C21D82587B79AEFEB27E126C56F0BDAD1C45D14F7739965D5A9 DUP3 DUP3 PUSH1 0x40 MLOAD PUSH2 0x8A1 SWAP3 SWAP2 SWAP1 PUSH2 0xDE9 JUMP JUMPDEST PUSH1 0x40 MLOAD DUP1 SWAP2 SUB SWAP1 LOG1 PUSH1 0x0 DUP1 PUSH1 0x0 PUSH2 0x100 EXP DUP2 SLOAD DUP2 PUSH1 0xFF MUL NOT AND SWAP1 DUP4 ISZERO ISZERO MUL OR SWAP1 SSTORE POP POP POP JUMP JUMPDEST PUSH1 0x0 PUSH1 0x1 SWAP1 SLOAD SWAP1 PUSH2 0x100 EXP SWAP1 DIV PUSH20 0xFFFFFFFFFFFFFFFFFFFFFFFFFFFFFFFFFFFFFFFF AND PUSH20 0xFFFFFFFFFFFFFFFFFFFFFFFFFFFFFFFFFFFFFFFF AND CALLER PUSH20 0xFFFFFFFFFFFFFFFFFFFFFFFFFFFFFFFFFFFFFFFF AND EQ PUSH2 0x921 JUMPI PUSH1 0x0 DUP1 REVERT JUMPDEST PUSH1 0x0 ISZERO ISZERO PUSH1 0x0 DUP1 SLOAD SWAP1 PUSH2 0x100 EXP SWAP1 DIV PUSH1 0xFF AND ISZERO ISZERO EQ PUSH2 0x93F JUMPI PUSH1 0x0 DUP1 REVERT JUMPDEST PUSH1 0x1 PUSH1 0x0 DUP1 PUSH2 0x100 EXP DUP2 SLOAD DUP2 PUSH1 0xFF MUL NOT AND SWAP1 DUP4 ISZERO ISZERO MUL OR SWAP1 SSTORE POP PUSH1 0x0 PUSH20 0xFFFFFFFFFFFFFFFFFFFFFFFFFFFFFFFFFFFFFFFF AND DUP4 PUSH20 0xFFFFFFFFFFFFFFFFFFFFFFFFFFFFFFFFFFFFFFFF AND SUB PUSH2 0x992 JUMPI PUSH1 0x0 DUP1 REVERT JUMPDEST PUSH1 0x0 PUSH20 0xFFFFFFFFFFFFFFFFFFFFFFFFFFFFFFFFFFFFFFFF AND DUP3 PUSH20 0xFFFFFFFFFFFFFFFFFFFFFFFFFFFFFFFFFFFFFFFF AND SUB PUSH2 0x9CB JUMPI PUSH1 0x0 DUP1 REVERT JUMPDEST PUSH1 0x0 PUSH20 0xFFFFFFFFFFFFFFFFFFFFFFFFFFFFFFFFFFFFFFFF AND DUP2 PUSH20 0xFFFFFFFFFFFFFFFFFFFFFFFFFFFFFFFFFFFFFFFF AND SUB PUSH2 0xA04 JUMPI PUSH1 0x0 DUP1 REVERT JUMPDEST DUP3 PUSH1 0x0 PUSH1 0x1 PUSH2 0x100 EXP DUP2 SLOAD DUP2 PUSH20 0xFFFFFFFFFFFFFFFFFFFFFFFFFFFFFFFFFFFFFFFF MUL NOT AND SWAP1 DUP4 PUSH20 0xFFFFFFFFFFFFFFFFFFFFFFFFFFFFFFFFFFFFFFFF AND MUL OR SWAP1 SSTORE POP DUP2 PUSH1 0x1 PUSH1 0x0 PUSH2 0x100 EXP DUP2 SLOAD DUP2 PUSH20 0xFFFFFFFFFFFFFFFFFFFFFFFFFFFFFFFFFFFFFFFF MUL NOT AND SWAP1 DUP4 PUSH20 0xFFFFFFFFFFFFFFFFFFFFFFFFFFFFFFFFFFFFFFFF AND MUL OR SWAP1 SSTORE POP DUP1 PUSH1 0x2 PUSH1 0x0 PUSH2 0x100 EXP DUP2 SLOAD DUP2 PUSH20 0xFFFFFFFFFFFFFFFFFFFFFFFFFFFFFFFFFFFFFFFF MUL NOT AND SWAP1 DUP4 PUSH20 0xFFFFFFFFFFFFFFFFFFFFFFFFFFFFFFFFFFFFFFFF AND MUL OR SWAP1 SSTORE POP DUP1 PUSH20 0xFFFFFFFFFFFFFFFFFFFFFFFFFFFFFFFFFFFFFFFF AND DUP3 PUSH20 0xFFFFFFFFFFFFFFFFFFFFFFFFFFFFFFFFFFFFFFFF AND DUP5 PUSH20 0xFFFFFFFFFFFFFFFFFFFFFFFFFFFFFFFFFFFFFFFF AND PUSH32 0x558B08919DB4953667819BA17B813C3B1B02640B1164D32F581C75EAA7B2D3A2 PUSH1 0x40 MLOAD PUSH1 0x40 MLOAD DUP1 SWAP2 SUB SWAP1 LOG4 PUSH1 0x0 DUP1 PUSH1 0x0 PUSH2 0x100 EXP DUP2 SLOAD DUP2 PUSH1 0xFF MUL NOT AND SWAP1 DUP4 ISZERO ISZERO MUL OR SWAP1 SSTORE POP POP POP POP JUMP JUMPDEST PUSH1 0x0 DUP1 PUSH1 0x0 DUP1 PUSH1 0x0 PUSH1 0x7 PUSH1 0x0 ADD SLOAD PUSH1 0x7 PUSH1 0x1 ADD SLOAD PUSH1 0x7 PUSH1 0x2 ADD SLOAD PUSH1 0x7 PUSH1 0x3 ADD PUSH1 0x0 SWAP1 SLOAD SWAP1 PUSH2 0x100 EXP SWAP1 DIV PUSH1 0xFF AND PUSH1 0x7 PUSH1 0x3 ADD PUSH1 0x1 SWAP1 SLOAD SWAP1 PUSH2 0x100 EXP SWAP1 DIV PUSH1 0xFF AND SWAP5 POP SWAP5 POP SWAP5 POP SWAP5 POP SWAP5 POP SWAP1 SWAP2 SWAP3 SWAP4 SWAP5 JUMP JUMPDEST PUSH1 0x0 DUP1 REVERT JUMPDEST PUSH1 0x0 PUSH20 0xFFFFFFFFFFFFFFFFFFFFFFFFFFFFFFFFFFFFFFFF DUP3 AND SWAP1 POP SWAP2 SWAP1 POP JUMP JUMPDEST PUSH1 0x0 PUSH2 0xBD8 DUP3 PUSH2 0xBAD JUMP JUMPDEST SWAP1 POP SWAP2 SWAP1 POP JUMP JUMPDEST PUSH2 0xBE8 DUP2 PUSH2 0xBCD JUMP JUMPDEST DUP2 EQ PUSH2 0xBF3 JUMPI PUSH1 0x0 DUP1 REVERT JUMPDEST POP JUMP JUMPDEST PUSH1 0x0 DUP2 CALLDATALOAD SWAP1 POP PUSH2 0xC05 DUP2 PUSH2 0xBDF JUMP JUMPDEST SWAP3 SWAP2 POP POP JUMP JUMPDEST PUSH1 0x0 PUSH1 0x20 DUP3 DUP5 SUB SLT ISZERO PUSH2 0xC21 JUMPI PUSH2 0xC20 PUSH2 0xBA8 JUMP JUMPDEST JUMPDEST PUSH1 0x0 PUSH2 0xC2F DUP5 DUP3 DUP6 ADD PUSH2 0xBF6 JUMP JUMPDEST SWAP2 POP POP SWAP3 SWAP2 POP POP JUMP JUMPDEST PUSH1 0x0 DUP2 ISZERO ISZERO SWAP1 POP SWAP2 SWAP1 POP JUMP JUMPDEST PUSH2 0xC4D DUP2 PUSH2 0xC38 JUMP JUMPDEST DUP3 MSTORE POP POP JUMP JUMPDEST PUSH1 0x0 DUP2 SWAP1 POP SWAP2 SWAP1 POP JUMP JUMPDEST PUSH2 0xC66 DUP2 PUSH2 0xC53 JUMP JUMPDEST DUP3 MSTORE POP POP JUMP JUMPDEST PUSH1 0x0 PUSH1 0x60 DUP3 ADD SWAP1 POP PUSH2 0xC81 PUSH1 0x0 DUP4 ADD DUP7 PUSH2 0xC44 JUMP JUMPDEST PUSH2 0xC8E PUSH1 0x20 DUP4 ADD DUP6 PUSH2 0xC44 JUMP JUMPDEST PUSH2 0xC9B PUSH1 0x40 DUP4 ADD DUP5 PUSH2 0xC5D JUMP JUMPDEST SWAP5 SWAP4 POP POP POP POP JUMP JUMPDEST PUSH2 0xCAC DUP2 PUSH2 0xC53 JUMP JUMPDEST DUP2 EQ PUSH2 0xCB7 JUMPI PUSH1 0x0 DUP1 REVERT JUMPDEST POP JUMP JUMPDEST PUSH1 0x0 DUP2 CALLDATALOAD SWAP1 POP PUSH2 0xCC9 DUP2 PUSH2 0xCA3 JUMP JUMPDEST SWAP3 SWAP2 POP POP JUMP JUMPDEST PUSH1 0x0 PUSH1 0x20 DUP3 DUP5 SUB SLT ISZERO PUSH2 0xCE5 JUMPI PUSH2 0xCE4 PUSH2 0xBA8 JUMP JUMPDEST JUMPDEST PUSH1 0x0 PUSH2 0xCF3 DUP5 DUP3 DUP6 ADD PUSH2 0xCBA JUMP JUMPDEST SWAP2 POP POP SWAP3 SWAP2 POP POP JUMP JUMPDEST PUSH2 0xD05 DUP2 PUSH2 0xC38 JUMP JUMPDEST DUP2 EQ PUSH2 0xD10 JUMPI PUSH1 0x0 DUP1 REVERT JUMPDEST POP JUMP JUMPDEST PUSH1 0x0 DUP2 CALLDATALOAD SWAP1 POP PUSH2 0xD22 DUP2 PUSH2 0xCFC JUMP JUMPDEST SWAP3 SWAP2 POP POP JUMP JUMPDEST PUSH1 0x0 DUP1 PUSH1 0x0 DUP1 PUSH1 0x0 PUSH1 0xA0 DUP7 DUP9 SUB SLT ISZERO PUSH2 0xD44 JUMPI PUSH2 0xD43 PUSH2 0xBA8 JUMP JUMPDEST JUMPDEST PUSH1 0x0 PUSH2 0xD52 DUP9 DUP3 DUP10 ADD PUSH2 0xCBA JUMP JUMPDEST SWAP6 POP POP PUSH1 0x20 PUSH2 0xD63 DUP9 DUP3 DUP10 ADD PUSH2 0xCBA JUMP JUMPDEST SWAP5 POP POP PUSH1 0x40 PUSH2 0xD74 DUP9 DUP3 DUP10 ADD PUSH2 0xCBA JUMP JUMPDEST SWAP4 POP POP PUSH1 0x60 PUSH2 0xD85 DUP9 DUP3 DUP10 ADD PUSH2 0xD13 JUMP JUMPDEST SWAP3 POP POP PUSH1 0x80 PUSH2 0xD96 DUP9 DUP3 DUP10 ADD PUSH2 0xD13 JUMP JUMPDEST SWAP2 POP POP SWAP3 SWAP6 POP SWAP3 SWAP6 SWAP1 SWAP4 POP JUMP JUMPDEST PUSH2 0xDAC DUP2 PUSH2 0xBCD JUMP JUMPDEST DUP3 MSTORE POP POP JUMP JUMPDEST PUSH1 0x0 PUSH1 0x60 DUP3 ADD SWAP1 POP PUSH2 0xDC7 PUSH1 0x0 DUP4 ADD DUP7 PUSH2 0xDA3 JUMP JUMPDEST PUSH2 0xDD4 PUSH1 0x20 DUP4 ADD DUP6 PUSH2 0xDA3 JUMP JUMPDEST PUSH2 0xDE1 PUSH1 0x40 DUP4 ADD DUP5 PUSH2 0xDA3 JUMP JUMPDEST SWAP5 SWAP4 POP POP POP POP JUMP JUMPDEST PUSH1 0x0 PUSH1 0x40 DUP3 ADD SWAP1 POP PUSH2 0xDFE PUSH1 0x0 DUP4 ADD DUP6 PUSH2 0xC5D JUMP JUMPDEST PUSH2 0xE0B PUSH1 0x20 DUP4 ADD DUP5 PUSH2 0xC5D JUMP JUMPDEST SWAP4 SWAP3 POP POP POP JUMP JUMPDEST PUSH1 0x0 DUP1 PUSH1 0x0 DUP1 PUSH1 0x80 DUP6 DUP8 SUB SLT ISZERO PUSH2 0xE2C JUMPI PUSH2 0xE2B PUSH2 0xBA8 JUMP JUMPDEST JUMPDEST PUSH1 0x0 PUSH2 0xE3A DUP8 DUP3 DUP9 ADD PUSH2 0xBF6 JUMP JUMPDEST SWAP5 POP POP PUSH1 0x20 PUSH2 0xE4B DUP8 DUP3 DUP9 ADD PUSH2 0xD13 JUMP JUMPDEST SWAP4 POP POP PUSH1 0x40 PUSH2 0xE5C DUP8 DUP3 DUP9 ADD PUSH2 0xD13 JUMP JUMPDEST SWAP3 POP POP PUSH1 0x60 PUSH2 0xE6D DUP8 DUP3 DUP9 ADD PUSH2 0xCBA JUMP JUMPDEST SWAP2 POP POP SWAP3 SWAP6 SWAP2 SWAP5 POP SWAP3 POP JUMP JUMPDEST PUSH1 0x0 DUP1 PUSH1 0x40 DUP4 DUP6 SUB SLT ISZERO PUSH2 0xE90 JUMPI PUSH2 0xE8F PUSH2 0xBA8 JUMP JUMPDEST JUMPDEST PUSH1 0x0 PUSH2 0xE9E DUP6 DUP3 DUP7 ADD PUSH2 0xCBA JUMP JUMPDEST SWAP3 POP POP PUSH1 0x20 PUSH2 0xEAF DUP6 DUP3 DUP7 ADD PUSH2 0xCBA JUMP JUMPDEST SWAP2 POP POP SWAP3 POP SWAP3 SWAP1 POP JUMP JUMPDEST PUSH1 0x0 DUP1 PUSH1 0x0 PUSH1 0x60 DUP5 DUP7 SUB SLT ISZERO PUSH2 0xED2 JUMPI PUSH2 0xED1 PUSH2 0xBA8 JUMP JUMPDEST JUMPDEST PUSH1 0x0 PUSH2 0xEE0 DUP7 DUP3 DUP8 ADD PUSH2 0xBF6 JUMP JUMPDEST SWAP4 POP POP PUSH1 0x20 PUSH2 0xEF1 DUP7 DUP3 DUP8 ADD PUSH2 0xBF6 JUMP JUMPDEST SWAP3 POP POP PUSH1 0x40 PUSH2 0xF02 DUP7 DUP3 DUP8 ADD PUSH2 0xBF6 JUMP JUMPDEST SWAP2 POP POP SWAP3 POP SWAP3 POP SWAP3 JUMP JUMPDEST PUSH1 0x0 PUSH1 0xA0 DUP3 ADD SWAP1 POP PUSH2 0xF21 PUSH1 0x0 DUP4 ADD DUP9 PUSH2 0xC5D JUMP JUMPDEST PUSH2 0xF2E PUSH1 0x20 DUP4 ADD DUP8 PUSH2 0xC5D JUMP JUMPDEST PUSH2 0xF3B PUSH1 0x40 DUP4 ADD DUP7 PUSH2 0xC5D JUMP JUMPDEST PUSH2 0xF48 PUSH1 0x60 DUP4 ADD DUP6 PUSH2 0xC44 JUMP JUMPDEST PUSH2 0xF55 PUSH1 0x80 DUP4 ADD DUP5 PUSH2 0xC44 JUMP JUMPDEST SWAP7 SWAP6 POP POP POP POP POP POP JUMP JUMPDEST PUSH32 0x4E487B7100000000000000000000000000000000000000000000000000000000 PUSH1 0x0 MSTORE PUSH1 0x11 PUSH1 0x4 MSTORE PUSH1 0x24 PUSH1 0x0 REVERT JUMPDEST PUSH1 0x0 PUSH2 0xF99 DUP3 PUSH2 0xC53 JUMP JUMPDEST SWAP2 POP PUSH2 0xFA4 DUP4 PUSH2 0xC53 JUMP JUMPDEST SWAP3 POP DUP3 DUP3 ADD SWAP1 POP DUP1 DUP3 GT ISZERO PUSH2 0xFBC JUMPI PUSH2 0xFBB PUSH2 0xF5F JUMP JUMPDEST JUMPDEST SWAP3 SWAP2 POP POP JUMP INVALID LOG2 PUSH5 0x6970667358 0x22 SLT KECCAK256 EXTCODEHASH DUP10 EQ CALL LOG4 0x5C 0x2D 0xC2 PUSH22 0xC947449AD21FFE333E900E8556EE1E5F476E8E97DE9C SWAP5 PUSH5 0x736F6C6343 STOP ADDMOD SLT STOP CALLER "
				},
				"gasEstimates": {
					"creation": {
						"codeDepositCost": "817600",
						"executionCost": "infinite",
						"totalCost": "infinite"
					},
					"external": {
						"pull_authenticator()": "infinite",
						"pull_launch()": "infinite",
						"pull_profile(address)": "infinite",
						"pull_yield()": "infinite",
						"push_authenticator(address,address,address)": "infinite",
						"push_launch(uint256,uint256,uint256,bool,bool)": "infinite",
						"push_profile(address,bool,bool,uint256)": "infinite",
						"push_yield(uint256,uint256)": "infinite",
						"withdraw(uint256)": "infinite"
					}
				},
				"methodIdentifiers": {
					"pull_authenticator()": "6f6752fe",
					"pull_launch()": "ff5d6b62",
					"pull_profile(address)": "0c0a8f24",
					"pull_yield()": "728c844b",
					"push_authenticator(address,address,address)": "b48ab19c",
					"push_launch(uint256,uint256,uint256,bool,bool)": "5936f067",
					"push_profile(address,bool,bool,uint256)": "9fa60218",
					"push_yield(uint256,uint256)": "a3691c70",
					"withdraw(uint256)": "2e1a7d4d"
				}
			},
			"storageLayout": {
				"storage": [
					{
						"astId": 143,
						"contract": "blockchain/contracts/Polygon/Pool/Prototype/pool/state.sol:State",
						"label": "locked",
						"offset": 0,
						"slot": "0",
						"type": "t_bool"
					},
					{
						"astId": 164,
						"contract": "blockchain/contracts/Polygon/Pool/Prototype/pool/state.sol:State",
						"label": "logic",
						"offset": 1,
						"slot": "0",
						"type": "t_address"
					},
					{
						"astId": 177,
						"contract": "blockchain/contracts/Polygon/Pool/Prototype/pool/state.sol:State",
						"label": "creator",
						"offset": 0,
						"slot": "1",
						"type": "t_address"
					},
					{
						"astId": 190,
						"contract": "blockchain/contracts/Polygon/Pool/Prototype/pool/state.sol:State",
						"label": "governor",
						"offset": 0,
						"slot": "2",
						"type": "t_address"
					},
					{
						"astId": 210,
						"contract": "blockchain/contracts/Polygon/Pool/Prototype/pool/state.sol:State",
						"label": "name",
						"offset": 0,
						"slot": "3",
						"type": "t_string_storage"
					},
					{
						"astId": 214,
						"contract": "blockchain/contracts/Polygon/Pool/Prototype/pool/state.sol:State",
						"label": "is_manager",
						"offset": 0,
						"slot": "4",
						"type": "t_mapping(t_address,t_bool)"
					},
					{
						"astId": 218,
						"contract": "blockchain/contracts/Polygon/Pool/Prototype/pool/state.sol:State",
						"label": "is_on_Whitelist",
						"offset": 0,
						"slot": "5",
						"type": "t_mapping(t_address,t_bool)"
					},
					{
						"astId": 222,
						"contract": "blockchain/contracts/Polygon/Pool/Prototype/pool/state.sol:State",
						"label": "flux",
						"offset": 0,
						"slot": "6",
						"type": "t_mapping(t_address,t_uint256)"
					},
					{
						"astId": 236,
						"contract": "blockchain/contracts/Polygon/Pool/Prototype/pool/state.sol:State",
						"label": "launch",
						"offset": 0,
						"slot": "7",
						"type": "t_struct(Launch)233_storage"
					},
					{
						"astId": 244,
						"contract": "blockchain/contracts/Polygon/Pool/Prototype/pool/state.sol:State",
						"label": "yield",
						"offset": 0,
						"slot": "11",
						"type": "t_struct(Yield)241_storage"
					}
				],
				"types": {
					"t_address": {
						"encoding": "inplace",
						"label": "address",
						"numberOfBytes": "20"
					},
					"t_bool": {
						"encoding": "inplace",
						"label": "bool",
						"numberOfBytes": "1"
					},
					"t_mapping(t_address,t_bool)": {
						"encoding": "mapping",
						"key": "t_address",
						"label": "mapping(address => bool)",
						"numberOfBytes": "32",
						"value": "t_bool"
					},
					"t_mapping(t_address,t_uint256)": {
						"encoding": "mapping",
						"key": "t_address",
						"label": "mapping(address => uint256)",
						"numberOfBytes": "32",
						"value": "t_uint256"
					},
					"t_string_storage": {
						"encoding": "bytes",
						"label": "string",
						"numberOfBytes": "32"
					},
					"t_struct(Launch)233_storage": {
						"encoding": "inplace",
						"label": "struct State.Launch",
						"members": [
							{
								"astId": 224,
								"contract": "blockchain/contracts/Polygon/Pool/Prototype/pool/state.sol:State",
								"label": "start",
								"offset": 0,
								"slot": "0",
								"type": "t_uint256"
							},
							{
								"astId": 226,
								"contract": "blockchain/contracts/Polygon/Pool/Prototype/pool/state.sol:State",
								"label": "end",
								"offset": 0,
								"slot": "1",
								"type": "t_uint256"
							},
							{
								"astId": 228,
								"contract": "blockchain/contracts/Polygon/Pool/Prototype/pool/state.sol:State",
								"label": "required",
								"offset": 0,
								"slot": "2",
								"type": "t_uint256"
							},
							{
								"astId": 230,
								"contract": "blockchain/contracts/Polygon/Pool/Prototype/pool/state.sol:State",
								"label": "whitelisted",
								"offset": 0,
								"slot": "3",
								"type": "t_bool"
							},
							{
								"astId": 232,
								"contract": "blockchain/contracts/Polygon/Pool/Prototype/pool/state.sol:State",
								"label": "success",
								"offset": 1,
								"slot": "3",
								"type": "t_bool"
							}
						],
						"numberOfBytes": "128"
					},
					"t_struct(Yield)241_storage": {
						"encoding": "inplace",
						"label": "struct State.Yield",
						"members": [
							{
								"astId": 238,
								"contract": "blockchain/contracts/Polygon/Pool/Prototype/pool/state.sol:State",
								"label": "start",
								"offset": 0,
								"slot": "0",
								"type": "t_uint256"
							},
							{
								"astId": 240,
								"contract": "blockchain/contracts/Polygon/Pool/Prototype/pool/state.sol:State",
								"label": "end",
								"offset": 0,
								"slot": "1",
								"type": "t_uint256"
							}
						],
						"numberOfBytes": "64"
					},
					"t_uint256": {
						"encoding": "inplace",
						"label": "uint256",
						"numberOfBytes": "32"
					}
				}
			},
			"userdoc": {
				"kind": "user",
				"methods": {},
				"version": 1
			}
		}
	}
}