{
	"blockchain/contracts/Polygon/Pool/Prototype/pool/lib.sol": {
		"Lib": {
			"abi": [
				{
					"inputs": [
						{
							"internalType": "uint256",
							"name": "_value",
							"type": "uint256"
						}
					],
					"name": "_convert_to_int",
					"outputs": [
						{
							"internalType": "uint256",
							"name": "",
							"type": "uint256"
						}
					],
					"stateMutability": "pure",
					"type": "function"
				},
				{
					"inputs": [
						{
							"internalType": "uint256",
							"name": "_value",
							"type": "uint256"
						}
					],
					"name": "_convert_to_wei",
					"outputs": [
						{
							"internalType": "uint256",
							"name": "",
							"type": "uint256"
						}
					],
					"stateMutability": "pure",
					"type": "function"
				},
				{
					"inputs": [
						{
							"internalType": "uint256",
							"name": "_v",
							"type": "uint256"
						},
						{
							"internalType": "uint256",
							"name": "_s",
							"type": "uint256"
						},
						{
							"internalType": "uint256",
							"name": "_b",
							"type": "uint256"
						}
					],
					"name": "_how_much_to_mint",
					"outputs": [
						{
							"internalType": "uint256",
							"name": "",
							"type": "uint256"
						}
					],
					"stateMutability": "pure",
					"type": "function"
				},
				{
					"inputs": [
						{
							"internalType": "uint256",
							"name": "_v",
							"type": "uint256"
						},
						{
							"internalType": "uint256",
							"name": "_s",
							"type": "uint256"
						},
						{
							"internalType": "uint256",
							"name": "_b",
							"type": "uint256"
						}
					],
					"name": "_how_much_to_send",
					"outputs": [
						{
							"internalType": "uint256",
							"name": "",
							"type": "uint256"
						}
					],
					"stateMutability": "pure",
					"type": "function"
				}
			],
			"devdoc": {
				"kind": "dev",
				"methods": {},
				"version": 1
			},
			"evm": {
				"assembly": "    /* \"blockchain/contracts/Polygon/Pool/Prototype/pool/lib.sol\":70:701  library Lib {... */\n  dataSize(sub_0)\n  dataOffset(sub_0)\n  0x0b\n  dup3\n  dup3\n  dup3\n  codecopy\n  dup1\n  mload\n  0x00\n  byte\n  0x73\n  eq\n  tag_1\n  jumpi\n  mstore(0x00, 0x4e487b7100000000000000000000000000000000000000000000000000000000)\n  mstore(0x04, 0x00)\n  revert(0x00, 0x24)\ntag_1:\n  mstore(0x00, address)\n  0x73\n  dup2\n  mstore8\n  dup3\n  dup2\n  return\nstop\n\nsub_0: assembly {\n        /* \"blockchain/contracts/Polygon/Pool/Prototype/pool/lib.sol\":70:701  library Lib {... */\n      eq(address, deployTimeAddress())\n      mstore(0x40, 0x80)\n      jumpi(tag_1, lt(calldatasize, 0x04))\n      shr(0xe0, calldataload(0x00))\n      dup1\n      0x0daf8301\n      eq\n      tag_2\n      jumpi\n      dup1\n      0x4f2cf825\n      eq\n      tag_3\n      jumpi\n      dup1\n      0x9b87d9d1\n      eq\n      tag_4\n      jumpi\n      dup1\n      0xee09fa9d\n      eq\n      tag_5\n      jumpi\n    tag_1:\n      0x00\n      dup1\n      revert\n        /* \"blockchain/contracts/Polygon/Pool/Prototype/pool/lib.sol\":156:298  function _how_much_to_mint( uint256 _v, uint256 _s, uint256 _b ) public pure returns ( uint256 ) {... */\n    tag_2:\n      tag_6\n      0x04\n      dup1\n      calldatasize\n      sub\n      dup2\n      add\n      swap1\n      tag_7\n      swap2\n      swap1\n      tag_8\n      jump\t// in\n    tag_7:\n      tag_9\n      jump\t// in\n    tag_6:\n      mload(0x40)\n      tag_10\n      swap2\n      swap1\n      tag_11\n      jump\t// in\n    tag_10:\n      mload(0x40)\n      dup1\n      swap2\n      sub\n      swap1\n      return\n        /* \"blockchain/contracts/Polygon/Pool/Prototype/pool/lib.sol\":304:446  function _how_much_to_send( uint256 _v, uint256 _s, uint256 _b ) public pure returns ( uint256 ) {... */\n    tag_3:\n      tag_12\n      0x04\n      dup1\n      calldatasize\n      sub\n      dup2\n      add\n      swap1\n      tag_13\n      swap2\n      swap1\n      tag_8\n      jump\t// in\n    tag_13:\n      tag_14\n      jump\t// in\n    tag_12:\n      mload(0x40)\n      tag_15\n      swap2\n      swap1\n      tag_11\n      jump\t// in\n    tag_15:\n      mload(0x40)\n      dup1\n      swap2\n      sub\n      swap1\n      return\n        /* \"blockchain/contracts/Polygon/Pool/Prototype/pool/lib.sol\":452:572  function _convert_to_wei( uint256 _value ) public pure returns ( uint256 ) {... */\n    tag_4:\n      tag_16\n      0x04\n      dup1\n      calldatasize\n      sub\n      dup2\n      add\n      swap1\n      tag_17\n      swap2\n      swap1\n      tag_18\n      jump\t// in\n    tag_17:\n      tag_19\n      jump\t// in\n    tag_16:\n      mload(0x40)\n      tag_20\n      swap2\n      swap1\n      tag_11\n      jump\t// in\n    tag_20:\n      mload(0x40)\n      dup1\n      swap2\n      sub\n      swap1\n      return\n        /* \"blockchain/contracts/Polygon/Pool/Prototype/pool/lib.sol\":578:698  function _convert_to_int( uint256 _value ) public pure returns ( uint256 ) {... */\n    tag_5:\n      tag_21\n      0x04\n      dup1\n      calldatasize\n      sub\n      dup2\n      add\n      swap1\n      tag_22\n      swap2\n      swap1\n      tag_18\n      jump\t// in\n    tag_22:\n      tag_23\n      jump\t// in\n    tag_21:\n      mload(0x40)\n      tag_24\n      swap2\n      swap1\n      tag_11\n      jump\t// in\n    tag_24:\n      mload(0x40)\n      dup1\n      swap2\n      sub\n      swap1\n      return\n        /* \"blockchain/contracts/Polygon/Pool/Prototype/pool/lib.sol\":156:298  function _how_much_to_mint( uint256 _v, uint256 _s, uint256 _b ) public pure returns ( uint256 ) {... */\n    tag_9:\n        /* \"blockchain/contracts/Polygon/Pool/Prototype/pool/lib.sol\":243:250  uint256 */\n      0x00\n        /* \"blockchain/contracts/Polygon/Pool/Prototype/pool/lib.sol\":286:288  _b */\n      dup2\n        /* \"blockchain/contracts/Polygon/Pool/Prototype/pool/lib.sol\":279:281  _s */\n      dup4\n        /* \"blockchain/contracts/Polygon/Pool/Prototype/pool/lib.sol\":274:276  _v */\n      dup6\n        /* \"blockchain/contracts/Polygon/Pool/Prototype/pool/lib.sol\":274:281  _v * _s */\n      tag_26\n      swap2\n      swap1\n      tag_27\n      jump\t// in\n    tag_26:\n        /* \"blockchain/contracts/Polygon/Pool/Prototype/pool/lib.sol\":272:288  ( _v * _s ) / _b */\n      tag_28\n      swap2\n      swap1\n      tag_29\n      jump\t// in\n    tag_28:\n        /* \"blockchain/contracts/Polygon/Pool/Prototype/pool/lib.sol\":264:290  return (( _v * _s ) / _b ) */\n      swap1\n      pop\n        /* \"blockchain/contracts/Polygon/Pool/Prototype/pool/lib.sol\":156:298  function _how_much_to_mint( uint256 _v, uint256 _s, uint256 _b ) public pure returns ( uint256 ) {... */\n      swap4\n      swap3\n      pop\n      pop\n      pop\n      jump\t// out\n        /* \"blockchain/contracts/Polygon/Pool/Prototype/pool/lib.sol\":304:446  function _how_much_to_send( uint256 _v, uint256 _s, uint256 _b ) public pure returns ( uint256 ) {... */\n    tag_14:\n        /* \"blockchain/contracts/Polygon/Pool/Prototype/pool/lib.sol\":391:398  uint256 */\n      0x00\n        /* \"blockchain/contracts/Polygon/Pool/Prototype/pool/lib.sol\":434:436  _s */\n      dup3\n        /* \"blockchain/contracts/Polygon/Pool/Prototype/pool/lib.sol\":427:429  _b */\n      dup3\n        /* \"blockchain/contracts/Polygon/Pool/Prototype/pool/lib.sol\":422:424  _v */\n      dup6\n        /* \"blockchain/contracts/Polygon/Pool/Prototype/pool/lib.sol\":422:429  _v * _b */\n      tag_31\n      swap2\n      swap1\n      tag_27\n      jump\t// in\n    tag_31:\n        /* \"blockchain/contracts/Polygon/Pool/Prototype/pool/lib.sol\":420:436  ( _v * _b ) / _s */\n      tag_32\n      swap2\n      swap1\n      tag_29\n      jump\t// in\n    tag_32:\n        /* \"blockchain/contracts/Polygon/Pool/Prototype/pool/lib.sol\":412:438  return (( _v * _b ) / _s ) */\n      swap1\n      pop\n        /* \"blockchain/contracts/Polygon/Pool/Prototype/pool/lib.sol\":304:446  function _how_much_to_send( uint256 _v, uint256 _s, uint256 _b ) public pure returns ( uint256 ) {... */\n      swap4\n      swap3\n      pop\n      pop\n      pop\n      jump\t// out\n        /* \"blockchain/contracts/Polygon/Pool/Prototype/pool/lib.sol\":452:572  function _convert_to_wei( uint256 _value ) public pure returns ( uint256 ) {... */\n    tag_19:\n        /* \"blockchain/contracts/Polygon/Pool/Prototype/pool/lib.sol\":517:524  uint256 */\n      0x00\n        /* \"blockchain/contracts/Polygon/Pool/Prototype/pool/lib.sol\":556:562  10**18 */\n      0x0de0b6b3a7640000\n        /* \"blockchain/contracts/Polygon/Pool/Prototype/pool/lib.sol\":547:553  _value */\n      dup3\n        /* \"blockchain/contracts/Polygon/Pool/Prototype/pool/lib.sol\":547:562  _value * 10**18 */\n      tag_34\n      swap2\n      swap1\n      tag_27\n      jump\t// in\n    tag_34:\n        /* \"blockchain/contracts/Polygon/Pool/Prototype/pool/lib.sol\":538:564  return ( _value * 10**18 ) */\n      swap1\n      pop\n        /* \"blockchain/contracts/Polygon/Pool/Prototype/pool/lib.sol\":452:572  function _convert_to_wei( uint256 _value ) public pure returns ( uint256 ) {... */\n      swap2\n      swap1\n      pop\n      jump\t// out\n        /* \"blockchain/contracts/Polygon/Pool/Prototype/pool/lib.sol\":578:698  function _convert_to_int( uint256 _value ) public pure returns ( uint256 ) {... */\n    tag_23:\n        /* \"blockchain/contracts/Polygon/Pool/Prototype/pool/lib.sol\":643:650  uint256 */\n      0x00\n        /* \"blockchain/contracts/Polygon/Pool/Prototype/pool/lib.sol\":682:688  10**18 */\n      0x0de0b6b3a7640000\n        /* \"blockchain/contracts/Polygon/Pool/Prototype/pool/lib.sol\":673:679  _value */\n      dup3\n        /* \"blockchain/contracts/Polygon/Pool/Prototype/pool/lib.sol\":673:688  _value / 10**18 */\n      tag_36\n      swap2\n      swap1\n      tag_29\n      jump\t// in\n    tag_36:\n        /* \"blockchain/contracts/Polygon/Pool/Prototype/pool/lib.sol\":664:690  return ( _value / 10**18 ) */\n      swap1\n      pop\n        /* \"blockchain/contracts/Polygon/Pool/Prototype/pool/lib.sol\":578:698  function _convert_to_int( uint256 _value ) public pure returns ( uint256 ) {... */\n      swap2\n      swap1\n      pop\n      jump\t// out\n        /* \"#utility.yul\":88:205   */\n    tag_38:\n        /* \"#utility.yul\":197:198   */\n      0x00\n        /* \"#utility.yul\":194:195   */\n      dup1\n        /* \"#utility.yul\":187:199   */\n      revert\n        /* \"#utility.yul\":334:411   */\n    tag_40:\n        /* \"#utility.yul\":371:378   */\n      0x00\n        /* \"#utility.yul\":400:405   */\n      dup2\n        /* \"#utility.yul\":389:405   */\n      swap1\n      pop\n        /* \"#utility.yul\":334:411   */\n      swap2\n      swap1\n      pop\n      jump\t// out\n        /* \"#utility.yul\":417:539   */\n    tag_41:\n        /* \"#utility.yul\":490:514   */\n      tag_52\n        /* \"#utility.yul\":508:513   */\n      dup2\n        /* \"#utility.yul\":490:514   */\n      tag_40\n      jump\t// in\n    tag_52:\n        /* \"#utility.yul\":483:488   */\n      dup2\n        /* \"#utility.yul\":480:515   */\n      eq\n        /* \"#utility.yul\":470:533   */\n      tag_53\n      jumpi\n        /* \"#utility.yul\":529:530   */\n      0x00\n        /* \"#utility.yul\":526:527   */\n      dup1\n        /* \"#utility.yul\":519:531   */\n      revert\n        /* \"#utility.yul\":470:533   */\n    tag_53:\n        /* \"#utility.yul\":417:539   */\n      pop\n      jump\t// out\n        /* \"#utility.yul\":545:684   */\n    tag_42:\n        /* \"#utility.yul\":591:596   */\n      0x00\n        /* \"#utility.yul\":629:635   */\n      dup2\n        /* \"#utility.yul\":616:636   */\n      calldataload\n        /* \"#utility.yul\":607:636   */\n      swap1\n      pop\n        /* \"#utility.yul\":645:678   */\n      tag_55\n        /* \"#utility.yul\":672:677   */\n      dup2\n        /* \"#utility.yul\":645:678   */\n      tag_41\n      jump\t// in\n    tag_55:\n        /* \"#utility.yul\":545:684   */\n      swap3\n      swap2\n      pop\n      pop\n      jump\t// out\n        /* \"#utility.yul\":690:1309   */\n    tag_8:\n        /* \"#utility.yul\":767:773   */\n      0x00\n        /* \"#utility.yul\":775:781   */\n      dup1\n        /* \"#utility.yul\":783:789   */\n      0x00\n        /* \"#utility.yul\":832:834   */\n      0x60\n        /* \"#utility.yul\":820:829   */\n      dup5\n        /* \"#utility.yul\":811:818   */\n      dup7\n        /* \"#utility.yul\":807:830   */\n      sub\n        /* \"#utility.yul\":803:835   */\n      slt\n        /* \"#utility.yul\":800:919   */\n      iszero\n      tag_57\n      jumpi\n        /* \"#utility.yul\":838:917   */\n      tag_58\n      tag_38\n      jump\t// in\n    tag_58:\n        /* \"#utility.yul\":800:919   */\n    tag_57:\n        /* \"#utility.yul\":958:959   */\n      0x00\n        /* \"#utility.yul\":983:1036   */\n      tag_59\n        /* \"#utility.yul\":1028:1035   */\n      dup7\n        /* \"#utility.yul\":1019:1025   */\n      dup3\n        /* \"#utility.yul\":1008:1017   */\n      dup8\n        /* \"#utility.yul\":1004:1026   */\n      add\n        /* \"#utility.yul\":983:1036   */\n      tag_42\n      jump\t// in\n    tag_59:\n        /* \"#utility.yul\":973:1036   */\n      swap4\n      pop\n        /* \"#utility.yul\":929:1046   */\n      pop\n        /* \"#utility.yul\":1085:1087   */\n      0x20\n        /* \"#utility.yul\":1111:1164   */\n      tag_60\n        /* \"#utility.yul\":1156:1163   */\n      dup7\n        /* \"#utility.yul\":1147:1153   */\n      dup3\n        /* \"#utility.yul\":1136:1145   */\n      dup8\n        /* \"#utility.yul\":1132:1154   */\n      add\n        /* \"#utility.yul\":1111:1164   */\n      tag_42\n      jump\t// in\n    tag_60:\n        /* \"#utility.yul\":1101:1164   */\n      swap3\n      pop\n        /* \"#utility.yul\":1056:1174   */\n      pop\n        /* \"#utility.yul\":1213:1215   */\n      0x40\n        /* \"#utility.yul\":1239:1292   */\n      tag_61\n        /* \"#utility.yul\":1284:1291   */\n      dup7\n        /* \"#utility.yul\":1275:1281   */\n      dup3\n        /* \"#utility.yul\":1264:1273   */\n      dup8\n        /* \"#utility.yul\":1260:1282   */\n      add\n        /* \"#utility.yul\":1239:1292   */\n      tag_42\n      jump\t// in\n    tag_61:\n        /* \"#utility.yul\":1229:1292   */\n      swap2\n      pop\n        /* \"#utility.yul\":1184:1302   */\n      pop\n        /* \"#utility.yul\":690:1309   */\n      swap3\n      pop\n      swap3\n      pop\n      swap3\n      jump\t// out\n        /* \"#utility.yul\":1315:1441   */\n    tag_43:\n        /* \"#utility.yul\":1410:1434   */\n      tag_63\n        /* \"#utility.yul\":1428:1433   */\n      dup2\n        /* \"#utility.yul\":1410:1434   */\n      tag_40\n      jump\t// in\n    tag_63:\n        /* \"#utility.yul\":1405:1408   */\n      dup3\n        /* \"#utility.yul\":1398:1435   */\n      mstore\n        /* \"#utility.yul\":1315:1441   */\n      pop\n      pop\n      jump\t// out\n        /* \"#utility.yul\":1447:1685   */\n    tag_11:\n        /* \"#utility.yul\":1548:1552   */\n      0x00\n        /* \"#utility.yul\":1586:1588   */\n      0x20\n        /* \"#utility.yul\":1575:1584   */\n      dup3\n        /* \"#utility.yul\":1571:1589   */\n      add\n        /* \"#utility.yul\":1563:1589   */\n      swap1\n      pop\n        /* \"#utility.yul\":1599:1678   */\n      tag_65\n        /* \"#utility.yul\":1675:1676   */\n      0x00\n        /* \"#utility.yul\":1664:1673   */\n      dup4\n        /* \"#utility.yul\":1660:1677   */\n      add\n        /* \"#utility.yul\":1651:1657   */\n      dup5\n        /* \"#utility.yul\":1599:1678   */\n      tag_43\n      jump\t// in\n    tag_65:\n        /* \"#utility.yul\":1447:1685   */\n      swap3\n      swap2\n      pop\n      pop\n      jump\t// out\n        /* \"#utility.yul\":1691:2020   */\n    tag_18:\n        /* \"#utility.yul\":1750:1756   */\n      0x00\n        /* \"#utility.yul\":1799:1801   */\n      0x20\n        /* \"#utility.yul\":1787:1796   */\n      dup3\n        /* \"#utility.yul\":1778:1785   */\n      dup5\n        /* \"#utility.yul\":1774:1797   */\n      sub\n        /* \"#utility.yul\":1770:1802   */\n      slt\n        /* \"#utility.yul\":1767:1886   */\n      iszero\n      tag_67\n      jumpi\n        /* \"#utility.yul\":1805:1884   */\n      tag_68\n      tag_38\n      jump\t// in\n    tag_68:\n        /* \"#utility.yul\":1767:1886   */\n    tag_67:\n        /* \"#utility.yul\":1925:1926   */\n      0x00\n        /* \"#utility.yul\":1950:2003   */\n      tag_69\n        /* \"#utility.yul\":1995:2002   */\n      dup5\n        /* \"#utility.yul\":1986:1992   */\n      dup3\n        /* \"#utility.yul\":1975:1984   */\n      dup6\n        /* \"#utility.yul\":1971:1993   */\n      add\n        /* \"#utility.yul\":1950:2003   */\n      tag_42\n      jump\t// in\n    tag_69:\n        /* \"#utility.yul\":1940:2003   */\n      swap2\n      pop\n        /* \"#utility.yul\":1896:2013   */\n      pop\n        /* \"#utility.yul\":1691:2020   */\n      swap3\n      swap2\n      pop\n      pop\n      jump\t// out\n        /* \"#utility.yul\":2026:2206   */\n    tag_44:\n        /* \"#utility.yul\":2074:2151   */\n      0x4e487b7100000000000000000000000000000000000000000000000000000000\n        /* \"#utility.yul\":2071:2072   */\n      0x00\n        /* \"#utility.yul\":2064:2152   */\n      mstore\n        /* \"#utility.yul\":2171:2175   */\n      0x11\n        /* \"#utility.yul\":2168:2169   */\n      0x04\n        /* \"#utility.yul\":2161:2176   */\n      mstore\n        /* \"#utility.yul\":2195:2199   */\n      0x24\n        /* \"#utility.yul\":2192:2193   */\n      0x00\n        /* \"#utility.yul\":2185:2200   */\n      revert\n        /* \"#utility.yul\":2212:2622   */\n    tag_27:\n        /* \"#utility.yul\":2252:2259   */\n      0x00\n        /* \"#utility.yul\":2275:2295   */\n      tag_72\n        /* \"#utility.yul\":2293:2294   */\n      dup3\n        /* \"#utility.yul\":2275:2295   */\n      tag_40\n      jump\t// in\n    tag_72:\n        /* \"#utility.yul\":2270:2295   */\n      swap2\n      pop\n        /* \"#utility.yul\":2309:2329   */\n      tag_73\n        /* \"#utility.yul\":2327:2328   */\n      dup4\n        /* \"#utility.yul\":2309:2329   */\n      tag_40\n      jump\t// in\n    tag_73:\n        /* \"#utility.yul\":2304:2329   */\n      swap3\n      pop\n        /* \"#utility.yul\":2364:2365   */\n      dup3\n        /* \"#utility.yul\":2361:2362   */\n      dup3\n        /* \"#utility.yul\":2357:2366   */\n      mul\n        /* \"#utility.yul\":2386:2416   */\n      tag_74\n        /* \"#utility.yul\":2404:2415   */\n      dup2\n        /* \"#utility.yul\":2386:2416   */\n      tag_40\n      jump\t// in\n    tag_74:\n        /* \"#utility.yul\":2375:2416   */\n      swap2\n      pop\n        /* \"#utility.yul\":2565:2566   */\n      dup3\n        /* \"#utility.yul\":2556:2563   */\n      dup3\n        /* \"#utility.yul\":2552:2567   */\n      div\n        /* \"#utility.yul\":2549:2550   */\n      dup5\n        /* \"#utility.yul\":2546:2568   */\n      eq\n        /* \"#utility.yul\":2526:2527   */\n      dup4\n        /* \"#utility.yul\":2519:2528   */\n      iszero\n        /* \"#utility.yul\":2499:2582   */\n      or\n        /* \"#utility.yul\":2476:2615   */\n      tag_75\n      jumpi\n        /* \"#utility.yul\":2595:2613   */\n      tag_76\n      tag_44\n      jump\t// in\n    tag_76:\n        /* \"#utility.yul\":2476:2615   */\n    tag_75:\n        /* \"#utility.yul\":2260:2622   */\n      pop\n        /* \"#utility.yul\":2212:2622   */\n      swap3\n      swap2\n      pop\n      pop\n      jump\t// out\n        /* \"#utility.yul\":2628:2808   */\n    tag_45:\n        /* \"#utility.yul\":2676:2753   */\n      0x4e487b7100000000000000000000000000000000000000000000000000000000\n        /* \"#utility.yul\":2673:2674   */\n      0x00\n        /* \"#utility.yul\":2666:2754   */\n      mstore\n        /* \"#utility.yul\":2773:2777   */\n      0x12\n        /* \"#utility.yul\":2770:2771   */\n      0x04\n        /* \"#utility.yul\":2763:2778   */\n      mstore\n        /* \"#utility.yul\":2797:2801   */\n      0x24\n        /* \"#utility.yul\":2794:2795   */\n      0x00\n        /* \"#utility.yul\":2787:2802   */\n      revert\n        /* \"#utility.yul\":2814:2999   */\n    tag_29:\n        /* \"#utility.yul\":2854:2855   */\n      0x00\n        /* \"#utility.yul\":2871:2891   */\n      tag_79\n        /* \"#utility.yul\":2889:2890   */\n      dup3\n        /* \"#utility.yul\":2871:2891   */\n      tag_40\n      jump\t// in\n    tag_79:\n        /* \"#utility.yul\":2866:2891   */\n      swap2\n      pop\n        /* \"#utility.yul\":2905:2925   */\n      tag_80\n        /* \"#utility.yul\":2923:2924   */\n      dup4\n        /* \"#utility.yul\":2905:2925   */\n      tag_40\n      jump\t// in\n    tag_80:\n        /* \"#utility.yul\":2900:2925   */\n      swap3\n      pop\n        /* \"#utility.yul\":2944:2945   */\n      dup3\n        /* \"#utility.yul\":2934:2969   */\n      tag_81\n      jumpi\n        /* \"#utility.yul\":2949:2967   */\n      tag_82\n      tag_45\n      jump\t// in\n    tag_82:\n        /* \"#utility.yul\":2934:2969   */\n    tag_81:\n        /* \"#utility.yul\":2991:2992   */\n      dup3\n        /* \"#utility.yul\":2988:2989   */\n      dup3\n        /* \"#utility.yul\":2984:2993   */\n      div\n        /* \"#utility.yul\":2979:2993   */\n      swap1\n      pop\n        /* \"#utility.yul\":2814:2999   */\n      swap3\n      swap2\n      pop\n      pop\n      jump\t// out\n\n    auxdata: 0xa2646970667358221220c7e942077f92ec06708e031214c61d5dd7dfb80744a0d26ae8f253e5de305b9e64736f6c63430008120033\n}\n",
				"bytecode": {
					"linkReferences": {},
					"object": "610385610053600b82828239805160001a607314610046577f4e487b7100000000000000000000000000000000000000000000000000000000600052600060045260246000fd5b30600052607381538281f3fe73000000000000000000000000000000000000000030146080604052600436106100565760003560e01c80630daf83011461005b5780634f2cf8251461008b5780639b87d9d1146100bb578063ee09fa9d146100eb575b600080fd5b610075600480360381019061007091906101d4565b61011b565b6040516100829190610236565b60405180910390f35b6100a560048036038101906100a091906101d4565b61013d565b6040516100b29190610236565b60405180910390f35b6100d560048036038101906100d09190610251565b61015f565b6040516100e29190610236565b60405180910390f35b61010560048036038101906101009190610251565b61017c565b6040516101129190610236565b60405180910390f35b600081838561012a91906102ad565b610134919061031e565b90509392505050565b600082828561014c91906102ad565b610156919061031e565b90509392505050565b6000670de0b6b3a76400008261017591906102ad565b9050919050565b6000670de0b6b3a764000082610192919061031e565b9050919050565b600080fd5b6000819050919050565b6101b18161019e565b81146101bc57600080fd5b50565b6000813590506101ce816101a8565b92915050565b6000806000606084860312156101ed576101ec610199565b5b60006101fb868287016101bf565b935050602061020c868287016101bf565b925050604061021d868287016101bf565b9150509250925092565b6102308161019e565b82525050565b600060208201905061024b6000830184610227565b92915050565b60006020828403121561026757610266610199565b5b6000610275848285016101bf565b91505092915050565b7f4e487b7100000000000000000000000000000000000000000000000000000000600052601160045260246000fd5b60006102b88261019e565b91506102c38361019e565b92508282026102d18161019e565b915082820484148315176102e8576102e761027e565b5b5092915050565b7f4e487b7100000000000000000000000000000000000000000000000000000000600052601260045260246000fd5b60006103298261019e565b91506103348361019e565b925082610344576103436102ef565b5b82820490509291505056fea2646970667358221220c7e942077f92ec06708e031214c61d5dd7dfb80744a0d26ae8f253e5de305b9e64736f6c63430008120033",
					"opcodes": "PUSH2 0x385 PUSH2 0x53 PUSH1 0xB DUP3 DUP3 DUP3 CODECOPY DUP1 MLOAD PUSH1 0x0 BYTE PUSH1 0x73 EQ PUSH2 0x46 JUMPI PUSH32 0x4E487B7100000000000000000000000000000000000000000000000000000000 PUSH1 0x0 MSTORE PUSH1 0x0 PUSH1 0x4 MSTORE PUSH1 0x24 PUSH1 0x0 REVERT JUMPDEST ADDRESS PUSH1 0x0 MSTORE PUSH1 0x73 DUP2 MSTORE8 DUP3 DUP2 RETURN INVALID PUSH20 0x0 ADDRESS EQ PUSH1 0x80 PUSH1 0x40 MSTORE PUSH1 0x4 CALLDATASIZE LT PUSH2 0x56 JUMPI PUSH1 0x0 CALLDATALOAD PUSH1 0xE0 SHR DUP1 PUSH4 0xDAF8301 EQ PUSH2 0x5B JUMPI DUP1 PUSH4 0x4F2CF825 EQ PUSH2 0x8B JUMPI DUP1 PUSH4 0x9B87D9D1 EQ PUSH2 0xBB JUMPI DUP1 PUSH4 0xEE09FA9D EQ PUSH2 0xEB JUMPI JUMPDEST PUSH1 0x0 DUP1 REVERT JUMPDEST PUSH2 0x75 PUSH1 0x4 DUP1 CALLDATASIZE SUB DUP2 ADD SWAP1 PUSH2 0x70 SWAP2 SWAP1 PUSH2 0x1D4 JUMP JUMPDEST PUSH2 0x11B JUMP JUMPDEST PUSH1 0x40 MLOAD PUSH2 0x82 SWAP2 SWAP1 PUSH2 0x236 JUMP JUMPDEST PUSH1 0x40 MLOAD DUP1 SWAP2 SUB SWAP1 RETURN JUMPDEST PUSH2 0xA5 PUSH1 0x4 DUP1 CALLDATASIZE SUB DUP2 ADD SWAP1 PUSH2 0xA0 SWAP2 SWAP1 PUSH2 0x1D4 JUMP JUMPDEST PUSH2 0x13D JUMP JUMPDEST PUSH1 0x40 MLOAD PUSH2 0xB2 SWAP2 SWAP1 PUSH2 0x236 JUMP JUMPDEST PUSH1 0x40 MLOAD DUP1 SWAP2 SUB SWAP1 RETURN JUMPDEST PUSH2 0xD5 PUSH1 0x4 DUP1 CALLDATASIZE SUB DUP2 ADD SWAP1 PUSH2 0xD0 SWAP2 SWAP1 PUSH2 0x251 JUMP JUMPDEST PUSH2 0x15F JUMP JUMPDEST PUSH1 0x40 MLOAD PUSH2 0xE2 SWAP2 SWAP1 PUSH2 0x236 JUMP JUMPDEST PUSH1 0x40 MLOAD DUP1 SWAP2 SUB SWAP1 RETURN JUMPDEST PUSH2 0x105 PUSH1 0x4 DUP1 CALLDATASIZE SUB DUP2 ADD SWAP1 PUSH2 0x100 SWAP2 SWAP1 PUSH2 0x251 JUMP JUMPDEST PUSH2 0x17C JUMP JUMPDEST PUSH1 0x40 MLOAD PUSH2 0x112 SWAP2 SWAP1 PUSH2 0x236 JUMP JUMPDEST PUSH1 0x40 MLOAD DUP1 SWAP2 SUB SWAP1 RETURN JUMPDEST PUSH1 0x0 DUP2 DUP4 DUP6 PUSH2 0x12A SWAP2 SWAP1 PUSH2 0x2AD JUMP JUMPDEST PUSH2 0x134 SWAP2 SWAP1 PUSH2 0x31E JUMP JUMPDEST SWAP1 POP SWAP4 SWAP3 POP POP POP JUMP JUMPDEST PUSH1 0x0 DUP3 DUP3 DUP6 PUSH2 0x14C SWAP2 SWAP1 PUSH2 0x2AD JUMP JUMPDEST PUSH2 0x156 SWAP2 SWAP1 PUSH2 0x31E JUMP JUMPDEST SWAP1 POP SWAP4 SWAP3 POP POP POP JUMP JUMPDEST PUSH1 0x0 PUSH8 0xDE0B6B3A7640000 DUP3 PUSH2 0x175 SWAP2 SWAP1 PUSH2 0x2AD JUMP JUMPDEST SWAP1 POP SWAP2 SWAP1 POP JUMP JUMPDEST PUSH1 0x0 PUSH8 0xDE0B6B3A7640000 DUP3 PUSH2 0x192 SWAP2 SWAP1 PUSH2 0x31E JUMP JUMPDEST SWAP1 POP SWAP2 SWAP1 POP JUMP JUMPDEST PUSH1 0x0 DUP1 REVERT JUMPDEST PUSH1 0x0 DUP2 SWAP1 POP SWAP2 SWAP1 POP JUMP JUMPDEST PUSH2 0x1B1 DUP2 PUSH2 0x19E JUMP JUMPDEST DUP2 EQ PUSH2 0x1BC JUMPI PUSH1 0x0 DUP1 REVERT JUMPDEST POP JUMP JUMPDEST PUSH1 0x0 DUP2 CALLDATALOAD SWAP1 POP PUSH2 0x1CE DUP2 PUSH2 0x1A8 JUMP JUMPDEST SWAP3 SWAP2 POP POP JUMP JUMPDEST PUSH1 0x0 DUP1 PUSH1 0x0 PUSH1 0x60 DUP5 DUP7 SUB SLT ISZERO PUSH2 0x1ED JUMPI PUSH2 0x1EC PUSH2 0x199 JUMP JUMPDEST JUMPDEST PUSH1 0x0 PUSH2 0x1FB DUP7 DUP3 DUP8 ADD PUSH2 0x1BF JUMP JUMPDEST SWAP4 POP POP PUSH1 0x20 PUSH2 0x20C DUP7 DUP3 DUP8 ADD PUSH2 0x1BF JUMP JUMPDEST SWAP3 POP POP PUSH1 0x40 PUSH2 0x21D DUP7 DUP3 DUP8 ADD PUSH2 0x1BF JUMP JUMPDEST SWAP2 POP POP SWAP3 POP SWAP3 POP SWAP3 JUMP JUMPDEST PUSH2 0x230 DUP2 PUSH2 0x19E JUMP JUMPDEST DUP3 MSTORE POP POP JUMP JUMPDEST PUSH1 0x0 PUSH1 0x20 DUP3 ADD SWAP1 POP PUSH2 0x24B PUSH1 0x0 DUP4 ADD DUP5 PUSH2 0x227 JUMP JUMPDEST SWAP3 SWAP2 POP POP JUMP JUMPDEST PUSH1 0x0 PUSH1 0x20 DUP3 DUP5 SUB SLT ISZERO PUSH2 0x267 JUMPI PUSH2 0x266 PUSH2 0x199 JUMP JUMPDEST JUMPDEST PUSH1 0x0 PUSH2 0x275 DUP5 DUP3 DUP6 ADD PUSH2 0x1BF JUMP JUMPDEST SWAP2 POP POP SWAP3 SWAP2 POP POP JUMP JUMPDEST PUSH32 0x4E487B7100000000000000000000000000000000000000000000000000000000 PUSH1 0x0 MSTORE PUSH1 0x11 PUSH1 0x4 MSTORE PUSH1 0x24 PUSH1 0x0 REVERT JUMPDEST PUSH1 0x0 PUSH2 0x2B8 DUP3 PUSH2 0x19E JUMP JUMPDEST SWAP2 POP PUSH2 0x2C3 DUP4 PUSH2 0x19E JUMP JUMPDEST SWAP3 POP DUP3 DUP3 MUL PUSH2 0x2D1 DUP2 PUSH2 0x19E JUMP JUMPDEST SWAP2 POP DUP3 DUP3 DIV DUP5 EQ DUP4 ISZERO OR PUSH2 0x2E8 JUMPI PUSH2 0x2E7 PUSH2 0x27E JUMP JUMPDEST JUMPDEST POP SWAP3 SWAP2 POP POP JUMP JUMPDEST PUSH32 0x4E487B7100000000000000000000000000000000000000000000000000000000 PUSH1 0x0 MSTORE PUSH1 0x12 PUSH1 0x4 MSTORE PUSH1 0x24 PUSH1 0x0 REVERT JUMPDEST PUSH1 0x0 PUSH2 0x329 DUP3 PUSH2 0x19E JUMP JUMPDEST SWAP2 POP PUSH2 0x334 DUP4 PUSH2 0x19E JUMP JUMPDEST SWAP3 POP DUP3 PUSH2 0x344 JUMPI PUSH2 0x343 PUSH2 0x2EF JUMP JUMPDEST JUMPDEST DUP3 DUP3 DIV SWAP1 POP SWAP3 SWAP2 POP POP JUMP INVALID LOG2 PUSH5 0x6970667358 0x22 SLT KECCAK256 0xC7 0xE9 TIMESTAMP SMOD PUSH32 0x92EC06708E031214C61D5DD7DFB80744A0D26AE8F253E5DE305B9E64736F6C63 NUMBER STOP ADDMOD SLT STOP CALLER "
				},
				"gasEstimates": {
					"creation": {
						"codeDepositCost": "180200",
						"executionCost": "251",
						"totalCost": "180451"
					},
					"external": {
						"_convert_to_int(uint256)": "infinite",
						"_convert_to_wei(uint256)": "infinite",
						"_how_much_to_mint(uint256,uint256,uint256)": "infinite",
						"_how_much_to_send(uint256,uint256,uint256)": "infinite"
					}
				},
				"methodIdentifiers": {
					"_convert_to_int(uint256)": "ee09fa9d",
					"_convert_to_wei(uint256)": "9b87d9d1",
					"_how_much_to_mint(uint256,uint256,uint256)": "0daf8301",
					"_how_much_to_send(uint256,uint256,uint256)": "4f2cf825"
				}
			},
			"storageLayout": {
				"storage": [],
				"types": null
			},
			"userdoc": {
				"kind": "user",
				"methods": {
					"_how_much_to_mint(uint256,uint256,uint256)": {
						"notice": "_v: value _s: supply _b: balance"
					}
				},
				"version": 1
			}
		}
	}
}