{
	"blockchain/contracts/Polygon/Pool/Prototype/pool/lib.sol": {
		"Lib": {
			"abi": [
				{
					"inputs": [
						{
							"internalType": "uint256",
							"name": "_value",
							"type": "uint256"
						}
					],
					"name": "_convert_to_int",
					"outputs": [
						{
							"internalType": "uint256",
							"name": "",
							"type": "uint256"
						}
					],
					"stateMutability": "pure",
					"type": "function"
				},
				{
					"inputs": [
						{
							"internalType": "uint256",
							"name": "_value",
							"type": "uint256"
						}
					],
					"name": "_convert_to_wei",
					"outputs": [
						{
							"internalType": "uint256",
							"name": "",
							"type": "uint256"
						}
					],
					"stateMutability": "pure",
					"type": "function"
				},
				{
					"inputs": [
						{
							"internalType": "uint256",
							"name": "_v",
							"type": "uint256"
						},
						{
							"internalType": "uint256",
							"name": "_s",
							"type": "uint256"
						},
						{
							"internalType": "uint256",
							"name": "_b",
							"type": "uint256"
						}
					],
					"name": "_how_much_to_mint",
					"outputs": [
						{
							"internalType": "uint256",
							"name": "",
							"type": "uint256"
						}
					],
					"stateMutability": "pure",
					"type": "function"
				},
				{
					"inputs": [
						{
							"internalType": "uint256",
							"name": "_v",
							"type": "uint256"
						},
						{
							"internalType": "uint256",
							"name": "_s",
							"type": "uint256"
						},
						{
							"internalType": "uint256",
							"name": "_b",
							"type": "uint256"
						}
					],
					"name": "_how_much_to_send",
					"outputs": [
						{
							"internalType": "uint256",
							"name": "",
							"type": "uint256"
						}
					],
					"stateMutability": "pure",
					"type": "function"
				}
			],
			"devdoc": {
				"kind": "dev",
				"methods": {},
				"version": 1
			},
			"evm": {
				"assembly": "    /* \"blockchain/contracts/Polygon/Pool/Prototype/pool/lib.sol\":70:701  library Lib {... */\n  dataSize(sub_0)\n  dataOffset(sub_0)\n  0x0b\n  dup3\n  dup3\n  dup3\n  codecopy\n  dup1\n  mload\n  0x00\n  byte\n  0x73\n  eq\n  tag_1\n  jumpi\n  mstore(0x00, shl(0xe0, 0x4e487b71))\n  mstore(0x04, 0x00)\n  revert(0x00, 0x24)\ntag_1:\n  mstore(0x00, address)\n  0x73\n  dup2\n  mstore8\n  dup3\n  dup2\n  return\nstop\n\nsub_0: assembly {\n        /* \"blockchain/contracts/Polygon/Pool/Prototype/pool/lib.sol\":70:701  library Lib {... */\n      eq(address, deployTimeAddress())\n      mstore(0x40, 0x80)\n      jumpi(tag_1, lt(calldatasize, 0x04))\n      shr(0xe0, calldataload(0x00))\n      dup1\n      0x0daf8301\n      eq\n      tag_2\n      jumpi\n      dup1\n      0x4f2cf825\n      eq\n      tag_3\n      jumpi\n      dup1\n      0x9b87d9d1\n      eq\n      tag_4\n      jumpi\n      dup1\n      0xee09fa9d\n      eq\n      tag_5\n      jumpi\n    tag_1:\n      0x00\n      dup1\n      revert\n        /* \"blockchain/contracts/Polygon/Pool/Prototype/pool/lib.sol\":156:298  function _how_much_to_mint( uint256 _v, uint256 _s, uint256 _b ) public pure returns ( uint256 ) {... */\n    tag_2:\n      tag_6\n      tag_7\n      calldatasize\n      0x04\n      tag_8\n      jump\t// in\n    tag_7:\n      tag_9\n      jump\t// in\n    tag_6:\n      mload(0x40)\n        /* \"#utility.yul\":489:514   */\n      swap1\n      dup2\n      mstore\n        /* \"#utility.yul\":477:479   */\n      0x20\n        /* \"#utility.yul\":462:480   */\n      add\n        /* \"blockchain/contracts/Polygon/Pool/Prototype/pool/lib.sol\":156:298  function _how_much_to_mint( uint256 _v, uint256 _s, uint256 _b ) public pure returns ( uint256 ) {... */\n      mload(0x40)\n      dup1\n      swap2\n      sub\n      swap1\n      return\n        /* \"blockchain/contracts/Polygon/Pool/Prototype/pool/lib.sol\":304:446  function _how_much_to_send( uint256 _v, uint256 _s, uint256 _b ) public pure returns ( uint256 ) {... */\n    tag_3:\n      tag_6\n      tag_13\n      calldatasize\n      0x04\n      tag_8\n      jump\t// in\n    tag_13:\n      tag_14\n      jump\t// in\n        /* \"blockchain/contracts/Polygon/Pool/Prototype/pool/lib.sol\":452:572  function _convert_to_wei( uint256 _value ) public pure returns ( uint256 ) {... */\n    tag_4:\n      tag_6\n      tag_17\n      calldatasize\n      0x04\n      tag_18\n      jump\t// in\n    tag_17:\n      tag_19\n      jump\t// in\n        /* \"blockchain/contracts/Polygon/Pool/Prototype/pool/lib.sol\":578:698  function _convert_to_int( uint256 _value ) public pure returns ( uint256 ) {... */\n    tag_5:\n      tag_6\n      tag_22\n      calldatasize\n      0x04\n      tag_18\n      jump\t// in\n    tag_22:\n      tag_23\n      jump\t// in\n        /* \"blockchain/contracts/Polygon/Pool/Prototype/pool/lib.sol\":156:298  function _how_much_to_mint( uint256 _v, uint256 _s, uint256 _b ) public pure returns ( uint256 ) {... */\n    tag_9:\n        /* \"blockchain/contracts/Polygon/Pool/Prototype/pool/lib.sol\":243:250  uint256 */\n      0x00\n        /* \"blockchain/contracts/Polygon/Pool/Prototype/pool/lib.sol\":286:288  _b */\n      dup2\n        /* \"blockchain/contracts/Polygon/Pool/Prototype/pool/lib.sol\":274:281  _v * _s */\n      tag_26\n        /* \"blockchain/contracts/Polygon/Pool/Prototype/pool/lib.sol\":279:281  _s */\n      dup5\n        /* \"blockchain/contracts/Polygon/Pool/Prototype/pool/lib.sol\":274:276  _v */\n      dup7\n        /* \"blockchain/contracts/Polygon/Pool/Prototype/pool/lib.sol\":274:281  _v * _s */\n      tag_27\n      jump\t// in\n    tag_26:\n        /* \"blockchain/contracts/Polygon/Pool/Prototype/pool/lib.sol\":272:288  ( _v * _s ) / _b */\n      tag_28\n      swap2\n      swap1\n      tag_29\n      jump\t// in\n    tag_28:\n        /* \"blockchain/contracts/Polygon/Pool/Prototype/pool/lib.sol\":264:290  return (( _v * _s ) / _b ) */\n      swap5\n        /* \"blockchain/contracts/Polygon/Pool/Prototype/pool/lib.sol\":156:298  function _how_much_to_mint( uint256 _v, uint256 _s, uint256 _b ) public pure returns ( uint256 ) {... */\n      swap4\n      pop\n      pop\n      pop\n      pop\n      jump\t// out\n        /* \"blockchain/contracts/Polygon/Pool/Prototype/pool/lib.sol\":304:446  function _how_much_to_send( uint256 _v, uint256 _s, uint256 _b ) public pure returns ( uint256 ) {... */\n    tag_14:\n        /* \"blockchain/contracts/Polygon/Pool/Prototype/pool/lib.sol\":391:398  uint256 */\n      0x00\n        /* \"blockchain/contracts/Polygon/Pool/Prototype/pool/lib.sol\":434:436  _s */\n      dup3\n        /* \"blockchain/contracts/Polygon/Pool/Prototype/pool/lib.sol\":422:429  _v * _b */\n      tag_26\n        /* \"blockchain/contracts/Polygon/Pool/Prototype/pool/lib.sol\":427:429  _b */\n      dup4\n        /* \"blockchain/contracts/Polygon/Pool/Prototype/pool/lib.sol\":422:424  _v */\n      dup7\n        /* \"blockchain/contracts/Polygon/Pool/Prototype/pool/lib.sol\":422:429  _v * _b */\n      tag_27\n      jump\t// in\n        /* \"blockchain/contracts/Polygon/Pool/Prototype/pool/lib.sol\":452:572  function _convert_to_wei( uint256 _value ) public pure returns ( uint256 ) {... */\n    tag_19:\n        /* \"blockchain/contracts/Polygon/Pool/Prototype/pool/lib.sol\":517:524  uint256 */\n      0x00\n        /* \"blockchain/contracts/Polygon/Pool/Prototype/pool/lib.sol\":547:562  _value * 10**18 */\n      tag_34\n        /* \"blockchain/contracts/Polygon/Pool/Prototype/pool/lib.sol\":547:553  _value */\n      dup3\n        /* \"blockchain/contracts/Polygon/Pool/Prototype/pool/lib.sol\":556:562  10**18 */\n      0x0de0b6b3a7640000\n        /* \"blockchain/contracts/Polygon/Pool/Prototype/pool/lib.sol\":547:562  _value * 10**18 */\n      tag_27\n      jump\t// in\n    tag_34:\n        /* \"blockchain/contracts/Polygon/Pool/Prototype/pool/lib.sol\":538:564  return ( _value * 10**18 ) */\n      swap3\n        /* \"blockchain/contracts/Polygon/Pool/Prototype/pool/lib.sol\":452:572  function _convert_to_wei( uint256 _value ) public pure returns ( uint256 ) {... */\n      swap2\n      pop\n      pop\n      jump\t// out\n        /* \"blockchain/contracts/Polygon/Pool/Prototype/pool/lib.sol\":578:698  function _convert_to_int( uint256 _value ) public pure returns ( uint256 ) {... */\n    tag_23:\n        /* \"blockchain/contracts/Polygon/Pool/Prototype/pool/lib.sol\":643:650  uint256 */\n      0x00\n        /* \"blockchain/contracts/Polygon/Pool/Prototype/pool/lib.sol\":673:688  _value / 10**18 */\n      tag_34\n        /* \"blockchain/contracts/Polygon/Pool/Prototype/pool/lib.sol\":682:688  10**18 */\n      0x0de0b6b3a7640000\n        /* \"blockchain/contracts/Polygon/Pool/Prototype/pool/lib.sol\":673:679  _value */\n      dup4\n        /* \"blockchain/contracts/Polygon/Pool/Prototype/pool/lib.sol\":673:688  _value / 10**18 */\n      tag_29\n      jump\t// in\n        /* \"#utility.yul\":14:330   */\n    tag_8:\n        /* \"#utility.yul\":91:97   */\n      0x00\n        /* \"#utility.yul\":99:105   */\n      dup1\n        /* \"#utility.yul\":107:113   */\n      0x00\n        /* \"#utility.yul\":160:162   */\n      0x60\n        /* \"#utility.yul\":148:157   */\n      dup5\n        /* \"#utility.yul\":139:146   */\n      dup7\n        /* \"#utility.yul\":135:158   */\n      sub\n        /* \"#utility.yul\":131:163   */\n      slt\n        /* \"#utility.yul\":128:180   */\n      iszero\n      tag_39\n      jumpi\n        /* \"#utility.yul\":176:177   */\n      0x00\n        /* \"#utility.yul\":173:174   */\n      dup1\n        /* \"#utility.yul\":166:178   */\n      revert\n        /* \"#utility.yul\":128:180   */\n    tag_39:\n      pop\n      pop\n        /* \"#utility.yul\":199:222   */\n      dup2\n      calldataload\n      swap4\n        /* \"#utility.yul\":269:271   */\n      0x20\n        /* \"#utility.yul\":254:272   */\n      dup4\n      add\n        /* \"#utility.yul\":241:273   */\n      calldataload\n      swap4\n      pop\n        /* \"#utility.yul\":320:322   */\n      0x40\n        /* \"#utility.yul\":305:323   */\n      swap1\n      swap3\n      add\n        /* \"#utility.yul\":292:324   */\n      calldataload\n      swap2\n        /* \"#utility.yul\":14:330   */\n      swap1\n      pop\n      jump\t// out\n        /* \"#utility.yul\":525:705   */\n    tag_18:\n        /* \"#utility.yul\":584:590   */\n      0x00\n        /* \"#utility.yul\":637:639   */\n      0x20\n        /* \"#utility.yul\":625:634   */\n      dup3\n        /* \"#utility.yul\":616:623   */\n      dup5\n        /* \"#utility.yul\":612:635   */\n      sub\n        /* \"#utility.yul\":608:640   */\n      slt\n        /* \"#utility.yul\":605:657   */\n      iszero\n      tag_42\n      jumpi\n        /* \"#utility.yul\":653:654   */\n      0x00\n        /* \"#utility.yul\":650:651   */\n      dup1\n        /* \"#utility.yul\":643:655   */\n      revert\n        /* \"#utility.yul\":605:657   */\n    tag_42:\n      pop\n        /* \"#utility.yul\":676:699   */\n      calldataload\n      swap2\n        /* \"#utility.yul\":525:705   */\n      swap1\n      pop\n      jump\t// out\n        /* \"#utility.yul\":710:975   */\n    tag_27:\n        /* \"#utility.yul\":783:792   */\n      dup1\n      dup3\n      mul\n        /* \"#utility.yul\":814:823   */\n      dup2\n      iszero\n        /* \"#utility.yul\":831:846   */\n      dup3\n      dup3\n      div\n        /* \"#utility.yul\":825:847   */\n      dup5\n      eq\n        /* \"#utility.yul\":811:848   */\n      or\n        /* \"#utility.yul\":801:969   */\n      tag_34\n      jumpi\n        /* \"#utility.yul\":891:901   */\n      0x4e487b71\n        /* \"#utility.yul\":886:889   */\n      0xe0\n        /* \"#utility.yul\":882:902   */\n      shl\n        /* \"#utility.yul\":879:880   */\n      0x00\n        /* \"#utility.yul\":872:903   */\n      mstore\n        /* \"#utility.yul\":926:930   */\n      0x11\n        /* \"#utility.yul\":923:924   */\n      0x04\n        /* \"#utility.yul\":916:931   */\n      mstore\n        /* \"#utility.yul\":954:958   */\n      0x24\n        /* \"#utility.yul\":951:952   */\n      0x00\n        /* \"#utility.yul\":944:959   */\n      revert\n        /* \"#utility.yul\":980:1197   */\n    tag_29:\n        /* \"#utility.yul\":1020:1021   */\n      0x00\n        /* \"#utility.yul\":1046:1047   */\n      dup3\n        /* \"#utility.yul\":1036:1168   */\n      tag_46\n      jumpi\n        /* \"#utility.yul\":1090:1100   */\n      0x4e487b71\n        /* \"#utility.yul\":1085:1088   */\n      0xe0\n        /* \"#utility.yul\":1081:1101   */\n      shl\n        /* \"#utility.yul\":1078:1079   */\n      0x00\n        /* \"#utility.yul\":1071:1102   */\n      mstore\n        /* \"#utility.yul\":1125:1129   */\n      0x12\n        /* \"#utility.yul\":1122:1123   */\n      0x04\n        /* \"#utility.yul\":1115:1130   */\n      mstore\n        /* \"#utility.yul\":1153:1157   */\n      0x24\n        /* \"#utility.yul\":1150:1151   */\n      0x00\n        /* \"#utility.yul\":1143:1158   */\n      revert\n        /* \"#utility.yul\":1036:1168   */\n    tag_46:\n      pop\n        /* \"#utility.yul\":1182:1191   */\n      div\n      swap1\n        /* \"#utility.yul\":980:1197   */\n      jump\t// out\n\n    auxdata: 0xa2646970667358221220d86ad703eff9750ecee7ea0086797299e027509b2d511faa1ecd10f527c5cac264736f6c63430008120033\n}\n",
				"bytecode": {
					"linkReferences": {},
					"object": "6101d561003a600b82828239805160001a60731461002d57634e487b7160e01b600052600060045260246000fd5b30600052607381538281f3fe73000000000000000000000000000000000000000030146080604052600436106100565760003560e01c80630daf83011461005b5780634f2cf825146100805780639b87d9d114610093578063ee09fa9d146100a6575b600080fd5b61006e610069366004610113565b6100b9565b60405190815260200160405180910390f35b61006e61008e366004610113565b6100d8565b61006e6100a136600461013f565b6100e5565b61006e6100b436600461013f565b6100ff565b6000816100c68486610158565b6100d0919061017d565b949350505050565b6000826100c68386610158565b60006100f982670de0b6b3a7640000610158565b92915050565b60006100f9670de0b6b3a76400008361017d565b60008060006060848603121561012857600080fd5b505081359360208301359350604090920135919050565b60006020828403121561015157600080fd5b5035919050565b80820281158282048414176100f957634e487b7160e01b600052601160045260246000fd5b60008261019a57634e487b7160e01b600052601260045260246000fd5b50049056fea2646970667358221220d86ad703eff9750ecee7ea0086797299e027509b2d511faa1ecd10f527c5cac264736f6c63430008120033",
					"opcodes": "PUSH2 0x1D5 PUSH2 0x3A PUSH1 0xB DUP3 DUP3 DUP3 CODECOPY DUP1 MLOAD PUSH1 0x0 BYTE PUSH1 0x73 EQ PUSH2 0x2D JUMPI PUSH4 0x4E487B71 PUSH1 0xE0 SHL PUSH1 0x0 MSTORE PUSH1 0x0 PUSH1 0x4 MSTORE PUSH1 0x24 PUSH1 0x0 REVERT JUMPDEST ADDRESS PUSH1 0x0 MSTORE PUSH1 0x73 DUP2 MSTORE8 DUP3 DUP2 RETURN INVALID PUSH20 0x0 ADDRESS EQ PUSH1 0x80 PUSH1 0x40 MSTORE PUSH1 0x4 CALLDATASIZE LT PUSH2 0x56 JUMPI PUSH1 0x0 CALLDATALOAD PUSH1 0xE0 SHR DUP1 PUSH4 0xDAF8301 EQ PUSH2 0x5B JUMPI DUP1 PUSH4 0x4F2CF825 EQ PUSH2 0x80 JUMPI DUP1 PUSH4 0x9B87D9D1 EQ PUSH2 0x93 JUMPI DUP1 PUSH4 0xEE09FA9D EQ PUSH2 0xA6 JUMPI JUMPDEST PUSH1 0x0 DUP1 REVERT JUMPDEST PUSH2 0x6E PUSH2 0x69 CALLDATASIZE PUSH1 0x4 PUSH2 0x113 JUMP JUMPDEST PUSH2 0xB9 JUMP JUMPDEST PUSH1 0x40 MLOAD SWAP1 DUP2 MSTORE PUSH1 0x20 ADD PUSH1 0x40 MLOAD DUP1 SWAP2 SUB SWAP1 RETURN JUMPDEST PUSH2 0x6E PUSH2 0x8E CALLDATASIZE PUSH1 0x4 PUSH2 0x113 JUMP JUMPDEST PUSH2 0xD8 JUMP JUMPDEST PUSH2 0x6E PUSH2 0xA1 CALLDATASIZE PUSH1 0x4 PUSH2 0x13F JUMP JUMPDEST PUSH2 0xE5 JUMP JUMPDEST PUSH2 0x6E PUSH2 0xB4 CALLDATASIZE PUSH1 0x4 PUSH2 0x13F JUMP JUMPDEST PUSH2 0xFF JUMP JUMPDEST PUSH1 0x0 DUP2 PUSH2 0xC6 DUP5 DUP7 PUSH2 0x158 JUMP JUMPDEST PUSH2 0xD0 SWAP2 SWAP1 PUSH2 0x17D JUMP JUMPDEST SWAP5 SWAP4 POP POP POP POP JUMP JUMPDEST PUSH1 0x0 DUP3 PUSH2 0xC6 DUP4 DUP7 PUSH2 0x158 JUMP JUMPDEST PUSH1 0x0 PUSH2 0xF9 DUP3 PUSH8 0xDE0B6B3A7640000 PUSH2 0x158 JUMP JUMPDEST SWAP3 SWAP2 POP POP JUMP JUMPDEST PUSH1 0x0 PUSH2 0xF9 PUSH8 0xDE0B6B3A7640000 DUP4 PUSH2 0x17D JUMP JUMPDEST PUSH1 0x0 DUP1 PUSH1 0x0 PUSH1 0x60 DUP5 DUP7 SUB SLT ISZERO PUSH2 0x128 JUMPI PUSH1 0x0 DUP1 REVERT JUMPDEST POP POP DUP2 CALLDATALOAD SWAP4 PUSH1 0x20 DUP4 ADD CALLDATALOAD SWAP4 POP PUSH1 0x40 SWAP1 SWAP3 ADD CALLDATALOAD SWAP2 SWAP1 POP JUMP JUMPDEST PUSH1 0x0 PUSH1 0x20 DUP3 DUP5 SUB SLT ISZERO PUSH2 0x151 JUMPI PUSH1 0x0 DUP1 REVERT JUMPDEST POP CALLDATALOAD SWAP2 SWAP1 POP JUMP JUMPDEST DUP1 DUP3 MUL DUP2 ISZERO DUP3 DUP3 DIV DUP5 EQ OR PUSH2 0xF9 JUMPI PUSH4 0x4E487B71 PUSH1 0xE0 SHL PUSH1 0x0 MSTORE PUSH1 0x11 PUSH1 0x4 MSTORE PUSH1 0x24 PUSH1 0x0 REVERT JUMPDEST PUSH1 0x0 DUP3 PUSH2 0x19A JUMPI PUSH4 0x4E487B71 PUSH1 0xE0 SHL PUSH1 0x0 MSTORE PUSH1 0x12 PUSH1 0x4 MSTORE PUSH1 0x24 PUSH1 0x0 REVERT JUMPDEST POP DIV SWAP1 JUMP INVALID LOG2 PUSH5 0x6970667358 0x22 SLT KECCAK256 0xD8 PUSH11 0xD703EFF9750ECEE7EA0086 PUSH26 0x7299E027509B2D511FAA1ECD10F527C5CAC264736F6C63430008 SLT STOP CALLER "
				},
				"gasEstimates": {
					"creation": {
						"codeDepositCost": "93800",
						"executionCost": "172",
						"totalCost": "93972"
					},
					"external": {
						"_convert_to_int(uint256)": "367",
						"_convert_to_wei(uint256)": "infinite",
						"_how_much_to_mint(uint256,uint256,uint256)": "445",
						"_how_much_to_send(uint256,uint256,uint256)": "467"
					}
				},
				"methodIdentifiers": {
					"_convert_to_int(uint256)": "ee09fa9d",
					"_convert_to_wei(uint256)": "9b87d9d1",
					"_how_much_to_mint(uint256,uint256,uint256)": "0daf8301",
					"_how_much_to_send(uint256,uint256,uint256)": "4f2cf825"
				}
			},
			"storageLayout": {
				"storage": [],
				"types": null
			},
			"userdoc": {
				"kind": "user",
				"methods": {
					"_how_much_to_mint(uint256,uint256,uint256)": {
						"notice": "_v: value _s: supply _b: balance"
					}
				},
				"version": 1
			}
		}
	}
}