{
	"blockchain/contracts/Polygon/Pool/Prototype/pool/state.sol": {
		"State": {
			"abi": [
				{
					"inputs": [
						{
							"internalType": "address",
							"name": "_admin",
							"type": "address"
						},
						{
							"internalType": "address",
							"name": "_manager",
							"type": "address"
						},
						{
							"internalType": "string",
							"name": "_name",
							"type": "string"
						},
						{
							"internalType": "string",
							"name": "_description",
							"type": "string"
						},
						{
							"internalType": "uint256",
							"name": "_funding_start",
							"type": "uint256"
						},
						{
							"internalType": "uint256",
							"name": "_funding_end",
							"type": "uint256"
						},
						{
							"internalType": "uint256",
							"name": "_funding_required",
							"type": "uint256"
						},
						{
							"internalType": "bool",
							"name": "_whitelisted",
							"type": "bool"
						}
					],
					"stateMutability": "nonpayable",
					"type": "constructor"
				},
				{
					"anonymous": false,
					"inputs": [
						{
							"indexed": false,
							"internalType": "address",
							"name": "_from",
							"type": "address"
						},
						{
							"indexed": false,
							"internalType": "uint256",
							"name": "_value",
							"type": "uint256"
						}
					],
					"name": "Deposit",
					"type": "event"
				},
				{
					"anonymous": false,
					"inputs": [
						{
							"indexed": false,
							"internalType": "address",
							"name": "_contract",
							"type": "address"
						},
						{
							"indexed": false,
							"internalType": "address",
							"name": "_from",
							"type": "address"
						},
						{
							"indexed": false,
							"internalType": "uint256",
							"name": "_value",
							"type": "uint256"
						}
					],
					"name": "DepositERC20",
					"type": "event"
				},
				{
					"anonymous": false,
					"inputs": [
						{
							"indexed": true,
							"internalType": "address",
							"name": "_admin",
							"type": "address"
						},
						{
							"indexed": true,
							"internalType": "address",
							"name": "_manager",
							"type": "address"
						},
						{
							"indexed": false,
							"internalType": "string",
							"name": "_name",
							"type": "string"
						},
						{
							"indexed": false,
							"internalType": "string",
							"name": "_description",
							"type": "string"
						},
						{
							"indexed": false,
							"internalType": "uint256",
							"name": "_inception",
							"type": "uint256"
						},
						{
							"indexed": false,
							"internalType": "uint256",
							"name": "_funding_start",
							"type": "uint256"
						},
						{
							"indexed": false,
							"internalType": "uint256",
							"name": "_funding_end",
							"type": "uint256"
						},
						{
							"indexed": false,
							"internalType": "uint256",
							"name": "_funding_required",
							"type": "uint256"
						},
						{
							"indexed": false,
							"internalType": "bool",
							"name": "_whitelisted",
							"type": "bool"
						}
					],
					"name": "PoolFounded",
					"type": "event"
				},
				{
					"anonymous": false,
					"inputs": [
						{
							"indexed": false,
							"internalType": "address",
							"name": "_to",
							"type": "address"
						},
						{
							"indexed": false,
							"internalType": "uint256",
							"name": "_value",
							"type": "uint256"
						}
					],
					"name": "Withdraw",
					"type": "event"
				},
				{
					"anonymous": false,
					"inputs": [
						{
							"indexed": false,
							"internalType": "address",
							"name": "_contract",
							"type": "address"
						},
						{
							"indexed": false,
							"internalType": "address",
							"name": "_to",
							"type": "address"
						},
						{
							"indexed": false,
							"internalType": "uint256",
							"name": "_value",
							"type": "uint256"
						}
					],
					"name": "WithdrawERC20",
					"type": "event"
				},
				{
					"inputs": [
						{
							"internalType": "address",
							"name": "_address",
							"type": "address"
						}
					],
					"name": "persona_of",
					"outputs": [
						{
							"components": [
								{
									"internalType": "bool",
									"name": "is_on_whitelist",
									"type": "bool"
								}
							],
							"internalType": "struct State.Persona",
							"name": "",
							"type": "tuple"
						}
					],
					"stateMutability": "view",
					"type": "function"
				},
				{
					"inputs": [
						{
							"internalType": "uint256",
							"name": "_id",
							"type": "uint256"
						},
						{
							"components": [
								{
									"internalType": "uint256",
									"name": "start",
									"type": "uint256"
								},
								{
									"internalType": "uint256",
									"name": "end",
									"type": "uint256"
								},
								{
									"internalType": "uint256",
									"name": "required",
									"type": "uint256"
								},
								{
									"internalType": "bool",
									"name": "whitelisted",
									"type": "bool"
								},
								{
									"internalType": "bool",
									"name": "success",
									"type": "bool"
								}
							],
							"internalType": "struct State.Funding",
							"name": "_new",
							"type": "tuple"
						}
					],
					"name": "set_funding",
					"outputs": [
						{
							"internalType": "bool",
							"name": "",
							"type": "bool"
						}
					],
					"stateMutability": "nonpayable",
					"type": "function"
				},
				{
					"inputs": [
						{
							"internalType": "address",
							"name": "_address",
							"type": "address"
						},
						{
							"components": [
								{
									"internalType": "bool",
									"name": "is_on_whitelist",
									"type": "bool"
								}
							],
							"internalType": "struct State.Persona",
							"name": "_new",
							"type": "tuple"
						}
					],
					"name": "set_persona_of",
					"outputs": [
						{
							"internalType": "bool",
							"name": "",
							"type": "bool"
						}
					],
					"stateMutability": "nonpayable",
					"type": "function"
				},
				{
					"inputs": [
						{
							"internalType": "uint256",
							"name": "_id",
							"type": "uint256"
						}
					],
					"name": "view_funding",
					"outputs": [
						{
							"components": [
								{
									"internalType": "uint256",
									"name": "start",
									"type": "uint256"
								},
								{
									"internalType": "uint256",
									"name": "end",
									"type": "uint256"
								},
								{
									"internalType": "uint256",
									"name": "required",
									"type": "uint256"
								},
								{
									"internalType": "bool",
									"name": "whitelisted",
									"type": "bool"
								},
								{
									"internalType": "bool",
									"name": "success",
									"type": "bool"
								}
							],
							"internalType": "struct State.Funding",
							"name": "",
							"type": "tuple"
						}
					],
					"stateMutability": "view",
					"type": "function"
				},
				{
					"inputs": [
						{
							"internalType": "uint256",
							"name": "_value",
							"type": "uint256"
						}
					],
					"name": "withdraw",
					"outputs": [],
					"stateMutability": "nonpayable",
					"type": "function"
				},
				{
					"inputs": [
						{
							"internalType": "address",
							"name": "_contract",
							"type": "address"
						},
						{
							"internalType": "uint256",
							"name": "_value",
							"type": "uint256"
						}
					],
					"name": "withdraw_erc20",
					"outputs": [],
					"stateMutability": "nonpayable",
					"type": "function"
				},
				{
					"stateMutability": "payable",
					"type": "receive"
				}
			],
			"devdoc": {
				"kind": "dev",
				"methods": {},
				"version": 1
			},
			"evm": {
				"assembly": "    /* \"blockchain/contracts/Polygon/Pool/Prototype/pool/state.sol\":910:3961  contract State is IState, Safety, Authenticator {... */\n  mstore(0x40, 0x80)\n    /* \"blockchain/contracts/Polygon/Pool/Prototype/pool/state.sol\":1374:2722  constructor(... */\n  callvalue\n  dup1\n  iszero\n  tag_1\n  jumpi\n  0x00\n  dup1\n  revert\ntag_1:\n  pop\n  mload(0x40)\n  sub(codesize, bytecodeSize)\n  dup1\n  bytecodeSize\n  dup4\n  codecopy\n  dup2\n  add\n  0x40\n  dup2\n  swap1\n  mstore\n  tag_2\n  swap2\n  tag_3\n  jump\t// in\ntag_2:\n    /* \"blockchain/contracts/Polygon/Pool/Prototype/pool/state.sol\":1644:1669  uint256 _funding_duration */\n  0x00\n    /* \"blockchain/contracts/Polygon/Pool/Prototype/pool/state.sol\":1672:1701  _funding_end - _funding_start */\n  tag_6\n    /* \"blockchain/contracts/Polygon/Pool/Prototype/pool/state.sol\":1687:1701  _funding_start */\n  dup6\n    /* \"blockchain/contracts/Polygon/Pool/Prototype/pool/state.sol\":1672:1684  _funding_end */\n  dup6\n    /* \"blockchain/contracts/Polygon/Pool/Prototype/pool/state.sol\":1672:1701  _funding_end - _funding_start */\n  tag_7\n  jump\t// in\ntag_6:\n    /* \"blockchain/contracts/Polygon/Pool/Prototype/pool/state.sol\":1644:1701  uint256 _funding_duration = _funding_end - _funding_start */\n  swap1\n  pop\n    /* \"blockchain/contracts/Polygon/Pool/Prototype/pool/state.sol\":1743:1750  1 weeks */\n  0x093a80\n    /* \"blockchain/contracts/Polygon/Pool/Prototype/pool/state.sol\":1792:1799  9 weeks */\n  0x530e80\n    /* \"blockchain/contracts/Polygon/Pool/Prototype/pool/state.sol\":1819:1861  _funding_required >= _funding_min_duration */\n  dup2\n  dup6\n  lt\n  iszero\n    /* \"blockchain/contracts/Polygon/Pool/Prototype/pool/state.sol\":1810:1863  require( _funding_required >= _funding_min_duration ) */\n  tag_8\n  jumpi\n  0x00\n  dup1\n  revert\ntag_8:\n    /* \"blockchain/contracts/Polygon/Pool/Prototype/pool/state.sol\":1903:1924  _funding_max_duration */\n  dup1\n    /* \"blockchain/contracts/Polygon/Pool/Prototype/pool/state.sol\":1882:1899  _funding_duration */\n  dup4\n    /* \"blockchain/contracts/Polygon/Pool/Prototype/pool/state.sol\":1882:1924  _funding_duration >= _funding_max_duration */\n  lt\n  iszero\n    /* \"blockchain/contracts/Polygon/Pool/Prototype/pool/state.sol\":1873:1926  require( _funding_duration >= _funding_max_duration ) */\n  tag_9\n  jumpi\n  0x00\n  dup1\n  revert\ntag_9:\n    /* \"blockchain/contracts/Polygon/Pool/Prototype/pool/state.sol\":1952:2147  Funding({... */\n  0x40\n  dup1\n  mload\n  0xa0\n  dup2\n  add\n  dup3\n  mstore\n  dup9\n  dup2\n  mstore\n  0x20\n  dup1\n  dup3\n  add\n  dup10\n  dup2\n  mstore\n  swap3\n  dup3\n  add\n  dup9\n  dup2\n  mstore\n  dup8\n  iszero\n  iszero\n  0x60\n  dup5\n  add\n  swap1\n  dup2\n  mstore\n  0x00\n  0x80\n  dup6\n  add\n  dup2\n  dup2\n  mstore\n    /* \"blockchain/contracts/Polygon/Pool/Prototype/pool/state.sol\":1937:1949  funding[ 0 ] */\n  dup2\n  dup1\n  mstore\n    /* \"blockchain/contracts/Polygon/Pool/Prototype/pool/state.sol\":1937:1944  funding */\n  0x07\n    /* \"blockchain/contracts/Polygon/Pool/Prototype/pool/state.sol\":1937:1949  funding[ 0 ] */\n  swap1\n  swap5\n  mstore\n    /* \"blockchain/contracts/Polygon/Pool/Prototype/pool/state.sol\":1937:2147  funding[ 0 ] = Funding({... */\n  swap4\n  mload\n    /* \"blockchain/contracts/Polygon/Pool/Prototype/pool/state.sol\":1937:1949  funding[ 0 ] */\n  0x6d5257204ebe7d88fd91ae87941cb2dd9d8062b64ae5a2bd2d28ec40b9fbf6df\n    /* \"blockchain/contracts/Polygon/Pool/Prototype/pool/state.sol\":1937:2147  funding[ 0 ] = Funding({... */\n  sstore\n  swap4\n  mload\n  0x6d5257204ebe7d88fd91ae87941cb2dd9d8062b64ae5a2bd2d28ec40b9fbf6e0\n  sstore\n  mload\n  0x6d5257204ebe7d88fd91ae87941cb2dd9d8062b64ae5a2bd2d28ec40b9fbf6e1\n  sstore\n  swap2\n  mload\n  0x00\n  dup1\n  mload\n  0x20\n  data_47155488885ffbdd271bee987ae02acf8bc50c4611fc28ba1a528fcd613acebb\n  dup4\n  codecopy\n  dup2\n  mload\n  swap2\n  mstore\n  dup1\n  sload\n  swap4\n  mload\n  iszero\n  iszero\n  0x0100\n  mul\n  not(0xff00)\n  swap3\n  iszero\n  iszero\n  swap3\n  swap1\n  swap3\n  and\n  not(0xffff)\n  swap1\n  swap5\n  and\n  swap4\n  swap1\n  swap4\n  or\n  or\n  swap1\n  swap2\n  sstore\n    /* \"blockchain/contracts/Polygon/Pool/Prototype/pool/state.sol\":2163:2185  _funding_required == 0 */\n  dup6\n  swap1\n  sub\n    /* \"blockchain/contracts/Polygon/Pool/Prototype/pool/state.sol\":2158:2220  if ( _funding_required == 0 ) { funding[ 0 ].success = true; } */\n  tag_10\n  jumpi\n    /* \"blockchain/contracts/Polygon/Pool/Prototype/pool/state.sol\":2190:2202  funding[ 0 ] */\n  0x00\n  dup1\n  mstore\n    /* \"blockchain/contracts/Polygon/Pool/Prototype/pool/state.sol\":2190:2197  funding */\n  0x07\n    /* \"blockchain/contracts/Polygon/Pool/Prototype/pool/state.sol\":2190:2202  funding[ 0 ] */\n  0x20\n  mstore\n  0x00\n  dup1\n  mload\n  0x20\n  data_47155488885ffbdd271bee987ae02acf8bc50c4611fc28ba1a528fcd613acebb\n  dup4\n  codecopy\n  dup2\n  mload\n  swap2\n  mstore\n    /* \"blockchain/contracts/Polygon/Pool/Prototype/pool/state.sol\":2190:2217  funding[ 0 ].success = true */\n  dup1\n  sload\n  not(0xff00)\n  and\n  0x0100\n  or\n  swap1\n  sstore\n    /* \"blockchain/contracts/Polygon/Pool/Prototype/pool/state.sol\":2158:2220  if ( _funding_required == 0 ) { funding[ 0 ].success = true; } */\ntag_10:\n  sub(shl(0xa0, 0x01), 0x01)\n    /* \"blockchain/contracts/Polygon/Pool/Prototype/pool/state.sol\":2239:2261  _admin != address( 0 ) */\n  dup12\n  and\n    /* \"blockchain/contracts/Polygon/Pool/Prototype/pool/state.sol\":2230:2262  require( _admin != address( 0 )) */\n  tag_11\n  jumpi\n  0x00\n  dup1\n  revert\ntag_11:\n  sub(shl(0xa0, 0x01), 0x01)\n    /* \"blockchain/contracts/Polygon/Pool/Prototype/pool/state.sol\":2281:2305  _manager != address( 0 ) */\n  dup11\n  and\n    /* \"blockchain/contracts/Polygon/Pool/Prototype/pool/state.sol\":2272:2306  require( _manager != address( 0 )) */\n  tag_12\n  jumpi\n  0x00\n  dup1\n  revert\ntag_12:\n    /* \"blockchain/contracts/Polygon/Pool/Prototype/pool/state.sol\":2317:2322  admin */\n  0x00\n    /* \"blockchain/contracts/Polygon/Pool/Prototype/pool/state.sol\":2317:2331  admin = _admin */\n  dup1\n  sload\n  not(sub(shl(0xa8, 0x01), 0x0100))\n  and\n  0x0100\n  sub(shl(0xa0, 0x01), 0x01)\n  dup15\n  dup2\n  and\n  swap2\n  swap1\n  swap2\n  mul\n  swap2\n  swap1\n  swap2\n  or\n  swap1\n  swap2\n  sstore\n  0x01\n    /* \"blockchain/contracts/Polygon/Pool/Prototype/pool/state.sol\":2341:2359  manager = _manager */\n  dup1\n  sload\n  not(sub(shl(0xa0, 0x01), 0x01))\n  and\n  swap2\n  dup13\n  and\n  swap2\n  swap1\n  swap2\n  or\n  swap1\n  sstore\n    /* \"blockchain/contracts/Polygon/Pool/Prototype/pool/state.sol\":2369:2373  name */\n  0x03\n    /* \"blockchain/contracts/Polygon/Pool/Prototype/pool/state.sol\":2369:2381  name = _name */\n  tag_13\n    /* \"blockchain/contracts/Polygon/Pool/Prototype/pool/state.sol\":2376:2381  _name */\n  dup11\n    /* \"blockchain/contracts/Polygon/Pool/Prototype/pool/state.sol\":2369:2373  name */\n  dup3\n    /* \"blockchain/contracts/Polygon/Pool/Prototype/pool/state.sol\":2369:2381  name = _name */\n  tag_14\n  jump\t// in\ntag_13:\n  pop\n    /* \"blockchain/contracts/Polygon/Pool/Prototype/pool/state.sol\":2391:2402  description */\n  0x04\n    /* \"blockchain/contracts/Polygon/Pool/Prototype/pool/state.sol\":2391:2417  description = _description */\n  tag_15\n    /* \"blockchain/contracts/Polygon/Pool/Prototype/pool/state.sol\":2405:2417  _description */\n  dup10\n    /* \"blockchain/contracts/Polygon/Pool/Prototype/pool/state.sol\":2391:2402  description */\n  dup3\n    /* \"blockchain/contracts/Polygon/Pool/Prototype/pool/state.sol\":2391:2417  description = _description */\n  tag_14\n  jump\t// in\ntag_15:\n  pop\n    /* \"blockchain/contracts/Polygon/Pool/Prototype/pool/state.sol\":2439:2454  block.timestamp */\n  timestamp\n    /* \"blockchain/contracts/Polygon/Pool/Prototype/pool/state.sol\":2427:2436  inception */\n  0x05\n    /* \"blockchain/contracts/Polygon/Pool/Prototype/pool/state.sol\":2427:2454  inception = block.timestamp */\n  dup2\n  swap1\n  sstore\n  pop\n    /* \"blockchain/contracts/Polygon/Pool/Prototype/pool/state.sol\":2516:2524  _manager */\n  dup10\n  sub(shl(0xa0, 0x01), 0x01)\n    /* \"blockchain/contracts/Polygon/Pool/Prototype/pool/state.sol\":2470:2714  PoolFounded(... */\n  and\n    /* \"blockchain/contracts/Polygon/Pool/Prototype/pool/state.sol\":2496:2502  _admin */\n  dup12\n  sub(shl(0xa0, 0x01), 0x01)\n    /* \"blockchain/contracts/Polygon/Pool/Prototype/pool/state.sol\":2470:2714  PoolFounded(... */\n  and\n  0xa9791d0b29cae9f1171eeb4160f282930ca6a1ee4f5d2760fdb5bee857b6057e\n    /* \"blockchain/contracts/Polygon/Pool/Prototype/pool/state.sol\":2538:2543  _name */\n  dup12\n    /* \"blockchain/contracts/Polygon/Pool/Prototype/pool/state.sol\":2557:2569  _description */\n  dup12\n    /* \"blockchain/contracts/Polygon/Pool/Prototype/pool/state.sol\":2583:2592  inception */\n  sload(0x05)\n    /* \"blockchain/contracts/Polygon/Pool/Prototype/pool/state.sol\":2606:2620  _funding_start */\n  dup13\n    /* \"blockchain/contracts/Polygon/Pool/Prototype/pool/state.sol\":2634:2646  _funding_end */\n  dup13\n    /* \"blockchain/contracts/Polygon/Pool/Prototype/pool/state.sol\":2660:2677  _funding_required */\n  dup13\n    /* \"blockchain/contracts/Polygon/Pool/Prototype/pool/state.sol\":2691:2703  _whitelisted */\n  dup13\n    /* \"blockchain/contracts/Polygon/Pool/Prototype/pool/state.sol\":2470:2714  PoolFounded(... */\n  mload(0x40)\n  tag_16\n  swap8\n  swap7\n  swap6\n  swap5\n  swap4\n  swap3\n  swap2\n  swap1\n  tag_17\n  jump\t// in\ntag_16:\n  mload(0x40)\n  dup1\n  swap2\n  sub\n  swap1\n  log3\n    /* \"blockchain/contracts/Polygon/Pool/Prototype/pool/state.sol\":1633:2722  {... */\n  pop\n  pop\n  pop\n    /* \"blockchain/contracts/Polygon/Pool/Prototype/pool/state.sol\":1374:2722  constructor(... */\n  pop\n  pop\n  pop\n  pop\n  pop\n  pop\n  pop\n  pop\n    /* \"blockchain/contracts/Polygon/Pool/Prototype/pool/state.sol\":910:3961  contract State is IState, Safety, Authenticator {... */\n  jump(tag_28)\n    /* \"#utility.yul\":14:191   */\ntag_19:\n    /* \"#utility.yul\":93:106   */\n  dup1\n  mload\n  sub(shl(0xa0, 0x01), 0x01)\n    /* \"#utility.yul\":135:166   */\n  dup2\n  and\n    /* \"#utility.yul\":125:167   */\n  dup2\n  eq\n    /* \"#utility.yul\":115:185   */\n  tag_30\n  jumpi\n    /* \"#utility.yul\":181:182   */\n  0x00\n    /* \"#utility.yul\":178:179   */\n  dup1\n    /* \"#utility.yul\":171:183   */\n  revert\n    /* \"#utility.yul\":115:185   */\ntag_30:\n    /* \"#utility.yul\":14:191   */\n  swap2\n  swap1\n  pop\n  jump\t// out\n    /* \"#utility.yul\":196:323   */\ntag_20:\n    /* \"#utility.yul\":257:267   */\n  0x4e487b71\n    /* \"#utility.yul\":252:255   */\n  0xe0\n    /* \"#utility.yul\":248:268   */\n  shl\n    /* \"#utility.yul\":245:246   */\n  0x00\n    /* \"#utility.yul\":238:269   */\n  mstore\n    /* \"#utility.yul\":288:292   */\n  0x41\n    /* \"#utility.yul\":285:286   */\n  0x04\n    /* \"#utility.yul\":278:293   */\n  mstore\n    /* \"#utility.yul\":312:316   */\n  0x24\n    /* \"#utility.yul\":309:310   */\n  0x00\n    /* \"#utility.yul\":302:317   */\n  revert\n    /* \"#utility.yul\":328:578   */\ntag_21:\n    /* \"#utility.yul\":413:414   */\n  0x00\n    /* \"#utility.yul\":423:536   */\ntag_33:\n    /* \"#utility.yul\":437:443   */\n  dup4\n    /* \"#utility.yul\":434:435   */\n  dup2\n    /* \"#utility.yul\":431:444   */\n  lt\n    /* \"#utility.yul\":423:536   */\n  iszero\n  tag_35\n  jumpi\n    /* \"#utility.yul\":513:524   */\n  dup2\n  dup2\n  add\n    /* \"#utility.yul\":507:525   */\n  mload\n    /* \"#utility.yul\":494:505   */\n  dup4\n  dup3\n  add\n    /* \"#utility.yul\":487:526   */\n  mstore\n    /* \"#utility.yul\":459:461   */\n  0x20\n    /* \"#utility.yul\":452:462   */\n  add\n    /* \"#utility.yul\":423:536   */\n  jump(tag_33)\ntag_35:\n  pop\n  pop\n    /* \"#utility.yul\":570:571   */\n  0x00\n    /* \"#utility.yul\":552:568   */\n  swap2\n  add\n    /* \"#utility.yul\":545:572   */\n  mstore\n    /* \"#utility.yul\":328:578   */\n  jump\t// out\n    /* \"#utility.yul\":583:1282   */\ntag_22:\n    /* \"#utility.yul\":637:642   */\n  0x00\n    /* \"#utility.yul\":690:693   */\n  dup3\n    /* \"#utility.yul\":683:687   */\n  0x1f\n    /* \"#utility.yul\":675:681   */\n  dup4\n    /* \"#utility.yul\":671:688   */\n  add\n    /* \"#utility.yul\":667:694   */\n  slt\n    /* \"#utility.yul\":657:712   */\n  tag_37\n  jumpi\n    /* \"#utility.yul\":708:709   */\n  0x00\n    /* \"#utility.yul\":705:706   */\n  dup1\n    /* \"#utility.yul\":698:710   */\n  revert\n    /* \"#utility.yul\":657:712   */\ntag_37:\n    /* \"#utility.yul\":731:744   */\n  dup2\n  mload\n  sub(shl(0x40, 0x01), 0x01)\n    /* \"#utility.yul\":793:803   */\n  dup1\n  dup3\n  gt\n    /* \"#utility.yul\":790:826   */\n  iszero\n  tag_39\n  jumpi\n    /* \"#utility.yul\":806:824   */\n  tag_39\n  tag_20\n  jump\t// in\ntag_39:\n    /* \"#utility.yul\":881:883   */\n  0x40\n    /* \"#utility.yul\":875:884   */\n  mload\n    /* \"#utility.yul\":849:851   */\n  0x1f\n    /* \"#utility.yul\":935:948   */\n  dup4\n  add\n  not(0x1f)\n    /* \"#utility.yul\":931:953   */\n  swap1\n  dup2\n  and\n    /* \"#utility.yul\":955:957   */\n  0x3f\n    /* \"#utility.yul\":927:958   */\n  add\n    /* \"#utility.yul\":923:963   */\n  and\n    /* \"#utility.yul\":911:964   */\n  dup2\n  add\n  swap1\n    /* \"#utility.yul\":979:997   */\n  dup3\n  dup3\n  gt\n    /* \"#utility.yul\":999:1021   */\n  dup2\n  dup4\n  lt\n    /* \"#utility.yul\":976:1022   */\n  or\n    /* \"#utility.yul\":973:1045   */\n  iszero\n  tag_41\n  jumpi\n    /* \"#utility.yul\":1025:1043   */\n  tag_41\n  tag_20\n  jump\t// in\ntag_41:\n    /* \"#utility.yul\":1065:1075   */\n  dup2\n    /* \"#utility.yul\":1061:1063   */\n  0x40\n    /* \"#utility.yul\":1054:1076   */\n  mstore\n    /* \"#utility.yul\":1100:1102   */\n  dup4\n    /* \"#utility.yul\":1092:1098   */\n  dup2\n    /* \"#utility.yul\":1085:1103   */\n  mstore\n    /* \"#utility.yul\":1146:1149   */\n  dup7\n    /* \"#utility.yul\":1139:1143   */\n  0x20\n    /* \"#utility.yul\":1134:1136   */\n  dup6\n    /* \"#utility.yul\":1126:1132   */\n  dup9\n    /* \"#utility.yul\":1122:1137   */\n  add\n    /* \"#utility.yul\":1118:1144   */\n  add\n    /* \"#utility.yul\":1115:1150   */\n  gt\n    /* \"#utility.yul\":1112:1167   */\n  iszero\n  tag_42\n  jumpi\n    /* \"#utility.yul\":1163:1164   */\n  0x00\n    /* \"#utility.yul\":1160:1161   */\n  dup1\n    /* \"#utility.yul\":1153:1165   */\n  revert\n    /* \"#utility.yul\":1112:1167   */\ntag_42:\n    /* \"#utility.yul\":1176:1252   */\n  tag_43\n    /* \"#utility.yul\":1249:1251   */\n  dup5\n    /* \"#utility.yul\":1242:1246   */\n  0x20\n    /* \"#utility.yul\":1234:1240   */\n  dup4\n    /* \"#utility.yul\":1230:1247   */\n  add\n    /* \"#utility.yul\":1223:1227   */\n  0x20\n    /* \"#utility.yul\":1215:1221   */\n  dup10\n    /* \"#utility.yul\":1211:1228   */\n  add\n    /* \"#utility.yul\":1176:1252   */\n  tag_21\n  jump\t// in\ntag_43:\n    /* \"#utility.yul\":1270:1276   */\n  swap7\n    /* \"#utility.yul\":583:1282   */\n  swap6\n  pop\n  pop\n  pop\n  pop\n  pop\n  pop\n  jump\t// out\n    /* \"#utility.yul\":1287:2361   */\ntag_3:\n    /* \"#utility.yul\":1437:1443   */\n  0x00\n    /* \"#utility.yul\":1445:1451   */\n  dup1\n    /* \"#utility.yul\":1453:1459   */\n  0x00\n    /* \"#utility.yul\":1461:1467   */\n  dup1\n    /* \"#utility.yul\":1469:1475   */\n  0x00\n    /* \"#utility.yul\":1477:1483   */\n  dup1\n    /* \"#utility.yul\":1485:1491   */\n  0x00\n    /* \"#utility.yul\":1493:1499   */\n  dup1\n    /* \"#utility.yul\":1546:1549   */\n  0x0100\n    /* \"#utility.yul\":1534:1543   */\n  dup10\n    /* \"#utility.yul\":1525:1532   */\n  dup12\n    /* \"#utility.yul\":1521:1544   */\n  sub\n    /* \"#utility.yul\":1517:1550   */\n  slt\n    /* \"#utility.yul\":1514:1567   */\n  iszero\n  tag_45\n  jumpi\n    /* \"#utility.yul\":1563:1564   */\n  0x00\n    /* \"#utility.yul\":1560:1561   */\n  dup1\n    /* \"#utility.yul\":1553:1565   */\n  revert\n    /* \"#utility.yul\":1514:1567   */\ntag_45:\n    /* \"#utility.yul\":1586:1626   */\n  tag_46\n    /* \"#utility.yul\":1616:1625   */\n  dup10\n    /* \"#utility.yul\":1586:1626   */\n  tag_19\n  jump\t// in\ntag_46:\n    /* \"#utility.yul\":1576:1626   */\n  swap8\n  pop\n    /* \"#utility.yul\":1645:1694   */\n  tag_47\n    /* \"#utility.yul\":1690:1692   */\n  0x20\n    /* \"#utility.yul\":1679:1688   */\n  dup11\n    /* \"#utility.yul\":1675:1693   */\n  add\n    /* \"#utility.yul\":1645:1694   */\n  tag_19\n  jump\t// in\ntag_47:\n    /* \"#utility.yul\":1738:1740   */\n  0x40\n    /* \"#utility.yul\":1723:1741   */\n  dup11\n  add\n    /* \"#utility.yul\":1717:1742   */\n  mload\n    /* \"#utility.yul\":1635:1694   */\n  swap1\n  swap8\n  pop\n  sub(shl(0x40, 0x01), 0x01)\n    /* \"#utility.yul\":1791:1805   */\n  dup1\n  dup3\n  gt\n    /* \"#utility.yul\":1788:1822   */\n  iszero\n  tag_48\n  jumpi\n    /* \"#utility.yul\":1818:1819   */\n  0x00\n    /* \"#utility.yul\":1815:1816   */\n  dup1\n    /* \"#utility.yul\":1808:1820   */\n  revert\n    /* \"#utility.yul\":1788:1822   */\ntag_48:\n    /* \"#utility.yul\":1841:1902   */\n  tag_49\n    /* \"#utility.yul\":1894:1901   */\n  dup13\n    /* \"#utility.yul\":1885:1891   */\n  dup4\n    /* \"#utility.yul\":1874:1883   */\n  dup14\n    /* \"#utility.yul\":1870:1892   */\n  add\n    /* \"#utility.yul\":1841:1902   */\n  tag_22\n  jump\t// in\ntag_49:\n    /* \"#utility.yul\":1831:1902   */\n  swap8\n  pop\n    /* \"#utility.yul\":1948:1950   */\n  0x60\n    /* \"#utility.yul\":1937:1946   */\n  dup12\n    /* \"#utility.yul\":1933:1951   */\n  add\n    /* \"#utility.yul\":1927:1952   */\n  mload\n    /* \"#utility.yul\":1911:1952   */\n  swap2\n  pop\n    /* \"#utility.yul\":1977:1979   */\n  dup1\n    /* \"#utility.yul\":1967:1975   */\n  dup3\n    /* \"#utility.yul\":1964:1980   */\n  gt\n    /* \"#utility.yul\":1961:1997   */\n  iszero\n  tag_50\n  jumpi\n    /* \"#utility.yul\":1993:1994   */\n  0x00\n    /* \"#utility.yul\":1990:1991   */\n  dup1\n    /* \"#utility.yul\":1983:1995   */\n  revert\n    /* \"#utility.yul\":1961:1997   */\ntag_50:\n  pop\n    /* \"#utility.yul\":2016:2079   */\n  tag_51\n    /* \"#utility.yul\":2071:2078   */\n  dup12\n    /* \"#utility.yul\":2060:2068   */\n  dup3\n    /* \"#utility.yul\":2049:2058   */\n  dup13\n    /* \"#utility.yul\":2045:2069   */\n  add\n    /* \"#utility.yul\":2016:2079   */\n  tag_22\n  jump\t// in\ntag_51:\n    /* \"#utility.yul\":2006:2079   */\n  swap6\n  pop\n  pop\n    /* \"#utility.yul\":2119:2122   */\n  0x80\n    /* \"#utility.yul\":2108:2117   */\n  dup10\n    /* \"#utility.yul\":2104:2123   */\n  add\n    /* \"#utility.yul\":2098:2124   */\n  mload\n    /* \"#utility.yul\":2088:2124   */\n  swap4\n  pop\n    /* \"#utility.yul\":2164:2167   */\n  0xa0\n    /* \"#utility.yul\":2153:2162   */\n  dup10\n    /* \"#utility.yul\":2149:2168   */\n  add\n    /* \"#utility.yul\":2143:2169   */\n  mload\n    /* \"#utility.yul\":2133:2169   */\n  swap3\n  pop\n    /* \"#utility.yul\":2209:2212   */\n  0xc0\n    /* \"#utility.yul\":2198:2207   */\n  dup10\n    /* \"#utility.yul\":2194:2213   */\n  add\n    /* \"#utility.yul\":2188:2214   */\n  mload\n    /* \"#utility.yul\":2178:2214   */\n  swap2\n  pop\n    /* \"#utility.yul\":2257:2260   */\n  0xe0\n    /* \"#utility.yul\":2246:2255   */\n  dup10\n    /* \"#utility.yul\":2242:2261   */\n  add\n    /* \"#utility.yul\":2236:2262   */\n  mload\n    /* \"#utility.yul\":2305:2310   */\n  dup1\n    /* \"#utility.yul\":2298:2311   */\n  iszero\n    /* \"#utility.yul\":2291:2312   */\n  iszero\n    /* \"#utility.yul\":2284:2289   */\n  dup2\n    /* \"#utility.yul\":2281:2313   */\n  eq\n    /* \"#utility.yul\":2271:2331   */\n  tag_52\n  jumpi\n    /* \"#utility.yul\":2327:2328   */\n  0x00\n    /* \"#utility.yul\":2324:2325   */\n  dup1\n    /* \"#utility.yul\":2317:2329   */\n  revert\n    /* \"#utility.yul\":2271:2331   */\ntag_52:\n    /* \"#utility.yul\":2350:2355   */\n  dup1\n    /* \"#utility.yul\":2340:2355   */\n  swap2\n  pop\n  pop\n    /* \"#utility.yul\":1287:2361   */\n  swap3\n  swap6\n  swap9\n  pop\n  swap3\n  swap6\n  swap9\n  swap1\n  swap4\n  swap7\n  pop\n  jump\t// out\n    /* \"#utility.yul\":2366:2591   */\ntag_7:\n    /* \"#utility.yul\":2433:2442   */\n  dup2\n  dup2\n  sub\n    /* \"#utility.yul\":2454:2465   */\n  dup2\n  dup2\n  gt\n    /* \"#utility.yul\":2451:2585   */\n  iszero\n  tag_54\n  jumpi\n    /* \"#utility.yul\":2507:2517   */\n  0x4e487b71\n    /* \"#utility.yul\":2502:2505   */\n  0xe0\n    /* \"#utility.yul\":2498:2518   */\n  shl\n    /* \"#utility.yul\":2495:2496   */\n  0x00\n    /* \"#utility.yul\":2488:2519   */\n  mstore\n    /* \"#utility.yul\":2542:2546   */\n  0x11\n    /* \"#utility.yul\":2539:2540   */\n  0x04\n    /* \"#utility.yul\":2532:2547   */\n  mstore\n    /* \"#utility.yul\":2570:2574   */\n  0x24\n    /* \"#utility.yul\":2567:2568   */\n  0x00\n    /* \"#utility.yul\":2560:2575   */\n  revert\n    /* \"#utility.yul\":2451:2585   */\ntag_54:\n    /* \"#utility.yul\":2366:2591   */\n  swap3\n  swap2\n  pop\n  pop\n  jump\t// out\n    /* \"#utility.yul\":2596:2976   */\ntag_23:\n    /* \"#utility.yul\":2675:2676   */\n  0x01\n    /* \"#utility.yul\":2671:2683   */\n  dup2\n  dup2\n  shr\n  swap1\n    /* \"#utility.yul\":2718:2730   */\n  dup3\n  and\n  dup1\n    /* \"#utility.yul\":2739:2800   */\n  tag_56\n  jumpi\n    /* \"#utility.yul\":2793:2797   */\n  0x7f\n    /* \"#utility.yul\":2785:2791   */\n  dup3\n    /* \"#utility.yul\":2781:2798   */\n  and\n    /* \"#utility.yul\":2771:2798   */\n  swap2\n  pop\n    /* \"#utility.yul\":2739:2800   */\ntag_56:\n    /* \"#utility.yul\":2846:2848   */\n  0x20\n    /* \"#utility.yul\":2838:2844   */\n  dup3\n    /* \"#utility.yul\":2835:2849   */\n  lt\n    /* \"#utility.yul\":2815:2833   */\n  dup2\n    /* \"#utility.yul\":2812:2850   */\n  sub\n    /* \"#utility.yul\":2809:2970   */\n  tag_57\n  jumpi\n    /* \"#utility.yul\":2892:2902   */\n  0x4e487b71\n    /* \"#utility.yul\":2887:2890   */\n  0xe0\n    /* \"#utility.yul\":2883:2903   */\n  shl\n    /* \"#utility.yul\":2880:2881   */\n  0x00\n    /* \"#utility.yul\":2873:2904   */\n  mstore\n    /* \"#utility.yul\":2927:2931   */\n  0x22\n    /* \"#utility.yul\":2924:2925   */\n  0x04\n    /* \"#utility.yul\":2917:2932   */\n  mstore\n    /* \"#utility.yul\":2955:2959   */\n  0x24\n    /* \"#utility.yul\":2952:2953   */\n  0x00\n    /* \"#utility.yul\":2945:2960   */\n  revert\n    /* \"#utility.yul\":2809:2970   */\ntag_57:\n  pop\n    /* \"#utility.yul\":2596:2976   */\n  swap2\n  swap1\n  pop\n  jump\t// out\n    /* \"#utility.yul\":3107:3652   */\ntag_25:\n    /* \"#utility.yul\":3209:3211   */\n  0x1f\n    /* \"#utility.yul\":3204:3207   */\n  dup3\n    /* \"#utility.yul\":3201:3212   */\n  gt\n    /* \"#utility.yul\":3198:3646   */\n  iszero\n  tag_60\n  jumpi\n    /* \"#utility.yul\":3245:3246   */\n  0x00\n    /* \"#utility.yul\":3270:3275   */\n  dup2\n    /* \"#utility.yul\":3266:3268   */\n  dup2\n    /* \"#utility.yul\":3259:3276   */\n  mstore\n    /* \"#utility.yul\":3315:3319   */\n  0x20\n    /* \"#utility.yul\":3311:3313   */\n  dup2\n    /* \"#utility.yul\":3301:3320   */\n  keccak256\n    /* \"#utility.yul\":3385:3387   */\n  0x1f\n    /* \"#utility.yul\":3373:3383   */\n  dup6\n    /* \"#utility.yul\":3369:3388   */\n  add\n    /* \"#utility.yul\":3366:3367   */\n  0x05\n    /* \"#utility.yul\":3362:3389   */\n  shr\n    /* \"#utility.yul\":3356:3360   */\n  dup2\n    /* \"#utility.yul\":3352:3390   */\n  add\n    /* \"#utility.yul\":3421:3425   */\n  0x20\n    /* \"#utility.yul\":3409:3419   */\n  dup7\n    /* \"#utility.yul\":3406:3426   */\n  lt\n    /* \"#utility.yul\":3403:3450   */\n  iszero\n  tag_61\n  jumpi\n  pop\n    /* \"#utility.yul\":3444:3448   */\n  dup1\n    /* \"#utility.yul\":3403:3450   */\ntag_61:\n    /* \"#utility.yul\":3499:3501   */\n  0x1f\n    /* \"#utility.yul\":3494:3497   */\n  dup6\n    /* \"#utility.yul\":3490:3502   */\n  add\n    /* \"#utility.yul\":3487:3488   */\n  0x05\n    /* \"#utility.yul\":3483:3503   */\n  shr\n    /* \"#utility.yul\":3477:3481   */\n  dup3\n    /* \"#utility.yul\":3473:3504   */\n  add\n    /* \"#utility.yul\":3463:3504   */\n  swap2\n  pop\n    /* \"#utility.yul\":3554:3636   */\ntag_62:\n    /* \"#utility.yul\":3572:3574   */\n  dup2\n    /* \"#utility.yul\":3565:3570   */\n  dup2\n    /* \"#utility.yul\":3562:3575   */\n  lt\n    /* \"#utility.yul\":3554:3636   */\n  iszero\n  tag_64\n  jumpi\n    /* \"#utility.yul\":3617:3634   */\n  dup3\n  dup2\n  sstore\n    /* \"#utility.yul\":3598:3599   */\n  0x01\n    /* \"#utility.yul\":3587:3600   */\n  add\n    /* \"#utility.yul\":3554:3636   */\n  jump(tag_62)\ntag_64:\n    /* \"#utility.yul\":3558:3561   */\n  pop\n  pop\n  pop\n    /* \"#utility.yul\":3198:3646   */\ntag_60:\n    /* \"#utility.yul\":3107:3652   */\n  pop\n  pop\n  pop\n  jump\t// out\n    /* \"#utility.yul\":3828:5180   */\ntag_14:\n    /* \"#utility.yul\":3948:3958   */\n  dup2\n  mload\n  sub(shl(0x40, 0x01), 0x01)\n    /* \"#utility.yul\":3970:4000   */\n  dup2\n  gt\n    /* \"#utility.yul\":3967:4023   */\n  iszero\n  tag_68\n  jumpi\n    /* \"#utility.yul\":4003:4021   */\n  tag_68\n  tag_20\n  jump\t// in\ntag_68:\n    /* \"#utility.yul\":4032:4129   */\n  tag_69\n    /* \"#utility.yul\":4122:4128   */\n  dup2\n    /* \"#utility.yul\":4082:4120   */\n  tag_70\n    /* \"#utility.yul\":4114:4118   */\n  dup5\n    /* \"#utility.yul\":4108:4119   */\n  sload\n    /* \"#utility.yul\":4082:4120   */\n  tag_23\n  jump\t// in\ntag_70:\n    /* \"#utility.yul\":4076:4080   */\n  dup5\n    /* \"#utility.yul\":4032:4129   */\n  tag_25\n  jump\t// in\ntag_69:\n    /* \"#utility.yul\":4184:4188   */\n  0x20\n  dup1\n    /* \"#utility.yul\":4248:4250   */\n  0x1f\n    /* \"#utility.yul\":4237:4251   */\n  dup4\n  gt\n    /* \"#utility.yul\":4265:4266   */\n  0x01\n    /* \"#utility.yul\":4260:4923   */\n  dup2\n  eq\n  tag_72\n  jumpi\n    /* \"#utility.yul\":4967:4968   */\n  0x00\n    /* \"#utility.yul\":4984:4990   */\n  dup5\n    /* \"#utility.yul\":4981:5070   */\n  iszero\n  tag_73\n  jumpi\n  pop\n    /* \"#utility.yul\":5036:5055   */\n  dup6\n  dup4\n  add\n    /* \"#utility.yul\":5030:5056   */\n  mload\n    /* \"#utility.yul\":4981:5070   */\ntag_73:\n  not(0x00)\n    /* \"#utility.yul\":3785:3786   */\n  0x03\n    /* \"#utility.yul\":3781:3792   */\n  dup7\n  swap1\n  shl\n    /* \"#utility.yul\":3777:3801   */\n  shr\n    /* \"#utility.yul\":3773:3802   */\n  not\n    /* \"#utility.yul\":3763:3803   */\n  and\n    /* \"#utility.yul\":3809:3810   */\n  0x01\n    /* \"#utility.yul\":3805:3816   */\n  dup6\n  swap1\n  shl\n    /* \"#utility.yul\":3760:3817   */\n  or\n    /* \"#utility.yul\":5083:5164   */\n  dup6\n  sstore\n    /* \"#utility.yul\":4230:5174   */\n  jump(tag_64)\n    /* \"#utility.yul\":4260:4923   */\ntag_72:\n    /* \"#utility.yul\":3054:3055   */\n  0x00\n    /* \"#utility.yul\":3047:3061   */\n  dup6\n  dup2\n  mstore\n    /* \"#utility.yul\":3091:3095   */\n  0x20\n    /* \"#utility.yul\":3078:3096   */\n  dup2\n  keccak256\n  not(0x1f)\n    /* \"#utility.yul\":4296:4316   */\n  dup7\n  and\n  swap2\n    /* \"#utility.yul\":4414:4650   */\ntag_76:\n    /* \"#utility.yul\":4428:4435   */\n  dup3\n    /* \"#utility.yul\":4425:4426   */\n  dup2\n    /* \"#utility.yul\":4422:4436   */\n  lt\n    /* \"#utility.yul\":4414:4650   */\n  iszero\n  tag_78\n  jumpi\n    /* \"#utility.yul\":4517:4536   */\n  dup9\n  dup7\n  add\n    /* \"#utility.yul\":4511:4537   */\n  mload\n    /* \"#utility.yul\":4496:4538   */\n  dup3\n  sstore\n    /* \"#utility.yul\":4609:4636   */\n  swap5\n  dup5\n  add\n  swap5\n    /* \"#utility.yul\":4577:4578   */\n  0x01\n    /* \"#utility.yul\":4565:4579   */\n  swap1\n  swap2\n  add\n  swap1\n    /* \"#utility.yul\":4444:4463   */\n  dup5\n  add\n    /* \"#utility.yul\":4414:4650   */\n  jump(tag_76)\ntag_78:\n    /* \"#utility.yul\":4418:4421   */\n  pop\n    /* \"#utility.yul\":4678:4684   */\n  dup6\n    /* \"#utility.yul\":4669:4676   */\n  dup3\n    /* \"#utility.yul\":4666:4685   */\n  lt\n    /* \"#utility.yul\":4663:4864   */\n  iszero\n  tag_79\n  jumpi\n    /* \"#utility.yul\":4739:4758   */\n  dup8\n  dup6\n  add\n    /* \"#utility.yul\":4733:4759   */\n  mload\n  not(0x00)\n    /* \"#utility.yul\":4822:4823   */\n  0x03\n    /* \"#utility.yul\":4818:4832   */\n  dup9\n  swap1\n  shl\n    /* \"#utility.yul\":4834:4837   */\n  0xf8\n    /* \"#utility.yul\":4814:4838   */\n  and\n    /* \"#utility.yul\":4810:4847   */\n  shr\n    /* \"#utility.yul\":4806:4848   */\n  not\n    /* \"#utility.yul\":4791:4849   */\n  and\n    /* \"#utility.yul\":4776:4850   */\n  dup2\n  sstore\n    /* \"#utility.yul\":4663:4864   */\ntag_79:\n  pop\n  pop\n  pop\n  pop\n  pop\n    /* \"#utility.yul\":4910:4911   */\n  0x01\n    /* \"#utility.yul\":4894:4908   */\n  swap1\n  dup2\n  shl\n    /* \"#utility.yul\":4890:4912   */\n  add\n    /* \"#utility.yul\":4877:4913   */\n  swap1\n  sstore\n  pop\n    /* \"#utility.yul\":3828:5180   */\n  jump\t// out\n    /* \"#utility.yul\":5185:5456   */\ntag_27:\n    /* \"#utility.yul\":5227:5230   */\n  0x00\n    /* \"#utility.yul\":5265:5270   */\n  dup2\n    /* \"#utility.yul\":5259:5271   */\n  mload\n    /* \"#utility.yul\":5292:5298   */\n  dup1\n    /* \"#utility.yul\":5287:5290   */\n  dup5\n    /* \"#utility.yul\":5280:5299   */\n  mstore\n    /* \"#utility.yul\":5308:5384   */\n  tag_81\n    /* \"#utility.yul\":5377:5383   */\n  dup2\n    /* \"#utility.yul\":5370:5374   */\n  0x20\n    /* \"#utility.yul\":5365:5368   */\n  dup7\n    /* \"#utility.yul\":5361:5375   */\n  add\n    /* \"#utility.yul\":5354:5358   */\n  0x20\n    /* \"#utility.yul\":5347:5352   */\n  dup7\n    /* \"#utility.yul\":5343:5359   */\n  add\n    /* \"#utility.yul\":5308:5384   */\n  tag_21\n  jump\t// in\ntag_81:\n    /* \"#utility.yul\":5438:5440   */\n  0x1f\n    /* \"#utility.yul\":5417:5432   */\n  add\n  not(0x1f)\n    /* \"#utility.yul\":5413:5442   */\n  and\n    /* \"#utility.yul\":5404:5443   */\n  swap3\n  swap1\n  swap3\n  add\n    /* \"#utility.yul\":5445:5449   */\n  0x20\n    /* \"#utility.yul\":5400:5450   */\n  add\n  swap3\n    /* \"#utility.yul\":5185:5456   */\n  swap2\n  pop\n  pop\n  jump\t// out\n    /* \"#utility.yul\":5461:6214   */\ntag_17:\n    /* \"#utility.yul\":5792:5795   */\n  0xe0\n    /* \"#utility.yul\":5781:5790   */\n  dup2\n    /* \"#utility.yul\":5774:5796   */\n  mstore\n    /* \"#utility.yul\":5755:5759   */\n  0x00\n    /* \"#utility.yul\":5819:5865   */\n  tag_83\n    /* \"#utility.yul\":5860:5863   */\n  0xe0\n    /* \"#utility.yul\":5849:5858   */\n  dup4\n    /* \"#utility.yul\":5845:5864   */\n  add\n    /* \"#utility.yul\":5837:5843   */\n  dup11\n    /* \"#utility.yul\":5819:5865   */\n  tag_27\n  jump\t// in\ntag_83:\n    /* \"#utility.yul\":5913:5922   */\n  dup3\n    /* \"#utility.yul\":5905:5911   */\n  dup2\n    /* \"#utility.yul\":5901:5923   */\n  sub\n    /* \"#utility.yul\":5896:5898   */\n  0x20\n    /* \"#utility.yul\":5885:5894   */\n  dup5\n    /* \"#utility.yul\":5881:5899   */\n  add\n    /* \"#utility.yul\":5874:5924   */\n  mstore\n    /* \"#utility.yul\":5941:5974   */\n  tag_84\n    /* \"#utility.yul\":5967:5973   */\n  dup2\n    /* \"#utility.yul\":5959:5965   */\n  dup11\n    /* \"#utility.yul\":5941:5974   */\n  tag_27\n  jump\t// in\ntag_84:\n    /* \"#utility.yul\":6005:6007   */\n  0x40\n    /* \"#utility.yul\":5990:6008   */\n  dup5\n  add\n    /* \"#utility.yul\":5983:6017   */\n  swap9\n  swap1\n  swap9\n  mstore\n  pop\n  pop\n    /* \"#utility.yul\":6048:6050   */\n  0x60\n    /* \"#utility.yul\":6033:6051   */\n  dup2\n  add\n    /* \"#utility.yul\":6026:6060   */\n  swap5\n  swap1\n  swap5\n  mstore\n    /* \"#utility.yul\":6091:6094   */\n  0x80\n    /* \"#utility.yul\":6076:6095   */\n  dup5\n  add\n    /* \"#utility.yul\":6069:6104   */\n  swap3\n  swap1\n  swap3\n  mstore\n    /* \"#utility.yul\":6135:6138   */\n  0xa0\n    /* \"#utility.yul\":6120:6139   */\n  dup4\n  add\n    /* \"#utility.yul\":6113:6148   */\n  mstore\n    /* \"#utility.yul\":6192:6206   */\n  iszero\n    /* \"#utility.yul\":6185:6207   */\n  iszero\n    /* \"#utility.yul\":6179:6182   */\n  0xc0\n    /* \"#utility.yul\":6164:6183   */\n  swap1\n  swap2\n  add\n    /* \"#utility.yul\":6157:6208   */\n  mstore\n    /* \"#utility.yul\":5933:5974   */\n  swap3\n    /* \"#utility.yul\":5461:6214   */\n  swap2\n  pop\n  pop\n  jump\t// out\ntag_28:\n    /* \"blockchain/contracts/Polygon/Pool/Prototype/pool/state.sol\":910:3961  contract State is IState, Safety, Authenticator {... */\n  dataSize(sub_0)\n  dup1\n  dataOffset(sub_0)\n  0x00\n  codecopy\n  0x00\n  return\nstop\ndata_47155488885ffbdd271bee987ae02acf8bc50c4611fc28ba1a528fcd613acebb 6d5257204ebe7d88fd91ae87941cb2dd9d8062b64ae5a2bd2d28ec40b9fbf6e2\n\nsub_0: assembly {\n        /* \"blockchain/contracts/Polygon/Pool/Prototype/pool/state.sol\":910:3961  contract State is IState, Safety, Authenticator {... */\n      mstore(0x40, 0x80)\n      jumpi(tag_1, lt(calldatasize, 0x04))\n      shr(0xe0, calldataload(0x00))\n      dup1\n      0x0923fe94\n      eq\n      tag_3\n      jumpi\n      dup1\n      0x24a5af31\n      eq\n      tag_4\n      jumpi\n      dup1\n      0x2e1a7d4d\n      eq\n      tag_5\n      jumpi\n      dup1\n      0x90b410af\n      eq\n      tag_6\n      jumpi\n      dup1\n      0xb9761101\n      eq\n      tag_7\n      jumpi\n      dup1\n      0xdd12776a\n      eq\n      tag_8\n      jumpi\n      0x00\n      dup1\n      revert\n    tag_1:\n      jumpi(tag_2, calldatasize)\n        /* \"blockchain/contracts/Polygon/Pool/Prototype/pool/authenticator.sol\":233:238  admin */\n      sload(0x00)\n      0x0100\n      swap1\n      div\n      sub(shl(0xa0, 0x01), 0x01)\n      and\n        /* \"blockchain/contracts/Polygon/Pool/Prototype/pool/authenticator.sol\":219:229  msg.sender */\n      caller\n        /* \"blockchain/contracts/Polygon/Pool/Prototype/pool/authenticator.sol\":219:238  msg.sender == admin */\n      eq\n        /* \"blockchain/contracts/Polygon/Pool/Prototype/pool/authenticator.sol\":210:240  require( msg.sender == admin ) */\n      tag_11\n      jumpi\n      0x00\n      dup1\n      revert\n    tag_11:\n        /* \"blockchain/contracts/Polygon/Pool/Prototype/pool/state.sol\":2855:2879  Deposit( _from, _value ) */\n      0x40\n      dup1\n      mload\n        /* \"blockchain/contracts/Polygon/Pool/Prototype/pool/state.sol\":2793:2803  msg.sender */\n      caller\n        /* \"#utility.yul\":188:239   */\n      dup1\n      dup3\n      mstore\n        /* \"blockchain/contracts/Polygon/Pool/Prototype/pool/state.sol\":2830:2839  msg.value */\n      callvalue\n        /* \"#utility.yul\":270:272   */\n      0x20\n        /* \"#utility.yul\":255:273   */\n      dup4\n      add\n        /* \"#utility.yul\":248:282   */\n      dup2\n      swap1\n      mstore\n        /* \"blockchain/contracts/Polygon/Pool/Prototype/pool/state.sol\":2793:2803  msg.sender */\n      swap1\n      swap3\n        /* \"blockchain/contracts/Polygon/Pool/Prototype/pool/state.sol\":2830:2839  msg.value */\n      swap1\n      swap2\n        /* \"blockchain/contracts/Polygon/Pool/Prototype/pool/state.sol\":2855:2879  Deposit( _from, _value ) */\n      0xe1fffcc4923d04b559f4d29a8bfc6cda04eb5b0d3c460751c2402c5c5cc9109c\n      swap2\n        /* \"#utility.yul\":161:179   */\n      add\n        /* \"blockchain/contracts/Polygon/Pool/Prototype/pool/state.sol\":2855:2879  Deposit( _from, _value ) */\n      mload(0x40)\n      dup1\n      swap2\n      sub\n      swap1\n      log1\n        /* \"blockchain/contracts/Polygon/Pool/Prototype/pool/state.sol\":2766:2887  {... */\n      stop\n        /* \"blockchain/contracts/Polygon/Pool/Prototype/pool/state.sol\":910:3961  contract State is IState, Safety, Authenticator {... */\n    tag_2:\n      0x00\n      dup1\n      revert\n        /* \"blockchain/contracts/Polygon/Pool/Prototype/pool/state.sol\":3310:3438  function persona_of( address _address ) public view returns ( Persona memory ) {... */\n    tag_3:\n      callvalue\n      dup1\n      iszero\n      tag_15\n      jumpi\n      0x00\n      dup1\n      revert\n    tag_15:\n      pop\n      tag_16\n      tag_17\n      calldatasize\n      0x04\n      tag_18\n      jump\t// in\n    tag_17:\n      0x40\n      dup1\n      mload\n      0x20\n      dup1\n      dup3\n      add\n      dup4\n      mstore\n      0x00\n      swap2\n      dup3\n      swap1\n      mstore\n      sub(shl(0xa0, 0x01), 0x01)\n        /* \"blockchain/contracts/Polygon/Pool/Prototype/pool/state.sol\":3409:3428  persona[ _address ] */\n      swap4\n      swap1\n      swap4\n      and\n      dup2\n      mstore\n        /* \"blockchain/contracts/Polygon/Pool/Prototype/pool/state.sol\":3409:3416  persona */\n      0x06\n        /* \"blockchain/contracts/Polygon/Pool/Prototype/pool/state.sol\":3409:3428  persona[ _address ] */\n      dup4\n      mstore\n      dup2\n      swap1\n      keccak256\n        /* \"blockchain/contracts/Polygon/Pool/Prototype/pool/state.sol\":3400:3430  return ( persona[ _address ] ) */\n      dup2\n      mload\n      swap3\n      dup4\n      add\n      swap1\n      swap2\n      mstore\n      sload\n      0xff\n      and\n      iszero\n      iszero\n      dup2\n      mstore\n      swap1\n        /* \"blockchain/contracts/Polygon/Pool/Prototype/pool/state.sol\":3310:3438  function persona_of( address _address ) public view returns ( Persona memory ) {... */\n      jump\n    tag_16:\n      mload(0x40)\n        /* \"#utility.yul\":888:901   */\n      swap1\n      mload\n        /* \"#utility.yul\":881:902   */\n      iszero\n        /* \"#utility.yul\":874:903   */\n      iszero\n        /* \"#utility.yul\":856:904   */\n      dup2\n      mstore\n        /* \"#utility.yul\":844:846   */\n      0x20\n        /* \"#utility.yul\":829:847   */\n      add\n        /* \"blockchain/contracts/Polygon/Pool/Prototype/pool/state.sol\":3310:3438  function persona_of( address _address ) public view returns ( Persona memory ) {... */\n    tag_20:\n      mload(0x40)\n      dup1\n      swap2\n      sub\n      swap1\n      return\n        /* \"blockchain/contracts/Polygon/Pool/Prototype/pool/state.sol\":3082:3304  function withdraw_erc20( address _contract, uint256 _value ) public only_admin {... */\n    tag_4:\n      callvalue\n      dup1\n      iszero\n      tag_22\n      jumpi\n      0x00\n      dup1\n      revert\n    tag_22:\n      pop\n      tag_23\n      tag_24\n      calldatasize\n      0x04\n      tag_25\n      jump\t// in\n    tag_24:\n      tag_26\n      jump\t// in\n    tag_23:\n      stop\n        /* \"blockchain/contracts/Polygon/Pool/Prototype/pool/state.sol\":2893:3076  function withdraw( uint256 _value ) public only_admin {... */\n    tag_5:\n      callvalue\n      dup1\n      iszero\n      tag_27\n      jumpi\n      0x00\n      dup1\n      revert\n    tag_27:\n      pop\n      tag_23\n      tag_29\n      calldatasize\n      0x04\n      tag_30\n      jump\t// in\n    tag_29:\n      tag_31\n      jump\t// in\n        /* \"blockchain/contracts/Polygon/Pool/Prototype/pool/state.sol\":3444:3611  function set_persona_of( address _address, Persona memory _new ) public only_admin returns ( bool ) {... */\n    tag_6:\n      callvalue\n      dup1\n      iszero\n      tag_32\n      jumpi\n      0x00\n      dup1\n      revert\n    tag_32:\n      pop\n      tag_33\n      tag_34\n      calldatasize\n      0x04\n      tag_35\n      jump\t// in\n    tag_34:\n      tag_36\n      jump\t// in\n    tag_33:\n      mload(0x40)\n        /* \"#utility.yul\":2399:2413   */\n      swap1\n      iszero\n        /* \"#utility.yul\":2392:2414   */\n      iszero\n        /* \"#utility.yul\":2374:2415   */\n      dup2\n      mstore\n        /* \"#utility.yul\":2362:2364   */\n      0x20\n        /* \"#utility.yul\":2347:2365   */\n      add\n        /* \"blockchain/contracts/Polygon/Pool/Prototype/pool/state.sol\":3444:3611  function set_persona_of( address _address, Persona memory _new ) public only_admin returns ( bool ) {... */\n      tag_20\n        /* \"#utility.yul\":2234:2421   */\n      jump\n        /* \"blockchain/contracts/Polygon/Pool/Prototype/pool/state.sol\":3617:3737  function view_funding( uint256 _id ) public view returns ( Funding memory ) {... */\n    tag_7:\n      callvalue\n      dup1\n      iszero\n      tag_39\n      jumpi\n      0x00\n      dup1\n      revert\n    tag_39:\n      pop\n      tag_40\n      tag_41\n      calldatasize\n      0x04\n      tag_30\n      jump\t// in\n    tag_41:\n      tag_42\n      jump\t// in\n    tag_40:\n      mload(0x40)\n      tag_20\n      swap2\n      swap1\n        /* \"#utility.yul\":2566:2570   */\n      0x00\n        /* \"#utility.yul\":2608:2611   */\n      0xa0\n        /* \"#utility.yul\":2597:2606   */\n      dup3\n        /* \"#utility.yul\":2593:2612   */\n      add\n        /* \"#utility.yul\":2585:2612   */\n      swap1\n      pop\n        /* \"#utility.yul\":2645:2651   */\n      dup3\n        /* \"#utility.yul\":2639:2652   */\n      mload\n        /* \"#utility.yul\":2628:2637   */\n      dup3\n        /* \"#utility.yul\":2621:2653   */\n      mstore\n        /* \"#utility.yul\":2709:2713   */\n      0x20\n        /* \"#utility.yul\":2701:2707   */\n      dup4\n        /* \"#utility.yul\":2697:2714   */\n      add\n        /* \"#utility.yul\":2691:2715   */\n      mload\n        /* \"#utility.yul\":2684:2688   */\n      0x20\n        /* \"#utility.yul\":2673:2682   */\n      dup4\n        /* \"#utility.yul\":2669:2689   */\n      add\n        /* \"#utility.yul\":2662:2716   */\n      mstore\n        /* \"#utility.yul\":2772:2776   */\n      0x40\n        /* \"#utility.yul\":2764:2770   */\n      dup4\n        /* \"#utility.yul\":2760:2777   */\n      add\n        /* \"#utility.yul\":2754:2778   */\n      mload\n        /* \"#utility.yul\":2747:2751   */\n      0x40\n        /* \"#utility.yul\":2736:2745   */\n      dup4\n        /* \"#utility.yul\":2732:2752   */\n      add\n        /* \"#utility.yul\":2725:2779   */\n      mstore\n        /* \"#utility.yul\":2849:2853   */\n      0x60\n        /* \"#utility.yul\":2841:2847   */\n      dup4\n        /* \"#utility.yul\":2837:2854   */\n      add\n        /* \"#utility.yul\":2831:2855   */\n      mload\n        /* \"#utility.yul\":2824:2856   */\n      iszero\n        /* \"#utility.yul\":2817:2857   */\n      iszero\n        /* \"#utility.yul\":2810:2814   */\n      0x60\n        /* \"#utility.yul\":2799:2808   */\n      dup4\n        /* \"#utility.yul\":2795:2815   */\n      add\n        /* \"#utility.yul\":2788:2858   */\n      mstore\n        /* \"#utility.yul\":2928:2932   */\n      0x80\n        /* \"#utility.yul\":2920:2926   */\n      dup4\n        /* \"#utility.yul\":2916:2933   */\n      add\n        /* \"#utility.yul\":2910:2934   */\n      mload\n        /* \"#utility.yul\":2903:2935   */\n      iszero\n        /* \"#utility.yul\":2896:2936   */\n      iszero\n        /* \"#utility.yul\":2889:2893   */\n      0x80\n        /* \"#utility.yul\":2878:2887   */\n      dup4\n        /* \"#utility.yul\":2874:2894   */\n      add\n        /* \"#utility.yul\":2867:2937   */\n      mstore\n        /* \"#utility.yul\":2426:2943   */\n      swap3\n      swap2\n      pop\n      pop\n      jump\n        /* \"blockchain/contracts/Polygon/Pool/Prototype/pool/state.sol\":3743:3958  function set_funding( uint256 _id, Funding memory _new ) public only_admin returns ( bool ) {... */\n    tag_8:\n      callvalue\n      dup1\n      iszero\n      tag_45\n      jumpi\n      0x00\n      dup1\n      revert\n    tag_45:\n      pop\n      tag_33\n      tag_47\n      calldatasize\n      0x04\n      tag_48\n      jump\t// in\n    tag_47:\n      tag_49\n      jump\t// in\n        /* \"blockchain/contracts/Polygon/Pool/Prototype/pool/state.sol\":3082:3304  function withdraw_erc20( address _contract, uint256 _value ) public only_admin {... */\n    tag_26:\n        /* \"blockchain/contracts/Polygon/Pool/Prototype/pool/authenticator.sol\":233:238  admin */\n      sload(0x00)\n      0x0100\n      swap1\n      div\n      sub(shl(0xa0, 0x01), 0x01)\n      and\n        /* \"blockchain/contracts/Polygon/Pool/Prototype/pool/authenticator.sol\":219:229  msg.sender */\n      caller\n        /* \"blockchain/contracts/Polygon/Pool/Prototype/pool/authenticator.sol\":219:238  msg.sender == admin */\n      eq\n        /* \"blockchain/contracts/Polygon/Pool/Prototype/pool/authenticator.sol\":210:240  require( msg.sender == admin ) */\n      tag_55\n      jumpi\n      0x00\n      dup1\n      revert\n    tag_55:\n        /* \"blockchain/contracts/Polygon/Pool/Prototype/pool/state.sol\":3172:3191  address payable _to */\n      0x00\n        /* \"blockchain/contracts/Polygon/Pool/Prototype/pool/state.sol\":3203:3208  admin */\n      sload\n        /* \"blockchain/contracts/Polygon/Pool/Prototype/pool/state.sol\":3266:3296  _token.transfer( _to, _value ) */\n      mload(0x40)\n      shl(0xe0, 0xa9059cbb)\n      dup2\n      mstore\n        /* \"blockchain/contracts/Polygon/Pool/Prototype/pool/state.sol\":3203:3208  admin */\n      0x0100\n      swap1\n      swap2\n      div\n      sub(shl(0xa0, 0x01), 0x01)\n      swap1\n      dup2\n      and\n        /* \"blockchain/contracts/Polygon/Pool/Prototype/pool/state.sol\":3266:3296  _token.transfer( _to, _value ) */\n      0x04\n      dup4\n      add\n        /* \"#utility.yul\":188:239   */\n      dup2\n      swap1\n      mstore\n        /* \"#utility.yul\":255:273   */\n      0x24\n      dup4\n      add\n        /* \"#utility.yul\":248:282   */\n      dup5\n      swap1\n      mstore\n        /* \"blockchain/contracts/Polygon/Pool/Prototype/pool/state.sol\":3203:3208  admin */\n      swap2\n        /* \"blockchain/contracts/Polygon/Pool/Prototype/pool/state.sol\":3245:3254  _contract */\n      dup5\n      swap2\n        /* \"blockchain/contracts/Polygon/Pool/Prototype/pool/state.sol\":3266:3281  _token.transfer */\n      dup3\n      and\n      swap1\n      0xa9059cbb\n      swap1\n        /* \"#utility.yul\":161:179   */\n      0x44\n      add\n        /* \"blockchain/contracts/Polygon/Pool/Prototype/pool/state.sol\":3266:3296  _token.transfer( _to, _value ) */\n      0x20\n      mload(0x40)\n      dup1\n      dup4\n      sub\n      dup2\n      0x00\n      dup8\n      gas\n      call\n      iszero\n      dup1\n      iszero\n      tag_60\n      jumpi\n      returndatasize\n      0x00\n      dup1\n      returndatacopy\n      revert(0x00, returndatasize)\n    tag_60:\n      pop\n      pop\n      pop\n      pop\n      mload(0x40)\n      returndatasize\n      not(0x1f)\n      0x1f\n      dup3\n      add\n      and\n      dup3\n      add\n      dup1\n      0x40\n      mstore\n      pop\n      dup2\n      add\n      swap1\n      tag_61\n      swap2\n      swap1\n      tag_62\n      jump\t// in\n    tag_61:\n      pop\n        /* \"blockchain/contracts/Polygon/Pool/Prototype/pool/state.sol\":3161:3304  {... */\n      pop\n      pop\n        /* \"blockchain/contracts/Polygon/Pool/Prototype/pool/state.sol\":3082:3304  function withdraw_erc20( address _contract, uint256 _value ) public only_admin {... */\n      pop\n      pop\n      jump\t// out\n        /* \"blockchain/contracts/Polygon/Pool/Prototype/pool/state.sol\":2893:3076  function withdraw( uint256 _value ) public only_admin {... */\n    tag_31:\n        /* \"blockchain/contracts/Polygon/Pool/Prototype/pool/authenticator.sol\":233:238  admin */\n      sload(0x00)\n      0x0100\n      swap1\n      div\n      sub(shl(0xa0, 0x01), 0x01)\n      and\n        /* \"blockchain/contracts/Polygon/Pool/Prototype/pool/authenticator.sol\":219:229  msg.sender */\n      caller\n        /* \"blockchain/contracts/Polygon/Pool/Prototype/pool/authenticator.sol\":219:238  msg.sender == admin */\n      eq\n        /* \"blockchain/contracts/Polygon/Pool/Prototype/pool/authenticator.sol\":210:240  require( msg.sender == admin ) */\n      tag_64\n      jumpi\n      0x00\n      dup1\n      revert\n    tag_64:\n        /* \"blockchain/contracts/Polygon/Pool/Prototype/pool/state.sol\":2958:2977  address payable _to */\n      0x00\n        /* \"blockchain/contracts/Polygon/Pool/Prototype/pool/state.sol\":2989:2994  admin */\n      dup1\n      sload\n        /* \"blockchain/contracts/Polygon/Pool/Prototype/pool/state.sol\":3007:3029  _to.transfer( _value ) */\n      mload(0x40)\n        /* \"blockchain/contracts/Polygon/Pool/Prototype/pool/state.sol\":2989:2994  admin */\n      0x0100\n      swap1\n      swap2\n      div\n      sub(shl(0xa0, 0x01), 0x01)\n      and\n      swap2\n      dup3\n      swap2\n        /* \"blockchain/contracts/Polygon/Pool/Prototype/pool/state.sol\":3007:3029  _to.transfer( _value ) */\n      0x08fc\n      dup6\n      iszero\n      mul\n      swap2\n      dup6\n      swap2\n      swap1\n      dup2\n        /* \"blockchain/contracts/Polygon/Pool/Prototype/pool/state.sol\":2958:2977  address payable _to */\n      dup2\n        /* \"blockchain/contracts/Polygon/Pool/Prototype/pool/state.sol\":3007:3029  _to.transfer( _value ) */\n      dup2\n      dup6\n        /* \"blockchain/contracts/Polygon/Pool/Prototype/pool/state.sol\":2989:2994  admin */\n      dup9\n        /* \"blockchain/contracts/Polygon/Pool/Prototype/pool/state.sol\":3007:3029  _to.transfer( _value ) */\n      dup9\n      call\n      swap4\n      pop\n      pop\n      pop\n      pop\n      iszero\n      dup1\n      iszero\n      tag_67\n      jumpi\n      returndatasize\n      0x00\n      dup1\n      returndatacopy\n      revert(0x00, returndatasize)\n    tag_67:\n      pop\n        /* \"blockchain/contracts/Polygon/Pool/Prototype/pool/state.sol\":3045:3068  Withdraw( _to, _value ) */\n      0x40\n      dup1\n      mload\n      sub(shl(0xa0, 0x01), 0x01)\n        /* \"#utility.yul\":206:238   */\n      dup4\n      and\n        /* \"#utility.yul\":188:239   */\n      dup2\n      mstore\n        /* \"#utility.yul\":270:272   */\n      0x20\n        /* \"#utility.yul\":255:273   */\n      dup2\n      add\n        /* \"#utility.yul\":248:282   */\n      dup5\n      swap1\n      mstore\n        /* \"blockchain/contracts/Polygon/Pool/Prototype/pool/state.sol\":3045:3068  Withdraw( _to, _value ) */\n      0x884edad9ce6fa2440d8a54cc123490eb96d2768479d49ff9c7366125a9424364\n      swap2\n        /* \"#utility.yul\":161:179   */\n      add\n        /* \"blockchain/contracts/Polygon/Pool/Prototype/pool/state.sol\":3045:3068  Withdraw( _to, _value ) */\n      mload(0x40)\n      dup1\n      swap2\n      sub\n      swap1\n      log1\n        /* \"blockchain/contracts/Polygon/Pool/Prototype/pool/state.sol\":2947:3076  {... */\n      pop\n        /* \"blockchain/contracts/Polygon/Pool/Prototype/pool/state.sol\":2893:3076  function withdraw( uint256 _value ) public only_admin {... */\n      pop\n      jump\t// out\n        /* \"blockchain/contracts/Polygon/Pool/Prototype/pool/state.sol\":3444:3611  function set_persona_of( address _address, Persona memory _new ) public only_admin returns ( bool ) {... */\n    tag_36:\n        /* \"blockchain/contracts/Polygon/Pool/Prototype/pool/state.sol\":3537:3541  bool */\n      0x00\n        /* \"blockchain/contracts/Polygon/Pool/Prototype/pool/authenticator.sol\":233:238  admin */\n      dup1\n      sload\n      0x0100\n      swap1\n      div\n      sub(shl(0xa0, 0x01), 0x01)\n      and\n        /* \"blockchain/contracts/Polygon/Pool/Prototype/pool/authenticator.sol\":219:229  msg.sender */\n      caller\n        /* \"blockchain/contracts/Polygon/Pool/Prototype/pool/authenticator.sol\":219:238  msg.sender == admin */\n      eq\n        /* \"blockchain/contracts/Polygon/Pool/Prototype/pool/authenticator.sol\":210:240  require( msg.sender == admin ) */\n      tag_70\n      jumpi\n      0x00\n      dup1\n      revert\n    tag_70:\n      pop\n      sub(shl(0xa0, 0x01), 0x01)\n        /* \"blockchain/contracts/Polygon/Pool/Prototype/pool/state.sol\":3555:3574  persona[ _address ] */\n      swap2\n      swap1\n      swap2\n      and\n      0x00\n      swap1\n      dup2\n      mstore\n        /* \"blockchain/contracts/Polygon/Pool/Prototype/pool/state.sol\":3555:3562  persona */\n      0x06\n        /* \"blockchain/contracts/Polygon/Pool/Prototype/pool/state.sol\":3555:3574  persona[ _address ] */\n      0x20\n      mstore\n      0x40\n      swap1\n      keccak256\n        /* \"blockchain/contracts/Polygon/Pool/Prototype/pool/state.sol\":3555:3581  persona[ _address ] = _new */\n      swap1\n      mload\n      dup2\n      sload\n      not(0xff)\n      and\n      swap1\n      iszero\n      iszero\n      or\n      swap1\n      sstore\n      0x01\n      swap1\n        /* \"blockchain/contracts/Polygon/Pool/Prototype/pool/state.sol\":3444:3611  function set_persona_of( address _address, Persona memory _new ) public only_admin returns ( bool ) {... */\n      jump\t// out\n        /* \"blockchain/contracts/Polygon/Pool/Prototype/pool/state.sol\":3617:3737  function view_funding( uint256 _id ) public view returns ( Funding memory ) {... */\n    tag_42:\n        /* \"blockchain/contracts/Polygon/Pool/Prototype/pool/state.sol\":3676:3690  Funding memory */\n      tag_72\n      mload(0x40)\n      dup1\n      0xa0\n      add\n      0x40\n      mstore\n      dup1\n      0x00\n      dup2\n      mstore\n      0x20\n      add\n      0x00\n      dup2\n      mstore\n      0x20\n      add\n      0x00\n      dup2\n      mstore\n      0x20\n      add\n      iszero(iszero(0x00))\n      dup2\n      mstore\n      0x20\n      add\n      iszero(iszero(0x00))\n      dup2\n      mstore\n      pop\n      swap1\n      jump\n    tag_72:\n      pop\n        /* \"blockchain/contracts/Polygon/Pool/Prototype/pool/state.sol\":3713:3727  funding[ _id ] */\n      0x00\n      swap1\n      dup2\n      mstore\n        /* \"blockchain/contracts/Polygon/Pool/Prototype/pool/state.sol\":3713:3720  funding */\n      0x07\n        /* \"blockchain/contracts/Polygon/Pool/Prototype/pool/state.sol\":3713:3727  funding[ _id ] */\n      0x20\n      swap1\n      dup2\n      mstore\n      0x40\n      swap2\n      dup3\n      swap1\n      keccak256\n        /* \"blockchain/contracts/Polygon/Pool/Prototype/pool/state.sol\":3704:3729  return ( funding[ _id ] ) */\n      dup3\n      mload\n      0xa0\n      dup2\n      add\n      dup5\n      mstore\n      dup2\n      sload\n      dup2\n      mstore\n      0x01\n      dup3\n      add\n      sload\n      swap3\n      dup2\n      add\n      swap3\n      swap1\n      swap3\n      mstore\n      0x02\n      dup2\n      add\n      sload\n      swap3\n      dup3\n      add\n      swap3\n      swap1\n      swap3\n      mstore\n      0x03\n      swap1\n      swap2\n      add\n      sload\n      0xff\n      dup1\n      dup3\n      and\n      iszero\n      iszero\n      0x60\n      dup5\n      add\n      mstore\n      0x0100\n      swap1\n      swap2\n      div\n      and\n      iszero\n      iszero\n      0x80\n      dup3\n      add\n      mstore\n      swap1\n        /* \"blockchain/contracts/Polygon/Pool/Prototype/pool/state.sol\":3617:3737  function view_funding( uint256 _id ) public view returns ( Funding memory ) {... */\n      jump\t// out\n        /* \"blockchain/contracts/Polygon/Pool/Prototype/pool/state.sol\":3743:3958  function set_funding( uint256 _id, Funding memory _new ) public only_admin returns ( bool ) {... */\n    tag_49:\n        /* \"blockchain/contracts/Polygon/Pool/Prototype/pool/state.sol\":3828:3832  bool */\n      0x00\n        /* \"blockchain/contracts/Polygon/Pool/Prototype/pool/authenticator.sol\":233:238  admin */\n      dup1\n      sload\n      0x0100\n      swap1\n      div\n      sub(shl(0xa0, 0x01), 0x01)\n      and\n        /* \"blockchain/contracts/Polygon/Pool/Prototype/pool/authenticator.sol\":219:229  msg.sender */\n      caller\n        /* \"blockchain/contracts/Polygon/Pool/Prototype/pool/authenticator.sol\":219:238  msg.sender == admin */\n      eq\n        /* \"blockchain/contracts/Polygon/Pool/Prototype/pool/authenticator.sol\":210:240  require( msg.sender == admin ) */\n      tag_76\n      jumpi\n      0x00\n      dup1\n      revert\n    tag_76:\n        /* \"blockchain/contracts/Polygon/Pool/Prototype/pool/state.sol\":3855:3869  funding[ _id ] */\n      0x00\n      dup4\n      dup2\n      mstore\n        /* \"blockchain/contracts/Polygon/Pool/Prototype/pool/state.sol\":3855:3862  funding */\n      0x07\n        /* \"blockchain/contracts/Polygon/Pool/Prototype/pool/state.sol\":3855:3869  funding[ _id ] */\n      0x20\n      mstore\n      0x40\n      swap1\n      keccak256\n        /* \"blockchain/contracts/Polygon/Pool/Prototype/pool/state.sol\":3855:3875  funding[ _id ].start */\n      sload\n        /* \"blockchain/contracts/Polygon/Pool/Prototype/pool/state.sol\":3879:3894  block.timestamp */\n      timestamp\n      gt\n        /* \"blockchain/contracts/Polygon/Pool/Prototype/pool/state.sol\":3855:3894  funding[ _id ].start >= block.timestamp */\n      iszero\n        /* \"blockchain/contracts/Polygon/Pool/Prototype/pool/state.sol\":3846:3896  require( funding[ _id ].start >= block.timestamp ) */\n      tag_78\n      jumpi\n      0x00\n      dup1\n      revert\n    tag_78:\n      pop\n        /* \"blockchain/contracts/Polygon/Pool/Prototype/pool/state.sol\":3907:3921  funding[ _id ] */\n      0x00\n      dup3\n      dup2\n      mstore\n        /* \"blockchain/contracts/Polygon/Pool/Prototype/pool/state.sol\":3907:3914  funding */\n      0x07\n        /* \"blockchain/contracts/Polygon/Pool/Prototype/pool/state.sol\":3907:3921  funding[ _id ] */\n      0x20\n      swap1\n      dup2\n      mstore\n      0x40\n      swap2\n      dup3\n      swap1\n      keccak256\n        /* \"blockchain/contracts/Polygon/Pool/Prototype/pool/state.sol\":3907:3928  funding[ _id ] = _new */\n      dup4\n      mload\n      dup2\n      sstore\n      swap1\n      dup4\n      add\n      mload\n      0x01\n      dup1\n      dup4\n      add\n      swap2\n      swap1\n      swap2\n      sstore\n      swap2\n      dup4\n      add\n      mload\n      0x02\n      dup3\n      add\n      sstore\n      0x60\n      dup4\n      add\n      mload\n      0x03\n      swap1\n      swap2\n      add\n      dup1\n      sload\n      0x80\n      dup6\n      add\n      mload\n      iszero\n      iszero\n      0x0100\n      mul\n      not(0xff00)\n      swap4\n      iszero\n      iszero\n      swap4\n      swap1\n      swap4\n      and\n      not(0xffff)\n      swap1\n      swap2\n      and\n      or\n      swap2\n      swap1\n      swap2\n      or\n      swap1\n      sstore\n        /* \"blockchain/contracts/Polygon/Pool/Prototype/pool/state.sol\":3743:3958  function set_funding( uint256 _id, Funding memory _new ) public only_admin returns ( bool ) {... */\n      swap3\n      swap2\n      pop\n      pop\n      jump\t// out\n        /* \"#utility.yul\":293:466   */\n    tag_79:\n        /* \"#utility.yul\":361:381   */\n      dup1\n      calldataload\n      sub(shl(0xa0, 0x01), 0x01)\n        /* \"#utility.yul\":410:441   */\n      dup2\n      and\n        /* \"#utility.yul\":400:442   */\n      dup2\n      eq\n        /* \"#utility.yul\":390:460   */\n      tag_84\n      jumpi\n        /* \"#utility.yul\":456:457   */\n      0x00\n        /* \"#utility.yul\":453:454   */\n      dup1\n        /* \"#utility.yul\":446:458   */\n      revert\n        /* \"#utility.yul\":390:460   */\n    tag_84:\n        /* \"#utility.yul\":293:466   */\n      swap2\n      swap1\n      pop\n      jump\t// out\n        /* \"#utility.yul\":471:657   */\n    tag_18:\n        /* \"#utility.yul\":530:536   */\n      0x00\n        /* \"#utility.yul\":583:585   */\n      0x20\n        /* \"#utility.yul\":571:580   */\n      dup3\n        /* \"#utility.yul\":562:569   */\n      dup5\n        /* \"#utility.yul\":558:581   */\n      sub\n        /* \"#utility.yul\":554:586   */\n      slt\n        /* \"#utility.yul\":551:603   */\n      iszero\n      tag_86\n      jumpi\n        /* \"#utility.yul\":599:600   */\n      0x00\n        /* \"#utility.yul\":596:597   */\n      dup1\n        /* \"#utility.yul\":589:601   */\n      revert\n        /* \"#utility.yul\":551:603   */\n    tag_86:\n        /* \"#utility.yul\":622:651   */\n      tag_87\n        /* \"#utility.yul\":641:650   */\n      dup3\n        /* \"#utility.yul\":622:651   */\n      tag_79\n      jump\t// in\n    tag_87:\n        /* \"#utility.yul\":612:651   */\n      swap4\n        /* \"#utility.yul\":471:657   */\n      swap3\n      pop\n      pop\n      pop\n      jump\t// out\n        /* \"#utility.yul\":915:1169   */\n    tag_25:\n        /* \"#utility.yul\":983:989   */\n      0x00\n        /* \"#utility.yul\":991:997   */\n      dup1\n        /* \"#utility.yul\":1044:1046   */\n      0x40\n        /* \"#utility.yul\":1032:1041   */\n      dup4\n        /* \"#utility.yul\":1023:1030   */\n      dup6\n        /* \"#utility.yul\":1019:1042   */\n      sub\n        /* \"#utility.yul\":1015:1047   */\n      slt\n        /* \"#utility.yul\":1012:1064   */\n      iszero\n      tag_90\n      jumpi\n        /* \"#utility.yul\":1060:1061   */\n      0x00\n        /* \"#utility.yul\":1057:1058   */\n      dup1\n        /* \"#utility.yul\":1050:1062   */\n      revert\n        /* \"#utility.yul\":1012:1064   */\n    tag_90:\n        /* \"#utility.yul\":1083:1112   */\n      tag_91\n        /* \"#utility.yul\":1102:1111   */\n      dup4\n        /* \"#utility.yul\":1083:1112   */\n      tag_79\n      jump\t// in\n    tag_91:\n        /* \"#utility.yul\":1073:1112   */\n      swap5\n        /* \"#utility.yul\":1159:1161   */\n      0x20\n        /* \"#utility.yul\":1144:1162   */\n      swap4\n      swap1\n      swap4\n      add\n        /* \"#utility.yul\":1131:1163   */\n      calldataload\n      swap4\n      pop\n      pop\n      pop\n        /* \"#utility.yul\":915:1169   */\n      jump\t// out\n        /* \"#utility.yul\":1174:1354   */\n    tag_30:\n        /* \"#utility.yul\":1233:1239   */\n      0x00\n        /* \"#utility.yul\":1286:1288   */\n      0x20\n        /* \"#utility.yul\":1274:1283   */\n      dup3\n        /* \"#utility.yul\":1265:1272   */\n      dup5\n        /* \"#utility.yul\":1261:1284   */\n      sub\n        /* \"#utility.yul\":1257:1289   */\n      slt\n        /* \"#utility.yul\":1254:1306   */\n      iszero\n      tag_93\n      jumpi\n        /* \"#utility.yul\":1302:1303   */\n      0x00\n        /* \"#utility.yul\":1299:1300   */\n      dup1\n        /* \"#utility.yul\":1292:1304   */\n      revert\n        /* \"#utility.yul\":1254:1306   */\n    tag_93:\n      pop\n        /* \"#utility.yul\":1325:1348   */\n      calldataload\n      swap2\n        /* \"#utility.yul\":1174:1354   */\n      swap1\n      pop\n      jump\t// out\n        /* \"#utility.yul\":1359:1477   */\n    tag_80:\n        /* \"#utility.yul\":1445:1450   */\n      dup1\n        /* \"#utility.yul\":1438:1451   */\n      iszero\n        /* \"#utility.yul\":1431:1452   */\n      iszero\n        /* \"#utility.yul\":1424:1429   */\n      dup2\n        /* \"#utility.yul\":1421:1453   */\n      eq\n        /* \"#utility.yul\":1411:1471   */\n      tag_95\n      jumpi\n        /* \"#utility.yul\":1467:1468   */\n      0x00\n        /* \"#utility.yul\":1464:1465   */\n      dup1\n        /* \"#utility.yul\":1457:1469   */\n      revert\n        /* \"#utility.yul\":1411:1471   */\n    tag_95:\n        /* \"#utility.yul\":1359:1477   */\n      pop\n      jump\t// out\n        /* \"#utility.yul\":1482:2229   */\n    tag_35:\n        /* \"#utility.yul\":1574:1580   */\n      0x00\n        /* \"#utility.yul\":1582:1588   */\n      dup1\n        /* \"#utility.yul\":1626:1635   */\n      dup3\n        /* \"#utility.yul\":1617:1624   */\n      dup5\n        /* \"#utility.yul\":1613:1636   */\n      sub\n        /* \"#utility.yul\":1656:1658   */\n      0x40\n        /* \"#utility.yul\":1652:1654   */\n      dup2\n        /* \"#utility.yul\":1648:1659   */\n      slt\n        /* \"#utility.yul\":1645:1676   */\n      iszero\n      tag_97\n      jumpi\n        /* \"#utility.yul\":1672:1673   */\n      0x00\n        /* \"#utility.yul\":1669:1670   */\n      dup1\n        /* \"#utility.yul\":1662:1674   */\n      revert\n        /* \"#utility.yul\":1645:1676   */\n    tag_97:\n        /* \"#utility.yul\":1695:1724   */\n      tag_98\n        /* \"#utility.yul\":1714:1723   */\n      dup5\n        /* \"#utility.yul\":1695:1724   */\n      tag_79\n      jump\t// in\n    tag_98:\n        /* \"#utility.yul\":1685:1724   */\n      swap3\n      pop\n        /* \"#utility.yul\":1758:1760   */\n      0x20\n      not(0x1f)\n        /* \"#utility.yul\":1740:1756   */\n      dup3\n      add\n        /* \"#utility.yul\":1736:1761   */\n      slt\n        /* \"#utility.yul\":1733:1778   */\n      iszero\n      tag_99\n      jumpi\n        /* \"#utility.yul\":1774:1775   */\n      0x00\n        /* \"#utility.yul\":1771:1772   */\n      dup1\n        /* \"#utility.yul\":1764:1776   */\n      revert\n        /* \"#utility.yul\":1733:1778   */\n    tag_99:\n      pop\n        /* \"#utility.yul\":1807:1809   */\n      0x40\n        /* \"#utility.yul\":1801:1810   */\n      mload\n        /* \"#utility.yul\":1849:1851   */\n      0x20\n        /* \"#utility.yul\":1841:1847   */\n      dup2\n        /* \"#utility.yul\":1837:1852   */\n      add\n        /* \"#utility.yul\":1918:1924   */\n      dup2\n        /* \"#utility.yul\":1906:1916   */\n      dup2\n        /* \"#utility.yul\":1903:1925   */\n      lt\n        /* \"#utility.yul\":1882:1900   */\n      0xffffffffffffffff\n        /* \"#utility.yul\":1870:1880   */\n      dup3\n        /* \"#utility.yul\":1867:1901   */\n      gt\n        /* \"#utility.yul\":1864:1926   */\n      or\n        /* \"#utility.yul\":1861:2046   */\n      iszero\n      tag_100\n      jumpi\n        /* \"#utility.yul\":1968:1978   */\n      0x4e487b71\n        /* \"#utility.yul\":1963:1966   */\n      0xe0\n        /* \"#utility.yul\":1959:1979   */\n      shl\n        /* \"#utility.yul\":1956:1957   */\n      0x00\n        /* \"#utility.yul\":1949:1980   */\n      mstore\n        /* \"#utility.yul\":2003:2007   */\n      0x41\n        /* \"#utility.yul\":2000:2001   */\n      0x04\n        /* \"#utility.yul\":1993:2008   */\n      mstore\n        /* \"#utility.yul\":2031:2035   */\n      0x24\n        /* \"#utility.yul\":2028:2029   */\n      0x00\n        /* \"#utility.yul\":2021:2036   */\n      revert\n        /* \"#utility.yul\":1861:2046   */\n    tag_100:\n        /* \"#utility.yul\":2062:2064   */\n      0x40\n        /* \"#utility.yul\":2055:2077   */\n      mstore\n        /* \"#utility.yul\":2127:2129   */\n      0x20\n        /* \"#utility.yul\":2112:2130   */\n      dup5\n      add\n        /* \"#utility.yul\":2099:2131   */\n      calldataload\n        /* \"#utility.yul\":2140:2168   */\n      tag_101\n        /* \"#utility.yul\":2099:2131   */\n      dup2\n        /* \"#utility.yul\":2140:2168   */\n      tag_80\n      jump\t// in\n    tag_101:\n        /* \"#utility.yul\":2177:2198   */\n      dup2\n      mstore\n        /* \"#utility.yul\":1482:2229   */\n      swap2\n      swap5\n        /* \"#utility.yul\":2184:2190   */\n      swap2\n      swap4\n      pop\n        /* \"#utility.yul\":1482:2229   */\n      swap1\n      swap2\n      pop\n      pop\n      jump\t// out\n        /* \"#utility.yul\":2948:4032   */\n    tag_48:\n        /* \"#utility.yul\":3040:3046   */\n      0x00\n        /* \"#utility.yul\":3048:3054   */\n      dup1\n        /* \"#utility.yul\":3092:3101   */\n      dup3\n        /* \"#utility.yul\":3083:3090   */\n      dup5\n        /* \"#utility.yul\":3079:3102   */\n      sub\n        /* \"#utility.yul\":3122:3125   */\n      0xc0\n        /* \"#utility.yul\":3118:3120   */\n      dup2\n        /* \"#utility.yul\":3114:3126   */\n      slt\n        /* \"#utility.yul\":3111:3143   */\n      iszero\n      tag_105\n      jumpi\n        /* \"#utility.yul\":3139:3140   */\n      0x00\n        /* \"#utility.yul\":3136:3137   */\n      dup1\n        /* \"#utility.yul\":3129:3141   */\n      revert\n        /* \"#utility.yul\":3111:3143   */\n    tag_105:\n        /* \"#utility.yul\":3162:3185   */\n      dup4\n      calldataload\n      swap3\n      pop\n        /* \"#utility.yul\":3219:3223   */\n      0xa0\n      not(0x1f)\n        /* \"#utility.yul\":3201:3217   */\n      dup3\n      add\n        /* \"#utility.yul\":3197:3224   */\n      slt\n        /* \"#utility.yul\":3194:3241   */\n      iszero\n      tag_106\n      jumpi\n        /* \"#utility.yul\":3237:3238   */\n      0x00\n        /* \"#utility.yul\":3234:3235   */\n      dup1\n        /* \"#utility.yul\":3227:3239   */\n      revert\n        /* \"#utility.yul\":3194:3241   */\n    tag_106:\n      pop\n        /* \"#utility.yul\":3270:3272   */\n      0x40\n        /* \"#utility.yul\":3264:3273   */\n      mload\n        /* \"#utility.yul\":3312:3316   */\n      0xa0\n        /* \"#utility.yul\":3304:3310   */\n      dup2\n        /* \"#utility.yul\":3300:3317   */\n      add\n        /* \"#utility.yul\":3383:3389   */\n      dup2\n        /* \"#utility.yul\":3371:3381   */\n      dup2\n        /* \"#utility.yul\":3368:3390   */\n      lt\n        /* \"#utility.yul\":3347:3365   */\n      0xffffffffffffffff\n        /* \"#utility.yul\":3335:3345   */\n      dup3\n        /* \"#utility.yul\":3332:3366   */\n      gt\n        /* \"#utility.yul\":3329:3391   */\n      or\n        /* \"#utility.yul\":3326:3511   */\n      iszero\n      tag_107\n      jumpi\n        /* \"#utility.yul\":3433:3443   */\n      0x4e487b71\n        /* \"#utility.yul\":3428:3431   */\n      0xe0\n        /* \"#utility.yul\":3424:3444   */\n      shl\n        /* \"#utility.yul\":3421:3422   */\n      0x00\n        /* \"#utility.yul\":3414:3445   */\n      mstore\n        /* \"#utility.yul\":3468:3472   */\n      0x41\n        /* \"#utility.yul\":3465:3466   */\n      0x04\n        /* \"#utility.yul\":3458:3473   */\n      mstore\n        /* \"#utility.yul\":3496:3500   */\n      0x24\n        /* \"#utility.yul\":3493:3494   */\n      0x00\n        /* \"#utility.yul\":3486:3501   */\n      revert\n        /* \"#utility.yul\":3326:3511   */\n    tag_107:\n        /* \"#utility.yul\":3531:3541   */\n      dup1\n        /* \"#utility.yul\":3527:3529   */\n      0x40\n        /* \"#utility.yul\":3520:3542   */\n      mstore\n      pop\n        /* \"#utility.yul\":3594:3596   */\n      0x20\n        /* \"#utility.yul\":3583:3592   */\n      dup5\n        /* \"#utility.yul\":3579:3597   */\n      add\n        /* \"#utility.yul\":3566:3598   */\n      calldataload\n        /* \"#utility.yul\":3558:3564   */\n      dup2\n        /* \"#utility.yul\":3551:3599   */\n      mstore\n        /* \"#utility.yul\":3660:3662   */\n      0x40\n        /* \"#utility.yul\":3649:3658   */\n      dup5\n        /* \"#utility.yul\":3645:3663   */\n      add\n        /* \"#utility.yul\":3632:3664   */\n      calldataload\n        /* \"#utility.yul\":3627:3629   */\n      0x20\n        /* \"#utility.yul\":3619:3625   */\n      dup3\n        /* \"#utility.yul\":3615:3630   */\n      add\n        /* \"#utility.yul\":3608:3665   */\n      mstore\n        /* \"#utility.yul\":3726:3728   */\n      0x60\n        /* \"#utility.yul\":3715:3724   */\n      dup5\n        /* \"#utility.yul\":3711:3729   */\n      add\n        /* \"#utility.yul\":3698:3730   */\n      calldataload\n        /* \"#utility.yul\":3693:3695   */\n      0x40\n        /* \"#utility.yul\":3685:3691   */\n      dup3\n        /* \"#utility.yul\":3681:3696   */\n      add\n        /* \"#utility.yul\":3674:3731   */\n      mstore\n        /* \"#utility.yul\":3781:3784   */\n      0x80\n        /* \"#utility.yul\":3770:3779   */\n      dup5\n        /* \"#utility.yul\":3766:3785   */\n      add\n        /* \"#utility.yul\":3753:3786   */\n      calldataload\n        /* \"#utility.yul\":3795:3823   */\n      tag_108\n        /* \"#utility.yul\":3817:3822   */\n      dup2\n        /* \"#utility.yul\":3795:3823   */\n      tag_80\n      jump\t// in\n    tag_108:\n        /* \"#utility.yul\":3851:3853   */\n      0x60\n        /* \"#utility.yul\":3839:3854   */\n      dup3\n      add\n        /* \"#utility.yul\":3832:3862   */\n      mstore\n        /* \"#utility.yul\":3914:3918   */\n      0xa0\n        /* \"#utility.yul\":3899:3919   */\n      dup5\n      add\n        /* \"#utility.yul\":3886:3920   */\n      calldataload\n        /* \"#utility.yul\":3929:3959   */\n      tag_109\n        /* \"#utility.yul\":3886:3920   */\n      dup2\n        /* \"#utility.yul\":3929:3959   */\n      tag_80\n      jump\t// in\n    tag_109:\n        /* \"#utility.yul\":3987:3990   */\n      0x80\n        /* \"#utility.yul\":3975:3991   */\n      dup3\n      add\n        /* \"#utility.yul\":3968:4001   */\n      mstore\n        /* \"#utility.yul\":2948:4032   */\n      swap2\n      swap5\n        /* \"#utility.yul\":3979:3985   */\n      swap2\n      swap4\n      pop\n        /* \"#utility.yul\":2948:4032   */\n      swap1\n      swap2\n      pop\n      pop\n      jump\t// out\n        /* \"#utility.yul\":4324:4569   */\n    tag_62:\n        /* \"#utility.yul\":4391:4397   */\n      0x00\n        /* \"#utility.yul\":4444:4446   */\n      0x20\n        /* \"#utility.yul\":4432:4441   */\n      dup3\n        /* \"#utility.yul\":4423:4430   */\n      dup5\n        /* \"#utility.yul\":4419:4442   */\n      sub\n        /* \"#utility.yul\":4415:4447   */\n      slt\n        /* \"#utility.yul\":4412:4464   */\n      iszero\n      tag_112\n      jumpi\n        /* \"#utility.yul\":4460:4461   */\n      0x00\n        /* \"#utility.yul\":4457:4458   */\n      dup1\n        /* \"#utility.yul\":4450:4462   */\n      revert\n        /* \"#utility.yul\":4412:4464   */\n    tag_112:\n        /* \"#utility.yul\":4492:4501   */\n      dup2\n        /* \"#utility.yul\":4486:4502   */\n      mload\n        /* \"#utility.yul\":4511:4539   */\n      tag_87\n        /* \"#utility.yul\":4533:4538   */\n      dup2\n        /* \"#utility.yul\":4511:4539   */\n      tag_80\n      jump\t// in\n\n    auxdata: 0xa26469706673582212201603d0dc89f1bd849e33733d0727e4b4c00dbd2776e4f310e7e5c7154fc420e064736f6c63430008120033\n}\n",
				"bytecode": {
					"linkReferences": {},
					"object": "60806040523480156200001157600080fd5b5060405162000d4138038062000d41833981016040819052620000349162000350565b600062000042858562000418565b905062093a8062530e80818510156200005a57600080fd5b808310156200006857600080fd5b6040805160a081018252888152602080820189815292820188815287151560608401908152600060808501818152818052600790945293517f6d5257204ebe7d88fd91ae87941cb2dd9d8062b64ae5a2bd2d28ec40b9fbf6df5593517f6d5257204ebe7d88fd91ae87941cb2dd9d8062b64ae5a2bd2d28ec40b9fbf6e055517f6d5257204ebe7d88fd91ae87941cb2dd9d8062b64ae5a2bd2d28ec40b9fbf6e155915160008051602062000d218339815191528054935115156101000261ff00199215159290921661ffff1990941693909317179091558590036200016e5760008052600760205260008051602062000d21833981519152805461ff0019166101001790555b6001600160a01b038b166200018257600080fd5b6001600160a01b038a166200019657600080fd5b60008054610100600160a81b0319166101006001600160a01b038e81169190910291909117909155600180546001600160a01b031916918c169190911790556003620001e38a82620004cf565b506004620001f28982620004cf565b5042600581905550896001600160a01b03168b6001600160a01b03167fa9791d0b29cae9f1171eeb4160f282930ca6a1ee4f5d2760fdb5bee857b6057e8b8b6005548c8c8c8c6040516200024d9796959493929190620005c9565b60405180910390a350505050505050505050506200061f565b80516001600160a01b03811681146200027e57600080fd5b919050565b634e487b7160e01b600052604160045260246000fd5b60005b83811015620002b65781810151838201526020016200029c565b50506000910152565b600082601f830112620002d157600080fd5b81516001600160401b0380821115620002ee57620002ee62000283565b604051601f8301601f19908116603f0116810190828211818310171562000319576200031962000283565b816040528381528660208588010111156200033357600080fd5b6200034684602083016020890162000299565b9695505050505050565b600080600080600080600080610100898b0312156200036e57600080fd5b620003798962000266565b97506200038960208a0162000266565b60408a01519097506001600160401b0380821115620003a757600080fd5b620003b58c838d01620002bf565b975060608b0151915080821115620003cc57600080fd5b50620003db8b828c01620002bf565b9550506080890151935060a0890151925060c0890151915060e089015180151581146200040757600080fd5b809150509295985092959890939650565b818103818111156200043a57634e487b7160e01b600052601160045260246000fd5b92915050565b600181811c908216806200045557607f821691505b6020821081036200047657634e487b7160e01b600052602260045260246000fd5b50919050565b601f821115620004ca57600081815260208120601f850160051c81016020861015620004a55750805b601f850160051c820191505b81811015620004c657828155600101620004b1565b5050505b505050565b81516001600160401b03811115620004eb57620004eb62000283565b6200050381620004fc845462000440565b846200047c565b602080601f8311600181146200053b5760008415620005225750858301515b600019600386901b1c1916600185901b178555620004c6565b600085815260208120601f198616915b828110156200056c578886015182559484019460019091019084016200054b565b50858210156200058b5787850151600019600388901b60f8161c191681555b5050505050600190811b01905550565b60008151808452620005b581602086016020860162000299565b601f01601f19169290920160200192915050565b60e081526000620005de60e083018a6200059b565b8281036020840152620005f2818a6200059b565b604084019890985250506060810194909452608084019290925260a0830152151560c09091015292915050565b6106f2806200062f6000396000f3fe6080604052600436106100595760003560e01c80630923fe94146100c057806324a5af311461012a5780632e1a7d4d1461014c57806390b410af1461016c578063b97611011461019c578063dd12776a1461020257600080fd5b366100bb5760005461010090046001600160a01b0316331461007a57600080fd5b60408051338082523460208301819052909290917fe1fffcc4923d04b559f4d29a8bfc6cda04eb5b0d3c460751c2402c5c5cc9109c910160405180910390a1005b600080fd5b3480156100cc57600080fd5b506101146100db3660046104fb565b60408051602080820183526000918290526001600160a01b039390931681526006835281902081519283019091525460ff161515815290565b6040519051151581526020015b60405180910390f35b34801561013657600080fd5b5061014a61014536600461051d565b610222565b005b34801561015857600080fd5b5061014a610167366004610547565b6102c6565b34801561017857600080fd5b5061018c610187366004610571565b610369565b6040519015158152602001610121565b3480156101a857600080fd5b506101bc6101b7366004610547565b6103b4565b6040516101219190600060a08201905082518252602083015160208301526040830151604083015260608301511515606083015260808301511515608083015292915050565b34801561020e57600080fd5b5061018c61021d3660046105f2565b610444565b60005461010090046001600160a01b0316331461023e57600080fd5b60005460405163a9059cbb60e01b81526101009091046001600160a01b03908116600483018190526024830184905291849182169063a9059cbb906044016020604051808303816000875af115801561029b573d6000803e3d6000fd5b505050506040513d601f19601f820116820180604052508101906102bf919061069f565b5050505050565b60005461010090046001600160a01b031633146102e257600080fd5b600080546040516101009091046001600160a01b03169182916108fc85150291859190818181858888f19350505050158015610322573d6000803e3d6000fd5b50604080516001600160a01b0383168152602081018490527f884edad9ce6fa2440d8a54cc123490eb96d2768479d49ff9c7366125a9424364910160405180910390a15050565b6000805461010090046001600160a01b0316331461038657600080fd5b506001600160a01b039190911660009081526006602052604090209051815460ff1916901515179055600190565b6103ea6040518060a001604052806000815260200160008152602001600081526020016000151581526020016000151581525090565b50600090815260076020908152604091829020825160a0810184528154815260018201549281019290925260028101549282019290925260039091015460ff80821615156060840152610100909104161515608082015290565b6000805461010090046001600160a01b0316331461046157600080fd5b60008381526007602052604090205442111561047c57600080fd5b506000828152600760209081526040918290208351815590830151600180830191909155918301516002820155606083015160039091018054608085015115156101000261ff00199315159390931661ffff199091161791909117905592915050565b80356001600160a01b03811681146104f657600080fd5b919050565b60006020828403121561050d57600080fd5b610516826104df565b9392505050565b6000806040838503121561053057600080fd5b610539836104df565b946020939093013593505050565b60006020828403121561055957600080fd5b5035919050565b801515811461056e57600080fd5b50565b600080828403604081121561058557600080fd5b61058e846104df565b92506020601f19820112156105a257600080fd5b506040516020810181811067ffffffffffffffff821117156105d457634e487b7160e01b600052604160045260246000fd5b60405260208401356105e581610560565b8152919491935090915050565b60008082840360c081121561060657600080fd5b8335925060a0601f198201121561061c57600080fd5b5060405160a0810181811067ffffffffffffffff8211171561064e57634e487b7160e01b600052604160045260246000fd5b8060405250602084013581526040840135602082015260608401356040820152608084013561067c81610560565b606082015260a084013561068f81610560565b6080820152919491935090915050565b6000602082840312156106b157600080fd5b81516105168161056056fea26469706673582212201603d0dc89f1bd849e33733d0727e4b4c00dbd2776e4f310e7e5c7154fc420e064736f6c634300081200336d5257204ebe7d88fd91ae87941cb2dd9d8062b64ae5a2bd2d28ec40b9fbf6e2",
					"opcodes": "PUSH1 0x80 PUSH1 0x40 MSTORE CALLVALUE DUP1 ISZERO PUSH3 0x11 JUMPI PUSH1 0x0 DUP1 REVERT JUMPDEST POP PUSH1 0x40 MLOAD PUSH3 0xD41 CODESIZE SUB DUP1 PUSH3 0xD41 DUP4 CODECOPY DUP2 ADD PUSH1 0x40 DUP2 SWAP1 MSTORE PUSH3 0x34 SWAP2 PUSH3 0x350 JUMP JUMPDEST PUSH1 0x0 PUSH3 0x42 DUP6 DUP6 PUSH3 0x418 JUMP JUMPDEST SWAP1 POP PUSH3 0x93A80 PUSH3 0x530E80 DUP2 DUP6 LT ISZERO PUSH3 0x5A JUMPI PUSH1 0x0 DUP1 REVERT JUMPDEST DUP1 DUP4 LT ISZERO PUSH3 0x68 JUMPI PUSH1 0x0 DUP1 REVERT JUMPDEST PUSH1 0x40 DUP1 MLOAD PUSH1 0xA0 DUP2 ADD DUP3 MSTORE DUP9 DUP2 MSTORE PUSH1 0x20 DUP1 DUP3 ADD DUP10 DUP2 MSTORE SWAP3 DUP3 ADD DUP9 DUP2 MSTORE DUP8 ISZERO ISZERO PUSH1 0x60 DUP5 ADD SWAP1 DUP2 MSTORE PUSH1 0x0 PUSH1 0x80 DUP6 ADD DUP2 DUP2 MSTORE DUP2 DUP1 MSTORE PUSH1 0x7 SWAP1 SWAP5 MSTORE SWAP4 MLOAD PUSH32 0x6D5257204EBE7D88FD91AE87941CB2DD9D8062B64AE5A2BD2D28EC40B9FBF6DF SSTORE SWAP4 MLOAD PUSH32 0x6D5257204EBE7D88FD91AE87941CB2DD9D8062B64AE5A2BD2D28EC40B9FBF6E0 SSTORE MLOAD PUSH32 0x6D5257204EBE7D88FD91AE87941CB2DD9D8062B64AE5A2BD2D28EC40B9FBF6E1 SSTORE SWAP2 MLOAD PUSH1 0x0 DUP1 MLOAD PUSH1 0x20 PUSH3 0xD21 DUP4 CODECOPY DUP2 MLOAD SWAP2 MSTORE DUP1 SLOAD SWAP4 MLOAD ISZERO ISZERO PUSH2 0x100 MUL PUSH2 0xFF00 NOT SWAP3 ISZERO ISZERO SWAP3 SWAP1 SWAP3 AND PUSH2 0xFFFF NOT SWAP1 SWAP5 AND SWAP4 SWAP1 SWAP4 OR OR SWAP1 SWAP2 SSTORE DUP6 SWAP1 SUB PUSH3 0x16E JUMPI PUSH1 0x0 DUP1 MSTORE PUSH1 0x7 PUSH1 0x20 MSTORE PUSH1 0x0 DUP1 MLOAD PUSH1 0x20 PUSH3 0xD21 DUP4 CODECOPY DUP2 MLOAD SWAP2 MSTORE DUP1 SLOAD PUSH2 0xFF00 NOT AND PUSH2 0x100 OR SWAP1 SSTORE JUMPDEST PUSH1 0x1 PUSH1 0x1 PUSH1 0xA0 SHL SUB DUP12 AND PUSH3 0x182 JUMPI PUSH1 0x0 DUP1 REVERT JUMPDEST PUSH1 0x1 PUSH1 0x1 PUSH1 0xA0 SHL SUB DUP11 AND PUSH3 0x196 JUMPI PUSH1 0x0 DUP1 REVERT JUMPDEST PUSH1 0x0 DUP1 SLOAD PUSH2 0x100 PUSH1 0x1 PUSH1 0xA8 SHL SUB NOT AND PUSH2 0x100 PUSH1 0x1 PUSH1 0x1 PUSH1 0xA0 SHL SUB DUP15 DUP2 AND SWAP2 SWAP1 SWAP2 MUL SWAP2 SWAP1 SWAP2 OR SWAP1 SWAP2 SSTORE PUSH1 0x1 DUP1 SLOAD PUSH1 0x1 PUSH1 0x1 PUSH1 0xA0 SHL SUB NOT AND SWAP2 DUP13 AND SWAP2 SWAP1 SWAP2 OR SWAP1 SSTORE PUSH1 0x3 PUSH3 0x1E3 DUP11 DUP3 PUSH3 0x4CF JUMP JUMPDEST POP PUSH1 0x4 PUSH3 0x1F2 DUP10 DUP3 PUSH3 0x4CF JUMP JUMPDEST POP TIMESTAMP PUSH1 0x5 DUP2 SWAP1 SSTORE POP DUP10 PUSH1 0x1 PUSH1 0x1 PUSH1 0xA0 SHL SUB AND DUP12 PUSH1 0x1 PUSH1 0x1 PUSH1 0xA0 SHL SUB AND PUSH32 0xA9791D0B29CAE9F1171EEB4160F282930CA6A1EE4F5D2760FDB5BEE857B6057E DUP12 DUP12 PUSH1 0x5 SLOAD DUP13 DUP13 DUP13 DUP13 PUSH1 0x40 MLOAD PUSH3 0x24D SWAP8 SWAP7 SWAP6 SWAP5 SWAP4 SWAP3 SWAP2 SWAP1 PUSH3 0x5C9 JUMP JUMPDEST PUSH1 0x40 MLOAD DUP1 SWAP2 SUB SWAP1 LOG3 POP POP POP POP POP POP POP POP POP POP POP PUSH3 0x61F JUMP JUMPDEST DUP1 MLOAD PUSH1 0x1 PUSH1 0x1 PUSH1 0xA0 SHL SUB DUP2 AND DUP2 EQ PUSH3 0x27E JUMPI PUSH1 0x0 DUP1 REVERT JUMPDEST SWAP2 SWAP1 POP JUMP JUMPDEST PUSH4 0x4E487B71 PUSH1 0xE0 SHL PUSH1 0x0 MSTORE PUSH1 0x41 PUSH1 0x4 MSTORE PUSH1 0x24 PUSH1 0x0 REVERT JUMPDEST PUSH1 0x0 JUMPDEST DUP4 DUP2 LT ISZERO PUSH3 0x2B6 JUMPI DUP2 DUP2 ADD MLOAD DUP4 DUP3 ADD MSTORE PUSH1 0x20 ADD PUSH3 0x29C JUMP JUMPDEST POP POP PUSH1 0x0 SWAP2 ADD MSTORE JUMP JUMPDEST PUSH1 0x0 DUP3 PUSH1 0x1F DUP4 ADD SLT PUSH3 0x2D1 JUMPI PUSH1 0x0 DUP1 REVERT JUMPDEST DUP2 MLOAD PUSH1 0x1 PUSH1 0x1 PUSH1 0x40 SHL SUB DUP1 DUP3 GT ISZERO PUSH3 0x2EE JUMPI PUSH3 0x2EE PUSH3 0x283 JUMP JUMPDEST PUSH1 0x40 MLOAD PUSH1 0x1F DUP4 ADD PUSH1 0x1F NOT SWAP1 DUP2 AND PUSH1 0x3F ADD AND DUP2 ADD SWAP1 DUP3 DUP3 GT DUP2 DUP4 LT OR ISZERO PUSH3 0x319 JUMPI PUSH3 0x319 PUSH3 0x283 JUMP JUMPDEST DUP2 PUSH1 0x40 MSTORE DUP4 DUP2 MSTORE DUP7 PUSH1 0x20 DUP6 DUP9 ADD ADD GT ISZERO PUSH3 0x333 JUMPI PUSH1 0x0 DUP1 REVERT JUMPDEST PUSH3 0x346 DUP5 PUSH1 0x20 DUP4 ADD PUSH1 0x20 DUP10 ADD PUSH3 0x299 JUMP JUMPDEST SWAP7 SWAP6 POP POP POP POP POP POP JUMP JUMPDEST PUSH1 0x0 DUP1 PUSH1 0x0 DUP1 PUSH1 0x0 DUP1 PUSH1 0x0 DUP1 PUSH2 0x100 DUP10 DUP12 SUB SLT ISZERO PUSH3 0x36E JUMPI PUSH1 0x0 DUP1 REVERT JUMPDEST PUSH3 0x379 DUP10 PUSH3 0x266 JUMP JUMPDEST SWAP8 POP PUSH3 0x389 PUSH1 0x20 DUP11 ADD PUSH3 0x266 JUMP JUMPDEST PUSH1 0x40 DUP11 ADD MLOAD SWAP1 SWAP8 POP PUSH1 0x1 PUSH1 0x1 PUSH1 0x40 SHL SUB DUP1 DUP3 GT ISZERO PUSH3 0x3A7 JUMPI PUSH1 0x0 DUP1 REVERT JUMPDEST PUSH3 0x3B5 DUP13 DUP4 DUP14 ADD PUSH3 0x2BF JUMP JUMPDEST SWAP8 POP PUSH1 0x60 DUP12 ADD MLOAD SWAP2 POP DUP1 DUP3 GT ISZERO PUSH3 0x3CC JUMPI PUSH1 0x0 DUP1 REVERT JUMPDEST POP PUSH3 0x3DB DUP12 DUP3 DUP13 ADD PUSH3 0x2BF JUMP JUMPDEST SWAP6 POP POP PUSH1 0x80 DUP10 ADD MLOAD SWAP4 POP PUSH1 0xA0 DUP10 ADD MLOAD SWAP3 POP PUSH1 0xC0 DUP10 ADD MLOAD SWAP2 POP PUSH1 0xE0 DUP10 ADD MLOAD DUP1 ISZERO ISZERO DUP2 EQ PUSH3 0x407 JUMPI PUSH1 0x0 DUP1 REVERT JUMPDEST DUP1 SWAP2 POP POP SWAP3 SWAP6 SWAP9 POP SWAP3 SWAP6 SWAP9 SWAP1 SWAP4 SWAP7 POP JUMP JUMPDEST DUP2 DUP2 SUB DUP2 DUP2 GT ISZERO PUSH3 0x43A JUMPI PUSH4 0x4E487B71 PUSH1 0xE0 SHL PUSH1 0x0 MSTORE PUSH1 0x11 PUSH1 0x4 MSTORE PUSH1 0x24 PUSH1 0x0 REVERT JUMPDEST SWAP3 SWAP2 POP POP JUMP JUMPDEST PUSH1 0x1 DUP2 DUP2 SHR SWAP1 DUP3 AND DUP1 PUSH3 0x455 JUMPI PUSH1 0x7F DUP3 AND SWAP2 POP JUMPDEST PUSH1 0x20 DUP3 LT DUP2 SUB PUSH3 0x476 JUMPI PUSH4 0x4E487B71 PUSH1 0xE0 SHL PUSH1 0x0 MSTORE PUSH1 0x22 PUSH1 0x4 MSTORE PUSH1 0x24 PUSH1 0x0 REVERT JUMPDEST POP SWAP2 SWAP1 POP JUMP JUMPDEST PUSH1 0x1F DUP3 GT ISZERO PUSH3 0x4CA JUMPI PUSH1 0x0 DUP2 DUP2 MSTORE PUSH1 0x20 DUP2 KECCAK256 PUSH1 0x1F DUP6 ADD PUSH1 0x5 SHR DUP2 ADD PUSH1 0x20 DUP7 LT ISZERO PUSH3 0x4A5 JUMPI POP DUP1 JUMPDEST PUSH1 0x1F DUP6 ADD PUSH1 0x5 SHR DUP3 ADD SWAP2 POP JUMPDEST DUP2 DUP2 LT ISZERO PUSH3 0x4C6 JUMPI DUP3 DUP2 SSTORE PUSH1 0x1 ADD PUSH3 0x4B1 JUMP JUMPDEST POP POP POP JUMPDEST POP POP POP JUMP JUMPDEST DUP2 MLOAD PUSH1 0x1 PUSH1 0x1 PUSH1 0x40 SHL SUB DUP2 GT ISZERO PUSH3 0x4EB JUMPI PUSH3 0x4EB PUSH3 0x283 JUMP JUMPDEST PUSH3 0x503 DUP2 PUSH3 0x4FC DUP5 SLOAD PUSH3 0x440 JUMP JUMPDEST DUP5 PUSH3 0x47C JUMP JUMPDEST PUSH1 0x20 DUP1 PUSH1 0x1F DUP4 GT PUSH1 0x1 DUP2 EQ PUSH3 0x53B JUMPI PUSH1 0x0 DUP5 ISZERO PUSH3 0x522 JUMPI POP DUP6 DUP4 ADD MLOAD JUMPDEST PUSH1 0x0 NOT PUSH1 0x3 DUP7 SWAP1 SHL SHR NOT AND PUSH1 0x1 DUP6 SWAP1 SHL OR DUP6 SSTORE PUSH3 0x4C6 JUMP JUMPDEST PUSH1 0x0 DUP6 DUP2 MSTORE PUSH1 0x20 DUP2 KECCAK256 PUSH1 0x1F NOT DUP7 AND SWAP2 JUMPDEST DUP3 DUP2 LT ISZERO PUSH3 0x56C JUMPI DUP9 DUP7 ADD MLOAD DUP3 SSTORE SWAP5 DUP5 ADD SWAP5 PUSH1 0x1 SWAP1 SWAP2 ADD SWAP1 DUP5 ADD PUSH3 0x54B JUMP JUMPDEST POP DUP6 DUP3 LT ISZERO PUSH3 0x58B JUMPI DUP8 DUP6 ADD MLOAD PUSH1 0x0 NOT PUSH1 0x3 DUP9 SWAP1 SHL PUSH1 0xF8 AND SHR NOT AND DUP2 SSTORE JUMPDEST POP POP POP POP POP PUSH1 0x1 SWAP1 DUP2 SHL ADD SWAP1 SSTORE POP JUMP JUMPDEST PUSH1 0x0 DUP2 MLOAD DUP1 DUP5 MSTORE PUSH3 0x5B5 DUP2 PUSH1 0x20 DUP7 ADD PUSH1 0x20 DUP7 ADD PUSH3 0x299 JUMP JUMPDEST PUSH1 0x1F ADD PUSH1 0x1F NOT AND SWAP3 SWAP1 SWAP3 ADD PUSH1 0x20 ADD SWAP3 SWAP2 POP POP JUMP JUMPDEST PUSH1 0xE0 DUP2 MSTORE PUSH1 0x0 PUSH3 0x5DE PUSH1 0xE0 DUP4 ADD DUP11 PUSH3 0x59B JUMP JUMPDEST DUP3 DUP2 SUB PUSH1 0x20 DUP5 ADD MSTORE PUSH3 0x5F2 DUP2 DUP11 PUSH3 0x59B JUMP JUMPDEST PUSH1 0x40 DUP5 ADD SWAP9 SWAP1 SWAP9 MSTORE POP POP PUSH1 0x60 DUP2 ADD SWAP5 SWAP1 SWAP5 MSTORE PUSH1 0x80 DUP5 ADD SWAP3 SWAP1 SWAP3 MSTORE PUSH1 0xA0 DUP4 ADD MSTORE ISZERO ISZERO PUSH1 0xC0 SWAP1 SWAP2 ADD MSTORE SWAP3 SWAP2 POP POP JUMP JUMPDEST PUSH2 0x6F2 DUP1 PUSH3 0x62F PUSH1 0x0 CODECOPY PUSH1 0x0 RETURN INVALID PUSH1 0x80 PUSH1 0x40 MSTORE PUSH1 0x4 CALLDATASIZE LT PUSH2 0x59 JUMPI PUSH1 0x0 CALLDATALOAD PUSH1 0xE0 SHR DUP1 PUSH4 0x923FE94 EQ PUSH2 0xC0 JUMPI DUP1 PUSH4 0x24A5AF31 EQ PUSH2 0x12A JUMPI DUP1 PUSH4 0x2E1A7D4D EQ PUSH2 0x14C JUMPI DUP1 PUSH4 0x90B410AF EQ PUSH2 0x16C JUMPI DUP1 PUSH4 0xB9761101 EQ PUSH2 0x19C JUMPI DUP1 PUSH4 0xDD12776A EQ PUSH2 0x202 JUMPI PUSH1 0x0 DUP1 REVERT JUMPDEST CALLDATASIZE PUSH2 0xBB JUMPI PUSH1 0x0 SLOAD PUSH2 0x100 SWAP1 DIV PUSH1 0x1 PUSH1 0x1 PUSH1 0xA0 SHL SUB AND CALLER EQ PUSH2 0x7A JUMPI PUSH1 0x0 DUP1 REVERT JUMPDEST PUSH1 0x40 DUP1 MLOAD CALLER DUP1 DUP3 MSTORE CALLVALUE PUSH1 0x20 DUP4 ADD DUP2 SWAP1 MSTORE SWAP1 SWAP3 SWAP1 SWAP2 PUSH32 0xE1FFFCC4923D04B559F4D29A8BFC6CDA04EB5B0D3C460751C2402C5C5CC9109C SWAP2 ADD PUSH1 0x40 MLOAD DUP1 SWAP2 SUB SWAP1 LOG1 STOP JUMPDEST PUSH1 0x0 DUP1 REVERT JUMPDEST CALLVALUE DUP1 ISZERO PUSH2 0xCC JUMPI PUSH1 0x0 DUP1 REVERT JUMPDEST POP PUSH2 0x114 PUSH2 0xDB CALLDATASIZE PUSH1 0x4 PUSH2 0x4FB JUMP JUMPDEST PUSH1 0x40 DUP1 MLOAD PUSH1 0x20 DUP1 DUP3 ADD DUP4 MSTORE PUSH1 0x0 SWAP2 DUP3 SWAP1 MSTORE PUSH1 0x1 PUSH1 0x1 PUSH1 0xA0 SHL SUB SWAP4 SWAP1 SWAP4 AND DUP2 MSTORE PUSH1 0x6 DUP4 MSTORE DUP2 SWAP1 KECCAK256 DUP2 MLOAD SWAP3 DUP4 ADD SWAP1 SWAP2 MSTORE SLOAD PUSH1 0xFF AND ISZERO ISZERO DUP2 MSTORE SWAP1 JUMP JUMPDEST PUSH1 0x40 MLOAD SWAP1 MLOAD ISZERO ISZERO DUP2 MSTORE PUSH1 0x20 ADD JUMPDEST PUSH1 0x40 MLOAD DUP1 SWAP2 SUB SWAP1 RETURN JUMPDEST CALLVALUE DUP1 ISZERO PUSH2 0x136 JUMPI PUSH1 0x0 DUP1 REVERT JUMPDEST POP PUSH2 0x14A PUSH2 0x145 CALLDATASIZE PUSH1 0x4 PUSH2 0x51D JUMP JUMPDEST PUSH2 0x222 JUMP JUMPDEST STOP JUMPDEST CALLVALUE DUP1 ISZERO PUSH2 0x158 JUMPI PUSH1 0x0 DUP1 REVERT JUMPDEST POP PUSH2 0x14A PUSH2 0x167 CALLDATASIZE PUSH1 0x4 PUSH2 0x547 JUMP JUMPDEST PUSH2 0x2C6 JUMP JUMPDEST CALLVALUE DUP1 ISZERO PUSH2 0x178 JUMPI PUSH1 0x0 DUP1 REVERT JUMPDEST POP PUSH2 0x18C PUSH2 0x187 CALLDATASIZE PUSH1 0x4 PUSH2 0x571 JUMP JUMPDEST PUSH2 0x369 JUMP JUMPDEST PUSH1 0x40 MLOAD SWAP1 ISZERO ISZERO DUP2 MSTORE PUSH1 0x20 ADD PUSH2 0x121 JUMP JUMPDEST CALLVALUE DUP1 ISZERO PUSH2 0x1A8 JUMPI PUSH1 0x0 DUP1 REVERT JUMPDEST POP PUSH2 0x1BC PUSH2 0x1B7 CALLDATASIZE PUSH1 0x4 PUSH2 0x547 JUMP JUMPDEST PUSH2 0x3B4 JUMP JUMPDEST PUSH1 0x40 MLOAD PUSH2 0x121 SWAP2 SWAP1 PUSH1 0x0 PUSH1 0xA0 DUP3 ADD SWAP1 POP DUP3 MLOAD DUP3 MSTORE PUSH1 0x20 DUP4 ADD MLOAD PUSH1 0x20 DUP4 ADD MSTORE PUSH1 0x40 DUP4 ADD MLOAD PUSH1 0x40 DUP4 ADD MSTORE PUSH1 0x60 DUP4 ADD MLOAD ISZERO ISZERO PUSH1 0x60 DUP4 ADD MSTORE PUSH1 0x80 DUP4 ADD MLOAD ISZERO ISZERO PUSH1 0x80 DUP4 ADD MSTORE SWAP3 SWAP2 POP POP JUMP JUMPDEST CALLVALUE DUP1 ISZERO PUSH2 0x20E JUMPI PUSH1 0x0 DUP1 REVERT JUMPDEST POP PUSH2 0x18C PUSH2 0x21D CALLDATASIZE PUSH1 0x4 PUSH2 0x5F2 JUMP JUMPDEST PUSH2 0x444 JUMP JUMPDEST PUSH1 0x0 SLOAD PUSH2 0x100 SWAP1 DIV PUSH1 0x1 PUSH1 0x1 PUSH1 0xA0 SHL SUB AND CALLER EQ PUSH2 0x23E JUMPI PUSH1 0x0 DUP1 REVERT JUMPDEST PUSH1 0x0 SLOAD PUSH1 0x40 MLOAD PUSH4 0xA9059CBB PUSH1 0xE0 SHL DUP2 MSTORE PUSH2 0x100 SWAP1 SWAP2 DIV PUSH1 0x1 PUSH1 0x1 PUSH1 0xA0 SHL SUB SWAP1 DUP2 AND PUSH1 0x4 DUP4 ADD DUP2 SWAP1 MSTORE PUSH1 0x24 DUP4 ADD DUP5 SWAP1 MSTORE SWAP2 DUP5 SWAP2 DUP3 AND SWAP1 PUSH4 0xA9059CBB SWAP1 PUSH1 0x44 ADD PUSH1 0x20 PUSH1 0x40 MLOAD DUP1 DUP4 SUB DUP2 PUSH1 0x0 DUP8 GAS CALL ISZERO DUP1 ISZERO PUSH2 0x29B JUMPI RETURNDATASIZE PUSH1 0x0 DUP1 RETURNDATACOPY RETURNDATASIZE PUSH1 0x0 REVERT JUMPDEST POP POP POP POP PUSH1 0x40 MLOAD RETURNDATASIZE PUSH1 0x1F NOT PUSH1 0x1F DUP3 ADD AND DUP3 ADD DUP1 PUSH1 0x40 MSTORE POP DUP2 ADD SWAP1 PUSH2 0x2BF SWAP2 SWAP1 PUSH2 0x69F JUMP JUMPDEST POP POP POP POP POP JUMP JUMPDEST PUSH1 0x0 SLOAD PUSH2 0x100 SWAP1 DIV PUSH1 0x1 PUSH1 0x1 PUSH1 0xA0 SHL SUB AND CALLER EQ PUSH2 0x2E2 JUMPI PUSH1 0x0 DUP1 REVERT JUMPDEST PUSH1 0x0 DUP1 SLOAD PUSH1 0x40 MLOAD PUSH2 0x100 SWAP1 SWAP2 DIV PUSH1 0x1 PUSH1 0x1 PUSH1 0xA0 SHL SUB AND SWAP2 DUP3 SWAP2 PUSH2 0x8FC DUP6 ISZERO MUL SWAP2 DUP6 SWAP2 SWAP1 DUP2 DUP2 DUP2 DUP6 DUP9 DUP9 CALL SWAP4 POP POP POP POP ISZERO DUP1 ISZERO PUSH2 0x322 JUMPI RETURNDATASIZE PUSH1 0x0 DUP1 RETURNDATACOPY RETURNDATASIZE PUSH1 0x0 REVERT JUMPDEST POP PUSH1 0x40 DUP1 MLOAD PUSH1 0x1 PUSH1 0x1 PUSH1 0xA0 SHL SUB DUP4 AND DUP2 MSTORE PUSH1 0x20 DUP2 ADD DUP5 SWAP1 MSTORE PUSH32 0x884EDAD9CE6FA2440D8A54CC123490EB96D2768479D49FF9C7366125A9424364 SWAP2 ADD PUSH1 0x40 MLOAD DUP1 SWAP2 SUB SWAP1 LOG1 POP POP JUMP JUMPDEST PUSH1 0x0 DUP1 SLOAD PUSH2 0x100 SWAP1 DIV PUSH1 0x1 PUSH1 0x1 PUSH1 0xA0 SHL SUB AND CALLER EQ PUSH2 0x386 JUMPI PUSH1 0x0 DUP1 REVERT JUMPDEST POP PUSH1 0x1 PUSH1 0x1 PUSH1 0xA0 SHL SUB SWAP2 SWAP1 SWAP2 AND PUSH1 0x0 SWAP1 DUP2 MSTORE PUSH1 0x6 PUSH1 0x20 MSTORE PUSH1 0x40 SWAP1 KECCAK256 SWAP1 MLOAD DUP2 SLOAD PUSH1 0xFF NOT AND SWAP1 ISZERO ISZERO OR SWAP1 SSTORE PUSH1 0x1 SWAP1 JUMP JUMPDEST PUSH2 0x3EA PUSH1 0x40 MLOAD DUP1 PUSH1 0xA0 ADD PUSH1 0x40 MSTORE DUP1 PUSH1 0x0 DUP2 MSTORE PUSH1 0x20 ADD PUSH1 0x0 DUP2 MSTORE PUSH1 0x20 ADD PUSH1 0x0 DUP2 MSTORE PUSH1 0x20 ADD PUSH1 0x0 ISZERO ISZERO DUP2 MSTORE PUSH1 0x20 ADD PUSH1 0x0 ISZERO ISZERO DUP2 MSTORE POP SWAP1 JUMP JUMPDEST POP PUSH1 0x0 SWAP1 DUP2 MSTORE PUSH1 0x7 PUSH1 0x20 SWAP1 DUP2 MSTORE PUSH1 0x40 SWAP2 DUP3 SWAP1 KECCAK256 DUP3 MLOAD PUSH1 0xA0 DUP2 ADD DUP5 MSTORE DUP2 SLOAD DUP2 MSTORE PUSH1 0x1 DUP3 ADD SLOAD SWAP3 DUP2 ADD SWAP3 SWAP1 SWAP3 MSTORE PUSH1 0x2 DUP2 ADD SLOAD SWAP3 DUP3 ADD SWAP3 SWAP1 SWAP3 MSTORE PUSH1 0x3 SWAP1 SWAP2 ADD SLOAD PUSH1 0xFF DUP1 DUP3 AND ISZERO ISZERO PUSH1 0x60 DUP5 ADD MSTORE PUSH2 0x100 SWAP1 SWAP2 DIV AND ISZERO ISZERO PUSH1 0x80 DUP3 ADD MSTORE SWAP1 JUMP JUMPDEST PUSH1 0x0 DUP1 SLOAD PUSH2 0x100 SWAP1 DIV PUSH1 0x1 PUSH1 0x1 PUSH1 0xA0 SHL SUB AND CALLER EQ PUSH2 0x461 JUMPI PUSH1 0x0 DUP1 REVERT JUMPDEST PUSH1 0x0 DUP4 DUP2 MSTORE PUSH1 0x7 PUSH1 0x20 MSTORE PUSH1 0x40 SWAP1 KECCAK256 SLOAD TIMESTAMP GT ISZERO PUSH2 0x47C JUMPI PUSH1 0x0 DUP1 REVERT JUMPDEST POP PUSH1 0x0 DUP3 DUP2 MSTORE PUSH1 0x7 PUSH1 0x20 SWAP1 DUP2 MSTORE PUSH1 0x40 SWAP2 DUP3 SWAP1 KECCAK256 DUP4 MLOAD DUP2 SSTORE SWAP1 DUP4 ADD MLOAD PUSH1 0x1 DUP1 DUP4 ADD SWAP2 SWAP1 SWAP2 SSTORE SWAP2 DUP4 ADD MLOAD PUSH1 0x2 DUP3 ADD SSTORE PUSH1 0x60 DUP4 ADD MLOAD PUSH1 0x3 SWAP1 SWAP2 ADD DUP1 SLOAD PUSH1 0x80 DUP6 ADD MLOAD ISZERO ISZERO PUSH2 0x100 MUL PUSH2 0xFF00 NOT SWAP4 ISZERO ISZERO SWAP4 SWAP1 SWAP4 AND PUSH2 0xFFFF NOT SWAP1 SWAP2 AND OR SWAP2 SWAP1 SWAP2 OR SWAP1 SSTORE SWAP3 SWAP2 POP POP JUMP JUMPDEST DUP1 CALLDATALOAD PUSH1 0x1 PUSH1 0x1 PUSH1 0xA0 SHL SUB DUP2 AND DUP2 EQ PUSH2 0x4F6 JUMPI PUSH1 0x0 DUP1 REVERT JUMPDEST SWAP2 SWAP1 POP JUMP JUMPDEST PUSH1 0x0 PUSH1 0x20 DUP3 DUP5 SUB SLT ISZERO PUSH2 0x50D JUMPI PUSH1 0x0 DUP1 REVERT JUMPDEST PUSH2 0x516 DUP3 PUSH2 0x4DF JUMP JUMPDEST SWAP4 SWAP3 POP POP POP JUMP JUMPDEST PUSH1 0x0 DUP1 PUSH1 0x40 DUP4 DUP6 SUB SLT ISZERO PUSH2 0x530 JUMPI PUSH1 0x0 DUP1 REVERT JUMPDEST PUSH2 0x539 DUP4 PUSH2 0x4DF JUMP JUMPDEST SWAP5 PUSH1 0x20 SWAP4 SWAP1 SWAP4 ADD CALLDATALOAD SWAP4 POP POP POP JUMP JUMPDEST PUSH1 0x0 PUSH1 0x20 DUP3 DUP5 SUB SLT ISZERO PUSH2 0x559 JUMPI PUSH1 0x0 DUP1 REVERT JUMPDEST POP CALLDATALOAD SWAP2 SWAP1 POP JUMP JUMPDEST DUP1 ISZERO ISZERO DUP2 EQ PUSH2 0x56E JUMPI PUSH1 0x0 DUP1 REVERT JUMPDEST POP JUMP JUMPDEST PUSH1 0x0 DUP1 DUP3 DUP5 SUB PUSH1 0x40 DUP2 SLT ISZERO PUSH2 0x585 JUMPI PUSH1 0x0 DUP1 REVERT JUMPDEST PUSH2 0x58E DUP5 PUSH2 0x4DF JUMP JUMPDEST SWAP3 POP PUSH1 0x20 PUSH1 0x1F NOT DUP3 ADD SLT ISZERO PUSH2 0x5A2 JUMPI PUSH1 0x0 DUP1 REVERT JUMPDEST POP PUSH1 0x40 MLOAD PUSH1 0x20 DUP2 ADD DUP2 DUP2 LT PUSH8 0xFFFFFFFFFFFFFFFF DUP3 GT OR ISZERO PUSH2 0x5D4 JUMPI PUSH4 0x4E487B71 PUSH1 0xE0 SHL PUSH1 0x0 MSTORE PUSH1 0x41 PUSH1 0x4 MSTORE PUSH1 0x24 PUSH1 0x0 REVERT JUMPDEST PUSH1 0x40 MSTORE PUSH1 0x20 DUP5 ADD CALLDATALOAD PUSH2 0x5E5 DUP2 PUSH2 0x560 JUMP JUMPDEST DUP2 MSTORE SWAP2 SWAP5 SWAP2 SWAP4 POP SWAP1 SWAP2 POP POP JUMP JUMPDEST PUSH1 0x0 DUP1 DUP3 DUP5 SUB PUSH1 0xC0 DUP2 SLT ISZERO PUSH2 0x606 JUMPI PUSH1 0x0 DUP1 REVERT JUMPDEST DUP4 CALLDATALOAD SWAP3 POP PUSH1 0xA0 PUSH1 0x1F NOT DUP3 ADD SLT ISZERO PUSH2 0x61C JUMPI PUSH1 0x0 DUP1 REVERT JUMPDEST POP PUSH1 0x40 MLOAD PUSH1 0xA0 DUP2 ADD DUP2 DUP2 LT PUSH8 0xFFFFFFFFFFFFFFFF DUP3 GT OR ISZERO PUSH2 0x64E JUMPI PUSH4 0x4E487B71 PUSH1 0xE0 SHL PUSH1 0x0 MSTORE PUSH1 0x41 PUSH1 0x4 MSTORE PUSH1 0x24 PUSH1 0x0 REVERT JUMPDEST DUP1 PUSH1 0x40 MSTORE POP PUSH1 0x20 DUP5 ADD CALLDATALOAD DUP2 MSTORE PUSH1 0x40 DUP5 ADD CALLDATALOAD PUSH1 0x20 DUP3 ADD MSTORE PUSH1 0x60 DUP5 ADD CALLDATALOAD PUSH1 0x40 DUP3 ADD MSTORE PUSH1 0x80 DUP5 ADD CALLDATALOAD PUSH2 0x67C DUP2 PUSH2 0x560 JUMP JUMPDEST PUSH1 0x60 DUP3 ADD MSTORE PUSH1 0xA0 DUP5 ADD CALLDATALOAD PUSH2 0x68F DUP2 PUSH2 0x560 JUMP JUMPDEST PUSH1 0x80 DUP3 ADD MSTORE SWAP2 SWAP5 SWAP2 SWAP4 POP SWAP1 SWAP2 POP POP JUMP JUMPDEST PUSH1 0x0 PUSH1 0x20 DUP3 DUP5 SUB SLT ISZERO PUSH2 0x6B1 JUMPI PUSH1 0x0 DUP1 REVERT JUMPDEST DUP2 MLOAD PUSH2 0x516 DUP2 PUSH2 0x560 JUMP INVALID LOG2 PUSH5 0x6970667358 0x22 SLT KECCAK256 AND SUB 0xD0 0xDC DUP10 CALL 0xBD DUP5 SWAP15 CALLER PUSH20 0x3D0727E4B4C00DBD2776E4F310E7E5C7154FC420 0xE0 PUSH5 0x736F6C6343 STOP ADDMOD SLT STOP CALLER PUSH14 0x5257204EBE7D88FD91AE87941CB2 0xDD SWAP14 DUP1 PUSH3 0xB64AE5 LOG2 0xBD 0x2D 0x28 0xEC BLOCKHASH 0xB9 0xFB 0xF6 0xE2 "
				},
				"gasEstimates": {
					"creation": {
						"codeDepositCost": "355600",
						"executionCost": "infinite",
						"totalCost": "infinite"
					},
					"external": {
						"persona_of(address)": "2606",
						"set_funding(uint256,(uint256,uint256,uint256,bool,bool))": "infinite",
						"set_persona_of(address,(bool))": "27098",
						"view_funding(uint256)": "9299",
						"withdraw(uint256)": "infinite",
						"withdraw_erc20(address,uint256)": "infinite"
					}
				},
				"methodIdentifiers": {
					"persona_of(address)": "0923fe94",
					"set_funding(uint256,(uint256,uint256,uint256,bool,bool))": "dd12776a",
					"set_persona_of(address,(bool))": "90b410af",
					"view_funding(uint256)": "b9761101",
					"withdraw(uint256)": "2e1a7d4d",
					"withdraw_erc20(address,uint256)": "24a5af31"
				}
			},
			"storageLayout": {
				"storage": [
					{
						"astId": 620,
						"contract": "blockchain/contracts/Polygon/Pool/Prototype/pool/state.sol:State",
						"label": "is_locked",
						"offset": 0,
						"slot": "0",
						"type": "t_bool"
					},
					{
						"astId": 3,
						"contract": "blockchain/contracts/Polygon/Pool/Prototype/pool/state.sol:State",
						"label": "admin",
						"offset": 1,
						"slot": "0",
						"type": "t_address"
					},
					{
						"astId": 5,
						"contract": "blockchain/contracts/Polygon/Pool/Prototype/pool/state.sol:State",
						"label": "manager",
						"offset": 0,
						"slot": "1",
						"type": "t_address"
					},
					{
						"astId": 7,
						"contract": "blockchain/contracts/Polygon/Pool/Prototype/pool/state.sol:State",
						"label": "governor",
						"offset": 0,
						"slot": "2",
						"type": "t_address"
					},
					{
						"astId": 701,
						"contract": "blockchain/contracts/Polygon/Pool/Prototype/pool/state.sol:State",
						"label": "name",
						"offset": 0,
						"slot": "3",
						"type": "t_string_storage"
					},
					{
						"astId": 703,
						"contract": "blockchain/contracts/Polygon/Pool/Prototype/pool/state.sol:State",
						"label": "description",
						"offset": 0,
						"slot": "4",
						"type": "t_string_storage"
					},
					{
						"astId": 705,
						"contract": "blockchain/contracts/Polygon/Pool/Prototype/pool/state.sol:State",
						"label": "inception",
						"offset": 0,
						"slot": "5",
						"type": "t_uint256"
					},
					{
						"astId": 713,
						"contract": "blockchain/contracts/Polygon/Pool/Prototype/pool/state.sol:State",
						"label": "persona",
						"offset": 0,
						"slot": "6",
						"type": "t_mapping(t_address,t_struct(Persona)708_storage)"
					},
					{
						"astId": 729,
						"contract": "blockchain/contracts/Polygon/Pool/Prototype/pool/state.sol:State",
						"label": "funding",
						"offset": 0,
						"slot": "7",
						"type": "t_mapping(t_uint256,t_struct(Funding)724_storage)"
					}
				],
				"types": {
					"t_address": {
						"encoding": "inplace",
						"label": "address",
						"numberOfBytes": "20"
					},
					"t_bool": {
						"encoding": "inplace",
						"label": "bool",
						"numberOfBytes": "1"
					},
					"t_mapping(t_address,t_struct(Persona)708_storage)": {
						"encoding": "mapping",
						"key": "t_address",
						"label": "mapping(address => struct State.Persona)",
						"numberOfBytes": "32",
						"value": "t_struct(Persona)708_storage"
					},
					"t_mapping(t_uint256,t_struct(Funding)724_storage)": {
						"encoding": "mapping",
						"key": "t_uint256",
						"label": "mapping(uint256 => struct State.Funding)",
						"numberOfBytes": "32",
						"value": "t_struct(Funding)724_storage"
					},
					"t_string_storage": {
						"encoding": "bytes",
						"label": "string",
						"numberOfBytes": "32"
					},
					"t_struct(Funding)724_storage": {
						"encoding": "inplace",
						"label": "struct State.Funding",
						"members": [
							{
								"astId": 715,
								"contract": "blockchain/contracts/Polygon/Pool/Prototype/pool/state.sol:State",
								"label": "start",
								"offset": 0,
								"slot": "0",
								"type": "t_uint256"
							},
							{
								"astId": 717,
								"contract": "blockchain/contracts/Polygon/Pool/Prototype/pool/state.sol:State",
								"label": "end",
								"offset": 0,
								"slot": "1",
								"type": "t_uint256"
							},
							{
								"astId": 719,
								"contract": "blockchain/contracts/Polygon/Pool/Prototype/pool/state.sol:State",
								"label": "required",
								"offset": 0,
								"slot": "2",
								"type": "t_uint256"
							},
							{
								"astId": 721,
								"contract": "blockchain/contracts/Polygon/Pool/Prototype/pool/state.sol:State",
								"label": "whitelisted",
								"offset": 0,
								"slot": "3",
								"type": "t_bool"
							},
							{
								"astId": 723,
								"contract": "blockchain/contracts/Polygon/Pool/Prototype/pool/state.sol:State",
								"label": "success",
								"offset": 1,
								"slot": "3",
								"type": "t_bool"
							}
						],
						"numberOfBytes": "128"
					},
					"t_struct(Persona)708_storage": {
						"encoding": "inplace",
						"label": "struct State.Persona",
						"members": [
							{
								"astId": 707,
								"contract": "blockchain/contracts/Polygon/Pool/Prototype/pool/state.sol:State",
								"label": "is_on_whitelist",
								"offset": 0,
								"slot": "0",
								"type": "t_bool"
							}
						],
						"numberOfBytes": "32"
					},
					"t_uint256": {
						"encoding": "inplace",
						"label": "uint256",
						"numberOfBytes": "32"
					}
				}
			},
			"userdoc": {
				"kind": "user",
				"methods": {},
				"version": 1
			}
		}
	}
}