{
	"blockchain/contracts/Polygon/Pool/Prototype/pool/logic.sol": {
		"Logic": {
			"abi": [
				{
					"inputs": [
						{
							"internalType": "string",
							"name": "_name",
							"type": "string"
						},
						{
							"internalType": "string",
							"name": "_description",
							"type": "string"
						},
						{
							"internalType": "uint256",
							"name": "_funding_start",
							"type": "uint256"
						},
						{
							"internalType": "uint256",
							"name": "_funding_end",
							"type": "uint256"
						},
						{
							"internalType": "uint256",
							"name": "_funding_required",
							"type": "uint256"
						},
						{
							"internalType": "bool",
							"name": "_whitelisted",
							"type": "bool"
						},
						{
							"internalType": "string",
							"name": "_token_name",
							"type": "string"
						},
						{
							"internalType": "string",
							"name": "_token_symbol",
							"type": "string"
						},
						{
							"internalType": "uint8",
							"name": "_token_decimals",
							"type": "uint8"
						},
						{
							"internalType": "uint256",
							"name": "_initial_supply",
							"type": "uint256"
						}
					],
					"stateMutability": "payable",
					"type": "constructor"
				},
				{
					"inputs": [
						{
							"internalType": "uint256",
							"name": "_id",
							"type": "uint256"
						}
					],
					"name": "contribute",
					"outputs": [
						{
							"internalType": "bool",
							"name": "",
							"type": "bool"
						}
					],
					"stateMutability": "payable",
					"type": "function"
				},
				{
					"inputs": [],
					"name": "reveal_native_token",
					"outputs": [
						{
							"internalType": "address",
							"name": "",
							"type": "address"
						}
					],
					"stateMutability": "view",
					"type": "function"
				},
				{
					"inputs": [],
					"name": "reveal_state",
					"outputs": [
						{
							"internalType": "address",
							"name": "",
							"type": "address"
						}
					],
					"stateMutability": "view",
					"type": "function"
				},
				{
					"inputs": [
						{
							"internalType": "uint256",
							"name": "_value",
							"type": "uint256"
						}
					],
					"name": "withdraw",
					"outputs": [
						{
							"internalType": "bool",
							"name": "",
							"type": "bool"
						}
					],
					"stateMutability": "nonpayable",
					"type": "function"
				}
			],
			"devdoc": {
				"kind": "dev",
				"methods": {},
				"version": 1
			},
			"evm": {
				"assembly": "    /* \"blockchain/contracts/Polygon/Pool/Prototype/pool/logic.sol\":385:5281  contract Logic {... */\n  mstore(0x40, 0x80)\n    /* \"blockchain/contracts/Polygon/Pool/Prototype/pool/logic.sol\":589:1804  constructor(... */\n  mload(0x40)\n  sub(codesize, bytecodeSize)\n  dup1\n  bytecodeSize\n  dup4\n  codecopy\n  dup2\n  add\n  0x40\n  dup2\n  swap1\n  mstore\n  tag_1\n  swap2\n  tag_2\n  jump\t// in\ntag_1:\n    /* \"blockchain/contracts/Polygon/Pool/Prototype/pool/logic.sol\":977:984  1 weeks */\n  0x093a80\n    /* \"blockchain/contracts/Polygon/Pool/Prototype/pool/logic.sol\":1060:1090  _funding_start + _min_duration */\n  tag_6\n    /* \"blockchain/contracts/Polygon/Pool/Prototype/pool/logic.sol\":1077:1090  _min_duration */\n  dup2\n    /* \"blockchain/contracts/Polygon/Pool/Prototype/pool/logic.sol\":1060:1074  _funding_start */\n  dup11\n    /* \"blockchain/contracts/Polygon/Pool/Prototype/pool/logic.sol\":1060:1090  _funding_start + _min_duration */\n  tag_7\n  jump\t// in\ntag_6:\n    /* \"blockchain/contracts/Polygon/Pool/Prototype/pool/logic.sol\":1044:1056  _funding_end */\n  dup9\n    /* \"blockchain/contracts/Polygon/Pool/Prototype/pool/logic.sol\":1044:1090  _funding_end >= _funding_start + _min_duration */\n  lt\n  iszero\n    /* \"blockchain/contracts/Polygon/Pool/Prototype/pool/logic.sol\":1035:1092  require( _funding_end >= _funding_start + _min_duration ) */\n  tag_8\n  jumpi\n  0x00\n  dup1\n  revert\ntag_8:\n    /* \"blockchain/contracts/Polygon/Pool/Prototype/pool/logic.sol\":1167:1168  1 */\n  0x01\n    /* \"blockchain/contracts/Polygon/Pool/Prototype/pool/logic.sol\":1154:1163  msg.value */\n  callvalue\n    /* \"blockchain/contracts/Polygon/Pool/Prototype/pool/logic.sol\":1154:1168  msg.value >= 1 */\n  lt\n  iszero\n    /* \"blockchain/contracts/Polygon/Pool/Prototype/pool/logic.sol\":1145:1170  require( msg.value >= 1 ) */\n  tag_10\n  jumpi\n  0x00\n  dup1\n  revert\ntag_10:\n    /* \"blockchain/contracts/Polygon/Pool/Prototype/pool/logic.sol\":1208:1209  1 */\n  0x01\n    /* \"blockchain/contracts/Polygon/Pool/Prototype/pool/logic.sol\":1189:1204  _initial_supply */\n  dup3\n    /* \"blockchain/contracts/Polygon/Pool/Prototype/pool/logic.sol\":1189:1209  _initial_supply >= 1 */\n  lt\n  iszero\n    /* \"blockchain/contracts/Polygon/Pool/Prototype/pool/logic.sol\":1180:1211  require( _initial_supply >= 1 ) */\n  tag_11\n  jumpi\n  0x00\n  dup1\n  revert\ntag_11:\n    /* \"blockchain/contracts/Polygon/Pool/Prototype/pool/logic.sol\":1263:1267  this */\n  address\n    /* \"blockchain/contracts/Polygon/Pool/Prototype/pool/logic.sol\":1283:1293  msg.sender */\n  caller\n    /* \"blockchain/contracts/Polygon/Pool/Prototype/pool/logic.sol\":1307:1312  _name */\n  dup13\n    /* \"blockchain/contracts/Polygon/Pool/Prototype/pool/logic.sol\":1326:1338  _description */\n  dup13\n    /* \"blockchain/contracts/Polygon/Pool/Prototype/pool/logic.sol\":1352:1366  _funding_start */\n  dup13\n    /* \"blockchain/contracts/Polygon/Pool/Prototype/pool/logic.sol\":1380:1392  _funding_end */\n  dup13\n    /* \"blockchain/contracts/Polygon/Pool/Prototype/pool/logic.sol\":1406:1423  _funding_required */\n  dup13\n    /* \"blockchain/contracts/Polygon/Pool/Prototype/pool/logic.sol\":1437:1449  _whitelisted */\n  dup13\n    /* \"blockchain/contracts/Polygon/Pool/Prototype/pool/logic.sol\":1230:1460  new State(... */\n  mload(0x40)\n  tag_12\n  swap1\n  tag_13\n  jump\t// in\ntag_12:\n  tag_14\n  swap9\n  swap8\n  swap7\n  swap6\n  swap5\n  swap4\n  swap3\n  swap2\n  swap1\n  tag_15\n  jump\t// in\ntag_14:\n  mload(0x40)\n  dup1\n  swap2\n  sub\n  swap1\n  0x00\n  create\n  dup1\n  iszero\n  dup1\n  iszero\n  tag_16\n  jumpi\n  returndatasize\n  0x00\n  dup1\n  returndatacopy\n  revert(0x00, returndatasize)\ntag_16:\n  pop\n    /* \"blockchain/contracts/Polygon/Pool/Prototype/pool/logic.sol\":1222:1227  state */\n  0x00\n    /* \"blockchain/contracts/Polygon/Pool/Prototype/pool/logic.sol\":1222:1460  state = new State(... */\n  dup1\n  sload\n  not(sub(shl(0xa0, 0x01), 0x01))\n  and\n  sub(shl(0xa0, 0x01), 0x01)\n  swap3\n  swap1\n  swap3\n  and\n  swap2\n  swap1\n  swap2\n  or\n  swap1\n  sstore\n    /* \"blockchain/contracts/Polygon/Pool/Prototype/pool/logic.sol\":1499:1501  18 */\n  0x12\n    /* \"blockchain/contracts/Polygon/Pool/Prototype/pool/logic.sol\":1480:1501  _token_decimals <= 18 */\n  0xff\n  dup5\n  and\n  gt\n  iszero\n    /* \"blockchain/contracts/Polygon/Pool/Prototype/pool/logic.sol\":1471:1503  require( _token_decimals <= 18 ) */\n  tag_17\n  jumpi\n  0x00\n  dup1\n  revert\ntag_17:\n    /* \"blockchain/contracts/Polygon/Pool/Prototype/pool/logic.sol\":1594:1605  _token_name */\n  dup5\n    /* \"blockchain/contracts/Polygon/Pool/Prototype/pool/logic.sol\":1619:1632  _token_symbol */\n  dup5\n    /* \"blockchain/contracts/Polygon/Pool/Prototype/pool/logic.sol\":1646:1661  _token_decimals */\n  dup5\n    /* \"blockchain/contracts/Polygon/Pool/Prototype/pool/logic.sol\":1570:1672  new Token(... */\n  mload(0x40)\n  tag_19\n  swap1\n  tag_20\n  jump\t// in\ntag_19:\n  tag_21\n  swap4\n  swap3\n  swap2\n  swap1\n  tag_22\n  jump\t// in\ntag_21:\n  mload(0x40)\n  dup1\n  swap2\n  sub\n  swap1\n  0x00\n  create\n  dup1\n  iszero\n  dup1\n  iszero\n  tag_23\n  jumpi\n  returndatasize\n  0x00\n  dup1\n  returndatacopy\n  revert(0x00, returndatasize)\ntag_23:\n  pop\n    /* \"blockchain/contracts/Polygon/Pool/Prototype/pool/logic.sol\":1555:1567  native_token */\n  0x01\n    /* \"blockchain/contracts/Polygon/Pool/Prototype/pool/logic.sol\":1555:1672  native_token = new Token(... */\n  dup1\n  sload\n  not(sub(shl(0xa0, 0x01), 0x01))\n  and\n  sub(shl(0xa0, 0x01), 0x01)\n  swap3\n  swap1\n  swap3\n  and\n  swap2\n  swap1\n  swap2\n  or\n  swap1\n  sstore\n    /* \"blockchain/contracts/Polygon/Pool/Prototype/pool/logic.sol\":1683:1707  mint_( _initial_supply ) */\n  tag_24\n    /* \"blockchain/contracts/Polygon/Pool/Prototype/pool/logic.sol\":1690:1705  _initial_supply */\n  dup3\n    /* \"blockchain/contracts/Polygon/Pool/Prototype/pool/logic.sol\":1683:1688  mint_ */\n  tag_25\n    /* \"blockchain/contracts/Polygon/Pool/Prototype/pool/logic.sol\":1683:1707  mint_( _initial_supply ) */\n  jump\t// in\ntag_24:\n  pop\n  pop\n    /* \"blockchain/contracts/Polygon/Pool/Prototype/pool/logic.sol\":1738:1743  state */\n  sload(0x00)\n    /* \"blockchain/contracts/Polygon/Pool/Prototype/pool/logic.sol\":1718:1720  my */\n  0x02\n    /* \"blockchain/contracts/Polygon/Pool/Prototype/pool/logic.sol\":1718:1745  my.state = address( state ) */\n  dup1\n  sload\n  sub(shl(0xa0, 0x01), 0x01)\n    /* \"blockchain/contracts/Polygon/Pool/Prototype/pool/logic.sol\":1738:1743  state */\n  swap3\n  dup4\n  and\n  not(sub(shl(0xa0, 0x01), 0x01))\n    /* \"blockchain/contracts/Polygon/Pool/Prototype/pool/logic.sol\":1718:1745  my.state = address( state ) */\n  swap2\n  dup3\n  and\n  or\n  swap1\n  swap2\n  sstore\n  0x01\n    /* \"blockchain/contracts/Polygon/Pool/Prototype/pool/logic.sol\":1782:1794  native_token */\n  sload\n    /* \"blockchain/contracts/Polygon/Pool/Prototype/pool/logic.sol\":1755:1770  my.native_token */\n  0x03\n    /* \"blockchain/contracts/Polygon/Pool/Prototype/pool/logic.sol\":1755:1796  my.native_token = address( native_token ) */\n  dup1\n  sload\n    /* \"blockchain/contracts/Polygon/Pool/Prototype/pool/logic.sol\":1782:1794  native_token */\n  swap2\n  swap1\n  swap4\n  and\n    /* \"blockchain/contracts/Polygon/Pool/Prototype/pool/logic.sol\":1755:1796  my.native_token = address( native_token ) */\n  swap2\n  and\n  or\n  swap1\n  sstore\n  pop\n    /* \"blockchain/contracts/Polygon/Pool/Prototype/pool/logic.sol\":385:5281  contract Logic {... */\n  tag_45\n  swap8\n  pop\n  pop\n  pop\n  pop\n  pop\n  pop\n  pop\n  pop\n  jump\n    /* \"blockchain/contracts/Polygon/Pool/Prototype/pool/logic.sol\":2956:3162  function mint_( uint256 _value ) private {... */\ntag_25:\n    /* \"blockchain/contracts/Polygon/Pool/Prototype/pool/logic.sol\":3081:3093  native_token */\n  sload(0x01)\n    /* \"blockchain/contracts/Polygon/Pool/Prototype/pool/logic.sol\":3081:3108  native_token.mint( _value ) */\n  mload(0x40)\n  shl(0xe3, 0x140e25ad)\n  dup2\n  mstore\n  0x04\n  dup2\n  add\n    /* \"#utility.yul\":4846:4871   */\n  dup4\n  swap1\n  mstore\n    /* \"blockchain/contracts/Polygon/Pool/Prototype/pool/logic.sol\":3022:3032  msg.sender */\n  caller\n  swap2\n  sub(shl(0xa0, 0x01), 0x01)\n    /* \"blockchain/contracts/Polygon/Pool/Prototype/pool/logic.sol\":3081:3093  native_token */\n  and\n  swap1\n    /* \"blockchain/contracts/Polygon/Pool/Prototype/pool/logic.sol\":3081:3098  native_token.mint */\n  0xa0712d68\n  swap1\n    /* \"#utility.yul\":4819:4837   */\n  0x24\n  add\n    /* \"blockchain/contracts/Polygon/Pool/Prototype/pool/logic.sol\":3081:3108  native_token.mint( _value ) */\n  0x00\n  mload(0x40)\n  dup1\n  dup4\n  sub\n  dup2\n  0x00\n  dup8\n  dup1\n  extcodesize\n  iszero\n  dup1\n  iszero\n  tag_30\n  jumpi\n  0x00\n  dup1\n  revert\ntag_30:\n  pop\n  gas\n  call\n  iszero\n  dup1\n  iszero\n  tag_32\n  jumpi\n  returndatasize\n  0x00\n  dup1\n  returndatacopy\n  revert(0x00, returndatasize)\ntag_32:\n  pop\n  pop\n    /* \"blockchain/contracts/Polygon/Pool/Prototype/pool/logic.sol\":3118:3130  native_token */\n  sload(0x01)\n    /* \"blockchain/contracts/Polygon/Pool/Prototype/pool/logic.sol\":3118:3154  native_token.transfer( _to, _value ) */\n  mload(0x40)\n  shl(0xe0, 0xa9059cbb)\n  dup2\n  mstore\n  sub(shl(0xa0, 0x01), 0x01)\n    /* \"#utility.yul\":5074:5106   */\n  dup6\n  dup2\n  and\n    /* \"blockchain/contracts/Polygon/Pool/Prototype/pool/logic.sol\":3118:3154  native_token.transfer( _to, _value ) */\n  0x04\n  dup4\n  add\n    /* \"#utility.yul\":5056:5107   */\n  mstore\n    /* \"#utility.yul\":5123:5141   */\n  0x24\n  dup3\n  add\n    /* \"#utility.yul\":5116:5150   */\n  dup8\n  swap1\n  mstore\n    /* \"blockchain/contracts/Polygon/Pool/Prototype/pool/logic.sol\":3118:3130  native_token */\n  swap1\n  swap2\n  and\n  swap3\n  pop\n    /* \"blockchain/contracts/Polygon/Pool/Prototype/pool/logic.sol\":3118:3139  native_token.transfer */\n  0xa9059cbb\n  swap2\n  pop\n    /* \"#utility.yul\":5029:5047   */\n  0x44\n  add\n    /* \"blockchain/contracts/Polygon/Pool/Prototype/pool/logic.sol\":3118:3154  native_token.transfer( _to, _value ) */\n  0x20\n  mload(0x40)\n  dup1\n  dup4\n  sub\n  dup2\n  0x00\n  dup8\n  gas\n  call\n  iszero\n  dup1\n  iszero\n  tag_36\n  jumpi\n  returndatasize\n  0x00\n  dup1\n  returndatacopy\n  revert(0x00, returndatasize)\ntag_36:\n  pop\n  pop\n  pop\n  pop\n  mload(0x40)\n  returndatasize\n  not(0x1f)\n  0x1f\n  dup3\n  add\n  and\n  dup3\n  add\n  dup1\n  0x40\n  mstore\n  pop\n  dup2\n  add\n  swap1\n  tag_37\n  swap2\n  swap1\n  tag_38\n  jump\t// in\ntag_37:\n  pop\n    /* \"blockchain/contracts/Polygon/Pool/Prototype/pool/logic.sol\":2997:3162  {... */\n  pop\n    /* \"blockchain/contracts/Polygon/Pool/Prototype/pool/logic.sol\":2956:3162  function mint_( uint256 _value ) private {... */\n  pop\n  jump\t// out\n    /* \"blockchain/contracts/Polygon/Pool/Prototype/pool/logic.sol\":385:5281  contract Logic {... */\ntag_13:\n  dataSize(sub_1)\n  dup1\n  dataOffset(sub_1)\n  dup4\n  codecopy\n  add\n  swap1\n  jump\t// out\ntag_20:\n  dataSize(sub_2)\n  dup1\n  dataOffset(sub_2)\n  dup4\n  codecopy\n  add\n  swap1\n  jump\t// out\n    /* \"#utility.yul\":14:141   */\ntag_39:\n    /* \"#utility.yul\":75:85   */\n  0x4e487b71\n    /* \"#utility.yul\":70:73   */\n  0xe0\n    /* \"#utility.yul\":66:86   */\n  shl\n    /* \"#utility.yul\":63:64   */\n  0x00\n    /* \"#utility.yul\":56:87   */\n  mstore\n    /* \"#utility.yul\":106:110   */\n  0x41\n    /* \"#utility.yul\":103:104   */\n  0x04\n    /* \"#utility.yul\":96:111   */\n  mstore\n    /* \"#utility.yul\":130:134   */\n  0x24\n    /* \"#utility.yul\":127:128   */\n  0x00\n    /* \"#utility.yul\":120:135   */\n  revert\n    /* \"#utility.yul\":146:396   */\ntag_40:\n    /* \"#utility.yul\":231:232   */\n  0x00\n    /* \"#utility.yul\":241:354   */\ntag_48:\n    /* \"#utility.yul\":255:261   */\n  dup4\n    /* \"#utility.yul\":252:253   */\n  dup2\n    /* \"#utility.yul\":249:262   */\n  lt\n    /* \"#utility.yul\":241:354   */\n  iszero\n  tag_50\n  jumpi\n    /* \"#utility.yul\":331:342   */\n  dup2\n  dup2\n  add\n    /* \"#utility.yul\":325:343   */\n  mload\n    /* \"#utility.yul\":312:323   */\n  dup4\n  dup3\n  add\n    /* \"#utility.yul\":305:344   */\n  mstore\n    /* \"#utility.yul\":277:279   */\n  0x20\n    /* \"#utility.yul\":270:280   */\n  add\n    /* \"#utility.yul\":241:354   */\n  jump(tag_48)\ntag_50:\n  pop\n  pop\n    /* \"#utility.yul\":388:389   */\n  0x00\n    /* \"#utility.yul\":370:386   */\n  swap2\n  add\n    /* \"#utility.yul\":363:390   */\n  mstore\n    /* \"#utility.yul\":146:396   */\n  jump\t// out\n    /* \"#utility.yul\":401:1100   */\ntag_41:\n    /* \"#utility.yul\":455:460   */\n  0x00\n    /* \"#utility.yul\":508:511   */\n  dup3\n    /* \"#utility.yul\":501:505   */\n  0x1f\n    /* \"#utility.yul\":493:499   */\n  dup4\n    /* \"#utility.yul\":489:506   */\n  add\n    /* \"#utility.yul\":485:512   */\n  slt\n    /* \"#utility.yul\":475:530   */\n  tag_52\n  jumpi\n    /* \"#utility.yul\":526:527   */\n  0x00\n    /* \"#utility.yul\":523:524   */\n  dup1\n    /* \"#utility.yul\":516:528   */\n  revert\n    /* \"#utility.yul\":475:530   */\ntag_52:\n    /* \"#utility.yul\":549:562   */\n  dup2\n  mload\n  sub(shl(0x40, 0x01), 0x01)\n    /* \"#utility.yul\":611:621   */\n  dup1\n  dup3\n  gt\n    /* \"#utility.yul\":608:644   */\n  iszero\n  tag_54\n  jumpi\n    /* \"#utility.yul\":624:642   */\n  tag_54\n  tag_39\n  jump\t// in\ntag_54:\n    /* \"#utility.yul\":699:701   */\n  0x40\n    /* \"#utility.yul\":693:702   */\n  mload\n    /* \"#utility.yul\":667:669   */\n  0x1f\n    /* \"#utility.yul\":753:766   */\n  dup4\n  add\n  not(0x1f)\n    /* \"#utility.yul\":749:771   */\n  swap1\n  dup2\n  and\n    /* \"#utility.yul\":773:775   */\n  0x3f\n    /* \"#utility.yul\":745:776   */\n  add\n    /* \"#utility.yul\":741:781   */\n  and\n    /* \"#utility.yul\":729:782   */\n  dup2\n  add\n  swap1\n    /* \"#utility.yul\":797:815   */\n  dup3\n  dup3\n  gt\n    /* \"#utility.yul\":817:839   */\n  dup2\n  dup4\n  lt\n    /* \"#utility.yul\":794:840   */\n  or\n    /* \"#utility.yul\":791:863   */\n  iszero\n  tag_56\n  jumpi\n    /* \"#utility.yul\":843:861   */\n  tag_56\n  tag_39\n  jump\t// in\ntag_56:\n    /* \"#utility.yul\":883:893   */\n  dup2\n    /* \"#utility.yul\":879:881   */\n  0x40\n    /* \"#utility.yul\":872:894   */\n  mstore\n    /* \"#utility.yul\":918:920   */\n  dup4\n    /* \"#utility.yul\":910:916   */\n  dup2\n    /* \"#utility.yul\":903:921   */\n  mstore\n    /* \"#utility.yul\":964:967   */\n  dup7\n    /* \"#utility.yul\":957:961   */\n  0x20\n    /* \"#utility.yul\":952:954   */\n  dup6\n    /* \"#utility.yul\":944:950   */\n  dup9\n    /* \"#utility.yul\":940:955   */\n  add\n    /* \"#utility.yul\":936:962   */\n  add\n    /* \"#utility.yul\":933:968   */\n  gt\n    /* \"#utility.yul\":930:985   */\n  iszero\n  tag_57\n  jumpi\n    /* \"#utility.yul\":981:982   */\n  0x00\n    /* \"#utility.yul\":978:979   */\n  dup1\n    /* \"#utility.yul\":971:983   */\n  revert\n    /* \"#utility.yul\":930:985   */\ntag_57:\n    /* \"#utility.yul\":994:1070   */\n  tag_58\n    /* \"#utility.yul\":1067:1069   */\n  dup5\n    /* \"#utility.yul\":1060:1064   */\n  0x20\n    /* \"#utility.yul\":1052:1058   */\n  dup4\n    /* \"#utility.yul\":1048:1065   */\n  add\n    /* \"#utility.yul\":1041:1045   */\n  0x20\n    /* \"#utility.yul\":1033:1039   */\n  dup10\n    /* \"#utility.yul\":1029:1046   */\n  add\n    /* \"#utility.yul\":994:1070   */\n  tag_40\n  jump\t// in\ntag_58:\n    /* \"#utility.yul\":1088:1094   */\n  swap7\n    /* \"#utility.yul\":401:1100   */\n  swap6\n  pop\n  pop\n  pop\n  pop\n  pop\n  pop\n  jump\t// out\n    /* \"#utility.yul\":1105:1269   */\ntag_42:\n    /* \"#utility.yul\":1181:1194   */\n  dup1\n  mload\n    /* \"#utility.yul\":1230:1243   */\n  dup1\n  iszero\n    /* \"#utility.yul\":1223:1244   */\n  iszero\n    /* \"#utility.yul\":1213:1245   */\n  dup2\n  eq\n    /* \"#utility.yul\":1203:1263   */\n  tag_60\n  jumpi\n    /* \"#utility.yul\":1259:1260   */\n  0x00\n    /* \"#utility.yul\":1256:1257   */\n  dup1\n    /* \"#utility.yul\":1249:1261   */\n  revert\n    /* \"#utility.yul\":1203:1263   */\ntag_60:\n    /* \"#utility.yul\":1105:1269   */\n  swap2\n  swap1\n  pop\n  jump\t// out\n    /* \"#utility.yul\":1274:1434   */\ntag_43:\n    /* \"#utility.yul\":1351:1364   */\n  dup1\n  mload\n    /* \"#utility.yul\":1404:1408   */\n  0xff\n    /* \"#utility.yul\":1393:1409   */\n  dup2\n  and\n    /* \"#utility.yul\":1383:1410   */\n  dup2\n  eq\n    /* \"#utility.yul\":1373:1428   */\n  tag_60\n  jumpi\n    /* \"#utility.yul\":1424:1425   */\n  0x00\n    /* \"#utility.yul\":1421:1422   */\n  dup1\n    /* \"#utility.yul\":1414:1426   */\n  revert\n    /* \"#utility.yul\":1439:2820   */\ntag_2:\n    /* \"#utility.yul\":1625:1631   */\n  0x00\n    /* \"#utility.yul\":1633:1639   */\n  dup1\n    /* \"#utility.yul\":1641:1647   */\n  0x00\n    /* \"#utility.yul\":1649:1655   */\n  dup1\n    /* \"#utility.yul\":1657:1663   */\n  0x00\n    /* \"#utility.yul\":1665:1671   */\n  dup1\n    /* \"#utility.yul\":1673:1679   */\n  0x00\n    /* \"#utility.yul\":1681:1687   */\n  dup1\n    /* \"#utility.yul\":1689:1695   */\n  0x00\n    /* \"#utility.yul\":1697:1703   */\n  dup1\n    /* \"#utility.yul\":1750:1753   */\n  0x0140\n    /* \"#utility.yul\":1738:1747   */\n  dup12\n    /* \"#utility.yul\":1729:1736   */\n  dup14\n    /* \"#utility.yul\":1725:1748   */\n  sub\n    /* \"#utility.yul\":1721:1754   */\n  slt\n    /* \"#utility.yul\":1718:1771   */\n  iszero\n  tag_64\n  jumpi\n    /* \"#utility.yul\":1767:1768   */\n  0x00\n    /* \"#utility.yul\":1764:1765   */\n  dup1\n    /* \"#utility.yul\":1757:1769   */\n  revert\n    /* \"#utility.yul\":1718:1771   */\ntag_64:\n    /* \"#utility.yul\":1794:1810   */\n  dup11\n  mload\n  sub(shl(0x40, 0x01), 0x01)\n    /* \"#utility.yul\":1859:1873   */\n  dup1\n  dup3\n  gt\n    /* \"#utility.yul\":1856:1890   */\n  iszero\n  tag_65\n  jumpi\n    /* \"#utility.yul\":1886:1887   */\n  0x00\n    /* \"#utility.yul\":1883:1884   */\n  dup1\n    /* \"#utility.yul\":1876:1888   */\n  revert\n    /* \"#utility.yul\":1856:1890   */\ntag_65:\n    /* \"#utility.yul\":1909:1970   */\n  tag_66\n    /* \"#utility.yul\":1962:1969   */\n  dup15\n    /* \"#utility.yul\":1953:1959   */\n  dup4\n    /* \"#utility.yul\":1942:1951   */\n  dup16\n    /* \"#utility.yul\":1938:1960   */\n  add\n    /* \"#utility.yul\":1909:1970   */\n  tag_41\n  jump\t// in\ntag_66:\n    /* \"#utility.yul\":1899:1970   */\n  swap12\n  pop\n    /* \"#utility.yul\":2016:2018   */\n  0x20\n    /* \"#utility.yul\":2005:2014   */\n  dup14\n    /* \"#utility.yul\":2001:2019   */\n  add\n    /* \"#utility.yul\":1995:2020   */\n  mload\n    /* \"#utility.yul\":1979:2020   */\n  swap2\n  pop\n    /* \"#utility.yul\":2045:2047   */\n  dup1\n    /* \"#utility.yul\":2035:2043   */\n  dup3\n    /* \"#utility.yul\":2032:2048   */\n  gt\n    /* \"#utility.yul\":2029:2065   */\n  iszero\n  tag_67\n  jumpi\n    /* \"#utility.yul\":2061:2062   */\n  0x00\n    /* \"#utility.yul\":2058:2059   */\n  dup1\n    /* \"#utility.yul\":2051:2063   */\n  revert\n    /* \"#utility.yul\":2029:2065   */\ntag_67:\n    /* \"#utility.yul\":2084:2147   */\n  tag_68\n    /* \"#utility.yul\":2139:2146   */\n  dup15\n    /* \"#utility.yul\":2128:2136   */\n  dup4\n    /* \"#utility.yul\":2117:2126   */\n  dup16\n    /* \"#utility.yul\":2113:2137   */\n  add\n    /* \"#utility.yul\":2084:2147   */\n  tag_41\n  jump\t// in\ntag_68:\n    /* \"#utility.yul\":2074:2147   */\n  swap11\n  pop\n    /* \"#utility.yul\":2187:2189   */\n  0x40\n    /* \"#utility.yul\":2176:2185   */\n  dup14\n    /* \"#utility.yul\":2172:2190   */\n  add\n    /* \"#utility.yul\":2166:2191   */\n  mload\n    /* \"#utility.yul\":2156:2191   */\n  swap10\n  pop\n    /* \"#utility.yul\":2231:2233   */\n  0x60\n    /* \"#utility.yul\":2220:2229   */\n  dup14\n    /* \"#utility.yul\":2216:2234   */\n  add\n    /* \"#utility.yul\":2210:2235   */\n  mload\n    /* \"#utility.yul\":2200:2235   */\n  swap9\n  pop\n    /* \"#utility.yul\":2275:2278   */\n  0x80\n    /* \"#utility.yul\":2264:2273   */\n  dup14\n    /* \"#utility.yul\":2260:2279   */\n  add\n    /* \"#utility.yul\":2254:2280   */\n  mload\n    /* \"#utility.yul\":2244:2280   */\n  swap8\n  pop\n    /* \"#utility.yul\":2299:2346   */\n  tag_69\n    /* \"#utility.yul\":2341:2344   */\n  0xa0\n    /* \"#utility.yul\":2330:2339   */\n  dup15\n    /* \"#utility.yul\":2326:2345   */\n  add\n    /* \"#utility.yul\":2299:2346   */\n  tag_42\n  jump\t// in\ntag_69:\n    /* \"#utility.yul\":2289:2346   */\n  swap7\n  pop\n    /* \"#utility.yul\":2392:2395   */\n  0xc0\n    /* \"#utility.yul\":2381:2390   */\n  dup14\n    /* \"#utility.yul\":2377:2396   */\n  add\n    /* \"#utility.yul\":2371:2397   */\n  mload\n    /* \"#utility.yul\":2355:2397   */\n  swap2\n  pop\n    /* \"#utility.yul\":2422:2424   */\n  dup1\n    /* \"#utility.yul\":2412:2420   */\n  dup3\n    /* \"#utility.yul\":2409:2425   */\n  gt\n    /* \"#utility.yul\":2406:2442   */\n  iszero\n  tag_70\n  jumpi\n    /* \"#utility.yul\":2438:2439   */\n  0x00\n    /* \"#utility.yul\":2435:2436   */\n  dup1\n    /* \"#utility.yul\":2428:2440   */\n  revert\n    /* \"#utility.yul\":2406:2442   */\ntag_70:\n    /* \"#utility.yul\":2461:2524   */\n  tag_71\n    /* \"#utility.yul\":2516:2523   */\n  dup15\n    /* \"#utility.yul\":2505:2513   */\n  dup4\n    /* \"#utility.yul\":2494:2503   */\n  dup16\n    /* \"#utility.yul\":2490:2514   */\n  add\n    /* \"#utility.yul\":2461:2524   */\n  tag_41\n  jump\t// in\ntag_71:\n    /* \"#utility.yul\":2451:2524   */\n  swap6\n  pop\n    /* \"#utility.yul\":2570:2573   */\n  0xe0\n    /* \"#utility.yul\":2559:2568   */\n  dup14\n    /* \"#utility.yul\":2555:2574   */\n  add\n    /* \"#utility.yul\":2549:2575   */\n  mload\n    /* \"#utility.yul\":2533:2575   */\n  swap2\n  pop\n    /* \"#utility.yul\":2600:2602   */\n  dup1\n    /* \"#utility.yul\":2590:2598   */\n  dup3\n    /* \"#utility.yul\":2587:2603   */\n  gt\n    /* \"#utility.yul\":2584:2620   */\n  iszero\n  tag_72\n  jumpi\n    /* \"#utility.yul\":2616:2617   */\n  0x00\n    /* \"#utility.yul\":2613:2614   */\n  dup1\n    /* \"#utility.yul\":2606:2618   */\n  revert\n    /* \"#utility.yul\":2584:2620   */\ntag_72:\n  pop\n    /* \"#utility.yul\":2639:2702   */\n  tag_73\n    /* \"#utility.yul\":2694:2701   */\n  dup14\n    /* \"#utility.yul\":2683:2691   */\n  dup3\n    /* \"#utility.yul\":2672:2681   */\n  dup15\n    /* \"#utility.yul\":2668:2692   */\n  add\n    /* \"#utility.yul\":2639:2702   */\n  tag_41\n  jump\t// in\ntag_73:\n    /* \"#utility.yul\":2629:2702   */\n  swap4\n  pop\n  pop\n    /* \"#utility.yul\":2721:2769   */\n  tag_74\n    /* \"#utility.yul\":2764:2767   */\n  0x0100\n    /* \"#utility.yul\":2753:2762   */\n  dup13\n    /* \"#utility.yul\":2749:2768   */\n  add\n    /* \"#utility.yul\":2721:2769   */\n  tag_43\n  jump\t// in\ntag_74:\n    /* \"#utility.yul\":2711:2769   */\n  swap2\n  pop\n    /* \"#utility.yul\":2809:2812   */\n  0x0120\n    /* \"#utility.yul\":2798:2807   */\n  dup12\n    /* \"#utility.yul\":2794:2813   */\n  add\n    /* \"#utility.yul\":2788:2814   */\n  mload\n    /* \"#utility.yul\":2778:2814   */\n  swap1\n  pop\n    /* \"#utility.yul\":1439:2820   */\n  swap3\n  swap6\n  swap9\n  swap12\n  swap2\n  swap5\n  swap8\n  swap11\n  pop\n  swap3\n  swap6\n  swap9\n  pop\n  jump\t// out\n    /* \"#utility.yul\":2825:3047   */\ntag_7:\n    /* \"#utility.yul\":2890:2899   */\n  dup1\n  dup3\n  add\n    /* \"#utility.yul\":2911:2921   */\n  dup1\n  dup3\n  gt\n    /* \"#utility.yul\":2908:3041   */\n  iszero\n  tag_76\n  jumpi\n    /* \"#utility.yul\":2963:2973   */\n  0x4e487b71\n    /* \"#utility.yul\":2958:2961   */\n  0xe0\n    /* \"#utility.yul\":2954:2974   */\n  shl\n    /* \"#utility.yul\":2951:2952   */\n  0x00\n    /* \"#utility.yul\":2944:2975   */\n  mstore\n    /* \"#utility.yul\":2998:3002   */\n  0x11\n    /* \"#utility.yul\":2995:2996   */\n  0x04\n    /* \"#utility.yul\":2988:3003   */\n  mstore\n    /* \"#utility.yul\":3026:3030   */\n  0x24\n    /* \"#utility.yul\":3023:3024   */\n  0x00\n    /* \"#utility.yul\":3016:3031   */\n  revert\n    /* \"#utility.yul\":2908:3041   */\ntag_76:\n    /* \"#utility.yul\":2825:3047   */\n  swap3\n  swap2\n  pop\n  pop\n  jump\t// out\n    /* \"#utility.yul\":3052:3323   */\ntag_44:\n    /* \"#utility.yul\":3094:3097   */\n  0x00\n    /* \"#utility.yul\":3132:3137   */\n  dup2\n    /* \"#utility.yul\":3126:3138   */\n  mload\n    /* \"#utility.yul\":3159:3165   */\n  dup1\n    /* \"#utility.yul\":3154:3157   */\n  dup5\n    /* \"#utility.yul\":3147:3166   */\n  mstore\n    /* \"#utility.yul\":3175:3251   */\n  tag_78\n    /* \"#utility.yul\":3244:3250   */\n  dup2\n    /* \"#utility.yul\":3237:3241   */\n  0x20\n    /* \"#utility.yul\":3232:3235   */\n  dup7\n    /* \"#utility.yul\":3228:3242   */\n  add\n    /* \"#utility.yul\":3221:3225   */\n  0x20\n    /* \"#utility.yul\":3214:3219   */\n  dup7\n    /* \"#utility.yul\":3210:3226   */\n  add\n    /* \"#utility.yul\":3175:3251   */\n  tag_40\n  jump\t// in\ntag_78:\n    /* \"#utility.yul\":3305:3307   */\n  0x1f\n    /* \"#utility.yul\":3284:3299   */\n  add\n  not(0x1f)\n    /* \"#utility.yul\":3280:3309   */\n  and\n    /* \"#utility.yul\":3271:3310   */\n  swap3\n  swap1\n  swap3\n  add\n    /* \"#utility.yul\":3312:3316   */\n  0x20\n    /* \"#utility.yul\":3267:3317   */\n  add\n  swap3\n    /* \"#utility.yul\":3052:3323   */\n  swap2\n  pop\n  pop\n  jump\t// out\n    /* \"#utility.yul\":3328:4229   */\ntag_15:\n  sub(shl(0xa0, 0x01), 0x01)\n    /* \"#utility.yul\":3747:3762   */\n  dup10\n  dup2\n  and\n    /* \"#utility.yul\":3729:3763   */\n  dup3\n  mstore\n    /* \"#utility.yul\":3799:3814   */\n  dup9\n  and\n    /* \"#utility.yul\":3794:3796   */\n  0x20\n    /* \"#utility.yul\":3779:3797   */\n  dup3\n  add\n    /* \"#utility.yul\":3772:3815   */\n  mstore\n    /* \"#utility.yul\":3679:3682   */\n  0x0100\n    /* \"#utility.yul\":3846:3848   */\n  0x40\n    /* \"#utility.yul\":3831:3849   */\n  dup3\n  add\n    /* \"#utility.yul\":3824:3854   */\n  dup2\n  swap1\n  mstore\n    /* \"#utility.yul\":3650:3654   */\n  0x00\n  swap1\n    /* \"#utility.yul\":3877:3922   */\n  tag_80\n    /* \"#utility.yul\":3903:3921   */\n  dup4\n  dup3\n  add\n    /* \"#utility.yul\":3895:3901   */\n  dup11\n    /* \"#utility.yul\":3877:3922   */\n  tag_44\n  jump\t// in\ntag_80:\n    /* \"#utility.yul\":3863:3922   */\n  swap1\n  pop\n    /* \"#utility.yul\":3970:3979   */\n  dup3\n    /* \"#utility.yul\":3962:3968   */\n  dup2\n    /* \"#utility.yul\":3958:3980   */\n  sub\n    /* \"#utility.yul\":3953:3955   */\n  0x60\n    /* \"#utility.yul\":3942:3951   */\n  dup5\n    /* \"#utility.yul\":3938:3956   */\n  add\n    /* \"#utility.yul\":3931:3981   */\n  mstore\n    /* \"#utility.yul\":3998:4031   */\n  tag_81\n    /* \"#utility.yul\":4024:4030   */\n  dup2\n    /* \"#utility.yul\":4016:4022   */\n  dup10\n    /* \"#utility.yul\":3998:4031   */\n  tag_44\n  jump\t// in\ntag_81:\n    /* \"#utility.yul\":3990:4031   */\n  swap2\n  pop\n  pop\n    /* \"#utility.yul\":4068:4074   */\n  dup6\n    /* \"#utility.yul\":4062:4065   */\n  0x80\n    /* \"#utility.yul\":4051:4060   */\n  dup4\n    /* \"#utility.yul\":4047:4066   */\n  add\n    /* \"#utility.yul\":4040:4075   */\n  mstore\n    /* \"#utility.yul\":4112:4118   */\n  dup5\n    /* \"#utility.yul\":4106:4109   */\n  0xa0\n    /* \"#utility.yul\":4095:4104   */\n  dup4\n    /* \"#utility.yul\":4091:4110   */\n  add\n    /* \"#utility.yul\":4084:4119   */\n  mstore\n    /* \"#utility.yul\":4156:4162   */\n  dup4\n    /* \"#utility.yul\":4150:4153   */\n  0xc0\n    /* \"#utility.yul\":4139:4148   */\n  dup4\n    /* \"#utility.yul\":4135:4154   */\n  add\n    /* \"#utility.yul\":4128:4163   */\n  mstore\n    /* \"#utility.yul\":4214:4220   */\n  dup3\n    /* \"#utility.yul\":4207:4221   */\n  iszero\n    /* \"#utility.yul\":4200:4222   */\n  iszero\n    /* \"#utility.yul\":4194:4197   */\n  0xe0\n    /* \"#utility.yul\":4183:4192   */\n  dup4\n    /* \"#utility.yul\":4179:4198   */\n  add\n    /* \"#utility.yul\":4172:4223   */\n  mstore\n    /* \"#utility.yul\":3328:4229   */\n  swap10\n  swap9\n  pop\n  pop\n  pop\n  pop\n  pop\n  pop\n  pop\n  pop\n  pop\n  jump\t// out\n    /* \"#utility.yul\":4234:4695   */\ntag_22:\n    /* \"#utility.yul\":4455:4457   */\n  0x60\n    /* \"#utility.yul\":4444:4453   */\n  dup2\n    /* \"#utility.yul\":4437:4458   */\n  mstore\n    /* \"#utility.yul\":4418:4422   */\n  0x00\n    /* \"#utility.yul\":4481:4526   */\n  tag_83\n    /* \"#utility.yul\":4522:4524   */\n  0x60\n    /* \"#utility.yul\":4511:4520   */\n  dup4\n    /* \"#utility.yul\":4507:4525   */\n  add\n    /* \"#utility.yul\":4499:4505   */\n  dup7\n    /* \"#utility.yul\":4481:4526   */\n  tag_44\n  jump\t// in\ntag_83:\n    /* \"#utility.yul\":4574:4583   */\n  dup3\n    /* \"#utility.yul\":4566:4572   */\n  dup2\n    /* \"#utility.yul\":4562:4584   */\n  sub\n    /* \"#utility.yul\":4557:4559   */\n  0x20\n    /* \"#utility.yul\":4546:4555   */\n  dup5\n    /* \"#utility.yul\":4542:4560   */\n  add\n    /* \"#utility.yul\":4535:4585   */\n  mstore\n    /* \"#utility.yul\":4602:4635   */\n  tag_84\n    /* \"#utility.yul\":4628:4634   */\n  dup2\n    /* \"#utility.yul\":4620:4626   */\n  dup7\n    /* \"#utility.yul\":4602:4635   */\n  tag_44\n  jump\t// in\ntag_84:\n    /* \"#utility.yul\":4594:4635   */\n  swap2\n  pop\n  pop\n    /* \"#utility.yul\":4683:4687   */\n  0xff\n    /* \"#utility.yul\":4675:4681   */\n  dup4\n    /* \"#utility.yul\":4671:4688   */\n  and\n    /* \"#utility.yul\":4666:4668   */\n  0x40\n    /* \"#utility.yul\":4655:4664   */\n  dup4\n    /* \"#utility.yul\":4651:4669   */\n  add\n    /* \"#utility.yul\":4644:4689   */\n  mstore\n    /* \"#utility.yul\":4234:4695   */\n  swap5\n  swap4\n  pop\n  pop\n  pop\n  pop\n  jump\t// out\n    /* \"#utility.yul\":5161:5363   */\ntag_38:\n    /* \"#utility.yul\":5228:5234   */\n  0x00\n    /* \"#utility.yul\":5281:5283   */\n  0x20\n    /* \"#utility.yul\":5269:5278   */\n  dup3\n    /* \"#utility.yul\":5260:5267   */\n  dup5\n    /* \"#utility.yul\":5256:5279   */\n  sub\n    /* \"#utility.yul\":5252:5284   */\n  slt\n    /* \"#utility.yul\":5249:5301   */\n  iszero\n  tag_88\n  jumpi\n    /* \"#utility.yul\":5297:5298   */\n  0x00\n    /* \"#utility.yul\":5294:5295   */\n  dup1\n    /* \"#utility.yul\":5287:5299   */\n  revert\n    /* \"#utility.yul\":5249:5301   */\ntag_88:\n    /* \"#utility.yul\":5320:5357   */\n  tag_89\n    /* \"#utility.yul\":5347:5356   */\n  dup3\n    /* \"#utility.yul\":5320:5357   */\n  tag_42\n  jump\t// in\ntag_89:\n    /* \"#utility.yul\":5310:5357   */\n  swap4\n    /* \"#utility.yul\":5161:5363   */\n  swap3\n  pop\n  pop\n  pop\n  jump\t// out\ntag_45:\n    /* \"blockchain/contracts/Polygon/Pool/Prototype/pool/logic.sol\":385:5281  contract Logic {... */\n  dataSize(sub_0)\n  dup1\n  dataOffset(sub_0)\n  0x00\n  codecopy\n  0x00\n  return\nstop\n\nsub_0: assembly {\n        /* \"blockchain/contracts/Polygon/Pool/Prototype/pool/logic.sol\":385:5281  contract Logic {... */\n      mstore(0x40, 0x80)\n      jumpi(tag_1, lt(calldatasize, 0x04))\n      shr(0xe0, calldataload(0x00))\n      dup1\n      0x0f851666\n      eq\n      tag_2\n      jumpi\n      dup1\n      0x2e1a7d4d\n      eq\n      tag_3\n      jumpi\n      dup1\n      0x3c964865\n      eq\n      tag_4\n      jumpi\n      dup1\n      0xc1cbbca7\n      eq\n      tag_5\n      jumpi\n    tag_1:\n      0x00\n      dup1\n      revert\n        /* \"blockchain/contracts/Polygon/Pool/Prototype/pool/logic.sol\":5116:5278  function reveal_native_token() public view returns ( address ) {... */\n    tag_2:\n      callvalue\n      dup1\n      iszero\n      tag_6\n      jumpi\n      0x00\n      dup1\n      revert\n    tag_6:\n      pop\n        /* \"blockchain/contracts/Polygon/Pool/Prototype/pool/logic.sol\":5255:5270  my.native_token */\n      and(sub(shl(0xa0, 0x01), 0x01), sload(0x03))\n        /* \"blockchain/contracts/Polygon/Pool/Prototype/pool/logic.sol\":5116:5278  function reveal_native_token() public view returns ( address ) {... */\n    tag_7:\n      mload(0x40)\n      sub(shl(0xa0, 0x01), 0x01)\n        /* \"#utility.yul\":178:210   */\n      swap1\n      swap2\n      and\n        /* \"#utility.yul\":160:211   */\n      dup2\n      mstore\n        /* \"#utility.yul\":148:150   */\n      0x20\n        /* \"#utility.yul\":133:151   */\n      add\n        /* \"blockchain/contracts/Polygon/Pool/Prototype/pool/logic.sol\":5116:5278  function reveal_native_token() public view returns ( address ) {... */\n    tag_9:\n      mload(0x40)\n      dup1\n      swap2\n      sub\n      swap1\n      return\n        /* \"blockchain/contracts/Polygon/Pool/Prototype/pool/logic.sol\":4412:4959  function withdraw( uint256 _value ) public returns ( bool ) {... */\n    tag_3:\n      callvalue\n      dup1\n      iszero\n      tag_11\n      jumpi\n      0x00\n      dup1\n      revert\n    tag_11:\n      pop\n      tag_12\n      tag_13\n      calldatasize\n      0x04\n      tag_14\n      jump\t// in\n    tag_13:\n      tag_15\n      jump\t// in\n    tag_12:\n      mload(0x40)\n        /* \"#utility.yul\":572:586   */\n      swap1\n      iszero\n        /* \"#utility.yul\":565:587   */\n      iszero\n        /* \"#utility.yul\":547:588   */\n      dup2\n      mstore\n        /* \"#utility.yul\":535:537   */\n      0x20\n        /* \"#utility.yul\":520:538   */\n      add\n        /* \"blockchain/contracts/Polygon/Pool/Prototype/pool/logic.sol\":4412:4959  function withdraw( uint256 _value ) public returns ( bool ) {... */\n      tag_9\n        /* \"#utility.yul\":407:594   */\n      jump\n        /* \"blockchain/contracts/Polygon/Pool/Prototype/pool/logic.sol\":4969:5110  function reveal_state() public view returns ( address ) {... */\n    tag_4:\n      callvalue\n      dup1\n      iszero\n      tag_18\n      jumpi\n      0x00\n      dup1\n      revert\n    tag_18:\n      pop\n        /* \"blockchain/contracts/Polygon/Pool/Prototype/pool/logic.sol\":5094:5096  my */\n      0x02\n        /* \"blockchain/contracts/Polygon/Pool/Prototype/pool/logic.sol\":5094:5102  my.state */\n      sload\n      sub(shl(0xa0, 0x01), 0x01)\n      and\n        /* \"blockchain/contracts/Polygon/Pool/Prototype/pool/logic.sol\":4969:5110  function reveal_state() public view returns ( address ) {... */\n      jump(tag_7)\n        /* \"blockchain/contracts/Polygon/Pool/Prototype/pool/logic.sol\":3434:4406  function contribute( uint256 _id ) public payable returns ( bool ) {... */\n    tag_5:\n      tag_12\n      tag_23\n      calldatasize\n      0x04\n      tag_14\n      jump\t// in\n    tag_23:\n      tag_24\n      jump\t// in\n        /* \"blockchain/contracts/Polygon/Pool/Prototype/pool/logic.sol\":4412:4959  function withdraw( uint256 _value ) public returns ( bool ) {... */\n    tag_15:\n        /* \"blockchain/contracts/Polygon/Pool/Prototype/pool/logic.sol\":4465:4469  bool */\n      0x00\n        /* \"blockchain/contracts/Polygon/Pool/Prototype/pool/logic.sol\":4598:4608  uint256 _a */\n      dup1\n        /* \"blockchain/contracts/Polygon/Pool/Prototype/pool/logic.sol\":4611:4617  _value */\n      dup3\n        /* \"blockchain/contracts/Polygon/Pool/Prototype/pool/logic.sol\":4598:4617  uint256 _a = _value */\n      swap1\n      pop\n        /* \"blockchain/contracts/Polygon/Pool/Prototype/pool/logic.sol\":4627:4637  uint256 _s */\n      0x00\n        /* \"blockchain/contracts/Polygon/Pool/Prototype/pool/logic.sol\":4640:4652  native_token */\n      0x01\n      0x00\n      swap1\n      sload\n      swap1\n      0x0100\n      exp\n      swap1\n      div\n      sub(shl(0xa0, 0x01), 0x01)\n      and\n      sub(shl(0xa0, 0x01), 0x01)\n        /* \"blockchain/contracts/Polygon/Pool/Prototype/pool/logic.sol\":4640:4664  native_token.totalSupply */\n      and\n      0x18160ddd\n        /* \"blockchain/contracts/Polygon/Pool/Prototype/pool/logic.sol\":4640:4666  native_token.totalSupply() */\n      mload(0x40)\n      dup2\n      0xffffffff\n      and\n      0xe0\n      shl\n      dup2\n      mstore\n      0x04\n      add\n      0x20\n      mload(0x40)\n      dup1\n      dup4\n      sub\n      dup2\n      dup7\n      gas\n      staticcall\n      iszero\n      dup1\n      iszero\n      tag_29\n      jumpi\n      returndatasize\n      0x00\n      dup1\n      returndatacopy\n      revert(0x00, returndatasize)\n    tag_29:\n      pop\n      pop\n      pop\n      pop\n      mload(0x40)\n      returndatasize\n      not(0x1f)\n      0x1f\n      dup3\n      add\n      and\n      dup3\n      add\n      dup1\n      0x40\n      mstore\n      pop\n      dup2\n      add\n      swap1\n      tag_30\n      swap2\n      swap1\n      tag_31\n      jump\t// in\n    tag_30:\n        /* \"blockchain/contracts/Polygon/Pool/Prototype/pool/logic.sol\":4735:4770  Lib._how_much_to_send( _a, _s, _b ) */\n      mload(0x40)\n      shl(0xe0, 0x4f2cf825)\n      dup2\n      mstore\n      0x04\n      dup2\n      add\n        /* \"#utility.yul\":998:1023   */\n      dup5\n      swap1\n      mstore\n        /* \"#utility.yul\":1039:1057   */\n      0x24\n      dup2\n      add\n        /* \"#utility.yul\":1032:1066   */\n      dup3\n      swap1\n      mstore\n        /* \"blockchain/contracts/Polygon/Pool/Prototype/pool/logic.sol\":4689:4712  address( this ).balance */\n      selfbalance\n        /* \"#utility.yul\":1082:1100   */\n      0x44\n      dup3\n      add\n        /* \"#utility.yul\":1075:1109   */\n      dup2\n      swap1\n      mstore\n        /* \"blockchain/contracts/Polygon/Pool/Prototype/pool/logic.sol\":4627:4666  uint256 _s = native_token.totalSupply() */\n      swap2\n      swap3\n      pop\n        /* \"blockchain/contracts/Polygon/Pool/Prototype/pool/logic.sol\":4676:4686  uint256 _b */\n      0x00\n      swap1\n        /* \"blockchain/contracts/Polygon/Pool/Prototype/pool/logic.sol\":4735:4738  Lib */\n      linkerSymbol(\"141014915f569a33f196563eb3a33fc3e67458c66350d76c80e38fe37566b546\")\n      swap1\n        /* \"blockchain/contracts/Polygon/Pool/Prototype/pool/logic.sol\":4735:4756  Lib._how_much_to_send */\n      0x4f2cf825\n      swap1\n        /* \"#utility.yul\":971:989   */\n      0x64\n      add\n        /* \"blockchain/contracts/Polygon/Pool/Prototype/pool/logic.sol\":4735:4770  Lib._how_much_to_send( _a, _s, _b ) */\n      0x20\n      mload(0x40)\n      dup1\n      dup4\n      sub\n      dup2\n      dup7\n      gas\n      delegatecall\n      iszero\n      dup1\n      iszero\n      tag_35\n      jumpi\n      returndatasize\n      0x00\n      dup1\n      returndatacopy\n      revert(0x00, returndatasize)\n    tag_35:\n      pop\n      pop\n      pop\n      pop\n      mload(0x40)\n      returndatasize\n      not(0x1f)\n      0x1f\n      dup3\n      add\n      and\n      dup3\n      add\n      dup1\n      0x40\n      mstore\n      pop\n      dup2\n      add\n      swap1\n      tag_36\n      swap2\n      swap1\n      tag_31\n      jump\t// in\n    tag_36:\n        /* \"blockchain/contracts/Polygon/Pool/Prototype/pool/logic.sol\":4722:4770  uint256 _v = Lib._how_much_to_send( _a, _s, _b ) */\n      swap1\n      pop\n        /* \"blockchain/contracts/Polygon/Pool/Prototype/pool/logic.sol\":4812:4822  msg.sender */\n      caller\n        /* \"blockchain/contracts/Polygon/Pool/Prototype/pool/logic.sol\":4861:4872  burn_( _a ) */\n      tag_37\n        /* \"blockchain/contracts/Polygon/Pool/Prototype/pool/logic.sol\":4868:4870  _a */\n      dup6\n        /* \"blockchain/contracts/Polygon/Pool/Prototype/pool/logic.sol\":4861:4866  burn_ */\n      tag_38\n        /* \"blockchain/contracts/Polygon/Pool/Prototype/pool/logic.sol\":4861:4872  burn_( _a ) */\n      jump\t// in\n    tag_37:\n        /* \"blockchain/contracts/Polygon/Pool/Prototype/pool/logic.sol\":4909:4929  withdraw_( _to, _v ) */\n      tag_39\n        /* \"blockchain/contracts/Polygon/Pool/Prototype/pool/logic.sol\":4920:4923  _to */\n      dup2\n        /* \"blockchain/contracts/Polygon/Pool/Prototype/pool/logic.sol\":4925:4927  _v */\n      dup4\n        /* \"blockchain/contracts/Polygon/Pool/Prototype/pool/logic.sol\":4909:4918  withdraw_ */\n      tag_40\n        /* \"blockchain/contracts/Polygon/Pool/Prototype/pool/logic.sol\":4909:4929  withdraw_( _to, _v ) */\n      jump\t// in\n    tag_39:\n      pop\n        /* \"blockchain/contracts/Polygon/Pool/Prototype/pool/logic.sol\":4947:4951  true */\n      0x01\n      swap7\n        /* \"blockchain/contracts/Polygon/Pool/Prototype/pool/logic.sol\":4412:4959  function withdraw( uint256 _value ) public returns ( bool ) {... */\n      swap6\n      pop\n      pop\n      pop\n      pop\n      pop\n      pop\n      jump\t// out\n        /* \"blockchain/contracts/Polygon/Pool/Prototype/pool/logic.sol\":3434:4406  function contribute( uint256 _id ) public payable returns ( bool ) {... */\n    tag_24:\n        /* \"blockchain/contracts/Polygon/Pool/Prototype/pool/logic.sol\":3494:3498  bool */\n      0x00\n        /* \"blockchain/contracts/Polygon/Pool/Prototype/pool/logic.sol\":3586:3591  state */\n      dup1\n      sload\n        /* \"blockchain/contracts/Polygon/Pool/Prototype/pool/logic.sol\":3586:3611  state.view_funding( _id ) */\n      mload(0x40)\n      shl(0xe0, 0xb9761101)\n      dup2\n      mstore\n      0x04\n      dup2\n      add\n        /* \"#utility.yul\":1266:1291   */\n      dup5\n      swap1\n      mstore\n        /* \"blockchain/contracts/Polygon/Pool/Prototype/pool/logic.sol\":3494:3498  bool */\n      dup3\n      swap2\n      sub(shl(0xa0, 0x01), 0x01)\n        /* \"blockchain/contracts/Polygon/Pool/Prototype/pool/logic.sol\":3586:3591  state */\n      and\n      swap1\n        /* \"blockchain/contracts/Polygon/Pool/Prototype/pool/logic.sol\":3586:3604  state.view_funding */\n      0xb9761101\n      swap1\n        /* \"#utility.yul\":1239:1257   */\n      0x24\n      add\n        /* \"blockchain/contracts/Polygon/Pool/Prototype/pool/logic.sol\":3586:3611  state.view_funding( _id ) */\n      0xa0\n      mload(0x40)\n      dup1\n      dup4\n      sub\n      dup2\n      dup7\n      gas\n      staticcall\n      iszero\n      dup1\n      iszero\n      tag_46\n      jumpi\n      returndatasize\n      0x00\n      dup1\n      returndatacopy\n      revert(0x00, returndatasize)\n    tag_46:\n      pop\n      pop\n      pop\n      pop\n      mload(0x40)\n      returndatasize\n      not(0x1f)\n      0x1f\n      dup3\n      add\n      and\n      dup3\n      add\n      dup1\n      0x40\n      mstore\n      pop\n      dup2\n      add\n      swap1\n      tag_47\n      swap2\n      swap1\n      tag_48\n      jump\t// in\n    tag_47:\n        /* \"blockchain/contracts/Polygon/Pool/Prototype/pool/logic.sol\":3782:3794  native_token */\n      sload(0x01)\n        /* \"blockchain/contracts/Polygon/Pool/Prototype/pool/logic.sol\":3782:3808  native_token.totalSupply() */\n      0x40\n      dup1\n      mload\n      shl(0xe0, 0x18160ddd)\n      dup2\n      mstore\n      swap1\n      mload\n        /* \"blockchain/contracts/Polygon/Pool/Prototype/pool/logic.sol\":3554:3611  State.Funding memory _funding = state.view_funding( _id ) */\n      swap3\n      swap4\n      pop\n        /* \"blockchain/contracts/Polygon/Pool/Prototype/pool/logic.sol\":3750:3759  msg.value */\n      callvalue\n      swap3\n        /* \"blockchain/contracts/Polygon/Pool/Prototype/pool/logic.sol\":3737:3747  uint256 _v */\n      0x00\n      swap3\n      sub(shl(0xa0, 0x01), 0x01)\n        /* \"blockchain/contracts/Polygon/Pool/Prototype/pool/logic.sol\":3782:3794  native_token */\n      and\n      swap2\n        /* \"blockchain/contracts/Polygon/Pool/Prototype/pool/logic.sol\":3782:3806  native_token.totalSupply */\n      0x18160ddd\n      swap2\n        /* \"blockchain/contracts/Polygon/Pool/Prototype/pool/logic.sol\":3782:3808  native_token.totalSupply() */\n      0x04\n      dup1\n      dup4\n      add\n      swap3\n      0x20\n      swap3\n      swap2\n      swap1\n      dup3\n      swap1\n      sub\n      add\n      dup2\n        /* \"blockchain/contracts/Polygon/Pool/Prototype/pool/logic.sol\":3782:3794  native_token */\n      dup7\n        /* \"blockchain/contracts/Polygon/Pool/Prototype/pool/logic.sol\":3782:3808  native_token.totalSupply() */\n      gas\n      staticcall\n      iszero\n      dup1\n      iszero\n      tag_50\n      jumpi\n      returndatasize\n      0x00\n      dup1\n      returndatacopy\n      revert(0x00, returndatasize)\n    tag_50:\n      pop\n      pop\n      pop\n      pop\n      mload(0x40)\n      returndatasize\n      not(0x1f)\n      0x1f\n      dup3\n      add\n      and\n      dup3\n      add\n      dup1\n      0x40\n      mstore\n      pop\n      dup2\n      add\n      swap1\n      tag_51\n      swap2\n      swap1\n      tag_31\n      jump\t// in\n    tag_51:\n        /* \"blockchain/contracts/Polygon/Pool/Prototype/pool/logic.sol\":3769:3808  uint256 _s = native_token.totalSupply() */\n      swap1\n      pop\n        /* \"blockchain/contracts/Polygon/Pool/Prototype/pool/logic.sol\":3818:3828  uint256 _b */\n      0x00\n        /* \"blockchain/contracts/Polygon/Pool/Prototype/pool/logic.sol\":3831:3859  address( this ).balance - _v */\n      tag_52\n        /* \"blockchain/contracts/Polygon/Pool/Prototype/pool/logic.sol\":3857:3859  _v */\n      dup4\n        /* \"blockchain/contracts/Polygon/Pool/Prototype/pool/logic.sol\":3831:3854  address( this ).balance */\n      selfbalance\n        /* \"blockchain/contracts/Polygon/Pool/Prototype/pool/logic.sol\":3831:3859  address( this ).balance - _v */\n      tag_53\n      jump\t// in\n    tag_52:\n        /* \"blockchain/contracts/Polygon/Pool/Prototype/pool/logic.sol\":3882:3917  Lib._how_much_to_mint( _v, _s, _b ) */\n      mload(0x40)\n      shl(0xe0, 0x0daf8301)\n      dup2\n      mstore\n      0x04\n      dup2\n      add\n        /* \"#utility.yul\":998:1023   */\n      dup6\n      swap1\n      mstore\n        /* \"#utility.yul\":1039:1057   */\n      0x24\n      dup2\n      add\n        /* \"#utility.yul\":1032:1066   */\n      dup5\n      swap1\n      mstore\n        /* \"#utility.yul\":1082:1100   */\n      0x44\n      dup2\n      add\n        /* \"#utility.yul\":1075:1109   */\n      dup3\n      swap1\n      mstore\n        /* \"blockchain/contracts/Polygon/Pool/Prototype/pool/logic.sol\":3818:3859  uint256 _b = address( this ).balance - _v */\n      swap1\n      swap2\n      pop\n        /* \"blockchain/contracts/Polygon/Pool/Prototype/pool/logic.sol\":3869:3879  uint256 _m */\n      0x00\n      swap1\n        /* \"blockchain/contracts/Polygon/Pool/Prototype/pool/logic.sol\":3882:3885  Lib */\n      linkerSymbol(\"141014915f569a33f196563eb3a33fc3e67458c66350d76c80e38fe37566b546\")\n      swap1\n        /* \"blockchain/contracts/Polygon/Pool/Prototype/pool/logic.sol\":3882:3903  Lib._how_much_to_mint */\n      0x0daf8301\n      swap1\n        /* \"#utility.yul\":971:989   */\n      0x64\n      add\n        /* \"blockchain/contracts/Polygon/Pool/Prototype/pool/logic.sol\":3882:3917  Lib._how_much_to_mint( _v, _s, _b ) */\n      0x20\n      mload(0x40)\n      dup1\n      dup4\n      sub\n      dup2\n      dup7\n      gas\n      delegatecall\n      iszero\n      dup1\n      iszero\n      tag_56\n      jumpi\n      returndatasize\n      0x00\n      dup1\n      returndatacopy\n      revert(0x00, returndatasize)\n    tag_56:\n      pop\n      pop\n      pop\n      pop\n      mload(0x40)\n      returndatasize\n      not(0x1f)\n      0x1f\n      dup3\n      add\n      and\n      dup3\n      add\n      dup1\n      0x40\n      mstore\n      pop\n      dup2\n      add\n      swap1\n      tag_57\n      swap2\n      swap1\n      tag_31\n      jump\t// in\n    tag_57:\n        /* \"blockchain/contracts/Polygon/Pool/Prototype/pool/logic.sol\":3869:3917  uint256 _m = Lib._how_much_to_mint( _v, _s, _b ) */\n      swap1\n      pop\n        /* \"blockchain/contracts/Polygon/Pool/Prototype/pool/logic.sol\":3942:3943  0 */\n      0x00\n        /* \"blockchain/contracts/Polygon/Pool/Prototype/pool/logic.sol\":3937:3939  _v */\n      dup5\n        /* \"blockchain/contracts/Polygon/Pool/Prototype/pool/logic.sol\":3937:3943  _v > 0 */\n      gt\n        /* \"blockchain/contracts/Polygon/Pool/Prototype/pool/logic.sol\":3928:3945  require( _v > 0 ) */\n      tag_58\n      jumpi\n      0x00\n      dup1\n      revert\n    tag_58:\n        /* \"blockchain/contracts/Polygon/Pool/Prototype/pool/logic.sol\":3969:3970  0 */\n      0x00\n        /* \"blockchain/contracts/Polygon/Pool/Prototype/pool/logic.sol\":3964:3966  _s */\n      dup4\n        /* \"blockchain/contracts/Polygon/Pool/Prototype/pool/logic.sol\":3964:3970  _s > 0 */\n      gt\n        /* \"blockchain/contracts/Polygon/Pool/Prototype/pool/logic.sol\":3955:3972  require( _s > 0 ) */\n      tag_59\n      jumpi\n      0x00\n      dup1\n      revert\n    tag_59:\n        /* \"blockchain/contracts/Polygon/Pool/Prototype/pool/logic.sol\":3996:3997  0 */\n      0x00\n        /* \"blockchain/contracts/Polygon/Pool/Prototype/pool/logic.sol\":3991:3993  _b */\n      dup3\n        /* \"blockchain/contracts/Polygon/Pool/Prototype/pool/logic.sol\":3991:3997  _b > 0 */\n      gt\n        /* \"blockchain/contracts/Polygon/Pool/Prototype/pool/logic.sol\":3982:3999  require( _b > 0 ) */\n      tag_60\n      jumpi\n      0x00\n      dup1\n      revert\n    tag_60:\n        /* \"blockchain/contracts/Polygon/Pool/Prototype/pool/logic.sol\":4079:4087  _funding */\n      dup5\n        /* \"blockchain/contracts/Polygon/Pool/Prototype/pool/logic.sol\":4079:4091  _funding.end */\n      0x20\n      add\n      mload\n        /* \"blockchain/contracts/Polygon/Pool/Prototype/pool/logic.sol\":4060:4075  block.timestamp */\n      timestamp\n        /* \"blockchain/contracts/Polygon/Pool/Prototype/pool/logic.sol\":4060:4091  block.timestamp <= _funding.end */\n      gt\n      iszero\n        /* \"blockchain/contracts/Polygon/Pool/Prototype/pool/logic.sol\":4051:4093  require( block.timestamp <= _funding.end ) */\n      tag_61\n      jumpi\n      0x00\n      dup1\n      revert\n    tag_61:\n        /* \"blockchain/contracts/Polygon/Pool/Prototype/pool/logic.sol\":4104:4133  State.Persona memory _persona */\n      0x00\n        /* \"blockchain/contracts/Polygon/Pool/Prototype/pool/logic.sol\":4136:4141  state */\n      dup1\n      sload\n        /* \"blockchain/contracts/Polygon/Pool/Prototype/pool/logic.sol\":4136:4166  state.persona_of( msg.sender ) */\n      mload(0x40)\n      shl(0xe2, 0x0248ffa5)\n      dup2\n      mstore\n        /* \"blockchain/contracts/Polygon/Pool/Prototype/pool/logic.sol\":4154:4164  msg.sender */\n      caller\n        /* \"blockchain/contracts/Polygon/Pool/Prototype/pool/logic.sol\":4136:4166  state.persona_of( msg.sender ) */\n      0x04\n      dup3\n      add\n        /* \"#utility.yul\":160:211   */\n      mstore\n      sub(shl(0xa0, 0x01), 0x01)\n        /* \"blockchain/contracts/Polygon/Pool/Prototype/pool/logic.sol\":4136:4141  state */\n      swap1\n      swap2\n      and\n      swap1\n        /* \"blockchain/contracts/Polygon/Pool/Prototype/pool/logic.sol\":4136:4152  state.persona_of */\n      0x0923fe94\n      swap1\n        /* \"#utility.yul\":133:151   */\n      0x24\n      add\n        /* \"blockchain/contracts/Polygon/Pool/Prototype/pool/logic.sol\":4136:4166  state.persona_of( msg.sender ) */\n      0x20\n      mload(0x40)\n      dup1\n      dup4\n      sub\n      dup2\n      dup7\n      gas\n      staticcall\n      iszero\n      dup1\n      iszero\n      tag_64\n      jumpi\n      returndatasize\n      0x00\n      dup1\n      returndatacopy\n      revert(0x00, returndatasize)\n    tag_64:\n      pop\n      pop\n      pop\n      pop\n      mload(0x40)\n      returndatasize\n      not(0x1f)\n      0x1f\n      dup3\n      add\n      and\n      dup3\n      add\n      dup1\n      0x40\n      mstore\n      pop\n      dup2\n      add\n      swap1\n      tag_65\n      swap2\n      swap1\n      tag_66\n      jump\t// in\n    tag_65:\n        /* \"blockchain/contracts/Polygon/Pool/Prototype/pool/logic.sol\":4104:4166  State.Persona memory _persona = state.persona_of( msg.sender ) */\n      swap1\n      pop\n        /* \"blockchain/contracts/Polygon/Pool/Prototype/pool/logic.sol\":4182:4190  _funding */\n      dup6\n        /* \"blockchain/contracts/Polygon/Pool/Prototype/pool/logic.sol\":4182:4202  _funding.whitelisted */\n      0x60\n      add\n      mload\n        /* \"blockchain/contracts/Polygon/Pool/Prototype/pool/logic.sol\":4177:4245  if ( _funding.whitelisted ) { require( _persona.is_on_whitelist ); } */\n      iszero\n      tag_68\n      jumpi\n        /* \"blockchain/contracts/Polygon/Pool/Prototype/pool/logic.sol\":4216:4240  _persona.is_on_whitelist */\n      dup1\n      mload\n        /* \"blockchain/contracts/Polygon/Pool/Prototype/pool/logic.sol\":4207:4242  require( _persona.is_on_whitelist ) */\n      tag_68\n      jumpi\n      0x00\n      dup1\n      revert\n    tag_68:\n        /* \"blockchain/contracts/Polygon/Pool/Prototype/pool/logic.sol\":4298:4312  deposit_( _v ) */\n      tag_69\n        /* \"blockchain/contracts/Polygon/Pool/Prototype/pool/logic.sol\":4308:4310  _v */\n      dup6\n        /* \"blockchain/contracts/Polygon/Pool/Prototype/pool/logic.sol\":4298:4306  deposit_ */\n      tag_70\n        /* \"blockchain/contracts/Polygon/Pool/Prototype/pool/logic.sol\":4298:4312  deposit_( _v ) */\n      jump\t// in\n    tag_69:\n        /* \"blockchain/contracts/Polygon/Pool/Prototype/pool/logic.sol\":4365:4376  mint_( _m ) */\n      tag_71\n        /* \"blockchain/contracts/Polygon/Pool/Prototype/pool/logic.sol\":4372:4374  _m */\n      dup3\n        /* \"blockchain/contracts/Polygon/Pool/Prototype/pool/logic.sol\":4365:4370  mint_ */\n      tag_72\n        /* \"blockchain/contracts/Polygon/Pool/Prototype/pool/logic.sol\":4365:4376  mint_( _m ) */\n      jump\t// in\n    tag_71:\n      pop\n        /* \"blockchain/contracts/Polygon/Pool/Prototype/pool/logic.sol\":4394:4398  true */\n      0x01\n      swap8\n        /* \"blockchain/contracts/Polygon/Pool/Prototype/pool/logic.sol\":3434:4406  function contribute( uint256 _id ) public payable returns ( bool ) {... */\n      swap7\n      pop\n      pop\n      pop\n      pop\n      pop\n      pop\n      pop\n      jump\t// out\n        /* \"blockchain/contracts/Polygon/Pool/Prototype/pool/logic.sol\":3168:3428  function burn_( uint256 _value ) private {... */\n    tag_38:\n        /* \"blockchain/contracts/Polygon/Pool/Prototype/pool/logic.sol\":3336:3348  native_token */\n      sload(0x01)\n        /* \"blockchain/contracts/Polygon/Pool/Prototype/pool/logic.sol\":3336:3383  native_token.transferFrom( _from, _to, _value ) */\n      mload(0x40)\n      shl(0xe0, 0x23b872dd)\n      dup2\n      mstore\n        /* \"blockchain/contracts/Polygon/Pool/Prototype/pool/logic.sol\":3236:3246  msg.sender */\n      caller\n        /* \"blockchain/contracts/Polygon/Pool/Prototype/pool/logic.sol\":3336:3383  native_token.transferFrom( _from, _to, _value ) */\n      0x04\n      dup3\n      add\n        /* \"#utility.yul\":3330:3364   */\n      dup2\n      swap1\n      mstore\n        /* \"blockchain/contracts/Polygon/Pool/Prototype/pool/logic.sol\":3279:3283  this */\n      address\n        /* \"#utility.yul\":3380:3398   */\n      0x24\n      dup4\n      add\n        /* \"#utility.yul\":3373:3416   */\n      dup2\n      swap1\n      mstore\n        /* \"#utility.yul\":3432:3450   */\n      0x44\n      dup4\n      add\n        /* \"#utility.yul\":3425:3459   */\n      dup6\n      swap1\n      mstore\n        /* \"blockchain/contracts/Polygon/Pool/Prototype/pool/logic.sol\":3236:3246  msg.sender */\n      swap1\n      swap3\n        /* \"blockchain/contracts/Polygon/Pool/Prototype/pool/logic.sol\":3279:3283  this */\n      swap1\n      swap2\n      sub(shl(0xa0, 0x01), 0x01)\n        /* \"blockchain/contracts/Polygon/Pool/Prototype/pool/logic.sol\":3336:3348  native_token */\n      swap1\n      swap2\n      and\n      swap1\n        /* \"blockchain/contracts/Polygon/Pool/Prototype/pool/logic.sol\":3336:3361  native_token.transferFrom */\n      0x23b872dd\n      swap1\n        /* \"#utility.yul\":3265:3283   */\n      0x64\n      add\n        /* \"blockchain/contracts/Polygon/Pool/Prototype/pool/logic.sol\":3336:3383  native_token.transferFrom( _from, _to, _value ) */\n      0x20\n      mload(0x40)\n      dup1\n      dup4\n      sub\n      dup2\n      0x00\n      dup8\n      gas\n      call\n      iszero\n      dup1\n      iszero\n      tag_77\n      jumpi\n      returndatasize\n      0x00\n      dup1\n      returndatacopy\n      revert(0x00, returndatasize)\n    tag_77:\n      pop\n      pop\n      pop\n      pop\n      mload(0x40)\n      returndatasize\n      not(0x1f)\n      0x1f\n      dup3\n      add\n      and\n      dup3\n      add\n      dup1\n      0x40\n      mstore\n      pop\n      dup2\n      add\n      swap1\n      tag_78\n      swap2\n      swap1\n      tag_79\n      jump\t// in\n    tag_78:\n      pop\n        /* \"blockchain/contracts/Polygon/Pool/Prototype/pool/logic.sol\":3393:3405  native_token */\n      sload(0x01)\n        /* \"blockchain/contracts/Polygon/Pool/Prototype/pool/logic.sol\":3393:3420  native_token.burn( _value ) */\n      mload(0x40)\n      shl(0xe3, 0x0852cd8d)\n      dup2\n      mstore\n      0x04\n      dup2\n      add\n        /* \"#utility.yul\":1266:1291   */\n      dup6\n      swap1\n      mstore\n      sub(shl(0xa0, 0x01), 0x01)\n        /* \"blockchain/contracts/Polygon/Pool/Prototype/pool/logic.sol\":3393:3405  native_token */\n      swap1\n      swap2\n      and\n      swap1\n        /* \"blockchain/contracts/Polygon/Pool/Prototype/pool/logic.sol\":3393:3410  native_token.burn */\n      0x42966c68\n      swap1\n        /* \"#utility.yul\":1239:1257   */\n      0x24\n      add\n        /* \"blockchain/contracts/Polygon/Pool/Prototype/pool/logic.sol\":3393:3420  native_token.burn( _value ) */\n      0x00\n      mload(0x40)\n      dup1\n      dup4\n      sub\n      dup2\n      0x00\n      dup8\n      dup1\n      extcodesize\n      iszero\n      dup1\n      iszero\n      tag_81\n      jumpi\n      0x00\n      dup1\n      revert\n    tag_81:\n      pop\n      gas\n      call\n      iszero\n      dup1\n      iszero\n      tag_83\n      jumpi\n      returndatasize\n      0x00\n      dup1\n      returndatacopy\n      revert(0x00, returndatasize)\n    tag_83:\n      pop\n      pop\n      pop\n      pop\n        /* \"blockchain/contracts/Polygon/Pool/Prototype/pool/logic.sol\":3209:3428  {... */\n      pop\n      pop\n        /* \"blockchain/contracts/Polygon/Pool/Prototype/pool/logic.sol\":3168:3428  function burn_( uint256 _value ) private {... */\n      pop\n      jump\t// out\n        /* \"blockchain/contracts/Polygon/Pool/Prototype/pool/logic.sol\":1960:2239  function withdraw_( address _to, uint256 _value ) private {... */\n    tag_40:\n        /* \"blockchain/contracts/Polygon/Pool/Prototype/pool/logic.sol\":2073:2078  state */\n      sload(0x00)\n        /* \"blockchain/contracts/Polygon/Pool/Prototype/pool/logic.sol\":2073:2097  state.withdraw( _value ) */\n      mload(0x40)\n      shl(0xe0, 0x2e1a7d4d)\n      dup2\n      mstore\n      0x04\n      dup2\n      add\n        /* \"#utility.yul\":1266:1291   */\n      dup4\n      swap1\n      mstore\n      sub(shl(0xa0, 0x01), 0x01)\n        /* \"blockchain/contracts/Polygon/Pool/Prototype/pool/logic.sol\":2073:2078  state */\n      swap1\n      swap2\n      and\n      swap1\n        /* \"blockchain/contracts/Polygon/Pool/Prototype/pool/logic.sol\":2073:2087  state.withdraw */\n      0x2e1a7d4d\n      swap1\n        /* \"#utility.yul\":1239:1257   */\n      0x24\n      add\n        /* \"blockchain/contracts/Polygon/Pool/Prototype/pool/logic.sol\":2073:2097  state.withdraw( _value ) */\n      0x00\n      mload(0x40)\n      dup1\n      dup4\n      sub\n      dup2\n      0x00\n      dup8\n      dup1\n      extcodesize\n      iszero\n      dup1\n      iszero\n      tag_86\n      jumpi\n      0x00\n      dup1\n      revert\n    tag_86:\n      pop\n      gas\n      call\n      iszero\n      dup1\n      iszero\n      tag_88\n      jumpi\n      returndatasize\n      0x00\n      dup1\n      returndatacopy\n      revert(0x00, returndatasize)\n    tag_88:\n      pop\n      pop\n        /* \"blockchain/contracts/Polygon/Pool/Prototype/pool/logic.sol\":2202:2231  _recipient.transfer( _value ) */\n      mload(0x40)\n        /* \"blockchain/contracts/Polygon/Pool/Prototype/pool/logic.sol\":2146:2149  _to */\n      dup5\n      swap3\n      pop\n      sub(shl(0xa0, 0x01), 0x01)\n        /* \"blockchain/contracts/Polygon/Pool/Prototype/pool/logic.sol\":2202:2221  _recipient.transfer */\n      dup4\n      and\n      swap2\n      pop\n        /* \"blockchain/contracts/Polygon/Pool/Prototype/pool/logic.sol\":2202:2231  _recipient.transfer( _value ) */\n      dup4\n      iszero\n      0x08fc\n      mul\n      swap1\n        /* \"blockchain/contracts/Polygon/Pool/Prototype/pool/logic.sol\":2223:2229  _value */\n      dup5\n      swap1\n        /* \"blockchain/contracts/Polygon/Pool/Prototype/pool/logic.sol\":2108:2134  address payable _recipient */\n      0x00\n        /* \"blockchain/contracts/Polygon/Pool/Prototype/pool/logic.sol\":2202:2231  _recipient.transfer( _value ) */\n      dup2\n        /* \"blockchain/contracts/Polygon/Pool/Prototype/pool/logic.sol\":2108:2134  address payable _recipient */\n      dup2\n        /* \"blockchain/contracts/Polygon/Pool/Prototype/pool/logic.sol\":2202:2231  _recipient.transfer( _value ) */\n      dup2\n        /* \"blockchain/contracts/Polygon/Pool/Prototype/pool/logic.sol\":2223:2229  _value */\n      dup6\n        /* \"blockchain/contracts/Polygon/Pool/Prototype/pool/logic.sol\":2202:2221  _recipient.transfer */\n      dup9\n        /* \"blockchain/contracts/Polygon/Pool/Prototype/pool/logic.sol\":2202:2231  _recipient.transfer( _value ) */\n      dup9\n      call\n      swap4\n      pop\n      pop\n      pop\n      pop\n      iszero\n      dup1\n      iszero\n      tag_90\n      jumpi\n      returndatasize\n      0x00\n      dup1\n      returndatacopy\n      revert(0x00, returndatasize)\n    tag_90:\n      pop\n        /* \"blockchain/contracts/Polygon/Pool/Prototype/pool/logic.sol\":2018:2239  {... */\n      pop\n        /* \"blockchain/contracts/Polygon/Pool/Prototype/pool/logic.sol\":1960:2239  function withdraw_( address _to, uint256 _value ) private {... */\n      pop\n      pop\n      jump\t// out\n        /* \"blockchain/contracts/Polygon/Pool/Prototype/pool/logic.sol\":1810:1954  function deposit_( uint256 _value ) private {... */\n    tag_70:\n        /* \"blockchain/contracts/Polygon/Pool/Prototype/pool/logic.sol\":1865:1884  address payable _to */\n      0x00\n        /* \"blockchain/contracts/Polygon/Pool/Prototype/pool/logic.sol\":1905:1910  state */\n      dup1\n      sload\n        /* \"blockchain/contracts/Polygon/Pool/Prototype/pool/logic.sol\":1924:1946  _to.transfer( _value ) */\n      mload(0x40)\n      sub(shl(0xa0, 0x01), 0x01)\n        /* \"blockchain/contracts/Polygon/Pool/Prototype/pool/logic.sol\":1905:1910  state */\n      swap1\n      swap2\n      and\n      swap2\n      dup3\n      swap2\n        /* \"blockchain/contracts/Polygon/Pool/Prototype/pool/logic.sol\":1924:1946  _to.transfer( _value ) */\n      dup5\n      iszero\n      0x08fc\n      mul\n      swap2\n        /* \"blockchain/contracts/Polygon/Pool/Prototype/pool/logic.sol\":1938:1944  _value */\n      dup6\n      swap2\n        /* \"blockchain/contracts/Polygon/Pool/Prototype/pool/logic.sol\":1924:1946  _to.transfer( _value ) */\n      swap1\n      dup2\n        /* \"blockchain/contracts/Polygon/Pool/Prototype/pool/logic.sol\":1865:1884  address payable _to */\n      dup2\n        /* \"blockchain/contracts/Polygon/Pool/Prototype/pool/logic.sol\":1924:1946  _to.transfer( _value ) */\n      dup2\n        /* \"blockchain/contracts/Polygon/Pool/Prototype/pool/logic.sol\":1938:1944  _value */\n      dup6\n        /* \"blockchain/contracts/Polygon/Pool/Prototype/pool/logic.sol\":1905:1910  state */\n      dup9\n        /* \"blockchain/contracts/Polygon/Pool/Prototype/pool/logic.sol\":1924:1946  _to.transfer( _value ) */\n      dup9\n      call\n      swap4\n      pop\n      pop\n      pop\n      pop\n      iszero\n      dup1\n      iszero\n      tag_93\n      jumpi\n      returndatasize\n      0x00\n      dup1\n      returndatacopy\n      revert(0x00, returndatasize)\n    tag_93:\n      pop\n        /* \"blockchain/contracts/Polygon/Pool/Prototype/pool/logic.sol\":1854:1954  {... */\n      pop\n        /* \"blockchain/contracts/Polygon/Pool/Prototype/pool/logic.sol\":1810:1954  function deposit_( uint256 _value ) private {... */\n      pop\n      jump\t// out\n        /* \"blockchain/contracts/Polygon/Pool/Prototype/pool/logic.sol\":2956:3162  function mint_( uint256 _value ) private {... */\n    tag_72:\n        /* \"blockchain/contracts/Polygon/Pool/Prototype/pool/logic.sol\":3081:3093  native_token */\n      sload(0x01)\n        /* \"blockchain/contracts/Polygon/Pool/Prototype/pool/logic.sol\":3081:3108  native_token.mint( _value ) */\n      mload(0x40)\n      shl(0xe3, 0x140e25ad)\n      dup2\n      mstore\n      0x04\n      dup2\n      add\n        /* \"#utility.yul\":1266:1291   */\n      dup4\n      swap1\n      mstore\n        /* \"blockchain/contracts/Polygon/Pool/Prototype/pool/logic.sol\":3022:3032  msg.sender */\n      caller\n      swap2\n      sub(shl(0xa0, 0x01), 0x01)\n        /* \"blockchain/contracts/Polygon/Pool/Prototype/pool/logic.sol\":3081:3093  native_token */\n      and\n      swap1\n        /* \"blockchain/contracts/Polygon/Pool/Prototype/pool/logic.sol\":3081:3098  native_token.mint */\n      0xa0712d68\n      swap1\n        /* \"#utility.yul\":1239:1257   */\n      0x24\n      add\n        /* \"blockchain/contracts/Polygon/Pool/Prototype/pool/logic.sol\":3081:3108  native_token.mint( _value ) */\n      0x00\n      mload(0x40)\n      dup1\n      dup4\n      sub\n      dup2\n      0x00\n      dup8\n      dup1\n      extcodesize\n      iszero\n      dup1\n      iszero\n      tag_96\n      jumpi\n      0x00\n      dup1\n      revert\n    tag_96:\n      pop\n      gas\n      call\n      iszero\n      dup1\n      iszero\n      tag_98\n      jumpi\n      returndatasize\n      0x00\n      dup1\n      returndatacopy\n      revert(0x00, returndatasize)\n    tag_98:\n      pop\n      pop\n        /* \"blockchain/contracts/Polygon/Pool/Prototype/pool/logic.sol\":3118:3130  native_token */\n      sload(0x01)\n        /* \"blockchain/contracts/Polygon/Pool/Prototype/pool/logic.sol\":3118:3154  native_token.transfer( _to, _value ) */\n      mload(0x40)\n      shl(0xe0, 0xa9059cbb)\n      dup2\n      mstore\n      sub(shl(0xa0, 0x01), 0x01)\n        /* \"#utility.yul\":3869:3901   */\n      dup6\n      dup2\n      and\n        /* \"blockchain/contracts/Polygon/Pool/Prototype/pool/logic.sol\":3118:3154  native_token.transfer( _to, _value ) */\n      0x04\n      dup4\n      add\n        /* \"#utility.yul\":3851:3902   */\n      mstore\n        /* \"#utility.yul\":3918:3936   */\n      0x24\n      dup3\n      add\n        /* \"#utility.yul\":3911:3945   */\n      dup8\n      swap1\n      mstore\n        /* \"blockchain/contracts/Polygon/Pool/Prototype/pool/logic.sol\":3118:3130  native_token */\n      swap1\n      swap2\n      and\n      swap3\n      pop\n        /* \"blockchain/contracts/Polygon/Pool/Prototype/pool/logic.sol\":3118:3139  native_token.transfer */\n      0xa9059cbb\n      swap2\n      pop\n        /* \"#utility.yul\":3824:3842   */\n      0x44\n      add\n        /* \"blockchain/contracts/Polygon/Pool/Prototype/pool/logic.sol\":3118:3154  native_token.transfer( _to, _value ) */\n      0x20\n      mload(0x40)\n      dup1\n      dup4\n      sub\n      dup2\n      0x00\n      dup8\n      gas\n      call\n      iszero\n      dup1\n      iszero\n      tag_102\n      jumpi\n      returndatasize\n      0x00\n      dup1\n      returndatacopy\n      revert(0x00, returndatasize)\n    tag_102:\n      pop\n      pop\n      pop\n      pop\n      mload(0x40)\n      returndatasize\n      not(0x1f)\n      0x1f\n      dup3\n      add\n      and\n      dup3\n      add\n      dup1\n      0x40\n      mstore\n      pop\n      dup2\n      add\n      swap1\n      tag_93\n      swap2\n      swap1\n      tag_79\n      jump\t// in\n        /* \"#utility.yul\":222:402   */\n    tag_14:\n        /* \"#utility.yul\":281:287   */\n      0x00\n        /* \"#utility.yul\":334:336   */\n      0x20\n        /* \"#utility.yul\":322:331   */\n      dup3\n        /* \"#utility.yul\":313:320   */\n      dup5\n        /* \"#utility.yul\":309:332   */\n      sub\n        /* \"#utility.yul\":305:337   */\n      slt\n        /* \"#utility.yul\":302:354   */\n      iszero\n      tag_108\n      jumpi\n        /* \"#utility.yul\":350:351   */\n      0x00\n        /* \"#utility.yul\":347:348   */\n      dup1\n        /* \"#utility.yul\":340:352   */\n      revert\n        /* \"#utility.yul\":302:354   */\n    tag_108:\n      pop\n        /* \"#utility.yul\":373:396   */\n      calldataload\n      swap2\n        /* \"#utility.yul\":222:402   */\n      swap1\n      pop\n      jump\t// out\n        /* \"#utility.yul\":599:783   */\n    tag_31:\n        /* \"#utility.yul\":669:675   */\n      0x00\n        /* \"#utility.yul\":722:724   */\n      0x20\n        /* \"#utility.yul\":710:719   */\n      dup3\n        /* \"#utility.yul\":701:708   */\n      dup5\n        /* \"#utility.yul\":697:720   */\n      sub\n        /* \"#utility.yul\":693:725   */\n      slt\n        /* \"#utility.yul\":690:742   */\n      iszero\n      tag_111\n      jumpi\n        /* \"#utility.yul\":738:739   */\n      0x00\n        /* \"#utility.yul\":735:736   */\n      dup1\n        /* \"#utility.yul\":728:740   */\n      revert\n        /* \"#utility.yul\":690:742   */\n    tag_111:\n      pop\n        /* \"#utility.yul\":761:777   */\n      mload\n      swap2\n        /* \"#utility.yul\":599:783   */\n      swap1\n      pop\n      jump\t// out\n        /* \"#utility.yul\":1302:1466   */\n    tag_104:\n        /* \"#utility.yul\":1378:1391   */\n      dup1\n      mload\n        /* \"#utility.yul\":1427:1440   */\n      dup1\n      iszero\n        /* \"#utility.yul\":1420:1441   */\n      iszero\n        /* \"#utility.yul\":1410:1442   */\n      dup2\n      eq\n        /* \"#utility.yul\":1400:1460   */\n      tag_115\n      jumpi\n        /* \"#utility.yul\":1456:1457   */\n      0x00\n        /* \"#utility.yul\":1453:1454   */\n      dup1\n        /* \"#utility.yul\":1446:1458   */\n      revert\n        /* \"#utility.yul\":1400:1460   */\n    tag_115:\n        /* \"#utility.yul\":1302:1466   */\n      swap2\n      swap1\n      pop\n      jump\t// out\n        /* \"#utility.yul\":1471:2291   */\n    tag_48:\n        /* \"#utility.yul\":1565:1571   */\n      0x00\n        /* \"#utility.yul\":1618:1621   */\n      0xa0\n        /* \"#utility.yul\":1606:1615   */\n      dup3\n        /* \"#utility.yul\":1597:1604   */\n      dup5\n        /* \"#utility.yul\":1593:1616   */\n      sub\n        /* \"#utility.yul\":1589:1622   */\n      slt\n        /* \"#utility.yul\":1586:1639   */\n      iszero\n      tag_117\n      jumpi\n        /* \"#utility.yul\":1635:1636   */\n      0x00\n        /* \"#utility.yul\":1632:1633   */\n      dup1\n        /* \"#utility.yul\":1625:1637   */\n      revert\n        /* \"#utility.yul\":1586:1639   */\n    tag_117:\n        /* \"#utility.yul\":1668:1670   */\n      0x40\n        /* \"#utility.yul\":1662:1671   */\n      mload\n        /* \"#utility.yul\":1710:1713   */\n      0xa0\n        /* \"#utility.yul\":1702:1708   */\n      dup2\n        /* \"#utility.yul\":1698:1714   */\n      add\n        /* \"#utility.yul\":1780:1786   */\n      dup2\n        /* \"#utility.yul\":1768:1778   */\n      dup2\n        /* \"#utility.yul\":1765:1787   */\n      lt\n        /* \"#utility.yul\":1744:1762   */\n      0xffffffffffffffff\n        /* \"#utility.yul\":1732:1742   */\n      dup3\n        /* \"#utility.yul\":1729:1763   */\n      gt\n        /* \"#utility.yul\":1726:1788   */\n      or\n        /* \"#utility.yul\":1723:1908   */\n      iszero\n      tag_118\n      jumpi\n        /* \"#utility.yul\":1830:1840   */\n      0x4e487b71\n        /* \"#utility.yul\":1825:1828   */\n      0xe0\n        /* \"#utility.yul\":1821:1841   */\n      shl\n        /* \"#utility.yul\":1818:1819   */\n      0x00\n        /* \"#utility.yul\":1811:1842   */\n      mstore\n        /* \"#utility.yul\":1865:1869   */\n      0x41\n        /* \"#utility.yul\":1862:1863   */\n      0x04\n        /* \"#utility.yul\":1855:1870   */\n      mstore\n        /* \"#utility.yul\":1893:1897   */\n      0x24\n        /* \"#utility.yul\":1890:1891   */\n      0x00\n        /* \"#utility.yul\":1883:1898   */\n      revert\n        /* \"#utility.yul\":1723:1908   */\n    tag_118:\n        /* \"#utility.yul\":1928:1938   */\n      dup1\n        /* \"#utility.yul\":1924:1926   */\n      0x40\n        /* \"#utility.yul\":1917:1939   */\n      mstore\n      pop\n        /* \"#utility.yul\":1969:1978   */\n      dup3\n        /* \"#utility.yul\":1963:1979   */\n      mload\n        /* \"#utility.yul\":1955:1961   */\n      dup2\n        /* \"#utility.yul\":1948:1980   */\n      mstore\n        /* \"#utility.yul\":2034:2036   */\n      0x20\n        /* \"#utility.yul\":2023:2032   */\n      dup4\n        /* \"#utility.yul\":2019:2037   */\n      add\n        /* \"#utility.yul\":2013:2038   */\n      mload\n        /* \"#utility.yul\":2008:2010   */\n      0x20\n        /* \"#utility.yul\":2000:2006   */\n      dup3\n        /* \"#utility.yul\":1996:2011   */\n      add\n        /* \"#utility.yul\":1989:2039   */\n      mstore\n        /* \"#utility.yul\":2093:2095   */\n      0x40\n        /* \"#utility.yul\":2082:2091   */\n      dup4\n        /* \"#utility.yul\":2078:2096   */\n      add\n        /* \"#utility.yul\":2072:2097   */\n      mload\n        /* \"#utility.yul\":2067:2069   */\n      0x40\n        /* \"#utility.yul\":2059:2065   */\n      dup3\n        /* \"#utility.yul\":2055:2070   */\n      add\n        /* \"#utility.yul\":2048:2098   */\n      mstore\n        /* \"#utility.yul\":2131:2177   */\n      tag_119\n        /* \"#utility.yul\":2173:2175   */\n      0x60\n        /* \"#utility.yul\":2162:2171   */\n      dup5\n        /* \"#utility.yul\":2158:2176   */\n      add\n        /* \"#utility.yul\":2131:2177   */\n      tag_104\n      jump\t// in\n    tag_119:\n        /* \"#utility.yul\":2126:2128   */\n      0x60\n        /* \"#utility.yul\":2118:2124   */\n      dup3\n        /* \"#utility.yul\":2114:2129   */\n      add\n        /* \"#utility.yul\":2107:2178   */\n      mstore\n        /* \"#utility.yul\":2212:2259   */\n      tag_120\n        /* \"#utility.yul\":2254:2257   */\n      0x80\n        /* \"#utility.yul\":2243:2252   */\n      dup5\n        /* \"#utility.yul\":2239:2258   */\n      add\n        /* \"#utility.yul\":2212:2259   */\n      tag_104\n      jump\t// in\n    tag_120:\n        /* \"#utility.yul\":2206:2209   */\n      0x80\n        /* \"#utility.yul\":2194:2210   */\n      dup3\n      add\n        /* \"#utility.yul\":2187:2260   */\n      mstore\n        /* \"#utility.yul\":2198:2204   */\n      swap4\n        /* \"#utility.yul\":1471:2291   */\n      swap3\n      pop\n      pop\n      pop\n      jump\t// out\n        /* \"#utility.yul\":2296:2521   */\n    tag_53:\n        /* \"#utility.yul\":2363:2372   */\n      dup2\n      dup2\n      sub\n        /* \"#utility.yul\":2384:2395   */\n      dup2\n      dup2\n      gt\n        /* \"#utility.yul\":2381:2515   */\n      iszero\n      tag_122\n      jumpi\n        /* \"#utility.yul\":2437:2447   */\n      0x4e487b71\n        /* \"#utility.yul\":2432:2435   */\n      0xe0\n        /* \"#utility.yul\":2428:2448   */\n      shl\n        /* \"#utility.yul\":2425:2426   */\n      0x00\n        /* \"#utility.yul\":2418:2449   */\n      mstore\n        /* \"#utility.yul\":2472:2476   */\n      0x11\n        /* \"#utility.yul\":2469:2470   */\n      0x04\n        /* \"#utility.yul\":2462:2477   */\n      mstore\n        /* \"#utility.yul\":2500:2504   */\n      0x24\n        /* \"#utility.yul\":2497:2498   */\n      0x00\n        /* \"#utility.yul\":2490:2505   */\n      revert\n        /* \"#utility.yul\":2381:2515   */\n    tag_122:\n        /* \"#utility.yul\":2296:2521   */\n      swap3\n      swap2\n      pop\n      pop\n      jump\t// out\n        /* \"#utility.yul\":2526:3085   */\n    tag_66:\n        /* \"#utility.yul\":2620:2626   */\n      0x00\n        /* \"#utility.yul\":2673:2675   */\n      0x20\n        /* \"#utility.yul\":2661:2670   */\n      dup3\n        /* \"#utility.yul\":2652:2659   */\n      dup5\n        /* \"#utility.yul\":2648:2671   */\n      sub\n        /* \"#utility.yul\":2644:2676   */\n      slt\n        /* \"#utility.yul\":2641:2693   */\n      iszero\n      tag_124\n      jumpi\n        /* \"#utility.yul\":2689:2690   */\n      0x00\n        /* \"#utility.yul\":2686:2687   */\n      dup1\n        /* \"#utility.yul\":2679:2691   */\n      revert\n        /* \"#utility.yul\":2641:2693   */\n    tag_124:\n        /* \"#utility.yul\":2722:2724   */\n      0x40\n        /* \"#utility.yul\":2716:2725   */\n      mload\n        /* \"#utility.yul\":2764:2766   */\n      0x20\n        /* \"#utility.yul\":2756:2762   */\n      dup2\n        /* \"#utility.yul\":2752:2767   */\n      add\n        /* \"#utility.yul\":2833:2839   */\n      dup2\n        /* \"#utility.yul\":2821:2831   */\n      dup2\n        /* \"#utility.yul\":2818:2840   */\n      lt\n        /* \"#utility.yul\":2797:2815   */\n      0xffffffffffffffff\n        /* \"#utility.yul\":2785:2795   */\n      dup3\n        /* \"#utility.yul\":2782:2816   */\n      gt\n        /* \"#utility.yul\":2779:2841   */\n      or\n        /* \"#utility.yul\":2776:2961   */\n      iszero\n      tag_125\n      jumpi\n        /* \"#utility.yul\":2883:2893   */\n      0x4e487b71\n        /* \"#utility.yul\":2878:2881   */\n      0xe0\n        /* \"#utility.yul\":2874:2894   */\n      shl\n        /* \"#utility.yul\":2871:2872   */\n      0x00\n        /* \"#utility.yul\":2864:2895   */\n      mstore\n        /* \"#utility.yul\":2918:2922   */\n      0x41\n        /* \"#utility.yul\":2915:2916   */\n      0x04\n        /* \"#utility.yul\":2908:2923   */\n      mstore\n        /* \"#utility.yul\":2946:2950   */\n      0x24\n        /* \"#utility.yul\":2943:2944   */\n      0x00\n        /* \"#utility.yul\":2936:2951   */\n      revert\n        /* \"#utility.yul\":2776:2961   */\n    tag_125:\n        /* \"#utility.yul\":2977:2979   */\n      0x40\n        /* \"#utility.yul\":2970:2992   */\n      mstore\n        /* \"#utility.yul\":3016:3053   */\n      tag_126\n        /* \"#utility.yul\":3043:3052   */\n      dup4\n        /* \"#utility.yul\":3016:3053   */\n      tag_104\n      jump\t// in\n    tag_126:\n        /* \"#utility.yul\":3001:3054   */\n      dup2\n      mstore\n        /* \"#utility.yul\":3008:3014   */\n      swap4\n        /* \"#utility.yul\":2526:3085   */\n      swap3\n      pop\n      pop\n      pop\n      jump\t// out\n        /* \"#utility.yul\":3470:3672   */\n    tag_79:\n        /* \"#utility.yul\":3537:3543   */\n      0x00\n        /* \"#utility.yul\":3590:3592   */\n      0x20\n        /* \"#utility.yul\":3578:3587   */\n      dup3\n        /* \"#utility.yul\":3569:3576   */\n      dup5\n        /* \"#utility.yul\":3565:3588   */\n      sub\n        /* \"#utility.yul\":3561:3593   */\n      slt\n        /* \"#utility.yul\":3558:3610   */\n      iszero\n      tag_129\n      jumpi\n        /* \"#utility.yul\":3606:3607   */\n      0x00\n        /* \"#utility.yul\":3603:3604   */\n      dup1\n        /* \"#utility.yul\":3596:3608   */\n      revert\n        /* \"#utility.yul\":3558:3610   */\n    tag_129:\n        /* \"#utility.yul\":3629:3666   */\n      tag_130\n        /* \"#utility.yul\":3656:3665   */\n      dup3\n        /* \"#utility.yul\":3629:3666   */\n      tag_104\n      jump\t// in\n    tag_130:\n        /* \"#utility.yul\":3619:3666   */\n      swap4\n        /* \"#utility.yul\":3470:3672   */\n      swap3\n      pop\n      pop\n      pop\n      jump\t// out\n\n    auxdata: 0xa26469706673582212205056f98671fbb0111a5481e22563eaeaf9189bf068088ed1282a12fc31a724f164736f6c63430008120033\n}\n\nsub_1: assembly {\n        /* \"blockchain/contracts/Polygon/Pool/Prototype/pool/state.sol\":910:3961  contract State is IState, Safety, Authenticator {... */\n      mstore(0x40, 0x80)\n        /* \"blockchain/contracts/Polygon/Pool/Prototype/pool/state.sol\":1374:2722  constructor(... */\n      callvalue\n      dup1\n      iszero\n      tag_1\n      jumpi\n      0x00\n      dup1\n      revert\n    tag_1:\n      pop\n      mload(0x40)\n      sub(codesize, bytecodeSize)\n      dup1\n      bytecodeSize\n      dup4\n      codecopy\n      dup2\n      add\n      0x40\n      dup2\n      swap1\n      mstore\n      tag_2\n      swap2\n      tag_3\n      jump\t// in\n    tag_2:\n        /* \"blockchain/contracts/Polygon/Pool/Prototype/pool/state.sol\":1644:1669  uint256 _funding_duration */\n      0x00\n        /* \"blockchain/contracts/Polygon/Pool/Prototype/pool/state.sol\":1672:1701  _funding_end - _funding_start */\n      tag_6\n        /* \"blockchain/contracts/Polygon/Pool/Prototype/pool/state.sol\":1687:1701  _funding_start */\n      dup6\n        /* \"blockchain/contracts/Polygon/Pool/Prototype/pool/state.sol\":1672:1684  _funding_end */\n      dup6\n        /* \"blockchain/contracts/Polygon/Pool/Prototype/pool/state.sol\":1672:1701  _funding_end - _funding_start */\n      tag_7\n      jump\t// in\n    tag_6:\n        /* \"blockchain/contracts/Polygon/Pool/Prototype/pool/state.sol\":1644:1701  uint256 _funding_duration = _funding_end - _funding_start */\n      swap1\n      pop\n        /* \"blockchain/contracts/Polygon/Pool/Prototype/pool/state.sol\":1743:1750  1 weeks */\n      0x093a80\n        /* \"blockchain/contracts/Polygon/Pool/Prototype/pool/state.sol\":1792:1799  9 weeks */\n      0x530e80\n        /* \"blockchain/contracts/Polygon/Pool/Prototype/pool/state.sol\":1819:1861  _funding_required >= _funding_min_duration */\n      dup2\n      dup6\n      lt\n      iszero\n        /* \"blockchain/contracts/Polygon/Pool/Prototype/pool/state.sol\":1810:1863  require( _funding_required >= _funding_min_duration ) */\n      tag_8\n      jumpi\n      0x00\n      dup1\n      revert\n    tag_8:\n        /* \"blockchain/contracts/Polygon/Pool/Prototype/pool/state.sol\":1903:1924  _funding_max_duration */\n      dup1\n        /* \"blockchain/contracts/Polygon/Pool/Prototype/pool/state.sol\":1882:1899  _funding_duration */\n      dup4\n        /* \"blockchain/contracts/Polygon/Pool/Prototype/pool/state.sol\":1882:1924  _funding_duration >= _funding_max_duration */\n      lt\n      iszero\n        /* \"blockchain/contracts/Polygon/Pool/Prototype/pool/state.sol\":1873:1926  require( _funding_duration >= _funding_max_duration ) */\n      tag_9\n      jumpi\n      0x00\n      dup1\n      revert\n    tag_9:\n        /* \"blockchain/contracts/Polygon/Pool/Prototype/pool/state.sol\":1952:2147  Funding({... */\n      0x40\n      dup1\n      mload\n      0xa0\n      dup2\n      add\n      dup3\n      mstore\n      dup9\n      dup2\n      mstore\n      0x20\n      dup1\n      dup3\n      add\n      dup10\n      dup2\n      mstore\n      swap3\n      dup3\n      add\n      dup9\n      dup2\n      mstore\n      dup8\n      iszero\n      iszero\n      0x60\n      dup5\n      add\n      swap1\n      dup2\n      mstore\n      0x00\n      0x80\n      dup6\n      add\n      dup2\n      dup2\n      mstore\n        /* \"blockchain/contracts/Polygon/Pool/Prototype/pool/state.sol\":1937:1949  funding[ 0 ] */\n      dup2\n      dup1\n      mstore\n        /* \"blockchain/contracts/Polygon/Pool/Prototype/pool/state.sol\":1937:1944  funding */\n      0x07\n        /* \"blockchain/contracts/Polygon/Pool/Prototype/pool/state.sol\":1937:1949  funding[ 0 ] */\n      swap1\n      swap5\n      mstore\n        /* \"blockchain/contracts/Polygon/Pool/Prototype/pool/state.sol\":1937:2147  funding[ 0 ] = Funding({... */\n      swap4\n      mload\n        /* \"blockchain/contracts/Polygon/Pool/Prototype/pool/state.sol\":1937:1949  funding[ 0 ] */\n      0x6d5257204ebe7d88fd91ae87941cb2dd9d8062b64ae5a2bd2d28ec40b9fbf6df\n        /* \"blockchain/contracts/Polygon/Pool/Prototype/pool/state.sol\":1937:2147  funding[ 0 ] = Funding({... */\n      sstore\n      swap4\n      mload\n      0x6d5257204ebe7d88fd91ae87941cb2dd9d8062b64ae5a2bd2d28ec40b9fbf6e0\n      sstore\n      mload\n      0x6d5257204ebe7d88fd91ae87941cb2dd9d8062b64ae5a2bd2d28ec40b9fbf6e1\n      sstore\n      swap2\n      mload\n      0x00\n      dup1\n      mload\n      0x20\n      data_47155488885ffbdd271bee987ae02acf8bc50c4611fc28ba1a528fcd613acebb\n      dup4\n      codecopy\n      dup2\n      mload\n      swap2\n      mstore\n      dup1\n      sload\n      swap4\n      mload\n      iszero\n      iszero\n      0x0100\n      mul\n      not(0xff00)\n      swap3\n      iszero\n      iszero\n      swap3\n      swap1\n      swap3\n      and\n      not(0xffff)\n      swap1\n      swap5\n      and\n      swap4\n      swap1\n      swap4\n      or\n      or\n      swap1\n      swap2\n      sstore\n        /* \"blockchain/contracts/Polygon/Pool/Prototype/pool/state.sol\":2163:2185  _funding_required == 0 */\n      dup6\n      swap1\n      sub\n        /* \"blockchain/contracts/Polygon/Pool/Prototype/pool/state.sol\":2158:2220  if ( _funding_required == 0 ) { funding[ 0 ].success = true; } */\n      tag_10\n      jumpi\n        /* \"blockchain/contracts/Polygon/Pool/Prototype/pool/state.sol\":2190:2202  funding[ 0 ] */\n      0x00\n      dup1\n      mstore\n        /* \"blockchain/contracts/Polygon/Pool/Prototype/pool/state.sol\":2190:2197  funding */\n      0x07\n        /* \"blockchain/contracts/Polygon/Pool/Prototype/pool/state.sol\":2190:2202  funding[ 0 ] */\n      0x20\n      mstore\n      0x00\n      dup1\n      mload\n      0x20\n      data_47155488885ffbdd271bee987ae02acf8bc50c4611fc28ba1a528fcd613acebb\n      dup4\n      codecopy\n      dup2\n      mload\n      swap2\n      mstore\n        /* \"blockchain/contracts/Polygon/Pool/Prototype/pool/state.sol\":2190:2217  funding[ 0 ].success = true */\n      dup1\n      sload\n      not(0xff00)\n      and\n      0x0100\n      or\n      swap1\n      sstore\n        /* \"blockchain/contracts/Polygon/Pool/Prototype/pool/state.sol\":2158:2220  if ( _funding_required == 0 ) { funding[ 0 ].success = true; } */\n    tag_10:\n      sub(shl(0xa0, 0x01), 0x01)\n        /* \"blockchain/contracts/Polygon/Pool/Prototype/pool/state.sol\":2239:2261  _admin != address( 0 ) */\n      dup12\n      and\n        /* \"blockchain/contracts/Polygon/Pool/Prototype/pool/state.sol\":2230:2262  require( _admin != address( 0 )) */\n      tag_11\n      jumpi\n      0x00\n      dup1\n      revert\n    tag_11:\n      sub(shl(0xa0, 0x01), 0x01)\n        /* \"blockchain/contracts/Polygon/Pool/Prototype/pool/state.sol\":2281:2305  _manager != address( 0 ) */\n      dup11\n      and\n        /* \"blockchain/contracts/Polygon/Pool/Prototype/pool/state.sol\":2272:2306  require( _manager != address( 0 )) */\n      tag_12\n      jumpi\n      0x00\n      dup1\n      revert\n    tag_12:\n        /* \"blockchain/contracts/Polygon/Pool/Prototype/pool/state.sol\":2317:2322  admin */\n      0x00\n        /* \"blockchain/contracts/Polygon/Pool/Prototype/pool/state.sol\":2317:2331  admin = _admin */\n      dup1\n      sload\n      not(sub(shl(0xa8, 0x01), 0x0100))\n      and\n      0x0100\n      sub(shl(0xa0, 0x01), 0x01)\n      dup15\n      dup2\n      and\n      swap2\n      swap1\n      swap2\n      mul\n      swap2\n      swap1\n      swap2\n      or\n      swap1\n      swap2\n      sstore\n      0x01\n        /* \"blockchain/contracts/Polygon/Pool/Prototype/pool/state.sol\":2341:2359  manager = _manager */\n      dup1\n      sload\n      not(sub(shl(0xa0, 0x01), 0x01))\n      and\n      swap2\n      dup13\n      and\n      swap2\n      swap1\n      swap2\n      or\n      swap1\n      sstore\n        /* \"blockchain/contracts/Polygon/Pool/Prototype/pool/state.sol\":2369:2373  name */\n      0x03\n        /* \"blockchain/contracts/Polygon/Pool/Prototype/pool/state.sol\":2369:2381  name = _name */\n      tag_13\n        /* \"blockchain/contracts/Polygon/Pool/Prototype/pool/state.sol\":2376:2381  _name */\n      dup11\n        /* \"blockchain/contracts/Polygon/Pool/Prototype/pool/state.sol\":2369:2373  name */\n      dup3\n        /* \"blockchain/contracts/Polygon/Pool/Prototype/pool/state.sol\":2369:2381  name = _name */\n      tag_14\n      jump\t// in\n    tag_13:\n      pop\n        /* \"blockchain/contracts/Polygon/Pool/Prototype/pool/state.sol\":2391:2402  description */\n      0x04\n        /* \"blockchain/contracts/Polygon/Pool/Prototype/pool/state.sol\":2391:2417  description = _description */\n      tag_15\n        /* \"blockchain/contracts/Polygon/Pool/Prototype/pool/state.sol\":2405:2417  _description */\n      dup10\n        /* \"blockchain/contracts/Polygon/Pool/Prototype/pool/state.sol\":2391:2402  description */\n      dup3\n        /* \"blockchain/contracts/Polygon/Pool/Prototype/pool/state.sol\":2391:2417  description = _description */\n      tag_14\n      jump\t// in\n    tag_15:\n      pop\n        /* \"blockchain/contracts/Polygon/Pool/Prototype/pool/state.sol\":2439:2454  block.timestamp */\n      timestamp\n        /* \"blockchain/contracts/Polygon/Pool/Prototype/pool/state.sol\":2427:2436  inception */\n      0x05\n        /* \"blockchain/contracts/Polygon/Pool/Prototype/pool/state.sol\":2427:2454  inception = block.timestamp */\n      dup2\n      swap1\n      sstore\n      pop\n        /* \"blockchain/contracts/Polygon/Pool/Prototype/pool/state.sol\":2516:2524  _manager */\n      dup10\n      sub(shl(0xa0, 0x01), 0x01)\n        /* \"blockchain/contracts/Polygon/Pool/Prototype/pool/state.sol\":2470:2714  PoolFounded(... */\n      and\n        /* \"blockchain/contracts/Polygon/Pool/Prototype/pool/state.sol\":2496:2502  _admin */\n      dup12\n      sub(shl(0xa0, 0x01), 0x01)\n        /* \"blockchain/contracts/Polygon/Pool/Prototype/pool/state.sol\":2470:2714  PoolFounded(... */\n      and\n      0xa9791d0b29cae9f1171eeb4160f282930ca6a1ee4f5d2760fdb5bee857b6057e\n        /* \"blockchain/contracts/Polygon/Pool/Prototype/pool/state.sol\":2538:2543  _name */\n      dup12\n        /* \"blockchain/contracts/Polygon/Pool/Prototype/pool/state.sol\":2557:2569  _description */\n      dup12\n        /* \"blockchain/contracts/Polygon/Pool/Prototype/pool/state.sol\":2583:2592  inception */\n      sload(0x05)\n        /* \"blockchain/contracts/Polygon/Pool/Prototype/pool/state.sol\":2606:2620  _funding_start */\n      dup13\n        /* \"blockchain/contracts/Polygon/Pool/Prototype/pool/state.sol\":2634:2646  _funding_end */\n      dup13\n        /* \"blockchain/contracts/Polygon/Pool/Prototype/pool/state.sol\":2660:2677  _funding_required */\n      dup13\n        /* \"blockchain/contracts/Polygon/Pool/Prototype/pool/state.sol\":2691:2703  _whitelisted */\n      dup13\n        /* \"blockchain/contracts/Polygon/Pool/Prototype/pool/state.sol\":2470:2714  PoolFounded(... */\n      mload(0x40)\n      tag_16\n      swap8\n      swap7\n      swap6\n      swap5\n      swap4\n      swap3\n      swap2\n      swap1\n      tag_17\n      jump\t// in\n    tag_16:\n      mload(0x40)\n      dup1\n      swap2\n      sub\n      swap1\n      log3\n        /* \"blockchain/contracts/Polygon/Pool/Prototype/pool/state.sol\":1633:2722  {... */\n      pop\n      pop\n      pop\n        /* \"blockchain/contracts/Polygon/Pool/Prototype/pool/state.sol\":1374:2722  constructor(... */\n      pop\n      pop\n      pop\n      pop\n      pop\n      pop\n      pop\n      pop\n        /* \"blockchain/contracts/Polygon/Pool/Prototype/pool/state.sol\":910:3961  contract State is IState, Safety, Authenticator {... */\n      jump(tag_28)\n        /* \"#utility.yul\":14:191   */\n    tag_19:\n        /* \"#utility.yul\":93:106   */\n      dup1\n      mload\n      sub(shl(0xa0, 0x01), 0x01)\n        /* \"#utility.yul\":135:166   */\n      dup2\n      and\n        /* \"#utility.yul\":125:167   */\n      dup2\n      eq\n        /* \"#utility.yul\":115:185   */\n      tag_30\n      jumpi\n        /* \"#utility.yul\":181:182   */\n      0x00\n        /* \"#utility.yul\":178:179   */\n      dup1\n        /* \"#utility.yul\":171:183   */\n      revert\n        /* \"#utility.yul\":115:185   */\n    tag_30:\n        /* \"#utility.yul\":14:191   */\n      swap2\n      swap1\n      pop\n      jump\t// out\n        /* \"#utility.yul\":196:323   */\n    tag_20:\n        /* \"#utility.yul\":257:267   */\n      0x4e487b71\n        /* \"#utility.yul\":252:255   */\n      0xe0\n        /* \"#utility.yul\":248:268   */\n      shl\n        /* \"#utility.yul\":245:246   */\n      0x00\n        /* \"#utility.yul\":238:269   */\n      mstore\n        /* \"#utility.yul\":288:292   */\n      0x41\n        /* \"#utility.yul\":285:286   */\n      0x04\n        /* \"#utility.yul\":278:293   */\n      mstore\n        /* \"#utility.yul\":312:316   */\n      0x24\n        /* \"#utility.yul\":309:310   */\n      0x00\n        /* \"#utility.yul\":302:317   */\n      revert\n        /* \"#utility.yul\":328:578   */\n    tag_21:\n        /* \"#utility.yul\":413:414   */\n      0x00\n        /* \"#utility.yul\":423:536   */\n    tag_33:\n        /* \"#utility.yul\":437:443   */\n      dup4\n        /* \"#utility.yul\":434:435   */\n      dup2\n        /* \"#utility.yul\":431:444   */\n      lt\n        /* \"#utility.yul\":423:536   */\n      iszero\n      tag_35\n      jumpi\n        /* \"#utility.yul\":513:524   */\n      dup2\n      dup2\n      add\n        /* \"#utility.yul\":507:525   */\n      mload\n        /* \"#utility.yul\":494:505   */\n      dup4\n      dup3\n      add\n        /* \"#utility.yul\":487:526   */\n      mstore\n        /* \"#utility.yul\":459:461   */\n      0x20\n        /* \"#utility.yul\":452:462   */\n      add\n        /* \"#utility.yul\":423:536   */\n      jump(tag_33)\n    tag_35:\n      pop\n      pop\n        /* \"#utility.yul\":570:571   */\n      0x00\n        /* \"#utility.yul\":552:568   */\n      swap2\n      add\n        /* \"#utility.yul\":545:572   */\n      mstore\n        /* \"#utility.yul\":328:578   */\n      jump\t// out\n        /* \"#utility.yul\":583:1282   */\n    tag_22:\n        /* \"#utility.yul\":637:642   */\n      0x00\n        /* \"#utility.yul\":690:693   */\n      dup3\n        /* \"#utility.yul\":683:687   */\n      0x1f\n        /* \"#utility.yul\":675:681   */\n      dup4\n        /* \"#utility.yul\":671:688   */\n      add\n        /* \"#utility.yul\":667:694   */\n      slt\n        /* \"#utility.yul\":657:712   */\n      tag_37\n      jumpi\n        /* \"#utility.yul\":708:709   */\n      0x00\n        /* \"#utility.yul\":705:706   */\n      dup1\n        /* \"#utility.yul\":698:710   */\n      revert\n        /* \"#utility.yul\":657:712   */\n    tag_37:\n        /* \"#utility.yul\":731:744   */\n      dup2\n      mload\n      sub(shl(0x40, 0x01), 0x01)\n        /* \"#utility.yul\":793:803   */\n      dup1\n      dup3\n      gt\n        /* \"#utility.yul\":790:826   */\n      iszero\n      tag_39\n      jumpi\n        /* \"#utility.yul\":806:824   */\n      tag_39\n      tag_20\n      jump\t// in\n    tag_39:\n        /* \"#utility.yul\":881:883   */\n      0x40\n        /* \"#utility.yul\":875:884   */\n      mload\n        /* \"#utility.yul\":849:851   */\n      0x1f\n        /* \"#utility.yul\":935:948   */\n      dup4\n      add\n      not(0x1f)\n        /* \"#utility.yul\":931:953   */\n      swap1\n      dup2\n      and\n        /* \"#utility.yul\":955:957   */\n      0x3f\n        /* \"#utility.yul\":927:958   */\n      add\n        /* \"#utility.yul\":923:963   */\n      and\n        /* \"#utility.yul\":911:964   */\n      dup2\n      add\n      swap1\n        /* \"#utility.yul\":979:997   */\n      dup3\n      dup3\n      gt\n        /* \"#utility.yul\":999:1021   */\n      dup2\n      dup4\n      lt\n        /* \"#utility.yul\":976:1022   */\n      or\n        /* \"#utility.yul\":973:1045   */\n      iszero\n      tag_41\n      jumpi\n        /* \"#utility.yul\":1025:1043   */\n      tag_41\n      tag_20\n      jump\t// in\n    tag_41:\n        /* \"#utility.yul\":1065:1075   */\n      dup2\n        /* \"#utility.yul\":1061:1063   */\n      0x40\n        /* \"#utility.yul\":1054:1076   */\n      mstore\n        /* \"#utility.yul\":1100:1102   */\n      dup4\n        /* \"#utility.yul\":1092:1098   */\n      dup2\n        /* \"#utility.yul\":1085:1103   */\n      mstore\n        /* \"#utility.yul\":1146:1149   */\n      dup7\n        /* \"#utility.yul\":1139:1143   */\n      0x20\n        /* \"#utility.yul\":1134:1136   */\n      dup6\n        /* \"#utility.yul\":1126:1132   */\n      dup9\n        /* \"#utility.yul\":1122:1137   */\n      add\n        /* \"#utility.yul\":1118:1144   */\n      add\n        /* \"#utility.yul\":1115:1150   */\n      gt\n        /* \"#utility.yul\":1112:1167   */\n      iszero\n      tag_42\n      jumpi\n        /* \"#utility.yul\":1163:1164   */\n      0x00\n        /* \"#utility.yul\":1160:1161   */\n      dup1\n        /* \"#utility.yul\":1153:1165   */\n      revert\n        /* \"#utility.yul\":1112:1167   */\n    tag_42:\n        /* \"#utility.yul\":1176:1252   */\n      tag_43\n        /* \"#utility.yul\":1249:1251   */\n      dup5\n        /* \"#utility.yul\":1242:1246   */\n      0x20\n        /* \"#utility.yul\":1234:1240   */\n      dup4\n        /* \"#utility.yul\":1230:1247   */\n      add\n        /* \"#utility.yul\":1223:1227   */\n      0x20\n        /* \"#utility.yul\":1215:1221   */\n      dup10\n        /* \"#utility.yul\":1211:1228   */\n      add\n        /* \"#utility.yul\":1176:1252   */\n      tag_21\n      jump\t// in\n    tag_43:\n        /* \"#utility.yul\":1270:1276   */\n      swap7\n        /* \"#utility.yul\":583:1282   */\n      swap6\n      pop\n      pop\n      pop\n      pop\n      pop\n      pop\n      jump\t// out\n        /* \"#utility.yul\":1287:2361   */\n    tag_3:\n        /* \"#utility.yul\":1437:1443   */\n      0x00\n        /* \"#utility.yul\":1445:1451   */\n      dup1\n        /* \"#utility.yul\":1453:1459   */\n      0x00\n        /* \"#utility.yul\":1461:1467   */\n      dup1\n        /* \"#utility.yul\":1469:1475   */\n      0x00\n        /* \"#utility.yul\":1477:1483   */\n      dup1\n        /* \"#utility.yul\":1485:1491   */\n      0x00\n        /* \"#utility.yul\":1493:1499   */\n      dup1\n        /* \"#utility.yul\":1546:1549   */\n      0x0100\n        /* \"#utility.yul\":1534:1543   */\n      dup10\n        /* \"#utility.yul\":1525:1532   */\n      dup12\n        /* \"#utility.yul\":1521:1544   */\n      sub\n        /* \"#utility.yul\":1517:1550   */\n      slt\n        /* \"#utility.yul\":1514:1567   */\n      iszero\n      tag_45\n      jumpi\n        /* \"#utility.yul\":1563:1564   */\n      0x00\n        /* \"#utility.yul\":1560:1561   */\n      dup1\n        /* \"#utility.yul\":1553:1565   */\n      revert\n        /* \"#utility.yul\":1514:1567   */\n    tag_45:\n        /* \"#utility.yul\":1586:1626   */\n      tag_46\n        /* \"#utility.yul\":1616:1625   */\n      dup10\n        /* \"#utility.yul\":1586:1626   */\n      tag_19\n      jump\t// in\n    tag_46:\n        /* \"#utility.yul\":1576:1626   */\n      swap8\n      pop\n        /* \"#utility.yul\":1645:1694   */\n      tag_47\n        /* \"#utility.yul\":1690:1692   */\n      0x20\n        /* \"#utility.yul\":1679:1688   */\n      dup11\n        /* \"#utility.yul\":1675:1693   */\n      add\n        /* \"#utility.yul\":1645:1694   */\n      tag_19\n      jump\t// in\n    tag_47:\n        /* \"#utility.yul\":1738:1740   */\n      0x40\n        /* \"#utility.yul\":1723:1741   */\n      dup11\n      add\n        /* \"#utility.yul\":1717:1742   */\n      mload\n        /* \"#utility.yul\":1635:1694   */\n      swap1\n      swap8\n      pop\n      sub(shl(0x40, 0x01), 0x01)\n        /* \"#utility.yul\":1791:1805   */\n      dup1\n      dup3\n      gt\n        /* \"#utility.yul\":1788:1822   */\n      iszero\n      tag_48\n      jumpi\n        /* \"#utility.yul\":1818:1819   */\n      0x00\n        /* \"#utility.yul\":1815:1816   */\n      dup1\n        /* \"#utility.yul\":1808:1820   */\n      revert\n        /* \"#utility.yul\":1788:1822   */\n    tag_48:\n        /* \"#utility.yul\":1841:1902   */\n      tag_49\n        /* \"#utility.yul\":1894:1901   */\n      dup13\n        /* \"#utility.yul\":1885:1891   */\n      dup4\n        /* \"#utility.yul\":1874:1883   */\n      dup14\n        /* \"#utility.yul\":1870:1892   */\n      add\n        /* \"#utility.yul\":1841:1902   */\n      tag_22\n      jump\t// in\n    tag_49:\n        /* \"#utility.yul\":1831:1902   */\n      swap8\n      pop\n        /* \"#utility.yul\":1948:1950   */\n      0x60\n        /* \"#utility.yul\":1937:1946   */\n      dup12\n        /* \"#utility.yul\":1933:1951   */\n      add\n        /* \"#utility.yul\":1927:1952   */\n      mload\n        /* \"#utility.yul\":1911:1952   */\n      swap2\n      pop\n        /* \"#utility.yul\":1977:1979   */\n      dup1\n        /* \"#utility.yul\":1967:1975   */\n      dup3\n        /* \"#utility.yul\":1964:1980   */\n      gt\n        /* \"#utility.yul\":1961:1997   */\n      iszero\n      tag_50\n      jumpi\n        /* \"#utility.yul\":1993:1994   */\n      0x00\n        /* \"#utility.yul\":1990:1991   */\n      dup1\n        /* \"#utility.yul\":1983:1995   */\n      revert\n        /* \"#utility.yul\":1961:1997   */\n    tag_50:\n      pop\n        /* \"#utility.yul\":2016:2079   */\n      tag_51\n        /* \"#utility.yul\":2071:2078   */\n      dup12\n        /* \"#utility.yul\":2060:2068   */\n      dup3\n        /* \"#utility.yul\":2049:2058   */\n      dup13\n        /* \"#utility.yul\":2045:2069   */\n      add\n        /* \"#utility.yul\":2016:2079   */\n      tag_22\n      jump\t// in\n    tag_51:\n        /* \"#utility.yul\":2006:2079   */\n      swap6\n      pop\n      pop\n        /* \"#utility.yul\":2119:2122   */\n      0x80\n        /* \"#utility.yul\":2108:2117   */\n      dup10\n        /* \"#utility.yul\":2104:2123   */\n      add\n        /* \"#utility.yul\":2098:2124   */\n      mload\n        /* \"#utility.yul\":2088:2124   */\n      swap4\n      pop\n        /* \"#utility.yul\":2164:2167   */\n      0xa0\n        /* \"#utility.yul\":2153:2162   */\n      dup10\n        /* \"#utility.yul\":2149:2168   */\n      add\n        /* \"#utility.yul\":2143:2169   */\n      mload\n        /* \"#utility.yul\":2133:2169   */\n      swap3\n      pop\n        /* \"#utility.yul\":2209:2212   */\n      0xc0\n        /* \"#utility.yul\":2198:2207   */\n      dup10\n        /* \"#utility.yul\":2194:2213   */\n      add\n        /* \"#utility.yul\":2188:2214   */\n      mload\n        /* \"#utility.yul\":2178:2214   */\n      swap2\n      pop\n        /* \"#utility.yul\":2257:2260   */\n      0xe0\n        /* \"#utility.yul\":2246:2255   */\n      dup10\n        /* \"#utility.yul\":2242:2261   */\n      add\n        /* \"#utility.yul\":2236:2262   */\n      mload\n        /* \"#utility.yul\":2305:2310   */\n      dup1\n        /* \"#utility.yul\":2298:2311   */\n      iszero\n        /* \"#utility.yul\":2291:2312   */\n      iszero\n        /* \"#utility.yul\":2284:2289   */\n      dup2\n        /* \"#utility.yul\":2281:2313   */\n      eq\n        /* \"#utility.yul\":2271:2331   */\n      tag_52\n      jumpi\n        /* \"#utility.yul\":2327:2328   */\n      0x00\n        /* \"#utility.yul\":2324:2325   */\n      dup1\n        /* \"#utility.yul\":2317:2329   */\n      revert\n        /* \"#utility.yul\":2271:2331   */\n    tag_52:\n        /* \"#utility.yul\":2350:2355   */\n      dup1\n        /* \"#utility.yul\":2340:2355   */\n      swap2\n      pop\n      pop\n        /* \"#utility.yul\":1287:2361   */\n      swap3\n      swap6\n      swap9\n      pop\n      swap3\n      swap6\n      swap9\n      swap1\n      swap4\n      swap7\n      pop\n      jump\t// out\n        /* \"#utility.yul\":2366:2591   */\n    tag_7:\n        /* \"#utility.yul\":2433:2442   */\n      dup2\n      dup2\n      sub\n        /* \"#utility.yul\":2454:2465   */\n      dup2\n      dup2\n      gt\n        /* \"#utility.yul\":2451:2585   */\n      iszero\n      tag_54\n      jumpi\n        /* \"#utility.yul\":2507:2517   */\n      0x4e487b71\n        /* \"#utility.yul\":2502:2505   */\n      0xe0\n        /* \"#utility.yul\":2498:2518   */\n      shl\n        /* \"#utility.yul\":2495:2496   */\n      0x00\n        /* \"#utility.yul\":2488:2519   */\n      mstore\n        /* \"#utility.yul\":2542:2546   */\n      0x11\n        /* \"#utility.yul\":2539:2540   */\n      0x04\n        /* \"#utility.yul\":2532:2547   */\n      mstore\n        /* \"#utility.yul\":2570:2574   */\n      0x24\n        /* \"#utility.yul\":2567:2568   */\n      0x00\n        /* \"#utility.yul\":2560:2575   */\n      revert\n        /* \"#utility.yul\":2451:2585   */\n    tag_54:\n        /* \"#utility.yul\":2366:2591   */\n      swap3\n      swap2\n      pop\n      pop\n      jump\t// out\n        /* \"#utility.yul\":2596:2976   */\n    tag_23:\n        /* \"#utility.yul\":2675:2676   */\n      0x01\n        /* \"#utility.yul\":2671:2683   */\n      dup2\n      dup2\n      shr\n      swap1\n        /* \"#utility.yul\":2718:2730   */\n      dup3\n      and\n      dup1\n        /* \"#utility.yul\":2739:2800   */\n      tag_56\n      jumpi\n        /* \"#utility.yul\":2793:2797   */\n      0x7f\n        /* \"#utility.yul\":2785:2791   */\n      dup3\n        /* \"#utility.yul\":2781:2798   */\n      and\n        /* \"#utility.yul\":2771:2798   */\n      swap2\n      pop\n        /* \"#utility.yul\":2739:2800   */\n    tag_56:\n        /* \"#utility.yul\":2846:2848   */\n      0x20\n        /* \"#utility.yul\":2838:2844   */\n      dup3\n        /* \"#utility.yul\":2835:2849   */\n      lt\n        /* \"#utility.yul\":2815:2833   */\n      dup2\n        /* \"#utility.yul\":2812:2850   */\n      sub\n        /* \"#utility.yul\":2809:2970   */\n      tag_57\n      jumpi\n        /* \"#utility.yul\":2892:2902   */\n      0x4e487b71\n        /* \"#utility.yul\":2887:2890   */\n      0xe0\n        /* \"#utility.yul\":2883:2903   */\n      shl\n        /* \"#utility.yul\":2880:2881   */\n      0x00\n        /* \"#utility.yul\":2873:2904   */\n      mstore\n        /* \"#utility.yul\":2927:2931   */\n      0x22\n        /* \"#utility.yul\":2924:2925   */\n      0x04\n        /* \"#utility.yul\":2917:2932   */\n      mstore\n        /* \"#utility.yul\":2955:2959   */\n      0x24\n        /* \"#utility.yul\":2952:2953   */\n      0x00\n        /* \"#utility.yul\":2945:2960   */\n      revert\n        /* \"#utility.yul\":2809:2970   */\n    tag_57:\n      pop\n        /* \"#utility.yul\":2596:2976   */\n      swap2\n      swap1\n      pop\n      jump\t// out\n        /* \"#utility.yul\":3107:3652   */\n    tag_25:\n        /* \"#utility.yul\":3209:3211   */\n      0x1f\n        /* \"#utility.yul\":3204:3207   */\n      dup3\n        /* \"#utility.yul\":3201:3212   */\n      gt\n        /* \"#utility.yul\":3198:3646   */\n      iszero\n      tag_60\n      jumpi\n        /* \"#utility.yul\":3245:3246   */\n      0x00\n        /* \"#utility.yul\":3270:3275   */\n      dup2\n        /* \"#utility.yul\":3266:3268   */\n      dup2\n        /* \"#utility.yul\":3259:3276   */\n      mstore\n        /* \"#utility.yul\":3315:3319   */\n      0x20\n        /* \"#utility.yul\":3311:3313   */\n      dup2\n        /* \"#utility.yul\":3301:3320   */\n      keccak256\n        /* \"#utility.yul\":3385:3387   */\n      0x1f\n        /* \"#utility.yul\":3373:3383   */\n      dup6\n        /* \"#utility.yul\":3369:3388   */\n      add\n        /* \"#utility.yul\":3366:3367   */\n      0x05\n        /* \"#utility.yul\":3362:3389   */\n      shr\n        /* \"#utility.yul\":3356:3360   */\n      dup2\n        /* \"#utility.yul\":3352:3390   */\n      add\n        /* \"#utility.yul\":3421:3425   */\n      0x20\n        /* \"#utility.yul\":3409:3419   */\n      dup7\n        /* \"#utility.yul\":3406:3426   */\n      lt\n        /* \"#utility.yul\":3403:3450   */\n      iszero\n      tag_61\n      jumpi\n      pop\n        /* \"#utility.yul\":3444:3448   */\n      dup1\n        /* \"#utility.yul\":3403:3450   */\n    tag_61:\n        /* \"#utility.yul\":3499:3501   */\n      0x1f\n        /* \"#utility.yul\":3494:3497   */\n      dup6\n        /* \"#utility.yul\":3490:3502   */\n      add\n        /* \"#utility.yul\":3487:3488   */\n      0x05\n        /* \"#utility.yul\":3483:3503   */\n      shr\n        /* \"#utility.yul\":3477:3481   */\n      dup3\n        /* \"#utility.yul\":3473:3504   */\n      add\n        /* \"#utility.yul\":3463:3504   */\n      swap2\n      pop\n        /* \"#utility.yul\":3554:3636   */\n    tag_62:\n        /* \"#utility.yul\":3572:3574   */\n      dup2\n        /* \"#utility.yul\":3565:3570   */\n      dup2\n        /* \"#utility.yul\":3562:3575   */\n      lt\n        /* \"#utility.yul\":3554:3636   */\n      iszero\n      tag_64\n      jumpi\n        /* \"#utility.yul\":3617:3634   */\n      dup3\n      dup2\n      sstore\n        /* \"#utility.yul\":3598:3599   */\n      0x01\n        /* \"#utility.yul\":3587:3600   */\n      add\n        /* \"#utility.yul\":3554:3636   */\n      jump(tag_62)\n    tag_64:\n        /* \"#utility.yul\":3558:3561   */\n      pop\n      pop\n      pop\n        /* \"#utility.yul\":3198:3646   */\n    tag_60:\n        /* \"#utility.yul\":3107:3652   */\n      pop\n      pop\n      pop\n      jump\t// out\n        /* \"#utility.yul\":3828:5180   */\n    tag_14:\n        /* \"#utility.yul\":3948:3958   */\n      dup2\n      mload\n      sub(shl(0x40, 0x01), 0x01)\n        /* \"#utility.yul\":3970:4000   */\n      dup2\n      gt\n        /* \"#utility.yul\":3967:4023   */\n      iszero\n      tag_68\n      jumpi\n        /* \"#utility.yul\":4003:4021   */\n      tag_68\n      tag_20\n      jump\t// in\n    tag_68:\n        /* \"#utility.yul\":4032:4129   */\n      tag_69\n        /* \"#utility.yul\":4122:4128   */\n      dup2\n        /* \"#utility.yul\":4082:4120   */\n      tag_70\n        /* \"#utility.yul\":4114:4118   */\n      dup5\n        /* \"#utility.yul\":4108:4119   */\n      sload\n        /* \"#utility.yul\":4082:4120   */\n      tag_23\n      jump\t// in\n    tag_70:\n        /* \"#utility.yul\":4076:4080   */\n      dup5\n        /* \"#utility.yul\":4032:4129   */\n      tag_25\n      jump\t// in\n    tag_69:\n        /* \"#utility.yul\":4184:4188   */\n      0x20\n      dup1\n        /* \"#utility.yul\":4248:4250   */\n      0x1f\n        /* \"#utility.yul\":4237:4251   */\n      dup4\n      gt\n        /* \"#utility.yul\":4265:4266   */\n      0x01\n        /* \"#utility.yul\":4260:4923   */\n      dup2\n      eq\n      tag_72\n      jumpi\n        /* \"#utility.yul\":4967:4968   */\n      0x00\n        /* \"#utility.yul\":4984:4990   */\n      dup5\n        /* \"#utility.yul\":4981:5070   */\n      iszero\n      tag_73\n      jumpi\n      pop\n        /* \"#utility.yul\":5036:5055   */\n      dup6\n      dup4\n      add\n        /* \"#utility.yul\":5030:5056   */\n      mload\n        /* \"#utility.yul\":4981:5070   */\n    tag_73:\n      not(0x00)\n        /* \"#utility.yul\":3785:3786   */\n      0x03\n        /* \"#utility.yul\":3781:3792   */\n      dup7\n      swap1\n      shl\n        /* \"#utility.yul\":3777:3801   */\n      shr\n        /* \"#utility.yul\":3773:3802   */\n      not\n        /* \"#utility.yul\":3763:3803   */\n      and\n        /* \"#utility.yul\":3809:3810   */\n      0x01\n        /* \"#utility.yul\":3805:3816   */\n      dup6\n      swap1\n      shl\n        /* \"#utility.yul\":3760:3817   */\n      or\n        /* \"#utility.yul\":5083:5164   */\n      dup6\n      sstore\n        /* \"#utility.yul\":4230:5174   */\n      jump(tag_64)\n        /* \"#utility.yul\":4260:4923   */\n    tag_72:\n        /* \"#utility.yul\":3054:3055   */\n      0x00\n        /* \"#utility.yul\":3047:3061   */\n      dup6\n      dup2\n      mstore\n        /* \"#utility.yul\":3091:3095   */\n      0x20\n        /* \"#utility.yul\":3078:3096   */\n      dup2\n      keccak256\n      not(0x1f)\n        /* \"#utility.yul\":4296:4316   */\n      dup7\n      and\n      swap2\n        /* \"#utility.yul\":4414:4650   */\n    tag_76:\n        /* \"#utility.yul\":4428:4435   */\n      dup3\n        /* \"#utility.yul\":4425:4426   */\n      dup2\n        /* \"#utility.yul\":4422:4436   */\n      lt\n        /* \"#utility.yul\":4414:4650   */\n      iszero\n      tag_78\n      jumpi\n        /* \"#utility.yul\":4517:4536   */\n      dup9\n      dup7\n      add\n        /* \"#utility.yul\":4511:4537   */\n      mload\n        /* \"#utility.yul\":4496:4538   */\n      dup3\n      sstore\n        /* \"#utility.yul\":4609:4636   */\n      swap5\n      dup5\n      add\n      swap5\n        /* \"#utility.yul\":4577:4578   */\n      0x01\n        /* \"#utility.yul\":4565:4579   */\n      swap1\n      swap2\n      add\n      swap1\n        /* \"#utility.yul\":4444:4463   */\n      dup5\n      add\n        /* \"#utility.yul\":4414:4650   */\n      jump(tag_76)\n    tag_78:\n        /* \"#utility.yul\":4418:4421   */\n      pop\n        /* \"#utility.yul\":4678:4684   */\n      dup6\n        /* \"#utility.yul\":4669:4676   */\n      dup3\n        /* \"#utility.yul\":4666:4685   */\n      lt\n        /* \"#utility.yul\":4663:4864   */\n      iszero\n      tag_79\n      jumpi\n        /* \"#utility.yul\":4739:4758   */\n      dup8\n      dup6\n      add\n        /* \"#utility.yul\":4733:4759   */\n      mload\n      not(0x00)\n        /* \"#utility.yul\":4822:4823   */\n      0x03\n        /* \"#utility.yul\":4818:4832   */\n      dup9\n      swap1\n      shl\n        /* \"#utility.yul\":4834:4837   */\n      0xf8\n        /* \"#utility.yul\":4814:4838   */\n      and\n        /* \"#utility.yul\":4810:4847   */\n      shr\n        /* \"#utility.yul\":4806:4848   */\n      not\n        /* \"#utility.yul\":4791:4849   */\n      and\n        /* \"#utility.yul\":4776:4850   */\n      dup2\n      sstore\n        /* \"#utility.yul\":4663:4864   */\n    tag_79:\n      pop\n      pop\n      pop\n      pop\n      pop\n        /* \"#utility.yul\":4910:4911   */\n      0x01\n        /* \"#utility.yul\":4894:4908   */\n      swap1\n      dup2\n      shl\n        /* \"#utility.yul\":4890:4912   */\n      add\n        /* \"#utility.yul\":4877:4913   */\n      swap1\n      sstore\n      pop\n        /* \"#utility.yul\":3828:5180   */\n      jump\t// out\n        /* \"#utility.yul\":5185:5456   */\n    tag_27:\n        /* \"#utility.yul\":5227:5230   */\n      0x00\n        /* \"#utility.yul\":5265:5270   */\n      dup2\n        /* \"#utility.yul\":5259:5271   */\n      mload\n        /* \"#utility.yul\":5292:5298   */\n      dup1\n        /* \"#utility.yul\":5287:5290   */\n      dup5\n        /* \"#utility.yul\":5280:5299   */\n      mstore\n        /* \"#utility.yul\":5308:5384   */\n      tag_81\n        /* \"#utility.yul\":5377:5383   */\n      dup2\n        /* \"#utility.yul\":5370:5374   */\n      0x20\n        /* \"#utility.yul\":5365:5368   */\n      dup7\n        /* \"#utility.yul\":5361:5375   */\n      add\n        /* \"#utility.yul\":5354:5358   */\n      0x20\n        /* \"#utility.yul\":5347:5352   */\n      dup7\n        /* \"#utility.yul\":5343:5359   */\n      add\n        /* \"#utility.yul\":5308:5384   */\n      tag_21\n      jump\t// in\n    tag_81:\n        /* \"#utility.yul\":5438:5440   */\n      0x1f\n        /* \"#utility.yul\":5417:5432   */\n      add\n      not(0x1f)\n        /* \"#utility.yul\":5413:5442   */\n      and\n        /* \"#utility.yul\":5404:5443   */\n      swap3\n      swap1\n      swap3\n      add\n        /* \"#utility.yul\":5445:5449   */\n      0x20\n        /* \"#utility.yul\":5400:5450   */\n      add\n      swap3\n        /* \"#utility.yul\":5185:5456   */\n      swap2\n      pop\n      pop\n      jump\t// out\n        /* \"#utility.yul\":5461:6214   */\n    tag_17:\n        /* \"#utility.yul\":5792:5795   */\n      0xe0\n        /* \"#utility.yul\":5781:5790   */\n      dup2\n        /* \"#utility.yul\":5774:5796   */\n      mstore\n        /* \"#utility.yul\":5755:5759   */\n      0x00\n        /* \"#utility.yul\":5819:5865   */\n      tag_83\n        /* \"#utility.yul\":5860:5863   */\n      0xe0\n        /* \"#utility.yul\":5849:5858   */\n      dup4\n        /* \"#utility.yul\":5845:5864   */\n      add\n        /* \"#utility.yul\":5837:5843   */\n      dup11\n        /* \"#utility.yul\":5819:5865   */\n      tag_27\n      jump\t// in\n    tag_83:\n        /* \"#utility.yul\":5913:5922   */\n      dup3\n        /* \"#utility.yul\":5905:5911   */\n      dup2\n        /* \"#utility.yul\":5901:5923   */\n      sub\n        /* \"#utility.yul\":5896:5898   */\n      0x20\n        /* \"#utility.yul\":5885:5894   */\n      dup5\n        /* \"#utility.yul\":5881:5899   */\n      add\n        /* \"#utility.yul\":5874:5924   */\n      mstore\n        /* \"#utility.yul\":5941:5974   */\n      tag_84\n        /* \"#utility.yul\":5967:5973   */\n      dup2\n        /* \"#utility.yul\":5959:5965   */\n      dup11\n        /* \"#utility.yul\":5941:5974   */\n      tag_27\n      jump\t// in\n    tag_84:\n        /* \"#utility.yul\":6005:6007   */\n      0x40\n        /* \"#utility.yul\":5990:6008   */\n      dup5\n      add\n        /* \"#utility.yul\":5983:6017   */\n      swap9\n      swap1\n      swap9\n      mstore\n      pop\n      pop\n        /* \"#utility.yul\":6048:6050   */\n      0x60\n        /* \"#utility.yul\":6033:6051   */\n      dup2\n      add\n        /* \"#utility.yul\":6026:6060   */\n      swap5\n      swap1\n      swap5\n      mstore\n        /* \"#utility.yul\":6091:6094   */\n      0x80\n        /* \"#utility.yul\":6076:6095   */\n      dup5\n      add\n        /* \"#utility.yul\":6069:6104   */\n      swap3\n      swap1\n      swap3\n      mstore\n        /* \"#utility.yul\":6135:6138   */\n      0xa0\n        /* \"#utility.yul\":6120:6139   */\n      dup4\n      add\n        /* \"#utility.yul\":6113:6148   */\n      mstore\n        /* \"#utility.yul\":6192:6206   */\n      iszero\n        /* \"#utility.yul\":6185:6207   */\n      iszero\n        /* \"#utility.yul\":6179:6182   */\n      0xc0\n        /* \"#utility.yul\":6164:6183   */\n      swap1\n      swap2\n      add\n        /* \"#utility.yul\":6157:6208   */\n      mstore\n        /* \"#utility.yul\":5933:5974   */\n      swap3\n        /* \"#utility.yul\":5461:6214   */\n      swap2\n      pop\n      pop\n      jump\t// out\n    tag_28:\n        /* \"blockchain/contracts/Polygon/Pool/Prototype/pool/state.sol\":910:3961  contract State is IState, Safety, Authenticator {... */\n      dataSize(sub_0)\n      dup1\n      dataOffset(sub_0)\n      0x00\n      codecopy\n      0x00\n      return\n    stop\n    data_47155488885ffbdd271bee987ae02acf8bc50c4611fc28ba1a528fcd613acebb 6d5257204ebe7d88fd91ae87941cb2dd9d8062b64ae5a2bd2d28ec40b9fbf6e2\n\n    sub_0: assembly {\n            /* \"blockchain/contracts/Polygon/Pool/Prototype/pool/state.sol\":910:3961  contract State is IState, Safety, Authenticator {... */\n          mstore(0x40, 0x80)\n          jumpi(tag_1, lt(calldatasize, 0x04))\n          shr(0xe0, calldataload(0x00))\n          dup1\n          0x0923fe94\n          eq\n          tag_3\n          jumpi\n          dup1\n          0x24a5af31\n          eq\n          tag_4\n          jumpi\n          dup1\n          0x2e1a7d4d\n          eq\n          tag_5\n          jumpi\n          dup1\n          0x90b410af\n          eq\n          tag_6\n          jumpi\n          dup1\n          0xb9761101\n          eq\n          tag_7\n          jumpi\n          dup1\n          0xdd12776a\n          eq\n          tag_8\n          jumpi\n          0x00\n          dup1\n          revert\n        tag_1:\n          jumpi(tag_2, calldatasize)\n            /* \"blockchain/contracts/Polygon/Pool/Prototype/pool/authenticator.sol\":233:238  admin */\n          sload(0x00)\n          0x0100\n          swap1\n          div\n          sub(shl(0xa0, 0x01), 0x01)\n          and\n            /* \"blockchain/contracts/Polygon/Pool/Prototype/pool/authenticator.sol\":219:229  msg.sender */\n          caller\n            /* \"blockchain/contracts/Polygon/Pool/Prototype/pool/authenticator.sol\":219:238  msg.sender == admin */\n          eq\n            /* \"blockchain/contracts/Polygon/Pool/Prototype/pool/authenticator.sol\":210:240  require( msg.sender == admin ) */\n          tag_11\n          jumpi\n          0x00\n          dup1\n          revert\n        tag_11:\n            /* \"blockchain/contracts/Polygon/Pool/Prototype/pool/state.sol\":2855:2879  Deposit( _from, _value ) */\n          0x40\n          dup1\n          mload\n            /* \"blockchain/contracts/Polygon/Pool/Prototype/pool/state.sol\":2793:2803  msg.sender */\n          caller\n            /* \"#utility.yul\":188:239   */\n          dup1\n          dup3\n          mstore\n            /* \"blockchain/contracts/Polygon/Pool/Prototype/pool/state.sol\":2830:2839  msg.value */\n          callvalue\n            /* \"#utility.yul\":270:272   */\n          0x20\n            /* \"#utility.yul\":255:273   */\n          dup4\n          add\n            /* \"#utility.yul\":248:282   */\n          dup2\n          swap1\n          mstore\n            /* \"blockchain/contracts/Polygon/Pool/Prototype/pool/state.sol\":2793:2803  msg.sender */\n          swap1\n          swap3\n            /* \"blockchain/contracts/Polygon/Pool/Prototype/pool/state.sol\":2830:2839  msg.value */\n          swap1\n          swap2\n            /* \"blockchain/contracts/Polygon/Pool/Prototype/pool/state.sol\":2855:2879  Deposit( _from, _value ) */\n          0xe1fffcc4923d04b559f4d29a8bfc6cda04eb5b0d3c460751c2402c5c5cc9109c\n          swap2\n            /* \"#utility.yul\":161:179   */\n          add\n            /* \"blockchain/contracts/Polygon/Pool/Prototype/pool/state.sol\":2855:2879  Deposit( _from, _value ) */\n          mload(0x40)\n          dup1\n          swap2\n          sub\n          swap1\n          log1\n            /* \"blockchain/contracts/Polygon/Pool/Prototype/pool/state.sol\":2766:2887  {... */\n          stop\n            /* \"blockchain/contracts/Polygon/Pool/Prototype/pool/state.sol\":910:3961  contract State is IState, Safety, Authenticator {... */\n        tag_2:\n          0x00\n          dup1\n          revert\n            /* \"blockchain/contracts/Polygon/Pool/Prototype/pool/state.sol\":3310:3438  function persona_of( address _address ) public view returns ( Persona memory ) {... */\n        tag_3:\n          callvalue\n          dup1\n          iszero\n          tag_15\n          jumpi\n          0x00\n          dup1\n          revert\n        tag_15:\n          pop\n          tag_16\n          tag_17\n          calldatasize\n          0x04\n          tag_18\n          jump\t// in\n        tag_17:\n          0x40\n          dup1\n          mload\n          0x20\n          dup1\n          dup3\n          add\n          dup4\n          mstore\n          0x00\n          swap2\n          dup3\n          swap1\n          mstore\n          sub(shl(0xa0, 0x01), 0x01)\n            /* \"blockchain/contracts/Polygon/Pool/Prototype/pool/state.sol\":3409:3428  persona[ _address ] */\n          swap4\n          swap1\n          swap4\n          and\n          dup2\n          mstore\n            /* \"blockchain/contracts/Polygon/Pool/Prototype/pool/state.sol\":3409:3416  persona */\n          0x06\n            /* \"blockchain/contracts/Polygon/Pool/Prototype/pool/state.sol\":3409:3428  persona[ _address ] */\n          dup4\n          mstore\n          dup2\n          swap1\n          keccak256\n            /* \"blockchain/contracts/Polygon/Pool/Prototype/pool/state.sol\":3400:3430  return ( persona[ _address ] ) */\n          dup2\n          mload\n          swap3\n          dup4\n          add\n          swap1\n          swap2\n          mstore\n          sload\n          0xff\n          and\n          iszero\n          iszero\n          dup2\n          mstore\n          swap1\n            /* \"blockchain/contracts/Polygon/Pool/Prototype/pool/state.sol\":3310:3438  function persona_of( address _address ) public view returns ( Persona memory ) {... */\n          jump\n        tag_16:\n          mload(0x40)\n            /* \"#utility.yul\":888:901   */\n          swap1\n          mload\n            /* \"#utility.yul\":881:902   */\n          iszero\n            /* \"#utility.yul\":874:903   */\n          iszero\n            /* \"#utility.yul\":856:904   */\n          dup2\n          mstore\n            /* \"#utility.yul\":844:846   */\n          0x20\n            /* \"#utility.yul\":829:847   */\n          add\n            /* \"blockchain/contracts/Polygon/Pool/Prototype/pool/state.sol\":3310:3438  function persona_of( address _address ) public view returns ( Persona memory ) {... */\n        tag_20:\n          mload(0x40)\n          dup1\n          swap2\n          sub\n          swap1\n          return\n            /* \"blockchain/contracts/Polygon/Pool/Prototype/pool/state.sol\":3082:3304  function withdraw_erc20( address _contract, uint256 _value ) public only_admin {... */\n        tag_4:\n          callvalue\n          dup1\n          iszero\n          tag_22\n          jumpi\n          0x00\n          dup1\n          revert\n        tag_22:\n          pop\n          tag_23\n          tag_24\n          calldatasize\n          0x04\n          tag_25\n          jump\t// in\n        tag_24:\n          tag_26\n          jump\t// in\n        tag_23:\n          stop\n            /* \"blockchain/contracts/Polygon/Pool/Prototype/pool/state.sol\":2893:3076  function withdraw( uint256 _value ) public only_admin {... */\n        tag_5:\n          callvalue\n          dup1\n          iszero\n          tag_27\n          jumpi\n          0x00\n          dup1\n          revert\n        tag_27:\n          pop\n          tag_23\n          tag_29\n          calldatasize\n          0x04\n          tag_30\n          jump\t// in\n        tag_29:\n          tag_31\n          jump\t// in\n            /* \"blockchain/contracts/Polygon/Pool/Prototype/pool/state.sol\":3444:3611  function set_persona_of( address _address, Persona memory _new ) public only_admin returns ( bool ) {... */\n        tag_6:\n          callvalue\n          dup1\n          iszero\n          tag_32\n          jumpi\n          0x00\n          dup1\n          revert\n        tag_32:\n          pop\n          tag_33\n          tag_34\n          calldatasize\n          0x04\n          tag_35\n          jump\t// in\n        tag_34:\n          tag_36\n          jump\t// in\n        tag_33:\n          mload(0x40)\n            /* \"#utility.yul\":2399:2413   */\n          swap1\n          iszero\n            /* \"#utility.yul\":2392:2414   */\n          iszero\n            /* \"#utility.yul\":2374:2415   */\n          dup2\n          mstore\n            /* \"#utility.yul\":2362:2364   */\n          0x20\n            /* \"#utility.yul\":2347:2365   */\n          add\n            /* \"blockchain/contracts/Polygon/Pool/Prototype/pool/state.sol\":3444:3611  function set_persona_of( address _address, Persona memory _new ) public only_admin returns ( bool ) {... */\n          tag_20\n            /* \"#utility.yul\":2234:2421   */\n          jump\n            /* \"blockchain/contracts/Polygon/Pool/Prototype/pool/state.sol\":3617:3737  function view_funding( uint256 _id ) public view returns ( Funding memory ) {... */\n        tag_7:\n          callvalue\n          dup1\n          iszero\n          tag_39\n          jumpi\n          0x00\n          dup1\n          revert\n        tag_39:\n          pop\n          tag_40\n          tag_41\n          calldatasize\n          0x04\n          tag_30\n          jump\t// in\n        tag_41:\n          tag_42\n          jump\t// in\n        tag_40:\n          mload(0x40)\n          tag_20\n          swap2\n          swap1\n            /* \"#utility.yul\":2566:2570   */\n          0x00\n            /* \"#utility.yul\":2608:2611   */\n          0xa0\n            /* \"#utility.yul\":2597:2606   */\n          dup3\n            /* \"#utility.yul\":2593:2612   */\n          add\n            /* \"#utility.yul\":2585:2612   */\n          swap1\n          pop\n            /* \"#utility.yul\":2645:2651   */\n          dup3\n            /* \"#utility.yul\":2639:2652   */\n          mload\n            /* \"#utility.yul\":2628:2637   */\n          dup3\n            /* \"#utility.yul\":2621:2653   */\n          mstore\n            /* \"#utility.yul\":2709:2713   */\n          0x20\n            /* \"#utility.yul\":2701:2707   */\n          dup4\n            /* \"#utility.yul\":2697:2714   */\n          add\n            /* \"#utility.yul\":2691:2715   */\n          mload\n            /* \"#utility.yul\":2684:2688   */\n          0x20\n            /* \"#utility.yul\":2673:2682   */\n          dup4\n            /* \"#utility.yul\":2669:2689   */\n          add\n            /* \"#utility.yul\":2662:2716   */\n          mstore\n            /* \"#utility.yul\":2772:2776   */\n          0x40\n            /* \"#utility.yul\":2764:2770   */\n          dup4\n            /* \"#utility.yul\":2760:2777   */\n          add\n            /* \"#utility.yul\":2754:2778   */\n          mload\n            /* \"#utility.yul\":2747:2751   */\n          0x40\n            /* \"#utility.yul\":2736:2745   */\n          dup4\n            /* \"#utility.yul\":2732:2752   */\n          add\n            /* \"#utility.yul\":2725:2779   */\n          mstore\n            /* \"#utility.yul\":2849:2853   */\n          0x60\n            /* \"#utility.yul\":2841:2847   */\n          dup4\n            /* \"#utility.yul\":2837:2854   */\n          add\n            /* \"#utility.yul\":2831:2855   */\n          mload\n            /* \"#utility.yul\":2824:2856   */\n          iszero\n            /* \"#utility.yul\":2817:2857   */\n          iszero\n            /* \"#utility.yul\":2810:2814   */\n          0x60\n            /* \"#utility.yul\":2799:2808   */\n          dup4\n            /* \"#utility.yul\":2795:2815   */\n          add\n            /* \"#utility.yul\":2788:2858   */\n          mstore\n            /* \"#utility.yul\":2928:2932   */\n          0x80\n            /* \"#utility.yul\":2920:2926   */\n          dup4\n            /* \"#utility.yul\":2916:2933   */\n          add\n            /* \"#utility.yul\":2910:2934   */\n          mload\n            /* \"#utility.yul\":2903:2935   */\n          iszero\n            /* \"#utility.yul\":2896:2936   */\n          iszero\n            /* \"#utility.yul\":2889:2893   */\n          0x80\n            /* \"#utility.yul\":2878:2887   */\n          dup4\n            /* \"#utility.yul\":2874:2894   */\n          add\n            /* \"#utility.yul\":2867:2937   */\n          mstore\n            /* \"#utility.yul\":2426:2943   */\n          swap3\n          swap2\n          pop\n          pop\n          jump\n            /* \"blockchain/contracts/Polygon/Pool/Prototype/pool/state.sol\":3743:3958  function set_funding( uint256 _id, Funding memory _new ) public only_admin returns ( bool ) {... */\n        tag_8:\n          callvalue\n          dup1\n          iszero\n          tag_45\n          jumpi\n          0x00\n          dup1\n          revert\n        tag_45:\n          pop\n          tag_33\n          tag_47\n          calldatasize\n          0x04\n          tag_48\n          jump\t// in\n        tag_47:\n          tag_49\n          jump\t// in\n            /* \"blockchain/contracts/Polygon/Pool/Prototype/pool/state.sol\":3082:3304  function withdraw_erc20( address _contract, uint256 _value ) public only_admin {... */\n        tag_26:\n            /* \"blockchain/contracts/Polygon/Pool/Prototype/pool/authenticator.sol\":233:238  admin */\n          sload(0x00)\n          0x0100\n          swap1\n          div\n          sub(shl(0xa0, 0x01), 0x01)\n          and\n            /* \"blockchain/contracts/Polygon/Pool/Prototype/pool/authenticator.sol\":219:229  msg.sender */\n          caller\n            /* \"blockchain/contracts/Polygon/Pool/Prototype/pool/authenticator.sol\":219:238  msg.sender == admin */\n          eq\n            /* \"blockchain/contracts/Polygon/Pool/Prototype/pool/authenticator.sol\":210:240  require( msg.sender == admin ) */\n          tag_55\n          jumpi\n          0x00\n          dup1\n          revert\n        tag_55:\n            /* \"blockchain/contracts/Polygon/Pool/Prototype/pool/state.sol\":3172:3191  address payable _to */\n          0x00\n            /* \"blockchain/contracts/Polygon/Pool/Prototype/pool/state.sol\":3203:3208  admin */\n          sload\n            /* \"blockchain/contracts/Polygon/Pool/Prototype/pool/state.sol\":3266:3296  _token.transfer( _to, _value ) */\n          mload(0x40)\n          shl(0xe0, 0xa9059cbb)\n          dup2\n          mstore\n            /* \"blockchain/contracts/Polygon/Pool/Prototype/pool/state.sol\":3203:3208  admin */\n          0x0100\n          swap1\n          swap2\n          div\n          sub(shl(0xa0, 0x01), 0x01)\n          swap1\n          dup2\n          and\n            /* \"blockchain/contracts/Polygon/Pool/Prototype/pool/state.sol\":3266:3296  _token.transfer( _to, _value ) */\n          0x04\n          dup4\n          add\n            /* \"#utility.yul\":188:239   */\n          dup2\n          swap1\n          mstore\n            /* \"#utility.yul\":255:273   */\n          0x24\n          dup4\n          add\n            /* \"#utility.yul\":248:282   */\n          dup5\n          swap1\n          mstore\n            /* \"blockchain/contracts/Polygon/Pool/Prototype/pool/state.sol\":3203:3208  admin */\n          swap2\n            /* \"blockchain/contracts/Polygon/Pool/Prototype/pool/state.sol\":3245:3254  _contract */\n          dup5\n          swap2\n            /* \"blockchain/contracts/Polygon/Pool/Prototype/pool/state.sol\":3266:3281  _token.transfer */\n          dup3\n          and\n          swap1\n          0xa9059cbb\n          swap1\n            /* \"#utility.yul\":161:179   */\n          0x44\n          add\n            /* \"blockchain/contracts/Polygon/Pool/Prototype/pool/state.sol\":3266:3296  _token.transfer( _to, _value ) */\n          0x20\n          mload(0x40)\n          dup1\n          dup4\n          sub\n          dup2\n          0x00\n          dup8\n          gas\n          call\n          iszero\n          dup1\n          iszero\n          tag_60\n          jumpi\n          returndatasize\n          0x00\n          dup1\n          returndatacopy\n          revert(0x00, returndatasize)\n        tag_60:\n          pop\n          pop\n          pop\n          pop\n          mload(0x40)\n          returndatasize\n          not(0x1f)\n          0x1f\n          dup3\n          add\n          and\n          dup3\n          add\n          dup1\n          0x40\n          mstore\n          pop\n          dup2\n          add\n          swap1\n          tag_61\n          swap2\n          swap1\n          tag_62\n          jump\t// in\n        tag_61:\n          pop\n            /* \"blockchain/contracts/Polygon/Pool/Prototype/pool/state.sol\":3161:3304  {... */\n          pop\n          pop\n            /* \"blockchain/contracts/Polygon/Pool/Prototype/pool/state.sol\":3082:3304  function withdraw_erc20( address _contract, uint256 _value ) public only_admin {... */\n          pop\n          pop\n          jump\t// out\n            /* \"blockchain/contracts/Polygon/Pool/Prototype/pool/state.sol\":2893:3076  function withdraw( uint256 _value ) public only_admin {... */\n        tag_31:\n            /* \"blockchain/contracts/Polygon/Pool/Prototype/pool/authenticator.sol\":233:238  admin */\n          sload(0x00)\n          0x0100\n          swap1\n          div\n          sub(shl(0xa0, 0x01), 0x01)\n          and\n            /* \"blockchain/contracts/Polygon/Pool/Prototype/pool/authenticator.sol\":219:229  msg.sender */\n          caller\n            /* \"blockchain/contracts/Polygon/Pool/Prototype/pool/authenticator.sol\":219:238  msg.sender == admin */\n          eq\n            /* \"blockchain/contracts/Polygon/Pool/Prototype/pool/authenticator.sol\":210:240  require( msg.sender == admin ) */\n          tag_64\n          jumpi\n          0x00\n          dup1\n          revert\n        tag_64:\n            /* \"blockchain/contracts/Polygon/Pool/Prototype/pool/state.sol\":2958:2977  address payable _to */\n          0x00\n            /* \"blockchain/contracts/Polygon/Pool/Prototype/pool/state.sol\":2989:2994  admin */\n          dup1\n          sload\n            /* \"blockchain/contracts/Polygon/Pool/Prototype/pool/state.sol\":3007:3029  _to.transfer( _value ) */\n          mload(0x40)\n            /* \"blockchain/contracts/Polygon/Pool/Prototype/pool/state.sol\":2989:2994  admin */\n          0x0100\n          swap1\n          swap2\n          div\n          sub(shl(0xa0, 0x01), 0x01)\n          and\n          swap2\n          dup3\n          swap2\n            /* \"blockchain/contracts/Polygon/Pool/Prototype/pool/state.sol\":3007:3029  _to.transfer( _value ) */\n          0x08fc\n          dup6\n          iszero\n          mul\n          swap2\n          dup6\n          swap2\n          swap1\n          dup2\n            /* \"blockchain/contracts/Polygon/Pool/Prototype/pool/state.sol\":2958:2977  address payable _to */\n          dup2\n            /* \"blockchain/contracts/Polygon/Pool/Prototype/pool/state.sol\":3007:3029  _to.transfer( _value ) */\n          dup2\n          dup6\n            /* \"blockchain/contracts/Polygon/Pool/Prototype/pool/state.sol\":2989:2994  admin */\n          dup9\n            /* \"blockchain/contracts/Polygon/Pool/Prototype/pool/state.sol\":3007:3029  _to.transfer( _value ) */\n          dup9\n          call\n          swap4\n          pop\n          pop\n          pop\n          pop\n          iszero\n          dup1\n          iszero\n          tag_67\n          jumpi\n          returndatasize\n          0x00\n          dup1\n          returndatacopy\n          revert(0x00, returndatasize)\n        tag_67:\n          pop\n            /* \"blockchain/contracts/Polygon/Pool/Prototype/pool/state.sol\":3045:3068  Withdraw( _to, _value ) */\n          0x40\n          dup1\n          mload\n          sub(shl(0xa0, 0x01), 0x01)\n            /* \"#utility.yul\":206:238   */\n          dup4\n          and\n            /* \"#utility.yul\":188:239   */\n          dup2\n          mstore\n            /* \"#utility.yul\":270:272   */\n          0x20\n            /* \"#utility.yul\":255:273   */\n          dup2\n          add\n            /* \"#utility.yul\":248:282   */\n          dup5\n          swap1\n          mstore\n            /* \"blockchain/contracts/Polygon/Pool/Prototype/pool/state.sol\":3045:3068  Withdraw( _to, _value ) */\n          0x884edad9ce6fa2440d8a54cc123490eb96d2768479d49ff9c7366125a9424364\n          swap2\n            /* \"#utility.yul\":161:179   */\n          add\n            /* \"blockchain/contracts/Polygon/Pool/Prototype/pool/state.sol\":3045:3068  Withdraw( _to, _value ) */\n          mload(0x40)\n          dup1\n          swap2\n          sub\n          swap1\n          log1\n            /* \"blockchain/contracts/Polygon/Pool/Prototype/pool/state.sol\":2947:3076  {... */\n          pop\n            /* \"blockchain/contracts/Polygon/Pool/Prototype/pool/state.sol\":2893:3076  function withdraw( uint256 _value ) public only_admin {... */\n          pop\n          jump\t// out\n            /* \"blockchain/contracts/Polygon/Pool/Prototype/pool/state.sol\":3444:3611  function set_persona_of( address _address, Persona memory _new ) public only_admin returns ( bool ) {... */\n        tag_36:\n            /* \"blockchain/contracts/Polygon/Pool/Prototype/pool/state.sol\":3537:3541  bool */\n          0x00\n            /* \"blockchain/contracts/Polygon/Pool/Prototype/pool/authenticator.sol\":233:238  admin */\n          dup1\n          sload\n          0x0100\n          swap1\n          div\n          sub(shl(0xa0, 0x01), 0x01)\n          and\n            /* \"blockchain/contracts/Polygon/Pool/Prototype/pool/authenticator.sol\":219:229  msg.sender */\n          caller\n            /* \"blockchain/contracts/Polygon/Pool/Prototype/pool/authenticator.sol\":219:238  msg.sender == admin */\n          eq\n            /* \"blockchain/contracts/Polygon/Pool/Prototype/pool/authenticator.sol\":210:240  require( msg.sender == admin ) */\n          tag_70\n          jumpi\n          0x00\n          dup1\n          revert\n        tag_70:\n          pop\n          sub(shl(0xa0, 0x01), 0x01)\n            /* \"blockchain/contracts/Polygon/Pool/Prototype/pool/state.sol\":3555:3574  persona[ _address ] */\n          swap2\n          swap1\n          swap2\n          and\n          0x00\n          swap1\n          dup2\n          mstore\n            /* \"blockchain/contracts/Polygon/Pool/Prototype/pool/state.sol\":3555:3562  persona */\n          0x06\n            /* \"blockchain/contracts/Polygon/Pool/Prototype/pool/state.sol\":3555:3574  persona[ _address ] */\n          0x20\n          mstore\n          0x40\n          swap1\n          keccak256\n            /* \"blockchain/contracts/Polygon/Pool/Prototype/pool/state.sol\":3555:3581  persona[ _address ] = _new */\n          swap1\n          mload\n          dup2\n          sload\n          not(0xff)\n          and\n          swap1\n          iszero\n          iszero\n          or\n          swap1\n          sstore\n          0x01\n          swap1\n            /* \"blockchain/contracts/Polygon/Pool/Prototype/pool/state.sol\":3444:3611  function set_persona_of( address _address, Persona memory _new ) public only_admin returns ( bool ) {... */\n          jump\t// out\n            /* \"blockchain/contracts/Polygon/Pool/Prototype/pool/state.sol\":3617:3737  function view_funding( uint256 _id ) public view returns ( Funding memory ) {... */\n        tag_42:\n            /* \"blockchain/contracts/Polygon/Pool/Prototype/pool/state.sol\":3676:3690  Funding memory */\n          tag_72\n          mload(0x40)\n          dup1\n          0xa0\n          add\n          0x40\n          mstore\n          dup1\n          0x00\n          dup2\n          mstore\n          0x20\n          add\n          0x00\n          dup2\n          mstore\n          0x20\n          add\n          0x00\n          dup2\n          mstore\n          0x20\n          add\n          iszero(iszero(0x00))\n          dup2\n          mstore\n          0x20\n          add\n          iszero(iszero(0x00))\n          dup2\n          mstore\n          pop\n          swap1\n          jump\n        tag_72:\n          pop\n            /* \"blockchain/contracts/Polygon/Pool/Prototype/pool/state.sol\":3713:3727  funding[ _id ] */\n          0x00\n          swap1\n          dup2\n          mstore\n            /* \"blockchain/contracts/Polygon/Pool/Prototype/pool/state.sol\":3713:3720  funding */\n          0x07\n            /* \"blockchain/contracts/Polygon/Pool/Prototype/pool/state.sol\":3713:3727  funding[ _id ] */\n          0x20\n          swap1\n          dup2\n          mstore\n          0x40\n          swap2\n          dup3\n          swap1\n          keccak256\n            /* \"blockchain/contracts/Polygon/Pool/Prototype/pool/state.sol\":3704:3729  return ( funding[ _id ] ) */\n          dup3\n          mload\n          0xa0\n          dup2\n          add\n          dup5\n          mstore\n          dup2\n          sload\n          dup2\n          mstore\n          0x01\n          dup3\n          add\n          sload\n          swap3\n          dup2\n          add\n          swap3\n          swap1\n          swap3\n          mstore\n          0x02\n          dup2\n          add\n          sload\n          swap3\n          dup3\n          add\n          swap3\n          swap1\n          swap3\n          mstore\n          0x03\n          swap1\n          swap2\n          add\n          sload\n          0xff\n          dup1\n          dup3\n          and\n          iszero\n          iszero\n          0x60\n          dup5\n          add\n          mstore\n          0x0100\n          swap1\n          swap2\n          div\n          and\n          iszero\n          iszero\n          0x80\n          dup3\n          add\n          mstore\n          swap1\n            /* \"blockchain/contracts/Polygon/Pool/Prototype/pool/state.sol\":3617:3737  function view_funding( uint256 _id ) public view returns ( Funding memory ) {... */\n          jump\t// out\n            /* \"blockchain/contracts/Polygon/Pool/Prototype/pool/state.sol\":3743:3958  function set_funding( uint256 _id, Funding memory _new ) public only_admin returns ( bool ) {... */\n        tag_49:\n            /* \"blockchain/contracts/Polygon/Pool/Prototype/pool/state.sol\":3828:3832  bool */\n          0x00\n            /* \"blockchain/contracts/Polygon/Pool/Prototype/pool/authenticator.sol\":233:238  admin */\n          dup1\n          sload\n          0x0100\n          swap1\n          div\n          sub(shl(0xa0, 0x01), 0x01)\n          and\n            /* \"blockchain/contracts/Polygon/Pool/Prototype/pool/authenticator.sol\":219:229  msg.sender */\n          caller\n            /* \"blockchain/contracts/Polygon/Pool/Prototype/pool/authenticator.sol\":219:238  msg.sender == admin */\n          eq\n            /* \"blockchain/contracts/Polygon/Pool/Prototype/pool/authenticator.sol\":210:240  require( msg.sender == admin ) */\n          tag_76\n          jumpi\n          0x00\n          dup1\n          revert\n        tag_76:\n            /* \"blockchain/contracts/Polygon/Pool/Prototype/pool/state.sol\":3855:3869  funding[ _id ] */\n          0x00\n          dup4\n          dup2\n          mstore\n            /* \"blockchain/contracts/Polygon/Pool/Prototype/pool/state.sol\":3855:3862  funding */\n          0x07\n            /* \"blockchain/contracts/Polygon/Pool/Prototype/pool/state.sol\":3855:3869  funding[ _id ] */\n          0x20\n          mstore\n          0x40\n          swap1\n          keccak256\n            /* \"blockchain/contracts/Polygon/Pool/Prototype/pool/state.sol\":3855:3875  funding[ _id ].start */\n          sload\n            /* \"blockchain/contracts/Polygon/Pool/Prototype/pool/state.sol\":3879:3894  block.timestamp */\n          timestamp\n          gt\n            /* \"blockchain/contracts/Polygon/Pool/Prototype/pool/state.sol\":3855:3894  funding[ _id ].start >= block.timestamp */\n          iszero\n            /* \"blockchain/contracts/Polygon/Pool/Prototype/pool/state.sol\":3846:3896  require( funding[ _id ].start >= block.timestamp ) */\n          tag_78\n          jumpi\n          0x00\n          dup1\n          revert\n        tag_78:\n          pop\n            /* \"blockchain/contracts/Polygon/Pool/Prototype/pool/state.sol\":3907:3921  funding[ _id ] */\n          0x00\n          dup3\n          dup2\n          mstore\n            /* \"blockchain/contracts/Polygon/Pool/Prototype/pool/state.sol\":3907:3914  funding */\n          0x07\n            /* \"blockchain/contracts/Polygon/Pool/Prototype/pool/state.sol\":3907:3921  funding[ _id ] */\n          0x20\n          swap1\n          dup2\n          mstore\n          0x40\n          swap2\n          dup3\n          swap1\n          keccak256\n            /* \"blockchain/contracts/Polygon/Pool/Prototype/pool/state.sol\":3907:3928  funding[ _id ] = _new */\n          dup4\n          mload\n          dup2\n          sstore\n          swap1\n          dup4\n          add\n          mload\n          0x01\n          dup1\n          dup4\n          add\n          swap2\n          swap1\n          swap2\n          sstore\n          swap2\n          dup4\n          add\n          mload\n          0x02\n          dup3\n          add\n          sstore\n          0x60\n          dup4\n          add\n          mload\n          0x03\n          swap1\n          swap2\n          add\n          dup1\n          sload\n          0x80\n          dup6\n          add\n          mload\n          iszero\n          iszero\n          0x0100\n          mul\n          not(0xff00)\n          swap4\n          iszero\n          iszero\n          swap4\n          swap1\n          swap4\n          and\n          not(0xffff)\n          swap1\n          swap2\n          and\n          or\n          swap2\n          swap1\n          swap2\n          or\n          swap1\n          sstore\n            /* \"blockchain/contracts/Polygon/Pool/Prototype/pool/state.sol\":3743:3958  function set_funding( uint256 _id, Funding memory _new ) public only_admin returns ( bool ) {... */\n          swap3\n          swap2\n          pop\n          pop\n          jump\t// out\n            /* \"#utility.yul\":293:466   */\n        tag_79:\n            /* \"#utility.yul\":361:381   */\n          dup1\n          calldataload\n          sub(shl(0xa0, 0x01), 0x01)\n            /* \"#utility.yul\":410:441   */\n          dup2\n          and\n            /* \"#utility.yul\":400:442   */\n          dup2\n          eq\n            /* \"#utility.yul\":390:460   */\n          tag_84\n          jumpi\n            /* \"#utility.yul\":456:457   */\n          0x00\n            /* \"#utility.yul\":453:454   */\n          dup1\n            /* \"#utility.yul\":446:458   */\n          revert\n            /* \"#utility.yul\":390:460   */\n        tag_84:\n            /* \"#utility.yul\":293:466   */\n          swap2\n          swap1\n          pop\n          jump\t// out\n            /* \"#utility.yul\":471:657   */\n        tag_18:\n            /* \"#utility.yul\":530:536   */\n          0x00\n            /* \"#utility.yul\":583:585   */\n          0x20\n            /* \"#utility.yul\":571:580   */\n          dup3\n            /* \"#utility.yul\":562:569   */\n          dup5\n            /* \"#utility.yul\":558:581   */\n          sub\n            /* \"#utility.yul\":554:586   */\n          slt\n            /* \"#utility.yul\":551:603   */\n          iszero\n          tag_86\n          jumpi\n            /* \"#utility.yul\":599:600   */\n          0x00\n            /* \"#utility.yul\":596:597   */\n          dup1\n            /* \"#utility.yul\":589:601   */\n          revert\n            /* \"#utility.yul\":551:603   */\n        tag_86:\n            /* \"#utility.yul\":622:651   */\n          tag_87\n            /* \"#utility.yul\":641:650   */\n          dup3\n            /* \"#utility.yul\":622:651   */\n          tag_79\n          jump\t// in\n        tag_87:\n            /* \"#utility.yul\":612:651   */\n          swap4\n            /* \"#utility.yul\":471:657   */\n          swap3\n          pop\n          pop\n          pop\n          jump\t// out\n            /* \"#utility.yul\":915:1169   */\n        tag_25:\n            /* \"#utility.yul\":983:989   */\n          0x00\n            /* \"#utility.yul\":991:997   */\n          dup1\n            /* \"#utility.yul\":1044:1046   */\n          0x40\n            /* \"#utility.yul\":1032:1041   */\n          dup4\n            /* \"#utility.yul\":1023:1030   */\n          dup6\n            /* \"#utility.yul\":1019:1042   */\n          sub\n            /* \"#utility.yul\":1015:1047   */\n          slt\n            /* \"#utility.yul\":1012:1064   */\n          iszero\n          tag_90\n          jumpi\n            /* \"#utility.yul\":1060:1061   */\n          0x00\n            /* \"#utility.yul\":1057:1058   */\n          dup1\n            /* \"#utility.yul\":1050:1062   */\n          revert\n            /* \"#utility.yul\":1012:1064   */\n        tag_90:\n            /* \"#utility.yul\":1083:1112   */\n          tag_91\n            /* \"#utility.yul\":1102:1111   */\n          dup4\n            /* \"#utility.yul\":1083:1112   */\n          tag_79\n          jump\t// in\n        tag_91:\n            /* \"#utility.yul\":1073:1112   */\n          swap5\n            /* \"#utility.yul\":1159:1161   */\n          0x20\n            /* \"#utility.yul\":1144:1162   */\n          swap4\n          swap1\n          swap4\n          add\n            /* \"#utility.yul\":1131:1163   */\n          calldataload\n          swap4\n          pop\n          pop\n          pop\n            /* \"#utility.yul\":915:1169   */\n          jump\t// out\n            /* \"#utility.yul\":1174:1354   */\n        tag_30:\n            /* \"#utility.yul\":1233:1239   */\n          0x00\n            /* \"#utility.yul\":1286:1288   */\n          0x20\n            /* \"#utility.yul\":1274:1283   */\n          dup3\n            /* \"#utility.yul\":1265:1272   */\n          dup5\n            /* \"#utility.yul\":1261:1284   */\n          sub\n            /* \"#utility.yul\":1257:1289   */\n          slt\n            /* \"#utility.yul\":1254:1306   */\n          iszero\n          tag_93\n          jumpi\n            /* \"#utility.yul\":1302:1303   */\n          0x00\n            /* \"#utility.yul\":1299:1300   */\n          dup1\n            /* \"#utility.yul\":1292:1304   */\n          revert\n            /* \"#utility.yul\":1254:1306   */\n        tag_93:\n          pop\n            /* \"#utility.yul\":1325:1348   */\n          calldataload\n          swap2\n            /* \"#utility.yul\":1174:1354   */\n          swap1\n          pop\n          jump\t// out\n            /* \"#utility.yul\":1359:1477   */\n        tag_80:\n            /* \"#utility.yul\":1445:1450   */\n          dup1\n            /* \"#utility.yul\":1438:1451   */\n          iszero\n            /* \"#utility.yul\":1431:1452   */\n          iszero\n            /* \"#utility.yul\":1424:1429   */\n          dup2\n            /* \"#utility.yul\":1421:1453   */\n          eq\n            /* \"#utility.yul\":1411:1471   */\n          tag_95\n          jumpi\n            /* \"#utility.yul\":1467:1468   */\n          0x00\n            /* \"#utility.yul\":1464:1465   */\n          dup1\n            /* \"#utility.yul\":1457:1469   */\n          revert\n            /* \"#utility.yul\":1411:1471   */\n        tag_95:\n            /* \"#utility.yul\":1359:1477   */\n          pop\n          jump\t// out\n            /* \"#utility.yul\":1482:2229   */\n        tag_35:\n            /* \"#utility.yul\":1574:1580   */\n          0x00\n            /* \"#utility.yul\":1582:1588   */\n          dup1\n            /* \"#utility.yul\":1626:1635   */\n          dup3\n            /* \"#utility.yul\":1617:1624   */\n          dup5\n            /* \"#utility.yul\":1613:1636   */\n          sub\n            /* \"#utility.yul\":1656:1658   */\n          0x40\n            /* \"#utility.yul\":1652:1654   */\n          dup2\n            /* \"#utility.yul\":1648:1659   */\n          slt\n            /* \"#utility.yul\":1645:1676   */\n          iszero\n          tag_97\n          jumpi\n            /* \"#utility.yul\":1672:1673   */\n          0x00\n            /* \"#utility.yul\":1669:1670   */\n          dup1\n            /* \"#utility.yul\":1662:1674   */\n          revert\n            /* \"#utility.yul\":1645:1676   */\n        tag_97:\n            /* \"#utility.yul\":1695:1724   */\n          tag_98\n            /* \"#utility.yul\":1714:1723   */\n          dup5\n            /* \"#utility.yul\":1695:1724   */\n          tag_79\n          jump\t// in\n        tag_98:\n            /* \"#utility.yul\":1685:1724   */\n          swap3\n          pop\n            /* \"#utility.yul\":1758:1760   */\n          0x20\n          not(0x1f)\n            /* \"#utility.yul\":1740:1756   */\n          dup3\n          add\n            /* \"#utility.yul\":1736:1761   */\n          slt\n            /* \"#utility.yul\":1733:1778   */\n          iszero\n          tag_99\n          jumpi\n            /* \"#utility.yul\":1774:1775   */\n          0x00\n            /* \"#utility.yul\":1771:1772   */\n          dup1\n            /* \"#utility.yul\":1764:1776   */\n          revert\n            /* \"#utility.yul\":1733:1778   */\n        tag_99:\n          pop\n            /* \"#utility.yul\":1807:1809   */\n          0x40\n            /* \"#utility.yul\":1801:1810   */\n          mload\n            /* \"#utility.yul\":1849:1851   */\n          0x20\n            /* \"#utility.yul\":1841:1847   */\n          dup2\n            /* \"#utility.yul\":1837:1852   */\n          add\n            /* \"#utility.yul\":1918:1924   */\n          dup2\n            /* \"#utility.yul\":1906:1916   */\n          dup2\n            /* \"#utility.yul\":1903:1925   */\n          lt\n            /* \"#utility.yul\":1882:1900   */\n          0xffffffffffffffff\n            /* \"#utility.yul\":1870:1880   */\n          dup3\n            /* \"#utility.yul\":1867:1901   */\n          gt\n            /* \"#utility.yul\":1864:1926   */\n          or\n            /* \"#utility.yul\":1861:2046   */\n          iszero\n          tag_100\n          jumpi\n            /* \"#utility.yul\":1968:1978   */\n          0x4e487b71\n            /* \"#utility.yul\":1963:1966   */\n          0xe0\n            /* \"#utility.yul\":1959:1979   */\n          shl\n            /* \"#utility.yul\":1956:1957   */\n          0x00\n            /* \"#utility.yul\":1949:1980   */\n          mstore\n            /* \"#utility.yul\":2003:2007   */\n          0x41\n            /* \"#utility.yul\":2000:2001   */\n          0x04\n            /* \"#utility.yul\":1993:2008   */\n          mstore\n            /* \"#utility.yul\":2031:2035   */\n          0x24\n            /* \"#utility.yul\":2028:2029   */\n          0x00\n            /* \"#utility.yul\":2021:2036   */\n          revert\n            /* \"#utility.yul\":1861:2046   */\n        tag_100:\n            /* \"#utility.yul\":2062:2064   */\n          0x40\n            /* \"#utility.yul\":2055:2077   */\n          mstore\n            /* \"#utility.yul\":2127:2129   */\n          0x20\n            /* \"#utility.yul\":2112:2130   */\n          dup5\n          add\n            /* \"#utility.yul\":2099:2131   */\n          calldataload\n            /* \"#utility.yul\":2140:2168   */\n          tag_101\n            /* \"#utility.yul\":2099:2131   */\n          dup2\n            /* \"#utility.yul\":2140:2168   */\n          tag_80\n          jump\t// in\n        tag_101:\n            /* \"#utility.yul\":2177:2198   */\n          dup2\n          mstore\n            /* \"#utility.yul\":1482:2229   */\n          swap2\n          swap5\n            /* \"#utility.yul\":2184:2190   */\n          swap2\n          swap4\n          pop\n            /* \"#utility.yul\":1482:2229   */\n          swap1\n          swap2\n          pop\n          pop\n          jump\t// out\n            /* \"#utility.yul\":2948:4032   */\n        tag_48:\n            /* \"#utility.yul\":3040:3046   */\n          0x00\n            /* \"#utility.yul\":3048:3054   */\n          dup1\n            /* \"#utility.yul\":3092:3101   */\n          dup3\n            /* \"#utility.yul\":3083:3090   */\n          dup5\n            /* \"#utility.yul\":3079:3102   */\n          sub\n            /* \"#utility.yul\":3122:3125   */\n          0xc0\n            /* \"#utility.yul\":3118:3120   */\n          dup2\n            /* \"#utility.yul\":3114:3126   */\n          slt\n            /* \"#utility.yul\":3111:3143   */\n          iszero\n          tag_105\n          jumpi\n            /* \"#utility.yul\":3139:3140   */\n          0x00\n            /* \"#utility.yul\":3136:3137   */\n          dup1\n            /* \"#utility.yul\":3129:3141   */\n          revert\n            /* \"#utility.yul\":3111:3143   */\n        tag_105:\n            /* \"#utility.yul\":3162:3185   */\n          dup4\n          calldataload\n          swap3\n          pop\n            /* \"#utility.yul\":3219:3223   */\n          0xa0\n          not(0x1f)\n            /* \"#utility.yul\":3201:3217   */\n          dup3\n          add\n            /* \"#utility.yul\":3197:3224   */\n          slt\n            /* \"#utility.yul\":3194:3241   */\n          iszero\n          tag_106\n          jumpi\n            /* \"#utility.yul\":3237:3238   */\n          0x00\n            /* \"#utility.yul\":3234:3235   */\n          dup1\n            /* \"#utility.yul\":3227:3239   */\n          revert\n            /* \"#utility.yul\":3194:3241   */\n        tag_106:\n          pop\n            /* \"#utility.yul\":3270:3272   */\n          0x40\n            /* \"#utility.yul\":3264:3273   */\n          mload\n            /* \"#utility.yul\":3312:3316   */\n          0xa0\n            /* \"#utility.yul\":3304:3310   */\n          dup2\n            /* \"#utility.yul\":3300:3317   */\n          add\n            /* \"#utility.yul\":3383:3389   */\n          dup2\n            /* \"#utility.yul\":3371:3381   */\n          dup2\n            /* \"#utility.yul\":3368:3390   */\n          lt\n            /* \"#utility.yul\":3347:3365   */\n          0xffffffffffffffff\n            /* \"#utility.yul\":3335:3345   */\n          dup3\n            /* \"#utility.yul\":3332:3366   */\n          gt\n            /* \"#utility.yul\":3329:3391   */\n          or\n            /* \"#utility.yul\":3326:3511   */\n          iszero\n          tag_107\n          jumpi\n            /* \"#utility.yul\":3433:3443   */\n          0x4e487b71\n            /* \"#utility.yul\":3428:3431   */\n          0xe0\n            /* \"#utility.yul\":3424:3444   */\n          shl\n            /* \"#utility.yul\":3421:3422   */\n          0x00\n            /* \"#utility.yul\":3414:3445   */\n          mstore\n            /* \"#utility.yul\":3468:3472   */\n          0x41\n            /* \"#utility.yul\":3465:3466   */\n          0x04\n            /* \"#utility.yul\":3458:3473   */\n          mstore\n            /* \"#utility.yul\":3496:3500   */\n          0x24\n            /* \"#utility.yul\":3493:3494   */\n          0x00\n            /* \"#utility.yul\":3486:3501   */\n          revert\n            /* \"#utility.yul\":3326:3511   */\n        tag_107:\n            /* \"#utility.yul\":3531:3541   */\n          dup1\n            /* \"#utility.yul\":3527:3529   */\n          0x40\n            /* \"#utility.yul\":3520:3542   */\n          mstore\n          pop\n            /* \"#utility.yul\":3594:3596   */\n          0x20\n            /* \"#utility.yul\":3583:3592   */\n          dup5\n            /* \"#utility.yul\":3579:3597   */\n          add\n            /* \"#utility.yul\":3566:3598   */\n          calldataload\n            /* \"#utility.yul\":3558:3564   */\n          dup2\n            /* \"#utility.yul\":3551:3599   */\n          mstore\n            /* \"#utility.yul\":3660:3662   */\n          0x40\n            /* \"#utility.yul\":3649:3658   */\n          dup5\n            /* \"#utility.yul\":3645:3663   */\n          add\n            /* \"#utility.yul\":3632:3664   */\n          calldataload\n            /* \"#utility.yul\":3627:3629   */\n          0x20\n            /* \"#utility.yul\":3619:3625   */\n          dup3\n            /* \"#utility.yul\":3615:3630   */\n          add\n            /* \"#utility.yul\":3608:3665   */\n          mstore\n            /* \"#utility.yul\":3726:3728   */\n          0x60\n            /* \"#utility.yul\":3715:3724   */\n          dup5\n            /* \"#utility.yul\":3711:3729   */\n          add\n            /* \"#utility.yul\":3698:3730   */\n          calldataload\n            /* \"#utility.yul\":3693:3695   */\n          0x40\n            /* \"#utility.yul\":3685:3691   */\n          dup3\n            /* \"#utility.yul\":3681:3696   */\n          add\n            /* \"#utility.yul\":3674:3731   */\n          mstore\n            /* \"#utility.yul\":3781:3784   */\n          0x80\n            /* \"#utility.yul\":3770:3779   */\n          dup5\n            /* \"#utility.yul\":3766:3785   */\n          add\n            /* \"#utility.yul\":3753:3786   */\n          calldataload\n            /* \"#utility.yul\":3795:3823   */\n          tag_108\n            /* \"#utility.yul\":3817:3822   */\n          dup2\n            /* \"#utility.yul\":3795:3823   */\n          tag_80\n          jump\t// in\n        tag_108:\n            /* \"#utility.yul\":3851:3853   */\n          0x60\n            /* \"#utility.yul\":3839:3854   */\n          dup3\n          add\n            /* \"#utility.yul\":3832:3862   */\n          mstore\n            /* \"#utility.yul\":3914:3918   */\n          0xa0\n            /* \"#utility.yul\":3899:3919   */\n          dup5\n          add\n            /* \"#utility.yul\":3886:3920   */\n          calldataload\n            /* \"#utility.yul\":3929:3959   */\n          tag_109\n            /* \"#utility.yul\":3886:3920   */\n          dup2\n            /* \"#utility.yul\":3929:3959   */\n          tag_80\n          jump\t// in\n        tag_109:\n            /* \"#utility.yul\":3987:3990   */\n          0x80\n            /* \"#utility.yul\":3975:3991   */\n          dup3\n          add\n            /* \"#utility.yul\":3968:4001   */\n          mstore\n            /* \"#utility.yul\":2948:4032   */\n          swap2\n          swap5\n            /* \"#utility.yul\":3979:3985   */\n          swap2\n          swap4\n          pop\n            /* \"#utility.yul\":2948:4032   */\n          swap1\n          swap2\n          pop\n          pop\n          jump\t// out\n            /* \"#utility.yul\":4324:4569   */\n        tag_62:\n            /* \"#utility.yul\":4391:4397   */\n          0x00\n            /* \"#utility.yul\":4444:4446   */\n          0x20\n            /* \"#utility.yul\":4432:4441   */\n          dup3\n            /* \"#utility.yul\":4423:4430   */\n          dup5\n            /* \"#utility.yul\":4419:4442   */\n          sub\n            /* \"#utility.yul\":4415:4447   */\n          slt\n            /* \"#utility.yul\":4412:4464   */\n          iszero\n          tag_112\n          jumpi\n            /* \"#utility.yul\":4460:4461   */\n          0x00\n            /* \"#utility.yul\":4457:4458   */\n          dup1\n            /* \"#utility.yul\":4450:4462   */\n          revert\n            /* \"#utility.yul\":4412:4464   */\n        tag_112:\n            /* \"#utility.yul\":4492:4501   */\n          dup2\n            /* \"#utility.yul\":4486:4502   */\n          mload\n            /* \"#utility.yul\":4511:4539   */\n          tag_87\n            /* \"#utility.yul\":4533:4538   */\n          dup2\n            /* \"#utility.yul\":4511:4539   */\n          tag_80\n          jump\t// in\n\n        auxdata: 0xa26469706673582212201603d0dc89f1bd849e33733d0727e4b4c00dbd2776e4f310e7e5c7154fc420e064736f6c63430008120033\n    }\n}\n\nsub_2: assembly {\n        /* \"blockchain/contracts/Polygon/Pool/Prototype/pool/token.sol\":167:3807  contract Token is IERC20 {... */\n      mstore(0x40, 0x80)\n        /* \"blockchain/contracts/Polygon/Pool/Prototype/pool/token.sol\":593:866  constructor(... */\n      callvalue\n      dup1\n      iszero\n      tag_1\n      jumpi\n      0x00\n      dup1\n      revert\n    tag_1:\n      pop\n      mload(0x40)\n      sub(codesize, bytecodeSize)\n      dup1\n      bytecodeSize\n      dup4\n      codecopy\n      dup2\n      add\n      0x40\n      dup2\n      swap1\n      mstore\n      tag_2\n      swap2\n      tag_3\n      jump\t// in\n    tag_2:\n        /* \"blockchain/contracts/Polygon/Pool/Prototype/pool/token.sol\":731:733  18 */\n      0x12\n        /* \"blockchain/contracts/Polygon/Pool/Prototype/pool/token.sol\":718:727  _decimals */\n      dup2\n        /* \"blockchain/contracts/Polygon/Pool/Prototype/pool/token.sol\":718:733  _decimals <= 18 */\n      0xff\n      and\n      gt\n      iszero\n        /* \"blockchain/contracts/Polygon/Pool/Prototype/pool/token.sol\":709:735  require( _decimals <= 18 ) */\n      tag_6\n      jumpi\n      0x00\n      dup1\n      revert\n    tag_6:\n        /* \"blockchain/contracts/Polygon/Pool/Prototype/pool/token.sol\":781:783  my */\n      0x00\n        /* \"blockchain/contracts/Polygon/Pool/Prototype/pool/token.sol\":781:796  my.name = _name */\n      tag_8\n        /* \"blockchain/contracts/Polygon/Pool/Prototype/pool/token.sol\":791:796  _name */\n      dup5\n        /* \"blockchain/contracts/Polygon/Pool/Prototype/pool/token.sol\":781:783  my */\n      dup3\n        /* \"blockchain/contracts/Polygon/Pool/Prototype/pool/token.sol\":781:796  my.name = _name */\n      tag_9\n      jump\t// in\n    tag_8:\n      pop\n        /* \"blockchain/contracts/Polygon/Pool/Prototype/pool/token.sol\":806:815  my.symbol */\n      0x01\n        /* \"blockchain/contracts/Polygon/Pool/Prototype/pool/token.sol\":806:825  my.symbol = _symbol */\n      tag_10\n        /* \"blockchain/contracts/Polygon/Pool/Prototype/pool/token.sol\":818:825  _symbol */\n      dup4\n        /* \"blockchain/contracts/Polygon/Pool/Prototype/pool/token.sol\":806:815  my.symbol */\n      dup3\n        /* \"blockchain/contracts/Polygon/Pool/Prototype/pool/token.sol\":806:825  my.symbol = _symbol */\n      tag_9\n      jump\t// in\n    tag_10:\n      pop\n        /* \"blockchain/contracts/Polygon/Pool/Prototype/pool/token.sol\":835:846  my.decimals */\n      0x02\n        /* \"blockchain/contracts/Polygon/Pool/Prototype/pool/token.sol\":835:858  my.decimals = _decimals */\n      dup1\n      sload\n      not(0xff)\n      and\n      0xff\n      swap3\n      swap1\n      swap3\n      and\n      swap2\n      swap1\n      swap2\n      or\n      swap1\n      sstore\n      pop\n        /* \"blockchain/contracts/Polygon/Pool/Prototype/pool/token.sol\":167:3807  contract Token is IERC20 {... */\n      tag_18\n      swap1\n      pop\n      jump\n        /* \"#utility.yul\":14:141   */\n    tag_12:\n        /* \"#utility.yul\":75:85   */\n      0x4e487b71\n        /* \"#utility.yul\":70:73   */\n      0xe0\n        /* \"#utility.yul\":66:86   */\n      shl\n        /* \"#utility.yul\":63:64   */\n      0x00\n        /* \"#utility.yul\":56:87   */\n      mstore\n        /* \"#utility.yul\":106:110   */\n      0x41\n        /* \"#utility.yul\":103:104   */\n      0x04\n        /* \"#utility.yul\":96:111   */\n      mstore\n        /* \"#utility.yul\":130:134   */\n      0x24\n        /* \"#utility.yul\":127:128   */\n      0x00\n        /* \"#utility.yul\":120:135   */\n      revert\n        /* \"#utility.yul\":146:986   */\n    tag_13:\n        /* \"#utility.yul\":200:205   */\n      0x00\n        /* \"#utility.yul\":253:256   */\n      dup3\n        /* \"#utility.yul\":246:250   */\n      0x1f\n        /* \"#utility.yul\":238:244   */\n      dup4\n        /* \"#utility.yul\":234:251   */\n      add\n        /* \"#utility.yul\":230:257   */\n      slt\n        /* \"#utility.yul\":220:275   */\n      tag_21\n      jumpi\n        /* \"#utility.yul\":271:272   */\n      0x00\n        /* \"#utility.yul\":268:269   */\n      dup1\n        /* \"#utility.yul\":261:273   */\n      revert\n        /* \"#utility.yul\":220:275   */\n    tag_21:\n        /* \"#utility.yul\":294:307   */\n      dup2\n      mload\n      sub(shl(0x40, 0x01), 0x01)\n        /* \"#utility.yul\":356:366   */\n      dup1\n      dup3\n      gt\n        /* \"#utility.yul\":353:389   */\n      iszero\n      tag_23\n      jumpi\n        /* \"#utility.yul\":369:387   */\n      tag_23\n      tag_12\n      jump\t// in\n    tag_23:\n        /* \"#utility.yul\":444:446   */\n      0x40\n        /* \"#utility.yul\":438:447   */\n      mload\n        /* \"#utility.yul\":412:414   */\n      0x1f\n        /* \"#utility.yul\":498:511   */\n      dup4\n      add\n      not(0x1f)\n        /* \"#utility.yul\":494:516   */\n      swap1\n      dup2\n      and\n        /* \"#utility.yul\":518:520   */\n      0x3f\n        /* \"#utility.yul\":490:521   */\n      add\n        /* \"#utility.yul\":486:526   */\n      and\n        /* \"#utility.yul\":474:527   */\n      dup2\n      add\n      swap1\n        /* \"#utility.yul\":542:560   */\n      dup3\n      dup3\n      gt\n        /* \"#utility.yul\":562:584   */\n      dup2\n      dup4\n      lt\n        /* \"#utility.yul\":539:585   */\n      or\n        /* \"#utility.yul\":536:608   */\n      iszero\n      tag_25\n      jumpi\n        /* \"#utility.yul\":588:606   */\n      tag_25\n      tag_12\n      jump\t// in\n    tag_25:\n        /* \"#utility.yul\":628:638   */\n      dup2\n        /* \"#utility.yul\":624:626   */\n      0x40\n        /* \"#utility.yul\":617:639   */\n      mstore\n        /* \"#utility.yul\":663:665   */\n      dup4\n        /* \"#utility.yul\":655:661   */\n      dup2\n        /* \"#utility.yul\":648:666   */\n      mstore\n        /* \"#utility.yul\":685:689   */\n      0x20\n        /* \"#utility.yul\":675:689   */\n      swap3\n      pop\n        /* \"#utility.yul\":730:733   */\n      dup7\n        /* \"#utility.yul\":725:727   */\n      dup4\n        /* \"#utility.yul\":720:722   */\n      dup6\n        /* \"#utility.yul\":712:718   */\n      dup9\n        /* \"#utility.yul\":708:723   */\n      add\n        /* \"#utility.yul\":704:728   */\n      add\n        /* \"#utility.yul\":701:734   */\n      gt\n        /* \"#utility.yul\":698:751   */\n      iszero\n      tag_26\n      jumpi\n        /* \"#utility.yul\":747:748   */\n      0x00\n        /* \"#utility.yul\":744:745   */\n      dup1\n        /* \"#utility.yul\":737:749   */\n      revert\n        /* \"#utility.yul\":698:751   */\n    tag_26:\n        /* \"#utility.yul\":769:770   */\n      0x00\n        /* \"#utility.yul\":760:770   */\n      swap2\n      pop\n        /* \"#utility.yul\":779:912   */\n    tag_27:\n        /* \"#utility.yul\":793:795   */\n      dup4\n        /* \"#utility.yul\":790:791   */\n      dup3\n        /* \"#utility.yul\":787:796   */\n      lt\n        /* \"#utility.yul\":779:912   */\n      iszero\n      tag_29\n      jumpi\n        /* \"#utility.yul\":881:895   */\n      dup6\n      dup3\n      add\n        /* \"#utility.yul\":877:900   */\n      dup4\n      add\n        /* \"#utility.yul\":871:901   */\n      mload\n        /* \"#utility.yul\":850:864   */\n      dup2\n      dup4\n      add\n        /* \"#utility.yul\":846:869   */\n      dup5\n      add\n        /* \"#utility.yul\":839:902   */\n      mstore\n        /* \"#utility.yul\":804:814   */\n      swap1\n      dup3\n      add\n      swap1\n        /* \"#utility.yul\":779:912   */\n      jump(tag_27)\n    tag_29:\n        /* \"#utility.yul\":954:955   */\n      0x00\n        /* \"#utility.yul\":932:947   */\n      swap4\n      dup2\n      add\n        /* \"#utility.yul\":928:952   */\n      swap1\n      swap3\n      add\n        /* \"#utility.yul\":921:956   */\n      swap3\n      swap1\n      swap3\n      mstore\n        /* \"#utility.yul\":936:942   */\n      swap5\n        /* \"#utility.yul\":146:986   */\n      swap4\n      pop\n      pop\n      pop\n      pop\n      jump\t// out\n        /* \"#utility.yul\":991:1703   */\n    tag_3:\n        /* \"#utility.yul\":1097:1103   */\n      0x00\n        /* \"#utility.yul\":1105:1111   */\n      dup1\n        /* \"#utility.yul\":1113:1119   */\n      0x00\n        /* \"#utility.yul\":1166:1168   */\n      0x60\n        /* \"#utility.yul\":1154:1163   */\n      dup5\n        /* \"#utility.yul\":1145:1152   */\n      dup7\n        /* \"#utility.yul\":1141:1164   */\n      sub\n        /* \"#utility.yul\":1137:1169   */\n      slt\n        /* \"#utility.yul\":1134:1186   */\n      iszero\n      tag_31\n      jumpi\n        /* \"#utility.yul\":1182:1183   */\n      0x00\n        /* \"#utility.yul\":1179:1180   */\n      dup1\n        /* \"#utility.yul\":1172:1184   */\n      revert\n        /* \"#utility.yul\":1134:1186   */\n    tag_31:\n        /* \"#utility.yul\":1209:1225   */\n      dup4\n      mload\n      sub(shl(0x40, 0x01), 0x01)\n        /* \"#utility.yul\":1274:1288   */\n      dup1\n      dup3\n      gt\n        /* \"#utility.yul\":1271:1305   */\n      iszero\n      tag_32\n      jumpi\n        /* \"#utility.yul\":1301:1302   */\n      0x00\n        /* \"#utility.yul\":1298:1299   */\n      dup1\n        /* \"#utility.yul\":1291:1303   */\n      revert\n        /* \"#utility.yul\":1271:1305   */\n    tag_32:\n        /* \"#utility.yul\":1324:1385   */\n      tag_33\n        /* \"#utility.yul\":1377:1384   */\n      dup8\n        /* \"#utility.yul\":1368:1374   */\n      dup4\n        /* \"#utility.yul\":1357:1366   */\n      dup9\n        /* \"#utility.yul\":1353:1375   */\n      add\n        /* \"#utility.yul\":1324:1385   */\n      tag_13\n      jump\t// in\n    tag_33:\n        /* \"#utility.yul\":1314:1385   */\n      swap5\n      pop\n        /* \"#utility.yul\":1431:1433   */\n      0x20\n        /* \"#utility.yul\":1420:1429   */\n      dup7\n        /* \"#utility.yul\":1416:1434   */\n      add\n        /* \"#utility.yul\":1410:1435   */\n      mload\n        /* \"#utility.yul\":1394:1435   */\n      swap2\n      pop\n        /* \"#utility.yul\":1460:1462   */\n      dup1\n        /* \"#utility.yul\":1450:1458   */\n      dup3\n        /* \"#utility.yul\":1447:1463   */\n      gt\n        /* \"#utility.yul\":1444:1480   */\n      iszero\n      tag_34\n      jumpi\n        /* \"#utility.yul\":1476:1477   */\n      0x00\n        /* \"#utility.yul\":1473:1474   */\n      dup1\n        /* \"#utility.yul\":1466:1478   */\n      revert\n        /* \"#utility.yul\":1444:1480   */\n    tag_34:\n      pop\n        /* \"#utility.yul\":1499:1562   */\n      tag_35\n        /* \"#utility.yul\":1554:1561   */\n      dup7\n        /* \"#utility.yul\":1543:1551   */\n      dup3\n        /* \"#utility.yul\":1532:1541   */\n      dup8\n        /* \"#utility.yul\":1528:1552   */\n      add\n        /* \"#utility.yul\":1499:1562   */\n      tag_13\n      jump\t// in\n    tag_35:\n        /* \"#utility.yul\":1489:1562   */\n      swap3\n      pop\n      pop\n        /* \"#utility.yul\":1605:1607   */\n      0x40\n        /* \"#utility.yul\":1594:1603   */\n      dup5\n        /* \"#utility.yul\":1590:1608   */\n      add\n        /* \"#utility.yul\":1584:1609   */\n      mload\n        /* \"#utility.yul\":1649:1653   */\n      0xff\n        /* \"#utility.yul\":1642:1647   */\n      dup2\n        /* \"#utility.yul\":1638:1654   */\n      and\n        /* \"#utility.yul\":1631:1636   */\n      dup2\n        /* \"#utility.yul\":1628:1655   */\n      eq\n        /* \"#utility.yul\":1618:1673   */\n      tag_36\n      jumpi\n        /* \"#utility.yul\":1669:1670   */\n      0x00\n        /* \"#utility.yul\":1666:1667   */\n      dup1\n        /* \"#utility.yul\":1659:1671   */\n      revert\n        /* \"#utility.yul\":1618:1673   */\n    tag_36:\n        /* \"#utility.yul\":1692:1697   */\n      dup1\n        /* \"#utility.yul\":1682:1697   */\n      swap2\n      pop\n      pop\n        /* \"#utility.yul\":991:1703   */\n      swap3\n      pop\n      swap3\n      pop\n      swap3\n      jump\t// out\n        /* \"#utility.yul\":1708:2088   */\n    tag_14:\n        /* \"#utility.yul\":1787:1788   */\n      0x01\n        /* \"#utility.yul\":1783:1795   */\n      dup2\n      dup2\n      shr\n      swap1\n        /* \"#utility.yul\":1830:1842   */\n      dup3\n      and\n      dup1\n        /* \"#utility.yul\":1851:1912   */\n      tag_38\n      jumpi\n        /* \"#utility.yul\":1905:1909   */\n      0x7f\n        /* \"#utility.yul\":1897:1903   */\n      dup3\n        /* \"#utility.yul\":1893:1910   */\n      and\n        /* \"#utility.yul\":1883:1910   */\n      swap2\n      pop\n        /* \"#utility.yul\":1851:1912   */\n    tag_38:\n        /* \"#utility.yul\":1958:1960   */\n      0x20\n        /* \"#utility.yul\":1950:1956   */\n      dup3\n        /* \"#utility.yul\":1947:1961   */\n      lt\n        /* \"#utility.yul\":1927:1945   */\n      dup2\n        /* \"#utility.yul\":1924:1962   */\n      sub\n        /* \"#utility.yul\":1921:2082   */\n      tag_39\n      jumpi\n        /* \"#utility.yul\":2004:2014   */\n      0x4e487b71\n        /* \"#utility.yul\":1999:2002   */\n      0xe0\n        /* \"#utility.yul\":1995:2015   */\n      shl\n        /* \"#utility.yul\":1992:1993   */\n      0x00\n        /* \"#utility.yul\":1985:2016   */\n      mstore\n        /* \"#utility.yul\":2039:2043   */\n      0x22\n        /* \"#utility.yul\":2036:2037   */\n      0x04\n        /* \"#utility.yul\":2029:2044   */\n      mstore\n        /* \"#utility.yul\":2067:2071   */\n      0x24\n        /* \"#utility.yul\":2064:2065   */\n      0x00\n        /* \"#utility.yul\":2057:2072   */\n      revert\n        /* \"#utility.yul\":1921:2082   */\n    tag_39:\n      pop\n        /* \"#utility.yul\":1708:2088   */\n      swap2\n      swap1\n      pop\n      jump\t// out\n        /* \"#utility.yul\":2219:2764   */\n    tag_16:\n        /* \"#utility.yul\":2321:2323   */\n      0x1f\n        /* \"#utility.yul\":2316:2319   */\n      dup3\n        /* \"#utility.yul\":2313:2324   */\n      gt\n        /* \"#utility.yul\":2310:2758   */\n      iszero\n      tag_42\n      jumpi\n        /* \"#utility.yul\":2357:2358   */\n      0x00\n        /* \"#utility.yul\":2382:2387   */\n      dup2\n        /* \"#utility.yul\":2378:2380   */\n      dup2\n        /* \"#utility.yul\":2371:2388   */\n      mstore\n        /* \"#utility.yul\":2427:2431   */\n      0x20\n        /* \"#utility.yul\":2423:2425   */\n      dup2\n        /* \"#utility.yul\":2413:2432   */\n      keccak256\n        /* \"#utility.yul\":2497:2499   */\n      0x1f\n        /* \"#utility.yul\":2485:2495   */\n      dup6\n        /* \"#utility.yul\":2481:2500   */\n      add\n        /* \"#utility.yul\":2478:2479   */\n      0x05\n        /* \"#utility.yul\":2474:2501   */\n      shr\n        /* \"#utility.yul\":2468:2472   */\n      dup2\n        /* \"#utility.yul\":2464:2502   */\n      add\n        /* \"#utility.yul\":2533:2537   */\n      0x20\n        /* \"#utility.yul\":2521:2531   */\n      dup7\n        /* \"#utility.yul\":2518:2538   */\n      lt\n        /* \"#utility.yul\":2515:2562   */\n      iszero\n      tag_43\n      jumpi\n      pop\n        /* \"#utility.yul\":2556:2560   */\n      dup1\n        /* \"#utility.yul\":2515:2562   */\n    tag_43:\n        /* \"#utility.yul\":2611:2613   */\n      0x1f\n        /* \"#utility.yul\":2606:2609   */\n      dup6\n        /* \"#utility.yul\":2602:2614   */\n      add\n        /* \"#utility.yul\":2599:2600   */\n      0x05\n        /* \"#utility.yul\":2595:2615   */\n      shr\n        /* \"#utility.yul\":2589:2593   */\n      dup3\n        /* \"#utility.yul\":2585:2616   */\n      add\n        /* \"#utility.yul\":2575:2616   */\n      swap2\n      pop\n        /* \"#utility.yul\":2666:2748   */\n    tag_44:\n        /* \"#utility.yul\":2684:2686   */\n      dup2\n        /* \"#utility.yul\":2677:2682   */\n      dup2\n        /* \"#utility.yul\":2674:2687   */\n      lt\n        /* \"#utility.yul\":2666:2748   */\n      iszero\n      tag_46\n      jumpi\n        /* \"#utility.yul\":2729:2746   */\n      dup3\n      dup2\n      sstore\n        /* \"#utility.yul\":2710:2711   */\n      0x01\n        /* \"#utility.yul\":2699:2712   */\n      add\n        /* \"#utility.yul\":2666:2748   */\n      jump(tag_44)\n    tag_46:\n        /* \"#utility.yul\":2670:2673   */\n      pop\n      pop\n      pop\n        /* \"#utility.yul\":2310:2758   */\n    tag_42:\n        /* \"#utility.yul\":2219:2764   */\n      pop\n      pop\n      pop\n      jump\t// out\n        /* \"#utility.yul\":2940:4292   */\n    tag_9:\n        /* \"#utility.yul\":3060:3070   */\n      dup2\n      mload\n      sub(shl(0x40, 0x01), 0x01)\n        /* \"#utility.yul\":3082:3112   */\n      dup2\n      gt\n        /* \"#utility.yul\":3079:3135   */\n      iszero\n      tag_50\n      jumpi\n        /* \"#utility.yul\":3115:3133   */\n      tag_50\n      tag_12\n      jump\t// in\n    tag_50:\n        /* \"#utility.yul\":3144:3241   */\n      tag_51\n        /* \"#utility.yul\":3234:3240   */\n      dup2\n        /* \"#utility.yul\":3194:3232   */\n      tag_52\n        /* \"#utility.yul\":3226:3230   */\n      dup5\n        /* \"#utility.yul\":3220:3231   */\n      sload\n        /* \"#utility.yul\":3194:3232   */\n      tag_14\n      jump\t// in\n    tag_52:\n        /* \"#utility.yul\":3188:3192   */\n      dup5\n        /* \"#utility.yul\":3144:3241   */\n      tag_16\n      jump\t// in\n    tag_51:\n        /* \"#utility.yul\":3296:3300   */\n      0x20\n      dup1\n        /* \"#utility.yul\":3360:3362   */\n      0x1f\n        /* \"#utility.yul\":3349:3363   */\n      dup4\n      gt\n        /* \"#utility.yul\":3377:3378   */\n      0x01\n        /* \"#utility.yul\":3372:4035   */\n      dup2\n      eq\n      tag_54\n      jumpi\n        /* \"#utility.yul\":4079:4080   */\n      0x00\n        /* \"#utility.yul\":4096:4102   */\n      dup5\n        /* \"#utility.yul\":4093:4182   */\n      iszero\n      tag_55\n      jumpi\n      pop\n        /* \"#utility.yul\":4148:4167   */\n      dup6\n      dup4\n      add\n        /* \"#utility.yul\":4142:4168   */\n      mload\n        /* \"#utility.yul\":4093:4182   */\n    tag_55:\n      not(0x00)\n        /* \"#utility.yul\":2897:2898   */\n      0x03\n        /* \"#utility.yul\":2893:2904   */\n      dup7\n      swap1\n      shl\n        /* \"#utility.yul\":2889:2913   */\n      shr\n        /* \"#utility.yul\":2885:2914   */\n      not\n        /* \"#utility.yul\":2875:2915   */\n      and\n        /* \"#utility.yul\":2921:2922   */\n      0x01\n        /* \"#utility.yul\":2917:2928   */\n      dup6\n      swap1\n      shl\n        /* \"#utility.yul\":2872:2929   */\n      or\n        /* \"#utility.yul\":4195:4276   */\n      dup6\n      sstore\n        /* \"#utility.yul\":3342:4286   */\n      jump(tag_46)\n        /* \"#utility.yul\":3372:4035   */\n    tag_54:\n        /* \"#utility.yul\":2166:2167   */\n      0x00\n        /* \"#utility.yul\":2159:2173   */\n      dup6\n      dup2\n      mstore\n        /* \"#utility.yul\":2203:2207   */\n      0x20\n        /* \"#utility.yul\":2190:2208   */\n      dup2\n      keccak256\n      not(0x1f)\n        /* \"#utility.yul\":3408:3428   */\n      dup7\n      and\n      swap2\n        /* \"#utility.yul\":3526:3762   */\n    tag_58:\n        /* \"#utility.yul\":3540:3547   */\n      dup3\n        /* \"#utility.yul\":3537:3538   */\n      dup2\n        /* \"#utility.yul\":3534:3548   */\n      lt\n        /* \"#utility.yul\":3526:3762   */\n      iszero\n      tag_60\n      jumpi\n        /* \"#utility.yul\":3629:3648   */\n      dup9\n      dup7\n      add\n        /* \"#utility.yul\":3623:3649   */\n      mload\n        /* \"#utility.yul\":3608:3650   */\n      dup3\n      sstore\n        /* \"#utility.yul\":3721:3748   */\n      swap5\n      dup5\n      add\n      swap5\n        /* \"#utility.yul\":3689:3690   */\n      0x01\n        /* \"#utility.yul\":3677:3691   */\n      swap1\n      swap2\n      add\n      swap1\n        /* \"#utility.yul\":3556:3575   */\n      dup5\n      add\n        /* \"#utility.yul\":3526:3762   */\n      jump(tag_58)\n    tag_60:\n        /* \"#utility.yul\":3530:3533   */\n      pop\n        /* \"#utility.yul\":3790:3796   */\n      dup6\n        /* \"#utility.yul\":3781:3788   */\n      dup3\n        /* \"#utility.yul\":3778:3797   */\n      lt\n        /* \"#utility.yul\":3775:3976   */\n      iszero\n      tag_61\n      jumpi\n        /* \"#utility.yul\":3851:3870   */\n      dup8\n      dup6\n      add\n        /* \"#utility.yul\":3845:3871   */\n      mload\n      not(0x00)\n        /* \"#utility.yul\":3934:3935   */\n      0x03\n        /* \"#utility.yul\":3930:3944   */\n      dup9\n      swap1\n      shl\n        /* \"#utility.yul\":3946:3949   */\n      0xf8\n        /* \"#utility.yul\":3926:3950   */\n      and\n        /* \"#utility.yul\":3922:3959   */\n      shr\n        /* \"#utility.yul\":3918:3960   */\n      not\n        /* \"#utility.yul\":3903:3961   */\n      and\n        /* \"#utility.yul\":3888:3962   */\n      dup2\n      sstore\n        /* \"#utility.yul\":3775:3976   */\n    tag_61:\n      pop\n      pop\n      pop\n      pop\n      pop\n        /* \"#utility.yul\":4022:4023   */\n      0x01\n        /* \"#utility.yul\":4006:4020   */\n      swap1\n      dup2\n      shl\n        /* \"#utility.yul\":4002:4024   */\n      add\n        /* \"#utility.yul\":3989:4025   */\n      swap1\n      sstore\n      pop\n        /* \"#utility.yul\":2940:4292   */\n      jump\t// out\n    tag_18:\n        /* \"blockchain/contracts/Polygon/Pool/Prototype/pool/token.sol\":167:3807  contract Token is IERC20 {... */\n      dataSize(sub_0)\n      dup1\n      dataOffset(sub_0)\n      0x00\n      codecopy\n      0x00\n      return\n    stop\n\n    sub_0: assembly {\n            /* \"blockchain/contracts/Polygon/Pool/Prototype/pool/token.sol\":167:3807  contract Token is IERC20 {... */\n          mstore(0x40, 0x80)\n          callvalue\n          dup1\n          iszero\n          tag_1\n          jumpi\n          0x00\n          dup1\n          revert\n        tag_1:\n          pop\n          jumpi(tag_2, lt(calldatasize, 0x04))\n          shr(0xe0, calldataload(0x00))\n          dup1\n          0x42966c68\n          gt\n          tag_14\n          jumpi\n          dup1\n          0x42966c68\n          eq\n          tag_8\n          jumpi\n          dup1\n          0x70a08231\n          eq\n          tag_9\n          jumpi\n          dup1\n          0x95d89b41\n          eq\n          tag_10\n          jumpi\n          dup1\n          0xa0712d68\n          eq\n          tag_11\n          jumpi\n          dup1\n          0xa9059cbb\n          eq\n          tag_12\n          jumpi\n          dup1\n          0xdd62ed3e\n          eq\n          tag_13\n          jumpi\n          0x00\n          dup1\n          revert\n        tag_14:\n          dup1\n          0x06fdde03\n          eq\n          tag_3\n          jumpi\n          dup1\n          0x095ea7b3\n          eq\n          tag_4\n          jumpi\n          dup1\n          0x18160ddd\n          eq\n          tag_5\n          jumpi\n          dup1\n          0x23b872dd\n          eq\n          tag_6\n          jumpi\n          dup1\n          0x313ce567\n          eq\n          tag_7\n          jumpi\n        tag_2:\n          0x00\n          dup1\n          revert\n            /* \"blockchain/contracts/Polygon/Pool/Prototype/pool/token.sol\":3163:3248  function name() public view returns (string memory) {... */\n        tag_3:\n          tag_15\n          tag_16\n          jump\t// in\n        tag_15:\n          mload(0x40)\n          tag_17\n          swap2\n          swap1\n          tag_18\n          jump\t// in\n        tag_17:\n          mload(0x40)\n          dup1\n          swap2\n          sub\n          swap1\n          return\n            /* \"blockchain/contracts/Polygon/Pool/Prototype/pool/token.sol\":2557:2893  function approve( address _spender, uint256 _value ) public returns (bool) {... */\n        tag_4:\n          tag_19\n          tag_20\n          calldatasize\n          0x04\n          tag_21\n          jump\t// in\n        tag_20:\n          tag_22\n          jump\t// in\n        tag_19:\n          mload(0x40)\n            /* \"#utility.yul\":1169:1183   */\n          swap1\n          iszero\n            /* \"#utility.yul\":1162:1184   */\n          iszero\n            /* \"#utility.yul\":1144:1185   */\n          dup2\n          mstore\n            /* \"#utility.yul\":1132:1134   */\n          0x20\n            /* \"#utility.yul\":1117:1135   */\n          add\n            /* \"blockchain/contracts/Polygon/Pool/Prototype/pool/token.sol\":2557:2893  function approve( address _spender, uint256 _value ) public returns (bool) {... */\n          tag_17\n            /* \"#utility.yul\":1004:1191   */\n          jump\n            /* \"blockchain/contracts/Polygon/Pool/Prototype/pool/token.sol\":3444:3538  function totalSupply() public view returns (uint256) {... */\n        tag_5:\n            /* \"blockchain/contracts/Polygon/Pool/Prototype/pool/token.sol\":3515:3530  my.total_supply */\n          sload(0x03)\n            /* \"blockchain/contracts/Polygon/Pool/Prototype/pool/token.sol\":3444:3538  function totalSupply() public view returns (uint256) {... */\n        tag_25:\n          mload(0x40)\n            /* \"#utility.yul\":1342:1367   */\n          swap1\n          dup2\n          mstore\n            /* \"#utility.yul\":1330:1332   */\n          0x20\n            /* \"#utility.yul\":1315:1333   */\n          add\n            /* \"blockchain/contracts/Polygon/Pool/Prototype/pool/token.sol\":3444:3538  function totalSupply() public view returns (uint256) {... */\n          tag_17\n            /* \"#utility.yul\":1196:1373   */\n          jump\n            /* \"blockchain/contracts/Polygon/Pool/Prototype/pool/token.sol\":2178:2551  function transferFrom( address _from, address _to, uint256 _value ) public returns (bool) {... */\n        tag_6:\n          tag_19\n          tag_30\n          calldatasize\n          0x04\n          tag_31\n          jump\t// in\n        tag_30:\n          tag_32\n          jump\t// in\n            /* \"blockchain/contracts/Polygon/Pool/Prototype/pool/token.sol\":3353:3438  function decimals() public view returns (uint8) {... */\n        tag_7:\n            /* \"blockchain/contracts/Polygon/Pool/Prototype/pool/token.sol\":3419:3430  my.decimals */\n          sload(0x02)\n            /* \"blockchain/contracts/Polygon/Pool/Prototype/pool/token.sol\":3353:3438  function decimals() public view returns (uint8) {... */\n          mload(0x40)\n            /* \"blockchain/contracts/Polygon/Pool/Prototype/pool/token.sol\":3419:3430  my.decimals */\n          0xff\n          swap1\n          swap2\n          and\n            /* \"#utility.yul\":1853:1889   */\n          dup2\n          mstore\n            /* \"#utility.yul\":1841:1843   */\n          0x20\n            /* \"#utility.yul\":1826:1844   */\n          add\n            /* \"blockchain/contracts/Polygon/Pool/Prototype/pool/token.sol\":3353:3438  function decimals() public view returns (uint8) {... */\n          tag_17\n            /* \"#utility.yul\":1711:1895   */\n          jump\n            /* \"blockchain/contracts/Polygon/Pool/Prototype/pool/token.sol\":3029:3157  function burn( uint256 _value ) public only_admin {... */\n        tag_8:\n          tag_38\n          tag_39\n          calldatasize\n          0x04\n          tag_40\n          jump\t// in\n        tag_39:\n          tag_41\n          jump\t// in\n        tag_38:\n          stop\n            /* \"blockchain/contracts/Polygon/Pool/Prototype/pool/token.sol\":3544:3654  function balanceOf( address _owner ) public view returns (uint256) {... */\n        tag_9:\n          tag_25\n          tag_43\n          calldatasize\n          0x04\n          tag_44\n          jump\t// in\n        tag_43:\n          sub(shl(0xa0, 0x01), 0x01)\n            /* \"blockchain/contracts/Polygon/Pool/Prototype/pool/token.sol\":3629:3646  balance[ _owner ] */\n          and\n            /* \"blockchain/contracts/Polygon/Pool/Prototype/pool/token.sol\":3602:3609  uint256 */\n          0x00\n            /* \"blockchain/contracts/Polygon/Pool/Prototype/pool/token.sol\":3629:3646  balance[ _owner ] */\n          swap1\n          dup2\n          mstore\n            /* \"blockchain/contracts/Polygon/Pool/Prototype/pool/token.sol\":3629:3636  balance */\n          0x05\n            /* \"blockchain/contracts/Polygon/Pool/Prototype/pool/token.sol\":3629:3646  balance[ _owner ] */\n          0x20\n          mstore\n          0x40\n          swap1\n          keccak256\n          sload\n          swap1\n            /* \"blockchain/contracts/Polygon/Pool/Prototype/pool/token.sol\":3544:3654  function balanceOf( address _owner ) public view returns (uint256) {... */\n          jump\n            /* \"blockchain/contracts/Polygon/Pool/Prototype/pool/token.sol\":3258:3347  function symbol() public view returns (string memory) {... */\n        tag_10:\n          tag_15\n          tag_48\n          jump\t// in\n            /* \"blockchain/contracts/Polygon/Pool/Prototype/pool/token.sol\":2899:3023  function mint( uint256 _value ) public only_admin {... */\n        tag_11:\n          tag_38\n          tag_51\n          calldatasize\n          0x04\n          tag_40\n          jump\t// in\n        tag_51:\n          tag_52\n          jump\t// in\n            /* \"blockchain/contracts/Polygon/Pool/Prototype/pool/token.sol\":1984:2172  function transfer( address _to, uint256 _value ) public returns (bool) {... */\n        tag_12:\n          tag_19\n          tag_54\n          calldatasize\n          0x04\n          tag_21\n          jump\t// in\n        tag_54:\n          tag_55\n          jump\t// in\n            /* \"blockchain/contracts/Polygon/Pool/Prototype/pool/token.sol\":3664:3804  function allowance( address _owner, address _spender ) public view returns (uint256) {... */\n        tag_13:\n          tag_25\n          tag_58\n          calldatasize\n          0x04\n          tag_59\n          jump\t// in\n        tag_58:\n          sub(shl(0xa0, 0x01), 0x01)\n            /* \"blockchain/contracts/Polygon/Pool/Prototype/pool/token.sol\":3767:3784  allowed[ _owner ] */\n          swap2\n          dup3\n          and\n            /* \"blockchain/contracts/Polygon/Pool/Prototype/pool/token.sol\":3740:3747  uint256 */\n          0x00\n            /* \"blockchain/contracts/Polygon/Pool/Prototype/pool/token.sol\":3767:3784  allowed[ _owner ] */\n          swap1\n          dup2\n          mstore\n            /* \"blockchain/contracts/Polygon/Pool/Prototype/pool/token.sol\":3767:3774  allowed */\n          0x06\n            /* \"blockchain/contracts/Polygon/Pool/Prototype/pool/token.sol\":3767:3784  allowed[ _owner ] */\n          0x20\n          swap1\n          dup2\n          mstore\n          0x40\n          dup1\n          dup4\n          keccak256\n            /* \"blockchain/contracts/Polygon/Pool/Prototype/pool/token.sol\":3767:3796  allowed[ _owner ][ _spender ] */\n          swap4\n          swap1\n          swap5\n          and\n          dup3\n          mstore\n          swap2\n          swap1\n          swap2\n          mstore\n          keccak256\n          sload\n          swap1\n            /* \"blockchain/contracts/Polygon/Pool/Prototype/pool/token.sol\":3664:3804  function allowance( address _owner, address _spender ) public view returns (uint256) {... */\n          jump\n            /* \"blockchain/contracts/Polygon/Pool/Prototype/pool/token.sol\":3163:3248  function name() public view returns (string memory) {... */\n        tag_16:\n            /* \"blockchain/contracts/Polygon/Pool/Prototype/pool/token.sol\":3200:3213  string memory */\n          0x60\n            /* \"blockchain/contracts/Polygon/Pool/Prototype/pool/token.sol\":3233:3235  my */\n          0x00\n            /* \"blockchain/contracts/Polygon/Pool/Prototype/pool/token.sol\":3233:3240  my.name */\n          dup1\n          add\n            /* \"blockchain/contracts/Polygon/Pool/Prototype/pool/token.sol\":3226:3240  return my.name */\n          dup1\n          sload\n          tag_63\n          swap1\n          tag_64\n          jump\t// in\n        tag_63:\n          dup1\n          0x1f\n          add\n          0x20\n          dup1\n          swap2\n          div\n          mul\n          0x20\n          add\n          mload(0x40)\n          swap1\n          dup2\n          add\n          0x40\n          mstore\n          dup1\n          swap3\n          swap2\n          swap1\n          dup2\n          dup2\n          mstore\n          0x20\n          add\n          dup3\n          dup1\n          sload\n          tag_65\n          swap1\n          tag_64\n          jump\t// in\n        tag_65:\n          dup1\n          iszero\n          tag_66\n          jumpi\n          dup1\n          0x1f\n          lt\n          tag_67\n          jumpi\n          0x0100\n          dup1\n          dup4\n          sload\n          div\n          mul\n          dup4\n          mstore\n          swap2\n          0x20\n          add\n          swap2\n          jump(tag_66)\n        tag_67:\n          dup3\n          add\n          swap2\n          swap1\n          0x00\n          mstore\n          keccak256(0x00, 0x20)\n          swap1\n        tag_68:\n          dup2\n          sload\n          dup2\n          mstore\n          swap1\n          0x01\n          add\n          swap1\n          0x20\n          add\n          dup1\n          dup4\n          gt\n          tag_68\n          jumpi\n          dup3\n          swap1\n          sub\n          0x1f\n          and\n          dup3\n          add\n          swap2\n        tag_66:\n          pop\n          pop\n          pop\n          pop\n          pop\n          swap1\n          pop\n            /* \"blockchain/contracts/Polygon/Pool/Prototype/pool/token.sol\":3163:3248  function name() public view returns (string memory) {... */\n          swap1\n          jump\t// out\n            /* \"blockchain/contracts/Polygon/Pool/Prototype/pool/token.sol\":2557:2893  function approve( address _spender, uint256 _value ) public returns (bool) {... */\n        tag_22:\n            /* \"blockchain/contracts/Polygon/Pool/Prototype/pool/token.sol\":2626:2630  bool */\n          0x00\n            /* \"blockchain/contracts/Polygon/Pool/Prototype/pool/token.sol\":2668:2678  msg.sender */\n          caller\n          dup1\n            /* \"blockchain/contracts/Polygon/Pool/Prototype/pool/token.sol\":2689:2720  require( _owner != address(0) ) */\n          tag_70\n          jumpi\n          0x00\n          dup1\n          revert\n        tag_70:\n          sub(shl(0xa0, 0x01), 0x01)\n            /* \"blockchain/contracts/Polygon/Pool/Prototype/pool/token.sol\":2739:2761  _spender != address(0) */\n          dup5\n          and\n            /* \"blockchain/contracts/Polygon/Pool/Prototype/pool/token.sol\":2730:2763  require( _spender != address(0) ) */\n          tag_71\n          jumpi\n          0x00\n          dup1\n          revert\n        tag_71:\n          sub(shl(0xa0, 0x01), 0x01)\n            /* \"blockchain/contracts/Polygon/Pool/Prototype/pool/token.sol\":2774:2791  allowed[ _owner ] */\n          dup2\n          dup2\n          and\n          0x00\n          dup2\n          dup2\n          mstore\n            /* \"blockchain/contracts/Polygon/Pool/Prototype/pool/token.sol\":2774:2781  allowed */\n          0x06\n            /* \"blockchain/contracts/Polygon/Pool/Prototype/pool/token.sol\":2774:2791  allowed[ _owner ] */\n          0x20\n          swap1\n          dup2\n          mstore\n          0x40\n          dup1\n          dup4\n          keccak256\n            /* \"blockchain/contracts/Polygon/Pool/Prototype/pool/token.sol\":2774:2803  allowed[ _owner ][ _spender ] */\n          swap5\n          dup10\n          and\n          dup1\n          dup5\n          mstore\n          swap5\n          dup3\n          mstore\n          swap2\n          dup3\n          swap1\n          keccak256\n            /* \"blockchain/contracts/Polygon/Pool/Prototype/pool/token.sol\":2774:2812  allowed[ _owner ][ _spender ] = _value */\n          dup8\n          swap1\n          sstore\n            /* \"blockchain/contracts/Polygon/Pool/Prototype/pool/token.sol\":2828:2864  Approval( _owner, _spender, _value ) */\n          swap1\n          mload\n            /* \"#utility.yul\":1342:1367   */\n          dup7\n          dup2\n          mstore\n            /* \"blockchain/contracts/Polygon/Pool/Prototype/pool/token.sol\":2828:2864  Approval( _owner, _spender, _value ) */\n          0x8c5be1e5ebec7d5bd14f71427d1e84f3dd0314c0f7b2291e5b200ac8c7c3b925\n          swap2\n            /* \"#utility.yul\":1315:1333   */\n          add\n            /* \"blockchain/contracts/Polygon/Pool/Prototype/pool/token.sol\":2828:2864  Approval( _owner, _spender, _value ) */\n          mload(0x40)\n          dup1\n          swap2\n          sub\n          swap1\n          log3\n            /* \"blockchain/contracts/Polygon/Pool/Prototype/pool/token.sol\":2881:2885  true */\n          0x01\n            /* \"blockchain/contracts/Polygon/Pool/Prototype/pool/token.sol\":2874:2885  return true */\n          swap2\n          pop\n          pop\n            /* \"blockchain/contracts/Polygon/Pool/Prototype/pool/token.sol\":2557:2893  function approve( address _spender, uint256 _value ) public returns (bool) {... */\n        tag_69:\n          swap3\n          swap2\n          pop\n          pop\n          jump\t// out\n            /* \"blockchain/contracts/Polygon/Pool/Prototype/pool/token.sol\":2178:2551  function transferFrom( address _from, address _to, uint256 _value ) public returns (bool) {... */\n        tag_32:\n            /* \"blockchain/contracts/Polygon/Pool/Prototype/pool/token.sol\":2309:2319  msg.sender */\n          caller\n            /* \"blockchain/contracts/Polygon/Pool/Prototype/pool/token.sol\":2262:2266  bool */\n          0x00\n            /* \"blockchain/contracts/Polygon/Pool/Prototype/pool/token.sol\":2300:2321  allowed[ msg.sender ] */\n          swap1\n          dup2\n          mstore\n            /* \"blockchain/contracts/Polygon/Pool/Prototype/pool/token.sol\":2300:2307  allowed */\n          0x06\n            /* \"blockchain/contracts/Polygon/Pool/Prototype/pool/token.sol\":2300:2321  allowed[ msg.sender ] */\n          0x20\n          swap1\n          dup2\n          mstore\n          0x40\n          dup1\n          dup4\n          keccak256\n          sub(shl(0xa0, 0x01), 0x01)\n            /* \"blockchain/contracts/Polygon/Pool/Prototype/pool/token.sol\":2300:2328  allowed[ msg.sender ][ _to ] */\n          dup7\n          and\n          dup5\n          mstore\n          swap1\n          swap2\n          mstore\n          dup2\n          keccak256\n          sload\n            /* \"blockchain/contracts/Polygon/Pool/Prototype/pool/token.sol\":2356:2387  _allowance != type(uint256).max */\n          0x01\n          dup2\n          add\n            /* \"blockchain/contracts/Polygon/Pool/Prototype/pool/token.sol\":2347:2389  require( _allowance != type(uint256).max ) */\n          tag_75\n          jumpi\n          0x00\n          dup1\n          revert\n        tag_75:\n            /* \"blockchain/contracts/Polygon/Pool/Prototype/pool/token.sol\":2422:2428  _value */\n          dup3\n            /* \"blockchain/contracts/Polygon/Pool/Prototype/pool/token.sol\":2408:2418  _allowance */\n          dup2\n            /* \"blockchain/contracts/Polygon/Pool/Prototype/pool/token.sol\":2408:2428  _allowance >= _value */\n          lt\n          iszero\n            /* \"blockchain/contracts/Polygon/Pool/Prototype/pool/token.sol\":2399:2430  require( _allowance >= _value ) */\n          tag_76\n          jumpi\n          0x00\n          dup1\n          revert\n        tag_76:\n            /* \"blockchain/contracts/Polygon/Pool/Prototype/pool/token.sol\":2450:2460  msg.sender */\n          caller\n            /* \"blockchain/contracts/Polygon/Pool/Prototype/pool/token.sol\":2441:2462  allowed[ msg.sender ] */\n          0x00\n          swap1\n          dup2\n          mstore\n            /* \"blockchain/contracts/Polygon/Pool/Prototype/pool/token.sol\":2441:2448  allowed */\n          0x06\n            /* \"blockchain/contracts/Polygon/Pool/Prototype/pool/token.sol\":2441:2462  allowed[ msg.sender ] */\n          0x20\n          swap1\n          dup2\n          mstore\n          0x40\n          dup1\n          dup4\n          keccak256\n          sub(shl(0xa0, 0x01), 0x01)\n            /* \"blockchain/contracts/Polygon/Pool/Prototype/pool/token.sol\":2441:2469  allowed[ msg.sender ][ _to ] */\n          dup9\n          and\n          dup5\n          mstore\n          swap1\n          swap2\n          mstore\n          dup2\n          keccak256\n            /* \"blockchain/contracts/Polygon/Pool/Prototype/pool/token.sol\":2441:2479  allowed[ msg.sender ][ _to ] -= _value */\n          dup1\n          sload\n            /* \"blockchain/contracts/Polygon/Pool/Prototype/pool/token.sol\":2473:2479  _value */\n          dup6\n          swap3\n            /* \"blockchain/contracts/Polygon/Pool/Prototype/pool/token.sol\":2441:2462  allowed[ msg.sender ] */\n          swap1\n            /* \"blockchain/contracts/Polygon/Pool/Prototype/pool/token.sol\":2441:2479  allowed[ msg.sender ][ _to ] -= _value */\n          tag_77\n          swap1\n            /* \"blockchain/contracts/Polygon/Pool/Prototype/pool/token.sol\":2473:2479  _value */\n          dup5\n          swap1\n            /* \"blockchain/contracts/Polygon/Pool/Prototype/pool/token.sol\":2441:2479  allowed[ msg.sender ][ _to ] -= _value */\n          tag_78\n          jump\t// in\n        tag_77:\n          swap1\n          swap2\n          sstore\n          pop\n            /* \"blockchain/contracts/Polygon/Pool/Prototype/pool/token.sol\":2490:2521  transfer_( _from, _to, _value ) */\n          tag_79\n          swap1\n          pop\n            /* \"blockchain/contracts/Polygon/Pool/Prototype/pool/token.sol\":2501:2506  _from */\n          dup6\n            /* \"blockchain/contracts/Polygon/Pool/Prototype/pool/token.sol\":2508:2511  _to */\n          dup6\n            /* \"blockchain/contracts/Polygon/Pool/Prototype/pool/token.sol\":2513:2519  _value */\n          dup6\n            /* \"blockchain/contracts/Polygon/Pool/Prototype/pool/token.sol\":2490:2499  transfer_ */\n          tag_80\n            /* \"blockchain/contracts/Polygon/Pool/Prototype/pool/token.sol\":2490:2521  transfer_( _from, _to, _value ) */\n          jump\t// in\n        tag_79:\n          pop\n            /* \"blockchain/contracts/Polygon/Pool/Prototype/pool/token.sol\":2539:2543  true */\n          0x01\n          swap5\n            /* \"blockchain/contracts/Polygon/Pool/Prototype/pool/token.sol\":2178:2551  function transferFrom( address _from, address _to, uint256 _value ) public returns (bool) {... */\n          swap4\n          pop\n          pop\n          pop\n          pop\n          jump\t// out\n            /* \"blockchain/contracts/Polygon/Pool/Prototype/pool/token.sol\":3029:3157  function burn( uint256 _value ) public only_admin {... */\n        tag_41:\n            /* \"blockchain/contracts/Polygon/Pool/Prototype/pool/token.sol\":549:557  my.admin */\n          and(sub(shl(0xa0, 0x01), 0x01), sload(0x04))\n            /* \"blockchain/contracts/Polygon/Pool/Prototype/pool/token.sol\":535:545  msg.sender */\n          caller\n            /* \"blockchain/contracts/Polygon/Pool/Prototype/pool/token.sol\":535:557  msg.sender == my.admin */\n          eq\n            /* \"blockchain/contracts/Polygon/Pool/Prototype/pool/token.sol\":526:559  require( msg.sender == my.admin ) */\n          tag_83\n          jumpi\n          0x00\n          dup1\n          revert\n        tag_83:\n            /* \"blockchain/contracts/Polygon/Pool/Prototype/pool/token.sol\":3106:3116  msg.sender */\n          caller\n            /* \"blockchain/contracts/Polygon/Pool/Prototype/pool/token.sol\":3127:3149  burn_( _from, _value ) */\n          tag_85\n            /* \"blockchain/contracts/Polygon/Pool/Prototype/pool/token.sol\":3106:3116  msg.sender */\n          dup2\n            /* \"blockchain/contracts/Polygon/Pool/Prototype/pool/token.sol\":3141:3147  _value */\n          dup4\n            /* \"blockchain/contracts/Polygon/Pool/Prototype/pool/token.sol\":3127:3132  burn_ */\n          tag_86\n            /* \"blockchain/contracts/Polygon/Pool/Prototype/pool/token.sol\":3127:3149  burn_( _from, _value ) */\n          jump\t// in\n        tag_85:\n            /* \"blockchain/contracts/Polygon/Pool/Prototype/pool/token.sol\":3079:3157  {... */\n          pop\n            /* \"blockchain/contracts/Polygon/Pool/Prototype/pool/token.sol\":3029:3157  function burn( uint256 _value ) public only_admin {... */\n          pop\n          jump\t// out\n            /* \"blockchain/contracts/Polygon/Pool/Prototype/pool/token.sol\":3258:3347  function symbol() public view returns (string memory) {... */\n        tag_48:\n            /* \"blockchain/contracts/Polygon/Pool/Prototype/pool/token.sol\":3297:3310  string memory */\n          0x60\n            /* \"blockchain/contracts/Polygon/Pool/Prototype/pool/token.sol\":3330:3332  my */\n          0x00\n            /* \"blockchain/contracts/Polygon/Pool/Prototype/pool/token.sol\":3330:3339  my.symbol */\n          0x01\n          add\n            /* \"blockchain/contracts/Polygon/Pool/Prototype/pool/token.sol\":3323:3339  return my.symbol */\n          dup1\n          sload\n          tag_63\n          swap1\n          tag_64\n          jump\t// in\n            /* \"blockchain/contracts/Polygon/Pool/Prototype/pool/token.sol\":2899:3023  function mint( uint256 _value ) public only_admin {... */\n        tag_52:\n            /* \"blockchain/contracts/Polygon/Pool/Prototype/pool/token.sol\":549:557  my.admin */\n          and(sub(shl(0xa0, 0x01), 0x01), sload(0x04))\n            /* \"blockchain/contracts/Polygon/Pool/Prototype/pool/token.sol\":535:545  msg.sender */\n          caller\n            /* \"blockchain/contracts/Polygon/Pool/Prototype/pool/token.sol\":535:557  msg.sender == my.admin */\n          eq\n            /* \"blockchain/contracts/Polygon/Pool/Prototype/pool/token.sol\":526:559  require( msg.sender == my.admin ) */\n          tag_95\n          jumpi\n          0x00\n          dup1\n          revert\n        tag_95:\n            /* \"blockchain/contracts/Polygon/Pool/Prototype/pool/token.sol\":2974:2984  msg.sender */\n          caller\n            /* \"blockchain/contracts/Polygon/Pool/Prototype/pool/token.sol\":2995:3015  mint_( _to, _value ) */\n          tag_85\n            /* \"blockchain/contracts/Polygon/Pool/Prototype/pool/token.sol\":2974:2984  msg.sender */\n          dup2\n            /* \"blockchain/contracts/Polygon/Pool/Prototype/pool/token.sol\":3007:3013  _value */\n          dup4\n            /* \"blockchain/contracts/Polygon/Pool/Prototype/pool/token.sol\":2995:3000  mint_ */\n          tag_98\n            /* \"blockchain/contracts/Polygon/Pool/Prototype/pool/token.sol\":2995:3015  mint_( _to, _value ) */\n          jump\t// in\n            /* \"blockchain/contracts/Polygon/Pool/Prototype/pool/token.sol\":1984:2172  function transfer( address _to, uint256 _value ) public returns (bool) {... */\n        tag_55:\n            /* \"blockchain/contracts/Polygon/Pool/Prototype/pool/token.sol\":2049:2053  bool */\n          0x00\n            /* \"blockchain/contracts/Polygon/Pool/Prototype/pool/token.sol\":2082:2092  msg.sender */\n          caller\n            /* \"blockchain/contracts/Polygon/Pool/Prototype/pool/token.sol\":2111:2142  transfer_( _from, _to, _value ) */\n          tag_100\n            /* \"blockchain/contracts/Polygon/Pool/Prototype/pool/token.sol\":2082:2092  msg.sender */\n          dup2\n            /* \"blockchain/contracts/Polygon/Pool/Prototype/pool/token.sol\":2129:2132  _to */\n          dup6\n            /* \"blockchain/contracts/Polygon/Pool/Prototype/pool/token.sol\":2134:2140  _value */\n          dup6\n            /* \"blockchain/contracts/Polygon/Pool/Prototype/pool/token.sol\":2111:2120  transfer_ */\n          tag_80\n            /* \"blockchain/contracts/Polygon/Pool/Prototype/pool/token.sol\":2111:2142  transfer_( _from, _to, _value ) */\n          jump\t// in\n        tag_100:\n          pop\n            /* \"blockchain/contracts/Polygon/Pool/Prototype/pool/token.sol\":2160:2164  true */\n          0x01\n          swap4\n            /* \"blockchain/contracts/Polygon/Pool/Prototype/pool/token.sol\":1984:2172  function transfer( address _to, uint256 _value ) public returns (bool) {... */\n          swap3\n          pop\n          pop\n          pop\n          jump\t// out\n            /* \"blockchain/contracts/Polygon/Pool/Prototype/pool/token.sol\":872:1330  function transfer_(... */\n        tag_80:\n          sub(shl(0xa0, 0x01), 0x01)\n            /* \"blockchain/contracts/Polygon/Pool/Prototype/pool/token.sol\":1005:1021  balance[ _from ] */\n          dup4\n          and\n            /* \"blockchain/contracts/Polygon/Pool/Prototype/pool/token.sol\":986:1002  uint256 _balance */\n          0x00\n            /* \"blockchain/contracts/Polygon/Pool/Prototype/pool/token.sol\":1005:1021  balance[ _from ] */\n          dup2\n          dup2\n          mstore\n            /* \"blockchain/contracts/Polygon/Pool/Prototype/pool/token.sol\":1005:1012  balance */\n          0x05\n            /* \"blockchain/contracts/Polygon/Pool/Prototype/pool/token.sol\":1005:1021  balance[ _from ] */\n          0x20\n          mstore\n          0x40\n          swap1\n          keccak256\n          sload\n          swap1\n            /* \"blockchain/contracts/Polygon/Pool/Prototype/pool/token.sol\":1032:1062  require( _from != address(0) ) */\n          tag_103\n          jumpi\n          0x00\n          dup1\n          revert\n        tag_103:\n          sub(shl(0xa0, 0x01), 0x01)\n            /* \"blockchain/contracts/Polygon/Pool/Prototype/pool/token.sol\":1081:1098  _to != address(0) */\n          dup4\n          and\n            /* \"blockchain/contracts/Polygon/Pool/Prototype/pool/token.sol\":1072:1100  require( _to != address(0) ) */\n          tag_104\n          jumpi\n          0x00\n          dup1\n          revert\n        tag_104:\n            /* \"blockchain/contracts/Polygon/Pool/Prototype/pool/token.sol\":1131:1137  _value */\n          dup2\n            /* \"blockchain/contracts/Polygon/Pool/Prototype/pool/token.sol\":1119:1127  _balance */\n          dup2\n            /* \"blockchain/contracts/Polygon/Pool/Prototype/pool/token.sol\":1119:1137  _balance >= _value */\n          lt\n          iszero\n            /* \"blockchain/contracts/Polygon/Pool/Prototype/pool/token.sol\":1110:1139  require( _balance >= _value ) */\n          tag_105\n          jumpi\n          0x00\n          dup1\n          revert\n        tag_105:\n            /* \"blockchain/contracts/Polygon/Pool/Prototype/pool/token.sol\":1158:1171  _balance <= 0 */\n          dup1\n          iszero\n            /* \"blockchain/contracts/Polygon/Pool/Prototype/pool/token.sol\":1149:1173  require( _balance <= 0 ) */\n          tag_106\n          jumpi\n          0x00\n          dup1\n          revert\n        tag_106:\n          sub(shl(0xa0, 0x01), 0x01)\n            /* \"blockchain/contracts/Polygon/Pool/Prototype/pool/token.sol\":1216:1232  balance[ _from ] */\n          dup5\n          and\n          0x00\n          swap1\n          dup2\n          mstore\n            /* \"blockchain/contracts/Polygon/Pool/Prototype/pool/token.sol\":1216:1223  balance */\n          0x05\n            /* \"blockchain/contracts/Polygon/Pool/Prototype/pool/token.sol\":1216:1232  balance[ _from ] */\n          0x20\n          mstore\n          0x40\n          dup2\n          keccak256\n            /* \"blockchain/contracts/Polygon/Pool/Prototype/pool/token.sol\":1216:1242  balance[ _from ] -= _value */\n          dup1\n          sload\n            /* \"blockchain/contracts/Polygon/Pool/Prototype/pool/token.sol\":1236:1242  _value */\n          dup5\n          swap3\n            /* \"blockchain/contracts/Polygon/Pool/Prototype/pool/token.sol\":1216:1232  balance[ _from ] */\n          swap1\n            /* \"blockchain/contracts/Polygon/Pool/Prototype/pool/token.sol\":1216:1242  balance[ _from ] -= _value */\n          tag_108\n          swap1\n            /* \"blockchain/contracts/Polygon/Pool/Prototype/pool/token.sol\":1236:1242  _value */\n          dup5\n          swap1\n            /* \"blockchain/contracts/Polygon/Pool/Prototype/pool/token.sol\":1216:1242  balance[ _from ] -= _value */\n          tag_78\n          jump\t// in\n        tag_108:\n          swap1\n          swap2\n          sstore\n          pop\n          pop\n          sub(shl(0xa0, 0x01), 0x01)\n            /* \"blockchain/contracts/Polygon/Pool/Prototype/pool/token.sol\":1252:1266  balance[ _to ] */\n          dup4\n          and\n          0x00\n          swap1\n          dup2\n          mstore\n            /* \"blockchain/contracts/Polygon/Pool/Prototype/pool/token.sol\":1252:1259  balance */\n          0x05\n            /* \"blockchain/contracts/Polygon/Pool/Prototype/pool/token.sol\":1252:1266  balance[ _to ] */\n          0x20\n          mstore\n          0x40\n          dup2\n          keccak256\n            /* \"blockchain/contracts/Polygon/Pool/Prototype/pool/token.sol\":1252:1276  balance[ _to ] += _value */\n          dup1\n          sload\n            /* \"blockchain/contracts/Polygon/Pool/Prototype/pool/token.sol\":1270:1276  _value */\n          dup5\n          swap3\n            /* \"blockchain/contracts/Polygon/Pool/Prototype/pool/token.sol\":1252:1266  balance[ _to ] */\n          swap1\n            /* \"blockchain/contracts/Polygon/Pool/Prototype/pool/token.sol\":1252:1276  balance[ _to ] += _value */\n          tag_109\n          swap1\n            /* \"blockchain/contracts/Polygon/Pool/Prototype/pool/token.sol\":1270:1276  _value */\n          dup5\n          swap1\n            /* \"blockchain/contracts/Polygon/Pool/Prototype/pool/token.sol\":1252:1276  balance[ _to ] += _value */\n          tag_110\n          jump\t// in\n        tag_109:\n          swap3\n          pop\n          pop\n          dup2\n          swap1\n          sstore\n          pop\n            /* \"blockchain/contracts/Polygon/Pool/Prototype/pool/token.sol\":1309:1312  _to */\n          dup3\n          sub(shl(0xa0, 0x01), 0x01)\n            /* \"blockchain/contracts/Polygon/Pool/Prototype/pool/token.sol\":1292:1322  Transfer( _from, _to, _value ) */\n          and\n            /* \"blockchain/contracts/Polygon/Pool/Prototype/pool/token.sol\":1302:1307  _from */\n          dup5\n          sub(shl(0xa0, 0x01), 0x01)\n            /* \"blockchain/contracts/Polygon/Pool/Prototype/pool/token.sol\":1292:1322  Transfer( _from, _to, _value ) */\n          and\n          0xddf252ad1be2c89b69c2b068fc378daa952ba7f163c4a11628f55a4df523b3ef\n            /* \"blockchain/contracts/Polygon/Pool/Prototype/pool/token.sol\":1314:1320  _value */\n          dup5\n            /* \"blockchain/contracts/Polygon/Pool/Prototype/pool/token.sol\":1292:1322  Transfer( _from, _to, _value ) */\n          mload(0x40)\n          tag_111\n          swap2\n            /* \"#utility.yul\":1342:1367   */\n          dup2\n          mstore\n            /* \"#utility.yul\":1330:1332   */\n          0x20\n            /* \"#utility.yul\":1315:1333   */\n          add\n          swap1\n            /* \"#utility.yul\":1196:1373   */\n          jump\n            /* \"blockchain/contracts/Polygon/Pool/Prototype/pool/token.sol\":1292:1322  Transfer( _from, _to, _value ) */\n        tag_111:\n          mload(0x40)\n          dup1\n          swap2\n          sub\n          swap1\n          log3\n            /* \"blockchain/contracts/Polygon/Pool/Prototype/pool/token.sol\":975:1330  {... */\n          pop\n            /* \"blockchain/contracts/Polygon/Pool/Prototype/pool/token.sol\":872:1330  function transfer_(... */\n          pop\n          pop\n          pop\n          jump\t// out\n            /* \"blockchain/contracts/Polygon/Pool/Prototype/pool/token.sol\":1644:1978  function burn_( address _from, uint256 _value ) private {... */\n        tag_86:\n          sub(shl(0xa0, 0x01), 0x01)\n            /* \"blockchain/contracts/Polygon/Pool/Prototype/pool/token.sol\":1764:1780  balance[ _from ] */\n          dup3\n          and\n            /* \"blockchain/contracts/Polygon/Pool/Prototype/pool/token.sol\":1711:1722  address _to */\n          0x00\n            /* \"blockchain/contracts/Polygon/Pool/Prototype/pool/token.sol\":1764:1780  balance[ _from ] */\n          swap1\n          dup2\n          mstore\n            /* \"blockchain/contracts/Polygon/Pool/Prototype/pool/token.sol\":1764:1771  balance */\n          0x05\n            /* \"blockchain/contracts/Polygon/Pool/Prototype/pool/token.sol\":1764:1780  balance[ _from ] */\n          0x20\n          mstore\n          0x40\n          dup2\n          keccak256\n          sload\n            /* \"blockchain/contracts/Polygon/Pool/Prototype/pool/token.sol\":1842:1850  _balance */\n          dup1\n            /* \"blockchain/contracts/Polygon/Pool/Prototype/pool/token.sol\":1832:1838  _value */\n          dup4\n            /* \"blockchain/contracts/Polygon/Pool/Prototype/pool/token.sol\":1832:1850  _value <= _balance */\n          gt\n          iszero\n            /* \"blockchain/contracts/Polygon/Pool/Prototype/pool/token.sol\":1823:1852  require( _value <= _balance ) */\n          tag_114\n          jumpi\n          0x00\n          dup1\n          revert\n        tag_114:\n          sub(shl(0xa0, 0x01), 0x01)\n            /* \"blockchain/contracts/Polygon/Pool/Prototype/pool/token.sol\":1863:1879  balance[ _from ] */\n          dup5\n          and\n          0x00\n          swap1\n          dup2\n          mstore\n            /* \"blockchain/contracts/Polygon/Pool/Prototype/pool/token.sol\":1863:1870  balance */\n          0x05\n            /* \"blockchain/contracts/Polygon/Pool/Prototype/pool/token.sol\":1863:1879  balance[ _from ] */\n          0x20\n          mstore\n          0x40\n          dup2\n          keccak256\n            /* \"blockchain/contracts/Polygon/Pool/Prototype/pool/token.sol\":1863:1889  balance[ _from ] -= _value */\n          dup1\n          sload\n            /* \"blockchain/contracts/Polygon/Pool/Prototype/pool/token.sol\":1883:1889  _value */\n          dup6\n          swap3\n            /* \"blockchain/contracts/Polygon/Pool/Prototype/pool/token.sol\":1863:1879  balance[ _from ] */\n          swap1\n            /* \"blockchain/contracts/Polygon/Pool/Prototype/pool/token.sol\":1863:1889  balance[ _from ] -= _value */\n          tag_115\n          swap1\n            /* \"blockchain/contracts/Polygon/Pool/Prototype/pool/token.sol\":1883:1889  _value */\n          dup5\n          swap1\n            /* \"blockchain/contracts/Polygon/Pool/Prototype/pool/token.sol\":1863:1889  balance[ _from ] -= _value */\n          tag_78\n          jump\t// in\n        tag_115:\n          swap1\n          swap2\n          sstore\n          pop\n          pop\n            /* \"blockchain/contracts/Polygon/Pool/Prototype/pool/token.sol\":1899:1914  my.total_supply */\n          0x03\n            /* \"blockchain/contracts/Polygon/Pool/Prototype/pool/token.sol\":1899:1924  my.total_supply -= _value */\n          dup1\n          sload\n            /* \"blockchain/contracts/Polygon/Pool/Prototype/pool/token.sol\":1918:1924  _value */\n          dup5\n          swap2\n            /* \"blockchain/contracts/Polygon/Pool/Prototype/pool/token.sol\":1899:1914  my.total_supply */\n          swap1\n            /* \"blockchain/contracts/Polygon/Pool/Prototype/pool/token.sol\":1899:1901  my */\n          0x00\n          swap1\n            /* \"blockchain/contracts/Polygon/Pool/Prototype/pool/token.sol\":1899:1924  my.total_supply -= _value */\n          tag_116\n          swap1\n            /* \"blockchain/contracts/Polygon/Pool/Prototype/pool/token.sol\":1918:1924  _value */\n          dup5\n          swap1\n            /* \"blockchain/contracts/Polygon/Pool/Prototype/pool/token.sol\":1899:1924  my.total_supply -= _value */\n          tag_78\n          jump\t// in\n        tag_116:\n          swap3\n          pop\n          pop\n          dup2\n          swap1\n          sstore\n          pop\n            /* \"blockchain/contracts/Polygon/Pool/Prototype/pool/token.sol\":1957:1960  _to */\n          dup2\n          sub(shl(0xa0, 0x01), 0x01)\n            /* \"blockchain/contracts/Polygon/Pool/Prototype/pool/token.sol\":1940:1970  Transfer( _from, _to, _value ) */\n          and\n            /* \"blockchain/contracts/Polygon/Pool/Prototype/pool/token.sol\":1950:1955  _from */\n          dup5\n          sub(shl(0xa0, 0x01), 0x01)\n            /* \"blockchain/contracts/Polygon/Pool/Prototype/pool/token.sol\":1940:1970  Transfer( _from, _to, _value ) */\n          and\n          0xddf252ad1be2c89b69c2b068fc378daa952ba7f163c4a11628f55a4df523b3ef\n            /* \"blockchain/contracts/Polygon/Pool/Prototype/pool/token.sol\":1962:1968  _value */\n          dup6\n            /* \"blockchain/contracts/Polygon/Pool/Prototype/pool/token.sol\":1940:1970  Transfer( _from, _to, _value ) */\n          mload(0x40)\n          tag_111\n          swap2\n            /* \"#utility.yul\":1342:1367   */\n          dup2\n          mstore\n            /* \"#utility.yul\":1330:1332   */\n          0x20\n            /* \"#utility.yul\":1315:1333   */\n          add\n          swap1\n            /* \"#utility.yul\":1196:1373   */\n          jump\n            /* \"blockchain/contracts/Polygon/Pool/Prototype/pool/token.sol\":1336:1638  function mint_( address _to, uint256 _value ) private {... */\n        tag_98:\n            /* \"blockchain/contracts/Polygon/Pool/Prototype/pool/token.sol\":1401:1414  address _from */\n          0x00\n          sub(shl(0xa0, 0x01), 0x01)\n            /* \"blockchain/contracts/Polygon/Pool/Prototype/pool/token.sol\":1487:1504  _to != address(0) */\n          dup4\n          and\n            /* \"blockchain/contracts/Polygon/Pool/Prototype/pool/token.sol\":1478:1506  require( _to != address(0) ) */\n          tag_120\n          jumpi\n          0x00\n          dup1\n          revert\n        tag_120:\n          sub(shl(0xa0, 0x01), 0x01)\n            /* \"blockchain/contracts/Polygon/Pool/Prototype/pool/token.sol\":1517:1531  balance[ _to ] */\n          dup4\n          and\n          0x00\n          swap1\n          dup2\n          mstore\n            /* \"blockchain/contracts/Polygon/Pool/Prototype/pool/token.sol\":1517:1524  balance */\n          0x05\n            /* \"blockchain/contracts/Polygon/Pool/Prototype/pool/token.sol\":1517:1531  balance[ _to ] */\n          0x20\n          mstore\n          0x40\n          dup2\n          keccak256\n            /* \"blockchain/contracts/Polygon/Pool/Prototype/pool/token.sol\":1517:1541  balance[ _to ] += _value */\n          dup1\n          sload\n            /* \"blockchain/contracts/Polygon/Pool/Prototype/pool/token.sol\":1535:1541  _value */\n          dup5\n          swap3\n            /* \"blockchain/contracts/Polygon/Pool/Prototype/pool/token.sol\":1517:1531  balance[ _to ] */\n          swap1\n            /* \"blockchain/contracts/Polygon/Pool/Prototype/pool/token.sol\":1517:1541  balance[ _to ] += _value */\n          tag_121\n          swap1\n            /* \"blockchain/contracts/Polygon/Pool/Prototype/pool/token.sol\":1535:1541  _value */\n          dup5\n          swap1\n            /* \"blockchain/contracts/Polygon/Pool/Prototype/pool/token.sol\":1517:1541  balance[ _to ] += _value */\n          tag_110\n          jump\t// in\n        tag_121:\n          swap1\n          swap2\n          sstore\n          pop\n          pop\n            /* \"blockchain/contracts/Polygon/Pool/Prototype/pool/token.sol\":1551:1566  my.total_supply */\n          0x03\n            /* \"blockchain/contracts/Polygon/Pool/Prototype/pool/token.sol\":1551:1576  my.total_supply += _value */\n          dup1\n          sload\n            /* \"blockchain/contracts/Polygon/Pool/Prototype/pool/token.sol\":1570:1576  _value */\n          dup4\n          swap2\n            /* \"blockchain/contracts/Polygon/Pool/Prototype/pool/token.sol\":1551:1566  my.total_supply */\n          swap1\n            /* \"blockchain/contracts/Polygon/Pool/Prototype/pool/token.sol\":1551:1553  my */\n          0x00\n          swap1\n            /* \"blockchain/contracts/Polygon/Pool/Prototype/pool/token.sol\":1551:1576  my.total_supply += _value */\n          tag_122\n          swap1\n            /* \"blockchain/contracts/Polygon/Pool/Prototype/pool/token.sol\":1570:1576  _value */\n          dup5\n          swap1\n            /* \"blockchain/contracts/Polygon/Pool/Prototype/pool/token.sol\":1551:1576  my.total_supply += _value */\n          tag_110\n          jump\t// in\n        tag_122:\n          swap3\n          pop\n          pop\n          dup2\n          swap1\n          sstore\n          pop\n            /* \"blockchain/contracts/Polygon/Pool/Prototype/pool/token.sol\":1617:1620  _to */\n          dup3\n          sub(shl(0xa0, 0x01), 0x01)\n            /* \"blockchain/contracts/Polygon/Pool/Prototype/pool/token.sol\":1600:1630  Transfer( _from, _to, _value ) */\n          and\n            /* \"blockchain/contracts/Polygon/Pool/Prototype/pool/token.sol\":1610:1615  _from */\n          dup2\n          sub(shl(0xa0, 0x01), 0x01)\n            /* \"blockchain/contracts/Polygon/Pool/Prototype/pool/token.sol\":1600:1630  Transfer( _from, _to, _value ) */\n          and\n          0xddf252ad1be2c89b69c2b068fc378daa952ba7f163c4a11628f55a4df523b3ef\n            /* \"blockchain/contracts/Polygon/Pool/Prototype/pool/token.sol\":1622:1628  _value */\n          dup5\n            /* \"blockchain/contracts/Polygon/Pool/Prototype/pool/token.sol\":1600:1630  Transfer( _from, _to, _value ) */\n          mload(0x40)\n          tag_123\n          swap2\n            /* \"#utility.yul\":1342:1367   */\n          dup2\n          mstore\n            /* \"#utility.yul\":1330:1332   */\n          0x20\n            /* \"#utility.yul\":1315:1333   */\n          add\n          swap1\n            /* \"#utility.yul\":1196:1373   */\n          jump\n            /* \"blockchain/contracts/Polygon/Pool/Prototype/pool/token.sol\":1600:1630  Transfer( _from, _to, _value ) */\n        tag_123:\n          mload(0x40)\n          dup1\n          swap2\n          sub\n          swap1\n          log3\n            /* \"blockchain/contracts/Polygon/Pool/Prototype/pool/token.sol\":1390:1638  {... */\n          pop\n            /* \"blockchain/contracts/Polygon/Pool/Prototype/pool/token.sol\":1336:1638  function mint_( address _to, uint256 _value ) private {... */\n          pop\n          pop\n          jump\t// out\n            /* \"#utility.yul\":14:562   */\n        tag_18:\n            /* \"#utility.yul\":126:130   */\n          0x00\n            /* \"#utility.yul\":155:157   */\n          0x20\n            /* \"#utility.yul\":184:186   */\n          dup1\n            /* \"#utility.yul\":173:182   */\n          dup4\n            /* \"#utility.yul\":166:187   */\n          mstore\n            /* \"#utility.yul\":216:222   */\n          dup4\n            /* \"#utility.yul\":210:223   */\n          mload\n            /* \"#utility.yul\":259:265   */\n          dup1\n            /* \"#utility.yul\":254:256   */\n          dup3\n            /* \"#utility.yul\":243:252   */\n          dup6\n            /* \"#utility.yul\":239:257   */\n          add\n            /* \"#utility.yul\":232:266   */\n          mstore\n            /* \"#utility.yul\":284:285   */\n          0x00\n            /* \"#utility.yul\":294:434   */\n        tag_128:\n            /* \"#utility.yul\":308:314   */\n          dup2\n            /* \"#utility.yul\":305:306   */\n          dup2\n            /* \"#utility.yul\":302:315   */\n          lt\n            /* \"#utility.yul\":294:434   */\n          iszero\n          tag_130\n          jumpi\n            /* \"#utility.yul\":403:417   */\n          dup6\n          dup2\n          add\n            /* \"#utility.yul\":399:422   */\n          dup4\n          add\n            /* \"#utility.yul\":393:423   */\n          mload\n            /* \"#utility.yul\":369:386   */\n          dup6\n          dup3\n          add\n            /* \"#utility.yul\":388:390   */\n          0x40\n            /* \"#utility.yul\":365:391   */\n          add\n            /* \"#utility.yul\":358:424   */\n          mstore\n            /* \"#utility.yul\":323:333   */\n          dup3\n          add\n            /* \"#utility.yul\":294:434   */\n          jump(tag_128)\n        tag_130:\n            /* \"#utility.yul\":298:301   */\n          pop\n            /* \"#utility.yul\":483:484   */\n          0x00\n            /* \"#utility.yul\":478:480   */\n          0x40\n            /* \"#utility.yul\":469:475   */\n          dup3\n            /* \"#utility.yul\":458:467   */\n          dup7\n            /* \"#utility.yul\":454:476   */\n          add\n            /* \"#utility.yul\":450:481   */\n          add\n            /* \"#utility.yul\":443:485   */\n          mstore\n            /* \"#utility.yul\":553:555   */\n          0x40\n            /* \"#utility.yul\":546:548   */\n          0x1f\n            /* \"#utility.yul\":542:549   */\n          not\n            /* \"#utility.yul\":537:539   */\n          0x1f\n            /* \"#utility.yul\":529:535   */\n          dup4\n            /* \"#utility.yul\":525:540   */\n          add\n            /* \"#utility.yul\":521:550   */\n          and\n            /* \"#utility.yul\":510:519   */\n          dup6\n            /* \"#utility.yul\":506:551   */\n          add\n            /* \"#utility.yul\":502:556   */\n          add\n            /* \"#utility.yul\":494:556   */\n          swap3\n          pop\n          pop\n          pop\n            /* \"#utility.yul\":14:562   */\n          swap3\n          swap2\n          pop\n          pop\n          jump\t// out\n            /* \"#utility.yul\":567:740   */\n        tag_124:\n            /* \"#utility.yul\":635:655   */\n          dup1\n          calldataload\n          sub(shl(0xa0, 0x01), 0x01)\n            /* \"#utility.yul\":684:715   */\n          dup2\n          and\n            /* \"#utility.yul\":674:716   */\n          dup2\n          eq\n            /* \"#utility.yul\":664:734   */\n          tag_132\n          jumpi\n            /* \"#utility.yul\":730:731   */\n          0x00\n            /* \"#utility.yul\":727:728   */\n          dup1\n            /* \"#utility.yul\":720:732   */\n          revert\n            /* \"#utility.yul\":664:734   */\n        tag_132:\n            /* \"#utility.yul\":567:740   */\n          swap2\n          swap1\n          pop\n          jump\t// out\n            /* \"#utility.yul\":745:999   */\n        tag_21:\n            /* \"#utility.yul\":813:819   */\n          0x00\n            /* \"#utility.yul\":821:827   */\n          dup1\n            /* \"#utility.yul\":874:876   */\n          0x40\n            /* \"#utility.yul\":862:871   */\n          dup4\n            /* \"#utility.yul\":853:860   */\n          dup6\n            /* \"#utility.yul\":849:872   */\n          sub\n            /* \"#utility.yul\":845:877   */\n          slt\n            /* \"#utility.yul\":842:894   */\n          iszero\n          tag_134\n          jumpi\n            /* \"#utility.yul\":890:891   */\n          0x00\n            /* \"#utility.yul\":887:888   */\n          dup1\n            /* \"#utility.yul\":880:892   */\n          revert\n            /* \"#utility.yul\":842:894   */\n        tag_134:\n            /* \"#utility.yul\":913:942   */\n          tag_135\n            /* \"#utility.yul\":932:941   */\n          dup4\n            /* \"#utility.yul\":913:942   */\n          tag_124\n          jump\t// in\n        tag_135:\n            /* \"#utility.yul\":903:942   */\n          swap5\n            /* \"#utility.yul\":989:991   */\n          0x20\n            /* \"#utility.yul\":974:992   */\n          swap4\n          swap1\n          swap4\n          add\n            /* \"#utility.yul\":961:993   */\n          calldataload\n          swap4\n          pop\n          pop\n          pop\n            /* \"#utility.yul\":745:999   */\n          jump\t// out\n            /* \"#utility.yul\":1378:1706   */\n        tag_31:\n            /* \"#utility.yul\":1455:1461   */\n          0x00\n            /* \"#utility.yul\":1463:1469   */\n          dup1\n            /* \"#utility.yul\":1471:1477   */\n          0x00\n            /* \"#utility.yul\":1524:1526   */\n          0x60\n            /* \"#utility.yul\":1512:1521   */\n          dup5\n            /* \"#utility.yul\":1503:1510   */\n          dup7\n            /* \"#utility.yul\":1499:1522   */\n          sub\n            /* \"#utility.yul\":1495:1527   */\n          slt\n            /* \"#utility.yul\":1492:1544   */\n          iszero\n          tag_139\n          jumpi\n            /* \"#utility.yul\":1540:1541   */\n          0x00\n            /* \"#utility.yul\":1537:1538   */\n          dup1\n            /* \"#utility.yul\":1530:1542   */\n          revert\n            /* \"#utility.yul\":1492:1544   */\n        tag_139:\n            /* \"#utility.yul\":1563:1592   */\n          tag_140\n            /* \"#utility.yul\":1582:1591   */\n          dup5\n            /* \"#utility.yul\":1563:1592   */\n          tag_124\n          jump\t// in\n        tag_140:\n            /* \"#utility.yul\":1553:1592   */\n          swap3\n          pop\n            /* \"#utility.yul\":1611:1649   */\n          tag_141\n            /* \"#utility.yul\":1645:1647   */\n          0x20\n            /* \"#utility.yul\":1634:1643   */\n          dup6\n            /* \"#utility.yul\":1630:1648   */\n          add\n            /* \"#utility.yul\":1611:1649   */\n          tag_124\n          jump\t// in\n        tag_141:\n            /* \"#utility.yul\":1601:1649   */\n          swap2\n          pop\n            /* \"#utility.yul\":1696:1698   */\n          0x40\n            /* \"#utility.yul\":1685:1694   */\n          dup5\n            /* \"#utility.yul\":1681:1699   */\n          add\n            /* \"#utility.yul\":1668:1700   */\n          calldataload\n            /* \"#utility.yul\":1658:1700   */\n          swap1\n          pop\n            /* \"#utility.yul\":1378:1706   */\n          swap3\n          pop\n          swap3\n          pop\n          swap3\n          jump\t// out\n            /* \"#utility.yul\":1900:2080   */\n        tag_40:\n            /* \"#utility.yul\":1959:1965   */\n          0x00\n            /* \"#utility.yul\":2012:2014   */\n          0x20\n            /* \"#utility.yul\":2000:2009   */\n          dup3\n            /* \"#utility.yul\":1991:1998   */\n          dup5\n            /* \"#utility.yul\":1987:2010   */\n          sub\n            /* \"#utility.yul\":1983:2015   */\n          slt\n            /* \"#utility.yul\":1980:2032   */\n          iszero\n          tag_144\n          jumpi\n            /* \"#utility.yul\":2028:2029   */\n          0x00\n            /* \"#utility.yul\":2025:2026   */\n          dup1\n            /* \"#utility.yul\":2018:2030   */\n          revert\n            /* \"#utility.yul\":1980:2032   */\n        tag_144:\n          pop\n            /* \"#utility.yul\":2051:2074   */\n          calldataload\n          swap2\n            /* \"#utility.yul\":1900:2080   */\n          swap1\n          pop\n          jump\t// out\n            /* \"#utility.yul\":2085:2271   */\n        tag_44:\n            /* \"#utility.yul\":2144:2150   */\n          0x00\n            /* \"#utility.yul\":2197:2199   */\n          0x20\n            /* \"#utility.yul\":2185:2194   */\n          dup3\n            /* \"#utility.yul\":2176:2183   */\n          dup5\n            /* \"#utility.yul\":2172:2195   */\n          sub\n            /* \"#utility.yul\":2168:2200   */\n          slt\n            /* \"#utility.yul\":2165:2217   */\n          iszero\n          tag_146\n          jumpi\n            /* \"#utility.yul\":2213:2214   */\n          0x00\n            /* \"#utility.yul\":2210:2211   */\n          dup1\n            /* \"#utility.yul\":2203:2215   */\n          revert\n            /* \"#utility.yul\":2165:2217   */\n        tag_146:\n            /* \"#utility.yul\":2236:2265   */\n          tag_147\n            /* \"#utility.yul\":2255:2264   */\n          dup3\n            /* \"#utility.yul\":2236:2265   */\n          tag_124\n          jump\t// in\n        tag_147:\n            /* \"#utility.yul\":2226:2265   */\n          swap4\n            /* \"#utility.yul\":2085:2271   */\n          swap3\n          pop\n          pop\n          pop\n          jump\t// out\n            /* \"#utility.yul\":2276:2536   */\n        tag_59:\n            /* \"#utility.yul\":2344:2350   */\n          0x00\n            /* \"#utility.yul\":2352:2358   */\n          dup1\n            /* \"#utility.yul\":2405:2407   */\n          0x40\n            /* \"#utility.yul\":2393:2402   */\n          dup4\n            /* \"#utility.yul\":2384:2391   */\n          dup6\n            /* \"#utility.yul\":2380:2403   */\n          sub\n            /* \"#utility.yul\":2376:2408   */\n          slt\n            /* \"#utility.yul\":2373:2425   */\n          iszero\n          tag_149\n          jumpi\n            /* \"#utility.yul\":2421:2422   */\n          0x00\n            /* \"#utility.yul\":2418:2419   */\n          dup1\n            /* \"#utility.yul\":2411:2423   */\n          revert\n            /* \"#utility.yul\":2373:2425   */\n        tag_149:\n            /* \"#utility.yul\":2444:2473   */\n          tag_150\n            /* \"#utility.yul\":2463:2472   */\n          dup4\n            /* \"#utility.yul\":2444:2473   */\n          tag_124\n          jump\t// in\n        tag_150:\n            /* \"#utility.yul\":2434:2473   */\n          swap2\n          pop\n            /* \"#utility.yul\":2492:2530   */\n          tag_151\n            /* \"#utility.yul\":2526:2528   */\n          0x20\n            /* \"#utility.yul\":2515:2524   */\n          dup5\n            /* \"#utility.yul\":2511:2529   */\n          add\n            /* \"#utility.yul\":2492:2530   */\n          tag_124\n          jump\t// in\n        tag_151:\n            /* \"#utility.yul\":2482:2530   */\n          swap1\n          pop\n            /* \"#utility.yul\":2276:2536   */\n          swap3\n          pop\n          swap3\n          swap1\n          pop\n          jump\t// out\n            /* \"#utility.yul\":2541:2921   */\n        tag_64:\n            /* \"#utility.yul\":2620:2621   */\n          0x01\n            /* \"#utility.yul\":2616:2628   */\n          dup2\n          dup2\n          shr\n          swap1\n            /* \"#utility.yul\":2663:2675   */\n          dup3\n          and\n          dup1\n            /* \"#utility.yul\":2684:2745   */\n          tag_153\n          jumpi\n            /* \"#utility.yul\":2738:2742   */\n          0x7f\n            /* \"#utility.yul\":2730:2736   */\n          dup3\n            /* \"#utility.yul\":2726:2743   */\n          and\n            /* \"#utility.yul\":2716:2743   */\n          swap2\n          pop\n            /* \"#utility.yul\":2684:2745   */\n        tag_153:\n            /* \"#utility.yul\":2791:2793   */\n          0x20\n            /* \"#utility.yul\":2783:2789   */\n          dup3\n            /* \"#utility.yul\":2780:2794   */\n          lt\n            /* \"#utility.yul\":2760:2778   */\n          dup2\n            /* \"#utility.yul\":2757:2795   */\n          sub\n            /* \"#utility.yul\":2754:2915   */\n          tag_154\n          jumpi\n            /* \"#utility.yul\":2837:2847   */\n          0x4e487b71\n            /* \"#utility.yul\":2832:2835   */\n          0xe0\n            /* \"#utility.yul\":2828:2848   */\n          shl\n            /* \"#utility.yul\":2825:2826   */\n          0x00\n            /* \"#utility.yul\":2818:2849   */\n          mstore\n            /* \"#utility.yul\":2872:2876   */\n          0x22\n            /* \"#utility.yul\":2869:2870   */\n          0x04\n            /* \"#utility.yul\":2862:2877   */\n          mstore\n            /* \"#utility.yul\":2900:2904   */\n          0x24\n            /* \"#utility.yul\":2897:2898   */\n          0x00\n            /* \"#utility.yul\":2890:2905   */\n          revert\n            /* \"#utility.yul\":2754:2915   */\n        tag_154:\n          pop\n            /* \"#utility.yul\":2541:2921   */\n          swap2\n          swap1\n          pop\n          jump\t// out\n            /* \"#utility.yul\":2926:3053   */\n        tag_125:\n            /* \"#utility.yul\":2987:2997   */\n          0x4e487b71\n            /* \"#utility.yul\":2982:2985   */\n          0xe0\n            /* \"#utility.yul\":2978:2998   */\n          shl\n            /* \"#utility.yul\":2975:2976   */\n          0x00\n            /* \"#utility.yul\":2968:2999   */\n          mstore\n            /* \"#utility.yul\":3018:3022   */\n          0x11\n            /* \"#utility.yul\":3015:3016   */\n          0x04\n            /* \"#utility.yul\":3008:3023   */\n          mstore\n            /* \"#utility.yul\":3042:3046   */\n          0x24\n            /* \"#utility.yul\":3039:3040   */\n          0x00\n            /* \"#utility.yul\":3032:3047   */\n          revert\n            /* \"#utility.yul\":3058:3186   */\n        tag_78:\n            /* \"#utility.yul\":3125:3134   */\n          dup2\n          dup2\n          sub\n            /* \"#utility.yul\":3146:3157   */\n          dup2\n          dup2\n          gt\n            /* \"#utility.yul\":3143:3180   */\n          iszero\n          tag_69\n          jumpi\n            /* \"#utility.yul\":3160:3178   */\n          tag_69\n          tag_125\n          jump\t// in\n            /* \"#utility.yul\":3191:3316   */\n        tag_110:\n            /* \"#utility.yul\":3256:3265   */\n          dup1\n          dup3\n          add\n            /* \"#utility.yul\":3277:3287   */\n          dup1\n          dup3\n          gt\n            /* \"#utility.yul\":3274:3310   */\n          iszero\n          tag_69\n          jumpi\n            /* \"#utility.yul\":3290:3308   */\n          tag_69\n          tag_125\n          jump\t// in\n\n        auxdata: 0xa2646970667358221220b5d48efaf89e99480352ff6cb42f44417236c4ddd7c663b98acca7c88cb1a93e64736f6c63430008120033\n    }\n}\n",
				"bytecode": {
					"linkReferences": {
						"blockchain/contracts/Polygon/Pool/Prototype/pool/lib.sol": {
							"Lib": [
								{
									"length": 20,
									"start": 1850
								},
								{
									"length": 20,
									"start": 2260
								}
							]
						}
					},
					"object": "6080604052604051620026fb380380620026fb833981016040819052620000269162000376565b62093a8062000036818a6200047d565b8810156200004357600080fd5b60013410156200005257600080fd5b60018210156200006157600080fd5b30338c8c8c8c8c8c604051620000779062000265565b6200008a989796959493929190620004d3565b604051809103906000f080158015620000a7573d6000803e3d6000fd5b50600080546001600160a01b0319166001600160a01b0392909216919091179055601260ff84161115620000da57600080fd5b848484604051620000eb9062000273565b620000f99392919062000542565b604051809103906000f08015801562000116573d6000803e3d6000fd5b50600180546001600160a01b0319166001600160a01b0392909216919091179055620001428262000186565b5050600054600280546001600160a01b039283166001600160a01b0319918216179091556001546003805491909316911617905550620005a4975050505050505050565b60015460405163140e25ad60e31b81526004810183905233916001600160a01b03169063a0712d6890602401600060405180830381600087803b158015620001cd57600080fd5b505af1158015620001e2573d6000803e3d6000fd5b505060015460405163a9059cbb60e01b81526001600160a01b03858116600483015260248201879052909116925063a9059cbb91506044016020604051808303816000875af11580156200023a573d6000803e3d6000fd5b505050506040513d601f19601f820116820180604052508101906200026091906200057f565b505050565b610d418062000e5083390190565b610b6a8062001b9183390190565b634e487b7160e01b600052604160045260246000fd5b60005b83811015620002b45781810151838201526020016200029a565b50506000910152565b600082601f830112620002cf57600080fd5b81516001600160401b0380821115620002ec57620002ec62000281565b604051601f8301601f19908116603f0116810190828211818310171562000317576200031762000281565b816040528381528660208588010111156200033157600080fd5b6200034484602083016020890162000297565b9695505050505050565b805180151581146200035f57600080fd5b919050565b805160ff811681146200035f57600080fd5b6000806000806000806000806000806101408b8d0312156200039757600080fd5b8a516001600160401b0380821115620003af57600080fd5b620003bd8e838f01620002bd565b9b5060208d0151915080821115620003d457600080fd5b620003e28e838f01620002bd565b9a5060408d0151995060608d0151985060808d015197506200040760a08e016200034e565b965060c08d01519150808211156200041e57600080fd5b6200042c8e838f01620002bd565b955060e08d01519150808211156200044357600080fd5b50620004528d828e01620002bd565b935050620004646101008c0162000364565b91506101208b015190509295989b9194979a5092959850565b808201808211156200049f57634e487b7160e01b600052601160045260246000fd5b92915050565b60008151808452620004bf81602086016020860162000297565b601f01601f19169290920160200192915050565b6001600160a01b0389811682528816602082015261010060408201819052600090620005028382018a620004a5565b90508281036060840152620005188189620004a5565b9150508560808301528460a08301528360c083015282151560e08301529998505050505050505050565b606081526000620005576060830186620004a5565b82810360208401526200056b8186620004a5565b91505060ff83166040830152949350505050565b6000602082840312156200059257600080fd5b6200059d826200034e565b9392505050565b61089c80620005b46000396000f3fe60806040526004361061003f5760003560e01c80630f851666146100445780632e1a7d4d1461007b5780633c964865146100ab578063c1cbbca7146100c9575b600080fd5b34801561005057600080fd5b506003546001600160a01b03165b6040516001600160a01b0390911681526020015b60405180910390f35b34801561008757600080fd5b5061009b6100963660046106f5565b6100dc565b6040519015158152602001610072565b3480156100b757600080fd5b506002546001600160a01b031661005e565b61009b6100d73660046106f5565b610207565b6000808290506000600160009054906101000a90046001600160a01b03166001600160a01b03166318160ddd6040518163ffffffff1660e01b8152600401602060405180830381865afa158015610137573d6000803e3d6000fd5b505050506040513d601f19601f8201168201806040525081019061015b919061070e565b604051634f2cf82560e01b81526004810184905260248101829052476044820181905291925060009073__$141014915f569a33f196563eb3a33fc3e6$__90634f2cf82590606401602060405180830381865af41580156101c0573d6000803e3d6000fd5b505050506040513d601f19601f820116820180604052508101906101e4919061070e565b9050336101f08561045c565b6101fa8183610543565b5060019695505050505050565b6000805460405163b976110160e01b81526004810184905282916001600160a01b03169063b97611019060240160a060405180830381865afa158015610251573d6000803e3d6000fd5b505050506040513d601f19601f82011682018060405250810190610275919061073c565b600154604080516318160ddd60e01b8152905192935034926000926001600160a01b0316916318160ddd9160048083019260209291908290030181865afa1580156102c4573d6000803e3d6000fd5b505050506040513d601f19601f820116820180604052508101906102e8919061070e565b905060006102f683476107c5565b604051630daf830160e01b815260048101859052602481018490526044810182905290915060009073__$141014915f569a33f196563eb3a33fc3e6$__90630daf830190606401602060405180830381865af415801561035a573d6000803e3d6000fd5b505050506040513d601f19601f8201168201806040525081019061037e919061070e565b90506000841161038d57600080fd5b6000831161039a57600080fd5b600082116103a757600080fd5b84602001514211156103b857600080fd5b60008054604051630248ffa560e21b81523360048201526001600160a01b0390911690630923fe9490602401602060405180830381865afa158015610401573d6000803e3d6000fd5b505050506040513d601f19601f8201168201806040525081019061042591906107ec565b905085606001511561043c57805161043c57600080fd5b610445856105df565b61044e82610620565b506001979650505050505050565b6001546040516323b872dd60e01b81523360048201819052306024830181905260448301859052909290916001600160a01b03909116906323b872dd906064016020604051808303816000875af11580156104bb573d6000803e3d6000fd5b505050506040513d601f19601f820116820180604052508101906104df9190610844565b50600154604051630852cd8d60e31b8152600481018590526001600160a01b03909116906342966c6890602401600060405180830381600087803b15801561052657600080fd5b505af115801561053a573d6000803e3d6000fd5b50505050505050565b600054604051632e1a7d4d60e01b8152600481018390526001600160a01b0390911690632e1a7d4d90602401600060405180830381600087803b15801561058957600080fd5b505af115801561059d573d6000803e3d6000fd5b50506040518492506001600160a01b038316915083156108fc029084906000818181858888f193505050501580156105d9573d6000803e3d6000fd5b50505050565b600080546040516001600160a01b0390911691829184156108fc0291859190818181858888f1935050505015801561061b573d6000803e3d6000fd5b505050565b60015460405163140e25ad60e31b81526004810183905233916001600160a01b03169063a0712d6890602401600060405180830381600087803b15801561066657600080fd5b505af115801561067a573d6000803e3d6000fd5b505060015460405163a9059cbb60e01b81526001600160a01b03858116600483015260248201879052909116925063a9059cbb91506044016020604051808303816000875af11580156106d1573d6000803e3d6000fd5b505050506040513d601f19601f8201168201806040525081019061061b9190610844565b60006020828403121561070757600080fd5b5035919050565b60006020828403121561072057600080fd5b5051919050565b8051801515811461073757600080fd5b919050565b600060a0828403121561074e57600080fd5b60405160a0810181811067ffffffffffffffff8211171561077f57634e487b7160e01b600052604160045260246000fd5b80604052508251815260208301516020820152604083015160408201526107a860608401610727565b60608201526107b960808401610727565b60808201529392505050565b818103818111156107e657634e487b7160e01b600052601160045260246000fd5b92915050565b6000602082840312156107fe57600080fd5b6040516020810181811067ffffffffffffffff8211171561082f57634e487b7160e01b600052604160045260246000fd5b60405261083b83610727565b81529392505050565b60006020828403121561085657600080fd5b61085f82610727565b939250505056fea26469706673582212205056f98671fbb0111a5481e22563eaeaf9189bf068088ed1282a12fc31a724f164736f6c6343000812003360806040523480156200001157600080fd5b5060405162000d4138038062000d41833981016040819052620000349162000350565b600062000042858562000418565b905062093a8062530e80818510156200005a57600080fd5b808310156200006857600080fd5b6040805160a081018252888152602080820189815292820188815287151560608401908152600060808501818152818052600790945293517f6d5257204ebe7d88fd91ae87941cb2dd9d8062b64ae5a2bd2d28ec40b9fbf6df5593517f6d5257204ebe7d88fd91ae87941cb2dd9d8062b64ae5a2bd2d28ec40b9fbf6e055517f6d5257204ebe7d88fd91ae87941cb2dd9d8062b64ae5a2bd2d28ec40b9fbf6e155915160008051602062000d218339815191528054935115156101000261ff00199215159290921661ffff1990941693909317179091558590036200016e5760008052600760205260008051602062000d21833981519152805461ff0019166101001790555b6001600160a01b038b166200018257600080fd5b6001600160a01b038a166200019657600080fd5b60008054610100600160a81b0319166101006001600160a01b038e81169190910291909117909155600180546001600160a01b031916918c169190911790556003620001e38a82620004cf565b506004620001f28982620004cf565b5042600581905550896001600160a01b03168b6001600160a01b03167fa9791d0b29cae9f1171eeb4160f282930ca6a1ee4f5d2760fdb5bee857b6057e8b8b6005548c8c8c8c6040516200024d9796959493929190620005c9565b60405180910390a350505050505050505050506200061f565b80516001600160a01b03811681146200027e57600080fd5b919050565b634e487b7160e01b600052604160045260246000fd5b60005b83811015620002b65781810151838201526020016200029c565b50506000910152565b600082601f830112620002d157600080fd5b81516001600160401b0380821115620002ee57620002ee62000283565b604051601f8301601f19908116603f0116810190828211818310171562000319576200031962000283565b816040528381528660208588010111156200033357600080fd5b6200034684602083016020890162000299565b9695505050505050565b600080600080600080600080610100898b0312156200036e57600080fd5b620003798962000266565b97506200038960208a0162000266565b60408a01519097506001600160401b0380821115620003a757600080fd5b620003b58c838d01620002bf565b975060608b0151915080821115620003cc57600080fd5b50620003db8b828c01620002bf565b9550506080890151935060a0890151925060c0890151915060e089015180151581146200040757600080fd5b809150509295985092959890939650565b818103818111156200043a57634e487b7160e01b600052601160045260246000fd5b92915050565b600181811c908216806200045557607f821691505b6020821081036200047657634e487b7160e01b600052602260045260246000fd5b50919050565b601f821115620004ca57600081815260208120601f850160051c81016020861015620004a55750805b601f850160051c820191505b81811015620004c657828155600101620004b1565b5050505b505050565b81516001600160401b03811115620004eb57620004eb62000283565b6200050381620004fc845462000440565b846200047c565b602080601f8311600181146200053b5760008415620005225750858301515b600019600386901b1c1916600185901b178555620004c6565b600085815260208120601f198616915b828110156200056c578886015182559484019460019091019084016200054b565b50858210156200058b5787850151600019600388901b60f8161c191681555b5050505050600190811b01905550565b60008151808452620005b581602086016020860162000299565b601f01601f19169290920160200192915050565b60e081526000620005de60e083018a6200059b565b8281036020840152620005f2818a6200059b565b604084019890985250506060810194909452608084019290925260a0830152151560c09091015292915050565b6106f2806200062f6000396000f3fe6080604052600436106100595760003560e01c80630923fe94146100c057806324a5af311461012a5780632e1a7d4d1461014c57806390b410af1461016c578063b97611011461019c578063dd12776a1461020257600080fd5b366100bb5760005461010090046001600160a01b0316331461007a57600080fd5b60408051338082523460208301819052909290917fe1fffcc4923d04b559f4d29a8bfc6cda04eb5b0d3c460751c2402c5c5cc9109c910160405180910390a1005b600080fd5b3480156100cc57600080fd5b506101146100db3660046104fb565b60408051602080820183526000918290526001600160a01b039390931681526006835281902081519283019091525460ff161515815290565b6040519051151581526020015b60405180910390f35b34801561013657600080fd5b5061014a61014536600461051d565b610222565b005b34801561015857600080fd5b5061014a610167366004610547565b6102c6565b34801561017857600080fd5b5061018c610187366004610571565b610369565b6040519015158152602001610121565b3480156101a857600080fd5b506101bc6101b7366004610547565b6103b4565b6040516101219190600060a08201905082518252602083015160208301526040830151604083015260608301511515606083015260808301511515608083015292915050565b34801561020e57600080fd5b5061018c61021d3660046105f2565b610444565b60005461010090046001600160a01b0316331461023e57600080fd5b60005460405163a9059cbb60e01b81526101009091046001600160a01b03908116600483018190526024830184905291849182169063a9059cbb906044016020604051808303816000875af115801561029b573d6000803e3d6000fd5b505050506040513d601f19601f820116820180604052508101906102bf919061069f565b5050505050565b60005461010090046001600160a01b031633146102e257600080fd5b600080546040516101009091046001600160a01b03169182916108fc85150291859190818181858888f19350505050158015610322573d6000803e3d6000fd5b50604080516001600160a01b0383168152602081018490527f884edad9ce6fa2440d8a54cc123490eb96d2768479d49ff9c7366125a9424364910160405180910390a15050565b6000805461010090046001600160a01b0316331461038657600080fd5b506001600160a01b039190911660009081526006602052604090209051815460ff1916901515179055600190565b6103ea6040518060a001604052806000815260200160008152602001600081526020016000151581526020016000151581525090565b50600090815260076020908152604091829020825160a0810184528154815260018201549281019290925260028101549282019290925260039091015460ff80821615156060840152610100909104161515608082015290565b6000805461010090046001600160a01b0316331461046157600080fd5b60008381526007602052604090205442111561047c57600080fd5b506000828152600760209081526040918290208351815590830151600180830191909155918301516002820155606083015160039091018054608085015115156101000261ff00199315159390931661ffff199091161791909117905592915050565b80356001600160a01b03811681146104f657600080fd5b919050565b60006020828403121561050d57600080fd5b610516826104df565b9392505050565b6000806040838503121561053057600080fd5b610539836104df565b946020939093013593505050565b60006020828403121561055957600080fd5b5035919050565b801515811461056e57600080fd5b50565b600080828403604081121561058557600080fd5b61058e846104df565b92506020601f19820112156105a257600080fd5b506040516020810181811067ffffffffffffffff821117156105d457634e487b7160e01b600052604160045260246000fd5b60405260208401356105e581610560565b8152919491935090915050565b60008082840360c081121561060657600080fd5b8335925060a0601f198201121561061c57600080fd5b5060405160a0810181811067ffffffffffffffff8211171561064e57634e487b7160e01b600052604160045260246000fd5b8060405250602084013581526040840135602082015260608401356040820152608084013561067c81610560565b606082015260a084013561068f81610560565b6080820152919491935090915050565b6000602082840312156106b157600080fd5b81516105168161056056fea26469706673582212201603d0dc89f1bd849e33733d0727e4b4c00dbd2776e4f310e7e5c7154fc420e064736f6c634300081200336d5257204ebe7d88fd91ae87941cb2dd9d8062b64ae5a2bd2d28ec40b9fbf6e260806040523480156200001157600080fd5b5060405162000b6a38038062000b6a833981016040819052620000349162000146565b60128160ff1611156200004657600080fd5b60006200005484826200025a565b5060016200006383826200025a565b506002805460ff191660ff9290921691909117905550620003269050565b634e487b7160e01b600052604160045260246000fd5b600082601f830112620000a957600080fd5b81516001600160401b0380821115620000c657620000c662000081565b604051601f8301601f19908116603f01168101908282118183101715620000f157620000f162000081565b816040528381526020925086838588010111156200010e57600080fd5b600091505b8382101562000132578582018301518183018401529082019062000113565b600093810190920192909252949350505050565b6000806000606084860312156200015c57600080fd5b83516001600160401b03808211156200017457600080fd5b620001828783880162000097565b945060208601519150808211156200019957600080fd5b50620001a88682870162000097565b925050604084015160ff81168114620001c057600080fd5b809150509250925092565b600181811c90821680620001e057607f821691505b6020821081036200020157634e487b7160e01b600052602260045260246000fd5b50919050565b601f8211156200025557600081815260208120601f850160051c81016020861015620002305750805b601f850160051c820191505b8181101562000251578281556001016200023c565b5050505b505050565b81516001600160401b0381111562000276576200027662000081565b6200028e81620002878454620001cb565b8462000207565b602080601f831160018114620002c65760008415620002ad5750858301515b600019600386901b1c1916600185901b17855562000251565b600085815260208120601f198616915b82811015620002f757888601518255948401946001909101908401620002d6565b5085821015620003165787850151600019600388901b60f8161c191681555b5050505050600190811b01905550565b61083480620003366000396000f3fe608060405234801561001057600080fd5b50600436106100a95760003560e01c806342966c681161007157806342966c681461012957806370a082311461013e57806395d89b4114610167578063a0712d681461016f578063a9059cbb14610182578063dd62ed3e1461019557600080fd5b806306fdde03146100ae578063095ea7b3146100cc57806318160ddd146100ef57806323b872dd14610101578063313ce56714610114575b600080fd5b6100b66101ce565b6040516100c3919061064a565b60405180910390f35b6100df6100da3660046106b4565b610262565b60405190151581526020016100c3565b6003545b6040519081526020016100c3565b6100df61010f3660046106de565b6102ea565b60025460405160ff90911681526020016100c3565b61013c61013736600461071a565b610377565b005b6100f361014c366004610733565b6001600160a01b031660009081526005602052604090205490565b6100b661039d565b61013c61017d36600461071a565b6103af565b6100df6101903660046106b4565b6103d1565b6100f36101a3366004610755565b6001600160a01b03918216600090815260066020908152604080832093909416825291909152205490565b60606000800180546101df90610788565b80601f016020809104026020016040519081016040528092919081815260200182805461020b90610788565b80156102585780601f1061022d57610100808354040283529160200191610258565b820191906000526020600020905b81548152906001019060200180831161023b57829003601f168201915b5050505050905090565b6000338061026f57600080fd5b6001600160a01b03841661028257600080fd5b6001600160a01b0381811660008181526006602090815260408083209489168084529482529182902087905590518681527f8c5be1e5ebec7d5bd14f71427d1e84f3dd0314c0f7b2291e5b200ac8c7c3b925910160405180910390a360019150505b92915050565b3360009081526006602090815260408083206001600160a01b03861684529091528120546001810161031b57600080fd5b8281101561032857600080fd5b3360009081526006602090815260408083206001600160a01b03881684529091528120805485929061035b9084906107d8565b9091555061036c90508585856103e9565b506001949350505050565b6004546001600160a01b0316331461038e57600080fd5b3361039981836104e6565b5050565b6060600060010180546101df90610788565b6004546001600160a01b031633146103c657600080fd5b33610399818361059a565b6000336103df8185856103e9565b5060019392505050565b6001600160a01b0383166000818152600560205260409020549061040c57600080fd5b6001600160a01b03831661041f57600080fd5b8181101561042c57600080fd5b801561043757600080fd5b6001600160a01b0384166000908152600560205260408120805484929061045f9084906107d8565b90915550506001600160a01b0383166000908152600560205260408120805484929061048c9084906107eb565b92505081905550826001600160a01b0316846001600160a01b03167fddf252ad1be2c89b69c2b068fc378daa952ba7f163c4a11628f55a4df523b3ef846040516104d891815260200190565b60405180910390a350505050565b6001600160a01b0382166000908152600560205260408120548083111561050c57600080fd5b6001600160a01b038416600090815260056020526040812080548592906105349084906107d8565b90915550506003805484919060009061054e9084906107d8565b92505081905550816001600160a01b0316846001600160a01b03167fddf252ad1be2c89b69c2b068fc378daa952ba7f163c4a11628f55a4df523b3ef856040516104d891815260200190565b60006001600160a01b0383166105af57600080fd5b6001600160a01b038316600090815260056020526040812080548492906105d79084906107eb565b9091555050600380548391906000906105f19084906107eb565b92505081905550826001600160a01b0316816001600160a01b03167fddf252ad1be2c89b69c2b068fc378daa952ba7f163c4a11628f55a4df523b3ef8460405161063d91815260200190565b60405180910390a3505050565b600060208083528351808285015260005b818110156106775785810183015185820160400152820161065b565b506000604082860101526040601f19601f8301168501019250505092915050565b80356001600160a01b03811681146106af57600080fd5b919050565b600080604083850312156106c757600080fd5b6106d083610698565b946020939093013593505050565b6000806000606084860312156106f357600080fd5b6106fc84610698565b925061070a60208501610698565b9150604084013590509250925092565b60006020828403121561072c57600080fd5b5035919050565b60006020828403121561074557600080fd5b61074e82610698565b9392505050565b6000806040838503121561076857600080fd5b61077183610698565b915061077f60208401610698565b90509250929050565b600181811c9082168061079c57607f821691505b6020821081036107bc57634e487b7160e01b600052602260045260246000fd5b50919050565b634e487b7160e01b600052601160045260246000fd5b818103818111156102e4576102e46107c2565b808201808211156102e4576102e46107c256fea2646970667358221220b5d48efaf89e99480352ff6cb42f44417236c4ddd7c663b98acca7c88cb1a93e64736f6c63430008120033",
					"opcodes": "PUSH1 0x80 PUSH1 0x40 MSTORE PUSH1 0x40 MLOAD PUSH3 0x26FB CODESIZE SUB DUP1 PUSH3 0x26FB DUP4 CODECOPY DUP2 ADD PUSH1 0x40 DUP2 SWAP1 MSTORE PUSH3 0x26 SWAP2 PUSH3 0x376 JUMP JUMPDEST PUSH3 0x93A80 PUSH3 0x36 DUP2 DUP11 PUSH3 0x47D JUMP JUMPDEST DUP9 LT ISZERO PUSH3 0x43 JUMPI PUSH1 0x0 DUP1 REVERT JUMPDEST PUSH1 0x1 CALLVALUE LT ISZERO PUSH3 0x52 JUMPI PUSH1 0x0 DUP1 REVERT JUMPDEST PUSH1 0x1 DUP3 LT ISZERO PUSH3 0x61 JUMPI PUSH1 0x0 DUP1 REVERT JUMPDEST ADDRESS CALLER DUP13 DUP13 DUP13 DUP13 DUP13 DUP13 PUSH1 0x40 MLOAD PUSH3 0x77 SWAP1 PUSH3 0x265 JUMP JUMPDEST PUSH3 0x8A SWAP9 SWAP8 SWAP7 SWAP6 SWAP5 SWAP4 SWAP3 SWAP2 SWAP1 PUSH3 0x4D3 JUMP JUMPDEST PUSH1 0x40 MLOAD DUP1 SWAP2 SUB SWAP1 PUSH1 0x0 CREATE DUP1 ISZERO DUP1 ISZERO PUSH3 0xA7 JUMPI RETURNDATASIZE PUSH1 0x0 DUP1 RETURNDATACOPY RETURNDATASIZE PUSH1 0x0 REVERT JUMPDEST POP PUSH1 0x0 DUP1 SLOAD PUSH1 0x1 PUSH1 0x1 PUSH1 0xA0 SHL SUB NOT AND PUSH1 0x1 PUSH1 0x1 PUSH1 0xA0 SHL SUB SWAP3 SWAP1 SWAP3 AND SWAP2 SWAP1 SWAP2 OR SWAP1 SSTORE PUSH1 0x12 PUSH1 0xFF DUP5 AND GT ISZERO PUSH3 0xDA JUMPI PUSH1 0x0 DUP1 REVERT JUMPDEST DUP5 DUP5 DUP5 PUSH1 0x40 MLOAD PUSH3 0xEB SWAP1 PUSH3 0x273 JUMP JUMPDEST PUSH3 0xF9 SWAP4 SWAP3 SWAP2 SWAP1 PUSH3 0x542 JUMP JUMPDEST PUSH1 0x40 MLOAD DUP1 SWAP2 SUB SWAP1 PUSH1 0x0 CREATE DUP1 ISZERO DUP1 ISZERO PUSH3 0x116 JUMPI RETURNDATASIZE PUSH1 0x0 DUP1 RETURNDATACOPY RETURNDATASIZE PUSH1 0x0 REVERT JUMPDEST POP PUSH1 0x1 DUP1 SLOAD PUSH1 0x1 PUSH1 0x1 PUSH1 0xA0 SHL SUB NOT AND PUSH1 0x1 PUSH1 0x1 PUSH1 0xA0 SHL SUB SWAP3 SWAP1 SWAP3 AND SWAP2 SWAP1 SWAP2 OR SWAP1 SSTORE PUSH3 0x142 DUP3 PUSH3 0x186 JUMP JUMPDEST POP POP PUSH1 0x0 SLOAD PUSH1 0x2 DUP1 SLOAD PUSH1 0x1 PUSH1 0x1 PUSH1 0xA0 SHL SUB SWAP3 DUP4 AND PUSH1 0x1 PUSH1 0x1 PUSH1 0xA0 SHL SUB NOT SWAP2 DUP3 AND OR SWAP1 SWAP2 SSTORE PUSH1 0x1 SLOAD PUSH1 0x3 DUP1 SLOAD SWAP2 SWAP1 SWAP4 AND SWAP2 AND OR SWAP1 SSTORE POP PUSH3 0x5A4 SWAP8 POP POP POP POP POP POP POP POP JUMP JUMPDEST PUSH1 0x1 SLOAD PUSH1 0x40 MLOAD PUSH4 0x140E25AD PUSH1 0xE3 SHL DUP2 MSTORE PUSH1 0x4 DUP2 ADD DUP4 SWAP1 MSTORE CALLER SWAP2 PUSH1 0x1 PUSH1 0x1 PUSH1 0xA0 SHL SUB AND SWAP1 PUSH4 0xA0712D68 SWAP1 PUSH1 0x24 ADD PUSH1 0x0 PUSH1 0x40 MLOAD DUP1 DUP4 SUB DUP2 PUSH1 0x0 DUP8 DUP1 EXTCODESIZE ISZERO DUP1 ISZERO PUSH3 0x1CD JUMPI PUSH1 0x0 DUP1 REVERT JUMPDEST POP GAS CALL ISZERO DUP1 ISZERO PUSH3 0x1E2 JUMPI RETURNDATASIZE PUSH1 0x0 DUP1 RETURNDATACOPY RETURNDATASIZE PUSH1 0x0 REVERT JUMPDEST POP POP PUSH1 0x1 SLOAD PUSH1 0x40 MLOAD PUSH4 0xA9059CBB PUSH1 0xE0 SHL DUP2 MSTORE PUSH1 0x1 PUSH1 0x1 PUSH1 0xA0 SHL SUB DUP6 DUP2 AND PUSH1 0x4 DUP4 ADD MSTORE PUSH1 0x24 DUP3 ADD DUP8 SWAP1 MSTORE SWAP1 SWAP2 AND SWAP3 POP PUSH4 0xA9059CBB SWAP2 POP PUSH1 0x44 ADD PUSH1 0x20 PUSH1 0x40 MLOAD DUP1 DUP4 SUB DUP2 PUSH1 0x0 DUP8 GAS CALL ISZERO DUP1 ISZERO PUSH3 0x23A JUMPI RETURNDATASIZE PUSH1 0x0 DUP1 RETURNDATACOPY RETURNDATASIZE PUSH1 0x0 REVERT JUMPDEST POP POP POP POP PUSH1 0x40 MLOAD RETURNDATASIZE PUSH1 0x1F NOT PUSH1 0x1F DUP3 ADD AND DUP3 ADD DUP1 PUSH1 0x40 MSTORE POP DUP2 ADD SWAP1 PUSH3 0x260 SWAP2 SWAP1 PUSH3 0x57F JUMP JUMPDEST POP POP POP JUMP JUMPDEST PUSH2 0xD41 DUP1 PUSH3 0xE50 DUP4 CODECOPY ADD SWAP1 JUMP JUMPDEST PUSH2 0xB6A DUP1 PUSH3 0x1B91 DUP4 CODECOPY ADD SWAP1 JUMP JUMPDEST PUSH4 0x4E487B71 PUSH1 0xE0 SHL PUSH1 0x0 MSTORE PUSH1 0x41 PUSH1 0x4 MSTORE PUSH1 0x24 PUSH1 0x0 REVERT JUMPDEST PUSH1 0x0 JUMPDEST DUP4 DUP2 LT ISZERO PUSH3 0x2B4 JUMPI DUP2 DUP2 ADD MLOAD DUP4 DUP3 ADD MSTORE PUSH1 0x20 ADD PUSH3 0x29A JUMP JUMPDEST POP POP PUSH1 0x0 SWAP2 ADD MSTORE JUMP JUMPDEST PUSH1 0x0 DUP3 PUSH1 0x1F DUP4 ADD SLT PUSH3 0x2CF JUMPI PUSH1 0x0 DUP1 REVERT JUMPDEST DUP2 MLOAD PUSH1 0x1 PUSH1 0x1 PUSH1 0x40 SHL SUB DUP1 DUP3 GT ISZERO PUSH3 0x2EC JUMPI PUSH3 0x2EC PUSH3 0x281 JUMP JUMPDEST PUSH1 0x40 MLOAD PUSH1 0x1F DUP4 ADD PUSH1 0x1F NOT SWAP1 DUP2 AND PUSH1 0x3F ADD AND DUP2 ADD SWAP1 DUP3 DUP3 GT DUP2 DUP4 LT OR ISZERO PUSH3 0x317 JUMPI PUSH3 0x317 PUSH3 0x281 JUMP JUMPDEST DUP2 PUSH1 0x40 MSTORE DUP4 DUP2 MSTORE DUP7 PUSH1 0x20 DUP6 DUP9 ADD ADD GT ISZERO PUSH3 0x331 JUMPI PUSH1 0x0 DUP1 REVERT JUMPDEST PUSH3 0x344 DUP5 PUSH1 0x20 DUP4 ADD PUSH1 0x20 DUP10 ADD PUSH3 0x297 JUMP JUMPDEST SWAP7 SWAP6 POP POP POP POP POP POP JUMP JUMPDEST DUP1 MLOAD DUP1 ISZERO ISZERO DUP2 EQ PUSH3 0x35F JUMPI PUSH1 0x0 DUP1 REVERT JUMPDEST SWAP2 SWAP1 POP JUMP JUMPDEST DUP1 MLOAD PUSH1 0xFF DUP2 AND DUP2 EQ PUSH3 0x35F JUMPI PUSH1 0x0 DUP1 REVERT JUMPDEST PUSH1 0x0 DUP1 PUSH1 0x0 DUP1 PUSH1 0x0 DUP1 PUSH1 0x0 DUP1 PUSH1 0x0 DUP1 PUSH2 0x140 DUP12 DUP14 SUB SLT ISZERO PUSH3 0x397 JUMPI PUSH1 0x0 DUP1 REVERT JUMPDEST DUP11 MLOAD PUSH1 0x1 PUSH1 0x1 PUSH1 0x40 SHL SUB DUP1 DUP3 GT ISZERO PUSH3 0x3AF JUMPI PUSH1 0x0 DUP1 REVERT JUMPDEST PUSH3 0x3BD DUP15 DUP4 DUP16 ADD PUSH3 0x2BD JUMP JUMPDEST SWAP12 POP PUSH1 0x20 DUP14 ADD MLOAD SWAP2 POP DUP1 DUP3 GT ISZERO PUSH3 0x3D4 JUMPI PUSH1 0x0 DUP1 REVERT JUMPDEST PUSH3 0x3E2 DUP15 DUP4 DUP16 ADD PUSH3 0x2BD JUMP JUMPDEST SWAP11 POP PUSH1 0x40 DUP14 ADD MLOAD SWAP10 POP PUSH1 0x60 DUP14 ADD MLOAD SWAP9 POP PUSH1 0x80 DUP14 ADD MLOAD SWAP8 POP PUSH3 0x407 PUSH1 0xA0 DUP15 ADD PUSH3 0x34E JUMP JUMPDEST SWAP7 POP PUSH1 0xC0 DUP14 ADD MLOAD SWAP2 POP DUP1 DUP3 GT ISZERO PUSH3 0x41E JUMPI PUSH1 0x0 DUP1 REVERT JUMPDEST PUSH3 0x42C DUP15 DUP4 DUP16 ADD PUSH3 0x2BD JUMP JUMPDEST SWAP6 POP PUSH1 0xE0 DUP14 ADD MLOAD SWAP2 POP DUP1 DUP3 GT ISZERO PUSH3 0x443 JUMPI PUSH1 0x0 DUP1 REVERT JUMPDEST POP PUSH3 0x452 DUP14 DUP3 DUP15 ADD PUSH3 0x2BD JUMP JUMPDEST SWAP4 POP POP PUSH3 0x464 PUSH2 0x100 DUP13 ADD PUSH3 0x364 JUMP JUMPDEST SWAP2 POP PUSH2 0x120 DUP12 ADD MLOAD SWAP1 POP SWAP3 SWAP6 SWAP9 SWAP12 SWAP2 SWAP5 SWAP8 SWAP11 POP SWAP3 SWAP6 SWAP9 POP JUMP JUMPDEST DUP1 DUP3 ADD DUP1 DUP3 GT ISZERO PUSH3 0x49F JUMPI PUSH4 0x4E487B71 PUSH1 0xE0 SHL PUSH1 0x0 MSTORE PUSH1 0x11 PUSH1 0x4 MSTORE PUSH1 0x24 PUSH1 0x0 REVERT JUMPDEST SWAP3 SWAP2 POP POP JUMP JUMPDEST PUSH1 0x0 DUP2 MLOAD DUP1 DUP5 MSTORE PUSH3 0x4BF DUP2 PUSH1 0x20 DUP7 ADD PUSH1 0x20 DUP7 ADD PUSH3 0x297 JUMP JUMPDEST PUSH1 0x1F ADD PUSH1 0x1F NOT AND SWAP3 SWAP1 SWAP3 ADD PUSH1 0x20 ADD SWAP3 SWAP2 POP POP JUMP JUMPDEST PUSH1 0x1 PUSH1 0x1 PUSH1 0xA0 SHL SUB DUP10 DUP2 AND DUP3 MSTORE DUP9 AND PUSH1 0x20 DUP3 ADD MSTORE PUSH2 0x100 PUSH1 0x40 DUP3 ADD DUP2 SWAP1 MSTORE PUSH1 0x0 SWAP1 PUSH3 0x502 DUP4 DUP3 ADD DUP11 PUSH3 0x4A5 JUMP JUMPDEST SWAP1 POP DUP3 DUP2 SUB PUSH1 0x60 DUP5 ADD MSTORE PUSH3 0x518 DUP2 DUP10 PUSH3 0x4A5 JUMP JUMPDEST SWAP2 POP POP DUP6 PUSH1 0x80 DUP4 ADD MSTORE DUP5 PUSH1 0xA0 DUP4 ADD MSTORE DUP4 PUSH1 0xC0 DUP4 ADD MSTORE DUP3 ISZERO ISZERO PUSH1 0xE0 DUP4 ADD MSTORE SWAP10 SWAP9 POP POP POP POP POP POP POP POP POP JUMP JUMPDEST PUSH1 0x60 DUP2 MSTORE PUSH1 0x0 PUSH3 0x557 PUSH1 0x60 DUP4 ADD DUP7 PUSH3 0x4A5 JUMP JUMPDEST DUP3 DUP2 SUB PUSH1 0x20 DUP5 ADD MSTORE PUSH3 0x56B DUP2 DUP7 PUSH3 0x4A5 JUMP JUMPDEST SWAP2 POP POP PUSH1 0xFF DUP4 AND PUSH1 0x40 DUP4 ADD MSTORE SWAP5 SWAP4 POP POP POP POP JUMP JUMPDEST PUSH1 0x0 PUSH1 0x20 DUP3 DUP5 SUB SLT ISZERO PUSH3 0x592 JUMPI PUSH1 0x0 DUP1 REVERT JUMPDEST PUSH3 0x59D DUP3 PUSH3 0x34E JUMP JUMPDEST SWAP4 SWAP3 POP POP POP JUMP JUMPDEST PUSH2 0x89C DUP1 PUSH3 0x5B4 PUSH1 0x0 CODECOPY PUSH1 0x0 RETURN INVALID PUSH1 0x80 PUSH1 0x40 MSTORE PUSH1 0x4 CALLDATASIZE LT PUSH2 0x3F JUMPI PUSH1 0x0 CALLDATALOAD PUSH1 0xE0 SHR DUP1 PUSH4 0xF851666 EQ PUSH2 0x44 JUMPI DUP1 PUSH4 0x2E1A7D4D EQ PUSH2 0x7B JUMPI DUP1 PUSH4 0x3C964865 EQ PUSH2 0xAB JUMPI DUP1 PUSH4 0xC1CBBCA7 EQ PUSH2 0xC9 JUMPI JUMPDEST PUSH1 0x0 DUP1 REVERT JUMPDEST CALLVALUE DUP1 ISZERO PUSH2 0x50 JUMPI PUSH1 0x0 DUP1 REVERT JUMPDEST POP PUSH1 0x3 SLOAD PUSH1 0x1 PUSH1 0x1 PUSH1 0xA0 SHL SUB AND JUMPDEST PUSH1 0x40 MLOAD PUSH1 0x1 PUSH1 0x1 PUSH1 0xA0 SHL SUB SWAP1 SWAP2 AND DUP2 MSTORE PUSH1 0x20 ADD JUMPDEST PUSH1 0x40 MLOAD DUP1 SWAP2 SUB SWAP1 RETURN JUMPDEST CALLVALUE DUP1 ISZERO PUSH2 0x87 JUMPI PUSH1 0x0 DUP1 REVERT JUMPDEST POP PUSH2 0x9B PUSH2 0x96 CALLDATASIZE PUSH1 0x4 PUSH2 0x6F5 JUMP JUMPDEST PUSH2 0xDC JUMP JUMPDEST PUSH1 0x40 MLOAD SWAP1 ISZERO ISZERO DUP2 MSTORE PUSH1 0x20 ADD PUSH2 0x72 JUMP JUMPDEST CALLVALUE DUP1 ISZERO PUSH2 0xB7 JUMPI PUSH1 0x0 DUP1 REVERT JUMPDEST POP PUSH1 0x2 SLOAD PUSH1 0x1 PUSH1 0x1 PUSH1 0xA0 SHL SUB AND PUSH2 0x5E JUMP JUMPDEST PUSH2 0x9B PUSH2 0xD7 CALLDATASIZE PUSH1 0x4 PUSH2 0x6F5 JUMP JUMPDEST PUSH2 0x207 JUMP JUMPDEST PUSH1 0x0 DUP1 DUP3 SWAP1 POP PUSH1 0x0 PUSH1 0x1 PUSH1 0x0 SWAP1 SLOAD SWAP1 PUSH2 0x100 EXP SWAP1 DIV PUSH1 0x1 PUSH1 0x1 PUSH1 0xA0 SHL SUB AND PUSH1 0x1 PUSH1 0x1 PUSH1 0xA0 SHL SUB AND PUSH4 0x18160DDD PUSH1 0x40 MLOAD DUP2 PUSH4 0xFFFFFFFF AND PUSH1 0xE0 SHL DUP2 MSTORE PUSH1 0x4 ADD PUSH1 0x20 PUSH1 0x40 MLOAD DUP1 DUP4 SUB DUP2 DUP7 GAS STATICCALL ISZERO DUP1 ISZERO PUSH2 0x137 JUMPI RETURNDATASIZE PUSH1 0x0 DUP1 RETURNDATACOPY RETURNDATASIZE PUSH1 0x0 REVERT JUMPDEST POP POP POP POP PUSH1 0x40 MLOAD RETURNDATASIZE PUSH1 0x1F NOT PUSH1 0x1F DUP3 ADD AND DUP3 ADD DUP1 PUSH1 0x40 MSTORE POP DUP2 ADD SWAP1 PUSH2 0x15B SWAP2 SWAP1 PUSH2 0x70E JUMP JUMPDEST PUSH1 0x40 MLOAD PUSH4 0x4F2CF825 PUSH1 0xE0 SHL DUP2 MSTORE PUSH1 0x4 DUP2 ADD DUP5 SWAP1 MSTORE PUSH1 0x24 DUP2 ADD DUP3 SWAP1 MSTORE SELFBALANCE PUSH1 0x44 DUP3 ADD DUP2 SWAP1 MSTORE SWAP2 SWAP3 POP PUSH1 0x0 SWAP1 PUSH20 0x0 SWAP1 PUSH4 0x4F2CF825 SWAP1 PUSH1 0x64 ADD PUSH1 0x20 PUSH1 0x40 MLOAD DUP1 DUP4 SUB DUP2 DUP7 GAS DELEGATECALL ISZERO DUP1 ISZERO PUSH2 0x1C0 JUMPI RETURNDATASIZE PUSH1 0x0 DUP1 RETURNDATACOPY RETURNDATASIZE PUSH1 0x0 REVERT JUMPDEST POP POP POP POP PUSH1 0x40 MLOAD RETURNDATASIZE PUSH1 0x1F NOT PUSH1 0x1F DUP3 ADD AND DUP3 ADD DUP1 PUSH1 0x40 MSTORE POP DUP2 ADD SWAP1 PUSH2 0x1E4 SWAP2 SWAP1 PUSH2 0x70E JUMP JUMPDEST SWAP1 POP CALLER PUSH2 0x1F0 DUP6 PUSH2 0x45C JUMP JUMPDEST PUSH2 0x1FA DUP2 DUP4 PUSH2 0x543 JUMP JUMPDEST POP PUSH1 0x1 SWAP7 SWAP6 POP POP POP POP POP POP JUMP JUMPDEST PUSH1 0x0 DUP1 SLOAD PUSH1 0x40 MLOAD PUSH4 0xB9761101 PUSH1 0xE0 SHL DUP2 MSTORE PUSH1 0x4 DUP2 ADD DUP5 SWAP1 MSTORE DUP3 SWAP2 PUSH1 0x1 PUSH1 0x1 PUSH1 0xA0 SHL SUB AND SWAP1 PUSH4 0xB9761101 SWAP1 PUSH1 0x24 ADD PUSH1 0xA0 PUSH1 0x40 MLOAD DUP1 DUP4 SUB DUP2 DUP7 GAS STATICCALL ISZERO DUP1 ISZERO PUSH2 0x251 JUMPI RETURNDATASIZE PUSH1 0x0 DUP1 RETURNDATACOPY RETURNDATASIZE PUSH1 0x0 REVERT JUMPDEST POP POP POP POP PUSH1 0x40 MLOAD RETURNDATASIZE PUSH1 0x1F NOT PUSH1 0x1F DUP3 ADD AND DUP3 ADD DUP1 PUSH1 0x40 MSTORE POP DUP2 ADD SWAP1 PUSH2 0x275 SWAP2 SWAP1 PUSH2 0x73C JUMP JUMPDEST PUSH1 0x1 SLOAD PUSH1 0x40 DUP1 MLOAD PUSH4 0x18160DDD PUSH1 0xE0 SHL DUP2 MSTORE SWAP1 MLOAD SWAP3 SWAP4 POP CALLVALUE SWAP3 PUSH1 0x0 SWAP3 PUSH1 0x1 PUSH1 0x1 PUSH1 0xA0 SHL SUB AND SWAP2 PUSH4 0x18160DDD SWAP2 PUSH1 0x4 DUP1 DUP4 ADD SWAP3 PUSH1 0x20 SWAP3 SWAP2 SWAP1 DUP3 SWAP1 SUB ADD DUP2 DUP7 GAS STATICCALL ISZERO DUP1 ISZERO PUSH2 0x2C4 JUMPI RETURNDATASIZE PUSH1 0x0 DUP1 RETURNDATACOPY RETURNDATASIZE PUSH1 0x0 REVERT JUMPDEST POP POP POP POP PUSH1 0x40 MLOAD RETURNDATASIZE PUSH1 0x1F NOT PUSH1 0x1F DUP3 ADD AND DUP3 ADD DUP1 PUSH1 0x40 MSTORE POP DUP2 ADD SWAP1 PUSH2 0x2E8 SWAP2 SWAP1 PUSH2 0x70E JUMP JUMPDEST SWAP1 POP PUSH1 0x0 PUSH2 0x2F6 DUP4 SELFBALANCE PUSH2 0x7C5 JUMP JUMPDEST PUSH1 0x40 MLOAD PUSH4 0xDAF8301 PUSH1 0xE0 SHL DUP2 MSTORE PUSH1 0x4 DUP2 ADD DUP6 SWAP1 MSTORE PUSH1 0x24 DUP2 ADD DUP5 SWAP1 MSTORE PUSH1 0x44 DUP2 ADD DUP3 SWAP1 MSTORE SWAP1 SWAP2 POP PUSH1 0x0 SWAP1 PUSH20 0x0 SWAP1 PUSH4 0xDAF8301 SWAP1 PUSH1 0x64 ADD PUSH1 0x20 PUSH1 0x40 MLOAD DUP1 DUP4 SUB DUP2 DUP7 GAS DELEGATECALL ISZERO DUP1 ISZERO PUSH2 0x35A JUMPI RETURNDATASIZE PUSH1 0x0 DUP1 RETURNDATACOPY RETURNDATASIZE PUSH1 0x0 REVERT JUMPDEST POP POP POP POP PUSH1 0x40 MLOAD RETURNDATASIZE PUSH1 0x1F NOT PUSH1 0x1F DUP3 ADD AND DUP3 ADD DUP1 PUSH1 0x40 MSTORE POP DUP2 ADD SWAP1 PUSH2 0x37E SWAP2 SWAP1 PUSH2 0x70E JUMP JUMPDEST SWAP1 POP PUSH1 0x0 DUP5 GT PUSH2 0x38D JUMPI PUSH1 0x0 DUP1 REVERT JUMPDEST PUSH1 0x0 DUP4 GT PUSH2 0x39A JUMPI PUSH1 0x0 DUP1 REVERT JUMPDEST PUSH1 0x0 DUP3 GT PUSH2 0x3A7 JUMPI PUSH1 0x0 DUP1 REVERT JUMPDEST DUP5 PUSH1 0x20 ADD MLOAD TIMESTAMP GT ISZERO PUSH2 0x3B8 JUMPI PUSH1 0x0 DUP1 REVERT JUMPDEST PUSH1 0x0 DUP1 SLOAD PUSH1 0x40 MLOAD PUSH4 0x248FFA5 PUSH1 0xE2 SHL DUP2 MSTORE CALLER PUSH1 0x4 DUP3 ADD MSTORE PUSH1 0x1 PUSH1 0x1 PUSH1 0xA0 SHL SUB SWAP1 SWAP2 AND SWAP1 PUSH4 0x923FE94 SWAP1 PUSH1 0x24 ADD PUSH1 0x20 PUSH1 0x40 MLOAD DUP1 DUP4 SUB DUP2 DUP7 GAS STATICCALL ISZERO DUP1 ISZERO PUSH2 0x401 JUMPI RETURNDATASIZE PUSH1 0x0 DUP1 RETURNDATACOPY RETURNDATASIZE PUSH1 0x0 REVERT JUMPDEST POP POP POP POP PUSH1 0x40 MLOAD RETURNDATASIZE PUSH1 0x1F NOT PUSH1 0x1F DUP3 ADD AND DUP3 ADD DUP1 PUSH1 0x40 MSTORE POP DUP2 ADD SWAP1 PUSH2 0x425 SWAP2 SWAP1 PUSH2 0x7EC JUMP JUMPDEST SWAP1 POP DUP6 PUSH1 0x60 ADD MLOAD ISZERO PUSH2 0x43C JUMPI DUP1 MLOAD PUSH2 0x43C JUMPI PUSH1 0x0 DUP1 REVERT JUMPDEST PUSH2 0x445 DUP6 PUSH2 0x5DF JUMP JUMPDEST PUSH2 0x44E DUP3 PUSH2 0x620 JUMP JUMPDEST POP PUSH1 0x1 SWAP8 SWAP7 POP POP POP POP POP POP POP JUMP JUMPDEST PUSH1 0x1 SLOAD PUSH1 0x40 MLOAD PUSH4 0x23B872DD PUSH1 0xE0 SHL DUP2 MSTORE CALLER PUSH1 0x4 DUP3 ADD DUP2 SWAP1 MSTORE ADDRESS PUSH1 0x24 DUP4 ADD DUP2 SWAP1 MSTORE PUSH1 0x44 DUP4 ADD DUP6 SWAP1 MSTORE SWAP1 SWAP3 SWAP1 SWAP2 PUSH1 0x1 PUSH1 0x1 PUSH1 0xA0 SHL SUB SWAP1 SWAP2 AND SWAP1 PUSH4 0x23B872DD SWAP1 PUSH1 0x64 ADD PUSH1 0x20 PUSH1 0x40 MLOAD DUP1 DUP4 SUB DUP2 PUSH1 0x0 DUP8 GAS CALL ISZERO DUP1 ISZERO PUSH2 0x4BB JUMPI RETURNDATASIZE PUSH1 0x0 DUP1 RETURNDATACOPY RETURNDATASIZE PUSH1 0x0 REVERT JUMPDEST POP POP POP POP PUSH1 0x40 MLOAD RETURNDATASIZE PUSH1 0x1F NOT PUSH1 0x1F DUP3 ADD AND DUP3 ADD DUP1 PUSH1 0x40 MSTORE POP DUP2 ADD SWAP1 PUSH2 0x4DF SWAP2 SWAP1 PUSH2 0x844 JUMP JUMPDEST POP PUSH1 0x1 SLOAD PUSH1 0x40 MLOAD PUSH4 0x852CD8D PUSH1 0xE3 SHL DUP2 MSTORE PUSH1 0x4 DUP2 ADD DUP6 SWAP1 MSTORE PUSH1 0x1 PUSH1 0x1 PUSH1 0xA0 SHL SUB SWAP1 SWAP2 AND SWAP1 PUSH4 0x42966C68 SWAP1 PUSH1 0x24 ADD PUSH1 0x0 PUSH1 0x40 MLOAD DUP1 DUP4 SUB DUP2 PUSH1 0x0 DUP8 DUP1 EXTCODESIZE ISZERO DUP1 ISZERO PUSH2 0x526 JUMPI PUSH1 0x0 DUP1 REVERT JUMPDEST POP GAS CALL ISZERO DUP1 ISZERO PUSH2 0x53A JUMPI RETURNDATASIZE PUSH1 0x0 DUP1 RETURNDATACOPY RETURNDATASIZE PUSH1 0x0 REVERT JUMPDEST POP POP POP POP POP POP POP JUMP JUMPDEST PUSH1 0x0 SLOAD PUSH1 0x40 MLOAD PUSH4 0x2E1A7D4D PUSH1 0xE0 SHL DUP2 MSTORE PUSH1 0x4 DUP2 ADD DUP4 SWAP1 MSTORE PUSH1 0x1 PUSH1 0x1 PUSH1 0xA0 SHL SUB SWAP1 SWAP2 AND SWAP1 PUSH4 0x2E1A7D4D SWAP1 PUSH1 0x24 ADD PUSH1 0x0 PUSH1 0x40 MLOAD DUP1 DUP4 SUB DUP2 PUSH1 0x0 DUP8 DUP1 EXTCODESIZE ISZERO DUP1 ISZERO PUSH2 0x589 JUMPI PUSH1 0x0 DUP1 REVERT JUMPDEST POP GAS CALL ISZERO DUP1 ISZERO PUSH2 0x59D JUMPI RETURNDATASIZE PUSH1 0x0 DUP1 RETURNDATACOPY RETURNDATASIZE PUSH1 0x0 REVERT JUMPDEST POP POP PUSH1 0x40 MLOAD DUP5 SWAP3 POP PUSH1 0x1 PUSH1 0x1 PUSH1 0xA0 SHL SUB DUP4 AND SWAP2 POP DUP4 ISZERO PUSH2 0x8FC MUL SWAP1 DUP5 SWAP1 PUSH1 0x0 DUP2 DUP2 DUP2 DUP6 DUP9 DUP9 CALL SWAP4 POP POP POP POP ISZERO DUP1 ISZERO PUSH2 0x5D9 JUMPI RETURNDATASIZE PUSH1 0x0 DUP1 RETURNDATACOPY RETURNDATASIZE PUSH1 0x0 REVERT JUMPDEST POP POP POP POP JUMP JUMPDEST PUSH1 0x0 DUP1 SLOAD PUSH1 0x40 MLOAD PUSH1 0x1 PUSH1 0x1 PUSH1 0xA0 SHL SUB SWAP1 SWAP2 AND SWAP2 DUP3 SWAP2 DUP5 ISZERO PUSH2 0x8FC MUL SWAP2 DUP6 SWAP2 SWAP1 DUP2 DUP2 DUP2 DUP6 DUP9 DUP9 CALL SWAP4 POP POP POP POP ISZERO DUP1 ISZERO PUSH2 0x61B JUMPI RETURNDATASIZE PUSH1 0x0 DUP1 RETURNDATACOPY RETURNDATASIZE PUSH1 0x0 REVERT JUMPDEST POP POP POP JUMP JUMPDEST PUSH1 0x1 SLOAD PUSH1 0x40 MLOAD PUSH4 0x140E25AD PUSH1 0xE3 SHL DUP2 MSTORE PUSH1 0x4 DUP2 ADD DUP4 SWAP1 MSTORE CALLER SWAP2 PUSH1 0x1 PUSH1 0x1 PUSH1 0xA0 SHL SUB AND SWAP1 PUSH4 0xA0712D68 SWAP1 PUSH1 0x24 ADD PUSH1 0x0 PUSH1 0x40 MLOAD DUP1 DUP4 SUB DUP2 PUSH1 0x0 DUP8 DUP1 EXTCODESIZE ISZERO DUP1 ISZERO PUSH2 0x666 JUMPI PUSH1 0x0 DUP1 REVERT JUMPDEST POP GAS CALL ISZERO DUP1 ISZERO PUSH2 0x67A JUMPI RETURNDATASIZE PUSH1 0x0 DUP1 RETURNDATACOPY RETURNDATASIZE PUSH1 0x0 REVERT JUMPDEST POP POP PUSH1 0x1 SLOAD PUSH1 0x40 MLOAD PUSH4 0xA9059CBB PUSH1 0xE0 SHL DUP2 MSTORE PUSH1 0x1 PUSH1 0x1 PUSH1 0xA0 SHL SUB DUP6 DUP2 AND PUSH1 0x4 DUP4 ADD MSTORE PUSH1 0x24 DUP3 ADD DUP8 SWAP1 MSTORE SWAP1 SWAP2 AND SWAP3 POP PUSH4 0xA9059CBB SWAP2 POP PUSH1 0x44 ADD PUSH1 0x20 PUSH1 0x40 MLOAD DUP1 DUP4 SUB DUP2 PUSH1 0x0 DUP8 GAS CALL ISZERO DUP1 ISZERO PUSH2 0x6D1 JUMPI RETURNDATASIZE PUSH1 0x0 DUP1 RETURNDATACOPY RETURNDATASIZE PUSH1 0x0 REVERT JUMPDEST POP POP POP POP PUSH1 0x40 MLOAD RETURNDATASIZE PUSH1 0x1F NOT PUSH1 0x1F DUP3 ADD AND DUP3 ADD DUP1 PUSH1 0x40 MSTORE POP DUP2 ADD SWAP1 PUSH2 0x61B SWAP2 SWAP1 PUSH2 0x844 JUMP JUMPDEST PUSH1 0x0 PUSH1 0x20 DUP3 DUP5 SUB SLT ISZERO PUSH2 0x707 JUMPI PUSH1 0x0 DUP1 REVERT JUMPDEST POP CALLDATALOAD SWAP2 SWAP1 POP JUMP JUMPDEST PUSH1 0x0 PUSH1 0x20 DUP3 DUP5 SUB SLT ISZERO PUSH2 0x720 JUMPI PUSH1 0x0 DUP1 REVERT JUMPDEST POP MLOAD SWAP2 SWAP1 POP JUMP JUMPDEST DUP1 MLOAD DUP1 ISZERO ISZERO DUP2 EQ PUSH2 0x737 JUMPI PUSH1 0x0 DUP1 REVERT JUMPDEST SWAP2 SWAP1 POP JUMP JUMPDEST PUSH1 0x0 PUSH1 0xA0 DUP3 DUP5 SUB SLT ISZERO PUSH2 0x74E JUMPI PUSH1 0x0 DUP1 REVERT JUMPDEST PUSH1 0x40 MLOAD PUSH1 0xA0 DUP2 ADD DUP2 DUP2 LT PUSH8 0xFFFFFFFFFFFFFFFF DUP3 GT OR ISZERO PUSH2 0x77F JUMPI PUSH4 0x4E487B71 PUSH1 0xE0 SHL PUSH1 0x0 MSTORE PUSH1 0x41 PUSH1 0x4 MSTORE PUSH1 0x24 PUSH1 0x0 REVERT JUMPDEST DUP1 PUSH1 0x40 MSTORE POP DUP3 MLOAD DUP2 MSTORE PUSH1 0x20 DUP4 ADD MLOAD PUSH1 0x20 DUP3 ADD MSTORE PUSH1 0x40 DUP4 ADD MLOAD PUSH1 0x40 DUP3 ADD MSTORE PUSH2 0x7A8 PUSH1 0x60 DUP5 ADD PUSH2 0x727 JUMP JUMPDEST PUSH1 0x60 DUP3 ADD MSTORE PUSH2 0x7B9 PUSH1 0x80 DUP5 ADD PUSH2 0x727 JUMP JUMPDEST PUSH1 0x80 DUP3 ADD MSTORE SWAP4 SWAP3 POP POP POP JUMP JUMPDEST DUP2 DUP2 SUB DUP2 DUP2 GT ISZERO PUSH2 0x7E6 JUMPI PUSH4 0x4E487B71 PUSH1 0xE0 SHL PUSH1 0x0 MSTORE PUSH1 0x11 PUSH1 0x4 MSTORE PUSH1 0x24 PUSH1 0x0 REVERT JUMPDEST SWAP3 SWAP2 POP POP JUMP JUMPDEST PUSH1 0x0 PUSH1 0x20 DUP3 DUP5 SUB SLT ISZERO PUSH2 0x7FE JUMPI PUSH1 0x0 DUP1 REVERT JUMPDEST PUSH1 0x40 MLOAD PUSH1 0x20 DUP2 ADD DUP2 DUP2 LT PUSH8 0xFFFFFFFFFFFFFFFF DUP3 GT OR ISZERO PUSH2 0x82F JUMPI PUSH4 0x4E487B71 PUSH1 0xE0 SHL PUSH1 0x0 MSTORE PUSH1 0x41 PUSH1 0x4 MSTORE PUSH1 0x24 PUSH1 0x0 REVERT JUMPDEST PUSH1 0x40 MSTORE PUSH2 0x83B DUP4 PUSH2 0x727 JUMP JUMPDEST DUP2 MSTORE SWAP4 SWAP3 POP POP POP JUMP JUMPDEST PUSH1 0x0 PUSH1 0x20 DUP3 DUP5 SUB SLT ISZERO PUSH2 0x856 JUMPI PUSH1 0x0 DUP1 REVERT JUMPDEST PUSH2 0x85F DUP3 PUSH2 0x727 JUMP JUMPDEST SWAP4 SWAP3 POP POP POP JUMP INVALID LOG2 PUSH5 0x6970667358 0x22 SLT KECCAK256 POP JUMP 0xF9 DUP7 PUSH18 0xFBB0111A5481E22563EAEAF9189BF068088E 0xD1 0x28 0x2A SLT 0xFC BALANCE 0xA7 0x24 CALL PUSH5 0x736F6C6343 STOP ADDMOD SLT STOP CALLER PUSH1 0x80 PUSH1 0x40 MSTORE CALLVALUE DUP1 ISZERO PUSH3 0x11 JUMPI PUSH1 0x0 DUP1 REVERT JUMPDEST POP PUSH1 0x40 MLOAD PUSH3 0xD41 CODESIZE SUB DUP1 PUSH3 0xD41 DUP4 CODECOPY DUP2 ADD PUSH1 0x40 DUP2 SWAP1 MSTORE PUSH3 0x34 SWAP2 PUSH3 0x350 JUMP JUMPDEST PUSH1 0x0 PUSH3 0x42 DUP6 DUP6 PUSH3 0x418 JUMP JUMPDEST SWAP1 POP PUSH3 0x93A80 PUSH3 0x530E80 DUP2 DUP6 LT ISZERO PUSH3 0x5A JUMPI PUSH1 0x0 DUP1 REVERT JUMPDEST DUP1 DUP4 LT ISZERO PUSH3 0x68 JUMPI PUSH1 0x0 DUP1 REVERT JUMPDEST PUSH1 0x40 DUP1 MLOAD PUSH1 0xA0 DUP2 ADD DUP3 MSTORE DUP9 DUP2 MSTORE PUSH1 0x20 DUP1 DUP3 ADD DUP10 DUP2 MSTORE SWAP3 DUP3 ADD DUP9 DUP2 MSTORE DUP8 ISZERO ISZERO PUSH1 0x60 DUP5 ADD SWAP1 DUP2 MSTORE PUSH1 0x0 PUSH1 0x80 DUP6 ADD DUP2 DUP2 MSTORE DUP2 DUP1 MSTORE PUSH1 0x7 SWAP1 SWAP5 MSTORE SWAP4 MLOAD PUSH32 0x6D5257204EBE7D88FD91AE87941CB2DD9D8062B64AE5A2BD2D28EC40B9FBF6DF SSTORE SWAP4 MLOAD PUSH32 0x6D5257204EBE7D88FD91AE87941CB2DD9D8062B64AE5A2BD2D28EC40B9FBF6E0 SSTORE MLOAD PUSH32 0x6D5257204EBE7D88FD91AE87941CB2DD9D8062B64AE5A2BD2D28EC40B9FBF6E1 SSTORE SWAP2 MLOAD PUSH1 0x0 DUP1 MLOAD PUSH1 0x20 PUSH3 0xD21 DUP4 CODECOPY DUP2 MLOAD SWAP2 MSTORE DUP1 SLOAD SWAP4 MLOAD ISZERO ISZERO PUSH2 0x100 MUL PUSH2 0xFF00 NOT SWAP3 ISZERO ISZERO SWAP3 SWAP1 SWAP3 AND PUSH2 0xFFFF NOT SWAP1 SWAP5 AND SWAP4 SWAP1 SWAP4 OR OR SWAP1 SWAP2 SSTORE DUP6 SWAP1 SUB PUSH3 0x16E JUMPI PUSH1 0x0 DUP1 MSTORE PUSH1 0x7 PUSH1 0x20 MSTORE PUSH1 0x0 DUP1 MLOAD PUSH1 0x20 PUSH3 0xD21 DUP4 CODECOPY DUP2 MLOAD SWAP2 MSTORE DUP1 SLOAD PUSH2 0xFF00 NOT AND PUSH2 0x100 OR SWAP1 SSTORE JUMPDEST PUSH1 0x1 PUSH1 0x1 PUSH1 0xA0 SHL SUB DUP12 AND PUSH3 0x182 JUMPI PUSH1 0x0 DUP1 REVERT JUMPDEST PUSH1 0x1 PUSH1 0x1 PUSH1 0xA0 SHL SUB DUP11 AND PUSH3 0x196 JUMPI PUSH1 0x0 DUP1 REVERT JUMPDEST PUSH1 0x0 DUP1 SLOAD PUSH2 0x100 PUSH1 0x1 PUSH1 0xA8 SHL SUB NOT AND PUSH2 0x100 PUSH1 0x1 PUSH1 0x1 PUSH1 0xA0 SHL SUB DUP15 DUP2 AND SWAP2 SWAP1 SWAP2 MUL SWAP2 SWAP1 SWAP2 OR SWAP1 SWAP2 SSTORE PUSH1 0x1 DUP1 SLOAD PUSH1 0x1 PUSH1 0x1 PUSH1 0xA0 SHL SUB NOT AND SWAP2 DUP13 AND SWAP2 SWAP1 SWAP2 OR SWAP1 SSTORE PUSH1 0x3 PUSH3 0x1E3 DUP11 DUP3 PUSH3 0x4CF JUMP JUMPDEST POP PUSH1 0x4 PUSH3 0x1F2 DUP10 DUP3 PUSH3 0x4CF JUMP JUMPDEST POP TIMESTAMP PUSH1 0x5 DUP2 SWAP1 SSTORE POP DUP10 PUSH1 0x1 PUSH1 0x1 PUSH1 0xA0 SHL SUB AND DUP12 PUSH1 0x1 PUSH1 0x1 PUSH1 0xA0 SHL SUB AND PUSH32 0xA9791D0B29CAE9F1171EEB4160F282930CA6A1EE4F5D2760FDB5BEE857B6057E DUP12 DUP12 PUSH1 0x5 SLOAD DUP13 DUP13 DUP13 DUP13 PUSH1 0x40 MLOAD PUSH3 0x24D SWAP8 SWAP7 SWAP6 SWAP5 SWAP4 SWAP3 SWAP2 SWAP1 PUSH3 0x5C9 JUMP JUMPDEST PUSH1 0x40 MLOAD DUP1 SWAP2 SUB SWAP1 LOG3 POP POP POP POP POP POP POP POP POP POP POP PUSH3 0x61F JUMP JUMPDEST DUP1 MLOAD PUSH1 0x1 PUSH1 0x1 PUSH1 0xA0 SHL SUB DUP2 AND DUP2 EQ PUSH3 0x27E JUMPI PUSH1 0x0 DUP1 REVERT JUMPDEST SWAP2 SWAP1 POP JUMP JUMPDEST PUSH4 0x4E487B71 PUSH1 0xE0 SHL PUSH1 0x0 MSTORE PUSH1 0x41 PUSH1 0x4 MSTORE PUSH1 0x24 PUSH1 0x0 REVERT JUMPDEST PUSH1 0x0 JUMPDEST DUP4 DUP2 LT ISZERO PUSH3 0x2B6 JUMPI DUP2 DUP2 ADD MLOAD DUP4 DUP3 ADD MSTORE PUSH1 0x20 ADD PUSH3 0x29C JUMP JUMPDEST POP POP PUSH1 0x0 SWAP2 ADD MSTORE JUMP JUMPDEST PUSH1 0x0 DUP3 PUSH1 0x1F DUP4 ADD SLT PUSH3 0x2D1 JUMPI PUSH1 0x0 DUP1 REVERT JUMPDEST DUP2 MLOAD PUSH1 0x1 PUSH1 0x1 PUSH1 0x40 SHL SUB DUP1 DUP3 GT ISZERO PUSH3 0x2EE JUMPI PUSH3 0x2EE PUSH3 0x283 JUMP JUMPDEST PUSH1 0x40 MLOAD PUSH1 0x1F DUP4 ADD PUSH1 0x1F NOT SWAP1 DUP2 AND PUSH1 0x3F ADD AND DUP2 ADD SWAP1 DUP3 DUP3 GT DUP2 DUP4 LT OR ISZERO PUSH3 0x319 JUMPI PUSH3 0x319 PUSH3 0x283 JUMP JUMPDEST DUP2 PUSH1 0x40 MSTORE DUP4 DUP2 MSTORE DUP7 PUSH1 0x20 DUP6 DUP9 ADD ADD GT ISZERO PUSH3 0x333 JUMPI PUSH1 0x0 DUP1 REVERT JUMPDEST PUSH3 0x346 DUP5 PUSH1 0x20 DUP4 ADD PUSH1 0x20 DUP10 ADD PUSH3 0x299 JUMP JUMPDEST SWAP7 SWAP6 POP POP POP POP POP POP JUMP JUMPDEST PUSH1 0x0 DUP1 PUSH1 0x0 DUP1 PUSH1 0x0 DUP1 PUSH1 0x0 DUP1 PUSH2 0x100 DUP10 DUP12 SUB SLT ISZERO PUSH3 0x36E JUMPI PUSH1 0x0 DUP1 REVERT JUMPDEST PUSH3 0x379 DUP10 PUSH3 0x266 JUMP JUMPDEST SWAP8 POP PUSH3 0x389 PUSH1 0x20 DUP11 ADD PUSH3 0x266 JUMP JUMPDEST PUSH1 0x40 DUP11 ADD MLOAD SWAP1 SWAP8 POP PUSH1 0x1 PUSH1 0x1 PUSH1 0x40 SHL SUB DUP1 DUP3 GT ISZERO PUSH3 0x3A7 JUMPI PUSH1 0x0 DUP1 REVERT JUMPDEST PUSH3 0x3B5 DUP13 DUP4 DUP14 ADD PUSH3 0x2BF JUMP JUMPDEST SWAP8 POP PUSH1 0x60 DUP12 ADD MLOAD SWAP2 POP DUP1 DUP3 GT ISZERO PUSH3 0x3CC JUMPI PUSH1 0x0 DUP1 REVERT JUMPDEST POP PUSH3 0x3DB DUP12 DUP3 DUP13 ADD PUSH3 0x2BF JUMP JUMPDEST SWAP6 POP POP PUSH1 0x80 DUP10 ADD MLOAD SWAP4 POP PUSH1 0xA0 DUP10 ADD MLOAD SWAP3 POP PUSH1 0xC0 DUP10 ADD MLOAD SWAP2 POP PUSH1 0xE0 DUP10 ADD MLOAD DUP1 ISZERO ISZERO DUP2 EQ PUSH3 0x407 JUMPI PUSH1 0x0 DUP1 REVERT JUMPDEST DUP1 SWAP2 POP POP SWAP3 SWAP6 SWAP9 POP SWAP3 SWAP6 SWAP9 SWAP1 SWAP4 SWAP7 POP JUMP JUMPDEST DUP2 DUP2 SUB DUP2 DUP2 GT ISZERO PUSH3 0x43A JUMPI PUSH4 0x4E487B71 PUSH1 0xE0 SHL PUSH1 0x0 MSTORE PUSH1 0x11 PUSH1 0x4 MSTORE PUSH1 0x24 PUSH1 0x0 REVERT JUMPDEST SWAP3 SWAP2 POP POP JUMP JUMPDEST PUSH1 0x1 DUP2 DUP2 SHR SWAP1 DUP3 AND DUP1 PUSH3 0x455 JUMPI PUSH1 0x7F DUP3 AND SWAP2 POP JUMPDEST PUSH1 0x20 DUP3 LT DUP2 SUB PUSH3 0x476 JUMPI PUSH4 0x4E487B71 PUSH1 0xE0 SHL PUSH1 0x0 MSTORE PUSH1 0x22 PUSH1 0x4 MSTORE PUSH1 0x24 PUSH1 0x0 REVERT JUMPDEST POP SWAP2 SWAP1 POP JUMP JUMPDEST PUSH1 0x1F DUP3 GT ISZERO PUSH3 0x4CA JUMPI PUSH1 0x0 DUP2 DUP2 MSTORE PUSH1 0x20 DUP2 KECCAK256 PUSH1 0x1F DUP6 ADD PUSH1 0x5 SHR DUP2 ADD PUSH1 0x20 DUP7 LT ISZERO PUSH3 0x4A5 JUMPI POP DUP1 JUMPDEST PUSH1 0x1F DUP6 ADD PUSH1 0x5 SHR DUP3 ADD SWAP2 POP JUMPDEST DUP2 DUP2 LT ISZERO PUSH3 0x4C6 JUMPI DUP3 DUP2 SSTORE PUSH1 0x1 ADD PUSH3 0x4B1 JUMP JUMPDEST POP POP POP JUMPDEST POP POP POP JUMP JUMPDEST DUP2 MLOAD PUSH1 0x1 PUSH1 0x1 PUSH1 0x40 SHL SUB DUP2 GT ISZERO PUSH3 0x4EB JUMPI PUSH3 0x4EB PUSH3 0x283 JUMP JUMPDEST PUSH3 0x503 DUP2 PUSH3 0x4FC DUP5 SLOAD PUSH3 0x440 JUMP JUMPDEST DUP5 PUSH3 0x47C JUMP JUMPDEST PUSH1 0x20 DUP1 PUSH1 0x1F DUP4 GT PUSH1 0x1 DUP2 EQ PUSH3 0x53B JUMPI PUSH1 0x0 DUP5 ISZERO PUSH3 0x522 JUMPI POP DUP6 DUP4 ADD MLOAD JUMPDEST PUSH1 0x0 NOT PUSH1 0x3 DUP7 SWAP1 SHL SHR NOT AND PUSH1 0x1 DUP6 SWAP1 SHL OR DUP6 SSTORE PUSH3 0x4C6 JUMP JUMPDEST PUSH1 0x0 DUP6 DUP2 MSTORE PUSH1 0x20 DUP2 KECCAK256 PUSH1 0x1F NOT DUP7 AND SWAP2 JUMPDEST DUP3 DUP2 LT ISZERO PUSH3 0x56C JUMPI DUP9 DUP7 ADD MLOAD DUP3 SSTORE SWAP5 DUP5 ADD SWAP5 PUSH1 0x1 SWAP1 SWAP2 ADD SWAP1 DUP5 ADD PUSH3 0x54B JUMP JUMPDEST POP DUP6 DUP3 LT ISZERO PUSH3 0x58B JUMPI DUP8 DUP6 ADD MLOAD PUSH1 0x0 NOT PUSH1 0x3 DUP9 SWAP1 SHL PUSH1 0xF8 AND SHR NOT AND DUP2 SSTORE JUMPDEST POP POP POP POP POP PUSH1 0x1 SWAP1 DUP2 SHL ADD SWAP1 SSTORE POP JUMP JUMPDEST PUSH1 0x0 DUP2 MLOAD DUP1 DUP5 MSTORE PUSH3 0x5B5 DUP2 PUSH1 0x20 DUP7 ADD PUSH1 0x20 DUP7 ADD PUSH3 0x299 JUMP JUMPDEST PUSH1 0x1F ADD PUSH1 0x1F NOT AND SWAP3 SWAP1 SWAP3 ADD PUSH1 0x20 ADD SWAP3 SWAP2 POP POP JUMP JUMPDEST PUSH1 0xE0 DUP2 MSTORE PUSH1 0x0 PUSH3 0x5DE PUSH1 0xE0 DUP4 ADD DUP11 PUSH3 0x59B JUMP JUMPDEST DUP3 DUP2 SUB PUSH1 0x20 DUP5 ADD MSTORE PUSH3 0x5F2 DUP2 DUP11 PUSH3 0x59B JUMP JUMPDEST PUSH1 0x40 DUP5 ADD SWAP9 SWAP1 SWAP9 MSTORE POP POP PUSH1 0x60 DUP2 ADD SWAP5 SWAP1 SWAP5 MSTORE PUSH1 0x80 DUP5 ADD SWAP3 SWAP1 SWAP3 MSTORE PUSH1 0xA0 DUP4 ADD MSTORE ISZERO ISZERO PUSH1 0xC0 SWAP1 SWAP2 ADD MSTORE SWAP3 SWAP2 POP POP JUMP JUMPDEST PUSH2 0x6F2 DUP1 PUSH3 0x62F PUSH1 0x0 CODECOPY PUSH1 0x0 RETURN INVALID PUSH1 0x80 PUSH1 0x40 MSTORE PUSH1 0x4 CALLDATASIZE LT PUSH2 0x59 JUMPI PUSH1 0x0 CALLDATALOAD PUSH1 0xE0 SHR DUP1 PUSH4 0x923FE94 EQ PUSH2 0xC0 JUMPI DUP1 PUSH4 0x24A5AF31 EQ PUSH2 0x12A JUMPI DUP1 PUSH4 0x2E1A7D4D EQ PUSH2 0x14C JUMPI DUP1 PUSH4 0x90B410AF EQ PUSH2 0x16C JUMPI DUP1 PUSH4 0xB9761101 EQ PUSH2 0x19C JUMPI DUP1 PUSH4 0xDD12776A EQ PUSH2 0x202 JUMPI PUSH1 0x0 DUP1 REVERT JUMPDEST CALLDATASIZE PUSH2 0xBB JUMPI PUSH1 0x0 SLOAD PUSH2 0x100 SWAP1 DIV PUSH1 0x1 PUSH1 0x1 PUSH1 0xA0 SHL SUB AND CALLER EQ PUSH2 0x7A JUMPI PUSH1 0x0 DUP1 REVERT JUMPDEST PUSH1 0x40 DUP1 MLOAD CALLER DUP1 DUP3 MSTORE CALLVALUE PUSH1 0x20 DUP4 ADD DUP2 SWAP1 MSTORE SWAP1 SWAP3 SWAP1 SWAP2 PUSH32 0xE1FFFCC4923D04B559F4D29A8BFC6CDA04EB5B0D3C460751C2402C5C5CC9109C SWAP2 ADD PUSH1 0x40 MLOAD DUP1 SWAP2 SUB SWAP1 LOG1 STOP JUMPDEST PUSH1 0x0 DUP1 REVERT JUMPDEST CALLVALUE DUP1 ISZERO PUSH2 0xCC JUMPI PUSH1 0x0 DUP1 REVERT JUMPDEST POP PUSH2 0x114 PUSH2 0xDB CALLDATASIZE PUSH1 0x4 PUSH2 0x4FB JUMP JUMPDEST PUSH1 0x40 DUP1 MLOAD PUSH1 0x20 DUP1 DUP3 ADD DUP4 MSTORE PUSH1 0x0 SWAP2 DUP3 SWAP1 MSTORE PUSH1 0x1 PUSH1 0x1 PUSH1 0xA0 SHL SUB SWAP4 SWAP1 SWAP4 AND DUP2 MSTORE PUSH1 0x6 DUP4 MSTORE DUP2 SWAP1 KECCAK256 DUP2 MLOAD SWAP3 DUP4 ADD SWAP1 SWAP2 MSTORE SLOAD PUSH1 0xFF AND ISZERO ISZERO DUP2 MSTORE SWAP1 JUMP JUMPDEST PUSH1 0x40 MLOAD SWAP1 MLOAD ISZERO ISZERO DUP2 MSTORE PUSH1 0x20 ADD JUMPDEST PUSH1 0x40 MLOAD DUP1 SWAP2 SUB SWAP1 RETURN JUMPDEST CALLVALUE DUP1 ISZERO PUSH2 0x136 JUMPI PUSH1 0x0 DUP1 REVERT JUMPDEST POP PUSH2 0x14A PUSH2 0x145 CALLDATASIZE PUSH1 0x4 PUSH2 0x51D JUMP JUMPDEST PUSH2 0x222 JUMP JUMPDEST STOP JUMPDEST CALLVALUE DUP1 ISZERO PUSH2 0x158 JUMPI PUSH1 0x0 DUP1 REVERT JUMPDEST POP PUSH2 0x14A PUSH2 0x167 CALLDATASIZE PUSH1 0x4 PUSH2 0x547 JUMP JUMPDEST PUSH2 0x2C6 JUMP JUMPDEST CALLVALUE DUP1 ISZERO PUSH2 0x178 JUMPI PUSH1 0x0 DUP1 REVERT JUMPDEST POP PUSH2 0x18C PUSH2 0x187 CALLDATASIZE PUSH1 0x4 PUSH2 0x571 JUMP JUMPDEST PUSH2 0x369 JUMP JUMPDEST PUSH1 0x40 MLOAD SWAP1 ISZERO ISZERO DUP2 MSTORE PUSH1 0x20 ADD PUSH2 0x121 JUMP JUMPDEST CALLVALUE DUP1 ISZERO PUSH2 0x1A8 JUMPI PUSH1 0x0 DUP1 REVERT JUMPDEST POP PUSH2 0x1BC PUSH2 0x1B7 CALLDATASIZE PUSH1 0x4 PUSH2 0x547 JUMP JUMPDEST PUSH2 0x3B4 JUMP JUMPDEST PUSH1 0x40 MLOAD PUSH2 0x121 SWAP2 SWAP1 PUSH1 0x0 PUSH1 0xA0 DUP3 ADD SWAP1 POP DUP3 MLOAD DUP3 MSTORE PUSH1 0x20 DUP4 ADD MLOAD PUSH1 0x20 DUP4 ADD MSTORE PUSH1 0x40 DUP4 ADD MLOAD PUSH1 0x40 DUP4 ADD MSTORE PUSH1 0x60 DUP4 ADD MLOAD ISZERO ISZERO PUSH1 0x60 DUP4 ADD MSTORE PUSH1 0x80 DUP4 ADD MLOAD ISZERO ISZERO PUSH1 0x80 DUP4 ADD MSTORE SWAP3 SWAP2 POP POP JUMP JUMPDEST CALLVALUE DUP1 ISZERO PUSH2 0x20E JUMPI PUSH1 0x0 DUP1 REVERT JUMPDEST POP PUSH2 0x18C PUSH2 0x21D CALLDATASIZE PUSH1 0x4 PUSH2 0x5F2 JUMP JUMPDEST PUSH2 0x444 JUMP JUMPDEST PUSH1 0x0 SLOAD PUSH2 0x100 SWAP1 DIV PUSH1 0x1 PUSH1 0x1 PUSH1 0xA0 SHL SUB AND CALLER EQ PUSH2 0x23E JUMPI PUSH1 0x0 DUP1 REVERT JUMPDEST PUSH1 0x0 SLOAD PUSH1 0x40 MLOAD PUSH4 0xA9059CBB PUSH1 0xE0 SHL DUP2 MSTORE PUSH2 0x100 SWAP1 SWAP2 DIV PUSH1 0x1 PUSH1 0x1 PUSH1 0xA0 SHL SUB SWAP1 DUP2 AND PUSH1 0x4 DUP4 ADD DUP2 SWAP1 MSTORE PUSH1 0x24 DUP4 ADD DUP5 SWAP1 MSTORE SWAP2 DUP5 SWAP2 DUP3 AND SWAP1 PUSH4 0xA9059CBB SWAP1 PUSH1 0x44 ADD PUSH1 0x20 PUSH1 0x40 MLOAD DUP1 DUP4 SUB DUP2 PUSH1 0x0 DUP8 GAS CALL ISZERO DUP1 ISZERO PUSH2 0x29B JUMPI RETURNDATASIZE PUSH1 0x0 DUP1 RETURNDATACOPY RETURNDATASIZE PUSH1 0x0 REVERT JUMPDEST POP POP POP POP PUSH1 0x40 MLOAD RETURNDATASIZE PUSH1 0x1F NOT PUSH1 0x1F DUP3 ADD AND DUP3 ADD DUP1 PUSH1 0x40 MSTORE POP DUP2 ADD SWAP1 PUSH2 0x2BF SWAP2 SWAP1 PUSH2 0x69F JUMP JUMPDEST POP POP POP POP POP JUMP JUMPDEST PUSH1 0x0 SLOAD PUSH2 0x100 SWAP1 DIV PUSH1 0x1 PUSH1 0x1 PUSH1 0xA0 SHL SUB AND CALLER EQ PUSH2 0x2E2 JUMPI PUSH1 0x0 DUP1 REVERT JUMPDEST PUSH1 0x0 DUP1 SLOAD PUSH1 0x40 MLOAD PUSH2 0x100 SWAP1 SWAP2 DIV PUSH1 0x1 PUSH1 0x1 PUSH1 0xA0 SHL SUB AND SWAP2 DUP3 SWAP2 PUSH2 0x8FC DUP6 ISZERO MUL SWAP2 DUP6 SWAP2 SWAP1 DUP2 DUP2 DUP2 DUP6 DUP9 DUP9 CALL SWAP4 POP POP POP POP ISZERO DUP1 ISZERO PUSH2 0x322 JUMPI RETURNDATASIZE PUSH1 0x0 DUP1 RETURNDATACOPY RETURNDATASIZE PUSH1 0x0 REVERT JUMPDEST POP PUSH1 0x40 DUP1 MLOAD PUSH1 0x1 PUSH1 0x1 PUSH1 0xA0 SHL SUB DUP4 AND DUP2 MSTORE PUSH1 0x20 DUP2 ADD DUP5 SWAP1 MSTORE PUSH32 0x884EDAD9CE6FA2440D8A54CC123490EB96D2768479D49FF9C7366125A9424364 SWAP2 ADD PUSH1 0x40 MLOAD DUP1 SWAP2 SUB SWAP1 LOG1 POP POP JUMP JUMPDEST PUSH1 0x0 DUP1 SLOAD PUSH2 0x100 SWAP1 DIV PUSH1 0x1 PUSH1 0x1 PUSH1 0xA0 SHL SUB AND CALLER EQ PUSH2 0x386 JUMPI PUSH1 0x0 DUP1 REVERT JUMPDEST POP PUSH1 0x1 PUSH1 0x1 PUSH1 0xA0 SHL SUB SWAP2 SWAP1 SWAP2 AND PUSH1 0x0 SWAP1 DUP2 MSTORE PUSH1 0x6 PUSH1 0x20 MSTORE PUSH1 0x40 SWAP1 KECCAK256 SWAP1 MLOAD DUP2 SLOAD PUSH1 0xFF NOT AND SWAP1 ISZERO ISZERO OR SWAP1 SSTORE PUSH1 0x1 SWAP1 JUMP JUMPDEST PUSH2 0x3EA PUSH1 0x40 MLOAD DUP1 PUSH1 0xA0 ADD PUSH1 0x40 MSTORE DUP1 PUSH1 0x0 DUP2 MSTORE PUSH1 0x20 ADD PUSH1 0x0 DUP2 MSTORE PUSH1 0x20 ADD PUSH1 0x0 DUP2 MSTORE PUSH1 0x20 ADD PUSH1 0x0 ISZERO ISZERO DUP2 MSTORE PUSH1 0x20 ADD PUSH1 0x0 ISZERO ISZERO DUP2 MSTORE POP SWAP1 JUMP JUMPDEST POP PUSH1 0x0 SWAP1 DUP2 MSTORE PUSH1 0x7 PUSH1 0x20 SWAP1 DUP2 MSTORE PUSH1 0x40 SWAP2 DUP3 SWAP1 KECCAK256 DUP3 MLOAD PUSH1 0xA0 DUP2 ADD DUP5 MSTORE DUP2 SLOAD DUP2 MSTORE PUSH1 0x1 DUP3 ADD SLOAD SWAP3 DUP2 ADD SWAP3 SWAP1 SWAP3 MSTORE PUSH1 0x2 DUP2 ADD SLOAD SWAP3 DUP3 ADD SWAP3 SWAP1 SWAP3 MSTORE PUSH1 0x3 SWAP1 SWAP2 ADD SLOAD PUSH1 0xFF DUP1 DUP3 AND ISZERO ISZERO PUSH1 0x60 DUP5 ADD MSTORE PUSH2 0x100 SWAP1 SWAP2 DIV AND ISZERO ISZERO PUSH1 0x80 DUP3 ADD MSTORE SWAP1 JUMP JUMPDEST PUSH1 0x0 DUP1 SLOAD PUSH2 0x100 SWAP1 DIV PUSH1 0x1 PUSH1 0x1 PUSH1 0xA0 SHL SUB AND CALLER EQ PUSH2 0x461 JUMPI PUSH1 0x0 DUP1 REVERT JUMPDEST PUSH1 0x0 DUP4 DUP2 MSTORE PUSH1 0x7 PUSH1 0x20 MSTORE PUSH1 0x40 SWAP1 KECCAK256 SLOAD TIMESTAMP GT ISZERO PUSH2 0x47C JUMPI PUSH1 0x0 DUP1 REVERT JUMPDEST POP PUSH1 0x0 DUP3 DUP2 MSTORE PUSH1 0x7 PUSH1 0x20 SWAP1 DUP2 MSTORE PUSH1 0x40 SWAP2 DUP3 SWAP1 KECCAK256 DUP4 MLOAD DUP2 SSTORE SWAP1 DUP4 ADD MLOAD PUSH1 0x1 DUP1 DUP4 ADD SWAP2 SWAP1 SWAP2 SSTORE SWAP2 DUP4 ADD MLOAD PUSH1 0x2 DUP3 ADD SSTORE PUSH1 0x60 DUP4 ADD MLOAD PUSH1 0x3 SWAP1 SWAP2 ADD DUP1 SLOAD PUSH1 0x80 DUP6 ADD MLOAD ISZERO ISZERO PUSH2 0x100 MUL PUSH2 0xFF00 NOT SWAP4 ISZERO ISZERO SWAP4 SWAP1 SWAP4 AND PUSH2 0xFFFF NOT SWAP1 SWAP2 AND OR SWAP2 SWAP1 SWAP2 OR SWAP1 SSTORE SWAP3 SWAP2 POP POP JUMP JUMPDEST DUP1 CALLDATALOAD PUSH1 0x1 PUSH1 0x1 PUSH1 0xA0 SHL SUB DUP2 AND DUP2 EQ PUSH2 0x4F6 JUMPI PUSH1 0x0 DUP1 REVERT JUMPDEST SWAP2 SWAP1 POP JUMP JUMPDEST PUSH1 0x0 PUSH1 0x20 DUP3 DUP5 SUB SLT ISZERO PUSH2 0x50D JUMPI PUSH1 0x0 DUP1 REVERT JUMPDEST PUSH2 0x516 DUP3 PUSH2 0x4DF JUMP JUMPDEST SWAP4 SWAP3 POP POP POP JUMP JUMPDEST PUSH1 0x0 DUP1 PUSH1 0x40 DUP4 DUP6 SUB SLT ISZERO PUSH2 0x530 JUMPI PUSH1 0x0 DUP1 REVERT JUMPDEST PUSH2 0x539 DUP4 PUSH2 0x4DF JUMP JUMPDEST SWAP5 PUSH1 0x20 SWAP4 SWAP1 SWAP4 ADD CALLDATALOAD SWAP4 POP POP POP JUMP JUMPDEST PUSH1 0x0 PUSH1 0x20 DUP3 DUP5 SUB SLT ISZERO PUSH2 0x559 JUMPI PUSH1 0x0 DUP1 REVERT JUMPDEST POP CALLDATALOAD SWAP2 SWAP1 POP JUMP JUMPDEST DUP1 ISZERO ISZERO DUP2 EQ PUSH2 0x56E JUMPI PUSH1 0x0 DUP1 REVERT JUMPDEST POP JUMP JUMPDEST PUSH1 0x0 DUP1 DUP3 DUP5 SUB PUSH1 0x40 DUP2 SLT ISZERO PUSH2 0x585 JUMPI PUSH1 0x0 DUP1 REVERT JUMPDEST PUSH2 0x58E DUP5 PUSH2 0x4DF JUMP JUMPDEST SWAP3 POP PUSH1 0x20 PUSH1 0x1F NOT DUP3 ADD SLT ISZERO PUSH2 0x5A2 JUMPI PUSH1 0x0 DUP1 REVERT JUMPDEST POP PUSH1 0x40 MLOAD PUSH1 0x20 DUP2 ADD DUP2 DUP2 LT PUSH8 0xFFFFFFFFFFFFFFFF DUP3 GT OR ISZERO PUSH2 0x5D4 JUMPI PUSH4 0x4E487B71 PUSH1 0xE0 SHL PUSH1 0x0 MSTORE PUSH1 0x41 PUSH1 0x4 MSTORE PUSH1 0x24 PUSH1 0x0 REVERT JUMPDEST PUSH1 0x40 MSTORE PUSH1 0x20 DUP5 ADD CALLDATALOAD PUSH2 0x5E5 DUP2 PUSH2 0x560 JUMP JUMPDEST DUP2 MSTORE SWAP2 SWAP5 SWAP2 SWAP4 POP SWAP1 SWAP2 POP POP JUMP JUMPDEST PUSH1 0x0 DUP1 DUP3 DUP5 SUB PUSH1 0xC0 DUP2 SLT ISZERO PUSH2 0x606 JUMPI PUSH1 0x0 DUP1 REVERT JUMPDEST DUP4 CALLDATALOAD SWAP3 POP PUSH1 0xA0 PUSH1 0x1F NOT DUP3 ADD SLT ISZERO PUSH2 0x61C JUMPI PUSH1 0x0 DUP1 REVERT JUMPDEST POP PUSH1 0x40 MLOAD PUSH1 0xA0 DUP2 ADD DUP2 DUP2 LT PUSH8 0xFFFFFFFFFFFFFFFF DUP3 GT OR ISZERO PUSH2 0x64E JUMPI PUSH4 0x4E487B71 PUSH1 0xE0 SHL PUSH1 0x0 MSTORE PUSH1 0x41 PUSH1 0x4 MSTORE PUSH1 0x24 PUSH1 0x0 REVERT JUMPDEST DUP1 PUSH1 0x40 MSTORE POP PUSH1 0x20 DUP5 ADD CALLDATALOAD DUP2 MSTORE PUSH1 0x40 DUP5 ADD CALLDATALOAD PUSH1 0x20 DUP3 ADD MSTORE PUSH1 0x60 DUP5 ADD CALLDATALOAD PUSH1 0x40 DUP3 ADD MSTORE PUSH1 0x80 DUP5 ADD CALLDATALOAD PUSH2 0x67C DUP2 PUSH2 0x560 JUMP JUMPDEST PUSH1 0x60 DUP3 ADD MSTORE PUSH1 0xA0 DUP5 ADD CALLDATALOAD PUSH2 0x68F DUP2 PUSH2 0x560 JUMP JUMPDEST PUSH1 0x80 DUP3 ADD MSTORE SWAP2 SWAP5 SWAP2 SWAP4 POP SWAP1 SWAP2 POP POP JUMP JUMPDEST PUSH1 0x0 PUSH1 0x20 DUP3 DUP5 SUB SLT ISZERO PUSH2 0x6B1 JUMPI PUSH1 0x0 DUP1 REVERT JUMPDEST DUP2 MLOAD PUSH2 0x516 DUP2 PUSH2 0x560 JUMP INVALID LOG2 PUSH5 0x6970667358 0x22 SLT KECCAK256 AND SUB 0xD0 0xDC DUP10 CALL 0xBD DUP5 SWAP15 CALLER PUSH20 0x3D0727E4B4C00DBD2776E4F310E7E5C7154FC420 0xE0 PUSH5 0x736F6C6343 STOP ADDMOD SLT STOP CALLER PUSH14 0x5257204EBE7D88FD91AE87941CB2 0xDD SWAP14 DUP1 PUSH3 0xB64AE5 LOG2 0xBD 0x2D 0x28 0xEC BLOCKHASH 0xB9 0xFB 0xF6 0xE2 PUSH1 0x80 PUSH1 0x40 MSTORE CALLVALUE DUP1 ISZERO PUSH3 0x11 JUMPI PUSH1 0x0 DUP1 REVERT JUMPDEST POP PUSH1 0x40 MLOAD PUSH3 0xB6A CODESIZE SUB DUP1 PUSH3 0xB6A DUP4 CODECOPY DUP2 ADD PUSH1 0x40 DUP2 SWAP1 MSTORE PUSH3 0x34 SWAP2 PUSH3 0x146 JUMP JUMPDEST PUSH1 0x12 DUP2 PUSH1 0xFF AND GT ISZERO PUSH3 0x46 JUMPI PUSH1 0x0 DUP1 REVERT JUMPDEST PUSH1 0x0 PUSH3 0x54 DUP5 DUP3 PUSH3 0x25A JUMP JUMPDEST POP PUSH1 0x1 PUSH3 0x63 DUP4 DUP3 PUSH3 0x25A JUMP JUMPDEST POP PUSH1 0x2 DUP1 SLOAD PUSH1 0xFF NOT AND PUSH1 0xFF SWAP3 SWAP1 SWAP3 AND SWAP2 SWAP1 SWAP2 OR SWAP1 SSTORE POP PUSH3 0x326 SWAP1 POP JUMP JUMPDEST PUSH4 0x4E487B71 PUSH1 0xE0 SHL PUSH1 0x0 MSTORE PUSH1 0x41 PUSH1 0x4 MSTORE PUSH1 0x24 PUSH1 0x0 REVERT JUMPDEST PUSH1 0x0 DUP3 PUSH1 0x1F DUP4 ADD SLT PUSH3 0xA9 JUMPI PUSH1 0x0 DUP1 REVERT JUMPDEST DUP2 MLOAD PUSH1 0x1 PUSH1 0x1 PUSH1 0x40 SHL SUB DUP1 DUP3 GT ISZERO PUSH3 0xC6 JUMPI PUSH3 0xC6 PUSH3 0x81 JUMP JUMPDEST PUSH1 0x40 MLOAD PUSH1 0x1F DUP4 ADD PUSH1 0x1F NOT SWAP1 DUP2 AND PUSH1 0x3F ADD AND DUP2 ADD SWAP1 DUP3 DUP3 GT DUP2 DUP4 LT OR ISZERO PUSH3 0xF1 JUMPI PUSH3 0xF1 PUSH3 0x81 JUMP JUMPDEST DUP2 PUSH1 0x40 MSTORE DUP4 DUP2 MSTORE PUSH1 0x20 SWAP3 POP DUP7 DUP4 DUP6 DUP9 ADD ADD GT ISZERO PUSH3 0x10E JUMPI PUSH1 0x0 DUP1 REVERT JUMPDEST PUSH1 0x0 SWAP2 POP JUMPDEST DUP4 DUP3 LT ISZERO PUSH3 0x132 JUMPI DUP6 DUP3 ADD DUP4 ADD MLOAD DUP2 DUP4 ADD DUP5 ADD MSTORE SWAP1 DUP3 ADD SWAP1 PUSH3 0x113 JUMP JUMPDEST PUSH1 0x0 SWAP4 DUP2 ADD SWAP1 SWAP3 ADD SWAP3 SWAP1 SWAP3 MSTORE SWAP5 SWAP4 POP POP POP POP JUMP JUMPDEST PUSH1 0x0 DUP1 PUSH1 0x0 PUSH1 0x60 DUP5 DUP7 SUB SLT ISZERO PUSH3 0x15C JUMPI PUSH1 0x0 DUP1 REVERT JUMPDEST DUP4 MLOAD PUSH1 0x1 PUSH1 0x1 PUSH1 0x40 SHL SUB DUP1 DUP3 GT ISZERO PUSH3 0x174 JUMPI PUSH1 0x0 DUP1 REVERT JUMPDEST PUSH3 0x182 DUP8 DUP4 DUP9 ADD PUSH3 0x97 JUMP JUMPDEST SWAP5 POP PUSH1 0x20 DUP7 ADD MLOAD SWAP2 POP DUP1 DUP3 GT ISZERO PUSH3 0x199 JUMPI PUSH1 0x0 DUP1 REVERT JUMPDEST POP PUSH3 0x1A8 DUP7 DUP3 DUP8 ADD PUSH3 0x97 JUMP JUMPDEST SWAP3 POP POP PUSH1 0x40 DUP5 ADD MLOAD PUSH1 0xFF DUP2 AND DUP2 EQ PUSH3 0x1C0 JUMPI PUSH1 0x0 DUP1 REVERT JUMPDEST DUP1 SWAP2 POP POP SWAP3 POP SWAP3 POP SWAP3 JUMP JUMPDEST PUSH1 0x1 DUP2 DUP2 SHR SWAP1 DUP3 AND DUP1 PUSH3 0x1E0 JUMPI PUSH1 0x7F DUP3 AND SWAP2 POP JUMPDEST PUSH1 0x20 DUP3 LT DUP2 SUB PUSH3 0x201 JUMPI PUSH4 0x4E487B71 PUSH1 0xE0 SHL PUSH1 0x0 MSTORE PUSH1 0x22 PUSH1 0x4 MSTORE PUSH1 0x24 PUSH1 0x0 REVERT JUMPDEST POP SWAP2 SWAP1 POP JUMP JUMPDEST PUSH1 0x1F DUP3 GT ISZERO PUSH3 0x255 JUMPI PUSH1 0x0 DUP2 DUP2 MSTORE PUSH1 0x20 DUP2 KECCAK256 PUSH1 0x1F DUP6 ADD PUSH1 0x5 SHR DUP2 ADD PUSH1 0x20 DUP7 LT ISZERO PUSH3 0x230 JUMPI POP DUP1 JUMPDEST PUSH1 0x1F DUP6 ADD PUSH1 0x5 SHR DUP3 ADD SWAP2 POP JUMPDEST DUP2 DUP2 LT ISZERO PUSH3 0x251 JUMPI DUP3 DUP2 SSTORE PUSH1 0x1 ADD PUSH3 0x23C JUMP JUMPDEST POP POP POP JUMPDEST POP POP POP JUMP JUMPDEST DUP2 MLOAD PUSH1 0x1 PUSH1 0x1 PUSH1 0x40 SHL SUB DUP2 GT ISZERO PUSH3 0x276 JUMPI PUSH3 0x276 PUSH3 0x81 JUMP JUMPDEST PUSH3 0x28E DUP2 PUSH3 0x287 DUP5 SLOAD PUSH3 0x1CB JUMP JUMPDEST DUP5 PUSH3 0x207 JUMP JUMPDEST PUSH1 0x20 DUP1 PUSH1 0x1F DUP4 GT PUSH1 0x1 DUP2 EQ PUSH3 0x2C6 JUMPI PUSH1 0x0 DUP5 ISZERO PUSH3 0x2AD JUMPI POP DUP6 DUP4 ADD MLOAD JUMPDEST PUSH1 0x0 NOT PUSH1 0x3 DUP7 SWAP1 SHL SHR NOT AND PUSH1 0x1 DUP6 SWAP1 SHL OR DUP6 SSTORE PUSH3 0x251 JUMP JUMPDEST PUSH1 0x0 DUP6 DUP2 MSTORE PUSH1 0x20 DUP2 KECCAK256 PUSH1 0x1F NOT DUP7 AND SWAP2 JUMPDEST DUP3 DUP2 LT ISZERO PUSH3 0x2F7 JUMPI DUP9 DUP7 ADD MLOAD DUP3 SSTORE SWAP5 DUP5 ADD SWAP5 PUSH1 0x1 SWAP1 SWAP2 ADD SWAP1 DUP5 ADD PUSH3 0x2D6 JUMP JUMPDEST POP DUP6 DUP3 LT ISZERO PUSH3 0x316 JUMPI DUP8 DUP6 ADD MLOAD PUSH1 0x0 NOT PUSH1 0x3 DUP9 SWAP1 SHL PUSH1 0xF8 AND SHR NOT AND DUP2 SSTORE JUMPDEST POP POP POP POP POP PUSH1 0x1 SWAP1 DUP2 SHL ADD SWAP1 SSTORE POP JUMP JUMPDEST PUSH2 0x834 DUP1 PUSH3 0x336 PUSH1 0x0 CODECOPY PUSH1 0x0 RETURN INVALID PUSH1 0x80 PUSH1 0x40 MSTORE CALLVALUE DUP1 ISZERO PUSH2 0x10 JUMPI PUSH1 0x0 DUP1 REVERT JUMPDEST POP PUSH1 0x4 CALLDATASIZE LT PUSH2 0xA9 JUMPI PUSH1 0x0 CALLDATALOAD PUSH1 0xE0 SHR DUP1 PUSH4 0x42966C68 GT PUSH2 0x71 JUMPI DUP1 PUSH4 0x42966C68 EQ PUSH2 0x129 JUMPI DUP1 PUSH4 0x70A08231 EQ PUSH2 0x13E JUMPI DUP1 PUSH4 0x95D89B41 EQ PUSH2 0x167 JUMPI DUP1 PUSH4 0xA0712D68 EQ PUSH2 0x16F JUMPI DUP1 PUSH4 0xA9059CBB EQ PUSH2 0x182 JUMPI DUP1 PUSH4 0xDD62ED3E EQ PUSH2 0x195 JUMPI PUSH1 0x0 DUP1 REVERT JUMPDEST DUP1 PUSH4 0x6FDDE03 EQ PUSH2 0xAE JUMPI DUP1 PUSH4 0x95EA7B3 EQ PUSH2 0xCC JUMPI DUP1 PUSH4 0x18160DDD EQ PUSH2 0xEF JUMPI DUP1 PUSH4 0x23B872DD EQ PUSH2 0x101 JUMPI DUP1 PUSH4 0x313CE567 EQ PUSH2 0x114 JUMPI JUMPDEST PUSH1 0x0 DUP1 REVERT JUMPDEST PUSH2 0xB6 PUSH2 0x1CE JUMP JUMPDEST PUSH1 0x40 MLOAD PUSH2 0xC3 SWAP2 SWAP1 PUSH2 0x64A JUMP JUMPDEST PUSH1 0x40 MLOAD DUP1 SWAP2 SUB SWAP1 RETURN JUMPDEST PUSH2 0xDF PUSH2 0xDA CALLDATASIZE PUSH1 0x4 PUSH2 0x6B4 JUMP JUMPDEST PUSH2 0x262 JUMP JUMPDEST PUSH1 0x40 MLOAD SWAP1 ISZERO ISZERO DUP2 MSTORE PUSH1 0x20 ADD PUSH2 0xC3 JUMP JUMPDEST PUSH1 0x3 SLOAD JUMPDEST PUSH1 0x40 MLOAD SWAP1 DUP2 MSTORE PUSH1 0x20 ADD PUSH2 0xC3 JUMP JUMPDEST PUSH2 0xDF PUSH2 0x10F CALLDATASIZE PUSH1 0x4 PUSH2 0x6DE JUMP JUMPDEST PUSH2 0x2EA JUMP JUMPDEST PUSH1 0x2 SLOAD PUSH1 0x40 MLOAD PUSH1 0xFF SWAP1 SWAP2 AND DUP2 MSTORE PUSH1 0x20 ADD PUSH2 0xC3 JUMP JUMPDEST PUSH2 0x13C PUSH2 0x137 CALLDATASIZE PUSH1 0x4 PUSH2 0x71A JUMP JUMPDEST PUSH2 0x377 JUMP JUMPDEST STOP JUMPDEST PUSH2 0xF3 PUSH2 0x14C CALLDATASIZE PUSH1 0x4 PUSH2 0x733 JUMP JUMPDEST PUSH1 0x1 PUSH1 0x1 PUSH1 0xA0 SHL SUB AND PUSH1 0x0 SWAP1 DUP2 MSTORE PUSH1 0x5 PUSH1 0x20 MSTORE PUSH1 0x40 SWAP1 KECCAK256 SLOAD SWAP1 JUMP JUMPDEST PUSH2 0xB6 PUSH2 0x39D JUMP JUMPDEST PUSH2 0x13C PUSH2 0x17D CALLDATASIZE PUSH1 0x4 PUSH2 0x71A JUMP JUMPDEST PUSH2 0x3AF JUMP JUMPDEST PUSH2 0xDF PUSH2 0x190 CALLDATASIZE PUSH1 0x4 PUSH2 0x6B4 JUMP JUMPDEST PUSH2 0x3D1 JUMP JUMPDEST PUSH2 0xF3 PUSH2 0x1A3 CALLDATASIZE PUSH1 0x4 PUSH2 0x755 JUMP JUMPDEST PUSH1 0x1 PUSH1 0x1 PUSH1 0xA0 SHL SUB SWAP2 DUP3 AND PUSH1 0x0 SWAP1 DUP2 MSTORE PUSH1 0x6 PUSH1 0x20 SWAP1 DUP2 MSTORE PUSH1 0x40 DUP1 DUP4 KECCAK256 SWAP4 SWAP1 SWAP5 AND DUP3 MSTORE SWAP2 SWAP1 SWAP2 MSTORE KECCAK256 SLOAD SWAP1 JUMP JUMPDEST PUSH1 0x60 PUSH1 0x0 DUP1 ADD DUP1 SLOAD PUSH2 0x1DF SWAP1 PUSH2 0x788 JUMP JUMPDEST DUP1 PUSH1 0x1F ADD PUSH1 0x20 DUP1 SWAP2 DIV MUL PUSH1 0x20 ADD PUSH1 0x40 MLOAD SWAP1 DUP2 ADD PUSH1 0x40 MSTORE DUP1 SWAP3 SWAP2 SWAP1 DUP2 DUP2 MSTORE PUSH1 0x20 ADD DUP3 DUP1 SLOAD PUSH2 0x20B SWAP1 PUSH2 0x788 JUMP JUMPDEST DUP1 ISZERO PUSH2 0x258 JUMPI DUP1 PUSH1 0x1F LT PUSH2 0x22D JUMPI PUSH2 0x100 DUP1 DUP4 SLOAD DIV MUL DUP4 MSTORE SWAP2 PUSH1 0x20 ADD SWAP2 PUSH2 0x258 JUMP JUMPDEST DUP3 ADD SWAP2 SWAP1 PUSH1 0x0 MSTORE PUSH1 0x20 PUSH1 0x0 KECCAK256 SWAP1 JUMPDEST DUP2 SLOAD DUP2 MSTORE SWAP1 PUSH1 0x1 ADD SWAP1 PUSH1 0x20 ADD DUP1 DUP4 GT PUSH2 0x23B JUMPI DUP3 SWAP1 SUB PUSH1 0x1F AND DUP3 ADD SWAP2 JUMPDEST POP POP POP POP POP SWAP1 POP SWAP1 JUMP JUMPDEST PUSH1 0x0 CALLER DUP1 PUSH2 0x26F JUMPI PUSH1 0x0 DUP1 REVERT JUMPDEST PUSH1 0x1 PUSH1 0x1 PUSH1 0xA0 SHL SUB DUP5 AND PUSH2 0x282 JUMPI PUSH1 0x0 DUP1 REVERT JUMPDEST PUSH1 0x1 PUSH1 0x1 PUSH1 0xA0 SHL SUB DUP2 DUP2 AND PUSH1 0x0 DUP2 DUP2 MSTORE PUSH1 0x6 PUSH1 0x20 SWAP1 DUP2 MSTORE PUSH1 0x40 DUP1 DUP4 KECCAK256 SWAP5 DUP10 AND DUP1 DUP5 MSTORE SWAP5 DUP3 MSTORE SWAP2 DUP3 SWAP1 KECCAK256 DUP8 SWAP1 SSTORE SWAP1 MLOAD DUP7 DUP2 MSTORE PUSH32 0x8C5BE1E5EBEC7D5BD14F71427D1E84F3DD0314C0F7B2291E5B200AC8C7C3B925 SWAP2 ADD PUSH1 0x40 MLOAD DUP1 SWAP2 SUB SWAP1 LOG3 PUSH1 0x1 SWAP2 POP POP JUMPDEST SWAP3 SWAP2 POP POP JUMP JUMPDEST CALLER PUSH1 0x0 SWAP1 DUP2 MSTORE PUSH1 0x6 PUSH1 0x20 SWAP1 DUP2 MSTORE PUSH1 0x40 DUP1 DUP4 KECCAK256 PUSH1 0x1 PUSH1 0x1 PUSH1 0xA0 SHL SUB DUP7 AND DUP5 MSTORE SWAP1 SWAP2 MSTORE DUP2 KECCAK256 SLOAD PUSH1 0x1 DUP2 ADD PUSH2 0x31B JUMPI PUSH1 0x0 DUP1 REVERT JUMPDEST DUP3 DUP2 LT ISZERO PUSH2 0x328 JUMPI PUSH1 0x0 DUP1 REVERT JUMPDEST CALLER PUSH1 0x0 SWAP1 DUP2 MSTORE PUSH1 0x6 PUSH1 0x20 SWAP1 DUP2 MSTORE PUSH1 0x40 DUP1 DUP4 KECCAK256 PUSH1 0x1 PUSH1 0x1 PUSH1 0xA0 SHL SUB DUP9 AND DUP5 MSTORE SWAP1 SWAP2 MSTORE DUP2 KECCAK256 DUP1 SLOAD DUP6 SWAP3 SWAP1 PUSH2 0x35B SWAP1 DUP5 SWAP1 PUSH2 0x7D8 JUMP JUMPDEST SWAP1 SWAP2 SSTORE POP PUSH2 0x36C SWAP1 POP DUP6 DUP6 DUP6 PUSH2 0x3E9 JUMP JUMPDEST POP PUSH1 0x1 SWAP5 SWAP4 POP POP POP POP JUMP JUMPDEST PUSH1 0x4 SLOAD PUSH1 0x1 PUSH1 0x1 PUSH1 0xA0 SHL SUB AND CALLER EQ PUSH2 0x38E JUMPI PUSH1 0x0 DUP1 REVERT JUMPDEST CALLER PUSH2 0x399 DUP2 DUP4 PUSH2 0x4E6 JUMP JUMPDEST POP POP JUMP JUMPDEST PUSH1 0x60 PUSH1 0x0 PUSH1 0x1 ADD DUP1 SLOAD PUSH2 0x1DF SWAP1 PUSH2 0x788 JUMP JUMPDEST PUSH1 0x4 SLOAD PUSH1 0x1 PUSH1 0x1 PUSH1 0xA0 SHL SUB AND CALLER EQ PUSH2 0x3C6 JUMPI PUSH1 0x0 DUP1 REVERT JUMPDEST CALLER PUSH2 0x399 DUP2 DUP4 PUSH2 0x59A JUMP JUMPDEST PUSH1 0x0 CALLER PUSH2 0x3DF DUP2 DUP6 DUP6 PUSH2 0x3E9 JUMP JUMPDEST POP PUSH1 0x1 SWAP4 SWAP3 POP POP POP JUMP JUMPDEST PUSH1 0x1 PUSH1 0x1 PUSH1 0xA0 SHL SUB DUP4 AND PUSH1 0x0 DUP2 DUP2 MSTORE PUSH1 0x5 PUSH1 0x20 MSTORE PUSH1 0x40 SWAP1 KECCAK256 SLOAD SWAP1 PUSH2 0x40C JUMPI PUSH1 0x0 DUP1 REVERT JUMPDEST PUSH1 0x1 PUSH1 0x1 PUSH1 0xA0 SHL SUB DUP4 AND PUSH2 0x41F JUMPI PUSH1 0x0 DUP1 REVERT JUMPDEST DUP2 DUP2 LT ISZERO PUSH2 0x42C JUMPI PUSH1 0x0 DUP1 REVERT JUMPDEST DUP1 ISZERO PUSH2 0x437 JUMPI PUSH1 0x0 DUP1 REVERT JUMPDEST PUSH1 0x1 PUSH1 0x1 PUSH1 0xA0 SHL SUB DUP5 AND PUSH1 0x0 SWAP1 DUP2 MSTORE PUSH1 0x5 PUSH1 0x20 MSTORE PUSH1 0x40 DUP2 KECCAK256 DUP1 SLOAD DUP5 SWAP3 SWAP1 PUSH2 0x45F SWAP1 DUP5 SWAP1 PUSH2 0x7D8 JUMP JUMPDEST SWAP1 SWAP2 SSTORE POP POP PUSH1 0x1 PUSH1 0x1 PUSH1 0xA0 SHL SUB DUP4 AND PUSH1 0x0 SWAP1 DUP2 MSTORE PUSH1 0x5 PUSH1 0x20 MSTORE PUSH1 0x40 DUP2 KECCAK256 DUP1 SLOAD DUP5 SWAP3 SWAP1 PUSH2 0x48C SWAP1 DUP5 SWAP1 PUSH2 0x7EB JUMP JUMPDEST SWAP3 POP POP DUP2 SWAP1 SSTORE POP DUP3 PUSH1 0x1 PUSH1 0x1 PUSH1 0xA0 SHL SUB AND DUP5 PUSH1 0x1 PUSH1 0x1 PUSH1 0xA0 SHL SUB AND PUSH32 0xDDF252AD1BE2C89B69C2B068FC378DAA952BA7F163C4A11628F55A4DF523B3EF DUP5 PUSH1 0x40 MLOAD PUSH2 0x4D8 SWAP2 DUP2 MSTORE PUSH1 0x20 ADD SWAP1 JUMP JUMPDEST PUSH1 0x40 MLOAD DUP1 SWAP2 SUB SWAP1 LOG3 POP POP POP POP JUMP JUMPDEST PUSH1 0x1 PUSH1 0x1 PUSH1 0xA0 SHL SUB DUP3 AND PUSH1 0x0 SWAP1 DUP2 MSTORE PUSH1 0x5 PUSH1 0x20 MSTORE PUSH1 0x40 DUP2 KECCAK256 SLOAD DUP1 DUP4 GT ISZERO PUSH2 0x50C JUMPI PUSH1 0x0 DUP1 REVERT JUMPDEST PUSH1 0x1 PUSH1 0x1 PUSH1 0xA0 SHL SUB DUP5 AND PUSH1 0x0 SWAP1 DUP2 MSTORE PUSH1 0x5 PUSH1 0x20 MSTORE PUSH1 0x40 DUP2 KECCAK256 DUP1 SLOAD DUP6 SWAP3 SWAP1 PUSH2 0x534 SWAP1 DUP5 SWAP1 PUSH2 0x7D8 JUMP JUMPDEST SWAP1 SWAP2 SSTORE POP POP PUSH1 0x3 DUP1 SLOAD DUP5 SWAP2 SWAP1 PUSH1 0x0 SWAP1 PUSH2 0x54E SWAP1 DUP5 SWAP1 PUSH2 0x7D8 JUMP JUMPDEST SWAP3 POP POP DUP2 SWAP1 SSTORE POP DUP2 PUSH1 0x1 PUSH1 0x1 PUSH1 0xA0 SHL SUB AND DUP5 PUSH1 0x1 PUSH1 0x1 PUSH1 0xA0 SHL SUB AND PUSH32 0xDDF252AD1BE2C89B69C2B068FC378DAA952BA7F163C4A11628F55A4DF523B3EF DUP6 PUSH1 0x40 MLOAD PUSH2 0x4D8 SWAP2 DUP2 MSTORE PUSH1 0x20 ADD SWAP1 JUMP JUMPDEST PUSH1 0x0 PUSH1 0x1 PUSH1 0x1 PUSH1 0xA0 SHL SUB DUP4 AND PUSH2 0x5AF JUMPI PUSH1 0x0 DUP1 REVERT JUMPDEST PUSH1 0x1 PUSH1 0x1 PUSH1 0xA0 SHL SUB DUP4 AND PUSH1 0x0 SWAP1 DUP2 MSTORE PUSH1 0x5 PUSH1 0x20 MSTORE PUSH1 0x40 DUP2 KECCAK256 DUP1 SLOAD DUP5 SWAP3 SWAP1 PUSH2 0x5D7 SWAP1 DUP5 SWAP1 PUSH2 0x7EB JUMP JUMPDEST SWAP1 SWAP2 SSTORE POP POP PUSH1 0x3 DUP1 SLOAD DUP4 SWAP2 SWAP1 PUSH1 0x0 SWAP1 PUSH2 0x5F1 SWAP1 DUP5 SWAP1 PUSH2 0x7EB JUMP JUMPDEST SWAP3 POP POP DUP2 SWAP1 SSTORE POP DUP3 PUSH1 0x1 PUSH1 0x1 PUSH1 0xA0 SHL SUB AND DUP2 PUSH1 0x1 PUSH1 0x1 PUSH1 0xA0 SHL SUB AND PUSH32 0xDDF252AD1BE2C89B69C2B068FC378DAA952BA7F163C4A11628F55A4DF523B3EF DUP5 PUSH1 0x40 MLOAD PUSH2 0x63D SWAP2 DUP2 MSTORE PUSH1 0x20 ADD SWAP1 JUMP JUMPDEST PUSH1 0x40 MLOAD DUP1 SWAP2 SUB SWAP1 LOG3 POP POP POP JUMP JUMPDEST PUSH1 0x0 PUSH1 0x20 DUP1 DUP4 MSTORE DUP4 MLOAD DUP1 DUP3 DUP6 ADD MSTORE PUSH1 0x0 JUMPDEST DUP2 DUP2 LT ISZERO PUSH2 0x677 JUMPI DUP6 DUP2 ADD DUP4 ADD MLOAD DUP6 DUP3 ADD PUSH1 0x40 ADD MSTORE DUP3 ADD PUSH2 0x65B JUMP JUMPDEST POP PUSH1 0x0 PUSH1 0x40 DUP3 DUP7 ADD ADD MSTORE PUSH1 0x40 PUSH1 0x1F NOT PUSH1 0x1F DUP4 ADD AND DUP6 ADD ADD SWAP3 POP POP POP SWAP3 SWAP2 POP POP JUMP JUMPDEST DUP1 CALLDATALOAD PUSH1 0x1 PUSH1 0x1 PUSH1 0xA0 SHL SUB DUP2 AND DUP2 EQ PUSH2 0x6AF JUMPI PUSH1 0x0 DUP1 REVERT JUMPDEST SWAP2 SWAP1 POP JUMP JUMPDEST PUSH1 0x0 DUP1 PUSH1 0x40 DUP4 DUP6 SUB SLT ISZERO PUSH2 0x6C7 JUMPI PUSH1 0x0 DUP1 REVERT JUMPDEST PUSH2 0x6D0 DUP4 PUSH2 0x698 JUMP JUMPDEST SWAP5 PUSH1 0x20 SWAP4 SWAP1 SWAP4 ADD CALLDATALOAD SWAP4 POP POP POP JUMP JUMPDEST PUSH1 0x0 DUP1 PUSH1 0x0 PUSH1 0x60 DUP5 DUP7 SUB SLT ISZERO PUSH2 0x6F3 JUMPI PUSH1 0x0 DUP1 REVERT JUMPDEST PUSH2 0x6FC DUP5 PUSH2 0x698 JUMP JUMPDEST SWAP3 POP PUSH2 0x70A PUSH1 0x20 DUP6 ADD PUSH2 0x698 JUMP JUMPDEST SWAP2 POP PUSH1 0x40 DUP5 ADD CALLDATALOAD SWAP1 POP SWAP3 POP SWAP3 POP SWAP3 JUMP JUMPDEST PUSH1 0x0 PUSH1 0x20 DUP3 DUP5 SUB SLT ISZERO PUSH2 0x72C JUMPI PUSH1 0x0 DUP1 REVERT JUMPDEST POP CALLDATALOAD SWAP2 SWAP1 POP JUMP JUMPDEST PUSH1 0x0 PUSH1 0x20 DUP3 DUP5 SUB SLT ISZERO PUSH2 0x745 JUMPI PUSH1 0x0 DUP1 REVERT JUMPDEST PUSH2 0x74E DUP3 PUSH2 0x698 JUMP JUMPDEST SWAP4 SWAP3 POP POP POP JUMP JUMPDEST PUSH1 0x0 DUP1 PUSH1 0x40 DUP4 DUP6 SUB SLT ISZERO PUSH2 0x768 JUMPI PUSH1 0x0 DUP1 REVERT JUMPDEST PUSH2 0x771 DUP4 PUSH2 0x698 JUMP JUMPDEST SWAP2 POP PUSH2 0x77F PUSH1 0x20 DUP5 ADD PUSH2 0x698 JUMP JUMPDEST SWAP1 POP SWAP3 POP SWAP3 SWAP1 POP JUMP JUMPDEST PUSH1 0x1 DUP2 DUP2 SHR SWAP1 DUP3 AND DUP1 PUSH2 0x79C JUMPI PUSH1 0x7F DUP3 AND SWAP2 POP JUMPDEST PUSH1 0x20 DUP3 LT DUP2 SUB PUSH2 0x7BC JUMPI PUSH4 0x4E487B71 PUSH1 0xE0 SHL PUSH1 0x0 MSTORE PUSH1 0x22 PUSH1 0x4 MSTORE PUSH1 0x24 PUSH1 0x0 REVERT JUMPDEST POP SWAP2 SWAP1 POP JUMP JUMPDEST PUSH4 0x4E487B71 PUSH1 0xE0 SHL PUSH1 0x0 MSTORE PUSH1 0x11 PUSH1 0x4 MSTORE PUSH1 0x24 PUSH1 0x0 REVERT JUMPDEST DUP2 DUP2 SUB DUP2 DUP2 GT ISZERO PUSH2 0x2E4 JUMPI PUSH2 0x2E4 PUSH2 0x7C2 JUMP JUMPDEST DUP1 DUP3 ADD DUP1 DUP3 GT ISZERO PUSH2 0x2E4 JUMPI PUSH2 0x2E4 PUSH2 0x7C2 JUMP INVALID LOG2 PUSH5 0x6970667358 0x22 SLT KECCAK256 0xB5 0xD4 DUP15 STATICCALL 0xF8 SWAP15 SWAP10 BASEFEE SUB MSTORE SELFDESTRUCT PUSH13 0xB42F44417236C4DDD7C663B98A 0xCC 0xA7 0xC8 DUP13 0xB1 0xA9 RETURNDATACOPY PUSH5 0x736F6C6343 STOP ADDMOD SLT STOP CALLER "
				},
				"gasEstimates": {
					"creation": {
						"codeDepositCost": "440800",
						"executionCost": "infinite",
						"totalCost": "infinite"
					},
					"external": {
						"contribute(uint256)": "infinite",
						"reveal_native_token()": "2287",
						"reveal_state()": "2342",
						"withdraw(uint256)": "infinite"
					},
					"internal": {
						"burn_(uint256)": "infinite",
						"deposit_(uint256)": "infinite",
						"deposit_erc20_(address,uint256)": "infinite",
						"mint_(uint256)": "infinite",
						"withdraw_(address,uint256)": "infinite",
						"withdraw_erc20_(address,uint256)": "infinite"
					}
				},
				"methodIdentifiers": {
					"contribute(uint256)": "c1cbbca7",
					"reveal_native_token()": "0f851666",
					"reveal_state()": "3c964865",
					"withdraw(uint256)": "2e1a7d4d"
				}
			},
			"storageLayout": {
				"storage": [
					{
						"astId": 124,
						"contract": "blockchain/contracts/Polygon/Pool/Prototype/pool/logic.sol:Logic",
						"label": "state",
						"offset": 0,
						"slot": "0",
						"type": "t_contract(State)1009"
					},
					{
						"astId": 127,
						"contract": "blockchain/contracts/Polygon/Pool/Prototype/pool/logic.sol:Logic",
						"label": "native_token",
						"offset": 0,
						"slot": "1",
						"type": "t_contract(Token)1486"
					},
					{
						"astId": 139,
						"contract": "blockchain/contracts/Polygon/Pool/Prototype/pool/logic.sol:Logic",
						"label": "my",
						"offset": 0,
						"slot": "2",
						"type": "t_struct(My)136_storage"
					}
				],
				"types": {
					"t_address": {
						"encoding": "inplace",
						"label": "address",
						"numberOfBytes": "20"
					},
					"t_contract(State)1009": {
						"encoding": "inplace",
						"label": "contract State",
						"numberOfBytes": "20"
					},
					"t_contract(Token)1486": {
						"encoding": "inplace",
						"label": "contract Token",
						"numberOfBytes": "20"
					},
					"t_struct(My)136_storage": {
						"encoding": "inplace",
						"label": "struct Logic.My",
						"members": [
							{
								"astId": 129,
								"contract": "blockchain/contracts/Polygon/Pool/Prototype/pool/logic.sol:Logic",
								"label": "state",
								"offset": 0,
								"slot": "0",
								"type": "t_address"
							},
							{
								"astId": 131,
								"contract": "blockchain/contracts/Polygon/Pool/Prototype/pool/logic.sol:Logic",
								"label": "native_token",
								"offset": 0,
								"slot": "1",
								"type": "t_address"
							},
							{
								"astId": 133,
								"contract": "blockchain/contracts/Polygon/Pool/Prototype/pool/logic.sol:Logic",
								"label": "creator",
								"offset": 0,
								"slot": "2",
								"type": "t_address"
							},
							{
								"astId": 135,
								"contract": "blockchain/contracts/Polygon/Pool/Prototype/pool/logic.sol:Logic",
								"label": "manager",
								"offset": 0,
								"slot": "3",
								"type": "t_address"
							}
						],
						"numberOfBytes": "128"
					}
				}
			},
			"userdoc": {
				"kind": "user",
				"methods": {},
				"version": 1
			}
		}
	}
}