{
	"blockchain/contracts/Polygon/Pool/Prototype/pool/token.sol": {
		"Token": {
			"abi": [
				{
					"inputs": [
						{
							"internalType": "string",
							"name": "_name",
							"type": "string"
						},
						{
							"internalType": "string",
							"name": "_symbol",
							"type": "string"
						},
						{
							"internalType": "uint8",
							"name": "_decimals",
							"type": "uint8"
						}
					],
					"stateMutability": "nonpayable",
					"type": "constructor"
				},
				{
					"anonymous": false,
					"inputs": [
						{
							"indexed": true,
							"internalType": "address",
							"name": "owner",
							"type": "address"
						},
						{
							"indexed": true,
							"internalType": "address",
							"name": "spender",
							"type": "address"
						},
						{
							"indexed": false,
							"internalType": "uint256",
							"name": "value",
							"type": "uint256"
						}
					],
					"name": "Approval",
					"type": "event"
				},
				{
					"anonymous": false,
					"inputs": [
						{
							"indexed": true,
							"internalType": "address",
							"name": "from",
							"type": "address"
						},
						{
							"indexed": true,
							"internalType": "address",
							"name": "to",
							"type": "address"
						},
						{
							"indexed": false,
							"internalType": "uint256",
							"name": "value",
							"type": "uint256"
						}
					],
					"name": "Transfer",
					"type": "event"
				},
				{
					"inputs": [
						{
							"internalType": "address",
							"name": "_owner",
							"type": "address"
						},
						{
							"internalType": "address",
							"name": "_spender",
							"type": "address"
						}
					],
					"name": "allowance",
					"outputs": [
						{
							"internalType": "uint256",
							"name": "",
							"type": "uint256"
						}
					],
					"stateMutability": "view",
					"type": "function"
				},
				{
					"inputs": [
						{
							"internalType": "address",
							"name": "_spender",
							"type": "address"
						},
						{
							"internalType": "uint256",
							"name": "_value",
							"type": "uint256"
						}
					],
					"name": "approve",
					"outputs": [
						{
							"internalType": "bool",
							"name": "",
							"type": "bool"
						}
					],
					"stateMutability": "nonpayable",
					"type": "function"
				},
				{
					"inputs": [
						{
							"internalType": "address",
							"name": "_owner",
							"type": "address"
						}
					],
					"name": "balanceOf",
					"outputs": [
						{
							"internalType": "uint256",
							"name": "",
							"type": "uint256"
						}
					],
					"stateMutability": "view",
					"type": "function"
				},
				{
					"inputs": [
						{
							"internalType": "uint256",
							"name": "_value",
							"type": "uint256"
						}
					],
					"name": "burn",
					"outputs": [],
					"stateMutability": "nonpayable",
					"type": "function"
				},
				{
					"inputs": [],
					"name": "decimals",
					"outputs": [
						{
							"internalType": "uint8",
							"name": "",
							"type": "uint8"
						}
					],
					"stateMutability": "view",
					"type": "function"
				},
				{
					"inputs": [
						{
							"internalType": "uint256",
							"name": "_value",
							"type": "uint256"
						}
					],
					"name": "mint",
					"outputs": [],
					"stateMutability": "nonpayable",
					"type": "function"
				},
				{
					"inputs": [],
					"name": "name",
					"outputs": [
						{
							"internalType": "string",
							"name": "",
							"type": "string"
						}
					],
					"stateMutability": "view",
					"type": "function"
				},
				{
					"inputs": [],
					"name": "symbol",
					"outputs": [
						{
							"internalType": "string",
							"name": "",
							"type": "string"
						}
					],
					"stateMutability": "view",
					"type": "function"
				},
				{
					"inputs": [],
					"name": "totalSupply",
					"outputs": [
						{
							"internalType": "uint256",
							"name": "",
							"type": "uint256"
						}
					],
					"stateMutability": "view",
					"type": "function"
				},
				{
					"inputs": [
						{
							"internalType": "address",
							"name": "_to",
							"type": "address"
						},
						{
							"internalType": "uint256",
							"name": "_value",
							"type": "uint256"
						}
					],
					"name": "transfer",
					"outputs": [
						{
							"internalType": "bool",
							"name": "",
							"type": "bool"
						}
					],
					"stateMutability": "nonpayable",
					"type": "function"
				},
				{
					"inputs": [
						{
							"internalType": "address",
							"name": "_from",
							"type": "address"
						},
						{
							"internalType": "address",
							"name": "_to",
							"type": "address"
						},
						{
							"internalType": "uint256",
							"name": "_value",
							"type": "uint256"
						}
					],
					"name": "transferFrom",
					"outputs": [
						{
							"internalType": "bool",
							"name": "",
							"type": "bool"
						}
					],
					"stateMutability": "nonpayable",
					"type": "function"
				}
			],
			"devdoc": {
				"events": {
					"Approval(address,address,uint256)": {
						"details": "Emitted when the allowance of a `spender` for an `owner` is set by a call to {approve}. `value` is the new allowance."
					},
					"Transfer(address,address,uint256)": {
						"details": "Emitted when `value` tokens are moved from one account (`from`) to another (`to`). Note that `value` may be zero."
					}
				},
				"kind": "dev",
				"methods": {
					"totalSupply()": {
						"details": "Returns the amount of tokens in existence."
					}
				},
				"version": 1
			},
			"evm": {
				"assembly": "    /* \"blockchain/contracts/Polygon/Pool/Prototype/pool/token.sol\":167:3838  contract Token is IERC20 {... */\n  mstore(0x40, 0x80)\n    /* \"blockchain/contracts/Polygon/Pool/Prototype/pool/token.sol\":593:897  constructor(... */\n  callvalue\n  dup1\n  iszero\n  tag_1\n  jumpi\n  0x00\n  dup1\n  revert\ntag_1:\n  pop\n  mload(0x40)\n  sub(codesize, bytecodeSize)\n  dup1\n  bytecodeSize\n  dup4\n  codecopy\n  dup2\n  dup2\n  add\n  0x40\n  mstore\n  dup2\n  add\n  swap1\n  tag_2\n  swap2\n  swap1\n  tag_3\n  jump\t// in\ntag_2:\n    /* \"blockchain/contracts/Polygon/Pool/Prototype/pool/token.sol\":731:733  18 */\n  0x12\n    /* \"blockchain/contracts/Polygon/Pool/Prototype/pool/token.sol\":718:727  _decimals */\n  dup2\n    /* \"blockchain/contracts/Polygon/Pool/Prototype/pool/token.sol\":718:733  _decimals <= 18 */\n  0xff\n  and\n  gt\n  iszero\n    /* \"blockchain/contracts/Polygon/Pool/Prototype/pool/token.sol\":709:735  require( _decimals <= 18 ) */\n  tag_6\n  jumpi\n  0x00\n  dup1\n  revert\ntag_6:\n    /* \"blockchain/contracts/Polygon/Pool/Prototype/pool/token.sol\":767:768  0 */\n  0x00\n    /* \"blockchain/contracts/Polygon/Pool/Prototype/pool/token.sol\":754:763  _decimals */\n  dup2\n    /* \"blockchain/contracts/Polygon/Pool/Prototype/pool/token.sol\":754:768  _decimals >= 0 */\n  0xff\n  and\n  lt\n  iszero\n    /* \"blockchain/contracts/Polygon/Pool/Prototype/pool/token.sol\":745:770  require( _decimals >= 0 ) */\n  tag_7\n  jumpi\n  0x00\n  dup1\n  revert\ntag_7:\n    /* \"blockchain/contracts/Polygon/Pool/Prototype/pool/token.sol\":791:796  _name */\n  dup3\n    /* \"blockchain/contracts/Polygon/Pool/Prototype/pool/token.sol\":781:783  my */\n  0x00\n    /* \"blockchain/contracts/Polygon/Pool/Prototype/pool/token.sol\":781:788  my.name */\n  dup1\n  add\n    /* \"blockchain/contracts/Polygon/Pool/Prototype/pool/token.sol\":781:796  my.name = _name */\n  swap1\n  dup2\n  tag_8\n  swap2\n  swap1\n  tag_9\n  jump\t// in\ntag_8:\n  pop\n    /* \"blockchain/contracts/Polygon/Pool/Prototype/pool/token.sol\":818:825  _symbol */\n  dup2\n    /* \"blockchain/contracts/Polygon/Pool/Prototype/pool/token.sol\":806:808  my */\n  0x00\n    /* \"blockchain/contracts/Polygon/Pool/Prototype/pool/token.sol\":806:815  my.symbol */\n  0x01\n  add\n    /* \"blockchain/contracts/Polygon/Pool/Prototype/pool/token.sol\":806:825  my.symbol = _symbol */\n  swap1\n  dup2\n  tag_10\n  swap2\n  swap1\n  tag_9\n  jump\t// in\ntag_10:\n  pop\n    /* \"blockchain/contracts/Polygon/Pool/Prototype/pool/token.sol\":849:858  _decimals */\n  dup1\n    /* \"blockchain/contracts/Polygon/Pool/Prototype/pool/token.sol\":835:837  my */\n  0x00\n    /* \"blockchain/contracts/Polygon/Pool/Prototype/pool/token.sol\":835:846  my.decimals */\n  0x02\n  add\n  0x00\n    /* \"blockchain/contracts/Polygon/Pool/Prototype/pool/token.sol\":835:858  my.decimals = _decimals */\n  0x0100\n  exp\n  dup2\n  sload\n  dup2\n  0xff\n  mul\n  not\n  and\n  swap1\n  dup4\n  0xff\n  and\n  mul\n  or\n  swap1\n  sstore\n  pop\n    /* \"blockchain/contracts/Polygon/Pool/Prototype/pool/token.sol\":879:889  msg.sender */\n  caller\n    /* \"blockchain/contracts/Polygon/Pool/Prototype/pool/token.sol\":868:870  my */\n  0x00\n    /* \"blockchain/contracts/Polygon/Pool/Prototype/pool/token.sol\":868:876  my.admin */\n  0x04\n  add\n  0x00\n    /* \"blockchain/contracts/Polygon/Pool/Prototype/pool/token.sol\":868:889  my.admin = msg.sender */\n  0x0100\n  exp\n  dup2\n  sload\n  dup2\n  0xffffffffffffffffffffffffffffffffffffffff\n  mul\n  not\n  and\n  swap1\n  dup4\n  0xffffffffffffffffffffffffffffffffffffffff\n  and\n  mul\n  or\n  swap1\n  sstore\n  pop\n    /* \"blockchain/contracts/Polygon/Pool/Prototype/pool/token.sol\":593:897  constructor(... */\n  pop\n  pop\n  pop\n    /* \"blockchain/contracts/Polygon/Pool/Prototype/pool/token.sol\":167:3838  contract Token is IERC20 {... */\n  jump(tag_11)\n    /* \"#utility.yul\":7:82   */\ntag_12:\n    /* \"#utility.yul\":40:46   */\n  0x00\n    /* \"#utility.yul\":73:75   */\n  0x40\n    /* \"#utility.yul\":67:76   */\n  mload\n    /* \"#utility.yul\":57:76   */\n  swap1\n  pop\n    /* \"#utility.yul\":7:82   */\n  swap1\n  jump\t// out\n    /* \"#utility.yul\":88:205   */\ntag_13:\n    /* \"#utility.yul\":197:198   */\n  0x00\n    /* \"#utility.yul\":194:195   */\n  dup1\n    /* \"#utility.yul\":187:199   */\n  revert\n    /* \"#utility.yul\":211:328   */\ntag_14:\n    /* \"#utility.yul\":320:321   */\n  0x00\n    /* \"#utility.yul\":317:318   */\n  dup1\n    /* \"#utility.yul\":310:322   */\n  revert\n    /* \"#utility.yul\":334:451   */\ntag_15:\n    /* \"#utility.yul\":443:444   */\n  0x00\n    /* \"#utility.yul\":440:441   */\n  dup1\n    /* \"#utility.yul\":433:445   */\n  revert\n    /* \"#utility.yul\":457:574   */\ntag_16:\n    /* \"#utility.yul\":566:567   */\n  0x00\n    /* \"#utility.yul\":563:564   */\n  dup1\n    /* \"#utility.yul\":556:568   */\n  revert\n    /* \"#utility.yul\":580:682   */\ntag_17:\n    /* \"#utility.yul\":621:627   */\n  0x00\n    /* \"#utility.yul\":672:674   */\n  0x1f\n    /* \"#utility.yul\":668:675   */\n  not\n    /* \"#utility.yul\":663:665   */\n  0x1f\n    /* \"#utility.yul\":656:661   */\n  dup4\n    /* \"#utility.yul\":652:666   */\n  add\n    /* \"#utility.yul\":648:676   */\n  and\n    /* \"#utility.yul\":638:676   */\n  swap1\n  pop\n    /* \"#utility.yul\":580:682   */\n  swap2\n  swap1\n  pop\n  jump\t// out\n    /* \"#utility.yul\":688:868   */\ntag_18:\n    /* \"#utility.yul\":736:813   */\n  0x4e487b7100000000000000000000000000000000000000000000000000000000\n    /* \"#utility.yul\":733:734   */\n  0x00\n    /* \"#utility.yul\":726:814   */\n  mstore\n    /* \"#utility.yul\":833:837   */\n  0x41\n    /* \"#utility.yul\":830:831   */\n  0x04\n    /* \"#utility.yul\":823:838   */\n  mstore\n    /* \"#utility.yul\":857:861   */\n  0x24\n    /* \"#utility.yul\":854:855   */\n  0x00\n    /* \"#utility.yul\":847:862   */\n  revert\n    /* \"#utility.yul\":874:1155   */\ntag_19:\n    /* \"#utility.yul\":957:984   */\n  tag_56\n    /* \"#utility.yul\":979:983   */\n  dup3\n    /* \"#utility.yul\":957:984   */\n  tag_17\n  jump\t// in\ntag_56:\n    /* \"#utility.yul\":949:955   */\n  dup2\n    /* \"#utility.yul\":945:985   */\n  add\n    /* \"#utility.yul\":1087:1093   */\n  dup2\n    /* \"#utility.yul\":1075:1085   */\n  dup2\n    /* \"#utility.yul\":1072:1094   */\n  lt\n    /* \"#utility.yul\":1051:1069   */\n  0xffffffffffffffff\n    /* \"#utility.yul\":1039:1049   */\n  dup3\n    /* \"#utility.yul\":1036:1070   */\n  gt\n    /* \"#utility.yul\":1033:1095   */\n  or\n    /* \"#utility.yul\":1030:1118   */\n  iszero\n  tag_57\n  jumpi\n    /* \"#utility.yul\":1098:1116   */\n  tag_58\n  tag_18\n  jump\t// in\ntag_58:\n    /* \"#utility.yul\":1030:1118   */\ntag_57:\n    /* \"#utility.yul\":1138:1148   */\n  dup1\n    /* \"#utility.yul\":1134:1136   */\n  0x40\n    /* \"#utility.yul\":1127:1149   */\n  mstore\n    /* \"#utility.yul\":917:1155   */\n  pop\n    /* \"#utility.yul\":874:1155   */\n  pop\n  pop\n  jump\t// out\n    /* \"#utility.yul\":1161:1290   */\ntag_20:\n    /* \"#utility.yul\":1195:1201   */\n  0x00\n    /* \"#utility.yul\":1222:1242   */\n  tag_60\n  tag_12\n  jump\t// in\ntag_60:\n    /* \"#utility.yul\":1212:1242   */\n  swap1\n  pop\n    /* \"#utility.yul\":1251:1284   */\n  tag_61\n    /* \"#utility.yul\":1279:1283   */\n  dup3\n    /* \"#utility.yul\":1271:1277   */\n  dup3\n    /* \"#utility.yul\":1251:1284   */\n  tag_19\n  jump\t// in\ntag_61:\n    /* \"#utility.yul\":1161:1290   */\n  swap2\n  swap1\n  pop\n  jump\t// out\n    /* \"#utility.yul\":1296:1604   */\ntag_21:\n    /* \"#utility.yul\":1358:1362   */\n  0x00\n    /* \"#utility.yul\":1448:1466   */\n  0xffffffffffffffff\n    /* \"#utility.yul\":1440:1446   */\n  dup3\n    /* \"#utility.yul\":1437:1467   */\n  gt\n    /* \"#utility.yul\":1434:1490   */\n  iszero\n  tag_63\n  jumpi\n    /* \"#utility.yul\":1470:1488   */\n  tag_64\n  tag_18\n  jump\t// in\ntag_64:\n    /* \"#utility.yul\":1434:1490   */\ntag_63:\n    /* \"#utility.yul\":1508:1537   */\n  tag_65\n    /* \"#utility.yul\":1530:1536   */\n  dup3\n    /* \"#utility.yul\":1508:1537   */\n  tag_17\n  jump\t// in\ntag_65:\n    /* \"#utility.yul\":1500:1537   */\n  swap1\n  pop\n    /* \"#utility.yul\":1592:1596   */\n  0x20\n    /* \"#utility.yul\":1586:1590   */\n  dup2\n    /* \"#utility.yul\":1582:1597   */\n  add\n    /* \"#utility.yul\":1574:1597   */\n  swap1\n  pop\n    /* \"#utility.yul\":1296:1604   */\n  swap2\n  swap1\n  pop\n  jump\t// out\n    /* \"#utility.yul\":1610:1856   */\ntag_22:\n    /* \"#utility.yul\":1691:1692   */\n  0x00\n    /* \"#utility.yul\":1701:1814   */\ntag_67:\n    /* \"#utility.yul\":1715:1721   */\n  dup4\n    /* \"#utility.yul\":1712:1713   */\n  dup2\n    /* \"#utility.yul\":1709:1722   */\n  lt\n    /* \"#utility.yul\":1701:1814   */\n  iszero\n  tag_69\n  jumpi\n    /* \"#utility.yul\":1800:1801   */\n  dup1\n    /* \"#utility.yul\":1795:1798   */\n  dup3\n    /* \"#utility.yul\":1791:1802   */\n  add\n    /* \"#utility.yul\":1785:1803   */\n  mload\n    /* \"#utility.yul\":1781:1782   */\n  dup2\n    /* \"#utility.yul\":1776:1779   */\n  dup5\n    /* \"#utility.yul\":1772:1783   */\n  add\n    /* \"#utility.yul\":1765:1804   */\n  mstore\n    /* \"#utility.yul\":1737:1739   */\n  0x20\n    /* \"#utility.yul\":1734:1735   */\n  dup2\n    /* \"#utility.yul\":1730:1740   */\n  add\n    /* \"#utility.yul\":1725:1740   */\n  swap1\n  pop\n    /* \"#utility.yul\":1701:1814   */\n  jump(tag_67)\ntag_69:\n    /* \"#utility.yul\":1848:1849   */\n  0x00\n    /* \"#utility.yul\":1839:1845   */\n  dup5\n    /* \"#utility.yul\":1834:1837   */\n  dup5\n    /* \"#utility.yul\":1830:1846   */\n  add\n    /* \"#utility.yul\":1823:1850   */\n  mstore\n    /* \"#utility.yul\":1672:1856   */\n  pop\n    /* \"#utility.yul\":1610:1856   */\n  pop\n  pop\n  pop\n  jump\t// out\n    /* \"#utility.yul\":1862:2296   */\ntag_23:\n    /* \"#utility.yul\":1951:1956   */\n  0x00\n    /* \"#utility.yul\":1976:2042   */\n  tag_71\n    /* \"#utility.yul\":1992:2041   */\n  tag_72\n    /* \"#utility.yul\":2034:2040   */\n  dup5\n    /* \"#utility.yul\":1992:2041   */\n  tag_21\n  jump\t// in\ntag_72:\n    /* \"#utility.yul\":1976:2042   */\n  tag_20\n  jump\t// in\ntag_71:\n    /* \"#utility.yul\":1967:2042   */\n  swap1\n  pop\n    /* \"#utility.yul\":2065:2071   */\n  dup3\n    /* \"#utility.yul\":2058:2063   */\n  dup2\n    /* \"#utility.yul\":2051:2072   */\n  mstore\n    /* \"#utility.yul\":2103:2107   */\n  0x20\n    /* \"#utility.yul\":2096:2101   */\n  dup2\n    /* \"#utility.yul\":2092:2108   */\n  add\n    /* \"#utility.yul\":2141:2144   */\n  dup5\n    /* \"#utility.yul\":2132:2138   */\n  dup5\n    /* \"#utility.yul\":2127:2130   */\n  dup5\n    /* \"#utility.yul\":2123:2139   */\n  add\n    /* \"#utility.yul\":2120:2145   */\n  gt\n    /* \"#utility.yul\":2117:2229   */\n  iszero\n  tag_73\n  jumpi\n    /* \"#utility.yul\":2148:2227   */\n  tag_74\n  tag_16\n  jump\t// in\ntag_74:\n    /* \"#utility.yul\":2117:2229   */\ntag_73:\n    /* \"#utility.yul\":2238:2290   */\n  tag_75\n    /* \"#utility.yul\":2283:2289   */\n  dup5\n    /* \"#utility.yul\":2278:2281   */\n  dup3\n    /* \"#utility.yul\":2273:2276   */\n  dup6\n    /* \"#utility.yul\":2238:2290   */\n  tag_22\n  jump\t// in\ntag_75:\n    /* \"#utility.yul\":1957:2296   */\n  pop\n    /* \"#utility.yul\":1862:2296   */\n  swap4\n  swap3\n  pop\n  pop\n  pop\n  jump\t// out\n    /* \"#utility.yul\":2316:2671   */\ntag_24:\n    /* \"#utility.yul\":2383:2388   */\n  0x00\n    /* \"#utility.yul\":2432:2435   */\n  dup3\n    /* \"#utility.yul\":2425:2429   */\n  0x1f\n    /* \"#utility.yul\":2417:2423   */\n  dup4\n    /* \"#utility.yul\":2413:2430   */\n  add\n    /* \"#utility.yul\":2409:2436   */\n  slt\n    /* \"#utility.yul\":2399:2521   */\n  tag_77\n  jumpi\n    /* \"#utility.yul\":2440:2519   */\n  tag_78\n  tag_15\n  jump\t// in\ntag_78:\n    /* \"#utility.yul\":2399:2521   */\ntag_77:\n    /* \"#utility.yul\":2550:2556   */\n  dup2\n    /* \"#utility.yul\":2544:2557   */\n  mload\n    /* \"#utility.yul\":2575:2665   */\n  tag_79\n    /* \"#utility.yul\":2661:2664   */\n  dup5\n    /* \"#utility.yul\":2653:2659   */\n  dup3\n    /* \"#utility.yul\":2646:2650   */\n  0x20\n    /* \"#utility.yul\":2638:2644   */\n  dup7\n    /* \"#utility.yul\":2634:2651   */\n  add\n    /* \"#utility.yul\":2575:2665   */\n  tag_23\n  jump\t// in\ntag_79:\n    /* \"#utility.yul\":2566:2665   */\n  swap2\n  pop\n    /* \"#utility.yul\":2389:2671   */\n  pop\n    /* \"#utility.yul\":2316:2671   */\n  swap3\n  swap2\n  pop\n  pop\n  jump\t// out\n    /* \"#utility.yul\":2677:2763   */\ntag_25:\n    /* \"#utility.yul\":2712:2719   */\n  0x00\n    /* \"#utility.yul\":2752:2756   */\n  0xff\n    /* \"#utility.yul\":2745:2750   */\n  dup3\n    /* \"#utility.yul\":2741:2757   */\n  and\n    /* \"#utility.yul\":2730:2757   */\n  swap1\n  pop\n    /* \"#utility.yul\":2677:2763   */\n  swap2\n  swap1\n  pop\n  jump\t// out\n    /* \"#utility.yul\":2769:2887   */\ntag_26:\n    /* \"#utility.yul\":2840:2862   */\n  tag_82\n    /* \"#utility.yul\":2856:2861   */\n  dup2\n    /* \"#utility.yul\":2840:2862   */\n  tag_25\n  jump\t// in\ntag_82:\n    /* \"#utility.yul\":2833:2838   */\n  dup2\n    /* \"#utility.yul\":2830:2863   */\n  eq\n    /* \"#utility.yul\":2820:2881   */\n  tag_83\n  jumpi\n    /* \"#utility.yul\":2877:2878   */\n  0x00\n    /* \"#utility.yul\":2874:2875   */\n  dup1\n    /* \"#utility.yul\":2867:2879   */\n  revert\n    /* \"#utility.yul\":2820:2881   */\ntag_83:\n    /* \"#utility.yul\":2769:2887   */\n  pop\n  jump\t// out\n    /* \"#utility.yul\":2893:3032   */\ntag_27:\n    /* \"#utility.yul\":2948:2953   */\n  0x00\n    /* \"#utility.yul\":2979:2985   */\n  dup2\n    /* \"#utility.yul\":2973:2986   */\n  mload\n    /* \"#utility.yul\":2964:2986   */\n  swap1\n  pop\n    /* \"#utility.yul\":2995:3026   */\n  tag_85\n    /* \"#utility.yul\":3020:3025   */\n  dup2\n    /* \"#utility.yul\":2995:3026   */\n  tag_26\n  jump\t// in\ntag_85:\n    /* \"#utility.yul\":2893:3032   */\n  swap3\n  swap2\n  pop\n  pop\n  jump\t// out\n    /* \"#utility.yul\":3038:4043   */\ntag_3:\n    /* \"#utility.yul\":3144:3150   */\n  0x00\n    /* \"#utility.yul\":3152:3158   */\n  dup1\n    /* \"#utility.yul\":3160:3166   */\n  0x00\n    /* \"#utility.yul\":3209:3211   */\n  0x60\n    /* \"#utility.yul\":3197:3206   */\n  dup5\n    /* \"#utility.yul\":3188:3195   */\n  dup7\n    /* \"#utility.yul\":3184:3207   */\n  sub\n    /* \"#utility.yul\":3180:3212   */\n  slt\n    /* \"#utility.yul\":3177:3296   */\n  iszero\n  tag_87\n  jumpi\n    /* \"#utility.yul\":3215:3294   */\n  tag_88\n  tag_13\n  jump\t// in\ntag_88:\n    /* \"#utility.yul\":3177:3296   */\ntag_87:\n    /* \"#utility.yul\":3356:3357   */\n  0x00\n    /* \"#utility.yul\":3345:3354   */\n  dup5\n    /* \"#utility.yul\":3341:3358   */\n  add\n    /* \"#utility.yul\":3335:3359   */\n  mload\n    /* \"#utility.yul\":3386:3404   */\n  0xffffffffffffffff\n    /* \"#utility.yul\":3378:3384   */\n  dup2\n    /* \"#utility.yul\":3375:3405   */\n  gt\n    /* \"#utility.yul\":3372:3489   */\n  iszero\n  tag_89\n  jumpi\n    /* \"#utility.yul\":3408:3487   */\n  tag_90\n  tag_14\n  jump\t// in\ntag_90:\n    /* \"#utility.yul\":3372:3489   */\ntag_89:\n    /* \"#utility.yul\":3513:3587   */\n  tag_91\n    /* \"#utility.yul\":3579:3586   */\n  dup7\n    /* \"#utility.yul\":3570:3576   */\n  dup3\n    /* \"#utility.yul\":3559:3568   */\n  dup8\n    /* \"#utility.yul\":3555:3577   */\n  add\n    /* \"#utility.yul\":3513:3587   */\n  tag_24\n  jump\t// in\ntag_91:\n    /* \"#utility.yul\":3503:3587   */\n  swap4\n  pop\n    /* \"#utility.yul\":3306:3597   */\n  pop\n    /* \"#utility.yul\":3657:3659   */\n  0x20\n    /* \"#utility.yul\":3646:3655   */\n  dup5\n    /* \"#utility.yul\":3642:3660   */\n  add\n    /* \"#utility.yul\":3636:3661   */\n  mload\n    /* \"#utility.yul\":3688:3706   */\n  0xffffffffffffffff\n    /* \"#utility.yul\":3680:3686   */\n  dup2\n    /* \"#utility.yul\":3677:3707   */\n  gt\n    /* \"#utility.yul\":3674:3791   */\n  iszero\n  tag_92\n  jumpi\n    /* \"#utility.yul\":3710:3789   */\n  tag_93\n  tag_14\n  jump\t// in\ntag_93:\n    /* \"#utility.yul\":3674:3791   */\ntag_92:\n    /* \"#utility.yul\":3815:3889   */\n  tag_94\n    /* \"#utility.yul\":3881:3888   */\n  dup7\n    /* \"#utility.yul\":3872:3878   */\n  dup3\n    /* \"#utility.yul\":3861:3870   */\n  dup8\n    /* \"#utility.yul\":3857:3879   */\n  add\n    /* \"#utility.yul\":3815:3889   */\n  tag_24\n  jump\t// in\ntag_94:\n    /* \"#utility.yul\":3805:3889   */\n  swap3\n  pop\n    /* \"#utility.yul\":3607:3899   */\n  pop\n    /* \"#utility.yul\":3938:3940   */\n  0x40\n    /* \"#utility.yul\":3964:4026   */\n  tag_95\n    /* \"#utility.yul\":4018:4025   */\n  dup7\n    /* \"#utility.yul\":4009:4015   */\n  dup3\n    /* \"#utility.yul\":3998:4007   */\n  dup8\n    /* \"#utility.yul\":3994:4016   */\n  add\n    /* \"#utility.yul\":3964:4026   */\n  tag_27\n  jump\t// in\ntag_95:\n    /* \"#utility.yul\":3954:4026   */\n  swap2\n  pop\n    /* \"#utility.yul\":3909:4036   */\n  pop\n    /* \"#utility.yul\":3038:4043   */\n  swap3\n  pop\n  swap3\n  pop\n  swap3\n  jump\t// out\n    /* \"#utility.yul\":4049:4148   */\ntag_28:\n    /* \"#utility.yul\":4101:4107   */\n  0x00\n    /* \"#utility.yul\":4135:4140   */\n  dup2\n    /* \"#utility.yul\":4129:4141   */\n  mload\n    /* \"#utility.yul\":4119:4141   */\n  swap1\n  pop\n    /* \"#utility.yul\":4049:4148   */\n  swap2\n  swap1\n  pop\n  jump\t// out\n    /* \"#utility.yul\":4154:4334   */\ntag_29:\n    /* \"#utility.yul\":4202:4279   */\n  0x4e487b7100000000000000000000000000000000000000000000000000000000\n    /* \"#utility.yul\":4199:4200   */\n  0x00\n    /* \"#utility.yul\":4192:4280   */\n  mstore\n    /* \"#utility.yul\":4299:4303   */\n  0x22\n    /* \"#utility.yul\":4296:4297   */\n  0x04\n    /* \"#utility.yul\":4289:4304   */\n  mstore\n    /* \"#utility.yul\":4323:4327   */\n  0x24\n    /* \"#utility.yul\":4320:4321   */\n  0x00\n    /* \"#utility.yul\":4313:4328   */\n  revert\n    /* \"#utility.yul\":4340:4660   */\ntag_30:\n    /* \"#utility.yul\":4384:4390   */\n  0x00\n    /* \"#utility.yul\":4421:4422   */\n  0x02\n    /* \"#utility.yul\":4415:4419   */\n  dup3\n    /* \"#utility.yul\":4411:4423   */\n  div\n    /* \"#utility.yul\":4401:4423   */\n  swap1\n  pop\n    /* \"#utility.yul\":4468:4469   */\n  0x01\n    /* \"#utility.yul\":4462:4466   */\n  dup3\n    /* \"#utility.yul\":4458:4470   */\n  and\n    /* \"#utility.yul\":4489:4507   */\n  dup1\n    /* \"#utility.yul\":4479:4560   */\n  tag_99\n  jumpi\n    /* \"#utility.yul\":4545:4549   */\n  0x7f\n    /* \"#utility.yul\":4537:4543   */\n  dup3\n    /* \"#utility.yul\":4533:4550   */\n  and\n    /* \"#utility.yul\":4523:4550   */\n  swap2\n  pop\n    /* \"#utility.yul\":4479:4560   */\ntag_99:\n    /* \"#utility.yul\":4607:4609   */\n  0x20\n    /* \"#utility.yul\":4599:4605   */\n  dup3\n    /* \"#utility.yul\":4596:4610   */\n  lt\n    /* \"#utility.yul\":4576:4594   */\n  dup2\n    /* \"#utility.yul\":4573:4611   */\n  sub\n    /* \"#utility.yul\":4570:4654   */\n  tag_100\n  jumpi\n    /* \"#utility.yul\":4626:4644   */\n  tag_101\n  tag_29\n  jump\t// in\ntag_101:\n    /* \"#utility.yul\":4570:4654   */\ntag_100:\n    /* \"#utility.yul\":4391:4660   */\n  pop\n    /* \"#utility.yul\":4340:4660   */\n  swap2\n  swap1\n  pop\n  jump\t// out\n    /* \"#utility.yul\":4666:4807   */\ntag_31:\n    /* \"#utility.yul\":4715:4719   */\n  0x00\n    /* \"#utility.yul\":4738:4741   */\n  dup2\n    /* \"#utility.yul\":4730:4741   */\n  swap1\n  pop\n    /* \"#utility.yul\":4761:4764   */\n  dup2\n    /* \"#utility.yul\":4758:4759   */\n  0x00\n    /* \"#utility.yul\":4751:4765   */\n  mstore\n    /* \"#utility.yul\":4795:4799   */\n  0x20\n    /* \"#utility.yul\":4792:4793   */\n  0x00\n    /* \"#utility.yul\":4782:4800   */\n  keccak256\n    /* \"#utility.yul\":4774:4800   */\n  swap1\n  pop\n    /* \"#utility.yul\":4666:4807   */\n  swap2\n  swap1\n  pop\n  jump\t// out\n    /* \"#utility.yul\":4813:4906   */\ntag_32:\n    /* \"#utility.yul\":4850:4856   */\n  0x00\n    /* \"#utility.yul\":4897:4899   */\n  0x20\n    /* \"#utility.yul\":4892:4894   */\n  0x1f\n    /* \"#utility.yul\":4885:4890   */\n  dup4\n    /* \"#utility.yul\":4881:4895   */\n  add\n    /* \"#utility.yul\":4877:4900   */\n  div\n    /* \"#utility.yul\":4867:4900   */\n  swap1\n  pop\n    /* \"#utility.yul\":4813:4906   */\n  swap2\n  swap1\n  pop\n  jump\t// out\n    /* \"#utility.yul\":4912:5019   */\ntag_33:\n    /* \"#utility.yul\":4956:4964   */\n  0x00\n    /* \"#utility.yul\":5006:5011   */\n  dup3\n    /* \"#utility.yul\":5000:5004   */\n  dup3\n    /* \"#utility.yul\":4996:5012   */\n  shl\n    /* \"#utility.yul\":4975:5012   */\n  swap1\n  pop\n    /* \"#utility.yul\":4912:5019   */\n  swap3\n  swap2\n  pop\n  pop\n  jump\t// out\n    /* \"#utility.yul\":5025:5418   */\ntag_34:\n    /* \"#utility.yul\":5094:5100   */\n  0x00\n    /* \"#utility.yul\":5144:5145   */\n  0x08\n    /* \"#utility.yul\":5132:5142   */\n  dup4\n    /* \"#utility.yul\":5128:5146   */\n  mul\n    /* \"#utility.yul\":5167:5264   */\n  tag_106\n    /* \"#utility.yul\":5197:5263   */\n  0xffffffffffffffffffffffffffffffffffffffffffffffffffffffffffffffff\n    /* \"#utility.yul\":5186:5195   */\n  dup3\n    /* \"#utility.yul\":5167:5264   */\n  tag_33\n  jump\t// in\ntag_106:\n    /* \"#utility.yul\":5285:5324   */\n  tag_107\n    /* \"#utility.yul\":5315:5323   */\n  dup7\n    /* \"#utility.yul\":5304:5313   */\n  dup4\n    /* \"#utility.yul\":5285:5324   */\n  tag_33\n  jump\t// in\ntag_107:\n    /* \"#utility.yul\":5273:5324   */\n  swap6\n  pop\n    /* \"#utility.yul\":5357:5361   */\n  dup1\n    /* \"#utility.yul\":5353:5362   */\n  not\n    /* \"#utility.yul\":5346:5351   */\n  dup5\n    /* \"#utility.yul\":5342:5363   */\n  and\n    /* \"#utility.yul\":5333:5363   */\n  swap4\n  pop\n    /* \"#utility.yul\":5406:5410   */\n  dup1\n    /* \"#utility.yul\":5396:5404   */\n  dup7\n    /* \"#utility.yul\":5392:5411   */\n  and\n    /* \"#utility.yul\":5385:5390   */\n  dup5\n    /* \"#utility.yul\":5382:5412   */\n  or\n    /* \"#utility.yul\":5372:5412   */\n  swap3\n  pop\n    /* \"#utility.yul\":5101:5418   */\n  pop\n  pop\n    /* \"#utility.yul\":5025:5418   */\n  swap4\n  swap3\n  pop\n  pop\n  pop\n  jump\t// out\n    /* \"#utility.yul\":5424:5501   */\ntag_35:\n    /* \"#utility.yul\":5461:5468   */\n  0x00\n    /* \"#utility.yul\":5490:5495   */\n  dup2\n    /* \"#utility.yul\":5479:5495   */\n  swap1\n  pop\n    /* \"#utility.yul\":5424:5501   */\n  swap2\n  swap1\n  pop\n  jump\t// out\n    /* \"#utility.yul\":5507:5567   */\ntag_36:\n    /* \"#utility.yul\":5535:5538   */\n  0x00\n    /* \"#utility.yul\":5556:5561   */\n  dup2\n    /* \"#utility.yul\":5549:5561   */\n  swap1\n  pop\n    /* \"#utility.yul\":5507:5567   */\n  swap2\n  swap1\n  pop\n  jump\t// out\n    /* \"#utility.yul\":5573:5715   */\ntag_37:\n    /* \"#utility.yul\":5623:5632   */\n  0x00\n    /* \"#utility.yul\":5656:5709   */\n  tag_111\n    /* \"#utility.yul\":5674:5708   */\n  tag_112\n    /* \"#utility.yul\":5683:5707   */\n  tag_113\n    /* \"#utility.yul\":5701:5706   */\n  dup5\n    /* \"#utility.yul\":5683:5707   */\n  tag_35\n  jump\t// in\ntag_113:\n    /* \"#utility.yul\":5674:5708   */\n  tag_36\n  jump\t// in\ntag_112:\n    /* \"#utility.yul\":5656:5709   */\n  tag_35\n  jump\t// in\ntag_111:\n    /* \"#utility.yul\":5643:5709   */\n  swap1\n  pop\n    /* \"#utility.yul\":5573:5715   */\n  swap2\n  swap1\n  pop\n  jump\t// out\n    /* \"#utility.yul\":5721:5796   */\ntag_38:\n    /* \"#utility.yul\":5764:5767   */\n  0x00\n    /* \"#utility.yul\":5785:5790   */\n  dup2\n    /* \"#utility.yul\":5778:5790   */\n  swap1\n  pop\n    /* \"#utility.yul\":5721:5796   */\n  swap2\n  swap1\n  pop\n  jump\t// out\n    /* \"#utility.yul\":5802:6071   */\ntag_39:\n    /* \"#utility.yul\":5912:5951   */\n  tag_116\n    /* \"#utility.yul\":5943:5950   */\n  dup4\n    /* \"#utility.yul\":5912:5951   */\n  tag_37\n  jump\t// in\ntag_116:\n    /* \"#utility.yul\":5973:6064   */\n  tag_117\n    /* \"#utility.yul\":6022:6063   */\n  tag_118\n    /* \"#utility.yul\":6046:6062   */\n  dup3\n    /* \"#utility.yul\":6022:6063   */\n  tag_38\n  jump\t// in\ntag_118:\n    /* \"#utility.yul\":6014:6020   */\n  dup5\n    /* \"#utility.yul\":6007:6011   */\n  dup5\n    /* \"#utility.yul\":6001:6012   */\n  sload\n    /* \"#utility.yul\":5973:6064   */\n  tag_34\n  jump\t// in\ntag_117:\n    /* \"#utility.yul\":5967:5971   */\n  dup3\n    /* \"#utility.yul\":5960:6065   */\n  sstore\n    /* \"#utility.yul\":5878:6071   */\n  pop\n    /* \"#utility.yul\":5802:6071   */\n  pop\n  pop\n  pop\n  jump\t// out\n    /* \"#utility.yul\":6077:6150   */\ntag_40:\n    /* \"#utility.yul\":6122:6125   */\n  0x00\n    /* \"#utility.yul\":6077:6150   */\n  swap1\n  jump\t// out\n    /* \"#utility.yul\":6156:6345   */\ntag_41:\n    /* \"#utility.yul\":6233:6265   */\n  tag_121\n  tag_40\n  jump\t// in\ntag_121:\n    /* \"#utility.yul\":6274:6339   */\n  tag_122\n    /* \"#utility.yul\":6332:6338   */\n  dup2\n    /* \"#utility.yul\":6324:6330   */\n  dup5\n    /* \"#utility.yul\":6318:6322   */\n  dup5\n    /* \"#utility.yul\":6274:6339   */\n  tag_39\n  jump\t// in\ntag_122:\n    /* \"#utility.yul\":6209:6345   */\n  pop\n    /* \"#utility.yul\":6156:6345   */\n  pop\n  pop\n  jump\t// out\n    /* \"#utility.yul\":6351:6537   */\ntag_42:\n    /* \"#utility.yul\":6411:6531   */\ntag_124:\n    /* \"#utility.yul\":6428:6431   */\n  dup2\n    /* \"#utility.yul\":6421:6426   */\n  dup2\n    /* \"#utility.yul\":6418:6432   */\n  lt\n    /* \"#utility.yul\":6411:6531   */\n  iszero\n  tag_126\n  jumpi\n    /* \"#utility.yul\":6482:6521   */\n  tag_127\n    /* \"#utility.yul\":6519:6520   */\n  0x00\n    /* \"#utility.yul\":6512:6517   */\n  dup3\n    /* \"#utility.yul\":6482:6521   */\n  tag_41\n  jump\t// in\ntag_127:\n    /* \"#utility.yul\":6455:6456   */\n  0x01\n    /* \"#utility.yul\":6448:6453   */\n  dup2\n    /* \"#utility.yul\":6444:6457   */\n  add\n    /* \"#utility.yul\":6435:6457   */\n  swap1\n  pop\n    /* \"#utility.yul\":6411:6531   */\n  jump(tag_124)\ntag_126:\n    /* \"#utility.yul\":6351:6537   */\n  pop\n  pop\n  jump\t// out\n    /* \"#utility.yul\":6543:7086   */\ntag_43:\n    /* \"#utility.yul\":6644:6646   */\n  0x1f\n    /* \"#utility.yul\":6639:6642   */\n  dup3\n    /* \"#utility.yul\":6636:6647   */\n  gt\n    /* \"#utility.yul\":6633:7079   */\n  iszero\n  tag_129\n  jumpi\n    /* \"#utility.yul\":6678:6716   */\n  tag_130\n    /* \"#utility.yul\":6710:6715   */\n  dup2\n    /* \"#utility.yul\":6678:6716   */\n  tag_31\n  jump\t// in\ntag_130:\n    /* \"#utility.yul\":6762:6791   */\n  tag_131\n    /* \"#utility.yul\":6780:6790   */\n  dup5\n    /* \"#utility.yul\":6762:6791   */\n  tag_32\n  jump\t// in\ntag_131:\n    /* \"#utility.yul\":6752:6760   */\n  dup2\n    /* \"#utility.yul\":6748:6792   */\n  add\n    /* \"#utility.yul\":6945:6947   */\n  0x20\n    /* \"#utility.yul\":6933:6943   */\n  dup6\n    /* \"#utility.yul\":6930:6948   */\n  lt\n    /* \"#utility.yul\":6927:6976   */\n  iszero\n  tag_132\n  jumpi\n    /* \"#utility.yul\":6966:6974   */\n  dup2\n    /* \"#utility.yul\":6951:6974   */\n  swap1\n  pop\n    /* \"#utility.yul\":6927:6976   */\ntag_132:\n    /* \"#utility.yul\":6989:7069   */\n  tag_133\n    /* \"#utility.yul\":7045:7067   */\n  tag_134\n    /* \"#utility.yul\":7063:7066   */\n  dup6\n    /* \"#utility.yul\":7045:7067   */\n  tag_32\n  jump\t// in\ntag_134:\n    /* \"#utility.yul\":7035:7043   */\n  dup4\n    /* \"#utility.yul\":7031:7068   */\n  add\n    /* \"#utility.yul\":7018:7029   */\n  dup3\n    /* \"#utility.yul\":6989:7069   */\n  tag_42\n  jump\t// in\ntag_133:\n    /* \"#utility.yul\":6648:7079   */\n  pop\n  pop\n    /* \"#utility.yul\":6633:7079   */\ntag_129:\n    /* \"#utility.yul\":6543:7086   */\n  pop\n  pop\n  pop\n  jump\t// out\n    /* \"#utility.yul\":7092:7209   */\ntag_44:\n    /* \"#utility.yul\":7146:7154   */\n  0x00\n    /* \"#utility.yul\":7196:7201   */\n  dup3\n    /* \"#utility.yul\":7190:7194   */\n  dup3\n    /* \"#utility.yul\":7186:7202   */\n  shr\n    /* \"#utility.yul\":7165:7202   */\n  swap1\n  pop\n    /* \"#utility.yul\":7092:7209   */\n  swap3\n  swap2\n  pop\n  pop\n  jump\t// out\n    /* \"#utility.yul\":7215:7384   */\ntag_45:\n    /* \"#utility.yul\":7259:7265   */\n  0x00\n    /* \"#utility.yul\":7292:7343   */\n  tag_137\n    /* \"#utility.yul\":7340:7341   */\n  0x00\n    /* \"#utility.yul\":7336:7342   */\n  not\n    /* \"#utility.yul\":7328:7333   */\n  dup5\n    /* \"#utility.yul\":7325:7326   */\n  0x08\n    /* \"#utility.yul\":7321:7334   */\n  mul\n    /* \"#utility.yul\":7292:7343   */\n  tag_44\n  jump\t// in\ntag_137:\n    /* \"#utility.yul\":7288:7344   */\n  not\n    /* \"#utility.yul\":7373:7377   */\n  dup1\n    /* \"#utility.yul\":7367:7371   */\n  dup4\n    /* \"#utility.yul\":7363:7378   */\n  and\n    /* \"#utility.yul\":7353:7378   */\n  swap2\n  pop\n    /* \"#utility.yul\":7266:7384   */\n  pop\n    /* \"#utility.yul\":7215:7384   */\n  swap3\n  swap2\n  pop\n  pop\n  jump\t// out\n    /* \"#utility.yul\":7389:7684   */\ntag_46:\n    /* \"#utility.yul\":7465:7469   */\n  0x00\n    /* \"#utility.yul\":7611:7640   */\n  tag_139\n    /* \"#utility.yul\":7636:7639   */\n  dup4\n    /* \"#utility.yul\":7630:7634   */\n  dup4\n    /* \"#utility.yul\":7611:7640   */\n  tag_45\n  jump\t// in\ntag_139:\n    /* \"#utility.yul\":7603:7640   */\n  swap2\n  pop\n    /* \"#utility.yul\":7673:7676   */\n  dup3\n    /* \"#utility.yul\":7670:7671   */\n  0x02\n    /* \"#utility.yul\":7666:7677   */\n  mul\n    /* \"#utility.yul\":7660:7664   */\n  dup3\n    /* \"#utility.yul\":7657:7678   */\n  or\n    /* \"#utility.yul\":7649:7678   */\n  swap1\n  pop\n    /* \"#utility.yul\":7389:7684   */\n  swap3\n  swap2\n  pop\n  pop\n  jump\t// out\n    /* \"#utility.yul\":7689:9084   */\ntag_9:\n    /* \"#utility.yul\":7806:7843   */\n  tag_141\n    /* \"#utility.yul\":7839:7842   */\n  dup3\n    /* \"#utility.yul\":7806:7843   */\n  tag_28\n  jump\t// in\ntag_141:\n    /* \"#utility.yul\":7908:7926   */\n  0xffffffffffffffff\n    /* \"#utility.yul\":7900:7906   */\n  dup2\n    /* \"#utility.yul\":7897:7927   */\n  gt\n    /* \"#utility.yul\":7894:7950   */\n  iszero\n  tag_142\n  jumpi\n    /* \"#utility.yul\":7930:7948   */\n  tag_143\n  tag_18\n  jump\t// in\ntag_143:\n    /* \"#utility.yul\":7894:7950   */\ntag_142:\n    /* \"#utility.yul\":7974:8012   */\n  tag_144\n    /* \"#utility.yul\":8006:8010   */\n  dup3\n    /* \"#utility.yul\":8000:8011   */\n  sload\n    /* \"#utility.yul\":7974:8012   */\n  tag_30\n  jump\t// in\ntag_144:\n    /* \"#utility.yul\":8059:8126   */\n  tag_145\n    /* \"#utility.yul\":8119:8125   */\n  dup3\n    /* \"#utility.yul\":8111:8117   */\n  dup3\n    /* \"#utility.yul\":8105:8109   */\n  dup6\n    /* \"#utility.yul\":8059:8126   */\n  tag_43\n  jump\t// in\ntag_145:\n    /* \"#utility.yul\":8153:8154   */\n  0x00\n    /* \"#utility.yul\":8177:8181   */\n  0x20\n    /* \"#utility.yul\":8164:8181   */\n  swap1\n  pop\n    /* \"#utility.yul\":8209:8211   */\n  0x1f\n    /* \"#utility.yul\":8201:8207   */\n  dup4\n    /* \"#utility.yul\":8198:8212   */\n  gt\n    /* \"#utility.yul\":8226:8227   */\n  0x01\n    /* \"#utility.yul\":8221:8839   */\n  dup2\n  eq\n  tag_147\n  jumpi\n    /* \"#utility.yul\":8883:8884   */\n  0x00\n    /* \"#utility.yul\":8900:8906   */\n  dup5\n    /* \"#utility.yul\":8897:8974   */\n  iszero\n  tag_148\n  jumpi\n    /* \"#utility.yul\":8949:8958   */\n  dup3\n    /* \"#utility.yul\":8944:8947   */\n  dup8\n    /* \"#utility.yul\":8940:8959   */\n  add\n    /* \"#utility.yul\":8934:8960   */\n  mload\n    /* \"#utility.yul\":8925:8960   */\n  swap1\n  pop\n    /* \"#utility.yul\":8897:8974   */\ntag_148:\n    /* \"#utility.yul\":9000:9067   */\n  tag_149\n    /* \"#utility.yul\":9060:9066   */\n  dup6\n    /* \"#utility.yul\":9053:9058   */\n  dup3\n    /* \"#utility.yul\":9000:9067   */\n  tag_46\n  jump\t// in\ntag_149:\n    /* \"#utility.yul\":8994:8998   */\n  dup7\n    /* \"#utility.yul\":8987:9068   */\n  sstore\n    /* \"#utility.yul\":8856:9078   */\n  pop\n    /* \"#utility.yul\":8191:9078   */\n  jump(tag_146)\n    /* \"#utility.yul\":8221:8839   */\ntag_147:\n    /* \"#utility.yul\":8273:8277   */\n  0x1f\n    /* \"#utility.yul\":8269:8278   */\n  not\n    /* \"#utility.yul\":8261:8267   */\n  dup5\n    /* \"#utility.yul\":8257:8279   */\n  and\n    /* \"#utility.yul\":8307:8344   */\n  tag_150\n    /* \"#utility.yul\":8339:8343   */\n  dup7\n    /* \"#utility.yul\":8307:8344   */\n  tag_31\n  jump\t// in\ntag_150:\n    /* \"#utility.yul\":8366:8367   */\n  0x00\n    /* \"#utility.yul\":8380:8588   */\ntag_151:\n    /* \"#utility.yul\":8394:8401   */\n  dup3\n    /* \"#utility.yul\":8391:8392   */\n  dup2\n    /* \"#utility.yul\":8388:8402   */\n  lt\n    /* \"#utility.yul\":8380:8588   */\n  iszero\n  tag_153\n  jumpi\n    /* \"#utility.yul\":8473:8482   */\n  dup5\n    /* \"#utility.yul\":8468:8471   */\n  dup10\n    /* \"#utility.yul\":8464:8483   */\n  add\n    /* \"#utility.yul\":8458:8484   */\n  mload\n    /* \"#utility.yul\":8450:8456   */\n  dup3\n    /* \"#utility.yul\":8443:8485   */\n  sstore\n    /* \"#utility.yul\":8524:8525   */\n  0x01\n    /* \"#utility.yul\":8516:8522   */\n  dup3\n    /* \"#utility.yul\":8512:8526   */\n  add\n    /* \"#utility.yul\":8502:8526   */\n  swap2\n  pop\n    /* \"#utility.yul\":8571:8573   */\n  0x20\n    /* \"#utility.yul\":8560:8569   */\n  dup6\n    /* \"#utility.yul\":8556:8574   */\n  add\n    /* \"#utility.yul\":8543:8574   */\n  swap5\n  pop\n    /* \"#utility.yul\":8417:8421   */\n  0x20\n    /* \"#utility.yul\":8414:8415   */\n  dup2\n    /* \"#utility.yul\":8410:8422   */\n  add\n    /* \"#utility.yul\":8405:8422   */\n  swap1\n  pop\n    /* \"#utility.yul\":8380:8588   */\n  jump(tag_151)\ntag_153:\n    /* \"#utility.yul\":8616:8622   */\n  dup7\n    /* \"#utility.yul\":8607:8614   */\n  dup4\n    /* \"#utility.yul\":8604:8623   */\n  lt\n    /* \"#utility.yul\":8601:8780   */\n  iszero\n  tag_154\n  jumpi\n    /* \"#utility.yul\":8674:8683   */\n  dup5\n    /* \"#utility.yul\":8669:8672   */\n  dup10\n    /* \"#utility.yul\":8665:8684   */\n  add\n    /* \"#utility.yul\":8659:8685   */\n  mload\n    /* \"#utility.yul\":8717:8765   */\n  tag_155\n    /* \"#utility.yul\":8759:8763   */\n  0x1f\n    /* \"#utility.yul\":8751:8757   */\n  dup10\n    /* \"#utility.yul\":8747:8764   */\n  and\n    /* \"#utility.yul\":8736:8745   */\n  dup3\n    /* \"#utility.yul\":8717:8765   */\n  tag_45\n  jump\t// in\ntag_155:\n    /* \"#utility.yul\":8709:8715   */\n  dup4\n    /* \"#utility.yul\":8702:8766   */\n  sstore\n    /* \"#utility.yul\":8624:8780   */\n  pop\n    /* \"#utility.yul\":8601:8780   */\ntag_154:\n    /* \"#utility.yul\":8826:8827   */\n  0x01\n    /* \"#utility.yul\":8822:8823   */\n  0x02\n    /* \"#utility.yul\":8814:8820   */\n  dup9\n    /* \"#utility.yul\":8810:8824   */\n  mul\n    /* \"#utility.yul\":8806:8828   */\n  add\n    /* \"#utility.yul\":8800:8804   */\n  dup9\n    /* \"#utility.yul\":8793:8829   */\n  sstore\n    /* \"#utility.yul\":8228:8839   */\n  pop\n  pop\n  pop\n    /* \"#utility.yul\":8191:9078   */\ntag_146:\n  pop\n    /* \"#utility.yul\":7781:9084   */\n  pop\n  pop\n  pop\n    /* \"#utility.yul\":7689:9084   */\n  pop\n  pop\n  jump\t// out\n    /* \"blockchain/contracts/Polygon/Pool/Prototype/pool/token.sol\":167:3838  contract Token is IERC20 {... */\ntag_11:\n  dataSize(sub_0)\n  dup1\n  dataOffset(sub_0)\n  0x00\n  codecopy\n  0x00\n  return\nstop\n\nsub_0: assembly {\n        /* \"blockchain/contracts/Polygon/Pool/Prototype/pool/token.sol\":167:3838  contract Token is IERC20 {... */\n      mstore(0x40, 0x80)\n      callvalue\n      dup1\n      iszero\n      tag_1\n      jumpi\n      0x00\n      dup1\n      revert\n    tag_1:\n      pop\n      jumpi(tag_2, lt(calldatasize, 0x04))\n      shr(0xe0, calldataload(0x00))\n      dup1\n      0x42966c68\n      gt\n      tag_14\n      jumpi\n      dup1\n      0x42966c68\n      eq\n      tag_8\n      jumpi\n      dup1\n      0x70a08231\n      eq\n      tag_9\n      jumpi\n      dup1\n      0x95d89b41\n      eq\n      tag_10\n      jumpi\n      dup1\n      0xa0712d68\n      eq\n      tag_11\n      jumpi\n      dup1\n      0xa9059cbb\n      eq\n      tag_12\n      jumpi\n      dup1\n      0xdd62ed3e\n      eq\n      tag_13\n      jumpi\n      jump(tag_2)\n    tag_14:\n      dup1\n      0x06fdde03\n      eq\n      tag_3\n      jumpi\n      dup1\n      0x095ea7b3\n      eq\n      tag_4\n      jumpi\n      dup1\n      0x18160ddd\n      eq\n      tag_5\n      jumpi\n      dup1\n      0x23b872dd\n      eq\n      tag_6\n      jumpi\n      dup1\n      0x313ce567\n      eq\n      tag_7\n      jumpi\n    tag_2:\n      0x00\n      dup1\n      revert\n        /* \"blockchain/contracts/Polygon/Pool/Prototype/pool/token.sol\":3194:3279  function name() public view returns (string memory) {... */\n    tag_3:\n      tag_15\n      tag_16\n      jump\t// in\n    tag_15:\n      mload(0x40)\n      tag_17\n      swap2\n      swap1\n      tag_18\n      jump\t// in\n    tag_17:\n      mload(0x40)\n      dup1\n      swap2\n      sub\n      swap1\n      return\n        /* \"blockchain/contracts/Polygon/Pool/Prototype/pool/token.sol\":2588:2924  function approve( address _spender, uint256 _value ) public returns (bool) {... */\n    tag_4:\n      tag_19\n      0x04\n      dup1\n      calldatasize\n      sub\n      dup2\n      add\n      swap1\n      tag_20\n      swap2\n      swap1\n      tag_21\n      jump\t// in\n    tag_20:\n      tag_22\n      jump\t// in\n    tag_19:\n      mload(0x40)\n      tag_23\n      swap2\n      swap1\n      tag_24\n      jump\t// in\n    tag_23:\n      mload(0x40)\n      dup1\n      swap2\n      sub\n      swap1\n      return\n        /* \"blockchain/contracts/Polygon/Pool/Prototype/pool/token.sol\":3475:3569  function totalSupply() public view returns (uint256) {... */\n    tag_5:\n      tag_25\n      tag_26\n      jump\t// in\n    tag_25:\n      mload(0x40)\n      tag_27\n      swap2\n      swap1\n      tag_28\n      jump\t// in\n    tag_27:\n      mload(0x40)\n      dup1\n      swap2\n      sub\n      swap1\n      return\n        /* \"blockchain/contracts/Polygon/Pool/Prototype/pool/token.sol\":2209:2582  function transferFrom( address _from, address _to, uint256 _value ) public returns (bool) {... */\n    tag_6:\n      tag_29\n      0x04\n      dup1\n      calldatasize\n      sub\n      dup2\n      add\n      swap1\n      tag_30\n      swap2\n      swap1\n      tag_31\n      jump\t// in\n    tag_30:\n      tag_32\n      jump\t// in\n    tag_29:\n      mload(0x40)\n      tag_33\n      swap2\n      swap1\n      tag_24\n      jump\t// in\n    tag_33:\n      mload(0x40)\n      dup1\n      swap2\n      sub\n      swap1\n      return\n        /* \"blockchain/contracts/Polygon/Pool/Prototype/pool/token.sol\":3384:3469  function decimals() public view returns (uint8) {... */\n    tag_7:\n      tag_34\n      tag_35\n      jump\t// in\n    tag_34:\n      mload(0x40)\n      tag_36\n      swap2\n      swap1\n      tag_37\n      jump\t// in\n    tag_36:\n      mload(0x40)\n      dup1\n      swap2\n      sub\n      swap1\n      return\n        /* \"blockchain/contracts/Polygon/Pool/Prototype/pool/token.sol\":3060:3188  function burn( uint256 _value ) public only_admin {... */\n    tag_8:\n      tag_38\n      0x04\n      dup1\n      calldatasize\n      sub\n      dup2\n      add\n      swap1\n      tag_39\n      swap2\n      swap1\n      tag_40\n      jump\t// in\n    tag_39:\n      tag_41\n      jump\t// in\n    tag_38:\n      stop\n        /* \"blockchain/contracts/Polygon/Pool/Prototype/pool/token.sol\":3575:3685  function balanceOf( address _owner ) public view returns (uint256) {... */\n    tag_9:\n      tag_42\n      0x04\n      dup1\n      calldatasize\n      sub\n      dup2\n      add\n      swap1\n      tag_43\n      swap2\n      swap1\n      tag_44\n      jump\t// in\n    tag_43:\n      tag_45\n      jump\t// in\n    tag_42:\n      mload(0x40)\n      tag_46\n      swap2\n      swap1\n      tag_28\n      jump\t// in\n    tag_46:\n      mload(0x40)\n      dup1\n      swap2\n      sub\n      swap1\n      return\n        /* \"blockchain/contracts/Polygon/Pool/Prototype/pool/token.sol\":3289:3378  function symbol() public view returns (string memory) {... */\n    tag_10:\n      tag_47\n      tag_48\n      jump\t// in\n    tag_47:\n      mload(0x40)\n      tag_49\n      swap2\n      swap1\n      tag_18\n      jump\t// in\n    tag_49:\n      mload(0x40)\n      dup1\n      swap2\n      sub\n      swap1\n      return\n        /* \"blockchain/contracts/Polygon/Pool/Prototype/pool/token.sol\":2930:3054  function mint( uint256 _value ) public only_admin {... */\n    tag_11:\n      tag_50\n      0x04\n      dup1\n      calldatasize\n      sub\n      dup2\n      add\n      swap1\n      tag_51\n      swap2\n      swap1\n      tag_40\n      jump\t// in\n    tag_51:\n      tag_52\n      jump\t// in\n    tag_50:\n      stop\n        /* \"blockchain/contracts/Polygon/Pool/Prototype/pool/token.sol\":2015:2203  function transfer( address _to, uint256 _value ) public returns (bool) {... */\n    tag_12:\n      tag_53\n      0x04\n      dup1\n      calldatasize\n      sub\n      dup2\n      add\n      swap1\n      tag_54\n      swap2\n      swap1\n      tag_21\n      jump\t// in\n    tag_54:\n      tag_55\n      jump\t// in\n    tag_53:\n      mload(0x40)\n      tag_56\n      swap2\n      swap1\n      tag_24\n      jump\t// in\n    tag_56:\n      mload(0x40)\n      dup1\n      swap2\n      sub\n      swap1\n      return\n        /* \"blockchain/contracts/Polygon/Pool/Prototype/pool/token.sol\":3695:3835  function allowance( address _owner, address _spender ) public view returns (uint256) {... */\n    tag_13:\n      tag_57\n      0x04\n      dup1\n      calldatasize\n      sub\n      dup2\n      add\n      swap1\n      tag_58\n      swap2\n      swap1\n      tag_59\n      jump\t// in\n    tag_58:\n      tag_60\n      jump\t// in\n    tag_57:\n      mload(0x40)\n      tag_61\n      swap2\n      swap1\n      tag_28\n      jump\t// in\n    tag_61:\n      mload(0x40)\n      dup1\n      swap2\n      sub\n      swap1\n      return\n        /* \"blockchain/contracts/Polygon/Pool/Prototype/pool/token.sol\":3194:3279  function name() public view returns (string memory) {... */\n    tag_16:\n        /* \"blockchain/contracts/Polygon/Pool/Prototype/pool/token.sol\":3231:3244  string memory */\n      0x60\n        /* \"blockchain/contracts/Polygon/Pool/Prototype/pool/token.sol\":3264:3266  my */\n      0x00\n        /* \"blockchain/contracts/Polygon/Pool/Prototype/pool/token.sol\":3264:3271  my.name */\n      dup1\n      add\n        /* \"blockchain/contracts/Polygon/Pool/Prototype/pool/token.sol\":3257:3271  return my.name */\n      dup1\n      sload\n      tag_63\n      swap1\n      tag_64\n      jump\t// in\n    tag_63:\n      dup1\n      0x1f\n      add\n      0x20\n      dup1\n      swap2\n      div\n      mul\n      0x20\n      add\n      mload(0x40)\n      swap1\n      dup2\n      add\n      0x40\n      mstore\n      dup1\n      swap3\n      swap2\n      swap1\n      dup2\n      dup2\n      mstore\n      0x20\n      add\n      dup3\n      dup1\n      sload\n      tag_65\n      swap1\n      tag_64\n      jump\t// in\n    tag_65:\n      dup1\n      iszero\n      tag_66\n      jumpi\n      dup1\n      0x1f\n      lt\n      tag_67\n      jumpi\n      0x0100\n      dup1\n      dup4\n      sload\n      div\n      mul\n      dup4\n      mstore\n      swap2\n      0x20\n      add\n      swap2\n      jump(tag_66)\n    tag_67:\n      dup3\n      add\n      swap2\n      swap1\n      0x00\n      mstore\n      keccak256(0x00, 0x20)\n      swap1\n    tag_68:\n      dup2\n      sload\n      dup2\n      mstore\n      swap1\n      0x01\n      add\n      swap1\n      0x20\n      add\n      dup1\n      dup4\n      gt\n      tag_68\n      jumpi\n      dup3\n      swap1\n      sub\n      0x1f\n      and\n      dup3\n      add\n      swap2\n    tag_66:\n      pop\n      pop\n      pop\n      pop\n      pop\n      swap1\n      pop\n        /* \"blockchain/contracts/Polygon/Pool/Prototype/pool/token.sol\":3194:3279  function name() public view returns (string memory) {... */\n      swap1\n      jump\t// out\n        /* \"blockchain/contracts/Polygon/Pool/Prototype/pool/token.sol\":2588:2924  function approve( address _spender, uint256 _value ) public returns (bool) {... */\n    tag_22:\n        /* \"blockchain/contracts/Polygon/Pool/Prototype/pool/token.sol\":2657:2661  bool */\n      0x00\n        /* \"blockchain/contracts/Polygon/Pool/Prototype/pool/token.sol\":2682:2696  address _owner */\n      dup1\n        /* \"blockchain/contracts/Polygon/Pool/Prototype/pool/token.sol\":2699:2709  msg.sender */\n      caller\n        /* \"blockchain/contracts/Polygon/Pool/Prototype/pool/token.sol\":2682:2709  address _owner = msg.sender */\n      swap1\n      pop\n        /* \"blockchain/contracts/Polygon/Pool/Prototype/pool/token.sol\":2747:2748  0 */\n      0x00\n        /* \"blockchain/contracts/Polygon/Pool/Prototype/pool/token.sol\":2729:2749  _owner != address(0) */\n      0xffffffffffffffffffffffffffffffffffffffff\n      and\n        /* \"blockchain/contracts/Polygon/Pool/Prototype/pool/token.sol\":2729:2735  _owner */\n      dup2\n        /* \"blockchain/contracts/Polygon/Pool/Prototype/pool/token.sol\":2729:2749  _owner != address(0) */\n      0xffffffffffffffffffffffffffffffffffffffff\n      and\n      sub\n        /* \"blockchain/contracts/Polygon/Pool/Prototype/pool/token.sol\":2720:2751  require( _owner != address(0) ) */\n      tag_70\n      jumpi\n      0x00\n      dup1\n      revert\n    tag_70:\n        /* \"blockchain/contracts/Polygon/Pool/Prototype/pool/token.sol\":2790:2791  0 */\n      0x00\n        /* \"blockchain/contracts/Polygon/Pool/Prototype/pool/token.sol\":2770:2792  _spender != address(0) */\n      0xffffffffffffffffffffffffffffffffffffffff\n      and\n        /* \"blockchain/contracts/Polygon/Pool/Prototype/pool/token.sol\":2770:2778  _spender */\n      dup5\n        /* \"blockchain/contracts/Polygon/Pool/Prototype/pool/token.sol\":2770:2792  _spender != address(0) */\n      0xffffffffffffffffffffffffffffffffffffffff\n      and\n      sub\n        /* \"blockchain/contracts/Polygon/Pool/Prototype/pool/token.sol\":2761:2794  require( _spender != address(0) ) */\n      tag_71\n      jumpi\n      0x00\n      dup1\n      revert\n    tag_71:\n        /* \"blockchain/contracts/Polygon/Pool/Prototype/pool/token.sol\":2837:2843  _value */\n      dup3\n        /* \"blockchain/contracts/Polygon/Pool/Prototype/pool/token.sol\":2805:2812  allowed */\n      0x06\n        /* \"blockchain/contracts/Polygon/Pool/Prototype/pool/token.sol\":2805:2822  allowed[ _owner ] */\n      0x00\n        /* \"blockchain/contracts/Polygon/Pool/Prototype/pool/token.sol\":2814:2820  _owner */\n      dup4\n        /* \"blockchain/contracts/Polygon/Pool/Prototype/pool/token.sol\":2805:2822  allowed[ _owner ] */\n      0xffffffffffffffffffffffffffffffffffffffff\n      and\n      0xffffffffffffffffffffffffffffffffffffffff\n      and\n      dup2\n      mstore\n      0x20\n      add\n      swap1\n      dup2\n      mstore\n      0x20\n      add\n      0x00\n      keccak256\n        /* \"blockchain/contracts/Polygon/Pool/Prototype/pool/token.sol\":2805:2834  allowed[ _owner ][ _spender ] */\n      0x00\n        /* \"blockchain/contracts/Polygon/Pool/Prototype/pool/token.sol\":2824:2832  _spender */\n      dup7\n        /* \"blockchain/contracts/Polygon/Pool/Prototype/pool/token.sol\":2805:2834  allowed[ _owner ][ _spender ] */\n      0xffffffffffffffffffffffffffffffffffffffff\n      and\n      0xffffffffffffffffffffffffffffffffffffffff\n      and\n      dup2\n      mstore\n      0x20\n      add\n      swap1\n      dup2\n      mstore\n      0x20\n      add\n      0x00\n      keccak256\n        /* \"blockchain/contracts/Polygon/Pool/Prototype/pool/token.sol\":2805:2843  allowed[ _owner ][ _spender ] = _value */\n      dup2\n      swap1\n      sstore\n      pop\n        /* \"blockchain/contracts/Polygon/Pool/Prototype/pool/token.sol\":2877:2885  _spender */\n      dup4\n        /* \"blockchain/contracts/Polygon/Pool/Prototype/pool/token.sol\":2859:2895  Approval( _owner, _spender, _value ) */\n      0xffffffffffffffffffffffffffffffffffffffff\n      and\n        /* \"blockchain/contracts/Polygon/Pool/Prototype/pool/token.sol\":2869:2875  _owner */\n      dup2\n        /* \"blockchain/contracts/Polygon/Pool/Prototype/pool/token.sol\":2859:2895  Approval( _owner, _spender, _value ) */\n      0xffffffffffffffffffffffffffffffffffffffff\n      and\n      0x8c5be1e5ebec7d5bd14f71427d1e84f3dd0314c0f7b2291e5b200ac8c7c3b925\n        /* \"blockchain/contracts/Polygon/Pool/Prototype/pool/token.sol\":2887:2893  _value */\n      dup6\n        /* \"blockchain/contracts/Polygon/Pool/Prototype/pool/token.sol\":2859:2895  Approval( _owner, _spender, _value ) */\n      mload(0x40)\n      tag_72\n      swap2\n      swap1\n      tag_28\n      jump\t// in\n    tag_72:\n      mload(0x40)\n      dup1\n      swap2\n      sub\n      swap1\n      log3\n        /* \"blockchain/contracts/Polygon/Pool/Prototype/pool/token.sol\":2912:2916  true */\n      0x01\n        /* \"blockchain/contracts/Polygon/Pool/Prototype/pool/token.sol\":2905:2916  return true */\n      swap2\n      pop\n      pop\n        /* \"blockchain/contracts/Polygon/Pool/Prototype/pool/token.sol\":2588:2924  function approve( address _spender, uint256 _value ) public returns (bool) {... */\n      swap3\n      swap2\n      pop\n      pop\n      jump\t// out\n        /* \"blockchain/contracts/Polygon/Pool/Prototype/pool/token.sol\":3475:3569  function totalSupply() public view returns (uint256) {... */\n    tag_26:\n        /* \"blockchain/contracts/Polygon/Pool/Prototype/pool/token.sol\":3519:3526  uint256 */\n      0x00\n        /* \"blockchain/contracts/Polygon/Pool/Prototype/pool/token.sol\":3546:3548  my */\n      dup1\n        /* \"blockchain/contracts/Polygon/Pool/Prototype/pool/token.sol\":3546:3561  my.total_supply */\n      0x03\n      add\n      sload\n        /* \"blockchain/contracts/Polygon/Pool/Prototype/pool/token.sol\":3539:3561  return my.total_supply */\n      swap1\n      pop\n        /* \"blockchain/contracts/Polygon/Pool/Prototype/pool/token.sol\":3475:3569  function totalSupply() public view returns (uint256) {... */\n      swap1\n      jump\t// out\n        /* \"blockchain/contracts/Polygon/Pool/Prototype/pool/token.sol\":2209:2582  function transferFrom( address _from, address _to, uint256 _value ) public returns (bool) {... */\n    tag_32:\n        /* \"blockchain/contracts/Polygon/Pool/Prototype/pool/token.sol\":2293:2297  bool */\n      0x00\n        /* \"blockchain/contracts/Polygon/Pool/Prototype/pool/token.sol\":2310:2328  uint256 _allowance */\n      dup1\n        /* \"blockchain/contracts/Polygon/Pool/Prototype/pool/token.sol\":2331:2338  allowed */\n      0x06\n        /* \"blockchain/contracts/Polygon/Pool/Prototype/pool/token.sol\":2331:2352  allowed[ msg.sender ] */\n      0x00\n        /* \"blockchain/contracts/Polygon/Pool/Prototype/pool/token.sol\":2340:2350  msg.sender */\n      caller\n        /* \"blockchain/contracts/Polygon/Pool/Prototype/pool/token.sol\":2331:2352  allowed[ msg.sender ] */\n      0xffffffffffffffffffffffffffffffffffffffff\n      and\n      0xffffffffffffffffffffffffffffffffffffffff\n      and\n      dup2\n      mstore\n      0x20\n      add\n      swap1\n      dup2\n      mstore\n      0x20\n      add\n      0x00\n      keccak256\n        /* \"blockchain/contracts/Polygon/Pool/Prototype/pool/token.sol\":2331:2359  allowed[ msg.sender ][ _to ] */\n      0x00\n        /* \"blockchain/contracts/Polygon/Pool/Prototype/pool/token.sol\":2354:2357  _to */\n      dup6\n        /* \"blockchain/contracts/Polygon/Pool/Prototype/pool/token.sol\":2331:2359  allowed[ msg.sender ][ _to ] */\n      0xffffffffffffffffffffffffffffffffffffffff\n      and\n      0xffffffffffffffffffffffffffffffffffffffff\n      and\n      dup2\n      mstore\n      0x20\n      add\n      swap1\n      dup2\n      mstore\n      0x20\n      add\n      0x00\n      keccak256\n      sload\n        /* \"blockchain/contracts/Polygon/Pool/Prototype/pool/token.sol\":2310:2359  uint256 _allowance = allowed[ msg.sender ][ _to ] */\n      swap1\n      pop\n        /* \"blockchain/contracts/Polygon/Pool/Prototype/pool/token.sol\":2401:2418  type(uint256).max */\n      0xffffffffffffffffffffffffffffffffffffffffffffffffffffffffffffffff\n        /* \"blockchain/contracts/Polygon/Pool/Prototype/pool/token.sol\":2387:2397  _allowance */\n      dup2\n        /* \"blockchain/contracts/Polygon/Pool/Prototype/pool/token.sol\":2387:2418  _allowance != type(uint256).max */\n      sub\n        /* \"blockchain/contracts/Polygon/Pool/Prototype/pool/token.sol\":2378:2420  require( _allowance != type(uint256).max ) */\n      tag_75\n      jumpi\n      0x00\n      dup1\n      revert\n    tag_75:\n        /* \"blockchain/contracts/Polygon/Pool/Prototype/pool/token.sol\":2453:2459  _value */\n      dup3\n        /* \"blockchain/contracts/Polygon/Pool/Prototype/pool/token.sol\":2439:2449  _allowance */\n      dup2\n        /* \"blockchain/contracts/Polygon/Pool/Prototype/pool/token.sol\":2439:2459  _allowance >= _value */\n      lt\n      iszero\n        /* \"blockchain/contracts/Polygon/Pool/Prototype/pool/token.sol\":2430:2461  require( _allowance >= _value ) */\n      tag_76\n      jumpi\n      0x00\n      dup1\n      revert\n    tag_76:\n        /* \"blockchain/contracts/Polygon/Pool/Prototype/pool/token.sol\":2504:2510  _value */\n      dup3\n        /* \"blockchain/contracts/Polygon/Pool/Prototype/pool/token.sol\":2472:2479  allowed */\n      0x06\n        /* \"blockchain/contracts/Polygon/Pool/Prototype/pool/token.sol\":2472:2493  allowed[ msg.sender ] */\n      0x00\n        /* \"blockchain/contracts/Polygon/Pool/Prototype/pool/token.sol\":2481:2491  msg.sender */\n      caller\n        /* \"blockchain/contracts/Polygon/Pool/Prototype/pool/token.sol\":2472:2493  allowed[ msg.sender ] */\n      0xffffffffffffffffffffffffffffffffffffffff\n      and\n      0xffffffffffffffffffffffffffffffffffffffff\n      and\n      dup2\n      mstore\n      0x20\n      add\n      swap1\n      dup2\n      mstore\n      0x20\n      add\n      0x00\n      keccak256\n        /* \"blockchain/contracts/Polygon/Pool/Prototype/pool/token.sol\":2472:2500  allowed[ msg.sender ][ _to ] */\n      0x00\n        /* \"blockchain/contracts/Polygon/Pool/Prototype/pool/token.sol\":2495:2498  _to */\n      dup7\n        /* \"blockchain/contracts/Polygon/Pool/Prototype/pool/token.sol\":2472:2500  allowed[ msg.sender ][ _to ] */\n      0xffffffffffffffffffffffffffffffffffffffff\n      and\n      0xffffffffffffffffffffffffffffffffffffffff\n      and\n      dup2\n      mstore\n      0x20\n      add\n      swap1\n      dup2\n      mstore\n      0x20\n      add\n      0x00\n      keccak256\n      0x00\n        /* \"blockchain/contracts/Polygon/Pool/Prototype/pool/token.sol\":2472:2510  allowed[ msg.sender ][ _to ] -= _value */\n      dup3\n      dup3\n      sload\n      tag_77\n      swap2\n      swap1\n      tag_78\n      jump\t// in\n    tag_77:\n      swap3\n      pop\n      pop\n      dup2\n      swap1\n      sstore\n      pop\n        /* \"blockchain/contracts/Polygon/Pool/Prototype/pool/token.sol\":2521:2552  transfer_( _from, _to, _value ) */\n      tag_79\n        /* \"blockchain/contracts/Polygon/Pool/Prototype/pool/token.sol\":2532:2537  _from */\n      dup6\n        /* \"blockchain/contracts/Polygon/Pool/Prototype/pool/token.sol\":2539:2542  _to */\n      dup6\n        /* \"blockchain/contracts/Polygon/Pool/Prototype/pool/token.sol\":2544:2550  _value */\n      dup6\n        /* \"blockchain/contracts/Polygon/Pool/Prototype/pool/token.sol\":2521:2530  transfer_ */\n      tag_80\n        /* \"blockchain/contracts/Polygon/Pool/Prototype/pool/token.sol\":2521:2552  transfer_( _from, _to, _value ) */\n      jump\t// in\n    tag_79:\n        /* \"blockchain/contracts/Polygon/Pool/Prototype/pool/token.sol\":2570:2574  true */\n      0x01\n        /* \"blockchain/contracts/Polygon/Pool/Prototype/pool/token.sol\":2563:2574  return true */\n      swap2\n      pop\n      pop\n        /* \"blockchain/contracts/Polygon/Pool/Prototype/pool/token.sol\":2209:2582  function transferFrom( address _from, address _to, uint256 _value ) public returns (bool) {... */\n      swap4\n      swap3\n      pop\n      pop\n      pop\n      jump\t// out\n        /* \"blockchain/contracts/Polygon/Pool/Prototype/pool/token.sol\":3384:3469  function decimals() public view returns (uint8) {... */\n    tag_35:\n        /* \"blockchain/contracts/Polygon/Pool/Prototype/pool/token.sol\":3425:3430  uint8 */\n      0x00\n        /* \"blockchain/contracts/Polygon/Pool/Prototype/pool/token.sol\":3450:3452  my */\n      dup1\n        /* \"blockchain/contracts/Polygon/Pool/Prototype/pool/token.sol\":3450:3461  my.decimals */\n      0x02\n      add\n      0x00\n      swap1\n      sload\n      swap1\n      0x0100\n      exp\n      swap1\n      div\n      0xff\n      and\n        /* \"blockchain/contracts/Polygon/Pool/Prototype/pool/token.sol\":3443:3461  return my.decimals */\n      swap1\n      pop\n        /* \"blockchain/contracts/Polygon/Pool/Prototype/pool/token.sol\":3384:3469  function decimals() public view returns (uint8) {... */\n      swap1\n      jump\t// out\n        /* \"blockchain/contracts/Polygon/Pool/Prototype/pool/token.sol\":3060:3188  function burn( uint256 _value ) public only_admin {... */\n    tag_41:\n        /* \"blockchain/contracts/Polygon/Pool/Prototype/pool/token.sol\":549:551  my */\n      0x00\n        /* \"blockchain/contracts/Polygon/Pool/Prototype/pool/token.sol\":549:557  my.admin */\n      0x04\n      add\n      0x00\n      swap1\n      sload\n      swap1\n      0x0100\n      exp\n      swap1\n      div\n      0xffffffffffffffffffffffffffffffffffffffff\n      and\n        /* \"blockchain/contracts/Polygon/Pool/Prototype/pool/token.sol\":535:557  msg.sender == my.admin */\n      0xffffffffffffffffffffffffffffffffffffffff\n      and\n        /* \"blockchain/contracts/Polygon/Pool/Prototype/pool/token.sol\":535:545  msg.sender */\n      caller\n        /* \"blockchain/contracts/Polygon/Pool/Prototype/pool/token.sol\":535:557  msg.sender == my.admin */\n      0xffffffffffffffffffffffffffffffffffffffff\n      and\n      eq\n        /* \"blockchain/contracts/Polygon/Pool/Prototype/pool/token.sol\":526:559  require( msg.sender == my.admin ) */\n      tag_83\n      jumpi\n      0x00\n      dup1\n      revert\n    tag_83:\n        /* \"blockchain/contracts/Polygon/Pool/Prototype/pool/token.sol\":3121:3134  address _from */\n      0x00\n        /* \"blockchain/contracts/Polygon/Pool/Prototype/pool/token.sol\":3137:3147  msg.sender */\n      caller\n        /* \"blockchain/contracts/Polygon/Pool/Prototype/pool/token.sol\":3121:3147  address _from = msg.sender */\n      swap1\n      pop\n        /* \"blockchain/contracts/Polygon/Pool/Prototype/pool/token.sol\":3158:3180  burn_( _from, _value ) */\n      tag_85\n        /* \"blockchain/contracts/Polygon/Pool/Prototype/pool/token.sol\":3165:3170  _from */\n      dup2\n        /* \"blockchain/contracts/Polygon/Pool/Prototype/pool/token.sol\":3172:3178  _value */\n      dup4\n        /* \"blockchain/contracts/Polygon/Pool/Prototype/pool/token.sol\":3158:3163  burn_ */\n      tag_86\n        /* \"blockchain/contracts/Polygon/Pool/Prototype/pool/token.sol\":3158:3180  burn_( _from, _value ) */\n      jump\t// in\n    tag_85:\n        /* \"blockchain/contracts/Polygon/Pool/Prototype/pool/token.sol\":3110:3188  {... */\n      pop\n        /* \"blockchain/contracts/Polygon/Pool/Prototype/pool/token.sol\":3060:3188  function burn( uint256 _value ) public only_admin {... */\n      pop\n      jump\t// out\n        /* \"blockchain/contracts/Polygon/Pool/Prototype/pool/token.sol\":3575:3685  function balanceOf( address _owner ) public view returns (uint256) {... */\n    tag_45:\n        /* \"blockchain/contracts/Polygon/Pool/Prototype/pool/token.sol\":3633:3640  uint256 */\n      0x00\n        /* \"blockchain/contracts/Polygon/Pool/Prototype/pool/token.sol\":3660:3667  balance */\n      0x05\n        /* \"blockchain/contracts/Polygon/Pool/Prototype/pool/token.sol\":3660:3677  balance[ _owner ] */\n      0x00\n        /* \"blockchain/contracts/Polygon/Pool/Prototype/pool/token.sol\":3669:3675  _owner */\n      dup4\n        /* \"blockchain/contracts/Polygon/Pool/Prototype/pool/token.sol\":3660:3677  balance[ _owner ] */\n      0xffffffffffffffffffffffffffffffffffffffff\n      and\n      0xffffffffffffffffffffffffffffffffffffffff\n      and\n      dup2\n      mstore\n      0x20\n      add\n      swap1\n      dup2\n      mstore\n      0x20\n      add\n      0x00\n      keccak256\n      sload\n        /* \"blockchain/contracts/Polygon/Pool/Prototype/pool/token.sol\":3653:3677  return balance[ _owner ] */\n      swap1\n      pop\n        /* \"blockchain/contracts/Polygon/Pool/Prototype/pool/token.sol\":3575:3685  function balanceOf( address _owner ) public view returns (uint256) {... */\n      swap2\n      swap1\n      pop\n      jump\t// out\n        /* \"blockchain/contracts/Polygon/Pool/Prototype/pool/token.sol\":3289:3378  function symbol() public view returns (string memory) {... */\n    tag_48:\n        /* \"blockchain/contracts/Polygon/Pool/Prototype/pool/token.sol\":3328:3341  string memory */\n      0x60\n        /* \"blockchain/contracts/Polygon/Pool/Prototype/pool/token.sol\":3361:3363  my */\n      0x00\n        /* \"blockchain/contracts/Polygon/Pool/Prototype/pool/token.sol\":3361:3370  my.symbol */\n      0x01\n      add\n        /* \"blockchain/contracts/Polygon/Pool/Prototype/pool/token.sol\":3354:3370  return my.symbol */\n      dup1\n      sload\n      tag_89\n      swap1\n      tag_64\n      jump\t// in\n    tag_89:\n      dup1\n      0x1f\n      add\n      0x20\n      dup1\n      swap2\n      div\n      mul\n      0x20\n      add\n      mload(0x40)\n      swap1\n      dup2\n      add\n      0x40\n      mstore\n      dup1\n      swap3\n      swap2\n      swap1\n      dup2\n      dup2\n      mstore\n      0x20\n      add\n      dup3\n      dup1\n      sload\n      tag_90\n      swap1\n      tag_64\n      jump\t// in\n    tag_90:\n      dup1\n      iszero\n      tag_91\n      jumpi\n      dup1\n      0x1f\n      lt\n      tag_92\n      jumpi\n      0x0100\n      dup1\n      dup4\n      sload\n      div\n      mul\n      dup4\n      mstore\n      swap2\n      0x20\n      add\n      swap2\n      jump(tag_91)\n    tag_92:\n      dup3\n      add\n      swap2\n      swap1\n      0x00\n      mstore\n      keccak256(0x00, 0x20)\n      swap1\n    tag_93:\n      dup2\n      sload\n      dup2\n      mstore\n      swap1\n      0x01\n      add\n      swap1\n      0x20\n      add\n      dup1\n      dup4\n      gt\n      tag_93\n      jumpi\n      dup3\n      swap1\n      sub\n      0x1f\n      and\n      dup3\n      add\n      swap2\n    tag_91:\n      pop\n      pop\n      pop\n      pop\n      pop\n      swap1\n      pop\n        /* \"blockchain/contracts/Polygon/Pool/Prototype/pool/token.sol\":3289:3378  function symbol() public view returns (string memory) {... */\n      swap1\n      jump\t// out\n        /* \"blockchain/contracts/Polygon/Pool/Prototype/pool/token.sol\":2930:3054  function mint( uint256 _value ) public only_admin {... */\n    tag_52:\n        /* \"blockchain/contracts/Polygon/Pool/Prototype/pool/token.sol\":549:551  my */\n      0x00\n        /* \"blockchain/contracts/Polygon/Pool/Prototype/pool/token.sol\":549:557  my.admin */\n      0x04\n      add\n      0x00\n      swap1\n      sload\n      swap1\n      0x0100\n      exp\n      swap1\n      div\n      0xffffffffffffffffffffffffffffffffffffffff\n      and\n        /* \"blockchain/contracts/Polygon/Pool/Prototype/pool/token.sol\":535:557  msg.sender == my.admin */\n      0xffffffffffffffffffffffffffffffffffffffff\n      and\n        /* \"blockchain/contracts/Polygon/Pool/Prototype/pool/token.sol\":535:545  msg.sender */\n      caller\n        /* \"blockchain/contracts/Polygon/Pool/Prototype/pool/token.sol\":535:557  msg.sender == my.admin */\n      0xffffffffffffffffffffffffffffffffffffffff\n      and\n      eq\n        /* \"blockchain/contracts/Polygon/Pool/Prototype/pool/token.sol\":526:559  require( msg.sender == my.admin ) */\n      tag_95\n      jumpi\n      0x00\n      dup1\n      revert\n    tag_95:\n        /* \"blockchain/contracts/Polygon/Pool/Prototype/pool/token.sol\":2991:3002  address _to */\n      0x00\n        /* \"blockchain/contracts/Polygon/Pool/Prototype/pool/token.sol\":3005:3015  msg.sender */\n      caller\n        /* \"blockchain/contracts/Polygon/Pool/Prototype/pool/token.sol\":2991:3015  address _to = msg.sender */\n      swap1\n      pop\n        /* \"blockchain/contracts/Polygon/Pool/Prototype/pool/token.sol\":3026:3046  mint_( _to, _value ) */\n      tag_97\n        /* \"blockchain/contracts/Polygon/Pool/Prototype/pool/token.sol\":3033:3036  _to */\n      dup2\n        /* \"blockchain/contracts/Polygon/Pool/Prototype/pool/token.sol\":3038:3044  _value */\n      dup4\n        /* \"blockchain/contracts/Polygon/Pool/Prototype/pool/token.sol\":3026:3031  mint_ */\n      tag_98\n        /* \"blockchain/contracts/Polygon/Pool/Prototype/pool/token.sol\":3026:3046  mint_( _to, _value ) */\n      jump\t// in\n    tag_97:\n        /* \"blockchain/contracts/Polygon/Pool/Prototype/pool/token.sol\":2980:3054  {... */\n      pop\n        /* \"blockchain/contracts/Polygon/Pool/Prototype/pool/token.sol\":2930:3054  function mint( uint256 _value ) public only_admin {... */\n      pop\n      jump\t// out\n        /* \"blockchain/contracts/Polygon/Pool/Prototype/pool/token.sol\":2015:2203  function transfer( address _to, uint256 _value ) public returns (bool) {... */\n    tag_55:\n        /* \"blockchain/contracts/Polygon/Pool/Prototype/pool/token.sol\":2080:2084  bool */\n      0x00\n        /* \"blockchain/contracts/Polygon/Pool/Prototype/pool/token.sol\":2097:2110  address _from */\n      dup1\n        /* \"blockchain/contracts/Polygon/Pool/Prototype/pool/token.sol\":2113:2123  msg.sender */\n      caller\n        /* \"blockchain/contracts/Polygon/Pool/Prototype/pool/token.sol\":2097:2123  address _from = msg.sender */\n      swap1\n      pop\n        /* \"blockchain/contracts/Polygon/Pool/Prototype/pool/token.sol\":2142:2173  transfer_( _from, _to, _value ) */\n      tag_100\n        /* \"blockchain/contracts/Polygon/Pool/Prototype/pool/token.sol\":2153:2158  _from */\n      dup2\n        /* \"blockchain/contracts/Polygon/Pool/Prototype/pool/token.sol\":2160:2163  _to */\n      dup6\n        /* \"blockchain/contracts/Polygon/Pool/Prototype/pool/token.sol\":2165:2171  _value */\n      dup6\n        /* \"blockchain/contracts/Polygon/Pool/Prototype/pool/token.sol\":2142:2151  transfer_ */\n      tag_80\n        /* \"blockchain/contracts/Polygon/Pool/Prototype/pool/token.sol\":2142:2173  transfer_( _from, _to, _value ) */\n      jump\t// in\n    tag_100:\n        /* \"blockchain/contracts/Polygon/Pool/Prototype/pool/token.sol\":2191:2195  true */\n      0x01\n        /* \"blockchain/contracts/Polygon/Pool/Prototype/pool/token.sol\":2184:2195  return true */\n      swap2\n      pop\n      pop\n        /* \"blockchain/contracts/Polygon/Pool/Prototype/pool/token.sol\":2015:2203  function transfer( address _to, uint256 _value ) public returns (bool) {... */\n      swap3\n      swap2\n      pop\n      pop\n      jump\t// out\n        /* \"blockchain/contracts/Polygon/Pool/Prototype/pool/token.sol\":3695:3835  function allowance( address _owner, address _spender ) public view returns (uint256) {... */\n    tag_60:\n        /* \"blockchain/contracts/Polygon/Pool/Prototype/pool/token.sol\":3771:3778  uint256 */\n      0x00\n        /* \"blockchain/contracts/Polygon/Pool/Prototype/pool/token.sol\":3798:3805  allowed */\n      0x06\n        /* \"blockchain/contracts/Polygon/Pool/Prototype/pool/token.sol\":3798:3815  allowed[ _owner ] */\n      0x00\n        /* \"blockchain/contracts/Polygon/Pool/Prototype/pool/token.sol\":3807:3813  _owner */\n      dup5\n        /* \"blockchain/contracts/Polygon/Pool/Prototype/pool/token.sol\":3798:3815  allowed[ _owner ] */\n      0xffffffffffffffffffffffffffffffffffffffff\n      and\n      0xffffffffffffffffffffffffffffffffffffffff\n      and\n      dup2\n      mstore\n      0x20\n      add\n      swap1\n      dup2\n      mstore\n      0x20\n      add\n      0x00\n      keccak256\n        /* \"blockchain/contracts/Polygon/Pool/Prototype/pool/token.sol\":3798:3827  allowed[ _owner ][ _spender ] */\n      0x00\n        /* \"blockchain/contracts/Polygon/Pool/Prototype/pool/token.sol\":3817:3825  _spender */\n      dup4\n        /* \"blockchain/contracts/Polygon/Pool/Prototype/pool/token.sol\":3798:3827  allowed[ _owner ][ _spender ] */\n      0xffffffffffffffffffffffffffffffffffffffff\n      and\n      0xffffffffffffffffffffffffffffffffffffffff\n      and\n      dup2\n      mstore\n      0x20\n      add\n      swap1\n      dup2\n      mstore\n      0x20\n      add\n      0x00\n      keccak256\n      sload\n        /* \"blockchain/contracts/Polygon/Pool/Prototype/pool/token.sol\":3791:3827  return allowed[ _owner ][ _spender ] */\n      swap1\n      pop\n        /* \"blockchain/contracts/Polygon/Pool/Prototype/pool/token.sol\":3695:3835  function allowance( address _owner, address _spender ) public view returns (uint256) {... */\n      swap3\n      swap2\n      pop\n      pop\n      jump\t// out\n        /* \"blockchain/contracts/Polygon/Pool/Prototype/pool/token.sol\":903:1361  function transfer_(... */\n    tag_80:\n        /* \"blockchain/contracts/Polygon/Pool/Prototype/pool/token.sol\":1017:1033  uint256 _balance */\n      0x00\n        /* \"blockchain/contracts/Polygon/Pool/Prototype/pool/token.sol\":1036:1043  balance */\n      0x05\n        /* \"blockchain/contracts/Polygon/Pool/Prototype/pool/token.sol\":1036:1052  balance[ _from ] */\n      0x00\n        /* \"blockchain/contracts/Polygon/Pool/Prototype/pool/token.sol\":1045:1050  _from */\n      dup6\n        /* \"blockchain/contracts/Polygon/Pool/Prototype/pool/token.sol\":1036:1052  balance[ _from ] */\n      0xffffffffffffffffffffffffffffffffffffffff\n      and\n      0xffffffffffffffffffffffffffffffffffffffff\n      and\n      dup2\n      mstore\n      0x20\n      add\n      swap1\n      dup2\n      mstore\n      0x20\n      add\n      0x00\n      keccak256\n      sload\n        /* \"blockchain/contracts/Polygon/Pool/Prototype/pool/token.sol\":1017:1052  uint256 _balance = balance[ _from ] */\n      swap1\n      pop\n        /* \"blockchain/contracts/Polygon/Pool/Prototype/pool/token.sol\":1089:1090  0 */\n      0x00\n        /* \"blockchain/contracts/Polygon/Pool/Prototype/pool/token.sol\":1072:1091  _from != address(0) */\n      0xffffffffffffffffffffffffffffffffffffffff\n      and\n        /* \"blockchain/contracts/Polygon/Pool/Prototype/pool/token.sol\":1072:1077  _from */\n      dup5\n        /* \"blockchain/contracts/Polygon/Pool/Prototype/pool/token.sol\":1072:1091  _from != address(0) */\n      0xffffffffffffffffffffffffffffffffffffffff\n      and\n      sub\n        /* \"blockchain/contracts/Polygon/Pool/Prototype/pool/token.sol\":1063:1093  require( _from != address(0) ) */\n      tag_103\n      jumpi\n      0x00\n      dup1\n      revert\n    tag_103:\n        /* \"blockchain/contracts/Polygon/Pool/Prototype/pool/token.sol\":1127:1128  0 */\n      0x00\n        /* \"blockchain/contracts/Polygon/Pool/Prototype/pool/token.sol\":1112:1129  _to != address(0) */\n      0xffffffffffffffffffffffffffffffffffffffff\n      and\n        /* \"blockchain/contracts/Polygon/Pool/Prototype/pool/token.sol\":1112:1115  _to */\n      dup4\n        /* \"blockchain/contracts/Polygon/Pool/Prototype/pool/token.sol\":1112:1129  _to != address(0) */\n      0xffffffffffffffffffffffffffffffffffffffff\n      and\n      sub\n        /* \"blockchain/contracts/Polygon/Pool/Prototype/pool/token.sol\":1103:1131  require( _to != address(0) ) */\n      tag_104\n      jumpi\n      0x00\n      dup1\n      revert\n    tag_104:\n        /* \"blockchain/contracts/Polygon/Pool/Prototype/pool/token.sol\":1162:1168  _value */\n      dup2\n        /* \"blockchain/contracts/Polygon/Pool/Prototype/pool/token.sol\":1150:1158  _balance */\n      dup2\n        /* \"blockchain/contracts/Polygon/Pool/Prototype/pool/token.sol\":1150:1168  _balance >= _value */\n      lt\n      iszero\n        /* \"blockchain/contracts/Polygon/Pool/Prototype/pool/token.sol\":1141:1170  require( _balance >= _value ) */\n      tag_105\n      jumpi\n      0x00\n      dup1\n      revert\n    tag_105:\n        /* \"blockchain/contracts/Polygon/Pool/Prototype/pool/token.sol\":1201:1202  0 */\n      0x00\n        /* \"blockchain/contracts/Polygon/Pool/Prototype/pool/token.sol\":1189:1197  _balance */\n      dup2\n        /* \"blockchain/contracts/Polygon/Pool/Prototype/pool/token.sol\":1189:1202  _balance <= 0 */\n      gt\n      iszero\n        /* \"blockchain/contracts/Polygon/Pool/Prototype/pool/token.sol\":1180:1204  require( _balance <= 0 ) */\n      tag_106\n      jumpi\n      0x00\n      dup1\n      revert\n    tag_106:\n        /* \"blockchain/contracts/Polygon/Pool/Prototype/pool/token.sol\":1233:1234  0 */\n      0x00\n        /* \"blockchain/contracts/Polygon/Pool/Prototype/pool/token.sol\":1223:1229  _value */\n      dup3\n        /* \"blockchain/contracts/Polygon/Pool/Prototype/pool/token.sol\":1223:1234  _value >= 0 */\n      lt\n      iszero\n        /* \"blockchain/contracts/Polygon/Pool/Prototype/pool/token.sol\":1214:1236  require( _value >= 0 ) */\n      tag_107\n      jumpi\n      0x00\n      dup1\n      revert\n    tag_107:\n        /* \"blockchain/contracts/Polygon/Pool/Prototype/pool/token.sol\":1267:1273  _value */\n      dup2\n        /* \"blockchain/contracts/Polygon/Pool/Prototype/pool/token.sol\":1247:1254  balance */\n      0x05\n        /* \"blockchain/contracts/Polygon/Pool/Prototype/pool/token.sol\":1247:1263  balance[ _from ] */\n      0x00\n        /* \"blockchain/contracts/Polygon/Pool/Prototype/pool/token.sol\":1256:1261  _from */\n      dup7\n        /* \"blockchain/contracts/Polygon/Pool/Prototype/pool/token.sol\":1247:1263  balance[ _from ] */\n      0xffffffffffffffffffffffffffffffffffffffff\n      and\n      0xffffffffffffffffffffffffffffffffffffffff\n      and\n      dup2\n      mstore\n      0x20\n      add\n      swap1\n      dup2\n      mstore\n      0x20\n      add\n      0x00\n      keccak256\n      0x00\n        /* \"blockchain/contracts/Polygon/Pool/Prototype/pool/token.sol\":1247:1273  balance[ _from ] -= _value */\n      dup3\n      dup3\n      sload\n      tag_108\n      swap2\n      swap1\n      tag_78\n      jump\t// in\n    tag_108:\n      swap3\n      pop\n      pop\n      dup2\n      swap1\n      sstore\n      pop\n        /* \"blockchain/contracts/Polygon/Pool/Prototype/pool/token.sol\":1301:1307  _value */\n      dup2\n        /* \"blockchain/contracts/Polygon/Pool/Prototype/pool/token.sol\":1283:1290  balance */\n      0x05\n        /* \"blockchain/contracts/Polygon/Pool/Prototype/pool/token.sol\":1283:1297  balance[ _to ] */\n      0x00\n        /* \"blockchain/contracts/Polygon/Pool/Prototype/pool/token.sol\":1292:1295  _to */\n      dup6\n        /* \"blockchain/contracts/Polygon/Pool/Prototype/pool/token.sol\":1283:1297  balance[ _to ] */\n      0xffffffffffffffffffffffffffffffffffffffff\n      and\n      0xffffffffffffffffffffffffffffffffffffffff\n      and\n      dup2\n      mstore\n      0x20\n      add\n      swap1\n      dup2\n      mstore\n      0x20\n      add\n      0x00\n      keccak256\n      0x00\n        /* \"blockchain/contracts/Polygon/Pool/Prototype/pool/token.sol\":1283:1307  balance[ _to ] += _value */\n      dup3\n      dup3\n      sload\n      tag_109\n      swap2\n      swap1\n      tag_110\n      jump\t// in\n    tag_109:\n      swap3\n      pop\n      pop\n      dup2\n      swap1\n      sstore\n      pop\n        /* \"blockchain/contracts/Polygon/Pool/Prototype/pool/token.sol\":1340:1343  _to */\n      dup3\n        /* \"blockchain/contracts/Polygon/Pool/Prototype/pool/token.sol\":1323:1353  Transfer( _from, _to, _value ) */\n      0xffffffffffffffffffffffffffffffffffffffff\n      and\n        /* \"blockchain/contracts/Polygon/Pool/Prototype/pool/token.sol\":1333:1338  _from */\n      dup5\n        /* \"blockchain/contracts/Polygon/Pool/Prototype/pool/token.sol\":1323:1353  Transfer( _from, _to, _value ) */\n      0xffffffffffffffffffffffffffffffffffffffff\n      and\n      0xddf252ad1be2c89b69c2b068fc378daa952ba7f163c4a11628f55a4df523b3ef\n        /* \"blockchain/contracts/Polygon/Pool/Prototype/pool/token.sol\":1345:1351  _value */\n      dup5\n        /* \"blockchain/contracts/Polygon/Pool/Prototype/pool/token.sol\":1323:1353  Transfer( _from, _to, _value ) */\n      mload(0x40)\n      tag_111\n      swap2\n      swap1\n      tag_28\n      jump\t// in\n    tag_111:\n      mload(0x40)\n      dup1\n      swap2\n      sub\n      swap1\n      log3\n        /* \"blockchain/contracts/Polygon/Pool/Prototype/pool/token.sol\":1006:1361  {... */\n      pop\n        /* \"blockchain/contracts/Polygon/Pool/Prototype/pool/token.sol\":903:1361  function transfer_(... */\n      pop\n      pop\n      pop\n      jump\t// out\n        /* \"blockchain/contracts/Polygon/Pool/Prototype/pool/token.sol\":1675:2009  function burn_( address _from, uint256 _value ) private {... */\n    tag_86:\n        /* \"blockchain/contracts/Polygon/Pool/Prototype/pool/token.sol\":1742:1753  address _to */\n      0x00\n        /* \"blockchain/contracts/Polygon/Pool/Prototype/pool/token.sol\":1776:1792  uint256 _balance */\n      dup1\n        /* \"blockchain/contracts/Polygon/Pool/Prototype/pool/token.sol\":1795:1802  balance */\n      0x05\n        /* \"blockchain/contracts/Polygon/Pool/Prototype/pool/token.sol\":1795:1811  balance[ _from ] */\n      0x00\n        /* \"blockchain/contracts/Polygon/Pool/Prototype/pool/token.sol\":1804:1809  _from */\n      dup6\n        /* \"blockchain/contracts/Polygon/Pool/Prototype/pool/token.sol\":1795:1811  balance[ _from ] */\n      0xffffffffffffffffffffffffffffffffffffffff\n      and\n      0xffffffffffffffffffffffffffffffffffffffff\n      and\n      dup2\n      mstore\n      0x20\n      add\n      swap1\n      dup2\n      mstore\n      0x20\n      add\n      0x00\n      keccak256\n      sload\n        /* \"blockchain/contracts/Polygon/Pool/Prototype/pool/token.sol\":1776:1811  uint256 _balance = balance[ _from ] */\n      swap1\n      pop\n        /* \"blockchain/contracts/Polygon/Pool/Prototype/pool/token.sol\":1841:1842  0 */\n      0x00\n        /* \"blockchain/contracts/Polygon/Pool/Prototype/pool/token.sol\":1831:1837  _value */\n      dup4\n        /* \"blockchain/contracts/Polygon/Pool/Prototype/pool/token.sol\":1831:1842  _value >= 0 */\n      lt\n      iszero\n        /* \"blockchain/contracts/Polygon/Pool/Prototype/pool/token.sol\":1822:1844  require( _value >= 0 ) */\n      tag_113\n      jumpi\n      0x00\n      dup1\n      revert\n    tag_113:\n        /* \"blockchain/contracts/Polygon/Pool/Prototype/pool/token.sol\":1873:1881  _balance */\n      dup1\n        /* \"blockchain/contracts/Polygon/Pool/Prototype/pool/token.sol\":1863:1869  _value */\n      dup4\n        /* \"blockchain/contracts/Polygon/Pool/Prototype/pool/token.sol\":1863:1881  _value <= _balance */\n      gt\n      iszero\n        /* \"blockchain/contracts/Polygon/Pool/Prototype/pool/token.sol\":1854:1883  require( _value <= _balance ) */\n      tag_114\n      jumpi\n      0x00\n      dup1\n      revert\n    tag_114:\n        /* \"blockchain/contracts/Polygon/Pool/Prototype/pool/token.sol\":1914:1920  _value */\n      dup3\n        /* \"blockchain/contracts/Polygon/Pool/Prototype/pool/token.sol\":1894:1901  balance */\n      0x05\n        /* \"blockchain/contracts/Polygon/Pool/Prototype/pool/token.sol\":1894:1910  balance[ _from ] */\n      0x00\n        /* \"blockchain/contracts/Polygon/Pool/Prototype/pool/token.sol\":1903:1908  _from */\n      dup7\n        /* \"blockchain/contracts/Polygon/Pool/Prototype/pool/token.sol\":1894:1910  balance[ _from ] */\n      0xffffffffffffffffffffffffffffffffffffffff\n      and\n      0xffffffffffffffffffffffffffffffffffffffff\n      and\n      dup2\n      mstore\n      0x20\n      add\n      swap1\n      dup2\n      mstore\n      0x20\n      add\n      0x00\n      keccak256\n      0x00\n        /* \"blockchain/contracts/Polygon/Pool/Prototype/pool/token.sol\":1894:1920  balance[ _from ] -= _value */\n      dup3\n      dup3\n      sload\n      tag_115\n      swap2\n      swap1\n      tag_78\n      jump\t// in\n    tag_115:\n      swap3\n      pop\n      pop\n      dup2\n      swap1\n      sstore\n      pop\n        /* \"blockchain/contracts/Polygon/Pool/Prototype/pool/token.sol\":1949:1955  _value */\n      dup3\n        /* \"blockchain/contracts/Polygon/Pool/Prototype/pool/token.sol\":1930:1932  my */\n      0x00\n        /* \"blockchain/contracts/Polygon/Pool/Prototype/pool/token.sol\":1930:1945  my.total_supply */\n      0x03\n      add\n      0x00\n        /* \"blockchain/contracts/Polygon/Pool/Prototype/pool/token.sol\":1930:1955  my.total_supply -= _value */\n      dup3\n      dup3\n      sload\n      tag_116\n      swap2\n      swap1\n      tag_78\n      jump\t// in\n    tag_116:\n      swap3\n      pop\n      pop\n      dup2\n      swap1\n      sstore\n      pop\n        /* \"blockchain/contracts/Polygon/Pool/Prototype/pool/token.sol\":1988:1991  _to */\n      dup2\n        /* \"blockchain/contracts/Polygon/Pool/Prototype/pool/token.sol\":1971:2001  Transfer( _from, _to, _value ) */\n      0xffffffffffffffffffffffffffffffffffffffff\n      and\n        /* \"blockchain/contracts/Polygon/Pool/Prototype/pool/token.sol\":1981:1986  _from */\n      dup5\n        /* \"blockchain/contracts/Polygon/Pool/Prototype/pool/token.sol\":1971:2001  Transfer( _from, _to, _value ) */\n      0xffffffffffffffffffffffffffffffffffffffff\n      and\n      0xddf252ad1be2c89b69c2b068fc378daa952ba7f163c4a11628f55a4df523b3ef\n        /* \"blockchain/contracts/Polygon/Pool/Prototype/pool/token.sol\":1993:1999  _value */\n      dup6\n        /* \"blockchain/contracts/Polygon/Pool/Prototype/pool/token.sol\":1971:2001  Transfer( _from, _to, _value ) */\n      mload(0x40)\n      tag_117\n      swap2\n      swap1\n      tag_28\n      jump\t// in\n    tag_117:\n      mload(0x40)\n      dup1\n      swap2\n      sub\n      swap1\n      log3\n        /* \"blockchain/contracts/Polygon/Pool/Prototype/pool/token.sol\":1731:2009  {... */\n      pop\n      pop\n        /* \"blockchain/contracts/Polygon/Pool/Prototype/pool/token.sol\":1675:2009  function burn_( address _from, uint256 _value ) private {... */\n      pop\n      pop\n      jump\t// out\n        /* \"blockchain/contracts/Polygon/Pool/Prototype/pool/token.sol\":1367:1669  function mint_( address _to, uint256 _value ) private {... */\n    tag_98:\n        /* \"blockchain/contracts/Polygon/Pool/Prototype/pool/token.sol\":1432:1445  address _from */\n      0x00\n        /* \"blockchain/contracts/Polygon/Pool/Prototype/pool/token.sol\":1496:1497  0 */\n      dup1\n        /* \"blockchain/contracts/Polygon/Pool/Prototype/pool/token.sol\":1486:1492  _value */\n      dup3\n        /* \"blockchain/contracts/Polygon/Pool/Prototype/pool/token.sol\":1486:1497  _value >= 0 */\n      lt\n      iszero\n        /* \"blockchain/contracts/Polygon/Pool/Prototype/pool/token.sol\":1477:1499  require( _value >= 0 ) */\n      tag_119\n      jumpi\n      0x00\n      dup1\n      revert\n    tag_119:\n        /* \"blockchain/contracts/Polygon/Pool/Prototype/pool/token.sol\":1533:1534  0 */\n      0x00\n        /* \"blockchain/contracts/Polygon/Pool/Prototype/pool/token.sol\":1518:1535  _to != address(0) */\n      0xffffffffffffffffffffffffffffffffffffffff\n      and\n        /* \"blockchain/contracts/Polygon/Pool/Prototype/pool/token.sol\":1518:1521  _to */\n      dup4\n        /* \"blockchain/contracts/Polygon/Pool/Prototype/pool/token.sol\":1518:1535  _to != address(0) */\n      0xffffffffffffffffffffffffffffffffffffffff\n      and\n      sub\n        /* \"blockchain/contracts/Polygon/Pool/Prototype/pool/token.sol\":1509:1537  require( _to != address(0) ) */\n      tag_120\n      jumpi\n      0x00\n      dup1\n      revert\n    tag_120:\n        /* \"blockchain/contracts/Polygon/Pool/Prototype/pool/token.sol\":1566:1572  _value */\n      dup2\n        /* \"blockchain/contracts/Polygon/Pool/Prototype/pool/token.sol\":1548:1555  balance */\n      0x05\n        /* \"blockchain/contracts/Polygon/Pool/Prototype/pool/token.sol\":1548:1562  balance[ _to ] */\n      0x00\n        /* \"blockchain/contracts/Polygon/Pool/Prototype/pool/token.sol\":1557:1560  _to */\n      dup6\n        /* \"blockchain/contracts/Polygon/Pool/Prototype/pool/token.sol\":1548:1562  balance[ _to ] */\n      0xffffffffffffffffffffffffffffffffffffffff\n      and\n      0xffffffffffffffffffffffffffffffffffffffff\n      and\n      dup2\n      mstore\n      0x20\n      add\n      swap1\n      dup2\n      mstore\n      0x20\n      add\n      0x00\n      keccak256\n      0x00\n        /* \"blockchain/contracts/Polygon/Pool/Prototype/pool/token.sol\":1548:1572  balance[ _to ] += _value */\n      dup3\n      dup3\n      sload\n      tag_121\n      swap2\n      swap1\n      tag_110\n      jump\t// in\n    tag_121:\n      swap3\n      pop\n      pop\n      dup2\n      swap1\n      sstore\n      pop\n        /* \"blockchain/contracts/Polygon/Pool/Prototype/pool/token.sol\":1601:1607  _value */\n      dup2\n        /* \"blockchain/contracts/Polygon/Pool/Prototype/pool/token.sol\":1582:1584  my */\n      0x00\n        /* \"blockchain/contracts/Polygon/Pool/Prototype/pool/token.sol\":1582:1597  my.total_supply */\n      0x03\n      add\n      0x00\n        /* \"blockchain/contracts/Polygon/Pool/Prototype/pool/token.sol\":1582:1607  my.total_supply += _value */\n      dup3\n      dup3\n      sload\n      tag_122\n      swap2\n      swap1\n      tag_110\n      jump\t// in\n    tag_122:\n      swap3\n      pop\n      pop\n      dup2\n      swap1\n      sstore\n      pop\n        /* \"blockchain/contracts/Polygon/Pool/Prototype/pool/token.sol\":1648:1651  _to */\n      dup3\n        /* \"blockchain/contracts/Polygon/Pool/Prototype/pool/token.sol\":1631:1661  Transfer( _from, _to, _value ) */\n      0xffffffffffffffffffffffffffffffffffffffff\n      and\n        /* \"blockchain/contracts/Polygon/Pool/Prototype/pool/token.sol\":1641:1646  _from */\n      dup2\n        /* \"blockchain/contracts/Polygon/Pool/Prototype/pool/token.sol\":1631:1661  Transfer( _from, _to, _value ) */\n      0xffffffffffffffffffffffffffffffffffffffff\n      and\n      0xddf252ad1be2c89b69c2b068fc378daa952ba7f163c4a11628f55a4df523b3ef\n        /* \"blockchain/contracts/Polygon/Pool/Prototype/pool/token.sol\":1653:1659  _value */\n      dup5\n        /* \"blockchain/contracts/Polygon/Pool/Prototype/pool/token.sol\":1631:1661  Transfer( _from, _to, _value ) */\n      mload(0x40)\n      tag_123\n      swap2\n      swap1\n      tag_28\n      jump\t// in\n    tag_123:\n      mload(0x40)\n      dup1\n      swap2\n      sub\n      swap1\n      log3\n        /* \"blockchain/contracts/Polygon/Pool/Prototype/pool/token.sol\":1421:1669  {... */\n      pop\n        /* \"blockchain/contracts/Polygon/Pool/Prototype/pool/token.sol\":1367:1669  function mint_( address _to, uint256 _value ) private {... */\n      pop\n      pop\n      jump\t// out\n        /* \"#utility.yul\":7:106   */\n    tag_124:\n        /* \"#utility.yul\":59:65   */\n      0x00\n        /* \"#utility.yul\":93:98   */\n      dup2\n        /* \"#utility.yul\":87:99   */\n      mload\n        /* \"#utility.yul\":77:99   */\n      swap1\n      pop\n        /* \"#utility.yul\":7:106   */\n      swap2\n      swap1\n      pop\n      jump\t// out\n        /* \"#utility.yul\":112:281   */\n    tag_125:\n        /* \"#utility.yul\":196:207   */\n      0x00\n        /* \"#utility.yul\":230:236   */\n      dup3\n        /* \"#utility.yul\":225:228   */\n      dup3\n        /* \"#utility.yul\":218:237   */\n      mstore\n        /* \"#utility.yul\":270:274   */\n      0x20\n        /* \"#utility.yul\":265:268   */\n      dup3\n        /* \"#utility.yul\":261:275   */\n      add\n        /* \"#utility.yul\":246:275   */\n      swap1\n      pop\n        /* \"#utility.yul\":112:281   */\n      swap3\n      swap2\n      pop\n      pop\n      jump\t// out\n        /* \"#utility.yul\":287:533   */\n    tag_126:\n        /* \"#utility.yul\":368:369   */\n      0x00\n        /* \"#utility.yul\":378:491   */\n    tag_150:\n        /* \"#utility.yul\":392:398   */\n      dup4\n        /* \"#utility.yul\":389:390   */\n      dup2\n        /* \"#utility.yul\":386:399   */\n      lt\n        /* \"#utility.yul\":378:491   */\n      iszero\n      tag_152\n      jumpi\n        /* \"#utility.yul\":477:478   */\n      dup1\n        /* \"#utility.yul\":472:475   */\n      dup3\n        /* \"#utility.yul\":468:479   */\n      add\n        /* \"#utility.yul\":462:480   */\n      mload\n        /* \"#utility.yul\":458:459   */\n      dup2\n        /* \"#utility.yul\":453:456   */\n      dup5\n        /* \"#utility.yul\":449:460   */\n      add\n        /* \"#utility.yul\":442:481   */\n      mstore\n        /* \"#utility.yul\":414:416   */\n      0x20\n        /* \"#utility.yul\":411:412   */\n      dup2\n        /* \"#utility.yul\":407:417   */\n      add\n        /* \"#utility.yul\":402:417   */\n      swap1\n      pop\n        /* \"#utility.yul\":378:491   */\n      jump(tag_150)\n    tag_152:\n        /* \"#utility.yul\":525:526   */\n      0x00\n        /* \"#utility.yul\":516:522   */\n      dup5\n        /* \"#utility.yul\":511:514   */\n      dup5\n        /* \"#utility.yul\":507:523   */\n      add\n        /* \"#utility.yul\":500:527   */\n      mstore\n        /* \"#utility.yul\":349:533   */\n      pop\n        /* \"#utility.yul\":287:533   */\n      pop\n      pop\n      pop\n      jump\t// out\n        /* \"#utility.yul\":539:641   */\n    tag_127:\n        /* \"#utility.yul\":580:586   */\n      0x00\n        /* \"#utility.yul\":631:633   */\n      0x1f\n        /* \"#utility.yul\":627:634   */\n      not\n        /* \"#utility.yul\":622:624   */\n      0x1f\n        /* \"#utility.yul\":615:620   */\n      dup4\n        /* \"#utility.yul\":611:625   */\n      add\n        /* \"#utility.yul\":607:635   */\n      and\n        /* \"#utility.yul\":597:635   */\n      swap1\n      pop\n        /* \"#utility.yul\":539:641   */\n      swap2\n      swap1\n      pop\n      jump\t// out\n        /* \"#utility.yul\":647:1024   */\n    tag_128:\n        /* \"#utility.yul\":735:738   */\n      0x00\n        /* \"#utility.yul\":763:802   */\n      tag_155\n        /* \"#utility.yul\":796:801   */\n      dup3\n        /* \"#utility.yul\":763:802   */\n      tag_124\n      jump\t// in\n    tag_155:\n        /* \"#utility.yul\":818:889   */\n      tag_156\n        /* \"#utility.yul\":882:888   */\n      dup2\n        /* \"#utility.yul\":877:880   */\n      dup6\n        /* \"#utility.yul\":818:889   */\n      tag_125\n      jump\t// in\n    tag_156:\n        /* \"#utility.yul\":811:889   */\n      swap4\n      pop\n        /* \"#utility.yul\":898:963   */\n      tag_157\n        /* \"#utility.yul\":956:962   */\n      dup2\n        /* \"#utility.yul\":951:954   */\n      dup6\n        /* \"#utility.yul\":944:948   */\n      0x20\n        /* \"#utility.yul\":937:942   */\n      dup7\n        /* \"#utility.yul\":933:949   */\n      add\n        /* \"#utility.yul\":898:963   */\n      tag_126\n      jump\t// in\n    tag_157:\n        /* \"#utility.yul\":988:1017   */\n      tag_158\n        /* \"#utility.yul\":1010:1016   */\n      dup2\n        /* \"#utility.yul\":988:1017   */\n      tag_127\n      jump\t// in\n    tag_158:\n        /* \"#utility.yul\":983:986   */\n      dup5\n        /* \"#utility.yul\":979:1018   */\n      add\n        /* \"#utility.yul\":972:1018   */\n      swap2\n      pop\n        /* \"#utility.yul\":739:1024   */\n      pop\n        /* \"#utility.yul\":647:1024   */\n      swap3\n      swap2\n      pop\n      pop\n      jump\t// out\n        /* \"#utility.yul\":1030:1343   */\n    tag_18:\n        /* \"#utility.yul\":1143:1147   */\n      0x00\n        /* \"#utility.yul\":1181:1183   */\n      0x20\n        /* \"#utility.yul\":1170:1179   */\n      dup3\n        /* \"#utility.yul\":1166:1184   */\n      add\n        /* \"#utility.yul\":1158:1184   */\n      swap1\n      pop\n        /* \"#utility.yul\":1230:1239   */\n      dup2\n        /* \"#utility.yul\":1224:1228   */\n      dup2\n        /* \"#utility.yul\":1220:1240   */\n      sub\n        /* \"#utility.yul\":1216:1217   */\n      0x00\n        /* \"#utility.yul\":1205:1214   */\n      dup4\n        /* \"#utility.yul\":1201:1218   */\n      add\n        /* \"#utility.yul\":1194:1241   */\n      mstore\n        /* \"#utility.yul\":1258:1336   */\n      tag_160\n        /* \"#utility.yul\":1331:1335   */\n      dup2\n        /* \"#utility.yul\":1322:1328   */\n      dup5\n        /* \"#utility.yul\":1258:1336   */\n      tag_128\n      jump\t// in\n    tag_160:\n        /* \"#utility.yul\":1250:1336   */\n      swap1\n      pop\n        /* \"#utility.yul\":1030:1343   */\n      swap3\n      swap2\n      pop\n      pop\n      jump\t// out\n        /* \"#utility.yul\":1430:1547   */\n    tag_130:\n        /* \"#utility.yul\":1539:1540   */\n      0x00\n        /* \"#utility.yul\":1536:1537   */\n      dup1\n        /* \"#utility.yul\":1529:1541   */\n      revert\n        /* \"#utility.yul\":1676:1802   */\n    tag_132:\n        /* \"#utility.yul\":1713:1720   */\n      0x00\n        /* \"#utility.yul\":1753:1795   */\n      0xffffffffffffffffffffffffffffffffffffffff\n        /* \"#utility.yul\":1746:1751   */\n      dup3\n        /* \"#utility.yul\":1742:1796   */\n      and\n        /* \"#utility.yul\":1731:1796   */\n      swap1\n      pop\n        /* \"#utility.yul\":1676:1802   */\n      swap2\n      swap1\n      pop\n      jump\t// out\n        /* \"#utility.yul\":1808:1904   */\n    tag_133:\n        /* \"#utility.yul\":1845:1852   */\n      0x00\n        /* \"#utility.yul\":1874:1898   */\n      tag_166\n        /* \"#utility.yul\":1892:1897   */\n      dup3\n        /* \"#utility.yul\":1874:1898   */\n      tag_132\n      jump\t// in\n    tag_166:\n        /* \"#utility.yul\":1863:1898   */\n      swap1\n      pop\n        /* \"#utility.yul\":1808:1904   */\n      swap2\n      swap1\n      pop\n      jump\t// out\n        /* \"#utility.yul\":1910:2032   */\n    tag_134:\n        /* \"#utility.yul\":1983:2007   */\n      tag_168\n        /* \"#utility.yul\":2001:2006   */\n      dup2\n        /* \"#utility.yul\":1983:2007   */\n      tag_133\n      jump\t// in\n    tag_168:\n        /* \"#utility.yul\":1976:1981   */\n      dup2\n        /* \"#utility.yul\":1973:2008   */\n      eq\n        /* \"#utility.yul\":1963:2026   */\n      tag_169\n      jumpi\n        /* \"#utility.yul\":2022:2023   */\n      0x00\n        /* \"#utility.yul\":2019:2020   */\n      dup1\n        /* \"#utility.yul\":2012:2024   */\n      revert\n        /* \"#utility.yul\":1963:2026   */\n    tag_169:\n        /* \"#utility.yul\":1910:2032   */\n      pop\n      jump\t// out\n        /* \"#utility.yul\":2038:2177   */\n    tag_135:\n        /* \"#utility.yul\":2084:2089   */\n      0x00\n        /* \"#utility.yul\":2122:2128   */\n      dup2\n        /* \"#utility.yul\":2109:2129   */\n      calldataload\n        /* \"#utility.yul\":2100:2129   */\n      swap1\n      pop\n        /* \"#utility.yul\":2138:2171   */\n      tag_171\n        /* \"#utility.yul\":2165:2170   */\n      dup2\n        /* \"#utility.yul\":2138:2171   */\n      tag_134\n      jump\t// in\n    tag_171:\n        /* \"#utility.yul\":2038:2177   */\n      swap3\n      swap2\n      pop\n      pop\n      jump\t// out\n        /* \"#utility.yul\":2183:2260   */\n    tag_136:\n        /* \"#utility.yul\":2220:2227   */\n      0x00\n        /* \"#utility.yul\":2249:2254   */\n      dup2\n        /* \"#utility.yul\":2238:2254   */\n      swap1\n      pop\n        /* \"#utility.yul\":2183:2260   */\n      swap2\n      swap1\n      pop\n      jump\t// out\n        /* \"#utility.yul\":2266:2388   */\n    tag_137:\n        /* \"#utility.yul\":2339:2363   */\n      tag_174\n        /* \"#utility.yul\":2357:2362   */\n      dup2\n        /* \"#utility.yul\":2339:2363   */\n      tag_136\n      jump\t// in\n    tag_174:\n        /* \"#utility.yul\":2332:2337   */\n      dup2\n        /* \"#utility.yul\":2329:2364   */\n      eq\n        /* \"#utility.yul\":2319:2382   */\n      tag_175\n      jumpi\n        /* \"#utility.yul\":2378:2379   */\n      0x00\n        /* \"#utility.yul\":2375:2376   */\n      dup1\n        /* \"#utility.yul\":2368:2380   */\n      revert\n        /* \"#utility.yul\":2319:2382   */\n    tag_175:\n        /* \"#utility.yul\":2266:2388   */\n      pop\n      jump\t// out\n        /* \"#utility.yul\":2394:2533   */\n    tag_138:\n        /* \"#utility.yul\":2440:2445   */\n      0x00\n        /* \"#utility.yul\":2478:2484   */\n      dup2\n        /* \"#utility.yul\":2465:2485   */\n      calldataload\n        /* \"#utility.yul\":2456:2485   */\n      swap1\n      pop\n        /* \"#utility.yul\":2494:2527   */\n      tag_177\n        /* \"#utility.yul\":2521:2526   */\n      dup2\n        /* \"#utility.yul\":2494:2527   */\n      tag_137\n      jump\t// in\n    tag_177:\n        /* \"#utility.yul\":2394:2533   */\n      swap3\n      swap2\n      pop\n      pop\n      jump\t// out\n        /* \"#utility.yul\":2539:3013   */\n    tag_21:\n        /* \"#utility.yul\":2607:2613   */\n      0x00\n        /* \"#utility.yul\":2615:2621   */\n      dup1\n        /* \"#utility.yul\":2664:2666   */\n      0x40\n        /* \"#utility.yul\":2652:2661   */\n      dup4\n        /* \"#utility.yul\":2643:2650   */\n      dup6\n        /* \"#utility.yul\":2639:2662   */\n      sub\n        /* \"#utility.yul\":2635:2667   */\n      slt\n        /* \"#utility.yul\":2632:2751   */\n      iszero\n      tag_179\n      jumpi\n        /* \"#utility.yul\":2670:2749   */\n      tag_180\n      tag_130\n      jump\t// in\n    tag_180:\n        /* \"#utility.yul\":2632:2751   */\n    tag_179:\n        /* \"#utility.yul\":2790:2791   */\n      0x00\n        /* \"#utility.yul\":2815:2868   */\n      tag_181\n        /* \"#utility.yul\":2860:2867   */\n      dup6\n        /* \"#utility.yul\":2851:2857   */\n      dup3\n        /* \"#utility.yul\":2840:2849   */\n      dup7\n        /* \"#utility.yul\":2836:2858   */\n      add\n        /* \"#utility.yul\":2815:2868   */\n      tag_135\n      jump\t// in\n    tag_181:\n        /* \"#utility.yul\":2805:2868   */\n      swap3\n      pop\n        /* \"#utility.yul\":2761:2878   */\n      pop\n        /* \"#utility.yul\":2917:2919   */\n      0x20\n        /* \"#utility.yul\":2943:2996   */\n      tag_182\n        /* \"#utility.yul\":2988:2995   */\n      dup6\n        /* \"#utility.yul\":2979:2985   */\n      dup3\n        /* \"#utility.yul\":2968:2977   */\n      dup7\n        /* \"#utility.yul\":2964:2986   */\n      add\n        /* \"#utility.yul\":2943:2996   */\n      tag_138\n      jump\t// in\n    tag_182:\n        /* \"#utility.yul\":2933:2996   */\n      swap2\n      pop\n        /* \"#utility.yul\":2888:3006   */\n      pop\n        /* \"#utility.yul\":2539:3013   */\n      swap3\n      pop\n      swap3\n      swap1\n      pop\n      jump\t// out\n        /* \"#utility.yul\":3019:3109   */\n    tag_139:\n        /* \"#utility.yul\":3053:3060   */\n      0x00\n        /* \"#utility.yul\":3096:3101   */\n      dup2\n        /* \"#utility.yul\":3089:3102   */\n      iszero\n        /* \"#utility.yul\":3082:3103   */\n      iszero\n        /* \"#utility.yul\":3071:3103   */\n      swap1\n      pop\n        /* \"#utility.yul\":3019:3109   */\n      swap2\n      swap1\n      pop\n      jump\t// out\n        /* \"#utility.yul\":3115:3224   */\n    tag_140:\n        /* \"#utility.yul\":3196:3217   */\n      tag_185\n        /* \"#utility.yul\":3211:3216   */\n      dup2\n        /* \"#utility.yul\":3196:3217   */\n      tag_139\n      jump\t// in\n    tag_185:\n        /* \"#utility.yul\":3191:3194   */\n      dup3\n        /* \"#utility.yul\":3184:3218   */\n      mstore\n        /* \"#utility.yul\":3115:3224   */\n      pop\n      pop\n      jump\t// out\n        /* \"#utility.yul\":3230:3440   */\n    tag_24:\n        /* \"#utility.yul\":3317:3321   */\n      0x00\n        /* \"#utility.yul\":3355:3357   */\n      0x20\n        /* \"#utility.yul\":3344:3353   */\n      dup3\n        /* \"#utility.yul\":3340:3358   */\n      add\n        /* \"#utility.yul\":3332:3358   */\n      swap1\n      pop\n        /* \"#utility.yul\":3368:3433   */\n      tag_187\n        /* \"#utility.yul\":3430:3431   */\n      0x00\n        /* \"#utility.yul\":3419:3428   */\n      dup4\n        /* \"#utility.yul\":3415:3432   */\n      add\n        /* \"#utility.yul\":3406:3412   */\n      dup5\n        /* \"#utility.yul\":3368:3433   */\n      tag_140\n      jump\t// in\n    tag_187:\n        /* \"#utility.yul\":3230:3440   */\n      swap3\n      swap2\n      pop\n      pop\n      jump\t// out\n        /* \"#utility.yul\":3446:3564   */\n    tag_141:\n        /* \"#utility.yul\":3533:3557   */\n      tag_189\n        /* \"#utility.yul\":3551:3556   */\n      dup2\n        /* \"#utility.yul\":3533:3557   */\n      tag_136\n      jump\t// in\n    tag_189:\n        /* \"#utility.yul\":3528:3531   */\n      dup3\n        /* \"#utility.yul\":3521:3558   */\n      mstore\n        /* \"#utility.yul\":3446:3564   */\n      pop\n      pop\n      jump\t// out\n        /* \"#utility.yul\":3570:3792   */\n    tag_28:\n        /* \"#utility.yul\":3663:3667   */\n      0x00\n        /* \"#utility.yul\":3701:3703   */\n      0x20\n        /* \"#utility.yul\":3690:3699   */\n      dup3\n        /* \"#utility.yul\":3686:3704   */\n      add\n        /* \"#utility.yul\":3678:3704   */\n      swap1\n      pop\n        /* \"#utility.yul\":3714:3785   */\n      tag_191\n        /* \"#utility.yul\":3782:3783   */\n      0x00\n        /* \"#utility.yul\":3771:3780   */\n      dup4\n        /* \"#utility.yul\":3767:3784   */\n      add\n        /* \"#utility.yul\":3758:3764   */\n      dup5\n        /* \"#utility.yul\":3714:3785   */\n      tag_141\n      jump\t// in\n    tag_191:\n        /* \"#utility.yul\":3570:3792   */\n      swap3\n      swap2\n      pop\n      pop\n      jump\t// out\n        /* \"#utility.yul\":3798:4417   */\n    tag_31:\n        /* \"#utility.yul\":3875:3881   */\n      0x00\n        /* \"#utility.yul\":3883:3889   */\n      dup1\n        /* \"#utility.yul\":3891:3897   */\n      0x00\n        /* \"#utility.yul\":3940:3942   */\n      0x60\n        /* \"#utility.yul\":3928:3937   */\n      dup5\n        /* \"#utility.yul\":3919:3926   */\n      dup7\n        /* \"#utility.yul\":3915:3938   */\n      sub\n        /* \"#utility.yul\":3911:3943   */\n      slt\n        /* \"#utility.yul\":3908:4027   */\n      iszero\n      tag_193\n      jumpi\n        /* \"#utility.yul\":3946:4025   */\n      tag_194\n      tag_130\n      jump\t// in\n    tag_194:\n        /* \"#utility.yul\":3908:4027   */\n    tag_193:\n        /* \"#utility.yul\":4066:4067   */\n      0x00\n        /* \"#utility.yul\":4091:4144   */\n      tag_195\n        /* \"#utility.yul\":4136:4143   */\n      dup7\n        /* \"#utility.yul\":4127:4133   */\n      dup3\n        /* \"#utility.yul\":4116:4125   */\n      dup8\n        /* \"#utility.yul\":4112:4134   */\n      add\n        /* \"#utility.yul\":4091:4144   */\n      tag_135\n      jump\t// in\n    tag_195:\n        /* \"#utility.yul\":4081:4144   */\n      swap4\n      pop\n        /* \"#utility.yul\":4037:4154   */\n      pop\n        /* \"#utility.yul\":4193:4195   */\n      0x20\n        /* \"#utility.yul\":4219:4272   */\n      tag_196\n        /* \"#utility.yul\":4264:4271   */\n      dup7\n        /* \"#utility.yul\":4255:4261   */\n      dup3\n        /* \"#utility.yul\":4244:4253   */\n      dup8\n        /* \"#utility.yul\":4240:4262   */\n      add\n        /* \"#utility.yul\":4219:4272   */\n      tag_135\n      jump\t// in\n    tag_196:\n        /* \"#utility.yul\":4209:4272   */\n      swap3\n      pop\n        /* \"#utility.yul\":4164:4282   */\n      pop\n        /* \"#utility.yul\":4321:4323   */\n      0x40\n        /* \"#utility.yul\":4347:4400   */\n      tag_197\n        /* \"#utility.yul\":4392:4399   */\n      dup7\n        /* \"#utility.yul\":4383:4389   */\n      dup3\n        /* \"#utility.yul\":4372:4381   */\n      dup8\n        /* \"#utility.yul\":4368:4390   */\n      add\n        /* \"#utility.yul\":4347:4400   */\n      tag_138\n      jump\t// in\n    tag_197:\n        /* \"#utility.yul\":4337:4400   */\n      swap2\n      pop\n        /* \"#utility.yul\":4292:4410   */\n      pop\n        /* \"#utility.yul\":3798:4417   */\n      swap3\n      pop\n      swap3\n      pop\n      swap3\n      jump\t// out\n        /* \"#utility.yul\":4423:4509   */\n    tag_142:\n        /* \"#utility.yul\":4458:4465   */\n      0x00\n        /* \"#utility.yul\":4498:4502   */\n      0xff\n        /* \"#utility.yul\":4491:4496   */\n      dup3\n        /* \"#utility.yul\":4487:4503   */\n      and\n        /* \"#utility.yul\":4476:4503   */\n      swap1\n      pop\n        /* \"#utility.yul\":4423:4509   */\n      swap2\n      swap1\n      pop\n      jump\t// out\n        /* \"#utility.yul\":4515:4627   */\n    tag_143:\n        /* \"#utility.yul\":4598:4620   */\n      tag_200\n        /* \"#utility.yul\":4614:4619   */\n      dup2\n        /* \"#utility.yul\":4598:4620   */\n      tag_142\n      jump\t// in\n    tag_200:\n        /* \"#utility.yul\":4593:4596   */\n      dup3\n        /* \"#utility.yul\":4586:4621   */\n      mstore\n        /* \"#utility.yul\":4515:4627   */\n      pop\n      pop\n      jump\t// out\n        /* \"#utility.yul\":4633:4847   */\n    tag_37:\n        /* \"#utility.yul\":4722:4726   */\n      0x00\n        /* \"#utility.yul\":4760:4762   */\n      0x20\n        /* \"#utility.yul\":4749:4758   */\n      dup3\n        /* \"#utility.yul\":4745:4763   */\n      add\n        /* \"#utility.yul\":4737:4763   */\n      swap1\n      pop\n        /* \"#utility.yul\":4773:4840   */\n      tag_202\n        /* \"#utility.yul\":4837:4838   */\n      0x00\n        /* \"#utility.yul\":4826:4835   */\n      dup4\n        /* \"#utility.yul\":4822:4839   */\n      add\n        /* \"#utility.yul\":4813:4819   */\n      dup5\n        /* \"#utility.yul\":4773:4840   */\n      tag_143\n      jump\t// in\n    tag_202:\n        /* \"#utility.yul\":4633:4847   */\n      swap3\n      swap2\n      pop\n      pop\n      jump\t// out\n        /* \"#utility.yul\":4853:5182   */\n    tag_40:\n        /* \"#utility.yul\":4912:4918   */\n      0x00\n        /* \"#utility.yul\":4961:4963   */\n      0x20\n        /* \"#utility.yul\":4949:4958   */\n      dup3\n        /* \"#utility.yul\":4940:4947   */\n      dup5\n        /* \"#utility.yul\":4936:4959   */\n      sub\n        /* \"#utility.yul\":4932:4964   */\n      slt\n        /* \"#utility.yul\":4929:5048   */\n      iszero\n      tag_204\n      jumpi\n        /* \"#utility.yul\":4967:5046   */\n      tag_205\n      tag_130\n      jump\t// in\n    tag_205:\n        /* \"#utility.yul\":4929:5048   */\n    tag_204:\n        /* \"#utility.yul\":5087:5088   */\n      0x00\n        /* \"#utility.yul\":5112:5165   */\n      tag_206\n        /* \"#utility.yul\":5157:5164   */\n      dup5\n        /* \"#utility.yul\":5148:5154   */\n      dup3\n        /* \"#utility.yul\":5137:5146   */\n      dup6\n        /* \"#utility.yul\":5133:5155   */\n      add\n        /* \"#utility.yul\":5112:5165   */\n      tag_138\n      jump\t// in\n    tag_206:\n        /* \"#utility.yul\":5102:5165   */\n      swap2\n      pop\n        /* \"#utility.yul\":5058:5175   */\n      pop\n        /* \"#utility.yul\":4853:5182   */\n      swap3\n      swap2\n      pop\n      pop\n      jump\t// out\n        /* \"#utility.yul\":5188:5517   */\n    tag_44:\n        /* \"#utility.yul\":5247:5253   */\n      0x00\n        /* \"#utility.yul\":5296:5298   */\n      0x20\n        /* \"#utility.yul\":5284:5293   */\n      dup3\n        /* \"#utility.yul\":5275:5282   */\n      dup5\n        /* \"#utility.yul\":5271:5294   */\n      sub\n        /* \"#utility.yul\":5267:5299   */\n      slt\n        /* \"#utility.yul\":5264:5383   */\n      iszero\n      tag_208\n      jumpi\n        /* \"#utility.yul\":5302:5381   */\n      tag_209\n      tag_130\n      jump\t// in\n    tag_209:\n        /* \"#utility.yul\":5264:5383   */\n    tag_208:\n        /* \"#utility.yul\":5422:5423   */\n      0x00\n        /* \"#utility.yul\":5447:5500   */\n      tag_210\n        /* \"#utility.yul\":5492:5499   */\n      dup5\n        /* \"#utility.yul\":5483:5489   */\n      dup3\n        /* \"#utility.yul\":5472:5481   */\n      dup6\n        /* \"#utility.yul\":5468:5490   */\n      add\n        /* \"#utility.yul\":5447:5500   */\n      tag_135\n      jump\t// in\n    tag_210:\n        /* \"#utility.yul\":5437:5500   */\n      swap2\n      pop\n        /* \"#utility.yul\":5393:5510   */\n      pop\n        /* \"#utility.yul\":5188:5517   */\n      swap3\n      swap2\n      pop\n      pop\n      jump\t// out\n        /* \"#utility.yul\":5523:5997   */\n    tag_59:\n        /* \"#utility.yul\":5591:5597   */\n      0x00\n        /* \"#utility.yul\":5599:5605   */\n      dup1\n        /* \"#utility.yul\":5648:5650   */\n      0x40\n        /* \"#utility.yul\":5636:5645   */\n      dup4\n        /* \"#utility.yul\":5627:5634   */\n      dup6\n        /* \"#utility.yul\":5623:5646   */\n      sub\n        /* \"#utility.yul\":5619:5651   */\n      slt\n        /* \"#utility.yul\":5616:5735   */\n      iszero\n      tag_212\n      jumpi\n        /* \"#utility.yul\":5654:5733   */\n      tag_213\n      tag_130\n      jump\t// in\n    tag_213:\n        /* \"#utility.yul\":5616:5735   */\n    tag_212:\n        /* \"#utility.yul\":5774:5775   */\n      0x00\n        /* \"#utility.yul\":5799:5852   */\n      tag_214\n        /* \"#utility.yul\":5844:5851   */\n      dup6\n        /* \"#utility.yul\":5835:5841   */\n      dup3\n        /* \"#utility.yul\":5824:5833   */\n      dup7\n        /* \"#utility.yul\":5820:5842   */\n      add\n        /* \"#utility.yul\":5799:5852   */\n      tag_135\n      jump\t// in\n    tag_214:\n        /* \"#utility.yul\":5789:5852   */\n      swap3\n      pop\n        /* \"#utility.yul\":5745:5862   */\n      pop\n        /* \"#utility.yul\":5901:5903   */\n      0x20\n        /* \"#utility.yul\":5927:5980   */\n      tag_215\n        /* \"#utility.yul\":5972:5979   */\n      dup6\n        /* \"#utility.yul\":5963:5969   */\n      dup3\n        /* \"#utility.yul\":5952:5961   */\n      dup7\n        /* \"#utility.yul\":5948:5970   */\n      add\n        /* \"#utility.yul\":5927:5980   */\n      tag_135\n      jump\t// in\n    tag_215:\n        /* \"#utility.yul\":5917:5980   */\n      swap2\n      pop\n        /* \"#utility.yul\":5872:5990   */\n      pop\n        /* \"#utility.yul\":5523:5997   */\n      swap3\n      pop\n      swap3\n      swap1\n      pop\n      jump\t// out\n        /* \"#utility.yul\":6003:6183   */\n    tag_144:\n        /* \"#utility.yul\":6051:6128   */\n      0x4e487b7100000000000000000000000000000000000000000000000000000000\n        /* \"#utility.yul\":6048:6049   */\n      0x00\n        /* \"#utility.yul\":6041:6129   */\n      mstore\n        /* \"#utility.yul\":6148:6152   */\n      0x22\n        /* \"#utility.yul\":6145:6146   */\n      0x04\n        /* \"#utility.yul\":6138:6153   */\n      mstore\n        /* \"#utility.yul\":6172:6176   */\n      0x24\n        /* \"#utility.yul\":6169:6170   */\n      0x00\n        /* \"#utility.yul\":6162:6177   */\n      revert\n        /* \"#utility.yul\":6189:6509   */\n    tag_64:\n        /* \"#utility.yul\":6233:6239   */\n      0x00\n        /* \"#utility.yul\":6270:6271   */\n      0x02\n        /* \"#utility.yul\":6264:6268   */\n      dup3\n        /* \"#utility.yul\":6260:6272   */\n      div\n        /* \"#utility.yul\":6250:6272   */\n      swap1\n      pop\n        /* \"#utility.yul\":6317:6318   */\n      0x01\n        /* \"#utility.yul\":6311:6315   */\n      dup3\n        /* \"#utility.yul\":6307:6319   */\n      and\n        /* \"#utility.yul\":6338:6356   */\n      dup1\n        /* \"#utility.yul\":6328:6409   */\n      tag_218\n      jumpi\n        /* \"#utility.yul\":6394:6398   */\n      0x7f\n        /* \"#utility.yul\":6386:6392   */\n      dup3\n        /* \"#utility.yul\":6382:6399   */\n      and\n        /* \"#utility.yul\":6372:6399   */\n      swap2\n      pop\n        /* \"#utility.yul\":6328:6409   */\n    tag_218:\n        /* \"#utility.yul\":6456:6458   */\n      0x20\n        /* \"#utility.yul\":6448:6454   */\n      dup3\n        /* \"#utility.yul\":6445:6459   */\n      lt\n        /* \"#utility.yul\":6425:6443   */\n      dup2\n        /* \"#utility.yul\":6422:6460   */\n      sub\n        /* \"#utility.yul\":6419:6503   */\n      tag_219\n      jumpi\n        /* \"#utility.yul\":6475:6493   */\n      tag_220\n      tag_144\n      jump\t// in\n    tag_220:\n        /* \"#utility.yul\":6419:6503   */\n    tag_219:\n        /* \"#utility.yul\":6240:6509   */\n      pop\n        /* \"#utility.yul\":6189:6509   */\n      swap2\n      swap1\n      pop\n      jump\t// out\n        /* \"#utility.yul\":6515:6695   */\n    tag_145:\n        /* \"#utility.yul\":6563:6640   */\n      0x4e487b7100000000000000000000000000000000000000000000000000000000\n        /* \"#utility.yul\":6560:6561   */\n      0x00\n        /* \"#utility.yul\":6553:6641   */\n      mstore\n        /* \"#utility.yul\":6660:6664   */\n      0x11\n        /* \"#utility.yul\":6657:6658   */\n      0x04\n        /* \"#utility.yul\":6650:6665   */\n      mstore\n        /* \"#utility.yul\":6684:6688   */\n      0x24\n        /* \"#utility.yul\":6681:6682   */\n      0x00\n        /* \"#utility.yul\":6674:6689   */\n      revert\n        /* \"#utility.yul\":6701:6895   */\n    tag_78:\n        /* \"#utility.yul\":6741:6745   */\n      0x00\n        /* \"#utility.yul\":6761:6781   */\n      tag_223\n        /* \"#utility.yul\":6779:6780   */\n      dup3\n        /* \"#utility.yul\":6761:6781   */\n      tag_136\n      jump\t// in\n    tag_223:\n        /* \"#utility.yul\":6756:6781   */\n      swap2\n      pop\n        /* \"#utility.yul\":6795:6815   */\n      tag_224\n        /* \"#utility.yul\":6813:6814   */\n      dup4\n        /* \"#utility.yul\":6795:6815   */\n      tag_136\n      jump\t// in\n    tag_224:\n        /* \"#utility.yul\":6790:6815   */\n      swap3\n      pop\n        /* \"#utility.yul\":6839:6840   */\n      dup3\n        /* \"#utility.yul\":6836:6837   */\n      dup3\n        /* \"#utility.yul\":6832:6841   */\n      sub\n        /* \"#utility.yul\":6824:6841   */\n      swap1\n      pop\n        /* \"#utility.yul\":6863:6864   */\n      dup2\n        /* \"#utility.yul\":6857:6861   */\n      dup2\n        /* \"#utility.yul\":6854:6865   */\n      gt\n        /* \"#utility.yul\":6851:6888   */\n      iszero\n      tag_225\n      jumpi\n        /* \"#utility.yul\":6868:6886   */\n      tag_226\n      tag_145\n      jump\t// in\n    tag_226:\n        /* \"#utility.yul\":6851:6888   */\n    tag_225:\n        /* \"#utility.yul\":6701:6895   */\n      swap3\n      swap2\n      pop\n      pop\n      jump\t// out\n        /* \"#utility.yul\":6901:7092   */\n    tag_110:\n        /* \"#utility.yul\":6941:6944   */\n      0x00\n        /* \"#utility.yul\":6960:6980   */\n      tag_228\n        /* \"#utility.yul\":6978:6979   */\n      dup3\n        /* \"#utility.yul\":6960:6980   */\n      tag_136\n      jump\t// in\n    tag_228:\n        /* \"#utility.yul\":6955:6980   */\n      swap2\n      pop\n        /* \"#utility.yul\":6994:7014   */\n      tag_229\n        /* \"#utility.yul\":7012:7013   */\n      dup4\n        /* \"#utility.yul\":6994:7014   */\n      tag_136\n      jump\t// in\n    tag_229:\n        /* \"#utility.yul\":6989:7014   */\n      swap3\n      pop\n        /* \"#utility.yul\":7037:7038   */\n      dup3\n        /* \"#utility.yul\":7034:7035   */\n      dup3\n        /* \"#utility.yul\":7030:7039   */\n      add\n        /* \"#utility.yul\":7023:7039   */\n      swap1\n      pop\n        /* \"#utility.yul\":7058:7061   */\n      dup1\n        /* \"#utility.yul\":7055:7056   */\n      dup3\n        /* \"#utility.yul\":7052:7062   */\n      gt\n        /* \"#utility.yul\":7049:7085   */\n      iszero\n      tag_230\n      jumpi\n        /* \"#utility.yul\":7065:7083   */\n      tag_231\n      tag_145\n      jump\t// in\n    tag_231:\n        /* \"#utility.yul\":7049:7085   */\n    tag_230:\n        /* \"#utility.yul\":6901:7092   */\n      swap3\n      swap2\n      pop\n      pop\n      jump\t// out\n\n    auxdata: 0xa264697066735822122060cb7257bc711857004a893eee7d4bc7de3b8a746dd24d180321b0564e920fc164736f6c63430008120033\n}\n",
				"bytecode": {
					"linkReferences": {},
					"object": "60806040523480156200001157600080fd5b5060405162001765380380620017658339818101604052810190620000379190620002c0565b60128160ff1611156200004957600080fd5b60008160ff1610156200005b57600080fd5b826000800190816200006e9190620005a5565b508160006001019081620000839190620005a5565b5080600060020160006101000a81548160ff021916908360ff16021790555033600060040160006101000a81548173ffffffffffffffffffffffffffffffffffffffff021916908373ffffffffffffffffffffffffffffffffffffffff1602179055505050506200068c565b6000604051905090565b600080fd5b600080fd5b600080fd5b600080fd5b6000601f19601f8301169050919050565b7f4e487b7100000000000000000000000000000000000000000000000000000000600052604160045260246000fd5b62000158826200010d565b810181811067ffffffffffffffff821117156200017a57620001796200011e565b5b80604052505050565b60006200018f620000ef565b90506200019d82826200014d565b919050565b600067ffffffffffffffff821115620001c057620001bf6200011e565b5b620001cb826200010d565b9050602081019050919050565b60005b83811015620001f8578082015181840152602081019050620001db565b60008484015250505050565b60006200021b6200021584620001a2565b62000183565b9050828152602081018484840111156200023a576200023962000108565b5b62000247848285620001d8565b509392505050565b600082601f83011262000267576200026662000103565b5b81516200027984826020860162000204565b91505092915050565b600060ff82169050919050565b6200029a8162000282565b8114620002a657600080fd5b50565b600081519050620002ba816200028f565b92915050565b600080600060608486031215620002dc57620002db620000f9565b5b600084015167ffffffffffffffff811115620002fd57620002fc620000fe565b5b6200030b868287016200024f565b935050602084015167ffffffffffffffff8111156200032f576200032e620000fe565b5b6200033d868287016200024f565b92505060406200035086828701620002a9565b9150509250925092565b600081519050919050565b7f4e487b7100000000000000000000000000000000000000000000000000000000600052602260045260246000fd5b60006002820490506001821680620003ad57607f821691505b602082108103620003c357620003c262000365565b5b50919050565b60008190508160005260206000209050919050565b60006020601f8301049050919050565b600082821b905092915050565b6000600883026200042d7fffffffffffffffffffffffffffffffffffffffffffffffffffffffffffffffff82620003ee565b620004398683620003ee565b95508019841693508086168417925050509392505050565b6000819050919050565b6000819050919050565b600062000486620004806200047a8462000451565b6200045b565b62000451565b9050919050565b6000819050919050565b620004a28362000465565b620004ba620004b1826200048d565b848454620003fb565b825550505050565b600090565b620004d1620004c2565b620004de81848462000497565b505050565b5b818110156200050657620004fa600082620004c7565b600181019050620004e4565b5050565b601f82111562000555576200051f81620003c9565b6200052a84620003de565b810160208510156200053a578190505b620005526200054985620003de565b830182620004e3565b50505b505050565b600082821c905092915050565b60006200057a600019846008026200055a565b1980831691505092915050565b600062000595838362000567565b9150826002028217905092915050565b620005b0826200035a565b67ffffffffffffffff811115620005cc57620005cb6200011e565b5b620005d8825462000394565b620005e58282856200050a565b600060209050601f8311600181146200061d576000841562000608578287015190505b62000614858262000587565b86555062000684565b601f1984166200062d86620003c9565b60005b82811015620006575784890151825560018201915060208501945060208101905062000630565b8683101562000677578489015162000673601f89168262000567565b8355505b6001600288020188555050505b505050505050565b6110c9806200069c6000396000f3fe608060405234801561001057600080fd5b50600436106100a95760003560e01c806342966c681161007157806342966c681461016857806370a082311461018457806395d89b41146101b4578063a0712d68146101d2578063a9059cbb146101ee578063dd62ed3e1461021e576100a9565b806306fdde03146100ae578063095ea7b3146100cc57806318160ddd146100fc57806323b872dd1461011a578063313ce5671461014a575b600080fd5b6100b661024e565b6040516100c39190610d1d565b60405180910390f35b6100e660048036038101906100e19190610dd8565b6102e2565b6040516100f39190610e33565b60405180910390f35b61010461044b565b6040516101119190610e5d565b60405180910390f35b610134600480360381019061012f9190610e78565b610457565b6040516101419190610e33565b60405180910390f35b6101526105bc565b60405161015f9190610ee7565b60405180910390f35b610182600480360381019061017d9190610f02565b6105d5565b005b61019e60048036038101906101999190610f2f565b610645565b6040516101ab9190610e5d565b60405180910390f35b6101bc61068e565b6040516101c99190610d1d565b60405180910390f35b6101ec60048036038101906101e79190610f02565b610723565b005b61020860048036038101906102039190610dd8565b610793565b6040516102159190610e33565b60405180910390f35b61023860048036038101906102339190610f5c565b6107af565b6040516102459190610e5d565b60405180910390f35b606060008001805461025f90610fcb565b80601f016020809104026020016040519081016040528092919081815260200182805461028b90610fcb565b80156102d85780601f106102ad576101008083540402835291602001916102d8565b820191906000526020600020905b8154815290600101906020018083116102bb57829003601f168201915b5050505050905090565b600080339050600073ffffffffffffffffffffffffffffffffffffffff168173ffffffffffffffffffffffffffffffffffffffff160361032157600080fd5b600073ffffffffffffffffffffffffffffffffffffffff168473ffffffffffffffffffffffffffffffffffffffff160361035a57600080fd5b82600660008373ffffffffffffffffffffffffffffffffffffffff1673ffffffffffffffffffffffffffffffffffffffff16815260200190815260200160002060008673ffffffffffffffffffffffffffffffffffffffff1673ffffffffffffffffffffffffffffffffffffffff168152602001908152602001600020819055508373ffffffffffffffffffffffffffffffffffffffff168173ffffffffffffffffffffffffffffffffffffffff167f8c5be1e5ebec7d5bd14f71427d1e84f3dd0314c0f7b2291e5b200ac8c7c3b925856040516104389190610e5d565b60405180910390a3600191505092915050565b60008060030154905090565b600080600660003373ffffffffffffffffffffffffffffffffffffffff1673ffffffffffffffffffffffffffffffffffffffff16815260200190815260200160002060008573ffffffffffffffffffffffffffffffffffffffff1673ffffffffffffffffffffffffffffffffffffffff1681526020019081526020016000205490507fffffffffffffffffffffffffffffffffffffffffffffffffffffffffffffffff810361050557600080fd5b8281101561051257600080fd5b82600660003373ffffffffffffffffffffffffffffffffffffffff1673ffffffffffffffffffffffffffffffffffffffff16815260200190815260200160002060008673ffffffffffffffffffffffffffffffffffffffff1673ffffffffffffffffffffffffffffffffffffffff168152602001908152602001600020600082825461059e919061102b565b925050819055506105b0858585610836565b60019150509392505050565b60008060020160009054906101000a900460ff16905090565b600060040160009054906101000a900473ffffffffffffffffffffffffffffffffffffffff1673ffffffffffffffffffffffffffffffffffffffff163373ffffffffffffffffffffffffffffffffffffffff161461063257600080fd5b60003390506106418183610a2c565b5050565b6000600560008373ffffffffffffffffffffffffffffffffffffffff1673ffffffffffffffffffffffffffffffffffffffff168152602001908152602001600020549050919050565b6060600060010180546106a090610fcb565b80601f01602080910402602001604051908101604052809291908181526020018280546106cc90610fcb565b80156107195780601f106106ee57610100808354040283529160200191610719565b820191906000526020600020905b8154815290600101906020018083116106fc57829003601f168201915b5050505050905090565b600060040160009054906101000a900473ffffffffffffffffffffffffffffffffffffffff1673ffffffffffffffffffffffffffffffffffffffff163373ffffffffffffffffffffffffffffffffffffffff161461078057600080fd5b600033905061078f8183610b69565b5050565b6000803390506107a4818585610836565b600191505092915050565b6000600660008473ffffffffffffffffffffffffffffffffffffffff1673ffffffffffffffffffffffffffffffffffffffff16815260200190815260200160002060008373ffffffffffffffffffffffffffffffffffffffff1673ffffffffffffffffffffffffffffffffffffffff16815260200190815260200160002054905092915050565b6000600560008573ffffffffffffffffffffffffffffffffffffffff1673ffffffffffffffffffffffffffffffffffffffff168152602001908152602001600020549050600073ffffffffffffffffffffffffffffffffffffffff168473ffffffffffffffffffffffffffffffffffffffff16036108b357600080fd5b600073ffffffffffffffffffffffffffffffffffffffff168373ffffffffffffffffffffffffffffffffffffffff16036108ec57600080fd5b818110156108f957600080fd5b600081111561090757600080fd5b600082101561091557600080fd5b81600560008673ffffffffffffffffffffffffffffffffffffffff1673ffffffffffffffffffffffffffffffffffffffff1681526020019081526020016000206000828254610964919061102b565b9250508190555081600560008573ffffffffffffffffffffffffffffffffffffffff1673ffffffffffffffffffffffffffffffffffffffff16815260200190815260200160002060008282546109ba919061105f565b925050819055508273ffffffffffffffffffffffffffffffffffffffff168473ffffffffffffffffffffffffffffffffffffffff167fddf252ad1be2c89b69c2b068fc378daa952ba7f163c4a11628f55a4df523b3ef84604051610a1e9190610e5d565b60405180910390a350505050565b600080600560008573ffffffffffffffffffffffffffffffffffffffff1673ffffffffffffffffffffffffffffffffffffffff1681526020019081526020016000205490506000831015610a7f57600080fd5b80831115610a8c57600080fd5b82600560008673ffffffffffffffffffffffffffffffffffffffff1673ffffffffffffffffffffffffffffffffffffffff1681526020019081526020016000206000828254610adb919061102b565b925050819055508260006003016000828254610af7919061102b565b925050819055508173ffffffffffffffffffffffffffffffffffffffff168473ffffffffffffffffffffffffffffffffffffffff167fddf252ad1be2c89b69c2b068fc378daa952ba7f163c4a11628f55a4df523b3ef85604051610b5b9190610e5d565b60405180910390a350505050565b600080821015610b7857600080fd5b600073ffffffffffffffffffffffffffffffffffffffff168373ffffffffffffffffffffffffffffffffffffffff1603610bb157600080fd5b81600560008573ffffffffffffffffffffffffffffffffffffffff1673ffffffffffffffffffffffffffffffffffffffff1681526020019081526020016000206000828254610c00919061105f565b925050819055508160006003016000828254610c1c919061105f565b925050819055508273ffffffffffffffffffffffffffffffffffffffff168173ffffffffffffffffffffffffffffffffffffffff167fddf252ad1be2c89b69c2b068fc378daa952ba7f163c4a11628f55a4df523b3ef84604051610c809190610e5d565b60405180910390a3505050565b600081519050919050565b600082825260208201905092915050565b60005b83811015610cc7578082015181840152602081019050610cac565b60008484015250505050565b6000601f19601f8301169050919050565b6000610cef82610c8d565b610cf98185610c98565b9350610d09818560208601610ca9565b610d1281610cd3565b840191505092915050565b60006020820190508181036000830152610d378184610ce4565b905092915050565b600080fd5b600073ffffffffffffffffffffffffffffffffffffffff82169050919050565b6000610d6f82610d44565b9050919050565b610d7f81610d64565b8114610d8a57600080fd5b50565b600081359050610d9c81610d76565b92915050565b6000819050919050565b610db581610da2565b8114610dc057600080fd5b50565b600081359050610dd281610dac565b92915050565b60008060408385031215610def57610dee610d3f565b5b6000610dfd85828601610d8d565b9250506020610e0e85828601610dc3565b9150509250929050565b60008115159050919050565b610e2d81610e18565b82525050565b6000602082019050610e486000830184610e24565b92915050565b610e5781610da2565b82525050565b6000602082019050610e726000830184610e4e565b92915050565b600080600060608486031215610e9157610e90610d3f565b5b6000610e9f86828701610d8d565b9350506020610eb086828701610d8d565b9250506040610ec186828701610dc3565b9150509250925092565b600060ff82169050919050565b610ee181610ecb565b82525050565b6000602082019050610efc6000830184610ed8565b92915050565b600060208284031215610f1857610f17610d3f565b5b6000610f2684828501610dc3565b91505092915050565b600060208284031215610f4557610f44610d3f565b5b6000610f5384828501610d8d565b91505092915050565b60008060408385031215610f7357610f72610d3f565b5b6000610f8185828601610d8d565b9250506020610f9285828601610d8d565b9150509250929050565b7f4e487b7100000000000000000000000000000000000000000000000000000000600052602260045260246000fd5b60006002820490506001821680610fe357607f821691505b602082108103610ff657610ff5610f9c565b5b50919050565b7f4e487b7100000000000000000000000000000000000000000000000000000000600052601160045260246000fd5b600061103682610da2565b915061104183610da2565b925082820390508181111561105957611058610ffc565b5b92915050565b600061106a82610da2565b915061107583610da2565b925082820190508082111561108d5761108c610ffc565b5b9291505056fea264697066735822122060cb7257bc711857004a893eee7d4bc7de3b8a746dd24d180321b0564e920fc164736f6c63430008120033",
					"opcodes": "PUSH1 0x80 PUSH1 0x40 MSTORE CALLVALUE DUP1 ISZERO PUSH3 0x11 JUMPI PUSH1 0x0 DUP1 REVERT JUMPDEST POP PUSH1 0x40 MLOAD PUSH3 0x1765 CODESIZE SUB DUP1 PUSH3 0x1765 DUP4 CODECOPY DUP2 DUP2 ADD PUSH1 0x40 MSTORE DUP2 ADD SWAP1 PUSH3 0x37 SWAP2 SWAP1 PUSH3 0x2C0 JUMP JUMPDEST PUSH1 0x12 DUP2 PUSH1 0xFF AND GT ISZERO PUSH3 0x49 JUMPI PUSH1 0x0 DUP1 REVERT JUMPDEST PUSH1 0x0 DUP2 PUSH1 0xFF AND LT ISZERO PUSH3 0x5B JUMPI PUSH1 0x0 DUP1 REVERT JUMPDEST DUP3 PUSH1 0x0 DUP1 ADD SWAP1 DUP2 PUSH3 0x6E SWAP2 SWAP1 PUSH3 0x5A5 JUMP JUMPDEST POP DUP2 PUSH1 0x0 PUSH1 0x1 ADD SWAP1 DUP2 PUSH3 0x83 SWAP2 SWAP1 PUSH3 0x5A5 JUMP JUMPDEST POP DUP1 PUSH1 0x0 PUSH1 0x2 ADD PUSH1 0x0 PUSH2 0x100 EXP DUP2 SLOAD DUP2 PUSH1 0xFF MUL NOT AND SWAP1 DUP4 PUSH1 0xFF AND MUL OR SWAP1 SSTORE POP CALLER PUSH1 0x0 PUSH1 0x4 ADD PUSH1 0x0 PUSH2 0x100 EXP DUP2 SLOAD DUP2 PUSH20 0xFFFFFFFFFFFFFFFFFFFFFFFFFFFFFFFFFFFFFFFF MUL NOT AND SWAP1 DUP4 PUSH20 0xFFFFFFFFFFFFFFFFFFFFFFFFFFFFFFFFFFFFFFFF AND MUL OR SWAP1 SSTORE POP POP POP POP PUSH3 0x68C JUMP JUMPDEST PUSH1 0x0 PUSH1 0x40 MLOAD SWAP1 POP SWAP1 JUMP JUMPDEST PUSH1 0x0 DUP1 REVERT JUMPDEST PUSH1 0x0 DUP1 REVERT JUMPDEST PUSH1 0x0 DUP1 REVERT JUMPDEST PUSH1 0x0 DUP1 REVERT JUMPDEST PUSH1 0x0 PUSH1 0x1F NOT PUSH1 0x1F DUP4 ADD AND SWAP1 POP SWAP2 SWAP1 POP JUMP JUMPDEST PUSH32 0x4E487B7100000000000000000000000000000000000000000000000000000000 PUSH1 0x0 MSTORE PUSH1 0x41 PUSH1 0x4 MSTORE PUSH1 0x24 PUSH1 0x0 REVERT JUMPDEST PUSH3 0x158 DUP3 PUSH3 0x10D JUMP JUMPDEST DUP2 ADD DUP2 DUP2 LT PUSH8 0xFFFFFFFFFFFFFFFF DUP3 GT OR ISZERO PUSH3 0x17A JUMPI PUSH3 0x179 PUSH3 0x11E JUMP JUMPDEST JUMPDEST DUP1 PUSH1 0x40 MSTORE POP POP POP JUMP JUMPDEST PUSH1 0x0 PUSH3 0x18F PUSH3 0xEF JUMP JUMPDEST SWAP1 POP PUSH3 0x19D DUP3 DUP3 PUSH3 0x14D JUMP JUMPDEST SWAP2 SWAP1 POP JUMP JUMPDEST PUSH1 0x0 PUSH8 0xFFFFFFFFFFFFFFFF DUP3 GT ISZERO PUSH3 0x1C0 JUMPI PUSH3 0x1BF PUSH3 0x11E JUMP JUMPDEST JUMPDEST PUSH3 0x1CB DUP3 PUSH3 0x10D JUMP JUMPDEST SWAP1 POP PUSH1 0x20 DUP2 ADD SWAP1 POP SWAP2 SWAP1 POP JUMP JUMPDEST PUSH1 0x0 JUMPDEST DUP4 DUP2 LT ISZERO PUSH3 0x1F8 JUMPI DUP1 DUP3 ADD MLOAD DUP2 DUP5 ADD MSTORE PUSH1 0x20 DUP2 ADD SWAP1 POP PUSH3 0x1DB JUMP JUMPDEST PUSH1 0x0 DUP5 DUP5 ADD MSTORE POP POP POP POP JUMP JUMPDEST PUSH1 0x0 PUSH3 0x21B PUSH3 0x215 DUP5 PUSH3 0x1A2 JUMP JUMPDEST PUSH3 0x183 JUMP JUMPDEST SWAP1 POP DUP3 DUP2 MSTORE PUSH1 0x20 DUP2 ADD DUP5 DUP5 DUP5 ADD GT ISZERO PUSH3 0x23A JUMPI PUSH3 0x239 PUSH3 0x108 JUMP JUMPDEST JUMPDEST PUSH3 0x247 DUP5 DUP3 DUP6 PUSH3 0x1D8 JUMP JUMPDEST POP SWAP4 SWAP3 POP POP POP JUMP JUMPDEST PUSH1 0x0 DUP3 PUSH1 0x1F DUP4 ADD SLT PUSH3 0x267 JUMPI PUSH3 0x266 PUSH3 0x103 JUMP JUMPDEST JUMPDEST DUP2 MLOAD PUSH3 0x279 DUP5 DUP3 PUSH1 0x20 DUP7 ADD PUSH3 0x204 JUMP JUMPDEST SWAP2 POP POP SWAP3 SWAP2 POP POP JUMP JUMPDEST PUSH1 0x0 PUSH1 0xFF DUP3 AND SWAP1 POP SWAP2 SWAP1 POP JUMP JUMPDEST PUSH3 0x29A DUP2 PUSH3 0x282 JUMP JUMPDEST DUP2 EQ PUSH3 0x2A6 JUMPI PUSH1 0x0 DUP1 REVERT JUMPDEST POP JUMP JUMPDEST PUSH1 0x0 DUP2 MLOAD SWAP1 POP PUSH3 0x2BA DUP2 PUSH3 0x28F JUMP JUMPDEST SWAP3 SWAP2 POP POP JUMP JUMPDEST PUSH1 0x0 DUP1 PUSH1 0x0 PUSH1 0x60 DUP5 DUP7 SUB SLT ISZERO PUSH3 0x2DC JUMPI PUSH3 0x2DB PUSH3 0xF9 JUMP JUMPDEST JUMPDEST PUSH1 0x0 DUP5 ADD MLOAD PUSH8 0xFFFFFFFFFFFFFFFF DUP2 GT ISZERO PUSH3 0x2FD JUMPI PUSH3 0x2FC PUSH3 0xFE JUMP JUMPDEST JUMPDEST PUSH3 0x30B DUP7 DUP3 DUP8 ADD PUSH3 0x24F JUMP JUMPDEST SWAP4 POP POP PUSH1 0x20 DUP5 ADD MLOAD PUSH8 0xFFFFFFFFFFFFFFFF DUP2 GT ISZERO PUSH3 0x32F JUMPI PUSH3 0x32E PUSH3 0xFE JUMP JUMPDEST JUMPDEST PUSH3 0x33D DUP7 DUP3 DUP8 ADD PUSH3 0x24F JUMP JUMPDEST SWAP3 POP POP PUSH1 0x40 PUSH3 0x350 DUP7 DUP3 DUP8 ADD PUSH3 0x2A9 JUMP JUMPDEST SWAP2 POP POP SWAP3 POP SWAP3 POP SWAP3 JUMP JUMPDEST PUSH1 0x0 DUP2 MLOAD SWAP1 POP SWAP2 SWAP1 POP JUMP JUMPDEST PUSH32 0x4E487B7100000000000000000000000000000000000000000000000000000000 PUSH1 0x0 MSTORE PUSH1 0x22 PUSH1 0x4 MSTORE PUSH1 0x24 PUSH1 0x0 REVERT JUMPDEST PUSH1 0x0 PUSH1 0x2 DUP3 DIV SWAP1 POP PUSH1 0x1 DUP3 AND DUP1 PUSH3 0x3AD JUMPI PUSH1 0x7F DUP3 AND SWAP2 POP JUMPDEST PUSH1 0x20 DUP3 LT DUP2 SUB PUSH3 0x3C3 JUMPI PUSH3 0x3C2 PUSH3 0x365 JUMP JUMPDEST JUMPDEST POP SWAP2 SWAP1 POP JUMP JUMPDEST PUSH1 0x0 DUP2 SWAP1 POP DUP2 PUSH1 0x0 MSTORE PUSH1 0x20 PUSH1 0x0 KECCAK256 SWAP1 POP SWAP2 SWAP1 POP JUMP JUMPDEST PUSH1 0x0 PUSH1 0x20 PUSH1 0x1F DUP4 ADD DIV SWAP1 POP SWAP2 SWAP1 POP JUMP JUMPDEST PUSH1 0x0 DUP3 DUP3 SHL SWAP1 POP SWAP3 SWAP2 POP POP JUMP JUMPDEST PUSH1 0x0 PUSH1 0x8 DUP4 MUL PUSH3 0x42D PUSH32 0xFFFFFFFFFFFFFFFFFFFFFFFFFFFFFFFFFFFFFFFFFFFFFFFFFFFFFFFFFFFFFFFF DUP3 PUSH3 0x3EE JUMP JUMPDEST PUSH3 0x439 DUP7 DUP4 PUSH3 0x3EE JUMP JUMPDEST SWAP6 POP DUP1 NOT DUP5 AND SWAP4 POP DUP1 DUP7 AND DUP5 OR SWAP3 POP POP POP SWAP4 SWAP3 POP POP POP JUMP JUMPDEST PUSH1 0x0 DUP2 SWAP1 POP SWAP2 SWAP1 POP JUMP JUMPDEST PUSH1 0x0 DUP2 SWAP1 POP SWAP2 SWAP1 POP JUMP JUMPDEST PUSH1 0x0 PUSH3 0x486 PUSH3 0x480 PUSH3 0x47A DUP5 PUSH3 0x451 JUMP JUMPDEST PUSH3 0x45B JUMP JUMPDEST PUSH3 0x451 JUMP JUMPDEST SWAP1 POP SWAP2 SWAP1 POP JUMP JUMPDEST PUSH1 0x0 DUP2 SWAP1 POP SWAP2 SWAP1 POP JUMP JUMPDEST PUSH3 0x4A2 DUP4 PUSH3 0x465 JUMP JUMPDEST PUSH3 0x4BA PUSH3 0x4B1 DUP3 PUSH3 0x48D JUMP JUMPDEST DUP5 DUP5 SLOAD PUSH3 0x3FB JUMP JUMPDEST DUP3 SSTORE POP POP POP POP JUMP JUMPDEST PUSH1 0x0 SWAP1 JUMP JUMPDEST PUSH3 0x4D1 PUSH3 0x4C2 JUMP JUMPDEST PUSH3 0x4DE DUP2 DUP5 DUP5 PUSH3 0x497 JUMP JUMPDEST POP POP POP JUMP JUMPDEST JUMPDEST DUP2 DUP2 LT ISZERO PUSH3 0x506 JUMPI PUSH3 0x4FA PUSH1 0x0 DUP3 PUSH3 0x4C7 JUMP JUMPDEST PUSH1 0x1 DUP2 ADD SWAP1 POP PUSH3 0x4E4 JUMP JUMPDEST POP POP JUMP JUMPDEST PUSH1 0x1F DUP3 GT ISZERO PUSH3 0x555 JUMPI PUSH3 0x51F DUP2 PUSH3 0x3C9 JUMP JUMPDEST PUSH3 0x52A DUP5 PUSH3 0x3DE JUMP JUMPDEST DUP2 ADD PUSH1 0x20 DUP6 LT ISZERO PUSH3 0x53A JUMPI DUP2 SWAP1 POP JUMPDEST PUSH3 0x552 PUSH3 0x549 DUP6 PUSH3 0x3DE JUMP JUMPDEST DUP4 ADD DUP3 PUSH3 0x4E3 JUMP JUMPDEST POP POP JUMPDEST POP POP POP JUMP JUMPDEST PUSH1 0x0 DUP3 DUP3 SHR SWAP1 POP SWAP3 SWAP2 POP POP JUMP JUMPDEST PUSH1 0x0 PUSH3 0x57A PUSH1 0x0 NOT DUP5 PUSH1 0x8 MUL PUSH3 0x55A JUMP JUMPDEST NOT DUP1 DUP4 AND SWAP2 POP POP SWAP3 SWAP2 POP POP JUMP JUMPDEST PUSH1 0x0 PUSH3 0x595 DUP4 DUP4 PUSH3 0x567 JUMP JUMPDEST SWAP2 POP DUP3 PUSH1 0x2 MUL DUP3 OR SWAP1 POP SWAP3 SWAP2 POP POP JUMP JUMPDEST PUSH3 0x5B0 DUP3 PUSH3 0x35A JUMP JUMPDEST PUSH8 0xFFFFFFFFFFFFFFFF DUP2 GT ISZERO PUSH3 0x5CC JUMPI PUSH3 0x5CB PUSH3 0x11E JUMP JUMPDEST JUMPDEST PUSH3 0x5D8 DUP3 SLOAD PUSH3 0x394 JUMP JUMPDEST PUSH3 0x5E5 DUP3 DUP3 DUP6 PUSH3 0x50A JUMP JUMPDEST PUSH1 0x0 PUSH1 0x20 SWAP1 POP PUSH1 0x1F DUP4 GT PUSH1 0x1 DUP2 EQ PUSH3 0x61D JUMPI PUSH1 0x0 DUP5 ISZERO PUSH3 0x608 JUMPI DUP3 DUP8 ADD MLOAD SWAP1 POP JUMPDEST PUSH3 0x614 DUP6 DUP3 PUSH3 0x587 JUMP JUMPDEST DUP7 SSTORE POP PUSH3 0x684 JUMP JUMPDEST PUSH1 0x1F NOT DUP5 AND PUSH3 0x62D DUP7 PUSH3 0x3C9 JUMP JUMPDEST PUSH1 0x0 JUMPDEST DUP3 DUP2 LT ISZERO PUSH3 0x657 JUMPI DUP5 DUP10 ADD MLOAD DUP3 SSTORE PUSH1 0x1 DUP3 ADD SWAP2 POP PUSH1 0x20 DUP6 ADD SWAP5 POP PUSH1 0x20 DUP2 ADD SWAP1 POP PUSH3 0x630 JUMP JUMPDEST DUP7 DUP4 LT ISZERO PUSH3 0x677 JUMPI DUP5 DUP10 ADD MLOAD PUSH3 0x673 PUSH1 0x1F DUP10 AND DUP3 PUSH3 0x567 JUMP JUMPDEST DUP4 SSTORE POP JUMPDEST PUSH1 0x1 PUSH1 0x2 DUP9 MUL ADD DUP9 SSTORE POP POP POP JUMPDEST POP POP POP POP POP POP JUMP JUMPDEST PUSH2 0x10C9 DUP1 PUSH3 0x69C PUSH1 0x0 CODECOPY PUSH1 0x0 RETURN INVALID PUSH1 0x80 PUSH1 0x40 MSTORE CALLVALUE DUP1 ISZERO PUSH2 0x10 JUMPI PUSH1 0x0 DUP1 REVERT JUMPDEST POP PUSH1 0x4 CALLDATASIZE LT PUSH2 0xA9 JUMPI PUSH1 0x0 CALLDATALOAD PUSH1 0xE0 SHR DUP1 PUSH4 0x42966C68 GT PUSH2 0x71 JUMPI DUP1 PUSH4 0x42966C68 EQ PUSH2 0x168 JUMPI DUP1 PUSH4 0x70A08231 EQ PUSH2 0x184 JUMPI DUP1 PUSH4 0x95D89B41 EQ PUSH2 0x1B4 JUMPI DUP1 PUSH4 0xA0712D68 EQ PUSH2 0x1D2 JUMPI DUP1 PUSH4 0xA9059CBB EQ PUSH2 0x1EE JUMPI DUP1 PUSH4 0xDD62ED3E EQ PUSH2 0x21E JUMPI PUSH2 0xA9 JUMP JUMPDEST DUP1 PUSH4 0x6FDDE03 EQ PUSH2 0xAE JUMPI DUP1 PUSH4 0x95EA7B3 EQ PUSH2 0xCC JUMPI DUP1 PUSH4 0x18160DDD EQ PUSH2 0xFC JUMPI DUP1 PUSH4 0x23B872DD EQ PUSH2 0x11A JUMPI DUP1 PUSH4 0x313CE567 EQ PUSH2 0x14A JUMPI JUMPDEST PUSH1 0x0 DUP1 REVERT JUMPDEST PUSH2 0xB6 PUSH2 0x24E JUMP JUMPDEST PUSH1 0x40 MLOAD PUSH2 0xC3 SWAP2 SWAP1 PUSH2 0xD1D JUMP JUMPDEST PUSH1 0x40 MLOAD DUP1 SWAP2 SUB SWAP1 RETURN JUMPDEST PUSH2 0xE6 PUSH1 0x4 DUP1 CALLDATASIZE SUB DUP2 ADD SWAP1 PUSH2 0xE1 SWAP2 SWAP1 PUSH2 0xDD8 JUMP JUMPDEST PUSH2 0x2E2 JUMP JUMPDEST PUSH1 0x40 MLOAD PUSH2 0xF3 SWAP2 SWAP1 PUSH2 0xE33 JUMP JUMPDEST PUSH1 0x40 MLOAD DUP1 SWAP2 SUB SWAP1 RETURN JUMPDEST PUSH2 0x104 PUSH2 0x44B JUMP JUMPDEST PUSH1 0x40 MLOAD PUSH2 0x111 SWAP2 SWAP1 PUSH2 0xE5D JUMP JUMPDEST PUSH1 0x40 MLOAD DUP1 SWAP2 SUB SWAP1 RETURN JUMPDEST PUSH2 0x134 PUSH1 0x4 DUP1 CALLDATASIZE SUB DUP2 ADD SWAP1 PUSH2 0x12F SWAP2 SWAP1 PUSH2 0xE78 JUMP JUMPDEST PUSH2 0x457 JUMP JUMPDEST PUSH1 0x40 MLOAD PUSH2 0x141 SWAP2 SWAP1 PUSH2 0xE33 JUMP JUMPDEST PUSH1 0x40 MLOAD DUP1 SWAP2 SUB SWAP1 RETURN JUMPDEST PUSH2 0x152 PUSH2 0x5BC JUMP JUMPDEST PUSH1 0x40 MLOAD PUSH2 0x15F SWAP2 SWAP1 PUSH2 0xEE7 JUMP JUMPDEST PUSH1 0x40 MLOAD DUP1 SWAP2 SUB SWAP1 RETURN JUMPDEST PUSH2 0x182 PUSH1 0x4 DUP1 CALLDATASIZE SUB DUP2 ADD SWAP1 PUSH2 0x17D SWAP2 SWAP1 PUSH2 0xF02 JUMP JUMPDEST PUSH2 0x5D5 JUMP JUMPDEST STOP JUMPDEST PUSH2 0x19E PUSH1 0x4 DUP1 CALLDATASIZE SUB DUP2 ADD SWAP1 PUSH2 0x199 SWAP2 SWAP1 PUSH2 0xF2F JUMP JUMPDEST PUSH2 0x645 JUMP JUMPDEST PUSH1 0x40 MLOAD PUSH2 0x1AB SWAP2 SWAP1 PUSH2 0xE5D JUMP JUMPDEST PUSH1 0x40 MLOAD DUP1 SWAP2 SUB SWAP1 RETURN JUMPDEST PUSH2 0x1BC PUSH2 0x68E JUMP JUMPDEST PUSH1 0x40 MLOAD PUSH2 0x1C9 SWAP2 SWAP1 PUSH2 0xD1D JUMP JUMPDEST PUSH1 0x40 MLOAD DUP1 SWAP2 SUB SWAP1 RETURN JUMPDEST PUSH2 0x1EC PUSH1 0x4 DUP1 CALLDATASIZE SUB DUP2 ADD SWAP1 PUSH2 0x1E7 SWAP2 SWAP1 PUSH2 0xF02 JUMP JUMPDEST PUSH2 0x723 JUMP JUMPDEST STOP JUMPDEST PUSH2 0x208 PUSH1 0x4 DUP1 CALLDATASIZE SUB DUP2 ADD SWAP1 PUSH2 0x203 SWAP2 SWAP1 PUSH2 0xDD8 JUMP JUMPDEST PUSH2 0x793 JUMP JUMPDEST PUSH1 0x40 MLOAD PUSH2 0x215 SWAP2 SWAP1 PUSH2 0xE33 JUMP JUMPDEST PUSH1 0x40 MLOAD DUP1 SWAP2 SUB SWAP1 RETURN JUMPDEST PUSH2 0x238 PUSH1 0x4 DUP1 CALLDATASIZE SUB DUP2 ADD SWAP1 PUSH2 0x233 SWAP2 SWAP1 PUSH2 0xF5C JUMP JUMPDEST PUSH2 0x7AF JUMP JUMPDEST PUSH1 0x40 MLOAD PUSH2 0x245 SWAP2 SWAP1 PUSH2 0xE5D JUMP JUMPDEST PUSH1 0x40 MLOAD DUP1 SWAP2 SUB SWAP1 RETURN JUMPDEST PUSH1 0x60 PUSH1 0x0 DUP1 ADD DUP1 SLOAD PUSH2 0x25F SWAP1 PUSH2 0xFCB JUMP JUMPDEST DUP1 PUSH1 0x1F ADD PUSH1 0x20 DUP1 SWAP2 DIV MUL PUSH1 0x20 ADD PUSH1 0x40 MLOAD SWAP1 DUP2 ADD PUSH1 0x40 MSTORE DUP1 SWAP3 SWAP2 SWAP1 DUP2 DUP2 MSTORE PUSH1 0x20 ADD DUP3 DUP1 SLOAD PUSH2 0x28B SWAP1 PUSH2 0xFCB JUMP JUMPDEST DUP1 ISZERO PUSH2 0x2D8 JUMPI DUP1 PUSH1 0x1F LT PUSH2 0x2AD JUMPI PUSH2 0x100 DUP1 DUP4 SLOAD DIV MUL DUP4 MSTORE SWAP2 PUSH1 0x20 ADD SWAP2 PUSH2 0x2D8 JUMP JUMPDEST DUP3 ADD SWAP2 SWAP1 PUSH1 0x0 MSTORE PUSH1 0x20 PUSH1 0x0 KECCAK256 SWAP1 JUMPDEST DUP2 SLOAD DUP2 MSTORE SWAP1 PUSH1 0x1 ADD SWAP1 PUSH1 0x20 ADD DUP1 DUP4 GT PUSH2 0x2BB JUMPI DUP3 SWAP1 SUB PUSH1 0x1F AND DUP3 ADD SWAP2 JUMPDEST POP POP POP POP POP SWAP1 POP SWAP1 JUMP JUMPDEST PUSH1 0x0 DUP1 CALLER SWAP1 POP PUSH1 0x0 PUSH20 0xFFFFFFFFFFFFFFFFFFFFFFFFFFFFFFFFFFFFFFFF AND DUP2 PUSH20 0xFFFFFFFFFFFFFFFFFFFFFFFFFFFFFFFFFFFFFFFF AND SUB PUSH2 0x321 JUMPI PUSH1 0x0 DUP1 REVERT JUMPDEST PUSH1 0x0 PUSH20 0xFFFFFFFFFFFFFFFFFFFFFFFFFFFFFFFFFFFFFFFF AND DUP5 PUSH20 0xFFFFFFFFFFFFFFFFFFFFFFFFFFFFFFFFFFFFFFFF AND SUB PUSH2 0x35A JUMPI PUSH1 0x0 DUP1 REVERT JUMPDEST DUP3 PUSH1 0x6 PUSH1 0x0 DUP4 PUSH20 0xFFFFFFFFFFFFFFFFFFFFFFFFFFFFFFFFFFFFFFFF AND PUSH20 0xFFFFFFFFFFFFFFFFFFFFFFFFFFFFFFFFFFFFFFFF AND DUP2 MSTORE PUSH1 0x20 ADD SWAP1 DUP2 MSTORE PUSH1 0x20 ADD PUSH1 0x0 KECCAK256 PUSH1 0x0 DUP7 PUSH20 0xFFFFFFFFFFFFFFFFFFFFFFFFFFFFFFFFFFFFFFFF AND PUSH20 0xFFFFFFFFFFFFFFFFFFFFFFFFFFFFFFFFFFFFFFFF AND DUP2 MSTORE PUSH1 0x20 ADD SWAP1 DUP2 MSTORE PUSH1 0x20 ADD PUSH1 0x0 KECCAK256 DUP2 SWAP1 SSTORE POP DUP4 PUSH20 0xFFFFFFFFFFFFFFFFFFFFFFFFFFFFFFFFFFFFFFFF AND DUP2 PUSH20 0xFFFFFFFFFFFFFFFFFFFFFFFFFFFFFFFFFFFFFFFF AND PUSH32 0x8C5BE1E5EBEC7D5BD14F71427D1E84F3DD0314C0F7B2291E5B200AC8C7C3B925 DUP6 PUSH1 0x40 MLOAD PUSH2 0x438 SWAP2 SWAP1 PUSH2 0xE5D JUMP JUMPDEST PUSH1 0x40 MLOAD DUP1 SWAP2 SUB SWAP1 LOG3 PUSH1 0x1 SWAP2 POP POP SWAP3 SWAP2 POP POP JUMP JUMPDEST PUSH1 0x0 DUP1 PUSH1 0x3 ADD SLOAD SWAP1 POP SWAP1 JUMP JUMPDEST PUSH1 0x0 DUP1 PUSH1 0x6 PUSH1 0x0 CALLER PUSH20 0xFFFFFFFFFFFFFFFFFFFFFFFFFFFFFFFFFFFFFFFF AND PUSH20 0xFFFFFFFFFFFFFFFFFFFFFFFFFFFFFFFFFFFFFFFF AND DUP2 MSTORE PUSH1 0x20 ADD SWAP1 DUP2 MSTORE PUSH1 0x20 ADD PUSH1 0x0 KECCAK256 PUSH1 0x0 DUP6 PUSH20 0xFFFFFFFFFFFFFFFFFFFFFFFFFFFFFFFFFFFFFFFF AND PUSH20 0xFFFFFFFFFFFFFFFFFFFFFFFFFFFFFFFFFFFFFFFF AND DUP2 MSTORE PUSH1 0x20 ADD SWAP1 DUP2 MSTORE PUSH1 0x20 ADD PUSH1 0x0 KECCAK256 SLOAD SWAP1 POP PUSH32 0xFFFFFFFFFFFFFFFFFFFFFFFFFFFFFFFFFFFFFFFFFFFFFFFFFFFFFFFFFFFFFFFF DUP2 SUB PUSH2 0x505 JUMPI PUSH1 0x0 DUP1 REVERT JUMPDEST DUP3 DUP2 LT ISZERO PUSH2 0x512 JUMPI PUSH1 0x0 DUP1 REVERT JUMPDEST DUP3 PUSH1 0x6 PUSH1 0x0 CALLER PUSH20 0xFFFFFFFFFFFFFFFFFFFFFFFFFFFFFFFFFFFFFFFF AND PUSH20 0xFFFFFFFFFFFFFFFFFFFFFFFFFFFFFFFFFFFFFFFF AND DUP2 MSTORE PUSH1 0x20 ADD SWAP1 DUP2 MSTORE PUSH1 0x20 ADD PUSH1 0x0 KECCAK256 PUSH1 0x0 DUP7 PUSH20 0xFFFFFFFFFFFFFFFFFFFFFFFFFFFFFFFFFFFFFFFF AND PUSH20 0xFFFFFFFFFFFFFFFFFFFFFFFFFFFFFFFFFFFFFFFF AND DUP2 MSTORE PUSH1 0x20 ADD SWAP1 DUP2 MSTORE PUSH1 0x20 ADD PUSH1 0x0 KECCAK256 PUSH1 0x0 DUP3 DUP3 SLOAD PUSH2 0x59E SWAP2 SWAP1 PUSH2 0x102B JUMP JUMPDEST SWAP3 POP POP DUP2 SWAP1 SSTORE POP PUSH2 0x5B0 DUP6 DUP6 DUP6 PUSH2 0x836 JUMP JUMPDEST PUSH1 0x1 SWAP2 POP POP SWAP4 SWAP3 POP POP POP JUMP JUMPDEST PUSH1 0x0 DUP1 PUSH1 0x2 ADD PUSH1 0x0 SWAP1 SLOAD SWAP1 PUSH2 0x100 EXP SWAP1 DIV PUSH1 0xFF AND SWAP1 POP SWAP1 JUMP JUMPDEST PUSH1 0x0 PUSH1 0x4 ADD PUSH1 0x0 SWAP1 SLOAD SWAP1 PUSH2 0x100 EXP SWAP1 DIV PUSH20 0xFFFFFFFFFFFFFFFFFFFFFFFFFFFFFFFFFFFFFFFF AND PUSH20 0xFFFFFFFFFFFFFFFFFFFFFFFFFFFFFFFFFFFFFFFF AND CALLER PUSH20 0xFFFFFFFFFFFFFFFFFFFFFFFFFFFFFFFFFFFFFFFF AND EQ PUSH2 0x632 JUMPI PUSH1 0x0 DUP1 REVERT JUMPDEST PUSH1 0x0 CALLER SWAP1 POP PUSH2 0x641 DUP2 DUP4 PUSH2 0xA2C JUMP JUMPDEST POP POP JUMP JUMPDEST PUSH1 0x0 PUSH1 0x5 PUSH1 0x0 DUP4 PUSH20 0xFFFFFFFFFFFFFFFFFFFFFFFFFFFFFFFFFFFFFFFF AND PUSH20 0xFFFFFFFFFFFFFFFFFFFFFFFFFFFFFFFFFFFFFFFF AND DUP2 MSTORE PUSH1 0x20 ADD SWAP1 DUP2 MSTORE PUSH1 0x20 ADD PUSH1 0x0 KECCAK256 SLOAD SWAP1 POP SWAP2 SWAP1 POP JUMP JUMPDEST PUSH1 0x60 PUSH1 0x0 PUSH1 0x1 ADD DUP1 SLOAD PUSH2 0x6A0 SWAP1 PUSH2 0xFCB JUMP JUMPDEST DUP1 PUSH1 0x1F ADD PUSH1 0x20 DUP1 SWAP2 DIV MUL PUSH1 0x20 ADD PUSH1 0x40 MLOAD SWAP1 DUP2 ADD PUSH1 0x40 MSTORE DUP1 SWAP3 SWAP2 SWAP1 DUP2 DUP2 MSTORE PUSH1 0x20 ADD DUP3 DUP1 SLOAD PUSH2 0x6CC SWAP1 PUSH2 0xFCB JUMP JUMPDEST DUP1 ISZERO PUSH2 0x719 JUMPI DUP1 PUSH1 0x1F LT PUSH2 0x6EE JUMPI PUSH2 0x100 DUP1 DUP4 SLOAD DIV MUL DUP4 MSTORE SWAP2 PUSH1 0x20 ADD SWAP2 PUSH2 0x719 JUMP JUMPDEST DUP3 ADD SWAP2 SWAP1 PUSH1 0x0 MSTORE PUSH1 0x20 PUSH1 0x0 KECCAK256 SWAP1 JUMPDEST DUP2 SLOAD DUP2 MSTORE SWAP1 PUSH1 0x1 ADD SWAP1 PUSH1 0x20 ADD DUP1 DUP4 GT PUSH2 0x6FC JUMPI DUP3 SWAP1 SUB PUSH1 0x1F AND DUP3 ADD SWAP2 JUMPDEST POP POP POP POP POP SWAP1 POP SWAP1 JUMP JUMPDEST PUSH1 0x0 PUSH1 0x4 ADD PUSH1 0x0 SWAP1 SLOAD SWAP1 PUSH2 0x100 EXP SWAP1 DIV PUSH20 0xFFFFFFFFFFFFFFFFFFFFFFFFFFFFFFFFFFFFFFFF AND PUSH20 0xFFFFFFFFFFFFFFFFFFFFFFFFFFFFFFFFFFFFFFFF AND CALLER PUSH20 0xFFFFFFFFFFFFFFFFFFFFFFFFFFFFFFFFFFFFFFFF AND EQ PUSH2 0x780 JUMPI PUSH1 0x0 DUP1 REVERT JUMPDEST PUSH1 0x0 CALLER SWAP1 POP PUSH2 0x78F DUP2 DUP4 PUSH2 0xB69 JUMP JUMPDEST POP POP JUMP JUMPDEST PUSH1 0x0 DUP1 CALLER SWAP1 POP PUSH2 0x7A4 DUP2 DUP6 DUP6 PUSH2 0x836 JUMP JUMPDEST PUSH1 0x1 SWAP2 POP POP SWAP3 SWAP2 POP POP JUMP JUMPDEST PUSH1 0x0 PUSH1 0x6 PUSH1 0x0 DUP5 PUSH20 0xFFFFFFFFFFFFFFFFFFFFFFFFFFFFFFFFFFFFFFFF AND PUSH20 0xFFFFFFFFFFFFFFFFFFFFFFFFFFFFFFFFFFFFFFFF AND DUP2 MSTORE PUSH1 0x20 ADD SWAP1 DUP2 MSTORE PUSH1 0x20 ADD PUSH1 0x0 KECCAK256 PUSH1 0x0 DUP4 PUSH20 0xFFFFFFFFFFFFFFFFFFFFFFFFFFFFFFFFFFFFFFFF AND PUSH20 0xFFFFFFFFFFFFFFFFFFFFFFFFFFFFFFFFFFFFFFFF AND DUP2 MSTORE PUSH1 0x20 ADD SWAP1 DUP2 MSTORE PUSH1 0x20 ADD PUSH1 0x0 KECCAK256 SLOAD SWAP1 POP SWAP3 SWAP2 POP POP JUMP JUMPDEST PUSH1 0x0 PUSH1 0x5 PUSH1 0x0 DUP6 PUSH20 0xFFFFFFFFFFFFFFFFFFFFFFFFFFFFFFFFFFFFFFFF AND PUSH20 0xFFFFFFFFFFFFFFFFFFFFFFFFFFFFFFFFFFFFFFFF AND DUP2 MSTORE PUSH1 0x20 ADD SWAP1 DUP2 MSTORE PUSH1 0x20 ADD PUSH1 0x0 KECCAK256 SLOAD SWAP1 POP PUSH1 0x0 PUSH20 0xFFFFFFFFFFFFFFFFFFFFFFFFFFFFFFFFFFFFFFFF AND DUP5 PUSH20 0xFFFFFFFFFFFFFFFFFFFFFFFFFFFFFFFFFFFFFFFF AND SUB PUSH2 0x8B3 JUMPI PUSH1 0x0 DUP1 REVERT JUMPDEST PUSH1 0x0 PUSH20 0xFFFFFFFFFFFFFFFFFFFFFFFFFFFFFFFFFFFFFFFF AND DUP4 PUSH20 0xFFFFFFFFFFFFFFFFFFFFFFFFFFFFFFFFFFFFFFFF AND SUB PUSH2 0x8EC JUMPI PUSH1 0x0 DUP1 REVERT JUMPDEST DUP2 DUP2 LT ISZERO PUSH2 0x8F9 JUMPI PUSH1 0x0 DUP1 REVERT JUMPDEST PUSH1 0x0 DUP2 GT ISZERO PUSH2 0x907 JUMPI PUSH1 0x0 DUP1 REVERT JUMPDEST PUSH1 0x0 DUP3 LT ISZERO PUSH2 0x915 JUMPI PUSH1 0x0 DUP1 REVERT JUMPDEST DUP2 PUSH1 0x5 PUSH1 0x0 DUP7 PUSH20 0xFFFFFFFFFFFFFFFFFFFFFFFFFFFFFFFFFFFFFFFF AND PUSH20 0xFFFFFFFFFFFFFFFFFFFFFFFFFFFFFFFFFFFFFFFF AND DUP2 MSTORE PUSH1 0x20 ADD SWAP1 DUP2 MSTORE PUSH1 0x20 ADD PUSH1 0x0 KECCAK256 PUSH1 0x0 DUP3 DUP3 SLOAD PUSH2 0x964 SWAP2 SWAP1 PUSH2 0x102B JUMP JUMPDEST SWAP3 POP POP DUP2 SWAP1 SSTORE POP DUP2 PUSH1 0x5 PUSH1 0x0 DUP6 PUSH20 0xFFFFFFFFFFFFFFFFFFFFFFFFFFFFFFFFFFFFFFFF AND PUSH20 0xFFFFFFFFFFFFFFFFFFFFFFFFFFFFFFFFFFFFFFFF AND DUP2 MSTORE PUSH1 0x20 ADD SWAP1 DUP2 MSTORE PUSH1 0x20 ADD PUSH1 0x0 KECCAK256 PUSH1 0x0 DUP3 DUP3 SLOAD PUSH2 0x9BA SWAP2 SWAP1 PUSH2 0x105F JUMP JUMPDEST SWAP3 POP POP DUP2 SWAP1 SSTORE POP DUP3 PUSH20 0xFFFFFFFFFFFFFFFFFFFFFFFFFFFFFFFFFFFFFFFF AND DUP5 PUSH20 0xFFFFFFFFFFFFFFFFFFFFFFFFFFFFFFFFFFFFFFFF AND PUSH32 0xDDF252AD1BE2C89B69C2B068FC378DAA952BA7F163C4A11628F55A4DF523B3EF DUP5 PUSH1 0x40 MLOAD PUSH2 0xA1E SWAP2 SWAP1 PUSH2 0xE5D JUMP JUMPDEST PUSH1 0x40 MLOAD DUP1 SWAP2 SUB SWAP1 LOG3 POP POP POP POP JUMP JUMPDEST PUSH1 0x0 DUP1 PUSH1 0x5 PUSH1 0x0 DUP6 PUSH20 0xFFFFFFFFFFFFFFFFFFFFFFFFFFFFFFFFFFFFFFFF AND PUSH20 0xFFFFFFFFFFFFFFFFFFFFFFFFFFFFFFFFFFFFFFFF AND DUP2 MSTORE PUSH1 0x20 ADD SWAP1 DUP2 MSTORE PUSH1 0x20 ADD PUSH1 0x0 KECCAK256 SLOAD SWAP1 POP PUSH1 0x0 DUP4 LT ISZERO PUSH2 0xA7F JUMPI PUSH1 0x0 DUP1 REVERT JUMPDEST DUP1 DUP4 GT ISZERO PUSH2 0xA8C JUMPI PUSH1 0x0 DUP1 REVERT JUMPDEST DUP3 PUSH1 0x5 PUSH1 0x0 DUP7 PUSH20 0xFFFFFFFFFFFFFFFFFFFFFFFFFFFFFFFFFFFFFFFF AND PUSH20 0xFFFFFFFFFFFFFFFFFFFFFFFFFFFFFFFFFFFFFFFF AND DUP2 MSTORE PUSH1 0x20 ADD SWAP1 DUP2 MSTORE PUSH1 0x20 ADD PUSH1 0x0 KECCAK256 PUSH1 0x0 DUP3 DUP3 SLOAD PUSH2 0xADB SWAP2 SWAP1 PUSH2 0x102B JUMP JUMPDEST SWAP3 POP POP DUP2 SWAP1 SSTORE POP DUP3 PUSH1 0x0 PUSH1 0x3 ADD PUSH1 0x0 DUP3 DUP3 SLOAD PUSH2 0xAF7 SWAP2 SWAP1 PUSH2 0x102B JUMP JUMPDEST SWAP3 POP POP DUP2 SWAP1 SSTORE POP DUP2 PUSH20 0xFFFFFFFFFFFFFFFFFFFFFFFFFFFFFFFFFFFFFFFF AND DUP5 PUSH20 0xFFFFFFFFFFFFFFFFFFFFFFFFFFFFFFFFFFFFFFFF AND PUSH32 0xDDF252AD1BE2C89B69C2B068FC378DAA952BA7F163C4A11628F55A4DF523B3EF DUP6 PUSH1 0x40 MLOAD PUSH2 0xB5B SWAP2 SWAP1 PUSH2 0xE5D JUMP JUMPDEST PUSH1 0x40 MLOAD DUP1 SWAP2 SUB SWAP1 LOG3 POP POP POP POP JUMP JUMPDEST PUSH1 0x0 DUP1 DUP3 LT ISZERO PUSH2 0xB78 JUMPI PUSH1 0x0 DUP1 REVERT JUMPDEST PUSH1 0x0 PUSH20 0xFFFFFFFFFFFFFFFFFFFFFFFFFFFFFFFFFFFFFFFF AND DUP4 PUSH20 0xFFFFFFFFFFFFFFFFFFFFFFFFFFFFFFFFFFFFFFFF AND SUB PUSH2 0xBB1 JUMPI PUSH1 0x0 DUP1 REVERT JUMPDEST DUP2 PUSH1 0x5 PUSH1 0x0 DUP6 PUSH20 0xFFFFFFFFFFFFFFFFFFFFFFFFFFFFFFFFFFFFFFFF AND PUSH20 0xFFFFFFFFFFFFFFFFFFFFFFFFFFFFFFFFFFFFFFFF AND DUP2 MSTORE PUSH1 0x20 ADD SWAP1 DUP2 MSTORE PUSH1 0x20 ADD PUSH1 0x0 KECCAK256 PUSH1 0x0 DUP3 DUP3 SLOAD PUSH2 0xC00 SWAP2 SWAP1 PUSH2 0x105F JUMP JUMPDEST SWAP3 POP POP DUP2 SWAP1 SSTORE POP DUP2 PUSH1 0x0 PUSH1 0x3 ADD PUSH1 0x0 DUP3 DUP3 SLOAD PUSH2 0xC1C SWAP2 SWAP1 PUSH2 0x105F JUMP JUMPDEST SWAP3 POP POP DUP2 SWAP1 SSTORE POP DUP3 PUSH20 0xFFFFFFFFFFFFFFFFFFFFFFFFFFFFFFFFFFFFFFFF AND DUP2 PUSH20 0xFFFFFFFFFFFFFFFFFFFFFFFFFFFFFFFFFFFFFFFF AND PUSH32 0xDDF252AD1BE2C89B69C2B068FC378DAA952BA7F163C4A11628F55A4DF523B3EF DUP5 PUSH1 0x40 MLOAD PUSH2 0xC80 SWAP2 SWAP1 PUSH2 0xE5D JUMP JUMPDEST PUSH1 0x40 MLOAD DUP1 SWAP2 SUB SWAP1 LOG3 POP POP POP JUMP JUMPDEST PUSH1 0x0 DUP2 MLOAD SWAP1 POP SWAP2 SWAP1 POP JUMP JUMPDEST PUSH1 0x0 DUP3 DUP3 MSTORE PUSH1 0x20 DUP3 ADD SWAP1 POP SWAP3 SWAP2 POP POP JUMP JUMPDEST PUSH1 0x0 JUMPDEST DUP4 DUP2 LT ISZERO PUSH2 0xCC7 JUMPI DUP1 DUP3 ADD MLOAD DUP2 DUP5 ADD MSTORE PUSH1 0x20 DUP2 ADD SWAP1 POP PUSH2 0xCAC JUMP JUMPDEST PUSH1 0x0 DUP5 DUP5 ADD MSTORE POP POP POP POP JUMP JUMPDEST PUSH1 0x0 PUSH1 0x1F NOT PUSH1 0x1F DUP4 ADD AND SWAP1 POP SWAP2 SWAP1 POP JUMP JUMPDEST PUSH1 0x0 PUSH2 0xCEF DUP3 PUSH2 0xC8D JUMP JUMPDEST PUSH2 0xCF9 DUP2 DUP6 PUSH2 0xC98 JUMP JUMPDEST SWAP4 POP PUSH2 0xD09 DUP2 DUP6 PUSH1 0x20 DUP7 ADD PUSH2 0xCA9 JUMP JUMPDEST PUSH2 0xD12 DUP2 PUSH2 0xCD3 JUMP JUMPDEST DUP5 ADD SWAP2 POP POP SWAP3 SWAP2 POP POP JUMP JUMPDEST PUSH1 0x0 PUSH1 0x20 DUP3 ADD SWAP1 POP DUP2 DUP2 SUB PUSH1 0x0 DUP4 ADD MSTORE PUSH2 0xD37 DUP2 DUP5 PUSH2 0xCE4 JUMP JUMPDEST SWAP1 POP SWAP3 SWAP2 POP POP JUMP JUMPDEST PUSH1 0x0 DUP1 REVERT JUMPDEST PUSH1 0x0 PUSH20 0xFFFFFFFFFFFFFFFFFFFFFFFFFFFFFFFFFFFFFFFF DUP3 AND SWAP1 POP SWAP2 SWAP1 POP JUMP JUMPDEST PUSH1 0x0 PUSH2 0xD6F DUP3 PUSH2 0xD44 JUMP JUMPDEST SWAP1 POP SWAP2 SWAP1 POP JUMP JUMPDEST PUSH2 0xD7F DUP2 PUSH2 0xD64 JUMP JUMPDEST DUP2 EQ PUSH2 0xD8A JUMPI PUSH1 0x0 DUP1 REVERT JUMPDEST POP JUMP JUMPDEST PUSH1 0x0 DUP2 CALLDATALOAD SWAP1 POP PUSH2 0xD9C DUP2 PUSH2 0xD76 JUMP JUMPDEST SWAP3 SWAP2 POP POP JUMP JUMPDEST PUSH1 0x0 DUP2 SWAP1 POP SWAP2 SWAP1 POP JUMP JUMPDEST PUSH2 0xDB5 DUP2 PUSH2 0xDA2 JUMP JUMPDEST DUP2 EQ PUSH2 0xDC0 JUMPI PUSH1 0x0 DUP1 REVERT JUMPDEST POP JUMP JUMPDEST PUSH1 0x0 DUP2 CALLDATALOAD SWAP1 POP PUSH2 0xDD2 DUP2 PUSH2 0xDAC JUMP JUMPDEST SWAP3 SWAP2 POP POP JUMP JUMPDEST PUSH1 0x0 DUP1 PUSH1 0x40 DUP4 DUP6 SUB SLT ISZERO PUSH2 0xDEF JUMPI PUSH2 0xDEE PUSH2 0xD3F JUMP JUMPDEST JUMPDEST PUSH1 0x0 PUSH2 0xDFD DUP6 DUP3 DUP7 ADD PUSH2 0xD8D JUMP JUMPDEST SWAP3 POP POP PUSH1 0x20 PUSH2 0xE0E DUP6 DUP3 DUP7 ADD PUSH2 0xDC3 JUMP JUMPDEST SWAP2 POP POP SWAP3 POP SWAP3 SWAP1 POP JUMP JUMPDEST PUSH1 0x0 DUP2 ISZERO ISZERO SWAP1 POP SWAP2 SWAP1 POP JUMP JUMPDEST PUSH2 0xE2D DUP2 PUSH2 0xE18 JUMP JUMPDEST DUP3 MSTORE POP POP JUMP JUMPDEST PUSH1 0x0 PUSH1 0x20 DUP3 ADD SWAP1 POP PUSH2 0xE48 PUSH1 0x0 DUP4 ADD DUP5 PUSH2 0xE24 JUMP JUMPDEST SWAP3 SWAP2 POP POP JUMP JUMPDEST PUSH2 0xE57 DUP2 PUSH2 0xDA2 JUMP JUMPDEST DUP3 MSTORE POP POP JUMP JUMPDEST PUSH1 0x0 PUSH1 0x20 DUP3 ADD SWAP1 POP PUSH2 0xE72 PUSH1 0x0 DUP4 ADD DUP5 PUSH2 0xE4E JUMP JUMPDEST SWAP3 SWAP2 POP POP JUMP JUMPDEST PUSH1 0x0 DUP1 PUSH1 0x0 PUSH1 0x60 DUP5 DUP7 SUB SLT ISZERO PUSH2 0xE91 JUMPI PUSH2 0xE90 PUSH2 0xD3F JUMP JUMPDEST JUMPDEST PUSH1 0x0 PUSH2 0xE9F DUP7 DUP3 DUP8 ADD PUSH2 0xD8D JUMP JUMPDEST SWAP4 POP POP PUSH1 0x20 PUSH2 0xEB0 DUP7 DUP3 DUP8 ADD PUSH2 0xD8D JUMP JUMPDEST SWAP3 POP POP PUSH1 0x40 PUSH2 0xEC1 DUP7 DUP3 DUP8 ADD PUSH2 0xDC3 JUMP JUMPDEST SWAP2 POP POP SWAP3 POP SWAP3 POP SWAP3 JUMP JUMPDEST PUSH1 0x0 PUSH1 0xFF DUP3 AND SWAP1 POP SWAP2 SWAP1 POP JUMP JUMPDEST PUSH2 0xEE1 DUP2 PUSH2 0xECB JUMP JUMPDEST DUP3 MSTORE POP POP JUMP JUMPDEST PUSH1 0x0 PUSH1 0x20 DUP3 ADD SWAP1 POP PUSH2 0xEFC PUSH1 0x0 DUP4 ADD DUP5 PUSH2 0xED8 JUMP JUMPDEST SWAP3 SWAP2 POP POP JUMP JUMPDEST PUSH1 0x0 PUSH1 0x20 DUP3 DUP5 SUB SLT ISZERO PUSH2 0xF18 JUMPI PUSH2 0xF17 PUSH2 0xD3F JUMP JUMPDEST JUMPDEST PUSH1 0x0 PUSH2 0xF26 DUP5 DUP3 DUP6 ADD PUSH2 0xDC3 JUMP JUMPDEST SWAP2 POP POP SWAP3 SWAP2 POP POP JUMP JUMPDEST PUSH1 0x0 PUSH1 0x20 DUP3 DUP5 SUB SLT ISZERO PUSH2 0xF45 JUMPI PUSH2 0xF44 PUSH2 0xD3F JUMP JUMPDEST JUMPDEST PUSH1 0x0 PUSH2 0xF53 DUP5 DUP3 DUP6 ADD PUSH2 0xD8D JUMP JUMPDEST SWAP2 POP POP SWAP3 SWAP2 POP POP JUMP JUMPDEST PUSH1 0x0 DUP1 PUSH1 0x40 DUP4 DUP6 SUB SLT ISZERO PUSH2 0xF73 JUMPI PUSH2 0xF72 PUSH2 0xD3F JUMP JUMPDEST JUMPDEST PUSH1 0x0 PUSH2 0xF81 DUP6 DUP3 DUP7 ADD PUSH2 0xD8D JUMP JUMPDEST SWAP3 POP POP PUSH1 0x20 PUSH2 0xF92 DUP6 DUP3 DUP7 ADD PUSH2 0xD8D JUMP JUMPDEST SWAP2 POP POP SWAP3 POP SWAP3 SWAP1 POP JUMP JUMPDEST PUSH32 0x4E487B7100000000000000000000000000000000000000000000000000000000 PUSH1 0x0 MSTORE PUSH1 0x22 PUSH1 0x4 MSTORE PUSH1 0x24 PUSH1 0x0 REVERT JUMPDEST PUSH1 0x0 PUSH1 0x2 DUP3 DIV SWAP1 POP PUSH1 0x1 DUP3 AND DUP1 PUSH2 0xFE3 JUMPI PUSH1 0x7F DUP3 AND SWAP2 POP JUMPDEST PUSH1 0x20 DUP3 LT DUP2 SUB PUSH2 0xFF6 JUMPI PUSH2 0xFF5 PUSH2 0xF9C JUMP JUMPDEST JUMPDEST POP SWAP2 SWAP1 POP JUMP JUMPDEST PUSH32 0x4E487B7100000000000000000000000000000000000000000000000000000000 PUSH1 0x0 MSTORE PUSH1 0x11 PUSH1 0x4 MSTORE PUSH1 0x24 PUSH1 0x0 REVERT JUMPDEST PUSH1 0x0 PUSH2 0x1036 DUP3 PUSH2 0xDA2 JUMP JUMPDEST SWAP2 POP PUSH2 0x1041 DUP4 PUSH2 0xDA2 JUMP JUMPDEST SWAP3 POP DUP3 DUP3 SUB SWAP1 POP DUP2 DUP2 GT ISZERO PUSH2 0x1059 JUMPI PUSH2 0x1058 PUSH2 0xFFC JUMP JUMPDEST JUMPDEST SWAP3 SWAP2 POP POP JUMP JUMPDEST PUSH1 0x0 PUSH2 0x106A DUP3 PUSH2 0xDA2 JUMP JUMPDEST SWAP2 POP PUSH2 0x1075 DUP4 PUSH2 0xDA2 JUMP JUMPDEST SWAP3 POP DUP3 DUP3 ADD SWAP1 POP DUP1 DUP3 GT ISZERO PUSH2 0x108D JUMPI PUSH2 0x108C PUSH2 0xFFC JUMP JUMPDEST JUMPDEST SWAP3 SWAP2 POP POP JUMP INVALID LOG2 PUSH5 0x6970667358 0x22 SLT KECCAK256 PUSH1 0xCB PUSH19 0x57BC711857004A893EEE7D4BC7DE3B8A746DD2 0x4D XOR SUB 0x21 0xB0 JUMP 0x4E SWAP3 0xF 0xC1 PUSH5 0x736F6C6343 STOP ADDMOD SLT STOP CALLER "
				},
				"gasEstimates": {
					"creation": {
						"codeDepositCost": "859400",
						"executionCost": "infinite",
						"totalCost": "infinite"
					},
					"external": {
						"allowance(address,address)": "infinite",
						"approve(address,uint256)": "infinite",
						"balanceOf(address)": "2863",
						"burn(uint256)": "infinite",
						"decimals()": "2574",
						"mint(uint256)": "infinite",
						"name()": "infinite",
						"symbol()": "infinite",
						"totalSupply()": "2488",
						"transfer(address,uint256)": "infinite",
						"transferFrom(address,address,uint256)": "infinite"
					},
					"internal": {
						"burn_(address,uint256)": "infinite",
						"mint_(address,uint256)": "infinite",
						"transfer_(address,address,uint256)": "infinite"
					}
				},
				"methodIdentifiers": {
					"allowance(address,address)": "dd62ed3e",
					"approve(address,uint256)": "095ea7b3",
					"balanceOf(address)": "70a08231",
					"burn(uint256)": "42966c68",
					"decimals()": "313ce567",
					"mint(uint256)": "a0712d68",
					"name()": "06fdde03",
					"symbol()": "95d89b41",
					"totalSupply()": "18160ddd",
					"transfer(address,uint256)": "a9059cbb",
					"transferFrom(address,address,uint256)": "23b872dd"
				}
			},
			"storageLayout": {
				"storage": [
					{
						"astId": 18,
						"contract": "blockchain/contracts/Polygon/Pool/Prototype/pool/token.sol:Token",
						"label": "my",
						"offset": 0,
						"slot": "0",
						"type": "t_struct(My)15_storage"
					},
					{
						"astId": 22,
						"contract": "blockchain/contracts/Polygon/Pool/Prototype/pool/token.sol:Token",
						"label": "balance",
						"offset": 0,
						"slot": "5",
						"type": "t_mapping(t_address,t_uint256)"
					},
					{
						"astId": 28,
						"contract": "blockchain/contracts/Polygon/Pool/Prototype/pool/token.sol:Token",
						"label": "allowed",
						"offset": 0,
						"slot": "6",
						"type": "t_mapping(t_address,t_mapping(t_address,t_uint256))"
					}
				],
				"types": {
					"t_address": {
						"encoding": "inplace",
						"label": "address",
						"numberOfBytes": "20"
					},
					"t_mapping(t_address,t_mapping(t_address,t_uint256))": {
						"encoding": "mapping",
						"key": "t_address",
						"label": "mapping(address => mapping(address => uint256))",
						"numberOfBytes": "32",
						"value": "t_mapping(t_address,t_uint256)"
					},
					"t_mapping(t_address,t_uint256)": {
						"encoding": "mapping",
						"key": "t_address",
						"label": "mapping(address => uint256)",
						"numberOfBytes": "32",
						"value": "t_uint256"
					},
					"t_string_storage": {
						"encoding": "bytes",
						"label": "string",
						"numberOfBytes": "32"
					},
					"t_struct(My)15_storage": {
						"encoding": "inplace",
						"label": "struct Token.My",
						"members": [
							{
								"astId": 6,
								"contract": "blockchain/contracts/Polygon/Pool/Prototype/pool/token.sol:Token",
								"label": "name",
								"offset": 0,
								"slot": "0",
								"type": "t_string_storage"
							},
							{
								"astId": 8,
								"contract": "blockchain/contracts/Polygon/Pool/Prototype/pool/token.sol:Token",
								"label": "symbol",
								"offset": 0,
								"slot": "1",
								"type": "t_string_storage"
							},
							{
								"astId": 10,
								"contract": "blockchain/contracts/Polygon/Pool/Prototype/pool/token.sol:Token",
								"label": "decimals",
								"offset": 0,
								"slot": "2",
								"type": "t_uint8"
							},
							{
								"astId": 12,
								"contract": "blockchain/contracts/Polygon/Pool/Prototype/pool/token.sol:Token",
								"label": "total_supply",
								"offset": 0,
								"slot": "3",
								"type": "t_uint256"
							},
							{
								"astId": 14,
								"contract": "blockchain/contracts/Polygon/Pool/Prototype/pool/token.sol:Token",
								"label": "admin",
								"offset": 0,
								"slot": "4",
								"type": "t_address"
							}
						],
						"numberOfBytes": "160"
					},
					"t_uint256": {
						"encoding": "inplace",
						"label": "uint256",
						"numberOfBytes": "32"
					},
					"t_uint8": {
						"encoding": "inplace",
						"label": "uint8",
						"numberOfBytes": "1"
					}
				}
			},
			"userdoc": {
				"kind": "user",
				"methods": {},
				"version": 1
			}
		}
	}
}