{
	"blockchain/contracts/Polygon/Pool/Prototype/pool/state.sol": {
		"State": {
			"abi": [
				{
					"inputs": [
						{
							"internalType": "address",
							"name": "_admin",
							"type": "address"
						},
						{
							"internalType": "address",
							"name": "_manager",
							"type": "address"
						},
						{
							"internalType": "string",
							"name": "_name",
							"type": "string"
						},
						{
							"internalType": "string",
							"name": "_description",
							"type": "string"
						},
						{
							"internalType": "uint256",
							"name": "_funding_start",
							"type": "uint256"
						},
						{
							"internalType": "uint256",
							"name": "_funding_end",
							"type": "uint256"
						},
						{
							"internalType": "uint256",
							"name": "_funding_required",
							"type": "uint256"
						},
						{
							"internalType": "bool",
							"name": "_whitelisted",
							"type": "bool"
						}
					],
					"stateMutability": "nonpayable",
					"type": "constructor"
				},
				{
					"anonymous": false,
					"inputs": [
						{
							"indexed": false,
							"internalType": "address",
							"name": "_from",
							"type": "address"
						},
						{
							"indexed": false,
							"internalType": "uint256",
							"name": "_value",
							"type": "uint256"
						}
					],
					"name": "Deposit",
					"type": "event"
				},
				{
					"anonymous": false,
					"inputs": [
						{
							"indexed": false,
							"internalType": "address",
							"name": "_contract",
							"type": "address"
						},
						{
							"indexed": false,
							"internalType": "address",
							"name": "_from",
							"type": "address"
						},
						{
							"indexed": false,
							"internalType": "uint256",
							"name": "_value",
							"type": "uint256"
						}
					],
					"name": "DepositERC20",
					"type": "event"
				},
				{
					"anonymous": false,
					"inputs": [
						{
							"indexed": true,
							"internalType": "address",
							"name": "_admin",
							"type": "address"
						},
						{
							"indexed": true,
							"internalType": "address",
							"name": "_manager",
							"type": "address"
						},
						{
							"indexed": false,
							"internalType": "string",
							"name": "_name",
							"type": "string"
						},
						{
							"indexed": false,
							"internalType": "string",
							"name": "_description",
							"type": "string"
						},
						{
							"indexed": false,
							"internalType": "uint256",
							"name": "_inception",
							"type": "uint256"
						},
						{
							"indexed": false,
							"internalType": "uint256",
							"name": "_funding_start",
							"type": "uint256"
						},
						{
							"indexed": false,
							"internalType": "uint256",
							"name": "_funding_end",
							"type": "uint256"
						},
						{
							"indexed": false,
							"internalType": "uint256",
							"name": "_funding_required",
							"type": "uint256"
						},
						{
							"indexed": false,
							"internalType": "bool",
							"name": "_whitelisted",
							"type": "bool"
						}
					],
					"name": "PoolFounded",
					"type": "event"
				},
				{
					"anonymous": false,
					"inputs": [
						{
							"indexed": false,
							"internalType": "address",
							"name": "_to",
							"type": "address"
						},
						{
							"indexed": false,
							"internalType": "uint256",
							"name": "_value",
							"type": "uint256"
						}
					],
					"name": "Withdraw",
					"type": "event"
				},
				{
					"anonymous": false,
					"inputs": [
						{
							"indexed": false,
							"internalType": "address",
							"name": "_contract",
							"type": "address"
						},
						{
							"indexed": false,
							"internalType": "address",
							"name": "_to",
							"type": "address"
						},
						{
							"indexed": false,
							"internalType": "uint256",
							"name": "_value",
							"type": "uint256"
						}
					],
					"name": "WithdrawERC20",
					"type": "event"
				},
				{
					"inputs": [
						{
							"internalType": "address",
							"name": "_address",
							"type": "address"
						}
					],
					"name": "persona_of",
					"outputs": [
						{
							"components": [
								{
									"internalType": "bool",
									"name": "is_on_whitelist",
									"type": "bool"
								}
							],
							"internalType": "struct State.Persona",
							"name": "",
							"type": "tuple"
						}
					],
					"stateMutability": "view",
					"type": "function"
				},
				{
					"inputs": [
						{
							"internalType": "uint256",
							"name": "_id",
							"type": "uint256"
						},
						{
							"components": [
								{
									"internalType": "uint256",
									"name": "start",
									"type": "uint256"
								},
								{
									"internalType": "uint256",
									"name": "end",
									"type": "uint256"
								},
								{
									"internalType": "uint256",
									"name": "required",
									"type": "uint256"
								},
								{
									"internalType": "bool",
									"name": "whitelisted",
									"type": "bool"
								},
								{
									"internalType": "bool",
									"name": "success",
									"type": "bool"
								}
							],
							"internalType": "struct State.Funding",
							"name": "_new",
							"type": "tuple"
						}
					],
					"name": "set_funding",
					"outputs": [
						{
							"internalType": "bool",
							"name": "",
							"type": "bool"
						}
					],
					"stateMutability": "nonpayable",
					"type": "function"
				},
				{
					"inputs": [
						{
							"internalType": "address",
							"name": "_address",
							"type": "address"
						},
						{
							"components": [
								{
									"internalType": "bool",
									"name": "is_on_whitelist",
									"type": "bool"
								}
							],
							"internalType": "struct State.Persona",
							"name": "_new",
							"type": "tuple"
						}
					],
					"name": "set_persona_of",
					"outputs": [
						{
							"internalType": "bool",
							"name": "",
							"type": "bool"
						}
					],
					"stateMutability": "nonpayable",
					"type": "function"
				},
				{
					"inputs": [
						{
							"internalType": "uint256",
							"name": "_id",
							"type": "uint256"
						}
					],
					"name": "view_funding",
					"outputs": [
						{
							"components": [
								{
									"internalType": "uint256",
									"name": "start",
									"type": "uint256"
								},
								{
									"internalType": "uint256",
									"name": "end",
									"type": "uint256"
								},
								{
									"internalType": "uint256",
									"name": "required",
									"type": "uint256"
								},
								{
									"internalType": "bool",
									"name": "whitelisted",
									"type": "bool"
								},
								{
									"internalType": "bool",
									"name": "success",
									"type": "bool"
								}
							],
							"internalType": "struct State.Funding",
							"name": "",
							"type": "tuple"
						}
					],
					"stateMutability": "view",
					"type": "function"
				},
				{
					"inputs": [
						{
							"internalType": "uint256",
							"name": "_value",
							"type": "uint256"
						}
					],
					"name": "withdraw",
					"outputs": [],
					"stateMutability": "nonpayable",
					"type": "function"
				},
				{
					"inputs": [
						{
							"internalType": "address",
							"name": "_contract",
							"type": "address"
						},
						{
							"internalType": "uint256",
							"name": "_value",
							"type": "uint256"
						}
					],
					"name": "withdraw_erc20",
					"outputs": [],
					"stateMutability": "nonpayable",
					"type": "function"
				},
				{
					"stateMutability": "payable",
					"type": "receive"
				}
			],
			"devdoc": {
				"kind": "dev",
				"methods": {},
				"version": 1
			},
			"evm": {
				"assembly": "    /* \"blockchain/contracts/Polygon/Pool/Prototype/pool/state.sol\":910:3961  contract State is IState, Safety, Authenticator {... */\n  mstore(0x40, 0x80)\n    /* \"blockchain/contracts/Polygon/Pool/Prototype/pool/state.sol\":1374:2722  constructor(... */\n  callvalue\n  dup1\n  iszero\n  tag_1\n  jumpi\n  0x00\n  dup1\n  revert\ntag_1:\n  pop\n  mload(0x40)\n  sub(codesize, bytecodeSize)\n  dup1\n  bytecodeSize\n  dup4\n  codecopy\n  dup2\n  dup2\n  add\n  0x40\n  mstore\n  dup2\n  add\n  swap1\n  tag_2\n  swap2\n  swap1\n  tag_3\n  jump\t// in\ntag_2:\n    /* \"blockchain/contracts/Polygon/Pool/Prototype/pool/state.sol\":1644:1669  uint256 _funding_duration */\n  0x00\n    /* \"blockchain/contracts/Polygon/Pool/Prototype/pool/state.sol\":1687:1701  _funding_start */\n  dup5\n    /* \"blockchain/contracts/Polygon/Pool/Prototype/pool/state.sol\":1672:1684  _funding_end */\n  dup5\n    /* \"blockchain/contracts/Polygon/Pool/Prototype/pool/state.sol\":1672:1701  _funding_end - _funding_start */\n  tag_6\n  swap2\n  swap1\n  tag_7\n  jump\t// in\ntag_6:\n    /* \"blockchain/contracts/Polygon/Pool/Prototype/pool/state.sol\":1644:1701  uint256 _funding_duration = _funding_end - _funding_start */\n  swap1\n  pop\n    /* \"blockchain/contracts/Polygon/Pool/Prototype/pool/state.sol\":1711:1740  uint256 _funding_min_duration */\n  0x00\n    /* \"blockchain/contracts/Polygon/Pool/Prototype/pool/state.sol\":1743:1750  1 weeks */\n  0x093a80\n    /* \"blockchain/contracts/Polygon/Pool/Prototype/pool/state.sol\":1711:1750  uint256 _funding_min_duration = 1 weeks */\n  swap1\n  pop\n    /* \"blockchain/contracts/Polygon/Pool/Prototype/pool/state.sol\":1760:1789  uint256 _funding_max_duration */\n  0x00\n    /* \"blockchain/contracts/Polygon/Pool/Prototype/pool/state.sol\":1792:1799  9 weeks */\n  0x530e80\n    /* \"blockchain/contracts/Polygon/Pool/Prototype/pool/state.sol\":1760:1799  uint256 _funding_max_duration = 9 weeks */\n  swap1\n  pop\n    /* \"blockchain/contracts/Polygon/Pool/Prototype/pool/state.sol\":1840:1861  _funding_min_duration */\n  dup2\n    /* \"blockchain/contracts/Polygon/Pool/Prototype/pool/state.sol\":1819:1836  _funding_required */\n  dup6\n    /* \"blockchain/contracts/Polygon/Pool/Prototype/pool/state.sol\":1819:1861  _funding_required >= _funding_min_duration */\n  lt\n  iszero\n    /* \"blockchain/contracts/Polygon/Pool/Prototype/pool/state.sol\":1810:1863  require( _funding_required >= _funding_min_duration ) */\n  tag_8\n  jumpi\n  0x00\n  dup1\n  revert\ntag_8:\n    /* \"blockchain/contracts/Polygon/Pool/Prototype/pool/state.sol\":1903:1924  _funding_max_duration */\n  dup1\n    /* \"blockchain/contracts/Polygon/Pool/Prototype/pool/state.sol\":1882:1899  _funding_duration */\n  dup4\n    /* \"blockchain/contracts/Polygon/Pool/Prototype/pool/state.sol\":1882:1924  _funding_duration >= _funding_max_duration */\n  lt\n  iszero\n    /* \"blockchain/contracts/Polygon/Pool/Prototype/pool/state.sol\":1873:1926  require( _funding_duration >= _funding_max_duration ) */\n  tag_9\n  jumpi\n  0x00\n  dup1\n  revert\ntag_9:\n    /* \"blockchain/contracts/Polygon/Pool/Prototype/pool/state.sol\":1952:2147  Funding({... */\n  mload(0x40)\n  dup1\n  0xa0\n  add\n  0x40\n  mstore\n  dup1\n    /* \"blockchain/contracts/Polygon/Pool/Prototype/pool/state.sol\":1982:1996  _funding_start */\n  dup9\n    /* \"blockchain/contracts/Polygon/Pool/Prototype/pool/state.sol\":1952:2147  Funding({... */\n  dup2\n  mstore\n  0x20\n  add\n    /* \"blockchain/contracts/Polygon/Pool/Prototype/pool/state.sol\":2015:2027  _funding_end */\n  dup8\n    /* \"blockchain/contracts/Polygon/Pool/Prototype/pool/state.sol\":1952:2147  Funding({... */\n  dup2\n  mstore\n  0x20\n  add\n    /* \"blockchain/contracts/Polygon/Pool/Prototype/pool/state.sol\":2051:2068  _funding_required */\n  dup7\n    /* \"blockchain/contracts/Polygon/Pool/Prototype/pool/state.sol\":1952:2147  Funding({... */\n  dup2\n  mstore\n  0x20\n  add\n    /* \"blockchain/contracts/Polygon/Pool/Prototype/pool/state.sol\":2095:2107  _whitelisted */\n  dup6\n    /* \"blockchain/contracts/Polygon/Pool/Prototype/pool/state.sol\":1952:2147  Funding({... */\n  iszero\n  iszero\n  dup2\n  mstore\n  0x20\n  add\n    /* \"blockchain/contracts/Polygon/Pool/Prototype/pool/state.sol\":2130:2135  false */\n  0x00\n    /* \"blockchain/contracts/Polygon/Pool/Prototype/pool/state.sol\":1952:2147  Funding({... */\n  iszero\n  iszero\n  dup2\n  mstore\n  pop\n    /* \"blockchain/contracts/Polygon/Pool/Prototype/pool/state.sol\":1937:1944  funding */\n  0x07\n    /* \"blockchain/contracts/Polygon/Pool/Prototype/pool/state.sol\":1937:1949  funding[ 0 ] */\n  0x00\n    /* \"blockchain/contracts/Polygon/Pool/Prototype/pool/state.sol\":1946:1947  0 */\n  dup1\n    /* \"blockchain/contracts/Polygon/Pool/Prototype/pool/state.sol\":1937:1949  funding[ 0 ] */\n  dup2\n  mstore\n  0x20\n  add\n  swap1\n  dup2\n  mstore\n  0x20\n  add\n  0x00\n  keccak256\n    /* \"blockchain/contracts/Polygon/Pool/Prototype/pool/state.sol\":1937:2147  funding[ 0 ] = Funding({... */\n  0x00\n  dup3\n  add\n  mload\n  dup2\n  0x00\n  add\n  sstore\n  0x20\n  dup3\n  add\n  mload\n  dup2\n  0x01\n  add\n  sstore\n  0x40\n  dup3\n  add\n  mload\n  dup2\n  0x02\n  add\n  sstore\n  0x60\n  dup3\n  add\n  mload\n  dup2\n  0x03\n  add\n  exp(0x0100, 0x00)\n  dup2\n  sload\n  dup2\n  0xff\n  mul\n  not\n  and\n  swap1\n  dup4\n  iszero\n  iszero\n  mul\n  or\n  swap1\n  sstore\n  pop\n  0x80\n  dup3\n  add\n  mload\n  dup2\n  0x03\n  add\n  exp(0x0100, 0x01)\n  dup2\n  sload\n  dup2\n  0xff\n  mul\n  not\n  and\n  swap1\n  dup4\n  iszero\n  iszero\n  mul\n  or\n  swap1\n  sstore\n  pop\n  swap1\n  pop\n  pop\n    /* \"blockchain/contracts/Polygon/Pool/Prototype/pool/state.sol\":2184:2185  0 */\n  0x00\n    /* \"blockchain/contracts/Polygon/Pool/Prototype/pool/state.sol\":2163:2180  _funding_required */\n  dup6\n    /* \"blockchain/contracts/Polygon/Pool/Prototype/pool/state.sol\":2163:2185  _funding_required == 0 */\n  sub\n    /* \"blockchain/contracts/Polygon/Pool/Prototype/pool/state.sol\":2158:2220  if ( _funding_required == 0 ) { funding[ 0 ].success = true; } */\n  tag_10\n  jumpi\n    /* \"blockchain/contracts/Polygon/Pool/Prototype/pool/state.sol\":2213:2217  true */\n  0x01\n    /* \"blockchain/contracts/Polygon/Pool/Prototype/pool/state.sol\":2190:2197  funding */\n  0x07\n    /* \"blockchain/contracts/Polygon/Pool/Prototype/pool/state.sol\":2190:2202  funding[ 0 ] */\n  0x00\n    /* \"blockchain/contracts/Polygon/Pool/Prototype/pool/state.sol\":2199:2200  0 */\n  dup1\n    /* \"blockchain/contracts/Polygon/Pool/Prototype/pool/state.sol\":2190:2202  funding[ 0 ] */\n  dup2\n  mstore\n  0x20\n  add\n  swap1\n  dup2\n  mstore\n  0x20\n  add\n  0x00\n  keccak256\n    /* \"blockchain/contracts/Polygon/Pool/Prototype/pool/state.sol\":2190:2210  funding[ 0 ].success */\n  0x03\n  add\n  0x01\n    /* \"blockchain/contracts/Polygon/Pool/Prototype/pool/state.sol\":2190:2217  funding[ 0 ].success = true */\n  0x0100\n  exp\n  dup2\n  sload\n  dup2\n  0xff\n  mul\n  not\n  and\n  swap1\n  dup4\n  iszero\n  iszero\n  mul\n  or\n  swap1\n  sstore\n  pop\n    /* \"blockchain/contracts/Polygon/Pool/Prototype/pool/state.sol\":2158:2220  if ( _funding_required == 0 ) { funding[ 0 ].success = true; } */\ntag_10:\n    /* \"blockchain/contracts/Polygon/Pool/Prototype/pool/state.sol\":2258:2259  0 */\n  0x00\n    /* \"blockchain/contracts/Polygon/Pool/Prototype/pool/state.sol\":2239:2261  _admin != address( 0 ) */\n  0xffffffffffffffffffffffffffffffffffffffff\n  and\n    /* \"blockchain/contracts/Polygon/Pool/Prototype/pool/state.sol\":2239:2245  _admin */\n  dup12\n    /* \"blockchain/contracts/Polygon/Pool/Prototype/pool/state.sol\":2239:2261  _admin != address( 0 ) */\n  0xffffffffffffffffffffffffffffffffffffffff\n  and\n  sub\n    /* \"blockchain/contracts/Polygon/Pool/Prototype/pool/state.sol\":2230:2262  require( _admin != address( 0 )) */\n  tag_11\n  jumpi\n  0x00\n  dup1\n  revert\ntag_11:\n    /* \"blockchain/contracts/Polygon/Pool/Prototype/pool/state.sol\":2302:2303  0 */\n  0x00\n    /* \"blockchain/contracts/Polygon/Pool/Prototype/pool/state.sol\":2281:2305  _manager != address( 0 ) */\n  0xffffffffffffffffffffffffffffffffffffffff\n  and\n    /* \"blockchain/contracts/Polygon/Pool/Prototype/pool/state.sol\":2281:2289  _manager */\n  dup11\n    /* \"blockchain/contracts/Polygon/Pool/Prototype/pool/state.sol\":2281:2305  _manager != address( 0 ) */\n  0xffffffffffffffffffffffffffffffffffffffff\n  and\n  sub\n    /* \"blockchain/contracts/Polygon/Pool/Prototype/pool/state.sol\":2272:2306  require( _manager != address( 0 )) */\n  tag_12\n  jumpi\n  0x00\n  dup1\n  revert\ntag_12:\n    /* \"blockchain/contracts/Polygon/Pool/Prototype/pool/state.sol\":2325:2331  _admin */\n  dup11\n    /* \"blockchain/contracts/Polygon/Pool/Prototype/pool/state.sol\":2317:2322  admin */\n  0x00\n  0x01\n    /* \"blockchain/contracts/Polygon/Pool/Prototype/pool/state.sol\":2317:2331  admin = _admin */\n  0x0100\n  exp\n  dup2\n  sload\n  dup2\n  0xffffffffffffffffffffffffffffffffffffffff\n  mul\n  not\n  and\n  swap1\n  dup4\n  0xffffffffffffffffffffffffffffffffffffffff\n  and\n  mul\n  or\n  swap1\n  sstore\n  pop\n    /* \"blockchain/contracts/Polygon/Pool/Prototype/pool/state.sol\":2351:2359  _manager */\n  dup10\n    /* \"blockchain/contracts/Polygon/Pool/Prototype/pool/state.sol\":2341:2348  manager */\n  0x01\n  0x00\n    /* \"blockchain/contracts/Polygon/Pool/Prototype/pool/state.sol\":2341:2359  manager = _manager */\n  0x0100\n  exp\n  dup2\n  sload\n  dup2\n  0xffffffffffffffffffffffffffffffffffffffff\n  mul\n  not\n  and\n  swap1\n  dup4\n  0xffffffffffffffffffffffffffffffffffffffff\n  and\n  mul\n  or\n  swap1\n  sstore\n  pop\n    /* \"blockchain/contracts/Polygon/Pool/Prototype/pool/state.sol\":2376:2381  _name */\n  dup9\n    /* \"blockchain/contracts/Polygon/Pool/Prototype/pool/state.sol\":2369:2373  name */\n  0x03\n    /* \"blockchain/contracts/Polygon/Pool/Prototype/pool/state.sol\":2369:2381  name = _name */\n  swap1\n  dup2\n  tag_13\n  swap2\n  swap1\n  tag_14\n  jump\t// in\ntag_13:\n  pop\n    /* \"blockchain/contracts/Polygon/Pool/Prototype/pool/state.sol\":2405:2417  _description */\n  dup8\n    /* \"blockchain/contracts/Polygon/Pool/Prototype/pool/state.sol\":2391:2402  description */\n  0x04\n    /* \"blockchain/contracts/Polygon/Pool/Prototype/pool/state.sol\":2391:2417  description = _description */\n  swap1\n  dup2\n  tag_15\n  swap2\n  swap1\n  tag_14\n  jump\t// in\ntag_15:\n  pop\n    /* \"blockchain/contracts/Polygon/Pool/Prototype/pool/state.sol\":2439:2454  block.timestamp */\n  timestamp\n    /* \"blockchain/contracts/Polygon/Pool/Prototype/pool/state.sol\":2427:2436  inception */\n  0x05\n    /* \"blockchain/contracts/Polygon/Pool/Prototype/pool/state.sol\":2427:2454  inception = block.timestamp */\n  dup2\n  swap1\n  sstore\n  pop\n    /* \"blockchain/contracts/Polygon/Pool/Prototype/pool/state.sol\":2516:2524  _manager */\n  dup10\n    /* \"blockchain/contracts/Polygon/Pool/Prototype/pool/state.sol\":2470:2714  PoolFounded(... */\n  0xffffffffffffffffffffffffffffffffffffffff\n  and\n    /* \"blockchain/contracts/Polygon/Pool/Prototype/pool/state.sol\":2496:2502  _admin */\n  dup12\n    /* \"blockchain/contracts/Polygon/Pool/Prototype/pool/state.sol\":2470:2714  PoolFounded(... */\n  0xffffffffffffffffffffffffffffffffffffffff\n  and\n  0xa9791d0b29cae9f1171eeb4160f282930ca6a1ee4f5d2760fdb5bee857b6057e\n    /* \"blockchain/contracts/Polygon/Pool/Prototype/pool/state.sol\":2538:2543  _name */\n  dup12\n    /* \"blockchain/contracts/Polygon/Pool/Prototype/pool/state.sol\":2557:2569  _description */\n  dup12\n    /* \"blockchain/contracts/Polygon/Pool/Prototype/pool/state.sol\":2583:2592  inception */\n  sload(0x05)\n    /* \"blockchain/contracts/Polygon/Pool/Prototype/pool/state.sol\":2606:2620  _funding_start */\n  dup13\n    /* \"blockchain/contracts/Polygon/Pool/Prototype/pool/state.sol\":2634:2646  _funding_end */\n  dup13\n    /* \"blockchain/contracts/Polygon/Pool/Prototype/pool/state.sol\":2660:2677  _funding_required */\n  dup13\n    /* \"blockchain/contracts/Polygon/Pool/Prototype/pool/state.sol\":2691:2703  _whitelisted */\n  dup13\n    /* \"blockchain/contracts/Polygon/Pool/Prototype/pool/state.sol\":2470:2714  PoolFounded(... */\n  mload(0x40)\n  tag_16\n  swap8\n  swap7\n  swap6\n  swap5\n  swap4\n  swap3\n  swap2\n  swap1\n  tag_17\n  jump\t// in\ntag_16:\n  mload(0x40)\n  dup1\n  swap2\n  sub\n  swap1\n  log3\n    /* \"blockchain/contracts/Polygon/Pool/Prototype/pool/state.sol\":1633:2722  {... */\n  pop\n  pop\n  pop\n    /* \"blockchain/contracts/Polygon/Pool/Prototype/pool/state.sol\":1374:2722  constructor(... */\n  pop\n  pop\n  pop\n  pop\n  pop\n  pop\n  pop\n  pop\n    /* \"blockchain/contracts/Polygon/Pool/Prototype/pool/state.sol\":910:3961  contract State is IState, Safety, Authenticator {... */\n  jump(tag_18)\n    /* \"#utility.yul\":7:82   */\ntag_19:\n    /* \"#utility.yul\":40:46   */\n  0x00\n    /* \"#utility.yul\":73:75   */\n  0x40\n    /* \"#utility.yul\":67:76   */\n  mload\n    /* \"#utility.yul\":57:76   */\n  swap1\n  pop\n    /* \"#utility.yul\":7:82   */\n  swap1\n  jump\t// out\n    /* \"#utility.yul\":88:205   */\ntag_20:\n    /* \"#utility.yul\":197:198   */\n  0x00\n    /* \"#utility.yul\":194:195   */\n  dup1\n    /* \"#utility.yul\":187:199   */\n  revert\n    /* \"#utility.yul\":211:328   */\ntag_21:\n    /* \"#utility.yul\":320:321   */\n  0x00\n    /* \"#utility.yul\":317:318   */\n  dup1\n    /* \"#utility.yul\":310:322   */\n  revert\n    /* \"#utility.yul\":334:460   */\ntag_22:\n    /* \"#utility.yul\":371:378   */\n  0x00\n    /* \"#utility.yul\":411:453   */\n  0xffffffffffffffffffffffffffffffffffffffff\n    /* \"#utility.yul\":404:409   */\n  dup3\n    /* \"#utility.yul\":400:454   */\n  and\n    /* \"#utility.yul\":389:454   */\n  swap1\n  pop\n    /* \"#utility.yul\":334:460   */\n  swap2\n  swap1\n  pop\n  jump\t// out\n    /* \"#utility.yul\":466:562   */\ntag_23:\n    /* \"#utility.yul\":503:510   */\n  0x00\n    /* \"#utility.yul\":532:556   */\n  tag_71\n    /* \"#utility.yul\":550:555   */\n  dup3\n    /* \"#utility.yul\":532:556   */\n  tag_22\n  jump\t// in\ntag_71:\n    /* \"#utility.yul\":521:556   */\n  swap1\n  pop\n    /* \"#utility.yul\":466:562   */\n  swap2\n  swap1\n  pop\n  jump\t// out\n    /* \"#utility.yul\":568:690   */\ntag_24:\n    /* \"#utility.yul\":641:665   */\n  tag_73\n    /* \"#utility.yul\":659:664   */\n  dup2\n    /* \"#utility.yul\":641:665   */\n  tag_23\n  jump\t// in\ntag_73:\n    /* \"#utility.yul\":634:639   */\n  dup2\n    /* \"#utility.yul\":631:666   */\n  eq\n    /* \"#utility.yul\":621:684   */\n  tag_74\n  jumpi\n    /* \"#utility.yul\":680:681   */\n  0x00\n    /* \"#utility.yul\":677:678   */\n  dup1\n    /* \"#utility.yul\":670:682   */\n  revert\n    /* \"#utility.yul\":621:684   */\ntag_74:\n    /* \"#utility.yul\":568:690   */\n  pop\n  jump\t// out\n    /* \"#utility.yul\":696:839   */\ntag_25:\n    /* \"#utility.yul\":753:758   */\n  0x00\n    /* \"#utility.yul\":784:790   */\n  dup2\n    /* \"#utility.yul\":778:791   */\n  mload\n    /* \"#utility.yul\":769:791   */\n  swap1\n  pop\n    /* \"#utility.yul\":800:833   */\n  tag_76\n    /* \"#utility.yul\":827:832   */\n  dup2\n    /* \"#utility.yul\":800:833   */\n  tag_24\n  jump\t// in\ntag_76:\n    /* \"#utility.yul\":696:839   */\n  swap3\n  swap2\n  pop\n  pop\n  jump\t// out\n    /* \"#utility.yul\":845:962   */\ntag_26:\n    /* \"#utility.yul\":954:955   */\n  0x00\n    /* \"#utility.yul\":951:952   */\n  dup1\n    /* \"#utility.yul\":944:956   */\n  revert\n    /* \"#utility.yul\":968:1085   */\ntag_27:\n    /* \"#utility.yul\":1077:1078   */\n  0x00\n    /* \"#utility.yul\":1074:1075   */\n  dup1\n    /* \"#utility.yul\":1067:1079   */\n  revert\n    /* \"#utility.yul\":1091:1193   */\ntag_28:\n    /* \"#utility.yul\":1132:1138   */\n  0x00\n    /* \"#utility.yul\":1183:1185   */\n  0x1f\n    /* \"#utility.yul\":1179:1186   */\n  not\n    /* \"#utility.yul\":1174:1176   */\n  0x1f\n    /* \"#utility.yul\":1167:1172   */\n  dup4\n    /* \"#utility.yul\":1163:1177   */\n  add\n    /* \"#utility.yul\":1159:1187   */\n  and\n    /* \"#utility.yul\":1149:1187   */\n  swap1\n  pop\n    /* \"#utility.yul\":1091:1193   */\n  swap2\n  swap1\n  pop\n  jump\t// out\n    /* \"#utility.yul\":1199:1379   */\ntag_29:\n    /* \"#utility.yul\":1247:1324   */\n  0x4e487b7100000000000000000000000000000000000000000000000000000000\n    /* \"#utility.yul\":1244:1245   */\n  0x00\n    /* \"#utility.yul\":1237:1325   */\n  mstore\n    /* \"#utility.yul\":1344:1348   */\n  0x41\n    /* \"#utility.yul\":1341:1342   */\n  0x04\n    /* \"#utility.yul\":1334:1349   */\n  mstore\n    /* \"#utility.yul\":1368:1372   */\n  0x24\n    /* \"#utility.yul\":1365:1366   */\n  0x00\n    /* \"#utility.yul\":1358:1373   */\n  revert\n    /* \"#utility.yul\":1385:1666   */\ntag_30:\n    /* \"#utility.yul\":1468:1495   */\n  tag_82\n    /* \"#utility.yul\":1490:1494   */\n  dup3\n    /* \"#utility.yul\":1468:1495   */\n  tag_28\n  jump\t// in\ntag_82:\n    /* \"#utility.yul\":1460:1466   */\n  dup2\n    /* \"#utility.yul\":1456:1496   */\n  add\n    /* \"#utility.yul\":1598:1604   */\n  dup2\n    /* \"#utility.yul\":1586:1596   */\n  dup2\n    /* \"#utility.yul\":1583:1605   */\n  lt\n    /* \"#utility.yul\":1562:1580   */\n  0xffffffffffffffff\n    /* \"#utility.yul\":1550:1560   */\n  dup3\n    /* \"#utility.yul\":1547:1581   */\n  gt\n    /* \"#utility.yul\":1544:1606   */\n  or\n    /* \"#utility.yul\":1541:1629   */\n  iszero\n  tag_83\n  jumpi\n    /* \"#utility.yul\":1609:1627   */\n  tag_84\n  tag_29\n  jump\t// in\ntag_84:\n    /* \"#utility.yul\":1541:1629   */\ntag_83:\n    /* \"#utility.yul\":1649:1659   */\n  dup1\n    /* \"#utility.yul\":1645:1647   */\n  0x40\n    /* \"#utility.yul\":1638:1660   */\n  mstore\n    /* \"#utility.yul\":1428:1666   */\n  pop\n    /* \"#utility.yul\":1385:1666   */\n  pop\n  pop\n  jump\t// out\n    /* \"#utility.yul\":1672:1801   */\ntag_31:\n    /* \"#utility.yul\":1706:1712   */\n  0x00\n    /* \"#utility.yul\":1733:1753   */\n  tag_86\n  tag_19\n  jump\t// in\ntag_86:\n    /* \"#utility.yul\":1723:1753   */\n  swap1\n  pop\n    /* \"#utility.yul\":1762:1795   */\n  tag_87\n    /* \"#utility.yul\":1790:1794   */\n  dup3\n    /* \"#utility.yul\":1782:1788   */\n  dup3\n    /* \"#utility.yul\":1762:1795   */\n  tag_30\n  jump\t// in\ntag_87:\n    /* \"#utility.yul\":1672:1801   */\n  swap2\n  swap1\n  pop\n  jump\t// out\n    /* \"#utility.yul\":1807:2115   */\ntag_32:\n    /* \"#utility.yul\":1869:1873   */\n  0x00\n    /* \"#utility.yul\":1959:1977   */\n  0xffffffffffffffff\n    /* \"#utility.yul\":1951:1957   */\n  dup3\n    /* \"#utility.yul\":1948:1978   */\n  gt\n    /* \"#utility.yul\":1945:2001   */\n  iszero\n  tag_89\n  jumpi\n    /* \"#utility.yul\":1981:1999   */\n  tag_90\n  tag_29\n  jump\t// in\ntag_90:\n    /* \"#utility.yul\":1945:2001   */\ntag_89:\n    /* \"#utility.yul\":2019:2048   */\n  tag_91\n    /* \"#utility.yul\":2041:2047   */\n  dup3\n    /* \"#utility.yul\":2019:2048   */\n  tag_28\n  jump\t// in\ntag_91:\n    /* \"#utility.yul\":2011:2048   */\n  swap1\n  pop\n    /* \"#utility.yul\":2103:2107   */\n  0x20\n    /* \"#utility.yul\":2097:2101   */\n  dup2\n    /* \"#utility.yul\":2093:2108   */\n  add\n    /* \"#utility.yul\":2085:2108   */\n  swap1\n  pop\n    /* \"#utility.yul\":1807:2115   */\n  swap2\n  swap1\n  pop\n  jump\t// out\n    /* \"#utility.yul\":2121:2367   */\ntag_33:\n    /* \"#utility.yul\":2202:2203   */\n  0x00\n    /* \"#utility.yul\":2212:2325   */\ntag_93:\n    /* \"#utility.yul\":2226:2232   */\n  dup4\n    /* \"#utility.yul\":2223:2224   */\n  dup2\n    /* \"#utility.yul\":2220:2233   */\n  lt\n    /* \"#utility.yul\":2212:2325   */\n  iszero\n  tag_95\n  jumpi\n    /* \"#utility.yul\":2311:2312   */\n  dup1\n    /* \"#utility.yul\":2306:2309   */\n  dup3\n    /* \"#utility.yul\":2302:2313   */\n  add\n    /* \"#utility.yul\":2296:2314   */\n  mload\n    /* \"#utility.yul\":2292:2293   */\n  dup2\n    /* \"#utility.yul\":2287:2290   */\n  dup5\n    /* \"#utility.yul\":2283:2294   */\n  add\n    /* \"#utility.yul\":2276:2315   */\n  mstore\n    /* \"#utility.yul\":2248:2250   */\n  0x20\n    /* \"#utility.yul\":2245:2246   */\n  dup2\n    /* \"#utility.yul\":2241:2251   */\n  add\n    /* \"#utility.yul\":2236:2251   */\n  swap1\n  pop\n    /* \"#utility.yul\":2212:2325   */\n  jump(tag_93)\ntag_95:\n    /* \"#utility.yul\":2359:2360   */\n  0x00\n    /* \"#utility.yul\":2350:2356   */\n  dup5\n    /* \"#utility.yul\":2345:2348   */\n  dup5\n    /* \"#utility.yul\":2341:2357   */\n  add\n    /* \"#utility.yul\":2334:2361   */\n  mstore\n    /* \"#utility.yul\":2183:2367   */\n  pop\n    /* \"#utility.yul\":2121:2367   */\n  pop\n  pop\n  pop\n  jump\t// out\n    /* \"#utility.yul\":2373:2807   */\ntag_34:\n    /* \"#utility.yul\":2462:2467   */\n  0x00\n    /* \"#utility.yul\":2487:2553   */\n  tag_97\n    /* \"#utility.yul\":2503:2552   */\n  tag_98\n    /* \"#utility.yul\":2545:2551   */\n  dup5\n    /* \"#utility.yul\":2503:2552   */\n  tag_32\n  jump\t// in\ntag_98:\n    /* \"#utility.yul\":2487:2553   */\n  tag_31\n  jump\t// in\ntag_97:\n    /* \"#utility.yul\":2478:2553   */\n  swap1\n  pop\n    /* \"#utility.yul\":2576:2582   */\n  dup3\n    /* \"#utility.yul\":2569:2574   */\n  dup2\n    /* \"#utility.yul\":2562:2583   */\n  mstore\n    /* \"#utility.yul\":2614:2618   */\n  0x20\n    /* \"#utility.yul\":2607:2612   */\n  dup2\n    /* \"#utility.yul\":2603:2619   */\n  add\n    /* \"#utility.yul\":2652:2655   */\n  dup5\n    /* \"#utility.yul\":2643:2649   */\n  dup5\n    /* \"#utility.yul\":2638:2641   */\n  dup5\n    /* \"#utility.yul\":2634:2650   */\n  add\n    /* \"#utility.yul\":2631:2656   */\n  gt\n    /* \"#utility.yul\":2628:2740   */\n  iszero\n  tag_99\n  jumpi\n    /* \"#utility.yul\":2659:2738   */\n  tag_100\n  tag_27\n  jump\t// in\ntag_100:\n    /* \"#utility.yul\":2628:2740   */\ntag_99:\n    /* \"#utility.yul\":2749:2801   */\n  tag_101\n    /* \"#utility.yul\":2794:2800   */\n  dup5\n    /* \"#utility.yul\":2789:2792   */\n  dup3\n    /* \"#utility.yul\":2784:2787   */\n  dup6\n    /* \"#utility.yul\":2749:2801   */\n  tag_33\n  jump\t// in\ntag_101:\n    /* \"#utility.yul\":2468:2807   */\n  pop\n    /* \"#utility.yul\":2373:2807   */\n  swap4\n  swap3\n  pop\n  pop\n  pop\n  jump\t// out\n    /* \"#utility.yul\":2827:3182   */\ntag_35:\n    /* \"#utility.yul\":2894:2899   */\n  0x00\n    /* \"#utility.yul\":2943:2946   */\n  dup3\n    /* \"#utility.yul\":2936:2940   */\n  0x1f\n    /* \"#utility.yul\":2928:2934   */\n  dup4\n    /* \"#utility.yul\":2924:2941   */\n  add\n    /* \"#utility.yul\":2920:2947   */\n  slt\n    /* \"#utility.yul\":2910:3032   */\n  tag_103\n  jumpi\n    /* \"#utility.yul\":2951:3030   */\n  tag_104\n  tag_26\n  jump\t// in\ntag_104:\n    /* \"#utility.yul\":2910:3032   */\ntag_103:\n    /* \"#utility.yul\":3061:3067   */\n  dup2\n    /* \"#utility.yul\":3055:3068   */\n  mload\n    /* \"#utility.yul\":3086:3176   */\n  tag_105\n    /* \"#utility.yul\":3172:3175   */\n  dup5\n    /* \"#utility.yul\":3164:3170   */\n  dup3\n    /* \"#utility.yul\":3157:3161   */\n  0x20\n    /* \"#utility.yul\":3149:3155   */\n  dup7\n    /* \"#utility.yul\":3145:3162   */\n  add\n    /* \"#utility.yul\":3086:3176   */\n  tag_34\n  jump\t// in\ntag_105:\n    /* \"#utility.yul\":3077:3176   */\n  swap2\n  pop\n    /* \"#utility.yul\":2900:3182   */\n  pop\n    /* \"#utility.yul\":2827:3182   */\n  swap3\n  swap2\n  pop\n  pop\n  jump\t// out\n    /* \"#utility.yul\":3188:3265   */\ntag_36:\n    /* \"#utility.yul\":3225:3232   */\n  0x00\n    /* \"#utility.yul\":3254:3259   */\n  dup2\n    /* \"#utility.yul\":3243:3259   */\n  swap1\n  pop\n    /* \"#utility.yul\":3188:3265   */\n  swap2\n  swap1\n  pop\n  jump\t// out\n    /* \"#utility.yul\":3271:3393   */\ntag_37:\n    /* \"#utility.yul\":3344:3368   */\n  tag_108\n    /* \"#utility.yul\":3362:3367   */\n  dup2\n    /* \"#utility.yul\":3344:3368   */\n  tag_36\n  jump\t// in\ntag_108:\n    /* \"#utility.yul\":3337:3342   */\n  dup2\n    /* \"#utility.yul\":3334:3369   */\n  eq\n    /* \"#utility.yul\":3324:3387   */\n  tag_109\n  jumpi\n    /* \"#utility.yul\":3383:3384   */\n  0x00\n    /* \"#utility.yul\":3380:3381   */\n  dup1\n    /* \"#utility.yul\":3373:3385   */\n  revert\n    /* \"#utility.yul\":3324:3387   */\ntag_109:\n    /* \"#utility.yul\":3271:3393   */\n  pop\n  jump\t// out\n    /* \"#utility.yul\":3399:3542   */\ntag_38:\n    /* \"#utility.yul\":3456:3461   */\n  0x00\n    /* \"#utility.yul\":3487:3493   */\n  dup2\n    /* \"#utility.yul\":3481:3494   */\n  mload\n    /* \"#utility.yul\":3472:3494   */\n  swap1\n  pop\n    /* \"#utility.yul\":3503:3536   */\n  tag_111\n    /* \"#utility.yul\":3530:3535   */\n  dup2\n    /* \"#utility.yul\":3503:3536   */\n  tag_37\n  jump\t// in\ntag_111:\n    /* \"#utility.yul\":3399:3542   */\n  swap3\n  swap2\n  pop\n  pop\n  jump\t// out\n    /* \"#utility.yul\":3548:3638   */\ntag_39:\n    /* \"#utility.yul\":3582:3589   */\n  0x00\n    /* \"#utility.yul\":3625:3630   */\n  dup2\n    /* \"#utility.yul\":3618:3631   */\n  iszero\n    /* \"#utility.yul\":3611:3632   */\n  iszero\n    /* \"#utility.yul\":3600:3632   */\n  swap1\n  pop\n    /* \"#utility.yul\":3548:3638   */\n  swap2\n  swap1\n  pop\n  jump\t// out\n    /* \"#utility.yul\":3644:3760   */\ntag_40:\n    /* \"#utility.yul\":3714:3735   */\n  tag_114\n    /* \"#utility.yul\":3729:3734   */\n  dup2\n    /* \"#utility.yul\":3714:3735   */\n  tag_39\n  jump\t// in\ntag_114:\n    /* \"#utility.yul\":3707:3712   */\n  dup2\n    /* \"#utility.yul\":3704:3736   */\n  eq\n    /* \"#utility.yul\":3694:3754   */\n  tag_115\n  jumpi\n    /* \"#utility.yul\":3750:3751   */\n  0x00\n    /* \"#utility.yul\":3747:3748   */\n  dup1\n    /* \"#utility.yul\":3740:3752   */\n  revert\n    /* \"#utility.yul\":3694:3754   */\ntag_115:\n    /* \"#utility.yul\":3644:3760   */\n  pop\n  jump\t// out\n    /* \"#utility.yul\":3766:3903   */\ntag_41:\n    /* \"#utility.yul\":3820:3825   */\n  0x00\n    /* \"#utility.yul\":3851:3857   */\n  dup2\n    /* \"#utility.yul\":3845:3858   */\n  mload\n    /* \"#utility.yul\":3836:3858   */\n  swap1\n  pop\n    /* \"#utility.yul\":3867:3897   */\n  tag_117\n    /* \"#utility.yul\":3891:3896   */\n  dup2\n    /* \"#utility.yul\":3867:3897   */\n  tag_40\n  jump\t// in\ntag_117:\n    /* \"#utility.yul\":3766:3903   */\n  swap3\n  swap2\n  pop\n  pop\n  jump\t// out\n    /* \"#utility.yul\":3909:5697   */\ntag_3:\n    /* \"#utility.yul\":4059:4065   */\n  0x00\n    /* \"#utility.yul\":4067:4073   */\n  dup1\n    /* \"#utility.yul\":4075:4081   */\n  0x00\n    /* \"#utility.yul\":4083:4089   */\n  dup1\n    /* \"#utility.yul\":4091:4097   */\n  0x00\n    /* \"#utility.yul\":4099:4105   */\n  dup1\n    /* \"#utility.yul\":4107:4113   */\n  0x00\n    /* \"#utility.yul\":4115:4121   */\n  dup1\n    /* \"#utility.yul\":4164:4167   */\n  0x0100\n    /* \"#utility.yul\":4152:4161   */\n  dup10\n    /* \"#utility.yul\":4143:4150   */\n  dup12\n    /* \"#utility.yul\":4139:4162   */\n  sub\n    /* \"#utility.yul\":4135:4168   */\n  slt\n    /* \"#utility.yul\":4132:4252   */\n  iszero\n  tag_119\n  jumpi\n    /* \"#utility.yul\":4171:4250   */\n  tag_120\n  tag_20\n  jump\t// in\ntag_120:\n    /* \"#utility.yul\":4132:4252   */\ntag_119:\n    /* \"#utility.yul\":4291:4292   */\n  0x00\n    /* \"#utility.yul\":4316:4380   */\n  tag_121\n    /* \"#utility.yul\":4372:4379   */\n  dup12\n    /* \"#utility.yul\":4363:4369   */\n  dup3\n    /* \"#utility.yul\":4352:4361   */\n  dup13\n    /* \"#utility.yul\":4348:4370   */\n  add\n    /* \"#utility.yul\":4316:4380   */\n  tag_25\n  jump\t// in\ntag_121:\n    /* \"#utility.yul\":4306:4380   */\n  swap9\n  pop\n    /* \"#utility.yul\":4262:4390   */\n  pop\n    /* \"#utility.yul\":4429:4431   */\n  0x20\n    /* \"#utility.yul\":4455:4519   */\n  tag_122\n    /* \"#utility.yul\":4511:4518   */\n  dup12\n    /* \"#utility.yul\":4502:4508   */\n  dup3\n    /* \"#utility.yul\":4491:4500   */\n  dup13\n    /* \"#utility.yul\":4487:4509   */\n  add\n    /* \"#utility.yul\":4455:4519   */\n  tag_25\n  jump\t// in\ntag_122:\n    /* \"#utility.yul\":4445:4519   */\n  swap8\n  pop\n    /* \"#utility.yul\":4400:4529   */\n  pop\n    /* \"#utility.yul\":4589:4591   */\n  0x40\n    /* \"#utility.yul\":4578:4587   */\n  dup10\n    /* \"#utility.yul\":4574:4592   */\n  add\n    /* \"#utility.yul\":4568:4593   */\n  mload\n    /* \"#utility.yul\":4620:4638   */\n  0xffffffffffffffff\n    /* \"#utility.yul\":4612:4618   */\n  dup2\n    /* \"#utility.yul\":4609:4639   */\n  gt\n    /* \"#utility.yul\":4606:4723   */\n  iszero\n  tag_123\n  jumpi\n    /* \"#utility.yul\":4642:4721   */\n  tag_124\n  tag_21\n  jump\t// in\ntag_124:\n    /* \"#utility.yul\":4606:4723   */\ntag_123:\n    /* \"#utility.yul\":4747:4821   */\n  tag_125\n    /* \"#utility.yul\":4813:4820   */\n  dup12\n    /* \"#utility.yul\":4804:4810   */\n  dup3\n    /* \"#utility.yul\":4793:4802   */\n  dup13\n    /* \"#utility.yul\":4789:4811   */\n  add\n    /* \"#utility.yul\":4747:4821   */\n  tag_35\n  jump\t// in\ntag_125:\n    /* \"#utility.yul\":4737:4821   */\n  swap7\n  pop\n    /* \"#utility.yul\":4539:4831   */\n  pop\n    /* \"#utility.yul\":4891:4893   */\n  0x60\n    /* \"#utility.yul\":4880:4889   */\n  dup10\n    /* \"#utility.yul\":4876:4894   */\n  add\n    /* \"#utility.yul\":4870:4895   */\n  mload\n    /* \"#utility.yul\":4922:4940   */\n  0xffffffffffffffff\n    /* \"#utility.yul\":4914:4920   */\n  dup2\n    /* \"#utility.yul\":4911:4941   */\n  gt\n    /* \"#utility.yul\":4908:5025   */\n  iszero\n  tag_126\n  jumpi\n    /* \"#utility.yul\":4944:5023   */\n  tag_127\n  tag_21\n  jump\t// in\ntag_127:\n    /* \"#utility.yul\":4908:5025   */\ntag_126:\n    /* \"#utility.yul\":5049:5123   */\n  tag_128\n    /* \"#utility.yul\":5115:5122   */\n  dup12\n    /* \"#utility.yul\":5106:5112   */\n  dup3\n    /* \"#utility.yul\":5095:5104   */\n  dup13\n    /* \"#utility.yul\":5091:5113   */\n  add\n    /* \"#utility.yul\":5049:5123   */\n  tag_35\n  jump\t// in\ntag_128:\n    /* \"#utility.yul\":5039:5123   */\n  swap6\n  pop\n    /* \"#utility.yul\":4841:5133   */\n  pop\n    /* \"#utility.yul\":5172:5175   */\n  0x80\n    /* \"#utility.yul\":5199:5263   */\n  tag_129\n    /* \"#utility.yul\":5255:5262   */\n  dup12\n    /* \"#utility.yul\":5246:5252   */\n  dup3\n    /* \"#utility.yul\":5235:5244   */\n  dup13\n    /* \"#utility.yul\":5231:5253   */\n  add\n    /* \"#utility.yul\":5199:5263   */\n  tag_38\n  jump\t// in\ntag_129:\n    /* \"#utility.yul\":5189:5263   */\n  swap5\n  pop\n    /* \"#utility.yul\":5143:5273   */\n  pop\n    /* \"#utility.yul\":5312:5315   */\n  0xa0\n    /* \"#utility.yul\":5339:5403   */\n  tag_130\n    /* \"#utility.yul\":5395:5402   */\n  dup12\n    /* \"#utility.yul\":5386:5392   */\n  dup3\n    /* \"#utility.yul\":5375:5384   */\n  dup13\n    /* \"#utility.yul\":5371:5393   */\n  add\n    /* \"#utility.yul\":5339:5403   */\n  tag_38\n  jump\t// in\ntag_130:\n    /* \"#utility.yul\":5329:5403   */\n  swap4\n  pop\n    /* \"#utility.yul\":5283:5413   */\n  pop\n    /* \"#utility.yul\":5452:5455   */\n  0xc0\n    /* \"#utility.yul\":5479:5543   */\n  tag_131\n    /* \"#utility.yul\":5535:5542   */\n  dup12\n    /* \"#utility.yul\":5526:5532   */\n  dup3\n    /* \"#utility.yul\":5515:5524   */\n  dup13\n    /* \"#utility.yul\":5511:5533   */\n  add\n    /* \"#utility.yul\":5479:5543   */\n  tag_38\n  jump\t// in\ntag_131:\n    /* \"#utility.yul\":5469:5543   */\n  swap3\n  pop\n    /* \"#utility.yul\":5423:5553   */\n  pop\n    /* \"#utility.yul\":5592:5595   */\n  0xe0\n    /* \"#utility.yul\":5619:5680   */\n  tag_132\n    /* \"#utility.yul\":5672:5679   */\n  dup12\n    /* \"#utility.yul\":5663:5669   */\n  dup3\n    /* \"#utility.yul\":5652:5661   */\n  dup13\n    /* \"#utility.yul\":5648:5670   */\n  add\n    /* \"#utility.yul\":5619:5680   */\n  tag_41\n  jump\t// in\ntag_132:\n    /* \"#utility.yul\":5609:5680   */\n  swap2\n  pop\n    /* \"#utility.yul\":5563:5690   */\n  pop\n    /* \"#utility.yul\":3909:5697   */\n  swap3\n  swap6\n  swap9\n  pop\n  swap3\n  swap6\n  swap9\n  swap1\n  swap4\n  swap7\n  pop\n  jump\t// out\n    /* \"#utility.yul\":5703:5883   */\ntag_42:\n    /* \"#utility.yul\":5751:5828   */\n  0x4e487b7100000000000000000000000000000000000000000000000000000000\n    /* \"#utility.yul\":5748:5749   */\n  0x00\n    /* \"#utility.yul\":5741:5829   */\n  mstore\n    /* \"#utility.yul\":5848:5852   */\n  0x11\n    /* \"#utility.yul\":5845:5846   */\n  0x04\n    /* \"#utility.yul\":5838:5853   */\n  mstore\n    /* \"#utility.yul\":5872:5876   */\n  0x24\n    /* \"#utility.yul\":5869:5870   */\n  0x00\n    /* \"#utility.yul\":5862:5877   */\n  revert\n    /* \"#utility.yul\":5889:6083   */\ntag_7:\n    /* \"#utility.yul\":5929:5933   */\n  0x00\n    /* \"#utility.yul\":5949:5969   */\n  tag_135\n    /* \"#utility.yul\":5967:5968   */\n  dup3\n    /* \"#utility.yul\":5949:5969   */\n  tag_36\n  jump\t// in\ntag_135:\n    /* \"#utility.yul\":5944:5969   */\n  swap2\n  pop\n    /* \"#utility.yul\":5983:6003   */\n  tag_136\n    /* \"#utility.yul\":6001:6002   */\n  dup4\n    /* \"#utility.yul\":5983:6003   */\n  tag_36\n  jump\t// in\ntag_136:\n    /* \"#utility.yul\":5978:6003   */\n  swap3\n  pop\n    /* \"#utility.yul\":6027:6028   */\n  dup3\n    /* \"#utility.yul\":6024:6025   */\n  dup3\n    /* \"#utility.yul\":6020:6029   */\n  sub\n    /* \"#utility.yul\":6012:6029   */\n  swap1\n  pop\n    /* \"#utility.yul\":6051:6052   */\n  dup2\n    /* \"#utility.yul\":6045:6049   */\n  dup2\n    /* \"#utility.yul\":6042:6053   */\n  gt\n    /* \"#utility.yul\":6039:6076   */\n  iszero\n  tag_137\n  jumpi\n    /* \"#utility.yul\":6056:6074   */\n  tag_138\n  tag_42\n  jump\t// in\ntag_138:\n    /* \"#utility.yul\":6039:6076   */\ntag_137:\n    /* \"#utility.yul\":5889:6083   */\n  swap3\n  swap2\n  pop\n  pop\n  jump\t// out\n    /* \"#utility.yul\":6089:6188   */\ntag_43:\n    /* \"#utility.yul\":6141:6147   */\n  0x00\n    /* \"#utility.yul\":6175:6180   */\n  dup2\n    /* \"#utility.yul\":6169:6181   */\n  mload\n    /* \"#utility.yul\":6159:6181   */\n  swap1\n  pop\n    /* \"#utility.yul\":6089:6188   */\n  swap2\n  swap1\n  pop\n  jump\t// out\n    /* \"#utility.yul\":6194:6374   */\ntag_44:\n    /* \"#utility.yul\":6242:6319   */\n  0x4e487b7100000000000000000000000000000000000000000000000000000000\n    /* \"#utility.yul\":6239:6240   */\n  0x00\n    /* \"#utility.yul\":6232:6320   */\n  mstore\n    /* \"#utility.yul\":6339:6343   */\n  0x22\n    /* \"#utility.yul\":6336:6337   */\n  0x04\n    /* \"#utility.yul\":6329:6344   */\n  mstore\n    /* \"#utility.yul\":6363:6367   */\n  0x24\n    /* \"#utility.yul\":6360:6361   */\n  0x00\n    /* \"#utility.yul\":6353:6368   */\n  revert\n    /* \"#utility.yul\":6380:6700   */\ntag_45:\n    /* \"#utility.yul\":6424:6430   */\n  0x00\n    /* \"#utility.yul\":6461:6462   */\n  0x02\n    /* \"#utility.yul\":6455:6459   */\n  dup3\n    /* \"#utility.yul\":6451:6463   */\n  div\n    /* \"#utility.yul\":6441:6463   */\n  swap1\n  pop\n    /* \"#utility.yul\":6508:6509   */\n  0x01\n    /* \"#utility.yul\":6502:6506   */\n  dup3\n    /* \"#utility.yul\":6498:6510   */\n  and\n    /* \"#utility.yul\":6529:6547   */\n  dup1\n    /* \"#utility.yul\":6519:6600   */\n  tag_142\n  jumpi\n    /* \"#utility.yul\":6585:6589   */\n  0x7f\n    /* \"#utility.yul\":6577:6583   */\n  dup3\n    /* \"#utility.yul\":6573:6590   */\n  and\n    /* \"#utility.yul\":6563:6590   */\n  swap2\n  pop\n    /* \"#utility.yul\":6519:6600   */\ntag_142:\n    /* \"#utility.yul\":6647:6649   */\n  0x20\n    /* \"#utility.yul\":6639:6645   */\n  dup3\n    /* \"#utility.yul\":6636:6650   */\n  lt\n    /* \"#utility.yul\":6616:6634   */\n  dup2\n    /* \"#utility.yul\":6613:6651   */\n  sub\n    /* \"#utility.yul\":6610:6694   */\n  tag_143\n  jumpi\n    /* \"#utility.yul\":6666:6684   */\n  tag_144\n  tag_44\n  jump\t// in\ntag_144:\n    /* \"#utility.yul\":6610:6694   */\ntag_143:\n    /* \"#utility.yul\":6431:6700   */\n  pop\n    /* \"#utility.yul\":6380:6700   */\n  swap2\n  swap1\n  pop\n  jump\t// out\n    /* \"#utility.yul\":6706:6847   */\ntag_46:\n    /* \"#utility.yul\":6755:6759   */\n  0x00\n    /* \"#utility.yul\":6778:6781   */\n  dup2\n    /* \"#utility.yul\":6770:6781   */\n  swap1\n  pop\n    /* \"#utility.yul\":6801:6804   */\n  dup2\n    /* \"#utility.yul\":6798:6799   */\n  0x00\n    /* \"#utility.yul\":6791:6805   */\n  mstore\n    /* \"#utility.yul\":6835:6839   */\n  0x20\n    /* \"#utility.yul\":6832:6833   */\n  0x00\n    /* \"#utility.yul\":6822:6840   */\n  keccak256\n    /* \"#utility.yul\":6814:6840   */\n  swap1\n  pop\n    /* \"#utility.yul\":6706:6847   */\n  swap2\n  swap1\n  pop\n  jump\t// out\n    /* \"#utility.yul\":6853:6946   */\ntag_47:\n    /* \"#utility.yul\":6890:6896   */\n  0x00\n    /* \"#utility.yul\":6937:6939   */\n  0x20\n    /* \"#utility.yul\":6932:6934   */\n  0x1f\n    /* \"#utility.yul\":6925:6930   */\n  dup4\n    /* \"#utility.yul\":6921:6935   */\n  add\n    /* \"#utility.yul\":6917:6940   */\n  div\n    /* \"#utility.yul\":6907:6940   */\n  swap1\n  pop\n    /* \"#utility.yul\":6853:6946   */\n  swap2\n  swap1\n  pop\n  jump\t// out\n    /* \"#utility.yul\":6952:7059   */\ntag_48:\n    /* \"#utility.yul\":6996:7004   */\n  0x00\n    /* \"#utility.yul\":7046:7051   */\n  dup3\n    /* \"#utility.yul\":7040:7044   */\n  dup3\n    /* \"#utility.yul\":7036:7052   */\n  shl\n    /* \"#utility.yul\":7015:7052   */\n  swap1\n  pop\n    /* \"#utility.yul\":6952:7059   */\n  swap3\n  swap2\n  pop\n  pop\n  jump\t// out\n    /* \"#utility.yul\":7065:7458   */\ntag_49:\n    /* \"#utility.yul\":7134:7140   */\n  0x00\n    /* \"#utility.yul\":7184:7185   */\n  0x08\n    /* \"#utility.yul\":7172:7182   */\n  dup4\n    /* \"#utility.yul\":7168:7186   */\n  mul\n    /* \"#utility.yul\":7207:7304   */\n  tag_149\n    /* \"#utility.yul\":7237:7303   */\n  0xffffffffffffffffffffffffffffffffffffffffffffffffffffffffffffffff\n    /* \"#utility.yul\":7226:7235   */\n  dup3\n    /* \"#utility.yul\":7207:7304   */\n  tag_48\n  jump\t// in\ntag_149:\n    /* \"#utility.yul\":7325:7364   */\n  tag_150\n    /* \"#utility.yul\":7355:7363   */\n  dup7\n    /* \"#utility.yul\":7344:7353   */\n  dup4\n    /* \"#utility.yul\":7325:7364   */\n  tag_48\n  jump\t// in\ntag_150:\n    /* \"#utility.yul\":7313:7364   */\n  swap6\n  pop\n    /* \"#utility.yul\":7397:7401   */\n  dup1\n    /* \"#utility.yul\":7393:7402   */\n  not\n    /* \"#utility.yul\":7386:7391   */\n  dup5\n    /* \"#utility.yul\":7382:7403   */\n  and\n    /* \"#utility.yul\":7373:7403   */\n  swap4\n  pop\n    /* \"#utility.yul\":7446:7450   */\n  dup1\n    /* \"#utility.yul\":7436:7444   */\n  dup7\n    /* \"#utility.yul\":7432:7451   */\n  and\n    /* \"#utility.yul\":7425:7430   */\n  dup5\n    /* \"#utility.yul\":7422:7452   */\n  or\n    /* \"#utility.yul\":7412:7452   */\n  swap3\n  pop\n    /* \"#utility.yul\":7141:7458   */\n  pop\n  pop\n    /* \"#utility.yul\":7065:7458   */\n  swap4\n  swap3\n  pop\n  pop\n  pop\n  jump\t// out\n    /* \"#utility.yul\":7464:7524   */\ntag_50:\n    /* \"#utility.yul\":7492:7495   */\n  0x00\n    /* \"#utility.yul\":7513:7518   */\n  dup2\n    /* \"#utility.yul\":7506:7518   */\n  swap1\n  pop\n    /* \"#utility.yul\":7464:7524   */\n  swap2\n  swap1\n  pop\n  jump\t// out\n    /* \"#utility.yul\":7530:7672   */\ntag_51:\n    /* \"#utility.yul\":7580:7589   */\n  0x00\n    /* \"#utility.yul\":7613:7666   */\n  tag_153\n    /* \"#utility.yul\":7631:7665   */\n  tag_154\n    /* \"#utility.yul\":7640:7664   */\n  tag_155\n    /* \"#utility.yul\":7658:7663   */\n  dup5\n    /* \"#utility.yul\":7640:7664   */\n  tag_36\n  jump\t// in\ntag_155:\n    /* \"#utility.yul\":7631:7665   */\n  tag_50\n  jump\t// in\ntag_154:\n    /* \"#utility.yul\":7613:7666   */\n  tag_36\n  jump\t// in\ntag_153:\n    /* \"#utility.yul\":7600:7666   */\n  swap1\n  pop\n    /* \"#utility.yul\":7530:7672   */\n  swap2\n  swap1\n  pop\n  jump\t// out\n    /* \"#utility.yul\":7678:7753   */\ntag_52:\n    /* \"#utility.yul\":7721:7724   */\n  0x00\n    /* \"#utility.yul\":7742:7747   */\n  dup2\n    /* \"#utility.yul\":7735:7747   */\n  swap1\n  pop\n    /* \"#utility.yul\":7678:7753   */\n  swap2\n  swap1\n  pop\n  jump\t// out\n    /* \"#utility.yul\":7759:8028   */\ntag_53:\n    /* \"#utility.yul\":7869:7908   */\n  tag_158\n    /* \"#utility.yul\":7900:7907   */\n  dup4\n    /* \"#utility.yul\":7869:7908   */\n  tag_51\n  jump\t// in\ntag_158:\n    /* \"#utility.yul\":7930:8021   */\n  tag_159\n    /* \"#utility.yul\":7979:8020   */\n  tag_160\n    /* \"#utility.yul\":8003:8019   */\n  dup3\n    /* \"#utility.yul\":7979:8020   */\n  tag_52\n  jump\t// in\ntag_160:\n    /* \"#utility.yul\":7971:7977   */\n  dup5\n    /* \"#utility.yul\":7964:7968   */\n  dup5\n    /* \"#utility.yul\":7958:7969   */\n  sload\n    /* \"#utility.yul\":7930:8021   */\n  tag_49\n  jump\t// in\ntag_159:\n    /* \"#utility.yul\":7924:7928   */\n  dup3\n    /* \"#utility.yul\":7917:8022   */\n  sstore\n    /* \"#utility.yul\":7835:8028   */\n  pop\n    /* \"#utility.yul\":7759:8028   */\n  pop\n  pop\n  pop\n  jump\t// out\n    /* \"#utility.yul\":8034:8107   */\ntag_54:\n    /* \"#utility.yul\":8079:8082   */\n  0x00\n    /* \"#utility.yul\":8034:8107   */\n  swap1\n  jump\t// out\n    /* \"#utility.yul\":8113:8302   */\ntag_55:\n    /* \"#utility.yul\":8190:8222   */\n  tag_163\n  tag_54\n  jump\t// in\ntag_163:\n    /* \"#utility.yul\":8231:8296   */\n  tag_164\n    /* \"#utility.yul\":8289:8295   */\n  dup2\n    /* \"#utility.yul\":8281:8287   */\n  dup5\n    /* \"#utility.yul\":8275:8279   */\n  dup5\n    /* \"#utility.yul\":8231:8296   */\n  tag_53\n  jump\t// in\ntag_164:\n    /* \"#utility.yul\":8166:8302   */\n  pop\n    /* \"#utility.yul\":8113:8302   */\n  pop\n  pop\n  jump\t// out\n    /* \"#utility.yul\":8308:8494   */\ntag_56:\n    /* \"#utility.yul\":8368:8488   */\ntag_166:\n    /* \"#utility.yul\":8385:8388   */\n  dup2\n    /* \"#utility.yul\":8378:8383   */\n  dup2\n    /* \"#utility.yul\":8375:8389   */\n  lt\n    /* \"#utility.yul\":8368:8488   */\n  iszero\n  tag_168\n  jumpi\n    /* \"#utility.yul\":8439:8478   */\n  tag_169\n    /* \"#utility.yul\":8476:8477   */\n  0x00\n    /* \"#utility.yul\":8469:8474   */\n  dup3\n    /* \"#utility.yul\":8439:8478   */\n  tag_55\n  jump\t// in\ntag_169:\n    /* \"#utility.yul\":8412:8413   */\n  0x01\n    /* \"#utility.yul\":8405:8410   */\n  dup2\n    /* \"#utility.yul\":8401:8414   */\n  add\n    /* \"#utility.yul\":8392:8414   */\n  swap1\n  pop\n    /* \"#utility.yul\":8368:8488   */\n  jump(tag_166)\ntag_168:\n    /* \"#utility.yul\":8308:8494   */\n  pop\n  pop\n  jump\t// out\n    /* \"#utility.yul\":8500:9043   */\ntag_57:\n    /* \"#utility.yul\":8601:8603   */\n  0x1f\n    /* \"#utility.yul\":8596:8599   */\n  dup3\n    /* \"#utility.yul\":8593:8604   */\n  gt\n    /* \"#utility.yul\":8590:9036   */\n  iszero\n  tag_171\n  jumpi\n    /* \"#utility.yul\":8635:8673   */\n  tag_172\n    /* \"#utility.yul\":8667:8672   */\n  dup2\n    /* \"#utility.yul\":8635:8673   */\n  tag_46\n  jump\t// in\ntag_172:\n    /* \"#utility.yul\":8719:8748   */\n  tag_173\n    /* \"#utility.yul\":8737:8747   */\n  dup5\n    /* \"#utility.yul\":8719:8748   */\n  tag_47\n  jump\t// in\ntag_173:\n    /* \"#utility.yul\":8709:8717   */\n  dup2\n    /* \"#utility.yul\":8705:8749   */\n  add\n    /* \"#utility.yul\":8902:8904   */\n  0x20\n    /* \"#utility.yul\":8890:8900   */\n  dup6\n    /* \"#utility.yul\":8887:8905   */\n  lt\n    /* \"#utility.yul\":8884:8933   */\n  iszero\n  tag_174\n  jumpi\n    /* \"#utility.yul\":8923:8931   */\n  dup2\n    /* \"#utility.yul\":8908:8931   */\n  swap1\n  pop\n    /* \"#utility.yul\":8884:8933   */\ntag_174:\n    /* \"#utility.yul\":8946:9026   */\n  tag_175\n    /* \"#utility.yul\":9002:9024   */\n  tag_176\n    /* \"#utility.yul\":9020:9023   */\n  dup6\n    /* \"#utility.yul\":9002:9024   */\n  tag_47\n  jump\t// in\ntag_176:\n    /* \"#utility.yul\":8992:9000   */\n  dup4\n    /* \"#utility.yul\":8988:9025   */\n  add\n    /* \"#utility.yul\":8975:8986   */\n  dup3\n    /* \"#utility.yul\":8946:9026   */\n  tag_56\n  jump\t// in\ntag_175:\n    /* \"#utility.yul\":8605:9036   */\n  pop\n  pop\n    /* \"#utility.yul\":8590:9036   */\ntag_171:\n    /* \"#utility.yul\":8500:9043   */\n  pop\n  pop\n  pop\n  jump\t// out\n    /* \"#utility.yul\":9049:9166   */\ntag_58:\n    /* \"#utility.yul\":9103:9111   */\n  0x00\n    /* \"#utility.yul\":9153:9158   */\n  dup3\n    /* \"#utility.yul\":9147:9151   */\n  dup3\n    /* \"#utility.yul\":9143:9159   */\n  shr\n    /* \"#utility.yul\":9122:9159   */\n  swap1\n  pop\n    /* \"#utility.yul\":9049:9166   */\n  swap3\n  swap2\n  pop\n  pop\n  jump\t// out\n    /* \"#utility.yul\":9172:9341   */\ntag_59:\n    /* \"#utility.yul\":9216:9222   */\n  0x00\n    /* \"#utility.yul\":9249:9300   */\n  tag_179\n    /* \"#utility.yul\":9297:9298   */\n  0x00\n    /* \"#utility.yul\":9293:9299   */\n  not\n    /* \"#utility.yul\":9285:9290   */\n  dup5\n    /* \"#utility.yul\":9282:9283   */\n  0x08\n    /* \"#utility.yul\":9278:9291   */\n  mul\n    /* \"#utility.yul\":9249:9300   */\n  tag_58\n  jump\t// in\ntag_179:\n    /* \"#utility.yul\":9245:9301   */\n  not\n    /* \"#utility.yul\":9330:9334   */\n  dup1\n    /* \"#utility.yul\":9324:9328   */\n  dup4\n    /* \"#utility.yul\":9320:9335   */\n  and\n    /* \"#utility.yul\":9310:9335   */\n  swap2\n  pop\n    /* \"#utility.yul\":9223:9341   */\n  pop\n    /* \"#utility.yul\":9172:9341   */\n  swap3\n  swap2\n  pop\n  pop\n  jump\t// out\n    /* \"#utility.yul\":9346:9641   */\ntag_60:\n    /* \"#utility.yul\":9422:9426   */\n  0x00\n    /* \"#utility.yul\":9568:9597   */\n  tag_181\n    /* \"#utility.yul\":9593:9596   */\n  dup4\n    /* \"#utility.yul\":9587:9591   */\n  dup4\n    /* \"#utility.yul\":9568:9597   */\n  tag_59\n  jump\t// in\ntag_181:\n    /* \"#utility.yul\":9560:9597   */\n  swap2\n  pop\n    /* \"#utility.yul\":9630:9633   */\n  dup3\n    /* \"#utility.yul\":9627:9628   */\n  0x02\n    /* \"#utility.yul\":9623:9634   */\n  mul\n    /* \"#utility.yul\":9617:9621   */\n  dup3\n    /* \"#utility.yul\":9614:9635   */\n  or\n    /* \"#utility.yul\":9606:9635   */\n  swap1\n  pop\n    /* \"#utility.yul\":9346:9641   */\n  swap3\n  swap2\n  pop\n  pop\n  jump\t// out\n    /* \"#utility.yul\":9646:11041   */\ntag_14:\n    /* \"#utility.yul\":9763:9800   */\n  tag_183\n    /* \"#utility.yul\":9796:9799   */\n  dup3\n    /* \"#utility.yul\":9763:9800   */\n  tag_43\n  jump\t// in\ntag_183:\n    /* \"#utility.yul\":9865:9883   */\n  0xffffffffffffffff\n    /* \"#utility.yul\":9857:9863   */\n  dup2\n    /* \"#utility.yul\":9854:9884   */\n  gt\n    /* \"#utility.yul\":9851:9907   */\n  iszero\n  tag_184\n  jumpi\n    /* \"#utility.yul\":9887:9905   */\n  tag_185\n  tag_29\n  jump\t// in\ntag_185:\n    /* \"#utility.yul\":9851:9907   */\ntag_184:\n    /* \"#utility.yul\":9931:9969   */\n  tag_186\n    /* \"#utility.yul\":9963:9967   */\n  dup3\n    /* \"#utility.yul\":9957:9968   */\n  sload\n    /* \"#utility.yul\":9931:9969   */\n  tag_45\n  jump\t// in\ntag_186:\n    /* \"#utility.yul\":10016:10083   */\n  tag_187\n    /* \"#utility.yul\":10076:10082   */\n  dup3\n    /* \"#utility.yul\":10068:10074   */\n  dup3\n    /* \"#utility.yul\":10062:10066   */\n  dup6\n    /* \"#utility.yul\":10016:10083   */\n  tag_57\n  jump\t// in\ntag_187:\n    /* \"#utility.yul\":10110:10111   */\n  0x00\n    /* \"#utility.yul\":10134:10138   */\n  0x20\n    /* \"#utility.yul\":10121:10138   */\n  swap1\n  pop\n    /* \"#utility.yul\":10166:10168   */\n  0x1f\n    /* \"#utility.yul\":10158:10164   */\n  dup4\n    /* \"#utility.yul\":10155:10169   */\n  gt\n    /* \"#utility.yul\":10183:10184   */\n  0x01\n    /* \"#utility.yul\":10178:10796   */\n  dup2\n  eq\n  tag_189\n  jumpi\n    /* \"#utility.yul\":10840:10841   */\n  0x00\n    /* \"#utility.yul\":10857:10863   */\n  dup5\n    /* \"#utility.yul\":10854:10931   */\n  iszero\n  tag_190\n  jumpi\n    /* \"#utility.yul\":10906:10915   */\n  dup3\n    /* \"#utility.yul\":10901:10904   */\n  dup8\n    /* \"#utility.yul\":10897:10916   */\n  add\n    /* \"#utility.yul\":10891:10917   */\n  mload\n    /* \"#utility.yul\":10882:10917   */\n  swap1\n  pop\n    /* \"#utility.yul\":10854:10931   */\ntag_190:\n    /* \"#utility.yul\":10957:11024   */\n  tag_191\n    /* \"#utility.yul\":11017:11023   */\n  dup6\n    /* \"#utility.yul\":11010:11015   */\n  dup3\n    /* \"#utility.yul\":10957:11024   */\n  tag_60\n  jump\t// in\ntag_191:\n    /* \"#utility.yul\":10951:10955   */\n  dup7\n    /* \"#utility.yul\":10944:11025   */\n  sstore\n    /* \"#utility.yul\":10813:11035   */\n  pop\n    /* \"#utility.yul\":10148:11035   */\n  jump(tag_188)\n    /* \"#utility.yul\":10178:10796   */\ntag_189:\n    /* \"#utility.yul\":10230:10234   */\n  0x1f\n    /* \"#utility.yul\":10226:10235   */\n  not\n    /* \"#utility.yul\":10218:10224   */\n  dup5\n    /* \"#utility.yul\":10214:10236   */\n  and\n    /* \"#utility.yul\":10264:10301   */\n  tag_192\n    /* \"#utility.yul\":10296:10300   */\n  dup7\n    /* \"#utility.yul\":10264:10301   */\n  tag_46\n  jump\t// in\ntag_192:\n    /* \"#utility.yul\":10323:10324   */\n  0x00\n    /* \"#utility.yul\":10337:10545   */\ntag_193:\n    /* \"#utility.yul\":10351:10358   */\n  dup3\n    /* \"#utility.yul\":10348:10349   */\n  dup2\n    /* \"#utility.yul\":10345:10359   */\n  lt\n    /* \"#utility.yul\":10337:10545   */\n  iszero\n  tag_195\n  jumpi\n    /* \"#utility.yul\":10430:10439   */\n  dup5\n    /* \"#utility.yul\":10425:10428   */\n  dup10\n    /* \"#utility.yul\":10421:10440   */\n  add\n    /* \"#utility.yul\":10415:10441   */\n  mload\n    /* \"#utility.yul\":10407:10413   */\n  dup3\n    /* \"#utility.yul\":10400:10442   */\n  sstore\n    /* \"#utility.yul\":10481:10482   */\n  0x01\n    /* \"#utility.yul\":10473:10479   */\n  dup3\n    /* \"#utility.yul\":10469:10483   */\n  add\n    /* \"#utility.yul\":10459:10483   */\n  swap2\n  pop\n    /* \"#utility.yul\":10528:10530   */\n  0x20\n    /* \"#utility.yul\":10517:10526   */\n  dup6\n    /* \"#utility.yul\":10513:10531   */\n  add\n    /* \"#utility.yul\":10500:10531   */\n  swap5\n  pop\n    /* \"#utility.yul\":10374:10378   */\n  0x20\n    /* \"#utility.yul\":10371:10372   */\n  dup2\n    /* \"#utility.yul\":10367:10379   */\n  add\n    /* \"#utility.yul\":10362:10379   */\n  swap1\n  pop\n    /* \"#utility.yul\":10337:10545   */\n  jump(tag_193)\ntag_195:\n    /* \"#utility.yul\":10573:10579   */\n  dup7\n    /* \"#utility.yul\":10564:10571   */\n  dup4\n    /* \"#utility.yul\":10561:10580   */\n  lt\n    /* \"#utility.yul\":10558:10737   */\n  iszero\n  tag_196\n  jumpi\n    /* \"#utility.yul\":10631:10640   */\n  dup5\n    /* \"#utility.yul\":10626:10629   */\n  dup10\n    /* \"#utility.yul\":10622:10641   */\n  add\n    /* \"#utility.yul\":10616:10642   */\n  mload\n    /* \"#utility.yul\":10674:10722   */\n  tag_197\n    /* \"#utility.yul\":10716:10720   */\n  0x1f\n    /* \"#utility.yul\":10708:10714   */\n  dup10\n    /* \"#utility.yul\":10704:10721   */\n  and\n    /* \"#utility.yul\":10693:10702   */\n  dup3\n    /* \"#utility.yul\":10674:10722   */\n  tag_59\n  jump\t// in\ntag_197:\n    /* \"#utility.yul\":10666:10672   */\n  dup4\n    /* \"#utility.yul\":10659:10723   */\n  sstore\n    /* \"#utility.yul\":10581:10737   */\n  pop\n    /* \"#utility.yul\":10558:10737   */\ntag_196:\n    /* \"#utility.yul\":10783:10784   */\n  0x01\n    /* \"#utility.yul\":10779:10780   */\n  0x02\n    /* \"#utility.yul\":10771:10777   */\n  dup9\n    /* \"#utility.yul\":10767:10781   */\n  mul\n    /* \"#utility.yul\":10763:10785   */\n  add\n    /* \"#utility.yul\":10757:10761   */\n  dup9\n    /* \"#utility.yul\":10750:10786   */\n  sstore\n    /* \"#utility.yul\":10185:10796   */\n  pop\n  pop\n  pop\n    /* \"#utility.yul\":10148:11035   */\ntag_188:\n  pop\n    /* \"#utility.yul\":9738:11041   */\n  pop\n  pop\n  pop\n    /* \"#utility.yul\":9646:11041   */\n  pop\n  pop\n  jump\t// out\n    /* \"#utility.yul\":11047:11216   */\ntag_61:\n    /* \"#utility.yul\":11131:11142   */\n  0x00\n    /* \"#utility.yul\":11165:11171   */\n  dup3\n    /* \"#utility.yul\":11160:11163   */\n  dup3\n    /* \"#utility.yul\":11153:11172   */\n  mstore\n    /* \"#utility.yul\":11205:11209   */\n  0x20\n    /* \"#utility.yul\":11200:11203   */\n  dup3\n    /* \"#utility.yul\":11196:11210   */\n  add\n    /* \"#utility.yul\":11181:11210   */\n  swap1\n  pop\n    /* \"#utility.yul\":11047:11216   */\n  swap3\n  swap2\n  pop\n  pop\n  jump\t// out\n    /* \"#utility.yul\":11222:11599   */\ntag_62:\n    /* \"#utility.yul\":11310:11313   */\n  0x00\n    /* \"#utility.yul\":11338:11377   */\n  tag_200\n    /* \"#utility.yul\":11371:11376   */\n  dup3\n    /* \"#utility.yul\":11338:11377   */\n  tag_43\n  jump\t// in\ntag_200:\n    /* \"#utility.yul\":11393:11464   */\n  tag_201\n    /* \"#utility.yul\":11457:11463   */\n  dup2\n    /* \"#utility.yul\":11452:11455   */\n  dup6\n    /* \"#utility.yul\":11393:11464   */\n  tag_61\n  jump\t// in\ntag_201:\n    /* \"#utility.yul\":11386:11464   */\n  swap4\n  pop\n    /* \"#utility.yul\":11473:11538   */\n  tag_202\n    /* \"#utility.yul\":11531:11537   */\n  dup2\n    /* \"#utility.yul\":11526:11529   */\n  dup6\n    /* \"#utility.yul\":11519:11523   */\n  0x20\n    /* \"#utility.yul\":11512:11517   */\n  dup7\n    /* \"#utility.yul\":11508:11524   */\n  add\n    /* \"#utility.yul\":11473:11538   */\n  tag_33\n  jump\t// in\ntag_202:\n    /* \"#utility.yul\":11563:11592   */\n  tag_203\n    /* \"#utility.yul\":11585:11591   */\n  dup2\n    /* \"#utility.yul\":11563:11592   */\n  tag_28\n  jump\t// in\ntag_203:\n    /* \"#utility.yul\":11558:11561   */\n  dup5\n    /* \"#utility.yul\":11554:11593   */\n  add\n    /* \"#utility.yul\":11547:11593   */\n  swap2\n  pop\n    /* \"#utility.yul\":11314:11599   */\n  pop\n    /* \"#utility.yul\":11222:11599   */\n  swap3\n  swap2\n  pop\n  pop\n  jump\t// out\n    /* \"#utility.yul\":11605:11723   */\ntag_63:\n    /* \"#utility.yul\":11692:11716   */\n  tag_205\n    /* \"#utility.yul\":11710:11715   */\n  dup2\n    /* \"#utility.yul\":11692:11716   */\n  tag_36\n  jump\t// in\ntag_205:\n    /* \"#utility.yul\":11687:11690   */\n  dup3\n    /* \"#utility.yul\":11680:11717   */\n  mstore\n    /* \"#utility.yul\":11605:11723   */\n  pop\n  pop\n  jump\t// out\n    /* \"#utility.yul\":11729:11838   */\ntag_64:\n    /* \"#utility.yul\":11810:11831   */\n  tag_207\n    /* \"#utility.yul\":11825:11830   */\n  dup2\n    /* \"#utility.yul\":11810:11831   */\n  tag_39\n  jump\t// in\ntag_207:\n    /* \"#utility.yul\":11805:11808   */\n  dup3\n    /* \"#utility.yul\":11798:11832   */\n  mstore\n    /* \"#utility.yul\":11729:11838   */\n  pop\n  pop\n  jump\t// out\n    /* \"#utility.yul\":11844:12900   */\ntag_17:\n    /* \"#utility.yul\":12139:12143   */\n  0x00\n    /* \"#utility.yul\":12177:12180   */\n  0xe0\n    /* \"#utility.yul\":12166:12175   */\n  dup3\n    /* \"#utility.yul\":12162:12181   */\n  add\n    /* \"#utility.yul\":12154:12181   */\n  swap1\n  pop\n    /* \"#utility.yul\":12227:12236   */\n  dup2\n    /* \"#utility.yul\":12221:12225   */\n  dup2\n    /* \"#utility.yul\":12217:12237   */\n  sub\n    /* \"#utility.yul\":12213:12214   */\n  0x00\n    /* \"#utility.yul\":12202:12211   */\n  dup4\n    /* \"#utility.yul\":12198:12215   */\n  add\n    /* \"#utility.yul\":12191:12238   */\n  mstore\n    /* \"#utility.yul\":12255:12333   */\n  tag_209\n    /* \"#utility.yul\":12328:12332   */\n  dup2\n    /* \"#utility.yul\":12319:12325   */\n  dup11\n    /* \"#utility.yul\":12255:12333   */\n  tag_62\n  jump\t// in\ntag_209:\n    /* \"#utility.yul\":12247:12333   */\n  swap1\n  pop\n    /* \"#utility.yul\":12380:12389   */\n  dup2\n    /* \"#utility.yul\":12374:12378   */\n  dup2\n    /* \"#utility.yul\":12370:12390   */\n  sub\n    /* \"#utility.yul\":12365:12367   */\n  0x20\n    /* \"#utility.yul\":12354:12363   */\n  dup4\n    /* \"#utility.yul\":12350:12368   */\n  add\n    /* \"#utility.yul\":12343:12391   */\n  mstore\n    /* \"#utility.yul\":12408:12486   */\n  tag_210\n    /* \"#utility.yul\":12481:12485   */\n  dup2\n    /* \"#utility.yul\":12472:12478   */\n  dup10\n    /* \"#utility.yul\":12408:12486   */\n  tag_62\n  jump\t// in\ntag_210:\n    /* \"#utility.yul\":12400:12486   */\n  swap1\n  pop\n    /* \"#utility.yul\":12496:12568   */\n  tag_211\n    /* \"#utility.yul\":12564:12566   */\n  0x40\n    /* \"#utility.yul\":12553:12562   */\n  dup4\n    /* \"#utility.yul\":12549:12567   */\n  add\n    /* \"#utility.yul\":12540:12546   */\n  dup9\n    /* \"#utility.yul\":12496:12568   */\n  tag_63\n  jump\t// in\ntag_211:\n    /* \"#utility.yul\":12578:12650   */\n  tag_212\n    /* \"#utility.yul\":12646:12648   */\n  0x60\n    /* \"#utility.yul\":12635:12644   */\n  dup4\n    /* \"#utility.yul\":12631:12649   */\n  add\n    /* \"#utility.yul\":12622:12628   */\n  dup8\n    /* \"#utility.yul\":12578:12650   */\n  tag_63\n  jump\t// in\ntag_212:\n    /* \"#utility.yul\":12660:12733   */\n  tag_213\n    /* \"#utility.yul\":12728:12731   */\n  0x80\n    /* \"#utility.yul\":12717:12726   */\n  dup4\n    /* \"#utility.yul\":12713:12732   */\n  add\n    /* \"#utility.yul\":12704:12710   */\n  dup7\n    /* \"#utility.yul\":12660:12733   */\n  tag_63\n  jump\t// in\ntag_213:\n    /* \"#utility.yul\":12743:12816   */\n  tag_214\n    /* \"#utility.yul\":12811:12814   */\n  0xa0\n    /* \"#utility.yul\":12800:12809   */\n  dup4\n    /* \"#utility.yul\":12796:12815   */\n  add\n    /* \"#utility.yul\":12787:12793   */\n  dup6\n    /* \"#utility.yul\":12743:12816   */\n  tag_63\n  jump\t// in\ntag_214:\n    /* \"#utility.yul\":12826:12893   */\n  tag_215\n    /* \"#utility.yul\":12888:12891   */\n  0xc0\n    /* \"#utility.yul\":12877:12886   */\n  dup4\n    /* \"#utility.yul\":12873:12892   */\n  add\n    /* \"#utility.yul\":12864:12870   */\n  dup5\n    /* \"#utility.yul\":12826:12893   */\n  tag_64\n  jump\t// in\ntag_215:\n    /* \"#utility.yul\":11844:12900   */\n  swap9\n  swap8\n  pop\n  pop\n  pop\n  pop\n  pop\n  pop\n  pop\n  pop\n  jump\t// out\n    /* \"blockchain/contracts/Polygon/Pool/Prototype/pool/state.sol\":910:3961  contract State is IState, Safety, Authenticator {... */\ntag_18:\n  dataSize(sub_0)\n  dup1\n  dataOffset(sub_0)\n  0x00\n  codecopy\n  0x00\n  return\nstop\n\nsub_0: assembly {\n        /* \"blockchain/contracts/Polygon/Pool/Prototype/pool/state.sol\":910:3961  contract State is IState, Safety, Authenticator {... */\n      mstore(0x40, 0x80)\n      jumpi(tag_1, lt(calldatasize, 0x04))\n      shr(0xe0, calldataload(0x00))\n      dup1\n      0x0923fe94\n      eq\n      tag_3\n      jumpi\n      dup1\n      0x24a5af31\n      eq\n      tag_4\n      jumpi\n      dup1\n      0x2e1a7d4d\n      eq\n      tag_5\n      jumpi\n      dup1\n      0x90b410af\n      eq\n      tag_6\n      jumpi\n      dup1\n      0xb9761101\n      eq\n      tag_7\n      jumpi\n      dup1\n      0xdd12776a\n      eq\n      tag_8\n      jumpi\n      jump(tag_2)\n    tag_1:\n      jumpi(tag_2, calldatasize)\n        /* \"blockchain/contracts/Polygon/Pool/Prototype/pool/authenticator.sol\":233:238  admin */\n      0x00\n      0x01\n      swap1\n      sload\n      swap1\n      0x0100\n      exp\n      swap1\n      div\n      0xffffffffffffffffffffffffffffffffffffffff\n      and\n        /* \"blockchain/contracts/Polygon/Pool/Prototype/pool/authenticator.sol\":219:238  msg.sender == admin */\n      0xffffffffffffffffffffffffffffffffffffffff\n      and\n        /* \"blockchain/contracts/Polygon/Pool/Prototype/pool/authenticator.sol\":219:229  msg.sender */\n      caller\n        /* \"blockchain/contracts/Polygon/Pool/Prototype/pool/authenticator.sol\":219:238  msg.sender == admin */\n      0xffffffffffffffffffffffffffffffffffffffff\n      and\n      eq\n        /* \"blockchain/contracts/Polygon/Pool/Prototype/pool/authenticator.sol\":210:240  require( msg.sender == admin ) */\n      tag_11\n      jumpi\n      0x00\n      dup1\n      revert\n    tag_11:\n        /* \"blockchain/contracts/Polygon/Pool/Prototype/pool/state.sol\":2777:2790  address _from */\n      0x00\n        /* \"blockchain/contracts/Polygon/Pool/Prototype/pool/state.sol\":2793:2803  msg.sender */\n      caller\n        /* \"blockchain/contracts/Polygon/Pool/Prototype/pool/state.sol\":2777:2803  address _from = msg.sender */\n      swap1\n      pop\n        /* \"blockchain/contracts/Polygon/Pool/Prototype/pool/state.sol\":2813:2827  uint256 _value */\n      0x00\n        /* \"blockchain/contracts/Polygon/Pool/Prototype/pool/state.sol\":2830:2839  msg.value */\n      callvalue\n        /* \"blockchain/contracts/Polygon/Pool/Prototype/pool/state.sol\":2813:2839  uint256 _value = msg.value */\n      swap1\n      pop\n        /* \"blockchain/contracts/Polygon/Pool/Prototype/pool/state.sol\":2855:2879  Deposit( _from, _value ) */\n      0xe1fffcc4923d04b559f4d29a8bfc6cda04eb5b0d3c460751c2402c5c5cc9109c\n        /* \"blockchain/contracts/Polygon/Pool/Prototype/pool/state.sol\":2864:2869  _from */\n      dup3\n        /* \"blockchain/contracts/Polygon/Pool/Prototype/pool/state.sol\":2871:2877  _value */\n      dup3\n        /* \"blockchain/contracts/Polygon/Pool/Prototype/pool/state.sol\":2855:2879  Deposit( _from, _value ) */\n      mload(0x40)\n      tag_13\n      swap3\n      swap2\n      swap1\n      tag_14\n      jump\t// in\n    tag_13:\n      mload(0x40)\n      dup1\n      swap2\n      sub\n      swap1\n      log1\n        /* \"blockchain/contracts/Polygon/Pool/Prototype/pool/state.sol\":2766:2887  {... */\n      stop\n        /* \"blockchain/contracts/Polygon/Pool/Prototype/pool/state.sol\":910:3961  contract State is IState, Safety, Authenticator {... */\n    tag_2:\n      0x00\n      dup1\n      revert\n        /* \"blockchain/contracts/Polygon/Pool/Prototype/pool/state.sol\":3310:3438  function persona_of( address _address ) public view returns ( Persona memory ) {... */\n    tag_3:\n      callvalue\n      dup1\n      iszero\n      tag_15\n      jumpi\n      0x00\n      dup1\n      revert\n    tag_15:\n      pop\n      tag_16\n      0x04\n      dup1\n      calldatasize\n      sub\n      dup2\n      add\n      swap1\n      tag_17\n      swap2\n      swap1\n      tag_18\n      jump\t// in\n    tag_17:\n      tag_19\n      jump\t// in\n    tag_16:\n      mload(0x40)\n      tag_20\n      swap2\n      swap1\n      tag_21\n      jump\t// in\n    tag_20:\n      mload(0x40)\n      dup1\n      swap2\n      sub\n      swap1\n      return\n        /* \"blockchain/contracts/Polygon/Pool/Prototype/pool/state.sol\":3082:3304  function withdraw_erc20( address _contract, uint256 _value ) public only_admin {... */\n    tag_4:\n      callvalue\n      dup1\n      iszero\n      tag_22\n      jumpi\n      0x00\n      dup1\n      revert\n    tag_22:\n      pop\n      tag_23\n      0x04\n      dup1\n      calldatasize\n      sub\n      dup2\n      add\n      swap1\n      tag_24\n      swap2\n      swap1\n      tag_25\n      jump\t// in\n    tag_24:\n      tag_26\n      jump\t// in\n    tag_23:\n      stop\n        /* \"blockchain/contracts/Polygon/Pool/Prototype/pool/state.sol\":2893:3076  function withdraw( uint256 _value ) public only_admin {... */\n    tag_5:\n      callvalue\n      dup1\n      iszero\n      tag_27\n      jumpi\n      0x00\n      dup1\n      revert\n    tag_27:\n      pop\n      tag_28\n      0x04\n      dup1\n      calldatasize\n      sub\n      dup2\n      add\n      swap1\n      tag_29\n      swap2\n      swap1\n      tag_30\n      jump\t// in\n    tag_29:\n      tag_31\n      jump\t// in\n    tag_28:\n      stop\n        /* \"blockchain/contracts/Polygon/Pool/Prototype/pool/state.sol\":3444:3611  function set_persona_of( address _address, Persona memory _new ) public only_admin returns ( bool ) {... */\n    tag_6:\n      callvalue\n      dup1\n      iszero\n      tag_32\n      jumpi\n      0x00\n      dup1\n      revert\n    tag_32:\n      pop\n      tag_33\n      0x04\n      dup1\n      calldatasize\n      sub\n      dup2\n      add\n      swap1\n      tag_34\n      swap2\n      swap1\n      tag_35\n      jump\t// in\n    tag_34:\n      tag_36\n      jump\t// in\n    tag_33:\n      mload(0x40)\n      tag_37\n      swap2\n      swap1\n      tag_38\n      jump\t// in\n    tag_37:\n      mload(0x40)\n      dup1\n      swap2\n      sub\n      swap1\n      return\n        /* \"blockchain/contracts/Polygon/Pool/Prototype/pool/state.sol\":3617:3737  function view_funding( uint256 _id ) public view returns ( Funding memory ) {... */\n    tag_7:\n      callvalue\n      dup1\n      iszero\n      tag_39\n      jumpi\n      0x00\n      dup1\n      revert\n    tag_39:\n      pop\n      tag_40\n      0x04\n      dup1\n      calldatasize\n      sub\n      dup2\n      add\n      swap1\n      tag_41\n      swap2\n      swap1\n      tag_30\n      jump\t// in\n    tag_41:\n      tag_42\n      jump\t// in\n    tag_40:\n      mload(0x40)\n      tag_43\n      swap2\n      swap1\n      tag_44\n      jump\t// in\n    tag_43:\n      mload(0x40)\n      dup1\n      swap2\n      sub\n      swap1\n      return\n        /* \"blockchain/contracts/Polygon/Pool/Prototype/pool/state.sol\":3743:3958  function set_funding( uint256 _id, Funding memory _new ) public only_admin returns ( bool ) {... */\n    tag_8:\n      callvalue\n      dup1\n      iszero\n      tag_45\n      jumpi\n      0x00\n      dup1\n      revert\n    tag_45:\n      pop\n      tag_46\n      0x04\n      dup1\n      calldatasize\n      sub\n      dup2\n      add\n      swap1\n      tag_47\n      swap2\n      swap1\n      tag_48\n      jump\t// in\n    tag_47:\n      tag_49\n      jump\t// in\n    tag_46:\n      mload(0x40)\n      tag_50\n      swap2\n      swap1\n      tag_38\n      jump\t// in\n    tag_50:\n      mload(0x40)\n      dup1\n      swap2\n      sub\n      swap1\n      return\n        /* \"blockchain/contracts/Polygon/Pool/Prototype/pool/state.sol\":3310:3438  function persona_of( address _address ) public view returns ( Persona memory ) {... */\n    tag_19:\n        /* \"blockchain/contracts/Polygon/Pool/Prototype/pool/state.sol\":3372:3386  Persona memory */\n      tag_51\n      tag_52\n      jump\t// in\n    tag_51:\n        /* \"blockchain/contracts/Polygon/Pool/Prototype/pool/state.sol\":3409:3416  persona */\n      0x06\n        /* \"blockchain/contracts/Polygon/Pool/Prototype/pool/state.sol\":3409:3428  persona[ _address ] */\n      0x00\n        /* \"blockchain/contracts/Polygon/Pool/Prototype/pool/state.sol\":3418:3426  _address */\n      dup4\n        /* \"blockchain/contracts/Polygon/Pool/Prototype/pool/state.sol\":3409:3428  persona[ _address ] */\n      0xffffffffffffffffffffffffffffffffffffffff\n      and\n      0xffffffffffffffffffffffffffffffffffffffff\n      and\n      dup2\n      mstore\n      0x20\n      add\n      swap1\n      dup2\n      mstore\n      0x20\n      add\n      0x00\n      keccak256\n        /* \"blockchain/contracts/Polygon/Pool/Prototype/pool/state.sol\":3400:3430  return ( persona[ _address ] ) */\n      mload(0x40)\n      dup1\n      0x20\n      add\n      0x40\n      mstore\n      swap1\n      dup2\n      0x00\n      dup3\n      add\n      0x00\n      swap1\n      sload\n      swap1\n      0x0100\n      exp\n      swap1\n      div\n      0xff\n      and\n      iszero\n      iszero\n      iszero\n      iszero\n      dup2\n      mstore\n      pop\n      pop\n      swap1\n      pop\n        /* \"blockchain/contracts/Polygon/Pool/Prototype/pool/state.sol\":3310:3438  function persona_of( address _address ) public view returns ( Persona memory ) {... */\n      swap2\n      swap1\n      pop\n      jump\t// out\n        /* \"blockchain/contracts/Polygon/Pool/Prototype/pool/state.sol\":3082:3304  function withdraw_erc20( address _contract, uint256 _value ) public only_admin {... */\n    tag_26:\n        /* \"blockchain/contracts/Polygon/Pool/Prototype/pool/authenticator.sol\":233:238  admin */\n      0x00\n      0x01\n      swap1\n      sload\n      swap1\n      0x0100\n      exp\n      swap1\n      div\n      0xffffffffffffffffffffffffffffffffffffffff\n      and\n        /* \"blockchain/contracts/Polygon/Pool/Prototype/pool/authenticator.sol\":219:238  msg.sender == admin */\n      0xffffffffffffffffffffffffffffffffffffffff\n      and\n        /* \"blockchain/contracts/Polygon/Pool/Prototype/pool/authenticator.sol\":219:229  msg.sender */\n      caller\n        /* \"blockchain/contracts/Polygon/Pool/Prototype/pool/authenticator.sol\":219:238  msg.sender == admin */\n      0xffffffffffffffffffffffffffffffffffffffff\n      and\n      eq\n        /* \"blockchain/contracts/Polygon/Pool/Prototype/pool/authenticator.sol\":210:240  require( msg.sender == admin ) */\n      tag_55\n      jumpi\n      0x00\n      dup1\n      revert\n    tag_55:\n        /* \"blockchain/contracts/Polygon/Pool/Prototype/pool/state.sol\":3172:3191  address payable _to */\n      0x00\n        /* \"blockchain/contracts/Polygon/Pool/Prototype/pool/state.sol\":3203:3208  admin */\n      dup1\n      0x01\n      swap1\n      sload\n      swap1\n      0x0100\n      exp\n      swap1\n      div\n      0xffffffffffffffffffffffffffffffffffffffff\n      and\n        /* \"blockchain/contracts/Polygon/Pool/Prototype/pool/state.sol\":3172:3210  address payable _to = payable( admin ) */\n      swap1\n      pop\n        /* \"blockchain/contracts/Polygon/Pool/Prototype/pool/state.sol\":3221:3234  IERC20 _token */\n      0x00\n        /* \"blockchain/contracts/Polygon/Pool/Prototype/pool/state.sol\":3245:3254  _contract */\n      dup4\n        /* \"blockchain/contracts/Polygon/Pool/Prototype/pool/state.sol\":3221:3256  IERC20 _token = IERC20( _contract ) */\n      swap1\n      pop\n        /* \"blockchain/contracts/Polygon/Pool/Prototype/pool/state.sol\":3266:3272  _token */\n      dup1\n        /* \"blockchain/contracts/Polygon/Pool/Prototype/pool/state.sol\":3266:3281  _token.transfer */\n      0xffffffffffffffffffffffffffffffffffffffff\n      and\n      0xa9059cbb\n        /* \"blockchain/contracts/Polygon/Pool/Prototype/pool/state.sol\":3283:3286  _to */\n      dup4\n        /* \"blockchain/contracts/Polygon/Pool/Prototype/pool/state.sol\":3288:3294  _value */\n      dup6\n        /* \"blockchain/contracts/Polygon/Pool/Prototype/pool/state.sol\":3266:3296  _token.transfer( _to, _value ) */\n      mload(0x40)\n      dup4\n      0xffffffff\n      and\n      0xe0\n      shl\n      dup2\n      mstore\n      0x04\n      add\n      tag_57\n      swap3\n      swap2\n      swap1\n      tag_58\n      jump\t// in\n    tag_57:\n      0x20\n      mload(0x40)\n      dup1\n      dup4\n      sub\n      dup2\n      0x00\n      dup8\n      gas\n      call\n      iszero\n      dup1\n      iszero\n      tag_60\n      jumpi\n      returndatasize\n      0x00\n      dup1\n      returndatacopy\n      revert(0x00, returndatasize)\n    tag_60:\n      pop\n      pop\n      pop\n      pop\n      mload(0x40)\n      returndatasize\n      not(0x1f)\n      0x1f\n      dup3\n      add\n      and\n      dup3\n      add\n      dup1\n      0x40\n      mstore\n      pop\n      dup2\n      add\n      swap1\n      tag_61\n      swap2\n      swap1\n      tag_62\n      jump\t// in\n    tag_61:\n      pop\n        /* \"blockchain/contracts/Polygon/Pool/Prototype/pool/state.sol\":3161:3304  {... */\n      pop\n      pop\n        /* \"blockchain/contracts/Polygon/Pool/Prototype/pool/state.sol\":3082:3304  function withdraw_erc20( address _contract, uint256 _value ) public only_admin {... */\n      pop\n      pop\n      jump\t// out\n        /* \"blockchain/contracts/Polygon/Pool/Prototype/pool/state.sol\":2893:3076  function withdraw( uint256 _value ) public only_admin {... */\n    tag_31:\n        /* \"blockchain/contracts/Polygon/Pool/Prototype/pool/authenticator.sol\":233:238  admin */\n      0x00\n      0x01\n      swap1\n      sload\n      swap1\n      0x0100\n      exp\n      swap1\n      div\n      0xffffffffffffffffffffffffffffffffffffffff\n      and\n        /* \"blockchain/contracts/Polygon/Pool/Prototype/pool/authenticator.sol\":219:238  msg.sender == admin */\n      0xffffffffffffffffffffffffffffffffffffffff\n      and\n        /* \"blockchain/contracts/Polygon/Pool/Prototype/pool/authenticator.sol\":219:229  msg.sender */\n      caller\n        /* \"blockchain/contracts/Polygon/Pool/Prototype/pool/authenticator.sol\":219:238  msg.sender == admin */\n      0xffffffffffffffffffffffffffffffffffffffff\n      and\n      eq\n        /* \"blockchain/contracts/Polygon/Pool/Prototype/pool/authenticator.sol\":210:240  require( msg.sender == admin ) */\n      tag_64\n      jumpi\n      0x00\n      dup1\n      revert\n    tag_64:\n        /* \"blockchain/contracts/Polygon/Pool/Prototype/pool/state.sol\":2958:2977  address payable _to */\n      0x00\n        /* \"blockchain/contracts/Polygon/Pool/Prototype/pool/state.sol\":2989:2994  admin */\n      dup1\n      0x01\n      swap1\n      sload\n      swap1\n      0x0100\n      exp\n      swap1\n      div\n      0xffffffffffffffffffffffffffffffffffffffff\n      and\n        /* \"blockchain/contracts/Polygon/Pool/Prototype/pool/state.sol\":2958:2996  address payable _to = payable( admin ) */\n      swap1\n      pop\n        /* \"blockchain/contracts/Polygon/Pool/Prototype/pool/state.sol\":3007:3010  _to */\n      dup1\n        /* \"blockchain/contracts/Polygon/Pool/Prototype/pool/state.sol\":3007:3019  _to.transfer */\n      0xffffffffffffffffffffffffffffffffffffffff\n      and\n        /* \"blockchain/contracts/Polygon/Pool/Prototype/pool/state.sol\":3007:3029  _to.transfer( _value ) */\n      0x08fc\n        /* \"blockchain/contracts/Polygon/Pool/Prototype/pool/state.sol\":3021:3027  _value */\n      dup4\n        /* \"blockchain/contracts/Polygon/Pool/Prototype/pool/state.sol\":3007:3029  _to.transfer( _value ) */\n      swap1\n      dup2\n      iszero\n      mul\n      swap1\n      mload(0x40)\n      0x00\n      mload(0x40)\n      dup1\n      dup4\n      sub\n      dup2\n      dup6\n      dup9\n      dup9\n      call\n      swap4\n      pop\n      pop\n      pop\n      pop\n      iszero\n      dup1\n      iszero\n      tag_67\n      jumpi\n      returndatasize\n      0x00\n      dup1\n      returndatacopy\n      revert(0x00, returndatasize)\n    tag_67:\n      pop\n        /* \"blockchain/contracts/Polygon/Pool/Prototype/pool/state.sol\":3045:3068  Withdraw( _to, _value ) */\n      0x884edad9ce6fa2440d8a54cc123490eb96d2768479d49ff9c7366125a9424364\n        /* \"blockchain/contracts/Polygon/Pool/Prototype/pool/state.sol\":3055:3058  _to */\n      dup2\n        /* \"blockchain/contracts/Polygon/Pool/Prototype/pool/state.sol\":3060:3066  _value */\n      dup4\n        /* \"blockchain/contracts/Polygon/Pool/Prototype/pool/state.sol\":3045:3068  Withdraw( _to, _value ) */\n      mload(0x40)\n      tag_68\n      swap3\n      swap2\n      swap1\n      tag_58\n      jump\t// in\n    tag_68:\n      mload(0x40)\n      dup1\n      swap2\n      sub\n      swap1\n      log1\n        /* \"blockchain/contracts/Polygon/Pool/Prototype/pool/state.sol\":2947:3076  {... */\n      pop\n        /* \"blockchain/contracts/Polygon/Pool/Prototype/pool/state.sol\":2893:3076  function withdraw( uint256 _value ) public only_admin {... */\n      pop\n      jump\t// out\n        /* \"blockchain/contracts/Polygon/Pool/Prototype/pool/state.sol\":3444:3611  function set_persona_of( address _address, Persona memory _new ) public only_admin returns ( bool ) {... */\n    tag_36:\n        /* \"blockchain/contracts/Polygon/Pool/Prototype/pool/state.sol\":3537:3541  bool */\n      0x00\n        /* \"blockchain/contracts/Polygon/Pool/Prototype/pool/authenticator.sol\":233:238  admin */\n      dup1\n      0x01\n      swap1\n      sload\n      swap1\n      0x0100\n      exp\n      swap1\n      div\n      0xffffffffffffffffffffffffffffffffffffffff\n      and\n        /* \"blockchain/contracts/Polygon/Pool/Prototype/pool/authenticator.sol\":219:238  msg.sender == admin */\n      0xffffffffffffffffffffffffffffffffffffffff\n      and\n        /* \"blockchain/contracts/Polygon/Pool/Prototype/pool/authenticator.sol\":219:229  msg.sender */\n      caller\n        /* \"blockchain/contracts/Polygon/Pool/Prototype/pool/authenticator.sol\":219:238  msg.sender == admin */\n      0xffffffffffffffffffffffffffffffffffffffff\n      and\n      eq\n        /* \"blockchain/contracts/Polygon/Pool/Prototype/pool/authenticator.sol\":210:240  require( msg.sender == admin ) */\n      tag_70\n      jumpi\n      0x00\n      dup1\n      revert\n    tag_70:\n        /* \"blockchain/contracts/Polygon/Pool/Prototype/pool/state.sol\":3577:3581  _new */\n      dup2\n        /* \"blockchain/contracts/Polygon/Pool/Prototype/pool/state.sol\":3555:3562  persona */\n      0x06\n        /* \"blockchain/contracts/Polygon/Pool/Prototype/pool/state.sol\":3555:3574  persona[ _address ] */\n      0x00\n        /* \"blockchain/contracts/Polygon/Pool/Prototype/pool/state.sol\":3564:3572  _address */\n      dup6\n        /* \"blockchain/contracts/Polygon/Pool/Prototype/pool/state.sol\":3555:3574  persona[ _address ] */\n      0xffffffffffffffffffffffffffffffffffffffff\n      and\n      0xffffffffffffffffffffffffffffffffffffffff\n      and\n      dup2\n      mstore\n      0x20\n      add\n      swap1\n      dup2\n      mstore\n      0x20\n      add\n      0x00\n      keccak256\n        /* \"blockchain/contracts/Polygon/Pool/Prototype/pool/state.sol\":3555:3581  persona[ _address ] = _new */\n      0x00\n      dup3\n      add\n      mload\n      dup2\n      0x00\n      add\n      exp(0x0100, 0x00)\n      dup2\n      sload\n      dup2\n      0xff\n      mul\n      not\n      and\n      swap1\n      dup4\n      iszero\n      iszero\n      mul\n      or\n      swap1\n      sstore\n      pop\n      swap1\n      pop\n      pop\n        /* \"blockchain/contracts/Polygon/Pool/Prototype/pool/state.sol\":3599:3603  true */\n      0x01\n        /* \"blockchain/contracts/Polygon/Pool/Prototype/pool/state.sol\":3592:3603  return true */\n      swap1\n      pop\n        /* \"blockchain/contracts/Polygon/Pool/Prototype/pool/state.sol\":3444:3611  function set_persona_of( address _address, Persona memory _new ) public only_admin returns ( bool ) {... */\n      swap3\n      swap2\n      pop\n      pop\n      jump\t// out\n        /* \"blockchain/contracts/Polygon/Pool/Prototype/pool/state.sol\":3617:3737  function view_funding( uint256 _id ) public view returns ( Funding memory ) {... */\n    tag_42:\n        /* \"blockchain/contracts/Polygon/Pool/Prototype/pool/state.sol\":3676:3690  Funding memory */\n      tag_72\n      tag_73\n      jump\t// in\n    tag_72:\n        /* \"blockchain/contracts/Polygon/Pool/Prototype/pool/state.sol\":3713:3720  funding */\n      0x07\n        /* \"blockchain/contracts/Polygon/Pool/Prototype/pool/state.sol\":3713:3727  funding[ _id ] */\n      0x00\n        /* \"blockchain/contracts/Polygon/Pool/Prototype/pool/state.sol\":3722:3725  _id */\n      dup4\n        /* \"blockchain/contracts/Polygon/Pool/Prototype/pool/state.sol\":3713:3727  funding[ _id ] */\n      dup2\n      mstore\n      0x20\n      add\n      swap1\n      dup2\n      mstore\n      0x20\n      add\n      0x00\n      keccak256\n        /* \"blockchain/contracts/Polygon/Pool/Prototype/pool/state.sol\":3704:3729  return ( funding[ _id ] ) */\n      mload(0x40)\n      dup1\n      0xa0\n      add\n      0x40\n      mstore\n      swap1\n      dup2\n      0x00\n      dup3\n      add\n      sload\n      dup2\n      mstore\n      0x20\n      add\n      0x01\n      dup3\n      add\n      sload\n      dup2\n      mstore\n      0x20\n      add\n      0x02\n      dup3\n      add\n      sload\n      dup2\n      mstore\n      0x20\n      add\n      0x03\n      dup3\n      add\n      0x00\n      swap1\n      sload\n      swap1\n      0x0100\n      exp\n      swap1\n      div\n      0xff\n      and\n      iszero\n      iszero\n      iszero\n      iszero\n      dup2\n      mstore\n      0x20\n      add\n      0x03\n      dup3\n      add\n      0x01\n      swap1\n      sload\n      swap1\n      0x0100\n      exp\n      swap1\n      div\n      0xff\n      and\n      iszero\n      iszero\n      iszero\n      iszero\n      dup2\n      mstore\n      pop\n      pop\n      swap1\n      pop\n        /* \"blockchain/contracts/Polygon/Pool/Prototype/pool/state.sol\":3617:3737  function view_funding( uint256 _id ) public view returns ( Funding memory ) {... */\n      swap2\n      swap1\n      pop\n      jump\t// out\n        /* \"blockchain/contracts/Polygon/Pool/Prototype/pool/state.sol\":3743:3958  function set_funding( uint256 _id, Funding memory _new ) public only_admin returns ( bool ) {... */\n    tag_49:\n        /* \"blockchain/contracts/Polygon/Pool/Prototype/pool/state.sol\":3828:3832  bool */\n      0x00\n        /* \"blockchain/contracts/Polygon/Pool/Prototype/pool/authenticator.sol\":233:238  admin */\n      dup1\n      0x01\n      swap1\n      sload\n      swap1\n      0x0100\n      exp\n      swap1\n      div\n      0xffffffffffffffffffffffffffffffffffffffff\n      and\n        /* \"blockchain/contracts/Polygon/Pool/Prototype/pool/authenticator.sol\":219:238  msg.sender == admin */\n      0xffffffffffffffffffffffffffffffffffffffff\n      and\n        /* \"blockchain/contracts/Polygon/Pool/Prototype/pool/authenticator.sol\":219:229  msg.sender */\n      caller\n        /* \"blockchain/contracts/Polygon/Pool/Prototype/pool/authenticator.sol\":219:238  msg.sender == admin */\n      0xffffffffffffffffffffffffffffffffffffffff\n      and\n      eq\n        /* \"blockchain/contracts/Polygon/Pool/Prototype/pool/authenticator.sol\":210:240  require( msg.sender == admin ) */\n      tag_76\n      jumpi\n      0x00\n      dup1\n      revert\n    tag_76:\n        /* \"blockchain/contracts/Polygon/Pool/Prototype/pool/state.sol\":3879:3894  block.timestamp */\n      timestamp\n        /* \"blockchain/contracts/Polygon/Pool/Prototype/pool/state.sol\":3855:3862  funding */\n      0x07\n        /* \"blockchain/contracts/Polygon/Pool/Prototype/pool/state.sol\":3855:3869  funding[ _id ] */\n      0x00\n        /* \"blockchain/contracts/Polygon/Pool/Prototype/pool/state.sol\":3864:3867  _id */\n      dup6\n        /* \"blockchain/contracts/Polygon/Pool/Prototype/pool/state.sol\":3855:3869  funding[ _id ] */\n      dup2\n      mstore\n      0x20\n      add\n      swap1\n      dup2\n      mstore\n      0x20\n      add\n      0x00\n      keccak256\n        /* \"blockchain/contracts/Polygon/Pool/Prototype/pool/state.sol\":3855:3875  funding[ _id ].start */\n      0x00\n      add\n      sload\n        /* \"blockchain/contracts/Polygon/Pool/Prototype/pool/state.sol\":3855:3894  funding[ _id ].start >= block.timestamp */\n      lt\n      iszero\n        /* \"blockchain/contracts/Polygon/Pool/Prototype/pool/state.sol\":3846:3896  require( funding[ _id ].start >= block.timestamp ) */\n      tag_78\n      jumpi\n      0x00\n      dup1\n      revert\n    tag_78:\n        /* \"blockchain/contracts/Polygon/Pool/Prototype/pool/state.sol\":3924:3928  _new */\n      dup2\n        /* \"blockchain/contracts/Polygon/Pool/Prototype/pool/state.sol\":3907:3914  funding */\n      0x07\n        /* \"blockchain/contracts/Polygon/Pool/Prototype/pool/state.sol\":3907:3921  funding[ _id ] */\n      0x00\n        /* \"blockchain/contracts/Polygon/Pool/Prototype/pool/state.sol\":3916:3919  _id */\n      dup6\n        /* \"blockchain/contracts/Polygon/Pool/Prototype/pool/state.sol\":3907:3921  funding[ _id ] */\n      dup2\n      mstore\n      0x20\n      add\n      swap1\n      dup2\n      mstore\n      0x20\n      add\n      0x00\n      keccak256\n        /* \"blockchain/contracts/Polygon/Pool/Prototype/pool/state.sol\":3907:3928  funding[ _id ] = _new */\n      0x00\n      dup3\n      add\n      mload\n      dup2\n      0x00\n      add\n      sstore\n      0x20\n      dup3\n      add\n      mload\n      dup2\n      0x01\n      add\n      sstore\n      0x40\n      dup3\n      add\n      mload\n      dup2\n      0x02\n      add\n      sstore\n      0x60\n      dup3\n      add\n      mload\n      dup2\n      0x03\n      add\n      exp(0x0100, 0x00)\n      dup2\n      sload\n      dup2\n      0xff\n      mul\n      not\n      and\n      swap1\n      dup4\n      iszero\n      iszero\n      mul\n      or\n      swap1\n      sstore\n      pop\n      0x80\n      dup3\n      add\n      mload\n      dup2\n      0x03\n      add\n      exp(0x0100, 0x01)\n      dup2\n      sload\n      dup2\n      0xff\n      mul\n      not\n      and\n      swap1\n      dup4\n      iszero\n      iszero\n      mul\n      or\n      swap1\n      sstore\n      pop\n      swap1\n      pop\n      pop\n        /* \"blockchain/contracts/Polygon/Pool/Prototype/pool/state.sol\":3946:3950  true */\n      0x01\n        /* \"blockchain/contracts/Polygon/Pool/Prototype/pool/state.sol\":3939:3950  return true */\n      swap1\n      pop\n        /* \"blockchain/contracts/Polygon/Pool/Prototype/pool/state.sol\":3743:3958  function set_funding( uint256 _id, Funding memory _new ) public only_admin returns ( bool ) {... */\n      swap3\n      swap2\n      pop\n      pop\n      jump\t// out\n    tag_52:\n      mload(0x40)\n      dup1\n      0x20\n      add\n      0x40\n      mstore\n      dup1\n      iszero(iszero(0x00))\n      dup2\n      mstore\n      pop\n      swap1\n      jump\t// out\n    tag_73:\n      mload(0x40)\n      dup1\n      0xa0\n      add\n      0x40\n      mstore\n      dup1\n      0x00\n      dup2\n      mstore\n      0x20\n      add\n      0x00\n      dup2\n      mstore\n      0x20\n      add\n      0x00\n      dup2\n      mstore\n      0x20\n      add\n      iszero(iszero(0x00))\n      dup2\n      mstore\n      0x20\n      add\n      iszero(iszero(0x00))\n      dup2\n      mstore\n      pop\n      swap1\n      jump\t// out\n        /* \"#utility.yul\":7:133   */\n    tag_79:\n        /* \"#utility.yul\":44:51   */\n      0x00\n        /* \"#utility.yul\":84:126   */\n      0xffffffffffffffffffffffffffffffffffffffff\n        /* \"#utility.yul\":77:82   */\n      dup3\n        /* \"#utility.yul\":73:127   */\n      and\n        /* \"#utility.yul\":62:127   */\n      swap1\n      pop\n        /* \"#utility.yul\":7:133   */\n      swap2\n      swap1\n      pop\n      jump\t// out\n        /* \"#utility.yul\":139:235   */\n    tag_80:\n        /* \"#utility.yul\":176:183   */\n      0x00\n        /* \"#utility.yul\":205:229   */\n      tag_116\n        /* \"#utility.yul\":223:228   */\n      dup3\n        /* \"#utility.yul\":205:229   */\n      tag_79\n      jump\t// in\n    tag_116:\n        /* \"#utility.yul\":194:229   */\n      swap1\n      pop\n        /* \"#utility.yul\":139:235   */\n      swap2\n      swap1\n      pop\n      jump\t// out\n        /* \"#utility.yul\":241:359   */\n    tag_81:\n        /* \"#utility.yul\":328:352   */\n      tag_118\n        /* \"#utility.yul\":346:351   */\n      dup2\n        /* \"#utility.yul\":328:352   */\n      tag_80\n      jump\t// in\n    tag_118:\n        /* \"#utility.yul\":323:326   */\n      dup3\n        /* \"#utility.yul\":316:353   */\n      mstore\n        /* \"#utility.yul\":241:359   */\n      pop\n      pop\n      jump\t// out\n        /* \"#utility.yul\":365:442   */\n    tag_82:\n        /* \"#utility.yul\":402:409   */\n      0x00\n        /* \"#utility.yul\":431:436   */\n      dup2\n        /* \"#utility.yul\":420:436   */\n      swap1\n      pop\n        /* \"#utility.yul\":365:442   */\n      swap2\n      swap1\n      pop\n      jump\t// out\n        /* \"#utility.yul\":448:566   */\n    tag_83:\n        /* \"#utility.yul\":535:559   */\n      tag_121\n        /* \"#utility.yul\":553:558   */\n      dup2\n        /* \"#utility.yul\":535:559   */\n      tag_82\n      jump\t// in\n    tag_121:\n        /* \"#utility.yul\":530:533   */\n      dup3\n        /* \"#utility.yul\":523:560   */\n      mstore\n        /* \"#utility.yul\":448:566   */\n      pop\n      pop\n      jump\t// out\n        /* \"#utility.yul\":572:904   */\n    tag_14:\n        /* \"#utility.yul\":693:697   */\n      0x00\n        /* \"#utility.yul\":731:733   */\n      0x40\n        /* \"#utility.yul\":720:729   */\n      dup3\n        /* \"#utility.yul\":716:734   */\n      add\n        /* \"#utility.yul\":708:734   */\n      swap1\n      pop\n        /* \"#utility.yul\":744:815   */\n      tag_123\n        /* \"#utility.yul\":812:813   */\n      0x00\n        /* \"#utility.yul\":801:810   */\n      dup4\n        /* \"#utility.yul\":797:814   */\n      add\n        /* \"#utility.yul\":788:794   */\n      dup6\n        /* \"#utility.yul\":744:815   */\n      tag_81\n      jump\t// in\n    tag_123:\n        /* \"#utility.yul\":825:897   */\n      tag_124\n        /* \"#utility.yul\":893:895   */\n      0x20\n        /* \"#utility.yul\":882:891   */\n      dup4\n        /* \"#utility.yul\":878:896   */\n      add\n        /* \"#utility.yul\":869:875   */\n      dup5\n        /* \"#utility.yul\":825:897   */\n      tag_83\n      jump\t// in\n    tag_124:\n        /* \"#utility.yul\":572:904   */\n      swap4\n      swap3\n      pop\n      pop\n      pop\n      jump\t// out\n        /* \"#utility.yul\":910:985   */\n    tag_84:\n        /* \"#utility.yul\":943:949   */\n      0x00\n        /* \"#utility.yul\":976:978   */\n      0x40\n        /* \"#utility.yul\":970:979   */\n      mload\n        /* \"#utility.yul\":960:979   */\n      swap1\n      pop\n        /* \"#utility.yul\":910:985   */\n      swap1\n      jump\t// out\n        /* \"#utility.yul\":991:1108   */\n    tag_85:\n        /* \"#utility.yul\":1100:1101   */\n      0x00\n        /* \"#utility.yul\":1097:1098   */\n      dup1\n        /* \"#utility.yul\":1090:1102   */\n      revert\n        /* \"#utility.yul\":1237:1359   */\n    tag_87:\n        /* \"#utility.yul\":1310:1334   */\n      tag_129\n        /* \"#utility.yul\":1328:1333   */\n      dup2\n        /* \"#utility.yul\":1310:1334   */\n      tag_80\n      jump\t// in\n    tag_129:\n        /* \"#utility.yul\":1303:1308   */\n      dup2\n        /* \"#utility.yul\":1300:1335   */\n      eq\n        /* \"#utility.yul\":1290:1353   */\n      tag_130\n      jumpi\n        /* \"#utility.yul\":1349:1350   */\n      0x00\n        /* \"#utility.yul\":1346:1347   */\n      dup1\n        /* \"#utility.yul\":1339:1351   */\n      revert\n        /* \"#utility.yul\":1290:1353   */\n    tag_130:\n        /* \"#utility.yul\":1237:1359   */\n      pop\n      jump\t// out\n        /* \"#utility.yul\":1365:1504   */\n    tag_88:\n        /* \"#utility.yul\":1411:1416   */\n      0x00\n        /* \"#utility.yul\":1449:1455   */\n      dup2\n        /* \"#utility.yul\":1436:1456   */\n      calldataload\n        /* \"#utility.yul\":1427:1456   */\n      swap1\n      pop\n        /* \"#utility.yul\":1465:1498   */\n      tag_132\n        /* \"#utility.yul\":1492:1497   */\n      dup2\n        /* \"#utility.yul\":1465:1498   */\n      tag_87\n      jump\t// in\n    tag_132:\n        /* \"#utility.yul\":1365:1504   */\n      swap3\n      swap2\n      pop\n      pop\n      jump\t// out\n        /* \"#utility.yul\":1510:1839   */\n    tag_18:\n        /* \"#utility.yul\":1569:1575   */\n      0x00\n        /* \"#utility.yul\":1618:1620   */\n      0x20\n        /* \"#utility.yul\":1606:1615   */\n      dup3\n        /* \"#utility.yul\":1597:1604   */\n      dup5\n        /* \"#utility.yul\":1593:1616   */\n      sub\n        /* \"#utility.yul\":1589:1621   */\n      slt\n        /* \"#utility.yul\":1586:1705   */\n      iszero\n      tag_134\n      jumpi\n        /* \"#utility.yul\":1624:1703   */\n      tag_135\n      tag_85\n      jump\t// in\n    tag_135:\n        /* \"#utility.yul\":1586:1705   */\n    tag_134:\n        /* \"#utility.yul\":1744:1745   */\n      0x00\n        /* \"#utility.yul\":1769:1822   */\n      tag_136\n        /* \"#utility.yul\":1814:1821   */\n      dup5\n        /* \"#utility.yul\":1805:1811   */\n      dup3\n        /* \"#utility.yul\":1794:1803   */\n      dup6\n        /* \"#utility.yul\":1790:1812   */\n      add\n        /* \"#utility.yul\":1769:1822   */\n      tag_88\n      jump\t// in\n    tag_136:\n        /* \"#utility.yul\":1759:1822   */\n      swap2\n      pop\n        /* \"#utility.yul\":1715:1832   */\n      pop\n        /* \"#utility.yul\":1510:1839   */\n      swap3\n      swap2\n      pop\n      pop\n      jump\t// out\n        /* \"#utility.yul\":1845:1935   */\n    tag_89:\n        /* \"#utility.yul\":1879:1886   */\n      0x00\n        /* \"#utility.yul\":1922:1927   */\n      dup2\n        /* \"#utility.yul\":1915:1928   */\n      iszero\n        /* \"#utility.yul\":1908:1929   */\n      iszero\n        /* \"#utility.yul\":1897:1929   */\n      swap1\n      pop\n        /* \"#utility.yul\":1845:1935   */\n      swap2\n      swap1\n      pop\n      jump\t// out\n        /* \"#utility.yul\":1941:2040   */\n    tag_90:\n        /* \"#utility.yul\":2012:2033   */\n      tag_139\n        /* \"#utility.yul\":2027:2032   */\n      dup2\n        /* \"#utility.yul\":2012:2033   */\n      tag_89\n      jump\t// in\n    tag_139:\n        /* \"#utility.yul\":2007:2010   */\n      dup3\n        /* \"#utility.yul\":2000:2034   */\n      mstore\n        /* \"#utility.yul\":1941:2040   */\n      pop\n      pop\n      jump\t// out\n        /* \"#utility.yul\":2098:2434   */\n    tag_91:\n        /* \"#utility.yul\":2243:2247   */\n      0x20\n        /* \"#utility.yul\":2238:2241   */\n      dup3\n        /* \"#utility.yul\":2234:2248   */\n      add\n        /* \"#utility.yul\":2341:2345   */\n      0x00\n        /* \"#utility.yul\":2334:2339   */\n      dup3\n        /* \"#utility.yul\":2330:2346   */\n      add\n        /* \"#utility.yul\":2324:2347   */\n      mload\n        /* \"#utility.yul\":2360:2417   */\n      tag_141\n        /* \"#utility.yul\":2411:2415   */\n      0x00\n        /* \"#utility.yul\":2406:2409   */\n      dup6\n        /* \"#utility.yul\":2402:2416   */\n      add\n        /* \"#utility.yul\":2388:2400   */\n      dup3\n        /* \"#utility.yul\":2360:2417   */\n      tag_90\n      jump\t// in\n    tag_141:\n        /* \"#utility.yul\":2258:2427   */\n      pop\n        /* \"#utility.yul\":2212:2434   */\n      pop\n        /* \"#utility.yul\":2098:2434   */\n      pop\n      pop\n      jump\t// out\n        /* \"#utility.yul\":2440:2758   */\n    tag_21:\n        /* \"#utility.yul\":2581:2585   */\n      0x00\n        /* \"#utility.yul\":2619:2621   */\n      0x20\n        /* \"#utility.yul\":2608:2617   */\n      dup3\n        /* \"#utility.yul\":2604:2622   */\n      add\n        /* \"#utility.yul\":2596:2622   */\n      swap1\n      pop\n        /* \"#utility.yul\":2632:2751   */\n      tag_143\n        /* \"#utility.yul\":2748:2749   */\n      0x00\n        /* \"#utility.yul\":2737:2746   */\n      dup4\n        /* \"#utility.yul\":2733:2750   */\n      add\n        /* \"#utility.yul\":2724:2730   */\n      dup5\n        /* \"#utility.yul\":2632:2751   */\n      tag_91\n      jump\t// in\n    tag_143:\n        /* \"#utility.yul\":2440:2758   */\n      swap3\n      swap2\n      pop\n      pop\n      jump\t// out\n        /* \"#utility.yul\":2764:2886   */\n    tag_92:\n        /* \"#utility.yul\":2837:2861   */\n      tag_145\n        /* \"#utility.yul\":2855:2860   */\n      dup2\n        /* \"#utility.yul\":2837:2861   */\n      tag_82\n      jump\t// in\n    tag_145:\n        /* \"#utility.yul\":2830:2835   */\n      dup2\n        /* \"#utility.yul\":2827:2862   */\n      eq\n        /* \"#utility.yul\":2817:2880   */\n      tag_146\n      jumpi\n        /* \"#utility.yul\":2876:2877   */\n      0x00\n        /* \"#utility.yul\":2873:2874   */\n      dup1\n        /* \"#utility.yul\":2866:2878   */\n      revert\n        /* \"#utility.yul\":2817:2880   */\n    tag_146:\n        /* \"#utility.yul\":2764:2886   */\n      pop\n      jump\t// out\n        /* \"#utility.yul\":2892:3031   */\n    tag_93:\n        /* \"#utility.yul\":2938:2943   */\n      0x00\n        /* \"#utility.yul\":2976:2982   */\n      dup2\n        /* \"#utility.yul\":2963:2983   */\n      calldataload\n        /* \"#utility.yul\":2954:2983   */\n      swap1\n      pop\n        /* \"#utility.yul\":2992:3025   */\n      tag_148\n        /* \"#utility.yul\":3019:3024   */\n      dup2\n        /* \"#utility.yul\":2992:3025   */\n      tag_92\n      jump\t// in\n    tag_148:\n        /* \"#utility.yul\":2892:3031   */\n      swap3\n      swap2\n      pop\n      pop\n      jump\t// out\n        /* \"#utility.yul\":3037:3511   */\n    tag_25:\n        /* \"#utility.yul\":3105:3111   */\n      0x00\n        /* \"#utility.yul\":3113:3119   */\n      dup1\n        /* \"#utility.yul\":3162:3164   */\n      0x40\n        /* \"#utility.yul\":3150:3159   */\n      dup4\n        /* \"#utility.yul\":3141:3148   */\n      dup6\n        /* \"#utility.yul\":3137:3160   */\n      sub\n        /* \"#utility.yul\":3133:3165   */\n      slt\n        /* \"#utility.yul\":3130:3249   */\n      iszero\n      tag_150\n      jumpi\n        /* \"#utility.yul\":3168:3247   */\n      tag_151\n      tag_85\n      jump\t// in\n    tag_151:\n        /* \"#utility.yul\":3130:3249   */\n    tag_150:\n        /* \"#utility.yul\":3288:3289   */\n      0x00\n        /* \"#utility.yul\":3313:3366   */\n      tag_152\n        /* \"#utility.yul\":3358:3365   */\n      dup6\n        /* \"#utility.yul\":3349:3355   */\n      dup3\n        /* \"#utility.yul\":3338:3347   */\n      dup7\n        /* \"#utility.yul\":3334:3356   */\n      add\n        /* \"#utility.yul\":3313:3366   */\n      tag_88\n      jump\t// in\n    tag_152:\n        /* \"#utility.yul\":3303:3366   */\n      swap3\n      pop\n        /* \"#utility.yul\":3259:3376   */\n      pop\n        /* \"#utility.yul\":3415:3417   */\n      0x20\n        /* \"#utility.yul\":3441:3494   */\n      tag_153\n        /* \"#utility.yul\":3486:3493   */\n      dup6\n        /* \"#utility.yul\":3477:3483   */\n      dup3\n        /* \"#utility.yul\":3466:3475   */\n      dup7\n        /* \"#utility.yul\":3462:3484   */\n      add\n        /* \"#utility.yul\":3441:3494   */\n      tag_93\n      jump\t// in\n    tag_153:\n        /* \"#utility.yul\":3431:3494   */\n      swap2\n      pop\n        /* \"#utility.yul\":3386:3504   */\n      pop\n        /* \"#utility.yul\":3037:3511   */\n      swap3\n      pop\n      swap3\n      swap1\n      pop\n      jump\t// out\n        /* \"#utility.yul\":3517:3846   */\n    tag_30:\n        /* \"#utility.yul\":3576:3582   */\n      0x00\n        /* \"#utility.yul\":3625:3627   */\n      0x20\n        /* \"#utility.yul\":3613:3622   */\n      dup3\n        /* \"#utility.yul\":3604:3611   */\n      dup5\n        /* \"#utility.yul\":3600:3623   */\n      sub\n        /* \"#utility.yul\":3596:3628   */\n      slt\n        /* \"#utility.yul\":3593:3712   */\n      iszero\n      tag_155\n      jumpi\n        /* \"#utility.yul\":3631:3710   */\n      tag_156\n      tag_85\n      jump\t// in\n    tag_156:\n        /* \"#utility.yul\":3593:3712   */\n    tag_155:\n        /* \"#utility.yul\":3751:3752   */\n      0x00\n        /* \"#utility.yul\":3776:3829   */\n      tag_157\n        /* \"#utility.yul\":3821:3828   */\n      dup5\n        /* \"#utility.yul\":3812:3818   */\n      dup3\n        /* \"#utility.yul\":3801:3810   */\n      dup6\n        /* \"#utility.yul\":3797:3819   */\n      add\n        /* \"#utility.yul\":3776:3829   */\n      tag_93\n      jump\t// in\n    tag_157:\n        /* \"#utility.yul\":3766:3829   */\n      swap2\n      pop\n        /* \"#utility.yul\":3722:3839   */\n      pop\n        /* \"#utility.yul\":3517:3846   */\n      swap3\n      swap2\n      pop\n      pop\n      jump\t// out\n        /* \"#utility.yul\":3852:3969   */\n    tag_94:\n        /* \"#utility.yul\":3961:3962   */\n      0x00\n        /* \"#utility.yul\":3958:3959   */\n      dup1\n        /* \"#utility.yul\":3951:3963   */\n      revert\n        /* \"#utility.yul\":3975:4077   */\n    tag_95:\n        /* \"#utility.yul\":4016:4022   */\n      0x00\n        /* \"#utility.yul\":4067:4069   */\n      0x1f\n        /* \"#utility.yul\":4063:4070   */\n      not\n        /* \"#utility.yul\":4058:4060   */\n      0x1f\n        /* \"#utility.yul\":4051:4056   */\n      dup4\n        /* \"#utility.yul\":4047:4061   */\n      add\n        /* \"#utility.yul\":4043:4071   */\n      and\n        /* \"#utility.yul\":4033:4071   */\n      swap1\n      pop\n        /* \"#utility.yul\":3975:4077   */\n      swap2\n      swap1\n      pop\n      jump\t// out\n        /* \"#utility.yul\":4083:4263   */\n    tag_96:\n        /* \"#utility.yul\":4131:4208   */\n      0x4e487b7100000000000000000000000000000000000000000000000000000000\n        /* \"#utility.yul\":4128:4129   */\n      0x00\n        /* \"#utility.yul\":4121:4209   */\n      mstore\n        /* \"#utility.yul\":4228:4232   */\n      0x41\n        /* \"#utility.yul\":4225:4226   */\n      0x04\n        /* \"#utility.yul\":4218:4233   */\n      mstore\n        /* \"#utility.yul\":4252:4256   */\n      0x24\n        /* \"#utility.yul\":4249:4250   */\n      0x00\n        /* \"#utility.yul\":4242:4257   */\n      revert\n        /* \"#utility.yul\":4269:4550   */\n    tag_97:\n        /* \"#utility.yul\":4352:4379   */\n      tag_162\n        /* \"#utility.yul\":4374:4378   */\n      dup3\n        /* \"#utility.yul\":4352:4379   */\n      tag_95\n      jump\t// in\n    tag_162:\n        /* \"#utility.yul\":4344:4350   */\n      dup2\n        /* \"#utility.yul\":4340:4380   */\n      add\n        /* \"#utility.yul\":4482:4488   */\n      dup2\n        /* \"#utility.yul\":4470:4480   */\n      dup2\n        /* \"#utility.yul\":4467:4489   */\n      lt\n        /* \"#utility.yul\":4446:4464   */\n      0xffffffffffffffff\n        /* \"#utility.yul\":4434:4444   */\n      dup3\n        /* \"#utility.yul\":4431:4465   */\n      gt\n        /* \"#utility.yul\":4428:4490   */\n      or\n        /* \"#utility.yul\":4425:4513   */\n      iszero\n      tag_163\n      jumpi\n        /* \"#utility.yul\":4493:4511   */\n      tag_164\n      tag_96\n      jump\t// in\n    tag_164:\n        /* \"#utility.yul\":4425:4513   */\n    tag_163:\n        /* \"#utility.yul\":4533:4543   */\n      dup1\n        /* \"#utility.yul\":4529:4531   */\n      0x40\n        /* \"#utility.yul\":4522:4544   */\n      mstore\n        /* \"#utility.yul\":4312:4550   */\n      pop\n        /* \"#utility.yul\":4269:4550   */\n      pop\n      pop\n      jump\t// out\n        /* \"#utility.yul\":4556:4685   */\n    tag_98:\n        /* \"#utility.yul\":4590:4596   */\n      0x00\n        /* \"#utility.yul\":4617:4637   */\n      tag_166\n      tag_84\n      jump\t// in\n    tag_166:\n        /* \"#utility.yul\":4607:4637   */\n      swap1\n      pop\n        /* \"#utility.yul\":4646:4679   */\n      tag_167\n        /* \"#utility.yul\":4674:4678   */\n      dup3\n        /* \"#utility.yul\":4666:4672   */\n      dup3\n        /* \"#utility.yul\":4646:4679   */\n      tag_97\n      jump\t// in\n    tag_167:\n        /* \"#utility.yul\":4556:4685   */\n      swap2\n      swap1\n      pop\n      jump\t// out\n        /* \"#utility.yul\":4814:4930   */\n    tag_100:\n        /* \"#utility.yul\":4884:4905   */\n      tag_170\n        /* \"#utility.yul\":4899:4904   */\n      dup2\n        /* \"#utility.yul\":4884:4905   */\n      tag_89\n      jump\t// in\n    tag_170:\n        /* \"#utility.yul\":4877:4882   */\n      dup2\n        /* \"#utility.yul\":4874:4906   */\n      eq\n        /* \"#utility.yul\":4864:4924   */\n      tag_171\n      jumpi\n        /* \"#utility.yul\":4920:4921   */\n      0x00\n        /* \"#utility.yul\":4917:4918   */\n      dup1\n        /* \"#utility.yul\":4910:4922   */\n      revert\n        /* \"#utility.yul\":4864:4924   */\n    tag_171:\n        /* \"#utility.yul\":4814:4930   */\n      pop\n      jump\t// out\n        /* \"#utility.yul\":4936:5069   */\n    tag_101:\n        /* \"#utility.yul\":4979:4984   */\n      0x00\n        /* \"#utility.yul\":5017:5023   */\n      dup2\n        /* \"#utility.yul\":5004:5024   */\n      calldataload\n        /* \"#utility.yul\":4995:5024   */\n      swap1\n      pop\n        /* \"#utility.yul\":5033:5063   */\n      tag_173\n        /* \"#utility.yul\":5057:5062   */\n      dup2\n        /* \"#utility.yul\":5033:5063   */\n      tag_100\n      jump\t// in\n    tag_173:\n        /* \"#utility.yul\":4936:5069   */\n      swap3\n      swap2\n      pop\n      pop\n      jump\t// out\n        /* \"#utility.yul\":5103:5523   */\n    tag_102:\n        /* \"#utility.yul\":5176:5181   */\n      0x00\n        /* \"#utility.yul\":5220:5224   */\n      0x20\n        /* \"#utility.yul\":5208:5217   */\n      dup3\n        /* \"#utility.yul\":5203:5206   */\n      dup5\n        /* \"#utility.yul\":5199:5218   */\n      sub\n        /* \"#utility.yul\":5195:5225   */\n      slt\n        /* \"#utility.yul\":5192:5309   */\n      iszero\n      tag_175\n      jumpi\n        /* \"#utility.yul\":5228:5307   */\n      tag_176\n      tag_94\n      jump\t// in\n    tag_176:\n        /* \"#utility.yul\":5192:5309   */\n    tag_175:\n        /* \"#utility.yul\":5327:5348   */\n      tag_177\n        /* \"#utility.yul\":5343:5347   */\n      0x20\n        /* \"#utility.yul\":5327:5348   */\n      tag_98\n      jump\t// in\n    tag_177:\n        /* \"#utility.yul\":5318:5348   */\n      swap1\n      pop\n        /* \"#utility.yul\":5418:5419   */\n      0x00\n        /* \"#utility.yul\":5458:5504   */\n      tag_178\n        /* \"#utility.yul\":5500:5503   */\n      dup5\n        /* \"#utility.yul\":5491:5497   */\n      dup3\n        /* \"#utility.yul\":5480:5489   */\n      dup6\n        /* \"#utility.yul\":5476:5498   */\n      add\n        /* \"#utility.yul\":5458:5504   */\n      tag_101\n      jump\t// in\n    tag_178:\n        /* \"#utility.yul\":5451:5455   */\n      0x00\n        /* \"#utility.yul\":5444:5449   */\n      dup4\n        /* \"#utility.yul\":5440:5456   */\n      add\n        /* \"#utility.yul\":5433:5505   */\n      mstore\n        /* \"#utility.yul\":5358:5516   */\n      pop\n        /* \"#utility.yul\":5103:5523   */\n      swap3\n      swap2\n      pop\n      pop\n      jump\t// out\n        /* \"#utility.yul\":5529:6051   */\n    tag_35:\n        /* \"#utility.yul\":5621:5627   */\n      0x00\n        /* \"#utility.yul\":5629:5635   */\n      dup1\n        /* \"#utility.yul\":5678:5680   */\n      0x40\n        /* \"#utility.yul\":5666:5675   */\n      dup4\n        /* \"#utility.yul\":5657:5664   */\n      dup6\n        /* \"#utility.yul\":5653:5676   */\n      sub\n        /* \"#utility.yul\":5649:5681   */\n      slt\n        /* \"#utility.yul\":5646:5765   */\n      iszero\n      tag_180\n      jumpi\n        /* \"#utility.yul\":5684:5763   */\n      tag_181\n      tag_85\n      jump\t// in\n    tag_181:\n        /* \"#utility.yul\":5646:5765   */\n    tag_180:\n        /* \"#utility.yul\":5804:5805   */\n      0x00\n        /* \"#utility.yul\":5829:5882   */\n      tag_182\n        /* \"#utility.yul\":5874:5881   */\n      dup6\n        /* \"#utility.yul\":5865:5871   */\n      dup3\n        /* \"#utility.yul\":5854:5863   */\n      dup7\n        /* \"#utility.yul\":5850:5872   */\n      add\n        /* \"#utility.yul\":5829:5882   */\n      tag_88\n      jump\t// in\n    tag_182:\n        /* \"#utility.yul\":5819:5882   */\n      swap3\n      pop\n        /* \"#utility.yul\":5775:5892   */\n      pop\n        /* \"#utility.yul\":5931:5933   */\n      0x20\n        /* \"#utility.yul\":5957:6034   */\n      tag_183\n        /* \"#utility.yul\":6026:6033   */\n      dup6\n        /* \"#utility.yul\":6017:6023   */\n      dup3\n        /* \"#utility.yul\":6006:6015   */\n      dup7\n        /* \"#utility.yul\":6002:6024   */\n      add\n        /* \"#utility.yul\":5957:6034   */\n      tag_102\n      jump\t// in\n    tag_183:\n        /* \"#utility.yul\":5947:6034   */\n      swap2\n      pop\n        /* \"#utility.yul\":5902:6044   */\n      pop\n        /* \"#utility.yul\":5529:6051   */\n      swap3\n      pop\n      swap3\n      swap1\n      pop\n      jump\t// out\n        /* \"#utility.yul\":6057:6166   */\n    tag_103:\n        /* \"#utility.yul\":6138:6159   */\n      tag_185\n        /* \"#utility.yul\":6153:6158   */\n      dup2\n        /* \"#utility.yul\":6138:6159   */\n      tag_89\n      jump\t// in\n    tag_185:\n        /* \"#utility.yul\":6133:6136   */\n      dup3\n        /* \"#utility.yul\":6126:6160   */\n      mstore\n        /* \"#utility.yul\":6057:6166   */\n      pop\n      pop\n      jump\t// out\n        /* \"#utility.yul\":6172:6382   */\n    tag_38:\n        /* \"#utility.yul\":6259:6263   */\n      0x00\n        /* \"#utility.yul\":6297:6299   */\n      0x20\n        /* \"#utility.yul\":6286:6295   */\n      dup3\n        /* \"#utility.yul\":6282:6300   */\n      add\n        /* \"#utility.yul\":6274:6300   */\n      swap1\n      pop\n        /* \"#utility.yul\":6310:6375   */\n      tag_187\n        /* \"#utility.yul\":6372:6373   */\n      0x00\n        /* \"#utility.yul\":6361:6370   */\n      dup4\n        /* \"#utility.yul\":6357:6374   */\n      add\n        /* \"#utility.yul\":6348:6354   */\n      dup5\n        /* \"#utility.yul\":6310:6375   */\n      tag_103\n      jump\t// in\n    tag_187:\n        /* \"#utility.yul\":6172:6382   */\n      swap3\n      swap2\n      pop\n      pop\n      jump\t// out\n        /* \"#utility.yul\":6388:6496   */\n    tag_104:\n        /* \"#utility.yul\":6465:6489   */\n      tag_189\n        /* \"#utility.yul\":6483:6488   */\n      dup2\n        /* \"#utility.yul\":6465:6489   */\n      tag_82\n      jump\t// in\n    tag_189:\n        /* \"#utility.yul\":6460:6463   */\n      dup3\n        /* \"#utility.yul\":6453:6490   */\n      mstore\n        /* \"#utility.yul\":6388:6496   */\n      pop\n      pop\n      jump\t// out\n        /* \"#utility.yul\":6554:7583   */\n    tag_105:\n        /* \"#utility.yul\":6699:6703   */\n      0xa0\n        /* \"#utility.yul\":6694:6697   */\n      dup3\n        /* \"#utility.yul\":6690:6704   */\n      add\n        /* \"#utility.yul\":6787:6791   */\n      0x00\n        /* \"#utility.yul\":6780:6785   */\n      dup3\n        /* \"#utility.yul\":6776:6792   */\n      add\n        /* \"#utility.yul\":6770:6793   */\n      mload\n        /* \"#utility.yul\":6806:6869   */\n      tag_191\n        /* \"#utility.yul\":6863:6867   */\n      0x00\n        /* \"#utility.yul\":6858:6861   */\n      dup6\n        /* \"#utility.yul\":6854:6868   */\n      add\n        /* \"#utility.yul\":6840:6852   */\n      dup3\n        /* \"#utility.yul\":6806:6869   */\n      tag_104\n      jump\t// in\n    tag_191:\n        /* \"#utility.yul\":6714:6879   */\n      pop\n        /* \"#utility.yul\":6960:6964   */\n      0x20\n        /* \"#utility.yul\":6953:6958   */\n      dup3\n        /* \"#utility.yul\":6949:6965   */\n      add\n        /* \"#utility.yul\":6943:6966   */\n      mload\n        /* \"#utility.yul\":6979:7042   */\n      tag_192\n        /* \"#utility.yul\":7036:7040   */\n      0x20\n        /* \"#utility.yul\":7031:7034   */\n      dup6\n        /* \"#utility.yul\":7027:7041   */\n      add\n        /* \"#utility.yul\":7013:7025   */\n      dup3\n        /* \"#utility.yul\":6979:7042   */\n      tag_104\n      jump\t// in\n    tag_192:\n        /* \"#utility.yul\":6889:7052   */\n      pop\n        /* \"#utility.yul\":7138:7142   */\n      0x40\n        /* \"#utility.yul\":7131:7136   */\n      dup3\n        /* \"#utility.yul\":7127:7143   */\n      add\n        /* \"#utility.yul\":7121:7144   */\n      mload\n        /* \"#utility.yul\":7157:7220   */\n      tag_193\n        /* \"#utility.yul\":7214:7218   */\n      0x40\n        /* \"#utility.yul\":7209:7212   */\n      dup6\n        /* \"#utility.yul\":7205:7219   */\n      add\n        /* \"#utility.yul\":7191:7203   */\n      dup3\n        /* \"#utility.yul\":7157:7220   */\n      tag_104\n      jump\t// in\n    tag_193:\n        /* \"#utility.yul\":7062:7230   */\n      pop\n        /* \"#utility.yul\":7319:7323   */\n      0x60\n        /* \"#utility.yul\":7312:7317   */\n      dup3\n        /* \"#utility.yul\":7308:7324   */\n      add\n        /* \"#utility.yul\":7302:7325   */\n      mload\n        /* \"#utility.yul\":7338:7395   */\n      tag_194\n        /* \"#utility.yul\":7389:7393   */\n      0x60\n        /* \"#utility.yul\":7384:7387   */\n      dup6\n        /* \"#utility.yul\":7380:7394   */\n      add\n        /* \"#utility.yul\":7366:7378   */\n      dup3\n        /* \"#utility.yul\":7338:7395   */\n      tag_90\n      jump\t// in\n    tag_194:\n        /* \"#utility.yul\":7240:7405   */\n      pop\n        /* \"#utility.yul\":7490:7494   */\n      0x80\n        /* \"#utility.yul\":7483:7488   */\n      dup3\n        /* \"#utility.yul\":7479:7495   */\n      add\n        /* \"#utility.yul\":7473:7496   */\n      mload\n        /* \"#utility.yul\":7509:7566   */\n      tag_195\n        /* \"#utility.yul\":7560:7564   */\n      0x80\n        /* \"#utility.yul\":7555:7558   */\n      dup6\n        /* \"#utility.yul\":7551:7565   */\n      add\n        /* \"#utility.yul\":7537:7549   */\n      dup3\n        /* \"#utility.yul\":7509:7566   */\n      tag_90\n      jump\t// in\n    tag_195:\n        /* \"#utility.yul\":7415:7576   */\n      pop\n        /* \"#utility.yul\":6668:7583   */\n      pop\n        /* \"#utility.yul\":6554:7583   */\n      pop\n      pop\n      jump\t// out\n        /* \"#utility.yul\":7589:7908   */\n    tag_44:\n        /* \"#utility.yul\":7730:7734   */\n      0x00\n        /* \"#utility.yul\":7768:7771   */\n      0xa0\n        /* \"#utility.yul\":7757:7766   */\n      dup3\n        /* \"#utility.yul\":7753:7772   */\n      add\n        /* \"#utility.yul\":7745:7772   */\n      swap1\n      pop\n        /* \"#utility.yul\":7782:7901   */\n      tag_197\n        /* \"#utility.yul\":7898:7899   */\n      0x00\n        /* \"#utility.yul\":7887:7896   */\n      dup4\n        /* \"#utility.yul\":7883:7900   */\n      add\n        /* \"#utility.yul\":7874:7880   */\n      dup5\n        /* \"#utility.yul\":7782:7901   */\n      tag_105\n      jump\t// in\n    tag_197:\n        /* \"#utility.yul\":7589:7908   */\n      swap3\n      swap2\n      pop\n      pop\n      jump\t// out\n        /* \"#utility.yul\":7942:9007   */\n    tag_106:\n        /* \"#utility.yul\":8015:8020   */\n      0x00\n        /* \"#utility.yul\":8059:8063   */\n      0xa0\n        /* \"#utility.yul\":8047:8056   */\n      dup3\n        /* \"#utility.yul\":8042:8045   */\n      dup5\n        /* \"#utility.yul\":8038:8057   */\n      sub\n        /* \"#utility.yul\":8034:8064   */\n      slt\n        /* \"#utility.yul\":8031:8148   */\n      iszero\n      tag_199\n      jumpi\n        /* \"#utility.yul\":8067:8146   */\n      tag_200\n      tag_94\n      jump\t// in\n    tag_200:\n        /* \"#utility.yul\":8031:8148   */\n    tag_199:\n        /* \"#utility.yul\":8166:8187   */\n      tag_201\n        /* \"#utility.yul\":8182:8186   */\n      0xa0\n        /* \"#utility.yul\":8166:8187   */\n      tag_98\n      jump\t// in\n    tag_201:\n        /* \"#utility.yul\":8157:8187   */\n      swap1\n      pop\n        /* \"#utility.yul\":8247:8248   */\n      0x00\n        /* \"#utility.yul\":8287:8336   */\n      tag_202\n        /* \"#utility.yul\":8332:8335   */\n      dup5\n        /* \"#utility.yul\":8323:8329   */\n      dup3\n        /* \"#utility.yul\":8312:8321   */\n      dup6\n        /* \"#utility.yul\":8308:8330   */\n      add\n        /* \"#utility.yul\":8287:8336   */\n      tag_93\n      jump\t// in\n    tag_202:\n        /* \"#utility.yul\":8280:8284   */\n      0x00\n        /* \"#utility.yul\":8273:8278   */\n      dup4\n        /* \"#utility.yul\":8269:8285   */\n      add\n        /* \"#utility.yul\":8262:8337   */\n      mstore\n        /* \"#utility.yul\":8197:8348   */\n      pop\n        /* \"#utility.yul\":8406:8408   */\n      0x20\n        /* \"#utility.yul\":8447:8496   */\n      tag_203\n        /* \"#utility.yul\":8492:8495   */\n      dup5\n        /* \"#utility.yul\":8483:8489   */\n      dup3\n        /* \"#utility.yul\":8472:8481   */\n      dup6\n        /* \"#utility.yul\":8468:8490   */\n      add\n        /* \"#utility.yul\":8447:8496   */\n      tag_93\n      jump\t// in\n    tag_203:\n        /* \"#utility.yul\":8440:8444   */\n      0x20\n        /* \"#utility.yul\":8433:8438   */\n      dup4\n        /* \"#utility.yul\":8429:8445   */\n      add\n        /* \"#utility.yul\":8422:8497   */\n      mstore\n        /* \"#utility.yul\":8358:8508   */\n      pop\n        /* \"#utility.yul\":8571:8573   */\n      0x40\n        /* \"#utility.yul\":8612:8661   */\n      tag_204\n        /* \"#utility.yul\":8657:8660   */\n      dup5\n        /* \"#utility.yul\":8648:8654   */\n      dup3\n        /* \"#utility.yul\":8637:8646   */\n      dup6\n        /* \"#utility.yul\":8633:8655   */\n      add\n        /* \"#utility.yul\":8612:8661   */\n      tag_93\n      jump\t// in\n    tag_204:\n        /* \"#utility.yul\":8605:8609   */\n      0x40\n        /* \"#utility.yul\":8598:8603   */\n      dup4\n        /* \"#utility.yul\":8594:8610   */\n      add\n        /* \"#utility.yul\":8587:8662   */\n      mstore\n        /* \"#utility.yul\":8518:8673   */\n      pop\n        /* \"#utility.yul\":8739:8741   */\n      0x60\n        /* \"#utility.yul\":8780:8826   */\n      tag_205\n        /* \"#utility.yul\":8822:8825   */\n      dup5\n        /* \"#utility.yul\":8813:8819   */\n      dup3\n        /* \"#utility.yul\":8802:8811   */\n      dup6\n        /* \"#utility.yul\":8798:8820   */\n      add\n        /* \"#utility.yul\":8780:8826   */\n      tag_101\n      jump\t// in\n    tag_205:\n        /* \"#utility.yul\":8773:8777   */\n      0x60\n        /* \"#utility.yul\":8766:8771   */\n      dup4\n        /* \"#utility.yul\":8762:8778   */\n      add\n        /* \"#utility.yul\":8755:8827   */\n      mstore\n        /* \"#utility.yul\":8683:8838   */\n      pop\n        /* \"#utility.yul\":8900:8903   */\n      0x80\n        /* \"#utility.yul\":8942:8988   */\n      tag_206\n        /* \"#utility.yul\":8984:8987   */\n      dup5\n        /* \"#utility.yul\":8975:8981   */\n      dup3\n        /* \"#utility.yul\":8964:8973   */\n      dup6\n        /* \"#utility.yul\":8960:8982   */\n      add\n        /* \"#utility.yul\":8942:8988   */\n      tag_101\n      jump\t// in\n    tag_206:\n        /* \"#utility.yul\":8935:8939   */\n      0x80\n        /* \"#utility.yul\":8928:8933   */\n      dup4\n        /* \"#utility.yul\":8924:8940   */\n      add\n        /* \"#utility.yul\":8917:8989   */\n      mstore\n        /* \"#utility.yul\":8848:9000   */\n      pop\n        /* \"#utility.yul\":7942:9007   */\n      swap3\n      swap2\n      pop\n      pop\n      jump\t// out\n        /* \"#utility.yul\":9013:9536   */\n    tag_48:\n        /* \"#utility.yul\":9105:9111   */\n      0x00\n        /* \"#utility.yul\":9113:9119   */\n      dup1\n        /* \"#utility.yul\":9162:9165   */\n      0xc0\n        /* \"#utility.yul\":9150:9159   */\n      dup4\n        /* \"#utility.yul\":9141:9148   */\n      dup6\n        /* \"#utility.yul\":9137:9160   */\n      sub\n        /* \"#utility.yul\":9133:9166   */\n      slt\n        /* \"#utility.yul\":9130:9250   */\n      iszero\n      tag_208\n      jumpi\n        /* \"#utility.yul\":9169:9248   */\n      tag_209\n      tag_85\n      jump\t// in\n    tag_209:\n        /* \"#utility.yul\":9130:9250   */\n    tag_208:\n        /* \"#utility.yul\":9289:9290   */\n      0x00\n        /* \"#utility.yul\":9314:9367   */\n      tag_210\n        /* \"#utility.yul\":9359:9366   */\n      dup6\n        /* \"#utility.yul\":9350:9356   */\n      dup3\n        /* \"#utility.yul\":9339:9348   */\n      dup7\n        /* \"#utility.yul\":9335:9357   */\n      add\n        /* \"#utility.yul\":9314:9367   */\n      tag_93\n      jump\t// in\n    tag_210:\n        /* \"#utility.yul\":9304:9367   */\n      swap3\n      pop\n        /* \"#utility.yul\":9260:9377   */\n      pop\n        /* \"#utility.yul\":9416:9418   */\n      0x20\n        /* \"#utility.yul\":9442:9519   */\n      tag_211\n        /* \"#utility.yul\":9511:9518   */\n      dup6\n        /* \"#utility.yul\":9502:9508   */\n      dup3\n        /* \"#utility.yul\":9491:9500   */\n      dup7\n        /* \"#utility.yul\":9487:9509   */\n      add\n        /* \"#utility.yul\":9442:9519   */\n      tag_106\n      jump\t// in\n    tag_211:\n        /* \"#utility.yul\":9432:9519   */\n      swap2\n      pop\n        /* \"#utility.yul\":9387:9529   */\n      pop\n        /* \"#utility.yul\":9013:9536   */\n      swap3\n      pop\n      swap3\n      swap1\n      pop\n      jump\t// out\n        /* \"#utility.yul\":9542:9602   */\n    tag_107:\n        /* \"#utility.yul\":9570:9573   */\n      0x00\n        /* \"#utility.yul\":9591:9596   */\n      dup2\n        /* \"#utility.yul\":9584:9596   */\n      swap1\n      pop\n        /* \"#utility.yul\":9542:9602   */\n      swap2\n      swap1\n      pop\n      jump\t// out\n        /* \"#utility.yul\":9608:9750   */\n    tag_108:\n        /* \"#utility.yul\":9658:9667   */\n      0x00\n        /* \"#utility.yul\":9691:9744   */\n      tag_214\n        /* \"#utility.yul\":9709:9743   */\n      tag_215\n        /* \"#utility.yul\":9718:9742   */\n      tag_216\n        /* \"#utility.yul\":9736:9741   */\n      dup5\n        /* \"#utility.yul\":9718:9742   */\n      tag_79\n      jump\t// in\n    tag_216:\n        /* \"#utility.yul\":9709:9743   */\n      tag_107\n      jump\t// in\n    tag_215:\n        /* \"#utility.yul\":9691:9744   */\n      tag_79\n      jump\t// in\n    tag_214:\n        /* \"#utility.yul\":9678:9744   */\n      swap1\n      pop\n        /* \"#utility.yul\":9608:9750   */\n      swap2\n      swap1\n      pop\n      jump\t// out\n        /* \"#utility.yul\":9756:9882   */\n    tag_109:\n        /* \"#utility.yul\":9806:9815   */\n      0x00\n        /* \"#utility.yul\":9839:9876   */\n      tag_218\n        /* \"#utility.yul\":9870:9875   */\n      dup3\n        /* \"#utility.yul\":9839:9876   */\n      tag_108\n      jump\t// in\n    tag_218:\n        /* \"#utility.yul\":9826:9876   */\n      swap1\n      pop\n        /* \"#utility.yul\":9756:9882   */\n      swap2\n      swap1\n      pop\n      jump\t// out\n        /* \"#utility.yul\":9888:10022   */\n    tag_110:\n        /* \"#utility.yul\":9946:9955   */\n      0x00\n        /* \"#utility.yul\":9979:10016   */\n      tag_220\n        /* \"#utility.yul\":10010:10015   */\n      dup3\n        /* \"#utility.yul\":9979:10016   */\n      tag_109\n      jump\t// in\n    tag_220:\n        /* \"#utility.yul\":9966:10016   */\n      swap1\n      pop\n        /* \"#utility.yul\":9888:10022   */\n      swap2\n      swap1\n      pop\n      jump\t// out\n        /* \"#utility.yul\":10028:10175   */\n    tag_111:\n        /* \"#utility.yul\":10123:10168   */\n      tag_222\n        /* \"#utility.yul\":10162:10167   */\n      dup2\n        /* \"#utility.yul\":10123:10168   */\n      tag_110\n      jump\t// in\n    tag_222:\n        /* \"#utility.yul\":10118:10121   */\n      dup3\n        /* \"#utility.yul\":10111:10169   */\n      mstore\n        /* \"#utility.yul\":10028:10175   */\n      pop\n      pop\n      jump\t// out\n        /* \"#utility.yul\":10181:10529   */\n    tag_58:\n        /* \"#utility.yul\":10310:10314   */\n      0x00\n        /* \"#utility.yul\":10348:10350   */\n      0x40\n        /* \"#utility.yul\":10337:10346   */\n      dup3\n        /* \"#utility.yul\":10333:10351   */\n      add\n        /* \"#utility.yul\":10325:10351   */\n      swap1\n      pop\n        /* \"#utility.yul\":10361:10440   */\n      tag_224\n        /* \"#utility.yul\":10437:10438   */\n      0x00\n        /* \"#utility.yul\":10426:10435   */\n      dup4\n        /* \"#utility.yul\":10422:10439   */\n      add\n        /* \"#utility.yul\":10413:10419   */\n      dup6\n        /* \"#utility.yul\":10361:10440   */\n      tag_111\n      jump\t// in\n    tag_224:\n        /* \"#utility.yul\":10450:10522   */\n      tag_225\n        /* \"#utility.yul\":10518:10520   */\n      0x20\n        /* \"#utility.yul\":10507:10516   */\n      dup4\n        /* \"#utility.yul\":10503:10521   */\n      add\n        /* \"#utility.yul\":10494:10500   */\n      dup5\n        /* \"#utility.yul\":10450:10522   */\n      tag_83\n      jump\t// in\n    tag_225:\n        /* \"#utility.yul\":10181:10529   */\n      swap4\n      swap3\n      pop\n      pop\n      pop\n      jump\t// out\n        /* \"#utility.yul\":10535:10672   */\n    tag_112:\n        /* \"#utility.yul\":10589:10594   */\n      0x00\n        /* \"#utility.yul\":10620:10626   */\n      dup2\n        /* \"#utility.yul\":10614:10627   */\n      mload\n        /* \"#utility.yul\":10605:10627   */\n      swap1\n      pop\n        /* \"#utility.yul\":10636:10666   */\n      tag_227\n        /* \"#utility.yul\":10660:10665   */\n      dup2\n        /* \"#utility.yul\":10636:10666   */\n      tag_100\n      jump\t// in\n    tag_227:\n        /* \"#utility.yul\":10535:10672   */\n      swap3\n      swap2\n      pop\n      pop\n      jump\t// out\n        /* \"#utility.yul\":10678:11023   */\n    tag_62:\n        /* \"#utility.yul\":10745:10751   */\n      0x00\n        /* \"#utility.yul\":10794:10796   */\n      0x20\n        /* \"#utility.yul\":10782:10791   */\n      dup3\n        /* \"#utility.yul\":10773:10780   */\n      dup5\n        /* \"#utility.yul\":10769:10792   */\n      sub\n        /* \"#utility.yul\":10765:10797   */\n      slt\n        /* \"#utility.yul\":10762:10881   */\n      iszero\n      tag_229\n      jumpi\n        /* \"#utility.yul\":10800:10879   */\n      tag_230\n      tag_85\n      jump\t// in\n    tag_230:\n        /* \"#utility.yul\":10762:10881   */\n    tag_229:\n        /* \"#utility.yul\":10920:10921   */\n      0x00\n        /* \"#utility.yul\":10945:11006   */\n      tag_231\n        /* \"#utility.yul\":10998:11005   */\n      dup5\n        /* \"#utility.yul\":10989:10995   */\n      dup3\n        /* \"#utility.yul\":10978:10987   */\n      dup6\n        /* \"#utility.yul\":10974:10996   */\n      add\n        /* \"#utility.yul\":10945:11006   */\n      tag_112\n      jump\t// in\n    tag_231:\n        /* \"#utility.yul\":10935:11006   */\n      swap2\n      pop\n        /* \"#utility.yul\":10891:11016   */\n      pop\n        /* \"#utility.yul\":10678:11023   */\n      swap3\n      swap2\n      pop\n      pop\n      jump\t// out\n\n    auxdata: 0xa2646970667358221220b929779ff4e6720b9a855dc80b55b7b5f83ae689a7eaed5dc29a6ffdb60ca41064736f6c63430008120033\n}\n",
				"bytecode": {
					"linkReferences": {},
					"object": "60806040523480156200001157600080fd5b50604051620017fc380380620017fc833981810160405281019062000037919062000565565b600084846200004791906200069b565b9050600062093a809050600062530e809050818510156200006757600080fd5b808310156200007557600080fd5b6040518060a001604052808881526020018781526020018681526020018515158152602001600015158152506007600080815260200190815260200160002060008201518160000155602082015181600101556040820151816002015560608201518160030160006101000a81548160ff02191690831515021790555060808201518160030160016101000a81548160ff021916908315150217905550905050600085036200014e5760016007600080815260200190815260200160002060030160016101000a81548160ff0219169083151502179055505b600073ffffffffffffffffffffffffffffffffffffffff168b73ffffffffffffffffffffffffffffffffffffffff16036200018857600080fd5b600073ffffffffffffffffffffffffffffffffffffffff168a73ffffffffffffffffffffffffffffffffffffffff1603620001c257600080fd5b8a600060016101000a81548173ffffffffffffffffffffffffffffffffffffffff021916908373ffffffffffffffffffffffffffffffffffffffff16021790555089600160006101000a81548173ffffffffffffffffffffffffffffffffffffffff021916908373ffffffffffffffffffffffffffffffffffffffff160217905550886003908162000255919062000917565b50876004908162000267919062000917565b50426005819055508973ffffffffffffffffffffffffffffffffffffffff168b73ffffffffffffffffffffffffffffffffffffffff167fa9791d0b29cae9f1171eeb4160f282930ca6a1ee4f5d2760fdb5bee857b6057e8b8b6005548c8c8c8c604051620002dc979695949392919062000a72565b60405180910390a3505050505050505050505062000afd565b6000604051905090565b600080fd5b600080fd5b600073ffffffffffffffffffffffffffffffffffffffff82169050919050565b6000620003368262000309565b9050919050565b620003488162000329565b81146200035457600080fd5b50565b60008151905062000368816200033d565b92915050565b600080fd5b600080fd5b6000601f19601f8301169050919050565b7f4e487b7100000000000000000000000000000000000000000000000000000000600052604160045260246000fd5b620003c38262000378565b810181811067ffffffffffffffff82111715620003e557620003e462000389565b5b80604052505050565b6000620003fa620002f5565b9050620004088282620003b8565b919050565b600067ffffffffffffffff8211156200042b576200042a62000389565b5b620004368262000378565b9050602081019050919050565b60005b838110156200046357808201518184015260208101905062000446565b60008484015250505050565b60006200048662000480846200040d565b620003ee565b905082815260208101848484011115620004a557620004a462000373565b5b620004b284828562000443565b509392505050565b600082601f830112620004d257620004d16200036e565b5b8151620004e48482602086016200046f565b91505092915050565b6000819050919050565b6200050281620004ed565b81146200050e57600080fd5b50565b6000815190506200052281620004f7565b92915050565b60008115159050919050565b6200053f8162000528565b81146200054b57600080fd5b50565b6000815190506200055f8162000534565b92915050565b600080600080600080600080610100898b031215620005895762000588620002ff565b5b6000620005998b828c0162000357565b9850506020620005ac8b828c0162000357565b975050604089015167ffffffffffffffff811115620005d057620005cf62000304565b5b620005de8b828c01620004ba565b965050606089015167ffffffffffffffff81111562000602576200060162000304565b5b620006108b828c01620004ba565b9550506080620006238b828c0162000511565b94505060a0620006368b828c0162000511565b93505060c0620006498b828c0162000511565b92505060e06200065c8b828c016200054e565b9150509295985092959890939650565b7f4e487b7100000000000000000000000000000000000000000000000000000000600052601160045260246000fd5b6000620006a882620004ed565b9150620006b583620004ed565b9250828203905081811115620006d057620006cf6200066c565b5b92915050565b600081519050919050565b7f4e487b7100000000000000000000000000000000000000000000000000000000600052602260045260246000fd5b600060028204905060018216806200072957607f821691505b6020821081036200073f576200073e620006e1565b5b50919050565b60008190508160005260206000209050919050565b60006020601f8301049050919050565b600082821b905092915050565b600060088302620007a97fffffffffffffffffffffffffffffffffffffffffffffffffffffffffffffffff826200076a565b620007b586836200076a565b95508019841693508086168417925050509392505050565b6000819050919050565b6000620007f8620007f2620007ec84620004ed565b620007cd565b620004ed565b9050919050565b6000819050919050565b6200081483620007d7565b6200082c6200082382620007ff565b84845462000777565b825550505050565b600090565b6200084362000834565b6200085081848462000809565b505050565b5b8181101562000878576200086c60008262000839565b60018101905062000856565b5050565b601f821115620008c757620008918162000745565b6200089c846200075a565b81016020851015620008ac578190505b620008c4620008bb856200075a565b83018262000855565b50505b505050565b600082821c905092915050565b6000620008ec60001984600802620008cc565b1980831691505092915050565b6000620009078383620008d9565b9150826002028217905092915050565b6200092282620006d6565b67ffffffffffffffff8111156200093e576200093d62000389565b5b6200094a825462000710565b620009578282856200087c565b600060209050601f8311600181146200098f57600084156200097a578287015190505b620009868582620008f9565b865550620009f6565b601f1984166200099f8662000745565b60005b82811015620009c957848901518255600182019150602085019450602081019050620009a2565b86831015620009e95784890151620009e5601f891682620008d9565b8355505b6001600288020188555050505b505050505050565b600082825260208201905092915050565b600062000a1c82620006d6565b62000a288185620009fe565b935062000a3a81856020860162000443565b62000a458162000378565b840191505092915050565b62000a5b81620004ed565b82525050565b62000a6c8162000528565b82525050565b600060e082019050818103600083015262000a8e818a62000a0f565b9050818103602083015262000aa4818962000a0f565b905062000ab5604083018862000a50565b62000ac4606083018762000a50565b62000ad3608083018662000a50565b62000ae260a083018562000a50565b62000af160c083018462000a61565b98975050505050505050565b610cef8062000b0d6000396000f3fe6080604052600436106100595760003560e01c80630923fe941461010257806324a5af311461013f5780632e1a7d4d1461016857806390b410af14610191578063b9761101146101ce578063dd12776a1461020b576100fd565b366100fd57600060019054906101000a900473ffffffffffffffffffffffffffffffffffffffff1673ffffffffffffffffffffffffffffffffffffffff163373ffffffffffffffffffffffffffffffffffffffff16146100b857600080fd5b600033905060003490507fe1fffcc4923d04b559f4d29a8bfc6cda04eb5b0d3c460751c2402c5c5cc9109c82826040516100f39291906107b2565b60405180910390a1005b600080fd5b34801561010e57600080fd5b5061012960048036038101906101249190610816565b610248565b604051610136919061087a565b60405180910390f35b34801561014b57600080fd5b50610166600480360381019061016191906108c1565b6102bc565b005b34801561017457600080fd5b5061018f600480360381019061018a9190610901565b6103c6565b005b34801561019d57600080fd5b506101b860048036038101906101b39190610a27565b6104ca565b6040516101c59190610a76565b60405180910390f35b3480156101da57600080fd5b506101f560048036038101906101f09190610901565b610592565b6040516102029190610b08565b60405180910390f35b34801561021757600080fd5b50610232600480360381019061022d9190610baf565b610613565b60405161023f9190610a76565b60405180910390f35b610250610710565b600660008373ffffffffffffffffffffffffffffffffffffffff1673ffffffffffffffffffffffffffffffffffffffff1681526020019081526020016000206040518060200160405290816000820160009054906101000a900460ff1615151515815250509050919050565b600060019054906101000a900473ffffffffffffffffffffffffffffffffffffffff1673ffffffffffffffffffffffffffffffffffffffff163373ffffffffffffffffffffffffffffffffffffffff161461031657600080fd5b60008060019054906101000a900473ffffffffffffffffffffffffffffffffffffffff16905060008390508073ffffffffffffffffffffffffffffffffffffffff1663a9059cbb83856040518363ffffffff1660e01b815260040161037c929190610c4e565b6020604051808303816000875af115801561039b573d6000803e3d6000fd5b505050506040513d601f19601f820116820180604052508101906103bf9190610c8c565b5050505050565b600060019054906101000a900473ffffffffffffffffffffffffffffffffffffffff1673ffffffffffffffffffffffffffffffffffffffff163373ffffffffffffffffffffffffffffffffffffffff161461042057600080fd5b60008060019054906101000a900473ffffffffffffffffffffffffffffffffffffffff1690508073ffffffffffffffffffffffffffffffffffffffff166108fc839081150290604051600060405180830381858888f1935050505015801561048c573d6000803e3d6000fd5b507f884edad9ce6fa2440d8a54cc123490eb96d2768479d49ff9c7366125a942436481836040516104be929190610c4e565b60405180910390a15050565b60008060019054906101000a900473ffffffffffffffffffffffffffffffffffffffff1673ffffffffffffffffffffffffffffffffffffffff163373ffffffffffffffffffffffffffffffffffffffff161461052557600080fd5b81600660008573ffffffffffffffffffffffffffffffffffffffff1673ffffffffffffffffffffffffffffffffffffffff16815260200190815260200160002060008201518160000160006101000a81548160ff0219169083151502179055509050506001905092915050565b61059a610725565b600760008381526020019081526020016000206040518060a00160405290816000820154815260200160018201548152602001600282015481526020016003820160009054906101000a900460ff161515151581526020016003820160019054906101000a900460ff1615151515815250509050919050565b60008060019054906101000a900473ffffffffffffffffffffffffffffffffffffffff1673ffffffffffffffffffffffffffffffffffffffff163373ffffffffffffffffffffffffffffffffffffffff161461066e57600080fd5b426007600085815260200190815260200160002060000154101561069157600080fd5b816007600085815260200190815260200160002060008201518160000155602082015181600101556040820151816002015560608201518160030160006101000a81548160ff02191690831515021790555060808201518160030160016101000a81548160ff0219169083151502179055509050506001905092915050565b60405180602001604052806000151581525090565b6040518060a001604052806000815260200160008152602001600081526020016000151581526020016000151581525090565b600073ffffffffffffffffffffffffffffffffffffffff82169050919050565b600061078382610758565b9050919050565b61079381610778565b82525050565b6000819050919050565b6107ac81610799565b82525050565b60006040820190506107c7600083018561078a565b6107d460208301846107a3565b9392505050565b6000604051905090565b600080fd5b6107f381610778565b81146107fe57600080fd5b50565b600081359050610810816107ea565b92915050565b60006020828403121561082c5761082b6107e5565b5b600061083a84828501610801565b91505092915050565b60008115159050919050565b61085881610843565b82525050565b602082016000820151610874600085018261084f565b50505050565b600060208201905061088f600083018461085e565b92915050565b61089e81610799565b81146108a957600080fd5b50565b6000813590506108bb81610895565b92915050565b600080604083850312156108d8576108d76107e5565b5b60006108e685828601610801565b92505060206108f7858286016108ac565b9150509250929050565b600060208284031215610917576109166107e5565b5b6000610925848285016108ac565b91505092915050565b600080fd5b6000601f19601f8301169050919050565b7f4e487b7100000000000000000000000000000000000000000000000000000000600052604160045260246000fd5b61097c82610933565b810181811067ffffffffffffffff8211171561099b5761099a610944565b5b80604052505050565b60006109ae6107db565b90506109ba8282610973565b919050565b6109c881610843565b81146109d357600080fd5b50565b6000813590506109e5816109bf565b92915050565b600060208284031215610a0157610a0061092e565b5b610a0b60206109a4565b90506000610a1b848285016109d6565b60008301525092915050565b60008060408385031215610a3e57610a3d6107e5565b5b6000610a4c85828601610801565b9250506020610a5d858286016109eb565b9150509250929050565b610a7081610843565b82525050565b6000602082019050610a8b6000830184610a67565b92915050565b610a9a81610799565b82525050565b60a082016000820151610ab66000850182610a91565b506020820151610ac96020850182610a91565b506040820151610adc6040850182610a91565b506060820151610aef606085018261084f565b506080820151610b02608085018261084f565b50505050565b600060a082019050610b1d6000830184610aa0565b92915050565b600060a08284031215610b3957610b3861092e565b5b610b4360a06109a4565b90506000610b53848285016108ac565b6000830152506020610b67848285016108ac565b6020830152506040610b7b848285016108ac565b6040830152506060610b8f848285016109d6565b6060830152506080610ba3848285016109d6565b60808301525092915050565b60008060c08385031215610bc657610bc56107e5565b5b6000610bd4858286016108ac565b9250506020610be585828601610b23565b9150509250929050565b6000819050919050565b6000610c14610c0f610c0a84610758565b610bef565b610758565b9050919050565b6000610c2682610bf9565b9050919050565b6000610c3882610c1b565b9050919050565b610c4881610c2d565b82525050565b6000604082019050610c636000830185610c3f565b610c7060208301846107a3565b9392505050565b600081519050610c86816109bf565b92915050565b600060208284031215610ca257610ca16107e5565b5b6000610cb084828501610c77565b9150509291505056fea2646970667358221220b929779ff4e6720b9a855dc80b55b7b5f83ae689a7eaed5dc29a6ffdb60ca41064736f6c63430008120033",
					"opcodes": "PUSH1 0x80 PUSH1 0x40 MSTORE CALLVALUE DUP1 ISZERO PUSH3 0x11 JUMPI PUSH1 0x0 DUP1 REVERT JUMPDEST POP PUSH1 0x40 MLOAD PUSH3 0x17FC CODESIZE SUB DUP1 PUSH3 0x17FC DUP4 CODECOPY DUP2 DUP2 ADD PUSH1 0x40 MSTORE DUP2 ADD SWAP1 PUSH3 0x37 SWAP2 SWAP1 PUSH3 0x565 JUMP JUMPDEST PUSH1 0x0 DUP5 DUP5 PUSH3 0x47 SWAP2 SWAP1 PUSH3 0x69B JUMP JUMPDEST SWAP1 POP PUSH1 0x0 PUSH3 0x93A80 SWAP1 POP PUSH1 0x0 PUSH3 0x530E80 SWAP1 POP DUP2 DUP6 LT ISZERO PUSH3 0x67 JUMPI PUSH1 0x0 DUP1 REVERT JUMPDEST DUP1 DUP4 LT ISZERO PUSH3 0x75 JUMPI PUSH1 0x0 DUP1 REVERT JUMPDEST PUSH1 0x40 MLOAD DUP1 PUSH1 0xA0 ADD PUSH1 0x40 MSTORE DUP1 DUP9 DUP2 MSTORE PUSH1 0x20 ADD DUP8 DUP2 MSTORE PUSH1 0x20 ADD DUP7 DUP2 MSTORE PUSH1 0x20 ADD DUP6 ISZERO ISZERO DUP2 MSTORE PUSH1 0x20 ADD PUSH1 0x0 ISZERO ISZERO DUP2 MSTORE POP PUSH1 0x7 PUSH1 0x0 DUP1 DUP2 MSTORE PUSH1 0x20 ADD SWAP1 DUP2 MSTORE PUSH1 0x20 ADD PUSH1 0x0 KECCAK256 PUSH1 0x0 DUP3 ADD MLOAD DUP2 PUSH1 0x0 ADD SSTORE PUSH1 0x20 DUP3 ADD MLOAD DUP2 PUSH1 0x1 ADD SSTORE PUSH1 0x40 DUP3 ADD MLOAD DUP2 PUSH1 0x2 ADD SSTORE PUSH1 0x60 DUP3 ADD MLOAD DUP2 PUSH1 0x3 ADD PUSH1 0x0 PUSH2 0x100 EXP DUP2 SLOAD DUP2 PUSH1 0xFF MUL NOT AND SWAP1 DUP4 ISZERO ISZERO MUL OR SWAP1 SSTORE POP PUSH1 0x80 DUP3 ADD MLOAD DUP2 PUSH1 0x3 ADD PUSH1 0x1 PUSH2 0x100 EXP DUP2 SLOAD DUP2 PUSH1 0xFF MUL NOT AND SWAP1 DUP4 ISZERO ISZERO MUL OR SWAP1 SSTORE POP SWAP1 POP POP PUSH1 0x0 DUP6 SUB PUSH3 0x14E JUMPI PUSH1 0x1 PUSH1 0x7 PUSH1 0x0 DUP1 DUP2 MSTORE PUSH1 0x20 ADD SWAP1 DUP2 MSTORE PUSH1 0x20 ADD PUSH1 0x0 KECCAK256 PUSH1 0x3 ADD PUSH1 0x1 PUSH2 0x100 EXP DUP2 SLOAD DUP2 PUSH1 0xFF MUL NOT AND SWAP1 DUP4 ISZERO ISZERO MUL OR SWAP1 SSTORE POP JUMPDEST PUSH1 0x0 PUSH20 0xFFFFFFFFFFFFFFFFFFFFFFFFFFFFFFFFFFFFFFFF AND DUP12 PUSH20 0xFFFFFFFFFFFFFFFFFFFFFFFFFFFFFFFFFFFFFFFF AND SUB PUSH3 0x188 JUMPI PUSH1 0x0 DUP1 REVERT JUMPDEST PUSH1 0x0 PUSH20 0xFFFFFFFFFFFFFFFFFFFFFFFFFFFFFFFFFFFFFFFF AND DUP11 PUSH20 0xFFFFFFFFFFFFFFFFFFFFFFFFFFFFFFFFFFFFFFFF AND SUB PUSH3 0x1C2 JUMPI PUSH1 0x0 DUP1 REVERT JUMPDEST DUP11 PUSH1 0x0 PUSH1 0x1 PUSH2 0x100 EXP DUP2 SLOAD DUP2 PUSH20 0xFFFFFFFFFFFFFFFFFFFFFFFFFFFFFFFFFFFFFFFF MUL NOT AND SWAP1 DUP4 PUSH20 0xFFFFFFFFFFFFFFFFFFFFFFFFFFFFFFFFFFFFFFFF AND MUL OR SWAP1 SSTORE POP DUP10 PUSH1 0x1 PUSH1 0x0 PUSH2 0x100 EXP DUP2 SLOAD DUP2 PUSH20 0xFFFFFFFFFFFFFFFFFFFFFFFFFFFFFFFFFFFFFFFF MUL NOT AND SWAP1 DUP4 PUSH20 0xFFFFFFFFFFFFFFFFFFFFFFFFFFFFFFFFFFFFFFFF AND MUL OR SWAP1 SSTORE POP DUP9 PUSH1 0x3 SWAP1 DUP2 PUSH3 0x255 SWAP2 SWAP1 PUSH3 0x917 JUMP JUMPDEST POP DUP8 PUSH1 0x4 SWAP1 DUP2 PUSH3 0x267 SWAP2 SWAP1 PUSH3 0x917 JUMP JUMPDEST POP TIMESTAMP PUSH1 0x5 DUP2 SWAP1 SSTORE POP DUP10 PUSH20 0xFFFFFFFFFFFFFFFFFFFFFFFFFFFFFFFFFFFFFFFF AND DUP12 PUSH20 0xFFFFFFFFFFFFFFFFFFFFFFFFFFFFFFFFFFFFFFFF AND PUSH32 0xA9791D0B29CAE9F1171EEB4160F282930CA6A1EE4F5D2760FDB5BEE857B6057E DUP12 DUP12 PUSH1 0x5 SLOAD DUP13 DUP13 DUP13 DUP13 PUSH1 0x40 MLOAD PUSH3 0x2DC SWAP8 SWAP7 SWAP6 SWAP5 SWAP4 SWAP3 SWAP2 SWAP1 PUSH3 0xA72 JUMP JUMPDEST PUSH1 0x40 MLOAD DUP1 SWAP2 SUB SWAP1 LOG3 POP POP POP POP POP POP POP POP POP POP POP PUSH3 0xAFD JUMP JUMPDEST PUSH1 0x0 PUSH1 0x40 MLOAD SWAP1 POP SWAP1 JUMP JUMPDEST PUSH1 0x0 DUP1 REVERT JUMPDEST PUSH1 0x0 DUP1 REVERT JUMPDEST PUSH1 0x0 PUSH20 0xFFFFFFFFFFFFFFFFFFFFFFFFFFFFFFFFFFFFFFFF DUP3 AND SWAP1 POP SWAP2 SWAP1 POP JUMP JUMPDEST PUSH1 0x0 PUSH3 0x336 DUP3 PUSH3 0x309 JUMP JUMPDEST SWAP1 POP SWAP2 SWAP1 POP JUMP JUMPDEST PUSH3 0x348 DUP2 PUSH3 0x329 JUMP JUMPDEST DUP2 EQ PUSH3 0x354 JUMPI PUSH1 0x0 DUP1 REVERT JUMPDEST POP JUMP JUMPDEST PUSH1 0x0 DUP2 MLOAD SWAP1 POP PUSH3 0x368 DUP2 PUSH3 0x33D JUMP JUMPDEST SWAP3 SWAP2 POP POP JUMP JUMPDEST PUSH1 0x0 DUP1 REVERT JUMPDEST PUSH1 0x0 DUP1 REVERT JUMPDEST PUSH1 0x0 PUSH1 0x1F NOT PUSH1 0x1F DUP4 ADD AND SWAP1 POP SWAP2 SWAP1 POP JUMP JUMPDEST PUSH32 0x4E487B7100000000000000000000000000000000000000000000000000000000 PUSH1 0x0 MSTORE PUSH1 0x41 PUSH1 0x4 MSTORE PUSH1 0x24 PUSH1 0x0 REVERT JUMPDEST PUSH3 0x3C3 DUP3 PUSH3 0x378 JUMP JUMPDEST DUP2 ADD DUP2 DUP2 LT PUSH8 0xFFFFFFFFFFFFFFFF DUP3 GT OR ISZERO PUSH3 0x3E5 JUMPI PUSH3 0x3E4 PUSH3 0x389 JUMP JUMPDEST JUMPDEST DUP1 PUSH1 0x40 MSTORE POP POP POP JUMP JUMPDEST PUSH1 0x0 PUSH3 0x3FA PUSH3 0x2F5 JUMP JUMPDEST SWAP1 POP PUSH3 0x408 DUP3 DUP3 PUSH3 0x3B8 JUMP JUMPDEST SWAP2 SWAP1 POP JUMP JUMPDEST PUSH1 0x0 PUSH8 0xFFFFFFFFFFFFFFFF DUP3 GT ISZERO PUSH3 0x42B JUMPI PUSH3 0x42A PUSH3 0x389 JUMP JUMPDEST JUMPDEST PUSH3 0x436 DUP3 PUSH3 0x378 JUMP JUMPDEST SWAP1 POP PUSH1 0x20 DUP2 ADD SWAP1 POP SWAP2 SWAP1 POP JUMP JUMPDEST PUSH1 0x0 JUMPDEST DUP4 DUP2 LT ISZERO PUSH3 0x463 JUMPI DUP1 DUP3 ADD MLOAD DUP2 DUP5 ADD MSTORE PUSH1 0x20 DUP2 ADD SWAP1 POP PUSH3 0x446 JUMP JUMPDEST PUSH1 0x0 DUP5 DUP5 ADD MSTORE POP POP POP POP JUMP JUMPDEST PUSH1 0x0 PUSH3 0x486 PUSH3 0x480 DUP5 PUSH3 0x40D JUMP JUMPDEST PUSH3 0x3EE JUMP JUMPDEST SWAP1 POP DUP3 DUP2 MSTORE PUSH1 0x20 DUP2 ADD DUP5 DUP5 DUP5 ADD GT ISZERO PUSH3 0x4A5 JUMPI PUSH3 0x4A4 PUSH3 0x373 JUMP JUMPDEST JUMPDEST PUSH3 0x4B2 DUP5 DUP3 DUP6 PUSH3 0x443 JUMP JUMPDEST POP SWAP4 SWAP3 POP POP POP JUMP JUMPDEST PUSH1 0x0 DUP3 PUSH1 0x1F DUP4 ADD SLT PUSH3 0x4D2 JUMPI PUSH3 0x4D1 PUSH3 0x36E JUMP JUMPDEST JUMPDEST DUP2 MLOAD PUSH3 0x4E4 DUP5 DUP3 PUSH1 0x20 DUP7 ADD PUSH3 0x46F JUMP JUMPDEST SWAP2 POP POP SWAP3 SWAP2 POP POP JUMP JUMPDEST PUSH1 0x0 DUP2 SWAP1 POP SWAP2 SWAP1 POP JUMP JUMPDEST PUSH3 0x502 DUP2 PUSH3 0x4ED JUMP JUMPDEST DUP2 EQ PUSH3 0x50E JUMPI PUSH1 0x0 DUP1 REVERT JUMPDEST POP JUMP JUMPDEST PUSH1 0x0 DUP2 MLOAD SWAP1 POP PUSH3 0x522 DUP2 PUSH3 0x4F7 JUMP JUMPDEST SWAP3 SWAP2 POP POP JUMP JUMPDEST PUSH1 0x0 DUP2 ISZERO ISZERO SWAP1 POP SWAP2 SWAP1 POP JUMP JUMPDEST PUSH3 0x53F DUP2 PUSH3 0x528 JUMP JUMPDEST DUP2 EQ PUSH3 0x54B JUMPI PUSH1 0x0 DUP1 REVERT JUMPDEST POP JUMP JUMPDEST PUSH1 0x0 DUP2 MLOAD SWAP1 POP PUSH3 0x55F DUP2 PUSH3 0x534 JUMP JUMPDEST SWAP3 SWAP2 POP POP JUMP JUMPDEST PUSH1 0x0 DUP1 PUSH1 0x0 DUP1 PUSH1 0x0 DUP1 PUSH1 0x0 DUP1 PUSH2 0x100 DUP10 DUP12 SUB SLT ISZERO PUSH3 0x589 JUMPI PUSH3 0x588 PUSH3 0x2FF JUMP JUMPDEST JUMPDEST PUSH1 0x0 PUSH3 0x599 DUP12 DUP3 DUP13 ADD PUSH3 0x357 JUMP JUMPDEST SWAP9 POP POP PUSH1 0x20 PUSH3 0x5AC DUP12 DUP3 DUP13 ADD PUSH3 0x357 JUMP JUMPDEST SWAP8 POP POP PUSH1 0x40 DUP10 ADD MLOAD PUSH8 0xFFFFFFFFFFFFFFFF DUP2 GT ISZERO PUSH3 0x5D0 JUMPI PUSH3 0x5CF PUSH3 0x304 JUMP JUMPDEST JUMPDEST PUSH3 0x5DE DUP12 DUP3 DUP13 ADD PUSH3 0x4BA JUMP JUMPDEST SWAP7 POP POP PUSH1 0x60 DUP10 ADD MLOAD PUSH8 0xFFFFFFFFFFFFFFFF DUP2 GT ISZERO PUSH3 0x602 JUMPI PUSH3 0x601 PUSH3 0x304 JUMP JUMPDEST JUMPDEST PUSH3 0x610 DUP12 DUP3 DUP13 ADD PUSH3 0x4BA JUMP JUMPDEST SWAP6 POP POP PUSH1 0x80 PUSH3 0x623 DUP12 DUP3 DUP13 ADD PUSH3 0x511 JUMP JUMPDEST SWAP5 POP POP PUSH1 0xA0 PUSH3 0x636 DUP12 DUP3 DUP13 ADD PUSH3 0x511 JUMP JUMPDEST SWAP4 POP POP PUSH1 0xC0 PUSH3 0x649 DUP12 DUP3 DUP13 ADD PUSH3 0x511 JUMP JUMPDEST SWAP3 POP POP PUSH1 0xE0 PUSH3 0x65C DUP12 DUP3 DUP13 ADD PUSH3 0x54E JUMP JUMPDEST SWAP2 POP POP SWAP3 SWAP6 SWAP9 POP SWAP3 SWAP6 SWAP9 SWAP1 SWAP4 SWAP7 POP JUMP JUMPDEST PUSH32 0x4E487B7100000000000000000000000000000000000000000000000000000000 PUSH1 0x0 MSTORE PUSH1 0x11 PUSH1 0x4 MSTORE PUSH1 0x24 PUSH1 0x0 REVERT JUMPDEST PUSH1 0x0 PUSH3 0x6A8 DUP3 PUSH3 0x4ED JUMP JUMPDEST SWAP2 POP PUSH3 0x6B5 DUP4 PUSH3 0x4ED JUMP JUMPDEST SWAP3 POP DUP3 DUP3 SUB SWAP1 POP DUP2 DUP2 GT ISZERO PUSH3 0x6D0 JUMPI PUSH3 0x6CF PUSH3 0x66C JUMP JUMPDEST JUMPDEST SWAP3 SWAP2 POP POP JUMP JUMPDEST PUSH1 0x0 DUP2 MLOAD SWAP1 POP SWAP2 SWAP1 POP JUMP JUMPDEST PUSH32 0x4E487B7100000000000000000000000000000000000000000000000000000000 PUSH1 0x0 MSTORE PUSH1 0x22 PUSH1 0x4 MSTORE PUSH1 0x24 PUSH1 0x0 REVERT JUMPDEST PUSH1 0x0 PUSH1 0x2 DUP3 DIV SWAP1 POP PUSH1 0x1 DUP3 AND DUP1 PUSH3 0x729 JUMPI PUSH1 0x7F DUP3 AND SWAP2 POP JUMPDEST PUSH1 0x20 DUP3 LT DUP2 SUB PUSH3 0x73F JUMPI PUSH3 0x73E PUSH3 0x6E1 JUMP JUMPDEST JUMPDEST POP SWAP2 SWAP1 POP JUMP JUMPDEST PUSH1 0x0 DUP2 SWAP1 POP DUP2 PUSH1 0x0 MSTORE PUSH1 0x20 PUSH1 0x0 KECCAK256 SWAP1 POP SWAP2 SWAP1 POP JUMP JUMPDEST PUSH1 0x0 PUSH1 0x20 PUSH1 0x1F DUP4 ADD DIV SWAP1 POP SWAP2 SWAP1 POP JUMP JUMPDEST PUSH1 0x0 DUP3 DUP3 SHL SWAP1 POP SWAP3 SWAP2 POP POP JUMP JUMPDEST PUSH1 0x0 PUSH1 0x8 DUP4 MUL PUSH3 0x7A9 PUSH32 0xFFFFFFFFFFFFFFFFFFFFFFFFFFFFFFFFFFFFFFFFFFFFFFFFFFFFFFFFFFFFFFFF DUP3 PUSH3 0x76A JUMP JUMPDEST PUSH3 0x7B5 DUP7 DUP4 PUSH3 0x76A JUMP JUMPDEST SWAP6 POP DUP1 NOT DUP5 AND SWAP4 POP DUP1 DUP7 AND DUP5 OR SWAP3 POP POP POP SWAP4 SWAP3 POP POP POP JUMP JUMPDEST PUSH1 0x0 DUP2 SWAP1 POP SWAP2 SWAP1 POP JUMP JUMPDEST PUSH1 0x0 PUSH3 0x7F8 PUSH3 0x7F2 PUSH3 0x7EC DUP5 PUSH3 0x4ED JUMP JUMPDEST PUSH3 0x7CD JUMP JUMPDEST PUSH3 0x4ED JUMP JUMPDEST SWAP1 POP SWAP2 SWAP1 POP JUMP JUMPDEST PUSH1 0x0 DUP2 SWAP1 POP SWAP2 SWAP1 POP JUMP JUMPDEST PUSH3 0x814 DUP4 PUSH3 0x7D7 JUMP JUMPDEST PUSH3 0x82C PUSH3 0x823 DUP3 PUSH3 0x7FF JUMP JUMPDEST DUP5 DUP5 SLOAD PUSH3 0x777 JUMP JUMPDEST DUP3 SSTORE POP POP POP POP JUMP JUMPDEST PUSH1 0x0 SWAP1 JUMP JUMPDEST PUSH3 0x843 PUSH3 0x834 JUMP JUMPDEST PUSH3 0x850 DUP2 DUP5 DUP5 PUSH3 0x809 JUMP JUMPDEST POP POP POP JUMP JUMPDEST JUMPDEST DUP2 DUP2 LT ISZERO PUSH3 0x878 JUMPI PUSH3 0x86C PUSH1 0x0 DUP3 PUSH3 0x839 JUMP JUMPDEST PUSH1 0x1 DUP2 ADD SWAP1 POP PUSH3 0x856 JUMP JUMPDEST POP POP JUMP JUMPDEST PUSH1 0x1F DUP3 GT ISZERO PUSH3 0x8C7 JUMPI PUSH3 0x891 DUP2 PUSH3 0x745 JUMP JUMPDEST PUSH3 0x89C DUP5 PUSH3 0x75A JUMP JUMPDEST DUP2 ADD PUSH1 0x20 DUP6 LT ISZERO PUSH3 0x8AC JUMPI DUP2 SWAP1 POP JUMPDEST PUSH3 0x8C4 PUSH3 0x8BB DUP6 PUSH3 0x75A JUMP JUMPDEST DUP4 ADD DUP3 PUSH3 0x855 JUMP JUMPDEST POP POP JUMPDEST POP POP POP JUMP JUMPDEST PUSH1 0x0 DUP3 DUP3 SHR SWAP1 POP SWAP3 SWAP2 POP POP JUMP JUMPDEST PUSH1 0x0 PUSH3 0x8EC PUSH1 0x0 NOT DUP5 PUSH1 0x8 MUL PUSH3 0x8CC JUMP JUMPDEST NOT DUP1 DUP4 AND SWAP2 POP POP SWAP3 SWAP2 POP POP JUMP JUMPDEST PUSH1 0x0 PUSH3 0x907 DUP4 DUP4 PUSH3 0x8D9 JUMP JUMPDEST SWAP2 POP DUP3 PUSH1 0x2 MUL DUP3 OR SWAP1 POP SWAP3 SWAP2 POP POP JUMP JUMPDEST PUSH3 0x922 DUP3 PUSH3 0x6D6 JUMP JUMPDEST PUSH8 0xFFFFFFFFFFFFFFFF DUP2 GT ISZERO PUSH3 0x93E JUMPI PUSH3 0x93D PUSH3 0x389 JUMP JUMPDEST JUMPDEST PUSH3 0x94A DUP3 SLOAD PUSH3 0x710 JUMP JUMPDEST PUSH3 0x957 DUP3 DUP3 DUP6 PUSH3 0x87C JUMP JUMPDEST PUSH1 0x0 PUSH1 0x20 SWAP1 POP PUSH1 0x1F DUP4 GT PUSH1 0x1 DUP2 EQ PUSH3 0x98F JUMPI PUSH1 0x0 DUP5 ISZERO PUSH3 0x97A JUMPI DUP3 DUP8 ADD MLOAD SWAP1 POP JUMPDEST PUSH3 0x986 DUP6 DUP3 PUSH3 0x8F9 JUMP JUMPDEST DUP7 SSTORE POP PUSH3 0x9F6 JUMP JUMPDEST PUSH1 0x1F NOT DUP5 AND PUSH3 0x99F DUP7 PUSH3 0x745 JUMP JUMPDEST PUSH1 0x0 JUMPDEST DUP3 DUP2 LT ISZERO PUSH3 0x9C9 JUMPI DUP5 DUP10 ADD MLOAD DUP3 SSTORE PUSH1 0x1 DUP3 ADD SWAP2 POP PUSH1 0x20 DUP6 ADD SWAP5 POP PUSH1 0x20 DUP2 ADD SWAP1 POP PUSH3 0x9A2 JUMP JUMPDEST DUP7 DUP4 LT ISZERO PUSH3 0x9E9 JUMPI DUP5 DUP10 ADD MLOAD PUSH3 0x9E5 PUSH1 0x1F DUP10 AND DUP3 PUSH3 0x8D9 JUMP JUMPDEST DUP4 SSTORE POP JUMPDEST PUSH1 0x1 PUSH1 0x2 DUP9 MUL ADD DUP9 SSTORE POP POP POP JUMPDEST POP POP POP POP POP POP JUMP JUMPDEST PUSH1 0x0 DUP3 DUP3 MSTORE PUSH1 0x20 DUP3 ADD SWAP1 POP SWAP3 SWAP2 POP POP JUMP JUMPDEST PUSH1 0x0 PUSH3 0xA1C DUP3 PUSH3 0x6D6 JUMP JUMPDEST PUSH3 0xA28 DUP2 DUP6 PUSH3 0x9FE JUMP JUMPDEST SWAP4 POP PUSH3 0xA3A DUP2 DUP6 PUSH1 0x20 DUP7 ADD PUSH3 0x443 JUMP JUMPDEST PUSH3 0xA45 DUP2 PUSH3 0x378 JUMP JUMPDEST DUP5 ADD SWAP2 POP POP SWAP3 SWAP2 POP POP JUMP JUMPDEST PUSH3 0xA5B DUP2 PUSH3 0x4ED JUMP JUMPDEST DUP3 MSTORE POP POP JUMP JUMPDEST PUSH3 0xA6C DUP2 PUSH3 0x528 JUMP JUMPDEST DUP3 MSTORE POP POP JUMP JUMPDEST PUSH1 0x0 PUSH1 0xE0 DUP3 ADD SWAP1 POP DUP2 DUP2 SUB PUSH1 0x0 DUP4 ADD MSTORE PUSH3 0xA8E DUP2 DUP11 PUSH3 0xA0F JUMP JUMPDEST SWAP1 POP DUP2 DUP2 SUB PUSH1 0x20 DUP4 ADD MSTORE PUSH3 0xAA4 DUP2 DUP10 PUSH3 0xA0F JUMP JUMPDEST SWAP1 POP PUSH3 0xAB5 PUSH1 0x40 DUP4 ADD DUP9 PUSH3 0xA50 JUMP JUMPDEST PUSH3 0xAC4 PUSH1 0x60 DUP4 ADD DUP8 PUSH3 0xA50 JUMP JUMPDEST PUSH3 0xAD3 PUSH1 0x80 DUP4 ADD DUP7 PUSH3 0xA50 JUMP JUMPDEST PUSH3 0xAE2 PUSH1 0xA0 DUP4 ADD DUP6 PUSH3 0xA50 JUMP JUMPDEST PUSH3 0xAF1 PUSH1 0xC0 DUP4 ADD DUP5 PUSH3 0xA61 JUMP JUMPDEST SWAP9 SWAP8 POP POP POP POP POP POP POP POP JUMP JUMPDEST PUSH2 0xCEF DUP1 PUSH3 0xB0D PUSH1 0x0 CODECOPY PUSH1 0x0 RETURN INVALID PUSH1 0x80 PUSH1 0x40 MSTORE PUSH1 0x4 CALLDATASIZE LT PUSH2 0x59 JUMPI PUSH1 0x0 CALLDATALOAD PUSH1 0xE0 SHR DUP1 PUSH4 0x923FE94 EQ PUSH2 0x102 JUMPI DUP1 PUSH4 0x24A5AF31 EQ PUSH2 0x13F JUMPI DUP1 PUSH4 0x2E1A7D4D EQ PUSH2 0x168 JUMPI DUP1 PUSH4 0x90B410AF EQ PUSH2 0x191 JUMPI DUP1 PUSH4 0xB9761101 EQ PUSH2 0x1CE JUMPI DUP1 PUSH4 0xDD12776A EQ PUSH2 0x20B JUMPI PUSH2 0xFD JUMP JUMPDEST CALLDATASIZE PUSH2 0xFD JUMPI PUSH1 0x0 PUSH1 0x1 SWAP1 SLOAD SWAP1 PUSH2 0x100 EXP SWAP1 DIV PUSH20 0xFFFFFFFFFFFFFFFFFFFFFFFFFFFFFFFFFFFFFFFF AND PUSH20 0xFFFFFFFFFFFFFFFFFFFFFFFFFFFFFFFFFFFFFFFF AND CALLER PUSH20 0xFFFFFFFFFFFFFFFFFFFFFFFFFFFFFFFFFFFFFFFF AND EQ PUSH2 0xB8 JUMPI PUSH1 0x0 DUP1 REVERT JUMPDEST PUSH1 0x0 CALLER SWAP1 POP PUSH1 0x0 CALLVALUE SWAP1 POP PUSH32 0xE1FFFCC4923D04B559F4D29A8BFC6CDA04EB5B0D3C460751C2402C5C5CC9109C DUP3 DUP3 PUSH1 0x40 MLOAD PUSH2 0xF3 SWAP3 SWAP2 SWAP1 PUSH2 0x7B2 JUMP JUMPDEST PUSH1 0x40 MLOAD DUP1 SWAP2 SUB SWAP1 LOG1 STOP JUMPDEST PUSH1 0x0 DUP1 REVERT JUMPDEST CALLVALUE DUP1 ISZERO PUSH2 0x10E JUMPI PUSH1 0x0 DUP1 REVERT JUMPDEST POP PUSH2 0x129 PUSH1 0x4 DUP1 CALLDATASIZE SUB DUP2 ADD SWAP1 PUSH2 0x124 SWAP2 SWAP1 PUSH2 0x816 JUMP JUMPDEST PUSH2 0x248 JUMP JUMPDEST PUSH1 0x40 MLOAD PUSH2 0x136 SWAP2 SWAP1 PUSH2 0x87A JUMP JUMPDEST PUSH1 0x40 MLOAD DUP1 SWAP2 SUB SWAP1 RETURN JUMPDEST CALLVALUE DUP1 ISZERO PUSH2 0x14B JUMPI PUSH1 0x0 DUP1 REVERT JUMPDEST POP PUSH2 0x166 PUSH1 0x4 DUP1 CALLDATASIZE SUB DUP2 ADD SWAP1 PUSH2 0x161 SWAP2 SWAP1 PUSH2 0x8C1 JUMP JUMPDEST PUSH2 0x2BC JUMP JUMPDEST STOP JUMPDEST CALLVALUE DUP1 ISZERO PUSH2 0x174 JUMPI PUSH1 0x0 DUP1 REVERT JUMPDEST POP PUSH2 0x18F PUSH1 0x4 DUP1 CALLDATASIZE SUB DUP2 ADD SWAP1 PUSH2 0x18A SWAP2 SWAP1 PUSH2 0x901 JUMP JUMPDEST PUSH2 0x3C6 JUMP JUMPDEST STOP JUMPDEST CALLVALUE DUP1 ISZERO PUSH2 0x19D JUMPI PUSH1 0x0 DUP1 REVERT JUMPDEST POP PUSH2 0x1B8 PUSH1 0x4 DUP1 CALLDATASIZE SUB DUP2 ADD SWAP1 PUSH2 0x1B3 SWAP2 SWAP1 PUSH2 0xA27 JUMP JUMPDEST PUSH2 0x4CA JUMP JUMPDEST PUSH1 0x40 MLOAD PUSH2 0x1C5 SWAP2 SWAP1 PUSH2 0xA76 JUMP JUMPDEST PUSH1 0x40 MLOAD DUP1 SWAP2 SUB SWAP1 RETURN JUMPDEST CALLVALUE DUP1 ISZERO PUSH2 0x1DA JUMPI PUSH1 0x0 DUP1 REVERT JUMPDEST POP PUSH2 0x1F5 PUSH1 0x4 DUP1 CALLDATASIZE SUB DUP2 ADD SWAP1 PUSH2 0x1F0 SWAP2 SWAP1 PUSH2 0x901 JUMP JUMPDEST PUSH2 0x592 JUMP JUMPDEST PUSH1 0x40 MLOAD PUSH2 0x202 SWAP2 SWAP1 PUSH2 0xB08 JUMP JUMPDEST PUSH1 0x40 MLOAD DUP1 SWAP2 SUB SWAP1 RETURN JUMPDEST CALLVALUE DUP1 ISZERO PUSH2 0x217 JUMPI PUSH1 0x0 DUP1 REVERT JUMPDEST POP PUSH2 0x232 PUSH1 0x4 DUP1 CALLDATASIZE SUB DUP2 ADD SWAP1 PUSH2 0x22D SWAP2 SWAP1 PUSH2 0xBAF JUMP JUMPDEST PUSH2 0x613 JUMP JUMPDEST PUSH1 0x40 MLOAD PUSH2 0x23F SWAP2 SWAP1 PUSH2 0xA76 JUMP JUMPDEST PUSH1 0x40 MLOAD DUP1 SWAP2 SUB SWAP1 RETURN JUMPDEST PUSH2 0x250 PUSH2 0x710 JUMP JUMPDEST PUSH1 0x6 PUSH1 0x0 DUP4 PUSH20 0xFFFFFFFFFFFFFFFFFFFFFFFFFFFFFFFFFFFFFFFF AND PUSH20 0xFFFFFFFFFFFFFFFFFFFFFFFFFFFFFFFFFFFFFFFF AND DUP2 MSTORE PUSH1 0x20 ADD SWAP1 DUP2 MSTORE PUSH1 0x20 ADD PUSH1 0x0 KECCAK256 PUSH1 0x40 MLOAD DUP1 PUSH1 0x20 ADD PUSH1 0x40 MSTORE SWAP1 DUP2 PUSH1 0x0 DUP3 ADD PUSH1 0x0 SWAP1 SLOAD SWAP1 PUSH2 0x100 EXP SWAP1 DIV PUSH1 0xFF AND ISZERO ISZERO ISZERO ISZERO DUP2 MSTORE POP POP SWAP1 POP SWAP2 SWAP1 POP JUMP JUMPDEST PUSH1 0x0 PUSH1 0x1 SWAP1 SLOAD SWAP1 PUSH2 0x100 EXP SWAP1 DIV PUSH20 0xFFFFFFFFFFFFFFFFFFFFFFFFFFFFFFFFFFFFFFFF AND PUSH20 0xFFFFFFFFFFFFFFFFFFFFFFFFFFFFFFFFFFFFFFFF AND CALLER PUSH20 0xFFFFFFFFFFFFFFFFFFFFFFFFFFFFFFFFFFFFFFFF AND EQ PUSH2 0x316 JUMPI PUSH1 0x0 DUP1 REVERT JUMPDEST PUSH1 0x0 DUP1 PUSH1 0x1 SWAP1 SLOAD SWAP1 PUSH2 0x100 EXP SWAP1 DIV PUSH20 0xFFFFFFFFFFFFFFFFFFFFFFFFFFFFFFFFFFFFFFFF AND SWAP1 POP PUSH1 0x0 DUP4 SWAP1 POP DUP1 PUSH20 0xFFFFFFFFFFFFFFFFFFFFFFFFFFFFFFFFFFFFFFFF AND PUSH4 0xA9059CBB DUP4 DUP6 PUSH1 0x40 MLOAD DUP4 PUSH4 0xFFFFFFFF AND PUSH1 0xE0 SHL DUP2 MSTORE PUSH1 0x4 ADD PUSH2 0x37C SWAP3 SWAP2 SWAP1 PUSH2 0xC4E JUMP JUMPDEST PUSH1 0x20 PUSH1 0x40 MLOAD DUP1 DUP4 SUB DUP2 PUSH1 0x0 DUP8 GAS CALL ISZERO DUP1 ISZERO PUSH2 0x39B JUMPI RETURNDATASIZE PUSH1 0x0 DUP1 RETURNDATACOPY RETURNDATASIZE PUSH1 0x0 REVERT JUMPDEST POP POP POP POP PUSH1 0x40 MLOAD RETURNDATASIZE PUSH1 0x1F NOT PUSH1 0x1F DUP3 ADD AND DUP3 ADD DUP1 PUSH1 0x40 MSTORE POP DUP2 ADD SWAP1 PUSH2 0x3BF SWAP2 SWAP1 PUSH2 0xC8C JUMP JUMPDEST POP POP POP POP POP JUMP JUMPDEST PUSH1 0x0 PUSH1 0x1 SWAP1 SLOAD SWAP1 PUSH2 0x100 EXP SWAP1 DIV PUSH20 0xFFFFFFFFFFFFFFFFFFFFFFFFFFFFFFFFFFFFFFFF AND PUSH20 0xFFFFFFFFFFFFFFFFFFFFFFFFFFFFFFFFFFFFFFFF AND CALLER PUSH20 0xFFFFFFFFFFFFFFFFFFFFFFFFFFFFFFFFFFFFFFFF AND EQ PUSH2 0x420 JUMPI PUSH1 0x0 DUP1 REVERT JUMPDEST PUSH1 0x0 DUP1 PUSH1 0x1 SWAP1 SLOAD SWAP1 PUSH2 0x100 EXP SWAP1 DIV PUSH20 0xFFFFFFFFFFFFFFFFFFFFFFFFFFFFFFFFFFFFFFFF AND SWAP1 POP DUP1 PUSH20 0xFFFFFFFFFFFFFFFFFFFFFFFFFFFFFFFFFFFFFFFF AND PUSH2 0x8FC DUP4 SWAP1 DUP2 ISZERO MUL SWAP1 PUSH1 0x40 MLOAD PUSH1 0x0 PUSH1 0x40 MLOAD DUP1 DUP4 SUB DUP2 DUP6 DUP9 DUP9 CALL SWAP4 POP POP POP POP ISZERO DUP1 ISZERO PUSH2 0x48C JUMPI RETURNDATASIZE PUSH1 0x0 DUP1 RETURNDATACOPY RETURNDATASIZE PUSH1 0x0 REVERT JUMPDEST POP PUSH32 0x884EDAD9CE6FA2440D8A54CC123490EB96D2768479D49FF9C7366125A9424364 DUP2 DUP4 PUSH1 0x40 MLOAD PUSH2 0x4BE SWAP3 SWAP2 SWAP1 PUSH2 0xC4E JUMP JUMPDEST PUSH1 0x40 MLOAD DUP1 SWAP2 SUB SWAP1 LOG1 POP POP JUMP JUMPDEST PUSH1 0x0 DUP1 PUSH1 0x1 SWAP1 SLOAD SWAP1 PUSH2 0x100 EXP SWAP1 DIV PUSH20 0xFFFFFFFFFFFFFFFFFFFFFFFFFFFFFFFFFFFFFFFF AND PUSH20 0xFFFFFFFFFFFFFFFFFFFFFFFFFFFFFFFFFFFFFFFF AND CALLER PUSH20 0xFFFFFFFFFFFFFFFFFFFFFFFFFFFFFFFFFFFFFFFF AND EQ PUSH2 0x525 JUMPI PUSH1 0x0 DUP1 REVERT JUMPDEST DUP2 PUSH1 0x6 PUSH1 0x0 DUP6 PUSH20 0xFFFFFFFFFFFFFFFFFFFFFFFFFFFFFFFFFFFFFFFF AND PUSH20 0xFFFFFFFFFFFFFFFFFFFFFFFFFFFFFFFFFFFFFFFF AND DUP2 MSTORE PUSH1 0x20 ADD SWAP1 DUP2 MSTORE PUSH1 0x20 ADD PUSH1 0x0 KECCAK256 PUSH1 0x0 DUP3 ADD MLOAD DUP2 PUSH1 0x0 ADD PUSH1 0x0 PUSH2 0x100 EXP DUP2 SLOAD DUP2 PUSH1 0xFF MUL NOT AND SWAP1 DUP4 ISZERO ISZERO MUL OR SWAP1 SSTORE POP SWAP1 POP POP PUSH1 0x1 SWAP1 POP SWAP3 SWAP2 POP POP JUMP JUMPDEST PUSH2 0x59A PUSH2 0x725 JUMP JUMPDEST PUSH1 0x7 PUSH1 0x0 DUP4 DUP2 MSTORE PUSH1 0x20 ADD SWAP1 DUP2 MSTORE PUSH1 0x20 ADD PUSH1 0x0 KECCAK256 PUSH1 0x40 MLOAD DUP1 PUSH1 0xA0 ADD PUSH1 0x40 MSTORE SWAP1 DUP2 PUSH1 0x0 DUP3 ADD SLOAD DUP2 MSTORE PUSH1 0x20 ADD PUSH1 0x1 DUP3 ADD SLOAD DUP2 MSTORE PUSH1 0x20 ADD PUSH1 0x2 DUP3 ADD SLOAD DUP2 MSTORE PUSH1 0x20 ADD PUSH1 0x3 DUP3 ADD PUSH1 0x0 SWAP1 SLOAD SWAP1 PUSH2 0x100 EXP SWAP1 DIV PUSH1 0xFF AND ISZERO ISZERO ISZERO ISZERO DUP2 MSTORE PUSH1 0x20 ADD PUSH1 0x3 DUP3 ADD PUSH1 0x1 SWAP1 SLOAD SWAP1 PUSH2 0x100 EXP SWAP1 DIV PUSH1 0xFF AND ISZERO ISZERO ISZERO ISZERO DUP2 MSTORE POP POP SWAP1 POP SWAP2 SWAP1 POP JUMP JUMPDEST PUSH1 0x0 DUP1 PUSH1 0x1 SWAP1 SLOAD SWAP1 PUSH2 0x100 EXP SWAP1 DIV PUSH20 0xFFFFFFFFFFFFFFFFFFFFFFFFFFFFFFFFFFFFFFFF AND PUSH20 0xFFFFFFFFFFFFFFFFFFFFFFFFFFFFFFFFFFFFFFFF AND CALLER PUSH20 0xFFFFFFFFFFFFFFFFFFFFFFFFFFFFFFFFFFFFFFFF AND EQ PUSH2 0x66E JUMPI PUSH1 0x0 DUP1 REVERT JUMPDEST TIMESTAMP PUSH1 0x7 PUSH1 0x0 DUP6 DUP2 MSTORE PUSH1 0x20 ADD SWAP1 DUP2 MSTORE PUSH1 0x20 ADD PUSH1 0x0 KECCAK256 PUSH1 0x0 ADD SLOAD LT ISZERO PUSH2 0x691 JUMPI PUSH1 0x0 DUP1 REVERT JUMPDEST DUP2 PUSH1 0x7 PUSH1 0x0 DUP6 DUP2 MSTORE PUSH1 0x20 ADD SWAP1 DUP2 MSTORE PUSH1 0x20 ADD PUSH1 0x0 KECCAK256 PUSH1 0x0 DUP3 ADD MLOAD DUP2 PUSH1 0x0 ADD SSTORE PUSH1 0x20 DUP3 ADD MLOAD DUP2 PUSH1 0x1 ADD SSTORE PUSH1 0x40 DUP3 ADD MLOAD DUP2 PUSH1 0x2 ADD SSTORE PUSH1 0x60 DUP3 ADD MLOAD DUP2 PUSH1 0x3 ADD PUSH1 0x0 PUSH2 0x100 EXP DUP2 SLOAD DUP2 PUSH1 0xFF MUL NOT AND SWAP1 DUP4 ISZERO ISZERO MUL OR SWAP1 SSTORE POP PUSH1 0x80 DUP3 ADD MLOAD DUP2 PUSH1 0x3 ADD PUSH1 0x1 PUSH2 0x100 EXP DUP2 SLOAD DUP2 PUSH1 0xFF MUL NOT AND SWAP1 DUP4 ISZERO ISZERO MUL OR SWAP1 SSTORE POP SWAP1 POP POP PUSH1 0x1 SWAP1 POP SWAP3 SWAP2 POP POP JUMP JUMPDEST PUSH1 0x40 MLOAD DUP1 PUSH1 0x20 ADD PUSH1 0x40 MSTORE DUP1 PUSH1 0x0 ISZERO ISZERO DUP2 MSTORE POP SWAP1 JUMP JUMPDEST PUSH1 0x40 MLOAD DUP1 PUSH1 0xA0 ADD PUSH1 0x40 MSTORE DUP1 PUSH1 0x0 DUP2 MSTORE PUSH1 0x20 ADD PUSH1 0x0 DUP2 MSTORE PUSH1 0x20 ADD PUSH1 0x0 DUP2 MSTORE PUSH1 0x20 ADD PUSH1 0x0 ISZERO ISZERO DUP2 MSTORE PUSH1 0x20 ADD PUSH1 0x0 ISZERO ISZERO DUP2 MSTORE POP SWAP1 JUMP JUMPDEST PUSH1 0x0 PUSH20 0xFFFFFFFFFFFFFFFFFFFFFFFFFFFFFFFFFFFFFFFF DUP3 AND SWAP1 POP SWAP2 SWAP1 POP JUMP JUMPDEST PUSH1 0x0 PUSH2 0x783 DUP3 PUSH2 0x758 JUMP JUMPDEST SWAP1 POP SWAP2 SWAP1 POP JUMP JUMPDEST PUSH2 0x793 DUP2 PUSH2 0x778 JUMP JUMPDEST DUP3 MSTORE POP POP JUMP JUMPDEST PUSH1 0x0 DUP2 SWAP1 POP SWAP2 SWAP1 POP JUMP JUMPDEST PUSH2 0x7AC DUP2 PUSH2 0x799 JUMP JUMPDEST DUP3 MSTORE POP POP JUMP JUMPDEST PUSH1 0x0 PUSH1 0x40 DUP3 ADD SWAP1 POP PUSH2 0x7C7 PUSH1 0x0 DUP4 ADD DUP6 PUSH2 0x78A JUMP JUMPDEST PUSH2 0x7D4 PUSH1 0x20 DUP4 ADD DUP5 PUSH2 0x7A3 JUMP JUMPDEST SWAP4 SWAP3 POP POP POP JUMP JUMPDEST PUSH1 0x0 PUSH1 0x40 MLOAD SWAP1 POP SWAP1 JUMP JUMPDEST PUSH1 0x0 DUP1 REVERT JUMPDEST PUSH2 0x7F3 DUP2 PUSH2 0x778 JUMP JUMPDEST DUP2 EQ PUSH2 0x7FE JUMPI PUSH1 0x0 DUP1 REVERT JUMPDEST POP JUMP JUMPDEST PUSH1 0x0 DUP2 CALLDATALOAD SWAP1 POP PUSH2 0x810 DUP2 PUSH2 0x7EA JUMP JUMPDEST SWAP3 SWAP2 POP POP JUMP JUMPDEST PUSH1 0x0 PUSH1 0x20 DUP3 DUP5 SUB SLT ISZERO PUSH2 0x82C JUMPI PUSH2 0x82B PUSH2 0x7E5 JUMP JUMPDEST JUMPDEST PUSH1 0x0 PUSH2 0x83A DUP5 DUP3 DUP6 ADD PUSH2 0x801 JUMP JUMPDEST SWAP2 POP POP SWAP3 SWAP2 POP POP JUMP JUMPDEST PUSH1 0x0 DUP2 ISZERO ISZERO SWAP1 POP SWAP2 SWAP1 POP JUMP JUMPDEST PUSH2 0x858 DUP2 PUSH2 0x843 JUMP JUMPDEST DUP3 MSTORE POP POP JUMP JUMPDEST PUSH1 0x20 DUP3 ADD PUSH1 0x0 DUP3 ADD MLOAD PUSH2 0x874 PUSH1 0x0 DUP6 ADD DUP3 PUSH2 0x84F JUMP JUMPDEST POP POP POP POP JUMP JUMPDEST PUSH1 0x0 PUSH1 0x20 DUP3 ADD SWAP1 POP PUSH2 0x88F PUSH1 0x0 DUP4 ADD DUP5 PUSH2 0x85E JUMP JUMPDEST SWAP3 SWAP2 POP POP JUMP JUMPDEST PUSH2 0x89E DUP2 PUSH2 0x799 JUMP JUMPDEST DUP2 EQ PUSH2 0x8A9 JUMPI PUSH1 0x0 DUP1 REVERT JUMPDEST POP JUMP JUMPDEST PUSH1 0x0 DUP2 CALLDATALOAD SWAP1 POP PUSH2 0x8BB DUP2 PUSH2 0x895 JUMP JUMPDEST SWAP3 SWAP2 POP POP JUMP JUMPDEST PUSH1 0x0 DUP1 PUSH1 0x40 DUP4 DUP6 SUB SLT ISZERO PUSH2 0x8D8 JUMPI PUSH2 0x8D7 PUSH2 0x7E5 JUMP JUMPDEST JUMPDEST PUSH1 0x0 PUSH2 0x8E6 DUP6 DUP3 DUP7 ADD PUSH2 0x801 JUMP JUMPDEST SWAP3 POP POP PUSH1 0x20 PUSH2 0x8F7 DUP6 DUP3 DUP7 ADD PUSH2 0x8AC JUMP JUMPDEST SWAP2 POP POP SWAP3 POP SWAP3 SWAP1 POP JUMP JUMPDEST PUSH1 0x0 PUSH1 0x20 DUP3 DUP5 SUB SLT ISZERO PUSH2 0x917 JUMPI PUSH2 0x916 PUSH2 0x7E5 JUMP JUMPDEST JUMPDEST PUSH1 0x0 PUSH2 0x925 DUP5 DUP3 DUP6 ADD PUSH2 0x8AC JUMP JUMPDEST SWAP2 POP POP SWAP3 SWAP2 POP POP JUMP JUMPDEST PUSH1 0x0 DUP1 REVERT JUMPDEST PUSH1 0x0 PUSH1 0x1F NOT PUSH1 0x1F DUP4 ADD AND SWAP1 POP SWAP2 SWAP1 POP JUMP JUMPDEST PUSH32 0x4E487B7100000000000000000000000000000000000000000000000000000000 PUSH1 0x0 MSTORE PUSH1 0x41 PUSH1 0x4 MSTORE PUSH1 0x24 PUSH1 0x0 REVERT JUMPDEST PUSH2 0x97C DUP3 PUSH2 0x933 JUMP JUMPDEST DUP2 ADD DUP2 DUP2 LT PUSH8 0xFFFFFFFFFFFFFFFF DUP3 GT OR ISZERO PUSH2 0x99B JUMPI PUSH2 0x99A PUSH2 0x944 JUMP JUMPDEST JUMPDEST DUP1 PUSH1 0x40 MSTORE POP POP POP JUMP JUMPDEST PUSH1 0x0 PUSH2 0x9AE PUSH2 0x7DB JUMP JUMPDEST SWAP1 POP PUSH2 0x9BA DUP3 DUP3 PUSH2 0x973 JUMP JUMPDEST SWAP2 SWAP1 POP JUMP JUMPDEST PUSH2 0x9C8 DUP2 PUSH2 0x843 JUMP JUMPDEST DUP2 EQ PUSH2 0x9D3 JUMPI PUSH1 0x0 DUP1 REVERT JUMPDEST POP JUMP JUMPDEST PUSH1 0x0 DUP2 CALLDATALOAD SWAP1 POP PUSH2 0x9E5 DUP2 PUSH2 0x9BF JUMP JUMPDEST SWAP3 SWAP2 POP POP JUMP JUMPDEST PUSH1 0x0 PUSH1 0x20 DUP3 DUP5 SUB SLT ISZERO PUSH2 0xA01 JUMPI PUSH2 0xA00 PUSH2 0x92E JUMP JUMPDEST JUMPDEST PUSH2 0xA0B PUSH1 0x20 PUSH2 0x9A4 JUMP JUMPDEST SWAP1 POP PUSH1 0x0 PUSH2 0xA1B DUP5 DUP3 DUP6 ADD PUSH2 0x9D6 JUMP JUMPDEST PUSH1 0x0 DUP4 ADD MSTORE POP SWAP3 SWAP2 POP POP JUMP JUMPDEST PUSH1 0x0 DUP1 PUSH1 0x40 DUP4 DUP6 SUB SLT ISZERO PUSH2 0xA3E JUMPI PUSH2 0xA3D PUSH2 0x7E5 JUMP JUMPDEST JUMPDEST PUSH1 0x0 PUSH2 0xA4C DUP6 DUP3 DUP7 ADD PUSH2 0x801 JUMP JUMPDEST SWAP3 POP POP PUSH1 0x20 PUSH2 0xA5D DUP6 DUP3 DUP7 ADD PUSH2 0x9EB JUMP JUMPDEST SWAP2 POP POP SWAP3 POP SWAP3 SWAP1 POP JUMP JUMPDEST PUSH2 0xA70 DUP2 PUSH2 0x843 JUMP JUMPDEST DUP3 MSTORE POP POP JUMP JUMPDEST PUSH1 0x0 PUSH1 0x20 DUP3 ADD SWAP1 POP PUSH2 0xA8B PUSH1 0x0 DUP4 ADD DUP5 PUSH2 0xA67 JUMP JUMPDEST SWAP3 SWAP2 POP POP JUMP JUMPDEST PUSH2 0xA9A DUP2 PUSH2 0x799 JUMP JUMPDEST DUP3 MSTORE POP POP JUMP JUMPDEST PUSH1 0xA0 DUP3 ADD PUSH1 0x0 DUP3 ADD MLOAD PUSH2 0xAB6 PUSH1 0x0 DUP6 ADD DUP3 PUSH2 0xA91 JUMP JUMPDEST POP PUSH1 0x20 DUP3 ADD MLOAD PUSH2 0xAC9 PUSH1 0x20 DUP6 ADD DUP3 PUSH2 0xA91 JUMP JUMPDEST POP PUSH1 0x40 DUP3 ADD MLOAD PUSH2 0xADC PUSH1 0x40 DUP6 ADD DUP3 PUSH2 0xA91 JUMP JUMPDEST POP PUSH1 0x60 DUP3 ADD MLOAD PUSH2 0xAEF PUSH1 0x60 DUP6 ADD DUP3 PUSH2 0x84F JUMP JUMPDEST POP PUSH1 0x80 DUP3 ADD MLOAD PUSH2 0xB02 PUSH1 0x80 DUP6 ADD DUP3 PUSH2 0x84F JUMP JUMPDEST POP POP POP POP JUMP JUMPDEST PUSH1 0x0 PUSH1 0xA0 DUP3 ADD SWAP1 POP PUSH2 0xB1D PUSH1 0x0 DUP4 ADD DUP5 PUSH2 0xAA0 JUMP JUMPDEST SWAP3 SWAP2 POP POP JUMP JUMPDEST PUSH1 0x0 PUSH1 0xA0 DUP3 DUP5 SUB SLT ISZERO PUSH2 0xB39 JUMPI PUSH2 0xB38 PUSH2 0x92E JUMP JUMPDEST JUMPDEST PUSH2 0xB43 PUSH1 0xA0 PUSH2 0x9A4 JUMP JUMPDEST SWAP1 POP PUSH1 0x0 PUSH2 0xB53 DUP5 DUP3 DUP6 ADD PUSH2 0x8AC JUMP JUMPDEST PUSH1 0x0 DUP4 ADD MSTORE POP PUSH1 0x20 PUSH2 0xB67 DUP5 DUP3 DUP6 ADD PUSH2 0x8AC JUMP JUMPDEST PUSH1 0x20 DUP4 ADD MSTORE POP PUSH1 0x40 PUSH2 0xB7B DUP5 DUP3 DUP6 ADD PUSH2 0x8AC JUMP JUMPDEST PUSH1 0x40 DUP4 ADD MSTORE POP PUSH1 0x60 PUSH2 0xB8F DUP5 DUP3 DUP6 ADD PUSH2 0x9D6 JUMP JUMPDEST PUSH1 0x60 DUP4 ADD MSTORE POP PUSH1 0x80 PUSH2 0xBA3 DUP5 DUP3 DUP6 ADD PUSH2 0x9D6 JUMP JUMPDEST PUSH1 0x80 DUP4 ADD MSTORE POP SWAP3 SWAP2 POP POP JUMP JUMPDEST PUSH1 0x0 DUP1 PUSH1 0xC0 DUP4 DUP6 SUB SLT ISZERO PUSH2 0xBC6 JUMPI PUSH2 0xBC5 PUSH2 0x7E5 JUMP JUMPDEST JUMPDEST PUSH1 0x0 PUSH2 0xBD4 DUP6 DUP3 DUP7 ADD PUSH2 0x8AC JUMP JUMPDEST SWAP3 POP POP PUSH1 0x20 PUSH2 0xBE5 DUP6 DUP3 DUP7 ADD PUSH2 0xB23 JUMP JUMPDEST SWAP2 POP POP SWAP3 POP SWAP3 SWAP1 POP JUMP JUMPDEST PUSH1 0x0 DUP2 SWAP1 POP SWAP2 SWAP1 POP JUMP JUMPDEST PUSH1 0x0 PUSH2 0xC14 PUSH2 0xC0F PUSH2 0xC0A DUP5 PUSH2 0x758 JUMP JUMPDEST PUSH2 0xBEF JUMP JUMPDEST PUSH2 0x758 JUMP JUMPDEST SWAP1 POP SWAP2 SWAP1 POP JUMP JUMPDEST PUSH1 0x0 PUSH2 0xC26 DUP3 PUSH2 0xBF9 JUMP JUMPDEST SWAP1 POP SWAP2 SWAP1 POP JUMP JUMPDEST PUSH1 0x0 PUSH2 0xC38 DUP3 PUSH2 0xC1B JUMP JUMPDEST SWAP1 POP SWAP2 SWAP1 POP JUMP JUMPDEST PUSH2 0xC48 DUP2 PUSH2 0xC2D JUMP JUMPDEST DUP3 MSTORE POP POP JUMP JUMPDEST PUSH1 0x0 PUSH1 0x40 DUP3 ADD SWAP1 POP PUSH2 0xC63 PUSH1 0x0 DUP4 ADD DUP6 PUSH2 0xC3F JUMP JUMPDEST PUSH2 0xC70 PUSH1 0x20 DUP4 ADD DUP5 PUSH2 0x7A3 JUMP JUMPDEST SWAP4 SWAP3 POP POP POP JUMP JUMPDEST PUSH1 0x0 DUP2 MLOAD SWAP1 POP PUSH2 0xC86 DUP2 PUSH2 0x9BF JUMP JUMPDEST SWAP3 SWAP2 POP POP JUMP JUMPDEST PUSH1 0x0 PUSH1 0x20 DUP3 DUP5 SUB SLT ISZERO PUSH2 0xCA2 JUMPI PUSH2 0xCA1 PUSH2 0x7E5 JUMP JUMPDEST JUMPDEST PUSH1 0x0 PUSH2 0xCB0 DUP5 DUP3 DUP6 ADD PUSH2 0xC77 JUMP JUMPDEST SWAP2 POP POP SWAP3 SWAP2 POP POP JUMP INVALID LOG2 PUSH5 0x6970667358 0x22 SLT KECCAK256 0xB9 0x29 PUSH24 0x9FF4E6720B9A855DC80B55B7B5F83AE689A7EAED5DC29A6F REVERT 0xB6 0xC LOG4 LT PUSH5 0x736F6C6343 STOP ADDMOD SLT STOP CALLER "
				},
				"gasEstimates": {
					"creation": {
						"codeDepositCost": "662200",
						"executionCost": "infinite",
						"totalCost": "infinite"
					},
					"external": {
						"persona_of(address)": "3055",
						"set_funding(uint256,(uint256,uint256,uint256,bool,bool))": "infinite",
						"set_persona_of(address,(bool))": "infinite",
						"view_funding(uint256)": "infinite",
						"withdraw(uint256)": "infinite",
						"withdraw_erc20(address,uint256)": "infinite"
					}
				},
				"methodIdentifiers": {
					"persona_of(address)": "0923fe94",
					"set_funding(uint256,(uint256,uint256,uint256,bool,bool))": "dd12776a",
					"set_persona_of(address,(bool))": "90b410af",
					"view_funding(uint256)": "b9761101",
					"withdraw(uint256)": "2e1a7d4d",
					"withdraw_erc20(address,uint256)": "24a5af31"
				}
			},
			"storageLayout": {
				"storage": [
					{
						"astId": 45,
						"contract": "blockchain/contracts/Polygon/Pool/Prototype/pool/state.sol:State",
						"label": "is_locked",
						"offset": 0,
						"slot": "0",
						"type": "t_bool"
					},
					{
						"astId": 3,
						"contract": "blockchain/contracts/Polygon/Pool/Prototype/pool/state.sol:State",
						"label": "admin",
						"offset": 1,
						"slot": "0",
						"type": "t_address"
					},
					{
						"astId": 5,
						"contract": "blockchain/contracts/Polygon/Pool/Prototype/pool/state.sol:State",
						"label": "manager",
						"offset": 0,
						"slot": "1",
						"type": "t_address"
					},
					{
						"astId": 7,
						"contract": "blockchain/contracts/Polygon/Pool/Prototype/pool/state.sol:State",
						"label": "governor",
						"offset": 0,
						"slot": "2",
						"type": "t_address"
					},
					{
						"astId": 126,
						"contract": "blockchain/contracts/Polygon/Pool/Prototype/pool/state.sol:State",
						"label": "name",
						"offset": 0,
						"slot": "3",
						"type": "t_string_storage"
					},
					{
						"astId": 128,
						"contract": "blockchain/contracts/Polygon/Pool/Prototype/pool/state.sol:State",
						"label": "description",
						"offset": 0,
						"slot": "4",
						"type": "t_string_storage"
					},
					{
						"astId": 130,
						"contract": "blockchain/contracts/Polygon/Pool/Prototype/pool/state.sol:State",
						"label": "inception",
						"offset": 0,
						"slot": "5",
						"type": "t_uint256"
					},
					{
						"astId": 138,
						"contract": "blockchain/contracts/Polygon/Pool/Prototype/pool/state.sol:State",
						"label": "persona",
						"offset": 0,
						"slot": "6",
						"type": "t_mapping(t_address,t_struct(Persona)133_storage)"
					},
					{
						"astId": 154,
						"contract": "blockchain/contracts/Polygon/Pool/Prototype/pool/state.sol:State",
						"label": "funding",
						"offset": 0,
						"slot": "7",
						"type": "t_mapping(t_uint256,t_struct(Funding)149_storage)"
					}
				],
				"types": {
					"t_address": {
						"encoding": "inplace",
						"label": "address",
						"numberOfBytes": "20"
					},
					"t_bool": {
						"encoding": "inplace",
						"label": "bool",
						"numberOfBytes": "1"
					},
					"t_mapping(t_address,t_struct(Persona)133_storage)": {
						"encoding": "mapping",
						"key": "t_address",
						"label": "mapping(address => struct State.Persona)",
						"numberOfBytes": "32",
						"value": "t_struct(Persona)133_storage"
					},
					"t_mapping(t_uint256,t_struct(Funding)149_storage)": {
						"encoding": "mapping",
						"key": "t_uint256",
						"label": "mapping(uint256 => struct State.Funding)",
						"numberOfBytes": "32",
						"value": "t_struct(Funding)149_storage"
					},
					"t_string_storage": {
						"encoding": "bytes",
						"label": "string",
						"numberOfBytes": "32"
					},
					"t_struct(Funding)149_storage": {
						"encoding": "inplace",
						"label": "struct State.Funding",
						"members": [
							{
								"astId": 140,
								"contract": "blockchain/contracts/Polygon/Pool/Prototype/pool/state.sol:State",
								"label": "start",
								"offset": 0,
								"slot": "0",
								"type": "t_uint256"
							},
							{
								"astId": 142,
								"contract": "blockchain/contracts/Polygon/Pool/Prototype/pool/state.sol:State",
								"label": "end",
								"offset": 0,
								"slot": "1",
								"type": "t_uint256"
							},
							{
								"astId": 144,
								"contract": "blockchain/contracts/Polygon/Pool/Prototype/pool/state.sol:State",
								"label": "required",
								"offset": 0,
								"slot": "2",
								"type": "t_uint256"
							},
							{
								"astId": 146,
								"contract": "blockchain/contracts/Polygon/Pool/Prototype/pool/state.sol:State",
								"label": "whitelisted",
								"offset": 0,
								"slot": "3",
								"type": "t_bool"
							},
							{
								"astId": 148,
								"contract": "blockchain/contracts/Polygon/Pool/Prototype/pool/state.sol:State",
								"label": "success",
								"offset": 1,
								"slot": "3",
								"type": "t_bool"
							}
						],
						"numberOfBytes": "128"
					},
					"t_struct(Persona)133_storage": {
						"encoding": "inplace",
						"label": "struct State.Persona",
						"members": [
							{
								"astId": 132,
								"contract": "blockchain/contracts/Polygon/Pool/Prototype/pool/state.sol:State",
								"label": "is_on_whitelist",
								"offset": 0,
								"slot": "0",
								"type": "t_bool"
							}
						],
						"numberOfBytes": "32"
					},
					"t_uint256": {
						"encoding": "inplace",
						"label": "uint256",
						"numberOfBytes": "32"
					}
				}
			},
			"userdoc": {
				"kind": "user",
				"methods": {},
				"version": 1
			}
		}
	}
}