{
	"smart_contracts/contracts/BaseERC20.sol": {
		"BaseERC20": {
			"abi": [
				{
					"inputs": [],
					"stateMutability": "nonpayable",
					"type": "constructor"
				},
				{
					"anonymous": false,
					"inputs": [
						{
							"indexed": true,
							"internalType": "address",
							"name": "owner",
							"type": "address"
						},
						{
							"indexed": true,
							"internalType": "address",
							"name": "spender",
							"type": "address"
						},
						{
							"indexed": false,
							"internalType": "uint256",
							"name": "amount",
							"type": "uint256"
						}
					],
					"name": "Approval",
					"type": "event"
				},
				{
					"anonymous": false,
					"inputs": [
						{
							"indexed": true,
							"internalType": "address",
							"name": "account",
							"type": "address"
						},
						{
							"indexed": false,
							"internalType": "uint256",
							"name": "amount",
							"type": "uint256"
						}
					],
					"name": "Burn",
					"type": "event"
				},
				{
					"anonymous": false,
					"inputs": [
						{
							"indexed": true,
							"internalType": "address",
							"name": "account",
							"type": "address"
						},
						{
							"indexed": false,
							"internalType": "uint256",
							"name": "amount",
							"type": "uint256"
						}
					],
					"name": "Mint",
					"type": "event"
				},
				{
					"anonymous": false,
					"inputs": [
						{
							"indexed": true,
							"internalType": "address",
							"name": "_account",
							"type": "address"
						},
						{
							"indexed": false,
							"internalType": "string",
							"name": "_role",
							"type": "string"
						}
					],
					"name": "RoleGranted",
					"type": "event"
				},
				{
					"anonymous": false,
					"inputs": [
						{
							"indexed": true,
							"internalType": "address",
							"name": "_account",
							"type": "address"
						},
						{
							"indexed": false,
							"internalType": "string",
							"name": "_role",
							"type": "string"
						}
					],
					"name": "RoleRevoked",
					"type": "event"
				},
				{
					"anonymous": false,
					"inputs": [
						{
							"indexed": true,
							"internalType": "address",
							"name": "account",
							"type": "address"
						},
						{
							"indexed": false,
							"internalType": "uint256",
							"name": "amount",
							"type": "uint256"
						}
					],
					"name": "TokensReleased",
					"type": "event"
				},
				{
					"anonymous": false,
					"inputs": [
						{
							"indexed": true,
							"internalType": "address",
							"name": "from",
							"type": "address"
						},
						{
							"indexed": true,
							"internalType": "address",
							"name": "to",
							"type": "address"
						},
						{
							"indexed": false,
							"internalType": "uint256",
							"name": "amount",
							"type": "uint256"
						}
					],
					"name": "Transfer",
					"type": "event"
				},
				{
					"inputs": [
						{
							"internalType": "address",
							"name": "owner",
							"type": "address"
						},
						{
							"internalType": "address",
							"name": "spender",
							"type": "address"
						}
					],
					"name": "allowance",
					"outputs": [
						{
							"internalType": "uint256",
							"name": "",
							"type": "uint256"
						}
					],
					"stateMutability": "view",
					"type": "function"
				},
				{
					"inputs": [
						{
							"internalType": "address",
							"name": "spender",
							"type": "address"
						},
						{
							"internalType": "uint256",
							"name": "amount",
							"type": "uint256"
						}
					],
					"name": "approve",
					"outputs": [
						{
							"internalType": "bool",
							"name": "",
							"type": "bool"
						}
					],
					"stateMutability": "nonpayable",
					"type": "function"
				},
				{
					"inputs": [
						{
							"internalType": "address",
							"name": "account",
							"type": "address"
						}
					],
					"name": "balanceOf",
					"outputs": [
						{
							"internalType": "uint256",
							"name": "",
							"type": "uint256"
						}
					],
					"stateMutability": "view",
					"type": "function"
				},
				{
					"inputs": [],
					"name": "decimals",
					"outputs": [
						{
							"internalType": "uint256",
							"name": "",
							"type": "uint256"
						}
					],
					"stateMutability": "view",
					"type": "function"
				},
				{
					"inputs": [
						{
							"internalType": "address",
							"name": "spender",
							"type": "address"
						},
						{
							"internalType": "uint256",
							"name": "subtractedValue",
							"type": "uint256"
						}
					],
					"name": "decreaseAllowance",
					"outputs": [
						{
							"internalType": "bool",
							"name": "",
							"type": "bool"
						}
					],
					"stateMutability": "nonpayable",
					"type": "function"
				},
				{
					"inputs": [
						{
							"internalType": "address",
							"name": "spender",
							"type": "address"
						},
						{
							"internalType": "uint256",
							"name": "addedValue",
							"type": "uint256"
						}
					],
					"name": "increaseAllowance",
					"outputs": [
						{
							"internalType": "bool",
							"name": "",
							"type": "bool"
						}
					],
					"stateMutability": "nonpayable",
					"type": "function"
				},
				{
					"inputs": [],
					"name": "name",
					"outputs": [
						{
							"internalType": "string",
							"name": "",
							"type": "string"
						}
					],
					"stateMutability": "view",
					"type": "function"
				},
				{
					"inputs": [],
					"name": "release",
					"outputs": [
						{
							"internalType": "bool",
							"name": "",
							"type": "bool"
						}
					],
					"stateMutability": "nonpayable",
					"type": "function"
				},
				{
					"inputs": [
						{
							"internalType": "address",
							"name": "account",
							"type": "address"
						}
					],
					"name": "stakedFor",
					"outputs": [
						{
							"internalType": "uint256",
							"name": "",
							"type": "uint256"
						}
					],
					"stateMutability": "view",
					"type": "function"
				},
				{
					"inputs": [],
					"name": "symbol",
					"outputs": [
						{
							"internalType": "string",
							"name": "",
							"type": "string"
						}
					],
					"stateMutability": "view",
					"type": "function"
				},
				{
					"inputs": [],
					"name": "totalStaked",
					"outputs": [
						{
							"internalType": "uint256",
							"name": "",
							"type": "uint256"
						}
					],
					"stateMutability": "view",
					"type": "function"
				},
				{
					"inputs": [],
					"name": "totalSupply",
					"outputs": [
						{
							"internalType": "uint256",
							"name": "",
							"type": "uint256"
						}
					],
					"stateMutability": "view",
					"type": "function"
				},
				{
					"inputs": [],
					"name": "totalVested",
					"outputs": [
						{
							"internalType": "uint256",
							"name": "",
							"type": "uint256"
						}
					],
					"stateMutability": "view",
					"type": "function"
				},
				{
					"inputs": [
						{
							"internalType": "address",
							"name": "_recipient",
							"type": "address"
						},
						{
							"internalType": "uint256",
							"name": "_amount",
							"type": "uint256"
						}
					],
					"name": "transfer",
					"outputs": [
						{
							"internalType": "bool",
							"name": "",
							"type": "bool"
						}
					],
					"stateMutability": "nonpayable",
					"type": "function"
				},
				{
					"inputs": [
						{
							"internalType": "address",
							"name": "_sender",
							"type": "address"
						},
						{
							"internalType": "address",
							"name": "_recipient",
							"type": "address"
						},
						{
							"internalType": "uint256",
							"name": "_amount",
							"type": "uint256"
						}
					],
					"name": "transferFrom",
					"outputs": [
						{
							"internalType": "bool",
							"name": "",
							"type": "bool"
						}
					],
					"stateMutability": "nonpayable",
					"type": "function"
				},
				{
					"inputs": [
						{
							"internalType": "address",
							"name": "account",
							"type": "address"
						}
					],
					"name": "vestedFor",
					"outputs": [
						{
							"internalType": "uint256",
							"name": "",
							"type": "uint256"
						}
					],
					"stateMutability": "view",
					"type": "function"
				},
				{
					"inputs": [
						{
							"internalType": "address",
							"name": "account",
							"type": "address"
						}
					],
					"name": "voteWeightOf",
					"outputs": [
						{
							"internalType": "uint256",
							"name": "",
							"type": "uint256"
						}
					],
					"stateMutability": "view",
					"type": "function"
				}
			],
			"devdoc": {
				"kind": "dev",
				"methods": {},
				"version": 1
			},
			"evm": {
				"assembly": "    /* \"smart_contracts/contracts/BaseERC20.sol\":218:8680  contract BaseERC20 is Authenticator {... */\n  mstore(0x40, 0x80)\n    /* \"smart_contracts/contracts/BaseERC20.sol\":8362:8678  constructor() {... */\n  callvalue\n  dup1\n  iszero\n  tag_1\n  jumpi\n  0x00\n  dup1\n  revert\ntag_1:\n  pop\n    /* \"smart_contracts/contracts/BaseERC20.sol\":8411:8412  0 */\n  0x00\n    /* \"smart_contracts/contracts/BaseERC20.sol\":8386:8396  properties */\n  0x04\n    /* \"smart_contracts/contracts/BaseERC20.sol\":8386:8408  properties.totalSupply */\n  dup1\n  add\n    /* \"smart_contracts/contracts/BaseERC20.sol\":8386:8412  properties.totalSupply = 0 */\n  dup2\n  swap1\n  sstore\n  pop\n    /* \"smart_contracts/contracts/BaseERC20.sol\":8447:8448  0 */\n  0x00\n    /* \"smart_contracts/contracts/BaseERC20.sol\":8422:8432  properties */\n  0x04\n    /* \"smart_contracts/contracts/BaseERC20.sol\":8422:8444  properties.totalVested */\n  0x05\n  add\n    /* \"smart_contracts/contracts/BaseERC20.sol\":8422:8448  properties.totalVested = 0 */\n  dup2\n  swap1\n  sstore\n  pop\n    /* \"smart_contracts/contracts/BaseERC20.sol\":8483:8484  0 */\n  0x00\n    /* \"smart_contracts/contracts/BaseERC20.sol\":8458:8468  properties */\n  0x04\n    /* \"smart_contracts/contracts/BaseERC20.sol\":8458:8480  properties.totalStaked */\n  0x06\n  add\n    /* \"smart_contracts/contracts/BaseERC20.sol\":8458:8484  properties.totalStaked = 0 */\n  dup2\n  swap1\n  sstore\n  pop\n    /* \"smart_contracts/contracts/BaseERC20.sol\":8507:8511  true */\n  0x01\n    /* \"smart_contracts/contracts/BaseERC20.sol\":8494:8504  isMintable */\n  0x03\n  0x01\n    /* \"smart_contracts/contracts/BaseERC20.sol\":8494:8511  isMintable = true */\n  0x0100\n  exp\n  dup2\n  sload\n  dup2\n  0xff\n  mul\n  not\n  and\n  swap1\n  dup4\n  iszero\n  iszero\n  mul\n  or\n  swap1\n  sstore\n  pop\n    /* \"smart_contracts/contracts/BaseERC20.sol\":8534:8538  true */\n  0x01\n    /* \"smart_contracts/contracts/BaseERC20.sol\":8521:8531  isBurnable */\n  0x03\n  0x02\n    /* \"smart_contracts/contracts/BaseERC20.sol\":8521:8538  isBurnable = true */\n  0x0100\n  exp\n  dup2\n  sload\n  dup2\n  0xff\n  mul\n  not\n  and\n  swap1\n  dup4\n  iszero\n  iszero\n  mul\n  or\n  swap1\n  sstore\n  pop\n    /* \"smart_contracts/contracts/BaseERC20.sol\":8571:8580  200000000 */\n  0x0bebc200\n    /* \"smart_contracts/contracts/BaseERC20.sol\":8548:8558  properties */\n  0x04\n    /* \"smart_contracts/contracts/BaseERC20.sol\":8548:8568  properties.maxSupply */\n  0x03\n  add\n    /* \"smart_contracts/contracts/BaseERC20.sol\":8548:8580  properties.maxSupply = 200000000 */\n  dup2\n  swap1\n  sstore\n  pop\n    /* \"smart_contracts/contracts/BaseERC20.sol\":8590:8671  mintWithVesting(0x5B38Da6a701c568545dCfcB03FcB875f56beddC4, 200000000, 400 weeks) */\n  tag_4\n    /* \"smart_contracts/contracts/BaseERC20.sol\":8606:8648  0x5B38Da6a701c568545dCfcB03FcB875f56beddC4 */\n  0x5b38da6a701c568545dcfcb03fcb875f56beddc4\n    /* \"smart_contracts/contracts/BaseERC20.sol\":8650:8659  200000000 */\n  0x0bebc200\n    /* \"smart_contracts/contracts/BaseERC20.sol\":8661:8670  400 weeks */\n  0x0e6b6800\n    /* \"smart_contracts/contracts/BaseERC20.sol\":8590:8605  mintWithVesting */\n  shl(0x20, tag_5)\n    /* \"smart_contracts/contracts/BaseERC20.sol\":8590:8671  mintWithVesting(0x5B38Da6a701c568545dCfcB03FcB875f56beddC4, 200000000, 400 weeks) */\n  0x20\n  shr\n  jump\t// in\ntag_4:\n  pop\n    /* \"smart_contracts/contracts/BaseERC20.sol\":218:8680  contract BaseERC20 is Authenticator {... */\n  jump(tag_6)\n    /* \"smart_contracts/contracts/BaseERC20.sol\":4812:5696  function mintWithVesting(... */\ntag_5:\n    /* \"smart_contracts/contracts/BaseERC20.sol\":4959:4963  bool */\n  0x00\n    /* \"smart_contracts/contracts/Authenticator.sol\":450:456  locked */\n  0x03\n  0x00\n  swap1\n  sload\n  swap1\n  0x0100\n  exp\n  swap1\n  div\n  0xff\n  and\n    /* \"smart_contracts/contracts/Authenticator.sol\":449:456  !locked */\n  iszero\n    /* \"smart_contracts/contracts/Authenticator.sol\":441:481  require(!locked, \"Anti-Reentrancy Lock\") */\n  tag_8\n  jumpi\n  mload(0x40)\n  0x08c379a000000000000000000000000000000000000000000000000000000000\n  dup2\n  mstore\n  0x04\n  add\n  tag_9\n  swap1\n  tag_10\n  jump\t// in\ntag_9:\n  mload(0x40)\n  dup1\n  swap2\n  sub\n  swap1\n  revert\ntag_8:\n    /* \"smart_contracts/contracts/Authenticator.sol\":500:504  true */\n  0x01\n    /* \"smart_contracts/contracts/Authenticator.sol\":491:497  locked */\n  0x03\n  0x00\n    /* \"smart_contracts/contracts/Authenticator.sol\":491:504  locked = true */\n  0x0100\n  exp\n  dup2\n  sload\n  dup2\n  0xff\n  mul\n  not\n  and\n  swap1\n  dup4\n  iszero\n  iszero\n  mul\n  or\n  swap1\n  sstore\n  pop\n    /* \"smart_contracts/contracts/BaseERC20.sol\":4992:4993  0 */\n  0x00\n    /* \"smart_contracts/contracts/BaseERC20.sol\":4983:4989  amount */\n  dup4\n    /* \"smart_contracts/contracts/BaseERC20.sol\":4983:4993  amount > 0 */\n  gt\n    /* \"smart_contracts/contracts/BaseERC20.sol\":4975:5036  require(amount > 0, \"Zero and negative values not supported\") */\n  tag_12\n  jumpi\n  mload(0x40)\n  0x08c379a000000000000000000000000000000000000000000000000000000000\n  dup2\n  mstore\n  0x04\n  add\n  tag_13\n  swap1\n  tag_14\n  jump\t// in\ntag_13:\n  mload(0x40)\n  dup1\n  swap2\n  sub\n  swap1\n  revert\ntag_12:\n    /* \"smart_contracts/contracts/BaseERC20.sol\":5068:5072  true */\n  0x01\n    /* \"smart_contracts/contracts/BaseERC20.sol\":5054:5072  isMintable == true */\n  iszero\n  iszero\n    /* \"smart_contracts/contracts/BaseERC20.sol\":5054:5064  isMintable */\n  0x03\n  0x01\n  swap1\n  sload\n  swap1\n  0x0100\n  exp\n  swap1\n  div\n  0xff\n  and\n    /* \"smart_contracts/contracts/BaseERC20.sol\":5054:5072  isMintable == true */\n  iszero\n  iszero\n  eq\n    /* \"smart_contracts/contracts/BaseERC20.sol\":5046:5093  require(isMintable == true, \"Minting disabled\") */\n  tag_15\n  jumpi\n  mload(0x40)\n  0x08c379a000000000000000000000000000000000000000000000000000000000\n  dup2\n  mstore\n  0x04\n  add\n  tag_16\n  swap1\n  tag_17\n  jump\t// in\ntag_16:\n  mload(0x40)\n  dup1\n  swap2\n  sub\n  swap1\n  revert\ntag_15:\n    /* \"smart_contracts/contracts/BaseERC20.sol\":5161:5171  properties */\n  0x04\n    /* \"smart_contracts/contracts/BaseERC20.sol\":5161:5181  properties.maxSupply */\n  0x03\n  add\n  sload\n    /* \"smart_contracts/contracts/BaseERC20.sol\":5150:5156  amount */\n  dup4\n    /* \"smart_contracts/contracts/BaseERC20.sol\":5125:5135  properties */\n  0x04\n    /* \"smart_contracts/contracts/BaseERC20.sol\":5125:5147  properties.totalSupply */\n  dup1\n  add\n  sload\n    /* \"smart_contracts/contracts/BaseERC20.sol\":5125:5156  properties.totalSupply + amount */\n  tag_18\n  swap2\n  swap1\n  tag_19\n  jump\t// in\ntag_18:\n    /* \"smart_contracts/contracts/BaseERC20.sol\":5124:5181  (properties.totalSupply + amount) <= properties.maxSupply */\n  gt\n  iszero\n    /* \"smart_contracts/contracts/BaseERC20.sol\":5103:5235  require(... */\n  tag_20\n  jumpi\n  mload(0x40)\n  0x08c379a000000000000000000000000000000000000000000000000000000000\n  dup2\n  mstore\n  0x04\n  add\n  tag_21\n  swap1\n  tag_22\n  jump\t// in\ntag_21:\n  mload(0x40)\n  dup1\n  swap2\n  sub\n  swap1\n  revert\ntag_20:\n    /* \"smart_contracts/contracts/BaseERC20.sol\":5272:5273  0 */\n  0x00\n    /* \"smart_contracts/contracts/BaseERC20.sol\":5253:5274  account != address(0) */\n  0xffffffffffffffffffffffffffffffffffffffff\n  and\n    /* \"smart_contracts/contracts/BaseERC20.sol\":5253:5260  account */\n  dup5\n    /* \"smart_contracts/contracts/BaseERC20.sol\":5253:5274  account != address(0) */\n  0xffffffffffffffffffffffffffffffffffffffff\n  and\n  sub\n    /* \"smart_contracts/contracts/BaseERC20.sol\":5245:5300  require(account != address(0), \"Address not supported\") */\n  tag_23\n  jumpi\n  mload(0x40)\n  0x08c379a000000000000000000000000000000000000000000000000000000000\n  dup2\n  mstore\n  0x04\n  add\n  tag_24\n  swap1\n  tag_25\n  jump\t// in\ntag_24:\n  mload(0x40)\n  dup1\n  swap2\n  sub\n  swap1\n  revert\ntag_23:\n    /* \"smart_contracts/contracts/BaseERC20.sol\":5310:5323  uint256 start */\n  0x00\n    /* \"smart_contracts/contracts/BaseERC20.sol\":5326:5341  block.timestamp */\n  timestamp\n    /* \"smart_contracts/contracts/BaseERC20.sol\":5310:5341  uint256 start = block.timestamp */\n  swap1\n  pop\n    /* \"smart_contracts/contracts/BaseERC20.sol\":5351:5362  uint256 end */\n  0x00\n    /* \"smart_contracts/contracts/BaseERC20.sol\":5373:5381  duration */\n  dup4\n    /* \"smart_contracts/contracts/BaseERC20.sol\":5365:5370  start */\n  dup3\n    /* \"smart_contracts/contracts/BaseERC20.sol\":5365:5381  start + duration */\n  tag_26\n  swap2\n  swap1\n  tag_19\n  jump\t// in\ntag_26:\n    /* \"smart_contracts/contracts/BaseERC20.sol\":5351:5381  uint256 end = start + duration */\n  swap1\n  pop\n    /* \"smart_contracts/contracts/BaseERC20.sol\":5391:5437  Vesting.VestingSchedule memory vestingSchedule */\n  0x00\n    /* \"smart_contracts/contracts/BaseERC20.sol\":5440:5499  Vesting... */\n  mload(0x40)\n  dup1\n  0x80\n  add\n  0x40\n  mstore\n  dup1\n    /* \"smart_contracts/contracts/BaseERC20.sol\":5477:5483  amount */\n  dup8\n    /* \"smart_contracts/contracts/BaseERC20.sol\":5440:5499  Vesting... */\n  dup2\n  mstore\n  0x20\n  add\n    /* \"smart_contracts/contracts/BaseERC20.sol\":5485:5490  start */\n  dup5\n    /* \"smart_contracts/contracts/BaseERC20.sol\":5440:5499  Vesting... */\n  dup2\n  mstore\n  0x20\n  add\n    /* \"smart_contracts/contracts/BaseERC20.sol\":5492:5495  end */\n  dup4\n    /* \"smart_contracts/contracts/BaseERC20.sol\":5440:5499  Vesting... */\n  dup2\n  mstore\n  0x20\n  add\n    /* \"smart_contracts/contracts/BaseERC20.sol\":5497:5498  0 */\n  0x00\n    /* \"smart_contracts/contracts/BaseERC20.sol\":5440:5499  Vesting... */\n  dup2\n  mstore\n  pop\n    /* \"smart_contracts/contracts/BaseERC20.sol\":5391:5499  Vesting.VestingSchedule memory vestingSchedule = Vesting... */\n  swap1\n  pop\n    /* \"smart_contracts/contracts/BaseERC20.sol\":5509:5517  schedule */\n  0x11\n    /* \"smart_contracts/contracts/BaseERC20.sol\":5509:5526  schedule[account] */\n  0x00\n    /* \"smart_contracts/contracts/BaseERC20.sol\":5518:5525  account */\n  dup9\n    /* \"smart_contracts/contracts/BaseERC20.sol\":5509:5526  schedule[account] */\n  0xffffffffffffffffffffffffffffffffffffffff\n  and\n  0xffffffffffffffffffffffffffffffffffffffff\n  and\n  dup2\n  mstore\n  0x20\n  add\n  swap1\n  dup2\n  mstore\n  0x20\n  add\n  0x00\n  keccak256\n    /* \"smart_contracts/contracts/BaseERC20.sol\":5532:5547  vestingSchedule */\n  dup2\n    /* \"smart_contracts/contracts/BaseERC20.sol\":5509:5548  schedule[account].push(vestingSchedule) */\n  swap1\n  dup1\n  0x01\n  dup2\n  sload\n  add\n  dup1\n  dup3\n  sstore\n  dup1\n  swap2\n  pop\n  pop\n  0x01\n  swap1\n  sub\n  swap1\n  0x00\n  mstore\n  keccak256(0x00, 0x20)\n  swap1\n  0x04\n  mul\n  add\n  0x00\n  swap1\n  swap2\n  swap1\n  swap2\n  swap1\n  swap2\n  pop\n  0x00\n  dup3\n  add\n  mload\n  dup2\n  0x00\n  add\n  sstore\n  0x20\n  dup3\n  add\n  mload\n  dup2\n  0x01\n  add\n  sstore\n  0x40\n  dup3\n  add\n  mload\n  dup2\n  0x02\n  add\n  sstore\n  0x60\n  dup3\n  add\n  mload\n  dup2\n  0x03\n  add\n  sstore\n  pop\n  pop\n    /* \"smart_contracts/contracts/BaseERC20.sol\":5584:5590  amount */\n  dup6\n    /* \"smart_contracts/contracts/BaseERC20.sol\":5558:5568  properties */\n  0x04\n    /* \"smart_contracts/contracts/BaseERC20.sol\":5558:5580  properties.totalSupply */\n  dup1\n  add\n  0x00\n    /* \"smart_contracts/contracts/BaseERC20.sol\":5558:5590  properties.totalSupply += amount */\n  dup3\n  dup3\n  sload\n  tag_28\n  swap2\n  swap1\n  tag_19\n  jump\t// in\ntag_28:\n  swap3\n  pop\n  pop\n  dup2\n  swap1\n  sstore\n  pop\n    /* \"smart_contracts/contracts/BaseERC20.sol\":5626:5632  amount */\n  dup6\n    /* \"smart_contracts/contracts/BaseERC20.sol\":5600:5610  properties */\n  0x04\n    /* \"smart_contracts/contracts/BaseERC20.sol\":5600:5622  properties.totalVested */\n  0x05\n  add\n  0x00\n    /* \"smart_contracts/contracts/BaseERC20.sol\":5600:5632  properties.totalVested += amount */\n  dup3\n  dup3\n  sload\n  tag_29\n  swap2\n  swap1\n  tag_19\n  jump\t// in\ntag_29:\n  swap3\n  pop\n  pop\n  dup2\n  swap1\n  sstore\n  pop\n    /* \"smart_contracts/contracts/BaseERC20.sol\":5652:5659  account */\n  dup7\n    /* \"smart_contracts/contracts/BaseERC20.sol\":5647:5668  Mint(account, amount) */\n  0xffffffffffffffffffffffffffffffffffffffff\n  and\n  0x0f6798a560793a54c3bcfe86a93cde1e73087d944c0ea20544137d4121396885\n    /* \"smart_contracts/contracts/BaseERC20.sol\":5661:5667  amount */\n  dup8\n    /* \"smart_contracts/contracts/BaseERC20.sol\":5647:5668  Mint(account, amount) */\n  mload(0x40)\n  tag_30\n  swap2\n  swap1\n  tag_31\n  jump\t// in\ntag_30:\n  mload(0x40)\n  dup1\n  swap2\n  sub\n  swap1\n  log2\n    /* \"smart_contracts/contracts/BaseERC20.sol\":5685:5689  true */\n  0x01\n    /* \"smart_contracts/contracts/BaseERC20.sol\":5678:5689  return true */\n  swap4\n  pop\n  pop\n  pop\n  pop\n    /* \"smart_contracts/contracts/Authenticator.sol\":534:539  false */\n  0x00\n    /* \"smart_contracts/contracts/Authenticator.sol\":525:531  locked */\n  0x03\n  0x00\n    /* \"smart_contracts/contracts/Authenticator.sol\":525:539  locked = false */\n  0x0100\n  exp\n  dup2\n  sload\n  dup2\n  0xff\n  mul\n  not\n  and\n  swap1\n  dup4\n  iszero\n  iszero\n  mul\n  or\n  swap1\n  sstore\n  pop\n    /* \"smart_contracts/contracts/BaseERC20.sol\":4812:5696  function mintWithVesting(... */\n  swap4\n  swap3\n  pop\n  pop\n  pop\n  jump\t// out\n    /* \"#utility.yul\":7:176   */\ntag_32:\n    /* \"#utility.yul\":91:102   */\n  0x00\n    /* \"#utility.yul\":125:131   */\n  dup3\n    /* \"#utility.yul\":120:123   */\n  dup3\n    /* \"#utility.yul\":113:132   */\n  mstore\n    /* \"#utility.yul\":165:169   */\n  0x20\n    /* \"#utility.yul\":160:163   */\n  dup3\n    /* \"#utility.yul\":156:170   */\n  add\n    /* \"#utility.yul\":141:170   */\n  swap1\n  pop\n    /* \"#utility.yul\":7:176   */\n  swap3\n  swap2\n  pop\n  pop\n  jump\t// out\n    /* \"#utility.yul\":182:352   */\ntag_33:\n    /* \"#utility.yul\":322:344   */\n  0x416e74692d5265656e7472616e6379204c6f636b000000000000000000000000\n    /* \"#utility.yul\":318:319   */\n  0x00\n    /* \"#utility.yul\":310:316   */\n  dup3\n    /* \"#utility.yul\":306:320   */\n  add\n    /* \"#utility.yul\":299:345   */\n  mstore\n    /* \"#utility.yul\":182:352   */\n  pop\n  jump\t// out\n    /* \"#utility.yul\":358:724   */\ntag_34:\n    /* \"#utility.yul\":500:503   */\n  0x00\n    /* \"#utility.yul\":521:588   */\n  tag_50\n    /* \"#utility.yul\":585:587   */\n  0x14\n    /* \"#utility.yul\":580:583   */\n  dup4\n    /* \"#utility.yul\":521:588   */\n  tag_32\n  jump\t// in\ntag_50:\n    /* \"#utility.yul\":514:588   */\n  swap2\n  pop\n    /* \"#utility.yul\":597:690   */\n  tag_51\n    /* \"#utility.yul\":686:689   */\n  dup3\n    /* \"#utility.yul\":597:690   */\n  tag_33\n  jump\t// in\ntag_51:\n    /* \"#utility.yul\":715:717   */\n  0x20\n    /* \"#utility.yul\":710:713   */\n  dup3\n    /* \"#utility.yul\":706:718   */\n  add\n    /* \"#utility.yul\":699:718   */\n  swap1\n  pop\n    /* \"#utility.yul\":358:724   */\n  swap2\n  swap1\n  pop\n  jump\t// out\n    /* \"#utility.yul\":730:1149   */\ntag_10:\n    /* \"#utility.yul\":896:900   */\n  0x00\n    /* \"#utility.yul\":934:936   */\n  0x20\n    /* \"#utility.yul\":923:932   */\n  dup3\n    /* \"#utility.yul\":919:937   */\n  add\n    /* \"#utility.yul\":911:937   */\n  swap1\n  pop\n    /* \"#utility.yul\":983:992   */\n  dup2\n    /* \"#utility.yul\":977:981   */\n  dup2\n    /* \"#utility.yul\":973:993   */\n  sub\n    /* \"#utility.yul\":969:970   */\n  0x00\n    /* \"#utility.yul\":958:967   */\n  dup4\n    /* \"#utility.yul\":954:971   */\n  add\n    /* \"#utility.yul\":947:994   */\n  mstore\n    /* \"#utility.yul\":1011:1142   */\n  tag_53\n    /* \"#utility.yul\":1137:1141   */\n  dup2\n    /* \"#utility.yul\":1011:1142   */\n  tag_34\n  jump\t// in\ntag_53:\n    /* \"#utility.yul\":1003:1142   */\n  swap1\n  pop\n    /* \"#utility.yul\":730:1149   */\n  swap2\n  swap1\n  pop\n  jump\t// out\n    /* \"#utility.yul\":1155:1380   */\ntag_35:\n    /* \"#utility.yul\":1295:1329   */\n  0x5a65726f20616e64206e656761746976652076616c756573206e6f7420737570\n    /* \"#utility.yul\":1291:1292   */\n  0x00\n    /* \"#utility.yul\":1283:1289   */\n  dup3\n    /* \"#utility.yul\":1279:1293   */\n  add\n    /* \"#utility.yul\":1272:1330   */\n  mstore\n    /* \"#utility.yul\":1364:1372   */\n  0x706f727465640000000000000000000000000000000000000000000000000000\n    /* \"#utility.yul\":1359:1361   */\n  0x20\n    /* \"#utility.yul\":1351:1357   */\n  dup3\n    /* \"#utility.yul\":1347:1362   */\n  add\n    /* \"#utility.yul\":1340:1373   */\n  mstore\n    /* \"#utility.yul\":1155:1380   */\n  pop\n  jump\t// out\n    /* \"#utility.yul\":1386:1752   */\ntag_36:\n    /* \"#utility.yul\":1528:1531   */\n  0x00\n    /* \"#utility.yul\":1549:1616   */\n  tag_56\n    /* \"#utility.yul\":1613:1615   */\n  0x26\n    /* \"#utility.yul\":1608:1611   */\n  dup4\n    /* \"#utility.yul\":1549:1616   */\n  tag_32\n  jump\t// in\ntag_56:\n    /* \"#utility.yul\":1542:1616   */\n  swap2\n  pop\n    /* \"#utility.yul\":1625:1718   */\n  tag_57\n    /* \"#utility.yul\":1714:1717   */\n  dup3\n    /* \"#utility.yul\":1625:1718   */\n  tag_35\n  jump\t// in\ntag_57:\n    /* \"#utility.yul\":1743:1745   */\n  0x40\n    /* \"#utility.yul\":1738:1741   */\n  dup3\n    /* \"#utility.yul\":1734:1746   */\n  add\n    /* \"#utility.yul\":1727:1746   */\n  swap1\n  pop\n    /* \"#utility.yul\":1386:1752   */\n  swap2\n  swap1\n  pop\n  jump\t// out\n    /* \"#utility.yul\":1758:2177   */\ntag_14:\n    /* \"#utility.yul\":1924:1928   */\n  0x00\n    /* \"#utility.yul\":1962:1964   */\n  0x20\n    /* \"#utility.yul\":1951:1960   */\n  dup3\n    /* \"#utility.yul\":1947:1965   */\n  add\n    /* \"#utility.yul\":1939:1965   */\n  swap1\n  pop\n    /* \"#utility.yul\":2011:2020   */\n  dup2\n    /* \"#utility.yul\":2005:2009   */\n  dup2\n    /* \"#utility.yul\":2001:2021   */\n  sub\n    /* \"#utility.yul\":1997:1998   */\n  0x00\n    /* \"#utility.yul\":1986:1995   */\n  dup4\n    /* \"#utility.yul\":1982:1999   */\n  add\n    /* \"#utility.yul\":1975:2022   */\n  mstore\n    /* \"#utility.yul\":2039:2170   */\n  tag_59\n    /* \"#utility.yul\":2165:2169   */\n  dup2\n    /* \"#utility.yul\":2039:2170   */\n  tag_36\n  jump\t// in\ntag_59:\n    /* \"#utility.yul\":2031:2170   */\n  swap1\n  pop\n    /* \"#utility.yul\":1758:2177   */\n  swap2\n  swap1\n  pop\n  jump\t// out\n    /* \"#utility.yul\":2183:2349   */\ntag_37:\n    /* \"#utility.yul\":2323:2341   */\n  0x4d696e74696e672064697361626c656400000000000000000000000000000000\n    /* \"#utility.yul\":2319:2320   */\n  0x00\n    /* \"#utility.yul\":2311:2317   */\n  dup3\n    /* \"#utility.yul\":2307:2321   */\n  add\n    /* \"#utility.yul\":2300:2342   */\n  mstore\n    /* \"#utility.yul\":2183:2349   */\n  pop\n  jump\t// out\n    /* \"#utility.yul\":2355:2721   */\ntag_38:\n    /* \"#utility.yul\":2497:2500   */\n  0x00\n    /* \"#utility.yul\":2518:2585   */\n  tag_62\n    /* \"#utility.yul\":2582:2584   */\n  0x10\n    /* \"#utility.yul\":2577:2580   */\n  dup4\n    /* \"#utility.yul\":2518:2585   */\n  tag_32\n  jump\t// in\ntag_62:\n    /* \"#utility.yul\":2511:2585   */\n  swap2\n  pop\n    /* \"#utility.yul\":2594:2687   */\n  tag_63\n    /* \"#utility.yul\":2683:2686   */\n  dup3\n    /* \"#utility.yul\":2594:2687   */\n  tag_37\n  jump\t// in\ntag_63:\n    /* \"#utility.yul\":2712:2714   */\n  0x20\n    /* \"#utility.yul\":2707:2710   */\n  dup3\n    /* \"#utility.yul\":2703:2715   */\n  add\n    /* \"#utility.yul\":2696:2715   */\n  swap1\n  pop\n    /* \"#utility.yul\":2355:2721   */\n  swap2\n  swap1\n  pop\n  jump\t// out\n    /* \"#utility.yul\":2727:3146   */\ntag_17:\n    /* \"#utility.yul\":2893:2897   */\n  0x00\n    /* \"#utility.yul\":2931:2933   */\n  0x20\n    /* \"#utility.yul\":2920:2929   */\n  dup3\n    /* \"#utility.yul\":2916:2934   */\n  add\n    /* \"#utility.yul\":2908:2934   */\n  swap1\n  pop\n    /* \"#utility.yul\":2980:2989   */\n  dup2\n    /* \"#utility.yul\":2974:2978   */\n  dup2\n    /* \"#utility.yul\":2970:2990   */\n  sub\n    /* \"#utility.yul\":2966:2967   */\n  0x00\n    /* \"#utility.yul\":2955:2964   */\n  dup4\n    /* \"#utility.yul\":2951:2968   */\n  add\n    /* \"#utility.yul\":2944:2991   */\n  mstore\n    /* \"#utility.yul\":3008:3139   */\n  tag_65\n    /* \"#utility.yul\":3134:3138   */\n  dup2\n    /* \"#utility.yul\":3008:3139   */\n  tag_38\n  jump\t// in\ntag_65:\n    /* \"#utility.yul\":3000:3139   */\n  swap1\n  pop\n    /* \"#utility.yul\":2727:3146   */\n  swap2\n  swap1\n  pop\n  jump\t// out\n    /* \"#utility.yul\":3152:3229   */\ntag_39:\n    /* \"#utility.yul\":3189:3196   */\n  0x00\n    /* \"#utility.yul\":3218:3223   */\n  dup2\n    /* \"#utility.yul\":3207:3223   */\n  swap1\n  pop\n    /* \"#utility.yul\":3152:3229   */\n  swap2\n  swap1\n  pop\n  jump\t// out\n    /* \"#utility.yul\":3235:3415   */\ntag_40:\n    /* \"#utility.yul\":3283:3360   */\n  0x4e487b7100000000000000000000000000000000000000000000000000000000\n    /* \"#utility.yul\":3280:3281   */\n  0x00\n    /* \"#utility.yul\":3273:3361   */\n  mstore\n    /* \"#utility.yul\":3380:3384   */\n  0x11\n    /* \"#utility.yul\":3377:3378   */\n  0x04\n    /* \"#utility.yul\":3370:3385   */\n  mstore\n    /* \"#utility.yul\":3404:3408   */\n  0x24\n    /* \"#utility.yul\":3401:3402   */\n  0x00\n    /* \"#utility.yul\":3394:3409   */\n  revert\n    /* \"#utility.yul\":3421:3612   */\ntag_19:\n    /* \"#utility.yul\":3461:3464   */\n  0x00\n    /* \"#utility.yul\":3480:3500   */\n  tag_69\n    /* \"#utility.yul\":3498:3499   */\n  dup3\n    /* \"#utility.yul\":3480:3500   */\n  tag_39\n  jump\t// in\ntag_69:\n    /* \"#utility.yul\":3475:3500   */\n  swap2\n  pop\n    /* \"#utility.yul\":3514:3534   */\n  tag_70\n    /* \"#utility.yul\":3532:3533   */\n  dup4\n    /* \"#utility.yul\":3514:3534   */\n  tag_39\n  jump\t// in\ntag_70:\n    /* \"#utility.yul\":3509:3534   */\n  swap3\n  pop\n    /* \"#utility.yul\":3557:3558   */\n  dup3\n    /* \"#utility.yul\":3554:3555   */\n  dup3\n    /* \"#utility.yul\":3550:3559   */\n  add\n    /* \"#utility.yul\":3543:3559   */\n  swap1\n  pop\n    /* \"#utility.yul\":3578:3581   */\n  dup1\n    /* \"#utility.yul\":3575:3576   */\n  dup3\n    /* \"#utility.yul\":3572:3582   */\n  gt\n    /* \"#utility.yul\":3569:3605   */\n  iszero\n  tag_71\n  jumpi\n    /* \"#utility.yul\":3585:3603   */\n  tag_72\n  tag_40\n  jump\t// in\ntag_72:\n    /* \"#utility.yul\":3569:3605   */\ntag_71:\n    /* \"#utility.yul\":3421:3612   */\n  swap3\n  swap2\n  pop\n  pop\n  jump\t// out\n    /* \"#utility.yul\":3618:3796   */\ntag_41:\n    /* \"#utility.yul\":3758:3788   */\n  0x4e6f206d6f726520746f6b656e732063616e206265206d696e74656400000000\n    /* \"#utility.yul\":3754:3755   */\n  0x00\n    /* \"#utility.yul\":3746:3752   */\n  dup3\n    /* \"#utility.yul\":3742:3756   */\n  add\n    /* \"#utility.yul\":3735:3789   */\n  mstore\n    /* \"#utility.yul\":3618:3796   */\n  pop\n  jump\t// out\n    /* \"#utility.yul\":3802:4168   */\ntag_42:\n    /* \"#utility.yul\":3944:3947   */\n  0x00\n    /* \"#utility.yul\":3965:4032   */\n  tag_75\n    /* \"#utility.yul\":4029:4031   */\n  0x1c\n    /* \"#utility.yul\":4024:4027   */\n  dup4\n    /* \"#utility.yul\":3965:4032   */\n  tag_32\n  jump\t// in\ntag_75:\n    /* \"#utility.yul\":3958:4032   */\n  swap2\n  pop\n    /* \"#utility.yul\":4041:4134   */\n  tag_76\n    /* \"#utility.yul\":4130:4133   */\n  dup3\n    /* \"#utility.yul\":4041:4134   */\n  tag_41\n  jump\t// in\ntag_76:\n    /* \"#utility.yul\":4159:4161   */\n  0x20\n    /* \"#utility.yul\":4154:4157   */\n  dup3\n    /* \"#utility.yul\":4150:4162   */\n  add\n    /* \"#utility.yul\":4143:4162   */\n  swap1\n  pop\n    /* \"#utility.yul\":3802:4168   */\n  swap2\n  swap1\n  pop\n  jump\t// out\n    /* \"#utility.yul\":4174:4593   */\ntag_22:\n    /* \"#utility.yul\":4340:4344   */\n  0x00\n    /* \"#utility.yul\":4378:4380   */\n  0x20\n    /* \"#utility.yul\":4367:4376   */\n  dup3\n    /* \"#utility.yul\":4363:4381   */\n  add\n    /* \"#utility.yul\":4355:4381   */\n  swap1\n  pop\n    /* \"#utility.yul\":4427:4436   */\n  dup2\n    /* \"#utility.yul\":4421:4425   */\n  dup2\n    /* \"#utility.yul\":4417:4437   */\n  sub\n    /* \"#utility.yul\":4413:4414   */\n  0x00\n    /* \"#utility.yul\":4402:4411   */\n  dup4\n    /* \"#utility.yul\":4398:4415   */\n  add\n    /* \"#utility.yul\":4391:4438   */\n  mstore\n    /* \"#utility.yul\":4455:4586   */\n  tag_78\n    /* \"#utility.yul\":4581:4585   */\n  dup2\n    /* \"#utility.yul\":4455:4586   */\n  tag_42\n  jump\t// in\ntag_78:\n    /* \"#utility.yul\":4447:4586   */\n  swap1\n  pop\n    /* \"#utility.yul\":4174:4593   */\n  swap2\n  swap1\n  pop\n  jump\t// out\n    /* \"#utility.yul\":4599:4770   */\ntag_43:\n    /* \"#utility.yul\":4739:4762   */\n  0x41646472657373206e6f7420737570706f727465640000000000000000000000\n    /* \"#utility.yul\":4735:4736   */\n  0x00\n    /* \"#utility.yul\":4727:4733   */\n  dup3\n    /* \"#utility.yul\":4723:4737   */\n  add\n    /* \"#utility.yul\":4716:4763   */\n  mstore\n    /* \"#utility.yul\":4599:4770   */\n  pop\n  jump\t// out\n    /* \"#utility.yul\":4776:5142   */\ntag_44:\n    /* \"#utility.yul\":4918:4921   */\n  0x00\n    /* \"#utility.yul\":4939:5006   */\n  tag_81\n    /* \"#utility.yul\":5003:5005   */\n  0x15\n    /* \"#utility.yul\":4998:5001   */\n  dup4\n    /* \"#utility.yul\":4939:5006   */\n  tag_32\n  jump\t// in\ntag_81:\n    /* \"#utility.yul\":4932:5006   */\n  swap2\n  pop\n    /* \"#utility.yul\":5015:5108   */\n  tag_82\n    /* \"#utility.yul\":5104:5107   */\n  dup3\n    /* \"#utility.yul\":5015:5108   */\n  tag_43\n  jump\t// in\ntag_82:\n    /* \"#utility.yul\":5133:5135   */\n  0x20\n    /* \"#utility.yul\":5128:5131   */\n  dup3\n    /* \"#utility.yul\":5124:5136   */\n  add\n    /* \"#utility.yul\":5117:5136   */\n  swap1\n  pop\n    /* \"#utility.yul\":4776:5142   */\n  swap2\n  swap1\n  pop\n  jump\t// out\n    /* \"#utility.yul\":5148:5567   */\ntag_25:\n    /* \"#utility.yul\":5314:5318   */\n  0x00\n    /* \"#utility.yul\":5352:5354   */\n  0x20\n    /* \"#utility.yul\":5341:5350   */\n  dup3\n    /* \"#utility.yul\":5337:5355   */\n  add\n    /* \"#utility.yul\":5329:5355   */\n  swap1\n  pop\n    /* \"#utility.yul\":5401:5410   */\n  dup2\n    /* \"#utility.yul\":5395:5399   */\n  dup2\n    /* \"#utility.yul\":5391:5411   */\n  sub\n    /* \"#utility.yul\":5387:5388   */\n  0x00\n    /* \"#utility.yul\":5376:5385   */\n  dup4\n    /* \"#utility.yul\":5372:5389   */\n  add\n    /* \"#utility.yul\":5365:5412   */\n  mstore\n    /* \"#utility.yul\":5429:5560   */\n  tag_84\n    /* \"#utility.yul\":5555:5559   */\n  dup2\n    /* \"#utility.yul\":5429:5560   */\n  tag_44\n  jump\t// in\ntag_84:\n    /* \"#utility.yul\":5421:5560   */\n  swap1\n  pop\n    /* \"#utility.yul\":5148:5567   */\n  swap2\n  swap1\n  pop\n  jump\t// out\n    /* \"#utility.yul\":5573:5691   */\ntag_45:\n    /* \"#utility.yul\":5660:5684   */\n  tag_86\n    /* \"#utility.yul\":5678:5683   */\n  dup2\n    /* \"#utility.yul\":5660:5684   */\n  tag_39\n  jump\t// in\ntag_86:\n    /* \"#utility.yul\":5655:5658   */\n  dup3\n    /* \"#utility.yul\":5648:5685   */\n  mstore\n    /* \"#utility.yul\":5573:5691   */\n  pop\n  pop\n  jump\t// out\n    /* \"#utility.yul\":5697:5919   */\ntag_31:\n    /* \"#utility.yul\":5790:5794   */\n  0x00\n    /* \"#utility.yul\":5828:5830   */\n  0x20\n    /* \"#utility.yul\":5817:5826   */\n  dup3\n    /* \"#utility.yul\":5813:5831   */\n  add\n    /* \"#utility.yul\":5805:5831   */\n  swap1\n  pop\n    /* \"#utility.yul\":5841:5912   */\n  tag_88\n    /* \"#utility.yul\":5909:5910   */\n  0x00\n    /* \"#utility.yul\":5898:5907   */\n  dup4\n    /* \"#utility.yul\":5894:5911   */\n  add\n    /* \"#utility.yul\":5885:5891   */\n  dup5\n    /* \"#utility.yul\":5841:5912   */\n  tag_45\n  jump\t// in\ntag_88:\n    /* \"#utility.yul\":5697:5919   */\n  swap3\n  swap2\n  pop\n  pop\n  jump\t// out\n    /* \"smart_contracts/contracts/BaseERC20.sol\":218:8680  contract BaseERC20 is Authenticator {... */\ntag_6:\n  dataSize(sub_0)\n  dup1\n  dataOffset(sub_0)\n  0x00\n  codecopy\n  0x00\n  return\nstop\n\nsub_0: assembly {\n        /* \"smart_contracts/contracts/BaseERC20.sol\":218:8680  contract BaseERC20 is Authenticator {... */\n      mstore(0x40, 0x80)\n      callvalue\n      dup1\n      iszero\n      tag_1\n      jumpi\n      0x00\n      dup1\n      revert\n    tag_1:\n      pop\n      jumpi(tag_2, lt(calldatasize, 0x04))\n      shr(0xe0, calldataload(0x00))\n      dup1\n      0x7657135c\n      gt\n      tag_20\n      jumpi\n      dup1\n      0x95d89b41\n      gt\n      tag_21\n      jumpi\n      dup1\n      0x95d89b41\n      eq\n      tag_15\n      jumpi\n      dup1\n      0xa457c2d7\n      eq\n      tag_16\n      jumpi\n      dup1\n      0xa9059cbb\n      eq\n      tag_17\n      jumpi\n      dup1\n      0xdd62ed3e\n      eq\n      tag_18\n      jumpi\n      dup1\n      0xfeb73f8b\n      eq\n      tag_19\n      jumpi\n      jump(tag_2)\n    tag_21:\n      dup1\n      0x7657135c\n      eq\n      tag_11\n      jumpi\n      dup1\n      0x7fb8b61e\n      eq\n      tag_12\n      jumpi\n      dup1\n      0x817b1cd2\n      eq\n      tag_13\n      jumpi\n      dup1\n      0x86d1a69f\n      eq\n      tag_14\n      jumpi\n      jump(tag_2)\n    tag_20:\n      dup1\n      0x23b872dd\n      gt\n      tag_22\n      jumpi\n      dup1\n      0x23b872dd\n      eq\n      tag_7\n      jumpi\n      dup1\n      0x313ce567\n      eq\n      tag_8\n      jumpi\n      dup1\n      0x39509351\n      eq\n      tag_9\n      jumpi\n      dup1\n      0x70a08231\n      eq\n      tag_10\n      jumpi\n      jump(tag_2)\n    tag_22:\n      dup1\n      0x06fdde03\n      eq\n      tag_3\n      jumpi\n      dup1\n      0x095ea7b3\n      eq\n      tag_4\n      jumpi\n      dup1\n      0x18160ddd\n      eq\n      tag_5\n      jumpi\n      dup1\n      0x199cbc54\n      eq\n      tag_6\n      jumpi\n    tag_2:\n      0x00\n      dup1\n      revert\n        /* \"smart_contracts/contracts/BaseERC20.sol\":7097:7188  function name() public view returns (string memory) {... */\n    tag_3:\n      tag_23\n      tag_24\n      jump\t// in\n    tag_23:\n      mload(0x40)\n      tag_25\n      swap2\n      swap1\n      tag_26\n      jump\t// in\n    tag_25:\n      mload(0x40)\n      dup1\n      swap2\n      sub\n      swap1\n      return\n        /* \"smart_contracts/contracts/BaseERC20.sol\":772:1009  function approve(address spender, uint256 amount)... */\n    tag_4:\n      tag_27\n      0x04\n      dup1\n      calldatasize\n      sub\n      dup2\n      add\n      swap1\n      tag_28\n      swap2\n      swap1\n      tag_29\n      jump\t// in\n    tag_28:\n      tag_30\n      jump\t// in\n    tag_27:\n      mload(0x40)\n      tag_31\n      swap2\n      swap1\n      tag_32\n      jump\t// in\n    tag_31:\n      mload(0x40)\n      dup1\n      swap2\n      sub\n      swap1\n      return\n        /* \"smart_contracts/contracts/BaseERC20.sol\":7394:7493  function totalSupply() public view returns (uint256) {... */\n    tag_5:\n      tag_33\n      tag_34\n      jump\t// in\n    tag_33:\n      mload(0x40)\n      tag_35\n      swap2\n      swap1\n      tag_36\n      jump\t// in\n    tag_35:\n      mload(0x40)\n      dup1\n      swap2\n      sub\n      swap1\n      return\n        /* \"smart_contracts/contracts/BaseERC20.sol\":7499:7598  function totalVested() public view returns (uint256) {... */\n    tag_6:\n      tag_37\n      tag_38\n      jump\t// in\n    tag_37:\n      mload(0x40)\n      tag_39\n      swap2\n      swap1\n      tag_36\n      jump\t// in\n    tag_39:\n      mload(0x40)\n      dup1\n      swap2\n      sub\n      swap1\n      return\n        /* \"smart_contracts/contracts/BaseERC20.sol\":3090:3692  function transferFrom(... */\n    tag_7:\n      tag_40\n      0x04\n      dup1\n      calldatasize\n      sub\n      dup2\n      add\n      swap1\n      tag_41\n      swap2\n      swap1\n      tag_42\n      jump\t// in\n    tag_41:\n      tag_43\n      jump\t// in\n    tag_40:\n      mload(0x40)\n      tag_44\n      swap2\n      swap1\n      tag_32\n      jump\t// in\n    tag_44:\n      mload(0x40)\n      dup1\n      swap2\n      sub\n      swap1\n      return\n        /* \"smart_contracts/contracts/BaseERC20.sol\":7295:7388  function decimals() public view returns (uint256) {... */\n    tag_8:\n      tag_45\n      tag_46\n      jump\t// in\n    tag_45:\n      mload(0x40)\n      tag_47\n      swap2\n      swap1\n      tag_36\n      jump\t// in\n    tag_47:\n      mload(0x40)\n      dup1\n      swap2\n      sub\n      swap1\n      return\n        /* \"smart_contracts/contracts/BaseERC20.sol\":1015:1298  function increaseAllowance(address spender, uint256 addedValue)... */\n    tag_9:\n      tag_48\n      0x04\n      dup1\n      calldatasize\n      sub\n      dup2\n      add\n      swap1\n      tag_49\n      swap2\n      swap1\n      tag_29\n      jump\t// in\n    tag_49:\n      tag_50\n      jump\t// in\n    tag_48:\n      mload(0x40)\n      tag_51\n      swap2\n      swap1\n      tag_32\n      jump\t// in\n    tag_51:\n      mload(0x40)\n      dup1\n      swap2\n      sub\n      swap1\n      return\n        /* \"smart_contracts/contracts/BaseERC20.sol\":7709:7824  function balanceOf(address account) public view returns (uint256) {... */\n    tag_10:\n      tag_52\n      0x04\n      dup1\n      calldatasize\n      sub\n      dup2\n      add\n      swap1\n      tag_53\n      swap2\n      swap1\n      tag_54\n      jump\t// in\n    tag_53:\n      tag_55\n      jump\t// in\n    tag_52:\n      mload(0x40)\n      tag_56\n      swap2\n      swap1\n      tag_36\n      jump\t// in\n    tag_56:\n      mload(0x40)\n      dup1\n      swap2\n      sub\n      swap1\n      return\n        /* \"smart_contracts/contracts/BaseERC20.sol\":7830:7944  function vestedFor(address account) public view returns (uint256) {... */\n    tag_11:\n      tag_57\n      0x04\n      dup1\n      calldatasize\n      sub\n      dup2\n      add\n      swap1\n      tag_58\n      swap2\n      swap1\n      tag_54\n      jump\t// in\n    tag_58:\n      tag_59\n      jump\t// in\n    tag_57:\n      mload(0x40)\n      tag_60\n      swap2\n      swap1\n      tag_36\n      jump\t// in\n    tag_60:\n      mload(0x40)\n      dup1\n      swap2\n      sub\n      swap1\n      return\n        /* \"smart_contracts/contracts/BaseERC20.sol\":8070:8185  function voteWeightOf(address account) public view returns (uint256) {... */\n    tag_12:\n      tag_61\n      0x04\n      dup1\n      calldatasize\n      sub\n      dup2\n      add\n      swap1\n      tag_62\n      swap2\n      swap1\n      tag_54\n      jump\t// in\n    tag_62:\n      tag_63\n      jump\t// in\n    tag_61:\n      mload(0x40)\n      tag_64\n      swap2\n      swap1\n      tag_36\n      jump\t// in\n    tag_64:\n      mload(0x40)\n      dup1\n      swap2\n      sub\n      swap1\n      return\n        /* \"smart_contracts/contracts/BaseERC20.sol\":7604:7703  function totalStaked() public view returns (uint256) {... */\n    tag_13:\n      tag_65\n      tag_66\n      jump\t// in\n    tag_65:\n      mload(0x40)\n      tag_67\n      swap2\n      swap1\n      tag_36\n      jump\t// in\n    tag_67:\n      mload(0x40)\n      dup1\n      swap2\n      sub\n      swap1\n      return\n        /* \"smart_contracts/contracts/BaseERC20.sol\":5702:7091  function release() public virtual reentrancyLock returns (bool) {... */\n    tag_14:\n      tag_68\n      tag_69\n      jump\t// in\n    tag_68:\n      mload(0x40)\n      tag_70\n      swap2\n      swap1\n      tag_32\n      jump\t// in\n    tag_70:\n      mload(0x40)\n      dup1\n      swap2\n      sub\n      swap1\n      return\n        /* \"smart_contracts/contracts/BaseERC20.sol\":7194:7289  function symbol() public view returns (string memory) {... */\n    tag_15:\n      tag_71\n      tag_72\n      jump\t// in\n    tag_71:\n      mload(0x40)\n      tag_73\n      swap2\n      swap1\n      tag_26\n      jump\t// in\n    tag_73:\n      mload(0x40)\n      dup1\n      swap2\n      sub\n      swap1\n      return\n        /* \"smart_contracts/contracts/BaseERC20.sol\":1304:1806  function decreaseAllowance(address spender, uint256 subtractedValue)... */\n    tag_16:\n      tag_74\n      0x04\n      dup1\n      calldatasize\n      sub\n      dup2\n      add\n      swap1\n      tag_75\n      swap2\n      swap1\n      tag_29\n      jump\t// in\n    tag_75:\n      tag_76\n      jump\t// in\n    tag_74:\n      mload(0x40)\n      tag_77\n      swap2\n      swap1\n      tag_32\n      jump\t// in\n    tag_77:\n      mload(0x40)\n      dup1\n      swap2\n      sub\n      swap1\n      return\n        /* \"smart_contracts/contracts/BaseERC20.sol\":2650:3084  function transfer(address _recipient, uint256 _amount)... */\n    tag_17:\n      tag_78\n      0x04\n      dup1\n      calldatasize\n      sub\n      dup2\n      add\n      swap1\n      tag_79\n      swap2\n      swap1\n      tag_29\n      jump\t// in\n    tag_79:\n      tag_80\n      jump\t// in\n    tag_78:\n      mload(0x40)\n      tag_81\n      swap2\n      swap1\n      tag_32\n      jump\t// in\n    tag_81:\n      mload(0x40)\n      dup1\n      swap2\n      sub\n      swap1\n      return\n        /* \"smart_contracts/contracts/BaseERC20.sol\":8191:8356  function allowance(address owner, address spender)... */\n    tag_18:\n      tag_82\n      0x04\n      dup1\n      calldatasize\n      sub\n      dup2\n      add\n      swap1\n      tag_83\n      swap2\n      swap1\n      tag_84\n      jump\t// in\n    tag_83:\n      tag_85\n      jump\t// in\n    tag_82:\n      mload(0x40)\n      tag_86\n      swap2\n      swap1\n      tag_36\n      jump\t// in\n    tag_86:\n      mload(0x40)\n      dup1\n      swap2\n      sub\n      swap1\n      return\n        /* \"smart_contracts/contracts/BaseERC20.sol\":7950:8064  function stakedFor(address account) public view returns (uint256) {... */\n    tag_19:\n      tag_87\n      0x04\n      dup1\n      calldatasize\n      sub\n      dup2\n      add\n      swap1\n      tag_88\n      swap2\n      swap1\n      tag_54\n      jump\t// in\n    tag_88:\n      tag_89\n      jump\t// in\n    tag_87:\n      mload(0x40)\n      tag_90\n      swap2\n      swap1\n      tag_36\n      jump\t// in\n    tag_90:\n      mload(0x40)\n      dup1\n      swap2\n      sub\n      swap1\n      return\n        /* \"smart_contracts/contracts/BaseERC20.sol\":7097:7188  function name() public view returns (string memory) {... */\n    tag_24:\n        /* \"smart_contracts/contracts/BaseERC20.sol\":7134:7147  string memory */\n      0x60\n        /* \"smart_contracts/contracts/BaseERC20.sol\":7166:7176  properties */\n      0x04\n        /* \"smart_contracts/contracts/BaseERC20.sol\":7166:7181  properties.name */\n      0x00\n      add\n        /* \"smart_contracts/contracts/BaseERC20.sol\":7159:7181  return properties.name */\n      dup1\n      sload\n      tag_92\n      swap1\n      tag_93\n      jump\t// in\n    tag_92:\n      dup1\n      0x1f\n      add\n      0x20\n      dup1\n      swap2\n      div\n      mul\n      0x20\n      add\n      mload(0x40)\n      swap1\n      dup2\n      add\n      0x40\n      mstore\n      dup1\n      swap3\n      swap2\n      swap1\n      dup2\n      dup2\n      mstore\n      0x20\n      add\n      dup3\n      dup1\n      sload\n      tag_94\n      swap1\n      tag_93\n      jump\t// in\n    tag_94:\n      dup1\n      iszero\n      tag_95\n      jumpi\n      dup1\n      0x1f\n      lt\n      tag_96\n      jumpi\n      0x0100\n      dup1\n      dup4\n      sload\n      div\n      mul\n      dup4\n      mstore\n      swap2\n      0x20\n      add\n      swap2\n      jump(tag_95)\n    tag_96:\n      dup3\n      add\n      swap2\n      swap1\n      0x00\n      mstore\n      keccak256(0x00, 0x20)\n      swap1\n    tag_97:\n      dup2\n      sload\n      dup2\n      mstore\n      swap1\n      0x01\n      add\n      swap1\n      0x20\n      add\n      dup1\n      dup4\n      gt\n      tag_97\n      jumpi\n      dup3\n      swap1\n      sub\n      0x1f\n      and\n      dup3\n      add\n      swap2\n    tag_95:\n      pop\n      pop\n      pop\n      pop\n      pop\n      swap1\n      pop\n        /* \"smart_contracts/contracts/BaseERC20.sol\":7097:7188  function name() public view returns (string memory) {... */\n      swap1\n      jump\t// out\n        /* \"smart_contracts/contracts/BaseERC20.sol\":772:1009  function approve(address spender, uint256 amount)... */\n    tag_30:\n        /* \"smart_contracts/contracts/BaseERC20.sol\":893:897  bool */\n      0x00\n        /* \"smart_contracts/contracts/Authenticator.sol\":450:456  locked */\n      0x03\n      0x00\n      swap1\n      sload\n      swap1\n      0x0100\n      exp\n      swap1\n      div\n      0xff\n      and\n        /* \"smart_contracts/contracts/Authenticator.sol\":449:456  !locked */\n      iszero\n        /* \"smart_contracts/contracts/Authenticator.sol\":441:481  require(!locked, \"Anti-Reentrancy Lock\") */\n      tag_99\n      jumpi\n      mload(0x40)\n      0x08c379a000000000000000000000000000000000000000000000000000000000\n      dup2\n      mstore\n      0x04\n      add\n      tag_100\n      swap1\n      tag_101\n      jump\t// in\n    tag_100:\n      mload(0x40)\n      dup1\n      swap2\n      sub\n      swap1\n      revert\n    tag_99:\n        /* \"smart_contracts/contracts/Authenticator.sol\":500:504  true */\n      0x01\n        /* \"smart_contracts/contracts/Authenticator.sol\":491:497  locked */\n      0x03\n      0x00\n        /* \"smart_contracts/contracts/Authenticator.sol\":491:504  locked = true */\n      0x0100\n      exp\n      dup2\n      sload\n      dup2\n      0xff\n      mul\n      not\n      and\n      swap1\n      dup4\n      iszero\n      iszero\n      mul\n      or\n      swap1\n      sstore\n      pop\n        /* \"smart_contracts/contracts/BaseERC20.sol\":913:926  address owner */\n      0x00\n        /* \"smart_contracts/contracts/BaseERC20.sol\":929:939  msg.sender */\n      caller\n        /* \"smart_contracts/contracts/BaseERC20.sol\":913:939  address owner = msg.sender */\n      swap1\n      pop\n        /* \"smart_contracts/contracts/BaseERC20.sol\":949:981  _approve(owner, spender, amount) */\n      tag_103\n        /* \"smart_contracts/contracts/BaseERC20.sol\":958:963  owner */\n      dup2\n        /* \"smart_contracts/contracts/BaseERC20.sol\":965:972  spender */\n      dup6\n        /* \"smart_contracts/contracts/BaseERC20.sol\":974:980  amount */\n      dup6\n        /* \"smart_contracts/contracts/BaseERC20.sol\":949:957  _approve */\n      tag_104\n        /* \"smart_contracts/contracts/BaseERC20.sol\":949:981  _approve(owner, spender, amount) */\n      jump\t// in\n    tag_103:\n        /* \"smart_contracts/contracts/BaseERC20.sol\":998:1002  true */\n      0x01\n        /* \"smart_contracts/contracts/BaseERC20.sol\":991:1002  return true */\n      swap2\n      pop\n      pop\n        /* \"smart_contracts/contracts/Authenticator.sol\":534:539  false */\n      0x00\n        /* \"smart_contracts/contracts/Authenticator.sol\":525:531  locked */\n      0x03\n      0x00\n        /* \"smart_contracts/contracts/Authenticator.sol\":525:539  locked = false */\n      0x0100\n      exp\n      dup2\n      sload\n      dup2\n      0xff\n      mul\n      not\n      and\n      swap1\n      dup4\n      iszero\n      iszero\n      mul\n      or\n      swap1\n      sstore\n      pop\n        /* \"smart_contracts/contracts/BaseERC20.sol\":772:1009  function approve(address spender, uint256 amount)... */\n      swap3\n      swap2\n      pop\n      pop\n      jump\t// out\n        /* \"smart_contracts/contracts/BaseERC20.sol\":7394:7493  function totalSupply() public view returns (uint256) {... */\n    tag_34:\n        /* \"smart_contracts/contracts/BaseERC20.sol\":7438:7445  uint256 */\n      0x00\n        /* \"smart_contracts/contracts/BaseERC20.sol\":7464:7474  properties */\n      0x04\n        /* \"smart_contracts/contracts/BaseERC20.sol\":7464:7486  properties.totalSupply */\n      dup1\n      add\n      sload\n        /* \"smart_contracts/contracts/BaseERC20.sol\":7457:7486  return properties.totalSupply */\n      swap1\n      pop\n        /* \"smart_contracts/contracts/BaseERC20.sol\":7394:7493  function totalSupply() public view returns (uint256) {... */\n      swap1\n      jump\t// out\n        /* \"smart_contracts/contracts/BaseERC20.sol\":7499:7598  function totalVested() public view returns (uint256) {... */\n    tag_38:\n        /* \"smart_contracts/contracts/BaseERC20.sol\":7543:7550  uint256 */\n      0x00\n        /* \"smart_contracts/contracts/BaseERC20.sol\":7569:7579  properties */\n      0x04\n        /* \"smart_contracts/contracts/BaseERC20.sol\":7569:7591  properties.totalVested */\n      0x05\n      add\n      sload\n        /* \"smart_contracts/contracts/BaseERC20.sol\":7562:7591  return properties.totalVested */\n      swap1\n      pop\n        /* \"smart_contracts/contracts/BaseERC20.sol\":7499:7598  function totalVested() public view returns (uint256) {... */\n      swap1\n      jump\t// out\n        /* \"smart_contracts/contracts/BaseERC20.sol\":3090:3692  function transferFrom(... */\n    tag_43:\n        /* \"smart_contracts/contracts/BaseERC20.sol\":3235:3239  bool */\n      0x00\n        /* \"smart_contracts/contracts/Authenticator.sol\":450:456  locked */\n      0x03\n      0x00\n      swap1\n      sload\n      swap1\n      0x0100\n      exp\n      swap1\n      div\n      0xff\n      and\n        /* \"smart_contracts/contracts/Authenticator.sol\":449:456  !locked */\n      iszero\n        /* \"smart_contracts/contracts/Authenticator.sol\":441:481  require(!locked, \"Anti-Reentrancy Lock\") */\n      tag_108\n      jumpi\n      mload(0x40)\n      0x08c379a000000000000000000000000000000000000000000000000000000000\n      dup2\n      mstore\n      0x04\n      add\n      tag_109\n      swap1\n      tag_101\n      jump\t// in\n    tag_109:\n      mload(0x40)\n      dup1\n      swap2\n      sub\n      swap1\n      revert\n    tag_108:\n        /* \"smart_contracts/contracts/Authenticator.sol\":500:504  true */\n      0x01\n        /* \"smart_contracts/contracts/Authenticator.sol\":491:497  locked */\n      0x03\n      0x00\n        /* \"smart_contracts/contracts/Authenticator.sol\":491:504  locked = true */\n      0x0100\n      exp\n      dup2\n      sload\n      dup2\n      0xff\n      mul\n      not\n      and\n      swap1\n      dup4\n      iszero\n      iszero\n      mul\n      or\n      swap1\n      sstore\n      pop\n        /* \"smart_contracts/contracts/BaseERC20.sol\":3288:3295  _amount */\n      dup2\n        /* \"smart_contracts/contracts/BaseERC20.sol\":3259:3267  database */\n      0x0b\n        /* \"smart_contracts/contracts/BaseERC20.sol\":3259:3275  database.balance */\n      0x00\n      add\n        /* \"smart_contracts/contracts/BaseERC20.sol\":3259:3284  database.balance[_sender] */\n      0x00\n        /* \"smart_contracts/contracts/BaseERC20.sol\":3276:3283  _sender */\n      dup7\n        /* \"smart_contracts/contracts/BaseERC20.sol\":3259:3284  database.balance[_sender] */\n      0xffffffffffffffffffffffffffffffffffffffff\n      and\n      0xffffffffffffffffffffffffffffffffffffffff\n      and\n      dup2\n      mstore\n      0x20\n      add\n      swap1\n      dup2\n      mstore\n      0x20\n      add\n      0x00\n      keccak256\n      sload\n        /* \"smart_contracts/contracts/BaseERC20.sol\":3259:3295  database.balance[_sender] >= _amount */\n      lt\n      iszero\n        /* \"smart_contracts/contracts/BaseERC20.sol\":3251:3320  require(database.balance[_sender] >= _amount, \"Insufficient balance\") */\n      tag_111\n      jumpi\n      mload(0x40)\n      0x08c379a000000000000000000000000000000000000000000000000000000000\n      dup2\n      mstore\n      0x04\n      add\n      tag_112\n      swap1\n      tag_113\n      jump\t// in\n    tag_112:\n      mload(0x40)\n      dup1\n      swap2\n      sub\n      swap1\n      revert\n    tag_111:\n        /* \"smart_contracts/contracts/BaseERC20.sol\":3392:3399  _amount */\n      dup2\n        /* \"smart_contracts/contracts/BaseERC20.sol\":3351:3359  database */\n      0x0b\n        /* \"smart_contracts/contracts/BaseERC20.sol\":3351:3367  database.allowed */\n      0x04\n      add\n        /* \"smart_contracts/contracts/BaseERC20.sol\":3351:3376  database.allowed[_sender] */\n      0x00\n        /* \"smart_contracts/contracts/BaseERC20.sol\":3368:3375  _sender */\n      dup7\n        /* \"smart_contracts/contracts/BaseERC20.sol\":3351:3376  database.allowed[_sender] */\n      0xffffffffffffffffffffffffffffffffffffffff\n      and\n      0xffffffffffffffffffffffffffffffffffffffff\n      and\n      dup2\n      mstore\n      0x20\n      add\n      swap1\n      dup2\n      mstore\n      0x20\n      add\n      0x00\n      keccak256\n        /* \"smart_contracts/contracts/BaseERC20.sol\":3351:3388  database.allowed[_sender][msg.sender] */\n      0x00\n        /* \"smart_contracts/contracts/BaseERC20.sol\":3377:3387  msg.sender */\n      caller\n        /* \"smart_contracts/contracts/BaseERC20.sol\":3351:3388  database.allowed[_sender][msg.sender] */\n      0xffffffffffffffffffffffffffffffffffffffff\n      and\n      0xffffffffffffffffffffffffffffffffffffffff\n      and\n      dup2\n      mstore\n      0x20\n      add\n      swap1\n      dup2\n      mstore\n      0x20\n      add\n      0x00\n      keccak256\n      sload\n        /* \"smart_contracts/contracts/BaseERC20.sol\":3351:3399  database.allowed[_sender][msg.sender] >= _amount */\n      lt\n      iszero\n        /* \"smart_contracts/contracts/BaseERC20.sol\":3330:3458  require(... */\n      tag_114\n      jumpi\n      mload(0x40)\n      0x08c379a000000000000000000000000000000000000000000000000000000000\n      dup2\n      mstore\n      0x04\n      add\n      tag_115\n      swap1\n      tag_116\n      jump\t// in\n    tag_115:\n      mload(0x40)\n      dup1\n      swap2\n      sub\n      swap1\n      revert\n    tag_114:\n        /* \"smart_contracts/contracts/BaseERC20.sol\":3497:3504  _amount */\n      dup2\n        /* \"smart_contracts/contracts/BaseERC20.sol\":3468:3476  database */\n      0x0b\n        /* \"smart_contracts/contracts/BaseERC20.sol\":3468:3484  database.balance */\n      0x00\n      add\n        /* \"smart_contracts/contracts/BaseERC20.sol\":3468:3493  database.balance[_sender] */\n      0x00\n        /* \"smart_contracts/contracts/BaseERC20.sol\":3485:3492  _sender */\n      dup7\n        /* \"smart_contracts/contracts/BaseERC20.sol\":3468:3493  database.balance[_sender] */\n      0xffffffffffffffffffffffffffffffffffffffff\n      and\n      0xffffffffffffffffffffffffffffffffffffffff\n      and\n      dup2\n      mstore\n      0x20\n      add\n      swap1\n      dup2\n      mstore\n      0x20\n      add\n      0x00\n      keccak256\n      0x00\n        /* \"smart_contracts/contracts/BaseERC20.sol\":3468:3504  database.balance[_sender] -= _amount */\n      dup3\n      dup3\n      sload\n      tag_117\n      swap2\n      swap1\n      tag_118\n      jump\t// in\n    tag_117:\n      swap3\n      pop\n      pop\n      dup2\n      swap1\n      sstore\n      pop\n        /* \"smart_contracts/contracts/BaseERC20.sol\":3546:3553  _amount */\n      dup2\n        /* \"smart_contracts/contracts/BaseERC20.sol\":3514:3522  database */\n      0x0b\n        /* \"smart_contracts/contracts/BaseERC20.sol\":3514:3530  database.balance */\n      0x00\n      add\n        /* \"smart_contracts/contracts/BaseERC20.sol\":3514:3542  database.balance[_recipient] */\n      0x00\n        /* \"smart_contracts/contracts/BaseERC20.sol\":3531:3541  _recipient */\n      dup6\n        /* \"smart_contracts/contracts/BaseERC20.sol\":3514:3542  database.balance[_recipient] */\n      0xffffffffffffffffffffffffffffffffffffffff\n      and\n      0xffffffffffffffffffffffffffffffffffffffff\n      and\n      dup2\n      mstore\n      0x20\n      add\n      swap1\n      dup2\n      mstore\n      0x20\n      add\n      0x00\n      keccak256\n      0x00\n        /* \"smart_contracts/contracts/BaseERC20.sol\":3514:3553  database.balance[_recipient] += _amount */\n      dup3\n      dup3\n      sload\n      tag_119\n      swap2\n      swap1\n      tag_120\n      jump\t// in\n    tag_119:\n      swap3\n      pop\n      pop\n      dup2\n      swap1\n      sstore\n      pop\n        /* \"smart_contracts/contracts/BaseERC20.sol\":3604:3611  _amount */\n      dup2\n        /* \"smart_contracts/contracts/BaseERC20.sol\":3563:3571  database */\n      0x0b\n        /* \"smart_contracts/contracts/BaseERC20.sol\":3563:3579  database.allowed */\n      0x04\n      add\n        /* \"smart_contracts/contracts/BaseERC20.sol\":3563:3588  database.allowed[_sender] */\n      0x00\n        /* \"smart_contracts/contracts/BaseERC20.sol\":3580:3587  _sender */\n      dup7\n        /* \"smart_contracts/contracts/BaseERC20.sol\":3563:3588  database.allowed[_sender] */\n      0xffffffffffffffffffffffffffffffffffffffff\n      and\n      0xffffffffffffffffffffffffffffffffffffffff\n      and\n      dup2\n      mstore\n      0x20\n      add\n      swap1\n      dup2\n      mstore\n      0x20\n      add\n      0x00\n      keccak256\n        /* \"smart_contracts/contracts/BaseERC20.sol\":3563:3600  database.allowed[_sender][msg.sender] */\n      0x00\n        /* \"smart_contracts/contracts/BaseERC20.sol\":3589:3599  msg.sender */\n      caller\n        /* \"smart_contracts/contracts/BaseERC20.sol\":3563:3600  database.allowed[_sender][msg.sender] */\n      0xffffffffffffffffffffffffffffffffffffffff\n      and\n      0xffffffffffffffffffffffffffffffffffffffff\n      and\n      dup2\n      mstore\n      0x20\n      add\n      swap1\n      dup2\n      mstore\n      0x20\n      add\n      0x00\n      keccak256\n      0x00\n        /* \"smart_contracts/contracts/BaseERC20.sol\":3563:3611  database.allowed[_sender][msg.sender] -= _amount */\n      dup3\n      dup3\n      sload\n      tag_121\n      swap2\n      swap1\n      tag_118\n      jump\t// in\n    tag_121:\n      swap3\n      pop\n      pop\n      dup2\n      swap1\n      sstore\n      pop\n        /* \"smart_contracts/contracts/BaseERC20.sol\":3644:3654  _recipient */\n      dup3\n        /* \"smart_contracts/contracts/BaseERC20.sol\":3626:3664  Transfer(_sender, _recipient, _amount) */\n      0xffffffffffffffffffffffffffffffffffffffff\n      and\n        /* \"smart_contracts/contracts/BaseERC20.sol\":3635:3642  _sender */\n      dup5\n        /* \"smart_contracts/contracts/BaseERC20.sol\":3626:3664  Transfer(_sender, _recipient, _amount) */\n      0xffffffffffffffffffffffffffffffffffffffff\n      and\n      0xddf252ad1be2c89b69c2b068fc378daa952ba7f163c4a11628f55a4df523b3ef\n        /* \"smart_contracts/contracts/BaseERC20.sol\":3656:3663  _amount */\n      dup5\n        /* \"smart_contracts/contracts/BaseERC20.sol\":3626:3664  Transfer(_sender, _recipient, _amount) */\n      mload(0x40)\n      tag_122\n      swap2\n      swap1\n      tag_36\n      jump\t// in\n    tag_122:\n      mload(0x40)\n      dup1\n      swap2\n      sub\n      swap1\n      log3\n        /* \"smart_contracts/contracts/BaseERC20.sol\":3681:3685  true */\n      0x01\n        /* \"smart_contracts/contracts/BaseERC20.sol\":3674:3685  return true */\n      swap1\n      pop\n        /* \"smart_contracts/contracts/Authenticator.sol\":534:539  false */\n      0x00\n        /* \"smart_contracts/contracts/Authenticator.sol\":525:531  locked */\n      0x03\n      0x00\n        /* \"smart_contracts/contracts/Authenticator.sol\":525:539  locked = false */\n      0x0100\n      exp\n      dup2\n      sload\n      dup2\n      0xff\n      mul\n      not\n      and\n      swap1\n      dup4\n      iszero\n      iszero\n      mul\n      or\n      swap1\n      sstore\n      pop\n        /* \"smart_contracts/contracts/BaseERC20.sol\":3090:3692  function transferFrom(... */\n      swap4\n      swap3\n      pop\n      pop\n      pop\n      jump\t// out\n        /* \"smart_contracts/contracts/BaseERC20.sol\":7295:7388  function decimals() public view returns (uint256) {... */\n    tag_46:\n        /* \"smart_contracts/contracts/BaseERC20.sol\":7336:7343  uint256 */\n      0x00\n        /* \"smart_contracts/contracts/BaseERC20.sol\":7362:7372  properties */\n      0x04\n        /* \"smart_contracts/contracts/BaseERC20.sol\":7362:7381  properties.decimals */\n      0x02\n      add\n      sload\n        /* \"smart_contracts/contracts/BaseERC20.sol\":7355:7381  return properties.decimals */\n      swap1\n      pop\n        /* \"smart_contracts/contracts/BaseERC20.sol\":7295:7388  function decimals() public view returns (uint256) {... */\n      swap1\n      jump\t// out\n        /* \"smart_contracts/contracts/BaseERC20.sol\":1015:1298  function increaseAllowance(address spender, uint256 addedValue)... */\n    tag_50:\n        /* \"smart_contracts/contracts/BaseERC20.sol\":1150:1154  bool */\n      0x00\n        /* \"smart_contracts/contracts/Authenticator.sol\":450:456  locked */\n      0x03\n      0x00\n      swap1\n      sload\n      swap1\n      0x0100\n      exp\n      swap1\n      div\n      0xff\n      and\n        /* \"smart_contracts/contracts/Authenticator.sol\":449:456  !locked */\n      iszero\n        /* \"smart_contracts/contracts/Authenticator.sol\":441:481  require(!locked, \"Anti-Reentrancy Lock\") */\n      tag_125\n      jumpi\n      mload(0x40)\n      0x08c379a000000000000000000000000000000000000000000000000000000000\n      dup2\n      mstore\n      0x04\n      add\n      tag_126\n      swap1\n      tag_101\n      jump\t// in\n    tag_126:\n      mload(0x40)\n      dup1\n      swap2\n      sub\n      swap1\n      revert\n    tag_125:\n        /* \"smart_contracts/contracts/Authenticator.sol\":500:504  true */\n      0x01\n        /* \"smart_contracts/contracts/Authenticator.sol\":491:497  locked */\n      0x03\n      0x00\n        /* \"smart_contracts/contracts/Authenticator.sol\":491:504  locked = true */\n      0x0100\n      exp\n      dup2\n      sload\n      dup2\n      0xff\n      mul\n      not\n      and\n      swap1\n      dup4\n      iszero\n      iszero\n      mul\n      or\n      swap1\n      sstore\n      pop\n        /* \"smart_contracts/contracts/BaseERC20.sol\":1170:1183  address owner */\n      0x00\n        /* \"smart_contracts/contracts/BaseERC20.sol\":1186:1196  msg.sender */\n      caller\n        /* \"smart_contracts/contracts/BaseERC20.sol\":1170:1196  address owner = msg.sender */\n      swap1\n      pop\n        /* \"smart_contracts/contracts/BaseERC20.sol\":1206:1270  _approve(owner, spender, allowance(owner, spender) + addedValue) */\n      tag_128\n        /* \"smart_contracts/contracts/BaseERC20.sol\":1215:1220  owner */\n      dup2\n        /* \"smart_contracts/contracts/BaseERC20.sol\":1222:1229  spender */\n      dup6\n        /* \"smart_contracts/contracts/BaseERC20.sol\":1259:1269  addedValue */\n      dup6\n        /* \"smart_contracts/contracts/BaseERC20.sol\":1231:1256  allowance(owner, spender) */\n      tag_129\n        /* \"smart_contracts/contracts/BaseERC20.sol\":1241:1246  owner */\n      dup6\n        /* \"smart_contracts/contracts/BaseERC20.sol\":1248:1255  spender */\n      dup10\n        /* \"smart_contracts/contracts/BaseERC20.sol\":1231:1240  allowance */\n      tag_85\n        /* \"smart_contracts/contracts/BaseERC20.sol\":1231:1256  allowance(owner, spender) */\n      jump\t// in\n    tag_129:\n        /* \"smart_contracts/contracts/BaseERC20.sol\":1231:1269  allowance(owner, spender) + addedValue */\n      tag_130\n      swap2\n      swap1\n      tag_120\n      jump\t// in\n    tag_130:\n        /* \"smart_contracts/contracts/BaseERC20.sol\":1206:1214  _approve */\n      tag_104\n        /* \"smart_contracts/contracts/BaseERC20.sol\":1206:1270  _approve(owner, spender, allowance(owner, spender) + addedValue) */\n      jump\t// in\n    tag_128:\n        /* \"smart_contracts/contracts/BaseERC20.sol\":1287:1291  true */\n      0x01\n        /* \"smart_contracts/contracts/BaseERC20.sol\":1280:1291  return true */\n      swap2\n      pop\n      pop\n        /* \"smart_contracts/contracts/Authenticator.sol\":534:539  false */\n      0x00\n        /* \"smart_contracts/contracts/Authenticator.sol\":525:531  locked */\n      0x03\n      0x00\n        /* \"smart_contracts/contracts/Authenticator.sol\":525:539  locked = false */\n      0x0100\n      exp\n      dup2\n      sload\n      dup2\n      0xff\n      mul\n      not\n      and\n      swap1\n      dup4\n      iszero\n      iszero\n      mul\n      or\n      swap1\n      sstore\n      pop\n        /* \"smart_contracts/contracts/BaseERC20.sol\":1015:1298  function increaseAllowance(address spender, uint256 addedValue)... */\n      swap3\n      swap2\n      pop\n      pop\n      jump\t// out\n        /* \"smart_contracts/contracts/BaseERC20.sol\":7709:7824  function balanceOf(address account) public view returns (uint256) {... */\n    tag_55:\n        /* \"smart_contracts/contracts/BaseERC20.sol\":7766:7773  uint256 */\n      0x00\n        /* \"smart_contracts/contracts/BaseERC20.sol\":7792:7800  database */\n      0x0b\n        /* \"smart_contracts/contracts/BaseERC20.sol\":7792:7808  database.balance */\n      0x00\n      add\n        /* \"smart_contracts/contracts/BaseERC20.sol\":7792:7817  database.balance[account] */\n      0x00\n        /* \"smart_contracts/contracts/BaseERC20.sol\":7809:7816  account */\n      dup4\n        /* \"smart_contracts/contracts/BaseERC20.sol\":7792:7817  database.balance[account] */\n      0xffffffffffffffffffffffffffffffffffffffff\n      and\n      0xffffffffffffffffffffffffffffffffffffffff\n      and\n      dup2\n      mstore\n      0x20\n      add\n      swap1\n      dup2\n      mstore\n      0x20\n      add\n      0x00\n      keccak256\n      sload\n        /* \"smart_contracts/contracts/BaseERC20.sol\":7785:7817  return database.balance[account] */\n      swap1\n      pop\n        /* \"smart_contracts/contracts/BaseERC20.sol\":7709:7824  function balanceOf(address account) public view returns (uint256) {... */\n      swap2\n      swap1\n      pop\n      jump\t// out\n        /* \"smart_contracts/contracts/BaseERC20.sol\":7830:7944  function vestedFor(address account) public view returns (uint256) {... */\n    tag_59:\n        /* \"smart_contracts/contracts/BaseERC20.sol\":7887:7894  uint256 */\n      0x00\n        /* \"smart_contracts/contracts/BaseERC20.sol\":7913:7921  database */\n      0x0b\n        /* \"smart_contracts/contracts/BaseERC20.sol\":7913:7928  database.vested */\n      0x01\n      add\n        /* \"smart_contracts/contracts/BaseERC20.sol\":7913:7937  database.vested[account] */\n      0x00\n        /* \"smart_contracts/contracts/BaseERC20.sol\":7929:7936  account */\n      dup4\n        /* \"smart_contracts/contracts/BaseERC20.sol\":7913:7937  database.vested[account] */\n      0xffffffffffffffffffffffffffffffffffffffff\n      and\n      0xffffffffffffffffffffffffffffffffffffffff\n      and\n      dup2\n      mstore\n      0x20\n      add\n      swap1\n      dup2\n      mstore\n      0x20\n      add\n      0x00\n      keccak256\n      sload\n        /* \"smart_contracts/contracts/BaseERC20.sol\":7906:7937  return database.vested[account] */\n      swap1\n      pop\n        /* \"smart_contracts/contracts/BaseERC20.sol\":7830:7944  function vestedFor(address account) public view returns (uint256) {... */\n      swap2\n      swap1\n      pop\n      jump\t// out\n        /* \"smart_contracts/contracts/BaseERC20.sol\":8070:8185  function voteWeightOf(address account) public view returns (uint256) {... */\n    tag_63:\n        /* \"smart_contracts/contracts/BaseERC20.sol\":8130:8137  uint256 */\n      0x00\n        /* \"smart_contracts/contracts/BaseERC20.sol\":8156:8164  database */\n      0x0b\n        /* \"smart_contracts/contracts/BaseERC20.sol\":8156:8169  database.vote */\n      0x03\n      add\n        /* \"smart_contracts/contracts/BaseERC20.sol\":8156:8178  database.vote[account] */\n      0x00\n        /* \"smart_contracts/contracts/BaseERC20.sol\":8170:8177  account */\n      dup4\n        /* \"smart_contracts/contracts/BaseERC20.sol\":8156:8178  database.vote[account] */\n      0xffffffffffffffffffffffffffffffffffffffff\n      and\n      0xffffffffffffffffffffffffffffffffffffffff\n      and\n      dup2\n      mstore\n      0x20\n      add\n      swap1\n      dup2\n      mstore\n      0x20\n      add\n      0x00\n      keccak256\n      sload\n        /* \"smart_contracts/contracts/BaseERC20.sol\":8149:8178  return database.vote[account] */\n      swap1\n      pop\n        /* \"smart_contracts/contracts/BaseERC20.sol\":8070:8185  function voteWeightOf(address account) public view returns (uint256) {... */\n      swap2\n      swap1\n      pop\n      jump\t// out\n        /* \"smart_contracts/contracts/BaseERC20.sol\":7604:7703  function totalStaked() public view returns (uint256) {... */\n    tag_66:\n        /* \"smart_contracts/contracts/BaseERC20.sol\":7648:7655  uint256 */\n      0x00\n        /* \"smart_contracts/contracts/BaseERC20.sol\":7674:7684  properties */\n      0x04\n        /* \"smart_contracts/contracts/BaseERC20.sol\":7674:7696  properties.totalStaked */\n      0x06\n      add\n      sload\n        /* \"smart_contracts/contracts/BaseERC20.sol\":7667:7696  return properties.totalStaked */\n      swap1\n      pop\n        /* \"smart_contracts/contracts/BaseERC20.sol\":7604:7703  function totalStaked() public view returns (uint256) {... */\n      swap1\n      jump\t// out\n        /* \"smart_contracts/contracts/BaseERC20.sol\":5702:7091  function release() public virtual reentrancyLock returns (bool) {... */\n    tag_69:\n        /* \"smart_contracts/contracts/BaseERC20.sol\":5760:5764  bool */\n      0x00\n        /* \"smart_contracts/contracts/Authenticator.sol\":450:456  locked */\n      0x03\n      0x00\n      swap1\n      sload\n      swap1\n      0x0100\n      exp\n      swap1\n      div\n      0xff\n      and\n        /* \"smart_contracts/contracts/Authenticator.sol\":449:456  !locked */\n      iszero\n        /* \"smart_contracts/contracts/Authenticator.sol\":441:481  require(!locked, \"Anti-Reentrancy Lock\") */\n      tag_136\n      jumpi\n      mload(0x40)\n      0x08c379a000000000000000000000000000000000000000000000000000000000\n      dup2\n      mstore\n      0x04\n      add\n      tag_137\n      swap1\n      tag_101\n      jump\t// in\n    tag_137:\n      mload(0x40)\n      dup1\n      swap2\n      sub\n      swap1\n      revert\n    tag_136:\n        /* \"smart_contracts/contracts/Authenticator.sol\":500:504  true */\n      0x01\n        /* \"smart_contracts/contracts/Authenticator.sol\":491:497  locked */\n      0x03\n      0x00\n        /* \"smart_contracts/contracts/Authenticator.sol\":491:504  locked = true */\n      0x0100\n      exp\n      dup2\n      sload\n      dup2\n      0xff\n      mul\n      not\n      and\n      swap1\n      dup4\n      iszero\n      iszero\n      mul\n      or\n      swap1\n      sstore\n      pop\n        /* \"smart_contracts/contracts/BaseERC20.sol\":5776:5819  Vesting.VestingSchedule[] storage schedules */\n      0x00\n        /* \"smart_contracts/contracts/BaseERC20.sol\":5822:5830  schedule */\n      0x11\n        /* \"smart_contracts/contracts/BaseERC20.sol\":5822:5842  schedule[msg.sender] */\n      0x00\n        /* \"smart_contracts/contracts/BaseERC20.sol\":5831:5841  msg.sender */\n      caller\n        /* \"smart_contracts/contracts/BaseERC20.sol\":5822:5842  schedule[msg.sender] */\n      0xffffffffffffffffffffffffffffffffffffffff\n      and\n      0xffffffffffffffffffffffffffffffffffffffff\n      and\n      dup2\n      mstore\n      0x20\n      add\n      swap1\n      dup2\n      mstore\n      0x20\n      add\n      0x00\n      keccak256\n        /* \"smart_contracts/contracts/BaseERC20.sol\":5776:5842  Vesting.VestingSchedule[] storage schedules = schedule[msg.sender] */\n      swap1\n      pop\n        /* \"smart_contracts/contracts/BaseERC20.sol\":5852:5873  uint256 totalReleased */\n      0x00\n        /* \"smart_contracts/contracts/BaseERC20.sol\":5892:5901  uint256 i */\n      dup1\n        /* \"smart_contracts/contracts/BaseERC20.sol\":5887:7064  for (uint256 i = 0; i < schedules.length; i++) {... */\n    tag_139:\n        /* \"smart_contracts/contracts/BaseERC20.sol\":5911:5920  schedules */\n      dup3\n        /* \"smart_contracts/contracts/BaseERC20.sol\":5911:5927  schedules.length */\n      dup1\n      sload\n      swap1\n      pop\n        /* \"smart_contracts/contracts/BaseERC20.sol\":5907:5908  i */\n      dup2\n        /* \"smart_contracts/contracts/BaseERC20.sol\":5907:5927  i < schedules.length */\n      lt\n        /* \"smart_contracts/contracts/BaseERC20.sol\":5887:7064  for (uint256 i = 0; i < schedules.length; i++) {... */\n      iszero\n      tag_140\n      jumpi\n        /* \"smart_contracts/contracts/BaseERC20.sol\":5948:5995  Vesting.VestingSchedule storage currentSchedule */\n      0x00\n        /* \"smart_contracts/contracts/BaseERC20.sol\":5998:6007  schedules */\n      dup4\n        /* \"smart_contracts/contracts/BaseERC20.sol\":6008:6009  i */\n      dup3\n        /* \"smart_contracts/contracts/BaseERC20.sol\":5998:6010  schedules[i] */\n      dup2\n      sload\n      dup2\n      lt\n      tag_142\n      jumpi\n      tag_143\n      tag_144\n      jump\t// in\n    tag_143:\n    tag_142:\n      swap1\n      0x00\n      mstore\n      keccak256(0x00, 0x20)\n      swap1\n      0x04\n      mul\n      add\n        /* \"smart_contracts/contracts/BaseERC20.sol\":5948:6010  Vesting.VestingSchedule storage currentSchedule = schedules[i] */\n      swap1\n      pop\n        /* \"smart_contracts/contracts/BaseERC20.sol\":6047:6062  currentSchedule */\n      dup1\n        /* \"smart_contracts/contracts/BaseERC20.sol\":6047:6066  currentSchedule.end */\n      0x02\n      add\n      sload\n        /* \"smart_contracts/contracts/BaseERC20.sol\":6028:6043  block.timestamp */\n      timestamp\n        /* \"smart_contracts/contracts/BaseERC20.sol\":6028:6066  block.timestamp >= currentSchedule.end */\n      lt\n        /* \"smart_contracts/contracts/BaseERC20.sol\":6024:6818  if (block.timestamp >= currentSchedule.end) {... */\n      tag_146\n      jumpi\n        /* \"smart_contracts/contracts/BaseERC20.sol\":6086:6109  uint256 amountToRelease */\n      0x00\n        /* \"smart_contracts/contracts/BaseERC20.sol\":6157:6172  currentSchedule */\n      dup2\n        /* \"smart_contracts/contracts/BaseERC20.sol\":6157:6181  currentSchedule.released */\n      0x03\n      add\n      sload\n        /* \"smart_contracts/contracts/BaseERC20.sol\":6112:6127  currentSchedule */\n      dup3\n        /* \"smart_contracts/contracts/BaseERC20.sol\":6112:6134  currentSchedule.amount */\n      0x00\n      add\n      sload\n        /* \"smart_contracts/contracts/BaseERC20.sol\":6112:6181  currentSchedule.amount -... */\n      tag_147\n      swap2\n      swap1\n      tag_118\n      jump\t// in\n    tag_147:\n        /* \"smart_contracts/contracts/BaseERC20.sol\":6086:6181  uint256 amountToRelease = currentSchedule.amount -... */\n      swap1\n      pop\n        /* \"smart_contracts/contracts/BaseERC20.sol\":6226:6241  currentSchedule */\n      dup2\n        /* \"smart_contracts/contracts/BaseERC20.sol\":6226:6248  currentSchedule.amount */\n      0x00\n      add\n      sload\n        /* \"smart_contracts/contracts/BaseERC20.sol\":6199:6214  currentSchedule */\n      dup3\n        /* \"smart_contracts/contracts/BaseERC20.sol\":6199:6223  currentSchedule.released */\n      0x03\n      add\n        /* \"smart_contracts/contracts/BaseERC20.sol\":6199:6248  currentSchedule.released = currentSchedule.amount */\n      dup2\n      swap1\n      sstore\n      pop\n        /* \"smart_contracts/contracts/BaseERC20.sol\":6283:6298  amountToRelease */\n      dup1\n        /* \"smart_contracts/contracts/BaseERC20.sol\":6266:6298  totalReleased += amountToRelease */\n      dup5\n      tag_148\n      swap2\n      swap1\n      tag_120\n      jump\t// in\n    tag_148:\n      swap4\n      pop\n        /* \"smart_contracts/contracts/BaseERC20.sol\":6068:6313  {... */\n      pop\n        /* \"smart_contracts/contracts/BaseERC20.sol\":6024:6818  if (block.timestamp >= currentSchedule.end) {... */\n      jump(tag_149)\n    tag_146:\n        /* \"smart_contracts/contracts/BaseERC20.sol\":6337:6356  uint256 timeElapsed */\n      0x00\n        /* \"smart_contracts/contracts/BaseERC20.sol\":6377:6392  currentSchedule */\n      dup2\n        /* \"smart_contracts/contracts/BaseERC20.sol\":6377:6398  currentSchedule.start */\n      0x01\n      add\n      sload\n        /* \"smart_contracts/contracts/BaseERC20.sol\":6359:6374  block.timestamp */\n      timestamp\n        /* \"smart_contracts/contracts/BaseERC20.sol\":6359:6398  block.timestamp - currentSchedule.start */\n      tag_150\n      swap2\n      swap1\n      tag_118\n      jump\t// in\n    tag_150:\n        /* \"smart_contracts/contracts/BaseERC20.sol\":6337:6398  uint256 timeElapsed = block.timestamp - currentSchedule.start */\n      swap1\n      pop\n        /* \"smart_contracts/contracts/BaseERC20.sol\":6416:6439  uint256 vestingDuration */\n      0x00\n        /* \"smart_contracts/contracts/BaseERC20.sol\":6484:6499  currentSchedule */\n      dup3\n        /* \"smart_contracts/contracts/BaseERC20.sol\":6484:6505  currentSchedule.start */\n      0x01\n      add\n      sload\n        /* \"smart_contracts/contracts/BaseERC20.sol\":6442:6457  currentSchedule */\n      dup4\n        /* \"smart_contracts/contracts/BaseERC20.sol\":6442:6461  currentSchedule.end */\n      0x02\n      add\n      sload\n        /* \"smart_contracts/contracts/BaseERC20.sol\":6442:6505  currentSchedule.end -... */\n      tag_151\n      swap2\n      swap1\n      tag_118\n      jump\t// in\n    tag_151:\n        /* \"smart_contracts/contracts/BaseERC20.sol\":6416:6505  uint256 vestingDuration = currentSchedule.end -... */\n      swap1\n      pop\n        /* \"smart_contracts/contracts/BaseERC20.sol\":6523:6546  uint256 amountToRelease */\n      0x00\n        /* \"smart_contracts/contracts/BaseERC20.sol\":6668:6683  currentSchedule */\n      dup4\n        /* \"smart_contracts/contracts/BaseERC20.sol\":6668:6692  currentSchedule.released */\n      0x03\n      add\n      sload\n        /* \"smart_contracts/contracts/BaseERC20.sol\":6630:6645  vestingDuration */\n      dup3\n        /* \"smart_contracts/contracts/BaseERC20.sol\":6595:6606  timeElapsed */\n      dup5\n        /* \"smart_contracts/contracts/BaseERC20.sol\":6550:6565  currentSchedule */\n      dup7\n        /* \"smart_contracts/contracts/BaseERC20.sol\":6550:6572  currentSchedule.amount */\n      0x00\n      add\n      sload\n        /* \"smart_contracts/contracts/BaseERC20.sol\":6550:6606  currentSchedule.amount *... */\n      tag_152\n      swap2\n      swap1\n      tag_153\n      jump\t// in\n    tag_152:\n        /* \"smart_contracts/contracts/BaseERC20.sol\":6549:6645  (currentSchedule.amount *... */\n      tag_154\n      swap2\n      swap1\n      tag_155\n      jump\t// in\n    tag_154:\n        /* \"smart_contracts/contracts/BaseERC20.sol\":6549:6692  (currentSchedule.amount *... */\n      tag_156\n      swap2\n      swap1\n      tag_118\n      jump\t// in\n    tag_156:\n        /* \"smart_contracts/contracts/BaseERC20.sol\":6523:6692  uint256 amountToRelease = (currentSchedule.amount *... */\n      swap1\n      pop\n        /* \"smart_contracts/contracts/BaseERC20.sol\":6738:6753  amountToRelease */\n      dup1\n        /* \"smart_contracts/contracts/BaseERC20.sol\":6710:6725  currentSchedule */\n      dup5\n        /* \"smart_contracts/contracts/BaseERC20.sol\":6710:6734  currentSchedule.released */\n      0x03\n      add\n      0x00\n        /* \"smart_contracts/contracts/BaseERC20.sol\":6710:6753  currentSchedule.released += amountToRelease */\n      dup3\n      dup3\n      sload\n      tag_157\n      swap2\n      swap1\n      tag_120\n      jump\t// in\n    tag_157:\n      swap3\n      pop\n      pop\n      dup2\n      swap1\n      sstore\n      pop\n        /* \"smart_contracts/contracts/BaseERC20.sol\":6788:6803  amountToRelease */\n      dup1\n        /* \"smart_contracts/contracts/BaseERC20.sol\":6771:6803  totalReleased += amountToRelease */\n      dup7\n      tag_158\n      swap2\n      swap1\n      tag_120\n      jump\t// in\n    tag_158:\n      swap6\n      pop\n        /* \"smart_contracts/contracts/BaseERC20.sol\":6319:6818  {... */\n      pop\n      pop\n      pop\n        /* \"smart_contracts/contracts/BaseERC20.sol\":6024:6818  if (block.timestamp >= currentSchedule.end) {... */\n    tag_149:\n        /* \"smart_contracts/contracts/BaseERC20.sol\":6855:6856  0 */\n      0x00\n        /* \"smart_contracts/contracts/BaseERC20.sol\":6839:6852  totalReleased */\n      dup4\n        /* \"smart_contracts/contracts/BaseERC20.sol\":6839:6856  totalReleased > 0 */\n      gt\n        /* \"smart_contracts/contracts/BaseERC20.sol\":6831:6881  require(totalReleased > 0, \"No tokens to release\") */\n      tag_159\n      jumpi\n      mload(0x40)\n      0x08c379a000000000000000000000000000000000000000000000000000000000\n      dup2\n      mstore\n      0x04\n      add\n      tag_160\n      swap1\n      tag_161\n      jump\t// in\n    tag_160:\n      mload(0x40)\n      dup1\n      swap2\n      sub\n      swap1\n      revert\n    tag_159:\n        /* \"smart_contracts/contracts/BaseERC20.sol\":6921:6934  totalReleased */\n      dup3\n        /* \"smart_contracts/contracts/BaseERC20.sol\":6895:6905  properties */\n      0x04\n        /* \"smart_contracts/contracts/BaseERC20.sol\":6895:6917  properties.totalVested */\n      0x05\n      add\n      0x00\n        /* \"smart_contracts/contracts/BaseERC20.sol\":6895:6934  properties.totalVested -= totalReleased */\n      dup3\n      dup3\n      sload\n      tag_162\n      swap2\n      swap1\n      tag_118\n      jump\t// in\n    tag_162:\n      swap3\n      pop\n      pop\n      dup2\n      swap1\n      sstore\n      pop\n        /* \"smart_contracts/contracts/BaseERC20.sol\":6980:6993  totalReleased */\n      dup3\n        /* \"smart_contracts/contracts/BaseERC20.sol\":6948:6956  database */\n      0x0b\n        /* \"smart_contracts/contracts/BaseERC20.sol\":6948:6964  database.balance */\n      0x00\n      add\n        /* \"smart_contracts/contracts/BaseERC20.sol\":6948:6976  database.balance[msg.sender] */\n      0x00\n        /* \"smart_contracts/contracts/BaseERC20.sol\":6965:6975  msg.sender */\n      caller\n        /* \"smart_contracts/contracts/BaseERC20.sol\":6948:6976  database.balance[msg.sender] */\n      0xffffffffffffffffffffffffffffffffffffffff\n      and\n      0xffffffffffffffffffffffffffffffffffffffff\n      and\n      dup2\n      mstore\n      0x20\n      add\n      swap1\n      dup2\n      mstore\n      0x20\n      add\n      0x00\n      keccak256\n      0x00\n        /* \"smart_contracts/contracts/BaseERC20.sol\":6948:6993  database.balance[msg.sender] += totalReleased */\n      dup3\n      dup3\n      sload\n      tag_163\n      swap2\n      swap1\n      tag_120\n      jump\t// in\n    tag_163:\n      swap3\n      pop\n      pop\n      dup2\n      swap1\n      sstore\n      pop\n        /* \"smart_contracts/contracts/BaseERC20.sol\":7027:7037  msg.sender */\n      caller\n        /* \"smart_contracts/contracts/BaseERC20.sol\":7012:7053  TokensReleased(msg.sender, totalReleased) */\n      0xffffffffffffffffffffffffffffffffffffffff\n      and\n      0xc7798891864187665ac6dd119286e44ec13f014527aeeb2b8eb3fd413df93179\n        /* \"smart_contracts/contracts/BaseERC20.sol\":7039:7052  totalReleased */\n      dup5\n        /* \"smart_contracts/contracts/BaseERC20.sol\":7012:7053  TokensReleased(msg.sender, totalReleased) */\n      mload(0x40)\n      tag_164\n      swap2\n      swap1\n      tag_36\n      jump\t// in\n    tag_164:\n      mload(0x40)\n      dup1\n      swap2\n      sub\n      swap1\n      log2\n        /* \"smart_contracts/contracts/BaseERC20.sol\":5934:7064  {... */\n      pop\n        /* \"smart_contracts/contracts/BaseERC20.sol\":5929:5932  i++ */\n      dup1\n      dup1\n      tag_165\n      swap1\n      tag_166\n      jump\t// in\n    tag_165:\n      swap2\n      pop\n      pop\n        /* \"smart_contracts/contracts/BaseERC20.sol\":5887:7064  for (uint256 i = 0; i < schedules.length; i++) {... */\n      jump(tag_139)\n    tag_140:\n      pop\n        /* \"smart_contracts/contracts/BaseERC20.sol\":7080:7084  true */\n      0x01\n        /* \"smart_contracts/contracts/BaseERC20.sol\":7073:7084  return true */\n      swap3\n      pop\n      pop\n      pop\n        /* \"smart_contracts/contracts/Authenticator.sol\":534:539  false */\n      0x00\n        /* \"smart_contracts/contracts/Authenticator.sol\":525:531  locked */\n      0x03\n      0x00\n        /* \"smart_contracts/contracts/Authenticator.sol\":525:539  locked = false */\n      0x0100\n      exp\n      dup2\n      sload\n      dup2\n      0xff\n      mul\n      not\n      and\n      swap1\n      dup4\n      iszero\n      iszero\n      mul\n      or\n      swap1\n      sstore\n      pop\n        /* \"smart_contracts/contracts/BaseERC20.sol\":5702:7091  function release() public virtual reentrancyLock returns (bool) {... */\n      swap1\n      jump\t// out\n        /* \"smart_contracts/contracts/BaseERC20.sol\":7194:7289  function symbol() public view returns (string memory) {... */\n    tag_72:\n        /* \"smart_contracts/contracts/BaseERC20.sol\":7233:7246  string memory */\n      0x60\n        /* \"smart_contracts/contracts/BaseERC20.sol\":7265:7275  properties */\n      0x04\n        /* \"smart_contracts/contracts/BaseERC20.sol\":7265:7282  properties.symbol */\n      0x01\n      add\n        /* \"smart_contracts/contracts/BaseERC20.sol\":7258:7282  return properties.symbol */\n      dup1\n      sload\n      tag_168\n      swap1\n      tag_93\n      jump\t// in\n    tag_168:\n      dup1\n      0x1f\n      add\n      0x20\n      dup1\n      swap2\n      div\n      mul\n      0x20\n      add\n      mload(0x40)\n      swap1\n      dup2\n      add\n      0x40\n      mstore\n      dup1\n      swap3\n      swap2\n      swap1\n      dup2\n      dup2\n      mstore\n      0x20\n      add\n      dup3\n      dup1\n      sload\n      tag_169\n      swap1\n      tag_93\n      jump\t// in\n    tag_169:\n      dup1\n      iszero\n      tag_170\n      jumpi\n      dup1\n      0x1f\n      lt\n      tag_171\n      jumpi\n      0x0100\n      dup1\n      dup4\n      sload\n      div\n      mul\n      dup4\n      mstore\n      swap2\n      0x20\n      add\n      swap2\n      jump(tag_170)\n    tag_171:\n      dup3\n      add\n      swap2\n      swap1\n      0x00\n      mstore\n      keccak256(0x00, 0x20)\n      swap1\n    tag_172:\n      dup2\n      sload\n      dup2\n      mstore\n      swap1\n      0x01\n      add\n      swap1\n      0x20\n      add\n      dup1\n      dup4\n      gt\n      tag_172\n      jumpi\n      dup3\n      swap1\n      sub\n      0x1f\n      and\n      dup3\n      add\n      swap2\n    tag_170:\n      pop\n      pop\n      pop\n      pop\n      pop\n      swap1\n      pop\n        /* \"smart_contracts/contracts/BaseERC20.sol\":7194:7289  function symbol() public view returns (string memory) {... */\n      swap1\n      jump\t// out\n        /* \"smart_contracts/contracts/BaseERC20.sol\":1304:1806  function decreaseAllowance(address spender, uint256 subtractedValue)... */\n    tag_76:\n        /* \"smart_contracts/contracts/BaseERC20.sol\":1444:1448  bool */\n      0x00\n        /* \"smart_contracts/contracts/Authenticator.sol\":450:456  locked */\n      0x03\n      0x00\n      swap1\n      sload\n      swap1\n      0x0100\n      exp\n      swap1\n      div\n      0xff\n      and\n        /* \"smart_contracts/contracts/Authenticator.sol\":449:456  !locked */\n      iszero\n        /* \"smart_contracts/contracts/Authenticator.sol\":441:481  require(!locked, \"Anti-Reentrancy Lock\") */\n      tag_174\n      jumpi\n      mload(0x40)\n      0x08c379a000000000000000000000000000000000000000000000000000000000\n      dup2\n      mstore\n      0x04\n      add\n      tag_175\n      swap1\n      tag_101\n      jump\t// in\n    tag_175:\n      mload(0x40)\n      dup1\n      swap2\n      sub\n      swap1\n      revert\n    tag_174:\n        /* \"smart_contracts/contracts/Authenticator.sol\":500:504  true */\n      0x01\n        /* \"smart_contracts/contracts/Authenticator.sol\":491:497  locked */\n      0x03\n      0x00\n        /* \"smart_contracts/contracts/Authenticator.sol\":491:504  locked = true */\n      0x0100\n      exp\n      dup2\n      sload\n      dup2\n      0xff\n      mul\n      not\n      and\n      swap1\n      dup4\n      iszero\n      iszero\n      mul\n      or\n      swap1\n      sstore\n      pop\n        /* \"smart_contracts/contracts/BaseERC20.sol\":1464:1477  address owner */\n      0x00\n        /* \"smart_contracts/contracts/BaseERC20.sol\":1480:1490  msg.sender */\n      caller\n        /* \"smart_contracts/contracts/BaseERC20.sol\":1464:1490  address owner = msg.sender */\n      swap1\n      pop\n        /* \"smart_contracts/contracts/BaseERC20.sol\":1500:1524  uint256 currentAllowance */\n      0x00\n        /* \"smart_contracts/contracts/BaseERC20.sol\":1527:1552  allowance(owner, spender) */\n      tag_177\n        /* \"smart_contracts/contracts/BaseERC20.sol\":1537:1542  owner */\n      dup3\n        /* \"smart_contracts/contracts/BaseERC20.sol\":1544:1551  spender */\n      dup7\n        /* \"smart_contracts/contracts/BaseERC20.sol\":1527:1536  allowance */\n      tag_85\n        /* \"smart_contracts/contracts/BaseERC20.sol\":1527:1552  allowance(owner, spender) */\n      jump\t// in\n    tag_177:\n        /* \"smart_contracts/contracts/BaseERC20.sol\":1500:1552  uint256 currentAllowance = allowance(owner, spender) */\n      swap1\n      pop\n        /* \"smart_contracts/contracts/BaseERC20.sol\":1603:1618  subtractedValue */\n      dup4\n        /* \"smart_contracts/contracts/BaseERC20.sol\":1583:1599  currentAllowance */\n      dup2\n        /* \"smart_contracts/contracts/BaseERC20.sol\":1583:1618  currentAllowance >= subtractedValue */\n      lt\n      iszero\n        /* \"smart_contracts/contracts/BaseERC20.sol\":1562:1674  require(... */\n      tag_178\n      jumpi\n      mload(0x40)\n      0x08c379a000000000000000000000000000000000000000000000000000000000\n      dup2\n      mstore\n      0x04\n      add\n      tag_179\n      swap1\n      tag_180\n      jump\t// in\n    tag_179:\n      mload(0x40)\n      dup1\n      swap2\n      sub\n      swap1\n      revert\n    tag_178:\n        /* \"smart_contracts/contracts/BaseERC20.sol\":1708:1768  _approve(owner, spender, currentAllowance - subtractedValue) */\n      tag_181\n        /* \"smart_contracts/contracts/BaseERC20.sol\":1717:1722  owner */\n      dup3\n        /* \"smart_contracts/contracts/BaseERC20.sol\":1724:1731  spender */\n      dup7\n        /* \"smart_contracts/contracts/BaseERC20.sol\":1752:1767  subtractedValue */\n      dup7\n        /* \"smart_contracts/contracts/BaseERC20.sol\":1733:1749  currentAllowance */\n      dup5\n        /* \"smart_contracts/contracts/BaseERC20.sol\":1733:1767  currentAllowance - subtractedValue */\n      sub\n        /* \"smart_contracts/contracts/BaseERC20.sol\":1708:1716  _approve */\n      tag_104\n        /* \"smart_contracts/contracts/BaseERC20.sol\":1708:1768  _approve(owner, spender, currentAllowance - subtractedValue) */\n      jump\t// in\n    tag_181:\n        /* \"smart_contracts/contracts/BaseERC20.sol\":1795:1799  true */\n      0x01\n        /* \"smart_contracts/contracts/BaseERC20.sol\":1788:1799  return true */\n      swap3\n      pop\n      pop\n      pop\n        /* \"smart_contracts/contracts/Authenticator.sol\":534:539  false */\n      0x00\n        /* \"smart_contracts/contracts/Authenticator.sol\":525:531  locked */\n      0x03\n      0x00\n        /* \"smart_contracts/contracts/Authenticator.sol\":525:539  locked = false */\n      0x0100\n      exp\n      dup2\n      sload\n      dup2\n      0xff\n      mul\n      not\n      and\n      swap1\n      dup4\n      iszero\n      iszero\n      mul\n      or\n      swap1\n      sstore\n      pop\n        /* \"smart_contracts/contracts/BaseERC20.sol\":1304:1806  function decreaseAllowance(address spender, uint256 subtractedValue)... */\n      swap3\n      swap2\n      pop\n      pop\n      jump\t// out\n        /* \"smart_contracts/contracts/BaseERC20.sol\":2650:3084  function transfer(address _recipient, uint256 _amount)... */\n    tag_80:\n        /* \"smart_contracts/contracts/BaseERC20.sol\":2776:2780  bool */\n      0x00\n        /* \"smart_contracts/contracts/Authenticator.sol\":450:456  locked */\n      0x03\n      0x00\n      swap1\n      sload\n      swap1\n      0x0100\n      exp\n      swap1\n      div\n      0xff\n      and\n        /* \"smart_contracts/contracts/Authenticator.sol\":449:456  !locked */\n      iszero\n        /* \"smart_contracts/contracts/Authenticator.sol\":441:481  require(!locked, \"Anti-Reentrancy Lock\") */\n      tag_183\n      jumpi\n      mload(0x40)\n      0x08c379a000000000000000000000000000000000000000000000000000000000\n      dup2\n      mstore\n      0x04\n      add\n      tag_184\n      swap1\n      tag_101\n      jump\t// in\n    tag_184:\n      mload(0x40)\n      dup1\n      swap2\n      sub\n      swap1\n      revert\n    tag_183:\n        /* \"smart_contracts/contracts/Authenticator.sol\":500:504  true */\n      0x01\n        /* \"smart_contracts/contracts/Authenticator.sol\":491:497  locked */\n      0x03\n      0x00\n        /* \"smart_contracts/contracts/Authenticator.sol\":491:504  locked = true */\n      0x0100\n      exp\n      dup2\n      sload\n      dup2\n      0xff\n      mul\n      not\n      and\n      swap1\n      dup4\n      iszero\n      iszero\n      mul\n      or\n      swap1\n      sstore\n      pop\n        /* \"smart_contracts/contracts/BaseERC20.sol\":2849:2856  _amount */\n      dup2\n        /* \"smart_contracts/contracts/BaseERC20.sol\":2817:2825  database */\n      0x0b\n        /* \"smart_contracts/contracts/BaseERC20.sol\":2817:2833  database.balance */\n      0x00\n      add\n        /* \"smart_contracts/contracts/BaseERC20.sol\":2817:2845  database.balance[msg.sender] */\n      0x00\n        /* \"smart_contracts/contracts/BaseERC20.sol\":2834:2844  msg.sender */\n      caller\n        /* \"smart_contracts/contracts/BaseERC20.sol\":2817:2845  database.balance[msg.sender] */\n      0xffffffffffffffffffffffffffffffffffffffff\n      and\n      0xffffffffffffffffffffffffffffffffffffffff\n      and\n      dup2\n      mstore\n      0x20\n      add\n      swap1\n      dup2\n      mstore\n      0x20\n      add\n      0x00\n      keccak256\n      sload\n        /* \"smart_contracts/contracts/BaseERC20.sol\":2817:2856  database.balance[msg.sender] >= _amount */\n      lt\n      iszero\n        /* \"smart_contracts/contracts/BaseERC20.sol\":2796:2902  require(... */\n      tag_186\n      jumpi\n      mload(0x40)\n      0x08c379a000000000000000000000000000000000000000000000000000000000\n      dup2\n      mstore\n      0x04\n      add\n      tag_187\n      swap1\n      tag_113\n      jump\t// in\n    tag_187:\n      mload(0x40)\n      dup1\n      swap2\n      sub\n      swap1\n      revert\n    tag_186:\n        /* \"smart_contracts/contracts/BaseERC20.sol\":2944:2951  _amount */\n      dup2\n        /* \"smart_contracts/contracts/BaseERC20.sol\":2912:2920  database */\n      0x0b\n        /* \"smart_contracts/contracts/BaseERC20.sol\":2912:2928  database.balance */\n      0x00\n      add\n        /* \"smart_contracts/contracts/BaseERC20.sol\":2912:2940  database.balance[msg.sender] */\n      0x00\n        /* \"smart_contracts/contracts/BaseERC20.sol\":2929:2939  msg.sender */\n      caller\n        /* \"smart_contracts/contracts/BaseERC20.sol\":2912:2940  database.balance[msg.sender] */\n      0xffffffffffffffffffffffffffffffffffffffff\n      and\n      0xffffffffffffffffffffffffffffffffffffffff\n      and\n      dup2\n      mstore\n      0x20\n      add\n      swap1\n      dup2\n      mstore\n      0x20\n      add\n      0x00\n      keccak256\n      0x00\n        /* \"smart_contracts/contracts/BaseERC20.sol\":2912:2951  database.balance[msg.sender] -= _amount */\n      dup3\n      dup3\n      sload\n      tag_188\n      swap2\n      swap1\n      tag_118\n      jump\t// in\n    tag_188:\n      swap3\n      pop\n      pop\n      dup2\n      swap1\n      sstore\n      pop\n        /* \"smart_contracts/contracts/BaseERC20.sol\":2993:3000  _amount */\n      dup2\n        /* \"smart_contracts/contracts/BaseERC20.sol\":2961:2969  database */\n      0x0b\n        /* \"smart_contracts/contracts/BaseERC20.sol\":2961:2977  database.balance */\n      0x00\n      add\n        /* \"smart_contracts/contracts/BaseERC20.sol\":2961:2989  database.balance[_recipient] */\n      0x00\n        /* \"smart_contracts/contracts/BaseERC20.sol\":2978:2988  _recipient */\n      dup6\n        /* \"smart_contracts/contracts/BaseERC20.sol\":2961:2989  database.balance[_recipient] */\n      0xffffffffffffffffffffffffffffffffffffffff\n      and\n      0xffffffffffffffffffffffffffffffffffffffff\n      and\n      dup2\n      mstore\n      0x20\n      add\n      swap1\n      dup2\n      mstore\n      0x20\n      add\n      0x00\n      keccak256\n      0x00\n        /* \"smart_contracts/contracts/BaseERC20.sol\":2961:3000  database.balance[_recipient] += _amount */\n      dup3\n      dup3\n      sload\n      tag_189\n      swap2\n      swap1\n      tag_120\n      jump\t// in\n    tag_189:\n      swap3\n      pop\n      pop\n      dup2\n      swap1\n      sstore\n      pop\n        /* \"smart_contracts/contracts/BaseERC20.sol\":3036:3046  _recipient */\n      dup3\n        /* \"smart_contracts/contracts/BaseERC20.sol\":3015:3056  Transfer(msg.sender, _recipient, _amount) */\n      0xffffffffffffffffffffffffffffffffffffffff\n      and\n        /* \"smart_contracts/contracts/BaseERC20.sol\":3024:3034  msg.sender */\n      caller\n        /* \"smart_contracts/contracts/BaseERC20.sol\":3015:3056  Transfer(msg.sender, _recipient, _amount) */\n      0xffffffffffffffffffffffffffffffffffffffff\n      and\n      0xddf252ad1be2c89b69c2b068fc378daa952ba7f163c4a11628f55a4df523b3ef\n        /* \"smart_contracts/contracts/BaseERC20.sol\":3048:3055  _amount */\n      dup5\n        /* \"smart_contracts/contracts/BaseERC20.sol\":3015:3056  Transfer(msg.sender, _recipient, _amount) */\n      mload(0x40)\n      tag_190\n      swap2\n      swap1\n      tag_36\n      jump\t// in\n    tag_190:\n      mload(0x40)\n      dup1\n      swap2\n      sub\n      swap1\n      log3\n        /* \"smart_contracts/contracts/BaseERC20.sol\":3073:3077  true */\n      0x01\n        /* \"smart_contracts/contracts/BaseERC20.sol\":3066:3077  return true */\n      swap1\n      pop\n        /* \"smart_contracts/contracts/Authenticator.sol\":534:539  false */\n      0x00\n        /* \"smart_contracts/contracts/Authenticator.sol\":525:531  locked */\n      0x03\n      0x00\n        /* \"smart_contracts/contracts/Authenticator.sol\":525:539  locked = false */\n      0x0100\n      exp\n      dup2\n      sload\n      dup2\n      0xff\n      mul\n      not\n      and\n      swap1\n      dup4\n      iszero\n      iszero\n      mul\n      or\n      swap1\n      sstore\n      pop\n        /* \"smart_contracts/contracts/BaseERC20.sol\":2650:3084  function transfer(address _recipient, uint256 _amount)... */\n      swap3\n      swap2\n      pop\n      pop\n      jump\t// out\n        /* \"smart_contracts/contracts/BaseERC20.sol\":8191:8356  function allowance(address owner, address spender)... */\n    tag_85:\n        /* \"smart_contracts/contracts/BaseERC20.sol\":8287:8294  uint256 */\n      0x00\n        /* \"smart_contracts/contracts/BaseERC20.sol\":8317:8325  database */\n      0x0b\n        /* \"smart_contracts/contracts/BaseERC20.sol\":8317:8333  database.allowed */\n      0x04\n      add\n        /* \"smart_contracts/contracts/BaseERC20.sol\":8317:8340  database.allowed[owner] */\n      0x00\n        /* \"smart_contracts/contracts/BaseERC20.sol\":8334:8339  owner */\n      dup5\n        /* \"smart_contracts/contracts/BaseERC20.sol\":8317:8340  database.allowed[owner] */\n      0xffffffffffffffffffffffffffffffffffffffff\n      and\n      0xffffffffffffffffffffffffffffffffffffffff\n      and\n      dup2\n      mstore\n      0x20\n      add\n      swap1\n      dup2\n      mstore\n      0x20\n      add\n      0x00\n      keccak256\n        /* \"smart_contracts/contracts/BaseERC20.sol\":8317:8349  database.allowed[owner][spender] */\n      0x00\n        /* \"smart_contracts/contracts/BaseERC20.sol\":8341:8348  spender */\n      dup4\n        /* \"smart_contracts/contracts/BaseERC20.sol\":8317:8349  database.allowed[owner][spender] */\n      0xffffffffffffffffffffffffffffffffffffffff\n      and\n      0xffffffffffffffffffffffffffffffffffffffff\n      and\n      dup2\n      mstore\n      0x20\n      add\n      swap1\n      dup2\n      mstore\n      0x20\n      add\n      0x00\n      keccak256\n      sload\n        /* \"smart_contracts/contracts/BaseERC20.sol\":8310:8349  return database.allowed[owner][spender] */\n      swap1\n      pop\n        /* \"smart_contracts/contracts/BaseERC20.sol\":8191:8356  function allowance(address owner, address spender)... */\n      swap3\n      swap2\n      pop\n      pop\n      jump\t// out\n        /* \"smart_contracts/contracts/BaseERC20.sol\":7950:8064  function stakedFor(address account) public view returns (uint256) {... */\n    tag_89:\n        /* \"smart_contracts/contracts/BaseERC20.sol\":8007:8014  uint256 */\n      0x00\n        /* \"smart_contracts/contracts/BaseERC20.sol\":8033:8041  database */\n      0x0b\n        /* \"smart_contracts/contracts/BaseERC20.sol\":8033:8048  database.staked */\n      0x02\n      add\n        /* \"smart_contracts/contracts/BaseERC20.sol\":8033:8057  database.staked[account] */\n      0x00\n        /* \"smart_contracts/contracts/BaseERC20.sol\":8049:8056  account */\n      dup4\n        /* \"smart_contracts/contracts/BaseERC20.sol\":8033:8057  database.staked[account] */\n      0xffffffffffffffffffffffffffffffffffffffff\n      and\n      0xffffffffffffffffffffffffffffffffffffffff\n      and\n      dup2\n      mstore\n      0x20\n      add\n      swap1\n      dup2\n      mstore\n      0x20\n      add\n      0x00\n      keccak256\n      sload\n        /* \"smart_contracts/contracts/BaseERC20.sol\":8026:8057  return database.staked[account] */\n      swap1\n      pop\n        /* \"smart_contracts/contracts/BaseERC20.sol\":7950:8064  function stakedFor(address account) public view returns (uint256) {... */\n      swap2\n      swap1\n      pop\n      jump\t// out\n        /* \"smart_contracts/contracts/BaseERC20.sol\":1812:2189  function _approve(... */\n    tag_104:\n        /* \"smart_contracts/contracts/Authenticator.sol\":450:456  locked */\n      0x03\n      0x00\n      swap1\n      sload\n      swap1\n      0x0100\n      exp\n      swap1\n      div\n      0xff\n      and\n        /* \"smart_contracts/contracts/Authenticator.sol\":449:456  !locked */\n      iszero\n        /* \"smart_contracts/contracts/Authenticator.sol\":441:481  require(!locked, \"Anti-Reentrancy Lock\") */\n      tag_194\n      jumpi\n      mload(0x40)\n      0x08c379a000000000000000000000000000000000000000000000000000000000\n      dup2\n      mstore\n      0x04\n      add\n      tag_195\n      swap1\n      tag_101\n      jump\t// in\n    tag_195:\n      mload(0x40)\n      dup1\n      swap2\n      sub\n      swap1\n      revert\n    tag_194:\n        /* \"smart_contracts/contracts/Authenticator.sol\":500:504  true */\n      0x01\n        /* \"smart_contracts/contracts/Authenticator.sol\":491:497  locked */\n      0x03\n      0x00\n        /* \"smart_contracts/contracts/Authenticator.sol\":491:504  locked = true */\n      0x0100\n      exp\n      dup2\n      sload\n      dup2\n      0xff\n      mul\n      not\n      and\n      swap1\n      dup4\n      iszero\n      iszero\n      mul\n      or\n      swap1\n      sstore\n      pop\n        /* \"smart_contracts/contracts/BaseERC20.sol\":1975:1976  0 */\n      0x00\n        /* \"smart_contracts/contracts/BaseERC20.sol\":1958:1977  owner != address(0) */\n      0xffffffffffffffffffffffffffffffffffffffff\n      and\n        /* \"smart_contracts/contracts/BaseERC20.sol\":1958:1963  owner */\n      dup4\n        /* \"smart_contracts/contracts/BaseERC20.sol\":1958:1977  owner != address(0) */\n      0xffffffffffffffffffffffffffffffffffffffff\n      and\n      sub\n        /* \"smart_contracts/contracts/BaseERC20.sol\":1950:2011  require(owner != address(0), \"Approve from the zero address\") */\n      tag_197\n      jumpi\n      mload(0x40)\n      0x08c379a000000000000000000000000000000000000000000000000000000000\n      dup2\n      mstore\n      0x04\n      add\n      tag_198\n      swap1\n      tag_199\n      jump\t// in\n    tag_198:\n      mload(0x40)\n      dup1\n      swap2\n      sub\n      swap1\n      revert\n    tag_197:\n        /* \"smart_contracts/contracts/BaseERC20.sol\":2048:2049  0 */\n      0x00\n        /* \"smart_contracts/contracts/BaseERC20.sol\":2029:2050  spender != address(0) */\n      0xffffffffffffffffffffffffffffffffffffffff\n      and\n        /* \"smart_contracts/contracts/BaseERC20.sol\":2029:2036  spender */\n      dup3\n        /* \"smart_contracts/contracts/BaseERC20.sol\":2029:2050  spender != address(0) */\n      0xffffffffffffffffffffffffffffffffffffffff\n      and\n      sub\n        /* \"smart_contracts/contracts/BaseERC20.sol\":2021:2084  require(spender != address(0), \"Approve from the zero address\") */\n      tag_200\n      jumpi\n      mload(0x40)\n      0x08c379a000000000000000000000000000000000000000000000000000000000\n      dup2\n      mstore\n      0x04\n      add\n      tag_201\n      swap1\n      tag_199\n      jump\t// in\n    tag_201:\n      mload(0x40)\n      dup1\n      swap2\n      sub\n      swap1\n      revert\n    tag_200:\n        /* \"smart_contracts/contracts/BaseERC20.sol\":2129:2135  amount */\n      dup1\n        /* \"smart_contracts/contracts/BaseERC20.sol\":2094:2102  database */\n      0x0b\n        /* \"smart_contracts/contracts/BaseERC20.sol\":2094:2110  database.allowed */\n      0x04\n      add\n        /* \"smart_contracts/contracts/BaseERC20.sol\":2094:2117  database.allowed[owner] */\n      0x00\n        /* \"smart_contracts/contracts/BaseERC20.sol\":2111:2116  owner */\n      dup6\n        /* \"smart_contracts/contracts/BaseERC20.sol\":2094:2117  database.allowed[owner] */\n      0xffffffffffffffffffffffffffffffffffffffff\n      and\n      0xffffffffffffffffffffffffffffffffffffffff\n      and\n      dup2\n      mstore\n      0x20\n      add\n      swap1\n      dup2\n      mstore\n      0x20\n      add\n      0x00\n      keccak256\n        /* \"smart_contracts/contracts/BaseERC20.sol\":2094:2126  database.allowed[owner][spender] */\n      0x00\n        /* \"smart_contracts/contracts/BaseERC20.sol\":2118:2125  spender */\n      dup5\n        /* \"smart_contracts/contracts/BaseERC20.sol\":2094:2126  database.allowed[owner][spender] */\n      0xffffffffffffffffffffffffffffffffffffffff\n      and\n      0xffffffffffffffffffffffffffffffffffffffff\n      and\n      dup2\n      mstore\n      0x20\n      add\n      swap1\n      dup2\n      mstore\n      0x20\n      add\n      0x00\n      keccak256\n        /* \"smart_contracts/contracts/BaseERC20.sol\":2094:2135  database.allowed[owner][spender] = amount */\n      dup2\n      swap1\n      sstore\n      pop\n        /* \"smart_contracts/contracts/BaseERC20.sol\":2166:2173  spender */\n      dup2\n        /* \"smart_contracts/contracts/BaseERC20.sol\":2150:2182  Approval(owner, spender, amount) */\n      0xffffffffffffffffffffffffffffffffffffffff\n      and\n        /* \"smart_contracts/contracts/BaseERC20.sol\":2159:2164  owner */\n      dup4\n        /* \"smart_contracts/contracts/BaseERC20.sol\":2150:2182  Approval(owner, spender, amount) */\n      0xffffffffffffffffffffffffffffffffffffffff\n      and\n      0x8c5be1e5ebec7d5bd14f71427d1e84f3dd0314c0f7b2291e5b200ac8c7c3b925\n        /* \"smart_contracts/contracts/BaseERC20.sol\":2175:2181  amount */\n      dup4\n        /* \"smart_contracts/contracts/BaseERC20.sol\":2150:2182  Approval(owner, spender, amount) */\n      mload(0x40)\n      tag_202\n      swap2\n      swap1\n      tag_36\n      jump\t// in\n    tag_202:\n      mload(0x40)\n      dup1\n      swap2\n      sub\n      swap1\n      log3\n        /* \"smart_contracts/contracts/Authenticator.sol\":534:539  false */\n      0x00\n        /* \"smart_contracts/contracts/Authenticator.sol\":525:531  locked */\n      0x03\n      0x00\n        /* \"smart_contracts/contracts/Authenticator.sol\":525:539  locked = false */\n      0x0100\n      exp\n      dup2\n      sload\n      dup2\n      0xff\n      mul\n      not\n      and\n      swap1\n      dup4\n      iszero\n      iszero\n      mul\n      or\n      swap1\n      sstore\n      pop\n        /* \"smart_contracts/contracts/BaseERC20.sol\":1812:2189  function _approve(... */\n      pop\n      pop\n      pop\n      jump\t// out\n        /* \"#utility.yul\":7:106   */\n    tag_203:\n        /* \"#utility.yul\":59:65   */\n      0x00\n        /* \"#utility.yul\":93:98   */\n      dup2\n        /* \"#utility.yul\":87:99   */\n      mload\n        /* \"#utility.yul\":77:99   */\n      swap1\n      pop\n        /* \"#utility.yul\":7:106   */\n      swap2\n      swap1\n      pop\n      jump\t// out\n        /* \"#utility.yul\":112:281   */\n    tag_204:\n        /* \"#utility.yul\":196:207   */\n      0x00\n        /* \"#utility.yul\":230:236   */\n      dup3\n        /* \"#utility.yul\":225:228   */\n      dup3\n        /* \"#utility.yul\":218:237   */\n      mstore\n        /* \"#utility.yul\":270:274   */\n      0x20\n        /* \"#utility.yul\":265:268   */\n      dup3\n        /* \"#utility.yul\":261:275   */\n      add\n        /* \"#utility.yul\":246:275   */\n      swap1\n      pop\n        /* \"#utility.yul\":112:281   */\n      swap3\n      swap2\n      pop\n      pop\n      jump\t// out\n        /* \"#utility.yul\":287:533   */\n    tag_205:\n        /* \"#utility.yul\":368:369   */\n      0x00\n        /* \"#utility.yul\":378:491   */\n    tag_240:\n        /* \"#utility.yul\":392:398   */\n      dup4\n        /* \"#utility.yul\":389:390   */\n      dup2\n        /* \"#utility.yul\":386:399   */\n      lt\n        /* \"#utility.yul\":378:491   */\n      iszero\n      tag_242\n      jumpi\n        /* \"#utility.yul\":477:478   */\n      dup1\n        /* \"#utility.yul\":472:475   */\n      dup3\n        /* \"#utility.yul\":468:479   */\n      add\n        /* \"#utility.yul\":462:480   */\n      mload\n        /* \"#utility.yul\":458:459   */\n      dup2\n        /* \"#utility.yul\":453:456   */\n      dup5\n        /* \"#utility.yul\":449:460   */\n      add\n        /* \"#utility.yul\":442:481   */\n      mstore\n        /* \"#utility.yul\":414:416   */\n      0x20\n        /* \"#utility.yul\":411:412   */\n      dup2\n        /* \"#utility.yul\":407:417   */\n      add\n        /* \"#utility.yul\":402:417   */\n      swap1\n      pop\n        /* \"#utility.yul\":378:491   */\n      jump(tag_240)\n    tag_242:\n        /* \"#utility.yul\":525:526   */\n      0x00\n        /* \"#utility.yul\":516:522   */\n      dup5\n        /* \"#utility.yul\":511:514   */\n      dup5\n        /* \"#utility.yul\":507:523   */\n      add\n        /* \"#utility.yul\":500:527   */\n      mstore\n        /* \"#utility.yul\":349:533   */\n      pop\n        /* \"#utility.yul\":287:533   */\n      pop\n      pop\n      pop\n      jump\t// out\n        /* \"#utility.yul\":539:641   */\n    tag_206:\n        /* \"#utility.yul\":580:586   */\n      0x00\n        /* \"#utility.yul\":631:633   */\n      0x1f\n        /* \"#utility.yul\":627:634   */\n      not\n        /* \"#utility.yul\":622:624   */\n      0x1f\n        /* \"#utility.yul\":615:620   */\n      dup4\n        /* \"#utility.yul\":611:625   */\n      add\n        /* \"#utility.yul\":607:635   */\n      and\n        /* \"#utility.yul\":597:635   */\n      swap1\n      pop\n        /* \"#utility.yul\":539:641   */\n      swap2\n      swap1\n      pop\n      jump\t// out\n        /* \"#utility.yul\":647:1024   */\n    tag_207:\n        /* \"#utility.yul\":735:738   */\n      0x00\n        /* \"#utility.yul\":763:802   */\n      tag_245\n        /* \"#utility.yul\":796:801   */\n      dup3\n        /* \"#utility.yul\":763:802   */\n      tag_203\n      jump\t// in\n    tag_245:\n        /* \"#utility.yul\":818:889   */\n      tag_246\n        /* \"#utility.yul\":882:888   */\n      dup2\n        /* \"#utility.yul\":877:880   */\n      dup6\n        /* \"#utility.yul\":818:889   */\n      tag_204\n      jump\t// in\n    tag_246:\n        /* \"#utility.yul\":811:889   */\n      swap4\n      pop\n        /* \"#utility.yul\":898:963   */\n      tag_247\n        /* \"#utility.yul\":956:962   */\n      dup2\n        /* \"#utility.yul\":951:954   */\n      dup6\n        /* \"#utility.yul\":944:948   */\n      0x20\n        /* \"#utility.yul\":937:942   */\n      dup7\n        /* \"#utility.yul\":933:949   */\n      add\n        /* \"#utility.yul\":898:963   */\n      tag_205\n      jump\t// in\n    tag_247:\n        /* \"#utility.yul\":988:1017   */\n      tag_248\n        /* \"#utility.yul\":1010:1016   */\n      dup2\n        /* \"#utility.yul\":988:1017   */\n      tag_206\n      jump\t// in\n    tag_248:\n        /* \"#utility.yul\":983:986   */\n      dup5\n        /* \"#utility.yul\":979:1018   */\n      add\n        /* \"#utility.yul\":972:1018   */\n      swap2\n      pop\n        /* \"#utility.yul\":739:1024   */\n      pop\n        /* \"#utility.yul\":647:1024   */\n      swap3\n      swap2\n      pop\n      pop\n      jump\t// out\n        /* \"#utility.yul\":1030:1343   */\n    tag_26:\n        /* \"#utility.yul\":1143:1147   */\n      0x00\n        /* \"#utility.yul\":1181:1183   */\n      0x20\n        /* \"#utility.yul\":1170:1179   */\n      dup3\n        /* \"#utility.yul\":1166:1184   */\n      add\n        /* \"#utility.yul\":1158:1184   */\n      swap1\n      pop\n        /* \"#utility.yul\":1230:1239   */\n      dup2\n        /* \"#utility.yul\":1224:1228   */\n      dup2\n        /* \"#utility.yul\":1220:1240   */\n      sub\n        /* \"#utility.yul\":1216:1217   */\n      0x00\n        /* \"#utility.yul\":1205:1214   */\n      dup4\n        /* \"#utility.yul\":1201:1218   */\n      add\n        /* \"#utility.yul\":1194:1241   */\n      mstore\n        /* \"#utility.yul\":1258:1336   */\n      tag_250\n        /* \"#utility.yul\":1331:1335   */\n      dup2\n        /* \"#utility.yul\":1322:1328   */\n      dup5\n        /* \"#utility.yul\":1258:1336   */\n      tag_207\n      jump\t// in\n    tag_250:\n        /* \"#utility.yul\":1250:1336   */\n      swap1\n      pop\n        /* \"#utility.yul\":1030:1343   */\n      swap3\n      swap2\n      pop\n      pop\n      jump\t// out\n        /* \"#utility.yul\":1430:1547   */\n    tag_209:\n        /* \"#utility.yul\":1539:1540   */\n      0x00\n        /* \"#utility.yul\":1536:1537   */\n      dup1\n        /* \"#utility.yul\":1529:1541   */\n      revert\n        /* \"#utility.yul\":1676:1802   */\n    tag_211:\n        /* \"#utility.yul\":1713:1720   */\n      0x00\n        /* \"#utility.yul\":1753:1795   */\n      0xffffffffffffffffffffffffffffffffffffffff\n        /* \"#utility.yul\":1746:1751   */\n      dup3\n        /* \"#utility.yul\":1742:1796   */\n      and\n        /* \"#utility.yul\":1731:1796   */\n      swap1\n      pop\n        /* \"#utility.yul\":1676:1802   */\n      swap2\n      swap1\n      pop\n      jump\t// out\n        /* \"#utility.yul\":1808:1904   */\n    tag_212:\n        /* \"#utility.yul\":1845:1852   */\n      0x00\n        /* \"#utility.yul\":1874:1898   */\n      tag_256\n        /* \"#utility.yul\":1892:1897   */\n      dup3\n        /* \"#utility.yul\":1874:1898   */\n      tag_211\n      jump\t// in\n    tag_256:\n        /* \"#utility.yul\":1863:1898   */\n      swap1\n      pop\n        /* \"#utility.yul\":1808:1904   */\n      swap2\n      swap1\n      pop\n      jump\t// out\n        /* \"#utility.yul\":1910:2032   */\n    tag_213:\n        /* \"#utility.yul\":1983:2007   */\n      tag_258\n        /* \"#utility.yul\":2001:2006   */\n      dup2\n        /* \"#utility.yul\":1983:2007   */\n      tag_212\n      jump\t// in\n    tag_258:\n        /* \"#utility.yul\":1976:1981   */\n      dup2\n        /* \"#utility.yul\":1973:2008   */\n      eq\n        /* \"#utility.yul\":1963:2026   */\n      tag_259\n      jumpi\n        /* \"#utility.yul\":2022:2023   */\n      0x00\n        /* \"#utility.yul\":2019:2020   */\n      dup1\n        /* \"#utility.yul\":2012:2024   */\n      revert\n        /* \"#utility.yul\":1963:2026   */\n    tag_259:\n        /* \"#utility.yul\":1910:2032   */\n      pop\n      jump\t// out\n        /* \"#utility.yul\":2038:2177   */\n    tag_214:\n        /* \"#utility.yul\":2084:2089   */\n      0x00\n        /* \"#utility.yul\":2122:2128   */\n      dup2\n        /* \"#utility.yul\":2109:2129   */\n      calldataload\n        /* \"#utility.yul\":2100:2129   */\n      swap1\n      pop\n        /* \"#utility.yul\":2138:2171   */\n      tag_261\n        /* \"#utility.yul\":2165:2170   */\n      dup2\n        /* \"#utility.yul\":2138:2171   */\n      tag_213\n      jump\t// in\n    tag_261:\n        /* \"#utility.yul\":2038:2177   */\n      swap3\n      swap2\n      pop\n      pop\n      jump\t// out\n        /* \"#utility.yul\":2183:2260   */\n    tag_215:\n        /* \"#utility.yul\":2220:2227   */\n      0x00\n        /* \"#utility.yul\":2249:2254   */\n      dup2\n        /* \"#utility.yul\":2238:2254   */\n      swap1\n      pop\n        /* \"#utility.yul\":2183:2260   */\n      swap2\n      swap1\n      pop\n      jump\t// out\n        /* \"#utility.yul\":2266:2388   */\n    tag_216:\n        /* \"#utility.yul\":2339:2363   */\n      tag_264\n        /* \"#utility.yul\":2357:2362   */\n      dup2\n        /* \"#utility.yul\":2339:2363   */\n      tag_215\n      jump\t// in\n    tag_264:\n        /* \"#utility.yul\":2332:2337   */\n      dup2\n        /* \"#utility.yul\":2329:2364   */\n      eq\n        /* \"#utility.yul\":2319:2382   */\n      tag_265\n      jumpi\n        /* \"#utility.yul\":2378:2379   */\n      0x00\n        /* \"#utility.yul\":2375:2376   */\n      dup1\n        /* \"#utility.yul\":2368:2380   */\n      revert\n        /* \"#utility.yul\":2319:2382   */\n    tag_265:\n        /* \"#utility.yul\":2266:2388   */\n      pop\n      jump\t// out\n        /* \"#utility.yul\":2394:2533   */\n    tag_217:\n        /* \"#utility.yul\":2440:2445   */\n      0x00\n        /* \"#utility.yul\":2478:2484   */\n      dup2\n        /* \"#utility.yul\":2465:2485   */\n      calldataload\n        /* \"#utility.yul\":2456:2485   */\n      swap1\n      pop\n        /* \"#utility.yul\":2494:2527   */\n      tag_267\n        /* \"#utility.yul\":2521:2526   */\n      dup2\n        /* \"#utility.yul\":2494:2527   */\n      tag_216\n      jump\t// in\n    tag_267:\n        /* \"#utility.yul\":2394:2533   */\n      swap3\n      swap2\n      pop\n      pop\n      jump\t// out\n        /* \"#utility.yul\":2539:3013   */\n    tag_29:\n        /* \"#utility.yul\":2607:2613   */\n      0x00\n        /* \"#utility.yul\":2615:2621   */\n      dup1\n        /* \"#utility.yul\":2664:2666   */\n      0x40\n        /* \"#utility.yul\":2652:2661   */\n      dup4\n        /* \"#utility.yul\":2643:2650   */\n      dup6\n        /* \"#utility.yul\":2639:2662   */\n      sub\n        /* \"#utility.yul\":2635:2667   */\n      slt\n        /* \"#utility.yul\":2632:2751   */\n      iszero\n      tag_269\n      jumpi\n        /* \"#utility.yul\":2670:2749   */\n      tag_270\n      tag_209\n      jump\t// in\n    tag_270:\n        /* \"#utility.yul\":2632:2751   */\n    tag_269:\n        /* \"#utility.yul\":2790:2791   */\n      0x00\n        /* \"#utility.yul\":2815:2868   */\n      tag_271\n        /* \"#utility.yul\":2860:2867   */\n      dup6\n        /* \"#utility.yul\":2851:2857   */\n      dup3\n        /* \"#utility.yul\":2840:2849   */\n      dup7\n        /* \"#utility.yul\":2836:2858   */\n      add\n        /* \"#utility.yul\":2815:2868   */\n      tag_214\n      jump\t// in\n    tag_271:\n        /* \"#utility.yul\":2805:2868   */\n      swap3\n      pop\n        /* \"#utility.yul\":2761:2878   */\n      pop\n        /* \"#utility.yul\":2917:2919   */\n      0x20\n        /* \"#utility.yul\":2943:2996   */\n      tag_272\n        /* \"#utility.yul\":2988:2995   */\n      dup6\n        /* \"#utility.yul\":2979:2985   */\n      dup3\n        /* \"#utility.yul\":2968:2977   */\n      dup7\n        /* \"#utility.yul\":2964:2986   */\n      add\n        /* \"#utility.yul\":2943:2996   */\n      tag_217\n      jump\t// in\n    tag_272:\n        /* \"#utility.yul\":2933:2996   */\n      swap2\n      pop\n        /* \"#utility.yul\":2888:3006   */\n      pop\n        /* \"#utility.yul\":2539:3013   */\n      swap3\n      pop\n      swap3\n      swap1\n      pop\n      jump\t// out\n        /* \"#utility.yul\":3019:3109   */\n    tag_218:\n        /* \"#utility.yul\":3053:3060   */\n      0x00\n        /* \"#utility.yul\":3096:3101   */\n      dup2\n        /* \"#utility.yul\":3089:3102   */\n      iszero\n        /* \"#utility.yul\":3082:3103   */\n      iszero\n        /* \"#utility.yul\":3071:3103   */\n      swap1\n      pop\n        /* \"#utility.yul\":3019:3109   */\n      swap2\n      swap1\n      pop\n      jump\t// out\n        /* \"#utility.yul\":3115:3224   */\n    tag_219:\n        /* \"#utility.yul\":3196:3217   */\n      tag_275\n        /* \"#utility.yul\":3211:3216   */\n      dup2\n        /* \"#utility.yul\":3196:3217   */\n      tag_218\n      jump\t// in\n    tag_275:\n        /* \"#utility.yul\":3191:3194   */\n      dup3\n        /* \"#utility.yul\":3184:3218   */\n      mstore\n        /* \"#utility.yul\":3115:3224   */\n      pop\n      pop\n      jump\t// out\n        /* \"#utility.yul\":3230:3440   */\n    tag_32:\n        /* \"#utility.yul\":3317:3321   */\n      0x00\n        /* \"#utility.yul\":3355:3357   */\n      0x20\n        /* \"#utility.yul\":3344:3353   */\n      dup3\n        /* \"#utility.yul\":3340:3358   */\n      add\n        /* \"#utility.yul\":3332:3358   */\n      swap1\n      pop\n        /* \"#utility.yul\":3368:3433   */\n      tag_277\n        /* \"#utility.yul\":3430:3431   */\n      0x00\n        /* \"#utility.yul\":3419:3428   */\n      dup4\n        /* \"#utility.yul\":3415:3432   */\n      add\n        /* \"#utility.yul\":3406:3412   */\n      dup5\n        /* \"#utility.yul\":3368:3433   */\n      tag_219\n      jump\t// in\n    tag_277:\n        /* \"#utility.yul\":3230:3440   */\n      swap3\n      swap2\n      pop\n      pop\n      jump\t// out\n        /* \"#utility.yul\":3446:3564   */\n    tag_220:\n        /* \"#utility.yul\":3533:3557   */\n      tag_279\n        /* \"#utility.yul\":3551:3556   */\n      dup2\n        /* \"#utility.yul\":3533:3557   */\n      tag_215\n      jump\t// in\n    tag_279:\n        /* \"#utility.yul\":3528:3531   */\n      dup3\n        /* \"#utility.yul\":3521:3558   */\n      mstore\n        /* \"#utility.yul\":3446:3564   */\n      pop\n      pop\n      jump\t// out\n        /* \"#utility.yul\":3570:3792   */\n    tag_36:\n        /* \"#utility.yul\":3663:3667   */\n      0x00\n        /* \"#utility.yul\":3701:3703   */\n      0x20\n        /* \"#utility.yul\":3690:3699   */\n      dup3\n        /* \"#utility.yul\":3686:3704   */\n      add\n        /* \"#utility.yul\":3678:3704   */\n      swap1\n      pop\n        /* \"#utility.yul\":3714:3785   */\n      tag_281\n        /* \"#utility.yul\":3782:3783   */\n      0x00\n        /* \"#utility.yul\":3771:3780   */\n      dup4\n        /* \"#utility.yul\":3767:3784   */\n      add\n        /* \"#utility.yul\":3758:3764   */\n      dup5\n        /* \"#utility.yul\":3714:3785   */\n      tag_220\n      jump\t// in\n    tag_281:\n        /* \"#utility.yul\":3570:3792   */\n      swap3\n      swap2\n      pop\n      pop\n      jump\t// out\n        /* \"#utility.yul\":3798:4417   */\n    tag_42:\n        /* \"#utility.yul\":3875:3881   */\n      0x00\n        /* \"#utility.yul\":3883:3889   */\n      dup1\n        /* \"#utility.yul\":3891:3897   */\n      0x00\n        /* \"#utility.yul\":3940:3942   */\n      0x60\n        /* \"#utility.yul\":3928:3937   */\n      dup5\n        /* \"#utility.yul\":3919:3926   */\n      dup7\n        /* \"#utility.yul\":3915:3938   */\n      sub\n        /* \"#utility.yul\":3911:3943   */\n      slt\n        /* \"#utility.yul\":3908:4027   */\n      iszero\n      tag_283\n      jumpi\n        /* \"#utility.yul\":3946:4025   */\n      tag_284\n      tag_209\n      jump\t// in\n    tag_284:\n        /* \"#utility.yul\":3908:4027   */\n    tag_283:\n        /* \"#utility.yul\":4066:4067   */\n      0x00\n        /* \"#utility.yul\":4091:4144   */\n      tag_285\n        /* \"#utility.yul\":4136:4143   */\n      dup7\n        /* \"#utility.yul\":4127:4133   */\n      dup3\n        /* \"#utility.yul\":4116:4125   */\n      dup8\n        /* \"#utility.yul\":4112:4134   */\n      add\n        /* \"#utility.yul\":4091:4144   */\n      tag_214\n      jump\t// in\n    tag_285:\n        /* \"#utility.yul\":4081:4144   */\n      swap4\n      pop\n        /* \"#utility.yul\":4037:4154   */\n      pop\n        /* \"#utility.yul\":4193:4195   */\n      0x20\n        /* \"#utility.yul\":4219:4272   */\n      tag_286\n        /* \"#utility.yul\":4264:4271   */\n      dup7\n        /* \"#utility.yul\":4255:4261   */\n      dup3\n        /* \"#utility.yul\":4244:4253   */\n      dup8\n        /* \"#utility.yul\":4240:4262   */\n      add\n        /* \"#utility.yul\":4219:4272   */\n      tag_214\n      jump\t// in\n    tag_286:\n        /* \"#utility.yul\":4209:4272   */\n      swap3\n      pop\n        /* \"#utility.yul\":4164:4282   */\n      pop\n        /* \"#utility.yul\":4321:4323   */\n      0x40\n        /* \"#utility.yul\":4347:4400   */\n      tag_287\n        /* \"#utility.yul\":4392:4399   */\n      dup7\n        /* \"#utility.yul\":4383:4389   */\n      dup3\n        /* \"#utility.yul\":4372:4381   */\n      dup8\n        /* \"#utility.yul\":4368:4390   */\n      add\n        /* \"#utility.yul\":4347:4400   */\n      tag_217\n      jump\t// in\n    tag_287:\n        /* \"#utility.yul\":4337:4400   */\n      swap2\n      pop\n        /* \"#utility.yul\":4292:4410   */\n      pop\n        /* \"#utility.yul\":3798:4417   */\n      swap3\n      pop\n      swap3\n      pop\n      swap3\n      jump\t// out\n        /* \"#utility.yul\":4423:4752   */\n    tag_54:\n        /* \"#utility.yul\":4482:4488   */\n      0x00\n        /* \"#utility.yul\":4531:4533   */\n      0x20\n        /* \"#utility.yul\":4519:4528   */\n      dup3\n        /* \"#utility.yul\":4510:4517   */\n      dup5\n        /* \"#utility.yul\":4506:4529   */\n      sub\n        /* \"#utility.yul\":4502:4534   */\n      slt\n        /* \"#utility.yul\":4499:4618   */\n      iszero\n      tag_289\n      jumpi\n        /* \"#utility.yul\":4537:4616   */\n      tag_290\n      tag_209\n      jump\t// in\n    tag_290:\n        /* \"#utility.yul\":4499:4618   */\n    tag_289:\n        /* \"#utility.yul\":4657:4658   */\n      0x00\n        /* \"#utility.yul\":4682:4735   */\n      tag_291\n        /* \"#utility.yul\":4727:4734   */\n      dup5\n        /* \"#utility.yul\":4718:4724   */\n      dup3\n        /* \"#utility.yul\":4707:4716   */\n      dup6\n        /* \"#utility.yul\":4703:4725   */\n      add\n        /* \"#utility.yul\":4682:4735   */\n      tag_214\n      jump\t// in\n    tag_291:\n        /* \"#utility.yul\":4672:4735   */\n      swap2\n      pop\n        /* \"#utility.yul\":4628:4745   */\n      pop\n        /* \"#utility.yul\":4423:4752   */\n      swap3\n      swap2\n      pop\n      pop\n      jump\t// out\n        /* \"#utility.yul\":4758:5232   */\n    tag_84:\n        /* \"#utility.yul\":4826:4832   */\n      0x00\n        /* \"#utility.yul\":4834:4840   */\n      dup1\n        /* \"#utility.yul\":4883:4885   */\n      0x40\n        /* \"#utility.yul\":4871:4880   */\n      dup4\n        /* \"#utility.yul\":4862:4869   */\n      dup6\n        /* \"#utility.yul\":4858:4881   */\n      sub\n        /* \"#utility.yul\":4854:4886   */\n      slt\n        /* \"#utility.yul\":4851:4970   */\n      iszero\n      tag_293\n      jumpi\n        /* \"#utility.yul\":4889:4968   */\n      tag_294\n      tag_209\n      jump\t// in\n    tag_294:\n        /* \"#utility.yul\":4851:4970   */\n    tag_293:\n        /* \"#utility.yul\":5009:5010   */\n      0x00\n        /* \"#utility.yul\":5034:5087   */\n      tag_295\n        /* \"#utility.yul\":5079:5086   */\n      dup6\n        /* \"#utility.yul\":5070:5076   */\n      dup3\n        /* \"#utility.yul\":5059:5068   */\n      dup7\n        /* \"#utility.yul\":5055:5077   */\n      add\n        /* \"#utility.yul\":5034:5087   */\n      tag_214\n      jump\t// in\n    tag_295:\n        /* \"#utility.yul\":5024:5087   */\n      swap3\n      pop\n        /* \"#utility.yul\":4980:5097   */\n      pop\n        /* \"#utility.yul\":5136:5138   */\n      0x20\n        /* \"#utility.yul\":5162:5215   */\n      tag_296\n        /* \"#utility.yul\":5207:5214   */\n      dup6\n        /* \"#utility.yul\":5198:5204   */\n      dup3\n        /* \"#utility.yul\":5187:5196   */\n      dup7\n        /* \"#utility.yul\":5183:5205   */\n      add\n        /* \"#utility.yul\":5162:5215   */\n      tag_214\n      jump\t// in\n    tag_296:\n        /* \"#utility.yul\":5152:5215   */\n      swap2\n      pop\n        /* \"#utility.yul\":5107:5225   */\n      pop\n        /* \"#utility.yul\":4758:5232   */\n      swap3\n      pop\n      swap3\n      swap1\n      pop\n      jump\t// out\n        /* \"#utility.yul\":5238:5418   */\n    tag_221:\n        /* \"#utility.yul\":5286:5363   */\n      0x4e487b7100000000000000000000000000000000000000000000000000000000\n        /* \"#utility.yul\":5283:5284   */\n      0x00\n        /* \"#utility.yul\":5276:5364   */\n      mstore\n        /* \"#utility.yul\":5383:5387   */\n      0x22\n        /* \"#utility.yul\":5380:5381   */\n      0x04\n        /* \"#utility.yul\":5373:5388   */\n      mstore\n        /* \"#utility.yul\":5407:5411   */\n      0x24\n        /* \"#utility.yul\":5404:5405   */\n      0x00\n        /* \"#utility.yul\":5397:5412   */\n      revert\n        /* \"#utility.yul\":5424:5744   */\n    tag_93:\n        /* \"#utility.yul\":5468:5474   */\n      0x00\n        /* \"#utility.yul\":5505:5506   */\n      0x02\n        /* \"#utility.yul\":5499:5503   */\n      dup3\n        /* \"#utility.yul\":5495:5507   */\n      div\n        /* \"#utility.yul\":5485:5507   */\n      swap1\n      pop\n        /* \"#utility.yul\":5552:5553   */\n      0x01\n        /* \"#utility.yul\":5546:5550   */\n      dup3\n        /* \"#utility.yul\":5542:5554   */\n      and\n        /* \"#utility.yul\":5573:5591   */\n      dup1\n        /* \"#utility.yul\":5563:5644   */\n      tag_299\n      jumpi\n        /* \"#utility.yul\":5629:5633   */\n      0x7f\n        /* \"#utility.yul\":5621:5627   */\n      dup3\n        /* \"#utility.yul\":5617:5634   */\n      and\n        /* \"#utility.yul\":5607:5634   */\n      swap2\n      pop\n        /* \"#utility.yul\":5563:5644   */\n    tag_299:\n        /* \"#utility.yul\":5691:5693   */\n      0x20\n        /* \"#utility.yul\":5683:5689   */\n      dup3\n        /* \"#utility.yul\":5680:5694   */\n      lt\n        /* \"#utility.yul\":5660:5678   */\n      dup2\n        /* \"#utility.yul\":5657:5695   */\n      sub\n        /* \"#utility.yul\":5654:5738   */\n      tag_300\n      jumpi\n        /* \"#utility.yul\":5710:5728   */\n      tag_301\n      tag_221\n      jump\t// in\n    tag_301:\n        /* \"#utility.yul\":5654:5738   */\n    tag_300:\n        /* \"#utility.yul\":5475:5744   */\n      pop\n        /* \"#utility.yul\":5424:5744   */\n      swap2\n      swap1\n      pop\n      jump\t// out\n        /* \"#utility.yul\":5750:5920   */\n    tag_222:\n        /* \"#utility.yul\":5890:5912   */\n      0x416e74692d5265656e7472616e6379204c6f636b000000000000000000000000\n        /* \"#utility.yul\":5886:5887   */\n      0x00\n        /* \"#utility.yul\":5878:5884   */\n      dup3\n        /* \"#utility.yul\":5874:5888   */\n      add\n        /* \"#utility.yul\":5867:5913   */\n      mstore\n        /* \"#utility.yul\":5750:5920   */\n      pop\n      jump\t// out\n        /* \"#utility.yul\":5926:6292   */\n    tag_223:\n        /* \"#utility.yul\":6068:6071   */\n      0x00\n        /* \"#utility.yul\":6089:6156   */\n      tag_304\n        /* \"#utility.yul\":6153:6155   */\n      0x14\n        /* \"#utility.yul\":6148:6151   */\n      dup4\n        /* \"#utility.yul\":6089:6156   */\n      tag_204\n      jump\t// in\n    tag_304:\n        /* \"#utility.yul\":6082:6156   */\n      swap2\n      pop\n        /* \"#utility.yul\":6165:6258   */\n      tag_305\n        /* \"#utility.yul\":6254:6257   */\n      dup3\n        /* \"#utility.yul\":6165:6258   */\n      tag_222\n      jump\t// in\n    tag_305:\n        /* \"#utility.yul\":6283:6285   */\n      0x20\n        /* \"#utility.yul\":6278:6281   */\n      dup3\n        /* \"#utility.yul\":6274:6286   */\n      add\n        /* \"#utility.yul\":6267:6286   */\n      swap1\n      pop\n        /* \"#utility.yul\":5926:6292   */\n      swap2\n      swap1\n      pop\n      jump\t// out\n        /* \"#utility.yul\":6298:6717   */\n    tag_101:\n        /* \"#utility.yul\":6464:6468   */\n      0x00\n        /* \"#utility.yul\":6502:6504   */\n      0x20\n        /* \"#utility.yul\":6491:6500   */\n      dup3\n        /* \"#utility.yul\":6487:6505   */\n      add\n        /* \"#utility.yul\":6479:6505   */\n      swap1\n      pop\n        /* \"#utility.yul\":6551:6560   */\n      dup2\n        /* \"#utility.yul\":6545:6549   */\n      dup2\n        /* \"#utility.yul\":6541:6561   */\n      sub\n        /* \"#utility.yul\":6537:6538   */\n      0x00\n        /* \"#utility.yul\":6526:6535   */\n      dup4\n        /* \"#utility.yul\":6522:6539   */\n      add\n        /* \"#utility.yul\":6515:6562   */\n      mstore\n        /* \"#utility.yul\":6579:6710   */\n      tag_307\n        /* \"#utility.yul\":6705:6709   */\n      dup2\n        /* \"#utility.yul\":6579:6710   */\n      tag_223\n      jump\t// in\n    tag_307:\n        /* \"#utility.yul\":6571:6710   */\n      swap1\n      pop\n        /* \"#utility.yul\":6298:6717   */\n      swap2\n      swap1\n      pop\n      jump\t// out\n        /* \"#utility.yul\":6723:6893   */\n    tag_224:\n        /* \"#utility.yul\":6863:6885   */\n      0x496e73756666696369656e742062616c616e6365000000000000000000000000\n        /* \"#utility.yul\":6859:6860   */\n      0x00\n        /* \"#utility.yul\":6851:6857   */\n      dup3\n        /* \"#utility.yul\":6847:6861   */\n      add\n        /* \"#utility.yul\":6840:6886   */\n      mstore\n        /* \"#utility.yul\":6723:6893   */\n      pop\n      jump\t// out\n        /* \"#utility.yul\":6899:7265   */\n    tag_225:\n        /* \"#utility.yul\":7041:7044   */\n      0x00\n        /* \"#utility.yul\":7062:7129   */\n      tag_310\n        /* \"#utility.yul\":7126:7128   */\n      0x14\n        /* \"#utility.yul\":7121:7124   */\n      dup4\n        /* \"#utility.yul\":7062:7129   */\n      tag_204\n      jump\t// in\n    tag_310:\n        /* \"#utility.yul\":7055:7129   */\n      swap2\n      pop\n        /* \"#utility.yul\":7138:7231   */\n      tag_311\n        /* \"#utility.yul\":7227:7230   */\n      dup3\n        /* \"#utility.yul\":7138:7231   */\n      tag_224\n      jump\t// in\n    tag_311:\n        /* \"#utility.yul\":7256:7258   */\n      0x20\n        /* \"#utility.yul\":7251:7254   */\n      dup3\n        /* \"#utility.yul\":7247:7259   */\n      add\n        /* \"#utility.yul\":7240:7259   */\n      swap1\n      pop\n        /* \"#utility.yul\":6899:7265   */\n      swap2\n      swap1\n      pop\n      jump\t// out\n        /* \"#utility.yul\":7271:7690   */\n    tag_113:\n        /* \"#utility.yul\":7437:7441   */\n      0x00\n        /* \"#utility.yul\":7475:7477   */\n      0x20\n        /* \"#utility.yul\":7464:7473   */\n      dup3\n        /* \"#utility.yul\":7460:7478   */\n      add\n        /* \"#utility.yul\":7452:7478   */\n      swap1\n      pop\n        /* \"#utility.yul\":7524:7533   */\n      dup2\n        /* \"#utility.yul\":7518:7522   */\n      dup2\n        /* \"#utility.yul\":7514:7534   */\n      sub\n        /* \"#utility.yul\":7510:7511   */\n      0x00\n        /* \"#utility.yul\":7499:7508   */\n      dup4\n        /* \"#utility.yul\":7495:7512   */\n      add\n        /* \"#utility.yul\":7488:7535   */\n      mstore\n        /* \"#utility.yul\":7552:7683   */\n      tag_313\n        /* \"#utility.yul\":7678:7682   */\n      dup2\n        /* \"#utility.yul\":7552:7683   */\n      tag_225\n      jump\t// in\n    tag_313:\n        /* \"#utility.yul\":7544:7683   */\n      swap1\n      pop\n        /* \"#utility.yul\":7271:7690   */\n      swap2\n      swap1\n      pop\n      jump\t// out\n        /* \"#utility.yul\":7696:7916   */\n    tag_226:\n        /* \"#utility.yul\":7836:7870   */\n      0x5472616e7366657220616d6f756e74206578636565647320616c6c6f77616e63\n        /* \"#utility.yul\":7832:7833   */\n      0x00\n        /* \"#utility.yul\":7824:7830   */\n      dup3\n        /* \"#utility.yul\":7820:7834   */\n      add\n        /* \"#utility.yul\":7813:7871   */\n      mstore\n        /* \"#utility.yul\":7905:7908   */\n      0x6500000000000000000000000000000000000000000000000000000000000000\n        /* \"#utility.yul\":7900:7902   */\n      0x20\n        /* \"#utility.yul\":7892:7898   */\n      dup3\n        /* \"#utility.yul\":7888:7903   */\n      add\n        /* \"#utility.yul\":7881:7909   */\n      mstore\n        /* \"#utility.yul\":7696:7916   */\n      pop\n      jump\t// out\n        /* \"#utility.yul\":7922:8288   */\n    tag_227:\n        /* \"#utility.yul\":8064:8067   */\n      0x00\n        /* \"#utility.yul\":8085:8152   */\n      tag_316\n        /* \"#utility.yul\":8149:8151   */\n      0x21\n        /* \"#utility.yul\":8144:8147   */\n      dup4\n        /* \"#utility.yul\":8085:8152   */\n      tag_204\n      jump\t// in\n    tag_316:\n        /* \"#utility.yul\":8078:8152   */\n      swap2\n      pop\n        /* \"#utility.yul\":8161:8254   */\n      tag_317\n        /* \"#utility.yul\":8250:8253   */\n      dup3\n        /* \"#utility.yul\":8161:8254   */\n      tag_226\n      jump\t// in\n    tag_317:\n        /* \"#utility.yul\":8279:8281   */\n      0x40\n        /* \"#utility.yul\":8274:8277   */\n      dup3\n        /* \"#utility.yul\":8270:8282   */\n      add\n        /* \"#utility.yul\":8263:8282   */\n      swap1\n      pop\n        /* \"#utility.yul\":7922:8288   */\n      swap2\n      swap1\n      pop\n      jump\t// out\n        /* \"#utility.yul\":8294:8713   */\n    tag_116:\n        /* \"#utility.yul\":8460:8464   */\n      0x00\n        /* \"#utility.yul\":8498:8500   */\n      0x20\n        /* \"#utility.yul\":8487:8496   */\n      dup3\n        /* \"#utility.yul\":8483:8501   */\n      add\n        /* \"#utility.yul\":8475:8501   */\n      swap1\n      pop\n        /* \"#utility.yul\":8547:8556   */\n      dup2\n        /* \"#utility.yul\":8541:8545   */\n      dup2\n        /* \"#utility.yul\":8537:8557   */\n      sub\n        /* \"#utility.yul\":8533:8534   */\n      0x00\n        /* \"#utility.yul\":8522:8531   */\n      dup4\n        /* \"#utility.yul\":8518:8535   */\n      add\n        /* \"#utility.yul\":8511:8558   */\n      mstore\n        /* \"#utility.yul\":8575:8706   */\n      tag_319\n        /* \"#utility.yul\":8701:8705   */\n      dup2\n        /* \"#utility.yul\":8575:8706   */\n      tag_227\n      jump\t// in\n    tag_319:\n        /* \"#utility.yul\":8567:8706   */\n      swap1\n      pop\n        /* \"#utility.yul\":8294:8713   */\n      swap2\n      swap1\n      pop\n      jump\t// out\n        /* \"#utility.yul\":8719:8899   */\n    tag_228:\n        /* \"#utility.yul\":8767:8844   */\n      0x4e487b7100000000000000000000000000000000000000000000000000000000\n        /* \"#utility.yul\":8764:8765   */\n      0x00\n        /* \"#utility.yul\":8757:8845   */\n      mstore\n        /* \"#utility.yul\":8864:8868   */\n      0x11\n        /* \"#utility.yul\":8861:8862   */\n      0x04\n        /* \"#utility.yul\":8854:8869   */\n      mstore\n        /* \"#utility.yul\":8888:8892   */\n      0x24\n        /* \"#utility.yul\":8885:8886   */\n      0x00\n        /* \"#utility.yul\":8878:8893   */\n      revert\n        /* \"#utility.yul\":8905:9099   */\n    tag_118:\n        /* \"#utility.yul\":8945:8949   */\n      0x00\n        /* \"#utility.yul\":8965:8985   */\n      tag_322\n        /* \"#utility.yul\":8983:8984   */\n      dup3\n        /* \"#utility.yul\":8965:8985   */\n      tag_215\n      jump\t// in\n    tag_322:\n        /* \"#utility.yul\":8960:8985   */\n      swap2\n      pop\n        /* \"#utility.yul\":8999:9019   */\n      tag_323\n        /* \"#utility.yul\":9017:9018   */\n      dup4\n        /* \"#utility.yul\":8999:9019   */\n      tag_215\n      jump\t// in\n    tag_323:\n        /* \"#utility.yul\":8994:9019   */\n      swap3\n      pop\n        /* \"#utility.yul\":9043:9044   */\n      dup3\n        /* \"#utility.yul\":9040:9041   */\n      dup3\n        /* \"#utility.yul\":9036:9045   */\n      sub\n        /* \"#utility.yul\":9028:9045   */\n      swap1\n      pop\n        /* \"#utility.yul\":9067:9068   */\n      dup2\n        /* \"#utility.yul\":9061:9065   */\n      dup2\n        /* \"#utility.yul\":9058:9069   */\n      gt\n        /* \"#utility.yul\":9055:9092   */\n      iszero\n      tag_324\n      jumpi\n        /* \"#utility.yul\":9072:9090   */\n      tag_325\n      tag_228\n      jump\t// in\n    tag_325:\n        /* \"#utility.yul\":9055:9092   */\n    tag_324:\n        /* \"#utility.yul\":8905:9099   */\n      swap3\n      swap2\n      pop\n      pop\n      jump\t// out\n        /* \"#utility.yul\":9105:9296   */\n    tag_120:\n        /* \"#utility.yul\":9145:9148   */\n      0x00\n        /* \"#utility.yul\":9164:9184   */\n      tag_327\n        /* \"#utility.yul\":9182:9183   */\n      dup3\n        /* \"#utility.yul\":9164:9184   */\n      tag_215\n      jump\t// in\n    tag_327:\n        /* \"#utility.yul\":9159:9184   */\n      swap2\n      pop\n        /* \"#utility.yul\":9198:9218   */\n      tag_328\n        /* \"#utility.yul\":9216:9217   */\n      dup4\n        /* \"#utility.yul\":9198:9218   */\n      tag_215\n      jump\t// in\n    tag_328:\n        /* \"#utility.yul\":9193:9218   */\n      swap3\n      pop\n        /* \"#utility.yul\":9241:9242   */\n      dup3\n        /* \"#utility.yul\":9238:9239   */\n      dup3\n        /* \"#utility.yul\":9234:9243   */\n      add\n        /* \"#utility.yul\":9227:9243   */\n      swap1\n      pop\n        /* \"#utility.yul\":9262:9265   */\n      dup1\n        /* \"#utility.yul\":9259:9260   */\n      dup3\n        /* \"#utility.yul\":9256:9266   */\n      gt\n        /* \"#utility.yul\":9253:9289   */\n      iszero\n      tag_329\n      jumpi\n        /* \"#utility.yul\":9269:9287   */\n      tag_330\n      tag_228\n      jump\t// in\n    tag_330:\n        /* \"#utility.yul\":9253:9289   */\n    tag_329:\n        /* \"#utility.yul\":9105:9296   */\n      swap3\n      swap2\n      pop\n      pop\n      jump\t// out\n        /* \"#utility.yul\":9302:9482   */\n    tag_144:\n        /* \"#utility.yul\":9350:9427   */\n      0x4e487b7100000000000000000000000000000000000000000000000000000000\n        /* \"#utility.yul\":9347:9348   */\n      0x00\n        /* \"#utility.yul\":9340:9428   */\n      mstore\n        /* \"#utility.yul\":9447:9451   */\n      0x32\n        /* \"#utility.yul\":9444:9445   */\n      0x04\n        /* \"#utility.yul\":9437:9452   */\n      mstore\n        /* \"#utility.yul\":9471:9475   */\n      0x24\n        /* \"#utility.yul\":9468:9469   */\n      0x00\n        /* \"#utility.yul\":9461:9476   */\n      revert\n        /* \"#utility.yul\":9488:9898   */\n    tag_153:\n        /* \"#utility.yul\":9528:9535   */\n      0x00\n        /* \"#utility.yul\":9551:9571   */\n      tag_333\n        /* \"#utility.yul\":9569:9570   */\n      dup3\n        /* \"#utility.yul\":9551:9571   */\n      tag_215\n      jump\t// in\n    tag_333:\n        /* \"#utility.yul\":9546:9571   */\n      swap2\n      pop\n        /* \"#utility.yul\":9585:9605   */\n      tag_334\n        /* \"#utility.yul\":9603:9604   */\n      dup4\n        /* \"#utility.yul\":9585:9605   */\n      tag_215\n      jump\t// in\n    tag_334:\n        /* \"#utility.yul\":9580:9605   */\n      swap3\n      pop\n        /* \"#utility.yul\":9640:9641   */\n      dup3\n        /* \"#utility.yul\":9637:9638   */\n      dup3\n        /* \"#utility.yul\":9633:9642   */\n      mul\n        /* \"#utility.yul\":9662:9692   */\n      tag_335\n        /* \"#utility.yul\":9680:9691   */\n      dup2\n        /* \"#utility.yul\":9662:9692   */\n      tag_215\n      jump\t// in\n    tag_335:\n        /* \"#utility.yul\":9651:9692   */\n      swap2\n      pop\n        /* \"#utility.yul\":9841:9842   */\n      dup3\n        /* \"#utility.yul\":9832:9839   */\n      dup3\n        /* \"#utility.yul\":9828:9843   */\n      div\n        /* \"#utility.yul\":9825:9826   */\n      dup5\n        /* \"#utility.yul\":9822:9844   */\n      eq\n        /* \"#utility.yul\":9802:9803   */\n      dup4\n        /* \"#utility.yul\":9795:9804   */\n      iszero\n        /* \"#utility.yul\":9775:9858   */\n      or\n        /* \"#utility.yul\":9752:9891   */\n      tag_336\n      jumpi\n        /* \"#utility.yul\":9871:9889   */\n      tag_337\n      tag_228\n      jump\t// in\n    tag_337:\n        /* \"#utility.yul\":9752:9891   */\n    tag_336:\n        /* \"#utility.yul\":9536:9898   */\n      pop\n        /* \"#utility.yul\":9488:9898   */\n      swap3\n      swap2\n      pop\n      pop\n      jump\t// out\n        /* \"#utility.yul\":9904:10084   */\n    tag_229:\n        /* \"#utility.yul\":9952:10029   */\n      0x4e487b7100000000000000000000000000000000000000000000000000000000\n        /* \"#utility.yul\":9949:9950   */\n      0x00\n        /* \"#utility.yul\":9942:10030   */\n      mstore\n        /* \"#utility.yul\":10049:10053   */\n      0x12\n        /* \"#utility.yul\":10046:10047   */\n      0x04\n        /* \"#utility.yul\":10039:10054   */\n      mstore\n        /* \"#utility.yul\":10073:10077   */\n      0x24\n        /* \"#utility.yul\":10070:10071   */\n      0x00\n        /* \"#utility.yul\":10063:10078   */\n      revert\n        /* \"#utility.yul\":10090:10275   */\n    tag_155:\n        /* \"#utility.yul\":10130:10131   */\n      0x00\n        /* \"#utility.yul\":10147:10167   */\n      tag_340\n        /* \"#utility.yul\":10165:10166   */\n      dup3\n        /* \"#utility.yul\":10147:10167   */\n      tag_215\n      jump\t// in\n    tag_340:\n        /* \"#utility.yul\":10142:10167   */\n      swap2\n      pop\n        /* \"#utility.yul\":10181:10201   */\n      tag_341\n        /* \"#utility.yul\":10199:10200   */\n      dup4\n        /* \"#utility.yul\":10181:10201   */\n      tag_215\n      jump\t// in\n    tag_341:\n        /* \"#utility.yul\":10176:10201   */\n      swap3\n      pop\n        /* \"#utility.yul\":10220:10221   */\n      dup3\n        /* \"#utility.yul\":10210:10245   */\n      tag_342\n      jumpi\n        /* \"#utility.yul\":10225:10243   */\n      tag_343\n      tag_229\n      jump\t// in\n    tag_343:\n        /* \"#utility.yul\":10210:10245   */\n    tag_342:\n        /* \"#utility.yul\":10267:10268   */\n      dup3\n        /* \"#utility.yul\":10264:10265   */\n      dup3\n        /* \"#utility.yul\":10260:10269   */\n      div\n        /* \"#utility.yul\":10255:10269   */\n      swap1\n      pop\n        /* \"#utility.yul\":10090:10275   */\n      swap3\n      swap2\n      pop\n      pop\n      jump\t// out\n        /* \"#utility.yul\":10281:10451   */\n    tag_230:\n        /* \"#utility.yul\":10421:10443   */\n      0x4e6f20746f6b656e7320746f2072656c65617365000000000000000000000000\n        /* \"#utility.yul\":10417:10418   */\n      0x00\n        /* \"#utility.yul\":10409:10415   */\n      dup3\n        /* \"#utility.yul\":10405:10419   */\n      add\n        /* \"#utility.yul\":10398:10444   */\n      mstore\n        /* \"#utility.yul\":10281:10451   */\n      pop\n      jump\t// out\n        /* \"#utility.yul\":10457:10823   */\n    tag_231:\n        /* \"#utility.yul\":10599:10602   */\n      0x00\n        /* \"#utility.yul\":10620:10687   */\n      tag_346\n        /* \"#utility.yul\":10684:10686   */\n      0x14\n        /* \"#utility.yul\":10679:10682   */\n      dup4\n        /* \"#utility.yul\":10620:10687   */\n      tag_204\n      jump\t// in\n    tag_346:\n        /* \"#utility.yul\":10613:10687   */\n      swap2\n      pop\n        /* \"#utility.yul\":10696:10789   */\n      tag_347\n        /* \"#utility.yul\":10785:10788   */\n      dup3\n        /* \"#utility.yul\":10696:10789   */\n      tag_230\n      jump\t// in\n    tag_347:\n        /* \"#utility.yul\":10814:10816   */\n      0x20\n        /* \"#utility.yul\":10809:10812   */\n      dup3\n        /* \"#utility.yul\":10805:10817   */\n      add\n        /* \"#utility.yul\":10798:10817   */\n      swap1\n      pop\n        /* \"#utility.yul\":10457:10823   */\n      swap2\n      swap1\n      pop\n      jump\t// out\n        /* \"#utility.yul\":10829:11248   */\n    tag_161:\n        /* \"#utility.yul\":10995:10999   */\n      0x00\n        /* \"#utility.yul\":11033:11035   */\n      0x20\n        /* \"#utility.yul\":11022:11031   */\n      dup3\n        /* \"#utility.yul\":11018:11036   */\n      add\n        /* \"#utility.yul\":11010:11036   */\n      swap1\n      pop\n        /* \"#utility.yul\":11082:11091   */\n      dup2\n        /* \"#utility.yul\":11076:11080   */\n      dup2\n        /* \"#utility.yul\":11072:11092   */\n      sub\n        /* \"#utility.yul\":11068:11069   */\n      0x00\n        /* \"#utility.yul\":11057:11066   */\n      dup4\n        /* \"#utility.yul\":11053:11070   */\n      add\n        /* \"#utility.yul\":11046:11093   */\n      mstore\n        /* \"#utility.yul\":11110:11241   */\n      tag_349\n        /* \"#utility.yul\":11236:11240   */\n      dup2\n        /* \"#utility.yul\":11110:11241   */\n      tag_231\n      jump\t// in\n    tag_349:\n        /* \"#utility.yul\":11102:11241   */\n      swap1\n      pop\n        /* \"#utility.yul\":10829:11248   */\n      swap2\n      swap1\n      pop\n      jump\t// out\n        /* \"#utility.yul\":11254:11487   */\n    tag_166:\n        /* \"#utility.yul\":11293:11296   */\n      0x00\n        /* \"#utility.yul\":11316:11340   */\n      tag_351\n        /* \"#utility.yul\":11334:11339   */\n      dup3\n        /* \"#utility.yul\":11316:11340   */\n      tag_215\n      jump\t// in\n    tag_351:\n        /* \"#utility.yul\":11307:11340   */\n      swap2\n      pop\n        /* \"#utility.yul\":11362:11428   */\n      0xffffffffffffffffffffffffffffffffffffffffffffffffffffffffffffffff\n        /* \"#utility.yul\":11355:11360   */\n      dup3\n        /* \"#utility.yul\":11352:11429   */\n      sub\n        /* \"#utility.yul\":11349:11452   */\n      tag_352\n      jumpi\n        /* \"#utility.yul\":11432:11450   */\n      tag_353\n      tag_228\n      jump\t// in\n    tag_353:\n        /* \"#utility.yul\":11349:11452   */\n    tag_352:\n        /* \"#utility.yul\":11479:11480   */\n      0x01\n        /* \"#utility.yul\":11472:11477   */\n      dup3\n        /* \"#utility.yul\":11468:11481   */\n      add\n        /* \"#utility.yul\":11461:11481   */\n      swap1\n      pop\n        /* \"#utility.yul\":11254:11487   */\n      swap2\n      swap1\n      pop\n      jump\t// out\n        /* \"#utility.yul\":11493:11673   */\n    tag_232:\n        /* \"#utility.yul\":11633:11665   */\n      0x44656372656173656420616c6c6f77616e63652062656c6f77207a65726f0000\n        /* \"#utility.yul\":11629:11630   */\n      0x00\n        /* \"#utility.yul\":11621:11627   */\n      dup3\n        /* \"#utility.yul\":11617:11631   */\n      add\n        /* \"#utility.yul\":11610:11666   */\n      mstore\n        /* \"#utility.yul\":11493:11673   */\n      pop\n      jump\t// out\n        /* \"#utility.yul\":11679:12045   */\n    tag_233:\n        /* \"#utility.yul\":11821:11824   */\n      0x00\n        /* \"#utility.yul\":11842:11909   */\n      tag_356\n        /* \"#utility.yul\":11906:11908   */\n      0x1e\n        /* \"#utility.yul\":11901:11904   */\n      dup4\n        /* \"#utility.yul\":11842:11909   */\n      tag_204\n      jump\t// in\n    tag_356:\n        /* \"#utility.yul\":11835:11909   */\n      swap2\n      pop\n        /* \"#utility.yul\":11918:12011   */\n      tag_357\n        /* \"#utility.yul\":12007:12010   */\n      dup3\n        /* \"#utility.yul\":11918:12011   */\n      tag_232\n      jump\t// in\n    tag_357:\n        /* \"#utility.yul\":12036:12038   */\n      0x20\n        /* \"#utility.yul\":12031:12034   */\n      dup3\n        /* \"#utility.yul\":12027:12039   */\n      add\n        /* \"#utility.yul\":12020:12039   */\n      swap1\n      pop\n        /* \"#utility.yul\":11679:12045   */\n      swap2\n      swap1\n      pop\n      jump\t// out\n        /* \"#utility.yul\":12051:12470   */\n    tag_180:\n        /* \"#utility.yul\":12217:12221   */\n      0x00\n        /* \"#utility.yul\":12255:12257   */\n      0x20\n        /* \"#utility.yul\":12244:12253   */\n      dup3\n        /* \"#utility.yul\":12240:12258   */\n      add\n        /* \"#utility.yul\":12232:12258   */\n      swap1\n      pop\n        /* \"#utility.yul\":12304:12313   */\n      dup2\n        /* \"#utility.yul\":12298:12302   */\n      dup2\n        /* \"#utility.yul\":12294:12314   */\n      sub\n        /* \"#utility.yul\":12290:12291   */\n      0x00\n        /* \"#utility.yul\":12279:12288   */\n      dup4\n        /* \"#utility.yul\":12275:12292   */\n      add\n        /* \"#utility.yul\":12268:12315   */\n      mstore\n        /* \"#utility.yul\":12332:12463   */\n      tag_359\n        /* \"#utility.yul\":12458:12462   */\n      dup2\n        /* \"#utility.yul\":12332:12463   */\n      tag_233\n      jump\t// in\n    tag_359:\n        /* \"#utility.yul\":12324:12463   */\n      swap1\n      pop\n        /* \"#utility.yul\":12051:12470   */\n      swap2\n      swap1\n      pop\n      jump\t// out\n        /* \"#utility.yul\":12476:12655   */\n    tag_234:\n        /* \"#utility.yul\":12616:12647   */\n      0x417070726f76652066726f6d20746865207a65726f2061646472657373000000\n        /* \"#utility.yul\":12612:12613   */\n      0x00\n        /* \"#utility.yul\":12604:12610   */\n      dup3\n        /* \"#utility.yul\":12600:12614   */\n      add\n        /* \"#utility.yul\":12593:12648   */\n      mstore\n        /* \"#utility.yul\":12476:12655   */\n      pop\n      jump\t// out\n        /* \"#utility.yul\":12661:13027   */\n    tag_235:\n        /* \"#utility.yul\":12803:12806   */\n      0x00\n        /* \"#utility.yul\":12824:12891   */\n      tag_362\n        /* \"#utility.yul\":12888:12890   */\n      0x1d\n        /* \"#utility.yul\":12883:12886   */\n      dup4\n        /* \"#utility.yul\":12824:12891   */\n      tag_204\n      jump\t// in\n    tag_362:\n        /* \"#utility.yul\":12817:12891   */\n      swap2\n      pop\n        /* \"#utility.yul\":12900:12993   */\n      tag_363\n        /* \"#utility.yul\":12989:12992   */\n      dup3\n        /* \"#utility.yul\":12900:12993   */\n      tag_234\n      jump\t// in\n    tag_363:\n        /* \"#utility.yul\":13018:13020   */\n      0x20\n        /* \"#utility.yul\":13013:13016   */\n      dup3\n        /* \"#utility.yul\":13009:13021   */\n      add\n        /* \"#utility.yul\":13002:13021   */\n      swap1\n      pop\n        /* \"#utility.yul\":12661:13027   */\n      swap2\n      swap1\n      pop\n      jump\t// out\n        /* \"#utility.yul\":13033:13452   */\n    tag_199:\n        /* \"#utility.yul\":13199:13203   */\n      0x00\n        /* \"#utility.yul\":13237:13239   */\n      0x20\n        /* \"#utility.yul\":13226:13235   */\n      dup3\n        /* \"#utility.yul\":13222:13240   */\n      add\n        /* \"#utility.yul\":13214:13240   */\n      swap1\n      pop\n        /* \"#utility.yul\":13286:13295   */\n      dup2\n        /* \"#utility.yul\":13280:13284   */\n      dup2\n        /* \"#utility.yul\":13276:13296   */\n      sub\n        /* \"#utility.yul\":13272:13273   */\n      0x00\n        /* \"#utility.yul\":13261:13270   */\n      dup4\n        /* \"#utility.yul\":13257:13274   */\n      add\n        /* \"#utility.yul\":13250:13297   */\n      mstore\n        /* \"#utility.yul\":13314:13445   */\n      tag_365\n        /* \"#utility.yul\":13440:13444   */\n      dup2\n        /* \"#utility.yul\":13314:13445   */\n      tag_235\n      jump\t// in\n    tag_365:\n        /* \"#utility.yul\":13306:13445   */\n      swap1\n      pop\n        /* \"#utility.yul\":13033:13452   */\n      swap2\n      swap1\n      pop\n      jump\t// out\n\n    auxdata: 0xa2646970667358221220fe786733f6314e0adb775919a727f38fb36e622802618d4d96e2bdcf41f5bafb64736f6c63430008120033\n}\n",
				"bytecode": {
					"linkReferences": {},
					"object": "60806040523480156200001157600080fd5b5060006004800181905550600060046005018190555060006004600601819055506001600360016101000a81548160ff0219169083151502179055506001600360026101000a81548160ff021916908315150217905550630bebc200600460030181905550620000a5735b38da6a701c568545dcfcb03fcb875f56beddc4630bebc200630e6b6800620000ac60201b60201c565b5062000720565b6000600360009054906101000a900460ff161562000101576040517f08c379a0000000000000000000000000000000000000000000000000000000008152600401620000f8906200046e565b60405180910390fd5b6001600360006101000a81548160ff0219169083151502179055506000831162000162576040517f08c379a0000000000000000000000000000000000000000000000000000000008152600401620001599062000506565b60405180910390fd5b60011515600360019054906101000a900460ff16151514620001bb576040517f08c379a0000000000000000000000000000000000000000000000000000000008152600401620001b29062000578565b60405180910390fd5b600460030154836004800154620001d39190620005d3565b111562000217576040517f08c379a00000000000000000000000000000000000000000000000000000000081526004016200020e906200065e565b60405180910390fd5b600073ffffffffffffffffffffffffffffffffffffffff168473ffffffffffffffffffffffffffffffffffffffff160362000289576040517f08c379a00000000000000000000000000000000000000000000000000000000081526004016200028090620006d0565b60405180910390fd5b6000429050600083826200029e9190620005d3565b90506000604051806080016040528087815260200184815260200183815260200160008152509050601160008873ffffffffffffffffffffffffffffffffffffffff1673ffffffffffffffffffffffffffffffffffffffff168152602001908152602001600020819080600181540180825580915050600190039060005260206000209060040201600090919091909150600082015181600001556020820151816001015560408201518160020155606082015181600301555050856004800160008282546200036f9190620005d3565b9250508190555085600460050160008282546200038d9190620005d3565b925050819055508673ffffffffffffffffffffffffffffffffffffffff167f0f6798a560793a54c3bcfe86a93cde1e73087d944c0ea20544137d412139688587604051620003dc919062000703565b60405180910390a2600193505050506000600360006101000a81548160ff0219169083151502179055509392505050565b600082825260208201905092915050565b7f416e74692d5265656e7472616e6379204c6f636b000000000000000000000000600082015250565b6000620004566014836200040d565b915062000463826200041e565b602082019050919050565b60006020820190508181036000830152620004898162000447565b9050919050565b7f5a65726f20616e64206e656761746976652076616c756573206e6f742073757060008201527f706f727465640000000000000000000000000000000000000000000000000000602082015250565b6000620004ee6026836200040d565b9150620004fb8262000490565b604082019050919050565b600060208201905081810360008301526200052181620004df565b9050919050565b7f4d696e74696e672064697361626c656400000000000000000000000000000000600082015250565b6000620005606010836200040d565b91506200056d8262000528565b602082019050919050565b60006020820190508181036000830152620005938162000551565b9050919050565b6000819050919050565b7f4e487b7100000000000000000000000000000000000000000000000000000000600052601160045260246000fd5b6000620005e0826200059a565b9150620005ed836200059a565b9250828201905080821115620006085762000607620005a4565b5b92915050565b7f4e6f206d6f726520746f6b656e732063616e206265206d696e74656400000000600082015250565b600062000646601c836200040d565b915062000653826200060e565b602082019050919050565b60006020820190508181036000830152620006798162000637565b9050919050565b7f41646472657373206e6f7420737570706f727465640000000000000000000000600082015250565b6000620006b86015836200040d565b9150620006c58262000680565b602082019050919050565b60006020820190508181036000830152620006eb81620006a9565b9050919050565b620006fd816200059a565b82525050565b60006020820190506200071a6000830184620006f2565b92915050565b611bbf80620007306000396000f3fe608060405234801561001057600080fd5b506004361061010b5760003560e01c80637657135c116100a257806395d89b411161007157806395d89b41146102e4578063a457c2d714610302578063a9059cbb14610332578063dd62ed3e14610362578063feb73f8b146103925761010b565b80637657135c146102485780637fb8b61e14610278578063817b1cd2146102a857806386d1a69f146102c65761010b565b806323b872dd116100de57806323b872dd1461019a578063313ce567146101ca57806339509351146101e857806370a08231146102185761010b565b806306fdde0314610110578063095ea7b31461012e57806318160ddd1461015e578063199cbc541461017c575b600080fd5b6101186103c2565b60405161012591906114b0565b60405180910390f35b6101486004803603810190610143919061156b565b610457565b60405161015591906115c6565b60405180910390f35b6101666104fa565b60405161017391906115f0565b60405180910390f35b610184610506565b60405161019191906115f0565b60405180910390f35b6101b460048036038101906101af919061160b565b610513565b6040516101c191906115c6565b60405180910390f35b6101d261089a565b6040516101df91906115f0565b60405180910390f35b61020260048036038101906101fd919061156b565b6108a7565b60405161020f91906115c6565b60405180910390f35b610232600480360381019061022d919061165e565b61095e565b60405161023f91906115f0565b60405180910390f35b610262600480360381019061025d919061165e565b6109aa565b60405161026f91906115f0565b60405180910390f35b610292600480360381019061028d919061165e565b6109f6565b60405161029f91906115f0565b60405180910390f35b6102b0610a42565b6040516102bd91906115f0565b60405180910390f35b6102ce610a4f565b6040516102db91906115c6565b60405180910390f35b6102ec610d3e565b6040516102f991906114b0565b60405180910390f35b61031c6004803603810190610317919061156b565b610dd3565b60405161032991906115c6565b60405180910390f35b61034c6004803603810190610347919061156b565b610eca565b60405161035991906115c6565b60405180910390f35b61037c6004803603810190610377919061168b565b6110f8565b60405161038991906115f0565b60405180910390f35b6103ac60048036038101906103a7919061165e565b611182565b6040516103b991906115f0565b60405180910390f35b6060600460000180546103d4906116fa565b80601f0160208091040260200160405190810160405280929190818152602001828054610400906116fa565b801561044d5780601f106104225761010080835404028352916020019161044d565b820191906000526020600020905b81548152906001019060200180831161043057829003601f168201915b5050505050905090565b6000600360009054906101000a900460ff16156104a9576040517f08c379a00000000000000000000000000000000000000000000000000000000081526004016104a090611777565b60405180910390fd5b6001600360006101000a81548160ff02191690831515021790555060003390506104d48185856111ce565b60019150506000600360006101000a81548160ff02191690831515021790555092915050565b60006004800154905090565b6000600460050154905090565b6000600360009054906101000a900460ff1615610565576040517f08c379a000000000000000000000000000000000000000000000000000000000815260040161055c90611777565b60405180910390fd5b6001600360006101000a81548160ff02191690831515021790555081600b60000160008673ffffffffffffffffffffffffffffffffffffffff1673ffffffffffffffffffffffffffffffffffffffff168152602001908152602001600020541015610605576040517f08c379a00000000000000000000000000000000000000000000000000000000081526004016105fc906117e3565b60405180910390fd5b81600b60040160008673ffffffffffffffffffffffffffffffffffffffff1673ffffffffffffffffffffffffffffffffffffffff16815260200190815260200160002060003373ffffffffffffffffffffffffffffffffffffffff1673ffffffffffffffffffffffffffffffffffffffff1681526020019081526020016000205410156106c7576040517f08c379a00000000000000000000000000000000000000000000000000000000081526004016106be90611875565b60405180910390fd5b81600b60000160008673ffffffffffffffffffffffffffffffffffffffff1673ffffffffffffffffffffffffffffffffffffffff168152602001908152602001600020600082825461071991906118c4565b9250508190555081600b60000160008573ffffffffffffffffffffffffffffffffffffffff1673ffffffffffffffffffffffffffffffffffffffff168152602001908152602001600020600082825461077291906118f8565b9250508190555081600b60040160008673ffffffffffffffffffffffffffffffffffffffff1673ffffffffffffffffffffffffffffffffffffffff16815260200190815260200160002060003373ffffffffffffffffffffffffffffffffffffffff1673ffffffffffffffffffffffffffffffffffffffff168152602001908152602001600020600082825461080891906118c4565b925050819055508273ffffffffffffffffffffffffffffffffffffffff168473ffffffffffffffffffffffffffffffffffffffff167fddf252ad1be2c89b69c2b068fc378daa952ba7f163c4a11628f55a4df523b3ef8460405161086c91906115f0565b60405180910390a3600190506000600360006101000a81548160ff0219169083151502179055509392505050565b6000600460020154905090565b6000600360009054906101000a900460ff16156108f9576040517f08c379a00000000000000000000000000000000000000000000000000000000081526004016108f090611777565b60405180910390fd5b6001600360006101000a81548160ff021916908315150217905550600033905061093881858561092985896110f8565b61093391906118f8565b6111ce565b60019150506000600360006101000a81548160ff02191690831515021790555092915050565b6000600b60000160008373ffffffffffffffffffffffffffffffffffffffff1673ffffffffffffffffffffffffffffffffffffffff168152602001908152602001600020549050919050565b6000600b60010160008373ffffffffffffffffffffffffffffffffffffffff1673ffffffffffffffffffffffffffffffffffffffff168152602001908152602001600020549050919050565b6000600b60030160008373ffffffffffffffffffffffffffffffffffffffff1673ffffffffffffffffffffffffffffffffffffffff168152602001908152602001600020549050919050565b6000600460060154905090565b6000600360009054906101000a900460ff1615610aa1576040517f08c379a0000000000000000000000000000000000000000000000000000000008152600401610a9890611777565b60405180910390fd5b6001600360006101000a81548160ff0219169083151502179055506000601160003373ffffffffffffffffffffffffffffffffffffffff1673ffffffffffffffffffffffffffffffffffffffff16815260200190815260200160002090506000805b8280549050811015610d19576000838281548110610b2457610b2361192c565b5b9060005260206000209060040201905080600201544210610b7857600081600301548260000154610b5591906118c4565b9050816000015482600301819055508084610b7091906118f8565b935050610bff565b6000816001015442610b8a91906118c4565b9050600082600101548360020154610ba291906118c4565b90506000836003015482848660000154610bbc919061195b565b610bc691906119cc565b610bd091906118c4565b905080846003016000828254610be691906118f8565b925050819055508086610bf991906118f8565b95505050505b60008311610c42576040517f08c379a0000000000000000000000000000000000000000000000000000000008152600401610c3990611a49565b60405180910390fd5b8260046005016000828254610c5791906118c4565b9250508190555082600b60000160003373ffffffffffffffffffffffffffffffffffffffff1673ffffffffffffffffffffffffffffffffffffffff1681526020019081526020016000206000828254610cb091906118f8565b925050819055503373ffffffffffffffffffffffffffffffffffffffff167fc7798891864187665ac6dd119286e44ec13f014527aeeb2b8eb3fd413df9317984604051610cfd91906115f0565b60405180910390a2508080610d1190611a69565b915050610b03565b506001925050506000600360006101000a81548160ff02191690831515021790555090565b606060046001018054610d50906116fa565b80601f0160208091040260200160405190810160405280929190818152602001828054610d7c906116fa565b8015610dc95780601f10610d9e57610100808354040283529160200191610dc9565b820191906000526020600020905b815481529060010190602001808311610dac57829003601f168201915b5050505050905090565b6000600360009054906101000a900460ff1615610e25576040517f08c379a0000000000000000000000000000000000000000000000000000000008152600401610e1c90611777565b60405180910390fd5b6001600360006101000a81548160ff02191690831515021790555060003390506000610e5182866110f8565b905083811015610e96576040517f08c379a0000000000000000000000000000000000000000000000000000000008152600401610e8d90611afd565b60405180910390fd5b610ea382868684036111ce565b6001925050506000600360006101000a81548160ff02191690831515021790555092915050565b6000600360009054906101000a900460ff1615610f1c576040517f08c379a0000000000000000000000000000000000000000000000000000000008152600401610f1390611777565b60405180910390fd5b6001600360006101000a81548160ff02191690831515021790555081600b60000160003373ffffffffffffffffffffffffffffffffffffffff1673ffffffffffffffffffffffffffffffffffffffff168152602001908152602001600020541015610fbc576040517f08c379a0000000000000000000000000000000000000000000000000000000008152600401610fb3906117e3565b60405180910390fd5b81600b60000160003373ffffffffffffffffffffffffffffffffffffffff1673ffffffffffffffffffffffffffffffffffffffff168152602001908152602001600020600082825461100e91906118c4565b9250508190555081600b60000160008573ffffffffffffffffffffffffffffffffffffffff1673ffffffffffffffffffffffffffffffffffffffff168152602001908152602001600020600082825461106791906118f8565b925050819055508273ffffffffffffffffffffffffffffffffffffffff163373ffffffffffffffffffffffffffffffffffffffff167fddf252ad1be2c89b69c2b068fc378daa952ba7f163c4a11628f55a4df523b3ef846040516110cb91906115f0565b60405180910390a3600190506000600360006101000a81548160ff02191690831515021790555092915050565b6000600b60040160008473ffffffffffffffffffffffffffffffffffffffff1673ffffffffffffffffffffffffffffffffffffffff16815260200190815260200160002060008373ffffffffffffffffffffffffffffffffffffffff1673ffffffffffffffffffffffffffffffffffffffff16815260200190815260200160002054905092915050565b6000600b60020160008373ffffffffffffffffffffffffffffffffffffffff1673ffffffffffffffffffffffffffffffffffffffff168152602001908152602001600020549050919050565b600360009054906101000a900460ff161561121e576040517f08c379a000000000000000000000000000000000000000000000000000000000815260040161121590611777565b60405180910390fd5b6001600360006101000a81548160ff021916908315150217905550600073ffffffffffffffffffffffffffffffffffffffff168373ffffffffffffffffffffffffffffffffffffffff16036112a8576040517f08c379a000000000000000000000000000000000000000000000000000000000815260040161129f90611b69565b60405180910390fd5b600073ffffffffffffffffffffffffffffffffffffffff168273ffffffffffffffffffffffffffffffffffffffff1603611317576040517f08c379a000000000000000000000000000000000000000000000000000000000815260040161130e90611b69565b60405180910390fd5b80600b60040160008573ffffffffffffffffffffffffffffffffffffffff1673ffffffffffffffffffffffffffffffffffffffff16815260200190815260200160002060008473ffffffffffffffffffffffffffffffffffffffff1673ffffffffffffffffffffffffffffffffffffffff168152602001908152602001600020819055508173ffffffffffffffffffffffffffffffffffffffff168373ffffffffffffffffffffffffffffffffffffffff167f8c5be1e5ebec7d5bd14f71427d1e84f3dd0314c0f7b2291e5b200ac8c7c3b925836040516113f891906115f0565b60405180910390a36000600360006101000a81548160ff021916908315150217905550505050565b600081519050919050565b600082825260208201905092915050565b60005b8381101561145a57808201518184015260208101905061143f565b60008484015250505050565b6000601f19601f8301169050919050565b600061148282611420565b61148c818561142b565b935061149c81856020860161143c565b6114a581611466565b840191505092915050565b600060208201905081810360008301526114ca8184611477565b905092915050565b600080fd5b600073ffffffffffffffffffffffffffffffffffffffff82169050919050565b6000611502826114d7565b9050919050565b611512816114f7565b811461151d57600080fd5b50565b60008135905061152f81611509565b92915050565b6000819050919050565b61154881611535565b811461155357600080fd5b50565b6000813590506115658161153f565b92915050565b60008060408385031215611582576115816114d2565b5b600061159085828601611520565b92505060206115a185828601611556565b9150509250929050565b60008115159050919050565b6115c0816115ab565b82525050565b60006020820190506115db60008301846115b7565b92915050565b6115ea81611535565b82525050565b600060208201905061160560008301846115e1565b92915050565b600080600060608486031215611624576116236114d2565b5b600061163286828701611520565b935050602061164386828701611520565b925050604061165486828701611556565b9150509250925092565b600060208284031215611674576116736114d2565b5b600061168284828501611520565b91505092915050565b600080604083850312156116a2576116a16114d2565b5b60006116b085828601611520565b92505060206116c185828601611520565b9150509250929050565b7f4e487b7100000000000000000000000000000000000000000000000000000000600052602260045260246000fd5b6000600282049050600182168061171257607f821691505b602082108103611725576117246116cb565b5b50919050565b7f416e74692d5265656e7472616e6379204c6f636b000000000000000000000000600082015250565b600061176160148361142b565b915061176c8261172b565b602082019050919050565b6000602082019050818103600083015261179081611754565b9050919050565b7f496e73756666696369656e742062616c616e6365000000000000000000000000600082015250565b60006117cd60148361142b565b91506117d882611797565b602082019050919050565b600060208201905081810360008301526117fc816117c0565b9050919050565b7f5472616e7366657220616d6f756e74206578636565647320616c6c6f77616e6360008201527f6500000000000000000000000000000000000000000000000000000000000000602082015250565b600061185f60218361142b565b915061186a82611803565b604082019050919050565b6000602082019050818103600083015261188e81611852565b9050919050565b7f4e487b7100000000000000000000000000000000000000000000000000000000600052601160045260246000fd5b60006118cf82611535565b91506118da83611535565b92508282039050818111156118f2576118f1611895565b5b92915050565b600061190382611535565b915061190e83611535565b925082820190508082111561192657611925611895565b5b92915050565b7f4e487b7100000000000000000000000000000000000000000000000000000000600052603260045260246000fd5b600061196682611535565b915061197183611535565b925082820261197f81611535565b9150828204841483151761199657611995611895565b5b5092915050565b7f4e487b7100000000000000000000000000000000000000000000000000000000600052601260045260246000fd5b60006119d782611535565b91506119e283611535565b9250826119f2576119f161199d565b5b828204905092915050565b7f4e6f20746f6b656e7320746f2072656c65617365000000000000000000000000600082015250565b6000611a3360148361142b565b9150611a3e826119fd565b602082019050919050565b60006020820190508181036000830152611a6281611a26565b9050919050565b6000611a7482611535565b91507fffffffffffffffffffffffffffffffffffffffffffffffffffffffffffffffff8203611aa657611aa5611895565b5b600182019050919050565b7f44656372656173656420616c6c6f77616e63652062656c6f77207a65726f0000600082015250565b6000611ae7601e8361142b565b9150611af282611ab1565b602082019050919050565b60006020820190508181036000830152611b1681611ada565b9050919050565b7f417070726f76652066726f6d20746865207a65726f2061646472657373000000600082015250565b6000611b53601d8361142b565b9150611b5e82611b1d565b602082019050919050565b60006020820190508181036000830152611b8281611b46565b905091905056fea2646970667358221220fe786733f6314e0adb775919a727f38fb36e622802618d4d96e2bdcf41f5bafb64736f6c63430008120033",
					"opcodes": "PUSH1 0x80 PUSH1 0x40 MSTORE CALLVALUE DUP1 ISZERO PUSH3 0x11 JUMPI PUSH1 0x0 DUP1 REVERT JUMPDEST POP PUSH1 0x0 PUSH1 0x4 DUP1 ADD DUP2 SWAP1 SSTORE POP PUSH1 0x0 PUSH1 0x4 PUSH1 0x5 ADD DUP2 SWAP1 SSTORE POP PUSH1 0x0 PUSH1 0x4 PUSH1 0x6 ADD DUP2 SWAP1 SSTORE POP PUSH1 0x1 PUSH1 0x3 PUSH1 0x1 PUSH2 0x100 EXP DUP2 SLOAD DUP2 PUSH1 0xFF MUL NOT AND SWAP1 DUP4 ISZERO ISZERO MUL OR SWAP1 SSTORE POP PUSH1 0x1 PUSH1 0x3 PUSH1 0x2 PUSH2 0x100 EXP DUP2 SLOAD DUP2 PUSH1 0xFF MUL NOT AND SWAP1 DUP4 ISZERO ISZERO MUL OR SWAP1 SSTORE POP PUSH4 0xBEBC200 PUSH1 0x4 PUSH1 0x3 ADD DUP2 SWAP1 SSTORE POP PUSH3 0xA5 PUSH20 0x5B38DA6A701C568545DCFCB03FCB875F56BEDDC4 PUSH4 0xBEBC200 PUSH4 0xE6B6800 PUSH3 0xAC PUSH1 0x20 SHL PUSH1 0x20 SHR JUMP JUMPDEST POP PUSH3 0x720 JUMP JUMPDEST PUSH1 0x0 PUSH1 0x3 PUSH1 0x0 SWAP1 SLOAD SWAP1 PUSH2 0x100 EXP SWAP1 DIV PUSH1 0xFF AND ISZERO PUSH3 0x101 JUMPI PUSH1 0x40 MLOAD PUSH32 0x8C379A000000000000000000000000000000000000000000000000000000000 DUP2 MSTORE PUSH1 0x4 ADD PUSH3 0xF8 SWAP1 PUSH3 0x46E JUMP JUMPDEST PUSH1 0x40 MLOAD DUP1 SWAP2 SUB SWAP1 REVERT JUMPDEST PUSH1 0x1 PUSH1 0x3 PUSH1 0x0 PUSH2 0x100 EXP DUP2 SLOAD DUP2 PUSH1 0xFF MUL NOT AND SWAP1 DUP4 ISZERO ISZERO MUL OR SWAP1 SSTORE POP PUSH1 0x0 DUP4 GT PUSH3 0x162 JUMPI PUSH1 0x40 MLOAD PUSH32 0x8C379A000000000000000000000000000000000000000000000000000000000 DUP2 MSTORE PUSH1 0x4 ADD PUSH3 0x159 SWAP1 PUSH3 0x506 JUMP JUMPDEST PUSH1 0x40 MLOAD DUP1 SWAP2 SUB SWAP1 REVERT JUMPDEST PUSH1 0x1 ISZERO ISZERO PUSH1 0x3 PUSH1 0x1 SWAP1 SLOAD SWAP1 PUSH2 0x100 EXP SWAP1 DIV PUSH1 0xFF AND ISZERO ISZERO EQ PUSH3 0x1BB JUMPI PUSH1 0x40 MLOAD PUSH32 0x8C379A000000000000000000000000000000000000000000000000000000000 DUP2 MSTORE PUSH1 0x4 ADD PUSH3 0x1B2 SWAP1 PUSH3 0x578 JUMP JUMPDEST PUSH1 0x40 MLOAD DUP1 SWAP2 SUB SWAP1 REVERT JUMPDEST PUSH1 0x4 PUSH1 0x3 ADD SLOAD DUP4 PUSH1 0x4 DUP1 ADD SLOAD PUSH3 0x1D3 SWAP2 SWAP1 PUSH3 0x5D3 JUMP JUMPDEST GT ISZERO PUSH3 0x217 JUMPI PUSH1 0x40 MLOAD PUSH32 0x8C379A000000000000000000000000000000000000000000000000000000000 DUP2 MSTORE PUSH1 0x4 ADD PUSH3 0x20E SWAP1 PUSH3 0x65E JUMP JUMPDEST PUSH1 0x40 MLOAD DUP1 SWAP2 SUB SWAP1 REVERT JUMPDEST PUSH1 0x0 PUSH20 0xFFFFFFFFFFFFFFFFFFFFFFFFFFFFFFFFFFFFFFFF AND DUP5 PUSH20 0xFFFFFFFFFFFFFFFFFFFFFFFFFFFFFFFFFFFFFFFF AND SUB PUSH3 0x289 JUMPI PUSH1 0x40 MLOAD PUSH32 0x8C379A000000000000000000000000000000000000000000000000000000000 DUP2 MSTORE PUSH1 0x4 ADD PUSH3 0x280 SWAP1 PUSH3 0x6D0 JUMP JUMPDEST PUSH1 0x40 MLOAD DUP1 SWAP2 SUB SWAP1 REVERT JUMPDEST PUSH1 0x0 TIMESTAMP SWAP1 POP PUSH1 0x0 DUP4 DUP3 PUSH3 0x29E SWAP2 SWAP1 PUSH3 0x5D3 JUMP JUMPDEST SWAP1 POP PUSH1 0x0 PUSH1 0x40 MLOAD DUP1 PUSH1 0x80 ADD PUSH1 0x40 MSTORE DUP1 DUP8 DUP2 MSTORE PUSH1 0x20 ADD DUP5 DUP2 MSTORE PUSH1 0x20 ADD DUP4 DUP2 MSTORE PUSH1 0x20 ADD PUSH1 0x0 DUP2 MSTORE POP SWAP1 POP PUSH1 0x11 PUSH1 0x0 DUP9 PUSH20 0xFFFFFFFFFFFFFFFFFFFFFFFFFFFFFFFFFFFFFFFF AND PUSH20 0xFFFFFFFFFFFFFFFFFFFFFFFFFFFFFFFFFFFFFFFF AND DUP2 MSTORE PUSH1 0x20 ADD SWAP1 DUP2 MSTORE PUSH1 0x20 ADD PUSH1 0x0 KECCAK256 DUP2 SWAP1 DUP1 PUSH1 0x1 DUP2 SLOAD ADD DUP1 DUP3 SSTORE DUP1 SWAP2 POP POP PUSH1 0x1 SWAP1 SUB SWAP1 PUSH1 0x0 MSTORE PUSH1 0x20 PUSH1 0x0 KECCAK256 SWAP1 PUSH1 0x4 MUL ADD PUSH1 0x0 SWAP1 SWAP2 SWAP1 SWAP2 SWAP1 SWAP2 POP PUSH1 0x0 DUP3 ADD MLOAD DUP2 PUSH1 0x0 ADD SSTORE PUSH1 0x20 DUP3 ADD MLOAD DUP2 PUSH1 0x1 ADD SSTORE PUSH1 0x40 DUP3 ADD MLOAD DUP2 PUSH1 0x2 ADD SSTORE PUSH1 0x60 DUP3 ADD MLOAD DUP2 PUSH1 0x3 ADD SSTORE POP POP DUP6 PUSH1 0x4 DUP1 ADD PUSH1 0x0 DUP3 DUP3 SLOAD PUSH3 0x36F SWAP2 SWAP1 PUSH3 0x5D3 JUMP JUMPDEST SWAP3 POP POP DUP2 SWAP1 SSTORE POP DUP6 PUSH1 0x4 PUSH1 0x5 ADD PUSH1 0x0 DUP3 DUP3 SLOAD PUSH3 0x38D SWAP2 SWAP1 PUSH3 0x5D3 JUMP JUMPDEST SWAP3 POP POP DUP2 SWAP1 SSTORE POP DUP7 PUSH20 0xFFFFFFFFFFFFFFFFFFFFFFFFFFFFFFFFFFFFFFFF AND PUSH32 0xF6798A560793A54C3BCFE86A93CDE1E73087D944C0EA20544137D4121396885 DUP8 PUSH1 0x40 MLOAD PUSH3 0x3DC SWAP2 SWAP1 PUSH3 0x703 JUMP JUMPDEST PUSH1 0x40 MLOAD DUP1 SWAP2 SUB SWAP1 LOG2 PUSH1 0x1 SWAP4 POP POP POP POP PUSH1 0x0 PUSH1 0x3 PUSH1 0x0 PUSH2 0x100 EXP DUP2 SLOAD DUP2 PUSH1 0xFF MUL NOT AND SWAP1 DUP4 ISZERO ISZERO MUL OR SWAP1 SSTORE POP SWAP4 SWAP3 POP POP POP JUMP JUMPDEST PUSH1 0x0 DUP3 DUP3 MSTORE PUSH1 0x20 DUP3 ADD SWAP1 POP SWAP3 SWAP2 POP POP JUMP JUMPDEST PUSH32 0x416E74692D5265656E7472616E6379204C6F636B000000000000000000000000 PUSH1 0x0 DUP3 ADD MSTORE POP JUMP JUMPDEST PUSH1 0x0 PUSH3 0x456 PUSH1 0x14 DUP4 PUSH3 0x40D JUMP JUMPDEST SWAP2 POP PUSH3 0x463 DUP3 PUSH3 0x41E JUMP JUMPDEST PUSH1 0x20 DUP3 ADD SWAP1 POP SWAP2 SWAP1 POP JUMP JUMPDEST PUSH1 0x0 PUSH1 0x20 DUP3 ADD SWAP1 POP DUP2 DUP2 SUB PUSH1 0x0 DUP4 ADD MSTORE PUSH3 0x489 DUP2 PUSH3 0x447 JUMP JUMPDEST SWAP1 POP SWAP2 SWAP1 POP JUMP JUMPDEST PUSH32 0x5A65726F20616E64206E656761746976652076616C756573206E6F7420737570 PUSH1 0x0 DUP3 ADD MSTORE PUSH32 0x706F727465640000000000000000000000000000000000000000000000000000 PUSH1 0x20 DUP3 ADD MSTORE POP JUMP JUMPDEST PUSH1 0x0 PUSH3 0x4EE PUSH1 0x26 DUP4 PUSH3 0x40D JUMP JUMPDEST SWAP2 POP PUSH3 0x4FB DUP3 PUSH3 0x490 JUMP JUMPDEST PUSH1 0x40 DUP3 ADD SWAP1 POP SWAP2 SWAP1 POP JUMP JUMPDEST PUSH1 0x0 PUSH1 0x20 DUP3 ADD SWAP1 POP DUP2 DUP2 SUB PUSH1 0x0 DUP4 ADD MSTORE PUSH3 0x521 DUP2 PUSH3 0x4DF JUMP JUMPDEST SWAP1 POP SWAP2 SWAP1 POP JUMP JUMPDEST PUSH32 0x4D696E74696E672064697361626C656400000000000000000000000000000000 PUSH1 0x0 DUP3 ADD MSTORE POP JUMP JUMPDEST PUSH1 0x0 PUSH3 0x560 PUSH1 0x10 DUP4 PUSH3 0x40D JUMP JUMPDEST SWAP2 POP PUSH3 0x56D DUP3 PUSH3 0x528 JUMP JUMPDEST PUSH1 0x20 DUP3 ADD SWAP1 POP SWAP2 SWAP1 POP JUMP JUMPDEST PUSH1 0x0 PUSH1 0x20 DUP3 ADD SWAP1 POP DUP2 DUP2 SUB PUSH1 0x0 DUP4 ADD MSTORE PUSH3 0x593 DUP2 PUSH3 0x551 JUMP JUMPDEST SWAP1 POP SWAP2 SWAP1 POP JUMP JUMPDEST PUSH1 0x0 DUP2 SWAP1 POP SWAP2 SWAP1 POP JUMP JUMPDEST PUSH32 0x4E487B7100000000000000000000000000000000000000000000000000000000 PUSH1 0x0 MSTORE PUSH1 0x11 PUSH1 0x4 MSTORE PUSH1 0x24 PUSH1 0x0 REVERT JUMPDEST PUSH1 0x0 PUSH3 0x5E0 DUP3 PUSH3 0x59A JUMP JUMPDEST SWAP2 POP PUSH3 0x5ED DUP4 PUSH3 0x59A JUMP JUMPDEST SWAP3 POP DUP3 DUP3 ADD SWAP1 POP DUP1 DUP3 GT ISZERO PUSH3 0x608 JUMPI PUSH3 0x607 PUSH3 0x5A4 JUMP JUMPDEST JUMPDEST SWAP3 SWAP2 POP POP JUMP JUMPDEST PUSH32 0x4E6F206D6F726520746F6B656E732063616E206265206D696E74656400000000 PUSH1 0x0 DUP3 ADD MSTORE POP JUMP JUMPDEST PUSH1 0x0 PUSH3 0x646 PUSH1 0x1C DUP4 PUSH3 0x40D JUMP JUMPDEST SWAP2 POP PUSH3 0x653 DUP3 PUSH3 0x60E JUMP JUMPDEST PUSH1 0x20 DUP3 ADD SWAP1 POP SWAP2 SWAP1 POP JUMP JUMPDEST PUSH1 0x0 PUSH1 0x20 DUP3 ADD SWAP1 POP DUP2 DUP2 SUB PUSH1 0x0 DUP4 ADD MSTORE PUSH3 0x679 DUP2 PUSH3 0x637 JUMP JUMPDEST SWAP1 POP SWAP2 SWAP1 POP JUMP JUMPDEST PUSH32 0x41646472657373206E6F7420737570706F727465640000000000000000000000 PUSH1 0x0 DUP3 ADD MSTORE POP JUMP JUMPDEST PUSH1 0x0 PUSH3 0x6B8 PUSH1 0x15 DUP4 PUSH3 0x40D JUMP JUMPDEST SWAP2 POP PUSH3 0x6C5 DUP3 PUSH3 0x680 JUMP JUMPDEST PUSH1 0x20 DUP3 ADD SWAP1 POP SWAP2 SWAP1 POP JUMP JUMPDEST PUSH1 0x0 PUSH1 0x20 DUP3 ADD SWAP1 POP DUP2 DUP2 SUB PUSH1 0x0 DUP4 ADD MSTORE PUSH3 0x6EB DUP2 PUSH3 0x6A9 JUMP JUMPDEST SWAP1 POP SWAP2 SWAP1 POP JUMP JUMPDEST PUSH3 0x6FD DUP2 PUSH3 0x59A JUMP JUMPDEST DUP3 MSTORE POP POP JUMP JUMPDEST PUSH1 0x0 PUSH1 0x20 DUP3 ADD SWAP1 POP PUSH3 0x71A PUSH1 0x0 DUP4 ADD DUP5 PUSH3 0x6F2 JUMP JUMPDEST SWAP3 SWAP2 POP POP JUMP JUMPDEST PUSH2 0x1BBF DUP1 PUSH3 0x730 PUSH1 0x0 CODECOPY PUSH1 0x0 RETURN INVALID PUSH1 0x80 PUSH1 0x40 MSTORE CALLVALUE DUP1 ISZERO PUSH2 0x10 JUMPI PUSH1 0x0 DUP1 REVERT JUMPDEST POP PUSH1 0x4 CALLDATASIZE LT PUSH2 0x10B JUMPI PUSH1 0x0 CALLDATALOAD PUSH1 0xE0 SHR DUP1 PUSH4 0x7657135C GT PUSH2 0xA2 JUMPI DUP1 PUSH4 0x95D89B41 GT PUSH2 0x71 JUMPI DUP1 PUSH4 0x95D89B41 EQ PUSH2 0x2E4 JUMPI DUP1 PUSH4 0xA457C2D7 EQ PUSH2 0x302 JUMPI DUP1 PUSH4 0xA9059CBB EQ PUSH2 0x332 JUMPI DUP1 PUSH4 0xDD62ED3E EQ PUSH2 0x362 JUMPI DUP1 PUSH4 0xFEB73F8B EQ PUSH2 0x392 JUMPI PUSH2 0x10B JUMP JUMPDEST DUP1 PUSH4 0x7657135C EQ PUSH2 0x248 JUMPI DUP1 PUSH4 0x7FB8B61E EQ PUSH2 0x278 JUMPI DUP1 PUSH4 0x817B1CD2 EQ PUSH2 0x2A8 JUMPI DUP1 PUSH4 0x86D1A69F EQ PUSH2 0x2C6 JUMPI PUSH2 0x10B JUMP JUMPDEST DUP1 PUSH4 0x23B872DD GT PUSH2 0xDE JUMPI DUP1 PUSH4 0x23B872DD EQ PUSH2 0x19A JUMPI DUP1 PUSH4 0x313CE567 EQ PUSH2 0x1CA JUMPI DUP1 PUSH4 0x39509351 EQ PUSH2 0x1E8 JUMPI DUP1 PUSH4 0x70A08231 EQ PUSH2 0x218 JUMPI PUSH2 0x10B JUMP JUMPDEST DUP1 PUSH4 0x6FDDE03 EQ PUSH2 0x110 JUMPI DUP1 PUSH4 0x95EA7B3 EQ PUSH2 0x12E JUMPI DUP1 PUSH4 0x18160DDD EQ PUSH2 0x15E JUMPI DUP1 PUSH4 0x199CBC54 EQ PUSH2 0x17C JUMPI JUMPDEST PUSH1 0x0 DUP1 REVERT JUMPDEST PUSH2 0x118 PUSH2 0x3C2 JUMP JUMPDEST PUSH1 0x40 MLOAD PUSH2 0x125 SWAP2 SWAP1 PUSH2 0x14B0 JUMP JUMPDEST PUSH1 0x40 MLOAD DUP1 SWAP2 SUB SWAP1 RETURN JUMPDEST PUSH2 0x148 PUSH1 0x4 DUP1 CALLDATASIZE SUB DUP2 ADD SWAP1 PUSH2 0x143 SWAP2 SWAP1 PUSH2 0x156B JUMP JUMPDEST PUSH2 0x457 JUMP JUMPDEST PUSH1 0x40 MLOAD PUSH2 0x155 SWAP2 SWAP1 PUSH2 0x15C6 JUMP JUMPDEST PUSH1 0x40 MLOAD DUP1 SWAP2 SUB SWAP1 RETURN JUMPDEST PUSH2 0x166 PUSH2 0x4FA JUMP JUMPDEST PUSH1 0x40 MLOAD PUSH2 0x173 SWAP2 SWAP1 PUSH2 0x15F0 JUMP JUMPDEST PUSH1 0x40 MLOAD DUP1 SWAP2 SUB SWAP1 RETURN JUMPDEST PUSH2 0x184 PUSH2 0x506 JUMP JUMPDEST PUSH1 0x40 MLOAD PUSH2 0x191 SWAP2 SWAP1 PUSH2 0x15F0 JUMP JUMPDEST PUSH1 0x40 MLOAD DUP1 SWAP2 SUB SWAP1 RETURN JUMPDEST PUSH2 0x1B4 PUSH1 0x4 DUP1 CALLDATASIZE SUB DUP2 ADD SWAP1 PUSH2 0x1AF SWAP2 SWAP1 PUSH2 0x160B JUMP JUMPDEST PUSH2 0x513 JUMP JUMPDEST PUSH1 0x40 MLOAD PUSH2 0x1C1 SWAP2 SWAP1 PUSH2 0x15C6 JUMP JUMPDEST PUSH1 0x40 MLOAD DUP1 SWAP2 SUB SWAP1 RETURN JUMPDEST PUSH2 0x1D2 PUSH2 0x89A JUMP JUMPDEST PUSH1 0x40 MLOAD PUSH2 0x1DF SWAP2 SWAP1 PUSH2 0x15F0 JUMP JUMPDEST PUSH1 0x40 MLOAD DUP1 SWAP2 SUB SWAP1 RETURN JUMPDEST PUSH2 0x202 PUSH1 0x4 DUP1 CALLDATASIZE SUB DUP2 ADD SWAP1 PUSH2 0x1FD SWAP2 SWAP1 PUSH2 0x156B JUMP JUMPDEST PUSH2 0x8A7 JUMP JUMPDEST PUSH1 0x40 MLOAD PUSH2 0x20F SWAP2 SWAP1 PUSH2 0x15C6 JUMP JUMPDEST PUSH1 0x40 MLOAD DUP1 SWAP2 SUB SWAP1 RETURN JUMPDEST PUSH2 0x232 PUSH1 0x4 DUP1 CALLDATASIZE SUB DUP2 ADD SWAP1 PUSH2 0x22D SWAP2 SWAP1 PUSH2 0x165E JUMP JUMPDEST PUSH2 0x95E JUMP JUMPDEST PUSH1 0x40 MLOAD PUSH2 0x23F SWAP2 SWAP1 PUSH2 0x15F0 JUMP JUMPDEST PUSH1 0x40 MLOAD DUP1 SWAP2 SUB SWAP1 RETURN JUMPDEST PUSH2 0x262 PUSH1 0x4 DUP1 CALLDATASIZE SUB DUP2 ADD SWAP1 PUSH2 0x25D SWAP2 SWAP1 PUSH2 0x165E JUMP JUMPDEST PUSH2 0x9AA JUMP JUMPDEST PUSH1 0x40 MLOAD PUSH2 0x26F SWAP2 SWAP1 PUSH2 0x15F0 JUMP JUMPDEST PUSH1 0x40 MLOAD DUP1 SWAP2 SUB SWAP1 RETURN JUMPDEST PUSH2 0x292 PUSH1 0x4 DUP1 CALLDATASIZE SUB DUP2 ADD SWAP1 PUSH2 0x28D SWAP2 SWAP1 PUSH2 0x165E JUMP JUMPDEST PUSH2 0x9F6 JUMP JUMPDEST PUSH1 0x40 MLOAD PUSH2 0x29F SWAP2 SWAP1 PUSH2 0x15F0 JUMP JUMPDEST PUSH1 0x40 MLOAD DUP1 SWAP2 SUB SWAP1 RETURN JUMPDEST PUSH2 0x2B0 PUSH2 0xA42 JUMP JUMPDEST PUSH1 0x40 MLOAD PUSH2 0x2BD SWAP2 SWAP1 PUSH2 0x15F0 JUMP JUMPDEST PUSH1 0x40 MLOAD DUP1 SWAP2 SUB SWAP1 RETURN JUMPDEST PUSH2 0x2CE PUSH2 0xA4F JUMP JUMPDEST PUSH1 0x40 MLOAD PUSH2 0x2DB SWAP2 SWAP1 PUSH2 0x15C6 JUMP JUMPDEST PUSH1 0x40 MLOAD DUP1 SWAP2 SUB SWAP1 RETURN JUMPDEST PUSH2 0x2EC PUSH2 0xD3E JUMP JUMPDEST PUSH1 0x40 MLOAD PUSH2 0x2F9 SWAP2 SWAP1 PUSH2 0x14B0 JUMP JUMPDEST PUSH1 0x40 MLOAD DUP1 SWAP2 SUB SWAP1 RETURN JUMPDEST PUSH2 0x31C PUSH1 0x4 DUP1 CALLDATASIZE SUB DUP2 ADD SWAP1 PUSH2 0x317 SWAP2 SWAP1 PUSH2 0x156B JUMP JUMPDEST PUSH2 0xDD3 JUMP JUMPDEST PUSH1 0x40 MLOAD PUSH2 0x329 SWAP2 SWAP1 PUSH2 0x15C6 JUMP JUMPDEST PUSH1 0x40 MLOAD DUP1 SWAP2 SUB SWAP1 RETURN JUMPDEST PUSH2 0x34C PUSH1 0x4 DUP1 CALLDATASIZE SUB DUP2 ADD SWAP1 PUSH2 0x347 SWAP2 SWAP1 PUSH2 0x156B JUMP JUMPDEST PUSH2 0xECA JUMP JUMPDEST PUSH1 0x40 MLOAD PUSH2 0x359 SWAP2 SWAP1 PUSH2 0x15C6 JUMP JUMPDEST PUSH1 0x40 MLOAD DUP1 SWAP2 SUB SWAP1 RETURN JUMPDEST PUSH2 0x37C PUSH1 0x4 DUP1 CALLDATASIZE SUB DUP2 ADD SWAP1 PUSH2 0x377 SWAP2 SWAP1 PUSH2 0x168B JUMP JUMPDEST PUSH2 0x10F8 JUMP JUMPDEST PUSH1 0x40 MLOAD PUSH2 0x389 SWAP2 SWAP1 PUSH2 0x15F0 JUMP JUMPDEST PUSH1 0x40 MLOAD DUP1 SWAP2 SUB SWAP1 RETURN JUMPDEST PUSH2 0x3AC PUSH1 0x4 DUP1 CALLDATASIZE SUB DUP2 ADD SWAP1 PUSH2 0x3A7 SWAP2 SWAP1 PUSH2 0x165E JUMP JUMPDEST PUSH2 0x1182 JUMP JUMPDEST PUSH1 0x40 MLOAD PUSH2 0x3B9 SWAP2 SWAP1 PUSH2 0x15F0 JUMP JUMPDEST PUSH1 0x40 MLOAD DUP1 SWAP2 SUB SWAP1 RETURN JUMPDEST PUSH1 0x60 PUSH1 0x4 PUSH1 0x0 ADD DUP1 SLOAD PUSH2 0x3D4 SWAP1 PUSH2 0x16FA JUMP JUMPDEST DUP1 PUSH1 0x1F ADD PUSH1 0x20 DUP1 SWAP2 DIV MUL PUSH1 0x20 ADD PUSH1 0x40 MLOAD SWAP1 DUP2 ADD PUSH1 0x40 MSTORE DUP1 SWAP3 SWAP2 SWAP1 DUP2 DUP2 MSTORE PUSH1 0x20 ADD DUP3 DUP1 SLOAD PUSH2 0x400 SWAP1 PUSH2 0x16FA JUMP JUMPDEST DUP1 ISZERO PUSH2 0x44D JUMPI DUP1 PUSH1 0x1F LT PUSH2 0x422 JUMPI PUSH2 0x100 DUP1 DUP4 SLOAD DIV MUL DUP4 MSTORE SWAP2 PUSH1 0x20 ADD SWAP2 PUSH2 0x44D JUMP JUMPDEST DUP3 ADD SWAP2 SWAP1 PUSH1 0x0 MSTORE PUSH1 0x20 PUSH1 0x0 KECCAK256 SWAP1 JUMPDEST DUP2 SLOAD DUP2 MSTORE SWAP1 PUSH1 0x1 ADD SWAP1 PUSH1 0x20 ADD DUP1 DUP4 GT PUSH2 0x430 JUMPI DUP3 SWAP1 SUB PUSH1 0x1F AND DUP3 ADD SWAP2 JUMPDEST POP POP POP POP POP SWAP1 POP SWAP1 JUMP JUMPDEST PUSH1 0x0 PUSH1 0x3 PUSH1 0x0 SWAP1 SLOAD SWAP1 PUSH2 0x100 EXP SWAP1 DIV PUSH1 0xFF AND ISZERO PUSH2 0x4A9 JUMPI PUSH1 0x40 MLOAD PUSH32 0x8C379A000000000000000000000000000000000000000000000000000000000 DUP2 MSTORE PUSH1 0x4 ADD PUSH2 0x4A0 SWAP1 PUSH2 0x1777 JUMP JUMPDEST PUSH1 0x40 MLOAD DUP1 SWAP2 SUB SWAP1 REVERT JUMPDEST PUSH1 0x1 PUSH1 0x3 PUSH1 0x0 PUSH2 0x100 EXP DUP2 SLOAD DUP2 PUSH1 0xFF MUL NOT AND SWAP1 DUP4 ISZERO ISZERO MUL OR SWAP1 SSTORE POP PUSH1 0x0 CALLER SWAP1 POP PUSH2 0x4D4 DUP2 DUP6 DUP6 PUSH2 0x11CE JUMP JUMPDEST PUSH1 0x1 SWAP2 POP POP PUSH1 0x0 PUSH1 0x3 PUSH1 0x0 PUSH2 0x100 EXP DUP2 SLOAD DUP2 PUSH1 0xFF MUL NOT AND SWAP1 DUP4 ISZERO ISZERO MUL OR SWAP1 SSTORE POP SWAP3 SWAP2 POP POP JUMP JUMPDEST PUSH1 0x0 PUSH1 0x4 DUP1 ADD SLOAD SWAP1 POP SWAP1 JUMP JUMPDEST PUSH1 0x0 PUSH1 0x4 PUSH1 0x5 ADD SLOAD SWAP1 POP SWAP1 JUMP JUMPDEST PUSH1 0x0 PUSH1 0x3 PUSH1 0x0 SWAP1 SLOAD SWAP1 PUSH2 0x100 EXP SWAP1 DIV PUSH1 0xFF AND ISZERO PUSH2 0x565 JUMPI PUSH1 0x40 MLOAD PUSH32 0x8C379A000000000000000000000000000000000000000000000000000000000 DUP2 MSTORE PUSH1 0x4 ADD PUSH2 0x55C SWAP1 PUSH2 0x1777 JUMP JUMPDEST PUSH1 0x40 MLOAD DUP1 SWAP2 SUB SWAP1 REVERT JUMPDEST PUSH1 0x1 PUSH1 0x3 PUSH1 0x0 PUSH2 0x100 EXP DUP2 SLOAD DUP2 PUSH1 0xFF MUL NOT AND SWAP1 DUP4 ISZERO ISZERO MUL OR SWAP1 SSTORE POP DUP2 PUSH1 0xB PUSH1 0x0 ADD PUSH1 0x0 DUP7 PUSH20 0xFFFFFFFFFFFFFFFFFFFFFFFFFFFFFFFFFFFFFFFF AND PUSH20 0xFFFFFFFFFFFFFFFFFFFFFFFFFFFFFFFFFFFFFFFF AND DUP2 MSTORE PUSH1 0x20 ADD SWAP1 DUP2 MSTORE PUSH1 0x20 ADD PUSH1 0x0 KECCAK256 SLOAD LT ISZERO PUSH2 0x605 JUMPI PUSH1 0x40 MLOAD PUSH32 0x8C379A000000000000000000000000000000000000000000000000000000000 DUP2 MSTORE PUSH1 0x4 ADD PUSH2 0x5FC SWAP1 PUSH2 0x17E3 JUMP JUMPDEST PUSH1 0x40 MLOAD DUP1 SWAP2 SUB SWAP1 REVERT JUMPDEST DUP2 PUSH1 0xB PUSH1 0x4 ADD PUSH1 0x0 DUP7 PUSH20 0xFFFFFFFFFFFFFFFFFFFFFFFFFFFFFFFFFFFFFFFF AND PUSH20 0xFFFFFFFFFFFFFFFFFFFFFFFFFFFFFFFFFFFFFFFF AND DUP2 MSTORE PUSH1 0x20 ADD SWAP1 DUP2 MSTORE PUSH1 0x20 ADD PUSH1 0x0 KECCAK256 PUSH1 0x0 CALLER PUSH20 0xFFFFFFFFFFFFFFFFFFFFFFFFFFFFFFFFFFFFFFFF AND PUSH20 0xFFFFFFFFFFFFFFFFFFFFFFFFFFFFFFFFFFFFFFFF AND DUP2 MSTORE PUSH1 0x20 ADD SWAP1 DUP2 MSTORE PUSH1 0x20 ADD PUSH1 0x0 KECCAK256 SLOAD LT ISZERO PUSH2 0x6C7 JUMPI PUSH1 0x40 MLOAD PUSH32 0x8C379A000000000000000000000000000000000000000000000000000000000 DUP2 MSTORE PUSH1 0x4 ADD PUSH2 0x6BE SWAP1 PUSH2 0x1875 JUMP JUMPDEST PUSH1 0x40 MLOAD DUP1 SWAP2 SUB SWAP1 REVERT JUMPDEST DUP2 PUSH1 0xB PUSH1 0x0 ADD PUSH1 0x0 DUP7 PUSH20 0xFFFFFFFFFFFFFFFFFFFFFFFFFFFFFFFFFFFFFFFF AND PUSH20 0xFFFFFFFFFFFFFFFFFFFFFFFFFFFFFFFFFFFFFFFF AND DUP2 MSTORE PUSH1 0x20 ADD SWAP1 DUP2 MSTORE PUSH1 0x20 ADD PUSH1 0x0 KECCAK256 PUSH1 0x0 DUP3 DUP3 SLOAD PUSH2 0x719 SWAP2 SWAP1 PUSH2 0x18C4 JUMP JUMPDEST SWAP3 POP POP DUP2 SWAP1 SSTORE POP DUP2 PUSH1 0xB PUSH1 0x0 ADD PUSH1 0x0 DUP6 PUSH20 0xFFFFFFFFFFFFFFFFFFFFFFFFFFFFFFFFFFFFFFFF AND PUSH20 0xFFFFFFFFFFFFFFFFFFFFFFFFFFFFFFFFFFFFFFFF AND DUP2 MSTORE PUSH1 0x20 ADD SWAP1 DUP2 MSTORE PUSH1 0x20 ADD PUSH1 0x0 KECCAK256 PUSH1 0x0 DUP3 DUP3 SLOAD PUSH2 0x772 SWAP2 SWAP1 PUSH2 0x18F8 JUMP JUMPDEST SWAP3 POP POP DUP2 SWAP1 SSTORE POP DUP2 PUSH1 0xB PUSH1 0x4 ADD PUSH1 0x0 DUP7 PUSH20 0xFFFFFFFFFFFFFFFFFFFFFFFFFFFFFFFFFFFFFFFF AND PUSH20 0xFFFFFFFFFFFFFFFFFFFFFFFFFFFFFFFFFFFFFFFF AND DUP2 MSTORE PUSH1 0x20 ADD SWAP1 DUP2 MSTORE PUSH1 0x20 ADD PUSH1 0x0 KECCAK256 PUSH1 0x0 CALLER PUSH20 0xFFFFFFFFFFFFFFFFFFFFFFFFFFFFFFFFFFFFFFFF AND PUSH20 0xFFFFFFFFFFFFFFFFFFFFFFFFFFFFFFFFFFFFFFFF AND DUP2 MSTORE PUSH1 0x20 ADD SWAP1 DUP2 MSTORE PUSH1 0x20 ADD PUSH1 0x0 KECCAK256 PUSH1 0x0 DUP3 DUP3 SLOAD PUSH2 0x808 SWAP2 SWAP1 PUSH2 0x18C4 JUMP JUMPDEST SWAP3 POP POP DUP2 SWAP1 SSTORE POP DUP3 PUSH20 0xFFFFFFFFFFFFFFFFFFFFFFFFFFFFFFFFFFFFFFFF AND DUP5 PUSH20 0xFFFFFFFFFFFFFFFFFFFFFFFFFFFFFFFFFFFFFFFF AND PUSH32 0xDDF252AD1BE2C89B69C2B068FC378DAA952BA7F163C4A11628F55A4DF523B3EF DUP5 PUSH1 0x40 MLOAD PUSH2 0x86C SWAP2 SWAP1 PUSH2 0x15F0 JUMP JUMPDEST PUSH1 0x40 MLOAD DUP1 SWAP2 SUB SWAP1 LOG3 PUSH1 0x1 SWAP1 POP PUSH1 0x0 PUSH1 0x3 PUSH1 0x0 PUSH2 0x100 EXP DUP2 SLOAD DUP2 PUSH1 0xFF MUL NOT AND SWAP1 DUP4 ISZERO ISZERO MUL OR SWAP1 SSTORE POP SWAP4 SWAP3 POP POP POP JUMP JUMPDEST PUSH1 0x0 PUSH1 0x4 PUSH1 0x2 ADD SLOAD SWAP1 POP SWAP1 JUMP JUMPDEST PUSH1 0x0 PUSH1 0x3 PUSH1 0x0 SWAP1 SLOAD SWAP1 PUSH2 0x100 EXP SWAP1 DIV PUSH1 0xFF AND ISZERO PUSH2 0x8F9 JUMPI PUSH1 0x40 MLOAD PUSH32 0x8C379A000000000000000000000000000000000000000000000000000000000 DUP2 MSTORE PUSH1 0x4 ADD PUSH2 0x8F0 SWAP1 PUSH2 0x1777 JUMP JUMPDEST PUSH1 0x40 MLOAD DUP1 SWAP2 SUB SWAP1 REVERT JUMPDEST PUSH1 0x1 PUSH1 0x3 PUSH1 0x0 PUSH2 0x100 EXP DUP2 SLOAD DUP2 PUSH1 0xFF MUL NOT AND SWAP1 DUP4 ISZERO ISZERO MUL OR SWAP1 SSTORE POP PUSH1 0x0 CALLER SWAP1 POP PUSH2 0x938 DUP2 DUP6 DUP6 PUSH2 0x929 DUP6 DUP10 PUSH2 0x10F8 JUMP JUMPDEST PUSH2 0x933 SWAP2 SWAP1 PUSH2 0x18F8 JUMP JUMPDEST PUSH2 0x11CE JUMP JUMPDEST PUSH1 0x1 SWAP2 POP POP PUSH1 0x0 PUSH1 0x3 PUSH1 0x0 PUSH2 0x100 EXP DUP2 SLOAD DUP2 PUSH1 0xFF MUL NOT AND SWAP1 DUP4 ISZERO ISZERO MUL OR SWAP1 SSTORE POP SWAP3 SWAP2 POP POP JUMP JUMPDEST PUSH1 0x0 PUSH1 0xB PUSH1 0x0 ADD PUSH1 0x0 DUP4 PUSH20 0xFFFFFFFFFFFFFFFFFFFFFFFFFFFFFFFFFFFFFFFF AND PUSH20 0xFFFFFFFFFFFFFFFFFFFFFFFFFFFFFFFFFFFFFFFF AND DUP2 MSTORE PUSH1 0x20 ADD SWAP1 DUP2 MSTORE PUSH1 0x20 ADD PUSH1 0x0 KECCAK256 SLOAD SWAP1 POP SWAP2 SWAP1 POP JUMP JUMPDEST PUSH1 0x0 PUSH1 0xB PUSH1 0x1 ADD PUSH1 0x0 DUP4 PUSH20 0xFFFFFFFFFFFFFFFFFFFFFFFFFFFFFFFFFFFFFFFF AND PUSH20 0xFFFFFFFFFFFFFFFFFFFFFFFFFFFFFFFFFFFFFFFF AND DUP2 MSTORE PUSH1 0x20 ADD SWAP1 DUP2 MSTORE PUSH1 0x20 ADD PUSH1 0x0 KECCAK256 SLOAD SWAP1 POP SWAP2 SWAP1 POP JUMP JUMPDEST PUSH1 0x0 PUSH1 0xB PUSH1 0x3 ADD PUSH1 0x0 DUP4 PUSH20 0xFFFFFFFFFFFFFFFFFFFFFFFFFFFFFFFFFFFFFFFF AND PUSH20 0xFFFFFFFFFFFFFFFFFFFFFFFFFFFFFFFFFFFFFFFF AND DUP2 MSTORE PUSH1 0x20 ADD SWAP1 DUP2 MSTORE PUSH1 0x20 ADD PUSH1 0x0 KECCAK256 SLOAD SWAP1 POP SWAP2 SWAP1 POP JUMP JUMPDEST PUSH1 0x0 PUSH1 0x4 PUSH1 0x6 ADD SLOAD SWAP1 POP SWAP1 JUMP JUMPDEST PUSH1 0x0 PUSH1 0x3 PUSH1 0x0 SWAP1 SLOAD SWAP1 PUSH2 0x100 EXP SWAP1 DIV PUSH1 0xFF AND ISZERO PUSH2 0xAA1 JUMPI PUSH1 0x40 MLOAD PUSH32 0x8C379A000000000000000000000000000000000000000000000000000000000 DUP2 MSTORE PUSH1 0x4 ADD PUSH2 0xA98 SWAP1 PUSH2 0x1777 JUMP JUMPDEST PUSH1 0x40 MLOAD DUP1 SWAP2 SUB SWAP1 REVERT JUMPDEST PUSH1 0x1 PUSH1 0x3 PUSH1 0x0 PUSH2 0x100 EXP DUP2 SLOAD DUP2 PUSH1 0xFF MUL NOT AND SWAP1 DUP4 ISZERO ISZERO MUL OR SWAP1 SSTORE POP PUSH1 0x0 PUSH1 0x11 PUSH1 0x0 CALLER PUSH20 0xFFFFFFFFFFFFFFFFFFFFFFFFFFFFFFFFFFFFFFFF AND PUSH20 0xFFFFFFFFFFFFFFFFFFFFFFFFFFFFFFFFFFFFFFFF AND DUP2 MSTORE PUSH1 0x20 ADD SWAP1 DUP2 MSTORE PUSH1 0x20 ADD PUSH1 0x0 KECCAK256 SWAP1 POP PUSH1 0x0 DUP1 JUMPDEST DUP3 DUP1 SLOAD SWAP1 POP DUP2 LT ISZERO PUSH2 0xD19 JUMPI PUSH1 0x0 DUP4 DUP3 DUP2 SLOAD DUP2 LT PUSH2 0xB24 JUMPI PUSH2 0xB23 PUSH2 0x192C JUMP JUMPDEST JUMPDEST SWAP1 PUSH1 0x0 MSTORE PUSH1 0x20 PUSH1 0x0 KECCAK256 SWAP1 PUSH1 0x4 MUL ADD SWAP1 POP DUP1 PUSH1 0x2 ADD SLOAD TIMESTAMP LT PUSH2 0xB78 JUMPI PUSH1 0x0 DUP2 PUSH1 0x3 ADD SLOAD DUP3 PUSH1 0x0 ADD SLOAD PUSH2 0xB55 SWAP2 SWAP1 PUSH2 0x18C4 JUMP JUMPDEST SWAP1 POP DUP2 PUSH1 0x0 ADD SLOAD DUP3 PUSH1 0x3 ADD DUP2 SWAP1 SSTORE POP DUP1 DUP5 PUSH2 0xB70 SWAP2 SWAP1 PUSH2 0x18F8 JUMP JUMPDEST SWAP4 POP POP PUSH2 0xBFF JUMP JUMPDEST PUSH1 0x0 DUP2 PUSH1 0x1 ADD SLOAD TIMESTAMP PUSH2 0xB8A SWAP2 SWAP1 PUSH2 0x18C4 JUMP JUMPDEST SWAP1 POP PUSH1 0x0 DUP3 PUSH1 0x1 ADD SLOAD DUP4 PUSH1 0x2 ADD SLOAD PUSH2 0xBA2 SWAP2 SWAP1 PUSH2 0x18C4 JUMP JUMPDEST SWAP1 POP PUSH1 0x0 DUP4 PUSH1 0x3 ADD SLOAD DUP3 DUP5 DUP7 PUSH1 0x0 ADD SLOAD PUSH2 0xBBC SWAP2 SWAP1 PUSH2 0x195B JUMP JUMPDEST PUSH2 0xBC6 SWAP2 SWAP1 PUSH2 0x19CC JUMP JUMPDEST PUSH2 0xBD0 SWAP2 SWAP1 PUSH2 0x18C4 JUMP JUMPDEST SWAP1 POP DUP1 DUP5 PUSH1 0x3 ADD PUSH1 0x0 DUP3 DUP3 SLOAD PUSH2 0xBE6 SWAP2 SWAP1 PUSH2 0x18F8 JUMP JUMPDEST SWAP3 POP POP DUP2 SWAP1 SSTORE POP DUP1 DUP7 PUSH2 0xBF9 SWAP2 SWAP1 PUSH2 0x18F8 JUMP JUMPDEST SWAP6 POP POP POP POP JUMPDEST PUSH1 0x0 DUP4 GT PUSH2 0xC42 JUMPI PUSH1 0x40 MLOAD PUSH32 0x8C379A000000000000000000000000000000000000000000000000000000000 DUP2 MSTORE PUSH1 0x4 ADD PUSH2 0xC39 SWAP1 PUSH2 0x1A49 JUMP JUMPDEST PUSH1 0x40 MLOAD DUP1 SWAP2 SUB SWAP1 REVERT JUMPDEST DUP3 PUSH1 0x4 PUSH1 0x5 ADD PUSH1 0x0 DUP3 DUP3 SLOAD PUSH2 0xC57 SWAP2 SWAP1 PUSH2 0x18C4 JUMP JUMPDEST SWAP3 POP POP DUP2 SWAP1 SSTORE POP DUP3 PUSH1 0xB PUSH1 0x0 ADD PUSH1 0x0 CALLER PUSH20 0xFFFFFFFFFFFFFFFFFFFFFFFFFFFFFFFFFFFFFFFF AND PUSH20 0xFFFFFFFFFFFFFFFFFFFFFFFFFFFFFFFFFFFFFFFF AND DUP2 MSTORE PUSH1 0x20 ADD SWAP1 DUP2 MSTORE PUSH1 0x20 ADD PUSH1 0x0 KECCAK256 PUSH1 0x0 DUP3 DUP3 SLOAD PUSH2 0xCB0 SWAP2 SWAP1 PUSH2 0x18F8 JUMP JUMPDEST SWAP3 POP POP DUP2 SWAP1 SSTORE POP CALLER PUSH20 0xFFFFFFFFFFFFFFFFFFFFFFFFFFFFFFFFFFFFFFFF AND PUSH32 0xC7798891864187665AC6DD119286E44EC13F014527AEEB2B8EB3FD413DF93179 DUP5 PUSH1 0x40 MLOAD PUSH2 0xCFD SWAP2 SWAP1 PUSH2 0x15F0 JUMP JUMPDEST PUSH1 0x40 MLOAD DUP1 SWAP2 SUB SWAP1 LOG2 POP DUP1 DUP1 PUSH2 0xD11 SWAP1 PUSH2 0x1A69 JUMP JUMPDEST SWAP2 POP POP PUSH2 0xB03 JUMP JUMPDEST POP PUSH1 0x1 SWAP3 POP POP POP PUSH1 0x0 PUSH1 0x3 PUSH1 0x0 PUSH2 0x100 EXP DUP2 SLOAD DUP2 PUSH1 0xFF MUL NOT AND SWAP1 DUP4 ISZERO ISZERO MUL OR SWAP1 SSTORE POP SWAP1 JUMP JUMPDEST PUSH1 0x60 PUSH1 0x4 PUSH1 0x1 ADD DUP1 SLOAD PUSH2 0xD50 SWAP1 PUSH2 0x16FA JUMP JUMPDEST DUP1 PUSH1 0x1F ADD PUSH1 0x20 DUP1 SWAP2 DIV MUL PUSH1 0x20 ADD PUSH1 0x40 MLOAD SWAP1 DUP2 ADD PUSH1 0x40 MSTORE DUP1 SWAP3 SWAP2 SWAP1 DUP2 DUP2 MSTORE PUSH1 0x20 ADD DUP3 DUP1 SLOAD PUSH2 0xD7C SWAP1 PUSH2 0x16FA JUMP JUMPDEST DUP1 ISZERO PUSH2 0xDC9 JUMPI DUP1 PUSH1 0x1F LT PUSH2 0xD9E JUMPI PUSH2 0x100 DUP1 DUP4 SLOAD DIV MUL DUP4 MSTORE SWAP2 PUSH1 0x20 ADD SWAP2 PUSH2 0xDC9 JUMP JUMPDEST DUP3 ADD SWAP2 SWAP1 PUSH1 0x0 MSTORE PUSH1 0x20 PUSH1 0x0 KECCAK256 SWAP1 JUMPDEST DUP2 SLOAD DUP2 MSTORE SWAP1 PUSH1 0x1 ADD SWAP1 PUSH1 0x20 ADD DUP1 DUP4 GT PUSH2 0xDAC JUMPI DUP3 SWAP1 SUB PUSH1 0x1F AND DUP3 ADD SWAP2 JUMPDEST POP POP POP POP POP SWAP1 POP SWAP1 JUMP JUMPDEST PUSH1 0x0 PUSH1 0x3 PUSH1 0x0 SWAP1 SLOAD SWAP1 PUSH2 0x100 EXP SWAP1 DIV PUSH1 0xFF AND ISZERO PUSH2 0xE25 JUMPI PUSH1 0x40 MLOAD PUSH32 0x8C379A000000000000000000000000000000000000000000000000000000000 DUP2 MSTORE PUSH1 0x4 ADD PUSH2 0xE1C SWAP1 PUSH2 0x1777 JUMP JUMPDEST PUSH1 0x40 MLOAD DUP1 SWAP2 SUB SWAP1 REVERT JUMPDEST PUSH1 0x1 PUSH1 0x3 PUSH1 0x0 PUSH2 0x100 EXP DUP2 SLOAD DUP2 PUSH1 0xFF MUL NOT AND SWAP1 DUP4 ISZERO ISZERO MUL OR SWAP1 SSTORE POP PUSH1 0x0 CALLER SWAP1 POP PUSH1 0x0 PUSH2 0xE51 DUP3 DUP7 PUSH2 0x10F8 JUMP JUMPDEST SWAP1 POP DUP4 DUP2 LT ISZERO PUSH2 0xE96 JUMPI PUSH1 0x40 MLOAD PUSH32 0x8C379A000000000000000000000000000000000000000000000000000000000 DUP2 MSTORE PUSH1 0x4 ADD PUSH2 0xE8D SWAP1 PUSH2 0x1AFD JUMP JUMPDEST PUSH1 0x40 MLOAD DUP1 SWAP2 SUB SWAP1 REVERT JUMPDEST PUSH2 0xEA3 DUP3 DUP7 DUP7 DUP5 SUB PUSH2 0x11CE JUMP JUMPDEST PUSH1 0x1 SWAP3 POP POP POP PUSH1 0x0 PUSH1 0x3 PUSH1 0x0 PUSH2 0x100 EXP DUP2 SLOAD DUP2 PUSH1 0xFF MUL NOT AND SWAP1 DUP4 ISZERO ISZERO MUL OR SWAP1 SSTORE POP SWAP3 SWAP2 POP POP JUMP JUMPDEST PUSH1 0x0 PUSH1 0x3 PUSH1 0x0 SWAP1 SLOAD SWAP1 PUSH2 0x100 EXP SWAP1 DIV PUSH1 0xFF AND ISZERO PUSH2 0xF1C JUMPI PUSH1 0x40 MLOAD PUSH32 0x8C379A000000000000000000000000000000000000000000000000000000000 DUP2 MSTORE PUSH1 0x4 ADD PUSH2 0xF13 SWAP1 PUSH2 0x1777 JUMP JUMPDEST PUSH1 0x40 MLOAD DUP1 SWAP2 SUB SWAP1 REVERT JUMPDEST PUSH1 0x1 PUSH1 0x3 PUSH1 0x0 PUSH2 0x100 EXP DUP2 SLOAD DUP2 PUSH1 0xFF MUL NOT AND SWAP1 DUP4 ISZERO ISZERO MUL OR SWAP1 SSTORE POP DUP2 PUSH1 0xB PUSH1 0x0 ADD PUSH1 0x0 CALLER PUSH20 0xFFFFFFFFFFFFFFFFFFFFFFFFFFFFFFFFFFFFFFFF AND PUSH20 0xFFFFFFFFFFFFFFFFFFFFFFFFFFFFFFFFFFFFFFFF AND DUP2 MSTORE PUSH1 0x20 ADD SWAP1 DUP2 MSTORE PUSH1 0x20 ADD PUSH1 0x0 KECCAK256 SLOAD LT ISZERO PUSH2 0xFBC JUMPI PUSH1 0x40 MLOAD PUSH32 0x8C379A000000000000000000000000000000000000000000000000000000000 DUP2 MSTORE PUSH1 0x4 ADD PUSH2 0xFB3 SWAP1 PUSH2 0x17E3 JUMP JUMPDEST PUSH1 0x40 MLOAD DUP1 SWAP2 SUB SWAP1 REVERT JUMPDEST DUP2 PUSH1 0xB PUSH1 0x0 ADD PUSH1 0x0 CALLER PUSH20 0xFFFFFFFFFFFFFFFFFFFFFFFFFFFFFFFFFFFFFFFF AND PUSH20 0xFFFFFFFFFFFFFFFFFFFFFFFFFFFFFFFFFFFFFFFF AND DUP2 MSTORE PUSH1 0x20 ADD SWAP1 DUP2 MSTORE PUSH1 0x20 ADD PUSH1 0x0 KECCAK256 PUSH1 0x0 DUP3 DUP3 SLOAD PUSH2 0x100E SWAP2 SWAP1 PUSH2 0x18C4 JUMP JUMPDEST SWAP3 POP POP DUP2 SWAP1 SSTORE POP DUP2 PUSH1 0xB PUSH1 0x0 ADD PUSH1 0x0 DUP6 PUSH20 0xFFFFFFFFFFFFFFFFFFFFFFFFFFFFFFFFFFFFFFFF AND PUSH20 0xFFFFFFFFFFFFFFFFFFFFFFFFFFFFFFFFFFFFFFFF AND DUP2 MSTORE PUSH1 0x20 ADD SWAP1 DUP2 MSTORE PUSH1 0x20 ADD PUSH1 0x0 KECCAK256 PUSH1 0x0 DUP3 DUP3 SLOAD PUSH2 0x1067 SWAP2 SWAP1 PUSH2 0x18F8 JUMP JUMPDEST SWAP3 POP POP DUP2 SWAP1 SSTORE POP DUP3 PUSH20 0xFFFFFFFFFFFFFFFFFFFFFFFFFFFFFFFFFFFFFFFF AND CALLER PUSH20 0xFFFFFFFFFFFFFFFFFFFFFFFFFFFFFFFFFFFFFFFF AND PUSH32 0xDDF252AD1BE2C89B69C2B068FC378DAA952BA7F163C4A11628F55A4DF523B3EF DUP5 PUSH1 0x40 MLOAD PUSH2 0x10CB SWAP2 SWAP1 PUSH2 0x15F0 JUMP JUMPDEST PUSH1 0x40 MLOAD DUP1 SWAP2 SUB SWAP1 LOG3 PUSH1 0x1 SWAP1 POP PUSH1 0x0 PUSH1 0x3 PUSH1 0x0 PUSH2 0x100 EXP DUP2 SLOAD DUP2 PUSH1 0xFF MUL NOT AND SWAP1 DUP4 ISZERO ISZERO MUL OR SWAP1 SSTORE POP SWAP3 SWAP2 POP POP JUMP JUMPDEST PUSH1 0x0 PUSH1 0xB PUSH1 0x4 ADD PUSH1 0x0 DUP5 PUSH20 0xFFFFFFFFFFFFFFFFFFFFFFFFFFFFFFFFFFFFFFFF AND PUSH20 0xFFFFFFFFFFFFFFFFFFFFFFFFFFFFFFFFFFFFFFFF AND DUP2 MSTORE PUSH1 0x20 ADD SWAP1 DUP2 MSTORE PUSH1 0x20 ADD PUSH1 0x0 KECCAK256 PUSH1 0x0 DUP4 PUSH20 0xFFFFFFFFFFFFFFFFFFFFFFFFFFFFFFFFFFFFFFFF AND PUSH20 0xFFFFFFFFFFFFFFFFFFFFFFFFFFFFFFFFFFFFFFFF AND DUP2 MSTORE PUSH1 0x20 ADD SWAP1 DUP2 MSTORE PUSH1 0x20 ADD PUSH1 0x0 KECCAK256 SLOAD SWAP1 POP SWAP3 SWAP2 POP POP JUMP JUMPDEST PUSH1 0x0 PUSH1 0xB PUSH1 0x2 ADD PUSH1 0x0 DUP4 PUSH20 0xFFFFFFFFFFFFFFFFFFFFFFFFFFFFFFFFFFFFFFFF AND PUSH20 0xFFFFFFFFFFFFFFFFFFFFFFFFFFFFFFFFFFFFFFFF AND DUP2 MSTORE PUSH1 0x20 ADD SWAP1 DUP2 MSTORE PUSH1 0x20 ADD PUSH1 0x0 KECCAK256 SLOAD SWAP1 POP SWAP2 SWAP1 POP JUMP JUMPDEST PUSH1 0x3 PUSH1 0x0 SWAP1 SLOAD SWAP1 PUSH2 0x100 EXP SWAP1 DIV PUSH1 0xFF AND ISZERO PUSH2 0x121E JUMPI PUSH1 0x40 MLOAD PUSH32 0x8C379A000000000000000000000000000000000000000000000000000000000 DUP2 MSTORE PUSH1 0x4 ADD PUSH2 0x1215 SWAP1 PUSH2 0x1777 JUMP JUMPDEST PUSH1 0x40 MLOAD DUP1 SWAP2 SUB SWAP1 REVERT JUMPDEST PUSH1 0x1 PUSH1 0x3 PUSH1 0x0 PUSH2 0x100 EXP DUP2 SLOAD DUP2 PUSH1 0xFF MUL NOT AND SWAP1 DUP4 ISZERO ISZERO MUL OR SWAP1 SSTORE POP PUSH1 0x0 PUSH20 0xFFFFFFFFFFFFFFFFFFFFFFFFFFFFFFFFFFFFFFFF AND DUP4 PUSH20 0xFFFFFFFFFFFFFFFFFFFFFFFFFFFFFFFFFFFFFFFF AND SUB PUSH2 0x12A8 JUMPI PUSH1 0x40 MLOAD PUSH32 0x8C379A000000000000000000000000000000000000000000000000000000000 DUP2 MSTORE PUSH1 0x4 ADD PUSH2 0x129F SWAP1 PUSH2 0x1B69 JUMP JUMPDEST PUSH1 0x40 MLOAD DUP1 SWAP2 SUB SWAP1 REVERT JUMPDEST PUSH1 0x0 PUSH20 0xFFFFFFFFFFFFFFFFFFFFFFFFFFFFFFFFFFFFFFFF AND DUP3 PUSH20 0xFFFFFFFFFFFFFFFFFFFFFFFFFFFFFFFFFFFFFFFF AND SUB PUSH2 0x1317 JUMPI PUSH1 0x40 MLOAD PUSH32 0x8C379A000000000000000000000000000000000000000000000000000000000 DUP2 MSTORE PUSH1 0x4 ADD PUSH2 0x130E SWAP1 PUSH2 0x1B69 JUMP JUMPDEST PUSH1 0x40 MLOAD DUP1 SWAP2 SUB SWAP1 REVERT JUMPDEST DUP1 PUSH1 0xB PUSH1 0x4 ADD PUSH1 0x0 DUP6 PUSH20 0xFFFFFFFFFFFFFFFFFFFFFFFFFFFFFFFFFFFFFFFF AND PUSH20 0xFFFFFFFFFFFFFFFFFFFFFFFFFFFFFFFFFFFFFFFF AND DUP2 MSTORE PUSH1 0x20 ADD SWAP1 DUP2 MSTORE PUSH1 0x20 ADD PUSH1 0x0 KECCAK256 PUSH1 0x0 DUP5 PUSH20 0xFFFFFFFFFFFFFFFFFFFFFFFFFFFFFFFFFFFFFFFF AND PUSH20 0xFFFFFFFFFFFFFFFFFFFFFFFFFFFFFFFFFFFFFFFF AND DUP2 MSTORE PUSH1 0x20 ADD SWAP1 DUP2 MSTORE PUSH1 0x20 ADD PUSH1 0x0 KECCAK256 DUP2 SWAP1 SSTORE POP DUP2 PUSH20 0xFFFFFFFFFFFFFFFFFFFFFFFFFFFFFFFFFFFFFFFF AND DUP4 PUSH20 0xFFFFFFFFFFFFFFFFFFFFFFFFFFFFFFFFFFFFFFFF AND PUSH32 0x8C5BE1E5EBEC7D5BD14F71427D1E84F3DD0314C0F7B2291E5B200AC8C7C3B925 DUP4 PUSH1 0x40 MLOAD PUSH2 0x13F8 SWAP2 SWAP1 PUSH2 0x15F0 JUMP JUMPDEST PUSH1 0x40 MLOAD DUP1 SWAP2 SUB SWAP1 LOG3 PUSH1 0x0 PUSH1 0x3 PUSH1 0x0 PUSH2 0x100 EXP DUP2 SLOAD DUP2 PUSH1 0xFF MUL NOT AND SWAP1 DUP4 ISZERO ISZERO MUL OR SWAP1 SSTORE POP POP POP POP JUMP JUMPDEST PUSH1 0x0 DUP2 MLOAD SWAP1 POP SWAP2 SWAP1 POP JUMP JUMPDEST PUSH1 0x0 DUP3 DUP3 MSTORE PUSH1 0x20 DUP3 ADD SWAP1 POP SWAP3 SWAP2 POP POP JUMP JUMPDEST PUSH1 0x0 JUMPDEST DUP4 DUP2 LT ISZERO PUSH2 0x145A JUMPI DUP1 DUP3 ADD MLOAD DUP2 DUP5 ADD MSTORE PUSH1 0x20 DUP2 ADD SWAP1 POP PUSH2 0x143F JUMP JUMPDEST PUSH1 0x0 DUP5 DUP5 ADD MSTORE POP POP POP POP JUMP JUMPDEST PUSH1 0x0 PUSH1 0x1F NOT PUSH1 0x1F DUP4 ADD AND SWAP1 POP SWAP2 SWAP1 POP JUMP JUMPDEST PUSH1 0x0 PUSH2 0x1482 DUP3 PUSH2 0x1420 JUMP JUMPDEST PUSH2 0x148C DUP2 DUP6 PUSH2 0x142B JUMP JUMPDEST SWAP4 POP PUSH2 0x149C DUP2 DUP6 PUSH1 0x20 DUP7 ADD PUSH2 0x143C JUMP JUMPDEST PUSH2 0x14A5 DUP2 PUSH2 0x1466 JUMP JUMPDEST DUP5 ADD SWAP2 POP POP SWAP3 SWAP2 POP POP JUMP JUMPDEST PUSH1 0x0 PUSH1 0x20 DUP3 ADD SWAP1 POP DUP2 DUP2 SUB PUSH1 0x0 DUP4 ADD MSTORE PUSH2 0x14CA DUP2 DUP5 PUSH2 0x1477 JUMP JUMPDEST SWAP1 POP SWAP3 SWAP2 POP POP JUMP JUMPDEST PUSH1 0x0 DUP1 REVERT JUMPDEST PUSH1 0x0 PUSH20 0xFFFFFFFFFFFFFFFFFFFFFFFFFFFFFFFFFFFFFFFF DUP3 AND SWAP1 POP SWAP2 SWAP1 POP JUMP JUMPDEST PUSH1 0x0 PUSH2 0x1502 DUP3 PUSH2 0x14D7 JUMP JUMPDEST SWAP1 POP SWAP2 SWAP1 POP JUMP JUMPDEST PUSH2 0x1512 DUP2 PUSH2 0x14F7 JUMP JUMPDEST DUP2 EQ PUSH2 0x151D JUMPI PUSH1 0x0 DUP1 REVERT JUMPDEST POP JUMP JUMPDEST PUSH1 0x0 DUP2 CALLDATALOAD SWAP1 POP PUSH2 0x152F DUP2 PUSH2 0x1509 JUMP JUMPDEST SWAP3 SWAP2 POP POP JUMP JUMPDEST PUSH1 0x0 DUP2 SWAP1 POP SWAP2 SWAP1 POP JUMP JUMPDEST PUSH2 0x1548 DUP2 PUSH2 0x1535 JUMP JUMPDEST DUP2 EQ PUSH2 0x1553 JUMPI PUSH1 0x0 DUP1 REVERT JUMPDEST POP JUMP JUMPDEST PUSH1 0x0 DUP2 CALLDATALOAD SWAP1 POP PUSH2 0x1565 DUP2 PUSH2 0x153F JUMP JUMPDEST SWAP3 SWAP2 POP POP JUMP JUMPDEST PUSH1 0x0 DUP1 PUSH1 0x40 DUP4 DUP6 SUB SLT ISZERO PUSH2 0x1582 JUMPI PUSH2 0x1581 PUSH2 0x14D2 JUMP JUMPDEST JUMPDEST PUSH1 0x0 PUSH2 0x1590 DUP6 DUP3 DUP7 ADD PUSH2 0x1520 JUMP JUMPDEST SWAP3 POP POP PUSH1 0x20 PUSH2 0x15A1 DUP6 DUP3 DUP7 ADD PUSH2 0x1556 JUMP JUMPDEST SWAP2 POP POP SWAP3 POP SWAP3 SWAP1 POP JUMP JUMPDEST PUSH1 0x0 DUP2 ISZERO ISZERO SWAP1 POP SWAP2 SWAP1 POP JUMP JUMPDEST PUSH2 0x15C0 DUP2 PUSH2 0x15AB JUMP JUMPDEST DUP3 MSTORE POP POP JUMP JUMPDEST PUSH1 0x0 PUSH1 0x20 DUP3 ADD SWAP1 POP PUSH2 0x15DB PUSH1 0x0 DUP4 ADD DUP5 PUSH2 0x15B7 JUMP JUMPDEST SWAP3 SWAP2 POP POP JUMP JUMPDEST PUSH2 0x15EA DUP2 PUSH2 0x1535 JUMP JUMPDEST DUP3 MSTORE POP POP JUMP JUMPDEST PUSH1 0x0 PUSH1 0x20 DUP3 ADD SWAP1 POP PUSH2 0x1605 PUSH1 0x0 DUP4 ADD DUP5 PUSH2 0x15E1 JUMP JUMPDEST SWAP3 SWAP2 POP POP JUMP JUMPDEST PUSH1 0x0 DUP1 PUSH1 0x0 PUSH1 0x60 DUP5 DUP7 SUB SLT ISZERO PUSH2 0x1624 JUMPI PUSH2 0x1623 PUSH2 0x14D2 JUMP JUMPDEST JUMPDEST PUSH1 0x0 PUSH2 0x1632 DUP7 DUP3 DUP8 ADD PUSH2 0x1520 JUMP JUMPDEST SWAP4 POP POP PUSH1 0x20 PUSH2 0x1643 DUP7 DUP3 DUP8 ADD PUSH2 0x1520 JUMP JUMPDEST SWAP3 POP POP PUSH1 0x40 PUSH2 0x1654 DUP7 DUP3 DUP8 ADD PUSH2 0x1556 JUMP JUMPDEST SWAP2 POP POP SWAP3 POP SWAP3 POP SWAP3 JUMP JUMPDEST PUSH1 0x0 PUSH1 0x20 DUP3 DUP5 SUB SLT ISZERO PUSH2 0x1674 JUMPI PUSH2 0x1673 PUSH2 0x14D2 JUMP JUMPDEST JUMPDEST PUSH1 0x0 PUSH2 0x1682 DUP5 DUP3 DUP6 ADD PUSH2 0x1520 JUMP JUMPDEST SWAP2 POP POP SWAP3 SWAP2 POP POP JUMP JUMPDEST PUSH1 0x0 DUP1 PUSH1 0x40 DUP4 DUP6 SUB SLT ISZERO PUSH2 0x16A2 JUMPI PUSH2 0x16A1 PUSH2 0x14D2 JUMP JUMPDEST JUMPDEST PUSH1 0x0 PUSH2 0x16B0 DUP6 DUP3 DUP7 ADD PUSH2 0x1520 JUMP JUMPDEST SWAP3 POP POP PUSH1 0x20 PUSH2 0x16C1 DUP6 DUP3 DUP7 ADD PUSH2 0x1520 JUMP JUMPDEST SWAP2 POP POP SWAP3 POP SWAP3 SWAP1 POP JUMP JUMPDEST PUSH32 0x4E487B7100000000000000000000000000000000000000000000000000000000 PUSH1 0x0 MSTORE PUSH1 0x22 PUSH1 0x4 MSTORE PUSH1 0x24 PUSH1 0x0 REVERT JUMPDEST PUSH1 0x0 PUSH1 0x2 DUP3 DIV SWAP1 POP PUSH1 0x1 DUP3 AND DUP1 PUSH2 0x1712 JUMPI PUSH1 0x7F DUP3 AND SWAP2 POP JUMPDEST PUSH1 0x20 DUP3 LT DUP2 SUB PUSH2 0x1725 JUMPI PUSH2 0x1724 PUSH2 0x16CB JUMP JUMPDEST JUMPDEST POP SWAP2 SWAP1 POP JUMP JUMPDEST PUSH32 0x416E74692D5265656E7472616E6379204C6F636B000000000000000000000000 PUSH1 0x0 DUP3 ADD MSTORE POP JUMP JUMPDEST PUSH1 0x0 PUSH2 0x1761 PUSH1 0x14 DUP4 PUSH2 0x142B JUMP JUMPDEST SWAP2 POP PUSH2 0x176C DUP3 PUSH2 0x172B JUMP JUMPDEST PUSH1 0x20 DUP3 ADD SWAP1 POP SWAP2 SWAP1 POP JUMP JUMPDEST PUSH1 0x0 PUSH1 0x20 DUP3 ADD SWAP1 POP DUP2 DUP2 SUB PUSH1 0x0 DUP4 ADD MSTORE PUSH2 0x1790 DUP2 PUSH2 0x1754 JUMP JUMPDEST SWAP1 POP SWAP2 SWAP1 POP JUMP JUMPDEST PUSH32 0x496E73756666696369656E742062616C616E6365000000000000000000000000 PUSH1 0x0 DUP3 ADD MSTORE POP JUMP JUMPDEST PUSH1 0x0 PUSH2 0x17CD PUSH1 0x14 DUP4 PUSH2 0x142B JUMP JUMPDEST SWAP2 POP PUSH2 0x17D8 DUP3 PUSH2 0x1797 JUMP JUMPDEST PUSH1 0x20 DUP3 ADD SWAP1 POP SWAP2 SWAP1 POP JUMP JUMPDEST PUSH1 0x0 PUSH1 0x20 DUP3 ADD SWAP1 POP DUP2 DUP2 SUB PUSH1 0x0 DUP4 ADD MSTORE PUSH2 0x17FC DUP2 PUSH2 0x17C0 JUMP JUMPDEST SWAP1 POP SWAP2 SWAP1 POP JUMP JUMPDEST PUSH32 0x5472616E7366657220616D6F756E74206578636565647320616C6C6F77616E63 PUSH1 0x0 DUP3 ADD MSTORE PUSH32 0x6500000000000000000000000000000000000000000000000000000000000000 PUSH1 0x20 DUP3 ADD MSTORE POP JUMP JUMPDEST PUSH1 0x0 PUSH2 0x185F PUSH1 0x21 DUP4 PUSH2 0x142B JUMP JUMPDEST SWAP2 POP PUSH2 0x186A DUP3 PUSH2 0x1803 JUMP JUMPDEST PUSH1 0x40 DUP3 ADD SWAP1 POP SWAP2 SWAP1 POP JUMP JUMPDEST PUSH1 0x0 PUSH1 0x20 DUP3 ADD SWAP1 POP DUP2 DUP2 SUB PUSH1 0x0 DUP4 ADD MSTORE PUSH2 0x188E DUP2 PUSH2 0x1852 JUMP JUMPDEST SWAP1 POP SWAP2 SWAP1 POP JUMP JUMPDEST PUSH32 0x4E487B7100000000000000000000000000000000000000000000000000000000 PUSH1 0x0 MSTORE PUSH1 0x11 PUSH1 0x4 MSTORE PUSH1 0x24 PUSH1 0x0 REVERT JUMPDEST PUSH1 0x0 PUSH2 0x18CF DUP3 PUSH2 0x1535 JUMP JUMPDEST SWAP2 POP PUSH2 0x18DA DUP4 PUSH2 0x1535 JUMP JUMPDEST SWAP3 POP DUP3 DUP3 SUB SWAP1 POP DUP2 DUP2 GT ISZERO PUSH2 0x18F2 JUMPI PUSH2 0x18F1 PUSH2 0x1895 JUMP JUMPDEST JUMPDEST SWAP3 SWAP2 POP POP JUMP JUMPDEST PUSH1 0x0 PUSH2 0x1903 DUP3 PUSH2 0x1535 JUMP JUMPDEST SWAP2 POP PUSH2 0x190E DUP4 PUSH2 0x1535 JUMP JUMPDEST SWAP3 POP DUP3 DUP3 ADD SWAP1 POP DUP1 DUP3 GT ISZERO PUSH2 0x1926 JUMPI PUSH2 0x1925 PUSH2 0x1895 JUMP JUMPDEST JUMPDEST SWAP3 SWAP2 POP POP JUMP JUMPDEST PUSH32 0x4E487B7100000000000000000000000000000000000000000000000000000000 PUSH1 0x0 MSTORE PUSH1 0x32 PUSH1 0x4 MSTORE PUSH1 0x24 PUSH1 0x0 REVERT JUMPDEST PUSH1 0x0 PUSH2 0x1966 DUP3 PUSH2 0x1535 JUMP JUMPDEST SWAP2 POP PUSH2 0x1971 DUP4 PUSH2 0x1535 JUMP JUMPDEST SWAP3 POP DUP3 DUP3 MUL PUSH2 0x197F DUP2 PUSH2 0x1535 JUMP JUMPDEST SWAP2 POP DUP3 DUP3 DIV DUP5 EQ DUP4 ISZERO OR PUSH2 0x1996 JUMPI PUSH2 0x1995 PUSH2 0x1895 JUMP JUMPDEST JUMPDEST POP SWAP3 SWAP2 POP POP JUMP JUMPDEST PUSH32 0x4E487B7100000000000000000000000000000000000000000000000000000000 PUSH1 0x0 MSTORE PUSH1 0x12 PUSH1 0x4 MSTORE PUSH1 0x24 PUSH1 0x0 REVERT JUMPDEST PUSH1 0x0 PUSH2 0x19D7 DUP3 PUSH2 0x1535 JUMP JUMPDEST SWAP2 POP PUSH2 0x19E2 DUP4 PUSH2 0x1535 JUMP JUMPDEST SWAP3 POP DUP3 PUSH2 0x19F2 JUMPI PUSH2 0x19F1 PUSH2 0x199D JUMP JUMPDEST JUMPDEST DUP3 DUP3 DIV SWAP1 POP SWAP3 SWAP2 POP POP JUMP JUMPDEST PUSH32 0x4E6F20746F6B656E7320746F2072656C65617365000000000000000000000000 PUSH1 0x0 DUP3 ADD MSTORE POP JUMP JUMPDEST PUSH1 0x0 PUSH2 0x1A33 PUSH1 0x14 DUP4 PUSH2 0x142B JUMP JUMPDEST SWAP2 POP PUSH2 0x1A3E DUP3 PUSH2 0x19FD JUMP JUMPDEST PUSH1 0x20 DUP3 ADD SWAP1 POP SWAP2 SWAP1 POP JUMP JUMPDEST PUSH1 0x0 PUSH1 0x20 DUP3 ADD SWAP1 POP DUP2 DUP2 SUB PUSH1 0x0 DUP4 ADD MSTORE PUSH2 0x1A62 DUP2 PUSH2 0x1A26 JUMP JUMPDEST SWAP1 POP SWAP2 SWAP1 POP JUMP JUMPDEST PUSH1 0x0 PUSH2 0x1A74 DUP3 PUSH2 0x1535 JUMP JUMPDEST SWAP2 POP PUSH32 0xFFFFFFFFFFFFFFFFFFFFFFFFFFFFFFFFFFFFFFFFFFFFFFFFFFFFFFFFFFFFFFFF DUP3 SUB PUSH2 0x1AA6 JUMPI PUSH2 0x1AA5 PUSH2 0x1895 JUMP JUMPDEST JUMPDEST PUSH1 0x1 DUP3 ADD SWAP1 POP SWAP2 SWAP1 POP JUMP JUMPDEST PUSH32 0x44656372656173656420616C6C6F77616E63652062656C6F77207A65726F0000 PUSH1 0x0 DUP3 ADD MSTORE POP JUMP JUMPDEST PUSH1 0x0 PUSH2 0x1AE7 PUSH1 0x1E DUP4 PUSH2 0x142B JUMP JUMPDEST SWAP2 POP PUSH2 0x1AF2 DUP3 PUSH2 0x1AB1 JUMP JUMPDEST PUSH1 0x20 DUP3 ADD SWAP1 POP SWAP2 SWAP1 POP JUMP JUMPDEST PUSH1 0x0 PUSH1 0x20 DUP3 ADD SWAP1 POP DUP2 DUP2 SUB PUSH1 0x0 DUP4 ADD MSTORE PUSH2 0x1B16 DUP2 PUSH2 0x1ADA JUMP JUMPDEST SWAP1 POP SWAP2 SWAP1 POP JUMP JUMPDEST PUSH32 0x417070726F76652066726F6D20746865207A65726F2061646472657373000000 PUSH1 0x0 DUP3 ADD MSTORE POP JUMP JUMPDEST PUSH1 0x0 PUSH2 0x1B53 PUSH1 0x1D DUP4 PUSH2 0x142B JUMP JUMPDEST SWAP2 POP PUSH2 0x1B5E DUP3 PUSH2 0x1B1D JUMP JUMPDEST PUSH1 0x20 DUP3 ADD SWAP1 POP SWAP2 SWAP1 POP JUMP JUMPDEST PUSH1 0x0 PUSH1 0x20 DUP3 ADD SWAP1 POP DUP2 DUP2 SUB PUSH1 0x0 DUP4 ADD MSTORE PUSH2 0x1B82 DUP2 PUSH2 0x1B46 JUMP JUMPDEST SWAP1 POP SWAP2 SWAP1 POP JUMP INVALID LOG2 PUSH5 0x6970667358 0x22 SLT KECCAK256 INVALID PUSH25 0x6733F6314E0ADB775919A727F38FB36E622802618D4D96E2BD 0xCF COINBASE CREATE2 0xBA 0xFB PUSH5 0x736F6C6343 STOP ADDMOD SLT STOP CALLER "
				},
				"gasEstimates": {
					"creation": {
						"codeDepositCost": "1420600",
						"executionCost": "infinite",
						"totalCost": "infinite"
					},
					"external": {
						"allowance(address,address)": "infinite",
						"approve(address,uint256)": "29575",
						"balanceOf(address)": "2936",
						"decimals()": "2488",
						"decreaseAllowance(address,uint256)": "31950",
						"increaseAllowance(address,uint256)": "infinite",
						"name()": "infinite",
						"release()": "infinite",
						"stakedFor(address)": "2957",
						"symbol()": "infinite",
						"totalStaked()": "2510",
						"totalSupply()": "2511",
						"totalVested()": "2533",
						"transfer(address,uint256)": "infinite",
						"transferFrom(address,address,uint256)": "infinite",
						"vestedFor(address)": "2870",
						"voteWeightOf(address)": "2892"
					},
					"internal": {
						"_approve(address,address,uint256)": "infinite",
						"_spendAllowance(address,address,uint256)": "infinite",
						"burn(address,uint256)": "infinite",
						"mint(address,uint256)": "infinite",
						"mintWithVesting(address,uint256,uint256)": "infinite"
					}
				},
				"methodIdentifiers": {
					"allowance(address,address)": "dd62ed3e",
					"approve(address,uint256)": "095ea7b3",
					"balanceOf(address)": "70a08231",
					"decimals()": "313ce567",
					"decreaseAllowance(address,uint256)": "a457c2d7",
					"increaseAllowance(address,uint256)": "39509351",
					"name()": "06fdde03",
					"release()": "86d1a69f",
					"stakedFor(address)": "feb73f8b",
					"symbol()": "95d89b41",
					"totalStaked()": "817b1cd2",
					"totalSupply()": "18160ddd",
					"totalVested()": "199cbc54",
					"transfer(address,uint256)": "a9059cbb",
					"transferFrom(address,address,uint256)": "23b872dd",
					"vestedFor(address)": "7657135c",
					"voteWeightOf(address)": "7fb8b61e"
				}
			},
			"storageLayout": {
				"storage": [
					{
						"astId": 17,
						"contract": "smart_contracts/contracts/BaseERC20.sol:BaseERC20",
						"label": "isSyndicate",
						"offset": 0,
						"slot": "0",
						"type": "t_mapping(t_address,t_bool)"
					},
					{
						"astId": 21,
						"contract": "smart_contracts/contracts/BaseERC20.sol:BaseERC20",
						"label": "isCustodian",
						"offset": 0,
						"slot": "1",
						"type": "t_mapping(t_address,t_bool)"
					},
					{
						"astId": 25,
						"contract": "smart_contracts/contracts/BaseERC20.sol:BaseERC20",
						"label": "isMember",
						"offset": 0,
						"slot": "2",
						"type": "t_mapping(t_address,t_bool)"
					},
					{
						"astId": 27,
						"contract": "smart_contracts/contracts/BaseERC20.sol:BaseERC20",
						"label": "locked",
						"offset": 0,
						"slot": "3",
						"type": "t_bool"
					},
					{
						"astId": 283,
						"contract": "smart_contracts/contracts/BaseERC20.sol:BaseERC20",
						"label": "isMintable",
						"offset": 1,
						"slot": "3",
						"type": "t_bool"
					},
					{
						"astId": 285,
						"contract": "smart_contracts/contracts/BaseERC20.sol:BaseERC20",
						"label": "isBurnable",
						"offset": 2,
						"slot": "3",
						"type": "t_bool"
					},
					{
						"astId": 288,
						"contract": "smart_contracts/contracts/BaseERC20.sol:BaseERC20",
						"label": "properties",
						"offset": 0,
						"slot": "4",
						"type": "t_struct(Properties)1184_storage"
					},
					{
						"astId": 291,
						"contract": "smart_contracts/contracts/BaseERC20.sol:BaseERC20",
						"label": "database",
						"offset": 0,
						"slot": "11",
						"type": "t_struct(Database)1213_storage"
					},
					{
						"astId": 760,
						"contract": "smart_contracts/contracts/BaseERC20.sol:BaseERC20",
						"label": "schedule",
						"offset": 0,
						"slot": "17",
						"type": "t_mapping(t_address,t_array(t_struct(VestingSchedule)1239_storage)dyn_storage)"
					}
				],
				"types": {
					"t_address": {
						"encoding": "inplace",
						"label": "address",
						"numberOfBytes": "20"
					},
					"t_array(t_struct(VestingSchedule)1239_storage)dyn_storage": {
						"base": "t_struct(VestingSchedule)1239_storage",
						"encoding": "dynamic_array",
						"label": "struct Vesting.VestingSchedule[]",
						"numberOfBytes": "32"
					},
					"t_bool": {
						"encoding": "inplace",
						"label": "bool",
						"numberOfBytes": "1"
					},
					"t_mapping(t_address,t_array(t_struct(VestingSchedule)1239_storage)dyn_storage)": {
						"encoding": "mapping",
						"key": "t_address",
						"label": "mapping(address => struct Vesting.VestingSchedule[])",
						"numberOfBytes": "32",
						"value": "t_array(t_struct(VestingSchedule)1239_storage)dyn_storage"
					},
					"t_mapping(t_address,t_bool)": {
						"encoding": "mapping",
						"key": "t_address",
						"label": "mapping(address => bool)",
						"numberOfBytes": "32",
						"value": "t_bool"
					},
					"t_mapping(t_address,t_mapping(t_address,t_uint256))": {
						"encoding": "mapping",
						"key": "t_address",
						"label": "mapping(address => mapping(address => uint256))",
						"numberOfBytes": "32",
						"value": "t_mapping(t_address,t_uint256)"
					},
					"t_mapping(t_address,t_uint256)": {
						"encoding": "mapping",
						"key": "t_address",
						"label": "mapping(address => uint256)",
						"numberOfBytes": "32",
						"value": "t_uint256"
					},
					"t_string_storage": {
						"encoding": "bytes",
						"label": "string",
						"numberOfBytes": "32"
					},
					"t_struct(Database)1213_storage": {
						"encoding": "inplace",
						"label": "struct Meta.Database",
						"members": [
							{
								"astId": 1188,
								"contract": "smart_contracts/contracts/BaseERC20.sol:BaseERC20",
								"label": "balance",
								"offset": 0,
								"slot": "0",
								"type": "t_mapping(t_address,t_uint256)"
							},
							{
								"astId": 1192,
								"contract": "smart_contracts/contracts/BaseERC20.sol:BaseERC20",
								"label": "vested",
								"offset": 0,
								"slot": "1",
								"type": "t_mapping(t_address,t_uint256)"
							},
							{
								"astId": 1196,
								"contract": "smart_contracts/contracts/BaseERC20.sol:BaseERC20",
								"label": "staked",
								"offset": 0,
								"slot": "2",
								"type": "t_mapping(t_address,t_uint256)"
							},
							{
								"astId": 1200,
								"contract": "smart_contracts/contracts/BaseERC20.sol:BaseERC20",
								"label": "vote",
								"offset": 0,
								"slot": "3",
								"type": "t_mapping(t_address,t_uint256)"
							},
							{
								"astId": 1206,
								"contract": "smart_contracts/contracts/BaseERC20.sol:BaseERC20",
								"label": "allowed",
								"offset": 0,
								"slot": "4",
								"type": "t_mapping(t_address,t_mapping(t_address,t_uint256))"
							},
							{
								"astId": 1212,
								"contract": "smart_contracts/contracts/BaseERC20.sol:BaseERC20",
								"label": "delegatedVote",
								"offset": 0,
								"slot": "5",
								"type": "t_mapping(t_address,t_mapping(t_address,t_uint256))"
							}
						],
						"numberOfBytes": "192"
					},
					"t_struct(Properties)1184_storage": {
						"encoding": "inplace",
						"label": "struct Meta.Properties",
						"members": [
							{
								"astId": 1171,
								"contract": "smart_contracts/contracts/BaseERC20.sol:BaseERC20",
								"label": "name",
								"offset": 0,
								"slot": "0",
								"type": "t_string_storage"
							},
							{
								"astId": 1173,
								"contract": "smart_contracts/contracts/BaseERC20.sol:BaseERC20",
								"label": "symbol",
								"offset": 0,
								"slot": "1",
								"type": "t_string_storage"
							},
							{
								"astId": 1175,
								"contract": "smart_contracts/contracts/BaseERC20.sol:BaseERC20",
								"label": "decimals",
								"offset": 0,
								"slot": "2",
								"type": "t_uint256"
							},
							{
								"astId": 1177,
								"contract": "smart_contracts/contracts/BaseERC20.sol:BaseERC20",
								"label": "maxSupply",
								"offset": 0,
								"slot": "3",
								"type": "t_uint256"
							},
							{
								"astId": 1179,
								"contract": "smart_contracts/contracts/BaseERC20.sol:BaseERC20",
								"label": "totalSupply",
								"offset": 0,
								"slot": "4",
								"type": "t_uint256"
							},
							{
								"astId": 1181,
								"contract": "smart_contracts/contracts/BaseERC20.sol:BaseERC20",
								"label": "totalVested",
								"offset": 0,
								"slot": "5",
								"type": "t_uint256"
							},
							{
								"astId": 1183,
								"contract": "smart_contracts/contracts/BaseERC20.sol:BaseERC20",
								"label": "totalStaked",
								"offset": 0,
								"slot": "6",
								"type": "t_uint256"
							}
						],
						"numberOfBytes": "224"
					},
					"t_struct(VestingSchedule)1239_storage": {
						"encoding": "inplace",
						"label": "struct Vesting.VestingSchedule",
						"members": [
							{
								"astId": 1232,
								"contract": "smart_contracts/contracts/BaseERC20.sol:BaseERC20",
								"label": "amount",
								"offset": 0,
								"slot": "0",
								"type": "t_uint256"
							},
							{
								"astId": 1234,
								"contract": "smart_contracts/contracts/BaseERC20.sol:BaseERC20",
								"label": "start",
								"offset": 0,
								"slot": "1",
								"type": "t_uint256"
							},
							{
								"astId": 1236,
								"contract": "smart_contracts/contracts/BaseERC20.sol:BaseERC20",
								"label": "end",
								"offset": 0,
								"slot": "2",
								"type": "t_uint256"
							},
							{
								"astId": 1238,
								"contract": "smart_contracts/contracts/BaseERC20.sol:BaseERC20",
								"label": "released",
								"offset": 0,
								"slot": "3",
								"type": "t_uint256"
							}
						],
						"numberOfBytes": "128"
					},
					"t_uint256": {
						"encoding": "inplace",
						"label": "uint256",
						"numberOfBytes": "32"
					}
				}
			},
			"userdoc": {
				"kind": "user",
				"methods": {},
				"version": 1
			}
		}
	}
}