{
	"smart_contracts/contracts/Token.sol": {
		"Authenticator": {
			"abi": [
				{
					"inputs": [
						{
							"internalType": "address",
							"name": "_owner",
							"type": "address"
						}
					],
					"name": "grantPermissionAdmin",
					"outputs": [
						{
							"internalType": "bool",
							"name": "",
							"type": "bool"
						}
					],
					"stateMutability": "nonpayable",
					"type": "function"
				},
				{
					"inputs": [
						{
							"internalType": "address",
							"name": "_owner",
							"type": "address"
						}
					],
					"name": "revokePermissionAdmin",
					"outputs": [
						{
							"internalType": "bool",
							"name": "",
							"type": "bool"
						}
					],
					"stateMutability": "nonpayable",
					"type": "function"
				}
			],
			"devdoc": {
				"kind": "dev",
				"methods": {},
				"version": 1
			},
			"evm": {
				"assembly": "    /* \"smart_contracts/contracts/Token.sol\":3143:3813  contract Authenticator is IAuthenticator, State {... */\n  mstore(0x40, 0xa0)\n    /* \"smart_contracts/contracts/Token.sol\":1511:1528  type(uint256).max */\n  0xffffffffffffffffffffffffffffffffffffffffffffffffffffffffffffffff\n    /* \"smart_contracts/contracts/Token.sol\":1482:1528  uint256 immutable INFINITE = type(uint256).max */\n  0x80\n  swap1\n  dup2\n  mstore\n  pop\n    /* \"smart_contracts/contracts/Token.sol\":3143:3813  contract Authenticator is IAuthenticator, State {... */\n  callvalue\n  dup1\n  iszero\n  tag_1\n  jumpi\n  0x00\n  dup1\n  revert\ntag_1:\n  pop\n  mload(0x80)\n  codecopy(0x00, dataOffset(sub_0), dataSize(sub_0))\n  0x00\n  assignImmutable(\"0x845e9c18ca148a712f01bf14c91c3e2fe352eabe86c44817e3f33b63f585a343\")\n  return(0x00, dataSize(sub_0))\nstop\n\nsub_0: assembly {\n        /* \"smart_contracts/contracts/Token.sol\":3143:3813  contract Authenticator is IAuthenticator, State {... */\n      mstore(0x40, 0x80)\n      callvalue\n      dup1\n      iszero\n      tag_1\n      jumpi\n      0x00\n      dup1\n      revert\n    tag_1:\n      pop\n      jumpi(tag_2, lt(calldatasize, 0x04))\n      shr(0xe0, calldataload(0x00))\n      dup1\n      0x96b75b1a\n      eq\n      tag_3\n      jumpi\n      dup1\n      0xdb3c5fca\n      eq\n      tag_4\n      jumpi\n    tag_2:\n      0x00\n      dup1\n      revert\n        /* \"smart_contracts/contracts/Token.sol\":3334:3568  function grantPermissionAdmin(address _owner) public onlyAdmin returns (bool) {... */\n    tag_3:\n      tag_5\n      0x04\n      dup1\n      calldatasize\n      sub\n      dup2\n      add\n      swap1\n      tag_6\n      swap2\n      swap1\n      tag_7\n      jump\t// in\n    tag_6:\n      tag_8\n      jump\t// in\n    tag_5:\n      mload(0x40)\n      tag_9\n      swap2\n      swap1\n      tag_10\n      jump\t// in\n    tag_9:\n      mload(0x40)\n      dup1\n      swap2\n      sub\n      swap1\n      return\n        /* \"smart_contracts/contracts/Token.sol\":3574:3811  function revokePermissionAdmin(address _owner) public onlyAdmin returns (bool) {... */\n    tag_4:\n      tag_11\n      0x04\n      dup1\n      calldatasize\n      sub\n      dup2\n      add\n      swap1\n      tag_12\n      swap2\n      swap1\n      tag_7\n      jump\t// in\n    tag_12:\n      tag_13\n      jump\t// in\n    tag_11:\n      mload(0x40)\n      tag_14\n      swap2\n      swap1\n      tag_10\n      jump\t// in\n    tag_14:\n      mload(0x40)\n      dup1\n      swap2\n      sub\n      swap1\n      return\n        /* \"smart_contracts/contracts/Token.sol\":3334:3568  function grantPermissionAdmin(address _owner) public onlyAdmin returns (bool) {... */\n    tag_8:\n        /* \"smart_contracts/contracts/Token.sol\":3406:3410  bool */\n      0x00\n        /* \"smart_contracts/contracts/Token.sol\":3271:3275  true */\n      0x01\n        /* \"smart_contracts/contracts/Token.sol\":3250:3275  admin[msg.sender] == true */\n      iszero\n      iszero\n        /* \"smart_contracts/contracts/Token.sol\":3250:3255  admin */\n      0x00\n        /* \"smart_contracts/contracts/Token.sol\":3250:3267  admin[msg.sender] */\n      dup1\n        /* \"smart_contracts/contracts/Token.sol\":3256:3266  msg.sender */\n      caller\n        /* \"smart_contracts/contracts/Token.sol\":3250:3267  admin[msg.sender] */\n      0xffffffffffffffffffffffffffffffffffffffff\n      and\n      0xffffffffffffffffffffffffffffffffffffffff\n      and\n      dup2\n      mstore\n      0x20\n      add\n      swap1\n      dup2\n      mstore\n      0x20\n      add\n      0x00\n      keccak256\n      0x00\n      swap1\n      sload\n      swap1\n      0x0100\n      exp\n      swap1\n      div\n      0xff\n      and\n        /* \"smart_contracts/contracts/Token.sol\":3250:3275  admin[msg.sender] == true */\n      iszero\n      iszero\n      eq\n        /* \"smart_contracts/contracts/Token.sol\":3229:3310  require(... */\n      tag_16\n      jumpi\n      mload(0x40)\n      0x08c379a000000000000000000000000000000000000000000000000000000000\n      dup2\n      mstore\n      0x04\n      add\n      tag_17\n      swap1\n      tag_18\n      jump\t// in\n    tag_17:\n      mload(0x40)\n      dup1\n      swap2\n      sub\n      swap1\n      revert\n    tag_16:\n        /* \"smart_contracts/contracts/Token.sol\":3461:3462  0 */\n      0x00\n        /* \"smart_contracts/contracts/Token.sol\":3443:3463  _owner != address(0) */\n      0xffffffffffffffffffffffffffffffffffffffff\n      and\n        /* \"smart_contracts/contracts/Token.sol\":3443:3449  _owner */\n      dup3\n        /* \"smart_contracts/contracts/Token.sol\":3443:3463  _owner != address(0) */\n      0xffffffffffffffffffffffffffffffffffffffff\n      and\n      eq\n      iszero\n        /* \"smart_contracts/contracts/Token.sol\":3443:3500  _owner != address(0) &&... */\n      dup1\n      iszero\n      tag_20\n      jumpi\n      pop\n        /* \"smart_contracts/contracts/Token.sol\":3496:3500  true */\n      0x01\n        /* \"smart_contracts/contracts/Token.sol\":3479:3500  admin[_owner] != true */\n      iszero\n      iszero\n        /* \"smart_contracts/contracts/Token.sol\":3479:3484  admin */\n      0x00\n        /* \"smart_contracts/contracts/Token.sol\":3479:3492  admin[_owner] */\n      dup1\n        /* \"smart_contracts/contracts/Token.sol\":3485:3491  _owner */\n      dup5\n        /* \"smart_contracts/contracts/Token.sol\":3479:3492  admin[_owner] */\n      0xffffffffffffffffffffffffffffffffffffffff\n      and\n      0xffffffffffffffffffffffffffffffffffffffff\n      and\n      dup2\n      mstore\n      0x20\n      add\n      swap1\n      dup2\n      mstore\n      0x20\n      add\n      0x00\n      keccak256\n      0x00\n      swap1\n      sload\n      swap1\n      0x0100\n      exp\n      swap1\n      div\n      0xff\n      and\n        /* \"smart_contracts/contracts/Token.sol\":3479:3500  admin[_owner] != true */\n      iszero\n      iszero\n      eq\n      iszero\n        /* \"smart_contracts/contracts/Token.sol\":3443:3500  _owner != address(0) &&... */\n    tag_20:\n        /* \"smart_contracts/contracts/Token.sol\":3422:3510  require(... */\n      tag_21\n      jumpi\n      0x00\n      dup1\n      revert\n    tag_21:\n        /* \"smart_contracts/contracts/Token.sol\":3536:3540  true */\n      0x01\n        /* \"smart_contracts/contracts/Token.sol\":3520:3525  admin */\n      0x00\n        /* \"smart_contracts/contracts/Token.sol\":3520:3533  admin[_owner] */\n      dup1\n        /* \"smart_contracts/contracts/Token.sol\":3526:3532  _owner */\n      dup5\n        /* \"smart_contracts/contracts/Token.sol\":3520:3533  admin[_owner] */\n      0xffffffffffffffffffffffffffffffffffffffff\n      and\n      0xffffffffffffffffffffffffffffffffffffffff\n      and\n      dup2\n      mstore\n      0x20\n      add\n      swap1\n      dup2\n      mstore\n      0x20\n      add\n      0x00\n      keccak256\n      0x00\n        /* \"smart_contracts/contracts/Token.sol\":3520:3540  admin[_owner] = true */\n      0x0100\n      exp\n      dup2\n      sload\n      dup2\n      0xff\n      mul\n      not\n      and\n      swap1\n      dup4\n      iszero\n      iszero\n      mul\n      or\n      swap1\n      sstore\n      pop\n        /* \"smart_contracts/contracts/Token.sol\":3557:3561  true */\n      0x01\n        /* \"smart_contracts/contracts/Token.sol\":3550:3561  return true */\n      swap1\n      pop\n        /* \"smart_contracts/contracts/Token.sol\":3334:3568  function grantPermissionAdmin(address _owner) public onlyAdmin returns (bool) {... */\n      swap2\n      swap1\n      pop\n      jump\t// out\n        /* \"smart_contracts/contracts/Token.sol\":3574:3811  function revokePermissionAdmin(address _owner) public onlyAdmin returns (bool) {... */\n    tag_13:\n        /* \"smart_contracts/contracts/Token.sol\":3647:3651  bool */\n      0x00\n        /* \"smart_contracts/contracts/Token.sol\":3271:3275  true */\n      0x01\n        /* \"smart_contracts/contracts/Token.sol\":3250:3275  admin[msg.sender] == true */\n      iszero\n      iszero\n        /* \"smart_contracts/contracts/Token.sol\":3250:3255  admin */\n      0x00\n        /* \"smart_contracts/contracts/Token.sol\":3250:3267  admin[msg.sender] */\n      dup1\n        /* \"smart_contracts/contracts/Token.sol\":3256:3266  msg.sender */\n      caller\n        /* \"smart_contracts/contracts/Token.sol\":3250:3267  admin[msg.sender] */\n      0xffffffffffffffffffffffffffffffffffffffff\n      and\n      0xffffffffffffffffffffffffffffffffffffffff\n      and\n      dup2\n      mstore\n      0x20\n      add\n      swap1\n      dup2\n      mstore\n      0x20\n      add\n      0x00\n      keccak256\n      0x00\n      swap1\n      sload\n      swap1\n      0x0100\n      exp\n      swap1\n      div\n      0xff\n      and\n        /* \"smart_contracts/contracts/Token.sol\":3250:3275  admin[msg.sender] == true */\n      iszero\n      iszero\n      eq\n        /* \"smart_contracts/contracts/Token.sol\":3229:3310  require(... */\n      tag_23\n      jumpi\n      mload(0x40)\n      0x08c379a000000000000000000000000000000000000000000000000000000000\n      dup2\n      mstore\n      0x04\n      add\n      tag_24\n      swap1\n      tag_18\n      jump\t// in\n    tag_24:\n      mload(0x40)\n      dup1\n      swap2\n      sub\n      swap1\n      revert\n    tag_23:\n        /* \"smart_contracts/contracts/Token.sol\":3702:3703  0 */\n      0x00\n        /* \"smart_contracts/contracts/Token.sol\":3684:3704  _owner != address(0) */\n      0xffffffffffffffffffffffffffffffffffffffff\n      and\n        /* \"smart_contracts/contracts/Token.sol\":3684:3690  _owner */\n      dup3\n        /* \"smart_contracts/contracts/Token.sol\":3684:3704  _owner != address(0) */\n      0xffffffffffffffffffffffffffffffffffffffff\n      and\n      eq\n      iszero\n        /* \"smart_contracts/contracts/Token.sol\":3684:3742  _owner != address(0) &&... */\n      dup1\n      iszero\n      tag_26\n      jumpi\n      pop\n        /* \"smart_contracts/contracts/Token.sol\":3737:3742  false */\n      0x00\n        /* \"smart_contracts/contracts/Token.sol\":3720:3742  admin[_owner] != false */\n      iszero\n      iszero\n        /* \"smart_contracts/contracts/Token.sol\":3720:3725  admin */\n      0x00\n        /* \"smart_contracts/contracts/Token.sol\":3720:3733  admin[_owner] */\n      dup1\n        /* \"smart_contracts/contracts/Token.sol\":3726:3732  _owner */\n      dup5\n        /* \"smart_contracts/contracts/Token.sol\":3720:3733  admin[_owner] */\n      0xffffffffffffffffffffffffffffffffffffffff\n      and\n      0xffffffffffffffffffffffffffffffffffffffff\n      and\n      dup2\n      mstore\n      0x20\n      add\n      swap1\n      dup2\n      mstore\n      0x20\n      add\n      0x00\n      keccak256\n      0x00\n      swap1\n      sload\n      swap1\n      0x0100\n      exp\n      swap1\n      div\n      0xff\n      and\n        /* \"smart_contracts/contracts/Token.sol\":3720:3742  admin[_owner] != false */\n      iszero\n      iszero\n      eq\n      iszero\n        /* \"smart_contracts/contracts/Token.sol\":3684:3742  _owner != address(0) &&... */\n    tag_26:\n        /* \"smart_contracts/contracts/Token.sol\":3663:3752  require(... */\n      tag_27\n      jumpi\n      0x00\n      dup1\n      revert\n    tag_27:\n        /* \"smart_contracts/contracts/Token.sol\":3778:3783  false */\n      0x00\n        /* \"smart_contracts/contracts/Token.sol\":3762:3767  admin */\n      dup1\n        /* \"smart_contracts/contracts/Token.sol\":3762:3775  admin[_owner] */\n      0x00\n        /* \"smart_contracts/contracts/Token.sol\":3768:3774  _owner */\n      dup5\n        /* \"smart_contracts/contracts/Token.sol\":3762:3775  admin[_owner] */\n      0xffffffffffffffffffffffffffffffffffffffff\n      and\n      0xffffffffffffffffffffffffffffffffffffffff\n      and\n      dup2\n      mstore\n      0x20\n      add\n      swap1\n      dup2\n      mstore\n      0x20\n      add\n      0x00\n      keccak256\n      0x00\n        /* \"smart_contracts/contracts/Token.sol\":3762:3783  admin[_owner] = false */\n      0x0100\n      exp\n      dup2\n      sload\n      dup2\n      0xff\n      mul\n      not\n      and\n      swap1\n      dup4\n      iszero\n      iszero\n      mul\n      or\n      swap1\n      sstore\n      pop\n        /* \"smart_contracts/contracts/Token.sol\":3800:3804  true */\n      0x01\n        /* \"smart_contracts/contracts/Token.sol\":3793:3804  return true */\n      swap1\n      pop\n        /* \"smart_contracts/contracts/Token.sol\":3574:3811  function revokePermissionAdmin(address _owner) public onlyAdmin returns (bool) {... */\n      swap2\n      swap1\n      pop\n      jump\t// out\n        /* \"#utility.yul\":88:205   */\n    tag_29:\n        /* \"#utility.yul\":197:198   */\n      0x00\n        /* \"#utility.yul\":194:195   */\n      dup1\n        /* \"#utility.yul\":187:199   */\n      revert\n        /* \"#utility.yul\":334:460   */\n    tag_31:\n        /* \"#utility.yul\":371:378   */\n      0x00\n        /* \"#utility.yul\":411:453   */\n      0xffffffffffffffffffffffffffffffffffffffff\n        /* \"#utility.yul\":404:409   */\n      dup3\n        /* \"#utility.yul\":400:454   */\n      and\n        /* \"#utility.yul\":389:454   */\n      swap1\n      pop\n        /* \"#utility.yul\":334:460   */\n      swap2\n      swap1\n      pop\n      jump\t// out\n        /* \"#utility.yul\":466:562   */\n    tag_32:\n        /* \"#utility.yul\":503:510   */\n      0x00\n        /* \"#utility.yul\":532:556   */\n      tag_46\n        /* \"#utility.yul\":550:555   */\n      dup3\n        /* \"#utility.yul\":532:556   */\n      tag_31\n      jump\t// in\n    tag_46:\n        /* \"#utility.yul\":521:556   */\n      swap1\n      pop\n        /* \"#utility.yul\":466:562   */\n      swap2\n      swap1\n      pop\n      jump\t// out\n        /* \"#utility.yul\":568:690   */\n    tag_33:\n        /* \"#utility.yul\":641:665   */\n      tag_48\n        /* \"#utility.yul\":659:664   */\n      dup2\n        /* \"#utility.yul\":641:665   */\n      tag_32\n      jump\t// in\n    tag_48:\n        /* \"#utility.yul\":634:639   */\n      dup2\n        /* \"#utility.yul\":631:666   */\n      eq\n        /* \"#utility.yul\":621:684   */\n      tag_49\n      jumpi\n        /* \"#utility.yul\":680:681   */\n      0x00\n        /* \"#utility.yul\":677:678   */\n      dup1\n        /* \"#utility.yul\":670:682   */\n      revert\n        /* \"#utility.yul\":621:684   */\n    tag_49:\n        /* \"#utility.yul\":568:690   */\n      pop\n      jump\t// out\n        /* \"#utility.yul\":696:835   */\n    tag_34:\n        /* \"#utility.yul\":742:747   */\n      0x00\n        /* \"#utility.yul\":780:786   */\n      dup2\n        /* \"#utility.yul\":767:787   */\n      calldataload\n        /* \"#utility.yul\":758:787   */\n      swap1\n      pop\n        /* \"#utility.yul\":796:829   */\n      tag_51\n        /* \"#utility.yul\":823:828   */\n      dup2\n        /* \"#utility.yul\":796:829   */\n      tag_33\n      jump\t// in\n    tag_51:\n        /* \"#utility.yul\":696:835   */\n      swap3\n      swap2\n      pop\n      pop\n      jump\t// out\n        /* \"#utility.yul\":841:1170   */\n    tag_7:\n        /* \"#utility.yul\":900:906   */\n      0x00\n        /* \"#utility.yul\":949:951   */\n      0x20\n        /* \"#utility.yul\":937:946   */\n      dup3\n        /* \"#utility.yul\":928:935   */\n      dup5\n        /* \"#utility.yul\":924:947   */\n      sub\n        /* \"#utility.yul\":920:952   */\n      slt\n        /* \"#utility.yul\":917:1036   */\n      iszero\n      tag_53\n      jumpi\n        /* \"#utility.yul\":955:1034   */\n      tag_54\n      tag_29\n      jump\t// in\n    tag_54:\n        /* \"#utility.yul\":917:1036   */\n    tag_53:\n        /* \"#utility.yul\":1075:1076   */\n      0x00\n        /* \"#utility.yul\":1100:1153   */\n      tag_55\n        /* \"#utility.yul\":1145:1152   */\n      dup5\n        /* \"#utility.yul\":1136:1142   */\n      dup3\n        /* \"#utility.yul\":1125:1134   */\n      dup6\n        /* \"#utility.yul\":1121:1143   */\n      add\n        /* \"#utility.yul\":1100:1153   */\n      tag_34\n      jump\t// in\n    tag_55:\n        /* \"#utility.yul\":1090:1153   */\n      swap2\n      pop\n        /* \"#utility.yul\":1046:1163   */\n      pop\n        /* \"#utility.yul\":841:1170   */\n      swap3\n      swap2\n      pop\n      pop\n      jump\t// out\n        /* \"#utility.yul\":1176:1266   */\n    tag_35:\n        /* \"#utility.yul\":1210:1217   */\n      0x00\n        /* \"#utility.yul\":1253:1258   */\n      dup2\n        /* \"#utility.yul\":1246:1259   */\n      iszero\n        /* \"#utility.yul\":1239:1260   */\n      iszero\n        /* \"#utility.yul\":1228:1260   */\n      swap1\n      pop\n        /* \"#utility.yul\":1176:1266   */\n      swap2\n      swap1\n      pop\n      jump\t// out\n        /* \"#utility.yul\":1272:1381   */\n    tag_36:\n        /* \"#utility.yul\":1353:1374   */\n      tag_58\n        /* \"#utility.yul\":1368:1373   */\n      dup2\n        /* \"#utility.yul\":1353:1374   */\n      tag_35\n      jump\t// in\n    tag_58:\n        /* \"#utility.yul\":1348:1351   */\n      dup3\n        /* \"#utility.yul\":1341:1375   */\n      mstore\n        /* \"#utility.yul\":1272:1381   */\n      pop\n      pop\n      jump\t// out\n        /* \"#utility.yul\":1387:1597   */\n    tag_10:\n        /* \"#utility.yul\":1474:1478   */\n      0x00\n        /* \"#utility.yul\":1512:1514   */\n      0x20\n        /* \"#utility.yul\":1501:1510   */\n      dup3\n        /* \"#utility.yul\":1497:1515   */\n      add\n        /* \"#utility.yul\":1489:1515   */\n      swap1\n      pop\n        /* \"#utility.yul\":1525:1590   */\n      tag_60\n        /* \"#utility.yul\":1587:1588   */\n      0x00\n        /* \"#utility.yul\":1576:1585   */\n      dup4\n        /* \"#utility.yul\":1572:1589   */\n      add\n        /* \"#utility.yul\":1563:1569   */\n      dup5\n        /* \"#utility.yul\":1525:1590   */\n      tag_36\n      jump\t// in\n    tag_60:\n        /* \"#utility.yul\":1387:1597   */\n      swap3\n      swap2\n      pop\n      pop\n      jump\t// out\n        /* \"#utility.yul\":1603:1772   */\n    tag_37:\n        /* \"#utility.yul\":1687:1698   */\n      0x00\n        /* \"#utility.yul\":1721:1727   */\n      dup3\n        /* \"#utility.yul\":1716:1719   */\n      dup3\n        /* \"#utility.yul\":1709:1728   */\n      mstore\n        /* \"#utility.yul\":1761:1765   */\n      0x20\n        /* \"#utility.yul\":1756:1759   */\n      dup3\n        /* \"#utility.yul\":1752:1766   */\n      add\n        /* \"#utility.yul\":1737:1766   */\n      swap1\n      pop\n        /* \"#utility.yul\":1603:1772   */\n      swap3\n      swap2\n      pop\n      pop\n      jump\t// out\n        /* \"#utility.yul\":1778:1937   */\n    tag_38:\n        /* \"#utility.yul\":1918:1929   */\n      0x6f6e6c7941646d696e0000000000000000000000000000000000000000000000\n        /* \"#utility.yul\":1914:1915   */\n      0x00\n        /* \"#utility.yul\":1906:1912   */\n      dup3\n        /* \"#utility.yul\":1902:1916   */\n      add\n        /* \"#utility.yul\":1895:1930   */\n      mstore\n        /* \"#utility.yul\":1778:1937   */\n      pop\n      jump\t// out\n        /* \"#utility.yul\":1943:2308   */\n    tag_39:\n        /* \"#utility.yul\":2085:2088   */\n      0x00\n        /* \"#utility.yul\":2106:2172   */\n      tag_64\n        /* \"#utility.yul\":2170:2171   */\n      0x09\n        /* \"#utility.yul\":2165:2168   */\n      dup4\n        /* \"#utility.yul\":2106:2172   */\n      tag_37\n      jump\t// in\n    tag_64:\n        /* \"#utility.yul\":2099:2172   */\n      swap2\n      pop\n        /* \"#utility.yul\":2181:2274   */\n      tag_65\n        /* \"#utility.yul\":2270:2273   */\n      dup3\n        /* \"#utility.yul\":2181:2274   */\n      tag_38\n      jump\t// in\n    tag_65:\n        /* \"#utility.yul\":2299:2301   */\n      0x20\n        /* \"#utility.yul\":2294:2297   */\n      dup3\n        /* \"#utility.yul\":2290:2302   */\n      add\n        /* \"#utility.yul\":2283:2302   */\n      swap1\n      pop\n        /* \"#utility.yul\":1943:2308   */\n      swap2\n      swap1\n      pop\n      jump\t// out\n        /* \"#utility.yul\":2314:2733   */\n    tag_18:\n        /* \"#utility.yul\":2480:2484   */\n      0x00\n        /* \"#utility.yul\":2518:2520   */\n      0x20\n        /* \"#utility.yul\":2507:2516   */\n      dup3\n        /* \"#utility.yul\":2503:2521   */\n      add\n        /* \"#utility.yul\":2495:2521   */\n      swap1\n      pop\n        /* \"#utility.yul\":2567:2576   */\n      dup2\n        /* \"#utility.yul\":2561:2565   */\n      dup2\n        /* \"#utility.yul\":2557:2577   */\n      sub\n        /* \"#utility.yul\":2553:2554   */\n      0x00\n        /* \"#utility.yul\":2542:2551   */\n      dup4\n        /* \"#utility.yul\":2538:2555   */\n      add\n        /* \"#utility.yul\":2531:2578   */\n      mstore\n        /* \"#utility.yul\":2595:2726   */\n      tag_67\n        /* \"#utility.yul\":2721:2725   */\n      dup2\n        /* \"#utility.yul\":2595:2726   */\n      tag_39\n      jump\t// in\n    tag_67:\n        /* \"#utility.yul\":2587:2726   */\n      swap1\n      pop\n        /* \"#utility.yul\":2314:2733   */\n      swap2\n      swap1\n      pop\n      jump\t// out\n\n    auxdata: 0xa2646970667358221220f3ed0b575079a767485e326e26f0b68b95f103a32451fa2775f915a986ebf8e164736f6c63430008120033\n}\n",
				"bytecode": {
					"linkReferences": {},
					"object": "60a06040527fffffffffffffffffffffffffffffffffffffffffffffffffffffffffffffffff60809081525034801561003757600080fd5b50608051610528610050600039600050506105286000f3fe608060405234801561001057600080fd5b50600436106100365760003560e01c806396b75b1a1461003b578063db3c5fca1461006b575b600080fd5b61005560048036038101906100509190610412565b61009b565b604051610062919061045a565b60405180910390f35b61008560048036038101906100809190610412565b610225565b604051610092919061045a565b60405180910390f35b6000600115156000803373ffffffffffffffffffffffffffffffffffffffff1673ffffffffffffffffffffffffffffffffffffffff16815260200190815260200160002060009054906101000a900460ff1615151461012f576040517f08c379a0000000000000000000000000000000000000000000000000000000008152600401610126906104d2565b60405180910390fd5b600073ffffffffffffffffffffffffffffffffffffffff168273ffffffffffffffffffffffffffffffffffffffff16141580156101bc5750600115156000808473ffffffffffffffffffffffffffffffffffffffff1673ffffffffffffffffffffffffffffffffffffffff16815260200190815260200160002060009054906101000a900460ff16151514155b6101c557600080fd5b60016000808473ffffffffffffffffffffffffffffffffffffffff1673ffffffffffffffffffffffffffffffffffffffff16815260200190815260200160002060006101000a81548160ff02191690831515021790555060019050919050565b6000600115156000803373ffffffffffffffffffffffffffffffffffffffff1673ffffffffffffffffffffffffffffffffffffffff16815260200190815260200160002060009054906101000a900460ff161515146102b9576040517f08c379a00000000000000000000000000000000000000000000000000000000081526004016102b0906104d2565b60405180910390fd5b600073ffffffffffffffffffffffffffffffffffffffff168273ffffffffffffffffffffffffffffffffffffffff16141580156103465750600015156000808473ffffffffffffffffffffffffffffffffffffffff1673ffffffffffffffffffffffffffffffffffffffff16815260200190815260200160002060009054906101000a900460ff16151514155b61034f57600080fd5b60008060008473ffffffffffffffffffffffffffffffffffffffff1673ffffffffffffffffffffffffffffffffffffffff16815260200190815260200160002060006101000a81548160ff02191690831515021790555060019050919050565b600080fd5b600073ffffffffffffffffffffffffffffffffffffffff82169050919050565b60006103df826103b4565b9050919050565b6103ef816103d4565b81146103fa57600080fd5b50565b60008135905061040c816103e6565b92915050565b600060208284031215610428576104276103af565b5b6000610436848285016103fd565b91505092915050565b60008115159050919050565b6104548161043f565b82525050565b600060208201905061046f600083018461044b565b92915050565b600082825260208201905092915050565b7f6f6e6c7941646d696e0000000000000000000000000000000000000000000000600082015250565b60006104bc600983610475565b91506104c782610486565b602082019050919050565b600060208201905081810360008301526104eb816104af565b905091905056fea2646970667358221220f3ed0b575079a767485e326e26f0b68b95f103a32451fa2775f915a986ebf8e164736f6c63430008120033",
					"opcodes": "PUSH1 0xA0 PUSH1 0x40 MSTORE PUSH32 0xFFFFFFFFFFFFFFFFFFFFFFFFFFFFFFFFFFFFFFFFFFFFFFFFFFFFFFFFFFFFFFFF PUSH1 0x80 SWAP1 DUP2 MSTORE POP CALLVALUE DUP1 ISZERO PUSH2 0x37 JUMPI PUSH1 0x0 DUP1 REVERT JUMPDEST POP PUSH1 0x80 MLOAD PUSH2 0x528 PUSH2 0x50 PUSH1 0x0 CODECOPY PUSH1 0x0 POP POP PUSH2 0x528 PUSH1 0x0 RETURN INVALID PUSH1 0x80 PUSH1 0x40 MSTORE CALLVALUE DUP1 ISZERO PUSH2 0x10 JUMPI PUSH1 0x0 DUP1 REVERT JUMPDEST POP PUSH1 0x4 CALLDATASIZE LT PUSH2 0x36 JUMPI PUSH1 0x0 CALLDATALOAD PUSH1 0xE0 SHR DUP1 PUSH4 0x96B75B1A EQ PUSH2 0x3B JUMPI DUP1 PUSH4 0xDB3C5FCA EQ PUSH2 0x6B JUMPI JUMPDEST PUSH1 0x0 DUP1 REVERT JUMPDEST PUSH2 0x55 PUSH1 0x4 DUP1 CALLDATASIZE SUB DUP2 ADD SWAP1 PUSH2 0x50 SWAP2 SWAP1 PUSH2 0x412 JUMP JUMPDEST PUSH2 0x9B JUMP JUMPDEST PUSH1 0x40 MLOAD PUSH2 0x62 SWAP2 SWAP1 PUSH2 0x45A JUMP JUMPDEST PUSH1 0x40 MLOAD DUP1 SWAP2 SUB SWAP1 RETURN JUMPDEST PUSH2 0x85 PUSH1 0x4 DUP1 CALLDATASIZE SUB DUP2 ADD SWAP1 PUSH2 0x80 SWAP2 SWAP1 PUSH2 0x412 JUMP JUMPDEST PUSH2 0x225 JUMP JUMPDEST PUSH1 0x40 MLOAD PUSH2 0x92 SWAP2 SWAP1 PUSH2 0x45A JUMP JUMPDEST PUSH1 0x40 MLOAD DUP1 SWAP2 SUB SWAP1 RETURN JUMPDEST PUSH1 0x0 PUSH1 0x1 ISZERO ISZERO PUSH1 0x0 DUP1 CALLER PUSH20 0xFFFFFFFFFFFFFFFFFFFFFFFFFFFFFFFFFFFFFFFF AND PUSH20 0xFFFFFFFFFFFFFFFFFFFFFFFFFFFFFFFFFFFFFFFF AND DUP2 MSTORE PUSH1 0x20 ADD SWAP1 DUP2 MSTORE PUSH1 0x20 ADD PUSH1 0x0 KECCAK256 PUSH1 0x0 SWAP1 SLOAD SWAP1 PUSH2 0x100 EXP SWAP1 DIV PUSH1 0xFF AND ISZERO ISZERO EQ PUSH2 0x12F JUMPI PUSH1 0x40 MLOAD PUSH32 0x8C379A000000000000000000000000000000000000000000000000000000000 DUP2 MSTORE PUSH1 0x4 ADD PUSH2 0x126 SWAP1 PUSH2 0x4D2 JUMP JUMPDEST PUSH1 0x40 MLOAD DUP1 SWAP2 SUB SWAP1 REVERT JUMPDEST PUSH1 0x0 PUSH20 0xFFFFFFFFFFFFFFFFFFFFFFFFFFFFFFFFFFFFFFFF AND DUP3 PUSH20 0xFFFFFFFFFFFFFFFFFFFFFFFFFFFFFFFFFFFFFFFF AND EQ ISZERO DUP1 ISZERO PUSH2 0x1BC JUMPI POP PUSH1 0x1 ISZERO ISZERO PUSH1 0x0 DUP1 DUP5 PUSH20 0xFFFFFFFFFFFFFFFFFFFFFFFFFFFFFFFFFFFFFFFF AND PUSH20 0xFFFFFFFFFFFFFFFFFFFFFFFFFFFFFFFFFFFFFFFF AND DUP2 MSTORE PUSH1 0x20 ADD SWAP1 DUP2 MSTORE PUSH1 0x20 ADD PUSH1 0x0 KECCAK256 PUSH1 0x0 SWAP1 SLOAD SWAP1 PUSH2 0x100 EXP SWAP1 DIV PUSH1 0xFF AND ISZERO ISZERO EQ ISZERO JUMPDEST PUSH2 0x1C5 JUMPI PUSH1 0x0 DUP1 REVERT JUMPDEST PUSH1 0x1 PUSH1 0x0 DUP1 DUP5 PUSH20 0xFFFFFFFFFFFFFFFFFFFFFFFFFFFFFFFFFFFFFFFF AND PUSH20 0xFFFFFFFFFFFFFFFFFFFFFFFFFFFFFFFFFFFFFFFF AND DUP2 MSTORE PUSH1 0x20 ADD SWAP1 DUP2 MSTORE PUSH1 0x20 ADD PUSH1 0x0 KECCAK256 PUSH1 0x0 PUSH2 0x100 EXP DUP2 SLOAD DUP2 PUSH1 0xFF MUL NOT AND SWAP1 DUP4 ISZERO ISZERO MUL OR SWAP1 SSTORE POP PUSH1 0x1 SWAP1 POP SWAP2 SWAP1 POP JUMP JUMPDEST PUSH1 0x0 PUSH1 0x1 ISZERO ISZERO PUSH1 0x0 DUP1 CALLER PUSH20 0xFFFFFFFFFFFFFFFFFFFFFFFFFFFFFFFFFFFFFFFF AND PUSH20 0xFFFFFFFFFFFFFFFFFFFFFFFFFFFFFFFFFFFFFFFF AND DUP2 MSTORE PUSH1 0x20 ADD SWAP1 DUP2 MSTORE PUSH1 0x20 ADD PUSH1 0x0 KECCAK256 PUSH1 0x0 SWAP1 SLOAD SWAP1 PUSH2 0x100 EXP SWAP1 DIV PUSH1 0xFF AND ISZERO ISZERO EQ PUSH2 0x2B9 JUMPI PUSH1 0x40 MLOAD PUSH32 0x8C379A000000000000000000000000000000000000000000000000000000000 DUP2 MSTORE PUSH1 0x4 ADD PUSH2 0x2B0 SWAP1 PUSH2 0x4D2 JUMP JUMPDEST PUSH1 0x40 MLOAD DUP1 SWAP2 SUB SWAP1 REVERT JUMPDEST PUSH1 0x0 PUSH20 0xFFFFFFFFFFFFFFFFFFFFFFFFFFFFFFFFFFFFFFFF AND DUP3 PUSH20 0xFFFFFFFFFFFFFFFFFFFFFFFFFFFFFFFFFFFFFFFF AND EQ ISZERO DUP1 ISZERO PUSH2 0x346 JUMPI POP PUSH1 0x0 ISZERO ISZERO PUSH1 0x0 DUP1 DUP5 PUSH20 0xFFFFFFFFFFFFFFFFFFFFFFFFFFFFFFFFFFFFFFFF AND PUSH20 0xFFFFFFFFFFFFFFFFFFFFFFFFFFFFFFFFFFFFFFFF AND DUP2 MSTORE PUSH1 0x20 ADD SWAP1 DUP2 MSTORE PUSH1 0x20 ADD PUSH1 0x0 KECCAK256 PUSH1 0x0 SWAP1 SLOAD SWAP1 PUSH2 0x100 EXP SWAP1 DIV PUSH1 0xFF AND ISZERO ISZERO EQ ISZERO JUMPDEST PUSH2 0x34F JUMPI PUSH1 0x0 DUP1 REVERT JUMPDEST PUSH1 0x0 DUP1 PUSH1 0x0 DUP5 PUSH20 0xFFFFFFFFFFFFFFFFFFFFFFFFFFFFFFFFFFFFFFFF AND PUSH20 0xFFFFFFFFFFFFFFFFFFFFFFFFFFFFFFFFFFFFFFFF AND DUP2 MSTORE PUSH1 0x20 ADD SWAP1 DUP2 MSTORE PUSH1 0x20 ADD PUSH1 0x0 KECCAK256 PUSH1 0x0 PUSH2 0x100 EXP DUP2 SLOAD DUP2 PUSH1 0xFF MUL NOT AND SWAP1 DUP4 ISZERO ISZERO MUL OR SWAP1 SSTORE POP PUSH1 0x1 SWAP1 POP SWAP2 SWAP1 POP JUMP JUMPDEST PUSH1 0x0 DUP1 REVERT JUMPDEST PUSH1 0x0 PUSH20 0xFFFFFFFFFFFFFFFFFFFFFFFFFFFFFFFFFFFFFFFF DUP3 AND SWAP1 POP SWAP2 SWAP1 POP JUMP JUMPDEST PUSH1 0x0 PUSH2 0x3DF DUP3 PUSH2 0x3B4 JUMP JUMPDEST SWAP1 POP SWAP2 SWAP1 POP JUMP JUMPDEST PUSH2 0x3EF DUP2 PUSH2 0x3D4 JUMP JUMPDEST DUP2 EQ PUSH2 0x3FA JUMPI PUSH1 0x0 DUP1 REVERT JUMPDEST POP JUMP JUMPDEST PUSH1 0x0 DUP2 CALLDATALOAD SWAP1 POP PUSH2 0x40C DUP2 PUSH2 0x3E6 JUMP JUMPDEST SWAP3 SWAP2 POP POP JUMP JUMPDEST PUSH1 0x0 PUSH1 0x20 DUP3 DUP5 SUB SLT ISZERO PUSH2 0x428 JUMPI PUSH2 0x427 PUSH2 0x3AF JUMP JUMPDEST JUMPDEST PUSH1 0x0 PUSH2 0x436 DUP5 DUP3 DUP6 ADD PUSH2 0x3FD JUMP JUMPDEST SWAP2 POP POP SWAP3 SWAP2 POP POP JUMP JUMPDEST PUSH1 0x0 DUP2 ISZERO ISZERO SWAP1 POP SWAP2 SWAP1 POP JUMP JUMPDEST PUSH2 0x454 DUP2 PUSH2 0x43F JUMP JUMPDEST DUP3 MSTORE POP POP JUMP JUMPDEST PUSH1 0x0 PUSH1 0x20 DUP3 ADD SWAP1 POP PUSH2 0x46F PUSH1 0x0 DUP4 ADD DUP5 PUSH2 0x44B JUMP JUMPDEST SWAP3 SWAP2 POP POP JUMP JUMPDEST PUSH1 0x0 DUP3 DUP3 MSTORE PUSH1 0x20 DUP3 ADD SWAP1 POP SWAP3 SWAP2 POP POP JUMP JUMPDEST PUSH32 0x6F6E6C7941646D696E0000000000000000000000000000000000000000000000 PUSH1 0x0 DUP3 ADD MSTORE POP JUMP JUMPDEST PUSH1 0x0 PUSH2 0x4BC PUSH1 0x9 DUP4 PUSH2 0x475 JUMP JUMPDEST SWAP2 POP PUSH2 0x4C7 DUP3 PUSH2 0x486 JUMP JUMPDEST PUSH1 0x20 DUP3 ADD SWAP1 POP SWAP2 SWAP1 POP JUMP JUMPDEST PUSH1 0x0 PUSH1 0x20 DUP3 ADD SWAP1 POP DUP2 DUP2 SUB PUSH1 0x0 DUP4 ADD MSTORE PUSH2 0x4EB DUP2 PUSH2 0x4AF JUMP JUMPDEST SWAP1 POP SWAP2 SWAP1 POP JUMP INVALID LOG2 PUSH5 0x6970667358 0x22 SLT KECCAK256 RETURN 0xED SIGNEXTEND JUMPI POP PUSH26 0xA767485E326E26F0B68B95F103A32451FA2775F915A986EBF8E1 PUSH5 0x736F6C6343 STOP ADDMOD SLT STOP CALLER "
				},
				"gasEstimates": {
					"creation": {
						"codeDepositCost": "264000",
						"executionCost": "infinite",
						"totalCost": "infinite"
					},
					"external": {
						"grantPermissionAdmin(address)": "29562",
						"revokePermissionAdmin(address)": "29584"
					}
				},
				"methodIdentifiers": {
					"grantPermissionAdmin(address)": "96b75b1a",
					"revokePermissionAdmin(address)": "db3c5fca"
				}
			},
			"storageLayout": {
				"storage": [
					{
						"astId": 104,
						"contract": "smart_contracts/contracts/Token.sol:Authenticator",
						"label": "admin",
						"offset": 0,
						"slot": "0",
						"type": "t_mapping(t_address,t_bool)"
					},
					{
						"astId": 141,
						"contract": "smart_contracts/contracts/Token.sol:Authenticator",
						"label": "settings",
						"offset": 0,
						"slot": "1",
						"type": "t_struct(Settings)100_storage"
					},
					{
						"astId": 144,
						"contract": "smart_contracts/contracts/Token.sol:Authenticator",
						"label": "meta",
						"offset": 0,
						"slot": "7",
						"type": "t_struct(Meta)125_storage"
					},
					{
						"astId": 148,
						"contract": "smart_contracts/contracts/Token.sol:Authenticator",
						"label": "balance",
						"offset": 0,
						"slot": "17",
						"type": "t_mapping(t_address,t_uint256)"
					},
					{
						"astId": 152,
						"contract": "smart_contracts/contracts/Token.sol:Authenticator",
						"label": "staked",
						"offset": 0,
						"slot": "18",
						"type": "t_mapping(t_address,t_uint256)"
					},
					{
						"astId": 156,
						"contract": "smart_contracts/contracts/Token.sol:Authenticator",
						"label": "votes",
						"offset": 0,
						"slot": "19",
						"type": "t_mapping(t_address,t_uint256)"
					},
					{
						"astId": 162,
						"contract": "smart_contracts/contracts/Token.sol:Authenticator",
						"label": "allowed",
						"offset": 0,
						"slot": "20",
						"type": "t_mapping(t_address,t_mapping(t_address,t_uint256))"
					},
					{
						"astId": 169,
						"contract": "smart_contracts/contracts/Token.sol:Authenticator",
						"label": "schedules",
						"offset": 0,
						"slot": "21",
						"type": "t_mapping(t_address,t_mapping(t_string_memory_ptr,t_struct(VestingSchedule)138_storage))"
					}
				],
				"types": {
					"t_address": {
						"encoding": "inplace",
						"label": "address",
						"numberOfBytes": "20"
					},
					"t_bool": {
						"encoding": "inplace",
						"label": "bool",
						"numberOfBytes": "1"
					},
					"t_mapping(t_address,t_bool)": {
						"encoding": "mapping",
						"key": "t_address",
						"label": "mapping(address => bool)",
						"numberOfBytes": "32",
						"value": "t_bool"
					},
					"t_mapping(t_address,t_mapping(t_address,t_uint256))": {
						"encoding": "mapping",
						"key": "t_address",
						"label": "mapping(address => mapping(address => uint256))",
						"numberOfBytes": "32",
						"value": "t_mapping(t_address,t_uint256)"
					},
					"t_mapping(t_address,t_mapping(t_string_memory_ptr,t_struct(VestingSchedule)138_storage))": {
						"encoding": "mapping",
						"key": "t_address",
						"label": "mapping(address => mapping(string => struct State.VestingSchedule))",
						"numberOfBytes": "32",
						"value": "t_mapping(t_string_memory_ptr,t_struct(VestingSchedule)138_storage)"
					},
					"t_mapping(t_address,t_uint256)": {
						"encoding": "mapping",
						"key": "t_address",
						"label": "mapping(address => uint256)",
						"numberOfBytes": "32",
						"value": "t_uint256"
					},
					"t_mapping(t_string_memory_ptr,t_struct(VestingSchedule)138_storage)": {
						"encoding": "mapping",
						"key": "t_string_memory_ptr",
						"label": "mapping(string => struct State.VestingSchedule)",
						"numberOfBytes": "32",
						"value": "t_struct(VestingSchedule)138_storage"
					},
					"t_string_memory_ptr": {
						"encoding": "bytes",
						"label": "string",
						"numberOfBytes": "32"
					},
					"t_string_storage": {
						"encoding": "bytes",
						"label": "string",
						"numberOfBytes": "32"
					},
					"t_struct(Meta)125_storage": {
						"encoding": "inplace",
						"label": "struct State.Meta",
						"members": [
							{
								"astId": 106,
								"contract": "smart_contracts/contracts/Token.sol:Authenticator",
								"label": "name",
								"offset": 0,
								"slot": "0",
								"type": "t_string_storage"
							},
							{
								"astId": 108,
								"contract": "smart_contracts/contracts/Token.sol:Authenticator",
								"label": "symbol",
								"offset": 0,
								"slot": "1",
								"type": "t_string_storage"
							},
							{
								"astId": 110,
								"contract": "smart_contracts/contracts/Token.sol:Authenticator",
								"label": "decimals",
								"offset": 0,
								"slot": "2",
								"type": "t_uint8"
							},
							{
								"astId": 112,
								"contract": "smart_contracts/contracts/Token.sol:Authenticator",
								"label": "mintable",
								"offset": 0,
								"slot": "3",
								"type": "t_uint256"
							},
							{
								"astId": 114,
								"contract": "smart_contracts/contracts/Token.sol:Authenticator",
								"label": "totalSupply",
								"offset": 0,
								"slot": "4",
								"type": "t_uint256"
							},
							{
								"astId": 116,
								"contract": "smart_contracts/contracts/Token.sol:Authenticator",
								"label": "totalStaked",
								"offset": 0,
								"slot": "5",
								"type": "t_uint256"
							},
							{
								"astId": 118,
								"contract": "smart_contracts/contracts/Token.sol:Authenticator",
								"label": "totalVested",
								"offset": 0,
								"slot": "6",
								"type": "t_uint256"
							},
							{
								"astId": 120,
								"contract": "smart_contracts/contracts/Token.sol:Authenticator",
								"label": "totalVotes",
								"offset": 0,
								"slot": "7",
								"type": "t_uint256"
							},
							{
								"astId": 122,
								"contract": "smart_contracts/contracts/Token.sol:Authenticator",
								"label": "maxSupply",
								"offset": 0,
								"slot": "8",
								"type": "t_uint256"
							},
							{
								"astId": 124,
								"contract": "smart_contracts/contracts/Token.sol:Authenticator",
								"label": "vault",
								"offset": 0,
								"slot": "9",
								"type": "t_address"
							}
						],
						"numberOfBytes": "320"
					},
					"t_struct(Settings)100_storage": {
						"encoding": "inplace",
						"label": "struct State.Settings",
						"members": [
							{
								"astId": 89,
								"contract": "smart_contracts/contracts/Token.sol:Authenticator",
								"label": "bpTransferBurnMin",
								"offset": 0,
								"slot": "0",
								"type": "t_uint256"
							},
							{
								"astId": 91,
								"contract": "smart_contracts/contracts/Token.sol:Authenticator",
								"label": "bpTransferBankMin",
								"offset": 0,
								"slot": "1",
								"type": "t_uint256"
							},
							{
								"astId": 93,
								"contract": "smart_contracts/contracts/Token.sol:Authenticator",
								"label": "bpTransferBurnMax",
								"offset": 0,
								"slot": "2",
								"type": "t_uint256"
							},
							{
								"astId": 95,
								"contract": "smart_contracts/contracts/Token.sol:Authenticator",
								"label": "bpTransferBankMax",
								"offset": 0,
								"slot": "3",
								"type": "t_uint256"
							},
							{
								"astId": 97,
								"contract": "smart_contracts/contracts/Token.sol:Authenticator",
								"label": "bpTransferBurn",
								"offset": 0,
								"slot": "4",
								"type": "t_uint256"
							},
							{
								"astId": 99,
								"contract": "smart_contracts/contracts/Token.sol:Authenticator",
								"label": "bpTransferBank",
								"offset": 0,
								"slot": "5",
								"type": "t_uint256"
							}
						],
						"numberOfBytes": "192"
					},
					"t_struct(VestingSchedule)138_storage": {
						"encoding": "inplace",
						"label": "struct State.VestingSchedule",
						"members": [
							{
								"astId": 127,
								"contract": "smart_contracts/contracts/Token.sol:Authenticator",
								"label": "caption",
								"offset": 0,
								"slot": "0",
								"type": "t_string_storage"
							},
							{
								"astId": 129,
								"contract": "smart_contracts/contracts/Token.sol:Authenticator",
								"label": "duration",
								"offset": 0,
								"slot": "1",
								"type": "t_uint256"
							},
							{
								"astId": 131,
								"contract": "smart_contracts/contracts/Token.sol:Authenticator",
								"label": "start",
								"offset": 0,
								"slot": "2",
								"type": "t_uint256"
							},
							{
								"astId": 133,
								"contract": "smart_contracts/contracts/Token.sol:Authenticator",
								"label": "end",
								"offset": 0,
								"slot": "3",
								"type": "t_uint256"
							},
							{
								"astId": 135,
								"contract": "smart_contracts/contracts/Token.sol:Authenticator",
								"label": "value",
								"offset": 0,
								"slot": "4",
								"type": "t_uint256"
							},
							{
								"astId": 137,
								"contract": "smart_contracts/contracts/Token.sol:Authenticator",
								"label": "used",
								"offset": 0,
								"slot": "5",
								"type": "t_bool"
							}
						],
						"numberOfBytes": "192"
					},
					"t_uint256": {
						"encoding": "inplace",
						"label": "uint256",
						"numberOfBytes": "32"
					},
					"t_uint8": {
						"encoding": "inplace",
						"label": "uint8",
						"numberOfBytes": "1"
					}
				}
			},
			"userdoc": {
				"kind": "user",
				"methods": {},
				"version": 1
			}
		}
	}
}