{
	"smart_contracts/contracts/Token.sol": {
		"Token": {
			"abi": [
				{
					"inputs": [],
					"stateMutability": "nonpayable",
					"type": "constructor"
				},
				{
					"anonymous": false,
					"inputs": [
						{
							"indexed": true,
							"internalType": "address",
							"name": "_owner",
							"type": "address"
						},
						{
							"indexed": true,
							"internalType": "address",
							"name": "_spender",
							"type": "address"
						},
						{
							"indexed": false,
							"internalType": "uint256",
							"name": "_value",
							"type": "uint256"
						}
					],
					"name": "Approval",
					"type": "event"
				},
				{
					"anonymous": false,
					"inputs": [
						{
							"indexed": true,
							"internalType": "address",
							"name": "_from",
							"type": "address"
						},
						{
							"indexed": true,
							"internalType": "address",
							"name": "_to",
							"type": "address"
						},
						{
							"indexed": false,
							"internalType": "uint256",
							"name": "_value",
							"type": "uint256"
						}
					],
					"name": "Transfer",
					"type": "event"
				},
				{
					"inputs": [
						{
							"internalType": "address",
							"name": "_owner",
							"type": "address"
						},
						{
							"internalType": "address",
							"name": "_spender",
							"type": "address"
						}
					],
					"name": "allowance",
					"outputs": [
						{
							"internalType": "uint256",
							"name": "remaining",
							"type": "uint256"
						}
					],
					"stateMutability": "view",
					"type": "function"
				},
				{
					"inputs": [
						{
							"internalType": "address",
							"name": "_spender",
							"type": "address"
						},
						{
							"internalType": "uint256",
							"name": "_value",
							"type": "uint256"
						}
					],
					"name": "approve",
					"outputs": [
						{
							"internalType": "bool",
							"name": "success",
							"type": "bool"
						}
					],
					"stateMutability": "nonpayable",
					"type": "function"
				},
				{
					"inputs": [
						{
							"internalType": "address",
							"name": "_owner",
							"type": "address"
						}
					],
					"name": "balanceOf",
					"outputs": [
						{
							"internalType": "uint256",
							"name": "",
							"type": "uint256"
						}
					],
					"stateMutability": "view",
					"type": "function"
				},
				{
					"inputs": [],
					"name": "decimals",
					"outputs": [
						{
							"internalType": "uint8",
							"name": "",
							"type": "uint8"
						}
					],
					"stateMutability": "view",
					"type": "function"
				},
				{
					"inputs": [
						{
							"internalType": "address",
							"name": "_spender",
							"type": "address"
						},
						{
							"internalType": "uint256",
							"name": "_value",
							"type": "uint256"
						}
					],
					"name": "decreaseAllowance",
					"outputs": [
						{
							"internalType": "bool",
							"name": "",
							"type": "bool"
						}
					],
					"stateMutability": "nonpayable",
					"type": "function"
				},
				{
					"inputs": [
						{
							"internalType": "address",
							"name": "_spender",
							"type": "address"
						},
						{
							"internalType": "uint256",
							"name": "_value",
							"type": "uint256"
						}
					],
					"name": "increaseAllowance",
					"outputs": [
						{
							"internalType": "bool",
							"name": "",
							"type": "bool"
						}
					],
					"stateMutability": "nonpayable",
					"type": "function"
				},
				{
					"inputs": [],
					"name": "maxSupply",
					"outputs": [
						{
							"internalType": "uint256",
							"name": "",
							"type": "uint256"
						}
					],
					"stateMutability": "view",
					"type": "function"
				},
				{
					"inputs": [],
					"name": "name",
					"outputs": [
						{
							"internalType": "string",
							"name": "",
							"type": "string"
						}
					],
					"stateMutability": "view",
					"type": "function"
				},
				{
					"inputs": [
						{
							"internalType": "string",
							"name": "_id",
							"type": "string"
						}
					],
					"name": "release",
					"outputs": [
						{
							"internalType": "bool",
							"name": "",
							"type": "bool"
						}
					],
					"stateMutability": "nonpayable",
					"type": "function"
				},
				{
					"inputs": [
						{
							"internalType": "bool",
							"name": "_is",
							"type": "bool"
						}
					],
					"name": "setStateIsMintable",
					"outputs": [
						{
							"internalType": "bool",
							"name": "",
							"type": "bool"
						}
					],
					"stateMutability": "nonpayable",
					"type": "function"
				},
				{
					"inputs": [
						{
							"internalType": "bool",
							"name": "_is",
							"type": "bool"
						}
					],
					"name": "setStateIsPaused",
					"outputs": [
						{
							"internalType": "bool",
							"name": "",
							"type": "bool"
						}
					],
					"stateMutability": "nonpayable",
					"type": "function"
				},
				{
					"inputs": [
						{
							"internalType": "bool",
							"name": "_is",
							"type": "bool"
						}
					],
					"name": "setStateIsTransferable",
					"outputs": [
						{
							"internalType": "bool",
							"name": "",
							"type": "bool"
						}
					],
					"stateMutability": "nonpayable",
					"type": "function"
				},
				{
					"inputs": [
						{
							"internalType": "uint256",
							"name": "_value",
							"type": "uint256"
						}
					],
					"name": "stake",
					"outputs": [
						{
							"internalType": "bool",
							"name": "",
							"type": "bool"
						}
					],
					"stateMutability": "nonpayable",
					"type": "function"
				},
				{
					"inputs": [
						{
							"internalType": "address",
							"name": "_owner",
							"type": "address"
						}
					],
					"name": "stakeOf",
					"outputs": [
						{
							"internalType": "uint256",
							"name": "",
							"type": "uint256"
						}
					],
					"stateMutability": "view",
					"type": "function"
				},
				{
					"inputs": [],
					"name": "symbol",
					"outputs": [
						{
							"internalType": "string",
							"name": "",
							"type": "string"
						}
					],
					"stateMutability": "view",
					"type": "function"
				},
				{
					"inputs": [],
					"name": "totalSupply",
					"outputs": [
						{
							"internalType": "uint256",
							"name": "",
							"type": "uint256"
						}
					],
					"stateMutability": "view",
					"type": "function"
				},
				{
					"inputs": [
						{
							"internalType": "address",
							"name": "_to",
							"type": "address"
						},
						{
							"internalType": "uint256",
							"name": "_value",
							"type": "uint256"
						}
					],
					"name": "transfer",
					"outputs": [
						{
							"internalType": "bool",
							"name": "",
							"type": "bool"
						}
					],
					"stateMutability": "nonpayable",
					"type": "function"
				},
				{
					"inputs": [
						{
							"internalType": "address",
							"name": "_from",
							"type": "address"
						},
						{
							"internalType": "address",
							"name": "_to",
							"type": "address"
						},
						{
							"internalType": "uint256",
							"name": "_value",
							"type": "uint256"
						}
					],
					"name": "transferFrom",
					"outputs": [
						{
							"internalType": "bool",
							"name": "",
							"type": "bool"
						}
					],
					"stateMutability": "nonpayable",
					"type": "function"
				},
				{
					"inputs": [
						{
							"internalType": "uint256",
							"name": "_value",
							"type": "uint256"
						}
					],
					"name": "unstake",
					"outputs": [
						{
							"internalType": "bool",
							"name": "",
							"type": "bool"
						}
					],
					"stateMutability": "nonpayable",
					"type": "function"
				},
				{
					"inputs": [
						{
							"internalType": "address",
							"name": "_owner",
							"type": "address"
						}
					],
					"name": "votesOf",
					"outputs": [
						{
							"internalType": "uint256",
							"name": "",
							"type": "uint256"
						}
					],
					"stateMutability": "view",
					"type": "function"
				}
			],
			"devdoc": {
				"kind": "dev",
				"methods": {},
				"version": 1
			},
			"evm": {
				"assembly": "    /* \"smart_contracts/contracts/Token.sol\":4103:12412  contract Token is TokenState {... */\n  mstore(0x40, 0x80)\n    /* \"smart_contracts/contracts/Authenticator.sol\":166:183  Terminal.sender() */\n  tag_1\n    /* \"smart_contracts/contracts/Authenticator.sol\":166:181  Terminal.sender */\n  or(tag_0_112, shl(0x20, tag_2))\n    /* \"smart_contracts/contracts/Authenticator.sol\":166:183  Terminal.sender() */\n  0x20\n  shr\n  jump\t// in\ntag_1:\n    /* \"smart_contracts/contracts/Authenticator.sol\":151:183  address sndr = Terminal.sender() */\n  0x00\n  dup1\n  0x0100\n  exp\n  dup2\n  sload\n  dup2\n  0xffffffffffffffffffffffffffffffffffffffff\n  mul\n  not\n  and\n  swap1\n  dup4\n  0xffffffffffffffffffffffffffffffffffffffff\n  and\n  mul\n  or\n  swap1\n  sstore\n  pop\n    /* \"smart_contracts/contracts/Token.sol\":4312:5050  constructor() {... */\n  callvalue\n  dup1\n  iszero\n  tag_3\n  jumpi\n  0x00\n  dup1\n  revert\ntag_3:\n  pop\n    /* \"smart_contracts/contracts/Token.sol\":4336:4362  meta.name = \"Dreamcatcher\" */\n  mload(0x40)\n  dup1\n  0x40\n  add\n  0x40\n  mstore\n  dup1\n  0x0c\n  dup2\n  mstore\n  0x20\n  add\n  0x447265616d636174636865720000000000000000000000000000000000000000\n  dup2\n  mstore\n  pop\n    /* \"smart_contracts/contracts/Token.sol\":4336:4340  meta */\n  0x13\n    /* \"smart_contracts/contracts/Token.sol\":4336:4345  meta.name */\n  0x00\n  add\n    /* \"smart_contracts/contracts/Token.sol\":4336:4362  meta.name = \"Dreamcatcher\" */\n  swap1\n  dup2\n  tag_8\n  swap2\n  swap1\n  tag_9\n  jump\t// in\ntag_8:\n  pop\n    /* \"smart_contracts/contracts/Token.sol\":4372:4393  meta.symbol = \"DREAM\" */\n  mload(0x40)\n  dup1\n  0x40\n  add\n  0x40\n  mstore\n  dup1\n  0x05\n  dup2\n  mstore\n  0x20\n  add\n  0x445245414d000000000000000000000000000000000000000000000000000000\n  dup2\n  mstore\n  pop\n    /* \"smart_contracts/contracts/Token.sol\":4372:4376  meta */\n  0x13\n    /* \"smart_contracts/contracts/Token.sol\":4372:4383  meta.symbol */\n  0x01\n  add\n    /* \"smart_contracts/contracts/Token.sol\":4372:4393  meta.symbol = \"DREAM\" */\n  swap1\n  dup2\n  tag_10\n  swap2\n  swap1\n  tag_9\n  jump\t// in\ntag_10:\n  pop\n    /* \"smart_contracts/contracts/Token.sol\":4419:4421  18 */\n  0x12\n    /* \"smart_contracts/contracts/Token.sol\":4403:4407  meta */\n  0x13\n    /* \"smart_contracts/contracts/Token.sol\":4403:4416  meta.decimals */\n  0x02\n  add\n  0x00\n    /* \"smart_contracts/contracts/Token.sol\":4403:4421  meta.decimals = 18 */\n  0x0100\n  exp\n  dup2\n  sload\n  dup2\n  0xff\n  mul\n  not\n  and\n  swap1\n  dup4\n  0xff\n  and\n  mul\n  or\n  swap1\n  sstore\n  pop\n    /* \"smart_contracts/contracts/Token.sol\":4450:4451  0 */\n  0x00\n    /* \"smart_contracts/contracts/Token.sol\":4431:4435  meta */\n  0x13\n    /* \"smart_contracts/contracts/Token.sol\":4431:4447  meta.totalSupply */\n  0x03\n  add\n    /* \"smart_contracts/contracts/Token.sol\":4431:4451  meta.totalSupply = 0 */\n  dup2\n  swap1\n  sstore\n  pop\n    /* \"smart_contracts/contracts/Token.sol\":4591:4595  meta */\n  0x13\n    /* \"smart_contracts/contracts/Token.sol\":4591:4604  meta.decimals */\n  0x02\n  add\n  0x00\n  swap1\n  sload\n  swap1\n  0x0100\n  exp\n  swap1\n  div\n  0xff\n  and\n    /* \"smart_contracts/contracts/Token.sol\":4587:4589  10 */\n  0x0a\n    /* \"smart_contracts/contracts/Token.sol\":4587:4604  10**meta.decimals */\n  tag_11\n  swap2\n  swap1\n  tag_12\n  jump\t// in\ntag_11:\n    /* \"smart_contracts/contracts/Token.sol\":4575:4584  200000000 */\n  0x0bebc200\n    /* \"smart_contracts/contracts/Token.sol\":4575:4604  200000000 * 10**meta.decimals */\n  tag_13\n  swap2\n  swap1\n  tag_14\n  jump\t// in\ntag_13:\n    /* \"smart_contracts/contracts/Token.sol\":4558:4562  meta */\n  0x13\n    /* \"smart_contracts/contracts/Token.sol\":4558:4572  meta.maxSupply */\n  0x06\n  add\n    /* \"smart_contracts/contracts/Token.sol\":4558:4604  meta.maxSupply = 200000000 * 10**meta.decimals */\n  dup2\n  swap1\n  sstore\n  pop\n    /* \"smart_contracts/contracts/Token.sol\":4689:4693  sndr */\n  0x00\n  dup1\n  sload\n  swap1\n  0x0100\n  exp\n  swap1\n  div\n  0xffffffffffffffffffffffffffffffffffffffff\n  and\n    /* \"smart_contracts/contracts/Token.sol\":4677:4681  meta */\n  0x13\n    /* \"smart_contracts/contracts/Token.sol\":4677:4686  meta.bank */\n  0x07\n  add\n  0x00\n    /* \"smart_contracts/contracts/Token.sol\":4677:4693  meta.bank = sndr */\n  0x0100\n  exp\n  dup2\n  sload\n  dup2\n  0xffffffffffffffffffffffffffffffffffffffff\n  mul\n  not\n  and\n  swap1\n  dup4\n  0xffffffffffffffffffffffffffffffffffffffff\n  and\n  mul\n  or\n  swap1\n  sstore\n  pop\n    /* \"smart_contracts/contracts/Token.sol\":4716:4720  sndr */\n  0x00\n  dup1\n  sload\n  swap1\n  0x0100\n  exp\n  swap1\n  div\n  0xffffffffffffffffffffffffffffffffffffffff\n  and\n    /* \"smart_contracts/contracts/Token.sol\":4703:4707  meta */\n  0x13\n    /* \"smart_contracts/contracts/Token.sol\":4703:4713  meta.vault */\n  0x08\n  add\n  0x00\n    /* \"smart_contracts/contracts/Token.sol\":4703:4720  meta.vault = sndr */\n  0x0100\n  exp\n  dup2\n  sload\n  dup2\n  0xffffffffffffffffffffffffffffffffffffffff\n  mul\n  not\n  and\n  swap1\n  dup4\n  0xffffffffffffffffffffffffffffffffffffffff\n  and\n  mul\n  or\n  swap1\n  sstore\n  pop\n    /* \"smart_contracts/contracts/Token.sol\":4756:4757  0 */\n  0x00\n    /* \"smart_contracts/contracts/Token.sol\":4730:4738  settings */\n  0x09\n    /* \"smart_contracts/contracts/Token.sol\":4730:4753  settings.bpTransferBurn */\n  0x02\n  add\n    /* \"smart_contracts/contracts/Token.sol\":4730:4757  settings.bpTransferBurn = 0 */\n  dup2\n  swap1\n  sstore\n  pop\n    /* \"smart_contracts/contracts/Token.sol\":4842:4843  0 */\n  0x00\n    /* \"smart_contracts/contracts/Token.sol\":4816:4824  settings */\n  0x09\n    /* \"smart_contracts/contracts/Token.sol\":4816:4839  settings.bpTransferBank */\n  0x03\n  add\n    /* \"smart_contracts/contracts/Token.sol\":4816:4843  settings.bpTransferBank = 0 */\n  dup2\n  swap1\n  sstore\n  pop\n    /* \"smart_contracts/contracts/Token.sol\":4963:4964  1 */\n  0x01\n    /* \"smart_contracts/contracts/Token.sol\":4918:4926  settings */\n  0x09\n    /* \"smart_contracts/contracts/Token.sol\":4918:4941  settings.VotingMechanic */\n  0x05\n  add\n    /* \"smart_contracts/contracts/Token.sol\":4918:4960  settings.VotingMechanic.voteWeightPerToken */\n  0x00\n  add\n    /* \"smart_contracts/contracts/Token.sol\":4918:4964  settings.VotingMechanic.voteWeightPerToken = 1 */\n  dup2\n  swap1\n  sstore\n  pop\n    /* \"smart_contracts/contracts/Token.sol\":4995:5043  mint_(meta.vault, 200000000 * 10**meta.decimals) */\n  tag_15\n    /* \"smart_contracts/contracts/Token.sol\":5001:5005  meta */\n  0x13\n    /* \"smart_contracts/contracts/Token.sol\":5001:5011  meta.vault */\n  0x08\n  add\n  0x00\n  swap1\n  sload\n  swap1\n  0x0100\n  exp\n  swap1\n  div\n  0xffffffffffffffffffffffffffffffffffffffff\n  and\n    /* \"smart_contracts/contracts/Token.sol\":5029:5033  meta */\n  0x13\n    /* \"smart_contracts/contracts/Token.sol\":5029:5042  meta.decimals */\n  0x02\n  add\n  0x00\n  swap1\n  sload\n  swap1\n  0x0100\n  exp\n  swap1\n  div\n  0xff\n  and\n    /* \"smart_contracts/contracts/Token.sol\":5025:5027  10 */\n  0x0a\n    /* \"smart_contracts/contracts/Token.sol\":5025:5042  10**meta.decimals */\n  tag_16\n  swap2\n  swap1\n  tag_12\n  jump\t// in\ntag_16:\n    /* \"smart_contracts/contracts/Token.sol\":5013:5022  200000000 */\n  0x0bebc200\n    /* \"smart_contracts/contracts/Token.sol\":5013:5042  200000000 * 10**meta.decimals */\n  tag_17\n  swap2\n  swap1\n  tag_14\n  jump\t// in\ntag_17:\n    /* \"smart_contracts/contracts/Token.sol\":4995:5000  mint_ */\n  shl(0x20, tag_18)\n    /* \"smart_contracts/contracts/Token.sol\":4995:5043  mint_(meta.vault, 200000000 * 10**meta.decimals) */\n  0x20\n  shr\n  jump\t// in\ntag_15:\n    /* \"smart_contracts/contracts/Token.sol\":4103:12412  contract Token is TokenState {... */\n  jump(tag_19)\n    /* \"smart_contracts/libraries/Terminal.sol\":500:570  function sender() internal view returns (address) {return msg.sender;} */\ntag_2:\n    /* \"smart_contracts/libraries/Terminal.sol\":541:548  address */\n  0x00\n    /* \"smart_contracts/libraries/Terminal.sol\":558:568  msg.sender */\n  caller\n    /* \"smart_contracts/libraries/Terminal.sol\":551:568  return msg.sender */\n  swap1\n  pop\n    /* \"smart_contracts/libraries/Terminal.sol\":500:570  function sender() internal view returns (address) {return msg.sender;} */\n  swap1\n  jump\t// out\n    /* \"smart_contracts/contracts/Token.sol\":5056:5314  function mint_(address _to, uint256 _value) private {... */\ntag_18:\n    /* \"smart_contracts/contracts/Token.sol\":5141:5142  0 */\n  0x00\n    /* \"smart_contracts/contracts/Token.sol\":5126:5143  _to != address(0) */\n  0xffffffffffffffffffffffffffffffffffffffff\n  and\n    /* \"smart_contracts/contracts/Token.sol\":5126:5129  _to */\n  dup3\n    /* \"smart_contracts/contracts/Token.sol\":5126:5143  _to != address(0) */\n  0xffffffffffffffffffffffffffffffffffffffff\n  and\n  eq\n  iszero\n    /* \"smart_contracts/contracts/Token.sol\":5126:5190  _to != address(0) && meta.totalSupply + _value <= meta.maxSupply */\n  dup1\n  iszero\n  tag_22\n  jumpi\n  pop\n    /* \"smart_contracts/contracts/Token.sol\":5176:5180  meta */\n  0x13\n    /* \"smart_contracts/contracts/Token.sol\":5176:5190  meta.maxSupply */\n  0x06\n  add\n  sload\n    /* \"smart_contracts/contracts/Token.sol\":5166:5172  _value */\n  dup2\n    /* \"smart_contracts/contracts/Token.sol\":5147:5151  meta */\n  0x13\n    /* \"smart_contracts/contracts/Token.sol\":5147:5163  meta.totalSupply */\n  0x03\n  add\n  sload\n    /* \"smart_contracts/contracts/Token.sol\":5147:5172  meta.totalSupply + _value */\n  tag_23\n  swap2\n  swap1\n  tag_24\n  jump\t// in\ntag_23:\n    /* \"smart_contracts/contracts/Token.sol\":5147:5190  meta.totalSupply + _value <= meta.maxSupply */\n  gt\n  iszero\n    /* \"smart_contracts/contracts/Token.sol\":5126:5190  _to != address(0) && meta.totalSupply + _value <= meta.maxSupply */\ntag_22:\n    /* \"smart_contracts/contracts/Token.sol\":5118:5191  require(_to != address(0) && meta.totalSupply + _value <= meta.maxSupply) */\n  tag_25\n  jumpi\n  0x00\n  dup1\n  revert\ntag_25:\n    /* \"smart_contracts/contracts/Token.sol\":5221:5227  _value */\n  dup1\n    /* \"smart_contracts/contracts/Token.sol\":5201:5205  meta */\n  0x13\n    /* \"smart_contracts/contracts/Token.sol\":5201:5217  meta.totalSupply */\n  0x03\n  add\n  0x00\n    /* \"smart_contracts/contracts/Token.sol\":5201:5227  meta.totalSupply += _value */\n  dup3\n  dup3\n  sload\n  tag_26\n  swap2\n  swap1\n  tag_24\n  jump\t// in\ntag_26:\n  swap3\n  pop\n  pop\n  dup2\n  swap1\n  sstore\n  pop\n    /* \"smart_contracts/contracts/Token.sol\":5253:5259  _value */\n  dup1\n    /* \"smart_contracts/contracts/Token.sol\":5237:5244  balance */\n  0x1d\n    /* \"smart_contracts/contracts/Token.sol\":5237:5249  balance[_to] */\n  0x00\n    /* \"smart_contracts/contracts/Token.sol\":5245:5248  _to */\n  dup5\n    /* \"smart_contracts/contracts/Token.sol\":5237:5249  balance[_to] */\n  0xffffffffffffffffffffffffffffffffffffffff\n  and\n  0xffffffffffffffffffffffffffffffffffffffff\n  and\n  dup2\n  mstore\n  0x20\n  add\n  swap1\n  dup2\n  mstore\n  0x20\n  add\n  0x00\n  keccak256\n  0x00\n    /* \"smart_contracts/contracts/Token.sol\":5237:5259  balance[_to] += _value */\n  dup3\n  dup3\n  sload\n  tag_27\n  swap2\n  swap1\n  tag_24\n  jump\t// in\ntag_27:\n  swap3\n  pop\n  pop\n  dup2\n  swap1\n  sstore\n  pop\n    /* \"smart_contracts/contracts/Token.sol\":5295:5298  _to */\n  dup2\n    /* \"smart_contracts/contracts/Token.sol\":5274:5307  Transfer(address(0), _to, _value) */\n  0xffffffffffffffffffffffffffffffffffffffff\n  and\n    /* \"smart_contracts/contracts/Token.sol\":5291:5292  0 */\n  0x00\n    /* \"smart_contracts/contracts/Token.sol\":5274:5307  Transfer(address(0), _to, _value) */\n  0xffffffffffffffffffffffffffffffffffffffff\n  and\n  0xddf252ad1be2c89b69c2b068fc378daa952ba7f163c4a11628f55a4df523b3ef\n    /* \"smart_contracts/contracts/Token.sol\":5300:5306  _value */\n  dup4\n    /* \"smart_contracts/contracts/Token.sol\":5274:5307  Transfer(address(0), _to, _value) */\n  mload(0x40)\n  tag_28\n  swap2\n  swap1\n  tag_29\n  jump\t// in\ntag_28:\n  mload(0x40)\n  dup1\n  swap2\n  sub\n  swap1\n  log3\n    /* \"smart_contracts/contracts/Token.sol\":5056:5314  function mint_(address _to, uint256 _value) private {... */\n  pop\n  pop\n  jump\t// out\n    /* \"#utility.yul\":7:106   */\ntag_30:\n    /* \"#utility.yul\":59:65   */\n  0x00\n    /* \"#utility.yul\":93:98   */\n  dup2\n    /* \"#utility.yul\":87:99   */\n  mload\n    /* \"#utility.yul\":77:99   */\n  swap1\n  pop\n    /* \"#utility.yul\":7:106   */\n  swap2\n  swap1\n  pop\n  jump\t// out\n    /* \"#utility.yul\":112:292   */\ntag_31:\n    /* \"#utility.yul\":160:237   */\n  0x4e487b7100000000000000000000000000000000000000000000000000000000\n    /* \"#utility.yul\":157:158   */\n  0x00\n    /* \"#utility.yul\":150:238   */\n  mstore\n    /* \"#utility.yul\":257:261   */\n  0x41\n    /* \"#utility.yul\":254:255   */\n  0x04\n    /* \"#utility.yul\":247:262   */\n  mstore\n    /* \"#utility.yul\":281:285   */\n  0x24\n    /* \"#utility.yul\":278:279   */\n  0x00\n    /* \"#utility.yul\":271:286   */\n  revert\n    /* \"#utility.yul\":298:478   */\ntag_32:\n    /* \"#utility.yul\":346:423   */\n  0x4e487b7100000000000000000000000000000000000000000000000000000000\n    /* \"#utility.yul\":343:344   */\n  0x00\n    /* \"#utility.yul\":336:424   */\n  mstore\n    /* \"#utility.yul\":443:447   */\n  0x22\n    /* \"#utility.yul\":440:441   */\n  0x04\n    /* \"#utility.yul\":433:448   */\n  mstore\n    /* \"#utility.yul\":467:471   */\n  0x24\n    /* \"#utility.yul\":464:465   */\n  0x00\n    /* \"#utility.yul\":457:472   */\n  revert\n    /* \"#utility.yul\":484:804   */\ntag_33:\n    /* \"#utility.yul\":528:534   */\n  0x00\n    /* \"#utility.yul\":565:566   */\n  0x02\n    /* \"#utility.yul\":559:563   */\n  dup3\n    /* \"#utility.yul\":555:567   */\n  div\n    /* \"#utility.yul\":545:567   */\n  swap1\n  pop\n    /* \"#utility.yul\":612:613   */\n  0x01\n    /* \"#utility.yul\":606:610   */\n  dup3\n    /* \"#utility.yul\":602:614   */\n  and\n    /* \"#utility.yul\":633:651   */\n  dup1\n    /* \"#utility.yul\":623:704   */\n  tag_61\n  jumpi\n    /* \"#utility.yul\":689:693   */\n  0x7f\n    /* \"#utility.yul\":681:687   */\n  dup3\n    /* \"#utility.yul\":677:694   */\n  and\n    /* \"#utility.yul\":667:694   */\n  swap2\n  pop\n    /* \"#utility.yul\":623:704   */\ntag_61:\n    /* \"#utility.yul\":751:753   */\n  0x20\n    /* \"#utility.yul\":743:749   */\n  dup3\n    /* \"#utility.yul\":740:754   */\n  lt\n    /* \"#utility.yul\":720:738   */\n  dup2\n    /* \"#utility.yul\":717:755   */\n  sub\n    /* \"#utility.yul\":714:798   */\n  tag_62\n  jumpi\n    /* \"#utility.yul\":770:788   */\n  tag_63\n  tag_32\n  jump\t// in\ntag_63:\n    /* \"#utility.yul\":714:798   */\ntag_62:\n    /* \"#utility.yul\":535:804   */\n  pop\n    /* \"#utility.yul\":484:804   */\n  swap2\n  swap1\n  pop\n  jump\t// out\n    /* \"#utility.yul\":810:951   */\ntag_34:\n    /* \"#utility.yul\":859:863   */\n  0x00\n    /* \"#utility.yul\":882:885   */\n  dup2\n    /* \"#utility.yul\":874:885   */\n  swap1\n  pop\n    /* \"#utility.yul\":905:908   */\n  dup2\n    /* \"#utility.yul\":902:903   */\n  0x00\n    /* \"#utility.yul\":895:909   */\n  mstore\n    /* \"#utility.yul\":939:943   */\n  0x20\n    /* \"#utility.yul\":936:937   */\n  0x00\n    /* \"#utility.yul\":926:944   */\n  keccak256\n    /* \"#utility.yul\":918:944   */\n  swap1\n  pop\n    /* \"#utility.yul\":810:951   */\n  swap2\n  swap1\n  pop\n  jump\t// out\n    /* \"#utility.yul\":957:1050   */\ntag_35:\n    /* \"#utility.yul\":994:1000   */\n  0x00\n    /* \"#utility.yul\":1041:1043   */\n  0x20\n    /* \"#utility.yul\":1036:1038   */\n  0x1f\n    /* \"#utility.yul\":1029:1034   */\n  dup4\n    /* \"#utility.yul\":1025:1039   */\n  add\n    /* \"#utility.yul\":1021:1044   */\n  div\n    /* \"#utility.yul\":1011:1044   */\n  swap1\n  pop\n    /* \"#utility.yul\":957:1050   */\n  swap2\n  swap1\n  pop\n  jump\t// out\n    /* \"#utility.yul\":1056:1163   */\ntag_36:\n    /* \"#utility.yul\":1100:1108   */\n  0x00\n    /* \"#utility.yul\":1150:1155   */\n  dup3\n    /* \"#utility.yul\":1144:1148   */\n  dup3\n    /* \"#utility.yul\":1140:1156   */\n  shl\n    /* \"#utility.yul\":1119:1156   */\n  swap1\n  pop\n    /* \"#utility.yul\":1056:1163   */\n  swap3\n  swap2\n  pop\n  pop\n  jump\t// out\n    /* \"#utility.yul\":1169:1562   */\ntag_37:\n    /* \"#utility.yul\":1238:1244   */\n  0x00\n    /* \"#utility.yul\":1288:1289   */\n  0x08\n    /* \"#utility.yul\":1276:1286   */\n  dup4\n    /* \"#utility.yul\":1272:1290   */\n  mul\n    /* \"#utility.yul\":1311:1408   */\n  tag_68\n    /* \"#utility.yul\":1341:1407   */\n  0xffffffffffffffffffffffffffffffffffffffffffffffffffffffffffffffff\n    /* \"#utility.yul\":1330:1339   */\n  dup3\n    /* \"#utility.yul\":1311:1408   */\n  tag_36\n  jump\t// in\ntag_68:\n    /* \"#utility.yul\":1429:1468   */\n  tag_69\n    /* \"#utility.yul\":1459:1467   */\n  dup7\n    /* \"#utility.yul\":1448:1457   */\n  dup4\n    /* \"#utility.yul\":1429:1468   */\n  tag_36\n  jump\t// in\ntag_69:\n    /* \"#utility.yul\":1417:1468   */\n  swap6\n  pop\n    /* \"#utility.yul\":1501:1505   */\n  dup1\n    /* \"#utility.yul\":1497:1506   */\n  not\n    /* \"#utility.yul\":1490:1495   */\n  dup5\n    /* \"#utility.yul\":1486:1507   */\n  and\n    /* \"#utility.yul\":1477:1507   */\n  swap4\n  pop\n    /* \"#utility.yul\":1550:1554   */\n  dup1\n    /* \"#utility.yul\":1540:1548   */\n  dup7\n    /* \"#utility.yul\":1536:1555   */\n  and\n    /* \"#utility.yul\":1529:1534   */\n  dup5\n    /* \"#utility.yul\":1526:1556   */\n  or\n    /* \"#utility.yul\":1516:1556   */\n  swap3\n  pop\n    /* \"#utility.yul\":1245:1562   */\n  pop\n  pop\n    /* \"#utility.yul\":1169:1562   */\n  swap4\n  swap3\n  pop\n  pop\n  pop\n  jump\t// out\n    /* \"#utility.yul\":1568:1645   */\ntag_38:\n    /* \"#utility.yul\":1605:1612   */\n  0x00\n    /* \"#utility.yul\":1634:1639   */\n  dup2\n    /* \"#utility.yul\":1623:1639   */\n  swap1\n  pop\n    /* \"#utility.yul\":1568:1645   */\n  swap2\n  swap1\n  pop\n  jump\t// out\n    /* \"#utility.yul\":1651:1711   */\ntag_39:\n    /* \"#utility.yul\":1679:1682   */\n  0x00\n    /* \"#utility.yul\":1700:1705   */\n  dup2\n    /* \"#utility.yul\":1693:1705   */\n  swap1\n  pop\n    /* \"#utility.yul\":1651:1711   */\n  swap2\n  swap1\n  pop\n  jump\t// out\n    /* \"#utility.yul\":1717:1859   */\ntag_40:\n    /* \"#utility.yul\":1767:1776   */\n  0x00\n    /* \"#utility.yul\":1800:1853   */\n  tag_73\n    /* \"#utility.yul\":1818:1852   */\n  tag_74\n    /* \"#utility.yul\":1827:1851   */\n  tag_75\n    /* \"#utility.yul\":1845:1850   */\n  dup5\n    /* \"#utility.yul\":1827:1851   */\n  tag_38\n  jump\t// in\ntag_75:\n    /* \"#utility.yul\":1818:1852   */\n  tag_39\n  jump\t// in\ntag_74:\n    /* \"#utility.yul\":1800:1853   */\n  tag_38\n  jump\t// in\ntag_73:\n    /* \"#utility.yul\":1787:1853   */\n  swap1\n  pop\n    /* \"#utility.yul\":1717:1859   */\n  swap2\n  swap1\n  pop\n  jump\t// out\n    /* \"#utility.yul\":1865:1940   */\ntag_41:\n    /* \"#utility.yul\":1908:1911   */\n  0x00\n    /* \"#utility.yul\":1929:1934   */\n  dup2\n    /* \"#utility.yul\":1922:1934   */\n  swap1\n  pop\n    /* \"#utility.yul\":1865:1940   */\n  swap2\n  swap1\n  pop\n  jump\t// out\n    /* \"#utility.yul\":1946:2215   */\ntag_42:\n    /* \"#utility.yul\":2056:2095   */\n  tag_78\n    /* \"#utility.yul\":2087:2094   */\n  dup4\n    /* \"#utility.yul\":2056:2095   */\n  tag_40\n  jump\t// in\ntag_78:\n    /* \"#utility.yul\":2117:2208   */\n  tag_79\n    /* \"#utility.yul\":2166:2207   */\n  tag_80\n    /* \"#utility.yul\":2190:2206   */\n  dup3\n    /* \"#utility.yul\":2166:2207   */\n  tag_41\n  jump\t// in\ntag_80:\n    /* \"#utility.yul\":2158:2164   */\n  dup5\n    /* \"#utility.yul\":2151:2155   */\n  dup5\n    /* \"#utility.yul\":2145:2156   */\n  sload\n    /* \"#utility.yul\":2117:2208   */\n  tag_37\n  jump\t// in\ntag_79:\n    /* \"#utility.yul\":2111:2115   */\n  dup3\n    /* \"#utility.yul\":2104:2209   */\n  sstore\n    /* \"#utility.yul\":2022:2215   */\n  pop\n    /* \"#utility.yul\":1946:2215   */\n  pop\n  pop\n  pop\n  jump\t// out\n    /* \"#utility.yul\":2221:2294   */\ntag_43:\n    /* \"#utility.yul\":2266:2269   */\n  0x00\n    /* \"#utility.yul\":2221:2294   */\n  swap1\n  jump\t// out\n    /* \"#utility.yul\":2300:2489   */\ntag_44:\n    /* \"#utility.yul\":2377:2409   */\n  tag_83\n  tag_43\n  jump\t// in\ntag_83:\n    /* \"#utility.yul\":2418:2483   */\n  tag_84\n    /* \"#utility.yul\":2476:2482   */\n  dup2\n    /* \"#utility.yul\":2468:2474   */\n  dup5\n    /* \"#utility.yul\":2462:2466   */\n  dup5\n    /* \"#utility.yul\":2418:2483   */\n  tag_42\n  jump\t// in\ntag_84:\n    /* \"#utility.yul\":2353:2489   */\n  pop\n    /* \"#utility.yul\":2300:2489   */\n  pop\n  pop\n  jump\t// out\n    /* \"#utility.yul\":2495:2681   */\ntag_45:\n    /* \"#utility.yul\":2555:2675   */\ntag_86:\n    /* \"#utility.yul\":2572:2575   */\n  dup2\n    /* \"#utility.yul\":2565:2570   */\n  dup2\n    /* \"#utility.yul\":2562:2576   */\n  lt\n    /* \"#utility.yul\":2555:2675   */\n  iszero\n  tag_88\n  jumpi\n    /* \"#utility.yul\":2626:2665   */\n  tag_89\n    /* \"#utility.yul\":2663:2664   */\n  0x00\n    /* \"#utility.yul\":2656:2661   */\n  dup3\n    /* \"#utility.yul\":2626:2665   */\n  tag_44\n  jump\t// in\ntag_89:\n    /* \"#utility.yul\":2599:2600   */\n  0x01\n    /* \"#utility.yul\":2592:2597   */\n  dup2\n    /* \"#utility.yul\":2588:2601   */\n  add\n    /* \"#utility.yul\":2579:2601   */\n  swap1\n  pop\n    /* \"#utility.yul\":2555:2675   */\n  jump(tag_86)\ntag_88:\n    /* \"#utility.yul\":2495:2681   */\n  pop\n  pop\n  jump\t// out\n    /* \"#utility.yul\":2687:3230   */\ntag_46:\n    /* \"#utility.yul\":2788:2790   */\n  0x1f\n    /* \"#utility.yul\":2783:2786   */\n  dup3\n    /* \"#utility.yul\":2780:2791   */\n  gt\n    /* \"#utility.yul\":2777:3223   */\n  iszero\n  tag_91\n  jumpi\n    /* \"#utility.yul\":2822:2860   */\n  tag_92\n    /* \"#utility.yul\":2854:2859   */\n  dup2\n    /* \"#utility.yul\":2822:2860   */\n  tag_34\n  jump\t// in\ntag_92:\n    /* \"#utility.yul\":2906:2935   */\n  tag_93\n    /* \"#utility.yul\":2924:2934   */\n  dup5\n    /* \"#utility.yul\":2906:2935   */\n  tag_35\n  jump\t// in\ntag_93:\n    /* \"#utility.yul\":2896:2904   */\n  dup2\n    /* \"#utility.yul\":2892:2936   */\n  add\n    /* \"#utility.yul\":3089:3091   */\n  0x20\n    /* \"#utility.yul\":3077:3087   */\n  dup6\n    /* \"#utility.yul\":3074:3092   */\n  lt\n    /* \"#utility.yul\":3071:3120   */\n  iszero\n  tag_94\n  jumpi\n    /* \"#utility.yul\":3110:3118   */\n  dup2\n    /* \"#utility.yul\":3095:3118   */\n  swap1\n  pop\n    /* \"#utility.yul\":3071:3120   */\ntag_94:\n    /* \"#utility.yul\":3133:3213   */\n  tag_95\n    /* \"#utility.yul\":3189:3211   */\n  tag_96\n    /* \"#utility.yul\":3207:3210   */\n  dup6\n    /* \"#utility.yul\":3189:3211   */\n  tag_35\n  jump\t// in\ntag_96:\n    /* \"#utility.yul\":3179:3187   */\n  dup4\n    /* \"#utility.yul\":3175:3212   */\n  add\n    /* \"#utility.yul\":3162:3173   */\n  dup3\n    /* \"#utility.yul\":3133:3213   */\n  tag_45\n  jump\t// in\ntag_95:\n    /* \"#utility.yul\":2792:3223   */\n  pop\n  pop\n    /* \"#utility.yul\":2777:3223   */\ntag_91:\n    /* \"#utility.yul\":2687:3230   */\n  pop\n  pop\n  pop\n  jump\t// out\n    /* \"#utility.yul\":3236:3353   */\ntag_47:\n    /* \"#utility.yul\":3290:3298   */\n  0x00\n    /* \"#utility.yul\":3340:3345   */\n  dup3\n    /* \"#utility.yul\":3334:3338   */\n  dup3\n    /* \"#utility.yul\":3330:3346   */\n  shr\n    /* \"#utility.yul\":3309:3346   */\n  swap1\n  pop\n    /* \"#utility.yul\":3236:3353   */\n  swap3\n  swap2\n  pop\n  pop\n  jump\t// out\n    /* \"#utility.yul\":3359:3528   */\ntag_48:\n    /* \"#utility.yul\":3403:3409   */\n  0x00\n    /* \"#utility.yul\":3436:3487   */\n  tag_99\n    /* \"#utility.yul\":3484:3485   */\n  0x00\n    /* \"#utility.yul\":3480:3486   */\n  not\n    /* \"#utility.yul\":3472:3477   */\n  dup5\n    /* \"#utility.yul\":3469:3470   */\n  0x08\n    /* \"#utility.yul\":3465:3478   */\n  mul\n    /* \"#utility.yul\":3436:3487   */\n  tag_47\n  jump\t// in\ntag_99:\n    /* \"#utility.yul\":3432:3488   */\n  not\n    /* \"#utility.yul\":3517:3521   */\n  dup1\n    /* \"#utility.yul\":3511:3515   */\n  dup4\n    /* \"#utility.yul\":3507:3522   */\n  and\n    /* \"#utility.yul\":3497:3522   */\n  swap2\n  pop\n    /* \"#utility.yul\":3410:3528   */\n  pop\n    /* \"#utility.yul\":3359:3528   */\n  swap3\n  swap2\n  pop\n  pop\n  jump\t// out\n    /* \"#utility.yul\":3533:3828   */\ntag_49:\n    /* \"#utility.yul\":3609:3613   */\n  0x00\n    /* \"#utility.yul\":3755:3784   */\n  tag_101\n    /* \"#utility.yul\":3780:3783   */\n  dup4\n    /* \"#utility.yul\":3774:3778   */\n  dup4\n    /* \"#utility.yul\":3755:3784   */\n  tag_48\n  jump\t// in\ntag_101:\n    /* \"#utility.yul\":3747:3784   */\n  swap2\n  pop\n    /* \"#utility.yul\":3817:3820   */\n  dup3\n    /* \"#utility.yul\":3814:3815   */\n  0x02\n    /* \"#utility.yul\":3810:3821   */\n  mul\n    /* \"#utility.yul\":3804:3808   */\n  dup3\n    /* \"#utility.yul\":3801:3822   */\n  or\n    /* \"#utility.yul\":3793:3822   */\n  swap1\n  pop\n    /* \"#utility.yul\":3533:3828   */\n  swap3\n  swap2\n  pop\n  pop\n  jump\t// out\n    /* \"#utility.yul\":3833:5228   */\ntag_9:\n    /* \"#utility.yul\":3950:3987   */\n  tag_103\n    /* \"#utility.yul\":3983:3986   */\n  dup3\n    /* \"#utility.yul\":3950:3987   */\n  tag_30\n  jump\t// in\ntag_103:\n    /* \"#utility.yul\":4052:4070   */\n  0xffffffffffffffff\n    /* \"#utility.yul\":4044:4050   */\n  dup2\n    /* \"#utility.yul\":4041:4071   */\n  gt\n    /* \"#utility.yul\":4038:4094   */\n  iszero\n  tag_104\n  jumpi\n    /* \"#utility.yul\":4074:4092   */\n  tag_105\n  tag_31\n  jump\t// in\ntag_105:\n    /* \"#utility.yul\":4038:4094   */\ntag_104:\n    /* \"#utility.yul\":4118:4156   */\n  tag_106\n    /* \"#utility.yul\":4150:4154   */\n  dup3\n    /* \"#utility.yul\":4144:4155   */\n  sload\n    /* \"#utility.yul\":4118:4156   */\n  tag_33\n  jump\t// in\ntag_106:\n    /* \"#utility.yul\":4203:4270   */\n  tag_107\n    /* \"#utility.yul\":4263:4269   */\n  dup3\n    /* \"#utility.yul\":4255:4261   */\n  dup3\n    /* \"#utility.yul\":4249:4253   */\n  dup6\n    /* \"#utility.yul\":4203:4270   */\n  tag_46\n  jump\t// in\ntag_107:\n    /* \"#utility.yul\":4297:4298   */\n  0x00\n    /* \"#utility.yul\":4321:4325   */\n  0x20\n    /* \"#utility.yul\":4308:4325   */\n  swap1\n  pop\n    /* \"#utility.yul\":4353:4355   */\n  0x1f\n    /* \"#utility.yul\":4345:4351   */\n  dup4\n    /* \"#utility.yul\":4342:4356   */\n  gt\n    /* \"#utility.yul\":4370:4371   */\n  0x01\n    /* \"#utility.yul\":4365:4983   */\n  dup2\n  eq\n  tag_109\n  jumpi\n    /* \"#utility.yul\":5027:5028   */\n  0x00\n    /* \"#utility.yul\":5044:5050   */\n  dup5\n    /* \"#utility.yul\":5041:5118   */\n  iszero\n  tag_110\n  jumpi\n    /* \"#utility.yul\":5093:5102   */\n  dup3\n    /* \"#utility.yul\":5088:5091   */\n  dup8\n    /* \"#utility.yul\":5084:5103   */\n  add\n    /* \"#utility.yul\":5078:5104   */\n  mload\n    /* \"#utility.yul\":5069:5104   */\n  swap1\n  pop\n    /* \"#utility.yul\":5041:5118   */\ntag_110:\n    /* \"#utility.yul\":5144:5211   */\n  tag_111\n    /* \"#utility.yul\":5204:5210   */\n  dup6\n    /* \"#utility.yul\":5197:5202   */\n  dup3\n    /* \"#utility.yul\":5144:5211   */\n  tag_49\n  jump\t// in\ntag_111:\n    /* \"#utility.yul\":5138:5142   */\n  dup7\n    /* \"#utility.yul\":5131:5212   */\n  sstore\n    /* \"#utility.yul\":5000:5222   */\n  pop\n    /* \"#utility.yul\":4335:5222   */\n  jump(tag_108)\n    /* \"#utility.yul\":4365:4983   */\ntag_109:\n    /* \"#utility.yul\":4417:4421   */\n  0x1f\n    /* \"#utility.yul\":4413:4422   */\n  not\n    /* \"#utility.yul\":4405:4411   */\n  dup5\n    /* \"#utility.yul\":4401:4423   */\n  and\n    /* \"#utility.yul\":4451:4488   */\n  tag_112\n    /* \"#utility.yul\":4483:4487   */\n  dup7\n    /* \"#utility.yul\":4451:4488   */\n  tag_34\n  jump\t// in\ntag_112:\n    /* \"#utility.yul\":4510:4511   */\n  0x00\n    /* \"#utility.yul\":4524:4732   */\ntag_113:\n    /* \"#utility.yul\":4538:4545   */\n  dup3\n    /* \"#utility.yul\":4535:4536   */\n  dup2\n    /* \"#utility.yul\":4532:4546   */\n  lt\n    /* \"#utility.yul\":4524:4732   */\n  iszero\n  tag_115\n  jumpi\n    /* \"#utility.yul\":4617:4626   */\n  dup5\n    /* \"#utility.yul\":4612:4615   */\n  dup10\n    /* \"#utility.yul\":4608:4627   */\n  add\n    /* \"#utility.yul\":4602:4628   */\n  mload\n    /* \"#utility.yul\":4594:4600   */\n  dup3\n    /* \"#utility.yul\":4587:4629   */\n  sstore\n    /* \"#utility.yul\":4668:4669   */\n  0x01\n    /* \"#utility.yul\":4660:4666   */\n  dup3\n    /* \"#utility.yul\":4656:4670   */\n  add\n    /* \"#utility.yul\":4646:4670   */\n  swap2\n  pop\n    /* \"#utility.yul\":4715:4717   */\n  0x20\n    /* \"#utility.yul\":4704:4713   */\n  dup6\n    /* \"#utility.yul\":4700:4718   */\n  add\n    /* \"#utility.yul\":4687:4718   */\n  swap5\n  pop\n    /* \"#utility.yul\":4561:4565   */\n  0x20\n    /* \"#utility.yul\":4558:4559   */\n  dup2\n    /* \"#utility.yul\":4554:4566   */\n  add\n    /* \"#utility.yul\":4549:4566   */\n  swap1\n  pop\n    /* \"#utility.yul\":4524:4732   */\n  jump(tag_113)\ntag_115:\n    /* \"#utility.yul\":4760:4766   */\n  dup7\n    /* \"#utility.yul\":4751:4758   */\n  dup4\n    /* \"#utility.yul\":4748:4767   */\n  lt\n    /* \"#utility.yul\":4745:4924   */\n  iszero\n  tag_116\n  jumpi\n    /* \"#utility.yul\":4818:4827   */\n  dup5\n    /* \"#utility.yul\":4813:4816   */\n  dup10\n    /* \"#utility.yul\":4809:4828   */\n  add\n    /* \"#utility.yul\":4803:4829   */\n  mload\n    /* \"#utility.yul\":4861:4909   */\n  tag_117\n    /* \"#utility.yul\":4903:4907   */\n  0x1f\n    /* \"#utility.yul\":4895:4901   */\n  dup10\n    /* \"#utility.yul\":4891:4908   */\n  and\n    /* \"#utility.yul\":4880:4889   */\n  dup3\n    /* \"#utility.yul\":4861:4909   */\n  tag_48\n  jump\t// in\ntag_117:\n    /* \"#utility.yul\":4853:4859   */\n  dup4\n    /* \"#utility.yul\":4846:4910   */\n  sstore\n    /* \"#utility.yul\":4768:4924   */\n  pop\n    /* \"#utility.yul\":4745:4924   */\ntag_116:\n    /* \"#utility.yul\":4970:4971   */\n  0x01\n    /* \"#utility.yul\":4966:4967   */\n  0x02\n    /* \"#utility.yul\":4958:4964   */\n  dup9\n    /* \"#utility.yul\":4954:4968   */\n  mul\n    /* \"#utility.yul\":4950:4972   */\n  add\n    /* \"#utility.yul\":4944:4948   */\n  dup9\n    /* \"#utility.yul\":4937:4973   */\n  sstore\n    /* \"#utility.yul\":4372:4983   */\n  pop\n  pop\n  pop\n    /* \"#utility.yul\":4335:5222   */\ntag_108:\n  pop\n    /* \"#utility.yul\":3925:5228   */\n  pop\n  pop\n  pop\n    /* \"#utility.yul\":3833:5228   */\n  pop\n  pop\n  jump\t// out\n    /* \"#utility.yul\":5234:5414   */\ntag_50:\n    /* \"#utility.yul\":5282:5359   */\n  0x4e487b7100000000000000000000000000000000000000000000000000000000\n    /* \"#utility.yul\":5279:5280   */\n  0x00\n    /* \"#utility.yul\":5272:5360   */\n  mstore\n    /* \"#utility.yul\":5379:5383   */\n  0x11\n    /* \"#utility.yul\":5376:5377   */\n  0x04\n    /* \"#utility.yul\":5369:5384   */\n  mstore\n    /* \"#utility.yul\":5403:5407   */\n  0x24\n    /* \"#utility.yul\":5400:5401   */\n  0x00\n    /* \"#utility.yul\":5393:5408   */\n  revert\n    /* \"#utility.yul\":5420:5522   */\ntag_51:\n    /* \"#utility.yul\":5462:5470   */\n  0x00\n    /* \"#utility.yul\":5509:5514   */\n  dup2\n    /* \"#utility.yul\":5506:5507   */\n  0x01\n    /* \"#utility.yul\":5502:5515   */\n  shr\n    /* \"#utility.yul\":5481:5515   */\n  swap1\n  pop\n    /* \"#utility.yul\":5420:5522   */\n  swap2\n  swap1\n  pop\n  jump\t// out\n    /* \"#utility.yul\":5528:6376   */\ntag_52:\n    /* \"#utility.yul\":5589:5594   */\n  0x00\n    /* \"#utility.yul\":5596:5600   */\n  dup1\n    /* \"#utility.yul\":5620:5626   */\n  dup3\n    /* \"#utility.yul\":5611:5626   */\n  swap2\n  pop\n    /* \"#utility.yul\":5644:5649   */\n  dup4\n    /* \"#utility.yul\":5635:5649   */\n  swap1\n  pop\n    /* \"#utility.yul\":5658:6370   */\ntag_121:\n    /* \"#utility.yul\":5679:5680   */\n  0x01\n    /* \"#utility.yul\":5669:5677   */\n  dup6\n    /* \"#utility.yul\":5666:5681   */\n  gt\n    /* \"#utility.yul\":5658:6370   */\n  iszero\n  tag_123\n  jumpi\n    /* \"#utility.yul\":5774:5778   */\n  dup1\n    /* \"#utility.yul\":5769:5772   */\n  dup7\n    /* \"#utility.yul\":5765:5779   */\n  div\n    /* \"#utility.yul\":5759:5763   */\n  dup2\n    /* \"#utility.yul\":5756:5780   */\n  gt\n    /* \"#utility.yul\":5753:5803   */\n  iszero\n  tag_124\n  jumpi\n    /* \"#utility.yul\":5783:5801   */\n  tag_125\n  tag_50\n  jump\t// in\ntag_125:\n    /* \"#utility.yul\":5753:5803   */\ntag_124:\n    /* \"#utility.yul\":5833:5834   */\n  0x01\n    /* \"#utility.yul\":5823:5831   */\n  dup6\n    /* \"#utility.yul\":5819:5835   */\n  and\n    /* \"#utility.yul\":5816:6267   */\n  iszero\n  tag_126\n  jumpi\n    /* \"#utility.yul\":6248:6252   */\n  dup1\n    /* \"#utility.yul\":6241:6246   */\n  dup3\n    /* \"#utility.yul\":6237:6253   */\n  mul\n    /* \"#utility.yul\":6228:6253   */\n  swap2\n  pop\n    /* \"#utility.yul\":5816:6267   */\ntag_126:\n    /* \"#utility.yul\":6298:6302   */\n  dup1\n    /* \"#utility.yul\":6292:6296   */\n  dup2\n    /* \"#utility.yul\":6288:6303   */\n  mul\n    /* \"#utility.yul\":6280:6303   */\n  swap1\n  pop\n    /* \"#utility.yul\":6328:6360   */\n  tag_127\n    /* \"#utility.yul\":6351:6359   */\n  dup6\n    /* \"#utility.yul\":6328:6360   */\n  tag_51\n  jump\t// in\ntag_127:\n    /* \"#utility.yul\":6316:6360   */\n  swap5\n  pop\n    /* \"#utility.yul\":5658:6370   */\n  jump(tag_121)\ntag_123:\n    /* \"#utility.yul\":5528:6376   */\n  swap5\n  pop\n  swap5\n  swap3\n  pop\n  pop\n  pop\n  jump\t// out\n    /* \"#utility.yul\":6382:7455   */\ntag_53:\n    /* \"#utility.yul\":6436:6441   */\n  0x00\n    /* \"#utility.yul\":6627:6635   */\n  dup3\n    /* \"#utility.yul\":6617:6657   */\n  tag_129\n  jumpi\n    /* \"#utility.yul\":6648:6649   */\n  0x01\n    /* \"#utility.yul\":6639:6649   */\n  swap1\n  pop\n    /* \"#utility.yul\":6650:6655   */\n  jump(tag_128)\n    /* \"#utility.yul\":6617:6657   */\ntag_129:\n    /* \"#utility.yul\":6676:6680   */\n  dup2\n    /* \"#utility.yul\":6666:6702   */\n  tag_130\n  jumpi\n    /* \"#utility.yul\":6693:6694   */\n  0x00\n    /* \"#utility.yul\":6684:6694   */\n  swap1\n  pop\n    /* \"#utility.yul\":6695:6700   */\n  jump(tag_128)\n    /* \"#utility.yul\":6666:6702   */\ntag_130:\n    /* \"#utility.yul\":6762:6766   */\n  dup2\n    /* \"#utility.yul\":6810:6811   */\n  0x01\n    /* \"#utility.yul\":6805:6832   */\n  dup2\n  eq\n  tag_132\n  jumpi\n    /* \"#utility.yul\":6846:6847   */\n  0x02\n    /* \"#utility.yul\":6841:7032   */\n  dup2\n  eq\n  tag_133\n  jumpi\n    /* \"#utility.yul\":6755:7032   */\n  jump(tag_131)\n    /* \"#utility.yul\":6805:6832   */\ntag_132:\n    /* \"#utility.yul\":6823:6824   */\n  0x01\n    /* \"#utility.yul\":6814:6824   */\n  swap2\n  pop\n    /* \"#utility.yul\":6825:6830   */\n  pop\n  jump(tag_128)\n    /* \"#utility.yul\":6841:7032   */\ntag_133:\n    /* \"#utility.yul\":6886:6889   */\n  0xff\n    /* \"#utility.yul\":6876:6884   */\n  dup5\n    /* \"#utility.yul\":6873:6890   */\n  gt\n    /* \"#utility.yul\":6870:6913   */\n  iszero\n  tag_134\n  jumpi\n    /* \"#utility.yul\":6893:6911   */\n  tag_135\n  tag_50\n  jump\t// in\ntag_135:\n    /* \"#utility.yul\":6870:6913   */\ntag_134:\n    /* \"#utility.yul\":6942:6950   */\n  dup4\n    /* \"#utility.yul\":6939:6940   */\n  0x02\n    /* \"#utility.yul\":6935:6951   */\n  exp\n    /* \"#utility.yul\":6926:6951   */\n  swap2\n  pop\n    /* \"#utility.yul\":6977:6980   */\n  dup5\n    /* \"#utility.yul\":6970:6975   */\n  dup3\n    /* \"#utility.yul\":6967:6981   */\n  gt\n    /* \"#utility.yul\":6964:7004   */\n  iszero\n  tag_136\n  jumpi\n    /* \"#utility.yul\":6984:7002   */\n  tag_137\n  tag_50\n  jump\t// in\ntag_137:\n    /* \"#utility.yul\":6964:7004   */\ntag_136:\n    /* \"#utility.yul\":7017:7022   */\n  pop\n  jump(tag_128)\n    /* \"#utility.yul\":6755:7032   */\ntag_131:\n  pop\n    /* \"#utility.yul\":7141:7143   */\n  0x20\n    /* \"#utility.yul\":7131:7139   */\n  dup4\n    /* \"#utility.yul\":7128:7144   */\n  lt\n    /* \"#utility.yul\":7122:7125   */\n  0x0133\n    /* \"#utility.yul\":7116:7120   */\n  dup4\n    /* \"#utility.yul\":7113:7126   */\n  lt\n    /* \"#utility.yul\":7109:7145   */\n  and\n    /* \"#utility.yul\":7091:7093   */\n  0x4e\n    /* \"#utility.yul\":7081:7089   */\n  dup5\n    /* \"#utility.yul\":7078:7094   */\n  lt\n    /* \"#utility.yul\":7073:7075   */\n  0x0b\n    /* \"#utility.yul\":7067:7071   */\n  dup5\n    /* \"#utility.yul\":7064:7076   */\n  lt\n    /* \"#utility.yul\":7060:7095   */\n  and\n    /* \"#utility.yul\":7044:7155   */\n  or\n    /* \"#utility.yul\":7041:7287   */\n  iszero\n  tag_138\n  jumpi\n    /* \"#utility.yul\":7197:7205   */\n  dup3\n    /* \"#utility.yul\":7191:7195   */\n  dup3\n    /* \"#utility.yul\":7187:7206   */\n  exp\n    /* \"#utility.yul\":7178:7206   */\n  swap1\n  pop\n    /* \"#utility.yul\":7232:7235   */\n  dup4\n    /* \"#utility.yul\":7225:7230   */\n  dup2\n    /* \"#utility.yul\":7222:7236   */\n  gt\n    /* \"#utility.yul\":7219:7259   */\n  iszero\n  tag_139\n  jumpi\n    /* \"#utility.yul\":7239:7257   */\n  tag_140\n  tag_50\n  jump\t// in\ntag_140:\n    /* \"#utility.yul\":7219:7259   */\ntag_139:\n    /* \"#utility.yul\":7272:7277   */\n  jump(tag_128)\n    /* \"#utility.yul\":7041:7287   */\ntag_138:\n    /* \"#utility.yul\":7312:7354   */\n  tag_141\n    /* \"#utility.yul\":7350:7353   */\n  dup5\n    /* \"#utility.yul\":7340:7348   */\n  dup5\n    /* \"#utility.yul\":7334:7338   */\n  dup5\n    /* \"#utility.yul\":7331:7332   */\n  0x01\n    /* \"#utility.yul\":7312:7354   */\n  tag_52\n  jump\t// in\ntag_141:\n    /* \"#utility.yul\":7297:7354   */\n  swap3\n  pop\n  swap1\n  pop\n    /* \"#utility.yul\":7386:7390   */\n  dup2\n    /* \"#utility.yul\":7381:7384   */\n  dup5\n    /* \"#utility.yul\":7377:7391   */\n  div\n    /* \"#utility.yul\":7370:7375   */\n  dup2\n    /* \"#utility.yul\":7367:7392   */\n  gt\n    /* \"#utility.yul\":7364:7415   */\n  iszero\n  tag_142\n  jumpi\n    /* \"#utility.yul\":7395:7413   */\n  tag_143\n  tag_50\n  jump\t// in\ntag_143:\n    /* \"#utility.yul\":7364:7415   */\ntag_142:\n    /* \"#utility.yul\":7444:7448   */\n  dup2\n    /* \"#utility.yul\":7437:7442   */\n  dup2\n    /* \"#utility.yul\":7433:7449   */\n  mul\n    /* \"#utility.yul\":7424:7449   */\n  swap1\n  pop\n    /* \"#utility.yul\":6382:7455   */\ntag_128:\n  swap4\n  swap3\n  pop\n  pop\n  pop\n  jump\t// out\n    /* \"#utility.yul\":7461:7547   */\ntag_54:\n    /* \"#utility.yul\":7496:7503   */\n  0x00\n    /* \"#utility.yul\":7536:7540   */\n  0xff\n    /* \"#utility.yul\":7529:7534   */\n  dup3\n    /* \"#utility.yul\":7525:7541   */\n  and\n    /* \"#utility.yul\":7514:7541   */\n  swap1\n  pop\n    /* \"#utility.yul\":7461:7547   */\n  swap2\n  swap1\n  pop\n  jump\t// out\n    /* \"#utility.yul\":7553:7834   */\ntag_12:\n    /* \"#utility.yul\":7611:7616   */\n  0x00\n    /* \"#utility.yul\":7635:7658   */\n  tag_146\n    /* \"#utility.yul\":7653:7657   */\n  dup3\n    /* \"#utility.yul\":7635:7658   */\n  tag_38\n  jump\t// in\ntag_146:\n    /* \"#utility.yul\":7627:7658   */\n  swap2\n  pop\n    /* \"#utility.yul\":7679:7704   */\n  tag_147\n    /* \"#utility.yul\":7695:7703   */\n  dup4\n    /* \"#utility.yul\":7679:7704   */\n  tag_54\n  jump\t// in\ntag_147:\n    /* \"#utility.yul\":7667:7704   */\n  swap3\n  pop\n    /* \"#utility.yul\":7723:7827   */\n  tag_148\n    /* \"#utility.yul\":7760:7826   */\n  0xffffffffffffffffffffffffffffffffffffffffffffffffffffffffffffffff\n    /* \"#utility.yul\":7750:7758   */\n  dup5\n    /* \"#utility.yul\":7744:7748   */\n  dup5\n    /* \"#utility.yul\":7723:7827   */\n  tag_53\n  jump\t// in\ntag_148:\n    /* \"#utility.yul\":7714:7827   */\n  swap1\n  pop\n    /* \"#utility.yul\":7553:7834   */\n  swap3\n  swap2\n  pop\n  pop\n  jump\t// out\n    /* \"#utility.yul\":7840:8250   */\ntag_14:\n    /* \"#utility.yul\":7880:7887   */\n  0x00\n    /* \"#utility.yul\":7903:7923   */\n  tag_150\n    /* \"#utility.yul\":7921:7922   */\n  dup3\n    /* \"#utility.yul\":7903:7923   */\n  tag_38\n  jump\t// in\ntag_150:\n    /* \"#utility.yul\":7898:7923   */\n  swap2\n  pop\n    /* \"#utility.yul\":7937:7957   */\n  tag_151\n    /* \"#utility.yul\":7955:7956   */\n  dup4\n    /* \"#utility.yul\":7937:7957   */\n  tag_38\n  jump\t// in\ntag_151:\n    /* \"#utility.yul\":7932:7957   */\n  swap3\n  pop\n    /* \"#utility.yul\":7992:7993   */\n  dup3\n    /* \"#utility.yul\":7989:7990   */\n  dup3\n    /* \"#utility.yul\":7985:7994   */\n  mul\n    /* \"#utility.yul\":8014:8044   */\n  tag_152\n    /* \"#utility.yul\":8032:8043   */\n  dup2\n    /* \"#utility.yul\":8014:8044   */\n  tag_38\n  jump\t// in\ntag_152:\n    /* \"#utility.yul\":8003:8044   */\n  swap2\n  pop\n    /* \"#utility.yul\":8193:8194   */\n  dup3\n    /* \"#utility.yul\":8184:8191   */\n  dup3\n    /* \"#utility.yul\":8180:8195   */\n  div\n    /* \"#utility.yul\":8177:8178   */\n  dup5\n    /* \"#utility.yul\":8174:8196   */\n  eq\n    /* \"#utility.yul\":8154:8155   */\n  dup4\n    /* \"#utility.yul\":8147:8156   */\n  iszero\n    /* \"#utility.yul\":8127:8210   */\n  or\n    /* \"#utility.yul\":8104:8243   */\n  tag_153\n  jumpi\n    /* \"#utility.yul\":8223:8241   */\n  tag_154\n  tag_50\n  jump\t// in\ntag_154:\n    /* \"#utility.yul\":8104:8243   */\ntag_153:\n    /* \"#utility.yul\":7888:8250   */\n  pop\n    /* \"#utility.yul\":7840:8250   */\n  swap3\n  swap2\n  pop\n  pop\n  jump\t// out\n    /* \"#utility.yul\":8256:8447   */\ntag_24:\n    /* \"#utility.yul\":8296:8299   */\n  0x00\n    /* \"#utility.yul\":8315:8335   */\n  tag_156\n    /* \"#utility.yul\":8333:8334   */\n  dup3\n    /* \"#utility.yul\":8315:8335   */\n  tag_38\n  jump\t// in\ntag_156:\n    /* \"#utility.yul\":8310:8335   */\n  swap2\n  pop\n    /* \"#utility.yul\":8349:8369   */\n  tag_157\n    /* \"#utility.yul\":8367:8368   */\n  dup4\n    /* \"#utility.yul\":8349:8369   */\n  tag_38\n  jump\t// in\ntag_157:\n    /* \"#utility.yul\":8344:8369   */\n  swap3\n  pop\n    /* \"#utility.yul\":8392:8393   */\n  dup3\n    /* \"#utility.yul\":8389:8390   */\n  dup3\n    /* \"#utility.yul\":8385:8394   */\n  add\n    /* \"#utility.yul\":8378:8394   */\n  swap1\n  pop\n    /* \"#utility.yul\":8413:8416   */\n  dup1\n    /* \"#utility.yul\":8410:8411   */\n  dup3\n    /* \"#utility.yul\":8407:8417   */\n  gt\n    /* \"#utility.yul\":8404:8440   */\n  iszero\n  tag_158\n  jumpi\n    /* \"#utility.yul\":8420:8438   */\n  tag_159\n  tag_50\n  jump\t// in\ntag_159:\n    /* \"#utility.yul\":8404:8440   */\ntag_158:\n    /* \"#utility.yul\":8256:8447   */\n  swap3\n  swap2\n  pop\n  pop\n  jump\t// out\n    /* \"#utility.yul\":8453:8571   */\ntag_55:\n    /* \"#utility.yul\":8540:8564   */\n  tag_161\n    /* \"#utility.yul\":8558:8563   */\n  dup2\n    /* \"#utility.yul\":8540:8564   */\n  tag_38\n  jump\t// in\ntag_161:\n    /* \"#utility.yul\":8535:8538   */\n  dup3\n    /* \"#utility.yul\":8528:8565   */\n  mstore\n    /* \"#utility.yul\":8453:8571   */\n  pop\n  pop\n  jump\t// out\n    /* \"#utility.yul\":8577:8799   */\ntag_29:\n    /* \"#utility.yul\":8670:8674   */\n  0x00\n    /* \"#utility.yul\":8708:8710   */\n  0x20\n    /* \"#utility.yul\":8697:8706   */\n  dup3\n    /* \"#utility.yul\":8693:8711   */\n  add\n    /* \"#utility.yul\":8685:8711   */\n  swap1\n  pop\n    /* \"#utility.yul\":8721:8792   */\n  tag_163\n    /* \"#utility.yul\":8789:8790   */\n  0x00\n    /* \"#utility.yul\":8778:8787   */\n  dup4\n    /* \"#utility.yul\":8774:8791   */\n  add\n    /* \"#utility.yul\":8765:8771   */\n  dup5\n    /* \"#utility.yul\":8721:8792   */\n  tag_55\n  jump\t// in\ntag_163:\n    /* \"#utility.yul\":8577:8799   */\n  swap3\n  swap2\n  pop\n  pop\n  jump\t// out\n    /* \"smart_contracts/contracts/Token.sol\":4103:12412  contract Token is TokenState {... */\ntag_19:\n  dataSize(sub_0)\n  dup1\n  dataOffset(sub_0)\n  0x00\n  codecopy\n  0x00\n  return\nstop\n\nsub_0: assembly {\n        /* \"smart_contracts/contracts/Token.sol\":4103:12412  contract Token is TokenState {... */\n      mstore(0x40, 0x80)\n      callvalue\n      dup1\n      iszero\n      tag_1\n      jumpi\n      0x00\n      dup1\n      revert\n    tag_1:\n      pop\n      jumpi(tag_2, lt(calldatasize, 0x04))\n      shr(0xe0, calldataload(0x00))\n      dup1\n      0x79ec5d3a\n      gt\n      tag_23\n      jumpi\n      dup1\n      0xa9059cbb\n      gt\n      tag_24\n      jumpi\n      dup1\n      0xa9059cbb\n      eq\n      tag_18\n      jumpi\n      dup1\n      0xd5abeb01\n      eq\n      tag_19\n      jumpi\n      dup1\n      0xd6cdb5a5\n      eq\n      tag_20\n      jumpi\n      dup1\n      0xdd62ed3e\n      eq\n      tag_21\n      jumpi\n      dup1\n      0xf34e3723\n      eq\n      tag_22\n      jumpi\n      jump(tag_2)\n    tag_24:\n      dup1\n      0x79ec5d3a\n      eq\n      tag_13\n      jumpi\n      dup1\n      0x95d89b41\n      eq\n      tag_14\n      jumpi\n      dup1\n      0xa44e10eb\n      eq\n      tag_15\n      jumpi\n      dup1\n      0xa457c2d7\n      eq\n      tag_16\n      jumpi\n      dup1\n      0xa694fc3a\n      eq\n      tag_17\n      jumpi\n      jump(tag_2)\n    tag_23:\n      dup1\n      0x313ce567\n      gt\n      tag_25\n      jumpi\n      dup1\n      0x313ce567\n      eq\n      tag_8\n      jumpi\n      dup1\n      0x39509351\n      eq\n      tag_9\n      jumpi\n      dup1\n      0x42623360\n      eq\n      tag_10\n      jumpi\n      dup1\n      0x5a48b310\n      eq\n      tag_11\n      jumpi\n      dup1\n      0x70a08231\n      eq\n      tag_12\n      jumpi\n      jump(tag_2)\n    tag_25:\n      dup1\n      0x06fdde03\n      eq\n      tag_3\n      jumpi\n      dup1\n      0x095ea7b3\n      eq\n      tag_4\n      jumpi\n      dup1\n      0x18160ddd\n      eq\n      tag_5\n      jumpi\n      dup1\n      0x23b872dd\n      eq\n      tag_6\n      jumpi\n      dup1\n      0x2e17de78\n      eq\n      tag_7\n      jumpi\n    tag_2:\n      0x00\n      dup1\n      revert\n        /* \"smart_contracts/contracts/Token.sol\":11740:11811  function name() public view returns (string memory) {return meta.name;} */\n    tag_3:\n      tag_26\n      tag_27\n      jump\t// in\n    tag_26:\n      mload(0x40)\n      tag_28\n      swap2\n      swap1\n      tag_29\n      jump\t// in\n    tag_28:\n      mload(0x40)\n      dup1\n      swap2\n      sub\n      swap1\n      return\n        /* \"smart_contracts/contracts/Token.sol\":9269:9550  function approve(address _spender, uint256 _value) public returns (bool success) {... */\n    tag_4:\n      tag_30\n      0x04\n      dup1\n      calldatasize\n      sub\n      dup2\n      add\n      swap1\n      tag_31\n      swap2\n      swap1\n      tag_32\n      jump\t// in\n    tag_31:\n      tag_33\n      jump\t// in\n    tag_30:\n      mload(0x40)\n      tag_34\n      swap2\n      swap1\n      tag_35\n      jump\t// in\n    tag_34:\n      mload(0x40)\n      dup1\n      swap2\n      sub\n      swap1\n      return\n        /* \"smart_contracts/contracts/Token.sol\":11972:12051  function totalSupply() public view returns (uint256) {return meta.totalSupply;} */\n    tag_5:\n      tag_36\n      tag_37\n      jump\t// in\n    tag_36:\n      mload(0x40)\n      tag_38\n      swap2\n      swap1\n      tag_39\n      jump\t// in\n    tag_38:\n      mload(0x40)\n      dup1\n      swap2\n      sub\n      swap1\n      return\n        /* \"smart_contracts/contracts/Token.sol\":7133:7596  function transferFrom(address _from, address _to, uint256 _value) public returns (bool) {... */\n    tag_6:\n      tag_40\n      0x04\n      dup1\n      calldatasize\n      sub\n      dup2\n      add\n      swap1\n      tag_41\n      swap2\n      swap1\n      tag_42\n      jump\t// in\n    tag_41:\n      tag_43\n      jump\t// in\n    tag_40:\n      mload(0x40)\n      tag_44\n      swap2\n      swap1\n      tag_35\n      jump\t// in\n    tag_44:\n      mload(0x40)\n      dup1\n      swap2\n      sub\n      swap1\n      return\n        /* \"smart_contracts/contracts/Token.sol\":7971:8365  function unstake(uint256 _value) public returns (bool) {... */\n    tag_7:\n      tag_45\n      0x04\n      dup1\n      calldatasize\n      sub\n      dup2\n      add\n      swap1\n      tag_46\n      swap2\n      swap1\n      tag_47\n      jump\t// in\n    tag_46:\n      tag_48\n      jump\t// in\n    tag_45:\n      mload(0x40)\n      tag_49\n      swap2\n      swap1\n      tag_35\n      jump\t// in\n    tag_49:\n      mload(0x40)\n      dup1\n      swap2\n      sub\n      swap1\n      return\n        /* \"smart_contracts/contracts/Token.sol\":11896:11967  function decimals() public view returns (uint8) {return meta.decimals;} */\n    tag_8:\n      tag_50\n      tag_51\n      jump\t// in\n    tag_50:\n      mload(0x40)\n      tag_52\n      swap2\n      swap1\n      tag_53\n      jump\t// in\n    tag_52:\n      mload(0x40)\n      dup1\n      swap2\n      sub\n      swap1\n      return\n        /* \"smart_contracts/contracts/Token.sol\":8504:8843  function increaseAllowance(address _spender, uint256 _value) public returns (bool) {... */\n    tag_9:\n      tag_54\n      0x04\n      dup1\n      calldatasize\n      sub\n      dup2\n      add\n      swap1\n      tag_55\n      swap2\n      swap1\n      tag_32\n      jump\t// in\n    tag_55:\n      tag_56\n      jump\t// in\n    tag_54:\n      mload(0x40)\n      tag_57\n      swap2\n      swap1\n      tag_35\n      jump\t// in\n    tag_57:\n      mload(0x40)\n      dup1\n      swap2\n      sub\n      swap1\n      return\n        /* \"smart_contracts/contracts/Token.sol\":12232:12319  function stakeOf(address _owner) public view returns (uint256) {return staked[_owner];} */\n    tag_10:\n      tag_58\n      0x04\n      dup1\n      calldatasize\n      sub\n      dup2\n      add\n      swap1\n      tag_59\n      swap2\n      swap1\n      tag_60\n      jump\t// in\n    tag_59:\n      tag_61\n      jump\t// in\n    tag_58:\n      mload(0x40)\n      tag_62\n      swap2\n      swap1\n      tag_39\n      jump\t// in\n    tag_62:\n      mload(0x40)\n      dup1\n      swap2\n      sub\n      swap1\n      return\n        /* \"smart_contracts/contracts/Token.sol\":11413:11568  function setStateIsTransferable(bool _is) public onlyAdmin onlyDev returns (bool) {... */\n    tag_11:\n      tag_63\n      0x04\n      dup1\n      calldatasize\n      sub\n      dup2\n      add\n      swap1\n      tag_64\n      swap2\n      swap1\n      tag_65\n      jump\t// in\n    tag_64:\n      tag_66\n      jump\t// in\n    tag_63:\n      mload(0x40)\n      tag_67\n      swap2\n      swap1\n      tag_35\n      jump\t// in\n    tag_67:\n      mload(0x40)\n      dup1\n      swap2\n      sub\n      swap1\n      return\n        /* \"smart_contracts/contracts/Token.sol\":12137:12227  function balanceOf(address _owner) public view returns (uint256) {return balance[_owner];} */\n    tag_12:\n      tag_68\n      0x04\n      dup1\n      calldatasize\n      sub\n      dup2\n      add\n      swap1\n      tag_69\n      swap2\n      swap1\n      tag_60\n      jump\t// in\n    tag_69:\n      tag_70\n      jump\t// in\n    tag_68:\n      mload(0x40)\n      tag_71\n      swap2\n      swap1\n      tag_39\n      jump\t// in\n    tag_71:\n      mload(0x40)\n      dup1\n      swap2\n      sub\n      swap1\n      return\n        /* \"smart_contracts/contracts/Token.sol\":12324:12410  function votesOf(address _owner) public view returns (uint256) {return votes[_owner];} */\n    tag_13:\n      tag_72\n      0x04\n      dup1\n      calldatasize\n      sub\n      dup2\n      add\n      swap1\n      tag_73\n      swap2\n      swap1\n      tag_60\n      jump\t// in\n    tag_73:\n      tag_74\n      jump\t// in\n    tag_72:\n      mload(0x40)\n      tag_75\n      swap2\n      swap1\n      tag_39\n      jump\t// in\n    tag_75:\n      mload(0x40)\n      dup1\n      swap2\n      sub\n      swap1\n      return\n        /* \"smart_contracts/contracts/Token.sol\":11816:11891  function symbol() public view returns (string memory) {return meta.symbol;} */\n    tag_14:\n      tag_76\n      tag_77\n      jump\t// in\n    tag_76:\n      mload(0x40)\n      tag_78\n      swap2\n      swap1\n      tag_29\n      jump\t// in\n    tag_78:\n      mload(0x40)\n      dup1\n      swap2\n      sub\n      swap1\n      return\n        /* \"smart_contracts/contracts/Token.sol\":11220:11407  function setStateIsPaused(bool _is) public onlyAdmin onlyDev onlyOperator returns (bool) {... */\n    tag_15:\n      tag_79\n      0x04\n      dup1\n      calldatasize\n      sub\n      dup2\n      add\n      swap1\n      tag_80\n      swap2\n      swap1\n      tag_65\n      jump\t// in\n    tag_80:\n      tag_81\n      jump\t// in\n    tag_79:\n      mload(0x40)\n      tag_82\n      swap2\n      swap1\n      tag_35\n      jump\t// in\n    tag_82:\n      mload(0x40)\n      dup1\n      swap2\n      sub\n      swap1\n      return\n        /* \"smart_contracts/contracts/Token.sol\":8849:9263  function decreaseAllowance(address _spender, uint256 _value) public returns (bool) {... */\n    tag_16:\n      tag_83\n      0x04\n      dup1\n      calldatasize\n      sub\n      dup2\n      add\n      swap1\n      tag_84\n      swap2\n      swap1\n      tag_32\n      jump\t// in\n    tag_84:\n      tag_85\n      jump\t// in\n    tag_83:\n      mload(0x40)\n      tag_86\n      swap2\n      swap1\n      tag_35\n      jump\t// in\n    tag_86:\n      mload(0x40)\n      dup1\n      swap2\n      sub\n      swap1\n      return\n        /* \"smart_contracts/contracts/Token.sol\":7602:7965  function stake(uint256 _value) public returns (bool) {... */\n    tag_17:\n      tag_87\n      0x04\n      dup1\n      calldatasize\n      sub\n      dup2\n      add\n      swap1\n      tag_88\n      swap2\n      swap1\n      tag_47\n      jump\t// in\n    tag_88:\n      tag_89\n      jump\t// in\n    tag_87:\n      mload(0x40)\n      tag_90\n      swap2\n      swap1\n      tag_35\n      jump\t// in\n    tag_90:\n      mload(0x40)\n      dup1\n      swap2\n      sub\n      swap1\n      return\n        /* \"smart_contracts/contracts/Token.sol\":6901:7127  function transfer(address _to, uint256 _value) public returns (bool) {... */\n    tag_18:\n      tag_91\n      0x04\n      dup1\n      calldatasize\n      sub\n      dup2\n      add\n      swap1\n      tag_92\n      swap2\n      swap1\n      tag_32\n      jump\t// in\n    tag_92:\n      tag_93\n      jump\t// in\n    tag_91:\n      mload(0x40)\n      tag_94\n      swap2\n      swap1\n      tag_35\n      jump\t// in\n    tag_94:\n      mload(0x40)\n      dup1\n      swap2\n      sub\n      swap1\n      return\n        /* \"smart_contracts/contracts/Token.sol\":12056:12131  function maxSupply() public view returns (uint256) {return meta.maxSupply;} */\n    tag_19:\n      tag_95\n      tag_96\n      jump\t// in\n    tag_95:\n      mload(0x40)\n      tag_97\n      swap2\n      swap1\n      tag_39\n      jump\t// in\n    tag_97:\n      mload(0x40)\n      dup1\n      swap2\n      sub\n      swap1\n      return\n        /* \"smart_contracts/contracts/Token.sol\":11574:11734  function setStateIsMintable(bool _is) public onlyAdmin onlyDev onlyOperator returns (bool) {... */\n    tag_20:\n      tag_98\n      0x04\n      dup1\n      calldatasize\n      sub\n      dup2\n      add\n      swap1\n      tag_99\n      swap2\n      swap1\n      tag_65\n      jump\t// in\n    tag_99:\n      tag_100\n      jump\t// in\n    tag_98:\n      mload(0x40)\n      tag_101\n      swap2\n      swap1\n      tag_35\n      jump\t// in\n    tag_101:\n      mload(0x40)\n      dup1\n      swap2\n      sub\n      swap1\n      return\n        /* \"smart_contracts/contracts/Token.sol\":8371:8499  function allowance(address _owner, address _spender) public view returns (uint256 remaining) {return allowed[_owner][_spender];} */\n    tag_21:\n      tag_102\n      0x04\n      dup1\n      calldatasize\n      sub\n      dup2\n      add\n      swap1\n      tag_103\n      swap2\n      swap1\n      tag_104\n      jump\t// in\n    tag_103:\n      tag_105\n      jump\t// in\n    tag_102:\n      mload(0x40)\n      tag_106\n      swap2\n      swap1\n      tag_39\n      jump\t// in\n    tag_106:\n      mload(0x40)\n      dup1\n      swap2\n      sub\n      swap1\n      return\n        /* \"smart_contracts/contracts/Token.sol\":9605:10065  function release(string memory _id) public returns (bool) {... */\n    tag_22:\n      tag_107\n      0x04\n      dup1\n      calldatasize\n      sub\n      dup2\n      add\n      swap1\n      tag_108\n      swap2\n      swap1\n      tag_109\n      jump\t// in\n    tag_108:\n      tag_110\n      jump\t// in\n    tag_107:\n      mload(0x40)\n      tag_111\n      swap2\n      swap1\n      tag_35\n      jump\t// in\n    tag_111:\n      mload(0x40)\n      dup1\n      swap2\n      sub\n      swap1\n      return\n        /* \"smart_contracts/contracts/Token.sol\":11740:11811  function name() public view returns (string memory) {return meta.name;} */\n    tag_27:\n        /* \"smart_contracts/contracts/Token.sol\":11777:11790  string memory */\n      0x60\n        /* \"smart_contracts/contracts/Token.sol\":11800:11804  meta */\n      0x13\n        /* \"smart_contracts/contracts/Token.sol\":11800:11809  meta.name */\n      0x00\n      add\n        /* \"smart_contracts/contracts/Token.sol\":11793:11809  return meta.name */\n      dup1\n      sload\n      tag_114\n      swap1\n      tag_115\n      jump\t// in\n    tag_114:\n      dup1\n      0x1f\n      add\n      0x20\n      dup1\n      swap2\n      div\n      mul\n      0x20\n      add\n      mload(0x40)\n      swap1\n      dup2\n      add\n      0x40\n      mstore\n      dup1\n      swap3\n      swap2\n      swap1\n      dup2\n      dup2\n      mstore\n      0x20\n      add\n      dup3\n      dup1\n      sload\n      tag_116\n      swap1\n      tag_115\n      jump\t// in\n    tag_116:\n      dup1\n      iszero\n      tag_117\n      jumpi\n      dup1\n      0x1f\n      lt\n      tag_118\n      jumpi\n      0x0100\n      dup1\n      dup4\n      sload\n      div\n      mul\n      dup4\n      mstore\n      swap2\n      0x20\n      add\n      swap2\n      jump(tag_117)\n    tag_118:\n      dup3\n      add\n      swap2\n      swap1\n      0x00\n      mstore\n      keccak256(0x00, 0x20)\n      swap1\n    tag_119:\n      dup2\n      sload\n      dup2\n      mstore\n      swap1\n      0x01\n      add\n      swap1\n      0x20\n      add\n      dup1\n      dup4\n      gt\n      tag_119\n      jumpi\n      dup3\n      swap1\n      sub\n      0x1f\n      and\n      dup3\n      add\n      swap2\n    tag_117:\n      pop\n      pop\n      pop\n      pop\n      pop\n      swap1\n      pop\n        /* \"smart_contracts/contracts/Token.sol\":11740:11811  function name() public view returns (string memory) {return meta.name;} */\n      swap1\n      jump\t// out\n        /* \"smart_contracts/contracts/Token.sol\":9269:9550  function approve(address _spender, uint256 _value) public returns (bool success) {... */\n    tag_33:\n        /* \"smart_contracts/contracts/Token.sol\":9336:9348  bool success */\n      0x00\n        /* \"smart_contracts/contracts/Token.sol\":9385:9386  0 */\n      dup1\n        /* \"smart_contracts/contracts/Token.sol\":9369:9387  sndr != address(0) */\n      0xffffffffffffffffffffffffffffffffffffffff\n      and\n        /* \"smart_contracts/contracts/Token.sol\":9369:9373  sndr */\n      0x00\n      dup1\n      sload\n      swap1\n      0x0100\n      exp\n      swap1\n      div\n      0xffffffffffffffffffffffffffffffffffffffff\n      and\n        /* \"smart_contracts/contracts/Token.sol\":9369:9387  sndr != address(0) */\n      0xffffffffffffffffffffffffffffffffffffffff\n      and\n      eq\n      iszero\n        /* \"smart_contracts/contracts/Token.sol\":9368:9416  (sndr != address(0)) && (_spender != address(0)) */\n      dup1\n      iszero\n      tag_121\n      jumpi\n      pop\n        /* \"smart_contracts/contracts/Token.sol\":9413:9414  0 */\n      0x00\n        /* \"smart_contracts/contracts/Token.sol\":9393:9415  _spender != address(0) */\n      0xffffffffffffffffffffffffffffffffffffffff\n      and\n        /* \"smart_contracts/contracts/Token.sol\":9393:9401  _spender */\n      dup4\n        /* \"smart_contracts/contracts/Token.sol\":9393:9415  _spender != address(0) */\n      0xffffffffffffffffffffffffffffffffffffffff\n      and\n      eq\n      iszero\n        /* \"smart_contracts/contracts/Token.sol\":9368:9416  (sndr != address(0)) && (_spender != address(0)) */\n    tag_121:\n        /* \"smart_contracts/contracts/Token.sol\":9360:9433  require((sndr != address(0)) && (_spender != address(0)), \"zero address\") */\n      tag_122\n      jumpi\n      mload(0x40)\n      0x08c379a000000000000000000000000000000000000000000000000000000000\n      dup2\n      mstore\n      0x04\n      add\n      tag_123\n      swap1\n      tag_124\n      jump\t// in\n    tag_123:\n      mload(0x40)\n      dup1\n      swap2\n      sub\n      swap1\n      revert\n    tag_122:\n        /* \"smart_contracts/contracts/Token.sol\":9469:9475  _value */\n      dup2\n        /* \"smart_contracts/contracts/Token.sol\":9443:9450  allowed */\n      0x20\n        /* \"smart_contracts/contracts/Token.sol\":9443:9456  allowed[sndr] */\n      0x00\n        /* \"smart_contracts/contracts/Token.sol\":9451:9455  sndr */\n      dup1\n      0x00\n      swap1\n      sload\n      swap1\n      0x0100\n      exp\n      swap1\n      div\n      0xffffffffffffffffffffffffffffffffffffffff\n      and\n        /* \"smart_contracts/contracts/Token.sol\":9443:9456  allowed[sndr] */\n      0xffffffffffffffffffffffffffffffffffffffff\n      and\n      0xffffffffffffffffffffffffffffffffffffffff\n      and\n      dup2\n      mstore\n      0x20\n      add\n      swap1\n      dup2\n      mstore\n      0x20\n      add\n      0x00\n      keccak256\n        /* \"smart_contracts/contracts/Token.sol\":9443:9466  allowed[sndr][_spender] */\n      0x00\n        /* \"smart_contracts/contracts/Token.sol\":9457:9465  _spender */\n      dup6\n        /* \"smart_contracts/contracts/Token.sol\":9443:9466  allowed[sndr][_spender] */\n      0xffffffffffffffffffffffffffffffffffffffff\n      and\n      0xffffffffffffffffffffffffffffffffffffffff\n      and\n      dup2\n      mstore\n      0x20\n      add\n      swap1\n      dup2\n      mstore\n      0x20\n      add\n      0x00\n      keccak256\n        /* \"smart_contracts/contracts/Token.sol\":9443:9475  allowed[sndr][_spender] = _value */\n      dup2\n      swap1\n      sstore\n      pop\n        /* \"smart_contracts/contracts/Token.sol\":9505:9513  _spender */\n      dup3\n        /* \"smart_contracts/contracts/Token.sol\":9490:9522  Approval(sndr, _spender, _value) */\n      0xffffffffffffffffffffffffffffffffffffffff\n      and\n        /* \"smart_contracts/contracts/Token.sol\":9499:9503  sndr */\n      0x00\n      dup1\n      sload\n      swap1\n      0x0100\n      exp\n      swap1\n      div\n      0xffffffffffffffffffffffffffffffffffffffff\n      and\n        /* \"smart_contracts/contracts/Token.sol\":9490:9522  Approval(sndr, _spender, _value) */\n      0xffffffffffffffffffffffffffffffffffffffff\n      and\n      0x8c5be1e5ebec7d5bd14f71427d1e84f3dd0314c0f7b2291e5b200ac8c7c3b925\n        /* \"smart_contracts/contracts/Token.sol\":9515:9521  _value */\n      dup5\n        /* \"smart_contracts/contracts/Token.sol\":9490:9522  Approval(sndr, _spender, _value) */\n      mload(0x40)\n      tag_125\n      swap2\n      swap1\n      tag_39\n      jump\t// in\n    tag_125:\n      mload(0x40)\n      dup1\n      swap2\n      sub\n      swap1\n      log3\n        /* \"smart_contracts/contracts/Token.sol\":9539:9543  true */\n      0x01\n        /* \"smart_contracts/contracts/Token.sol\":9532:9543  return true */\n      swap1\n      pop\n        /* \"smart_contracts/contracts/Token.sol\":9269:9550  function approve(address _spender, uint256 _value) public returns (bool success) {... */\n      swap3\n      swap2\n      pop\n      pop\n      jump\t// out\n        /* \"smart_contracts/contracts/Token.sol\":11972:12051  function totalSupply() public view returns (uint256) {return meta.totalSupply;} */\n    tag_37:\n        /* \"smart_contracts/contracts/Token.sol\":12016:12023  uint256 */\n      0x00\n        /* \"smart_contracts/contracts/Token.sol\":12033:12037  meta */\n      0x13\n        /* \"smart_contracts/contracts/Token.sol\":12033:12049  meta.totalSupply */\n      0x03\n      add\n      sload\n        /* \"smart_contracts/contracts/Token.sol\":12026:12049  return meta.totalSupply */\n      swap1\n      pop\n        /* \"smart_contracts/contracts/Token.sol\":11972:12051  function totalSupply() public view returns (uint256) {return meta.totalSupply;} */\n      swap1\n      jump\t// out\n        /* \"smart_contracts/contracts/Token.sol\":7133:7596  function transferFrom(address _from, address _to, uint256 _value) public returns (bool) {... */\n    tag_43:\n        /* \"smart_contracts/contracts/Token.sol\":7215:7219  bool */\n      0x00\n        /* \"smart_contracts/contracts/Token.sol\":7278:7295  type(uint256).max */\n      0xffffffffffffffffffffffffffffffffffffffffffffffffffffffffffffffff\n        /* \"smart_contracts/contracts/Token.sol\":7252:7274  allowance(_from, sndr) */\n      tag_128\n        /* \"smart_contracts/contracts/Token.sol\":7262:7267  _from */\n      dup6\n        /* \"smart_contracts/contracts/Token.sol\":7269:7273  sndr */\n      0x00\n      dup1\n      sload\n      swap1\n      0x0100\n      exp\n      swap1\n      div\n      0xffffffffffffffffffffffffffffffffffffffff\n      and\n        /* \"smart_contracts/contracts/Token.sol\":7252:7261  allowance */\n      tag_105\n        /* \"smart_contracts/contracts/Token.sol\":7252:7274  allowance(_from, sndr) */\n      jump\t// in\n    tag_128:\n        /* \"smart_contracts/contracts/Token.sol\":7252:7295  allowance(_from, sndr) != type(uint256).max */\n      eq\n      iszero\n        /* \"smart_contracts/contracts/Token.sol\":7252:7343  allowance(_from, sndr) != type(uint256).max &&... */\n      dup1\n      iszero\n      tag_129\n      jumpi\n      pop\n        /* \"smart_contracts/contracts/Token.sol\":7337:7343  _value */\n      dup2\n        /* \"smart_contracts/contracts/Token.sol\":7311:7333  allowance(_from, sndr) */\n      tag_130\n        /* \"smart_contracts/contracts/Token.sol\":7321:7326  _from */\n      dup6\n        /* \"smart_contracts/contracts/Token.sol\":7328:7332  sndr */\n      0x00\n      dup1\n      sload\n      swap1\n      0x0100\n      exp\n      swap1\n      div\n      0xffffffffffffffffffffffffffffffffffffffff\n      and\n        /* \"smart_contracts/contracts/Token.sol\":7311:7320  allowance */\n      tag_105\n        /* \"smart_contracts/contracts/Token.sol\":7311:7333  allowance(_from, sndr) */\n      jump\t// in\n    tag_130:\n        /* \"smart_contracts/contracts/Token.sol\":7311:7343  allowance(_from, sndr) >= _value */\n      lt\n      iszero\n        /* \"smart_contracts/contracts/Token.sol\":7252:7343  allowance(_from, sndr) != type(uint256).max &&... */\n    tag_129:\n        /* \"smart_contracts/contracts/Token.sol\":7231:7353  require(... */\n      tag_131\n      jumpi\n      0x00\n      dup1\n      revert\n    tag_131:\n        /* \"smart_contracts/contracts/Token.sol\":7387:7393  _value */\n      dup2\n        /* \"smart_contracts/contracts/Token.sol\":7364:7371  allowed */\n      0x20\n        /* \"smart_contracts/contracts/Token.sol\":7364:7378  allowed[_from] */\n      0x00\n        /* \"smart_contracts/contracts/Token.sol\":7372:7377  _from */\n      dup7\n        /* \"smart_contracts/contracts/Token.sol\":7364:7378  allowed[_from] */\n      0xffffffffffffffffffffffffffffffffffffffff\n      and\n      0xffffffffffffffffffffffffffffffffffffffff\n      and\n      dup2\n      mstore\n      0x20\n      add\n      swap1\n      dup2\n      mstore\n      0x20\n      add\n      0x00\n      keccak256\n        /* \"smart_contracts/contracts/Token.sol\":7364:7384  allowed[_from][sndr] */\n      0x00\n        /* \"smart_contracts/contracts/Token.sol\":7379:7383  sndr */\n      dup1\n      0x00\n      swap1\n      sload\n      swap1\n      0x0100\n      exp\n      swap1\n      div\n      0xffffffffffffffffffffffffffffffffffffffff\n      and\n        /* \"smart_contracts/contracts/Token.sol\":7364:7384  allowed[_from][sndr] */\n      0xffffffffffffffffffffffffffffffffffffffff\n      and\n      0xffffffffffffffffffffffffffffffffffffffff\n      and\n      dup2\n      mstore\n      0x20\n      add\n      swap1\n      dup2\n      mstore\n      0x20\n      add\n      0x00\n      keccak256\n        /* \"smart_contracts/contracts/Token.sol\":7364:7393  allowed[_from][sndr] = _value */\n      dup2\n      swap1\n      sstore\n      pop\n        /* \"smart_contracts/contracts/Token.sol\":7424:7428  sndr */\n      0x00\n      dup1\n      sload\n      swap1\n      0x0100\n      exp\n      swap1\n      div\n      0xffffffffffffffffffffffffffffffffffffffff\n      and\n        /* \"smart_contracts/contracts/Token.sol\":7408:7437  Approval(_from, sndr, _value) */\n      0xffffffffffffffffffffffffffffffffffffffff\n      and\n        /* \"smart_contracts/contracts/Token.sol\":7417:7422  _from */\n      dup5\n        /* \"smart_contracts/contracts/Token.sol\":7408:7437  Approval(_from, sndr, _value) */\n      0xffffffffffffffffffffffffffffffffffffffff\n      and\n      0x8c5be1e5ebec7d5bd14f71427d1e84f3dd0314c0f7b2291e5b200ac8c7c3b925\n        /* \"smart_contracts/contracts/Token.sol\":7430:7436  _value */\n      dup5\n        /* \"smart_contracts/contracts/Token.sol\":7408:7437  Approval(_from, sndr, _value) */\n      mload(0x40)\n      tag_132\n      swap2\n      swap1\n      tag_39\n      jump\t// in\n    tag_132:\n      mload(0x40)\n      dup1\n      swap2\n      sub\n      swap1\n      log3\n        /* \"smart_contracts/contracts/Token.sol\":7449:7462  bool _success */\n      0x00\n        /* \"smart_contracts/contracts/Token.sol\":7464:7481  uint256 _newValue */\n      dup1\n        /* \"smart_contracts/contracts/Token.sol\":7485:7564  transfer_(_from, _to, _value, settings.bpTransferBurn, settings.bpTransferBank) */\n      tag_133\n        /* \"smart_contracts/contracts/Token.sol\":7495:7500  _from */\n      dup7\n        /* \"smart_contracts/contracts/Token.sol\":7502:7505  _to */\n      dup7\n        /* \"smart_contracts/contracts/Token.sol\":7507:7513  _value */\n      dup7\n        /* \"smart_contracts/contracts/Token.sol\":7515:7523  settings */\n      0x09\n        /* \"smart_contracts/contracts/Token.sol\":7515:7538  settings.bpTransferBurn */\n      0x02\n      add\n      sload\n        /* \"smart_contracts/contracts/Token.sol\":7540:7548  settings */\n      0x09\n        /* \"smart_contracts/contracts/Token.sol\":7540:7563  settings.bpTransferBank */\n      0x03\n      add\n      sload\n        /* \"smart_contracts/contracts/Token.sol\":7485:7494  transfer_ */\n      tag_134\n        /* \"smart_contracts/contracts/Token.sol\":7485:7564  transfer_(_from, _to, _value, settings.bpTransferBurn, settings.bpTransferBank) */\n      jump\t// in\n    tag_133:\n        /* \"smart_contracts/contracts/Token.sol\":7448:7564  (bool _success, uint256 _newValue) = transfer_(_from, _to, _value, settings.bpTransferBurn, settings.bpTransferBank) */\n      swap2\n      pop\n      swap2\n      pop\n        /* \"smart_contracts/contracts/Token.sol\":7581:7589  _success */\n      dup2\n        /* \"smart_contracts/contracts/Token.sol\":7574:7589  return _success */\n      swap3\n      pop\n      pop\n      pop\n        /* \"smart_contracts/contracts/Token.sol\":7133:7596  function transferFrom(address _from, address _to, uint256 _value) public returns (bool) {... */\n      swap4\n      swap3\n      pop\n      pop\n      pop\n      jump\t// out\n        /* \"smart_contracts/contracts/Token.sol\":7971:8365  function unstake(uint256 _value) public returns (bool) {... */\n    tag_48:\n        /* \"smart_contracts/contracts/Token.sol\":8020:8024  bool */\n      0x00\n        /* \"smart_contracts/contracts/Token.sol\":8060:8066  _value */\n      dup2\n        /* \"smart_contracts/contracts/Token.sol\":8044:8050  staked */\n      0x1e\n        /* \"smart_contracts/contracts/Token.sol\":8044:8056  staked[sndr] */\n      0x00\n        /* \"smart_contracts/contracts/Token.sol\":8051:8055  sndr */\n      dup1\n      0x00\n      swap1\n      sload\n      swap1\n      0x0100\n      exp\n      swap1\n      div\n      0xffffffffffffffffffffffffffffffffffffffff\n      and\n        /* \"smart_contracts/contracts/Token.sol\":8044:8056  staked[sndr] */\n      0xffffffffffffffffffffffffffffffffffffffff\n      and\n      0xffffffffffffffffffffffffffffffffffffffff\n      and\n      dup2\n      mstore\n      0x20\n      add\n      swap1\n      dup2\n      mstore\n      0x20\n      add\n      0x00\n      keccak256\n      sload\n        /* \"smart_contracts/contracts/Token.sol\":8044:8066  staked[sndr] >= _value */\n      lt\n      iszero\n        /* \"smart_contracts/contracts/Token.sol\":8036:8067  require(staked[sndr] >= _value) */\n      tag_136\n      jumpi\n      0x00\n      dup1\n      revert\n    tag_136:\n        /* \"smart_contracts/contracts/Token.sol\":8078:8091  bool _success */\n      0x00\n        /* \"smart_contracts/contracts/Token.sol\":8093:8110  uint256 _newValue */\n      dup1\n        /* \"smart_contracts/contracts/Token.sol\":8114:8199  transfer_(meta.vault, sndr, _value, settings.bpTransferBurn, settings.bpTransferBank) */\n      tag_137\n        /* \"smart_contracts/contracts/Token.sol\":8124:8128  meta */\n      0x13\n        /* \"smart_contracts/contracts/Token.sol\":8124:8134  meta.vault */\n      0x08\n      add\n      0x00\n      swap1\n      sload\n      swap1\n      0x0100\n      exp\n      swap1\n      div\n      0xffffffffffffffffffffffffffffffffffffffff\n      and\n        /* \"smart_contracts/contracts/Token.sol\":8136:8140  sndr */\n      0x00\n      dup1\n      sload\n      swap1\n      0x0100\n      exp\n      swap1\n      div\n      0xffffffffffffffffffffffffffffffffffffffff\n      and\n        /* \"smart_contracts/contracts/Token.sol\":8142:8148  _value */\n      dup7\n        /* \"smart_contracts/contracts/Token.sol\":8150:8158  settings */\n      0x09\n        /* \"smart_contracts/contracts/Token.sol\":8150:8173  settings.bpTransferBurn */\n      0x02\n      add\n      sload\n        /* \"smart_contracts/contracts/Token.sol\":8175:8183  settings */\n      0x09\n        /* \"smart_contracts/contracts/Token.sol\":8175:8198  settings.bpTransferBank */\n      0x03\n      add\n      sload\n        /* \"smart_contracts/contracts/Token.sol\":8114:8123  transfer_ */\n      tag_134\n        /* \"smart_contracts/contracts/Token.sol\":8114:8199  transfer_(meta.vault, sndr, _value, settings.bpTransferBurn, settings.bpTransferBank) */\n      jump\t// in\n    tag_137:\n        /* \"smart_contracts/contracts/Token.sol\":8077:8199  (bool _success, uint256 _newValue) = transfer_(meta.vault, sndr, _value, settings.bpTransferBurn, settings.bpTransferBank) */\n      swap2\n      pop\n      swap2\n      pop\n        /* \"smart_contracts/contracts/Token.sol\":8225:8231  _value */\n      dup4\n        /* \"smart_contracts/contracts/Token.sol\":8209:8215  staked */\n      0x1e\n        /* \"smart_contracts/contracts/Token.sol\":8209:8221  staked[sndr] */\n      0x00\n        /* \"smart_contracts/contracts/Token.sol\":8216:8220  sndr */\n      dup1\n      0x00\n      swap1\n      sload\n      swap1\n      0x0100\n      exp\n      swap1\n      div\n      0xffffffffffffffffffffffffffffffffffffffff\n      and\n        /* \"smart_contracts/contracts/Token.sol\":8209:8221  staked[sndr] */\n      0xffffffffffffffffffffffffffffffffffffffff\n      and\n      0xffffffffffffffffffffffffffffffffffffffff\n      and\n      dup2\n      mstore\n      0x20\n      add\n      swap1\n      dup2\n      mstore\n      0x20\n      add\n      0x00\n      keccak256\n      0x00\n        /* \"smart_contracts/contracts/Token.sol\":8209:8231  staked[sndr] -= _value */\n      dup3\n      dup3\n      sload\n      tag_138\n      swap2\n      swap1\n      tag_139\n      jump\t// in\n    tag_138:\n      swap3\n      pop\n      pop\n      dup2\n      swap1\n      sstore\n      pop\n        /* \"smart_contracts/contracts/Token.sol\":8256:8262  _value */\n      dup4\n        /* \"smart_contracts/contracts/Token.sol\":8241:8246  votes */\n      0x1f\n        /* \"smart_contracts/contracts/Token.sol\":8241:8252  votes[sndr] */\n      0x00\n        /* \"smart_contracts/contracts/Token.sol\":8247:8251  sndr */\n      dup1\n      0x00\n      swap1\n      sload\n      swap1\n      0x0100\n      exp\n      swap1\n      div\n      0xffffffffffffffffffffffffffffffffffffffff\n      and\n        /* \"smart_contracts/contracts/Token.sol\":8241:8252  votes[sndr] */\n      0xffffffffffffffffffffffffffffffffffffffff\n      and\n      0xffffffffffffffffffffffffffffffffffffffff\n      and\n      dup2\n      mstore\n      0x20\n      add\n      swap1\n      dup2\n      mstore\n      0x20\n      add\n      0x00\n      keccak256\n      0x00\n        /* \"smart_contracts/contracts/Token.sol\":8241:8262  votes[sndr] -= _value */\n      dup3\n      dup3\n      sload\n      tag_140\n      swap2\n      swap1\n      tag_139\n      jump\t// in\n    tag_140:\n      swap3\n      pop\n      pop\n      dup2\n      swap1\n      sstore\n      pop\n        /* \"smart_contracts/contracts/Token.sol\":8292:8298  _value */\n      dup4\n        /* \"smart_contracts/contracts/Token.sol\":8272:8276  meta */\n      0x13\n        /* \"smart_contracts/contracts/Token.sol\":8272:8288  meta.totalStaked */\n      0x04\n      add\n      0x00\n        /* \"smart_contracts/contracts/Token.sol\":8272:8298  meta.totalStaked -= _value */\n      dup3\n      dup3\n      sload\n      tag_141\n      swap2\n      swap1\n      tag_139\n      jump\t// in\n    tag_141:\n      swap3\n      pop\n      pop\n      dup2\n      swap1\n      sstore\n      pop\n        /* \"smart_contracts/contracts/Token.sol\":8327:8333  _value */\n      dup4\n        /* \"smart_contracts/contracts/Token.sol\":8308:8312  meta */\n      0x13\n        /* \"smart_contracts/contracts/Token.sol\":8308:8323  meta.totalVotes */\n      0x05\n      add\n      0x00\n        /* \"smart_contracts/contracts/Token.sol\":8308:8333  meta.totalVotes -= _value */\n      dup3\n      dup3\n      sload\n      tag_142\n      swap2\n      swap1\n      tag_139\n      jump\t// in\n    tag_142:\n      swap3\n      pop\n      pop\n      dup2\n      swap1\n      sstore\n      pop\n        /* \"smart_contracts/contracts/Token.sol\":8350:8358  _success */\n      dup2\n        /* \"smart_contracts/contracts/Token.sol\":8343:8358  return _success */\n      swap3\n      pop\n      pop\n      pop\n        /* \"smart_contracts/contracts/Token.sol\":7971:8365  function unstake(uint256 _value) public returns (bool) {... */\n      swap2\n      swap1\n      pop\n      jump\t// out\n        /* \"smart_contracts/contracts/Token.sol\":11896:11967  function decimals() public view returns (uint8) {return meta.decimals;} */\n    tag_51:\n        /* \"smart_contracts/contracts/Token.sol\":11937:11942  uint8 */\n      0x00\n        /* \"smart_contracts/contracts/Token.sol\":11952:11956  meta */\n      0x13\n        /* \"smart_contracts/contracts/Token.sol\":11952:11965  meta.decimals */\n      0x02\n      add\n      0x00\n      swap1\n      sload\n      swap1\n      0x0100\n      exp\n      swap1\n      div\n      0xff\n      and\n        /* \"smart_contracts/contracts/Token.sol\":11945:11965  return meta.decimals */\n      swap1\n      pop\n        /* \"smart_contracts/contracts/Token.sol\":11896:11967  function decimals() public view returns (uint8) {return meta.decimals;} */\n      swap1\n      jump\t// out\n        /* \"smart_contracts/contracts/Token.sol\":8504:8843  function increaseAllowance(address _spender, uint256 _value) public returns (bool) {... */\n    tag_56:\n        /* \"smart_contracts/contracts/Token.sol\":8581:8585  bool */\n      0x00\n        /* \"smart_contracts/contracts/Token.sol\":8622:8623  0 */\n      dup1\n        /* \"smart_contracts/contracts/Token.sol\":8606:8624  sndr != address(0) */\n      0xffffffffffffffffffffffffffffffffffffffff\n      and\n        /* \"smart_contracts/contracts/Token.sol\":8606:8610  sndr */\n      0x00\n      dup1\n      sload\n      swap1\n      0x0100\n      exp\n      swap1\n      div\n      0xffffffffffffffffffffffffffffffffffffffff\n      and\n        /* \"smart_contracts/contracts/Token.sol\":8606:8624  sndr != address(0) */\n      0xffffffffffffffffffffffffffffffffffffffff\n      and\n      eq\n      iszero\n        /* \"smart_contracts/contracts/Token.sol\":8605:8653  (sndr != address(0)) && (_spender != address(0)) */\n      dup1\n      iszero\n      tag_145\n      jumpi\n      pop\n        /* \"smart_contracts/contracts/Token.sol\":8650:8651  0 */\n      0x00\n        /* \"smart_contracts/contracts/Token.sol\":8630:8652  _spender != address(0) */\n      0xffffffffffffffffffffffffffffffffffffffff\n      and\n        /* \"smart_contracts/contracts/Token.sol\":8630:8638  _spender */\n      dup4\n        /* \"smart_contracts/contracts/Token.sol\":8630:8652  _spender != address(0) */\n      0xffffffffffffffffffffffffffffffffffffffff\n      and\n      eq\n      iszero\n        /* \"smart_contracts/contracts/Token.sol\":8605:8653  (sndr != address(0)) && (_spender != address(0)) */\n    tag_145:\n        /* \"smart_contracts/contracts/Token.sol\":8597:8670  require((sndr != address(0)) && (_spender != address(0)), \"zero address\") */\n      tag_146\n      jumpi\n      mload(0x40)\n      0x08c379a000000000000000000000000000000000000000000000000000000000\n      dup2\n      mstore\n      0x04\n      add\n      tag_147\n      swap1\n      tag_124\n      jump\t// in\n    tag_147:\n      mload(0x40)\n      dup1\n      swap2\n      sub\n      swap1\n      revert\n    tag_146:\n        /* \"smart_contracts/contracts/Token.sol\":8734:8740  _value */\n      dup2\n        /* \"smart_contracts/contracts/Token.sol\":8706:8731  allowance(sndr, _spender) */\n      tag_148\n        /* \"smart_contracts/contracts/Token.sol\":8716:8720  sndr */\n      0x00\n      dup1\n      sload\n      swap1\n      0x0100\n      exp\n      swap1\n      div\n      0xffffffffffffffffffffffffffffffffffffffff\n      and\n        /* \"smart_contracts/contracts/Token.sol\":8722:8730  _spender */\n      dup6\n        /* \"smart_contracts/contracts/Token.sol\":8706:8715  allowance */\n      tag_105\n        /* \"smart_contracts/contracts/Token.sol\":8706:8731  allowance(sndr, _spender) */\n      jump\t// in\n    tag_148:\n        /* \"smart_contracts/contracts/Token.sol\":8706:8740  allowance(sndr, _spender) + _value */\n      tag_149\n      swap2\n      swap1\n      tag_150\n      jump\t// in\n    tag_149:\n        /* \"smart_contracts/contracts/Token.sol\":8680:8687  allowed */\n      0x20\n        /* \"smart_contracts/contracts/Token.sol\":8680:8693  allowed[sndr] */\n      0x00\n        /* \"smart_contracts/contracts/Token.sol\":8688:8692  sndr */\n      dup1\n      0x00\n      swap1\n      sload\n      swap1\n      0x0100\n      exp\n      swap1\n      div\n      0xffffffffffffffffffffffffffffffffffffffff\n      and\n        /* \"smart_contracts/contracts/Token.sol\":8680:8693  allowed[sndr] */\n      0xffffffffffffffffffffffffffffffffffffffff\n      and\n      0xffffffffffffffffffffffffffffffffffffffff\n      and\n      dup2\n      mstore\n      0x20\n      add\n      swap1\n      dup2\n      mstore\n      0x20\n      add\n      0x00\n      keccak256\n        /* \"smart_contracts/contracts/Token.sol\":8680:8703  allowed[sndr][_spender] */\n      0x00\n        /* \"smart_contracts/contracts/Token.sol\":8694:8702  _spender */\n      dup6\n        /* \"smart_contracts/contracts/Token.sol\":8680:8703  allowed[sndr][_spender] */\n      0xffffffffffffffffffffffffffffffffffffffff\n      and\n      0xffffffffffffffffffffffffffffffffffffffff\n      and\n      dup2\n      mstore\n      0x20\n      add\n      swap1\n      dup2\n      mstore\n      0x20\n      add\n      0x00\n      keccak256\n        /* \"smart_contracts/contracts/Token.sol\":8680:8740  allowed[sndr][_spender] = allowance(sndr, _spender) + _value */\n      dup2\n      swap1\n      sstore\n      pop\n        /* \"smart_contracts/contracts/Token.sol\":8770:8778  _spender */\n      dup3\n        /* \"smart_contracts/contracts/Token.sol\":8755:8815  Approval(sndr, _spender, allowance(sndr, _spender) + _value) */\n      0xffffffffffffffffffffffffffffffffffffffff\n      and\n        /* \"smart_contracts/contracts/Token.sol\":8764:8768  sndr */\n      0x00\n      dup1\n      sload\n      swap1\n      0x0100\n      exp\n      swap1\n      div\n      0xffffffffffffffffffffffffffffffffffffffff\n      and\n        /* \"smart_contracts/contracts/Token.sol\":8755:8815  Approval(sndr, _spender, allowance(sndr, _spender) + _value) */\n      0xffffffffffffffffffffffffffffffffffffffff\n      and\n      0x8c5be1e5ebec7d5bd14f71427d1e84f3dd0314c0f7b2291e5b200ac8c7c3b925\n        /* \"smart_contracts/contracts/Token.sol\":8808:8814  _value */\n      dup5\n        /* \"smart_contracts/contracts/Token.sol\":8780:8805  allowance(sndr, _spender) */\n      tag_151\n        /* \"smart_contracts/contracts/Token.sol\":8790:8794  sndr */\n      0x00\n      dup1\n      sload\n      swap1\n      0x0100\n      exp\n      swap1\n      div\n      0xffffffffffffffffffffffffffffffffffffffff\n      and\n        /* \"smart_contracts/contracts/Token.sol\":8796:8804  _spender */\n      dup9\n        /* \"smart_contracts/contracts/Token.sol\":8780:8789  allowance */\n      tag_105\n        /* \"smart_contracts/contracts/Token.sol\":8780:8805  allowance(sndr, _spender) */\n      jump\t// in\n    tag_151:\n        /* \"smart_contracts/contracts/Token.sol\":8780:8814  allowance(sndr, _spender) + _value */\n      tag_152\n      swap2\n      swap1\n      tag_150\n      jump\t// in\n    tag_152:\n        /* \"smart_contracts/contracts/Token.sol\":8755:8815  Approval(sndr, _spender, allowance(sndr, _spender) + _value) */\n      mload(0x40)\n      tag_153\n      swap2\n      swap1\n      tag_39\n      jump\t// in\n    tag_153:\n      mload(0x40)\n      dup1\n      swap2\n      sub\n      swap1\n      log3\n        /* \"smart_contracts/contracts/Token.sol\":8832:8836  true */\n      0x01\n        /* \"smart_contracts/contracts/Token.sol\":8825:8836  return true */\n      swap1\n      pop\n        /* \"smart_contracts/contracts/Token.sol\":8504:8843  function increaseAllowance(address _spender, uint256 _value) public returns (bool) {... */\n      swap3\n      swap2\n      pop\n      pop\n      jump\t// out\n        /* \"smart_contracts/contracts/Token.sol\":12232:12319  function stakeOf(address _owner) public view returns (uint256) {return staked[_owner];} */\n    tag_61:\n        /* \"smart_contracts/contracts/Token.sol\":12286:12293  uint256 */\n      0x00\n        /* \"smart_contracts/contracts/Token.sol\":12303:12309  staked */\n      0x1e\n        /* \"smart_contracts/contracts/Token.sol\":12303:12317  staked[_owner] */\n      0x00\n        /* \"smart_contracts/contracts/Token.sol\":12310:12316  _owner */\n      dup4\n        /* \"smart_contracts/contracts/Token.sol\":12303:12317  staked[_owner] */\n      0xffffffffffffffffffffffffffffffffffffffff\n      and\n      0xffffffffffffffffffffffffffffffffffffffff\n      and\n      dup2\n      mstore\n      0x20\n      add\n      swap1\n      dup2\n      mstore\n      0x20\n      add\n      0x00\n      keccak256\n      sload\n        /* \"smart_contracts/contracts/Token.sol\":12296:12317  return staked[_owner] */\n      swap1\n      pop\n        /* \"smart_contracts/contracts/Token.sol\":12232:12319  function stakeOf(address _owner) public view returns (uint256) {return staked[_owner];} */\n      swap2\n      swap1\n      pop\n      jump\t// out\n        /* \"smart_contracts/contracts/Token.sol\":11413:11568  function setStateIsTransferable(bool _is) public onlyAdmin onlyDev returns (bool) {... */\n    tag_66:\n        /* \"smart_contracts/contracts/Token.sol\":11489:11493  bool */\n      0x00\n        /* \"smart_contracts/contracts/Authenticator.sol\":1003:1007  true */\n      0x01\n        /* \"smart_contracts/contracts/Authenticator.sol\":986:1007  isAdmin[sndr] == true */\n      iszero\n      iszero\n        /* \"smart_contracts/contracts/Authenticator.sol\":986:993  isAdmin */\n      0x01\n        /* \"smart_contracts/contracts/Authenticator.sol\":986:999  isAdmin[sndr] */\n      0x00\n        /* \"smart_contracts/contracts/Authenticator.sol\":994:998  sndr */\n      dup1\n      0x00\n      swap1\n      sload\n      swap1\n      0x0100\n      exp\n      swap1\n      div\n      0xffffffffffffffffffffffffffffffffffffffff\n      and\n        /* \"smart_contracts/contracts/Authenticator.sol\":986:999  isAdmin[sndr] */\n      0xffffffffffffffffffffffffffffffffffffffff\n      and\n      0xffffffffffffffffffffffffffffffffffffffff\n      and\n      dup2\n      mstore\n      0x20\n      add\n      swap1\n      dup2\n      mstore\n      0x20\n      add\n      0x00\n      keccak256\n      0x00\n      swap1\n      sload\n      swap1\n      0x0100\n      exp\n      swap1\n      div\n      0xff\n      and\n        /* \"smart_contracts/contracts/Authenticator.sol\":986:1007  isAdmin[sndr] == true */\n      iszero\n      iszero\n      eq\n        /* \"smart_contracts/contracts/Authenticator.sol\":978:1052  require(isAdmin[sndr] == true, \"Authenticator: admin permission required\") */\n      tag_156\n      jumpi\n      mload(0x40)\n      0x08c379a000000000000000000000000000000000000000000000000000000000\n      dup2\n      mstore\n      0x04\n      add\n      tag_157\n      swap1\n      tag_158\n      jump\t// in\n    tag_157:\n      mload(0x40)\n      dup1\n      swap2\n      sub\n      swap1\n      revert\n    tag_156:\n        /* \"smart_contracts/contracts/Authenticator.sol\":1105:1109  true */\n      0x01\n        /* \"smart_contracts/contracts/Authenticator.sol\":1090:1109  isDev[sndr] == true */\n      iszero\n      iszero\n        /* \"smart_contracts/contracts/Authenticator.sol\":1090:1095  isDev */\n      0x02\n        /* \"smart_contracts/contracts/Authenticator.sol\":1090:1101  isDev[sndr] */\n      0x00\n        /* \"smart_contracts/contracts/Authenticator.sol\":1096:1100  sndr */\n      dup1\n      0x00\n      swap1\n      sload\n      swap1\n      0x0100\n      exp\n      swap1\n      div\n      0xffffffffffffffffffffffffffffffffffffffff\n      and\n        /* \"smart_contracts/contracts/Authenticator.sol\":1090:1101  isDev[sndr] */\n      0xffffffffffffffffffffffffffffffffffffffff\n      and\n      0xffffffffffffffffffffffffffffffffffffffff\n      and\n      dup2\n      mstore\n      0x20\n      add\n      swap1\n      dup2\n      mstore\n      0x20\n      add\n      0x00\n      keccak256\n      0x00\n      swap1\n      sload\n      swap1\n      0x0100\n      exp\n      swap1\n      div\n      0xff\n      and\n        /* \"smart_contracts/contracts/Authenticator.sol\":1090:1109  isDev[sndr] == true */\n      iszero\n      iszero\n      eq\n        /* \"smart_contracts/contracts/Authenticator.sol\":1082:1152  require(isDev[sndr] == true, \"Authenticator: dev permission required\") */\n      tag_160\n      jumpi\n      mload(0x40)\n      0x08c379a000000000000000000000000000000000000000000000000000000000\n      dup2\n      mstore\n      0x04\n      add\n      tag_161\n      swap1\n      tag_162\n      jump\t// in\n    tag_161:\n      mload(0x40)\n      dup1\n      swap2\n      sub\n      swap1\n      revert\n    tag_160:\n        /* \"smart_contracts/contracts/Token.sol\":11537:11540  _is */\n      dup2\n        /* \"smart_contracts/contracts/Token.sol\":11505:11513  settings */\n      0x09\n        /* \"smart_contracts/contracts/Token.sol\":11505:11519  settings.state */\n      0x06\n      add\n        /* \"smart_contracts/contracts/Token.sol\":11505:11534  settings.state.isTransferable */\n      0x00\n      add\n      0x01\n        /* \"smart_contracts/contracts/Token.sol\":11505:11540  settings.state.isTransferable = _is */\n      0x0100\n      exp\n      dup2\n      sload\n      dup2\n      0xff\n      mul\n      not\n      and\n      swap1\n      dup4\n      iszero\n      iszero\n      mul\n      or\n      swap1\n      sstore\n      pop\n        /* \"smart_contracts/contracts/Token.sol\":11557:11561  true */\n      0x01\n        /* \"smart_contracts/contracts/Token.sol\":11550:11561  return true */\n      swap1\n      pop\n        /* \"smart_contracts/contracts/Token.sol\":11413:11568  function setStateIsTransferable(bool _is) public onlyAdmin onlyDev returns (bool) {... */\n      swap2\n      swap1\n      pop\n      jump\t// out\n        /* \"smart_contracts/contracts/Token.sol\":12137:12227  function balanceOf(address _owner) public view returns (uint256) {return balance[_owner];} */\n    tag_70:\n        /* \"smart_contracts/contracts/Token.sol\":12193:12200  uint256 */\n      0x00\n        /* \"smart_contracts/contracts/Token.sol\":12210:12217  balance */\n      0x1d\n        /* \"smart_contracts/contracts/Token.sol\":12210:12225  balance[_owner] */\n      0x00\n        /* \"smart_contracts/contracts/Token.sol\":12218:12224  _owner */\n      dup4\n        /* \"smart_contracts/contracts/Token.sol\":12210:12225  balance[_owner] */\n      0xffffffffffffffffffffffffffffffffffffffff\n      and\n      0xffffffffffffffffffffffffffffffffffffffff\n      and\n      dup2\n      mstore\n      0x20\n      add\n      swap1\n      dup2\n      mstore\n      0x20\n      add\n      0x00\n      keccak256\n      sload\n        /* \"smart_contracts/contracts/Token.sol\":12203:12225  return balance[_owner] */\n      swap1\n      pop\n        /* \"smart_contracts/contracts/Token.sol\":12137:12227  function balanceOf(address _owner) public view returns (uint256) {return balance[_owner];} */\n      swap2\n      swap1\n      pop\n      jump\t// out\n        /* \"smart_contracts/contracts/Token.sol\":12324:12410  function votesOf(address _owner) public view returns (uint256) {return votes[_owner];} */\n    tag_74:\n        /* \"smart_contracts/contracts/Token.sol\":12378:12385  uint256 */\n      0x00\n        /* \"smart_contracts/contracts/Token.sol\":12395:12400  votes */\n      0x1f\n        /* \"smart_contracts/contracts/Token.sol\":12395:12408  votes[_owner] */\n      0x00\n        /* \"smart_contracts/contracts/Token.sol\":12401:12407  _owner */\n      dup4\n        /* \"smart_contracts/contracts/Token.sol\":12395:12408  votes[_owner] */\n      0xffffffffffffffffffffffffffffffffffffffff\n      and\n      0xffffffffffffffffffffffffffffffffffffffff\n      and\n      dup2\n      mstore\n      0x20\n      add\n      swap1\n      dup2\n      mstore\n      0x20\n      add\n      0x00\n      keccak256\n      sload\n        /* \"smart_contracts/contracts/Token.sol\":12388:12408  return votes[_owner] */\n      swap1\n      pop\n        /* \"smart_contracts/contracts/Token.sol\":12324:12410  function votesOf(address _owner) public view returns (uint256) {return votes[_owner];} */\n      swap2\n      swap1\n      pop\n      jump\t// out\n        /* \"smart_contracts/contracts/Token.sol\":11816:11891  function symbol() public view returns (string memory) {return meta.symbol;} */\n    tag_77:\n        /* \"smart_contracts/contracts/Token.sol\":11855:11868  string memory */\n      0x60\n        /* \"smart_contracts/contracts/Token.sol\":11878:11882  meta */\n      0x13\n        /* \"smart_contracts/contracts/Token.sol\":11878:11889  meta.symbol */\n      0x01\n      add\n        /* \"smart_contracts/contracts/Token.sol\":11871:11889  return meta.symbol */\n      dup1\n      sload\n      tag_167\n      swap1\n      tag_115\n      jump\t// in\n    tag_167:\n      dup1\n      0x1f\n      add\n      0x20\n      dup1\n      swap2\n      div\n      mul\n      0x20\n      add\n      mload(0x40)\n      swap1\n      dup2\n      add\n      0x40\n      mstore\n      dup1\n      swap3\n      swap2\n      swap1\n      dup2\n      dup2\n      mstore\n      0x20\n      add\n      dup3\n      dup1\n      sload\n      tag_168\n      swap1\n      tag_115\n      jump\t// in\n    tag_168:\n      dup1\n      iszero\n      tag_169\n      jumpi\n      dup1\n      0x1f\n      lt\n      tag_170\n      jumpi\n      0x0100\n      dup1\n      dup4\n      sload\n      div\n      mul\n      dup4\n      mstore\n      swap2\n      0x20\n      add\n      swap2\n      jump(tag_169)\n    tag_170:\n      dup3\n      add\n      swap2\n      swap1\n      0x00\n      mstore\n      keccak256(0x00, 0x20)\n      swap1\n    tag_171:\n      dup2\n      sload\n      dup2\n      mstore\n      swap1\n      0x01\n      add\n      swap1\n      0x20\n      add\n      dup1\n      dup4\n      gt\n      tag_171\n      jumpi\n      dup3\n      swap1\n      sub\n      0x1f\n      and\n      dup3\n      add\n      swap2\n    tag_169:\n      pop\n      pop\n      pop\n      pop\n      pop\n      swap1\n      pop\n        /* \"smart_contracts/contracts/Token.sol\":11816:11891  function symbol() public view returns (string memory) {return meta.symbol;} */\n      swap1\n      jump\t// out\n        /* \"smart_contracts/contracts/Token.sol\":11220:11407  function setStateIsPaused(bool _is) public onlyAdmin onlyDev onlyOperator returns (bool) {... */\n    tag_81:\n        /* \"smart_contracts/contracts/Token.sol\":11303:11307  bool */\n      0x00\n        /* \"smart_contracts/contracts/Authenticator.sol\":1003:1007  true */\n      0x01\n        /* \"smart_contracts/contracts/Authenticator.sol\":986:1007  isAdmin[sndr] == true */\n      iszero\n      iszero\n        /* \"smart_contracts/contracts/Authenticator.sol\":986:993  isAdmin */\n      0x01\n        /* \"smart_contracts/contracts/Authenticator.sol\":986:999  isAdmin[sndr] */\n      0x00\n        /* \"smart_contracts/contracts/Authenticator.sol\":994:998  sndr */\n      dup1\n      0x00\n      swap1\n      sload\n      swap1\n      0x0100\n      exp\n      swap1\n      div\n      0xffffffffffffffffffffffffffffffffffffffff\n      and\n        /* \"smart_contracts/contracts/Authenticator.sol\":986:999  isAdmin[sndr] */\n      0xffffffffffffffffffffffffffffffffffffffff\n      and\n      0xffffffffffffffffffffffffffffffffffffffff\n      and\n      dup2\n      mstore\n      0x20\n      add\n      swap1\n      dup2\n      mstore\n      0x20\n      add\n      0x00\n      keccak256\n      0x00\n      swap1\n      sload\n      swap1\n      0x0100\n      exp\n      swap1\n      div\n      0xff\n      and\n        /* \"smart_contracts/contracts/Authenticator.sol\":986:1007  isAdmin[sndr] == true */\n      iszero\n      iszero\n      eq\n        /* \"smart_contracts/contracts/Authenticator.sol\":978:1052  require(isAdmin[sndr] == true, \"Authenticator: admin permission required\") */\n      tag_173\n      jumpi\n      mload(0x40)\n      0x08c379a000000000000000000000000000000000000000000000000000000000\n      dup2\n      mstore\n      0x04\n      add\n      tag_174\n      swap1\n      tag_158\n      jump\t// in\n    tag_174:\n      mload(0x40)\n      dup1\n      swap2\n      sub\n      swap1\n      revert\n    tag_173:\n        /* \"smart_contracts/contracts/Authenticator.sol\":1105:1109  true */\n      0x01\n        /* \"smart_contracts/contracts/Authenticator.sol\":1090:1109  isDev[sndr] == true */\n      iszero\n      iszero\n        /* \"smart_contracts/contracts/Authenticator.sol\":1090:1095  isDev */\n      0x02\n        /* \"smart_contracts/contracts/Authenticator.sol\":1090:1101  isDev[sndr] */\n      0x00\n        /* \"smart_contracts/contracts/Authenticator.sol\":1096:1100  sndr */\n      dup1\n      0x00\n      swap1\n      sload\n      swap1\n      0x0100\n      exp\n      swap1\n      div\n      0xffffffffffffffffffffffffffffffffffffffff\n      and\n        /* \"smart_contracts/contracts/Authenticator.sol\":1090:1101  isDev[sndr] */\n      0xffffffffffffffffffffffffffffffffffffffff\n      and\n      0xffffffffffffffffffffffffffffffffffffffff\n      and\n      dup2\n      mstore\n      0x20\n      add\n      swap1\n      dup2\n      mstore\n      0x20\n      add\n      0x00\n      keccak256\n      0x00\n      swap1\n      sload\n      swap1\n      0x0100\n      exp\n      swap1\n      div\n      0xff\n      and\n        /* \"smart_contracts/contracts/Authenticator.sol\":1090:1109  isDev[sndr] == true */\n      iszero\n      iszero\n      eq\n        /* \"smart_contracts/contracts/Authenticator.sol\":1082:1152  require(isDev[sndr] == true, \"Authenticator: dev permission required\") */\n      tag_176\n      jumpi\n      mload(0x40)\n      0x08c379a000000000000000000000000000000000000000000000000000000000\n      dup2\n      mstore\n      0x04\n      add\n      tag_177\n      swap1\n      tag_162\n      jump\t// in\n    tag_177:\n      mload(0x40)\n      dup1\n      swap2\n      sub\n      swap1\n      revert\n    tag_176:\n        /* \"smart_contracts/contracts/Authenticator.sol\":1333:1337  true */\n      0x01\n        /* \"smart_contracts/contracts/Authenticator.sol\":1313:1337  isOperator[sndr] == true */\n      iszero\n      iszero\n        /* \"smart_contracts/contracts/Authenticator.sol\":1313:1323  isOperator */\n      0x04\n        /* \"smart_contracts/contracts/Authenticator.sol\":1313:1329  isOperator[sndr] */\n      0x00\n        /* \"smart_contracts/contracts/Authenticator.sol\":1324:1328  sndr */\n      dup1\n      0x00\n      swap1\n      sload\n      swap1\n      0x0100\n      exp\n      swap1\n      div\n      0xffffffffffffffffffffffffffffffffffffffff\n      and\n        /* \"smart_contracts/contracts/Authenticator.sol\":1313:1329  isOperator[sndr] */\n      0xffffffffffffffffffffffffffffffffffffffff\n      and\n      0xffffffffffffffffffffffffffffffffffffffff\n      and\n      dup2\n      mstore\n      0x20\n      add\n      swap1\n      dup2\n      mstore\n      0x20\n      add\n      0x00\n      keccak256\n      0x00\n      swap1\n      sload\n      swap1\n      0x0100\n      exp\n      swap1\n      div\n      0xff\n      and\n        /* \"smart_contracts/contracts/Authenticator.sol\":1313:1337  isOperator[sndr] == true */\n      iszero\n      iszero\n      eq\n        /* \"smart_contracts/contracts/Authenticator.sol\":1305:1385  require(isOperator[sndr] == true, \"Authenticator: operator permission required\") */\n      tag_179\n      jumpi\n      mload(0x40)\n      0x08c379a000000000000000000000000000000000000000000000000000000000\n      dup2\n      mstore\n      0x04\n      add\n      tag_180\n      swap1\n      tag_181\n      jump\t// in\n    tag_180:\n      mload(0x40)\n      dup1\n      swap2\n      sub\n      swap1\n      revert\n    tag_179:\n        /* \"smart_contracts/contracts/Token.sol\":11376:11379  _is */\n      dup2\n        /* \"smart_contracts/contracts/Token.sol\":11350:11358  settings */\n      0x09\n        /* \"smart_contracts/contracts/Token.sol\":11350:11364  settings.state */\n      0x06\n      add\n        /* \"smart_contracts/contracts/Token.sol\":11350:11373  settings.state.isPaused */\n      0x00\n      add\n      0x00\n        /* \"smart_contracts/contracts/Token.sol\":11350:11379  settings.state.isPaused = _is */\n      0x0100\n      exp\n      dup2\n      sload\n      dup2\n      0xff\n      mul\n      not\n      and\n      swap1\n      dup4\n      iszero\n      iszero\n      mul\n      or\n      swap1\n      sstore\n      pop\n        /* \"smart_contracts/contracts/Token.sol\":11396:11400  true */\n      0x01\n        /* \"smart_contracts/contracts/Token.sol\":11389:11400  return true */\n      swap1\n      pop\n        /* \"smart_contracts/contracts/Token.sol\":11220:11407  function setStateIsPaused(bool _is) public onlyAdmin onlyDev onlyOperator returns (bool) {... */\n      swap2\n      swap1\n      pop\n      jump\t// out\n        /* \"smart_contracts/contracts/Token.sol\":8849:9263  function decreaseAllowance(address _spender, uint256 _value) public returns (bool) {... */\n    tag_85:\n        /* \"smart_contracts/contracts/Token.sol\":8926:8930  bool */\n      0x00\n        /* \"smart_contracts/contracts/Token.sol\":8980:8986  _value */\n      dup2\n        /* \"smart_contracts/contracts/Token.sol\":8951:8976  allowance(sndr, _spender) */\n      tag_184\n        /* \"smart_contracts/contracts/Token.sol\":8961:8965  sndr */\n      0x00\n      dup1\n      sload\n      swap1\n      0x0100\n      exp\n      swap1\n      div\n      0xffffffffffffffffffffffffffffffffffffffff\n      and\n        /* \"smart_contracts/contracts/Token.sol\":8967:8975  _spender */\n      dup6\n        /* \"smart_contracts/contracts/Token.sol\":8951:8960  allowance */\n      tag_105\n        /* \"smart_contracts/contracts/Token.sol\":8951:8976  allowance(sndr, _spender) */\n      jump\t// in\n    tag_184:\n        /* \"smart_contracts/contracts/Token.sol\":8951:8986  allowance(sndr, _spender) >= _value */\n      lt\n      iszero\n        /* \"smart_contracts/contracts/Token.sol\":8950:9011  (allowance(sndr, _spender) >= _value) && (sndr != address(0)) */\n      dup1\n      iszero\n      tag_185\n      jumpi\n      pop\n        /* \"smart_contracts/contracts/Token.sol\":9008:9009  0 */\n      0x00\n        /* \"smart_contracts/contracts/Token.sol\":8992:9010  sndr != address(0) */\n      0xffffffffffffffffffffffffffffffffffffffff\n      and\n        /* \"smart_contracts/contracts/Token.sol\":8992:8996  sndr */\n      0x00\n      dup1\n      sload\n      swap1\n      0x0100\n      exp\n      swap1\n      div\n      0xffffffffffffffffffffffffffffffffffffffff\n      and\n        /* \"smart_contracts/contracts/Token.sol\":8992:9010  sndr != address(0) */\n      0xffffffffffffffffffffffffffffffffffffffff\n      and\n      eq\n      iszero\n        /* \"smart_contracts/contracts/Token.sol\":8950:9011  (allowance(sndr, _spender) >= _value) && (sndr != address(0)) */\n    tag_185:\n        /* \"smart_contracts/contracts/Token.sol\":8950:9039  (allowance(sndr, _spender) >= _value) && (sndr != address(0)) && (_spender != address(0)) */\n      dup1\n      iszero\n      tag_186\n      jumpi\n      pop\n        /* \"smart_contracts/contracts/Token.sol\":9036:9037  0 */\n      0x00\n        /* \"smart_contracts/contracts/Token.sol\":9016:9038  _spender != address(0) */\n      0xffffffffffffffffffffffffffffffffffffffff\n      and\n        /* \"smart_contracts/contracts/Token.sol\":9016:9024  _spender */\n      dup4\n        /* \"smart_contracts/contracts/Token.sol\":9016:9038  _spender != address(0) */\n      0xffffffffffffffffffffffffffffffffffffffff\n      and\n      eq\n      iszero\n        /* \"smart_contracts/contracts/Token.sol\":8950:9039  (allowance(sndr, _spender) >= _value) && (sndr != address(0)) && (_spender != address(0)) */\n    tag_186:\n        /* \"smart_contracts/contracts/Token.sol\":8942:9090  require((allowance(sndr, _spender) >= _value) && (sndr != address(0)) && (_spender != address(0)), \"zero address || decreased allowance below zero\") */\n      tag_187\n      jumpi\n      mload(0x40)\n      0x08c379a000000000000000000000000000000000000000000000000000000000\n      dup2\n      mstore\n      0x04\n      add\n      tag_188\n      swap1\n      tag_189\n      jump\t// in\n    tag_188:\n      mload(0x40)\n      dup1\n      swap2\n      sub\n      swap1\n      revert\n    tag_187:\n        /* \"smart_contracts/contracts/Token.sol\":9154:9160  _value */\n      dup2\n        /* \"smart_contracts/contracts/Token.sol\":9126:9151  allowance(sndr, _spender) */\n      tag_190\n        /* \"smart_contracts/contracts/Token.sol\":9136:9140  sndr */\n      0x00\n      dup1\n      sload\n      swap1\n      0x0100\n      exp\n      swap1\n      div\n      0xffffffffffffffffffffffffffffffffffffffff\n      and\n        /* \"smart_contracts/contracts/Token.sol\":9142:9150  _spender */\n      dup6\n        /* \"smart_contracts/contracts/Token.sol\":9126:9135  allowance */\n      tag_105\n        /* \"smart_contracts/contracts/Token.sol\":9126:9151  allowance(sndr, _spender) */\n      jump\t// in\n    tag_190:\n        /* \"smart_contracts/contracts/Token.sol\":9126:9160  allowance(sndr, _spender) - _value */\n      tag_191\n      swap2\n      swap1\n      tag_139\n      jump\t// in\n    tag_191:\n        /* \"smart_contracts/contracts/Token.sol\":9100:9107  allowed */\n      0x20\n        /* \"smart_contracts/contracts/Token.sol\":9100:9113  allowed[sndr] */\n      0x00\n        /* \"smart_contracts/contracts/Token.sol\":9108:9112  sndr */\n      dup1\n      0x00\n      swap1\n      sload\n      swap1\n      0x0100\n      exp\n      swap1\n      div\n      0xffffffffffffffffffffffffffffffffffffffff\n      and\n        /* \"smart_contracts/contracts/Token.sol\":9100:9113  allowed[sndr] */\n      0xffffffffffffffffffffffffffffffffffffffff\n      and\n      0xffffffffffffffffffffffffffffffffffffffff\n      and\n      dup2\n      mstore\n      0x20\n      add\n      swap1\n      dup2\n      mstore\n      0x20\n      add\n      0x00\n      keccak256\n        /* \"smart_contracts/contracts/Token.sol\":9100:9123  allowed[sndr][_spender] */\n      0x00\n        /* \"smart_contracts/contracts/Token.sol\":9114:9122  _spender */\n      dup6\n        /* \"smart_contracts/contracts/Token.sol\":9100:9123  allowed[sndr][_spender] */\n      0xffffffffffffffffffffffffffffffffffffffff\n      and\n      0xffffffffffffffffffffffffffffffffffffffff\n      and\n      dup2\n      mstore\n      0x20\n      add\n      swap1\n      dup2\n      mstore\n      0x20\n      add\n      0x00\n      keccak256\n        /* \"smart_contracts/contracts/Token.sol\":9100:9160  allowed[sndr][_spender] = allowance(sndr, _spender) - _value */\n      dup2\n      swap1\n      sstore\n      pop\n        /* \"smart_contracts/contracts/Token.sol\":9190:9198  _spender */\n      dup3\n        /* \"smart_contracts/contracts/Token.sol\":9175:9235  Approval(sndr, _spender, allowance(sndr, _spender) - _value) */\n      0xffffffffffffffffffffffffffffffffffffffff\n      and\n        /* \"smart_contracts/contracts/Token.sol\":9184:9188  sndr */\n      0x00\n      dup1\n      sload\n      swap1\n      0x0100\n      exp\n      swap1\n      div\n      0xffffffffffffffffffffffffffffffffffffffff\n      and\n        /* \"smart_contracts/contracts/Token.sol\":9175:9235  Approval(sndr, _spender, allowance(sndr, _spender) - _value) */\n      0xffffffffffffffffffffffffffffffffffffffff\n      and\n      0x8c5be1e5ebec7d5bd14f71427d1e84f3dd0314c0f7b2291e5b200ac8c7c3b925\n        /* \"smart_contracts/contracts/Token.sol\":9228:9234  _value */\n      dup5\n        /* \"smart_contracts/contracts/Token.sol\":9200:9225  allowance(sndr, _spender) */\n      tag_192\n        /* \"smart_contracts/contracts/Token.sol\":9210:9214  sndr */\n      0x00\n      dup1\n      sload\n      swap1\n      0x0100\n      exp\n      swap1\n      div\n      0xffffffffffffffffffffffffffffffffffffffff\n      and\n        /* \"smart_contracts/contracts/Token.sol\":9216:9224  _spender */\n      dup9\n        /* \"smart_contracts/contracts/Token.sol\":9200:9209  allowance */\n      tag_105\n        /* \"smart_contracts/contracts/Token.sol\":9200:9225  allowance(sndr, _spender) */\n      jump\t// in\n    tag_192:\n        /* \"smart_contracts/contracts/Token.sol\":9200:9234  allowance(sndr, _spender) - _value */\n      tag_193\n      swap2\n      swap1\n      tag_139\n      jump\t// in\n    tag_193:\n        /* \"smart_contracts/contracts/Token.sol\":9175:9235  Approval(sndr, _spender, allowance(sndr, _spender) - _value) */\n      mload(0x40)\n      tag_194\n      swap2\n      swap1\n      tag_39\n      jump\t// in\n    tag_194:\n      mload(0x40)\n      dup1\n      swap2\n      sub\n      swap1\n      log3\n        /* \"smart_contracts/contracts/Token.sol\":9252:9256  true */\n      0x01\n        /* \"smart_contracts/contracts/Token.sol\":9245:9256  return true */\n      swap1\n      pop\n        /* \"smart_contracts/contracts/Token.sol\":8849:9263  function decreaseAllowance(address _spender, uint256 _value) public returns (bool) {... */\n      swap3\n      swap2\n      pop\n      pop\n      jump\t// out\n        /* \"smart_contracts/contracts/Token.sol\":7602:7965  function stake(uint256 _value) public returns (bool) {... */\n    tag_89:\n        /* \"smart_contracts/contracts/Token.sol\":7649:7653  bool */\n      0x00\n        /* \"smart_contracts/contracts/Token.sol\":7666:7679  bool _success */\n      dup1\n        /* \"smart_contracts/contracts/Token.sol\":7681:7698  uint256 _newValue */\n      0x00\n        /* \"smart_contracts/contracts/Token.sol\":7702:7787  transfer_(sndr, meta.vault, _value, settings.bpTransferBurn, settings.bpTransferBank) */\n      tag_196\n        /* \"smart_contracts/contracts/Token.sol\":7712:7716  sndr */\n      0x00\n      dup1\n      sload\n      swap1\n      0x0100\n      exp\n      swap1\n      div\n      0xffffffffffffffffffffffffffffffffffffffff\n      and\n        /* \"smart_contracts/contracts/Token.sol\":7718:7722  meta */\n      0x13\n        /* \"smart_contracts/contracts/Token.sol\":7718:7728  meta.vault */\n      0x08\n      add\n      0x00\n      swap1\n      sload\n      swap1\n      0x0100\n      exp\n      swap1\n      div\n      0xffffffffffffffffffffffffffffffffffffffff\n      and\n        /* \"smart_contracts/contracts/Token.sol\":7730:7736  _value */\n      dup7\n        /* \"smart_contracts/contracts/Token.sol\":7738:7746  settings */\n      0x09\n        /* \"smart_contracts/contracts/Token.sol\":7738:7761  settings.bpTransferBurn */\n      0x02\n      add\n      sload\n        /* \"smart_contracts/contracts/Token.sol\":7763:7771  settings */\n      0x09\n        /* \"smart_contracts/contracts/Token.sol\":7763:7786  settings.bpTransferBank */\n      0x03\n      add\n      sload\n        /* \"smart_contracts/contracts/Token.sol\":7702:7711  transfer_ */\n      tag_134\n        /* \"smart_contracts/contracts/Token.sol\":7702:7787  transfer_(sndr, meta.vault, _value, settings.bpTransferBurn, settings.bpTransferBank) */\n      jump\t// in\n    tag_196:\n        /* \"smart_contracts/contracts/Token.sol\":7665:7787  (bool _success, uint256 _newValue) = transfer_(sndr, meta.vault, _value, settings.bpTransferBurn, settings.bpTransferBank) */\n      swap2\n      pop\n      swap2\n      pop\n        /* \"smart_contracts/contracts/Token.sol\":7813:7822  _newValue */\n      dup1\n        /* \"smart_contracts/contracts/Token.sol\":7797:7803  staked */\n      0x1e\n        /* \"smart_contracts/contracts/Token.sol\":7797:7809  staked[sndr] */\n      0x00\n        /* \"smart_contracts/contracts/Token.sol\":7804:7808  sndr */\n      dup1\n      0x00\n      swap1\n      sload\n      swap1\n      0x0100\n      exp\n      swap1\n      div\n      0xffffffffffffffffffffffffffffffffffffffff\n      and\n        /* \"smart_contracts/contracts/Token.sol\":7797:7809  staked[sndr] */\n      0xffffffffffffffffffffffffffffffffffffffff\n      and\n      0xffffffffffffffffffffffffffffffffffffffff\n      and\n      dup2\n      mstore\n      0x20\n      add\n      swap1\n      dup2\n      mstore\n      0x20\n      add\n      0x00\n      keccak256\n      0x00\n        /* \"smart_contracts/contracts/Token.sol\":7797:7822  staked[sndr] += _newValue */\n      dup3\n      dup3\n      sload\n      tag_197\n      swap2\n      swap1\n      tag_150\n      jump\t// in\n    tag_197:\n      swap3\n      pop\n      pop\n      dup2\n      swap1\n      sstore\n      pop\n        /* \"smart_contracts/contracts/Token.sol\":7847:7856  _newValue */\n      dup1\n        /* \"smart_contracts/contracts/Token.sol\":7832:7837  votes */\n      0x1f\n        /* \"smart_contracts/contracts/Token.sol\":7832:7843  votes[sndr] */\n      0x00\n        /* \"smart_contracts/contracts/Token.sol\":7838:7842  sndr */\n      dup1\n      0x00\n      swap1\n      sload\n      swap1\n      0x0100\n      exp\n      swap1\n      div\n      0xffffffffffffffffffffffffffffffffffffffff\n      and\n        /* \"smart_contracts/contracts/Token.sol\":7832:7843  votes[sndr] */\n      0xffffffffffffffffffffffffffffffffffffffff\n      and\n      0xffffffffffffffffffffffffffffffffffffffff\n      and\n      dup2\n      mstore\n      0x20\n      add\n      swap1\n      dup2\n      mstore\n      0x20\n      add\n      0x00\n      keccak256\n      0x00\n        /* \"smart_contracts/contracts/Token.sol\":7832:7856  votes[sndr] += _newValue */\n      dup3\n      dup3\n      sload\n      tag_198\n      swap2\n      swap1\n      tag_150\n      jump\t// in\n    tag_198:\n      swap3\n      pop\n      pop\n      dup2\n      swap1\n      sstore\n      pop\n        /* \"smart_contracts/contracts/Token.sol\":7886:7895  _newValue */\n      dup1\n        /* \"smart_contracts/contracts/Token.sol\":7866:7870  meta */\n      0x13\n        /* \"smart_contracts/contracts/Token.sol\":7866:7882  meta.totalStaked */\n      0x04\n      add\n      0x00\n        /* \"smart_contracts/contracts/Token.sol\":7866:7895  meta.totalStaked += _newValue */\n      dup3\n      dup3\n      sload\n      tag_199\n      swap2\n      swap1\n      tag_150\n      jump\t// in\n    tag_199:\n      swap3\n      pop\n      pop\n      dup2\n      swap1\n      sstore\n      pop\n        /* \"smart_contracts/contracts/Token.sol\":7924:7933  _newValue */\n      dup1\n        /* \"smart_contracts/contracts/Token.sol\":7905:7909  meta */\n      0x13\n        /* \"smart_contracts/contracts/Token.sol\":7905:7920  meta.totalVotes */\n      0x05\n      add\n      0x00\n        /* \"smart_contracts/contracts/Token.sol\":7905:7933  meta.totalVotes += _newValue */\n      dup3\n      dup3\n      sload\n      tag_200\n      swap2\n      swap1\n      tag_150\n      jump\t// in\n    tag_200:\n      swap3\n      pop\n      pop\n      dup2\n      swap1\n      sstore\n      pop\n        /* \"smart_contracts/contracts/Token.sol\":7950:7958  _success */\n      dup2\n        /* \"smart_contracts/contracts/Token.sol\":7943:7958  return _success */\n      swap3\n      pop\n      pop\n      pop\n        /* \"smart_contracts/contracts/Token.sol\":7602:7965  function stake(uint256 _value) public returns (bool) {... */\n      swap2\n      swap1\n      pop\n      jump\t// out\n        /* \"smart_contracts/contracts/Token.sol\":6901:7127  function transfer(address _to, uint256 _value) public returns (bool) {... */\n    tag_93:\n        /* \"smart_contracts/contracts/Token.sol\":6964:6968  bool */\n      0x00\n        /* \"smart_contracts/contracts/Token.sol\":6981:6994  bool _success */\n      dup1\n        /* \"smart_contracts/contracts/Token.sol\":6996:7013  uint256 _newValue */\n      0x00\n        /* \"smart_contracts/contracts/Token.sol\":7017:7095  transfer_(sndr, _to, _value, settings.bpTransferBurn, settings.bpTransferBank) */\n      tag_202\n        /* \"smart_contracts/contracts/Token.sol\":7027:7031  sndr */\n      0x00\n      dup1\n      sload\n      swap1\n      0x0100\n      exp\n      swap1\n      div\n      0xffffffffffffffffffffffffffffffffffffffff\n      and\n        /* \"smart_contracts/contracts/Token.sol\":7033:7036  _to */\n      dup7\n        /* \"smart_contracts/contracts/Token.sol\":7038:7044  _value */\n      dup7\n        /* \"smart_contracts/contracts/Token.sol\":7046:7054  settings */\n      0x09\n        /* \"smart_contracts/contracts/Token.sol\":7046:7069  settings.bpTransferBurn */\n      0x02\n      add\n      sload\n        /* \"smart_contracts/contracts/Token.sol\":7071:7079  settings */\n      0x09\n        /* \"smart_contracts/contracts/Token.sol\":7071:7094  settings.bpTransferBank */\n      0x03\n      add\n      sload\n        /* \"smart_contracts/contracts/Token.sol\":7017:7026  transfer_ */\n      tag_134\n        /* \"smart_contracts/contracts/Token.sol\":7017:7095  transfer_(sndr, _to, _value, settings.bpTransferBurn, settings.bpTransferBank) */\n      jump\t// in\n    tag_202:\n        /* \"smart_contracts/contracts/Token.sol\":6980:7095  (bool _success, uint256 _newValue) = transfer_(sndr, _to, _value, settings.bpTransferBurn, settings.bpTransferBank) */\n      swap2\n      pop\n      swap2\n      pop\n        /* \"smart_contracts/contracts/Token.sol\":7112:7120  _success */\n      dup2\n        /* \"smart_contracts/contracts/Token.sol\":7105:7120  return _success */\n      swap3\n      pop\n      pop\n      pop\n        /* \"smart_contracts/contracts/Token.sol\":6901:7127  function transfer(address _to, uint256 _value) public returns (bool) {... */\n      swap3\n      swap2\n      pop\n      pop\n      jump\t// out\n        /* \"smart_contracts/contracts/Token.sol\":12056:12131  function maxSupply() public view returns (uint256) {return meta.maxSupply;} */\n    tag_96:\n        /* \"smart_contracts/contracts/Token.sol\":12098:12105  uint256 */\n      0x00\n        /* \"smart_contracts/contracts/Token.sol\":12115:12119  meta */\n      0x13\n        /* \"smart_contracts/contracts/Token.sol\":12115:12129  meta.maxSupply */\n      0x06\n      add\n      sload\n        /* \"smart_contracts/contracts/Token.sol\":12108:12129  return meta.maxSupply */\n      swap1\n      pop\n        /* \"smart_contracts/contracts/Token.sol\":12056:12131  function maxSupply() public view returns (uint256) {return meta.maxSupply;} */\n      swap1\n      jump\t// out\n        /* \"smart_contracts/contracts/Token.sol\":11574:11734  function setStateIsMintable(bool _is) public onlyAdmin onlyDev onlyOperator returns (bool) {... */\n    tag_100:\n        /* \"smart_contracts/contracts/Token.sol\":11659:11663  bool */\n      0x00\n        /* \"smart_contracts/contracts/Authenticator.sol\":1003:1007  true */\n      0x01\n        /* \"smart_contracts/contracts/Authenticator.sol\":986:1007  isAdmin[sndr] == true */\n      iszero\n      iszero\n        /* \"smart_contracts/contracts/Authenticator.sol\":986:993  isAdmin */\n      0x01\n        /* \"smart_contracts/contracts/Authenticator.sol\":986:999  isAdmin[sndr] */\n      0x00\n        /* \"smart_contracts/contracts/Authenticator.sol\":994:998  sndr */\n      dup1\n      0x00\n      swap1\n      sload\n      swap1\n      0x0100\n      exp\n      swap1\n      div\n      0xffffffffffffffffffffffffffffffffffffffff\n      and\n        /* \"smart_contracts/contracts/Authenticator.sol\":986:999  isAdmin[sndr] */\n      0xffffffffffffffffffffffffffffffffffffffff\n      and\n      0xffffffffffffffffffffffffffffffffffffffff\n      and\n      dup2\n      mstore\n      0x20\n      add\n      swap1\n      dup2\n      mstore\n      0x20\n      add\n      0x00\n      keccak256\n      0x00\n      swap1\n      sload\n      swap1\n      0x0100\n      exp\n      swap1\n      div\n      0xff\n      and\n        /* \"smart_contracts/contracts/Authenticator.sol\":986:1007  isAdmin[sndr] == true */\n      iszero\n      iszero\n      eq\n        /* \"smart_contracts/contracts/Authenticator.sol\":978:1052  require(isAdmin[sndr] == true, \"Authenticator: admin permission required\") */\n      tag_205\n      jumpi\n      mload(0x40)\n      0x08c379a000000000000000000000000000000000000000000000000000000000\n      dup2\n      mstore\n      0x04\n      add\n      tag_206\n      swap1\n      tag_158\n      jump\t// in\n    tag_206:\n      mload(0x40)\n      dup1\n      swap2\n      sub\n      swap1\n      revert\n    tag_205:\n        /* \"smart_contracts/contracts/Authenticator.sol\":1105:1109  true */\n      0x01\n        /* \"smart_contracts/contracts/Authenticator.sol\":1090:1109  isDev[sndr] == true */\n      iszero\n      iszero\n        /* \"smart_contracts/contracts/Authenticator.sol\":1090:1095  isDev */\n      0x02\n        /* \"smart_contracts/contracts/Authenticator.sol\":1090:1101  isDev[sndr] */\n      0x00\n        /* \"smart_contracts/contracts/Authenticator.sol\":1096:1100  sndr */\n      dup1\n      0x00\n      swap1\n      sload\n      swap1\n      0x0100\n      exp\n      swap1\n      div\n      0xffffffffffffffffffffffffffffffffffffffff\n      and\n        /* \"smart_contracts/contracts/Authenticator.sol\":1090:1101  isDev[sndr] */\n      0xffffffffffffffffffffffffffffffffffffffff\n      and\n      0xffffffffffffffffffffffffffffffffffffffff\n      and\n      dup2\n      mstore\n      0x20\n      add\n      swap1\n      dup2\n      mstore\n      0x20\n      add\n      0x00\n      keccak256\n      0x00\n      swap1\n      sload\n      swap1\n      0x0100\n      exp\n      swap1\n      div\n      0xff\n      and\n        /* \"smart_contracts/contracts/Authenticator.sol\":1090:1109  isDev[sndr] == true */\n      iszero\n      iszero\n      eq\n        /* \"smart_contracts/contracts/Authenticator.sol\":1082:1152  require(isDev[sndr] == true, \"Authenticator: dev permission required\") */\n      tag_208\n      jumpi\n      mload(0x40)\n      0x08c379a000000000000000000000000000000000000000000000000000000000\n      dup2\n      mstore\n      0x04\n      add\n      tag_209\n      swap1\n      tag_162\n      jump\t// in\n    tag_209:\n      mload(0x40)\n      dup1\n      swap2\n      sub\n      swap1\n      revert\n    tag_208:\n        /* \"smart_contracts/contracts/Authenticator.sol\":1333:1337  true */\n      0x01\n        /* \"smart_contracts/contracts/Authenticator.sol\":1313:1337  isOperator[sndr] == true */\n      iszero\n      iszero\n        /* \"smart_contracts/contracts/Authenticator.sol\":1313:1323  isOperator */\n      0x04\n        /* \"smart_contracts/contracts/Authenticator.sol\":1313:1329  isOperator[sndr] */\n      0x00\n        /* \"smart_contracts/contracts/Authenticator.sol\":1324:1328  sndr */\n      dup1\n      0x00\n      swap1\n      sload\n      swap1\n      0x0100\n      exp\n      swap1\n      div\n      0xffffffffffffffffffffffffffffffffffffffff\n      and\n        /* \"smart_contracts/contracts/Authenticator.sol\":1313:1329  isOperator[sndr] */\n      0xffffffffffffffffffffffffffffffffffffffff\n      and\n      0xffffffffffffffffffffffffffffffffffffffff\n      and\n      dup2\n      mstore\n      0x20\n      add\n      swap1\n      dup2\n      mstore\n      0x20\n      add\n      0x00\n      keccak256\n      0x00\n      swap1\n      sload\n      swap1\n      0x0100\n      exp\n      swap1\n      div\n      0xff\n      and\n        /* \"smart_contracts/contracts/Authenticator.sol\":1313:1337  isOperator[sndr] == true */\n      iszero\n      iszero\n      eq\n        /* \"smart_contracts/contracts/Authenticator.sol\":1305:1385  require(isOperator[sndr] == true, \"Authenticator: operator permission required\") */\n      tag_211\n      jumpi\n      mload(0x40)\n      0x08c379a000000000000000000000000000000000000000000000000000000000\n      dup2\n      mstore\n      0x04\n      add\n      tag_212\n      swap1\n      tag_181\n      jump\t// in\n    tag_212:\n      mload(0x40)\n      dup1\n      swap2\n      sub\n      swap1\n      revert\n    tag_211:\n        /* \"smart_contracts/contracts/Token.sol\":11703:11706  _is */\n      dup2\n        /* \"smart_contracts/contracts/Token.sol\":11675:11683  settings */\n      0x09\n        /* \"smart_contracts/contracts/Token.sol\":11675:11689  settings.state */\n      0x06\n      add\n        /* \"smart_contracts/contracts/Token.sol\":11675:11700  settings.state.isMintable */\n      0x00\n      add\n      0x02\n        /* \"smart_contracts/contracts/Token.sol\":11675:11706  settings.state.isMintable = _is */\n      0x0100\n      exp\n      dup2\n      sload\n      dup2\n      0xff\n      mul\n      not\n      and\n      swap1\n      dup4\n      iszero\n      iszero\n      mul\n      or\n      swap1\n      sstore\n      pop\n        /* \"smart_contracts/contracts/Token.sol\":11723:11727  true */\n      0x01\n        /* \"smart_contracts/contracts/Token.sol\":11716:11727  return true */\n      swap1\n      pop\n        /* \"smart_contracts/contracts/Token.sol\":11574:11734  function setStateIsMintable(bool _is) public onlyAdmin onlyDev onlyOperator returns (bool) {... */\n      swap2\n      swap1\n      pop\n      jump\t// out\n        /* \"smart_contracts/contracts/Token.sol\":8371:8499  function allowance(address _owner, address _spender) public view returns (uint256 remaining) {return allowed[_owner][_spender];} */\n    tag_105:\n        /* \"smart_contracts/contracts/Token.sol\":8445:8462  uint256 remaining */\n      0x00\n        /* \"smart_contracts/contracts/Token.sol\":8472:8479  allowed */\n      0x20\n        /* \"smart_contracts/contracts/Token.sol\":8472:8487  allowed[_owner] */\n      0x00\n        /* \"smart_contracts/contracts/Token.sol\":8480:8486  _owner */\n      dup5\n        /* \"smart_contracts/contracts/Token.sol\":8472:8487  allowed[_owner] */\n      0xffffffffffffffffffffffffffffffffffffffff\n      and\n      0xffffffffffffffffffffffffffffffffffffffff\n      and\n      dup2\n      mstore\n      0x20\n      add\n      swap1\n      dup2\n      mstore\n      0x20\n      add\n      0x00\n      keccak256\n        /* \"smart_contracts/contracts/Token.sol\":8472:8497  allowed[_owner][_spender] */\n      0x00\n        /* \"smart_contracts/contracts/Token.sol\":8488:8496  _spender */\n      dup4\n        /* \"smart_contracts/contracts/Token.sol\":8472:8497  allowed[_owner][_spender] */\n      0xffffffffffffffffffffffffffffffffffffffff\n      and\n      0xffffffffffffffffffffffffffffffffffffffff\n      and\n      dup2\n      mstore\n      0x20\n      add\n      swap1\n      dup2\n      mstore\n      0x20\n      add\n      0x00\n      keccak256\n      sload\n        /* \"smart_contracts/contracts/Token.sol\":8465:8497  return allowed[_owner][_spender] */\n      swap1\n      pop\n        /* \"smart_contracts/contracts/Token.sol\":8371:8499  function allowance(address _owner, address _spender) public view returns (uint256 remaining) {return allowed[_owner][_spender];} */\n      swap3\n      swap2\n      pop\n      pop\n      jump\t// out\n        /* \"smart_contracts/contracts/Token.sol\":9605:10065  function release(string memory _id) public returns (bool) {... */\n    tag_110:\n        /* \"smart_contracts/contracts/Token.sol\":9657:9661  bool */\n      0x00\n        /* \"smart_contracts/contracts/Token.sol\":9673:9699  string memory _releaseType */\n      dup1\n        /* \"smart_contracts/contracts/Token.sol\":9702:9711  schedules */\n      0x1c\n        /* \"smart_contracts/contracts/Token.sol\":9702:9717  schedules[sndr] */\n      0x00\n        /* \"smart_contracts/contracts/Token.sol\":9712:9716  sndr */\n      dup1\n      0x00\n      swap1\n      sload\n      swap1\n      0x0100\n      exp\n      swap1\n      div\n      0xffffffffffffffffffffffffffffffffffffffff\n      and\n        /* \"smart_contracts/contracts/Token.sol\":9702:9717  schedules[sndr] */\n      0xffffffffffffffffffffffffffffffffffffffff\n      and\n      0xffffffffffffffffffffffffffffffffffffffff\n      and\n      dup2\n      mstore\n      0x20\n      add\n      swap1\n      dup2\n      mstore\n      0x20\n      add\n      0x00\n      keccak256\n        /* \"smart_contracts/contracts/Token.sol\":9718:9721  _id */\n      dup4\n        /* \"smart_contracts/contracts/Token.sol\":9702:9722  schedules[sndr][_id] */\n      mload(0x40)\n      tag_216\n      swap2\n      swap1\n      tag_217\n      jump\t// in\n    tag_216:\n      swap1\n      dup2\n      mstore\n      0x20\n      add\n      mload(0x40)\n      dup1\n      swap2\n      sub\n      swap1\n      keccak256\n        /* \"smart_contracts/contracts/Token.sol\":9702:9734  schedules[sndr][_id].releaseType */\n      0x01\n      add\n        /* \"smart_contracts/contracts/Token.sol\":9673:9734  string memory _releaseType = schedules[sndr][_id].releaseType */\n      dup1\n      sload\n      tag_218\n      swap1\n      tag_115\n      jump\t// in\n    tag_218:\n      dup1\n      0x1f\n      add\n      0x20\n      dup1\n      swap2\n      div\n      mul\n      0x20\n      add\n      mload(0x40)\n      swap1\n      dup2\n      add\n      0x40\n      mstore\n      dup1\n      swap3\n      swap2\n      swap1\n      dup2\n      dup2\n      mstore\n      0x20\n      add\n      dup3\n      dup1\n      sload\n      tag_219\n      swap1\n      tag_115\n      jump\t// in\n    tag_219:\n      dup1\n      iszero\n      tag_220\n      jumpi\n      dup1\n      0x1f\n      lt\n      tag_221\n      jumpi\n      0x0100\n      dup1\n      dup4\n      sload\n      div\n      mul\n      dup4\n      mstore\n      swap2\n      0x20\n      add\n      swap2\n      jump(tag_220)\n    tag_221:\n      dup3\n      add\n      swap2\n      swap1\n      0x00\n      mstore\n      keccak256(0x00, 0x20)\n      swap1\n    tag_222:\n      dup2\n      sload\n      dup2\n      mstore\n      swap1\n      0x01\n      add\n      swap1\n      0x20\n      add\n      dup1\n      dup4\n      gt\n      tag_222\n      jumpi\n      dup3\n      swap1\n      sub\n      0x1f\n      and\n      dup3\n      add\n      swap2\n    tag_220:\n      pop\n      pop\n      pop\n      pop\n      pop\n      swap1\n      pop\n        /* \"smart_contracts/contracts/Token.sol\":9782:9797  block.timestamp */\n      timestamp\n        /* \"smart_contracts/contracts/Token.sol\":9754:9763  schedules */\n      0x1c\n        /* \"smart_contracts/contracts/Token.sol\":9754:9769  schedules[sndr] */\n      0x00\n        /* \"smart_contracts/contracts/Token.sol\":9764:9768  sndr */\n      dup1\n      0x00\n      swap1\n      sload\n      swap1\n      0x0100\n      exp\n      swap1\n      div\n      0xffffffffffffffffffffffffffffffffffffffff\n      and\n        /* \"smart_contracts/contracts/Token.sol\":9754:9769  schedules[sndr] */\n      0xffffffffffffffffffffffffffffffffffffffff\n      and\n      0xffffffffffffffffffffffffffffffffffffffff\n      and\n      dup2\n      mstore\n      0x20\n      add\n      swap1\n      dup2\n      mstore\n      0x20\n      add\n      0x00\n      keccak256\n        /* \"smart_contracts/contracts/Token.sol\":9770:9773  _id */\n      dup5\n        /* \"smart_contracts/contracts/Token.sol\":9754:9774  schedules[sndr][_id] */\n      mload(0x40)\n      tag_223\n      swap2\n      swap1\n      tag_217\n      jump\t// in\n    tag_223:\n      swap1\n      dup2\n      mstore\n      0x20\n      add\n      mload(0x40)\n      dup1\n      swap2\n      sub\n      swap1\n      keccak256\n        /* \"smart_contracts/contracts/Token.sol\":9754:9778  schedules[sndr][_id].end */\n      0x04\n      add\n      sload\n        /* \"smart_contracts/contracts/Token.sol\":9754:9797  schedules[sndr][_id].end >= block.timestamp */\n      lt\n      iszero\n        /* \"smart_contracts/contracts/Token.sol\":9754:9831  schedules[sndr][_id].end >= block.timestamp && schedules[sndr][_id].value > 0 */\n      dup1\n      iszero\n      tag_224\n      jumpi\n      pop\n        /* \"smart_contracts/contracts/Token.sol\":9830:9831  0 */\n      0x00\n        /* \"smart_contracts/contracts/Token.sol\":9801:9810  schedules */\n      0x1c\n        /* \"smart_contracts/contracts/Token.sol\":9801:9816  schedules[sndr] */\n      0x00\n        /* \"smart_contracts/contracts/Token.sol\":9811:9815  sndr */\n      dup1\n      0x00\n      swap1\n      sload\n      swap1\n      0x0100\n      exp\n      swap1\n      div\n      0xffffffffffffffffffffffffffffffffffffffff\n      and\n        /* \"smart_contracts/contracts/Token.sol\":9801:9816  schedules[sndr] */\n      0xffffffffffffffffffffffffffffffffffffffff\n      and\n      0xffffffffffffffffffffffffffffffffffffffff\n      and\n      dup2\n      mstore\n      0x20\n      add\n      swap1\n      dup2\n      mstore\n      0x20\n      add\n      0x00\n      keccak256\n        /* \"smart_contracts/contracts/Token.sol\":9817:9820  _id */\n      dup5\n        /* \"smart_contracts/contracts/Token.sol\":9801:9821  schedules[sndr][_id] */\n      mload(0x40)\n      tag_225\n      swap2\n      swap1\n      tag_217\n      jump\t// in\n    tag_225:\n      swap1\n      dup2\n      mstore\n      0x20\n      add\n      mload(0x40)\n      dup1\n      swap2\n      sub\n      swap1\n      keccak256\n        /* \"smart_contracts/contracts/Token.sol\":9801:9827  schedules[sndr][_id].value */\n      0x05\n      add\n      sload\n        /* \"smart_contracts/contracts/Token.sol\":9801:9831  schedules[sndr][_id].value > 0 */\n      gt\n        /* \"smart_contracts/contracts/Token.sol\":9754:9831  schedules[sndr][_id].end >= block.timestamp && schedules[sndr][_id].value > 0 */\n    tag_224:\n        /* \"smart_contracts/contracts/Token.sol\":9746:9832  require(schedules[sndr][_id].end >= block.timestamp && schedules[sndr][_id].value > 0) */\n      tag_226\n      jumpi\n      0x00\n      dup1\n      revert\n    tag_226:\n        /* \"smart_contracts/contracts/Token.sol\":9842:10017  transfer_(... */\n      tag_227\n        /* \"smart_contracts/contracts/Token.sol\":9865:9869  meta */\n      0x13\n        /* \"smart_contracts/contracts/Token.sol\":9865:9875  meta.vault */\n      0x08\n      add\n      0x00\n      swap1\n      sload\n      swap1\n      0x0100\n      exp\n      swap1\n      div\n      0xffffffffffffffffffffffffffffffffffffffff\n      and\n        /* \"smart_contracts/contracts/Token.sol\":9889:9893  sndr */\n      0x00\n      dup1\n      sload\n      swap1\n      0x0100\n      exp\n      swap1\n      div\n      0xffffffffffffffffffffffffffffffffffffffff\n      and\n        /* \"smart_contracts/contracts/Token.sol\":9907:9916  schedules */\n      0x1c\n        /* \"smart_contracts/contracts/Token.sol\":9907:9922  schedules[sndr] */\n      0x00\n        /* \"smart_contracts/contracts/Token.sol\":9917:9921  sndr */\n      dup1\n      0x00\n      swap1\n      sload\n      swap1\n      0x0100\n      exp\n      swap1\n      div\n      0xffffffffffffffffffffffffffffffffffffffff\n      and\n        /* \"smart_contracts/contracts/Token.sol\":9907:9922  schedules[sndr] */\n      0xffffffffffffffffffffffffffffffffffffffff\n      and\n      0xffffffffffffffffffffffffffffffffffffffff\n      and\n      dup2\n      mstore\n      0x20\n      add\n      swap1\n      dup2\n      mstore\n      0x20\n      add\n      0x00\n      keccak256\n        /* \"smart_contracts/contracts/Token.sol\":9923:9926  _id */\n      dup7\n        /* \"smart_contracts/contracts/Token.sol\":9907:9927  schedules[sndr][_id] */\n      mload(0x40)\n      tag_228\n      swap2\n      swap1\n      tag_217\n      jump\t// in\n    tag_228:\n      swap1\n      dup2\n      mstore\n      0x20\n      add\n      mload(0x40)\n      dup1\n      swap2\n      sub\n      swap1\n      keccak256\n        /* \"smart_contracts/contracts/Token.sol\":9907:9933  schedules[sndr][_id].value */\n      0x05\n      add\n      sload\n        /* \"smart_contracts/contracts/Token.sol\":9947:9955  settings */\n      0x09\n        /* \"smart_contracts/contracts/Token.sol\":9947:9970  settings.bpTransferBurn */\n      0x02\n      add\n      sload\n        /* \"smart_contracts/contracts/Token.sol\":9984:9992  settings */\n      0x09\n        /* \"smart_contracts/contracts/Token.sol\":9984:10007  settings.bpTransferBank */\n      0x03\n      add\n      sload\n        /* \"smart_contracts/contracts/Token.sol\":9842:9851  transfer_ */\n      tag_134\n        /* \"smart_contracts/contracts/Token.sol\":9842:10017  transfer_(... */\n      jump\t// in\n    tag_227:\n      pop\n      pop\n        /* \"smart_contracts/contracts/Token.sol\":10056:10057  0 */\n      0x00\n        /* \"smart_contracts/contracts/Token.sol\":10027:10036  schedules */\n      0x1c\n        /* \"smart_contracts/contracts/Token.sol\":10027:10042  schedules[sndr] */\n      0x00\n        /* \"smart_contracts/contracts/Token.sol\":10037:10041  sndr */\n      dup1\n      0x00\n      swap1\n      sload\n      swap1\n      0x0100\n      exp\n      swap1\n      div\n      0xffffffffffffffffffffffffffffffffffffffff\n      and\n        /* \"smart_contracts/contracts/Token.sol\":10027:10042  schedules[sndr] */\n      0xffffffffffffffffffffffffffffffffffffffff\n      and\n      0xffffffffffffffffffffffffffffffffffffffff\n      and\n      dup2\n      mstore\n      0x20\n      add\n      swap1\n      dup2\n      mstore\n      0x20\n      add\n      0x00\n      keccak256\n        /* \"smart_contracts/contracts/Token.sol\":10043:10046  _id */\n      dup5\n        /* \"smart_contracts/contracts/Token.sol\":10027:10047  schedules[sndr][_id] */\n      mload(0x40)\n      tag_229\n      swap2\n      swap1\n      tag_217\n      jump\t// in\n    tag_229:\n      swap1\n      dup2\n      mstore\n      0x20\n      add\n      mload(0x40)\n      dup1\n      swap2\n      sub\n      swap1\n      keccak256\n        /* \"smart_contracts/contracts/Token.sol\":10027:10053  schedules[sndr][_id].value */\n      0x05\n      add\n        /* \"smart_contracts/contracts/Token.sol\":10027:10057  schedules[sndr][_id].value = 0 */\n      dup2\n      swap1\n      sstore\n      pop\n        /* \"smart_contracts/contracts/Token.sol\":9663:10065  {... */\n      pop\n        /* \"smart_contracts/contracts/Token.sol\":9605:10065  function release(string memory _id) public returns (bool) {... */\n      swap2\n      swap1\n      pop\n      jump\t// out\n        /* \"smart_contracts/libraries/Terminal.sol\":500:570  function sender() internal view returns (address) {return msg.sender;} */\n    tag_112:\n        /* \"smart_contracts/libraries/Terminal.sol\":541:548  address */\n      0x00\n        /* \"smart_contracts/libraries/Terminal.sol\":558:568  msg.sender */\n      caller\n        /* \"smart_contracts/libraries/Terminal.sol\":551:568  return msg.sender */\n      swap1\n      pop\n        /* \"smart_contracts/libraries/Terminal.sol\":500:570  function sender() internal view returns (address) {return msg.sender;} */\n      swap1\n      jump\t// out\n        /* \"smart_contracts/contracts/Token.sol\":5934:6895  function transfer_(address _from, address _to, uint256 _value, uint256 _bpFeeBurn, uint256 _bpFeeBank) private returns (bool, uint256) {... */\n    tag_134:\n        /* \"smart_contracts/contracts/Token.sol\":6054:6058  bool */\n      0x00\n        /* \"smart_contracts/contracts/Token.sol\":6060:6067  uint256 */\n      dup1\n        /* \"smart_contracts/contracts/Token.sol\":6117:6118  0 */\n      0x00\n        /* \"smart_contracts/contracts/Token.sol\":6100:6119  _from != address(0) */\n      0xffffffffffffffffffffffffffffffffffffffff\n      and\n        /* \"smart_contracts/contracts/Token.sol\":6100:6105  _from */\n      dup8\n        /* \"smart_contracts/contracts/Token.sol\":6100:6119  _from != address(0) */\n      0xffffffffffffffffffffffffffffffffffffffff\n      and\n      eq\n      iszero\n        /* \"smart_contracts/contracts/Token.sol\":6100:6154  _from != address(0) &&... */\n      dup1\n      iszero\n      tag_232\n      jumpi\n      pop\n        /* \"smart_contracts/contracts/Token.sol\":6152:6153  0 */\n      0x00\n        /* \"smart_contracts/contracts/Token.sol\":6135:6154  _to   != address(0) */\n      0xffffffffffffffffffffffffffffffffffffffff\n      and\n        /* \"smart_contracts/contracts/Token.sol\":6135:6138  _to */\n      dup7\n        /* \"smart_contracts/contracts/Token.sol\":6135:6154  _to   != address(0) */\n      0xffffffffffffffffffffffffffffffffffffffff\n      and\n      eq\n      iszero\n        /* \"smart_contracts/contracts/Token.sol\":6100:6154  _from != address(0) &&... */\n    tag_232:\n        /* \"smart_contracts/contracts/Token.sol\":6100:6194  _from != address(0) &&... */\n      dup1\n      iszero\n      tag_233\n      jumpi\n      pop\n        /* \"smart_contracts/contracts/Token.sol\":6188:6194  _value */\n      dup5\n        /* \"smart_contracts/contracts/Token.sol\":6170:6177  balance */\n      0x1d\n        /* \"smart_contracts/contracts/Token.sol\":6170:6184  balance[_from] */\n      0x00\n        /* \"smart_contracts/contracts/Token.sol\":6178:6183  _from */\n      dup10\n        /* \"smart_contracts/contracts/Token.sol\":6170:6184  balance[_from] */\n      0xffffffffffffffffffffffffffffffffffffffff\n      and\n      0xffffffffffffffffffffffffffffffffffffffff\n      and\n      dup2\n      mstore\n      0x20\n      add\n      swap1\n      dup2\n      mstore\n      0x20\n      add\n      0x00\n      keccak256\n      sload\n        /* \"smart_contracts/contracts/Token.sol\":6170:6194  balance[_from] >= _value */\n      lt\n      iszero\n        /* \"smart_contracts/contracts/Token.sol\":6100:6194  _from != address(0) &&... */\n    tag_233:\n        /* \"smart_contracts/contracts/Token.sol\":6100:6229  _from != address(0) &&... */\n      dup1\n      iszero\n      tag_234\n      jumpi\n      pop\n        /* \"smart_contracts/contracts/Token.sol\":6228:6229  0 */\n      0x00\n        /* \"smart_contracts/contracts/Token.sol\":6210:6217  balance */\n      0x1d\n        /* \"smart_contracts/contracts/Token.sol\":6210:6224  balance[_from] */\n      0x00\n        /* \"smart_contracts/contracts/Token.sol\":6218:6223  _from */\n      dup10\n        /* \"smart_contracts/contracts/Token.sol\":6210:6224  balance[_from] */\n      0xffffffffffffffffffffffffffffffffffffffff\n      and\n      0xffffffffffffffffffffffffffffffffffffffff\n      and\n      dup2\n      mstore\n      0x20\n      add\n      swap1\n      dup2\n      mstore\n      0x20\n      add\n      0x00\n      keccak256\n      sload\n        /* \"smart_contracts/contracts/Token.sol\":6210:6229  balance[_from] >= 0 */\n      lt\n      iszero\n        /* \"smart_contracts/contracts/Token.sol\":6100:6229  _from != address(0) &&... */\n    tag_234:\n        /* \"smart_contracts/contracts/Token.sol\":6100:6256  _from != address(0) &&... */\n      dup1\n      iszero\n      tag_235\n      jumpi\n      pop\n        /* \"smart_contracts/contracts/Token.sol\":6255:6256  0 */\n      0x00\n        /* \"smart_contracts/contracts/Token.sol\":6245:6251  _value */\n      dup6\n        /* \"smart_contracts/contracts/Token.sol\":6245:6256  _value >= 0 */\n      lt\n      iszero\n        /* \"smart_contracts/contracts/Token.sol\":6100:6256  _from != address(0) &&... */\n    tag_235:\n        /* \"smart_contracts/contracts/Token.sol\":6079:6266  require(... */\n      tag_236\n      jumpi\n      0x00\n      dup1\n      revert\n    tag_236:\n        /* \"smart_contracts/contracts/Token.sol\":6295:6301  _value */\n      dup5\n        /* \"smart_contracts/contracts/Token.sol\":6277:6284  balance */\n      0x1d\n        /* \"smart_contracts/contracts/Token.sol\":6277:6291  balance[_from] */\n      0x00\n        /* \"smart_contracts/contracts/Token.sol\":6285:6290  _from */\n      dup10\n        /* \"smart_contracts/contracts/Token.sol\":6277:6291  balance[_from] */\n      0xffffffffffffffffffffffffffffffffffffffff\n      and\n      0xffffffffffffffffffffffffffffffffffffffff\n      and\n      dup2\n      mstore\n      0x20\n      add\n      swap1\n      dup2\n      mstore\n      0x20\n      add\n      0x00\n      keccak256\n      0x00\n        /* \"smart_contracts/contracts/Token.sol\":6277:6301  balance[_from] -= _value */\n      dup3\n      dup3\n      sload\n      tag_237\n      swap2\n      swap1\n      tag_139\n      jump\t// in\n    tag_237:\n      swap3\n      pop\n      pop\n      dup2\n      swap1\n      sstore\n      pop\n        /* \"smart_contracts/contracts/Token.sol\":6311:6327  uint256 _feeBurn */\n      0x00\n        /* \"smart_contracts/contracts/Token.sol\":6348:6358  _bpFeeBurn */\n      dup5\n        /* \"smart_contracts/contracts/Token.sol\":6340:6344  1000 */\n      0x03e8\n        /* \"smart_contracts/contracts/Token.sol\":6331:6337  _value */\n      dup8\n        /* \"smart_contracts/contracts/Token.sol\":6331:6344  _value / 1000 */\n      tag_238\n      swap2\n      swap1\n      tag_239\n      jump\t// in\n    tag_238:\n        /* \"smart_contracts/contracts/Token.sol\":6330:6358  (_value / 1000) * _bpFeeBurn */\n      tag_240\n      swap2\n      swap1\n      tag_241\n      jump\t// in\n    tag_240:\n        /* \"smart_contracts/contracts/Token.sol\":6311:6358  uint256 _feeBurn = (_value / 1000) * _bpFeeBurn */\n      swap1\n      pop\n        /* \"smart_contracts/contracts/Token.sol\":6368:6384  uint256 _feeBank */\n      0x00\n        /* \"smart_contracts/contracts/Token.sol\":6405:6415  _bpFeeBank */\n      dup5\n        /* \"smart_contracts/contracts/Token.sol\":6397:6401  1000 */\n      0x03e8\n        /* \"smart_contracts/contracts/Token.sol\":6388:6394  _value */\n      dup9\n        /* \"smart_contracts/contracts/Token.sol\":6388:6401  _value / 1000 */\n      tag_242\n      swap2\n      swap1\n      tag_239\n      jump\t// in\n    tag_242:\n        /* \"smart_contracts/contracts/Token.sol\":6387:6415  (_value / 1000) * _bpFeeBank */\n      tag_243\n      swap2\n      swap1\n      tag_241\n      jump\t// in\n    tag_243:\n        /* \"smart_contracts/contracts/Token.sol\":6368:6415  uint256 _feeBank = (_value / 1000) * _bpFeeBank */\n      swap1\n      pop\n        /* \"smart_contracts/contracts/Token.sol\":6425:6442  uint256 _newValue */\n      0x00\n        /* \"smart_contracts/contracts/Token.sol\":6466:6474  _feeBank */\n      dup2\n        /* \"smart_contracts/contracts/Token.sol\":6455:6463  _feeBurn */\n      dup4\n        /* \"smart_contracts/contracts/Token.sol\":6455:6474  _feeBurn + _feeBank */\n      tag_244\n      swap2\n      swap1\n      tag_150\n      jump\t// in\n    tag_244:\n        /* \"smart_contracts/contracts/Token.sol\":6445:6451  _value */\n      dup9\n        /* \"smart_contracts/contracts/Token.sol\":6445:6475  _value - (_feeBurn + _feeBank) */\n      tag_245\n      swap2\n      swap1\n      tag_139\n      jump\t// in\n    tag_245:\n        /* \"smart_contracts/contracts/Token.sol\":6425:6475  uint256 _newValue = _value - (_feeBurn + _feeBank) */\n      swap1\n      pop\n        /* \"smart_contracts/contracts/Token.sol\":6501:6510  _newValue */\n      dup1\n        /* \"smart_contracts/contracts/Token.sol\":6485:6492  balance */\n      0x1d\n        /* \"smart_contracts/contracts/Token.sol\":6485:6497  balance[_to] */\n      0x00\n        /* \"smart_contracts/contracts/Token.sol\":6493:6496  _to */\n      dup12\n        /* \"smart_contracts/contracts/Token.sol\":6485:6497  balance[_to] */\n      0xffffffffffffffffffffffffffffffffffffffff\n      and\n      0xffffffffffffffffffffffffffffffffffffffff\n      and\n      dup2\n      mstore\n      0x20\n      add\n      swap1\n      dup2\n      mstore\n      0x20\n      add\n      0x00\n      keccak256\n      0x00\n        /* \"smart_contracts/contracts/Token.sol\":6485:6510  balance[_to] += _newValue */\n      dup3\n      dup3\n      sload\n      tag_246\n      swap2\n      swap1\n      tag_150\n      jump\t// in\n    tag_246:\n      swap3\n      pop\n      pop\n      dup2\n      swap1\n      sstore\n      pop\n        /* \"smart_contracts/contracts/Token.sol\":6543:6551  _feeBank */\n      dup2\n        /* \"smart_contracts/contracts/Token.sol\":6520:6527  balance */\n      0x1d\n        /* \"smart_contracts/contracts/Token.sol\":6520:6539  balance[meta.vault] */\n      0x00\n        /* \"smart_contracts/contracts/Token.sol\":6528:6532  meta */\n      0x13\n        /* \"smart_contracts/contracts/Token.sol\":6528:6538  meta.vault */\n      0x08\n      add\n      0x00\n      swap1\n      sload\n      swap1\n      0x0100\n      exp\n      swap1\n      div\n      0xffffffffffffffffffffffffffffffffffffffff\n      and\n        /* \"smart_contracts/contracts/Token.sol\":6520:6539  balance[meta.vault] */\n      0xffffffffffffffffffffffffffffffffffffffff\n      and\n      0xffffffffffffffffffffffffffffffffffffffff\n      and\n      dup2\n      mstore\n      0x20\n      add\n      swap1\n      dup2\n      mstore\n      0x20\n      add\n      0x00\n      keccak256\n      0x00\n        /* \"smart_contracts/contracts/Token.sol\":6520:6551  balance[meta.vault] += _feeBank */\n      dup3\n      dup3\n      sload\n      tag_247\n      swap2\n      swap1\n      tag_150\n      jump\t// in\n    tag_247:\n      swap3\n      pop\n      pop\n      dup2\n      swap1\n      sstore\n      pop\n        /* \"smart_contracts/contracts/Token.sol\":6581:6589  _feeBurn */\n      dup3\n        /* \"smart_contracts/contracts/Token.sol\":6561:6565  meta */\n      0x13\n        /* \"smart_contracts/contracts/Token.sol\":6561:6577  meta.totalSupply */\n      0x03\n      add\n      0x00\n        /* \"smart_contracts/contracts/Token.sol\":6561:6589  meta.totalSupply -= _feeBurn */\n      dup3\n      dup3\n      sload\n      tag_248\n      swap2\n      swap1\n      tag_139\n      jump\t// in\n    tag_248:\n      swap3\n      pop\n      pop\n      dup2\n      swap1\n      sstore\n      pop\n        /* \"smart_contracts/contracts/Token.sol\":6620:6623  _to */\n      dup9\n        /* \"smart_contracts/contracts/Token.sol\":6604:6635  Transfer(_from, _to, _newValue) */\n      0xffffffffffffffffffffffffffffffffffffffff\n      and\n        /* \"smart_contracts/contracts/Token.sol\":6613:6618  _from */\n      dup11\n        /* \"smart_contracts/contracts/Token.sol\":6604:6635  Transfer(_from, _to, _newValue) */\n      0xffffffffffffffffffffffffffffffffffffffff\n      and\n      0xddf252ad1be2c89b69c2b068fc378daa952ba7f163c4a11628f55a4df523b3ef\n        /* \"smart_contracts/contracts/Token.sol\":6625:6634  _newValue */\n      dup4\n        /* \"smart_contracts/contracts/Token.sol\":6604:6635  Transfer(_from, _to, _newValue) */\n      mload(0x40)\n      tag_249\n      swap2\n      swap1\n      tag_39\n      jump\t// in\n    tag_249:\n      mload(0x40)\n      dup1\n      swap2\n      sub\n      swap1\n      log3\n        /* \"smart_contracts/contracts/Token.sol\":6661:6662  0 */\n      0x00\n        /* \"smart_contracts/contracts/Token.sol\":6649:6657  _feeBurn */\n      dup4\n        /* \"smart_contracts/contracts/Token.sol\":6649:6662  _feeBurn != 0 */\n      eq\n        /* \"smart_contracts/contracts/Token.sol\":6645:6709  if (_feeBurn != 0) {emit Transfer(_from, address(0), _feeBurn);} */\n      tag_250\n      jumpi\n        /* \"smart_contracts/contracts/Token.sol\":6694:6695  0 */\n      0x00\n        /* \"smart_contracts/contracts/Token.sol\":6670:6707  Transfer(_from, address(0), _feeBurn) */\n      0xffffffffffffffffffffffffffffffffffffffff\n      and\n        /* \"smart_contracts/contracts/Token.sol\":6679:6684  _from */\n      dup11\n        /* \"smart_contracts/contracts/Token.sol\":6670:6707  Transfer(_from, address(0), _feeBurn) */\n      0xffffffffffffffffffffffffffffffffffffffff\n      and\n      0xddf252ad1be2c89b69c2b068fc378daa952ba7f163c4a11628f55a4df523b3ef\n        /* \"smart_contracts/contracts/Token.sol\":6698:6706  _feeBurn */\n      dup6\n        /* \"smart_contracts/contracts/Token.sol\":6670:6707  Transfer(_from, address(0), _feeBurn) */\n      mload(0x40)\n      tag_251\n      swap2\n      swap1\n      tag_39\n      jump\t// in\n    tag_251:\n      mload(0x40)\n      dup1\n      swap2\n      sub\n      swap1\n      log3\n        /* \"smart_contracts/contracts/Token.sol\":6645:6709  if (_feeBurn != 0) {emit Transfer(_from, address(0), _feeBurn);} */\n    tag_250:\n        /* \"smart_contracts/contracts/Token.sol\":6734:6735  0 */\n      0x00\n        /* \"smart_contracts/contracts/Token.sol\":6722:6730  _feeBank */\n      dup3\n        /* \"smart_contracts/contracts/Token.sol\":6722:6735  _feeBank != 0 */\n      eq\n        /* \"smart_contracts/contracts/Token.sol\":6718:6782  if (_feeBank != 0) {emit Transfer(_from, meta.vault, _feeBank);} */\n      tag_252\n      jumpi\n        /* \"smart_contracts/contracts/Token.sol\":6759:6763  meta */\n      0x13\n        /* \"smart_contracts/contracts/Token.sol\":6759:6769  meta.vault */\n      0x08\n      add\n      0x00\n      swap1\n      sload\n      swap1\n      0x0100\n      exp\n      swap1\n      div\n      0xffffffffffffffffffffffffffffffffffffffff\n      and\n        /* \"smart_contracts/contracts/Token.sol\":6743:6780  Transfer(_from, meta.vault, _feeBank) */\n      0xffffffffffffffffffffffffffffffffffffffff\n      and\n        /* \"smart_contracts/contracts/Token.sol\":6752:6757  _from */\n      dup11\n        /* \"smart_contracts/contracts/Token.sol\":6743:6780  Transfer(_from, meta.vault, _feeBank) */\n      0xffffffffffffffffffffffffffffffffffffffff\n      and\n      0xddf252ad1be2c89b69c2b068fc378daa952ba7f163c4a11628f55a4df523b3ef\n        /* \"smart_contracts/contracts/Token.sol\":6771:6779  _feeBank */\n      dup5\n        /* \"smart_contracts/contracts/Token.sol\":6743:6780  Transfer(_from, meta.vault, _feeBank) */\n      mload(0x40)\n      tag_253\n      swap2\n      swap1\n      tag_39\n      jump\t// in\n    tag_253:\n      mload(0x40)\n      dup1\n      swap2\n      sub\n      swap1\n      log3\n        /* \"smart_contracts/contracts/Token.sol\":6718:6782  if (_feeBank != 0) {emit Transfer(_from, meta.vault, _feeBank);} */\n    tag_252:\n        /* \"smart_contracts/contracts/Token.sol\":6813:6817  true */\n      0x01\n        /* \"smart_contracts/contracts/Token.sol\":6848:6857  _newValue */\n      dup2\n        /* \"smart_contracts/contracts/Token.sol\":6792:6888  return (... */\n      swap5\n      pop\n      swap5\n      pop\n      pop\n      pop\n      pop\n        /* \"smart_contracts/contracts/Token.sol\":5934:6895  function transfer_(address _from, address _to, uint256 _value, uint256 _bpFeeBurn, uint256 _bpFeeBank) private returns (bool, uint256) {... */\n      swap6\n      pop\n      swap6\n      swap4\n      pop\n      pop\n      pop\n      pop\n      jump\t// out\n        /* \"#utility.yul\":7:106   */\n    tag_254:\n        /* \"#utility.yul\":59:65   */\n      0x00\n        /* \"#utility.yul\":93:98   */\n      dup2\n        /* \"#utility.yul\":87:99   */\n      mload\n        /* \"#utility.yul\":77:99   */\n      swap1\n      pop\n        /* \"#utility.yul\":7:106   */\n      swap2\n      swap1\n      pop\n      jump\t// out\n        /* \"#utility.yul\":112:281   */\n    tag_255:\n        /* \"#utility.yul\":196:207   */\n      0x00\n        /* \"#utility.yul\":230:236   */\n      dup3\n        /* \"#utility.yul\":225:228   */\n      dup3\n        /* \"#utility.yul\":218:237   */\n      mstore\n        /* \"#utility.yul\":270:274   */\n      0x20\n        /* \"#utility.yul\":265:268   */\n      dup3\n        /* \"#utility.yul\":261:275   */\n      add\n        /* \"#utility.yul\":246:275   */\n      swap1\n      pop\n        /* \"#utility.yul\":112:281   */\n      swap3\n      swap2\n      pop\n      pop\n      jump\t// out\n        /* \"#utility.yul\":287:533   */\n    tag_256:\n        /* \"#utility.yul\":368:369   */\n      0x00\n        /* \"#utility.yul\":378:491   */\n    tag_304:\n        /* \"#utility.yul\":392:398   */\n      dup4\n        /* \"#utility.yul\":389:390   */\n      dup2\n        /* \"#utility.yul\":386:399   */\n      lt\n        /* \"#utility.yul\":378:491   */\n      iszero\n      tag_306\n      jumpi\n        /* \"#utility.yul\":477:478   */\n      dup1\n        /* \"#utility.yul\":472:475   */\n      dup3\n        /* \"#utility.yul\":468:479   */\n      add\n        /* \"#utility.yul\":462:480   */\n      mload\n        /* \"#utility.yul\":458:459   */\n      dup2\n        /* \"#utility.yul\":453:456   */\n      dup5\n        /* \"#utility.yul\":449:460   */\n      add\n        /* \"#utility.yul\":442:481   */\n      mstore\n        /* \"#utility.yul\":414:416   */\n      0x20\n        /* \"#utility.yul\":411:412   */\n      dup2\n        /* \"#utility.yul\":407:417   */\n      add\n        /* \"#utility.yul\":402:417   */\n      swap1\n      pop\n        /* \"#utility.yul\":378:491   */\n      jump(tag_304)\n    tag_306:\n        /* \"#utility.yul\":525:526   */\n      0x00\n        /* \"#utility.yul\":516:522   */\n      dup5\n        /* \"#utility.yul\":511:514   */\n      dup5\n        /* \"#utility.yul\":507:523   */\n      add\n        /* \"#utility.yul\":500:527   */\n      mstore\n        /* \"#utility.yul\":349:533   */\n      pop\n        /* \"#utility.yul\":287:533   */\n      pop\n      pop\n      pop\n      jump\t// out\n        /* \"#utility.yul\":539:641   */\n    tag_257:\n        /* \"#utility.yul\":580:586   */\n      0x00\n        /* \"#utility.yul\":631:633   */\n      0x1f\n        /* \"#utility.yul\":627:634   */\n      not\n        /* \"#utility.yul\":622:624   */\n      0x1f\n        /* \"#utility.yul\":615:620   */\n      dup4\n        /* \"#utility.yul\":611:625   */\n      add\n        /* \"#utility.yul\":607:635   */\n      and\n        /* \"#utility.yul\":597:635   */\n      swap1\n      pop\n        /* \"#utility.yul\":539:641   */\n      swap2\n      swap1\n      pop\n      jump\t// out\n        /* \"#utility.yul\":647:1024   */\n    tag_258:\n        /* \"#utility.yul\":735:738   */\n      0x00\n        /* \"#utility.yul\":763:802   */\n      tag_309\n        /* \"#utility.yul\":796:801   */\n      dup3\n        /* \"#utility.yul\":763:802   */\n      tag_254\n      jump\t// in\n    tag_309:\n        /* \"#utility.yul\":818:889   */\n      tag_310\n        /* \"#utility.yul\":882:888   */\n      dup2\n        /* \"#utility.yul\":877:880   */\n      dup6\n        /* \"#utility.yul\":818:889   */\n      tag_255\n      jump\t// in\n    tag_310:\n        /* \"#utility.yul\":811:889   */\n      swap4\n      pop\n        /* \"#utility.yul\":898:963   */\n      tag_311\n        /* \"#utility.yul\":956:962   */\n      dup2\n        /* \"#utility.yul\":951:954   */\n      dup6\n        /* \"#utility.yul\":944:948   */\n      0x20\n        /* \"#utility.yul\":937:942   */\n      dup7\n        /* \"#utility.yul\":933:949   */\n      add\n        /* \"#utility.yul\":898:963   */\n      tag_256\n      jump\t// in\n    tag_311:\n        /* \"#utility.yul\":988:1017   */\n      tag_312\n        /* \"#utility.yul\":1010:1016   */\n      dup2\n        /* \"#utility.yul\":988:1017   */\n      tag_257\n      jump\t// in\n    tag_312:\n        /* \"#utility.yul\":983:986   */\n      dup5\n        /* \"#utility.yul\":979:1018   */\n      add\n        /* \"#utility.yul\":972:1018   */\n      swap2\n      pop\n        /* \"#utility.yul\":739:1024   */\n      pop\n        /* \"#utility.yul\":647:1024   */\n      swap3\n      swap2\n      pop\n      pop\n      jump\t// out\n        /* \"#utility.yul\":1030:1343   */\n    tag_29:\n        /* \"#utility.yul\":1143:1147   */\n      0x00\n        /* \"#utility.yul\":1181:1183   */\n      0x20\n        /* \"#utility.yul\":1170:1179   */\n      dup3\n        /* \"#utility.yul\":1166:1184   */\n      add\n        /* \"#utility.yul\":1158:1184   */\n      swap1\n      pop\n        /* \"#utility.yul\":1230:1239   */\n      dup2\n        /* \"#utility.yul\":1224:1228   */\n      dup2\n        /* \"#utility.yul\":1220:1240   */\n      sub\n        /* \"#utility.yul\":1216:1217   */\n      0x00\n        /* \"#utility.yul\":1205:1214   */\n      dup4\n        /* \"#utility.yul\":1201:1218   */\n      add\n        /* \"#utility.yul\":1194:1241   */\n      mstore\n        /* \"#utility.yul\":1258:1336   */\n      tag_314\n        /* \"#utility.yul\":1331:1335   */\n      dup2\n        /* \"#utility.yul\":1322:1328   */\n      dup5\n        /* \"#utility.yul\":1258:1336   */\n      tag_258\n      jump\t// in\n    tag_314:\n        /* \"#utility.yul\":1250:1336   */\n      swap1\n      pop\n        /* \"#utility.yul\":1030:1343   */\n      swap3\n      swap2\n      pop\n      pop\n      jump\t// out\n        /* \"#utility.yul\":1349:1424   */\n    tag_259:\n        /* \"#utility.yul\":1382:1388   */\n      0x00\n        /* \"#utility.yul\":1415:1417   */\n      0x40\n        /* \"#utility.yul\":1409:1418   */\n      mload\n        /* \"#utility.yul\":1399:1418   */\n      swap1\n      pop\n        /* \"#utility.yul\":1349:1424   */\n      swap1\n      jump\t// out\n        /* \"#utility.yul\":1430:1547   */\n    tag_260:\n        /* \"#utility.yul\":1539:1540   */\n      0x00\n        /* \"#utility.yul\":1536:1537   */\n      dup1\n        /* \"#utility.yul\":1529:1541   */\n      revert\n        /* \"#utility.yul\":1553:1670   */\n    tag_261:\n        /* \"#utility.yul\":1662:1663   */\n      0x00\n        /* \"#utility.yul\":1659:1660   */\n      dup1\n        /* \"#utility.yul\":1652:1664   */\n      revert\n        /* \"#utility.yul\":1676:1802   */\n    tag_262:\n        /* \"#utility.yul\":1713:1720   */\n      0x00\n        /* \"#utility.yul\":1753:1795   */\n      0xffffffffffffffffffffffffffffffffffffffff\n        /* \"#utility.yul\":1746:1751   */\n      dup3\n        /* \"#utility.yul\":1742:1796   */\n      and\n        /* \"#utility.yul\":1731:1796   */\n      swap1\n      pop\n        /* \"#utility.yul\":1676:1802   */\n      swap2\n      swap1\n      pop\n      jump\t// out\n        /* \"#utility.yul\":1808:1904   */\n    tag_263:\n        /* \"#utility.yul\":1845:1852   */\n      0x00\n        /* \"#utility.yul\":1874:1898   */\n      tag_320\n        /* \"#utility.yul\":1892:1897   */\n      dup3\n        /* \"#utility.yul\":1874:1898   */\n      tag_262\n      jump\t// in\n    tag_320:\n        /* \"#utility.yul\":1863:1898   */\n      swap1\n      pop\n        /* \"#utility.yul\":1808:1904   */\n      swap2\n      swap1\n      pop\n      jump\t// out\n        /* \"#utility.yul\":1910:2032   */\n    tag_264:\n        /* \"#utility.yul\":1983:2007   */\n      tag_322\n        /* \"#utility.yul\":2001:2006   */\n      dup2\n        /* \"#utility.yul\":1983:2007   */\n      tag_263\n      jump\t// in\n    tag_322:\n        /* \"#utility.yul\":1976:1981   */\n      dup2\n        /* \"#utility.yul\":1973:2008   */\n      eq\n        /* \"#utility.yul\":1963:2026   */\n      tag_323\n      jumpi\n        /* \"#utility.yul\":2022:2023   */\n      0x00\n        /* \"#utility.yul\":2019:2020   */\n      dup1\n        /* \"#utility.yul\":2012:2024   */\n      revert\n        /* \"#utility.yul\":1963:2026   */\n    tag_323:\n        /* \"#utility.yul\":1910:2032   */\n      pop\n      jump\t// out\n        /* \"#utility.yul\":2038:2177   */\n    tag_265:\n        /* \"#utility.yul\":2084:2089   */\n      0x00\n        /* \"#utility.yul\":2122:2128   */\n      dup2\n        /* \"#utility.yul\":2109:2129   */\n      calldataload\n        /* \"#utility.yul\":2100:2129   */\n      swap1\n      pop\n        /* \"#utility.yul\":2138:2171   */\n      tag_325\n        /* \"#utility.yul\":2165:2170   */\n      dup2\n        /* \"#utility.yul\":2138:2171   */\n      tag_264\n      jump\t// in\n    tag_325:\n        /* \"#utility.yul\":2038:2177   */\n      swap3\n      swap2\n      pop\n      pop\n      jump\t// out\n        /* \"#utility.yul\":2183:2260   */\n    tag_266:\n        /* \"#utility.yul\":2220:2227   */\n      0x00\n        /* \"#utility.yul\":2249:2254   */\n      dup2\n        /* \"#utility.yul\":2238:2254   */\n      swap1\n      pop\n        /* \"#utility.yul\":2183:2260   */\n      swap2\n      swap1\n      pop\n      jump\t// out\n        /* \"#utility.yul\":2266:2388   */\n    tag_267:\n        /* \"#utility.yul\":2339:2363   */\n      tag_328\n        /* \"#utility.yul\":2357:2362   */\n      dup2\n        /* \"#utility.yul\":2339:2363   */\n      tag_266\n      jump\t// in\n    tag_328:\n        /* \"#utility.yul\":2332:2337   */\n      dup2\n        /* \"#utility.yul\":2329:2364   */\n      eq\n        /* \"#utility.yul\":2319:2382   */\n      tag_329\n      jumpi\n        /* \"#utility.yul\":2378:2379   */\n      0x00\n        /* \"#utility.yul\":2375:2376   */\n      dup1\n        /* \"#utility.yul\":2368:2380   */\n      revert\n        /* \"#utility.yul\":2319:2382   */\n    tag_329:\n        /* \"#utility.yul\":2266:2388   */\n      pop\n      jump\t// out\n        /* \"#utility.yul\":2394:2533   */\n    tag_268:\n        /* \"#utility.yul\":2440:2445   */\n      0x00\n        /* \"#utility.yul\":2478:2484   */\n      dup2\n        /* \"#utility.yul\":2465:2485   */\n      calldataload\n        /* \"#utility.yul\":2456:2485   */\n      swap1\n      pop\n        /* \"#utility.yul\":2494:2527   */\n      tag_331\n        /* \"#utility.yul\":2521:2526   */\n      dup2\n        /* \"#utility.yul\":2494:2527   */\n      tag_267\n      jump\t// in\n    tag_331:\n        /* \"#utility.yul\":2394:2533   */\n      swap3\n      swap2\n      pop\n      pop\n      jump\t// out\n        /* \"#utility.yul\":2539:3013   */\n    tag_32:\n        /* \"#utility.yul\":2607:2613   */\n      0x00\n        /* \"#utility.yul\":2615:2621   */\n      dup1\n        /* \"#utility.yul\":2664:2666   */\n      0x40\n        /* \"#utility.yul\":2652:2661   */\n      dup4\n        /* \"#utility.yul\":2643:2650   */\n      dup6\n        /* \"#utility.yul\":2639:2662   */\n      sub\n        /* \"#utility.yul\":2635:2667   */\n      slt\n        /* \"#utility.yul\":2632:2751   */\n      iszero\n      tag_333\n      jumpi\n        /* \"#utility.yul\":2670:2749   */\n      tag_334\n      tag_260\n      jump\t// in\n    tag_334:\n        /* \"#utility.yul\":2632:2751   */\n    tag_333:\n        /* \"#utility.yul\":2790:2791   */\n      0x00\n        /* \"#utility.yul\":2815:2868   */\n      tag_335\n        /* \"#utility.yul\":2860:2867   */\n      dup6\n        /* \"#utility.yul\":2851:2857   */\n      dup3\n        /* \"#utility.yul\":2840:2849   */\n      dup7\n        /* \"#utility.yul\":2836:2858   */\n      add\n        /* \"#utility.yul\":2815:2868   */\n      tag_265\n      jump\t// in\n    tag_335:\n        /* \"#utility.yul\":2805:2868   */\n      swap3\n      pop\n        /* \"#utility.yul\":2761:2878   */\n      pop\n        /* \"#utility.yul\":2917:2919   */\n      0x20\n        /* \"#utility.yul\":2943:2996   */\n      tag_336\n        /* \"#utility.yul\":2988:2995   */\n      dup6\n        /* \"#utility.yul\":2979:2985   */\n      dup3\n        /* \"#utility.yul\":2968:2977   */\n      dup7\n        /* \"#utility.yul\":2964:2986   */\n      add\n        /* \"#utility.yul\":2943:2996   */\n      tag_268\n      jump\t// in\n    tag_336:\n        /* \"#utility.yul\":2933:2996   */\n      swap2\n      pop\n        /* \"#utility.yul\":2888:3006   */\n      pop\n        /* \"#utility.yul\":2539:3013   */\n      swap3\n      pop\n      swap3\n      swap1\n      pop\n      jump\t// out\n        /* \"#utility.yul\":3019:3109   */\n    tag_269:\n        /* \"#utility.yul\":3053:3060   */\n      0x00\n        /* \"#utility.yul\":3096:3101   */\n      dup2\n        /* \"#utility.yul\":3089:3102   */\n      iszero\n        /* \"#utility.yul\":3082:3103   */\n      iszero\n        /* \"#utility.yul\":3071:3103   */\n      swap1\n      pop\n        /* \"#utility.yul\":3019:3109   */\n      swap2\n      swap1\n      pop\n      jump\t// out\n        /* \"#utility.yul\":3115:3224   */\n    tag_270:\n        /* \"#utility.yul\":3196:3217   */\n      tag_339\n        /* \"#utility.yul\":3211:3216   */\n      dup2\n        /* \"#utility.yul\":3196:3217   */\n      tag_269\n      jump\t// in\n    tag_339:\n        /* \"#utility.yul\":3191:3194   */\n      dup3\n        /* \"#utility.yul\":3184:3218   */\n      mstore\n        /* \"#utility.yul\":3115:3224   */\n      pop\n      pop\n      jump\t// out\n        /* \"#utility.yul\":3230:3440   */\n    tag_35:\n        /* \"#utility.yul\":3317:3321   */\n      0x00\n        /* \"#utility.yul\":3355:3357   */\n      0x20\n        /* \"#utility.yul\":3344:3353   */\n      dup3\n        /* \"#utility.yul\":3340:3358   */\n      add\n        /* \"#utility.yul\":3332:3358   */\n      swap1\n      pop\n        /* \"#utility.yul\":3368:3433   */\n      tag_341\n        /* \"#utility.yul\":3430:3431   */\n      0x00\n        /* \"#utility.yul\":3419:3428   */\n      dup4\n        /* \"#utility.yul\":3415:3432   */\n      add\n        /* \"#utility.yul\":3406:3412   */\n      dup5\n        /* \"#utility.yul\":3368:3433   */\n      tag_270\n      jump\t// in\n    tag_341:\n        /* \"#utility.yul\":3230:3440   */\n      swap3\n      swap2\n      pop\n      pop\n      jump\t// out\n        /* \"#utility.yul\":3446:3564   */\n    tag_271:\n        /* \"#utility.yul\":3533:3557   */\n      tag_343\n        /* \"#utility.yul\":3551:3556   */\n      dup2\n        /* \"#utility.yul\":3533:3557   */\n      tag_266\n      jump\t// in\n    tag_343:\n        /* \"#utility.yul\":3528:3531   */\n      dup3\n        /* \"#utility.yul\":3521:3558   */\n      mstore\n        /* \"#utility.yul\":3446:3564   */\n      pop\n      pop\n      jump\t// out\n        /* \"#utility.yul\":3570:3792   */\n    tag_39:\n        /* \"#utility.yul\":3663:3667   */\n      0x00\n        /* \"#utility.yul\":3701:3703   */\n      0x20\n        /* \"#utility.yul\":3690:3699   */\n      dup3\n        /* \"#utility.yul\":3686:3704   */\n      add\n        /* \"#utility.yul\":3678:3704   */\n      swap1\n      pop\n        /* \"#utility.yul\":3714:3785   */\n      tag_345\n        /* \"#utility.yul\":3782:3783   */\n      0x00\n        /* \"#utility.yul\":3771:3780   */\n      dup4\n        /* \"#utility.yul\":3767:3784   */\n      add\n        /* \"#utility.yul\":3758:3764   */\n      dup5\n        /* \"#utility.yul\":3714:3785   */\n      tag_271\n      jump\t// in\n    tag_345:\n        /* \"#utility.yul\":3570:3792   */\n      swap3\n      swap2\n      pop\n      pop\n      jump\t// out\n        /* \"#utility.yul\":3798:4417   */\n    tag_42:\n        /* \"#utility.yul\":3875:3881   */\n      0x00\n        /* \"#utility.yul\":3883:3889   */\n      dup1\n        /* \"#utility.yul\":3891:3897   */\n      0x00\n        /* \"#utility.yul\":3940:3942   */\n      0x60\n        /* \"#utility.yul\":3928:3937   */\n      dup5\n        /* \"#utility.yul\":3919:3926   */\n      dup7\n        /* \"#utility.yul\":3915:3938   */\n      sub\n        /* \"#utility.yul\":3911:3943   */\n      slt\n        /* \"#utility.yul\":3908:4027   */\n      iszero\n      tag_347\n      jumpi\n        /* \"#utility.yul\":3946:4025   */\n      tag_348\n      tag_260\n      jump\t// in\n    tag_348:\n        /* \"#utility.yul\":3908:4027   */\n    tag_347:\n        /* \"#utility.yul\":4066:4067   */\n      0x00\n        /* \"#utility.yul\":4091:4144   */\n      tag_349\n        /* \"#utility.yul\":4136:4143   */\n      dup7\n        /* \"#utility.yul\":4127:4133   */\n      dup3\n        /* \"#utility.yul\":4116:4125   */\n      dup8\n        /* \"#utility.yul\":4112:4134   */\n      add\n        /* \"#utility.yul\":4091:4144   */\n      tag_265\n      jump\t// in\n    tag_349:\n        /* \"#utility.yul\":4081:4144   */\n      swap4\n      pop\n        /* \"#utility.yul\":4037:4154   */\n      pop\n        /* \"#utility.yul\":4193:4195   */\n      0x20\n        /* \"#utility.yul\":4219:4272   */\n      tag_350\n        /* \"#utility.yul\":4264:4271   */\n      dup7\n        /* \"#utility.yul\":4255:4261   */\n      dup3\n        /* \"#utility.yul\":4244:4253   */\n      dup8\n        /* \"#utility.yul\":4240:4262   */\n      add\n        /* \"#utility.yul\":4219:4272   */\n      tag_265\n      jump\t// in\n    tag_350:\n        /* \"#utility.yul\":4209:4272   */\n      swap3\n      pop\n        /* \"#utility.yul\":4164:4282   */\n      pop\n        /* \"#utility.yul\":4321:4323   */\n      0x40\n        /* \"#utility.yul\":4347:4400   */\n      tag_351\n        /* \"#utility.yul\":4392:4399   */\n      dup7\n        /* \"#utility.yul\":4383:4389   */\n      dup3\n        /* \"#utility.yul\":4372:4381   */\n      dup8\n        /* \"#utility.yul\":4368:4390   */\n      add\n        /* \"#utility.yul\":4347:4400   */\n      tag_268\n      jump\t// in\n    tag_351:\n        /* \"#utility.yul\":4337:4400   */\n      swap2\n      pop\n        /* \"#utility.yul\":4292:4410   */\n      pop\n        /* \"#utility.yul\":3798:4417   */\n      swap3\n      pop\n      swap3\n      pop\n      swap3\n      jump\t// out\n        /* \"#utility.yul\":4423:4752   */\n    tag_47:\n        /* \"#utility.yul\":4482:4488   */\n      0x00\n        /* \"#utility.yul\":4531:4533   */\n      0x20\n        /* \"#utility.yul\":4519:4528   */\n      dup3\n        /* \"#utility.yul\":4510:4517   */\n      dup5\n        /* \"#utility.yul\":4506:4529   */\n      sub\n        /* \"#utility.yul\":4502:4534   */\n      slt\n        /* \"#utility.yul\":4499:4618   */\n      iszero\n      tag_353\n      jumpi\n        /* \"#utility.yul\":4537:4616   */\n      tag_354\n      tag_260\n      jump\t// in\n    tag_354:\n        /* \"#utility.yul\":4499:4618   */\n    tag_353:\n        /* \"#utility.yul\":4657:4658   */\n      0x00\n        /* \"#utility.yul\":4682:4735   */\n      tag_355\n        /* \"#utility.yul\":4727:4734   */\n      dup5\n        /* \"#utility.yul\":4718:4724   */\n      dup3\n        /* \"#utility.yul\":4707:4716   */\n      dup6\n        /* \"#utility.yul\":4703:4725   */\n      add\n        /* \"#utility.yul\":4682:4735   */\n      tag_268\n      jump\t// in\n    tag_355:\n        /* \"#utility.yul\":4672:4735   */\n      swap2\n      pop\n        /* \"#utility.yul\":4628:4745   */\n      pop\n        /* \"#utility.yul\":4423:4752   */\n      swap3\n      swap2\n      pop\n      pop\n      jump\t// out\n        /* \"#utility.yul\":4758:4844   */\n    tag_272:\n        /* \"#utility.yul\":4793:4800   */\n      0x00\n        /* \"#utility.yul\":4833:4837   */\n      0xff\n        /* \"#utility.yul\":4826:4831   */\n      dup3\n        /* \"#utility.yul\":4822:4838   */\n      and\n        /* \"#utility.yul\":4811:4838   */\n      swap1\n      pop\n        /* \"#utility.yul\":4758:4844   */\n      swap2\n      swap1\n      pop\n      jump\t// out\n        /* \"#utility.yul\":4850:4962   */\n    tag_273:\n        /* \"#utility.yul\":4933:4955   */\n      tag_358\n        /* \"#utility.yul\":4949:4954   */\n      dup2\n        /* \"#utility.yul\":4933:4955   */\n      tag_272\n      jump\t// in\n    tag_358:\n        /* \"#utility.yul\":4928:4931   */\n      dup3\n        /* \"#utility.yul\":4921:4956   */\n      mstore\n        /* \"#utility.yul\":4850:4962   */\n      pop\n      pop\n      jump\t// out\n        /* \"#utility.yul\":4968:5182   */\n    tag_53:\n        /* \"#utility.yul\":5057:5061   */\n      0x00\n        /* \"#utility.yul\":5095:5097   */\n      0x20\n        /* \"#utility.yul\":5084:5093   */\n      dup3\n        /* \"#utility.yul\":5080:5098   */\n      add\n        /* \"#utility.yul\":5072:5098   */\n      swap1\n      pop\n        /* \"#utility.yul\":5108:5175   */\n      tag_360\n        /* \"#utility.yul\":5172:5173   */\n      0x00\n        /* \"#utility.yul\":5161:5170   */\n      dup4\n        /* \"#utility.yul\":5157:5174   */\n      add\n        /* \"#utility.yul\":5148:5154   */\n      dup5\n        /* \"#utility.yul\":5108:5175   */\n      tag_273\n      jump\t// in\n    tag_360:\n        /* \"#utility.yul\":4968:5182   */\n      swap3\n      swap2\n      pop\n      pop\n      jump\t// out\n        /* \"#utility.yul\":5188:5517   */\n    tag_60:\n        /* \"#utility.yul\":5247:5253   */\n      0x00\n        /* \"#utility.yul\":5296:5298   */\n      0x20\n        /* \"#utility.yul\":5284:5293   */\n      dup3\n        /* \"#utility.yul\":5275:5282   */\n      dup5\n        /* \"#utility.yul\":5271:5294   */\n      sub\n        /* \"#utility.yul\":5267:5299   */\n      slt\n        /* \"#utility.yul\":5264:5383   */\n      iszero\n      tag_362\n      jumpi\n        /* \"#utility.yul\":5302:5381   */\n      tag_363\n      tag_260\n      jump\t// in\n    tag_363:\n        /* \"#utility.yul\":5264:5383   */\n    tag_362:\n        /* \"#utility.yul\":5422:5423   */\n      0x00\n        /* \"#utility.yul\":5447:5500   */\n      tag_364\n        /* \"#utility.yul\":5492:5499   */\n      dup5\n        /* \"#utility.yul\":5483:5489   */\n      dup3\n        /* \"#utility.yul\":5472:5481   */\n      dup6\n        /* \"#utility.yul\":5468:5490   */\n      add\n        /* \"#utility.yul\":5447:5500   */\n      tag_265\n      jump\t// in\n    tag_364:\n        /* \"#utility.yul\":5437:5500   */\n      swap2\n      pop\n        /* \"#utility.yul\":5393:5510   */\n      pop\n        /* \"#utility.yul\":5188:5517   */\n      swap3\n      swap2\n      pop\n      pop\n      jump\t// out\n        /* \"#utility.yul\":5523:5639   */\n    tag_274:\n        /* \"#utility.yul\":5593:5614   */\n      tag_366\n        /* \"#utility.yul\":5608:5613   */\n      dup2\n        /* \"#utility.yul\":5593:5614   */\n      tag_269\n      jump\t// in\n    tag_366:\n        /* \"#utility.yul\":5586:5591   */\n      dup2\n        /* \"#utility.yul\":5583:5615   */\n      eq\n        /* \"#utility.yul\":5573:5633   */\n      tag_367\n      jumpi\n        /* \"#utility.yul\":5629:5630   */\n      0x00\n        /* \"#utility.yul\":5626:5627   */\n      dup1\n        /* \"#utility.yul\":5619:5631   */\n      revert\n        /* \"#utility.yul\":5573:5633   */\n    tag_367:\n        /* \"#utility.yul\":5523:5639   */\n      pop\n      jump\t// out\n        /* \"#utility.yul\":5645:5778   */\n    tag_275:\n        /* \"#utility.yul\":5688:5693   */\n      0x00\n        /* \"#utility.yul\":5726:5732   */\n      dup2\n        /* \"#utility.yul\":5713:5733   */\n      calldataload\n        /* \"#utility.yul\":5704:5733   */\n      swap1\n      pop\n        /* \"#utility.yul\":5742:5772   */\n      tag_369\n        /* \"#utility.yul\":5766:5771   */\n      dup2\n        /* \"#utility.yul\":5742:5772   */\n      tag_274\n      jump\t// in\n    tag_369:\n        /* \"#utility.yul\":5645:5778   */\n      swap3\n      swap2\n      pop\n      pop\n      jump\t// out\n        /* \"#utility.yul\":5784:6107   */\n    tag_65:\n        /* \"#utility.yul\":5840:5846   */\n      0x00\n        /* \"#utility.yul\":5889:5891   */\n      0x20\n        /* \"#utility.yul\":5877:5886   */\n      dup3\n        /* \"#utility.yul\":5868:5875   */\n      dup5\n        /* \"#utility.yul\":5864:5887   */\n      sub\n        /* \"#utility.yul\":5860:5892   */\n      slt\n        /* \"#utility.yul\":5857:5976   */\n      iszero\n      tag_371\n      jumpi\n        /* \"#utility.yul\":5895:5974   */\n      tag_372\n      tag_260\n      jump\t// in\n    tag_372:\n        /* \"#utility.yul\":5857:5976   */\n    tag_371:\n        /* \"#utility.yul\":6015:6016   */\n      0x00\n        /* \"#utility.yul\":6040:6090   */\n      tag_373\n        /* \"#utility.yul\":6082:6089   */\n      dup5\n        /* \"#utility.yul\":6073:6079   */\n      dup3\n        /* \"#utility.yul\":6062:6071   */\n      dup6\n        /* \"#utility.yul\":6058:6080   */\n      add\n        /* \"#utility.yul\":6040:6090   */\n      tag_275\n      jump\t// in\n    tag_373:\n        /* \"#utility.yul\":6030:6090   */\n      swap2\n      pop\n        /* \"#utility.yul\":5986:6100   */\n      pop\n        /* \"#utility.yul\":5784:6107   */\n      swap3\n      swap2\n      pop\n      pop\n      jump\t// out\n        /* \"#utility.yul\":6113:6587   */\n    tag_104:\n        /* \"#utility.yul\":6181:6187   */\n      0x00\n        /* \"#utility.yul\":6189:6195   */\n      dup1\n        /* \"#utility.yul\":6238:6240   */\n      0x40\n        /* \"#utility.yul\":6226:6235   */\n      dup4\n        /* \"#utility.yul\":6217:6224   */\n      dup6\n        /* \"#utility.yul\":6213:6236   */\n      sub\n        /* \"#utility.yul\":6209:6241   */\n      slt\n        /* \"#utility.yul\":6206:6325   */\n      iszero\n      tag_375\n      jumpi\n        /* \"#utility.yul\":6244:6323   */\n      tag_376\n      tag_260\n      jump\t// in\n    tag_376:\n        /* \"#utility.yul\":6206:6325   */\n    tag_375:\n        /* \"#utility.yul\":6364:6365   */\n      0x00\n        /* \"#utility.yul\":6389:6442   */\n      tag_377\n        /* \"#utility.yul\":6434:6441   */\n      dup6\n        /* \"#utility.yul\":6425:6431   */\n      dup3\n        /* \"#utility.yul\":6414:6423   */\n      dup7\n        /* \"#utility.yul\":6410:6432   */\n      add\n        /* \"#utility.yul\":6389:6442   */\n      tag_265\n      jump\t// in\n    tag_377:\n        /* \"#utility.yul\":6379:6442   */\n      swap3\n      pop\n        /* \"#utility.yul\":6335:6452   */\n      pop\n        /* \"#utility.yul\":6491:6493   */\n      0x20\n        /* \"#utility.yul\":6517:6570   */\n      tag_378\n        /* \"#utility.yul\":6562:6569   */\n      dup6\n        /* \"#utility.yul\":6553:6559   */\n      dup3\n        /* \"#utility.yul\":6542:6551   */\n      dup7\n        /* \"#utility.yul\":6538:6560   */\n      add\n        /* \"#utility.yul\":6517:6570   */\n      tag_265\n      jump\t// in\n    tag_378:\n        /* \"#utility.yul\":6507:6570   */\n      swap2\n      pop\n        /* \"#utility.yul\":6462:6580   */\n      pop\n        /* \"#utility.yul\":6113:6587   */\n      swap3\n      pop\n      swap3\n      swap1\n      pop\n      jump\t// out\n        /* \"#utility.yul\":6593:6710   */\n    tag_276:\n        /* \"#utility.yul\":6702:6703   */\n      0x00\n        /* \"#utility.yul\":6699:6700   */\n      dup1\n        /* \"#utility.yul\":6692:6704   */\n      revert\n        /* \"#utility.yul\":6716:6833   */\n    tag_277:\n        /* \"#utility.yul\":6825:6826   */\n      0x00\n        /* \"#utility.yul\":6822:6823   */\n      dup1\n        /* \"#utility.yul\":6815:6827   */\n      revert\n        /* \"#utility.yul\":6839:7019   */\n    tag_278:\n        /* \"#utility.yul\":6887:6964   */\n      0x4e487b7100000000000000000000000000000000000000000000000000000000\n        /* \"#utility.yul\":6884:6885   */\n      0x00\n        /* \"#utility.yul\":6877:6965   */\n      mstore\n        /* \"#utility.yul\":6984:6988   */\n      0x41\n        /* \"#utility.yul\":6981:6982   */\n      0x04\n        /* \"#utility.yul\":6974:6989   */\n      mstore\n        /* \"#utility.yul\":7008:7012   */\n      0x24\n        /* \"#utility.yul\":7005:7006   */\n      0x00\n        /* \"#utility.yul\":6998:7013   */\n      revert\n        /* \"#utility.yul\":7025:7306   */\n    tag_279:\n        /* \"#utility.yul\":7108:7135   */\n      tag_383\n        /* \"#utility.yul\":7130:7134   */\n      dup3\n        /* \"#utility.yul\":7108:7135   */\n      tag_257\n      jump\t// in\n    tag_383:\n        /* \"#utility.yul\":7100:7106   */\n      dup2\n        /* \"#utility.yul\":7096:7136   */\n      add\n        /* \"#utility.yul\":7238:7244   */\n      dup2\n        /* \"#utility.yul\":7226:7236   */\n      dup2\n        /* \"#utility.yul\":7223:7245   */\n      lt\n        /* \"#utility.yul\":7202:7220   */\n      0xffffffffffffffff\n        /* \"#utility.yul\":7190:7200   */\n      dup3\n        /* \"#utility.yul\":7187:7221   */\n      gt\n        /* \"#utility.yul\":7184:7246   */\n      or\n        /* \"#utility.yul\":7181:7269   */\n      iszero\n      tag_384\n      jumpi\n        /* \"#utility.yul\":7249:7267   */\n      tag_385\n      tag_278\n      jump\t// in\n    tag_385:\n        /* \"#utility.yul\":7181:7269   */\n    tag_384:\n        /* \"#utility.yul\":7289:7299   */\n      dup1\n        /* \"#utility.yul\":7285:7287   */\n      0x40\n        /* \"#utility.yul\":7278:7300   */\n      mstore\n        /* \"#utility.yul\":7068:7306   */\n      pop\n        /* \"#utility.yul\":7025:7306   */\n      pop\n      pop\n      jump\t// out\n        /* \"#utility.yul\":7312:7441   */\n    tag_280:\n        /* \"#utility.yul\":7346:7352   */\n      0x00\n        /* \"#utility.yul\":7373:7393   */\n      tag_387\n      tag_259\n      jump\t// in\n    tag_387:\n        /* \"#utility.yul\":7363:7393   */\n      swap1\n      pop\n        /* \"#utility.yul\":7402:7435   */\n      tag_388\n        /* \"#utility.yul\":7430:7434   */\n      dup3\n        /* \"#utility.yul\":7422:7428   */\n      dup3\n        /* \"#utility.yul\":7402:7435   */\n      tag_279\n      jump\t// in\n    tag_388:\n        /* \"#utility.yul\":7312:7441   */\n      swap2\n      swap1\n      pop\n      jump\t// out\n        /* \"#utility.yul\":7447:7755   */\n    tag_281:\n        /* \"#utility.yul\":7509:7513   */\n      0x00\n        /* \"#utility.yul\":7599:7617   */\n      0xffffffffffffffff\n        /* \"#utility.yul\":7591:7597   */\n      dup3\n        /* \"#utility.yul\":7588:7618   */\n      gt\n        /* \"#utility.yul\":7585:7641   */\n      iszero\n      tag_390\n      jumpi\n        /* \"#utility.yul\":7621:7639   */\n      tag_391\n      tag_278\n      jump\t// in\n    tag_391:\n        /* \"#utility.yul\":7585:7641   */\n    tag_390:\n        /* \"#utility.yul\":7659:7688   */\n      tag_392\n        /* \"#utility.yul\":7681:7687   */\n      dup3\n        /* \"#utility.yul\":7659:7688   */\n      tag_257\n      jump\t// in\n    tag_392:\n        /* \"#utility.yul\":7651:7688   */\n      swap1\n      pop\n        /* \"#utility.yul\":7743:7747   */\n      0x20\n        /* \"#utility.yul\":7737:7741   */\n      dup2\n        /* \"#utility.yul\":7733:7748   */\n      add\n        /* \"#utility.yul\":7725:7748   */\n      swap1\n      pop\n        /* \"#utility.yul\":7447:7755   */\n      swap2\n      swap1\n      pop\n      jump\t// out\n        /* \"#utility.yul\":7761:7907   */\n    tag_282:\n        /* \"#utility.yul\":7858:7864   */\n      dup3\n        /* \"#utility.yul\":7853:7856   */\n      dup2\n        /* \"#utility.yul\":7848:7851   */\n      dup4\n        /* \"#utility.yul\":7835:7865   */\n      calldatacopy\n        /* \"#utility.yul\":7899:7900   */\n      0x00\n        /* \"#utility.yul\":7890:7896   */\n      dup4\n        /* \"#utility.yul\":7885:7888   */\n      dup4\n        /* \"#utility.yul\":7881:7897   */\n      add\n        /* \"#utility.yul\":7874:7901   */\n      mstore\n        /* \"#utility.yul\":7761:7907   */\n      pop\n      pop\n      pop\n      jump\t// out\n        /* \"#utility.yul\":7913:8338   */\n    tag_283:\n        /* \"#utility.yul\":7991:7996   */\n      0x00\n        /* \"#utility.yul\":8016:8082   */\n      tag_395\n        /* \"#utility.yul\":8032:8081   */\n      tag_396\n        /* \"#utility.yul\":8074:8080   */\n      dup5\n        /* \"#utility.yul\":8032:8081   */\n      tag_281\n      jump\t// in\n    tag_396:\n        /* \"#utility.yul\":8016:8082   */\n      tag_280\n      jump\t// in\n    tag_395:\n        /* \"#utility.yul\":8007:8082   */\n      swap1\n      pop\n        /* \"#utility.yul\":8105:8111   */\n      dup3\n        /* \"#utility.yul\":8098:8103   */\n      dup2\n        /* \"#utility.yul\":8091:8112   */\n      mstore\n        /* \"#utility.yul\":8143:8147   */\n      0x20\n        /* \"#utility.yul\":8136:8141   */\n      dup2\n        /* \"#utility.yul\":8132:8148   */\n      add\n        /* \"#utility.yul\":8181:8184   */\n      dup5\n        /* \"#utility.yul\":8172:8178   */\n      dup5\n        /* \"#utility.yul\":8167:8170   */\n      dup5\n        /* \"#utility.yul\":8163:8179   */\n      add\n        /* \"#utility.yul\":8160:8185   */\n      gt\n        /* \"#utility.yul\":8157:8269   */\n      iszero\n      tag_397\n      jumpi\n        /* \"#utility.yul\":8188:8267   */\n      tag_398\n      tag_277\n      jump\t// in\n    tag_398:\n        /* \"#utility.yul\":8157:8269   */\n    tag_397:\n        /* \"#utility.yul\":8278:8332   */\n      tag_399\n        /* \"#utility.yul\":8325:8331   */\n      dup5\n        /* \"#utility.yul\":8320:8323   */\n      dup3\n        /* \"#utility.yul\":8315:8318   */\n      dup6\n        /* \"#utility.yul\":8278:8332   */\n      tag_282\n      jump\t// in\n    tag_399:\n        /* \"#utility.yul\":7997:8338   */\n      pop\n        /* \"#utility.yul\":7913:8338   */\n      swap4\n      swap3\n      pop\n      pop\n      pop\n      jump\t// out\n        /* \"#utility.yul\":8358:8698   */\n    tag_284:\n        /* \"#utility.yul\":8414:8419   */\n      0x00\n        /* \"#utility.yul\":8463:8466   */\n      dup3\n        /* \"#utility.yul\":8456:8460   */\n      0x1f\n        /* \"#utility.yul\":8448:8454   */\n      dup4\n        /* \"#utility.yul\":8444:8461   */\n      add\n        /* \"#utility.yul\":8440:8467   */\n      slt\n        /* \"#utility.yul\":8430:8552   */\n      tag_401\n      jumpi\n        /* \"#utility.yul\":8471:8550   */\n      tag_402\n      tag_276\n      jump\t// in\n    tag_402:\n        /* \"#utility.yul\":8430:8552   */\n    tag_401:\n        /* \"#utility.yul\":8588:8594   */\n      dup2\n        /* \"#utility.yul\":8575:8595   */\n      calldataload\n        /* \"#utility.yul\":8613:8692   */\n      tag_403\n        /* \"#utility.yul\":8688:8691   */\n      dup5\n        /* \"#utility.yul\":8680:8686   */\n      dup3\n        /* \"#utility.yul\":8673:8677   */\n      0x20\n        /* \"#utility.yul\":8665:8671   */\n      dup7\n        /* \"#utility.yul\":8661:8678   */\n      add\n        /* \"#utility.yul\":8613:8692   */\n      tag_283\n      jump\t// in\n    tag_403:\n        /* \"#utility.yul\":8604:8692   */\n      swap2\n      pop\n        /* \"#utility.yul\":8420:8698   */\n      pop\n        /* \"#utility.yul\":8358:8698   */\n      swap3\n      swap2\n      pop\n      pop\n      jump\t// out\n        /* \"#utility.yul\":8704:9213   */\n    tag_109:\n        /* \"#utility.yul\":8773:8779   */\n      0x00\n        /* \"#utility.yul\":8822:8824   */\n      0x20\n        /* \"#utility.yul\":8810:8819   */\n      dup3\n        /* \"#utility.yul\":8801:8808   */\n      dup5\n        /* \"#utility.yul\":8797:8820   */\n      sub\n        /* \"#utility.yul\":8793:8825   */\n      slt\n        /* \"#utility.yul\":8790:8909   */\n      iszero\n      tag_405\n      jumpi\n        /* \"#utility.yul\":8828:8907   */\n      tag_406\n      tag_260\n      jump\t// in\n    tag_406:\n        /* \"#utility.yul\":8790:8909   */\n    tag_405:\n        /* \"#utility.yul\":8976:8977   */\n      0x00\n        /* \"#utility.yul\":8965:8974   */\n      dup3\n        /* \"#utility.yul\":8961:8978   */\n      add\n        /* \"#utility.yul\":8948:8979   */\n      calldataload\n        /* \"#utility.yul\":9006:9024   */\n      0xffffffffffffffff\n        /* \"#utility.yul\":8998:9004   */\n      dup2\n        /* \"#utility.yul\":8995:9025   */\n      gt\n        /* \"#utility.yul\":8992:9109   */\n      iszero\n      tag_407\n      jumpi\n        /* \"#utility.yul\":9028:9107   */\n      tag_408\n      tag_261\n      jump\t// in\n    tag_408:\n        /* \"#utility.yul\":8992:9109   */\n    tag_407:\n        /* \"#utility.yul\":9133:9196   */\n      tag_409\n        /* \"#utility.yul\":9188:9195   */\n      dup5\n        /* \"#utility.yul\":9179:9185   */\n      dup3\n        /* \"#utility.yul\":9168:9177   */\n      dup6\n        /* \"#utility.yul\":9164:9186   */\n      add\n        /* \"#utility.yul\":9133:9196   */\n      tag_284\n      jump\t// in\n    tag_409:\n        /* \"#utility.yul\":9123:9196   */\n      swap2\n      pop\n        /* \"#utility.yul\":8919:9206   */\n      pop\n        /* \"#utility.yul\":8704:9213   */\n      swap3\n      swap2\n      pop\n      pop\n      jump\t// out\n        /* \"#utility.yul\":9219:9399   */\n    tag_285:\n        /* \"#utility.yul\":9267:9344   */\n      0x4e487b7100000000000000000000000000000000000000000000000000000000\n        /* \"#utility.yul\":9264:9265   */\n      0x00\n        /* \"#utility.yul\":9257:9345   */\n      mstore\n        /* \"#utility.yul\":9364:9368   */\n      0x22\n        /* \"#utility.yul\":9361:9362   */\n      0x04\n        /* \"#utility.yul\":9354:9369   */\n      mstore\n        /* \"#utility.yul\":9388:9392   */\n      0x24\n        /* \"#utility.yul\":9385:9386   */\n      0x00\n        /* \"#utility.yul\":9378:9393   */\n      revert\n        /* \"#utility.yul\":9405:9725   */\n    tag_115:\n        /* \"#utility.yul\":9449:9455   */\n      0x00\n        /* \"#utility.yul\":9486:9487   */\n      0x02\n        /* \"#utility.yul\":9480:9484   */\n      dup3\n        /* \"#utility.yul\":9476:9488   */\n      div\n        /* \"#utility.yul\":9466:9488   */\n      swap1\n      pop\n        /* \"#utility.yul\":9533:9534   */\n      0x01\n        /* \"#utility.yul\":9527:9531   */\n      dup3\n        /* \"#utility.yul\":9523:9535   */\n      and\n        /* \"#utility.yul\":9554:9572   */\n      dup1\n        /* \"#utility.yul\":9544:9625   */\n      tag_412\n      jumpi\n        /* \"#utility.yul\":9610:9614   */\n      0x7f\n        /* \"#utility.yul\":9602:9608   */\n      dup3\n        /* \"#utility.yul\":9598:9615   */\n      and\n        /* \"#utility.yul\":9588:9615   */\n      swap2\n      pop\n        /* \"#utility.yul\":9544:9625   */\n    tag_412:\n        /* \"#utility.yul\":9672:9674   */\n      0x20\n        /* \"#utility.yul\":9664:9670   */\n      dup3\n        /* \"#utility.yul\":9661:9675   */\n      lt\n        /* \"#utility.yul\":9641:9659   */\n      dup2\n        /* \"#utility.yul\":9638:9676   */\n      sub\n        /* \"#utility.yul\":9635:9719   */\n      tag_413\n      jumpi\n        /* \"#utility.yul\":9691:9709   */\n      tag_414\n      tag_285\n      jump\t// in\n    tag_414:\n        /* \"#utility.yul\":9635:9719   */\n    tag_413:\n        /* \"#utility.yul\":9456:9725   */\n      pop\n        /* \"#utility.yul\":9405:9725   */\n      swap2\n      swap1\n      pop\n      jump\t// out\n        /* \"#utility.yul\":9731:9893   */\n    tag_286:\n        /* \"#utility.yul\":9871:9885   */\n      0x7a65726f20616464726573730000000000000000000000000000000000000000\n        /* \"#utility.yul\":9867:9868   */\n      0x00\n        /* \"#utility.yul\":9859:9865   */\n      dup3\n        /* \"#utility.yul\":9855:9869   */\n      add\n        /* \"#utility.yul\":9848:9886   */\n      mstore\n        /* \"#utility.yul\":9731:9893   */\n      pop\n      jump\t// out\n        /* \"#utility.yul\":9899:10265   */\n    tag_287:\n        /* \"#utility.yul\":10041:10044   */\n      0x00\n        /* \"#utility.yul\":10062:10129   */\n      tag_417\n        /* \"#utility.yul\":10126:10128   */\n      0x0c\n        /* \"#utility.yul\":10121:10124   */\n      dup4\n        /* \"#utility.yul\":10062:10129   */\n      tag_255\n      jump\t// in\n    tag_417:\n        /* \"#utility.yul\":10055:10129   */\n      swap2\n      pop\n        /* \"#utility.yul\":10138:10231   */\n      tag_418\n        /* \"#utility.yul\":10227:10230   */\n      dup3\n        /* \"#utility.yul\":10138:10231   */\n      tag_286\n      jump\t// in\n    tag_418:\n        /* \"#utility.yul\":10256:10258   */\n      0x20\n        /* \"#utility.yul\":10251:10254   */\n      dup3\n        /* \"#utility.yul\":10247:10259   */\n      add\n        /* \"#utility.yul\":10240:10259   */\n      swap1\n      pop\n        /* \"#utility.yul\":9899:10265   */\n      swap2\n      swap1\n      pop\n      jump\t// out\n        /* \"#utility.yul\":10271:10690   */\n    tag_124:\n        /* \"#utility.yul\":10437:10441   */\n      0x00\n        /* \"#utility.yul\":10475:10477   */\n      0x20\n        /* \"#utility.yul\":10464:10473   */\n      dup3\n        /* \"#utility.yul\":10460:10478   */\n      add\n        /* \"#utility.yul\":10452:10478   */\n      swap1\n      pop\n        /* \"#utility.yul\":10524:10533   */\n      dup2\n        /* \"#utility.yul\":10518:10522   */\n      dup2\n        /* \"#utility.yul\":10514:10534   */\n      sub\n        /* \"#utility.yul\":10510:10511   */\n      0x00\n        /* \"#utility.yul\":10499:10508   */\n      dup4\n        /* \"#utility.yul\":10495:10512   */\n      add\n        /* \"#utility.yul\":10488:10535   */\n      mstore\n        /* \"#utility.yul\":10552:10683   */\n      tag_420\n        /* \"#utility.yul\":10678:10682   */\n      dup2\n        /* \"#utility.yul\":10552:10683   */\n      tag_287\n      jump\t// in\n    tag_420:\n        /* \"#utility.yul\":10544:10683   */\n      swap1\n      pop\n        /* \"#utility.yul\":10271:10690   */\n      swap2\n      swap1\n      pop\n      jump\t// out\n        /* \"#utility.yul\":10696:10876   */\n    tag_288:\n        /* \"#utility.yul\":10744:10821   */\n      0x4e487b7100000000000000000000000000000000000000000000000000000000\n        /* \"#utility.yul\":10741:10742   */\n      0x00\n        /* \"#utility.yul\":10734:10822   */\n      mstore\n        /* \"#utility.yul\":10841:10845   */\n      0x11\n        /* \"#utility.yul\":10838:10839   */\n      0x04\n        /* \"#utility.yul\":10831:10846   */\n      mstore\n        /* \"#utility.yul\":10865:10869   */\n      0x24\n        /* \"#utility.yul\":10862:10863   */\n      0x00\n        /* \"#utility.yul\":10855:10870   */\n      revert\n        /* \"#utility.yul\":10882:11076   */\n    tag_139:\n        /* \"#utility.yul\":10922:10926   */\n      0x00\n        /* \"#utility.yul\":10942:10962   */\n      tag_423\n        /* \"#utility.yul\":10960:10961   */\n      dup3\n        /* \"#utility.yul\":10942:10962   */\n      tag_266\n      jump\t// in\n    tag_423:\n        /* \"#utility.yul\":10937:10962   */\n      swap2\n      pop\n        /* \"#utility.yul\":10976:10996   */\n      tag_424\n        /* \"#utility.yul\":10994:10995   */\n      dup4\n        /* \"#utility.yul\":10976:10996   */\n      tag_266\n      jump\t// in\n    tag_424:\n        /* \"#utility.yul\":10971:10996   */\n      swap3\n      pop\n        /* \"#utility.yul\":11020:11021   */\n      dup3\n        /* \"#utility.yul\":11017:11018   */\n      dup3\n        /* \"#utility.yul\":11013:11022   */\n      sub\n        /* \"#utility.yul\":11005:11022   */\n      swap1\n      pop\n        /* \"#utility.yul\":11044:11045   */\n      dup2\n        /* \"#utility.yul\":11038:11042   */\n      dup2\n        /* \"#utility.yul\":11035:11046   */\n      gt\n        /* \"#utility.yul\":11032:11069   */\n      iszero\n      tag_425\n      jumpi\n        /* \"#utility.yul\":11049:11067   */\n      tag_426\n      tag_288\n      jump\t// in\n    tag_426:\n        /* \"#utility.yul\":11032:11069   */\n    tag_425:\n        /* \"#utility.yul\":10882:11076   */\n      swap3\n      swap2\n      pop\n      pop\n      jump\t// out\n        /* \"#utility.yul\":11082:11273   */\n    tag_150:\n        /* \"#utility.yul\":11122:11125   */\n      0x00\n        /* \"#utility.yul\":11141:11161   */\n      tag_428\n        /* \"#utility.yul\":11159:11160   */\n      dup3\n        /* \"#utility.yul\":11141:11161   */\n      tag_266\n      jump\t// in\n    tag_428:\n        /* \"#utility.yul\":11136:11161   */\n      swap2\n      pop\n        /* \"#utility.yul\":11175:11195   */\n      tag_429\n        /* \"#utility.yul\":11193:11194   */\n      dup4\n        /* \"#utility.yul\":11175:11195   */\n      tag_266\n      jump\t// in\n    tag_429:\n        /* \"#utility.yul\":11170:11195   */\n      swap3\n      pop\n        /* \"#utility.yul\":11218:11219   */\n      dup3\n        /* \"#utility.yul\":11215:11216   */\n      dup3\n        /* \"#utility.yul\":11211:11220   */\n      add\n        /* \"#utility.yul\":11204:11220   */\n      swap1\n      pop\n        /* \"#utility.yul\":11239:11242   */\n      dup1\n        /* \"#utility.yul\":11236:11237   */\n      dup3\n        /* \"#utility.yul\":11233:11243   */\n      gt\n        /* \"#utility.yul\":11230:11266   */\n      iszero\n      tag_430\n      jumpi\n        /* \"#utility.yul\":11246:11264   */\n      tag_431\n      tag_288\n      jump\t// in\n    tag_431:\n        /* \"#utility.yul\":11230:11266   */\n    tag_430:\n        /* \"#utility.yul\":11082:11273   */\n      swap3\n      swap2\n      pop\n      pop\n      jump\t// out\n        /* \"#utility.yul\":11279:11506   */\n    tag_289:\n        /* \"#utility.yul\":11419:11453   */\n      0x41757468656e74696361746f723a2061646d696e207065726d697373696f6e20\n        /* \"#utility.yul\":11415:11416   */\n      0x00\n        /* \"#utility.yul\":11407:11413   */\n      dup3\n        /* \"#utility.yul\":11403:11417   */\n      add\n        /* \"#utility.yul\":11396:11454   */\n      mstore\n        /* \"#utility.yul\":11488:11498   */\n      0x7265717569726564000000000000000000000000000000000000000000000000\n        /* \"#utility.yul\":11483:11485   */\n      0x20\n        /* \"#utility.yul\":11475:11481   */\n      dup3\n        /* \"#utility.yul\":11471:11486   */\n      add\n        /* \"#utility.yul\":11464:11499   */\n      mstore\n        /* \"#utility.yul\":11279:11506   */\n      pop\n      jump\t// out\n        /* \"#utility.yul\":11512:11878   */\n    tag_290:\n        /* \"#utility.yul\":11654:11657   */\n      0x00\n        /* \"#utility.yul\":11675:11742   */\n      tag_434\n        /* \"#utility.yul\":11739:11741   */\n      0x28\n        /* \"#utility.yul\":11734:11737   */\n      dup4\n        /* \"#utility.yul\":11675:11742   */\n      tag_255\n      jump\t// in\n    tag_434:\n        /* \"#utility.yul\":11668:11742   */\n      swap2\n      pop\n        /* \"#utility.yul\":11751:11844   */\n      tag_435\n        /* \"#utility.yul\":11840:11843   */\n      dup3\n        /* \"#utility.yul\":11751:11844   */\n      tag_289\n      jump\t// in\n    tag_435:\n        /* \"#utility.yul\":11869:11871   */\n      0x40\n        /* \"#utility.yul\":11864:11867   */\n      dup3\n        /* \"#utility.yul\":11860:11872   */\n      add\n        /* \"#utility.yul\":11853:11872   */\n      swap1\n      pop\n        /* \"#utility.yul\":11512:11878   */\n      swap2\n      swap1\n      pop\n      jump\t// out\n        /* \"#utility.yul\":11884:12303   */\n    tag_158:\n        /* \"#utility.yul\":12050:12054   */\n      0x00\n        /* \"#utility.yul\":12088:12090   */\n      0x20\n        /* \"#utility.yul\":12077:12086   */\n      dup3\n        /* \"#utility.yul\":12073:12091   */\n      add\n        /* \"#utility.yul\":12065:12091   */\n      swap1\n      pop\n        /* \"#utility.yul\":12137:12146   */\n      dup2\n        /* \"#utility.yul\":12131:12135   */\n      dup2\n        /* \"#utility.yul\":12127:12147   */\n      sub\n        /* \"#utility.yul\":12123:12124   */\n      0x00\n        /* \"#utility.yul\":12112:12121   */\n      dup4\n        /* \"#utility.yul\":12108:12125   */\n      add\n        /* \"#utility.yul\":12101:12148   */\n      mstore\n        /* \"#utility.yul\":12165:12296   */\n      tag_437\n        /* \"#utility.yul\":12291:12295   */\n      dup2\n        /* \"#utility.yul\":12165:12296   */\n      tag_290\n      jump\t// in\n    tag_437:\n        /* \"#utility.yul\":12157:12296   */\n      swap1\n      pop\n        /* \"#utility.yul\":11884:12303   */\n      swap2\n      swap1\n      pop\n      jump\t// out\n        /* \"#utility.yul\":12309:12534   */\n    tag_291:\n        /* \"#utility.yul\":12449:12483   */\n      0x41757468656e74696361746f723a20646576207065726d697373696f6e207265\n        /* \"#utility.yul\":12445:12446   */\n      0x00\n        /* \"#utility.yul\":12437:12443   */\n      dup3\n        /* \"#utility.yul\":12433:12447   */\n      add\n        /* \"#utility.yul\":12426:12484   */\n      mstore\n        /* \"#utility.yul\":12518:12526   */\n      0x7175697265640000000000000000000000000000000000000000000000000000\n        /* \"#utility.yul\":12513:12515   */\n      0x20\n        /* \"#utility.yul\":12505:12511   */\n      dup3\n        /* \"#utility.yul\":12501:12516   */\n      add\n        /* \"#utility.yul\":12494:12527   */\n      mstore\n        /* \"#utility.yul\":12309:12534   */\n      pop\n      jump\t// out\n        /* \"#utility.yul\":12540:12906   */\n    tag_292:\n        /* \"#utility.yul\":12682:12685   */\n      0x00\n        /* \"#utility.yul\":12703:12770   */\n      tag_440\n        /* \"#utility.yul\":12767:12769   */\n      0x26\n        /* \"#utility.yul\":12762:12765   */\n      dup4\n        /* \"#utility.yul\":12703:12770   */\n      tag_255\n      jump\t// in\n    tag_440:\n        /* \"#utility.yul\":12696:12770   */\n      swap2\n      pop\n        /* \"#utility.yul\":12779:12872   */\n      tag_441\n        /* \"#utility.yul\":12868:12871   */\n      dup3\n        /* \"#utility.yul\":12779:12872   */\n      tag_291\n      jump\t// in\n    tag_441:\n        /* \"#utility.yul\":12897:12899   */\n      0x40\n        /* \"#utility.yul\":12892:12895   */\n      dup3\n        /* \"#utility.yul\":12888:12900   */\n      add\n        /* \"#utility.yul\":12881:12900   */\n      swap1\n      pop\n        /* \"#utility.yul\":12540:12906   */\n      swap2\n      swap1\n      pop\n      jump\t// out\n        /* \"#utility.yul\":12912:13331   */\n    tag_162:\n        /* \"#utility.yul\":13078:13082   */\n      0x00\n        /* \"#utility.yul\":13116:13118   */\n      0x20\n        /* \"#utility.yul\":13105:13114   */\n      dup3\n        /* \"#utility.yul\":13101:13119   */\n      add\n        /* \"#utility.yul\":13093:13119   */\n      swap1\n      pop\n        /* \"#utility.yul\":13165:13174   */\n      dup2\n        /* \"#utility.yul\":13159:13163   */\n      dup2\n        /* \"#utility.yul\":13155:13175   */\n      sub\n        /* \"#utility.yul\":13151:13152   */\n      0x00\n        /* \"#utility.yul\":13140:13149   */\n      dup4\n        /* \"#utility.yul\":13136:13153   */\n      add\n        /* \"#utility.yul\":13129:13176   */\n      mstore\n        /* \"#utility.yul\":13193:13324   */\n      tag_443\n        /* \"#utility.yul\":13319:13323   */\n      dup2\n        /* \"#utility.yul\":13193:13324   */\n      tag_292\n      jump\t// in\n    tag_443:\n        /* \"#utility.yul\":13185:13324   */\n      swap1\n      pop\n        /* \"#utility.yul\":12912:13331   */\n      swap2\n      swap1\n      pop\n      jump\t// out\n        /* \"#utility.yul\":13337:13567   */\n    tag_293:\n        /* \"#utility.yul\":13477:13511   */\n      0x41757468656e74696361746f723a206f70657261746f72207065726d69737369\n        /* \"#utility.yul\":13473:13474   */\n      0x00\n        /* \"#utility.yul\":13465:13471   */\n      dup3\n        /* \"#utility.yul\":13461:13475   */\n      add\n        /* \"#utility.yul\":13454:13512   */\n      mstore\n        /* \"#utility.yul\":13546:13559   */\n      0x6f6e207265717569726564000000000000000000000000000000000000000000\n        /* \"#utility.yul\":13541:13543   */\n      0x20\n        /* \"#utility.yul\":13533:13539   */\n      dup3\n        /* \"#utility.yul\":13529:13544   */\n      add\n        /* \"#utility.yul\":13522:13560   */\n      mstore\n        /* \"#utility.yul\":13337:13567   */\n      pop\n      jump\t// out\n        /* \"#utility.yul\":13573:13939   */\n    tag_294:\n        /* \"#utility.yul\":13715:13718   */\n      0x00\n        /* \"#utility.yul\":13736:13803   */\n      tag_446\n        /* \"#utility.yul\":13800:13802   */\n      0x2b\n        /* \"#utility.yul\":13795:13798   */\n      dup4\n        /* \"#utility.yul\":13736:13803   */\n      tag_255\n      jump\t// in\n    tag_446:\n        /* \"#utility.yul\":13729:13803   */\n      swap2\n      pop\n        /* \"#utility.yul\":13812:13905   */\n      tag_447\n        /* \"#utility.yul\":13901:13904   */\n      dup3\n        /* \"#utility.yul\":13812:13905   */\n      tag_293\n      jump\t// in\n    tag_447:\n        /* \"#utility.yul\":13930:13932   */\n      0x40\n        /* \"#utility.yul\":13925:13928   */\n      dup3\n        /* \"#utility.yul\":13921:13933   */\n      add\n        /* \"#utility.yul\":13914:13933   */\n      swap1\n      pop\n        /* \"#utility.yul\":13573:13939   */\n      swap2\n      swap1\n      pop\n      jump\t// out\n        /* \"#utility.yul\":13945:14364   */\n    tag_181:\n        /* \"#utility.yul\":14111:14115   */\n      0x00\n        /* \"#utility.yul\":14149:14151   */\n      0x20\n        /* \"#utility.yul\":14138:14147   */\n      dup3\n        /* \"#utility.yul\":14134:14152   */\n      add\n        /* \"#utility.yul\":14126:14152   */\n      swap1\n      pop\n        /* \"#utility.yul\":14198:14207   */\n      dup2\n        /* \"#utility.yul\":14192:14196   */\n      dup2\n        /* \"#utility.yul\":14188:14208   */\n      sub\n        /* \"#utility.yul\":14184:14185   */\n      0x00\n        /* \"#utility.yul\":14173:14182   */\n      dup4\n        /* \"#utility.yul\":14169:14186   */\n      add\n        /* \"#utility.yul\":14162:14209   */\n      mstore\n        /* \"#utility.yul\":14226:14357   */\n      tag_449\n        /* \"#utility.yul\":14352:14356   */\n      dup2\n        /* \"#utility.yul\":14226:14357   */\n      tag_294\n      jump\t// in\n    tag_449:\n        /* \"#utility.yul\":14218:14357   */\n      swap1\n      pop\n        /* \"#utility.yul\":13945:14364   */\n      swap2\n      swap1\n      pop\n      jump\t// out\n        /* \"#utility.yul\":14370:14603   */\n    tag_295:\n        /* \"#utility.yul\":14510:14544   */\n      0x7a65726f2061646472657373207c7c2064656372656173656420616c6c6f7761\n        /* \"#utility.yul\":14506:14507   */\n      0x00\n        /* \"#utility.yul\":14498:14504   */\n      dup3\n        /* \"#utility.yul\":14494:14508   */\n      add\n        /* \"#utility.yul\":14487:14545   */\n      mstore\n        /* \"#utility.yul\":14579:14595   */\n      0x6e63652062656c6f77207a65726f000000000000000000000000000000000000\n        /* \"#utility.yul\":14574:14576   */\n      0x20\n        /* \"#utility.yul\":14566:14572   */\n      dup3\n        /* \"#utility.yul\":14562:14577   */\n      add\n        /* \"#utility.yul\":14555:14596   */\n      mstore\n        /* \"#utility.yul\":14370:14603   */\n      pop\n      jump\t// out\n        /* \"#utility.yul\":14609:14975   */\n    tag_296:\n        /* \"#utility.yul\":14751:14754   */\n      0x00\n        /* \"#utility.yul\":14772:14839   */\n      tag_452\n        /* \"#utility.yul\":14836:14838   */\n      0x2e\n        /* \"#utility.yul\":14831:14834   */\n      dup4\n        /* \"#utility.yul\":14772:14839   */\n      tag_255\n      jump\t// in\n    tag_452:\n        /* \"#utility.yul\":14765:14839   */\n      swap2\n      pop\n        /* \"#utility.yul\":14848:14941   */\n      tag_453\n        /* \"#utility.yul\":14937:14940   */\n      dup3\n        /* \"#utility.yul\":14848:14941   */\n      tag_295\n      jump\t// in\n    tag_453:\n        /* \"#utility.yul\":14966:14968   */\n      0x40\n        /* \"#utility.yul\":14961:14964   */\n      dup3\n        /* \"#utility.yul\":14957:14969   */\n      add\n        /* \"#utility.yul\":14950:14969   */\n      swap1\n      pop\n        /* \"#utility.yul\":14609:14975   */\n      swap2\n      swap1\n      pop\n      jump\t// out\n        /* \"#utility.yul\":14981:15400   */\n    tag_189:\n        /* \"#utility.yul\":15147:15151   */\n      0x00\n        /* \"#utility.yul\":15185:15187   */\n      0x20\n        /* \"#utility.yul\":15174:15183   */\n      dup3\n        /* \"#utility.yul\":15170:15188   */\n      add\n        /* \"#utility.yul\":15162:15188   */\n      swap1\n      pop\n        /* \"#utility.yul\":15234:15243   */\n      dup2\n        /* \"#utility.yul\":15228:15232   */\n      dup2\n        /* \"#utility.yul\":15224:15244   */\n      sub\n        /* \"#utility.yul\":15220:15221   */\n      0x00\n        /* \"#utility.yul\":15209:15218   */\n      dup4\n        /* \"#utility.yul\":15205:15222   */\n      add\n        /* \"#utility.yul\":15198:15245   */\n      mstore\n        /* \"#utility.yul\":15262:15393   */\n      tag_455\n        /* \"#utility.yul\":15388:15392   */\n      dup2\n        /* \"#utility.yul\":15262:15393   */\n      tag_296\n      jump\t// in\n    tag_455:\n        /* \"#utility.yul\":15254:15393   */\n      swap1\n      pop\n        /* \"#utility.yul\":14981:15400   */\n      swap2\n      swap1\n      pop\n      jump\t// out\n        /* \"#utility.yul\":15406:15554   */\n    tag_297:\n        /* \"#utility.yul\":15508:15519   */\n      0x00\n        /* \"#utility.yul\":15545:15548   */\n      dup2\n        /* \"#utility.yul\":15530:15548   */\n      swap1\n      pop\n        /* \"#utility.yul\":15406:15554   */\n      swap3\n      swap2\n      pop\n      pop\n      jump\t// out\n        /* \"#utility.yul\":15560:15950   */\n    tag_298:\n        /* \"#utility.yul\":15666:15669   */\n      0x00\n        /* \"#utility.yul\":15694:15733   */\n      tag_458\n        /* \"#utility.yul\":15727:15732   */\n      dup3\n        /* \"#utility.yul\":15694:15733   */\n      tag_254\n      jump\t// in\n    tag_458:\n        /* \"#utility.yul\":15749:15838   */\n      tag_459\n        /* \"#utility.yul\":15831:15837   */\n      dup2\n        /* \"#utility.yul\":15826:15829   */\n      dup6\n        /* \"#utility.yul\":15749:15838   */\n      tag_297\n      jump\t// in\n    tag_459:\n        /* \"#utility.yul\":15742:15838   */\n      swap4\n      pop\n        /* \"#utility.yul\":15847:15912   */\n      tag_460\n        /* \"#utility.yul\":15905:15911   */\n      dup2\n        /* \"#utility.yul\":15900:15903   */\n      dup6\n        /* \"#utility.yul\":15893:15897   */\n      0x20\n        /* \"#utility.yul\":15886:15891   */\n      dup7\n        /* \"#utility.yul\":15882:15898   */\n      add\n        /* \"#utility.yul\":15847:15912   */\n      tag_256\n      jump\t// in\n    tag_460:\n        /* \"#utility.yul\":15937:15943   */\n      dup1\n        /* \"#utility.yul\":15932:15935   */\n      dup5\n        /* \"#utility.yul\":15928:15944   */\n      add\n        /* \"#utility.yul\":15921:15944   */\n      swap2\n      pop\n        /* \"#utility.yul\":15670:15950   */\n      pop\n        /* \"#utility.yul\":15560:15950   */\n      swap3\n      swap2\n      pop\n      pop\n      jump\t// out\n        /* \"#utility.yul\":15956:16231   */\n    tag_217:\n        /* \"#utility.yul\":16088:16091   */\n      0x00\n        /* \"#utility.yul\":16110:16205   */\n      tag_462\n        /* \"#utility.yul\":16201:16204   */\n      dup3\n        /* \"#utility.yul\":16192:16198   */\n      dup5\n        /* \"#utility.yul\":16110:16205   */\n      tag_298\n      jump\t// in\n    tag_462:\n        /* \"#utility.yul\":16103:16205   */\n      swap2\n      pop\n        /* \"#utility.yul\":16222:16225   */\n      dup2\n        /* \"#utility.yul\":16215:16225   */\n      swap1\n      pop\n        /* \"#utility.yul\":15956:16231   */\n      swap3\n      swap2\n      pop\n      pop\n      jump\t// out\n        /* \"#utility.yul\":16237:16417   */\n    tag_299:\n        /* \"#utility.yul\":16285:16362   */\n      0x4e487b7100000000000000000000000000000000000000000000000000000000\n        /* \"#utility.yul\":16282:16283   */\n      0x00\n        /* \"#utility.yul\":16275:16363   */\n      mstore\n        /* \"#utility.yul\":16382:16386   */\n      0x12\n        /* \"#utility.yul\":16379:16380   */\n      0x04\n        /* \"#utility.yul\":16372:16387   */\n      mstore\n        /* \"#utility.yul\":16406:16410   */\n      0x24\n        /* \"#utility.yul\":16403:16404   */\n      0x00\n        /* \"#utility.yul\":16396:16411   */\n      revert\n        /* \"#utility.yul\":16423:16608   */\n    tag_239:\n        /* \"#utility.yul\":16463:16464   */\n      0x00\n        /* \"#utility.yul\":16480:16500   */\n      tag_465\n        /* \"#utility.yul\":16498:16499   */\n      dup3\n        /* \"#utility.yul\":16480:16500   */\n      tag_266\n      jump\t// in\n    tag_465:\n        /* \"#utility.yul\":16475:16500   */\n      swap2\n      pop\n        /* \"#utility.yul\":16514:16534   */\n      tag_466\n        /* \"#utility.yul\":16532:16533   */\n      dup4\n        /* \"#utility.yul\":16514:16534   */\n      tag_266\n      jump\t// in\n    tag_466:\n        /* \"#utility.yul\":16509:16534   */\n      swap3\n      pop\n        /* \"#utility.yul\":16553:16554   */\n      dup3\n        /* \"#utility.yul\":16543:16578   */\n      tag_467\n      jumpi\n        /* \"#utility.yul\":16558:16576   */\n      tag_468\n      tag_299\n      jump\t// in\n    tag_468:\n        /* \"#utility.yul\":16543:16578   */\n    tag_467:\n        /* \"#utility.yul\":16600:16601   */\n      dup3\n        /* \"#utility.yul\":16597:16598   */\n      dup3\n        /* \"#utility.yul\":16593:16602   */\n      div\n        /* \"#utility.yul\":16588:16602   */\n      swap1\n      pop\n        /* \"#utility.yul\":16423:16608   */\n      swap3\n      swap2\n      pop\n      pop\n      jump\t// out\n        /* \"#utility.yul\":16614:17024   */\n    tag_241:\n        /* \"#utility.yul\":16654:16661   */\n      0x00\n        /* \"#utility.yul\":16677:16697   */\n      tag_470\n        /* \"#utility.yul\":16695:16696   */\n      dup3\n        /* \"#utility.yul\":16677:16697   */\n      tag_266\n      jump\t// in\n    tag_470:\n        /* \"#utility.yul\":16672:16697   */\n      swap2\n      pop\n        /* \"#utility.yul\":16711:16731   */\n      tag_471\n        /* \"#utility.yul\":16729:16730   */\n      dup4\n        /* \"#utility.yul\":16711:16731   */\n      tag_266\n      jump\t// in\n    tag_471:\n        /* \"#utility.yul\":16706:16731   */\n      swap3\n      pop\n        /* \"#utility.yul\":16766:16767   */\n      dup3\n        /* \"#utility.yul\":16763:16764   */\n      dup3\n        /* \"#utility.yul\":16759:16768   */\n      mul\n        /* \"#utility.yul\":16788:16818   */\n      tag_472\n        /* \"#utility.yul\":16806:16817   */\n      dup2\n        /* \"#utility.yul\":16788:16818   */\n      tag_266\n      jump\t// in\n    tag_472:\n        /* \"#utility.yul\":16777:16818   */\n      swap2\n      pop\n        /* \"#utility.yul\":16967:16968   */\n      dup3\n        /* \"#utility.yul\":16958:16965   */\n      dup3\n        /* \"#utility.yul\":16954:16969   */\n      div\n        /* \"#utility.yul\":16951:16952   */\n      dup5\n        /* \"#utility.yul\":16948:16970   */\n      eq\n        /* \"#utility.yul\":16928:16929   */\n      dup4\n        /* \"#utility.yul\":16921:16930   */\n      iszero\n        /* \"#utility.yul\":16901:16984   */\n      or\n        /* \"#utility.yul\":16878:17017   */\n      tag_473\n      jumpi\n        /* \"#utility.yul\":16997:17015   */\n      tag_474\n      tag_288\n      jump\t// in\n    tag_474:\n        /* \"#utility.yul\":16878:17017   */\n    tag_473:\n        /* \"#utility.yul\":16662:17024   */\n      pop\n        /* \"#utility.yul\":16614:17024   */\n      swap3\n      swap2\n      pop\n      pop\n      jump\t// out\n\n    auxdata: 0xa2646970667358221220bdf85a0d4ac569bcfafbe8e989b2ddaffdf383e752264863ddf41690900f7fc464736f6c63430008120033\n}\n",
				"bytecode": {
					"linkReferences": {},
					"object": "608060405262000019620002b960201b62001dbb1760201c565b6000806101000a81548173ffffffffffffffffffffffffffffffffffffffff021916908373ffffffffffffffffffffffffffffffffffffffff1602179055503480156200006557600080fd5b506040518060400160405280600c81526020017f447265616d63617463686572000000000000000000000000000000000000000081525060136000019081620000af91906200067c565b506040518060400160405280600581526020017f445245414d00000000000000000000000000000000000000000000000000000081525060136001019081620000f991906200067c565b506012601360020160006101000a81548160ff021916908360ff1602179055506000601360030181905550601360020160009054906101000a900460ff16600a620001459190620008f3565b630bebc20062000156919062000944565b60136006018190555060008054906101000a900473ffffffffffffffffffffffffffffffffffffffff16601360070160006101000a81548173ffffffffffffffffffffffffffffffffffffffff021916908373ffffffffffffffffffffffffffffffffffffffff16021790555060008054906101000a900473ffffffffffffffffffffffffffffffffffffffff16601360080160006101000a81548173ffffffffffffffffffffffffffffffffffffffff021916908373ffffffffffffffffffffffffffffffffffffffff160217905550600060096002018190555060006009600301819055506001600960050160000181905550620002b3601360080160009054906101000a900473ffffffffffffffffffffffffffffffffffffffff16601360020160009054906101000a900460ff16600a620002969190620008f3565b630bebc200620002a7919062000944565b620002c160201b60201c565b620009f8565b600033905090565b600073ffffffffffffffffffffffffffffffffffffffff168273ffffffffffffffffffffffffffffffffffffffff1614158015620003165750601360060154816013600301546200031391906200098f565b11155b6200032057600080fd5b80601360030160008282546200033791906200098f565b9250508190555080601d60008473ffffffffffffffffffffffffffffffffffffffff1673ffffffffffffffffffffffffffffffffffffffff16815260200190815260200160002060008282546200038f91906200098f565b925050819055508173ffffffffffffffffffffffffffffffffffffffff16600073ffffffffffffffffffffffffffffffffffffffff167fddf252ad1be2c89b69c2b068fc378daa952ba7f163c4a11628f55a4df523b3ef83604051620003f69190620009db565b60405180910390a35050565b600081519050919050565b7f4e487b7100000000000000000000000000000000000000000000000000000000600052604160045260246000fd5b7f4e487b7100000000000000000000000000000000000000000000000000000000600052602260045260246000fd5b600060028204905060018216806200048457607f821691505b6020821081036200049a57620004996200043c565b5b50919050565b60008190508160005260206000209050919050565b60006020601f8301049050919050565b600082821b905092915050565b600060088302620005047fffffffffffffffffffffffffffffffffffffffffffffffffffffffffffffffff82620004c5565b620005108683620004c5565b95508019841693508086168417925050509392505050565b6000819050919050565b6000819050919050565b60006200055d62000557620005518462000528565b62000532565b62000528565b9050919050565b6000819050919050565b62000579836200053c565b62000591620005888262000564565b848454620004d2565b825550505050565b600090565b620005a862000599565b620005b58184846200056e565b505050565b5b81811015620005dd57620005d16000826200059e565b600181019050620005bb565b5050565b601f8211156200062c57620005f681620004a0565b6200060184620004b5565b8101602085101562000611578190505b620006296200062085620004b5565b830182620005ba565b50505b505050565b600082821c905092915050565b6000620006516000198460080262000631565b1980831691505092915050565b60006200066c83836200063e565b9150826002028217905092915050565b620006878262000402565b67ffffffffffffffff811115620006a357620006a26200040d565b5b620006af82546200046b565b620006bc828285620005e1565b600060209050601f831160018114620006f45760008415620006df578287015190505b620006eb85826200065e565b8655506200075b565b601f1984166200070486620004a0565b60005b828110156200072e5784890151825560018201915060208501945060208101905062000707565b868310156200074e57848901516200074a601f8916826200063e565b8355505b6001600288020188555050505b505050505050565b7f4e487b7100000000000000000000000000000000000000000000000000000000600052601160045260246000fd5b60008160011c9050919050565b6000808291508390505b6001851115620007f157808604811115620007c957620007c862000763565b5b6001851615620007d95780820291505b8081029050620007e98562000792565b9450620007a9565b94509492505050565b6000826200080c5760019050620008df565b816200081c5760009050620008df565b8160018114620008355760028114620008405762000876565b6001915050620008df565b60ff84111562000855576200085462000763565b5b8360020a9150848211156200086f576200086e62000763565b5b50620008df565b5060208310610133831016604e8410600b8410161715620008b05782820a905083811115620008aa57620008a962000763565b5b620008df565b620008bf84848460016200079f565b92509050818404811115620008d957620008d862000763565b5b81810290505b9392505050565b600060ff82169050919050565b6000620009008262000528565b91506200090d83620008e6565b92506200093c7fffffffffffffffffffffffffffffffffffffffffffffffffffffffffffffffff8484620007fa565b905092915050565b6000620009518262000528565b91506200095e8362000528565b92508282026200096e8162000528565b9150828204841483151762000988576200098762000763565b5b5092915050565b60006200099c8262000528565b9150620009a98362000528565b9250828201905080821115620009c457620009c362000763565b5b92915050565b620009d58162000528565b82525050565b6000602082019050620009f26000830184620009ca565b92915050565b612bbb8062000a086000396000f3fe608060405234801561001057600080fd5b506004361061012c5760003560e01c806379ec5d3a116100ad578063a9059cbb11610071578063a9059cbb146103b9578063d5abeb01146103e9578063d6cdb5a514610407578063dd62ed3e14610437578063f34e3723146104675761012c565b806379ec5d3a146102db57806395d89b411461030b578063a44e10eb14610329578063a457c2d714610359578063a694fc3a146103895761012c565b8063313ce567116100f4578063313ce567146101fd578063395093511461021b578063426233601461024b5780635a48b3101461027b57806370a08231146102ab5761012c565b806306fdde0314610131578063095ea7b31461014f57806318160ddd1461017f57806323b872dd1461019d5780632e17de78146101cd575b600080fd5b610139610497565b6040516101469190612280565b60405180910390f35b6101696004803603810190610164919061234a565b61052c565b60405161017691906123a5565b60405180910390f35b610187610727565b60405161019491906123cf565b60405180910390f35b6101b760048036038101906101b291906123ea565b610734565b6040516101c491906123a5565b60405180910390f35b6101e760048036038101906101e2919061243d565b610912565b6040516101f491906123a5565b60405180910390f35b610205610b14565b6040516102129190612486565b60405180910390f35b6102356004803603810190610230919061234a565b610b2e565b60405161024291906123a5565b60405180910390f35b610265600480360381019061026091906124a1565b610d91565b60405161027291906123cf565b60405180910390f35b610295600480360381019061029091906124fa565b610dda565b6040516102a291906123a5565b60405180910390f35b6102c560048036038101906102c091906124a1565b610f6d565b6040516102d291906123cf565b60405180910390f35b6102f560048036038101906102f091906124a1565b610fb6565b60405161030291906123cf565b60405180910390f35b610313610fff565b6040516103209190612280565b60405180910390f35b610343600480360381019061033e91906124fa565b611094565b60405161035091906123a5565b60405180910390f35b610373600480360381019061036e919061234a565b6112db565b60405161038091906123a5565b60405180910390f35b6103a3600480360381019061039e919061243d565b611574565b6040516103b091906123a5565b60405180910390f35b6103d360048036038101906103ce919061234a565b611709565b6040516103e091906123a5565b60405180910390f35b6103f1611754565b6040516103fe91906123cf565b60405180910390f35b610421600480360381019061041c91906124fa565b611761565b60405161042e91906123a5565b60405180910390f35b610451600480360381019061044c9190612527565b6119a8565b60405161045e91906123cf565b60405180910390f35b610481600480360381019061047c919061269c565b611a2f565b60405161048e91906123a5565b60405180910390f35b6060601360000180546104a990612714565b80601f01602080910402602001604051908101604052809291908181526020018280546104d590612714565b80156105225780601f106104f757610100808354040283529160200191610522565b820191906000526020600020905b81548152906001019060200180831161050557829003601f168201915b5050505050905090565b60008073ffffffffffffffffffffffffffffffffffffffff1660008054906101000a900473ffffffffffffffffffffffffffffffffffffffff1673ffffffffffffffffffffffffffffffffffffffff16141580156105b75750600073ffffffffffffffffffffffffffffffffffffffff168373ffffffffffffffffffffffffffffffffffffffff1614155b6105f6576040517f08c379a00000000000000000000000000000000000000000000000000000000081526004016105ed90612791565b60405180910390fd5b81602060008060009054906101000a900473ffffffffffffffffffffffffffffffffffffffff1673ffffffffffffffffffffffffffffffffffffffff1673ffffffffffffffffffffffffffffffffffffffff16815260200190815260200160002060008573ffffffffffffffffffffffffffffffffffffffff1673ffffffffffffffffffffffffffffffffffffffff168152602001908152602001600020819055508273ffffffffffffffffffffffffffffffffffffffff1660008054906101000a900473ffffffffffffffffffffffffffffffffffffffff1673ffffffffffffffffffffffffffffffffffffffff167f8c5be1e5ebec7d5bd14f71427d1e84f3dd0314c0f7b2291e5b200ac8c7c3b9258460405161071591906123cf565b60405180910390a36001905092915050565b6000601360030154905090565b60007fffffffffffffffffffffffffffffffffffffffffffffffffffffffffffffffff6107818560008054906101000a900473ffffffffffffffffffffffffffffffffffffffff166119a8565b141580156107b85750816107b58560008054906101000a900473ffffffffffffffffffffffffffffffffffffffff166119a8565b10155b6107c157600080fd5b81602060008673ffffffffffffffffffffffffffffffffffffffff1673ffffffffffffffffffffffffffffffffffffffff16815260200190815260200160002060008060009054906101000a900473ffffffffffffffffffffffffffffffffffffffff1673ffffffffffffffffffffffffffffffffffffffff1673ffffffffffffffffffffffffffffffffffffffff1681526020019081526020016000208190555060008054906101000a900473ffffffffffffffffffffffffffffffffffffffff1673ffffffffffffffffffffffffffffffffffffffff168473ffffffffffffffffffffffffffffffffffffffff167f8c5be1e5ebec7d5bd14f71427d1e84f3dd0314c0f7b2291e5b200ac8c7c3b925846040516108e091906123cf565b60405180910390a3600080610902868686600960020154600960030154611dc3565b9150915081925050509392505050565b600081601e60008060009054906101000a900473ffffffffffffffffffffffffffffffffffffffff1673ffffffffffffffffffffffffffffffffffffffff1673ffffffffffffffffffffffffffffffffffffffff16815260200190815260200160002054101561098157600080fd5b6000806109e0601360080160009054906101000a900473ffffffffffffffffffffffffffffffffffffffff1660008054906101000a900473ffffffffffffffffffffffffffffffffffffffff1686600960020154600960030154611dc3565b9150915083601e60008060009054906101000a900473ffffffffffffffffffffffffffffffffffffffff1673ffffffffffffffffffffffffffffffffffffffff1673ffffffffffffffffffffffffffffffffffffffff1681526020019081526020016000206000828254610a5491906127e0565b9250508190555083601f60008060009054906101000a900473ffffffffffffffffffffffffffffffffffffffff1673ffffffffffffffffffffffffffffffffffffffff1673ffffffffffffffffffffffffffffffffffffffff1681526020019081526020016000206000828254610acb91906127e0565b925050819055508360136004016000828254610ae791906127e0565b925050819055508360136005016000828254610b0391906127e0565b925050819055508192505050919050565b6000601360020160009054906101000a900460ff16905090565b60008073ffffffffffffffffffffffffffffffffffffffff1660008054906101000a900473ffffffffffffffffffffffffffffffffffffffff1673ffffffffffffffffffffffffffffffffffffffff1614158015610bb95750600073ffffffffffffffffffffffffffffffffffffffff168373ffffffffffffffffffffffffffffffffffffffff1614155b610bf8576040517f08c379a0000000000000000000000000000000000000000000000000000000008152600401610bef90612791565b60405180910390fd5b81610c2360008054906101000a900473ffffffffffffffffffffffffffffffffffffffff16856119a8565b610c2d9190612814565b602060008060009054906101000a900473ffffffffffffffffffffffffffffffffffffffff1673ffffffffffffffffffffffffffffffffffffffff1673ffffffffffffffffffffffffffffffffffffffff16815260200190815260200160002060008573ffffffffffffffffffffffffffffffffffffffff1673ffffffffffffffffffffffffffffffffffffffff168152602001908152602001600020819055508273ffffffffffffffffffffffffffffffffffffffff1660008054906101000a900473ffffffffffffffffffffffffffffffffffffffff1673ffffffffffffffffffffffffffffffffffffffff167f8c5be1e5ebec7d5bd14f71427d1e84f3dd0314c0f7b2291e5b200ac8c7c3b92584610d6860008054906101000a900473ffffffffffffffffffffffffffffffffffffffff16886119a8565b610d729190612814565b604051610d7f91906123cf565b60405180910390a36001905092915050565b6000601e60008373ffffffffffffffffffffffffffffffffffffffff1673ffffffffffffffffffffffffffffffffffffffff168152602001908152602001600020549050919050565b600060011515600160008060009054906101000a900473ffffffffffffffffffffffffffffffffffffffff1673ffffffffffffffffffffffffffffffffffffffff1673ffffffffffffffffffffffffffffffffffffffff16815260200190815260200160002060009054906101000a900460ff16151514610e90576040517f08c379a0000000000000000000000000000000000000000000000000000000008152600401610e87906128ba565b60405180910390fd5b60011515600260008060009054906101000a900473ffffffffffffffffffffffffffffffffffffffff1673ffffffffffffffffffffffffffffffffffffffff1673ffffffffffffffffffffffffffffffffffffffff16815260200190815260200160002060009054906101000a900460ff16151514610f44576040517f08c379a0000000000000000000000000000000000000000000000000000000008152600401610f3b9061294c565b60405180910390fd5b81600960060160000160016101000a81548160ff02191690831515021790555060019050919050565b6000601d60008373ffffffffffffffffffffffffffffffffffffffff1673ffffffffffffffffffffffffffffffffffffffff168152602001908152602001600020549050919050565b6000601f60008373ffffffffffffffffffffffffffffffffffffffff1673ffffffffffffffffffffffffffffffffffffffff168152602001908152602001600020549050919050565b60606013600101805461101190612714565b80601f016020809104026020016040519081016040528092919081815260200182805461103d90612714565b801561108a5780601f1061105f5761010080835404028352916020019161108a565b820191906000526020600020905b81548152906001019060200180831161106d57829003601f168201915b5050505050905090565b600060011515600160008060009054906101000a900473ffffffffffffffffffffffffffffffffffffffff1673ffffffffffffffffffffffffffffffffffffffff1673ffffffffffffffffffffffffffffffffffffffff16815260200190815260200160002060009054906101000a900460ff1615151461114a576040517f08c379a0000000000000000000000000000000000000000000000000000000008152600401611141906128ba565b60405180910390fd5b60011515600260008060009054906101000a900473ffffffffffffffffffffffffffffffffffffffff1673ffffffffffffffffffffffffffffffffffffffff1673ffffffffffffffffffffffffffffffffffffffff16815260200190815260200160002060009054906101000a900460ff161515146111fe576040517f08c379a00000000000000000000000000000000000000000000000000000000081526004016111f59061294c565b60405180910390fd5b60011515600460008060009054906101000a900473ffffffffffffffffffffffffffffffffffffffff1673ffffffffffffffffffffffffffffffffffffffff1673ffffffffffffffffffffffffffffffffffffffff16815260200190815260200160002060009054906101000a900460ff161515146112b2576040517f08c379a00000000000000000000000000000000000000000000000000000000081526004016112a9906129de565b60405180910390fd5b81600960060160000160006101000a81548160ff02191690831515021790555060019050919050565b60008161130860008054906101000a900473ffffffffffffffffffffffffffffffffffffffff16856119a8565b101580156113635750600073ffffffffffffffffffffffffffffffffffffffff1660008054906101000a900473ffffffffffffffffffffffffffffffffffffffff1673ffffffffffffffffffffffffffffffffffffffff1614155b801561139c5750600073ffffffffffffffffffffffffffffffffffffffff168373ffffffffffffffffffffffffffffffffffffffff1614155b6113db576040517f08c379a00000000000000000000000000000000000000000000000000000000081526004016113d290612a70565b60405180910390fd5b8161140660008054906101000a900473ffffffffffffffffffffffffffffffffffffffff16856119a8565b61141091906127e0565b602060008060009054906101000a900473ffffffffffffffffffffffffffffffffffffffff1673ffffffffffffffffffffffffffffffffffffffff1673ffffffffffffffffffffffffffffffffffffffff16815260200190815260200160002060008573ffffffffffffffffffffffffffffffffffffffff1673ffffffffffffffffffffffffffffffffffffffff168152602001908152602001600020819055508273ffffffffffffffffffffffffffffffffffffffff1660008054906101000a900473ffffffffffffffffffffffffffffffffffffffff1673ffffffffffffffffffffffffffffffffffffffff167f8c5be1e5ebec7d5bd14f71427d1e84f3dd0314c0f7b2291e5b200ac8c7c3b9258461154b60008054906101000a900473ffffffffffffffffffffffffffffffffffffffff16886119a8565b61155591906127e0565b60405161156291906123cf565b60405180910390a36001905092915050565b60008060006115d560008054906101000a900473ffffffffffffffffffffffffffffffffffffffff16601360080160009054906101000a900473ffffffffffffffffffffffffffffffffffffffff1686600960020154600960030154611dc3565b9150915080601e60008060009054906101000a900473ffffffffffffffffffffffffffffffffffffffff1673ffffffffffffffffffffffffffffffffffffffff1673ffffffffffffffffffffffffffffffffffffffff16815260200190815260200160002060008282546116499190612814565b9250508190555080601f60008060009054906101000a900473ffffffffffffffffffffffffffffffffffffffff1673ffffffffffffffffffffffffffffffffffffffff1673ffffffffffffffffffffffffffffffffffffffff16815260200190815260200160002060008282546116c09190612814565b9250508190555080601360040160008282546116dc9190612814565b9250508190555080601360050160008282546116f89190612814565b925050819055508192505050919050565b600080600061174560008054906101000a900473ffffffffffffffffffffffffffffffffffffffff168686600960020154600960030154611dc3565b91509150819250505092915050565b6000601360060154905090565b600060011515600160008060009054906101000a900473ffffffffffffffffffffffffffffffffffffffff1673ffffffffffffffffffffffffffffffffffffffff1673ffffffffffffffffffffffffffffffffffffffff16815260200190815260200160002060009054906101000a900460ff16151514611817576040517f08c379a000000000000000000000000000000000000000000000000000000000815260040161180e906128ba565b60405180910390fd5b60011515600260008060009054906101000a900473ffffffffffffffffffffffffffffffffffffffff1673ffffffffffffffffffffffffffffffffffffffff1673ffffffffffffffffffffffffffffffffffffffff16815260200190815260200160002060009054906101000a900460ff161515146118cb576040517f08c379a00000000000000000000000000000000000000000000000000000000081526004016118c29061294c565b60405180910390fd5b60011515600460008060009054906101000a900473ffffffffffffffffffffffffffffffffffffffff1673ffffffffffffffffffffffffffffffffffffffff1673ffffffffffffffffffffffffffffffffffffffff16815260200190815260200160002060009054906101000a900460ff1615151461197f576040517f08c379a0000000000000000000000000000000000000000000000000000000008152600401611976906129de565b60405180910390fd5b81600960060160000160026101000a81548160ff02191690831515021790555060019050919050565b6000602060008473ffffffffffffffffffffffffffffffffffffffff1673ffffffffffffffffffffffffffffffffffffffff16815260200190815260200160002060008373ffffffffffffffffffffffffffffffffffffffff1673ffffffffffffffffffffffffffffffffffffffff16815260200190815260200160002054905092915050565b600080601c60008060009054906101000a900473ffffffffffffffffffffffffffffffffffffffff1673ffffffffffffffffffffffffffffffffffffffff1673ffffffffffffffffffffffffffffffffffffffff16815260200190815260200160002083604051611aa09190612acc565b90815260200160405180910390206001018054611abc90612714565b80601f0160208091040260200160405190810160405280929190818152602001828054611ae890612714565b8015611b355780601f10611b0a57610100808354040283529160200191611b35565b820191906000526020600020905b815481529060010190602001808311611b1857829003601f168201915b5050505050905042601c60008060009054906101000a900473ffffffffffffffffffffffffffffffffffffffff1673ffffffffffffffffffffffffffffffffffffffff1673ffffffffffffffffffffffffffffffffffffffff16815260200190815260200160002084604051611bab9190612acc565b90815260200160405180910390206004015410158015611c4a57506000601c60008060009054906101000a900473ffffffffffffffffffffffffffffffffffffffff1673ffffffffffffffffffffffffffffffffffffffff1673ffffffffffffffffffffffffffffffffffffffff16815260200190815260200160002084604051611c369190612acc565b908152602001604051809103902060050154115b611c5357600080fd5b611d2e601360080160009054906101000a900473ffffffffffffffffffffffffffffffffffffffff1660008054906101000a900473ffffffffffffffffffffffffffffffffffffffff16601c60008060009054906101000a900473ffffffffffffffffffffffffffffffffffffffff1673ffffffffffffffffffffffffffffffffffffffff1673ffffffffffffffffffffffffffffffffffffffff16815260200190815260200160002086604051611d0b9190612acc565b908152602001604051809103902060050154600960020154600960030154611dc3565b50506000601c60008060009054906101000a900473ffffffffffffffffffffffffffffffffffffffff1673ffffffffffffffffffffffffffffffffffffffff1673ffffffffffffffffffffffffffffffffffffffff16815260200190815260200160002084604051611da09190612acc565b90815260200160405180910390206005018190555050919050565b600033905090565b600080600073ffffffffffffffffffffffffffffffffffffffff168773ffffffffffffffffffffffffffffffffffffffff1614158015611e305750600073ffffffffffffffffffffffffffffffffffffffff168673ffffffffffffffffffffffffffffffffffffffff1614155b8015611e7b575084601d60008973ffffffffffffffffffffffffffffffffffffffff1673ffffffffffffffffffffffffffffffffffffffff1681526020019081526020016000205410155b8015611ec757506000601d60008973ffffffffffffffffffffffffffffffffffffffff1673ffffffffffffffffffffffffffffffffffffffff1681526020019081526020016000205410155b8015611ed4575060008510155b611edd57600080fd5b84601d60008973ffffffffffffffffffffffffffffffffffffffff1673ffffffffffffffffffffffffffffffffffffffff1681526020019081526020016000206000828254611f2c91906127e0565b925050819055506000846103e887611f449190612b12565b611f4e9190612b43565b90506000846103e888611f619190612b12565b611f6b9190612b43565b905060008183611f7b9190612814565b88611f8691906127e0565b905080601d60008b73ffffffffffffffffffffffffffffffffffffffff1673ffffffffffffffffffffffffffffffffffffffff1681526020019081526020016000206000828254611fd79190612814565b9250508190555081601d6000601360080160009054906101000a900473ffffffffffffffffffffffffffffffffffffffff1673ffffffffffffffffffffffffffffffffffffffff1673ffffffffffffffffffffffffffffffffffffffff16815260200190815260200160002060008282546120529190612814565b92505081905550826013600301600082825461206e91906127e0565b925050819055508873ffffffffffffffffffffffffffffffffffffffff168a73ffffffffffffffffffffffffffffffffffffffff167fddf252ad1be2c89b69c2b068fc378daa952ba7f163c4a11628f55a4df523b3ef836040516120d291906123cf565b60405180910390a36000831461214957600073ffffffffffffffffffffffffffffffffffffffff168a73ffffffffffffffffffffffffffffffffffffffff167fddf252ad1be2c89b69c2b068fc378daa952ba7f163c4a11628f55a4df523b3ef8560405161214091906123cf565b60405180910390a35b600082146121dc57601360080160009054906101000a900473ffffffffffffffffffffffffffffffffffffffff1673ffffffffffffffffffffffffffffffffffffffff168a73ffffffffffffffffffffffffffffffffffffffff167fddf252ad1be2c89b69c2b068fc378daa952ba7f163c4a11628f55a4df523b3ef846040516121d391906123cf565b60405180910390a35b600181945094505050509550959350505050565b600081519050919050565b600082825260208201905092915050565b60005b8381101561222a57808201518184015260208101905061220f565b60008484015250505050565b6000601f19601f8301169050919050565b6000612252826121f0565b61225c81856121fb565b935061226c81856020860161220c565b61227581612236565b840191505092915050565b6000602082019050818103600083015261229a8184612247565b905092915050565b6000604051905090565b600080fd5b600080fd5b600073ffffffffffffffffffffffffffffffffffffffff82169050919050565b60006122e1826122b6565b9050919050565b6122f1816122d6565b81146122fc57600080fd5b50565b60008135905061230e816122e8565b92915050565b6000819050919050565b61232781612314565b811461233257600080fd5b50565b6000813590506123448161231e565b92915050565b60008060408385031215612361576123606122ac565b5b600061236f858286016122ff565b925050602061238085828601612335565b9150509250929050565b60008115159050919050565b61239f8161238a565b82525050565b60006020820190506123ba6000830184612396565b92915050565b6123c981612314565b82525050565b60006020820190506123e460008301846123c0565b92915050565b600080600060608486031215612403576124026122ac565b5b6000612411868287016122ff565b9350506020612422868287016122ff565b925050604061243386828701612335565b9150509250925092565b600060208284031215612453576124526122ac565b5b600061246184828501612335565b91505092915050565b600060ff82169050919050565b6124808161246a565b82525050565b600060208201905061249b6000830184612477565b92915050565b6000602082840312156124b7576124b66122ac565b5b60006124c5848285016122ff565b91505092915050565b6124d78161238a565b81146124e257600080fd5b50565b6000813590506124f4816124ce565b92915050565b6000602082840312156125105761250f6122ac565b5b600061251e848285016124e5565b91505092915050565b6000806040838503121561253e5761253d6122ac565b5b600061254c858286016122ff565b925050602061255d858286016122ff565b9150509250929050565b600080fd5b600080fd5b7f4e487b7100000000000000000000000000000000000000000000000000000000600052604160045260246000fd5b6125a982612236565b810181811067ffffffffffffffff821117156125c8576125c7612571565b5b80604052505050565b60006125db6122a2565b90506125e782826125a0565b919050565b600067ffffffffffffffff82111561260757612606612571565b5b61261082612236565b9050602081019050919050565b82818337600083830152505050565b600061263f61263a846125ec565b6125d1565b90508281526020810184848401111561265b5761265a61256c565b5b61266684828561261d565b509392505050565b600082601f83011261268357612682612567565b5b813561269384826020860161262c565b91505092915050565b6000602082840312156126b2576126b16122ac565b5b600082013567ffffffffffffffff8111156126d0576126cf6122b1565b5b6126dc8482850161266e565b91505092915050565b7f4e487b7100000000000000000000000000000000000000000000000000000000600052602260045260246000fd5b6000600282049050600182168061272c57607f821691505b60208210810361273f5761273e6126e5565b5b50919050565b7f7a65726f20616464726573730000000000000000000000000000000000000000600082015250565b600061277b600c836121fb565b915061278682612745565b602082019050919050565b600060208201905081810360008301526127aa8161276e565b9050919050565b7f4e487b7100000000000000000000000000000000000000000000000000000000600052601160045260246000fd5b60006127eb82612314565b91506127f683612314565b925082820390508181111561280e5761280d6127b1565b5b92915050565b600061281f82612314565b915061282a83612314565b9250828201905080821115612842576128416127b1565b5b92915050565b7f41757468656e74696361746f723a2061646d696e207065726d697373696f6e2060008201527f7265717569726564000000000000000000000000000000000000000000000000602082015250565b60006128a46028836121fb565b91506128af82612848565b604082019050919050565b600060208201905081810360008301526128d381612897565b9050919050565b7f41757468656e74696361746f723a20646576207065726d697373696f6e20726560008201527f7175697265640000000000000000000000000000000000000000000000000000602082015250565b60006129366026836121fb565b9150612941826128da565b604082019050919050565b6000602082019050818103600083015261296581612929565b9050919050565b7f41757468656e74696361746f723a206f70657261746f72207065726d6973736960008201527f6f6e207265717569726564000000000000000000000000000000000000000000602082015250565b60006129c8602b836121fb565b91506129d38261296c565b604082019050919050565b600060208201905081810360008301526129f7816129bb565b9050919050565b7f7a65726f2061646472657373207c7c2064656372656173656420616c6c6f776160008201527f6e63652062656c6f77207a65726f000000000000000000000000000000000000602082015250565b6000612a5a602e836121fb565b9150612a65826129fe565b604082019050919050565b60006020820190508181036000830152612a8981612a4d565b9050919050565b600081905092915050565b6000612aa6826121f0565b612ab08185612a90565b9350612ac081856020860161220c565b80840191505092915050565b6000612ad88284612a9b565b915081905092915050565b7f4e487b7100000000000000000000000000000000000000000000000000000000600052601260045260246000fd5b6000612b1d82612314565b9150612b2883612314565b925082612b3857612b37612ae3565b5b828204905092915050565b6000612b4e82612314565b9150612b5983612314565b9250828202612b6781612314565b91508282048414831517612b7e57612b7d6127b1565b5b509291505056fea2646970667358221220bdf85a0d4ac569bcfafbe8e989b2ddaffdf383e752264863ddf41690900f7fc464736f6c63430008120033",
					"opcodes": "PUSH1 0x80 PUSH1 0x40 MSTORE PUSH3 0x19 PUSH3 0x2B9 PUSH1 0x20 SHL PUSH3 0x1DBB OR PUSH1 0x20 SHR JUMP JUMPDEST PUSH1 0x0 DUP1 PUSH2 0x100 EXP DUP2 SLOAD DUP2 PUSH20 0xFFFFFFFFFFFFFFFFFFFFFFFFFFFFFFFFFFFFFFFF MUL NOT AND SWAP1 DUP4 PUSH20 0xFFFFFFFFFFFFFFFFFFFFFFFFFFFFFFFFFFFFFFFF AND MUL OR SWAP1 SSTORE POP CALLVALUE DUP1 ISZERO PUSH3 0x65 JUMPI PUSH1 0x0 DUP1 REVERT JUMPDEST POP PUSH1 0x40 MLOAD DUP1 PUSH1 0x40 ADD PUSH1 0x40 MSTORE DUP1 PUSH1 0xC DUP2 MSTORE PUSH1 0x20 ADD PUSH32 0x447265616D636174636865720000000000000000000000000000000000000000 DUP2 MSTORE POP PUSH1 0x13 PUSH1 0x0 ADD SWAP1 DUP2 PUSH3 0xAF SWAP2 SWAP1 PUSH3 0x67C JUMP JUMPDEST POP PUSH1 0x40 MLOAD DUP1 PUSH1 0x40 ADD PUSH1 0x40 MSTORE DUP1 PUSH1 0x5 DUP2 MSTORE PUSH1 0x20 ADD PUSH32 0x445245414D000000000000000000000000000000000000000000000000000000 DUP2 MSTORE POP PUSH1 0x13 PUSH1 0x1 ADD SWAP1 DUP2 PUSH3 0xF9 SWAP2 SWAP1 PUSH3 0x67C JUMP JUMPDEST POP PUSH1 0x12 PUSH1 0x13 PUSH1 0x2 ADD PUSH1 0x0 PUSH2 0x100 EXP DUP2 SLOAD DUP2 PUSH1 0xFF MUL NOT AND SWAP1 DUP4 PUSH1 0xFF AND MUL OR SWAP1 SSTORE POP PUSH1 0x0 PUSH1 0x13 PUSH1 0x3 ADD DUP2 SWAP1 SSTORE POP PUSH1 0x13 PUSH1 0x2 ADD PUSH1 0x0 SWAP1 SLOAD SWAP1 PUSH2 0x100 EXP SWAP1 DIV PUSH1 0xFF AND PUSH1 0xA PUSH3 0x145 SWAP2 SWAP1 PUSH3 0x8F3 JUMP JUMPDEST PUSH4 0xBEBC200 PUSH3 0x156 SWAP2 SWAP1 PUSH3 0x944 JUMP JUMPDEST PUSH1 0x13 PUSH1 0x6 ADD DUP2 SWAP1 SSTORE POP PUSH1 0x0 DUP1 SLOAD SWAP1 PUSH2 0x100 EXP SWAP1 DIV PUSH20 0xFFFFFFFFFFFFFFFFFFFFFFFFFFFFFFFFFFFFFFFF AND PUSH1 0x13 PUSH1 0x7 ADD PUSH1 0x0 PUSH2 0x100 EXP DUP2 SLOAD DUP2 PUSH20 0xFFFFFFFFFFFFFFFFFFFFFFFFFFFFFFFFFFFFFFFF MUL NOT AND SWAP1 DUP4 PUSH20 0xFFFFFFFFFFFFFFFFFFFFFFFFFFFFFFFFFFFFFFFF AND MUL OR SWAP1 SSTORE POP PUSH1 0x0 DUP1 SLOAD SWAP1 PUSH2 0x100 EXP SWAP1 DIV PUSH20 0xFFFFFFFFFFFFFFFFFFFFFFFFFFFFFFFFFFFFFFFF AND PUSH1 0x13 PUSH1 0x8 ADD PUSH1 0x0 PUSH2 0x100 EXP DUP2 SLOAD DUP2 PUSH20 0xFFFFFFFFFFFFFFFFFFFFFFFFFFFFFFFFFFFFFFFF MUL NOT AND SWAP1 DUP4 PUSH20 0xFFFFFFFFFFFFFFFFFFFFFFFFFFFFFFFFFFFFFFFF AND MUL OR SWAP1 SSTORE POP PUSH1 0x0 PUSH1 0x9 PUSH1 0x2 ADD DUP2 SWAP1 SSTORE POP PUSH1 0x0 PUSH1 0x9 PUSH1 0x3 ADD DUP2 SWAP1 SSTORE POP PUSH1 0x1 PUSH1 0x9 PUSH1 0x5 ADD PUSH1 0x0 ADD DUP2 SWAP1 SSTORE POP PUSH3 0x2B3 PUSH1 0x13 PUSH1 0x8 ADD PUSH1 0x0 SWAP1 SLOAD SWAP1 PUSH2 0x100 EXP SWAP1 DIV PUSH20 0xFFFFFFFFFFFFFFFFFFFFFFFFFFFFFFFFFFFFFFFF AND PUSH1 0x13 PUSH1 0x2 ADD PUSH1 0x0 SWAP1 SLOAD SWAP1 PUSH2 0x100 EXP SWAP1 DIV PUSH1 0xFF AND PUSH1 0xA PUSH3 0x296 SWAP2 SWAP1 PUSH3 0x8F3 JUMP JUMPDEST PUSH4 0xBEBC200 PUSH3 0x2A7 SWAP2 SWAP1 PUSH3 0x944 JUMP JUMPDEST PUSH3 0x2C1 PUSH1 0x20 SHL PUSH1 0x20 SHR JUMP JUMPDEST PUSH3 0x9F8 JUMP JUMPDEST PUSH1 0x0 CALLER SWAP1 POP SWAP1 JUMP JUMPDEST PUSH1 0x0 PUSH20 0xFFFFFFFFFFFFFFFFFFFFFFFFFFFFFFFFFFFFFFFF AND DUP3 PUSH20 0xFFFFFFFFFFFFFFFFFFFFFFFFFFFFFFFFFFFFFFFF AND EQ ISZERO DUP1 ISZERO PUSH3 0x316 JUMPI POP PUSH1 0x13 PUSH1 0x6 ADD SLOAD DUP2 PUSH1 0x13 PUSH1 0x3 ADD SLOAD PUSH3 0x313 SWAP2 SWAP1 PUSH3 0x98F JUMP JUMPDEST GT ISZERO JUMPDEST PUSH3 0x320 JUMPI PUSH1 0x0 DUP1 REVERT JUMPDEST DUP1 PUSH1 0x13 PUSH1 0x3 ADD PUSH1 0x0 DUP3 DUP3 SLOAD PUSH3 0x337 SWAP2 SWAP1 PUSH3 0x98F JUMP JUMPDEST SWAP3 POP POP DUP2 SWAP1 SSTORE POP DUP1 PUSH1 0x1D PUSH1 0x0 DUP5 PUSH20 0xFFFFFFFFFFFFFFFFFFFFFFFFFFFFFFFFFFFFFFFF AND PUSH20 0xFFFFFFFFFFFFFFFFFFFFFFFFFFFFFFFFFFFFFFFF AND DUP2 MSTORE PUSH1 0x20 ADD SWAP1 DUP2 MSTORE PUSH1 0x20 ADD PUSH1 0x0 KECCAK256 PUSH1 0x0 DUP3 DUP3 SLOAD PUSH3 0x38F SWAP2 SWAP1 PUSH3 0x98F JUMP JUMPDEST SWAP3 POP POP DUP2 SWAP1 SSTORE POP DUP2 PUSH20 0xFFFFFFFFFFFFFFFFFFFFFFFFFFFFFFFFFFFFFFFF AND PUSH1 0x0 PUSH20 0xFFFFFFFFFFFFFFFFFFFFFFFFFFFFFFFFFFFFFFFF AND PUSH32 0xDDF252AD1BE2C89B69C2B068FC378DAA952BA7F163C4A11628F55A4DF523B3EF DUP4 PUSH1 0x40 MLOAD PUSH3 0x3F6 SWAP2 SWAP1 PUSH3 0x9DB JUMP JUMPDEST PUSH1 0x40 MLOAD DUP1 SWAP2 SUB SWAP1 LOG3 POP POP JUMP JUMPDEST PUSH1 0x0 DUP2 MLOAD SWAP1 POP SWAP2 SWAP1 POP JUMP JUMPDEST PUSH32 0x4E487B7100000000000000000000000000000000000000000000000000000000 PUSH1 0x0 MSTORE PUSH1 0x41 PUSH1 0x4 MSTORE PUSH1 0x24 PUSH1 0x0 REVERT JUMPDEST PUSH32 0x4E487B7100000000000000000000000000000000000000000000000000000000 PUSH1 0x0 MSTORE PUSH1 0x22 PUSH1 0x4 MSTORE PUSH1 0x24 PUSH1 0x0 REVERT JUMPDEST PUSH1 0x0 PUSH1 0x2 DUP3 DIV SWAP1 POP PUSH1 0x1 DUP3 AND DUP1 PUSH3 0x484 JUMPI PUSH1 0x7F DUP3 AND SWAP2 POP JUMPDEST PUSH1 0x20 DUP3 LT DUP2 SUB PUSH3 0x49A JUMPI PUSH3 0x499 PUSH3 0x43C JUMP JUMPDEST JUMPDEST POP SWAP2 SWAP1 POP JUMP JUMPDEST PUSH1 0x0 DUP2 SWAP1 POP DUP2 PUSH1 0x0 MSTORE PUSH1 0x20 PUSH1 0x0 KECCAK256 SWAP1 POP SWAP2 SWAP1 POP JUMP JUMPDEST PUSH1 0x0 PUSH1 0x20 PUSH1 0x1F DUP4 ADD DIV SWAP1 POP SWAP2 SWAP1 POP JUMP JUMPDEST PUSH1 0x0 DUP3 DUP3 SHL SWAP1 POP SWAP3 SWAP2 POP POP JUMP JUMPDEST PUSH1 0x0 PUSH1 0x8 DUP4 MUL PUSH3 0x504 PUSH32 0xFFFFFFFFFFFFFFFFFFFFFFFFFFFFFFFFFFFFFFFFFFFFFFFFFFFFFFFFFFFFFFFF DUP3 PUSH3 0x4C5 JUMP JUMPDEST PUSH3 0x510 DUP7 DUP4 PUSH3 0x4C5 JUMP JUMPDEST SWAP6 POP DUP1 NOT DUP5 AND SWAP4 POP DUP1 DUP7 AND DUP5 OR SWAP3 POP POP POP SWAP4 SWAP3 POP POP POP JUMP JUMPDEST PUSH1 0x0 DUP2 SWAP1 POP SWAP2 SWAP1 POP JUMP JUMPDEST PUSH1 0x0 DUP2 SWAP1 POP SWAP2 SWAP1 POP JUMP JUMPDEST PUSH1 0x0 PUSH3 0x55D PUSH3 0x557 PUSH3 0x551 DUP5 PUSH3 0x528 JUMP JUMPDEST PUSH3 0x532 JUMP JUMPDEST PUSH3 0x528 JUMP JUMPDEST SWAP1 POP SWAP2 SWAP1 POP JUMP JUMPDEST PUSH1 0x0 DUP2 SWAP1 POP SWAP2 SWAP1 POP JUMP JUMPDEST PUSH3 0x579 DUP4 PUSH3 0x53C JUMP JUMPDEST PUSH3 0x591 PUSH3 0x588 DUP3 PUSH3 0x564 JUMP JUMPDEST DUP5 DUP5 SLOAD PUSH3 0x4D2 JUMP JUMPDEST DUP3 SSTORE POP POP POP POP JUMP JUMPDEST PUSH1 0x0 SWAP1 JUMP JUMPDEST PUSH3 0x5A8 PUSH3 0x599 JUMP JUMPDEST PUSH3 0x5B5 DUP2 DUP5 DUP5 PUSH3 0x56E JUMP JUMPDEST POP POP POP JUMP JUMPDEST JUMPDEST DUP2 DUP2 LT ISZERO PUSH3 0x5DD JUMPI PUSH3 0x5D1 PUSH1 0x0 DUP3 PUSH3 0x59E JUMP JUMPDEST PUSH1 0x1 DUP2 ADD SWAP1 POP PUSH3 0x5BB JUMP JUMPDEST POP POP JUMP JUMPDEST PUSH1 0x1F DUP3 GT ISZERO PUSH3 0x62C JUMPI PUSH3 0x5F6 DUP2 PUSH3 0x4A0 JUMP JUMPDEST PUSH3 0x601 DUP5 PUSH3 0x4B5 JUMP JUMPDEST DUP2 ADD PUSH1 0x20 DUP6 LT ISZERO PUSH3 0x611 JUMPI DUP2 SWAP1 POP JUMPDEST PUSH3 0x629 PUSH3 0x620 DUP6 PUSH3 0x4B5 JUMP JUMPDEST DUP4 ADD DUP3 PUSH3 0x5BA JUMP JUMPDEST POP POP JUMPDEST POP POP POP JUMP JUMPDEST PUSH1 0x0 DUP3 DUP3 SHR SWAP1 POP SWAP3 SWAP2 POP POP JUMP JUMPDEST PUSH1 0x0 PUSH3 0x651 PUSH1 0x0 NOT DUP5 PUSH1 0x8 MUL PUSH3 0x631 JUMP JUMPDEST NOT DUP1 DUP4 AND SWAP2 POP POP SWAP3 SWAP2 POP POP JUMP JUMPDEST PUSH1 0x0 PUSH3 0x66C DUP4 DUP4 PUSH3 0x63E JUMP JUMPDEST SWAP2 POP DUP3 PUSH1 0x2 MUL DUP3 OR SWAP1 POP SWAP3 SWAP2 POP POP JUMP JUMPDEST PUSH3 0x687 DUP3 PUSH3 0x402 JUMP JUMPDEST PUSH8 0xFFFFFFFFFFFFFFFF DUP2 GT ISZERO PUSH3 0x6A3 JUMPI PUSH3 0x6A2 PUSH3 0x40D JUMP JUMPDEST JUMPDEST PUSH3 0x6AF DUP3 SLOAD PUSH3 0x46B JUMP JUMPDEST PUSH3 0x6BC DUP3 DUP3 DUP6 PUSH3 0x5E1 JUMP JUMPDEST PUSH1 0x0 PUSH1 0x20 SWAP1 POP PUSH1 0x1F DUP4 GT PUSH1 0x1 DUP2 EQ PUSH3 0x6F4 JUMPI PUSH1 0x0 DUP5 ISZERO PUSH3 0x6DF JUMPI DUP3 DUP8 ADD MLOAD SWAP1 POP JUMPDEST PUSH3 0x6EB DUP6 DUP3 PUSH3 0x65E JUMP JUMPDEST DUP7 SSTORE POP PUSH3 0x75B JUMP JUMPDEST PUSH1 0x1F NOT DUP5 AND PUSH3 0x704 DUP7 PUSH3 0x4A0 JUMP JUMPDEST PUSH1 0x0 JUMPDEST DUP3 DUP2 LT ISZERO PUSH3 0x72E JUMPI DUP5 DUP10 ADD MLOAD DUP3 SSTORE PUSH1 0x1 DUP3 ADD SWAP2 POP PUSH1 0x20 DUP6 ADD SWAP5 POP PUSH1 0x20 DUP2 ADD SWAP1 POP PUSH3 0x707 JUMP JUMPDEST DUP7 DUP4 LT ISZERO PUSH3 0x74E JUMPI DUP5 DUP10 ADD MLOAD PUSH3 0x74A PUSH1 0x1F DUP10 AND DUP3 PUSH3 0x63E JUMP JUMPDEST DUP4 SSTORE POP JUMPDEST PUSH1 0x1 PUSH1 0x2 DUP9 MUL ADD DUP9 SSTORE POP POP POP JUMPDEST POP POP POP POP POP POP JUMP JUMPDEST PUSH32 0x4E487B7100000000000000000000000000000000000000000000000000000000 PUSH1 0x0 MSTORE PUSH1 0x11 PUSH1 0x4 MSTORE PUSH1 0x24 PUSH1 0x0 REVERT JUMPDEST PUSH1 0x0 DUP2 PUSH1 0x1 SHR SWAP1 POP SWAP2 SWAP1 POP JUMP JUMPDEST PUSH1 0x0 DUP1 DUP3 SWAP2 POP DUP4 SWAP1 POP JUMPDEST PUSH1 0x1 DUP6 GT ISZERO PUSH3 0x7F1 JUMPI DUP1 DUP7 DIV DUP2 GT ISZERO PUSH3 0x7C9 JUMPI PUSH3 0x7C8 PUSH3 0x763 JUMP JUMPDEST JUMPDEST PUSH1 0x1 DUP6 AND ISZERO PUSH3 0x7D9 JUMPI DUP1 DUP3 MUL SWAP2 POP JUMPDEST DUP1 DUP2 MUL SWAP1 POP PUSH3 0x7E9 DUP6 PUSH3 0x792 JUMP JUMPDEST SWAP5 POP PUSH3 0x7A9 JUMP JUMPDEST SWAP5 POP SWAP5 SWAP3 POP POP POP JUMP JUMPDEST PUSH1 0x0 DUP3 PUSH3 0x80C JUMPI PUSH1 0x1 SWAP1 POP PUSH3 0x8DF JUMP JUMPDEST DUP2 PUSH3 0x81C JUMPI PUSH1 0x0 SWAP1 POP PUSH3 0x8DF JUMP JUMPDEST DUP2 PUSH1 0x1 DUP2 EQ PUSH3 0x835 JUMPI PUSH1 0x2 DUP2 EQ PUSH3 0x840 JUMPI PUSH3 0x876 JUMP JUMPDEST PUSH1 0x1 SWAP2 POP POP PUSH3 0x8DF JUMP JUMPDEST PUSH1 0xFF DUP5 GT ISZERO PUSH3 0x855 JUMPI PUSH3 0x854 PUSH3 0x763 JUMP JUMPDEST JUMPDEST DUP4 PUSH1 0x2 EXP SWAP2 POP DUP5 DUP3 GT ISZERO PUSH3 0x86F JUMPI PUSH3 0x86E PUSH3 0x763 JUMP JUMPDEST JUMPDEST POP PUSH3 0x8DF JUMP JUMPDEST POP PUSH1 0x20 DUP4 LT PUSH2 0x133 DUP4 LT AND PUSH1 0x4E DUP5 LT PUSH1 0xB DUP5 LT AND OR ISZERO PUSH3 0x8B0 JUMPI DUP3 DUP3 EXP SWAP1 POP DUP4 DUP2 GT ISZERO PUSH3 0x8AA JUMPI PUSH3 0x8A9 PUSH3 0x763 JUMP JUMPDEST JUMPDEST PUSH3 0x8DF JUMP JUMPDEST PUSH3 0x8BF DUP5 DUP5 DUP5 PUSH1 0x1 PUSH3 0x79F JUMP JUMPDEST SWAP3 POP SWAP1 POP DUP2 DUP5 DIV DUP2 GT ISZERO PUSH3 0x8D9 JUMPI PUSH3 0x8D8 PUSH3 0x763 JUMP JUMPDEST JUMPDEST DUP2 DUP2 MUL SWAP1 POP JUMPDEST SWAP4 SWAP3 POP POP POP JUMP JUMPDEST PUSH1 0x0 PUSH1 0xFF DUP3 AND SWAP1 POP SWAP2 SWAP1 POP JUMP JUMPDEST PUSH1 0x0 PUSH3 0x900 DUP3 PUSH3 0x528 JUMP JUMPDEST SWAP2 POP PUSH3 0x90D DUP4 PUSH3 0x8E6 JUMP JUMPDEST SWAP3 POP PUSH3 0x93C PUSH32 0xFFFFFFFFFFFFFFFFFFFFFFFFFFFFFFFFFFFFFFFFFFFFFFFFFFFFFFFFFFFFFFFF DUP5 DUP5 PUSH3 0x7FA JUMP JUMPDEST SWAP1 POP SWAP3 SWAP2 POP POP JUMP JUMPDEST PUSH1 0x0 PUSH3 0x951 DUP3 PUSH3 0x528 JUMP JUMPDEST SWAP2 POP PUSH3 0x95E DUP4 PUSH3 0x528 JUMP JUMPDEST SWAP3 POP DUP3 DUP3 MUL PUSH3 0x96E DUP2 PUSH3 0x528 JUMP JUMPDEST SWAP2 POP DUP3 DUP3 DIV DUP5 EQ DUP4 ISZERO OR PUSH3 0x988 JUMPI PUSH3 0x987 PUSH3 0x763 JUMP JUMPDEST JUMPDEST POP SWAP3 SWAP2 POP POP JUMP JUMPDEST PUSH1 0x0 PUSH3 0x99C DUP3 PUSH3 0x528 JUMP JUMPDEST SWAP2 POP PUSH3 0x9A9 DUP4 PUSH3 0x528 JUMP JUMPDEST SWAP3 POP DUP3 DUP3 ADD SWAP1 POP DUP1 DUP3 GT ISZERO PUSH3 0x9C4 JUMPI PUSH3 0x9C3 PUSH3 0x763 JUMP JUMPDEST JUMPDEST SWAP3 SWAP2 POP POP JUMP JUMPDEST PUSH3 0x9D5 DUP2 PUSH3 0x528 JUMP JUMPDEST DUP3 MSTORE POP POP JUMP JUMPDEST PUSH1 0x0 PUSH1 0x20 DUP3 ADD SWAP1 POP PUSH3 0x9F2 PUSH1 0x0 DUP4 ADD DUP5 PUSH3 0x9CA JUMP JUMPDEST SWAP3 SWAP2 POP POP JUMP JUMPDEST PUSH2 0x2BBB DUP1 PUSH3 0xA08 PUSH1 0x0 CODECOPY PUSH1 0x0 RETURN INVALID PUSH1 0x80 PUSH1 0x40 MSTORE CALLVALUE DUP1 ISZERO PUSH2 0x10 JUMPI PUSH1 0x0 DUP1 REVERT JUMPDEST POP PUSH1 0x4 CALLDATASIZE LT PUSH2 0x12C JUMPI PUSH1 0x0 CALLDATALOAD PUSH1 0xE0 SHR DUP1 PUSH4 0x79EC5D3A GT PUSH2 0xAD JUMPI DUP1 PUSH4 0xA9059CBB GT PUSH2 0x71 JUMPI DUP1 PUSH4 0xA9059CBB EQ PUSH2 0x3B9 JUMPI DUP1 PUSH4 0xD5ABEB01 EQ PUSH2 0x3E9 JUMPI DUP1 PUSH4 0xD6CDB5A5 EQ PUSH2 0x407 JUMPI DUP1 PUSH4 0xDD62ED3E EQ PUSH2 0x437 JUMPI DUP1 PUSH4 0xF34E3723 EQ PUSH2 0x467 JUMPI PUSH2 0x12C JUMP JUMPDEST DUP1 PUSH4 0x79EC5D3A EQ PUSH2 0x2DB JUMPI DUP1 PUSH4 0x95D89B41 EQ PUSH2 0x30B JUMPI DUP1 PUSH4 0xA44E10EB EQ PUSH2 0x329 JUMPI DUP1 PUSH4 0xA457C2D7 EQ PUSH2 0x359 JUMPI DUP1 PUSH4 0xA694FC3A EQ PUSH2 0x389 JUMPI PUSH2 0x12C JUMP JUMPDEST DUP1 PUSH4 0x313CE567 GT PUSH2 0xF4 JUMPI DUP1 PUSH4 0x313CE567 EQ PUSH2 0x1FD JUMPI DUP1 PUSH4 0x39509351 EQ PUSH2 0x21B JUMPI DUP1 PUSH4 0x42623360 EQ PUSH2 0x24B JUMPI DUP1 PUSH4 0x5A48B310 EQ PUSH2 0x27B JUMPI DUP1 PUSH4 0x70A08231 EQ PUSH2 0x2AB JUMPI PUSH2 0x12C JUMP JUMPDEST DUP1 PUSH4 0x6FDDE03 EQ PUSH2 0x131 JUMPI DUP1 PUSH4 0x95EA7B3 EQ PUSH2 0x14F JUMPI DUP1 PUSH4 0x18160DDD EQ PUSH2 0x17F JUMPI DUP1 PUSH4 0x23B872DD EQ PUSH2 0x19D JUMPI DUP1 PUSH4 0x2E17DE78 EQ PUSH2 0x1CD JUMPI JUMPDEST PUSH1 0x0 DUP1 REVERT JUMPDEST PUSH2 0x139 PUSH2 0x497 JUMP JUMPDEST PUSH1 0x40 MLOAD PUSH2 0x146 SWAP2 SWAP1 PUSH2 0x2280 JUMP JUMPDEST PUSH1 0x40 MLOAD DUP1 SWAP2 SUB SWAP1 RETURN JUMPDEST PUSH2 0x169 PUSH1 0x4 DUP1 CALLDATASIZE SUB DUP2 ADD SWAP1 PUSH2 0x164 SWAP2 SWAP1 PUSH2 0x234A JUMP JUMPDEST PUSH2 0x52C JUMP JUMPDEST PUSH1 0x40 MLOAD PUSH2 0x176 SWAP2 SWAP1 PUSH2 0x23A5 JUMP JUMPDEST PUSH1 0x40 MLOAD DUP1 SWAP2 SUB SWAP1 RETURN JUMPDEST PUSH2 0x187 PUSH2 0x727 JUMP JUMPDEST PUSH1 0x40 MLOAD PUSH2 0x194 SWAP2 SWAP1 PUSH2 0x23CF JUMP JUMPDEST PUSH1 0x40 MLOAD DUP1 SWAP2 SUB SWAP1 RETURN JUMPDEST PUSH2 0x1B7 PUSH1 0x4 DUP1 CALLDATASIZE SUB DUP2 ADD SWAP1 PUSH2 0x1B2 SWAP2 SWAP1 PUSH2 0x23EA JUMP JUMPDEST PUSH2 0x734 JUMP JUMPDEST PUSH1 0x40 MLOAD PUSH2 0x1C4 SWAP2 SWAP1 PUSH2 0x23A5 JUMP JUMPDEST PUSH1 0x40 MLOAD DUP1 SWAP2 SUB SWAP1 RETURN JUMPDEST PUSH2 0x1E7 PUSH1 0x4 DUP1 CALLDATASIZE SUB DUP2 ADD SWAP1 PUSH2 0x1E2 SWAP2 SWAP1 PUSH2 0x243D JUMP JUMPDEST PUSH2 0x912 JUMP JUMPDEST PUSH1 0x40 MLOAD PUSH2 0x1F4 SWAP2 SWAP1 PUSH2 0x23A5 JUMP JUMPDEST PUSH1 0x40 MLOAD DUP1 SWAP2 SUB SWAP1 RETURN JUMPDEST PUSH2 0x205 PUSH2 0xB14 JUMP JUMPDEST PUSH1 0x40 MLOAD PUSH2 0x212 SWAP2 SWAP1 PUSH2 0x2486 JUMP JUMPDEST PUSH1 0x40 MLOAD DUP1 SWAP2 SUB SWAP1 RETURN JUMPDEST PUSH2 0x235 PUSH1 0x4 DUP1 CALLDATASIZE SUB DUP2 ADD SWAP1 PUSH2 0x230 SWAP2 SWAP1 PUSH2 0x234A JUMP JUMPDEST PUSH2 0xB2E JUMP JUMPDEST PUSH1 0x40 MLOAD PUSH2 0x242 SWAP2 SWAP1 PUSH2 0x23A5 JUMP JUMPDEST PUSH1 0x40 MLOAD DUP1 SWAP2 SUB SWAP1 RETURN JUMPDEST PUSH2 0x265 PUSH1 0x4 DUP1 CALLDATASIZE SUB DUP2 ADD SWAP1 PUSH2 0x260 SWAP2 SWAP1 PUSH2 0x24A1 JUMP JUMPDEST PUSH2 0xD91 JUMP JUMPDEST PUSH1 0x40 MLOAD PUSH2 0x272 SWAP2 SWAP1 PUSH2 0x23CF JUMP JUMPDEST PUSH1 0x40 MLOAD DUP1 SWAP2 SUB SWAP1 RETURN JUMPDEST PUSH2 0x295 PUSH1 0x4 DUP1 CALLDATASIZE SUB DUP2 ADD SWAP1 PUSH2 0x290 SWAP2 SWAP1 PUSH2 0x24FA JUMP JUMPDEST PUSH2 0xDDA JUMP JUMPDEST PUSH1 0x40 MLOAD PUSH2 0x2A2 SWAP2 SWAP1 PUSH2 0x23A5 JUMP JUMPDEST PUSH1 0x40 MLOAD DUP1 SWAP2 SUB SWAP1 RETURN JUMPDEST PUSH2 0x2C5 PUSH1 0x4 DUP1 CALLDATASIZE SUB DUP2 ADD SWAP1 PUSH2 0x2C0 SWAP2 SWAP1 PUSH2 0x24A1 JUMP JUMPDEST PUSH2 0xF6D JUMP JUMPDEST PUSH1 0x40 MLOAD PUSH2 0x2D2 SWAP2 SWAP1 PUSH2 0x23CF JUMP JUMPDEST PUSH1 0x40 MLOAD DUP1 SWAP2 SUB SWAP1 RETURN JUMPDEST PUSH2 0x2F5 PUSH1 0x4 DUP1 CALLDATASIZE SUB DUP2 ADD SWAP1 PUSH2 0x2F0 SWAP2 SWAP1 PUSH2 0x24A1 JUMP JUMPDEST PUSH2 0xFB6 JUMP JUMPDEST PUSH1 0x40 MLOAD PUSH2 0x302 SWAP2 SWAP1 PUSH2 0x23CF JUMP JUMPDEST PUSH1 0x40 MLOAD DUP1 SWAP2 SUB SWAP1 RETURN JUMPDEST PUSH2 0x313 PUSH2 0xFFF JUMP JUMPDEST PUSH1 0x40 MLOAD PUSH2 0x320 SWAP2 SWAP1 PUSH2 0x2280 JUMP JUMPDEST PUSH1 0x40 MLOAD DUP1 SWAP2 SUB SWAP1 RETURN JUMPDEST PUSH2 0x343 PUSH1 0x4 DUP1 CALLDATASIZE SUB DUP2 ADD SWAP1 PUSH2 0x33E SWAP2 SWAP1 PUSH2 0x24FA JUMP JUMPDEST PUSH2 0x1094 JUMP JUMPDEST PUSH1 0x40 MLOAD PUSH2 0x350 SWAP2 SWAP1 PUSH2 0x23A5 JUMP JUMPDEST PUSH1 0x40 MLOAD DUP1 SWAP2 SUB SWAP1 RETURN JUMPDEST PUSH2 0x373 PUSH1 0x4 DUP1 CALLDATASIZE SUB DUP2 ADD SWAP1 PUSH2 0x36E SWAP2 SWAP1 PUSH2 0x234A JUMP JUMPDEST PUSH2 0x12DB JUMP JUMPDEST PUSH1 0x40 MLOAD PUSH2 0x380 SWAP2 SWAP1 PUSH2 0x23A5 JUMP JUMPDEST PUSH1 0x40 MLOAD DUP1 SWAP2 SUB SWAP1 RETURN JUMPDEST PUSH2 0x3A3 PUSH1 0x4 DUP1 CALLDATASIZE SUB DUP2 ADD SWAP1 PUSH2 0x39E SWAP2 SWAP1 PUSH2 0x243D JUMP JUMPDEST PUSH2 0x1574 JUMP JUMPDEST PUSH1 0x40 MLOAD PUSH2 0x3B0 SWAP2 SWAP1 PUSH2 0x23A5 JUMP JUMPDEST PUSH1 0x40 MLOAD DUP1 SWAP2 SUB SWAP1 RETURN JUMPDEST PUSH2 0x3D3 PUSH1 0x4 DUP1 CALLDATASIZE SUB DUP2 ADD SWAP1 PUSH2 0x3CE SWAP2 SWAP1 PUSH2 0x234A JUMP JUMPDEST PUSH2 0x1709 JUMP JUMPDEST PUSH1 0x40 MLOAD PUSH2 0x3E0 SWAP2 SWAP1 PUSH2 0x23A5 JUMP JUMPDEST PUSH1 0x40 MLOAD DUP1 SWAP2 SUB SWAP1 RETURN JUMPDEST PUSH2 0x3F1 PUSH2 0x1754 JUMP JUMPDEST PUSH1 0x40 MLOAD PUSH2 0x3FE SWAP2 SWAP1 PUSH2 0x23CF JUMP JUMPDEST PUSH1 0x40 MLOAD DUP1 SWAP2 SUB SWAP1 RETURN JUMPDEST PUSH2 0x421 PUSH1 0x4 DUP1 CALLDATASIZE SUB DUP2 ADD SWAP1 PUSH2 0x41C SWAP2 SWAP1 PUSH2 0x24FA JUMP JUMPDEST PUSH2 0x1761 JUMP JUMPDEST PUSH1 0x40 MLOAD PUSH2 0x42E SWAP2 SWAP1 PUSH2 0x23A5 JUMP JUMPDEST PUSH1 0x40 MLOAD DUP1 SWAP2 SUB SWAP1 RETURN JUMPDEST PUSH2 0x451 PUSH1 0x4 DUP1 CALLDATASIZE SUB DUP2 ADD SWAP1 PUSH2 0x44C SWAP2 SWAP1 PUSH2 0x2527 JUMP JUMPDEST PUSH2 0x19A8 JUMP JUMPDEST PUSH1 0x40 MLOAD PUSH2 0x45E SWAP2 SWAP1 PUSH2 0x23CF JUMP JUMPDEST PUSH1 0x40 MLOAD DUP1 SWAP2 SUB SWAP1 RETURN JUMPDEST PUSH2 0x481 PUSH1 0x4 DUP1 CALLDATASIZE SUB DUP2 ADD SWAP1 PUSH2 0x47C SWAP2 SWAP1 PUSH2 0x269C JUMP JUMPDEST PUSH2 0x1A2F JUMP JUMPDEST PUSH1 0x40 MLOAD PUSH2 0x48E SWAP2 SWAP1 PUSH2 0x23A5 JUMP JUMPDEST PUSH1 0x40 MLOAD DUP1 SWAP2 SUB SWAP1 RETURN JUMPDEST PUSH1 0x60 PUSH1 0x13 PUSH1 0x0 ADD DUP1 SLOAD PUSH2 0x4A9 SWAP1 PUSH2 0x2714 JUMP JUMPDEST DUP1 PUSH1 0x1F ADD PUSH1 0x20 DUP1 SWAP2 DIV MUL PUSH1 0x20 ADD PUSH1 0x40 MLOAD SWAP1 DUP2 ADD PUSH1 0x40 MSTORE DUP1 SWAP3 SWAP2 SWAP1 DUP2 DUP2 MSTORE PUSH1 0x20 ADD DUP3 DUP1 SLOAD PUSH2 0x4D5 SWAP1 PUSH2 0x2714 JUMP JUMPDEST DUP1 ISZERO PUSH2 0x522 JUMPI DUP1 PUSH1 0x1F LT PUSH2 0x4F7 JUMPI PUSH2 0x100 DUP1 DUP4 SLOAD DIV MUL DUP4 MSTORE SWAP2 PUSH1 0x20 ADD SWAP2 PUSH2 0x522 JUMP JUMPDEST DUP3 ADD SWAP2 SWAP1 PUSH1 0x0 MSTORE PUSH1 0x20 PUSH1 0x0 KECCAK256 SWAP1 JUMPDEST DUP2 SLOAD DUP2 MSTORE SWAP1 PUSH1 0x1 ADD SWAP1 PUSH1 0x20 ADD DUP1 DUP4 GT PUSH2 0x505 JUMPI DUP3 SWAP1 SUB PUSH1 0x1F AND DUP3 ADD SWAP2 JUMPDEST POP POP POP POP POP SWAP1 POP SWAP1 JUMP JUMPDEST PUSH1 0x0 DUP1 PUSH20 0xFFFFFFFFFFFFFFFFFFFFFFFFFFFFFFFFFFFFFFFF AND PUSH1 0x0 DUP1 SLOAD SWAP1 PUSH2 0x100 EXP SWAP1 DIV PUSH20 0xFFFFFFFFFFFFFFFFFFFFFFFFFFFFFFFFFFFFFFFF AND PUSH20 0xFFFFFFFFFFFFFFFFFFFFFFFFFFFFFFFFFFFFFFFF AND EQ ISZERO DUP1 ISZERO PUSH2 0x5B7 JUMPI POP PUSH1 0x0 PUSH20 0xFFFFFFFFFFFFFFFFFFFFFFFFFFFFFFFFFFFFFFFF AND DUP4 PUSH20 0xFFFFFFFFFFFFFFFFFFFFFFFFFFFFFFFFFFFFFFFF AND EQ ISZERO JUMPDEST PUSH2 0x5F6 JUMPI PUSH1 0x40 MLOAD PUSH32 0x8C379A000000000000000000000000000000000000000000000000000000000 DUP2 MSTORE PUSH1 0x4 ADD PUSH2 0x5ED SWAP1 PUSH2 0x2791 JUMP JUMPDEST PUSH1 0x40 MLOAD DUP1 SWAP2 SUB SWAP1 REVERT JUMPDEST DUP2 PUSH1 0x20 PUSH1 0x0 DUP1 PUSH1 0x0 SWAP1 SLOAD SWAP1 PUSH2 0x100 EXP SWAP1 DIV PUSH20 0xFFFFFFFFFFFFFFFFFFFFFFFFFFFFFFFFFFFFFFFF AND PUSH20 0xFFFFFFFFFFFFFFFFFFFFFFFFFFFFFFFFFFFFFFFF AND PUSH20 0xFFFFFFFFFFFFFFFFFFFFFFFFFFFFFFFFFFFFFFFF AND DUP2 MSTORE PUSH1 0x20 ADD SWAP1 DUP2 MSTORE PUSH1 0x20 ADD PUSH1 0x0 KECCAK256 PUSH1 0x0 DUP6 PUSH20 0xFFFFFFFFFFFFFFFFFFFFFFFFFFFFFFFFFFFFFFFF AND PUSH20 0xFFFFFFFFFFFFFFFFFFFFFFFFFFFFFFFFFFFFFFFF AND DUP2 MSTORE PUSH1 0x20 ADD SWAP1 DUP2 MSTORE PUSH1 0x20 ADD PUSH1 0x0 KECCAK256 DUP2 SWAP1 SSTORE POP DUP3 PUSH20 0xFFFFFFFFFFFFFFFFFFFFFFFFFFFFFFFFFFFFFFFF AND PUSH1 0x0 DUP1 SLOAD SWAP1 PUSH2 0x100 EXP SWAP1 DIV PUSH20 0xFFFFFFFFFFFFFFFFFFFFFFFFFFFFFFFFFFFFFFFF AND PUSH20 0xFFFFFFFFFFFFFFFFFFFFFFFFFFFFFFFFFFFFFFFF AND PUSH32 0x8C5BE1E5EBEC7D5BD14F71427D1E84F3DD0314C0F7B2291E5B200AC8C7C3B925 DUP5 PUSH1 0x40 MLOAD PUSH2 0x715 SWAP2 SWAP1 PUSH2 0x23CF JUMP JUMPDEST PUSH1 0x40 MLOAD DUP1 SWAP2 SUB SWAP1 LOG3 PUSH1 0x1 SWAP1 POP SWAP3 SWAP2 POP POP JUMP JUMPDEST PUSH1 0x0 PUSH1 0x13 PUSH1 0x3 ADD SLOAD SWAP1 POP SWAP1 JUMP JUMPDEST PUSH1 0x0 PUSH32 0xFFFFFFFFFFFFFFFFFFFFFFFFFFFFFFFFFFFFFFFFFFFFFFFFFFFFFFFFFFFFFFFF PUSH2 0x781 DUP6 PUSH1 0x0 DUP1 SLOAD SWAP1 PUSH2 0x100 EXP SWAP1 DIV PUSH20 0xFFFFFFFFFFFFFFFFFFFFFFFFFFFFFFFFFFFFFFFF AND PUSH2 0x19A8 JUMP JUMPDEST EQ ISZERO DUP1 ISZERO PUSH2 0x7B8 JUMPI POP DUP2 PUSH2 0x7B5 DUP6 PUSH1 0x0 DUP1 SLOAD SWAP1 PUSH2 0x100 EXP SWAP1 DIV PUSH20 0xFFFFFFFFFFFFFFFFFFFFFFFFFFFFFFFFFFFFFFFF AND PUSH2 0x19A8 JUMP JUMPDEST LT ISZERO JUMPDEST PUSH2 0x7C1 JUMPI PUSH1 0x0 DUP1 REVERT JUMPDEST DUP2 PUSH1 0x20 PUSH1 0x0 DUP7 PUSH20 0xFFFFFFFFFFFFFFFFFFFFFFFFFFFFFFFFFFFFFFFF AND PUSH20 0xFFFFFFFFFFFFFFFFFFFFFFFFFFFFFFFFFFFFFFFF AND DUP2 MSTORE PUSH1 0x20 ADD SWAP1 DUP2 MSTORE PUSH1 0x20 ADD PUSH1 0x0 KECCAK256 PUSH1 0x0 DUP1 PUSH1 0x0 SWAP1 SLOAD SWAP1 PUSH2 0x100 EXP SWAP1 DIV PUSH20 0xFFFFFFFFFFFFFFFFFFFFFFFFFFFFFFFFFFFFFFFF AND PUSH20 0xFFFFFFFFFFFFFFFFFFFFFFFFFFFFFFFFFFFFFFFF AND PUSH20 0xFFFFFFFFFFFFFFFFFFFFFFFFFFFFFFFFFFFFFFFF AND DUP2 MSTORE PUSH1 0x20 ADD SWAP1 DUP2 MSTORE PUSH1 0x20 ADD PUSH1 0x0 KECCAK256 DUP2 SWAP1 SSTORE POP PUSH1 0x0 DUP1 SLOAD SWAP1 PUSH2 0x100 EXP SWAP1 DIV PUSH20 0xFFFFFFFFFFFFFFFFFFFFFFFFFFFFFFFFFFFFFFFF AND PUSH20 0xFFFFFFFFFFFFFFFFFFFFFFFFFFFFFFFFFFFFFFFF AND DUP5 PUSH20 0xFFFFFFFFFFFFFFFFFFFFFFFFFFFFFFFFFFFFFFFF AND PUSH32 0x8C5BE1E5EBEC7D5BD14F71427D1E84F3DD0314C0F7B2291E5B200AC8C7C3B925 DUP5 PUSH1 0x40 MLOAD PUSH2 0x8E0 SWAP2 SWAP1 PUSH2 0x23CF JUMP JUMPDEST PUSH1 0x40 MLOAD DUP1 SWAP2 SUB SWAP1 LOG3 PUSH1 0x0 DUP1 PUSH2 0x902 DUP7 DUP7 DUP7 PUSH1 0x9 PUSH1 0x2 ADD SLOAD PUSH1 0x9 PUSH1 0x3 ADD SLOAD PUSH2 0x1DC3 JUMP JUMPDEST SWAP2 POP SWAP2 POP DUP2 SWAP3 POP POP POP SWAP4 SWAP3 POP POP POP JUMP JUMPDEST PUSH1 0x0 DUP2 PUSH1 0x1E PUSH1 0x0 DUP1 PUSH1 0x0 SWAP1 SLOAD SWAP1 PUSH2 0x100 EXP SWAP1 DIV PUSH20 0xFFFFFFFFFFFFFFFFFFFFFFFFFFFFFFFFFFFFFFFF AND PUSH20 0xFFFFFFFFFFFFFFFFFFFFFFFFFFFFFFFFFFFFFFFF AND PUSH20 0xFFFFFFFFFFFFFFFFFFFFFFFFFFFFFFFFFFFFFFFF AND DUP2 MSTORE PUSH1 0x20 ADD SWAP1 DUP2 MSTORE PUSH1 0x20 ADD PUSH1 0x0 KECCAK256 SLOAD LT ISZERO PUSH2 0x981 JUMPI PUSH1 0x0 DUP1 REVERT JUMPDEST PUSH1 0x0 DUP1 PUSH2 0x9E0 PUSH1 0x13 PUSH1 0x8 ADD PUSH1 0x0 SWAP1 SLOAD SWAP1 PUSH2 0x100 EXP SWAP1 DIV PUSH20 0xFFFFFFFFFFFFFFFFFFFFFFFFFFFFFFFFFFFFFFFF AND PUSH1 0x0 DUP1 SLOAD SWAP1 PUSH2 0x100 EXP SWAP1 DIV PUSH20 0xFFFFFFFFFFFFFFFFFFFFFFFFFFFFFFFFFFFFFFFF AND DUP7 PUSH1 0x9 PUSH1 0x2 ADD SLOAD PUSH1 0x9 PUSH1 0x3 ADD SLOAD PUSH2 0x1DC3 JUMP JUMPDEST SWAP2 POP SWAP2 POP DUP4 PUSH1 0x1E PUSH1 0x0 DUP1 PUSH1 0x0 SWAP1 SLOAD SWAP1 PUSH2 0x100 EXP SWAP1 DIV PUSH20 0xFFFFFFFFFFFFFFFFFFFFFFFFFFFFFFFFFFFFFFFF AND PUSH20 0xFFFFFFFFFFFFFFFFFFFFFFFFFFFFFFFFFFFFFFFF AND PUSH20 0xFFFFFFFFFFFFFFFFFFFFFFFFFFFFFFFFFFFFFFFF AND DUP2 MSTORE PUSH1 0x20 ADD SWAP1 DUP2 MSTORE PUSH1 0x20 ADD PUSH1 0x0 KECCAK256 PUSH1 0x0 DUP3 DUP3 SLOAD PUSH2 0xA54 SWAP2 SWAP1 PUSH2 0x27E0 JUMP JUMPDEST SWAP3 POP POP DUP2 SWAP1 SSTORE POP DUP4 PUSH1 0x1F PUSH1 0x0 DUP1 PUSH1 0x0 SWAP1 SLOAD SWAP1 PUSH2 0x100 EXP SWAP1 DIV PUSH20 0xFFFFFFFFFFFFFFFFFFFFFFFFFFFFFFFFFFFFFFFF AND PUSH20 0xFFFFFFFFFFFFFFFFFFFFFFFFFFFFFFFFFFFFFFFF AND PUSH20 0xFFFFFFFFFFFFFFFFFFFFFFFFFFFFFFFFFFFFFFFF AND DUP2 MSTORE PUSH1 0x20 ADD SWAP1 DUP2 MSTORE PUSH1 0x20 ADD PUSH1 0x0 KECCAK256 PUSH1 0x0 DUP3 DUP3 SLOAD PUSH2 0xACB SWAP2 SWAP1 PUSH2 0x27E0 JUMP JUMPDEST SWAP3 POP POP DUP2 SWAP1 SSTORE POP DUP4 PUSH1 0x13 PUSH1 0x4 ADD PUSH1 0x0 DUP3 DUP3 SLOAD PUSH2 0xAE7 SWAP2 SWAP1 PUSH2 0x27E0 JUMP JUMPDEST SWAP3 POP POP DUP2 SWAP1 SSTORE POP DUP4 PUSH1 0x13 PUSH1 0x5 ADD PUSH1 0x0 DUP3 DUP3 SLOAD PUSH2 0xB03 SWAP2 SWAP1 PUSH2 0x27E0 JUMP JUMPDEST SWAP3 POP POP DUP2 SWAP1 SSTORE POP DUP2 SWAP3 POP POP POP SWAP2 SWAP1 POP JUMP JUMPDEST PUSH1 0x0 PUSH1 0x13 PUSH1 0x2 ADD PUSH1 0x0 SWAP1 SLOAD SWAP1 PUSH2 0x100 EXP SWAP1 DIV PUSH1 0xFF AND SWAP1 POP SWAP1 JUMP JUMPDEST PUSH1 0x0 DUP1 PUSH20 0xFFFFFFFFFFFFFFFFFFFFFFFFFFFFFFFFFFFFFFFF AND PUSH1 0x0 DUP1 SLOAD SWAP1 PUSH2 0x100 EXP SWAP1 DIV PUSH20 0xFFFFFFFFFFFFFFFFFFFFFFFFFFFFFFFFFFFFFFFF AND PUSH20 0xFFFFFFFFFFFFFFFFFFFFFFFFFFFFFFFFFFFFFFFF AND EQ ISZERO DUP1 ISZERO PUSH2 0xBB9 JUMPI POP PUSH1 0x0 PUSH20 0xFFFFFFFFFFFFFFFFFFFFFFFFFFFFFFFFFFFFFFFF AND DUP4 PUSH20 0xFFFFFFFFFFFFFFFFFFFFFFFFFFFFFFFFFFFFFFFF AND EQ ISZERO JUMPDEST PUSH2 0xBF8 JUMPI PUSH1 0x40 MLOAD PUSH32 0x8C379A000000000000000000000000000000000000000000000000000000000 DUP2 MSTORE PUSH1 0x4 ADD PUSH2 0xBEF SWAP1 PUSH2 0x2791 JUMP JUMPDEST PUSH1 0x40 MLOAD DUP1 SWAP2 SUB SWAP1 REVERT JUMPDEST DUP2 PUSH2 0xC23 PUSH1 0x0 DUP1 SLOAD SWAP1 PUSH2 0x100 EXP SWAP1 DIV PUSH20 0xFFFFFFFFFFFFFFFFFFFFFFFFFFFFFFFFFFFFFFFF AND DUP6 PUSH2 0x19A8 JUMP JUMPDEST PUSH2 0xC2D SWAP2 SWAP1 PUSH2 0x2814 JUMP JUMPDEST PUSH1 0x20 PUSH1 0x0 DUP1 PUSH1 0x0 SWAP1 SLOAD SWAP1 PUSH2 0x100 EXP SWAP1 DIV PUSH20 0xFFFFFFFFFFFFFFFFFFFFFFFFFFFFFFFFFFFFFFFF AND PUSH20 0xFFFFFFFFFFFFFFFFFFFFFFFFFFFFFFFFFFFFFFFF AND PUSH20 0xFFFFFFFFFFFFFFFFFFFFFFFFFFFFFFFFFFFFFFFF AND DUP2 MSTORE PUSH1 0x20 ADD SWAP1 DUP2 MSTORE PUSH1 0x20 ADD PUSH1 0x0 KECCAK256 PUSH1 0x0 DUP6 PUSH20 0xFFFFFFFFFFFFFFFFFFFFFFFFFFFFFFFFFFFFFFFF AND PUSH20 0xFFFFFFFFFFFFFFFFFFFFFFFFFFFFFFFFFFFFFFFF AND DUP2 MSTORE PUSH1 0x20 ADD SWAP1 DUP2 MSTORE PUSH1 0x20 ADD PUSH1 0x0 KECCAK256 DUP2 SWAP1 SSTORE POP DUP3 PUSH20 0xFFFFFFFFFFFFFFFFFFFFFFFFFFFFFFFFFFFFFFFF AND PUSH1 0x0 DUP1 SLOAD SWAP1 PUSH2 0x100 EXP SWAP1 DIV PUSH20 0xFFFFFFFFFFFFFFFFFFFFFFFFFFFFFFFFFFFFFFFF AND PUSH20 0xFFFFFFFFFFFFFFFFFFFFFFFFFFFFFFFFFFFFFFFF AND PUSH32 0x8C5BE1E5EBEC7D5BD14F71427D1E84F3DD0314C0F7B2291E5B200AC8C7C3B925 DUP5 PUSH2 0xD68 PUSH1 0x0 DUP1 SLOAD SWAP1 PUSH2 0x100 EXP SWAP1 DIV PUSH20 0xFFFFFFFFFFFFFFFFFFFFFFFFFFFFFFFFFFFFFFFF AND DUP9 PUSH2 0x19A8 JUMP JUMPDEST PUSH2 0xD72 SWAP2 SWAP1 PUSH2 0x2814 JUMP JUMPDEST PUSH1 0x40 MLOAD PUSH2 0xD7F SWAP2 SWAP1 PUSH2 0x23CF JUMP JUMPDEST PUSH1 0x40 MLOAD DUP1 SWAP2 SUB SWAP1 LOG3 PUSH1 0x1 SWAP1 POP SWAP3 SWAP2 POP POP JUMP JUMPDEST PUSH1 0x0 PUSH1 0x1E PUSH1 0x0 DUP4 PUSH20 0xFFFFFFFFFFFFFFFFFFFFFFFFFFFFFFFFFFFFFFFF AND PUSH20 0xFFFFFFFFFFFFFFFFFFFFFFFFFFFFFFFFFFFFFFFF AND DUP2 MSTORE PUSH1 0x20 ADD SWAP1 DUP2 MSTORE PUSH1 0x20 ADD PUSH1 0x0 KECCAK256 SLOAD SWAP1 POP SWAP2 SWAP1 POP JUMP JUMPDEST PUSH1 0x0 PUSH1 0x1 ISZERO ISZERO PUSH1 0x1 PUSH1 0x0 DUP1 PUSH1 0x0 SWAP1 SLOAD SWAP1 PUSH2 0x100 EXP SWAP1 DIV PUSH20 0xFFFFFFFFFFFFFFFFFFFFFFFFFFFFFFFFFFFFFFFF AND PUSH20 0xFFFFFFFFFFFFFFFFFFFFFFFFFFFFFFFFFFFFFFFF AND PUSH20 0xFFFFFFFFFFFFFFFFFFFFFFFFFFFFFFFFFFFFFFFF AND DUP2 MSTORE PUSH1 0x20 ADD SWAP1 DUP2 MSTORE PUSH1 0x20 ADD PUSH1 0x0 KECCAK256 PUSH1 0x0 SWAP1 SLOAD SWAP1 PUSH2 0x100 EXP SWAP1 DIV PUSH1 0xFF AND ISZERO ISZERO EQ PUSH2 0xE90 JUMPI PUSH1 0x40 MLOAD PUSH32 0x8C379A000000000000000000000000000000000000000000000000000000000 DUP2 MSTORE PUSH1 0x4 ADD PUSH2 0xE87 SWAP1 PUSH2 0x28BA JUMP JUMPDEST PUSH1 0x40 MLOAD DUP1 SWAP2 SUB SWAP1 REVERT JUMPDEST PUSH1 0x1 ISZERO ISZERO PUSH1 0x2 PUSH1 0x0 DUP1 PUSH1 0x0 SWAP1 SLOAD SWAP1 PUSH2 0x100 EXP SWAP1 DIV PUSH20 0xFFFFFFFFFFFFFFFFFFFFFFFFFFFFFFFFFFFFFFFF AND PUSH20 0xFFFFFFFFFFFFFFFFFFFFFFFFFFFFFFFFFFFFFFFF AND PUSH20 0xFFFFFFFFFFFFFFFFFFFFFFFFFFFFFFFFFFFFFFFF AND DUP2 MSTORE PUSH1 0x20 ADD SWAP1 DUP2 MSTORE PUSH1 0x20 ADD PUSH1 0x0 KECCAK256 PUSH1 0x0 SWAP1 SLOAD SWAP1 PUSH2 0x100 EXP SWAP1 DIV PUSH1 0xFF AND ISZERO ISZERO EQ PUSH2 0xF44 JUMPI PUSH1 0x40 MLOAD PUSH32 0x8C379A000000000000000000000000000000000000000000000000000000000 DUP2 MSTORE PUSH1 0x4 ADD PUSH2 0xF3B SWAP1 PUSH2 0x294C JUMP JUMPDEST PUSH1 0x40 MLOAD DUP1 SWAP2 SUB SWAP1 REVERT JUMPDEST DUP2 PUSH1 0x9 PUSH1 0x6 ADD PUSH1 0x0 ADD PUSH1 0x1 PUSH2 0x100 EXP DUP2 SLOAD DUP2 PUSH1 0xFF MUL NOT AND SWAP1 DUP4 ISZERO ISZERO MUL OR SWAP1 SSTORE POP PUSH1 0x1 SWAP1 POP SWAP2 SWAP1 POP JUMP JUMPDEST PUSH1 0x0 PUSH1 0x1D PUSH1 0x0 DUP4 PUSH20 0xFFFFFFFFFFFFFFFFFFFFFFFFFFFFFFFFFFFFFFFF AND PUSH20 0xFFFFFFFFFFFFFFFFFFFFFFFFFFFFFFFFFFFFFFFF AND DUP2 MSTORE PUSH1 0x20 ADD SWAP1 DUP2 MSTORE PUSH1 0x20 ADD PUSH1 0x0 KECCAK256 SLOAD SWAP1 POP SWAP2 SWAP1 POP JUMP JUMPDEST PUSH1 0x0 PUSH1 0x1F PUSH1 0x0 DUP4 PUSH20 0xFFFFFFFFFFFFFFFFFFFFFFFFFFFFFFFFFFFFFFFF AND PUSH20 0xFFFFFFFFFFFFFFFFFFFFFFFFFFFFFFFFFFFFFFFF AND DUP2 MSTORE PUSH1 0x20 ADD SWAP1 DUP2 MSTORE PUSH1 0x20 ADD PUSH1 0x0 KECCAK256 SLOAD SWAP1 POP SWAP2 SWAP1 POP JUMP JUMPDEST PUSH1 0x60 PUSH1 0x13 PUSH1 0x1 ADD DUP1 SLOAD PUSH2 0x1011 SWAP1 PUSH2 0x2714 JUMP JUMPDEST DUP1 PUSH1 0x1F ADD PUSH1 0x20 DUP1 SWAP2 DIV MUL PUSH1 0x20 ADD PUSH1 0x40 MLOAD SWAP1 DUP2 ADD PUSH1 0x40 MSTORE DUP1 SWAP3 SWAP2 SWAP1 DUP2 DUP2 MSTORE PUSH1 0x20 ADD DUP3 DUP1 SLOAD PUSH2 0x103D SWAP1 PUSH2 0x2714 JUMP JUMPDEST DUP1 ISZERO PUSH2 0x108A JUMPI DUP1 PUSH1 0x1F LT PUSH2 0x105F JUMPI PUSH2 0x100 DUP1 DUP4 SLOAD DIV MUL DUP4 MSTORE SWAP2 PUSH1 0x20 ADD SWAP2 PUSH2 0x108A JUMP JUMPDEST DUP3 ADD SWAP2 SWAP1 PUSH1 0x0 MSTORE PUSH1 0x20 PUSH1 0x0 KECCAK256 SWAP1 JUMPDEST DUP2 SLOAD DUP2 MSTORE SWAP1 PUSH1 0x1 ADD SWAP1 PUSH1 0x20 ADD DUP1 DUP4 GT PUSH2 0x106D JUMPI DUP3 SWAP1 SUB PUSH1 0x1F AND DUP3 ADD SWAP2 JUMPDEST POP POP POP POP POP SWAP1 POP SWAP1 JUMP JUMPDEST PUSH1 0x0 PUSH1 0x1 ISZERO ISZERO PUSH1 0x1 PUSH1 0x0 DUP1 PUSH1 0x0 SWAP1 SLOAD SWAP1 PUSH2 0x100 EXP SWAP1 DIV PUSH20 0xFFFFFFFFFFFFFFFFFFFFFFFFFFFFFFFFFFFFFFFF AND PUSH20 0xFFFFFFFFFFFFFFFFFFFFFFFFFFFFFFFFFFFFFFFF AND PUSH20 0xFFFFFFFFFFFFFFFFFFFFFFFFFFFFFFFFFFFFFFFF AND DUP2 MSTORE PUSH1 0x20 ADD SWAP1 DUP2 MSTORE PUSH1 0x20 ADD PUSH1 0x0 KECCAK256 PUSH1 0x0 SWAP1 SLOAD SWAP1 PUSH2 0x100 EXP SWAP1 DIV PUSH1 0xFF AND ISZERO ISZERO EQ PUSH2 0x114A JUMPI PUSH1 0x40 MLOAD PUSH32 0x8C379A000000000000000000000000000000000000000000000000000000000 DUP2 MSTORE PUSH1 0x4 ADD PUSH2 0x1141 SWAP1 PUSH2 0x28BA JUMP JUMPDEST PUSH1 0x40 MLOAD DUP1 SWAP2 SUB SWAP1 REVERT JUMPDEST PUSH1 0x1 ISZERO ISZERO PUSH1 0x2 PUSH1 0x0 DUP1 PUSH1 0x0 SWAP1 SLOAD SWAP1 PUSH2 0x100 EXP SWAP1 DIV PUSH20 0xFFFFFFFFFFFFFFFFFFFFFFFFFFFFFFFFFFFFFFFF AND PUSH20 0xFFFFFFFFFFFFFFFFFFFFFFFFFFFFFFFFFFFFFFFF AND PUSH20 0xFFFFFFFFFFFFFFFFFFFFFFFFFFFFFFFFFFFFFFFF AND DUP2 MSTORE PUSH1 0x20 ADD SWAP1 DUP2 MSTORE PUSH1 0x20 ADD PUSH1 0x0 KECCAK256 PUSH1 0x0 SWAP1 SLOAD SWAP1 PUSH2 0x100 EXP SWAP1 DIV PUSH1 0xFF AND ISZERO ISZERO EQ PUSH2 0x11FE JUMPI PUSH1 0x40 MLOAD PUSH32 0x8C379A000000000000000000000000000000000000000000000000000000000 DUP2 MSTORE PUSH1 0x4 ADD PUSH2 0x11F5 SWAP1 PUSH2 0x294C JUMP JUMPDEST PUSH1 0x40 MLOAD DUP1 SWAP2 SUB SWAP1 REVERT JUMPDEST PUSH1 0x1 ISZERO ISZERO PUSH1 0x4 PUSH1 0x0 DUP1 PUSH1 0x0 SWAP1 SLOAD SWAP1 PUSH2 0x100 EXP SWAP1 DIV PUSH20 0xFFFFFFFFFFFFFFFFFFFFFFFFFFFFFFFFFFFFFFFF AND PUSH20 0xFFFFFFFFFFFFFFFFFFFFFFFFFFFFFFFFFFFFFFFF AND PUSH20 0xFFFFFFFFFFFFFFFFFFFFFFFFFFFFFFFFFFFFFFFF AND DUP2 MSTORE PUSH1 0x20 ADD SWAP1 DUP2 MSTORE PUSH1 0x20 ADD PUSH1 0x0 KECCAK256 PUSH1 0x0 SWAP1 SLOAD SWAP1 PUSH2 0x100 EXP SWAP1 DIV PUSH1 0xFF AND ISZERO ISZERO EQ PUSH2 0x12B2 JUMPI PUSH1 0x40 MLOAD PUSH32 0x8C379A000000000000000000000000000000000000000000000000000000000 DUP2 MSTORE PUSH1 0x4 ADD PUSH2 0x12A9 SWAP1 PUSH2 0x29DE JUMP JUMPDEST PUSH1 0x40 MLOAD DUP1 SWAP2 SUB SWAP1 REVERT JUMPDEST DUP2 PUSH1 0x9 PUSH1 0x6 ADD PUSH1 0x0 ADD PUSH1 0x0 PUSH2 0x100 EXP DUP2 SLOAD DUP2 PUSH1 0xFF MUL NOT AND SWAP1 DUP4 ISZERO ISZERO MUL OR SWAP1 SSTORE POP PUSH1 0x1 SWAP1 POP SWAP2 SWAP1 POP JUMP JUMPDEST PUSH1 0x0 DUP2 PUSH2 0x1308 PUSH1 0x0 DUP1 SLOAD SWAP1 PUSH2 0x100 EXP SWAP1 DIV PUSH20 0xFFFFFFFFFFFFFFFFFFFFFFFFFFFFFFFFFFFFFFFF AND DUP6 PUSH2 0x19A8 JUMP JUMPDEST LT ISZERO DUP1 ISZERO PUSH2 0x1363 JUMPI POP PUSH1 0x0 PUSH20 0xFFFFFFFFFFFFFFFFFFFFFFFFFFFFFFFFFFFFFFFF AND PUSH1 0x0 DUP1 SLOAD SWAP1 PUSH2 0x100 EXP SWAP1 DIV PUSH20 0xFFFFFFFFFFFFFFFFFFFFFFFFFFFFFFFFFFFFFFFF AND PUSH20 0xFFFFFFFFFFFFFFFFFFFFFFFFFFFFFFFFFFFFFFFF AND EQ ISZERO JUMPDEST DUP1 ISZERO PUSH2 0x139C JUMPI POP PUSH1 0x0 PUSH20 0xFFFFFFFFFFFFFFFFFFFFFFFFFFFFFFFFFFFFFFFF AND DUP4 PUSH20 0xFFFFFFFFFFFFFFFFFFFFFFFFFFFFFFFFFFFFFFFF AND EQ ISZERO JUMPDEST PUSH2 0x13DB JUMPI PUSH1 0x40 MLOAD PUSH32 0x8C379A000000000000000000000000000000000000000000000000000000000 DUP2 MSTORE PUSH1 0x4 ADD PUSH2 0x13D2 SWAP1 PUSH2 0x2A70 JUMP JUMPDEST PUSH1 0x40 MLOAD DUP1 SWAP2 SUB SWAP1 REVERT JUMPDEST DUP2 PUSH2 0x1406 PUSH1 0x0 DUP1 SLOAD SWAP1 PUSH2 0x100 EXP SWAP1 DIV PUSH20 0xFFFFFFFFFFFFFFFFFFFFFFFFFFFFFFFFFFFFFFFF AND DUP6 PUSH2 0x19A8 JUMP JUMPDEST PUSH2 0x1410 SWAP2 SWAP1 PUSH2 0x27E0 JUMP JUMPDEST PUSH1 0x20 PUSH1 0x0 DUP1 PUSH1 0x0 SWAP1 SLOAD SWAP1 PUSH2 0x100 EXP SWAP1 DIV PUSH20 0xFFFFFFFFFFFFFFFFFFFFFFFFFFFFFFFFFFFFFFFF AND PUSH20 0xFFFFFFFFFFFFFFFFFFFFFFFFFFFFFFFFFFFFFFFF AND PUSH20 0xFFFFFFFFFFFFFFFFFFFFFFFFFFFFFFFFFFFFFFFF AND DUP2 MSTORE PUSH1 0x20 ADD SWAP1 DUP2 MSTORE PUSH1 0x20 ADD PUSH1 0x0 KECCAK256 PUSH1 0x0 DUP6 PUSH20 0xFFFFFFFFFFFFFFFFFFFFFFFFFFFFFFFFFFFFFFFF AND PUSH20 0xFFFFFFFFFFFFFFFFFFFFFFFFFFFFFFFFFFFFFFFF AND DUP2 MSTORE PUSH1 0x20 ADD SWAP1 DUP2 MSTORE PUSH1 0x20 ADD PUSH1 0x0 KECCAK256 DUP2 SWAP1 SSTORE POP DUP3 PUSH20 0xFFFFFFFFFFFFFFFFFFFFFFFFFFFFFFFFFFFFFFFF AND PUSH1 0x0 DUP1 SLOAD SWAP1 PUSH2 0x100 EXP SWAP1 DIV PUSH20 0xFFFFFFFFFFFFFFFFFFFFFFFFFFFFFFFFFFFFFFFF AND PUSH20 0xFFFFFFFFFFFFFFFFFFFFFFFFFFFFFFFFFFFFFFFF AND PUSH32 0x8C5BE1E5EBEC7D5BD14F71427D1E84F3DD0314C0F7B2291E5B200AC8C7C3B925 DUP5 PUSH2 0x154B PUSH1 0x0 DUP1 SLOAD SWAP1 PUSH2 0x100 EXP SWAP1 DIV PUSH20 0xFFFFFFFFFFFFFFFFFFFFFFFFFFFFFFFFFFFFFFFF AND DUP9 PUSH2 0x19A8 JUMP JUMPDEST PUSH2 0x1555 SWAP2 SWAP1 PUSH2 0x27E0 JUMP JUMPDEST PUSH1 0x40 MLOAD PUSH2 0x1562 SWAP2 SWAP1 PUSH2 0x23CF JUMP JUMPDEST PUSH1 0x40 MLOAD DUP1 SWAP2 SUB SWAP1 LOG3 PUSH1 0x1 SWAP1 POP SWAP3 SWAP2 POP POP JUMP JUMPDEST PUSH1 0x0 DUP1 PUSH1 0x0 PUSH2 0x15D5 PUSH1 0x0 DUP1 SLOAD SWAP1 PUSH2 0x100 EXP SWAP1 DIV PUSH20 0xFFFFFFFFFFFFFFFFFFFFFFFFFFFFFFFFFFFFFFFF AND PUSH1 0x13 PUSH1 0x8 ADD PUSH1 0x0 SWAP1 SLOAD SWAP1 PUSH2 0x100 EXP SWAP1 DIV PUSH20 0xFFFFFFFFFFFFFFFFFFFFFFFFFFFFFFFFFFFFFFFF AND DUP7 PUSH1 0x9 PUSH1 0x2 ADD SLOAD PUSH1 0x9 PUSH1 0x3 ADD SLOAD PUSH2 0x1DC3 JUMP JUMPDEST SWAP2 POP SWAP2 POP DUP1 PUSH1 0x1E PUSH1 0x0 DUP1 PUSH1 0x0 SWAP1 SLOAD SWAP1 PUSH2 0x100 EXP SWAP1 DIV PUSH20 0xFFFFFFFFFFFFFFFFFFFFFFFFFFFFFFFFFFFFFFFF AND PUSH20 0xFFFFFFFFFFFFFFFFFFFFFFFFFFFFFFFFFFFFFFFF AND PUSH20 0xFFFFFFFFFFFFFFFFFFFFFFFFFFFFFFFFFFFFFFFF AND DUP2 MSTORE PUSH1 0x20 ADD SWAP1 DUP2 MSTORE PUSH1 0x20 ADD PUSH1 0x0 KECCAK256 PUSH1 0x0 DUP3 DUP3 SLOAD PUSH2 0x1649 SWAP2 SWAP1 PUSH2 0x2814 JUMP JUMPDEST SWAP3 POP POP DUP2 SWAP1 SSTORE POP DUP1 PUSH1 0x1F PUSH1 0x0 DUP1 PUSH1 0x0 SWAP1 SLOAD SWAP1 PUSH2 0x100 EXP SWAP1 DIV PUSH20 0xFFFFFFFFFFFFFFFFFFFFFFFFFFFFFFFFFFFFFFFF AND PUSH20 0xFFFFFFFFFFFFFFFFFFFFFFFFFFFFFFFFFFFFFFFF AND PUSH20 0xFFFFFFFFFFFFFFFFFFFFFFFFFFFFFFFFFFFFFFFF AND DUP2 MSTORE PUSH1 0x20 ADD SWAP1 DUP2 MSTORE PUSH1 0x20 ADD PUSH1 0x0 KECCAK256 PUSH1 0x0 DUP3 DUP3 SLOAD PUSH2 0x16C0 SWAP2 SWAP1 PUSH2 0x2814 JUMP JUMPDEST SWAP3 POP POP DUP2 SWAP1 SSTORE POP DUP1 PUSH1 0x13 PUSH1 0x4 ADD PUSH1 0x0 DUP3 DUP3 SLOAD PUSH2 0x16DC SWAP2 SWAP1 PUSH2 0x2814 JUMP JUMPDEST SWAP3 POP POP DUP2 SWAP1 SSTORE POP DUP1 PUSH1 0x13 PUSH1 0x5 ADD PUSH1 0x0 DUP3 DUP3 SLOAD PUSH2 0x16F8 SWAP2 SWAP1 PUSH2 0x2814 JUMP JUMPDEST SWAP3 POP POP DUP2 SWAP1 SSTORE POP DUP2 SWAP3 POP POP POP SWAP2 SWAP1 POP JUMP JUMPDEST PUSH1 0x0 DUP1 PUSH1 0x0 PUSH2 0x1745 PUSH1 0x0 DUP1 SLOAD SWAP1 PUSH2 0x100 EXP SWAP1 DIV PUSH20 0xFFFFFFFFFFFFFFFFFFFFFFFFFFFFFFFFFFFFFFFF AND DUP7 DUP7 PUSH1 0x9 PUSH1 0x2 ADD SLOAD PUSH1 0x9 PUSH1 0x3 ADD SLOAD PUSH2 0x1DC3 JUMP JUMPDEST SWAP2 POP SWAP2 POP DUP2 SWAP3 POP POP POP SWAP3 SWAP2 POP POP JUMP JUMPDEST PUSH1 0x0 PUSH1 0x13 PUSH1 0x6 ADD SLOAD SWAP1 POP SWAP1 JUMP JUMPDEST PUSH1 0x0 PUSH1 0x1 ISZERO ISZERO PUSH1 0x1 PUSH1 0x0 DUP1 PUSH1 0x0 SWAP1 SLOAD SWAP1 PUSH2 0x100 EXP SWAP1 DIV PUSH20 0xFFFFFFFFFFFFFFFFFFFFFFFFFFFFFFFFFFFFFFFF AND PUSH20 0xFFFFFFFFFFFFFFFFFFFFFFFFFFFFFFFFFFFFFFFF AND PUSH20 0xFFFFFFFFFFFFFFFFFFFFFFFFFFFFFFFFFFFFFFFF AND DUP2 MSTORE PUSH1 0x20 ADD SWAP1 DUP2 MSTORE PUSH1 0x20 ADD PUSH1 0x0 KECCAK256 PUSH1 0x0 SWAP1 SLOAD SWAP1 PUSH2 0x100 EXP SWAP1 DIV PUSH1 0xFF AND ISZERO ISZERO EQ PUSH2 0x1817 JUMPI PUSH1 0x40 MLOAD PUSH32 0x8C379A000000000000000000000000000000000000000000000000000000000 DUP2 MSTORE PUSH1 0x4 ADD PUSH2 0x180E SWAP1 PUSH2 0x28BA JUMP JUMPDEST PUSH1 0x40 MLOAD DUP1 SWAP2 SUB SWAP1 REVERT JUMPDEST PUSH1 0x1 ISZERO ISZERO PUSH1 0x2 PUSH1 0x0 DUP1 PUSH1 0x0 SWAP1 SLOAD SWAP1 PUSH2 0x100 EXP SWAP1 DIV PUSH20 0xFFFFFFFFFFFFFFFFFFFFFFFFFFFFFFFFFFFFFFFF AND PUSH20 0xFFFFFFFFFFFFFFFFFFFFFFFFFFFFFFFFFFFFFFFF AND PUSH20 0xFFFFFFFFFFFFFFFFFFFFFFFFFFFFFFFFFFFFFFFF AND DUP2 MSTORE PUSH1 0x20 ADD SWAP1 DUP2 MSTORE PUSH1 0x20 ADD PUSH1 0x0 KECCAK256 PUSH1 0x0 SWAP1 SLOAD SWAP1 PUSH2 0x100 EXP SWAP1 DIV PUSH1 0xFF AND ISZERO ISZERO EQ PUSH2 0x18CB JUMPI PUSH1 0x40 MLOAD PUSH32 0x8C379A000000000000000000000000000000000000000000000000000000000 DUP2 MSTORE PUSH1 0x4 ADD PUSH2 0x18C2 SWAP1 PUSH2 0x294C JUMP JUMPDEST PUSH1 0x40 MLOAD DUP1 SWAP2 SUB SWAP1 REVERT JUMPDEST PUSH1 0x1 ISZERO ISZERO PUSH1 0x4 PUSH1 0x0 DUP1 PUSH1 0x0 SWAP1 SLOAD SWAP1 PUSH2 0x100 EXP SWAP1 DIV PUSH20 0xFFFFFFFFFFFFFFFFFFFFFFFFFFFFFFFFFFFFFFFF AND PUSH20 0xFFFFFFFFFFFFFFFFFFFFFFFFFFFFFFFFFFFFFFFF AND PUSH20 0xFFFFFFFFFFFFFFFFFFFFFFFFFFFFFFFFFFFFFFFF AND DUP2 MSTORE PUSH1 0x20 ADD SWAP1 DUP2 MSTORE PUSH1 0x20 ADD PUSH1 0x0 KECCAK256 PUSH1 0x0 SWAP1 SLOAD SWAP1 PUSH2 0x100 EXP SWAP1 DIV PUSH1 0xFF AND ISZERO ISZERO EQ PUSH2 0x197F JUMPI PUSH1 0x40 MLOAD PUSH32 0x8C379A000000000000000000000000000000000000000000000000000000000 DUP2 MSTORE PUSH1 0x4 ADD PUSH2 0x1976 SWAP1 PUSH2 0x29DE JUMP JUMPDEST PUSH1 0x40 MLOAD DUP1 SWAP2 SUB SWAP1 REVERT JUMPDEST DUP2 PUSH1 0x9 PUSH1 0x6 ADD PUSH1 0x0 ADD PUSH1 0x2 PUSH2 0x100 EXP DUP2 SLOAD DUP2 PUSH1 0xFF MUL NOT AND SWAP1 DUP4 ISZERO ISZERO MUL OR SWAP1 SSTORE POP PUSH1 0x1 SWAP1 POP SWAP2 SWAP1 POP JUMP JUMPDEST PUSH1 0x0 PUSH1 0x20 PUSH1 0x0 DUP5 PUSH20 0xFFFFFFFFFFFFFFFFFFFFFFFFFFFFFFFFFFFFFFFF AND PUSH20 0xFFFFFFFFFFFFFFFFFFFFFFFFFFFFFFFFFFFFFFFF AND DUP2 MSTORE PUSH1 0x20 ADD SWAP1 DUP2 MSTORE PUSH1 0x20 ADD PUSH1 0x0 KECCAK256 PUSH1 0x0 DUP4 PUSH20 0xFFFFFFFFFFFFFFFFFFFFFFFFFFFFFFFFFFFFFFFF AND PUSH20 0xFFFFFFFFFFFFFFFFFFFFFFFFFFFFFFFFFFFFFFFF AND DUP2 MSTORE PUSH1 0x20 ADD SWAP1 DUP2 MSTORE PUSH1 0x20 ADD PUSH1 0x0 KECCAK256 SLOAD SWAP1 POP SWAP3 SWAP2 POP POP JUMP JUMPDEST PUSH1 0x0 DUP1 PUSH1 0x1C PUSH1 0x0 DUP1 PUSH1 0x0 SWAP1 SLOAD SWAP1 PUSH2 0x100 EXP SWAP1 DIV PUSH20 0xFFFFFFFFFFFFFFFFFFFFFFFFFFFFFFFFFFFFFFFF AND PUSH20 0xFFFFFFFFFFFFFFFFFFFFFFFFFFFFFFFFFFFFFFFF AND PUSH20 0xFFFFFFFFFFFFFFFFFFFFFFFFFFFFFFFFFFFFFFFF AND DUP2 MSTORE PUSH1 0x20 ADD SWAP1 DUP2 MSTORE PUSH1 0x20 ADD PUSH1 0x0 KECCAK256 DUP4 PUSH1 0x40 MLOAD PUSH2 0x1AA0 SWAP2 SWAP1 PUSH2 0x2ACC JUMP JUMPDEST SWAP1 DUP2 MSTORE PUSH1 0x20 ADD PUSH1 0x40 MLOAD DUP1 SWAP2 SUB SWAP1 KECCAK256 PUSH1 0x1 ADD DUP1 SLOAD PUSH2 0x1ABC SWAP1 PUSH2 0x2714 JUMP JUMPDEST DUP1 PUSH1 0x1F ADD PUSH1 0x20 DUP1 SWAP2 DIV MUL PUSH1 0x20 ADD PUSH1 0x40 MLOAD SWAP1 DUP2 ADD PUSH1 0x40 MSTORE DUP1 SWAP3 SWAP2 SWAP1 DUP2 DUP2 MSTORE PUSH1 0x20 ADD DUP3 DUP1 SLOAD PUSH2 0x1AE8 SWAP1 PUSH2 0x2714 JUMP JUMPDEST DUP1 ISZERO PUSH2 0x1B35 JUMPI DUP1 PUSH1 0x1F LT PUSH2 0x1B0A JUMPI PUSH2 0x100 DUP1 DUP4 SLOAD DIV MUL DUP4 MSTORE SWAP2 PUSH1 0x20 ADD SWAP2 PUSH2 0x1B35 JUMP JUMPDEST DUP3 ADD SWAP2 SWAP1 PUSH1 0x0 MSTORE PUSH1 0x20 PUSH1 0x0 KECCAK256 SWAP1 JUMPDEST DUP2 SLOAD DUP2 MSTORE SWAP1 PUSH1 0x1 ADD SWAP1 PUSH1 0x20 ADD DUP1 DUP4 GT PUSH2 0x1B18 JUMPI DUP3 SWAP1 SUB PUSH1 0x1F AND DUP3 ADD SWAP2 JUMPDEST POP POP POP POP POP SWAP1 POP TIMESTAMP PUSH1 0x1C PUSH1 0x0 DUP1 PUSH1 0x0 SWAP1 SLOAD SWAP1 PUSH2 0x100 EXP SWAP1 DIV PUSH20 0xFFFFFFFFFFFFFFFFFFFFFFFFFFFFFFFFFFFFFFFF AND PUSH20 0xFFFFFFFFFFFFFFFFFFFFFFFFFFFFFFFFFFFFFFFF AND PUSH20 0xFFFFFFFFFFFFFFFFFFFFFFFFFFFFFFFFFFFFFFFF AND DUP2 MSTORE PUSH1 0x20 ADD SWAP1 DUP2 MSTORE PUSH1 0x20 ADD PUSH1 0x0 KECCAK256 DUP5 PUSH1 0x40 MLOAD PUSH2 0x1BAB SWAP2 SWAP1 PUSH2 0x2ACC JUMP JUMPDEST SWAP1 DUP2 MSTORE PUSH1 0x20 ADD PUSH1 0x40 MLOAD DUP1 SWAP2 SUB SWAP1 KECCAK256 PUSH1 0x4 ADD SLOAD LT ISZERO DUP1 ISZERO PUSH2 0x1C4A JUMPI POP PUSH1 0x0 PUSH1 0x1C PUSH1 0x0 DUP1 PUSH1 0x0 SWAP1 SLOAD SWAP1 PUSH2 0x100 EXP SWAP1 DIV PUSH20 0xFFFFFFFFFFFFFFFFFFFFFFFFFFFFFFFFFFFFFFFF AND PUSH20 0xFFFFFFFFFFFFFFFFFFFFFFFFFFFFFFFFFFFFFFFF AND PUSH20 0xFFFFFFFFFFFFFFFFFFFFFFFFFFFFFFFFFFFFFFFF AND DUP2 MSTORE PUSH1 0x20 ADD SWAP1 DUP2 MSTORE PUSH1 0x20 ADD PUSH1 0x0 KECCAK256 DUP5 PUSH1 0x40 MLOAD PUSH2 0x1C36 SWAP2 SWAP1 PUSH2 0x2ACC JUMP JUMPDEST SWAP1 DUP2 MSTORE PUSH1 0x20 ADD PUSH1 0x40 MLOAD DUP1 SWAP2 SUB SWAP1 KECCAK256 PUSH1 0x5 ADD SLOAD GT JUMPDEST PUSH2 0x1C53 JUMPI PUSH1 0x0 DUP1 REVERT JUMPDEST PUSH2 0x1D2E PUSH1 0x13 PUSH1 0x8 ADD PUSH1 0x0 SWAP1 SLOAD SWAP1 PUSH2 0x100 EXP SWAP1 DIV PUSH20 0xFFFFFFFFFFFFFFFFFFFFFFFFFFFFFFFFFFFFFFFF AND PUSH1 0x0 DUP1 SLOAD SWAP1 PUSH2 0x100 EXP SWAP1 DIV PUSH20 0xFFFFFFFFFFFFFFFFFFFFFFFFFFFFFFFFFFFFFFFF AND PUSH1 0x1C PUSH1 0x0 DUP1 PUSH1 0x0 SWAP1 SLOAD SWAP1 PUSH2 0x100 EXP SWAP1 DIV PUSH20 0xFFFFFFFFFFFFFFFFFFFFFFFFFFFFFFFFFFFFFFFF AND PUSH20 0xFFFFFFFFFFFFFFFFFFFFFFFFFFFFFFFFFFFFFFFF AND PUSH20 0xFFFFFFFFFFFFFFFFFFFFFFFFFFFFFFFFFFFFFFFF AND DUP2 MSTORE PUSH1 0x20 ADD SWAP1 DUP2 MSTORE PUSH1 0x20 ADD PUSH1 0x0 KECCAK256 DUP7 PUSH1 0x40 MLOAD PUSH2 0x1D0B SWAP2 SWAP1 PUSH2 0x2ACC JUMP JUMPDEST SWAP1 DUP2 MSTORE PUSH1 0x20 ADD PUSH1 0x40 MLOAD DUP1 SWAP2 SUB SWAP1 KECCAK256 PUSH1 0x5 ADD SLOAD PUSH1 0x9 PUSH1 0x2 ADD SLOAD PUSH1 0x9 PUSH1 0x3 ADD SLOAD PUSH2 0x1DC3 JUMP JUMPDEST POP POP PUSH1 0x0 PUSH1 0x1C PUSH1 0x0 DUP1 PUSH1 0x0 SWAP1 SLOAD SWAP1 PUSH2 0x100 EXP SWAP1 DIV PUSH20 0xFFFFFFFFFFFFFFFFFFFFFFFFFFFFFFFFFFFFFFFF AND PUSH20 0xFFFFFFFFFFFFFFFFFFFFFFFFFFFFFFFFFFFFFFFF AND PUSH20 0xFFFFFFFFFFFFFFFFFFFFFFFFFFFFFFFFFFFFFFFF AND DUP2 MSTORE PUSH1 0x20 ADD SWAP1 DUP2 MSTORE PUSH1 0x20 ADD PUSH1 0x0 KECCAK256 DUP5 PUSH1 0x40 MLOAD PUSH2 0x1DA0 SWAP2 SWAP1 PUSH2 0x2ACC JUMP JUMPDEST SWAP1 DUP2 MSTORE PUSH1 0x20 ADD PUSH1 0x40 MLOAD DUP1 SWAP2 SUB SWAP1 KECCAK256 PUSH1 0x5 ADD DUP2 SWAP1 SSTORE POP POP SWAP2 SWAP1 POP JUMP JUMPDEST PUSH1 0x0 CALLER SWAP1 POP SWAP1 JUMP JUMPDEST PUSH1 0x0 DUP1 PUSH1 0x0 PUSH20 0xFFFFFFFFFFFFFFFFFFFFFFFFFFFFFFFFFFFFFFFF AND DUP8 PUSH20 0xFFFFFFFFFFFFFFFFFFFFFFFFFFFFFFFFFFFFFFFF AND EQ ISZERO DUP1 ISZERO PUSH2 0x1E30 JUMPI POP PUSH1 0x0 PUSH20 0xFFFFFFFFFFFFFFFFFFFFFFFFFFFFFFFFFFFFFFFF AND DUP7 PUSH20 0xFFFFFFFFFFFFFFFFFFFFFFFFFFFFFFFFFFFFFFFF AND EQ ISZERO JUMPDEST DUP1 ISZERO PUSH2 0x1E7B JUMPI POP DUP5 PUSH1 0x1D PUSH1 0x0 DUP10 PUSH20 0xFFFFFFFFFFFFFFFFFFFFFFFFFFFFFFFFFFFFFFFF AND PUSH20 0xFFFFFFFFFFFFFFFFFFFFFFFFFFFFFFFFFFFFFFFF AND DUP2 MSTORE PUSH1 0x20 ADD SWAP1 DUP2 MSTORE PUSH1 0x20 ADD PUSH1 0x0 KECCAK256 SLOAD LT ISZERO JUMPDEST DUP1 ISZERO PUSH2 0x1EC7 JUMPI POP PUSH1 0x0 PUSH1 0x1D PUSH1 0x0 DUP10 PUSH20 0xFFFFFFFFFFFFFFFFFFFFFFFFFFFFFFFFFFFFFFFF AND PUSH20 0xFFFFFFFFFFFFFFFFFFFFFFFFFFFFFFFFFFFFFFFF AND DUP2 MSTORE PUSH1 0x20 ADD SWAP1 DUP2 MSTORE PUSH1 0x20 ADD PUSH1 0x0 KECCAK256 SLOAD LT ISZERO JUMPDEST DUP1 ISZERO PUSH2 0x1ED4 JUMPI POP PUSH1 0x0 DUP6 LT ISZERO JUMPDEST PUSH2 0x1EDD JUMPI PUSH1 0x0 DUP1 REVERT JUMPDEST DUP5 PUSH1 0x1D PUSH1 0x0 DUP10 PUSH20 0xFFFFFFFFFFFFFFFFFFFFFFFFFFFFFFFFFFFFFFFF AND PUSH20 0xFFFFFFFFFFFFFFFFFFFFFFFFFFFFFFFFFFFFFFFF AND DUP2 MSTORE PUSH1 0x20 ADD SWAP1 DUP2 MSTORE PUSH1 0x20 ADD PUSH1 0x0 KECCAK256 PUSH1 0x0 DUP3 DUP3 SLOAD PUSH2 0x1F2C SWAP2 SWAP1 PUSH2 0x27E0 JUMP JUMPDEST SWAP3 POP POP DUP2 SWAP1 SSTORE POP PUSH1 0x0 DUP5 PUSH2 0x3E8 DUP8 PUSH2 0x1F44 SWAP2 SWAP1 PUSH2 0x2B12 JUMP JUMPDEST PUSH2 0x1F4E SWAP2 SWAP1 PUSH2 0x2B43 JUMP JUMPDEST SWAP1 POP PUSH1 0x0 DUP5 PUSH2 0x3E8 DUP9 PUSH2 0x1F61 SWAP2 SWAP1 PUSH2 0x2B12 JUMP JUMPDEST PUSH2 0x1F6B SWAP2 SWAP1 PUSH2 0x2B43 JUMP JUMPDEST SWAP1 POP PUSH1 0x0 DUP2 DUP4 PUSH2 0x1F7B SWAP2 SWAP1 PUSH2 0x2814 JUMP JUMPDEST DUP9 PUSH2 0x1F86 SWAP2 SWAP1 PUSH2 0x27E0 JUMP JUMPDEST SWAP1 POP DUP1 PUSH1 0x1D PUSH1 0x0 DUP12 PUSH20 0xFFFFFFFFFFFFFFFFFFFFFFFFFFFFFFFFFFFFFFFF AND PUSH20 0xFFFFFFFFFFFFFFFFFFFFFFFFFFFFFFFFFFFFFFFF AND DUP2 MSTORE PUSH1 0x20 ADD SWAP1 DUP2 MSTORE PUSH1 0x20 ADD PUSH1 0x0 KECCAK256 PUSH1 0x0 DUP3 DUP3 SLOAD PUSH2 0x1FD7 SWAP2 SWAP1 PUSH2 0x2814 JUMP JUMPDEST SWAP3 POP POP DUP2 SWAP1 SSTORE POP DUP2 PUSH1 0x1D PUSH1 0x0 PUSH1 0x13 PUSH1 0x8 ADD PUSH1 0x0 SWAP1 SLOAD SWAP1 PUSH2 0x100 EXP SWAP1 DIV PUSH20 0xFFFFFFFFFFFFFFFFFFFFFFFFFFFFFFFFFFFFFFFF AND PUSH20 0xFFFFFFFFFFFFFFFFFFFFFFFFFFFFFFFFFFFFFFFF AND PUSH20 0xFFFFFFFFFFFFFFFFFFFFFFFFFFFFFFFFFFFFFFFF AND DUP2 MSTORE PUSH1 0x20 ADD SWAP1 DUP2 MSTORE PUSH1 0x20 ADD PUSH1 0x0 KECCAK256 PUSH1 0x0 DUP3 DUP3 SLOAD PUSH2 0x2052 SWAP2 SWAP1 PUSH2 0x2814 JUMP JUMPDEST SWAP3 POP POP DUP2 SWAP1 SSTORE POP DUP3 PUSH1 0x13 PUSH1 0x3 ADD PUSH1 0x0 DUP3 DUP3 SLOAD PUSH2 0x206E SWAP2 SWAP1 PUSH2 0x27E0 JUMP JUMPDEST SWAP3 POP POP DUP2 SWAP1 SSTORE POP DUP9 PUSH20 0xFFFFFFFFFFFFFFFFFFFFFFFFFFFFFFFFFFFFFFFF AND DUP11 PUSH20 0xFFFFFFFFFFFFFFFFFFFFFFFFFFFFFFFFFFFFFFFF AND PUSH32 0xDDF252AD1BE2C89B69C2B068FC378DAA952BA7F163C4A11628F55A4DF523B3EF DUP4 PUSH1 0x40 MLOAD PUSH2 0x20D2 SWAP2 SWAP1 PUSH2 0x23CF JUMP JUMPDEST PUSH1 0x40 MLOAD DUP1 SWAP2 SUB SWAP1 LOG3 PUSH1 0x0 DUP4 EQ PUSH2 0x2149 JUMPI PUSH1 0x0 PUSH20 0xFFFFFFFFFFFFFFFFFFFFFFFFFFFFFFFFFFFFFFFF AND DUP11 PUSH20 0xFFFFFFFFFFFFFFFFFFFFFFFFFFFFFFFFFFFFFFFF AND PUSH32 0xDDF252AD1BE2C89B69C2B068FC378DAA952BA7F163C4A11628F55A4DF523B3EF DUP6 PUSH1 0x40 MLOAD PUSH2 0x2140 SWAP2 SWAP1 PUSH2 0x23CF JUMP JUMPDEST PUSH1 0x40 MLOAD DUP1 SWAP2 SUB SWAP1 LOG3 JUMPDEST PUSH1 0x0 DUP3 EQ PUSH2 0x21DC JUMPI PUSH1 0x13 PUSH1 0x8 ADD PUSH1 0x0 SWAP1 SLOAD SWAP1 PUSH2 0x100 EXP SWAP1 DIV PUSH20 0xFFFFFFFFFFFFFFFFFFFFFFFFFFFFFFFFFFFFFFFF AND PUSH20 0xFFFFFFFFFFFFFFFFFFFFFFFFFFFFFFFFFFFFFFFF AND DUP11 PUSH20 0xFFFFFFFFFFFFFFFFFFFFFFFFFFFFFFFFFFFFFFFF AND PUSH32 0xDDF252AD1BE2C89B69C2B068FC378DAA952BA7F163C4A11628F55A4DF523B3EF DUP5 PUSH1 0x40 MLOAD PUSH2 0x21D3 SWAP2 SWAP1 PUSH2 0x23CF JUMP JUMPDEST PUSH1 0x40 MLOAD DUP1 SWAP2 SUB SWAP1 LOG3 JUMPDEST PUSH1 0x1 DUP2 SWAP5 POP SWAP5 POP POP POP POP SWAP6 POP SWAP6 SWAP4 POP POP POP POP JUMP JUMPDEST PUSH1 0x0 DUP2 MLOAD SWAP1 POP SWAP2 SWAP1 POP JUMP JUMPDEST PUSH1 0x0 DUP3 DUP3 MSTORE PUSH1 0x20 DUP3 ADD SWAP1 POP SWAP3 SWAP2 POP POP JUMP JUMPDEST PUSH1 0x0 JUMPDEST DUP4 DUP2 LT ISZERO PUSH2 0x222A JUMPI DUP1 DUP3 ADD MLOAD DUP2 DUP5 ADD MSTORE PUSH1 0x20 DUP2 ADD SWAP1 POP PUSH2 0x220F JUMP JUMPDEST PUSH1 0x0 DUP5 DUP5 ADD MSTORE POP POP POP POP JUMP JUMPDEST PUSH1 0x0 PUSH1 0x1F NOT PUSH1 0x1F DUP4 ADD AND SWAP1 POP SWAP2 SWAP1 POP JUMP JUMPDEST PUSH1 0x0 PUSH2 0x2252 DUP3 PUSH2 0x21F0 JUMP JUMPDEST PUSH2 0x225C DUP2 DUP6 PUSH2 0x21FB JUMP JUMPDEST SWAP4 POP PUSH2 0x226C DUP2 DUP6 PUSH1 0x20 DUP7 ADD PUSH2 0x220C JUMP JUMPDEST PUSH2 0x2275 DUP2 PUSH2 0x2236 JUMP JUMPDEST DUP5 ADD SWAP2 POP POP SWAP3 SWAP2 POP POP JUMP JUMPDEST PUSH1 0x0 PUSH1 0x20 DUP3 ADD SWAP1 POP DUP2 DUP2 SUB PUSH1 0x0 DUP4 ADD MSTORE PUSH2 0x229A DUP2 DUP5 PUSH2 0x2247 JUMP JUMPDEST SWAP1 POP SWAP3 SWAP2 POP POP JUMP JUMPDEST PUSH1 0x0 PUSH1 0x40 MLOAD SWAP1 POP SWAP1 JUMP JUMPDEST PUSH1 0x0 DUP1 REVERT JUMPDEST PUSH1 0x0 DUP1 REVERT JUMPDEST PUSH1 0x0 PUSH20 0xFFFFFFFFFFFFFFFFFFFFFFFFFFFFFFFFFFFFFFFF DUP3 AND SWAP1 POP SWAP2 SWAP1 POP JUMP JUMPDEST PUSH1 0x0 PUSH2 0x22E1 DUP3 PUSH2 0x22B6 JUMP JUMPDEST SWAP1 POP SWAP2 SWAP1 POP JUMP JUMPDEST PUSH2 0x22F1 DUP2 PUSH2 0x22D6 JUMP JUMPDEST DUP2 EQ PUSH2 0x22FC JUMPI PUSH1 0x0 DUP1 REVERT JUMPDEST POP JUMP JUMPDEST PUSH1 0x0 DUP2 CALLDATALOAD SWAP1 POP PUSH2 0x230E DUP2 PUSH2 0x22E8 JUMP JUMPDEST SWAP3 SWAP2 POP POP JUMP JUMPDEST PUSH1 0x0 DUP2 SWAP1 POP SWAP2 SWAP1 POP JUMP JUMPDEST PUSH2 0x2327 DUP2 PUSH2 0x2314 JUMP JUMPDEST DUP2 EQ PUSH2 0x2332 JUMPI PUSH1 0x0 DUP1 REVERT JUMPDEST POP JUMP JUMPDEST PUSH1 0x0 DUP2 CALLDATALOAD SWAP1 POP PUSH2 0x2344 DUP2 PUSH2 0x231E JUMP JUMPDEST SWAP3 SWAP2 POP POP JUMP JUMPDEST PUSH1 0x0 DUP1 PUSH1 0x40 DUP4 DUP6 SUB SLT ISZERO PUSH2 0x2361 JUMPI PUSH2 0x2360 PUSH2 0x22AC JUMP JUMPDEST JUMPDEST PUSH1 0x0 PUSH2 0x236F DUP6 DUP3 DUP7 ADD PUSH2 0x22FF JUMP JUMPDEST SWAP3 POP POP PUSH1 0x20 PUSH2 0x2380 DUP6 DUP3 DUP7 ADD PUSH2 0x2335 JUMP JUMPDEST SWAP2 POP POP SWAP3 POP SWAP3 SWAP1 POP JUMP JUMPDEST PUSH1 0x0 DUP2 ISZERO ISZERO SWAP1 POP SWAP2 SWAP1 POP JUMP JUMPDEST PUSH2 0x239F DUP2 PUSH2 0x238A JUMP JUMPDEST DUP3 MSTORE POP POP JUMP JUMPDEST PUSH1 0x0 PUSH1 0x20 DUP3 ADD SWAP1 POP PUSH2 0x23BA PUSH1 0x0 DUP4 ADD DUP5 PUSH2 0x2396 JUMP JUMPDEST SWAP3 SWAP2 POP POP JUMP JUMPDEST PUSH2 0x23C9 DUP2 PUSH2 0x2314 JUMP JUMPDEST DUP3 MSTORE POP POP JUMP JUMPDEST PUSH1 0x0 PUSH1 0x20 DUP3 ADD SWAP1 POP PUSH2 0x23E4 PUSH1 0x0 DUP4 ADD DUP5 PUSH2 0x23C0 JUMP JUMPDEST SWAP3 SWAP2 POP POP JUMP JUMPDEST PUSH1 0x0 DUP1 PUSH1 0x0 PUSH1 0x60 DUP5 DUP7 SUB SLT ISZERO PUSH2 0x2403 JUMPI PUSH2 0x2402 PUSH2 0x22AC JUMP JUMPDEST JUMPDEST PUSH1 0x0 PUSH2 0x2411 DUP7 DUP3 DUP8 ADD PUSH2 0x22FF JUMP JUMPDEST SWAP4 POP POP PUSH1 0x20 PUSH2 0x2422 DUP7 DUP3 DUP8 ADD PUSH2 0x22FF JUMP JUMPDEST SWAP3 POP POP PUSH1 0x40 PUSH2 0x2433 DUP7 DUP3 DUP8 ADD PUSH2 0x2335 JUMP JUMPDEST SWAP2 POP POP SWAP3 POP SWAP3 POP SWAP3 JUMP JUMPDEST PUSH1 0x0 PUSH1 0x20 DUP3 DUP5 SUB SLT ISZERO PUSH2 0x2453 JUMPI PUSH2 0x2452 PUSH2 0x22AC JUMP JUMPDEST JUMPDEST PUSH1 0x0 PUSH2 0x2461 DUP5 DUP3 DUP6 ADD PUSH2 0x2335 JUMP JUMPDEST SWAP2 POP POP SWAP3 SWAP2 POP POP JUMP JUMPDEST PUSH1 0x0 PUSH1 0xFF DUP3 AND SWAP1 POP SWAP2 SWAP1 POP JUMP JUMPDEST PUSH2 0x2480 DUP2 PUSH2 0x246A JUMP JUMPDEST DUP3 MSTORE POP POP JUMP JUMPDEST PUSH1 0x0 PUSH1 0x20 DUP3 ADD SWAP1 POP PUSH2 0x249B PUSH1 0x0 DUP4 ADD DUP5 PUSH2 0x2477 JUMP JUMPDEST SWAP3 SWAP2 POP POP JUMP JUMPDEST PUSH1 0x0 PUSH1 0x20 DUP3 DUP5 SUB SLT ISZERO PUSH2 0x24B7 JUMPI PUSH2 0x24B6 PUSH2 0x22AC JUMP JUMPDEST JUMPDEST PUSH1 0x0 PUSH2 0x24C5 DUP5 DUP3 DUP6 ADD PUSH2 0x22FF JUMP JUMPDEST SWAP2 POP POP SWAP3 SWAP2 POP POP JUMP JUMPDEST PUSH2 0x24D7 DUP2 PUSH2 0x238A JUMP JUMPDEST DUP2 EQ PUSH2 0x24E2 JUMPI PUSH1 0x0 DUP1 REVERT JUMPDEST POP JUMP JUMPDEST PUSH1 0x0 DUP2 CALLDATALOAD SWAP1 POP PUSH2 0x24F4 DUP2 PUSH2 0x24CE JUMP JUMPDEST SWAP3 SWAP2 POP POP JUMP JUMPDEST PUSH1 0x0 PUSH1 0x20 DUP3 DUP5 SUB SLT ISZERO PUSH2 0x2510 JUMPI PUSH2 0x250F PUSH2 0x22AC JUMP JUMPDEST JUMPDEST PUSH1 0x0 PUSH2 0x251E DUP5 DUP3 DUP6 ADD PUSH2 0x24E5 JUMP JUMPDEST SWAP2 POP POP SWAP3 SWAP2 POP POP JUMP JUMPDEST PUSH1 0x0 DUP1 PUSH1 0x40 DUP4 DUP6 SUB SLT ISZERO PUSH2 0x253E JUMPI PUSH2 0x253D PUSH2 0x22AC JUMP JUMPDEST JUMPDEST PUSH1 0x0 PUSH2 0x254C DUP6 DUP3 DUP7 ADD PUSH2 0x22FF JUMP JUMPDEST SWAP3 POP POP PUSH1 0x20 PUSH2 0x255D DUP6 DUP3 DUP7 ADD PUSH2 0x22FF JUMP JUMPDEST SWAP2 POP POP SWAP3 POP SWAP3 SWAP1 POP JUMP JUMPDEST PUSH1 0x0 DUP1 REVERT JUMPDEST PUSH1 0x0 DUP1 REVERT JUMPDEST PUSH32 0x4E487B7100000000000000000000000000000000000000000000000000000000 PUSH1 0x0 MSTORE PUSH1 0x41 PUSH1 0x4 MSTORE PUSH1 0x24 PUSH1 0x0 REVERT JUMPDEST PUSH2 0x25A9 DUP3 PUSH2 0x2236 JUMP JUMPDEST DUP2 ADD DUP2 DUP2 LT PUSH8 0xFFFFFFFFFFFFFFFF DUP3 GT OR ISZERO PUSH2 0x25C8 JUMPI PUSH2 0x25C7 PUSH2 0x2571 JUMP JUMPDEST JUMPDEST DUP1 PUSH1 0x40 MSTORE POP POP POP JUMP JUMPDEST PUSH1 0x0 PUSH2 0x25DB PUSH2 0x22A2 JUMP JUMPDEST SWAP1 POP PUSH2 0x25E7 DUP3 DUP3 PUSH2 0x25A0 JUMP JUMPDEST SWAP2 SWAP1 POP JUMP JUMPDEST PUSH1 0x0 PUSH8 0xFFFFFFFFFFFFFFFF DUP3 GT ISZERO PUSH2 0x2607 JUMPI PUSH2 0x2606 PUSH2 0x2571 JUMP JUMPDEST JUMPDEST PUSH2 0x2610 DUP3 PUSH2 0x2236 JUMP JUMPDEST SWAP1 POP PUSH1 0x20 DUP2 ADD SWAP1 POP SWAP2 SWAP1 POP JUMP JUMPDEST DUP3 DUP2 DUP4 CALLDATACOPY PUSH1 0x0 DUP4 DUP4 ADD MSTORE POP POP POP JUMP JUMPDEST PUSH1 0x0 PUSH2 0x263F PUSH2 0x263A DUP5 PUSH2 0x25EC JUMP JUMPDEST PUSH2 0x25D1 JUMP JUMPDEST SWAP1 POP DUP3 DUP2 MSTORE PUSH1 0x20 DUP2 ADD DUP5 DUP5 DUP5 ADD GT ISZERO PUSH2 0x265B JUMPI PUSH2 0x265A PUSH2 0x256C JUMP JUMPDEST JUMPDEST PUSH2 0x2666 DUP5 DUP3 DUP6 PUSH2 0x261D JUMP JUMPDEST POP SWAP4 SWAP3 POP POP POP JUMP JUMPDEST PUSH1 0x0 DUP3 PUSH1 0x1F DUP4 ADD SLT PUSH2 0x2683 JUMPI PUSH2 0x2682 PUSH2 0x2567 JUMP JUMPDEST JUMPDEST DUP2 CALLDATALOAD PUSH2 0x2693 DUP5 DUP3 PUSH1 0x20 DUP7 ADD PUSH2 0x262C JUMP JUMPDEST SWAP2 POP POP SWAP3 SWAP2 POP POP JUMP JUMPDEST PUSH1 0x0 PUSH1 0x20 DUP3 DUP5 SUB SLT ISZERO PUSH2 0x26B2 JUMPI PUSH2 0x26B1 PUSH2 0x22AC JUMP JUMPDEST JUMPDEST PUSH1 0x0 DUP3 ADD CALLDATALOAD PUSH8 0xFFFFFFFFFFFFFFFF DUP2 GT ISZERO PUSH2 0x26D0 JUMPI PUSH2 0x26CF PUSH2 0x22B1 JUMP JUMPDEST JUMPDEST PUSH2 0x26DC DUP5 DUP3 DUP6 ADD PUSH2 0x266E JUMP JUMPDEST SWAP2 POP POP SWAP3 SWAP2 POP POP JUMP JUMPDEST PUSH32 0x4E487B7100000000000000000000000000000000000000000000000000000000 PUSH1 0x0 MSTORE PUSH1 0x22 PUSH1 0x4 MSTORE PUSH1 0x24 PUSH1 0x0 REVERT JUMPDEST PUSH1 0x0 PUSH1 0x2 DUP3 DIV SWAP1 POP PUSH1 0x1 DUP3 AND DUP1 PUSH2 0x272C JUMPI PUSH1 0x7F DUP3 AND SWAP2 POP JUMPDEST PUSH1 0x20 DUP3 LT DUP2 SUB PUSH2 0x273F JUMPI PUSH2 0x273E PUSH2 0x26E5 JUMP JUMPDEST JUMPDEST POP SWAP2 SWAP1 POP JUMP JUMPDEST PUSH32 0x7A65726F20616464726573730000000000000000000000000000000000000000 PUSH1 0x0 DUP3 ADD MSTORE POP JUMP JUMPDEST PUSH1 0x0 PUSH2 0x277B PUSH1 0xC DUP4 PUSH2 0x21FB JUMP JUMPDEST SWAP2 POP PUSH2 0x2786 DUP3 PUSH2 0x2745 JUMP JUMPDEST PUSH1 0x20 DUP3 ADD SWAP1 POP SWAP2 SWAP1 POP JUMP JUMPDEST PUSH1 0x0 PUSH1 0x20 DUP3 ADD SWAP1 POP DUP2 DUP2 SUB PUSH1 0x0 DUP4 ADD MSTORE PUSH2 0x27AA DUP2 PUSH2 0x276E JUMP JUMPDEST SWAP1 POP SWAP2 SWAP1 POP JUMP JUMPDEST PUSH32 0x4E487B7100000000000000000000000000000000000000000000000000000000 PUSH1 0x0 MSTORE PUSH1 0x11 PUSH1 0x4 MSTORE PUSH1 0x24 PUSH1 0x0 REVERT JUMPDEST PUSH1 0x0 PUSH2 0x27EB DUP3 PUSH2 0x2314 JUMP JUMPDEST SWAP2 POP PUSH2 0x27F6 DUP4 PUSH2 0x2314 JUMP JUMPDEST SWAP3 POP DUP3 DUP3 SUB SWAP1 POP DUP2 DUP2 GT ISZERO PUSH2 0x280E JUMPI PUSH2 0x280D PUSH2 0x27B1 JUMP JUMPDEST JUMPDEST SWAP3 SWAP2 POP POP JUMP JUMPDEST PUSH1 0x0 PUSH2 0x281F DUP3 PUSH2 0x2314 JUMP JUMPDEST SWAP2 POP PUSH2 0x282A DUP4 PUSH2 0x2314 JUMP JUMPDEST SWAP3 POP DUP3 DUP3 ADD SWAP1 POP DUP1 DUP3 GT ISZERO PUSH2 0x2842 JUMPI PUSH2 0x2841 PUSH2 0x27B1 JUMP JUMPDEST JUMPDEST SWAP3 SWAP2 POP POP JUMP JUMPDEST PUSH32 0x41757468656E74696361746F723A2061646D696E207065726D697373696F6E20 PUSH1 0x0 DUP3 ADD MSTORE PUSH32 0x7265717569726564000000000000000000000000000000000000000000000000 PUSH1 0x20 DUP3 ADD MSTORE POP JUMP JUMPDEST PUSH1 0x0 PUSH2 0x28A4 PUSH1 0x28 DUP4 PUSH2 0x21FB JUMP JUMPDEST SWAP2 POP PUSH2 0x28AF DUP3 PUSH2 0x2848 JUMP JUMPDEST PUSH1 0x40 DUP3 ADD SWAP1 POP SWAP2 SWAP1 POP JUMP JUMPDEST PUSH1 0x0 PUSH1 0x20 DUP3 ADD SWAP1 POP DUP2 DUP2 SUB PUSH1 0x0 DUP4 ADD MSTORE PUSH2 0x28D3 DUP2 PUSH2 0x2897 JUMP JUMPDEST SWAP1 POP SWAP2 SWAP1 POP JUMP JUMPDEST PUSH32 0x41757468656E74696361746F723A20646576207065726D697373696F6E207265 PUSH1 0x0 DUP3 ADD MSTORE PUSH32 0x7175697265640000000000000000000000000000000000000000000000000000 PUSH1 0x20 DUP3 ADD MSTORE POP JUMP JUMPDEST PUSH1 0x0 PUSH2 0x2936 PUSH1 0x26 DUP4 PUSH2 0x21FB JUMP JUMPDEST SWAP2 POP PUSH2 0x2941 DUP3 PUSH2 0x28DA JUMP JUMPDEST PUSH1 0x40 DUP3 ADD SWAP1 POP SWAP2 SWAP1 POP JUMP JUMPDEST PUSH1 0x0 PUSH1 0x20 DUP3 ADD SWAP1 POP DUP2 DUP2 SUB PUSH1 0x0 DUP4 ADD MSTORE PUSH2 0x2965 DUP2 PUSH2 0x2929 JUMP JUMPDEST SWAP1 POP SWAP2 SWAP1 POP JUMP JUMPDEST PUSH32 0x41757468656E74696361746F723A206F70657261746F72207065726D69737369 PUSH1 0x0 DUP3 ADD MSTORE PUSH32 0x6F6E207265717569726564000000000000000000000000000000000000000000 PUSH1 0x20 DUP3 ADD MSTORE POP JUMP JUMPDEST PUSH1 0x0 PUSH2 0x29C8 PUSH1 0x2B DUP4 PUSH2 0x21FB JUMP JUMPDEST SWAP2 POP PUSH2 0x29D3 DUP3 PUSH2 0x296C JUMP JUMPDEST PUSH1 0x40 DUP3 ADD SWAP1 POP SWAP2 SWAP1 POP JUMP JUMPDEST PUSH1 0x0 PUSH1 0x20 DUP3 ADD SWAP1 POP DUP2 DUP2 SUB PUSH1 0x0 DUP4 ADD MSTORE PUSH2 0x29F7 DUP2 PUSH2 0x29BB JUMP JUMPDEST SWAP1 POP SWAP2 SWAP1 POP JUMP JUMPDEST PUSH32 0x7A65726F2061646472657373207C7C2064656372656173656420616C6C6F7761 PUSH1 0x0 DUP3 ADD MSTORE PUSH32 0x6E63652062656C6F77207A65726F000000000000000000000000000000000000 PUSH1 0x20 DUP3 ADD MSTORE POP JUMP JUMPDEST PUSH1 0x0 PUSH2 0x2A5A PUSH1 0x2E DUP4 PUSH2 0x21FB JUMP JUMPDEST SWAP2 POP PUSH2 0x2A65 DUP3 PUSH2 0x29FE JUMP JUMPDEST PUSH1 0x40 DUP3 ADD SWAP1 POP SWAP2 SWAP1 POP JUMP JUMPDEST PUSH1 0x0 PUSH1 0x20 DUP3 ADD SWAP1 POP DUP2 DUP2 SUB PUSH1 0x0 DUP4 ADD MSTORE PUSH2 0x2A89 DUP2 PUSH2 0x2A4D JUMP JUMPDEST SWAP1 POP SWAP2 SWAP1 POP JUMP JUMPDEST PUSH1 0x0 DUP2 SWAP1 POP SWAP3 SWAP2 POP POP JUMP JUMPDEST PUSH1 0x0 PUSH2 0x2AA6 DUP3 PUSH2 0x21F0 JUMP JUMPDEST PUSH2 0x2AB0 DUP2 DUP6 PUSH2 0x2A90 JUMP JUMPDEST SWAP4 POP PUSH2 0x2AC0 DUP2 DUP6 PUSH1 0x20 DUP7 ADD PUSH2 0x220C JUMP JUMPDEST DUP1 DUP5 ADD SWAP2 POP POP SWAP3 SWAP2 POP POP JUMP JUMPDEST PUSH1 0x0 PUSH2 0x2AD8 DUP3 DUP5 PUSH2 0x2A9B JUMP JUMPDEST SWAP2 POP DUP2 SWAP1 POP SWAP3 SWAP2 POP POP JUMP JUMPDEST PUSH32 0x4E487B7100000000000000000000000000000000000000000000000000000000 PUSH1 0x0 MSTORE PUSH1 0x12 PUSH1 0x4 MSTORE PUSH1 0x24 PUSH1 0x0 REVERT JUMPDEST PUSH1 0x0 PUSH2 0x2B1D DUP3 PUSH2 0x2314 JUMP JUMPDEST SWAP2 POP PUSH2 0x2B28 DUP4 PUSH2 0x2314 JUMP JUMPDEST SWAP3 POP DUP3 PUSH2 0x2B38 JUMPI PUSH2 0x2B37 PUSH2 0x2AE3 JUMP JUMPDEST JUMPDEST DUP3 DUP3 DIV SWAP1 POP SWAP3 SWAP2 POP POP JUMP JUMPDEST PUSH1 0x0 PUSH2 0x2B4E DUP3 PUSH2 0x2314 JUMP JUMPDEST SWAP2 POP PUSH2 0x2B59 DUP4 PUSH2 0x2314 JUMP JUMPDEST SWAP3 POP DUP3 DUP3 MUL PUSH2 0x2B67 DUP2 PUSH2 0x2314 JUMP JUMPDEST SWAP2 POP DUP3 DUP3 DIV DUP5 EQ DUP4 ISZERO OR PUSH2 0x2B7E JUMPI PUSH2 0x2B7D PUSH2 0x27B1 JUMP JUMPDEST JUMPDEST POP SWAP3 SWAP2 POP POP JUMP INVALID LOG2 PUSH5 0x6970667358 0x22 SLT KECCAK256 0xBD 0xF8 GAS 0xD 0x4A 0xC5 PUSH10 0xBCFAFBE8E989B2DDAFFD RETURN DUP4 0xE7 MSTORE 0x26 BASEFEE PUSH4 0xDDF41690 SWAP1 0xF PUSH32 0xC464736F6C634300081200330000000000000000000000000000000000000000 "
				},
				"gasEstimates": {
					"creation": {
						"codeDepositCost": "2239000",
						"executionCost": "infinite",
						"totalCost": "infinite"
					},
					"external": {
						"allowance(address,address)": "infinite",
						"approve(address,uint256)": "infinite",
						"balanceOf(address)": "2952",
						"decimals()": "2508",
						"decreaseAllowance(address,uint256)": "infinite",
						"increaseAllowance(address,uint256)": "infinite",
						"maxSupply()": "2487",
						"name()": "infinite",
						"release(string)": "infinite",
						"setStateIsMintable(bool)": "infinite",
						"setStateIsPaused(bool)": "infinite",
						"setStateIsTransferable(bool)": "infinite",
						"stake(uint256)": "infinite",
						"stakeOf(address)": "2908",
						"symbol()": "infinite",
						"totalSupply()": "2511",
						"transfer(address,uint256)": "infinite",
						"transferFrom(address,address,uint256)": "infinite",
						"unstake(uint256)": "infinite",
						"votesOf(address)": "2864"
					},
					"internal": {
						"burn(address,uint256)": "infinite",
						"distribute()": "infinite",
						"mintWithVesting_(address,uint256,uint256,string memory,string memory)": "infinite",
						"mint_(address,uint256)": "infinite",
						"setBpTransferBank(uint256)": "infinite",
						"setBpTransferBurn(uint256)": "infinite",
						"transfer_(address,address,uint256,uint256,uint256)": "infinite"
					}
				},
				"methodIdentifiers": {
					"allowance(address,address)": "dd62ed3e",
					"approve(address,uint256)": "095ea7b3",
					"balanceOf(address)": "70a08231",
					"decimals()": "313ce567",
					"decreaseAllowance(address,uint256)": "a457c2d7",
					"increaseAllowance(address,uint256)": "39509351",
					"maxSupply()": "d5abeb01",
					"name()": "06fdde03",
					"release(string)": "f34e3723",
					"setStateIsMintable(bool)": "d6cdb5a5",
					"setStateIsPaused(bool)": "a44e10eb",
					"setStateIsTransferable(bool)": "5a48b310",
					"stake(uint256)": "a694fc3a",
					"stakeOf(address)": "42623360",
					"symbol()": "95d89b41",
					"totalSupply()": "18160ddd",
					"transfer(address,uint256)": "a9059cbb",
					"transferFrom(address,address,uint256)": "23b872dd",
					"unstake(uint256)": "2e17de78",
					"votesOf(address)": "79ec5d3a"
				}
			},
			"storageLayout": {
				"storage": [
					{
						"astId": 7,
						"contract": "smart_contracts/contracts/Token.sol:Token",
						"label": "sndr",
						"offset": 0,
						"slot": "0",
						"type": "t_address"
					},
					{
						"astId": 11,
						"contract": "smart_contracts/contracts/Token.sol:Token",
						"label": "isAdmin",
						"offset": 0,
						"slot": "1",
						"type": "t_mapping(t_address,t_bool)"
					},
					{
						"astId": 15,
						"contract": "smart_contracts/contracts/Token.sol:Token",
						"label": "isDev",
						"offset": 0,
						"slot": "2",
						"type": "t_mapping(t_address,t_bool)"
					},
					{
						"astId": 19,
						"contract": "smart_contracts/contracts/Token.sol:Token",
						"label": "isSyndicate",
						"offset": 0,
						"slot": "3",
						"type": "t_mapping(t_address,t_bool)"
					},
					{
						"astId": 23,
						"contract": "smart_contracts/contracts/Token.sol:Token",
						"label": "isOperator",
						"offset": 0,
						"slot": "4",
						"type": "t_mapping(t_address,t_bool)"
					},
					{
						"astId": 27,
						"contract": "smart_contracts/contracts/Token.sol:Token",
						"label": "isValidator",
						"offset": 0,
						"slot": "5",
						"type": "t_mapping(t_address,t_bool)"
					},
					{
						"astId": 31,
						"contract": "smart_contracts/contracts/Token.sol:Token",
						"label": "isProposer",
						"offset": 0,
						"slot": "6",
						"type": "t_mapping(t_address,t_bool)"
					},
					{
						"astId": 35,
						"contract": "smart_contracts/contracts/Token.sol:Token",
						"label": "isExtension",
						"offset": 0,
						"slot": "7",
						"type": "t_mapping(t_address,t_bool)"
					},
					{
						"astId": 115,
						"contract": "smart_contracts/contracts/Token.sol:Token",
						"label": "locked",
						"offset": 0,
						"slot": "8",
						"type": "t_bool"
					},
					{
						"astId": 337,
						"contract": "smart_contracts/contracts/Token.sol:Token",
						"label": "settings",
						"offset": 0,
						"slot": "9",
						"type": "t_struct(Settings)315_storage"
					},
					{
						"astId": 340,
						"contract": "smart_contracts/contracts/Token.sol:Token",
						"label": "meta",
						"offset": 0,
						"slot": "19",
						"type": "t_struct(Meta)334_storage"
					},
					{
						"astId": 362,
						"contract": "smart_contracts/contracts/Token.sol:Token",
						"label": "schedules",
						"offset": 0,
						"slot": "28",
						"type": "t_mapping(t_address,t_mapping(t_string_memory_ptr,t_struct(VestingSchedule)355_storage))"
					},
					{
						"astId": 366,
						"contract": "smart_contracts/contracts/Token.sol:Token",
						"label": "balance",
						"offset": 0,
						"slot": "29",
						"type": "t_mapping(t_address,t_uint256)"
					},
					{
						"astId": 370,
						"contract": "smart_contracts/contracts/Token.sol:Token",
						"label": "staked",
						"offset": 0,
						"slot": "30",
						"type": "t_mapping(t_address,t_uint256)"
					},
					{
						"astId": 374,
						"contract": "smart_contracts/contracts/Token.sol:Token",
						"label": "votes",
						"offset": 0,
						"slot": "31",
						"type": "t_mapping(t_address,t_uint256)"
					},
					{
						"astId": 380,
						"contract": "smart_contracts/contracts/Token.sol:Token",
						"label": "allowed",
						"offset": 0,
						"slot": "32",
						"type": "t_mapping(t_address,t_mapping(t_address,t_uint256))"
					}
				],
				"types": {
					"t_address": {
						"encoding": "inplace",
						"label": "address",
						"numberOfBytes": "20"
					},
					"t_bool": {
						"encoding": "inplace",
						"label": "bool",
						"numberOfBytes": "1"
					},
					"t_mapping(t_address,t_bool)": {
						"encoding": "mapping",
						"key": "t_address",
						"label": "mapping(address => bool)",
						"numberOfBytes": "32",
						"value": "t_bool"
					},
					"t_mapping(t_address,t_mapping(t_address,t_uint256))": {
						"encoding": "mapping",
						"key": "t_address",
						"label": "mapping(address => mapping(address => uint256))",
						"numberOfBytes": "32",
						"value": "t_mapping(t_address,t_uint256)"
					},
					"t_mapping(t_address,t_mapping(t_string_memory_ptr,t_struct(VestingSchedule)355_storage))": {
						"encoding": "mapping",
						"key": "t_address",
						"label": "mapping(address => mapping(string => struct TokenState.VestingSchedule))",
						"numberOfBytes": "32",
						"value": "t_mapping(t_string_memory_ptr,t_struct(VestingSchedule)355_storage)"
					},
					"t_mapping(t_address,t_uint256)": {
						"encoding": "mapping",
						"key": "t_address",
						"label": "mapping(address => uint256)",
						"numberOfBytes": "32",
						"value": "t_uint256"
					},
					"t_mapping(t_string_memory_ptr,t_struct(VestingSchedule)355_storage)": {
						"encoding": "mapping",
						"key": "t_string_memory_ptr",
						"label": "mapping(string => struct TokenState.VestingSchedule)",
						"numberOfBytes": "32",
						"value": "t_struct(VestingSchedule)355_storage"
					},
					"t_string_memory_ptr": {
						"encoding": "bytes",
						"label": "string",
						"numberOfBytes": "32"
					},
					"t_string_storage": {
						"encoding": "bytes",
						"label": "string",
						"numberOfBytes": "32"
					},
					"t_struct(Meta)334_storage": {
						"encoding": "inplace",
						"label": "struct TokenState.Meta",
						"members": [
							{
								"astId": 317,
								"contract": "smart_contracts/contracts/Token.sol:Token",
								"label": "name",
								"offset": 0,
								"slot": "0",
								"type": "t_string_storage"
							},
							{
								"astId": 319,
								"contract": "smart_contracts/contracts/Token.sol:Token",
								"label": "symbol",
								"offset": 0,
								"slot": "1",
								"type": "t_string_storage"
							},
							{
								"astId": 321,
								"contract": "smart_contracts/contracts/Token.sol:Token",
								"label": "decimals",
								"offset": 0,
								"slot": "2",
								"type": "t_uint8"
							},
							{
								"astId": 323,
								"contract": "smart_contracts/contracts/Token.sol:Token",
								"label": "totalSupply",
								"offset": 0,
								"slot": "3",
								"type": "t_uint256"
							},
							{
								"astId": 325,
								"contract": "smart_contracts/contracts/Token.sol:Token",
								"label": "totalStaked",
								"offset": 0,
								"slot": "4",
								"type": "t_uint256"
							},
							{
								"astId": 327,
								"contract": "smart_contracts/contracts/Token.sol:Token",
								"label": "totalVotes",
								"offset": 0,
								"slot": "5",
								"type": "t_uint256"
							},
							{
								"astId": 329,
								"contract": "smart_contracts/contracts/Token.sol:Token",
								"label": "maxSupply",
								"offset": 0,
								"slot": "6",
								"type": "t_uint256"
							},
							{
								"astId": 331,
								"contract": "smart_contracts/contracts/Token.sol:Token",
								"label": "bank",
								"offset": 0,
								"slot": "7",
								"type": "t_address"
							},
							{
								"astId": 333,
								"contract": "smart_contracts/contracts/Token.sol:Token",
								"label": "vault",
								"offset": 0,
								"slot": "8",
								"type": "t_address"
							}
						],
						"numberOfBytes": "288"
					},
					"t_struct(Settings)315_storage": {
						"encoding": "inplace",
						"label": "struct TokenState.Settings",
						"members": [
							{
								"astId": 300,
								"contract": "smart_contracts/contracts/Token.sol:Token",
								"label": "bpTransferBurnMax",
								"offset": 0,
								"slot": "0",
								"type": "t_uint256"
							},
							{
								"astId": 302,
								"contract": "smart_contracts/contracts/Token.sol:Token",
								"label": "bpTransferBankMax",
								"offset": 0,
								"slot": "1",
								"type": "t_uint256"
							},
							{
								"astId": 304,
								"contract": "smart_contracts/contracts/Token.sol:Token",
								"label": "bpTransferBurn",
								"offset": 0,
								"slot": "2",
								"type": "t_uint256"
							},
							{
								"astId": 306,
								"contract": "smart_contracts/contracts/Token.sol:Token",
								"label": "bpTransferBank",
								"offset": 0,
								"slot": "3",
								"type": "t_uint256"
							},
							{
								"astId": 308,
								"contract": "smart_contracts/contracts/Token.sol:Token",
								"label": "bpDistribution",
								"offset": 0,
								"slot": "4",
								"type": "t_uint256"
							},
							{
								"astId": 311,
								"contract": "smart_contracts/contracts/Token.sol:Token",
								"label": "VotingMechanic",
								"offset": 0,
								"slot": "5",
								"type": "t_struct(VotingMechanic)281_storage"
							},
							{
								"astId": 314,
								"contract": "smart_contracts/contracts/Token.sol:Token",
								"label": "state",
								"offset": 0,
								"slot": "6",
								"type": "t_struct(State)298_storage"
							}
						],
						"numberOfBytes": "320"
					},
					"t_struct(State)298_storage": {
						"encoding": "inplace",
						"label": "struct TokenState.State",
						"members": [
							{
								"astId": 283,
								"contract": "smart_contracts/contracts/Token.sol:Token",
								"label": "isPaused",
								"offset": 0,
								"slot": "0",
								"type": "t_bool"
							},
							{
								"astId": 285,
								"contract": "smart_contracts/contracts/Token.sol:Token",
								"label": "isTransferable",
								"offset": 1,
								"slot": "0",
								"type": "t_bool"
							},
							{
								"astId": 287,
								"contract": "smart_contracts/contracts/Token.sol:Token",
								"label": "isMintable",
								"offset": 2,
								"slot": "0",
								"type": "t_bool"
							},
							{
								"astId": 289,
								"contract": "smart_contracts/contracts/Token.sol:Token",
								"label": "isBurnable",
								"offset": 3,
								"slot": "0",
								"type": "t_bool"
							},
							{
								"astId": 291,
								"contract": "smart_contracts/contracts/Token.sol:Token",
								"label": "isTempHalt",
								"offset": 4,
								"slot": "0",
								"type": "t_bool"
							},
							{
								"astId": 293,
								"contract": "smart_contracts/contracts/Token.sol:Token",
								"label": "durationTempHalt",
								"offset": 0,
								"slot": "1",
								"type": "t_uint256"
							},
							{
								"astId": 295,
								"contract": "smart_contracts/contracts/Token.sol:Token",
								"label": "isMonetized",
								"offset": 0,
								"slot": "2",
								"type": "t_bool"
							},
							{
								"astId": 297,
								"contract": "smart_contracts/contracts/Token.sol:Token",
								"label": "durationTempMonetizationHalt",
								"offset": 0,
								"slot": "3",
								"type": "t_uint256"
							}
						],
						"numberOfBytes": "128"
					},
					"t_struct(VestingSchedule)355_storage": {
						"encoding": "inplace",
						"label": "struct TokenState.VestingSchedule",
						"members": [
							{
								"astId": 342,
								"contract": "smart_contracts/contracts/Token.sol:Token",
								"label": "id",
								"offset": 0,
								"slot": "0",
								"type": "t_string_storage"
							},
							{
								"astId": 344,
								"contract": "smart_contracts/contracts/Token.sol:Token",
								"label": "releaseType",
								"offset": 0,
								"slot": "1",
								"type": "t_string_storage"
							},
							{
								"astId": 346,
								"contract": "smart_contracts/contracts/Token.sol:Token",
								"label": "duration",
								"offset": 0,
								"slot": "2",
								"type": "t_uint256"
							},
							{
								"astId": 348,
								"contract": "smart_contracts/contracts/Token.sol:Token",
								"label": "start",
								"offset": 0,
								"slot": "3",
								"type": "t_uint256"
							},
							{
								"astId": 350,
								"contract": "smart_contracts/contracts/Token.sol:Token",
								"label": "end",
								"offset": 0,
								"slot": "4",
								"type": "t_uint256"
							},
							{
								"astId": 352,
								"contract": "smart_contracts/contracts/Token.sol:Token",
								"label": "value",
								"offset": 0,
								"slot": "5",
								"type": "t_uint256"
							},
							{
								"astId": 354,
								"contract": "smart_contracts/contracts/Token.sol:Token",
								"label": "isNotEmpty",
								"offset": 0,
								"slot": "6",
								"type": "t_bool"
							}
						],
						"numberOfBytes": "224"
					},
					"t_struct(VotingMechanic)281_storage": {
						"encoding": "inplace",
						"label": "struct TokenState.VotingMechanic",
						"members": [
							{
								"astId": 280,
								"contract": "smart_contracts/contracts/Token.sol:Token",
								"label": "voteWeightPerToken",
								"offset": 0,
								"slot": "0",
								"type": "t_uint256"
							}
						],
						"numberOfBytes": "32"
					},
					"t_uint256": {
						"encoding": "inplace",
						"label": "uint256",
						"numberOfBytes": "32"
					},
					"t_uint8": {
						"encoding": "inplace",
						"label": "uint8",
						"numberOfBytes": "1"
					}
				}
			},
			"userdoc": {
				"kind": "user",
				"methods": {},
				"version": 1
			}
		}
	}
}