{
	"smart_contracts/contracts/BaseERC20.sol": {
		"BaseERC20": {
			"abi": [
				{
					"inputs": [],
					"stateMutability": "nonpayable",
					"type": "constructor"
				},
				{
					"anonymous": false,
					"inputs": [
						{
							"indexed": true,
							"internalType": "address",
							"name": "owner",
							"type": "address"
						},
						{
							"indexed": true,
							"internalType": "address",
							"name": "spender",
							"type": "address"
						},
						{
							"indexed": false,
							"internalType": "uint256",
							"name": "amount",
							"type": "uint256"
						}
					],
					"name": "Approval",
					"type": "event"
				},
				{
					"anonymous": false,
					"inputs": [
						{
							"indexed": true,
							"internalType": "address",
							"name": "account",
							"type": "address"
						},
						{
							"indexed": false,
							"internalType": "uint256",
							"name": "amount",
							"type": "uint256"
						}
					],
					"name": "Burn",
					"type": "event"
				},
				{
					"anonymous": false,
					"inputs": [
						{
							"indexed": true,
							"internalType": "address",
							"name": "account",
							"type": "address"
						},
						{
							"indexed": false,
							"internalType": "uint256",
							"name": "amount",
							"type": "uint256"
						}
					],
					"name": "Mint",
					"type": "event"
				},
				{
					"anonymous": false,
					"inputs": [
						{
							"indexed": true,
							"internalType": "address",
							"name": "_account",
							"type": "address"
						},
						{
							"indexed": false,
							"internalType": "string",
							"name": "_role",
							"type": "string"
						}
					],
					"name": "RoleGranted",
					"type": "event"
				},
				{
					"anonymous": false,
					"inputs": [
						{
							"indexed": true,
							"internalType": "address",
							"name": "_account",
							"type": "address"
						},
						{
							"indexed": false,
							"internalType": "string",
							"name": "_role",
							"type": "string"
						}
					],
					"name": "RoleRevoked",
					"type": "event"
				},
				{
					"anonymous": false,
					"inputs": [
						{
							"indexed": true,
							"internalType": "address",
							"name": "account",
							"type": "address"
						},
						{
							"indexed": false,
							"internalType": "uint256",
							"name": "amount",
							"type": "uint256"
						}
					],
					"name": "TokensReleased",
					"type": "event"
				},
				{
					"anonymous": false,
					"inputs": [
						{
							"indexed": true,
							"internalType": "address",
							"name": "from",
							"type": "address"
						},
						{
							"indexed": true,
							"internalType": "address",
							"name": "to",
							"type": "address"
						},
						{
							"indexed": false,
							"internalType": "uint256",
							"name": "amount",
							"type": "uint256"
						}
					],
					"name": "Transfer",
					"type": "event"
				},
				{
					"inputs": [
						{
							"internalType": "address",
							"name": "owner",
							"type": "address"
						},
						{
							"internalType": "address",
							"name": "spender",
							"type": "address"
						}
					],
					"name": "allowance",
					"outputs": [
						{
							"internalType": "uint256",
							"name": "",
							"type": "uint256"
						}
					],
					"stateMutability": "view",
					"type": "function"
				},
				{
					"inputs": [
						{
							"internalType": "address",
							"name": "spender",
							"type": "address"
						},
						{
							"internalType": "uint256",
							"name": "amount",
							"type": "uint256"
						}
					],
					"name": "approve",
					"outputs": [
						{
							"internalType": "bool",
							"name": "",
							"type": "bool"
						}
					],
					"stateMutability": "nonpayable",
					"type": "function"
				},
				{
					"inputs": [
						{
							"internalType": "address",
							"name": "account",
							"type": "address"
						}
					],
					"name": "balanceOf",
					"outputs": [
						{
							"internalType": "uint256",
							"name": "",
							"type": "uint256"
						}
					],
					"stateMutability": "view",
					"type": "function"
				},
				{
					"inputs": [],
					"name": "decimals",
					"outputs": [
						{
							"internalType": "uint256",
							"name": "",
							"type": "uint256"
						}
					],
					"stateMutability": "view",
					"type": "function"
				},
				{
					"inputs": [
						{
							"internalType": "address",
							"name": "spender",
							"type": "address"
						},
						{
							"internalType": "uint256",
							"name": "subtractedValue",
							"type": "uint256"
						}
					],
					"name": "decreaseAllowance",
					"outputs": [
						{
							"internalType": "bool",
							"name": "",
							"type": "bool"
						}
					],
					"stateMutability": "nonpayable",
					"type": "function"
				},
				{
					"inputs": [
						{
							"internalType": "address",
							"name": "spender",
							"type": "address"
						},
						{
							"internalType": "uint256",
							"name": "addedValue",
							"type": "uint256"
						}
					],
					"name": "increaseAllowance",
					"outputs": [
						{
							"internalType": "bool",
							"name": "",
							"type": "bool"
						}
					],
					"stateMutability": "nonpayable",
					"type": "function"
				},
				{
					"inputs": [],
					"name": "name",
					"outputs": [
						{
							"internalType": "string",
							"name": "",
							"type": "string"
						}
					],
					"stateMutability": "view",
					"type": "function"
				},
				{
					"inputs": [
						{
							"internalType": "address",
							"name": "account",
							"type": "address"
						}
					],
					"name": "stakedFor",
					"outputs": [
						{
							"internalType": "uint256",
							"name": "",
							"type": "uint256"
						}
					],
					"stateMutability": "view",
					"type": "function"
				},
				{
					"inputs": [],
					"name": "symbol",
					"outputs": [
						{
							"internalType": "string",
							"name": "",
							"type": "string"
						}
					],
					"stateMutability": "view",
					"type": "function"
				},
				{
					"inputs": [],
					"name": "totalStaked",
					"outputs": [
						{
							"internalType": "uint256",
							"name": "",
							"type": "uint256"
						}
					],
					"stateMutability": "view",
					"type": "function"
				},
				{
					"inputs": [],
					"name": "totalSupply",
					"outputs": [
						{
							"internalType": "uint256",
							"name": "",
							"type": "uint256"
						}
					],
					"stateMutability": "view",
					"type": "function"
				},
				{
					"inputs": [],
					"name": "totalVested",
					"outputs": [
						{
							"internalType": "uint256",
							"name": "",
							"type": "uint256"
						}
					],
					"stateMutability": "view",
					"type": "function"
				},
				{
					"inputs": [
						{
							"internalType": "address",
							"name": "account",
							"type": "address"
						}
					],
					"name": "vestedFor",
					"outputs": [
						{
							"internalType": "uint256",
							"name": "",
							"type": "uint256"
						}
					],
					"stateMutability": "view",
					"type": "function"
				},
				{
					"inputs": [
						{
							"internalType": "address",
							"name": "account",
							"type": "address"
						}
					],
					"name": "voteWeightOf",
					"outputs": [
						{
							"internalType": "uint256",
							"name": "",
							"type": "uint256"
						}
					],
					"stateMutability": "view",
					"type": "function"
				}
			],
			"devdoc": {
				"kind": "dev",
				"methods": {},
				"version": 1
			},
			"evm": {
				"assembly": "    /* \"smart_contracts/contracts/BaseERC20.sol\":276:9464  contract BaseERC20 is Authenticator {... */\n  mstore(0x40, 0x80)\n    /* \"smart_contracts/contracts/BaseERC20.sol\":9222:9462  constructor() {... */\n  callvalue\n  dup1\n  iszero\n  tag_1\n  jumpi\n  0x00\n  dup1\n  revert\ntag_1:\n  pop\n    /* \"smart_contracts/contracts/BaseERC20.sol\":9271:9272  0 */\n  0x00\n    /* \"smart_contracts/contracts/BaseERC20.sol\":9246:9256  properties */\n  0x05\n    /* \"smart_contracts/contracts/BaseERC20.sol\":9246:9268  properties.totalSupply */\n  0x04\n  add\n    /* \"smart_contracts/contracts/BaseERC20.sol\":9246:9272  properties.totalSupply = 0 */\n  dup2\n  swap1\n  sstore\n  pop\n    /* \"smart_contracts/contracts/BaseERC20.sol\":9307:9308  0 */\n  0x00\n    /* \"smart_contracts/contracts/BaseERC20.sol\":9282:9292  properties */\n  0x05\n    /* \"smart_contracts/contracts/BaseERC20.sol\":9282:9304  properties.totalVested */\n  dup1\n  add\n    /* \"smart_contracts/contracts/BaseERC20.sol\":9282:9308  properties.totalVested = 0 */\n  dup2\n  swap1\n  sstore\n  pop\n    /* \"smart_contracts/contracts/BaseERC20.sol\":9343:9344  0 */\n  0x00\n    /* \"smart_contracts/contracts/BaseERC20.sol\":9318:9328  properties */\n  0x05\n    /* \"smart_contracts/contracts/BaseERC20.sol\":9318:9340  properties.totalStaked */\n  0x06\n  add\n    /* \"smart_contracts/contracts/BaseERC20.sol\":9318:9344  properties.totalStaked = 0 */\n  dup2\n  swap1\n  sstore\n  pop\n    /* \"smart_contracts/contracts/BaseERC20.sol\":9367:9371  true */\n  0x01\n    /* \"smart_contracts/contracts/BaseERC20.sol\":9354:9364  isMintable */\n  0x04\n  0x01\n    /* \"smart_contracts/contracts/BaseERC20.sol\":9354:9371  isMintable = true */\n  0x0100\n  exp\n  dup2\n  sload\n  dup2\n  0xff\n  mul\n  not\n  and\n  swap1\n  dup4\n  iszero\n  iszero\n  mul\n  or\n  swap1\n  sstore\n  pop\n    /* \"smart_contracts/contracts/BaseERC20.sol\":9394:9398  true */\n  0x01\n    /* \"smart_contracts/contracts/BaseERC20.sol\":9381:9391  isBurnable */\n  0x04\n  0x02\n    /* \"smart_contracts/contracts/BaseERC20.sol\":9381:9398  isBurnable = true */\n  0x0100\n  exp\n  dup2\n  sload\n  dup2\n  0xff\n  mul\n  not\n  and\n  swap1\n  dup4\n  iszero\n  iszero\n  mul\n  or\n  swap1\n  sstore\n  pop\n    /* \"smart_contracts/contracts/BaseERC20.sol\":9425:9429  true */\n  0x01\n    /* \"smart_contracts/contracts/BaseERC20.sol\":9408:9422  isTransferable */\n  0x04\n  dup1\n    /* \"smart_contracts/contracts/BaseERC20.sol\":9408:9429  isTransferable = true */\n  0x0100\n  exp\n  dup2\n  sload\n  dup2\n  0xff\n  mul\n  not\n  and\n  swap1\n  dup4\n  iszero\n  iszero\n  mul\n  or\n  swap1\n  sstore\n  pop\n    /* \"smart_contracts/contracts/BaseERC20.sol\":9450:9455  false */\n  0x00\n    /* \"smart_contracts/contracts/BaseERC20.sol\":9439:9447  isPaused */\n  0x04\n  0x05\n    /* \"smart_contracts/contracts/BaseERC20.sol\":9439:9455  isPaused = false */\n  0x0100\n  exp\n  dup2\n  sload\n  dup2\n  0xff\n  mul\n  not\n  and\n  swap1\n  dup4\n  iszero\n  iszero\n  mul\n  or\n  swap1\n  sstore\n  pop\n    /* \"smart_contracts/contracts/BaseERC20.sol\":276:9464  contract BaseERC20 is Authenticator {... */\n  dataSize(sub_0)\n  dup1\n  dataOffset(sub_0)\n  0x00\n  codecopy\n  0x00\n  return\nstop\n\nsub_0: assembly {\n        /* \"smart_contracts/contracts/BaseERC20.sol\":276:9464  contract BaseERC20 is Authenticator {... */\n      mstore(0x40, 0x80)\n      callvalue\n      dup1\n      iszero\n      tag_1\n      jumpi\n      0x00\n      dup1\n      revert\n    tag_1:\n      pop\n      jumpi(tag_2, lt(calldatasize, 0x04))\n      shr(0xe0, calldataload(0x00))\n      dup1\n      0x7657135c\n      gt\n      tag_17\n      jumpi\n      dup1\n      0x95d89b41\n      gt\n      tag_18\n      jumpi\n      dup1\n      0x95d89b41\n      eq\n      tag_13\n      jumpi\n      dup1\n      0xa457c2d7\n      eq\n      tag_14\n      jumpi\n      dup1\n      0xdd62ed3e\n      eq\n      tag_15\n      jumpi\n      dup1\n      0xfeb73f8b\n      eq\n      tag_16\n      jumpi\n      jump(tag_2)\n    tag_18:\n      dup1\n      0x7657135c\n      eq\n      tag_10\n      jumpi\n      dup1\n      0x7fb8b61e\n      eq\n      tag_11\n      jumpi\n      dup1\n      0x817b1cd2\n      eq\n      tag_12\n      jumpi\n      jump(tag_2)\n    tag_17:\n      dup1\n      0x199cbc54\n      gt\n      tag_19\n      jumpi\n      dup1\n      0x199cbc54\n      eq\n      tag_6\n      jumpi\n      dup1\n      0x313ce567\n      eq\n      tag_7\n      jumpi\n      dup1\n      0x39509351\n      eq\n      tag_8\n      jumpi\n      dup1\n      0x70a08231\n      eq\n      tag_9\n      jumpi\n      jump(tag_2)\n    tag_19:\n      dup1\n      0x06fdde03\n      eq\n      tag_3\n      jumpi\n      dup1\n      0x095ea7b3\n      eq\n      tag_4\n      jumpi\n      dup1\n      0x18160ddd\n      eq\n      tag_5\n      jumpi\n    tag_2:\n      0x00\n      dup1\n      revert\n        /* \"smart_contracts/contracts/BaseERC20.sol\":7957:8048  function name() public view returns (string memory) {... */\n    tag_3:\n      tag_20\n      tag_21\n      jump\t// in\n    tag_20:\n      mload(0x40)\n      tag_22\n      swap2\n      swap1\n      tag_23\n      jump\t// in\n    tag_22:\n      mload(0x40)\n      dup1\n      swap2\n      sub\n      swap1\n      return\n        /* \"smart_contracts/contracts/BaseERC20.sol\":1448:1666  function approve(address spender, uint256 amount)... */\n    tag_4:\n      tag_24\n      0x04\n      dup1\n      calldatasize\n      sub\n      dup2\n      add\n      swap1\n      tag_25\n      swap2\n      swap1\n      tag_26\n      jump\t// in\n    tag_25:\n      tag_27\n      jump\t// in\n    tag_24:\n      mload(0x40)\n      tag_28\n      swap2\n      swap1\n      tag_29\n      jump\t// in\n    tag_28:\n      mload(0x40)\n      dup1\n      swap2\n      sub\n      swap1\n      return\n        /* \"smart_contracts/contracts/BaseERC20.sol\":8254:8353  function totalSupply() public view returns (uint256) {... */\n    tag_5:\n      tag_30\n      tag_31\n      jump\t// in\n    tag_30:\n      mload(0x40)\n      tag_32\n      swap2\n      swap1\n      tag_33\n      jump\t// in\n    tag_32:\n      mload(0x40)\n      dup1\n      swap2\n      sub\n      swap1\n      return\n        /* \"smart_contracts/contracts/BaseERC20.sol\":8359:8458  function totalVested() public view returns (uint256) {... */\n    tag_6:\n      tag_34\n      tag_35\n      jump\t// in\n    tag_34:\n      mload(0x40)\n      tag_36\n      swap2\n      swap1\n      tag_33\n      jump\t// in\n    tag_36:\n      mload(0x40)\n      dup1\n      swap2\n      sub\n      swap1\n      return\n        /* \"smart_contracts/contracts/BaseERC20.sol\":8155:8248  function decimals() public view returns (uint256) {... */\n    tag_7:\n      tag_37\n      tag_38\n      jump\t// in\n    tag_37:\n      mload(0x40)\n      tag_39\n      swap2\n      swap1\n      tag_33\n      jump\t// in\n    tag_39:\n      mload(0x40)\n      dup1\n      swap2\n      sub\n      swap1\n      return\n        /* \"smart_contracts/contracts/BaseERC20.sol\":1672:1991  function increaseAllowance(address spender, uint256 addedValue)... */\n    tag_8:\n      tag_40\n      0x04\n      dup1\n      calldatasize\n      sub\n      dup2\n      add\n      swap1\n      tag_41\n      swap2\n      swap1\n      tag_26\n      jump\t// in\n    tag_41:\n      tag_42\n      jump\t// in\n    tag_40:\n      mload(0x40)\n      tag_43\n      swap2\n      swap1\n      tag_29\n      jump\t// in\n    tag_43:\n      mload(0x40)\n      dup1\n      swap2\n      sub\n      swap1\n      return\n        /* \"smart_contracts/contracts/BaseERC20.sol\":8569:8684  function balanceOf(address account) public view returns (uint256) {... */\n    tag_9:\n      tag_44\n      0x04\n      dup1\n      calldatasize\n      sub\n      dup2\n      add\n      swap1\n      tag_45\n      swap2\n      swap1\n      tag_46\n      jump\t// in\n    tag_45:\n      tag_47\n      jump\t// in\n    tag_44:\n      mload(0x40)\n      tag_48\n      swap2\n      swap1\n      tag_33\n      jump\t// in\n    tag_48:\n      mload(0x40)\n      dup1\n      swap2\n      sub\n      swap1\n      return\n        /* \"smart_contracts/contracts/BaseERC20.sol\":8690:8804  function vestedFor(address account) public view returns (uint256) {... */\n    tag_10:\n      tag_49\n      0x04\n      dup1\n      calldatasize\n      sub\n      dup2\n      add\n      swap1\n      tag_50\n      swap2\n      swap1\n      tag_46\n      jump\t// in\n    tag_50:\n      tag_51\n      jump\t// in\n    tag_49:\n      mload(0x40)\n      tag_52\n      swap2\n      swap1\n      tag_33\n      jump\t// in\n    tag_52:\n      mload(0x40)\n      dup1\n      swap2\n      sub\n      swap1\n      return\n        /* \"smart_contracts/contracts/BaseERC20.sol\":8930:9045  function voteWeightOf(address account) public view returns (uint256) {... */\n    tag_11:\n      tag_53\n      0x04\n      dup1\n      calldatasize\n      sub\n      dup2\n      add\n      swap1\n      tag_54\n      swap2\n      swap1\n      tag_46\n      jump\t// in\n    tag_54:\n      tag_55\n      jump\t// in\n    tag_53:\n      mload(0x40)\n      tag_56\n      swap2\n      swap1\n      tag_33\n      jump\t// in\n    tag_56:\n      mload(0x40)\n      dup1\n      swap2\n      sub\n      swap1\n      return\n        /* \"smart_contracts/contracts/BaseERC20.sol\":8464:8563  function totalStaked() public view returns (uint256) {... */\n    tag_12:\n      tag_57\n      tag_58\n      jump\t// in\n    tag_57:\n      mload(0x40)\n      tag_59\n      swap2\n      swap1\n      tag_33\n      jump\t// in\n    tag_59:\n      mload(0x40)\n      dup1\n      swap2\n      sub\n      swap1\n      return\n        /* \"smart_contracts/contracts/BaseERC20.sol\":8054:8149  function symbol() public view returns (string memory) {... */\n    tag_13:\n      tag_60\n      tag_61\n      jump\t// in\n    tag_60:\n      mload(0x40)\n      tag_62\n      swap2\n      swap1\n      tag_23\n      jump\t// in\n    tag_62:\n      mload(0x40)\n      dup1\n      swap2\n      sub\n      swap1\n      return\n        /* \"smart_contracts/contracts/BaseERC20.sol\":1997:2551  function decreaseAllowance(address spender, uint256 subtractedValue)... */\n    tag_14:\n      tag_63\n      0x04\n      dup1\n      calldatasize\n      sub\n      dup2\n      add\n      swap1\n      tag_64\n      swap2\n      swap1\n      tag_26\n      jump\t// in\n    tag_64:\n      tag_65\n      jump\t// in\n    tag_63:\n      mload(0x40)\n      tag_66\n      swap2\n      swap1\n      tag_29\n      jump\t// in\n    tag_66:\n      mload(0x40)\n      dup1\n      swap2\n      sub\n      swap1\n      return\n        /* \"smart_contracts/contracts/BaseERC20.sol\":9051:9216  function allowance(address owner, address spender)... */\n    tag_15:\n      tag_67\n      0x04\n      dup1\n      calldatasize\n      sub\n      dup2\n      add\n      swap1\n      tag_68\n      swap2\n      swap1\n      tag_69\n      jump\t// in\n    tag_68:\n      tag_70\n      jump\t// in\n    tag_67:\n      mload(0x40)\n      tag_71\n      swap2\n      swap1\n      tag_33\n      jump\t// in\n    tag_71:\n      mload(0x40)\n      dup1\n      swap2\n      sub\n      swap1\n      return\n        /* \"smart_contracts/contracts/BaseERC20.sol\":8810:8924  function stakedFor(address account) public view returns (uint256) {... */\n    tag_16:\n      tag_72\n      0x04\n      dup1\n      calldatasize\n      sub\n      dup2\n      add\n      swap1\n      tag_73\n      swap2\n      swap1\n      tag_46\n      jump\t// in\n    tag_73:\n      tag_74\n      jump\t// in\n    tag_72:\n      mload(0x40)\n      tag_75\n      swap2\n      swap1\n      tag_33\n      jump\t// in\n    tag_75:\n      mload(0x40)\n      dup1\n      swap2\n      sub\n      swap1\n      return\n        /* \"smart_contracts/contracts/BaseERC20.sol\":7957:8048  function name() public view returns (string memory) {... */\n    tag_21:\n        /* \"smart_contracts/contracts/BaseERC20.sol\":7994:8007  string memory */\n      0x60\n        /* \"smart_contracts/contracts/BaseERC20.sol\":8026:8036  properties */\n      0x05\n        /* \"smart_contracts/contracts/BaseERC20.sol\":8026:8041  properties.name */\n      0x00\n      add\n        /* \"smart_contracts/contracts/BaseERC20.sol\":8019:8041  return properties.name */\n      dup1\n      sload\n      tag_77\n      swap1\n      tag_78\n      jump\t// in\n    tag_77:\n      dup1\n      0x1f\n      add\n      0x20\n      dup1\n      swap2\n      div\n      mul\n      0x20\n      add\n      mload(0x40)\n      swap1\n      dup2\n      add\n      0x40\n      mstore\n      dup1\n      swap3\n      swap2\n      swap1\n      dup2\n      dup2\n      mstore\n      0x20\n      add\n      dup3\n      dup1\n      sload\n      tag_79\n      swap1\n      tag_78\n      jump\t// in\n    tag_79:\n      dup1\n      iszero\n      tag_80\n      jumpi\n      dup1\n      0x1f\n      lt\n      tag_81\n      jumpi\n      0x0100\n      dup1\n      dup4\n      sload\n      div\n      mul\n      dup4\n      mstore\n      swap2\n      0x20\n      add\n      swap2\n      jump(tag_80)\n    tag_81:\n      dup3\n      add\n      swap2\n      swap1\n      0x00\n      mstore\n      keccak256(0x00, 0x20)\n      swap1\n    tag_82:\n      dup2\n      sload\n      dup2\n      mstore\n      swap1\n      0x01\n      add\n      swap1\n      0x20\n      add\n      dup1\n      dup4\n      gt\n      tag_82\n      jumpi\n      dup3\n      swap1\n      sub\n      0x1f\n      and\n      dup3\n      add\n      swap2\n    tag_80:\n      pop\n      pop\n      pop\n      pop\n      pop\n      swap1\n      pop\n        /* \"smart_contracts/contracts/BaseERC20.sol\":7957:8048  function name() public view returns (string memory) {... */\n      swap1\n      jump\t// out\n        /* \"smart_contracts/contracts/BaseERC20.sol\":1448:1666  function approve(address spender, uint256 amount)... */\n    tag_27:\n        /* \"smart_contracts/contracts/BaseERC20.sol\":1550:1554  bool */\n      0x00\n        /* \"smart_contracts/contracts/BaseERC20.sol\":1022:1026  true */\n      0x01\n        /* \"smart_contracts/contracts/BaseERC20.sol\":1010:1026  isPaused != true */\n      iszero\n      iszero\n        /* \"smart_contracts/contracts/BaseERC20.sol\":1010:1018  isPaused */\n      0x04\n      0x05\n      swap1\n      sload\n      swap1\n      0x0100\n      exp\n      swap1\n      div\n      0xff\n      and\n        /* \"smart_contracts/contracts/BaseERC20.sol\":1010:1026  isPaused != true */\n      iszero\n      iszero\n      sub\n        /* \"smart_contracts/contracts/BaseERC20.sol\":1002:1050  require(isPaused != true, \"The token is paused\") */\n      tag_84\n      jumpi\n      mload(0x40)\n      0x08c379a000000000000000000000000000000000000000000000000000000000\n      dup2\n      mstore\n      0x04\n      add\n      tag_85\n      swap1\n      tag_86\n      jump\t// in\n    tag_85:\n      mload(0x40)\n      dup1\n      swap2\n      sub\n      swap1\n      revert\n    tag_84:\n        /* \"smart_contracts/contracts/BaseERC20.sol\":1570:1583  address owner */\n      0x00\n        /* \"smart_contracts/contracts/BaseERC20.sol\":1586:1596  msg.sender */\n      caller\n        /* \"smart_contracts/contracts/BaseERC20.sol\":1570:1596  address owner = msg.sender */\n      swap1\n      pop\n        /* \"smart_contracts/contracts/BaseERC20.sol\":1606:1638  _approve(owner, spender, amount) */\n      tag_88\n        /* \"smart_contracts/contracts/BaseERC20.sol\":1615:1620  owner */\n      dup2\n        /* \"smart_contracts/contracts/BaseERC20.sol\":1622:1629  spender */\n      dup6\n        /* \"smart_contracts/contracts/BaseERC20.sol\":1631:1637  amount */\n      dup6\n        /* \"smart_contracts/contracts/BaseERC20.sol\":1606:1614  _approve */\n      tag_89\n        /* \"smart_contracts/contracts/BaseERC20.sol\":1606:1638  _approve(owner, spender, amount) */\n      jump\t// in\n    tag_88:\n        /* \"smart_contracts/contracts/BaseERC20.sol\":1655:1659  true */\n      0x01\n        /* \"smart_contracts/contracts/BaseERC20.sol\":1648:1659  return true */\n      swap2\n      pop\n      pop\n        /* \"smart_contracts/contracts/BaseERC20.sol\":1448:1666  function approve(address spender, uint256 amount)... */\n      swap3\n      swap2\n      pop\n      pop\n      jump\t// out\n        /* \"smart_contracts/contracts/BaseERC20.sol\":8254:8353  function totalSupply() public view returns (uint256) {... */\n    tag_31:\n        /* \"smart_contracts/contracts/BaseERC20.sol\":8298:8305  uint256 */\n      0x00\n        /* \"smart_contracts/contracts/BaseERC20.sol\":8324:8334  properties */\n      0x05\n        /* \"smart_contracts/contracts/BaseERC20.sol\":8324:8346  properties.totalSupply */\n      0x04\n      add\n      sload\n        /* \"smart_contracts/contracts/BaseERC20.sol\":8317:8346  return properties.totalSupply */\n      swap1\n      pop\n        /* \"smart_contracts/contracts/BaseERC20.sol\":8254:8353  function totalSupply() public view returns (uint256) {... */\n      swap1\n      jump\t// out\n        /* \"smart_contracts/contracts/BaseERC20.sol\":8359:8458  function totalVested() public view returns (uint256) {... */\n    tag_35:\n        /* \"smart_contracts/contracts/BaseERC20.sol\":8403:8410  uint256 */\n      0x00\n        /* \"smart_contracts/contracts/BaseERC20.sol\":8429:8439  properties */\n      0x05\n        /* \"smart_contracts/contracts/BaseERC20.sol\":8429:8451  properties.totalVested */\n      dup1\n      add\n      sload\n        /* \"smart_contracts/contracts/BaseERC20.sol\":8422:8451  return properties.totalVested */\n      swap1\n      pop\n        /* \"smart_contracts/contracts/BaseERC20.sol\":8359:8458  function totalVested() public view returns (uint256) {... */\n      swap1\n      jump\t// out\n        /* \"smart_contracts/contracts/BaseERC20.sol\":8155:8248  function decimals() public view returns (uint256) {... */\n    tag_38:\n        /* \"smart_contracts/contracts/BaseERC20.sol\":8196:8203  uint256 */\n      0x00\n        /* \"smart_contracts/contracts/BaseERC20.sol\":8222:8232  properties */\n      0x05\n        /* \"smart_contracts/contracts/BaseERC20.sol\":8222:8241  properties.decimals */\n      0x02\n      add\n      sload\n        /* \"smart_contracts/contracts/BaseERC20.sol\":8215:8241  return properties.decimals */\n      swap1\n      pop\n        /* \"smart_contracts/contracts/BaseERC20.sol\":8155:8248  function decimals() public view returns (uint256) {... */\n      swap1\n      jump\t// out\n        /* \"smart_contracts/contracts/BaseERC20.sol\":1672:1991  function increaseAllowance(address spender, uint256 addedValue)... */\n    tag_42:\n        /* \"smart_contracts/contracts/BaseERC20.sol\":1788:1792  bool */\n      0x00\n        /* \"smart_contracts/contracts/BaseERC20.sol\":1022:1026  true */\n      0x01\n        /* \"smart_contracts/contracts/BaseERC20.sol\":1010:1026  isPaused != true */\n      iszero\n      iszero\n        /* \"smart_contracts/contracts/BaseERC20.sol\":1010:1018  isPaused */\n      0x04\n      0x05\n      swap1\n      sload\n      swap1\n      0x0100\n      exp\n      swap1\n      div\n      0xff\n      and\n        /* \"smart_contracts/contracts/BaseERC20.sol\":1010:1026  isPaused != true */\n      iszero\n      iszero\n      sub\n        /* \"smart_contracts/contracts/BaseERC20.sol\":1002:1050  require(isPaused != true, \"The token is paused\") */\n      tag_94\n      jumpi\n      mload(0x40)\n      0x08c379a000000000000000000000000000000000000000000000000000000000\n      dup2\n      mstore\n      0x04\n      add\n      tag_95\n      swap1\n      tag_86\n      jump\t// in\n    tag_95:\n      mload(0x40)\n      dup1\n      swap2\n      sub\n      swap1\n      revert\n    tag_94:\n        /* \"smart_contracts/contracts/BaseERC20.sol\":1808:1821  address owner */\n      0x00\n        /* \"smart_contracts/contracts/BaseERC20.sol\":1824:1834  msg.sender */\n      caller\n        /* \"smart_contracts/contracts/BaseERC20.sol\":1808:1834  address owner = msg.sender */\n      swap1\n      pop\n        /* \"smart_contracts/contracts/BaseERC20.sol\":1844:1853  uint256 a */\n      0x00\n        /* \"smart_contracts/contracts/BaseERC20.sol\":1856:1881  allowance(owner, spender) */\n      tag_97\n        /* \"smart_contracts/contracts/BaseERC20.sol\":1866:1871  owner */\n      dup3\n        /* \"smart_contracts/contracts/BaseERC20.sol\":1873:1880  spender */\n      dup7\n        /* \"smart_contracts/contracts/BaseERC20.sol\":1856:1865  allowance */\n      tag_70\n        /* \"smart_contracts/contracts/BaseERC20.sol\":1856:1881  allowance(owner, spender) */\n      jump\t// in\n    tag_97:\n        /* \"smart_contracts/contracts/BaseERC20.sol\":1844:1881  uint256 a = allowance(owner, spender) */\n      swap1\n      pop\n        /* \"smart_contracts/contracts/BaseERC20.sol\":1891:1900  uint256 b */\n      0x00\n        /* \"smart_contracts/contracts/BaseERC20.sol\":1903:1913  addedValue */\n      dup5\n        /* \"smart_contracts/contracts/BaseERC20.sol\":1891:1913  uint256 b = addedValue */\n      swap1\n      pop\n        /* \"smart_contracts/contracts/BaseERC20.sol\":1923:1963  _approve(owner, spender, Math.add(a, b)) */\n      tag_98\n        /* \"smart_contracts/contracts/BaseERC20.sol\":1932:1937  owner */\n      dup4\n        /* \"smart_contracts/contracts/BaseERC20.sol\":1939:1946  spender */\n      dup8\n        /* \"smart_contracts/contracts/BaseERC20.sol\":1948:1962  Math.add(a, b) */\n      tag_99\n        /* \"smart_contracts/contracts/BaseERC20.sol\":1957:1958  a */\n      dup6\n        /* \"smart_contracts/contracts/BaseERC20.sol\":1960:1961  b */\n      dup6\n        /* \"smart_contracts/contracts/BaseERC20.sol\":1948:1956  Math.add */\n      tag_100\n        /* \"smart_contracts/contracts/BaseERC20.sol\":1948:1962  Math.add(a, b) */\n      jump\t// in\n    tag_99:\n        /* \"smart_contracts/contracts/BaseERC20.sol\":1923:1931  _approve */\n      tag_89\n        /* \"smart_contracts/contracts/BaseERC20.sol\":1923:1963  _approve(owner, spender, Math.add(a, b)) */\n      jump\t// in\n    tag_98:\n        /* \"smart_contracts/contracts/BaseERC20.sol\":1980:1984  true */\n      0x01\n        /* \"smart_contracts/contracts/BaseERC20.sol\":1973:1984  return true */\n      swap4\n      pop\n      pop\n      pop\n      pop\n        /* \"smart_contracts/contracts/BaseERC20.sol\":1672:1991  function increaseAllowance(address spender, uint256 addedValue)... */\n      swap3\n      swap2\n      pop\n      pop\n      jump\t// out\n        /* \"smart_contracts/contracts/BaseERC20.sol\":8569:8684  function balanceOf(address account) public view returns (uint256) {... */\n    tag_47:\n        /* \"smart_contracts/contracts/BaseERC20.sol\":8626:8633  uint256 */\n      0x00\n        /* \"smart_contracts/contracts/BaseERC20.sol\":8652:8660  database */\n      0x0c\n        /* \"smart_contracts/contracts/BaseERC20.sol\":8652:8668  database.balance */\n      0x00\n      add\n        /* \"smart_contracts/contracts/BaseERC20.sol\":8652:8677  database.balance[account] */\n      0x00\n        /* \"smart_contracts/contracts/BaseERC20.sol\":8669:8676  account */\n      dup4\n        /* \"smart_contracts/contracts/BaseERC20.sol\":8652:8677  database.balance[account] */\n      0xffffffffffffffffffffffffffffffffffffffff\n      and\n      0xffffffffffffffffffffffffffffffffffffffff\n      and\n      dup2\n      mstore\n      0x20\n      add\n      swap1\n      dup2\n      mstore\n      0x20\n      add\n      0x00\n      keccak256\n      sload\n        /* \"smart_contracts/contracts/BaseERC20.sol\":8645:8677  return database.balance[account] */\n      swap1\n      pop\n        /* \"smart_contracts/contracts/BaseERC20.sol\":8569:8684  function balanceOf(address account) public view returns (uint256) {... */\n      swap2\n      swap1\n      pop\n      jump\t// out\n        /* \"smart_contracts/contracts/BaseERC20.sol\":8690:8804  function vestedFor(address account) public view returns (uint256) {... */\n    tag_51:\n        /* \"smart_contracts/contracts/BaseERC20.sol\":8747:8754  uint256 */\n      0x00\n        /* \"smart_contracts/contracts/BaseERC20.sol\":8773:8781  database */\n      0x0c\n        /* \"smart_contracts/contracts/BaseERC20.sol\":8773:8788  database.vested */\n      0x01\n      add\n        /* \"smart_contracts/contracts/BaseERC20.sol\":8773:8797  database.vested[account] */\n      0x00\n        /* \"smart_contracts/contracts/BaseERC20.sol\":8789:8796  account */\n      dup4\n        /* \"smart_contracts/contracts/BaseERC20.sol\":8773:8797  database.vested[account] */\n      0xffffffffffffffffffffffffffffffffffffffff\n      and\n      0xffffffffffffffffffffffffffffffffffffffff\n      and\n      dup2\n      mstore\n      0x20\n      add\n      swap1\n      dup2\n      mstore\n      0x20\n      add\n      0x00\n      keccak256\n      sload\n        /* \"smart_contracts/contracts/BaseERC20.sol\":8766:8797  return database.vested[account] */\n      swap1\n      pop\n        /* \"smart_contracts/contracts/BaseERC20.sol\":8690:8804  function vestedFor(address account) public view returns (uint256) {... */\n      swap2\n      swap1\n      pop\n      jump\t// out\n        /* \"smart_contracts/contracts/BaseERC20.sol\":8930:9045  function voteWeightOf(address account) public view returns (uint256) {... */\n    tag_55:\n        /* \"smart_contracts/contracts/BaseERC20.sol\":8990:8997  uint256 */\n      0x00\n        /* \"smart_contracts/contracts/BaseERC20.sol\":9016:9024  database */\n      0x0c\n        /* \"smart_contracts/contracts/BaseERC20.sol\":9016:9029  database.vote */\n      0x03\n      add\n        /* \"smart_contracts/contracts/BaseERC20.sol\":9016:9038  database.vote[account] */\n      0x00\n        /* \"smart_contracts/contracts/BaseERC20.sol\":9030:9037  account */\n      dup4\n        /* \"smart_contracts/contracts/BaseERC20.sol\":9016:9038  database.vote[account] */\n      0xffffffffffffffffffffffffffffffffffffffff\n      and\n      0xffffffffffffffffffffffffffffffffffffffff\n      and\n      dup2\n      mstore\n      0x20\n      add\n      swap1\n      dup2\n      mstore\n      0x20\n      add\n      0x00\n      keccak256\n      sload\n        /* \"smart_contracts/contracts/BaseERC20.sol\":9009:9038  return database.vote[account] */\n      swap1\n      pop\n        /* \"smart_contracts/contracts/BaseERC20.sol\":8930:9045  function voteWeightOf(address account) public view returns (uint256) {... */\n      swap2\n      swap1\n      pop\n      jump\t// out\n        /* \"smart_contracts/contracts/BaseERC20.sol\":8464:8563  function totalStaked() public view returns (uint256) {... */\n    tag_58:\n        /* \"smart_contracts/contracts/BaseERC20.sol\":8508:8515  uint256 */\n      0x00\n        /* \"smart_contracts/contracts/BaseERC20.sol\":8534:8544  properties */\n      0x05\n        /* \"smart_contracts/contracts/BaseERC20.sol\":8534:8556  properties.totalStaked */\n      0x06\n      add\n      sload\n        /* \"smart_contracts/contracts/BaseERC20.sol\":8527:8556  return properties.totalStaked */\n      swap1\n      pop\n        /* \"smart_contracts/contracts/BaseERC20.sol\":8464:8563  function totalStaked() public view returns (uint256) {... */\n      swap1\n      jump\t// out\n        /* \"smart_contracts/contracts/BaseERC20.sol\":8054:8149  function symbol() public view returns (string memory) {... */\n    tag_61:\n        /* \"smart_contracts/contracts/BaseERC20.sol\":8093:8106  string memory */\n      0x60\n        /* \"smart_contracts/contracts/BaseERC20.sol\":8125:8135  properties */\n      0x05\n        /* \"smart_contracts/contracts/BaseERC20.sol\":8125:8142  properties.symbol */\n      0x01\n      add\n        /* \"smart_contracts/contracts/BaseERC20.sol\":8118:8142  return properties.symbol */\n      dup1\n      sload\n      tag_106\n      swap1\n      tag_78\n      jump\t// in\n    tag_106:\n      dup1\n      0x1f\n      add\n      0x20\n      dup1\n      swap2\n      div\n      mul\n      0x20\n      add\n      mload(0x40)\n      swap1\n      dup2\n      add\n      0x40\n      mstore\n      dup1\n      swap3\n      swap2\n      swap1\n      dup2\n      dup2\n      mstore\n      0x20\n      add\n      dup3\n      dup1\n      sload\n      tag_107\n      swap1\n      tag_78\n      jump\t// in\n    tag_107:\n      dup1\n      iszero\n      tag_108\n      jumpi\n      dup1\n      0x1f\n      lt\n      tag_109\n      jumpi\n      0x0100\n      dup1\n      dup4\n      sload\n      div\n      mul\n      dup4\n      mstore\n      swap2\n      0x20\n      add\n      swap2\n      jump(tag_108)\n    tag_109:\n      dup3\n      add\n      swap2\n      swap1\n      0x00\n      mstore\n      keccak256(0x00, 0x20)\n      swap1\n    tag_110:\n      dup2\n      sload\n      dup2\n      mstore\n      swap1\n      0x01\n      add\n      swap1\n      0x20\n      add\n      dup1\n      dup4\n      gt\n      tag_110\n      jumpi\n      dup3\n      swap1\n      sub\n      0x1f\n      and\n      dup3\n      add\n      swap2\n    tag_108:\n      pop\n      pop\n      pop\n      pop\n      pop\n      swap1\n      pop\n        /* \"smart_contracts/contracts/BaseERC20.sol\":8054:8149  function symbol() public view returns (string memory) {... */\n      swap1\n      jump\t// out\n        /* \"smart_contracts/contracts/BaseERC20.sol\":1997:2551  function decreaseAllowance(address spender, uint256 subtractedValue)... */\n    tag_65:\n        /* \"smart_contracts/contracts/BaseERC20.sol\":2118:2122  bool */\n      0x00\n        /* \"smart_contracts/contracts/BaseERC20.sol\":1022:1026  true */\n      0x01\n        /* \"smart_contracts/contracts/BaseERC20.sol\":1010:1026  isPaused != true */\n      iszero\n      iszero\n        /* \"smart_contracts/contracts/BaseERC20.sol\":1010:1018  isPaused */\n      0x04\n      0x05\n      swap1\n      sload\n      swap1\n      0x0100\n      exp\n      swap1\n      div\n      0xff\n      and\n        /* \"smart_contracts/contracts/BaseERC20.sol\":1010:1026  isPaused != true */\n      iszero\n      iszero\n      sub\n        /* \"smart_contracts/contracts/BaseERC20.sol\":1002:1050  require(isPaused != true, \"The token is paused\") */\n      tag_112\n      jumpi\n      mload(0x40)\n      0x08c379a000000000000000000000000000000000000000000000000000000000\n      dup2\n      mstore\n      0x04\n      add\n      tag_113\n      swap1\n      tag_86\n      jump\t// in\n    tag_113:\n      mload(0x40)\n      dup1\n      swap2\n      sub\n      swap1\n      revert\n    tag_112:\n        /* \"smart_contracts/contracts/BaseERC20.sol\":2138:2151  address owner */\n      0x00\n        /* \"smart_contracts/contracts/BaseERC20.sol\":2154:2164  msg.sender */\n      caller\n        /* \"smart_contracts/contracts/BaseERC20.sol\":2138:2164  address owner = msg.sender */\n      swap1\n      pop\n        /* \"smart_contracts/contracts/BaseERC20.sol\":2174:2198  uint256 currentAllowance */\n      0x00\n        /* \"smart_contracts/contracts/BaseERC20.sol\":2201:2226  allowance(owner, spender) */\n      tag_115\n        /* \"smart_contracts/contracts/BaseERC20.sol\":2211:2216  owner */\n      dup3\n        /* \"smart_contracts/contracts/BaseERC20.sol\":2218:2225  spender */\n      dup7\n        /* \"smart_contracts/contracts/BaseERC20.sol\":2201:2210  allowance */\n      tag_70\n        /* \"smart_contracts/contracts/BaseERC20.sol\":2201:2226  allowance(owner, spender) */\n      jump\t// in\n    tag_115:\n        /* \"smart_contracts/contracts/BaseERC20.sol\":2174:2226  uint256 currentAllowance = allowance(owner, spender) */\n      swap1\n      pop\n        /* \"smart_contracts/contracts/BaseERC20.sol\":2277:2292  subtractedValue */\n      dup4\n        /* \"smart_contracts/contracts/BaseERC20.sol\":2257:2273  currentAllowance */\n      dup2\n        /* \"smart_contracts/contracts/BaseERC20.sol\":2257:2292  currentAllowance >= subtractedValue */\n      lt\n      iszero\n        /* \"smart_contracts/contracts/BaseERC20.sol\":2236:2348  require(... */\n      tag_116\n      jumpi\n      mload(0x40)\n      0x08c379a000000000000000000000000000000000000000000000000000000000\n      dup2\n      mstore\n      0x04\n      add\n      tag_117\n      swap1\n      tag_118\n      jump\t// in\n    tag_117:\n      mload(0x40)\n      dup1\n      swap2\n      sub\n      swap1\n      revert\n    tag_116:\n        /* \"smart_contracts/contracts/BaseERC20.sol\":2382:2513  _approve(... */\n      tag_119\n        /* \"smart_contracts/contracts/BaseERC20.sol\":2408:2413  owner */\n      dup3\n        /* \"smart_contracts/contracts/BaseERC20.sol\":2431:2438  spender */\n      dup7\n        /* \"smart_contracts/contracts/BaseERC20.sol\":2456:2499  Math.sub(currentAllowance, subtractedValue) */\n      tag_120\n        /* \"smart_contracts/contracts/BaseERC20.sol\":2465:2481  currentAllowance */\n      dup5\n        /* \"smart_contracts/contracts/BaseERC20.sol\":2483:2498  subtractedValue */\n      dup9\n        /* \"smart_contracts/contracts/BaseERC20.sol\":2456:2464  Math.sub */\n      tag_121\n        /* \"smart_contracts/contracts/BaseERC20.sol\":2456:2499  Math.sub(currentAllowance, subtractedValue) */\n      jump\t// in\n    tag_120:\n        /* \"smart_contracts/contracts/BaseERC20.sol\":2382:2390  _approve */\n      tag_89\n        /* \"smart_contracts/contracts/BaseERC20.sol\":2382:2513  _approve(... */\n      jump\t// in\n    tag_119:\n        /* \"smart_contracts/contracts/BaseERC20.sol\":2540:2544  true */\n      0x01\n        /* \"smart_contracts/contracts/BaseERC20.sol\":2533:2544  return true */\n      swap3\n      pop\n      pop\n      pop\n        /* \"smart_contracts/contracts/BaseERC20.sol\":1997:2551  function decreaseAllowance(address spender, uint256 subtractedValue)... */\n      swap3\n      swap2\n      pop\n      pop\n      jump\t// out\n        /* \"smart_contracts/contracts/BaseERC20.sol\":9051:9216  function allowance(address owner, address spender)... */\n    tag_70:\n        /* \"smart_contracts/contracts/BaseERC20.sol\":9147:9154  uint256 */\n      0x00\n        /* \"smart_contracts/contracts/BaseERC20.sol\":9177:9185  database */\n      0x0c\n        /* \"smart_contracts/contracts/BaseERC20.sol\":9177:9193  database.allowed */\n      0x04\n      add\n        /* \"smart_contracts/contracts/BaseERC20.sol\":9177:9200  database.allowed[owner] */\n      0x00\n        /* \"smart_contracts/contracts/BaseERC20.sol\":9194:9199  owner */\n      dup5\n        /* \"smart_contracts/contracts/BaseERC20.sol\":9177:9200  database.allowed[owner] */\n      0xffffffffffffffffffffffffffffffffffffffff\n      and\n      0xffffffffffffffffffffffffffffffffffffffff\n      and\n      dup2\n      mstore\n      0x20\n      add\n      swap1\n      dup2\n      mstore\n      0x20\n      add\n      0x00\n      keccak256\n        /* \"smart_contracts/contracts/BaseERC20.sol\":9177:9209  database.allowed[owner][spender] */\n      0x00\n        /* \"smart_contracts/contracts/BaseERC20.sol\":9201:9208  spender */\n      dup4\n        /* \"smart_contracts/contracts/BaseERC20.sol\":9177:9209  database.allowed[owner][spender] */\n      0xffffffffffffffffffffffffffffffffffffffff\n      and\n      0xffffffffffffffffffffffffffffffffffffffff\n      and\n      dup2\n      mstore\n      0x20\n      add\n      swap1\n      dup2\n      mstore\n      0x20\n      add\n      0x00\n      keccak256\n      sload\n        /* \"smart_contracts/contracts/BaseERC20.sol\":9170:9209  return database.allowed[owner][spender] */\n      swap1\n      pop\n        /* \"smart_contracts/contracts/BaseERC20.sol\":9051:9216  function allowance(address owner, address spender)... */\n      swap3\n      swap2\n      pop\n      pop\n      jump\t// out\n        /* \"smart_contracts/contracts/BaseERC20.sol\":8810:8924  function stakedFor(address account) public view returns (uint256) {... */\n    tag_74:\n        /* \"smart_contracts/contracts/BaseERC20.sol\":8867:8874  uint256 */\n      0x00\n        /* \"smart_contracts/contracts/BaseERC20.sol\":8893:8901  database */\n      0x0c\n        /* \"smart_contracts/contracts/BaseERC20.sol\":8893:8908  database.staked */\n      0x02\n      add\n        /* \"smart_contracts/contracts/BaseERC20.sol\":8893:8917  database.staked[account] */\n      0x00\n        /* \"smart_contracts/contracts/BaseERC20.sol\":8909:8916  account */\n      dup4\n        /* \"smart_contracts/contracts/BaseERC20.sol\":8893:8917  database.staked[account] */\n      0xffffffffffffffffffffffffffffffffffffffff\n      and\n      0xffffffffffffffffffffffffffffffffffffffff\n      and\n      dup2\n      mstore\n      0x20\n      add\n      swap1\n      dup2\n      mstore\n      0x20\n      add\n      0x00\n      keccak256\n      sload\n        /* \"smart_contracts/contracts/BaseERC20.sol\":8886:8917  return database.staked[account] */\n      swap1\n      pop\n        /* \"smart_contracts/contracts/BaseERC20.sol\":8810:8924  function stakedFor(address account) public view returns (uint256) {... */\n      swap2\n      swap1\n      pop\n      jump\t// out\n        /* \"smart_contracts/contracts/BaseERC20.sol\":2557:2923  function _approve(... */\n    tag_89:\n        /* \"smart_contracts/contracts/BaseERC20.sol\":1022:1026  true */\n      0x01\n        /* \"smart_contracts/contracts/BaseERC20.sol\":1010:1026  isPaused != true */\n      iszero\n      iszero\n        /* \"smart_contracts/contracts/BaseERC20.sol\":1010:1018  isPaused */\n      0x04\n      0x05\n      swap1\n      sload\n      swap1\n      0x0100\n      exp\n      swap1\n      div\n      0xff\n      and\n        /* \"smart_contracts/contracts/BaseERC20.sol\":1010:1026  isPaused != true */\n      iszero\n      iszero\n      sub\n        /* \"smart_contracts/contracts/BaseERC20.sol\":1002:1050  require(isPaused != true, \"The token is paused\") */\n      tag_125\n      jumpi\n      mload(0x40)\n      0x08c379a000000000000000000000000000000000000000000000000000000000\n      dup2\n      mstore\n      0x04\n      add\n      tag_126\n      swap1\n      tag_86\n      jump\t// in\n    tag_126:\n      mload(0x40)\n      dup1\n      swap2\n      sub\n      swap1\n      revert\n    tag_125:\n        /* \"smart_contracts/contracts/BaseERC20.sol\":2709:2710  0 */\n      0x00\n        /* \"smart_contracts/contracts/BaseERC20.sol\":2692:2711  owner != address(0) */\n      0xffffffffffffffffffffffffffffffffffffffff\n      and\n        /* \"smart_contracts/contracts/BaseERC20.sol\":2692:2697  owner */\n      dup4\n        /* \"smart_contracts/contracts/BaseERC20.sol\":2692:2711  owner != address(0) */\n      0xffffffffffffffffffffffffffffffffffffffff\n      and\n      sub\n        /* \"smart_contracts/contracts/BaseERC20.sol\":2684:2745  require(owner != address(0), \"Approve from the zero address\") */\n      tag_128\n      jumpi\n      mload(0x40)\n      0x08c379a000000000000000000000000000000000000000000000000000000000\n      dup2\n      mstore\n      0x04\n      add\n      tag_129\n      swap1\n      tag_130\n      jump\t// in\n    tag_129:\n      mload(0x40)\n      dup1\n      swap2\n      sub\n      swap1\n      revert\n    tag_128:\n        /* \"smart_contracts/contracts/BaseERC20.sol\":2782:2783  0 */\n      0x00\n        /* \"smart_contracts/contracts/BaseERC20.sol\":2763:2784  spender != address(0) */\n      0xffffffffffffffffffffffffffffffffffffffff\n      and\n        /* \"smart_contracts/contracts/BaseERC20.sol\":2763:2770  spender */\n      dup3\n        /* \"smart_contracts/contracts/BaseERC20.sol\":2763:2784  spender != address(0) */\n      0xffffffffffffffffffffffffffffffffffffffff\n      and\n      sub\n        /* \"smart_contracts/contracts/BaseERC20.sol\":2755:2818  require(spender != address(0), \"Approve from the zero address\") */\n      tag_131\n      jumpi\n      mload(0x40)\n      0x08c379a000000000000000000000000000000000000000000000000000000000\n      dup2\n      mstore\n      0x04\n      add\n      tag_132\n      swap1\n      tag_130\n      jump\t// in\n    tag_132:\n      mload(0x40)\n      dup1\n      swap2\n      sub\n      swap1\n      revert\n    tag_131:\n        /* \"smart_contracts/contracts/BaseERC20.sol\":2863:2869  amount */\n      dup1\n        /* \"smart_contracts/contracts/BaseERC20.sol\":2828:2836  database */\n      0x0c\n        /* \"smart_contracts/contracts/BaseERC20.sol\":2828:2844  database.allowed */\n      0x04\n      add\n        /* \"smart_contracts/contracts/BaseERC20.sol\":2828:2851  database.allowed[owner] */\n      0x00\n        /* \"smart_contracts/contracts/BaseERC20.sol\":2845:2850  owner */\n      dup6\n        /* \"smart_contracts/contracts/BaseERC20.sol\":2828:2851  database.allowed[owner] */\n      0xffffffffffffffffffffffffffffffffffffffff\n      and\n      0xffffffffffffffffffffffffffffffffffffffff\n      and\n      dup2\n      mstore\n      0x20\n      add\n      swap1\n      dup2\n      mstore\n      0x20\n      add\n      0x00\n      keccak256\n        /* \"smart_contracts/contracts/BaseERC20.sol\":2828:2860  database.allowed[owner][spender] */\n      0x00\n        /* \"smart_contracts/contracts/BaseERC20.sol\":2852:2859  spender */\n      dup5\n        /* \"smart_contracts/contracts/BaseERC20.sol\":2828:2860  database.allowed[owner][spender] */\n      0xffffffffffffffffffffffffffffffffffffffff\n      and\n      0xffffffffffffffffffffffffffffffffffffffff\n      and\n      dup2\n      mstore\n      0x20\n      add\n      swap1\n      dup2\n      mstore\n      0x20\n      add\n      0x00\n      keccak256\n        /* \"smart_contracts/contracts/BaseERC20.sol\":2828:2869  database.allowed[owner][spender] = amount */\n      dup2\n      swap1\n      sstore\n      pop\n        /* \"smart_contracts/contracts/BaseERC20.sol\":2900:2907  spender */\n      dup2\n        /* \"smart_contracts/contracts/BaseERC20.sol\":2884:2916  Approval(owner, spender, amount) */\n      0xffffffffffffffffffffffffffffffffffffffff\n      and\n        /* \"smart_contracts/contracts/BaseERC20.sol\":2893:2898  owner */\n      dup4\n        /* \"smart_contracts/contracts/BaseERC20.sol\":2884:2916  Approval(owner, spender, amount) */\n      0xffffffffffffffffffffffffffffffffffffffff\n      and\n      0x8c5be1e5ebec7d5bd14f71427d1e84f3dd0314c0f7b2291e5b200ac8c7c3b925\n        /* \"smart_contracts/contracts/BaseERC20.sol\":2909:2915  amount */\n      dup4\n        /* \"smart_contracts/contracts/BaseERC20.sol\":2884:2916  Approval(owner, spender, amount) */\n      mload(0x40)\n      tag_133\n      swap2\n      swap1\n      tag_33\n      jump\t// in\n    tag_133:\n      mload(0x40)\n      dup1\n      swap2\n      sub\n      swap1\n      log3\n        /* \"smart_contracts/contracts/BaseERC20.sol\":2557:2923  function _approve(... */\n      pop\n      pop\n      pop\n      jump\t// out\n        /* \"smart_contracts/libraries/Math.sol\":866:1018  function add(uint256 _a, uint256 _b) internal pure returns (uint256) {... */\n    tag_100:\n        /* \"smart_contracts/libraries/Math.sol\":926:933  uint256 */\n      0x00\n        /* \"smart_contracts/libraries/Math.sol\":946:955  uint256 c */\n      dup1\n        /* \"smart_contracts/libraries/Math.sol\":963:965  _b */\n      dup3\n        /* \"smart_contracts/libraries/Math.sol\":958:960  _a */\n      dup5\n        /* \"smart_contracts/libraries/Math.sol\":958:965  _a + _b */\n      tag_135\n      swap2\n      swap1\n      tag_136\n      jump\t// in\n    tag_135:\n        /* \"smart_contracts/libraries/Math.sol\":946:965  uint256 c = _a + _b */\n      swap1\n      pop\n        /* \"smart_contracts/libraries/Math.sol\":988:990  _a */\n      dup4\n        /* \"smart_contracts/libraries/Math.sol\":983:984  c */\n      dup2\n        /* \"smart_contracts/libraries/Math.sol\":983:990  c >= _a */\n      lt\n      iszero\n        /* \"smart_contracts/libraries/Math.sol\":976:991  assert(c >= _a) */\n      tag_137\n      jumpi\n      tag_138\n      tag_139\n      jump\t// in\n    tag_138:\n    tag_137:\n        /* \"smart_contracts/libraries/Math.sol\":1009:1010  c */\n      dup1\n        /* \"smart_contracts/libraries/Math.sol\":1002:1010  return c */\n      swap2\n      pop\n      pop\n        /* \"smart_contracts/libraries/Math.sol\":866:1018  function add(uint256 _a, uint256 _b) internal pure returns (uint256) {... */\n      swap3\n      swap2\n      pop\n      pop\n      jump\t// out\n        /* \"smart_contracts/libraries/Math.sol\":729:858  function sub(uint256 _a, uint256 _b) internal pure returns (uint256) {... */\n    tag_121:\n        /* \"smart_contracts/libraries/Math.sol\":789:796  uint256 */\n      0x00\n        /* \"smart_contracts/libraries/Math.sol\":822:824  _a */\n      dup3\n        /* \"smart_contracts/libraries/Math.sol\":816:818  _b */\n      dup3\n        /* \"smart_contracts/libraries/Math.sol\":816:824  _b <= _a */\n      gt\n      iszero\n        /* \"smart_contracts/libraries/Math.sol\":809:825  assert(_b <= _a) */\n      tag_141\n      jumpi\n      tag_142\n      tag_139\n      jump\t// in\n    tag_142:\n    tag_141:\n        /* \"smart_contracts/libraries/Math.sol\":848:850  _b */\n      dup2\n        /* \"smart_contracts/libraries/Math.sol\":843:845  _a */\n      dup4\n        /* \"smart_contracts/libraries/Math.sol\":843:850  _a - _b */\n      tag_143\n      swap2\n      swap1\n      tag_144\n      jump\t// in\n    tag_143:\n        /* \"smart_contracts/libraries/Math.sol\":836:850  return _a - _b */\n      swap1\n      pop\n        /* \"smart_contracts/libraries/Math.sol\":729:858  function sub(uint256 _a, uint256 _b) internal pure returns (uint256) {... */\n      swap3\n      swap2\n      pop\n      pop\n      jump\t// out\n        /* \"#utility.yul\":7:106   */\n    tag_145:\n        /* \"#utility.yul\":59:65   */\n      0x00\n        /* \"#utility.yul\":93:98   */\n      dup2\n        /* \"#utility.yul\":87:99   */\n      mload\n        /* \"#utility.yul\":77:99   */\n      swap1\n      pop\n        /* \"#utility.yul\":7:106   */\n      swap2\n      swap1\n      pop\n      jump\t// out\n        /* \"#utility.yul\":112:281   */\n    tag_146:\n        /* \"#utility.yul\":196:207   */\n      0x00\n        /* \"#utility.yul\":230:236   */\n      dup3\n        /* \"#utility.yul\":225:228   */\n      dup3\n        /* \"#utility.yul\":218:237   */\n      mstore\n        /* \"#utility.yul\":270:274   */\n      0x20\n        /* \"#utility.yul\":265:268   */\n      dup3\n        /* \"#utility.yul\":261:275   */\n      add\n        /* \"#utility.yul\":246:275   */\n      swap1\n      pop\n        /* \"#utility.yul\":112:281   */\n      swap3\n      swap2\n      pop\n      pop\n      jump\t// out\n        /* \"#utility.yul\":287:533   */\n    tag_147:\n        /* \"#utility.yul\":368:369   */\n      0x00\n        /* \"#utility.yul\":378:491   */\n    tag_175:\n        /* \"#utility.yul\":392:398   */\n      dup4\n        /* \"#utility.yul\":389:390   */\n      dup2\n        /* \"#utility.yul\":386:399   */\n      lt\n        /* \"#utility.yul\":378:491   */\n      iszero\n      tag_177\n      jumpi\n        /* \"#utility.yul\":477:478   */\n      dup1\n        /* \"#utility.yul\":472:475   */\n      dup3\n        /* \"#utility.yul\":468:479   */\n      add\n        /* \"#utility.yul\":462:480   */\n      mload\n        /* \"#utility.yul\":458:459   */\n      dup2\n        /* \"#utility.yul\":453:456   */\n      dup5\n        /* \"#utility.yul\":449:460   */\n      add\n        /* \"#utility.yul\":442:481   */\n      mstore\n        /* \"#utility.yul\":414:416   */\n      0x20\n        /* \"#utility.yul\":411:412   */\n      dup2\n        /* \"#utility.yul\":407:417   */\n      add\n        /* \"#utility.yul\":402:417   */\n      swap1\n      pop\n        /* \"#utility.yul\":378:491   */\n      jump(tag_175)\n    tag_177:\n        /* \"#utility.yul\":525:526   */\n      0x00\n        /* \"#utility.yul\":516:522   */\n      dup5\n        /* \"#utility.yul\":511:514   */\n      dup5\n        /* \"#utility.yul\":507:523   */\n      add\n        /* \"#utility.yul\":500:527   */\n      mstore\n        /* \"#utility.yul\":349:533   */\n      pop\n        /* \"#utility.yul\":287:533   */\n      pop\n      pop\n      pop\n      jump\t// out\n        /* \"#utility.yul\":539:641   */\n    tag_148:\n        /* \"#utility.yul\":580:586   */\n      0x00\n        /* \"#utility.yul\":631:633   */\n      0x1f\n        /* \"#utility.yul\":627:634   */\n      not\n        /* \"#utility.yul\":622:624   */\n      0x1f\n        /* \"#utility.yul\":615:620   */\n      dup4\n        /* \"#utility.yul\":611:625   */\n      add\n        /* \"#utility.yul\":607:635   */\n      and\n        /* \"#utility.yul\":597:635   */\n      swap1\n      pop\n        /* \"#utility.yul\":539:641   */\n      swap2\n      swap1\n      pop\n      jump\t// out\n        /* \"#utility.yul\":647:1024   */\n    tag_149:\n        /* \"#utility.yul\":735:738   */\n      0x00\n        /* \"#utility.yul\":763:802   */\n      tag_180\n        /* \"#utility.yul\":796:801   */\n      dup3\n        /* \"#utility.yul\":763:802   */\n      tag_145\n      jump\t// in\n    tag_180:\n        /* \"#utility.yul\":818:889   */\n      tag_181\n        /* \"#utility.yul\":882:888   */\n      dup2\n        /* \"#utility.yul\":877:880   */\n      dup6\n        /* \"#utility.yul\":818:889   */\n      tag_146\n      jump\t// in\n    tag_181:\n        /* \"#utility.yul\":811:889   */\n      swap4\n      pop\n        /* \"#utility.yul\":898:963   */\n      tag_182\n        /* \"#utility.yul\":956:962   */\n      dup2\n        /* \"#utility.yul\":951:954   */\n      dup6\n        /* \"#utility.yul\":944:948   */\n      0x20\n        /* \"#utility.yul\":937:942   */\n      dup7\n        /* \"#utility.yul\":933:949   */\n      add\n        /* \"#utility.yul\":898:963   */\n      tag_147\n      jump\t// in\n    tag_182:\n        /* \"#utility.yul\":988:1017   */\n      tag_183\n        /* \"#utility.yul\":1010:1016   */\n      dup2\n        /* \"#utility.yul\":988:1017   */\n      tag_148\n      jump\t// in\n    tag_183:\n        /* \"#utility.yul\":983:986   */\n      dup5\n        /* \"#utility.yul\":979:1018   */\n      add\n        /* \"#utility.yul\":972:1018   */\n      swap2\n      pop\n        /* \"#utility.yul\":739:1024   */\n      pop\n        /* \"#utility.yul\":647:1024   */\n      swap3\n      swap2\n      pop\n      pop\n      jump\t// out\n        /* \"#utility.yul\":1030:1343   */\n    tag_23:\n        /* \"#utility.yul\":1143:1147   */\n      0x00\n        /* \"#utility.yul\":1181:1183   */\n      0x20\n        /* \"#utility.yul\":1170:1179   */\n      dup3\n        /* \"#utility.yul\":1166:1184   */\n      add\n        /* \"#utility.yul\":1158:1184   */\n      swap1\n      pop\n        /* \"#utility.yul\":1230:1239   */\n      dup2\n        /* \"#utility.yul\":1224:1228   */\n      dup2\n        /* \"#utility.yul\":1220:1240   */\n      sub\n        /* \"#utility.yul\":1216:1217   */\n      0x00\n        /* \"#utility.yul\":1205:1214   */\n      dup4\n        /* \"#utility.yul\":1201:1218   */\n      add\n        /* \"#utility.yul\":1194:1241   */\n      mstore\n        /* \"#utility.yul\":1258:1336   */\n      tag_185\n        /* \"#utility.yul\":1331:1335   */\n      dup2\n        /* \"#utility.yul\":1322:1328   */\n      dup5\n        /* \"#utility.yul\":1258:1336   */\n      tag_149\n      jump\t// in\n    tag_185:\n        /* \"#utility.yul\":1250:1336   */\n      swap1\n      pop\n        /* \"#utility.yul\":1030:1343   */\n      swap3\n      swap2\n      pop\n      pop\n      jump\t// out\n        /* \"#utility.yul\":1430:1547   */\n    tag_151:\n        /* \"#utility.yul\":1539:1540   */\n      0x00\n        /* \"#utility.yul\":1536:1537   */\n      dup1\n        /* \"#utility.yul\":1529:1541   */\n      revert\n        /* \"#utility.yul\":1676:1802   */\n    tag_153:\n        /* \"#utility.yul\":1713:1720   */\n      0x00\n        /* \"#utility.yul\":1753:1795   */\n      0xffffffffffffffffffffffffffffffffffffffff\n        /* \"#utility.yul\":1746:1751   */\n      dup3\n        /* \"#utility.yul\":1742:1796   */\n      and\n        /* \"#utility.yul\":1731:1796   */\n      swap1\n      pop\n        /* \"#utility.yul\":1676:1802   */\n      swap2\n      swap1\n      pop\n      jump\t// out\n        /* \"#utility.yul\":1808:1904   */\n    tag_154:\n        /* \"#utility.yul\":1845:1852   */\n      0x00\n        /* \"#utility.yul\":1874:1898   */\n      tag_191\n        /* \"#utility.yul\":1892:1897   */\n      dup3\n        /* \"#utility.yul\":1874:1898   */\n      tag_153\n      jump\t// in\n    tag_191:\n        /* \"#utility.yul\":1863:1898   */\n      swap1\n      pop\n        /* \"#utility.yul\":1808:1904   */\n      swap2\n      swap1\n      pop\n      jump\t// out\n        /* \"#utility.yul\":1910:2032   */\n    tag_155:\n        /* \"#utility.yul\":1983:2007   */\n      tag_193\n        /* \"#utility.yul\":2001:2006   */\n      dup2\n        /* \"#utility.yul\":1983:2007   */\n      tag_154\n      jump\t// in\n    tag_193:\n        /* \"#utility.yul\":1976:1981   */\n      dup2\n        /* \"#utility.yul\":1973:2008   */\n      eq\n        /* \"#utility.yul\":1963:2026   */\n      tag_194\n      jumpi\n        /* \"#utility.yul\":2022:2023   */\n      0x00\n        /* \"#utility.yul\":2019:2020   */\n      dup1\n        /* \"#utility.yul\":2012:2024   */\n      revert\n        /* \"#utility.yul\":1963:2026   */\n    tag_194:\n        /* \"#utility.yul\":1910:2032   */\n      pop\n      jump\t// out\n        /* \"#utility.yul\":2038:2177   */\n    tag_156:\n        /* \"#utility.yul\":2084:2089   */\n      0x00\n        /* \"#utility.yul\":2122:2128   */\n      dup2\n        /* \"#utility.yul\":2109:2129   */\n      calldataload\n        /* \"#utility.yul\":2100:2129   */\n      swap1\n      pop\n        /* \"#utility.yul\":2138:2171   */\n      tag_196\n        /* \"#utility.yul\":2165:2170   */\n      dup2\n        /* \"#utility.yul\":2138:2171   */\n      tag_155\n      jump\t// in\n    tag_196:\n        /* \"#utility.yul\":2038:2177   */\n      swap3\n      swap2\n      pop\n      pop\n      jump\t// out\n        /* \"#utility.yul\":2183:2260   */\n    tag_157:\n        /* \"#utility.yul\":2220:2227   */\n      0x00\n        /* \"#utility.yul\":2249:2254   */\n      dup2\n        /* \"#utility.yul\":2238:2254   */\n      swap1\n      pop\n        /* \"#utility.yul\":2183:2260   */\n      swap2\n      swap1\n      pop\n      jump\t// out\n        /* \"#utility.yul\":2266:2388   */\n    tag_158:\n        /* \"#utility.yul\":2339:2363   */\n      tag_199\n        /* \"#utility.yul\":2357:2362   */\n      dup2\n        /* \"#utility.yul\":2339:2363   */\n      tag_157\n      jump\t// in\n    tag_199:\n        /* \"#utility.yul\":2332:2337   */\n      dup2\n        /* \"#utility.yul\":2329:2364   */\n      eq\n        /* \"#utility.yul\":2319:2382   */\n      tag_200\n      jumpi\n        /* \"#utility.yul\":2378:2379   */\n      0x00\n        /* \"#utility.yul\":2375:2376   */\n      dup1\n        /* \"#utility.yul\":2368:2380   */\n      revert\n        /* \"#utility.yul\":2319:2382   */\n    tag_200:\n        /* \"#utility.yul\":2266:2388   */\n      pop\n      jump\t// out\n        /* \"#utility.yul\":2394:2533   */\n    tag_159:\n        /* \"#utility.yul\":2440:2445   */\n      0x00\n        /* \"#utility.yul\":2478:2484   */\n      dup2\n        /* \"#utility.yul\":2465:2485   */\n      calldataload\n        /* \"#utility.yul\":2456:2485   */\n      swap1\n      pop\n        /* \"#utility.yul\":2494:2527   */\n      tag_202\n        /* \"#utility.yul\":2521:2526   */\n      dup2\n        /* \"#utility.yul\":2494:2527   */\n      tag_158\n      jump\t// in\n    tag_202:\n        /* \"#utility.yul\":2394:2533   */\n      swap3\n      swap2\n      pop\n      pop\n      jump\t// out\n        /* \"#utility.yul\":2539:3013   */\n    tag_26:\n        /* \"#utility.yul\":2607:2613   */\n      0x00\n        /* \"#utility.yul\":2615:2621   */\n      dup1\n        /* \"#utility.yul\":2664:2666   */\n      0x40\n        /* \"#utility.yul\":2652:2661   */\n      dup4\n        /* \"#utility.yul\":2643:2650   */\n      dup6\n        /* \"#utility.yul\":2639:2662   */\n      sub\n        /* \"#utility.yul\":2635:2667   */\n      slt\n        /* \"#utility.yul\":2632:2751   */\n      iszero\n      tag_204\n      jumpi\n        /* \"#utility.yul\":2670:2749   */\n      tag_205\n      tag_151\n      jump\t// in\n    tag_205:\n        /* \"#utility.yul\":2632:2751   */\n    tag_204:\n        /* \"#utility.yul\":2790:2791   */\n      0x00\n        /* \"#utility.yul\":2815:2868   */\n      tag_206\n        /* \"#utility.yul\":2860:2867   */\n      dup6\n        /* \"#utility.yul\":2851:2857   */\n      dup3\n        /* \"#utility.yul\":2840:2849   */\n      dup7\n        /* \"#utility.yul\":2836:2858   */\n      add\n        /* \"#utility.yul\":2815:2868   */\n      tag_156\n      jump\t// in\n    tag_206:\n        /* \"#utility.yul\":2805:2868   */\n      swap3\n      pop\n        /* \"#utility.yul\":2761:2878   */\n      pop\n        /* \"#utility.yul\":2917:2919   */\n      0x20\n        /* \"#utility.yul\":2943:2996   */\n      tag_207\n        /* \"#utility.yul\":2988:2995   */\n      dup6\n        /* \"#utility.yul\":2979:2985   */\n      dup3\n        /* \"#utility.yul\":2968:2977   */\n      dup7\n        /* \"#utility.yul\":2964:2986   */\n      add\n        /* \"#utility.yul\":2943:2996   */\n      tag_159\n      jump\t// in\n    tag_207:\n        /* \"#utility.yul\":2933:2996   */\n      swap2\n      pop\n        /* \"#utility.yul\":2888:3006   */\n      pop\n        /* \"#utility.yul\":2539:3013   */\n      swap3\n      pop\n      swap3\n      swap1\n      pop\n      jump\t// out\n        /* \"#utility.yul\":3019:3109   */\n    tag_160:\n        /* \"#utility.yul\":3053:3060   */\n      0x00\n        /* \"#utility.yul\":3096:3101   */\n      dup2\n        /* \"#utility.yul\":3089:3102   */\n      iszero\n        /* \"#utility.yul\":3082:3103   */\n      iszero\n        /* \"#utility.yul\":3071:3103   */\n      swap1\n      pop\n        /* \"#utility.yul\":3019:3109   */\n      swap2\n      swap1\n      pop\n      jump\t// out\n        /* \"#utility.yul\":3115:3224   */\n    tag_161:\n        /* \"#utility.yul\":3196:3217   */\n      tag_210\n        /* \"#utility.yul\":3211:3216   */\n      dup2\n        /* \"#utility.yul\":3196:3217   */\n      tag_160\n      jump\t// in\n    tag_210:\n        /* \"#utility.yul\":3191:3194   */\n      dup3\n        /* \"#utility.yul\":3184:3218   */\n      mstore\n        /* \"#utility.yul\":3115:3224   */\n      pop\n      pop\n      jump\t// out\n        /* \"#utility.yul\":3230:3440   */\n    tag_29:\n        /* \"#utility.yul\":3317:3321   */\n      0x00\n        /* \"#utility.yul\":3355:3357   */\n      0x20\n        /* \"#utility.yul\":3344:3353   */\n      dup3\n        /* \"#utility.yul\":3340:3358   */\n      add\n        /* \"#utility.yul\":3332:3358   */\n      swap1\n      pop\n        /* \"#utility.yul\":3368:3433   */\n      tag_212\n        /* \"#utility.yul\":3430:3431   */\n      0x00\n        /* \"#utility.yul\":3419:3428   */\n      dup4\n        /* \"#utility.yul\":3415:3432   */\n      add\n        /* \"#utility.yul\":3406:3412   */\n      dup5\n        /* \"#utility.yul\":3368:3433   */\n      tag_161\n      jump\t// in\n    tag_212:\n        /* \"#utility.yul\":3230:3440   */\n      swap3\n      swap2\n      pop\n      pop\n      jump\t// out\n        /* \"#utility.yul\":3446:3564   */\n    tag_162:\n        /* \"#utility.yul\":3533:3557   */\n      tag_214\n        /* \"#utility.yul\":3551:3556   */\n      dup2\n        /* \"#utility.yul\":3533:3557   */\n      tag_157\n      jump\t// in\n    tag_214:\n        /* \"#utility.yul\":3528:3531   */\n      dup3\n        /* \"#utility.yul\":3521:3558   */\n      mstore\n        /* \"#utility.yul\":3446:3564   */\n      pop\n      pop\n      jump\t// out\n        /* \"#utility.yul\":3570:3792   */\n    tag_33:\n        /* \"#utility.yul\":3663:3667   */\n      0x00\n        /* \"#utility.yul\":3701:3703   */\n      0x20\n        /* \"#utility.yul\":3690:3699   */\n      dup3\n        /* \"#utility.yul\":3686:3704   */\n      add\n        /* \"#utility.yul\":3678:3704   */\n      swap1\n      pop\n        /* \"#utility.yul\":3714:3785   */\n      tag_216\n        /* \"#utility.yul\":3782:3783   */\n      0x00\n        /* \"#utility.yul\":3771:3780   */\n      dup4\n        /* \"#utility.yul\":3767:3784   */\n      add\n        /* \"#utility.yul\":3758:3764   */\n      dup5\n        /* \"#utility.yul\":3714:3785   */\n      tag_162\n      jump\t// in\n    tag_216:\n        /* \"#utility.yul\":3570:3792   */\n      swap3\n      swap2\n      pop\n      pop\n      jump\t// out\n        /* \"#utility.yul\":3798:4127   */\n    tag_46:\n        /* \"#utility.yul\":3857:3863   */\n      0x00\n        /* \"#utility.yul\":3906:3908   */\n      0x20\n        /* \"#utility.yul\":3894:3903   */\n      dup3\n        /* \"#utility.yul\":3885:3892   */\n      dup5\n        /* \"#utility.yul\":3881:3904   */\n      sub\n        /* \"#utility.yul\":3877:3909   */\n      slt\n        /* \"#utility.yul\":3874:3993   */\n      iszero\n      tag_218\n      jumpi\n        /* \"#utility.yul\":3912:3991   */\n      tag_219\n      tag_151\n      jump\t// in\n    tag_219:\n        /* \"#utility.yul\":3874:3993   */\n    tag_218:\n        /* \"#utility.yul\":4032:4033   */\n      0x00\n        /* \"#utility.yul\":4057:4110   */\n      tag_220\n        /* \"#utility.yul\":4102:4109   */\n      dup5\n        /* \"#utility.yul\":4093:4099   */\n      dup3\n        /* \"#utility.yul\":4082:4091   */\n      dup6\n        /* \"#utility.yul\":4078:4100   */\n      add\n        /* \"#utility.yul\":4057:4110   */\n      tag_156\n      jump\t// in\n    tag_220:\n        /* \"#utility.yul\":4047:4110   */\n      swap2\n      pop\n        /* \"#utility.yul\":4003:4120   */\n      pop\n        /* \"#utility.yul\":3798:4127   */\n      swap3\n      swap2\n      pop\n      pop\n      jump\t// out\n        /* \"#utility.yul\":4133:4607   */\n    tag_69:\n        /* \"#utility.yul\":4201:4207   */\n      0x00\n        /* \"#utility.yul\":4209:4215   */\n      dup1\n        /* \"#utility.yul\":4258:4260   */\n      0x40\n        /* \"#utility.yul\":4246:4255   */\n      dup4\n        /* \"#utility.yul\":4237:4244   */\n      dup6\n        /* \"#utility.yul\":4233:4256   */\n      sub\n        /* \"#utility.yul\":4229:4261   */\n      slt\n        /* \"#utility.yul\":4226:4345   */\n      iszero\n      tag_222\n      jumpi\n        /* \"#utility.yul\":4264:4343   */\n      tag_223\n      tag_151\n      jump\t// in\n    tag_223:\n        /* \"#utility.yul\":4226:4345   */\n    tag_222:\n        /* \"#utility.yul\":4384:4385   */\n      0x00\n        /* \"#utility.yul\":4409:4462   */\n      tag_224\n        /* \"#utility.yul\":4454:4461   */\n      dup6\n        /* \"#utility.yul\":4445:4451   */\n      dup3\n        /* \"#utility.yul\":4434:4443   */\n      dup7\n        /* \"#utility.yul\":4430:4452   */\n      add\n        /* \"#utility.yul\":4409:4462   */\n      tag_156\n      jump\t// in\n    tag_224:\n        /* \"#utility.yul\":4399:4462   */\n      swap3\n      pop\n        /* \"#utility.yul\":4355:4472   */\n      pop\n        /* \"#utility.yul\":4511:4513   */\n      0x20\n        /* \"#utility.yul\":4537:4590   */\n      tag_225\n        /* \"#utility.yul\":4582:4589   */\n      dup6\n        /* \"#utility.yul\":4573:4579   */\n      dup3\n        /* \"#utility.yul\":4562:4571   */\n      dup7\n        /* \"#utility.yul\":4558:4580   */\n      add\n        /* \"#utility.yul\":4537:4590   */\n      tag_156\n      jump\t// in\n    tag_225:\n        /* \"#utility.yul\":4527:4590   */\n      swap2\n      pop\n        /* \"#utility.yul\":4482:4600   */\n      pop\n        /* \"#utility.yul\":4133:4607   */\n      swap3\n      pop\n      swap3\n      swap1\n      pop\n      jump\t// out\n        /* \"#utility.yul\":4613:4793   */\n    tag_163:\n        /* \"#utility.yul\":4661:4738   */\n      0x4e487b7100000000000000000000000000000000000000000000000000000000\n        /* \"#utility.yul\":4658:4659   */\n      0x00\n        /* \"#utility.yul\":4651:4739   */\n      mstore\n        /* \"#utility.yul\":4758:4762   */\n      0x22\n        /* \"#utility.yul\":4755:4756   */\n      0x04\n        /* \"#utility.yul\":4748:4763   */\n      mstore\n        /* \"#utility.yul\":4782:4786   */\n      0x24\n        /* \"#utility.yul\":4779:4780   */\n      0x00\n        /* \"#utility.yul\":4772:4787   */\n      revert\n        /* \"#utility.yul\":4799:5119   */\n    tag_78:\n        /* \"#utility.yul\":4843:4849   */\n      0x00\n        /* \"#utility.yul\":4880:4881   */\n      0x02\n        /* \"#utility.yul\":4874:4878   */\n      dup3\n        /* \"#utility.yul\":4870:4882   */\n      div\n        /* \"#utility.yul\":4860:4882   */\n      swap1\n      pop\n        /* \"#utility.yul\":4927:4928   */\n      0x01\n        /* \"#utility.yul\":4921:4925   */\n      dup3\n        /* \"#utility.yul\":4917:4929   */\n      and\n        /* \"#utility.yul\":4948:4966   */\n      dup1\n        /* \"#utility.yul\":4938:5019   */\n      tag_228\n      jumpi\n        /* \"#utility.yul\":5004:5008   */\n      0x7f\n        /* \"#utility.yul\":4996:5002   */\n      dup3\n        /* \"#utility.yul\":4992:5009   */\n      and\n        /* \"#utility.yul\":4982:5009   */\n      swap2\n      pop\n        /* \"#utility.yul\":4938:5019   */\n    tag_228:\n        /* \"#utility.yul\":5066:5068   */\n      0x20\n        /* \"#utility.yul\":5058:5064   */\n      dup3\n        /* \"#utility.yul\":5055:5069   */\n      lt\n        /* \"#utility.yul\":5035:5053   */\n      dup2\n        /* \"#utility.yul\":5032:5070   */\n      sub\n        /* \"#utility.yul\":5029:5113   */\n      tag_229\n      jumpi\n        /* \"#utility.yul\":5085:5103   */\n      tag_230\n      tag_163\n      jump\t// in\n    tag_230:\n        /* \"#utility.yul\":5029:5113   */\n    tag_229:\n        /* \"#utility.yul\":4850:5119   */\n      pop\n        /* \"#utility.yul\":4799:5119   */\n      swap2\n      swap1\n      pop\n      jump\t// out\n        /* \"#utility.yul\":5125:5294   */\n    tag_164:\n        /* \"#utility.yul\":5265:5286   */\n      0x54686520746f6b656e2069732070617573656400000000000000000000000000\n        /* \"#utility.yul\":5261:5262   */\n      0x00\n        /* \"#utility.yul\":5253:5259   */\n      dup3\n        /* \"#utility.yul\":5249:5263   */\n      add\n        /* \"#utility.yul\":5242:5287   */\n      mstore\n        /* \"#utility.yul\":5125:5294   */\n      pop\n      jump\t// out\n        /* \"#utility.yul\":5300:5666   */\n    tag_165:\n        /* \"#utility.yul\":5442:5445   */\n      0x00\n        /* \"#utility.yul\":5463:5530   */\n      tag_233\n        /* \"#utility.yul\":5527:5529   */\n      0x13\n        /* \"#utility.yul\":5522:5525   */\n      dup4\n        /* \"#utility.yul\":5463:5530   */\n      tag_146\n      jump\t// in\n    tag_233:\n        /* \"#utility.yul\":5456:5530   */\n      swap2\n      pop\n        /* \"#utility.yul\":5539:5632   */\n      tag_234\n        /* \"#utility.yul\":5628:5631   */\n      dup3\n        /* \"#utility.yul\":5539:5632   */\n      tag_164\n      jump\t// in\n    tag_234:\n        /* \"#utility.yul\":5657:5659   */\n      0x20\n        /* \"#utility.yul\":5652:5655   */\n      dup3\n        /* \"#utility.yul\":5648:5660   */\n      add\n        /* \"#utility.yul\":5641:5660   */\n      swap1\n      pop\n        /* \"#utility.yul\":5300:5666   */\n      swap2\n      swap1\n      pop\n      jump\t// out\n        /* \"#utility.yul\":5672:6091   */\n    tag_86:\n        /* \"#utility.yul\":5838:5842   */\n      0x00\n        /* \"#utility.yul\":5876:5878   */\n      0x20\n        /* \"#utility.yul\":5865:5874   */\n      dup3\n        /* \"#utility.yul\":5861:5879   */\n      add\n        /* \"#utility.yul\":5853:5879   */\n      swap1\n      pop\n        /* \"#utility.yul\":5925:5934   */\n      dup2\n        /* \"#utility.yul\":5919:5923   */\n      dup2\n        /* \"#utility.yul\":5915:5935   */\n      sub\n        /* \"#utility.yul\":5911:5912   */\n      0x00\n        /* \"#utility.yul\":5900:5909   */\n      dup4\n        /* \"#utility.yul\":5896:5913   */\n      add\n        /* \"#utility.yul\":5889:5936   */\n      mstore\n        /* \"#utility.yul\":5953:6084   */\n      tag_236\n        /* \"#utility.yul\":6079:6083   */\n      dup2\n        /* \"#utility.yul\":5953:6084   */\n      tag_165\n      jump\t// in\n    tag_236:\n        /* \"#utility.yul\":5945:6084   */\n      swap1\n      pop\n        /* \"#utility.yul\":5672:6091   */\n      swap2\n      swap1\n      pop\n      jump\t// out\n        /* \"#utility.yul\":6097:6277   */\n    tag_166:\n        /* \"#utility.yul\":6237:6269   */\n      0x44656372656173656420616c6c6f77616e63652062656c6f77207a65726f0000\n        /* \"#utility.yul\":6233:6234   */\n      0x00\n        /* \"#utility.yul\":6225:6231   */\n      dup3\n        /* \"#utility.yul\":6221:6235   */\n      add\n        /* \"#utility.yul\":6214:6270   */\n      mstore\n        /* \"#utility.yul\":6097:6277   */\n      pop\n      jump\t// out\n        /* \"#utility.yul\":6283:6649   */\n    tag_167:\n        /* \"#utility.yul\":6425:6428   */\n      0x00\n        /* \"#utility.yul\":6446:6513   */\n      tag_239\n        /* \"#utility.yul\":6510:6512   */\n      0x1e\n        /* \"#utility.yul\":6505:6508   */\n      dup4\n        /* \"#utility.yul\":6446:6513   */\n      tag_146\n      jump\t// in\n    tag_239:\n        /* \"#utility.yul\":6439:6513   */\n      swap2\n      pop\n        /* \"#utility.yul\":6522:6615   */\n      tag_240\n        /* \"#utility.yul\":6611:6614   */\n      dup3\n        /* \"#utility.yul\":6522:6615   */\n      tag_166\n      jump\t// in\n    tag_240:\n        /* \"#utility.yul\":6640:6642   */\n      0x20\n        /* \"#utility.yul\":6635:6638   */\n      dup3\n        /* \"#utility.yul\":6631:6643   */\n      add\n        /* \"#utility.yul\":6624:6643   */\n      swap1\n      pop\n        /* \"#utility.yul\":6283:6649   */\n      swap2\n      swap1\n      pop\n      jump\t// out\n        /* \"#utility.yul\":6655:7074   */\n    tag_118:\n        /* \"#utility.yul\":6821:6825   */\n      0x00\n        /* \"#utility.yul\":6859:6861   */\n      0x20\n        /* \"#utility.yul\":6848:6857   */\n      dup3\n        /* \"#utility.yul\":6844:6862   */\n      add\n        /* \"#utility.yul\":6836:6862   */\n      swap1\n      pop\n        /* \"#utility.yul\":6908:6917   */\n      dup2\n        /* \"#utility.yul\":6902:6906   */\n      dup2\n        /* \"#utility.yul\":6898:6918   */\n      sub\n        /* \"#utility.yul\":6894:6895   */\n      0x00\n        /* \"#utility.yul\":6883:6892   */\n      dup4\n        /* \"#utility.yul\":6879:6896   */\n      add\n        /* \"#utility.yul\":6872:6919   */\n      mstore\n        /* \"#utility.yul\":6936:7067   */\n      tag_242\n        /* \"#utility.yul\":7062:7066   */\n      dup2\n        /* \"#utility.yul\":6936:7067   */\n      tag_167\n      jump\t// in\n    tag_242:\n        /* \"#utility.yul\":6928:7067   */\n      swap1\n      pop\n        /* \"#utility.yul\":6655:7074   */\n      swap2\n      swap1\n      pop\n      jump\t// out\n        /* \"#utility.yul\":7080:7259   */\n    tag_168:\n        /* \"#utility.yul\":7220:7251   */\n      0x417070726f76652066726f6d20746865207a65726f2061646472657373000000\n        /* \"#utility.yul\":7216:7217   */\n      0x00\n        /* \"#utility.yul\":7208:7214   */\n      dup3\n        /* \"#utility.yul\":7204:7218   */\n      add\n        /* \"#utility.yul\":7197:7252   */\n      mstore\n        /* \"#utility.yul\":7080:7259   */\n      pop\n      jump\t// out\n        /* \"#utility.yul\":7265:7631   */\n    tag_169:\n        /* \"#utility.yul\":7407:7410   */\n      0x00\n        /* \"#utility.yul\":7428:7495   */\n      tag_245\n        /* \"#utility.yul\":7492:7494   */\n      0x1d\n        /* \"#utility.yul\":7487:7490   */\n      dup4\n        /* \"#utility.yul\":7428:7495   */\n      tag_146\n      jump\t// in\n    tag_245:\n        /* \"#utility.yul\":7421:7495   */\n      swap2\n      pop\n        /* \"#utility.yul\":7504:7597   */\n      tag_246\n        /* \"#utility.yul\":7593:7596   */\n      dup3\n        /* \"#utility.yul\":7504:7597   */\n      tag_168\n      jump\t// in\n    tag_246:\n        /* \"#utility.yul\":7622:7624   */\n      0x20\n        /* \"#utility.yul\":7617:7620   */\n      dup3\n        /* \"#utility.yul\":7613:7625   */\n      add\n        /* \"#utility.yul\":7606:7625   */\n      swap1\n      pop\n        /* \"#utility.yul\":7265:7631   */\n      swap2\n      swap1\n      pop\n      jump\t// out\n        /* \"#utility.yul\":7637:8056   */\n    tag_130:\n        /* \"#utility.yul\":7803:7807   */\n      0x00\n        /* \"#utility.yul\":7841:7843   */\n      0x20\n        /* \"#utility.yul\":7830:7839   */\n      dup3\n        /* \"#utility.yul\":7826:7844   */\n      add\n        /* \"#utility.yul\":7818:7844   */\n      swap1\n      pop\n        /* \"#utility.yul\":7890:7899   */\n      dup2\n        /* \"#utility.yul\":7884:7888   */\n      dup2\n        /* \"#utility.yul\":7880:7900   */\n      sub\n        /* \"#utility.yul\":7876:7877   */\n      0x00\n        /* \"#utility.yul\":7865:7874   */\n      dup4\n        /* \"#utility.yul\":7861:7878   */\n      add\n        /* \"#utility.yul\":7854:7901   */\n      mstore\n        /* \"#utility.yul\":7918:8049   */\n      tag_248\n        /* \"#utility.yul\":8044:8048   */\n      dup2\n        /* \"#utility.yul\":7918:8049   */\n      tag_169\n      jump\t// in\n    tag_248:\n        /* \"#utility.yul\":7910:8049   */\n      swap1\n      pop\n        /* \"#utility.yul\":7637:8056   */\n      swap2\n      swap1\n      pop\n      jump\t// out\n        /* \"#utility.yul\":8062:8242   */\n    tag_170:\n        /* \"#utility.yul\":8110:8187   */\n      0x4e487b7100000000000000000000000000000000000000000000000000000000\n        /* \"#utility.yul\":8107:8108   */\n      0x00\n        /* \"#utility.yul\":8100:8188   */\n      mstore\n        /* \"#utility.yul\":8207:8211   */\n      0x11\n        /* \"#utility.yul\":8204:8205   */\n      0x04\n        /* \"#utility.yul\":8197:8212   */\n      mstore\n        /* \"#utility.yul\":8231:8235   */\n      0x24\n        /* \"#utility.yul\":8228:8229   */\n      0x00\n        /* \"#utility.yul\":8221:8236   */\n      revert\n        /* \"#utility.yul\":8248:8439   */\n    tag_136:\n        /* \"#utility.yul\":8288:8291   */\n      0x00\n        /* \"#utility.yul\":8307:8327   */\n      tag_251\n        /* \"#utility.yul\":8325:8326   */\n      dup3\n        /* \"#utility.yul\":8307:8327   */\n      tag_157\n      jump\t// in\n    tag_251:\n        /* \"#utility.yul\":8302:8327   */\n      swap2\n      pop\n        /* \"#utility.yul\":8341:8361   */\n      tag_252\n        /* \"#utility.yul\":8359:8360   */\n      dup4\n        /* \"#utility.yul\":8341:8361   */\n      tag_157\n      jump\t// in\n    tag_252:\n        /* \"#utility.yul\":8336:8361   */\n      swap3\n      pop\n        /* \"#utility.yul\":8384:8385   */\n      dup3\n        /* \"#utility.yul\":8381:8382   */\n      dup3\n        /* \"#utility.yul\":8377:8386   */\n      add\n        /* \"#utility.yul\":8370:8386   */\n      swap1\n      pop\n        /* \"#utility.yul\":8405:8408   */\n      dup1\n        /* \"#utility.yul\":8402:8403   */\n      dup3\n        /* \"#utility.yul\":8399:8409   */\n      gt\n        /* \"#utility.yul\":8396:8432   */\n      iszero\n      tag_253\n      jumpi\n        /* \"#utility.yul\":8412:8430   */\n      tag_254\n      tag_170\n      jump\t// in\n    tag_254:\n        /* \"#utility.yul\":8396:8432   */\n    tag_253:\n        /* \"#utility.yul\":8248:8439   */\n      swap3\n      swap2\n      pop\n      pop\n      jump\t// out\n        /* \"#utility.yul\":8445:8625   */\n    tag_139:\n        /* \"#utility.yul\":8493:8570   */\n      0x4e487b7100000000000000000000000000000000000000000000000000000000\n        /* \"#utility.yul\":8490:8491   */\n      0x00\n        /* \"#utility.yul\":8483:8571   */\n      mstore\n        /* \"#utility.yul\":8590:8594   */\n      0x01\n        /* \"#utility.yul\":8587:8588   */\n      0x04\n        /* \"#utility.yul\":8580:8595   */\n      mstore\n        /* \"#utility.yul\":8614:8618   */\n      0x24\n        /* \"#utility.yul\":8611:8612   */\n      0x00\n        /* \"#utility.yul\":8604:8619   */\n      revert\n        /* \"#utility.yul\":8631:8825   */\n    tag_144:\n        /* \"#utility.yul\":8671:8675   */\n      0x00\n        /* \"#utility.yul\":8691:8711   */\n      tag_257\n        /* \"#utility.yul\":8709:8710   */\n      dup3\n        /* \"#utility.yul\":8691:8711   */\n      tag_157\n      jump\t// in\n    tag_257:\n        /* \"#utility.yul\":8686:8711   */\n      swap2\n      pop\n        /* \"#utility.yul\":8725:8745   */\n      tag_258\n        /* \"#utility.yul\":8743:8744   */\n      dup4\n        /* \"#utility.yul\":8725:8745   */\n      tag_157\n      jump\t// in\n    tag_258:\n        /* \"#utility.yul\":8720:8745   */\n      swap3\n      pop\n        /* \"#utility.yul\":8769:8770   */\n      dup3\n        /* \"#utility.yul\":8766:8767   */\n      dup3\n        /* \"#utility.yul\":8762:8771   */\n      sub\n        /* \"#utility.yul\":8754:8771   */\n      swap1\n      pop\n        /* \"#utility.yul\":8793:8794   */\n      dup2\n        /* \"#utility.yul\":8787:8791   */\n      dup2\n        /* \"#utility.yul\":8784:8795   */\n      gt\n        /* \"#utility.yul\":8781:8818   */\n      iszero\n      tag_259\n      jumpi\n        /* \"#utility.yul\":8798:8816   */\n      tag_260\n      tag_170\n      jump\t// in\n    tag_260:\n        /* \"#utility.yul\":8781:8818   */\n    tag_259:\n        /* \"#utility.yul\":8631:8825   */\n      swap3\n      swap2\n      pop\n      pop\n      jump\t// out\n\n    auxdata: 0xa26469706673582212202535cd3869ce9baa5f2a925ee8b7ca1f1ee754a5edfa4443e3138c0a5c617e4a64736f6c63430008120033\n}\n",
				"bytecode": {
					"linkReferences": {},
					"object": "608060405234801561001057600080fd5b5060006005600401819055506000600580018190555060006005600601819055506001600460016101000a81548160ff0219169083151502179055506001600460026101000a81548160ff02191690831515021790555060016004806101000a81548160ff0219169083151502179055506000600460056101000a81548160ff021916908315150217905550610f79806100ab6000396000f3fe608060405234801561001057600080fd5b50600436106100ea5760003560e01c80637657135c1161008c57806395d89b411161006657806395d89b4114610275578063a457c2d714610293578063dd62ed3e146102c3578063feb73f8b146102f3576100ea565b80637657135c146101f75780637fb8b61e14610227578063817b1cd214610257576100ea565b8063199cbc54116100c8578063199cbc541461015b578063313ce56714610179578063395093511461019757806370a08231146101c7576100ea565b806306fdde03146100ef578063095ea7b31461010d57806318160ddd1461013d575b600080fd5b6100f7610323565b6040516101049190610b11565b60405180910390f35b61012760048036038101906101229190610bcc565b6103b8565b6040516101349190610c27565b60405180910390f35b61014561042b565b6040516101529190610c51565b60405180910390f35b610163610438565b6040516101709190610c51565b60405180910390f35b610181610444565b60405161018e9190610c51565b60405180910390f35b6101b160048036038101906101ac9190610bcc565b610451565b6040516101be9190610c27565b60405180910390f35b6101e160048036038101906101dc9190610c6c565b6104e2565b6040516101ee9190610c51565b60405180910390f35b610211600480360381019061020c9190610c6c565b61052e565b60405161021e9190610c51565b60405180910390f35b610241600480360381019061023c9190610c6c565b61057a565b60405161024e9190610c51565b60405180910390f35b61025f6105c6565b60405161026c9190610c51565b60405180910390f35b61027d6105d3565b60405161028a9190610b11565b60405180910390f35b6102ad60048036038101906102a89190610bcc565b610668565b6040516102ba9190610c27565b60405180910390f35b6102dd60048036038101906102d89190610c99565b610736565b6040516102ea9190610c51565b60405180910390f35b61030d60048036038101906103089190610c6c565b6107c0565b60405161031a9190610c51565b60405180910390f35b60606005600001805461033590610d08565b80601f016020809104026020016040519081016040528092919081815260200182805461036190610d08565b80156103ae5780601f10610383576101008083540402835291602001916103ae565b820191906000526020600020905b81548152906001019060200180831161039157829003601f168201915b5050505050905090565b600060011515600460059054906101000a900460ff16151503610410576040517f08c379a000000000000000000000000000000000000000000000000000000000815260040161040790610d85565b60405180910390fd5b600033905061042081858561080c565b600191505092915050565b6000600560040154905090565b60006005800154905090565b6000600560020154905090565b600060011515600460059054906101000a900460ff161515036104a9576040517f08c379a00000000000000000000000000000000000000000000000000000000081526004016104a090610d85565b60405180910390fd5b600033905060006104ba8286610736565b905060008490506104d583876104d08585610a2e565b61080c565b6001935050505092915050565b6000600c60000160008373ffffffffffffffffffffffffffffffffffffffff1673ffffffffffffffffffffffffffffffffffffffff168152602001908152602001600020549050919050565b6000600c60010160008373ffffffffffffffffffffffffffffffffffffffff1673ffffffffffffffffffffffffffffffffffffffff168152602001908152602001600020549050919050565b6000600c60030160008373ffffffffffffffffffffffffffffffffffffffff1673ffffffffffffffffffffffffffffffffffffffff168152602001908152602001600020549050919050565b6000600560060154905090565b6060600560010180546105e590610d08565b80601f016020809104026020016040519081016040528092919081815260200182805461061190610d08565b801561065e5780601f106106335761010080835404028352916020019161065e565b820191906000526020600020905b81548152906001019060200180831161064157829003601f168201915b5050505050905090565b600060011515600460059054906101000a900460ff161515036106c0576040517f08c379a00000000000000000000000000000000000000000000000000000000081526004016106b790610d85565b60405180910390fd5b600033905060006106d18286610736565b905083811015610716576040517f08c379a000000000000000000000000000000000000000000000000000000000815260040161070d90610df1565b60405180910390fd5b61072a82866107258488610a5a565b61080c565b60019250505092915050565b6000600c60040160008473ffffffffffffffffffffffffffffffffffffffff1673ffffffffffffffffffffffffffffffffffffffff16815260200190815260200160002060008373ffffffffffffffffffffffffffffffffffffffff1673ffffffffffffffffffffffffffffffffffffffff16815260200190815260200160002054905092915050565b6000600c60020160008373ffffffffffffffffffffffffffffffffffffffff1673ffffffffffffffffffffffffffffffffffffffff168152602001908152602001600020549050919050565b60011515600460059054906101000a900460ff16151503610862576040517f08c379a000000000000000000000000000000000000000000000000000000000815260040161085990610d85565b60405180910390fd5b600073ffffffffffffffffffffffffffffffffffffffff168373ffffffffffffffffffffffffffffffffffffffff16036108d1576040517f08c379a00000000000000000000000000000000000000000000000000000000081526004016108c890610e5d565b60405180910390fd5b600073ffffffffffffffffffffffffffffffffffffffff168273ffffffffffffffffffffffffffffffffffffffff1603610940576040517f08c379a000000000000000000000000000000000000000000000000000000000815260040161093790610e5d565b60405180910390fd5b80600c60040160008573ffffffffffffffffffffffffffffffffffffffff1673ffffffffffffffffffffffffffffffffffffffff16815260200190815260200160002060008473ffffffffffffffffffffffffffffffffffffffff1673ffffffffffffffffffffffffffffffffffffffff168152602001908152602001600020819055508173ffffffffffffffffffffffffffffffffffffffff168373ffffffffffffffffffffffffffffffffffffffff167f8c5be1e5ebec7d5bd14f71427d1e84f3dd0314c0f7b2291e5b200ac8c7c3b92583604051610a219190610c51565b60405180910390a3505050565b6000808284610a3d9190610eac565b905083811015610a5057610a4f610ee0565b5b8091505092915050565b600082821115610a6d57610a6c610ee0565b5b8183610a799190610f0f565b905092915050565b600081519050919050565b600082825260208201905092915050565b60005b83811015610abb578082015181840152602081019050610aa0565b60008484015250505050565b6000601f19601f8301169050919050565b6000610ae382610a81565b610aed8185610a8c565b9350610afd818560208601610a9d565b610b0681610ac7565b840191505092915050565b60006020820190508181036000830152610b2b8184610ad8565b905092915050565b600080fd5b600073ffffffffffffffffffffffffffffffffffffffff82169050919050565b6000610b6382610b38565b9050919050565b610b7381610b58565b8114610b7e57600080fd5b50565b600081359050610b9081610b6a565b92915050565b6000819050919050565b610ba981610b96565b8114610bb457600080fd5b50565b600081359050610bc681610ba0565b92915050565b60008060408385031215610be357610be2610b33565b5b6000610bf185828601610b81565b9250506020610c0285828601610bb7565b9150509250929050565b60008115159050919050565b610c2181610c0c565b82525050565b6000602082019050610c3c6000830184610c18565b92915050565b610c4b81610b96565b82525050565b6000602082019050610c666000830184610c42565b92915050565b600060208284031215610c8257610c81610b33565b5b6000610c9084828501610b81565b91505092915050565b60008060408385031215610cb057610caf610b33565b5b6000610cbe85828601610b81565b9250506020610ccf85828601610b81565b9150509250929050565b7f4e487b7100000000000000000000000000000000000000000000000000000000600052602260045260246000fd5b60006002820490506001821680610d2057607f821691505b602082108103610d3357610d32610cd9565b5b50919050565b7f54686520746f6b656e2069732070617573656400000000000000000000000000600082015250565b6000610d6f601383610a8c565b9150610d7a82610d39565b602082019050919050565b60006020820190508181036000830152610d9e81610d62565b9050919050565b7f44656372656173656420616c6c6f77616e63652062656c6f77207a65726f0000600082015250565b6000610ddb601e83610a8c565b9150610de682610da5565b602082019050919050565b60006020820190508181036000830152610e0a81610dce565b9050919050565b7f417070726f76652066726f6d20746865207a65726f2061646472657373000000600082015250565b6000610e47601d83610a8c565b9150610e5282610e11565b602082019050919050565b60006020820190508181036000830152610e7681610e3a565b9050919050565b7f4e487b7100000000000000000000000000000000000000000000000000000000600052601160045260246000fd5b6000610eb782610b96565b9150610ec283610b96565b9250828201905080821115610eda57610ed9610e7d565b5b92915050565b7f4e487b7100000000000000000000000000000000000000000000000000000000600052600160045260246000fd5b6000610f1a82610b96565b9150610f2583610b96565b9250828203905081811115610f3d57610f3c610e7d565b5b9291505056fea26469706673582212202535cd3869ce9baa5f2a925ee8b7ca1f1ee754a5edfa4443e3138c0a5c617e4a64736f6c63430008120033",
					"opcodes": "PUSH1 0x80 PUSH1 0x40 MSTORE CALLVALUE DUP1 ISZERO PUSH2 0x10 JUMPI PUSH1 0x0 DUP1 REVERT JUMPDEST POP PUSH1 0x0 PUSH1 0x5 PUSH1 0x4 ADD DUP2 SWAP1 SSTORE POP PUSH1 0x0 PUSH1 0x5 DUP1 ADD DUP2 SWAP1 SSTORE POP PUSH1 0x0 PUSH1 0x5 PUSH1 0x6 ADD DUP2 SWAP1 SSTORE POP PUSH1 0x1 PUSH1 0x4 PUSH1 0x1 PUSH2 0x100 EXP DUP2 SLOAD DUP2 PUSH1 0xFF MUL NOT AND SWAP1 DUP4 ISZERO ISZERO MUL OR SWAP1 SSTORE POP PUSH1 0x1 PUSH1 0x4 PUSH1 0x2 PUSH2 0x100 EXP DUP2 SLOAD DUP2 PUSH1 0xFF MUL NOT AND SWAP1 DUP4 ISZERO ISZERO MUL OR SWAP1 SSTORE POP PUSH1 0x1 PUSH1 0x4 DUP1 PUSH2 0x100 EXP DUP2 SLOAD DUP2 PUSH1 0xFF MUL NOT AND SWAP1 DUP4 ISZERO ISZERO MUL OR SWAP1 SSTORE POP PUSH1 0x0 PUSH1 0x4 PUSH1 0x5 PUSH2 0x100 EXP DUP2 SLOAD DUP2 PUSH1 0xFF MUL NOT AND SWAP1 DUP4 ISZERO ISZERO MUL OR SWAP1 SSTORE POP PUSH2 0xF79 DUP1 PUSH2 0xAB PUSH1 0x0 CODECOPY PUSH1 0x0 RETURN INVALID PUSH1 0x80 PUSH1 0x40 MSTORE CALLVALUE DUP1 ISZERO PUSH2 0x10 JUMPI PUSH1 0x0 DUP1 REVERT JUMPDEST POP PUSH1 0x4 CALLDATASIZE LT PUSH2 0xEA JUMPI PUSH1 0x0 CALLDATALOAD PUSH1 0xE0 SHR DUP1 PUSH4 0x7657135C GT PUSH2 0x8C JUMPI DUP1 PUSH4 0x95D89B41 GT PUSH2 0x66 JUMPI DUP1 PUSH4 0x95D89B41 EQ PUSH2 0x275 JUMPI DUP1 PUSH4 0xA457C2D7 EQ PUSH2 0x293 JUMPI DUP1 PUSH4 0xDD62ED3E EQ PUSH2 0x2C3 JUMPI DUP1 PUSH4 0xFEB73F8B EQ PUSH2 0x2F3 JUMPI PUSH2 0xEA JUMP JUMPDEST DUP1 PUSH4 0x7657135C EQ PUSH2 0x1F7 JUMPI DUP1 PUSH4 0x7FB8B61E EQ PUSH2 0x227 JUMPI DUP1 PUSH4 0x817B1CD2 EQ PUSH2 0x257 JUMPI PUSH2 0xEA JUMP JUMPDEST DUP1 PUSH4 0x199CBC54 GT PUSH2 0xC8 JUMPI DUP1 PUSH4 0x199CBC54 EQ PUSH2 0x15B JUMPI DUP1 PUSH4 0x313CE567 EQ PUSH2 0x179 JUMPI DUP1 PUSH4 0x39509351 EQ PUSH2 0x197 JUMPI DUP1 PUSH4 0x70A08231 EQ PUSH2 0x1C7 JUMPI PUSH2 0xEA JUMP JUMPDEST DUP1 PUSH4 0x6FDDE03 EQ PUSH2 0xEF JUMPI DUP1 PUSH4 0x95EA7B3 EQ PUSH2 0x10D JUMPI DUP1 PUSH4 0x18160DDD EQ PUSH2 0x13D JUMPI JUMPDEST PUSH1 0x0 DUP1 REVERT JUMPDEST PUSH2 0xF7 PUSH2 0x323 JUMP JUMPDEST PUSH1 0x40 MLOAD PUSH2 0x104 SWAP2 SWAP1 PUSH2 0xB11 JUMP JUMPDEST PUSH1 0x40 MLOAD DUP1 SWAP2 SUB SWAP1 RETURN JUMPDEST PUSH2 0x127 PUSH1 0x4 DUP1 CALLDATASIZE SUB DUP2 ADD SWAP1 PUSH2 0x122 SWAP2 SWAP1 PUSH2 0xBCC JUMP JUMPDEST PUSH2 0x3B8 JUMP JUMPDEST PUSH1 0x40 MLOAD PUSH2 0x134 SWAP2 SWAP1 PUSH2 0xC27 JUMP JUMPDEST PUSH1 0x40 MLOAD DUP1 SWAP2 SUB SWAP1 RETURN JUMPDEST PUSH2 0x145 PUSH2 0x42B JUMP JUMPDEST PUSH1 0x40 MLOAD PUSH2 0x152 SWAP2 SWAP1 PUSH2 0xC51 JUMP JUMPDEST PUSH1 0x40 MLOAD DUP1 SWAP2 SUB SWAP1 RETURN JUMPDEST PUSH2 0x163 PUSH2 0x438 JUMP JUMPDEST PUSH1 0x40 MLOAD PUSH2 0x170 SWAP2 SWAP1 PUSH2 0xC51 JUMP JUMPDEST PUSH1 0x40 MLOAD DUP1 SWAP2 SUB SWAP1 RETURN JUMPDEST PUSH2 0x181 PUSH2 0x444 JUMP JUMPDEST PUSH1 0x40 MLOAD PUSH2 0x18E SWAP2 SWAP1 PUSH2 0xC51 JUMP JUMPDEST PUSH1 0x40 MLOAD DUP1 SWAP2 SUB SWAP1 RETURN JUMPDEST PUSH2 0x1B1 PUSH1 0x4 DUP1 CALLDATASIZE SUB DUP2 ADD SWAP1 PUSH2 0x1AC SWAP2 SWAP1 PUSH2 0xBCC JUMP JUMPDEST PUSH2 0x451 JUMP JUMPDEST PUSH1 0x40 MLOAD PUSH2 0x1BE SWAP2 SWAP1 PUSH2 0xC27 JUMP JUMPDEST PUSH1 0x40 MLOAD DUP1 SWAP2 SUB SWAP1 RETURN JUMPDEST PUSH2 0x1E1 PUSH1 0x4 DUP1 CALLDATASIZE SUB DUP2 ADD SWAP1 PUSH2 0x1DC SWAP2 SWAP1 PUSH2 0xC6C JUMP JUMPDEST PUSH2 0x4E2 JUMP JUMPDEST PUSH1 0x40 MLOAD PUSH2 0x1EE SWAP2 SWAP1 PUSH2 0xC51 JUMP JUMPDEST PUSH1 0x40 MLOAD DUP1 SWAP2 SUB SWAP1 RETURN JUMPDEST PUSH2 0x211 PUSH1 0x4 DUP1 CALLDATASIZE SUB DUP2 ADD SWAP1 PUSH2 0x20C SWAP2 SWAP1 PUSH2 0xC6C JUMP JUMPDEST PUSH2 0x52E JUMP JUMPDEST PUSH1 0x40 MLOAD PUSH2 0x21E SWAP2 SWAP1 PUSH2 0xC51 JUMP JUMPDEST PUSH1 0x40 MLOAD DUP1 SWAP2 SUB SWAP1 RETURN JUMPDEST PUSH2 0x241 PUSH1 0x4 DUP1 CALLDATASIZE SUB DUP2 ADD SWAP1 PUSH2 0x23C SWAP2 SWAP1 PUSH2 0xC6C JUMP JUMPDEST PUSH2 0x57A JUMP JUMPDEST PUSH1 0x40 MLOAD PUSH2 0x24E SWAP2 SWAP1 PUSH2 0xC51 JUMP JUMPDEST PUSH1 0x40 MLOAD DUP1 SWAP2 SUB SWAP1 RETURN JUMPDEST PUSH2 0x25F PUSH2 0x5C6 JUMP JUMPDEST PUSH1 0x40 MLOAD PUSH2 0x26C SWAP2 SWAP1 PUSH2 0xC51 JUMP JUMPDEST PUSH1 0x40 MLOAD DUP1 SWAP2 SUB SWAP1 RETURN JUMPDEST PUSH2 0x27D PUSH2 0x5D3 JUMP JUMPDEST PUSH1 0x40 MLOAD PUSH2 0x28A SWAP2 SWAP1 PUSH2 0xB11 JUMP JUMPDEST PUSH1 0x40 MLOAD DUP1 SWAP2 SUB SWAP1 RETURN JUMPDEST PUSH2 0x2AD PUSH1 0x4 DUP1 CALLDATASIZE SUB DUP2 ADD SWAP1 PUSH2 0x2A8 SWAP2 SWAP1 PUSH2 0xBCC JUMP JUMPDEST PUSH2 0x668 JUMP JUMPDEST PUSH1 0x40 MLOAD PUSH2 0x2BA SWAP2 SWAP1 PUSH2 0xC27 JUMP JUMPDEST PUSH1 0x40 MLOAD DUP1 SWAP2 SUB SWAP1 RETURN JUMPDEST PUSH2 0x2DD PUSH1 0x4 DUP1 CALLDATASIZE SUB DUP2 ADD SWAP1 PUSH2 0x2D8 SWAP2 SWAP1 PUSH2 0xC99 JUMP JUMPDEST PUSH2 0x736 JUMP JUMPDEST PUSH1 0x40 MLOAD PUSH2 0x2EA SWAP2 SWAP1 PUSH2 0xC51 JUMP JUMPDEST PUSH1 0x40 MLOAD DUP1 SWAP2 SUB SWAP1 RETURN JUMPDEST PUSH2 0x30D PUSH1 0x4 DUP1 CALLDATASIZE SUB DUP2 ADD SWAP1 PUSH2 0x308 SWAP2 SWAP1 PUSH2 0xC6C JUMP JUMPDEST PUSH2 0x7C0 JUMP JUMPDEST PUSH1 0x40 MLOAD PUSH2 0x31A SWAP2 SWAP1 PUSH2 0xC51 JUMP JUMPDEST PUSH1 0x40 MLOAD DUP1 SWAP2 SUB SWAP1 RETURN JUMPDEST PUSH1 0x60 PUSH1 0x5 PUSH1 0x0 ADD DUP1 SLOAD PUSH2 0x335 SWAP1 PUSH2 0xD08 JUMP JUMPDEST DUP1 PUSH1 0x1F ADD PUSH1 0x20 DUP1 SWAP2 DIV MUL PUSH1 0x20 ADD PUSH1 0x40 MLOAD SWAP1 DUP2 ADD PUSH1 0x40 MSTORE DUP1 SWAP3 SWAP2 SWAP1 DUP2 DUP2 MSTORE PUSH1 0x20 ADD DUP3 DUP1 SLOAD PUSH2 0x361 SWAP1 PUSH2 0xD08 JUMP JUMPDEST DUP1 ISZERO PUSH2 0x3AE JUMPI DUP1 PUSH1 0x1F LT PUSH2 0x383 JUMPI PUSH2 0x100 DUP1 DUP4 SLOAD DIV MUL DUP4 MSTORE SWAP2 PUSH1 0x20 ADD SWAP2 PUSH2 0x3AE JUMP JUMPDEST DUP3 ADD SWAP2 SWAP1 PUSH1 0x0 MSTORE PUSH1 0x20 PUSH1 0x0 KECCAK256 SWAP1 JUMPDEST DUP2 SLOAD DUP2 MSTORE SWAP1 PUSH1 0x1 ADD SWAP1 PUSH1 0x20 ADD DUP1 DUP4 GT PUSH2 0x391 JUMPI DUP3 SWAP1 SUB PUSH1 0x1F AND DUP3 ADD SWAP2 JUMPDEST POP POP POP POP POP SWAP1 POP SWAP1 JUMP JUMPDEST PUSH1 0x0 PUSH1 0x1 ISZERO ISZERO PUSH1 0x4 PUSH1 0x5 SWAP1 SLOAD SWAP1 PUSH2 0x100 EXP SWAP1 DIV PUSH1 0xFF AND ISZERO ISZERO SUB PUSH2 0x410 JUMPI PUSH1 0x40 MLOAD PUSH32 0x8C379A000000000000000000000000000000000000000000000000000000000 DUP2 MSTORE PUSH1 0x4 ADD PUSH2 0x407 SWAP1 PUSH2 0xD85 JUMP JUMPDEST PUSH1 0x40 MLOAD DUP1 SWAP2 SUB SWAP1 REVERT JUMPDEST PUSH1 0x0 CALLER SWAP1 POP PUSH2 0x420 DUP2 DUP6 DUP6 PUSH2 0x80C JUMP JUMPDEST PUSH1 0x1 SWAP2 POP POP SWAP3 SWAP2 POP POP JUMP JUMPDEST PUSH1 0x0 PUSH1 0x5 PUSH1 0x4 ADD SLOAD SWAP1 POP SWAP1 JUMP JUMPDEST PUSH1 0x0 PUSH1 0x5 DUP1 ADD SLOAD SWAP1 POP SWAP1 JUMP JUMPDEST PUSH1 0x0 PUSH1 0x5 PUSH1 0x2 ADD SLOAD SWAP1 POP SWAP1 JUMP JUMPDEST PUSH1 0x0 PUSH1 0x1 ISZERO ISZERO PUSH1 0x4 PUSH1 0x5 SWAP1 SLOAD SWAP1 PUSH2 0x100 EXP SWAP1 DIV PUSH1 0xFF AND ISZERO ISZERO SUB PUSH2 0x4A9 JUMPI PUSH1 0x40 MLOAD PUSH32 0x8C379A000000000000000000000000000000000000000000000000000000000 DUP2 MSTORE PUSH1 0x4 ADD PUSH2 0x4A0 SWAP1 PUSH2 0xD85 JUMP JUMPDEST PUSH1 0x40 MLOAD DUP1 SWAP2 SUB SWAP1 REVERT JUMPDEST PUSH1 0x0 CALLER SWAP1 POP PUSH1 0x0 PUSH2 0x4BA DUP3 DUP7 PUSH2 0x736 JUMP JUMPDEST SWAP1 POP PUSH1 0x0 DUP5 SWAP1 POP PUSH2 0x4D5 DUP4 DUP8 PUSH2 0x4D0 DUP6 DUP6 PUSH2 0xA2E JUMP JUMPDEST PUSH2 0x80C JUMP JUMPDEST PUSH1 0x1 SWAP4 POP POP POP POP SWAP3 SWAP2 POP POP JUMP JUMPDEST PUSH1 0x0 PUSH1 0xC PUSH1 0x0 ADD PUSH1 0x0 DUP4 PUSH20 0xFFFFFFFFFFFFFFFFFFFFFFFFFFFFFFFFFFFFFFFF AND PUSH20 0xFFFFFFFFFFFFFFFFFFFFFFFFFFFFFFFFFFFFFFFF AND DUP2 MSTORE PUSH1 0x20 ADD SWAP1 DUP2 MSTORE PUSH1 0x20 ADD PUSH1 0x0 KECCAK256 SLOAD SWAP1 POP SWAP2 SWAP1 POP JUMP JUMPDEST PUSH1 0x0 PUSH1 0xC PUSH1 0x1 ADD PUSH1 0x0 DUP4 PUSH20 0xFFFFFFFFFFFFFFFFFFFFFFFFFFFFFFFFFFFFFFFF AND PUSH20 0xFFFFFFFFFFFFFFFFFFFFFFFFFFFFFFFFFFFFFFFF AND DUP2 MSTORE PUSH1 0x20 ADD SWAP1 DUP2 MSTORE PUSH1 0x20 ADD PUSH1 0x0 KECCAK256 SLOAD SWAP1 POP SWAP2 SWAP1 POP JUMP JUMPDEST PUSH1 0x0 PUSH1 0xC PUSH1 0x3 ADD PUSH1 0x0 DUP4 PUSH20 0xFFFFFFFFFFFFFFFFFFFFFFFFFFFFFFFFFFFFFFFF AND PUSH20 0xFFFFFFFFFFFFFFFFFFFFFFFFFFFFFFFFFFFFFFFF AND DUP2 MSTORE PUSH1 0x20 ADD SWAP1 DUP2 MSTORE PUSH1 0x20 ADD PUSH1 0x0 KECCAK256 SLOAD SWAP1 POP SWAP2 SWAP1 POP JUMP JUMPDEST PUSH1 0x0 PUSH1 0x5 PUSH1 0x6 ADD SLOAD SWAP1 POP SWAP1 JUMP JUMPDEST PUSH1 0x60 PUSH1 0x5 PUSH1 0x1 ADD DUP1 SLOAD PUSH2 0x5E5 SWAP1 PUSH2 0xD08 JUMP JUMPDEST DUP1 PUSH1 0x1F ADD PUSH1 0x20 DUP1 SWAP2 DIV MUL PUSH1 0x20 ADD PUSH1 0x40 MLOAD SWAP1 DUP2 ADD PUSH1 0x40 MSTORE DUP1 SWAP3 SWAP2 SWAP1 DUP2 DUP2 MSTORE PUSH1 0x20 ADD DUP3 DUP1 SLOAD PUSH2 0x611 SWAP1 PUSH2 0xD08 JUMP JUMPDEST DUP1 ISZERO PUSH2 0x65E JUMPI DUP1 PUSH1 0x1F LT PUSH2 0x633 JUMPI PUSH2 0x100 DUP1 DUP4 SLOAD DIV MUL DUP4 MSTORE SWAP2 PUSH1 0x20 ADD SWAP2 PUSH2 0x65E JUMP JUMPDEST DUP3 ADD SWAP2 SWAP1 PUSH1 0x0 MSTORE PUSH1 0x20 PUSH1 0x0 KECCAK256 SWAP1 JUMPDEST DUP2 SLOAD DUP2 MSTORE SWAP1 PUSH1 0x1 ADD SWAP1 PUSH1 0x20 ADD DUP1 DUP4 GT PUSH2 0x641 JUMPI DUP3 SWAP1 SUB PUSH1 0x1F AND DUP3 ADD SWAP2 JUMPDEST POP POP POP POP POP SWAP1 POP SWAP1 JUMP JUMPDEST PUSH1 0x0 PUSH1 0x1 ISZERO ISZERO PUSH1 0x4 PUSH1 0x5 SWAP1 SLOAD SWAP1 PUSH2 0x100 EXP SWAP1 DIV PUSH1 0xFF AND ISZERO ISZERO SUB PUSH2 0x6C0 JUMPI PUSH1 0x40 MLOAD PUSH32 0x8C379A000000000000000000000000000000000000000000000000000000000 DUP2 MSTORE PUSH1 0x4 ADD PUSH2 0x6B7 SWAP1 PUSH2 0xD85 JUMP JUMPDEST PUSH1 0x40 MLOAD DUP1 SWAP2 SUB SWAP1 REVERT JUMPDEST PUSH1 0x0 CALLER SWAP1 POP PUSH1 0x0 PUSH2 0x6D1 DUP3 DUP7 PUSH2 0x736 JUMP JUMPDEST SWAP1 POP DUP4 DUP2 LT ISZERO PUSH2 0x716 JUMPI PUSH1 0x40 MLOAD PUSH32 0x8C379A000000000000000000000000000000000000000000000000000000000 DUP2 MSTORE PUSH1 0x4 ADD PUSH2 0x70D SWAP1 PUSH2 0xDF1 JUMP JUMPDEST PUSH1 0x40 MLOAD DUP1 SWAP2 SUB SWAP1 REVERT JUMPDEST PUSH2 0x72A DUP3 DUP7 PUSH2 0x725 DUP5 DUP9 PUSH2 0xA5A JUMP JUMPDEST PUSH2 0x80C JUMP JUMPDEST PUSH1 0x1 SWAP3 POP POP POP SWAP3 SWAP2 POP POP JUMP JUMPDEST PUSH1 0x0 PUSH1 0xC PUSH1 0x4 ADD PUSH1 0x0 DUP5 PUSH20 0xFFFFFFFFFFFFFFFFFFFFFFFFFFFFFFFFFFFFFFFF AND PUSH20 0xFFFFFFFFFFFFFFFFFFFFFFFFFFFFFFFFFFFFFFFF AND DUP2 MSTORE PUSH1 0x20 ADD SWAP1 DUP2 MSTORE PUSH1 0x20 ADD PUSH1 0x0 KECCAK256 PUSH1 0x0 DUP4 PUSH20 0xFFFFFFFFFFFFFFFFFFFFFFFFFFFFFFFFFFFFFFFF AND PUSH20 0xFFFFFFFFFFFFFFFFFFFFFFFFFFFFFFFFFFFFFFFF AND DUP2 MSTORE PUSH1 0x20 ADD SWAP1 DUP2 MSTORE PUSH1 0x20 ADD PUSH1 0x0 KECCAK256 SLOAD SWAP1 POP SWAP3 SWAP2 POP POP JUMP JUMPDEST PUSH1 0x0 PUSH1 0xC PUSH1 0x2 ADD PUSH1 0x0 DUP4 PUSH20 0xFFFFFFFFFFFFFFFFFFFFFFFFFFFFFFFFFFFFFFFF AND PUSH20 0xFFFFFFFFFFFFFFFFFFFFFFFFFFFFFFFFFFFFFFFF AND DUP2 MSTORE PUSH1 0x20 ADD SWAP1 DUP2 MSTORE PUSH1 0x20 ADD PUSH1 0x0 KECCAK256 SLOAD SWAP1 POP SWAP2 SWAP1 POP JUMP JUMPDEST PUSH1 0x1 ISZERO ISZERO PUSH1 0x4 PUSH1 0x5 SWAP1 SLOAD SWAP1 PUSH2 0x100 EXP SWAP1 DIV PUSH1 0xFF AND ISZERO ISZERO SUB PUSH2 0x862 JUMPI PUSH1 0x40 MLOAD PUSH32 0x8C379A000000000000000000000000000000000000000000000000000000000 DUP2 MSTORE PUSH1 0x4 ADD PUSH2 0x859 SWAP1 PUSH2 0xD85 JUMP JUMPDEST PUSH1 0x40 MLOAD DUP1 SWAP2 SUB SWAP1 REVERT JUMPDEST PUSH1 0x0 PUSH20 0xFFFFFFFFFFFFFFFFFFFFFFFFFFFFFFFFFFFFFFFF AND DUP4 PUSH20 0xFFFFFFFFFFFFFFFFFFFFFFFFFFFFFFFFFFFFFFFF AND SUB PUSH2 0x8D1 JUMPI PUSH1 0x40 MLOAD PUSH32 0x8C379A000000000000000000000000000000000000000000000000000000000 DUP2 MSTORE PUSH1 0x4 ADD PUSH2 0x8C8 SWAP1 PUSH2 0xE5D JUMP JUMPDEST PUSH1 0x40 MLOAD DUP1 SWAP2 SUB SWAP1 REVERT JUMPDEST PUSH1 0x0 PUSH20 0xFFFFFFFFFFFFFFFFFFFFFFFFFFFFFFFFFFFFFFFF AND DUP3 PUSH20 0xFFFFFFFFFFFFFFFFFFFFFFFFFFFFFFFFFFFFFFFF AND SUB PUSH2 0x940 JUMPI PUSH1 0x40 MLOAD PUSH32 0x8C379A000000000000000000000000000000000000000000000000000000000 DUP2 MSTORE PUSH1 0x4 ADD PUSH2 0x937 SWAP1 PUSH2 0xE5D JUMP JUMPDEST PUSH1 0x40 MLOAD DUP1 SWAP2 SUB SWAP1 REVERT JUMPDEST DUP1 PUSH1 0xC PUSH1 0x4 ADD PUSH1 0x0 DUP6 PUSH20 0xFFFFFFFFFFFFFFFFFFFFFFFFFFFFFFFFFFFFFFFF AND PUSH20 0xFFFFFFFFFFFFFFFFFFFFFFFFFFFFFFFFFFFFFFFF AND DUP2 MSTORE PUSH1 0x20 ADD SWAP1 DUP2 MSTORE PUSH1 0x20 ADD PUSH1 0x0 KECCAK256 PUSH1 0x0 DUP5 PUSH20 0xFFFFFFFFFFFFFFFFFFFFFFFFFFFFFFFFFFFFFFFF AND PUSH20 0xFFFFFFFFFFFFFFFFFFFFFFFFFFFFFFFFFFFFFFFF AND DUP2 MSTORE PUSH1 0x20 ADD SWAP1 DUP2 MSTORE PUSH1 0x20 ADD PUSH1 0x0 KECCAK256 DUP2 SWAP1 SSTORE POP DUP2 PUSH20 0xFFFFFFFFFFFFFFFFFFFFFFFFFFFFFFFFFFFFFFFF AND DUP4 PUSH20 0xFFFFFFFFFFFFFFFFFFFFFFFFFFFFFFFFFFFFFFFF AND PUSH32 0x8C5BE1E5EBEC7D5BD14F71427D1E84F3DD0314C0F7B2291E5B200AC8C7C3B925 DUP4 PUSH1 0x40 MLOAD PUSH2 0xA21 SWAP2 SWAP1 PUSH2 0xC51 JUMP JUMPDEST PUSH1 0x40 MLOAD DUP1 SWAP2 SUB SWAP1 LOG3 POP POP POP JUMP JUMPDEST PUSH1 0x0 DUP1 DUP3 DUP5 PUSH2 0xA3D SWAP2 SWAP1 PUSH2 0xEAC JUMP JUMPDEST SWAP1 POP DUP4 DUP2 LT ISZERO PUSH2 0xA50 JUMPI PUSH2 0xA4F PUSH2 0xEE0 JUMP JUMPDEST JUMPDEST DUP1 SWAP2 POP POP SWAP3 SWAP2 POP POP JUMP JUMPDEST PUSH1 0x0 DUP3 DUP3 GT ISZERO PUSH2 0xA6D JUMPI PUSH2 0xA6C PUSH2 0xEE0 JUMP JUMPDEST JUMPDEST DUP2 DUP4 PUSH2 0xA79 SWAP2 SWAP1 PUSH2 0xF0F JUMP JUMPDEST SWAP1 POP SWAP3 SWAP2 POP POP JUMP JUMPDEST PUSH1 0x0 DUP2 MLOAD SWAP1 POP SWAP2 SWAP1 POP JUMP JUMPDEST PUSH1 0x0 DUP3 DUP3 MSTORE PUSH1 0x20 DUP3 ADD SWAP1 POP SWAP3 SWAP2 POP POP JUMP JUMPDEST PUSH1 0x0 JUMPDEST DUP4 DUP2 LT ISZERO PUSH2 0xABB JUMPI DUP1 DUP3 ADD MLOAD DUP2 DUP5 ADD MSTORE PUSH1 0x20 DUP2 ADD SWAP1 POP PUSH2 0xAA0 JUMP JUMPDEST PUSH1 0x0 DUP5 DUP5 ADD MSTORE POP POP POP POP JUMP JUMPDEST PUSH1 0x0 PUSH1 0x1F NOT PUSH1 0x1F DUP4 ADD AND SWAP1 POP SWAP2 SWAP1 POP JUMP JUMPDEST PUSH1 0x0 PUSH2 0xAE3 DUP3 PUSH2 0xA81 JUMP JUMPDEST PUSH2 0xAED DUP2 DUP6 PUSH2 0xA8C JUMP JUMPDEST SWAP4 POP PUSH2 0xAFD DUP2 DUP6 PUSH1 0x20 DUP7 ADD PUSH2 0xA9D JUMP JUMPDEST PUSH2 0xB06 DUP2 PUSH2 0xAC7 JUMP JUMPDEST DUP5 ADD SWAP2 POP POP SWAP3 SWAP2 POP POP JUMP JUMPDEST PUSH1 0x0 PUSH1 0x20 DUP3 ADD SWAP1 POP DUP2 DUP2 SUB PUSH1 0x0 DUP4 ADD MSTORE PUSH2 0xB2B DUP2 DUP5 PUSH2 0xAD8 JUMP JUMPDEST SWAP1 POP SWAP3 SWAP2 POP POP JUMP JUMPDEST PUSH1 0x0 DUP1 REVERT JUMPDEST PUSH1 0x0 PUSH20 0xFFFFFFFFFFFFFFFFFFFFFFFFFFFFFFFFFFFFFFFF DUP3 AND SWAP1 POP SWAP2 SWAP1 POP JUMP JUMPDEST PUSH1 0x0 PUSH2 0xB63 DUP3 PUSH2 0xB38 JUMP JUMPDEST SWAP1 POP SWAP2 SWAP1 POP JUMP JUMPDEST PUSH2 0xB73 DUP2 PUSH2 0xB58 JUMP JUMPDEST DUP2 EQ PUSH2 0xB7E JUMPI PUSH1 0x0 DUP1 REVERT JUMPDEST POP JUMP JUMPDEST PUSH1 0x0 DUP2 CALLDATALOAD SWAP1 POP PUSH2 0xB90 DUP2 PUSH2 0xB6A JUMP JUMPDEST SWAP3 SWAP2 POP POP JUMP JUMPDEST PUSH1 0x0 DUP2 SWAP1 POP SWAP2 SWAP1 POP JUMP JUMPDEST PUSH2 0xBA9 DUP2 PUSH2 0xB96 JUMP JUMPDEST DUP2 EQ PUSH2 0xBB4 JUMPI PUSH1 0x0 DUP1 REVERT JUMPDEST POP JUMP JUMPDEST PUSH1 0x0 DUP2 CALLDATALOAD SWAP1 POP PUSH2 0xBC6 DUP2 PUSH2 0xBA0 JUMP JUMPDEST SWAP3 SWAP2 POP POP JUMP JUMPDEST PUSH1 0x0 DUP1 PUSH1 0x40 DUP4 DUP6 SUB SLT ISZERO PUSH2 0xBE3 JUMPI PUSH2 0xBE2 PUSH2 0xB33 JUMP JUMPDEST JUMPDEST PUSH1 0x0 PUSH2 0xBF1 DUP6 DUP3 DUP7 ADD PUSH2 0xB81 JUMP JUMPDEST SWAP3 POP POP PUSH1 0x20 PUSH2 0xC02 DUP6 DUP3 DUP7 ADD PUSH2 0xBB7 JUMP JUMPDEST SWAP2 POP POP SWAP3 POP SWAP3 SWAP1 POP JUMP JUMPDEST PUSH1 0x0 DUP2 ISZERO ISZERO SWAP1 POP SWAP2 SWAP1 POP JUMP JUMPDEST PUSH2 0xC21 DUP2 PUSH2 0xC0C JUMP JUMPDEST DUP3 MSTORE POP POP JUMP JUMPDEST PUSH1 0x0 PUSH1 0x20 DUP3 ADD SWAP1 POP PUSH2 0xC3C PUSH1 0x0 DUP4 ADD DUP5 PUSH2 0xC18 JUMP JUMPDEST SWAP3 SWAP2 POP POP JUMP JUMPDEST PUSH2 0xC4B DUP2 PUSH2 0xB96 JUMP JUMPDEST DUP3 MSTORE POP POP JUMP JUMPDEST PUSH1 0x0 PUSH1 0x20 DUP3 ADD SWAP1 POP PUSH2 0xC66 PUSH1 0x0 DUP4 ADD DUP5 PUSH2 0xC42 JUMP JUMPDEST SWAP3 SWAP2 POP POP JUMP JUMPDEST PUSH1 0x0 PUSH1 0x20 DUP3 DUP5 SUB SLT ISZERO PUSH2 0xC82 JUMPI PUSH2 0xC81 PUSH2 0xB33 JUMP JUMPDEST JUMPDEST PUSH1 0x0 PUSH2 0xC90 DUP5 DUP3 DUP6 ADD PUSH2 0xB81 JUMP JUMPDEST SWAP2 POP POP SWAP3 SWAP2 POP POP JUMP JUMPDEST PUSH1 0x0 DUP1 PUSH1 0x40 DUP4 DUP6 SUB SLT ISZERO PUSH2 0xCB0 JUMPI PUSH2 0xCAF PUSH2 0xB33 JUMP JUMPDEST JUMPDEST PUSH1 0x0 PUSH2 0xCBE DUP6 DUP3 DUP7 ADD PUSH2 0xB81 JUMP JUMPDEST SWAP3 POP POP PUSH1 0x20 PUSH2 0xCCF DUP6 DUP3 DUP7 ADD PUSH2 0xB81 JUMP JUMPDEST SWAP2 POP POP SWAP3 POP SWAP3 SWAP1 POP JUMP JUMPDEST PUSH32 0x4E487B7100000000000000000000000000000000000000000000000000000000 PUSH1 0x0 MSTORE PUSH1 0x22 PUSH1 0x4 MSTORE PUSH1 0x24 PUSH1 0x0 REVERT JUMPDEST PUSH1 0x0 PUSH1 0x2 DUP3 DIV SWAP1 POP PUSH1 0x1 DUP3 AND DUP1 PUSH2 0xD20 JUMPI PUSH1 0x7F DUP3 AND SWAP2 POP JUMPDEST PUSH1 0x20 DUP3 LT DUP2 SUB PUSH2 0xD33 JUMPI PUSH2 0xD32 PUSH2 0xCD9 JUMP JUMPDEST JUMPDEST POP SWAP2 SWAP1 POP JUMP JUMPDEST PUSH32 0x54686520746F6B656E2069732070617573656400000000000000000000000000 PUSH1 0x0 DUP3 ADD MSTORE POP JUMP JUMPDEST PUSH1 0x0 PUSH2 0xD6F PUSH1 0x13 DUP4 PUSH2 0xA8C JUMP JUMPDEST SWAP2 POP PUSH2 0xD7A DUP3 PUSH2 0xD39 JUMP JUMPDEST PUSH1 0x20 DUP3 ADD SWAP1 POP SWAP2 SWAP1 POP JUMP JUMPDEST PUSH1 0x0 PUSH1 0x20 DUP3 ADD SWAP1 POP DUP2 DUP2 SUB PUSH1 0x0 DUP4 ADD MSTORE PUSH2 0xD9E DUP2 PUSH2 0xD62 JUMP JUMPDEST SWAP1 POP SWAP2 SWAP1 POP JUMP JUMPDEST PUSH32 0x44656372656173656420616C6C6F77616E63652062656C6F77207A65726F0000 PUSH1 0x0 DUP3 ADD MSTORE POP JUMP JUMPDEST PUSH1 0x0 PUSH2 0xDDB PUSH1 0x1E DUP4 PUSH2 0xA8C JUMP JUMPDEST SWAP2 POP PUSH2 0xDE6 DUP3 PUSH2 0xDA5 JUMP JUMPDEST PUSH1 0x20 DUP3 ADD SWAP1 POP SWAP2 SWAP1 POP JUMP JUMPDEST PUSH1 0x0 PUSH1 0x20 DUP3 ADD SWAP1 POP DUP2 DUP2 SUB PUSH1 0x0 DUP4 ADD MSTORE PUSH2 0xE0A DUP2 PUSH2 0xDCE JUMP JUMPDEST SWAP1 POP SWAP2 SWAP1 POP JUMP JUMPDEST PUSH32 0x417070726F76652066726F6D20746865207A65726F2061646472657373000000 PUSH1 0x0 DUP3 ADD MSTORE POP JUMP JUMPDEST PUSH1 0x0 PUSH2 0xE47 PUSH1 0x1D DUP4 PUSH2 0xA8C JUMP JUMPDEST SWAP2 POP PUSH2 0xE52 DUP3 PUSH2 0xE11 JUMP JUMPDEST PUSH1 0x20 DUP3 ADD SWAP1 POP SWAP2 SWAP1 POP JUMP JUMPDEST PUSH1 0x0 PUSH1 0x20 DUP3 ADD SWAP1 POP DUP2 DUP2 SUB PUSH1 0x0 DUP4 ADD MSTORE PUSH2 0xE76 DUP2 PUSH2 0xE3A JUMP JUMPDEST SWAP1 POP SWAP2 SWAP1 POP JUMP JUMPDEST PUSH32 0x4E487B7100000000000000000000000000000000000000000000000000000000 PUSH1 0x0 MSTORE PUSH1 0x11 PUSH1 0x4 MSTORE PUSH1 0x24 PUSH1 0x0 REVERT JUMPDEST PUSH1 0x0 PUSH2 0xEB7 DUP3 PUSH2 0xB96 JUMP JUMPDEST SWAP2 POP PUSH2 0xEC2 DUP4 PUSH2 0xB96 JUMP JUMPDEST SWAP3 POP DUP3 DUP3 ADD SWAP1 POP DUP1 DUP3 GT ISZERO PUSH2 0xEDA JUMPI PUSH2 0xED9 PUSH2 0xE7D JUMP JUMPDEST JUMPDEST SWAP3 SWAP2 POP POP JUMP JUMPDEST PUSH32 0x4E487B7100000000000000000000000000000000000000000000000000000000 PUSH1 0x0 MSTORE PUSH1 0x1 PUSH1 0x4 MSTORE PUSH1 0x24 PUSH1 0x0 REVERT JUMPDEST PUSH1 0x0 PUSH2 0xF1A DUP3 PUSH2 0xB96 JUMP JUMPDEST SWAP2 POP PUSH2 0xF25 DUP4 PUSH2 0xB96 JUMP JUMPDEST SWAP3 POP DUP3 DUP3 SUB SWAP1 POP DUP2 DUP2 GT ISZERO PUSH2 0xF3D JUMPI PUSH2 0xF3C PUSH2 0xE7D JUMP JUMPDEST JUMPDEST SWAP3 SWAP2 POP POP JUMP INVALID LOG2 PUSH5 0x6970667358 0x22 SLT KECCAK256 0x25 CALLDATALOAD 0xCD CODESIZE PUSH10 0xCE9BAA5F2A925EE8B7CA 0x1F 0x1E 0xE7 SLOAD 0xA5 0xED STATICCALL PREVRANDAO NUMBER 0xE3 SGT DUP13 EXP 0x5C PUSH2 0x7E4A PUSH5 0x736F6C6343 STOP ADDMOD SLT STOP CALLER "
				},
				"gasEstimates": {
					"creation": {
						"codeDepositCost": "792200",
						"executionCost": "113153",
						"totalCost": "905353"
					},
					"external": {
						"allowance(address,address)": "infinite",
						"approve(address,uint256)": "infinite",
						"balanceOf(address)": "2936",
						"decimals()": "2488",
						"decreaseAllowance(address,uint256)": "infinite",
						"increaseAllowance(address,uint256)": "infinite",
						"name()": "infinite",
						"stakedFor(address)": "2935",
						"symbol()": "infinite",
						"totalStaked()": "2510",
						"totalSupply()": "2511",
						"totalVested()": "2466",
						"vestedFor(address)": "2870",
						"voteWeightOf(address)": "2892"
					},
					"internal": {
						"_approve(address,address,uint256)": "infinite",
						"_spendAllowance(address,address,uint256)": "infinite",
						"burn(address,uint256)": "infinite",
						"mint(address,uint256)": "infinite",
						"mintWithVesting(address,uint256,uint256)": "infinite",
						"release()": "infinite",
						"transfer(address,uint256)": "infinite",
						"transferFrom(address,address,uint256)": "infinite"
					}
				},
				"methodIdentifiers": {
					"allowance(address,address)": "dd62ed3e",
					"approve(address,uint256)": "095ea7b3",
					"balanceOf(address)": "70a08231",
					"decimals()": "313ce567",
					"decreaseAllowance(address,uint256)": "a457c2d7",
					"increaseAllowance(address,uint256)": "39509351",
					"name()": "06fdde03",
					"stakedFor(address)": "feb73f8b",
					"symbol()": "95d89b41",
					"totalStaked()": "817b1cd2",
					"totalSupply()": "18160ddd",
					"totalVested()": "199cbc54",
					"vestedFor(address)": "7657135c",
					"voteWeightOf(address)": "7fb8b61e"
				}
			},
			"storageLayout": {
				"storage": [
					{
						"astId": 17,
						"contract": "smart_contracts/contracts/BaseERC20.sol:BaseERC20",
						"label": "isAdmin",
						"offset": 0,
						"slot": "0",
						"type": "t_mapping(t_address,t_bool)"
					},
					{
						"astId": 21,
						"contract": "smart_contracts/contracts/BaseERC20.sol:BaseERC20",
						"label": "isSyndicate",
						"offset": 0,
						"slot": "1",
						"type": "t_mapping(t_address,t_bool)"
					},
					{
						"astId": 25,
						"contract": "smart_contracts/contracts/BaseERC20.sol:BaseERC20",
						"label": "isCustodian",
						"offset": 0,
						"slot": "2",
						"type": "t_mapping(t_address,t_bool)"
					},
					{
						"astId": 29,
						"contract": "smart_contracts/contracts/BaseERC20.sol:BaseERC20",
						"label": "isMember",
						"offset": 0,
						"slot": "3",
						"type": "t_mapping(t_address,t_bool)"
					},
					{
						"astId": 31,
						"contract": "smart_contracts/contracts/BaseERC20.sol:BaseERC20",
						"label": "locked",
						"offset": 0,
						"slot": "4",
						"type": "t_bool"
					},
					{
						"astId": 348,
						"contract": "smart_contracts/contracts/BaseERC20.sol:BaseERC20",
						"label": "isMintable",
						"offset": 1,
						"slot": "4",
						"type": "t_bool"
					},
					{
						"astId": 350,
						"contract": "smart_contracts/contracts/BaseERC20.sol:BaseERC20",
						"label": "isBurnable",
						"offset": 2,
						"slot": "4",
						"type": "t_bool"
					},
					{
						"astId": 352,
						"contract": "smart_contracts/contracts/BaseERC20.sol:BaseERC20",
						"label": "isPausable",
						"offset": 3,
						"slot": "4",
						"type": "t_bool"
					},
					{
						"astId": 354,
						"contract": "smart_contracts/contracts/BaseERC20.sol:BaseERC20",
						"label": "isTransferable",
						"offset": 4,
						"slot": "4",
						"type": "t_bool"
					},
					{
						"astId": 356,
						"contract": "smart_contracts/contracts/BaseERC20.sol:BaseERC20",
						"label": "isPaused",
						"offset": 5,
						"slot": "4",
						"type": "t_bool"
					},
					{
						"astId": 359,
						"contract": "smart_contracts/contracts/BaseERC20.sol:BaseERC20",
						"label": "properties",
						"offset": 0,
						"slot": "5",
						"type": "t_struct(Properties)1445_storage"
					},
					{
						"astId": 362,
						"contract": "smart_contracts/contracts/BaseERC20.sol:BaseERC20",
						"label": "database",
						"offset": 0,
						"slot": "12",
						"type": "t_struct(Database)1474_storage"
					},
					{
						"astId": 881,
						"contract": "smart_contracts/contracts/BaseERC20.sol:BaseERC20",
						"label": "schedule",
						"offset": 0,
						"slot": "18",
						"type": "t_mapping(t_address,t_array(t_struct(VestingSchedule)1500_storage)dyn_storage)"
					}
				],
				"types": {
					"t_address": {
						"encoding": "inplace",
						"label": "address",
						"numberOfBytes": "20"
					},
					"t_array(t_struct(VestingSchedule)1500_storage)dyn_storage": {
						"base": "t_struct(VestingSchedule)1500_storage",
						"encoding": "dynamic_array",
						"label": "struct Vesting.VestingSchedule[]",
						"numberOfBytes": "32"
					},
					"t_bool": {
						"encoding": "inplace",
						"label": "bool",
						"numberOfBytes": "1"
					},
					"t_mapping(t_address,t_array(t_struct(VestingSchedule)1500_storage)dyn_storage)": {
						"encoding": "mapping",
						"key": "t_address",
						"label": "mapping(address => struct Vesting.VestingSchedule[])",
						"numberOfBytes": "32",
						"value": "t_array(t_struct(VestingSchedule)1500_storage)dyn_storage"
					},
					"t_mapping(t_address,t_bool)": {
						"encoding": "mapping",
						"key": "t_address",
						"label": "mapping(address => bool)",
						"numberOfBytes": "32",
						"value": "t_bool"
					},
					"t_mapping(t_address,t_mapping(t_address,t_uint256))": {
						"encoding": "mapping",
						"key": "t_address",
						"label": "mapping(address => mapping(address => uint256))",
						"numberOfBytes": "32",
						"value": "t_mapping(t_address,t_uint256)"
					},
					"t_mapping(t_address,t_uint256)": {
						"encoding": "mapping",
						"key": "t_address",
						"label": "mapping(address => uint256)",
						"numberOfBytes": "32",
						"value": "t_uint256"
					},
					"t_string_storage": {
						"encoding": "bytes",
						"label": "string",
						"numberOfBytes": "32"
					},
					"t_struct(Database)1474_storage": {
						"encoding": "inplace",
						"label": "struct Meta.Database",
						"members": [
							{
								"astId": 1449,
								"contract": "smart_contracts/contracts/BaseERC20.sol:BaseERC20",
								"label": "balance",
								"offset": 0,
								"slot": "0",
								"type": "t_mapping(t_address,t_uint256)"
							},
							{
								"astId": 1453,
								"contract": "smart_contracts/contracts/BaseERC20.sol:BaseERC20",
								"label": "vested",
								"offset": 0,
								"slot": "1",
								"type": "t_mapping(t_address,t_uint256)"
							},
							{
								"astId": 1457,
								"contract": "smart_contracts/contracts/BaseERC20.sol:BaseERC20",
								"label": "staked",
								"offset": 0,
								"slot": "2",
								"type": "t_mapping(t_address,t_uint256)"
							},
							{
								"astId": 1461,
								"contract": "smart_contracts/contracts/BaseERC20.sol:BaseERC20",
								"label": "vote",
								"offset": 0,
								"slot": "3",
								"type": "t_mapping(t_address,t_uint256)"
							},
							{
								"astId": 1467,
								"contract": "smart_contracts/contracts/BaseERC20.sol:BaseERC20",
								"label": "allowed",
								"offset": 0,
								"slot": "4",
								"type": "t_mapping(t_address,t_mapping(t_address,t_uint256))"
							},
							{
								"astId": 1473,
								"contract": "smart_contracts/contracts/BaseERC20.sol:BaseERC20",
								"label": "delegatedVote",
								"offset": 0,
								"slot": "5",
								"type": "t_mapping(t_address,t_mapping(t_address,t_uint256))"
							}
						],
						"numberOfBytes": "192"
					},
					"t_struct(Properties)1445_storage": {
						"encoding": "inplace",
						"label": "struct Meta.Properties",
						"members": [
							{
								"astId": 1432,
								"contract": "smart_contracts/contracts/BaseERC20.sol:BaseERC20",
								"label": "name",
								"offset": 0,
								"slot": "0",
								"type": "t_string_storage"
							},
							{
								"astId": 1434,
								"contract": "smart_contracts/contracts/BaseERC20.sol:BaseERC20",
								"label": "symbol",
								"offset": 0,
								"slot": "1",
								"type": "t_string_storage"
							},
							{
								"astId": 1436,
								"contract": "smart_contracts/contracts/BaseERC20.sol:BaseERC20",
								"label": "decimals",
								"offset": 0,
								"slot": "2",
								"type": "t_uint256"
							},
							{
								"astId": 1438,
								"contract": "smart_contracts/contracts/BaseERC20.sol:BaseERC20",
								"label": "maxSupply",
								"offset": 0,
								"slot": "3",
								"type": "t_uint256"
							},
							{
								"astId": 1440,
								"contract": "smart_contracts/contracts/BaseERC20.sol:BaseERC20",
								"label": "totalSupply",
								"offset": 0,
								"slot": "4",
								"type": "t_uint256"
							},
							{
								"astId": 1442,
								"contract": "smart_contracts/contracts/BaseERC20.sol:BaseERC20",
								"label": "totalVested",
								"offset": 0,
								"slot": "5",
								"type": "t_uint256"
							},
							{
								"astId": 1444,
								"contract": "smart_contracts/contracts/BaseERC20.sol:BaseERC20",
								"label": "totalStaked",
								"offset": 0,
								"slot": "6",
								"type": "t_uint256"
							}
						],
						"numberOfBytes": "224"
					},
					"t_struct(VestingSchedule)1500_storage": {
						"encoding": "inplace",
						"label": "struct Vesting.VestingSchedule",
						"members": [
							{
								"astId": 1493,
								"contract": "smart_contracts/contracts/BaseERC20.sol:BaseERC20",
								"label": "amount",
								"offset": 0,
								"slot": "0",
								"type": "t_uint256"
							},
							{
								"astId": 1495,
								"contract": "smart_contracts/contracts/BaseERC20.sol:BaseERC20",
								"label": "start",
								"offset": 0,
								"slot": "1",
								"type": "t_uint256"
							},
							{
								"astId": 1497,
								"contract": "smart_contracts/contracts/BaseERC20.sol:BaseERC20",
								"label": "end",
								"offset": 0,
								"slot": "2",
								"type": "t_uint256"
							},
							{
								"astId": 1499,
								"contract": "smart_contracts/contracts/BaseERC20.sol:BaseERC20",
								"label": "released",
								"offset": 0,
								"slot": "3",
								"type": "t_uint256"
							}
						],
						"numberOfBytes": "128"
					},
					"t_uint256": {
						"encoding": "inplace",
						"label": "uint256",
						"numberOfBytes": "32"
					}
				}
			},
			"userdoc": {
				"kind": "user",
				"methods": {},
				"version": 1
			}
		}
	}
}