{
	"smart_contracts/contracts/DreamcatcherToken.sol": {
		"DreamcatcherToken": {
			"abi": [
				{
					"inputs": [],
					"stateMutability": "nonpayable",
					"type": "constructor"
				},
				{
					"anonymous": false,
					"inputs": [
						{
							"indexed": true,
							"internalType": "address",
							"name": "owner",
							"type": "address"
						},
						{
							"indexed": true,
							"internalType": "address",
							"name": "spender",
							"type": "address"
						},
						{
							"indexed": false,
							"internalType": "uint256",
							"name": "amount",
							"type": "uint256"
						}
					],
					"name": "Approval",
					"type": "event"
				},
				{
					"anonymous": false,
					"inputs": [
						{
							"indexed": true,
							"internalType": "address",
							"name": "account",
							"type": "address"
						},
						{
							"indexed": false,
							"internalType": "uint256",
							"name": "amount",
							"type": "uint256"
						}
					],
					"name": "Burn",
					"type": "event"
				},
				{
					"anonymous": false,
					"inputs": [
						{
							"indexed": true,
							"internalType": "address",
							"name": "account",
							"type": "address"
						},
						{
							"indexed": false,
							"internalType": "uint256",
							"name": "amount",
							"type": "uint256"
						}
					],
					"name": "Mint",
					"type": "event"
				},
				{
					"anonymous": false,
					"inputs": [
						{
							"indexed": true,
							"internalType": "address",
							"name": "from",
							"type": "address"
						},
						{
							"indexed": true,
							"internalType": "address",
							"name": "to",
							"type": "address"
						},
						{
							"indexed": false,
							"internalType": "uint256",
							"name": "amount",
							"type": "uint256"
						}
					],
					"name": "Transfer",
					"type": "event"
				},
				{
					"inputs": [
						{
							"internalType": "address",
							"name": "owner",
							"type": "address"
						},
						{
							"internalType": "address",
							"name": "spender",
							"type": "address"
						}
					],
					"name": "allowance",
					"outputs": [
						{
							"internalType": "uint256",
							"name": "",
							"type": "uint256"
						}
					],
					"stateMutability": "view",
					"type": "function"
				},
				{
					"inputs": [
						{
							"internalType": "address",
							"name": "spender",
							"type": "address"
						},
						{
							"internalType": "uint256",
							"name": "amount",
							"type": "uint256"
						}
					],
					"name": "approve",
					"outputs": [
						{
							"internalType": "bool",
							"name": "",
							"type": "bool"
						}
					],
					"stateMutability": "nonpayable",
					"type": "function"
				},
				{
					"inputs": [
						{
							"internalType": "address",
							"name": "account",
							"type": "address"
						}
					],
					"name": "balanceOf",
					"outputs": [
						{
							"internalType": "uint256",
							"name": "",
							"type": "uint256"
						}
					],
					"stateMutability": "view",
					"type": "function"
				},
				{
					"inputs": [
						{
							"internalType": "address",
							"name": "account",
							"type": "address"
						},
						{
							"internalType": "uint256",
							"name": "amount",
							"type": "uint256"
						}
					],
					"name": "burn",
					"outputs": [],
					"stateMutability": "nonpayable",
					"type": "function"
				},
				{
					"inputs": [],
					"name": "decimals",
					"outputs": [
						{
							"internalType": "uint8",
							"name": "",
							"type": "uint8"
						}
					],
					"stateMutability": "view",
					"type": "function"
				},
				{
					"inputs": [
						{
							"internalType": "address",
							"name": "account",
							"type": "address"
						}
					],
					"name": "isCustodian",
					"outputs": [
						{
							"internalType": "bool",
							"name": "",
							"type": "bool"
						}
					],
					"stateMutability": "view",
					"type": "function"
				},
				{
					"inputs": [
						{
							"internalType": "address",
							"name": "account",
							"type": "address"
						}
					],
					"name": "isSyndicate",
					"outputs": [
						{
							"internalType": "bool",
							"name": "",
							"type": "bool"
						}
					],
					"stateMutability": "view",
					"type": "function"
				},
				{
					"inputs": [
						{
							"internalType": "address",
							"name": "account",
							"type": "address"
						},
						{
							"internalType": "uint256",
							"name": "amount",
							"type": "uint256"
						}
					],
					"name": "mint",
					"outputs": [],
					"stateMutability": "nonpayable",
					"type": "function"
				},
				{
					"inputs": [],
					"name": "name",
					"outputs": [
						{
							"internalType": "string",
							"name": "",
							"type": "string"
						}
					],
					"stateMutability": "view",
					"type": "function"
				},
				{
					"inputs": [],
					"name": "symbol",
					"outputs": [
						{
							"internalType": "string",
							"name": "",
							"type": "string"
						}
					],
					"stateMutability": "view",
					"type": "function"
				},
				{
					"inputs": [
						{
							"internalType": "address",
							"name": "account",
							"type": "address"
						}
					],
					"name": "toggleIsSyndicate",
					"outputs": [],
					"stateMutability": "nonpayable",
					"type": "function"
				},
				{
					"inputs": [],
					"name": "totalSupply",
					"outputs": [
						{
							"internalType": "uint256",
							"name": "",
							"type": "uint256"
						}
					],
					"stateMutability": "view",
					"type": "function"
				},
				{
					"inputs": [
						{
							"internalType": "address",
							"name": "recipient",
							"type": "address"
						},
						{
							"internalType": "uint256",
							"name": "amount",
							"type": "uint256"
						}
					],
					"name": "transfer",
					"outputs": [
						{
							"internalType": "bool",
							"name": "",
							"type": "bool"
						}
					],
					"stateMutability": "nonpayable",
					"type": "function"
				},
				{
					"inputs": [
						{
							"internalType": "address",
							"name": "sender",
							"type": "address"
						},
						{
							"internalType": "address",
							"name": "recipient",
							"type": "address"
						},
						{
							"internalType": "uint256",
							"name": "amount",
							"type": "uint256"
						}
					],
					"name": "transferfrom",
					"outputs": [
						{
							"internalType": "bool",
							"name": "",
							"type": "bool"
						}
					],
					"stateMutability": "nonpayable",
					"type": "function"
				},
				{
					"inputs": [
						{
							"internalType": "address",
							"name": "account",
							"type": "address"
						}
					],
					"name": "votingWeightOf",
					"outputs": [
						{
							"internalType": "uint256",
							"name": "",
							"type": "uint256"
						}
					],
					"stateMutability": "view",
					"type": "function"
				}
			],
			"devdoc": {
				"kind": "dev",
				"methods": {},
				"version": 1
			},
			"evm": {
				"assembly": "    /* \"smart_contracts/contracts/DreamcatcherToken.sol\":516:9588  contract DreamcatcherToken {... */\n  mstore(0x40, 0x80)\n    /* \"smart_contracts/contracts/DreamcatcherToken.sol\":2955:4613  constructor() {... */\n  callvalue\n  dup1\n  iszero\n  tag_1\n  jumpi\n  0x00\n  dup1\n  revert\ntag_1:\n  pop\n    /* \"smart_contracts/contracts/DreamcatcherToken.sol\":3038:3084  dreamcatcherToken.IERC20.name = \"Dreamcatcher\" */\n  mload(0x40)\n  dup1\n  0x40\n  add\n  0x40\n  mstore\n  dup1\n  0x0c\n  dup2\n  mstore\n  0x20\n  add\n  0x447265616d636174636865720000000000000000000000000000000000000000\n  dup2\n  mstore\n  pop\n    /* \"smart_contracts/contracts/DreamcatcherToken.sol\":3038:3055  dreamcatcherToken */\n  0x00\n    /* \"smart_contracts/contracts/DreamcatcherToken.sol\":3038:3062  dreamcatcherToken.IERC20 */\n  dup1\n  add\n    /* \"smart_contracts/contracts/DreamcatcherToken.sol\":3038:3067  dreamcatcherToken.IERC20.name */\n  0x00\n  add\n    /* \"smart_contracts/contracts/DreamcatcherToken.sol\":3038:3084  dreamcatcherToken.IERC20.name = \"Dreamcatcher\" */\n  swap1\n  dup2\n  tag_4\n  swap2\n  swap1\n  tag_5\n  jump\t// in\ntag_4:\n  pop\n    /* \"smart_contracts/contracts/DreamcatcherToken.sol\":3094:3135  dreamcatcherToken.IERC20.symbol = \"DREAM\" */\n  mload(0x40)\n  dup1\n  0x40\n  add\n  0x40\n  mstore\n  dup1\n  0x05\n  dup2\n  mstore\n  0x20\n  add\n  0x445245414d000000000000000000000000000000000000000000000000000000\n  dup2\n  mstore\n  pop\n    /* \"smart_contracts/contracts/DreamcatcherToken.sol\":3094:3111  dreamcatcherToken */\n  0x00\n    /* \"smart_contracts/contracts/DreamcatcherToken.sol\":3094:3118  dreamcatcherToken.IERC20 */\n  dup1\n  add\n    /* \"smart_contracts/contracts/DreamcatcherToken.sol\":3094:3125  dreamcatcherToken.IERC20.symbol */\n  0x01\n  add\n    /* \"smart_contracts/contracts/DreamcatcherToken.sol\":3094:3135  dreamcatcherToken.IERC20.symbol = \"DREAM\" */\n  swap1\n  dup2\n  tag_6\n  swap2\n  swap1\n  tag_5\n  jump\t// in\ntag_6:\n  pop\n    /* \"smart_contracts/contracts/DreamcatcherToken.sol\":3181:3183  18 */\n  0x12\n    /* \"smart_contracts/contracts/DreamcatcherToken.sol\":3145:3162  dreamcatcherToken */\n  0x00\n    /* \"smart_contracts/contracts/DreamcatcherToken.sol\":3145:3169  dreamcatcherToken.IERC20 */\n  dup1\n  add\n    /* \"smart_contracts/contracts/DreamcatcherToken.sol\":3145:3178  dreamcatcherToken.IERC20.decimals */\n  0x02\n  add\n  0x00\n    /* \"smart_contracts/contracts/DreamcatcherToken.sol\":3145:3183  dreamcatcherToken.IERC20.decimals = 18 */\n  0x0100\n  exp\n  dup2\n  sload\n  dup2\n  0xff\n  mul\n  not\n  and\n  swap1\n  dup4\n  0xff\n  and\n  mul\n  or\n  swap1\n  sstore\n  pop\n    /* \"smart_contracts/contracts/DreamcatcherToken.sol\":3232:3233  0 */\n  0x00\n    /* \"smart_contracts/contracts/DreamcatcherToken.sol\":3193:3210  dreamcatcherToken */\n  dup1\n    /* \"smart_contracts/contracts/DreamcatcherToken.sol\":3193:3217  dreamcatcherToken.IERC20 */\n  0x00\n  add\n    /* \"smart_contracts/contracts/DreamcatcherToken.sol\":3193:3229  dreamcatcherToken.IERC20.totalSupply */\n  0x03\n  add\n    /* \"smart_contracts/contracts/DreamcatcherToken.sol\":3193:3233  dreamcatcherToken.IERC20.totalSupply = 0 */\n  dup2\n  swap1\n  sstore\n  pop\n    /* \"smart_contracts/contracts/DreamcatcherToken.sol\":3348:3358  msg.sender */\n  caller\n    /* \"smart_contracts/contracts/DreamcatcherToken.sol\":3328:3337  custodian */\n  0x0e\n    /* \"smart_contracts/contracts/DreamcatcherToken.sol\":3328:3345  custodian.account */\n  0x00\n  add\n  0x00\n    /* \"smart_contracts/contracts/DreamcatcherToken.sol\":3328:3358  custodian.account = msg.sender */\n  0x0100\n  exp\n  dup2\n  sload\n  dup2\n  0xffffffffffffffffffffffffffffffffffffffff\n  mul\n  not\n  and\n  swap1\n  dup4\n  0xffffffffffffffffffffffffffffffffffffffff\n  and\n  mul\n  or\n  swap1\n  sstore\n  pop\n    /* \"smart_contracts/contracts/DreamcatcherToken.sol\":3503:3507  true */\n  0x01\n    /* \"smart_contracts/contracts/DreamcatcherToken.sol\":3410:3427  dreamcatcherToken */\n  0x00\n    /* \"smart_contracts/contracts/DreamcatcherToken.sol\":3410:3447  dreamcatcherToken.addressStateToggles */\n  0x0b\n  add\n    /* \"smart_contracts/contracts/DreamcatcherToken.sol\":3410:3459  dreamcatcherToken.addressStateToggles.isCustodian */\n  0x00\n  add\n    /* \"smart_contracts/contracts/DreamcatcherToken.sol\":3410:3500  dreamcatcherToken.addressStateToggles.isCustodian[... */\n  0x00\n    /* \"smart_contracts/contracts/DreamcatcherToken.sol\":3473:3482  custodian */\n  0x0e\n    /* \"smart_contracts/contracts/DreamcatcherToken.sol\":3473:3490  custodian.account */\n  0x00\n  add\n  0x00\n  swap1\n  sload\n  swap1\n  0x0100\n  exp\n  swap1\n  div\n  0xffffffffffffffffffffffffffffffffffffffff\n  and\n    /* \"smart_contracts/contracts/DreamcatcherToken.sol\":3410:3500  dreamcatcherToken.addressStateToggles.isCustodian[... */\n  0xffffffffffffffffffffffffffffffffffffffff\n  and\n  0xffffffffffffffffffffffffffffffffffffffff\n  and\n  dup2\n  mstore\n  0x20\n  add\n  swap1\n  dup2\n  mstore\n  0x20\n  add\n  0x00\n  keccak256\n  0x00\n    /* \"smart_contracts/contracts/DreamcatcherToken.sol\":3410:3507  dreamcatcherToken.addressStateToggles.isCustodian[... */\n  0x0100\n  exp\n  dup2\n  sload\n  dup2\n  0xff\n  mul\n  not\n  and\n  swap1\n  dup4\n  iszero\n  iszero\n  mul\n  or\n  swap1\n  sstore\n  pop\n    /* \"smart_contracts/contracts/DreamcatcherToken.sol\":3599:3600  0 */\n  0x00\n    /* \"smart_contracts/contracts/DreamcatcherToken.sol\":3566:3575  custodian */\n  0x0e\n    /* \"smart_contracts/contracts/DreamcatcherToken.sol\":3566:3585  custodian.syndicate */\n  0x01\n  add\n    /* \"smart_contracts/contracts/DreamcatcherToken.sol\":3566:3594  custodian.syndicate.settings */\n  0x00\n  add\n    /* \"smart_contracts/contracts/DreamcatcherToken.sol\":3566:3596  custodian.syndicate.settings.n */\n  0x00\n  add\n    /* \"smart_contracts/contracts/DreamcatcherToken.sol\":3566:3600  custodian.syndicate.settings.n = 0 */\n  dup2\n  swap1\n  sstore\n  pop\n    /* \"smart_contracts/contracts/DreamcatcherToken.sol\":3646:3647  0 */\n  0x00\n    /* \"smart_contracts/contracts/DreamcatcherToken.sol\":3610:3619  custodian */\n  0x0e\n    /* \"smart_contracts/contracts/DreamcatcherToken.sol\":3610:3629  custodian.syndicate */\n  0x01\n  add\n    /* \"smart_contracts/contracts/DreamcatcherToken.sol\":3610:3638  custodian.syndicate.settings */\n  0x00\n  add\n    /* \"smart_contracts/contracts/DreamcatcherToken.sol\":3610:3643  custodian.syndicate.settings.nMin */\n  0x01\n  add\n    /* \"smart_contracts/contracts/DreamcatcherToken.sol\":3610:3647  custodian.syndicate.settings.nMin = 0 */\n  dup2\n  swap1\n  sstore\n  pop\n    /* \"smart_contracts/contracts/DreamcatcherToken.sol\":3693:3694  0 */\n  0x00\n    /* \"smart_contracts/contracts/DreamcatcherToken.sol\":3657:3666  custodian */\n  0x0e\n    /* \"smart_contracts/contracts/DreamcatcherToken.sol\":3657:3676  custodian.syndicate */\n  0x01\n  add\n    /* \"smart_contracts/contracts/DreamcatcherToken.sol\":3657:3685  custodian.syndicate.settings */\n  0x00\n  add\n    /* \"smart_contracts/contracts/DreamcatcherToken.sol\":3657:3690  custodian.syndicate.settings.nMax */\n  0x02\n  add\n    /* \"smart_contracts/contracts/DreamcatcherToken.sol\":3657:3694  custodian.syndicate.settings.nMax = 0 */\n  dup2\n  swap1\n  sstore\n  pop\n    /* \"smart_contracts/contracts/DreamcatcherToken.sol\":3782:3799  dreamcatcherToken */\n  0x00\n    /* \"smart_contracts/contracts/DreamcatcherToken.sol\":3782:3806  dreamcatcherToken.IERC20 */\n  dup1\n  add\n    /* \"smart_contracts/contracts/DreamcatcherToken.sol\":3782:3815  dreamcatcherToken.IERC20.decimals */\n  0x02\n  add\n  0x00\n  swap1\n  sload\n  swap1\n  0x0100\n  exp\n  swap1\n  div\n  0xff\n  and\n    /* \"smart_contracts/contracts/DreamcatcherToken.sol\":3778:3780  10 */\n  0x0a\n    /* \"smart_contracts/contracts/DreamcatcherToken.sol\":3778:3815  10**dreamcatcherToken.IERC20.decimals */\n  tag_7\n  swap2\n  swap1\n  tag_8\n  jump\t// in\ntag_7:\n    /* \"smart_contracts/contracts/DreamcatcherToken.sol\":3758:3763  10000 */\n  0x2710\n    /* \"smart_contracts/contracts/DreamcatcherToken.sol\":3758:3815  10000 *... */\n  tag_9\n  swap2\n  swap1\n  tag_10\n  jump\t// in\ntag_9:\n    /* \"smart_contracts/contracts/DreamcatcherToken.sol\":3704:3713  custodian */\n  0x0e\n    /* \"smart_contracts/contracts/DreamcatcherToken.sol\":3704:3723  custodian.syndicate */\n  0x01\n  add\n    /* \"smart_contracts/contracts/DreamcatcherToken.sol\":3704:3732  custodian.syndicate.settings */\n  0x00\n  add\n    /* \"smart_contracts/contracts/DreamcatcherToken.sol\":3704:3743  custodian.syndicate.settings.minBalance */\n  0x03\n  add\n    /* \"smart_contracts/contracts/DreamcatcherToken.sol\":3704:3815  custodian.syndicate.settings.minBalance =... */\n  dup2\n  swap1\n  sstore\n  pop\n    /* \"smart_contracts/contracts/DreamcatcherToken.sol\":3902:3919  dreamcatcherToken */\n  0x00\n    /* \"smart_contracts/contracts/DreamcatcherToken.sol\":3902:3926  dreamcatcherToken.IERC20 */\n  dup1\n  add\n    /* \"smart_contracts/contracts/DreamcatcherToken.sol\":3902:3935  dreamcatcherToken.IERC20.decimals */\n  0x02\n  add\n  0x00\n  swap1\n  sload\n  swap1\n  0x0100\n  exp\n  swap1\n  div\n  0xff\n  and\n    /* \"smart_contracts/contracts/DreamcatcherToken.sol\":3898:3900  10 */\n  0x0a\n    /* \"smart_contracts/contracts/DreamcatcherToken.sol\":3898:3935  10**dreamcatcherToken.IERC20.decimals */\n  tag_11\n  swap2\n  swap1\n  tag_8\n  jump\t// in\ntag_11:\n    /* \"smart_contracts/contracts/DreamcatcherToken.sol\":3878:3883  10000 */\n  0x2710\n    /* \"smart_contracts/contracts/DreamcatcherToken.sol\":3878:3935  10000 *... */\n  tag_12\n  swap2\n  swap1\n  tag_10\n  jump\t// in\ntag_12:\n    /* \"smart_contracts/contracts/DreamcatcherToken.sol\":3825:3834  custodian */\n  0x0e\n    /* \"smart_contracts/contracts/DreamcatcherToken.sol\":3825:3844  custodian.syndicate */\n  0x01\n  add\n    /* \"smart_contracts/contracts/DreamcatcherToken.sol\":3825:3853  custodian.syndicate.settings */\n  0x00\n  add\n    /* \"smart_contracts/contracts/DreamcatcherToken.sol\":3825:3863  custodian.syndicate.settings.minStaked */\n  0x04\n  add\n    /* \"smart_contracts/contracts/DreamcatcherToken.sol\":3825:3935  custodian.syndicate.settings.minStaked =... */\n  dup2\n  swap1\n  sstore\n  pop\n    /* \"smart_contracts/contracts/DreamcatcherToken.sol\":4021:4038  dreamcatcherToken */\n  0x00\n    /* \"smart_contracts/contracts/DreamcatcherToken.sol\":4021:4045  dreamcatcherToken.IERC20 */\n  dup1\n  add\n    /* \"smart_contracts/contracts/DreamcatcherToken.sol\":4021:4054  dreamcatcherToken.IERC20.decimals */\n  0x02\n  add\n  0x00\n  swap1\n  sload\n  swap1\n  0x0100\n  exp\n  swap1\n  div\n  0xff\n  and\n    /* \"smart_contracts/contracts/DreamcatcherToken.sol\":4017:4019  10 */\n  0x0a\n    /* \"smart_contracts/contracts/DreamcatcherToken.sol\":4017:4054  10**dreamcatcherToken.IERC20.decimals */\n  tag_13\n  swap2\n  swap1\n  tag_8\n  jump\t// in\ntag_13:\n    /* \"smart_contracts/contracts/DreamcatcherToken.sol\":3997:4002  10000 */\n  0x2710\n    /* \"smart_contracts/contracts/DreamcatcherToken.sol\":3997:4054  10000 *... */\n  tag_14\n  swap2\n  swap1\n  tag_10\n  jump\t// in\ntag_14:\n    /* \"smart_contracts/contracts/DreamcatcherToken.sol\":3945:3954  custodian */\n  0x0e\n    /* \"smart_contracts/contracts/DreamcatcherToken.sol\":3945:3964  custodian.syndicate */\n  0x01\n  add\n    /* \"smart_contracts/contracts/DreamcatcherToken.sol\":3945:3973  custodian.syndicate.settings */\n  0x00\n  add\n    /* \"smart_contracts/contracts/DreamcatcherToken.sol\":3945:3982  custodian.syndicate.settings.minVotes */\n  0x05\n  add\n    /* \"smart_contracts/contracts/DreamcatcherToken.sol\":3945:4054  custodian.syndicate.settings.minVotes =... */\n  dup2\n  swap1\n  sstore\n  pop\n    /* \"smart_contracts/contracts/DreamcatcherToken.sol\":4131:4161  mint(custodian.account, 60000) */\n  tag_15\n    /* \"smart_contracts/contracts/DreamcatcherToken.sol\":4136:4145  custodian */\n  0x0e\n    /* \"smart_contracts/contracts/DreamcatcherToken.sol\":4136:4153  custodian.account */\n  0x00\n  add\n  0x00\n  swap1\n  sload\n  swap1\n  0x0100\n  exp\n  swap1\n  div\n  0xffffffffffffffffffffffffffffffffffffffff\n  and\n    /* \"smart_contracts/contracts/DreamcatcherToken.sol\":4155:4160  60000 */\n  0xea60\n    /* \"smart_contracts/contracts/DreamcatcherToken.sol\":4131:4135  mint */\n  shl(0x20, tag_16)\n    /* \"smart_contracts/contracts/DreamcatcherToken.sol\":4131:4161  mint(custodian.account, 60000) */\n  0x20\n  shr\n  jump\t// in\ntag_15:\n    /* \"smart_contracts/contracts/DreamcatcherToken.sol\":516:9588  contract DreamcatcherToken {... */\n  jump(tag_17)\n    /* \"smart_contracts/contracts/DreamcatcherToken.sol\":6468:6741  function mint(address account, uint256 amount) public onlyCustodian {... */\ntag_16:\n    /* \"smart_contracts/contracts/DreamcatcherToken.sol\":5183:5187  true */\n  0x01\n    /* \"smart_contracts/contracts/DreamcatcherToken.sol\":5102:5187  dreamcatcherToken.addressStateToggles.isCustodian[msg.sender] ==... */\n  iszero\n  iszero\n    /* \"smart_contracts/contracts/DreamcatcherToken.sol\":5102:5119  dreamcatcherToken */\n  0x00\n    /* \"smart_contracts/contracts/DreamcatcherToken.sol\":5102:5139  dreamcatcherToken.addressStateToggles */\n  0x0b\n  add\n    /* \"smart_contracts/contracts/DreamcatcherToken.sol\":5102:5151  dreamcatcherToken.addressStateToggles.isCustodian */\n  0x00\n  add\n    /* \"smart_contracts/contracts/DreamcatcherToken.sol\":5102:5163  dreamcatcherToken.addressStateToggles.isCustodian[msg.sender] */\n  0x00\n    /* \"smart_contracts/contracts/DreamcatcherToken.sol\":5152:5162  msg.sender */\n  caller\n    /* \"smart_contracts/contracts/DreamcatcherToken.sol\":5102:5163  dreamcatcherToken.addressStateToggles.isCustodian[msg.sender] */\n  0xffffffffffffffffffffffffffffffffffffffff\n  and\n  0xffffffffffffffffffffffffffffffffffffffff\n  and\n  dup2\n  mstore\n  0x20\n  add\n  swap1\n  dup2\n  mstore\n  0x20\n  add\n  0x00\n  keccak256\n  0x00\n  swap1\n  sload\n  swap1\n  0x0100\n  exp\n  swap1\n  div\n  0xff\n  and\n    /* \"smart_contracts/contracts/DreamcatcherToken.sol\":5102:5187  dreamcatcherToken.addressStateToggles.isCustodian[msg.sender] ==... */\n  iszero\n  iszero\n  eq\n    /* \"smart_contracts/contracts/DreamcatcherToken.sol\":5081:5248  require(... */\n  tag_19\n  jumpi\n  mload(0x40)\n  0x08c379a000000000000000000000000000000000000000000000000000000000\n  dup2\n  mstore\n  0x04\n  add\n  tag_20\n  swap1\n  tag_21\n  jump\t// in\ntag_20:\n  mload(0x40)\n  dup1\n  swap2\n  sub\n  swap1\n  revert\ntag_19:\n    /* \"smart_contracts/contracts/DreamcatcherToken.sol\":6584:6590  amount */\n  dup1\n    /* \"smart_contracts/contracts/DreamcatcherToken.sol\":6546:6563  dreamcatcherToken */\n  0x00\n    /* \"smart_contracts/contracts/DreamcatcherToken.sol\":6546:6571  dreamcatcherToken.balance */\n  0x05\n  add\n    /* \"smart_contracts/contracts/DreamcatcherToken.sol\":6546:6580  dreamcatcherToken.balance[account] */\n  0x00\n    /* \"smart_contracts/contracts/DreamcatcherToken.sol\":6572:6579  account */\n  dup5\n    /* \"smart_contracts/contracts/DreamcatcherToken.sol\":6546:6580  dreamcatcherToken.balance[account] */\n  0xffffffffffffffffffffffffffffffffffffffff\n  and\n  0xffffffffffffffffffffffffffffffffffffffff\n  and\n  dup2\n  mstore\n  0x20\n  add\n  swap1\n  dup2\n  mstore\n  0x20\n  add\n  0x00\n  keccak256\n  0x00\n    /* \"smart_contracts/contracts/DreamcatcherToken.sol\":6546:6590  dreamcatcherToken.balance[account] += amount */\n  dup3\n  dup3\n  sload\n  tag_23\n  swap2\n  swap1\n  tag_24\n  jump\t// in\ntag_23:\n  swap3\n  pop\n  pop\n  dup2\n  swap1\n  sstore\n  pop\n    /* \"smart_contracts/contracts/DreamcatcherToken.sol\":6636:6642  amount */\n  dup1\n    /* \"smart_contracts/contracts/DreamcatcherToken.sol\":6600:6617  dreamcatcherToken */\n  0x00\n    /* \"smart_contracts/contracts/DreamcatcherToken.sol\":6600:6623  dreamcatcherToken.votes */\n  0x08\n  add\n    /* \"smart_contracts/contracts/DreamcatcherToken.sol\":6600:6632  dreamcatcherToken.votes[account] */\n  0x00\n    /* \"smart_contracts/contracts/DreamcatcherToken.sol\":6624:6631  account */\n  dup5\n    /* \"smart_contracts/contracts/DreamcatcherToken.sol\":6600:6632  dreamcatcherToken.votes[account] */\n  0xffffffffffffffffffffffffffffffffffffffff\n  and\n  0xffffffffffffffffffffffffffffffffffffffff\n  and\n  dup2\n  mstore\n  0x20\n  add\n  swap1\n  dup2\n  mstore\n  0x20\n  add\n  0x00\n  keccak256\n  0x00\n    /* \"smart_contracts/contracts/DreamcatcherToken.sol\":6600:6642  dreamcatcherToken.votes[account] += amount */\n  dup3\n  dup3\n  sload\n  tag_25\n  swap2\n  swap1\n  tag_24\n  jump\t// in\ntag_25:\n  swap3\n  pop\n  pop\n  dup2\n  swap1\n  sstore\n  pop\n    /* \"smart_contracts/contracts/DreamcatcherToken.sol\":6692:6698  amount */\n  dup1\n    /* \"smart_contracts/contracts/DreamcatcherToken.sol\":6652:6669  dreamcatcherToken */\n  0x00\n    /* \"smart_contracts/contracts/DreamcatcherToken.sol\":6652:6676  dreamcatcherToken.IERC20 */\n  dup1\n  add\n    /* \"smart_contracts/contracts/DreamcatcherToken.sol\":6652:6688  dreamcatcherToken.IERC20.totalSupply */\n  0x03\n  add\n  0x00\n    /* \"smart_contracts/contracts/DreamcatcherToken.sol\":6652:6698  dreamcatcherToken.IERC20.totalSupply += amount */\n  dup3\n  dup3\n  sload\n  tag_26\n  swap2\n  swap1\n  tag_24\n  jump\t// in\ntag_26:\n  swap3\n  pop\n  pop\n  dup2\n  swap1\n  sstore\n  pop\n    /* \"smart_contracts/contracts/DreamcatcherToken.sol\":6718:6725  account */\n  dup2\n    /* \"smart_contracts/contracts/DreamcatcherToken.sol\":6713:6734  Mint(account, amount) */\n  0xffffffffffffffffffffffffffffffffffffffff\n  and\n  0x0f6798a560793a54c3bcfe86a93cde1e73087d944c0ea20544137d4121396885\n    /* \"smart_contracts/contracts/DreamcatcherToken.sol\":6727:6733  amount */\n  dup3\n    /* \"smart_contracts/contracts/DreamcatcherToken.sol\":6713:6734  Mint(account, amount) */\n  mload(0x40)\n  tag_27\n  swap2\n  swap1\n  tag_28\n  jump\t// in\ntag_27:\n  mload(0x40)\n  dup1\n  swap2\n  sub\n  swap1\n  log2\n    /* \"smart_contracts/contracts/DreamcatcherToken.sol\":6468:6741  function mint(address account, uint256 amount) public onlyCustodian {... */\n  pop\n  pop\n  jump\t// out\n    /* \"#utility.yul\":7:106   */\ntag_29:\n    /* \"#utility.yul\":59:65   */\n  0x00\n    /* \"#utility.yul\":93:98   */\n  dup2\n    /* \"#utility.yul\":87:99   */\n  mload\n    /* \"#utility.yul\":77:99   */\n  swap1\n  pop\n    /* \"#utility.yul\":7:106   */\n  swap2\n  swap1\n  pop\n  jump\t// out\n    /* \"#utility.yul\":112:292   */\ntag_30:\n    /* \"#utility.yul\":160:237   */\n  0x4e487b7100000000000000000000000000000000000000000000000000000000\n    /* \"#utility.yul\":157:158   */\n  0x00\n    /* \"#utility.yul\":150:238   */\n  mstore\n    /* \"#utility.yul\":257:261   */\n  0x41\n    /* \"#utility.yul\":254:255   */\n  0x04\n    /* \"#utility.yul\":247:262   */\n  mstore\n    /* \"#utility.yul\":281:285   */\n  0x24\n    /* \"#utility.yul\":278:279   */\n  0x00\n    /* \"#utility.yul\":271:286   */\n  revert\n    /* \"#utility.yul\":298:478   */\ntag_31:\n    /* \"#utility.yul\":346:423   */\n  0x4e487b7100000000000000000000000000000000000000000000000000000000\n    /* \"#utility.yul\":343:344   */\n  0x00\n    /* \"#utility.yul\":336:424   */\n  mstore\n    /* \"#utility.yul\":443:447   */\n  0x22\n    /* \"#utility.yul\":440:441   */\n  0x04\n    /* \"#utility.yul\":433:448   */\n  mstore\n    /* \"#utility.yul\":467:471   */\n  0x24\n    /* \"#utility.yul\":464:465   */\n  0x00\n    /* \"#utility.yul\":457:472   */\n  revert\n    /* \"#utility.yul\":484:804   */\ntag_32:\n    /* \"#utility.yul\":528:534   */\n  0x00\n    /* \"#utility.yul\":565:566   */\n  0x02\n    /* \"#utility.yul\":559:563   */\n  dup3\n    /* \"#utility.yul\":555:567   */\n  div\n    /* \"#utility.yul\":545:567   */\n  swap1\n  pop\n    /* \"#utility.yul\":612:613   */\n  0x01\n    /* \"#utility.yul\":606:610   */\n  dup3\n    /* \"#utility.yul\":602:614   */\n  and\n    /* \"#utility.yul\":633:651   */\n  dup1\n    /* \"#utility.yul\":623:704   */\n  tag_63\n  jumpi\n    /* \"#utility.yul\":689:693   */\n  0x7f\n    /* \"#utility.yul\":681:687   */\n  dup3\n    /* \"#utility.yul\":677:694   */\n  and\n    /* \"#utility.yul\":667:694   */\n  swap2\n  pop\n    /* \"#utility.yul\":623:704   */\ntag_63:\n    /* \"#utility.yul\":751:753   */\n  0x20\n    /* \"#utility.yul\":743:749   */\n  dup3\n    /* \"#utility.yul\":740:754   */\n  lt\n    /* \"#utility.yul\":720:738   */\n  dup2\n    /* \"#utility.yul\":717:755   */\n  sub\n    /* \"#utility.yul\":714:798   */\n  tag_64\n  jumpi\n    /* \"#utility.yul\":770:788   */\n  tag_65\n  tag_31\n  jump\t// in\ntag_65:\n    /* \"#utility.yul\":714:798   */\ntag_64:\n    /* \"#utility.yul\":535:804   */\n  pop\n    /* \"#utility.yul\":484:804   */\n  swap2\n  swap1\n  pop\n  jump\t// out\n    /* \"#utility.yul\":810:951   */\ntag_33:\n    /* \"#utility.yul\":859:863   */\n  0x00\n    /* \"#utility.yul\":882:885   */\n  dup2\n    /* \"#utility.yul\":874:885   */\n  swap1\n  pop\n    /* \"#utility.yul\":905:908   */\n  dup2\n    /* \"#utility.yul\":902:903   */\n  0x00\n    /* \"#utility.yul\":895:909   */\n  mstore\n    /* \"#utility.yul\":939:943   */\n  0x20\n    /* \"#utility.yul\":936:937   */\n  0x00\n    /* \"#utility.yul\":926:944   */\n  keccak256\n    /* \"#utility.yul\":918:944   */\n  swap1\n  pop\n    /* \"#utility.yul\":810:951   */\n  swap2\n  swap1\n  pop\n  jump\t// out\n    /* \"#utility.yul\":957:1050   */\ntag_34:\n    /* \"#utility.yul\":994:1000   */\n  0x00\n    /* \"#utility.yul\":1041:1043   */\n  0x20\n    /* \"#utility.yul\":1036:1038   */\n  0x1f\n    /* \"#utility.yul\":1029:1034   */\n  dup4\n    /* \"#utility.yul\":1025:1039   */\n  add\n    /* \"#utility.yul\":1021:1044   */\n  div\n    /* \"#utility.yul\":1011:1044   */\n  swap1\n  pop\n    /* \"#utility.yul\":957:1050   */\n  swap2\n  swap1\n  pop\n  jump\t// out\n    /* \"#utility.yul\":1056:1163   */\ntag_35:\n    /* \"#utility.yul\":1100:1108   */\n  0x00\n    /* \"#utility.yul\":1150:1155   */\n  dup3\n    /* \"#utility.yul\":1144:1148   */\n  dup3\n    /* \"#utility.yul\":1140:1156   */\n  shl\n    /* \"#utility.yul\":1119:1156   */\n  swap1\n  pop\n    /* \"#utility.yul\":1056:1163   */\n  swap3\n  swap2\n  pop\n  pop\n  jump\t// out\n    /* \"#utility.yul\":1169:1562   */\ntag_36:\n    /* \"#utility.yul\":1238:1244   */\n  0x00\n    /* \"#utility.yul\":1288:1289   */\n  0x08\n    /* \"#utility.yul\":1276:1286   */\n  dup4\n    /* \"#utility.yul\":1272:1290   */\n  mul\n    /* \"#utility.yul\":1311:1408   */\n  tag_70\n    /* \"#utility.yul\":1341:1407   */\n  0xffffffffffffffffffffffffffffffffffffffffffffffffffffffffffffffff\n    /* \"#utility.yul\":1330:1339   */\n  dup3\n    /* \"#utility.yul\":1311:1408   */\n  tag_35\n  jump\t// in\ntag_70:\n    /* \"#utility.yul\":1429:1468   */\n  tag_71\n    /* \"#utility.yul\":1459:1467   */\n  dup7\n    /* \"#utility.yul\":1448:1457   */\n  dup4\n    /* \"#utility.yul\":1429:1468   */\n  tag_35\n  jump\t// in\ntag_71:\n    /* \"#utility.yul\":1417:1468   */\n  swap6\n  pop\n    /* \"#utility.yul\":1501:1505   */\n  dup1\n    /* \"#utility.yul\":1497:1506   */\n  not\n    /* \"#utility.yul\":1490:1495   */\n  dup5\n    /* \"#utility.yul\":1486:1507   */\n  and\n    /* \"#utility.yul\":1477:1507   */\n  swap4\n  pop\n    /* \"#utility.yul\":1550:1554   */\n  dup1\n    /* \"#utility.yul\":1540:1548   */\n  dup7\n    /* \"#utility.yul\":1536:1555   */\n  and\n    /* \"#utility.yul\":1529:1534   */\n  dup5\n    /* \"#utility.yul\":1526:1556   */\n  or\n    /* \"#utility.yul\":1516:1556   */\n  swap3\n  pop\n    /* \"#utility.yul\":1245:1562   */\n  pop\n  pop\n    /* \"#utility.yul\":1169:1562   */\n  swap4\n  swap3\n  pop\n  pop\n  pop\n  jump\t// out\n    /* \"#utility.yul\":1568:1645   */\ntag_37:\n    /* \"#utility.yul\":1605:1612   */\n  0x00\n    /* \"#utility.yul\":1634:1639   */\n  dup2\n    /* \"#utility.yul\":1623:1639   */\n  swap1\n  pop\n    /* \"#utility.yul\":1568:1645   */\n  swap2\n  swap1\n  pop\n  jump\t// out\n    /* \"#utility.yul\":1651:1711   */\ntag_38:\n    /* \"#utility.yul\":1679:1682   */\n  0x00\n    /* \"#utility.yul\":1700:1705   */\n  dup2\n    /* \"#utility.yul\":1693:1705   */\n  swap1\n  pop\n    /* \"#utility.yul\":1651:1711   */\n  swap2\n  swap1\n  pop\n  jump\t// out\n    /* \"#utility.yul\":1717:1859   */\ntag_39:\n    /* \"#utility.yul\":1767:1776   */\n  0x00\n    /* \"#utility.yul\":1800:1853   */\n  tag_75\n    /* \"#utility.yul\":1818:1852   */\n  tag_76\n    /* \"#utility.yul\":1827:1851   */\n  tag_77\n    /* \"#utility.yul\":1845:1850   */\n  dup5\n    /* \"#utility.yul\":1827:1851   */\n  tag_37\n  jump\t// in\ntag_77:\n    /* \"#utility.yul\":1818:1852   */\n  tag_38\n  jump\t// in\ntag_76:\n    /* \"#utility.yul\":1800:1853   */\n  tag_37\n  jump\t// in\ntag_75:\n    /* \"#utility.yul\":1787:1853   */\n  swap1\n  pop\n    /* \"#utility.yul\":1717:1859   */\n  swap2\n  swap1\n  pop\n  jump\t// out\n    /* \"#utility.yul\":1865:1940   */\ntag_40:\n    /* \"#utility.yul\":1908:1911   */\n  0x00\n    /* \"#utility.yul\":1929:1934   */\n  dup2\n    /* \"#utility.yul\":1922:1934   */\n  swap1\n  pop\n    /* \"#utility.yul\":1865:1940   */\n  swap2\n  swap1\n  pop\n  jump\t// out\n    /* \"#utility.yul\":1946:2215   */\ntag_41:\n    /* \"#utility.yul\":2056:2095   */\n  tag_80\n    /* \"#utility.yul\":2087:2094   */\n  dup4\n    /* \"#utility.yul\":2056:2095   */\n  tag_39\n  jump\t// in\ntag_80:\n    /* \"#utility.yul\":2117:2208   */\n  tag_81\n    /* \"#utility.yul\":2166:2207   */\n  tag_82\n    /* \"#utility.yul\":2190:2206   */\n  dup3\n    /* \"#utility.yul\":2166:2207   */\n  tag_40\n  jump\t// in\ntag_82:\n    /* \"#utility.yul\":2158:2164   */\n  dup5\n    /* \"#utility.yul\":2151:2155   */\n  dup5\n    /* \"#utility.yul\":2145:2156   */\n  sload\n    /* \"#utility.yul\":2117:2208   */\n  tag_36\n  jump\t// in\ntag_81:\n    /* \"#utility.yul\":2111:2115   */\n  dup3\n    /* \"#utility.yul\":2104:2209   */\n  sstore\n    /* \"#utility.yul\":2022:2215   */\n  pop\n    /* \"#utility.yul\":1946:2215   */\n  pop\n  pop\n  pop\n  jump\t// out\n    /* \"#utility.yul\":2221:2294   */\ntag_42:\n    /* \"#utility.yul\":2266:2269   */\n  0x00\n    /* \"#utility.yul\":2221:2294   */\n  swap1\n  jump\t// out\n    /* \"#utility.yul\":2300:2489   */\ntag_43:\n    /* \"#utility.yul\":2377:2409   */\n  tag_85\n  tag_42\n  jump\t// in\ntag_85:\n    /* \"#utility.yul\":2418:2483   */\n  tag_86\n    /* \"#utility.yul\":2476:2482   */\n  dup2\n    /* \"#utility.yul\":2468:2474   */\n  dup5\n    /* \"#utility.yul\":2462:2466   */\n  dup5\n    /* \"#utility.yul\":2418:2483   */\n  tag_41\n  jump\t// in\ntag_86:\n    /* \"#utility.yul\":2353:2489   */\n  pop\n    /* \"#utility.yul\":2300:2489   */\n  pop\n  pop\n  jump\t// out\n    /* \"#utility.yul\":2495:2681   */\ntag_44:\n    /* \"#utility.yul\":2555:2675   */\ntag_88:\n    /* \"#utility.yul\":2572:2575   */\n  dup2\n    /* \"#utility.yul\":2565:2570   */\n  dup2\n    /* \"#utility.yul\":2562:2576   */\n  lt\n    /* \"#utility.yul\":2555:2675   */\n  iszero\n  tag_90\n  jumpi\n    /* \"#utility.yul\":2626:2665   */\n  tag_91\n    /* \"#utility.yul\":2663:2664   */\n  0x00\n    /* \"#utility.yul\":2656:2661   */\n  dup3\n    /* \"#utility.yul\":2626:2665   */\n  tag_43\n  jump\t// in\ntag_91:\n    /* \"#utility.yul\":2599:2600   */\n  0x01\n    /* \"#utility.yul\":2592:2597   */\n  dup2\n    /* \"#utility.yul\":2588:2601   */\n  add\n    /* \"#utility.yul\":2579:2601   */\n  swap1\n  pop\n    /* \"#utility.yul\":2555:2675   */\n  jump(tag_88)\ntag_90:\n    /* \"#utility.yul\":2495:2681   */\n  pop\n  pop\n  jump\t// out\n    /* \"#utility.yul\":2687:3230   */\ntag_45:\n    /* \"#utility.yul\":2788:2790   */\n  0x1f\n    /* \"#utility.yul\":2783:2786   */\n  dup3\n    /* \"#utility.yul\":2780:2791   */\n  gt\n    /* \"#utility.yul\":2777:3223   */\n  iszero\n  tag_93\n  jumpi\n    /* \"#utility.yul\":2822:2860   */\n  tag_94\n    /* \"#utility.yul\":2854:2859   */\n  dup2\n    /* \"#utility.yul\":2822:2860   */\n  tag_33\n  jump\t// in\ntag_94:\n    /* \"#utility.yul\":2906:2935   */\n  tag_95\n    /* \"#utility.yul\":2924:2934   */\n  dup5\n    /* \"#utility.yul\":2906:2935   */\n  tag_34\n  jump\t// in\ntag_95:\n    /* \"#utility.yul\":2896:2904   */\n  dup2\n    /* \"#utility.yul\":2892:2936   */\n  add\n    /* \"#utility.yul\":3089:3091   */\n  0x20\n    /* \"#utility.yul\":3077:3087   */\n  dup6\n    /* \"#utility.yul\":3074:3092   */\n  lt\n    /* \"#utility.yul\":3071:3120   */\n  iszero\n  tag_96\n  jumpi\n    /* \"#utility.yul\":3110:3118   */\n  dup2\n    /* \"#utility.yul\":3095:3118   */\n  swap1\n  pop\n    /* \"#utility.yul\":3071:3120   */\ntag_96:\n    /* \"#utility.yul\":3133:3213   */\n  tag_97\n    /* \"#utility.yul\":3189:3211   */\n  tag_98\n    /* \"#utility.yul\":3207:3210   */\n  dup6\n    /* \"#utility.yul\":3189:3211   */\n  tag_34\n  jump\t// in\ntag_98:\n    /* \"#utility.yul\":3179:3187   */\n  dup4\n    /* \"#utility.yul\":3175:3212   */\n  add\n    /* \"#utility.yul\":3162:3173   */\n  dup3\n    /* \"#utility.yul\":3133:3213   */\n  tag_44\n  jump\t// in\ntag_97:\n    /* \"#utility.yul\":2792:3223   */\n  pop\n  pop\n    /* \"#utility.yul\":2777:3223   */\ntag_93:\n    /* \"#utility.yul\":2687:3230   */\n  pop\n  pop\n  pop\n  jump\t// out\n    /* \"#utility.yul\":3236:3353   */\ntag_46:\n    /* \"#utility.yul\":3290:3298   */\n  0x00\n    /* \"#utility.yul\":3340:3345   */\n  dup3\n    /* \"#utility.yul\":3334:3338   */\n  dup3\n    /* \"#utility.yul\":3330:3346   */\n  shr\n    /* \"#utility.yul\":3309:3346   */\n  swap1\n  pop\n    /* \"#utility.yul\":3236:3353   */\n  swap3\n  swap2\n  pop\n  pop\n  jump\t// out\n    /* \"#utility.yul\":3359:3528   */\ntag_47:\n    /* \"#utility.yul\":3403:3409   */\n  0x00\n    /* \"#utility.yul\":3436:3487   */\n  tag_101\n    /* \"#utility.yul\":3484:3485   */\n  0x00\n    /* \"#utility.yul\":3480:3486   */\n  not\n    /* \"#utility.yul\":3472:3477   */\n  dup5\n    /* \"#utility.yul\":3469:3470   */\n  0x08\n    /* \"#utility.yul\":3465:3478   */\n  mul\n    /* \"#utility.yul\":3436:3487   */\n  tag_46\n  jump\t// in\ntag_101:\n    /* \"#utility.yul\":3432:3488   */\n  not\n    /* \"#utility.yul\":3517:3521   */\n  dup1\n    /* \"#utility.yul\":3511:3515   */\n  dup4\n    /* \"#utility.yul\":3507:3522   */\n  and\n    /* \"#utility.yul\":3497:3522   */\n  swap2\n  pop\n    /* \"#utility.yul\":3410:3528   */\n  pop\n    /* \"#utility.yul\":3359:3528   */\n  swap3\n  swap2\n  pop\n  pop\n  jump\t// out\n    /* \"#utility.yul\":3533:3828   */\ntag_48:\n    /* \"#utility.yul\":3609:3613   */\n  0x00\n    /* \"#utility.yul\":3755:3784   */\n  tag_103\n    /* \"#utility.yul\":3780:3783   */\n  dup4\n    /* \"#utility.yul\":3774:3778   */\n  dup4\n    /* \"#utility.yul\":3755:3784   */\n  tag_47\n  jump\t// in\ntag_103:\n    /* \"#utility.yul\":3747:3784   */\n  swap2\n  pop\n    /* \"#utility.yul\":3817:3820   */\n  dup3\n    /* \"#utility.yul\":3814:3815   */\n  0x02\n    /* \"#utility.yul\":3810:3821   */\n  mul\n    /* \"#utility.yul\":3804:3808   */\n  dup3\n    /* \"#utility.yul\":3801:3822   */\n  or\n    /* \"#utility.yul\":3793:3822   */\n  swap1\n  pop\n    /* \"#utility.yul\":3533:3828   */\n  swap3\n  swap2\n  pop\n  pop\n  jump\t// out\n    /* \"#utility.yul\":3833:5228   */\ntag_5:\n    /* \"#utility.yul\":3950:3987   */\n  tag_105\n    /* \"#utility.yul\":3983:3986   */\n  dup3\n    /* \"#utility.yul\":3950:3987   */\n  tag_29\n  jump\t// in\ntag_105:\n    /* \"#utility.yul\":4052:4070   */\n  0xffffffffffffffff\n    /* \"#utility.yul\":4044:4050   */\n  dup2\n    /* \"#utility.yul\":4041:4071   */\n  gt\n    /* \"#utility.yul\":4038:4094   */\n  iszero\n  tag_106\n  jumpi\n    /* \"#utility.yul\":4074:4092   */\n  tag_107\n  tag_30\n  jump\t// in\ntag_107:\n    /* \"#utility.yul\":4038:4094   */\ntag_106:\n    /* \"#utility.yul\":4118:4156   */\n  tag_108\n    /* \"#utility.yul\":4150:4154   */\n  dup3\n    /* \"#utility.yul\":4144:4155   */\n  sload\n    /* \"#utility.yul\":4118:4156   */\n  tag_32\n  jump\t// in\ntag_108:\n    /* \"#utility.yul\":4203:4270   */\n  tag_109\n    /* \"#utility.yul\":4263:4269   */\n  dup3\n    /* \"#utility.yul\":4255:4261   */\n  dup3\n    /* \"#utility.yul\":4249:4253   */\n  dup6\n    /* \"#utility.yul\":4203:4270   */\n  tag_45\n  jump\t// in\ntag_109:\n    /* \"#utility.yul\":4297:4298   */\n  0x00\n    /* \"#utility.yul\":4321:4325   */\n  0x20\n    /* \"#utility.yul\":4308:4325   */\n  swap1\n  pop\n    /* \"#utility.yul\":4353:4355   */\n  0x1f\n    /* \"#utility.yul\":4345:4351   */\n  dup4\n    /* \"#utility.yul\":4342:4356   */\n  gt\n    /* \"#utility.yul\":4370:4371   */\n  0x01\n    /* \"#utility.yul\":4365:4983   */\n  dup2\n  eq\n  tag_111\n  jumpi\n    /* \"#utility.yul\":5027:5028   */\n  0x00\n    /* \"#utility.yul\":5044:5050   */\n  dup5\n    /* \"#utility.yul\":5041:5118   */\n  iszero\n  tag_112\n  jumpi\n    /* \"#utility.yul\":5093:5102   */\n  dup3\n    /* \"#utility.yul\":5088:5091   */\n  dup8\n    /* \"#utility.yul\":5084:5103   */\n  add\n    /* \"#utility.yul\":5078:5104   */\n  mload\n    /* \"#utility.yul\":5069:5104   */\n  swap1\n  pop\n    /* \"#utility.yul\":5041:5118   */\ntag_112:\n    /* \"#utility.yul\":5144:5211   */\n  tag_113\n    /* \"#utility.yul\":5204:5210   */\n  dup6\n    /* \"#utility.yul\":5197:5202   */\n  dup3\n    /* \"#utility.yul\":5144:5211   */\n  tag_48\n  jump\t// in\ntag_113:\n    /* \"#utility.yul\":5138:5142   */\n  dup7\n    /* \"#utility.yul\":5131:5212   */\n  sstore\n    /* \"#utility.yul\":5000:5222   */\n  pop\n    /* \"#utility.yul\":4335:5222   */\n  jump(tag_110)\n    /* \"#utility.yul\":4365:4983   */\ntag_111:\n    /* \"#utility.yul\":4417:4421   */\n  0x1f\n    /* \"#utility.yul\":4413:4422   */\n  not\n    /* \"#utility.yul\":4405:4411   */\n  dup5\n    /* \"#utility.yul\":4401:4423   */\n  and\n    /* \"#utility.yul\":4451:4488   */\n  tag_114\n    /* \"#utility.yul\":4483:4487   */\n  dup7\n    /* \"#utility.yul\":4451:4488   */\n  tag_33\n  jump\t// in\ntag_114:\n    /* \"#utility.yul\":4510:4511   */\n  0x00\n    /* \"#utility.yul\":4524:4732   */\ntag_115:\n    /* \"#utility.yul\":4538:4545   */\n  dup3\n    /* \"#utility.yul\":4535:4536   */\n  dup2\n    /* \"#utility.yul\":4532:4546   */\n  lt\n    /* \"#utility.yul\":4524:4732   */\n  iszero\n  tag_117\n  jumpi\n    /* \"#utility.yul\":4617:4626   */\n  dup5\n    /* \"#utility.yul\":4612:4615   */\n  dup10\n    /* \"#utility.yul\":4608:4627   */\n  add\n    /* \"#utility.yul\":4602:4628   */\n  mload\n    /* \"#utility.yul\":4594:4600   */\n  dup3\n    /* \"#utility.yul\":4587:4629   */\n  sstore\n    /* \"#utility.yul\":4668:4669   */\n  0x01\n    /* \"#utility.yul\":4660:4666   */\n  dup3\n    /* \"#utility.yul\":4656:4670   */\n  add\n    /* \"#utility.yul\":4646:4670   */\n  swap2\n  pop\n    /* \"#utility.yul\":4715:4717   */\n  0x20\n    /* \"#utility.yul\":4704:4713   */\n  dup6\n    /* \"#utility.yul\":4700:4718   */\n  add\n    /* \"#utility.yul\":4687:4718   */\n  swap5\n  pop\n    /* \"#utility.yul\":4561:4565   */\n  0x20\n    /* \"#utility.yul\":4558:4559   */\n  dup2\n    /* \"#utility.yul\":4554:4566   */\n  add\n    /* \"#utility.yul\":4549:4566   */\n  swap1\n  pop\n    /* \"#utility.yul\":4524:4732   */\n  jump(tag_115)\ntag_117:\n    /* \"#utility.yul\":4760:4766   */\n  dup7\n    /* \"#utility.yul\":4751:4758   */\n  dup4\n    /* \"#utility.yul\":4748:4767   */\n  lt\n    /* \"#utility.yul\":4745:4924   */\n  iszero\n  tag_118\n  jumpi\n    /* \"#utility.yul\":4818:4827   */\n  dup5\n    /* \"#utility.yul\":4813:4816   */\n  dup10\n    /* \"#utility.yul\":4809:4828   */\n  add\n    /* \"#utility.yul\":4803:4829   */\n  mload\n    /* \"#utility.yul\":4861:4909   */\n  tag_119\n    /* \"#utility.yul\":4903:4907   */\n  0x1f\n    /* \"#utility.yul\":4895:4901   */\n  dup10\n    /* \"#utility.yul\":4891:4908   */\n  and\n    /* \"#utility.yul\":4880:4889   */\n  dup3\n    /* \"#utility.yul\":4861:4909   */\n  tag_47\n  jump\t// in\ntag_119:\n    /* \"#utility.yul\":4853:4859   */\n  dup4\n    /* \"#utility.yul\":4846:4910   */\n  sstore\n    /* \"#utility.yul\":4768:4924   */\n  pop\n    /* \"#utility.yul\":4745:4924   */\ntag_118:\n    /* \"#utility.yul\":4970:4971   */\n  0x01\n    /* \"#utility.yul\":4966:4967   */\n  0x02\n    /* \"#utility.yul\":4958:4964   */\n  dup9\n    /* \"#utility.yul\":4954:4968   */\n  mul\n    /* \"#utility.yul\":4950:4972   */\n  add\n    /* \"#utility.yul\":4944:4948   */\n  dup9\n    /* \"#utility.yul\":4937:4973   */\n  sstore\n    /* \"#utility.yul\":4372:4983   */\n  pop\n  pop\n  pop\n    /* \"#utility.yul\":4335:5222   */\ntag_110:\n  pop\n    /* \"#utility.yul\":3925:5228   */\n  pop\n  pop\n  pop\n    /* \"#utility.yul\":3833:5228   */\n  pop\n  pop\n  jump\t// out\n    /* \"#utility.yul\":5234:5414   */\ntag_49:\n    /* \"#utility.yul\":5282:5359   */\n  0x4e487b7100000000000000000000000000000000000000000000000000000000\n    /* \"#utility.yul\":5279:5280   */\n  0x00\n    /* \"#utility.yul\":5272:5360   */\n  mstore\n    /* \"#utility.yul\":5379:5383   */\n  0x11\n    /* \"#utility.yul\":5376:5377   */\n  0x04\n    /* \"#utility.yul\":5369:5384   */\n  mstore\n    /* \"#utility.yul\":5403:5407   */\n  0x24\n    /* \"#utility.yul\":5400:5401   */\n  0x00\n    /* \"#utility.yul\":5393:5408   */\n  revert\n    /* \"#utility.yul\":5420:5522   */\ntag_50:\n    /* \"#utility.yul\":5462:5470   */\n  0x00\n    /* \"#utility.yul\":5509:5514   */\n  dup2\n    /* \"#utility.yul\":5506:5507   */\n  0x01\n    /* \"#utility.yul\":5502:5515   */\n  shr\n    /* \"#utility.yul\":5481:5515   */\n  swap1\n  pop\n    /* \"#utility.yul\":5420:5522   */\n  swap2\n  swap1\n  pop\n  jump\t// out\n    /* \"#utility.yul\":5528:6376   */\ntag_51:\n    /* \"#utility.yul\":5589:5594   */\n  0x00\n    /* \"#utility.yul\":5596:5600   */\n  dup1\n    /* \"#utility.yul\":5620:5626   */\n  dup3\n    /* \"#utility.yul\":5611:5626   */\n  swap2\n  pop\n    /* \"#utility.yul\":5644:5649   */\n  dup4\n    /* \"#utility.yul\":5635:5649   */\n  swap1\n  pop\n    /* \"#utility.yul\":5658:6370   */\ntag_123:\n    /* \"#utility.yul\":5679:5680   */\n  0x01\n    /* \"#utility.yul\":5669:5677   */\n  dup6\n    /* \"#utility.yul\":5666:5681   */\n  gt\n    /* \"#utility.yul\":5658:6370   */\n  iszero\n  tag_125\n  jumpi\n    /* \"#utility.yul\":5774:5778   */\n  dup1\n    /* \"#utility.yul\":5769:5772   */\n  dup7\n    /* \"#utility.yul\":5765:5779   */\n  div\n    /* \"#utility.yul\":5759:5763   */\n  dup2\n    /* \"#utility.yul\":5756:5780   */\n  gt\n    /* \"#utility.yul\":5753:5803   */\n  iszero\n  tag_126\n  jumpi\n    /* \"#utility.yul\":5783:5801   */\n  tag_127\n  tag_49\n  jump\t// in\ntag_127:\n    /* \"#utility.yul\":5753:5803   */\ntag_126:\n    /* \"#utility.yul\":5833:5834   */\n  0x01\n    /* \"#utility.yul\":5823:5831   */\n  dup6\n    /* \"#utility.yul\":5819:5835   */\n  and\n    /* \"#utility.yul\":5816:6267   */\n  iszero\n  tag_128\n  jumpi\n    /* \"#utility.yul\":6248:6252   */\n  dup1\n    /* \"#utility.yul\":6241:6246   */\n  dup3\n    /* \"#utility.yul\":6237:6253   */\n  mul\n    /* \"#utility.yul\":6228:6253   */\n  swap2\n  pop\n    /* \"#utility.yul\":5816:6267   */\ntag_128:\n    /* \"#utility.yul\":6298:6302   */\n  dup1\n    /* \"#utility.yul\":6292:6296   */\n  dup2\n    /* \"#utility.yul\":6288:6303   */\n  mul\n    /* \"#utility.yul\":6280:6303   */\n  swap1\n  pop\n    /* \"#utility.yul\":6328:6360   */\n  tag_129\n    /* \"#utility.yul\":6351:6359   */\n  dup6\n    /* \"#utility.yul\":6328:6360   */\n  tag_50\n  jump\t// in\ntag_129:\n    /* \"#utility.yul\":6316:6360   */\n  swap5\n  pop\n    /* \"#utility.yul\":5658:6370   */\n  jump(tag_123)\ntag_125:\n    /* \"#utility.yul\":5528:6376   */\n  swap5\n  pop\n  swap5\n  swap3\n  pop\n  pop\n  pop\n  jump\t// out\n    /* \"#utility.yul\":6382:7455   */\ntag_52:\n    /* \"#utility.yul\":6436:6441   */\n  0x00\n    /* \"#utility.yul\":6627:6635   */\n  dup3\n    /* \"#utility.yul\":6617:6657   */\n  tag_131\n  jumpi\n    /* \"#utility.yul\":6648:6649   */\n  0x01\n    /* \"#utility.yul\":6639:6649   */\n  swap1\n  pop\n    /* \"#utility.yul\":6650:6655   */\n  jump(tag_130)\n    /* \"#utility.yul\":6617:6657   */\ntag_131:\n    /* \"#utility.yul\":6676:6680   */\n  dup2\n    /* \"#utility.yul\":6666:6702   */\n  tag_132\n  jumpi\n    /* \"#utility.yul\":6693:6694   */\n  0x00\n    /* \"#utility.yul\":6684:6694   */\n  swap1\n  pop\n    /* \"#utility.yul\":6695:6700   */\n  jump(tag_130)\n    /* \"#utility.yul\":6666:6702   */\ntag_132:\n    /* \"#utility.yul\":6762:6766   */\n  dup2\n    /* \"#utility.yul\":6810:6811   */\n  0x01\n    /* \"#utility.yul\":6805:6832   */\n  dup2\n  eq\n  tag_134\n  jumpi\n    /* \"#utility.yul\":6846:6847   */\n  0x02\n    /* \"#utility.yul\":6841:7032   */\n  dup2\n  eq\n  tag_135\n  jumpi\n    /* \"#utility.yul\":6755:7032   */\n  jump(tag_133)\n    /* \"#utility.yul\":6805:6832   */\ntag_134:\n    /* \"#utility.yul\":6823:6824   */\n  0x01\n    /* \"#utility.yul\":6814:6824   */\n  swap2\n  pop\n    /* \"#utility.yul\":6825:6830   */\n  pop\n  jump(tag_130)\n    /* \"#utility.yul\":6841:7032   */\ntag_135:\n    /* \"#utility.yul\":6886:6889   */\n  0xff\n    /* \"#utility.yul\":6876:6884   */\n  dup5\n    /* \"#utility.yul\":6873:6890   */\n  gt\n    /* \"#utility.yul\":6870:6913   */\n  iszero\n  tag_136\n  jumpi\n    /* \"#utility.yul\":6893:6911   */\n  tag_137\n  tag_49\n  jump\t// in\ntag_137:\n    /* \"#utility.yul\":6870:6913   */\ntag_136:\n    /* \"#utility.yul\":6942:6950   */\n  dup4\n    /* \"#utility.yul\":6939:6940   */\n  0x02\n    /* \"#utility.yul\":6935:6951   */\n  exp\n    /* \"#utility.yul\":6926:6951   */\n  swap2\n  pop\n    /* \"#utility.yul\":6977:6980   */\n  dup5\n    /* \"#utility.yul\":6970:6975   */\n  dup3\n    /* \"#utility.yul\":6967:6981   */\n  gt\n    /* \"#utility.yul\":6964:7004   */\n  iszero\n  tag_138\n  jumpi\n    /* \"#utility.yul\":6984:7002   */\n  tag_139\n  tag_49\n  jump\t// in\ntag_139:\n    /* \"#utility.yul\":6964:7004   */\ntag_138:\n    /* \"#utility.yul\":7017:7022   */\n  pop\n  jump(tag_130)\n    /* \"#utility.yul\":6755:7032   */\ntag_133:\n  pop\n    /* \"#utility.yul\":7141:7143   */\n  0x20\n    /* \"#utility.yul\":7131:7139   */\n  dup4\n    /* \"#utility.yul\":7128:7144   */\n  lt\n    /* \"#utility.yul\":7122:7125   */\n  0x0133\n    /* \"#utility.yul\":7116:7120   */\n  dup4\n    /* \"#utility.yul\":7113:7126   */\n  lt\n    /* \"#utility.yul\":7109:7145   */\n  and\n    /* \"#utility.yul\":7091:7093   */\n  0x4e\n    /* \"#utility.yul\":7081:7089   */\n  dup5\n    /* \"#utility.yul\":7078:7094   */\n  lt\n    /* \"#utility.yul\":7073:7075   */\n  0x0b\n    /* \"#utility.yul\":7067:7071   */\n  dup5\n    /* \"#utility.yul\":7064:7076   */\n  lt\n    /* \"#utility.yul\":7060:7095   */\n  and\n    /* \"#utility.yul\":7044:7155   */\n  or\n    /* \"#utility.yul\":7041:7287   */\n  iszero\n  tag_140\n  jumpi\n    /* \"#utility.yul\":7197:7205   */\n  dup3\n    /* \"#utility.yul\":7191:7195   */\n  dup3\n    /* \"#utility.yul\":7187:7206   */\n  exp\n    /* \"#utility.yul\":7178:7206   */\n  swap1\n  pop\n    /* \"#utility.yul\":7232:7235   */\n  dup4\n    /* \"#utility.yul\":7225:7230   */\n  dup2\n    /* \"#utility.yul\":7222:7236   */\n  gt\n    /* \"#utility.yul\":7219:7259   */\n  iszero\n  tag_141\n  jumpi\n    /* \"#utility.yul\":7239:7257   */\n  tag_142\n  tag_49\n  jump\t// in\ntag_142:\n    /* \"#utility.yul\":7219:7259   */\ntag_141:\n    /* \"#utility.yul\":7272:7277   */\n  jump(tag_130)\n    /* \"#utility.yul\":7041:7287   */\ntag_140:\n    /* \"#utility.yul\":7312:7354   */\n  tag_143\n    /* \"#utility.yul\":7350:7353   */\n  dup5\n    /* \"#utility.yul\":7340:7348   */\n  dup5\n    /* \"#utility.yul\":7334:7338   */\n  dup5\n    /* \"#utility.yul\":7331:7332   */\n  0x01\n    /* \"#utility.yul\":7312:7354   */\n  tag_51\n  jump\t// in\ntag_143:\n    /* \"#utility.yul\":7297:7354   */\n  swap3\n  pop\n  swap1\n  pop\n    /* \"#utility.yul\":7386:7390   */\n  dup2\n    /* \"#utility.yul\":7381:7384   */\n  dup5\n    /* \"#utility.yul\":7377:7391   */\n  div\n    /* \"#utility.yul\":7370:7375   */\n  dup2\n    /* \"#utility.yul\":7367:7392   */\n  gt\n    /* \"#utility.yul\":7364:7415   */\n  iszero\n  tag_144\n  jumpi\n    /* \"#utility.yul\":7395:7413   */\n  tag_145\n  tag_49\n  jump\t// in\ntag_145:\n    /* \"#utility.yul\":7364:7415   */\ntag_144:\n    /* \"#utility.yul\":7444:7448   */\n  dup2\n    /* \"#utility.yul\":7437:7442   */\n  dup2\n    /* \"#utility.yul\":7433:7449   */\n  mul\n    /* \"#utility.yul\":7424:7449   */\n  swap1\n  pop\n    /* \"#utility.yul\":6382:7455   */\ntag_130:\n  swap4\n  swap3\n  pop\n  pop\n  pop\n  jump\t// out\n    /* \"#utility.yul\":7461:7547   */\ntag_53:\n    /* \"#utility.yul\":7496:7503   */\n  0x00\n    /* \"#utility.yul\":7536:7540   */\n  0xff\n    /* \"#utility.yul\":7529:7534   */\n  dup3\n    /* \"#utility.yul\":7525:7541   */\n  and\n    /* \"#utility.yul\":7514:7541   */\n  swap1\n  pop\n    /* \"#utility.yul\":7461:7547   */\n  swap2\n  swap1\n  pop\n  jump\t// out\n    /* \"#utility.yul\":7553:7834   */\ntag_8:\n    /* \"#utility.yul\":7611:7616   */\n  0x00\n    /* \"#utility.yul\":7635:7658   */\n  tag_148\n    /* \"#utility.yul\":7653:7657   */\n  dup3\n    /* \"#utility.yul\":7635:7658   */\n  tag_37\n  jump\t// in\ntag_148:\n    /* \"#utility.yul\":7627:7658   */\n  swap2\n  pop\n    /* \"#utility.yul\":7679:7704   */\n  tag_149\n    /* \"#utility.yul\":7695:7703   */\n  dup4\n    /* \"#utility.yul\":7679:7704   */\n  tag_53\n  jump\t// in\ntag_149:\n    /* \"#utility.yul\":7667:7704   */\n  swap3\n  pop\n    /* \"#utility.yul\":7723:7827   */\n  tag_150\n    /* \"#utility.yul\":7760:7826   */\n  0xffffffffffffffffffffffffffffffffffffffffffffffffffffffffffffffff\n    /* \"#utility.yul\":7750:7758   */\n  dup5\n    /* \"#utility.yul\":7744:7748   */\n  dup5\n    /* \"#utility.yul\":7723:7827   */\n  tag_52\n  jump\t// in\ntag_150:\n    /* \"#utility.yul\":7714:7827   */\n  swap1\n  pop\n    /* \"#utility.yul\":7553:7834   */\n  swap3\n  swap2\n  pop\n  pop\n  jump\t// out\n    /* \"#utility.yul\":7840:8250   */\ntag_10:\n    /* \"#utility.yul\":7880:7887   */\n  0x00\n    /* \"#utility.yul\":7903:7923   */\n  tag_152\n    /* \"#utility.yul\":7921:7922   */\n  dup3\n    /* \"#utility.yul\":7903:7923   */\n  tag_37\n  jump\t// in\ntag_152:\n    /* \"#utility.yul\":7898:7923   */\n  swap2\n  pop\n    /* \"#utility.yul\":7937:7957   */\n  tag_153\n    /* \"#utility.yul\":7955:7956   */\n  dup4\n    /* \"#utility.yul\":7937:7957   */\n  tag_37\n  jump\t// in\ntag_153:\n    /* \"#utility.yul\":7932:7957   */\n  swap3\n  pop\n    /* \"#utility.yul\":7992:7993   */\n  dup3\n    /* \"#utility.yul\":7989:7990   */\n  dup3\n    /* \"#utility.yul\":7985:7994   */\n  mul\n    /* \"#utility.yul\":8014:8044   */\n  tag_154\n    /* \"#utility.yul\":8032:8043   */\n  dup2\n    /* \"#utility.yul\":8014:8044   */\n  tag_37\n  jump\t// in\ntag_154:\n    /* \"#utility.yul\":8003:8044   */\n  swap2\n  pop\n    /* \"#utility.yul\":8193:8194   */\n  dup3\n    /* \"#utility.yul\":8184:8191   */\n  dup3\n    /* \"#utility.yul\":8180:8195   */\n  div\n    /* \"#utility.yul\":8177:8178   */\n  dup5\n    /* \"#utility.yul\":8174:8196   */\n  eq\n    /* \"#utility.yul\":8154:8155   */\n  dup4\n    /* \"#utility.yul\":8147:8156   */\n  iszero\n    /* \"#utility.yul\":8127:8210   */\n  or\n    /* \"#utility.yul\":8104:8243   */\n  tag_155\n  jumpi\n    /* \"#utility.yul\":8223:8241   */\n  tag_156\n  tag_49\n  jump\t// in\ntag_156:\n    /* \"#utility.yul\":8104:8243   */\ntag_155:\n    /* \"#utility.yul\":7888:8250   */\n  pop\n    /* \"#utility.yul\":7840:8250   */\n  swap3\n  swap2\n  pop\n  pop\n  jump\t// out\n    /* \"#utility.yul\":8256:8425   */\ntag_54:\n    /* \"#utility.yul\":8340:8351   */\n  0x00\n    /* \"#utility.yul\":8374:8380   */\n  dup3\n    /* \"#utility.yul\":8369:8372   */\n  dup3\n    /* \"#utility.yul\":8362:8381   */\n  mstore\n    /* \"#utility.yul\":8414:8418   */\n  0x20\n    /* \"#utility.yul\":8409:8412   */\n  dup3\n    /* \"#utility.yul\":8405:8419   */\n  add\n    /* \"#utility.yul\":8390:8419   */\n  swap1\n  pop\n    /* \"#utility.yul\":8256:8425   */\n  swap3\n  swap2\n  pop\n  pop\n  jump\t// out\n    /* \"#utility.yul\":8431:8653   */\ntag_55:\n    /* \"#utility.yul\":8571:8605   */\n  0x4d757374206265206163636573736564207468726f75676820612070726f706f\n    /* \"#utility.yul\":8567:8568   */\n  0x00\n    /* \"#utility.yul\":8559:8565   */\n  dup3\n    /* \"#utility.yul\":8555:8569   */\n  add\n    /* \"#utility.yul\":8548:8606   */\n  mstore\n    /* \"#utility.yul\":8640:8645   */\n  0x73616c0000000000000000000000000000000000000000000000000000000000\n    /* \"#utility.yul\":8635:8637   */\n  0x20\n    /* \"#utility.yul\":8627:8633   */\n  dup3\n    /* \"#utility.yul\":8623:8638   */\n  add\n    /* \"#utility.yul\":8616:8646   */\n  mstore\n    /* \"#utility.yul\":8431:8653   */\n  pop\n  jump\t// out\n    /* \"#utility.yul\":8659:9025   */\ntag_56:\n    /* \"#utility.yul\":8801:8804   */\n  0x00\n    /* \"#utility.yul\":8822:8889   */\n  tag_160\n    /* \"#utility.yul\":8886:8888   */\n  0x23\n    /* \"#utility.yul\":8881:8884   */\n  dup4\n    /* \"#utility.yul\":8822:8889   */\n  tag_54\n  jump\t// in\ntag_160:\n    /* \"#utility.yul\":8815:8889   */\n  swap2\n  pop\n    /* \"#utility.yul\":8898:8991   */\n  tag_161\n    /* \"#utility.yul\":8987:8990   */\n  dup3\n    /* \"#utility.yul\":8898:8991   */\n  tag_55\n  jump\t// in\ntag_161:\n    /* \"#utility.yul\":9016:9018   */\n  0x40\n    /* \"#utility.yul\":9011:9014   */\n  dup3\n    /* \"#utility.yul\":9007:9019   */\n  add\n    /* \"#utility.yul\":9000:9019   */\n  swap1\n  pop\n    /* \"#utility.yul\":8659:9025   */\n  swap2\n  swap1\n  pop\n  jump\t// out\n    /* \"#utility.yul\":9031:9450   */\ntag_21:\n    /* \"#utility.yul\":9197:9201   */\n  0x00\n    /* \"#utility.yul\":9235:9237   */\n  0x20\n    /* \"#utility.yul\":9224:9233   */\n  dup3\n    /* \"#utility.yul\":9220:9238   */\n  add\n    /* \"#utility.yul\":9212:9238   */\n  swap1\n  pop\n    /* \"#utility.yul\":9284:9293   */\n  dup2\n    /* \"#utility.yul\":9278:9282   */\n  dup2\n    /* \"#utility.yul\":9274:9294   */\n  sub\n    /* \"#utility.yul\":9270:9271   */\n  0x00\n    /* \"#utility.yul\":9259:9268   */\n  dup4\n    /* \"#utility.yul\":9255:9272   */\n  add\n    /* \"#utility.yul\":9248:9295   */\n  mstore\n    /* \"#utility.yul\":9312:9443   */\n  tag_163\n    /* \"#utility.yul\":9438:9442   */\n  dup2\n    /* \"#utility.yul\":9312:9443   */\n  tag_56\n  jump\t// in\ntag_163:\n    /* \"#utility.yul\":9304:9443   */\n  swap1\n  pop\n    /* \"#utility.yul\":9031:9450   */\n  swap2\n  swap1\n  pop\n  jump\t// out\n    /* \"#utility.yul\":9456:9647   */\ntag_24:\n    /* \"#utility.yul\":9496:9499   */\n  0x00\n    /* \"#utility.yul\":9515:9535   */\n  tag_165\n    /* \"#utility.yul\":9533:9534   */\n  dup3\n    /* \"#utility.yul\":9515:9535   */\n  tag_37\n  jump\t// in\ntag_165:\n    /* \"#utility.yul\":9510:9535   */\n  swap2\n  pop\n    /* \"#utility.yul\":9549:9569   */\n  tag_166\n    /* \"#utility.yul\":9567:9568   */\n  dup4\n    /* \"#utility.yul\":9549:9569   */\n  tag_37\n  jump\t// in\ntag_166:\n    /* \"#utility.yul\":9544:9569   */\n  swap3\n  pop\n    /* \"#utility.yul\":9592:9593   */\n  dup3\n    /* \"#utility.yul\":9589:9590   */\n  dup3\n    /* \"#utility.yul\":9585:9594   */\n  add\n    /* \"#utility.yul\":9578:9594   */\n  swap1\n  pop\n    /* \"#utility.yul\":9613:9616   */\n  dup1\n    /* \"#utility.yul\":9610:9611   */\n  dup3\n    /* \"#utility.yul\":9607:9617   */\n  gt\n    /* \"#utility.yul\":9604:9640   */\n  iszero\n  tag_167\n  jumpi\n    /* \"#utility.yul\":9620:9638   */\n  tag_168\n  tag_49\n  jump\t// in\ntag_168:\n    /* \"#utility.yul\":9604:9640   */\ntag_167:\n    /* \"#utility.yul\":9456:9647   */\n  swap3\n  swap2\n  pop\n  pop\n  jump\t// out\n    /* \"#utility.yul\":9653:9771   */\ntag_57:\n    /* \"#utility.yul\":9740:9764   */\n  tag_170\n    /* \"#utility.yul\":9758:9763   */\n  dup2\n    /* \"#utility.yul\":9740:9764   */\n  tag_37\n  jump\t// in\ntag_170:\n    /* \"#utility.yul\":9735:9738   */\n  dup3\n    /* \"#utility.yul\":9728:9765   */\n  mstore\n    /* \"#utility.yul\":9653:9771   */\n  pop\n  pop\n  jump\t// out\n    /* \"#utility.yul\":9777:9999   */\ntag_28:\n    /* \"#utility.yul\":9870:9874   */\n  0x00\n    /* \"#utility.yul\":9908:9910   */\n  0x20\n    /* \"#utility.yul\":9897:9906   */\n  dup3\n    /* \"#utility.yul\":9893:9911   */\n  add\n    /* \"#utility.yul\":9885:9911   */\n  swap1\n  pop\n    /* \"#utility.yul\":9921:9992   */\n  tag_172\n    /* \"#utility.yul\":9989:9990   */\n  0x00\n    /* \"#utility.yul\":9978:9987   */\n  dup4\n    /* \"#utility.yul\":9974:9991   */\n  add\n    /* \"#utility.yul\":9965:9971   */\n  dup5\n    /* \"#utility.yul\":9921:9992   */\n  tag_57\n  jump\t// in\ntag_172:\n    /* \"#utility.yul\":9777:9999   */\n  swap3\n  swap2\n  pop\n  pop\n  jump\t// out\n    /* \"smart_contracts/contracts/DreamcatcherToken.sol\":516:9588  contract DreamcatcherToken {... */\ntag_17:\n  dataSize(sub_0)\n  dup1\n  dataOffset(sub_0)\n  0x00\n  codecopy\n  0x00\n  return\nstop\n\nsub_0: assembly {\n        /* \"smart_contracts/contracts/DreamcatcherToken.sol\":516:9588  contract DreamcatcherToken {... */\n      mstore(0x40, 0x80)\n      callvalue\n      dup1\n      iszero\n      tag_1\n      jumpi\n      0x00\n      dup1\n      revert\n    tag_1:\n      pop\n      jumpi(tag_2, lt(calldatasize, 0x04))\n      shr(0xe0, calldataload(0x00))\n      dup1\n      0x70a08231\n      gt\n      tag_18\n      jumpi\n      dup1\n      0xc3336638\n      gt\n      tag_19\n      jumpi\n      dup1\n      0xc3336638\n      eq\n      tag_14\n      jumpi\n      dup1\n      0xdd62ed3e\n      eq\n      tag_15\n      jumpi\n      dup1\n      0xf1fb5d9d\n      eq\n      tag_16\n      jumpi\n      dup1\n      0xfaeae2f1\n      eq\n      tag_17\n      jumpi\n      jump(tag_2)\n    tag_19:\n      dup1\n      0x70a08231\n      eq\n      tag_10\n      jumpi\n      dup1\n      0x95d89b41\n      eq\n      tag_11\n      jumpi\n      dup1\n      0x9dc29fac\n      eq\n      tag_12\n      jumpi\n      dup1\n      0xa9059cbb\n      eq\n      tag_13\n      jumpi\n      jump(tag_2)\n    tag_18:\n      dup1\n      0x313ce567\n      gt\n      tag_20\n      jumpi\n      dup1\n      0x313ce567\n      eq\n      tag_6\n      jumpi\n      dup1\n      0x35c80c8c\n      eq\n      tag_7\n      jumpi\n      dup1\n      0x40c10f19\n      eq\n      tag_8\n      jumpi\n      dup1\n      0x63b0545f\n      eq\n      tag_9\n      jumpi\n      jump(tag_2)\n    tag_20:\n      dup1\n      0x06fdde03\n      eq\n      tag_3\n      jumpi\n      dup1\n      0x095ea7b3\n      eq\n      tag_4\n      jumpi\n      dup1\n      0x18160ddd\n      eq\n      tag_5\n      jumpi\n    tag_2:\n      0x00\n      dup1\n      revert\n        /* \"smart_contracts/contracts/DreamcatcherToken.sol\":5552:5665  function name() public view virtual returns (string memory) {... */\n    tag_3:\n      tag_21\n      tag_22\n      jump\t// in\n    tag_21:\n      mload(0x40)\n      tag_23\n      swap2\n      swap1\n      tag_24\n      jump\t// in\n    tag_23:\n      mload(0x40)\n      dup1\n      swap2\n      sub\n      swap1\n      return\n        /* \"smart_contracts/contracts/DreamcatcherToken.sol\":8477:8696  function approve(address spender, uint256 amount) public returns (bool) {... */\n    tag_4:\n      tag_25\n      0x04\n      dup1\n      calldatasize\n      sub\n      dup2\n      add\n      swap1\n      tag_26\n      swap2\n      swap1\n      tag_27\n      jump\t// in\n    tag_26:\n      tag_28\n      jump\t// in\n    tag_25:\n      mload(0x40)\n      tag_29\n      swap2\n      swap1\n      tag_30\n      jump\t// in\n    tag_29:\n      mload(0x40)\n      dup1\n      swap2\n      sub\n      swap1\n      return\n        /* \"smart_contracts/contracts/DreamcatcherToken.sol\":5913:6034  function totalSupply() public view virtual returns (uint256) {... */\n    tag_5:\n      tag_31\n      tag_32\n      jump\t// in\n    tag_31:\n      mload(0x40)\n      tag_33\n      swap2\n      swap1\n      tag_34\n      jump\t// in\n    tag_33:\n      mload(0x40)\n      dup1\n      swap2\n      sub\n      swap1\n      return\n        /* \"smart_contracts/contracts/DreamcatcherToken.sol\":5794:5907  function decimals() public view virtual returns (uint8) {... */\n    tag_6:\n      tag_35\n      tag_36\n      jump\t// in\n    tag_35:\n      mload(0x40)\n      tag_37\n      swap2\n      swap1\n      tag_38\n      jump\t// in\n    tag_37:\n      mload(0x40)\n      dup1\n      swap2\n      sub\n      swap1\n      return\n        /* \"smart_contracts/contracts/DreamcatcherToken.sol\":9270:9425  function isCustodian(address account) public view virtual returns (bool) {... */\n    tag_7:\n      tag_39\n      0x04\n      dup1\n      calldatasize\n      sub\n      dup2\n      add\n      swap1\n      tag_40\n      swap2\n      swap1\n      tag_41\n      jump\t// in\n    tag_40:\n      tag_42\n      jump\t// in\n    tag_39:\n      mload(0x40)\n      tag_43\n      swap2\n      swap1\n      tag_30\n      jump\t// in\n    tag_43:\n      mload(0x40)\n      dup1\n      swap2\n      sub\n      swap1\n      return\n        /* \"smart_contracts/contracts/DreamcatcherToken.sol\":6468:6741  function mint(address account, uint256 amount) public onlyCustodian {... */\n    tag_8:\n      tag_44\n      0x04\n      dup1\n      calldatasize\n      sub\n      dup2\n      add\n      swap1\n      tag_45\n      swap2\n      swap1\n      tag_27\n      jump\t// in\n    tag_45:\n      tag_46\n      jump\t// in\n    tag_44:\n      stop\n        /* \"smart_contracts/contracts/DreamcatcherToken.sol\":7717:8471  function transferfrom(... */\n    tag_9:\n      tag_47\n      0x04\n      dup1\n      calldatasize\n      sub\n      dup2\n      add\n      swap1\n      tag_48\n      swap2\n      swap1\n      tag_49\n      jump\t// in\n    tag_48:\n      tag_50\n      jump\t// in\n    tag_47:\n      mload(0x40)\n      tag_51\n      swap2\n      swap1\n      tag_30\n      jump\t// in\n    tag_51:\n      mload(0x40)\n      dup1\n      swap2\n      sub\n      swap1\n      return\n        /* \"smart_contracts/contracts/DreamcatcherToken.sol\":6040:6231  function balanceOf(address account) public view virtual returns (uint256) {... */\n    tag_10:\n      tag_52\n      0x04\n      dup1\n      calldatasize\n      sub\n      dup2\n      add\n      swap1\n      tag_53\n      swap2\n      swap1\n      tag_41\n      jump\t// in\n    tag_53:\n      tag_54\n      jump\t// in\n    tag_52:\n      mload(0x40)\n      tag_55\n      swap2\n      swap1\n      tag_34\n      jump\t// in\n    tag_55:\n      mload(0x40)\n      dup1\n      swap2\n      sub\n      swap1\n      return\n        /* \"smart_contracts/contracts/DreamcatcherToken.sol\":5671:5788  function symbol() public view virtual returns (string memory) {... */\n    tag_11:\n      tag_56\n      tag_57\n      jump\t// in\n    tag_56:\n      mload(0x40)\n      tag_58\n      swap2\n      swap1\n      tag_24\n      jump\t// in\n    tag_58:\n      mload(0x40)\n      dup1\n      swap2\n      sub\n      swap1\n      return\n        /* \"smart_contracts/contracts/DreamcatcherToken.sol\":6747:7020  function burn(address account, uint256 amount) public onlyCustodian {... */\n    tag_12:\n      tag_59\n      0x04\n      dup1\n      calldatasize\n      sub\n      dup2\n      add\n      swap1\n      tag_60\n      swap2\n      swap1\n      tag_27\n      jump\t// in\n    tag_60:\n      tag_61\n      jump\t// in\n    tag_59:\n      stop\n        /* \"smart_contracts/contracts/DreamcatcherToken.sol\":7208:7711  function transfer(address recipient, uint256 amount) public returns (bool) {... */\n    tag_13:\n      tag_62\n      0x04\n      dup1\n      calldatasize\n      sub\n      dup2\n      add\n      swap1\n      tag_63\n      swap2\n      swap1\n      tag_27\n      jump\t// in\n    tag_63:\n      tag_64\n      jump\t// in\n    tag_62:\n      mload(0x40)\n      tag_65\n      swap2\n      swap1\n      tag_30\n      jump\t// in\n    tag_65:\n      mload(0x40)\n      dup1\n      swap2\n      sub\n      swap1\n      return\n        /* \"smart_contracts/contracts/DreamcatcherToken.sol\":9431:9586  function isSyndicate(address account) public view virtual returns (bool) {... */\n    tag_14:\n      tag_66\n      0x04\n      dup1\n      calldatasize\n      sub\n      dup2\n      add\n      swap1\n      tag_67\n      swap2\n      swap1\n      tag_41\n      jump\t// in\n    tag_67:\n      tag_68\n      jump\t// in\n    tag_66:\n      mload(0x40)\n      tag_69\n      swap2\n      swap1\n      tag_30\n      jump\t// in\n    tag_69:\n      mload(0x40)\n      dup1\n      swap2\n      sub\n      swap1\n      return\n        /* \"smart_contracts/contracts/DreamcatcherToken.sol\":7026:7202  function allowance(address owner, address spender)... */\n    tag_15:\n      tag_70\n      0x04\n      dup1\n      calldatasize\n      sub\n      dup2\n      add\n      swap1\n      tag_71\n      swap2\n      swap1\n      tag_72\n      jump\t// in\n    tag_71:\n      tag_73\n      jump\t// in\n    tag_70:\n      mload(0x40)\n      tag_74\n      swap2\n      swap1\n      tag_34\n      jump\t// in\n    tag_74:\n      mload(0x40)\n      dup1\n      swap2\n      sub\n      swap1\n      return\n        /* \"smart_contracts/contracts/DreamcatcherToken.sol\":8769:9226  function toggleIsSyndicate(address account) public onlyCustodian {... */\n    tag_16:\n      tag_75\n      0x04\n      dup1\n      calldatasize\n      sub\n      dup2\n      add\n      swap1\n      tag_76\n      swap2\n      swap1\n      tag_41\n      jump\t// in\n    tag_76:\n      tag_77\n      jump\t// in\n    tag_75:\n      stop\n        /* \"smart_contracts/contracts/DreamcatcherToken.sol\":6237:6462  function votingWeightOf(address account)... */\n    tag_17:\n      tag_78\n      0x04\n      dup1\n      calldatasize\n      sub\n      dup2\n      add\n      swap1\n      tag_79\n      swap2\n      swap1\n      tag_41\n      jump\t// in\n    tag_79:\n      tag_80\n      jump\t// in\n    tag_78:\n      mload(0x40)\n      tag_81\n      swap2\n      swap1\n      tag_34\n      jump\t// in\n    tag_81:\n      mload(0x40)\n      dup1\n      swap2\n      sub\n      swap1\n      return\n        /* \"smart_contracts/contracts/DreamcatcherToken.sol\":5552:5665  function name() public view virtual returns (string memory) {... */\n    tag_22:\n        /* \"smart_contracts/contracts/DreamcatcherToken.sol\":5597:5610  string memory */\n      0x60\n        /* \"smart_contracts/contracts/DreamcatcherToken.sol\":5629:5646  dreamcatcherToken */\n      0x00\n        /* \"smart_contracts/contracts/DreamcatcherToken.sol\":5629:5653  dreamcatcherToken.IERC20 */\n      dup1\n      add\n        /* \"smart_contracts/contracts/DreamcatcherToken.sol\":5629:5658  dreamcatcherToken.IERC20.name */\n      0x00\n      add\n        /* \"smart_contracts/contracts/DreamcatcherToken.sol\":5622:5658  return dreamcatcherToken.IERC20.name */\n      dup1\n      sload\n      tag_83\n      swap1\n      tag_84\n      jump\t// in\n    tag_83:\n      dup1\n      0x1f\n      add\n      0x20\n      dup1\n      swap2\n      div\n      mul\n      0x20\n      add\n      mload(0x40)\n      swap1\n      dup2\n      add\n      0x40\n      mstore\n      dup1\n      swap3\n      swap2\n      swap1\n      dup2\n      dup2\n      mstore\n      0x20\n      add\n      dup3\n      dup1\n      sload\n      tag_85\n      swap1\n      tag_84\n      jump\t// in\n    tag_85:\n      dup1\n      iszero\n      tag_86\n      jumpi\n      dup1\n      0x1f\n      lt\n      tag_87\n      jumpi\n      0x0100\n      dup1\n      dup4\n      sload\n      div\n      mul\n      dup4\n      mstore\n      swap2\n      0x20\n      add\n      swap2\n      jump(tag_86)\n    tag_87:\n      dup3\n      add\n      swap2\n      swap1\n      0x00\n      mstore\n      keccak256(0x00, 0x20)\n      swap1\n    tag_88:\n      dup2\n      sload\n      dup2\n      mstore\n      swap1\n      0x01\n      add\n      swap1\n      0x20\n      add\n      dup1\n      dup4\n      gt\n      tag_88\n      jumpi\n      dup3\n      swap1\n      sub\n      0x1f\n      and\n      dup3\n      add\n      swap2\n    tag_86:\n      pop\n      pop\n      pop\n      pop\n      pop\n      swap1\n      pop\n        /* \"smart_contracts/contracts/DreamcatcherToken.sol\":5552:5665  function name() public view virtual returns (string memory) {... */\n      swap1\n      jump\t// out\n        /* \"smart_contracts/contracts/DreamcatcherToken.sol\":8477:8696  function approve(address spender, uint256 amount) public returns (bool) {... */\n    tag_28:\n        /* \"smart_contracts/contracts/DreamcatcherToken.sol\":8543:8547  bool */\n      0x00\n        /* \"smart_contracts/contracts/DreamcatcherToken.sol\":8610:8616  amount */\n      dup2\n        /* \"smart_contracts/contracts/DreamcatcherToken.sol\":8559:8576  dreamcatcherToken */\n      0x00\n        /* \"smart_contracts/contracts/DreamcatcherToken.sol\":8559:8586  dreamcatcherToken.allowance */\n      0x09\n      add\n        /* \"smart_contracts/contracts/DreamcatcherToken.sol\":8559:8598  dreamcatcherToken.allowance[msg.sender] */\n      0x00\n        /* \"smart_contracts/contracts/DreamcatcherToken.sol\":8587:8597  msg.sender */\n      caller\n        /* \"smart_contracts/contracts/DreamcatcherToken.sol\":8559:8598  dreamcatcherToken.allowance[msg.sender] */\n      0xffffffffffffffffffffffffffffffffffffffff\n      and\n      0xffffffffffffffffffffffffffffffffffffffff\n      and\n      dup2\n      mstore\n      0x20\n      add\n      swap1\n      dup2\n      mstore\n      0x20\n      add\n      0x00\n      keccak256\n        /* \"smart_contracts/contracts/DreamcatcherToken.sol\":8559:8607  dreamcatcherToken.allowance[msg.sender][spender] */\n      0x00\n        /* \"smart_contracts/contracts/DreamcatcherToken.sol\":8599:8606  spender */\n      dup6\n        /* \"smart_contracts/contracts/DreamcatcherToken.sol\":8559:8607  dreamcatcherToken.allowance[msg.sender][spender] */\n      0xffffffffffffffffffffffffffffffffffffffff\n      and\n      0xffffffffffffffffffffffffffffffffffffffff\n      and\n      dup2\n      mstore\n      0x20\n      add\n      swap1\n      dup2\n      mstore\n      0x20\n      add\n      0x00\n      keccak256\n        /* \"smart_contracts/contracts/DreamcatcherToken.sol\":8559:8616  dreamcatcherToken.allowance[msg.sender][spender] = amount */\n      dup2\n      swap1\n      sstore\n      pop\n        /* \"smart_contracts/contracts/DreamcatcherToken.sol\":8652:8659  spender */\n      dup3\n        /* \"smart_contracts/contracts/DreamcatcherToken.sol\":8631:8668  Approval(msg.sender, spender, amount) */\n      0xffffffffffffffffffffffffffffffffffffffff\n      and\n        /* \"smart_contracts/contracts/DreamcatcherToken.sol\":8640:8650  msg.sender */\n      caller\n        /* \"smart_contracts/contracts/DreamcatcherToken.sol\":8631:8668  Approval(msg.sender, spender, amount) */\n      0xffffffffffffffffffffffffffffffffffffffff\n      and\n      0x8c5be1e5ebec7d5bd14f71427d1e84f3dd0314c0f7b2291e5b200ac8c7c3b925\n        /* \"smart_contracts/contracts/DreamcatcherToken.sol\":8661:8667  amount */\n      dup5\n        /* \"smart_contracts/contracts/DreamcatcherToken.sol\":8631:8668  Approval(msg.sender, spender, amount) */\n      mload(0x40)\n      tag_90\n      swap2\n      swap1\n      tag_34\n      jump\t// in\n    tag_90:\n      mload(0x40)\n      dup1\n      swap2\n      sub\n      swap1\n      log3\n        /* \"smart_contracts/contracts/DreamcatcherToken.sol\":8685:8689  true */\n      0x01\n        /* \"smart_contracts/contracts/DreamcatcherToken.sol\":8678:8689  return true */\n      swap1\n      pop\n        /* \"smart_contracts/contracts/DreamcatcherToken.sol\":8477:8696  function approve(address spender, uint256 amount) public returns (bool) {... */\n      swap3\n      swap2\n      pop\n      pop\n      jump\t// out\n        /* \"smart_contracts/contracts/DreamcatcherToken.sol\":5913:6034  function totalSupply() public view virtual returns (uint256) {... */\n    tag_32:\n        /* \"smart_contracts/contracts/DreamcatcherToken.sol\":5965:5972  uint256 */\n      0x00\n        /* \"smart_contracts/contracts/DreamcatcherToken.sol\":5991:6008  dreamcatcherToken */\n      dup1\n        /* \"smart_contracts/contracts/DreamcatcherToken.sol\":5991:6015  dreamcatcherToken.IERC20 */\n      0x00\n      add\n        /* \"smart_contracts/contracts/DreamcatcherToken.sol\":5991:6027  dreamcatcherToken.IERC20.totalSupply */\n      0x03\n      add\n      sload\n        /* \"smart_contracts/contracts/DreamcatcherToken.sol\":5984:6027  return dreamcatcherToken.IERC20.totalSupply */\n      swap1\n      pop\n        /* \"smart_contracts/contracts/DreamcatcherToken.sol\":5913:6034  function totalSupply() public view virtual returns (uint256) {... */\n      swap1\n      jump\t// out\n        /* \"smart_contracts/contracts/DreamcatcherToken.sol\":5794:5907  function decimals() public view virtual returns (uint8) {... */\n    tag_36:\n        /* \"smart_contracts/contracts/DreamcatcherToken.sol\":5843:5848  uint8 */\n      0x00\n        /* \"smart_contracts/contracts/DreamcatcherToken.sol\":5867:5884  dreamcatcherToken */\n      dup1\n        /* \"smart_contracts/contracts/DreamcatcherToken.sol\":5867:5891  dreamcatcherToken.IERC20 */\n      0x00\n      add\n        /* \"smart_contracts/contracts/DreamcatcherToken.sol\":5867:5900  dreamcatcherToken.IERC20.decimals */\n      0x02\n      add\n      0x00\n      swap1\n      sload\n      swap1\n      0x0100\n      exp\n      swap1\n      div\n      0xff\n      and\n        /* \"smart_contracts/contracts/DreamcatcherToken.sol\":5860:5900  return dreamcatcherToken.IERC20.decimals */\n      swap1\n      pop\n        /* \"smart_contracts/contracts/DreamcatcherToken.sol\":5794:5907  function decimals() public view virtual returns (uint8) {... */\n      swap1\n      jump\t// out\n        /* \"smart_contracts/contracts/DreamcatcherToken.sol\":9270:9425  function isCustodian(address account) public view virtual returns (bool) {... */\n    tag_42:\n        /* \"smart_contracts/contracts/DreamcatcherToken.sol\":9337:9341  bool */\n      0x00\n        /* \"smart_contracts/contracts/DreamcatcherToken.sol\":9360:9377  dreamcatcherToken */\n      dup1\n        /* \"smart_contracts/contracts/DreamcatcherToken.sol\":9360:9397  dreamcatcherToken.addressStateToggles */\n      0x0b\n      add\n        /* \"smart_contracts/contracts/DreamcatcherToken.sol\":9360:9409  dreamcatcherToken.addressStateToggles.isCustodian */\n      0x00\n      add\n        /* \"smart_contracts/contracts/DreamcatcherToken.sol\":9360:9418  dreamcatcherToken.addressStateToggles.isCustodian[account] */\n      0x00\n        /* \"smart_contracts/contracts/DreamcatcherToken.sol\":9410:9417  account */\n      dup4\n        /* \"smart_contracts/contracts/DreamcatcherToken.sol\":9360:9418  dreamcatcherToken.addressStateToggles.isCustodian[account] */\n      0xffffffffffffffffffffffffffffffffffffffff\n      and\n      0xffffffffffffffffffffffffffffffffffffffff\n      and\n      dup2\n      mstore\n      0x20\n      add\n      swap1\n      dup2\n      mstore\n      0x20\n      add\n      0x00\n      keccak256\n      0x00\n      swap1\n      sload\n      swap1\n      0x0100\n      exp\n      swap1\n      div\n      0xff\n      and\n        /* \"smart_contracts/contracts/DreamcatcherToken.sol\":9353:9418  return dreamcatcherToken.addressStateToggles.isCustodian[account] */\n      swap1\n      pop\n        /* \"smart_contracts/contracts/DreamcatcherToken.sol\":9270:9425  function isCustodian(address account) public view virtual returns (bool) {... */\n      swap2\n      swap1\n      pop\n      jump\t// out\n        /* \"smart_contracts/contracts/DreamcatcherToken.sol\":6468:6741  function mint(address account, uint256 amount) public onlyCustodian {... */\n    tag_46:\n        /* \"smart_contracts/contracts/DreamcatcherToken.sol\":5183:5187  true */\n      0x01\n        /* \"smart_contracts/contracts/DreamcatcherToken.sol\":5102:5187  dreamcatcherToken.addressStateToggles.isCustodian[msg.sender] ==... */\n      iszero\n      iszero\n        /* \"smart_contracts/contracts/DreamcatcherToken.sol\":5102:5119  dreamcatcherToken */\n      0x00\n        /* \"smart_contracts/contracts/DreamcatcherToken.sol\":5102:5139  dreamcatcherToken.addressStateToggles */\n      0x0b\n      add\n        /* \"smart_contracts/contracts/DreamcatcherToken.sol\":5102:5151  dreamcatcherToken.addressStateToggles.isCustodian */\n      0x00\n      add\n        /* \"smart_contracts/contracts/DreamcatcherToken.sol\":5102:5163  dreamcatcherToken.addressStateToggles.isCustodian[msg.sender] */\n      0x00\n        /* \"smart_contracts/contracts/DreamcatcherToken.sol\":5152:5162  msg.sender */\n      caller\n        /* \"smart_contracts/contracts/DreamcatcherToken.sol\":5102:5163  dreamcatcherToken.addressStateToggles.isCustodian[msg.sender] */\n      0xffffffffffffffffffffffffffffffffffffffff\n      and\n      0xffffffffffffffffffffffffffffffffffffffff\n      and\n      dup2\n      mstore\n      0x20\n      add\n      swap1\n      dup2\n      mstore\n      0x20\n      add\n      0x00\n      keccak256\n      0x00\n      swap1\n      sload\n      swap1\n      0x0100\n      exp\n      swap1\n      div\n      0xff\n      and\n        /* \"smart_contracts/contracts/DreamcatcherToken.sol\":5102:5187  dreamcatcherToken.addressStateToggles.isCustodian[msg.sender] ==... */\n      iszero\n      iszero\n      eq\n        /* \"smart_contracts/contracts/DreamcatcherToken.sol\":5081:5248  require(... */\n      tag_95\n      jumpi\n      mload(0x40)\n      0x08c379a000000000000000000000000000000000000000000000000000000000\n      dup2\n      mstore\n      0x04\n      add\n      tag_96\n      swap1\n      tag_97\n      jump\t// in\n    tag_96:\n      mload(0x40)\n      dup1\n      swap2\n      sub\n      swap1\n      revert\n    tag_95:\n        /* \"smart_contracts/contracts/DreamcatcherToken.sol\":6584:6590  amount */\n      dup1\n        /* \"smart_contracts/contracts/DreamcatcherToken.sol\":6546:6563  dreamcatcherToken */\n      0x00\n        /* \"smart_contracts/contracts/DreamcatcherToken.sol\":6546:6571  dreamcatcherToken.balance */\n      0x05\n      add\n        /* \"smart_contracts/contracts/DreamcatcherToken.sol\":6546:6580  dreamcatcherToken.balance[account] */\n      0x00\n        /* \"smart_contracts/contracts/DreamcatcherToken.sol\":6572:6579  account */\n      dup5\n        /* \"smart_contracts/contracts/DreamcatcherToken.sol\":6546:6580  dreamcatcherToken.balance[account] */\n      0xffffffffffffffffffffffffffffffffffffffff\n      and\n      0xffffffffffffffffffffffffffffffffffffffff\n      and\n      dup2\n      mstore\n      0x20\n      add\n      swap1\n      dup2\n      mstore\n      0x20\n      add\n      0x00\n      keccak256\n      0x00\n        /* \"smart_contracts/contracts/DreamcatcherToken.sol\":6546:6590  dreamcatcherToken.balance[account] += amount */\n      dup3\n      dup3\n      sload\n      tag_99\n      swap2\n      swap1\n      tag_100\n      jump\t// in\n    tag_99:\n      swap3\n      pop\n      pop\n      dup2\n      swap1\n      sstore\n      pop\n        /* \"smart_contracts/contracts/DreamcatcherToken.sol\":6636:6642  amount */\n      dup1\n        /* \"smart_contracts/contracts/DreamcatcherToken.sol\":6600:6617  dreamcatcherToken */\n      0x00\n        /* \"smart_contracts/contracts/DreamcatcherToken.sol\":6600:6623  dreamcatcherToken.votes */\n      0x08\n      add\n        /* \"smart_contracts/contracts/DreamcatcherToken.sol\":6600:6632  dreamcatcherToken.votes[account] */\n      0x00\n        /* \"smart_contracts/contracts/DreamcatcherToken.sol\":6624:6631  account */\n      dup5\n        /* \"smart_contracts/contracts/DreamcatcherToken.sol\":6600:6632  dreamcatcherToken.votes[account] */\n      0xffffffffffffffffffffffffffffffffffffffff\n      and\n      0xffffffffffffffffffffffffffffffffffffffff\n      and\n      dup2\n      mstore\n      0x20\n      add\n      swap1\n      dup2\n      mstore\n      0x20\n      add\n      0x00\n      keccak256\n      0x00\n        /* \"smart_contracts/contracts/DreamcatcherToken.sol\":6600:6642  dreamcatcherToken.votes[account] += amount */\n      dup3\n      dup3\n      sload\n      tag_101\n      swap2\n      swap1\n      tag_100\n      jump\t// in\n    tag_101:\n      swap3\n      pop\n      pop\n      dup2\n      swap1\n      sstore\n      pop\n        /* \"smart_contracts/contracts/DreamcatcherToken.sol\":6692:6698  amount */\n      dup1\n        /* \"smart_contracts/contracts/DreamcatcherToken.sol\":6652:6669  dreamcatcherToken */\n      0x00\n        /* \"smart_contracts/contracts/DreamcatcherToken.sol\":6652:6676  dreamcatcherToken.IERC20 */\n      dup1\n      add\n        /* \"smart_contracts/contracts/DreamcatcherToken.sol\":6652:6688  dreamcatcherToken.IERC20.totalSupply */\n      0x03\n      add\n      0x00\n        /* \"smart_contracts/contracts/DreamcatcherToken.sol\":6652:6698  dreamcatcherToken.IERC20.totalSupply += amount */\n      dup3\n      dup3\n      sload\n      tag_102\n      swap2\n      swap1\n      tag_100\n      jump\t// in\n    tag_102:\n      swap3\n      pop\n      pop\n      dup2\n      swap1\n      sstore\n      pop\n        /* \"smart_contracts/contracts/DreamcatcherToken.sol\":6718:6725  account */\n      dup2\n        /* \"smart_contracts/contracts/DreamcatcherToken.sol\":6713:6734  Mint(account, amount) */\n      0xffffffffffffffffffffffffffffffffffffffff\n      and\n      0x0f6798a560793a54c3bcfe86a93cde1e73087d944c0ea20544137d4121396885\n        /* \"smart_contracts/contracts/DreamcatcherToken.sol\":6727:6733  amount */\n      dup3\n        /* \"smart_contracts/contracts/DreamcatcherToken.sol\":6713:6734  Mint(account, amount) */\n      mload(0x40)\n      tag_103\n      swap2\n      swap1\n      tag_34\n      jump\t// in\n    tag_103:\n      mload(0x40)\n      dup1\n      swap2\n      sub\n      swap1\n      log2\n        /* \"smart_contracts/contracts/DreamcatcherToken.sol\":6468:6741  function mint(address account, uint256 amount) public onlyCustodian {... */\n      pop\n      pop\n      jump\t// out\n        /* \"smart_contracts/contracts/DreamcatcherToken.sol\":7717:8471  function transferfrom(... */\n    tag_50:\n        /* \"smart_contracts/contracts/DreamcatcherToken.sol\":7836:7840  bool */\n      0x00\n        /* \"smart_contracts/contracts/DreamcatcherToken.sol\":7910:7916  amount */\n      dup2\n        /* \"smart_contracts/contracts/DreamcatcherToken.sol\":7873:7890  dreamcatcherToken */\n      0x00\n        /* \"smart_contracts/contracts/DreamcatcherToken.sol\":7873:7898  dreamcatcherToken.balance */\n      0x05\n      add\n        /* \"smart_contracts/contracts/DreamcatcherToken.sol\":7873:7906  dreamcatcherToken.balance[sender] */\n      0x00\n        /* \"smart_contracts/contracts/DreamcatcherToken.sol\":7899:7905  sender */\n      dup7\n        /* \"smart_contracts/contracts/DreamcatcherToken.sol\":7873:7906  dreamcatcherToken.balance[sender] */\n      0xffffffffffffffffffffffffffffffffffffffff\n      and\n      0xffffffffffffffffffffffffffffffffffffffff\n      and\n      dup2\n      mstore\n      0x20\n      add\n      swap1\n      dup2\n      mstore\n      0x20\n      add\n      0x00\n      keccak256\n      sload\n        /* \"smart_contracts/contracts/DreamcatcherToken.sol\":7873:7916  dreamcatcherToken.balance[sender] >= amount */\n      lt\n      iszero\n        /* \"smart_contracts/contracts/DreamcatcherToken.sol\":7852:7962  require(... */\n      tag_105\n      jumpi\n      mload(0x40)\n      0x08c379a000000000000000000000000000000000000000000000000000000000\n      dup2\n      mstore\n      0x04\n      add\n      tag_106\n      swap1\n      tag_107\n      jump\t// in\n    tag_106:\n      mload(0x40)\n      dup1\n      swap2\n      sub\n      swap1\n      revert\n    tag_105:\n        /* \"smart_contracts/contracts/DreamcatcherToken.sol\":8044:8050  amount */\n      dup2\n        /* \"smart_contracts/contracts/DreamcatcherToken.sol\":7993:8010  dreamcatcherToken */\n      0x00\n        /* \"smart_contracts/contracts/DreamcatcherToken.sol\":7993:8020  dreamcatcherToken.allowance */\n      0x09\n      add\n        /* \"smart_contracts/contracts/DreamcatcherToken.sol\":7993:8028  dreamcatcherToken.allowance[sender] */\n      0x00\n        /* \"smart_contracts/contracts/DreamcatcherToken.sol\":8021:8027  sender */\n      dup7\n        /* \"smart_contracts/contracts/DreamcatcherToken.sol\":7993:8028  dreamcatcherToken.allowance[sender] */\n      0xffffffffffffffffffffffffffffffffffffffff\n      and\n      0xffffffffffffffffffffffffffffffffffffffff\n      and\n      dup2\n      mstore\n      0x20\n      add\n      swap1\n      dup2\n      mstore\n      0x20\n      add\n      0x00\n      keccak256\n        /* \"smart_contracts/contracts/DreamcatcherToken.sol\":7993:8040  dreamcatcherToken.allowance[sender][msg.sender] */\n      0x00\n        /* \"smart_contracts/contracts/DreamcatcherToken.sol\":8029:8039  msg.sender */\n      caller\n        /* \"smart_contracts/contracts/DreamcatcherToken.sol\":7993:8040  dreamcatcherToken.allowance[sender][msg.sender] */\n      0xffffffffffffffffffffffffffffffffffffffff\n      and\n      0xffffffffffffffffffffffffffffffffffffffff\n      and\n      dup2\n      mstore\n      0x20\n      add\n      swap1\n      dup2\n      mstore\n      0x20\n      add\n      0x00\n      keccak256\n      sload\n        /* \"smart_contracts/contracts/DreamcatcherToken.sol\":7993:8050  dreamcatcherToken.allowance[sender][msg.sender] >= amount */\n      lt\n      iszero\n        /* \"smart_contracts/contracts/DreamcatcherToken.sol\":7972:8109  require(... */\n      tag_108\n      jumpi\n      mload(0x40)\n      0x08c379a000000000000000000000000000000000000000000000000000000000\n      dup2\n      mstore\n      0x04\n      add\n      tag_109\n      swap1\n      tag_110\n      jump\t// in\n    tag_109:\n      mload(0x40)\n      dup1\n      swap2\n      sub\n      swap1\n      revert\n    tag_108:\n        /* \"smart_contracts/contracts/DreamcatcherToken.sol\":8157:8163  amount */\n      dup2\n        /* \"smart_contracts/contracts/DreamcatcherToken.sol\":8120:8137  dreamcatcherToken */\n      0x00\n        /* \"smart_contracts/contracts/DreamcatcherToken.sol\":8120:8145  dreamcatcherToken.balance */\n      0x05\n      add\n        /* \"smart_contracts/contracts/DreamcatcherToken.sol\":8120:8153  dreamcatcherToken.balance[sender] */\n      0x00\n        /* \"smart_contracts/contracts/DreamcatcherToken.sol\":8146:8152  sender */\n      dup7\n        /* \"smart_contracts/contracts/DreamcatcherToken.sol\":8120:8153  dreamcatcherToken.balance[sender] */\n      0xffffffffffffffffffffffffffffffffffffffff\n      and\n      0xffffffffffffffffffffffffffffffffffffffff\n      and\n      dup2\n      mstore\n      0x20\n      add\n      swap1\n      dup2\n      mstore\n      0x20\n      add\n      0x00\n      keccak256\n      0x00\n        /* \"smart_contracts/contracts/DreamcatcherToken.sol\":8120:8163  dreamcatcherToken.balance[sender] -= amount */\n      dup3\n      dup3\n      sload\n      tag_111\n      swap2\n      swap1\n      tag_112\n      jump\t// in\n    tag_111:\n      swap3\n      pop\n      pop\n      dup2\n      swap1\n      sstore\n      pop\n        /* \"smart_contracts/contracts/DreamcatcherToken.sol\":8208:8214  amount */\n      dup2\n        /* \"smart_contracts/contracts/DreamcatcherToken.sol\":8173:8190  dreamcatcherToken */\n      0x00\n        /* \"smart_contracts/contracts/DreamcatcherToken.sol\":8173:8196  dreamcatcherToken.votes */\n      0x08\n      add\n        /* \"smart_contracts/contracts/DreamcatcherToken.sol\":8173:8204  dreamcatcherToken.votes[sender] */\n      0x00\n        /* \"smart_contracts/contracts/DreamcatcherToken.sol\":8197:8203  sender */\n      dup7\n        /* \"smart_contracts/contracts/DreamcatcherToken.sol\":8173:8204  dreamcatcherToken.votes[sender] */\n      0xffffffffffffffffffffffffffffffffffffffff\n      and\n      0xffffffffffffffffffffffffffffffffffffffff\n      and\n      dup2\n      mstore\n      0x20\n      add\n      swap1\n      dup2\n      mstore\n      0x20\n      add\n      0x00\n      keccak256\n      0x00\n        /* \"smart_contracts/contracts/DreamcatcherToken.sol\":8173:8214  dreamcatcherToken.votes[sender] -= amount */\n      dup3\n      dup3\n      sload\n      tag_113\n      swap2\n      swap1\n      tag_112\n      jump\t// in\n    tag_113:\n      swap3\n      pop\n      pop\n      dup2\n      swap1\n      sstore\n      pop\n        /* \"smart_contracts/contracts/DreamcatcherToken.sol\":8264:8270  amount */\n      dup2\n        /* \"smart_contracts/contracts/DreamcatcherToken.sol\":8224:8241  dreamcatcherToken */\n      0x00\n        /* \"smart_contracts/contracts/DreamcatcherToken.sol\":8224:8249  dreamcatcherToken.balance */\n      0x05\n      add\n        /* \"smart_contracts/contracts/DreamcatcherToken.sol\":8224:8260  dreamcatcherToken.balance[recipient] */\n      0x00\n        /* \"smart_contracts/contracts/DreamcatcherToken.sol\":8250:8259  recipient */\n      dup6\n        /* \"smart_contracts/contracts/DreamcatcherToken.sol\":8224:8260  dreamcatcherToken.balance[recipient] */\n      0xffffffffffffffffffffffffffffffffffffffff\n      and\n      0xffffffffffffffffffffffffffffffffffffffff\n      and\n      dup2\n      mstore\n      0x20\n      add\n      swap1\n      dup2\n      mstore\n      0x20\n      add\n      0x00\n      keccak256\n      0x00\n        /* \"smart_contracts/contracts/DreamcatcherToken.sol\":8224:8270  dreamcatcherToken.balance[recipient] += amount */\n      dup3\n      dup3\n      sload\n      tag_114\n      swap2\n      swap1\n      tag_100\n      jump\t// in\n    tag_114:\n      swap3\n      pop\n      pop\n      dup2\n      swap1\n      sstore\n      pop\n        /* \"smart_contracts/contracts/DreamcatcherToken.sol\":8318:8324  amount */\n      dup2\n        /* \"smart_contracts/contracts/DreamcatcherToken.sol\":8280:8297  dreamcatcherToken */\n      0x00\n        /* \"smart_contracts/contracts/DreamcatcherToken.sol\":8280:8303  dreamcatcherToken.votes */\n      0x08\n      add\n        /* \"smart_contracts/contracts/DreamcatcherToken.sol\":8280:8314  dreamcatcherToken.votes[recipient] */\n      0x00\n        /* \"smart_contracts/contracts/DreamcatcherToken.sol\":8304:8313  recipient */\n      dup6\n        /* \"smart_contracts/contracts/DreamcatcherToken.sol\":8280:8314  dreamcatcherToken.votes[recipient] */\n      0xffffffffffffffffffffffffffffffffffffffff\n      and\n      0xffffffffffffffffffffffffffffffffffffffff\n      and\n      dup2\n      mstore\n      0x20\n      add\n      swap1\n      dup2\n      mstore\n      0x20\n      add\n      0x00\n      keccak256\n      0x00\n        /* \"smart_contracts/contracts/DreamcatcherToken.sol\":8280:8324  dreamcatcherToken.votes[recipient] += amount */\n      dup3\n      dup3\n      sload\n      tag_115\n      swap2\n      swap1\n      tag_100\n      jump\t// in\n    tag_115:\n      swap3\n      pop\n      pop\n      dup2\n      swap1\n      sstore\n      pop\n        /* \"smart_contracts/contracts/DreamcatcherToken.sol\":8385:8391  amount */\n      dup2\n        /* \"smart_contracts/contracts/DreamcatcherToken.sol\":8334:8351  dreamcatcherToken */\n      0x00\n        /* \"smart_contracts/contracts/DreamcatcherToken.sol\":8334:8361  dreamcatcherToken.allowance */\n      0x09\n      add\n        /* \"smart_contracts/contracts/DreamcatcherToken.sol\":8334:8369  dreamcatcherToken.allowance[sender] */\n      0x00\n        /* \"smart_contracts/contracts/DreamcatcherToken.sol\":8362:8368  sender */\n      dup7\n        /* \"smart_contracts/contracts/DreamcatcherToken.sol\":8334:8369  dreamcatcherToken.allowance[sender] */\n      0xffffffffffffffffffffffffffffffffffffffff\n      and\n      0xffffffffffffffffffffffffffffffffffffffff\n      and\n      dup2\n      mstore\n      0x20\n      add\n      swap1\n      dup2\n      mstore\n      0x20\n      add\n      0x00\n      keccak256\n        /* \"smart_contracts/contracts/DreamcatcherToken.sol\":8334:8381  dreamcatcherToken.allowance[sender][msg.sender] */\n      0x00\n        /* \"smart_contracts/contracts/DreamcatcherToken.sol\":8370:8380  msg.sender */\n      caller\n        /* \"smart_contracts/contracts/DreamcatcherToken.sol\":8334:8381  dreamcatcherToken.allowance[sender][msg.sender] */\n      0xffffffffffffffffffffffffffffffffffffffff\n      and\n      0xffffffffffffffffffffffffffffffffffffffff\n      and\n      dup2\n      mstore\n      0x20\n      add\n      swap1\n      dup2\n      mstore\n      0x20\n      add\n      0x00\n      keccak256\n      0x00\n        /* \"smart_contracts/contracts/DreamcatcherToken.sol\":8334:8391  dreamcatcherToken.allowance[sender][msg.sender] -= amount */\n      dup3\n      dup3\n      sload\n      tag_116\n      swap2\n      swap1\n      tag_112\n      jump\t// in\n    tag_116:\n      swap3\n      pop\n      pop\n      dup2\n      swap1\n      sstore\n      pop\n        /* \"smart_contracts/contracts/DreamcatcherToken.sol\":8424:8433  recipient */\n      dup3\n        /* \"smart_contracts/contracts/DreamcatcherToken.sol\":8407:8442  Transfer(sender, recipient, amount) */\n      0xffffffffffffffffffffffffffffffffffffffff\n      and\n        /* \"smart_contracts/contracts/DreamcatcherToken.sol\":8416:8422  sender */\n      dup5\n        /* \"smart_contracts/contracts/DreamcatcherToken.sol\":8407:8442  Transfer(sender, recipient, amount) */\n      0xffffffffffffffffffffffffffffffffffffffff\n      and\n      0xddf252ad1be2c89b69c2b068fc378daa952ba7f163c4a11628f55a4df523b3ef\n        /* \"smart_contracts/contracts/DreamcatcherToken.sol\":8435:8441  amount */\n      dup5\n        /* \"smart_contracts/contracts/DreamcatcherToken.sol\":8407:8442  Transfer(sender, recipient, amount) */\n      mload(0x40)\n      tag_117\n      swap2\n      swap1\n      tag_34\n      jump\t// in\n    tag_117:\n      mload(0x40)\n      dup1\n      swap2\n      sub\n      swap1\n      log3\n        /* \"smart_contracts/contracts/DreamcatcherToken.sol\":8460:8464  true */\n      0x01\n        /* \"smart_contracts/contracts/DreamcatcherToken.sol\":8453:8464  return true */\n      swap1\n      pop\n        /* \"smart_contracts/contracts/DreamcatcherToken.sol\":7717:8471  function transferfrom(... */\n      swap4\n      swap3\n      pop\n      pop\n      pop\n      jump\t// out\n        /* \"smart_contracts/contracts/DreamcatcherToken.sol\":6040:6231  function balanceOf(address account) public view virtual returns (uint256) {... */\n    tag_54:\n        /* \"smart_contracts/contracts/DreamcatcherToken.sol\":6105:6112  uint256 */\n      0x00\n        /* \"smart_contracts/contracts/DreamcatcherToken.sol\":6190:6207  dreamcatcherToken */\n      dup1\n        /* \"smart_contracts/contracts/DreamcatcherToken.sol\":6190:6215  dreamcatcherToken.balance */\n      0x05\n      add\n        /* \"smart_contracts/contracts/DreamcatcherToken.sol\":6190:6224  dreamcatcherToken.balance[account] */\n      0x00\n        /* \"smart_contracts/contracts/DreamcatcherToken.sol\":6216:6223  account */\n      dup4\n        /* \"smart_contracts/contracts/DreamcatcherToken.sol\":6190:6224  dreamcatcherToken.balance[account] */\n      0xffffffffffffffffffffffffffffffffffffffff\n      and\n      0xffffffffffffffffffffffffffffffffffffffff\n      and\n      dup2\n      mstore\n      0x20\n      add\n      swap1\n      dup2\n      mstore\n      0x20\n      add\n      0x00\n      keccak256\n      sload\n        /* \"smart_contracts/contracts/DreamcatcherToken.sol\":6183:6224  return dreamcatcherToken.balance[account] */\n      swap1\n      pop\n        /* \"smart_contracts/contracts/DreamcatcherToken.sol\":6040:6231  function balanceOf(address account) public view virtual returns (uint256) {... */\n      swap2\n      swap1\n      pop\n      jump\t// out\n        /* \"smart_contracts/contracts/DreamcatcherToken.sol\":5671:5788  function symbol() public view virtual returns (string memory) {... */\n    tag_57:\n        /* \"smart_contracts/contracts/DreamcatcherToken.sol\":5718:5731  string memory */\n      0x60\n        /* \"smart_contracts/contracts/DreamcatcherToken.sol\":5750:5767  dreamcatcherToken */\n      0x00\n        /* \"smart_contracts/contracts/DreamcatcherToken.sol\":5750:5774  dreamcatcherToken.IERC20 */\n      dup1\n      add\n        /* \"smart_contracts/contracts/DreamcatcherToken.sol\":5750:5781  dreamcatcherToken.IERC20.symbol */\n      0x01\n      add\n        /* \"smart_contracts/contracts/DreamcatcherToken.sol\":5743:5781  return dreamcatcherToken.IERC20.symbol */\n      dup1\n      sload\n      tag_120\n      swap1\n      tag_84\n      jump\t// in\n    tag_120:\n      dup1\n      0x1f\n      add\n      0x20\n      dup1\n      swap2\n      div\n      mul\n      0x20\n      add\n      mload(0x40)\n      swap1\n      dup2\n      add\n      0x40\n      mstore\n      dup1\n      swap3\n      swap2\n      swap1\n      dup2\n      dup2\n      mstore\n      0x20\n      add\n      dup3\n      dup1\n      sload\n      tag_121\n      swap1\n      tag_84\n      jump\t// in\n    tag_121:\n      dup1\n      iszero\n      tag_122\n      jumpi\n      dup1\n      0x1f\n      lt\n      tag_123\n      jumpi\n      0x0100\n      dup1\n      dup4\n      sload\n      div\n      mul\n      dup4\n      mstore\n      swap2\n      0x20\n      add\n      swap2\n      jump(tag_122)\n    tag_123:\n      dup3\n      add\n      swap2\n      swap1\n      0x00\n      mstore\n      keccak256(0x00, 0x20)\n      swap1\n    tag_124:\n      dup2\n      sload\n      dup2\n      mstore\n      swap1\n      0x01\n      add\n      swap1\n      0x20\n      add\n      dup1\n      dup4\n      gt\n      tag_124\n      jumpi\n      dup3\n      swap1\n      sub\n      0x1f\n      and\n      dup3\n      add\n      swap2\n    tag_122:\n      pop\n      pop\n      pop\n      pop\n      pop\n      swap1\n      pop\n        /* \"smart_contracts/contracts/DreamcatcherToken.sol\":5671:5788  function symbol() public view virtual returns (string memory) {... */\n      swap1\n      jump\t// out\n        /* \"smart_contracts/contracts/DreamcatcherToken.sol\":6747:7020  function burn(address account, uint256 amount) public onlyCustodian {... */\n    tag_61:\n        /* \"smart_contracts/contracts/DreamcatcherToken.sol\":5183:5187  true */\n      0x01\n        /* \"smart_contracts/contracts/DreamcatcherToken.sol\":5102:5187  dreamcatcherToken.addressStateToggles.isCustodian[msg.sender] ==... */\n      iszero\n      iszero\n        /* \"smart_contracts/contracts/DreamcatcherToken.sol\":5102:5119  dreamcatcherToken */\n      0x00\n        /* \"smart_contracts/contracts/DreamcatcherToken.sol\":5102:5139  dreamcatcherToken.addressStateToggles */\n      0x0b\n      add\n        /* \"smart_contracts/contracts/DreamcatcherToken.sol\":5102:5151  dreamcatcherToken.addressStateToggles.isCustodian */\n      0x00\n      add\n        /* \"smart_contracts/contracts/DreamcatcherToken.sol\":5102:5163  dreamcatcherToken.addressStateToggles.isCustodian[msg.sender] */\n      0x00\n        /* \"smart_contracts/contracts/DreamcatcherToken.sol\":5152:5162  msg.sender */\n      caller\n        /* \"smart_contracts/contracts/DreamcatcherToken.sol\":5102:5163  dreamcatcherToken.addressStateToggles.isCustodian[msg.sender] */\n      0xffffffffffffffffffffffffffffffffffffffff\n      and\n      0xffffffffffffffffffffffffffffffffffffffff\n      and\n      dup2\n      mstore\n      0x20\n      add\n      swap1\n      dup2\n      mstore\n      0x20\n      add\n      0x00\n      keccak256\n      0x00\n      swap1\n      sload\n      swap1\n      0x0100\n      exp\n      swap1\n      div\n      0xff\n      and\n        /* \"smart_contracts/contracts/DreamcatcherToken.sol\":5102:5187  dreamcatcherToken.addressStateToggles.isCustodian[msg.sender] ==... */\n      iszero\n      iszero\n      eq\n        /* \"smart_contracts/contracts/DreamcatcherToken.sol\":5081:5248  require(... */\n      tag_126\n      jumpi\n      mload(0x40)\n      0x08c379a000000000000000000000000000000000000000000000000000000000\n      dup2\n      mstore\n      0x04\n      add\n      tag_127\n      swap1\n      tag_97\n      jump\t// in\n    tag_127:\n      mload(0x40)\n      dup1\n      swap2\n      sub\n      swap1\n      revert\n    tag_126:\n        /* \"smart_contracts/contracts/DreamcatcherToken.sol\":6863:6869  amount */\n      dup1\n        /* \"smart_contracts/contracts/DreamcatcherToken.sol\":6825:6842  dreamcatcherToken */\n      0x00\n        /* \"smart_contracts/contracts/DreamcatcherToken.sol\":6825:6850  dreamcatcherToken.balance */\n      0x05\n      add\n        /* \"smart_contracts/contracts/DreamcatcherToken.sol\":6825:6859  dreamcatcherToken.balance[account] */\n      0x00\n        /* \"smart_contracts/contracts/DreamcatcherToken.sol\":6851:6858  account */\n      dup5\n        /* \"smart_contracts/contracts/DreamcatcherToken.sol\":6825:6859  dreamcatcherToken.balance[account] */\n      0xffffffffffffffffffffffffffffffffffffffff\n      and\n      0xffffffffffffffffffffffffffffffffffffffff\n      and\n      dup2\n      mstore\n      0x20\n      add\n      swap1\n      dup2\n      mstore\n      0x20\n      add\n      0x00\n      keccak256\n      0x00\n        /* \"smart_contracts/contracts/DreamcatcherToken.sol\":6825:6869  dreamcatcherToken.balance[account] -= amount */\n      dup3\n      dup3\n      sload\n      tag_129\n      swap2\n      swap1\n      tag_112\n      jump\t// in\n    tag_129:\n      swap3\n      pop\n      pop\n      dup2\n      swap1\n      sstore\n      pop\n        /* \"smart_contracts/contracts/DreamcatcherToken.sol\":6915:6921  amount */\n      dup1\n        /* \"smart_contracts/contracts/DreamcatcherToken.sol\":6879:6896  dreamcatcherToken */\n      0x00\n        /* \"smart_contracts/contracts/DreamcatcherToken.sol\":6879:6902  dreamcatcherToken.votes */\n      0x08\n      add\n        /* \"smart_contracts/contracts/DreamcatcherToken.sol\":6879:6911  dreamcatcherToken.votes[account] */\n      0x00\n        /* \"smart_contracts/contracts/DreamcatcherToken.sol\":6903:6910  account */\n      dup5\n        /* \"smart_contracts/contracts/DreamcatcherToken.sol\":6879:6911  dreamcatcherToken.votes[account] */\n      0xffffffffffffffffffffffffffffffffffffffff\n      and\n      0xffffffffffffffffffffffffffffffffffffffff\n      and\n      dup2\n      mstore\n      0x20\n      add\n      swap1\n      dup2\n      mstore\n      0x20\n      add\n      0x00\n      keccak256\n      0x00\n        /* \"smart_contracts/contracts/DreamcatcherToken.sol\":6879:6921  dreamcatcherToken.votes[account] -= amount */\n      dup3\n      dup3\n      sload\n      tag_130\n      swap2\n      swap1\n      tag_112\n      jump\t// in\n    tag_130:\n      swap3\n      pop\n      pop\n      dup2\n      swap1\n      sstore\n      pop\n        /* \"smart_contracts/contracts/DreamcatcherToken.sol\":6971:6977  amount */\n      dup1\n        /* \"smart_contracts/contracts/DreamcatcherToken.sol\":6931:6948  dreamcatcherToken */\n      0x00\n        /* \"smart_contracts/contracts/DreamcatcherToken.sol\":6931:6955  dreamcatcherToken.IERC20 */\n      dup1\n      add\n        /* \"smart_contracts/contracts/DreamcatcherToken.sol\":6931:6967  dreamcatcherToken.IERC20.totalSupply */\n      0x03\n      add\n      0x00\n        /* \"smart_contracts/contracts/DreamcatcherToken.sol\":6931:6977  dreamcatcherToken.IERC20.totalSupply -= amount */\n      dup3\n      dup3\n      sload\n      tag_131\n      swap2\n      swap1\n      tag_112\n      jump\t// in\n    tag_131:\n      swap3\n      pop\n      pop\n      dup2\n      swap1\n      sstore\n      pop\n        /* \"smart_contracts/contracts/DreamcatcherToken.sol\":6997:7004  account */\n      dup2\n        /* \"smart_contracts/contracts/DreamcatcherToken.sol\":6992:7013  Burn(account, amount) */\n      0xffffffffffffffffffffffffffffffffffffffff\n      and\n      0xcc16f5dbb4873280815c1ee09dbd06736cffcc184412cf7a71a0fdb75d397ca5\n        /* \"smart_contracts/contracts/DreamcatcherToken.sol\":7006:7012  amount */\n      dup3\n        /* \"smart_contracts/contracts/DreamcatcherToken.sol\":6992:7013  Burn(account, amount) */\n      mload(0x40)\n      tag_132\n      swap2\n      swap1\n      tag_34\n      jump\t// in\n    tag_132:\n      mload(0x40)\n      dup1\n      swap2\n      sub\n      swap1\n      log2\n        /* \"smart_contracts/contracts/DreamcatcherToken.sol\":6747:7020  function burn(address account, uint256 amount) public onlyCustodian {... */\n      pop\n      pop\n      jump\t// out\n        /* \"smart_contracts/contracts/DreamcatcherToken.sol\":7208:7711  function transfer(address recipient, uint256 amount) public returns (bool) {... */\n    tag_64:\n        /* \"smart_contracts/contracts/DreamcatcherToken.sol\":7277:7281  bool */\n      0x00\n        /* \"smart_contracts/contracts/DreamcatcherToken.sol\":7355:7361  amount */\n      dup2\n        /* \"smart_contracts/contracts/DreamcatcherToken.sol\":7314:7331  dreamcatcherToken */\n      0x00\n        /* \"smart_contracts/contracts/DreamcatcherToken.sol\":7314:7339  dreamcatcherToken.balance */\n      0x05\n      add\n        /* \"smart_contracts/contracts/DreamcatcherToken.sol\":7314:7351  dreamcatcherToken.balance[msg.sender] */\n      0x00\n        /* \"smart_contracts/contracts/DreamcatcherToken.sol\":7340:7350  msg.sender */\n      caller\n        /* \"smart_contracts/contracts/DreamcatcherToken.sol\":7314:7351  dreamcatcherToken.balance[msg.sender] */\n      0xffffffffffffffffffffffffffffffffffffffff\n      and\n      0xffffffffffffffffffffffffffffffffffffffff\n      and\n      dup2\n      mstore\n      0x20\n      add\n      swap1\n      dup2\n      mstore\n      0x20\n      add\n      0x00\n      keccak256\n      sload\n        /* \"smart_contracts/contracts/DreamcatcherToken.sol\":7314:7361  dreamcatcherToken.balance[msg.sender] >= amount */\n      lt\n      iszero\n        /* \"smart_contracts/contracts/DreamcatcherToken.sol\":7293:7407  require(... */\n      tag_134\n      jumpi\n      mload(0x40)\n      0x08c379a000000000000000000000000000000000000000000000000000000000\n      dup2\n      mstore\n      0x04\n      add\n      tag_135\n      swap1\n      tag_107\n      jump\t// in\n    tag_135:\n      mload(0x40)\n      dup1\n      swap2\n      sub\n      swap1\n      revert\n    tag_134:\n        /* \"smart_contracts/contracts/DreamcatcherToken.sol\":7458:7464  amount */\n      dup2\n        /* \"smart_contracts/contracts/DreamcatcherToken.sol\":7417:7434  dreamcatcherToken */\n      0x00\n        /* \"smart_contracts/contracts/DreamcatcherToken.sol\":7417:7442  dreamcatcherToken.balance */\n      0x05\n      add\n        /* \"smart_contracts/contracts/DreamcatcherToken.sol\":7417:7454  dreamcatcherToken.balance[msg.sender] */\n      0x00\n        /* \"smart_contracts/contracts/DreamcatcherToken.sol\":7443:7453  msg.sender */\n      caller\n        /* \"smart_contracts/contracts/DreamcatcherToken.sol\":7417:7454  dreamcatcherToken.balance[msg.sender] */\n      0xffffffffffffffffffffffffffffffffffffffff\n      and\n      0xffffffffffffffffffffffffffffffffffffffff\n      and\n      dup2\n      mstore\n      0x20\n      add\n      swap1\n      dup2\n      mstore\n      0x20\n      add\n      0x00\n      keccak256\n      0x00\n        /* \"smart_contracts/contracts/DreamcatcherToken.sol\":7417:7464  dreamcatcherToken.balance[msg.sender] -= amount */\n      dup3\n      dup3\n      sload\n      tag_136\n      swap2\n      swap1\n      tag_112\n      jump\t// in\n    tag_136:\n      swap3\n      pop\n      pop\n      dup2\n      swap1\n      sstore\n      pop\n        /* \"smart_contracts/contracts/DreamcatcherToken.sol\":7513:7519  amount */\n      dup2\n        /* \"smart_contracts/contracts/DreamcatcherToken.sol\":7474:7491  dreamcatcherToken */\n      0x00\n        /* \"smart_contracts/contracts/DreamcatcherToken.sol\":7474:7497  dreamcatcherToken.votes */\n      0x08\n      add\n        /* \"smart_contracts/contracts/DreamcatcherToken.sol\":7474:7509  dreamcatcherToken.votes[msg.sender] */\n      0x00\n        /* \"smart_contracts/contracts/DreamcatcherToken.sol\":7498:7508  msg.sender */\n      caller\n        /* \"smart_contracts/contracts/DreamcatcherToken.sol\":7474:7509  dreamcatcherToken.votes[msg.sender] */\n      0xffffffffffffffffffffffffffffffffffffffff\n      and\n      0xffffffffffffffffffffffffffffffffffffffff\n      and\n      dup2\n      mstore\n      0x20\n      add\n      swap1\n      dup2\n      mstore\n      0x20\n      add\n      0x00\n      keccak256\n      0x00\n        /* \"smart_contracts/contracts/DreamcatcherToken.sol\":7474:7519  dreamcatcherToken.votes[msg.sender] -= amount */\n      dup3\n      dup3\n      sload\n      tag_137\n      swap2\n      swap1\n      tag_112\n      jump\t// in\n    tag_137:\n      swap3\n      pop\n      pop\n      dup2\n      swap1\n      sstore\n      pop\n        /* \"smart_contracts/contracts/DreamcatcherToken.sol\":7569:7575  amount */\n      dup2\n        /* \"smart_contracts/contracts/DreamcatcherToken.sol\":7529:7546  dreamcatcherToken */\n      0x00\n        /* \"smart_contracts/contracts/DreamcatcherToken.sol\":7529:7554  dreamcatcherToken.balance */\n      0x05\n      add\n        /* \"smart_contracts/contracts/DreamcatcherToken.sol\":7529:7565  dreamcatcherToken.balance[recipient] */\n      0x00\n        /* \"smart_contracts/contracts/DreamcatcherToken.sol\":7555:7564  recipient */\n      dup6\n        /* \"smart_contracts/contracts/DreamcatcherToken.sol\":7529:7565  dreamcatcherToken.balance[recipient] */\n      0xffffffffffffffffffffffffffffffffffffffff\n      and\n      0xffffffffffffffffffffffffffffffffffffffff\n      and\n      dup2\n      mstore\n      0x20\n      add\n      swap1\n      dup2\n      mstore\n      0x20\n      add\n      0x00\n      keccak256\n      0x00\n        /* \"smart_contracts/contracts/DreamcatcherToken.sol\":7529:7575  dreamcatcherToken.balance[recipient] += amount */\n      dup3\n      dup3\n      sload\n      tag_138\n      swap2\n      swap1\n      tag_100\n      jump\t// in\n    tag_138:\n      swap3\n      pop\n      pop\n      dup2\n      swap1\n      sstore\n      pop\n        /* \"smart_contracts/contracts/DreamcatcherToken.sol\":7623:7629  amount */\n      dup2\n        /* \"smart_contracts/contracts/DreamcatcherToken.sol\":7585:7602  dreamcatcherToken */\n      0x00\n        /* \"smart_contracts/contracts/DreamcatcherToken.sol\":7585:7608  dreamcatcherToken.votes */\n      0x08\n      add\n        /* \"smart_contracts/contracts/DreamcatcherToken.sol\":7585:7619  dreamcatcherToken.votes[recipient] */\n      0x00\n        /* \"smart_contracts/contracts/DreamcatcherToken.sol\":7609:7618  recipient */\n      dup6\n        /* \"smart_contracts/contracts/DreamcatcherToken.sol\":7585:7619  dreamcatcherToken.votes[recipient] */\n      0xffffffffffffffffffffffffffffffffffffffff\n      and\n      0xffffffffffffffffffffffffffffffffffffffff\n      and\n      dup2\n      mstore\n      0x20\n      add\n      swap1\n      dup2\n      mstore\n      0x20\n      add\n      0x00\n      keccak256\n      0x00\n        /* \"smart_contracts/contracts/DreamcatcherToken.sol\":7585:7629  dreamcatcherToken.votes[recipient] += amount */\n      dup3\n      dup3\n      sload\n      tag_139\n      swap2\n      swap1\n      tag_100\n      jump\t// in\n    tag_139:\n      swap3\n      pop\n      pop\n      dup2\n      swap1\n      sstore\n      pop\n        /* \"smart_contracts/contracts/DreamcatcherToken.sol\":7665:7674  recipient */\n      dup3\n        /* \"smart_contracts/contracts/DreamcatcherToken.sol\":7644:7683  Transfer(msg.sender, recipient, amount) */\n      0xffffffffffffffffffffffffffffffffffffffff\n      and\n        /* \"smart_contracts/contracts/DreamcatcherToken.sol\":7653:7663  msg.sender */\n      caller\n        /* \"smart_contracts/contracts/DreamcatcherToken.sol\":7644:7683  Transfer(msg.sender, recipient, amount) */\n      0xffffffffffffffffffffffffffffffffffffffff\n      and\n      0xddf252ad1be2c89b69c2b068fc378daa952ba7f163c4a11628f55a4df523b3ef\n        /* \"smart_contracts/contracts/DreamcatcherToken.sol\":7676:7682  amount */\n      dup5\n        /* \"smart_contracts/contracts/DreamcatcherToken.sol\":7644:7683  Transfer(msg.sender, recipient, amount) */\n      mload(0x40)\n      tag_140\n      swap2\n      swap1\n      tag_34\n      jump\t// in\n    tag_140:\n      mload(0x40)\n      dup1\n      swap2\n      sub\n      swap1\n      log3\n        /* \"smart_contracts/contracts/DreamcatcherToken.sol\":7700:7704  true */\n      0x01\n        /* \"smart_contracts/contracts/DreamcatcherToken.sol\":7693:7704  return true */\n      swap1\n      pop\n        /* \"smart_contracts/contracts/DreamcatcherToken.sol\":7208:7711  function transfer(address recipient, uint256 amount) public returns (bool) {... */\n      swap3\n      swap2\n      pop\n      pop\n      jump\t// out\n        /* \"smart_contracts/contracts/DreamcatcherToken.sol\":9431:9586  function isSyndicate(address account) public view virtual returns (bool) {... */\n    tag_68:\n        /* \"smart_contracts/contracts/DreamcatcherToken.sol\":9498:9502  bool */\n      0x00\n        /* \"smart_contracts/contracts/DreamcatcherToken.sol\":9521:9538  dreamcatcherToken */\n      dup1\n        /* \"smart_contracts/contracts/DreamcatcherToken.sol\":9521:9558  dreamcatcherToken.addressStateToggles */\n      0x0b\n      add\n        /* \"smart_contracts/contracts/DreamcatcherToken.sol\":9521:9570  dreamcatcherToken.addressStateToggles.isSyndicate */\n      0x01\n      add\n        /* \"smart_contracts/contracts/DreamcatcherToken.sol\":9521:9579  dreamcatcherToken.addressStateToggles.isSyndicate[account] */\n      0x00\n        /* \"smart_contracts/contracts/DreamcatcherToken.sol\":9571:9578  account */\n      dup4\n        /* \"smart_contracts/contracts/DreamcatcherToken.sol\":9521:9579  dreamcatcherToken.addressStateToggles.isSyndicate[account] */\n      0xffffffffffffffffffffffffffffffffffffffff\n      and\n      0xffffffffffffffffffffffffffffffffffffffff\n      and\n      dup2\n      mstore\n      0x20\n      add\n      swap1\n      dup2\n      mstore\n      0x20\n      add\n      0x00\n      keccak256\n      0x00\n      swap1\n      sload\n      swap1\n      0x0100\n      exp\n      swap1\n      div\n      0xff\n      and\n        /* \"smart_contracts/contracts/DreamcatcherToken.sol\":9514:9579  return dreamcatcherToken.addressStateToggles.isSyndicate[account] */\n      swap1\n      pop\n        /* \"smart_contracts/contracts/DreamcatcherToken.sol\":9431:9586  function isSyndicate(address account) public view virtual returns (bool) {... */\n      swap2\n      swap1\n      pop\n      jump\t// out\n        /* \"smart_contracts/contracts/DreamcatcherToken.sol\":7026:7202  function allowance(address owner, address spender)... */\n    tag_73:\n        /* \"smart_contracts/contracts/DreamcatcherToken.sol\":7122:7129  uint256 */\n      0x00\n        /* \"smart_contracts/contracts/DreamcatcherToken.sol\":7152:7169  dreamcatcherToken */\n      dup1\n        /* \"smart_contracts/contracts/DreamcatcherToken.sol\":7152:7179  dreamcatcherToken.allowance */\n      0x09\n      add\n        /* \"smart_contracts/contracts/DreamcatcherToken.sol\":7152:7186  dreamcatcherToken.allowance[owner] */\n      0x00\n        /* \"smart_contracts/contracts/DreamcatcherToken.sol\":7180:7185  owner */\n      dup5\n        /* \"smart_contracts/contracts/DreamcatcherToken.sol\":7152:7186  dreamcatcherToken.allowance[owner] */\n      0xffffffffffffffffffffffffffffffffffffffff\n      and\n      0xffffffffffffffffffffffffffffffffffffffff\n      and\n      dup2\n      mstore\n      0x20\n      add\n      swap1\n      dup2\n      mstore\n      0x20\n      add\n      0x00\n      keccak256\n        /* \"smart_contracts/contracts/DreamcatcherToken.sol\":7152:7195  dreamcatcherToken.allowance[owner][spender] */\n      0x00\n        /* \"smart_contracts/contracts/DreamcatcherToken.sol\":7187:7194  spender */\n      dup4\n        /* \"smart_contracts/contracts/DreamcatcherToken.sol\":7152:7195  dreamcatcherToken.allowance[owner][spender] */\n      0xffffffffffffffffffffffffffffffffffffffff\n      and\n      0xffffffffffffffffffffffffffffffffffffffff\n      and\n      dup2\n      mstore\n      0x20\n      add\n      swap1\n      dup2\n      mstore\n      0x20\n      add\n      0x00\n      keccak256\n      sload\n        /* \"smart_contracts/contracts/DreamcatcherToken.sol\":7145:7195  return dreamcatcherToken.allowance[owner][spender] */\n      swap1\n      pop\n        /* \"smart_contracts/contracts/DreamcatcherToken.sol\":7026:7202  function allowance(address owner, address spender)... */\n      swap3\n      swap2\n      pop\n      pop\n      jump\t// out\n        /* \"smart_contracts/contracts/DreamcatcherToken.sol\":8769:9226  function toggleIsSyndicate(address account) public onlyCustodian {... */\n    tag_77:\n        /* \"smart_contracts/contracts/DreamcatcherToken.sol\":5183:5187  true */\n      0x01\n        /* \"smart_contracts/contracts/DreamcatcherToken.sol\":5102:5187  dreamcatcherToken.addressStateToggles.isCustodian[msg.sender] ==... */\n      iszero\n      iszero\n        /* \"smart_contracts/contracts/DreamcatcherToken.sol\":5102:5119  dreamcatcherToken */\n      0x00\n        /* \"smart_contracts/contracts/DreamcatcherToken.sol\":5102:5139  dreamcatcherToken.addressStateToggles */\n      0x0b\n      add\n        /* \"smart_contracts/contracts/DreamcatcherToken.sol\":5102:5151  dreamcatcherToken.addressStateToggles.isCustodian */\n      0x00\n      add\n        /* \"smart_contracts/contracts/DreamcatcherToken.sol\":5102:5163  dreamcatcherToken.addressStateToggles.isCustodian[msg.sender] */\n      0x00\n        /* \"smart_contracts/contracts/DreamcatcherToken.sol\":5152:5162  msg.sender */\n      caller\n        /* \"smart_contracts/contracts/DreamcatcherToken.sol\":5102:5163  dreamcatcherToken.addressStateToggles.isCustodian[msg.sender] */\n      0xffffffffffffffffffffffffffffffffffffffff\n      and\n      0xffffffffffffffffffffffffffffffffffffffff\n      and\n      dup2\n      mstore\n      0x20\n      add\n      swap1\n      dup2\n      mstore\n      0x20\n      add\n      0x00\n      keccak256\n      0x00\n      swap1\n      sload\n      swap1\n      0x0100\n      exp\n      swap1\n      div\n      0xff\n      and\n        /* \"smart_contracts/contracts/DreamcatcherToken.sol\":5102:5187  dreamcatcherToken.addressStateToggles.isCustodian[msg.sender] ==... */\n      iszero\n      iszero\n      eq\n        /* \"smart_contracts/contracts/DreamcatcherToken.sol\":5081:5248  require(... */\n      tag_144\n      jumpi\n      mload(0x40)\n      0x08c379a000000000000000000000000000000000000000000000000000000000\n      dup2\n      mstore\n      0x04\n      add\n      tag_145\n      swap1\n      tag_97\n      jump\t// in\n    tag_145:\n      mload(0x40)\n      dup1\n      swap2\n      sub\n      swap1\n      revert\n    tag_144:\n        /* \"smart_contracts/contracts/DreamcatcherToken.sol\":8923:8927  true */\n      0x01\n        /* \"smart_contracts/contracts/DreamcatcherToken.sol\":8861:8927  dreamcatcherToken.addressStateToggles.isSyndicate[account] == true */\n      iszero\n      iszero\n        /* \"smart_contracts/contracts/DreamcatcherToken.sol\":8861:8878  dreamcatcherToken */\n      0x00\n        /* \"smart_contracts/contracts/DreamcatcherToken.sol\":8861:8898  dreamcatcherToken.addressStateToggles */\n      0x0b\n      add\n        /* \"smart_contracts/contracts/DreamcatcherToken.sol\":8861:8910  dreamcatcherToken.addressStateToggles.isSyndicate */\n      0x01\n      add\n        /* \"smart_contracts/contracts/DreamcatcherToken.sol\":8861:8919  dreamcatcherToken.addressStateToggles.isSyndicate[account] */\n      0x00\n        /* \"smart_contracts/contracts/DreamcatcherToken.sol\":8911:8918  account */\n      dup4\n        /* \"smart_contracts/contracts/DreamcatcherToken.sol\":8861:8919  dreamcatcherToken.addressStateToggles.isSyndicate[account] */\n      0xffffffffffffffffffffffffffffffffffffffff\n      and\n      0xffffffffffffffffffffffffffffffffffffffff\n      and\n      dup2\n      mstore\n      0x20\n      add\n      swap1\n      dup2\n      mstore\n      0x20\n      add\n      0x00\n      keccak256\n      0x00\n      swap1\n      sload\n      swap1\n      0x0100\n      exp\n      swap1\n      div\n      0xff\n      and\n        /* \"smart_contracts/contracts/DreamcatcherToken.sol\":8861:8927  dreamcatcherToken.addressStateToggles.isSyndicate[account] == true */\n      iszero\n      iszero\n      sub\n        /* \"smart_contracts/contracts/DreamcatcherToken.sol\":8844:9220  if (... */\n      tag_147\n      jumpi\n        /* \"smart_contracts/contracts/DreamcatcherToken.sol\":9013:9018  false */\n      0x00\n        /* \"smart_contracts/contracts/DreamcatcherToken.sol\":8952:8969  dreamcatcherToken */\n      dup1\n        /* \"smart_contracts/contracts/DreamcatcherToken.sol\":8952:8989  dreamcatcherToken.addressStateToggles */\n      0x0b\n      add\n        /* \"smart_contracts/contracts/DreamcatcherToken.sol\":8952:9001  dreamcatcherToken.addressStateToggles.isSyndicate */\n      0x01\n      add\n        /* \"smart_contracts/contracts/DreamcatcherToken.sol\":8952:9010  dreamcatcherToken.addressStateToggles.isSyndicate[account] */\n      0x00\n        /* \"smart_contracts/contracts/DreamcatcherToken.sol\":9002:9009  account */\n      dup4\n        /* \"smart_contracts/contracts/DreamcatcherToken.sol\":8952:9010  dreamcatcherToken.addressStateToggles.isSyndicate[account] */\n      0xffffffffffffffffffffffffffffffffffffffff\n      and\n      0xffffffffffffffffffffffffffffffffffffffff\n      and\n      dup2\n      mstore\n      0x20\n      add\n      swap1\n      dup2\n      mstore\n      0x20\n      add\n      0x00\n      keccak256\n      0x00\n        /* \"smart_contracts/contracts/DreamcatcherToken.sol\":8952:9018  dreamcatcherToken.addressStateToggles.isSyndicate[account] = false */\n      0x0100\n      exp\n      dup2\n      sload\n      dup2\n      0xff\n      mul\n      not\n      and\n      swap1\n      dup4\n      iszero\n      iszero\n      mul\n      or\n      swap1\n      sstore\n      pop\n        /* \"smart_contracts/contracts/DreamcatcherToken.sol\":8844:9220  if (... */\n      jump(tag_148)\n    tag_147:\n        /* \"smart_contracts/contracts/DreamcatcherToken.sol\":9114:9119  false */\n      0x00\n        /* \"smart_contracts/contracts/DreamcatcherToken.sol\":9052:9119  dreamcatcherToken.addressStateToggles.isSyndicate[account] == false */\n      iszero\n      iszero\n        /* \"smart_contracts/contracts/DreamcatcherToken.sol\":9052:9069  dreamcatcherToken */\n      0x00\n        /* \"smart_contracts/contracts/DreamcatcherToken.sol\":9052:9089  dreamcatcherToken.addressStateToggles */\n      0x0b\n      add\n        /* \"smart_contracts/contracts/DreamcatcherToken.sol\":9052:9101  dreamcatcherToken.addressStateToggles.isSyndicate */\n      0x01\n      add\n        /* \"smart_contracts/contracts/DreamcatcherToken.sol\":9052:9110  dreamcatcherToken.addressStateToggles.isSyndicate[account] */\n      0x00\n        /* \"smart_contracts/contracts/DreamcatcherToken.sol\":9102:9109  account */\n      dup4\n        /* \"smart_contracts/contracts/DreamcatcherToken.sol\":9052:9110  dreamcatcherToken.addressStateToggles.isSyndicate[account] */\n      0xffffffffffffffffffffffffffffffffffffffff\n      and\n      0xffffffffffffffffffffffffffffffffffffffff\n      and\n      dup2\n      mstore\n      0x20\n      add\n      swap1\n      dup2\n      mstore\n      0x20\n      add\n      0x00\n      keccak256\n      0x00\n      swap1\n      sload\n      swap1\n      0x0100\n      exp\n      swap1\n      div\n      0xff\n      and\n        /* \"smart_contracts/contracts/DreamcatcherToken.sol\":9052:9119  dreamcatcherToken.addressStateToggles.isSyndicate[account] == false */\n      iszero\n      iszero\n      sub\n        /* \"smart_contracts/contracts/DreamcatcherToken.sol\":9035:9220  if (... */\n      tag_149\n      jumpi\n        /* \"smart_contracts/contracts/DreamcatcherToken.sol\":9205:9209  true */\n      0x01\n        /* \"smart_contracts/contracts/DreamcatcherToken.sol\":9144:9161  dreamcatcherToken */\n      0x00\n        /* \"smart_contracts/contracts/DreamcatcherToken.sol\":9144:9181  dreamcatcherToken.addressStateToggles */\n      0x0b\n      add\n        /* \"smart_contracts/contracts/DreamcatcherToken.sol\":9144:9193  dreamcatcherToken.addressStateToggles.isSyndicate */\n      0x01\n      add\n        /* \"smart_contracts/contracts/DreamcatcherToken.sol\":9144:9202  dreamcatcherToken.addressStateToggles.isSyndicate[account] */\n      0x00\n        /* \"smart_contracts/contracts/DreamcatcherToken.sol\":9194:9201  account */\n      dup4\n        /* \"smart_contracts/contracts/DreamcatcherToken.sol\":9144:9202  dreamcatcherToken.addressStateToggles.isSyndicate[account] */\n      0xffffffffffffffffffffffffffffffffffffffff\n      and\n      0xffffffffffffffffffffffffffffffffffffffff\n      and\n      dup2\n      mstore\n      0x20\n      add\n      swap1\n      dup2\n      mstore\n      0x20\n      add\n      0x00\n      keccak256\n      0x00\n        /* \"smart_contracts/contracts/DreamcatcherToken.sol\":9144:9209  dreamcatcherToken.addressStateToggles.isSyndicate[account] = true */\n      0x0100\n      exp\n      dup2\n      sload\n      dup2\n      0xff\n      mul\n      not\n      and\n      swap1\n      dup4\n      iszero\n      iszero\n      mul\n      or\n      swap1\n      sstore\n      pop\n        /* \"smart_contracts/contracts/DreamcatcherToken.sol\":9035:9220  if (... */\n    tag_149:\n        /* \"smart_contracts/contracts/DreamcatcherToken.sol\":8844:9220  if (... */\n    tag_148:\n        /* \"smart_contracts/contracts/DreamcatcherToken.sol\":8769:9226  function toggleIsSyndicate(address account) public onlyCustodian {... */\n      pop\n      jump\t// out\n        /* \"smart_contracts/contracts/DreamcatcherToken.sol\":6237:6462  function votingWeightOf(address account)... */\n    tag_80:\n        /* \"smart_contracts/contracts/DreamcatcherToken.sol\":6339:6346  uint256 */\n      0x00\n        /* \"smart_contracts/contracts/DreamcatcherToken.sol\":6423:6440  dreamcatcherToken */\n      dup1\n        /* \"smart_contracts/contracts/DreamcatcherToken.sol\":6423:6446  dreamcatcherToken.votes */\n      0x08\n      add\n        /* \"smart_contracts/contracts/DreamcatcherToken.sol\":6423:6455  dreamcatcherToken.votes[account] */\n      0x00\n        /* \"smart_contracts/contracts/DreamcatcherToken.sol\":6447:6454  account */\n      dup4\n        /* \"smart_contracts/contracts/DreamcatcherToken.sol\":6423:6455  dreamcatcherToken.votes[account] */\n      0xffffffffffffffffffffffffffffffffffffffff\n      and\n      0xffffffffffffffffffffffffffffffffffffffff\n      and\n      dup2\n      mstore\n      0x20\n      add\n      swap1\n      dup2\n      mstore\n      0x20\n      add\n      0x00\n      keccak256\n      sload\n        /* \"smart_contracts/contracts/DreamcatcherToken.sol\":6416:6455  return dreamcatcherToken.votes[account] */\n      swap1\n      pop\n        /* \"smart_contracts/contracts/DreamcatcherToken.sol\":6237:6462  function votingWeightOf(address account)... */\n      swap2\n      swap1\n      pop\n      jump\t// out\n        /* \"#utility.yul\":7:106   */\n    tag_151:\n        /* \"#utility.yul\":59:65   */\n      0x00\n        /* \"#utility.yul\":93:98   */\n      dup2\n        /* \"#utility.yul\":87:99   */\n      mload\n        /* \"#utility.yul\":77:99   */\n      swap1\n      pop\n        /* \"#utility.yul\":7:106   */\n      swap2\n      swap1\n      pop\n      jump\t// out\n        /* \"#utility.yul\":112:281   */\n    tag_152:\n        /* \"#utility.yul\":196:207   */\n      0x00\n        /* \"#utility.yul\":230:236   */\n      dup3\n        /* \"#utility.yul\":225:228   */\n      dup3\n        /* \"#utility.yul\":218:237   */\n      mstore\n        /* \"#utility.yul\":270:274   */\n      0x20\n        /* \"#utility.yul\":265:268   */\n      dup3\n        /* \"#utility.yul\":261:275   */\n      add\n        /* \"#utility.yul\":246:275   */\n      swap1\n      pop\n        /* \"#utility.yul\":112:281   */\n      swap3\n      swap2\n      pop\n      pop\n      jump\t// out\n        /* \"#utility.yul\":287:533   */\n    tag_153:\n        /* \"#utility.yul\":368:369   */\n      0x00\n        /* \"#utility.yul\":378:491   */\n    tag_183:\n        /* \"#utility.yul\":392:398   */\n      dup4\n        /* \"#utility.yul\":389:390   */\n      dup2\n        /* \"#utility.yul\":386:399   */\n      lt\n        /* \"#utility.yul\":378:491   */\n      iszero\n      tag_185\n      jumpi\n        /* \"#utility.yul\":477:478   */\n      dup1\n        /* \"#utility.yul\":472:475   */\n      dup3\n        /* \"#utility.yul\":468:479   */\n      add\n        /* \"#utility.yul\":462:480   */\n      mload\n        /* \"#utility.yul\":458:459   */\n      dup2\n        /* \"#utility.yul\":453:456   */\n      dup5\n        /* \"#utility.yul\":449:460   */\n      add\n        /* \"#utility.yul\":442:481   */\n      mstore\n        /* \"#utility.yul\":414:416   */\n      0x20\n        /* \"#utility.yul\":411:412   */\n      dup2\n        /* \"#utility.yul\":407:417   */\n      add\n        /* \"#utility.yul\":402:417   */\n      swap1\n      pop\n        /* \"#utility.yul\":378:491   */\n      jump(tag_183)\n    tag_185:\n        /* \"#utility.yul\":525:526   */\n      0x00\n        /* \"#utility.yul\":516:522   */\n      dup5\n        /* \"#utility.yul\":511:514   */\n      dup5\n        /* \"#utility.yul\":507:523   */\n      add\n        /* \"#utility.yul\":500:527   */\n      mstore\n        /* \"#utility.yul\":349:533   */\n      pop\n        /* \"#utility.yul\":287:533   */\n      pop\n      pop\n      pop\n      jump\t// out\n        /* \"#utility.yul\":539:641   */\n    tag_154:\n        /* \"#utility.yul\":580:586   */\n      0x00\n        /* \"#utility.yul\":631:633   */\n      0x1f\n        /* \"#utility.yul\":627:634   */\n      not\n        /* \"#utility.yul\":622:624   */\n      0x1f\n        /* \"#utility.yul\":615:620   */\n      dup4\n        /* \"#utility.yul\":611:625   */\n      add\n        /* \"#utility.yul\":607:635   */\n      and\n        /* \"#utility.yul\":597:635   */\n      swap1\n      pop\n        /* \"#utility.yul\":539:641   */\n      swap2\n      swap1\n      pop\n      jump\t// out\n        /* \"#utility.yul\":647:1024   */\n    tag_155:\n        /* \"#utility.yul\":735:738   */\n      0x00\n        /* \"#utility.yul\":763:802   */\n      tag_188\n        /* \"#utility.yul\":796:801   */\n      dup3\n        /* \"#utility.yul\":763:802   */\n      tag_151\n      jump\t// in\n    tag_188:\n        /* \"#utility.yul\":818:889   */\n      tag_189\n        /* \"#utility.yul\":882:888   */\n      dup2\n        /* \"#utility.yul\":877:880   */\n      dup6\n        /* \"#utility.yul\":818:889   */\n      tag_152\n      jump\t// in\n    tag_189:\n        /* \"#utility.yul\":811:889   */\n      swap4\n      pop\n        /* \"#utility.yul\":898:963   */\n      tag_190\n        /* \"#utility.yul\":956:962   */\n      dup2\n        /* \"#utility.yul\":951:954   */\n      dup6\n        /* \"#utility.yul\":944:948   */\n      0x20\n        /* \"#utility.yul\":937:942   */\n      dup7\n        /* \"#utility.yul\":933:949   */\n      add\n        /* \"#utility.yul\":898:963   */\n      tag_153\n      jump\t// in\n    tag_190:\n        /* \"#utility.yul\":988:1017   */\n      tag_191\n        /* \"#utility.yul\":1010:1016   */\n      dup2\n        /* \"#utility.yul\":988:1017   */\n      tag_154\n      jump\t// in\n    tag_191:\n        /* \"#utility.yul\":983:986   */\n      dup5\n        /* \"#utility.yul\":979:1018   */\n      add\n        /* \"#utility.yul\":972:1018   */\n      swap2\n      pop\n        /* \"#utility.yul\":739:1024   */\n      pop\n        /* \"#utility.yul\":647:1024   */\n      swap3\n      swap2\n      pop\n      pop\n      jump\t// out\n        /* \"#utility.yul\":1030:1343   */\n    tag_24:\n        /* \"#utility.yul\":1143:1147   */\n      0x00\n        /* \"#utility.yul\":1181:1183   */\n      0x20\n        /* \"#utility.yul\":1170:1179   */\n      dup3\n        /* \"#utility.yul\":1166:1184   */\n      add\n        /* \"#utility.yul\":1158:1184   */\n      swap1\n      pop\n        /* \"#utility.yul\":1230:1239   */\n      dup2\n        /* \"#utility.yul\":1224:1228   */\n      dup2\n        /* \"#utility.yul\":1220:1240   */\n      sub\n        /* \"#utility.yul\":1216:1217   */\n      0x00\n        /* \"#utility.yul\":1205:1214   */\n      dup4\n        /* \"#utility.yul\":1201:1218   */\n      add\n        /* \"#utility.yul\":1194:1241   */\n      mstore\n        /* \"#utility.yul\":1258:1336   */\n      tag_193\n        /* \"#utility.yul\":1331:1335   */\n      dup2\n        /* \"#utility.yul\":1322:1328   */\n      dup5\n        /* \"#utility.yul\":1258:1336   */\n      tag_155\n      jump\t// in\n    tag_193:\n        /* \"#utility.yul\":1250:1336   */\n      swap1\n      pop\n        /* \"#utility.yul\":1030:1343   */\n      swap3\n      swap2\n      pop\n      pop\n      jump\t// out\n        /* \"#utility.yul\":1430:1547   */\n    tag_157:\n        /* \"#utility.yul\":1539:1540   */\n      0x00\n        /* \"#utility.yul\":1536:1537   */\n      dup1\n        /* \"#utility.yul\":1529:1541   */\n      revert\n        /* \"#utility.yul\":1676:1802   */\n    tag_159:\n        /* \"#utility.yul\":1713:1720   */\n      0x00\n        /* \"#utility.yul\":1753:1795   */\n      0xffffffffffffffffffffffffffffffffffffffff\n        /* \"#utility.yul\":1746:1751   */\n      dup3\n        /* \"#utility.yul\":1742:1796   */\n      and\n        /* \"#utility.yul\":1731:1796   */\n      swap1\n      pop\n        /* \"#utility.yul\":1676:1802   */\n      swap2\n      swap1\n      pop\n      jump\t// out\n        /* \"#utility.yul\":1808:1904   */\n    tag_160:\n        /* \"#utility.yul\":1845:1852   */\n      0x00\n        /* \"#utility.yul\":1874:1898   */\n      tag_199\n        /* \"#utility.yul\":1892:1897   */\n      dup3\n        /* \"#utility.yul\":1874:1898   */\n      tag_159\n      jump\t// in\n    tag_199:\n        /* \"#utility.yul\":1863:1898   */\n      swap1\n      pop\n        /* \"#utility.yul\":1808:1904   */\n      swap2\n      swap1\n      pop\n      jump\t// out\n        /* \"#utility.yul\":1910:2032   */\n    tag_161:\n        /* \"#utility.yul\":1983:2007   */\n      tag_201\n        /* \"#utility.yul\":2001:2006   */\n      dup2\n        /* \"#utility.yul\":1983:2007   */\n      tag_160\n      jump\t// in\n    tag_201:\n        /* \"#utility.yul\":1976:1981   */\n      dup2\n        /* \"#utility.yul\":1973:2008   */\n      eq\n        /* \"#utility.yul\":1963:2026   */\n      tag_202\n      jumpi\n        /* \"#utility.yul\":2022:2023   */\n      0x00\n        /* \"#utility.yul\":2019:2020   */\n      dup1\n        /* \"#utility.yul\":2012:2024   */\n      revert\n        /* \"#utility.yul\":1963:2026   */\n    tag_202:\n        /* \"#utility.yul\":1910:2032   */\n      pop\n      jump\t// out\n        /* \"#utility.yul\":2038:2177   */\n    tag_162:\n        /* \"#utility.yul\":2084:2089   */\n      0x00\n        /* \"#utility.yul\":2122:2128   */\n      dup2\n        /* \"#utility.yul\":2109:2129   */\n      calldataload\n        /* \"#utility.yul\":2100:2129   */\n      swap1\n      pop\n        /* \"#utility.yul\":2138:2171   */\n      tag_204\n        /* \"#utility.yul\":2165:2170   */\n      dup2\n        /* \"#utility.yul\":2138:2171   */\n      tag_161\n      jump\t// in\n    tag_204:\n        /* \"#utility.yul\":2038:2177   */\n      swap3\n      swap2\n      pop\n      pop\n      jump\t// out\n        /* \"#utility.yul\":2183:2260   */\n    tag_163:\n        /* \"#utility.yul\":2220:2227   */\n      0x00\n        /* \"#utility.yul\":2249:2254   */\n      dup2\n        /* \"#utility.yul\":2238:2254   */\n      swap1\n      pop\n        /* \"#utility.yul\":2183:2260   */\n      swap2\n      swap1\n      pop\n      jump\t// out\n        /* \"#utility.yul\":2266:2388   */\n    tag_164:\n        /* \"#utility.yul\":2339:2363   */\n      tag_207\n        /* \"#utility.yul\":2357:2362   */\n      dup2\n        /* \"#utility.yul\":2339:2363   */\n      tag_163\n      jump\t// in\n    tag_207:\n        /* \"#utility.yul\":2332:2337   */\n      dup2\n        /* \"#utility.yul\":2329:2364   */\n      eq\n        /* \"#utility.yul\":2319:2382   */\n      tag_208\n      jumpi\n        /* \"#utility.yul\":2378:2379   */\n      0x00\n        /* \"#utility.yul\":2375:2376   */\n      dup1\n        /* \"#utility.yul\":2368:2380   */\n      revert\n        /* \"#utility.yul\":2319:2382   */\n    tag_208:\n        /* \"#utility.yul\":2266:2388   */\n      pop\n      jump\t// out\n        /* \"#utility.yul\":2394:2533   */\n    tag_165:\n        /* \"#utility.yul\":2440:2445   */\n      0x00\n        /* \"#utility.yul\":2478:2484   */\n      dup2\n        /* \"#utility.yul\":2465:2485   */\n      calldataload\n        /* \"#utility.yul\":2456:2485   */\n      swap1\n      pop\n        /* \"#utility.yul\":2494:2527   */\n      tag_210\n        /* \"#utility.yul\":2521:2526   */\n      dup2\n        /* \"#utility.yul\":2494:2527   */\n      tag_164\n      jump\t// in\n    tag_210:\n        /* \"#utility.yul\":2394:2533   */\n      swap3\n      swap2\n      pop\n      pop\n      jump\t// out\n        /* \"#utility.yul\":2539:3013   */\n    tag_27:\n        /* \"#utility.yul\":2607:2613   */\n      0x00\n        /* \"#utility.yul\":2615:2621   */\n      dup1\n        /* \"#utility.yul\":2664:2666   */\n      0x40\n        /* \"#utility.yul\":2652:2661   */\n      dup4\n        /* \"#utility.yul\":2643:2650   */\n      dup6\n        /* \"#utility.yul\":2639:2662   */\n      sub\n        /* \"#utility.yul\":2635:2667   */\n      slt\n        /* \"#utility.yul\":2632:2751   */\n      iszero\n      tag_212\n      jumpi\n        /* \"#utility.yul\":2670:2749   */\n      tag_213\n      tag_157\n      jump\t// in\n    tag_213:\n        /* \"#utility.yul\":2632:2751   */\n    tag_212:\n        /* \"#utility.yul\":2790:2791   */\n      0x00\n        /* \"#utility.yul\":2815:2868   */\n      tag_214\n        /* \"#utility.yul\":2860:2867   */\n      dup6\n        /* \"#utility.yul\":2851:2857   */\n      dup3\n        /* \"#utility.yul\":2840:2849   */\n      dup7\n        /* \"#utility.yul\":2836:2858   */\n      add\n        /* \"#utility.yul\":2815:2868   */\n      tag_162\n      jump\t// in\n    tag_214:\n        /* \"#utility.yul\":2805:2868   */\n      swap3\n      pop\n        /* \"#utility.yul\":2761:2878   */\n      pop\n        /* \"#utility.yul\":2917:2919   */\n      0x20\n        /* \"#utility.yul\":2943:2996   */\n      tag_215\n        /* \"#utility.yul\":2988:2995   */\n      dup6\n        /* \"#utility.yul\":2979:2985   */\n      dup3\n        /* \"#utility.yul\":2968:2977   */\n      dup7\n        /* \"#utility.yul\":2964:2986   */\n      add\n        /* \"#utility.yul\":2943:2996   */\n      tag_165\n      jump\t// in\n    tag_215:\n        /* \"#utility.yul\":2933:2996   */\n      swap2\n      pop\n        /* \"#utility.yul\":2888:3006   */\n      pop\n        /* \"#utility.yul\":2539:3013   */\n      swap3\n      pop\n      swap3\n      swap1\n      pop\n      jump\t// out\n        /* \"#utility.yul\":3019:3109   */\n    tag_166:\n        /* \"#utility.yul\":3053:3060   */\n      0x00\n        /* \"#utility.yul\":3096:3101   */\n      dup2\n        /* \"#utility.yul\":3089:3102   */\n      iszero\n        /* \"#utility.yul\":3082:3103   */\n      iszero\n        /* \"#utility.yul\":3071:3103   */\n      swap1\n      pop\n        /* \"#utility.yul\":3019:3109   */\n      swap2\n      swap1\n      pop\n      jump\t// out\n        /* \"#utility.yul\":3115:3224   */\n    tag_167:\n        /* \"#utility.yul\":3196:3217   */\n      tag_218\n        /* \"#utility.yul\":3211:3216   */\n      dup2\n        /* \"#utility.yul\":3196:3217   */\n      tag_166\n      jump\t// in\n    tag_218:\n        /* \"#utility.yul\":3191:3194   */\n      dup3\n        /* \"#utility.yul\":3184:3218   */\n      mstore\n        /* \"#utility.yul\":3115:3224   */\n      pop\n      pop\n      jump\t// out\n        /* \"#utility.yul\":3230:3440   */\n    tag_30:\n        /* \"#utility.yul\":3317:3321   */\n      0x00\n        /* \"#utility.yul\":3355:3357   */\n      0x20\n        /* \"#utility.yul\":3344:3353   */\n      dup3\n        /* \"#utility.yul\":3340:3358   */\n      add\n        /* \"#utility.yul\":3332:3358   */\n      swap1\n      pop\n        /* \"#utility.yul\":3368:3433   */\n      tag_220\n        /* \"#utility.yul\":3430:3431   */\n      0x00\n        /* \"#utility.yul\":3419:3428   */\n      dup4\n        /* \"#utility.yul\":3415:3432   */\n      add\n        /* \"#utility.yul\":3406:3412   */\n      dup5\n        /* \"#utility.yul\":3368:3433   */\n      tag_167\n      jump\t// in\n    tag_220:\n        /* \"#utility.yul\":3230:3440   */\n      swap3\n      swap2\n      pop\n      pop\n      jump\t// out\n        /* \"#utility.yul\":3446:3564   */\n    tag_168:\n        /* \"#utility.yul\":3533:3557   */\n      tag_222\n        /* \"#utility.yul\":3551:3556   */\n      dup2\n        /* \"#utility.yul\":3533:3557   */\n      tag_163\n      jump\t// in\n    tag_222:\n        /* \"#utility.yul\":3528:3531   */\n      dup3\n        /* \"#utility.yul\":3521:3558   */\n      mstore\n        /* \"#utility.yul\":3446:3564   */\n      pop\n      pop\n      jump\t// out\n        /* \"#utility.yul\":3570:3792   */\n    tag_34:\n        /* \"#utility.yul\":3663:3667   */\n      0x00\n        /* \"#utility.yul\":3701:3703   */\n      0x20\n        /* \"#utility.yul\":3690:3699   */\n      dup3\n        /* \"#utility.yul\":3686:3704   */\n      add\n        /* \"#utility.yul\":3678:3704   */\n      swap1\n      pop\n        /* \"#utility.yul\":3714:3785   */\n      tag_224\n        /* \"#utility.yul\":3782:3783   */\n      0x00\n        /* \"#utility.yul\":3771:3780   */\n      dup4\n        /* \"#utility.yul\":3767:3784   */\n      add\n        /* \"#utility.yul\":3758:3764   */\n      dup5\n        /* \"#utility.yul\":3714:3785   */\n      tag_168\n      jump\t// in\n    tag_224:\n        /* \"#utility.yul\":3570:3792   */\n      swap3\n      swap2\n      pop\n      pop\n      jump\t// out\n        /* \"#utility.yul\":3798:3884   */\n    tag_169:\n        /* \"#utility.yul\":3833:3840   */\n      0x00\n        /* \"#utility.yul\":3873:3877   */\n      0xff\n        /* \"#utility.yul\":3866:3871   */\n      dup3\n        /* \"#utility.yul\":3862:3878   */\n      and\n        /* \"#utility.yul\":3851:3878   */\n      swap1\n      pop\n        /* \"#utility.yul\":3798:3884   */\n      swap2\n      swap1\n      pop\n      jump\t// out\n        /* \"#utility.yul\":3890:4002   */\n    tag_170:\n        /* \"#utility.yul\":3973:3995   */\n      tag_227\n        /* \"#utility.yul\":3989:3994   */\n      dup2\n        /* \"#utility.yul\":3973:3995   */\n      tag_169\n      jump\t// in\n    tag_227:\n        /* \"#utility.yul\":3968:3971   */\n      dup3\n        /* \"#utility.yul\":3961:3996   */\n      mstore\n        /* \"#utility.yul\":3890:4002   */\n      pop\n      pop\n      jump\t// out\n        /* \"#utility.yul\":4008:4222   */\n    tag_38:\n        /* \"#utility.yul\":4097:4101   */\n      0x00\n        /* \"#utility.yul\":4135:4137   */\n      0x20\n        /* \"#utility.yul\":4124:4133   */\n      dup3\n        /* \"#utility.yul\":4120:4138   */\n      add\n        /* \"#utility.yul\":4112:4138   */\n      swap1\n      pop\n        /* \"#utility.yul\":4148:4215   */\n      tag_229\n        /* \"#utility.yul\":4212:4213   */\n      0x00\n        /* \"#utility.yul\":4201:4210   */\n      dup4\n        /* \"#utility.yul\":4197:4214   */\n      add\n        /* \"#utility.yul\":4188:4194   */\n      dup5\n        /* \"#utility.yul\":4148:4215   */\n      tag_170\n      jump\t// in\n    tag_229:\n        /* \"#utility.yul\":4008:4222   */\n      swap3\n      swap2\n      pop\n      pop\n      jump\t// out\n        /* \"#utility.yul\":4228:4557   */\n    tag_41:\n        /* \"#utility.yul\":4287:4293   */\n      0x00\n        /* \"#utility.yul\":4336:4338   */\n      0x20\n        /* \"#utility.yul\":4324:4333   */\n      dup3\n        /* \"#utility.yul\":4315:4322   */\n      dup5\n        /* \"#utility.yul\":4311:4334   */\n      sub\n        /* \"#utility.yul\":4307:4339   */\n      slt\n        /* \"#utility.yul\":4304:4423   */\n      iszero\n      tag_231\n      jumpi\n        /* \"#utility.yul\":4342:4421   */\n      tag_232\n      tag_157\n      jump\t// in\n    tag_232:\n        /* \"#utility.yul\":4304:4423   */\n    tag_231:\n        /* \"#utility.yul\":4462:4463   */\n      0x00\n        /* \"#utility.yul\":4487:4540   */\n      tag_233\n        /* \"#utility.yul\":4532:4539   */\n      dup5\n        /* \"#utility.yul\":4523:4529   */\n      dup3\n        /* \"#utility.yul\":4512:4521   */\n      dup6\n        /* \"#utility.yul\":4508:4530   */\n      add\n        /* \"#utility.yul\":4487:4540   */\n      tag_162\n      jump\t// in\n    tag_233:\n        /* \"#utility.yul\":4477:4540   */\n      swap2\n      pop\n        /* \"#utility.yul\":4433:4550   */\n      pop\n        /* \"#utility.yul\":4228:4557   */\n      swap3\n      swap2\n      pop\n      pop\n      jump\t// out\n        /* \"#utility.yul\":4563:5182   */\n    tag_49:\n        /* \"#utility.yul\":4640:4646   */\n      0x00\n        /* \"#utility.yul\":4648:4654   */\n      dup1\n        /* \"#utility.yul\":4656:4662   */\n      0x00\n        /* \"#utility.yul\":4705:4707   */\n      0x60\n        /* \"#utility.yul\":4693:4702   */\n      dup5\n        /* \"#utility.yul\":4684:4691   */\n      dup7\n        /* \"#utility.yul\":4680:4703   */\n      sub\n        /* \"#utility.yul\":4676:4708   */\n      slt\n        /* \"#utility.yul\":4673:4792   */\n      iszero\n      tag_235\n      jumpi\n        /* \"#utility.yul\":4711:4790   */\n      tag_236\n      tag_157\n      jump\t// in\n    tag_236:\n        /* \"#utility.yul\":4673:4792   */\n    tag_235:\n        /* \"#utility.yul\":4831:4832   */\n      0x00\n        /* \"#utility.yul\":4856:4909   */\n      tag_237\n        /* \"#utility.yul\":4901:4908   */\n      dup7\n        /* \"#utility.yul\":4892:4898   */\n      dup3\n        /* \"#utility.yul\":4881:4890   */\n      dup8\n        /* \"#utility.yul\":4877:4899   */\n      add\n        /* \"#utility.yul\":4856:4909   */\n      tag_162\n      jump\t// in\n    tag_237:\n        /* \"#utility.yul\":4846:4909   */\n      swap4\n      pop\n        /* \"#utility.yul\":4802:4919   */\n      pop\n        /* \"#utility.yul\":4958:4960   */\n      0x20\n        /* \"#utility.yul\":4984:5037   */\n      tag_238\n        /* \"#utility.yul\":5029:5036   */\n      dup7\n        /* \"#utility.yul\":5020:5026   */\n      dup3\n        /* \"#utility.yul\":5009:5018   */\n      dup8\n        /* \"#utility.yul\":5005:5027   */\n      add\n        /* \"#utility.yul\":4984:5037   */\n      tag_162\n      jump\t// in\n    tag_238:\n        /* \"#utility.yul\":4974:5037   */\n      swap3\n      pop\n        /* \"#utility.yul\":4929:5047   */\n      pop\n        /* \"#utility.yul\":5086:5088   */\n      0x40\n        /* \"#utility.yul\":5112:5165   */\n      tag_239\n        /* \"#utility.yul\":5157:5164   */\n      dup7\n        /* \"#utility.yul\":5148:5154   */\n      dup3\n        /* \"#utility.yul\":5137:5146   */\n      dup8\n        /* \"#utility.yul\":5133:5155   */\n      add\n        /* \"#utility.yul\":5112:5165   */\n      tag_165\n      jump\t// in\n    tag_239:\n        /* \"#utility.yul\":5102:5165   */\n      swap2\n      pop\n        /* \"#utility.yul\":5057:5175   */\n      pop\n        /* \"#utility.yul\":4563:5182   */\n      swap3\n      pop\n      swap3\n      pop\n      swap3\n      jump\t// out\n        /* \"#utility.yul\":5188:5662   */\n    tag_72:\n        /* \"#utility.yul\":5256:5262   */\n      0x00\n        /* \"#utility.yul\":5264:5270   */\n      dup1\n        /* \"#utility.yul\":5313:5315   */\n      0x40\n        /* \"#utility.yul\":5301:5310   */\n      dup4\n        /* \"#utility.yul\":5292:5299   */\n      dup6\n        /* \"#utility.yul\":5288:5311   */\n      sub\n        /* \"#utility.yul\":5284:5316   */\n      slt\n        /* \"#utility.yul\":5281:5400   */\n      iszero\n      tag_241\n      jumpi\n        /* \"#utility.yul\":5319:5398   */\n      tag_242\n      tag_157\n      jump\t// in\n    tag_242:\n        /* \"#utility.yul\":5281:5400   */\n    tag_241:\n        /* \"#utility.yul\":5439:5440   */\n      0x00\n        /* \"#utility.yul\":5464:5517   */\n      tag_243\n        /* \"#utility.yul\":5509:5516   */\n      dup6\n        /* \"#utility.yul\":5500:5506   */\n      dup3\n        /* \"#utility.yul\":5489:5498   */\n      dup7\n        /* \"#utility.yul\":5485:5507   */\n      add\n        /* \"#utility.yul\":5464:5517   */\n      tag_162\n      jump\t// in\n    tag_243:\n        /* \"#utility.yul\":5454:5517   */\n      swap3\n      pop\n        /* \"#utility.yul\":5410:5527   */\n      pop\n        /* \"#utility.yul\":5566:5568   */\n      0x20\n        /* \"#utility.yul\":5592:5645   */\n      tag_244\n        /* \"#utility.yul\":5637:5644   */\n      dup6\n        /* \"#utility.yul\":5628:5634   */\n      dup3\n        /* \"#utility.yul\":5617:5626   */\n      dup7\n        /* \"#utility.yul\":5613:5635   */\n      add\n        /* \"#utility.yul\":5592:5645   */\n      tag_162\n      jump\t// in\n    tag_244:\n        /* \"#utility.yul\":5582:5645   */\n      swap2\n      pop\n        /* \"#utility.yul\":5537:5655   */\n      pop\n        /* \"#utility.yul\":5188:5662   */\n      swap3\n      pop\n      swap3\n      swap1\n      pop\n      jump\t// out\n        /* \"#utility.yul\":5668:5848   */\n    tag_171:\n        /* \"#utility.yul\":5716:5793   */\n      0x4e487b7100000000000000000000000000000000000000000000000000000000\n        /* \"#utility.yul\":5713:5714   */\n      0x00\n        /* \"#utility.yul\":5706:5794   */\n      mstore\n        /* \"#utility.yul\":5813:5817   */\n      0x22\n        /* \"#utility.yul\":5810:5811   */\n      0x04\n        /* \"#utility.yul\":5803:5818   */\n      mstore\n        /* \"#utility.yul\":5837:5841   */\n      0x24\n        /* \"#utility.yul\":5834:5835   */\n      0x00\n        /* \"#utility.yul\":5827:5842   */\n      revert\n        /* \"#utility.yul\":5854:6174   */\n    tag_84:\n        /* \"#utility.yul\":5898:5904   */\n      0x00\n        /* \"#utility.yul\":5935:5936   */\n      0x02\n        /* \"#utility.yul\":5929:5933   */\n      dup3\n        /* \"#utility.yul\":5925:5937   */\n      div\n        /* \"#utility.yul\":5915:5937   */\n      swap1\n      pop\n        /* \"#utility.yul\":5982:5983   */\n      0x01\n        /* \"#utility.yul\":5976:5980   */\n      dup3\n        /* \"#utility.yul\":5972:5984   */\n      and\n        /* \"#utility.yul\":6003:6021   */\n      dup1\n        /* \"#utility.yul\":5993:6074   */\n      tag_247\n      jumpi\n        /* \"#utility.yul\":6059:6063   */\n      0x7f\n        /* \"#utility.yul\":6051:6057   */\n      dup3\n        /* \"#utility.yul\":6047:6064   */\n      and\n        /* \"#utility.yul\":6037:6064   */\n      swap2\n      pop\n        /* \"#utility.yul\":5993:6074   */\n    tag_247:\n        /* \"#utility.yul\":6121:6123   */\n      0x20\n        /* \"#utility.yul\":6113:6119   */\n      dup3\n        /* \"#utility.yul\":6110:6124   */\n      lt\n        /* \"#utility.yul\":6090:6108   */\n      dup2\n        /* \"#utility.yul\":6087:6125   */\n      sub\n        /* \"#utility.yul\":6084:6168   */\n      tag_248\n      jumpi\n        /* \"#utility.yul\":6140:6158   */\n      tag_249\n      tag_171\n      jump\t// in\n    tag_249:\n        /* \"#utility.yul\":6084:6168   */\n    tag_248:\n        /* \"#utility.yul\":5905:6174   */\n      pop\n        /* \"#utility.yul\":5854:6174   */\n      swap2\n      swap1\n      pop\n      jump\t// out\n        /* \"#utility.yul\":6180:6402   */\n    tag_172:\n        /* \"#utility.yul\":6320:6354   */\n      0x4d757374206265206163636573736564207468726f75676820612070726f706f\n        /* \"#utility.yul\":6316:6317   */\n      0x00\n        /* \"#utility.yul\":6308:6314   */\n      dup3\n        /* \"#utility.yul\":6304:6318   */\n      add\n        /* \"#utility.yul\":6297:6355   */\n      mstore\n        /* \"#utility.yul\":6389:6394   */\n      0x73616c0000000000000000000000000000000000000000000000000000000000\n        /* \"#utility.yul\":6384:6386   */\n      0x20\n        /* \"#utility.yul\":6376:6382   */\n      dup3\n        /* \"#utility.yul\":6372:6387   */\n      add\n        /* \"#utility.yul\":6365:6395   */\n      mstore\n        /* \"#utility.yul\":6180:6402   */\n      pop\n      jump\t// out\n        /* \"#utility.yul\":6408:6774   */\n    tag_173:\n        /* \"#utility.yul\":6550:6553   */\n      0x00\n        /* \"#utility.yul\":6571:6638   */\n      tag_252\n        /* \"#utility.yul\":6635:6637   */\n      0x23\n        /* \"#utility.yul\":6630:6633   */\n      dup4\n        /* \"#utility.yul\":6571:6638   */\n      tag_152\n      jump\t// in\n    tag_252:\n        /* \"#utility.yul\":6564:6638   */\n      swap2\n      pop\n        /* \"#utility.yul\":6647:6740   */\n      tag_253\n        /* \"#utility.yul\":6736:6739   */\n      dup3\n        /* \"#utility.yul\":6647:6740   */\n      tag_172\n      jump\t// in\n    tag_253:\n        /* \"#utility.yul\":6765:6767   */\n      0x40\n        /* \"#utility.yul\":6760:6763   */\n      dup3\n        /* \"#utility.yul\":6756:6768   */\n      add\n        /* \"#utility.yul\":6749:6768   */\n      swap1\n      pop\n        /* \"#utility.yul\":6408:6774   */\n      swap2\n      swap1\n      pop\n      jump\t// out\n        /* \"#utility.yul\":6780:7199   */\n    tag_97:\n        /* \"#utility.yul\":6946:6950   */\n      0x00\n        /* \"#utility.yul\":6984:6986   */\n      0x20\n        /* \"#utility.yul\":6973:6982   */\n      dup3\n        /* \"#utility.yul\":6969:6987   */\n      add\n        /* \"#utility.yul\":6961:6987   */\n      swap1\n      pop\n        /* \"#utility.yul\":7033:7042   */\n      dup2\n        /* \"#utility.yul\":7027:7031   */\n      dup2\n        /* \"#utility.yul\":7023:7043   */\n      sub\n        /* \"#utility.yul\":7019:7020   */\n      0x00\n        /* \"#utility.yul\":7008:7017   */\n      dup4\n        /* \"#utility.yul\":7004:7021   */\n      add\n        /* \"#utility.yul\":6997:7044   */\n      mstore\n        /* \"#utility.yul\":7061:7192   */\n      tag_255\n        /* \"#utility.yul\":7187:7191   */\n      dup2\n        /* \"#utility.yul\":7061:7192   */\n      tag_173\n      jump\t// in\n    tag_255:\n        /* \"#utility.yul\":7053:7192   */\n      swap1\n      pop\n        /* \"#utility.yul\":6780:7199   */\n      swap2\n      swap1\n      pop\n      jump\t// out\n        /* \"#utility.yul\":7205:7385   */\n    tag_174:\n        /* \"#utility.yul\":7253:7330   */\n      0x4e487b7100000000000000000000000000000000000000000000000000000000\n        /* \"#utility.yul\":7250:7251   */\n      0x00\n        /* \"#utility.yul\":7243:7331   */\n      mstore\n        /* \"#utility.yul\":7350:7354   */\n      0x11\n        /* \"#utility.yul\":7347:7348   */\n      0x04\n        /* \"#utility.yul\":7340:7355   */\n      mstore\n        /* \"#utility.yul\":7374:7378   */\n      0x24\n        /* \"#utility.yul\":7371:7372   */\n      0x00\n        /* \"#utility.yul\":7364:7379   */\n      revert\n        /* \"#utility.yul\":7391:7582   */\n    tag_100:\n        /* \"#utility.yul\":7431:7434   */\n      0x00\n        /* \"#utility.yul\":7450:7470   */\n      tag_258\n        /* \"#utility.yul\":7468:7469   */\n      dup3\n        /* \"#utility.yul\":7450:7470   */\n      tag_163\n      jump\t// in\n    tag_258:\n        /* \"#utility.yul\":7445:7470   */\n      swap2\n      pop\n        /* \"#utility.yul\":7484:7504   */\n      tag_259\n        /* \"#utility.yul\":7502:7503   */\n      dup4\n        /* \"#utility.yul\":7484:7504   */\n      tag_163\n      jump\t// in\n    tag_259:\n        /* \"#utility.yul\":7479:7504   */\n      swap3\n      pop\n        /* \"#utility.yul\":7527:7528   */\n      dup3\n        /* \"#utility.yul\":7524:7525   */\n      dup3\n        /* \"#utility.yul\":7520:7529   */\n      add\n        /* \"#utility.yul\":7513:7529   */\n      swap1\n      pop\n        /* \"#utility.yul\":7548:7551   */\n      dup1\n        /* \"#utility.yul\":7545:7546   */\n      dup3\n        /* \"#utility.yul\":7542:7552   */\n      gt\n        /* \"#utility.yul\":7539:7575   */\n      iszero\n      tag_260\n      jumpi\n        /* \"#utility.yul\":7555:7573   */\n      tag_261\n      tag_174\n      jump\t// in\n    tag_261:\n        /* \"#utility.yul\":7539:7575   */\n    tag_260:\n        /* \"#utility.yul\":7391:7582   */\n      swap3\n      swap2\n      pop\n      pop\n      jump\t// out\n        /* \"#utility.yul\":7588:7758   */\n    tag_175:\n        /* \"#utility.yul\":7728:7750   */\n      0x496e73756666696369656e742062616c616e6365000000000000000000000000\n        /* \"#utility.yul\":7724:7725   */\n      0x00\n        /* \"#utility.yul\":7716:7722   */\n      dup3\n        /* \"#utility.yul\":7712:7726   */\n      add\n        /* \"#utility.yul\":7705:7751   */\n      mstore\n        /* \"#utility.yul\":7588:7758   */\n      pop\n      jump\t// out\n        /* \"#utility.yul\":7764:8130   */\n    tag_176:\n        /* \"#utility.yul\":7906:7909   */\n      0x00\n        /* \"#utility.yul\":7927:7994   */\n      tag_264\n        /* \"#utility.yul\":7991:7993   */\n      0x14\n        /* \"#utility.yul\":7986:7989   */\n      dup4\n        /* \"#utility.yul\":7927:7994   */\n      tag_152\n      jump\t// in\n    tag_264:\n        /* \"#utility.yul\":7920:7994   */\n      swap2\n      pop\n        /* \"#utility.yul\":8003:8096   */\n      tag_265\n        /* \"#utility.yul\":8092:8095   */\n      dup3\n        /* \"#utility.yul\":8003:8096   */\n      tag_175\n      jump\t// in\n    tag_265:\n        /* \"#utility.yul\":8121:8123   */\n      0x20\n        /* \"#utility.yul\":8116:8119   */\n      dup3\n        /* \"#utility.yul\":8112:8124   */\n      add\n        /* \"#utility.yul\":8105:8124   */\n      swap1\n      pop\n        /* \"#utility.yul\":7764:8130   */\n      swap2\n      swap1\n      pop\n      jump\t// out\n        /* \"#utility.yul\":8136:8555   */\n    tag_107:\n        /* \"#utility.yul\":8302:8306   */\n      0x00\n        /* \"#utility.yul\":8340:8342   */\n      0x20\n        /* \"#utility.yul\":8329:8338   */\n      dup3\n        /* \"#utility.yul\":8325:8343   */\n      add\n        /* \"#utility.yul\":8317:8343   */\n      swap1\n      pop\n        /* \"#utility.yul\":8389:8398   */\n      dup2\n        /* \"#utility.yul\":8383:8387   */\n      dup2\n        /* \"#utility.yul\":8379:8399   */\n      sub\n        /* \"#utility.yul\":8375:8376   */\n      0x00\n        /* \"#utility.yul\":8364:8373   */\n      dup4\n        /* \"#utility.yul\":8360:8377   */\n      add\n        /* \"#utility.yul\":8353:8400   */\n      mstore\n        /* \"#utility.yul\":8417:8548   */\n      tag_267\n        /* \"#utility.yul\":8543:8547   */\n      dup2\n        /* \"#utility.yul\":8417:8548   */\n      tag_176\n      jump\t// in\n    tag_267:\n        /* \"#utility.yul\":8409:8548   */\n      swap1\n      pop\n        /* \"#utility.yul\":8136:8555   */\n      swap2\n      swap1\n      pop\n      jump\t// out\n        /* \"#utility.yul\":8561:8781   */\n    tag_177:\n        /* \"#utility.yul\":8701:8735   */\n      0x5472616e7366657220616d6f756e74206578636565647320616c6c6f77616e63\n        /* \"#utility.yul\":8697:8698   */\n      0x00\n        /* \"#utility.yul\":8689:8695   */\n      dup3\n        /* \"#utility.yul\":8685:8699   */\n      add\n        /* \"#utility.yul\":8678:8736   */\n      mstore\n        /* \"#utility.yul\":8770:8773   */\n      0x6500000000000000000000000000000000000000000000000000000000000000\n        /* \"#utility.yul\":8765:8767   */\n      0x20\n        /* \"#utility.yul\":8757:8763   */\n      dup3\n        /* \"#utility.yul\":8753:8768   */\n      add\n        /* \"#utility.yul\":8746:8774   */\n      mstore\n        /* \"#utility.yul\":8561:8781   */\n      pop\n      jump\t// out\n        /* \"#utility.yul\":8787:9153   */\n    tag_178:\n        /* \"#utility.yul\":8929:8932   */\n      0x00\n        /* \"#utility.yul\":8950:9017   */\n      tag_270\n        /* \"#utility.yul\":9014:9016   */\n      0x21\n        /* \"#utility.yul\":9009:9012   */\n      dup4\n        /* \"#utility.yul\":8950:9017   */\n      tag_152\n      jump\t// in\n    tag_270:\n        /* \"#utility.yul\":8943:9017   */\n      swap2\n      pop\n        /* \"#utility.yul\":9026:9119   */\n      tag_271\n        /* \"#utility.yul\":9115:9118   */\n      dup3\n        /* \"#utility.yul\":9026:9119   */\n      tag_177\n      jump\t// in\n    tag_271:\n        /* \"#utility.yul\":9144:9146   */\n      0x40\n        /* \"#utility.yul\":9139:9142   */\n      dup3\n        /* \"#utility.yul\":9135:9147   */\n      add\n        /* \"#utility.yul\":9128:9147   */\n      swap1\n      pop\n        /* \"#utility.yul\":8787:9153   */\n      swap2\n      swap1\n      pop\n      jump\t// out\n        /* \"#utility.yul\":9159:9578   */\n    tag_110:\n        /* \"#utility.yul\":9325:9329   */\n      0x00\n        /* \"#utility.yul\":9363:9365   */\n      0x20\n        /* \"#utility.yul\":9352:9361   */\n      dup3\n        /* \"#utility.yul\":9348:9366   */\n      add\n        /* \"#utility.yul\":9340:9366   */\n      swap1\n      pop\n        /* \"#utility.yul\":9412:9421   */\n      dup2\n        /* \"#utility.yul\":9406:9410   */\n      dup2\n        /* \"#utility.yul\":9402:9422   */\n      sub\n        /* \"#utility.yul\":9398:9399   */\n      0x00\n        /* \"#utility.yul\":9387:9396   */\n      dup4\n        /* \"#utility.yul\":9383:9400   */\n      add\n        /* \"#utility.yul\":9376:9423   */\n      mstore\n        /* \"#utility.yul\":9440:9571   */\n      tag_273\n        /* \"#utility.yul\":9566:9570   */\n      dup2\n        /* \"#utility.yul\":9440:9571   */\n      tag_178\n      jump\t// in\n    tag_273:\n        /* \"#utility.yul\":9432:9571   */\n      swap1\n      pop\n        /* \"#utility.yul\":9159:9578   */\n      swap2\n      swap1\n      pop\n      jump\t// out\n        /* \"#utility.yul\":9584:9778   */\n    tag_112:\n        /* \"#utility.yul\":9624:9628   */\n      0x00\n        /* \"#utility.yul\":9644:9664   */\n      tag_275\n        /* \"#utility.yul\":9662:9663   */\n      dup3\n        /* \"#utility.yul\":9644:9664   */\n      tag_163\n      jump\t// in\n    tag_275:\n        /* \"#utility.yul\":9639:9664   */\n      swap2\n      pop\n        /* \"#utility.yul\":9678:9698   */\n      tag_276\n        /* \"#utility.yul\":9696:9697   */\n      dup4\n        /* \"#utility.yul\":9678:9698   */\n      tag_163\n      jump\t// in\n    tag_276:\n        /* \"#utility.yul\":9673:9698   */\n      swap3\n      pop\n        /* \"#utility.yul\":9722:9723   */\n      dup3\n        /* \"#utility.yul\":9719:9720   */\n      dup3\n        /* \"#utility.yul\":9715:9724   */\n      sub\n        /* \"#utility.yul\":9707:9724   */\n      swap1\n      pop\n        /* \"#utility.yul\":9746:9747   */\n      dup2\n        /* \"#utility.yul\":9740:9744   */\n      dup2\n        /* \"#utility.yul\":9737:9748   */\n      gt\n        /* \"#utility.yul\":9734:9771   */\n      iszero\n      tag_277\n      jumpi\n        /* \"#utility.yul\":9751:9769   */\n      tag_278\n      tag_174\n      jump\t// in\n    tag_278:\n        /* \"#utility.yul\":9734:9771   */\n    tag_277:\n        /* \"#utility.yul\":9584:9778   */\n      swap3\n      swap2\n      pop\n      pop\n      jump\t// out\n\n    auxdata: 0xa2646970667358221220ed85cecae1d7a701eb07f2061dcb108a39db6c8ec8bbec7f2e717c0d0dc7c5e164736f6c63430008120033\n}\n",
				"bytecode": {
					"linkReferences": {},
					"object": "60806040523480156200001157600080fd5b506040518060400160405280600c81526020017f447265616d6361746368657200000000000000000000000000000000000000008152506000800160000190816200005d919062000714565b506040518060400160405280600581526020017f445245414d000000000000000000000000000000000000000000000000000000815250600080016001019081620000a9919062000714565b5060126000800160020160006101000a81548160ff021916908360ff1602179055506000806000016003018190555033600e60000160006101000a81548173ffffffffffffffffffffffffffffffffffffffff021916908373ffffffffffffffffffffffffffffffffffffffff16021790555060016000600b016000016000600e60000160009054906101000a900473ffffffffffffffffffffffffffffffffffffffff1673ffffffffffffffffffffffffffffffffffffffff1673ffffffffffffffffffffffffffffffffffffffff16815260200190815260200160002060006101000a81548160ff0219169083151502179055506000600e600101600001600001819055506000600e600101600001600101819055506000600e600101600001600201819055506000800160020160009054906101000a900460ff16600a620001f591906200098b565b612710620002049190620009dc565b600e600101600001600301819055506000800160020160009054906101000a900460ff16600a6200023691906200098b565b612710620002459190620009dc565b600e600101600001600401819055506000800160020160009054906101000a900460ff16600a6200027791906200098b565b612710620002869190620009dc565b600e60010160000160050181905550620002ce600e60000160009054906101000a900473ffffffffffffffffffffffffffffffffffffffff1661ea60620002d460201b60201c565b62000b39565b600115156000600b0160000160003373ffffffffffffffffffffffffffffffffffffffff1673ffffffffffffffffffffffffffffffffffffffff16815260200190815260200160002060009054906101000a900460ff1615151462000370576040517f08c379a0000000000000000000000000000000000000000000000000000000008152600401620003679062000aae565b60405180910390fd5b80600060050160008473ffffffffffffffffffffffffffffffffffffffff1673ffffffffffffffffffffffffffffffffffffffff1681526020019081526020016000206000828254620003c4919062000ad0565b9250508190555080600060080160008473ffffffffffffffffffffffffffffffffffffffff1673ffffffffffffffffffffffffffffffffffffffff16815260200190815260200160002060008282546200041f919062000ad0565b92505081905550806000800160030160008282546200043f919062000ad0565b925050819055508173ffffffffffffffffffffffffffffffffffffffff167f0f6798a560793a54c3bcfe86a93cde1e73087d944c0ea20544137d4121396885826040516200048e919062000b1c565b60405180910390a25050565b600081519050919050565b7f4e487b7100000000000000000000000000000000000000000000000000000000600052604160045260246000fd5b7f4e487b7100000000000000000000000000000000000000000000000000000000600052602260045260246000fd5b600060028204905060018216806200051c57607f821691505b602082108103620005325762000531620004d4565b5b50919050565b60008190508160005260206000209050919050565b60006020601f8301049050919050565b600082821b905092915050565b6000600883026200059c7fffffffffffffffffffffffffffffffffffffffffffffffffffffffffffffffff826200055d565b620005a886836200055d565b95508019841693508086168417925050509392505050565b6000819050919050565b6000819050919050565b6000620005f5620005ef620005e984620005c0565b620005ca565b620005c0565b9050919050565b6000819050919050565b6200061183620005d4565b620006296200062082620005fc565b8484546200056a565b825550505050565b600090565b6200064062000631565b6200064d81848462000606565b505050565b5b8181101562000675576200066960008262000636565b60018101905062000653565b5050565b601f821115620006c4576200068e8162000538565b62000699846200054d565b81016020851015620006a9578190505b620006c1620006b8856200054d565b83018262000652565b50505b505050565b600082821c905092915050565b6000620006e960001984600802620006c9565b1980831691505092915050565b6000620007048383620006d6565b9150826002028217905092915050565b6200071f826200049a565b67ffffffffffffffff8111156200073b576200073a620004a5565b5b62000747825462000503565b6200075482828562000679565b600060209050601f8311600181146200078c576000841562000777578287015190505b620007838582620006f6565b865550620007f3565b601f1984166200079c8662000538565b60005b82811015620007c6578489015182556001820191506020850194506020810190506200079f565b86831015620007e65784890151620007e2601f891682620006d6565b8355505b6001600288020188555050505b505050505050565b7f4e487b7100000000000000000000000000000000000000000000000000000000600052601160045260246000fd5b60008160011c9050919050565b6000808291508390505b60018511156200088957808604811115620008615762000860620007fb565b5b6001851615620008715780820291505b808102905062000881856200082a565b945062000841565b94509492505050565b600082620008a4576001905062000977565b81620008b4576000905062000977565b8160018114620008cd5760028114620008d8576200090e565b600191505062000977565b60ff841115620008ed57620008ec620007fb565b5b8360020a915084821115620009075762000906620007fb565b5b5062000977565b5060208310610133831016604e8410600b8410161715620009485782820a905083811115620009425762000941620007fb565b5b62000977565b62000957848484600162000837565b92509050818404811115620009715762000970620007fb565b5b81810290505b9392505050565b600060ff82169050919050565b60006200099882620005c0565b9150620009a5836200097e565b9250620009d47fffffffffffffffffffffffffffffffffffffffffffffffffffffffffffffffff848462000892565b905092915050565b6000620009e982620005c0565b9150620009f683620005c0565b925082820262000a0681620005c0565b9150828204841483151762000a205762000a1f620007fb565b5b5092915050565b600082825260208201905092915050565b7f4d757374206265206163636573736564207468726f75676820612070726f706f60008201527f73616c0000000000000000000000000000000000000000000000000000000000602082015250565b600062000a9660238362000a27565b915062000aa38262000a38565b604082019050919050565b6000602082019050818103600083015262000ac98162000a87565b9050919050565b600062000add82620005c0565b915062000aea83620005c0565b925082820190508082111562000b055762000b04620007fb565b5b92915050565b62000b1681620005c0565b82525050565b600060208201905062000b33600083018462000b0b565b92915050565b6118a58062000b496000396000f3fe608060405234801561001057600080fd5b50600436106100f55760003560e01c806370a0823111610097578063c333663811610066578063c33366381461029a578063dd62ed3e146102ca578063f1fb5d9d146102fa578063faeae2f114610316576100f5565b806370a082311461020057806395d89b41146102305780639dc29fac1461024e578063a9059cbb1461026a576100f5565b8063313ce567116100d3578063313ce5671461016657806335c80c8c1461018457806340c10f19146101b457806363b0545f146101d0576100f5565b806306fdde03146100fa578063095ea7b31461011857806318160ddd14610148575b600080fd5b610102610346565b60405161010f9190611396565b60405180910390f35b610132600480360381019061012d9190611451565b6103dd565b60405161013f91906114ac565b60405180910390f35b6101506104d2565b60405161015d91906114d6565b60405180910390f35b61016e6104e1565b60405161017b919061150d565b60405180910390f35b61019e60048036038101906101999190611528565b6104fd565b6040516101ab91906114ac565b60405180910390f35b6101ce60048036038101906101c99190611451565b610558565b005b6101ea60048036038101906101e59190611555565b610713565b6040516101f791906114ac565b60405180910390f35b61021a60048036038101906102159190611528565b610ac6565b60405161022791906114d6565b60405180910390f35b610238610b11565b6040516102459190611396565b60405180910390f35b61026860048036038101906102639190611451565b610ba8565b005b610284600480360381019061027f9190611451565b610d63565b60405161029191906114ac565b60405180910390f35b6102b460048036038101906102af9190611528565b610fbd565b6040516102c191906114ac565b60405180910390f35b6102e460048036038101906102df91906115a8565b611018565b6040516102f191906114d6565b60405180910390f35b610314600480360381019061030f9190611528565b6110a1565b005b610330600480360381019061032b9190611528565b6112bb565b60405161033d91906114d6565b60405180910390f35b606060008001600001805461035a90611617565b80601f016020809104026020016040519081016040528092919081815260200182805461038690611617565b80156103d35780601f106103a8576101008083540402835291602001916103d3565b820191906000526020600020905b8154815290600101906020018083116103b657829003601f168201915b5050505050905090565b600081600060090160003373ffffffffffffffffffffffffffffffffffffffff1673ffffffffffffffffffffffffffffffffffffffff16815260200190815260200160002060008573ffffffffffffffffffffffffffffffffffffffff1673ffffffffffffffffffffffffffffffffffffffff168152602001908152602001600020819055508273ffffffffffffffffffffffffffffffffffffffff163373ffffffffffffffffffffffffffffffffffffffff167f8c5be1e5ebec7d5bd14f71427d1e84f3dd0314c0f7b2291e5b200ac8c7c3b925846040516104c091906114d6565b60405180910390a36001905092915050565b60008060000160030154905090565b60008060000160020160009054906101000a900460ff16905090565b600080600b0160000160008373ffffffffffffffffffffffffffffffffffffffff1673ffffffffffffffffffffffffffffffffffffffff16815260200190815260200160002060009054906101000a900460ff169050919050565b600115156000600b0160000160003373ffffffffffffffffffffffffffffffffffffffff1673ffffffffffffffffffffffffffffffffffffffff16815260200190815260200160002060009054906101000a900460ff161515146105f1576040517f08c379a00000000000000000000000000000000000000000000000000000000081526004016105e8906116ba565b60405180910390fd5b80600060050160008473ffffffffffffffffffffffffffffffffffffffff1673ffffffffffffffffffffffffffffffffffffffff16815260200190815260200160002060008282546106439190611709565b9250508190555080600060080160008473ffffffffffffffffffffffffffffffffffffffff1673ffffffffffffffffffffffffffffffffffffffff168152602001908152602001600020600082825461069c9190611709565b92505081905550806000800160030160008282546106ba9190611709565b925050819055508173ffffffffffffffffffffffffffffffffffffffff167f0f6798a560793a54c3bcfe86a93cde1e73087d944c0ea20544137d41213968858260405161070791906114d6565b60405180910390a25050565b600081600060050160008673ffffffffffffffffffffffffffffffffffffffff1673ffffffffffffffffffffffffffffffffffffffff16815260200190815260200160002054101561079a576040517f08c379a000000000000000000000000000000000000000000000000000000000815260040161079190611789565b60405180910390fd5b81600060090160008673ffffffffffffffffffffffffffffffffffffffff1673ffffffffffffffffffffffffffffffffffffffff16815260200190815260200160002060003373ffffffffffffffffffffffffffffffffffffffff1673ffffffffffffffffffffffffffffffffffffffff16815260200190815260200160002054101561085c576040517f08c379a00000000000000000000000000000000000000000000000000000000081526004016108539061181b565b60405180910390fd5b81600060050160008673ffffffffffffffffffffffffffffffffffffffff1673ffffffffffffffffffffffffffffffffffffffff16815260200190815260200160002060008282546108ae919061183b565b9250508190555081600060080160008673ffffffffffffffffffffffffffffffffffffffff1673ffffffffffffffffffffffffffffffffffffffff1681526020019081526020016000206000828254610907919061183b565b9250508190555081600060050160008573ffffffffffffffffffffffffffffffffffffffff1673ffffffffffffffffffffffffffffffffffffffff16815260200190815260200160002060008282546109609190611709565b9250508190555081600060080160008573ffffffffffffffffffffffffffffffffffffffff1673ffffffffffffffffffffffffffffffffffffffff16815260200190815260200160002060008282546109b99190611709565b9250508190555081600060090160008673ffffffffffffffffffffffffffffffffffffffff1673ffffffffffffffffffffffffffffffffffffffff16815260200190815260200160002060003373ffffffffffffffffffffffffffffffffffffffff1673ffffffffffffffffffffffffffffffffffffffff1681526020019081526020016000206000828254610a4f919061183b565b925050819055508273ffffffffffffffffffffffffffffffffffffffff168473ffffffffffffffffffffffffffffffffffffffff167fddf252ad1be2c89b69c2b068fc378daa952ba7f163c4a11628f55a4df523b3ef84604051610ab391906114d6565b60405180910390a3600190509392505050565b60008060050160008373ffffffffffffffffffffffffffffffffffffffff1673ffffffffffffffffffffffffffffffffffffffff168152602001908152602001600020549050919050565b6060600080016001018054610b2590611617565b80601f0160208091040260200160405190810160405280929190818152602001828054610b5190611617565b8015610b9e5780601f10610b7357610100808354040283529160200191610b9e565b820191906000526020600020905b815481529060010190602001808311610b8157829003601f168201915b5050505050905090565b600115156000600b0160000160003373ffffffffffffffffffffffffffffffffffffffff1673ffffffffffffffffffffffffffffffffffffffff16815260200190815260200160002060009054906101000a900460ff16151514610c41576040517f08c379a0000000000000000000000000000000000000000000000000000000008152600401610c38906116ba565b60405180910390fd5b80600060050160008473ffffffffffffffffffffffffffffffffffffffff1673ffffffffffffffffffffffffffffffffffffffff1681526020019081526020016000206000828254610c93919061183b565b9250508190555080600060080160008473ffffffffffffffffffffffffffffffffffffffff1673ffffffffffffffffffffffffffffffffffffffff1681526020019081526020016000206000828254610cec919061183b565b9250508190555080600080016003016000828254610d0a919061183b565b925050819055508173ffffffffffffffffffffffffffffffffffffffff167fcc16f5dbb4873280815c1ee09dbd06736cffcc184412cf7a71a0fdb75d397ca582604051610d5791906114d6565b60405180910390a25050565b600081600060050160003373ffffffffffffffffffffffffffffffffffffffff1673ffffffffffffffffffffffffffffffffffffffff168152602001908152602001600020541015610dea576040517f08c379a0000000000000000000000000000000000000000000000000000000008152600401610de190611789565b60405180910390fd5b81600060050160003373ffffffffffffffffffffffffffffffffffffffff1673ffffffffffffffffffffffffffffffffffffffff1681526020019081526020016000206000828254610e3c919061183b565b9250508190555081600060080160003373ffffffffffffffffffffffffffffffffffffffff1673ffffffffffffffffffffffffffffffffffffffff1681526020019081526020016000206000828254610e95919061183b565b9250508190555081600060050160008573ffffffffffffffffffffffffffffffffffffffff1673ffffffffffffffffffffffffffffffffffffffff1681526020019081526020016000206000828254610eee9190611709565b9250508190555081600060080160008573ffffffffffffffffffffffffffffffffffffffff1673ffffffffffffffffffffffffffffffffffffffff1681526020019081526020016000206000828254610f479190611709565b925050819055508273ffffffffffffffffffffffffffffffffffffffff163373ffffffffffffffffffffffffffffffffffffffff167fddf252ad1be2c89b69c2b068fc378daa952ba7f163c4a11628f55a4df523b3ef84604051610fab91906114d6565b60405180910390a36001905092915050565b600080600b0160010160008373ffffffffffffffffffffffffffffffffffffffff1673ffffffffffffffffffffffffffffffffffffffff16815260200190815260200160002060009054906101000a900460ff169050919050565b60008060090160008473ffffffffffffffffffffffffffffffffffffffff1673ffffffffffffffffffffffffffffffffffffffff16815260200190815260200160002060008373ffffffffffffffffffffffffffffffffffffffff1673ffffffffffffffffffffffffffffffffffffffff16815260200190815260200160002054905092915050565b600115156000600b0160000160003373ffffffffffffffffffffffffffffffffffffffff1673ffffffffffffffffffffffffffffffffffffffff16815260200190815260200160002060009054906101000a900460ff1615151461113a576040517f08c379a0000000000000000000000000000000000000000000000000000000008152600401611131906116ba565b60405180910390fd5b600115156000600b0160010160008373ffffffffffffffffffffffffffffffffffffffff1673ffffffffffffffffffffffffffffffffffffffff16815260200190815260200160002060009054906101000a900460ff161515036111fa57600080600b0160010160008373ffffffffffffffffffffffffffffffffffffffff1673ffffffffffffffffffffffffffffffffffffffff16815260200190815260200160002060006101000a81548160ff0219169083151502179055506112b8565b600015156000600b0160010160008373ffffffffffffffffffffffffffffffffffffffff1673ffffffffffffffffffffffffffffffffffffffff16815260200190815260200160002060009054906101000a900460ff161515036112b75760016000600b0160010160008373ffffffffffffffffffffffffffffffffffffffff1673ffffffffffffffffffffffffffffffffffffffff16815260200190815260200160002060006101000a81548160ff0219169083151502179055505b5b50565b60008060080160008373ffffffffffffffffffffffffffffffffffffffff1673ffffffffffffffffffffffffffffffffffffffff168152602001908152602001600020549050919050565b600081519050919050565b600082825260208201905092915050565b60005b83811015611340578082015181840152602081019050611325565b60008484015250505050565b6000601f19601f8301169050919050565b600061136882611306565b6113728185611311565b9350611382818560208601611322565b61138b8161134c565b840191505092915050565b600060208201905081810360008301526113b0818461135d565b905092915050565b600080fd5b600073ffffffffffffffffffffffffffffffffffffffff82169050919050565b60006113e8826113bd565b9050919050565b6113f8816113dd565b811461140357600080fd5b50565b600081359050611415816113ef565b92915050565b6000819050919050565b61142e8161141b565b811461143957600080fd5b50565b60008135905061144b81611425565b92915050565b60008060408385031215611468576114676113b8565b5b600061147685828601611406565b92505060206114878582860161143c565b9150509250929050565b60008115159050919050565b6114a681611491565b82525050565b60006020820190506114c1600083018461149d565b92915050565b6114d08161141b565b82525050565b60006020820190506114eb60008301846114c7565b92915050565b600060ff82169050919050565b611507816114f1565b82525050565b600060208201905061152260008301846114fe565b92915050565b60006020828403121561153e5761153d6113b8565b5b600061154c84828501611406565b91505092915050565b60008060006060848603121561156e5761156d6113b8565b5b600061157c86828701611406565b935050602061158d86828701611406565b925050604061159e8682870161143c565b9150509250925092565b600080604083850312156115bf576115be6113b8565b5b60006115cd85828601611406565b92505060206115de85828601611406565b9150509250929050565b7f4e487b7100000000000000000000000000000000000000000000000000000000600052602260045260246000fd5b6000600282049050600182168061162f57607f821691505b602082108103611642576116416115e8565b5b50919050565b7f4d757374206265206163636573736564207468726f75676820612070726f706f60008201527f73616c0000000000000000000000000000000000000000000000000000000000602082015250565b60006116a4602383611311565b91506116af82611648565b604082019050919050565b600060208201905081810360008301526116d381611697565b9050919050565b7f4e487b7100000000000000000000000000000000000000000000000000000000600052601160045260246000fd5b60006117148261141b565b915061171f8361141b565b9250828201905080821115611737576117366116da565b5b92915050565b7f496e73756666696369656e742062616c616e6365000000000000000000000000600082015250565b6000611773601483611311565b915061177e8261173d565b602082019050919050565b600060208201905081810360008301526117a281611766565b9050919050565b7f5472616e7366657220616d6f756e74206578636565647320616c6c6f77616e6360008201527f6500000000000000000000000000000000000000000000000000000000000000602082015250565b6000611805602183611311565b9150611810826117a9565b604082019050919050565b60006020820190508181036000830152611834816117f8565b9050919050565b60006118468261141b565b91506118518361141b565b9250828203905081811115611869576118686116da565b5b9291505056fea2646970667358221220ed85cecae1d7a701eb07f2061dcb108a39db6c8ec8bbec7f2e717c0d0dc7c5e164736f6c63430008120033",
					"opcodes": "PUSH1 0x80 PUSH1 0x40 MSTORE CALLVALUE DUP1 ISZERO PUSH3 0x11 JUMPI PUSH1 0x0 DUP1 REVERT JUMPDEST POP PUSH1 0x40 MLOAD DUP1 PUSH1 0x40 ADD PUSH1 0x40 MSTORE DUP1 PUSH1 0xC DUP2 MSTORE PUSH1 0x20 ADD PUSH32 0x447265616D636174636865720000000000000000000000000000000000000000 DUP2 MSTORE POP PUSH1 0x0 DUP1 ADD PUSH1 0x0 ADD SWAP1 DUP2 PUSH3 0x5D SWAP2 SWAP1 PUSH3 0x714 JUMP JUMPDEST POP PUSH1 0x40 MLOAD DUP1 PUSH1 0x40 ADD PUSH1 0x40 MSTORE DUP1 PUSH1 0x5 DUP2 MSTORE PUSH1 0x20 ADD PUSH32 0x445245414D000000000000000000000000000000000000000000000000000000 DUP2 MSTORE POP PUSH1 0x0 DUP1 ADD PUSH1 0x1 ADD SWAP1 DUP2 PUSH3 0xA9 SWAP2 SWAP1 PUSH3 0x714 JUMP JUMPDEST POP PUSH1 0x12 PUSH1 0x0 DUP1 ADD PUSH1 0x2 ADD PUSH1 0x0 PUSH2 0x100 EXP DUP2 SLOAD DUP2 PUSH1 0xFF MUL NOT AND SWAP1 DUP4 PUSH1 0xFF AND MUL OR SWAP1 SSTORE POP PUSH1 0x0 DUP1 PUSH1 0x0 ADD PUSH1 0x3 ADD DUP2 SWAP1 SSTORE POP CALLER PUSH1 0xE PUSH1 0x0 ADD PUSH1 0x0 PUSH2 0x100 EXP DUP2 SLOAD DUP2 PUSH20 0xFFFFFFFFFFFFFFFFFFFFFFFFFFFFFFFFFFFFFFFF MUL NOT AND SWAP1 DUP4 PUSH20 0xFFFFFFFFFFFFFFFFFFFFFFFFFFFFFFFFFFFFFFFF AND MUL OR SWAP1 SSTORE POP PUSH1 0x1 PUSH1 0x0 PUSH1 0xB ADD PUSH1 0x0 ADD PUSH1 0x0 PUSH1 0xE PUSH1 0x0 ADD PUSH1 0x0 SWAP1 SLOAD SWAP1 PUSH2 0x100 EXP SWAP1 DIV PUSH20 0xFFFFFFFFFFFFFFFFFFFFFFFFFFFFFFFFFFFFFFFF AND PUSH20 0xFFFFFFFFFFFFFFFFFFFFFFFFFFFFFFFFFFFFFFFF AND PUSH20 0xFFFFFFFFFFFFFFFFFFFFFFFFFFFFFFFFFFFFFFFF AND DUP2 MSTORE PUSH1 0x20 ADD SWAP1 DUP2 MSTORE PUSH1 0x20 ADD PUSH1 0x0 KECCAK256 PUSH1 0x0 PUSH2 0x100 EXP DUP2 SLOAD DUP2 PUSH1 0xFF MUL NOT AND SWAP1 DUP4 ISZERO ISZERO MUL OR SWAP1 SSTORE POP PUSH1 0x0 PUSH1 0xE PUSH1 0x1 ADD PUSH1 0x0 ADD PUSH1 0x0 ADD DUP2 SWAP1 SSTORE POP PUSH1 0x0 PUSH1 0xE PUSH1 0x1 ADD PUSH1 0x0 ADD PUSH1 0x1 ADD DUP2 SWAP1 SSTORE POP PUSH1 0x0 PUSH1 0xE PUSH1 0x1 ADD PUSH1 0x0 ADD PUSH1 0x2 ADD DUP2 SWAP1 SSTORE POP PUSH1 0x0 DUP1 ADD PUSH1 0x2 ADD PUSH1 0x0 SWAP1 SLOAD SWAP1 PUSH2 0x100 EXP SWAP1 DIV PUSH1 0xFF AND PUSH1 0xA PUSH3 0x1F5 SWAP2 SWAP1 PUSH3 0x98B JUMP JUMPDEST PUSH2 0x2710 PUSH3 0x204 SWAP2 SWAP1 PUSH3 0x9DC JUMP JUMPDEST PUSH1 0xE PUSH1 0x1 ADD PUSH1 0x0 ADD PUSH1 0x3 ADD DUP2 SWAP1 SSTORE POP PUSH1 0x0 DUP1 ADD PUSH1 0x2 ADD PUSH1 0x0 SWAP1 SLOAD SWAP1 PUSH2 0x100 EXP SWAP1 DIV PUSH1 0xFF AND PUSH1 0xA PUSH3 0x236 SWAP2 SWAP1 PUSH3 0x98B JUMP JUMPDEST PUSH2 0x2710 PUSH3 0x245 SWAP2 SWAP1 PUSH3 0x9DC JUMP JUMPDEST PUSH1 0xE PUSH1 0x1 ADD PUSH1 0x0 ADD PUSH1 0x4 ADD DUP2 SWAP1 SSTORE POP PUSH1 0x0 DUP1 ADD PUSH1 0x2 ADD PUSH1 0x0 SWAP1 SLOAD SWAP1 PUSH2 0x100 EXP SWAP1 DIV PUSH1 0xFF AND PUSH1 0xA PUSH3 0x277 SWAP2 SWAP1 PUSH3 0x98B JUMP JUMPDEST PUSH2 0x2710 PUSH3 0x286 SWAP2 SWAP1 PUSH3 0x9DC JUMP JUMPDEST PUSH1 0xE PUSH1 0x1 ADD PUSH1 0x0 ADD PUSH1 0x5 ADD DUP2 SWAP1 SSTORE POP PUSH3 0x2CE PUSH1 0xE PUSH1 0x0 ADD PUSH1 0x0 SWAP1 SLOAD SWAP1 PUSH2 0x100 EXP SWAP1 DIV PUSH20 0xFFFFFFFFFFFFFFFFFFFFFFFFFFFFFFFFFFFFFFFF AND PUSH2 0xEA60 PUSH3 0x2D4 PUSH1 0x20 SHL PUSH1 0x20 SHR JUMP JUMPDEST PUSH3 0xB39 JUMP JUMPDEST PUSH1 0x1 ISZERO ISZERO PUSH1 0x0 PUSH1 0xB ADD PUSH1 0x0 ADD PUSH1 0x0 CALLER PUSH20 0xFFFFFFFFFFFFFFFFFFFFFFFFFFFFFFFFFFFFFFFF AND PUSH20 0xFFFFFFFFFFFFFFFFFFFFFFFFFFFFFFFFFFFFFFFF AND DUP2 MSTORE PUSH1 0x20 ADD SWAP1 DUP2 MSTORE PUSH1 0x20 ADD PUSH1 0x0 KECCAK256 PUSH1 0x0 SWAP1 SLOAD SWAP1 PUSH2 0x100 EXP SWAP1 DIV PUSH1 0xFF AND ISZERO ISZERO EQ PUSH3 0x370 JUMPI PUSH1 0x40 MLOAD PUSH32 0x8C379A000000000000000000000000000000000000000000000000000000000 DUP2 MSTORE PUSH1 0x4 ADD PUSH3 0x367 SWAP1 PUSH3 0xAAE JUMP JUMPDEST PUSH1 0x40 MLOAD DUP1 SWAP2 SUB SWAP1 REVERT JUMPDEST DUP1 PUSH1 0x0 PUSH1 0x5 ADD PUSH1 0x0 DUP5 PUSH20 0xFFFFFFFFFFFFFFFFFFFFFFFFFFFFFFFFFFFFFFFF AND PUSH20 0xFFFFFFFFFFFFFFFFFFFFFFFFFFFFFFFFFFFFFFFF AND DUP2 MSTORE PUSH1 0x20 ADD SWAP1 DUP2 MSTORE PUSH1 0x20 ADD PUSH1 0x0 KECCAK256 PUSH1 0x0 DUP3 DUP3 SLOAD PUSH3 0x3C4 SWAP2 SWAP1 PUSH3 0xAD0 JUMP JUMPDEST SWAP3 POP POP DUP2 SWAP1 SSTORE POP DUP1 PUSH1 0x0 PUSH1 0x8 ADD PUSH1 0x0 DUP5 PUSH20 0xFFFFFFFFFFFFFFFFFFFFFFFFFFFFFFFFFFFFFFFF AND PUSH20 0xFFFFFFFFFFFFFFFFFFFFFFFFFFFFFFFFFFFFFFFF AND DUP2 MSTORE PUSH1 0x20 ADD SWAP1 DUP2 MSTORE PUSH1 0x20 ADD PUSH1 0x0 KECCAK256 PUSH1 0x0 DUP3 DUP3 SLOAD PUSH3 0x41F SWAP2 SWAP1 PUSH3 0xAD0 JUMP JUMPDEST SWAP3 POP POP DUP2 SWAP1 SSTORE POP DUP1 PUSH1 0x0 DUP1 ADD PUSH1 0x3 ADD PUSH1 0x0 DUP3 DUP3 SLOAD PUSH3 0x43F SWAP2 SWAP1 PUSH3 0xAD0 JUMP JUMPDEST SWAP3 POP POP DUP2 SWAP1 SSTORE POP DUP2 PUSH20 0xFFFFFFFFFFFFFFFFFFFFFFFFFFFFFFFFFFFFFFFF AND PUSH32 0xF6798A560793A54C3BCFE86A93CDE1E73087D944C0EA20544137D4121396885 DUP3 PUSH1 0x40 MLOAD PUSH3 0x48E SWAP2 SWAP1 PUSH3 0xB1C JUMP JUMPDEST PUSH1 0x40 MLOAD DUP1 SWAP2 SUB SWAP1 LOG2 POP POP JUMP JUMPDEST PUSH1 0x0 DUP2 MLOAD SWAP1 POP SWAP2 SWAP1 POP JUMP JUMPDEST PUSH32 0x4E487B7100000000000000000000000000000000000000000000000000000000 PUSH1 0x0 MSTORE PUSH1 0x41 PUSH1 0x4 MSTORE PUSH1 0x24 PUSH1 0x0 REVERT JUMPDEST PUSH32 0x4E487B7100000000000000000000000000000000000000000000000000000000 PUSH1 0x0 MSTORE PUSH1 0x22 PUSH1 0x4 MSTORE PUSH1 0x24 PUSH1 0x0 REVERT JUMPDEST PUSH1 0x0 PUSH1 0x2 DUP3 DIV SWAP1 POP PUSH1 0x1 DUP3 AND DUP1 PUSH3 0x51C JUMPI PUSH1 0x7F DUP3 AND SWAP2 POP JUMPDEST PUSH1 0x20 DUP3 LT DUP2 SUB PUSH3 0x532 JUMPI PUSH3 0x531 PUSH3 0x4D4 JUMP JUMPDEST JUMPDEST POP SWAP2 SWAP1 POP JUMP JUMPDEST PUSH1 0x0 DUP2 SWAP1 POP DUP2 PUSH1 0x0 MSTORE PUSH1 0x20 PUSH1 0x0 KECCAK256 SWAP1 POP SWAP2 SWAP1 POP JUMP JUMPDEST PUSH1 0x0 PUSH1 0x20 PUSH1 0x1F DUP4 ADD DIV SWAP1 POP SWAP2 SWAP1 POP JUMP JUMPDEST PUSH1 0x0 DUP3 DUP3 SHL SWAP1 POP SWAP3 SWAP2 POP POP JUMP JUMPDEST PUSH1 0x0 PUSH1 0x8 DUP4 MUL PUSH3 0x59C PUSH32 0xFFFFFFFFFFFFFFFFFFFFFFFFFFFFFFFFFFFFFFFFFFFFFFFFFFFFFFFFFFFFFFFF DUP3 PUSH3 0x55D JUMP JUMPDEST PUSH3 0x5A8 DUP7 DUP4 PUSH3 0x55D JUMP JUMPDEST SWAP6 POP DUP1 NOT DUP5 AND SWAP4 POP DUP1 DUP7 AND DUP5 OR SWAP3 POP POP POP SWAP4 SWAP3 POP POP POP JUMP JUMPDEST PUSH1 0x0 DUP2 SWAP1 POP SWAP2 SWAP1 POP JUMP JUMPDEST PUSH1 0x0 DUP2 SWAP1 POP SWAP2 SWAP1 POP JUMP JUMPDEST PUSH1 0x0 PUSH3 0x5F5 PUSH3 0x5EF PUSH3 0x5E9 DUP5 PUSH3 0x5C0 JUMP JUMPDEST PUSH3 0x5CA JUMP JUMPDEST PUSH3 0x5C0 JUMP JUMPDEST SWAP1 POP SWAP2 SWAP1 POP JUMP JUMPDEST PUSH1 0x0 DUP2 SWAP1 POP SWAP2 SWAP1 POP JUMP JUMPDEST PUSH3 0x611 DUP4 PUSH3 0x5D4 JUMP JUMPDEST PUSH3 0x629 PUSH3 0x620 DUP3 PUSH3 0x5FC JUMP JUMPDEST DUP5 DUP5 SLOAD PUSH3 0x56A JUMP JUMPDEST DUP3 SSTORE POP POP POP POP JUMP JUMPDEST PUSH1 0x0 SWAP1 JUMP JUMPDEST PUSH3 0x640 PUSH3 0x631 JUMP JUMPDEST PUSH3 0x64D DUP2 DUP5 DUP5 PUSH3 0x606 JUMP JUMPDEST POP POP POP JUMP JUMPDEST JUMPDEST DUP2 DUP2 LT ISZERO PUSH3 0x675 JUMPI PUSH3 0x669 PUSH1 0x0 DUP3 PUSH3 0x636 JUMP JUMPDEST PUSH1 0x1 DUP2 ADD SWAP1 POP PUSH3 0x653 JUMP JUMPDEST POP POP JUMP JUMPDEST PUSH1 0x1F DUP3 GT ISZERO PUSH3 0x6C4 JUMPI PUSH3 0x68E DUP2 PUSH3 0x538 JUMP JUMPDEST PUSH3 0x699 DUP5 PUSH3 0x54D JUMP JUMPDEST DUP2 ADD PUSH1 0x20 DUP6 LT ISZERO PUSH3 0x6A9 JUMPI DUP2 SWAP1 POP JUMPDEST PUSH3 0x6C1 PUSH3 0x6B8 DUP6 PUSH3 0x54D JUMP JUMPDEST DUP4 ADD DUP3 PUSH3 0x652 JUMP JUMPDEST POP POP JUMPDEST POP POP POP JUMP JUMPDEST PUSH1 0x0 DUP3 DUP3 SHR SWAP1 POP SWAP3 SWAP2 POP POP JUMP JUMPDEST PUSH1 0x0 PUSH3 0x6E9 PUSH1 0x0 NOT DUP5 PUSH1 0x8 MUL PUSH3 0x6C9 JUMP JUMPDEST NOT DUP1 DUP4 AND SWAP2 POP POP SWAP3 SWAP2 POP POP JUMP JUMPDEST PUSH1 0x0 PUSH3 0x704 DUP4 DUP4 PUSH3 0x6D6 JUMP JUMPDEST SWAP2 POP DUP3 PUSH1 0x2 MUL DUP3 OR SWAP1 POP SWAP3 SWAP2 POP POP JUMP JUMPDEST PUSH3 0x71F DUP3 PUSH3 0x49A JUMP JUMPDEST PUSH8 0xFFFFFFFFFFFFFFFF DUP2 GT ISZERO PUSH3 0x73B JUMPI PUSH3 0x73A PUSH3 0x4A5 JUMP JUMPDEST JUMPDEST PUSH3 0x747 DUP3 SLOAD PUSH3 0x503 JUMP JUMPDEST PUSH3 0x754 DUP3 DUP3 DUP6 PUSH3 0x679 JUMP JUMPDEST PUSH1 0x0 PUSH1 0x20 SWAP1 POP PUSH1 0x1F DUP4 GT PUSH1 0x1 DUP2 EQ PUSH3 0x78C JUMPI PUSH1 0x0 DUP5 ISZERO PUSH3 0x777 JUMPI DUP3 DUP8 ADD MLOAD SWAP1 POP JUMPDEST PUSH3 0x783 DUP6 DUP3 PUSH3 0x6F6 JUMP JUMPDEST DUP7 SSTORE POP PUSH3 0x7F3 JUMP JUMPDEST PUSH1 0x1F NOT DUP5 AND PUSH3 0x79C DUP7 PUSH3 0x538 JUMP JUMPDEST PUSH1 0x0 JUMPDEST DUP3 DUP2 LT ISZERO PUSH3 0x7C6 JUMPI DUP5 DUP10 ADD MLOAD DUP3 SSTORE PUSH1 0x1 DUP3 ADD SWAP2 POP PUSH1 0x20 DUP6 ADD SWAP5 POP PUSH1 0x20 DUP2 ADD SWAP1 POP PUSH3 0x79F JUMP JUMPDEST DUP7 DUP4 LT ISZERO PUSH3 0x7E6 JUMPI DUP5 DUP10 ADD MLOAD PUSH3 0x7E2 PUSH1 0x1F DUP10 AND DUP3 PUSH3 0x6D6 JUMP JUMPDEST DUP4 SSTORE POP JUMPDEST PUSH1 0x1 PUSH1 0x2 DUP9 MUL ADD DUP9 SSTORE POP POP POP JUMPDEST POP POP POP POP POP POP JUMP JUMPDEST PUSH32 0x4E487B7100000000000000000000000000000000000000000000000000000000 PUSH1 0x0 MSTORE PUSH1 0x11 PUSH1 0x4 MSTORE PUSH1 0x24 PUSH1 0x0 REVERT JUMPDEST PUSH1 0x0 DUP2 PUSH1 0x1 SHR SWAP1 POP SWAP2 SWAP1 POP JUMP JUMPDEST PUSH1 0x0 DUP1 DUP3 SWAP2 POP DUP4 SWAP1 POP JUMPDEST PUSH1 0x1 DUP6 GT ISZERO PUSH3 0x889 JUMPI DUP1 DUP7 DIV DUP2 GT ISZERO PUSH3 0x861 JUMPI PUSH3 0x860 PUSH3 0x7FB JUMP JUMPDEST JUMPDEST PUSH1 0x1 DUP6 AND ISZERO PUSH3 0x871 JUMPI DUP1 DUP3 MUL SWAP2 POP JUMPDEST DUP1 DUP2 MUL SWAP1 POP PUSH3 0x881 DUP6 PUSH3 0x82A JUMP JUMPDEST SWAP5 POP PUSH3 0x841 JUMP JUMPDEST SWAP5 POP SWAP5 SWAP3 POP POP POP JUMP JUMPDEST PUSH1 0x0 DUP3 PUSH3 0x8A4 JUMPI PUSH1 0x1 SWAP1 POP PUSH3 0x977 JUMP JUMPDEST DUP2 PUSH3 0x8B4 JUMPI PUSH1 0x0 SWAP1 POP PUSH3 0x977 JUMP JUMPDEST DUP2 PUSH1 0x1 DUP2 EQ PUSH3 0x8CD JUMPI PUSH1 0x2 DUP2 EQ PUSH3 0x8D8 JUMPI PUSH3 0x90E JUMP JUMPDEST PUSH1 0x1 SWAP2 POP POP PUSH3 0x977 JUMP JUMPDEST PUSH1 0xFF DUP5 GT ISZERO PUSH3 0x8ED JUMPI PUSH3 0x8EC PUSH3 0x7FB JUMP JUMPDEST JUMPDEST DUP4 PUSH1 0x2 EXP SWAP2 POP DUP5 DUP3 GT ISZERO PUSH3 0x907 JUMPI PUSH3 0x906 PUSH3 0x7FB JUMP JUMPDEST JUMPDEST POP PUSH3 0x977 JUMP JUMPDEST POP PUSH1 0x20 DUP4 LT PUSH2 0x133 DUP4 LT AND PUSH1 0x4E DUP5 LT PUSH1 0xB DUP5 LT AND OR ISZERO PUSH3 0x948 JUMPI DUP3 DUP3 EXP SWAP1 POP DUP4 DUP2 GT ISZERO PUSH3 0x942 JUMPI PUSH3 0x941 PUSH3 0x7FB JUMP JUMPDEST JUMPDEST PUSH3 0x977 JUMP JUMPDEST PUSH3 0x957 DUP5 DUP5 DUP5 PUSH1 0x1 PUSH3 0x837 JUMP JUMPDEST SWAP3 POP SWAP1 POP DUP2 DUP5 DIV DUP2 GT ISZERO PUSH3 0x971 JUMPI PUSH3 0x970 PUSH3 0x7FB JUMP JUMPDEST JUMPDEST DUP2 DUP2 MUL SWAP1 POP JUMPDEST SWAP4 SWAP3 POP POP POP JUMP JUMPDEST PUSH1 0x0 PUSH1 0xFF DUP3 AND SWAP1 POP SWAP2 SWAP1 POP JUMP JUMPDEST PUSH1 0x0 PUSH3 0x998 DUP3 PUSH3 0x5C0 JUMP JUMPDEST SWAP2 POP PUSH3 0x9A5 DUP4 PUSH3 0x97E JUMP JUMPDEST SWAP3 POP PUSH3 0x9D4 PUSH32 0xFFFFFFFFFFFFFFFFFFFFFFFFFFFFFFFFFFFFFFFFFFFFFFFFFFFFFFFFFFFFFFFF DUP5 DUP5 PUSH3 0x892 JUMP JUMPDEST SWAP1 POP SWAP3 SWAP2 POP POP JUMP JUMPDEST PUSH1 0x0 PUSH3 0x9E9 DUP3 PUSH3 0x5C0 JUMP JUMPDEST SWAP2 POP PUSH3 0x9F6 DUP4 PUSH3 0x5C0 JUMP JUMPDEST SWAP3 POP DUP3 DUP3 MUL PUSH3 0xA06 DUP2 PUSH3 0x5C0 JUMP JUMPDEST SWAP2 POP DUP3 DUP3 DIV DUP5 EQ DUP4 ISZERO OR PUSH3 0xA20 JUMPI PUSH3 0xA1F PUSH3 0x7FB JUMP JUMPDEST JUMPDEST POP SWAP3 SWAP2 POP POP JUMP JUMPDEST PUSH1 0x0 DUP3 DUP3 MSTORE PUSH1 0x20 DUP3 ADD SWAP1 POP SWAP3 SWAP2 POP POP JUMP JUMPDEST PUSH32 0x4D757374206265206163636573736564207468726F75676820612070726F706F PUSH1 0x0 DUP3 ADD MSTORE PUSH32 0x73616C0000000000000000000000000000000000000000000000000000000000 PUSH1 0x20 DUP3 ADD MSTORE POP JUMP JUMPDEST PUSH1 0x0 PUSH3 0xA96 PUSH1 0x23 DUP4 PUSH3 0xA27 JUMP JUMPDEST SWAP2 POP PUSH3 0xAA3 DUP3 PUSH3 0xA38 JUMP JUMPDEST PUSH1 0x40 DUP3 ADD SWAP1 POP SWAP2 SWAP1 POP JUMP JUMPDEST PUSH1 0x0 PUSH1 0x20 DUP3 ADD SWAP1 POP DUP2 DUP2 SUB PUSH1 0x0 DUP4 ADD MSTORE PUSH3 0xAC9 DUP2 PUSH3 0xA87 JUMP JUMPDEST SWAP1 POP SWAP2 SWAP1 POP JUMP JUMPDEST PUSH1 0x0 PUSH3 0xADD DUP3 PUSH3 0x5C0 JUMP JUMPDEST SWAP2 POP PUSH3 0xAEA DUP4 PUSH3 0x5C0 JUMP JUMPDEST SWAP3 POP DUP3 DUP3 ADD SWAP1 POP DUP1 DUP3 GT ISZERO PUSH3 0xB05 JUMPI PUSH3 0xB04 PUSH3 0x7FB JUMP JUMPDEST JUMPDEST SWAP3 SWAP2 POP POP JUMP JUMPDEST PUSH3 0xB16 DUP2 PUSH3 0x5C0 JUMP JUMPDEST DUP3 MSTORE POP POP JUMP JUMPDEST PUSH1 0x0 PUSH1 0x20 DUP3 ADD SWAP1 POP PUSH3 0xB33 PUSH1 0x0 DUP4 ADD DUP5 PUSH3 0xB0B JUMP JUMPDEST SWAP3 SWAP2 POP POP JUMP JUMPDEST PUSH2 0x18A5 DUP1 PUSH3 0xB49 PUSH1 0x0 CODECOPY PUSH1 0x0 RETURN INVALID PUSH1 0x80 PUSH1 0x40 MSTORE CALLVALUE DUP1 ISZERO PUSH2 0x10 JUMPI PUSH1 0x0 DUP1 REVERT JUMPDEST POP PUSH1 0x4 CALLDATASIZE LT PUSH2 0xF5 JUMPI PUSH1 0x0 CALLDATALOAD PUSH1 0xE0 SHR DUP1 PUSH4 0x70A08231 GT PUSH2 0x97 JUMPI DUP1 PUSH4 0xC3336638 GT PUSH2 0x66 JUMPI DUP1 PUSH4 0xC3336638 EQ PUSH2 0x29A JUMPI DUP1 PUSH4 0xDD62ED3E EQ PUSH2 0x2CA JUMPI DUP1 PUSH4 0xF1FB5D9D EQ PUSH2 0x2FA JUMPI DUP1 PUSH4 0xFAEAE2F1 EQ PUSH2 0x316 JUMPI PUSH2 0xF5 JUMP JUMPDEST DUP1 PUSH4 0x70A08231 EQ PUSH2 0x200 JUMPI DUP1 PUSH4 0x95D89B41 EQ PUSH2 0x230 JUMPI DUP1 PUSH4 0x9DC29FAC EQ PUSH2 0x24E JUMPI DUP1 PUSH4 0xA9059CBB EQ PUSH2 0x26A JUMPI PUSH2 0xF5 JUMP JUMPDEST DUP1 PUSH4 0x313CE567 GT PUSH2 0xD3 JUMPI DUP1 PUSH4 0x313CE567 EQ PUSH2 0x166 JUMPI DUP1 PUSH4 0x35C80C8C EQ PUSH2 0x184 JUMPI DUP1 PUSH4 0x40C10F19 EQ PUSH2 0x1B4 JUMPI DUP1 PUSH4 0x63B0545F EQ PUSH2 0x1D0 JUMPI PUSH2 0xF5 JUMP JUMPDEST DUP1 PUSH4 0x6FDDE03 EQ PUSH2 0xFA JUMPI DUP1 PUSH4 0x95EA7B3 EQ PUSH2 0x118 JUMPI DUP1 PUSH4 0x18160DDD EQ PUSH2 0x148 JUMPI JUMPDEST PUSH1 0x0 DUP1 REVERT JUMPDEST PUSH2 0x102 PUSH2 0x346 JUMP JUMPDEST PUSH1 0x40 MLOAD PUSH2 0x10F SWAP2 SWAP1 PUSH2 0x1396 JUMP JUMPDEST PUSH1 0x40 MLOAD DUP1 SWAP2 SUB SWAP1 RETURN JUMPDEST PUSH2 0x132 PUSH1 0x4 DUP1 CALLDATASIZE SUB DUP2 ADD SWAP1 PUSH2 0x12D SWAP2 SWAP1 PUSH2 0x1451 JUMP JUMPDEST PUSH2 0x3DD JUMP JUMPDEST PUSH1 0x40 MLOAD PUSH2 0x13F SWAP2 SWAP1 PUSH2 0x14AC JUMP JUMPDEST PUSH1 0x40 MLOAD DUP1 SWAP2 SUB SWAP1 RETURN JUMPDEST PUSH2 0x150 PUSH2 0x4D2 JUMP JUMPDEST PUSH1 0x40 MLOAD PUSH2 0x15D SWAP2 SWAP1 PUSH2 0x14D6 JUMP JUMPDEST PUSH1 0x40 MLOAD DUP1 SWAP2 SUB SWAP1 RETURN JUMPDEST PUSH2 0x16E PUSH2 0x4E1 JUMP JUMPDEST PUSH1 0x40 MLOAD PUSH2 0x17B SWAP2 SWAP1 PUSH2 0x150D JUMP JUMPDEST PUSH1 0x40 MLOAD DUP1 SWAP2 SUB SWAP1 RETURN JUMPDEST PUSH2 0x19E PUSH1 0x4 DUP1 CALLDATASIZE SUB DUP2 ADD SWAP1 PUSH2 0x199 SWAP2 SWAP1 PUSH2 0x1528 JUMP JUMPDEST PUSH2 0x4FD JUMP JUMPDEST PUSH1 0x40 MLOAD PUSH2 0x1AB SWAP2 SWAP1 PUSH2 0x14AC JUMP JUMPDEST PUSH1 0x40 MLOAD DUP1 SWAP2 SUB SWAP1 RETURN JUMPDEST PUSH2 0x1CE PUSH1 0x4 DUP1 CALLDATASIZE SUB DUP2 ADD SWAP1 PUSH2 0x1C9 SWAP2 SWAP1 PUSH2 0x1451 JUMP JUMPDEST PUSH2 0x558 JUMP JUMPDEST STOP JUMPDEST PUSH2 0x1EA PUSH1 0x4 DUP1 CALLDATASIZE SUB DUP2 ADD SWAP1 PUSH2 0x1E5 SWAP2 SWAP1 PUSH2 0x1555 JUMP JUMPDEST PUSH2 0x713 JUMP JUMPDEST PUSH1 0x40 MLOAD PUSH2 0x1F7 SWAP2 SWAP1 PUSH2 0x14AC JUMP JUMPDEST PUSH1 0x40 MLOAD DUP1 SWAP2 SUB SWAP1 RETURN JUMPDEST PUSH2 0x21A PUSH1 0x4 DUP1 CALLDATASIZE SUB DUP2 ADD SWAP1 PUSH2 0x215 SWAP2 SWAP1 PUSH2 0x1528 JUMP JUMPDEST PUSH2 0xAC6 JUMP JUMPDEST PUSH1 0x40 MLOAD PUSH2 0x227 SWAP2 SWAP1 PUSH2 0x14D6 JUMP JUMPDEST PUSH1 0x40 MLOAD DUP1 SWAP2 SUB SWAP1 RETURN JUMPDEST PUSH2 0x238 PUSH2 0xB11 JUMP JUMPDEST PUSH1 0x40 MLOAD PUSH2 0x245 SWAP2 SWAP1 PUSH2 0x1396 JUMP JUMPDEST PUSH1 0x40 MLOAD DUP1 SWAP2 SUB SWAP1 RETURN JUMPDEST PUSH2 0x268 PUSH1 0x4 DUP1 CALLDATASIZE SUB DUP2 ADD SWAP1 PUSH2 0x263 SWAP2 SWAP1 PUSH2 0x1451 JUMP JUMPDEST PUSH2 0xBA8 JUMP JUMPDEST STOP JUMPDEST PUSH2 0x284 PUSH1 0x4 DUP1 CALLDATASIZE SUB DUP2 ADD SWAP1 PUSH2 0x27F SWAP2 SWAP1 PUSH2 0x1451 JUMP JUMPDEST PUSH2 0xD63 JUMP JUMPDEST PUSH1 0x40 MLOAD PUSH2 0x291 SWAP2 SWAP1 PUSH2 0x14AC JUMP JUMPDEST PUSH1 0x40 MLOAD DUP1 SWAP2 SUB SWAP1 RETURN JUMPDEST PUSH2 0x2B4 PUSH1 0x4 DUP1 CALLDATASIZE SUB DUP2 ADD SWAP1 PUSH2 0x2AF SWAP2 SWAP1 PUSH2 0x1528 JUMP JUMPDEST PUSH2 0xFBD JUMP JUMPDEST PUSH1 0x40 MLOAD PUSH2 0x2C1 SWAP2 SWAP1 PUSH2 0x14AC JUMP JUMPDEST PUSH1 0x40 MLOAD DUP1 SWAP2 SUB SWAP1 RETURN JUMPDEST PUSH2 0x2E4 PUSH1 0x4 DUP1 CALLDATASIZE SUB DUP2 ADD SWAP1 PUSH2 0x2DF SWAP2 SWAP1 PUSH2 0x15A8 JUMP JUMPDEST PUSH2 0x1018 JUMP JUMPDEST PUSH1 0x40 MLOAD PUSH2 0x2F1 SWAP2 SWAP1 PUSH2 0x14D6 JUMP JUMPDEST PUSH1 0x40 MLOAD DUP1 SWAP2 SUB SWAP1 RETURN JUMPDEST PUSH2 0x314 PUSH1 0x4 DUP1 CALLDATASIZE SUB DUP2 ADD SWAP1 PUSH2 0x30F SWAP2 SWAP1 PUSH2 0x1528 JUMP JUMPDEST PUSH2 0x10A1 JUMP JUMPDEST STOP JUMPDEST PUSH2 0x330 PUSH1 0x4 DUP1 CALLDATASIZE SUB DUP2 ADD SWAP1 PUSH2 0x32B SWAP2 SWAP1 PUSH2 0x1528 JUMP JUMPDEST PUSH2 0x12BB JUMP JUMPDEST PUSH1 0x40 MLOAD PUSH2 0x33D SWAP2 SWAP1 PUSH2 0x14D6 JUMP JUMPDEST PUSH1 0x40 MLOAD DUP1 SWAP2 SUB SWAP1 RETURN JUMPDEST PUSH1 0x60 PUSH1 0x0 DUP1 ADD PUSH1 0x0 ADD DUP1 SLOAD PUSH2 0x35A SWAP1 PUSH2 0x1617 JUMP JUMPDEST DUP1 PUSH1 0x1F ADD PUSH1 0x20 DUP1 SWAP2 DIV MUL PUSH1 0x20 ADD PUSH1 0x40 MLOAD SWAP1 DUP2 ADD PUSH1 0x40 MSTORE DUP1 SWAP3 SWAP2 SWAP1 DUP2 DUP2 MSTORE PUSH1 0x20 ADD DUP3 DUP1 SLOAD PUSH2 0x386 SWAP1 PUSH2 0x1617 JUMP JUMPDEST DUP1 ISZERO PUSH2 0x3D3 JUMPI DUP1 PUSH1 0x1F LT PUSH2 0x3A8 JUMPI PUSH2 0x100 DUP1 DUP4 SLOAD DIV MUL DUP4 MSTORE SWAP2 PUSH1 0x20 ADD SWAP2 PUSH2 0x3D3 JUMP JUMPDEST DUP3 ADD SWAP2 SWAP1 PUSH1 0x0 MSTORE PUSH1 0x20 PUSH1 0x0 KECCAK256 SWAP1 JUMPDEST DUP2 SLOAD DUP2 MSTORE SWAP1 PUSH1 0x1 ADD SWAP1 PUSH1 0x20 ADD DUP1 DUP4 GT PUSH2 0x3B6 JUMPI DUP3 SWAP1 SUB PUSH1 0x1F AND DUP3 ADD SWAP2 JUMPDEST POP POP POP POP POP SWAP1 POP SWAP1 JUMP JUMPDEST PUSH1 0x0 DUP2 PUSH1 0x0 PUSH1 0x9 ADD PUSH1 0x0 CALLER PUSH20 0xFFFFFFFFFFFFFFFFFFFFFFFFFFFFFFFFFFFFFFFF AND PUSH20 0xFFFFFFFFFFFFFFFFFFFFFFFFFFFFFFFFFFFFFFFF AND DUP2 MSTORE PUSH1 0x20 ADD SWAP1 DUP2 MSTORE PUSH1 0x20 ADD PUSH1 0x0 KECCAK256 PUSH1 0x0 DUP6 PUSH20 0xFFFFFFFFFFFFFFFFFFFFFFFFFFFFFFFFFFFFFFFF AND PUSH20 0xFFFFFFFFFFFFFFFFFFFFFFFFFFFFFFFFFFFFFFFF AND DUP2 MSTORE PUSH1 0x20 ADD SWAP1 DUP2 MSTORE PUSH1 0x20 ADD PUSH1 0x0 KECCAK256 DUP2 SWAP1 SSTORE POP DUP3 PUSH20 0xFFFFFFFFFFFFFFFFFFFFFFFFFFFFFFFFFFFFFFFF AND CALLER PUSH20 0xFFFFFFFFFFFFFFFFFFFFFFFFFFFFFFFFFFFFFFFF AND PUSH32 0x8C5BE1E5EBEC7D5BD14F71427D1E84F3DD0314C0F7B2291E5B200AC8C7C3B925 DUP5 PUSH1 0x40 MLOAD PUSH2 0x4C0 SWAP2 SWAP1 PUSH2 0x14D6 JUMP JUMPDEST PUSH1 0x40 MLOAD DUP1 SWAP2 SUB SWAP1 LOG3 PUSH1 0x1 SWAP1 POP SWAP3 SWAP2 POP POP JUMP JUMPDEST PUSH1 0x0 DUP1 PUSH1 0x0 ADD PUSH1 0x3 ADD SLOAD SWAP1 POP SWAP1 JUMP JUMPDEST PUSH1 0x0 DUP1 PUSH1 0x0 ADD PUSH1 0x2 ADD PUSH1 0x0 SWAP1 SLOAD SWAP1 PUSH2 0x100 EXP SWAP1 DIV PUSH1 0xFF AND SWAP1 POP SWAP1 JUMP JUMPDEST PUSH1 0x0 DUP1 PUSH1 0xB ADD PUSH1 0x0 ADD PUSH1 0x0 DUP4 PUSH20 0xFFFFFFFFFFFFFFFFFFFFFFFFFFFFFFFFFFFFFFFF AND PUSH20 0xFFFFFFFFFFFFFFFFFFFFFFFFFFFFFFFFFFFFFFFF AND DUP2 MSTORE PUSH1 0x20 ADD SWAP1 DUP2 MSTORE PUSH1 0x20 ADD PUSH1 0x0 KECCAK256 PUSH1 0x0 SWAP1 SLOAD SWAP1 PUSH2 0x100 EXP SWAP1 DIV PUSH1 0xFF AND SWAP1 POP SWAP2 SWAP1 POP JUMP JUMPDEST PUSH1 0x1 ISZERO ISZERO PUSH1 0x0 PUSH1 0xB ADD PUSH1 0x0 ADD PUSH1 0x0 CALLER PUSH20 0xFFFFFFFFFFFFFFFFFFFFFFFFFFFFFFFFFFFFFFFF AND PUSH20 0xFFFFFFFFFFFFFFFFFFFFFFFFFFFFFFFFFFFFFFFF AND DUP2 MSTORE PUSH1 0x20 ADD SWAP1 DUP2 MSTORE PUSH1 0x20 ADD PUSH1 0x0 KECCAK256 PUSH1 0x0 SWAP1 SLOAD SWAP1 PUSH2 0x100 EXP SWAP1 DIV PUSH1 0xFF AND ISZERO ISZERO EQ PUSH2 0x5F1 JUMPI PUSH1 0x40 MLOAD PUSH32 0x8C379A000000000000000000000000000000000000000000000000000000000 DUP2 MSTORE PUSH1 0x4 ADD PUSH2 0x5E8 SWAP1 PUSH2 0x16BA JUMP JUMPDEST PUSH1 0x40 MLOAD DUP1 SWAP2 SUB SWAP1 REVERT JUMPDEST DUP1 PUSH1 0x0 PUSH1 0x5 ADD PUSH1 0x0 DUP5 PUSH20 0xFFFFFFFFFFFFFFFFFFFFFFFFFFFFFFFFFFFFFFFF AND PUSH20 0xFFFFFFFFFFFFFFFFFFFFFFFFFFFFFFFFFFFFFFFF AND DUP2 MSTORE PUSH1 0x20 ADD SWAP1 DUP2 MSTORE PUSH1 0x20 ADD PUSH1 0x0 KECCAK256 PUSH1 0x0 DUP3 DUP3 SLOAD PUSH2 0x643 SWAP2 SWAP1 PUSH2 0x1709 JUMP JUMPDEST SWAP3 POP POP DUP2 SWAP1 SSTORE POP DUP1 PUSH1 0x0 PUSH1 0x8 ADD PUSH1 0x0 DUP5 PUSH20 0xFFFFFFFFFFFFFFFFFFFFFFFFFFFFFFFFFFFFFFFF AND PUSH20 0xFFFFFFFFFFFFFFFFFFFFFFFFFFFFFFFFFFFFFFFF AND DUP2 MSTORE PUSH1 0x20 ADD SWAP1 DUP2 MSTORE PUSH1 0x20 ADD PUSH1 0x0 KECCAK256 PUSH1 0x0 DUP3 DUP3 SLOAD PUSH2 0x69C SWAP2 SWAP1 PUSH2 0x1709 JUMP JUMPDEST SWAP3 POP POP DUP2 SWAP1 SSTORE POP DUP1 PUSH1 0x0 DUP1 ADD PUSH1 0x3 ADD PUSH1 0x0 DUP3 DUP3 SLOAD PUSH2 0x6BA SWAP2 SWAP1 PUSH2 0x1709 JUMP JUMPDEST SWAP3 POP POP DUP2 SWAP1 SSTORE POP DUP2 PUSH20 0xFFFFFFFFFFFFFFFFFFFFFFFFFFFFFFFFFFFFFFFF AND PUSH32 0xF6798A560793A54C3BCFE86A93CDE1E73087D944C0EA20544137D4121396885 DUP3 PUSH1 0x40 MLOAD PUSH2 0x707 SWAP2 SWAP1 PUSH2 0x14D6 JUMP JUMPDEST PUSH1 0x40 MLOAD DUP1 SWAP2 SUB SWAP1 LOG2 POP POP JUMP JUMPDEST PUSH1 0x0 DUP2 PUSH1 0x0 PUSH1 0x5 ADD PUSH1 0x0 DUP7 PUSH20 0xFFFFFFFFFFFFFFFFFFFFFFFFFFFFFFFFFFFFFFFF AND PUSH20 0xFFFFFFFFFFFFFFFFFFFFFFFFFFFFFFFFFFFFFFFF AND DUP2 MSTORE PUSH1 0x20 ADD SWAP1 DUP2 MSTORE PUSH1 0x20 ADD PUSH1 0x0 KECCAK256 SLOAD LT ISZERO PUSH2 0x79A JUMPI PUSH1 0x40 MLOAD PUSH32 0x8C379A000000000000000000000000000000000000000000000000000000000 DUP2 MSTORE PUSH1 0x4 ADD PUSH2 0x791 SWAP1 PUSH2 0x1789 JUMP JUMPDEST PUSH1 0x40 MLOAD DUP1 SWAP2 SUB SWAP1 REVERT JUMPDEST DUP2 PUSH1 0x0 PUSH1 0x9 ADD PUSH1 0x0 DUP7 PUSH20 0xFFFFFFFFFFFFFFFFFFFFFFFFFFFFFFFFFFFFFFFF AND PUSH20 0xFFFFFFFFFFFFFFFFFFFFFFFFFFFFFFFFFFFFFFFF AND DUP2 MSTORE PUSH1 0x20 ADD SWAP1 DUP2 MSTORE PUSH1 0x20 ADD PUSH1 0x0 KECCAK256 PUSH1 0x0 CALLER PUSH20 0xFFFFFFFFFFFFFFFFFFFFFFFFFFFFFFFFFFFFFFFF AND PUSH20 0xFFFFFFFFFFFFFFFFFFFFFFFFFFFFFFFFFFFFFFFF AND DUP2 MSTORE PUSH1 0x20 ADD SWAP1 DUP2 MSTORE PUSH1 0x20 ADD PUSH1 0x0 KECCAK256 SLOAD LT ISZERO PUSH2 0x85C JUMPI PUSH1 0x40 MLOAD PUSH32 0x8C379A000000000000000000000000000000000000000000000000000000000 DUP2 MSTORE PUSH1 0x4 ADD PUSH2 0x853 SWAP1 PUSH2 0x181B JUMP JUMPDEST PUSH1 0x40 MLOAD DUP1 SWAP2 SUB SWAP1 REVERT JUMPDEST DUP2 PUSH1 0x0 PUSH1 0x5 ADD PUSH1 0x0 DUP7 PUSH20 0xFFFFFFFFFFFFFFFFFFFFFFFFFFFFFFFFFFFFFFFF AND PUSH20 0xFFFFFFFFFFFFFFFFFFFFFFFFFFFFFFFFFFFFFFFF AND DUP2 MSTORE PUSH1 0x20 ADD SWAP1 DUP2 MSTORE PUSH1 0x20 ADD PUSH1 0x0 KECCAK256 PUSH1 0x0 DUP3 DUP3 SLOAD PUSH2 0x8AE SWAP2 SWAP1 PUSH2 0x183B JUMP JUMPDEST SWAP3 POP POP DUP2 SWAP1 SSTORE POP DUP2 PUSH1 0x0 PUSH1 0x8 ADD PUSH1 0x0 DUP7 PUSH20 0xFFFFFFFFFFFFFFFFFFFFFFFFFFFFFFFFFFFFFFFF AND PUSH20 0xFFFFFFFFFFFFFFFFFFFFFFFFFFFFFFFFFFFFFFFF AND DUP2 MSTORE PUSH1 0x20 ADD SWAP1 DUP2 MSTORE PUSH1 0x20 ADD PUSH1 0x0 KECCAK256 PUSH1 0x0 DUP3 DUP3 SLOAD PUSH2 0x907 SWAP2 SWAP1 PUSH2 0x183B JUMP JUMPDEST SWAP3 POP POP DUP2 SWAP1 SSTORE POP DUP2 PUSH1 0x0 PUSH1 0x5 ADD PUSH1 0x0 DUP6 PUSH20 0xFFFFFFFFFFFFFFFFFFFFFFFFFFFFFFFFFFFFFFFF AND PUSH20 0xFFFFFFFFFFFFFFFFFFFFFFFFFFFFFFFFFFFFFFFF AND DUP2 MSTORE PUSH1 0x20 ADD SWAP1 DUP2 MSTORE PUSH1 0x20 ADD PUSH1 0x0 KECCAK256 PUSH1 0x0 DUP3 DUP3 SLOAD PUSH2 0x960 SWAP2 SWAP1 PUSH2 0x1709 JUMP JUMPDEST SWAP3 POP POP DUP2 SWAP1 SSTORE POP DUP2 PUSH1 0x0 PUSH1 0x8 ADD PUSH1 0x0 DUP6 PUSH20 0xFFFFFFFFFFFFFFFFFFFFFFFFFFFFFFFFFFFFFFFF AND PUSH20 0xFFFFFFFFFFFFFFFFFFFFFFFFFFFFFFFFFFFFFFFF AND DUP2 MSTORE PUSH1 0x20 ADD SWAP1 DUP2 MSTORE PUSH1 0x20 ADD PUSH1 0x0 KECCAK256 PUSH1 0x0 DUP3 DUP3 SLOAD PUSH2 0x9B9 SWAP2 SWAP1 PUSH2 0x1709 JUMP JUMPDEST SWAP3 POP POP DUP2 SWAP1 SSTORE POP DUP2 PUSH1 0x0 PUSH1 0x9 ADD PUSH1 0x0 DUP7 PUSH20 0xFFFFFFFFFFFFFFFFFFFFFFFFFFFFFFFFFFFFFFFF AND PUSH20 0xFFFFFFFFFFFFFFFFFFFFFFFFFFFFFFFFFFFFFFFF AND DUP2 MSTORE PUSH1 0x20 ADD SWAP1 DUP2 MSTORE PUSH1 0x20 ADD PUSH1 0x0 KECCAK256 PUSH1 0x0 CALLER PUSH20 0xFFFFFFFFFFFFFFFFFFFFFFFFFFFFFFFFFFFFFFFF AND PUSH20 0xFFFFFFFFFFFFFFFFFFFFFFFFFFFFFFFFFFFFFFFF AND DUP2 MSTORE PUSH1 0x20 ADD SWAP1 DUP2 MSTORE PUSH1 0x20 ADD PUSH1 0x0 KECCAK256 PUSH1 0x0 DUP3 DUP3 SLOAD PUSH2 0xA4F SWAP2 SWAP1 PUSH2 0x183B JUMP JUMPDEST SWAP3 POP POP DUP2 SWAP1 SSTORE POP DUP3 PUSH20 0xFFFFFFFFFFFFFFFFFFFFFFFFFFFFFFFFFFFFFFFF AND DUP5 PUSH20 0xFFFFFFFFFFFFFFFFFFFFFFFFFFFFFFFFFFFFFFFF AND PUSH32 0xDDF252AD1BE2C89B69C2B068FC378DAA952BA7F163C4A11628F55A4DF523B3EF DUP5 PUSH1 0x40 MLOAD PUSH2 0xAB3 SWAP2 SWAP1 PUSH2 0x14D6 JUMP JUMPDEST PUSH1 0x40 MLOAD DUP1 SWAP2 SUB SWAP1 LOG3 PUSH1 0x1 SWAP1 POP SWAP4 SWAP3 POP POP POP JUMP JUMPDEST PUSH1 0x0 DUP1 PUSH1 0x5 ADD PUSH1 0x0 DUP4 PUSH20 0xFFFFFFFFFFFFFFFFFFFFFFFFFFFFFFFFFFFFFFFF AND PUSH20 0xFFFFFFFFFFFFFFFFFFFFFFFFFFFFFFFFFFFFFFFF AND DUP2 MSTORE PUSH1 0x20 ADD SWAP1 DUP2 MSTORE PUSH1 0x20 ADD PUSH1 0x0 KECCAK256 SLOAD SWAP1 POP SWAP2 SWAP1 POP JUMP JUMPDEST PUSH1 0x60 PUSH1 0x0 DUP1 ADD PUSH1 0x1 ADD DUP1 SLOAD PUSH2 0xB25 SWAP1 PUSH2 0x1617 JUMP JUMPDEST DUP1 PUSH1 0x1F ADD PUSH1 0x20 DUP1 SWAP2 DIV MUL PUSH1 0x20 ADD PUSH1 0x40 MLOAD SWAP1 DUP2 ADD PUSH1 0x40 MSTORE DUP1 SWAP3 SWAP2 SWAP1 DUP2 DUP2 MSTORE PUSH1 0x20 ADD DUP3 DUP1 SLOAD PUSH2 0xB51 SWAP1 PUSH2 0x1617 JUMP JUMPDEST DUP1 ISZERO PUSH2 0xB9E JUMPI DUP1 PUSH1 0x1F LT PUSH2 0xB73 JUMPI PUSH2 0x100 DUP1 DUP4 SLOAD DIV MUL DUP4 MSTORE SWAP2 PUSH1 0x20 ADD SWAP2 PUSH2 0xB9E JUMP JUMPDEST DUP3 ADD SWAP2 SWAP1 PUSH1 0x0 MSTORE PUSH1 0x20 PUSH1 0x0 KECCAK256 SWAP1 JUMPDEST DUP2 SLOAD DUP2 MSTORE SWAP1 PUSH1 0x1 ADD SWAP1 PUSH1 0x20 ADD DUP1 DUP4 GT PUSH2 0xB81 JUMPI DUP3 SWAP1 SUB PUSH1 0x1F AND DUP3 ADD SWAP2 JUMPDEST POP POP POP POP POP SWAP1 POP SWAP1 JUMP JUMPDEST PUSH1 0x1 ISZERO ISZERO PUSH1 0x0 PUSH1 0xB ADD PUSH1 0x0 ADD PUSH1 0x0 CALLER PUSH20 0xFFFFFFFFFFFFFFFFFFFFFFFFFFFFFFFFFFFFFFFF AND PUSH20 0xFFFFFFFFFFFFFFFFFFFFFFFFFFFFFFFFFFFFFFFF AND DUP2 MSTORE PUSH1 0x20 ADD SWAP1 DUP2 MSTORE PUSH1 0x20 ADD PUSH1 0x0 KECCAK256 PUSH1 0x0 SWAP1 SLOAD SWAP1 PUSH2 0x100 EXP SWAP1 DIV PUSH1 0xFF AND ISZERO ISZERO EQ PUSH2 0xC41 JUMPI PUSH1 0x40 MLOAD PUSH32 0x8C379A000000000000000000000000000000000000000000000000000000000 DUP2 MSTORE PUSH1 0x4 ADD PUSH2 0xC38 SWAP1 PUSH2 0x16BA JUMP JUMPDEST PUSH1 0x40 MLOAD DUP1 SWAP2 SUB SWAP1 REVERT JUMPDEST DUP1 PUSH1 0x0 PUSH1 0x5 ADD PUSH1 0x0 DUP5 PUSH20 0xFFFFFFFFFFFFFFFFFFFFFFFFFFFFFFFFFFFFFFFF AND PUSH20 0xFFFFFFFFFFFFFFFFFFFFFFFFFFFFFFFFFFFFFFFF AND DUP2 MSTORE PUSH1 0x20 ADD SWAP1 DUP2 MSTORE PUSH1 0x20 ADD PUSH1 0x0 KECCAK256 PUSH1 0x0 DUP3 DUP3 SLOAD PUSH2 0xC93 SWAP2 SWAP1 PUSH2 0x183B JUMP JUMPDEST SWAP3 POP POP DUP2 SWAP1 SSTORE POP DUP1 PUSH1 0x0 PUSH1 0x8 ADD PUSH1 0x0 DUP5 PUSH20 0xFFFFFFFFFFFFFFFFFFFFFFFFFFFFFFFFFFFFFFFF AND PUSH20 0xFFFFFFFFFFFFFFFFFFFFFFFFFFFFFFFFFFFFFFFF AND DUP2 MSTORE PUSH1 0x20 ADD SWAP1 DUP2 MSTORE PUSH1 0x20 ADD PUSH1 0x0 KECCAK256 PUSH1 0x0 DUP3 DUP3 SLOAD PUSH2 0xCEC SWAP2 SWAP1 PUSH2 0x183B JUMP JUMPDEST SWAP3 POP POP DUP2 SWAP1 SSTORE POP DUP1 PUSH1 0x0 DUP1 ADD PUSH1 0x3 ADD PUSH1 0x0 DUP3 DUP3 SLOAD PUSH2 0xD0A SWAP2 SWAP1 PUSH2 0x183B JUMP JUMPDEST SWAP3 POP POP DUP2 SWAP1 SSTORE POP DUP2 PUSH20 0xFFFFFFFFFFFFFFFFFFFFFFFFFFFFFFFFFFFFFFFF AND PUSH32 0xCC16F5DBB4873280815C1EE09DBD06736CFFCC184412CF7A71A0FDB75D397CA5 DUP3 PUSH1 0x40 MLOAD PUSH2 0xD57 SWAP2 SWAP1 PUSH2 0x14D6 JUMP JUMPDEST PUSH1 0x40 MLOAD DUP1 SWAP2 SUB SWAP1 LOG2 POP POP JUMP JUMPDEST PUSH1 0x0 DUP2 PUSH1 0x0 PUSH1 0x5 ADD PUSH1 0x0 CALLER PUSH20 0xFFFFFFFFFFFFFFFFFFFFFFFFFFFFFFFFFFFFFFFF AND PUSH20 0xFFFFFFFFFFFFFFFFFFFFFFFFFFFFFFFFFFFFFFFF AND DUP2 MSTORE PUSH1 0x20 ADD SWAP1 DUP2 MSTORE PUSH1 0x20 ADD PUSH1 0x0 KECCAK256 SLOAD LT ISZERO PUSH2 0xDEA JUMPI PUSH1 0x40 MLOAD PUSH32 0x8C379A000000000000000000000000000000000000000000000000000000000 DUP2 MSTORE PUSH1 0x4 ADD PUSH2 0xDE1 SWAP1 PUSH2 0x1789 JUMP JUMPDEST PUSH1 0x40 MLOAD DUP1 SWAP2 SUB SWAP1 REVERT JUMPDEST DUP2 PUSH1 0x0 PUSH1 0x5 ADD PUSH1 0x0 CALLER PUSH20 0xFFFFFFFFFFFFFFFFFFFFFFFFFFFFFFFFFFFFFFFF AND PUSH20 0xFFFFFFFFFFFFFFFFFFFFFFFFFFFFFFFFFFFFFFFF AND DUP2 MSTORE PUSH1 0x20 ADD SWAP1 DUP2 MSTORE PUSH1 0x20 ADD PUSH1 0x0 KECCAK256 PUSH1 0x0 DUP3 DUP3 SLOAD PUSH2 0xE3C SWAP2 SWAP1 PUSH2 0x183B JUMP JUMPDEST SWAP3 POP POP DUP2 SWAP1 SSTORE POP DUP2 PUSH1 0x0 PUSH1 0x8 ADD PUSH1 0x0 CALLER PUSH20 0xFFFFFFFFFFFFFFFFFFFFFFFFFFFFFFFFFFFFFFFF AND PUSH20 0xFFFFFFFFFFFFFFFFFFFFFFFFFFFFFFFFFFFFFFFF AND DUP2 MSTORE PUSH1 0x20 ADD SWAP1 DUP2 MSTORE PUSH1 0x20 ADD PUSH1 0x0 KECCAK256 PUSH1 0x0 DUP3 DUP3 SLOAD PUSH2 0xE95 SWAP2 SWAP1 PUSH2 0x183B JUMP JUMPDEST SWAP3 POP POP DUP2 SWAP1 SSTORE POP DUP2 PUSH1 0x0 PUSH1 0x5 ADD PUSH1 0x0 DUP6 PUSH20 0xFFFFFFFFFFFFFFFFFFFFFFFFFFFFFFFFFFFFFFFF AND PUSH20 0xFFFFFFFFFFFFFFFFFFFFFFFFFFFFFFFFFFFFFFFF AND DUP2 MSTORE PUSH1 0x20 ADD SWAP1 DUP2 MSTORE PUSH1 0x20 ADD PUSH1 0x0 KECCAK256 PUSH1 0x0 DUP3 DUP3 SLOAD PUSH2 0xEEE SWAP2 SWAP1 PUSH2 0x1709 JUMP JUMPDEST SWAP3 POP POP DUP2 SWAP1 SSTORE POP DUP2 PUSH1 0x0 PUSH1 0x8 ADD PUSH1 0x0 DUP6 PUSH20 0xFFFFFFFFFFFFFFFFFFFFFFFFFFFFFFFFFFFFFFFF AND PUSH20 0xFFFFFFFFFFFFFFFFFFFFFFFFFFFFFFFFFFFFFFFF AND DUP2 MSTORE PUSH1 0x20 ADD SWAP1 DUP2 MSTORE PUSH1 0x20 ADD PUSH1 0x0 KECCAK256 PUSH1 0x0 DUP3 DUP3 SLOAD PUSH2 0xF47 SWAP2 SWAP1 PUSH2 0x1709 JUMP JUMPDEST SWAP3 POP POP DUP2 SWAP1 SSTORE POP DUP3 PUSH20 0xFFFFFFFFFFFFFFFFFFFFFFFFFFFFFFFFFFFFFFFF AND CALLER PUSH20 0xFFFFFFFFFFFFFFFFFFFFFFFFFFFFFFFFFFFFFFFF AND PUSH32 0xDDF252AD1BE2C89B69C2B068FC378DAA952BA7F163C4A11628F55A4DF523B3EF DUP5 PUSH1 0x40 MLOAD PUSH2 0xFAB SWAP2 SWAP1 PUSH2 0x14D6 JUMP JUMPDEST PUSH1 0x40 MLOAD DUP1 SWAP2 SUB SWAP1 LOG3 PUSH1 0x1 SWAP1 POP SWAP3 SWAP2 POP POP JUMP JUMPDEST PUSH1 0x0 DUP1 PUSH1 0xB ADD PUSH1 0x1 ADD PUSH1 0x0 DUP4 PUSH20 0xFFFFFFFFFFFFFFFFFFFFFFFFFFFFFFFFFFFFFFFF AND PUSH20 0xFFFFFFFFFFFFFFFFFFFFFFFFFFFFFFFFFFFFFFFF AND DUP2 MSTORE PUSH1 0x20 ADD SWAP1 DUP2 MSTORE PUSH1 0x20 ADD PUSH1 0x0 KECCAK256 PUSH1 0x0 SWAP1 SLOAD SWAP1 PUSH2 0x100 EXP SWAP1 DIV PUSH1 0xFF AND SWAP1 POP SWAP2 SWAP1 POP JUMP JUMPDEST PUSH1 0x0 DUP1 PUSH1 0x9 ADD PUSH1 0x0 DUP5 PUSH20 0xFFFFFFFFFFFFFFFFFFFFFFFFFFFFFFFFFFFFFFFF AND PUSH20 0xFFFFFFFFFFFFFFFFFFFFFFFFFFFFFFFFFFFFFFFF AND DUP2 MSTORE PUSH1 0x20 ADD SWAP1 DUP2 MSTORE PUSH1 0x20 ADD PUSH1 0x0 KECCAK256 PUSH1 0x0 DUP4 PUSH20 0xFFFFFFFFFFFFFFFFFFFFFFFFFFFFFFFFFFFFFFFF AND PUSH20 0xFFFFFFFFFFFFFFFFFFFFFFFFFFFFFFFFFFFFFFFF AND DUP2 MSTORE PUSH1 0x20 ADD SWAP1 DUP2 MSTORE PUSH1 0x20 ADD PUSH1 0x0 KECCAK256 SLOAD SWAP1 POP SWAP3 SWAP2 POP POP JUMP JUMPDEST PUSH1 0x1 ISZERO ISZERO PUSH1 0x0 PUSH1 0xB ADD PUSH1 0x0 ADD PUSH1 0x0 CALLER PUSH20 0xFFFFFFFFFFFFFFFFFFFFFFFFFFFFFFFFFFFFFFFF AND PUSH20 0xFFFFFFFFFFFFFFFFFFFFFFFFFFFFFFFFFFFFFFFF AND DUP2 MSTORE PUSH1 0x20 ADD SWAP1 DUP2 MSTORE PUSH1 0x20 ADD PUSH1 0x0 KECCAK256 PUSH1 0x0 SWAP1 SLOAD SWAP1 PUSH2 0x100 EXP SWAP1 DIV PUSH1 0xFF AND ISZERO ISZERO EQ PUSH2 0x113A JUMPI PUSH1 0x40 MLOAD PUSH32 0x8C379A000000000000000000000000000000000000000000000000000000000 DUP2 MSTORE PUSH1 0x4 ADD PUSH2 0x1131 SWAP1 PUSH2 0x16BA JUMP JUMPDEST PUSH1 0x40 MLOAD DUP1 SWAP2 SUB SWAP1 REVERT JUMPDEST PUSH1 0x1 ISZERO ISZERO PUSH1 0x0 PUSH1 0xB ADD PUSH1 0x1 ADD PUSH1 0x0 DUP4 PUSH20 0xFFFFFFFFFFFFFFFFFFFFFFFFFFFFFFFFFFFFFFFF AND PUSH20 0xFFFFFFFFFFFFFFFFFFFFFFFFFFFFFFFFFFFFFFFF AND DUP2 MSTORE PUSH1 0x20 ADD SWAP1 DUP2 MSTORE PUSH1 0x20 ADD PUSH1 0x0 KECCAK256 PUSH1 0x0 SWAP1 SLOAD SWAP1 PUSH2 0x100 EXP SWAP1 DIV PUSH1 0xFF AND ISZERO ISZERO SUB PUSH2 0x11FA JUMPI PUSH1 0x0 DUP1 PUSH1 0xB ADD PUSH1 0x1 ADD PUSH1 0x0 DUP4 PUSH20 0xFFFFFFFFFFFFFFFFFFFFFFFFFFFFFFFFFFFFFFFF AND PUSH20 0xFFFFFFFFFFFFFFFFFFFFFFFFFFFFFFFFFFFFFFFF AND DUP2 MSTORE PUSH1 0x20 ADD SWAP1 DUP2 MSTORE PUSH1 0x20 ADD PUSH1 0x0 KECCAK256 PUSH1 0x0 PUSH2 0x100 EXP DUP2 SLOAD DUP2 PUSH1 0xFF MUL NOT AND SWAP1 DUP4 ISZERO ISZERO MUL OR SWAP1 SSTORE POP PUSH2 0x12B8 JUMP JUMPDEST PUSH1 0x0 ISZERO ISZERO PUSH1 0x0 PUSH1 0xB ADD PUSH1 0x1 ADD PUSH1 0x0 DUP4 PUSH20 0xFFFFFFFFFFFFFFFFFFFFFFFFFFFFFFFFFFFFFFFF AND PUSH20 0xFFFFFFFFFFFFFFFFFFFFFFFFFFFFFFFFFFFFFFFF AND DUP2 MSTORE PUSH1 0x20 ADD SWAP1 DUP2 MSTORE PUSH1 0x20 ADD PUSH1 0x0 KECCAK256 PUSH1 0x0 SWAP1 SLOAD SWAP1 PUSH2 0x100 EXP SWAP1 DIV PUSH1 0xFF AND ISZERO ISZERO SUB PUSH2 0x12B7 JUMPI PUSH1 0x1 PUSH1 0x0 PUSH1 0xB ADD PUSH1 0x1 ADD PUSH1 0x0 DUP4 PUSH20 0xFFFFFFFFFFFFFFFFFFFFFFFFFFFFFFFFFFFFFFFF AND PUSH20 0xFFFFFFFFFFFFFFFFFFFFFFFFFFFFFFFFFFFFFFFF AND DUP2 MSTORE PUSH1 0x20 ADD SWAP1 DUP2 MSTORE PUSH1 0x20 ADD PUSH1 0x0 KECCAK256 PUSH1 0x0 PUSH2 0x100 EXP DUP2 SLOAD DUP2 PUSH1 0xFF MUL NOT AND SWAP1 DUP4 ISZERO ISZERO MUL OR SWAP1 SSTORE POP JUMPDEST JUMPDEST POP JUMP JUMPDEST PUSH1 0x0 DUP1 PUSH1 0x8 ADD PUSH1 0x0 DUP4 PUSH20 0xFFFFFFFFFFFFFFFFFFFFFFFFFFFFFFFFFFFFFFFF AND PUSH20 0xFFFFFFFFFFFFFFFFFFFFFFFFFFFFFFFFFFFFFFFF AND DUP2 MSTORE PUSH1 0x20 ADD SWAP1 DUP2 MSTORE PUSH1 0x20 ADD PUSH1 0x0 KECCAK256 SLOAD SWAP1 POP SWAP2 SWAP1 POP JUMP JUMPDEST PUSH1 0x0 DUP2 MLOAD SWAP1 POP SWAP2 SWAP1 POP JUMP JUMPDEST PUSH1 0x0 DUP3 DUP3 MSTORE PUSH1 0x20 DUP3 ADD SWAP1 POP SWAP3 SWAP2 POP POP JUMP JUMPDEST PUSH1 0x0 JUMPDEST DUP4 DUP2 LT ISZERO PUSH2 0x1340 JUMPI DUP1 DUP3 ADD MLOAD DUP2 DUP5 ADD MSTORE PUSH1 0x20 DUP2 ADD SWAP1 POP PUSH2 0x1325 JUMP JUMPDEST PUSH1 0x0 DUP5 DUP5 ADD MSTORE POP POP POP POP JUMP JUMPDEST PUSH1 0x0 PUSH1 0x1F NOT PUSH1 0x1F DUP4 ADD AND SWAP1 POP SWAP2 SWAP1 POP JUMP JUMPDEST PUSH1 0x0 PUSH2 0x1368 DUP3 PUSH2 0x1306 JUMP JUMPDEST PUSH2 0x1372 DUP2 DUP6 PUSH2 0x1311 JUMP JUMPDEST SWAP4 POP PUSH2 0x1382 DUP2 DUP6 PUSH1 0x20 DUP7 ADD PUSH2 0x1322 JUMP JUMPDEST PUSH2 0x138B DUP2 PUSH2 0x134C JUMP JUMPDEST DUP5 ADD SWAP2 POP POP SWAP3 SWAP2 POP POP JUMP JUMPDEST PUSH1 0x0 PUSH1 0x20 DUP3 ADD SWAP1 POP DUP2 DUP2 SUB PUSH1 0x0 DUP4 ADD MSTORE PUSH2 0x13B0 DUP2 DUP5 PUSH2 0x135D JUMP JUMPDEST SWAP1 POP SWAP3 SWAP2 POP POP JUMP JUMPDEST PUSH1 0x0 DUP1 REVERT JUMPDEST PUSH1 0x0 PUSH20 0xFFFFFFFFFFFFFFFFFFFFFFFFFFFFFFFFFFFFFFFF DUP3 AND SWAP1 POP SWAP2 SWAP1 POP JUMP JUMPDEST PUSH1 0x0 PUSH2 0x13E8 DUP3 PUSH2 0x13BD JUMP JUMPDEST SWAP1 POP SWAP2 SWAP1 POP JUMP JUMPDEST PUSH2 0x13F8 DUP2 PUSH2 0x13DD JUMP JUMPDEST DUP2 EQ PUSH2 0x1403 JUMPI PUSH1 0x0 DUP1 REVERT JUMPDEST POP JUMP JUMPDEST PUSH1 0x0 DUP2 CALLDATALOAD SWAP1 POP PUSH2 0x1415 DUP2 PUSH2 0x13EF JUMP JUMPDEST SWAP3 SWAP2 POP POP JUMP JUMPDEST PUSH1 0x0 DUP2 SWAP1 POP SWAP2 SWAP1 POP JUMP JUMPDEST PUSH2 0x142E DUP2 PUSH2 0x141B JUMP JUMPDEST DUP2 EQ PUSH2 0x1439 JUMPI PUSH1 0x0 DUP1 REVERT JUMPDEST POP JUMP JUMPDEST PUSH1 0x0 DUP2 CALLDATALOAD SWAP1 POP PUSH2 0x144B DUP2 PUSH2 0x1425 JUMP JUMPDEST SWAP3 SWAP2 POP POP JUMP JUMPDEST PUSH1 0x0 DUP1 PUSH1 0x40 DUP4 DUP6 SUB SLT ISZERO PUSH2 0x1468 JUMPI PUSH2 0x1467 PUSH2 0x13B8 JUMP JUMPDEST JUMPDEST PUSH1 0x0 PUSH2 0x1476 DUP6 DUP3 DUP7 ADD PUSH2 0x1406 JUMP JUMPDEST SWAP3 POP POP PUSH1 0x20 PUSH2 0x1487 DUP6 DUP3 DUP7 ADD PUSH2 0x143C JUMP JUMPDEST SWAP2 POP POP SWAP3 POP SWAP3 SWAP1 POP JUMP JUMPDEST PUSH1 0x0 DUP2 ISZERO ISZERO SWAP1 POP SWAP2 SWAP1 POP JUMP JUMPDEST PUSH2 0x14A6 DUP2 PUSH2 0x1491 JUMP JUMPDEST DUP3 MSTORE POP POP JUMP JUMPDEST PUSH1 0x0 PUSH1 0x20 DUP3 ADD SWAP1 POP PUSH2 0x14C1 PUSH1 0x0 DUP4 ADD DUP5 PUSH2 0x149D JUMP JUMPDEST SWAP3 SWAP2 POP POP JUMP JUMPDEST PUSH2 0x14D0 DUP2 PUSH2 0x141B JUMP JUMPDEST DUP3 MSTORE POP POP JUMP JUMPDEST PUSH1 0x0 PUSH1 0x20 DUP3 ADD SWAP1 POP PUSH2 0x14EB PUSH1 0x0 DUP4 ADD DUP5 PUSH2 0x14C7 JUMP JUMPDEST SWAP3 SWAP2 POP POP JUMP JUMPDEST PUSH1 0x0 PUSH1 0xFF DUP3 AND SWAP1 POP SWAP2 SWAP1 POP JUMP JUMPDEST PUSH2 0x1507 DUP2 PUSH2 0x14F1 JUMP JUMPDEST DUP3 MSTORE POP POP JUMP JUMPDEST PUSH1 0x0 PUSH1 0x20 DUP3 ADD SWAP1 POP PUSH2 0x1522 PUSH1 0x0 DUP4 ADD DUP5 PUSH2 0x14FE JUMP JUMPDEST SWAP3 SWAP2 POP POP JUMP JUMPDEST PUSH1 0x0 PUSH1 0x20 DUP3 DUP5 SUB SLT ISZERO PUSH2 0x153E JUMPI PUSH2 0x153D PUSH2 0x13B8 JUMP JUMPDEST JUMPDEST PUSH1 0x0 PUSH2 0x154C DUP5 DUP3 DUP6 ADD PUSH2 0x1406 JUMP JUMPDEST SWAP2 POP POP SWAP3 SWAP2 POP POP JUMP JUMPDEST PUSH1 0x0 DUP1 PUSH1 0x0 PUSH1 0x60 DUP5 DUP7 SUB SLT ISZERO PUSH2 0x156E JUMPI PUSH2 0x156D PUSH2 0x13B8 JUMP JUMPDEST JUMPDEST PUSH1 0x0 PUSH2 0x157C DUP7 DUP3 DUP8 ADD PUSH2 0x1406 JUMP JUMPDEST SWAP4 POP POP PUSH1 0x20 PUSH2 0x158D DUP7 DUP3 DUP8 ADD PUSH2 0x1406 JUMP JUMPDEST SWAP3 POP POP PUSH1 0x40 PUSH2 0x159E DUP7 DUP3 DUP8 ADD PUSH2 0x143C JUMP JUMPDEST SWAP2 POP POP SWAP3 POP SWAP3 POP SWAP3 JUMP JUMPDEST PUSH1 0x0 DUP1 PUSH1 0x40 DUP4 DUP6 SUB SLT ISZERO PUSH2 0x15BF JUMPI PUSH2 0x15BE PUSH2 0x13B8 JUMP JUMPDEST JUMPDEST PUSH1 0x0 PUSH2 0x15CD DUP6 DUP3 DUP7 ADD PUSH2 0x1406 JUMP JUMPDEST SWAP3 POP POP PUSH1 0x20 PUSH2 0x15DE DUP6 DUP3 DUP7 ADD PUSH2 0x1406 JUMP JUMPDEST SWAP2 POP POP SWAP3 POP SWAP3 SWAP1 POP JUMP JUMPDEST PUSH32 0x4E487B7100000000000000000000000000000000000000000000000000000000 PUSH1 0x0 MSTORE PUSH1 0x22 PUSH1 0x4 MSTORE PUSH1 0x24 PUSH1 0x0 REVERT JUMPDEST PUSH1 0x0 PUSH1 0x2 DUP3 DIV SWAP1 POP PUSH1 0x1 DUP3 AND DUP1 PUSH2 0x162F JUMPI PUSH1 0x7F DUP3 AND SWAP2 POP JUMPDEST PUSH1 0x20 DUP3 LT DUP2 SUB PUSH2 0x1642 JUMPI PUSH2 0x1641 PUSH2 0x15E8 JUMP JUMPDEST JUMPDEST POP SWAP2 SWAP1 POP JUMP JUMPDEST PUSH32 0x4D757374206265206163636573736564207468726F75676820612070726F706F PUSH1 0x0 DUP3 ADD MSTORE PUSH32 0x73616C0000000000000000000000000000000000000000000000000000000000 PUSH1 0x20 DUP3 ADD MSTORE POP JUMP JUMPDEST PUSH1 0x0 PUSH2 0x16A4 PUSH1 0x23 DUP4 PUSH2 0x1311 JUMP JUMPDEST SWAP2 POP PUSH2 0x16AF DUP3 PUSH2 0x1648 JUMP JUMPDEST PUSH1 0x40 DUP3 ADD SWAP1 POP SWAP2 SWAP1 POP JUMP JUMPDEST PUSH1 0x0 PUSH1 0x20 DUP3 ADD SWAP1 POP DUP2 DUP2 SUB PUSH1 0x0 DUP4 ADD MSTORE PUSH2 0x16D3 DUP2 PUSH2 0x1697 JUMP JUMPDEST SWAP1 POP SWAP2 SWAP1 POP JUMP JUMPDEST PUSH32 0x4E487B7100000000000000000000000000000000000000000000000000000000 PUSH1 0x0 MSTORE PUSH1 0x11 PUSH1 0x4 MSTORE PUSH1 0x24 PUSH1 0x0 REVERT JUMPDEST PUSH1 0x0 PUSH2 0x1714 DUP3 PUSH2 0x141B JUMP JUMPDEST SWAP2 POP PUSH2 0x171F DUP4 PUSH2 0x141B JUMP JUMPDEST SWAP3 POP DUP3 DUP3 ADD SWAP1 POP DUP1 DUP3 GT ISZERO PUSH2 0x1737 JUMPI PUSH2 0x1736 PUSH2 0x16DA JUMP JUMPDEST JUMPDEST SWAP3 SWAP2 POP POP JUMP JUMPDEST PUSH32 0x496E73756666696369656E742062616C616E6365000000000000000000000000 PUSH1 0x0 DUP3 ADD MSTORE POP JUMP JUMPDEST PUSH1 0x0 PUSH2 0x1773 PUSH1 0x14 DUP4 PUSH2 0x1311 JUMP JUMPDEST SWAP2 POP PUSH2 0x177E DUP3 PUSH2 0x173D JUMP JUMPDEST PUSH1 0x20 DUP3 ADD SWAP1 POP SWAP2 SWAP1 POP JUMP JUMPDEST PUSH1 0x0 PUSH1 0x20 DUP3 ADD SWAP1 POP DUP2 DUP2 SUB PUSH1 0x0 DUP4 ADD MSTORE PUSH2 0x17A2 DUP2 PUSH2 0x1766 JUMP JUMPDEST SWAP1 POP SWAP2 SWAP1 POP JUMP JUMPDEST PUSH32 0x5472616E7366657220616D6F756E74206578636565647320616C6C6F77616E63 PUSH1 0x0 DUP3 ADD MSTORE PUSH32 0x6500000000000000000000000000000000000000000000000000000000000000 PUSH1 0x20 DUP3 ADD MSTORE POP JUMP JUMPDEST PUSH1 0x0 PUSH2 0x1805 PUSH1 0x21 DUP4 PUSH2 0x1311 JUMP JUMPDEST SWAP2 POP PUSH2 0x1810 DUP3 PUSH2 0x17A9 JUMP JUMPDEST PUSH1 0x40 DUP3 ADD SWAP1 POP SWAP2 SWAP1 POP JUMP JUMPDEST PUSH1 0x0 PUSH1 0x20 DUP3 ADD SWAP1 POP DUP2 DUP2 SUB PUSH1 0x0 DUP4 ADD MSTORE PUSH2 0x1834 DUP2 PUSH2 0x17F8 JUMP JUMPDEST SWAP1 POP SWAP2 SWAP1 POP JUMP JUMPDEST PUSH1 0x0 PUSH2 0x1846 DUP3 PUSH2 0x141B JUMP JUMPDEST SWAP2 POP PUSH2 0x1851 DUP4 PUSH2 0x141B JUMP JUMPDEST SWAP3 POP DUP3 DUP3 SUB SWAP1 POP DUP2 DUP2 GT ISZERO PUSH2 0x1869 JUMPI PUSH2 0x1868 PUSH2 0x16DA JUMP JUMPDEST JUMPDEST SWAP3 SWAP2 POP POP JUMP INVALID LOG2 PUSH5 0x6970667358 0x22 SLT KECCAK256 0xED DUP6 0xCE 0xCA 0xE1 0xD7 0xA7 ADD 0xEB SMOD CALLCODE MOD SAR 0xCB LT DUP11 CODECOPY 0xDB PUSH13 0x8EC8BBEC7F2E717C0D0DC7C5E1 PUSH5 0x736F6C6343 STOP ADDMOD SLT STOP CALLER "
				},
				"gasEstimates": {
					"creation": {
						"codeDepositCost": "1261800",
						"executionCost": "infinite",
						"totalCost": "infinite"
					},
					"external": {
						"allowance(address,address)": "infinite",
						"approve(address,uint256)": "infinite",
						"balanceOf(address)": "2870",
						"burn(address,uint256)": "infinite",
						"decimals()": "2514",
						"isCustodian(address)": "2940",
						"isSyndicate(address)": "2917",
						"mint(address,uint256)": "infinite",
						"name()": "infinite",
						"symbol()": "infinite",
						"toggleIsSyndicate(address)": "31709",
						"totalSupply()": "2517",
						"transfer(address,uint256)": "infinite",
						"transferfrom(address,address,uint256)": "infinite",
						"votingWeightOf(address)": "2935"
					}
				},
				"methodIdentifiers": {
					"allowance(address,address)": "dd62ed3e",
					"approve(address,uint256)": "095ea7b3",
					"balanceOf(address)": "70a08231",
					"burn(address,uint256)": "9dc29fac",
					"decimals()": "313ce567",
					"isCustodian(address)": "35c80c8c",
					"isSyndicate(address)": "c3336638",
					"mint(address,uint256)": "40c10f19",
					"name()": "06fdde03",
					"symbol()": "95d89b41",
					"toggleIsSyndicate(address)": "f1fb5d9d",
					"totalSupply()": "18160ddd",
					"transfer(address,uint256)": "a9059cbb",
					"transferfrom(address,address,uint256)": "63b0545f",
					"votingWeightOf(address)": "faeae2f1"
				}
			},
			"storageLayout": {
				"storage": [
					{
						"astId": 111,
						"contract": "smart_contracts/contracts/DreamcatcherToken.sol:DreamcatcherToken",
						"label": "dreamcatcherToken",
						"offset": 0,
						"slot": "0",
						"type": "t_struct(Token)66_storage"
					},
					{
						"astId": 114,
						"contract": "smart_contracts/contracts/DreamcatcherToken.sol:DreamcatcherToken",
						"label": "custodian",
						"offset": 0,
						"slot": "14",
						"type": "t_struct(Custodian)108_storage"
					}
				],
				"types": {
					"t_address": {
						"encoding": "inplace",
						"label": "address",
						"numberOfBytes": "20"
					},
					"t_bool": {
						"encoding": "inplace",
						"label": "bool",
						"numberOfBytes": "1"
					},
					"t_mapping(t_address,t_bool)": {
						"encoding": "mapping",
						"key": "t_address",
						"label": "mapping(address => bool)",
						"numberOfBytes": "32",
						"value": "t_bool"
					},
					"t_mapping(t_address,t_mapping(t_address,t_uint256))": {
						"encoding": "mapping",
						"key": "t_address",
						"label": "mapping(address => mapping(address => uint256))",
						"numberOfBytes": "32",
						"value": "t_mapping(t_address,t_uint256)"
					},
					"t_mapping(t_address,t_uint256)": {
						"encoding": "mapping",
						"key": "t_address",
						"label": "mapping(address => uint256)",
						"numberOfBytes": "32",
						"value": "t_uint256"
					},
					"t_string_storage": {
						"encoding": "bytes",
						"label": "string",
						"numberOfBytes": "32"
					},
					"t_struct(Custodian)108_storage": {
						"encoding": "inplace",
						"label": "struct DreamcatcherToken.Custodian",
						"members": [
							{
								"astId": 101,
								"contract": "smart_contracts/contracts/DreamcatcherToken.sol:DreamcatcherToken",
								"label": "account",
								"offset": 0,
								"slot": "0",
								"type": "t_address"
							},
							{
								"astId": 104,
								"contract": "smart_contracts/contracts/DreamcatcherToken.sol:DreamcatcherToken",
								"label": "syndicate",
								"offset": 0,
								"slot": "1",
								"type": "t_struct(Syndicate)83_storage"
							},
							{
								"astId": 107,
								"contract": "smart_contracts/contracts/DreamcatcherToken.sol:DreamcatcherToken",
								"label": "vault",
								"offset": 0,
								"slot": "7",
								"type": "t_struct(Vault)99_storage"
							}
						],
						"numberOfBytes": "352"
					},
					"t_struct(Settings)79_storage": {
						"encoding": "inplace",
						"label": "struct DreamcatcherToken.Settings",
						"members": [
							{
								"astId": 68,
								"contract": "smart_contracts/contracts/DreamcatcherToken.sol:DreamcatcherToken",
								"label": "n",
								"offset": 0,
								"slot": "0",
								"type": "t_uint256"
							},
							{
								"astId": 70,
								"contract": "smart_contracts/contracts/DreamcatcherToken.sol:DreamcatcherToken",
								"label": "nMin",
								"offset": 0,
								"slot": "1",
								"type": "t_uint256"
							},
							{
								"astId": 72,
								"contract": "smart_contracts/contracts/DreamcatcherToken.sol:DreamcatcherToken",
								"label": "nMax",
								"offset": 0,
								"slot": "2",
								"type": "t_uint256"
							},
							{
								"astId": 74,
								"contract": "smart_contracts/contracts/DreamcatcherToken.sol:DreamcatcherToken",
								"label": "minBalance",
								"offset": 0,
								"slot": "3",
								"type": "t_uint256"
							},
							{
								"astId": 76,
								"contract": "smart_contracts/contracts/DreamcatcherToken.sol:DreamcatcherToken",
								"label": "minStaked",
								"offset": 0,
								"slot": "4",
								"type": "t_uint256"
							},
							{
								"astId": 78,
								"contract": "smart_contracts/contracts/DreamcatcherToken.sol:DreamcatcherToken",
								"label": "minVotes",
								"offset": 0,
								"slot": "5",
								"type": "t_uint256"
							}
						],
						"numberOfBytes": "192"
					},
					"t_struct(Syndicate)83_storage": {
						"encoding": "inplace",
						"label": "struct DreamcatcherToken.Syndicate",
						"members": [
							{
								"astId": 82,
								"contract": "smart_contracts/contracts/DreamcatcherToken.sol:DreamcatcherToken",
								"label": "settings",
								"offset": 0,
								"slot": "0",
								"type": "t_struct(Settings)79_storage"
							}
						],
						"numberOfBytes": "192"
					},
					"t_struct(Token)66_storage": {
						"encoding": "inplace",
						"label": "struct DreamcatcherToken.Token",
						"members": [
							{
								"astId": 35,
								"contract": "smart_contracts/contracts/DreamcatcherToken.sol:DreamcatcherToken",
								"label": "IERC20",
								"offset": 0,
								"slot": "0",
								"type": "t_struct(TokenIERC20)12_storage"
							},
							{
								"astId": 39,
								"contract": "smart_contracts/contracts/DreamcatcherToken.sol:DreamcatcherToken",
								"label": "balance",
								"offset": 0,
								"slot": "5",
								"type": "t_mapping(t_address,t_uint256)"
							},
							{
								"astId": 43,
								"contract": "smart_contracts/contracts/DreamcatcherToken.sol:DreamcatcherToken",
								"label": "vested",
								"offset": 0,
								"slot": "6",
								"type": "t_mapping(t_address,t_uint256)"
							},
							{
								"astId": 47,
								"contract": "smart_contracts/contracts/DreamcatcherToken.sol:DreamcatcherToken",
								"label": "staked",
								"offset": 0,
								"slot": "7",
								"type": "t_mapping(t_address,t_uint256)"
							},
							{
								"astId": 51,
								"contract": "smart_contracts/contracts/DreamcatcherToken.sol:DreamcatcherToken",
								"label": "votes",
								"offset": 0,
								"slot": "8",
								"type": "t_mapping(t_address,t_uint256)"
							},
							{
								"astId": 57,
								"contract": "smart_contracts/contracts/DreamcatcherToken.sol:DreamcatcherToken",
								"label": "allowance",
								"offset": 0,
								"slot": "9",
								"type": "t_mapping(t_address,t_mapping(t_address,t_uint256))"
							},
							{
								"astId": 60,
								"contract": "smart_contracts/contracts/DreamcatcherToken.sol:DreamcatcherToken",
								"label": "toggles",
								"offset": 0,
								"slot": "10",
								"type": "t_struct(TokenToggles)23_storage"
							},
							{
								"astId": 63,
								"contract": "smart_contracts/contracts/DreamcatcherToken.sol:DreamcatcherToken",
								"label": "addressStateToggles",
								"offset": 0,
								"slot": "11",
								"type": "t_struct(TokenAddressStateToggles)32_storage"
							},
							{
								"astId": 65,
								"contract": "smart_contracts/contracts/DreamcatcherToken.sol:DreamcatcherToken",
								"label": "snapshotCount",
								"offset": 0,
								"slot": "13",
								"type": "t_uint256"
							}
						],
						"numberOfBytes": "448"
					},
					"t_struct(TokenAddressStateToggles)32_storage": {
						"encoding": "inplace",
						"label": "struct DreamcatcherToken.TokenAddressStateToggles",
						"members": [
							{
								"astId": 27,
								"contract": "smart_contracts/contracts/DreamcatcherToken.sol:DreamcatcherToken",
								"label": "isCustodian",
								"offset": 0,
								"slot": "0",
								"type": "t_mapping(t_address,t_bool)"
							},
							{
								"astId": 31,
								"contract": "smart_contracts/contracts/DreamcatcherToken.sol:DreamcatcherToken",
								"label": "isSyndicate",
								"offset": 0,
								"slot": "1",
								"type": "t_mapping(t_address,t_bool)"
							}
						],
						"numberOfBytes": "64"
					},
					"t_struct(TokenIERC20)12_storage": {
						"encoding": "inplace",
						"label": "struct DreamcatcherToken.TokenIERC20",
						"members": [
							{
								"astId": 3,
								"contract": "smart_contracts/contracts/DreamcatcherToken.sol:DreamcatcherToken",
								"label": "name",
								"offset": 0,
								"slot": "0",
								"type": "t_string_storage"
							},
							{
								"astId": 5,
								"contract": "smart_contracts/contracts/DreamcatcherToken.sol:DreamcatcherToken",
								"label": "symbol",
								"offset": 0,
								"slot": "1",
								"type": "t_string_storage"
							},
							{
								"astId": 7,
								"contract": "smart_contracts/contracts/DreamcatcherToken.sol:DreamcatcherToken",
								"label": "decimals",
								"offset": 0,
								"slot": "2",
								"type": "t_uint8"
							},
							{
								"astId": 9,
								"contract": "smart_contracts/contracts/DreamcatcherToken.sol:DreamcatcherToken",
								"label": "totalSupply",
								"offset": 0,
								"slot": "3",
								"type": "t_uint256"
							},
							{
								"astId": 11,
								"contract": "smart_contracts/contracts/DreamcatcherToken.sol:DreamcatcherToken",
								"label": "initialSupply",
								"offset": 0,
								"slot": "4",
								"type": "t_uint256"
							}
						],
						"numberOfBytes": "160"
					},
					"t_struct(TokenToggles)23_storage": {
						"encoding": "inplace",
						"label": "struct DreamcatcherToken.TokenToggles",
						"members": [
							{
								"astId": 14,
								"contract": "smart_contracts/contracts/DreamcatcherToken.sol:DreamcatcherToken",
								"label": "isPausable",
								"offset": 0,
								"slot": "0",
								"type": "t_bool"
							},
							{
								"astId": 16,
								"contract": "smart_contracts/contracts/DreamcatcherToken.sol:DreamcatcherToken",
								"label": "isPaused",
								"offset": 1,
								"slot": "0",
								"type": "t_bool"
							},
							{
								"astId": 18,
								"contract": "smart_contracts/contracts/DreamcatcherToken.sol:DreamcatcherToken",
								"label": "isMintable",
								"offset": 2,
								"slot": "0",
								"type": "t_bool"
							},
							{
								"astId": 20,
								"contract": "smart_contracts/contracts/DreamcatcherToken.sol:DreamcatcherToken",
								"label": "isBurnable",
								"offset": 3,
								"slot": "0",
								"type": "t_bool"
							},
							{
								"astId": 22,
								"contract": "smart_contracts/contracts/DreamcatcherToken.sol:DreamcatcherToken",
								"label": "isTransferable",
								"offset": 4,
								"slot": "0",
								"type": "t_bool"
							}
						],
						"numberOfBytes": "32"
					},
					"t_struct(Vault)99_storage": {
						"encoding": "inplace",
						"label": "struct DreamcatcherToken.Vault",
						"members": [
							{
								"astId": 90,
								"contract": "smart_contracts/contracts/DreamcatcherToken.sol:DreamcatcherToken",
								"label": "isBuying",
								"offset": 0,
								"slot": "0",
								"type": "t_bool"
							},
							{
								"astId": 92,
								"contract": "smart_contracts/contracts/DreamcatcherToken.sol:DreamcatcherToken",
								"label": "isSelling",
								"offset": 1,
								"slot": "0",
								"type": "t_bool"
							},
							{
								"astId": 94,
								"contract": "smart_contracts/contracts/DreamcatcherToken.sol:DreamcatcherToken",
								"label": "askEth",
								"offset": 0,
								"slot": "1",
								"type": "t_uint256"
							},
							{
								"astId": 96,
								"contract": "smart_contracts/contracts/DreamcatcherToken.sol:DreamcatcherToken",
								"label": "bidEth",
								"offset": 0,
								"slot": "2",
								"type": "t_uint256"
							},
							{
								"astId": 98,
								"contract": "smart_contracts/contracts/DreamcatcherToken.sol:DreamcatcherToken",
								"label": "amount",
								"offset": 0,
								"slot": "3",
								"type": "t_uint256"
							}
						],
						"numberOfBytes": "128"
					},
					"t_uint256": {
						"encoding": "inplace",
						"label": "uint256",
						"numberOfBytes": "32"
					},
					"t_uint8": {
						"encoding": "inplace",
						"label": "uint8",
						"numberOfBytes": "1"
					}
				}
			},
			"userdoc": {
				"kind": "user",
				"methods": {},
				"version": 1
			}
		}
	}
}