{
	"smart_contracts/contracts/Token.sol": {
		"Token": {
			"abi": [
				{
					"inputs": [],
					"stateMutability": "nonpayable",
					"type": "constructor"
				},
				{
					"anonymous": false,
					"inputs": [
						{
							"indexed": true,
							"internalType": "address",
							"name": "_owner",
							"type": "address"
						},
						{
							"indexed": true,
							"internalType": "address",
							"name": "_spender",
							"type": "address"
						},
						{
							"indexed": false,
							"internalType": "uint256",
							"name": "_value",
							"type": "uint256"
						}
					],
					"name": "Approval",
					"type": "event"
				},
				{
					"anonymous": false,
					"inputs": [
						{
							"indexed": true,
							"internalType": "address",
							"name": "_owner",
							"type": "address"
						},
						{
							"indexed": false,
							"internalType": "uint256",
							"name": "_newDuration",
							"type": "uint256"
						}
					],
					"name": "RoleExtendedAdmin",
					"type": "event"
				},
				{
					"anonymous": false,
					"inputs": [
						{
							"indexed": true,
							"internalType": "address",
							"name": "_owner",
							"type": "address"
						},
						{
							"indexed": false,
							"internalType": "uint256",
							"name": "_newDuration",
							"type": "uint256"
						}
					],
					"name": "RoleExtendedExtension",
					"type": "event"
				},
				{
					"anonymous": false,
					"inputs": [
						{
							"indexed": true,
							"internalType": "address",
							"name": "_owner",
							"type": "address"
						},
						{
							"indexed": false,
							"internalType": "uint256",
							"name": "_newDuration",
							"type": "uint256"
						}
					],
					"name": "RoleExtendedOperator",
					"type": "event"
				},
				{
					"anonymous": false,
					"inputs": [
						{
							"indexed": true,
							"internalType": "address",
							"name": "_owner",
							"type": "address"
						},
						{
							"indexed": false,
							"internalType": "uint256",
							"name": "_newDuration",
							"type": "uint256"
						}
					],
					"name": "RoleExtendedSyndicate",
					"type": "event"
				},
				{
					"anonymous": false,
					"inputs": [
						{
							"indexed": true,
							"internalType": "address",
							"name": "_owner",
							"type": "address"
						},
						{
							"indexed": false,
							"internalType": "uint256",
							"name": "_newDuration",
							"type": "uint256"
						}
					],
					"name": "RoleExtendedValidator",
					"type": "event"
				},
				{
					"anonymous": false,
					"inputs": [
						{
							"indexed": true,
							"internalType": "address",
							"name": "_owner",
							"type": "address"
						},
						{
							"indexed": false,
							"internalType": "uint256",
							"name": "_start",
							"type": "uint256"
						},
						{
							"indexed": false,
							"internalType": "uint256",
							"name": "_duration",
							"type": "uint256"
						}
					],
					"name": "RoleGrantedAdmin",
					"type": "event"
				},
				{
					"anonymous": false,
					"inputs": [
						{
							"indexed": true,
							"internalType": "address",
							"name": "_owner",
							"type": "address"
						},
						{
							"indexed": false,
							"internalType": "uint256",
							"name": "_start",
							"type": "uint256"
						},
						{
							"indexed": false,
							"internalType": "uint256",
							"name": "_duration",
							"type": "uint256"
						}
					],
					"name": "RoleGrantedExtension",
					"type": "event"
				},
				{
					"anonymous": false,
					"inputs": [
						{
							"indexed": true,
							"internalType": "address",
							"name": "_owner",
							"type": "address"
						},
						{
							"indexed": false,
							"internalType": "uint256",
							"name": "_start",
							"type": "uint256"
						},
						{
							"indexed": false,
							"internalType": "uint256",
							"name": "_duration",
							"type": "uint256"
						}
					],
					"name": "RoleGrantedOperator",
					"type": "event"
				},
				{
					"anonymous": false,
					"inputs": [
						{
							"indexed": true,
							"internalType": "address",
							"name": "_owner",
							"type": "address"
						},
						{
							"indexed": false,
							"internalType": "uint256",
							"name": "_start",
							"type": "uint256"
						},
						{
							"indexed": false,
							"internalType": "uint256",
							"name": "_duration",
							"type": "uint256"
						}
					],
					"name": "RoleGrantedSyndicate",
					"type": "event"
				},
				{
					"anonymous": false,
					"inputs": [
						{
							"indexed": true,
							"internalType": "address",
							"name": "_owner",
							"type": "address"
						},
						{
							"indexed": false,
							"internalType": "uint256",
							"name": "_start",
							"type": "uint256"
						},
						{
							"indexed": false,
							"internalType": "uint256",
							"name": "_duration",
							"type": "uint256"
						}
					],
					"name": "RoleGrantedValidator",
					"type": "event"
				},
				{
					"anonymous": false,
					"inputs": [
						{
							"indexed": true,
							"internalType": "address",
							"name": "_owner",
							"type": "address"
						}
					],
					"name": "RoleRevokedAdmin",
					"type": "event"
				},
				{
					"anonymous": false,
					"inputs": [
						{
							"indexed": true,
							"internalType": "address",
							"name": "_owner",
							"type": "address"
						}
					],
					"name": "RoleRevokedExtension",
					"type": "event"
				},
				{
					"anonymous": false,
					"inputs": [
						{
							"indexed": true,
							"internalType": "address",
							"name": "_owner",
							"type": "address"
						}
					],
					"name": "RoleRevokedOperator",
					"type": "event"
				},
				{
					"anonymous": false,
					"inputs": [
						{
							"indexed": true,
							"internalType": "address",
							"name": "_owner",
							"type": "address"
						}
					],
					"name": "RoleRevokedSyndicate",
					"type": "event"
				},
				{
					"anonymous": false,
					"inputs": [
						{
							"indexed": true,
							"internalType": "address",
							"name": "_owner",
							"type": "address"
						}
					],
					"name": "RoleRevokedValidator",
					"type": "event"
				},
				{
					"anonymous": false,
					"inputs": [
						{
							"indexed": true,
							"internalType": "address",
							"name": "_from",
							"type": "address"
						},
						{
							"indexed": true,
							"internalType": "address",
							"name": "_to",
							"type": "address"
						},
						{
							"indexed": false,
							"internalType": "uint256",
							"name": "_value",
							"type": "uint256"
						}
					],
					"name": "Transfer",
					"type": "event"
				},
				{
					"inputs": [
						{
							"internalType": "address",
							"name": "_owner",
							"type": "address"
						},
						{
							"internalType": "address",
							"name": "_spender",
							"type": "address"
						}
					],
					"name": "allowance",
					"outputs": [
						{
							"internalType": "uint256",
							"name": "remaining",
							"type": "uint256"
						}
					],
					"stateMutability": "view",
					"type": "function"
				},
				{
					"inputs": [
						{
							"internalType": "address",
							"name": "_spender",
							"type": "address"
						},
						{
							"internalType": "uint256",
							"name": "_value",
							"type": "uint256"
						}
					],
					"name": "approve",
					"outputs": [
						{
							"internalType": "bool",
							"name": "",
							"type": "bool"
						}
					],
					"stateMutability": "nonpayable",
					"type": "function"
				},
				{
					"inputs": [
						{
							"internalType": "address",
							"name": "_owner",
							"type": "address"
						}
					],
					"name": "balanceOf",
					"outputs": [
						{
							"internalType": "uint256",
							"name": "",
							"type": "uint256"
						}
					],
					"stateMutability": "view",
					"type": "function"
				},
				{
					"inputs": [],
					"name": "decimals",
					"outputs": [
						{
							"internalType": "uint8",
							"name": "",
							"type": "uint8"
						}
					],
					"stateMutability": "view",
					"type": "function"
				},
				{
					"inputs": [],
					"name": "maxSupply",
					"outputs": [
						{
							"internalType": "uint256",
							"name": "",
							"type": "uint256"
						}
					],
					"stateMutability": "view",
					"type": "function"
				},
				{
					"inputs": [],
					"name": "name",
					"outputs": [
						{
							"internalType": "string",
							"name": "",
							"type": "string"
						}
					],
					"stateMutability": "view",
					"type": "function"
				},
				{
					"inputs": [
						{
							"internalType": "string",
							"name": "_caption",
							"type": "string"
						}
					],
					"name": "release",
					"outputs": [
						{
							"internalType": "bool",
							"name": "",
							"type": "bool"
						}
					],
					"stateMutability": "nonpayable",
					"type": "function"
				},
				{
					"inputs": [
						{
							"internalType": "uint256",
							"name": "_value",
							"type": "uint256"
						}
					],
					"name": "stake",
					"outputs": [
						{
							"internalType": "bool",
							"name": "",
							"type": "bool"
						}
					],
					"stateMutability": "nonpayable",
					"type": "function"
				},
				{
					"inputs": [
						{
							"internalType": "address",
							"name": "_owner",
							"type": "address"
						}
					],
					"name": "stakeOf",
					"outputs": [
						{
							"internalType": "uint256",
							"name": "",
							"type": "uint256"
						}
					],
					"stateMutability": "view",
					"type": "function"
				},
				{
					"inputs": [],
					"name": "symbol",
					"outputs": [
						{
							"internalType": "string",
							"name": "",
							"type": "string"
						}
					],
					"stateMutability": "view",
					"type": "function"
				},
				{
					"inputs": [],
					"name": "totalStaked",
					"outputs": [
						{
							"internalType": "uint256",
							"name": "",
							"type": "uint256"
						}
					],
					"stateMutability": "view",
					"type": "function"
				},
				{
					"inputs": [],
					"name": "totalSupply",
					"outputs": [
						{
							"internalType": "uint256",
							"name": "",
							"type": "uint256"
						}
					],
					"stateMutability": "view",
					"type": "function"
				},
				{
					"inputs": [],
					"name": "totalVotes",
					"outputs": [
						{
							"internalType": "uint256",
							"name": "",
							"type": "uint256"
						}
					],
					"stateMutability": "view",
					"type": "function"
				},
				{
					"inputs": [
						{
							"internalType": "address",
							"name": "_to",
							"type": "address"
						},
						{
							"internalType": "uint256",
							"name": "_value",
							"type": "uint256"
						}
					],
					"name": "transfer",
					"outputs": [
						{
							"internalType": "bool",
							"name": "",
							"type": "bool"
						}
					],
					"stateMutability": "nonpayable",
					"type": "function"
				},
				{
					"inputs": [
						{
							"internalType": "address",
							"name": "_from",
							"type": "address"
						},
						{
							"internalType": "address",
							"name": "_to",
							"type": "address"
						},
						{
							"internalType": "uint256",
							"name": "_value",
							"type": "uint256"
						}
					],
					"name": "transferFrom",
					"outputs": [
						{
							"internalType": "bool",
							"name": "",
							"type": "bool"
						}
					],
					"stateMutability": "nonpayable",
					"type": "function"
				},
				{
					"inputs": [
						{
							"internalType": "uint256",
							"name": "_value",
							"type": "uint256"
						}
					],
					"name": "unstake",
					"outputs": [
						{
							"internalType": "bool",
							"name": "",
							"type": "bool"
						}
					],
					"stateMutability": "nonpayable",
					"type": "function"
				},
				{
					"inputs": [
						{
							"internalType": "uint256",
							"name": "_bpFeeBurn",
							"type": "uint256"
						},
						{
							"internalType": "uint256",
							"name": "_bpFeeBank",
							"type": "uint256"
						}
					],
					"name": "updateSettings",
					"outputs": [
						{
							"internalType": "bool",
							"name": "",
							"type": "bool"
						}
					],
					"stateMutability": "nonpayable",
					"type": "function"
				},
				{
					"inputs": [
						{
							"internalType": "address",
							"name": "_owner",
							"type": "address"
						}
					],
					"name": "votesOf",
					"outputs": [
						{
							"internalType": "uint256",
							"name": "",
							"type": "uint256"
						}
					],
					"stateMutability": "view",
					"type": "function"
				}
			],
			"devdoc": {
				"kind": "dev",
				"methods": {},
				"version": 1
			},
			"evm": {
				"assembly": "    /* \"smart_contracts/contracts/Token.sol\":1607:9874  contract Token is Authenticator, IERC20, ICustomToken {... */\n  mstore(0x40, 0xa0)\n    /* \"smart_contracts/contracts/State.sol\":111:128  type(uint256).max */\n  0xffffffffffffffffffffffffffffffffffffffffffffffffffffffffffffffff\n    /* \"smart_contracts/contracts/State.sol\":82:128  uint256 immutable INFINITE = type(uint256).max */\n  0x80\n  swap1\n  dup2\n  mstore\n  pop\n    /* \"smart_contracts/contracts/Token.sol\":1668:2510  constructor() {... */\n  callvalue\n  dup1\n  iszero\n  tag_1\n  jumpi\n  0x00\n  dup1\n  revert\ntag_1:\n  pop\n    /* \"smart_contracts/contracts/Authenticator.sol\":2639:2640  0 */\n  0x00\n    /* \"smart_contracts/contracts/Authenticator.sol\":2612:2620  settings */\n  0x14\n    /* \"smart_contracts/contracts/Authenticator.sol\":2612:2626  settings.roles */\n  0x00\n  add\n    /* \"smart_contracts/contracts/Authenticator.sol\":2612:2632  settings.roles.admin */\n  0x00\n  add\n    /* \"smart_contracts/contracts/Authenticator.sol\":2612:2636  settings.roles.admin.cur */\n  0x00\n  add\n    /* \"smart_contracts/contracts/Authenticator.sol\":2612:2640  settings.roles.admin.cur = 0 */\n  dup2\n  swap1\n  sstore\n  pop\n    /* \"smart_contracts/contracts/Authenticator.sol\":2681:2682  0 */\n  0x00\n    /* \"smart_contracts/contracts/Authenticator.sol\":2651:2659  settings */\n  0x14\n    /* \"smart_contracts/contracts/Authenticator.sol\":2651:2665  settings.roles */\n  0x00\n  add\n    /* \"smart_contracts/contracts/Authenticator.sol\":2651:2674  settings.roles.operator */\n  0x03\n  add\n    /* \"smart_contracts/contracts/Authenticator.sol\":2651:2678  settings.roles.operator.cur */\n  0x00\n  add\n    /* \"smart_contracts/contracts/Authenticator.sol\":2651:2682  settings.roles.operator.cur = 0 */\n  dup2\n  swap1\n  sstore\n  pop\n    /* \"smart_contracts/contracts/Authenticator.sol\":2724:2725  0 */\n  0x00\n    /* \"smart_contracts/contracts/Authenticator.sol\":2693:2701  settings */\n  0x14\n    /* \"smart_contracts/contracts/Authenticator.sol\":2693:2707  settings.roles */\n  0x00\n  add\n    /* \"smart_contracts/contracts/Authenticator.sol\":2693:2717  settings.roles.syndicate */\n  0x06\n  add\n    /* \"smart_contracts/contracts/Authenticator.sol\":2693:2721  settings.roles.syndicate.cur */\n  0x00\n  add\n    /* \"smart_contracts/contracts/Authenticator.sol\":2693:2725  settings.roles.syndicate.cur = 0 */\n  dup2\n  swap1\n  sstore\n  pop\n    /* \"smart_contracts/contracts/Authenticator.sol\":2767:2768  0 */\n  0x00\n    /* \"smart_contracts/contracts/Authenticator.sol\":2736:2744  settings */\n  0x14\n    /* \"smart_contracts/contracts/Authenticator.sol\":2736:2750  settings.roles */\n  0x00\n  add\n    /* \"smart_contracts/contracts/Authenticator.sol\":2736:2760  settings.roles.validator */\n  0x09\n  add\n    /* \"smart_contracts/contracts/Authenticator.sol\":2736:2764  settings.roles.validator.cur */\n  0x00\n  add\n    /* \"smart_contracts/contracts/Authenticator.sol\":2736:2768  settings.roles.validator.cur = 0 */\n  dup2\n  swap1\n  sstore\n  pop\n    /* \"smart_contracts/contracts/Authenticator.sol\":2810:2811  0 */\n  0x00\n    /* \"smart_contracts/contracts/Authenticator.sol\":2779:2787  settings */\n  0x14\n    /* \"smart_contracts/contracts/Authenticator.sol\":2779:2793  settings.roles */\n  0x00\n  add\n    /* \"smart_contracts/contracts/Authenticator.sol\":2779:2803  settings.roles.extension */\n  0x0c\n  add\n    /* \"smart_contracts/contracts/Authenticator.sol\":2779:2807  settings.roles.extension.cur */\n  0x00\n  add\n    /* \"smart_contracts/contracts/Authenticator.sol\":2779:2811  settings.roles.extension.cur = 0 */\n  dup2\n  swap1\n  sstore\n  pop\n    /* \"smart_contracts/contracts/Authenticator.sol\":2851:2852  0 */\n  0x00\n    /* \"smart_contracts/contracts/Authenticator.sol\":2824:2832  settings */\n  0x14\n    /* \"smart_contracts/contracts/Authenticator.sol\":2824:2838  settings.roles */\n  0x00\n  add\n    /* \"smart_contracts/contracts/Authenticator.sol\":2824:2844  settings.roles.admin */\n  0x00\n  add\n    /* \"smart_contracts/contracts/Authenticator.sol\":2824:2848  settings.roles.admin.min */\n  0x01\n  add\n    /* \"smart_contracts/contracts/Authenticator.sol\":2824:2852  settings.roles.admin.min = 0 */\n  dup2\n  swap1\n  sstore\n  pop\n    /* \"smart_contracts/contracts/Authenticator.sol\":2893:2894  0 */\n  0x00\n    /* \"smart_contracts/contracts/Authenticator.sol\":2863:2871  settings */\n  0x14\n    /* \"smart_contracts/contracts/Authenticator.sol\":2863:2877  settings.roles */\n  0x00\n  add\n    /* \"smart_contracts/contracts/Authenticator.sol\":2863:2886  settings.roles.operator */\n  0x03\n  add\n    /* \"smart_contracts/contracts/Authenticator.sol\":2863:2890  settings.roles.operator.min */\n  0x01\n  add\n    /* \"smart_contracts/contracts/Authenticator.sol\":2863:2894  settings.roles.operator.min = 0 */\n  dup2\n  swap1\n  sstore\n  pop\n    /* \"smart_contracts/contracts/Authenticator.sol\":2936:2937  0 */\n  0x00\n    /* \"smart_contracts/contracts/Authenticator.sol\":2905:2913  settings */\n  0x14\n    /* \"smart_contracts/contracts/Authenticator.sol\":2905:2919  settings.roles */\n  0x00\n  add\n    /* \"smart_contracts/contracts/Authenticator.sol\":2905:2929  settings.roles.syndicate */\n  0x06\n  add\n    /* \"smart_contracts/contracts/Authenticator.sol\":2905:2933  settings.roles.syndicate.min */\n  0x01\n  add\n    /* \"smart_contracts/contracts/Authenticator.sol\":2905:2937  settings.roles.syndicate.min = 0 */\n  dup2\n  swap1\n  sstore\n  pop\n    /* \"smart_contracts/contracts/Authenticator.sol\":2979:2980  0 */\n  0x00\n    /* \"smart_contracts/contracts/Authenticator.sol\":2948:2956  settings */\n  0x14\n    /* \"smart_contracts/contracts/Authenticator.sol\":2948:2962  settings.roles */\n  0x00\n  add\n    /* \"smart_contracts/contracts/Authenticator.sol\":2948:2972  settings.roles.validator */\n  0x09\n  add\n    /* \"smart_contracts/contracts/Authenticator.sol\":2948:2976  settings.roles.validator.min */\n  0x01\n  add\n    /* \"smart_contracts/contracts/Authenticator.sol\":2948:2980  settings.roles.validator.min = 0 */\n  dup2\n  swap1\n  sstore\n  pop\n    /* \"smart_contracts/contracts/Authenticator.sol\":3022:3023  0 */\n  0x00\n    /* \"smart_contracts/contracts/Authenticator.sol\":2991:2999  settings */\n  0x14\n    /* \"smart_contracts/contracts/Authenticator.sol\":2991:3005  settings.roles */\n  0x00\n  add\n    /* \"smart_contracts/contracts/Authenticator.sol\":2991:3015  settings.roles.extension */\n  0x0c\n  add\n    /* \"smart_contracts/contracts/Authenticator.sol\":2991:3019  settings.roles.extension.min */\n  0x01\n  add\n    /* \"smart_contracts/contracts/Authenticator.sol\":2991:3023  settings.roles.extension.min = 0 */\n  dup2\n  swap1\n  sstore\n  pop\n    /* \"smart_contracts/contracts/Authenticator.sol\":3063:3064  1 */\n  0x01\n    /* \"smart_contracts/contracts/Authenticator.sol\":3036:3044  settings */\n  0x14\n    /* \"smart_contracts/contracts/Authenticator.sol\":3036:3050  settings.roles */\n  0x00\n  add\n    /* \"smart_contracts/contracts/Authenticator.sol\":3036:3056  settings.roles.admin */\n  0x00\n  add\n    /* \"smart_contracts/contracts/Authenticator.sol\":3036:3060  settings.roles.admin.max */\n  0x02\n  add\n    /* \"smart_contracts/contracts/Authenticator.sol\":3036:3064  settings.roles.admin.max = 1 */\n  dup2\n  swap1\n  sstore\n  pop\n    /* \"smart_contracts/contracts/Authenticator.sol\":3105:3106  1 */\n  0x01\n    /* \"smart_contracts/contracts/Authenticator.sol\":3075:3083  settings */\n  0x14\n    /* \"smart_contracts/contracts/Authenticator.sol\":3075:3089  settings.roles */\n  0x00\n  add\n    /* \"smart_contracts/contracts/Authenticator.sol\":3075:3098  settings.roles.operator */\n  0x03\n  add\n    /* \"smart_contracts/contracts/Authenticator.sol\":3075:3102  settings.roles.operator.max */\n  0x02\n  add\n    /* \"smart_contracts/contracts/Authenticator.sol\":3075:3106  settings.roles.operator.max = 1 */\n  dup2\n  swap1\n  sstore\n  pop\n    /* \"smart_contracts/contracts/Authenticator.sol\":3148:3149  6 */\n  0x06\n    /* \"smart_contracts/contracts/Authenticator.sol\":3117:3125  settings */\n  0x14\n    /* \"smart_contracts/contracts/Authenticator.sol\":3117:3131  settings.roles */\n  0x00\n  add\n    /* \"smart_contracts/contracts/Authenticator.sol\":3117:3141  settings.roles.syndicate */\n  0x06\n  add\n    /* \"smart_contracts/contracts/Authenticator.sol\":3117:3145  settings.roles.syndicate.max */\n  0x02\n  add\n    /* \"smart_contracts/contracts/Authenticator.sol\":3117:3149  settings.roles.syndicate.max = 6 */\n  dup2\n  swap1\n  sstore\n  pop\n    /* \"smart_contracts/contracts/Authenticator.sol\":3191:3199  INFINITE */\n  mload(0x80)\n    /* \"smart_contracts/contracts/Authenticator.sol\":3160:3168  settings */\n  0x14\n    /* \"smart_contracts/contracts/Authenticator.sol\":3160:3174  settings.roles */\n  0x00\n  add\n    /* \"smart_contracts/contracts/Authenticator.sol\":3160:3184  settings.roles.validator */\n  0x09\n  add\n    /* \"smart_contracts/contracts/Authenticator.sol\":3160:3188  settings.roles.validator.max */\n  0x02\n  add\n    /* \"smart_contracts/contracts/Authenticator.sol\":3160:3199  settings.roles.validator.max = INFINITE */\n  dup2\n  swap1\n  sstore\n  pop\n    /* \"smart_contracts/contracts/Authenticator.sol\":3241:3249  INFINITE */\n  mload(0x80)\n    /* \"smart_contracts/contracts/Authenticator.sol\":3210:3218  settings */\n  0x14\n    /* \"smart_contracts/contracts/Authenticator.sol\":3210:3224  settings.roles */\n  0x00\n  add\n    /* \"smart_contracts/contracts/Authenticator.sol\":3210:3234  settings.roles.extension */\n  0x0c\n  add\n    /* \"smart_contracts/contracts/Authenticator.sol\":3210:3238  settings.roles.extension.max */\n  0x02\n  add\n    /* \"smart_contracts/contracts/Authenticator.sol\":3210:3249  settings.roles.extension.max = INFINITE */\n  dup2\n  swap1\n  sstore\n  pop\n    /* \"smart_contracts/contracts/Token.sol\":1701:1727  meta.name = \"Dreamcatcher\" */\n  mload(0x40)\n  dup1\n  0x40\n  add\n  0x40\n  mstore\n  dup1\n  0x0c\n  dup2\n  mstore\n  0x20\n  add\n  0x447265616d636174636865720000000000000000000000000000000000000000\n  dup2\n  mstore\n  pop\n    /* \"smart_contracts/contracts/Token.sol\":1701:1705  meta */\n  0x28\n    /* \"smart_contracts/contracts/Token.sol\":1701:1710  meta.name */\n  0x00\n  add\n    /* \"smart_contracts/contracts/Token.sol\":1701:1727  meta.name = \"Dreamcatcher\" */\n  swap1\n  dup2\n  tag_6\n  swap2\n  swap1\n  tag_7\n  jump\t// in\ntag_6:\n  pop\n    /* \"smart_contracts/contracts/Token.sol\":1769:1790  meta.symbol = \"DREAM\" */\n  mload(0x40)\n  dup1\n  0x40\n  add\n  0x40\n  mstore\n  dup1\n  0x05\n  dup2\n  mstore\n  0x20\n  add\n  0x445245414d000000000000000000000000000000000000000000000000000000\n  dup2\n  mstore\n  pop\n    /* \"smart_contracts/contracts/Token.sol\":1769:1773  meta */\n  0x28\n    /* \"smart_contracts/contracts/Token.sol\":1769:1780  meta.symbol */\n  0x01\n  add\n    /* \"smart_contracts/contracts/Token.sol\":1769:1790  meta.symbol = \"DREAM\" */\n  swap1\n  dup2\n  tag_8\n  swap2\n  swap1\n  tag_7\n  jump\t// in\ntag_8:\n  pop\n    /* \"smart_contracts/contracts/Token.sol\":1855:1857  18 */\n  0x12\n    /* \"smart_contracts/contracts/Token.sol\":1839:1843  meta */\n  0x28\n    /* \"smart_contracts/contracts/Token.sol\":1839:1852  meta.decimals */\n  0x02\n  add\n  0x00\n    /* \"smart_contracts/contracts/Token.sol\":1839:1857  meta.decimals = 18 */\n  0x0100\n  exp\n  dup2\n  sload\n  dup2\n  0xff\n  mul\n  not\n  and\n  swap1\n  dup4\n  0xff\n  and\n  mul\n  or\n  swap1\n  sstore\n  pop\n    /* \"smart_contracts/contracts/Token.sol\":1930:1931  0 */\n  0x00\n    /* \"smart_contracts/contracts/Token.sol\":1911:1915  meta */\n  0x28\n    /* \"smart_contracts/contracts/Token.sol\":1911:1927  meta.totalSupply */\n  0x04\n  add\n    /* \"smart_contracts/contracts/Token.sol\":1911:1931  meta.totalSupply = 0 */\n  dup2\n  swap1\n  sstore\n  pop\n    /* \"smart_contracts/contracts/Token.sol\":2023:2027  meta */\n  0x28\n    /* \"smart_contracts/contracts/Token.sol\":2023:2036  meta.decimals */\n  0x02\n  add\n  0x00\n  swap1\n  sload\n  swap1\n  0x0100\n  exp\n  swap1\n  div\n  0xff\n  and\n    /* \"smart_contracts/contracts/Token.sol\":2019:2021  10 */\n  0x0a\n    /* \"smart_contracts/contracts/Token.sol\":2019:2036  10**meta.decimals */\n  tag_9\n  swap2\n  swap1\n  tag_10\n  jump\t// in\ntag_9:\n    /* \"smart_contracts/contracts/Token.sol\":2007:2016  200000000 */\n  0x0bebc200\n    /* \"smart_contracts/contracts/Token.sol\":2007:2036  200000000 * 10**meta.decimals */\n  tag_11\n  swap2\n  swap1\n  tag_12\n  jump\t// in\ntag_11:\n    /* \"smart_contracts/contracts/Token.sol\":1990:1994  meta */\n  0x28\n    /* \"smart_contracts/contracts/Token.sol\":1990:2004  meta.maxSupply */\n  0x09\n  add\n    /* \"smart_contracts/contracts/Token.sol\":1990:2036  meta.maxSupply = 200000000 * 10**meta.decimals */\n  dup2\n  swap1\n  sstore\n  pop\n    /* \"smart_contracts/contracts/Token.sol\":2094:2098  meta */\n  0x28\n    /* \"smart_contracts/contracts/Token.sol\":2094:2108  meta.maxSupply */\n  0x09\n  add\n  sload\n    /* \"smart_contracts/contracts/Token.sol\":2078:2082  meta */\n  0x28\n    /* \"smart_contracts/contracts/Token.sol\":2078:2091  meta.mintable */\n  0x03\n  add\n    /* \"smart_contracts/contracts/Token.sol\":2078:2108  meta.mintable = meta.maxSupply */\n  dup2\n  swap1\n  sstore\n  pop\n    /* \"smart_contracts/contracts/Token.sol\":2131:2141  msg.sender */\n  caller\n    /* \"smart_contracts/contracts/Token.sol\":2118:2122  meta */\n  0x28\n    /* \"smart_contracts/contracts/Token.sol\":2118:2128  meta.vault */\n  0x0b\n  add\n  0x00\n    /* \"smart_contracts/contracts/Token.sol\":2118:2141  meta.vault = msg.sender */\n  0x0100\n  exp\n  dup2\n  sload\n  dup2\n  0xffffffffffffffffffffffffffffffffffffffff\n  mul\n  not\n  and\n  swap1\n  dup4\n  0xffffffffffffffffffffffffffffffffffffffff\n  and\n  mul\n  or\n  swap1\n  sstore\n  pop\n    /* \"smart_contracts/contracts/Token.sol\":2241:2242  0 */\n  0x00\n    /* \"smart_contracts/contracts/Token.sol\":2215:2223  settings */\n  0x14\n    /* \"smart_contracts/contracts/Token.sol\":2215:2238  settings.bpTransferBurn */\n  0x11\n  add\n    /* \"smart_contracts/contracts/Token.sol\":2215:2242  settings.bpTransferBurn = 0 */\n  dup2\n  swap1\n  sstore\n  pop\n    /* \"smart_contracts/contracts/Token.sol\":2314:2315  0 */\n  0x00\n    /* \"smart_contracts/contracts/Token.sol\":2288:2296  settings */\n  0x14\n    /* \"smart_contracts/contracts/Token.sol\":2288:2311  settings.bpTransferBank */\n  0x12\n  add\n    /* \"smart_contracts/contracts/Token.sol\":2288:2315  settings.bpTransferBank = 0 */\n  dup2\n  swap1\n  sstore\n  pop\n    /* \"smart_contracts/contracts/Token.sol\":2406:2407  1 */\n  0x01\n    /* \"smart_contracts/contracts/Token.sol\":2361:2369  settings */\n  0x14\n    /* \"smart_contracts/contracts/Token.sol\":2361:2384  settings.votingMechanic */\n  0x13\n  add\n    /* \"smart_contracts/contracts/Token.sol\":2361:2403  settings.votingMechanic.voteWeightPerToken */\n  0x00\n  add\n    /* \"smart_contracts/contracts/Token.sol\":2361:2407  settings.votingMechanic.voteWeightPerToken = 1 */\n  dup2\n  swap1\n  sstore\n  pop\n    /* \"smart_contracts/contracts/Token.sol\":2440:2444  true */\n  0x01\n    /* \"smart_contracts/contracts/Token.sol\":2418:2425  isAdmin */\n  0x00\n    /* \"smart_contracts/contracts/Token.sol\":2418:2437  isAdmin[msg.sender] */\n  dup1\n    /* \"smart_contracts/contracts/Token.sol\":2426:2436  msg.sender */\n  caller\n    /* \"smart_contracts/contracts/Token.sol\":2418:2437  isAdmin[msg.sender] */\n  0xffffffffffffffffffffffffffffffffffffffff\n  and\n  0xffffffffffffffffffffffffffffffffffffffff\n  and\n  dup2\n  mstore\n  0x20\n  add\n  swap1\n  dup2\n  mstore\n  0x20\n  add\n  0x00\n  keccak256\n  0x00\n    /* \"smart_contracts/contracts/Token.sol\":2418:2444  isAdmin[msg.sender] = true */\n  0x0100\n  exp\n  dup2\n  sload\n  dup2\n  0xff\n  mul\n  not\n  and\n  swap1\n  dup4\n  iszero\n  iszero\n  mul\n  or\n  swap1\n  sstore\n  pop\n    /* \"smart_contracts/contracts/Token.sol\":2455:2503  mint_(meta.vault, 200000000 * 10**meta.decimals) */\n  tag_13\n    /* \"smart_contracts/contracts/Token.sol\":2461:2465  meta */\n  0x28\n    /* \"smart_contracts/contracts/Token.sol\":2461:2471  meta.vault */\n  0x0b\n  add\n  0x00\n  swap1\n  sload\n  swap1\n  0x0100\n  exp\n  swap1\n  div\n  0xffffffffffffffffffffffffffffffffffffffff\n  and\n    /* \"smart_contracts/contracts/Token.sol\":2489:2493  meta */\n  0x28\n    /* \"smart_contracts/contracts/Token.sol\":2489:2502  meta.decimals */\n  0x02\n  add\n  0x00\n  swap1\n  sload\n  swap1\n  0x0100\n  exp\n  swap1\n  div\n  0xff\n  and\n    /* \"smart_contracts/contracts/Token.sol\":2485:2487  10 */\n  0x0a\n    /* \"smart_contracts/contracts/Token.sol\":2485:2502  10**meta.decimals */\n  tag_14\n  swap2\n  swap1\n  tag_10\n  jump\t// in\ntag_14:\n    /* \"smart_contracts/contracts/Token.sol\":2473:2482  200000000 */\n  0x0bebc200\n    /* \"smart_contracts/contracts/Token.sol\":2473:2502  200000000 * 10**meta.decimals */\n  tag_15\n  swap2\n  swap1\n  tag_12\n  jump\t// in\ntag_15:\n    /* \"smart_contracts/contracts/Token.sol\":2455:2460  mint_ */\n  shl(0x20, tag_16)\n    /* \"smart_contracts/contracts/Token.sol\":2455:2503  mint_(meta.vault, 200000000 * 10**meta.decimals) */\n  0x20\n  shr\n  jump\t// in\ntag_13:\n  pop\n    /* \"smart_contracts/contracts/Token.sol\":1607:9874  contract Token is Authenticator, IERC20, ICustomToken {... */\n  jump(tag_17)\n    /* \"smart_contracts/contracts/Token.sol\":3410:3804  function mint_(address _to, uint256 _value) internal returns (bool) {... */\ntag_16:\n    /* \"smart_contracts/contracts/Token.sol\":3472:3476  bool */\n  0x00\n    /* \"smart_contracts/contracts/Token.sol\":3488:3501  address _from */\n  dup1\n    /* \"smart_contracts/contracts/Token.sol\":3512:3513  0 */\n  0x00\n    /* \"smart_contracts/contracts/Token.sol\":3488:3514  address _from = address(0) */\n  swap1\n  pop\n    /* \"smart_contracts/contracts/Token.sol\":3555:3556  0 */\n  0x00\n    /* \"smart_contracts/contracts/Token.sol\":3545:3551  _value */\n  dup4\n    /* \"smart_contracts/contracts/Token.sol\":3545:3556  _value >= 0 */\n  lt\n  iszero\n    /* \"smart_contracts/contracts/Token.sol\":3545:3595  _value >= 0 &&... */\n  dup1\n  iszero\n  tag_19\n  jumpi\n  pop\n    /* \"smart_contracts/contracts/Token.sol\":3582:3586  meta */\n  0x28\n    /* \"smart_contracts/contracts/Token.sol\":3582:3595  meta.mintable */\n  0x03\n  add\n  sload\n    /* \"smart_contracts/contracts/Token.sol\":3572:3578  _value */\n  dup4\n    /* \"smart_contracts/contracts/Token.sol\":3572:3595  _value <= meta.mintable */\n  gt\n  iszero\n    /* \"smart_contracts/contracts/Token.sol\":3545:3595  _value >= 0 &&... */\ntag_19:\n    /* \"smart_contracts/contracts/Token.sol\":3545:3628  _value >= 0 &&... */\n  dup1\n  iszero\n  tag_20\n  jumpi\n  pop\n    /* \"smart_contracts/contracts/Token.sol\":3626:3627  0 */\n  0x00\n    /* \"smart_contracts/contracts/Token.sol\":3611:3628  _to != address(0) */\n  0xffffffffffffffffffffffffffffffffffffffff\n  and\n    /* \"smart_contracts/contracts/Token.sol\":3611:3614  _to */\n  dup5\n    /* \"smart_contracts/contracts/Token.sol\":3611:3628  _to != address(0) */\n  0xffffffffffffffffffffffffffffffffffffffff\n  and\n  eq\n  iszero\n    /* \"smart_contracts/contracts/Token.sol\":3545:3628  _value >= 0 &&... */\ntag_20:\n    /* \"smart_contracts/contracts/Token.sol\":3524:3638  require(... */\n  tag_21\n  jumpi\n  0x00\n  dup1\n  revert\ntag_21:\n    /* \"smart_contracts/contracts/Token.sol\":3665:3671  _value */\n  dup3\n    /* \"smart_contracts/contracts/Token.sol\":3648:3652  meta */\n  0x28\n    /* \"smart_contracts/contracts/Token.sol\":3648:3661  meta.mintable */\n  0x03\n  add\n  0x00\n    /* \"smart_contracts/contracts/Token.sol\":3648:3671  meta.mintable -= _value */\n  dup3\n  dup3\n  sload\n  tag_22\n  swap2\n  swap1\n  tag_23\n  jump\t// in\ntag_22:\n  swap3\n  pop\n  pop\n  dup2\n  swap1\n  sstore\n  pop\n    /* \"smart_contracts/contracts/Token.sol\":3698:3704  _value */\n  dup3\n    /* \"smart_contracts/contracts/Token.sol\":3682:3689  balance */\n  0x35\n    /* \"smart_contracts/contracts/Token.sol\":3682:3694  balance[_to] */\n  0x00\n    /* \"smart_contracts/contracts/Token.sol\":3690:3693  _to */\n  dup7\n    /* \"smart_contracts/contracts/Token.sol\":3682:3694  balance[_to] */\n  0xffffffffffffffffffffffffffffffffffffffff\n  and\n  0xffffffffffffffffffffffffffffffffffffffff\n  and\n  dup2\n  mstore\n  0x20\n  add\n  swap1\n  dup2\n  mstore\n  0x20\n  add\n  0x00\n  keccak256\n  0x00\n    /* \"smart_contracts/contracts/Token.sol\":3682:3704  balance[_to] += _value */\n  dup3\n  dup3\n  sload\n  tag_24\n  swap2\n  swap1\n  tag_25\n  jump\t// in\ntag_24:\n  swap3\n  pop\n  pop\n  dup2\n  swap1\n  sstore\n    /* \"smart_contracts/contracts/Token.sol\":3726:3732  _value */\n  dup4\n    /* \"smart_contracts/contracts/Token.sol\":3706:3710  meta */\n  0x28\n    /* \"smart_contracts/contracts/Token.sol\":3706:3722  meta.totalSupply */\n  0x04\n  add\n  0x00\n    /* \"smart_contracts/contracts/Token.sol\":3706:3732  meta.totalSupply += _value */\n  dup3\n  dup3\n  sload\n  tag_26\n  swap2\n  swap1\n  tag_25\n  jump\t// in\ntag_26:\n  swap3\n  pop\n  pop\n  dup2\n  swap1\n  sstore\n    /* \"smart_contracts/contracts/Token.sol\":3681:3733  (balance[_to] += _value, meta.totalSupply += _value) */\n  pop\n  pop\n    /* \"smart_contracts/contracts/Token.sol\":3764:3767  _to */\n  dup4\n    /* \"smart_contracts/contracts/Token.sol\":3748:3776  Transfer(_from, _to, _value) */\n  0xffffffffffffffffffffffffffffffffffffffff\n  and\n    /* \"smart_contracts/contracts/Token.sol\":3757:3762  _from */\n  dup2\n    /* \"smart_contracts/contracts/Token.sol\":3748:3776  Transfer(_from, _to, _value) */\n  0xffffffffffffffffffffffffffffffffffffffff\n  and\n  0xddf252ad1be2c89b69c2b068fc378daa952ba7f163c4a11628f55a4df523b3ef\n    /* \"smart_contracts/contracts/Token.sol\":3769:3775  _value */\n  dup6\n    /* \"smart_contracts/contracts/Token.sol\":3748:3776  Transfer(_from, _to, _value) */\n  mload(0x40)\n  tag_27\n  swap2\n  swap1\n  tag_28\n  jump\t// in\ntag_27:\n  mload(0x40)\n  dup1\n  swap2\n  sub\n  swap1\n  log3\n    /* \"smart_contracts/contracts/Token.sol\":3793:3797  true */\n  0x01\n    /* \"smart_contracts/contracts/Token.sol\":3786:3797  return true */\n  swap2\n  pop\n  pop\n    /* \"smart_contracts/contracts/Token.sol\":3410:3804  function mint_(address _to, uint256 _value) internal returns (bool) {... */\n  swap3\n  swap2\n  pop\n  pop\n  jump\t// out\n    /* \"#utility.yul\":7:106   */\ntag_29:\n    /* \"#utility.yul\":59:65   */\n  0x00\n    /* \"#utility.yul\":93:98   */\n  dup2\n    /* \"#utility.yul\":87:99   */\n  mload\n    /* \"#utility.yul\":77:99   */\n  swap1\n  pop\n    /* \"#utility.yul\":7:106   */\n  swap2\n  swap1\n  pop\n  jump\t// out\n    /* \"#utility.yul\":112:292   */\ntag_30:\n    /* \"#utility.yul\":160:237   */\n  0x4e487b7100000000000000000000000000000000000000000000000000000000\n    /* \"#utility.yul\":157:158   */\n  0x00\n    /* \"#utility.yul\":150:238   */\n  mstore\n    /* \"#utility.yul\":257:261   */\n  0x41\n    /* \"#utility.yul\":254:255   */\n  0x04\n    /* \"#utility.yul\":247:262   */\n  mstore\n    /* \"#utility.yul\":281:285   */\n  0x24\n    /* \"#utility.yul\":278:279   */\n  0x00\n    /* \"#utility.yul\":271:286   */\n  revert\n    /* \"#utility.yul\":298:478   */\ntag_31:\n    /* \"#utility.yul\":346:423   */\n  0x4e487b7100000000000000000000000000000000000000000000000000000000\n    /* \"#utility.yul\":343:344   */\n  0x00\n    /* \"#utility.yul\":336:424   */\n  mstore\n    /* \"#utility.yul\":443:447   */\n  0x22\n    /* \"#utility.yul\":440:441   */\n  0x04\n    /* \"#utility.yul\":433:448   */\n  mstore\n    /* \"#utility.yul\":467:471   */\n  0x24\n    /* \"#utility.yul\":464:465   */\n  0x00\n    /* \"#utility.yul\":457:472   */\n  revert\n    /* \"#utility.yul\":484:804   */\ntag_32:\n    /* \"#utility.yul\":528:534   */\n  0x00\n    /* \"#utility.yul\":565:566   */\n  0x02\n    /* \"#utility.yul\":559:563   */\n  dup3\n    /* \"#utility.yul\":555:567   */\n  div\n    /* \"#utility.yul\":545:567   */\n  swap1\n  pop\n    /* \"#utility.yul\":612:613   */\n  0x01\n    /* \"#utility.yul\":606:610   */\n  dup3\n    /* \"#utility.yul\":602:614   */\n  and\n    /* \"#utility.yul\":633:651   */\n  dup1\n    /* \"#utility.yul\":623:704   */\n  tag_60\n  jumpi\n    /* \"#utility.yul\":689:693   */\n  0x7f\n    /* \"#utility.yul\":681:687   */\n  dup3\n    /* \"#utility.yul\":677:694   */\n  and\n    /* \"#utility.yul\":667:694   */\n  swap2\n  pop\n    /* \"#utility.yul\":623:704   */\ntag_60:\n    /* \"#utility.yul\":751:753   */\n  0x20\n    /* \"#utility.yul\":743:749   */\n  dup3\n    /* \"#utility.yul\":740:754   */\n  lt\n    /* \"#utility.yul\":720:738   */\n  dup2\n    /* \"#utility.yul\":717:755   */\n  sub\n    /* \"#utility.yul\":714:798   */\n  tag_61\n  jumpi\n    /* \"#utility.yul\":770:788   */\n  tag_62\n  tag_31\n  jump\t// in\ntag_62:\n    /* \"#utility.yul\":714:798   */\ntag_61:\n    /* \"#utility.yul\":535:804   */\n  pop\n    /* \"#utility.yul\":484:804   */\n  swap2\n  swap1\n  pop\n  jump\t// out\n    /* \"#utility.yul\":810:951   */\ntag_33:\n    /* \"#utility.yul\":859:863   */\n  0x00\n    /* \"#utility.yul\":882:885   */\n  dup2\n    /* \"#utility.yul\":874:885   */\n  swap1\n  pop\n    /* \"#utility.yul\":905:908   */\n  dup2\n    /* \"#utility.yul\":902:903   */\n  0x00\n    /* \"#utility.yul\":895:909   */\n  mstore\n    /* \"#utility.yul\":939:943   */\n  0x20\n    /* \"#utility.yul\":936:937   */\n  0x00\n    /* \"#utility.yul\":926:944   */\n  keccak256\n    /* \"#utility.yul\":918:944   */\n  swap1\n  pop\n    /* \"#utility.yul\":810:951   */\n  swap2\n  swap1\n  pop\n  jump\t// out\n    /* \"#utility.yul\":957:1050   */\ntag_34:\n    /* \"#utility.yul\":994:1000   */\n  0x00\n    /* \"#utility.yul\":1041:1043   */\n  0x20\n    /* \"#utility.yul\":1036:1038   */\n  0x1f\n    /* \"#utility.yul\":1029:1034   */\n  dup4\n    /* \"#utility.yul\":1025:1039   */\n  add\n    /* \"#utility.yul\":1021:1044   */\n  div\n    /* \"#utility.yul\":1011:1044   */\n  swap1\n  pop\n    /* \"#utility.yul\":957:1050   */\n  swap2\n  swap1\n  pop\n  jump\t// out\n    /* \"#utility.yul\":1056:1163   */\ntag_35:\n    /* \"#utility.yul\":1100:1108   */\n  0x00\n    /* \"#utility.yul\":1150:1155   */\n  dup3\n    /* \"#utility.yul\":1144:1148   */\n  dup3\n    /* \"#utility.yul\":1140:1156   */\n  shl\n    /* \"#utility.yul\":1119:1156   */\n  swap1\n  pop\n    /* \"#utility.yul\":1056:1163   */\n  swap3\n  swap2\n  pop\n  pop\n  jump\t// out\n    /* \"#utility.yul\":1169:1562   */\ntag_36:\n    /* \"#utility.yul\":1238:1244   */\n  0x00\n    /* \"#utility.yul\":1288:1289   */\n  0x08\n    /* \"#utility.yul\":1276:1286   */\n  dup4\n    /* \"#utility.yul\":1272:1290   */\n  mul\n    /* \"#utility.yul\":1311:1408   */\n  tag_67\n    /* \"#utility.yul\":1341:1407   */\n  0xffffffffffffffffffffffffffffffffffffffffffffffffffffffffffffffff\n    /* \"#utility.yul\":1330:1339   */\n  dup3\n    /* \"#utility.yul\":1311:1408   */\n  tag_35\n  jump\t// in\ntag_67:\n    /* \"#utility.yul\":1429:1468   */\n  tag_68\n    /* \"#utility.yul\":1459:1467   */\n  dup7\n    /* \"#utility.yul\":1448:1457   */\n  dup4\n    /* \"#utility.yul\":1429:1468   */\n  tag_35\n  jump\t// in\ntag_68:\n    /* \"#utility.yul\":1417:1468   */\n  swap6\n  pop\n    /* \"#utility.yul\":1501:1505   */\n  dup1\n    /* \"#utility.yul\":1497:1506   */\n  not\n    /* \"#utility.yul\":1490:1495   */\n  dup5\n    /* \"#utility.yul\":1486:1507   */\n  and\n    /* \"#utility.yul\":1477:1507   */\n  swap4\n  pop\n    /* \"#utility.yul\":1550:1554   */\n  dup1\n    /* \"#utility.yul\":1540:1548   */\n  dup7\n    /* \"#utility.yul\":1536:1555   */\n  and\n    /* \"#utility.yul\":1529:1534   */\n  dup5\n    /* \"#utility.yul\":1526:1556   */\n  or\n    /* \"#utility.yul\":1516:1556   */\n  swap3\n  pop\n    /* \"#utility.yul\":1245:1562   */\n  pop\n  pop\n    /* \"#utility.yul\":1169:1562   */\n  swap4\n  swap3\n  pop\n  pop\n  pop\n  jump\t// out\n    /* \"#utility.yul\":1568:1645   */\ntag_37:\n    /* \"#utility.yul\":1605:1612   */\n  0x00\n    /* \"#utility.yul\":1634:1639   */\n  dup2\n    /* \"#utility.yul\":1623:1639   */\n  swap1\n  pop\n    /* \"#utility.yul\":1568:1645   */\n  swap2\n  swap1\n  pop\n  jump\t// out\n    /* \"#utility.yul\":1651:1711   */\ntag_38:\n    /* \"#utility.yul\":1679:1682   */\n  0x00\n    /* \"#utility.yul\":1700:1705   */\n  dup2\n    /* \"#utility.yul\":1693:1705   */\n  swap1\n  pop\n    /* \"#utility.yul\":1651:1711   */\n  swap2\n  swap1\n  pop\n  jump\t// out\n    /* \"#utility.yul\":1717:1859   */\ntag_39:\n    /* \"#utility.yul\":1767:1776   */\n  0x00\n    /* \"#utility.yul\":1800:1853   */\n  tag_72\n    /* \"#utility.yul\":1818:1852   */\n  tag_73\n    /* \"#utility.yul\":1827:1851   */\n  tag_74\n    /* \"#utility.yul\":1845:1850   */\n  dup5\n    /* \"#utility.yul\":1827:1851   */\n  tag_37\n  jump\t// in\ntag_74:\n    /* \"#utility.yul\":1818:1852   */\n  tag_38\n  jump\t// in\ntag_73:\n    /* \"#utility.yul\":1800:1853   */\n  tag_37\n  jump\t// in\ntag_72:\n    /* \"#utility.yul\":1787:1853   */\n  swap1\n  pop\n    /* \"#utility.yul\":1717:1859   */\n  swap2\n  swap1\n  pop\n  jump\t// out\n    /* \"#utility.yul\":1865:1940   */\ntag_40:\n    /* \"#utility.yul\":1908:1911   */\n  0x00\n    /* \"#utility.yul\":1929:1934   */\n  dup2\n    /* \"#utility.yul\":1922:1934   */\n  swap1\n  pop\n    /* \"#utility.yul\":1865:1940   */\n  swap2\n  swap1\n  pop\n  jump\t// out\n    /* \"#utility.yul\":1946:2215   */\ntag_41:\n    /* \"#utility.yul\":2056:2095   */\n  tag_77\n    /* \"#utility.yul\":2087:2094   */\n  dup4\n    /* \"#utility.yul\":2056:2095   */\n  tag_39\n  jump\t// in\ntag_77:\n    /* \"#utility.yul\":2117:2208   */\n  tag_78\n    /* \"#utility.yul\":2166:2207   */\n  tag_79\n    /* \"#utility.yul\":2190:2206   */\n  dup3\n    /* \"#utility.yul\":2166:2207   */\n  tag_40\n  jump\t// in\ntag_79:\n    /* \"#utility.yul\":2158:2164   */\n  dup5\n    /* \"#utility.yul\":2151:2155   */\n  dup5\n    /* \"#utility.yul\":2145:2156   */\n  sload\n    /* \"#utility.yul\":2117:2208   */\n  tag_36\n  jump\t// in\ntag_78:\n    /* \"#utility.yul\":2111:2115   */\n  dup3\n    /* \"#utility.yul\":2104:2209   */\n  sstore\n    /* \"#utility.yul\":2022:2215   */\n  pop\n    /* \"#utility.yul\":1946:2215   */\n  pop\n  pop\n  pop\n  jump\t// out\n    /* \"#utility.yul\":2221:2294   */\ntag_42:\n    /* \"#utility.yul\":2266:2269   */\n  0x00\n    /* \"#utility.yul\":2221:2294   */\n  swap1\n  jump\t// out\n    /* \"#utility.yul\":2300:2489   */\ntag_43:\n    /* \"#utility.yul\":2377:2409   */\n  tag_82\n  tag_42\n  jump\t// in\ntag_82:\n    /* \"#utility.yul\":2418:2483   */\n  tag_83\n    /* \"#utility.yul\":2476:2482   */\n  dup2\n    /* \"#utility.yul\":2468:2474   */\n  dup5\n    /* \"#utility.yul\":2462:2466   */\n  dup5\n    /* \"#utility.yul\":2418:2483   */\n  tag_41\n  jump\t// in\ntag_83:\n    /* \"#utility.yul\":2353:2489   */\n  pop\n    /* \"#utility.yul\":2300:2489   */\n  pop\n  pop\n  jump\t// out\n    /* \"#utility.yul\":2495:2681   */\ntag_44:\n    /* \"#utility.yul\":2555:2675   */\ntag_85:\n    /* \"#utility.yul\":2572:2575   */\n  dup2\n    /* \"#utility.yul\":2565:2570   */\n  dup2\n    /* \"#utility.yul\":2562:2576   */\n  lt\n    /* \"#utility.yul\":2555:2675   */\n  iszero\n  tag_87\n  jumpi\n    /* \"#utility.yul\":2626:2665   */\n  tag_88\n    /* \"#utility.yul\":2663:2664   */\n  0x00\n    /* \"#utility.yul\":2656:2661   */\n  dup3\n    /* \"#utility.yul\":2626:2665   */\n  tag_43\n  jump\t// in\ntag_88:\n    /* \"#utility.yul\":2599:2600   */\n  0x01\n    /* \"#utility.yul\":2592:2597   */\n  dup2\n    /* \"#utility.yul\":2588:2601   */\n  add\n    /* \"#utility.yul\":2579:2601   */\n  swap1\n  pop\n    /* \"#utility.yul\":2555:2675   */\n  jump(tag_85)\ntag_87:\n    /* \"#utility.yul\":2495:2681   */\n  pop\n  pop\n  jump\t// out\n    /* \"#utility.yul\":2687:3230   */\ntag_45:\n    /* \"#utility.yul\":2788:2790   */\n  0x1f\n    /* \"#utility.yul\":2783:2786   */\n  dup3\n    /* \"#utility.yul\":2780:2791   */\n  gt\n    /* \"#utility.yul\":2777:3223   */\n  iszero\n  tag_90\n  jumpi\n    /* \"#utility.yul\":2822:2860   */\n  tag_91\n    /* \"#utility.yul\":2854:2859   */\n  dup2\n    /* \"#utility.yul\":2822:2860   */\n  tag_33\n  jump\t// in\ntag_91:\n    /* \"#utility.yul\":2906:2935   */\n  tag_92\n    /* \"#utility.yul\":2924:2934   */\n  dup5\n    /* \"#utility.yul\":2906:2935   */\n  tag_34\n  jump\t// in\ntag_92:\n    /* \"#utility.yul\":2896:2904   */\n  dup2\n    /* \"#utility.yul\":2892:2936   */\n  add\n    /* \"#utility.yul\":3089:3091   */\n  0x20\n    /* \"#utility.yul\":3077:3087   */\n  dup6\n    /* \"#utility.yul\":3074:3092   */\n  lt\n    /* \"#utility.yul\":3071:3120   */\n  iszero\n  tag_93\n  jumpi\n    /* \"#utility.yul\":3110:3118   */\n  dup2\n    /* \"#utility.yul\":3095:3118   */\n  swap1\n  pop\n    /* \"#utility.yul\":3071:3120   */\ntag_93:\n    /* \"#utility.yul\":3133:3213   */\n  tag_94\n    /* \"#utility.yul\":3189:3211   */\n  tag_95\n    /* \"#utility.yul\":3207:3210   */\n  dup6\n    /* \"#utility.yul\":3189:3211   */\n  tag_34\n  jump\t// in\ntag_95:\n    /* \"#utility.yul\":3179:3187   */\n  dup4\n    /* \"#utility.yul\":3175:3212   */\n  add\n    /* \"#utility.yul\":3162:3173   */\n  dup3\n    /* \"#utility.yul\":3133:3213   */\n  tag_44\n  jump\t// in\ntag_94:\n    /* \"#utility.yul\":2792:3223   */\n  pop\n  pop\n    /* \"#utility.yul\":2777:3223   */\ntag_90:\n    /* \"#utility.yul\":2687:3230   */\n  pop\n  pop\n  pop\n  jump\t// out\n    /* \"#utility.yul\":3236:3353   */\ntag_46:\n    /* \"#utility.yul\":3290:3298   */\n  0x00\n    /* \"#utility.yul\":3340:3345   */\n  dup3\n    /* \"#utility.yul\":3334:3338   */\n  dup3\n    /* \"#utility.yul\":3330:3346   */\n  shr\n    /* \"#utility.yul\":3309:3346   */\n  swap1\n  pop\n    /* \"#utility.yul\":3236:3353   */\n  swap3\n  swap2\n  pop\n  pop\n  jump\t// out\n    /* \"#utility.yul\":3359:3528   */\ntag_47:\n    /* \"#utility.yul\":3403:3409   */\n  0x00\n    /* \"#utility.yul\":3436:3487   */\n  tag_98\n    /* \"#utility.yul\":3484:3485   */\n  0x00\n    /* \"#utility.yul\":3480:3486   */\n  not\n    /* \"#utility.yul\":3472:3477   */\n  dup5\n    /* \"#utility.yul\":3469:3470   */\n  0x08\n    /* \"#utility.yul\":3465:3478   */\n  mul\n    /* \"#utility.yul\":3436:3487   */\n  tag_46\n  jump\t// in\ntag_98:\n    /* \"#utility.yul\":3432:3488   */\n  not\n    /* \"#utility.yul\":3517:3521   */\n  dup1\n    /* \"#utility.yul\":3511:3515   */\n  dup4\n    /* \"#utility.yul\":3507:3522   */\n  and\n    /* \"#utility.yul\":3497:3522   */\n  swap2\n  pop\n    /* \"#utility.yul\":3410:3528   */\n  pop\n    /* \"#utility.yul\":3359:3528   */\n  swap3\n  swap2\n  pop\n  pop\n  jump\t// out\n    /* \"#utility.yul\":3533:3828   */\ntag_48:\n    /* \"#utility.yul\":3609:3613   */\n  0x00\n    /* \"#utility.yul\":3755:3784   */\n  tag_100\n    /* \"#utility.yul\":3780:3783   */\n  dup4\n    /* \"#utility.yul\":3774:3778   */\n  dup4\n    /* \"#utility.yul\":3755:3784   */\n  tag_47\n  jump\t// in\ntag_100:\n    /* \"#utility.yul\":3747:3784   */\n  swap2\n  pop\n    /* \"#utility.yul\":3817:3820   */\n  dup3\n    /* \"#utility.yul\":3814:3815   */\n  0x02\n    /* \"#utility.yul\":3810:3821   */\n  mul\n    /* \"#utility.yul\":3804:3808   */\n  dup3\n    /* \"#utility.yul\":3801:3822   */\n  or\n    /* \"#utility.yul\":3793:3822   */\n  swap1\n  pop\n    /* \"#utility.yul\":3533:3828   */\n  swap3\n  swap2\n  pop\n  pop\n  jump\t// out\n    /* \"#utility.yul\":3833:5228   */\ntag_7:\n    /* \"#utility.yul\":3950:3987   */\n  tag_102\n    /* \"#utility.yul\":3983:3986   */\n  dup3\n    /* \"#utility.yul\":3950:3987   */\n  tag_29\n  jump\t// in\ntag_102:\n    /* \"#utility.yul\":4052:4070   */\n  0xffffffffffffffff\n    /* \"#utility.yul\":4044:4050   */\n  dup2\n    /* \"#utility.yul\":4041:4071   */\n  gt\n    /* \"#utility.yul\":4038:4094   */\n  iszero\n  tag_103\n  jumpi\n    /* \"#utility.yul\":4074:4092   */\n  tag_104\n  tag_30\n  jump\t// in\ntag_104:\n    /* \"#utility.yul\":4038:4094   */\ntag_103:\n    /* \"#utility.yul\":4118:4156   */\n  tag_105\n    /* \"#utility.yul\":4150:4154   */\n  dup3\n    /* \"#utility.yul\":4144:4155   */\n  sload\n    /* \"#utility.yul\":4118:4156   */\n  tag_32\n  jump\t// in\ntag_105:\n    /* \"#utility.yul\":4203:4270   */\n  tag_106\n    /* \"#utility.yul\":4263:4269   */\n  dup3\n    /* \"#utility.yul\":4255:4261   */\n  dup3\n    /* \"#utility.yul\":4249:4253   */\n  dup6\n    /* \"#utility.yul\":4203:4270   */\n  tag_45\n  jump\t// in\ntag_106:\n    /* \"#utility.yul\":4297:4298   */\n  0x00\n    /* \"#utility.yul\":4321:4325   */\n  0x20\n    /* \"#utility.yul\":4308:4325   */\n  swap1\n  pop\n    /* \"#utility.yul\":4353:4355   */\n  0x1f\n    /* \"#utility.yul\":4345:4351   */\n  dup4\n    /* \"#utility.yul\":4342:4356   */\n  gt\n    /* \"#utility.yul\":4370:4371   */\n  0x01\n    /* \"#utility.yul\":4365:4983   */\n  dup2\n  eq\n  tag_108\n  jumpi\n    /* \"#utility.yul\":5027:5028   */\n  0x00\n    /* \"#utility.yul\":5044:5050   */\n  dup5\n    /* \"#utility.yul\":5041:5118   */\n  iszero\n  tag_109\n  jumpi\n    /* \"#utility.yul\":5093:5102   */\n  dup3\n    /* \"#utility.yul\":5088:5091   */\n  dup8\n    /* \"#utility.yul\":5084:5103   */\n  add\n    /* \"#utility.yul\":5078:5104   */\n  mload\n    /* \"#utility.yul\":5069:5104   */\n  swap1\n  pop\n    /* \"#utility.yul\":5041:5118   */\ntag_109:\n    /* \"#utility.yul\":5144:5211   */\n  tag_110\n    /* \"#utility.yul\":5204:5210   */\n  dup6\n    /* \"#utility.yul\":5197:5202   */\n  dup3\n    /* \"#utility.yul\":5144:5211   */\n  tag_48\n  jump\t// in\ntag_110:\n    /* \"#utility.yul\":5138:5142   */\n  dup7\n    /* \"#utility.yul\":5131:5212   */\n  sstore\n    /* \"#utility.yul\":5000:5222   */\n  pop\n    /* \"#utility.yul\":4335:5222   */\n  jump(tag_107)\n    /* \"#utility.yul\":4365:4983   */\ntag_108:\n    /* \"#utility.yul\":4417:4421   */\n  0x1f\n    /* \"#utility.yul\":4413:4422   */\n  not\n    /* \"#utility.yul\":4405:4411   */\n  dup5\n    /* \"#utility.yul\":4401:4423   */\n  and\n    /* \"#utility.yul\":4451:4488   */\n  tag_111\n    /* \"#utility.yul\":4483:4487   */\n  dup7\n    /* \"#utility.yul\":4451:4488   */\n  tag_33\n  jump\t// in\ntag_111:\n    /* \"#utility.yul\":4510:4511   */\n  0x00\n    /* \"#utility.yul\":4524:4732   */\ntag_112:\n    /* \"#utility.yul\":4538:4545   */\n  dup3\n    /* \"#utility.yul\":4535:4536   */\n  dup2\n    /* \"#utility.yul\":4532:4546   */\n  lt\n    /* \"#utility.yul\":4524:4732   */\n  iszero\n  tag_114\n  jumpi\n    /* \"#utility.yul\":4617:4626   */\n  dup5\n    /* \"#utility.yul\":4612:4615   */\n  dup10\n    /* \"#utility.yul\":4608:4627   */\n  add\n    /* \"#utility.yul\":4602:4628   */\n  mload\n    /* \"#utility.yul\":4594:4600   */\n  dup3\n    /* \"#utility.yul\":4587:4629   */\n  sstore\n    /* \"#utility.yul\":4668:4669   */\n  0x01\n    /* \"#utility.yul\":4660:4666   */\n  dup3\n    /* \"#utility.yul\":4656:4670   */\n  add\n    /* \"#utility.yul\":4646:4670   */\n  swap2\n  pop\n    /* \"#utility.yul\":4715:4717   */\n  0x20\n    /* \"#utility.yul\":4704:4713   */\n  dup6\n    /* \"#utility.yul\":4700:4718   */\n  add\n    /* \"#utility.yul\":4687:4718   */\n  swap5\n  pop\n    /* \"#utility.yul\":4561:4565   */\n  0x20\n    /* \"#utility.yul\":4558:4559   */\n  dup2\n    /* \"#utility.yul\":4554:4566   */\n  add\n    /* \"#utility.yul\":4549:4566   */\n  swap1\n  pop\n    /* \"#utility.yul\":4524:4732   */\n  jump(tag_112)\ntag_114:\n    /* \"#utility.yul\":4760:4766   */\n  dup7\n    /* \"#utility.yul\":4751:4758   */\n  dup4\n    /* \"#utility.yul\":4748:4767   */\n  lt\n    /* \"#utility.yul\":4745:4924   */\n  iszero\n  tag_115\n  jumpi\n    /* \"#utility.yul\":4818:4827   */\n  dup5\n    /* \"#utility.yul\":4813:4816   */\n  dup10\n    /* \"#utility.yul\":4809:4828   */\n  add\n    /* \"#utility.yul\":4803:4829   */\n  mload\n    /* \"#utility.yul\":4861:4909   */\n  tag_116\n    /* \"#utility.yul\":4903:4907   */\n  0x1f\n    /* \"#utility.yul\":4895:4901   */\n  dup10\n    /* \"#utility.yul\":4891:4908   */\n  and\n    /* \"#utility.yul\":4880:4889   */\n  dup3\n    /* \"#utility.yul\":4861:4909   */\n  tag_47\n  jump\t// in\ntag_116:\n    /* \"#utility.yul\":4853:4859   */\n  dup4\n    /* \"#utility.yul\":4846:4910   */\n  sstore\n    /* \"#utility.yul\":4768:4924   */\n  pop\n    /* \"#utility.yul\":4745:4924   */\ntag_115:\n    /* \"#utility.yul\":4970:4971   */\n  0x01\n    /* \"#utility.yul\":4966:4967   */\n  0x02\n    /* \"#utility.yul\":4958:4964   */\n  dup9\n    /* \"#utility.yul\":4954:4968   */\n  mul\n    /* \"#utility.yul\":4950:4972   */\n  add\n    /* \"#utility.yul\":4944:4948   */\n  dup9\n    /* \"#utility.yul\":4937:4973   */\n  sstore\n    /* \"#utility.yul\":4372:4983   */\n  pop\n  pop\n  pop\n    /* \"#utility.yul\":4335:5222   */\ntag_107:\n  pop\n    /* \"#utility.yul\":3925:5228   */\n  pop\n  pop\n  pop\n    /* \"#utility.yul\":3833:5228   */\n  pop\n  pop\n  jump\t// out\n    /* \"#utility.yul\":5234:5414   */\ntag_49:\n    /* \"#utility.yul\":5282:5359   */\n  0x4e487b7100000000000000000000000000000000000000000000000000000000\n    /* \"#utility.yul\":5279:5280   */\n  0x00\n    /* \"#utility.yul\":5272:5360   */\n  mstore\n    /* \"#utility.yul\":5379:5383   */\n  0x11\n    /* \"#utility.yul\":5376:5377   */\n  0x04\n    /* \"#utility.yul\":5369:5384   */\n  mstore\n    /* \"#utility.yul\":5403:5407   */\n  0x24\n    /* \"#utility.yul\":5400:5401   */\n  0x00\n    /* \"#utility.yul\":5393:5408   */\n  revert\n    /* \"#utility.yul\":5420:5522   */\ntag_50:\n    /* \"#utility.yul\":5462:5470   */\n  0x00\n    /* \"#utility.yul\":5509:5514   */\n  dup2\n    /* \"#utility.yul\":5506:5507   */\n  0x01\n    /* \"#utility.yul\":5502:5515   */\n  shr\n    /* \"#utility.yul\":5481:5515   */\n  swap1\n  pop\n    /* \"#utility.yul\":5420:5522   */\n  swap2\n  swap1\n  pop\n  jump\t// out\n    /* \"#utility.yul\":5528:6376   */\ntag_51:\n    /* \"#utility.yul\":5589:5594   */\n  0x00\n    /* \"#utility.yul\":5596:5600   */\n  dup1\n    /* \"#utility.yul\":5620:5626   */\n  dup3\n    /* \"#utility.yul\":5611:5626   */\n  swap2\n  pop\n    /* \"#utility.yul\":5644:5649   */\n  dup4\n    /* \"#utility.yul\":5635:5649   */\n  swap1\n  pop\n    /* \"#utility.yul\":5658:6370   */\ntag_120:\n    /* \"#utility.yul\":5679:5680   */\n  0x01\n    /* \"#utility.yul\":5669:5677   */\n  dup6\n    /* \"#utility.yul\":5666:5681   */\n  gt\n    /* \"#utility.yul\":5658:6370   */\n  iszero\n  tag_122\n  jumpi\n    /* \"#utility.yul\":5774:5778   */\n  dup1\n    /* \"#utility.yul\":5769:5772   */\n  dup7\n    /* \"#utility.yul\":5765:5779   */\n  div\n    /* \"#utility.yul\":5759:5763   */\n  dup2\n    /* \"#utility.yul\":5756:5780   */\n  gt\n    /* \"#utility.yul\":5753:5803   */\n  iszero\n  tag_123\n  jumpi\n    /* \"#utility.yul\":5783:5801   */\n  tag_124\n  tag_49\n  jump\t// in\ntag_124:\n    /* \"#utility.yul\":5753:5803   */\ntag_123:\n    /* \"#utility.yul\":5833:5834   */\n  0x01\n    /* \"#utility.yul\":5823:5831   */\n  dup6\n    /* \"#utility.yul\":5819:5835   */\n  and\n    /* \"#utility.yul\":5816:6267   */\n  iszero\n  tag_125\n  jumpi\n    /* \"#utility.yul\":6248:6252   */\n  dup1\n    /* \"#utility.yul\":6241:6246   */\n  dup3\n    /* \"#utility.yul\":6237:6253   */\n  mul\n    /* \"#utility.yul\":6228:6253   */\n  swap2\n  pop\n    /* \"#utility.yul\":5816:6267   */\ntag_125:\n    /* \"#utility.yul\":6298:6302   */\n  dup1\n    /* \"#utility.yul\":6292:6296   */\n  dup2\n    /* \"#utility.yul\":6288:6303   */\n  mul\n    /* \"#utility.yul\":6280:6303   */\n  swap1\n  pop\n    /* \"#utility.yul\":6328:6360   */\n  tag_126\n    /* \"#utility.yul\":6351:6359   */\n  dup6\n    /* \"#utility.yul\":6328:6360   */\n  tag_50\n  jump\t// in\ntag_126:\n    /* \"#utility.yul\":6316:6360   */\n  swap5\n  pop\n    /* \"#utility.yul\":5658:6370   */\n  jump(tag_120)\ntag_122:\n    /* \"#utility.yul\":5528:6376   */\n  swap5\n  pop\n  swap5\n  swap3\n  pop\n  pop\n  pop\n  jump\t// out\n    /* \"#utility.yul\":6382:7455   */\ntag_52:\n    /* \"#utility.yul\":6436:6441   */\n  0x00\n    /* \"#utility.yul\":6627:6635   */\n  dup3\n    /* \"#utility.yul\":6617:6657   */\n  tag_128\n  jumpi\n    /* \"#utility.yul\":6648:6649   */\n  0x01\n    /* \"#utility.yul\":6639:6649   */\n  swap1\n  pop\n    /* \"#utility.yul\":6650:6655   */\n  jump(tag_127)\n    /* \"#utility.yul\":6617:6657   */\ntag_128:\n    /* \"#utility.yul\":6676:6680   */\n  dup2\n    /* \"#utility.yul\":6666:6702   */\n  tag_129\n  jumpi\n    /* \"#utility.yul\":6693:6694   */\n  0x00\n    /* \"#utility.yul\":6684:6694   */\n  swap1\n  pop\n    /* \"#utility.yul\":6695:6700   */\n  jump(tag_127)\n    /* \"#utility.yul\":6666:6702   */\ntag_129:\n    /* \"#utility.yul\":6762:6766   */\n  dup2\n    /* \"#utility.yul\":6810:6811   */\n  0x01\n    /* \"#utility.yul\":6805:6832   */\n  dup2\n  eq\n  tag_131\n  jumpi\n    /* \"#utility.yul\":6846:6847   */\n  0x02\n    /* \"#utility.yul\":6841:7032   */\n  dup2\n  eq\n  tag_132\n  jumpi\n    /* \"#utility.yul\":6755:7032   */\n  jump(tag_130)\n    /* \"#utility.yul\":6805:6832   */\ntag_131:\n    /* \"#utility.yul\":6823:6824   */\n  0x01\n    /* \"#utility.yul\":6814:6824   */\n  swap2\n  pop\n    /* \"#utility.yul\":6825:6830   */\n  pop\n  jump(tag_127)\n    /* \"#utility.yul\":6841:7032   */\ntag_132:\n    /* \"#utility.yul\":6886:6889   */\n  0xff\n    /* \"#utility.yul\":6876:6884   */\n  dup5\n    /* \"#utility.yul\":6873:6890   */\n  gt\n    /* \"#utility.yul\":6870:6913   */\n  iszero\n  tag_133\n  jumpi\n    /* \"#utility.yul\":6893:6911   */\n  tag_134\n  tag_49\n  jump\t// in\ntag_134:\n    /* \"#utility.yul\":6870:6913   */\ntag_133:\n    /* \"#utility.yul\":6942:6950   */\n  dup4\n    /* \"#utility.yul\":6939:6940   */\n  0x02\n    /* \"#utility.yul\":6935:6951   */\n  exp\n    /* \"#utility.yul\":6926:6951   */\n  swap2\n  pop\n    /* \"#utility.yul\":6977:6980   */\n  dup5\n    /* \"#utility.yul\":6970:6975   */\n  dup3\n    /* \"#utility.yul\":6967:6981   */\n  gt\n    /* \"#utility.yul\":6964:7004   */\n  iszero\n  tag_135\n  jumpi\n    /* \"#utility.yul\":6984:7002   */\n  tag_136\n  tag_49\n  jump\t// in\ntag_136:\n    /* \"#utility.yul\":6964:7004   */\ntag_135:\n    /* \"#utility.yul\":7017:7022   */\n  pop\n  jump(tag_127)\n    /* \"#utility.yul\":6755:7032   */\ntag_130:\n  pop\n    /* \"#utility.yul\":7141:7143   */\n  0x20\n    /* \"#utility.yul\":7131:7139   */\n  dup4\n    /* \"#utility.yul\":7128:7144   */\n  lt\n    /* \"#utility.yul\":7122:7125   */\n  0x0133\n    /* \"#utility.yul\":7116:7120   */\n  dup4\n    /* \"#utility.yul\":7113:7126   */\n  lt\n    /* \"#utility.yul\":7109:7145   */\n  and\n    /* \"#utility.yul\":7091:7093   */\n  0x4e\n    /* \"#utility.yul\":7081:7089   */\n  dup5\n    /* \"#utility.yul\":7078:7094   */\n  lt\n    /* \"#utility.yul\":7073:7075   */\n  0x0b\n    /* \"#utility.yul\":7067:7071   */\n  dup5\n    /* \"#utility.yul\":7064:7076   */\n  lt\n    /* \"#utility.yul\":7060:7095   */\n  and\n    /* \"#utility.yul\":7044:7155   */\n  or\n    /* \"#utility.yul\":7041:7287   */\n  iszero\n  tag_137\n  jumpi\n    /* \"#utility.yul\":7197:7205   */\n  dup3\n    /* \"#utility.yul\":7191:7195   */\n  dup3\n    /* \"#utility.yul\":7187:7206   */\n  exp\n    /* \"#utility.yul\":7178:7206   */\n  swap1\n  pop\n    /* \"#utility.yul\":7232:7235   */\n  dup4\n    /* \"#utility.yul\":7225:7230   */\n  dup2\n    /* \"#utility.yul\":7222:7236   */\n  gt\n    /* \"#utility.yul\":7219:7259   */\n  iszero\n  tag_138\n  jumpi\n    /* \"#utility.yul\":7239:7257   */\n  tag_139\n  tag_49\n  jump\t// in\ntag_139:\n    /* \"#utility.yul\":7219:7259   */\ntag_138:\n    /* \"#utility.yul\":7272:7277   */\n  jump(tag_127)\n    /* \"#utility.yul\":7041:7287   */\ntag_137:\n    /* \"#utility.yul\":7312:7354   */\n  tag_140\n    /* \"#utility.yul\":7350:7353   */\n  dup5\n    /* \"#utility.yul\":7340:7348   */\n  dup5\n    /* \"#utility.yul\":7334:7338   */\n  dup5\n    /* \"#utility.yul\":7331:7332   */\n  0x01\n    /* \"#utility.yul\":7312:7354   */\n  tag_51\n  jump\t// in\ntag_140:\n    /* \"#utility.yul\":7297:7354   */\n  swap3\n  pop\n  swap1\n  pop\n    /* \"#utility.yul\":7386:7390   */\n  dup2\n    /* \"#utility.yul\":7381:7384   */\n  dup5\n    /* \"#utility.yul\":7377:7391   */\n  div\n    /* \"#utility.yul\":7370:7375   */\n  dup2\n    /* \"#utility.yul\":7367:7392   */\n  gt\n    /* \"#utility.yul\":7364:7415   */\n  iszero\n  tag_141\n  jumpi\n    /* \"#utility.yul\":7395:7413   */\n  tag_142\n  tag_49\n  jump\t// in\ntag_142:\n    /* \"#utility.yul\":7364:7415   */\ntag_141:\n    /* \"#utility.yul\":7444:7448   */\n  dup2\n    /* \"#utility.yul\":7437:7442   */\n  dup2\n    /* \"#utility.yul\":7433:7449   */\n  mul\n    /* \"#utility.yul\":7424:7449   */\n  swap1\n  pop\n    /* \"#utility.yul\":6382:7455   */\ntag_127:\n  swap4\n  swap3\n  pop\n  pop\n  pop\n  jump\t// out\n    /* \"#utility.yul\":7461:7547   */\ntag_53:\n    /* \"#utility.yul\":7496:7503   */\n  0x00\n    /* \"#utility.yul\":7536:7540   */\n  0xff\n    /* \"#utility.yul\":7529:7534   */\n  dup3\n    /* \"#utility.yul\":7525:7541   */\n  and\n    /* \"#utility.yul\":7514:7541   */\n  swap1\n  pop\n    /* \"#utility.yul\":7461:7547   */\n  swap2\n  swap1\n  pop\n  jump\t// out\n    /* \"#utility.yul\":7553:7834   */\ntag_10:\n    /* \"#utility.yul\":7611:7616   */\n  0x00\n    /* \"#utility.yul\":7635:7658   */\n  tag_145\n    /* \"#utility.yul\":7653:7657   */\n  dup3\n    /* \"#utility.yul\":7635:7658   */\n  tag_37\n  jump\t// in\ntag_145:\n    /* \"#utility.yul\":7627:7658   */\n  swap2\n  pop\n    /* \"#utility.yul\":7679:7704   */\n  tag_146\n    /* \"#utility.yul\":7695:7703   */\n  dup4\n    /* \"#utility.yul\":7679:7704   */\n  tag_53\n  jump\t// in\ntag_146:\n    /* \"#utility.yul\":7667:7704   */\n  swap3\n  pop\n    /* \"#utility.yul\":7723:7827   */\n  tag_147\n    /* \"#utility.yul\":7760:7826   */\n  0xffffffffffffffffffffffffffffffffffffffffffffffffffffffffffffffff\n    /* \"#utility.yul\":7750:7758   */\n  dup5\n    /* \"#utility.yul\":7744:7748   */\n  dup5\n    /* \"#utility.yul\":7723:7827   */\n  tag_52\n  jump\t// in\ntag_147:\n    /* \"#utility.yul\":7714:7827   */\n  swap1\n  pop\n    /* \"#utility.yul\":7553:7834   */\n  swap3\n  swap2\n  pop\n  pop\n  jump\t// out\n    /* \"#utility.yul\":7840:8250   */\ntag_12:\n    /* \"#utility.yul\":7880:7887   */\n  0x00\n    /* \"#utility.yul\":7903:7923   */\n  tag_149\n    /* \"#utility.yul\":7921:7922   */\n  dup3\n    /* \"#utility.yul\":7903:7923   */\n  tag_37\n  jump\t// in\ntag_149:\n    /* \"#utility.yul\":7898:7923   */\n  swap2\n  pop\n    /* \"#utility.yul\":7937:7957   */\n  tag_150\n    /* \"#utility.yul\":7955:7956   */\n  dup4\n    /* \"#utility.yul\":7937:7957   */\n  tag_37\n  jump\t// in\ntag_150:\n    /* \"#utility.yul\":7932:7957   */\n  swap3\n  pop\n    /* \"#utility.yul\":7992:7993   */\n  dup3\n    /* \"#utility.yul\":7989:7990   */\n  dup3\n    /* \"#utility.yul\":7985:7994   */\n  mul\n    /* \"#utility.yul\":8014:8044   */\n  tag_151\n    /* \"#utility.yul\":8032:8043   */\n  dup2\n    /* \"#utility.yul\":8014:8044   */\n  tag_37\n  jump\t// in\ntag_151:\n    /* \"#utility.yul\":8003:8044   */\n  swap2\n  pop\n    /* \"#utility.yul\":8193:8194   */\n  dup3\n    /* \"#utility.yul\":8184:8191   */\n  dup3\n    /* \"#utility.yul\":8180:8195   */\n  div\n    /* \"#utility.yul\":8177:8178   */\n  dup5\n    /* \"#utility.yul\":8174:8196   */\n  eq\n    /* \"#utility.yul\":8154:8155   */\n  dup4\n    /* \"#utility.yul\":8147:8156   */\n  iszero\n    /* \"#utility.yul\":8127:8210   */\n  or\n    /* \"#utility.yul\":8104:8243   */\n  tag_152\n  jumpi\n    /* \"#utility.yul\":8223:8241   */\n  tag_153\n  tag_49\n  jump\t// in\ntag_153:\n    /* \"#utility.yul\":8104:8243   */\ntag_152:\n    /* \"#utility.yul\":7888:8250   */\n  pop\n    /* \"#utility.yul\":7840:8250   */\n  swap3\n  swap2\n  pop\n  pop\n  jump\t// out\n    /* \"#utility.yul\":8256:8450   */\ntag_23:\n    /* \"#utility.yul\":8296:8300   */\n  0x00\n    /* \"#utility.yul\":8316:8336   */\n  tag_155\n    /* \"#utility.yul\":8334:8335   */\n  dup3\n    /* \"#utility.yul\":8316:8336   */\n  tag_37\n  jump\t// in\ntag_155:\n    /* \"#utility.yul\":8311:8336   */\n  swap2\n  pop\n    /* \"#utility.yul\":8350:8370   */\n  tag_156\n    /* \"#utility.yul\":8368:8369   */\n  dup4\n    /* \"#utility.yul\":8350:8370   */\n  tag_37\n  jump\t// in\ntag_156:\n    /* \"#utility.yul\":8345:8370   */\n  swap3\n  pop\n    /* \"#utility.yul\":8394:8395   */\n  dup3\n    /* \"#utility.yul\":8391:8392   */\n  dup3\n    /* \"#utility.yul\":8387:8396   */\n  sub\n    /* \"#utility.yul\":8379:8396   */\n  swap1\n  pop\n    /* \"#utility.yul\":8418:8419   */\n  dup2\n    /* \"#utility.yul\":8412:8416   */\n  dup2\n    /* \"#utility.yul\":8409:8420   */\n  gt\n    /* \"#utility.yul\":8406:8443   */\n  iszero\n  tag_157\n  jumpi\n    /* \"#utility.yul\":8423:8441   */\n  tag_158\n  tag_49\n  jump\t// in\ntag_158:\n    /* \"#utility.yul\":8406:8443   */\ntag_157:\n    /* \"#utility.yul\":8256:8450   */\n  swap3\n  swap2\n  pop\n  pop\n  jump\t// out\n    /* \"#utility.yul\":8456:8647   */\ntag_25:\n    /* \"#utility.yul\":8496:8499   */\n  0x00\n    /* \"#utility.yul\":8515:8535   */\n  tag_160\n    /* \"#utility.yul\":8533:8534   */\n  dup3\n    /* \"#utility.yul\":8515:8535   */\n  tag_37\n  jump\t// in\ntag_160:\n    /* \"#utility.yul\":8510:8535   */\n  swap2\n  pop\n    /* \"#utility.yul\":8549:8569   */\n  tag_161\n    /* \"#utility.yul\":8567:8568   */\n  dup4\n    /* \"#utility.yul\":8549:8569   */\n  tag_37\n  jump\t// in\ntag_161:\n    /* \"#utility.yul\":8544:8569   */\n  swap3\n  pop\n    /* \"#utility.yul\":8592:8593   */\n  dup3\n    /* \"#utility.yul\":8589:8590   */\n  dup3\n    /* \"#utility.yul\":8585:8594   */\n  add\n    /* \"#utility.yul\":8578:8594   */\n  swap1\n  pop\n    /* \"#utility.yul\":8613:8616   */\n  dup1\n    /* \"#utility.yul\":8610:8611   */\n  dup3\n    /* \"#utility.yul\":8607:8617   */\n  gt\n    /* \"#utility.yul\":8604:8640   */\n  iszero\n  tag_162\n  jumpi\n    /* \"#utility.yul\":8620:8638   */\n  tag_163\n  tag_49\n  jump\t// in\ntag_163:\n    /* \"#utility.yul\":8604:8640   */\ntag_162:\n    /* \"#utility.yul\":8456:8647   */\n  swap3\n  swap2\n  pop\n  pop\n  jump\t// out\n    /* \"#utility.yul\":8653:8771   */\ntag_54:\n    /* \"#utility.yul\":8740:8764   */\n  tag_165\n    /* \"#utility.yul\":8758:8763   */\n  dup2\n    /* \"#utility.yul\":8740:8764   */\n  tag_37\n  jump\t// in\ntag_165:\n    /* \"#utility.yul\":8735:8738   */\n  dup3\n    /* \"#utility.yul\":8728:8765   */\n  mstore\n    /* \"#utility.yul\":8653:8771   */\n  pop\n  pop\n  jump\t// out\n    /* \"#utility.yul\":8777:8999   */\ntag_28:\n    /* \"#utility.yul\":8870:8874   */\n  0x00\n    /* \"#utility.yul\":8908:8910   */\n  0x20\n    /* \"#utility.yul\":8897:8906   */\n  dup3\n    /* \"#utility.yul\":8893:8911   */\n  add\n    /* \"#utility.yul\":8885:8911   */\n  swap1\n  pop\n    /* \"#utility.yul\":8921:8992   */\n  tag_167\n    /* \"#utility.yul\":8989:8990   */\n  0x00\n    /* \"#utility.yul\":8978:8987   */\n  dup4\n    /* \"#utility.yul\":8974:8991   */\n  add\n    /* \"#utility.yul\":8965:8971   */\n  dup5\n    /* \"#utility.yul\":8921:8992   */\n  tag_54\n  jump\t// in\ntag_167:\n    /* \"#utility.yul\":8777:8999   */\n  swap3\n  swap2\n  pop\n  pop\n  jump\t// out\n    /* \"smart_contracts/contracts/Token.sol\":1607:9874  contract Token is Authenticator, IERC20, ICustomToken {... */\ntag_17:\n  mload(0x80)\n  codecopy(0x00, dataOffset(sub_0), dataSize(sub_0))\n  0x00\n  assignImmutable(\"0xfcf3b28e8fa1bc87a6895d8139971008ea7e511a2a04e5066175faeeb9754d0e\")\n  return(0x00, dataSize(sub_0))\nstop\n\nsub_0: assembly {\n        /* \"smart_contracts/contracts/Token.sol\":1607:9874  contract Token is Authenticator, IERC20, ICustomToken {... */\n      mstore(0x40, 0x80)\n      callvalue\n      dup1\n      iszero\n      tag_1\n      jumpi\n      0x00\n      dup1\n      revert\n    tag_1:\n      pop\n      jumpi(tag_2, lt(calldatasize, 0x04))\n      shr(0xe0, calldataload(0x00))\n      dup1\n      0x70a08231\n      gt\n      tag_21\n      jumpi\n      dup1\n      0xa694fc3a\n      gt\n      tag_22\n      jumpi\n      dup1\n      0xa694fc3a\n      eq\n      tag_16\n      jumpi\n      dup1\n      0xa9059cbb\n      eq\n      tag_17\n      jumpi\n      dup1\n      0xd5abeb01\n      eq\n      tag_18\n      jumpi\n      dup1\n      0xdd62ed3e\n      eq\n      tag_19\n      jumpi\n      dup1\n      0xf34e3723\n      eq\n      tag_20\n      jumpi\n      jump(tag_2)\n    tag_22:\n      dup1\n      0x70a08231\n      eq\n      tag_12\n      jumpi\n      dup1\n      0x79ec5d3a\n      eq\n      tag_13\n      jumpi\n      dup1\n      0x817b1cd2\n      eq\n      tag_14\n      jumpi\n      dup1\n      0x95d89b41\n      eq\n      tag_15\n      jumpi\n      jump(tag_2)\n    tag_21:\n      dup1\n      0x18160ddd\n      gt\n      tag_23\n      jumpi\n      dup1\n      0x18160ddd\n      eq\n      tag_7\n      jumpi\n      dup1\n      0x23b872dd\n      eq\n      tag_8\n      jumpi\n      dup1\n      0x2e17de78\n      eq\n      tag_9\n      jumpi\n      dup1\n      0x313ce567\n      eq\n      tag_10\n      jumpi\n      dup1\n      0x42623360\n      eq\n      tag_11\n      jumpi\n      jump(tag_2)\n    tag_23:\n      dup1\n      0x015af8ee\n      eq\n      tag_3\n      jumpi\n      dup1\n      0x06fdde03\n      eq\n      tag_4\n      jumpi\n      dup1\n      0x095ea7b3\n      eq\n      tag_5\n      jumpi\n      dup1\n      0x0d15fd77\n      eq\n      tag_6\n      jumpi\n    tag_2:\n      0x00\n      dup1\n      revert\n        /* \"smart_contracts/contracts/Token.sol\":8201:8712  function updateSettings(uint256 _bpFeeBurn, uint256 _bpFeeBank) external onlyAdmin returns (bool) {... */\n    tag_3:\n      tag_24\n      0x04\n      dup1\n      calldatasize\n      sub\n      dup2\n      add\n      swap1\n      tag_25\n      swap2\n      swap1\n      tag_26\n      jump\t// in\n    tag_25:\n      tag_27\n      jump\t// in\n    tag_24:\n      mload(0x40)\n      tag_28\n      swap2\n      swap1\n      tag_29\n      jump\t// in\n    tag_28:\n      mload(0x40)\n      dup1\n      swap2\n      sub\n      swap1\n      return\n        /* \"smart_contracts/contracts/Token.sol\":8718:8805  function name() external view returns (string memory) {... */\n    tag_4:\n      tag_30\n      tag_31\n      jump\t// in\n    tag_30:\n      mload(0x40)\n      tag_32\n      swap2\n      swap1\n      tag_33\n      jump\t// in\n    tag_32:\n      mload(0x40)\n      dup1\n      swap2\n      sub\n      swap1\n      return\n        /* \"smart_contracts/contracts/Token.sol\":7863:8195  function approve(address _spender, uint256 _value) external returns (bool) {... */\n    tag_5:\n      tag_34\n      0x04\n      dup1\n      calldatasize\n      sub\n      dup2\n      add\n      swap1\n      tag_35\n      swap2\n      swap1\n      tag_36\n      jump\t// in\n    tag_35:\n      tag_37\n      jump\t// in\n    tag_34:\n      mload(0x40)\n      tag_38\n      swap2\n      swap1\n      tag_29\n      jump\t// in\n    tag_38:\n      mload(0x40)\n      dup1\n      swap2\n      sub\n      swap1\n      return\n        /* \"smart_contracts/contracts/Token.sol\":9001:9094  function totalVotes() external view returns (uint256) {... */\n    tag_6:\n      tag_39\n      tag_40\n      jump\t// in\n    tag_39:\n      mload(0x40)\n      tag_41\n      swap2\n      swap1\n      tag_42\n      jump\t// in\n    tag_41:\n      mload(0x40)\n      dup1\n      swap2\n      sub\n      swap1\n      return\n        /* \"smart_contracts/contracts/Token.sol\":9201:9296  function totalSupply() external view returns (uint256) {... */\n    tag_7:\n      tag_43\n      tag_44\n      jump\t// in\n    tag_43:\n      mload(0x40)\n      tag_45\n      swap2\n      swap1\n      tag_42\n      jump\t// in\n    tag_45:\n      mload(0x40)\n      dup1\n      swap2\n      sub\n      swap1\n      return\n        /* \"smart_contracts/contracts/Token.sol\":5297:5908  function transferFrom(address _from, address _to, uint256 _value) external returns (bool) {... */\n    tag_8:\n      tag_46\n      0x04\n      dup1\n      calldatasize\n      sub\n      dup2\n      add\n      swap1\n      tag_47\n      swap2\n      swap1\n      tag_48\n      jump\t// in\n    tag_47:\n      tag_49\n      jump\t// in\n    tag_46:\n      mload(0x40)\n      tag_50\n      swap2\n      swap1\n      tag_29\n      jump\t// in\n    tag_50:\n      mload(0x40)\n      dup1\n      swap2\n      sub\n      swap1\n      return\n        /* \"smart_contracts/contracts/Token.sol\":6511:7158  function unstake(uint256 _value) external returns (bool) {... */\n    tag_9:\n      tag_51\n      0x04\n      dup1\n      calldatasize\n      sub\n      dup2\n      add\n      swap1\n      tag_52\n      swap2\n      swap1\n      tag_53\n      jump\t// in\n    tag_52:\n      tag_54\n      jump\t// in\n    tag_51:\n      mload(0x40)\n      tag_55\n      swap2\n      swap1\n      tag_29\n      jump\t// in\n    tag_55:\n      mload(0x40)\n      dup1\n      swap2\n      sub\n      swap1\n      return\n        /* \"smart_contracts/contracts/Token.sol\":8908:8995  function decimals() external view returns (uint8) {... */\n    tag_10:\n      tag_56\n      tag_57\n      jump\t// in\n    tag_56:\n      mload(0x40)\n      tag_58\n      swap2\n      swap1\n      tag_59\n      jump\t// in\n    tag_58:\n      mload(0x40)\n      dup1\n      swap2\n      sub\n      swap1\n      return\n        /* \"smart_contracts/contracts/Token.sol\":9511:9614  function stakeOf(address _owner) external view returns (uint256) {... */\n    tag_11:\n      tag_60\n      0x04\n      dup1\n      calldatasize\n      sub\n      dup2\n      add\n      swap1\n      tag_61\n      swap2\n      swap1\n      tag_62\n      jump\t// in\n    tag_61:\n      tag_63\n      jump\t// in\n    tag_60:\n      mload(0x40)\n      tag_64\n      swap2\n      swap1\n      tag_42\n      jump\t// in\n    tag_64:\n      mload(0x40)\n      dup1\n      swap2\n      sub\n      swap1\n      return\n        /* \"smart_contracts/contracts/Token.sol\":9399:9505  function balanceOf(address _owner) external view returns (uint256) {... */\n    tag_12:\n      tag_65\n      0x04\n      dup1\n      calldatasize\n      sub\n      dup2\n      add\n      swap1\n      tag_66\n      swap2\n      swap1\n      tag_62\n      jump\t// in\n    tag_66:\n      tag_67\n      jump\t// in\n    tag_65:\n      mload(0x40)\n      tag_68\n      swap2\n      swap1\n      tag_42\n      jump\t// in\n    tag_68:\n      mload(0x40)\n      dup1\n      swap2\n      sub\n      swap1\n      return\n        /* \"smart_contracts/contracts/Token.sol\":9620:9722  function votesOf(address _owner) external view returns (uint256) {... */\n    tag_13:\n      tag_69\n      0x04\n      dup1\n      calldatasize\n      sub\n      dup2\n      add\n      swap1\n      tag_70\n      swap2\n      swap1\n      tag_62\n      jump\t// in\n    tag_70:\n      tag_71\n      jump\t// in\n    tag_69:\n      mload(0x40)\n      tag_72\n      swap2\n      swap1\n      tag_42\n      jump\t// in\n    tag_72:\n      mload(0x40)\n      dup1\n      swap2\n      sub\n      swap1\n      return\n        /* \"smart_contracts/contracts/Token.sol\":9100:9195  function totalStaked() external view returns (uint256) {... */\n    tag_14:\n      tag_73\n      tag_74\n      jump\t// in\n    tag_73:\n      mload(0x40)\n      tag_75\n      swap2\n      swap1\n      tag_42\n      jump\t// in\n    tag_75:\n      mload(0x40)\n      dup1\n      swap2\n      sub\n      swap1\n      return\n        /* \"smart_contracts/contracts/Token.sol\":8811:8902  function symbol() external view returns (string memory) {... */\n    tag_15:\n      tag_76\n      tag_77\n      jump\t// in\n    tag_76:\n      mload(0x40)\n      tag_78\n      swap2\n      swap1\n      tag_33\n      jump\t// in\n    tag_78:\n      mload(0x40)\n      dup1\n      swap2\n      sub\n      swap1\n      return\n        /* \"smart_contracts/contracts/Token.sol\":5914:6505  function stake(uint256 _value) external returns (bool) {... */\n    tag_16:\n      tag_79\n      0x04\n      dup1\n      calldatasize\n      sub\n      dup2\n      add\n      swap1\n      tag_80\n      swap2\n      swap1\n      tag_53\n      jump\t// in\n    tag_80:\n      tag_81\n      jump\t// in\n    tag_79:\n      mload(0x40)\n      tag_82\n      swap2\n      swap1\n      tag_29\n      jump\t// in\n    tag_82:\n      mload(0x40)\n      dup1\n      swap2\n      sub\n      swap1\n      return\n        /* \"smart_contracts/contracts/Token.sol\":4879:5291  function transfer(address _to, uint256 _value) external returns (bool) {... */\n    tag_17:\n      tag_83\n      0x04\n      dup1\n      calldatasize\n      sub\n      dup2\n      add\n      swap1\n      tag_84\n      swap2\n      swap1\n      tag_36\n      jump\t// in\n    tag_84:\n      tag_85\n      jump\t// in\n    tag_83:\n      mload(0x40)\n      tag_86\n      swap2\n      swap1\n      tag_29\n      jump\t// in\n    tag_86:\n      mload(0x40)\n      dup1\n      swap2\n      sub\n      swap1\n      return\n        /* \"smart_contracts/contracts/Token.sol\":9302:9393  function maxSupply() external view returns (uint256) {... */\n    tag_18:\n      tag_87\n      tag_88\n      jump\t// in\n    tag_87:\n      mload(0x40)\n      tag_89\n      swap2\n      swap1\n      tag_42\n      jump\t// in\n    tag_89:\n      mload(0x40)\n      dup1\n      swap2\n      sub\n      swap1\n      return\n        /* \"smart_contracts/contracts/Token.sol\":9728:9872  function allowance(address _owner, address _spender) external view returns (uint256 remaining) {... */\n    tag_19:\n      tag_90\n      0x04\n      dup1\n      calldatasize\n      sub\n      dup2\n      add\n      swap1\n      tag_91\n      swap2\n      swap1\n      tag_92\n      jump\t// in\n    tag_91:\n      tag_93\n      jump\t// in\n    tag_90:\n      mload(0x40)\n      tag_94\n      swap2\n      swap1\n      tag_42\n      jump\t// in\n    tag_94:\n      mload(0x40)\n      dup1\n      swap2\n      sub\n      swap1\n      return\n        /* \"smart_contracts/contracts/Token.sol\":7164:7853  function release(string memory _caption) external returns (bool) {... */\n    tag_20:\n      tag_95\n      0x04\n      dup1\n      calldatasize\n      sub\n      dup2\n      add\n      swap1\n      tag_96\n      swap2\n      swap1\n      tag_97\n      jump\t// in\n    tag_96:\n      tag_98\n      jump\t// in\n    tag_95:\n      mload(0x40)\n      tag_99\n      swap2\n      swap1\n      tag_29\n      jump\t// in\n    tag_99:\n      mload(0x40)\n      dup1\n      swap2\n      sub\n      swap1\n      return\n        /* \"smart_contracts/contracts/Token.sol\":8201:8712  function updateSettings(uint256 _bpFeeBurn, uint256 _bpFeeBank) external onlyAdmin returns (bool) {... */\n    tag_27:\n        /* \"smart_contracts/contracts/Token.sol\":8293:8297  bool */\n      0x00\n        /* \"smart_contracts/contracts/Authenticator.sol\":1369:1384  address _sender */\n      dup1\n        /* \"smart_contracts/contracts/Authenticator.sol\":1387:1397  msg.sender */\n      caller\n        /* \"smart_contracts/contracts/Authenticator.sol\":1369:1397  address _sender = msg.sender */\n      swap1\n      pop\n        /* \"smart_contracts/contracts/Authenticator.sol\":1450:1454  true */\n      0x01\n        /* \"smart_contracts/contracts/Authenticator.sol\":1430:1454  isAdmin[_sender] == true */\n      iszero\n      iszero\n        /* \"smart_contracts/contracts/Authenticator.sol\":1430:1437  isAdmin */\n      0x00\n        /* \"smart_contracts/contracts/Authenticator.sol\":1430:1446  isAdmin[_sender] */\n      dup1\n        /* \"smart_contracts/contracts/Authenticator.sol\":1438:1445  _sender */\n      dup4\n        /* \"smart_contracts/contracts/Authenticator.sol\":1430:1446  isAdmin[_sender] */\n      0xffffffffffffffffffffffffffffffffffffffff\n      and\n      0xffffffffffffffffffffffffffffffffffffffff\n      and\n      dup2\n      mstore\n      0x20\n      add\n      swap1\n      dup2\n      mstore\n      0x20\n      add\n      0x00\n      keccak256\n      0x00\n      swap1\n      sload\n      swap1\n      0x0100\n      exp\n      swap1\n      div\n      0xff\n      and\n        /* \"smart_contracts/contracts/Authenticator.sol\":1430:1454  isAdmin[_sender] == true */\n      iszero\n      iszero\n      eq\n        /* \"smart_contracts/contracts/Authenticator.sol\":1430:1510  isAdmin[_sender] == true &&... */\n      dup1\n      iszero\n      tag_101\n      jumpi\n      pop\n        /* \"smart_contracts/contracts/Authenticator.sol\":1495:1510  block.timestamp */\n      timestamp\n        /* \"smart_contracts/contracts/Authenticator.sol\":1471:1482  expiryAdmin */\n      0x0f\n        /* \"smart_contracts/contracts/Authenticator.sol\":1471:1491  expiryAdmin[_sender] */\n      0x00\n        /* \"smart_contracts/contracts/Authenticator.sol\":1483:1490  _sender */\n      dup4\n        /* \"smart_contracts/contracts/Authenticator.sol\":1471:1491  expiryAdmin[_sender] */\n      0xffffffffffffffffffffffffffffffffffffffff\n      and\n      0xffffffffffffffffffffffffffffffffffffffff\n      and\n      dup2\n      mstore\n      0x20\n      add\n      swap1\n      dup2\n      mstore\n      0x20\n      add\n      0x00\n      keccak256\n      sload\n        /* \"smart_contracts/contracts/Authenticator.sol\":1471:1510  expiryAdmin[_sender] <= block.timestamp */\n      gt\n      iszero\n        /* \"smart_contracts/contracts/Authenticator.sol\":1430:1510  isAdmin[_sender] == true &&... */\n    tag_101:\n        /* \"smart_contracts/contracts/Authenticator.sol\":1408:1547  require(... */\n      tag_102\n      jumpi\n      mload(0x40)\n      0x08c379a000000000000000000000000000000000000000000000000000000000\n      dup2\n      mstore\n      0x04\n      add\n      tag_103\n      swap1\n      tag_104\n      jump\t// in\n    tag_103:\n      mload(0x40)\n      dup1\n      swap2\n      sub\n      swap1\n      revert\n    tag_102:\n        /* \"smart_contracts/contracts/Token.sol\":8309:8330  uint256 _bpFeeBurnMax */\n      0x00\n        /* \"smart_contracts/contracts/Token.sol\":8333:8341  settings */\n      0x14\n        /* \"smart_contracts/contracts/Token.sol\":8333:8359  settings.bpTransferBurnMax */\n      0x0f\n      add\n      sload\n        /* \"smart_contracts/contracts/Token.sol\":8309:8359  uint256 _bpFeeBurnMax = settings.bpTransferBurnMax */\n      swap1\n      pop\n        /* \"smart_contracts/contracts/Token.sol\":8369:8390  uint256 _bpFeeBankMax */\n      0x00\n        /* \"smart_contracts/contracts/Token.sol\":8393:8401  settings */\n      0x14\n        /* \"smart_contracts/contracts/Token.sol\":8393:8419  settings.bpTransferBankMax */\n      0x10\n      add\n      sload\n        /* \"smart_contracts/contracts/Token.sol\":8369:8419  uint256 _bpFeeBankMax = settings.bpTransferBankMax */\n      swap1\n      pop\n        /* \"smart_contracts/contracts/Token.sol\":8464:8465  0 */\n      0x00\n        /* \"smart_contracts/contracts/Token.sol\":8450:8460  _bpFeeBurn */\n      dup7\n        /* \"smart_contracts/contracts/Token.sol\":8450:8465  _bpFeeBurn >= 0 */\n      lt\n      iszero\n        /* \"smart_contracts/contracts/Token.sol\":8450:8508  _bpFeeBurn >= 0 &&... */\n      dup1\n      iszero\n      tag_106\n      jumpi\n      pop\n        /* \"smart_contracts/contracts/Token.sol\":8495:8508  _bpFeeBurnMax */\n      dup2\n        /* \"smart_contracts/contracts/Token.sol\":8481:8491  _bpFeeBurn */\n      dup7\n        /* \"smart_contracts/contracts/Token.sol\":8481:8508  _bpFeeBurn <= _bpFeeBurnMax */\n      gt\n      iszero\n        /* \"smart_contracts/contracts/Token.sol\":8450:8508  _bpFeeBurn >= 0 &&... */\n    tag_106:\n        /* \"smart_contracts/contracts/Token.sol\":8450:8539  _bpFeeBurn >= 0 &&... */\n      dup1\n      iszero\n      tag_107\n      jumpi\n      pop\n        /* \"smart_contracts/contracts/Token.sol\":8538:8539  0 */\n      0x00\n        /* \"smart_contracts/contracts/Token.sol\":8524:8534  _bpFeeBank */\n      dup6\n        /* \"smart_contracts/contracts/Token.sol\":8524:8539  _bpFeeBank >= 0 */\n      lt\n      iszero\n        /* \"smart_contracts/contracts/Token.sol\":8450:8539  _bpFeeBurn >= 0 &&... */\n    tag_107:\n        /* \"smart_contracts/contracts/Token.sol\":8450:8582  _bpFeeBurn >= 0 &&... */\n      dup1\n      iszero\n      tag_108\n      jumpi\n      pop\n        /* \"smart_contracts/contracts/Token.sol\":8569:8582  _bpFeeBankMax */\n      dup1\n        /* \"smart_contracts/contracts/Token.sol\":8555:8565  _bpFeeBank */\n      dup6\n        /* \"smart_contracts/contracts/Token.sol\":8555:8582  _bpFeeBank <= _bpFeeBankMax */\n      gt\n      iszero\n        /* \"smart_contracts/contracts/Token.sol\":8450:8582  _bpFeeBurn >= 0 &&... */\n    tag_108:\n        /* \"smart_contracts/contracts/Token.sol\":8429:8592  require(... */\n      tag_109\n      jumpi\n      0x00\n      dup1\n      revert\n    tag_109:\n        /* \"smart_contracts/contracts/Token.sol\":8628:8638  _bpFeeBurn */\n      dup6\n        /* \"smart_contracts/contracts/Token.sol\":8602:8610  settings */\n      0x14\n        /* \"smart_contracts/contracts/Token.sol\":8602:8625  settings.bpTransferBurn */\n      0x11\n      add\n        /* \"smart_contracts/contracts/Token.sol\":8602:8638  settings.bpTransferBurn = _bpFeeBurn */\n      dup2\n      swap1\n      sstore\n      pop\n        /* \"smart_contracts/contracts/Token.sol\":8674:8684  _bpFeeBank */\n      dup5\n        /* \"smart_contracts/contracts/Token.sol\":8648:8656  settings */\n      0x14\n        /* \"smart_contracts/contracts/Token.sol\":8648:8671  settings.bpTransferBank */\n      0x12\n      add\n        /* \"smart_contracts/contracts/Token.sol\":8648:8684  settings.bpTransferBank = _bpFeeBank */\n      dup2\n      swap1\n      sstore\n      pop\n        /* \"smart_contracts/contracts/Token.sol\":8701:8705  true */\n      0x01\n        /* \"smart_contracts/contracts/Token.sol\":8694:8705  return true */\n      swap4\n      pop\n      pop\n      pop\n        /* \"smart_contracts/contracts/Authenticator.sol\":1358:1567  {... */\n      pop\n        /* \"smart_contracts/contracts/Token.sol\":8201:8712  function updateSettings(uint256 _bpFeeBurn, uint256 _bpFeeBank) external onlyAdmin returns (bool) {... */\n      swap3\n      swap2\n      pop\n      pop\n      jump\t// out\n        /* \"smart_contracts/contracts/Token.sol\":8718:8805  function name() external view returns (string memory) {... */\n    tag_31:\n        /* \"smart_contracts/contracts/Token.sol\":8757:8770  string memory */\n      0x60\n        /* \"smart_contracts/contracts/Token.sol\":8789:8793  meta */\n      0x28\n        /* \"smart_contracts/contracts/Token.sol\":8789:8798  meta.name */\n      0x00\n      add\n        /* \"smart_contracts/contracts/Token.sol\":8782:8798  return meta.name */\n      dup1\n      sload\n      tag_111\n      swap1\n      tag_112\n      jump\t// in\n    tag_111:\n      dup1\n      0x1f\n      add\n      0x20\n      dup1\n      swap2\n      div\n      mul\n      0x20\n      add\n      mload(0x40)\n      swap1\n      dup2\n      add\n      0x40\n      mstore\n      dup1\n      swap3\n      swap2\n      swap1\n      dup2\n      dup2\n      mstore\n      0x20\n      add\n      dup3\n      dup1\n      sload\n      tag_113\n      swap1\n      tag_112\n      jump\t// in\n    tag_113:\n      dup1\n      iszero\n      tag_114\n      jumpi\n      dup1\n      0x1f\n      lt\n      tag_115\n      jumpi\n      0x0100\n      dup1\n      dup4\n      sload\n      div\n      mul\n      dup4\n      mstore\n      swap2\n      0x20\n      add\n      swap2\n      jump(tag_114)\n    tag_115:\n      dup3\n      add\n      swap2\n      swap1\n      0x00\n      mstore\n      keccak256(0x00, 0x20)\n      swap1\n    tag_116:\n      dup2\n      sload\n      dup2\n      mstore\n      swap1\n      0x01\n      add\n      swap1\n      0x20\n      add\n      dup1\n      dup4\n      gt\n      tag_116\n      jumpi\n      dup3\n      swap1\n      sub\n      0x1f\n      and\n      dup3\n      add\n      swap2\n    tag_114:\n      pop\n      pop\n      pop\n      pop\n      pop\n      swap1\n      pop\n        /* \"smart_contracts/contracts/Token.sol\":8718:8805  function name() external view returns (string memory) {... */\n      swap1\n      jump\t// out\n        /* \"smart_contracts/contracts/Token.sol\":7863:8195  function approve(address _spender, uint256 _value) external returns (bool) {... */\n    tag_37:\n        /* \"smart_contracts/contracts/Token.sol\":7932:7936  bool */\n      0x00\n        /* \"smart_contracts/contracts/Token.sol\":7948:7962  address _owner */\n      dup1\n        /* \"smart_contracts/contracts/Token.sol\":7965:7975  msg.sender */\n      caller\n        /* \"smart_contracts/contracts/Token.sol\":7948:7975  address _owner = msg.sender */\n      swap1\n      pop\n        /* \"smart_contracts/contracts/Token.sol\":8024:8025  0 */\n      0x00\n        /* \"smart_contracts/contracts/Token.sol\":8006:8026  _owner != address(0) */\n      0xffffffffffffffffffffffffffffffffffffffff\n      and\n        /* \"smart_contracts/contracts/Token.sol\":8006:8012  _owner */\n      dup2\n        /* \"smart_contracts/contracts/Token.sol\":8006:8026  _owner != address(0) */\n      0xffffffffffffffffffffffffffffffffffffffff\n      and\n      eq\n      iszero\n        /* \"smart_contracts/contracts/Token.sol\":8006:8064  _owner != address(0) &&... */\n      dup1\n      iszero\n      tag_118\n      jumpi\n      pop\n        /* \"smart_contracts/contracts/Token.sol\":8062:8063  0 */\n      0x00\n        /* \"smart_contracts/contracts/Token.sol\":8042:8064  _spender != address(0) */\n      0xffffffffffffffffffffffffffffffffffffffff\n      and\n        /* \"smart_contracts/contracts/Token.sol\":8042:8050  _spender */\n      dup5\n        /* \"smart_contracts/contracts/Token.sol\":8042:8064  _spender != address(0) */\n      0xffffffffffffffffffffffffffffffffffffffff\n      and\n      eq\n      iszero\n        /* \"smart_contracts/contracts/Token.sol\":8006:8064  _owner != address(0) &&... */\n    tag_118:\n        /* \"smart_contracts/contracts/Token.sol\":7985:8074  require(... */\n      tag_119\n      jumpi\n      0x00\n      dup1\n      revert\n    tag_119:\n        /* \"smart_contracts/contracts/Token.sol\":8112:8118  _value */\n      dup3\n        /* \"smart_contracts/contracts/Token.sol\":8084:8091  allowed */\n      0x38\n        /* \"smart_contracts/contracts/Token.sol\":8084:8099  allowed[_owner] */\n      0x00\n        /* \"smart_contracts/contracts/Token.sol\":8092:8098  _owner */\n      dup4\n        /* \"smart_contracts/contracts/Token.sol\":8084:8099  allowed[_owner] */\n      0xffffffffffffffffffffffffffffffffffffffff\n      and\n      0xffffffffffffffffffffffffffffffffffffffff\n      and\n      dup2\n      mstore\n      0x20\n      add\n      swap1\n      dup2\n      mstore\n      0x20\n      add\n      0x00\n      keccak256\n        /* \"smart_contracts/contracts/Token.sol\":8084:8109  allowed[_owner][_spender] */\n      0x00\n        /* \"smart_contracts/contracts/Token.sol\":8100:8108  _spender */\n      dup7\n        /* \"smart_contracts/contracts/Token.sol\":8084:8109  allowed[_owner][_spender] */\n      0xffffffffffffffffffffffffffffffffffffffff\n      and\n      0xffffffffffffffffffffffffffffffffffffffff\n      and\n      dup2\n      mstore\n      0x20\n      add\n      swap1\n      dup2\n      mstore\n      0x20\n      add\n      0x00\n      keccak256\n        /* \"smart_contracts/contracts/Token.sol\":8084:8118  allowed[_owner][_spender] = _value */\n      dup2\n      swap1\n      sstore\n      pop\n        /* \"smart_contracts/contracts/Token.sol\":8150:8158  _spender */\n      dup4\n        /* \"smart_contracts/contracts/Token.sol\":8133:8167  Approval(_owner, _spender, _value) */\n      0xffffffffffffffffffffffffffffffffffffffff\n      and\n        /* \"smart_contracts/contracts/Token.sol\":8142:8148  _owner */\n      dup2\n        /* \"smart_contracts/contracts/Token.sol\":8133:8167  Approval(_owner, _spender, _value) */\n      0xffffffffffffffffffffffffffffffffffffffff\n      and\n      0x8c5be1e5ebec7d5bd14f71427d1e84f3dd0314c0f7b2291e5b200ac8c7c3b925\n        /* \"smart_contracts/contracts/Token.sol\":8160:8166  _value */\n      dup6\n        /* \"smart_contracts/contracts/Token.sol\":8133:8167  Approval(_owner, _spender, _value) */\n      mload(0x40)\n      tag_120\n      swap2\n      swap1\n      tag_42\n      jump\t// in\n    tag_120:\n      mload(0x40)\n      dup1\n      swap2\n      sub\n      swap1\n      log3\n        /* \"smart_contracts/contracts/Token.sol\":8184:8188  true */\n      0x01\n        /* \"smart_contracts/contracts/Token.sol\":8177:8188  return true */\n      swap2\n      pop\n      pop\n        /* \"smart_contracts/contracts/Token.sol\":7863:8195  function approve(address _spender, uint256 _value) external returns (bool) {... */\n      swap3\n      swap2\n      pop\n      pop\n      jump\t// out\n        /* \"smart_contracts/contracts/Token.sol\":9001:9094  function totalVotes() external view returns (uint256) {... */\n    tag_40:\n        /* \"smart_contracts/contracts/Token.sol\":9046:9053  uint256 */\n      0x00\n        /* \"smart_contracts/contracts/Token.sol\":9072:9076  meta */\n      0x28\n        /* \"smart_contracts/contracts/Token.sol\":9072:9087  meta.totalVotes */\n      0x07\n      add\n      sload\n        /* \"smart_contracts/contracts/Token.sol\":9065:9087  return meta.totalVotes */\n      swap1\n      pop\n        /* \"smart_contracts/contracts/Token.sol\":9001:9094  function totalVotes() external view returns (uint256) {... */\n      swap1\n      jump\t// out\n        /* \"smart_contracts/contracts/Token.sol\":9201:9296  function totalSupply() external view returns (uint256) {... */\n    tag_44:\n        /* \"smart_contracts/contracts/Token.sol\":9247:9254  uint256 */\n      0x00\n        /* \"smart_contracts/contracts/Token.sol\":9273:9277  meta */\n      0x28\n        /* \"smart_contracts/contracts/Token.sol\":9273:9289  meta.totalSupply */\n      0x04\n      add\n      sload\n        /* \"smart_contracts/contracts/Token.sol\":9266:9289  return meta.totalSupply */\n      swap1\n      pop\n        /* \"smart_contracts/contracts/Token.sol\":9201:9296  function totalSupply() external view returns (uint256) {... */\n      swap1\n      jump\t// out\n        /* \"smart_contracts/contracts/Token.sol\":5297:5908  function transferFrom(address _from, address _to, uint256 _value) external returns (bool) {... */\n    tag_49:\n        /* \"smart_contracts/contracts/Token.sol\":5381:5385  bool */\n      0x00\n        /* \"smart_contracts/contracts/Token.sol\":5397:5415  uint256 _allowance */\n      dup1\n        /* \"smart_contracts/contracts/Token.sol\":5418:5425  allowed */\n      0x38\n        /* \"smart_contracts/contracts/Token.sol\":5418:5432  allowed[_from] */\n      0x00\n        /* \"smart_contracts/contracts/Token.sol\":5426:5431  _from */\n      dup7\n        /* \"smart_contracts/contracts/Token.sol\":5418:5432  allowed[_from] */\n      0xffffffffffffffffffffffffffffffffffffffff\n      and\n      0xffffffffffffffffffffffffffffffffffffffff\n      and\n      dup2\n      mstore\n      0x20\n      add\n      swap1\n      dup2\n      mstore\n      0x20\n      add\n      0x00\n      keccak256\n        /* \"smart_contracts/contracts/Token.sol\":5418:5444  allowed[_from][msg.sender] */\n      0x00\n        /* \"smart_contracts/contracts/Token.sol\":5433:5443  msg.sender */\n      caller\n        /* \"smart_contracts/contracts/Token.sol\":5418:5444  allowed[_from][msg.sender] */\n      0xffffffffffffffffffffffffffffffffffffffff\n      and\n      0xffffffffffffffffffffffffffffffffffffffff\n      and\n      dup2\n      mstore\n      0x20\n      add\n      swap1\n      dup2\n      mstore\n      0x20\n      add\n      0x00\n      keccak256\n      sload\n        /* \"smart_contracts/contracts/Token.sol\":5397:5444  uint256 _allowance = allowed[_from][msg.sender] */\n      swap1\n      pop\n        /* \"smart_contracts/contracts/Token.sol\":5489:5506  type(uint256).max */\n      0xffffffffffffffffffffffffffffffffffffffffffffffffffffffffffffffff\n        /* \"smart_contracts/contracts/Token.sol\":5475:5485  _allowance */\n      dup2\n        /* \"smart_contracts/contracts/Token.sol\":5475:5506  _allowance != type(uint256).max */\n      eq\n      iszero\n        /* \"smart_contracts/contracts/Token.sol\":5475:5542  _allowance != type(uint256).max &&... */\n      dup1\n      iszero\n      tag_124\n      jumpi\n      pop\n        /* \"smart_contracts/contracts/Token.sol\":5536:5542  _value */\n      dup3\n        /* \"smart_contracts/contracts/Token.sol\":5522:5532  _allowance */\n      dup2\n        /* \"smart_contracts/contracts/Token.sol\":5522:5542  _allowance >= _value */\n      lt\n      iszero\n        /* \"smart_contracts/contracts/Token.sol\":5475:5542  _allowance != type(uint256).max &&... */\n    tag_124:\n        /* \"smart_contracts/contracts/Token.sol\":5454:5552  require(... */\n      tag_125\n      jumpi\n      0x00\n      dup1\n      revert\n    tag_125:\n        /* \"smart_contracts/contracts/Token.sol\":5592:5598  _value */\n      dup3\n        /* \"smart_contracts/contracts/Token.sol\":5562:5569  allowed */\n      0x38\n        /* \"smart_contracts/contracts/Token.sol\":5562:5576  allowed[_from] */\n      0x00\n        /* \"smart_contracts/contracts/Token.sol\":5570:5575  _from */\n      dup8\n        /* \"smart_contracts/contracts/Token.sol\":5562:5576  allowed[_from] */\n      0xffffffffffffffffffffffffffffffffffffffff\n      and\n      0xffffffffffffffffffffffffffffffffffffffff\n      and\n      dup2\n      mstore\n      0x20\n      add\n      swap1\n      dup2\n      mstore\n      0x20\n      add\n      0x00\n      keccak256\n        /* \"smart_contracts/contracts/Token.sol\":5562:5588  allowed[_from][msg.sender] */\n      0x00\n        /* \"smart_contracts/contracts/Token.sol\":5577:5587  msg.sender */\n      caller\n        /* \"smart_contracts/contracts/Token.sol\":5562:5588  allowed[_from][msg.sender] */\n      0xffffffffffffffffffffffffffffffffffffffff\n      and\n      0xffffffffffffffffffffffffffffffffffffffff\n      and\n      dup2\n      mstore\n      0x20\n      add\n      swap1\n      dup2\n      mstore\n      0x20\n      add\n      0x00\n      keccak256\n      0x00\n        /* \"smart_contracts/contracts/Token.sol\":5562:5598  allowed[_from][msg.sender] -= _value */\n      dup3\n      dup3\n      sload\n      tag_126\n      swap2\n      swap1\n      tag_127\n      jump\t// in\n    tag_126:\n      swap3\n      pop\n      pop\n      dup2\n      swap1\n      sstore\n      pop\n        /* \"smart_contracts/contracts/Token.sol\":5608:5626  uint256 _bpFeeBurn */\n      0x00\n        /* \"smart_contracts/contracts/Token.sol\":5629:5637  settings */\n      0x14\n        /* \"smart_contracts/contracts/Token.sol\":5629:5652  settings.bpTransferBurn */\n      0x11\n      add\n      sload\n        /* \"smart_contracts/contracts/Token.sol\":5608:5652  uint256 _bpFeeBurn = settings.bpTransferBurn */\n      swap1\n      pop\n        /* \"smart_contracts/contracts/Token.sol\":5662:5680  uint256 _bpFeeBank */\n      0x00\n        /* \"smart_contracts/contracts/Token.sol\":5683:5691  settings */\n      0x14\n        /* \"smart_contracts/contracts/Token.sol\":5683:5706  settings.bpTransferBank */\n      0x12\n      add\n      sload\n        /* \"smart_contracts/contracts/Token.sol\":5662:5706  uint256 _bpFeeBank = settings.bpTransferBank */\n      swap1\n      pop\n        /* \"smart_contracts/contracts/Token.sol\":5717:5730  bool _success */\n      0x00\n        /* \"smart_contracts/contracts/Token.sol\":5732:5749  uint256 _newValue */\n      dup1\n        /* \"smart_contracts/contracts/Token.sol\":5753:5876  transfer_(... */\n      tag_128\n        /* \"smart_contracts/contracts/Token.sol\":5776:5781  _from */\n      dup10\n        /* \"smart_contracts/contracts/Token.sol\":5795:5798  _to */\n      dup10\n        /* \"smart_contracts/contracts/Token.sol\":5812:5818  _value */\n      dup10\n        /* \"smart_contracts/contracts/Token.sol\":5832:5842  _bpFeeBurn */\n      dup8\n        /* \"smart_contracts/contracts/Token.sol\":5856:5866  _bpFeeBank */\n      dup8\n        /* \"smart_contracts/contracts/Token.sol\":5753:5762  transfer_ */\n      tag_129\n        /* \"smart_contracts/contracts/Token.sol\":5753:5876  transfer_(... */\n      jump\t// in\n    tag_128:\n        /* \"smart_contracts/contracts/Token.sol\":5716:5876  (bool _success, uint256 _newValue) = transfer_(... */\n      swap2\n      pop\n      swap2\n      pop\n        /* \"smart_contracts/contracts/Token.sol\":5893:5901  _success */\n      dup2\n        /* \"smart_contracts/contracts/Token.sol\":5886:5901  return _success */\n      swap6\n      pop\n      pop\n      pop\n      pop\n      pop\n      pop\n        /* \"smart_contracts/contracts/Token.sol\":5297:5908  function transferFrom(address _from, address _to, uint256 _value) external returns (bool) {... */\n      swap4\n      swap3\n      pop\n      pop\n      pop\n      jump\t// out\n        /* \"smart_contracts/contracts/Token.sol\":6511:7158  function unstake(uint256 _value) external returns (bool) {... */\n    tag_54:\n        /* \"smart_contracts/contracts/Token.sol\":6562:6566  bool */\n      0x00\n        /* \"smart_contracts/contracts/Token.sol\":6578:6591  address _from */\n      dup1\n        /* \"smart_contracts/contracts/Token.sol\":6594:6598  meta */\n      0x28\n        /* \"smart_contracts/contracts/Token.sol\":6594:6604  meta.vault */\n      0x0b\n      add\n      0x00\n      swap1\n      sload\n      swap1\n      0x0100\n      exp\n      swap1\n      div\n      0xffffffffffffffffffffffffffffffffffffffff\n      and\n        /* \"smart_contracts/contracts/Token.sol\":6578:6604  address _from = meta.vault */\n      swap1\n      pop\n        /* \"smart_contracts/contracts/Token.sol\":6614:6625  address _to */\n      0x00\n        /* \"smart_contracts/contracts/Token.sol\":6628:6638  msg.sender */\n      caller\n        /* \"smart_contracts/contracts/Token.sol\":6614:6638  address _to = msg.sender */\n      swap1\n      pop\n        /* \"smart_contracts/contracts/Token.sol\":6648:6666  uint256 _bpFeeBurn */\n      0x00\n        /* \"smart_contracts/contracts/Token.sol\":6669:6677  settings */\n      0x14\n        /* \"smart_contracts/contracts/Token.sol\":6669:6692  settings.bpTransferBurn */\n      0x11\n      add\n      sload\n        /* \"smart_contracts/contracts/Token.sol\":6648:6692  uint256 _bpFeeBurn = settings.bpTransferBurn */\n      swap1\n      pop\n        /* \"smart_contracts/contracts/Token.sol\":6702:6720  uint256 _bpFeeBank */\n      0x00\n        /* \"smart_contracts/contracts/Token.sol\":6723:6731  settings */\n      0x14\n        /* \"smart_contracts/contracts/Token.sol\":6723:6746  settings.bpTransferBank */\n      0x12\n      add\n      sload\n        /* \"smart_contracts/contracts/Token.sol\":6702:6746  uint256 _bpFeeBank = settings.bpTransferBank */\n      swap1\n      pop\n        /* \"smart_contracts/contracts/Token.sol\":6787:6793  staked */\n      0x36\n        /* \"smart_contracts/contracts/Token.sol\":6787:6798  staked[_to] */\n      0x00\n        /* \"smart_contracts/contracts/Token.sol\":6794:6797  _to */\n      dup5\n        /* \"smart_contracts/contracts/Token.sol\":6787:6798  staked[_to] */\n      0xffffffffffffffffffffffffffffffffffffffff\n      and\n      0xffffffffffffffffffffffffffffffffffffffff\n      and\n      dup2\n      mstore\n      0x20\n      add\n      swap1\n      dup2\n      mstore\n      0x20\n      add\n      0x00\n      keccak256\n      sload\n        /* \"smart_contracts/contracts/Token.sol\":6777:6783  _value */\n      dup7\n        /* \"smart_contracts/contracts/Token.sol\":6777:6798  _value <= staked[_to] */\n      gt\n      iszero\n        /* \"smart_contracts/contracts/Token.sol\":6756:6808  require(... */\n      tag_131\n      jumpi\n      0x00\n      dup1\n      revert\n    tag_131:\n        /* \"smart_contracts/contracts/Token.sol\":6819:6832  bool _success */\n      0x00\n        /* \"smart_contracts/contracts/Token.sol\":6834:6851  uint256 _newValue */\n      dup1\n        /* \"smart_contracts/contracts/Token.sol\":6855:6982  transfer_(... */\n      tag_132\n        /* \"smart_contracts/contracts/Token.sol\":6878:6883  _from */\n      dup7\n        /* \"smart_contracts/contracts/Token.sol\":6898:6901  _to */\n      dup7\n        /* \"smart_contracts/contracts/Token.sol\":6916:6922  _value */\n      dup11\n        /* \"smart_contracts/contracts/Token.sol\":6937:6947  _bpFeeBurn */\n      dup8\n        /* \"smart_contracts/contracts/Token.sol\":6962:6972  _bpFeeBank */\n      dup8\n        /* \"smart_contracts/contracts/Token.sol\":6855:6864  transfer_ */\n      tag_129\n        /* \"smart_contracts/contracts/Token.sol\":6855:6982  transfer_(... */\n      jump\t// in\n    tag_132:\n        /* \"smart_contracts/contracts/Token.sol\":6818:6982  (bool _success, uint256 _newValue) = transfer_(... */\n      swap2\n      pop\n      swap2\n      pop\n        /* \"smart_contracts/contracts/Token.sol\":7012:7018  _value */\n      dup8\n        /* \"smart_contracts/contracts/Token.sol\":6992:6998  staked */\n      0x36\n        /* \"smart_contracts/contracts/Token.sol\":6992:7003  staked[_to] */\n      0x00\n        /* \"smart_contracts/contracts/Token.sol\":6999:7002  _to */\n      dup8\n        /* \"smart_contracts/contracts/Token.sol\":6992:7003  staked[_to] */\n      0xffffffffffffffffffffffffffffffffffffffff\n      and\n      0xffffffffffffffffffffffffffffffffffffffff\n      and\n      dup2\n      mstore\n      0x20\n      add\n      swap1\n      dup2\n      mstore\n      0x20\n      add\n      0x00\n      keccak256\n      0x00\n        /* \"smart_contracts/contracts/Token.sol\":6992:7018  staked[_to]      -= _value */\n      dup3\n      dup3\n      sload\n      tag_133\n      swap2\n      swap1\n      tag_127\n      jump\t// in\n    tag_133:\n      swap3\n      pop\n      pop\n      dup2\n      swap1\n      sstore\n      pop\n        /* \"smart_contracts/contracts/Token.sol\":7048:7054  _value */\n      dup8\n        /* \"smart_contracts/contracts/Token.sol\":7028:7033  votes */\n      0x37\n        /* \"smart_contracts/contracts/Token.sol\":7028:7038  votes[_to] */\n      0x00\n        /* \"smart_contracts/contracts/Token.sol\":7034:7037  _to */\n      dup8\n        /* \"smart_contracts/contracts/Token.sol\":7028:7038  votes[_to] */\n      0xffffffffffffffffffffffffffffffffffffffff\n      and\n      0xffffffffffffffffffffffffffffffffffffffff\n      and\n      dup2\n      mstore\n      0x20\n      add\n      swap1\n      dup2\n      mstore\n      0x20\n      add\n      0x00\n      keccak256\n      0x00\n        /* \"smart_contracts/contracts/Token.sol\":7028:7054  votes[_to]       -= _value */\n      dup3\n      dup3\n      sload\n      tag_134\n      swap2\n      swap1\n      tag_127\n      jump\t// in\n    tag_134:\n      swap3\n      pop\n      pop\n      dup2\n      swap1\n      sstore\n      pop\n        /* \"smart_contracts/contracts/Token.sol\":7084:7090  _value */\n      dup8\n        /* \"smart_contracts/contracts/Token.sol\":7064:7068  meta */\n      0x28\n        /* \"smart_contracts/contracts/Token.sol\":7064:7080  meta.totalStaked */\n      0x05\n      add\n      0x00\n        /* \"smart_contracts/contracts/Token.sol\":7064:7090  meta.totalStaked -= _value */\n      dup3\n      dup3\n      sload\n      tag_135\n      swap2\n      swap1\n      tag_127\n      jump\t// in\n    tag_135:\n      swap3\n      pop\n      pop\n      dup2\n      swap1\n      sstore\n      pop\n        /* \"smart_contracts/contracts/Token.sol\":7120:7126  _value */\n      dup8\n        /* \"smart_contracts/contracts/Token.sol\":7100:7104  meta */\n      0x28\n        /* \"smart_contracts/contracts/Token.sol\":7100:7115  meta.totalVotes */\n      0x07\n      add\n      0x00\n        /* \"smart_contracts/contracts/Token.sol\":7100:7126  meta.totalVotes  -= _value */\n      dup3\n      dup3\n      sload\n      tag_136\n      swap2\n      swap1\n      tag_127\n      jump\t// in\n    tag_136:\n      swap3\n      pop\n      pop\n      dup2\n      swap1\n      sstore\n      pop\n        /* \"smart_contracts/contracts/Token.sol\":7143:7151  _success */\n      dup2\n        /* \"smart_contracts/contracts/Token.sol\":7136:7151  return _success */\n      swap7\n      pop\n      pop\n      pop\n      pop\n      pop\n      pop\n      pop\n        /* \"smart_contracts/contracts/Token.sol\":6511:7158  function unstake(uint256 _value) external returns (bool) {... */\n      swap2\n      swap1\n      pop\n      jump\t// out\n        /* \"smart_contracts/contracts/Token.sol\":8908:8995  function decimals() external view returns (uint8) {... */\n    tag_57:\n        /* \"smart_contracts/contracts/Token.sol\":8951:8956  uint8 */\n      0x00\n        /* \"smart_contracts/contracts/Token.sol\":8975:8979  meta */\n      0x28\n        /* \"smart_contracts/contracts/Token.sol\":8975:8988  meta.decimals */\n      0x02\n      add\n      0x00\n      swap1\n      sload\n      swap1\n      0x0100\n      exp\n      swap1\n      div\n      0xff\n      and\n        /* \"smart_contracts/contracts/Token.sol\":8968:8988  return meta.decimals */\n      swap1\n      pop\n        /* \"smart_contracts/contracts/Token.sol\":8908:8995  function decimals() external view returns (uint8) {... */\n      swap1\n      jump\t// out\n        /* \"smart_contracts/contracts/Token.sol\":9511:9614  function stakeOf(address _owner) external view returns (uint256) {... */\n    tag_63:\n        /* \"smart_contracts/contracts/Token.sol\":9567:9574  uint256 */\n      0x00\n        /* \"smart_contracts/contracts/Token.sol\":9593:9599  staked */\n      0x36\n        /* \"smart_contracts/contracts/Token.sol\":9593:9607  staked[_owner] */\n      0x00\n        /* \"smart_contracts/contracts/Token.sol\":9600:9606  _owner */\n      dup4\n        /* \"smart_contracts/contracts/Token.sol\":9593:9607  staked[_owner] */\n      0xffffffffffffffffffffffffffffffffffffffff\n      and\n      0xffffffffffffffffffffffffffffffffffffffff\n      and\n      dup2\n      mstore\n      0x20\n      add\n      swap1\n      dup2\n      mstore\n      0x20\n      add\n      0x00\n      keccak256\n      sload\n        /* \"smart_contracts/contracts/Token.sol\":9586:9607  return staked[_owner] */\n      swap1\n      pop\n        /* \"smart_contracts/contracts/Token.sol\":9511:9614  function stakeOf(address _owner) external view returns (uint256) {... */\n      swap2\n      swap1\n      pop\n      jump\t// out\n        /* \"smart_contracts/contracts/Token.sol\":9399:9505  function balanceOf(address _owner) external view returns (uint256) {... */\n    tag_67:\n        /* \"smart_contracts/contracts/Token.sol\":9457:9464  uint256 */\n      0x00\n        /* \"smart_contracts/contracts/Token.sol\":9483:9490  balance */\n      0x35\n        /* \"smart_contracts/contracts/Token.sol\":9483:9498  balance[_owner] */\n      0x00\n        /* \"smart_contracts/contracts/Token.sol\":9491:9497  _owner */\n      dup4\n        /* \"smart_contracts/contracts/Token.sol\":9483:9498  balance[_owner] */\n      0xffffffffffffffffffffffffffffffffffffffff\n      and\n      0xffffffffffffffffffffffffffffffffffffffff\n      and\n      dup2\n      mstore\n      0x20\n      add\n      swap1\n      dup2\n      mstore\n      0x20\n      add\n      0x00\n      keccak256\n      sload\n        /* \"smart_contracts/contracts/Token.sol\":9476:9498  return balance[_owner] */\n      swap1\n      pop\n        /* \"smart_contracts/contracts/Token.sol\":9399:9505  function balanceOf(address _owner) external view returns (uint256) {... */\n      swap2\n      swap1\n      pop\n      jump\t// out\n        /* \"smart_contracts/contracts/Token.sol\":9620:9722  function votesOf(address _owner) external view returns (uint256) {... */\n    tag_71:\n        /* \"smart_contracts/contracts/Token.sol\":9676:9683  uint256 */\n      0x00\n        /* \"smart_contracts/contracts/Token.sol\":9702:9707  votes */\n      0x37\n        /* \"smart_contracts/contracts/Token.sol\":9702:9715  votes[_owner] */\n      0x00\n        /* \"smart_contracts/contracts/Token.sol\":9708:9714  _owner */\n      dup4\n        /* \"smart_contracts/contracts/Token.sol\":9702:9715  votes[_owner] */\n      0xffffffffffffffffffffffffffffffffffffffff\n      and\n      0xffffffffffffffffffffffffffffffffffffffff\n      and\n      dup2\n      mstore\n      0x20\n      add\n      swap1\n      dup2\n      mstore\n      0x20\n      add\n      0x00\n      keccak256\n      sload\n        /* \"smart_contracts/contracts/Token.sol\":9695:9715  return votes[_owner] */\n      swap1\n      pop\n        /* \"smart_contracts/contracts/Token.sol\":9620:9722  function votesOf(address _owner) external view returns (uint256) {... */\n      swap2\n      swap1\n      pop\n      jump\t// out\n        /* \"smart_contracts/contracts/Token.sol\":9100:9195  function totalStaked() external view returns (uint256) {... */\n    tag_74:\n        /* \"smart_contracts/contracts/Token.sol\":9146:9153  uint256 */\n      0x00\n        /* \"smart_contracts/contracts/Token.sol\":9172:9176  meta */\n      0x28\n        /* \"smart_contracts/contracts/Token.sol\":9172:9188  meta.totalStaked */\n      0x05\n      add\n      sload\n        /* \"smart_contracts/contracts/Token.sol\":9165:9188  return meta.totalStaked */\n      swap1\n      pop\n        /* \"smart_contracts/contracts/Token.sol\":9100:9195  function totalStaked() external view returns (uint256) {... */\n      swap1\n      jump\t// out\n        /* \"smart_contracts/contracts/Token.sol\":8811:8902  function symbol() external view returns (string memory) {... */\n    tag_77:\n        /* \"smart_contracts/contracts/Token.sol\":8852:8865  string memory */\n      0x60\n        /* \"smart_contracts/contracts/Token.sol\":8884:8888  meta */\n      0x28\n        /* \"smart_contracts/contracts/Token.sol\":8884:8895  meta.symbol */\n      0x01\n      add\n        /* \"smart_contracts/contracts/Token.sol\":8877:8895  return meta.symbol */\n      dup1\n      sload\n      tag_143\n      swap1\n      tag_112\n      jump\t// in\n    tag_143:\n      dup1\n      0x1f\n      add\n      0x20\n      dup1\n      swap2\n      div\n      mul\n      0x20\n      add\n      mload(0x40)\n      swap1\n      dup2\n      add\n      0x40\n      mstore\n      dup1\n      swap3\n      swap2\n      swap1\n      dup2\n      dup2\n      mstore\n      0x20\n      add\n      dup3\n      dup1\n      sload\n      tag_144\n      swap1\n      tag_112\n      jump\t// in\n    tag_144:\n      dup1\n      iszero\n      tag_145\n      jumpi\n      dup1\n      0x1f\n      lt\n      tag_146\n      jumpi\n      0x0100\n      dup1\n      dup4\n      sload\n      div\n      mul\n      dup4\n      mstore\n      swap2\n      0x20\n      add\n      swap2\n      jump(tag_145)\n    tag_146:\n      dup3\n      add\n      swap2\n      swap1\n      0x00\n      mstore\n      keccak256(0x00, 0x20)\n      swap1\n    tag_147:\n      dup2\n      sload\n      dup2\n      mstore\n      swap1\n      0x01\n      add\n      swap1\n      0x20\n      add\n      dup1\n      dup4\n      gt\n      tag_147\n      jumpi\n      dup3\n      swap1\n      sub\n      0x1f\n      and\n      dup3\n      add\n      swap2\n    tag_145:\n      pop\n      pop\n      pop\n      pop\n      pop\n      swap1\n      pop\n        /* \"smart_contracts/contracts/Token.sol\":8811:8902  function symbol() external view returns (string memory) {... */\n      swap1\n      jump\t// out\n        /* \"smart_contracts/contracts/Token.sol\":5914:6505  function stake(uint256 _value) external returns (bool) {... */\n    tag_81:\n        /* \"smart_contracts/contracts/Token.sol\":5963:5967  bool */\n      0x00\n        /* \"smart_contracts/contracts/Token.sol\":5979:5992  address _from */\n      dup1\n        /* \"smart_contracts/contracts/Token.sol\":5995:6005  msg.sender */\n      caller\n        /* \"smart_contracts/contracts/Token.sol\":5979:6005  address _from = msg.sender */\n      swap1\n      pop\n        /* \"smart_contracts/contracts/Token.sol\":6015:6026  address _to */\n      0x00\n        /* \"smart_contracts/contracts/Token.sol\":6029:6033  meta */\n      0x28\n        /* \"smart_contracts/contracts/Token.sol\":6029:6039  meta.vault */\n      0x0b\n      add\n      0x00\n      swap1\n      sload\n      swap1\n      0x0100\n      exp\n      swap1\n      div\n      0xffffffffffffffffffffffffffffffffffffffff\n      and\n        /* \"smart_contracts/contracts/Token.sol\":6015:6039  address _to = meta.vault */\n      swap1\n      pop\n        /* \"smart_contracts/contracts/Token.sol\":6049:6067  uint256 _bpFeeBurn */\n      0x00\n        /* \"smart_contracts/contracts/Token.sol\":6070:6078  settings */\n      0x14\n        /* \"smart_contracts/contracts/Token.sol\":6070:6093  settings.bpTransferBurn */\n      0x11\n      add\n      sload\n        /* \"smart_contracts/contracts/Token.sol\":6049:6093  uint256 _bpFeeBurn = settings.bpTransferBurn */\n      swap1\n      pop\n        /* \"smart_contracts/contracts/Token.sol\":6103:6121  uint256 _bpFeeBank */\n      0x00\n        /* \"smart_contracts/contracts/Token.sol\":6124:6132  settings */\n      0x14\n        /* \"smart_contracts/contracts/Token.sol\":6124:6147  settings.bpTransferBank */\n      0x12\n      add\n      sload\n        /* \"smart_contracts/contracts/Token.sol\":6103:6147  uint256 _bpFeeBank = settings.bpTransferBank */\n      swap1\n      pop\n        /* \"smart_contracts/contracts/Token.sol\":6158:6171  bool _success */\n      0x00\n        /* \"smart_contracts/contracts/Token.sol\":6173:6190  uint256 _newValue */\n      dup1\n        /* \"smart_contracts/contracts/Token.sol\":6194:6317  transfer_(... */\n      tag_149\n        /* \"smart_contracts/contracts/Token.sol\":6217:6222  _from */\n      dup7\n        /* \"smart_contracts/contracts/Token.sol\":6236:6239  _to */\n      dup7\n        /* \"smart_contracts/contracts/Token.sol\":6253:6259  _value */\n      dup11\n        /* \"smart_contracts/contracts/Token.sol\":6273:6283  _bpFeeBurn */\n      dup8\n        /* \"smart_contracts/contracts/Token.sol\":6297:6307  _bpFeeBank */\n      dup8\n        /* \"smart_contracts/contracts/Token.sol\":6194:6203  transfer_ */\n      tag_129\n        /* \"smart_contracts/contracts/Token.sol\":6194:6317  transfer_(... */\n      jump\t// in\n    tag_149:\n        /* \"smart_contracts/contracts/Token.sol\":6157:6317  (bool _success, uint256 _newValue) = transfer_(... */\n      swap2\n      pop\n      swap2\n      pop\n        /* \"smart_contracts/contracts/Token.sol\":6347:6356  _newValue */\n      dup1\n        /* \"smart_contracts/contracts/Token.sol\":6327:6333  staked */\n      0x36\n        /* \"smart_contracts/contracts/Token.sol\":6327:6340  staked[_from] */\n      0x00\n        /* \"smart_contracts/contracts/Token.sol\":6334:6339  _from */\n      dup9\n        /* \"smart_contracts/contracts/Token.sol\":6327:6340  staked[_from] */\n      0xffffffffffffffffffffffffffffffffffffffff\n      and\n      0xffffffffffffffffffffffffffffffffffffffff\n      and\n      dup2\n      mstore\n      0x20\n      add\n      swap1\n      dup2\n      mstore\n      0x20\n      add\n      0x00\n      keccak256\n      0x00\n        /* \"smart_contracts/contracts/Token.sol\":6327:6356  staked[_from]    += _newValue */\n      dup3\n      dup3\n      sload\n      tag_150\n      swap2\n      swap1\n      tag_151\n      jump\t// in\n    tag_150:\n      swap3\n      pop\n      pop\n      dup2\n      swap1\n      sstore\n      pop\n        /* \"smart_contracts/contracts/Token.sol\":6386:6395  _newValue */\n      dup1\n        /* \"smart_contracts/contracts/Token.sol\":6366:6371  votes */\n      0x37\n        /* \"smart_contracts/contracts/Token.sol\":6366:6378  votes[_from] */\n      0x00\n        /* \"smart_contracts/contracts/Token.sol\":6372:6377  _from */\n      dup9\n        /* \"smart_contracts/contracts/Token.sol\":6366:6378  votes[_from] */\n      0xffffffffffffffffffffffffffffffffffffffff\n      and\n      0xffffffffffffffffffffffffffffffffffffffff\n      and\n      dup2\n      mstore\n      0x20\n      add\n      swap1\n      dup2\n      mstore\n      0x20\n      add\n      0x00\n      keccak256\n      0x00\n        /* \"smart_contracts/contracts/Token.sol\":6366:6395  votes[_from]     += _newValue */\n      dup3\n      dup3\n      sload\n      tag_152\n      swap2\n      swap1\n      tag_151\n      jump\t// in\n    tag_152:\n      swap3\n      pop\n      pop\n      dup2\n      swap1\n      sstore\n      pop\n        /* \"smart_contracts/contracts/Token.sol\":6425:6434  _newValue */\n      dup1\n        /* \"smart_contracts/contracts/Token.sol\":6405:6409  meta */\n      0x28\n        /* \"smart_contracts/contracts/Token.sol\":6405:6421  meta.totalStaked */\n      0x05\n      add\n      0x00\n        /* \"smart_contracts/contracts/Token.sol\":6405:6434  meta.totalStaked += _newValue */\n      dup3\n      dup3\n      sload\n      tag_153\n      swap2\n      swap1\n      tag_151\n      jump\t// in\n    tag_153:\n      swap3\n      pop\n      pop\n      dup2\n      swap1\n      sstore\n      pop\n        /* \"smart_contracts/contracts/Token.sol\":6464:6473  _newValue */\n      dup1\n        /* \"smart_contracts/contracts/Token.sol\":6444:6448  meta */\n      0x28\n        /* \"smart_contracts/contracts/Token.sol\":6444:6459  meta.totalVotes */\n      0x07\n      add\n      0x00\n        /* \"smart_contracts/contracts/Token.sol\":6444:6473  meta.totalVotes  += _newValue */\n      dup3\n      dup3\n      sload\n      tag_154\n      swap2\n      swap1\n      tag_151\n      jump\t// in\n    tag_154:\n      swap3\n      pop\n      pop\n      dup2\n      swap1\n      sstore\n      pop\n        /* \"smart_contracts/contracts/Token.sol\":6490:6498  _success */\n      dup2\n        /* \"smart_contracts/contracts/Token.sol\":6483:6498  return _success */\n      swap7\n      pop\n      pop\n      pop\n      pop\n      pop\n      pop\n      pop\n        /* \"smart_contracts/contracts/Token.sol\":5914:6505  function stake(uint256 _value) external returns (bool) {... */\n      swap2\n      swap1\n      pop\n      jump\t// out\n        /* \"smart_contracts/contracts/Token.sol\":4879:5291  function transfer(address _to, uint256 _value) external returns (bool) {... */\n    tag_85:\n        /* \"smart_contracts/contracts/Token.sol\":4944:4948  bool */\n      0x00\n        /* \"smart_contracts/contracts/Token.sol\":4960:4973  address _from */\n      dup1\n        /* \"smart_contracts/contracts/Token.sol\":4976:4986  msg.sender */\n      caller\n        /* \"smart_contracts/contracts/Token.sol\":4960:4986  address _from = msg.sender */\n      swap1\n      pop\n        /* \"smart_contracts/contracts/Token.sol\":4996:5014  uint256 _bpFeeBurn */\n      0x00\n        /* \"smart_contracts/contracts/Token.sol\":5017:5025  settings */\n      0x14\n        /* \"smart_contracts/contracts/Token.sol\":5017:5040  settings.bpTransferBurn */\n      0x11\n      add\n      sload\n        /* \"smart_contracts/contracts/Token.sol\":4996:5040  uint256 _bpFeeBurn = settings.bpTransferBurn */\n      swap1\n      pop\n        /* \"smart_contracts/contracts/Token.sol\":5050:5068  uint256 _bpFeeBank */\n      0x00\n        /* \"smart_contracts/contracts/Token.sol\":5071:5079  settings */\n      0x14\n        /* \"smart_contracts/contracts/Token.sol\":5071:5094  settings.bpTransferBank */\n      0x12\n      add\n      sload\n        /* \"smart_contracts/contracts/Token.sol\":5050:5094  uint256 _bpFeeBank = settings.bpTransferBank */\n      swap1\n      pop\n        /* \"smart_contracts/contracts/Token.sol\":5105:5118  bool _success */\n      0x00\n        /* \"smart_contracts/contracts/Token.sol\":5120:5137  uint256 _newValue */\n      dup1\n        /* \"smart_contracts/contracts/Token.sol\":5141:5259  transfer_(... */\n      tag_156\n        /* \"smart_contracts/contracts/Token.sol\":5164:5169  _from */\n      dup6\n        /* \"smart_contracts/contracts/Token.sol\":5184:5187  _to */\n      dup10\n        /* \"smart_contracts/contracts/Token.sol\":5202:5208  _value */\n      dup10\n        /* \"smart_contracts/contracts/Token.sol\":5223:5233  _bpFeeBurn */\n      dup8\n        /* \"smart_contracts/contracts/Token.sol\":5248:5258  _bpFeeBank */\n      dup8\n        /* \"smart_contracts/contracts/Token.sol\":5141:5150  transfer_ */\n      tag_129\n        /* \"smart_contracts/contracts/Token.sol\":5141:5259  transfer_(... */\n      jump\t// in\n    tag_156:\n        /* \"smart_contracts/contracts/Token.sol\":5104:5259  (bool _success, uint256 _newValue) = transfer_(... */\n      swap2\n      pop\n      swap2\n      pop\n        /* \"smart_contracts/contracts/Token.sol\":5276:5284  _success */\n      dup2\n        /* \"smart_contracts/contracts/Token.sol\":5269:5284  return _success */\n      swap6\n      pop\n      pop\n      pop\n      pop\n      pop\n      pop\n        /* \"smart_contracts/contracts/Token.sol\":4879:5291  function transfer(address _to, uint256 _value) external returns (bool) {... */\n      swap3\n      swap2\n      pop\n      pop\n      jump\t// out\n        /* \"smart_contracts/contracts/Token.sol\":9302:9393  function maxSupply() external view returns (uint256) {... */\n    tag_88:\n        /* \"smart_contracts/contracts/Token.sol\":9346:9353  uint256 */\n      0x00\n        /* \"smart_contracts/contracts/Token.sol\":9372:9376  meta */\n      0x28\n        /* \"smart_contracts/contracts/Token.sol\":9372:9386  meta.maxSupply */\n      0x09\n      add\n      sload\n        /* \"smart_contracts/contracts/Token.sol\":9365:9386  return meta.maxSupply */\n      swap1\n      pop\n        /* \"smart_contracts/contracts/Token.sol\":9302:9393  function maxSupply() external view returns (uint256) {... */\n      swap1\n      jump\t// out\n        /* \"smart_contracts/contracts/Token.sol\":9728:9872  function allowance(address _owner, address _spender) external view returns (uint256 remaining) {... */\n    tag_93:\n        /* \"smart_contracts/contracts/Token.sol\":9804:9821  uint256 remaining */\n      0x00\n        /* \"smart_contracts/contracts/Token.sol\":9840:9847  allowed */\n      0x38\n        /* \"smart_contracts/contracts/Token.sol\":9840:9855  allowed[_owner] */\n      0x00\n        /* \"smart_contracts/contracts/Token.sol\":9848:9854  _owner */\n      dup5\n        /* \"smart_contracts/contracts/Token.sol\":9840:9855  allowed[_owner] */\n      0xffffffffffffffffffffffffffffffffffffffff\n      and\n      0xffffffffffffffffffffffffffffffffffffffff\n      and\n      dup2\n      mstore\n      0x20\n      add\n      swap1\n      dup2\n      mstore\n      0x20\n      add\n      0x00\n      keccak256\n        /* \"smart_contracts/contracts/Token.sol\":9840:9865  allowed[_owner][_spender] */\n      0x00\n        /* \"smart_contracts/contracts/Token.sol\":9856:9864  _spender */\n      dup4\n        /* \"smart_contracts/contracts/Token.sol\":9840:9865  allowed[_owner][_spender] */\n      0xffffffffffffffffffffffffffffffffffffffff\n      and\n      0xffffffffffffffffffffffffffffffffffffffff\n      and\n      dup2\n      mstore\n      0x20\n      add\n      swap1\n      dup2\n      mstore\n      0x20\n      add\n      0x00\n      keccak256\n      sload\n        /* \"smart_contracts/contracts/Token.sol\":9833:9865  return allowed[_owner][_spender] */\n      swap1\n      pop\n        /* \"smart_contracts/contracts/Token.sol\":9728:9872  function allowance(address _owner, address _spender) external view returns (uint256 remaining) {... */\n      swap3\n      swap2\n      pop\n      pop\n      jump\t// out\n        /* \"smart_contracts/contracts/Token.sol\":7164:7853  function release(string memory _caption) external returns (bool) {... */\n    tag_98:\n        /* \"smart_contracts/contracts/Token.sol\":7223:7227  bool */\n      0x00\n        /* \"smart_contracts/contracts/Token.sol\":7239:7252  address _from */\n      dup1\n        /* \"smart_contracts/contracts/Token.sol\":7255:7259  meta */\n      0x28\n        /* \"smart_contracts/contracts/Token.sol\":7255:7265  meta.vault */\n      0x0b\n      add\n      0x00\n      swap1\n      sload\n      swap1\n      0x0100\n      exp\n      swap1\n      div\n      0xffffffffffffffffffffffffffffffffffffffff\n      and\n        /* \"smart_contracts/contracts/Token.sol\":7239:7265  address _from = meta.vault */\n      swap1\n      pop\n        /* \"smart_contracts/contracts/Token.sol\":7275:7286  address _to */\n      0x00\n        /* \"smart_contracts/contracts/Token.sol\":7289:7299  msg.sender */\n      caller\n        /* \"smart_contracts/contracts/Token.sol\":7275:7299  address _to = msg.sender */\n      swap1\n      pop\n        /* \"smart_contracts/contracts/Token.sol\":7309:7321  uint256 _end */\n      0x00\n        /* \"smart_contracts/contracts/Token.sol\":7324:7333  schedules */\n      0x34\n        /* \"smart_contracts/contracts/Token.sol\":7324:7338  schedules[_to] */\n      0x00\n        /* \"smart_contracts/contracts/Token.sol\":7334:7337  _to */\n      dup4\n        /* \"smart_contracts/contracts/Token.sol\":7324:7338  schedules[_to] */\n      0xffffffffffffffffffffffffffffffffffffffff\n      and\n      0xffffffffffffffffffffffffffffffffffffffff\n      and\n      dup2\n      mstore\n      0x20\n      add\n      swap1\n      dup2\n      mstore\n      0x20\n      add\n      0x00\n      keccak256\n        /* \"smart_contracts/contracts/Token.sol\":7339:7347  _caption */\n      dup6\n        /* \"smart_contracts/contracts/Token.sol\":7324:7348  schedules[_to][_caption] */\n      mload(0x40)\n      tag_160\n      swap2\n      swap1\n      tag_161\n      jump\t// in\n    tag_160:\n      swap1\n      dup2\n      mstore\n      0x20\n      add\n      mload(0x40)\n      dup1\n      swap2\n      sub\n      swap1\n      keccak256\n        /* \"smart_contracts/contracts/Token.sol\":7324:7352  schedules[_to][_caption].end */\n      0x03\n      add\n      sload\n        /* \"smart_contracts/contracts/Token.sol\":7309:7352  uint256 _end = schedules[_to][_caption].end */\n      swap1\n      pop\n        /* \"smart_contracts/contracts/Token.sol\":7362:7376  uint256 _value */\n      0x00\n        /* \"smart_contracts/contracts/Token.sol\":7379:7388  schedules */\n      0x34\n        /* \"smart_contracts/contracts/Token.sol\":7379:7393  schedules[_to] */\n      0x00\n        /* \"smart_contracts/contracts/Token.sol\":7389:7392  _to */\n      dup5\n        /* \"smart_contracts/contracts/Token.sol\":7379:7393  schedules[_to] */\n      0xffffffffffffffffffffffffffffffffffffffff\n      and\n      0xffffffffffffffffffffffffffffffffffffffff\n      and\n      dup2\n      mstore\n      0x20\n      add\n      swap1\n      dup2\n      mstore\n      0x20\n      add\n      0x00\n      keccak256\n        /* \"smart_contracts/contracts/Token.sol\":7394:7402  _caption */\n      dup7\n        /* \"smart_contracts/contracts/Token.sol\":7379:7403  schedules[_to][_caption] */\n      mload(0x40)\n      tag_162\n      swap2\n      swap1\n      tag_161\n      jump\t// in\n    tag_162:\n      swap1\n      dup2\n      mstore\n      0x20\n      add\n      mload(0x40)\n      dup1\n      swap2\n      sub\n      swap1\n      keccak256\n        /* \"smart_contracts/contracts/Token.sol\":7379:7409  schedules[_to][_caption].value */\n      0x04\n      add\n      sload\n        /* \"smart_contracts/contracts/Token.sol\":7362:7409  uint256 _value = schedules[_to][_caption].value */\n      swap1\n      pop\n        /* \"smart_contracts/contracts/Token.sol\":7448:7463  block.timestamp */\n      timestamp\n        /* \"smart_contracts/contracts/Token.sol\":7440:7444  _end */\n      dup3\n        /* \"smart_contracts/contracts/Token.sol\":7440:7463  _end >= block.timestamp */\n      lt\n      iszero\n        /* \"smart_contracts/contracts/Token.sol\":7440:7489  _end >= block.timestamp &&... */\n      dup1\n      iszero\n      tag_163\n      jumpi\n      pop\n        /* \"smart_contracts/contracts/Token.sol\":7488:7489  0 */\n      0x00\n        /* \"smart_contracts/contracts/Token.sol\":7479:7485  _value */\n      dup2\n        /* \"smart_contracts/contracts/Token.sol\":7479:7489  _value > 0 */\n      gt\n        /* \"smart_contracts/contracts/Token.sol\":7440:7489  _end >= block.timestamp &&... */\n    tag_163:\n        /* \"smart_contracts/contracts/Token.sol\":7419:7499  require(... */\n      tag_164\n      jumpi\n      0x00\n      dup1\n      revert\n    tag_164:\n        /* \"smart_contracts/contracts/Token.sol\":7509:7527  uint256 _bpFeeBurn */\n      0x00\n        /* \"smart_contracts/contracts/Token.sol\":7530:7538  settings */\n      0x14\n        /* \"smart_contracts/contracts/Token.sol\":7530:7553  settings.bpTransferBurn */\n      0x11\n      add\n      sload\n        /* \"smart_contracts/contracts/Token.sol\":7509:7553  uint256 _bpFeeBurn = settings.bpTransferBurn */\n      swap1\n      pop\n        /* \"smart_contracts/contracts/Token.sol\":7563:7581  uint256 _bpFeeBank */\n      0x00\n        /* \"smart_contracts/contracts/Token.sol\":7584:7592  settings */\n      0x14\n        /* \"smart_contracts/contracts/Token.sol\":7584:7607  settings.bpTransferBank */\n      0x12\n      add\n      sload\n        /* \"smart_contracts/contracts/Token.sol\":7563:7607  uint256 _bpFeeBank = settings.bpTransferBank */\n      swap1\n      pop\n        /* \"smart_contracts/contracts/Token.sol\":7618:7631  bool _success */\n      0x00\n        /* \"smart_contracts/contracts/Token.sol\":7633:7650  uint256 _newValue */\n      dup1\n        /* \"smart_contracts/contracts/Token.sol\":7654:7777  transfer_(... */\n      tag_165\n        /* \"smart_contracts/contracts/Token.sol\":7677:7682  _from */\n      dup9\n        /* \"smart_contracts/contracts/Token.sol\":7696:7699  _to */\n      dup9\n        /* \"smart_contracts/contracts/Token.sol\":7713:7719  _value */\n      dup8\n        /* \"smart_contracts/contracts/Token.sol\":7733:7743  _bpFeeBurn */\n      dup8\n        /* \"smart_contracts/contracts/Token.sol\":7757:7767  _bpFeeBank */\n      dup8\n        /* \"smart_contracts/contracts/Token.sol\":7654:7663  transfer_ */\n      tag_129\n        /* \"smart_contracts/contracts/Token.sol\":7654:7777  transfer_(... */\n      jump\t// in\n    tag_165:\n        /* \"smart_contracts/contracts/Token.sol\":7617:7777  (bool _success, uint256 _newValue) = transfer_(... */\n      swap2\n      pop\n      swap2\n      pop\n        /* \"smart_contracts/contracts/Token.sol\":7820:7821  0 */\n      0x00\n        /* \"smart_contracts/contracts/Token.sol\":7787:7796  schedules */\n      0x34\n        /* \"smart_contracts/contracts/Token.sol\":7787:7801  schedules[_to] */\n      0x00\n        /* \"smart_contracts/contracts/Token.sol\":7797:7800  _to */\n      dup10\n        /* \"smart_contracts/contracts/Token.sol\":7787:7801  schedules[_to] */\n      0xffffffffffffffffffffffffffffffffffffffff\n      and\n      0xffffffffffffffffffffffffffffffffffffffff\n      and\n      dup2\n      mstore\n      0x20\n      add\n      swap1\n      dup2\n      mstore\n      0x20\n      add\n      0x00\n      keccak256\n        /* \"smart_contracts/contracts/Token.sol\":7802:7810  _caption */\n      dup12\n        /* \"smart_contracts/contracts/Token.sol\":7787:7811  schedules[_to][_caption] */\n      mload(0x40)\n      tag_166\n      swap2\n      swap1\n      tag_161\n      jump\t// in\n    tag_166:\n      swap1\n      dup2\n      mstore\n      0x20\n      add\n      mload(0x40)\n      dup1\n      swap2\n      sub\n      swap1\n      keccak256\n        /* \"smart_contracts/contracts/Token.sol\":7787:7817  schedules[_to][_caption].value */\n      0x04\n      add\n        /* \"smart_contracts/contracts/Token.sol\":7787:7821  schedules[_to][_caption].value = 0 */\n      dup2\n      swap1\n      sstore\n      pop\n        /* \"smart_contracts/contracts/Token.sol\":7838:7846  _success */\n      dup2\n        /* \"smart_contracts/contracts/Token.sol\":7831:7846  return _success */\n      swap9\n      pop\n      pop\n      pop\n      pop\n      pop\n      pop\n      pop\n      pop\n      pop\n        /* \"smart_contracts/contracts/Token.sol\":7164:7853  function release(string memory _caption) external returns (bool) {... */\n      swap2\n      swap1\n      pop\n      jump\t// out\n        /* \"smart_contracts/contracts/Token.sol\":2516:3404  function transfer_(address _from, address _to, uint256 _value, uint256 _bpFeeBurn, uint256 _bpFeeBank) internal returns (bool, uint256) {... */\n    tag_129:\n        /* \"smart_contracts/contracts/Token.sol\":2637:2641  bool */\n      0x00\n        /* \"smart_contracts/contracts/Token.sol\":2643:2650  uint256 */\n      dup1\n        /* \"smart_contracts/contracts/Token.sol\":2700:2701  0 */\n      0x00\n        /* \"smart_contracts/contracts/Token.sol\":2683:2702  _from != address(0) */\n      0xffffffffffffffffffffffffffffffffffffffff\n      and\n        /* \"smart_contracts/contracts/Token.sol\":2683:2688  _from */\n      dup8\n        /* \"smart_contracts/contracts/Token.sol\":2683:2702  _from != address(0) */\n      0xffffffffffffffffffffffffffffffffffffffff\n      and\n      eq\n      iszero\n        /* \"smart_contracts/contracts/Token.sol\":2683:2737  _from != address(0) &&... */\n      dup1\n      iszero\n      tag_168\n      jumpi\n      pop\n        /* \"smart_contracts/contracts/Token.sol\":2735:2736  0 */\n      0x00\n        /* \"smart_contracts/contracts/Token.sol\":2718:2737  _to   != address(0) */\n      0xffffffffffffffffffffffffffffffffffffffff\n      and\n        /* \"smart_contracts/contracts/Token.sol\":2718:2721  _to */\n      dup7\n        /* \"smart_contracts/contracts/Token.sol\":2718:2737  _to   != address(0) */\n      0xffffffffffffffffffffffffffffffffffffffff\n      and\n      eq\n      iszero\n        /* \"smart_contracts/contracts/Token.sol\":2683:2737  _from != address(0) &&... */\n    tag_168:\n        /* \"smart_contracts/contracts/Token.sol\":2683:2777  _from != address(0) &&... */\n      dup1\n      iszero\n      tag_169\n      jumpi\n      pop\n        /* \"smart_contracts/contracts/Token.sol\":2771:2777  _value */\n      dup5\n        /* \"smart_contracts/contracts/Token.sol\":2753:2760  balance */\n      0x35\n        /* \"smart_contracts/contracts/Token.sol\":2753:2767  balance[_from] */\n      0x00\n        /* \"smart_contracts/contracts/Token.sol\":2761:2766  _from */\n      dup10\n        /* \"smart_contracts/contracts/Token.sol\":2753:2767  balance[_from] */\n      0xffffffffffffffffffffffffffffffffffffffff\n      and\n      0xffffffffffffffffffffffffffffffffffffffff\n      and\n      dup2\n      mstore\n      0x20\n      add\n      swap1\n      dup2\n      mstore\n      0x20\n      add\n      0x00\n      keccak256\n      sload\n        /* \"smart_contracts/contracts/Token.sol\":2753:2777  balance[_from] >= _value */\n      lt\n      iszero\n        /* \"smart_contracts/contracts/Token.sol\":2683:2777  _from != address(0) &&... */\n    tag_169:\n        /* \"smart_contracts/contracts/Token.sol\":2683:2812  _from != address(0) &&... */\n      dup1\n      iszero\n      tag_170\n      jumpi\n      pop\n        /* \"smart_contracts/contracts/Token.sol\":2811:2812  0 */\n      0x00\n        /* \"smart_contracts/contracts/Token.sol\":2793:2800  balance */\n      0x35\n        /* \"smart_contracts/contracts/Token.sol\":2793:2807  balance[_from] */\n      0x00\n        /* \"smart_contracts/contracts/Token.sol\":2801:2806  _from */\n      dup10\n        /* \"smart_contracts/contracts/Token.sol\":2793:2807  balance[_from] */\n      0xffffffffffffffffffffffffffffffffffffffff\n      and\n      0xffffffffffffffffffffffffffffffffffffffff\n      and\n      dup2\n      mstore\n      0x20\n      add\n      swap1\n      dup2\n      mstore\n      0x20\n      add\n      0x00\n      keccak256\n      sload\n        /* \"smart_contracts/contracts/Token.sol\":2793:2812  balance[_from] >= 0 */\n      lt\n      iszero\n        /* \"smart_contracts/contracts/Token.sol\":2683:2812  _from != address(0) &&... */\n    tag_170:\n        /* \"smart_contracts/contracts/Token.sol\":2683:2839  _from != address(0) &&... */\n      dup1\n      iszero\n      tag_171\n      jumpi\n      pop\n        /* \"smart_contracts/contracts/Token.sol\":2838:2839  0 */\n      0x00\n        /* \"smart_contracts/contracts/Token.sol\":2828:2834  _value */\n      dup6\n        /* \"smart_contracts/contracts/Token.sol\":2828:2839  _value >= 0 */\n      lt\n      iszero\n        /* \"smart_contracts/contracts/Token.sol\":2683:2839  _from != address(0) &&... */\n    tag_171:\n        /* \"smart_contracts/contracts/Token.sol\":2662:2849  require(... */\n      tag_172\n      jumpi\n      0x00\n      dup1\n      revert\n    tag_172:\n        /* \"smart_contracts/contracts/Token.sol\":2877:2883  _value */\n      dup5\n        /* \"smart_contracts/contracts/Token.sol\":2859:2866  balance */\n      0x35\n        /* \"smart_contracts/contracts/Token.sol\":2859:2873  balance[_from] */\n      0x00\n        /* \"smart_contracts/contracts/Token.sol\":2867:2872  _from */\n      dup10\n        /* \"smart_contracts/contracts/Token.sol\":2859:2873  balance[_from] */\n      0xffffffffffffffffffffffffffffffffffffffff\n      and\n      0xffffffffffffffffffffffffffffffffffffffff\n      and\n      dup2\n      mstore\n      0x20\n      add\n      swap1\n      dup2\n      mstore\n      0x20\n      add\n      0x00\n      keccak256\n      0x00\n        /* \"smart_contracts/contracts/Token.sol\":2859:2883  balance[_from] -= _value */\n      dup3\n      dup3\n      sload\n      tag_173\n      swap2\n      swap1\n      tag_127\n      jump\t// in\n    tag_173:\n      swap3\n      pop\n      pop\n      dup2\n      swap1\n      sstore\n      pop\n        /* \"smart_contracts/contracts/Token.sol\":2893:2909  uint256 _feeBurn */\n      0x00\n        /* \"smart_contracts/contracts/Token.sol\":2930:2940  _bpFeeBurn */\n      dup5\n        /* \"smart_contracts/contracts/Token.sol\":2922:2926  1000 */\n      0x03e8\n        /* \"smart_contracts/contracts/Token.sol\":2913:2919  _value */\n      dup8\n        /* \"smart_contracts/contracts/Token.sol\":2913:2926  _value / 1000 */\n      tag_174\n      swap2\n      swap1\n      tag_175\n      jump\t// in\n    tag_174:\n        /* \"smart_contracts/contracts/Token.sol\":2912:2940  (_value / 1000) * _bpFeeBurn */\n      tag_176\n      swap2\n      swap1\n      tag_177\n      jump\t// in\n    tag_176:\n        /* \"smart_contracts/contracts/Token.sol\":2893:2940  uint256 _feeBurn = (_value / 1000) * _bpFeeBurn */\n      swap1\n      pop\n        /* \"smart_contracts/contracts/Token.sol\":2950:2966  uint256 _feeBank */\n      0x00\n        /* \"smart_contracts/contracts/Token.sol\":2987:2997  _bpFeeBank */\n      dup5\n        /* \"smart_contracts/contracts/Token.sol\":2979:2983  1000 */\n      0x03e8\n        /* \"smart_contracts/contracts/Token.sol\":2970:2976  _value */\n      dup9\n        /* \"smart_contracts/contracts/Token.sol\":2970:2983  _value / 1000 */\n      tag_178\n      swap2\n      swap1\n      tag_175\n      jump\t// in\n    tag_178:\n        /* \"smart_contracts/contracts/Token.sol\":2969:2997  (_value / 1000) * _bpFeeBank */\n      tag_179\n      swap2\n      swap1\n      tag_177\n      jump\t// in\n    tag_179:\n        /* \"smart_contracts/contracts/Token.sol\":2950:2997  uint256 _feeBank = (_value / 1000) * _bpFeeBank */\n      swap1\n      pop\n        /* \"smart_contracts/contracts/Token.sol\":3007:3024  uint256 _newValue */\n      0x00\n        /* \"smart_contracts/contracts/Token.sol\":3048:3056  _feeBank */\n      dup2\n        /* \"smart_contracts/contracts/Token.sol\":3037:3045  _feeBurn */\n      dup4\n        /* \"smart_contracts/contracts/Token.sol\":3037:3056  _feeBurn + _feeBank */\n      tag_180\n      swap2\n      swap1\n      tag_151\n      jump\t// in\n    tag_180:\n        /* \"smart_contracts/contracts/Token.sol\":3027:3033  _value */\n      dup9\n        /* \"smart_contracts/contracts/Token.sol\":3027:3057  _value - (_feeBurn + _feeBank) */\n      tag_181\n      swap2\n      swap1\n      tag_127\n      jump\t// in\n    tag_181:\n        /* \"smart_contracts/contracts/Token.sol\":3007:3057  uint256 _newValue = _value - (_feeBurn + _feeBank) */\n      swap1\n      pop\n        /* \"smart_contracts/contracts/Token.sol\":3083:3092  _newValue */\n      dup1\n        /* \"smart_contracts/contracts/Token.sol\":3067:3074  balance */\n      0x35\n        /* \"smart_contracts/contracts/Token.sol\":3067:3079  balance[_to] */\n      0x00\n        /* \"smart_contracts/contracts/Token.sol\":3075:3078  _to */\n      dup12\n        /* \"smart_contracts/contracts/Token.sol\":3067:3079  balance[_to] */\n      0xffffffffffffffffffffffffffffffffffffffff\n      and\n      0xffffffffffffffffffffffffffffffffffffffff\n      and\n      dup2\n      mstore\n      0x20\n      add\n      swap1\n      dup2\n      mstore\n      0x20\n      add\n      0x00\n      keccak256\n      0x00\n        /* \"smart_contracts/contracts/Token.sol\":3067:3092  balance[_to] += _newValue */\n      dup3\n      dup3\n      sload\n      tag_182\n      swap2\n      swap1\n      tag_151\n      jump\t// in\n    tag_182:\n      swap3\n      pop\n      pop\n      dup2\n      swap1\n      sstore\n      pop\n        /* \"smart_contracts/contracts/Token.sol\":3125:3133  _feeBank */\n      dup2\n        /* \"smart_contracts/contracts/Token.sol\":3102:3109  balance */\n      0x35\n        /* \"smart_contracts/contracts/Token.sol\":3102:3121  balance[meta.vault] */\n      0x00\n        /* \"smart_contracts/contracts/Token.sol\":3110:3114  meta */\n      0x28\n        /* \"smart_contracts/contracts/Token.sol\":3110:3120  meta.vault */\n      0x0b\n      add\n      0x00\n      swap1\n      sload\n      swap1\n      0x0100\n      exp\n      swap1\n      div\n      0xffffffffffffffffffffffffffffffffffffffff\n      and\n        /* \"smart_contracts/contracts/Token.sol\":3102:3121  balance[meta.vault] */\n      0xffffffffffffffffffffffffffffffffffffffff\n      and\n      0xffffffffffffffffffffffffffffffffffffffff\n      and\n      dup2\n      mstore\n      0x20\n      add\n      swap1\n      dup2\n      mstore\n      0x20\n      add\n      0x00\n      keccak256\n      0x00\n        /* \"smart_contracts/contracts/Token.sol\":3102:3133  balance[meta.vault] += _feeBank */\n      dup3\n      dup3\n      sload\n      tag_183\n      swap2\n      swap1\n      tag_151\n      jump\t// in\n    tag_183:\n      swap3\n      pop\n      pop\n      dup2\n      swap1\n      sstore\n      pop\n        /* \"smart_contracts/contracts/Token.sol\":3163:3171  _feeBurn */\n      dup3\n        /* \"smart_contracts/contracts/Token.sol\":3143:3147  meta */\n      0x28\n        /* \"smart_contracts/contracts/Token.sol\":3143:3159  meta.totalSupply */\n      0x04\n      add\n      0x00\n        /* \"smart_contracts/contracts/Token.sol\":3143:3171  meta.totalSupply -= _feeBurn */\n      dup3\n      dup3\n      sload\n      tag_184\n      swap2\n      swap1\n      tag_127\n      jump\t// in\n    tag_184:\n      swap3\n      pop\n      pop\n      dup2\n      swap1\n      sstore\n      pop\n        /* \"smart_contracts/contracts/Token.sol\":3202:3205  _to */\n      dup9\n        /* \"smart_contracts/contracts/Token.sol\":3186:3217  Transfer(_from, _to, _newValue) */\n      0xffffffffffffffffffffffffffffffffffffffff\n      and\n        /* \"smart_contracts/contracts/Token.sol\":3195:3200  _from */\n      dup11\n        /* \"smart_contracts/contracts/Token.sol\":3186:3217  Transfer(_from, _to, _newValue) */\n      0xffffffffffffffffffffffffffffffffffffffff\n      and\n      0xddf252ad1be2c89b69c2b068fc378daa952ba7f163c4a11628f55a4df523b3ef\n        /* \"smart_contracts/contracts/Token.sol\":3207:3216  _newValue */\n      dup4\n        /* \"smart_contracts/contracts/Token.sol\":3186:3217  Transfer(_from, _to, _newValue) */\n      mload(0x40)\n      tag_185\n      swap2\n      swap1\n      tag_42\n      jump\t// in\n    tag_185:\n      mload(0x40)\n      dup1\n      swap2\n      sub\n      swap1\n      log3\n        /* \"smart_contracts/contracts/Token.sol\":3243:3244  0 */\n      0x00\n        /* \"smart_contracts/contracts/Token.sol\":3231:3239  _feeBurn */\n      dup4\n        /* \"smart_contracts/contracts/Token.sol\":3231:3244  _feeBurn != 0 */\n      eq\n        /* \"smart_contracts/contracts/Token.sol\":3227:3291  if (_feeBurn != 0) {emit Transfer(_from, address(0), _feeBurn);} */\n      tag_186\n      jumpi\n        /* \"smart_contracts/contracts/Token.sol\":3276:3277  0 */\n      0x00\n        /* \"smart_contracts/contracts/Token.sol\":3252:3289  Transfer(_from, address(0), _feeBurn) */\n      0xffffffffffffffffffffffffffffffffffffffff\n      and\n        /* \"smart_contracts/contracts/Token.sol\":3261:3266  _from */\n      dup11\n        /* \"smart_contracts/contracts/Token.sol\":3252:3289  Transfer(_from, address(0), _feeBurn) */\n      0xffffffffffffffffffffffffffffffffffffffff\n      and\n      0xddf252ad1be2c89b69c2b068fc378daa952ba7f163c4a11628f55a4df523b3ef\n        /* \"smart_contracts/contracts/Token.sol\":3280:3288  _feeBurn */\n      dup6\n        /* \"smart_contracts/contracts/Token.sol\":3252:3289  Transfer(_from, address(0), _feeBurn) */\n      mload(0x40)\n      tag_187\n      swap2\n      swap1\n      tag_42\n      jump\t// in\n    tag_187:\n      mload(0x40)\n      dup1\n      swap2\n      sub\n      swap1\n      log3\n        /* \"smart_contracts/contracts/Token.sol\":3227:3291  if (_feeBurn != 0) {emit Transfer(_from, address(0), _feeBurn);} */\n    tag_186:\n        /* \"smart_contracts/contracts/Token.sol\":3316:3317  0 */\n      0x00\n        /* \"smart_contracts/contracts/Token.sol\":3304:3312  _feeBank */\n      dup3\n        /* \"smart_contracts/contracts/Token.sol\":3304:3317  _feeBank != 0 */\n      eq\n        /* \"smart_contracts/contracts/Token.sol\":3300:3364  if (_feeBank != 0) {emit Transfer(_from, meta.vault, _feeBank);} */\n      tag_188\n      jumpi\n        /* \"smart_contracts/contracts/Token.sol\":3341:3345  meta */\n      0x28\n        /* \"smart_contracts/contracts/Token.sol\":3341:3351  meta.vault */\n      0x0b\n      add\n      0x00\n      swap1\n      sload\n      swap1\n      0x0100\n      exp\n      swap1\n      div\n      0xffffffffffffffffffffffffffffffffffffffff\n      and\n        /* \"smart_contracts/contracts/Token.sol\":3325:3362  Transfer(_from, meta.vault, _feeBank) */\n      0xffffffffffffffffffffffffffffffffffffffff\n      and\n        /* \"smart_contracts/contracts/Token.sol\":3334:3339  _from */\n      dup11\n        /* \"smart_contracts/contracts/Token.sol\":3325:3362  Transfer(_from, meta.vault, _feeBank) */\n      0xffffffffffffffffffffffffffffffffffffffff\n      and\n      0xddf252ad1be2c89b69c2b068fc378daa952ba7f163c4a11628f55a4df523b3ef\n        /* \"smart_contracts/contracts/Token.sol\":3353:3361  _feeBank */\n      dup5\n        /* \"smart_contracts/contracts/Token.sol\":3325:3362  Transfer(_from, meta.vault, _feeBank) */\n      mload(0x40)\n      tag_189\n      swap2\n      swap1\n      tag_42\n      jump\t// in\n    tag_189:\n      mload(0x40)\n      dup1\n      swap2\n      sub\n      swap1\n      log3\n        /* \"smart_contracts/contracts/Token.sol\":3300:3364  if (_feeBank != 0) {emit Transfer(_from, meta.vault, _feeBank);} */\n    tag_188:\n        /* \"smart_contracts/contracts/Token.sol\":3381:3385  true */\n      0x01\n        /* \"smart_contracts/contracts/Token.sol\":3387:3396  _newValue */\n      dup2\n        /* \"smart_contracts/contracts/Token.sol\":3373:3397  return (true, _newValue) */\n      swap5\n      pop\n      swap5\n      pop\n      pop\n      pop\n      pop\n        /* \"smart_contracts/contracts/Token.sol\":2516:3404  function transfer_(address _from, address _to, uint256 _value, uint256 _bpFeeBurn, uint256 _bpFeeBank) internal returns (bool, uint256) {... */\n      swap6\n      pop\n      swap6\n      swap4\n      pop\n      pop\n      pop\n      pop\n      jump\t// out\n        /* \"#utility.yul\":7:82   */\n    tag_190:\n        /* \"#utility.yul\":40:46   */\n      0x00\n        /* \"#utility.yul\":73:75   */\n      0x40\n        /* \"#utility.yul\":67:76   */\n      mload\n        /* \"#utility.yul\":57:76   */\n      swap1\n      pop\n        /* \"#utility.yul\":7:82   */\n      swap1\n      jump\t// out\n        /* \"#utility.yul\":88:205   */\n    tag_191:\n        /* \"#utility.yul\":197:198   */\n      0x00\n        /* \"#utility.yul\":194:195   */\n      dup1\n        /* \"#utility.yul\":187:199   */\n      revert\n        /* \"#utility.yul\":211:328   */\n    tag_192:\n        /* \"#utility.yul\":320:321   */\n      0x00\n        /* \"#utility.yul\":317:318   */\n      dup1\n        /* \"#utility.yul\":310:322   */\n      revert\n        /* \"#utility.yul\":334:411   */\n    tag_193:\n        /* \"#utility.yul\":371:378   */\n      0x00\n        /* \"#utility.yul\":400:405   */\n      dup2\n        /* \"#utility.yul\":389:405   */\n      swap1\n      pop\n        /* \"#utility.yul\":334:411   */\n      swap2\n      swap1\n      pop\n      jump\t// out\n        /* \"#utility.yul\":417:539   */\n    tag_194:\n        /* \"#utility.yul\":490:514   */\n      tag_232\n        /* \"#utility.yul\":508:513   */\n      dup2\n        /* \"#utility.yul\":490:514   */\n      tag_193\n      jump\t// in\n    tag_232:\n        /* \"#utility.yul\":483:488   */\n      dup2\n        /* \"#utility.yul\":480:515   */\n      eq\n        /* \"#utility.yul\":470:533   */\n      tag_233\n      jumpi\n        /* \"#utility.yul\":529:530   */\n      0x00\n        /* \"#utility.yul\":526:527   */\n      dup1\n        /* \"#utility.yul\":519:531   */\n      revert\n        /* \"#utility.yul\":470:533   */\n    tag_233:\n        /* \"#utility.yul\":417:539   */\n      pop\n      jump\t// out\n        /* \"#utility.yul\":545:684   */\n    tag_195:\n        /* \"#utility.yul\":591:596   */\n      0x00\n        /* \"#utility.yul\":629:635   */\n      dup2\n        /* \"#utility.yul\":616:636   */\n      calldataload\n        /* \"#utility.yul\":607:636   */\n      swap1\n      pop\n        /* \"#utility.yul\":645:678   */\n      tag_235\n        /* \"#utility.yul\":672:677   */\n      dup2\n        /* \"#utility.yul\":645:678   */\n      tag_194\n      jump\t// in\n    tag_235:\n        /* \"#utility.yul\":545:684   */\n      swap3\n      swap2\n      pop\n      pop\n      jump\t// out\n        /* \"#utility.yul\":690:1164   */\n    tag_26:\n        /* \"#utility.yul\":758:764   */\n      0x00\n        /* \"#utility.yul\":766:772   */\n      dup1\n        /* \"#utility.yul\":815:817   */\n      0x40\n        /* \"#utility.yul\":803:812   */\n      dup4\n        /* \"#utility.yul\":794:801   */\n      dup6\n        /* \"#utility.yul\":790:813   */\n      sub\n        /* \"#utility.yul\":786:818   */\n      slt\n        /* \"#utility.yul\":783:902   */\n      iszero\n      tag_237\n      jumpi\n        /* \"#utility.yul\":821:900   */\n      tag_238\n      tag_191\n      jump\t// in\n    tag_238:\n        /* \"#utility.yul\":783:902   */\n    tag_237:\n        /* \"#utility.yul\":941:942   */\n      0x00\n        /* \"#utility.yul\":966:1019   */\n      tag_239\n        /* \"#utility.yul\":1011:1018   */\n      dup6\n        /* \"#utility.yul\":1002:1008   */\n      dup3\n        /* \"#utility.yul\":991:1000   */\n      dup7\n        /* \"#utility.yul\":987:1009   */\n      add\n        /* \"#utility.yul\":966:1019   */\n      tag_195\n      jump\t// in\n    tag_239:\n        /* \"#utility.yul\":956:1019   */\n      swap3\n      pop\n        /* \"#utility.yul\":912:1029   */\n      pop\n        /* \"#utility.yul\":1068:1070   */\n      0x20\n        /* \"#utility.yul\":1094:1147   */\n      tag_240\n        /* \"#utility.yul\":1139:1146   */\n      dup6\n        /* \"#utility.yul\":1130:1136   */\n      dup3\n        /* \"#utility.yul\":1119:1128   */\n      dup7\n        /* \"#utility.yul\":1115:1137   */\n      add\n        /* \"#utility.yul\":1094:1147   */\n      tag_195\n      jump\t// in\n    tag_240:\n        /* \"#utility.yul\":1084:1147   */\n      swap2\n      pop\n        /* \"#utility.yul\":1039:1157   */\n      pop\n        /* \"#utility.yul\":690:1164   */\n      swap3\n      pop\n      swap3\n      swap1\n      pop\n      jump\t// out\n        /* \"#utility.yul\":1170:1260   */\n    tag_196:\n        /* \"#utility.yul\":1204:1211   */\n      0x00\n        /* \"#utility.yul\":1247:1252   */\n      dup2\n        /* \"#utility.yul\":1240:1253   */\n      iszero\n        /* \"#utility.yul\":1233:1254   */\n      iszero\n        /* \"#utility.yul\":1222:1254   */\n      swap1\n      pop\n        /* \"#utility.yul\":1170:1260   */\n      swap2\n      swap1\n      pop\n      jump\t// out\n        /* \"#utility.yul\":1266:1375   */\n    tag_197:\n        /* \"#utility.yul\":1347:1368   */\n      tag_243\n        /* \"#utility.yul\":1362:1367   */\n      dup2\n        /* \"#utility.yul\":1347:1368   */\n      tag_196\n      jump\t// in\n    tag_243:\n        /* \"#utility.yul\":1342:1345   */\n      dup3\n        /* \"#utility.yul\":1335:1369   */\n      mstore\n        /* \"#utility.yul\":1266:1375   */\n      pop\n      pop\n      jump\t// out\n        /* \"#utility.yul\":1381:1591   */\n    tag_29:\n        /* \"#utility.yul\":1468:1472   */\n      0x00\n        /* \"#utility.yul\":1506:1508   */\n      0x20\n        /* \"#utility.yul\":1495:1504   */\n      dup3\n        /* \"#utility.yul\":1491:1509   */\n      add\n        /* \"#utility.yul\":1483:1509   */\n      swap1\n      pop\n        /* \"#utility.yul\":1519:1584   */\n      tag_245\n        /* \"#utility.yul\":1581:1582   */\n      0x00\n        /* \"#utility.yul\":1570:1579   */\n      dup4\n        /* \"#utility.yul\":1566:1583   */\n      add\n        /* \"#utility.yul\":1557:1563   */\n      dup5\n        /* \"#utility.yul\":1519:1584   */\n      tag_197\n      jump\t// in\n    tag_245:\n        /* \"#utility.yul\":1381:1591   */\n      swap3\n      swap2\n      pop\n      pop\n      jump\t// out\n        /* \"#utility.yul\":1597:1696   */\n    tag_198:\n        /* \"#utility.yul\":1649:1655   */\n      0x00\n        /* \"#utility.yul\":1683:1688   */\n      dup2\n        /* \"#utility.yul\":1677:1689   */\n      mload\n        /* \"#utility.yul\":1667:1689   */\n      swap1\n      pop\n        /* \"#utility.yul\":1597:1696   */\n      swap2\n      swap1\n      pop\n      jump\t// out\n        /* \"#utility.yul\":1702:1871   */\n    tag_199:\n        /* \"#utility.yul\":1786:1797   */\n      0x00\n        /* \"#utility.yul\":1820:1826   */\n      dup3\n        /* \"#utility.yul\":1815:1818   */\n      dup3\n        /* \"#utility.yul\":1808:1827   */\n      mstore\n        /* \"#utility.yul\":1860:1864   */\n      0x20\n        /* \"#utility.yul\":1855:1858   */\n      dup3\n        /* \"#utility.yul\":1851:1865   */\n      add\n        /* \"#utility.yul\":1836:1865   */\n      swap1\n      pop\n        /* \"#utility.yul\":1702:1871   */\n      swap3\n      swap2\n      pop\n      pop\n      jump\t// out\n        /* \"#utility.yul\":1877:2123   */\n    tag_200:\n        /* \"#utility.yul\":1958:1959   */\n      0x00\n        /* \"#utility.yul\":1968:2081   */\n    tag_249:\n        /* \"#utility.yul\":1982:1988   */\n      dup4\n        /* \"#utility.yul\":1979:1980   */\n      dup2\n        /* \"#utility.yul\":1976:1989   */\n      lt\n        /* \"#utility.yul\":1968:2081   */\n      iszero\n      tag_251\n      jumpi\n        /* \"#utility.yul\":2067:2068   */\n      dup1\n        /* \"#utility.yul\":2062:2065   */\n      dup3\n        /* \"#utility.yul\":2058:2069   */\n      add\n        /* \"#utility.yul\":2052:2070   */\n      mload\n        /* \"#utility.yul\":2048:2049   */\n      dup2\n        /* \"#utility.yul\":2043:2046   */\n      dup5\n        /* \"#utility.yul\":2039:2050   */\n      add\n        /* \"#utility.yul\":2032:2071   */\n      mstore\n        /* \"#utility.yul\":2004:2006   */\n      0x20\n        /* \"#utility.yul\":2001:2002   */\n      dup2\n        /* \"#utility.yul\":1997:2007   */\n      add\n        /* \"#utility.yul\":1992:2007   */\n      swap1\n      pop\n        /* \"#utility.yul\":1968:2081   */\n      jump(tag_249)\n    tag_251:\n        /* \"#utility.yul\":2115:2116   */\n      0x00\n        /* \"#utility.yul\":2106:2112   */\n      dup5\n        /* \"#utility.yul\":2101:2104   */\n      dup5\n        /* \"#utility.yul\":2097:2113   */\n      add\n        /* \"#utility.yul\":2090:2117   */\n      mstore\n        /* \"#utility.yul\":1939:2123   */\n      pop\n        /* \"#utility.yul\":1877:2123   */\n      pop\n      pop\n      pop\n      jump\t// out\n        /* \"#utility.yul\":2129:2231   */\n    tag_201:\n        /* \"#utility.yul\":2170:2176   */\n      0x00\n        /* \"#utility.yul\":2221:2223   */\n      0x1f\n        /* \"#utility.yul\":2217:2224   */\n      not\n        /* \"#utility.yul\":2212:2214   */\n      0x1f\n        /* \"#utility.yul\":2205:2210   */\n      dup4\n        /* \"#utility.yul\":2201:2215   */\n      add\n        /* \"#utility.yul\":2197:2225   */\n      and\n        /* \"#utility.yul\":2187:2225   */\n      swap1\n      pop\n        /* \"#utility.yul\":2129:2231   */\n      swap2\n      swap1\n      pop\n      jump\t// out\n        /* \"#utility.yul\":2237:2614   */\n    tag_202:\n        /* \"#utility.yul\":2325:2328   */\n      0x00\n        /* \"#utility.yul\":2353:2392   */\n      tag_254\n        /* \"#utility.yul\":2386:2391   */\n      dup3\n        /* \"#utility.yul\":2353:2392   */\n      tag_198\n      jump\t// in\n    tag_254:\n        /* \"#utility.yul\":2408:2479   */\n      tag_255\n        /* \"#utility.yul\":2472:2478   */\n      dup2\n        /* \"#utility.yul\":2467:2470   */\n      dup6\n        /* \"#utility.yul\":2408:2479   */\n      tag_199\n      jump\t// in\n    tag_255:\n        /* \"#utility.yul\":2401:2479   */\n      swap4\n      pop\n        /* \"#utility.yul\":2488:2553   */\n      tag_256\n        /* \"#utility.yul\":2546:2552   */\n      dup2\n        /* \"#utility.yul\":2541:2544   */\n      dup6\n        /* \"#utility.yul\":2534:2538   */\n      0x20\n        /* \"#utility.yul\":2527:2532   */\n      dup7\n        /* \"#utility.yul\":2523:2539   */\n      add\n        /* \"#utility.yul\":2488:2553   */\n      tag_200\n      jump\t// in\n    tag_256:\n        /* \"#utility.yul\":2578:2607   */\n      tag_257\n        /* \"#utility.yul\":2600:2606   */\n      dup2\n        /* \"#utility.yul\":2578:2607   */\n      tag_201\n      jump\t// in\n    tag_257:\n        /* \"#utility.yul\":2573:2576   */\n      dup5\n        /* \"#utility.yul\":2569:2608   */\n      add\n        /* \"#utility.yul\":2562:2608   */\n      swap2\n      pop\n        /* \"#utility.yul\":2329:2614   */\n      pop\n        /* \"#utility.yul\":2237:2614   */\n      swap3\n      swap2\n      pop\n      pop\n      jump\t// out\n        /* \"#utility.yul\":2620:2933   */\n    tag_33:\n        /* \"#utility.yul\":2733:2737   */\n      0x00\n        /* \"#utility.yul\":2771:2773   */\n      0x20\n        /* \"#utility.yul\":2760:2769   */\n      dup3\n        /* \"#utility.yul\":2756:2774   */\n      add\n        /* \"#utility.yul\":2748:2774   */\n      swap1\n      pop\n        /* \"#utility.yul\":2820:2829   */\n      dup2\n        /* \"#utility.yul\":2814:2818   */\n      dup2\n        /* \"#utility.yul\":2810:2830   */\n      sub\n        /* \"#utility.yul\":2806:2807   */\n      0x00\n        /* \"#utility.yul\":2795:2804   */\n      dup4\n        /* \"#utility.yul\":2791:2808   */\n      add\n        /* \"#utility.yul\":2784:2831   */\n      mstore\n        /* \"#utility.yul\":2848:2926   */\n      tag_259\n        /* \"#utility.yul\":2921:2925   */\n      dup2\n        /* \"#utility.yul\":2912:2918   */\n      dup5\n        /* \"#utility.yul\":2848:2926   */\n      tag_202\n      jump\t// in\n    tag_259:\n        /* \"#utility.yul\":2840:2926   */\n      swap1\n      pop\n        /* \"#utility.yul\":2620:2933   */\n      swap3\n      swap2\n      pop\n      pop\n      jump\t// out\n        /* \"#utility.yul\":2939:3065   */\n    tag_203:\n        /* \"#utility.yul\":2976:2983   */\n      0x00\n        /* \"#utility.yul\":3016:3058   */\n      0xffffffffffffffffffffffffffffffffffffffff\n        /* \"#utility.yul\":3009:3014   */\n      dup3\n        /* \"#utility.yul\":3005:3059   */\n      and\n        /* \"#utility.yul\":2994:3059   */\n      swap1\n      pop\n        /* \"#utility.yul\":2939:3065   */\n      swap2\n      swap1\n      pop\n      jump\t// out\n        /* \"#utility.yul\":3071:3167   */\n    tag_204:\n        /* \"#utility.yul\":3108:3115   */\n      0x00\n        /* \"#utility.yul\":3137:3161   */\n      tag_262\n        /* \"#utility.yul\":3155:3160   */\n      dup3\n        /* \"#utility.yul\":3137:3161   */\n      tag_203\n      jump\t// in\n    tag_262:\n        /* \"#utility.yul\":3126:3161   */\n      swap1\n      pop\n        /* \"#utility.yul\":3071:3167   */\n      swap2\n      swap1\n      pop\n      jump\t// out\n        /* \"#utility.yul\":3173:3295   */\n    tag_205:\n        /* \"#utility.yul\":3246:3270   */\n      tag_264\n        /* \"#utility.yul\":3264:3269   */\n      dup2\n        /* \"#utility.yul\":3246:3270   */\n      tag_204\n      jump\t// in\n    tag_264:\n        /* \"#utility.yul\":3239:3244   */\n      dup2\n        /* \"#utility.yul\":3236:3271   */\n      eq\n        /* \"#utility.yul\":3226:3289   */\n      tag_265\n      jumpi\n        /* \"#utility.yul\":3285:3286   */\n      0x00\n        /* \"#utility.yul\":3282:3283   */\n      dup1\n        /* \"#utility.yul\":3275:3287   */\n      revert\n        /* \"#utility.yul\":3226:3289   */\n    tag_265:\n        /* \"#utility.yul\":3173:3295   */\n      pop\n      jump\t// out\n        /* \"#utility.yul\":3301:3440   */\n    tag_206:\n        /* \"#utility.yul\":3347:3352   */\n      0x00\n        /* \"#utility.yul\":3385:3391   */\n      dup2\n        /* \"#utility.yul\":3372:3392   */\n      calldataload\n        /* \"#utility.yul\":3363:3392   */\n      swap1\n      pop\n        /* \"#utility.yul\":3401:3434   */\n      tag_267\n        /* \"#utility.yul\":3428:3433   */\n      dup2\n        /* \"#utility.yul\":3401:3434   */\n      tag_205\n      jump\t// in\n    tag_267:\n        /* \"#utility.yul\":3301:3440   */\n      swap3\n      swap2\n      pop\n      pop\n      jump\t// out\n        /* \"#utility.yul\":3446:3920   */\n    tag_36:\n        /* \"#utility.yul\":3514:3520   */\n      0x00\n        /* \"#utility.yul\":3522:3528   */\n      dup1\n        /* \"#utility.yul\":3571:3573   */\n      0x40\n        /* \"#utility.yul\":3559:3568   */\n      dup4\n        /* \"#utility.yul\":3550:3557   */\n      dup6\n        /* \"#utility.yul\":3546:3569   */\n      sub\n        /* \"#utility.yul\":3542:3574   */\n      slt\n        /* \"#utility.yul\":3539:3658   */\n      iszero\n      tag_269\n      jumpi\n        /* \"#utility.yul\":3577:3656   */\n      tag_270\n      tag_191\n      jump\t// in\n    tag_270:\n        /* \"#utility.yul\":3539:3658   */\n    tag_269:\n        /* \"#utility.yul\":3697:3698   */\n      0x00\n        /* \"#utility.yul\":3722:3775   */\n      tag_271\n        /* \"#utility.yul\":3767:3774   */\n      dup6\n        /* \"#utility.yul\":3758:3764   */\n      dup3\n        /* \"#utility.yul\":3747:3756   */\n      dup7\n        /* \"#utility.yul\":3743:3765   */\n      add\n        /* \"#utility.yul\":3722:3775   */\n      tag_206\n      jump\t// in\n    tag_271:\n        /* \"#utility.yul\":3712:3775   */\n      swap3\n      pop\n        /* \"#utility.yul\":3668:3785   */\n      pop\n        /* \"#utility.yul\":3824:3826   */\n      0x20\n        /* \"#utility.yul\":3850:3903   */\n      tag_272\n        /* \"#utility.yul\":3895:3902   */\n      dup6\n        /* \"#utility.yul\":3886:3892   */\n      dup3\n        /* \"#utility.yul\":3875:3884   */\n      dup7\n        /* \"#utility.yul\":3871:3893   */\n      add\n        /* \"#utility.yul\":3850:3903   */\n      tag_195\n      jump\t// in\n    tag_272:\n        /* \"#utility.yul\":3840:3903   */\n      swap2\n      pop\n        /* \"#utility.yul\":3795:3913   */\n      pop\n        /* \"#utility.yul\":3446:3920   */\n      swap3\n      pop\n      swap3\n      swap1\n      pop\n      jump\t// out\n        /* \"#utility.yul\":3926:4044   */\n    tag_207:\n        /* \"#utility.yul\":4013:4037   */\n      tag_274\n        /* \"#utility.yul\":4031:4036   */\n      dup2\n        /* \"#utility.yul\":4013:4037   */\n      tag_193\n      jump\t// in\n    tag_274:\n        /* \"#utility.yul\":4008:4011   */\n      dup3\n        /* \"#utility.yul\":4001:4038   */\n      mstore\n        /* \"#utility.yul\":3926:4044   */\n      pop\n      pop\n      jump\t// out\n        /* \"#utility.yul\":4050:4272   */\n    tag_42:\n        /* \"#utility.yul\":4143:4147   */\n      0x00\n        /* \"#utility.yul\":4181:4183   */\n      0x20\n        /* \"#utility.yul\":4170:4179   */\n      dup3\n        /* \"#utility.yul\":4166:4184   */\n      add\n        /* \"#utility.yul\":4158:4184   */\n      swap1\n      pop\n        /* \"#utility.yul\":4194:4265   */\n      tag_276\n        /* \"#utility.yul\":4262:4263   */\n      0x00\n        /* \"#utility.yul\":4251:4260   */\n      dup4\n        /* \"#utility.yul\":4247:4264   */\n      add\n        /* \"#utility.yul\":4238:4244   */\n      dup5\n        /* \"#utility.yul\":4194:4265   */\n      tag_207\n      jump\t// in\n    tag_276:\n        /* \"#utility.yul\":4050:4272   */\n      swap3\n      swap2\n      pop\n      pop\n      jump\t// out\n        /* \"#utility.yul\":4278:4897   */\n    tag_48:\n        /* \"#utility.yul\":4355:4361   */\n      0x00\n        /* \"#utility.yul\":4363:4369   */\n      dup1\n        /* \"#utility.yul\":4371:4377   */\n      0x00\n        /* \"#utility.yul\":4420:4422   */\n      0x60\n        /* \"#utility.yul\":4408:4417   */\n      dup5\n        /* \"#utility.yul\":4399:4406   */\n      dup7\n        /* \"#utility.yul\":4395:4418   */\n      sub\n        /* \"#utility.yul\":4391:4423   */\n      slt\n        /* \"#utility.yul\":4388:4507   */\n      iszero\n      tag_278\n      jumpi\n        /* \"#utility.yul\":4426:4505   */\n      tag_279\n      tag_191\n      jump\t// in\n    tag_279:\n        /* \"#utility.yul\":4388:4507   */\n    tag_278:\n        /* \"#utility.yul\":4546:4547   */\n      0x00\n        /* \"#utility.yul\":4571:4624   */\n      tag_280\n        /* \"#utility.yul\":4616:4623   */\n      dup7\n        /* \"#utility.yul\":4607:4613   */\n      dup3\n        /* \"#utility.yul\":4596:4605   */\n      dup8\n        /* \"#utility.yul\":4592:4614   */\n      add\n        /* \"#utility.yul\":4571:4624   */\n      tag_206\n      jump\t// in\n    tag_280:\n        /* \"#utility.yul\":4561:4624   */\n      swap4\n      pop\n        /* \"#utility.yul\":4517:4634   */\n      pop\n        /* \"#utility.yul\":4673:4675   */\n      0x20\n        /* \"#utility.yul\":4699:4752   */\n      tag_281\n        /* \"#utility.yul\":4744:4751   */\n      dup7\n        /* \"#utility.yul\":4735:4741   */\n      dup3\n        /* \"#utility.yul\":4724:4733   */\n      dup8\n        /* \"#utility.yul\":4720:4742   */\n      add\n        /* \"#utility.yul\":4699:4752   */\n      tag_206\n      jump\t// in\n    tag_281:\n        /* \"#utility.yul\":4689:4752   */\n      swap3\n      pop\n        /* \"#utility.yul\":4644:4762   */\n      pop\n        /* \"#utility.yul\":4801:4803   */\n      0x40\n        /* \"#utility.yul\":4827:4880   */\n      tag_282\n        /* \"#utility.yul\":4872:4879   */\n      dup7\n        /* \"#utility.yul\":4863:4869   */\n      dup3\n        /* \"#utility.yul\":4852:4861   */\n      dup8\n        /* \"#utility.yul\":4848:4870   */\n      add\n        /* \"#utility.yul\":4827:4880   */\n      tag_195\n      jump\t// in\n    tag_282:\n        /* \"#utility.yul\":4817:4880   */\n      swap2\n      pop\n        /* \"#utility.yul\":4772:4890   */\n      pop\n        /* \"#utility.yul\":4278:4897   */\n      swap3\n      pop\n      swap3\n      pop\n      swap3\n      jump\t// out\n        /* \"#utility.yul\":4903:5232   */\n    tag_53:\n        /* \"#utility.yul\":4962:4968   */\n      0x00\n        /* \"#utility.yul\":5011:5013   */\n      0x20\n        /* \"#utility.yul\":4999:5008   */\n      dup3\n        /* \"#utility.yul\":4990:4997   */\n      dup5\n        /* \"#utility.yul\":4986:5009   */\n      sub\n        /* \"#utility.yul\":4982:5014   */\n      slt\n        /* \"#utility.yul\":4979:5098   */\n      iszero\n      tag_284\n      jumpi\n        /* \"#utility.yul\":5017:5096   */\n      tag_285\n      tag_191\n      jump\t// in\n    tag_285:\n        /* \"#utility.yul\":4979:5098   */\n    tag_284:\n        /* \"#utility.yul\":5137:5138   */\n      0x00\n        /* \"#utility.yul\":5162:5215   */\n      tag_286\n        /* \"#utility.yul\":5207:5214   */\n      dup5\n        /* \"#utility.yul\":5198:5204   */\n      dup3\n        /* \"#utility.yul\":5187:5196   */\n      dup6\n        /* \"#utility.yul\":5183:5205   */\n      add\n        /* \"#utility.yul\":5162:5215   */\n      tag_195\n      jump\t// in\n    tag_286:\n        /* \"#utility.yul\":5152:5215   */\n      swap2\n      pop\n        /* \"#utility.yul\":5108:5225   */\n      pop\n        /* \"#utility.yul\":4903:5232   */\n      swap3\n      swap2\n      pop\n      pop\n      jump\t// out\n        /* \"#utility.yul\":5238:5324   */\n    tag_208:\n        /* \"#utility.yul\":5273:5280   */\n      0x00\n        /* \"#utility.yul\":5313:5317   */\n      0xff\n        /* \"#utility.yul\":5306:5311   */\n      dup3\n        /* \"#utility.yul\":5302:5318   */\n      and\n        /* \"#utility.yul\":5291:5318   */\n      swap1\n      pop\n        /* \"#utility.yul\":5238:5324   */\n      swap2\n      swap1\n      pop\n      jump\t// out\n        /* \"#utility.yul\":5330:5442   */\n    tag_209:\n        /* \"#utility.yul\":5413:5435   */\n      tag_289\n        /* \"#utility.yul\":5429:5434   */\n      dup2\n        /* \"#utility.yul\":5413:5435   */\n      tag_208\n      jump\t// in\n    tag_289:\n        /* \"#utility.yul\":5408:5411   */\n      dup3\n        /* \"#utility.yul\":5401:5436   */\n      mstore\n        /* \"#utility.yul\":5330:5442   */\n      pop\n      pop\n      jump\t// out\n        /* \"#utility.yul\":5448:5662   */\n    tag_59:\n        /* \"#utility.yul\":5537:5541   */\n      0x00\n        /* \"#utility.yul\":5575:5577   */\n      0x20\n        /* \"#utility.yul\":5564:5573   */\n      dup3\n        /* \"#utility.yul\":5560:5578   */\n      add\n        /* \"#utility.yul\":5552:5578   */\n      swap1\n      pop\n        /* \"#utility.yul\":5588:5655   */\n      tag_291\n        /* \"#utility.yul\":5652:5653   */\n      0x00\n        /* \"#utility.yul\":5641:5650   */\n      dup4\n        /* \"#utility.yul\":5637:5654   */\n      add\n        /* \"#utility.yul\":5628:5634   */\n      dup5\n        /* \"#utility.yul\":5588:5655   */\n      tag_209\n      jump\t// in\n    tag_291:\n        /* \"#utility.yul\":5448:5662   */\n      swap3\n      swap2\n      pop\n      pop\n      jump\t// out\n        /* \"#utility.yul\":5668:5997   */\n    tag_62:\n        /* \"#utility.yul\":5727:5733   */\n      0x00\n        /* \"#utility.yul\":5776:5778   */\n      0x20\n        /* \"#utility.yul\":5764:5773   */\n      dup3\n        /* \"#utility.yul\":5755:5762   */\n      dup5\n        /* \"#utility.yul\":5751:5774   */\n      sub\n        /* \"#utility.yul\":5747:5779   */\n      slt\n        /* \"#utility.yul\":5744:5863   */\n      iszero\n      tag_293\n      jumpi\n        /* \"#utility.yul\":5782:5861   */\n      tag_294\n      tag_191\n      jump\t// in\n    tag_294:\n        /* \"#utility.yul\":5744:5863   */\n    tag_293:\n        /* \"#utility.yul\":5902:5903   */\n      0x00\n        /* \"#utility.yul\":5927:5980   */\n      tag_295\n        /* \"#utility.yul\":5972:5979   */\n      dup5\n        /* \"#utility.yul\":5963:5969   */\n      dup3\n        /* \"#utility.yul\":5952:5961   */\n      dup6\n        /* \"#utility.yul\":5948:5970   */\n      add\n        /* \"#utility.yul\":5927:5980   */\n      tag_206\n      jump\t// in\n    tag_295:\n        /* \"#utility.yul\":5917:5980   */\n      swap2\n      pop\n        /* \"#utility.yul\":5873:5990   */\n      pop\n        /* \"#utility.yul\":5668:5997   */\n      swap3\n      swap2\n      pop\n      pop\n      jump\t// out\n        /* \"#utility.yul\":6003:6477   */\n    tag_92:\n        /* \"#utility.yul\":6071:6077   */\n      0x00\n        /* \"#utility.yul\":6079:6085   */\n      dup1\n        /* \"#utility.yul\":6128:6130   */\n      0x40\n        /* \"#utility.yul\":6116:6125   */\n      dup4\n        /* \"#utility.yul\":6107:6114   */\n      dup6\n        /* \"#utility.yul\":6103:6126   */\n      sub\n        /* \"#utility.yul\":6099:6131   */\n      slt\n        /* \"#utility.yul\":6096:6215   */\n      iszero\n      tag_297\n      jumpi\n        /* \"#utility.yul\":6134:6213   */\n      tag_298\n      tag_191\n      jump\t// in\n    tag_298:\n        /* \"#utility.yul\":6096:6215   */\n    tag_297:\n        /* \"#utility.yul\":6254:6255   */\n      0x00\n        /* \"#utility.yul\":6279:6332   */\n      tag_299\n        /* \"#utility.yul\":6324:6331   */\n      dup6\n        /* \"#utility.yul\":6315:6321   */\n      dup3\n        /* \"#utility.yul\":6304:6313   */\n      dup7\n        /* \"#utility.yul\":6300:6322   */\n      add\n        /* \"#utility.yul\":6279:6332   */\n      tag_206\n      jump\t// in\n    tag_299:\n        /* \"#utility.yul\":6269:6332   */\n      swap3\n      pop\n        /* \"#utility.yul\":6225:6342   */\n      pop\n        /* \"#utility.yul\":6381:6383   */\n      0x20\n        /* \"#utility.yul\":6407:6460   */\n      tag_300\n        /* \"#utility.yul\":6452:6459   */\n      dup6\n        /* \"#utility.yul\":6443:6449   */\n      dup3\n        /* \"#utility.yul\":6432:6441   */\n      dup7\n        /* \"#utility.yul\":6428:6450   */\n      add\n        /* \"#utility.yul\":6407:6460   */\n      tag_206\n      jump\t// in\n    tag_300:\n        /* \"#utility.yul\":6397:6460   */\n      swap2\n      pop\n        /* \"#utility.yul\":6352:6470   */\n      pop\n        /* \"#utility.yul\":6003:6477   */\n      swap3\n      pop\n      swap3\n      swap1\n      pop\n      jump\t// out\n        /* \"#utility.yul\":6483:6600   */\n    tag_210:\n        /* \"#utility.yul\":6592:6593   */\n      0x00\n        /* \"#utility.yul\":6589:6590   */\n      dup1\n        /* \"#utility.yul\":6582:6594   */\n      revert\n        /* \"#utility.yul\":6606:6723   */\n    tag_211:\n        /* \"#utility.yul\":6715:6716   */\n      0x00\n        /* \"#utility.yul\":6712:6713   */\n      dup1\n        /* \"#utility.yul\":6705:6717   */\n      revert\n        /* \"#utility.yul\":6729:6909   */\n    tag_212:\n        /* \"#utility.yul\":6777:6854   */\n      0x4e487b7100000000000000000000000000000000000000000000000000000000\n        /* \"#utility.yul\":6774:6775   */\n      0x00\n        /* \"#utility.yul\":6767:6855   */\n      mstore\n        /* \"#utility.yul\":6874:6878   */\n      0x41\n        /* \"#utility.yul\":6871:6872   */\n      0x04\n        /* \"#utility.yul\":6864:6879   */\n      mstore\n        /* \"#utility.yul\":6898:6902   */\n      0x24\n        /* \"#utility.yul\":6895:6896   */\n      0x00\n        /* \"#utility.yul\":6888:6903   */\n      revert\n        /* \"#utility.yul\":6915:7196   */\n    tag_213:\n        /* \"#utility.yul\":6998:7025   */\n      tag_305\n        /* \"#utility.yul\":7020:7024   */\n      dup3\n        /* \"#utility.yul\":6998:7025   */\n      tag_201\n      jump\t// in\n    tag_305:\n        /* \"#utility.yul\":6990:6996   */\n      dup2\n        /* \"#utility.yul\":6986:7026   */\n      add\n        /* \"#utility.yul\":7128:7134   */\n      dup2\n        /* \"#utility.yul\":7116:7126   */\n      dup2\n        /* \"#utility.yul\":7113:7135   */\n      lt\n        /* \"#utility.yul\":7092:7110   */\n      0xffffffffffffffff\n        /* \"#utility.yul\":7080:7090   */\n      dup3\n        /* \"#utility.yul\":7077:7111   */\n      gt\n        /* \"#utility.yul\":7074:7136   */\n      or\n        /* \"#utility.yul\":7071:7159   */\n      iszero\n      tag_306\n      jumpi\n        /* \"#utility.yul\":7139:7157   */\n      tag_307\n      tag_212\n      jump\t// in\n    tag_307:\n        /* \"#utility.yul\":7071:7159   */\n    tag_306:\n        /* \"#utility.yul\":7179:7189   */\n      dup1\n        /* \"#utility.yul\":7175:7177   */\n      0x40\n        /* \"#utility.yul\":7168:7190   */\n      mstore\n        /* \"#utility.yul\":6958:7196   */\n      pop\n        /* \"#utility.yul\":6915:7196   */\n      pop\n      pop\n      jump\t// out\n        /* \"#utility.yul\":7202:7331   */\n    tag_214:\n        /* \"#utility.yul\":7236:7242   */\n      0x00\n        /* \"#utility.yul\":7263:7283   */\n      tag_309\n      tag_190\n      jump\t// in\n    tag_309:\n        /* \"#utility.yul\":7253:7283   */\n      swap1\n      pop\n        /* \"#utility.yul\":7292:7325   */\n      tag_310\n        /* \"#utility.yul\":7320:7324   */\n      dup3\n        /* \"#utility.yul\":7312:7318   */\n      dup3\n        /* \"#utility.yul\":7292:7325   */\n      tag_213\n      jump\t// in\n    tag_310:\n        /* \"#utility.yul\":7202:7331   */\n      swap2\n      swap1\n      pop\n      jump\t// out\n        /* \"#utility.yul\":7337:7645   */\n    tag_215:\n        /* \"#utility.yul\":7399:7403   */\n      0x00\n        /* \"#utility.yul\":7489:7507   */\n      0xffffffffffffffff\n        /* \"#utility.yul\":7481:7487   */\n      dup3\n        /* \"#utility.yul\":7478:7508   */\n      gt\n        /* \"#utility.yul\":7475:7531   */\n      iszero\n      tag_312\n      jumpi\n        /* \"#utility.yul\":7511:7529   */\n      tag_313\n      tag_212\n      jump\t// in\n    tag_313:\n        /* \"#utility.yul\":7475:7531   */\n    tag_312:\n        /* \"#utility.yul\":7549:7578   */\n      tag_314\n        /* \"#utility.yul\":7571:7577   */\n      dup3\n        /* \"#utility.yul\":7549:7578   */\n      tag_201\n      jump\t// in\n    tag_314:\n        /* \"#utility.yul\":7541:7578   */\n      swap1\n      pop\n        /* \"#utility.yul\":7633:7637   */\n      0x20\n        /* \"#utility.yul\":7627:7631   */\n      dup2\n        /* \"#utility.yul\":7623:7638   */\n      add\n        /* \"#utility.yul\":7615:7638   */\n      swap1\n      pop\n        /* \"#utility.yul\":7337:7645   */\n      swap2\n      swap1\n      pop\n      jump\t// out\n        /* \"#utility.yul\":7651:7797   */\n    tag_216:\n        /* \"#utility.yul\":7748:7754   */\n      dup3\n        /* \"#utility.yul\":7743:7746   */\n      dup2\n        /* \"#utility.yul\":7738:7741   */\n      dup4\n        /* \"#utility.yul\":7725:7755   */\n      calldatacopy\n        /* \"#utility.yul\":7789:7790   */\n      0x00\n        /* \"#utility.yul\":7780:7786   */\n      dup4\n        /* \"#utility.yul\":7775:7778   */\n      dup4\n        /* \"#utility.yul\":7771:7787   */\n      add\n        /* \"#utility.yul\":7764:7791   */\n      mstore\n        /* \"#utility.yul\":7651:7797   */\n      pop\n      pop\n      pop\n      jump\t// out\n        /* \"#utility.yul\":7803:8228   */\n    tag_217:\n        /* \"#utility.yul\":7881:7886   */\n      0x00\n        /* \"#utility.yul\":7906:7972   */\n      tag_317\n        /* \"#utility.yul\":7922:7971   */\n      tag_318\n        /* \"#utility.yul\":7964:7970   */\n      dup5\n        /* \"#utility.yul\":7922:7971   */\n      tag_215\n      jump\t// in\n    tag_318:\n        /* \"#utility.yul\":7906:7972   */\n      tag_214\n      jump\t// in\n    tag_317:\n        /* \"#utility.yul\":7897:7972   */\n      swap1\n      pop\n        /* \"#utility.yul\":7995:8001   */\n      dup3\n        /* \"#utility.yul\":7988:7993   */\n      dup2\n        /* \"#utility.yul\":7981:8002   */\n      mstore\n        /* \"#utility.yul\":8033:8037   */\n      0x20\n        /* \"#utility.yul\":8026:8031   */\n      dup2\n        /* \"#utility.yul\":8022:8038   */\n      add\n        /* \"#utility.yul\":8071:8074   */\n      dup5\n        /* \"#utility.yul\":8062:8068   */\n      dup5\n        /* \"#utility.yul\":8057:8060   */\n      dup5\n        /* \"#utility.yul\":8053:8069   */\n      add\n        /* \"#utility.yul\":8050:8075   */\n      gt\n        /* \"#utility.yul\":8047:8159   */\n      iszero\n      tag_319\n      jumpi\n        /* \"#utility.yul\":8078:8157   */\n      tag_320\n      tag_211\n      jump\t// in\n    tag_320:\n        /* \"#utility.yul\":8047:8159   */\n    tag_319:\n        /* \"#utility.yul\":8168:8222   */\n      tag_321\n        /* \"#utility.yul\":8215:8221   */\n      dup5\n        /* \"#utility.yul\":8210:8213   */\n      dup3\n        /* \"#utility.yul\":8205:8208   */\n      dup6\n        /* \"#utility.yul\":8168:8222   */\n      tag_216\n      jump\t// in\n    tag_321:\n        /* \"#utility.yul\":7887:8228   */\n      pop\n        /* \"#utility.yul\":7803:8228   */\n      swap4\n      swap3\n      pop\n      pop\n      pop\n      jump\t// out\n        /* \"#utility.yul\":8248:8588   */\n    tag_218:\n        /* \"#utility.yul\":8304:8309   */\n      0x00\n        /* \"#utility.yul\":8353:8356   */\n      dup3\n        /* \"#utility.yul\":8346:8350   */\n      0x1f\n        /* \"#utility.yul\":8338:8344   */\n      dup4\n        /* \"#utility.yul\":8334:8351   */\n      add\n        /* \"#utility.yul\":8330:8357   */\n      slt\n        /* \"#utility.yul\":8320:8442   */\n      tag_323\n      jumpi\n        /* \"#utility.yul\":8361:8440   */\n      tag_324\n      tag_210\n      jump\t// in\n    tag_324:\n        /* \"#utility.yul\":8320:8442   */\n    tag_323:\n        /* \"#utility.yul\":8478:8484   */\n      dup2\n        /* \"#utility.yul\":8465:8485   */\n      calldataload\n        /* \"#utility.yul\":8503:8582   */\n      tag_325\n        /* \"#utility.yul\":8578:8581   */\n      dup5\n        /* \"#utility.yul\":8570:8576   */\n      dup3\n        /* \"#utility.yul\":8563:8567   */\n      0x20\n        /* \"#utility.yul\":8555:8561   */\n      dup7\n        /* \"#utility.yul\":8551:8568   */\n      add\n        /* \"#utility.yul\":8503:8582   */\n      tag_217\n      jump\t// in\n    tag_325:\n        /* \"#utility.yul\":8494:8582   */\n      swap2\n      pop\n        /* \"#utility.yul\":8310:8588   */\n      pop\n        /* \"#utility.yul\":8248:8588   */\n      swap3\n      swap2\n      pop\n      pop\n      jump\t// out\n        /* \"#utility.yul\":8594:9103   */\n    tag_97:\n        /* \"#utility.yul\":8663:8669   */\n      0x00\n        /* \"#utility.yul\":8712:8714   */\n      0x20\n        /* \"#utility.yul\":8700:8709   */\n      dup3\n        /* \"#utility.yul\":8691:8698   */\n      dup5\n        /* \"#utility.yul\":8687:8710   */\n      sub\n        /* \"#utility.yul\":8683:8715   */\n      slt\n        /* \"#utility.yul\":8680:8799   */\n      iszero\n      tag_327\n      jumpi\n        /* \"#utility.yul\":8718:8797   */\n      tag_328\n      tag_191\n      jump\t// in\n    tag_328:\n        /* \"#utility.yul\":8680:8799   */\n    tag_327:\n        /* \"#utility.yul\":8866:8867   */\n      0x00\n        /* \"#utility.yul\":8855:8864   */\n      dup3\n        /* \"#utility.yul\":8851:8868   */\n      add\n        /* \"#utility.yul\":8838:8869   */\n      calldataload\n        /* \"#utility.yul\":8896:8914   */\n      0xffffffffffffffff\n        /* \"#utility.yul\":8888:8894   */\n      dup2\n        /* \"#utility.yul\":8885:8915   */\n      gt\n        /* \"#utility.yul\":8882:8999   */\n      iszero\n      tag_329\n      jumpi\n        /* \"#utility.yul\":8918:8997   */\n      tag_330\n      tag_192\n      jump\t// in\n    tag_330:\n        /* \"#utility.yul\":8882:8999   */\n    tag_329:\n        /* \"#utility.yul\":9023:9086   */\n      tag_331\n        /* \"#utility.yul\":9078:9085   */\n      dup5\n        /* \"#utility.yul\":9069:9075   */\n      dup3\n        /* \"#utility.yul\":9058:9067   */\n      dup6\n        /* \"#utility.yul\":9054:9076   */\n      add\n        /* \"#utility.yul\":9023:9086   */\n      tag_218\n      jump\t// in\n    tag_331:\n        /* \"#utility.yul\":9013:9086   */\n      swap2\n      pop\n        /* \"#utility.yul\":8809:9096   */\n      pop\n        /* \"#utility.yul\":8594:9103   */\n      swap3\n      swap2\n      pop\n      pop\n      jump\t// out\n        /* \"#utility.yul\":9109:9268   */\n    tag_219:\n        /* \"#utility.yul\":9249:9260   */\n      0x6f6e6c7941646d696e0000000000000000000000000000000000000000000000\n        /* \"#utility.yul\":9245:9246   */\n      0x00\n        /* \"#utility.yul\":9237:9243   */\n      dup3\n        /* \"#utility.yul\":9233:9247   */\n      add\n        /* \"#utility.yul\":9226:9261   */\n      mstore\n        /* \"#utility.yul\":9109:9268   */\n      pop\n      jump\t// out\n        /* \"#utility.yul\":9274:9639   */\n    tag_220:\n        /* \"#utility.yul\":9416:9419   */\n      0x00\n        /* \"#utility.yul\":9437:9503   */\n      tag_334\n        /* \"#utility.yul\":9501:9502   */\n      0x09\n        /* \"#utility.yul\":9496:9499   */\n      dup4\n        /* \"#utility.yul\":9437:9503   */\n      tag_199\n      jump\t// in\n    tag_334:\n        /* \"#utility.yul\":9430:9503   */\n      swap2\n      pop\n        /* \"#utility.yul\":9512:9605   */\n      tag_335\n        /* \"#utility.yul\":9601:9604   */\n      dup3\n        /* \"#utility.yul\":9512:9605   */\n      tag_219\n      jump\t// in\n    tag_335:\n        /* \"#utility.yul\":9630:9632   */\n      0x20\n        /* \"#utility.yul\":9625:9628   */\n      dup3\n        /* \"#utility.yul\":9621:9633   */\n      add\n        /* \"#utility.yul\":9614:9633   */\n      swap1\n      pop\n        /* \"#utility.yul\":9274:9639   */\n      swap2\n      swap1\n      pop\n      jump\t// out\n        /* \"#utility.yul\":9645:10064   */\n    tag_104:\n        /* \"#utility.yul\":9811:9815   */\n      0x00\n        /* \"#utility.yul\":9849:9851   */\n      0x20\n        /* \"#utility.yul\":9838:9847   */\n      dup3\n        /* \"#utility.yul\":9834:9852   */\n      add\n        /* \"#utility.yul\":9826:9852   */\n      swap1\n      pop\n        /* \"#utility.yul\":9898:9907   */\n      dup2\n        /* \"#utility.yul\":9892:9896   */\n      dup2\n        /* \"#utility.yul\":9888:9908   */\n      sub\n        /* \"#utility.yul\":9884:9885   */\n      0x00\n        /* \"#utility.yul\":9873:9882   */\n      dup4\n        /* \"#utility.yul\":9869:9886   */\n      add\n        /* \"#utility.yul\":9862:9909   */\n      mstore\n        /* \"#utility.yul\":9926:10057   */\n      tag_337\n        /* \"#utility.yul\":10052:10056   */\n      dup2\n        /* \"#utility.yul\":9926:10057   */\n      tag_220\n      jump\t// in\n    tag_337:\n        /* \"#utility.yul\":9918:10057   */\n      swap1\n      pop\n        /* \"#utility.yul\":9645:10064   */\n      swap2\n      swap1\n      pop\n      jump\t// out\n        /* \"#utility.yul\":10070:10250   */\n    tag_221:\n        /* \"#utility.yul\":10118:10195   */\n      0x4e487b7100000000000000000000000000000000000000000000000000000000\n        /* \"#utility.yul\":10115:10116   */\n      0x00\n        /* \"#utility.yul\":10108:10196   */\n      mstore\n        /* \"#utility.yul\":10215:10219   */\n      0x22\n        /* \"#utility.yul\":10212:10213   */\n      0x04\n        /* \"#utility.yul\":10205:10220   */\n      mstore\n        /* \"#utility.yul\":10239:10243   */\n      0x24\n        /* \"#utility.yul\":10236:10237   */\n      0x00\n        /* \"#utility.yul\":10229:10244   */\n      revert\n        /* \"#utility.yul\":10256:10576   */\n    tag_112:\n        /* \"#utility.yul\":10300:10306   */\n      0x00\n        /* \"#utility.yul\":10337:10338   */\n      0x02\n        /* \"#utility.yul\":10331:10335   */\n      dup3\n        /* \"#utility.yul\":10327:10339   */\n      div\n        /* \"#utility.yul\":10317:10339   */\n      swap1\n      pop\n        /* \"#utility.yul\":10384:10385   */\n      0x01\n        /* \"#utility.yul\":10378:10382   */\n      dup3\n        /* \"#utility.yul\":10374:10386   */\n      and\n        /* \"#utility.yul\":10405:10423   */\n      dup1\n        /* \"#utility.yul\":10395:10476   */\n      tag_340\n      jumpi\n        /* \"#utility.yul\":10461:10465   */\n      0x7f\n        /* \"#utility.yul\":10453:10459   */\n      dup3\n        /* \"#utility.yul\":10449:10466   */\n      and\n        /* \"#utility.yul\":10439:10466   */\n      swap2\n      pop\n        /* \"#utility.yul\":10395:10476   */\n    tag_340:\n        /* \"#utility.yul\":10523:10525   */\n      0x20\n        /* \"#utility.yul\":10515:10521   */\n      dup3\n        /* \"#utility.yul\":10512:10526   */\n      lt\n        /* \"#utility.yul\":10492:10510   */\n      dup2\n        /* \"#utility.yul\":10489:10527   */\n      sub\n        /* \"#utility.yul\":10486:10570   */\n      tag_341\n      jumpi\n        /* \"#utility.yul\":10542:10560   */\n      tag_342\n      tag_221\n      jump\t// in\n    tag_342:\n        /* \"#utility.yul\":10486:10570   */\n    tag_341:\n        /* \"#utility.yul\":10307:10576   */\n      pop\n        /* \"#utility.yul\":10256:10576   */\n      swap2\n      swap1\n      pop\n      jump\t// out\n        /* \"#utility.yul\":10582:10762   */\n    tag_222:\n        /* \"#utility.yul\":10630:10707   */\n      0x4e487b7100000000000000000000000000000000000000000000000000000000\n        /* \"#utility.yul\":10627:10628   */\n      0x00\n        /* \"#utility.yul\":10620:10708   */\n      mstore\n        /* \"#utility.yul\":10727:10731   */\n      0x11\n        /* \"#utility.yul\":10724:10725   */\n      0x04\n        /* \"#utility.yul\":10717:10732   */\n      mstore\n        /* \"#utility.yul\":10751:10755   */\n      0x24\n        /* \"#utility.yul\":10748:10749   */\n      0x00\n        /* \"#utility.yul\":10741:10756   */\n      revert\n        /* \"#utility.yul\":10768:10962   */\n    tag_127:\n        /* \"#utility.yul\":10808:10812   */\n      0x00\n        /* \"#utility.yul\":10828:10848   */\n      tag_345\n        /* \"#utility.yul\":10846:10847   */\n      dup3\n        /* \"#utility.yul\":10828:10848   */\n      tag_193\n      jump\t// in\n    tag_345:\n        /* \"#utility.yul\":10823:10848   */\n      swap2\n      pop\n        /* \"#utility.yul\":10862:10882   */\n      tag_346\n        /* \"#utility.yul\":10880:10881   */\n      dup4\n        /* \"#utility.yul\":10862:10882   */\n      tag_193\n      jump\t// in\n    tag_346:\n        /* \"#utility.yul\":10857:10882   */\n      swap3\n      pop\n        /* \"#utility.yul\":10906:10907   */\n      dup3\n        /* \"#utility.yul\":10903:10904   */\n      dup3\n        /* \"#utility.yul\":10899:10908   */\n      sub\n        /* \"#utility.yul\":10891:10908   */\n      swap1\n      pop\n        /* \"#utility.yul\":10930:10931   */\n      dup2\n        /* \"#utility.yul\":10924:10928   */\n      dup2\n        /* \"#utility.yul\":10921:10932   */\n      gt\n        /* \"#utility.yul\":10918:10955   */\n      iszero\n      tag_347\n      jumpi\n        /* \"#utility.yul\":10935:10953   */\n      tag_348\n      tag_222\n      jump\t// in\n    tag_348:\n        /* \"#utility.yul\":10918:10955   */\n    tag_347:\n        /* \"#utility.yul\":10768:10962   */\n      swap3\n      swap2\n      pop\n      pop\n      jump\t// out\n        /* \"#utility.yul\":10968:11159   */\n    tag_151:\n        /* \"#utility.yul\":11008:11011   */\n      0x00\n        /* \"#utility.yul\":11027:11047   */\n      tag_350\n        /* \"#utility.yul\":11045:11046   */\n      dup3\n        /* \"#utility.yul\":11027:11047   */\n      tag_193\n      jump\t// in\n    tag_350:\n        /* \"#utility.yul\":11022:11047   */\n      swap2\n      pop\n        /* \"#utility.yul\":11061:11081   */\n      tag_351\n        /* \"#utility.yul\":11079:11080   */\n      dup4\n        /* \"#utility.yul\":11061:11081   */\n      tag_193\n      jump\t// in\n    tag_351:\n        /* \"#utility.yul\":11056:11081   */\n      swap3\n      pop\n        /* \"#utility.yul\":11104:11105   */\n      dup3\n        /* \"#utility.yul\":11101:11102   */\n      dup3\n        /* \"#utility.yul\":11097:11106   */\n      add\n        /* \"#utility.yul\":11090:11106   */\n      swap1\n      pop\n        /* \"#utility.yul\":11125:11128   */\n      dup1\n        /* \"#utility.yul\":11122:11123   */\n      dup3\n        /* \"#utility.yul\":11119:11129   */\n      gt\n        /* \"#utility.yul\":11116:11152   */\n      iszero\n      tag_352\n      jumpi\n        /* \"#utility.yul\":11132:11150   */\n      tag_353\n      tag_222\n      jump\t// in\n    tag_353:\n        /* \"#utility.yul\":11116:11152   */\n    tag_352:\n        /* \"#utility.yul\":10968:11159   */\n      swap3\n      swap2\n      pop\n      pop\n      jump\t// out\n        /* \"#utility.yul\":11165:11313   */\n    tag_223:\n        /* \"#utility.yul\":11267:11278   */\n      0x00\n        /* \"#utility.yul\":11304:11307   */\n      dup2\n        /* \"#utility.yul\":11289:11307   */\n      swap1\n      pop\n        /* \"#utility.yul\":11165:11313   */\n      swap3\n      swap2\n      pop\n      pop\n      jump\t// out\n        /* \"#utility.yul\":11319:11709   */\n    tag_224:\n        /* \"#utility.yul\":11425:11428   */\n      0x00\n        /* \"#utility.yul\":11453:11492   */\n      tag_356\n        /* \"#utility.yul\":11486:11491   */\n      dup3\n        /* \"#utility.yul\":11453:11492   */\n      tag_198\n      jump\t// in\n    tag_356:\n        /* \"#utility.yul\":11508:11597   */\n      tag_357\n        /* \"#utility.yul\":11590:11596   */\n      dup2\n        /* \"#utility.yul\":11585:11588   */\n      dup6\n        /* \"#utility.yul\":11508:11597   */\n      tag_223\n      jump\t// in\n    tag_357:\n        /* \"#utility.yul\":11501:11597   */\n      swap4\n      pop\n        /* \"#utility.yul\":11606:11671   */\n      tag_358\n        /* \"#utility.yul\":11664:11670   */\n      dup2\n        /* \"#utility.yul\":11659:11662   */\n      dup6\n        /* \"#utility.yul\":11652:11656   */\n      0x20\n        /* \"#utility.yul\":11645:11650   */\n      dup7\n        /* \"#utility.yul\":11641:11657   */\n      add\n        /* \"#utility.yul\":11606:11671   */\n      tag_200\n      jump\t// in\n    tag_358:\n        /* \"#utility.yul\":11696:11702   */\n      dup1\n        /* \"#utility.yul\":11691:11694   */\n      dup5\n        /* \"#utility.yul\":11687:11703   */\n      add\n        /* \"#utility.yul\":11680:11703   */\n      swap2\n      pop\n        /* \"#utility.yul\":11429:11709   */\n      pop\n        /* \"#utility.yul\":11319:11709   */\n      swap3\n      swap2\n      pop\n      pop\n      jump\t// out\n        /* \"#utility.yul\":11715:11990   */\n    tag_161:\n        /* \"#utility.yul\":11847:11850   */\n      0x00\n        /* \"#utility.yul\":11869:11964   */\n      tag_360\n        /* \"#utility.yul\":11960:11963   */\n      dup3\n        /* \"#utility.yul\":11951:11957   */\n      dup5\n        /* \"#utility.yul\":11869:11964   */\n      tag_224\n      jump\t// in\n    tag_360:\n        /* \"#utility.yul\":11862:11964   */\n      swap2\n      pop\n        /* \"#utility.yul\":11981:11984   */\n      dup2\n        /* \"#utility.yul\":11974:11984   */\n      swap1\n      pop\n        /* \"#utility.yul\":11715:11990   */\n      swap3\n      swap2\n      pop\n      pop\n      jump\t// out\n        /* \"#utility.yul\":11996:12176   */\n    tag_225:\n        /* \"#utility.yul\":12044:12121   */\n      0x4e487b7100000000000000000000000000000000000000000000000000000000\n        /* \"#utility.yul\":12041:12042   */\n      0x00\n        /* \"#utility.yul\":12034:12122   */\n      mstore\n        /* \"#utility.yul\":12141:12145   */\n      0x12\n        /* \"#utility.yul\":12138:12139   */\n      0x04\n        /* \"#utility.yul\":12131:12146   */\n      mstore\n        /* \"#utility.yul\":12165:12169   */\n      0x24\n        /* \"#utility.yul\":12162:12163   */\n      0x00\n        /* \"#utility.yul\":12155:12170   */\n      revert\n        /* \"#utility.yul\":12182:12367   */\n    tag_175:\n        /* \"#utility.yul\":12222:12223   */\n      0x00\n        /* \"#utility.yul\":12239:12259   */\n      tag_363\n        /* \"#utility.yul\":12257:12258   */\n      dup3\n        /* \"#utility.yul\":12239:12259   */\n      tag_193\n      jump\t// in\n    tag_363:\n        /* \"#utility.yul\":12234:12259   */\n      swap2\n      pop\n        /* \"#utility.yul\":12273:12293   */\n      tag_364\n        /* \"#utility.yul\":12291:12292   */\n      dup4\n        /* \"#utility.yul\":12273:12293   */\n      tag_193\n      jump\t// in\n    tag_364:\n        /* \"#utility.yul\":12268:12293   */\n      swap3\n      pop\n        /* \"#utility.yul\":12312:12313   */\n      dup3\n        /* \"#utility.yul\":12302:12337   */\n      tag_365\n      jumpi\n        /* \"#utility.yul\":12317:12335   */\n      tag_366\n      tag_225\n      jump\t// in\n    tag_366:\n        /* \"#utility.yul\":12302:12337   */\n    tag_365:\n        /* \"#utility.yul\":12359:12360   */\n      dup3\n        /* \"#utility.yul\":12356:12357   */\n      dup3\n        /* \"#utility.yul\":12352:12361   */\n      div\n        /* \"#utility.yul\":12347:12361   */\n      swap1\n      pop\n        /* \"#utility.yul\":12182:12367   */\n      swap3\n      swap2\n      pop\n      pop\n      jump\t// out\n        /* \"#utility.yul\":12373:12783   */\n    tag_177:\n        /* \"#utility.yul\":12413:12420   */\n      0x00\n        /* \"#utility.yul\":12436:12456   */\n      tag_368\n        /* \"#utility.yul\":12454:12455   */\n      dup3\n        /* \"#utility.yul\":12436:12456   */\n      tag_193\n      jump\t// in\n    tag_368:\n        /* \"#utility.yul\":12431:12456   */\n      swap2\n      pop\n        /* \"#utility.yul\":12470:12490   */\n      tag_369\n        /* \"#utility.yul\":12488:12489   */\n      dup4\n        /* \"#utility.yul\":12470:12490   */\n      tag_193\n      jump\t// in\n    tag_369:\n        /* \"#utility.yul\":12465:12490   */\n      swap3\n      pop\n        /* \"#utility.yul\":12525:12526   */\n      dup3\n        /* \"#utility.yul\":12522:12523   */\n      dup3\n        /* \"#utility.yul\":12518:12527   */\n      mul\n        /* \"#utility.yul\":12547:12577   */\n      tag_370\n        /* \"#utility.yul\":12565:12576   */\n      dup2\n        /* \"#utility.yul\":12547:12577   */\n      tag_193\n      jump\t// in\n    tag_370:\n        /* \"#utility.yul\":12536:12577   */\n      swap2\n      pop\n        /* \"#utility.yul\":12726:12727   */\n      dup3\n        /* \"#utility.yul\":12717:12724   */\n      dup3\n        /* \"#utility.yul\":12713:12728   */\n      div\n        /* \"#utility.yul\":12710:12711   */\n      dup5\n        /* \"#utility.yul\":12707:12729   */\n      eq\n        /* \"#utility.yul\":12687:12688   */\n      dup4\n        /* \"#utility.yul\":12680:12689   */\n      iszero\n        /* \"#utility.yul\":12660:12743   */\n      or\n        /* \"#utility.yul\":12637:12776   */\n      tag_371\n      jumpi\n        /* \"#utility.yul\":12756:12774   */\n      tag_372\n      tag_222\n      jump\t// in\n    tag_372:\n        /* \"#utility.yul\":12637:12776   */\n    tag_371:\n        /* \"#utility.yul\":12421:12783   */\n      pop\n        /* \"#utility.yul\":12373:12783   */\n      swap3\n      swap2\n      pop\n      pop\n      jump\t// out\n\n    auxdata: 0xa2646970667358221220b6a89c22cabc177c6adad6a82f01a575b80e99d79c8e7bd2edfaf187baed4b7564736f6c63430008120033\n}\n",
				"bytecode": {
					"linkReferences": {},
					"object": "60a06040527fffffffffffffffffffffffffffffffffffffffffffffffffffffffffffffffff6080908152503480156200003857600080fd5b50600060146000016000016000018190555060006014600001600301600001819055506000601460000160060160000181905550600060146000016009016000018190555060006014600001600c0160000181905550600060146000016000016001018190555060006014600001600301600101819055506000601460000160060160010181905550600060146000016009016001018190555060006014600001600c01600101819055506001601460000160000160020181905550600160146000016003016002018190555060066014600001600601600201819055506080516014600001600901600201819055506080516014600001600c01600201819055506040518060400160405280600c81526020017f447265616d6361746368657200000000000000000000000000000000000000008152506028600001908162000183919062000752565b506040518060400160405280600581526020017f445245414d00000000000000000000000000000000000000000000000000000081525060286001019081620001cd919062000752565b506012602860020160006101000a81548160ff021916908360ff1602179055506000602860040181905550602860020160009054906101000a900460ff16600a620002199190620009c9565b630bebc2006200022a919062000a1a565b602860090181905550602860090154602860030181905550336028600b0160006101000a81548173ffffffffffffffffffffffffffffffffffffffff021916908373ffffffffffffffffffffffffffffffffffffffff16021790555060006014601101819055506000601460120181905550600160146013016000018190555060016000803373ffffffffffffffffffffffffffffffffffffffff1673ffffffffffffffffffffffffffffffffffffffff16815260200190815260200160002060006101000a81548160ff021916908315150217905550620003696028600b0160009054906101000a900473ffffffffffffffffffffffffffffffffffffffff16602860020160009054906101000a900460ff16600a6200034c9190620009c9565b630bebc2006200035d919062000a1a565b6200037060201b60201c565b5062000b09565b60008060009050600083101580156200038e57506028600301548311155b8015620003c85750600073ffffffffffffffffffffffffffffffffffffffff168473ffffffffffffffffffffffffffffffffffffffff1614155b620003d257600080fd5b8260286003016000828254620003e9919062000a65565b9250508190555082603560008673ffffffffffffffffffffffffffffffffffffffff1673ffffffffffffffffffffffffffffffffffffffff168152602001908152602001600020600082825462000441919062000aa0565b92505081905583602860040160008282546200045e919062000aa0565b92505081905550508373ffffffffffffffffffffffffffffffffffffffff168173ffffffffffffffffffffffffffffffffffffffff167fddf252ad1be2c89b69c2b068fc378daa952ba7f163c4a11628f55a4df523b3ef85604051620004c5919062000aec565b60405180910390a3600191505092915050565b600081519050919050565b7f4e487b7100000000000000000000000000000000000000000000000000000000600052604160045260246000fd5b7f4e487b7100000000000000000000000000000000000000000000000000000000600052602260045260246000fd5b600060028204905060018216806200055a57607f821691505b60208210810362000570576200056f62000512565b5b50919050565b60008190508160005260206000209050919050565b60006020601f8301049050919050565b600082821b905092915050565b600060088302620005da7fffffffffffffffffffffffffffffffffffffffffffffffffffffffffffffffff826200059b565b620005e686836200059b565b95508019841693508086168417925050509392505050565b6000819050919050565b6000819050919050565b6000620006336200062d6200062784620005fe565b62000608565b620005fe565b9050919050565b6000819050919050565b6200064f8362000612565b620006676200065e826200063a565b848454620005a8565b825550505050565b600090565b6200067e6200066f565b6200068b81848462000644565b505050565b5b81811015620006b357620006a760008262000674565b60018101905062000691565b5050565b601f8211156200070257620006cc8162000576565b620006d7846200058b565b81016020851015620006e7578190505b620006ff620006f6856200058b565b83018262000690565b50505b505050565b600082821c905092915050565b6000620007276000198460080262000707565b1980831691505092915050565b600062000742838362000714565b9150826002028217905092915050565b6200075d82620004d8565b67ffffffffffffffff811115620007795762000778620004e3565b5b62000785825462000541565b62000792828285620006b7565b600060209050601f831160018114620007ca5760008415620007b5578287015190505b620007c1858262000734565b86555062000831565b601f198416620007da8662000576565b60005b828110156200080457848901518255600182019150602085019450602081019050620007dd565b8683101562000824578489015162000820601f89168262000714565b8355505b6001600288020188555050505b505050505050565b7f4e487b7100000000000000000000000000000000000000000000000000000000600052601160045260246000fd5b60008160011c9050919050565b6000808291508390505b6001851115620008c7578086048111156200089f576200089e62000839565b5b6001851615620008af5780820291505b8081029050620008bf8562000868565b94506200087f565b94509492505050565b600082620008e25760019050620009b5565b81620008f25760009050620009b5565b81600181146200090b576002811462000916576200094c565b6001915050620009b5565b60ff8411156200092b576200092a62000839565b5b8360020a91508482111562000945576200094462000839565b5b50620009b5565b5060208310610133831016604e8410600b8410161715620009865782820a90508381111562000980576200097f62000839565b5b620009b5565b62000995848484600162000875565b92509050818404811115620009af57620009ae62000839565b5b81810290505b9392505050565b600060ff82169050919050565b6000620009d682620005fe565b9150620009e383620009bc565b925062000a127fffffffffffffffffffffffffffffffffffffffffffffffffffffffffffffffff8484620008d0565b905092915050565b600062000a2782620005fe565b915062000a3483620005fe565b925082820262000a4481620005fe565b9150828204841483151762000a5e5762000a5d62000839565b5b5092915050565b600062000a7282620005fe565b915062000a7f83620005fe565b925082820390508181111562000a9a5762000a9962000839565b5b92915050565b600062000aad82620005fe565b915062000aba83620005fe565b925082820190508082111562000ad55762000ad462000839565b5b92915050565b62000ae681620005fe565b82525050565b600060208201905062000b03600083018462000adb565b92915050565b608051611b6f62000b2260003960005050611b6f6000f3fe608060405234801561001057600080fd5b50600436106101165760003560e01c806370a08231116100a2578063a694fc3a11610071578063a694fc3a1461031f578063a9059cbb1461034f578063d5abeb011461037f578063dd62ed3e1461039d578063f34e3723146103cd57610116565b806370a082311461028357806379ec5d3a146102b3578063817b1cd2146102e357806395d89b411461030157610116565b806318160ddd116100e957806318160ddd146101b757806323b872dd146101d55780632e17de7814610205578063313ce56714610235578063426233601461025357610116565b8063015af8ee1461011b57806306fdde031461014b578063095ea7b3146101695780630d15fd7714610199575b600080fd5b6101356004803603810190610130919061144f565b6103fd565b60405161014291906114aa565b60405180910390f35b610153610548565b6040516101609190611555565b60405180910390f35b610183600480360381019061017e91906115d5565b6105dd565b60405161019091906114aa565b60405180910390f35b6101a1610747565b6040516101ae9190611624565b60405180910390f35b6101bf610754565b6040516101cc9190611624565b60405180910390f35b6101ef60048036038101906101ea919061163f565b610761565b6040516101fc91906114aa565b60405180910390f35b61021f600480360381019061021a9190611692565b6108e6565b60405161022c91906114aa565b60405180910390f35b61023d610a7c565b60405161024a91906116db565b60405180910390f35b61026d600480360381019061026891906116f6565b610a96565b60405161027a9190611624565b60405180910390f35b61029d600480360381019061029891906116f6565b610adf565b6040516102aa9190611624565b60405180910390f35b6102cd60048036038101906102c891906116f6565b610b28565b6040516102da9190611624565b60405180910390f35b6102eb610b71565b6040516102f89190611624565b60405180910390f35b610309610b7e565b6040516103169190611555565b60405180910390f35b61033960048036038101906103349190611692565b610c13565b60405161034691906114aa565b60405180910390f35b610369600480360381019061036491906115d5565b610d5d565b60405161037691906114aa565b60405180910390f35b610387610d99565b6040516103949190611624565b60405180910390f35b6103b760048036038101906103b29190611723565b610da6565b6040516103c49190611624565b60405180910390f35b6103e760048036038101906103e29190611898565b610e2d565b6040516103f491906114aa565b60405180910390f35b600080339050600115156000808373ffffffffffffffffffffffffffffffffffffffff1673ffffffffffffffffffffffffffffffffffffffff16815260200190815260200160002060009054906101000a900460ff1615151480156104a1575042600f60008373ffffffffffffffffffffffffffffffffffffffff1673ffffffffffffffffffffffffffffffffffffffff1681526020019081526020016000205411155b6104e0576040517f08c379a00000000000000000000000000000000000000000000000000000000081526004016104d79061192d565b60405180910390fd5b60006014600f0154905060006014601001549050600086101580156105055750818611155b8015610512575060008510155b801561051e5750808511155b61052757600080fd5b85601460110181905550846014601201819055506001935050505092915050565b60606028600001805461055a9061197c565b80601f01602080910402602001604051908101604052809291908181526020018280546105869061197c565b80156105d35780601f106105a8576101008083540402835291602001916105d3565b820191906000526020600020905b8154815290600101906020018083116105b657829003601f168201915b5050505050905090565b600080339050600073ffffffffffffffffffffffffffffffffffffffff168173ffffffffffffffffffffffffffffffffffffffff161415801561064d5750600073ffffffffffffffffffffffffffffffffffffffff168473ffffffffffffffffffffffffffffffffffffffff1614155b61065657600080fd5b82603860008373ffffffffffffffffffffffffffffffffffffffff1673ffffffffffffffffffffffffffffffffffffffff16815260200190815260200160002060008673ffffffffffffffffffffffffffffffffffffffff1673ffffffffffffffffffffffffffffffffffffffff168152602001908152602001600020819055508373ffffffffffffffffffffffffffffffffffffffff168173ffffffffffffffffffffffffffffffffffffffff167f8c5be1e5ebec7d5bd14f71427d1e84f3dd0314c0f7b2291e5b200ac8c7c3b925856040516107349190611624565b60405180910390a3600191505092915050565b6000602860070154905090565b6000602860040154905090565b600080603860008673ffffffffffffffffffffffffffffffffffffffff1673ffffffffffffffffffffffffffffffffffffffff16815260200190815260200160002060003373ffffffffffffffffffffffffffffffffffffffff1673ffffffffffffffffffffffffffffffffffffffff1681526020019081526020016000205490507fffffffffffffffffffffffffffffffffffffffffffffffffffffffffffffffff81141580156108135750828110155b61081c57600080fd5b82603860008773ffffffffffffffffffffffffffffffffffffffff1673ffffffffffffffffffffffffffffffffffffffff16815260200190815260200160002060003373ffffffffffffffffffffffffffffffffffffffff1673ffffffffffffffffffffffffffffffffffffffff16815260200190815260200160002060008282546108a891906119dc565b9250508190555060006014601101549050600060146012015490506000806108d38989898787610fd8565b9150915081955050505050509392505050565b6000806028600b0160009054906101000a900473ffffffffffffffffffffffffffffffffffffffff16905060003390506000601460110154905060006014601201549050603660008473ffffffffffffffffffffffffffffffffffffffff1673ffffffffffffffffffffffffffffffffffffffff1681526020019081526020016000205486111561097657600080fd5b60008061098686868a8787610fd8565b9150915087603660008773ffffffffffffffffffffffffffffffffffffffff1673ffffffffffffffffffffffffffffffffffffffff16815260200190815260200160002060008282546109d991906119dc565b9250508190555087603760008773ffffffffffffffffffffffffffffffffffffffff1673ffffffffffffffffffffffffffffffffffffffff1681526020019081526020016000206000828254610a2f91906119dc565b925050819055508760286005016000828254610a4b91906119dc565b925050819055508760286007016000828254610a6791906119dc565b92505081905550819650505050505050919050565b6000602860020160009054906101000a900460ff16905090565b6000603660008373ffffffffffffffffffffffffffffffffffffffff1673ffffffffffffffffffffffffffffffffffffffff168152602001908152602001600020549050919050565b6000603560008373ffffffffffffffffffffffffffffffffffffffff1673ffffffffffffffffffffffffffffffffffffffff168152602001908152602001600020549050919050565b6000603760008373ffffffffffffffffffffffffffffffffffffffff1673ffffffffffffffffffffffffffffffffffffffff168152602001908152602001600020549050919050565b6000602860050154905090565b606060286001018054610b909061197c565b80601f0160208091040260200160405190810160405280929190818152602001828054610bbc9061197c565b8015610c095780601f10610bde57610100808354040283529160200191610c09565b820191906000526020600020905b815481529060010190602001808311610bec57829003601f168201915b5050505050905090565b60008033905060006028600b0160009054906101000a900473ffffffffffffffffffffffffffffffffffffffff1690506000601460110154905060006014601201549050600080610c6786868a8787610fd8565b9150915080603660008873ffffffffffffffffffffffffffffffffffffffff1673ffffffffffffffffffffffffffffffffffffffff1681526020019081526020016000206000828254610cba9190611a10565b9250508190555080603760008873ffffffffffffffffffffffffffffffffffffffff1673ffffffffffffffffffffffffffffffffffffffff1681526020019081526020016000206000828254610d109190611a10565b925050819055508060286005016000828254610d2c9190611a10565b925050819055508060286007016000828254610d489190611a10565b92505081905550819650505050505050919050565b6000803390506000601460110154905060006014601201549050600080610d878589898787610fd8565b91509150819550505050505092915050565b6000602860090154905090565b6000603860008473ffffffffffffffffffffffffffffffffffffffff1673ffffffffffffffffffffffffffffffffffffffff16815260200190815260200160002060008373ffffffffffffffffffffffffffffffffffffffff1673ffffffffffffffffffffffffffffffffffffffff16815260200190815260200160002054905092915050565b6000806028600b0160009054906101000a900473ffffffffffffffffffffffffffffffffffffffff16905060003390506000603460008373ffffffffffffffffffffffffffffffffffffffff1673ffffffffffffffffffffffffffffffffffffffff16815260200190815260200160002085604051610eac9190611a80565b90815260200160405180910390206003015490506000603460008473ffffffffffffffffffffffffffffffffffffffff1673ffffffffffffffffffffffffffffffffffffffff16815260200190815260200160002086604051610f0f9190611a80565b9081526020016040518091039020600401549050428210158015610f335750600081115b610f3c57600080fd5b6000601460110154905060006014601201549050600080610f608888878787610fd8565b915091506000603460008973ffffffffffffffffffffffffffffffffffffffff1673ffffffffffffffffffffffffffffffffffffffff1681526020019081526020016000208b604051610fb39190611a80565b9081526020016040518091039020600401819055508198505050505050505050919050565b600080600073ffffffffffffffffffffffffffffffffffffffff168773ffffffffffffffffffffffffffffffffffffffff16141580156110455750600073ffffffffffffffffffffffffffffffffffffffff168673ffffffffffffffffffffffffffffffffffffffff1614155b8015611090575084603560008973ffffffffffffffffffffffffffffffffffffffff1673ffffffffffffffffffffffffffffffffffffffff1681526020019081526020016000205410155b80156110dc57506000603560008973ffffffffffffffffffffffffffffffffffffffff1673ffffffffffffffffffffffffffffffffffffffff1681526020019081526020016000205410155b80156110e9575060008510155b6110f257600080fd5b84603560008973ffffffffffffffffffffffffffffffffffffffff1673ffffffffffffffffffffffffffffffffffffffff168152602001908152602001600020600082825461114191906119dc565b925050819055506000846103e8876111599190611ac6565b6111639190611af7565b90506000846103e8886111769190611ac6565b6111809190611af7565b9050600081836111909190611a10565b8861119b91906119dc565b905080603560008b73ffffffffffffffffffffffffffffffffffffffff1673ffffffffffffffffffffffffffffffffffffffff16815260200190815260200160002060008282546111ec9190611a10565b9250508190555081603560006028600b0160009054906101000a900473ffffffffffffffffffffffffffffffffffffffff1673ffffffffffffffffffffffffffffffffffffffff1673ffffffffffffffffffffffffffffffffffffffff16815260200190815260200160002060008282546112679190611a10565b92505081905550826028600401600082825461128391906119dc565b925050819055508873ffffffffffffffffffffffffffffffffffffffff168a73ffffffffffffffffffffffffffffffffffffffff167fddf252ad1be2c89b69c2b068fc378daa952ba7f163c4a11628f55a4df523b3ef836040516112e79190611624565b60405180910390a36000831461135e57600073ffffffffffffffffffffffffffffffffffffffff168a73ffffffffffffffffffffffffffffffffffffffff167fddf252ad1be2c89b69c2b068fc378daa952ba7f163c4a11628f55a4df523b3ef856040516113559190611624565b60405180910390a35b600082146113f1576028600b0160009054906101000a900473ffffffffffffffffffffffffffffffffffffffff1673ffffffffffffffffffffffffffffffffffffffff168a73ffffffffffffffffffffffffffffffffffffffff167fddf252ad1be2c89b69c2b068fc378daa952ba7f163c4a11628f55a4df523b3ef846040516113e89190611624565b60405180910390a35b600181945094505050509550959350505050565b6000604051905090565b600080fd5b600080fd5b6000819050919050565b61142c81611419565b811461143757600080fd5b50565b60008135905061144981611423565b92915050565b600080604083850312156114665761146561140f565b5b60006114748582860161143a565b92505060206114858582860161143a565b9150509250929050565b60008115159050919050565b6114a48161148f565b82525050565b60006020820190506114bf600083018461149b565b92915050565b600081519050919050565b600082825260208201905092915050565b60005b838110156114ff5780820151818401526020810190506114e4565b60008484015250505050565b6000601f19601f8301169050919050565b6000611527826114c5565b61153181856114d0565b93506115418185602086016114e1565b61154a8161150b565b840191505092915050565b6000602082019050818103600083015261156f818461151c565b905092915050565b600073ffffffffffffffffffffffffffffffffffffffff82169050919050565b60006115a282611577565b9050919050565b6115b281611597565b81146115bd57600080fd5b50565b6000813590506115cf816115a9565b92915050565b600080604083850312156115ec576115eb61140f565b5b60006115fa858286016115c0565b925050602061160b8582860161143a565b9150509250929050565b61161e81611419565b82525050565b60006020820190506116396000830184611615565b92915050565b6000806000606084860312156116585761165761140f565b5b6000611666868287016115c0565b9350506020611677868287016115c0565b92505060406116888682870161143a565b9150509250925092565b6000602082840312156116a8576116a761140f565b5b60006116b68482850161143a565b91505092915050565b600060ff82169050919050565b6116d5816116bf565b82525050565b60006020820190506116f060008301846116cc565b92915050565b60006020828403121561170c5761170b61140f565b5b600061171a848285016115c0565b91505092915050565b6000806040838503121561173a5761173961140f565b5b6000611748858286016115c0565b9250506020611759858286016115c0565b9150509250929050565b600080fd5b600080fd5b7f4e487b7100000000000000000000000000000000000000000000000000000000600052604160045260246000fd5b6117a58261150b565b810181811067ffffffffffffffff821117156117c4576117c361176d565b5b80604052505050565b60006117d7611405565b90506117e3828261179c565b919050565b600067ffffffffffffffff8211156118035761180261176d565b5b61180c8261150b565b9050602081019050919050565b82818337600083830152505050565b600061183b611836846117e8565b6117cd565b90508281526020810184848401111561185757611856611768565b5b611862848285611819565b509392505050565b600082601f83011261187f5761187e611763565b5b813561188f848260208601611828565b91505092915050565b6000602082840312156118ae576118ad61140f565b5b600082013567ffffffffffffffff8111156118cc576118cb611414565b5b6118d88482850161186a565b91505092915050565b7f6f6e6c7941646d696e0000000000000000000000000000000000000000000000600082015250565b60006119176009836114d0565b9150611922826118e1565b602082019050919050565b600060208201905081810360008301526119468161190a565b9050919050565b7f4e487b7100000000000000000000000000000000000000000000000000000000600052602260045260246000fd5b6000600282049050600182168061199457607f821691505b6020821081036119a7576119a661194d565b5b50919050565b7f4e487b7100000000000000000000000000000000000000000000000000000000600052601160045260246000fd5b60006119e782611419565b91506119f283611419565b9250828203905081811115611a0a57611a096119ad565b5b92915050565b6000611a1b82611419565b9150611a2683611419565b9250828201905080821115611a3e57611a3d6119ad565b5b92915050565b600081905092915050565b6000611a5a826114c5565b611a648185611a44565b9350611a748185602086016114e1565b80840191505092915050565b6000611a8c8284611a4f565b915081905092915050565b7f4e487b7100000000000000000000000000000000000000000000000000000000600052601260045260246000fd5b6000611ad182611419565b9150611adc83611419565b925082611aec57611aeb611a97565b5b828204905092915050565b6000611b0282611419565b9150611b0d83611419565b9250828202611b1b81611419565b91508282048414831517611b3257611b316119ad565b5b509291505056fea2646970667358221220b6a89c22cabc177c6adad6a82f01a575b80e99d79c8e7bd2edfaf187baed4b7564736f6c63430008120033",
					"opcodes": "PUSH1 0xA0 PUSH1 0x40 MSTORE PUSH32 0xFFFFFFFFFFFFFFFFFFFFFFFFFFFFFFFFFFFFFFFFFFFFFFFFFFFFFFFFFFFFFFFF PUSH1 0x80 SWAP1 DUP2 MSTORE POP CALLVALUE DUP1 ISZERO PUSH3 0x38 JUMPI PUSH1 0x0 DUP1 REVERT JUMPDEST POP PUSH1 0x0 PUSH1 0x14 PUSH1 0x0 ADD PUSH1 0x0 ADD PUSH1 0x0 ADD DUP2 SWAP1 SSTORE POP PUSH1 0x0 PUSH1 0x14 PUSH1 0x0 ADD PUSH1 0x3 ADD PUSH1 0x0 ADD DUP2 SWAP1 SSTORE POP PUSH1 0x0 PUSH1 0x14 PUSH1 0x0 ADD PUSH1 0x6 ADD PUSH1 0x0 ADD DUP2 SWAP1 SSTORE POP PUSH1 0x0 PUSH1 0x14 PUSH1 0x0 ADD PUSH1 0x9 ADD PUSH1 0x0 ADD DUP2 SWAP1 SSTORE POP PUSH1 0x0 PUSH1 0x14 PUSH1 0x0 ADD PUSH1 0xC ADD PUSH1 0x0 ADD DUP2 SWAP1 SSTORE POP PUSH1 0x0 PUSH1 0x14 PUSH1 0x0 ADD PUSH1 0x0 ADD PUSH1 0x1 ADD DUP2 SWAP1 SSTORE POP PUSH1 0x0 PUSH1 0x14 PUSH1 0x0 ADD PUSH1 0x3 ADD PUSH1 0x1 ADD DUP2 SWAP1 SSTORE POP PUSH1 0x0 PUSH1 0x14 PUSH1 0x0 ADD PUSH1 0x6 ADD PUSH1 0x1 ADD DUP2 SWAP1 SSTORE POP PUSH1 0x0 PUSH1 0x14 PUSH1 0x0 ADD PUSH1 0x9 ADD PUSH1 0x1 ADD DUP2 SWAP1 SSTORE POP PUSH1 0x0 PUSH1 0x14 PUSH1 0x0 ADD PUSH1 0xC ADD PUSH1 0x1 ADD DUP2 SWAP1 SSTORE POP PUSH1 0x1 PUSH1 0x14 PUSH1 0x0 ADD PUSH1 0x0 ADD PUSH1 0x2 ADD DUP2 SWAP1 SSTORE POP PUSH1 0x1 PUSH1 0x14 PUSH1 0x0 ADD PUSH1 0x3 ADD PUSH1 0x2 ADD DUP2 SWAP1 SSTORE POP PUSH1 0x6 PUSH1 0x14 PUSH1 0x0 ADD PUSH1 0x6 ADD PUSH1 0x2 ADD DUP2 SWAP1 SSTORE POP PUSH1 0x80 MLOAD PUSH1 0x14 PUSH1 0x0 ADD PUSH1 0x9 ADD PUSH1 0x2 ADD DUP2 SWAP1 SSTORE POP PUSH1 0x80 MLOAD PUSH1 0x14 PUSH1 0x0 ADD PUSH1 0xC ADD PUSH1 0x2 ADD DUP2 SWAP1 SSTORE POP PUSH1 0x40 MLOAD DUP1 PUSH1 0x40 ADD PUSH1 0x40 MSTORE DUP1 PUSH1 0xC DUP2 MSTORE PUSH1 0x20 ADD PUSH32 0x447265616D636174636865720000000000000000000000000000000000000000 DUP2 MSTORE POP PUSH1 0x28 PUSH1 0x0 ADD SWAP1 DUP2 PUSH3 0x183 SWAP2 SWAP1 PUSH3 0x752 JUMP JUMPDEST POP PUSH1 0x40 MLOAD DUP1 PUSH1 0x40 ADD PUSH1 0x40 MSTORE DUP1 PUSH1 0x5 DUP2 MSTORE PUSH1 0x20 ADD PUSH32 0x445245414D000000000000000000000000000000000000000000000000000000 DUP2 MSTORE POP PUSH1 0x28 PUSH1 0x1 ADD SWAP1 DUP2 PUSH3 0x1CD SWAP2 SWAP1 PUSH3 0x752 JUMP JUMPDEST POP PUSH1 0x12 PUSH1 0x28 PUSH1 0x2 ADD PUSH1 0x0 PUSH2 0x100 EXP DUP2 SLOAD DUP2 PUSH1 0xFF MUL NOT AND SWAP1 DUP4 PUSH1 0xFF AND MUL OR SWAP1 SSTORE POP PUSH1 0x0 PUSH1 0x28 PUSH1 0x4 ADD DUP2 SWAP1 SSTORE POP PUSH1 0x28 PUSH1 0x2 ADD PUSH1 0x0 SWAP1 SLOAD SWAP1 PUSH2 0x100 EXP SWAP1 DIV PUSH1 0xFF AND PUSH1 0xA PUSH3 0x219 SWAP2 SWAP1 PUSH3 0x9C9 JUMP JUMPDEST PUSH4 0xBEBC200 PUSH3 0x22A SWAP2 SWAP1 PUSH3 0xA1A JUMP JUMPDEST PUSH1 0x28 PUSH1 0x9 ADD DUP2 SWAP1 SSTORE POP PUSH1 0x28 PUSH1 0x9 ADD SLOAD PUSH1 0x28 PUSH1 0x3 ADD DUP2 SWAP1 SSTORE POP CALLER PUSH1 0x28 PUSH1 0xB ADD PUSH1 0x0 PUSH2 0x100 EXP DUP2 SLOAD DUP2 PUSH20 0xFFFFFFFFFFFFFFFFFFFFFFFFFFFFFFFFFFFFFFFF MUL NOT AND SWAP1 DUP4 PUSH20 0xFFFFFFFFFFFFFFFFFFFFFFFFFFFFFFFFFFFFFFFF AND MUL OR SWAP1 SSTORE POP PUSH1 0x0 PUSH1 0x14 PUSH1 0x11 ADD DUP2 SWAP1 SSTORE POP PUSH1 0x0 PUSH1 0x14 PUSH1 0x12 ADD DUP2 SWAP1 SSTORE POP PUSH1 0x1 PUSH1 0x14 PUSH1 0x13 ADD PUSH1 0x0 ADD DUP2 SWAP1 SSTORE POP PUSH1 0x1 PUSH1 0x0 DUP1 CALLER PUSH20 0xFFFFFFFFFFFFFFFFFFFFFFFFFFFFFFFFFFFFFFFF AND PUSH20 0xFFFFFFFFFFFFFFFFFFFFFFFFFFFFFFFFFFFFFFFF AND DUP2 MSTORE PUSH1 0x20 ADD SWAP1 DUP2 MSTORE PUSH1 0x20 ADD PUSH1 0x0 KECCAK256 PUSH1 0x0 PUSH2 0x100 EXP DUP2 SLOAD DUP2 PUSH1 0xFF MUL NOT AND SWAP1 DUP4 ISZERO ISZERO MUL OR SWAP1 SSTORE POP PUSH3 0x369 PUSH1 0x28 PUSH1 0xB ADD PUSH1 0x0 SWAP1 SLOAD SWAP1 PUSH2 0x100 EXP SWAP1 DIV PUSH20 0xFFFFFFFFFFFFFFFFFFFFFFFFFFFFFFFFFFFFFFFF AND PUSH1 0x28 PUSH1 0x2 ADD PUSH1 0x0 SWAP1 SLOAD SWAP1 PUSH2 0x100 EXP SWAP1 DIV PUSH1 0xFF AND PUSH1 0xA PUSH3 0x34C SWAP2 SWAP1 PUSH3 0x9C9 JUMP JUMPDEST PUSH4 0xBEBC200 PUSH3 0x35D SWAP2 SWAP1 PUSH3 0xA1A JUMP JUMPDEST PUSH3 0x370 PUSH1 0x20 SHL PUSH1 0x20 SHR JUMP JUMPDEST POP PUSH3 0xB09 JUMP JUMPDEST PUSH1 0x0 DUP1 PUSH1 0x0 SWAP1 POP PUSH1 0x0 DUP4 LT ISZERO DUP1 ISZERO PUSH3 0x38E JUMPI POP PUSH1 0x28 PUSH1 0x3 ADD SLOAD DUP4 GT ISZERO JUMPDEST DUP1 ISZERO PUSH3 0x3C8 JUMPI POP PUSH1 0x0 PUSH20 0xFFFFFFFFFFFFFFFFFFFFFFFFFFFFFFFFFFFFFFFF AND DUP5 PUSH20 0xFFFFFFFFFFFFFFFFFFFFFFFFFFFFFFFFFFFFFFFF AND EQ ISZERO JUMPDEST PUSH3 0x3D2 JUMPI PUSH1 0x0 DUP1 REVERT JUMPDEST DUP3 PUSH1 0x28 PUSH1 0x3 ADD PUSH1 0x0 DUP3 DUP3 SLOAD PUSH3 0x3E9 SWAP2 SWAP1 PUSH3 0xA65 JUMP JUMPDEST SWAP3 POP POP DUP2 SWAP1 SSTORE POP DUP3 PUSH1 0x35 PUSH1 0x0 DUP7 PUSH20 0xFFFFFFFFFFFFFFFFFFFFFFFFFFFFFFFFFFFFFFFF AND PUSH20 0xFFFFFFFFFFFFFFFFFFFFFFFFFFFFFFFFFFFFFFFF AND DUP2 MSTORE PUSH1 0x20 ADD SWAP1 DUP2 MSTORE PUSH1 0x20 ADD PUSH1 0x0 KECCAK256 PUSH1 0x0 DUP3 DUP3 SLOAD PUSH3 0x441 SWAP2 SWAP1 PUSH3 0xAA0 JUMP JUMPDEST SWAP3 POP POP DUP2 SWAP1 SSTORE DUP4 PUSH1 0x28 PUSH1 0x4 ADD PUSH1 0x0 DUP3 DUP3 SLOAD PUSH3 0x45E SWAP2 SWAP1 PUSH3 0xAA0 JUMP JUMPDEST SWAP3 POP POP DUP2 SWAP1 SSTORE POP POP DUP4 PUSH20 0xFFFFFFFFFFFFFFFFFFFFFFFFFFFFFFFFFFFFFFFF AND DUP2 PUSH20 0xFFFFFFFFFFFFFFFFFFFFFFFFFFFFFFFFFFFFFFFF AND PUSH32 0xDDF252AD1BE2C89B69C2B068FC378DAA952BA7F163C4A11628F55A4DF523B3EF DUP6 PUSH1 0x40 MLOAD PUSH3 0x4C5 SWAP2 SWAP1 PUSH3 0xAEC JUMP JUMPDEST PUSH1 0x40 MLOAD DUP1 SWAP2 SUB SWAP1 LOG3 PUSH1 0x1 SWAP2 POP POP SWAP3 SWAP2 POP POP JUMP JUMPDEST PUSH1 0x0 DUP2 MLOAD SWAP1 POP SWAP2 SWAP1 POP JUMP JUMPDEST PUSH32 0x4E487B7100000000000000000000000000000000000000000000000000000000 PUSH1 0x0 MSTORE PUSH1 0x41 PUSH1 0x4 MSTORE PUSH1 0x24 PUSH1 0x0 REVERT JUMPDEST PUSH32 0x4E487B7100000000000000000000000000000000000000000000000000000000 PUSH1 0x0 MSTORE PUSH1 0x22 PUSH1 0x4 MSTORE PUSH1 0x24 PUSH1 0x0 REVERT JUMPDEST PUSH1 0x0 PUSH1 0x2 DUP3 DIV SWAP1 POP PUSH1 0x1 DUP3 AND DUP1 PUSH3 0x55A JUMPI PUSH1 0x7F DUP3 AND SWAP2 POP JUMPDEST PUSH1 0x20 DUP3 LT DUP2 SUB PUSH3 0x570 JUMPI PUSH3 0x56F PUSH3 0x512 JUMP JUMPDEST JUMPDEST POP SWAP2 SWAP1 POP JUMP JUMPDEST PUSH1 0x0 DUP2 SWAP1 POP DUP2 PUSH1 0x0 MSTORE PUSH1 0x20 PUSH1 0x0 KECCAK256 SWAP1 POP SWAP2 SWAP1 POP JUMP JUMPDEST PUSH1 0x0 PUSH1 0x20 PUSH1 0x1F DUP4 ADD DIV SWAP1 POP SWAP2 SWAP1 POP JUMP JUMPDEST PUSH1 0x0 DUP3 DUP3 SHL SWAP1 POP SWAP3 SWAP2 POP POP JUMP JUMPDEST PUSH1 0x0 PUSH1 0x8 DUP4 MUL PUSH3 0x5DA PUSH32 0xFFFFFFFFFFFFFFFFFFFFFFFFFFFFFFFFFFFFFFFFFFFFFFFFFFFFFFFFFFFFFFFF DUP3 PUSH3 0x59B JUMP JUMPDEST PUSH3 0x5E6 DUP7 DUP4 PUSH3 0x59B JUMP JUMPDEST SWAP6 POP DUP1 NOT DUP5 AND SWAP4 POP DUP1 DUP7 AND DUP5 OR SWAP3 POP POP POP SWAP4 SWAP3 POP POP POP JUMP JUMPDEST PUSH1 0x0 DUP2 SWAP1 POP SWAP2 SWAP1 POP JUMP JUMPDEST PUSH1 0x0 DUP2 SWAP1 POP SWAP2 SWAP1 POP JUMP JUMPDEST PUSH1 0x0 PUSH3 0x633 PUSH3 0x62D PUSH3 0x627 DUP5 PUSH3 0x5FE JUMP JUMPDEST PUSH3 0x608 JUMP JUMPDEST PUSH3 0x5FE JUMP JUMPDEST SWAP1 POP SWAP2 SWAP1 POP JUMP JUMPDEST PUSH1 0x0 DUP2 SWAP1 POP SWAP2 SWAP1 POP JUMP JUMPDEST PUSH3 0x64F DUP4 PUSH3 0x612 JUMP JUMPDEST PUSH3 0x667 PUSH3 0x65E DUP3 PUSH3 0x63A JUMP JUMPDEST DUP5 DUP5 SLOAD PUSH3 0x5A8 JUMP JUMPDEST DUP3 SSTORE POP POP POP POP JUMP JUMPDEST PUSH1 0x0 SWAP1 JUMP JUMPDEST PUSH3 0x67E PUSH3 0x66F JUMP JUMPDEST PUSH3 0x68B DUP2 DUP5 DUP5 PUSH3 0x644 JUMP JUMPDEST POP POP POP JUMP JUMPDEST JUMPDEST DUP2 DUP2 LT ISZERO PUSH3 0x6B3 JUMPI PUSH3 0x6A7 PUSH1 0x0 DUP3 PUSH3 0x674 JUMP JUMPDEST PUSH1 0x1 DUP2 ADD SWAP1 POP PUSH3 0x691 JUMP JUMPDEST POP POP JUMP JUMPDEST PUSH1 0x1F DUP3 GT ISZERO PUSH3 0x702 JUMPI PUSH3 0x6CC DUP2 PUSH3 0x576 JUMP JUMPDEST PUSH3 0x6D7 DUP5 PUSH3 0x58B JUMP JUMPDEST DUP2 ADD PUSH1 0x20 DUP6 LT ISZERO PUSH3 0x6E7 JUMPI DUP2 SWAP1 POP JUMPDEST PUSH3 0x6FF PUSH3 0x6F6 DUP6 PUSH3 0x58B JUMP JUMPDEST DUP4 ADD DUP3 PUSH3 0x690 JUMP JUMPDEST POP POP JUMPDEST POP POP POP JUMP JUMPDEST PUSH1 0x0 DUP3 DUP3 SHR SWAP1 POP SWAP3 SWAP2 POP POP JUMP JUMPDEST PUSH1 0x0 PUSH3 0x727 PUSH1 0x0 NOT DUP5 PUSH1 0x8 MUL PUSH3 0x707 JUMP JUMPDEST NOT DUP1 DUP4 AND SWAP2 POP POP SWAP3 SWAP2 POP POP JUMP JUMPDEST PUSH1 0x0 PUSH3 0x742 DUP4 DUP4 PUSH3 0x714 JUMP JUMPDEST SWAP2 POP DUP3 PUSH1 0x2 MUL DUP3 OR SWAP1 POP SWAP3 SWAP2 POP POP JUMP JUMPDEST PUSH3 0x75D DUP3 PUSH3 0x4D8 JUMP JUMPDEST PUSH8 0xFFFFFFFFFFFFFFFF DUP2 GT ISZERO PUSH3 0x779 JUMPI PUSH3 0x778 PUSH3 0x4E3 JUMP JUMPDEST JUMPDEST PUSH3 0x785 DUP3 SLOAD PUSH3 0x541 JUMP JUMPDEST PUSH3 0x792 DUP3 DUP3 DUP6 PUSH3 0x6B7 JUMP JUMPDEST PUSH1 0x0 PUSH1 0x20 SWAP1 POP PUSH1 0x1F DUP4 GT PUSH1 0x1 DUP2 EQ PUSH3 0x7CA JUMPI PUSH1 0x0 DUP5 ISZERO PUSH3 0x7B5 JUMPI DUP3 DUP8 ADD MLOAD SWAP1 POP JUMPDEST PUSH3 0x7C1 DUP6 DUP3 PUSH3 0x734 JUMP JUMPDEST DUP7 SSTORE POP PUSH3 0x831 JUMP JUMPDEST PUSH1 0x1F NOT DUP5 AND PUSH3 0x7DA DUP7 PUSH3 0x576 JUMP JUMPDEST PUSH1 0x0 JUMPDEST DUP3 DUP2 LT ISZERO PUSH3 0x804 JUMPI DUP5 DUP10 ADD MLOAD DUP3 SSTORE PUSH1 0x1 DUP3 ADD SWAP2 POP PUSH1 0x20 DUP6 ADD SWAP5 POP PUSH1 0x20 DUP2 ADD SWAP1 POP PUSH3 0x7DD JUMP JUMPDEST DUP7 DUP4 LT ISZERO PUSH3 0x824 JUMPI DUP5 DUP10 ADD MLOAD PUSH3 0x820 PUSH1 0x1F DUP10 AND DUP3 PUSH3 0x714 JUMP JUMPDEST DUP4 SSTORE POP JUMPDEST PUSH1 0x1 PUSH1 0x2 DUP9 MUL ADD DUP9 SSTORE POP POP POP JUMPDEST POP POP POP POP POP POP JUMP JUMPDEST PUSH32 0x4E487B7100000000000000000000000000000000000000000000000000000000 PUSH1 0x0 MSTORE PUSH1 0x11 PUSH1 0x4 MSTORE PUSH1 0x24 PUSH1 0x0 REVERT JUMPDEST PUSH1 0x0 DUP2 PUSH1 0x1 SHR SWAP1 POP SWAP2 SWAP1 POP JUMP JUMPDEST PUSH1 0x0 DUP1 DUP3 SWAP2 POP DUP4 SWAP1 POP JUMPDEST PUSH1 0x1 DUP6 GT ISZERO PUSH3 0x8C7 JUMPI DUP1 DUP7 DIV DUP2 GT ISZERO PUSH3 0x89F JUMPI PUSH3 0x89E PUSH3 0x839 JUMP JUMPDEST JUMPDEST PUSH1 0x1 DUP6 AND ISZERO PUSH3 0x8AF JUMPI DUP1 DUP3 MUL SWAP2 POP JUMPDEST DUP1 DUP2 MUL SWAP1 POP PUSH3 0x8BF DUP6 PUSH3 0x868 JUMP JUMPDEST SWAP5 POP PUSH3 0x87F JUMP JUMPDEST SWAP5 POP SWAP5 SWAP3 POP POP POP JUMP JUMPDEST PUSH1 0x0 DUP3 PUSH3 0x8E2 JUMPI PUSH1 0x1 SWAP1 POP PUSH3 0x9B5 JUMP JUMPDEST DUP2 PUSH3 0x8F2 JUMPI PUSH1 0x0 SWAP1 POP PUSH3 0x9B5 JUMP JUMPDEST DUP2 PUSH1 0x1 DUP2 EQ PUSH3 0x90B JUMPI PUSH1 0x2 DUP2 EQ PUSH3 0x916 JUMPI PUSH3 0x94C JUMP JUMPDEST PUSH1 0x1 SWAP2 POP POP PUSH3 0x9B5 JUMP JUMPDEST PUSH1 0xFF DUP5 GT ISZERO PUSH3 0x92B JUMPI PUSH3 0x92A PUSH3 0x839 JUMP JUMPDEST JUMPDEST DUP4 PUSH1 0x2 EXP SWAP2 POP DUP5 DUP3 GT ISZERO PUSH3 0x945 JUMPI PUSH3 0x944 PUSH3 0x839 JUMP JUMPDEST JUMPDEST POP PUSH3 0x9B5 JUMP JUMPDEST POP PUSH1 0x20 DUP4 LT PUSH2 0x133 DUP4 LT AND PUSH1 0x4E DUP5 LT PUSH1 0xB DUP5 LT AND OR ISZERO PUSH3 0x986 JUMPI DUP3 DUP3 EXP SWAP1 POP DUP4 DUP2 GT ISZERO PUSH3 0x980 JUMPI PUSH3 0x97F PUSH3 0x839 JUMP JUMPDEST JUMPDEST PUSH3 0x9B5 JUMP JUMPDEST PUSH3 0x995 DUP5 DUP5 DUP5 PUSH1 0x1 PUSH3 0x875 JUMP JUMPDEST SWAP3 POP SWAP1 POP DUP2 DUP5 DIV DUP2 GT ISZERO PUSH3 0x9AF JUMPI PUSH3 0x9AE PUSH3 0x839 JUMP JUMPDEST JUMPDEST DUP2 DUP2 MUL SWAP1 POP JUMPDEST SWAP4 SWAP3 POP POP POP JUMP JUMPDEST PUSH1 0x0 PUSH1 0xFF DUP3 AND SWAP1 POP SWAP2 SWAP1 POP JUMP JUMPDEST PUSH1 0x0 PUSH3 0x9D6 DUP3 PUSH3 0x5FE JUMP JUMPDEST SWAP2 POP PUSH3 0x9E3 DUP4 PUSH3 0x9BC JUMP JUMPDEST SWAP3 POP PUSH3 0xA12 PUSH32 0xFFFFFFFFFFFFFFFFFFFFFFFFFFFFFFFFFFFFFFFFFFFFFFFFFFFFFFFFFFFFFFFF DUP5 DUP5 PUSH3 0x8D0 JUMP JUMPDEST SWAP1 POP SWAP3 SWAP2 POP POP JUMP JUMPDEST PUSH1 0x0 PUSH3 0xA27 DUP3 PUSH3 0x5FE JUMP JUMPDEST SWAP2 POP PUSH3 0xA34 DUP4 PUSH3 0x5FE JUMP JUMPDEST SWAP3 POP DUP3 DUP3 MUL PUSH3 0xA44 DUP2 PUSH3 0x5FE JUMP JUMPDEST SWAP2 POP DUP3 DUP3 DIV DUP5 EQ DUP4 ISZERO OR PUSH3 0xA5E JUMPI PUSH3 0xA5D PUSH3 0x839 JUMP JUMPDEST JUMPDEST POP SWAP3 SWAP2 POP POP JUMP JUMPDEST PUSH1 0x0 PUSH3 0xA72 DUP3 PUSH3 0x5FE JUMP JUMPDEST SWAP2 POP PUSH3 0xA7F DUP4 PUSH3 0x5FE JUMP JUMPDEST SWAP3 POP DUP3 DUP3 SUB SWAP1 POP DUP2 DUP2 GT ISZERO PUSH3 0xA9A JUMPI PUSH3 0xA99 PUSH3 0x839 JUMP JUMPDEST JUMPDEST SWAP3 SWAP2 POP POP JUMP JUMPDEST PUSH1 0x0 PUSH3 0xAAD DUP3 PUSH3 0x5FE JUMP JUMPDEST SWAP2 POP PUSH3 0xABA DUP4 PUSH3 0x5FE JUMP JUMPDEST SWAP3 POP DUP3 DUP3 ADD SWAP1 POP DUP1 DUP3 GT ISZERO PUSH3 0xAD5 JUMPI PUSH3 0xAD4 PUSH3 0x839 JUMP JUMPDEST JUMPDEST SWAP3 SWAP2 POP POP JUMP JUMPDEST PUSH3 0xAE6 DUP2 PUSH3 0x5FE JUMP JUMPDEST DUP3 MSTORE POP POP JUMP JUMPDEST PUSH1 0x0 PUSH1 0x20 DUP3 ADD SWAP1 POP PUSH3 0xB03 PUSH1 0x0 DUP4 ADD DUP5 PUSH3 0xADB JUMP JUMPDEST SWAP3 SWAP2 POP POP JUMP JUMPDEST PUSH1 0x80 MLOAD PUSH2 0x1B6F PUSH3 0xB22 PUSH1 0x0 CODECOPY PUSH1 0x0 POP POP PUSH2 0x1B6F PUSH1 0x0 RETURN INVALID PUSH1 0x80 PUSH1 0x40 MSTORE CALLVALUE DUP1 ISZERO PUSH2 0x10 JUMPI PUSH1 0x0 DUP1 REVERT JUMPDEST POP PUSH1 0x4 CALLDATASIZE LT PUSH2 0x116 JUMPI PUSH1 0x0 CALLDATALOAD PUSH1 0xE0 SHR DUP1 PUSH4 0x70A08231 GT PUSH2 0xA2 JUMPI DUP1 PUSH4 0xA694FC3A GT PUSH2 0x71 JUMPI DUP1 PUSH4 0xA694FC3A EQ PUSH2 0x31F JUMPI DUP1 PUSH4 0xA9059CBB EQ PUSH2 0x34F JUMPI DUP1 PUSH4 0xD5ABEB01 EQ PUSH2 0x37F JUMPI DUP1 PUSH4 0xDD62ED3E EQ PUSH2 0x39D JUMPI DUP1 PUSH4 0xF34E3723 EQ PUSH2 0x3CD JUMPI PUSH2 0x116 JUMP JUMPDEST DUP1 PUSH4 0x70A08231 EQ PUSH2 0x283 JUMPI DUP1 PUSH4 0x79EC5D3A EQ PUSH2 0x2B3 JUMPI DUP1 PUSH4 0x817B1CD2 EQ PUSH2 0x2E3 JUMPI DUP1 PUSH4 0x95D89B41 EQ PUSH2 0x301 JUMPI PUSH2 0x116 JUMP JUMPDEST DUP1 PUSH4 0x18160DDD GT PUSH2 0xE9 JUMPI DUP1 PUSH4 0x18160DDD EQ PUSH2 0x1B7 JUMPI DUP1 PUSH4 0x23B872DD EQ PUSH2 0x1D5 JUMPI DUP1 PUSH4 0x2E17DE78 EQ PUSH2 0x205 JUMPI DUP1 PUSH4 0x313CE567 EQ PUSH2 0x235 JUMPI DUP1 PUSH4 0x42623360 EQ PUSH2 0x253 JUMPI PUSH2 0x116 JUMP JUMPDEST DUP1 PUSH4 0x15AF8EE EQ PUSH2 0x11B JUMPI DUP1 PUSH4 0x6FDDE03 EQ PUSH2 0x14B JUMPI DUP1 PUSH4 0x95EA7B3 EQ PUSH2 0x169 JUMPI DUP1 PUSH4 0xD15FD77 EQ PUSH2 0x199 JUMPI JUMPDEST PUSH1 0x0 DUP1 REVERT JUMPDEST PUSH2 0x135 PUSH1 0x4 DUP1 CALLDATASIZE SUB DUP2 ADD SWAP1 PUSH2 0x130 SWAP2 SWAP1 PUSH2 0x144F JUMP JUMPDEST PUSH2 0x3FD JUMP JUMPDEST PUSH1 0x40 MLOAD PUSH2 0x142 SWAP2 SWAP1 PUSH2 0x14AA JUMP JUMPDEST PUSH1 0x40 MLOAD DUP1 SWAP2 SUB SWAP1 RETURN JUMPDEST PUSH2 0x153 PUSH2 0x548 JUMP JUMPDEST PUSH1 0x40 MLOAD PUSH2 0x160 SWAP2 SWAP1 PUSH2 0x1555 JUMP JUMPDEST PUSH1 0x40 MLOAD DUP1 SWAP2 SUB SWAP1 RETURN JUMPDEST PUSH2 0x183 PUSH1 0x4 DUP1 CALLDATASIZE SUB DUP2 ADD SWAP1 PUSH2 0x17E SWAP2 SWAP1 PUSH2 0x15D5 JUMP JUMPDEST PUSH2 0x5DD JUMP JUMPDEST PUSH1 0x40 MLOAD PUSH2 0x190 SWAP2 SWAP1 PUSH2 0x14AA JUMP JUMPDEST PUSH1 0x40 MLOAD DUP1 SWAP2 SUB SWAP1 RETURN JUMPDEST PUSH2 0x1A1 PUSH2 0x747 JUMP JUMPDEST PUSH1 0x40 MLOAD PUSH2 0x1AE SWAP2 SWAP1 PUSH2 0x1624 JUMP JUMPDEST PUSH1 0x40 MLOAD DUP1 SWAP2 SUB SWAP1 RETURN JUMPDEST PUSH2 0x1BF PUSH2 0x754 JUMP JUMPDEST PUSH1 0x40 MLOAD PUSH2 0x1CC SWAP2 SWAP1 PUSH2 0x1624 JUMP JUMPDEST PUSH1 0x40 MLOAD DUP1 SWAP2 SUB SWAP1 RETURN JUMPDEST PUSH2 0x1EF PUSH1 0x4 DUP1 CALLDATASIZE SUB DUP2 ADD SWAP1 PUSH2 0x1EA SWAP2 SWAP1 PUSH2 0x163F JUMP JUMPDEST PUSH2 0x761 JUMP JUMPDEST PUSH1 0x40 MLOAD PUSH2 0x1FC SWAP2 SWAP1 PUSH2 0x14AA JUMP JUMPDEST PUSH1 0x40 MLOAD DUP1 SWAP2 SUB SWAP1 RETURN JUMPDEST PUSH2 0x21F PUSH1 0x4 DUP1 CALLDATASIZE SUB DUP2 ADD SWAP1 PUSH2 0x21A SWAP2 SWAP1 PUSH2 0x1692 JUMP JUMPDEST PUSH2 0x8E6 JUMP JUMPDEST PUSH1 0x40 MLOAD PUSH2 0x22C SWAP2 SWAP1 PUSH2 0x14AA JUMP JUMPDEST PUSH1 0x40 MLOAD DUP1 SWAP2 SUB SWAP1 RETURN JUMPDEST PUSH2 0x23D PUSH2 0xA7C JUMP JUMPDEST PUSH1 0x40 MLOAD PUSH2 0x24A SWAP2 SWAP1 PUSH2 0x16DB JUMP JUMPDEST PUSH1 0x40 MLOAD DUP1 SWAP2 SUB SWAP1 RETURN JUMPDEST PUSH2 0x26D PUSH1 0x4 DUP1 CALLDATASIZE SUB DUP2 ADD SWAP1 PUSH2 0x268 SWAP2 SWAP1 PUSH2 0x16F6 JUMP JUMPDEST PUSH2 0xA96 JUMP JUMPDEST PUSH1 0x40 MLOAD PUSH2 0x27A SWAP2 SWAP1 PUSH2 0x1624 JUMP JUMPDEST PUSH1 0x40 MLOAD DUP1 SWAP2 SUB SWAP1 RETURN JUMPDEST PUSH2 0x29D PUSH1 0x4 DUP1 CALLDATASIZE SUB DUP2 ADD SWAP1 PUSH2 0x298 SWAP2 SWAP1 PUSH2 0x16F6 JUMP JUMPDEST PUSH2 0xADF JUMP JUMPDEST PUSH1 0x40 MLOAD PUSH2 0x2AA SWAP2 SWAP1 PUSH2 0x1624 JUMP JUMPDEST PUSH1 0x40 MLOAD DUP1 SWAP2 SUB SWAP1 RETURN JUMPDEST PUSH2 0x2CD PUSH1 0x4 DUP1 CALLDATASIZE SUB DUP2 ADD SWAP1 PUSH2 0x2C8 SWAP2 SWAP1 PUSH2 0x16F6 JUMP JUMPDEST PUSH2 0xB28 JUMP JUMPDEST PUSH1 0x40 MLOAD PUSH2 0x2DA SWAP2 SWAP1 PUSH2 0x1624 JUMP JUMPDEST PUSH1 0x40 MLOAD DUP1 SWAP2 SUB SWAP1 RETURN JUMPDEST PUSH2 0x2EB PUSH2 0xB71 JUMP JUMPDEST PUSH1 0x40 MLOAD PUSH2 0x2F8 SWAP2 SWAP1 PUSH2 0x1624 JUMP JUMPDEST PUSH1 0x40 MLOAD DUP1 SWAP2 SUB SWAP1 RETURN JUMPDEST PUSH2 0x309 PUSH2 0xB7E JUMP JUMPDEST PUSH1 0x40 MLOAD PUSH2 0x316 SWAP2 SWAP1 PUSH2 0x1555 JUMP JUMPDEST PUSH1 0x40 MLOAD DUP1 SWAP2 SUB SWAP1 RETURN JUMPDEST PUSH2 0x339 PUSH1 0x4 DUP1 CALLDATASIZE SUB DUP2 ADD SWAP1 PUSH2 0x334 SWAP2 SWAP1 PUSH2 0x1692 JUMP JUMPDEST PUSH2 0xC13 JUMP JUMPDEST PUSH1 0x40 MLOAD PUSH2 0x346 SWAP2 SWAP1 PUSH2 0x14AA JUMP JUMPDEST PUSH1 0x40 MLOAD DUP1 SWAP2 SUB SWAP1 RETURN JUMPDEST PUSH2 0x369 PUSH1 0x4 DUP1 CALLDATASIZE SUB DUP2 ADD SWAP1 PUSH2 0x364 SWAP2 SWAP1 PUSH2 0x15D5 JUMP JUMPDEST PUSH2 0xD5D JUMP JUMPDEST PUSH1 0x40 MLOAD PUSH2 0x376 SWAP2 SWAP1 PUSH2 0x14AA JUMP JUMPDEST PUSH1 0x40 MLOAD DUP1 SWAP2 SUB SWAP1 RETURN JUMPDEST PUSH2 0x387 PUSH2 0xD99 JUMP JUMPDEST PUSH1 0x40 MLOAD PUSH2 0x394 SWAP2 SWAP1 PUSH2 0x1624 JUMP JUMPDEST PUSH1 0x40 MLOAD DUP1 SWAP2 SUB SWAP1 RETURN JUMPDEST PUSH2 0x3B7 PUSH1 0x4 DUP1 CALLDATASIZE SUB DUP2 ADD SWAP1 PUSH2 0x3B2 SWAP2 SWAP1 PUSH2 0x1723 JUMP JUMPDEST PUSH2 0xDA6 JUMP JUMPDEST PUSH1 0x40 MLOAD PUSH2 0x3C4 SWAP2 SWAP1 PUSH2 0x1624 JUMP JUMPDEST PUSH1 0x40 MLOAD DUP1 SWAP2 SUB SWAP1 RETURN JUMPDEST PUSH2 0x3E7 PUSH1 0x4 DUP1 CALLDATASIZE SUB DUP2 ADD SWAP1 PUSH2 0x3E2 SWAP2 SWAP1 PUSH2 0x1898 JUMP JUMPDEST PUSH2 0xE2D JUMP JUMPDEST PUSH1 0x40 MLOAD PUSH2 0x3F4 SWAP2 SWAP1 PUSH2 0x14AA JUMP JUMPDEST PUSH1 0x40 MLOAD DUP1 SWAP2 SUB SWAP1 RETURN JUMPDEST PUSH1 0x0 DUP1 CALLER SWAP1 POP PUSH1 0x1 ISZERO ISZERO PUSH1 0x0 DUP1 DUP4 PUSH20 0xFFFFFFFFFFFFFFFFFFFFFFFFFFFFFFFFFFFFFFFF AND PUSH20 0xFFFFFFFFFFFFFFFFFFFFFFFFFFFFFFFFFFFFFFFF AND DUP2 MSTORE PUSH1 0x20 ADD SWAP1 DUP2 MSTORE PUSH1 0x20 ADD PUSH1 0x0 KECCAK256 PUSH1 0x0 SWAP1 SLOAD SWAP1 PUSH2 0x100 EXP SWAP1 DIV PUSH1 0xFF AND ISZERO ISZERO EQ DUP1 ISZERO PUSH2 0x4A1 JUMPI POP TIMESTAMP PUSH1 0xF PUSH1 0x0 DUP4 PUSH20 0xFFFFFFFFFFFFFFFFFFFFFFFFFFFFFFFFFFFFFFFF AND PUSH20 0xFFFFFFFFFFFFFFFFFFFFFFFFFFFFFFFFFFFFFFFF AND DUP2 MSTORE PUSH1 0x20 ADD SWAP1 DUP2 MSTORE PUSH1 0x20 ADD PUSH1 0x0 KECCAK256 SLOAD GT ISZERO JUMPDEST PUSH2 0x4E0 JUMPI PUSH1 0x40 MLOAD PUSH32 0x8C379A000000000000000000000000000000000000000000000000000000000 DUP2 MSTORE PUSH1 0x4 ADD PUSH2 0x4D7 SWAP1 PUSH2 0x192D JUMP JUMPDEST PUSH1 0x40 MLOAD DUP1 SWAP2 SUB SWAP1 REVERT JUMPDEST PUSH1 0x0 PUSH1 0x14 PUSH1 0xF ADD SLOAD SWAP1 POP PUSH1 0x0 PUSH1 0x14 PUSH1 0x10 ADD SLOAD SWAP1 POP PUSH1 0x0 DUP7 LT ISZERO DUP1 ISZERO PUSH2 0x505 JUMPI POP DUP2 DUP7 GT ISZERO JUMPDEST DUP1 ISZERO PUSH2 0x512 JUMPI POP PUSH1 0x0 DUP6 LT ISZERO JUMPDEST DUP1 ISZERO PUSH2 0x51E JUMPI POP DUP1 DUP6 GT ISZERO JUMPDEST PUSH2 0x527 JUMPI PUSH1 0x0 DUP1 REVERT JUMPDEST DUP6 PUSH1 0x14 PUSH1 0x11 ADD DUP2 SWAP1 SSTORE POP DUP5 PUSH1 0x14 PUSH1 0x12 ADD DUP2 SWAP1 SSTORE POP PUSH1 0x1 SWAP4 POP POP POP POP SWAP3 SWAP2 POP POP JUMP JUMPDEST PUSH1 0x60 PUSH1 0x28 PUSH1 0x0 ADD DUP1 SLOAD PUSH2 0x55A SWAP1 PUSH2 0x197C JUMP JUMPDEST DUP1 PUSH1 0x1F ADD PUSH1 0x20 DUP1 SWAP2 DIV MUL PUSH1 0x20 ADD PUSH1 0x40 MLOAD SWAP1 DUP2 ADD PUSH1 0x40 MSTORE DUP1 SWAP3 SWAP2 SWAP1 DUP2 DUP2 MSTORE PUSH1 0x20 ADD DUP3 DUP1 SLOAD PUSH2 0x586 SWAP1 PUSH2 0x197C JUMP JUMPDEST DUP1 ISZERO PUSH2 0x5D3 JUMPI DUP1 PUSH1 0x1F LT PUSH2 0x5A8 JUMPI PUSH2 0x100 DUP1 DUP4 SLOAD DIV MUL DUP4 MSTORE SWAP2 PUSH1 0x20 ADD SWAP2 PUSH2 0x5D3 JUMP JUMPDEST DUP3 ADD SWAP2 SWAP1 PUSH1 0x0 MSTORE PUSH1 0x20 PUSH1 0x0 KECCAK256 SWAP1 JUMPDEST DUP2 SLOAD DUP2 MSTORE SWAP1 PUSH1 0x1 ADD SWAP1 PUSH1 0x20 ADD DUP1 DUP4 GT PUSH2 0x5B6 JUMPI DUP3 SWAP1 SUB PUSH1 0x1F AND DUP3 ADD SWAP2 JUMPDEST POP POP POP POP POP SWAP1 POP SWAP1 JUMP JUMPDEST PUSH1 0x0 DUP1 CALLER SWAP1 POP PUSH1 0x0 PUSH20 0xFFFFFFFFFFFFFFFFFFFFFFFFFFFFFFFFFFFFFFFF AND DUP2 PUSH20 0xFFFFFFFFFFFFFFFFFFFFFFFFFFFFFFFFFFFFFFFF AND EQ ISZERO DUP1 ISZERO PUSH2 0x64D JUMPI POP PUSH1 0x0 PUSH20 0xFFFFFFFFFFFFFFFFFFFFFFFFFFFFFFFFFFFFFFFF AND DUP5 PUSH20 0xFFFFFFFFFFFFFFFFFFFFFFFFFFFFFFFFFFFFFFFF AND EQ ISZERO JUMPDEST PUSH2 0x656 JUMPI PUSH1 0x0 DUP1 REVERT JUMPDEST DUP3 PUSH1 0x38 PUSH1 0x0 DUP4 PUSH20 0xFFFFFFFFFFFFFFFFFFFFFFFFFFFFFFFFFFFFFFFF AND PUSH20 0xFFFFFFFFFFFFFFFFFFFFFFFFFFFFFFFFFFFFFFFF AND DUP2 MSTORE PUSH1 0x20 ADD SWAP1 DUP2 MSTORE PUSH1 0x20 ADD PUSH1 0x0 KECCAK256 PUSH1 0x0 DUP7 PUSH20 0xFFFFFFFFFFFFFFFFFFFFFFFFFFFFFFFFFFFFFFFF AND PUSH20 0xFFFFFFFFFFFFFFFFFFFFFFFFFFFFFFFFFFFFFFFF AND DUP2 MSTORE PUSH1 0x20 ADD SWAP1 DUP2 MSTORE PUSH1 0x20 ADD PUSH1 0x0 KECCAK256 DUP2 SWAP1 SSTORE POP DUP4 PUSH20 0xFFFFFFFFFFFFFFFFFFFFFFFFFFFFFFFFFFFFFFFF AND DUP2 PUSH20 0xFFFFFFFFFFFFFFFFFFFFFFFFFFFFFFFFFFFFFFFF AND PUSH32 0x8C5BE1E5EBEC7D5BD14F71427D1E84F3DD0314C0F7B2291E5B200AC8C7C3B925 DUP6 PUSH1 0x40 MLOAD PUSH2 0x734 SWAP2 SWAP1 PUSH2 0x1624 JUMP JUMPDEST PUSH1 0x40 MLOAD DUP1 SWAP2 SUB SWAP1 LOG3 PUSH1 0x1 SWAP2 POP POP SWAP3 SWAP2 POP POP JUMP JUMPDEST PUSH1 0x0 PUSH1 0x28 PUSH1 0x7 ADD SLOAD SWAP1 POP SWAP1 JUMP JUMPDEST PUSH1 0x0 PUSH1 0x28 PUSH1 0x4 ADD SLOAD SWAP1 POP SWAP1 JUMP JUMPDEST PUSH1 0x0 DUP1 PUSH1 0x38 PUSH1 0x0 DUP7 PUSH20 0xFFFFFFFFFFFFFFFFFFFFFFFFFFFFFFFFFFFFFFFF AND PUSH20 0xFFFFFFFFFFFFFFFFFFFFFFFFFFFFFFFFFFFFFFFF AND DUP2 MSTORE PUSH1 0x20 ADD SWAP1 DUP2 MSTORE PUSH1 0x20 ADD PUSH1 0x0 KECCAK256 PUSH1 0x0 CALLER PUSH20 0xFFFFFFFFFFFFFFFFFFFFFFFFFFFFFFFFFFFFFFFF AND PUSH20 0xFFFFFFFFFFFFFFFFFFFFFFFFFFFFFFFFFFFFFFFF AND DUP2 MSTORE PUSH1 0x20 ADD SWAP1 DUP2 MSTORE PUSH1 0x20 ADD PUSH1 0x0 KECCAK256 SLOAD SWAP1 POP PUSH32 0xFFFFFFFFFFFFFFFFFFFFFFFFFFFFFFFFFFFFFFFFFFFFFFFFFFFFFFFFFFFFFFFF DUP2 EQ ISZERO DUP1 ISZERO PUSH2 0x813 JUMPI POP DUP3 DUP2 LT ISZERO JUMPDEST PUSH2 0x81C JUMPI PUSH1 0x0 DUP1 REVERT JUMPDEST DUP3 PUSH1 0x38 PUSH1 0x0 DUP8 PUSH20 0xFFFFFFFFFFFFFFFFFFFFFFFFFFFFFFFFFFFFFFFF AND PUSH20 0xFFFFFFFFFFFFFFFFFFFFFFFFFFFFFFFFFFFFFFFF AND DUP2 MSTORE PUSH1 0x20 ADD SWAP1 DUP2 MSTORE PUSH1 0x20 ADD PUSH1 0x0 KECCAK256 PUSH1 0x0 CALLER PUSH20 0xFFFFFFFFFFFFFFFFFFFFFFFFFFFFFFFFFFFFFFFF AND PUSH20 0xFFFFFFFFFFFFFFFFFFFFFFFFFFFFFFFFFFFFFFFF AND DUP2 MSTORE PUSH1 0x20 ADD SWAP1 DUP2 MSTORE PUSH1 0x20 ADD PUSH1 0x0 KECCAK256 PUSH1 0x0 DUP3 DUP3 SLOAD PUSH2 0x8A8 SWAP2 SWAP1 PUSH2 0x19DC JUMP JUMPDEST SWAP3 POP POP DUP2 SWAP1 SSTORE POP PUSH1 0x0 PUSH1 0x14 PUSH1 0x11 ADD SLOAD SWAP1 POP PUSH1 0x0 PUSH1 0x14 PUSH1 0x12 ADD SLOAD SWAP1 POP PUSH1 0x0 DUP1 PUSH2 0x8D3 DUP10 DUP10 DUP10 DUP8 DUP8 PUSH2 0xFD8 JUMP JUMPDEST SWAP2 POP SWAP2 POP DUP2 SWAP6 POP POP POP POP POP POP SWAP4 SWAP3 POP POP POP JUMP JUMPDEST PUSH1 0x0 DUP1 PUSH1 0x28 PUSH1 0xB ADD PUSH1 0x0 SWAP1 SLOAD SWAP1 PUSH2 0x100 EXP SWAP1 DIV PUSH20 0xFFFFFFFFFFFFFFFFFFFFFFFFFFFFFFFFFFFFFFFF AND SWAP1 POP PUSH1 0x0 CALLER SWAP1 POP PUSH1 0x0 PUSH1 0x14 PUSH1 0x11 ADD SLOAD SWAP1 POP PUSH1 0x0 PUSH1 0x14 PUSH1 0x12 ADD SLOAD SWAP1 POP PUSH1 0x36 PUSH1 0x0 DUP5 PUSH20 0xFFFFFFFFFFFFFFFFFFFFFFFFFFFFFFFFFFFFFFFF AND PUSH20 0xFFFFFFFFFFFFFFFFFFFFFFFFFFFFFFFFFFFFFFFF AND DUP2 MSTORE PUSH1 0x20 ADD SWAP1 DUP2 MSTORE PUSH1 0x20 ADD PUSH1 0x0 KECCAK256 SLOAD DUP7 GT ISZERO PUSH2 0x976 JUMPI PUSH1 0x0 DUP1 REVERT JUMPDEST PUSH1 0x0 DUP1 PUSH2 0x986 DUP7 DUP7 DUP11 DUP8 DUP8 PUSH2 0xFD8 JUMP JUMPDEST SWAP2 POP SWAP2 POP DUP8 PUSH1 0x36 PUSH1 0x0 DUP8 PUSH20 0xFFFFFFFFFFFFFFFFFFFFFFFFFFFFFFFFFFFFFFFF AND PUSH20 0xFFFFFFFFFFFFFFFFFFFFFFFFFFFFFFFFFFFFFFFF AND DUP2 MSTORE PUSH1 0x20 ADD SWAP1 DUP2 MSTORE PUSH1 0x20 ADD PUSH1 0x0 KECCAK256 PUSH1 0x0 DUP3 DUP3 SLOAD PUSH2 0x9D9 SWAP2 SWAP1 PUSH2 0x19DC JUMP JUMPDEST SWAP3 POP POP DUP2 SWAP1 SSTORE POP DUP8 PUSH1 0x37 PUSH1 0x0 DUP8 PUSH20 0xFFFFFFFFFFFFFFFFFFFFFFFFFFFFFFFFFFFFFFFF AND PUSH20 0xFFFFFFFFFFFFFFFFFFFFFFFFFFFFFFFFFFFFFFFF AND DUP2 MSTORE PUSH1 0x20 ADD SWAP1 DUP2 MSTORE PUSH1 0x20 ADD PUSH1 0x0 KECCAK256 PUSH1 0x0 DUP3 DUP3 SLOAD PUSH2 0xA2F SWAP2 SWAP1 PUSH2 0x19DC JUMP JUMPDEST SWAP3 POP POP DUP2 SWAP1 SSTORE POP DUP8 PUSH1 0x28 PUSH1 0x5 ADD PUSH1 0x0 DUP3 DUP3 SLOAD PUSH2 0xA4B SWAP2 SWAP1 PUSH2 0x19DC JUMP JUMPDEST SWAP3 POP POP DUP2 SWAP1 SSTORE POP DUP8 PUSH1 0x28 PUSH1 0x7 ADD PUSH1 0x0 DUP3 DUP3 SLOAD PUSH2 0xA67 SWAP2 SWAP1 PUSH2 0x19DC JUMP JUMPDEST SWAP3 POP POP DUP2 SWAP1 SSTORE POP DUP2 SWAP7 POP POP POP POP POP POP POP SWAP2 SWAP1 POP JUMP JUMPDEST PUSH1 0x0 PUSH1 0x28 PUSH1 0x2 ADD PUSH1 0x0 SWAP1 SLOAD SWAP1 PUSH2 0x100 EXP SWAP1 DIV PUSH1 0xFF AND SWAP1 POP SWAP1 JUMP JUMPDEST PUSH1 0x0 PUSH1 0x36 PUSH1 0x0 DUP4 PUSH20 0xFFFFFFFFFFFFFFFFFFFFFFFFFFFFFFFFFFFFFFFF AND PUSH20 0xFFFFFFFFFFFFFFFFFFFFFFFFFFFFFFFFFFFFFFFF AND DUP2 MSTORE PUSH1 0x20 ADD SWAP1 DUP2 MSTORE PUSH1 0x20 ADD PUSH1 0x0 KECCAK256 SLOAD SWAP1 POP SWAP2 SWAP1 POP JUMP JUMPDEST PUSH1 0x0 PUSH1 0x35 PUSH1 0x0 DUP4 PUSH20 0xFFFFFFFFFFFFFFFFFFFFFFFFFFFFFFFFFFFFFFFF AND PUSH20 0xFFFFFFFFFFFFFFFFFFFFFFFFFFFFFFFFFFFFFFFF AND DUP2 MSTORE PUSH1 0x20 ADD SWAP1 DUP2 MSTORE PUSH1 0x20 ADD PUSH1 0x0 KECCAK256 SLOAD SWAP1 POP SWAP2 SWAP1 POP JUMP JUMPDEST PUSH1 0x0 PUSH1 0x37 PUSH1 0x0 DUP4 PUSH20 0xFFFFFFFFFFFFFFFFFFFFFFFFFFFFFFFFFFFFFFFF AND PUSH20 0xFFFFFFFFFFFFFFFFFFFFFFFFFFFFFFFFFFFFFFFF AND DUP2 MSTORE PUSH1 0x20 ADD SWAP1 DUP2 MSTORE PUSH1 0x20 ADD PUSH1 0x0 KECCAK256 SLOAD SWAP1 POP SWAP2 SWAP1 POP JUMP JUMPDEST PUSH1 0x0 PUSH1 0x28 PUSH1 0x5 ADD SLOAD SWAP1 POP SWAP1 JUMP JUMPDEST PUSH1 0x60 PUSH1 0x28 PUSH1 0x1 ADD DUP1 SLOAD PUSH2 0xB90 SWAP1 PUSH2 0x197C JUMP JUMPDEST DUP1 PUSH1 0x1F ADD PUSH1 0x20 DUP1 SWAP2 DIV MUL PUSH1 0x20 ADD PUSH1 0x40 MLOAD SWAP1 DUP2 ADD PUSH1 0x40 MSTORE DUP1 SWAP3 SWAP2 SWAP1 DUP2 DUP2 MSTORE PUSH1 0x20 ADD DUP3 DUP1 SLOAD PUSH2 0xBBC SWAP1 PUSH2 0x197C JUMP JUMPDEST DUP1 ISZERO PUSH2 0xC09 JUMPI DUP1 PUSH1 0x1F LT PUSH2 0xBDE JUMPI PUSH2 0x100 DUP1 DUP4 SLOAD DIV MUL DUP4 MSTORE SWAP2 PUSH1 0x20 ADD SWAP2 PUSH2 0xC09 JUMP JUMPDEST DUP3 ADD SWAP2 SWAP1 PUSH1 0x0 MSTORE PUSH1 0x20 PUSH1 0x0 KECCAK256 SWAP1 JUMPDEST DUP2 SLOAD DUP2 MSTORE SWAP1 PUSH1 0x1 ADD SWAP1 PUSH1 0x20 ADD DUP1 DUP4 GT PUSH2 0xBEC JUMPI DUP3 SWAP1 SUB PUSH1 0x1F AND DUP3 ADD SWAP2 JUMPDEST POP POP POP POP POP SWAP1 POP SWAP1 JUMP JUMPDEST PUSH1 0x0 DUP1 CALLER SWAP1 POP PUSH1 0x0 PUSH1 0x28 PUSH1 0xB ADD PUSH1 0x0 SWAP1 SLOAD SWAP1 PUSH2 0x100 EXP SWAP1 DIV PUSH20 0xFFFFFFFFFFFFFFFFFFFFFFFFFFFFFFFFFFFFFFFF AND SWAP1 POP PUSH1 0x0 PUSH1 0x14 PUSH1 0x11 ADD SLOAD SWAP1 POP PUSH1 0x0 PUSH1 0x14 PUSH1 0x12 ADD SLOAD SWAP1 POP PUSH1 0x0 DUP1 PUSH2 0xC67 DUP7 DUP7 DUP11 DUP8 DUP8 PUSH2 0xFD8 JUMP JUMPDEST SWAP2 POP SWAP2 POP DUP1 PUSH1 0x36 PUSH1 0x0 DUP9 PUSH20 0xFFFFFFFFFFFFFFFFFFFFFFFFFFFFFFFFFFFFFFFF AND PUSH20 0xFFFFFFFFFFFFFFFFFFFFFFFFFFFFFFFFFFFFFFFF AND DUP2 MSTORE PUSH1 0x20 ADD SWAP1 DUP2 MSTORE PUSH1 0x20 ADD PUSH1 0x0 KECCAK256 PUSH1 0x0 DUP3 DUP3 SLOAD PUSH2 0xCBA SWAP2 SWAP1 PUSH2 0x1A10 JUMP JUMPDEST SWAP3 POP POP DUP2 SWAP1 SSTORE POP DUP1 PUSH1 0x37 PUSH1 0x0 DUP9 PUSH20 0xFFFFFFFFFFFFFFFFFFFFFFFFFFFFFFFFFFFFFFFF AND PUSH20 0xFFFFFFFFFFFFFFFFFFFFFFFFFFFFFFFFFFFFFFFF AND DUP2 MSTORE PUSH1 0x20 ADD SWAP1 DUP2 MSTORE PUSH1 0x20 ADD PUSH1 0x0 KECCAK256 PUSH1 0x0 DUP3 DUP3 SLOAD PUSH2 0xD10 SWAP2 SWAP1 PUSH2 0x1A10 JUMP JUMPDEST SWAP3 POP POP DUP2 SWAP1 SSTORE POP DUP1 PUSH1 0x28 PUSH1 0x5 ADD PUSH1 0x0 DUP3 DUP3 SLOAD PUSH2 0xD2C SWAP2 SWAP1 PUSH2 0x1A10 JUMP JUMPDEST SWAP3 POP POP DUP2 SWAP1 SSTORE POP DUP1 PUSH1 0x28 PUSH1 0x7 ADD PUSH1 0x0 DUP3 DUP3 SLOAD PUSH2 0xD48 SWAP2 SWAP1 PUSH2 0x1A10 JUMP JUMPDEST SWAP3 POP POP DUP2 SWAP1 SSTORE POP DUP2 SWAP7 POP POP POP POP POP POP POP SWAP2 SWAP1 POP JUMP JUMPDEST PUSH1 0x0 DUP1 CALLER SWAP1 POP PUSH1 0x0 PUSH1 0x14 PUSH1 0x11 ADD SLOAD SWAP1 POP PUSH1 0x0 PUSH1 0x14 PUSH1 0x12 ADD SLOAD SWAP1 POP PUSH1 0x0 DUP1 PUSH2 0xD87 DUP6 DUP10 DUP10 DUP8 DUP8 PUSH2 0xFD8 JUMP JUMPDEST SWAP2 POP SWAP2 POP DUP2 SWAP6 POP POP POP POP POP POP SWAP3 SWAP2 POP POP JUMP JUMPDEST PUSH1 0x0 PUSH1 0x28 PUSH1 0x9 ADD SLOAD SWAP1 POP SWAP1 JUMP JUMPDEST PUSH1 0x0 PUSH1 0x38 PUSH1 0x0 DUP5 PUSH20 0xFFFFFFFFFFFFFFFFFFFFFFFFFFFFFFFFFFFFFFFF AND PUSH20 0xFFFFFFFFFFFFFFFFFFFFFFFFFFFFFFFFFFFFFFFF AND DUP2 MSTORE PUSH1 0x20 ADD SWAP1 DUP2 MSTORE PUSH1 0x20 ADD PUSH1 0x0 KECCAK256 PUSH1 0x0 DUP4 PUSH20 0xFFFFFFFFFFFFFFFFFFFFFFFFFFFFFFFFFFFFFFFF AND PUSH20 0xFFFFFFFFFFFFFFFFFFFFFFFFFFFFFFFFFFFFFFFF AND DUP2 MSTORE PUSH1 0x20 ADD SWAP1 DUP2 MSTORE PUSH1 0x20 ADD PUSH1 0x0 KECCAK256 SLOAD SWAP1 POP SWAP3 SWAP2 POP POP JUMP JUMPDEST PUSH1 0x0 DUP1 PUSH1 0x28 PUSH1 0xB ADD PUSH1 0x0 SWAP1 SLOAD SWAP1 PUSH2 0x100 EXP SWAP1 DIV PUSH20 0xFFFFFFFFFFFFFFFFFFFFFFFFFFFFFFFFFFFFFFFF AND SWAP1 POP PUSH1 0x0 CALLER SWAP1 POP PUSH1 0x0 PUSH1 0x34 PUSH1 0x0 DUP4 PUSH20 0xFFFFFFFFFFFFFFFFFFFFFFFFFFFFFFFFFFFFFFFF AND PUSH20 0xFFFFFFFFFFFFFFFFFFFFFFFFFFFFFFFFFFFFFFFF AND DUP2 MSTORE PUSH1 0x20 ADD SWAP1 DUP2 MSTORE PUSH1 0x20 ADD PUSH1 0x0 KECCAK256 DUP6 PUSH1 0x40 MLOAD PUSH2 0xEAC SWAP2 SWAP1 PUSH2 0x1A80 JUMP JUMPDEST SWAP1 DUP2 MSTORE PUSH1 0x20 ADD PUSH1 0x40 MLOAD DUP1 SWAP2 SUB SWAP1 KECCAK256 PUSH1 0x3 ADD SLOAD SWAP1 POP PUSH1 0x0 PUSH1 0x34 PUSH1 0x0 DUP5 PUSH20 0xFFFFFFFFFFFFFFFFFFFFFFFFFFFFFFFFFFFFFFFF AND PUSH20 0xFFFFFFFFFFFFFFFFFFFFFFFFFFFFFFFFFFFFFFFF AND DUP2 MSTORE PUSH1 0x20 ADD SWAP1 DUP2 MSTORE PUSH1 0x20 ADD PUSH1 0x0 KECCAK256 DUP7 PUSH1 0x40 MLOAD PUSH2 0xF0F SWAP2 SWAP1 PUSH2 0x1A80 JUMP JUMPDEST SWAP1 DUP2 MSTORE PUSH1 0x20 ADD PUSH1 0x40 MLOAD DUP1 SWAP2 SUB SWAP1 KECCAK256 PUSH1 0x4 ADD SLOAD SWAP1 POP TIMESTAMP DUP3 LT ISZERO DUP1 ISZERO PUSH2 0xF33 JUMPI POP PUSH1 0x0 DUP2 GT JUMPDEST PUSH2 0xF3C JUMPI PUSH1 0x0 DUP1 REVERT JUMPDEST PUSH1 0x0 PUSH1 0x14 PUSH1 0x11 ADD SLOAD SWAP1 POP PUSH1 0x0 PUSH1 0x14 PUSH1 0x12 ADD SLOAD SWAP1 POP PUSH1 0x0 DUP1 PUSH2 0xF60 DUP9 DUP9 DUP8 DUP8 DUP8 PUSH2 0xFD8 JUMP JUMPDEST SWAP2 POP SWAP2 POP PUSH1 0x0 PUSH1 0x34 PUSH1 0x0 DUP10 PUSH20 0xFFFFFFFFFFFFFFFFFFFFFFFFFFFFFFFFFFFFFFFF AND PUSH20 0xFFFFFFFFFFFFFFFFFFFFFFFFFFFFFFFFFFFFFFFF AND DUP2 MSTORE PUSH1 0x20 ADD SWAP1 DUP2 MSTORE PUSH1 0x20 ADD PUSH1 0x0 KECCAK256 DUP12 PUSH1 0x40 MLOAD PUSH2 0xFB3 SWAP2 SWAP1 PUSH2 0x1A80 JUMP JUMPDEST SWAP1 DUP2 MSTORE PUSH1 0x20 ADD PUSH1 0x40 MLOAD DUP1 SWAP2 SUB SWAP1 KECCAK256 PUSH1 0x4 ADD DUP2 SWAP1 SSTORE POP DUP2 SWAP9 POP POP POP POP POP POP POP POP POP SWAP2 SWAP1 POP JUMP JUMPDEST PUSH1 0x0 DUP1 PUSH1 0x0 PUSH20 0xFFFFFFFFFFFFFFFFFFFFFFFFFFFFFFFFFFFFFFFF AND DUP8 PUSH20 0xFFFFFFFFFFFFFFFFFFFFFFFFFFFFFFFFFFFFFFFF AND EQ ISZERO DUP1 ISZERO PUSH2 0x1045 JUMPI POP PUSH1 0x0 PUSH20 0xFFFFFFFFFFFFFFFFFFFFFFFFFFFFFFFFFFFFFFFF AND DUP7 PUSH20 0xFFFFFFFFFFFFFFFFFFFFFFFFFFFFFFFFFFFFFFFF AND EQ ISZERO JUMPDEST DUP1 ISZERO PUSH2 0x1090 JUMPI POP DUP5 PUSH1 0x35 PUSH1 0x0 DUP10 PUSH20 0xFFFFFFFFFFFFFFFFFFFFFFFFFFFFFFFFFFFFFFFF AND PUSH20 0xFFFFFFFFFFFFFFFFFFFFFFFFFFFFFFFFFFFFFFFF AND DUP2 MSTORE PUSH1 0x20 ADD SWAP1 DUP2 MSTORE PUSH1 0x20 ADD PUSH1 0x0 KECCAK256 SLOAD LT ISZERO JUMPDEST DUP1 ISZERO PUSH2 0x10DC JUMPI POP PUSH1 0x0 PUSH1 0x35 PUSH1 0x0 DUP10 PUSH20 0xFFFFFFFFFFFFFFFFFFFFFFFFFFFFFFFFFFFFFFFF AND PUSH20 0xFFFFFFFFFFFFFFFFFFFFFFFFFFFFFFFFFFFFFFFF AND DUP2 MSTORE PUSH1 0x20 ADD SWAP1 DUP2 MSTORE PUSH1 0x20 ADD PUSH1 0x0 KECCAK256 SLOAD LT ISZERO JUMPDEST DUP1 ISZERO PUSH2 0x10E9 JUMPI POP PUSH1 0x0 DUP6 LT ISZERO JUMPDEST PUSH2 0x10F2 JUMPI PUSH1 0x0 DUP1 REVERT JUMPDEST DUP5 PUSH1 0x35 PUSH1 0x0 DUP10 PUSH20 0xFFFFFFFFFFFFFFFFFFFFFFFFFFFFFFFFFFFFFFFF AND PUSH20 0xFFFFFFFFFFFFFFFFFFFFFFFFFFFFFFFFFFFFFFFF AND DUP2 MSTORE PUSH1 0x20 ADD SWAP1 DUP2 MSTORE PUSH1 0x20 ADD PUSH1 0x0 KECCAK256 PUSH1 0x0 DUP3 DUP3 SLOAD PUSH2 0x1141 SWAP2 SWAP1 PUSH2 0x19DC JUMP JUMPDEST SWAP3 POP POP DUP2 SWAP1 SSTORE POP PUSH1 0x0 DUP5 PUSH2 0x3E8 DUP8 PUSH2 0x1159 SWAP2 SWAP1 PUSH2 0x1AC6 JUMP JUMPDEST PUSH2 0x1163 SWAP2 SWAP1 PUSH2 0x1AF7 JUMP JUMPDEST SWAP1 POP PUSH1 0x0 DUP5 PUSH2 0x3E8 DUP9 PUSH2 0x1176 SWAP2 SWAP1 PUSH2 0x1AC6 JUMP JUMPDEST PUSH2 0x1180 SWAP2 SWAP1 PUSH2 0x1AF7 JUMP JUMPDEST SWAP1 POP PUSH1 0x0 DUP2 DUP4 PUSH2 0x1190 SWAP2 SWAP1 PUSH2 0x1A10 JUMP JUMPDEST DUP9 PUSH2 0x119B SWAP2 SWAP1 PUSH2 0x19DC JUMP JUMPDEST SWAP1 POP DUP1 PUSH1 0x35 PUSH1 0x0 DUP12 PUSH20 0xFFFFFFFFFFFFFFFFFFFFFFFFFFFFFFFFFFFFFFFF AND PUSH20 0xFFFFFFFFFFFFFFFFFFFFFFFFFFFFFFFFFFFFFFFF AND DUP2 MSTORE PUSH1 0x20 ADD SWAP1 DUP2 MSTORE PUSH1 0x20 ADD PUSH1 0x0 KECCAK256 PUSH1 0x0 DUP3 DUP3 SLOAD PUSH2 0x11EC SWAP2 SWAP1 PUSH2 0x1A10 JUMP JUMPDEST SWAP3 POP POP DUP2 SWAP1 SSTORE POP DUP2 PUSH1 0x35 PUSH1 0x0 PUSH1 0x28 PUSH1 0xB ADD PUSH1 0x0 SWAP1 SLOAD SWAP1 PUSH2 0x100 EXP SWAP1 DIV PUSH20 0xFFFFFFFFFFFFFFFFFFFFFFFFFFFFFFFFFFFFFFFF AND PUSH20 0xFFFFFFFFFFFFFFFFFFFFFFFFFFFFFFFFFFFFFFFF AND PUSH20 0xFFFFFFFFFFFFFFFFFFFFFFFFFFFFFFFFFFFFFFFF AND DUP2 MSTORE PUSH1 0x20 ADD SWAP1 DUP2 MSTORE PUSH1 0x20 ADD PUSH1 0x0 KECCAK256 PUSH1 0x0 DUP3 DUP3 SLOAD PUSH2 0x1267 SWAP2 SWAP1 PUSH2 0x1A10 JUMP JUMPDEST SWAP3 POP POP DUP2 SWAP1 SSTORE POP DUP3 PUSH1 0x28 PUSH1 0x4 ADD PUSH1 0x0 DUP3 DUP3 SLOAD PUSH2 0x1283 SWAP2 SWAP1 PUSH2 0x19DC JUMP JUMPDEST SWAP3 POP POP DUP2 SWAP1 SSTORE POP DUP9 PUSH20 0xFFFFFFFFFFFFFFFFFFFFFFFFFFFFFFFFFFFFFFFF AND DUP11 PUSH20 0xFFFFFFFFFFFFFFFFFFFFFFFFFFFFFFFFFFFFFFFF AND PUSH32 0xDDF252AD1BE2C89B69C2B068FC378DAA952BA7F163C4A11628F55A4DF523B3EF DUP4 PUSH1 0x40 MLOAD PUSH2 0x12E7 SWAP2 SWAP1 PUSH2 0x1624 JUMP JUMPDEST PUSH1 0x40 MLOAD DUP1 SWAP2 SUB SWAP1 LOG3 PUSH1 0x0 DUP4 EQ PUSH2 0x135E JUMPI PUSH1 0x0 PUSH20 0xFFFFFFFFFFFFFFFFFFFFFFFFFFFFFFFFFFFFFFFF AND DUP11 PUSH20 0xFFFFFFFFFFFFFFFFFFFFFFFFFFFFFFFFFFFFFFFF AND PUSH32 0xDDF252AD1BE2C89B69C2B068FC378DAA952BA7F163C4A11628F55A4DF523B3EF DUP6 PUSH1 0x40 MLOAD PUSH2 0x1355 SWAP2 SWAP1 PUSH2 0x1624 JUMP JUMPDEST PUSH1 0x40 MLOAD DUP1 SWAP2 SUB SWAP1 LOG3 JUMPDEST PUSH1 0x0 DUP3 EQ PUSH2 0x13F1 JUMPI PUSH1 0x28 PUSH1 0xB ADD PUSH1 0x0 SWAP1 SLOAD SWAP1 PUSH2 0x100 EXP SWAP1 DIV PUSH20 0xFFFFFFFFFFFFFFFFFFFFFFFFFFFFFFFFFFFFFFFF AND PUSH20 0xFFFFFFFFFFFFFFFFFFFFFFFFFFFFFFFFFFFFFFFF AND DUP11 PUSH20 0xFFFFFFFFFFFFFFFFFFFFFFFFFFFFFFFFFFFFFFFF AND PUSH32 0xDDF252AD1BE2C89B69C2B068FC378DAA952BA7F163C4A11628F55A4DF523B3EF DUP5 PUSH1 0x40 MLOAD PUSH2 0x13E8 SWAP2 SWAP1 PUSH2 0x1624 JUMP JUMPDEST PUSH1 0x40 MLOAD DUP1 SWAP2 SUB SWAP1 LOG3 JUMPDEST PUSH1 0x1 DUP2 SWAP5 POP SWAP5 POP POP POP POP SWAP6 POP SWAP6 SWAP4 POP POP POP POP JUMP JUMPDEST PUSH1 0x0 PUSH1 0x40 MLOAD SWAP1 POP SWAP1 JUMP JUMPDEST PUSH1 0x0 DUP1 REVERT JUMPDEST PUSH1 0x0 DUP1 REVERT JUMPDEST PUSH1 0x0 DUP2 SWAP1 POP SWAP2 SWAP1 POP JUMP JUMPDEST PUSH2 0x142C DUP2 PUSH2 0x1419 JUMP JUMPDEST DUP2 EQ PUSH2 0x1437 JUMPI PUSH1 0x0 DUP1 REVERT JUMPDEST POP JUMP JUMPDEST PUSH1 0x0 DUP2 CALLDATALOAD SWAP1 POP PUSH2 0x1449 DUP2 PUSH2 0x1423 JUMP JUMPDEST SWAP3 SWAP2 POP POP JUMP JUMPDEST PUSH1 0x0 DUP1 PUSH1 0x40 DUP4 DUP6 SUB SLT ISZERO PUSH2 0x1466 JUMPI PUSH2 0x1465 PUSH2 0x140F JUMP JUMPDEST JUMPDEST PUSH1 0x0 PUSH2 0x1474 DUP6 DUP3 DUP7 ADD PUSH2 0x143A JUMP JUMPDEST SWAP3 POP POP PUSH1 0x20 PUSH2 0x1485 DUP6 DUP3 DUP7 ADD PUSH2 0x143A JUMP JUMPDEST SWAP2 POP POP SWAP3 POP SWAP3 SWAP1 POP JUMP JUMPDEST PUSH1 0x0 DUP2 ISZERO ISZERO SWAP1 POP SWAP2 SWAP1 POP JUMP JUMPDEST PUSH2 0x14A4 DUP2 PUSH2 0x148F JUMP JUMPDEST DUP3 MSTORE POP POP JUMP JUMPDEST PUSH1 0x0 PUSH1 0x20 DUP3 ADD SWAP1 POP PUSH2 0x14BF PUSH1 0x0 DUP4 ADD DUP5 PUSH2 0x149B JUMP JUMPDEST SWAP3 SWAP2 POP POP JUMP JUMPDEST PUSH1 0x0 DUP2 MLOAD SWAP1 POP SWAP2 SWAP1 POP JUMP JUMPDEST PUSH1 0x0 DUP3 DUP3 MSTORE PUSH1 0x20 DUP3 ADD SWAP1 POP SWAP3 SWAP2 POP POP JUMP JUMPDEST PUSH1 0x0 JUMPDEST DUP4 DUP2 LT ISZERO PUSH2 0x14FF JUMPI DUP1 DUP3 ADD MLOAD DUP2 DUP5 ADD MSTORE PUSH1 0x20 DUP2 ADD SWAP1 POP PUSH2 0x14E4 JUMP JUMPDEST PUSH1 0x0 DUP5 DUP5 ADD MSTORE POP POP POP POP JUMP JUMPDEST PUSH1 0x0 PUSH1 0x1F NOT PUSH1 0x1F DUP4 ADD AND SWAP1 POP SWAP2 SWAP1 POP JUMP JUMPDEST PUSH1 0x0 PUSH2 0x1527 DUP3 PUSH2 0x14C5 JUMP JUMPDEST PUSH2 0x1531 DUP2 DUP6 PUSH2 0x14D0 JUMP JUMPDEST SWAP4 POP PUSH2 0x1541 DUP2 DUP6 PUSH1 0x20 DUP7 ADD PUSH2 0x14E1 JUMP JUMPDEST PUSH2 0x154A DUP2 PUSH2 0x150B JUMP JUMPDEST DUP5 ADD SWAP2 POP POP SWAP3 SWAP2 POP POP JUMP JUMPDEST PUSH1 0x0 PUSH1 0x20 DUP3 ADD SWAP1 POP DUP2 DUP2 SUB PUSH1 0x0 DUP4 ADD MSTORE PUSH2 0x156F DUP2 DUP5 PUSH2 0x151C JUMP JUMPDEST SWAP1 POP SWAP3 SWAP2 POP POP JUMP JUMPDEST PUSH1 0x0 PUSH20 0xFFFFFFFFFFFFFFFFFFFFFFFFFFFFFFFFFFFFFFFF DUP3 AND SWAP1 POP SWAP2 SWAP1 POP JUMP JUMPDEST PUSH1 0x0 PUSH2 0x15A2 DUP3 PUSH2 0x1577 JUMP JUMPDEST SWAP1 POP SWAP2 SWAP1 POP JUMP JUMPDEST PUSH2 0x15B2 DUP2 PUSH2 0x1597 JUMP JUMPDEST DUP2 EQ PUSH2 0x15BD JUMPI PUSH1 0x0 DUP1 REVERT JUMPDEST POP JUMP JUMPDEST PUSH1 0x0 DUP2 CALLDATALOAD SWAP1 POP PUSH2 0x15CF DUP2 PUSH2 0x15A9 JUMP JUMPDEST SWAP3 SWAP2 POP POP JUMP JUMPDEST PUSH1 0x0 DUP1 PUSH1 0x40 DUP4 DUP6 SUB SLT ISZERO PUSH2 0x15EC JUMPI PUSH2 0x15EB PUSH2 0x140F JUMP JUMPDEST JUMPDEST PUSH1 0x0 PUSH2 0x15FA DUP6 DUP3 DUP7 ADD PUSH2 0x15C0 JUMP JUMPDEST SWAP3 POP POP PUSH1 0x20 PUSH2 0x160B DUP6 DUP3 DUP7 ADD PUSH2 0x143A JUMP JUMPDEST SWAP2 POP POP SWAP3 POP SWAP3 SWAP1 POP JUMP JUMPDEST PUSH2 0x161E DUP2 PUSH2 0x1419 JUMP JUMPDEST DUP3 MSTORE POP POP JUMP JUMPDEST PUSH1 0x0 PUSH1 0x20 DUP3 ADD SWAP1 POP PUSH2 0x1639 PUSH1 0x0 DUP4 ADD DUP5 PUSH2 0x1615 JUMP JUMPDEST SWAP3 SWAP2 POP POP JUMP JUMPDEST PUSH1 0x0 DUP1 PUSH1 0x0 PUSH1 0x60 DUP5 DUP7 SUB SLT ISZERO PUSH2 0x1658 JUMPI PUSH2 0x1657 PUSH2 0x140F JUMP JUMPDEST JUMPDEST PUSH1 0x0 PUSH2 0x1666 DUP7 DUP3 DUP8 ADD PUSH2 0x15C0 JUMP JUMPDEST SWAP4 POP POP PUSH1 0x20 PUSH2 0x1677 DUP7 DUP3 DUP8 ADD PUSH2 0x15C0 JUMP JUMPDEST SWAP3 POP POP PUSH1 0x40 PUSH2 0x1688 DUP7 DUP3 DUP8 ADD PUSH2 0x143A JUMP JUMPDEST SWAP2 POP POP SWAP3 POP SWAP3 POP SWAP3 JUMP JUMPDEST PUSH1 0x0 PUSH1 0x20 DUP3 DUP5 SUB SLT ISZERO PUSH2 0x16A8 JUMPI PUSH2 0x16A7 PUSH2 0x140F JUMP JUMPDEST JUMPDEST PUSH1 0x0 PUSH2 0x16B6 DUP5 DUP3 DUP6 ADD PUSH2 0x143A JUMP JUMPDEST SWAP2 POP POP SWAP3 SWAP2 POP POP JUMP JUMPDEST PUSH1 0x0 PUSH1 0xFF DUP3 AND SWAP1 POP SWAP2 SWAP1 POP JUMP JUMPDEST PUSH2 0x16D5 DUP2 PUSH2 0x16BF JUMP JUMPDEST DUP3 MSTORE POP POP JUMP JUMPDEST PUSH1 0x0 PUSH1 0x20 DUP3 ADD SWAP1 POP PUSH2 0x16F0 PUSH1 0x0 DUP4 ADD DUP5 PUSH2 0x16CC JUMP JUMPDEST SWAP3 SWAP2 POP POP JUMP JUMPDEST PUSH1 0x0 PUSH1 0x20 DUP3 DUP5 SUB SLT ISZERO PUSH2 0x170C JUMPI PUSH2 0x170B PUSH2 0x140F JUMP JUMPDEST JUMPDEST PUSH1 0x0 PUSH2 0x171A DUP5 DUP3 DUP6 ADD PUSH2 0x15C0 JUMP JUMPDEST SWAP2 POP POP SWAP3 SWAP2 POP POP JUMP JUMPDEST PUSH1 0x0 DUP1 PUSH1 0x40 DUP4 DUP6 SUB SLT ISZERO PUSH2 0x173A JUMPI PUSH2 0x1739 PUSH2 0x140F JUMP JUMPDEST JUMPDEST PUSH1 0x0 PUSH2 0x1748 DUP6 DUP3 DUP7 ADD PUSH2 0x15C0 JUMP JUMPDEST SWAP3 POP POP PUSH1 0x20 PUSH2 0x1759 DUP6 DUP3 DUP7 ADD PUSH2 0x15C0 JUMP JUMPDEST SWAP2 POP POP SWAP3 POP SWAP3 SWAP1 POP JUMP JUMPDEST PUSH1 0x0 DUP1 REVERT JUMPDEST PUSH1 0x0 DUP1 REVERT JUMPDEST PUSH32 0x4E487B7100000000000000000000000000000000000000000000000000000000 PUSH1 0x0 MSTORE PUSH1 0x41 PUSH1 0x4 MSTORE PUSH1 0x24 PUSH1 0x0 REVERT JUMPDEST PUSH2 0x17A5 DUP3 PUSH2 0x150B JUMP JUMPDEST DUP2 ADD DUP2 DUP2 LT PUSH8 0xFFFFFFFFFFFFFFFF DUP3 GT OR ISZERO PUSH2 0x17C4 JUMPI PUSH2 0x17C3 PUSH2 0x176D JUMP JUMPDEST JUMPDEST DUP1 PUSH1 0x40 MSTORE POP POP POP JUMP JUMPDEST PUSH1 0x0 PUSH2 0x17D7 PUSH2 0x1405 JUMP JUMPDEST SWAP1 POP PUSH2 0x17E3 DUP3 DUP3 PUSH2 0x179C JUMP JUMPDEST SWAP2 SWAP1 POP JUMP JUMPDEST PUSH1 0x0 PUSH8 0xFFFFFFFFFFFFFFFF DUP3 GT ISZERO PUSH2 0x1803 JUMPI PUSH2 0x1802 PUSH2 0x176D JUMP JUMPDEST JUMPDEST PUSH2 0x180C DUP3 PUSH2 0x150B JUMP JUMPDEST SWAP1 POP PUSH1 0x20 DUP2 ADD SWAP1 POP SWAP2 SWAP1 POP JUMP JUMPDEST DUP3 DUP2 DUP4 CALLDATACOPY PUSH1 0x0 DUP4 DUP4 ADD MSTORE POP POP POP JUMP JUMPDEST PUSH1 0x0 PUSH2 0x183B PUSH2 0x1836 DUP5 PUSH2 0x17E8 JUMP JUMPDEST PUSH2 0x17CD JUMP JUMPDEST SWAP1 POP DUP3 DUP2 MSTORE PUSH1 0x20 DUP2 ADD DUP5 DUP5 DUP5 ADD GT ISZERO PUSH2 0x1857 JUMPI PUSH2 0x1856 PUSH2 0x1768 JUMP JUMPDEST JUMPDEST PUSH2 0x1862 DUP5 DUP3 DUP6 PUSH2 0x1819 JUMP JUMPDEST POP SWAP4 SWAP3 POP POP POP JUMP JUMPDEST PUSH1 0x0 DUP3 PUSH1 0x1F DUP4 ADD SLT PUSH2 0x187F JUMPI PUSH2 0x187E PUSH2 0x1763 JUMP JUMPDEST JUMPDEST DUP2 CALLDATALOAD PUSH2 0x188F DUP5 DUP3 PUSH1 0x20 DUP7 ADD PUSH2 0x1828 JUMP JUMPDEST SWAP2 POP POP SWAP3 SWAP2 POP POP JUMP JUMPDEST PUSH1 0x0 PUSH1 0x20 DUP3 DUP5 SUB SLT ISZERO PUSH2 0x18AE JUMPI PUSH2 0x18AD PUSH2 0x140F JUMP JUMPDEST JUMPDEST PUSH1 0x0 DUP3 ADD CALLDATALOAD PUSH8 0xFFFFFFFFFFFFFFFF DUP2 GT ISZERO PUSH2 0x18CC JUMPI PUSH2 0x18CB PUSH2 0x1414 JUMP JUMPDEST JUMPDEST PUSH2 0x18D8 DUP5 DUP3 DUP6 ADD PUSH2 0x186A JUMP JUMPDEST SWAP2 POP POP SWAP3 SWAP2 POP POP JUMP JUMPDEST PUSH32 0x6F6E6C7941646D696E0000000000000000000000000000000000000000000000 PUSH1 0x0 DUP3 ADD MSTORE POP JUMP JUMPDEST PUSH1 0x0 PUSH2 0x1917 PUSH1 0x9 DUP4 PUSH2 0x14D0 JUMP JUMPDEST SWAP2 POP PUSH2 0x1922 DUP3 PUSH2 0x18E1 JUMP JUMPDEST PUSH1 0x20 DUP3 ADD SWAP1 POP SWAP2 SWAP1 POP JUMP JUMPDEST PUSH1 0x0 PUSH1 0x20 DUP3 ADD SWAP1 POP DUP2 DUP2 SUB PUSH1 0x0 DUP4 ADD MSTORE PUSH2 0x1946 DUP2 PUSH2 0x190A JUMP JUMPDEST SWAP1 POP SWAP2 SWAP1 POP JUMP JUMPDEST PUSH32 0x4E487B7100000000000000000000000000000000000000000000000000000000 PUSH1 0x0 MSTORE PUSH1 0x22 PUSH1 0x4 MSTORE PUSH1 0x24 PUSH1 0x0 REVERT JUMPDEST PUSH1 0x0 PUSH1 0x2 DUP3 DIV SWAP1 POP PUSH1 0x1 DUP3 AND DUP1 PUSH2 0x1994 JUMPI PUSH1 0x7F DUP3 AND SWAP2 POP JUMPDEST PUSH1 0x20 DUP3 LT DUP2 SUB PUSH2 0x19A7 JUMPI PUSH2 0x19A6 PUSH2 0x194D JUMP JUMPDEST JUMPDEST POP SWAP2 SWAP1 POP JUMP JUMPDEST PUSH32 0x4E487B7100000000000000000000000000000000000000000000000000000000 PUSH1 0x0 MSTORE PUSH1 0x11 PUSH1 0x4 MSTORE PUSH1 0x24 PUSH1 0x0 REVERT JUMPDEST PUSH1 0x0 PUSH2 0x19E7 DUP3 PUSH2 0x1419 JUMP JUMPDEST SWAP2 POP PUSH2 0x19F2 DUP4 PUSH2 0x1419 JUMP JUMPDEST SWAP3 POP DUP3 DUP3 SUB SWAP1 POP DUP2 DUP2 GT ISZERO PUSH2 0x1A0A JUMPI PUSH2 0x1A09 PUSH2 0x19AD JUMP JUMPDEST JUMPDEST SWAP3 SWAP2 POP POP JUMP JUMPDEST PUSH1 0x0 PUSH2 0x1A1B DUP3 PUSH2 0x1419 JUMP JUMPDEST SWAP2 POP PUSH2 0x1A26 DUP4 PUSH2 0x1419 JUMP JUMPDEST SWAP3 POP DUP3 DUP3 ADD SWAP1 POP DUP1 DUP3 GT ISZERO PUSH2 0x1A3E JUMPI PUSH2 0x1A3D PUSH2 0x19AD JUMP JUMPDEST JUMPDEST SWAP3 SWAP2 POP POP JUMP JUMPDEST PUSH1 0x0 DUP2 SWAP1 POP SWAP3 SWAP2 POP POP JUMP JUMPDEST PUSH1 0x0 PUSH2 0x1A5A DUP3 PUSH2 0x14C5 JUMP JUMPDEST PUSH2 0x1A64 DUP2 DUP6 PUSH2 0x1A44 JUMP JUMPDEST SWAP4 POP PUSH2 0x1A74 DUP2 DUP6 PUSH1 0x20 DUP7 ADD PUSH2 0x14E1 JUMP JUMPDEST DUP1 DUP5 ADD SWAP2 POP POP SWAP3 SWAP2 POP POP JUMP JUMPDEST PUSH1 0x0 PUSH2 0x1A8C DUP3 DUP5 PUSH2 0x1A4F JUMP JUMPDEST SWAP2 POP DUP2 SWAP1 POP SWAP3 SWAP2 POP POP JUMP JUMPDEST PUSH32 0x4E487B7100000000000000000000000000000000000000000000000000000000 PUSH1 0x0 MSTORE PUSH1 0x12 PUSH1 0x4 MSTORE PUSH1 0x24 PUSH1 0x0 REVERT JUMPDEST PUSH1 0x0 PUSH2 0x1AD1 DUP3 PUSH2 0x1419 JUMP JUMPDEST SWAP2 POP PUSH2 0x1ADC DUP4 PUSH2 0x1419 JUMP JUMPDEST SWAP3 POP DUP3 PUSH2 0x1AEC JUMPI PUSH2 0x1AEB PUSH2 0x1A97 JUMP JUMPDEST JUMPDEST DUP3 DUP3 DIV SWAP1 POP SWAP3 SWAP2 POP POP JUMP JUMPDEST PUSH1 0x0 PUSH2 0x1B02 DUP3 PUSH2 0x1419 JUMP JUMPDEST SWAP2 POP PUSH2 0x1B0D DUP4 PUSH2 0x1419 JUMP JUMPDEST SWAP3 POP DUP3 DUP3 MUL PUSH2 0x1B1B DUP2 PUSH2 0x1419 JUMP JUMPDEST SWAP2 POP DUP3 DUP3 DIV DUP5 EQ DUP4 ISZERO OR PUSH2 0x1B32 JUMPI PUSH2 0x1B31 PUSH2 0x19AD JUMP JUMPDEST JUMPDEST POP SWAP3 SWAP2 POP POP JUMP INVALID LOG2 PUSH5 0x6970667358 0x22 SLT KECCAK256 0xB6 0xA8 SWAP13 0x22 0xCA 0xBC OR PUSH29 0x6ADAD6A82F01A575B80E99D79C8E7BD2EDFAF187BAED4B7564736F6C63 NUMBER STOP ADDMOD SLT STOP CALLER "
				},
				"gasEstimates": {
					"creation": {
						"codeDepositCost": "1404600",
						"executionCost": "infinite",
						"totalCost": "infinite"
					},
					"external": {
						"allowance(address,address)": "infinite",
						"approve(address,uint256)": "infinite",
						"balanceOf(address)": "2864",
						"decimals()": "2574",
						"maxSupply()": "2509",
						"name()": "infinite",
						"release(string)": "infinite",
						"stake(uint256)": "infinite",
						"stakeOf(address)": "2952",
						"symbol()": "infinite",
						"totalStaked()": "2510",
						"totalSupply()": "2466",
						"totalVotes()": "2533",
						"transfer(address,uint256)": "infinite",
						"transferFrom(address,address,uint256)": "infinite",
						"unstake(uint256)": "infinite",
						"updateSettings(uint256,uint256)": "infinite",
						"votesOf(address)": "2886"
					},
					"internal": {
						"burn_(address,uint256)": "infinite",
						"mintWithVesting_(address,uint256,uint256,string memory)": "infinite",
						"mint_(address,uint256)": "infinite",
						"transfer_(address,address,uint256,uint256,uint256)": "infinite"
					}
				},
				"methodIdentifiers": {
					"allowance(address,address)": "dd62ed3e",
					"approve(address,uint256)": "095ea7b3",
					"balanceOf(address)": "70a08231",
					"decimals()": "313ce567",
					"maxSupply()": "d5abeb01",
					"name()": "06fdde03",
					"release(string)": "f34e3723",
					"stake(uint256)": "a694fc3a",
					"stakeOf(address)": "42623360",
					"symbol()": "95d89b41",
					"totalStaked()": "817b1cd2",
					"totalSupply()": "18160ddd",
					"totalVotes()": "0d15fd77",
					"transfer(address,uint256)": "a9059cbb",
					"transferFrom(address,address,uint256)": "23b872dd",
					"unstake(uint256)": "2e17de78",
					"updateSettings(uint256,uint256)": "015af8ee",
					"votesOf(address)": "79ec5d3a"
				}
			},
			"storageLayout": {
				"storage": [
					{
						"astId": 2030,
						"contract": "smart_contracts/contracts/Token.sol:Token",
						"label": "isAdmin",
						"offset": 0,
						"slot": "0",
						"type": "t_mapping(t_address,t_bool)"
					},
					{
						"astId": 2034,
						"contract": "smart_contracts/contracts/Token.sol:Token",
						"label": "isOperator",
						"offset": 0,
						"slot": "1",
						"type": "t_mapping(t_address,t_bool)"
					},
					{
						"astId": 2038,
						"contract": "smart_contracts/contracts/Token.sol:Token",
						"label": "isSyndicate",
						"offset": 0,
						"slot": "2",
						"type": "t_mapping(t_address,t_bool)"
					},
					{
						"astId": 2042,
						"contract": "smart_contracts/contracts/Token.sol:Token",
						"label": "isValidator",
						"offset": 0,
						"slot": "3",
						"type": "t_mapping(t_address,t_bool)"
					},
					{
						"astId": 2046,
						"contract": "smart_contracts/contracts/Token.sol:Token",
						"label": "isExtension",
						"offset": 0,
						"slot": "4",
						"type": "t_mapping(t_address,t_bool)"
					},
					{
						"astId": 2050,
						"contract": "smart_contracts/contracts/Token.sol:Token",
						"label": "durationAdmin",
						"offset": 0,
						"slot": "5",
						"type": "t_mapping(t_address,t_uint256)"
					},
					{
						"astId": 2054,
						"contract": "smart_contracts/contracts/Token.sol:Token",
						"label": "durationOperator",
						"offset": 0,
						"slot": "6",
						"type": "t_mapping(t_address,t_uint256)"
					},
					{
						"astId": 2058,
						"contract": "smart_contracts/contracts/Token.sol:Token",
						"label": "durationSyndicate",
						"offset": 0,
						"slot": "7",
						"type": "t_mapping(t_address,t_uint256)"
					},
					{
						"astId": 2062,
						"contract": "smart_contracts/contracts/Token.sol:Token",
						"label": "durationValidator",
						"offset": 0,
						"slot": "8",
						"type": "t_mapping(t_address,t_uint256)"
					},
					{
						"astId": 2066,
						"contract": "smart_contracts/contracts/Token.sol:Token",
						"label": "durationExtension",
						"offset": 0,
						"slot": "9",
						"type": "t_mapping(t_address,t_uint256)"
					},
					{
						"astId": 2070,
						"contract": "smart_contracts/contracts/Token.sol:Token",
						"label": "startAdmin",
						"offset": 0,
						"slot": "10",
						"type": "t_mapping(t_address,t_uint256)"
					},
					{
						"astId": 2074,
						"contract": "smart_contracts/contracts/Token.sol:Token",
						"label": "startOperator",
						"offset": 0,
						"slot": "11",
						"type": "t_mapping(t_address,t_uint256)"
					},
					{
						"astId": 2078,
						"contract": "smart_contracts/contracts/Token.sol:Token",
						"label": "startSyndicate",
						"offset": 0,
						"slot": "12",
						"type": "t_mapping(t_address,t_uint256)"
					},
					{
						"astId": 2082,
						"contract": "smart_contracts/contracts/Token.sol:Token",
						"label": "startValidator",
						"offset": 0,
						"slot": "13",
						"type": "t_mapping(t_address,t_uint256)"
					},
					{
						"astId": 2086,
						"contract": "smart_contracts/contracts/Token.sol:Token",
						"label": "startExtension",
						"offset": 0,
						"slot": "14",
						"type": "t_mapping(t_address,t_uint256)"
					},
					{
						"astId": 2090,
						"contract": "smart_contracts/contracts/Token.sol:Token",
						"label": "expiryAdmin",
						"offset": 0,
						"slot": "15",
						"type": "t_mapping(t_address,t_uint256)"
					},
					{
						"astId": 2094,
						"contract": "smart_contracts/contracts/Token.sol:Token",
						"label": "expiryOperator",
						"offset": 0,
						"slot": "16",
						"type": "t_mapping(t_address,t_uint256)"
					},
					{
						"astId": 2098,
						"contract": "smart_contracts/contracts/Token.sol:Token",
						"label": "expirySyndicate",
						"offset": 0,
						"slot": "17",
						"type": "t_mapping(t_address,t_uint256)"
					},
					{
						"astId": 2102,
						"contract": "smart_contracts/contracts/Token.sol:Token",
						"label": "expiryValidator",
						"offset": 0,
						"slot": "18",
						"type": "t_mapping(t_address,t_uint256)"
					},
					{
						"astId": 2106,
						"contract": "smart_contracts/contracts/Token.sol:Token",
						"label": "expiryExtension",
						"offset": 0,
						"slot": "19",
						"type": "t_mapping(t_address,t_uint256)"
					},
					{
						"astId": 2147,
						"contract": "smart_contracts/contracts/Token.sol:Token",
						"label": "settings",
						"offset": 0,
						"slot": "20",
						"type": "t_struct(Settings)2026_storage"
					},
					{
						"astId": 2150,
						"contract": "smart_contracts/contracts/Token.sol:Token",
						"label": "meta",
						"offset": 0,
						"slot": "40",
						"type": "t_struct(Meta)2131_storage"
					},
					{
						"astId": 2157,
						"contract": "smart_contracts/contracts/Token.sol:Token",
						"label": "schedules",
						"offset": 0,
						"slot": "52",
						"type": "t_mapping(t_address,t_mapping(t_string_memory_ptr,t_struct(VestingSchedule)2144_storage))"
					},
					{
						"astId": 2161,
						"contract": "smart_contracts/contracts/Token.sol:Token",
						"label": "balance",
						"offset": 0,
						"slot": "53",
						"type": "t_mapping(t_address,t_uint256)"
					},
					{
						"astId": 2165,
						"contract": "smart_contracts/contracts/Token.sol:Token",
						"label": "staked",
						"offset": 0,
						"slot": "54",
						"type": "t_mapping(t_address,t_uint256)"
					},
					{
						"astId": 2169,
						"contract": "smart_contracts/contracts/Token.sol:Token",
						"label": "votes",
						"offset": 0,
						"slot": "55",
						"type": "t_mapping(t_address,t_uint256)"
					},
					{
						"astId": 2175,
						"contract": "smart_contracts/contracts/Token.sol:Token",
						"label": "allowed",
						"offset": 0,
						"slot": "56",
						"type": "t_mapping(t_address,t_mapping(t_address,t_uint256))"
					}
				],
				"types": {
					"t_address": {
						"encoding": "inplace",
						"label": "address",
						"numberOfBytes": "20"
					},
					"t_bool": {
						"encoding": "inplace",
						"label": "bool",
						"numberOfBytes": "1"
					},
					"t_mapping(t_address,t_bool)": {
						"encoding": "mapping",
						"key": "t_address",
						"label": "mapping(address => bool)",
						"numberOfBytes": "32",
						"value": "t_bool"
					},
					"t_mapping(t_address,t_mapping(t_address,t_uint256))": {
						"encoding": "mapping",
						"key": "t_address",
						"label": "mapping(address => mapping(address => uint256))",
						"numberOfBytes": "32",
						"value": "t_mapping(t_address,t_uint256)"
					},
					"t_mapping(t_address,t_mapping(t_string_memory_ptr,t_struct(VestingSchedule)2144_storage))": {
						"encoding": "mapping",
						"key": "t_address",
						"label": "mapping(address => mapping(string => struct State.VestingSchedule))",
						"numberOfBytes": "32",
						"value": "t_mapping(t_string_memory_ptr,t_struct(VestingSchedule)2144_storage)"
					},
					"t_mapping(t_address,t_uint256)": {
						"encoding": "mapping",
						"key": "t_address",
						"label": "mapping(address => uint256)",
						"numberOfBytes": "32",
						"value": "t_uint256"
					},
					"t_mapping(t_string_memory_ptr,t_struct(VestingSchedule)2144_storage)": {
						"encoding": "mapping",
						"key": "t_string_memory_ptr",
						"label": "mapping(string => struct State.VestingSchedule)",
						"numberOfBytes": "32",
						"value": "t_struct(VestingSchedule)2144_storage"
					},
					"t_string_memory_ptr": {
						"encoding": "bytes",
						"label": "string",
						"numberOfBytes": "32"
					},
					"t_string_storage": {
						"encoding": "bytes",
						"label": "string",
						"numberOfBytes": "32"
					},
					"t_struct(Admin)1964_storage": {
						"encoding": "inplace",
						"label": "struct State.Admin",
						"members": [
							{
								"astId": 1959,
								"contract": "smart_contracts/contracts/Token.sol:Token",
								"label": "cur",
								"offset": 0,
								"slot": "0",
								"type": "t_uint256"
							},
							{
								"astId": 1961,
								"contract": "smart_contracts/contracts/Token.sol:Token",
								"label": "min",
								"offset": 0,
								"slot": "1",
								"type": "t_uint256"
							},
							{
								"astId": 1963,
								"contract": "smart_contracts/contracts/Token.sol:Token",
								"label": "max",
								"offset": 0,
								"slot": "2",
								"type": "t_uint256"
							}
						],
						"numberOfBytes": "96"
					},
					"t_struct(Extension)1992_storage": {
						"encoding": "inplace",
						"label": "struct State.Extension",
						"members": [
							{
								"astId": 1987,
								"contract": "smart_contracts/contracts/Token.sol:Token",
								"label": "cur",
								"offset": 0,
								"slot": "0",
								"type": "t_uint256"
							},
							{
								"astId": 1989,
								"contract": "smart_contracts/contracts/Token.sol:Token",
								"label": "min",
								"offset": 0,
								"slot": "1",
								"type": "t_uint256"
							},
							{
								"astId": 1991,
								"contract": "smart_contracts/contracts/Token.sol:Token",
								"label": "max",
								"offset": 0,
								"slot": "2",
								"type": "t_uint256"
							}
						],
						"numberOfBytes": "96"
					},
					"t_struct(Meta)2131_storage": {
						"encoding": "inplace",
						"label": "struct State.Meta",
						"members": [
							{
								"astId": 2108,
								"contract": "smart_contracts/contracts/Token.sol:Token",
								"label": "name",
								"offset": 0,
								"slot": "0",
								"type": "t_string_storage"
							},
							{
								"astId": 2110,
								"contract": "smart_contracts/contracts/Token.sol:Token",
								"label": "symbol",
								"offset": 0,
								"slot": "1",
								"type": "t_string_storage"
							},
							{
								"astId": 2112,
								"contract": "smart_contracts/contracts/Token.sol:Token",
								"label": "decimals",
								"offset": 0,
								"slot": "2",
								"type": "t_uint8"
							},
							{
								"astId": 2114,
								"contract": "smart_contracts/contracts/Token.sol:Token",
								"label": "mintable",
								"offset": 0,
								"slot": "3",
								"type": "t_uint256"
							},
							{
								"astId": 2116,
								"contract": "smart_contracts/contracts/Token.sol:Token",
								"label": "totalSupply",
								"offset": 0,
								"slot": "4",
								"type": "t_uint256"
							},
							{
								"astId": 2118,
								"contract": "smart_contracts/contracts/Token.sol:Token",
								"label": "totalStaked",
								"offset": 0,
								"slot": "5",
								"type": "t_uint256"
							},
							{
								"astId": 2120,
								"contract": "smart_contracts/contracts/Token.sol:Token",
								"label": "totalVested",
								"offset": 0,
								"slot": "6",
								"type": "t_uint256"
							},
							{
								"astId": 2122,
								"contract": "smart_contracts/contracts/Token.sol:Token",
								"label": "totalVotes",
								"offset": 0,
								"slot": "7",
								"type": "t_uint256"
							},
							{
								"astId": 2124,
								"contract": "smart_contracts/contracts/Token.sol:Token",
								"label": "totalBurnt",
								"offset": 0,
								"slot": "8",
								"type": "t_uint256"
							},
							{
								"astId": 2126,
								"contract": "smart_contracts/contracts/Token.sol:Token",
								"label": "maxSupply",
								"offset": 0,
								"slot": "9",
								"type": "t_uint256"
							},
							{
								"astId": 2128,
								"contract": "smart_contracts/contracts/Token.sol:Token",
								"label": "bank",
								"offset": 0,
								"slot": "10",
								"type": "t_address"
							},
							{
								"astId": 2130,
								"contract": "smart_contracts/contracts/Token.sol:Token",
								"label": "vault",
								"offset": 0,
								"slot": "11",
								"type": "t_address"
							}
						],
						"numberOfBytes": "384"
					},
					"t_struct(Operator)1971_storage": {
						"encoding": "inplace",
						"label": "struct State.Operator",
						"members": [
							{
								"astId": 1966,
								"contract": "smart_contracts/contracts/Token.sol:Token",
								"label": "cur",
								"offset": 0,
								"slot": "0",
								"type": "t_uint256"
							},
							{
								"astId": 1968,
								"contract": "smart_contracts/contracts/Token.sol:Token",
								"label": "min",
								"offset": 0,
								"slot": "1",
								"type": "t_uint256"
							},
							{
								"astId": 1970,
								"contract": "smart_contracts/contracts/Token.sol:Token",
								"label": "max",
								"offset": 0,
								"slot": "2",
								"type": "t_uint256"
							}
						],
						"numberOfBytes": "96"
					},
					"t_struct(Roles)2008_storage": {
						"encoding": "inplace",
						"label": "struct State.Roles",
						"members": [
							{
								"astId": 1995,
								"contract": "smart_contracts/contracts/Token.sol:Token",
								"label": "admin",
								"offset": 0,
								"slot": "0",
								"type": "t_struct(Admin)1964_storage"
							},
							{
								"astId": 1998,
								"contract": "smart_contracts/contracts/Token.sol:Token",
								"label": "operator",
								"offset": 0,
								"slot": "3",
								"type": "t_struct(Operator)1971_storage"
							},
							{
								"astId": 2001,
								"contract": "smart_contracts/contracts/Token.sol:Token",
								"label": "syndicate",
								"offset": 0,
								"slot": "6",
								"type": "t_struct(Syndicate)1978_storage"
							},
							{
								"astId": 2004,
								"contract": "smart_contracts/contracts/Token.sol:Token",
								"label": "validator",
								"offset": 0,
								"slot": "9",
								"type": "t_struct(Validator)1985_storage"
							},
							{
								"astId": 2007,
								"contract": "smart_contracts/contracts/Token.sol:Token",
								"label": "extension",
								"offset": 0,
								"slot": "12",
								"type": "t_struct(Extension)1992_storage"
							}
						],
						"numberOfBytes": "480"
					},
					"t_struct(Settings)2026_storage": {
						"encoding": "inplace",
						"label": "struct State.Settings",
						"members": [
							{
								"astId": 2014,
								"contract": "smart_contracts/contracts/Token.sol:Token",
								"label": "roles",
								"offset": 0,
								"slot": "0",
								"type": "t_struct(Roles)2008_storage"
							},
							{
								"astId": 2016,
								"contract": "smart_contracts/contracts/Token.sol:Token",
								"label": "bpTransferBurnMax",
								"offset": 0,
								"slot": "15",
								"type": "t_uint256"
							},
							{
								"astId": 2018,
								"contract": "smart_contracts/contracts/Token.sol:Token",
								"label": "bpTransferBankMax",
								"offset": 0,
								"slot": "16",
								"type": "t_uint256"
							},
							{
								"astId": 2020,
								"contract": "smart_contracts/contracts/Token.sol:Token",
								"label": "bpTransferBurn",
								"offset": 0,
								"slot": "17",
								"type": "t_uint256"
							},
							{
								"astId": 2022,
								"contract": "smart_contracts/contracts/Token.sol:Token",
								"label": "bpTransferBank",
								"offset": 0,
								"slot": "18",
								"type": "t_uint256"
							},
							{
								"astId": 2025,
								"contract": "smart_contracts/contracts/Token.sol:Token",
								"label": "votingMechanic",
								"offset": 0,
								"slot": "19",
								"type": "t_struct(VotingMechanic)2011_storage"
							}
						],
						"numberOfBytes": "640"
					},
					"t_struct(Syndicate)1978_storage": {
						"encoding": "inplace",
						"label": "struct State.Syndicate",
						"members": [
							{
								"astId": 1973,
								"contract": "smart_contracts/contracts/Token.sol:Token",
								"label": "cur",
								"offset": 0,
								"slot": "0",
								"type": "t_uint256"
							},
							{
								"astId": 1975,
								"contract": "smart_contracts/contracts/Token.sol:Token",
								"label": "min",
								"offset": 0,
								"slot": "1",
								"type": "t_uint256"
							},
							{
								"astId": 1977,
								"contract": "smart_contracts/contracts/Token.sol:Token",
								"label": "max",
								"offset": 0,
								"slot": "2",
								"type": "t_uint256"
							}
						],
						"numberOfBytes": "96"
					},
					"t_struct(Validator)1985_storage": {
						"encoding": "inplace",
						"label": "struct State.Validator",
						"members": [
							{
								"astId": 1980,
								"contract": "smart_contracts/contracts/Token.sol:Token",
								"label": "cur",
								"offset": 0,
								"slot": "0",
								"type": "t_uint256"
							},
							{
								"astId": 1982,
								"contract": "smart_contracts/contracts/Token.sol:Token",
								"label": "min",
								"offset": 0,
								"slot": "1",
								"type": "t_uint256"
							},
							{
								"astId": 1984,
								"contract": "smart_contracts/contracts/Token.sol:Token",
								"label": "max",
								"offset": 0,
								"slot": "2",
								"type": "t_uint256"
							}
						],
						"numberOfBytes": "96"
					},
					"t_struct(VestingSchedule)2144_storage": {
						"encoding": "inplace",
						"label": "struct State.VestingSchedule",
						"members": [
							{
								"astId": 2133,
								"contract": "smart_contracts/contracts/Token.sol:Token",
								"label": "caption",
								"offset": 0,
								"slot": "0",
								"type": "t_string_storage"
							},
							{
								"astId": 2135,
								"contract": "smart_contracts/contracts/Token.sol:Token",
								"label": "duration",
								"offset": 0,
								"slot": "1",
								"type": "t_uint256"
							},
							{
								"astId": 2137,
								"contract": "smart_contracts/contracts/Token.sol:Token",
								"label": "start",
								"offset": 0,
								"slot": "2",
								"type": "t_uint256"
							},
							{
								"astId": 2139,
								"contract": "smart_contracts/contracts/Token.sol:Token",
								"label": "end",
								"offset": 0,
								"slot": "3",
								"type": "t_uint256"
							},
							{
								"astId": 2141,
								"contract": "smart_contracts/contracts/Token.sol:Token",
								"label": "value",
								"offset": 0,
								"slot": "4",
								"type": "t_uint256"
							},
							{
								"astId": 2143,
								"contract": "smart_contracts/contracts/Token.sol:Token",
								"label": "used",
								"offset": 0,
								"slot": "5",
								"type": "t_bool"
							}
						],
						"numberOfBytes": "192"
					},
					"t_struct(VotingMechanic)2011_storage": {
						"encoding": "inplace",
						"label": "struct State.VotingMechanic",
						"members": [
							{
								"astId": 2010,
								"contract": "smart_contracts/contracts/Token.sol:Token",
								"label": "voteWeightPerToken",
								"offset": 0,
								"slot": "0",
								"type": "t_uint256"
							}
						],
						"numberOfBytes": "32"
					},
					"t_uint256": {
						"encoding": "inplace",
						"label": "uint256",
						"numberOfBytes": "32"
					},
					"t_uint8": {
						"encoding": "inplace",
						"label": "uint8",
						"numberOfBytes": "1"
					}
				}
			},
			"userdoc": {
				"kind": "user",
				"methods": {},
				"version": 1
			}
		}
	}
}