{
	"smart_contracts/contracts/BaseERC20.sol": {
		"BaseERC20": {
			"abi": [
				{
					"inputs": [],
					"stateMutability": "nonpayable",
					"type": "constructor"
				},
				{
					"anonymous": false,
					"inputs": [
						{
							"indexed": true,
							"internalType": "address",
							"name": "owner",
							"type": "address"
						},
						{
							"indexed": true,
							"internalType": "address",
							"name": "spender",
							"type": "address"
						},
						{
							"indexed": false,
							"internalType": "uint256",
							"name": "amount",
							"type": "uint256"
						}
					],
					"name": "Approval",
					"type": "event"
				},
				{
					"anonymous": false,
					"inputs": [
						{
							"indexed": true,
							"internalType": "address",
							"name": "account",
							"type": "address"
						},
						{
							"indexed": false,
							"internalType": "uint256",
							"name": "amount",
							"type": "uint256"
						}
					],
					"name": "Burn",
					"type": "event"
				},
				{
					"anonymous": false,
					"inputs": [
						{
							"indexed": true,
							"internalType": "address",
							"name": "account",
							"type": "address"
						},
						{
							"indexed": false,
							"internalType": "uint256",
							"name": "amount",
							"type": "uint256"
						}
					],
					"name": "Mint",
					"type": "event"
				},
				{
					"anonymous": false,
					"inputs": [
						{
							"indexed": true,
							"internalType": "address",
							"name": "account",
							"type": "address"
						},
						{
							"indexed": false,
							"internalType": "string",
							"name": "role",
							"type": "string"
						}
					],
					"name": "RoleGranted",
					"type": "event"
				},
				{
					"anonymous": false,
					"inputs": [
						{
							"indexed": true,
							"internalType": "address",
							"name": "account",
							"type": "address"
						},
						{
							"indexed": false,
							"internalType": "string",
							"name": "role",
							"type": "string"
						}
					],
					"name": "RoleRevoked",
					"type": "event"
				},
				{
					"anonymous": false,
					"inputs": [
						{
							"indexed": true,
							"internalType": "address",
							"name": "account",
							"type": "address"
						},
						{
							"indexed": false,
							"internalType": "uint256",
							"name": "amount",
							"type": "uint256"
						}
					],
					"name": "TokensReleased",
					"type": "event"
				},
				{
					"anonymous": false,
					"inputs": [
						{
							"indexed": true,
							"internalType": "address",
							"name": "from",
							"type": "address"
						},
						{
							"indexed": true,
							"internalType": "address",
							"name": "to",
							"type": "address"
						},
						{
							"indexed": false,
							"internalType": "uint256",
							"name": "amount",
							"type": "uint256"
						}
					],
					"name": "Transfer",
					"type": "event"
				},
				{
					"inputs": [
						{
							"internalType": "address",
							"name": "owner",
							"type": "address"
						},
						{
							"internalType": "address",
							"name": "spender",
							"type": "address"
						}
					],
					"name": "allowance",
					"outputs": [
						{
							"internalType": "uint256",
							"name": "",
							"type": "uint256"
						}
					],
					"stateMutability": "view",
					"type": "function"
				},
				{
					"inputs": [
						{
							"internalType": "address",
							"name": "spender",
							"type": "address"
						},
						{
							"internalType": "uint256",
							"name": "amount",
							"type": "uint256"
						}
					],
					"name": "approve",
					"outputs": [
						{
							"internalType": "bool",
							"name": "",
							"type": "bool"
						}
					],
					"stateMutability": "nonpayable",
					"type": "function"
				},
				{
					"inputs": [
						{
							"internalType": "address",
							"name": "account",
							"type": "address"
						}
					],
					"name": "balanceOf",
					"outputs": [
						{
							"internalType": "uint256",
							"name": "",
							"type": "uint256"
						}
					],
					"stateMutability": "view",
					"type": "function"
				},
				{
					"inputs": [],
					"name": "decimals",
					"outputs": [
						{
							"internalType": "uint256",
							"name": "",
							"type": "uint256"
						}
					],
					"stateMutability": "view",
					"type": "function"
				},
				{
					"inputs": [
						{
							"internalType": "address",
							"name": "spender",
							"type": "address"
						},
						{
							"internalType": "uint256",
							"name": "subtractedValue",
							"type": "uint256"
						}
					],
					"name": "decreaseAllowance",
					"outputs": [
						{
							"internalType": "bool",
							"name": "",
							"type": "bool"
						}
					],
					"stateMutability": "nonpayable",
					"type": "function"
				},
				{
					"inputs": [
						{
							"internalType": "address",
							"name": "spender",
							"type": "address"
						},
						{
							"internalType": "uint256",
							"name": "addedValue",
							"type": "uint256"
						}
					],
					"name": "increaseAllowance",
					"outputs": [
						{
							"internalType": "bool",
							"name": "",
							"type": "bool"
						}
					],
					"stateMutability": "nonpayable",
					"type": "function"
				},
				{
					"inputs": [],
					"name": "name",
					"outputs": [
						{
							"internalType": "string",
							"name": "",
							"type": "string"
						}
					],
					"stateMutability": "view",
					"type": "function"
				},
				{
					"inputs": [],
					"name": "release",
					"outputs": [
						{
							"internalType": "bool",
							"name": "",
							"type": "bool"
						}
					],
					"stateMutability": "nonpayable",
					"type": "function"
				},
				{
					"inputs": [],
					"name": "revokeIsFoundingTeam",
					"outputs": [],
					"stateMutability": "nonpayable",
					"type": "function"
				},
				{
					"inputs": [
						{
							"internalType": "address",
							"name": "account",
							"type": "address"
						}
					],
					"name": "stakedFor",
					"outputs": [
						{
							"internalType": "uint256",
							"name": "",
							"type": "uint256"
						}
					],
					"stateMutability": "view",
					"type": "function"
				},
				{
					"inputs": [],
					"name": "symbol",
					"outputs": [
						{
							"internalType": "string",
							"name": "",
							"type": "string"
						}
					],
					"stateMutability": "view",
					"type": "function"
				},
				{
					"inputs": [],
					"name": "totalStaked",
					"outputs": [
						{
							"internalType": "uint256",
							"name": "",
							"type": "uint256"
						}
					],
					"stateMutability": "view",
					"type": "function"
				},
				{
					"inputs": [],
					"name": "totalSupply",
					"outputs": [
						{
							"internalType": "uint256",
							"name": "",
							"type": "uint256"
						}
					],
					"stateMutability": "view",
					"type": "function"
				},
				{
					"inputs": [],
					"name": "totalVested",
					"outputs": [
						{
							"internalType": "uint256",
							"name": "",
							"type": "uint256"
						}
					],
					"stateMutability": "view",
					"type": "function"
				},
				{
					"inputs": [
						{
							"internalType": "address",
							"name": "recipient",
							"type": "address"
						},
						{
							"internalType": "uint256",
							"name": "amount",
							"type": "uint256"
						}
					],
					"name": "transfer",
					"outputs": [
						{
							"internalType": "bool",
							"name": "",
							"type": "bool"
						}
					],
					"stateMutability": "nonpayable",
					"type": "function"
				},
				{
					"inputs": [
						{
							"internalType": "address",
							"name": "sender",
							"type": "address"
						},
						{
							"internalType": "address",
							"name": "recipient",
							"type": "address"
						},
						{
							"internalType": "uint256",
							"name": "amount",
							"type": "uint256"
						}
					],
					"name": "transferFrom",
					"outputs": [
						{
							"internalType": "bool",
							"name": "",
							"type": "bool"
						}
					],
					"stateMutability": "nonpayable",
					"type": "function"
				},
				{
					"inputs": [
						{
							"internalType": "address",
							"name": "account",
							"type": "address"
						}
					],
					"name": "vestedFor",
					"outputs": [
						{
							"internalType": "uint256",
							"name": "",
							"type": "uint256"
						}
					],
					"stateMutability": "view",
					"type": "function"
				},
				{
					"inputs": [
						{
							"internalType": "address",
							"name": "account",
							"type": "address"
						}
					],
					"name": "voteWeightOf",
					"outputs": [
						{
							"internalType": "uint256",
							"name": "",
							"type": "uint256"
						}
					],
					"stateMutability": "view",
					"type": "function"
				}
			],
			"devdoc": {
				"kind": "dev",
				"methods": {},
				"version": 1
			},
			"evm": {
				"assembly": "    /* \"smart_contracts/contracts/BaseERC20.sol\":150:10022  contract BaseERC20 {... */\n  mstore(0x40, 0x80)\n    /* \"smart_contracts/contracts/BaseERC20.sol\":9225:10020  constructor() {... */\n  callvalue\n  dup1\n  iszero\n  tag_1\n  jumpi\n  0x00\n  dup1\n  revert\ntag_1:\n  pop\n    /* \"smart_contracts/contracts/BaseERC20.sol\":9249:9281  properties.name = \"Dreamcatcher\" */\n  mload(0x40)\n  dup1\n  0x40\n  add\n  0x40\n  mstore\n  dup1\n  0x0c\n  dup2\n  mstore\n  0x20\n  add\n  0x447265616d636174636865720000000000000000000000000000000000000000\n  dup2\n  mstore\n  pop\n    /* \"smart_contracts/contracts/BaseERC20.sol\":9249:9259  properties */\n  0x01\n    /* \"smart_contracts/contracts/BaseERC20.sol\":9249:9264  properties.name */\n  0x00\n  add\n    /* \"smart_contracts/contracts/BaseERC20.sol\":9249:9281  properties.name = \"Dreamcatcher\" */\n  swap1\n  dup2\n  tag_4\n  swap2\n  swap1\n  tag_5\n  jump\t// in\ntag_4:\n  pop\n    /* \"smart_contracts/contracts/BaseERC20.sol\":9291:9318  properties.symbol = \"DREAM\" */\n  mload(0x40)\n  dup1\n  0x40\n  add\n  0x40\n  mstore\n  dup1\n  0x05\n  dup2\n  mstore\n  0x20\n  add\n  0x445245414d000000000000000000000000000000000000000000000000000000\n  dup2\n  mstore\n  pop\n    /* \"smart_contracts/contracts/BaseERC20.sol\":9291:9301  properties */\n  0x01\n    /* \"smart_contracts/contracts/BaseERC20.sol\":9291:9308  properties.symbol */\n  dup1\n  add\n    /* \"smart_contracts/contracts/BaseERC20.sol\":9291:9318  properties.symbol = \"DREAM\" */\n  swap1\n  dup2\n  tag_6\n  swap2\n  swap1\n  tag_5\n  jump\t// in\ntag_6:\n  pop\n    /* \"smart_contracts/contracts/BaseERC20.sol\":9350:9352  18 */\n  0x12\n    /* \"smart_contracts/contracts/BaseERC20.sol\":9328:9338  properties */\n  0x01\n    /* \"smart_contracts/contracts/BaseERC20.sol\":9328:9347  properties.decimals */\n  0x02\n  add\n    /* \"smart_contracts/contracts/BaseERC20.sol\":9328:9352  properties.decimals = 18 */\n  dup2\n  swap1\n  sstore\n  pop\n    /* \"smart_contracts/contracts/BaseERC20.sol\":9385:9391  100000 */\n  0x0186a0\n    /* \"smart_contracts/contracts/BaseERC20.sol\":9362:9372  properties */\n  0x01\n    /* \"smart_contracts/contracts/BaseERC20.sol\":9362:9382  properties.maxSupply */\n  0x03\n  add\n    /* \"smart_contracts/contracts/BaseERC20.sol\":9362:9391  properties.maxSupply = 100000 */\n  dup2\n  swap1\n  sstore\n  pop\n    /* \"smart_contracts/contracts/BaseERC20.sol\":9426:9427  0 */\n  0x00\n    /* \"smart_contracts/contracts/BaseERC20.sol\":9401:9411  properties */\n  0x01\n    /* \"smart_contracts/contracts/BaseERC20.sol\":9401:9423  properties.totalSupply */\n  0x04\n  add\n    /* \"smart_contracts/contracts/BaseERC20.sol\":9401:9427  properties.totalSupply = 0 */\n  dup2\n  swap1\n  sstore\n  pop\n    /* \"smart_contracts/contracts/BaseERC20.sol\":9462:9463  0 */\n  0x00\n    /* \"smart_contracts/contracts/BaseERC20.sol\":9437:9447  properties */\n  0x01\n    /* \"smart_contracts/contracts/BaseERC20.sol\":9437:9459  properties.totalVested */\n  0x05\n  add\n    /* \"smart_contracts/contracts/BaseERC20.sol\":9437:9463  properties.totalVested = 0 */\n  dup2\n  swap1\n  sstore\n  pop\n    /* \"smart_contracts/contracts/BaseERC20.sol\":9498:9499  0 */\n  0x00\n    /* \"smart_contracts/contracts/BaseERC20.sol\":9473:9483  properties */\n  0x01\n    /* \"smart_contracts/contracts/BaseERC20.sol\":9473:9495  properties.totalStaked */\n  0x06\n  add\n    /* \"smart_contracts/contracts/BaseERC20.sol\":9473:9499  properties.totalStaked = 0 */\n  dup2\n  swap1\n  sstore\n  pop\n    /* \"smart_contracts/contracts/BaseERC20.sol\":9522:9526  true */\n  0x01\n    /* \"smart_contracts/contracts/BaseERC20.sol\":9509:9519  isMintable */\n  0x00\n  dup1\n    /* \"smart_contracts/contracts/BaseERC20.sol\":9509:9526  isMintable = true */\n  0x0100\n  exp\n  dup2\n  sload\n  dup2\n  0xff\n  mul\n  not\n  and\n  swap1\n  dup4\n  iszero\n  iszero\n  mul\n  or\n  swap1\n  sstore\n  pop\n    /* \"smart_contracts/contracts/BaseERC20.sol\":9549:9553  true */\n  0x01\n    /* \"smart_contracts/contracts/BaseERC20.sol\":9536:9546  isBurnable */\n  0x00\n  0x01\n    /* \"smart_contracts/contracts/BaseERC20.sol\":9536:9553  isBurnable = true */\n  0x0100\n  exp\n  dup2\n  sload\n  dup2\n  0xff\n  mul\n  not\n  and\n  swap1\n  dup4\n  iszero\n  iszero\n  mul\n  or\n  swap1\n  sstore\n  pop\n    /* \"smart_contracts/contracts/BaseERC20.sol\":9563:9690  _mintWithVesting(... */\n  tag_7\n    /* \"smart_contracts/contracts/BaseERC20.sol\":9593:9635  0xDbF85074764156004FEb245b65693e59a62262c2 */\n  0xdbf85074764156004feb245b65693e59a62262c2\n    /* \"smart_contracts/contracts/BaseERC20.sol\":9649:9655  10_000 */\n  0x2710\n    /* \"smart_contracts/contracts/BaseERC20.sol\":9669:9680  4_800 weeks */\n  0xad08e000\n    /* \"smart_contracts/contracts/BaseERC20.sol\":9563:9579  _mintWithVesting */\n  shl(0x20, tag_8)\n    /* \"smart_contracts/contracts/BaseERC20.sol\":9563:9690  _mintWithVesting(... */\n  0x20\n  shr\n  jump\t// in\ntag_7:\n  pop\n    /* \"smart_contracts/contracts/BaseERC20.sol\":9700:9824  _mintWithVesting(... */\n  tag_9\n    /* \"smart_contracts/contracts/BaseERC20.sol\":9730:9772  0x172952523F64EAAF288DE4cE9e5d1295DCFd3F83 */\n  0x172952523f64eaaf288de4ce9e5d1295dcfd3f83\n    /* \"smart_contracts/contracts/BaseERC20.sol\":9786:9791  1_000 */\n  0x03e8\n    /* \"smart_contracts/contracts/BaseERC20.sol\":9805:9814  480 weeks */\n  0x114db000\n    /* \"smart_contracts/contracts/BaseERC20.sol\":9700:9716  _mintWithVesting */\n  shl(0x20, tag_8)\n    /* \"smart_contracts/contracts/BaseERC20.sol\":9700:9824  _mintWithVesting(... */\n  0x20\n  shr\n  jump\t// in\ntag_9:\n  pop\n    /* \"smart_contracts/contracts/BaseERC20.sol\":9834:9958  _mintWithVesting(... */\n  tag_10\n    /* \"smart_contracts/contracts/BaseERC20.sol\":9864:9906  0x1de8807f69E357FD91e47B34Dc2a66216a9DC4b4 */\n  0x1de8807f69e357fd91e47b34dc2a66216a9dc4b4\n    /* \"smart_contracts/contracts/BaseERC20.sol\":9920:9925  1_000 */\n  0x03e8\n    /* \"smart_contracts/contracts/BaseERC20.sol\":9939:9948  480 weeks */\n  0x114db000\n    /* \"smart_contracts/contracts/BaseERC20.sol\":9834:9850  _mintWithVesting */\n  shl(0x20, tag_8)\n    /* \"smart_contracts/contracts/BaseERC20.sol\":9834:9958  _mintWithVesting(... */\n  0x20\n  shr\n  jump\t// in\ntag_10:\n  pop\n    /* \"smart_contracts/contracts/BaseERC20.sol\":9968:10013  _mintWithVesting(msg.sender, 80_000, 2 weeks) */\n  tag_11\n    /* \"smart_contracts/contracts/BaseERC20.sol\":9985:9995  msg.sender */\n  caller\n    /* \"smart_contracts/contracts/BaseERC20.sol\":9997:10003  80_000 */\n  0x013880\n    /* \"smart_contracts/contracts/BaseERC20.sol\":10005:10012  2 weeks */\n  0x127500\n    /* \"smart_contracts/contracts/BaseERC20.sol\":9968:9984  _mintWithVesting */\n  shl(0x20, tag_8)\n    /* \"smart_contracts/contracts/BaseERC20.sol\":9968:10013  _mintWithVesting(msg.sender, 80_000, 2 weeks) */\n  0x20\n  shr\n  jump\t// in\ntag_11:\n  pop\n    /* \"smart_contracts/contracts/BaseERC20.sol\":150:10022  contract BaseERC20 {... */\n  jump(tag_12)\n    /* \"smart_contracts/contracts/BaseERC20.sol\":5685:6546  function _mintWithVesting(... */\ntag_8:\n    /* \"smart_contracts/contracts/BaseERC20.sol\":5809:5813  bool */\n  0x00\n    /* \"smart_contracts/contracts/BaseERC20.sol\":5842:5843  0 */\n  dup1\n    /* \"smart_contracts/contracts/BaseERC20.sol\":5833:5839  amount */\n  dup4\n    /* \"smart_contracts/contracts/BaseERC20.sol\":5833:5843  amount > 0 */\n  gt\n    /* \"smart_contracts/contracts/BaseERC20.sol\":5825:5886  require(amount > 0, \"Zero and negative values not supported\") */\n  tag_14\n  jumpi\n  mload(0x40)\n  0x08c379a000000000000000000000000000000000000000000000000000000000\n  dup2\n  mstore\n  0x04\n  add\n  tag_15\n  swap1\n  tag_16\n  jump\t// in\ntag_15:\n  mload(0x40)\n  dup1\n  swap2\n  sub\n  swap1\n  revert\ntag_14:\n    /* \"smart_contracts/contracts/BaseERC20.sol\":5918:5922  true */\n  0x01\n    /* \"smart_contracts/contracts/BaseERC20.sol\":5904:5922  isMintable == true */\n  iszero\n  iszero\n    /* \"smart_contracts/contracts/BaseERC20.sol\":5904:5914  isMintable */\n  0x00\n  dup1\n  sload\n  swap1\n  0x0100\n  exp\n  swap1\n  div\n  0xff\n  and\n    /* \"smart_contracts/contracts/BaseERC20.sol\":5904:5922  isMintable == true */\n  iszero\n  iszero\n  eq\n    /* \"smart_contracts/contracts/BaseERC20.sol\":5896:5943  require(isMintable == true, \"Minting disabled\") */\n  tag_17\n  jumpi\n  mload(0x40)\n  0x08c379a000000000000000000000000000000000000000000000000000000000\n  dup2\n  mstore\n  0x04\n  add\n  tag_18\n  swap1\n  tag_19\n  jump\t// in\ntag_18:\n  mload(0x40)\n  dup1\n  swap2\n  sub\n  swap1\n  revert\ntag_17:\n    /* \"smart_contracts/contracts/BaseERC20.sol\":6011:6021  properties */\n  0x01\n    /* \"smart_contracts/contracts/BaseERC20.sol\":6011:6031  properties.maxSupply */\n  0x03\n  add\n  sload\n    /* \"smart_contracts/contracts/BaseERC20.sol\":6000:6006  amount */\n  dup4\n    /* \"smart_contracts/contracts/BaseERC20.sol\":5975:5985  properties */\n  0x01\n    /* \"smart_contracts/contracts/BaseERC20.sol\":5975:5997  properties.totalSupply */\n  0x04\n  add\n  sload\n    /* \"smart_contracts/contracts/BaseERC20.sol\":5975:6006  properties.totalSupply + amount */\n  tag_20\n  swap2\n  swap1\n  tag_21\n  jump\t// in\ntag_20:\n    /* \"smart_contracts/contracts/BaseERC20.sol\":5974:6031  (properties.totalSupply + amount) <= properties.maxSupply */\n  gt\n  iszero\n    /* \"smart_contracts/contracts/BaseERC20.sol\":5953:6085  require(... */\n  tag_22\n  jumpi\n  mload(0x40)\n  0x08c379a000000000000000000000000000000000000000000000000000000000\n  dup2\n  mstore\n  0x04\n  add\n  tag_23\n  swap1\n  tag_24\n  jump\t// in\ntag_23:\n  mload(0x40)\n  dup1\n  swap2\n  sub\n  swap1\n  revert\ntag_22:\n    /* \"smart_contracts/contracts/BaseERC20.sol\":6122:6123  0 */\n  0x00\n    /* \"smart_contracts/contracts/BaseERC20.sol\":6103:6124  account != address(0) */\n  0xffffffffffffffffffffffffffffffffffffffff\n  and\n    /* \"smart_contracts/contracts/BaseERC20.sol\":6103:6110  account */\n  dup5\n    /* \"smart_contracts/contracts/BaseERC20.sol\":6103:6124  account != address(0) */\n  0xffffffffffffffffffffffffffffffffffffffff\n  and\n  sub\n    /* \"smart_contracts/contracts/BaseERC20.sol\":6095:6150  require(account != address(0), \"Address not supported\") */\n  tag_25\n  jumpi\n  mload(0x40)\n  0x08c379a000000000000000000000000000000000000000000000000000000000\n  dup2\n  mstore\n  0x04\n  add\n  tag_26\n  swap1\n  tag_27\n  jump\t// in\ntag_26:\n  mload(0x40)\n  dup1\n  swap2\n  sub\n  swap1\n  revert\ntag_25:\n    /* \"smart_contracts/contracts/BaseERC20.sol\":6160:6173  uint256 start */\n  0x00\n    /* \"smart_contracts/contracts/BaseERC20.sol\":6176:6191  block.timestamp */\n  timestamp\n    /* \"smart_contracts/contracts/BaseERC20.sol\":6160:6191  uint256 start = block.timestamp */\n  swap1\n  pop\n    /* \"smart_contracts/contracts/BaseERC20.sol\":6201:6212  uint256 end */\n  0x00\n    /* \"smart_contracts/contracts/BaseERC20.sol\":6223:6231  duration */\n  dup4\n    /* \"smart_contracts/contracts/BaseERC20.sol\":6215:6220  start */\n  dup3\n    /* \"smart_contracts/contracts/BaseERC20.sol\":6215:6231  start + duration */\n  tag_28\n  swap2\n  swap1\n  tag_21\n  jump\t// in\ntag_28:\n    /* \"smart_contracts/contracts/BaseERC20.sol\":6201:6231  uint256 end = start + duration */\n  swap1\n  pop\n    /* \"smart_contracts/contracts/BaseERC20.sol\":6241:6287  Vesting.VestingSchedule memory vestingSchedule */\n  0x00\n    /* \"smart_contracts/contracts/BaseERC20.sol\":6290:6349  Vesting... */\n  mload(0x40)\n  dup1\n  0x80\n  add\n  0x40\n  mstore\n  dup1\n    /* \"smart_contracts/contracts/BaseERC20.sol\":6327:6333  amount */\n  dup8\n    /* \"smart_contracts/contracts/BaseERC20.sol\":6290:6349  Vesting... */\n  dup2\n  mstore\n  0x20\n  add\n    /* \"smart_contracts/contracts/BaseERC20.sol\":6335:6340  start */\n  dup5\n    /* \"smart_contracts/contracts/BaseERC20.sol\":6290:6349  Vesting... */\n  dup2\n  mstore\n  0x20\n  add\n    /* \"smart_contracts/contracts/BaseERC20.sol\":6342:6345  end */\n  dup4\n    /* \"smart_contracts/contracts/BaseERC20.sol\":6290:6349  Vesting... */\n  dup2\n  mstore\n  0x20\n  add\n    /* \"smart_contracts/contracts/BaseERC20.sol\":6347:6348  0 */\n  0x00\n    /* \"smart_contracts/contracts/BaseERC20.sol\":6290:6349  Vesting... */\n  dup2\n  mstore\n  pop\n    /* \"smart_contracts/contracts/BaseERC20.sol\":6241:6349  Vesting.VestingSchedule memory vestingSchedule = Vesting... */\n  swap1\n  pop\n    /* \"smart_contracts/contracts/BaseERC20.sol\":6359:6367  schedule */\n  0x14\n    /* \"smart_contracts/contracts/BaseERC20.sol\":6359:6376  schedule[account] */\n  0x00\n    /* \"smart_contracts/contracts/BaseERC20.sol\":6368:6375  account */\n  dup9\n    /* \"smart_contracts/contracts/BaseERC20.sol\":6359:6376  schedule[account] */\n  0xffffffffffffffffffffffffffffffffffffffff\n  and\n  0xffffffffffffffffffffffffffffffffffffffff\n  and\n  dup2\n  mstore\n  0x20\n  add\n  swap1\n  dup2\n  mstore\n  0x20\n  add\n  0x00\n  keccak256\n    /* \"smart_contracts/contracts/BaseERC20.sol\":6382:6397  vestingSchedule */\n  dup2\n    /* \"smart_contracts/contracts/BaseERC20.sol\":6359:6398  schedule[account].push(vestingSchedule) */\n  swap1\n  dup1\n  0x01\n  dup2\n  sload\n  add\n  dup1\n  dup3\n  sstore\n  dup1\n  swap2\n  pop\n  pop\n  0x01\n  swap1\n  sub\n  swap1\n  0x00\n  mstore\n  keccak256(0x00, 0x20)\n  swap1\n  0x04\n  mul\n  add\n  0x00\n  swap1\n  swap2\n  swap1\n  swap2\n  swap1\n  swap2\n  pop\n  0x00\n  dup3\n  add\n  mload\n  dup2\n  0x00\n  add\n  sstore\n  0x20\n  dup3\n  add\n  mload\n  dup2\n  0x01\n  add\n  sstore\n  0x40\n  dup3\n  add\n  mload\n  dup2\n  0x02\n  add\n  sstore\n  0x60\n  dup3\n  add\n  mload\n  dup2\n  0x03\n  add\n  sstore\n  pop\n  pop\n    /* \"smart_contracts/contracts/BaseERC20.sol\":6434:6440  amount */\n  dup6\n    /* \"smart_contracts/contracts/BaseERC20.sol\":6408:6418  properties */\n  0x01\n    /* \"smart_contracts/contracts/BaseERC20.sol\":6408:6430  properties.totalSupply */\n  0x04\n  add\n  0x00\n    /* \"smart_contracts/contracts/BaseERC20.sol\":6408:6440  properties.totalSupply += amount */\n  dup3\n  dup3\n  sload\n  tag_30\n  swap2\n  swap1\n  tag_21\n  jump\t// in\ntag_30:\n  swap3\n  pop\n  pop\n  dup2\n  swap1\n  sstore\n  pop\n    /* \"smart_contracts/contracts/BaseERC20.sol\":6476:6482  amount */\n  dup6\n    /* \"smart_contracts/contracts/BaseERC20.sol\":6450:6460  properties */\n  0x01\n    /* \"smart_contracts/contracts/BaseERC20.sol\":6450:6472  properties.totalVested */\n  0x05\n  add\n  0x00\n    /* \"smart_contracts/contracts/BaseERC20.sol\":6450:6482  properties.totalVested += amount */\n  dup3\n  dup3\n  sload\n  tag_31\n  swap2\n  swap1\n  tag_21\n  jump\t// in\ntag_31:\n  swap3\n  pop\n  pop\n  dup2\n  swap1\n  sstore\n  pop\n    /* \"smart_contracts/contracts/BaseERC20.sol\":6502:6509  account */\n  dup7\n    /* \"smart_contracts/contracts/BaseERC20.sol\":6497:6518  Mint(account, amount) */\n  0xffffffffffffffffffffffffffffffffffffffff\n  and\n  0x0f6798a560793a54c3bcfe86a93cde1e73087d944c0ea20544137d4121396885\n    /* \"smart_contracts/contracts/BaseERC20.sol\":6511:6517  amount */\n  dup8\n    /* \"smart_contracts/contracts/BaseERC20.sol\":6497:6518  Mint(account, amount) */\n  mload(0x40)\n  tag_32\n  swap2\n  swap1\n  tag_33\n  jump\t// in\ntag_32:\n  mload(0x40)\n  dup1\n  swap2\n  sub\n  swap1\n  log2\n    /* \"smart_contracts/contracts/BaseERC20.sol\":6535:6539  true */\n  0x01\n    /* \"smart_contracts/contracts/BaseERC20.sol\":6528:6539  return true */\n  swap4\n  pop\n  pop\n  pop\n  pop\n    /* \"smart_contracts/contracts/BaseERC20.sol\":5685:6546  function _mintWithVesting(... */\n  swap4\n  swap3\n  pop\n  pop\n  pop\n  jump\t// out\n    /* \"#utility.yul\":7:106   */\ntag_34:\n    /* \"#utility.yul\":59:65   */\n  0x00\n    /* \"#utility.yul\":93:98   */\n  dup2\n    /* \"#utility.yul\":87:99   */\n  mload\n    /* \"#utility.yul\":77:99   */\n  swap1\n  pop\n    /* \"#utility.yul\":7:106   */\n  swap2\n  swap1\n  pop\n  jump\t// out\n    /* \"#utility.yul\":112:292   */\ntag_35:\n    /* \"#utility.yul\":160:237   */\n  0x4e487b7100000000000000000000000000000000000000000000000000000000\n    /* \"#utility.yul\":157:158   */\n  0x00\n    /* \"#utility.yul\":150:238   */\n  mstore\n    /* \"#utility.yul\":257:261   */\n  0x41\n    /* \"#utility.yul\":254:255   */\n  0x04\n    /* \"#utility.yul\":247:262   */\n  mstore\n    /* \"#utility.yul\":281:285   */\n  0x24\n    /* \"#utility.yul\":278:279   */\n  0x00\n    /* \"#utility.yul\":271:286   */\n  revert\n    /* \"#utility.yul\":298:478   */\ntag_36:\n    /* \"#utility.yul\":346:423   */\n  0x4e487b7100000000000000000000000000000000000000000000000000000000\n    /* \"#utility.yul\":343:344   */\n  0x00\n    /* \"#utility.yul\":336:424   */\n  mstore\n    /* \"#utility.yul\":443:447   */\n  0x22\n    /* \"#utility.yul\":440:441   */\n  0x04\n    /* \"#utility.yul\":433:448   */\n  mstore\n    /* \"#utility.yul\":467:471   */\n  0x24\n    /* \"#utility.yul\":464:465   */\n  0x00\n    /* \"#utility.yul\":457:472   */\n  revert\n    /* \"#utility.yul\":484:804   */\ntag_37:\n    /* \"#utility.yul\":528:534   */\n  0x00\n    /* \"#utility.yul\":565:566   */\n  0x02\n    /* \"#utility.yul\":559:563   */\n  dup3\n    /* \"#utility.yul\":555:567   */\n  div\n    /* \"#utility.yul\":545:567   */\n  swap1\n  pop\n    /* \"#utility.yul\":612:613   */\n  0x01\n    /* \"#utility.yul\":606:610   */\n  dup3\n    /* \"#utility.yul\":602:614   */\n  and\n    /* \"#utility.yul\":633:651   */\n  dup1\n    /* \"#utility.yul\":623:704   */\n  tag_70\n  jumpi\n    /* \"#utility.yul\":689:693   */\n  0x7f\n    /* \"#utility.yul\":681:687   */\n  dup3\n    /* \"#utility.yul\":677:694   */\n  and\n    /* \"#utility.yul\":667:694   */\n  swap2\n  pop\n    /* \"#utility.yul\":623:704   */\ntag_70:\n    /* \"#utility.yul\":751:753   */\n  0x20\n    /* \"#utility.yul\":743:749   */\n  dup3\n    /* \"#utility.yul\":740:754   */\n  lt\n    /* \"#utility.yul\":720:738   */\n  dup2\n    /* \"#utility.yul\":717:755   */\n  sub\n    /* \"#utility.yul\":714:798   */\n  tag_71\n  jumpi\n    /* \"#utility.yul\":770:788   */\n  tag_72\n  tag_36\n  jump\t// in\ntag_72:\n    /* \"#utility.yul\":714:798   */\ntag_71:\n    /* \"#utility.yul\":535:804   */\n  pop\n    /* \"#utility.yul\":484:804   */\n  swap2\n  swap1\n  pop\n  jump\t// out\n    /* \"#utility.yul\":810:951   */\ntag_38:\n    /* \"#utility.yul\":859:863   */\n  0x00\n    /* \"#utility.yul\":882:885   */\n  dup2\n    /* \"#utility.yul\":874:885   */\n  swap1\n  pop\n    /* \"#utility.yul\":905:908   */\n  dup2\n    /* \"#utility.yul\":902:903   */\n  0x00\n    /* \"#utility.yul\":895:909   */\n  mstore\n    /* \"#utility.yul\":939:943   */\n  0x20\n    /* \"#utility.yul\":936:937   */\n  0x00\n    /* \"#utility.yul\":926:944   */\n  keccak256\n    /* \"#utility.yul\":918:944   */\n  swap1\n  pop\n    /* \"#utility.yul\":810:951   */\n  swap2\n  swap1\n  pop\n  jump\t// out\n    /* \"#utility.yul\":957:1050   */\ntag_39:\n    /* \"#utility.yul\":994:1000   */\n  0x00\n    /* \"#utility.yul\":1041:1043   */\n  0x20\n    /* \"#utility.yul\":1036:1038   */\n  0x1f\n    /* \"#utility.yul\":1029:1034   */\n  dup4\n    /* \"#utility.yul\":1025:1039   */\n  add\n    /* \"#utility.yul\":1021:1044   */\n  div\n    /* \"#utility.yul\":1011:1044   */\n  swap1\n  pop\n    /* \"#utility.yul\":957:1050   */\n  swap2\n  swap1\n  pop\n  jump\t// out\n    /* \"#utility.yul\":1056:1163   */\ntag_40:\n    /* \"#utility.yul\":1100:1108   */\n  0x00\n    /* \"#utility.yul\":1150:1155   */\n  dup3\n    /* \"#utility.yul\":1144:1148   */\n  dup3\n    /* \"#utility.yul\":1140:1156   */\n  shl\n    /* \"#utility.yul\":1119:1156   */\n  swap1\n  pop\n    /* \"#utility.yul\":1056:1163   */\n  swap3\n  swap2\n  pop\n  pop\n  jump\t// out\n    /* \"#utility.yul\":1169:1562   */\ntag_41:\n    /* \"#utility.yul\":1238:1244   */\n  0x00\n    /* \"#utility.yul\":1288:1289   */\n  0x08\n    /* \"#utility.yul\":1276:1286   */\n  dup4\n    /* \"#utility.yul\":1272:1290   */\n  mul\n    /* \"#utility.yul\":1311:1408   */\n  tag_77\n    /* \"#utility.yul\":1341:1407   */\n  0xffffffffffffffffffffffffffffffffffffffffffffffffffffffffffffffff\n    /* \"#utility.yul\":1330:1339   */\n  dup3\n    /* \"#utility.yul\":1311:1408   */\n  tag_40\n  jump\t// in\ntag_77:\n    /* \"#utility.yul\":1429:1468   */\n  tag_78\n    /* \"#utility.yul\":1459:1467   */\n  dup7\n    /* \"#utility.yul\":1448:1457   */\n  dup4\n    /* \"#utility.yul\":1429:1468   */\n  tag_40\n  jump\t// in\ntag_78:\n    /* \"#utility.yul\":1417:1468   */\n  swap6\n  pop\n    /* \"#utility.yul\":1501:1505   */\n  dup1\n    /* \"#utility.yul\":1497:1506   */\n  not\n    /* \"#utility.yul\":1490:1495   */\n  dup5\n    /* \"#utility.yul\":1486:1507   */\n  and\n    /* \"#utility.yul\":1477:1507   */\n  swap4\n  pop\n    /* \"#utility.yul\":1550:1554   */\n  dup1\n    /* \"#utility.yul\":1540:1548   */\n  dup7\n    /* \"#utility.yul\":1536:1555   */\n  and\n    /* \"#utility.yul\":1529:1534   */\n  dup5\n    /* \"#utility.yul\":1526:1556   */\n  or\n    /* \"#utility.yul\":1516:1556   */\n  swap3\n  pop\n    /* \"#utility.yul\":1245:1562   */\n  pop\n  pop\n    /* \"#utility.yul\":1169:1562   */\n  swap4\n  swap3\n  pop\n  pop\n  pop\n  jump\t// out\n    /* \"#utility.yul\":1568:1645   */\ntag_42:\n    /* \"#utility.yul\":1605:1612   */\n  0x00\n    /* \"#utility.yul\":1634:1639   */\n  dup2\n    /* \"#utility.yul\":1623:1639   */\n  swap1\n  pop\n    /* \"#utility.yul\":1568:1645   */\n  swap2\n  swap1\n  pop\n  jump\t// out\n    /* \"#utility.yul\":1651:1711   */\ntag_43:\n    /* \"#utility.yul\":1679:1682   */\n  0x00\n    /* \"#utility.yul\":1700:1705   */\n  dup2\n    /* \"#utility.yul\":1693:1705   */\n  swap1\n  pop\n    /* \"#utility.yul\":1651:1711   */\n  swap2\n  swap1\n  pop\n  jump\t// out\n    /* \"#utility.yul\":1717:1859   */\ntag_44:\n    /* \"#utility.yul\":1767:1776   */\n  0x00\n    /* \"#utility.yul\":1800:1853   */\n  tag_82\n    /* \"#utility.yul\":1818:1852   */\n  tag_83\n    /* \"#utility.yul\":1827:1851   */\n  tag_84\n    /* \"#utility.yul\":1845:1850   */\n  dup5\n    /* \"#utility.yul\":1827:1851   */\n  tag_42\n  jump\t// in\ntag_84:\n    /* \"#utility.yul\":1818:1852   */\n  tag_43\n  jump\t// in\ntag_83:\n    /* \"#utility.yul\":1800:1853   */\n  tag_42\n  jump\t// in\ntag_82:\n    /* \"#utility.yul\":1787:1853   */\n  swap1\n  pop\n    /* \"#utility.yul\":1717:1859   */\n  swap2\n  swap1\n  pop\n  jump\t// out\n    /* \"#utility.yul\":1865:1940   */\ntag_45:\n    /* \"#utility.yul\":1908:1911   */\n  0x00\n    /* \"#utility.yul\":1929:1934   */\n  dup2\n    /* \"#utility.yul\":1922:1934   */\n  swap1\n  pop\n    /* \"#utility.yul\":1865:1940   */\n  swap2\n  swap1\n  pop\n  jump\t// out\n    /* \"#utility.yul\":1946:2215   */\ntag_46:\n    /* \"#utility.yul\":2056:2095   */\n  tag_87\n    /* \"#utility.yul\":2087:2094   */\n  dup4\n    /* \"#utility.yul\":2056:2095   */\n  tag_44\n  jump\t// in\ntag_87:\n    /* \"#utility.yul\":2117:2208   */\n  tag_88\n    /* \"#utility.yul\":2166:2207   */\n  tag_89\n    /* \"#utility.yul\":2190:2206   */\n  dup3\n    /* \"#utility.yul\":2166:2207   */\n  tag_45\n  jump\t// in\ntag_89:\n    /* \"#utility.yul\":2158:2164   */\n  dup5\n    /* \"#utility.yul\":2151:2155   */\n  dup5\n    /* \"#utility.yul\":2145:2156   */\n  sload\n    /* \"#utility.yul\":2117:2208   */\n  tag_41\n  jump\t// in\ntag_88:\n    /* \"#utility.yul\":2111:2115   */\n  dup3\n    /* \"#utility.yul\":2104:2209   */\n  sstore\n    /* \"#utility.yul\":2022:2215   */\n  pop\n    /* \"#utility.yul\":1946:2215   */\n  pop\n  pop\n  pop\n  jump\t// out\n    /* \"#utility.yul\":2221:2294   */\ntag_47:\n    /* \"#utility.yul\":2266:2269   */\n  0x00\n    /* \"#utility.yul\":2221:2294   */\n  swap1\n  jump\t// out\n    /* \"#utility.yul\":2300:2489   */\ntag_48:\n    /* \"#utility.yul\":2377:2409   */\n  tag_92\n  tag_47\n  jump\t// in\ntag_92:\n    /* \"#utility.yul\":2418:2483   */\n  tag_93\n    /* \"#utility.yul\":2476:2482   */\n  dup2\n    /* \"#utility.yul\":2468:2474   */\n  dup5\n    /* \"#utility.yul\":2462:2466   */\n  dup5\n    /* \"#utility.yul\":2418:2483   */\n  tag_46\n  jump\t// in\ntag_93:\n    /* \"#utility.yul\":2353:2489   */\n  pop\n    /* \"#utility.yul\":2300:2489   */\n  pop\n  pop\n  jump\t// out\n    /* \"#utility.yul\":2495:2681   */\ntag_49:\n    /* \"#utility.yul\":2555:2675   */\ntag_95:\n    /* \"#utility.yul\":2572:2575   */\n  dup2\n    /* \"#utility.yul\":2565:2570   */\n  dup2\n    /* \"#utility.yul\":2562:2576   */\n  lt\n    /* \"#utility.yul\":2555:2675   */\n  iszero\n  tag_97\n  jumpi\n    /* \"#utility.yul\":2626:2665   */\n  tag_98\n    /* \"#utility.yul\":2663:2664   */\n  0x00\n    /* \"#utility.yul\":2656:2661   */\n  dup3\n    /* \"#utility.yul\":2626:2665   */\n  tag_48\n  jump\t// in\ntag_98:\n    /* \"#utility.yul\":2599:2600   */\n  0x01\n    /* \"#utility.yul\":2592:2597   */\n  dup2\n    /* \"#utility.yul\":2588:2601   */\n  add\n    /* \"#utility.yul\":2579:2601   */\n  swap1\n  pop\n    /* \"#utility.yul\":2555:2675   */\n  jump(tag_95)\ntag_97:\n    /* \"#utility.yul\":2495:2681   */\n  pop\n  pop\n  jump\t// out\n    /* \"#utility.yul\":2687:3230   */\ntag_50:\n    /* \"#utility.yul\":2788:2790   */\n  0x1f\n    /* \"#utility.yul\":2783:2786   */\n  dup3\n    /* \"#utility.yul\":2780:2791   */\n  gt\n    /* \"#utility.yul\":2777:3223   */\n  iszero\n  tag_100\n  jumpi\n    /* \"#utility.yul\":2822:2860   */\n  tag_101\n    /* \"#utility.yul\":2854:2859   */\n  dup2\n    /* \"#utility.yul\":2822:2860   */\n  tag_38\n  jump\t// in\ntag_101:\n    /* \"#utility.yul\":2906:2935   */\n  tag_102\n    /* \"#utility.yul\":2924:2934   */\n  dup5\n    /* \"#utility.yul\":2906:2935   */\n  tag_39\n  jump\t// in\ntag_102:\n    /* \"#utility.yul\":2896:2904   */\n  dup2\n    /* \"#utility.yul\":2892:2936   */\n  add\n    /* \"#utility.yul\":3089:3091   */\n  0x20\n    /* \"#utility.yul\":3077:3087   */\n  dup6\n    /* \"#utility.yul\":3074:3092   */\n  lt\n    /* \"#utility.yul\":3071:3120   */\n  iszero\n  tag_103\n  jumpi\n    /* \"#utility.yul\":3110:3118   */\n  dup2\n    /* \"#utility.yul\":3095:3118   */\n  swap1\n  pop\n    /* \"#utility.yul\":3071:3120   */\ntag_103:\n    /* \"#utility.yul\":3133:3213   */\n  tag_104\n    /* \"#utility.yul\":3189:3211   */\n  tag_105\n    /* \"#utility.yul\":3207:3210   */\n  dup6\n    /* \"#utility.yul\":3189:3211   */\n  tag_39\n  jump\t// in\ntag_105:\n    /* \"#utility.yul\":3179:3187   */\n  dup4\n    /* \"#utility.yul\":3175:3212   */\n  add\n    /* \"#utility.yul\":3162:3173   */\n  dup3\n    /* \"#utility.yul\":3133:3213   */\n  tag_49\n  jump\t// in\ntag_104:\n    /* \"#utility.yul\":2792:3223   */\n  pop\n  pop\n    /* \"#utility.yul\":2777:3223   */\ntag_100:\n    /* \"#utility.yul\":2687:3230   */\n  pop\n  pop\n  pop\n  jump\t// out\n    /* \"#utility.yul\":3236:3353   */\ntag_51:\n    /* \"#utility.yul\":3290:3298   */\n  0x00\n    /* \"#utility.yul\":3340:3345   */\n  dup3\n    /* \"#utility.yul\":3334:3338   */\n  dup3\n    /* \"#utility.yul\":3330:3346   */\n  shr\n    /* \"#utility.yul\":3309:3346   */\n  swap1\n  pop\n    /* \"#utility.yul\":3236:3353   */\n  swap3\n  swap2\n  pop\n  pop\n  jump\t// out\n    /* \"#utility.yul\":3359:3528   */\ntag_52:\n    /* \"#utility.yul\":3403:3409   */\n  0x00\n    /* \"#utility.yul\":3436:3487   */\n  tag_108\n    /* \"#utility.yul\":3484:3485   */\n  0x00\n    /* \"#utility.yul\":3480:3486   */\n  not\n    /* \"#utility.yul\":3472:3477   */\n  dup5\n    /* \"#utility.yul\":3469:3470   */\n  0x08\n    /* \"#utility.yul\":3465:3478   */\n  mul\n    /* \"#utility.yul\":3436:3487   */\n  tag_51\n  jump\t// in\ntag_108:\n    /* \"#utility.yul\":3432:3488   */\n  not\n    /* \"#utility.yul\":3517:3521   */\n  dup1\n    /* \"#utility.yul\":3511:3515   */\n  dup4\n    /* \"#utility.yul\":3507:3522   */\n  and\n    /* \"#utility.yul\":3497:3522   */\n  swap2\n  pop\n    /* \"#utility.yul\":3410:3528   */\n  pop\n    /* \"#utility.yul\":3359:3528   */\n  swap3\n  swap2\n  pop\n  pop\n  jump\t// out\n    /* \"#utility.yul\":3533:3828   */\ntag_53:\n    /* \"#utility.yul\":3609:3613   */\n  0x00\n    /* \"#utility.yul\":3755:3784   */\n  tag_110\n    /* \"#utility.yul\":3780:3783   */\n  dup4\n    /* \"#utility.yul\":3774:3778   */\n  dup4\n    /* \"#utility.yul\":3755:3784   */\n  tag_52\n  jump\t// in\ntag_110:\n    /* \"#utility.yul\":3747:3784   */\n  swap2\n  pop\n    /* \"#utility.yul\":3817:3820   */\n  dup3\n    /* \"#utility.yul\":3814:3815   */\n  0x02\n    /* \"#utility.yul\":3810:3821   */\n  mul\n    /* \"#utility.yul\":3804:3808   */\n  dup3\n    /* \"#utility.yul\":3801:3822   */\n  or\n    /* \"#utility.yul\":3793:3822   */\n  swap1\n  pop\n    /* \"#utility.yul\":3533:3828   */\n  swap3\n  swap2\n  pop\n  pop\n  jump\t// out\n    /* \"#utility.yul\":3833:5228   */\ntag_5:\n    /* \"#utility.yul\":3950:3987   */\n  tag_112\n    /* \"#utility.yul\":3983:3986   */\n  dup3\n    /* \"#utility.yul\":3950:3987   */\n  tag_34\n  jump\t// in\ntag_112:\n    /* \"#utility.yul\":4052:4070   */\n  0xffffffffffffffff\n    /* \"#utility.yul\":4044:4050   */\n  dup2\n    /* \"#utility.yul\":4041:4071   */\n  gt\n    /* \"#utility.yul\":4038:4094   */\n  iszero\n  tag_113\n  jumpi\n    /* \"#utility.yul\":4074:4092   */\n  tag_114\n  tag_35\n  jump\t// in\ntag_114:\n    /* \"#utility.yul\":4038:4094   */\ntag_113:\n    /* \"#utility.yul\":4118:4156   */\n  tag_115\n    /* \"#utility.yul\":4150:4154   */\n  dup3\n    /* \"#utility.yul\":4144:4155   */\n  sload\n    /* \"#utility.yul\":4118:4156   */\n  tag_37\n  jump\t// in\ntag_115:\n    /* \"#utility.yul\":4203:4270   */\n  tag_116\n    /* \"#utility.yul\":4263:4269   */\n  dup3\n    /* \"#utility.yul\":4255:4261   */\n  dup3\n    /* \"#utility.yul\":4249:4253   */\n  dup6\n    /* \"#utility.yul\":4203:4270   */\n  tag_50\n  jump\t// in\ntag_116:\n    /* \"#utility.yul\":4297:4298   */\n  0x00\n    /* \"#utility.yul\":4321:4325   */\n  0x20\n    /* \"#utility.yul\":4308:4325   */\n  swap1\n  pop\n    /* \"#utility.yul\":4353:4355   */\n  0x1f\n    /* \"#utility.yul\":4345:4351   */\n  dup4\n    /* \"#utility.yul\":4342:4356   */\n  gt\n    /* \"#utility.yul\":4370:4371   */\n  0x01\n    /* \"#utility.yul\":4365:4983   */\n  dup2\n  eq\n  tag_118\n  jumpi\n    /* \"#utility.yul\":5027:5028   */\n  0x00\n    /* \"#utility.yul\":5044:5050   */\n  dup5\n    /* \"#utility.yul\":5041:5118   */\n  iszero\n  tag_119\n  jumpi\n    /* \"#utility.yul\":5093:5102   */\n  dup3\n    /* \"#utility.yul\":5088:5091   */\n  dup8\n    /* \"#utility.yul\":5084:5103   */\n  add\n    /* \"#utility.yul\":5078:5104   */\n  mload\n    /* \"#utility.yul\":5069:5104   */\n  swap1\n  pop\n    /* \"#utility.yul\":5041:5118   */\ntag_119:\n    /* \"#utility.yul\":5144:5211   */\n  tag_120\n    /* \"#utility.yul\":5204:5210   */\n  dup6\n    /* \"#utility.yul\":5197:5202   */\n  dup3\n    /* \"#utility.yul\":5144:5211   */\n  tag_53\n  jump\t// in\ntag_120:\n    /* \"#utility.yul\":5138:5142   */\n  dup7\n    /* \"#utility.yul\":5131:5212   */\n  sstore\n    /* \"#utility.yul\":5000:5222   */\n  pop\n    /* \"#utility.yul\":4335:5222   */\n  jump(tag_117)\n    /* \"#utility.yul\":4365:4983   */\ntag_118:\n    /* \"#utility.yul\":4417:4421   */\n  0x1f\n    /* \"#utility.yul\":4413:4422   */\n  not\n    /* \"#utility.yul\":4405:4411   */\n  dup5\n    /* \"#utility.yul\":4401:4423   */\n  and\n    /* \"#utility.yul\":4451:4488   */\n  tag_121\n    /* \"#utility.yul\":4483:4487   */\n  dup7\n    /* \"#utility.yul\":4451:4488   */\n  tag_38\n  jump\t// in\ntag_121:\n    /* \"#utility.yul\":4510:4511   */\n  0x00\n    /* \"#utility.yul\":4524:4732   */\ntag_122:\n    /* \"#utility.yul\":4538:4545   */\n  dup3\n    /* \"#utility.yul\":4535:4536   */\n  dup2\n    /* \"#utility.yul\":4532:4546   */\n  lt\n    /* \"#utility.yul\":4524:4732   */\n  iszero\n  tag_124\n  jumpi\n    /* \"#utility.yul\":4617:4626   */\n  dup5\n    /* \"#utility.yul\":4612:4615   */\n  dup10\n    /* \"#utility.yul\":4608:4627   */\n  add\n    /* \"#utility.yul\":4602:4628   */\n  mload\n    /* \"#utility.yul\":4594:4600   */\n  dup3\n    /* \"#utility.yul\":4587:4629   */\n  sstore\n    /* \"#utility.yul\":4668:4669   */\n  0x01\n    /* \"#utility.yul\":4660:4666   */\n  dup3\n    /* \"#utility.yul\":4656:4670   */\n  add\n    /* \"#utility.yul\":4646:4670   */\n  swap2\n  pop\n    /* \"#utility.yul\":4715:4717   */\n  0x20\n    /* \"#utility.yul\":4704:4713   */\n  dup6\n    /* \"#utility.yul\":4700:4718   */\n  add\n    /* \"#utility.yul\":4687:4718   */\n  swap5\n  pop\n    /* \"#utility.yul\":4561:4565   */\n  0x20\n    /* \"#utility.yul\":4558:4559   */\n  dup2\n    /* \"#utility.yul\":4554:4566   */\n  add\n    /* \"#utility.yul\":4549:4566   */\n  swap1\n  pop\n    /* \"#utility.yul\":4524:4732   */\n  jump(tag_122)\ntag_124:\n    /* \"#utility.yul\":4760:4766   */\n  dup7\n    /* \"#utility.yul\":4751:4758   */\n  dup4\n    /* \"#utility.yul\":4748:4767   */\n  lt\n    /* \"#utility.yul\":4745:4924   */\n  iszero\n  tag_125\n  jumpi\n    /* \"#utility.yul\":4818:4827   */\n  dup5\n    /* \"#utility.yul\":4813:4816   */\n  dup10\n    /* \"#utility.yul\":4809:4828   */\n  add\n    /* \"#utility.yul\":4803:4829   */\n  mload\n    /* \"#utility.yul\":4861:4909   */\n  tag_126\n    /* \"#utility.yul\":4903:4907   */\n  0x1f\n    /* \"#utility.yul\":4895:4901   */\n  dup10\n    /* \"#utility.yul\":4891:4908   */\n  and\n    /* \"#utility.yul\":4880:4889   */\n  dup3\n    /* \"#utility.yul\":4861:4909   */\n  tag_52\n  jump\t// in\ntag_126:\n    /* \"#utility.yul\":4853:4859   */\n  dup4\n    /* \"#utility.yul\":4846:4910   */\n  sstore\n    /* \"#utility.yul\":4768:4924   */\n  pop\n    /* \"#utility.yul\":4745:4924   */\ntag_125:\n    /* \"#utility.yul\":4970:4971   */\n  0x01\n    /* \"#utility.yul\":4966:4967   */\n  0x02\n    /* \"#utility.yul\":4958:4964   */\n  dup9\n    /* \"#utility.yul\":4954:4968   */\n  mul\n    /* \"#utility.yul\":4950:4972   */\n  add\n    /* \"#utility.yul\":4944:4948   */\n  dup9\n    /* \"#utility.yul\":4937:4973   */\n  sstore\n    /* \"#utility.yul\":4372:4983   */\n  pop\n  pop\n  pop\n    /* \"#utility.yul\":4335:5222   */\ntag_117:\n  pop\n    /* \"#utility.yul\":3925:5228   */\n  pop\n  pop\n  pop\n    /* \"#utility.yul\":3833:5228   */\n  pop\n  pop\n  jump\t// out\n    /* \"#utility.yul\":5234:5403   */\ntag_54:\n    /* \"#utility.yul\":5318:5329   */\n  0x00\n    /* \"#utility.yul\":5352:5358   */\n  dup3\n    /* \"#utility.yul\":5347:5350   */\n  dup3\n    /* \"#utility.yul\":5340:5359   */\n  mstore\n    /* \"#utility.yul\":5392:5396   */\n  0x20\n    /* \"#utility.yul\":5387:5390   */\n  dup3\n    /* \"#utility.yul\":5383:5397   */\n  add\n    /* \"#utility.yul\":5368:5397   */\n  swap1\n  pop\n    /* \"#utility.yul\":5234:5403   */\n  swap3\n  swap2\n  pop\n  pop\n  jump\t// out\n    /* \"#utility.yul\":5409:5634   */\ntag_55:\n    /* \"#utility.yul\":5549:5583   */\n  0x5a65726f20616e64206e656761746976652076616c756573206e6f7420737570\n    /* \"#utility.yul\":5545:5546   */\n  0x00\n    /* \"#utility.yul\":5537:5543   */\n  dup3\n    /* \"#utility.yul\":5533:5547   */\n  add\n    /* \"#utility.yul\":5526:5584   */\n  mstore\n    /* \"#utility.yul\":5618:5626   */\n  0x706f727465640000000000000000000000000000000000000000000000000000\n    /* \"#utility.yul\":5613:5615   */\n  0x20\n    /* \"#utility.yul\":5605:5611   */\n  dup3\n    /* \"#utility.yul\":5601:5616   */\n  add\n    /* \"#utility.yul\":5594:5627   */\n  mstore\n    /* \"#utility.yul\":5409:5634   */\n  pop\n  jump\t// out\n    /* \"#utility.yul\":5640:6006   */\ntag_56:\n    /* \"#utility.yul\":5782:5785   */\n  0x00\n    /* \"#utility.yul\":5803:5870   */\n  tag_130\n    /* \"#utility.yul\":5867:5869   */\n  0x26\n    /* \"#utility.yul\":5862:5865   */\n  dup4\n    /* \"#utility.yul\":5803:5870   */\n  tag_54\n  jump\t// in\ntag_130:\n    /* \"#utility.yul\":5796:5870   */\n  swap2\n  pop\n    /* \"#utility.yul\":5879:5972   */\n  tag_131\n    /* \"#utility.yul\":5968:5971   */\n  dup3\n    /* \"#utility.yul\":5879:5972   */\n  tag_55\n  jump\t// in\ntag_131:\n    /* \"#utility.yul\":5997:5999   */\n  0x40\n    /* \"#utility.yul\":5992:5995   */\n  dup3\n    /* \"#utility.yul\":5988:6000   */\n  add\n    /* \"#utility.yul\":5981:6000   */\n  swap1\n  pop\n    /* \"#utility.yul\":5640:6006   */\n  swap2\n  swap1\n  pop\n  jump\t// out\n    /* \"#utility.yul\":6012:6431   */\ntag_16:\n    /* \"#utility.yul\":6178:6182   */\n  0x00\n    /* \"#utility.yul\":6216:6218   */\n  0x20\n    /* \"#utility.yul\":6205:6214   */\n  dup3\n    /* \"#utility.yul\":6201:6219   */\n  add\n    /* \"#utility.yul\":6193:6219   */\n  swap1\n  pop\n    /* \"#utility.yul\":6265:6274   */\n  dup2\n    /* \"#utility.yul\":6259:6263   */\n  dup2\n    /* \"#utility.yul\":6255:6275   */\n  sub\n    /* \"#utility.yul\":6251:6252   */\n  0x00\n    /* \"#utility.yul\":6240:6249   */\n  dup4\n    /* \"#utility.yul\":6236:6253   */\n  add\n    /* \"#utility.yul\":6229:6276   */\n  mstore\n    /* \"#utility.yul\":6293:6424   */\n  tag_133\n    /* \"#utility.yul\":6419:6423   */\n  dup2\n    /* \"#utility.yul\":6293:6424   */\n  tag_56\n  jump\t// in\ntag_133:\n    /* \"#utility.yul\":6285:6424   */\n  swap1\n  pop\n    /* \"#utility.yul\":6012:6431   */\n  swap2\n  swap1\n  pop\n  jump\t// out\n    /* \"#utility.yul\":6437:6603   */\ntag_57:\n    /* \"#utility.yul\":6577:6595   */\n  0x4d696e74696e672064697361626c656400000000000000000000000000000000\n    /* \"#utility.yul\":6573:6574   */\n  0x00\n    /* \"#utility.yul\":6565:6571   */\n  dup3\n    /* \"#utility.yul\":6561:6575   */\n  add\n    /* \"#utility.yul\":6554:6596   */\n  mstore\n    /* \"#utility.yul\":6437:6603   */\n  pop\n  jump\t// out\n    /* \"#utility.yul\":6609:6975   */\ntag_58:\n    /* \"#utility.yul\":6751:6754   */\n  0x00\n    /* \"#utility.yul\":6772:6839   */\n  tag_136\n    /* \"#utility.yul\":6836:6838   */\n  0x10\n    /* \"#utility.yul\":6831:6834   */\n  dup4\n    /* \"#utility.yul\":6772:6839   */\n  tag_54\n  jump\t// in\ntag_136:\n    /* \"#utility.yul\":6765:6839   */\n  swap2\n  pop\n    /* \"#utility.yul\":6848:6941   */\n  tag_137\n    /* \"#utility.yul\":6937:6940   */\n  dup3\n    /* \"#utility.yul\":6848:6941   */\n  tag_57\n  jump\t// in\ntag_137:\n    /* \"#utility.yul\":6966:6968   */\n  0x20\n    /* \"#utility.yul\":6961:6964   */\n  dup3\n    /* \"#utility.yul\":6957:6969   */\n  add\n    /* \"#utility.yul\":6950:6969   */\n  swap1\n  pop\n    /* \"#utility.yul\":6609:6975   */\n  swap2\n  swap1\n  pop\n  jump\t// out\n    /* \"#utility.yul\":6981:7400   */\ntag_19:\n    /* \"#utility.yul\":7147:7151   */\n  0x00\n    /* \"#utility.yul\":7185:7187   */\n  0x20\n    /* \"#utility.yul\":7174:7183   */\n  dup3\n    /* \"#utility.yul\":7170:7188   */\n  add\n    /* \"#utility.yul\":7162:7188   */\n  swap1\n  pop\n    /* \"#utility.yul\":7234:7243   */\n  dup2\n    /* \"#utility.yul\":7228:7232   */\n  dup2\n    /* \"#utility.yul\":7224:7244   */\n  sub\n    /* \"#utility.yul\":7220:7221   */\n  0x00\n    /* \"#utility.yul\":7209:7218   */\n  dup4\n    /* \"#utility.yul\":7205:7222   */\n  add\n    /* \"#utility.yul\":7198:7245   */\n  mstore\n    /* \"#utility.yul\":7262:7393   */\n  tag_139\n    /* \"#utility.yul\":7388:7392   */\n  dup2\n    /* \"#utility.yul\":7262:7393   */\n  tag_58\n  jump\t// in\ntag_139:\n    /* \"#utility.yul\":7254:7393   */\n  swap1\n  pop\n    /* \"#utility.yul\":6981:7400   */\n  swap2\n  swap1\n  pop\n  jump\t// out\n    /* \"#utility.yul\":7406:7586   */\ntag_59:\n    /* \"#utility.yul\":7454:7531   */\n  0x4e487b7100000000000000000000000000000000000000000000000000000000\n    /* \"#utility.yul\":7451:7452   */\n  0x00\n    /* \"#utility.yul\":7444:7532   */\n  mstore\n    /* \"#utility.yul\":7551:7555   */\n  0x11\n    /* \"#utility.yul\":7548:7549   */\n  0x04\n    /* \"#utility.yul\":7541:7556   */\n  mstore\n    /* \"#utility.yul\":7575:7579   */\n  0x24\n    /* \"#utility.yul\":7572:7573   */\n  0x00\n    /* \"#utility.yul\":7565:7580   */\n  revert\n    /* \"#utility.yul\":7592:7783   */\ntag_21:\n    /* \"#utility.yul\":7632:7635   */\n  0x00\n    /* \"#utility.yul\":7651:7671   */\n  tag_142\n    /* \"#utility.yul\":7669:7670   */\n  dup3\n    /* \"#utility.yul\":7651:7671   */\n  tag_42\n  jump\t// in\ntag_142:\n    /* \"#utility.yul\":7646:7671   */\n  swap2\n  pop\n    /* \"#utility.yul\":7685:7705   */\n  tag_143\n    /* \"#utility.yul\":7703:7704   */\n  dup4\n    /* \"#utility.yul\":7685:7705   */\n  tag_42\n  jump\t// in\ntag_143:\n    /* \"#utility.yul\":7680:7705   */\n  swap3\n  pop\n    /* \"#utility.yul\":7728:7729   */\n  dup3\n    /* \"#utility.yul\":7725:7726   */\n  dup3\n    /* \"#utility.yul\":7721:7730   */\n  add\n    /* \"#utility.yul\":7714:7730   */\n  swap1\n  pop\n    /* \"#utility.yul\":7749:7752   */\n  dup1\n    /* \"#utility.yul\":7746:7747   */\n  dup3\n    /* \"#utility.yul\":7743:7753   */\n  gt\n    /* \"#utility.yul\":7740:7776   */\n  iszero\n  tag_144\n  jumpi\n    /* \"#utility.yul\":7756:7774   */\n  tag_145\n  tag_59\n  jump\t// in\ntag_145:\n    /* \"#utility.yul\":7740:7776   */\ntag_144:\n    /* \"#utility.yul\":7592:7783   */\n  swap3\n  swap2\n  pop\n  pop\n  jump\t// out\n    /* \"#utility.yul\":7789:7967   */\ntag_60:\n    /* \"#utility.yul\":7929:7959   */\n  0x4e6f206d6f726520746f6b656e732063616e206265206d696e74656400000000\n    /* \"#utility.yul\":7925:7926   */\n  0x00\n    /* \"#utility.yul\":7917:7923   */\n  dup3\n    /* \"#utility.yul\":7913:7927   */\n  add\n    /* \"#utility.yul\":7906:7960   */\n  mstore\n    /* \"#utility.yul\":7789:7967   */\n  pop\n  jump\t// out\n    /* \"#utility.yul\":7973:8339   */\ntag_61:\n    /* \"#utility.yul\":8115:8118   */\n  0x00\n    /* \"#utility.yul\":8136:8203   */\n  tag_148\n    /* \"#utility.yul\":8200:8202   */\n  0x1c\n    /* \"#utility.yul\":8195:8198   */\n  dup4\n    /* \"#utility.yul\":8136:8203   */\n  tag_54\n  jump\t// in\ntag_148:\n    /* \"#utility.yul\":8129:8203   */\n  swap2\n  pop\n    /* \"#utility.yul\":8212:8305   */\n  tag_149\n    /* \"#utility.yul\":8301:8304   */\n  dup3\n    /* \"#utility.yul\":8212:8305   */\n  tag_60\n  jump\t// in\ntag_149:\n    /* \"#utility.yul\":8330:8332   */\n  0x20\n    /* \"#utility.yul\":8325:8328   */\n  dup3\n    /* \"#utility.yul\":8321:8333   */\n  add\n    /* \"#utility.yul\":8314:8333   */\n  swap1\n  pop\n    /* \"#utility.yul\":7973:8339   */\n  swap2\n  swap1\n  pop\n  jump\t// out\n    /* \"#utility.yul\":8345:8764   */\ntag_24:\n    /* \"#utility.yul\":8511:8515   */\n  0x00\n    /* \"#utility.yul\":8549:8551   */\n  0x20\n    /* \"#utility.yul\":8538:8547   */\n  dup3\n    /* \"#utility.yul\":8534:8552   */\n  add\n    /* \"#utility.yul\":8526:8552   */\n  swap1\n  pop\n    /* \"#utility.yul\":8598:8607   */\n  dup2\n    /* \"#utility.yul\":8592:8596   */\n  dup2\n    /* \"#utility.yul\":8588:8608   */\n  sub\n    /* \"#utility.yul\":8584:8585   */\n  0x00\n    /* \"#utility.yul\":8573:8582   */\n  dup4\n    /* \"#utility.yul\":8569:8586   */\n  add\n    /* \"#utility.yul\":8562:8609   */\n  mstore\n    /* \"#utility.yul\":8626:8757   */\n  tag_151\n    /* \"#utility.yul\":8752:8756   */\n  dup2\n    /* \"#utility.yul\":8626:8757   */\n  tag_61\n  jump\t// in\ntag_151:\n    /* \"#utility.yul\":8618:8757   */\n  swap1\n  pop\n    /* \"#utility.yul\":8345:8764   */\n  swap2\n  swap1\n  pop\n  jump\t// out\n    /* \"#utility.yul\":8770:8941   */\ntag_62:\n    /* \"#utility.yul\":8910:8933   */\n  0x41646472657373206e6f7420737570706f727465640000000000000000000000\n    /* \"#utility.yul\":8906:8907   */\n  0x00\n    /* \"#utility.yul\":8898:8904   */\n  dup3\n    /* \"#utility.yul\":8894:8908   */\n  add\n    /* \"#utility.yul\":8887:8934   */\n  mstore\n    /* \"#utility.yul\":8770:8941   */\n  pop\n  jump\t// out\n    /* \"#utility.yul\":8947:9313   */\ntag_63:\n    /* \"#utility.yul\":9089:9092   */\n  0x00\n    /* \"#utility.yul\":9110:9177   */\n  tag_154\n    /* \"#utility.yul\":9174:9176   */\n  0x15\n    /* \"#utility.yul\":9169:9172   */\n  dup4\n    /* \"#utility.yul\":9110:9177   */\n  tag_54\n  jump\t// in\ntag_154:\n    /* \"#utility.yul\":9103:9177   */\n  swap2\n  pop\n    /* \"#utility.yul\":9186:9279   */\n  tag_155\n    /* \"#utility.yul\":9275:9278   */\n  dup3\n    /* \"#utility.yul\":9186:9279   */\n  tag_62\n  jump\t// in\ntag_155:\n    /* \"#utility.yul\":9304:9306   */\n  0x20\n    /* \"#utility.yul\":9299:9302   */\n  dup3\n    /* \"#utility.yul\":9295:9307   */\n  add\n    /* \"#utility.yul\":9288:9307   */\n  swap1\n  pop\n    /* \"#utility.yul\":8947:9313   */\n  swap2\n  swap1\n  pop\n  jump\t// out\n    /* \"#utility.yul\":9319:9738   */\ntag_27:\n    /* \"#utility.yul\":9485:9489   */\n  0x00\n    /* \"#utility.yul\":9523:9525   */\n  0x20\n    /* \"#utility.yul\":9512:9521   */\n  dup3\n    /* \"#utility.yul\":9508:9526   */\n  add\n    /* \"#utility.yul\":9500:9526   */\n  swap1\n  pop\n    /* \"#utility.yul\":9572:9581   */\n  dup2\n    /* \"#utility.yul\":9566:9570   */\n  dup2\n    /* \"#utility.yul\":9562:9582   */\n  sub\n    /* \"#utility.yul\":9558:9559   */\n  0x00\n    /* \"#utility.yul\":9547:9556   */\n  dup4\n    /* \"#utility.yul\":9543:9560   */\n  add\n    /* \"#utility.yul\":9536:9583   */\n  mstore\n    /* \"#utility.yul\":9600:9731   */\n  tag_157\n    /* \"#utility.yul\":9726:9730   */\n  dup2\n    /* \"#utility.yul\":9600:9731   */\n  tag_63\n  jump\t// in\ntag_157:\n    /* \"#utility.yul\":9592:9731   */\n  swap1\n  pop\n    /* \"#utility.yul\":9319:9738   */\n  swap2\n  swap1\n  pop\n  jump\t// out\n    /* \"#utility.yul\":9744:9862   */\ntag_64:\n    /* \"#utility.yul\":9831:9855   */\n  tag_159\n    /* \"#utility.yul\":9849:9854   */\n  dup2\n    /* \"#utility.yul\":9831:9855   */\n  tag_42\n  jump\t// in\ntag_159:\n    /* \"#utility.yul\":9826:9829   */\n  dup3\n    /* \"#utility.yul\":9819:9856   */\n  mstore\n    /* \"#utility.yul\":9744:9862   */\n  pop\n  pop\n  jump\t// out\n    /* \"#utility.yul\":9868:10090   */\ntag_33:\n    /* \"#utility.yul\":9961:9965   */\n  0x00\n    /* \"#utility.yul\":9999:10001   */\n  0x20\n    /* \"#utility.yul\":9988:9997   */\n  dup3\n    /* \"#utility.yul\":9984:10002   */\n  add\n    /* \"#utility.yul\":9976:10002   */\n  swap1\n  pop\n    /* \"#utility.yul\":10012:10083   */\n  tag_161\n    /* \"#utility.yul\":10080:10081   */\n  0x00\n    /* \"#utility.yul\":10069:10078   */\n  dup4\n    /* \"#utility.yul\":10065:10082   */\n  add\n    /* \"#utility.yul\":10056:10062   */\n  dup5\n    /* \"#utility.yul\":10012:10083   */\n  tag_64\n  jump\t// in\ntag_161:\n    /* \"#utility.yul\":9868:10090   */\n  swap3\n  swap2\n  pop\n  pop\n  jump\t// out\n    /* \"smart_contracts/contracts/BaseERC20.sol\":150:10022  contract BaseERC20 {... */\ntag_12:\n  dataSize(sub_0)\n  dup1\n  dataOffset(sub_0)\n  0x00\n  codecopy\n  0x00\n  return\nstop\n\nsub_0: assembly {\n        /* \"smart_contracts/contracts/BaseERC20.sol\":150:10022  contract BaseERC20 {... */\n      mstore(0x40, 0x80)\n      callvalue\n      dup1\n      iszero\n      tag_1\n      jumpi\n      0x00\n      dup1\n      revert\n    tag_1:\n      pop\n      jumpi(tag_2, lt(calldatasize, 0x04))\n      shr(0xe0, calldataload(0x00))\n      dup1\n      0x7657135c\n      gt\n      tag_21\n      jumpi\n      dup1\n      0x95d89b41\n      gt\n      tag_22\n      jumpi\n      dup1\n      0x95d89b41\n      eq\n      tag_16\n      jumpi\n      dup1\n      0xa457c2d7\n      eq\n      tag_17\n      jumpi\n      dup1\n      0xa9059cbb\n      eq\n      tag_18\n      jumpi\n      dup1\n      0xdd62ed3e\n      eq\n      tag_19\n      jumpi\n      dup1\n      0xfeb73f8b\n      eq\n      tag_20\n      jumpi\n      jump(tag_2)\n    tag_22:\n      dup1\n      0x7657135c\n      eq\n      tag_12\n      jumpi\n      dup1\n      0x7fb8b61e\n      eq\n      tag_13\n      jumpi\n      dup1\n      0x817b1cd2\n      eq\n      tag_14\n      jumpi\n      dup1\n      0x86d1a69f\n      eq\n      tag_15\n      jumpi\n      jump(tag_2)\n    tag_21:\n      dup1\n      0x23b872dd\n      gt\n      tag_23\n      jumpi\n      dup1\n      0x23b872dd\n      eq\n      tag_7\n      jumpi\n      dup1\n      0x27f54462\n      eq\n      tag_8\n      jumpi\n      dup1\n      0x313ce567\n      eq\n      tag_9\n      jumpi\n      dup1\n      0x39509351\n      eq\n      tag_10\n      jumpi\n      dup1\n      0x70a08231\n      eq\n      tag_11\n      jumpi\n      jump(tag_2)\n    tag_23:\n      dup1\n      0x06fdde03\n      eq\n      tag_3\n      jumpi\n      dup1\n      0x095ea7b3\n      eq\n      tag_4\n      jumpi\n      dup1\n      0x18160ddd\n      eq\n      tag_5\n      jumpi\n      dup1\n      0x199cbc54\n      eq\n      tag_6\n      jumpi\n    tag_2:\n      0x00\n      dup1\n      revert\n        /* \"smart_contracts/contracts/BaseERC20.sol\":8005:8096  function name() public view returns (string memory) {... */\n    tag_3:\n      tag_24\n      tag_25\n      jump\t// in\n    tag_24:\n      mload(0x40)\n      tag_26\n      swap2\n      swap1\n      tag_27\n      jump\t// in\n    tag_26:\n      mload(0x40)\n      dup1\n      swap2\n      sub\n      swap1\n      return\n        /* \"smart_contracts/contracts/BaseERC20.sol\":1765:1945  function approve(address spender, uint256 amount) external returns (bool) {... */\n    tag_4:\n      tag_28\n      0x04\n      dup1\n      calldatasize\n      sub\n      dup2\n      add\n      swap1\n      tag_29\n      swap2\n      swap1\n      tag_30\n      jump\t// in\n    tag_29:\n      tag_31\n      jump\t// in\n    tag_28:\n      mload(0x40)\n      tag_32\n      swap2\n      swap1\n      tag_33\n      jump\t// in\n    tag_32:\n      mload(0x40)\n      dup1\n      swap2\n      sub\n      swap1\n      return\n        /* \"smart_contracts/contracts/BaseERC20.sol\":8302:8401  function totalSupply() public view returns (uint256) {... */\n    tag_5:\n      tag_34\n      tag_35\n      jump\t// in\n    tag_34:\n      mload(0x40)\n      tag_36\n      swap2\n      swap1\n      tag_37\n      jump\t// in\n    tag_36:\n      mload(0x40)\n      dup1\n      swap2\n      sub\n      swap1\n      return\n        /* \"smart_contracts/contracts/BaseERC20.sol\":8407:8506  function totalVested() public view returns (uint256) {... */\n    tag_6:\n      tag_38\n      tag_39\n      jump\t// in\n    tag_38:\n      mload(0x40)\n      tag_40\n      swap2\n      swap1\n      tag_37\n      jump\t// in\n    tag_40:\n      mload(0x40)\n      dup1\n      swap2\n      sub\n      swap1\n      return\n        /* \"smart_contracts/contracts/BaseERC20.sol\":3949:4609  function transferFrom(... */\n    tag_7:\n      tag_41\n      0x04\n      dup1\n      calldatasize\n      sub\n      dup2\n      add\n      swap1\n      tag_42\n      swap2\n      swap1\n      tag_43\n      jump\t// in\n    tag_42:\n      tag_44\n      jump\t// in\n    tag_41:\n      mload(0x40)\n      tag_45\n      swap2\n      swap1\n      tag_33\n      jump\t// in\n    tag_45:\n      mload(0x40)\n      dup1\n      swap2\n      sub\n      swap1\n      return\n        /* \"smart_contracts/contracts/BaseERC20.sol\":1348:1513  function revokeIsFoundingTeam() external onlyFoundingTeam {... */\n    tag_8:\n      tag_46\n      tag_47\n      jump\t// in\n    tag_46:\n      stop\n        /* \"smart_contracts/contracts/BaseERC20.sol\":8203:8296  function decimals() public view returns (uint256) {... */\n    tag_9:\n      tag_48\n      tag_49\n      jump\t// in\n    tag_48:\n      mload(0x40)\n      tag_50\n      swap2\n      swap1\n      tag_37\n      jump\t// in\n    tag_50:\n      mload(0x40)\n      dup1\n      swap2\n      sub\n      swap1\n      return\n        /* \"smart_contracts/contracts/BaseERC20.sol\":1951:2197  function increaseAllowance(address spender, uint256 addedValue)... */\n    tag_10:\n      tag_51\n      0x04\n      dup1\n      calldatasize\n      sub\n      dup2\n      add\n      swap1\n      tag_52\n      swap2\n      swap1\n      tag_30\n      jump\t// in\n    tag_52:\n      tag_53\n      jump\t// in\n    tag_51:\n      mload(0x40)\n      tag_54\n      swap2\n      swap1\n      tag_33\n      jump\t// in\n    tag_54:\n      mload(0x40)\n      dup1\n      swap2\n      sub\n      swap1\n      return\n        /* \"smart_contracts/contracts/BaseERC20.sol\":8617:8723  function balanceOf(address account) public view returns (uint256) {... */\n    tag_11:\n      tag_55\n      0x04\n      dup1\n      calldatasize\n      sub\n      dup2\n      add\n      swap1\n      tag_56\n      swap2\n      swap1\n      tag_57\n      jump\t// in\n    tag_56:\n      tag_58\n      jump\t// in\n    tag_55:\n      mload(0x40)\n      tag_59\n      swap2\n      swap1\n      tag_37\n      jump\t// in\n    tag_59:\n      mload(0x40)\n      dup1\n      swap2\n      sub\n      swap1\n      return\n        /* \"smart_contracts/contracts/BaseERC20.sol\":8729:8834  function vestedFor(address account) public view returns (uint256) {... */\n    tag_12:\n      tag_60\n      0x04\n      dup1\n      calldatasize\n      sub\n      dup2\n      add\n      swap1\n      tag_61\n      swap2\n      swap1\n      tag_57\n      jump\t// in\n    tag_61:\n      tag_62\n      jump\t// in\n    tag_60:\n      mload(0x40)\n      tag_63\n      swap2\n      swap1\n      tag_37\n      jump\t// in\n    tag_63:\n      mload(0x40)\n      dup1\n      swap2\n      sub\n      swap1\n      return\n        /* \"smart_contracts/contracts/BaseERC20.sol\":8951:9057  function voteWeightOf(address account) public view returns (uint256) {... */\n    tag_13:\n      tag_64\n      0x04\n      dup1\n      calldatasize\n      sub\n      dup2\n      add\n      swap1\n      tag_65\n      swap2\n      swap1\n      tag_57\n      jump\t// in\n    tag_65:\n      tag_66\n      jump\t// in\n    tag_64:\n      mload(0x40)\n      tag_67\n      swap2\n      swap1\n      tag_37\n      jump\t// in\n    tag_67:\n      mload(0x40)\n      dup1\n      swap2\n      sub\n      swap1\n      return\n        /* \"smart_contracts/contracts/BaseERC20.sol\":8512:8611  function totalStaked() public view returns (uint256) {... */\n    tag_14:\n      tag_68\n      tag_69\n      jump\t// in\n    tag_68:\n      mload(0x40)\n      tag_70\n      swap2\n      swap1\n      tag_37\n      jump\t// in\n    tag_70:\n      mload(0x40)\n      dup1\n      swap2\n      sub\n      swap1\n      return\n        /* \"smart_contracts/contracts/BaseERC20.sol\":6552:7999  function release() external antiReentrancyLock returns (bool) {... */\n    tag_15:\n      tag_71\n      tag_72\n      jump\t// in\n    tag_71:\n      mload(0x40)\n      tag_73\n      swap2\n      swap1\n      tag_33\n      jump\t// in\n    tag_73:\n      mload(0x40)\n      dup1\n      swap2\n      sub\n      swap1\n      return\n        /* \"smart_contracts/contracts/BaseERC20.sol\":8102:8197  function symbol() public view returns (string memory) {... */\n    tag_16:\n      tag_74\n      tag_75\n      jump\t// in\n    tag_74:\n      mload(0x40)\n      tag_76\n      swap2\n      swap1\n      tag_27\n      jump\t// in\n    tag_76:\n      mload(0x40)\n      dup1\n      swap2\n      sub\n      swap1\n      return\n        /* \"smart_contracts/contracts/BaseERC20.sol\":2203:2684  function decreaseAllowance(address spender, uint256 subtractedValue)... */\n    tag_17:\n      tag_77\n      0x04\n      dup1\n      calldatasize\n      sub\n      dup2\n      add\n      swap1\n      tag_78\n      swap2\n      swap1\n      tag_30\n      jump\t// in\n    tag_78:\n      tag_79\n      jump\t// in\n    tag_77:\n      mload(0x40)\n      tag_80\n      swap2\n      swap1\n      tag_33\n      jump\t// in\n    tag_80:\n      mload(0x40)\n      dup1\n      swap2\n      sub\n      swap1\n      return\n        /* \"smart_contracts/contracts/BaseERC20.sol\":3471:3943  function transfer(address recipient, uint256 amount)... */\n    tag_18:\n      tag_81\n      0x04\n      dup1\n      calldatasize\n      sub\n      dup2\n      add\n      swap1\n      tag_82\n      swap2\n      swap1\n      tag_30\n      jump\t// in\n    tag_82:\n      tag_83\n      jump\t// in\n    tag_81:\n      mload(0x40)\n      tag_84\n      swap2\n      swap1\n      tag_33\n      jump\t// in\n    tag_84:\n      mload(0x40)\n      dup1\n      swap2\n      sub\n      swap1\n      return\n        /* \"smart_contracts/contracts/BaseERC20.sol\":9063:9219  function allowance(address owner, address spender)... */\n    tag_19:\n      tag_85\n      0x04\n      dup1\n      calldatasize\n      sub\n      dup2\n      add\n      swap1\n      tag_86\n      swap2\n      swap1\n      tag_87\n      jump\t// in\n    tag_86:\n      tag_88\n      jump\t// in\n    tag_85:\n      mload(0x40)\n      tag_89\n      swap2\n      swap1\n      tag_37\n      jump\t// in\n    tag_89:\n      mload(0x40)\n      dup1\n      swap2\n      sub\n      swap1\n      return\n        /* \"smart_contracts/contracts/BaseERC20.sol\":8840:8945  function stakedFor(address account) public view returns (uint256) {... */\n    tag_20:\n      tag_90\n      0x04\n      dup1\n      calldatasize\n      sub\n      dup2\n      add\n      swap1\n      tag_91\n      swap2\n      swap1\n      tag_57\n      jump\t// in\n    tag_91:\n      tag_92\n      jump\t// in\n    tag_90:\n      mload(0x40)\n      tag_93\n      swap2\n      swap1\n      tag_37\n      jump\t// in\n    tag_93:\n      mload(0x40)\n      dup1\n      swap2\n      sub\n      swap1\n      return\n        /* \"smart_contracts/contracts/BaseERC20.sol\":8005:8096  function name() public view returns (string memory) {... */\n    tag_25:\n        /* \"smart_contracts/contracts/BaseERC20.sol\":8042:8055  string memory */\n      0x60\n        /* \"smart_contracts/contracts/BaseERC20.sol\":8074:8084  properties */\n      0x01\n        /* \"smart_contracts/contracts/BaseERC20.sol\":8074:8089  properties.name */\n      0x00\n      add\n        /* \"smart_contracts/contracts/BaseERC20.sol\":8067:8089  return properties.name */\n      dup1\n      sload\n      tag_95\n      swap1\n      tag_96\n      jump\t// in\n    tag_95:\n      dup1\n      0x1f\n      add\n      0x20\n      dup1\n      swap2\n      div\n      mul\n      0x20\n      add\n      mload(0x40)\n      swap1\n      dup2\n      add\n      0x40\n      mstore\n      dup1\n      swap3\n      swap2\n      swap1\n      dup2\n      dup2\n      mstore\n      0x20\n      add\n      dup3\n      dup1\n      sload\n      tag_97\n      swap1\n      tag_96\n      jump\t// in\n    tag_97:\n      dup1\n      iszero\n      tag_98\n      jumpi\n      dup1\n      0x1f\n      lt\n      tag_99\n      jumpi\n      0x0100\n      dup1\n      dup4\n      sload\n      div\n      mul\n      dup4\n      mstore\n      swap2\n      0x20\n      add\n      swap2\n      jump(tag_98)\n    tag_99:\n      dup3\n      add\n      swap2\n      swap1\n      0x00\n      mstore\n      keccak256(0x00, 0x20)\n      swap1\n    tag_100:\n      dup2\n      sload\n      dup2\n      mstore\n      swap1\n      0x01\n      add\n      swap1\n      0x20\n      add\n      dup1\n      dup4\n      gt\n      tag_100\n      jumpi\n      dup3\n      swap1\n      sub\n      0x1f\n      and\n      dup3\n      add\n      swap2\n    tag_98:\n      pop\n      pop\n      pop\n      pop\n      pop\n      swap1\n      pop\n        /* \"smart_contracts/contracts/BaseERC20.sol\":8005:8096  function name() public view returns (string memory) {... */\n      swap1\n      jump\t// out\n        /* \"smart_contracts/contracts/BaseERC20.sol\":1765:1945  function approve(address spender, uint256 amount) external returns (bool) {... */\n    tag_31:\n        /* \"smart_contracts/contracts/BaseERC20.sol\":1833:1837  bool */\n      0x00\n        /* \"smart_contracts/contracts/BaseERC20.sol\":1849:1862  address owner */\n      dup1\n        /* \"smart_contracts/contracts/BaseERC20.sol\":1865:1875  msg.sender */\n      caller\n        /* \"smart_contracts/contracts/BaseERC20.sol\":1849:1875  address owner = msg.sender */\n      swap1\n      pop\n        /* \"smart_contracts/contracts/BaseERC20.sol\":1885:1917  _approve(owner, spender, amount) */\n      tag_102\n        /* \"smart_contracts/contracts/BaseERC20.sol\":1894:1899  owner */\n      dup2\n        /* \"smart_contracts/contracts/BaseERC20.sol\":1901:1908  spender */\n      dup6\n        /* \"smart_contracts/contracts/BaseERC20.sol\":1910:1916  amount */\n      dup6\n        /* \"smart_contracts/contracts/BaseERC20.sol\":1885:1893  _approve */\n      tag_103\n        /* \"smart_contracts/contracts/BaseERC20.sol\":1885:1917  _approve(owner, spender, amount) */\n      jump\t// in\n    tag_102:\n        /* \"smart_contracts/contracts/BaseERC20.sol\":1934:1938  true */\n      0x01\n        /* \"smart_contracts/contracts/BaseERC20.sol\":1927:1938  return true */\n      swap2\n      pop\n      pop\n        /* \"smart_contracts/contracts/BaseERC20.sol\":1765:1945  function approve(address spender, uint256 amount) external returns (bool) {... */\n      swap3\n      swap2\n      pop\n      pop\n      jump\t// out\n        /* \"smart_contracts/contracts/BaseERC20.sol\":8302:8401  function totalSupply() public view returns (uint256) {... */\n    tag_35:\n        /* \"smart_contracts/contracts/BaseERC20.sol\":8346:8353  uint256 */\n      0x00\n        /* \"smart_contracts/contracts/BaseERC20.sol\":8372:8382  properties */\n      0x01\n        /* \"smart_contracts/contracts/BaseERC20.sol\":8372:8394  properties.totalSupply */\n      0x04\n      add\n      sload\n        /* \"smart_contracts/contracts/BaseERC20.sol\":8365:8394  return properties.totalSupply */\n      swap1\n      pop\n        /* \"smart_contracts/contracts/BaseERC20.sol\":8302:8401  function totalSupply() public view returns (uint256) {... */\n      swap1\n      jump\t// out\n        /* \"smart_contracts/contracts/BaseERC20.sol\":8407:8506  function totalVested() public view returns (uint256) {... */\n    tag_39:\n        /* \"smart_contracts/contracts/BaseERC20.sol\":8451:8458  uint256 */\n      0x00\n        /* \"smart_contracts/contracts/BaseERC20.sol\":8477:8487  properties */\n      0x01\n        /* \"smart_contracts/contracts/BaseERC20.sol\":8477:8499  properties.totalVested */\n      0x05\n      add\n      sload\n        /* \"smart_contracts/contracts/BaseERC20.sol\":8470:8499  return properties.totalVested */\n      swap1\n      pop\n        /* \"smart_contracts/contracts/BaseERC20.sol\":8407:8506  function totalVested() public view returns (uint256) {... */\n      swap1\n      jump\t// out\n        /* \"smart_contracts/contracts/BaseERC20.sol\":3949:4609  function transferFrom(... */\n    tag_44:\n        /* \"smart_contracts/contracts/BaseERC20.sol\":4089:4093  bool */\n      0x00\n        /* \"smart_contracts/contracts/BaseERC20.sol\":1659:1665  locked */\n      0x13\n      0x00\n      swap1\n      sload\n      swap1\n      0x0100\n      exp\n      swap1\n      div\n      0xff\n      and\n        /* \"smart_contracts/contracts/BaseERC20.sol\":1658:1665  !locked */\n      iszero\n        /* \"smart_contracts/contracts/BaseERC20.sol\":1650:1694  require(!locked, \"Anti-reentrancy in place\") */\n      tag_107\n      jumpi\n      mload(0x40)\n      0x08c379a000000000000000000000000000000000000000000000000000000000\n      dup2\n      mstore\n      0x04\n      add\n      tag_108\n      swap1\n      tag_109\n      jump\t// in\n    tag_108:\n      mload(0x40)\n      dup1\n      swap2\n      sub\n      swap1\n      revert\n    tag_107:\n        /* \"smart_contracts/contracts/BaseERC20.sol\":1713:1717  true */\n      0x01\n        /* \"smart_contracts/contracts/BaseERC20.sol\":1704:1710  locked */\n      0x13\n      0x00\n        /* \"smart_contracts/contracts/BaseERC20.sol\":1704:1717  locked = true */\n      0x0100\n      exp\n      dup2\n      sload\n      dup2\n      0xff\n      mul\n      not\n      and\n      swap1\n      dup4\n      iszero\n      iszero\n      mul\n      or\n      swap1\n      sstore\n      pop\n        /* \"smart_contracts/contracts/BaseERC20.sol\":4141:4147  amount */\n      dup2\n        /* \"smart_contracts/contracts/BaseERC20.sol\":4113:4121  database */\n      0x08\n        /* \"smart_contracts/contracts/BaseERC20.sol\":4113:4129  database.balance */\n      0x00\n      add\n        /* \"smart_contracts/contracts/BaseERC20.sol\":4113:4137  database.balance[sender] */\n      0x00\n        /* \"smart_contracts/contracts/BaseERC20.sol\":4130:4136  sender */\n      dup7\n        /* \"smart_contracts/contracts/BaseERC20.sol\":4113:4137  database.balance[sender] */\n      0xffffffffffffffffffffffffffffffffffffffff\n      and\n      0xffffffffffffffffffffffffffffffffffffffff\n      and\n      dup2\n      mstore\n      0x20\n      add\n      swap1\n      dup2\n      mstore\n      0x20\n      add\n      0x00\n      keccak256\n      sload\n        /* \"smart_contracts/contracts/BaseERC20.sol\":4113:4147  database.balance[sender] >= amount */\n      lt\n      iszero\n        /* \"smart_contracts/contracts/BaseERC20.sol\":4105:4172  require(database.balance[sender] >= amount, \"Insufficient balance\") */\n      tag_111\n      jumpi\n      mload(0x40)\n      0x08c379a000000000000000000000000000000000000000000000000000000000\n      dup2\n      mstore\n      0x04\n      add\n      tag_112\n      swap1\n      tag_113\n      jump\t// in\n    tag_112:\n      mload(0x40)\n      dup1\n      swap2\n      sub\n      swap1\n      revert\n    tag_111:\n        /* \"smart_contracts/contracts/BaseERC20.sol\":4234:4240  amount */\n      dup2\n        /* \"smart_contracts/contracts/BaseERC20.sol\":4203:4210  allowed */\n      0x11\n        /* \"smart_contracts/contracts/BaseERC20.sol\":4203:4218  allowed[sender] */\n      0x00\n        /* \"smart_contracts/contracts/BaseERC20.sol\":4211:4217  sender */\n      dup7\n        /* \"smart_contracts/contracts/BaseERC20.sol\":4203:4218  allowed[sender] */\n      0xffffffffffffffffffffffffffffffffffffffff\n      and\n      0xffffffffffffffffffffffffffffffffffffffff\n      and\n      dup2\n      mstore\n      0x20\n      add\n      swap1\n      dup2\n      mstore\n      0x20\n      add\n      0x00\n      keccak256\n        /* \"smart_contracts/contracts/BaseERC20.sol\":4203:4230  allowed[sender][msg.sender] */\n      0x00\n        /* \"smart_contracts/contracts/BaseERC20.sol\":4219:4229  msg.sender */\n      caller\n        /* \"smart_contracts/contracts/BaseERC20.sol\":4203:4230  allowed[sender][msg.sender] */\n      0xffffffffffffffffffffffffffffffffffffffff\n      and\n      0xffffffffffffffffffffffffffffffffffffffff\n      and\n      dup2\n      mstore\n      0x20\n      add\n      swap1\n      dup2\n      mstore\n      0x20\n      add\n      0x00\n      keccak256\n      sload\n        /* \"smart_contracts/contracts/BaseERC20.sol\":4203:4240  allowed[sender][msg.sender] >= amount */\n      lt\n      iszero\n        /* \"smart_contracts/contracts/BaseERC20.sol\":4182:4299  require(... */\n      tag_114\n      jumpi\n      mload(0x40)\n      0x08c379a000000000000000000000000000000000000000000000000000000000\n      dup2\n      mstore\n      0x04\n      add\n      tag_115\n      swap1\n      tag_116\n      jump\t// in\n    tag_115:\n      mload(0x40)\n      dup1\n      swap2\n      sub\n      swap1\n      revert\n    tag_114:\n        /* \"smart_contracts/contracts/BaseERC20.sol\":4337:4343  amount */\n      dup2\n        /* \"smart_contracts/contracts/BaseERC20.sol\":4309:4317  database */\n      0x08\n        /* \"smart_contracts/contracts/BaseERC20.sol\":4309:4325  database.balance */\n      0x00\n      add\n        /* \"smart_contracts/contracts/BaseERC20.sol\":4309:4333  database.balance[sender] */\n      0x00\n        /* \"smart_contracts/contracts/BaseERC20.sol\":4326:4332  sender */\n      dup7\n        /* \"smart_contracts/contracts/BaseERC20.sol\":4309:4333  database.balance[sender] */\n      0xffffffffffffffffffffffffffffffffffffffff\n      and\n      0xffffffffffffffffffffffffffffffffffffffff\n      and\n      dup2\n      mstore\n      0x20\n      add\n      swap1\n      dup2\n      mstore\n      0x20\n      add\n      0x00\n      keccak256\n      0x00\n        /* \"smart_contracts/contracts/BaseERC20.sol\":4309:4343  database.balance[sender] -= amount */\n      dup3\n      dup3\n      sload\n      tag_117\n      swap2\n      swap1\n      tag_118\n      jump\t// in\n    tag_117:\n      swap3\n      pop\n      pop\n      dup2\n      swap1\n      sstore\n      pop\n        /* \"smart_contracts/contracts/BaseERC20.sol\":4378:4384  amount */\n      dup2\n        /* \"smart_contracts/contracts/BaseERC20.sol\":4353:4361  database */\n      0x08\n        /* \"smart_contracts/contracts/BaseERC20.sol\":4353:4366  database.vote */\n      0x03\n      add\n        /* \"smart_contracts/contracts/BaseERC20.sol\":4353:4374  database.vote[sender] */\n      0x00\n        /* \"smart_contracts/contracts/BaseERC20.sol\":4367:4373  sender */\n      dup7\n        /* \"smart_contracts/contracts/BaseERC20.sol\":4353:4374  database.vote[sender] */\n      0xffffffffffffffffffffffffffffffffffffffff\n      and\n      0xffffffffffffffffffffffffffffffffffffffff\n      and\n      dup2\n      mstore\n      0x20\n      add\n      swap1\n      dup2\n      mstore\n      0x20\n      add\n      0x00\n      keccak256\n      0x00\n        /* \"smart_contracts/contracts/BaseERC20.sol\":4353:4384  database.vote[sender] -= amount */\n      dup3\n      dup3\n      sload\n      tag_119\n      swap2\n      swap1\n      tag_118\n      jump\t// in\n    tag_119:\n      swap3\n      pop\n      pop\n      dup2\n      swap1\n      sstore\n      pop\n        /* \"smart_contracts/contracts/BaseERC20.sol\":4425:4431  amount */\n      dup2\n        /* \"smart_contracts/contracts/BaseERC20.sol\":4394:4402  database */\n      0x08\n        /* \"smart_contracts/contracts/BaseERC20.sol\":4394:4410  database.balance */\n      0x00\n      add\n        /* \"smart_contracts/contracts/BaseERC20.sol\":4394:4421  database.balance[recipient] */\n      0x00\n        /* \"smart_contracts/contracts/BaseERC20.sol\":4411:4420  recipient */\n      dup6\n        /* \"smart_contracts/contracts/BaseERC20.sol\":4394:4421  database.balance[recipient] */\n      0xffffffffffffffffffffffffffffffffffffffff\n      and\n      0xffffffffffffffffffffffffffffffffffffffff\n      and\n      dup2\n      mstore\n      0x20\n      add\n      swap1\n      dup2\n      mstore\n      0x20\n      add\n      0x00\n      keccak256\n      0x00\n        /* \"smart_contracts/contracts/BaseERC20.sol\":4394:4431  database.balance[recipient] += amount */\n      dup3\n      dup3\n      sload\n      tag_120\n      swap2\n      swap1\n      tag_121\n      jump\t// in\n    tag_120:\n      swap3\n      pop\n      pop\n      dup2\n      swap1\n      sstore\n      pop\n        /* \"smart_contracts/contracts/BaseERC20.sol\":4469:4475  amount */\n      dup2\n        /* \"smart_contracts/contracts/BaseERC20.sol\":4441:4449  database */\n      0x08\n        /* \"smart_contracts/contracts/BaseERC20.sol\":4441:4454  database.vote */\n      0x03\n      add\n        /* \"smart_contracts/contracts/BaseERC20.sol\":4441:4465  database.vote[recipient] */\n      0x00\n        /* \"smart_contracts/contracts/BaseERC20.sol\":4455:4464  recipient */\n      dup6\n        /* \"smart_contracts/contracts/BaseERC20.sol\":4441:4465  database.vote[recipient] */\n      0xffffffffffffffffffffffffffffffffffffffff\n      and\n      0xffffffffffffffffffffffffffffffffffffffff\n      and\n      dup2\n      mstore\n      0x20\n      add\n      swap1\n      dup2\n      mstore\n      0x20\n      add\n      0x00\n      keccak256\n      0x00\n        /* \"smart_contracts/contracts/BaseERC20.sol\":4441:4475  database.vote[recipient] += amount */\n      dup3\n      dup3\n      sload\n      tag_122\n      swap2\n      swap1\n      tag_121\n      jump\t// in\n    tag_122:\n      swap3\n      pop\n      pop\n      dup2\n      swap1\n      sstore\n      pop\n        /* \"smart_contracts/contracts/BaseERC20.sol\":4525:4531  amount */\n      dup2\n        /* \"smart_contracts/contracts/BaseERC20.sol\":4485:4493  database */\n      0x08\n        /* \"smart_contracts/contracts/BaseERC20.sol\":4485:4501  database.allowed */\n      0x04\n      add\n        /* \"smart_contracts/contracts/BaseERC20.sol\":4485:4509  database.allowed[sender] */\n      0x00\n        /* \"smart_contracts/contracts/BaseERC20.sol\":4502:4508  sender */\n      dup7\n        /* \"smart_contracts/contracts/BaseERC20.sol\":4485:4509  database.allowed[sender] */\n      0xffffffffffffffffffffffffffffffffffffffff\n      and\n      0xffffffffffffffffffffffffffffffffffffffff\n      and\n      dup2\n      mstore\n      0x20\n      add\n      swap1\n      dup2\n      mstore\n      0x20\n      add\n      0x00\n      keccak256\n        /* \"smart_contracts/contracts/BaseERC20.sol\":4485:4521  database.allowed[sender][msg.sender] */\n      0x00\n        /* \"smart_contracts/contracts/BaseERC20.sol\":4510:4520  msg.sender */\n      caller\n        /* \"smart_contracts/contracts/BaseERC20.sol\":4485:4521  database.allowed[sender][msg.sender] */\n      0xffffffffffffffffffffffffffffffffffffffff\n      and\n      0xffffffffffffffffffffffffffffffffffffffff\n      and\n      dup2\n      mstore\n      0x20\n      add\n      swap1\n      dup2\n      mstore\n      0x20\n      add\n      0x00\n      keccak256\n      0x00\n        /* \"smart_contracts/contracts/BaseERC20.sol\":4485:4531  database.allowed[sender][msg.sender] -= amount */\n      dup3\n      dup3\n      sload\n      tag_123\n      swap2\n      swap1\n      tag_118\n      jump\t// in\n    tag_123:\n      swap3\n      pop\n      pop\n      dup2\n      swap1\n      sstore\n      pop\n        /* \"smart_contracts/contracts/BaseERC20.sol\":4563:4572  recipient */\n      dup3\n        /* \"smart_contracts/contracts/BaseERC20.sol\":4546:4581  Transfer(sender, recipient, amount) */\n      0xffffffffffffffffffffffffffffffffffffffff\n      and\n        /* \"smart_contracts/contracts/BaseERC20.sol\":4555:4561  sender */\n      dup5\n        /* \"smart_contracts/contracts/BaseERC20.sol\":4546:4581  Transfer(sender, recipient, amount) */\n      0xffffffffffffffffffffffffffffffffffffffff\n      and\n      0xddf252ad1be2c89b69c2b068fc378daa952ba7f163c4a11628f55a4df523b3ef\n        /* \"smart_contracts/contracts/BaseERC20.sol\":4574:4580  amount */\n      dup5\n        /* \"smart_contracts/contracts/BaseERC20.sol\":4546:4581  Transfer(sender, recipient, amount) */\n      mload(0x40)\n      tag_124\n      swap2\n      swap1\n      tag_37\n      jump\t// in\n    tag_124:\n      mload(0x40)\n      dup1\n      swap2\n      sub\n      swap1\n      log3\n        /* \"smart_contracts/contracts/BaseERC20.sol\":4598:4602  true */\n      0x01\n        /* \"smart_contracts/contracts/BaseERC20.sol\":4591:4602  return true */\n      swap1\n      pop\n        /* \"smart_contracts/contracts/BaseERC20.sol\":1747:1752  false */\n      0x00\n        /* \"smart_contracts/contracts/BaseERC20.sol\":1738:1744  locked */\n      0x13\n      0x00\n        /* \"smart_contracts/contracts/BaseERC20.sol\":1738:1752  locked = false */\n      0x0100\n      exp\n      dup2\n      sload\n      dup2\n      0xff\n      mul\n      not\n      and\n      swap1\n      dup4\n      iszero\n      iszero\n      mul\n      or\n      swap1\n      sstore\n      pop\n        /* \"smart_contracts/contracts/BaseERC20.sol\":3949:4609  function transferFrom(... */\n      swap4\n      swap3\n      pop\n      pop\n      pop\n      jump\t// out\n        /* \"smart_contracts/contracts/BaseERC20.sol\":1348:1513  function revokeIsFoundingTeam() external onlyFoundingTeam {... */\n    tag_47:\n        /* \"smart_contracts/contracts/BaseERC20.sol\":1297:1311  isFoundingTeam */\n      0x12\n        /* \"smart_contracts/contracts/BaseERC20.sol\":1297:1323  isFoundingTeam[msg.sender] */\n      0x00\n        /* \"smart_contracts/contracts/BaseERC20.sol\":1312:1322  msg.sender */\n      caller\n        /* \"smart_contracts/contracts/BaseERC20.sol\":1297:1323  isFoundingTeam[msg.sender] */\n      0xffffffffffffffffffffffffffffffffffffffff\n      and\n      0xffffffffffffffffffffffffffffffffffffffff\n      and\n      dup2\n      mstore\n      0x20\n      add\n      swap1\n      dup2\n      mstore\n      0x20\n      add\n      0x00\n      keccak256\n      0x00\n      swap1\n      sload\n      swap1\n      0x0100\n      exp\n      swap1\n      div\n      0xff\n      and\n        /* \"smart_contracts/contracts/BaseERC20.sol\":1289:1324  require(isFoundingTeam[msg.sender]) */\n      tag_126\n      jumpi\n      0x00\n      dup1\n      revert\n    tag_126:\n        /* \"smart_contracts/contracts/BaseERC20.sol\":1445:1450  false */\n      0x00\n        /* \"smart_contracts/contracts/BaseERC20.sol\":1416:1430  isFoundingTeam */\n      0x12\n        /* \"smart_contracts/contracts/BaseERC20.sol\":1416:1442  isFoundingTeam[msg.sender] */\n      0x00\n        /* \"smart_contracts/contracts/BaseERC20.sol\":1431:1441  msg.sender */\n      caller\n        /* \"smart_contracts/contracts/BaseERC20.sol\":1416:1442  isFoundingTeam[msg.sender] */\n      0xffffffffffffffffffffffffffffffffffffffff\n      and\n      0xffffffffffffffffffffffffffffffffffffffff\n      and\n      dup2\n      mstore\n      0x20\n      add\n      swap1\n      dup2\n      mstore\n      0x20\n      add\n      0x00\n      keccak256\n      0x00\n        /* \"smart_contracts/contracts/BaseERC20.sol\":1416:1450  isFoundingTeam[msg.sender] = false */\n      0x0100\n      exp\n      dup2\n      sload\n      dup2\n      0xff\n      mul\n      not\n      and\n      swap1\n      dup4\n      iszero\n      iszero\n      mul\n      or\n      swap1\n      sstore\n      pop\n        /* \"smart_contracts/contracts/BaseERC20.sol\":1477:1487  msg.sender */\n      caller\n        /* \"smart_contracts/contracts/BaseERC20.sol\":1465:1506  RoleRevoked(msg.sender, \"isFoundingTeam\") */\n      0xffffffffffffffffffffffffffffffffffffffff\n      and\n      0x9f43a01c0d4ff5aff09b3b9b472df707ceefd3f948f8942f10fa1562a8921304\n      mload(0x40)\n      tag_128\n      swap1\n      tag_129\n      jump\t// in\n    tag_128:\n      mload(0x40)\n      dup1\n      swap2\n      sub\n      swap1\n      log2\n        /* \"smart_contracts/contracts/BaseERC20.sol\":1348:1513  function revokeIsFoundingTeam() external onlyFoundingTeam {... */\n      jump\t// out\n        /* \"smart_contracts/contracts/BaseERC20.sol\":8203:8296  function decimals() public view returns (uint256) {... */\n    tag_49:\n        /* \"smart_contracts/contracts/BaseERC20.sol\":8244:8251  uint256 */\n      0x00\n        /* \"smart_contracts/contracts/BaseERC20.sol\":8270:8280  properties */\n      0x01\n        /* \"smart_contracts/contracts/BaseERC20.sol\":8270:8289  properties.decimals */\n      0x02\n      add\n      sload\n        /* \"smart_contracts/contracts/BaseERC20.sol\":8263:8289  return properties.decimals */\n      swap1\n      pop\n        /* \"smart_contracts/contracts/BaseERC20.sol\":8203:8296  function decimals() public view returns (uint256) {... */\n      swap1\n      jump\t// out\n        /* \"smart_contracts/contracts/BaseERC20.sol\":1951:2197  function increaseAllowance(address spender, uint256 addedValue)... */\n    tag_53:\n        /* \"smart_contracts/contracts/BaseERC20.sol\":2049:2053  bool */\n      0x00\n        /* \"smart_contracts/contracts/BaseERC20.sol\":2069:2082  address owner */\n      dup1\n        /* \"smart_contracts/contracts/BaseERC20.sol\":2085:2095  msg.sender */\n      caller\n        /* \"smart_contracts/contracts/BaseERC20.sol\":2069:2095  address owner = msg.sender */\n      swap1\n      pop\n        /* \"smart_contracts/contracts/BaseERC20.sol\":2105:2169  _approve(owner, spender, allowance(owner, spender) + addedValue) */\n      tag_132\n        /* \"smart_contracts/contracts/BaseERC20.sol\":2114:2119  owner */\n      dup2\n        /* \"smart_contracts/contracts/BaseERC20.sol\":2121:2128  spender */\n      dup6\n        /* \"smart_contracts/contracts/BaseERC20.sol\":2158:2168  addedValue */\n      dup6\n        /* \"smart_contracts/contracts/BaseERC20.sol\":2130:2155  allowance(owner, spender) */\n      tag_133\n        /* \"smart_contracts/contracts/BaseERC20.sol\":2140:2145  owner */\n      dup6\n        /* \"smart_contracts/contracts/BaseERC20.sol\":2147:2154  spender */\n      dup10\n        /* \"smart_contracts/contracts/BaseERC20.sol\":2130:2139  allowance */\n      tag_88\n        /* \"smart_contracts/contracts/BaseERC20.sol\":2130:2155  allowance(owner, spender) */\n      jump\t// in\n    tag_133:\n        /* \"smart_contracts/contracts/BaseERC20.sol\":2130:2168  allowance(owner, spender) + addedValue */\n      tag_134\n      swap2\n      swap1\n      tag_121\n      jump\t// in\n    tag_134:\n        /* \"smart_contracts/contracts/BaseERC20.sol\":2105:2113  _approve */\n      tag_103\n        /* \"smart_contracts/contracts/BaseERC20.sol\":2105:2169  _approve(owner, spender, allowance(owner, spender) + addedValue) */\n      jump\t// in\n    tag_132:\n        /* \"smart_contracts/contracts/BaseERC20.sol\":2186:2190  true */\n      0x01\n        /* \"smart_contracts/contracts/BaseERC20.sol\":2179:2190  return true */\n      swap2\n      pop\n      pop\n        /* \"smart_contracts/contracts/BaseERC20.sol\":1951:2197  function increaseAllowance(address spender, uint256 addedValue)... */\n      swap3\n      swap2\n      pop\n      pop\n      jump\t// out\n        /* \"smart_contracts/contracts/BaseERC20.sol\":8617:8723  function balanceOf(address account) public view returns (uint256) {... */\n    tag_58:\n        /* \"smart_contracts/contracts/BaseERC20.sol\":8674:8681  uint256 */\n      0x00\n        /* \"smart_contracts/contracts/BaseERC20.sol\":8700:8707  balance */\n      0x0d\n        /* \"smart_contracts/contracts/BaseERC20.sol\":8700:8716  balance[account] */\n      0x00\n        /* \"smart_contracts/contracts/BaseERC20.sol\":8708:8715  account */\n      dup4\n        /* \"smart_contracts/contracts/BaseERC20.sol\":8700:8716  balance[account] */\n      0xffffffffffffffffffffffffffffffffffffffff\n      and\n      0xffffffffffffffffffffffffffffffffffffffff\n      and\n      dup2\n      mstore\n      0x20\n      add\n      swap1\n      dup2\n      mstore\n      0x20\n      add\n      0x00\n      keccak256\n      sload\n        /* \"smart_contracts/contracts/BaseERC20.sol\":8693:8716  return balance[account] */\n      swap1\n      pop\n        /* \"smart_contracts/contracts/BaseERC20.sol\":8617:8723  function balanceOf(address account) public view returns (uint256) {... */\n      swap2\n      swap1\n      pop\n      jump\t// out\n        /* \"smart_contracts/contracts/BaseERC20.sol\":8729:8834  function vestedFor(address account) public view returns (uint256) {... */\n    tag_62:\n        /* \"smart_contracts/contracts/BaseERC20.sol\":8786:8793  uint256 */\n      0x00\n        /* \"smart_contracts/contracts/BaseERC20.sol\":8812:8818  vested */\n      0x0e\n        /* \"smart_contracts/contracts/BaseERC20.sol\":8812:8827  vested[account] */\n      0x00\n        /* \"smart_contracts/contracts/BaseERC20.sol\":8819:8826  account */\n      dup4\n        /* \"smart_contracts/contracts/BaseERC20.sol\":8812:8827  vested[account] */\n      0xffffffffffffffffffffffffffffffffffffffff\n      and\n      0xffffffffffffffffffffffffffffffffffffffff\n      and\n      dup2\n      mstore\n      0x20\n      add\n      swap1\n      dup2\n      mstore\n      0x20\n      add\n      0x00\n      keccak256\n      sload\n        /* \"smart_contracts/contracts/BaseERC20.sol\":8805:8827  return vested[account] */\n      swap1\n      pop\n        /* \"smart_contracts/contracts/BaseERC20.sol\":8729:8834  function vestedFor(address account) public view returns (uint256) {... */\n      swap2\n      swap1\n      pop\n      jump\t// out\n        /* \"smart_contracts/contracts/BaseERC20.sol\":8951:9057  function voteWeightOf(address account) public view returns (uint256) {... */\n    tag_66:\n        /* \"smart_contracts/contracts/BaseERC20.sol\":9011:9018  uint256 */\n      0x00\n        /* \"smart_contracts/contracts/BaseERC20.sol\":9037:9041  vote */\n      0x10\n        /* \"smart_contracts/contracts/BaseERC20.sol\":9037:9050  vote[account] */\n      0x00\n        /* \"smart_contracts/contracts/BaseERC20.sol\":9042:9049  account */\n      dup4\n        /* \"smart_contracts/contracts/BaseERC20.sol\":9037:9050  vote[account] */\n      0xffffffffffffffffffffffffffffffffffffffff\n      and\n      0xffffffffffffffffffffffffffffffffffffffff\n      and\n      dup2\n      mstore\n      0x20\n      add\n      swap1\n      dup2\n      mstore\n      0x20\n      add\n      0x00\n      keccak256\n      sload\n        /* \"smart_contracts/contracts/BaseERC20.sol\":9030:9050  return vote[account] */\n      swap1\n      pop\n        /* \"smart_contracts/contracts/BaseERC20.sol\":8951:9057  function voteWeightOf(address account) public view returns (uint256) {... */\n      swap2\n      swap1\n      pop\n      jump\t// out\n        /* \"smart_contracts/contracts/BaseERC20.sol\":8512:8611  function totalStaked() public view returns (uint256) {... */\n    tag_69:\n        /* \"smart_contracts/contracts/BaseERC20.sol\":8556:8563  uint256 */\n      0x00\n        /* \"smart_contracts/contracts/BaseERC20.sol\":8582:8592  properties */\n      0x01\n        /* \"smart_contracts/contracts/BaseERC20.sol\":8582:8604  properties.totalStaked */\n      0x06\n      add\n      sload\n        /* \"smart_contracts/contracts/BaseERC20.sol\":8575:8604  return properties.totalStaked */\n      swap1\n      pop\n        /* \"smart_contracts/contracts/BaseERC20.sol\":8512:8611  function totalStaked() public view returns (uint256) {... */\n      swap1\n      jump\t// out\n        /* \"smart_contracts/contracts/BaseERC20.sol\":6552:7999  function release() external antiReentrancyLock returns (bool) {... */\n    tag_72:\n        /* \"smart_contracts/contracts/BaseERC20.sol\":6608:6612  bool */\n      0x00\n        /* \"smart_contracts/contracts/BaseERC20.sol\":1659:1665  locked */\n      0x13\n      0x00\n      swap1\n      sload\n      swap1\n      0x0100\n      exp\n      swap1\n      div\n      0xff\n      and\n        /* \"smart_contracts/contracts/BaseERC20.sol\":1658:1665  !locked */\n      iszero\n        /* \"smart_contracts/contracts/BaseERC20.sol\":1650:1694  require(!locked, \"Anti-reentrancy in place\") */\n      tag_140\n      jumpi\n      mload(0x40)\n      0x08c379a000000000000000000000000000000000000000000000000000000000\n      dup2\n      mstore\n      0x04\n      add\n      tag_141\n      swap1\n      tag_109\n      jump\t// in\n    tag_141:\n      mload(0x40)\n      dup1\n      swap2\n      sub\n      swap1\n      revert\n    tag_140:\n        /* \"smart_contracts/contracts/BaseERC20.sol\":1713:1717  true */\n      0x01\n        /* \"smart_contracts/contracts/BaseERC20.sol\":1704:1710  locked */\n      0x13\n      0x00\n        /* \"smart_contracts/contracts/BaseERC20.sol\":1704:1717  locked = true */\n      0x0100\n      exp\n      dup2\n      sload\n      dup2\n      0xff\n      mul\n      not\n      and\n      swap1\n      dup4\n      iszero\n      iszero\n      mul\n      or\n      swap1\n      sstore\n      pop\n        /* \"smart_contracts/contracts/BaseERC20.sol\":6624:6667  Vesting.VestingSchedule[] storage schedules */\n      0x00\n        /* \"smart_contracts/contracts/BaseERC20.sol\":6670:6678  schedule */\n      0x14\n        /* \"smart_contracts/contracts/BaseERC20.sol\":6670:6690  schedule[msg.sender] */\n      0x00\n        /* \"smart_contracts/contracts/BaseERC20.sol\":6679:6689  msg.sender */\n      caller\n        /* \"smart_contracts/contracts/BaseERC20.sol\":6670:6690  schedule[msg.sender] */\n      0xffffffffffffffffffffffffffffffffffffffff\n      and\n      0xffffffffffffffffffffffffffffffffffffffff\n      and\n      dup2\n      mstore\n      0x20\n      add\n      swap1\n      dup2\n      mstore\n      0x20\n      add\n      0x00\n      keccak256\n        /* \"smart_contracts/contracts/BaseERC20.sol\":6624:6690  Vesting.VestingSchedule[] storage schedules = schedule[msg.sender] */\n      swap1\n      pop\n        /* \"smart_contracts/contracts/BaseERC20.sol\":6700:6721  uint256 totalReleased */\n      0x00\n        /* \"smart_contracts/contracts/BaseERC20.sol\":6740:6749  uint256 i */\n      dup1\n        /* \"smart_contracts/contracts/BaseERC20.sol\":6759:6768  schedules */\n      dup3\n        /* \"smart_contracts/contracts/BaseERC20.sol\":6759:6775  schedules.length */\n      dup1\n      sload\n      swap1\n      pop\n        /* \"smart_contracts/contracts/BaseERC20.sol\":6755:6756  i */\n      dup2\n        /* \"smart_contracts/contracts/BaseERC20.sol\":6755:6775  i < schedules.length */\n      lt\n        /* \"smart_contracts/contracts/BaseERC20.sol\":6735:7993  for (uint256 i = 0; i < schedules.length; i++) {... */\n      iszero\n      tag_144\n      jumpi\n        /* \"smart_contracts/contracts/BaseERC20.sol\":6796:6843  Vesting.VestingSchedule storage currentSchedule */\n      0x00\n        /* \"smart_contracts/contracts/BaseERC20.sol\":6846:6855  schedules */\n      dup4\n        /* \"smart_contracts/contracts/BaseERC20.sol\":6856:6857  i */\n      dup3\n        /* \"smart_contracts/contracts/BaseERC20.sol\":6846:6858  schedules[i] */\n      dup2\n      sload\n      dup2\n      lt\n      tag_146\n      jumpi\n      tag_147\n      tag_148\n      jump\t// in\n    tag_147:\n    tag_146:\n      swap1\n      0x00\n      mstore\n      keccak256(0x00, 0x20)\n      swap1\n      0x04\n      mul\n      add\n        /* \"smart_contracts/contracts/BaseERC20.sol\":6796:6858  Vesting.VestingSchedule storage currentSchedule = schedules[i] */\n      swap1\n      pop\n        /* \"smart_contracts/contracts/BaseERC20.sol\":6895:6910  currentSchedule */\n      dup1\n        /* \"smart_contracts/contracts/BaseERC20.sol\":6895:6914  currentSchedule.end */\n      0x02\n      add\n      sload\n        /* \"smart_contracts/contracts/BaseERC20.sol\":6876:6891  block.timestamp */\n      timestamp\n        /* \"smart_contracts/contracts/BaseERC20.sol\":6876:6914  block.timestamp >= currentSchedule.end */\n      lt\n        /* \"smart_contracts/contracts/BaseERC20.sol\":6872:7666  if (block.timestamp >= currentSchedule.end) {... */\n      tag_150\n      jumpi\n        /* \"smart_contracts/contracts/BaseERC20.sol\":6934:6957  uint256 amountToRelease */\n      0x00\n        /* \"smart_contracts/contracts/BaseERC20.sol\":7005:7020  currentSchedule */\n      dup2\n        /* \"smart_contracts/contracts/BaseERC20.sol\":7005:7029  currentSchedule.released */\n      0x03\n      add\n      sload\n        /* \"smart_contracts/contracts/BaseERC20.sol\":6960:6975  currentSchedule */\n      dup3\n        /* \"smart_contracts/contracts/BaseERC20.sol\":6960:6982  currentSchedule.amount */\n      0x00\n      add\n      sload\n        /* \"smart_contracts/contracts/BaseERC20.sol\":6960:7029  currentSchedule.amount -... */\n      tag_151\n      swap2\n      swap1\n      tag_118\n      jump\t// in\n    tag_151:\n        /* \"smart_contracts/contracts/BaseERC20.sol\":6934:7029  uint256 amountToRelease = currentSchedule.amount -... */\n      swap1\n      pop\n        /* \"smart_contracts/contracts/BaseERC20.sol\":7074:7089  currentSchedule */\n      dup2\n        /* \"smart_contracts/contracts/BaseERC20.sol\":7074:7096  currentSchedule.amount */\n      0x00\n      add\n      sload\n        /* \"smart_contracts/contracts/BaseERC20.sol\":7047:7062  currentSchedule */\n      dup3\n        /* \"smart_contracts/contracts/BaseERC20.sol\":7047:7071  currentSchedule.released */\n      0x03\n      add\n        /* \"smart_contracts/contracts/BaseERC20.sol\":7047:7096  currentSchedule.released = currentSchedule.amount */\n      dup2\n      swap1\n      sstore\n      pop\n        /* \"smart_contracts/contracts/BaseERC20.sol\":7131:7146  amountToRelease */\n      dup1\n        /* \"smart_contracts/contracts/BaseERC20.sol\":7114:7146  totalReleased += amountToRelease */\n      dup5\n      tag_152\n      swap2\n      swap1\n      tag_121\n      jump\t// in\n    tag_152:\n      swap4\n      pop\n        /* \"smart_contracts/contracts/BaseERC20.sol\":6916:7161  {... */\n      pop\n        /* \"smart_contracts/contracts/BaseERC20.sol\":6872:7666  if (block.timestamp >= currentSchedule.end) {... */\n      jump(tag_153)\n    tag_150:\n        /* \"smart_contracts/contracts/BaseERC20.sol\":7185:7204  uint256 timeElapsed */\n      0x00\n        /* \"smart_contracts/contracts/BaseERC20.sol\":7225:7240  currentSchedule */\n      dup2\n        /* \"smart_contracts/contracts/BaseERC20.sol\":7225:7246  currentSchedule.start */\n      0x01\n      add\n      sload\n        /* \"smart_contracts/contracts/BaseERC20.sol\":7207:7222  block.timestamp */\n      timestamp\n        /* \"smart_contracts/contracts/BaseERC20.sol\":7207:7246  block.timestamp - currentSchedule.start */\n      tag_154\n      swap2\n      swap1\n      tag_118\n      jump\t// in\n    tag_154:\n        /* \"smart_contracts/contracts/BaseERC20.sol\":7185:7246  uint256 timeElapsed = block.timestamp - currentSchedule.start */\n      swap1\n      pop\n        /* \"smart_contracts/contracts/BaseERC20.sol\":7264:7287  uint256 vestingDuration */\n      0x00\n        /* \"smart_contracts/contracts/BaseERC20.sol\":7332:7347  currentSchedule */\n      dup3\n        /* \"smart_contracts/contracts/BaseERC20.sol\":7332:7353  currentSchedule.start */\n      0x01\n      add\n      sload\n        /* \"smart_contracts/contracts/BaseERC20.sol\":7290:7305  currentSchedule */\n      dup4\n        /* \"smart_contracts/contracts/BaseERC20.sol\":7290:7309  currentSchedule.end */\n      0x02\n      add\n      sload\n        /* \"smart_contracts/contracts/BaseERC20.sol\":7290:7353  currentSchedule.end -... */\n      tag_155\n      swap2\n      swap1\n      tag_118\n      jump\t// in\n    tag_155:\n        /* \"smart_contracts/contracts/BaseERC20.sol\":7264:7353  uint256 vestingDuration = currentSchedule.end -... */\n      swap1\n      pop\n        /* \"smart_contracts/contracts/BaseERC20.sol\":7371:7394  uint256 amountToRelease */\n      0x00\n        /* \"smart_contracts/contracts/BaseERC20.sol\":7516:7531  currentSchedule */\n      dup4\n        /* \"smart_contracts/contracts/BaseERC20.sol\":7516:7540  currentSchedule.released */\n      0x03\n      add\n      sload\n        /* \"smart_contracts/contracts/BaseERC20.sol\":7478:7493  vestingDuration */\n      dup3\n        /* \"smart_contracts/contracts/BaseERC20.sol\":7443:7454  timeElapsed */\n      dup5\n        /* \"smart_contracts/contracts/BaseERC20.sol\":7398:7413  currentSchedule */\n      dup7\n        /* \"smart_contracts/contracts/BaseERC20.sol\":7398:7420  currentSchedule.amount */\n      0x00\n      add\n      sload\n        /* \"smart_contracts/contracts/BaseERC20.sol\":7398:7454  currentSchedule.amount *... */\n      tag_156\n      swap2\n      swap1\n      tag_157\n      jump\t// in\n    tag_156:\n        /* \"smart_contracts/contracts/BaseERC20.sol\":7397:7493  (currentSchedule.amount *... */\n      tag_158\n      swap2\n      swap1\n      tag_159\n      jump\t// in\n    tag_158:\n        /* \"smart_contracts/contracts/BaseERC20.sol\":7397:7540  (currentSchedule.amount *... */\n      tag_160\n      swap2\n      swap1\n      tag_118\n      jump\t// in\n    tag_160:\n        /* \"smart_contracts/contracts/BaseERC20.sol\":7371:7540  uint256 amountToRelease = (currentSchedule.amount *... */\n      swap1\n      pop\n        /* \"smart_contracts/contracts/BaseERC20.sol\":7586:7601  amountToRelease */\n      dup1\n        /* \"smart_contracts/contracts/BaseERC20.sol\":7558:7573  currentSchedule */\n      dup5\n        /* \"smart_contracts/contracts/BaseERC20.sol\":7558:7582  currentSchedule.released */\n      0x03\n      add\n      0x00\n        /* \"smart_contracts/contracts/BaseERC20.sol\":7558:7601  currentSchedule.released += amountToRelease */\n      dup3\n      dup3\n      sload\n      tag_161\n      swap2\n      swap1\n      tag_121\n      jump\t// in\n    tag_161:\n      swap3\n      pop\n      pop\n      dup2\n      swap1\n      sstore\n      pop\n        /* \"smart_contracts/contracts/BaseERC20.sol\":7636:7651  amountToRelease */\n      dup1\n        /* \"smart_contracts/contracts/BaseERC20.sol\":7619:7651  totalReleased += amountToRelease */\n      dup7\n      tag_162\n      swap2\n      swap1\n      tag_121\n      jump\t// in\n    tag_162:\n      swap6\n      pop\n        /* \"smart_contracts/contracts/BaseERC20.sol\":7167:7666  {... */\n      pop\n      pop\n      pop\n        /* \"smart_contracts/contracts/BaseERC20.sol\":6872:7666  if (block.timestamp >= currentSchedule.end) {... */\n    tag_153:\n        /* \"smart_contracts/contracts/BaseERC20.sol\":7703:7704  0 */\n      0x00\n        /* \"smart_contracts/contracts/BaseERC20.sol\":7687:7700  totalReleased */\n      dup4\n        /* \"smart_contracts/contracts/BaseERC20.sol\":7687:7704  totalReleased > 0 */\n      gt\n        /* \"smart_contracts/contracts/BaseERC20.sol\":7679:7729  require(totalReleased > 0, \"No tokens to release\") */\n      tag_163\n      jumpi\n      mload(0x40)\n      0x08c379a000000000000000000000000000000000000000000000000000000000\n      dup2\n      mstore\n      0x04\n      add\n      tag_164\n      swap1\n      tag_165\n      jump\t// in\n    tag_164:\n      mload(0x40)\n      dup1\n      swap2\n      sub\n      swap1\n      revert\n    tag_163:\n        /* \"smart_contracts/contracts/BaseERC20.sol\":7769:7782  totalReleased */\n      dup3\n        /* \"smart_contracts/contracts/BaseERC20.sol\":7743:7753  properties */\n      0x01\n        /* \"smart_contracts/contracts/BaseERC20.sol\":7743:7765  properties.totalVested */\n      0x05\n      add\n      0x00\n        /* \"smart_contracts/contracts/BaseERC20.sol\":7743:7782  properties.totalVested -= totalReleased */\n      dup3\n      dup3\n      sload\n      tag_166\n      swap2\n      swap1\n      tag_118\n      jump\t// in\n    tag_166:\n      swap3\n      pop\n      pop\n      dup2\n      swap1\n      sstore\n      pop\n        /* \"smart_contracts/contracts/BaseERC20.sol\":7828:7841  totalReleased */\n      dup3\n        /* \"smart_contracts/contracts/BaseERC20.sol\":7796:7804  database */\n      0x08\n        /* \"smart_contracts/contracts/BaseERC20.sol\":7796:7812  database.balance */\n      0x00\n      add\n        /* \"smart_contracts/contracts/BaseERC20.sol\":7796:7824  database.balance[msg.sender] */\n      0x00\n        /* \"smart_contracts/contracts/BaseERC20.sol\":7813:7823  msg.sender */\n      caller\n        /* \"smart_contracts/contracts/BaseERC20.sol\":7796:7824  database.balance[msg.sender] */\n      0xffffffffffffffffffffffffffffffffffffffff\n      and\n      0xffffffffffffffffffffffffffffffffffffffff\n      and\n      dup2\n      mstore\n      0x20\n      add\n      swap1\n      dup2\n      mstore\n      0x20\n      add\n      0x00\n      keccak256\n      0x00\n        /* \"smart_contracts/contracts/BaseERC20.sol\":7796:7841  database.balance[msg.sender] += totalReleased */\n      dup3\n      dup3\n      sload\n      tag_167\n      swap2\n      swap1\n      tag_121\n      jump\t// in\n    tag_167:\n      swap3\n      pop\n      pop\n      dup2\n      swap1\n      sstore\n      pop\n        /* \"smart_contracts/contracts/BaseERC20.sol\":7884:7897  totalReleased */\n      dup3\n        /* \"smart_contracts/contracts/BaseERC20.sol\":7855:7863  database */\n      0x08\n        /* \"smart_contracts/contracts/BaseERC20.sol\":7855:7868  database.vote */\n      0x03\n      add\n        /* \"smart_contracts/contracts/BaseERC20.sol\":7855:7880  database.vote[msg.sender] */\n      0x00\n        /* \"smart_contracts/contracts/BaseERC20.sol\":7869:7879  msg.sender */\n      caller\n        /* \"smart_contracts/contracts/BaseERC20.sol\":7855:7880  database.vote[msg.sender] */\n      0xffffffffffffffffffffffffffffffffffffffff\n      and\n      0xffffffffffffffffffffffffffffffffffffffff\n      and\n      dup2\n      mstore\n      0x20\n      add\n      swap1\n      dup2\n      mstore\n      0x20\n      add\n      0x00\n      keccak256\n      0x00\n        /* \"smart_contracts/contracts/BaseERC20.sol\":7855:7897  database.vote[msg.sender] += totalReleased */\n      dup3\n      dup3\n      sload\n      tag_168\n      swap2\n      swap1\n      tag_121\n      jump\t// in\n    tag_168:\n      swap3\n      pop\n      pop\n      dup2\n      swap1\n      sstore\n      pop\n        /* \"smart_contracts/contracts/BaseERC20.sol\":7931:7941  msg.sender */\n      caller\n        /* \"smart_contracts/contracts/BaseERC20.sol\":7916:7957  TokensReleased(msg.sender, totalReleased) */\n      0xffffffffffffffffffffffffffffffffffffffff\n      and\n      0xc7798891864187665ac6dd119286e44ec13f014527aeeb2b8eb3fd413df93179\n        /* \"smart_contracts/contracts/BaseERC20.sol\":7943:7956  totalReleased */\n      dup5\n        /* \"smart_contracts/contracts/BaseERC20.sol\":7916:7957  TokensReleased(msg.sender, totalReleased) */\n      mload(0x40)\n      tag_169\n      swap2\n      swap1\n      tag_37\n      jump\t// in\n    tag_169:\n      mload(0x40)\n      dup1\n      swap2\n      sub\n      swap1\n      log2\n        /* \"smart_contracts/contracts/BaseERC20.sol\":7978:7982  true */\n      0x01\n        /* \"smart_contracts/contracts/BaseERC20.sol\":7971:7982  return true */\n      swap5\n      pop\n      pop\n      pop\n      pop\n      pop\n      jump(tag_142)\n        /* \"smart_contracts/contracts/BaseERC20.sol\":6735:7993  for (uint256 i = 0; i < schedules.length; i++) {... */\n    tag_144:\n      pop\n        /* \"smart_contracts/contracts/BaseERC20.sol\":6614:7999  {... */\n      pop\n      pop\n        /* \"smart_contracts/contracts/BaseERC20.sol\":1727:1728  _ */\n    tag_142:\n        /* \"smart_contracts/contracts/BaseERC20.sol\":1747:1752  false */\n      0x00\n        /* \"smart_contracts/contracts/BaseERC20.sol\":1738:1744  locked */\n      0x13\n      0x00\n        /* \"smart_contracts/contracts/BaseERC20.sol\":1738:1752  locked = false */\n      0x0100\n      exp\n      dup2\n      sload\n      dup2\n      0xff\n      mul\n      not\n      and\n      swap1\n      dup4\n      iszero\n      iszero\n      mul\n      or\n      swap1\n      sstore\n      pop\n        /* \"smart_contracts/contracts/BaseERC20.sol\":6552:7999  function release() external antiReentrancyLock returns (bool) {... */\n      swap1\n      jump\t// out\n        /* \"smart_contracts/contracts/BaseERC20.sol\":8102:8197  function symbol() public view returns (string memory) {... */\n    tag_75:\n        /* \"smart_contracts/contracts/BaseERC20.sol\":8141:8154  string memory */\n      0x60\n        /* \"smart_contracts/contracts/BaseERC20.sol\":8173:8183  properties */\n      0x01\n        /* \"smart_contracts/contracts/BaseERC20.sol\":8173:8190  properties.symbol */\n      dup1\n      add\n        /* \"smart_contracts/contracts/BaseERC20.sol\":8166:8190  return properties.symbol */\n      dup1\n      sload\n      tag_173\n      swap1\n      tag_96\n      jump\t// in\n    tag_173:\n      dup1\n      0x1f\n      add\n      0x20\n      dup1\n      swap2\n      div\n      mul\n      0x20\n      add\n      mload(0x40)\n      swap1\n      dup2\n      add\n      0x40\n      mstore\n      dup1\n      swap3\n      swap2\n      swap1\n      dup2\n      dup2\n      mstore\n      0x20\n      add\n      dup3\n      dup1\n      sload\n      tag_174\n      swap1\n      tag_96\n      jump\t// in\n    tag_174:\n      dup1\n      iszero\n      tag_175\n      jumpi\n      dup1\n      0x1f\n      lt\n      tag_176\n      jumpi\n      0x0100\n      dup1\n      dup4\n      sload\n      div\n      mul\n      dup4\n      mstore\n      swap2\n      0x20\n      add\n      swap2\n      jump(tag_175)\n    tag_176:\n      dup3\n      add\n      swap2\n      swap1\n      0x00\n      mstore\n      keccak256(0x00, 0x20)\n      swap1\n    tag_177:\n      dup2\n      sload\n      dup2\n      mstore\n      swap1\n      0x01\n      add\n      swap1\n      0x20\n      add\n      dup1\n      dup4\n      gt\n      tag_177\n      jumpi\n      dup3\n      swap1\n      sub\n      0x1f\n      and\n      dup3\n      add\n      swap2\n    tag_175:\n      pop\n      pop\n      pop\n      pop\n      pop\n      swap1\n      pop\n        /* \"smart_contracts/contracts/BaseERC20.sol\":8102:8197  function symbol() public view returns (string memory) {... */\n      swap1\n      jump\t// out\n        /* \"smart_contracts/contracts/BaseERC20.sol\":2203:2684  function decreaseAllowance(address spender, uint256 subtractedValue)... */\n    tag_79:\n        /* \"smart_contracts/contracts/BaseERC20.sol\":2322:2326  bool */\n      0x00\n        /* \"smart_contracts/contracts/BaseERC20.sol\":2342:2355  address owner */\n      dup1\n        /* \"smart_contracts/contracts/BaseERC20.sol\":2358:2368  msg.sender */\n      caller\n        /* \"smart_contracts/contracts/BaseERC20.sol\":2342:2368  address owner = msg.sender */\n      swap1\n      pop\n        /* \"smart_contracts/contracts/BaseERC20.sol\":2378:2402  uint256 currentAllowance */\n      0x00\n        /* \"smart_contracts/contracts/BaseERC20.sol\":2405:2430  allowance(owner, spender) */\n      tag_179\n        /* \"smart_contracts/contracts/BaseERC20.sol\":2415:2420  owner */\n      dup3\n        /* \"smart_contracts/contracts/BaseERC20.sol\":2422:2429  spender */\n      dup7\n        /* \"smart_contracts/contracts/BaseERC20.sol\":2405:2414  allowance */\n      tag_88\n        /* \"smart_contracts/contracts/BaseERC20.sol\":2405:2430  allowance(owner, spender) */\n      jump\t// in\n    tag_179:\n        /* \"smart_contracts/contracts/BaseERC20.sol\":2378:2430  uint256 currentAllowance = allowance(owner, spender) */\n      swap1\n      pop\n        /* \"smart_contracts/contracts/BaseERC20.sol\":2481:2496  subtractedValue */\n      dup4\n        /* \"smart_contracts/contracts/BaseERC20.sol\":2461:2477  currentAllowance */\n      dup2\n        /* \"smart_contracts/contracts/BaseERC20.sol\":2461:2496  currentAllowance >= subtractedValue */\n      lt\n      iszero\n        /* \"smart_contracts/contracts/BaseERC20.sol\":2440:2552  require(... */\n      tag_180\n      jumpi\n      mload(0x40)\n      0x08c379a000000000000000000000000000000000000000000000000000000000\n      dup2\n      mstore\n      0x04\n      add\n      tag_181\n      swap1\n      tag_182\n      jump\t// in\n    tag_181:\n      mload(0x40)\n      dup1\n      swap2\n      sub\n      swap1\n      revert\n    tag_180:\n        /* \"smart_contracts/contracts/BaseERC20.sol\":2586:2646  _approve(owner, spender, currentAllowance - subtractedValue) */\n      tag_183\n        /* \"smart_contracts/contracts/BaseERC20.sol\":2595:2600  owner */\n      dup3\n        /* \"smart_contracts/contracts/BaseERC20.sol\":2602:2609  spender */\n      dup7\n        /* \"smart_contracts/contracts/BaseERC20.sol\":2630:2645  subtractedValue */\n      dup7\n        /* \"smart_contracts/contracts/BaseERC20.sol\":2611:2627  currentAllowance */\n      dup5\n        /* \"smart_contracts/contracts/BaseERC20.sol\":2611:2645  currentAllowance - subtractedValue */\n      sub\n        /* \"smart_contracts/contracts/BaseERC20.sol\":2586:2594  _approve */\n      tag_103\n        /* \"smart_contracts/contracts/BaseERC20.sol\":2586:2646  _approve(owner, spender, currentAllowance - subtractedValue) */\n      jump\t// in\n    tag_183:\n        /* \"smart_contracts/contracts/BaseERC20.sol\":2673:2677  true */\n      0x01\n        /* \"smart_contracts/contracts/BaseERC20.sol\":2666:2677  return true */\n      swap3\n      pop\n      pop\n      pop\n        /* \"smart_contracts/contracts/BaseERC20.sol\":2203:2684  function decreaseAllowance(address spender, uint256 subtractedValue)... */\n      swap3\n      swap2\n      pop\n      pop\n      jump\t// out\n        /* \"smart_contracts/contracts/BaseERC20.sol\":3471:3943  function transfer(address recipient, uint256 amount)... */\n    tag_83:\n        /* \"smart_contracts/contracts/BaseERC20.sol\":3585:3589  bool */\n      0x00\n        /* \"smart_contracts/contracts/BaseERC20.sol\":1659:1665  locked */\n      0x13\n      0x00\n      swap1\n      sload\n      swap1\n      0x0100\n      exp\n      swap1\n      div\n      0xff\n      and\n        /* \"smart_contracts/contracts/BaseERC20.sol\":1658:1665  !locked */\n      iszero\n        /* \"smart_contracts/contracts/BaseERC20.sol\":1650:1694  require(!locked, \"Anti-reentrancy in place\") */\n      tag_185\n      jumpi\n      mload(0x40)\n      0x08c379a000000000000000000000000000000000000000000000000000000000\n      dup2\n      mstore\n      0x04\n      add\n      tag_186\n      swap1\n      tag_109\n      jump\t// in\n    tag_186:\n      mload(0x40)\n      dup1\n      swap2\n      sub\n      swap1\n      revert\n    tag_185:\n        /* \"smart_contracts/contracts/BaseERC20.sol\":1713:1717  true */\n      0x01\n        /* \"smart_contracts/contracts/BaseERC20.sol\":1704:1710  locked */\n      0x13\n      0x00\n        /* \"smart_contracts/contracts/BaseERC20.sol\":1704:1717  locked = true */\n      0x0100\n      exp\n      dup2\n      sload\n      dup2\n      0xff\n      mul\n      not\n      and\n      swap1\n      dup4\n      iszero\n      iszero\n      mul\n      or\n      swap1\n      sstore\n      pop\n        /* \"smart_contracts/contracts/BaseERC20.sol\":3645:3651  amount */\n      dup2\n        /* \"smart_contracts/contracts/BaseERC20.sol\":3613:3621  database */\n      0x08\n        /* \"smart_contracts/contracts/BaseERC20.sol\":3613:3629  database.balance */\n      0x00\n      add\n        /* \"smart_contracts/contracts/BaseERC20.sol\":3613:3641  database.balance[msg.sender] */\n      0x00\n        /* \"smart_contracts/contracts/BaseERC20.sol\":3630:3640  msg.sender */\n      caller\n        /* \"smart_contracts/contracts/BaseERC20.sol\":3613:3641  database.balance[msg.sender] */\n      0xffffffffffffffffffffffffffffffffffffffff\n      and\n      0xffffffffffffffffffffffffffffffffffffffff\n      and\n      dup2\n      mstore\n      0x20\n      add\n      swap1\n      dup2\n      mstore\n      0x20\n      add\n      0x00\n      keccak256\n      sload\n        /* \"smart_contracts/contracts/BaseERC20.sol\":3613:3651  database.balance[msg.sender] >= amount */\n      lt\n      iszero\n        /* \"smart_contracts/contracts/BaseERC20.sol\":3605:3676  require(database.balance[msg.sender] >= amount, \"Insufficient balance\") */\n      tag_188\n      jumpi\n      mload(0x40)\n      0x08c379a000000000000000000000000000000000000000000000000000000000\n      dup2\n      mstore\n      0x04\n      add\n      tag_189\n      swap1\n      tag_113\n      jump\t// in\n    tag_189:\n      mload(0x40)\n      dup1\n      swap2\n      sub\n      swap1\n      revert\n    tag_188:\n        /* \"smart_contracts/contracts/BaseERC20.sol\":3718:3724  amount */\n      dup2\n        /* \"smart_contracts/contracts/BaseERC20.sol\":3686:3694  database */\n      0x08\n        /* \"smart_contracts/contracts/BaseERC20.sol\":3686:3702  database.balance */\n      0x00\n      add\n        /* \"smart_contracts/contracts/BaseERC20.sol\":3686:3714  database.balance[msg.sender] */\n      0x00\n        /* \"smart_contracts/contracts/BaseERC20.sol\":3703:3713  msg.sender */\n      caller\n        /* \"smart_contracts/contracts/BaseERC20.sol\":3686:3714  database.balance[msg.sender] */\n      0xffffffffffffffffffffffffffffffffffffffff\n      and\n      0xffffffffffffffffffffffffffffffffffffffff\n      and\n      dup2\n      mstore\n      0x20\n      add\n      swap1\n      dup2\n      mstore\n      0x20\n      add\n      0x00\n      keccak256\n      0x00\n        /* \"smart_contracts/contracts/BaseERC20.sol\":3686:3724  database.balance[msg.sender] -= amount */\n      dup3\n      dup3\n      sload\n      tag_190\n      swap2\n      swap1\n      tag_118\n      jump\t// in\n    tag_190:\n      swap3\n      pop\n      pop\n      dup2\n      swap1\n      sstore\n      pop\n        /* \"smart_contracts/contracts/BaseERC20.sol\":3763:3769  amount */\n      dup2\n        /* \"smart_contracts/contracts/BaseERC20.sol\":3734:3742  database */\n      0x08\n        /* \"smart_contracts/contracts/BaseERC20.sol\":3734:3747  database.vote */\n      0x03\n      add\n        /* \"smart_contracts/contracts/BaseERC20.sol\":3734:3759  database.vote[msg.sender] */\n      0x00\n        /* \"smart_contracts/contracts/BaseERC20.sol\":3748:3758  msg.sender */\n      caller\n        /* \"smart_contracts/contracts/BaseERC20.sol\":3734:3759  database.vote[msg.sender] */\n      0xffffffffffffffffffffffffffffffffffffffff\n      and\n      0xffffffffffffffffffffffffffffffffffffffff\n      and\n      dup2\n      mstore\n      0x20\n      add\n      swap1\n      dup2\n      mstore\n      0x20\n      add\n      0x00\n      keccak256\n      0x00\n        /* \"smart_contracts/contracts/BaseERC20.sol\":3734:3769  database.vote[msg.sender] -= amount */\n      dup3\n      dup3\n      sload\n      tag_191\n      swap2\n      swap1\n      tag_118\n      jump\t// in\n    tag_191:\n      swap3\n      pop\n      pop\n      dup2\n      swap1\n      sstore\n      pop\n        /* \"smart_contracts/contracts/BaseERC20.sol\":3810:3816  amount */\n      dup2\n        /* \"smart_contracts/contracts/BaseERC20.sol\":3779:3787  database */\n      0x08\n        /* \"smart_contracts/contracts/BaseERC20.sol\":3779:3795  database.balance */\n      0x00\n      add\n        /* \"smart_contracts/contracts/BaseERC20.sol\":3779:3806  database.balance[recipient] */\n      0x00\n        /* \"smart_contracts/contracts/BaseERC20.sol\":3796:3805  recipient */\n      dup6\n        /* \"smart_contracts/contracts/BaseERC20.sol\":3779:3806  database.balance[recipient] */\n      0xffffffffffffffffffffffffffffffffffffffff\n      and\n      0xffffffffffffffffffffffffffffffffffffffff\n      and\n      dup2\n      mstore\n      0x20\n      add\n      swap1\n      dup2\n      mstore\n      0x20\n      add\n      0x00\n      keccak256\n      0x00\n        /* \"smart_contracts/contracts/BaseERC20.sol\":3779:3816  database.balance[recipient] += amount */\n      dup3\n      dup3\n      sload\n      tag_192\n      swap2\n      swap1\n      tag_121\n      jump\t// in\n    tag_192:\n      swap3\n      pop\n      pop\n      dup2\n      swap1\n      sstore\n      pop\n        /* \"smart_contracts/contracts/BaseERC20.sol\":3855:3861  amount */\n      dup2\n        /* \"smart_contracts/contracts/BaseERC20.sol\":3826:3834  database */\n      0x08\n        /* \"smart_contracts/contracts/BaseERC20.sol\":3826:3839  database.vote */\n      0x03\n      add\n        /* \"smart_contracts/contracts/BaseERC20.sol\":3826:3851  database.vote[msg.sender] */\n      0x00\n        /* \"smart_contracts/contracts/BaseERC20.sol\":3840:3850  msg.sender */\n      caller\n        /* \"smart_contracts/contracts/BaseERC20.sol\":3826:3851  database.vote[msg.sender] */\n      0xffffffffffffffffffffffffffffffffffffffff\n      and\n      0xffffffffffffffffffffffffffffffffffffffff\n      and\n      dup2\n      mstore\n      0x20\n      add\n      swap1\n      dup2\n      mstore\n      0x20\n      add\n      0x00\n      keccak256\n      0x00\n        /* \"smart_contracts/contracts/BaseERC20.sol\":3826:3861  database.vote[msg.sender] += amount */\n      dup3\n      dup3\n      sload\n      tag_193\n      swap2\n      swap1\n      tag_121\n      jump\t// in\n    tag_193:\n      swap3\n      pop\n      pop\n      dup2\n      swap1\n      sstore\n      pop\n        /* \"smart_contracts/contracts/BaseERC20.sol\":3897:3906  recipient */\n      dup3\n        /* \"smart_contracts/contracts/BaseERC20.sol\":3876:3915  Transfer(msg.sender, recipient, amount) */\n      0xffffffffffffffffffffffffffffffffffffffff\n      and\n        /* \"smart_contracts/contracts/BaseERC20.sol\":3885:3895  msg.sender */\n      caller\n        /* \"smart_contracts/contracts/BaseERC20.sol\":3876:3915  Transfer(msg.sender, recipient, amount) */\n      0xffffffffffffffffffffffffffffffffffffffff\n      and\n      0xddf252ad1be2c89b69c2b068fc378daa952ba7f163c4a11628f55a4df523b3ef\n        /* \"smart_contracts/contracts/BaseERC20.sol\":3908:3914  amount */\n      dup5\n        /* \"smart_contracts/contracts/BaseERC20.sol\":3876:3915  Transfer(msg.sender, recipient, amount) */\n      mload(0x40)\n      tag_194\n      swap2\n      swap1\n      tag_37\n      jump\t// in\n    tag_194:\n      mload(0x40)\n      dup1\n      swap2\n      sub\n      swap1\n      log3\n        /* \"smart_contracts/contracts/BaseERC20.sol\":3932:3936  true */\n      0x01\n        /* \"smart_contracts/contracts/BaseERC20.sol\":3925:3936  return true */\n      swap1\n      pop\n        /* \"smart_contracts/contracts/BaseERC20.sol\":1747:1752  false */\n      0x00\n        /* \"smart_contracts/contracts/BaseERC20.sol\":1738:1744  locked */\n      0x13\n      0x00\n        /* \"smart_contracts/contracts/BaseERC20.sol\":1738:1752  locked = false */\n      0x0100\n      exp\n      dup2\n      sload\n      dup2\n      0xff\n      mul\n      not\n      and\n      swap1\n      dup4\n      iszero\n      iszero\n      mul\n      or\n      swap1\n      sstore\n      pop\n        /* \"smart_contracts/contracts/BaseERC20.sol\":3471:3943  function transfer(address recipient, uint256 amount)... */\n      swap3\n      swap2\n      pop\n      pop\n      jump\t// out\n        /* \"smart_contracts/contracts/BaseERC20.sol\":9063:9219  function allowance(address owner, address spender)... */\n    tag_88:\n        /* \"smart_contracts/contracts/BaseERC20.sol\":9159:9166  uint256 */\n      0x00\n        /* \"smart_contracts/contracts/BaseERC20.sol\":9189:9196  allowed */\n      0x11\n        /* \"smart_contracts/contracts/BaseERC20.sol\":9189:9203  allowed[owner] */\n      0x00\n        /* \"smart_contracts/contracts/BaseERC20.sol\":9197:9202  owner */\n      dup5\n        /* \"smart_contracts/contracts/BaseERC20.sol\":9189:9203  allowed[owner] */\n      0xffffffffffffffffffffffffffffffffffffffff\n      and\n      0xffffffffffffffffffffffffffffffffffffffff\n      and\n      dup2\n      mstore\n      0x20\n      add\n      swap1\n      dup2\n      mstore\n      0x20\n      add\n      0x00\n      keccak256\n        /* \"smart_contracts/contracts/BaseERC20.sol\":9189:9212  allowed[owner][spender] */\n      0x00\n        /* \"smart_contracts/contracts/BaseERC20.sol\":9204:9211  spender */\n      dup4\n        /* \"smart_contracts/contracts/BaseERC20.sol\":9189:9212  allowed[owner][spender] */\n      0xffffffffffffffffffffffffffffffffffffffff\n      and\n      0xffffffffffffffffffffffffffffffffffffffff\n      and\n      dup2\n      mstore\n      0x20\n      add\n      swap1\n      dup2\n      mstore\n      0x20\n      add\n      0x00\n      keccak256\n      sload\n        /* \"smart_contracts/contracts/BaseERC20.sol\":9182:9212  return allowed[owner][spender] */\n      swap1\n      pop\n        /* \"smart_contracts/contracts/BaseERC20.sol\":9063:9219  function allowance(address owner, address spender)... */\n      swap3\n      swap2\n      pop\n      pop\n      jump\t// out\n        /* \"smart_contracts/contracts/BaseERC20.sol\":8840:8945  function stakedFor(address account) public view returns (uint256) {... */\n    tag_92:\n        /* \"smart_contracts/contracts/BaseERC20.sol\":8897:8904  uint256 */\n      0x00\n        /* \"smart_contracts/contracts/BaseERC20.sol\":8923:8929  staked */\n      0x0f\n        /* \"smart_contracts/contracts/BaseERC20.sol\":8923:8938  staked[account] */\n      0x00\n        /* \"smart_contracts/contracts/BaseERC20.sol\":8930:8937  account */\n      dup4\n        /* \"smart_contracts/contracts/BaseERC20.sol\":8923:8938  staked[account] */\n      0xffffffffffffffffffffffffffffffffffffffff\n      and\n      0xffffffffffffffffffffffffffffffffffffffff\n      and\n      dup2\n      mstore\n      0x20\n      add\n      swap1\n      dup2\n      mstore\n      0x20\n      add\n      0x00\n      keccak256\n      sload\n        /* \"smart_contracts/contracts/BaseERC20.sol\":8916:8938  return staked[account] */\n      swap1\n      pop\n        /* \"smart_contracts/contracts/BaseERC20.sol\":8840:8945  function stakedFor(address account) public view returns (uint256) {... */\n      swap2\n      swap1\n      pop\n      jump\t// out\n        /* \"smart_contracts/contracts/BaseERC20.sol\":2690:3034  function _approve(... */\n    tag_103:\n        /* \"smart_contracts/contracts/BaseERC20.sol\":2829:2830  0 */\n      0x00\n        /* \"smart_contracts/contracts/BaseERC20.sol\":2812:2831  owner != address(0) */\n      0xffffffffffffffffffffffffffffffffffffffff\n      and\n        /* \"smart_contracts/contracts/BaseERC20.sol\":2812:2817  owner */\n      dup4\n        /* \"smart_contracts/contracts/BaseERC20.sol\":2812:2831  owner != address(0) */\n      0xffffffffffffffffffffffffffffffffffffffff\n      and\n      sub\n        /* \"smart_contracts/contracts/BaseERC20.sol\":2804:2865  require(owner != address(0), \"Approve from the zero address\") */\n      tag_198\n      jumpi\n      mload(0x40)\n      0x08c379a000000000000000000000000000000000000000000000000000000000\n      dup2\n      mstore\n      0x04\n      add\n      tag_199\n      swap1\n      tag_200\n      jump\t// in\n    tag_199:\n      mload(0x40)\n      dup1\n      swap2\n      sub\n      swap1\n      revert\n    tag_198:\n        /* \"smart_contracts/contracts/BaseERC20.sol\":2902:2903  0 */\n      0x00\n        /* \"smart_contracts/contracts/BaseERC20.sol\":2883:2904  spender != address(0) */\n      0xffffffffffffffffffffffffffffffffffffffff\n      and\n        /* \"smart_contracts/contracts/BaseERC20.sol\":2883:2890  spender */\n      dup3\n        /* \"smart_contracts/contracts/BaseERC20.sol\":2883:2904  spender != address(0) */\n      0xffffffffffffffffffffffffffffffffffffffff\n      and\n      sub\n        /* \"smart_contracts/contracts/BaseERC20.sol\":2875:2938  require(spender != address(0), \"Approve from the zero address\") */\n      tag_201\n      jumpi\n      mload(0x40)\n      0x08c379a000000000000000000000000000000000000000000000000000000000\n      dup2\n      mstore\n      0x04\n      add\n      tag_202\n      swap1\n      tag_200\n      jump\t// in\n    tag_202:\n      mload(0x40)\n      dup1\n      swap2\n      sub\n      swap1\n      revert\n    tag_201:\n        /* \"smart_contracts/contracts/BaseERC20.sol\":2974:2980  amount */\n      dup1\n        /* \"smart_contracts/contracts/BaseERC20.sol\":2948:2955  allowed */\n      0x11\n        /* \"smart_contracts/contracts/BaseERC20.sol\":2948:2962  allowed[owner] */\n      0x00\n        /* \"smart_contracts/contracts/BaseERC20.sol\":2956:2961  owner */\n      dup6\n        /* \"smart_contracts/contracts/BaseERC20.sol\":2948:2962  allowed[owner] */\n      0xffffffffffffffffffffffffffffffffffffffff\n      and\n      0xffffffffffffffffffffffffffffffffffffffff\n      and\n      dup2\n      mstore\n      0x20\n      add\n      swap1\n      dup2\n      mstore\n      0x20\n      add\n      0x00\n      keccak256\n        /* \"smart_contracts/contracts/BaseERC20.sol\":2948:2971  allowed[owner][spender] */\n      0x00\n        /* \"smart_contracts/contracts/BaseERC20.sol\":2963:2970  spender */\n      dup5\n        /* \"smart_contracts/contracts/BaseERC20.sol\":2948:2971  allowed[owner][spender] */\n      0xffffffffffffffffffffffffffffffffffffffff\n      and\n      0xffffffffffffffffffffffffffffffffffffffff\n      and\n      dup2\n      mstore\n      0x20\n      add\n      swap1\n      dup2\n      mstore\n      0x20\n      add\n      0x00\n      keccak256\n        /* \"smart_contracts/contracts/BaseERC20.sol\":2948:2980  allowed[owner][spender] = amount */\n      dup2\n      swap1\n      sstore\n      pop\n        /* \"smart_contracts/contracts/BaseERC20.sol\":3011:3018  spender */\n      dup2\n        /* \"smart_contracts/contracts/BaseERC20.sol\":2995:3027  Approval(owner, spender, amount) */\n      0xffffffffffffffffffffffffffffffffffffffff\n      and\n        /* \"smart_contracts/contracts/BaseERC20.sol\":3004:3009  owner */\n      dup4\n        /* \"smart_contracts/contracts/BaseERC20.sol\":2995:3027  Approval(owner, spender, amount) */\n      0xffffffffffffffffffffffffffffffffffffffff\n      and\n      0x8c5be1e5ebec7d5bd14f71427d1e84f3dd0314c0f7b2291e5b200ac8c7c3b925\n        /* \"smart_contracts/contracts/BaseERC20.sol\":3020:3026  amount */\n      dup4\n        /* \"smart_contracts/contracts/BaseERC20.sol\":2995:3027  Approval(owner, spender, amount) */\n      mload(0x40)\n      tag_203\n      swap2\n      swap1\n      tag_37\n      jump\t// in\n    tag_203:\n      mload(0x40)\n      dup1\n      swap2\n      sub\n      swap1\n      log3\n        /* \"smart_contracts/contracts/BaseERC20.sol\":2690:3034  function _approve(... */\n      pop\n      pop\n      pop\n      jump\t// out\n        /* \"#utility.yul\":7:106   */\n    tag_204:\n        /* \"#utility.yul\":59:65   */\n      0x00\n        /* \"#utility.yul\":93:98   */\n      dup2\n        /* \"#utility.yul\":87:99   */\n      mload\n        /* \"#utility.yul\":77:99   */\n      swap1\n      pop\n        /* \"#utility.yul\":7:106   */\n      swap2\n      swap1\n      pop\n      jump\t// out\n        /* \"#utility.yul\":112:281   */\n    tag_205:\n        /* \"#utility.yul\":196:207   */\n      0x00\n        /* \"#utility.yul\":230:236   */\n      dup3\n        /* \"#utility.yul\":225:228   */\n      dup3\n        /* \"#utility.yul\":218:237   */\n      mstore\n        /* \"#utility.yul\":270:274   */\n      0x20\n        /* \"#utility.yul\":265:268   */\n      dup3\n        /* \"#utility.yul\":261:275   */\n      add\n        /* \"#utility.yul\":246:275   */\n      swap1\n      pop\n        /* \"#utility.yul\":112:281   */\n      swap3\n      swap2\n      pop\n      pop\n      jump\t// out\n        /* \"#utility.yul\":287:533   */\n    tag_206:\n        /* \"#utility.yul\":368:369   */\n      0x00\n        /* \"#utility.yul\":378:491   */\n    tag_243:\n        /* \"#utility.yul\":392:398   */\n      dup4\n        /* \"#utility.yul\":389:390   */\n      dup2\n        /* \"#utility.yul\":386:399   */\n      lt\n        /* \"#utility.yul\":378:491   */\n      iszero\n      tag_245\n      jumpi\n        /* \"#utility.yul\":477:478   */\n      dup1\n        /* \"#utility.yul\":472:475   */\n      dup3\n        /* \"#utility.yul\":468:479   */\n      add\n        /* \"#utility.yul\":462:480   */\n      mload\n        /* \"#utility.yul\":458:459   */\n      dup2\n        /* \"#utility.yul\":453:456   */\n      dup5\n        /* \"#utility.yul\":449:460   */\n      add\n        /* \"#utility.yul\":442:481   */\n      mstore\n        /* \"#utility.yul\":414:416   */\n      0x20\n        /* \"#utility.yul\":411:412   */\n      dup2\n        /* \"#utility.yul\":407:417   */\n      add\n        /* \"#utility.yul\":402:417   */\n      swap1\n      pop\n        /* \"#utility.yul\":378:491   */\n      jump(tag_243)\n    tag_245:\n        /* \"#utility.yul\":525:526   */\n      0x00\n        /* \"#utility.yul\":516:522   */\n      dup5\n        /* \"#utility.yul\":511:514   */\n      dup5\n        /* \"#utility.yul\":507:523   */\n      add\n        /* \"#utility.yul\":500:527   */\n      mstore\n        /* \"#utility.yul\":349:533   */\n      pop\n        /* \"#utility.yul\":287:533   */\n      pop\n      pop\n      pop\n      jump\t// out\n        /* \"#utility.yul\":539:641   */\n    tag_207:\n        /* \"#utility.yul\":580:586   */\n      0x00\n        /* \"#utility.yul\":631:633   */\n      0x1f\n        /* \"#utility.yul\":627:634   */\n      not\n        /* \"#utility.yul\":622:624   */\n      0x1f\n        /* \"#utility.yul\":615:620   */\n      dup4\n        /* \"#utility.yul\":611:625   */\n      add\n        /* \"#utility.yul\":607:635   */\n      and\n        /* \"#utility.yul\":597:635   */\n      swap1\n      pop\n        /* \"#utility.yul\":539:641   */\n      swap2\n      swap1\n      pop\n      jump\t// out\n        /* \"#utility.yul\":647:1024   */\n    tag_208:\n        /* \"#utility.yul\":735:738   */\n      0x00\n        /* \"#utility.yul\":763:802   */\n      tag_248\n        /* \"#utility.yul\":796:801   */\n      dup3\n        /* \"#utility.yul\":763:802   */\n      tag_204\n      jump\t// in\n    tag_248:\n        /* \"#utility.yul\":818:889   */\n      tag_249\n        /* \"#utility.yul\":882:888   */\n      dup2\n        /* \"#utility.yul\":877:880   */\n      dup6\n        /* \"#utility.yul\":818:889   */\n      tag_205\n      jump\t// in\n    tag_249:\n        /* \"#utility.yul\":811:889   */\n      swap4\n      pop\n        /* \"#utility.yul\":898:963   */\n      tag_250\n        /* \"#utility.yul\":956:962   */\n      dup2\n        /* \"#utility.yul\":951:954   */\n      dup6\n        /* \"#utility.yul\":944:948   */\n      0x20\n        /* \"#utility.yul\":937:942   */\n      dup7\n        /* \"#utility.yul\":933:949   */\n      add\n        /* \"#utility.yul\":898:963   */\n      tag_206\n      jump\t// in\n    tag_250:\n        /* \"#utility.yul\":988:1017   */\n      tag_251\n        /* \"#utility.yul\":1010:1016   */\n      dup2\n        /* \"#utility.yul\":988:1017   */\n      tag_207\n      jump\t// in\n    tag_251:\n        /* \"#utility.yul\":983:986   */\n      dup5\n        /* \"#utility.yul\":979:1018   */\n      add\n        /* \"#utility.yul\":972:1018   */\n      swap2\n      pop\n        /* \"#utility.yul\":739:1024   */\n      pop\n        /* \"#utility.yul\":647:1024   */\n      swap3\n      swap2\n      pop\n      pop\n      jump\t// out\n        /* \"#utility.yul\":1030:1343   */\n    tag_27:\n        /* \"#utility.yul\":1143:1147   */\n      0x00\n        /* \"#utility.yul\":1181:1183   */\n      0x20\n        /* \"#utility.yul\":1170:1179   */\n      dup3\n        /* \"#utility.yul\":1166:1184   */\n      add\n        /* \"#utility.yul\":1158:1184   */\n      swap1\n      pop\n        /* \"#utility.yul\":1230:1239   */\n      dup2\n        /* \"#utility.yul\":1224:1228   */\n      dup2\n        /* \"#utility.yul\":1220:1240   */\n      sub\n        /* \"#utility.yul\":1216:1217   */\n      0x00\n        /* \"#utility.yul\":1205:1214   */\n      dup4\n        /* \"#utility.yul\":1201:1218   */\n      add\n        /* \"#utility.yul\":1194:1241   */\n      mstore\n        /* \"#utility.yul\":1258:1336   */\n      tag_253\n        /* \"#utility.yul\":1331:1335   */\n      dup2\n        /* \"#utility.yul\":1322:1328   */\n      dup5\n        /* \"#utility.yul\":1258:1336   */\n      tag_208\n      jump\t// in\n    tag_253:\n        /* \"#utility.yul\":1250:1336   */\n      swap1\n      pop\n        /* \"#utility.yul\":1030:1343   */\n      swap3\n      swap2\n      pop\n      pop\n      jump\t// out\n        /* \"#utility.yul\":1430:1547   */\n    tag_210:\n        /* \"#utility.yul\":1539:1540   */\n      0x00\n        /* \"#utility.yul\":1536:1537   */\n      dup1\n        /* \"#utility.yul\":1529:1541   */\n      revert\n        /* \"#utility.yul\":1676:1802   */\n    tag_212:\n        /* \"#utility.yul\":1713:1720   */\n      0x00\n        /* \"#utility.yul\":1753:1795   */\n      0xffffffffffffffffffffffffffffffffffffffff\n        /* \"#utility.yul\":1746:1751   */\n      dup3\n        /* \"#utility.yul\":1742:1796   */\n      and\n        /* \"#utility.yul\":1731:1796   */\n      swap1\n      pop\n        /* \"#utility.yul\":1676:1802   */\n      swap2\n      swap1\n      pop\n      jump\t// out\n        /* \"#utility.yul\":1808:1904   */\n    tag_213:\n        /* \"#utility.yul\":1845:1852   */\n      0x00\n        /* \"#utility.yul\":1874:1898   */\n      tag_259\n        /* \"#utility.yul\":1892:1897   */\n      dup3\n        /* \"#utility.yul\":1874:1898   */\n      tag_212\n      jump\t// in\n    tag_259:\n        /* \"#utility.yul\":1863:1898   */\n      swap1\n      pop\n        /* \"#utility.yul\":1808:1904   */\n      swap2\n      swap1\n      pop\n      jump\t// out\n        /* \"#utility.yul\":1910:2032   */\n    tag_214:\n        /* \"#utility.yul\":1983:2007   */\n      tag_261\n        /* \"#utility.yul\":2001:2006   */\n      dup2\n        /* \"#utility.yul\":1983:2007   */\n      tag_213\n      jump\t// in\n    tag_261:\n        /* \"#utility.yul\":1976:1981   */\n      dup2\n        /* \"#utility.yul\":1973:2008   */\n      eq\n        /* \"#utility.yul\":1963:2026   */\n      tag_262\n      jumpi\n        /* \"#utility.yul\":2022:2023   */\n      0x00\n        /* \"#utility.yul\":2019:2020   */\n      dup1\n        /* \"#utility.yul\":2012:2024   */\n      revert\n        /* \"#utility.yul\":1963:2026   */\n    tag_262:\n        /* \"#utility.yul\":1910:2032   */\n      pop\n      jump\t// out\n        /* \"#utility.yul\":2038:2177   */\n    tag_215:\n        /* \"#utility.yul\":2084:2089   */\n      0x00\n        /* \"#utility.yul\":2122:2128   */\n      dup2\n        /* \"#utility.yul\":2109:2129   */\n      calldataload\n        /* \"#utility.yul\":2100:2129   */\n      swap1\n      pop\n        /* \"#utility.yul\":2138:2171   */\n      tag_264\n        /* \"#utility.yul\":2165:2170   */\n      dup2\n        /* \"#utility.yul\":2138:2171   */\n      tag_214\n      jump\t// in\n    tag_264:\n        /* \"#utility.yul\":2038:2177   */\n      swap3\n      swap2\n      pop\n      pop\n      jump\t// out\n        /* \"#utility.yul\":2183:2260   */\n    tag_216:\n        /* \"#utility.yul\":2220:2227   */\n      0x00\n        /* \"#utility.yul\":2249:2254   */\n      dup2\n        /* \"#utility.yul\":2238:2254   */\n      swap1\n      pop\n        /* \"#utility.yul\":2183:2260   */\n      swap2\n      swap1\n      pop\n      jump\t// out\n        /* \"#utility.yul\":2266:2388   */\n    tag_217:\n        /* \"#utility.yul\":2339:2363   */\n      tag_267\n        /* \"#utility.yul\":2357:2362   */\n      dup2\n        /* \"#utility.yul\":2339:2363   */\n      tag_216\n      jump\t// in\n    tag_267:\n        /* \"#utility.yul\":2332:2337   */\n      dup2\n        /* \"#utility.yul\":2329:2364   */\n      eq\n        /* \"#utility.yul\":2319:2382   */\n      tag_268\n      jumpi\n        /* \"#utility.yul\":2378:2379   */\n      0x00\n        /* \"#utility.yul\":2375:2376   */\n      dup1\n        /* \"#utility.yul\":2368:2380   */\n      revert\n        /* \"#utility.yul\":2319:2382   */\n    tag_268:\n        /* \"#utility.yul\":2266:2388   */\n      pop\n      jump\t// out\n        /* \"#utility.yul\":2394:2533   */\n    tag_218:\n        /* \"#utility.yul\":2440:2445   */\n      0x00\n        /* \"#utility.yul\":2478:2484   */\n      dup2\n        /* \"#utility.yul\":2465:2485   */\n      calldataload\n        /* \"#utility.yul\":2456:2485   */\n      swap1\n      pop\n        /* \"#utility.yul\":2494:2527   */\n      tag_270\n        /* \"#utility.yul\":2521:2526   */\n      dup2\n        /* \"#utility.yul\":2494:2527   */\n      tag_217\n      jump\t// in\n    tag_270:\n        /* \"#utility.yul\":2394:2533   */\n      swap3\n      swap2\n      pop\n      pop\n      jump\t// out\n        /* \"#utility.yul\":2539:3013   */\n    tag_30:\n        /* \"#utility.yul\":2607:2613   */\n      0x00\n        /* \"#utility.yul\":2615:2621   */\n      dup1\n        /* \"#utility.yul\":2664:2666   */\n      0x40\n        /* \"#utility.yul\":2652:2661   */\n      dup4\n        /* \"#utility.yul\":2643:2650   */\n      dup6\n        /* \"#utility.yul\":2639:2662   */\n      sub\n        /* \"#utility.yul\":2635:2667   */\n      slt\n        /* \"#utility.yul\":2632:2751   */\n      iszero\n      tag_272\n      jumpi\n        /* \"#utility.yul\":2670:2749   */\n      tag_273\n      tag_210\n      jump\t// in\n    tag_273:\n        /* \"#utility.yul\":2632:2751   */\n    tag_272:\n        /* \"#utility.yul\":2790:2791   */\n      0x00\n        /* \"#utility.yul\":2815:2868   */\n      tag_274\n        /* \"#utility.yul\":2860:2867   */\n      dup6\n        /* \"#utility.yul\":2851:2857   */\n      dup3\n        /* \"#utility.yul\":2840:2849   */\n      dup7\n        /* \"#utility.yul\":2836:2858   */\n      add\n        /* \"#utility.yul\":2815:2868   */\n      tag_215\n      jump\t// in\n    tag_274:\n        /* \"#utility.yul\":2805:2868   */\n      swap3\n      pop\n        /* \"#utility.yul\":2761:2878   */\n      pop\n        /* \"#utility.yul\":2917:2919   */\n      0x20\n        /* \"#utility.yul\":2943:2996   */\n      tag_275\n        /* \"#utility.yul\":2988:2995   */\n      dup6\n        /* \"#utility.yul\":2979:2985   */\n      dup3\n        /* \"#utility.yul\":2968:2977   */\n      dup7\n        /* \"#utility.yul\":2964:2986   */\n      add\n        /* \"#utility.yul\":2943:2996   */\n      tag_218\n      jump\t// in\n    tag_275:\n        /* \"#utility.yul\":2933:2996   */\n      swap2\n      pop\n        /* \"#utility.yul\":2888:3006   */\n      pop\n        /* \"#utility.yul\":2539:3013   */\n      swap3\n      pop\n      swap3\n      swap1\n      pop\n      jump\t// out\n        /* \"#utility.yul\":3019:3109   */\n    tag_219:\n        /* \"#utility.yul\":3053:3060   */\n      0x00\n        /* \"#utility.yul\":3096:3101   */\n      dup2\n        /* \"#utility.yul\":3089:3102   */\n      iszero\n        /* \"#utility.yul\":3082:3103   */\n      iszero\n        /* \"#utility.yul\":3071:3103   */\n      swap1\n      pop\n        /* \"#utility.yul\":3019:3109   */\n      swap2\n      swap1\n      pop\n      jump\t// out\n        /* \"#utility.yul\":3115:3224   */\n    tag_220:\n        /* \"#utility.yul\":3196:3217   */\n      tag_278\n        /* \"#utility.yul\":3211:3216   */\n      dup2\n        /* \"#utility.yul\":3196:3217   */\n      tag_219\n      jump\t// in\n    tag_278:\n        /* \"#utility.yul\":3191:3194   */\n      dup3\n        /* \"#utility.yul\":3184:3218   */\n      mstore\n        /* \"#utility.yul\":3115:3224   */\n      pop\n      pop\n      jump\t// out\n        /* \"#utility.yul\":3230:3440   */\n    tag_33:\n        /* \"#utility.yul\":3317:3321   */\n      0x00\n        /* \"#utility.yul\":3355:3357   */\n      0x20\n        /* \"#utility.yul\":3344:3353   */\n      dup3\n        /* \"#utility.yul\":3340:3358   */\n      add\n        /* \"#utility.yul\":3332:3358   */\n      swap1\n      pop\n        /* \"#utility.yul\":3368:3433   */\n      tag_280\n        /* \"#utility.yul\":3430:3431   */\n      0x00\n        /* \"#utility.yul\":3419:3428   */\n      dup4\n        /* \"#utility.yul\":3415:3432   */\n      add\n        /* \"#utility.yul\":3406:3412   */\n      dup5\n        /* \"#utility.yul\":3368:3433   */\n      tag_220\n      jump\t// in\n    tag_280:\n        /* \"#utility.yul\":3230:3440   */\n      swap3\n      swap2\n      pop\n      pop\n      jump\t// out\n        /* \"#utility.yul\":3446:3564   */\n    tag_221:\n        /* \"#utility.yul\":3533:3557   */\n      tag_282\n        /* \"#utility.yul\":3551:3556   */\n      dup2\n        /* \"#utility.yul\":3533:3557   */\n      tag_216\n      jump\t// in\n    tag_282:\n        /* \"#utility.yul\":3528:3531   */\n      dup3\n        /* \"#utility.yul\":3521:3558   */\n      mstore\n        /* \"#utility.yul\":3446:3564   */\n      pop\n      pop\n      jump\t// out\n        /* \"#utility.yul\":3570:3792   */\n    tag_37:\n        /* \"#utility.yul\":3663:3667   */\n      0x00\n        /* \"#utility.yul\":3701:3703   */\n      0x20\n        /* \"#utility.yul\":3690:3699   */\n      dup3\n        /* \"#utility.yul\":3686:3704   */\n      add\n        /* \"#utility.yul\":3678:3704   */\n      swap1\n      pop\n        /* \"#utility.yul\":3714:3785   */\n      tag_284\n        /* \"#utility.yul\":3782:3783   */\n      0x00\n        /* \"#utility.yul\":3771:3780   */\n      dup4\n        /* \"#utility.yul\":3767:3784   */\n      add\n        /* \"#utility.yul\":3758:3764   */\n      dup5\n        /* \"#utility.yul\":3714:3785   */\n      tag_221\n      jump\t// in\n    tag_284:\n        /* \"#utility.yul\":3570:3792   */\n      swap3\n      swap2\n      pop\n      pop\n      jump\t// out\n        /* \"#utility.yul\":3798:4417   */\n    tag_43:\n        /* \"#utility.yul\":3875:3881   */\n      0x00\n        /* \"#utility.yul\":3883:3889   */\n      dup1\n        /* \"#utility.yul\":3891:3897   */\n      0x00\n        /* \"#utility.yul\":3940:3942   */\n      0x60\n        /* \"#utility.yul\":3928:3937   */\n      dup5\n        /* \"#utility.yul\":3919:3926   */\n      dup7\n        /* \"#utility.yul\":3915:3938   */\n      sub\n        /* \"#utility.yul\":3911:3943   */\n      slt\n        /* \"#utility.yul\":3908:4027   */\n      iszero\n      tag_286\n      jumpi\n        /* \"#utility.yul\":3946:4025   */\n      tag_287\n      tag_210\n      jump\t// in\n    tag_287:\n        /* \"#utility.yul\":3908:4027   */\n    tag_286:\n        /* \"#utility.yul\":4066:4067   */\n      0x00\n        /* \"#utility.yul\":4091:4144   */\n      tag_288\n        /* \"#utility.yul\":4136:4143   */\n      dup7\n        /* \"#utility.yul\":4127:4133   */\n      dup3\n        /* \"#utility.yul\":4116:4125   */\n      dup8\n        /* \"#utility.yul\":4112:4134   */\n      add\n        /* \"#utility.yul\":4091:4144   */\n      tag_215\n      jump\t// in\n    tag_288:\n        /* \"#utility.yul\":4081:4144   */\n      swap4\n      pop\n        /* \"#utility.yul\":4037:4154   */\n      pop\n        /* \"#utility.yul\":4193:4195   */\n      0x20\n        /* \"#utility.yul\":4219:4272   */\n      tag_289\n        /* \"#utility.yul\":4264:4271   */\n      dup7\n        /* \"#utility.yul\":4255:4261   */\n      dup3\n        /* \"#utility.yul\":4244:4253   */\n      dup8\n        /* \"#utility.yul\":4240:4262   */\n      add\n        /* \"#utility.yul\":4219:4272   */\n      tag_215\n      jump\t// in\n    tag_289:\n        /* \"#utility.yul\":4209:4272   */\n      swap3\n      pop\n        /* \"#utility.yul\":4164:4282   */\n      pop\n        /* \"#utility.yul\":4321:4323   */\n      0x40\n        /* \"#utility.yul\":4347:4400   */\n      tag_290\n        /* \"#utility.yul\":4392:4399   */\n      dup7\n        /* \"#utility.yul\":4383:4389   */\n      dup3\n        /* \"#utility.yul\":4372:4381   */\n      dup8\n        /* \"#utility.yul\":4368:4390   */\n      add\n        /* \"#utility.yul\":4347:4400   */\n      tag_218\n      jump\t// in\n    tag_290:\n        /* \"#utility.yul\":4337:4400   */\n      swap2\n      pop\n        /* \"#utility.yul\":4292:4410   */\n      pop\n        /* \"#utility.yul\":3798:4417   */\n      swap3\n      pop\n      swap3\n      pop\n      swap3\n      jump\t// out\n        /* \"#utility.yul\":4423:4752   */\n    tag_57:\n        /* \"#utility.yul\":4482:4488   */\n      0x00\n        /* \"#utility.yul\":4531:4533   */\n      0x20\n        /* \"#utility.yul\":4519:4528   */\n      dup3\n        /* \"#utility.yul\":4510:4517   */\n      dup5\n        /* \"#utility.yul\":4506:4529   */\n      sub\n        /* \"#utility.yul\":4502:4534   */\n      slt\n        /* \"#utility.yul\":4499:4618   */\n      iszero\n      tag_292\n      jumpi\n        /* \"#utility.yul\":4537:4616   */\n      tag_293\n      tag_210\n      jump\t// in\n    tag_293:\n        /* \"#utility.yul\":4499:4618   */\n    tag_292:\n        /* \"#utility.yul\":4657:4658   */\n      0x00\n        /* \"#utility.yul\":4682:4735   */\n      tag_294\n        /* \"#utility.yul\":4727:4734   */\n      dup5\n        /* \"#utility.yul\":4718:4724   */\n      dup3\n        /* \"#utility.yul\":4707:4716   */\n      dup6\n        /* \"#utility.yul\":4703:4725   */\n      add\n        /* \"#utility.yul\":4682:4735   */\n      tag_215\n      jump\t// in\n    tag_294:\n        /* \"#utility.yul\":4672:4735   */\n      swap2\n      pop\n        /* \"#utility.yul\":4628:4745   */\n      pop\n        /* \"#utility.yul\":4423:4752   */\n      swap3\n      swap2\n      pop\n      pop\n      jump\t// out\n        /* \"#utility.yul\":4758:5232   */\n    tag_87:\n        /* \"#utility.yul\":4826:4832   */\n      0x00\n        /* \"#utility.yul\":4834:4840   */\n      dup1\n        /* \"#utility.yul\":4883:4885   */\n      0x40\n        /* \"#utility.yul\":4871:4880   */\n      dup4\n        /* \"#utility.yul\":4862:4869   */\n      dup6\n        /* \"#utility.yul\":4858:4881   */\n      sub\n        /* \"#utility.yul\":4854:4886   */\n      slt\n        /* \"#utility.yul\":4851:4970   */\n      iszero\n      tag_296\n      jumpi\n        /* \"#utility.yul\":4889:4968   */\n      tag_297\n      tag_210\n      jump\t// in\n    tag_297:\n        /* \"#utility.yul\":4851:4970   */\n    tag_296:\n        /* \"#utility.yul\":5009:5010   */\n      0x00\n        /* \"#utility.yul\":5034:5087   */\n      tag_298\n        /* \"#utility.yul\":5079:5086   */\n      dup6\n        /* \"#utility.yul\":5070:5076   */\n      dup3\n        /* \"#utility.yul\":5059:5068   */\n      dup7\n        /* \"#utility.yul\":5055:5077   */\n      add\n        /* \"#utility.yul\":5034:5087   */\n      tag_215\n      jump\t// in\n    tag_298:\n        /* \"#utility.yul\":5024:5087   */\n      swap3\n      pop\n        /* \"#utility.yul\":4980:5097   */\n      pop\n        /* \"#utility.yul\":5136:5138   */\n      0x20\n        /* \"#utility.yul\":5162:5215   */\n      tag_299\n        /* \"#utility.yul\":5207:5214   */\n      dup6\n        /* \"#utility.yul\":5198:5204   */\n      dup3\n        /* \"#utility.yul\":5187:5196   */\n      dup7\n        /* \"#utility.yul\":5183:5205   */\n      add\n        /* \"#utility.yul\":5162:5215   */\n      tag_215\n      jump\t// in\n    tag_299:\n        /* \"#utility.yul\":5152:5215   */\n      swap2\n      pop\n        /* \"#utility.yul\":5107:5225   */\n      pop\n        /* \"#utility.yul\":4758:5232   */\n      swap3\n      pop\n      swap3\n      swap1\n      pop\n      jump\t// out\n        /* \"#utility.yul\":5238:5418   */\n    tag_222:\n        /* \"#utility.yul\":5286:5363   */\n      0x4e487b7100000000000000000000000000000000000000000000000000000000\n        /* \"#utility.yul\":5283:5284   */\n      0x00\n        /* \"#utility.yul\":5276:5364   */\n      mstore\n        /* \"#utility.yul\":5383:5387   */\n      0x22\n        /* \"#utility.yul\":5380:5381   */\n      0x04\n        /* \"#utility.yul\":5373:5388   */\n      mstore\n        /* \"#utility.yul\":5407:5411   */\n      0x24\n        /* \"#utility.yul\":5404:5405   */\n      0x00\n        /* \"#utility.yul\":5397:5412   */\n      revert\n        /* \"#utility.yul\":5424:5744   */\n    tag_96:\n        /* \"#utility.yul\":5468:5474   */\n      0x00\n        /* \"#utility.yul\":5505:5506   */\n      0x02\n        /* \"#utility.yul\":5499:5503   */\n      dup3\n        /* \"#utility.yul\":5495:5507   */\n      div\n        /* \"#utility.yul\":5485:5507   */\n      swap1\n      pop\n        /* \"#utility.yul\":5552:5553   */\n      0x01\n        /* \"#utility.yul\":5546:5550   */\n      dup3\n        /* \"#utility.yul\":5542:5554   */\n      and\n        /* \"#utility.yul\":5573:5591   */\n      dup1\n        /* \"#utility.yul\":5563:5644   */\n      tag_302\n      jumpi\n        /* \"#utility.yul\":5629:5633   */\n      0x7f\n        /* \"#utility.yul\":5621:5627   */\n      dup3\n        /* \"#utility.yul\":5617:5634   */\n      and\n        /* \"#utility.yul\":5607:5634   */\n      swap2\n      pop\n        /* \"#utility.yul\":5563:5644   */\n    tag_302:\n        /* \"#utility.yul\":5691:5693   */\n      0x20\n        /* \"#utility.yul\":5683:5689   */\n      dup3\n        /* \"#utility.yul\":5680:5694   */\n      lt\n        /* \"#utility.yul\":5660:5678   */\n      dup2\n        /* \"#utility.yul\":5657:5695   */\n      sub\n        /* \"#utility.yul\":5654:5738   */\n      tag_303\n      jumpi\n        /* \"#utility.yul\":5710:5728   */\n      tag_304\n      tag_222\n      jump\t// in\n    tag_304:\n        /* \"#utility.yul\":5654:5738   */\n    tag_303:\n        /* \"#utility.yul\":5475:5744   */\n      pop\n        /* \"#utility.yul\":5424:5744   */\n      swap2\n      swap1\n      pop\n      jump\t// out\n        /* \"#utility.yul\":5750:5924   */\n    tag_223:\n        /* \"#utility.yul\":5890:5916   */\n      0x416e74692d7265656e7472616e637920696e20706c6163650000000000000000\n        /* \"#utility.yul\":5886:5887   */\n      0x00\n        /* \"#utility.yul\":5878:5884   */\n      dup3\n        /* \"#utility.yul\":5874:5888   */\n      add\n        /* \"#utility.yul\":5867:5917   */\n      mstore\n        /* \"#utility.yul\":5750:5924   */\n      pop\n      jump\t// out\n        /* \"#utility.yul\":5930:6296   */\n    tag_224:\n        /* \"#utility.yul\":6072:6075   */\n      0x00\n        /* \"#utility.yul\":6093:6160   */\n      tag_307\n        /* \"#utility.yul\":6157:6159   */\n      0x18\n        /* \"#utility.yul\":6152:6155   */\n      dup4\n        /* \"#utility.yul\":6093:6160   */\n      tag_205\n      jump\t// in\n    tag_307:\n        /* \"#utility.yul\":6086:6160   */\n      swap2\n      pop\n        /* \"#utility.yul\":6169:6262   */\n      tag_308\n        /* \"#utility.yul\":6258:6261   */\n      dup3\n        /* \"#utility.yul\":6169:6262   */\n      tag_223\n      jump\t// in\n    tag_308:\n        /* \"#utility.yul\":6287:6289   */\n      0x20\n        /* \"#utility.yul\":6282:6285   */\n      dup3\n        /* \"#utility.yul\":6278:6290   */\n      add\n        /* \"#utility.yul\":6271:6290   */\n      swap1\n      pop\n        /* \"#utility.yul\":5930:6296   */\n      swap2\n      swap1\n      pop\n      jump\t// out\n        /* \"#utility.yul\":6302:6721   */\n    tag_109:\n        /* \"#utility.yul\":6468:6472   */\n      0x00\n        /* \"#utility.yul\":6506:6508   */\n      0x20\n        /* \"#utility.yul\":6495:6504   */\n      dup3\n        /* \"#utility.yul\":6491:6509   */\n      add\n        /* \"#utility.yul\":6483:6509   */\n      swap1\n      pop\n        /* \"#utility.yul\":6555:6564   */\n      dup2\n        /* \"#utility.yul\":6549:6553   */\n      dup2\n        /* \"#utility.yul\":6545:6565   */\n      sub\n        /* \"#utility.yul\":6541:6542   */\n      0x00\n        /* \"#utility.yul\":6530:6539   */\n      dup4\n        /* \"#utility.yul\":6526:6543   */\n      add\n        /* \"#utility.yul\":6519:6566   */\n      mstore\n        /* \"#utility.yul\":6583:6714   */\n      tag_310\n        /* \"#utility.yul\":6709:6713   */\n      dup2\n        /* \"#utility.yul\":6583:6714   */\n      tag_224\n      jump\t// in\n    tag_310:\n        /* \"#utility.yul\":6575:6714   */\n      swap1\n      pop\n        /* \"#utility.yul\":6302:6721   */\n      swap2\n      swap1\n      pop\n      jump\t// out\n        /* \"#utility.yul\":6727:6897   */\n    tag_225:\n        /* \"#utility.yul\":6867:6889   */\n      0x496e73756666696369656e742062616c616e6365000000000000000000000000\n        /* \"#utility.yul\":6863:6864   */\n      0x00\n        /* \"#utility.yul\":6855:6861   */\n      dup3\n        /* \"#utility.yul\":6851:6865   */\n      add\n        /* \"#utility.yul\":6844:6890   */\n      mstore\n        /* \"#utility.yul\":6727:6897   */\n      pop\n      jump\t// out\n        /* \"#utility.yul\":6903:7269   */\n    tag_226:\n        /* \"#utility.yul\":7045:7048   */\n      0x00\n        /* \"#utility.yul\":7066:7133   */\n      tag_313\n        /* \"#utility.yul\":7130:7132   */\n      0x14\n        /* \"#utility.yul\":7125:7128   */\n      dup4\n        /* \"#utility.yul\":7066:7133   */\n      tag_205\n      jump\t// in\n    tag_313:\n        /* \"#utility.yul\":7059:7133   */\n      swap2\n      pop\n        /* \"#utility.yul\":7142:7235   */\n      tag_314\n        /* \"#utility.yul\":7231:7234   */\n      dup3\n        /* \"#utility.yul\":7142:7235   */\n      tag_225\n      jump\t// in\n    tag_314:\n        /* \"#utility.yul\":7260:7262   */\n      0x20\n        /* \"#utility.yul\":7255:7258   */\n      dup3\n        /* \"#utility.yul\":7251:7263   */\n      add\n        /* \"#utility.yul\":7244:7263   */\n      swap1\n      pop\n        /* \"#utility.yul\":6903:7269   */\n      swap2\n      swap1\n      pop\n      jump\t// out\n        /* \"#utility.yul\":7275:7694   */\n    tag_113:\n        /* \"#utility.yul\":7441:7445   */\n      0x00\n        /* \"#utility.yul\":7479:7481   */\n      0x20\n        /* \"#utility.yul\":7468:7477   */\n      dup3\n        /* \"#utility.yul\":7464:7482   */\n      add\n        /* \"#utility.yul\":7456:7482   */\n      swap1\n      pop\n        /* \"#utility.yul\":7528:7537   */\n      dup2\n        /* \"#utility.yul\":7522:7526   */\n      dup2\n        /* \"#utility.yul\":7518:7538   */\n      sub\n        /* \"#utility.yul\":7514:7515   */\n      0x00\n        /* \"#utility.yul\":7503:7512   */\n      dup4\n        /* \"#utility.yul\":7499:7516   */\n      add\n        /* \"#utility.yul\":7492:7539   */\n      mstore\n        /* \"#utility.yul\":7556:7687   */\n      tag_316\n        /* \"#utility.yul\":7682:7686   */\n      dup2\n        /* \"#utility.yul\":7556:7687   */\n      tag_226\n      jump\t// in\n    tag_316:\n        /* \"#utility.yul\":7548:7687   */\n      swap1\n      pop\n        /* \"#utility.yul\":7275:7694   */\n      swap2\n      swap1\n      pop\n      jump\t// out\n        /* \"#utility.yul\":7700:7920   */\n    tag_227:\n        /* \"#utility.yul\":7840:7874   */\n      0x5472616e7366657220616d6f756e74206578636565647320616c6c6f77616e63\n        /* \"#utility.yul\":7836:7837   */\n      0x00\n        /* \"#utility.yul\":7828:7834   */\n      dup3\n        /* \"#utility.yul\":7824:7838   */\n      add\n        /* \"#utility.yul\":7817:7875   */\n      mstore\n        /* \"#utility.yul\":7909:7912   */\n      0x6500000000000000000000000000000000000000000000000000000000000000\n        /* \"#utility.yul\":7904:7906   */\n      0x20\n        /* \"#utility.yul\":7896:7902   */\n      dup3\n        /* \"#utility.yul\":7892:7907   */\n      add\n        /* \"#utility.yul\":7885:7913   */\n      mstore\n        /* \"#utility.yul\":7700:7920   */\n      pop\n      jump\t// out\n        /* \"#utility.yul\":7926:8292   */\n    tag_228:\n        /* \"#utility.yul\":8068:8071   */\n      0x00\n        /* \"#utility.yul\":8089:8156   */\n      tag_319\n        /* \"#utility.yul\":8153:8155   */\n      0x21\n        /* \"#utility.yul\":8148:8151   */\n      dup4\n        /* \"#utility.yul\":8089:8156   */\n      tag_205\n      jump\t// in\n    tag_319:\n        /* \"#utility.yul\":8082:8156   */\n      swap2\n      pop\n        /* \"#utility.yul\":8165:8258   */\n      tag_320\n        /* \"#utility.yul\":8254:8257   */\n      dup3\n        /* \"#utility.yul\":8165:8258   */\n      tag_227\n      jump\t// in\n    tag_320:\n        /* \"#utility.yul\":8283:8285   */\n      0x40\n        /* \"#utility.yul\":8278:8281   */\n      dup3\n        /* \"#utility.yul\":8274:8286   */\n      add\n        /* \"#utility.yul\":8267:8286   */\n      swap1\n      pop\n        /* \"#utility.yul\":7926:8292   */\n      swap2\n      swap1\n      pop\n      jump\t// out\n        /* \"#utility.yul\":8298:8717   */\n    tag_116:\n        /* \"#utility.yul\":8464:8468   */\n      0x00\n        /* \"#utility.yul\":8502:8504   */\n      0x20\n        /* \"#utility.yul\":8491:8500   */\n      dup3\n        /* \"#utility.yul\":8487:8505   */\n      add\n        /* \"#utility.yul\":8479:8505   */\n      swap1\n      pop\n        /* \"#utility.yul\":8551:8560   */\n      dup2\n        /* \"#utility.yul\":8545:8549   */\n      dup2\n        /* \"#utility.yul\":8541:8561   */\n      sub\n        /* \"#utility.yul\":8537:8538   */\n      0x00\n        /* \"#utility.yul\":8526:8535   */\n      dup4\n        /* \"#utility.yul\":8522:8539   */\n      add\n        /* \"#utility.yul\":8515:8562   */\n      mstore\n        /* \"#utility.yul\":8579:8710   */\n      tag_322\n        /* \"#utility.yul\":8705:8709   */\n      dup2\n        /* \"#utility.yul\":8579:8710   */\n      tag_228\n      jump\t// in\n    tag_322:\n        /* \"#utility.yul\":8571:8710   */\n      swap1\n      pop\n        /* \"#utility.yul\":8298:8717   */\n      swap2\n      swap1\n      pop\n      jump\t// out\n        /* \"#utility.yul\":8723:8903   */\n    tag_229:\n        /* \"#utility.yul\":8771:8848   */\n      0x4e487b7100000000000000000000000000000000000000000000000000000000\n        /* \"#utility.yul\":8768:8769   */\n      0x00\n        /* \"#utility.yul\":8761:8849   */\n      mstore\n        /* \"#utility.yul\":8868:8872   */\n      0x11\n        /* \"#utility.yul\":8865:8866   */\n      0x04\n        /* \"#utility.yul\":8858:8873   */\n      mstore\n        /* \"#utility.yul\":8892:8896   */\n      0x24\n        /* \"#utility.yul\":8889:8890   */\n      0x00\n        /* \"#utility.yul\":8882:8897   */\n      revert\n        /* \"#utility.yul\":8909:9103   */\n    tag_118:\n        /* \"#utility.yul\":8949:8953   */\n      0x00\n        /* \"#utility.yul\":8969:8989   */\n      tag_325\n        /* \"#utility.yul\":8987:8988   */\n      dup3\n        /* \"#utility.yul\":8969:8989   */\n      tag_216\n      jump\t// in\n    tag_325:\n        /* \"#utility.yul\":8964:8989   */\n      swap2\n      pop\n        /* \"#utility.yul\":9003:9023   */\n      tag_326\n        /* \"#utility.yul\":9021:9022   */\n      dup4\n        /* \"#utility.yul\":9003:9023   */\n      tag_216\n      jump\t// in\n    tag_326:\n        /* \"#utility.yul\":8998:9023   */\n      swap3\n      pop\n        /* \"#utility.yul\":9047:9048   */\n      dup3\n        /* \"#utility.yul\":9044:9045   */\n      dup3\n        /* \"#utility.yul\":9040:9049   */\n      sub\n        /* \"#utility.yul\":9032:9049   */\n      swap1\n      pop\n        /* \"#utility.yul\":9071:9072   */\n      dup2\n        /* \"#utility.yul\":9065:9069   */\n      dup2\n        /* \"#utility.yul\":9062:9073   */\n      gt\n        /* \"#utility.yul\":9059:9096   */\n      iszero\n      tag_327\n      jumpi\n        /* \"#utility.yul\":9076:9094   */\n      tag_328\n      tag_229\n      jump\t// in\n    tag_328:\n        /* \"#utility.yul\":9059:9096   */\n    tag_327:\n        /* \"#utility.yul\":8909:9103   */\n      swap3\n      swap2\n      pop\n      pop\n      jump\t// out\n        /* \"#utility.yul\":9109:9300   */\n    tag_121:\n        /* \"#utility.yul\":9149:9152   */\n      0x00\n        /* \"#utility.yul\":9168:9188   */\n      tag_330\n        /* \"#utility.yul\":9186:9187   */\n      dup3\n        /* \"#utility.yul\":9168:9188   */\n      tag_216\n      jump\t// in\n    tag_330:\n        /* \"#utility.yul\":9163:9188   */\n      swap2\n      pop\n        /* \"#utility.yul\":9202:9222   */\n      tag_331\n        /* \"#utility.yul\":9220:9221   */\n      dup4\n        /* \"#utility.yul\":9202:9222   */\n      tag_216\n      jump\t// in\n    tag_331:\n        /* \"#utility.yul\":9197:9222   */\n      swap3\n      pop\n        /* \"#utility.yul\":9245:9246   */\n      dup3\n        /* \"#utility.yul\":9242:9243   */\n      dup3\n        /* \"#utility.yul\":9238:9247   */\n      add\n        /* \"#utility.yul\":9231:9247   */\n      swap1\n      pop\n        /* \"#utility.yul\":9266:9269   */\n      dup1\n        /* \"#utility.yul\":9263:9264   */\n      dup3\n        /* \"#utility.yul\":9260:9270   */\n      gt\n        /* \"#utility.yul\":9257:9293   */\n      iszero\n      tag_332\n      jumpi\n        /* \"#utility.yul\":9273:9291   */\n      tag_333\n      tag_229\n      jump\t// in\n    tag_333:\n        /* \"#utility.yul\":9257:9293   */\n    tag_332:\n        /* \"#utility.yul\":9109:9300   */\n      swap3\n      swap2\n      pop\n      pop\n      jump\t// out\n        /* \"#utility.yul\":9306:9470   */\n    tag_230:\n        /* \"#utility.yul\":9446:9462   */\n      0x6973466f756e64696e675465616d000000000000000000000000000000000000\n        /* \"#utility.yul\":9442:9443   */\n      0x00\n        /* \"#utility.yul\":9434:9440   */\n      dup3\n        /* \"#utility.yul\":9430:9444   */\n      add\n        /* \"#utility.yul\":9423:9463   */\n      mstore\n        /* \"#utility.yul\":9306:9470   */\n      pop\n      jump\t// out\n        /* \"#utility.yul\":9476:9842   */\n    tag_231:\n        /* \"#utility.yul\":9618:9621   */\n      0x00\n        /* \"#utility.yul\":9639:9706   */\n      tag_336\n        /* \"#utility.yul\":9703:9705   */\n      0x0e\n        /* \"#utility.yul\":9698:9701   */\n      dup4\n        /* \"#utility.yul\":9639:9706   */\n      tag_205\n      jump\t// in\n    tag_336:\n        /* \"#utility.yul\":9632:9706   */\n      swap2\n      pop\n        /* \"#utility.yul\":9715:9808   */\n      tag_337\n        /* \"#utility.yul\":9804:9807   */\n      dup3\n        /* \"#utility.yul\":9715:9808   */\n      tag_230\n      jump\t// in\n    tag_337:\n        /* \"#utility.yul\":9833:9835   */\n      0x20\n        /* \"#utility.yul\":9828:9831   */\n      dup3\n        /* \"#utility.yul\":9824:9836   */\n      add\n        /* \"#utility.yul\":9817:9836   */\n      swap1\n      pop\n        /* \"#utility.yul\":9476:9842   */\n      swap2\n      swap1\n      pop\n      jump\t// out\n        /* \"#utility.yul\":9848:10267   */\n    tag_129:\n        /* \"#utility.yul\":10014:10018   */\n      0x00\n        /* \"#utility.yul\":10052:10054   */\n      0x20\n        /* \"#utility.yul\":10041:10050   */\n      dup3\n        /* \"#utility.yul\":10037:10055   */\n      add\n        /* \"#utility.yul\":10029:10055   */\n      swap1\n      pop\n        /* \"#utility.yul\":10101:10110   */\n      dup2\n        /* \"#utility.yul\":10095:10099   */\n      dup2\n        /* \"#utility.yul\":10091:10111   */\n      sub\n        /* \"#utility.yul\":10087:10088   */\n      0x00\n        /* \"#utility.yul\":10076:10085   */\n      dup4\n        /* \"#utility.yul\":10072:10089   */\n      add\n        /* \"#utility.yul\":10065:10112   */\n      mstore\n        /* \"#utility.yul\":10129:10260   */\n      tag_339\n        /* \"#utility.yul\":10255:10259   */\n      dup2\n        /* \"#utility.yul\":10129:10260   */\n      tag_231\n      jump\t// in\n    tag_339:\n        /* \"#utility.yul\":10121:10260   */\n      swap1\n      pop\n        /* \"#utility.yul\":9848:10267   */\n      swap2\n      swap1\n      pop\n      jump\t// out\n        /* \"#utility.yul\":10273:10453   */\n    tag_148:\n        /* \"#utility.yul\":10321:10398   */\n      0x4e487b7100000000000000000000000000000000000000000000000000000000\n        /* \"#utility.yul\":10318:10319   */\n      0x00\n        /* \"#utility.yul\":10311:10399   */\n      mstore\n        /* \"#utility.yul\":10418:10422   */\n      0x32\n        /* \"#utility.yul\":10415:10416   */\n      0x04\n        /* \"#utility.yul\":10408:10423   */\n      mstore\n        /* \"#utility.yul\":10442:10446   */\n      0x24\n        /* \"#utility.yul\":10439:10440   */\n      0x00\n        /* \"#utility.yul\":10432:10447   */\n      revert\n        /* \"#utility.yul\":10459:10869   */\n    tag_157:\n        /* \"#utility.yul\":10499:10506   */\n      0x00\n        /* \"#utility.yul\":10522:10542   */\n      tag_342\n        /* \"#utility.yul\":10540:10541   */\n      dup3\n        /* \"#utility.yul\":10522:10542   */\n      tag_216\n      jump\t// in\n    tag_342:\n        /* \"#utility.yul\":10517:10542   */\n      swap2\n      pop\n        /* \"#utility.yul\":10556:10576   */\n      tag_343\n        /* \"#utility.yul\":10574:10575   */\n      dup4\n        /* \"#utility.yul\":10556:10576   */\n      tag_216\n      jump\t// in\n    tag_343:\n        /* \"#utility.yul\":10551:10576   */\n      swap3\n      pop\n        /* \"#utility.yul\":10611:10612   */\n      dup3\n        /* \"#utility.yul\":10608:10609   */\n      dup3\n        /* \"#utility.yul\":10604:10613   */\n      mul\n        /* \"#utility.yul\":10633:10663   */\n      tag_344\n        /* \"#utility.yul\":10651:10662   */\n      dup2\n        /* \"#utility.yul\":10633:10663   */\n      tag_216\n      jump\t// in\n    tag_344:\n        /* \"#utility.yul\":10622:10663   */\n      swap2\n      pop\n        /* \"#utility.yul\":10812:10813   */\n      dup3\n        /* \"#utility.yul\":10803:10810   */\n      dup3\n        /* \"#utility.yul\":10799:10814   */\n      div\n        /* \"#utility.yul\":10796:10797   */\n      dup5\n        /* \"#utility.yul\":10793:10815   */\n      eq\n        /* \"#utility.yul\":10773:10774   */\n      dup4\n        /* \"#utility.yul\":10766:10775   */\n      iszero\n        /* \"#utility.yul\":10746:10829   */\n      or\n        /* \"#utility.yul\":10723:10862   */\n      tag_345\n      jumpi\n        /* \"#utility.yul\":10842:10860   */\n      tag_346\n      tag_229\n      jump\t// in\n    tag_346:\n        /* \"#utility.yul\":10723:10862   */\n    tag_345:\n        /* \"#utility.yul\":10507:10869   */\n      pop\n        /* \"#utility.yul\":10459:10869   */\n      swap3\n      swap2\n      pop\n      pop\n      jump\t// out\n        /* \"#utility.yul\":10875:11055   */\n    tag_232:\n        /* \"#utility.yul\":10923:11000   */\n      0x4e487b7100000000000000000000000000000000000000000000000000000000\n        /* \"#utility.yul\":10920:10921   */\n      0x00\n        /* \"#utility.yul\":10913:11001   */\n      mstore\n        /* \"#utility.yul\":11020:11024   */\n      0x12\n        /* \"#utility.yul\":11017:11018   */\n      0x04\n        /* \"#utility.yul\":11010:11025   */\n      mstore\n        /* \"#utility.yul\":11044:11048   */\n      0x24\n        /* \"#utility.yul\":11041:11042   */\n      0x00\n        /* \"#utility.yul\":11034:11049   */\n      revert\n        /* \"#utility.yul\":11061:11246   */\n    tag_159:\n        /* \"#utility.yul\":11101:11102   */\n      0x00\n        /* \"#utility.yul\":11118:11138   */\n      tag_349\n        /* \"#utility.yul\":11136:11137   */\n      dup3\n        /* \"#utility.yul\":11118:11138   */\n      tag_216\n      jump\t// in\n    tag_349:\n        /* \"#utility.yul\":11113:11138   */\n      swap2\n      pop\n        /* \"#utility.yul\":11152:11172   */\n      tag_350\n        /* \"#utility.yul\":11170:11171   */\n      dup4\n        /* \"#utility.yul\":11152:11172   */\n      tag_216\n      jump\t// in\n    tag_350:\n        /* \"#utility.yul\":11147:11172   */\n      swap3\n      pop\n        /* \"#utility.yul\":11191:11192   */\n      dup3\n        /* \"#utility.yul\":11181:11216   */\n      tag_351\n      jumpi\n        /* \"#utility.yul\":11196:11214   */\n      tag_352\n      tag_232\n      jump\t// in\n    tag_352:\n        /* \"#utility.yul\":11181:11216   */\n    tag_351:\n        /* \"#utility.yul\":11238:11239   */\n      dup3\n        /* \"#utility.yul\":11235:11236   */\n      dup3\n        /* \"#utility.yul\":11231:11240   */\n      div\n        /* \"#utility.yul\":11226:11240   */\n      swap1\n      pop\n        /* \"#utility.yul\":11061:11246   */\n      swap3\n      swap2\n      pop\n      pop\n      jump\t// out\n        /* \"#utility.yul\":11252:11422   */\n    tag_233:\n        /* \"#utility.yul\":11392:11414   */\n      0x4e6f20746f6b656e7320746f2072656c65617365000000000000000000000000\n        /* \"#utility.yul\":11388:11389   */\n      0x00\n        /* \"#utility.yul\":11380:11386   */\n      dup3\n        /* \"#utility.yul\":11376:11390   */\n      add\n        /* \"#utility.yul\":11369:11415   */\n      mstore\n        /* \"#utility.yul\":11252:11422   */\n      pop\n      jump\t// out\n        /* \"#utility.yul\":11428:11794   */\n    tag_234:\n        /* \"#utility.yul\":11570:11573   */\n      0x00\n        /* \"#utility.yul\":11591:11658   */\n      tag_355\n        /* \"#utility.yul\":11655:11657   */\n      0x14\n        /* \"#utility.yul\":11650:11653   */\n      dup4\n        /* \"#utility.yul\":11591:11658   */\n      tag_205\n      jump\t// in\n    tag_355:\n        /* \"#utility.yul\":11584:11658   */\n      swap2\n      pop\n        /* \"#utility.yul\":11667:11760   */\n      tag_356\n        /* \"#utility.yul\":11756:11759   */\n      dup3\n        /* \"#utility.yul\":11667:11760   */\n      tag_233\n      jump\t// in\n    tag_356:\n        /* \"#utility.yul\":11785:11787   */\n      0x20\n        /* \"#utility.yul\":11780:11783   */\n      dup3\n        /* \"#utility.yul\":11776:11788   */\n      add\n        /* \"#utility.yul\":11769:11788   */\n      swap1\n      pop\n        /* \"#utility.yul\":11428:11794   */\n      swap2\n      swap1\n      pop\n      jump\t// out\n        /* \"#utility.yul\":11800:12219   */\n    tag_165:\n        /* \"#utility.yul\":11966:11970   */\n      0x00\n        /* \"#utility.yul\":12004:12006   */\n      0x20\n        /* \"#utility.yul\":11993:12002   */\n      dup3\n        /* \"#utility.yul\":11989:12007   */\n      add\n        /* \"#utility.yul\":11981:12007   */\n      swap1\n      pop\n        /* \"#utility.yul\":12053:12062   */\n      dup2\n        /* \"#utility.yul\":12047:12051   */\n      dup2\n        /* \"#utility.yul\":12043:12063   */\n      sub\n        /* \"#utility.yul\":12039:12040   */\n      0x00\n        /* \"#utility.yul\":12028:12037   */\n      dup4\n        /* \"#utility.yul\":12024:12041   */\n      add\n        /* \"#utility.yul\":12017:12064   */\n      mstore\n        /* \"#utility.yul\":12081:12212   */\n      tag_358\n        /* \"#utility.yul\":12207:12211   */\n      dup2\n        /* \"#utility.yul\":12081:12212   */\n      tag_234\n      jump\t// in\n    tag_358:\n        /* \"#utility.yul\":12073:12212   */\n      swap1\n      pop\n        /* \"#utility.yul\":11800:12219   */\n      swap2\n      swap1\n      pop\n      jump\t// out\n        /* \"#utility.yul\":12464:12644   */\n    tag_235:\n        /* \"#utility.yul\":12604:12636   */\n      0x44656372656173656420616c6c6f77616e63652062656c6f77207a65726f0000\n        /* \"#utility.yul\":12600:12601   */\n      0x00\n        /* \"#utility.yul\":12592:12598   */\n      dup3\n        /* \"#utility.yul\":12588:12602   */\n      add\n        /* \"#utility.yul\":12581:12637   */\n      mstore\n        /* \"#utility.yul\":12464:12644   */\n      pop\n      jump\t// out\n        /* \"#utility.yul\":12650:13016   */\n    tag_236:\n        /* \"#utility.yul\":12792:12795   */\n      0x00\n        /* \"#utility.yul\":12813:12880   */\n      tag_365\n        /* \"#utility.yul\":12877:12879   */\n      0x1e\n        /* \"#utility.yul\":12872:12875   */\n      dup4\n        /* \"#utility.yul\":12813:12880   */\n      tag_205\n      jump\t// in\n    tag_365:\n        /* \"#utility.yul\":12806:12880   */\n      swap2\n      pop\n        /* \"#utility.yul\":12889:12982   */\n      tag_366\n        /* \"#utility.yul\":12978:12981   */\n      dup3\n        /* \"#utility.yul\":12889:12982   */\n      tag_235\n      jump\t// in\n    tag_366:\n        /* \"#utility.yul\":13007:13009   */\n      0x20\n        /* \"#utility.yul\":13002:13005   */\n      dup3\n        /* \"#utility.yul\":12998:13010   */\n      add\n        /* \"#utility.yul\":12991:13010   */\n      swap1\n      pop\n        /* \"#utility.yul\":12650:13016   */\n      swap2\n      swap1\n      pop\n      jump\t// out\n        /* \"#utility.yul\":13022:13441   */\n    tag_182:\n        /* \"#utility.yul\":13188:13192   */\n      0x00\n        /* \"#utility.yul\":13226:13228   */\n      0x20\n        /* \"#utility.yul\":13215:13224   */\n      dup3\n        /* \"#utility.yul\":13211:13229   */\n      add\n        /* \"#utility.yul\":13203:13229   */\n      swap1\n      pop\n        /* \"#utility.yul\":13275:13284   */\n      dup2\n        /* \"#utility.yul\":13269:13273   */\n      dup2\n        /* \"#utility.yul\":13265:13285   */\n      sub\n        /* \"#utility.yul\":13261:13262   */\n      0x00\n        /* \"#utility.yul\":13250:13259   */\n      dup4\n        /* \"#utility.yul\":13246:13263   */\n      add\n        /* \"#utility.yul\":13239:13286   */\n      mstore\n        /* \"#utility.yul\":13303:13434   */\n      tag_368\n        /* \"#utility.yul\":13429:13433   */\n      dup2\n        /* \"#utility.yul\":13303:13434   */\n      tag_236\n      jump\t// in\n    tag_368:\n        /* \"#utility.yul\":13295:13434   */\n      swap1\n      pop\n        /* \"#utility.yul\":13022:13441   */\n      swap2\n      swap1\n      pop\n      jump\t// out\n        /* \"#utility.yul\":13447:13626   */\n    tag_237:\n        /* \"#utility.yul\":13587:13618   */\n      0x417070726f76652066726f6d20746865207a65726f2061646472657373000000\n        /* \"#utility.yul\":13583:13584   */\n      0x00\n        /* \"#utility.yul\":13575:13581   */\n      dup3\n        /* \"#utility.yul\":13571:13585   */\n      add\n        /* \"#utility.yul\":13564:13619   */\n      mstore\n        /* \"#utility.yul\":13447:13626   */\n      pop\n      jump\t// out\n        /* \"#utility.yul\":13632:13998   */\n    tag_238:\n        /* \"#utility.yul\":13774:13777   */\n      0x00\n        /* \"#utility.yul\":13795:13862   */\n      tag_371\n        /* \"#utility.yul\":13859:13861   */\n      0x1d\n        /* \"#utility.yul\":13854:13857   */\n      dup4\n        /* \"#utility.yul\":13795:13862   */\n      tag_205\n      jump\t// in\n    tag_371:\n        /* \"#utility.yul\":13788:13862   */\n      swap2\n      pop\n        /* \"#utility.yul\":13871:13964   */\n      tag_372\n        /* \"#utility.yul\":13960:13963   */\n      dup3\n        /* \"#utility.yul\":13871:13964   */\n      tag_237\n      jump\t// in\n    tag_372:\n        /* \"#utility.yul\":13989:13991   */\n      0x20\n        /* \"#utility.yul\":13984:13987   */\n      dup3\n        /* \"#utility.yul\":13980:13992   */\n      add\n        /* \"#utility.yul\":13973:13992   */\n      swap1\n      pop\n        /* \"#utility.yul\":13632:13998   */\n      swap2\n      swap1\n      pop\n      jump\t// out\n        /* \"#utility.yul\":14004:14423   */\n    tag_200:\n        /* \"#utility.yul\":14170:14174   */\n      0x00\n        /* \"#utility.yul\":14208:14210   */\n      0x20\n        /* \"#utility.yul\":14197:14206   */\n      dup3\n        /* \"#utility.yul\":14193:14211   */\n      add\n        /* \"#utility.yul\":14185:14211   */\n      swap1\n      pop\n        /* \"#utility.yul\":14257:14266   */\n      dup2\n        /* \"#utility.yul\":14251:14255   */\n      dup2\n        /* \"#utility.yul\":14247:14267   */\n      sub\n        /* \"#utility.yul\":14243:14244   */\n      0x00\n        /* \"#utility.yul\":14232:14241   */\n      dup4\n        /* \"#utility.yul\":14228:14245   */\n      add\n        /* \"#utility.yul\":14221:14268   */\n      mstore\n        /* \"#utility.yul\":14285:14416   */\n      tag_374\n        /* \"#utility.yul\":14411:14415   */\n      dup2\n        /* \"#utility.yul\":14285:14416   */\n      tag_238\n      jump\t// in\n    tag_374:\n        /* \"#utility.yul\":14277:14416   */\n      swap1\n      pop\n        /* \"#utility.yul\":14004:14423   */\n      swap2\n      swap1\n      pop\n      jump\t// out\n\n    auxdata: 0xa2646970667358221220b18f25d9e75066de3b510d56adb3bc794429d75e7c31ca49ef19d6c6fef4a01064736f6c63430008120033\n}\n",
				"bytecode": {
					"linkReferences": {},
					"object": "60806040523480156200001157600080fd5b506040518060400160405280600c81526020017f447265616d636174636865720000000000000000000000000000000000000000815250600160000190816200005b91906200070e565b506040518060400160405280600581526020017f445245414d000000000000000000000000000000000000000000000000000000815250600180019081620000a491906200070e565b506012600160020181905550620186a060016003018190555060006001600401819055506000600160050181905550600060016006018190555060016000806101000a81548160ff0219169083151502179055506001600060016101000a81548160ff0219169083151502179055506200014073dbf85074764156004feb245b65693e59a62262c261271063ad08e000620001bd60201b60201c565b506200016e73172952523f64eaaf288de4ce9e5d1295dcfd3f836103e863114db000620001bd60201b60201c565b506200019c731de8807f69e357fd91e47b34dc2a66216a9dc4b46103e863114db000620001bd60201b60201c565b50620001b6336201388062127500620001bd60201b60201c565b5062000a8c565b600080831162000204576040517f08c379a0000000000000000000000000000000000000000000000000000000008152600401620001fb906200087c565b60405180910390fd5b6001151560008054906101000a900460ff161515146200025b576040517f08c379a00000000000000000000000000000000000000000000000000000000081526004016200025290620008ee565b60405180910390fd5b600160030154836001600401546200027491906200093f565b1115620002b8576040517f08c379a0000000000000000000000000000000000000000000000000000000008152600401620002af90620009ca565b60405180910390fd5b600073ffffffffffffffffffffffffffffffffffffffff168473ffffffffffffffffffffffffffffffffffffffff16036200032a576040517f08c379a0000000000000000000000000000000000000000000000000000000008152600401620003219062000a3c565b60405180910390fd5b6000429050600083826200033f91906200093f565b90506000604051806080016040528087815260200184815260200183815260200160008152509050601460008873ffffffffffffffffffffffffffffffffffffffff1673ffffffffffffffffffffffffffffffffffffffff16815260200190815260200160002081908060018154018082558091505060019003906000526020600020906004020160009091909190915060008201518160000155602082015181600101556040820151816002015560608201518160030155505085600160040160008282546200041191906200093f565b9250508190555085600160050160008282546200042f91906200093f565b925050819055508673ffffffffffffffffffffffffffffffffffffffff167f0f6798a560793a54c3bcfe86a93cde1e73087d944c0ea20544137d4121396885876040516200047e919062000a6f565b60405180910390a2600193505050509392505050565b600081519050919050565b7f4e487b7100000000000000000000000000000000000000000000000000000000600052604160045260246000fd5b7f4e487b7100000000000000000000000000000000000000000000000000000000600052602260045260246000fd5b600060028204905060018216806200051657607f821691505b6020821081036200052c576200052b620004ce565b5b50919050565b60008190508160005260206000209050919050565b60006020601f8301049050919050565b600082821b905092915050565b600060088302620005967fffffffffffffffffffffffffffffffffffffffffffffffffffffffffffffffff8262000557565b620005a2868362000557565b95508019841693508086168417925050509392505050565b6000819050919050565b6000819050919050565b6000620005ef620005e9620005e384620005ba565b620005c4565b620005ba565b9050919050565b6000819050919050565b6200060b83620005ce565b620006236200061a82620005f6565b84845462000564565b825550505050565b600090565b6200063a6200062b565b6200064781848462000600565b505050565b5b818110156200066f576200066360008262000630565b6001810190506200064d565b5050565b601f821115620006be57620006888162000532565b620006938462000547565b81016020851015620006a3578190505b620006bb620006b28562000547565b8301826200064c565b50505b505050565b600082821c905092915050565b6000620006e360001984600802620006c3565b1980831691505092915050565b6000620006fe8383620006d0565b9150826002028217905092915050565b620007198262000494565b67ffffffffffffffff8111156200073557620007346200049f565b5b620007418254620004fd565b6200074e82828562000673565b600060209050601f83116001811462000786576000841562000771578287015190505b6200077d8582620006f0565b865550620007ed565b601f198416620007968662000532565b60005b82811015620007c05784890151825560018201915060208501945060208101905062000799565b86831015620007e05784890151620007dc601f891682620006d0565b8355505b6001600288020188555050505b505050505050565b600082825260208201905092915050565b7f5a65726f20616e64206e656761746976652076616c756573206e6f742073757060008201527f706f727465640000000000000000000000000000000000000000000000000000602082015250565b600062000864602683620007f5565b9150620008718262000806565b604082019050919050565b60006020820190508181036000830152620008978162000855565b9050919050565b7f4d696e74696e672064697361626c656400000000000000000000000000000000600082015250565b6000620008d6601083620007f5565b9150620008e3826200089e565b602082019050919050565b600060208201905081810360008301526200090981620008c7565b9050919050565b7f4e487b7100000000000000000000000000000000000000000000000000000000600052601160045260246000fd5b60006200094c82620005ba565b91506200095983620005ba565b925082820190508082111562000974576200097362000910565b5b92915050565b7f4e6f206d6f726520746f6b656e732063616e206265206d696e74656400000000600082015250565b6000620009b2601c83620007f5565b9150620009bf826200097a565b602082019050919050565b60006020820190508181036000830152620009e581620009a3565b9050919050565b7f41646472657373206e6f7420737570706f727465640000000000000000000000600082015250565b600062000a24601583620007f5565b915062000a3182620009ec565b602082019050919050565b6000602082019050818103600083015262000a578162000a15565b9050919050565b62000a6981620005ba565b82525050565b600060208201905062000a86600083018462000a5e565b92915050565b611c768062000a9c6000396000f3fe608060405234801561001057600080fd5b50600436106101165760003560e01c80637657135c116100a257806395d89b411161007157806395d89b41146102f9578063a457c2d714610317578063a9059cbb14610347578063dd62ed3e14610377578063feb73f8b146103a757610116565b80637657135c1461025d5780637fb8b61e1461028d578063817b1cd2146102bd57806386d1a69f146102db57610116565b806323b872dd116100e957806323b872dd146101a557806327f54462146101d5578063313ce567146101df57806339509351146101fd57806370a082311461022d57610116565b806306fdde031461011b578063095ea7b31461013957806318160ddd14610169578063199cbc5414610187575b600080fd5b6101236103d7565b6040516101309190611543565b60405180910390f35b610153600480360381019061014e91906115fe565b61046c565b6040516101609190611659565b60405180910390f35b610171610488565b60405161017e9190611683565b60405180910390f35b61018f610495565b60405161019c9190611683565b60405180910390f35b6101bf60048036038101906101ba919061169e565b6104a2565b6040516101cc9190611659565b60405180910390f35b6101dd6108d8565b005b6101e76109d4565b6040516101f49190611683565b60405180910390f35b610217600480360381019061021291906115fe565b6109e1565b6040516102249190611659565b60405180910390f35b610247600480360381019061024291906116f1565b610a11565b6040516102549190611683565b60405180910390f35b610277600480360381019061027291906116f1565b610a5a565b6040516102849190611683565b60405180910390f35b6102a760048036038101906102a291906116f1565b610aa3565b6040516102b49190611683565b60405180910390f35b6102c5610aec565b6040516102d29190611683565b60405180910390f35b6102e3610af9565b6040516102f09190611659565b60405180910390f35b610301610e36565b60405161030e9190611543565b60405180910390f35b610331600480360381019061032c91906115fe565b610eca565b60405161033e9190611659565b60405180910390f35b610361600480360381019061035c91906115fe565b610f3a565b60405161036e9190611659565b60405180910390f35b610391600480360381019061038c919061171e565b61121a565b60405161039e9190611683565b60405180910390f35b6103c160048036038101906103bc91906116f1565b6112a1565b6040516103ce9190611683565b60405180910390f35b6060600160000180546103e99061178d565b80601f01602080910402602001604051908101604052809291908181526020018280546104159061178d565b80156104625780601f1061043757610100808354040283529160200191610462565b820191906000526020600020905b81548152906001019060200180831161044557829003601f168201915b5050505050905090565b60008033905061047d8185856112ea565b600191505092915050565b6000600160040154905090565b6000600160050154905090565b6000601360009054906101000a900460ff16156104f4576040517f08c379a00000000000000000000000000000000000000000000000000000000081526004016104eb9061180a565b60405180910390fd5b6001601360006101000a81548160ff02191690831515021790555081600860000160008673ffffffffffffffffffffffffffffffffffffffff1673ffffffffffffffffffffffffffffffffffffffff168152602001908152602001600020541015610594576040517f08c379a000000000000000000000000000000000000000000000000000000000815260040161058b90611876565b60405180910390fd5b81601160008673ffffffffffffffffffffffffffffffffffffffff1673ffffffffffffffffffffffffffffffffffffffff16815260200190815260200160002060003373ffffffffffffffffffffffffffffffffffffffff1673ffffffffffffffffffffffffffffffffffffffff168152602001908152602001600020541015610653576040517f08c379a000000000000000000000000000000000000000000000000000000000815260040161064a90611908565b60405180910390fd5b81600860000160008673ffffffffffffffffffffffffffffffffffffffff1673ffffffffffffffffffffffffffffffffffffffff16815260200190815260200160002060008282546106a59190611957565b9250508190555081600860030160008673ffffffffffffffffffffffffffffffffffffffff1673ffffffffffffffffffffffffffffffffffffffff16815260200190815260200160002060008282546106fe9190611957565b9250508190555081600860000160008573ffffffffffffffffffffffffffffffffffffffff1673ffffffffffffffffffffffffffffffffffffffff1681526020019081526020016000206000828254610757919061198b565b9250508190555081600860030160008573ffffffffffffffffffffffffffffffffffffffff1673ffffffffffffffffffffffffffffffffffffffff16815260200190815260200160002060008282546107b0919061198b565b9250508190555081600860040160008673ffffffffffffffffffffffffffffffffffffffff1673ffffffffffffffffffffffffffffffffffffffff16815260200190815260200160002060003373ffffffffffffffffffffffffffffffffffffffff1673ffffffffffffffffffffffffffffffffffffffff16815260200190815260200160002060008282546108469190611957565b925050819055508273ffffffffffffffffffffffffffffffffffffffff168473ffffffffffffffffffffffffffffffffffffffff167fddf252ad1be2c89b69c2b068fc378daa952ba7f163c4a11628f55a4df523b3ef846040516108aa9190611683565b60405180910390a3600190506000601360006101000a81548160ff0219169083151502179055509392505050565b601260003373ffffffffffffffffffffffffffffffffffffffff1673ffffffffffffffffffffffffffffffffffffffff16815260200190815260200160002060009054906101000a900460ff1661092e57600080fd5b6000601260003373ffffffffffffffffffffffffffffffffffffffff1673ffffffffffffffffffffffffffffffffffffffff16815260200190815260200160002060006101000a81548160ff0219169083151502179055503373ffffffffffffffffffffffffffffffffffffffff167f9f43a01c0d4ff5aff09b3b9b472df707ceefd3f948f8942f10fa1562a89213046040516109ca90611a0b565b60405180910390a2565b6000600160020154905090565b600080339050610a068185856109f7858961121a565b610a01919061198b565b6112ea565b600191505092915050565b6000600d60008373ffffffffffffffffffffffffffffffffffffffff1673ffffffffffffffffffffffffffffffffffffffff168152602001908152602001600020549050919050565b6000600e60008373ffffffffffffffffffffffffffffffffffffffff1673ffffffffffffffffffffffffffffffffffffffff168152602001908152602001600020549050919050565b6000601060008373ffffffffffffffffffffffffffffffffffffffff1673ffffffffffffffffffffffffffffffffffffffff168152602001908152602001600020549050919050565b6000600160060154905090565b6000601360009054906101000a900460ff1615610b4b576040517f08c379a0000000000000000000000000000000000000000000000000000000008152600401610b429061180a565b60405180910390fd5b6001601360006101000a81548160ff0219169083151502179055506000601460003373ffffffffffffffffffffffffffffffffffffffff1673ffffffffffffffffffffffffffffffffffffffff16815260200190815260200160002090506000808280549050811015610e14576000838281548110610bcd57610bcc611a2b565b5b9060005260206000209060040201905080600201544210610c2157600081600301548260000154610bfe9190611957565b9050816000015482600301819055508084610c19919061198b565b935050610ca8565b6000816001015442610c339190611957565b9050600082600101548360020154610c4b9190611957565b90506000836003015482848660000154610c659190611a5a565b610c6f9190611acb565b610c799190611957565b905080846003016000828254610c8f919061198b565b925050819055508086610ca2919061198b565b95505050505b60008311610ceb576040517f08c379a0000000000000000000000000000000000000000000000000000000008152600401610ce290611b48565b60405180910390fd5b8260016005016000828254610d009190611957565b9250508190555082600860000160003373ffffffffffffffffffffffffffffffffffffffff1673ffffffffffffffffffffffffffffffffffffffff1681526020019081526020016000206000828254610d59919061198b565b9250508190555082600860030160003373ffffffffffffffffffffffffffffffffffffffff1673ffffffffffffffffffffffffffffffffffffffff1681526020019081526020016000206000828254610db2919061198b565b925050819055503373ffffffffffffffffffffffffffffffffffffffff167fc7798891864187665ac6dd119286e44ec13f014527aeeb2b8eb3fd413df9317984604051610dff9190611683565b60405180910390a26001945050505050610e18565b5050505b6000601360006101000a81548160ff02191690831515021790555090565b6060600180018054610e479061178d565b80601f0160208091040260200160405190810160405280929190818152602001828054610e739061178d565b8015610ec05780601f10610e9557610100808354040283529160200191610ec0565b820191906000526020600020905b815481529060010190602001808311610ea357829003601f168201915b5050505050905090565b6000803390506000610edc828661121a565b905083811015610f21576040517f08c379a0000000000000000000000000000000000000000000000000000000008152600401610f1890611bb4565b60405180910390fd5b610f2e82868684036112ea565b60019250505092915050565b6000601360009054906101000a900460ff1615610f8c576040517f08c379a0000000000000000000000000000000000000000000000000000000008152600401610f839061180a565b60405180910390fd5b6001601360006101000a81548160ff02191690831515021790555081600860000160003373ffffffffffffffffffffffffffffffffffffffff1673ffffffffffffffffffffffffffffffffffffffff16815260200190815260200160002054101561102c576040517f08c379a000000000000000000000000000000000000000000000000000000000815260040161102390611876565b60405180910390fd5b81600860000160003373ffffffffffffffffffffffffffffffffffffffff1673ffffffffffffffffffffffffffffffffffffffff168152602001908152602001600020600082825461107e9190611957565b9250508190555081600860030160003373ffffffffffffffffffffffffffffffffffffffff1673ffffffffffffffffffffffffffffffffffffffff16815260200190815260200160002060008282546110d79190611957565b9250508190555081600860000160008573ffffffffffffffffffffffffffffffffffffffff1673ffffffffffffffffffffffffffffffffffffffff1681526020019081526020016000206000828254611130919061198b565b9250508190555081600860030160003373ffffffffffffffffffffffffffffffffffffffff1673ffffffffffffffffffffffffffffffffffffffff1681526020019081526020016000206000828254611189919061198b565b925050819055508273ffffffffffffffffffffffffffffffffffffffff163373ffffffffffffffffffffffffffffffffffffffff167fddf252ad1be2c89b69c2b068fc378daa952ba7f163c4a11628f55a4df523b3ef846040516111ed9190611683565b60405180910390a3600190506000601360006101000a81548160ff02191690831515021790555092915050565b6000601160008473ffffffffffffffffffffffffffffffffffffffff1673ffffffffffffffffffffffffffffffffffffffff16815260200190815260200160002060008373ffffffffffffffffffffffffffffffffffffffff1673ffffffffffffffffffffffffffffffffffffffff16815260200190815260200160002054905092915050565b6000600f60008373ffffffffffffffffffffffffffffffffffffffff1673ffffffffffffffffffffffffffffffffffffffff168152602001908152602001600020549050919050565b600073ffffffffffffffffffffffffffffffffffffffff168373ffffffffffffffffffffffffffffffffffffffff1603611359576040517f08c379a000000000000000000000000000000000000000000000000000000000815260040161135090611c20565b60405180910390fd5b600073ffffffffffffffffffffffffffffffffffffffff168273ffffffffffffffffffffffffffffffffffffffff16036113c8576040517f08c379a00000000000000000000000000000000000000000000000000000000081526004016113bf90611c20565b60405180910390fd5b80601160008573ffffffffffffffffffffffffffffffffffffffff1673ffffffffffffffffffffffffffffffffffffffff16815260200190815260200160002060008473ffffffffffffffffffffffffffffffffffffffff1673ffffffffffffffffffffffffffffffffffffffff168152602001908152602001600020819055508173ffffffffffffffffffffffffffffffffffffffff168373ffffffffffffffffffffffffffffffffffffffff167f8c5be1e5ebec7d5bd14f71427d1e84f3dd0314c0f7b2291e5b200ac8c7c3b925836040516114a69190611683565b60405180910390a3505050565b600081519050919050565b600082825260208201905092915050565b60005b838110156114ed5780820151818401526020810190506114d2565b60008484015250505050565b6000601f19601f8301169050919050565b6000611515826114b3565b61151f81856114be565b935061152f8185602086016114cf565b611538816114f9565b840191505092915050565b6000602082019050818103600083015261155d818461150a565b905092915050565b600080fd5b600073ffffffffffffffffffffffffffffffffffffffff82169050919050565b60006115958261156a565b9050919050565b6115a58161158a565b81146115b057600080fd5b50565b6000813590506115c28161159c565b92915050565b6000819050919050565b6115db816115c8565b81146115e657600080fd5b50565b6000813590506115f8816115d2565b92915050565b6000806040838503121561161557611614611565565b5b6000611623858286016115b3565b9250506020611634858286016115e9565b9150509250929050565b60008115159050919050565b6116538161163e565b82525050565b600060208201905061166e600083018461164a565b92915050565b61167d816115c8565b82525050565b60006020820190506116986000830184611674565b92915050565b6000806000606084860312156116b7576116b6611565565b5b60006116c5868287016115b3565b93505060206116d6868287016115b3565b92505060406116e7868287016115e9565b9150509250925092565b60006020828403121561170757611706611565565b5b6000611715848285016115b3565b91505092915050565b6000806040838503121561173557611734611565565b5b6000611743858286016115b3565b9250506020611754858286016115b3565b9150509250929050565b7f4e487b7100000000000000000000000000000000000000000000000000000000600052602260045260246000fd5b600060028204905060018216806117a557607f821691505b6020821081036117b8576117b761175e565b5b50919050565b7f416e74692d7265656e7472616e637920696e20706c6163650000000000000000600082015250565b60006117f46018836114be565b91506117ff826117be565b602082019050919050565b60006020820190508181036000830152611823816117e7565b9050919050565b7f496e73756666696369656e742062616c616e6365000000000000000000000000600082015250565b60006118606014836114be565b915061186b8261182a565b602082019050919050565b6000602082019050818103600083015261188f81611853565b9050919050565b7f5472616e7366657220616d6f756e74206578636565647320616c6c6f77616e6360008201527f6500000000000000000000000000000000000000000000000000000000000000602082015250565b60006118f26021836114be565b91506118fd82611896565b604082019050919050565b60006020820190508181036000830152611921816118e5565b9050919050565b7f4e487b7100000000000000000000000000000000000000000000000000000000600052601160045260246000fd5b6000611962826115c8565b915061196d836115c8565b925082820390508181111561198557611984611928565b5b92915050565b6000611996826115c8565b91506119a1836115c8565b92508282019050808211156119b9576119b8611928565b5b92915050565b7f6973466f756e64696e675465616d000000000000000000000000000000000000600082015250565b60006119f5600e836114be565b9150611a00826119bf565b602082019050919050565b60006020820190508181036000830152611a24816119e8565b9050919050565b7f4e487b7100000000000000000000000000000000000000000000000000000000600052603260045260246000fd5b6000611a65826115c8565b9150611a70836115c8565b9250828202611a7e816115c8565b91508282048414831517611a9557611a94611928565b5b5092915050565b7f4e487b7100000000000000000000000000000000000000000000000000000000600052601260045260246000fd5b6000611ad6826115c8565b9150611ae1836115c8565b925082611af157611af0611a9c565b5b828204905092915050565b7f4e6f20746f6b656e7320746f2072656c65617365000000000000000000000000600082015250565b6000611b326014836114be565b9150611b3d82611afc565b602082019050919050565b60006020820190508181036000830152611b6181611b25565b9050919050565b7f44656372656173656420616c6c6f77616e63652062656c6f77207a65726f0000600082015250565b6000611b9e601e836114be565b9150611ba982611b68565b602082019050919050565b60006020820190508181036000830152611bcd81611b91565b9050919050565b7f417070726f76652066726f6d20746865207a65726f2061646472657373000000600082015250565b6000611c0a601d836114be565b9150611c1582611bd4565b602082019050919050565b60006020820190508181036000830152611c3981611bfd565b905091905056fea2646970667358221220b18f25d9e75066de3b510d56adb3bc794429d75e7c31ca49ef19d6c6fef4a01064736f6c63430008120033",
					"opcodes": "PUSH1 0x80 PUSH1 0x40 MSTORE CALLVALUE DUP1 ISZERO PUSH3 0x11 JUMPI PUSH1 0x0 DUP1 REVERT JUMPDEST POP PUSH1 0x40 MLOAD DUP1 PUSH1 0x40 ADD PUSH1 0x40 MSTORE DUP1 PUSH1 0xC DUP2 MSTORE PUSH1 0x20 ADD PUSH32 0x447265616D636174636865720000000000000000000000000000000000000000 DUP2 MSTORE POP PUSH1 0x1 PUSH1 0x0 ADD SWAP1 DUP2 PUSH3 0x5B SWAP2 SWAP1 PUSH3 0x70E JUMP JUMPDEST POP PUSH1 0x40 MLOAD DUP1 PUSH1 0x40 ADD PUSH1 0x40 MSTORE DUP1 PUSH1 0x5 DUP2 MSTORE PUSH1 0x20 ADD PUSH32 0x445245414D000000000000000000000000000000000000000000000000000000 DUP2 MSTORE POP PUSH1 0x1 DUP1 ADD SWAP1 DUP2 PUSH3 0xA4 SWAP2 SWAP1 PUSH3 0x70E JUMP JUMPDEST POP PUSH1 0x12 PUSH1 0x1 PUSH1 0x2 ADD DUP2 SWAP1 SSTORE POP PUSH3 0x186A0 PUSH1 0x1 PUSH1 0x3 ADD DUP2 SWAP1 SSTORE POP PUSH1 0x0 PUSH1 0x1 PUSH1 0x4 ADD DUP2 SWAP1 SSTORE POP PUSH1 0x0 PUSH1 0x1 PUSH1 0x5 ADD DUP2 SWAP1 SSTORE POP PUSH1 0x0 PUSH1 0x1 PUSH1 0x6 ADD DUP2 SWAP1 SSTORE POP PUSH1 0x1 PUSH1 0x0 DUP1 PUSH2 0x100 EXP DUP2 SLOAD DUP2 PUSH1 0xFF MUL NOT AND SWAP1 DUP4 ISZERO ISZERO MUL OR SWAP1 SSTORE POP PUSH1 0x1 PUSH1 0x0 PUSH1 0x1 PUSH2 0x100 EXP DUP2 SLOAD DUP2 PUSH1 0xFF MUL NOT AND SWAP1 DUP4 ISZERO ISZERO MUL OR SWAP1 SSTORE POP PUSH3 0x140 PUSH20 0xDBF85074764156004FEB245B65693E59A62262C2 PUSH2 0x2710 PUSH4 0xAD08E000 PUSH3 0x1BD PUSH1 0x20 SHL PUSH1 0x20 SHR JUMP JUMPDEST POP PUSH3 0x16E PUSH20 0x172952523F64EAAF288DE4CE9E5D1295DCFD3F83 PUSH2 0x3E8 PUSH4 0x114DB000 PUSH3 0x1BD PUSH1 0x20 SHL PUSH1 0x20 SHR JUMP JUMPDEST POP PUSH3 0x19C PUSH20 0x1DE8807F69E357FD91E47B34DC2A66216A9DC4B4 PUSH2 0x3E8 PUSH4 0x114DB000 PUSH3 0x1BD PUSH1 0x20 SHL PUSH1 0x20 SHR JUMP JUMPDEST POP PUSH3 0x1B6 CALLER PUSH3 0x13880 PUSH3 0x127500 PUSH3 0x1BD PUSH1 0x20 SHL PUSH1 0x20 SHR JUMP JUMPDEST POP PUSH3 0xA8C JUMP JUMPDEST PUSH1 0x0 DUP1 DUP4 GT PUSH3 0x204 JUMPI PUSH1 0x40 MLOAD PUSH32 0x8C379A000000000000000000000000000000000000000000000000000000000 DUP2 MSTORE PUSH1 0x4 ADD PUSH3 0x1FB SWAP1 PUSH3 0x87C JUMP JUMPDEST PUSH1 0x40 MLOAD DUP1 SWAP2 SUB SWAP1 REVERT JUMPDEST PUSH1 0x1 ISZERO ISZERO PUSH1 0x0 DUP1 SLOAD SWAP1 PUSH2 0x100 EXP SWAP1 DIV PUSH1 0xFF AND ISZERO ISZERO EQ PUSH3 0x25B JUMPI PUSH1 0x40 MLOAD PUSH32 0x8C379A000000000000000000000000000000000000000000000000000000000 DUP2 MSTORE PUSH1 0x4 ADD PUSH3 0x252 SWAP1 PUSH3 0x8EE JUMP JUMPDEST PUSH1 0x40 MLOAD DUP1 SWAP2 SUB SWAP1 REVERT JUMPDEST PUSH1 0x1 PUSH1 0x3 ADD SLOAD DUP4 PUSH1 0x1 PUSH1 0x4 ADD SLOAD PUSH3 0x274 SWAP2 SWAP1 PUSH3 0x93F JUMP JUMPDEST GT ISZERO PUSH3 0x2B8 JUMPI PUSH1 0x40 MLOAD PUSH32 0x8C379A000000000000000000000000000000000000000000000000000000000 DUP2 MSTORE PUSH1 0x4 ADD PUSH3 0x2AF SWAP1 PUSH3 0x9CA JUMP JUMPDEST PUSH1 0x40 MLOAD DUP1 SWAP2 SUB SWAP1 REVERT JUMPDEST PUSH1 0x0 PUSH20 0xFFFFFFFFFFFFFFFFFFFFFFFFFFFFFFFFFFFFFFFF AND DUP5 PUSH20 0xFFFFFFFFFFFFFFFFFFFFFFFFFFFFFFFFFFFFFFFF AND SUB PUSH3 0x32A JUMPI PUSH1 0x40 MLOAD PUSH32 0x8C379A000000000000000000000000000000000000000000000000000000000 DUP2 MSTORE PUSH1 0x4 ADD PUSH3 0x321 SWAP1 PUSH3 0xA3C JUMP JUMPDEST PUSH1 0x40 MLOAD DUP1 SWAP2 SUB SWAP1 REVERT JUMPDEST PUSH1 0x0 TIMESTAMP SWAP1 POP PUSH1 0x0 DUP4 DUP3 PUSH3 0x33F SWAP2 SWAP1 PUSH3 0x93F JUMP JUMPDEST SWAP1 POP PUSH1 0x0 PUSH1 0x40 MLOAD DUP1 PUSH1 0x80 ADD PUSH1 0x40 MSTORE DUP1 DUP8 DUP2 MSTORE PUSH1 0x20 ADD DUP5 DUP2 MSTORE PUSH1 0x20 ADD DUP4 DUP2 MSTORE PUSH1 0x20 ADD PUSH1 0x0 DUP2 MSTORE POP SWAP1 POP PUSH1 0x14 PUSH1 0x0 DUP9 PUSH20 0xFFFFFFFFFFFFFFFFFFFFFFFFFFFFFFFFFFFFFFFF AND PUSH20 0xFFFFFFFFFFFFFFFFFFFFFFFFFFFFFFFFFFFFFFFF AND DUP2 MSTORE PUSH1 0x20 ADD SWAP1 DUP2 MSTORE PUSH1 0x20 ADD PUSH1 0x0 KECCAK256 DUP2 SWAP1 DUP1 PUSH1 0x1 DUP2 SLOAD ADD DUP1 DUP3 SSTORE DUP1 SWAP2 POP POP PUSH1 0x1 SWAP1 SUB SWAP1 PUSH1 0x0 MSTORE PUSH1 0x20 PUSH1 0x0 KECCAK256 SWAP1 PUSH1 0x4 MUL ADD PUSH1 0x0 SWAP1 SWAP2 SWAP1 SWAP2 SWAP1 SWAP2 POP PUSH1 0x0 DUP3 ADD MLOAD DUP2 PUSH1 0x0 ADD SSTORE PUSH1 0x20 DUP3 ADD MLOAD DUP2 PUSH1 0x1 ADD SSTORE PUSH1 0x40 DUP3 ADD MLOAD DUP2 PUSH1 0x2 ADD SSTORE PUSH1 0x60 DUP3 ADD MLOAD DUP2 PUSH1 0x3 ADD SSTORE POP POP DUP6 PUSH1 0x1 PUSH1 0x4 ADD PUSH1 0x0 DUP3 DUP3 SLOAD PUSH3 0x411 SWAP2 SWAP1 PUSH3 0x93F JUMP JUMPDEST SWAP3 POP POP DUP2 SWAP1 SSTORE POP DUP6 PUSH1 0x1 PUSH1 0x5 ADD PUSH1 0x0 DUP3 DUP3 SLOAD PUSH3 0x42F SWAP2 SWAP1 PUSH3 0x93F JUMP JUMPDEST SWAP3 POP POP DUP2 SWAP1 SSTORE POP DUP7 PUSH20 0xFFFFFFFFFFFFFFFFFFFFFFFFFFFFFFFFFFFFFFFF AND PUSH32 0xF6798A560793A54C3BCFE86A93CDE1E73087D944C0EA20544137D4121396885 DUP8 PUSH1 0x40 MLOAD PUSH3 0x47E SWAP2 SWAP1 PUSH3 0xA6F JUMP JUMPDEST PUSH1 0x40 MLOAD DUP1 SWAP2 SUB SWAP1 LOG2 PUSH1 0x1 SWAP4 POP POP POP POP SWAP4 SWAP3 POP POP POP JUMP JUMPDEST PUSH1 0x0 DUP2 MLOAD SWAP1 POP SWAP2 SWAP1 POP JUMP JUMPDEST PUSH32 0x4E487B7100000000000000000000000000000000000000000000000000000000 PUSH1 0x0 MSTORE PUSH1 0x41 PUSH1 0x4 MSTORE PUSH1 0x24 PUSH1 0x0 REVERT JUMPDEST PUSH32 0x4E487B7100000000000000000000000000000000000000000000000000000000 PUSH1 0x0 MSTORE PUSH1 0x22 PUSH1 0x4 MSTORE PUSH1 0x24 PUSH1 0x0 REVERT JUMPDEST PUSH1 0x0 PUSH1 0x2 DUP3 DIV SWAP1 POP PUSH1 0x1 DUP3 AND DUP1 PUSH3 0x516 JUMPI PUSH1 0x7F DUP3 AND SWAP2 POP JUMPDEST PUSH1 0x20 DUP3 LT DUP2 SUB PUSH3 0x52C JUMPI PUSH3 0x52B PUSH3 0x4CE JUMP JUMPDEST JUMPDEST POP SWAP2 SWAP1 POP JUMP JUMPDEST PUSH1 0x0 DUP2 SWAP1 POP DUP2 PUSH1 0x0 MSTORE PUSH1 0x20 PUSH1 0x0 KECCAK256 SWAP1 POP SWAP2 SWAP1 POP JUMP JUMPDEST PUSH1 0x0 PUSH1 0x20 PUSH1 0x1F DUP4 ADD DIV SWAP1 POP SWAP2 SWAP1 POP JUMP JUMPDEST PUSH1 0x0 DUP3 DUP3 SHL SWAP1 POP SWAP3 SWAP2 POP POP JUMP JUMPDEST PUSH1 0x0 PUSH1 0x8 DUP4 MUL PUSH3 0x596 PUSH32 0xFFFFFFFFFFFFFFFFFFFFFFFFFFFFFFFFFFFFFFFFFFFFFFFFFFFFFFFFFFFFFFFF DUP3 PUSH3 0x557 JUMP JUMPDEST PUSH3 0x5A2 DUP7 DUP4 PUSH3 0x557 JUMP JUMPDEST SWAP6 POP DUP1 NOT DUP5 AND SWAP4 POP DUP1 DUP7 AND DUP5 OR SWAP3 POP POP POP SWAP4 SWAP3 POP POP POP JUMP JUMPDEST PUSH1 0x0 DUP2 SWAP1 POP SWAP2 SWAP1 POP JUMP JUMPDEST PUSH1 0x0 DUP2 SWAP1 POP SWAP2 SWAP1 POP JUMP JUMPDEST PUSH1 0x0 PUSH3 0x5EF PUSH3 0x5E9 PUSH3 0x5E3 DUP5 PUSH3 0x5BA JUMP JUMPDEST PUSH3 0x5C4 JUMP JUMPDEST PUSH3 0x5BA JUMP JUMPDEST SWAP1 POP SWAP2 SWAP1 POP JUMP JUMPDEST PUSH1 0x0 DUP2 SWAP1 POP SWAP2 SWAP1 POP JUMP JUMPDEST PUSH3 0x60B DUP4 PUSH3 0x5CE JUMP JUMPDEST PUSH3 0x623 PUSH3 0x61A DUP3 PUSH3 0x5F6 JUMP JUMPDEST DUP5 DUP5 SLOAD PUSH3 0x564 JUMP JUMPDEST DUP3 SSTORE POP POP POP POP JUMP JUMPDEST PUSH1 0x0 SWAP1 JUMP JUMPDEST PUSH3 0x63A PUSH3 0x62B JUMP JUMPDEST PUSH3 0x647 DUP2 DUP5 DUP5 PUSH3 0x600 JUMP JUMPDEST POP POP POP JUMP JUMPDEST JUMPDEST DUP2 DUP2 LT ISZERO PUSH3 0x66F JUMPI PUSH3 0x663 PUSH1 0x0 DUP3 PUSH3 0x630 JUMP JUMPDEST PUSH1 0x1 DUP2 ADD SWAP1 POP PUSH3 0x64D JUMP JUMPDEST POP POP JUMP JUMPDEST PUSH1 0x1F DUP3 GT ISZERO PUSH3 0x6BE JUMPI PUSH3 0x688 DUP2 PUSH3 0x532 JUMP JUMPDEST PUSH3 0x693 DUP5 PUSH3 0x547 JUMP JUMPDEST DUP2 ADD PUSH1 0x20 DUP6 LT ISZERO PUSH3 0x6A3 JUMPI DUP2 SWAP1 POP JUMPDEST PUSH3 0x6BB PUSH3 0x6B2 DUP6 PUSH3 0x547 JUMP JUMPDEST DUP4 ADD DUP3 PUSH3 0x64C JUMP JUMPDEST POP POP JUMPDEST POP POP POP JUMP JUMPDEST PUSH1 0x0 DUP3 DUP3 SHR SWAP1 POP SWAP3 SWAP2 POP POP JUMP JUMPDEST PUSH1 0x0 PUSH3 0x6E3 PUSH1 0x0 NOT DUP5 PUSH1 0x8 MUL PUSH3 0x6C3 JUMP JUMPDEST NOT DUP1 DUP4 AND SWAP2 POP POP SWAP3 SWAP2 POP POP JUMP JUMPDEST PUSH1 0x0 PUSH3 0x6FE DUP4 DUP4 PUSH3 0x6D0 JUMP JUMPDEST SWAP2 POP DUP3 PUSH1 0x2 MUL DUP3 OR SWAP1 POP SWAP3 SWAP2 POP POP JUMP JUMPDEST PUSH3 0x719 DUP3 PUSH3 0x494 JUMP JUMPDEST PUSH8 0xFFFFFFFFFFFFFFFF DUP2 GT ISZERO PUSH3 0x735 JUMPI PUSH3 0x734 PUSH3 0x49F JUMP JUMPDEST JUMPDEST PUSH3 0x741 DUP3 SLOAD PUSH3 0x4FD JUMP JUMPDEST PUSH3 0x74E DUP3 DUP3 DUP6 PUSH3 0x673 JUMP JUMPDEST PUSH1 0x0 PUSH1 0x20 SWAP1 POP PUSH1 0x1F DUP4 GT PUSH1 0x1 DUP2 EQ PUSH3 0x786 JUMPI PUSH1 0x0 DUP5 ISZERO PUSH3 0x771 JUMPI DUP3 DUP8 ADD MLOAD SWAP1 POP JUMPDEST PUSH3 0x77D DUP6 DUP3 PUSH3 0x6F0 JUMP JUMPDEST DUP7 SSTORE POP PUSH3 0x7ED JUMP JUMPDEST PUSH1 0x1F NOT DUP5 AND PUSH3 0x796 DUP7 PUSH3 0x532 JUMP JUMPDEST PUSH1 0x0 JUMPDEST DUP3 DUP2 LT ISZERO PUSH3 0x7C0 JUMPI DUP5 DUP10 ADD MLOAD DUP3 SSTORE PUSH1 0x1 DUP3 ADD SWAP2 POP PUSH1 0x20 DUP6 ADD SWAP5 POP PUSH1 0x20 DUP2 ADD SWAP1 POP PUSH3 0x799 JUMP JUMPDEST DUP7 DUP4 LT ISZERO PUSH3 0x7E0 JUMPI DUP5 DUP10 ADD MLOAD PUSH3 0x7DC PUSH1 0x1F DUP10 AND DUP3 PUSH3 0x6D0 JUMP JUMPDEST DUP4 SSTORE POP JUMPDEST PUSH1 0x1 PUSH1 0x2 DUP9 MUL ADD DUP9 SSTORE POP POP POP JUMPDEST POP POP POP POP POP POP JUMP JUMPDEST PUSH1 0x0 DUP3 DUP3 MSTORE PUSH1 0x20 DUP3 ADD SWAP1 POP SWAP3 SWAP2 POP POP JUMP JUMPDEST PUSH32 0x5A65726F20616E64206E656761746976652076616C756573206E6F7420737570 PUSH1 0x0 DUP3 ADD MSTORE PUSH32 0x706F727465640000000000000000000000000000000000000000000000000000 PUSH1 0x20 DUP3 ADD MSTORE POP JUMP JUMPDEST PUSH1 0x0 PUSH3 0x864 PUSH1 0x26 DUP4 PUSH3 0x7F5 JUMP JUMPDEST SWAP2 POP PUSH3 0x871 DUP3 PUSH3 0x806 JUMP JUMPDEST PUSH1 0x40 DUP3 ADD SWAP1 POP SWAP2 SWAP1 POP JUMP JUMPDEST PUSH1 0x0 PUSH1 0x20 DUP3 ADD SWAP1 POP DUP2 DUP2 SUB PUSH1 0x0 DUP4 ADD MSTORE PUSH3 0x897 DUP2 PUSH3 0x855 JUMP JUMPDEST SWAP1 POP SWAP2 SWAP1 POP JUMP JUMPDEST PUSH32 0x4D696E74696E672064697361626C656400000000000000000000000000000000 PUSH1 0x0 DUP3 ADD MSTORE POP JUMP JUMPDEST PUSH1 0x0 PUSH3 0x8D6 PUSH1 0x10 DUP4 PUSH3 0x7F5 JUMP JUMPDEST SWAP2 POP PUSH3 0x8E3 DUP3 PUSH3 0x89E JUMP JUMPDEST PUSH1 0x20 DUP3 ADD SWAP1 POP SWAP2 SWAP1 POP JUMP JUMPDEST PUSH1 0x0 PUSH1 0x20 DUP3 ADD SWAP1 POP DUP2 DUP2 SUB PUSH1 0x0 DUP4 ADD MSTORE PUSH3 0x909 DUP2 PUSH3 0x8C7 JUMP JUMPDEST SWAP1 POP SWAP2 SWAP1 POP JUMP JUMPDEST PUSH32 0x4E487B7100000000000000000000000000000000000000000000000000000000 PUSH1 0x0 MSTORE PUSH1 0x11 PUSH1 0x4 MSTORE PUSH1 0x24 PUSH1 0x0 REVERT JUMPDEST PUSH1 0x0 PUSH3 0x94C DUP3 PUSH3 0x5BA JUMP JUMPDEST SWAP2 POP PUSH3 0x959 DUP4 PUSH3 0x5BA JUMP JUMPDEST SWAP3 POP DUP3 DUP3 ADD SWAP1 POP DUP1 DUP3 GT ISZERO PUSH3 0x974 JUMPI PUSH3 0x973 PUSH3 0x910 JUMP JUMPDEST JUMPDEST SWAP3 SWAP2 POP POP JUMP JUMPDEST PUSH32 0x4E6F206D6F726520746F6B656E732063616E206265206D696E74656400000000 PUSH1 0x0 DUP3 ADD MSTORE POP JUMP JUMPDEST PUSH1 0x0 PUSH3 0x9B2 PUSH1 0x1C DUP4 PUSH3 0x7F5 JUMP JUMPDEST SWAP2 POP PUSH3 0x9BF DUP3 PUSH3 0x97A JUMP JUMPDEST PUSH1 0x20 DUP3 ADD SWAP1 POP SWAP2 SWAP1 POP JUMP JUMPDEST PUSH1 0x0 PUSH1 0x20 DUP3 ADD SWAP1 POP DUP2 DUP2 SUB PUSH1 0x0 DUP4 ADD MSTORE PUSH3 0x9E5 DUP2 PUSH3 0x9A3 JUMP JUMPDEST SWAP1 POP SWAP2 SWAP1 POP JUMP JUMPDEST PUSH32 0x41646472657373206E6F7420737570706F727465640000000000000000000000 PUSH1 0x0 DUP3 ADD MSTORE POP JUMP JUMPDEST PUSH1 0x0 PUSH3 0xA24 PUSH1 0x15 DUP4 PUSH3 0x7F5 JUMP JUMPDEST SWAP2 POP PUSH3 0xA31 DUP3 PUSH3 0x9EC JUMP JUMPDEST PUSH1 0x20 DUP3 ADD SWAP1 POP SWAP2 SWAP1 POP JUMP JUMPDEST PUSH1 0x0 PUSH1 0x20 DUP3 ADD SWAP1 POP DUP2 DUP2 SUB PUSH1 0x0 DUP4 ADD MSTORE PUSH3 0xA57 DUP2 PUSH3 0xA15 JUMP JUMPDEST SWAP1 POP SWAP2 SWAP1 POP JUMP JUMPDEST PUSH3 0xA69 DUP2 PUSH3 0x5BA JUMP JUMPDEST DUP3 MSTORE POP POP JUMP JUMPDEST PUSH1 0x0 PUSH1 0x20 DUP3 ADD SWAP1 POP PUSH3 0xA86 PUSH1 0x0 DUP4 ADD DUP5 PUSH3 0xA5E JUMP JUMPDEST SWAP3 SWAP2 POP POP JUMP JUMPDEST PUSH2 0x1C76 DUP1 PUSH3 0xA9C PUSH1 0x0 CODECOPY PUSH1 0x0 RETURN INVALID PUSH1 0x80 PUSH1 0x40 MSTORE CALLVALUE DUP1 ISZERO PUSH2 0x10 JUMPI PUSH1 0x0 DUP1 REVERT JUMPDEST POP PUSH1 0x4 CALLDATASIZE LT PUSH2 0x116 JUMPI PUSH1 0x0 CALLDATALOAD PUSH1 0xE0 SHR DUP1 PUSH4 0x7657135C GT PUSH2 0xA2 JUMPI DUP1 PUSH4 0x95D89B41 GT PUSH2 0x71 JUMPI DUP1 PUSH4 0x95D89B41 EQ PUSH2 0x2F9 JUMPI DUP1 PUSH4 0xA457C2D7 EQ PUSH2 0x317 JUMPI DUP1 PUSH4 0xA9059CBB EQ PUSH2 0x347 JUMPI DUP1 PUSH4 0xDD62ED3E EQ PUSH2 0x377 JUMPI DUP1 PUSH4 0xFEB73F8B EQ PUSH2 0x3A7 JUMPI PUSH2 0x116 JUMP JUMPDEST DUP1 PUSH4 0x7657135C EQ PUSH2 0x25D JUMPI DUP1 PUSH4 0x7FB8B61E EQ PUSH2 0x28D JUMPI DUP1 PUSH4 0x817B1CD2 EQ PUSH2 0x2BD JUMPI DUP1 PUSH4 0x86D1A69F EQ PUSH2 0x2DB JUMPI PUSH2 0x116 JUMP JUMPDEST DUP1 PUSH4 0x23B872DD GT PUSH2 0xE9 JUMPI DUP1 PUSH4 0x23B872DD EQ PUSH2 0x1A5 JUMPI DUP1 PUSH4 0x27F54462 EQ PUSH2 0x1D5 JUMPI DUP1 PUSH4 0x313CE567 EQ PUSH2 0x1DF JUMPI DUP1 PUSH4 0x39509351 EQ PUSH2 0x1FD JUMPI DUP1 PUSH4 0x70A08231 EQ PUSH2 0x22D JUMPI PUSH2 0x116 JUMP JUMPDEST DUP1 PUSH4 0x6FDDE03 EQ PUSH2 0x11B JUMPI DUP1 PUSH4 0x95EA7B3 EQ PUSH2 0x139 JUMPI DUP1 PUSH4 0x18160DDD EQ PUSH2 0x169 JUMPI DUP1 PUSH4 0x199CBC54 EQ PUSH2 0x187 JUMPI JUMPDEST PUSH1 0x0 DUP1 REVERT JUMPDEST PUSH2 0x123 PUSH2 0x3D7 JUMP JUMPDEST PUSH1 0x40 MLOAD PUSH2 0x130 SWAP2 SWAP1 PUSH2 0x1543 JUMP JUMPDEST PUSH1 0x40 MLOAD DUP1 SWAP2 SUB SWAP1 RETURN JUMPDEST PUSH2 0x153 PUSH1 0x4 DUP1 CALLDATASIZE SUB DUP2 ADD SWAP1 PUSH2 0x14E SWAP2 SWAP1 PUSH2 0x15FE JUMP JUMPDEST PUSH2 0x46C JUMP JUMPDEST PUSH1 0x40 MLOAD PUSH2 0x160 SWAP2 SWAP1 PUSH2 0x1659 JUMP JUMPDEST PUSH1 0x40 MLOAD DUP1 SWAP2 SUB SWAP1 RETURN JUMPDEST PUSH2 0x171 PUSH2 0x488 JUMP JUMPDEST PUSH1 0x40 MLOAD PUSH2 0x17E SWAP2 SWAP1 PUSH2 0x1683 JUMP JUMPDEST PUSH1 0x40 MLOAD DUP1 SWAP2 SUB SWAP1 RETURN JUMPDEST PUSH2 0x18F PUSH2 0x495 JUMP JUMPDEST PUSH1 0x40 MLOAD PUSH2 0x19C SWAP2 SWAP1 PUSH2 0x1683 JUMP JUMPDEST PUSH1 0x40 MLOAD DUP1 SWAP2 SUB SWAP1 RETURN JUMPDEST PUSH2 0x1BF PUSH1 0x4 DUP1 CALLDATASIZE SUB DUP2 ADD SWAP1 PUSH2 0x1BA SWAP2 SWAP1 PUSH2 0x169E JUMP JUMPDEST PUSH2 0x4A2 JUMP JUMPDEST PUSH1 0x40 MLOAD PUSH2 0x1CC SWAP2 SWAP1 PUSH2 0x1659 JUMP JUMPDEST PUSH1 0x40 MLOAD DUP1 SWAP2 SUB SWAP1 RETURN JUMPDEST PUSH2 0x1DD PUSH2 0x8D8 JUMP JUMPDEST STOP JUMPDEST PUSH2 0x1E7 PUSH2 0x9D4 JUMP JUMPDEST PUSH1 0x40 MLOAD PUSH2 0x1F4 SWAP2 SWAP1 PUSH2 0x1683 JUMP JUMPDEST PUSH1 0x40 MLOAD DUP1 SWAP2 SUB SWAP1 RETURN JUMPDEST PUSH2 0x217 PUSH1 0x4 DUP1 CALLDATASIZE SUB DUP2 ADD SWAP1 PUSH2 0x212 SWAP2 SWAP1 PUSH2 0x15FE JUMP JUMPDEST PUSH2 0x9E1 JUMP JUMPDEST PUSH1 0x40 MLOAD PUSH2 0x224 SWAP2 SWAP1 PUSH2 0x1659 JUMP JUMPDEST PUSH1 0x40 MLOAD DUP1 SWAP2 SUB SWAP1 RETURN JUMPDEST PUSH2 0x247 PUSH1 0x4 DUP1 CALLDATASIZE SUB DUP2 ADD SWAP1 PUSH2 0x242 SWAP2 SWAP1 PUSH2 0x16F1 JUMP JUMPDEST PUSH2 0xA11 JUMP JUMPDEST PUSH1 0x40 MLOAD PUSH2 0x254 SWAP2 SWAP1 PUSH2 0x1683 JUMP JUMPDEST PUSH1 0x40 MLOAD DUP1 SWAP2 SUB SWAP1 RETURN JUMPDEST PUSH2 0x277 PUSH1 0x4 DUP1 CALLDATASIZE SUB DUP2 ADD SWAP1 PUSH2 0x272 SWAP2 SWAP1 PUSH2 0x16F1 JUMP JUMPDEST PUSH2 0xA5A JUMP JUMPDEST PUSH1 0x40 MLOAD PUSH2 0x284 SWAP2 SWAP1 PUSH2 0x1683 JUMP JUMPDEST PUSH1 0x40 MLOAD DUP1 SWAP2 SUB SWAP1 RETURN JUMPDEST PUSH2 0x2A7 PUSH1 0x4 DUP1 CALLDATASIZE SUB DUP2 ADD SWAP1 PUSH2 0x2A2 SWAP2 SWAP1 PUSH2 0x16F1 JUMP JUMPDEST PUSH2 0xAA3 JUMP JUMPDEST PUSH1 0x40 MLOAD PUSH2 0x2B4 SWAP2 SWAP1 PUSH2 0x1683 JUMP JUMPDEST PUSH1 0x40 MLOAD DUP1 SWAP2 SUB SWAP1 RETURN JUMPDEST PUSH2 0x2C5 PUSH2 0xAEC JUMP JUMPDEST PUSH1 0x40 MLOAD PUSH2 0x2D2 SWAP2 SWAP1 PUSH2 0x1683 JUMP JUMPDEST PUSH1 0x40 MLOAD DUP1 SWAP2 SUB SWAP1 RETURN JUMPDEST PUSH2 0x2E3 PUSH2 0xAF9 JUMP JUMPDEST PUSH1 0x40 MLOAD PUSH2 0x2F0 SWAP2 SWAP1 PUSH2 0x1659 JUMP JUMPDEST PUSH1 0x40 MLOAD DUP1 SWAP2 SUB SWAP1 RETURN JUMPDEST PUSH2 0x301 PUSH2 0xE36 JUMP JUMPDEST PUSH1 0x40 MLOAD PUSH2 0x30E SWAP2 SWAP1 PUSH2 0x1543 JUMP JUMPDEST PUSH1 0x40 MLOAD DUP1 SWAP2 SUB SWAP1 RETURN JUMPDEST PUSH2 0x331 PUSH1 0x4 DUP1 CALLDATASIZE SUB DUP2 ADD SWAP1 PUSH2 0x32C SWAP2 SWAP1 PUSH2 0x15FE JUMP JUMPDEST PUSH2 0xECA JUMP JUMPDEST PUSH1 0x40 MLOAD PUSH2 0x33E SWAP2 SWAP1 PUSH2 0x1659 JUMP JUMPDEST PUSH1 0x40 MLOAD DUP1 SWAP2 SUB SWAP1 RETURN JUMPDEST PUSH2 0x361 PUSH1 0x4 DUP1 CALLDATASIZE SUB DUP2 ADD SWAP1 PUSH2 0x35C SWAP2 SWAP1 PUSH2 0x15FE JUMP JUMPDEST PUSH2 0xF3A JUMP JUMPDEST PUSH1 0x40 MLOAD PUSH2 0x36E SWAP2 SWAP1 PUSH2 0x1659 JUMP JUMPDEST PUSH1 0x40 MLOAD DUP1 SWAP2 SUB SWAP1 RETURN JUMPDEST PUSH2 0x391 PUSH1 0x4 DUP1 CALLDATASIZE SUB DUP2 ADD SWAP1 PUSH2 0x38C SWAP2 SWAP1 PUSH2 0x171E JUMP JUMPDEST PUSH2 0x121A JUMP JUMPDEST PUSH1 0x40 MLOAD PUSH2 0x39E SWAP2 SWAP1 PUSH2 0x1683 JUMP JUMPDEST PUSH1 0x40 MLOAD DUP1 SWAP2 SUB SWAP1 RETURN JUMPDEST PUSH2 0x3C1 PUSH1 0x4 DUP1 CALLDATASIZE SUB DUP2 ADD SWAP1 PUSH2 0x3BC SWAP2 SWAP1 PUSH2 0x16F1 JUMP JUMPDEST PUSH2 0x12A1 JUMP JUMPDEST PUSH1 0x40 MLOAD PUSH2 0x3CE SWAP2 SWAP1 PUSH2 0x1683 JUMP JUMPDEST PUSH1 0x40 MLOAD DUP1 SWAP2 SUB SWAP1 RETURN JUMPDEST PUSH1 0x60 PUSH1 0x1 PUSH1 0x0 ADD DUP1 SLOAD PUSH2 0x3E9 SWAP1 PUSH2 0x178D JUMP JUMPDEST DUP1 PUSH1 0x1F ADD PUSH1 0x20 DUP1 SWAP2 DIV MUL PUSH1 0x20 ADD PUSH1 0x40 MLOAD SWAP1 DUP2 ADD PUSH1 0x40 MSTORE DUP1 SWAP3 SWAP2 SWAP1 DUP2 DUP2 MSTORE PUSH1 0x20 ADD DUP3 DUP1 SLOAD PUSH2 0x415 SWAP1 PUSH2 0x178D JUMP JUMPDEST DUP1 ISZERO PUSH2 0x462 JUMPI DUP1 PUSH1 0x1F LT PUSH2 0x437 JUMPI PUSH2 0x100 DUP1 DUP4 SLOAD DIV MUL DUP4 MSTORE SWAP2 PUSH1 0x20 ADD SWAP2 PUSH2 0x462 JUMP JUMPDEST DUP3 ADD SWAP2 SWAP1 PUSH1 0x0 MSTORE PUSH1 0x20 PUSH1 0x0 KECCAK256 SWAP1 JUMPDEST DUP2 SLOAD DUP2 MSTORE SWAP1 PUSH1 0x1 ADD SWAP1 PUSH1 0x20 ADD DUP1 DUP4 GT PUSH2 0x445 JUMPI DUP3 SWAP1 SUB PUSH1 0x1F AND DUP3 ADD SWAP2 JUMPDEST POP POP POP POP POP SWAP1 POP SWAP1 JUMP JUMPDEST PUSH1 0x0 DUP1 CALLER SWAP1 POP PUSH2 0x47D DUP2 DUP6 DUP6 PUSH2 0x12EA JUMP JUMPDEST PUSH1 0x1 SWAP2 POP POP SWAP3 SWAP2 POP POP JUMP JUMPDEST PUSH1 0x0 PUSH1 0x1 PUSH1 0x4 ADD SLOAD SWAP1 POP SWAP1 JUMP JUMPDEST PUSH1 0x0 PUSH1 0x1 PUSH1 0x5 ADD SLOAD SWAP1 POP SWAP1 JUMP JUMPDEST PUSH1 0x0 PUSH1 0x13 PUSH1 0x0 SWAP1 SLOAD SWAP1 PUSH2 0x100 EXP SWAP1 DIV PUSH1 0xFF AND ISZERO PUSH2 0x4F4 JUMPI PUSH1 0x40 MLOAD PUSH32 0x8C379A000000000000000000000000000000000000000000000000000000000 DUP2 MSTORE PUSH1 0x4 ADD PUSH2 0x4EB SWAP1 PUSH2 0x180A JUMP JUMPDEST PUSH1 0x40 MLOAD DUP1 SWAP2 SUB SWAP1 REVERT JUMPDEST PUSH1 0x1 PUSH1 0x13 PUSH1 0x0 PUSH2 0x100 EXP DUP2 SLOAD DUP2 PUSH1 0xFF MUL NOT AND SWAP1 DUP4 ISZERO ISZERO MUL OR SWAP1 SSTORE POP DUP2 PUSH1 0x8 PUSH1 0x0 ADD PUSH1 0x0 DUP7 PUSH20 0xFFFFFFFFFFFFFFFFFFFFFFFFFFFFFFFFFFFFFFFF AND PUSH20 0xFFFFFFFFFFFFFFFFFFFFFFFFFFFFFFFFFFFFFFFF AND DUP2 MSTORE PUSH1 0x20 ADD SWAP1 DUP2 MSTORE PUSH1 0x20 ADD PUSH1 0x0 KECCAK256 SLOAD LT ISZERO PUSH2 0x594 JUMPI PUSH1 0x40 MLOAD PUSH32 0x8C379A000000000000000000000000000000000000000000000000000000000 DUP2 MSTORE PUSH1 0x4 ADD PUSH2 0x58B SWAP1 PUSH2 0x1876 JUMP JUMPDEST PUSH1 0x40 MLOAD DUP1 SWAP2 SUB SWAP1 REVERT JUMPDEST DUP2 PUSH1 0x11 PUSH1 0x0 DUP7 PUSH20 0xFFFFFFFFFFFFFFFFFFFFFFFFFFFFFFFFFFFFFFFF AND PUSH20 0xFFFFFFFFFFFFFFFFFFFFFFFFFFFFFFFFFFFFFFFF AND DUP2 MSTORE PUSH1 0x20 ADD SWAP1 DUP2 MSTORE PUSH1 0x20 ADD PUSH1 0x0 KECCAK256 PUSH1 0x0 CALLER PUSH20 0xFFFFFFFFFFFFFFFFFFFFFFFFFFFFFFFFFFFFFFFF AND PUSH20 0xFFFFFFFFFFFFFFFFFFFFFFFFFFFFFFFFFFFFFFFF AND DUP2 MSTORE PUSH1 0x20 ADD SWAP1 DUP2 MSTORE PUSH1 0x20 ADD PUSH1 0x0 KECCAK256 SLOAD LT ISZERO PUSH2 0x653 JUMPI PUSH1 0x40 MLOAD PUSH32 0x8C379A000000000000000000000000000000000000000000000000000000000 DUP2 MSTORE PUSH1 0x4 ADD PUSH2 0x64A SWAP1 PUSH2 0x1908 JUMP JUMPDEST PUSH1 0x40 MLOAD DUP1 SWAP2 SUB SWAP1 REVERT JUMPDEST DUP2 PUSH1 0x8 PUSH1 0x0 ADD PUSH1 0x0 DUP7 PUSH20 0xFFFFFFFFFFFFFFFFFFFFFFFFFFFFFFFFFFFFFFFF AND PUSH20 0xFFFFFFFFFFFFFFFFFFFFFFFFFFFFFFFFFFFFFFFF AND DUP2 MSTORE PUSH1 0x20 ADD SWAP1 DUP2 MSTORE PUSH1 0x20 ADD PUSH1 0x0 KECCAK256 PUSH1 0x0 DUP3 DUP3 SLOAD PUSH2 0x6A5 SWAP2 SWAP1 PUSH2 0x1957 JUMP JUMPDEST SWAP3 POP POP DUP2 SWAP1 SSTORE POP DUP2 PUSH1 0x8 PUSH1 0x3 ADD PUSH1 0x0 DUP7 PUSH20 0xFFFFFFFFFFFFFFFFFFFFFFFFFFFFFFFFFFFFFFFF AND PUSH20 0xFFFFFFFFFFFFFFFFFFFFFFFFFFFFFFFFFFFFFFFF AND DUP2 MSTORE PUSH1 0x20 ADD SWAP1 DUP2 MSTORE PUSH1 0x20 ADD PUSH1 0x0 KECCAK256 PUSH1 0x0 DUP3 DUP3 SLOAD PUSH2 0x6FE SWAP2 SWAP1 PUSH2 0x1957 JUMP JUMPDEST SWAP3 POP POP DUP2 SWAP1 SSTORE POP DUP2 PUSH1 0x8 PUSH1 0x0 ADD PUSH1 0x0 DUP6 PUSH20 0xFFFFFFFFFFFFFFFFFFFFFFFFFFFFFFFFFFFFFFFF AND PUSH20 0xFFFFFFFFFFFFFFFFFFFFFFFFFFFFFFFFFFFFFFFF AND DUP2 MSTORE PUSH1 0x20 ADD SWAP1 DUP2 MSTORE PUSH1 0x20 ADD PUSH1 0x0 KECCAK256 PUSH1 0x0 DUP3 DUP3 SLOAD PUSH2 0x757 SWAP2 SWAP1 PUSH2 0x198B JUMP JUMPDEST SWAP3 POP POP DUP2 SWAP1 SSTORE POP DUP2 PUSH1 0x8 PUSH1 0x3 ADD PUSH1 0x0 DUP6 PUSH20 0xFFFFFFFFFFFFFFFFFFFFFFFFFFFFFFFFFFFFFFFF AND PUSH20 0xFFFFFFFFFFFFFFFFFFFFFFFFFFFFFFFFFFFFFFFF AND DUP2 MSTORE PUSH1 0x20 ADD SWAP1 DUP2 MSTORE PUSH1 0x20 ADD PUSH1 0x0 KECCAK256 PUSH1 0x0 DUP3 DUP3 SLOAD PUSH2 0x7B0 SWAP2 SWAP1 PUSH2 0x198B JUMP JUMPDEST SWAP3 POP POP DUP2 SWAP1 SSTORE POP DUP2 PUSH1 0x8 PUSH1 0x4 ADD PUSH1 0x0 DUP7 PUSH20 0xFFFFFFFFFFFFFFFFFFFFFFFFFFFFFFFFFFFFFFFF AND PUSH20 0xFFFFFFFFFFFFFFFFFFFFFFFFFFFFFFFFFFFFFFFF AND DUP2 MSTORE PUSH1 0x20 ADD SWAP1 DUP2 MSTORE PUSH1 0x20 ADD PUSH1 0x0 KECCAK256 PUSH1 0x0 CALLER PUSH20 0xFFFFFFFFFFFFFFFFFFFFFFFFFFFFFFFFFFFFFFFF AND PUSH20 0xFFFFFFFFFFFFFFFFFFFFFFFFFFFFFFFFFFFFFFFF AND DUP2 MSTORE PUSH1 0x20 ADD SWAP1 DUP2 MSTORE PUSH1 0x20 ADD PUSH1 0x0 KECCAK256 PUSH1 0x0 DUP3 DUP3 SLOAD PUSH2 0x846 SWAP2 SWAP1 PUSH2 0x1957 JUMP JUMPDEST SWAP3 POP POP DUP2 SWAP1 SSTORE POP DUP3 PUSH20 0xFFFFFFFFFFFFFFFFFFFFFFFFFFFFFFFFFFFFFFFF AND DUP5 PUSH20 0xFFFFFFFFFFFFFFFFFFFFFFFFFFFFFFFFFFFFFFFF AND PUSH32 0xDDF252AD1BE2C89B69C2B068FC378DAA952BA7F163C4A11628F55A4DF523B3EF DUP5 PUSH1 0x40 MLOAD PUSH2 0x8AA SWAP2 SWAP1 PUSH2 0x1683 JUMP JUMPDEST PUSH1 0x40 MLOAD DUP1 SWAP2 SUB SWAP1 LOG3 PUSH1 0x1 SWAP1 POP PUSH1 0x0 PUSH1 0x13 PUSH1 0x0 PUSH2 0x100 EXP DUP2 SLOAD DUP2 PUSH1 0xFF MUL NOT AND SWAP1 DUP4 ISZERO ISZERO MUL OR SWAP1 SSTORE POP SWAP4 SWAP3 POP POP POP JUMP JUMPDEST PUSH1 0x12 PUSH1 0x0 CALLER PUSH20 0xFFFFFFFFFFFFFFFFFFFFFFFFFFFFFFFFFFFFFFFF AND PUSH20 0xFFFFFFFFFFFFFFFFFFFFFFFFFFFFFFFFFFFFFFFF AND DUP2 MSTORE PUSH1 0x20 ADD SWAP1 DUP2 MSTORE PUSH1 0x20 ADD PUSH1 0x0 KECCAK256 PUSH1 0x0 SWAP1 SLOAD SWAP1 PUSH2 0x100 EXP SWAP1 DIV PUSH1 0xFF AND PUSH2 0x92E JUMPI PUSH1 0x0 DUP1 REVERT JUMPDEST PUSH1 0x0 PUSH1 0x12 PUSH1 0x0 CALLER PUSH20 0xFFFFFFFFFFFFFFFFFFFFFFFFFFFFFFFFFFFFFFFF AND PUSH20 0xFFFFFFFFFFFFFFFFFFFFFFFFFFFFFFFFFFFFFFFF AND DUP2 MSTORE PUSH1 0x20 ADD SWAP1 DUP2 MSTORE PUSH1 0x20 ADD PUSH1 0x0 KECCAK256 PUSH1 0x0 PUSH2 0x100 EXP DUP2 SLOAD DUP2 PUSH1 0xFF MUL NOT AND SWAP1 DUP4 ISZERO ISZERO MUL OR SWAP1 SSTORE POP CALLER PUSH20 0xFFFFFFFFFFFFFFFFFFFFFFFFFFFFFFFFFFFFFFFF AND PUSH32 0x9F43A01C0D4FF5AFF09B3B9B472DF707CEEFD3F948F8942F10FA1562A8921304 PUSH1 0x40 MLOAD PUSH2 0x9CA SWAP1 PUSH2 0x1A0B JUMP JUMPDEST PUSH1 0x40 MLOAD DUP1 SWAP2 SUB SWAP1 LOG2 JUMP JUMPDEST PUSH1 0x0 PUSH1 0x1 PUSH1 0x2 ADD SLOAD SWAP1 POP SWAP1 JUMP JUMPDEST PUSH1 0x0 DUP1 CALLER SWAP1 POP PUSH2 0xA06 DUP2 DUP6 DUP6 PUSH2 0x9F7 DUP6 DUP10 PUSH2 0x121A JUMP JUMPDEST PUSH2 0xA01 SWAP2 SWAP1 PUSH2 0x198B JUMP JUMPDEST PUSH2 0x12EA JUMP JUMPDEST PUSH1 0x1 SWAP2 POP POP SWAP3 SWAP2 POP POP JUMP JUMPDEST PUSH1 0x0 PUSH1 0xD PUSH1 0x0 DUP4 PUSH20 0xFFFFFFFFFFFFFFFFFFFFFFFFFFFFFFFFFFFFFFFF AND PUSH20 0xFFFFFFFFFFFFFFFFFFFFFFFFFFFFFFFFFFFFFFFF AND DUP2 MSTORE PUSH1 0x20 ADD SWAP1 DUP2 MSTORE PUSH1 0x20 ADD PUSH1 0x0 KECCAK256 SLOAD SWAP1 POP SWAP2 SWAP1 POP JUMP JUMPDEST PUSH1 0x0 PUSH1 0xE PUSH1 0x0 DUP4 PUSH20 0xFFFFFFFFFFFFFFFFFFFFFFFFFFFFFFFFFFFFFFFF AND PUSH20 0xFFFFFFFFFFFFFFFFFFFFFFFFFFFFFFFFFFFFFFFF AND DUP2 MSTORE PUSH1 0x20 ADD SWAP1 DUP2 MSTORE PUSH1 0x20 ADD PUSH1 0x0 KECCAK256 SLOAD SWAP1 POP SWAP2 SWAP1 POP JUMP JUMPDEST PUSH1 0x0 PUSH1 0x10 PUSH1 0x0 DUP4 PUSH20 0xFFFFFFFFFFFFFFFFFFFFFFFFFFFFFFFFFFFFFFFF AND PUSH20 0xFFFFFFFFFFFFFFFFFFFFFFFFFFFFFFFFFFFFFFFF AND DUP2 MSTORE PUSH1 0x20 ADD SWAP1 DUP2 MSTORE PUSH1 0x20 ADD PUSH1 0x0 KECCAK256 SLOAD SWAP1 POP SWAP2 SWAP1 POP JUMP JUMPDEST PUSH1 0x0 PUSH1 0x1 PUSH1 0x6 ADD SLOAD SWAP1 POP SWAP1 JUMP JUMPDEST PUSH1 0x0 PUSH1 0x13 PUSH1 0x0 SWAP1 SLOAD SWAP1 PUSH2 0x100 EXP SWAP1 DIV PUSH1 0xFF AND ISZERO PUSH2 0xB4B JUMPI PUSH1 0x40 MLOAD PUSH32 0x8C379A000000000000000000000000000000000000000000000000000000000 DUP2 MSTORE PUSH1 0x4 ADD PUSH2 0xB42 SWAP1 PUSH2 0x180A JUMP JUMPDEST PUSH1 0x40 MLOAD DUP1 SWAP2 SUB SWAP1 REVERT JUMPDEST PUSH1 0x1 PUSH1 0x13 PUSH1 0x0 PUSH2 0x100 EXP DUP2 SLOAD DUP2 PUSH1 0xFF MUL NOT AND SWAP1 DUP4 ISZERO ISZERO MUL OR SWAP1 SSTORE POP PUSH1 0x0 PUSH1 0x14 PUSH1 0x0 CALLER PUSH20 0xFFFFFFFFFFFFFFFFFFFFFFFFFFFFFFFFFFFFFFFF AND PUSH20 0xFFFFFFFFFFFFFFFFFFFFFFFFFFFFFFFFFFFFFFFF AND DUP2 MSTORE PUSH1 0x20 ADD SWAP1 DUP2 MSTORE PUSH1 0x20 ADD PUSH1 0x0 KECCAK256 SWAP1 POP PUSH1 0x0 DUP1 DUP3 DUP1 SLOAD SWAP1 POP DUP2 LT ISZERO PUSH2 0xE14 JUMPI PUSH1 0x0 DUP4 DUP3 DUP2 SLOAD DUP2 LT PUSH2 0xBCD JUMPI PUSH2 0xBCC PUSH2 0x1A2B JUMP JUMPDEST JUMPDEST SWAP1 PUSH1 0x0 MSTORE PUSH1 0x20 PUSH1 0x0 KECCAK256 SWAP1 PUSH1 0x4 MUL ADD SWAP1 POP DUP1 PUSH1 0x2 ADD SLOAD TIMESTAMP LT PUSH2 0xC21 JUMPI PUSH1 0x0 DUP2 PUSH1 0x3 ADD SLOAD DUP3 PUSH1 0x0 ADD SLOAD PUSH2 0xBFE SWAP2 SWAP1 PUSH2 0x1957 JUMP JUMPDEST SWAP1 POP DUP2 PUSH1 0x0 ADD SLOAD DUP3 PUSH1 0x3 ADD DUP2 SWAP1 SSTORE POP DUP1 DUP5 PUSH2 0xC19 SWAP2 SWAP1 PUSH2 0x198B JUMP JUMPDEST SWAP4 POP POP PUSH2 0xCA8 JUMP JUMPDEST PUSH1 0x0 DUP2 PUSH1 0x1 ADD SLOAD TIMESTAMP PUSH2 0xC33 SWAP2 SWAP1 PUSH2 0x1957 JUMP JUMPDEST SWAP1 POP PUSH1 0x0 DUP3 PUSH1 0x1 ADD SLOAD DUP4 PUSH1 0x2 ADD SLOAD PUSH2 0xC4B SWAP2 SWAP1 PUSH2 0x1957 JUMP JUMPDEST SWAP1 POP PUSH1 0x0 DUP4 PUSH1 0x3 ADD SLOAD DUP3 DUP5 DUP7 PUSH1 0x0 ADD SLOAD PUSH2 0xC65 SWAP2 SWAP1 PUSH2 0x1A5A JUMP JUMPDEST PUSH2 0xC6F SWAP2 SWAP1 PUSH2 0x1ACB JUMP JUMPDEST PUSH2 0xC79 SWAP2 SWAP1 PUSH2 0x1957 JUMP JUMPDEST SWAP1 POP DUP1 DUP5 PUSH1 0x3 ADD PUSH1 0x0 DUP3 DUP3 SLOAD PUSH2 0xC8F SWAP2 SWAP1 PUSH2 0x198B JUMP JUMPDEST SWAP3 POP POP DUP2 SWAP1 SSTORE POP DUP1 DUP7 PUSH2 0xCA2 SWAP2 SWAP1 PUSH2 0x198B JUMP JUMPDEST SWAP6 POP POP POP POP JUMPDEST PUSH1 0x0 DUP4 GT PUSH2 0xCEB JUMPI PUSH1 0x40 MLOAD PUSH32 0x8C379A000000000000000000000000000000000000000000000000000000000 DUP2 MSTORE PUSH1 0x4 ADD PUSH2 0xCE2 SWAP1 PUSH2 0x1B48 JUMP JUMPDEST PUSH1 0x40 MLOAD DUP1 SWAP2 SUB SWAP1 REVERT JUMPDEST DUP3 PUSH1 0x1 PUSH1 0x5 ADD PUSH1 0x0 DUP3 DUP3 SLOAD PUSH2 0xD00 SWAP2 SWAP1 PUSH2 0x1957 JUMP JUMPDEST SWAP3 POP POP DUP2 SWAP1 SSTORE POP DUP3 PUSH1 0x8 PUSH1 0x0 ADD PUSH1 0x0 CALLER PUSH20 0xFFFFFFFFFFFFFFFFFFFFFFFFFFFFFFFFFFFFFFFF AND PUSH20 0xFFFFFFFFFFFFFFFFFFFFFFFFFFFFFFFFFFFFFFFF AND DUP2 MSTORE PUSH1 0x20 ADD SWAP1 DUP2 MSTORE PUSH1 0x20 ADD PUSH1 0x0 KECCAK256 PUSH1 0x0 DUP3 DUP3 SLOAD PUSH2 0xD59 SWAP2 SWAP1 PUSH2 0x198B JUMP JUMPDEST SWAP3 POP POP DUP2 SWAP1 SSTORE POP DUP3 PUSH1 0x8 PUSH1 0x3 ADD PUSH1 0x0 CALLER PUSH20 0xFFFFFFFFFFFFFFFFFFFFFFFFFFFFFFFFFFFFFFFF AND PUSH20 0xFFFFFFFFFFFFFFFFFFFFFFFFFFFFFFFFFFFFFFFF AND DUP2 MSTORE PUSH1 0x20 ADD SWAP1 DUP2 MSTORE PUSH1 0x20 ADD PUSH1 0x0 KECCAK256 PUSH1 0x0 DUP3 DUP3 SLOAD PUSH2 0xDB2 SWAP2 SWAP1 PUSH2 0x198B JUMP JUMPDEST SWAP3 POP POP DUP2 SWAP1 SSTORE POP CALLER PUSH20 0xFFFFFFFFFFFFFFFFFFFFFFFFFFFFFFFFFFFFFFFF AND PUSH32 0xC7798891864187665AC6DD119286E44EC13F014527AEEB2B8EB3FD413DF93179 DUP5 PUSH1 0x40 MLOAD PUSH2 0xDFF SWAP2 SWAP1 PUSH2 0x1683 JUMP JUMPDEST PUSH1 0x40 MLOAD DUP1 SWAP2 SUB SWAP1 LOG2 PUSH1 0x1 SWAP5 POP POP POP POP POP PUSH2 0xE18 JUMP JUMPDEST POP POP POP JUMPDEST PUSH1 0x0 PUSH1 0x13 PUSH1 0x0 PUSH2 0x100 EXP DUP2 SLOAD DUP2 PUSH1 0xFF MUL NOT AND SWAP1 DUP4 ISZERO ISZERO MUL OR SWAP1 SSTORE POP SWAP1 JUMP JUMPDEST PUSH1 0x60 PUSH1 0x1 DUP1 ADD DUP1 SLOAD PUSH2 0xE47 SWAP1 PUSH2 0x178D JUMP JUMPDEST DUP1 PUSH1 0x1F ADD PUSH1 0x20 DUP1 SWAP2 DIV MUL PUSH1 0x20 ADD PUSH1 0x40 MLOAD SWAP1 DUP2 ADD PUSH1 0x40 MSTORE DUP1 SWAP3 SWAP2 SWAP1 DUP2 DUP2 MSTORE PUSH1 0x20 ADD DUP3 DUP1 SLOAD PUSH2 0xE73 SWAP1 PUSH2 0x178D JUMP JUMPDEST DUP1 ISZERO PUSH2 0xEC0 JUMPI DUP1 PUSH1 0x1F LT PUSH2 0xE95 JUMPI PUSH2 0x100 DUP1 DUP4 SLOAD DIV MUL DUP4 MSTORE SWAP2 PUSH1 0x20 ADD SWAP2 PUSH2 0xEC0 JUMP JUMPDEST DUP3 ADD SWAP2 SWAP1 PUSH1 0x0 MSTORE PUSH1 0x20 PUSH1 0x0 KECCAK256 SWAP1 JUMPDEST DUP2 SLOAD DUP2 MSTORE SWAP1 PUSH1 0x1 ADD SWAP1 PUSH1 0x20 ADD DUP1 DUP4 GT PUSH2 0xEA3 JUMPI DUP3 SWAP1 SUB PUSH1 0x1F AND DUP3 ADD SWAP2 JUMPDEST POP POP POP POP POP SWAP1 POP SWAP1 JUMP JUMPDEST PUSH1 0x0 DUP1 CALLER SWAP1 POP PUSH1 0x0 PUSH2 0xEDC DUP3 DUP7 PUSH2 0x121A JUMP JUMPDEST SWAP1 POP DUP4 DUP2 LT ISZERO PUSH2 0xF21 JUMPI PUSH1 0x40 MLOAD PUSH32 0x8C379A000000000000000000000000000000000000000000000000000000000 DUP2 MSTORE PUSH1 0x4 ADD PUSH2 0xF18 SWAP1 PUSH2 0x1BB4 JUMP JUMPDEST PUSH1 0x40 MLOAD DUP1 SWAP2 SUB SWAP1 REVERT JUMPDEST PUSH2 0xF2E DUP3 DUP7 DUP7 DUP5 SUB PUSH2 0x12EA JUMP JUMPDEST PUSH1 0x1 SWAP3 POP POP POP SWAP3 SWAP2 POP POP JUMP JUMPDEST PUSH1 0x0 PUSH1 0x13 PUSH1 0x0 SWAP1 SLOAD SWAP1 PUSH2 0x100 EXP SWAP1 DIV PUSH1 0xFF AND ISZERO PUSH2 0xF8C JUMPI PUSH1 0x40 MLOAD PUSH32 0x8C379A000000000000000000000000000000000000000000000000000000000 DUP2 MSTORE PUSH1 0x4 ADD PUSH2 0xF83 SWAP1 PUSH2 0x180A JUMP JUMPDEST PUSH1 0x40 MLOAD DUP1 SWAP2 SUB SWAP1 REVERT JUMPDEST PUSH1 0x1 PUSH1 0x13 PUSH1 0x0 PUSH2 0x100 EXP DUP2 SLOAD DUP2 PUSH1 0xFF MUL NOT AND SWAP1 DUP4 ISZERO ISZERO MUL OR SWAP1 SSTORE POP DUP2 PUSH1 0x8 PUSH1 0x0 ADD PUSH1 0x0 CALLER PUSH20 0xFFFFFFFFFFFFFFFFFFFFFFFFFFFFFFFFFFFFFFFF AND PUSH20 0xFFFFFFFFFFFFFFFFFFFFFFFFFFFFFFFFFFFFFFFF AND DUP2 MSTORE PUSH1 0x20 ADD SWAP1 DUP2 MSTORE PUSH1 0x20 ADD PUSH1 0x0 KECCAK256 SLOAD LT ISZERO PUSH2 0x102C JUMPI PUSH1 0x40 MLOAD PUSH32 0x8C379A000000000000000000000000000000000000000000000000000000000 DUP2 MSTORE PUSH1 0x4 ADD PUSH2 0x1023 SWAP1 PUSH2 0x1876 JUMP JUMPDEST PUSH1 0x40 MLOAD DUP1 SWAP2 SUB SWAP1 REVERT JUMPDEST DUP2 PUSH1 0x8 PUSH1 0x0 ADD PUSH1 0x0 CALLER PUSH20 0xFFFFFFFFFFFFFFFFFFFFFFFFFFFFFFFFFFFFFFFF AND PUSH20 0xFFFFFFFFFFFFFFFFFFFFFFFFFFFFFFFFFFFFFFFF AND DUP2 MSTORE PUSH1 0x20 ADD SWAP1 DUP2 MSTORE PUSH1 0x20 ADD PUSH1 0x0 KECCAK256 PUSH1 0x0 DUP3 DUP3 SLOAD PUSH2 0x107E SWAP2 SWAP1 PUSH2 0x1957 JUMP JUMPDEST SWAP3 POP POP DUP2 SWAP1 SSTORE POP DUP2 PUSH1 0x8 PUSH1 0x3 ADD PUSH1 0x0 CALLER PUSH20 0xFFFFFFFFFFFFFFFFFFFFFFFFFFFFFFFFFFFFFFFF AND PUSH20 0xFFFFFFFFFFFFFFFFFFFFFFFFFFFFFFFFFFFFFFFF AND DUP2 MSTORE PUSH1 0x20 ADD SWAP1 DUP2 MSTORE PUSH1 0x20 ADD PUSH1 0x0 KECCAK256 PUSH1 0x0 DUP3 DUP3 SLOAD PUSH2 0x10D7 SWAP2 SWAP1 PUSH2 0x1957 JUMP JUMPDEST SWAP3 POP POP DUP2 SWAP1 SSTORE POP DUP2 PUSH1 0x8 PUSH1 0x0 ADD PUSH1 0x0 DUP6 PUSH20 0xFFFFFFFFFFFFFFFFFFFFFFFFFFFFFFFFFFFFFFFF AND PUSH20 0xFFFFFFFFFFFFFFFFFFFFFFFFFFFFFFFFFFFFFFFF AND DUP2 MSTORE PUSH1 0x20 ADD SWAP1 DUP2 MSTORE PUSH1 0x20 ADD PUSH1 0x0 KECCAK256 PUSH1 0x0 DUP3 DUP3 SLOAD PUSH2 0x1130 SWAP2 SWAP1 PUSH2 0x198B JUMP JUMPDEST SWAP3 POP POP DUP2 SWAP1 SSTORE POP DUP2 PUSH1 0x8 PUSH1 0x3 ADD PUSH1 0x0 CALLER PUSH20 0xFFFFFFFFFFFFFFFFFFFFFFFFFFFFFFFFFFFFFFFF AND PUSH20 0xFFFFFFFFFFFFFFFFFFFFFFFFFFFFFFFFFFFFFFFF AND DUP2 MSTORE PUSH1 0x20 ADD SWAP1 DUP2 MSTORE PUSH1 0x20 ADD PUSH1 0x0 KECCAK256 PUSH1 0x0 DUP3 DUP3 SLOAD PUSH2 0x1189 SWAP2 SWAP1 PUSH2 0x198B JUMP JUMPDEST SWAP3 POP POP DUP2 SWAP1 SSTORE POP DUP3 PUSH20 0xFFFFFFFFFFFFFFFFFFFFFFFFFFFFFFFFFFFFFFFF AND CALLER PUSH20 0xFFFFFFFFFFFFFFFFFFFFFFFFFFFFFFFFFFFFFFFF AND PUSH32 0xDDF252AD1BE2C89B69C2B068FC378DAA952BA7F163C4A11628F55A4DF523B3EF DUP5 PUSH1 0x40 MLOAD PUSH2 0x11ED SWAP2 SWAP1 PUSH2 0x1683 JUMP JUMPDEST PUSH1 0x40 MLOAD DUP1 SWAP2 SUB SWAP1 LOG3 PUSH1 0x1 SWAP1 POP PUSH1 0x0 PUSH1 0x13 PUSH1 0x0 PUSH2 0x100 EXP DUP2 SLOAD DUP2 PUSH1 0xFF MUL NOT AND SWAP1 DUP4 ISZERO ISZERO MUL OR SWAP1 SSTORE POP SWAP3 SWAP2 POP POP JUMP JUMPDEST PUSH1 0x0 PUSH1 0x11 PUSH1 0x0 DUP5 PUSH20 0xFFFFFFFFFFFFFFFFFFFFFFFFFFFFFFFFFFFFFFFF AND PUSH20 0xFFFFFFFFFFFFFFFFFFFFFFFFFFFFFFFFFFFFFFFF AND DUP2 MSTORE PUSH1 0x20 ADD SWAP1 DUP2 MSTORE PUSH1 0x20 ADD PUSH1 0x0 KECCAK256 PUSH1 0x0 DUP4 PUSH20 0xFFFFFFFFFFFFFFFFFFFFFFFFFFFFFFFFFFFFFFFF AND PUSH20 0xFFFFFFFFFFFFFFFFFFFFFFFFFFFFFFFFFFFFFFFF AND DUP2 MSTORE PUSH1 0x20 ADD SWAP1 DUP2 MSTORE PUSH1 0x20 ADD PUSH1 0x0 KECCAK256 SLOAD SWAP1 POP SWAP3 SWAP2 POP POP JUMP JUMPDEST PUSH1 0x0 PUSH1 0xF PUSH1 0x0 DUP4 PUSH20 0xFFFFFFFFFFFFFFFFFFFFFFFFFFFFFFFFFFFFFFFF AND PUSH20 0xFFFFFFFFFFFFFFFFFFFFFFFFFFFFFFFFFFFFFFFF AND DUP2 MSTORE PUSH1 0x20 ADD SWAP1 DUP2 MSTORE PUSH1 0x20 ADD PUSH1 0x0 KECCAK256 SLOAD SWAP1 POP SWAP2 SWAP1 POP JUMP JUMPDEST PUSH1 0x0 PUSH20 0xFFFFFFFFFFFFFFFFFFFFFFFFFFFFFFFFFFFFFFFF AND DUP4 PUSH20 0xFFFFFFFFFFFFFFFFFFFFFFFFFFFFFFFFFFFFFFFF AND SUB PUSH2 0x1359 JUMPI PUSH1 0x40 MLOAD PUSH32 0x8C379A000000000000000000000000000000000000000000000000000000000 DUP2 MSTORE PUSH1 0x4 ADD PUSH2 0x1350 SWAP1 PUSH2 0x1C20 JUMP JUMPDEST PUSH1 0x40 MLOAD DUP1 SWAP2 SUB SWAP1 REVERT JUMPDEST PUSH1 0x0 PUSH20 0xFFFFFFFFFFFFFFFFFFFFFFFFFFFFFFFFFFFFFFFF AND DUP3 PUSH20 0xFFFFFFFFFFFFFFFFFFFFFFFFFFFFFFFFFFFFFFFF AND SUB PUSH2 0x13C8 JUMPI PUSH1 0x40 MLOAD PUSH32 0x8C379A000000000000000000000000000000000000000000000000000000000 DUP2 MSTORE PUSH1 0x4 ADD PUSH2 0x13BF SWAP1 PUSH2 0x1C20 JUMP JUMPDEST PUSH1 0x40 MLOAD DUP1 SWAP2 SUB SWAP1 REVERT JUMPDEST DUP1 PUSH1 0x11 PUSH1 0x0 DUP6 PUSH20 0xFFFFFFFFFFFFFFFFFFFFFFFFFFFFFFFFFFFFFFFF AND PUSH20 0xFFFFFFFFFFFFFFFFFFFFFFFFFFFFFFFFFFFFFFFF AND DUP2 MSTORE PUSH1 0x20 ADD SWAP1 DUP2 MSTORE PUSH1 0x20 ADD PUSH1 0x0 KECCAK256 PUSH1 0x0 DUP5 PUSH20 0xFFFFFFFFFFFFFFFFFFFFFFFFFFFFFFFFFFFFFFFF AND PUSH20 0xFFFFFFFFFFFFFFFFFFFFFFFFFFFFFFFFFFFFFFFF AND DUP2 MSTORE PUSH1 0x20 ADD SWAP1 DUP2 MSTORE PUSH1 0x20 ADD PUSH1 0x0 KECCAK256 DUP2 SWAP1 SSTORE POP DUP2 PUSH20 0xFFFFFFFFFFFFFFFFFFFFFFFFFFFFFFFFFFFFFFFF AND DUP4 PUSH20 0xFFFFFFFFFFFFFFFFFFFFFFFFFFFFFFFFFFFFFFFF AND PUSH32 0x8C5BE1E5EBEC7D5BD14F71427D1E84F3DD0314C0F7B2291E5B200AC8C7C3B925 DUP4 PUSH1 0x40 MLOAD PUSH2 0x14A6 SWAP2 SWAP1 PUSH2 0x1683 JUMP JUMPDEST PUSH1 0x40 MLOAD DUP1 SWAP2 SUB SWAP1 LOG3 POP POP POP JUMP JUMPDEST PUSH1 0x0 DUP2 MLOAD SWAP1 POP SWAP2 SWAP1 POP JUMP JUMPDEST PUSH1 0x0 DUP3 DUP3 MSTORE PUSH1 0x20 DUP3 ADD SWAP1 POP SWAP3 SWAP2 POP POP JUMP JUMPDEST PUSH1 0x0 JUMPDEST DUP4 DUP2 LT ISZERO PUSH2 0x14ED JUMPI DUP1 DUP3 ADD MLOAD DUP2 DUP5 ADD MSTORE PUSH1 0x20 DUP2 ADD SWAP1 POP PUSH2 0x14D2 JUMP JUMPDEST PUSH1 0x0 DUP5 DUP5 ADD MSTORE POP POP POP POP JUMP JUMPDEST PUSH1 0x0 PUSH1 0x1F NOT PUSH1 0x1F DUP4 ADD AND SWAP1 POP SWAP2 SWAP1 POP JUMP JUMPDEST PUSH1 0x0 PUSH2 0x1515 DUP3 PUSH2 0x14B3 JUMP JUMPDEST PUSH2 0x151F DUP2 DUP6 PUSH2 0x14BE JUMP JUMPDEST SWAP4 POP PUSH2 0x152F DUP2 DUP6 PUSH1 0x20 DUP7 ADD PUSH2 0x14CF JUMP JUMPDEST PUSH2 0x1538 DUP2 PUSH2 0x14F9 JUMP JUMPDEST DUP5 ADD SWAP2 POP POP SWAP3 SWAP2 POP POP JUMP JUMPDEST PUSH1 0x0 PUSH1 0x20 DUP3 ADD SWAP1 POP DUP2 DUP2 SUB PUSH1 0x0 DUP4 ADD MSTORE PUSH2 0x155D DUP2 DUP5 PUSH2 0x150A JUMP JUMPDEST SWAP1 POP SWAP3 SWAP2 POP POP JUMP JUMPDEST PUSH1 0x0 DUP1 REVERT JUMPDEST PUSH1 0x0 PUSH20 0xFFFFFFFFFFFFFFFFFFFFFFFFFFFFFFFFFFFFFFFF DUP3 AND SWAP1 POP SWAP2 SWAP1 POP JUMP JUMPDEST PUSH1 0x0 PUSH2 0x1595 DUP3 PUSH2 0x156A JUMP JUMPDEST SWAP1 POP SWAP2 SWAP1 POP JUMP JUMPDEST PUSH2 0x15A5 DUP2 PUSH2 0x158A JUMP JUMPDEST DUP2 EQ PUSH2 0x15B0 JUMPI PUSH1 0x0 DUP1 REVERT JUMPDEST POP JUMP JUMPDEST PUSH1 0x0 DUP2 CALLDATALOAD SWAP1 POP PUSH2 0x15C2 DUP2 PUSH2 0x159C JUMP JUMPDEST SWAP3 SWAP2 POP POP JUMP JUMPDEST PUSH1 0x0 DUP2 SWAP1 POP SWAP2 SWAP1 POP JUMP JUMPDEST PUSH2 0x15DB DUP2 PUSH2 0x15C8 JUMP JUMPDEST DUP2 EQ PUSH2 0x15E6 JUMPI PUSH1 0x0 DUP1 REVERT JUMPDEST POP JUMP JUMPDEST PUSH1 0x0 DUP2 CALLDATALOAD SWAP1 POP PUSH2 0x15F8 DUP2 PUSH2 0x15D2 JUMP JUMPDEST SWAP3 SWAP2 POP POP JUMP JUMPDEST PUSH1 0x0 DUP1 PUSH1 0x40 DUP4 DUP6 SUB SLT ISZERO PUSH2 0x1615 JUMPI PUSH2 0x1614 PUSH2 0x1565 JUMP JUMPDEST JUMPDEST PUSH1 0x0 PUSH2 0x1623 DUP6 DUP3 DUP7 ADD PUSH2 0x15B3 JUMP JUMPDEST SWAP3 POP POP PUSH1 0x20 PUSH2 0x1634 DUP6 DUP3 DUP7 ADD PUSH2 0x15E9 JUMP JUMPDEST SWAP2 POP POP SWAP3 POP SWAP3 SWAP1 POP JUMP JUMPDEST PUSH1 0x0 DUP2 ISZERO ISZERO SWAP1 POP SWAP2 SWAP1 POP JUMP JUMPDEST PUSH2 0x1653 DUP2 PUSH2 0x163E JUMP JUMPDEST DUP3 MSTORE POP POP JUMP JUMPDEST PUSH1 0x0 PUSH1 0x20 DUP3 ADD SWAP1 POP PUSH2 0x166E PUSH1 0x0 DUP4 ADD DUP5 PUSH2 0x164A JUMP JUMPDEST SWAP3 SWAP2 POP POP JUMP JUMPDEST PUSH2 0x167D DUP2 PUSH2 0x15C8 JUMP JUMPDEST DUP3 MSTORE POP POP JUMP JUMPDEST PUSH1 0x0 PUSH1 0x20 DUP3 ADD SWAP1 POP PUSH2 0x1698 PUSH1 0x0 DUP4 ADD DUP5 PUSH2 0x1674 JUMP JUMPDEST SWAP3 SWAP2 POP POP JUMP JUMPDEST PUSH1 0x0 DUP1 PUSH1 0x0 PUSH1 0x60 DUP5 DUP7 SUB SLT ISZERO PUSH2 0x16B7 JUMPI PUSH2 0x16B6 PUSH2 0x1565 JUMP JUMPDEST JUMPDEST PUSH1 0x0 PUSH2 0x16C5 DUP7 DUP3 DUP8 ADD PUSH2 0x15B3 JUMP JUMPDEST SWAP4 POP POP PUSH1 0x20 PUSH2 0x16D6 DUP7 DUP3 DUP8 ADD PUSH2 0x15B3 JUMP JUMPDEST SWAP3 POP POP PUSH1 0x40 PUSH2 0x16E7 DUP7 DUP3 DUP8 ADD PUSH2 0x15E9 JUMP JUMPDEST SWAP2 POP POP SWAP3 POP SWAP3 POP SWAP3 JUMP JUMPDEST PUSH1 0x0 PUSH1 0x20 DUP3 DUP5 SUB SLT ISZERO PUSH2 0x1707 JUMPI PUSH2 0x1706 PUSH2 0x1565 JUMP JUMPDEST JUMPDEST PUSH1 0x0 PUSH2 0x1715 DUP5 DUP3 DUP6 ADD PUSH2 0x15B3 JUMP JUMPDEST SWAP2 POP POP SWAP3 SWAP2 POP POP JUMP JUMPDEST PUSH1 0x0 DUP1 PUSH1 0x40 DUP4 DUP6 SUB SLT ISZERO PUSH2 0x1735 JUMPI PUSH2 0x1734 PUSH2 0x1565 JUMP JUMPDEST JUMPDEST PUSH1 0x0 PUSH2 0x1743 DUP6 DUP3 DUP7 ADD PUSH2 0x15B3 JUMP JUMPDEST SWAP3 POP POP PUSH1 0x20 PUSH2 0x1754 DUP6 DUP3 DUP7 ADD PUSH2 0x15B3 JUMP JUMPDEST SWAP2 POP POP SWAP3 POP SWAP3 SWAP1 POP JUMP JUMPDEST PUSH32 0x4E487B7100000000000000000000000000000000000000000000000000000000 PUSH1 0x0 MSTORE PUSH1 0x22 PUSH1 0x4 MSTORE PUSH1 0x24 PUSH1 0x0 REVERT JUMPDEST PUSH1 0x0 PUSH1 0x2 DUP3 DIV SWAP1 POP PUSH1 0x1 DUP3 AND DUP1 PUSH2 0x17A5 JUMPI PUSH1 0x7F DUP3 AND SWAP2 POP JUMPDEST PUSH1 0x20 DUP3 LT DUP2 SUB PUSH2 0x17B8 JUMPI PUSH2 0x17B7 PUSH2 0x175E JUMP JUMPDEST JUMPDEST POP SWAP2 SWAP1 POP JUMP JUMPDEST PUSH32 0x416E74692D7265656E7472616E637920696E20706C6163650000000000000000 PUSH1 0x0 DUP3 ADD MSTORE POP JUMP JUMPDEST PUSH1 0x0 PUSH2 0x17F4 PUSH1 0x18 DUP4 PUSH2 0x14BE JUMP JUMPDEST SWAP2 POP PUSH2 0x17FF DUP3 PUSH2 0x17BE JUMP JUMPDEST PUSH1 0x20 DUP3 ADD SWAP1 POP SWAP2 SWAP1 POP JUMP JUMPDEST PUSH1 0x0 PUSH1 0x20 DUP3 ADD SWAP1 POP DUP2 DUP2 SUB PUSH1 0x0 DUP4 ADD MSTORE PUSH2 0x1823 DUP2 PUSH2 0x17E7 JUMP JUMPDEST SWAP1 POP SWAP2 SWAP1 POP JUMP JUMPDEST PUSH32 0x496E73756666696369656E742062616C616E6365000000000000000000000000 PUSH1 0x0 DUP3 ADD MSTORE POP JUMP JUMPDEST PUSH1 0x0 PUSH2 0x1860 PUSH1 0x14 DUP4 PUSH2 0x14BE JUMP JUMPDEST SWAP2 POP PUSH2 0x186B DUP3 PUSH2 0x182A JUMP JUMPDEST PUSH1 0x20 DUP3 ADD SWAP1 POP SWAP2 SWAP1 POP JUMP JUMPDEST PUSH1 0x0 PUSH1 0x20 DUP3 ADD SWAP1 POP DUP2 DUP2 SUB PUSH1 0x0 DUP4 ADD MSTORE PUSH2 0x188F DUP2 PUSH2 0x1853 JUMP JUMPDEST SWAP1 POP SWAP2 SWAP1 POP JUMP JUMPDEST PUSH32 0x5472616E7366657220616D6F756E74206578636565647320616C6C6F77616E63 PUSH1 0x0 DUP3 ADD MSTORE PUSH32 0x6500000000000000000000000000000000000000000000000000000000000000 PUSH1 0x20 DUP3 ADD MSTORE POP JUMP JUMPDEST PUSH1 0x0 PUSH2 0x18F2 PUSH1 0x21 DUP4 PUSH2 0x14BE JUMP JUMPDEST SWAP2 POP PUSH2 0x18FD DUP3 PUSH2 0x1896 JUMP JUMPDEST PUSH1 0x40 DUP3 ADD SWAP1 POP SWAP2 SWAP1 POP JUMP JUMPDEST PUSH1 0x0 PUSH1 0x20 DUP3 ADD SWAP1 POP DUP2 DUP2 SUB PUSH1 0x0 DUP4 ADD MSTORE PUSH2 0x1921 DUP2 PUSH2 0x18E5 JUMP JUMPDEST SWAP1 POP SWAP2 SWAP1 POP JUMP JUMPDEST PUSH32 0x4E487B7100000000000000000000000000000000000000000000000000000000 PUSH1 0x0 MSTORE PUSH1 0x11 PUSH1 0x4 MSTORE PUSH1 0x24 PUSH1 0x0 REVERT JUMPDEST PUSH1 0x0 PUSH2 0x1962 DUP3 PUSH2 0x15C8 JUMP JUMPDEST SWAP2 POP PUSH2 0x196D DUP4 PUSH2 0x15C8 JUMP JUMPDEST SWAP3 POP DUP3 DUP3 SUB SWAP1 POP DUP2 DUP2 GT ISZERO PUSH2 0x1985 JUMPI PUSH2 0x1984 PUSH2 0x1928 JUMP JUMPDEST JUMPDEST SWAP3 SWAP2 POP POP JUMP JUMPDEST PUSH1 0x0 PUSH2 0x1996 DUP3 PUSH2 0x15C8 JUMP JUMPDEST SWAP2 POP PUSH2 0x19A1 DUP4 PUSH2 0x15C8 JUMP JUMPDEST SWAP3 POP DUP3 DUP3 ADD SWAP1 POP DUP1 DUP3 GT ISZERO PUSH2 0x19B9 JUMPI PUSH2 0x19B8 PUSH2 0x1928 JUMP JUMPDEST JUMPDEST SWAP3 SWAP2 POP POP JUMP JUMPDEST PUSH32 0x6973466F756E64696E675465616D000000000000000000000000000000000000 PUSH1 0x0 DUP3 ADD MSTORE POP JUMP JUMPDEST PUSH1 0x0 PUSH2 0x19F5 PUSH1 0xE DUP4 PUSH2 0x14BE JUMP JUMPDEST SWAP2 POP PUSH2 0x1A00 DUP3 PUSH2 0x19BF JUMP JUMPDEST PUSH1 0x20 DUP3 ADD SWAP1 POP SWAP2 SWAP1 POP JUMP JUMPDEST PUSH1 0x0 PUSH1 0x20 DUP3 ADD SWAP1 POP DUP2 DUP2 SUB PUSH1 0x0 DUP4 ADD MSTORE PUSH2 0x1A24 DUP2 PUSH2 0x19E8 JUMP JUMPDEST SWAP1 POP SWAP2 SWAP1 POP JUMP JUMPDEST PUSH32 0x4E487B7100000000000000000000000000000000000000000000000000000000 PUSH1 0x0 MSTORE PUSH1 0x32 PUSH1 0x4 MSTORE PUSH1 0x24 PUSH1 0x0 REVERT JUMPDEST PUSH1 0x0 PUSH2 0x1A65 DUP3 PUSH2 0x15C8 JUMP JUMPDEST SWAP2 POP PUSH2 0x1A70 DUP4 PUSH2 0x15C8 JUMP JUMPDEST SWAP3 POP DUP3 DUP3 MUL PUSH2 0x1A7E DUP2 PUSH2 0x15C8 JUMP JUMPDEST SWAP2 POP DUP3 DUP3 DIV DUP5 EQ DUP4 ISZERO OR PUSH2 0x1A95 JUMPI PUSH2 0x1A94 PUSH2 0x1928 JUMP JUMPDEST JUMPDEST POP SWAP3 SWAP2 POP POP JUMP JUMPDEST PUSH32 0x4E487B7100000000000000000000000000000000000000000000000000000000 PUSH1 0x0 MSTORE PUSH1 0x12 PUSH1 0x4 MSTORE PUSH1 0x24 PUSH1 0x0 REVERT JUMPDEST PUSH1 0x0 PUSH2 0x1AD6 DUP3 PUSH2 0x15C8 JUMP JUMPDEST SWAP2 POP PUSH2 0x1AE1 DUP4 PUSH2 0x15C8 JUMP JUMPDEST SWAP3 POP DUP3 PUSH2 0x1AF1 JUMPI PUSH2 0x1AF0 PUSH2 0x1A9C JUMP JUMPDEST JUMPDEST DUP3 DUP3 DIV SWAP1 POP SWAP3 SWAP2 POP POP JUMP JUMPDEST PUSH32 0x4E6F20746F6B656E7320746F2072656C65617365000000000000000000000000 PUSH1 0x0 DUP3 ADD MSTORE POP JUMP JUMPDEST PUSH1 0x0 PUSH2 0x1B32 PUSH1 0x14 DUP4 PUSH2 0x14BE JUMP JUMPDEST SWAP2 POP PUSH2 0x1B3D DUP3 PUSH2 0x1AFC JUMP JUMPDEST PUSH1 0x20 DUP3 ADD SWAP1 POP SWAP2 SWAP1 POP JUMP JUMPDEST PUSH1 0x0 PUSH1 0x20 DUP3 ADD SWAP1 POP DUP2 DUP2 SUB PUSH1 0x0 DUP4 ADD MSTORE PUSH2 0x1B61 DUP2 PUSH2 0x1B25 JUMP JUMPDEST SWAP1 POP SWAP2 SWAP1 POP JUMP JUMPDEST PUSH32 0x44656372656173656420616C6C6F77616E63652062656C6F77207A65726F0000 PUSH1 0x0 DUP3 ADD MSTORE POP JUMP JUMPDEST PUSH1 0x0 PUSH2 0x1B9E PUSH1 0x1E DUP4 PUSH2 0x14BE JUMP JUMPDEST SWAP2 POP PUSH2 0x1BA9 DUP3 PUSH2 0x1B68 JUMP JUMPDEST PUSH1 0x20 DUP3 ADD SWAP1 POP SWAP2 SWAP1 POP JUMP JUMPDEST PUSH1 0x0 PUSH1 0x20 DUP3 ADD SWAP1 POP DUP2 DUP2 SUB PUSH1 0x0 DUP4 ADD MSTORE PUSH2 0x1BCD DUP2 PUSH2 0x1B91 JUMP JUMPDEST SWAP1 POP SWAP2 SWAP1 POP JUMP JUMPDEST PUSH32 0x417070726F76652066726F6D20746865207A65726F2061646472657373000000 PUSH1 0x0 DUP3 ADD MSTORE POP JUMP JUMPDEST PUSH1 0x0 PUSH2 0x1C0A PUSH1 0x1D DUP4 PUSH2 0x14BE JUMP JUMPDEST SWAP2 POP PUSH2 0x1C15 DUP3 PUSH2 0x1BD4 JUMP JUMPDEST PUSH1 0x20 DUP3 ADD SWAP1 POP SWAP2 SWAP1 POP JUMP JUMPDEST PUSH1 0x0 PUSH1 0x20 DUP3 ADD SWAP1 POP DUP2 DUP2 SUB PUSH1 0x0 DUP4 ADD MSTORE PUSH2 0x1C39 DUP2 PUSH2 0x1BFD JUMP JUMPDEST SWAP1 POP SWAP2 SWAP1 POP JUMP INVALID LOG2 PUSH5 0x6970667358 0x22 SLT KECCAK256 0xB1 DUP16 0x25 0xD9 0xE7 POP PUSH7 0xDE3B510D56ADB3 0xBC PUSH26 0x4429D75E7C31CA49EF19D6C6FEF4A01064736F6C634300081200 CALLER "
				},
				"gasEstimates": {
					"creation": {
						"codeDepositCost": "1457200",
						"executionCost": "infinite",
						"totalCost": "infinite"
					},
					"external": {
						"allowance(address,address)": "infinite",
						"approve(address,uint256)": "infinite",
						"balanceOf(address)": "2952",
						"decimals()": "2510",
						"decreaseAllowance(address,uint256)": "infinite",
						"increaseAllowance(address,uint256)": "infinite",
						"name()": "infinite",
						"release()": "infinite",
						"revokeIsFoundingTeam()": "28972",
						"stakedFor(address)": "2951",
						"symbol()": "infinite",
						"totalStaked()": "2510",
						"totalSupply()": "2511",
						"totalVested()": "2533",
						"transfer(address,uint256)": "infinite",
						"transferFrom(address,address,uint256)": "infinite",
						"vestedFor(address)": "2864",
						"voteWeightOf(address)": "2886"
					},
					"internal": {
						"_approve(address,address,uint256)": "infinite",
						"_burn(address,uint256)": "infinite",
						"_mint(address,uint256)": "infinite",
						"_mintWithVesting(address,uint256,uint256)": "infinite",
						"_spendAllowance(address,address,uint256)": "infinite"
					}
				},
				"methodIdentifiers": {
					"allowance(address,address)": "dd62ed3e",
					"approve(address,uint256)": "095ea7b3",
					"balanceOf(address)": "70a08231",
					"decimals()": "313ce567",
					"decreaseAllowance(address,uint256)": "a457c2d7",
					"increaseAllowance(address,uint256)": "39509351",
					"name()": "06fdde03",
					"release()": "86d1a69f",
					"revokeIsFoundingTeam()": "27f54462",
					"stakedFor(address)": "feb73f8b",
					"symbol()": "95d89b41",
					"totalStaked()": "817b1cd2",
					"totalSupply()": "18160ddd",
					"totalVested()": "199cbc54",
					"transfer(address,uint256)": "a9059cbb",
					"transferFrom(address,address,uint256)": "23b872dd",
					"vestedFor(address)": "7657135c",
					"voteWeightOf(address)": "7fb8b61e"
				}
			},
			"storageLayout": {
				"storage": [
					{
						"astId": 5,
						"contract": "smart_contracts/contracts/BaseERC20.sol:BaseERC20",
						"label": "isMintable",
						"offset": 0,
						"slot": "0",
						"type": "t_bool"
					},
					{
						"astId": 7,
						"contract": "smart_contracts/contracts/BaseERC20.sol:BaseERC20",
						"label": "isBurnable",
						"offset": 1,
						"slot": "0",
						"type": "t_bool"
					},
					{
						"astId": 10,
						"contract": "smart_contracts/contracts/BaseERC20.sol:BaseERC20",
						"label": "properties",
						"offset": 0,
						"slot": "1",
						"type": "t_struct(Properties)1065_storage"
					},
					{
						"astId": 13,
						"contract": "smart_contracts/contracts/BaseERC20.sol:BaseERC20",
						"label": "database",
						"offset": 0,
						"slot": "8",
						"type": "t_struct(Database)1088_storage"
					},
					{
						"astId": 17,
						"contract": "smart_contracts/contracts/BaseERC20.sol:BaseERC20",
						"label": "balance",
						"offset": 0,
						"slot": "13",
						"type": "t_mapping(t_address,t_uint256)"
					},
					{
						"astId": 21,
						"contract": "smart_contracts/contracts/BaseERC20.sol:BaseERC20",
						"label": "vested",
						"offset": 0,
						"slot": "14",
						"type": "t_mapping(t_address,t_uint256)"
					},
					{
						"astId": 25,
						"contract": "smart_contracts/contracts/BaseERC20.sol:BaseERC20",
						"label": "staked",
						"offset": 0,
						"slot": "15",
						"type": "t_mapping(t_address,t_uint256)"
					},
					{
						"astId": 29,
						"contract": "smart_contracts/contracts/BaseERC20.sol:BaseERC20",
						"label": "vote",
						"offset": 0,
						"slot": "16",
						"type": "t_mapping(t_address,t_uint256)"
					},
					{
						"astId": 35,
						"contract": "smart_contracts/contracts/BaseERC20.sol:BaseERC20",
						"label": "allowed",
						"offset": 0,
						"slot": "17",
						"type": "t_mapping(t_address,t_mapping(t_address,t_uint256))"
					},
					{
						"astId": 39,
						"contract": "smart_contracts/contracts/BaseERC20.sol:BaseERC20",
						"label": "isFoundingTeam",
						"offset": 0,
						"slot": "18",
						"type": "t_mapping(t_address,t_bool)"
					},
					{
						"astId": 117,
						"contract": "smart_contracts/contracts/BaseERC20.sol:BaseERC20",
						"label": "locked",
						"offset": 0,
						"slot": "19",
						"type": "t_bool"
					},
					{
						"astId": 602,
						"contract": "smart_contracts/contracts/BaseERC20.sol:BaseERC20",
						"label": "schedule",
						"offset": 0,
						"slot": "20",
						"type": "t_mapping(t_address,t_array(t_struct(VestingSchedule)1100_storage)dyn_storage)"
					}
				],
				"types": {
					"t_address": {
						"encoding": "inplace",
						"label": "address",
						"numberOfBytes": "20"
					},
					"t_array(t_struct(VestingSchedule)1100_storage)dyn_storage": {
						"base": "t_struct(VestingSchedule)1100_storage",
						"encoding": "dynamic_array",
						"label": "struct Vesting.VestingSchedule[]",
						"numberOfBytes": "32"
					},
					"t_bool": {
						"encoding": "inplace",
						"label": "bool",
						"numberOfBytes": "1"
					},
					"t_mapping(t_address,t_array(t_struct(VestingSchedule)1100_storage)dyn_storage)": {
						"encoding": "mapping",
						"key": "t_address",
						"label": "mapping(address => struct Vesting.VestingSchedule[])",
						"numberOfBytes": "32",
						"value": "t_array(t_struct(VestingSchedule)1100_storage)dyn_storage"
					},
					"t_mapping(t_address,t_bool)": {
						"encoding": "mapping",
						"key": "t_address",
						"label": "mapping(address => bool)",
						"numberOfBytes": "32",
						"value": "t_bool"
					},
					"t_mapping(t_address,t_mapping(t_address,t_uint256))": {
						"encoding": "mapping",
						"key": "t_address",
						"label": "mapping(address => mapping(address => uint256))",
						"numberOfBytes": "32",
						"value": "t_mapping(t_address,t_uint256)"
					},
					"t_mapping(t_address,t_uint256)": {
						"encoding": "mapping",
						"key": "t_address",
						"label": "mapping(address => uint256)",
						"numberOfBytes": "32",
						"value": "t_uint256"
					},
					"t_string_storage": {
						"encoding": "bytes",
						"label": "string",
						"numberOfBytes": "32"
					},
					"t_struct(Database)1088_storage": {
						"encoding": "inplace",
						"label": "struct Meta.Database",
						"members": [
							{
								"astId": 1069,
								"contract": "smart_contracts/contracts/BaseERC20.sol:BaseERC20",
								"label": "balance",
								"offset": 0,
								"slot": "0",
								"type": "t_mapping(t_address,t_uint256)"
							},
							{
								"astId": 1073,
								"contract": "smart_contracts/contracts/BaseERC20.sol:BaseERC20",
								"label": "vested",
								"offset": 0,
								"slot": "1",
								"type": "t_mapping(t_address,t_uint256)"
							},
							{
								"astId": 1077,
								"contract": "smart_contracts/contracts/BaseERC20.sol:BaseERC20",
								"label": "staked",
								"offset": 0,
								"slot": "2",
								"type": "t_mapping(t_address,t_uint256)"
							},
							{
								"astId": 1081,
								"contract": "smart_contracts/contracts/BaseERC20.sol:BaseERC20",
								"label": "vote",
								"offset": 0,
								"slot": "3",
								"type": "t_mapping(t_address,t_uint256)"
							},
							{
								"astId": 1087,
								"contract": "smart_contracts/contracts/BaseERC20.sol:BaseERC20",
								"label": "allowed",
								"offset": 0,
								"slot": "4",
								"type": "t_mapping(t_address,t_mapping(t_address,t_uint256))"
							}
						],
						"numberOfBytes": "160"
					},
					"t_struct(Properties)1065_storage": {
						"encoding": "inplace",
						"label": "struct Meta.Properties",
						"members": [
							{
								"astId": 1052,
								"contract": "smart_contracts/contracts/BaseERC20.sol:BaseERC20",
								"label": "name",
								"offset": 0,
								"slot": "0",
								"type": "t_string_storage"
							},
							{
								"astId": 1054,
								"contract": "smart_contracts/contracts/BaseERC20.sol:BaseERC20",
								"label": "symbol",
								"offset": 0,
								"slot": "1",
								"type": "t_string_storage"
							},
							{
								"astId": 1056,
								"contract": "smart_contracts/contracts/BaseERC20.sol:BaseERC20",
								"label": "decimals",
								"offset": 0,
								"slot": "2",
								"type": "t_uint256"
							},
							{
								"astId": 1058,
								"contract": "smart_contracts/contracts/BaseERC20.sol:BaseERC20",
								"label": "maxSupply",
								"offset": 0,
								"slot": "3",
								"type": "t_uint256"
							},
							{
								"astId": 1060,
								"contract": "smart_contracts/contracts/BaseERC20.sol:BaseERC20",
								"label": "totalSupply",
								"offset": 0,
								"slot": "4",
								"type": "t_uint256"
							},
							{
								"astId": 1062,
								"contract": "smart_contracts/contracts/BaseERC20.sol:BaseERC20",
								"label": "totalVested",
								"offset": 0,
								"slot": "5",
								"type": "t_uint256"
							},
							{
								"astId": 1064,
								"contract": "smart_contracts/contracts/BaseERC20.sol:BaseERC20",
								"label": "totalStaked",
								"offset": 0,
								"slot": "6",
								"type": "t_uint256"
							}
						],
						"numberOfBytes": "224"
					},
					"t_struct(VestingSchedule)1100_storage": {
						"encoding": "inplace",
						"label": "struct Vesting.VestingSchedule",
						"members": [
							{
								"astId": 1093,
								"contract": "smart_contracts/contracts/BaseERC20.sol:BaseERC20",
								"label": "amount",
								"offset": 0,
								"slot": "0",
								"type": "t_uint256"
							},
							{
								"astId": 1095,
								"contract": "smart_contracts/contracts/BaseERC20.sol:BaseERC20",
								"label": "start",
								"offset": 0,
								"slot": "1",
								"type": "t_uint256"
							},
							{
								"astId": 1097,
								"contract": "smart_contracts/contracts/BaseERC20.sol:BaseERC20",
								"label": "end",
								"offset": 0,
								"slot": "2",
								"type": "t_uint256"
							},
							{
								"astId": 1099,
								"contract": "smart_contracts/contracts/BaseERC20.sol:BaseERC20",
								"label": "released",
								"offset": 0,
								"slot": "3",
								"type": "t_uint256"
							}
						],
						"numberOfBytes": "128"
					},
					"t_uint256": {
						"encoding": "inplace",
						"label": "uint256",
						"numberOfBytes": "32"
					}
				}
			},
			"userdoc": {
				"kind": "user",
				"methods": {},
				"version": 1
			}
		}
	}
}