{
	"smart_contracts/contracts/Token.sol": {
		"Token": {
			"abi": [
				{
					"inputs": [
						{
							"internalType": "address",
							"name": "_dev",
							"type": "address"
						}
					],
					"stateMutability": "nonpayable",
					"type": "constructor"
				},
				{
					"anonymous": false,
					"inputs": [
						{
							"indexed": true,
							"internalType": "address",
							"name": "_owner",
							"type": "address"
						},
						{
							"indexed": true,
							"internalType": "address",
							"name": "_spender",
							"type": "address"
						},
						{
							"indexed": false,
							"internalType": "uint256",
							"name": "_value",
							"type": "uint256"
						}
					],
					"name": "Approval",
					"type": "event"
				},
				{
					"anonymous": false,
					"inputs": [
						{
							"indexed": true,
							"internalType": "address",
							"name": "_from",
							"type": "address"
						},
						{
							"indexed": true,
							"internalType": "address",
							"name": "_to",
							"type": "address"
						},
						{
							"indexed": false,
							"internalType": "uint256",
							"name": "_value",
							"type": "uint256"
						}
					],
					"name": "Transfer",
					"type": "event"
				},
				{
					"anonymous": false,
					"inputs": [
						{
							"indexed": true,
							"internalType": "address",
							"name": "_vault",
							"type": "address"
						}
					],
					"name": "Update",
					"type": "event"
				},
				{
					"anonymous": false,
					"inputs": [
						{
							"indexed": false,
							"internalType": "uint256",
							"name": "_bpFeeBurn",
							"type": "uint256"
						},
						{
							"indexed": false,
							"internalType": "uint256",
							"name": "_bpFeeBank",
							"type": "uint256"
						}
					],
					"name": "UpdateToSettings",
					"type": "event"
				},
				{
					"inputs": [
						{
							"internalType": "address",
							"name": "_owner",
							"type": "address"
						},
						{
							"internalType": "address",
							"name": "_spender",
							"type": "address"
						}
					],
					"name": "allowance",
					"outputs": [
						{
							"internalType": "uint256",
							"name": "remaining",
							"type": "uint256"
						}
					],
					"stateMutability": "view",
					"type": "function"
				},
				{
					"inputs": [
						{
							"internalType": "address",
							"name": "_spender",
							"type": "address"
						},
						{
							"internalType": "uint256",
							"name": "_value",
							"type": "uint256"
						}
					],
					"name": "approve",
					"outputs": [
						{
							"internalType": "bool",
							"name": "",
							"type": "bool"
						}
					],
					"stateMutability": "nonpayable",
					"type": "function"
				},
				{
					"inputs": [
						{
							"internalType": "address",
							"name": "_owner",
							"type": "address"
						}
					],
					"name": "balanceOf",
					"outputs": [
						{
							"internalType": "uint256",
							"name": "",
							"type": "uint256"
						}
					],
					"stateMutability": "view",
					"type": "function"
				},
				{
					"inputs": [
						{
							"internalType": "uint256",
							"name": "_value",
							"type": "uint256"
						}
					],
					"name": "burn",
					"outputs": [
						{
							"internalType": "bool",
							"name": "",
							"type": "bool"
						}
					],
					"stateMutability": "nonpayable",
					"type": "function"
				},
				{
					"inputs": [],
					"name": "decimals",
					"outputs": [
						{
							"internalType": "uint8",
							"name": "",
							"type": "uint8"
						}
					],
					"stateMutability": "view",
					"type": "function"
				},
				{
					"inputs": [],
					"name": "fetchSettings",
					"outputs": [
						{
							"internalType": "uint256",
							"name": "",
							"type": "uint256"
						},
						{
							"internalType": "uint256",
							"name": "",
							"type": "uint256"
						},
						{
							"internalType": "uint256",
							"name": "",
							"type": "uint256"
						},
						{
							"internalType": "uint256",
							"name": "",
							"type": "uint256"
						},
						{
							"internalType": "uint256",
							"name": "",
							"type": "uint256"
						},
						{
							"internalType": "uint256",
							"name": "",
							"type": "uint256"
						}
					],
					"stateMutability": "nonpayable",
					"type": "function"
				},
				{
					"inputs": [
						{
							"internalType": "address",
							"name": "_owner",
							"type": "address"
						}
					],
					"name": "grantPermissionAdmin",
					"outputs": [
						{
							"internalType": "bool",
							"name": "",
							"type": "bool"
						}
					],
					"stateMutability": "nonpayable",
					"type": "function"
				},
				{
					"inputs": [],
					"name": "maxSupply",
					"outputs": [
						{
							"internalType": "uint256",
							"name": "",
							"type": "uint256"
						}
					],
					"stateMutability": "view",
					"type": "function"
				},
				{
					"inputs": [
						{
							"internalType": "address",
							"name": "_to",
							"type": "address"
						},
						{
							"internalType": "uint256",
							"name": "_value",
							"type": "uint256"
						}
					],
					"name": "mint",
					"outputs": [
						{
							"internalType": "bool",
							"name": "",
							"type": "bool"
						}
					],
					"stateMutability": "nonpayable",
					"type": "function"
				},
				{
					"inputs": [
						{
							"internalType": "address",
							"name": "_to",
							"type": "address"
						},
						{
							"internalType": "uint256",
							"name": "_value",
							"type": "uint256"
						},
						{
							"internalType": "uint256",
							"name": "_duration",
							"type": "uint256"
						},
						{
							"internalType": "string",
							"name": "_caption",
							"type": "string"
						}
					],
					"name": "mintWithVesting",
					"outputs": [
						{
							"internalType": "bool",
							"name": "",
							"type": "bool"
						}
					],
					"stateMutability": "nonpayable",
					"type": "function"
				},
				{
					"inputs": [],
					"name": "mintable",
					"outputs": [
						{
							"internalType": "uint256",
							"name": "",
							"type": "uint256"
						}
					],
					"stateMutability": "view",
					"type": "function"
				},
				{
					"inputs": [],
					"name": "name",
					"outputs": [
						{
							"internalType": "string",
							"name": "",
							"type": "string"
						}
					],
					"stateMutability": "view",
					"type": "function"
				},
				{
					"inputs": [
						{
							"internalType": "string",
							"name": "_caption",
							"type": "string"
						}
					],
					"name": "release",
					"outputs": [
						{
							"internalType": "bool",
							"name": "",
							"type": "bool"
						}
					],
					"stateMutability": "nonpayable",
					"type": "function"
				},
				{
					"inputs": [
						{
							"internalType": "address",
							"name": "_owner",
							"type": "address"
						}
					],
					"name": "revokePermissionAdmin",
					"outputs": [
						{
							"internalType": "bool",
							"name": "",
							"type": "bool"
						}
					],
					"stateMutability": "nonpayable",
					"type": "function"
				},
				{
					"inputs": [
						{
							"internalType": "uint256",
							"name": "_value",
							"type": "uint256"
						}
					],
					"name": "stake",
					"outputs": [
						{
							"internalType": "bool",
							"name": "",
							"type": "bool"
						}
					],
					"stateMutability": "nonpayable",
					"type": "function"
				},
				{
					"inputs": [
						{
							"internalType": "address",
							"name": "_owner",
							"type": "address"
						}
					],
					"name": "stakeOf",
					"outputs": [
						{
							"internalType": "uint256",
							"name": "",
							"type": "uint256"
						}
					],
					"stateMutability": "view",
					"type": "function"
				},
				{
					"inputs": [],
					"name": "symbol",
					"outputs": [
						{
							"internalType": "string",
							"name": "",
							"type": "string"
						}
					],
					"stateMutability": "view",
					"type": "function"
				},
				{
					"inputs": [],
					"name": "totalStaked",
					"outputs": [
						{
							"internalType": "uint256",
							"name": "",
							"type": "uint256"
						}
					],
					"stateMutability": "view",
					"type": "function"
				},
				{
					"inputs": [],
					"name": "totalSupply",
					"outputs": [
						{
							"internalType": "uint256",
							"name": "",
							"type": "uint256"
						}
					],
					"stateMutability": "view",
					"type": "function"
				},
				{
					"inputs": [],
					"name": "totalVotes",
					"outputs": [
						{
							"internalType": "uint256",
							"name": "",
							"type": "uint256"
						}
					],
					"stateMutability": "view",
					"type": "function"
				},
				{
					"inputs": [
						{
							"internalType": "address",
							"name": "_to",
							"type": "address"
						},
						{
							"internalType": "uint256",
							"name": "_value",
							"type": "uint256"
						}
					],
					"name": "transfer",
					"outputs": [
						{
							"internalType": "bool",
							"name": "",
							"type": "bool"
						}
					],
					"stateMutability": "nonpayable",
					"type": "function"
				},
				{
					"inputs": [
						{
							"internalType": "address",
							"name": "_from",
							"type": "address"
						},
						{
							"internalType": "address",
							"name": "_to",
							"type": "address"
						},
						{
							"internalType": "uint256",
							"name": "_value",
							"type": "uint256"
						}
					],
					"name": "transferFrom",
					"outputs": [
						{
							"internalType": "bool",
							"name": "",
							"type": "bool"
						}
					],
					"stateMutability": "nonpayable",
					"type": "function"
				},
				{
					"inputs": [
						{
							"internalType": "uint256",
							"name": "_value",
							"type": "uint256"
						}
					],
					"name": "unstake",
					"outputs": [
						{
							"internalType": "bool",
							"name": "",
							"type": "bool"
						}
					],
					"stateMutability": "nonpayable",
					"type": "function"
				},
				{
					"inputs": [
						{
							"internalType": "address",
							"name": "_vault",
							"type": "address"
						}
					],
					"name": "update",
					"outputs": [
						{
							"internalType": "bool",
							"name": "",
							"type": "bool"
						}
					],
					"stateMutability": "nonpayable",
					"type": "function"
				},
				{
					"inputs": [
						{
							"internalType": "uint256",
							"name": "_bpFeeBurn",
							"type": "uint256"
						},
						{
							"internalType": "uint256",
							"name": "_bpFeeBank",
							"type": "uint256"
						}
					],
					"name": "updateSettings",
					"outputs": [
						{
							"internalType": "bool",
							"name": "",
							"type": "bool"
						}
					],
					"stateMutability": "nonpayable",
					"type": "function"
				},
				{
					"inputs": [
						{
							"internalType": "address",
							"name": "_owner",
							"type": "address"
						}
					],
					"name": "votesOf",
					"outputs": [
						{
							"internalType": "uint256",
							"name": "",
							"type": "uint256"
						}
					],
					"stateMutability": "view",
					"type": "function"
				}
			],
			"devdoc": {
				"kind": "dev",
				"methods": {},
				"version": 1
			},
			"evm": {
				"assembly": "    /* \"smart_contracts/contracts/Token.sol\":6110:18360  contract Token is Authenticator, IERC20, ICustomToken {... */\n  mstore(0x40, 0xa0)\n    /* \"smart_contracts/contracts/Token.sol\":1511:1528  type(uint256).max */\n  0xffffffffffffffffffffffffffffffffffffffffffffffffffffffffffffffff\n    /* \"smart_contracts/contracts/Token.sol\":1482:1528  uint256 immutable INFINITE = type(uint256).max */\n  0x80\n  swap1\n  dup2\n  mstore\n  pop\n    /* \"smart_contracts/contracts/Token.sol\":6171:9449  constructor(address _dev) {... */\n  callvalue\n  dup1\n  iszero\n  tag_1\n  jumpi\n  0x00\n  dup1\n  revert\ntag_1:\n  pop\n  mload(0x40)\n  sub(codesize, bytecodeSize)\n  dup1\n  bytecodeSize\n  dup4\n  codecopy\n  dup2\n  dup2\n  add\n  0x40\n  mstore\n  dup2\n  add\n  swap1\n  tag_2\n  swap2\n  swap1\n  tag_3\n  jump\t// in\ntag_2:\n    /* \"smart_contracts/contracts/Token.sol\":6227:6231  true */\n  0x01\n    /* \"smart_contracts/contracts/Token.sol\":6207:6212  admin */\n  0x00\n    /* \"smart_contracts/contracts/Token.sol\":6207:6224  admin[msg.sender] */\n  dup1\n    /* \"smart_contracts/contracts/Token.sol\":6213:6223  msg.sender */\n  caller\n    /* \"smart_contracts/contracts/Token.sol\":6207:6224  admin[msg.sender] */\n  0xffffffffffffffffffffffffffffffffffffffff\n  and\n  0xffffffffffffffffffffffffffffffffffffffff\n  and\n  dup2\n  mstore\n  0x20\n  add\n  swap1\n  dup2\n  mstore\n  0x20\n  add\n  0x00\n  keccak256\n  0x00\n    /* \"smart_contracts/contracts/Token.sol\":6207:6231  admin[msg.sender] = true */\n  0x0100\n  exp\n  dup2\n  sload\n  dup2\n  0xff\n  mul\n  not\n  and\n  swap1\n  dup4\n  iszero\n  iszero\n  mul\n  or\n  swap1\n  sstore\n  pop\n    /* \"smart_contracts/contracts/Token.sol\":6241:6267  grantPermissionAdmin(_dev) */\n  tag_6\n    /* \"smart_contracts/contracts/Token.sol\":6262:6266  _dev */\n  dup2\n    /* \"smart_contracts/contracts/Token.sol\":6241:6261  grantPermissionAdmin */\n  shl(0x20, tag_7)\n    /* \"smart_contracts/contracts/Token.sol\":6241:6267  grantPermissionAdmin(_dev) */\n  0x20\n  shr\n  jump\t// in\ntag_6:\n  pop\n    /* \"smart_contracts/contracts/Token.sol\":6278:6311  meta.name        = \"Dreamcatcher\" */\n  mload(0x40)\n  dup1\n  0x40\n  add\n  0x40\n  mstore\n  dup1\n  0x0c\n  dup2\n  mstore\n  0x20\n  add\n  0x447265616d636174636865720000000000000000000000000000000000000000\n  dup2\n  mstore\n  pop\n    /* \"smart_contracts/contracts/Token.sol\":6278:6282  meta */\n  0x07\n    /* \"smart_contracts/contracts/Token.sol\":6278:6287  meta.name */\n  0x00\n  add\n    /* \"smart_contracts/contracts/Token.sol\":6278:6311  meta.name        = \"Dreamcatcher\" */\n  swap1\n  dup2\n  tag_8\n  swap2\n  swap1\n  tag_9\n  jump\t// in\ntag_8:\n  pop\n    /* \"smart_contracts/contracts/Token.sol\":6321:6347  meta.symbol      = \"DREAM\" */\n  mload(0x40)\n  dup1\n  0x40\n  add\n  0x40\n  mstore\n  dup1\n  0x05\n  dup2\n  mstore\n  0x20\n  add\n  0x445245414d000000000000000000000000000000000000000000000000000000\n  dup2\n  mstore\n  pop\n    /* \"smart_contracts/contracts/Token.sol\":6321:6325  meta */\n  0x07\n    /* \"smart_contracts/contracts/Token.sol\":6321:6332  meta.symbol */\n  0x01\n  add\n    /* \"smart_contracts/contracts/Token.sol\":6321:6347  meta.symbol      = \"DREAM\" */\n  swap1\n  dup2\n  tag_10\n  swap2\n  swap1\n  tag_9\n  jump\t// in\ntag_10:\n  pop\n    /* \"smart_contracts/contracts/Token.sol\":6376:6378  18 */\n  0x12\n    /* \"smart_contracts/contracts/Token.sol\":6357:6361  meta */\n  0x07\n    /* \"smart_contracts/contracts/Token.sol\":6357:6370  meta.decimals */\n  0x02\n  add\n  0x00\n    /* \"smart_contracts/contracts/Token.sol\":6357:6378  meta.decimals    = 18 */\n  0x0100\n  exp\n  dup2\n  sload\n  dup2\n  0xff\n  mul\n  not\n  and\n  swap1\n  dup4\n  0xff\n  and\n  mul\n  or\n  swap1\n  sstore\n  pop\n    /* \"smart_contracts/contracts/Token.sol\":6407:6408  0 */\n  0x00\n    /* \"smart_contracts/contracts/Token.sol\":6388:6392  meta */\n  0x07\n    /* \"smart_contracts/contracts/Token.sol\":6388:6404  meta.totalSupply */\n  0x04\n  add\n    /* \"smart_contracts/contracts/Token.sol\":6388:6408  meta.totalSupply = 0 */\n  dup2\n  swap1\n  sstore\n  pop\n    /* \"smart_contracts/contracts/Token.sol\":6453:6457  meta */\n  0x07\n    /* \"smart_contracts/contracts/Token.sol\":6453:6466  meta.decimals */\n  0x02\n  add\n  0x00\n  swap1\n  sload\n  swap1\n  0x0100\n  exp\n  swap1\n  div\n  0xff\n  and\n    /* \"smart_contracts/contracts/Token.sol\":6449:6451  10 */\n  0x0a\n    /* \"smart_contracts/contracts/Token.sol\":6449:6466  10**meta.decimals */\n  tag_11\n  swap2\n  swap1\n  tag_12\n  jump\t// in\ntag_11:\n    /* \"smart_contracts/contracts/Token.sol\":6437:6446  200000000 */\n  0x0bebc200\n    /* \"smart_contracts/contracts/Token.sol\":6437:6466  200000000 * 10**meta.decimals */\n  tag_13\n  swap2\n  swap1\n  tag_14\n  jump\t// in\ntag_13:\n    /* \"smart_contracts/contracts/Token.sol\":6418:6422  meta */\n  0x07\n    /* \"smart_contracts/contracts/Token.sol\":6418:6432  meta.maxSupply */\n  0x08\n  add\n    /* \"smart_contracts/contracts/Token.sol\":6418:6466  meta.maxSupply   = 200000000 * 10**meta.decimals */\n  dup2\n  swap1\n  sstore\n  pop\n    /* \"smart_contracts/contracts/Token.sol\":6495:6499  meta */\n  0x07\n    /* \"smart_contracts/contracts/Token.sol\":6495:6509  meta.maxSupply */\n  0x08\n  add\n  sload\n    /* \"smart_contracts/contracts/Token.sol\":6476:6480  meta */\n  0x07\n    /* \"smart_contracts/contracts/Token.sol\":6476:6489  meta.mintable */\n  0x03\n  add\n    /* \"smart_contracts/contracts/Token.sol\":6476:6509  meta.mintable    = meta.maxSupply */\n  dup2\n  swap1\n  sstore\n  pop\n    /* \"smart_contracts/contracts/Token.sol\":6538:6542  _dev */\n  dup1\n    /* \"smart_contracts/contracts/Token.sol\":6519:6523  meta */\n  0x07\n    /* \"smart_contracts/contracts/Token.sol\":6519:6529  meta.vault */\n  0x09\n  add\n  0x00\n    /* \"smart_contracts/contracts/Token.sol\":6519:6542  meta.vault       = _dev */\n  0x0100\n  exp\n  dup2\n  sload\n  dup2\n  0xffffffffffffffffffffffffffffffffffffffff\n  mul\n  not\n  and\n  swap1\n  dup4\n  0xffffffffffffffffffffffffffffffffffffffff\n  and\n  mul\n  or\n  swap1\n  sstore\n  pop\n    /* \"smart_contracts/contracts/Token.sol\":6584:6585  0 */\n  0x00\n    /* \"smart_contracts/contracts/Token.sol\":6553:6561  settings */\n  0x01\n    /* \"smart_contracts/contracts/Token.sol\":6553:6576  settings.bpTransferBurn */\n  0x04\n  add\n    /* \"smart_contracts/contracts/Token.sol\":6553:6585  settings.bpTransferBurn      = 0 */\n  dup2\n  swap1\n  sstore\n  pop\n    /* \"smart_contracts/contracts/Token.sol\":6626:6627  0 */\n  0x00\n    /* \"smart_contracts/contracts/Token.sol\":6595:6603  settings */\n  0x01\n    /* \"smart_contracts/contracts/Token.sol\":6595:6618  settings.bpTransferBank */\n  0x05\n  add\n    /* \"smart_contracts/contracts/Token.sol\":6595:6627  settings.bpTransferBank      = 0 */\n  dup2\n  swap1\n  sstore\n  pop\n    /* \"smart_contracts/contracts/Token.sol\":6668:6669  0 */\n  0x00\n    /* \"smart_contracts/contracts/Token.sol\":6637:6645  settings */\n  0x01\n    /* \"smart_contracts/contracts/Token.sol\":6637:6663  settings.bpTransferBurnMin */\n  0x00\n  add\n    /* \"smart_contracts/contracts/Token.sol\":6637:6669  settings.bpTransferBurnMin   = 0 */\n  dup2\n  swap1\n  sstore\n  pop\n    /* \"smart_contracts/contracts/Token.sol\":6710:6711  0 */\n  0x00\n    /* \"smart_contracts/contracts/Token.sol\":6679:6687  settings */\n  0x01\n    /* \"smart_contracts/contracts/Token.sol\":6679:6705  settings.bpTransferBankMin */\n  dup1\n  add\n    /* \"smart_contracts/contracts/Token.sol\":6679:6711  settings.bpTransferBankMin   = 0 */\n  dup2\n  swap1\n  sstore\n  pop\n    /* \"smart_contracts/contracts/Token.sol\":6752:6757  10000 */\n  0x2710\n    /* \"smart_contracts/contracts/Token.sol\":6721:6729  settings */\n  0x01\n    /* \"smart_contracts/contracts/Token.sol\":6721:6747  settings.bpTransferBurnMax */\n  0x02\n  add\n    /* \"smart_contracts/contracts/Token.sol\":6721:6757  settings.bpTransferBurnMax   = 10000 */\n  dup2\n  swap1\n  sstore\n  pop\n    /* \"smart_contracts/contracts/Token.sol\":6798:6803  10000 */\n  0x2710\n    /* \"smart_contracts/contracts/Token.sol\":6767:6775  settings */\n  0x01\n    /* \"smart_contracts/contracts/Token.sol\":6767:6793  settings.bpTransferBankMax */\n  0x03\n  add\n    /* \"smart_contracts/contracts/Token.sol\":6767:6803  settings.bpTransferBankMax   = 10000 */\n  dup2\n  swap1\n  sstore\n  pop\n    /* \"smart_contracts/contracts/Token.sol\":6839:6850  address _to */\n  0x00\n    /* \"smart_contracts/contracts/Token.sol\":6866:6908  0xDbF85074764156004FEb245b65693e59a62262c2 */\n  0xdbf85074764156004feb245b65693e59a62262c2\n    /* \"smart_contracts/contracts/Token.sol\":6839:6908  address _to              = 0xDbF85074764156004FEb245b65693e59a62262c2 */\n  swap1\n  pop\n    /* \"smart_contracts/contracts/Token.sol\":6918:6932  uint256 _value */\n  0x00\n    /* \"smart_contracts/contracts/Token.sol\":6960:6964  meta */\n  0x07\n    /* \"smart_contracts/contracts/Token.sol\":6960:6973  meta.decimals */\n  0x02\n  add\n  0x00\n  swap1\n  sload\n  swap1\n  0x0100\n  exp\n  swap1\n  div\n  0xff\n  and\n    /* \"smart_contracts/contracts/Token.sol\":6954:6956  10 */\n  0x0a\n    /* \"smart_contracts/contracts/Token.sol\":6954:6973  10 ** meta.decimals */\n  tag_15\n  swap2\n  swap1\n  tag_12\n  jump\t// in\ntag_15:\n    /* \"smart_contracts/contracts/Token.sol\":6945:6951  190000 */\n  0x02e630\n    /* \"smart_contracts/contracts/Token.sol\":6945:6973  190000 * 10 ** meta.decimals */\n  tag_16\n  swap2\n  swap1\n  tag_14\n  jump\t// in\ntag_16:\n    /* \"smart_contracts/contracts/Token.sol\":6918:6973  uint256 _value           = 190000 * 10 ** meta.decimals */\n  swap1\n  pop\n    /* \"smart_contracts/contracts/Token.sol\":6983:7005  uint256 _unvestedValue */\n  0x00\n    /* \"smart_contracts/contracts/Token.sol\":7025:7029  meta */\n  0x07\n    /* \"smart_contracts/contracts/Token.sol\":7025:7038  meta.decimals */\n  0x02\n  add\n  0x00\n  swap1\n  sload\n  swap1\n  0x0100\n  exp\n  swap1\n  div\n  0xff\n  and\n    /* \"smart_contracts/contracts/Token.sol\":7019:7021  10 */\n  0x0a\n    /* \"smart_contracts/contracts/Token.sol\":7019:7038  10 ** meta.decimals */\n  tag_17\n  swap2\n  swap1\n  tag_12\n  jump\t// in\ntag_17:\n    /* \"smart_contracts/contracts/Token.sol\":7010:7016  100000 */\n  0x0186a0\n    /* \"smart_contracts/contracts/Token.sol\":7010:7038  100000 * 10 ** meta.decimals */\n  tag_18\n  swap2\n  swap1\n  tag_14\n  jump\t// in\ntag_18:\n    /* \"smart_contracts/contracts/Token.sol\":6983:7038  uint256 _unvestedValue   = 100000 * 10 ** meta.decimals */\n  swap1\n  pop\n    /* \"smart_contracts/contracts/Token.sol\":7048:7072  uint256 _vestingDuration */\n  0x00\n    /* \"smart_contracts/contracts/Token.sol\":7075:7083  48 weeks */\n  0x01baf800\n    /* \"smart_contracts/contracts/Token.sol\":7048:7083  uint256 _vestingDuration = 48 weeks */\n  swap1\n  pop\n    /* \"smart_contracts/contracts/Token.sol\":7093:7113  uint256 _initialYear */\n  0x00\n    /* \"smart_contracts/contracts/Token.sol\":7120:7124  2023 */\n  0x07e7\n    /* \"smart_contracts/contracts/Token.sol\":7093:7124  uint256 _initialYear     = 2023 */\n  swap1\n  pop\n    /* \"smart_contracts/contracts/Token.sol\":7134:7160  mint_(_to, _unvestedValue) */\n  tag_19\n    /* \"smart_contracts/contracts/Token.sol\":7140:7143  _to */\n  dup6\n    /* \"smart_contracts/contracts/Token.sol\":7145:7159  _unvestedValue */\n  dup5\n    /* \"smart_contracts/contracts/Token.sol\":7134:7139  mint_ */\n  shl(0x20, tag_20)\n    /* \"smart_contracts/contracts/Token.sol\":7134:7160  mint_(_to, _unvestedValue) */\n  0x20\n  shr\n  jump\t// in\ntag_19:\n  pop\n    /* \"smart_contracts/contracts/Token.sol\":7175:7185  uint256 _i */\n  0x00\n    /* \"smart_contracts/contracts/Token.sol\":7170:7474  for (uint256 _i = 0; _i <= 10; _i++) {... */\ntag_21:\n    /* \"smart_contracts/contracts/Token.sol\":7197:7199  10 */\n  0x0a\n    /* \"smart_contracts/contracts/Token.sol\":7191:7193  _i */\n  dup2\n    /* \"smart_contracts/contracts/Token.sol\":7191:7199  _i <= 10 */\n  gt\n    /* \"smart_contracts/contracts/Token.sol\":7170:7474  for (uint256 _i = 0; _i <= 10; _i++) {... */\n  tag_22\n  jumpi\n    /* \"smart_contracts/contracts/Token.sol\":7221:7234  uint256 _year */\n  0x00\n    /* \"smart_contracts/contracts/Token.sol\":7252:7254  _i */\n  dup2\n    /* \"smart_contracts/contracts/Token.sol\":7237:7249  _initialYear */\n  dup4\n    /* \"smart_contracts/contracts/Token.sol\":7237:7254  _initialYear + _i */\n  tag_24\n  swap2\n  swap1\n  tag_25\n  jump\t// in\ntag_24:\n    /* \"smart_contracts/contracts/Token.sol\":7221:7254  uint256 _year = _initialYear + _i */\n  swap1\n  pop\n    /* \"smart_contracts/contracts/Token.sol\":7268:7290  string memory _caption */\n  0x00\n    /* \"smart_contracts/contracts/Token.sol\":7357:7385  Utils.uint256ToString(_year) */\n  tag_26\n    /* \"smart_contracts/contracts/Token.sol\":7379:7384  _year */\n  dup3\n    /* \"smart_contracts/contracts/Token.sol\":7357:7378  Utils.uint256ToString */\n  or(tag_0_142, shl(0x20, tag_27))\n    /* \"smart_contracts/contracts/Token.sol\":7357:7385  Utils.uint256ToString(_year) */\n  0x20\n  shr\n  jump\t// in\ntag_26:\n    /* \"smart_contracts/contracts/Token.sol\":7317:7386  abi.encodePacked(\"VS\", ... */\n  add(0x20, mload(0x40))\n  tag_28\n  swap2\n  swap1\n  tag_29\n  jump\t// in\ntag_28:\n  mload(0x40)\n  0x20\n  dup2\n  dup4\n  sub\n  sub\n  dup2\n  mstore\n  swap1\n  0x40\n  mstore\n    /* \"smart_contracts/contracts/Token.sol\":7268:7387  string memory _caption = string(... */\n  swap1\n  pop\n    /* \"smart_contracts/contracts/Token.sol\":7401:7463  mintWithVesting_(_to, _value, _vestingDuration * _i, _caption) */\n  tag_30\n    /* \"smart_contracts/contracts/Token.sol\":7418:7421  _to */\n  dup9\n    /* \"smart_contracts/contracts/Token.sol\":7423:7429  _value */\n  dup9\n    /* \"smart_contracts/contracts/Token.sol\":7450:7452  _i */\n  dup6\n    /* \"smart_contracts/contracts/Token.sol\":7431:7447  _vestingDuration */\n  dup9\n    /* \"smart_contracts/contracts/Token.sol\":7431:7452  _vestingDuration * _i */\n  tag_31\n  swap2\n  swap1\n  tag_14\n  jump\t// in\ntag_31:\n    /* \"smart_contracts/contracts/Token.sol\":7454:7462  _caption */\n  dup5\n    /* \"smart_contracts/contracts/Token.sol\":7401:7417  mintWithVesting_ */\n  shl(0x20, tag_32)\n    /* \"smart_contracts/contracts/Token.sol\":7401:7463  mintWithVesting_(_to, _value, _vestingDuration * _i, _caption) */\n  0x20\n  shr\n  jump\t// in\ntag_30:\n  pop\n    /* \"smart_contracts/contracts/Token.sol\":7207:7474  {... */\n  pop\n  pop\n    /* \"smart_contracts/contracts/Token.sol\":7201:7205  _i++ */\n  dup1\n  dup1\n  tag_33\n  swap1\n  tag_34\n  jump\t// in\ntag_33:\n  swap2\n  pop\n  pop\n    /* \"smart_contracts/contracts/Token.sol\":7170:7474  for (uint256 _i = 0; _i <= 10; _i++) {... */\n  jump(tag_21)\ntag_22:\n  pop\n    /* \"smart_contracts/contracts/Token.sol\":7528:7570  0x172952523F64EAAF288DE4cE9e5d1295DCFd3F83 */\n  0x172952523f64eaaf288de4ce9e5d1295dcfd3f83\n    /* \"smart_contracts/contracts/Token.sol\":7509:7570  _to              = 0x172952523F64EAAF288DE4cE9e5d1295DCFd3F83 */\n  swap5\n  pop\n    /* \"smart_contracts/contracts/Token.sol\":7614:7618  meta */\n  0x07\n    /* \"smart_contracts/contracts/Token.sol\":7614:7627  meta.decimals */\n  0x02\n  add\n  0x00\n  swap1\n  sload\n  swap1\n  0x0100\n  exp\n  swap1\n  div\n  0xff\n  and\n    /* \"smart_contracts/contracts/Token.sol\":7608:7610  10 */\n  0x0a\n    /* \"smart_contracts/contracts/Token.sol\":7608:7627  10 ** meta.decimals */\n  tag_35\n  swap2\n  swap1\n  tag_12\n  jump\t// in\ntag_35:\n    /* \"smart_contracts/contracts/Token.sol\":7599:7605  190000 */\n  0x02e630\n    /* \"smart_contracts/contracts/Token.sol\":7599:7627  190000 * 10 ** meta.decimals */\n  tag_36\n  swap2\n  swap1\n  tag_14\n  jump\t// in\ntag_36:\n    /* \"smart_contracts/contracts/Token.sol\":7580:7627  _value           = 190000 * 10 ** meta.decimals */\n  swap4\n  pop\n    /* \"smart_contracts/contracts/Token.sol\":7671:7675  meta */\n  0x07\n    /* \"smart_contracts/contracts/Token.sol\":7671:7684  meta.decimals */\n  0x02\n  add\n  0x00\n  swap1\n  sload\n  swap1\n  0x0100\n  exp\n  swap1\n  div\n  0xff\n  and\n    /* \"smart_contracts/contracts/Token.sol\":7665:7667  10 */\n  0x0a\n    /* \"smart_contracts/contracts/Token.sol\":7665:7684  10 ** meta.decimals */\n  tag_37\n  swap2\n  swap1\n  tag_12\n  jump\t// in\ntag_37:\n    /* \"smart_contracts/contracts/Token.sol\":7656:7662  100000 */\n  0x0186a0\n    /* \"smart_contracts/contracts/Token.sol\":7656:7684  100000 * 10 ** meta.decimals */\n  tag_38\n  swap2\n  swap1\n  tag_14\n  jump\t// in\ntag_38:\n    /* \"smart_contracts/contracts/Token.sol\":7637:7684  _unvestedValue   = 100000 * 10 ** meta.decimals */\n  swap3\n  pop\n    /* \"smart_contracts/contracts/Token.sol\":7713:7721  48 weeks */\n  0x01baf800\n    /* \"smart_contracts/contracts/Token.sol\":7694:7721  _vestingDuration = 48 weeks */\n  swap2\n  pop\n    /* \"smart_contracts/contracts/Token.sol\":7750:7754  2023 */\n  0x07e7\n    /* \"smart_contracts/contracts/Token.sol\":7731:7754  _initialYear     = 2023 */\n  swap1\n  pop\n    /* \"smart_contracts/contracts/Token.sol\":7764:7790  mint_(_to, _unvestedValue) */\n  tag_39\n    /* \"smart_contracts/contracts/Token.sol\":7770:7773  _to */\n  dup6\n    /* \"smart_contracts/contracts/Token.sol\":7775:7789  _unvestedValue */\n  dup5\n    /* \"smart_contracts/contracts/Token.sol\":7764:7769  mint_ */\n  shl(0x20, tag_20)\n    /* \"smart_contracts/contracts/Token.sol\":7764:7790  mint_(_to, _unvestedValue) */\n  0x20\n  shr\n  jump\t// in\ntag_39:\n  pop\n    /* \"smart_contracts/contracts/Token.sol\":7805:7815  uint256 _i */\n  0x00\n    /* \"smart_contracts/contracts/Token.sol\":7800:8104  for (uint256 _i = 0; _i <= 10; _i++) {... */\ntag_40:\n    /* \"smart_contracts/contracts/Token.sol\":7827:7829  10 */\n  0x0a\n    /* \"smart_contracts/contracts/Token.sol\":7821:7823  _i */\n  dup2\n    /* \"smart_contracts/contracts/Token.sol\":7821:7829  _i <= 10 */\n  gt\n    /* \"smart_contracts/contracts/Token.sol\":7800:8104  for (uint256 _i = 0; _i <= 10; _i++) {... */\n  tag_41\n  jumpi\n    /* \"smart_contracts/contracts/Token.sol\":7851:7864  uint256 _year */\n  0x00\n    /* \"smart_contracts/contracts/Token.sol\":7882:7884  _i */\n  dup2\n    /* \"smart_contracts/contracts/Token.sol\":7867:7879  _initialYear */\n  dup4\n    /* \"smart_contracts/contracts/Token.sol\":7867:7884  _initialYear + _i */\n  tag_43\n  swap2\n  swap1\n  tag_25\n  jump\t// in\ntag_43:\n    /* \"smart_contracts/contracts/Token.sol\":7851:7884  uint256 _year = _initialYear + _i */\n  swap1\n  pop\n    /* \"smart_contracts/contracts/Token.sol\":7898:7920  string memory _caption */\n  0x00\n    /* \"smart_contracts/contracts/Token.sol\":7987:8015  Utils.uint256ToString(_year) */\n  tag_44\n    /* \"smart_contracts/contracts/Token.sol\":8009:8014  _year */\n  dup3\n    /* \"smart_contracts/contracts/Token.sol\":7987:8008  Utils.uint256ToString */\n  or(tag_0_142, shl(0x20, tag_27))\n    /* \"smart_contracts/contracts/Token.sol\":7987:8015  Utils.uint256ToString(_year) */\n  0x20\n  shr\n  jump\t// in\ntag_44:\n    /* \"smart_contracts/contracts/Token.sol\":7947:8016  abi.encodePacked(\"VS\", ... */\n  add(0x20, mload(0x40))\n  tag_45\n  swap2\n  swap1\n  tag_29\n  jump\t// in\ntag_45:\n  mload(0x40)\n  0x20\n  dup2\n  dup4\n  sub\n  sub\n  dup2\n  mstore\n  swap1\n  0x40\n  mstore\n    /* \"smart_contracts/contracts/Token.sol\":7898:8017  string memory _caption = string(... */\n  swap1\n  pop\n    /* \"smart_contracts/contracts/Token.sol\":8031:8093  mintWithVesting_(_to, _value, _vestingDuration * _i, _caption) */\n  tag_46\n    /* \"smart_contracts/contracts/Token.sol\":8048:8051  _to */\n  dup9\n    /* \"smart_contracts/contracts/Token.sol\":8053:8059  _value */\n  dup9\n    /* \"smart_contracts/contracts/Token.sol\":8080:8082  _i */\n  dup6\n    /* \"smart_contracts/contracts/Token.sol\":8061:8077  _vestingDuration */\n  dup9\n    /* \"smart_contracts/contracts/Token.sol\":8061:8082  _vestingDuration * _i */\n  tag_47\n  swap2\n  swap1\n  tag_14\n  jump\t// in\ntag_47:\n    /* \"smart_contracts/contracts/Token.sol\":8084:8092  _caption */\n  dup5\n    /* \"smart_contracts/contracts/Token.sol\":8031:8047  mintWithVesting_ */\n  shl(0x20, tag_32)\n    /* \"smart_contracts/contracts/Token.sol\":8031:8093  mintWithVesting_(_to, _value, _vestingDuration * _i, _caption) */\n  0x20\n  shr\n  jump\t// in\ntag_46:\n  pop\n    /* \"smart_contracts/contracts/Token.sol\":7837:8104  {... */\n  pop\n  pop\n    /* \"smart_contracts/contracts/Token.sol\":7831:7835  _i++ */\n  dup1\n  dup1\n  tag_48\n  swap1\n  tag_34\n  jump\t// in\ntag_48:\n  swap2\n  pop\n  pop\n    /* \"smart_contracts/contracts/Token.sol\":7800:8104  for (uint256 _i = 0; _i <= 10; _i++) {... */\n  jump(tag_40)\ntag_41:\n  pop\n    /* \"smart_contracts/contracts/Token.sol\":8158:8200  0xbAF175966DCAB0012B9ab23150d1b1f8dA4C41da */\n  0xbaf175966dcab0012b9ab23150d1b1f8da4c41da\n    /* \"smart_contracts/contracts/Token.sol\":8139:8200  _to              = 0xbAF175966DCAB0012B9ab23150d1b1f8dA4C41da */\n  swap5\n  pop\n    /* \"smart_contracts/contracts/Token.sol\":8244:8248  meta */\n  0x07\n    /* \"smart_contracts/contracts/Token.sol\":8244:8257  meta.decimals */\n  0x02\n  add\n  0x00\n  swap1\n  sload\n  swap1\n  0x0100\n  exp\n  swap1\n  div\n  0xff\n  and\n    /* \"smart_contracts/contracts/Token.sol\":8238:8240  10 */\n  0x0a\n    /* \"smart_contracts/contracts/Token.sol\":8238:8257  10 ** meta.decimals */\n  tag_49\n  swap2\n  swap1\n  tag_12\n  jump\t// in\ntag_49:\n    /* \"smart_contracts/contracts/Token.sol\":8229:8235  190000 */\n  0x02e630\n    /* \"smart_contracts/contracts/Token.sol\":8229:8257  190000 * 10 ** meta.decimals */\n  tag_50\n  swap2\n  swap1\n  tag_14\n  jump\t// in\ntag_50:\n    /* \"smart_contracts/contracts/Token.sol\":8210:8257  _value           = 190000 * 10 ** meta.decimals */\n  swap4\n  pop\n    /* \"smart_contracts/contracts/Token.sol\":8301:8305  meta */\n  0x07\n    /* \"smart_contracts/contracts/Token.sol\":8301:8314  meta.decimals */\n  0x02\n  add\n  0x00\n  swap1\n  sload\n  swap1\n  0x0100\n  exp\n  swap1\n  div\n  0xff\n  and\n    /* \"smart_contracts/contracts/Token.sol\":8295:8297  10 */\n  0x0a\n    /* \"smart_contracts/contracts/Token.sol\":8295:8314  10 ** meta.decimals */\n  tag_51\n  swap2\n  swap1\n  tag_12\n  jump\t// in\ntag_51:\n    /* \"smart_contracts/contracts/Token.sol\":8286:8292  100000 */\n  0x0186a0\n    /* \"smart_contracts/contracts/Token.sol\":8286:8314  100000 * 10 ** meta.decimals */\n  tag_52\n  swap2\n  swap1\n  tag_14\n  jump\t// in\ntag_52:\n    /* \"smart_contracts/contracts/Token.sol\":8267:8314  _unvestedValue   = 100000 * 10 ** meta.decimals */\n  swap3\n  pop\n    /* \"smart_contracts/contracts/Token.sol\":8343:8351  48 weeks */\n  0x01baf800\n    /* \"smart_contracts/contracts/Token.sol\":8324:8351  _vestingDuration = 48 weeks */\n  swap2\n  pop\n    /* \"smart_contracts/contracts/Token.sol\":8380:8384  2023 */\n  0x07e7\n    /* \"smart_contracts/contracts/Token.sol\":8361:8384  _initialYear     = 2023 */\n  swap1\n  pop\n    /* \"smart_contracts/contracts/Token.sol\":8394:8420  mint_(_to, _unvestedValue) */\n  tag_53\n    /* \"smart_contracts/contracts/Token.sol\":8400:8403  _to */\n  dup6\n    /* \"smart_contracts/contracts/Token.sol\":8405:8419  _unvestedValue */\n  dup5\n    /* \"smart_contracts/contracts/Token.sol\":8394:8399  mint_ */\n  shl(0x20, tag_20)\n    /* \"smart_contracts/contracts/Token.sol\":8394:8420  mint_(_to, _unvestedValue) */\n  0x20\n  shr\n  jump\t// in\ntag_53:\n  pop\n    /* \"smart_contracts/contracts/Token.sol\":8435:8445  uint256 _i */\n  0x00\n    /* \"smart_contracts/contracts/Token.sol\":8430:8734  for (uint256 _i = 0; _i <= 10; _i++) {... */\ntag_54:\n    /* \"smart_contracts/contracts/Token.sol\":8457:8459  10 */\n  0x0a\n    /* \"smart_contracts/contracts/Token.sol\":8451:8453  _i */\n  dup2\n    /* \"smart_contracts/contracts/Token.sol\":8451:8459  _i <= 10 */\n  gt\n    /* \"smart_contracts/contracts/Token.sol\":8430:8734  for (uint256 _i = 0; _i <= 10; _i++) {... */\n  tag_55\n  jumpi\n    /* \"smart_contracts/contracts/Token.sol\":8481:8494  uint256 _year */\n  0x00\n    /* \"smart_contracts/contracts/Token.sol\":8512:8514  _i */\n  dup2\n    /* \"smart_contracts/contracts/Token.sol\":8497:8509  _initialYear */\n  dup4\n    /* \"smart_contracts/contracts/Token.sol\":8497:8514  _initialYear + _i */\n  tag_57\n  swap2\n  swap1\n  tag_25\n  jump\t// in\ntag_57:\n    /* \"smart_contracts/contracts/Token.sol\":8481:8514  uint256 _year = _initialYear + _i */\n  swap1\n  pop\n    /* \"smart_contracts/contracts/Token.sol\":8528:8550  string memory _caption */\n  0x00\n    /* \"smart_contracts/contracts/Token.sol\":8617:8645  Utils.uint256ToString(_year) */\n  tag_58\n    /* \"smart_contracts/contracts/Token.sol\":8639:8644  _year */\n  dup3\n    /* \"smart_contracts/contracts/Token.sol\":8617:8638  Utils.uint256ToString */\n  or(tag_0_142, shl(0x20, tag_27))\n    /* \"smart_contracts/contracts/Token.sol\":8617:8645  Utils.uint256ToString(_year) */\n  0x20\n  shr\n  jump\t// in\ntag_58:\n    /* \"smart_contracts/contracts/Token.sol\":8577:8646  abi.encodePacked(\"VS\", ... */\n  add(0x20, mload(0x40))\n  tag_59\n  swap2\n  swap1\n  tag_29\n  jump\t// in\ntag_59:\n  mload(0x40)\n  0x20\n  dup2\n  dup4\n  sub\n  sub\n  dup2\n  mstore\n  swap1\n  0x40\n  mstore\n    /* \"smart_contracts/contracts/Token.sol\":8528:8647  string memory _caption = string(... */\n  swap1\n  pop\n    /* \"smart_contracts/contracts/Token.sol\":8661:8723  mintWithVesting_(_to, _value, _vestingDuration * _i, _caption) */\n  tag_60\n    /* \"smart_contracts/contracts/Token.sol\":8678:8681  _to */\n  dup9\n    /* \"smart_contracts/contracts/Token.sol\":8683:8689  _value */\n  dup9\n    /* \"smart_contracts/contracts/Token.sol\":8710:8712  _i */\n  dup6\n    /* \"smart_contracts/contracts/Token.sol\":8691:8707  _vestingDuration */\n  dup9\n    /* \"smart_contracts/contracts/Token.sol\":8691:8712  _vestingDuration * _i */\n  tag_61\n  swap2\n  swap1\n  tag_14\n  jump\t// in\ntag_61:\n    /* \"smart_contracts/contracts/Token.sol\":8714:8722  _caption */\n  dup5\n    /* \"smart_contracts/contracts/Token.sol\":8661:8677  mintWithVesting_ */\n  shl(0x20, tag_32)\n    /* \"smart_contracts/contracts/Token.sol\":8661:8723  mintWithVesting_(_to, _value, _vestingDuration * _i, _caption) */\n  0x20\n  shr\n  jump\t// in\ntag_60:\n  pop\n    /* \"smart_contracts/contracts/Token.sol\":8467:8734  {... */\n  pop\n  pop\n    /* \"smart_contracts/contracts/Token.sol\":8461:8465  _i++ */\n  dup1\n  dup1\n  tag_62\n  swap1\n  tag_34\n  jump\t// in\ntag_62:\n  swap2\n  pop\n  pop\n    /* \"smart_contracts/contracts/Token.sol\":8430:8734  for (uint256 _i = 0; _i <= 10; _i++) {... */\n  jump(tag_54)\ntag_55:\n  pop\n    /* \"smart_contracts/contracts/Token.sol\":8788:8830  0x1de8807f69E357FD91e47B34Dc2a66216a9DC4b4 */\n  0x1de8807f69e357fd91e47b34dc2a66216a9dc4b4\n    /* \"smart_contracts/contracts/Token.sol\":8769:8830  _to              = 0x1de8807f69E357FD91e47B34Dc2a66216a9DC4b4 */\n  swap5\n  pop\n    /* \"smart_contracts/contracts/Token.sol\":8874:8878  meta */\n  0x07\n    /* \"smart_contracts/contracts/Token.sol\":8874:8887  meta.decimals */\n  0x02\n  add\n  0x00\n  swap1\n  sload\n  swap1\n  0x0100\n  exp\n  swap1\n  div\n  0xff\n  and\n    /* \"smart_contracts/contracts/Token.sol\":8868:8870  10 */\n  0x0a\n    /* \"smart_contracts/contracts/Token.sol\":8868:8887  10 ** meta.decimals */\n  tag_63\n  swap2\n  swap1\n  tag_12\n  jump\t// in\ntag_63:\n    /* \"smart_contracts/contracts/Token.sol\":8859:8865  190000 */\n  0x02e630\n    /* \"smart_contracts/contracts/Token.sol\":8859:8887  190000 * 10 ** meta.decimals */\n  tag_64\n  swap2\n  swap1\n  tag_14\n  jump\t// in\ntag_64:\n    /* \"smart_contracts/contracts/Token.sol\":8840:8887  _value           = 190000 * 10 ** meta.decimals */\n  swap4\n  pop\n    /* \"smart_contracts/contracts/Token.sol\":8931:8935  meta */\n  0x07\n    /* \"smart_contracts/contracts/Token.sol\":8931:8944  meta.decimals */\n  0x02\n  add\n  0x00\n  swap1\n  sload\n  swap1\n  0x0100\n  exp\n  swap1\n  div\n  0xff\n  and\n    /* \"smart_contracts/contracts/Token.sol\":8925:8927  10 */\n  0x0a\n    /* \"smart_contracts/contracts/Token.sol\":8925:8944  10 ** meta.decimals */\n  tag_65\n  swap2\n  swap1\n  tag_12\n  jump\t// in\ntag_65:\n    /* \"smart_contracts/contracts/Token.sol\":8916:8922  100000 */\n  0x0186a0\n    /* \"smart_contracts/contracts/Token.sol\":8916:8944  100000 * 10 ** meta.decimals */\n  tag_66\n  swap2\n  swap1\n  tag_14\n  jump\t// in\ntag_66:\n    /* \"smart_contracts/contracts/Token.sol\":8897:8944  _unvestedValue   = 100000 * 10 ** meta.decimals */\n  swap3\n  pop\n    /* \"smart_contracts/contracts/Token.sol\":8973:8981  48 weeks */\n  0x01baf800\n    /* \"smart_contracts/contracts/Token.sol\":8954:8981  _vestingDuration = 48 weeks */\n  swap2\n  pop\n    /* \"smart_contracts/contracts/Token.sol\":9010:9014  2023 */\n  0x07e7\n    /* \"smart_contracts/contracts/Token.sol\":8991:9014  _initialYear     = 2023 */\n  swap1\n  pop\n    /* \"smart_contracts/contracts/Token.sol\":9024:9050  mint_(_to, _unvestedValue) */\n  tag_67\n    /* \"smart_contracts/contracts/Token.sol\":9030:9033  _to */\n  dup6\n    /* \"smart_contracts/contracts/Token.sol\":9035:9049  _unvestedValue */\n  dup5\n    /* \"smart_contracts/contracts/Token.sol\":9024:9029  mint_ */\n  shl(0x20, tag_20)\n    /* \"smart_contracts/contracts/Token.sol\":9024:9050  mint_(_to, _unvestedValue) */\n  0x20\n  shr\n  jump\t// in\ntag_67:\n  pop\n    /* \"smart_contracts/contracts/Token.sol\":9065:9075  uint256 _i */\n  0x00\n    /* \"smart_contracts/contracts/Token.sol\":9060:9364  for (uint256 _i = 0; _i <= 10; _i++) {... */\ntag_68:\n    /* \"smart_contracts/contracts/Token.sol\":9087:9089  10 */\n  0x0a\n    /* \"smart_contracts/contracts/Token.sol\":9081:9083  _i */\n  dup2\n    /* \"smart_contracts/contracts/Token.sol\":9081:9089  _i <= 10 */\n  gt\n    /* \"smart_contracts/contracts/Token.sol\":9060:9364  for (uint256 _i = 0; _i <= 10; _i++) {... */\n  tag_69\n  jumpi\n    /* \"smart_contracts/contracts/Token.sol\":9111:9124  uint256 _year */\n  0x00\n    /* \"smart_contracts/contracts/Token.sol\":9142:9144  _i */\n  dup2\n    /* \"smart_contracts/contracts/Token.sol\":9127:9139  _initialYear */\n  dup4\n    /* \"smart_contracts/contracts/Token.sol\":9127:9144  _initialYear + _i */\n  tag_71\n  swap2\n  swap1\n  tag_25\n  jump\t// in\ntag_71:\n    /* \"smart_contracts/contracts/Token.sol\":9111:9144  uint256 _year = _initialYear + _i */\n  swap1\n  pop\n    /* \"smart_contracts/contracts/Token.sol\":9158:9180  string memory _caption */\n  0x00\n    /* \"smart_contracts/contracts/Token.sol\":9247:9275  Utils.uint256ToString(_year) */\n  tag_72\n    /* \"smart_contracts/contracts/Token.sol\":9269:9274  _year */\n  dup3\n    /* \"smart_contracts/contracts/Token.sol\":9247:9268  Utils.uint256ToString */\n  or(tag_0_142, shl(0x20, tag_27))\n    /* \"smart_contracts/contracts/Token.sol\":9247:9275  Utils.uint256ToString(_year) */\n  0x20\n  shr\n  jump\t// in\ntag_72:\n    /* \"smart_contracts/contracts/Token.sol\":9207:9276  abi.encodePacked(\"VS\", ... */\n  add(0x20, mload(0x40))\n  tag_73\n  swap2\n  swap1\n  tag_29\n  jump\t// in\ntag_73:\n  mload(0x40)\n  0x20\n  dup2\n  dup4\n  sub\n  sub\n  dup2\n  mstore\n  swap1\n  0x40\n  mstore\n    /* \"smart_contracts/contracts/Token.sol\":9158:9277  string memory _caption = string(... */\n  swap1\n  pop\n    /* \"smart_contracts/contracts/Token.sol\":9291:9353  mintWithVesting_(_to, _value, _vestingDuration * _i, _caption) */\n  tag_74\n    /* \"smart_contracts/contracts/Token.sol\":9308:9311  _to */\n  dup9\n    /* \"smart_contracts/contracts/Token.sol\":9313:9319  _value */\n  dup9\n    /* \"smart_contracts/contracts/Token.sol\":9340:9342  _i */\n  dup6\n    /* \"smart_contracts/contracts/Token.sol\":9321:9337  _vestingDuration */\n  dup9\n    /* \"smart_contracts/contracts/Token.sol\":9321:9342  _vestingDuration * _i */\n  tag_75\n  swap2\n  swap1\n  tag_14\n  jump\t// in\ntag_75:\n    /* \"smart_contracts/contracts/Token.sol\":9344:9352  _caption */\n  dup5\n    /* \"smart_contracts/contracts/Token.sol\":9291:9307  mintWithVesting_ */\n  shl(0x20, tag_32)\n    /* \"smart_contracts/contracts/Token.sol\":9291:9353  mintWithVesting_(_to, _value, _vestingDuration * _i, _caption) */\n  0x20\n  shr\n  jump\t// in\ntag_74:\n  pop\n    /* \"smart_contracts/contracts/Token.sol\":9097:9364  {... */\n  pop\n  pop\n    /* \"smart_contracts/contracts/Token.sol\":9091:9095  _i++ */\n  dup1\n  dup1\n  tag_76\n  swap1\n  tag_34\n  jump\t// in\ntag_76:\n  swap2\n  pop\n  pop\n    /* \"smart_contracts/contracts/Token.sol\":9060:9364  for (uint256 _i = 0; _i <= 10; _i++) {... */\n  jump(tag_68)\ntag_69:\n  pop\n    /* \"smart_contracts/contracts/Token.sol\":9394:9442  mint_(meta.vault, 180000000 * 10**meta.decimals) */\n  tag_77\n    /* \"smart_contracts/contracts/Token.sol\":9400:9404  meta */\n  0x07\n    /* \"smart_contracts/contracts/Token.sol\":9400:9410  meta.vault */\n  0x09\n  add\n  0x00\n  swap1\n  sload\n  swap1\n  0x0100\n  exp\n  swap1\n  div\n  0xffffffffffffffffffffffffffffffffffffffff\n  and\n    /* \"smart_contracts/contracts/Token.sol\":9428:9432  meta */\n  0x07\n    /* \"smart_contracts/contracts/Token.sol\":9428:9441  meta.decimals */\n  0x02\n  add\n  0x00\n  swap1\n  sload\n  swap1\n  0x0100\n  exp\n  swap1\n  div\n  0xff\n  and\n    /* \"smart_contracts/contracts/Token.sol\":9424:9426  10 */\n  0x0a\n    /* \"smart_contracts/contracts/Token.sol\":9424:9441  10**meta.decimals */\n  tag_78\n  swap2\n  swap1\n  tag_12\n  jump\t// in\ntag_78:\n    /* \"smart_contracts/contracts/Token.sol\":9412:9421  180000000 */\n  0x0aba9500\n    /* \"smart_contracts/contracts/Token.sol\":9412:9441  180000000 * 10**meta.decimals */\n  tag_79\n  swap2\n  swap1\n  tag_14\n  jump\t// in\ntag_79:\n    /* \"smart_contracts/contracts/Token.sol\":9394:9399  mint_ */\n  shl(0x20, tag_20)\n    /* \"smart_contracts/contracts/Token.sol\":9394:9442  mint_(meta.vault, 180000000 * 10**meta.decimals) */\n  0x20\n  shr\n  jump\t// in\ntag_77:\n  pop\n    /* \"smart_contracts/contracts/Token.sol\":6197:9449  {... */\n  pop\n  pop\n  pop\n  pop\n  pop\n    /* \"smart_contracts/contracts/Token.sol\":6171:9449  constructor(address _dev) {... */\n  pop\n    /* \"smart_contracts/contracts/Token.sol\":6110:18360  contract Token is Authenticator, IERC20, ICustomToken {... */\n  jump(tag_80)\n    /* \"smart_contracts/contracts/Token.sol\":3370:3604  function grantPermissionAdmin(address _owner) public onlyAdmin returns (bool) {... */\ntag_7:\n    /* \"smart_contracts/contracts/Token.sol\":3442:3446  bool */\n  0x00\n    /* \"smart_contracts/contracts/Token.sol\":3229:3244  address _sender */\n  dup1\n    /* \"smart_contracts/contracts/Token.sol\":3247:3257  msg.sender */\n  caller\n    /* \"smart_contracts/contracts/Token.sol\":3229:3257  address _sender = msg.sender */\n  swap1\n  pop\n    /* \"smart_contracts/contracts/Token.sol\":3306:3311  false */\n  0x00\n    /* \"smart_contracts/contracts/Token.sol\":3288:3311  admin[_sender] != false */\n  iszero\n  iszero\n    /* \"smart_contracts/contracts/Token.sol\":3288:3293  admin */\n  0x00\n    /* \"smart_contracts/contracts/Token.sol\":3288:3302  admin[_sender] */\n  dup1\n    /* \"smart_contracts/contracts/Token.sol\":3294:3301  _sender */\n  dup4\n    /* \"smart_contracts/contracts/Token.sol\":3288:3302  admin[_sender] */\n  0xffffffffffffffffffffffffffffffffffffffff\n  and\n  0xffffffffffffffffffffffffffffffffffffffff\n  and\n  dup2\n  mstore\n  0x20\n  add\n  swap1\n  dup2\n  mstore\n  0x20\n  add\n  0x00\n  keccak256\n  0x00\n  swap1\n  sload\n  swap1\n  0x0100\n  exp\n  swap1\n  div\n  0xff\n  and\n    /* \"smart_contracts/contracts/Token.sol\":3288:3311  admin[_sender] != false */\n  iszero\n  iszero\n  sub\n    /* \"smart_contracts/contracts/Token.sol\":3267:3346  require(... */\n  tag_82\n  jumpi\n  mload(0x40)\n  0x08c379a000000000000000000000000000000000000000000000000000000000\n  dup2\n  mstore\n  0x04\n  add\n  tag_83\n  swap1\n  tag_84\n  jump\t// in\ntag_83:\n  mload(0x40)\n  dup1\n  swap2\n  sub\n  swap1\n  revert\ntag_82:\n    /* \"smart_contracts/contracts/Token.sol\":3497:3498  0 */\n  0x00\n    /* \"smart_contracts/contracts/Token.sol\":3479:3499  _owner != address(0) */\n  0xffffffffffffffffffffffffffffffffffffffff\n  and\n    /* \"smart_contracts/contracts/Token.sol\":3479:3485  _owner */\n  dup4\n    /* \"smart_contracts/contracts/Token.sol\":3479:3499  _owner != address(0) */\n  0xffffffffffffffffffffffffffffffffffffffff\n  and\n  eq\n  iszero\n    /* \"smart_contracts/contracts/Token.sol\":3479:3536  _owner != address(0) &&... */\n  dup1\n  iszero\n  tag_86\n  jumpi\n  pop\n    /* \"smart_contracts/contracts/Token.sol\":3532:3536  true */\n  0x01\n    /* \"smart_contracts/contracts/Token.sol\":3515:3536  admin[_owner] != true */\n  iszero\n  iszero\n    /* \"smart_contracts/contracts/Token.sol\":3515:3520  admin */\n  0x00\n    /* \"smart_contracts/contracts/Token.sol\":3515:3528  admin[_owner] */\n  dup1\n    /* \"smart_contracts/contracts/Token.sol\":3521:3527  _owner */\n  dup6\n    /* \"smart_contracts/contracts/Token.sol\":3515:3528  admin[_owner] */\n  0xffffffffffffffffffffffffffffffffffffffff\n  and\n  0xffffffffffffffffffffffffffffffffffffffff\n  and\n  dup2\n  mstore\n  0x20\n  add\n  swap1\n  dup2\n  mstore\n  0x20\n  add\n  0x00\n  keccak256\n  0x00\n  swap1\n  sload\n  swap1\n  0x0100\n  exp\n  swap1\n  div\n  0xff\n  and\n    /* \"smart_contracts/contracts/Token.sol\":3515:3536  admin[_owner] != true */\n  iszero\n  iszero\n  eq\n  iszero\n    /* \"smart_contracts/contracts/Token.sol\":3479:3536  _owner != address(0) &&... */\ntag_86:\n    /* \"smart_contracts/contracts/Token.sol\":3458:3546  require(... */\n  tag_87\n  jumpi\n  0x00\n  dup1\n  revert\ntag_87:\n    /* \"smart_contracts/contracts/Token.sol\":3572:3576  true */\n  0x01\n    /* \"smart_contracts/contracts/Token.sol\":3556:3561  admin */\n  0x00\n    /* \"smart_contracts/contracts/Token.sol\":3556:3569  admin[_owner] */\n  dup1\n    /* \"smart_contracts/contracts/Token.sol\":3562:3568  _owner */\n  dup6\n    /* \"smart_contracts/contracts/Token.sol\":3556:3569  admin[_owner] */\n  0xffffffffffffffffffffffffffffffffffffffff\n  and\n  0xffffffffffffffffffffffffffffffffffffffff\n  and\n  dup2\n  mstore\n  0x20\n  add\n  swap1\n  dup2\n  mstore\n  0x20\n  add\n  0x00\n  keccak256\n  0x00\n    /* \"smart_contracts/contracts/Token.sol\":3556:3576  admin[_owner] = true */\n  0x0100\n  exp\n  dup2\n  sload\n  dup2\n  0xff\n  mul\n  not\n  and\n  swap1\n  dup4\n  iszero\n  iszero\n  mul\n  or\n  swap1\n  sstore\n  pop\n    /* \"smart_contracts/contracts/Token.sol\":3593:3597  true */\n  0x01\n    /* \"smart_contracts/contracts/Token.sol\":3586:3597  return true */\n  swap2\n  pop\n    /* \"smart_contracts/contracts/Token.sol\":3219:3364  {... */\n  pop\n    /* \"smart_contracts/contracts/Token.sol\":3370:3604  function grantPermissionAdmin(address _owner) public onlyAdmin returns (bool) {... */\n  swap2\n  swap1\n  pop\n  jump\t// out\n    /* \"smart_contracts/contracts/Token.sol\":10385:10779  function mint_(address _to, uint256 _value) internal returns (bool) {... */\ntag_20:\n    /* \"smart_contracts/contracts/Token.sol\":10447:10451  bool */\n  0x00\n    /* \"smart_contracts/contracts/Token.sol\":10463:10476  address _from */\n  dup1\n    /* \"smart_contracts/contracts/Token.sol\":10487:10488  0 */\n  0x00\n    /* \"smart_contracts/contracts/Token.sol\":10463:10489  address _from = address(0) */\n  swap1\n  pop\n    /* \"smart_contracts/contracts/Token.sol\":10530:10531  0 */\n  0x00\n    /* \"smart_contracts/contracts/Token.sol\":10520:10526  _value */\n  dup4\n    /* \"smart_contracts/contracts/Token.sol\":10520:10531  _value >= 0 */\n  lt\n  iszero\n    /* \"smart_contracts/contracts/Token.sol\":10520:10570  _value >= 0 &&... */\n  dup1\n  iszero\n  tag_89\n  jumpi\n  pop\n    /* \"smart_contracts/contracts/Token.sol\":10557:10561  meta */\n  0x07\n    /* \"smart_contracts/contracts/Token.sol\":10557:10570  meta.mintable */\n  0x03\n  add\n  sload\n    /* \"smart_contracts/contracts/Token.sol\":10547:10553  _value */\n  dup4\n    /* \"smart_contracts/contracts/Token.sol\":10547:10570  _value <= meta.mintable */\n  gt\n  iszero\n    /* \"smart_contracts/contracts/Token.sol\":10520:10570  _value >= 0 &&... */\ntag_89:\n    /* \"smart_contracts/contracts/Token.sol\":10520:10603  _value >= 0 &&... */\n  dup1\n  iszero\n  tag_90\n  jumpi\n  pop\n    /* \"smart_contracts/contracts/Token.sol\":10601:10602  0 */\n  0x00\n    /* \"smart_contracts/contracts/Token.sol\":10586:10603  _to != address(0) */\n  0xffffffffffffffffffffffffffffffffffffffff\n  and\n    /* \"smart_contracts/contracts/Token.sol\":10586:10589  _to */\n  dup5\n    /* \"smart_contracts/contracts/Token.sol\":10586:10603  _to != address(0) */\n  0xffffffffffffffffffffffffffffffffffffffff\n  and\n  eq\n  iszero\n    /* \"smart_contracts/contracts/Token.sol\":10520:10603  _value >= 0 &&... */\ntag_90:\n    /* \"smart_contracts/contracts/Token.sol\":10499:10613  require(... */\n  tag_91\n  jumpi\n  0x00\n  dup1\n  revert\ntag_91:\n    /* \"smart_contracts/contracts/Token.sol\":10640:10646  _value */\n  dup3\n    /* \"smart_contracts/contracts/Token.sol\":10623:10627  meta */\n  0x07\n    /* \"smart_contracts/contracts/Token.sol\":10623:10636  meta.mintable */\n  0x03\n  add\n  0x00\n    /* \"smart_contracts/contracts/Token.sol\":10623:10646  meta.mintable -= _value */\n  dup3\n  dup3\n  sload\n  tag_92\n  swap2\n  swap1\n  tag_93\n  jump\t// in\ntag_92:\n  swap3\n  pop\n  pop\n  dup2\n  swap1\n  sstore\n  pop\n    /* \"smart_contracts/contracts/Token.sol\":10673:10679  _value */\n  dup3\n    /* \"smart_contracts/contracts/Token.sol\":10657:10664  balance */\n  0x11\n    /* \"smart_contracts/contracts/Token.sol\":10657:10669  balance[_to] */\n  0x00\n    /* \"smart_contracts/contracts/Token.sol\":10665:10668  _to */\n  dup7\n    /* \"smart_contracts/contracts/Token.sol\":10657:10669  balance[_to] */\n  0xffffffffffffffffffffffffffffffffffffffff\n  and\n  0xffffffffffffffffffffffffffffffffffffffff\n  and\n  dup2\n  mstore\n  0x20\n  add\n  swap1\n  dup2\n  mstore\n  0x20\n  add\n  0x00\n  keccak256\n  0x00\n    /* \"smart_contracts/contracts/Token.sol\":10657:10679  balance[_to] += _value */\n  dup3\n  dup3\n  sload\n  tag_94\n  swap2\n  swap1\n  tag_25\n  jump\t// in\ntag_94:\n  swap3\n  pop\n  pop\n  dup2\n  swap1\n  sstore\n    /* \"smart_contracts/contracts/Token.sol\":10701:10707  _value */\n  dup4\n    /* \"smart_contracts/contracts/Token.sol\":10681:10685  meta */\n  0x07\n    /* \"smart_contracts/contracts/Token.sol\":10681:10697  meta.totalSupply */\n  0x04\n  add\n  0x00\n    /* \"smart_contracts/contracts/Token.sol\":10681:10707  meta.totalSupply += _value */\n  dup3\n  dup3\n  sload\n  tag_95\n  swap2\n  swap1\n  tag_25\n  jump\t// in\ntag_95:\n  swap3\n  pop\n  pop\n  dup2\n  swap1\n  sstore\n    /* \"smart_contracts/contracts/Token.sol\":10656:10708  (balance[_to] += _value, meta.totalSupply += _value) */\n  pop\n  pop\n    /* \"smart_contracts/contracts/Token.sol\":10739:10742  _to */\n  dup4\n    /* \"smart_contracts/contracts/Token.sol\":10723:10751  Transfer(_from, _to, _value) */\n  0xffffffffffffffffffffffffffffffffffffffff\n  and\n    /* \"smart_contracts/contracts/Token.sol\":10732:10737  _from */\n  dup2\n    /* \"smart_contracts/contracts/Token.sol\":10723:10751  Transfer(_from, _to, _value) */\n  0xffffffffffffffffffffffffffffffffffffffff\n  and\n  0xddf252ad1be2c89b69c2b068fc378daa952ba7f163c4a11628f55a4df523b3ef\n    /* \"smart_contracts/contracts/Token.sol\":10744:10750  _value */\n  dup6\n    /* \"smart_contracts/contracts/Token.sol\":10723:10751  Transfer(_from, _to, _value) */\n  mload(0x40)\n  tag_96\n  swap2\n  swap1\n  tag_97\n  jump\t// in\ntag_96:\n  mload(0x40)\n  dup1\n  swap2\n  sub\n  swap1\n  log3\n    /* \"smart_contracts/contracts/Token.sol\":10768:10772  true */\n  0x01\n    /* \"smart_contracts/contracts/Token.sol\":10761:10772  return true */\n  swap2\n  pop\n  pop\n    /* \"smart_contracts/contracts/Token.sol\":10385:10779  function mint_(address _to, uint256 _value) internal returns (bool) {... */\n  swap3\n  swap2\n  pop\n  pop\n  jump\t// out\n    /* \"smart_contracts/contracts/Token.sol\":918:1457  function uint256ToString(uint256 _value) internal pure returns (string memory) {... */\ntag_27:\n    /* \"smart_contracts/contracts/Token.sol\":982:995  string memory */\n  0x60\n    /* \"smart_contracts/contracts/Token.sol\":1021:1022  0 */\n  0x00\n    /* \"smart_contracts/contracts/Token.sol\":1011:1017  _value */\n  dup3\n    /* \"smart_contracts/contracts/Token.sol\":1011:1022  _value == 0 */\n  sub\n    /* \"smart_contracts/contracts/Token.sol\":1007:1059  if (_value == 0) {... */\n  tag_99\n  jumpi\n    /* \"smart_contracts/contracts/Token.sol\":1038:1048  return \"0\" */\n  mload(0x40)\n  dup1\n  0x40\n  add\n  0x40\n  mstore\n  dup1\n  0x01\n  dup2\n  mstore\n  0x20\n  add\n  0x3000000000000000000000000000000000000000000000000000000000000000\n  dup2\n  mstore\n  pop\n  swap1\n  pop\n  jump(tag_98)\n    /* \"smart_contracts/contracts/Token.sol\":1007:1059  if (_value == 0) {... */\ntag_99:\n    /* \"smart_contracts/contracts/Token.sol\":1068:1081  uint256 _temp */\n  0x00\n    /* \"smart_contracts/contracts/Token.sol\":1084:1090  _value */\n  dup3\n    /* \"smart_contracts/contracts/Token.sol\":1068:1090  uint256 _temp = _value */\n  swap1\n  pop\n    /* \"smart_contracts/contracts/Token.sol\":1100:1115  uint256 _digits */\n  0x00\n    /* \"smart_contracts/contracts/Token.sol\":1125:1203  while (_temp != 0) {... */\ntag_100:\n    /* \"smart_contracts/contracts/Token.sol\":1141:1142  0 */\n  0x00\n    /* \"smart_contracts/contracts/Token.sol\":1132:1137  _temp */\n  dup3\n    /* \"smart_contracts/contracts/Token.sol\":1132:1142  _temp != 0 */\n  eq\n    /* \"smart_contracts/contracts/Token.sol\":1125:1203  while (_temp != 0) {... */\n  tag_101\n  jumpi\n    /* \"smart_contracts/contracts/Token.sol\":1158:1167  _digits++ */\n  dup1\n  dup1\n  tag_102\n  swap1\n  tag_34\n  jump\t// in\ntag_102:\n  swap2\n  pop\n  pop\n    /* \"smart_contracts/contracts/Token.sol\":1190:1192  10 */\n  0x0a\n    /* \"smart_contracts/contracts/Token.sol\":1181:1192  _temp /= 10 */\n  dup3\n  tag_103\n  swap2\n  swap1\n  tag_104\n  jump\t// in\ntag_103:\n  swap2\n  pop\n    /* \"smart_contracts/contracts/Token.sol\":1125:1203  while (_temp != 0) {... */\n  jump(tag_100)\ntag_101:\n    /* \"smart_contracts/contracts/Token.sol\":1212:1232  bytes memory _buffer */\n  0x00\n    /* \"smart_contracts/contracts/Token.sol\":1245:1252  _digits */\n  dup2\n    /* \"smart_contracts/contracts/Token.sol\":1235:1253  new bytes(_digits) */\n  0xffffffffffffffff\n  dup2\n  gt\n  iszero\n  tag_105\n  jumpi\n  tag_106\n  tag_107\n  jump\t// in\ntag_106:\ntag_105:\n  mload(0x40)\n  swap1\n  dup1\n  dup3\n  mstore\n  dup1\n  0x1f\n  add\n  not(0x1f)\n  and\n  0x20\n  add\n  dup3\n  add\n  0x40\n  mstore\n  dup1\n  iszero\n  tag_108\n  jumpi\n  dup2\n  0x20\n  add\n  0x01\n  dup3\n  mul\n  dup1\n  calldatasize\n  dup4\n  calldatacopy\n  dup1\n  dup3\n  add\n  swap2\n  pop\n  pop\n  swap1\n  pop\ntag_108:\n  pop\n    /* \"smart_contracts/contracts/Token.sol\":1212:1253  bytes memory _buffer = new bytes(_digits) */\n  swap1\n  pop\n    /* \"smart_contracts/contracts/Token.sol\":1263:1419  while (_value != 0) {... */\ntag_109:\n    /* \"smart_contracts/contracts/Token.sol\":1280:1281  0 */\n  0x00\n    /* \"smart_contracts/contracts/Token.sol\":1270:1276  _value */\n  dup6\n    /* \"smart_contracts/contracts/Token.sol\":1270:1281  _value != 0 */\n  eq\n    /* \"smart_contracts/contracts/Token.sol\":1263:1419  while (_value != 0) {... */\n  tag_110\n  jumpi\n    /* \"smart_contracts/contracts/Token.sol\":1308:1309  1 */\n  0x01\n    /* \"smart_contracts/contracts/Token.sol\":1297:1309  _digits -= 1 */\n  dup3\n  tag_111\n  swap2\n  swap1\n  tag_93\n  jump\t// in\ntag_111:\n  swap2\n  pop\n    /* \"smart_contracts/contracts/Token.sol\":1377:1379  19 */\n  0x13\n    /* \"smart_contracts/contracts/Token.sol\":1368:1374  _value */\n  dup6\n    /* \"smart_contracts/contracts/Token.sol\":1368:1379  _value % 19 */\n  tag_112\n  swap2\n  swap1\n  tag_113\n  jump\t// in\ntag_112:\n    /* \"smart_contracts/contracts/Token.sol\":1355:1357  48 */\n  0x30\n    /* \"smart_contracts/contracts/Token.sol\":1355:1380  48 + uint256(_value % 19) */\n  tag_114\n  swap2\n  swap1\n  tag_25\n  jump\t// in\ntag_114:\n    /* \"smart_contracts/contracts/Token.sol\":1342:1382  bytes1(uint8(48 + uint256(_value % 19))) */\n  0xf8\n  shl\n    /* \"smart_contracts/contracts/Token.sol\":1323:1330  _buffer */\n  dup2\n    /* \"smart_contracts/contracts/Token.sol\":1331:1338  _digits */\n  dup4\n    /* \"smart_contracts/contracts/Token.sol\":1323:1339  _buffer[_digits] */\n  dup2\n  mload\n  dup2\n  lt\n  tag_115\n  jumpi\n  tag_116\n  tag_117\n  jump\t// in\ntag_116:\ntag_115:\n  0x20\n  add\n  add\n    /* \"smart_contracts/contracts/Token.sol\":1323:1382  _buffer[_digits] = bytes1(uint8(48 + uint256(_value % 19))) */\n  swap1\n  not(0xffffffffffffffffffffffffffffffffffffffffffffffffffffffffffffff)\n  and\n  swap1\n  dup2\n  0x00\n  byte\n  swap1\n  mstore8\n  pop\n    /* \"smart_contracts/contracts/Token.sol\":1406:1408  10 */\n  0x0a\n    /* \"smart_contracts/contracts/Token.sol\":1396:1408  _value /= 10 */\n  dup6\n  tag_118\n  swap2\n  swap1\n  tag_104\n  jump\t// in\ntag_118:\n  swap5\n  pop\n    /* \"smart_contracts/contracts/Token.sol\":1263:1419  while (_value != 0) {... */\n  jump(tag_109)\ntag_110:\n    /* \"smart_contracts/contracts/Token.sol\":1442:1449  _buffer */\n  dup1\n    /* \"smart_contracts/contracts/Token.sol\":1428:1450  return string(_buffer) */\n  swap4\n  pop\n  pop\n  pop\n  pop\n    /* \"smart_contracts/contracts/Token.sol\":918:1457  function uint256ToString(uint256 _value) internal pure returns (string memory) {... */\ntag_98:\n  swap2\n  swap1\n  pop\n  jump\t// out\n    /* \"smart_contracts/contracts/Token.sol\":10785:11602  function mintWithVesting_(address _to, uint256 _value, uint256 _duration, string memory _caption) internal returns (bool) {... */\ntag_32:\n    /* \"smart_contracts/contracts/Token.sol\":10901:10905  bool */\n  0x00\n    /* \"smart_contracts/contracts/Token.sol\":10917:10930  address _from */\n  dup1\n    /* \"smart_contracts/contracts/Token.sol\":10941:10942  0 */\n  0x00\n    /* \"smart_contracts/contracts/Token.sol\":10917:10943  address _from = address(0) */\n  swap1\n  pop\n    /* \"smart_contracts/contracts/Token.sol\":10953:10966  address _safe */\n  0x00\n    /* \"smart_contracts/contracts/Token.sol\":10969:10973  meta */\n  0x07\n    /* \"smart_contracts/contracts/Token.sol\":10969:10979  meta.vault */\n  0x09\n  add\n  0x00\n  swap1\n  sload\n  swap1\n  0x0100\n  exp\n  swap1\n  div\n  0xffffffffffffffffffffffffffffffffffffffff\n  and\n    /* \"smart_contracts/contracts/Token.sol\":10953:10979  address _safe = meta.vault */\n  swap1\n  pop\n    /* \"smart_contracts/contracts/Token.sol\":11043:11047  true */\n  0x01\n    /* \"smart_contracts/contracts/Token.sol\":11010:11047  schedules[_to][_caption].used != true */\n  iszero\n  iszero\n    /* \"smart_contracts/contracts/Token.sol\":11010:11019  schedules */\n  0x15\n    /* \"smart_contracts/contracts/Token.sol\":11010:11024  schedules[_to] */\n  0x00\n    /* \"smart_contracts/contracts/Token.sol\":11020:11023  _to */\n  dup10\n    /* \"smart_contracts/contracts/Token.sol\":11010:11024  schedules[_to] */\n  0xffffffffffffffffffffffffffffffffffffffff\n  and\n  0xffffffffffffffffffffffffffffffffffffffff\n  and\n  dup2\n  mstore\n  0x20\n  add\n  swap1\n  dup2\n  mstore\n  0x20\n  add\n  0x00\n  keccak256\n    /* \"smart_contracts/contracts/Token.sol\":11025:11033  _caption */\n  dup6\n    /* \"smart_contracts/contracts/Token.sol\":11010:11034  schedules[_to][_caption] */\n  mload(0x40)\n  tag_120\n  swap2\n  swap1\n  tag_121\n  jump\t// in\ntag_120:\n  swap1\n  dup2\n  mstore\n  0x20\n  add\n  mload(0x40)\n  dup1\n  swap2\n  sub\n  swap1\n  keccak256\n    /* \"smart_contracts/contracts/Token.sol\":11010:11039  schedules[_to][_caption].used */\n  0x05\n  add\n  0x00\n  swap1\n  sload\n  swap1\n  0x0100\n  exp\n  swap1\n  div\n  0xff\n  and\n    /* \"smart_contracts/contracts/Token.sol\":11010:11047  schedules[_to][_caption].used != true */\n  iszero\n  iszero\n  eq\n  iszero\n    /* \"smart_contracts/contracts/Token.sol\":11010:11086  schedules[_to][_caption].used != true &&... */\n  dup1\n  iszero\n  tag_122\n  jumpi\n  pop\n    /* \"smart_contracts/contracts/Token.sol\":11073:11077  meta */\n  0x07\n    /* \"smart_contracts/contracts/Token.sol\":11073:11086  meta.mintable */\n  0x03\n  add\n  sload\n    /* \"smart_contracts/contracts/Token.sol\":11063:11069  _value */\n  dup7\n    /* \"smart_contracts/contracts/Token.sol\":11063:11086  _value <= meta.mintable */\n  gt\n  iszero\n    /* \"smart_contracts/contracts/Token.sol\":11010:11086  schedules[_to][_caption].used != true &&... */\ntag_122:\n    /* \"smart_contracts/contracts/Token.sol\":11010:11119  schedules[_to][_caption].used != true &&... */\n  dup1\n  iszero\n  tag_123\n  jumpi\n  pop\n    /* \"smart_contracts/contracts/Token.sol\":11117:11118  0 */\n  0x00\n    /* \"smart_contracts/contracts/Token.sol\":11102:11119  _to != address(0) */\n  0xffffffffffffffffffffffffffffffffffffffff\n  and\n    /* \"smart_contracts/contracts/Token.sol\":11102:11105  _to */\n  dup8\n    /* \"smart_contracts/contracts/Token.sol\":11102:11119  _to != address(0) */\n  0xffffffffffffffffffffffffffffffffffffffff\n  and\n  eq\n  iszero\n    /* \"smart_contracts/contracts/Token.sol\":11010:11119  schedules[_to][_caption].used != true &&... */\ntag_123:\n    /* \"smart_contracts/contracts/Token.sol\":11010:11146  schedules[_to][_caption].used != true &&... */\n  dup1\n  iszero\n  tag_124\n  jumpi\n  pop\n    /* \"smart_contracts/contracts/Token.sol\":11145:11146  0 */\n  0x00\n    /* \"smart_contracts/contracts/Token.sol\":11135:11141  _value */\n  dup7\n    /* \"smart_contracts/contracts/Token.sol\":11135:11146  _value >= 0 */\n  lt\n  iszero\n    /* \"smart_contracts/contracts/Token.sol\":11010:11146  schedules[_to][_caption].used != true &&... */\ntag_124:\n    /* \"smart_contracts/contracts/Token.sol\":10989:11156  require(... */\n  tag_125\n  jumpi\n  0x00\n  dup1\n  revert\ntag_125:\n    /* \"smart_contracts/contracts/Token.sol\":11185:11191  _value */\n  dup6\n    /* \"smart_contracts/contracts/Token.sol\":11167:11171  meta */\n  0x07\n    /* \"smart_contracts/contracts/Token.sol\":11167:11180  meta.mintable */\n  0x03\n  add\n  0x00\n    /* \"smart_contracts/contracts/Token.sol\":11167:11191  meta.mintable -=  _value */\n  dup3\n  dup3\n  sload\n  tag_126\n  swap2\n  swap1\n  tag_93\n  jump\t// in\ntag_126:\n  swap3\n  pop\n  pop\n  dup2\n  swap1\n  sstore\n    /* \"smart_contracts/contracts/Token.sol\":11213:11219  _value */\n  dup7\n    /* \"smart_contracts/contracts/Token.sol\":11193:11197  meta */\n  0x07\n    /* \"smart_contracts/contracts/Token.sol\":11193:11209  meta.totalSupply */\n  0x04\n  add\n  0x00\n    /* \"smart_contracts/contracts/Token.sol\":11193:11219  meta.totalSupply += _value */\n  dup3\n  dup3\n  sload\n  tag_127\n  swap2\n  swap1\n  tag_25\n  jump\t// in\ntag_127:\n  swap3\n  pop\n  pop\n  dup2\n  swap1\n  sstore\n    /* \"smart_contracts/contracts/Token.sol\":11239:11245  _value */\n  dup8\n    /* \"smart_contracts/contracts/Token.sol\":11221:11228  balance */\n  0x11\n    /* \"smart_contracts/contracts/Token.sol\":11221:11235  balance[_safe] */\n  0x00\n    /* \"smart_contracts/contracts/Token.sol\":11229:11234  _safe */\n  dup6\n    /* \"smart_contracts/contracts/Token.sol\":11221:11235  balance[_safe] */\n  0xffffffffffffffffffffffffffffffffffffffff\n  and\n  0xffffffffffffffffffffffffffffffffffffffff\n  and\n  dup2\n  mstore\n  0x20\n  add\n  swap1\n  dup2\n  mstore\n  0x20\n  add\n  0x00\n  keccak256\n  0x00\n    /* \"smart_contracts/contracts/Token.sol\":11221:11245  balance[_safe] += _value */\n  dup3\n  dup3\n  sload\n  tag_128\n  swap2\n  swap1\n  tag_25\n  jump\t// in\ntag_128:\n  swap3\n  pop\n  pop\n  dup2\n  swap1\n  sstore\n    /* \"smart_contracts/contracts/Token.sol\":11166:11246  (meta.mintable -=  _value, meta.totalSupply += _value, balance[_safe] += _value) */\n  pop\n  pop\n  pop\n    /* \"smart_contracts/contracts/Token.sol\":11256:11270  uint256 _start */\n  0x00\n    /* \"smart_contracts/contracts/Token.sol\":11273:11288  block.timestamp */\n  timestamp\n    /* \"smart_contracts/contracts/Token.sol\":11256:11288  uint256 _start = block.timestamp */\n  swap1\n  pop\n    /* \"smart_contracts/contracts/Token.sol\":11325:11531  VestingSchedule({... */\n  mload(0x40)\n  dup1\n  0xc0\n  add\n  0x40\n  mstore\n  dup1\n    /* \"smart_contracts/contracts/Token.sol\":11364:11372  _caption */\n  dup7\n    /* \"smart_contracts/contracts/Token.sol\":11325:11531  VestingSchedule({... */\n  dup2\n  mstore\n  0x20\n  add\n    /* \"smart_contracts/contracts/Token.sol\":11396:11405  _duration */\n  dup8\n    /* \"smart_contracts/contracts/Token.sol\":11325:11531  VestingSchedule({... */\n  dup2\n  mstore\n  0x20\n  add\n    /* \"smart_contracts/contracts/Token.sol\":11426:11432  _start */\n  dup3\n    /* \"smart_contracts/contracts/Token.sol\":11325:11531  VestingSchedule({... */\n  dup2\n  mstore\n  0x20\n  add\n    /* \"smart_contracts/contracts/Token.sol\":11460:11469  _duration */\n  dup8\n    /* \"smart_contracts/contracts/Token.sol\":11451:11457  _start */\n  dup4\n    /* \"smart_contracts/contracts/Token.sol\":11451:11469  _start + _duration */\n  tag_129\n  swap2\n  swap1\n  tag_25\n  jump\t// in\ntag_129:\n    /* \"smart_contracts/contracts/Token.sol\":11325:11531  VestingSchedule({... */\n  dup2\n  mstore\n  0x20\n  add\n    /* \"smart_contracts/contracts/Token.sol\":11490:11496  _value */\n  dup9\n    /* \"smart_contracts/contracts/Token.sol\":11325:11531  VestingSchedule({... */\n  dup2\n  mstore\n  0x20\n  add\n    /* \"smart_contracts/contracts/Token.sol\":11516:11520  true */\n  0x01\n    /* \"smart_contracts/contracts/Token.sol\":11325:11531  VestingSchedule({... */\n  iszero\n  iszero\n  dup2\n  mstore\n  pop\n    /* \"smart_contracts/contracts/Token.sol\":11298:11307  schedules */\n  0x15\n    /* \"smart_contracts/contracts/Token.sol\":11298:11312  schedules[_to] */\n  0x00\n    /* \"smart_contracts/contracts/Token.sol\":11308:11311  _to */\n  dup11\n    /* \"smart_contracts/contracts/Token.sol\":11298:11312  schedules[_to] */\n  0xffffffffffffffffffffffffffffffffffffffff\n  and\n  0xffffffffffffffffffffffffffffffffffffffff\n  and\n  dup2\n  mstore\n  0x20\n  add\n  swap1\n  dup2\n  mstore\n  0x20\n  add\n  0x00\n  keccak256\n    /* \"smart_contracts/contracts/Token.sol\":11313:11321  _caption */\n  dup7\n    /* \"smart_contracts/contracts/Token.sol\":11298:11322  schedules[_to][_caption] */\n  mload(0x40)\n  tag_130\n  swap2\n  swap1\n  tag_121\n  jump\t// in\ntag_130:\n  swap1\n  dup2\n  mstore\n  0x20\n  add\n  mload(0x40)\n  dup1\n  swap2\n  sub\n  swap1\n  keccak256\n    /* \"smart_contracts/contracts/Token.sol\":11298:11531  schedules[_to][_caption] = VestingSchedule({... */\n  0x00\n  dup3\n  add\n  mload\n  dup2\n  0x00\n  add\n  swap1\n  dup2\n  tag_131\n  swap2\n  swap1\n  tag_9\n  jump\t// in\ntag_131:\n  pop\n  0x20\n  dup3\n  add\n  mload\n  dup2\n  0x01\n  add\n  sstore\n  0x40\n  dup3\n  add\n  mload\n  dup2\n  0x02\n  add\n  sstore\n  0x60\n  dup3\n  add\n  mload\n  dup2\n  0x03\n  add\n  sstore\n  0x80\n  dup3\n  add\n  mload\n  dup2\n  0x04\n  add\n  sstore\n  0xa0\n  dup3\n  add\n  mload\n  dup2\n  0x05\n  add\n  exp(0x0100, 0x00)\n  dup2\n  sload\n  dup2\n  0xff\n  mul\n  not\n  and\n  swap1\n  dup4\n  iszero\n  iszero\n  mul\n  or\n  swap1\n  sstore\n  pop\n  swap1\n  pop\n  pop\n    /* \"smart_contracts/contracts/Token.sol\":11562:11565  _to */\n  dup8\n    /* \"smart_contracts/contracts/Token.sol\":11546:11574  Transfer(_from, _to, _value) */\n  0xffffffffffffffffffffffffffffffffffffffff\n  and\n    /* \"smart_contracts/contracts/Token.sol\":11555:11560  _from */\n  dup4\n    /* \"smart_contracts/contracts/Token.sol\":11546:11574  Transfer(_from, _to, _value) */\n  0xffffffffffffffffffffffffffffffffffffffff\n  and\n  0xddf252ad1be2c89b69c2b068fc378daa952ba7f163c4a11628f55a4df523b3ef\n    /* \"smart_contracts/contracts/Token.sol\":11567:11573  _value */\n  dup10\n    /* \"smart_contracts/contracts/Token.sol\":11546:11574  Transfer(_from, _to, _value) */\n  mload(0x40)\n  tag_132\n  swap2\n  swap1\n  tag_97\n  jump\t// in\ntag_132:\n  mload(0x40)\n  dup1\n  swap2\n  sub\n  swap1\n  log3\n    /* \"smart_contracts/contracts/Token.sol\":11591:11595  true */\n  0x01\n    /* \"smart_contracts/contracts/Token.sol\":11584:11595  return true */\n  swap4\n  pop\n  pop\n  pop\n  pop\n    /* \"smart_contracts/contracts/Token.sol\":10785:11602  function mintWithVesting_(address _to, uint256 _value, uint256 _duration, string memory _caption) internal returns (bool) {... */\n  swap5\n  swap4\n  pop\n  pop\n  pop\n  pop\n  jump\t// out\n    /* \"#utility.yul\":88:205   */\ntag_134:\n    /* \"#utility.yul\":197:198   */\n  0x00\n    /* \"#utility.yul\":194:195   */\n  dup1\n    /* \"#utility.yul\":187:199   */\n  revert\n    /* \"#utility.yul\":334:460   */\ntag_136:\n    /* \"#utility.yul\":371:378   */\n  0x00\n    /* \"#utility.yul\":411:453   */\n  0xffffffffffffffffffffffffffffffffffffffff\n    /* \"#utility.yul\":404:409   */\n  dup3\n    /* \"#utility.yul\":400:454   */\n  and\n    /* \"#utility.yul\":389:454   */\n  swap1\n  pop\n    /* \"#utility.yul\":334:460   */\n  swap2\n  swap1\n  pop\n  jump\t// out\n    /* \"#utility.yul\":466:562   */\ntag_137:\n    /* \"#utility.yul\":503:510   */\n  0x00\n    /* \"#utility.yul\":532:556   */\n  tag_180\n    /* \"#utility.yul\":550:555   */\n  dup3\n    /* \"#utility.yul\":532:556   */\n  tag_136\n  jump\t// in\ntag_180:\n    /* \"#utility.yul\":521:556   */\n  swap1\n  pop\n    /* \"#utility.yul\":466:562   */\n  swap2\n  swap1\n  pop\n  jump\t// out\n    /* \"#utility.yul\":568:690   */\ntag_138:\n    /* \"#utility.yul\":641:665   */\n  tag_182\n    /* \"#utility.yul\":659:664   */\n  dup2\n    /* \"#utility.yul\":641:665   */\n  tag_137\n  jump\t// in\ntag_182:\n    /* \"#utility.yul\":634:639   */\n  dup2\n    /* \"#utility.yul\":631:666   */\n  eq\n    /* \"#utility.yul\":621:684   */\n  tag_183\n  jumpi\n    /* \"#utility.yul\":680:681   */\n  0x00\n    /* \"#utility.yul\":677:678   */\n  dup1\n    /* \"#utility.yul\":670:682   */\n  revert\n    /* \"#utility.yul\":621:684   */\ntag_183:\n    /* \"#utility.yul\":568:690   */\n  pop\n  jump\t// out\n    /* \"#utility.yul\":696:839   */\ntag_139:\n    /* \"#utility.yul\":753:758   */\n  0x00\n    /* \"#utility.yul\":784:790   */\n  dup2\n    /* \"#utility.yul\":778:791   */\n  mload\n    /* \"#utility.yul\":769:791   */\n  swap1\n  pop\n    /* \"#utility.yul\":800:833   */\n  tag_185\n    /* \"#utility.yul\":827:832   */\n  dup2\n    /* \"#utility.yul\":800:833   */\n  tag_138\n  jump\t// in\ntag_185:\n    /* \"#utility.yul\":696:839   */\n  swap3\n  swap2\n  pop\n  pop\n  jump\t// out\n    /* \"#utility.yul\":845:1196   */\ntag_3:\n    /* \"#utility.yul\":915:921   */\n  0x00\n    /* \"#utility.yul\":964:966   */\n  0x20\n    /* \"#utility.yul\":952:961   */\n  dup3\n    /* \"#utility.yul\":943:950   */\n  dup5\n    /* \"#utility.yul\":939:962   */\n  sub\n    /* \"#utility.yul\":935:967   */\n  slt\n    /* \"#utility.yul\":932:1051   */\n  iszero\n  tag_187\n  jumpi\n    /* \"#utility.yul\":970:1049   */\n  tag_188\n  tag_134\n  jump\t// in\ntag_188:\n    /* \"#utility.yul\":932:1051   */\ntag_187:\n    /* \"#utility.yul\":1090:1091   */\n  0x00\n    /* \"#utility.yul\":1115:1179   */\n  tag_189\n    /* \"#utility.yul\":1171:1178   */\n  dup5\n    /* \"#utility.yul\":1162:1168   */\n  dup3\n    /* \"#utility.yul\":1151:1160   */\n  dup6\n    /* \"#utility.yul\":1147:1169   */\n  add\n    /* \"#utility.yul\":1115:1179   */\n  tag_139\n  jump\t// in\ntag_189:\n    /* \"#utility.yul\":1105:1179   */\n  swap2\n  pop\n    /* \"#utility.yul\":1061:1189   */\n  pop\n    /* \"#utility.yul\":845:1196   */\n  swap3\n  swap2\n  pop\n  pop\n  jump\t// out\n    /* \"#utility.yul\":1202:1301   */\ntag_140:\n    /* \"#utility.yul\":1254:1260   */\n  0x00\n    /* \"#utility.yul\":1288:1293   */\n  dup2\n    /* \"#utility.yul\":1282:1294   */\n  mload\n    /* \"#utility.yul\":1272:1294   */\n  swap1\n  pop\n    /* \"#utility.yul\":1202:1301   */\n  swap2\n  swap1\n  pop\n  jump\t// out\n    /* \"#utility.yul\":1307:1487   */\ntag_107:\n    /* \"#utility.yul\":1355:1432   */\n  0x4e487b7100000000000000000000000000000000000000000000000000000000\n    /* \"#utility.yul\":1352:1353   */\n  0x00\n    /* \"#utility.yul\":1345:1433   */\n  mstore\n    /* \"#utility.yul\":1452:1456   */\n  0x41\n    /* \"#utility.yul\":1449:1450   */\n  0x04\n    /* \"#utility.yul\":1442:1457   */\n  mstore\n    /* \"#utility.yul\":1476:1480   */\n  0x24\n    /* \"#utility.yul\":1473:1474   */\n  0x00\n    /* \"#utility.yul\":1466:1481   */\n  revert\n    /* \"#utility.yul\":1493:1673   */\ntag_141:\n    /* \"#utility.yul\":1541:1618   */\n  0x4e487b7100000000000000000000000000000000000000000000000000000000\n    /* \"#utility.yul\":1538:1539   */\n  0x00\n    /* \"#utility.yul\":1531:1619   */\n  mstore\n    /* \"#utility.yul\":1638:1642   */\n  0x22\n    /* \"#utility.yul\":1635:1636   */\n  0x04\n    /* \"#utility.yul\":1628:1643   */\n  mstore\n    /* \"#utility.yul\":1662:1666   */\n  0x24\n    /* \"#utility.yul\":1659:1660   */\n  0x00\n    /* \"#utility.yul\":1652:1667   */\n  revert\n    /* \"#utility.yul\":1679:1999   */\ntag_142:\n    /* \"#utility.yul\":1723:1729   */\n  0x00\n    /* \"#utility.yul\":1760:1761   */\n  0x02\n    /* \"#utility.yul\":1754:1758   */\n  dup3\n    /* \"#utility.yul\":1750:1762   */\n  div\n    /* \"#utility.yul\":1740:1762   */\n  swap1\n  pop\n    /* \"#utility.yul\":1807:1808   */\n  0x01\n    /* \"#utility.yul\":1801:1805   */\n  dup3\n    /* \"#utility.yul\":1797:1809   */\n  and\n    /* \"#utility.yul\":1828:1846   */\n  dup1\n    /* \"#utility.yul\":1818:1899   */\n  tag_194\n  jumpi\n    /* \"#utility.yul\":1884:1888   */\n  0x7f\n    /* \"#utility.yul\":1876:1882   */\n  dup3\n    /* \"#utility.yul\":1872:1889   */\n  and\n    /* \"#utility.yul\":1862:1889   */\n  swap2\n  pop\n    /* \"#utility.yul\":1818:1899   */\ntag_194:\n    /* \"#utility.yul\":1946:1948   */\n  0x20\n    /* \"#utility.yul\":1938:1944   */\n  dup3\n    /* \"#utility.yul\":1935:1949   */\n  lt\n    /* \"#utility.yul\":1915:1933   */\n  dup2\n    /* \"#utility.yul\":1912:1950   */\n  sub\n    /* \"#utility.yul\":1909:1993   */\n  tag_195\n  jumpi\n    /* \"#utility.yul\":1965:1983   */\n  tag_196\n  tag_141\n  jump\t// in\ntag_196:\n    /* \"#utility.yul\":1909:1993   */\ntag_195:\n    /* \"#utility.yul\":1730:1999   */\n  pop\n    /* \"#utility.yul\":1679:1999   */\n  swap2\n  swap1\n  pop\n  jump\t// out\n    /* \"#utility.yul\":2005:2146   */\ntag_143:\n    /* \"#utility.yul\":2054:2058   */\n  0x00\n    /* \"#utility.yul\":2077:2080   */\n  dup2\n    /* \"#utility.yul\":2069:2080   */\n  swap1\n  pop\n    /* \"#utility.yul\":2100:2103   */\n  dup2\n    /* \"#utility.yul\":2097:2098   */\n  0x00\n    /* \"#utility.yul\":2090:2104   */\n  mstore\n    /* \"#utility.yul\":2134:2138   */\n  0x20\n    /* \"#utility.yul\":2131:2132   */\n  0x00\n    /* \"#utility.yul\":2121:2139   */\n  keccak256\n    /* \"#utility.yul\":2113:2139   */\n  swap1\n  pop\n    /* \"#utility.yul\":2005:2146   */\n  swap2\n  swap1\n  pop\n  jump\t// out\n    /* \"#utility.yul\":2152:2245   */\ntag_144:\n    /* \"#utility.yul\":2189:2195   */\n  0x00\n    /* \"#utility.yul\":2236:2238   */\n  0x20\n    /* \"#utility.yul\":2231:2233   */\n  0x1f\n    /* \"#utility.yul\":2224:2229   */\n  dup4\n    /* \"#utility.yul\":2220:2234   */\n  add\n    /* \"#utility.yul\":2216:2239   */\n  div\n    /* \"#utility.yul\":2206:2239   */\n  swap1\n  pop\n    /* \"#utility.yul\":2152:2245   */\n  swap2\n  swap1\n  pop\n  jump\t// out\n    /* \"#utility.yul\":2251:2358   */\ntag_145:\n    /* \"#utility.yul\":2295:2303   */\n  0x00\n    /* \"#utility.yul\":2345:2350   */\n  dup3\n    /* \"#utility.yul\":2339:2343   */\n  dup3\n    /* \"#utility.yul\":2335:2351   */\n  shl\n    /* \"#utility.yul\":2314:2351   */\n  swap1\n  pop\n    /* \"#utility.yul\":2251:2358   */\n  swap3\n  swap2\n  pop\n  pop\n  jump\t// out\n    /* \"#utility.yul\":2364:2757   */\ntag_146:\n    /* \"#utility.yul\":2433:2439   */\n  0x00\n    /* \"#utility.yul\":2483:2484   */\n  0x08\n    /* \"#utility.yul\":2471:2481   */\n  dup4\n    /* \"#utility.yul\":2467:2485   */\n  mul\n    /* \"#utility.yul\":2506:2603   */\n  tag_201\n    /* \"#utility.yul\":2536:2602   */\n  0xffffffffffffffffffffffffffffffffffffffffffffffffffffffffffffffff\n    /* \"#utility.yul\":2525:2534   */\n  dup3\n    /* \"#utility.yul\":2506:2603   */\n  tag_145\n  jump\t// in\ntag_201:\n    /* \"#utility.yul\":2624:2663   */\n  tag_202\n    /* \"#utility.yul\":2654:2662   */\n  dup7\n    /* \"#utility.yul\":2643:2652   */\n  dup4\n    /* \"#utility.yul\":2624:2663   */\n  tag_145\n  jump\t// in\ntag_202:\n    /* \"#utility.yul\":2612:2663   */\n  swap6\n  pop\n    /* \"#utility.yul\":2696:2700   */\n  dup1\n    /* \"#utility.yul\":2692:2701   */\n  not\n    /* \"#utility.yul\":2685:2690   */\n  dup5\n    /* \"#utility.yul\":2681:2702   */\n  and\n    /* \"#utility.yul\":2672:2702   */\n  swap4\n  pop\n    /* \"#utility.yul\":2745:2749   */\n  dup1\n    /* \"#utility.yul\":2735:2743   */\n  dup7\n    /* \"#utility.yul\":2731:2750   */\n  and\n    /* \"#utility.yul\":2724:2729   */\n  dup5\n    /* \"#utility.yul\":2721:2751   */\n  or\n    /* \"#utility.yul\":2711:2751   */\n  swap3\n  pop\n    /* \"#utility.yul\":2440:2757   */\n  pop\n  pop\n    /* \"#utility.yul\":2364:2757   */\n  swap4\n  swap3\n  pop\n  pop\n  pop\n  jump\t// out\n    /* \"#utility.yul\":2763:2840   */\ntag_147:\n    /* \"#utility.yul\":2800:2807   */\n  0x00\n    /* \"#utility.yul\":2829:2834   */\n  dup2\n    /* \"#utility.yul\":2818:2834   */\n  swap1\n  pop\n    /* \"#utility.yul\":2763:2840   */\n  swap2\n  swap1\n  pop\n  jump\t// out\n    /* \"#utility.yul\":2846:2906   */\ntag_148:\n    /* \"#utility.yul\":2874:2877   */\n  0x00\n    /* \"#utility.yul\":2895:2900   */\n  dup2\n    /* \"#utility.yul\":2888:2900   */\n  swap1\n  pop\n    /* \"#utility.yul\":2846:2906   */\n  swap2\n  swap1\n  pop\n  jump\t// out\n    /* \"#utility.yul\":2912:3054   */\ntag_149:\n    /* \"#utility.yul\":2962:2971   */\n  0x00\n    /* \"#utility.yul\":2995:3048   */\n  tag_206\n    /* \"#utility.yul\":3013:3047   */\n  tag_207\n    /* \"#utility.yul\":3022:3046   */\n  tag_208\n    /* \"#utility.yul\":3040:3045   */\n  dup5\n    /* \"#utility.yul\":3022:3046   */\n  tag_147\n  jump\t// in\ntag_208:\n    /* \"#utility.yul\":3013:3047   */\n  tag_148\n  jump\t// in\ntag_207:\n    /* \"#utility.yul\":2995:3048   */\n  tag_147\n  jump\t// in\ntag_206:\n    /* \"#utility.yul\":2982:3048   */\n  swap1\n  pop\n    /* \"#utility.yul\":2912:3054   */\n  swap2\n  swap1\n  pop\n  jump\t// out\n    /* \"#utility.yul\":3060:3135   */\ntag_150:\n    /* \"#utility.yul\":3103:3106   */\n  0x00\n    /* \"#utility.yul\":3124:3129   */\n  dup2\n    /* \"#utility.yul\":3117:3129   */\n  swap1\n  pop\n    /* \"#utility.yul\":3060:3135   */\n  swap2\n  swap1\n  pop\n  jump\t// out\n    /* \"#utility.yul\":3141:3410   */\ntag_151:\n    /* \"#utility.yul\":3251:3290   */\n  tag_211\n    /* \"#utility.yul\":3282:3289   */\n  dup4\n    /* \"#utility.yul\":3251:3290   */\n  tag_149\n  jump\t// in\ntag_211:\n    /* \"#utility.yul\":3312:3403   */\n  tag_212\n    /* \"#utility.yul\":3361:3402   */\n  tag_213\n    /* \"#utility.yul\":3385:3401   */\n  dup3\n    /* \"#utility.yul\":3361:3402   */\n  tag_150\n  jump\t// in\ntag_213:\n    /* \"#utility.yul\":3353:3359   */\n  dup5\n    /* \"#utility.yul\":3346:3350   */\n  dup5\n    /* \"#utility.yul\":3340:3351   */\n  sload\n    /* \"#utility.yul\":3312:3403   */\n  tag_146\n  jump\t// in\ntag_212:\n    /* \"#utility.yul\":3306:3310   */\n  dup3\n    /* \"#utility.yul\":3299:3404   */\n  sstore\n    /* \"#utility.yul\":3217:3410   */\n  pop\n    /* \"#utility.yul\":3141:3410   */\n  pop\n  pop\n  pop\n  jump\t// out\n    /* \"#utility.yul\":3416:3489   */\ntag_152:\n    /* \"#utility.yul\":3461:3464   */\n  0x00\n    /* \"#utility.yul\":3416:3489   */\n  swap1\n  jump\t// out\n    /* \"#utility.yul\":3495:3684   */\ntag_153:\n    /* \"#utility.yul\":3572:3604   */\n  tag_216\n  tag_152\n  jump\t// in\ntag_216:\n    /* \"#utility.yul\":3613:3678   */\n  tag_217\n    /* \"#utility.yul\":3671:3677   */\n  dup2\n    /* \"#utility.yul\":3663:3669   */\n  dup5\n    /* \"#utility.yul\":3657:3661   */\n  dup5\n    /* \"#utility.yul\":3613:3678   */\n  tag_151\n  jump\t// in\ntag_217:\n    /* \"#utility.yul\":3548:3684   */\n  pop\n    /* \"#utility.yul\":3495:3684   */\n  pop\n  pop\n  jump\t// out\n    /* \"#utility.yul\":3690:3876   */\ntag_154:\n    /* \"#utility.yul\":3750:3870   */\ntag_219:\n    /* \"#utility.yul\":3767:3770   */\n  dup2\n    /* \"#utility.yul\":3760:3765   */\n  dup2\n    /* \"#utility.yul\":3757:3771   */\n  lt\n    /* \"#utility.yul\":3750:3870   */\n  iszero\n  tag_221\n  jumpi\n    /* \"#utility.yul\":3821:3860   */\n  tag_222\n    /* \"#utility.yul\":3858:3859   */\n  0x00\n    /* \"#utility.yul\":3851:3856   */\n  dup3\n    /* \"#utility.yul\":3821:3860   */\n  tag_153\n  jump\t// in\ntag_222:\n    /* \"#utility.yul\":3794:3795   */\n  0x01\n    /* \"#utility.yul\":3787:3792   */\n  dup2\n    /* \"#utility.yul\":3783:3796   */\n  add\n    /* \"#utility.yul\":3774:3796   */\n  swap1\n  pop\n    /* \"#utility.yul\":3750:3870   */\n  jump(tag_219)\ntag_221:\n    /* \"#utility.yul\":3690:3876   */\n  pop\n  pop\n  jump\t// out\n    /* \"#utility.yul\":3882:4425   */\ntag_155:\n    /* \"#utility.yul\":3983:3985   */\n  0x1f\n    /* \"#utility.yul\":3978:3981   */\n  dup3\n    /* \"#utility.yul\":3975:3986   */\n  gt\n    /* \"#utility.yul\":3972:4418   */\n  iszero\n  tag_224\n  jumpi\n    /* \"#utility.yul\":4017:4055   */\n  tag_225\n    /* \"#utility.yul\":4049:4054   */\n  dup2\n    /* \"#utility.yul\":4017:4055   */\n  tag_143\n  jump\t// in\ntag_225:\n    /* \"#utility.yul\":4101:4130   */\n  tag_226\n    /* \"#utility.yul\":4119:4129   */\n  dup5\n    /* \"#utility.yul\":4101:4130   */\n  tag_144\n  jump\t// in\ntag_226:\n    /* \"#utility.yul\":4091:4099   */\n  dup2\n    /* \"#utility.yul\":4087:4131   */\n  add\n    /* \"#utility.yul\":4284:4286   */\n  0x20\n    /* \"#utility.yul\":4272:4282   */\n  dup6\n    /* \"#utility.yul\":4269:4287   */\n  lt\n    /* \"#utility.yul\":4266:4315   */\n  iszero\n  tag_227\n  jumpi\n    /* \"#utility.yul\":4305:4313   */\n  dup2\n    /* \"#utility.yul\":4290:4313   */\n  swap1\n  pop\n    /* \"#utility.yul\":4266:4315   */\ntag_227:\n    /* \"#utility.yul\":4328:4408   */\n  tag_228\n    /* \"#utility.yul\":4384:4406   */\n  tag_229\n    /* \"#utility.yul\":4402:4405   */\n  dup6\n    /* \"#utility.yul\":4384:4406   */\n  tag_144\n  jump\t// in\ntag_229:\n    /* \"#utility.yul\":4374:4382   */\n  dup4\n    /* \"#utility.yul\":4370:4407   */\n  add\n    /* \"#utility.yul\":4357:4368   */\n  dup3\n    /* \"#utility.yul\":4328:4408   */\n  tag_154\n  jump\t// in\ntag_228:\n    /* \"#utility.yul\":3987:4418   */\n  pop\n  pop\n    /* \"#utility.yul\":3972:4418   */\ntag_224:\n    /* \"#utility.yul\":3882:4425   */\n  pop\n  pop\n  pop\n  jump\t// out\n    /* \"#utility.yul\":4431:4548   */\ntag_156:\n    /* \"#utility.yul\":4485:4493   */\n  0x00\n    /* \"#utility.yul\":4535:4540   */\n  dup3\n    /* \"#utility.yul\":4529:4533   */\n  dup3\n    /* \"#utility.yul\":4525:4541   */\n  shr\n    /* \"#utility.yul\":4504:4541   */\n  swap1\n  pop\n    /* \"#utility.yul\":4431:4548   */\n  swap3\n  swap2\n  pop\n  pop\n  jump\t// out\n    /* \"#utility.yul\":4554:4723   */\ntag_157:\n    /* \"#utility.yul\":4598:4604   */\n  0x00\n    /* \"#utility.yul\":4631:4682   */\n  tag_232\n    /* \"#utility.yul\":4679:4680   */\n  0x00\n    /* \"#utility.yul\":4675:4681   */\n  not\n    /* \"#utility.yul\":4667:4672   */\n  dup5\n    /* \"#utility.yul\":4664:4665   */\n  0x08\n    /* \"#utility.yul\":4660:4673   */\n  mul\n    /* \"#utility.yul\":4631:4682   */\n  tag_156\n  jump\t// in\ntag_232:\n    /* \"#utility.yul\":4627:4683   */\n  not\n    /* \"#utility.yul\":4712:4716   */\n  dup1\n    /* \"#utility.yul\":4706:4710   */\n  dup4\n    /* \"#utility.yul\":4702:4717   */\n  and\n    /* \"#utility.yul\":4692:4717   */\n  swap2\n  pop\n    /* \"#utility.yul\":4605:4723   */\n  pop\n    /* \"#utility.yul\":4554:4723   */\n  swap3\n  swap2\n  pop\n  pop\n  jump\t// out\n    /* \"#utility.yul\":4728:5023   */\ntag_158:\n    /* \"#utility.yul\":4804:4808   */\n  0x00\n    /* \"#utility.yul\":4950:4979   */\n  tag_234\n    /* \"#utility.yul\":4975:4978   */\n  dup4\n    /* \"#utility.yul\":4969:4973   */\n  dup4\n    /* \"#utility.yul\":4950:4979   */\n  tag_157\n  jump\t// in\ntag_234:\n    /* \"#utility.yul\":4942:4979   */\n  swap2\n  pop\n    /* \"#utility.yul\":5012:5015   */\n  dup3\n    /* \"#utility.yul\":5009:5010   */\n  0x02\n    /* \"#utility.yul\":5005:5016   */\n  mul\n    /* \"#utility.yul\":4999:5003   */\n  dup3\n    /* \"#utility.yul\":4996:5017   */\n  or\n    /* \"#utility.yul\":4988:5017   */\n  swap1\n  pop\n    /* \"#utility.yul\":4728:5023   */\n  swap3\n  swap2\n  pop\n  pop\n  jump\t// out\n    /* \"#utility.yul\":5028:6423   */\ntag_9:\n    /* \"#utility.yul\":5145:5182   */\n  tag_236\n    /* \"#utility.yul\":5178:5181   */\n  dup3\n    /* \"#utility.yul\":5145:5182   */\n  tag_140\n  jump\t// in\ntag_236:\n    /* \"#utility.yul\":5247:5265   */\n  0xffffffffffffffff\n    /* \"#utility.yul\":5239:5245   */\n  dup2\n    /* \"#utility.yul\":5236:5266   */\n  gt\n    /* \"#utility.yul\":5233:5289   */\n  iszero\n  tag_237\n  jumpi\n    /* \"#utility.yul\":5269:5287   */\n  tag_238\n  tag_107\n  jump\t// in\ntag_238:\n    /* \"#utility.yul\":5233:5289   */\ntag_237:\n    /* \"#utility.yul\":5313:5351   */\n  tag_239\n    /* \"#utility.yul\":5345:5349   */\n  dup3\n    /* \"#utility.yul\":5339:5350   */\n  sload\n    /* \"#utility.yul\":5313:5351   */\n  tag_142\n  jump\t// in\ntag_239:\n    /* \"#utility.yul\":5398:5465   */\n  tag_240\n    /* \"#utility.yul\":5458:5464   */\n  dup3\n    /* \"#utility.yul\":5450:5456   */\n  dup3\n    /* \"#utility.yul\":5444:5448   */\n  dup6\n    /* \"#utility.yul\":5398:5465   */\n  tag_155\n  jump\t// in\ntag_240:\n    /* \"#utility.yul\":5492:5493   */\n  0x00\n    /* \"#utility.yul\":5516:5520   */\n  0x20\n    /* \"#utility.yul\":5503:5520   */\n  swap1\n  pop\n    /* \"#utility.yul\":5548:5550   */\n  0x1f\n    /* \"#utility.yul\":5540:5546   */\n  dup4\n    /* \"#utility.yul\":5537:5551   */\n  gt\n    /* \"#utility.yul\":5565:5566   */\n  0x01\n    /* \"#utility.yul\":5560:6178   */\n  dup2\n  eq\n  tag_242\n  jumpi\n    /* \"#utility.yul\":6222:6223   */\n  0x00\n    /* \"#utility.yul\":6239:6245   */\n  dup5\n    /* \"#utility.yul\":6236:6313   */\n  iszero\n  tag_243\n  jumpi\n    /* \"#utility.yul\":6288:6297   */\n  dup3\n    /* \"#utility.yul\":6283:6286   */\n  dup8\n    /* \"#utility.yul\":6279:6298   */\n  add\n    /* \"#utility.yul\":6273:6299   */\n  mload\n    /* \"#utility.yul\":6264:6299   */\n  swap1\n  pop\n    /* \"#utility.yul\":6236:6313   */\ntag_243:\n    /* \"#utility.yul\":6339:6406   */\n  tag_244\n    /* \"#utility.yul\":6399:6405   */\n  dup6\n    /* \"#utility.yul\":6392:6397   */\n  dup3\n    /* \"#utility.yul\":6339:6406   */\n  tag_158\n  jump\t// in\ntag_244:\n    /* \"#utility.yul\":6333:6337   */\n  dup7\n    /* \"#utility.yul\":6326:6407   */\n  sstore\n    /* \"#utility.yul\":6195:6417   */\n  pop\n    /* \"#utility.yul\":5530:6417   */\n  jump(tag_241)\n    /* \"#utility.yul\":5560:6178   */\ntag_242:\n    /* \"#utility.yul\":5612:5616   */\n  0x1f\n    /* \"#utility.yul\":5608:5617   */\n  not\n    /* \"#utility.yul\":5600:5606   */\n  dup5\n    /* \"#utility.yul\":5596:5618   */\n  and\n    /* \"#utility.yul\":5646:5683   */\n  tag_245\n    /* \"#utility.yul\":5678:5682   */\n  dup7\n    /* \"#utility.yul\":5646:5683   */\n  tag_143\n  jump\t// in\ntag_245:\n    /* \"#utility.yul\":5705:5706   */\n  0x00\n    /* \"#utility.yul\":5719:5927   */\ntag_246:\n    /* \"#utility.yul\":5733:5740   */\n  dup3\n    /* \"#utility.yul\":5730:5731   */\n  dup2\n    /* \"#utility.yul\":5727:5741   */\n  lt\n    /* \"#utility.yul\":5719:5927   */\n  iszero\n  tag_248\n  jumpi\n    /* \"#utility.yul\":5812:5821   */\n  dup5\n    /* \"#utility.yul\":5807:5810   */\n  dup10\n    /* \"#utility.yul\":5803:5822   */\n  add\n    /* \"#utility.yul\":5797:5823   */\n  mload\n    /* \"#utility.yul\":5789:5795   */\n  dup3\n    /* \"#utility.yul\":5782:5824   */\n  sstore\n    /* \"#utility.yul\":5863:5864   */\n  0x01\n    /* \"#utility.yul\":5855:5861   */\n  dup3\n    /* \"#utility.yul\":5851:5865   */\n  add\n    /* \"#utility.yul\":5841:5865   */\n  swap2\n  pop\n    /* \"#utility.yul\":5910:5912   */\n  0x20\n    /* \"#utility.yul\":5899:5908   */\n  dup6\n    /* \"#utility.yul\":5895:5913   */\n  add\n    /* \"#utility.yul\":5882:5913   */\n  swap5\n  pop\n    /* \"#utility.yul\":5756:5760   */\n  0x20\n    /* \"#utility.yul\":5753:5754   */\n  dup2\n    /* \"#utility.yul\":5749:5761   */\n  add\n    /* \"#utility.yul\":5744:5761   */\n  swap1\n  pop\n    /* \"#utility.yul\":5719:5927   */\n  jump(tag_246)\ntag_248:\n    /* \"#utility.yul\":5955:5961   */\n  dup7\n    /* \"#utility.yul\":5946:5953   */\n  dup4\n    /* \"#utility.yul\":5943:5962   */\n  lt\n    /* \"#utility.yul\":5940:6119   */\n  iszero\n  tag_249\n  jumpi\n    /* \"#utility.yul\":6013:6022   */\n  dup5\n    /* \"#utility.yul\":6008:6011   */\n  dup10\n    /* \"#utility.yul\":6004:6023   */\n  add\n    /* \"#utility.yul\":5998:6024   */\n  mload\n    /* \"#utility.yul\":6056:6104   */\n  tag_250\n    /* \"#utility.yul\":6098:6102   */\n  0x1f\n    /* \"#utility.yul\":6090:6096   */\n  dup10\n    /* \"#utility.yul\":6086:6103   */\n  and\n    /* \"#utility.yul\":6075:6084   */\n  dup3\n    /* \"#utility.yul\":6056:6104   */\n  tag_157\n  jump\t// in\ntag_250:\n    /* \"#utility.yul\":6048:6054   */\n  dup4\n    /* \"#utility.yul\":6041:6105   */\n  sstore\n    /* \"#utility.yul\":5963:6119   */\n  pop\n    /* \"#utility.yul\":5940:6119   */\ntag_249:\n    /* \"#utility.yul\":6165:6166   */\n  0x01\n    /* \"#utility.yul\":6161:6162   */\n  0x02\n    /* \"#utility.yul\":6153:6159   */\n  dup9\n    /* \"#utility.yul\":6149:6163   */\n  mul\n    /* \"#utility.yul\":6145:6167   */\n  add\n    /* \"#utility.yul\":6139:6143   */\n  dup9\n    /* \"#utility.yul\":6132:6168   */\n  sstore\n    /* \"#utility.yul\":5567:6178   */\n  pop\n  pop\n  pop\n    /* \"#utility.yul\":5530:6417   */\ntag_241:\n  pop\n    /* \"#utility.yul\":5120:6423   */\n  pop\n  pop\n  pop\n    /* \"#utility.yul\":5028:6423   */\n  pop\n  pop\n  jump\t// out\n    /* \"#utility.yul\":6429:6609   */\ntag_159:\n    /* \"#utility.yul\":6477:6554   */\n  0x4e487b7100000000000000000000000000000000000000000000000000000000\n    /* \"#utility.yul\":6474:6475   */\n  0x00\n    /* \"#utility.yul\":6467:6555   */\n  mstore\n    /* \"#utility.yul\":6574:6578   */\n  0x11\n    /* \"#utility.yul\":6571:6572   */\n  0x04\n    /* \"#utility.yul\":6564:6579   */\n  mstore\n    /* \"#utility.yul\":6598:6602   */\n  0x24\n    /* \"#utility.yul\":6595:6596   */\n  0x00\n    /* \"#utility.yul\":6588:6603   */\n  revert\n    /* \"#utility.yul\":6615:6717   */\ntag_160:\n    /* \"#utility.yul\":6657:6665   */\n  0x00\n    /* \"#utility.yul\":6704:6709   */\n  dup2\n    /* \"#utility.yul\":6701:6702   */\n  0x01\n    /* \"#utility.yul\":6697:6710   */\n  shr\n    /* \"#utility.yul\":6676:6710   */\n  swap1\n  pop\n    /* \"#utility.yul\":6615:6717   */\n  swap2\n  swap1\n  pop\n  jump\t// out\n    /* \"#utility.yul\":6723:7571   */\ntag_161:\n    /* \"#utility.yul\":6784:6789   */\n  0x00\n    /* \"#utility.yul\":6791:6795   */\n  dup1\n    /* \"#utility.yul\":6815:6821   */\n  dup3\n    /* \"#utility.yul\":6806:6821   */\n  swap2\n  pop\n    /* \"#utility.yul\":6839:6844   */\n  dup4\n    /* \"#utility.yul\":6830:6844   */\n  swap1\n  pop\n    /* \"#utility.yul\":6853:7565   */\ntag_254:\n    /* \"#utility.yul\":6874:6875   */\n  0x01\n    /* \"#utility.yul\":6864:6872   */\n  dup6\n    /* \"#utility.yul\":6861:6876   */\n  gt\n    /* \"#utility.yul\":6853:7565   */\n  iszero\n  tag_256\n  jumpi\n    /* \"#utility.yul\":6969:6973   */\n  dup1\n    /* \"#utility.yul\":6964:6967   */\n  dup7\n    /* \"#utility.yul\":6960:6974   */\n  div\n    /* \"#utility.yul\":6954:6958   */\n  dup2\n    /* \"#utility.yul\":6951:6975   */\n  gt\n    /* \"#utility.yul\":6948:6998   */\n  iszero\n  tag_257\n  jumpi\n    /* \"#utility.yul\":6978:6996   */\n  tag_258\n  tag_159\n  jump\t// in\ntag_258:\n    /* \"#utility.yul\":6948:6998   */\ntag_257:\n    /* \"#utility.yul\":7028:7029   */\n  0x01\n    /* \"#utility.yul\":7018:7026   */\n  dup6\n    /* \"#utility.yul\":7014:7030   */\n  and\n    /* \"#utility.yul\":7011:7462   */\n  iszero\n  tag_259\n  jumpi\n    /* \"#utility.yul\":7443:7447   */\n  dup1\n    /* \"#utility.yul\":7436:7441   */\n  dup3\n    /* \"#utility.yul\":7432:7448   */\n  mul\n    /* \"#utility.yul\":7423:7448   */\n  swap2\n  pop\n    /* \"#utility.yul\":7011:7462   */\ntag_259:\n    /* \"#utility.yul\":7493:7497   */\n  dup1\n    /* \"#utility.yul\":7487:7491   */\n  dup2\n    /* \"#utility.yul\":7483:7498   */\n  mul\n    /* \"#utility.yul\":7475:7498   */\n  swap1\n  pop\n    /* \"#utility.yul\":7523:7555   */\n  tag_260\n    /* \"#utility.yul\":7546:7554   */\n  dup6\n    /* \"#utility.yul\":7523:7555   */\n  tag_160\n  jump\t// in\ntag_260:\n    /* \"#utility.yul\":7511:7555   */\n  swap5\n  pop\n    /* \"#utility.yul\":6853:7565   */\n  jump(tag_254)\ntag_256:\n    /* \"#utility.yul\":6723:7571   */\n  swap5\n  pop\n  swap5\n  swap3\n  pop\n  pop\n  pop\n  jump\t// out\n    /* \"#utility.yul\":7577:8650   */\ntag_162:\n    /* \"#utility.yul\":7631:7636   */\n  0x00\n    /* \"#utility.yul\":7822:7830   */\n  dup3\n    /* \"#utility.yul\":7812:7852   */\n  tag_262\n  jumpi\n    /* \"#utility.yul\":7843:7844   */\n  0x01\n    /* \"#utility.yul\":7834:7844   */\n  swap1\n  pop\n    /* \"#utility.yul\":7845:7850   */\n  jump(tag_261)\n    /* \"#utility.yul\":7812:7852   */\ntag_262:\n    /* \"#utility.yul\":7871:7875   */\n  dup2\n    /* \"#utility.yul\":7861:7897   */\n  tag_263\n  jumpi\n    /* \"#utility.yul\":7888:7889   */\n  0x00\n    /* \"#utility.yul\":7879:7889   */\n  swap1\n  pop\n    /* \"#utility.yul\":7890:7895   */\n  jump(tag_261)\n    /* \"#utility.yul\":7861:7897   */\ntag_263:\n    /* \"#utility.yul\":7957:7961   */\n  dup2\n    /* \"#utility.yul\":8005:8006   */\n  0x01\n    /* \"#utility.yul\":8000:8027   */\n  dup2\n  eq\n  tag_265\n  jumpi\n    /* \"#utility.yul\":8041:8042   */\n  0x02\n    /* \"#utility.yul\":8036:8227   */\n  dup2\n  eq\n  tag_266\n  jumpi\n    /* \"#utility.yul\":7950:8227   */\n  jump(tag_264)\n    /* \"#utility.yul\":8000:8027   */\ntag_265:\n    /* \"#utility.yul\":8018:8019   */\n  0x01\n    /* \"#utility.yul\":8009:8019   */\n  swap2\n  pop\n    /* \"#utility.yul\":8020:8025   */\n  pop\n  jump(tag_261)\n    /* \"#utility.yul\":8036:8227   */\ntag_266:\n    /* \"#utility.yul\":8081:8084   */\n  0xff\n    /* \"#utility.yul\":8071:8079   */\n  dup5\n    /* \"#utility.yul\":8068:8085   */\n  gt\n    /* \"#utility.yul\":8065:8108   */\n  iszero\n  tag_267\n  jumpi\n    /* \"#utility.yul\":8088:8106   */\n  tag_268\n  tag_159\n  jump\t// in\ntag_268:\n    /* \"#utility.yul\":8065:8108   */\ntag_267:\n    /* \"#utility.yul\":8137:8145   */\n  dup4\n    /* \"#utility.yul\":8134:8135   */\n  0x02\n    /* \"#utility.yul\":8130:8146   */\n  exp\n    /* \"#utility.yul\":8121:8146   */\n  swap2\n  pop\n    /* \"#utility.yul\":8172:8175   */\n  dup5\n    /* \"#utility.yul\":8165:8170   */\n  dup3\n    /* \"#utility.yul\":8162:8176   */\n  gt\n    /* \"#utility.yul\":8159:8199   */\n  iszero\n  tag_269\n  jumpi\n    /* \"#utility.yul\":8179:8197   */\n  tag_270\n  tag_159\n  jump\t// in\ntag_270:\n    /* \"#utility.yul\":8159:8199   */\ntag_269:\n    /* \"#utility.yul\":8212:8217   */\n  pop\n  jump(tag_261)\n    /* \"#utility.yul\":7950:8227   */\ntag_264:\n  pop\n    /* \"#utility.yul\":8336:8338   */\n  0x20\n    /* \"#utility.yul\":8326:8334   */\n  dup4\n    /* \"#utility.yul\":8323:8339   */\n  lt\n    /* \"#utility.yul\":8317:8320   */\n  0x0133\n    /* \"#utility.yul\":8311:8315   */\n  dup4\n    /* \"#utility.yul\":8308:8321   */\n  lt\n    /* \"#utility.yul\":8304:8340   */\n  and\n    /* \"#utility.yul\":8286:8288   */\n  0x4e\n    /* \"#utility.yul\":8276:8284   */\n  dup5\n    /* \"#utility.yul\":8273:8289   */\n  lt\n    /* \"#utility.yul\":8268:8270   */\n  0x0b\n    /* \"#utility.yul\":8262:8266   */\n  dup5\n    /* \"#utility.yul\":8259:8271   */\n  lt\n    /* \"#utility.yul\":8255:8290   */\n  and\n    /* \"#utility.yul\":8239:8350   */\n  or\n    /* \"#utility.yul\":8236:8482   */\n  iszero\n  tag_271\n  jumpi\n    /* \"#utility.yul\":8392:8400   */\n  dup3\n    /* \"#utility.yul\":8386:8390   */\n  dup3\n    /* \"#utility.yul\":8382:8401   */\n  exp\n    /* \"#utility.yul\":8373:8401   */\n  swap1\n  pop\n    /* \"#utility.yul\":8427:8430   */\n  dup4\n    /* \"#utility.yul\":8420:8425   */\n  dup2\n    /* \"#utility.yul\":8417:8431   */\n  gt\n    /* \"#utility.yul\":8414:8454   */\n  iszero\n  tag_272\n  jumpi\n    /* \"#utility.yul\":8434:8452   */\n  tag_273\n  tag_159\n  jump\t// in\ntag_273:\n    /* \"#utility.yul\":8414:8454   */\ntag_272:\n    /* \"#utility.yul\":8467:8472   */\n  jump(tag_261)\n    /* \"#utility.yul\":8236:8482   */\ntag_271:\n    /* \"#utility.yul\":8507:8549   */\n  tag_274\n    /* \"#utility.yul\":8545:8548   */\n  dup5\n    /* \"#utility.yul\":8535:8543   */\n  dup5\n    /* \"#utility.yul\":8529:8533   */\n  dup5\n    /* \"#utility.yul\":8526:8527   */\n  0x01\n    /* \"#utility.yul\":8507:8549   */\n  tag_161\n  jump\t// in\ntag_274:\n    /* \"#utility.yul\":8492:8549   */\n  swap3\n  pop\n  swap1\n  pop\n    /* \"#utility.yul\":8581:8585   */\n  dup2\n    /* \"#utility.yul\":8576:8579   */\n  dup5\n    /* \"#utility.yul\":8572:8586   */\n  div\n    /* \"#utility.yul\":8565:8570   */\n  dup2\n    /* \"#utility.yul\":8562:8587   */\n  gt\n    /* \"#utility.yul\":8559:8610   */\n  iszero\n  tag_275\n  jumpi\n    /* \"#utility.yul\":8590:8608   */\n  tag_276\n  tag_159\n  jump\t// in\ntag_276:\n    /* \"#utility.yul\":8559:8610   */\ntag_275:\n    /* \"#utility.yul\":8639:8643   */\n  dup2\n    /* \"#utility.yul\":8632:8637   */\n  dup2\n    /* \"#utility.yul\":8628:8644   */\n  mul\n    /* \"#utility.yul\":8619:8644   */\n  swap1\n  pop\n    /* \"#utility.yul\":7577:8650   */\ntag_261:\n  swap4\n  swap3\n  pop\n  pop\n  pop\n  jump\t// out\n    /* \"#utility.yul\":8656:8742   */\ntag_163:\n    /* \"#utility.yul\":8691:8698   */\n  0x00\n    /* \"#utility.yul\":8731:8735   */\n  0xff\n    /* \"#utility.yul\":8724:8729   */\n  dup3\n    /* \"#utility.yul\":8720:8736   */\n  and\n    /* \"#utility.yul\":8709:8736   */\n  swap1\n  pop\n    /* \"#utility.yul\":8656:8742   */\n  swap2\n  swap1\n  pop\n  jump\t// out\n    /* \"#utility.yul\":8748:9029   */\ntag_12:\n    /* \"#utility.yul\":8806:8811   */\n  0x00\n    /* \"#utility.yul\":8830:8853   */\n  tag_279\n    /* \"#utility.yul\":8848:8852   */\n  dup3\n    /* \"#utility.yul\":8830:8853   */\n  tag_147\n  jump\t// in\ntag_279:\n    /* \"#utility.yul\":8822:8853   */\n  swap2\n  pop\n    /* \"#utility.yul\":8874:8899   */\n  tag_280\n    /* \"#utility.yul\":8890:8898   */\n  dup4\n    /* \"#utility.yul\":8874:8899   */\n  tag_163\n  jump\t// in\ntag_280:\n    /* \"#utility.yul\":8862:8899   */\n  swap3\n  pop\n    /* \"#utility.yul\":8918:9022   */\n  tag_281\n    /* \"#utility.yul\":8955:9021   */\n  0xffffffffffffffffffffffffffffffffffffffffffffffffffffffffffffffff\n    /* \"#utility.yul\":8945:8953   */\n  dup5\n    /* \"#utility.yul\":8939:8943   */\n  dup5\n    /* \"#utility.yul\":8918:9022   */\n  tag_162\n  jump\t// in\ntag_281:\n    /* \"#utility.yul\":8909:9022   */\n  swap1\n  pop\n    /* \"#utility.yul\":8748:9029   */\n  swap3\n  swap2\n  pop\n  pop\n  jump\t// out\n    /* \"#utility.yul\":9035:9445   */\ntag_14:\n    /* \"#utility.yul\":9075:9082   */\n  0x00\n    /* \"#utility.yul\":9098:9118   */\n  tag_283\n    /* \"#utility.yul\":9116:9117   */\n  dup3\n    /* \"#utility.yul\":9098:9118   */\n  tag_147\n  jump\t// in\ntag_283:\n    /* \"#utility.yul\":9093:9118   */\n  swap2\n  pop\n    /* \"#utility.yul\":9132:9152   */\n  tag_284\n    /* \"#utility.yul\":9150:9151   */\n  dup4\n    /* \"#utility.yul\":9132:9152   */\n  tag_147\n  jump\t// in\ntag_284:\n    /* \"#utility.yul\":9127:9152   */\n  swap3\n  pop\n    /* \"#utility.yul\":9187:9188   */\n  dup3\n    /* \"#utility.yul\":9184:9185   */\n  dup3\n    /* \"#utility.yul\":9180:9189   */\n  mul\n    /* \"#utility.yul\":9209:9239   */\n  tag_285\n    /* \"#utility.yul\":9227:9238   */\n  dup2\n    /* \"#utility.yul\":9209:9239   */\n  tag_147\n  jump\t// in\ntag_285:\n    /* \"#utility.yul\":9198:9239   */\n  swap2\n  pop\n    /* \"#utility.yul\":9388:9389   */\n  dup3\n    /* \"#utility.yul\":9379:9386   */\n  dup3\n    /* \"#utility.yul\":9375:9390   */\n  div\n    /* \"#utility.yul\":9372:9373   */\n  dup5\n    /* \"#utility.yul\":9369:9391   */\n  eq\n    /* \"#utility.yul\":9349:9350   */\n  dup4\n    /* \"#utility.yul\":9342:9351   */\n  iszero\n    /* \"#utility.yul\":9322:9405   */\n  or\n    /* \"#utility.yul\":9299:9438   */\n  tag_286\n  jumpi\n    /* \"#utility.yul\":9418:9436   */\n  tag_287\n  tag_159\n  jump\t// in\ntag_287:\n    /* \"#utility.yul\":9299:9438   */\ntag_286:\n    /* \"#utility.yul\":9083:9445   */\n  pop\n    /* \"#utility.yul\":9035:9445   */\n  swap3\n  swap2\n  pop\n  pop\n  jump\t// out\n    /* \"#utility.yul\":9451:9642   */\ntag_25:\n    /* \"#utility.yul\":9491:9494   */\n  0x00\n    /* \"#utility.yul\":9510:9530   */\n  tag_289\n    /* \"#utility.yul\":9528:9529   */\n  dup3\n    /* \"#utility.yul\":9510:9530   */\n  tag_147\n  jump\t// in\ntag_289:\n    /* \"#utility.yul\":9505:9530   */\n  swap2\n  pop\n    /* \"#utility.yul\":9544:9564   */\n  tag_290\n    /* \"#utility.yul\":9562:9563   */\n  dup4\n    /* \"#utility.yul\":9544:9564   */\n  tag_147\n  jump\t// in\ntag_290:\n    /* \"#utility.yul\":9539:9564   */\n  swap3\n  pop\n    /* \"#utility.yul\":9587:9588   */\n  dup3\n    /* \"#utility.yul\":9584:9585   */\n  dup3\n    /* \"#utility.yul\":9580:9589   */\n  add\n    /* \"#utility.yul\":9573:9589   */\n  swap1\n  pop\n    /* \"#utility.yul\":9608:9611   */\n  dup1\n    /* \"#utility.yul\":9605:9606   */\n  dup3\n    /* \"#utility.yul\":9602:9612   */\n  gt\n    /* \"#utility.yul\":9599:9635   */\n  iszero\n  tag_291\n  jumpi\n    /* \"#utility.yul\":9615:9633   */\n  tag_292\n  tag_159\n  jump\t// in\ntag_292:\n    /* \"#utility.yul\":9599:9635   */\ntag_291:\n    /* \"#utility.yul\":9451:9642   */\n  swap3\n  swap2\n  pop\n  pop\n  jump\t// out\n    /* \"#utility.yul\":9648:9796   */\ntag_164:\n    /* \"#utility.yul\":9750:9761   */\n  0x00\n    /* \"#utility.yul\":9787:9790   */\n  dup2\n    /* \"#utility.yul\":9772:9790   */\n  swap1\n  pop\n    /* \"#utility.yul\":9648:9796   */\n  swap3\n  swap2\n  pop\n  pop\n  jump\t// out\n    /* \"#utility.yul\":9802:9954   */\ntag_165:\n    /* \"#utility.yul\":9942:9946   */\n  0x5653000000000000000000000000000000000000000000000000000000000000\n    /* \"#utility.yul\":9938:9939   */\n  0x00\n    /* \"#utility.yul\":9930:9936   */\n  dup3\n    /* \"#utility.yul\":9926:9940   */\n  add\n    /* \"#utility.yul\":9919:9947   */\n  mstore\n    /* \"#utility.yul\":9802:9954   */\n  pop\n  jump\t// out\n    /* \"#utility.yul\":9960:10360   */\ntag_166:\n    /* \"#utility.yul\":10120:10123   */\n  0x00\n    /* \"#utility.yul\":10141:10225   */\n  tag_296\n    /* \"#utility.yul\":10223:10224   */\n  0x02\n    /* \"#utility.yul\":10218:10221   */\n  dup4\n    /* \"#utility.yul\":10141:10225   */\n  tag_164\n  jump\t// in\ntag_296:\n    /* \"#utility.yul\":10134:10225   */\n  swap2\n  pop\n    /* \"#utility.yul\":10234:10327   */\n  tag_297\n    /* \"#utility.yul\":10323:10326   */\n  dup3\n    /* \"#utility.yul\":10234:10327   */\n  tag_165\n  jump\t// in\ntag_297:\n    /* \"#utility.yul\":10352:10353   */\n  0x02\n    /* \"#utility.yul\":10347:10350   */\n  dup3\n    /* \"#utility.yul\":10343:10354   */\n  add\n    /* \"#utility.yul\":10336:10354   */\n  swap1\n  pop\n    /* \"#utility.yul\":9960:10360   */\n  swap2\n  swap1\n  pop\n  jump\t// out\n    /* \"#utility.yul\":10366:10612   */\ntag_167:\n    /* \"#utility.yul\":10447:10448   */\n  0x00\n    /* \"#utility.yul\":10457:10570   */\ntag_299:\n    /* \"#utility.yul\":10471:10477   */\n  dup4\n    /* \"#utility.yul\":10468:10469   */\n  dup2\n    /* \"#utility.yul\":10465:10478   */\n  lt\n    /* \"#utility.yul\":10457:10570   */\n  iszero\n  tag_301\n  jumpi\n    /* \"#utility.yul\":10556:10557   */\n  dup1\n    /* \"#utility.yul\":10551:10554   */\n  dup3\n    /* \"#utility.yul\":10547:10558   */\n  add\n    /* \"#utility.yul\":10541:10559   */\n  mload\n    /* \"#utility.yul\":10537:10538   */\n  dup2\n    /* \"#utility.yul\":10532:10535   */\n  dup5\n    /* \"#utility.yul\":10528:10539   */\n  add\n    /* \"#utility.yul\":10521:10560   */\n  mstore\n    /* \"#utility.yul\":10493:10495   */\n  0x20\n    /* \"#utility.yul\":10490:10491   */\n  dup2\n    /* \"#utility.yul\":10486:10496   */\n  add\n    /* \"#utility.yul\":10481:10496   */\n  swap1\n  pop\n    /* \"#utility.yul\":10457:10570   */\n  jump(tag_299)\ntag_301:\n    /* \"#utility.yul\":10604:10605   */\n  0x00\n    /* \"#utility.yul\":10595:10601   */\n  dup5\n    /* \"#utility.yul\":10590:10593   */\n  dup5\n    /* \"#utility.yul\":10586:10602   */\n  add\n    /* \"#utility.yul\":10579:10606   */\n  mstore\n    /* \"#utility.yul\":10428:10612   */\n  pop\n    /* \"#utility.yul\":10366:10612   */\n  pop\n  pop\n  pop\n  jump\t// out\n    /* \"#utility.yul\":10618:11008   */\ntag_168:\n    /* \"#utility.yul\":10724:10727   */\n  0x00\n    /* \"#utility.yul\":10752:10791   */\n  tag_303\n    /* \"#utility.yul\":10785:10790   */\n  dup3\n    /* \"#utility.yul\":10752:10791   */\n  tag_140\n  jump\t// in\ntag_303:\n    /* \"#utility.yul\":10807:10896   */\n  tag_304\n    /* \"#utility.yul\":10889:10895   */\n  dup2\n    /* \"#utility.yul\":10884:10887   */\n  dup6\n    /* \"#utility.yul\":10807:10896   */\n  tag_164\n  jump\t// in\ntag_304:\n    /* \"#utility.yul\":10800:10896   */\n  swap4\n  pop\n    /* \"#utility.yul\":10905:10970   */\n  tag_305\n    /* \"#utility.yul\":10963:10969   */\n  dup2\n    /* \"#utility.yul\":10958:10961   */\n  dup6\n    /* \"#utility.yul\":10951:10955   */\n  0x20\n    /* \"#utility.yul\":10944:10949   */\n  dup7\n    /* \"#utility.yul\":10940:10956   */\n  add\n    /* \"#utility.yul\":10905:10970   */\n  tag_167\n  jump\t// in\ntag_305:\n    /* \"#utility.yul\":10995:11001   */\n  dup1\n    /* \"#utility.yul\":10990:10993   */\n  dup5\n    /* \"#utility.yul\":10986:11002   */\n  add\n    /* \"#utility.yul\":10979:11002   */\n  swap2\n  pop\n    /* \"#utility.yul\":10728:11008   */\n  pop\n    /* \"#utility.yul\":10618:11008   */\n  swap3\n  swap2\n  pop\n  pop\n  jump\t// out\n    /* \"#utility.yul\":11014:11555   */\ntag_29:\n    /* \"#utility.yul\":11247:11250   */\n  0x00\n    /* \"#utility.yul\":11269:11417   */\n  tag_307\n    /* \"#utility.yul\":11413:11416   */\n  dup3\n    /* \"#utility.yul\":11269:11417   */\n  tag_166\n  jump\t// in\ntag_307:\n    /* \"#utility.yul\":11262:11417   */\n  swap2\n  pop\n    /* \"#utility.yul\":11434:11529   */\n  tag_308\n    /* \"#utility.yul\":11525:11528   */\n  dup3\n    /* \"#utility.yul\":11516:11522   */\n  dup5\n    /* \"#utility.yul\":11434:11529   */\n  tag_168\n  jump\t// in\ntag_308:\n    /* \"#utility.yul\":11427:11529   */\n  swap2\n  pop\n    /* \"#utility.yul\":11546:11549   */\n  dup2\n    /* \"#utility.yul\":11539:11549   */\n  swap1\n  pop\n    /* \"#utility.yul\":11014:11555   */\n  swap3\n  swap2\n  pop\n  pop\n  jump\t// out\n    /* \"#utility.yul\":11561:11794   */\ntag_34:\n    /* \"#utility.yul\":11600:11603   */\n  0x00\n    /* \"#utility.yul\":11623:11647   */\n  tag_310\n    /* \"#utility.yul\":11641:11646   */\n  dup3\n    /* \"#utility.yul\":11623:11647   */\n  tag_147\n  jump\t// in\ntag_310:\n    /* \"#utility.yul\":11614:11647   */\n  swap2\n  pop\n    /* \"#utility.yul\":11669:11735   */\n  0xffffffffffffffffffffffffffffffffffffffffffffffffffffffffffffffff\n    /* \"#utility.yul\":11662:11667   */\n  dup3\n    /* \"#utility.yul\":11659:11736   */\n  sub\n    /* \"#utility.yul\":11656:11759   */\n  tag_311\n  jumpi\n    /* \"#utility.yul\":11739:11757   */\n  tag_312\n  tag_159\n  jump\t// in\ntag_312:\n    /* \"#utility.yul\":11656:11759   */\ntag_311:\n    /* \"#utility.yul\":11786:11787   */\n  0x01\n    /* \"#utility.yul\":11779:11784   */\n  dup3\n    /* \"#utility.yul\":11775:11788   */\n  add\n    /* \"#utility.yul\":11768:11788   */\n  swap1\n  pop\n    /* \"#utility.yul\":11561:11794   */\n  swap2\n  swap1\n  pop\n  jump\t// out\n    /* \"#utility.yul\":11800:11969   */\ntag_169:\n    /* \"#utility.yul\":11884:11895   */\n  0x00\n    /* \"#utility.yul\":11918:11924   */\n  dup3\n    /* \"#utility.yul\":11913:11916   */\n  dup3\n    /* \"#utility.yul\":11906:11925   */\n  mstore\n    /* \"#utility.yul\":11958:11962   */\n  0x20\n    /* \"#utility.yul\":11953:11956   */\n  dup3\n    /* \"#utility.yul\":11949:11963   */\n  add\n    /* \"#utility.yul\":11934:11963   */\n  swap1\n  pop\n    /* \"#utility.yul\":11800:11969   */\n  swap3\n  swap2\n  pop\n  pop\n  jump\t// out\n    /* \"#utility.yul\":11975:12134   */\ntag_170:\n    /* \"#utility.yul\":12115:12126   */\n  0x6f6e6c7941646d696e0000000000000000000000000000000000000000000000\n    /* \"#utility.yul\":12111:12112   */\n  0x00\n    /* \"#utility.yul\":12103:12109   */\n  dup3\n    /* \"#utility.yul\":12099:12113   */\n  add\n    /* \"#utility.yul\":12092:12127   */\n  mstore\n    /* \"#utility.yul\":11975:12134   */\n  pop\n  jump\t// out\n    /* \"#utility.yul\":12140:12505   */\ntag_171:\n    /* \"#utility.yul\":12282:12285   */\n  0x00\n    /* \"#utility.yul\":12303:12369   */\n  tag_316\n    /* \"#utility.yul\":12367:12368   */\n  0x09\n    /* \"#utility.yul\":12362:12365   */\n  dup4\n    /* \"#utility.yul\":12303:12369   */\n  tag_169\n  jump\t// in\ntag_316:\n    /* \"#utility.yul\":12296:12369   */\n  swap2\n  pop\n    /* \"#utility.yul\":12378:12471   */\n  tag_317\n    /* \"#utility.yul\":12467:12470   */\n  dup3\n    /* \"#utility.yul\":12378:12471   */\n  tag_170\n  jump\t// in\ntag_317:\n    /* \"#utility.yul\":12496:12498   */\n  0x20\n    /* \"#utility.yul\":12491:12494   */\n  dup3\n    /* \"#utility.yul\":12487:12499   */\n  add\n    /* \"#utility.yul\":12480:12499   */\n  swap1\n  pop\n    /* \"#utility.yul\":12140:12505   */\n  swap2\n  swap1\n  pop\n  jump\t// out\n    /* \"#utility.yul\":12511:12930   */\ntag_84:\n    /* \"#utility.yul\":12677:12681   */\n  0x00\n    /* \"#utility.yul\":12715:12717   */\n  0x20\n    /* \"#utility.yul\":12704:12713   */\n  dup3\n    /* \"#utility.yul\":12700:12718   */\n  add\n    /* \"#utility.yul\":12692:12718   */\n  swap1\n  pop\n    /* \"#utility.yul\":12764:12773   */\n  dup2\n    /* \"#utility.yul\":12758:12762   */\n  dup2\n    /* \"#utility.yul\":12754:12774   */\n  sub\n    /* \"#utility.yul\":12750:12751   */\n  0x00\n    /* \"#utility.yul\":12739:12748   */\n  dup4\n    /* \"#utility.yul\":12735:12752   */\n  add\n    /* \"#utility.yul\":12728:12775   */\n  mstore\n    /* \"#utility.yul\":12792:12923   */\n  tag_319\n    /* \"#utility.yul\":12918:12922   */\n  dup2\n    /* \"#utility.yul\":12792:12923   */\n  tag_171\n  jump\t// in\ntag_319:\n    /* \"#utility.yul\":12784:12923   */\n  swap1\n  pop\n    /* \"#utility.yul\":12511:12930   */\n  swap2\n  swap1\n  pop\n  jump\t// out\n    /* \"#utility.yul\":12936:13130   */\ntag_93:\n    /* \"#utility.yul\":12976:12980   */\n  0x00\n    /* \"#utility.yul\":12996:13016   */\n  tag_321\n    /* \"#utility.yul\":13014:13015   */\n  dup3\n    /* \"#utility.yul\":12996:13016   */\n  tag_147\n  jump\t// in\ntag_321:\n    /* \"#utility.yul\":12991:13016   */\n  swap2\n  pop\n    /* \"#utility.yul\":13030:13050   */\n  tag_322\n    /* \"#utility.yul\":13048:13049   */\n  dup4\n    /* \"#utility.yul\":13030:13050   */\n  tag_147\n  jump\t// in\ntag_322:\n    /* \"#utility.yul\":13025:13050   */\n  swap3\n  pop\n    /* \"#utility.yul\":13074:13075   */\n  dup3\n    /* \"#utility.yul\":13071:13072   */\n  dup3\n    /* \"#utility.yul\":13067:13076   */\n  sub\n    /* \"#utility.yul\":13059:13076   */\n  swap1\n  pop\n    /* \"#utility.yul\":13098:13099   */\n  dup2\n    /* \"#utility.yul\":13092:13096   */\n  dup2\n    /* \"#utility.yul\":13089:13100   */\n  gt\n    /* \"#utility.yul\":13086:13123   */\n  iszero\n  tag_323\n  jumpi\n    /* \"#utility.yul\":13103:13121   */\n  tag_324\n  tag_159\n  jump\t// in\ntag_324:\n    /* \"#utility.yul\":13086:13123   */\ntag_323:\n    /* \"#utility.yul\":12936:13130   */\n  swap3\n  swap2\n  pop\n  pop\n  jump\t// out\n    /* \"#utility.yul\":13136:13254   */\ntag_172:\n    /* \"#utility.yul\":13223:13247   */\n  tag_326\n    /* \"#utility.yul\":13241:13246   */\n  dup2\n    /* \"#utility.yul\":13223:13247   */\n  tag_147\n  jump\t// in\ntag_326:\n    /* \"#utility.yul\":13218:13221   */\n  dup3\n    /* \"#utility.yul\":13211:13248   */\n  mstore\n    /* \"#utility.yul\":13136:13254   */\n  pop\n  pop\n  jump\t// out\n    /* \"#utility.yul\":13260:13482   */\ntag_97:\n    /* \"#utility.yul\":13353:13357   */\n  0x00\n    /* \"#utility.yul\":13391:13393   */\n  0x20\n    /* \"#utility.yul\":13380:13389   */\n  dup3\n    /* \"#utility.yul\":13376:13394   */\n  add\n    /* \"#utility.yul\":13368:13394   */\n  swap1\n  pop\n    /* \"#utility.yul\":13404:13475   */\n  tag_328\n    /* \"#utility.yul\":13472:13473   */\n  0x00\n    /* \"#utility.yul\":13461:13470   */\n  dup4\n    /* \"#utility.yul\":13457:13474   */\n  add\n    /* \"#utility.yul\":13448:13454   */\n  dup5\n    /* \"#utility.yul\":13404:13475   */\n  tag_172\n  jump\t// in\ntag_328:\n    /* \"#utility.yul\":13260:13482   */\n  swap3\n  swap2\n  pop\n  pop\n  jump\t// out\n    /* \"#utility.yul\":13488:13668   */\ntag_173:\n    /* \"#utility.yul\":13536:13613   */\n  0x4e487b7100000000000000000000000000000000000000000000000000000000\n    /* \"#utility.yul\":13533:13534   */\n  0x00\n    /* \"#utility.yul\":13526:13614   */\n  mstore\n    /* \"#utility.yul\":13633:13637   */\n  0x12\n    /* \"#utility.yul\":13630:13631   */\n  0x04\n    /* \"#utility.yul\":13623:13638   */\n  mstore\n    /* \"#utility.yul\":13657:13661   */\n  0x24\n    /* \"#utility.yul\":13654:13655   */\n  0x00\n    /* \"#utility.yul\":13647:13662   */\n  revert\n    /* \"#utility.yul\":13674:13859   */\ntag_104:\n    /* \"#utility.yul\":13714:13715   */\n  0x00\n    /* \"#utility.yul\":13731:13751   */\n  tag_331\n    /* \"#utility.yul\":13749:13750   */\n  dup3\n    /* \"#utility.yul\":13731:13751   */\n  tag_147\n  jump\t// in\ntag_331:\n    /* \"#utility.yul\":13726:13751   */\n  swap2\n  pop\n    /* \"#utility.yul\":13765:13785   */\n  tag_332\n    /* \"#utility.yul\":13783:13784   */\n  dup4\n    /* \"#utility.yul\":13765:13785   */\n  tag_147\n  jump\t// in\ntag_332:\n    /* \"#utility.yul\":13760:13785   */\n  swap3\n  pop\n    /* \"#utility.yul\":13804:13805   */\n  dup3\n    /* \"#utility.yul\":13794:13829   */\n  tag_333\n  jumpi\n    /* \"#utility.yul\":13809:13827   */\n  tag_334\n  tag_173\n  jump\t// in\ntag_334:\n    /* \"#utility.yul\":13794:13829   */\ntag_333:\n    /* \"#utility.yul\":13851:13852   */\n  dup3\n    /* \"#utility.yul\":13848:13849   */\n  dup3\n    /* \"#utility.yul\":13844:13853   */\n  div\n    /* \"#utility.yul\":13839:13853   */\n  swap1\n  pop\n    /* \"#utility.yul\":13674:13859   */\n  swap3\n  swap2\n  pop\n  pop\n  jump\t// out\n    /* \"#utility.yul\":13865:14041   */\ntag_113:\n    /* \"#utility.yul\":13897:13898   */\n  0x00\n    /* \"#utility.yul\":13914:13934   */\n  tag_336\n    /* \"#utility.yul\":13932:13933   */\n  dup3\n    /* \"#utility.yul\":13914:13934   */\n  tag_147\n  jump\t// in\ntag_336:\n    /* \"#utility.yul\":13909:13934   */\n  swap2\n  pop\n    /* \"#utility.yul\":13948:13968   */\n  tag_337\n    /* \"#utility.yul\":13966:13967   */\n  dup4\n    /* \"#utility.yul\":13948:13968   */\n  tag_147\n  jump\t// in\ntag_337:\n    /* \"#utility.yul\":13943:13968   */\n  swap3\n  pop\n    /* \"#utility.yul\":13987:13988   */\n  dup3\n    /* \"#utility.yul\":13977:14012   */\n  tag_338\n  jumpi\n    /* \"#utility.yul\":13992:14010   */\n  tag_339\n  tag_173\n  jump\t// in\ntag_339:\n    /* \"#utility.yul\":13977:14012   */\ntag_338:\n    /* \"#utility.yul\":14033:14034   */\n  dup3\n    /* \"#utility.yul\":14030:14031   */\n  dup3\n    /* \"#utility.yul\":14026:14035   */\n  mod\n    /* \"#utility.yul\":14021:14035   */\n  swap1\n  pop\n    /* \"#utility.yul\":13865:14041   */\n  swap3\n  swap2\n  pop\n  pop\n  jump\t// out\n    /* \"#utility.yul\":14047:14227   */\ntag_117:\n    /* \"#utility.yul\":14095:14172   */\n  0x4e487b7100000000000000000000000000000000000000000000000000000000\n    /* \"#utility.yul\":14092:14093   */\n  0x00\n    /* \"#utility.yul\":14085:14173   */\n  mstore\n    /* \"#utility.yul\":14192:14196   */\n  0x32\n    /* \"#utility.yul\":14189:14190   */\n  0x04\n    /* \"#utility.yul\":14182:14197   */\n  mstore\n    /* \"#utility.yul\":14216:14220   */\n  0x24\n    /* \"#utility.yul\":14213:14214   */\n  0x00\n    /* \"#utility.yul\":14206:14221   */\n  revert\n    /* \"#utility.yul\":14233:14508   */\ntag_121:\n    /* \"#utility.yul\":14365:14368   */\n  0x00\n    /* \"#utility.yul\":14387:14482   */\n  tag_342\n    /* \"#utility.yul\":14478:14481   */\n  dup3\n    /* \"#utility.yul\":14469:14475   */\n  dup5\n    /* \"#utility.yul\":14387:14482   */\n  tag_168\n  jump\t// in\ntag_342:\n    /* \"#utility.yul\":14380:14482   */\n  swap2\n  pop\n    /* \"#utility.yul\":14499:14502   */\n  dup2\n    /* \"#utility.yul\":14492:14502   */\n  swap1\n  pop\n    /* \"#utility.yul\":14233:14508   */\n  swap3\n  swap2\n  pop\n  pop\n  jump\t// out\n    /* \"smart_contracts/contracts/Token.sol\":6110:18360  contract Token is Authenticator, IERC20, ICustomToken {... */\ntag_80:\n  mload(0x80)\n  codecopy(0x00, dataOffset(sub_0), dataSize(sub_0))\n  0x00\n  assignImmutable(\"0x845e9c18ca148a712f01bf14c91c3e2fe352eabe86c44817e3f33b63f585a343\")\n  return(0x00, dataSize(sub_0))\nstop\n\nsub_0: assembly {\n        /* \"smart_contracts/contracts/Token.sol\":6110:18360  contract Token is Authenticator, IERC20, ICustomToken {... */\n      mstore(0x40, 0x80)\n      callvalue\n      dup1\n      iszero\n      tag_1\n      jumpi\n      0x00\n      dup1\n      revert\n    tag_1:\n      pop\n      jumpi(tag_2, lt(calldatasize, 0x04))\n      shr(0xe0, calldataload(0x00))\n      dup1\n      0x4c496d4f\n      gt\n      tag_29\n      jumpi\n      dup1\n      0xa694fc3a\n      gt\n      tag_30\n      jumpi\n      dup1\n      0xdb3c5fca\n      gt\n      tag_31\n      jumpi\n      dup1\n      0xdb3c5fca\n      eq\n      tag_25\n      jumpi\n      dup1\n      0xdd62ed3e\n      eq\n      tag_26\n      jumpi\n      dup1\n      0xe4f1b27c\n      eq\n      tag_27\n      jumpi\n      dup1\n      0xf34e3723\n      eq\n      tag_28\n      jumpi\n      jump(tag_2)\n    tag_31:\n      dup1\n      0xa694fc3a\n      eq\n      tag_22\n      jumpi\n      dup1\n      0xa9059cbb\n      eq\n      tag_23\n      jumpi\n      dup1\n      0xd5abeb01\n      eq\n      tag_24\n      jumpi\n      jump(tag_2)\n    tag_30:\n      dup1\n      0x4c496d4f\n      eq\n      tag_16\n      jumpi\n      dup1\n      0x70a08231\n      eq\n      tag_17\n      jumpi\n      dup1\n      0x79ec5d3a\n      eq\n      tag_18\n      jumpi\n      dup1\n      0x817b1cd2\n      eq\n      tag_19\n      jumpi\n      dup1\n      0x95d89b41\n      eq\n      tag_20\n      jumpi\n      dup1\n      0x96b75b1a\n      eq\n      tag_21\n      jumpi\n      jump(tag_2)\n    tag_29:\n      dup1\n      0x23b872dd\n      gt\n      tag_32\n      jumpi\n      dup1\n      0x40c10f19\n      gt\n      tag_33\n      jumpi\n      dup1\n      0x40c10f19\n      eq\n      tag_12\n      jumpi\n      dup1\n      0x42623360\n      eq\n      tag_13\n      jumpi\n      dup1\n      0x42966c68\n      eq\n      tag_14\n      jumpi\n      dup1\n      0x4bf365df\n      eq\n      tag_15\n      jumpi\n      jump(tag_2)\n    tag_33:\n      dup1\n      0x23b872dd\n      eq\n      tag_9\n      jumpi\n      dup1\n      0x2e17de78\n      eq\n      tag_10\n      jumpi\n      dup1\n      0x313ce567\n      eq\n      tag_11\n      jumpi\n      jump(tag_2)\n    tag_32:\n      dup1\n      0x015af8ee\n      eq\n      tag_3\n      jumpi\n      dup1\n      0x06fdde03\n      eq\n      tag_4\n      jumpi\n      dup1\n      0x095ea7b3\n      eq\n      tag_5\n      jumpi\n      dup1\n      0x0d15fd77\n      eq\n      tag_6\n      jumpi\n      dup1\n      0x18160ddd\n      eq\n      tag_7\n      jumpi\n      dup1\n      0x1c1b8772\n      eq\n      tag_8\n      jumpi\n    tag_2:\n      0x00\n      dup1\n      revert\n        /* \"smart_contracts/contracts/Token.sol\":16353:17063  function updateSettings(uint256 _bpFeeBurn, uint256 _bpFeeBank) external onlyAdmin returns (bool) {... */\n    tag_3:\n      tag_34\n      0x04\n      dup1\n      calldatasize\n      sub\n      dup2\n      add\n      swap1\n      tag_35\n      swap2\n      swap1\n      tag_36\n      jump\t// in\n    tag_35:\n      tag_37\n      jump\t// in\n    tag_34:\n      mload(0x40)\n      tag_38\n      swap2\n      swap1\n      tag_39\n      jump\t// in\n    tag_38:\n      mload(0x40)\n      dup1\n      swap2\n      sub\n      swap1\n      return\n        /* \"smart_contracts/contracts/Token.sol\":17288:17361  function name() external view returns (string memory) {return meta.name;} */\n    tag_4:\n      tag_40\n      tag_41\n      jump\t// in\n    tag_40:\n      mload(0x40)\n      tag_42\n      swap2\n      swap1\n      tag_43\n      jump\t// in\n    tag_42:\n      mload(0x40)\n      dup1\n      swap2\n      sub\n      swap1\n      return\n        /* \"smart_contracts/contracts/Token.sol\":14898:15230  function approve(address _spender, uint256 _value) external returns (bool) {... */\n    tag_5:\n      tag_44\n      0x04\n      dup1\n      calldatasize\n      sub\n      dup2\n      add\n      swap1\n      tag_45\n      swap2\n      swap1\n      tag_46\n      jump\t// in\n    tag_45:\n      tag_47\n      jump\t// in\n    tag_44:\n      mload(0x40)\n      tag_48\n      swap2\n      swap1\n      tag_39\n      jump\t// in\n    tag_48:\n      mload(0x40)\n      dup1\n      swap2\n      sub\n      swap1\n      return\n        /* \"smart_contracts/contracts/Token.sol\":17526:17605  function totalVotes() external view returns (uint256) {return meta.totalVotes;} */\n    tag_6:\n      tag_49\n      tag_50\n      jump\t// in\n    tag_49:\n      mload(0x40)\n      tag_51\n      swap2\n      swap1\n      tag_52\n      jump\t// in\n    tag_51:\n      mload(0x40)\n      dup1\n      swap2\n      sub\n      swap1\n      return\n        /* \"smart_contracts/contracts/Token.sol\":17696:17777  function totalSupply() external view returns (uint256) {return meta.totalSupply;} */\n    tag_7:\n      tag_53\n      tag_54\n      jump\t// in\n    tag_53:\n      mload(0x40)\n      tag_55\n      swap2\n      swap1\n      tag_52\n      jump\t// in\n    tag_55:\n      mload(0x40)\n      dup1\n      swap2\n      sub\n      swap1\n      return\n        /* \"smart_contracts/contracts/Token.sol\":17069:17282  function update(address _vault) external onlyAdmin returns (bool) {... */\n    tag_8:\n      tag_56\n      0x04\n      dup1\n      calldatasize\n      sub\n      dup2\n      add\n      swap1\n      tag_57\n      swap2\n      swap1\n      tag_58\n      jump\t// in\n    tag_57:\n      tag_59\n      jump\t// in\n    tag_56:\n      mload(0x40)\n      tag_60\n      swap2\n      swap1\n      tag_39\n      jump\t// in\n    tag_60:\n      mload(0x40)\n      dup1\n      swap2\n      sub\n      swap1\n      return\n        /* \"smart_contracts/contracts/Token.sol\":12340:12951  function transferFrom(address _from, address _to, uint256 _value) external returns (bool) {... */\n    tag_9:\n      tag_61\n      0x04\n      dup1\n      calldatasize\n      sub\n      dup2\n      add\n      swap1\n      tag_62\n      swap2\n      swap1\n      tag_63\n      jump\t// in\n    tag_62:\n      tag_64\n      jump\t// in\n    tag_61:\n      mload(0x40)\n      tag_65\n      swap2\n      swap1\n      tag_39\n      jump\t// in\n    tag_65:\n      mload(0x40)\n      dup1\n      swap2\n      sub\n      swap1\n      return\n        /* \"smart_contracts/contracts/Token.sol\":13554:14197  function unstake(uint256 _value) external returns (bool) {... */\n    tag_10:\n      tag_66\n      0x04\n      dup1\n      calldatasize\n      sub\n      dup2\n      add\n      swap1\n      tag_67\n      swap2\n      swap1\n      tag_68\n      jump\t// in\n    tag_67:\n      tag_69\n      jump\t// in\n    tag_66:\n      mload(0x40)\n      tag_70\n      swap2\n      swap1\n      tag_39\n      jump\t// in\n    tag_70:\n      mload(0x40)\n      dup1\n      swap2\n      sub\n      swap1\n      return\n        /* \"smart_contracts/contracts/Token.sol\":17448:17521  function decimals() external view returns (uint8) {return meta.decimals;} */\n    tag_11:\n      tag_71\n      tag_72\n      jump\t// in\n    tag_71:\n      mload(0x40)\n      tag_73\n      swap2\n      swap1\n      tag_74\n      jump\t// in\n    tag_73:\n      mload(0x40)\n      dup1\n      swap2\n      sub\n      swap1\n      return\n        /* \"smart_contracts/contracts/Token.sol\":15236:15348  function mint(address _to, uint256 _value) external onlyAdmin returns (bool) {... */\n    tag_12:\n      tag_75\n      0x04\n      dup1\n      calldatasize\n      sub\n      dup2\n      add\n      swap1\n      tag_76\n      swap2\n      swap1\n      tag_46\n      jump\t// in\n    tag_76:\n      tag_77\n      jump\t// in\n    tag_75:\n      mload(0x40)\n      tag_78\n      swap2\n      swap1\n      tag_39\n      jump\t// in\n    tag_78:\n      mload(0x40)\n      dup1\n      swap2\n      sub\n      swap1\n      return\n        /* \"smart_contracts/contracts/Token.sol\":18041:18130  function stakeOf(address _owner) external view returns (uint256) {return staked[_owner];} */\n    tag_13:\n      tag_79\n      0x04\n      dup1\n      calldatasize\n      sub\n      dup2\n      add\n      swap1\n      tag_80\n      swap2\n      swap1\n      tag_58\n      jump\t// in\n    tag_80:\n      tag_81\n      jump\t// in\n    tag_79:\n      mload(0x40)\n      tag_82\n      swap2\n      swap1\n      tag_52\n      jump\t// in\n    tag_82:\n      mload(0x40)\n      dup1\n      swap2\n      sub\n      swap1\n      return\n        /* \"smart_contracts/contracts/Token.sol\":15558:15695  function burn(uint256 _value) external onlyAdmin returns (bool) {... */\n    tag_14:\n      tag_83\n      0x04\n      dup1\n      calldatasize\n      sub\n      dup2\n      add\n      swap1\n      tag_84\n      swap2\n      swap1\n      tag_68\n      jump\t// in\n    tag_84:\n      tag_85\n      jump\t// in\n    tag_83:\n      mload(0x40)\n      tag_86\n      swap2\n      swap1\n      tag_39\n      jump\t// in\n    tag_86:\n      mload(0x40)\n      dup1\n      swap2\n      sub\n      swap1\n      return\n        /* \"smart_contracts/contracts/Token.sol\":17864:17939  function mintable() external view returns (uint256) {return meta.mintable;} */\n    tag_15:\n      tag_87\n      tag_88\n      jump\t// in\n    tag_87:\n      mload(0x40)\n      tag_89\n      swap2\n      swap1\n      tag_52\n      jump\t// in\n    tag_89:\n      mload(0x40)\n      dup1\n      swap2\n      sub\n      swap1\n      return\n        /* \"smart_contracts/contracts/Token.sol\":15701:16347  function fetchSettings() external onlyAdmin returns (uint256, uint256, uint256, uint256, uint256, uint256) {... */\n    tag_16:\n      tag_90\n      tag_91\n      jump\t// in\n    tag_90:\n      mload(0x40)\n      tag_92\n      swap7\n      swap6\n      swap5\n      swap4\n      swap3\n      swap2\n      swap1\n      tag_93\n      jump\t// in\n    tag_92:\n      mload(0x40)\n      dup1\n      swap2\n      sub\n      swap1\n      return\n        /* \"smart_contracts/contracts/Token.sol\":17944:18036  function balanceOf(address _owner) external view returns (uint256) {return balance[_owner];} */\n    tag_17:\n      tag_94\n      0x04\n      dup1\n      calldatasize\n      sub\n      dup2\n      add\n      swap1\n      tag_95\n      swap2\n      swap1\n      tag_58\n      jump\t// in\n    tag_95:\n      tag_96\n      jump\t// in\n    tag_94:\n      mload(0x40)\n      tag_97\n      swap2\n      swap1\n      tag_52\n      jump\t// in\n    tag_97:\n      mload(0x40)\n      dup1\n      swap2\n      sub\n      swap1\n      return\n        /* \"smart_contracts/contracts/Token.sol\":18135:18223  function votesOf(address _owner) external view returns (uint256) {return votes[_owner];} */\n    tag_18:\n      tag_98\n      0x04\n      dup1\n      calldatasize\n      sub\n      dup2\n      add\n      swap1\n      tag_99\n      swap2\n      swap1\n      tag_58\n      jump\t// in\n    tag_99:\n      tag_100\n      jump\t// in\n    tag_98:\n      mload(0x40)\n      tag_101\n      swap2\n      swap1\n      tag_52\n      jump\t// in\n    tag_101:\n      mload(0x40)\n      dup1\n      swap2\n      sub\n      swap1\n      return\n        /* \"smart_contracts/contracts/Token.sol\":17610:17691  function totalStaked() external view returns (uint256) {return meta.totalStaked;} */\n    tag_19:\n      tag_102\n      tag_103\n      jump\t// in\n    tag_102:\n      mload(0x40)\n      tag_104\n      swap2\n      swap1\n      tag_52\n      jump\t// in\n    tag_104:\n      mload(0x40)\n      dup1\n      swap2\n      sub\n      swap1\n      return\n        /* \"smart_contracts/contracts/Token.sol\":17366:17443  function symbol() external view returns (string memory) {return meta.symbol;} */\n    tag_20:\n      tag_105\n      tag_106\n      jump\t// in\n    tag_105:\n      mload(0x40)\n      tag_107\n      swap2\n      swap1\n      tag_43\n      jump\t// in\n    tag_107:\n      mload(0x40)\n      dup1\n      swap2\n      sub\n      swap1\n      return\n        /* \"smart_contracts/contracts/Token.sol\":3370:3604  function grantPermissionAdmin(address _owner) public onlyAdmin returns (bool) {... */\n    tag_21:\n      tag_108\n      0x04\n      dup1\n      calldatasize\n      sub\n      dup2\n      add\n      swap1\n      tag_109\n      swap2\n      swap1\n      tag_58\n      jump\t// in\n    tag_109:\n      tag_110\n      jump\t// in\n    tag_108:\n      mload(0x40)\n      tag_111\n      swap2\n      swap1\n      tag_39\n      jump\t// in\n    tag_111:\n      mload(0x40)\n      dup1\n      swap2\n      sub\n      swap1\n      return\n        /* \"smart_contracts/contracts/Token.sol\":12957:13548  function stake(uint256 _value) external returns (bool) {... */\n    tag_22:\n      tag_112\n      0x04\n      dup1\n      calldatasize\n      sub\n      dup2\n      add\n      swap1\n      tag_113\n      swap2\n      swap1\n      tag_68\n      jump\t// in\n    tag_113:\n      tag_114\n      jump\t// in\n    tag_112:\n      mload(0x40)\n      tag_115\n      swap2\n      swap1\n      tag_39\n      jump\t// in\n    tag_115:\n      mload(0x40)\n      dup1\n      swap2\n      sub\n      swap1\n      return\n        /* \"smart_contracts/contracts/Token.sol\":11922:12334  function transfer(address _to, uint256 _value) external returns (bool) {... */\n    tag_23:\n      tag_116\n      0x04\n      dup1\n      calldatasize\n      sub\n      dup2\n      add\n      swap1\n      tag_117\n      swap2\n      swap1\n      tag_46\n      jump\t// in\n    tag_117:\n      tag_118\n      jump\t// in\n    tag_116:\n      mload(0x40)\n      tag_119\n      swap2\n      swap1\n      tag_39\n      jump\t// in\n    tag_119:\n      mload(0x40)\n      dup1\n      swap2\n      sub\n      swap1\n      return\n        /* \"smart_contracts/contracts/Token.sol\":17782:17859  function maxSupply() external view returns (uint256) {return meta.maxSupply;} */\n    tag_24:\n      tag_120\n      tag_121\n      jump\t// in\n    tag_120:\n      mload(0x40)\n      tag_122\n      swap2\n      swap1\n      tag_52\n      jump\t// in\n    tag_122:\n      mload(0x40)\n      dup1\n      swap2\n      sub\n      swap1\n      return\n        /* \"smart_contracts/contracts/Token.sol\":3610:3847  function revokePermissionAdmin(address _owner) public onlyAdmin returns (bool) {... */\n    tag_25:\n      tag_123\n      0x04\n      dup1\n      calldatasize\n      sub\n      dup2\n      add\n      swap1\n      tag_124\n      swap2\n      swap1\n      tag_58\n      jump\t// in\n    tag_124:\n      tag_125\n      jump\t// in\n    tag_123:\n      mload(0x40)\n      tag_126\n      swap2\n      swap1\n      tag_39\n      jump\t// in\n    tag_126:\n      mload(0x40)\n      dup1\n      swap2\n      sub\n      swap1\n      return\n        /* \"smart_contracts/contracts/Token.sol\":18228:18358  function allowance(address _owner, address _spender) external view returns (uint256 remaining) {return allowed[_owner][_spender];} */\n    tag_26:\n      tag_127\n      0x04\n      dup1\n      calldatasize\n      sub\n      dup2\n      add\n      swap1\n      tag_128\n      swap2\n      swap1\n      tag_129\n      jump\t// in\n    tag_128:\n      tag_130\n      jump\t// in\n    tag_127:\n      mload(0x40)\n      tag_131\n      swap2\n      swap1\n      tag_52\n      jump\t// in\n    tag_131:\n      mload(0x40)\n      dup1\n      swap2\n      sub\n      swap1\n      return\n        /* \"smart_contracts/contracts/Token.sol\":15354:15552  function mintWithVesting(address _to, uint256 _value, uint256 _duration, string memory _caption) external onlyAdmin returns (bool) {... */\n    tag_27:\n      tag_132\n      0x04\n      dup1\n      calldatasize\n      sub\n      dup2\n      add\n      swap1\n      tag_133\n      swap2\n      swap1\n      tag_134\n      jump\t// in\n    tag_133:\n      tag_135\n      jump\t// in\n    tag_132:\n      mload(0x40)\n      tag_136\n      swap2\n      swap1\n      tag_39\n      jump\t// in\n    tag_136:\n      mload(0x40)\n      dup1\n      swap2\n      sub\n      swap1\n      return\n        /* \"smart_contracts/contracts/Token.sol\":14203:14892  function release(string memory _caption) external returns (bool) {... */\n    tag_28:\n      tag_137\n      0x04\n      dup1\n      calldatasize\n      sub\n      dup2\n      add\n      swap1\n      tag_138\n      swap2\n      swap1\n      tag_139\n      jump\t// in\n    tag_138:\n      tag_140\n      jump\t// in\n    tag_137:\n      mload(0x40)\n      tag_141\n      swap2\n      swap1\n      tag_39\n      jump\t// in\n    tag_141:\n      mload(0x40)\n      dup1\n      swap2\n      sub\n      swap1\n      return\n        /* \"smart_contracts/contracts/Token.sol\":16353:17063  function updateSettings(uint256 _bpFeeBurn, uint256 _bpFeeBank) external onlyAdmin returns (bool) {... */\n    tag_37:\n        /* \"smart_contracts/contracts/Token.sol\":16445:16449  bool */\n      0x00\n        /* \"smart_contracts/contracts/Token.sol\":3229:3244  address _sender */\n      dup1\n        /* \"smart_contracts/contracts/Token.sol\":3247:3257  msg.sender */\n      caller\n        /* \"smart_contracts/contracts/Token.sol\":3229:3257  address _sender = msg.sender */\n      swap1\n      pop\n        /* \"smart_contracts/contracts/Token.sol\":3306:3311  false */\n      0x00\n        /* \"smart_contracts/contracts/Token.sol\":3288:3311  admin[_sender] != false */\n      iszero\n      iszero\n        /* \"smart_contracts/contracts/Token.sol\":3288:3293  admin */\n      0x00\n        /* \"smart_contracts/contracts/Token.sol\":3288:3302  admin[_sender] */\n      dup1\n        /* \"smart_contracts/contracts/Token.sol\":3294:3301  _sender */\n      dup4\n        /* \"smart_contracts/contracts/Token.sol\":3288:3302  admin[_sender] */\n      0xffffffffffffffffffffffffffffffffffffffff\n      and\n      0xffffffffffffffffffffffffffffffffffffffff\n      and\n      dup2\n      mstore\n      0x20\n      add\n      swap1\n      dup2\n      mstore\n      0x20\n      add\n      0x00\n      keccak256\n      0x00\n      swap1\n      sload\n      swap1\n      0x0100\n      exp\n      swap1\n      div\n      0xff\n      and\n        /* \"smart_contracts/contracts/Token.sol\":3288:3311  admin[_sender] != false */\n      iszero\n      iszero\n      sub\n        /* \"smart_contracts/contracts/Token.sol\":3267:3346  require(... */\n      tag_144\n      jumpi\n      mload(0x40)\n      0x08c379a000000000000000000000000000000000000000000000000000000000\n      dup2\n      mstore\n      0x04\n      add\n      tag_145\n      swap1\n      tag_146\n      jump\t// in\n    tag_145:\n      mload(0x40)\n      dup1\n      swap2\n      sub\n      swap1\n      revert\n    tag_144:\n        /* \"smart_contracts/contracts/Token.sol\":16461:16482  uint256 _bpFeeBurnMin */\n      0x00\n        /* \"smart_contracts/contracts/Token.sol\":16485:16493  settings */\n      0x01\n        /* \"smart_contracts/contracts/Token.sol\":16485:16511  settings.bpTransferBurnMin */\n      0x00\n      add\n      sload\n        /* \"smart_contracts/contracts/Token.sol\":16461:16511  uint256 _bpFeeBurnMin = settings.bpTransferBurnMin */\n      swap1\n      pop\n        /* \"smart_contracts/contracts/Token.sol\":16521:16542  uint256 _bpFeeBankMin */\n      0x00\n        /* \"smart_contracts/contracts/Token.sol\":16545:16553  settings */\n      0x01\n        /* \"smart_contracts/contracts/Token.sol\":16545:16571  settings.bpTransferBankMin */\n      dup1\n      add\n      sload\n        /* \"smart_contracts/contracts/Token.sol\":16521:16571  uint256 _bpFeeBankMin = settings.bpTransferBankMin */\n      swap1\n      pop\n        /* \"smart_contracts/contracts/Token.sol\":16581:16602  uint256 _bpFeeBurnMax */\n      0x00\n        /* \"smart_contracts/contracts/Token.sol\":16605:16613  settings */\n      0x01\n        /* \"smart_contracts/contracts/Token.sol\":16605:16631  settings.bpTransferBurnMax */\n      0x02\n      add\n      sload\n        /* \"smart_contracts/contracts/Token.sol\":16581:16631  uint256 _bpFeeBurnMax = settings.bpTransferBurnMax */\n      swap1\n      pop\n        /* \"smart_contracts/contracts/Token.sol\":16641:16662  uint256 _bpFeeBankMax */\n      0x00\n        /* \"smart_contracts/contracts/Token.sol\":16665:16673  settings */\n      0x01\n        /* \"smart_contracts/contracts/Token.sol\":16665:16691  settings.bpTransferBankMax */\n      0x03\n      add\n      sload\n        /* \"smart_contracts/contracts/Token.sol\":16641:16691  uint256 _bpFeeBankMax = settings.bpTransferBankMax */\n      swap1\n      pop\n        /* \"smart_contracts/contracts/Token.sol\":16736:16749  _bpFeeBurnMin */\n      dup4\n        /* \"smart_contracts/contracts/Token.sol\":16722:16732  _bpFeeBurn */\n      dup9\n        /* \"smart_contracts/contracts/Token.sol\":16722:16749  _bpFeeBurn >= _bpFeeBurnMin */\n      lt\n      iszero\n        /* \"smart_contracts/contracts/Token.sol\":16722:16792  _bpFeeBurn >= _bpFeeBurnMin &&... */\n      dup1\n      iszero\n      tag_148\n      jumpi\n      pop\n        /* \"smart_contracts/contracts/Token.sol\":16779:16792  _bpFeeBurnMax */\n      dup2\n        /* \"smart_contracts/contracts/Token.sol\":16765:16775  _bpFeeBurn */\n      dup9\n        /* \"smart_contracts/contracts/Token.sol\":16765:16792  _bpFeeBurn <= _bpFeeBurnMax */\n      gt\n      iszero\n        /* \"smart_contracts/contracts/Token.sol\":16722:16792  _bpFeeBurn >= _bpFeeBurnMin &&... */\n    tag_148:\n        /* \"smart_contracts/contracts/Token.sol\":16722:16835  _bpFeeBurn >= _bpFeeBurnMin &&... */\n      dup1\n      iszero\n      tag_149\n      jumpi\n      pop\n        /* \"smart_contracts/contracts/Token.sol\":16822:16835  _bpFeeBankMin */\n      dup3\n        /* \"smart_contracts/contracts/Token.sol\":16808:16818  _bpFeeBank */\n      dup8\n        /* \"smart_contracts/contracts/Token.sol\":16808:16835  _bpFeeBank >= _bpFeeBankMin */\n      lt\n      iszero\n        /* \"smart_contracts/contracts/Token.sol\":16722:16835  _bpFeeBurn >= _bpFeeBurnMin &&... */\n    tag_149:\n        /* \"smart_contracts/contracts/Token.sol\":16722:16878  _bpFeeBurn >= _bpFeeBurnMin &&... */\n      dup1\n      iszero\n      tag_150\n      jumpi\n      pop\n        /* \"smart_contracts/contracts/Token.sol\":16865:16878  _bpFeeBankMax */\n      dup1\n        /* \"smart_contracts/contracts/Token.sol\":16851:16861  _bpFeeBank */\n      dup8\n        /* \"smart_contracts/contracts/Token.sol\":16851:16878  _bpFeeBank <= _bpFeeBankMax */\n      gt\n      iszero\n        /* \"smart_contracts/contracts/Token.sol\":16722:16878  _bpFeeBurn >= _bpFeeBurnMin &&... */\n    tag_150:\n        /* \"smart_contracts/contracts/Token.sol\":16701:16888  require(... */\n      tag_151\n      jumpi\n      0x00\n      dup1\n      revert\n    tag_151:\n        /* \"smart_contracts/contracts/Token.sol\":16924:16934  _bpFeeBurn */\n      dup8\n        /* \"smart_contracts/contracts/Token.sol\":16898:16906  settings */\n      0x01\n        /* \"smart_contracts/contracts/Token.sol\":16898:16921  settings.bpTransferBurn */\n      0x04\n      add\n        /* \"smart_contracts/contracts/Token.sol\":16898:16934  settings.bpTransferBurn = _bpFeeBurn */\n      dup2\n      swap1\n      sstore\n      pop\n        /* \"smart_contracts/contracts/Token.sol\":16970:16980  _bpFeeBank */\n      dup7\n        /* \"smart_contracts/contracts/Token.sol\":16944:16952  settings */\n      0x01\n        /* \"smart_contracts/contracts/Token.sol\":16944:16967  settings.bpTransferBank */\n      0x05\n      add\n        /* \"smart_contracts/contracts/Token.sol\":16944:16980  settings.bpTransferBank = _bpFeeBank */\n      dup2\n      swap1\n      sstore\n      pop\n        /* \"smart_contracts/contracts/Token.sol\":16995:17035  UpdateToSettings(_bpFeeBurn, _bpFeeBank) */\n      0xf710d5c0fed44aca6b7e44715976f68b87187f4a4d505f8c14731a5c3906e9b9\n        /* \"smart_contracts/contracts/Token.sol\":17012:17022  _bpFeeBurn */\n      dup9\n        /* \"smart_contracts/contracts/Token.sol\":17024:17034  _bpFeeBank */\n      dup9\n        /* \"smart_contracts/contracts/Token.sol\":16995:17035  UpdateToSettings(_bpFeeBurn, _bpFeeBank) */\n      mload(0x40)\n      tag_152\n      swap3\n      swap2\n      swap1\n      tag_153\n      jump\t// in\n    tag_152:\n      mload(0x40)\n      dup1\n      swap2\n      sub\n      swap1\n      log1\n        /* \"smart_contracts/contracts/Token.sol\":17052:17056  true */\n      0x01\n        /* \"smart_contracts/contracts/Token.sol\":17045:17056  return true */\n      swap6\n      pop\n      pop\n      pop\n      pop\n      pop\n        /* \"smart_contracts/contracts/Token.sol\":3219:3364  {... */\n      pop\n        /* \"smart_contracts/contracts/Token.sol\":16353:17063  function updateSettings(uint256 _bpFeeBurn, uint256 _bpFeeBank) external onlyAdmin returns (bool) {... */\n      swap3\n      swap2\n      pop\n      pop\n      jump\t// out\n        /* \"smart_contracts/contracts/Token.sol\":17288:17361  function name() external view returns (string memory) {return meta.name;} */\n    tag_41:\n        /* \"smart_contracts/contracts/Token.sol\":17327:17340  string memory */\n      0x60\n        /* \"smart_contracts/contracts/Token.sol\":17350:17354  meta */\n      0x07\n        /* \"smart_contracts/contracts/Token.sol\":17350:17359  meta.name */\n      0x00\n      add\n        /* \"smart_contracts/contracts/Token.sol\":17343:17359  return meta.name */\n      dup1\n      sload\n      tag_155\n      swap1\n      tag_156\n      jump\t// in\n    tag_155:\n      dup1\n      0x1f\n      add\n      0x20\n      dup1\n      swap2\n      div\n      mul\n      0x20\n      add\n      mload(0x40)\n      swap1\n      dup2\n      add\n      0x40\n      mstore\n      dup1\n      swap3\n      swap2\n      swap1\n      dup2\n      dup2\n      mstore\n      0x20\n      add\n      dup3\n      dup1\n      sload\n      tag_157\n      swap1\n      tag_156\n      jump\t// in\n    tag_157:\n      dup1\n      iszero\n      tag_158\n      jumpi\n      dup1\n      0x1f\n      lt\n      tag_159\n      jumpi\n      0x0100\n      dup1\n      dup4\n      sload\n      div\n      mul\n      dup4\n      mstore\n      swap2\n      0x20\n      add\n      swap2\n      jump(tag_158)\n    tag_159:\n      dup3\n      add\n      swap2\n      swap1\n      0x00\n      mstore\n      keccak256(0x00, 0x20)\n      swap1\n    tag_160:\n      dup2\n      sload\n      dup2\n      mstore\n      swap1\n      0x01\n      add\n      swap1\n      0x20\n      add\n      dup1\n      dup4\n      gt\n      tag_160\n      jumpi\n      dup3\n      swap1\n      sub\n      0x1f\n      and\n      dup3\n      add\n      swap2\n    tag_158:\n      pop\n      pop\n      pop\n      pop\n      pop\n      swap1\n      pop\n        /* \"smart_contracts/contracts/Token.sol\":17288:17361  function name() external view returns (string memory) {return meta.name;} */\n      swap1\n      jump\t// out\n        /* \"smart_contracts/contracts/Token.sol\":14898:15230  function approve(address _spender, uint256 _value) external returns (bool) {... */\n    tag_47:\n        /* \"smart_contracts/contracts/Token.sol\":14967:14971  bool */\n      0x00\n        /* \"smart_contracts/contracts/Token.sol\":14983:14997  address _owner */\n      dup1\n        /* \"smart_contracts/contracts/Token.sol\":15000:15010  msg.sender */\n      caller\n        /* \"smart_contracts/contracts/Token.sol\":14983:15010  address _owner = msg.sender */\n      swap1\n      pop\n        /* \"smart_contracts/contracts/Token.sol\":15059:15060  0 */\n      0x00\n        /* \"smart_contracts/contracts/Token.sol\":15041:15061  _owner != address(0) */\n      0xffffffffffffffffffffffffffffffffffffffff\n      and\n        /* \"smart_contracts/contracts/Token.sol\":15041:15047  _owner */\n      dup2\n        /* \"smart_contracts/contracts/Token.sol\":15041:15061  _owner != address(0) */\n      0xffffffffffffffffffffffffffffffffffffffff\n      and\n      eq\n      iszero\n        /* \"smart_contracts/contracts/Token.sol\":15041:15099  _owner != address(0) &&... */\n      dup1\n      iszero\n      tag_162\n      jumpi\n      pop\n        /* \"smart_contracts/contracts/Token.sol\":15097:15098  0 */\n      0x00\n        /* \"smart_contracts/contracts/Token.sol\":15077:15099  _spender != address(0) */\n      0xffffffffffffffffffffffffffffffffffffffff\n      and\n        /* \"smart_contracts/contracts/Token.sol\":15077:15085  _spender */\n      dup5\n        /* \"smart_contracts/contracts/Token.sol\":15077:15099  _spender != address(0) */\n      0xffffffffffffffffffffffffffffffffffffffff\n      and\n      eq\n      iszero\n        /* \"smart_contracts/contracts/Token.sol\":15041:15099  _owner != address(0) &&... */\n    tag_162:\n        /* \"smart_contracts/contracts/Token.sol\":15020:15109  require(... */\n      tag_163\n      jumpi\n      0x00\n      dup1\n      revert\n    tag_163:\n        /* \"smart_contracts/contracts/Token.sol\":15147:15153  _value */\n      dup3\n        /* \"smart_contracts/contracts/Token.sol\":15119:15126  allowed */\n      0x14\n        /* \"smart_contracts/contracts/Token.sol\":15119:15134  allowed[_owner] */\n      0x00\n        /* \"smart_contracts/contracts/Token.sol\":15127:15133  _owner */\n      dup4\n        /* \"smart_contracts/contracts/Token.sol\":15119:15134  allowed[_owner] */\n      0xffffffffffffffffffffffffffffffffffffffff\n      and\n      0xffffffffffffffffffffffffffffffffffffffff\n      and\n      dup2\n      mstore\n      0x20\n      add\n      swap1\n      dup2\n      mstore\n      0x20\n      add\n      0x00\n      keccak256\n        /* \"smart_contracts/contracts/Token.sol\":15119:15144  allowed[_owner][_spender] */\n      0x00\n        /* \"smart_contracts/contracts/Token.sol\":15135:15143  _spender */\n      dup7\n        /* \"smart_contracts/contracts/Token.sol\":15119:15144  allowed[_owner][_spender] */\n      0xffffffffffffffffffffffffffffffffffffffff\n      and\n      0xffffffffffffffffffffffffffffffffffffffff\n      and\n      dup2\n      mstore\n      0x20\n      add\n      swap1\n      dup2\n      mstore\n      0x20\n      add\n      0x00\n      keccak256\n        /* \"smart_contracts/contracts/Token.sol\":15119:15153  allowed[_owner][_spender] = _value */\n      dup2\n      swap1\n      sstore\n      pop\n        /* \"smart_contracts/contracts/Token.sol\":15185:15193  _spender */\n      dup4\n        /* \"smart_contracts/contracts/Token.sol\":15168:15202  Approval(_owner, _spender, _value) */\n      0xffffffffffffffffffffffffffffffffffffffff\n      and\n        /* \"smart_contracts/contracts/Token.sol\":15177:15183  _owner */\n      dup2\n        /* \"smart_contracts/contracts/Token.sol\":15168:15202  Approval(_owner, _spender, _value) */\n      0xffffffffffffffffffffffffffffffffffffffff\n      and\n      0x8c5be1e5ebec7d5bd14f71427d1e84f3dd0314c0f7b2291e5b200ac8c7c3b925\n        /* \"smart_contracts/contracts/Token.sol\":15195:15201  _value */\n      dup6\n        /* \"smart_contracts/contracts/Token.sol\":15168:15202  Approval(_owner, _spender, _value) */\n      mload(0x40)\n      tag_164\n      swap2\n      swap1\n      tag_52\n      jump\t// in\n    tag_164:\n      mload(0x40)\n      dup1\n      swap2\n      sub\n      swap1\n      log3\n        /* \"smart_contracts/contracts/Token.sol\":15219:15223  true */\n      0x01\n        /* \"smart_contracts/contracts/Token.sol\":15212:15223  return true */\n      swap2\n      pop\n      pop\n        /* \"smart_contracts/contracts/Token.sol\":14898:15230  function approve(address _spender, uint256 _value) external returns (bool) {... */\n      swap3\n      swap2\n      pop\n      pop\n      jump\t// out\n        /* \"smart_contracts/contracts/Token.sol\":17526:17605  function totalVotes() external view returns (uint256) {return meta.totalVotes;} */\n    tag_50:\n        /* \"smart_contracts/contracts/Token.sol\":17571:17578  uint256 */\n      0x00\n        /* \"smart_contracts/contracts/Token.sol\":17588:17592  meta */\n      0x07\n        /* \"smart_contracts/contracts/Token.sol\":17588:17603  meta.totalVotes */\n      dup1\n      add\n      sload\n        /* \"smart_contracts/contracts/Token.sol\":17581:17603  return meta.totalVotes */\n      swap1\n      pop\n        /* \"smart_contracts/contracts/Token.sol\":17526:17605  function totalVotes() external view returns (uint256) {return meta.totalVotes;} */\n      swap1\n      jump\t// out\n        /* \"smart_contracts/contracts/Token.sol\":17696:17777  function totalSupply() external view returns (uint256) {return meta.totalSupply;} */\n    tag_54:\n        /* \"smart_contracts/contracts/Token.sol\":17742:17749  uint256 */\n      0x00\n        /* \"smart_contracts/contracts/Token.sol\":17759:17763  meta */\n      0x07\n        /* \"smart_contracts/contracts/Token.sol\":17759:17775  meta.totalSupply */\n      0x04\n      add\n      sload\n        /* \"smart_contracts/contracts/Token.sol\":17752:17775  return meta.totalSupply */\n      swap1\n      pop\n        /* \"smart_contracts/contracts/Token.sol\":17696:17777  function totalSupply() external view returns (uint256) {return meta.totalSupply;} */\n      swap1\n      jump\t// out\n        /* \"smart_contracts/contracts/Token.sol\":17069:17282  function update(address _vault) external onlyAdmin returns (bool) {... */\n    tag_59:\n        /* \"smart_contracts/contracts/Token.sol\":17129:17133  bool */\n      0x00\n        /* \"smart_contracts/contracts/Token.sol\":3229:3244  address _sender */\n      dup1\n        /* \"smart_contracts/contracts/Token.sol\":3247:3257  msg.sender */\n      caller\n        /* \"smart_contracts/contracts/Token.sol\":3229:3257  address _sender = msg.sender */\n      swap1\n      pop\n        /* \"smart_contracts/contracts/Token.sol\":3306:3311  false */\n      0x00\n        /* \"smart_contracts/contracts/Token.sol\":3288:3311  admin[_sender] != false */\n      iszero\n      iszero\n        /* \"smart_contracts/contracts/Token.sol\":3288:3293  admin */\n      0x00\n        /* \"smart_contracts/contracts/Token.sol\":3288:3302  admin[_sender] */\n      dup1\n        /* \"smart_contracts/contracts/Token.sol\":3294:3301  _sender */\n      dup4\n        /* \"smart_contracts/contracts/Token.sol\":3288:3302  admin[_sender] */\n      0xffffffffffffffffffffffffffffffffffffffff\n      and\n      0xffffffffffffffffffffffffffffffffffffffff\n      and\n      dup2\n      mstore\n      0x20\n      add\n      swap1\n      dup2\n      mstore\n      0x20\n      add\n      0x00\n      keccak256\n      0x00\n      swap1\n      sload\n      swap1\n      0x0100\n      exp\n      swap1\n      div\n      0xff\n      and\n        /* \"smart_contracts/contracts/Token.sol\":3288:3311  admin[_sender] != false */\n      iszero\n      iszero\n      sub\n        /* \"smart_contracts/contracts/Token.sol\":3267:3346  require(... */\n      tag_168\n      jumpi\n      mload(0x40)\n      0x08c379a000000000000000000000000000000000000000000000000000000000\n      dup2\n      mstore\n      0x04\n      add\n      tag_169\n      swap1\n      tag_146\n      jump\t// in\n    tag_169:\n      mload(0x40)\n      dup1\n      swap2\n      sub\n      swap1\n      revert\n    tag_168:\n        /* \"smart_contracts/contracts/Token.sol\":17184:17185  0 */\n      0x00\n        /* \"smart_contracts/contracts/Token.sol\":17166:17186  _vault != address(0) */\n      0xffffffffffffffffffffffffffffffffffffffff\n      and\n        /* \"smart_contracts/contracts/Token.sol\":17166:17172  _vault */\n      dup4\n        /* \"smart_contracts/contracts/Token.sol\":17166:17186  _vault != address(0) */\n      0xffffffffffffffffffffffffffffffffffffffff\n      and\n      sub\n        /* \"smart_contracts/contracts/Token.sol\":17145:17196  require(... */\n      tag_171\n      jumpi\n      0x00\n      dup1\n      revert\n    tag_171:\n        /* \"smart_contracts/contracts/Token.sol\":17219:17225  _vault */\n      dup3\n        /* \"smart_contracts/contracts/Token.sol\":17206:17210  meta */\n      0x07\n        /* \"smart_contracts/contracts/Token.sol\":17206:17216  meta.vault */\n      0x09\n      add\n      0x00\n        /* \"smart_contracts/contracts/Token.sol\":17206:17225  meta.vault = _vault */\n      0x0100\n      exp\n      dup2\n      sload\n      dup2\n      0xffffffffffffffffffffffffffffffffffffffff\n      mul\n      not\n      and\n      swap1\n      dup4\n      0xffffffffffffffffffffffffffffffffffffffff\n      and\n      mul\n      or\n      swap1\n      sstore\n      pop\n        /* \"smart_contracts/contracts/Token.sol\":17247:17253  _vault */\n      dup3\n        /* \"smart_contracts/contracts/Token.sol\":17240:17254  Update(_vault) */\n      0xffffffffffffffffffffffffffffffffffffffff\n      and\n      0xd456720fd185d4060f5cea4d82775d2af95048c1e10f227ec35bae950a4be2a8\n      mload(0x40)\n      mload(0x40)\n      dup1\n      swap2\n      sub\n      swap1\n      log2\n        /* \"smart_contracts/contracts/Token.sol\":17271:17275  true */\n      0x01\n        /* \"smart_contracts/contracts/Token.sol\":17264:17275  return true */\n      swap2\n      pop\n        /* \"smart_contracts/contracts/Token.sol\":3219:3364  {... */\n      pop\n        /* \"smart_contracts/contracts/Token.sol\":17069:17282  function update(address _vault) external onlyAdmin returns (bool) {... */\n      swap2\n      swap1\n      pop\n      jump\t// out\n        /* \"smart_contracts/contracts/Token.sol\":12340:12951  function transferFrom(address _from, address _to, uint256 _value) external returns (bool) {... */\n    tag_64:\n        /* \"smart_contracts/contracts/Token.sol\":12424:12428  bool */\n      0x00\n        /* \"smart_contracts/contracts/Token.sol\":12440:12458  uint256 _allowance */\n      dup1\n        /* \"smart_contracts/contracts/Token.sol\":12461:12468  allowed */\n      0x14\n        /* \"smart_contracts/contracts/Token.sol\":12461:12475  allowed[_from] */\n      0x00\n        /* \"smart_contracts/contracts/Token.sol\":12469:12474  _from */\n      dup7\n        /* \"smart_contracts/contracts/Token.sol\":12461:12475  allowed[_from] */\n      0xffffffffffffffffffffffffffffffffffffffff\n      and\n      0xffffffffffffffffffffffffffffffffffffffff\n      and\n      dup2\n      mstore\n      0x20\n      add\n      swap1\n      dup2\n      mstore\n      0x20\n      add\n      0x00\n      keccak256\n        /* \"smart_contracts/contracts/Token.sol\":12461:12487  allowed[_from][msg.sender] */\n      0x00\n        /* \"smart_contracts/contracts/Token.sol\":12476:12486  msg.sender */\n      caller\n        /* \"smart_contracts/contracts/Token.sol\":12461:12487  allowed[_from][msg.sender] */\n      0xffffffffffffffffffffffffffffffffffffffff\n      and\n      0xffffffffffffffffffffffffffffffffffffffff\n      and\n      dup2\n      mstore\n      0x20\n      add\n      swap1\n      dup2\n      mstore\n      0x20\n      add\n      0x00\n      keccak256\n      sload\n        /* \"smart_contracts/contracts/Token.sol\":12440:12487  uint256 _allowance = allowed[_from][msg.sender] */\n      swap1\n      pop\n        /* \"smart_contracts/contracts/Token.sol\":12532:12549  type(uint256).max */\n      0xffffffffffffffffffffffffffffffffffffffffffffffffffffffffffffffff\n        /* \"smart_contracts/contracts/Token.sol\":12518:12528  _allowance */\n      dup2\n        /* \"smart_contracts/contracts/Token.sol\":12518:12549  _allowance != type(uint256).max */\n      eq\n      iszero\n        /* \"smart_contracts/contracts/Token.sol\":12518:12585  _allowance != type(uint256).max &&... */\n      dup1\n      iszero\n      tag_173\n      jumpi\n      pop\n        /* \"smart_contracts/contracts/Token.sol\":12579:12585  _value */\n      dup3\n        /* \"smart_contracts/contracts/Token.sol\":12565:12575  _allowance */\n      dup2\n        /* \"smart_contracts/contracts/Token.sol\":12565:12585  _allowance >= _value */\n      lt\n      iszero\n        /* \"smart_contracts/contracts/Token.sol\":12518:12585  _allowance != type(uint256).max &&... */\n    tag_173:\n        /* \"smart_contracts/contracts/Token.sol\":12497:12595  require(... */\n      tag_174\n      jumpi\n      0x00\n      dup1\n      revert\n    tag_174:\n        /* \"smart_contracts/contracts/Token.sol\":12635:12641  _value */\n      dup3\n        /* \"smart_contracts/contracts/Token.sol\":12605:12612  allowed */\n      0x14\n        /* \"smart_contracts/contracts/Token.sol\":12605:12619  allowed[_from] */\n      0x00\n        /* \"smart_contracts/contracts/Token.sol\":12613:12618  _from */\n      dup8\n        /* \"smart_contracts/contracts/Token.sol\":12605:12619  allowed[_from] */\n      0xffffffffffffffffffffffffffffffffffffffff\n      and\n      0xffffffffffffffffffffffffffffffffffffffff\n      and\n      dup2\n      mstore\n      0x20\n      add\n      swap1\n      dup2\n      mstore\n      0x20\n      add\n      0x00\n      keccak256\n        /* \"smart_contracts/contracts/Token.sol\":12605:12631  allowed[_from][msg.sender] */\n      0x00\n        /* \"smart_contracts/contracts/Token.sol\":12620:12630  msg.sender */\n      caller\n        /* \"smart_contracts/contracts/Token.sol\":12605:12631  allowed[_from][msg.sender] */\n      0xffffffffffffffffffffffffffffffffffffffff\n      and\n      0xffffffffffffffffffffffffffffffffffffffff\n      and\n      dup2\n      mstore\n      0x20\n      add\n      swap1\n      dup2\n      mstore\n      0x20\n      add\n      0x00\n      keccak256\n      0x00\n        /* \"smart_contracts/contracts/Token.sol\":12605:12641  allowed[_from][msg.sender] -= _value */\n      dup3\n      dup3\n      sload\n      tag_175\n      swap2\n      swap1\n      tag_176\n      jump\t// in\n    tag_175:\n      swap3\n      pop\n      pop\n      dup2\n      swap1\n      sstore\n      pop\n        /* \"smart_contracts/contracts/Token.sol\":12651:12669  uint256 _bpFeeBurn */\n      0x00\n        /* \"smart_contracts/contracts/Token.sol\":12672:12680  settings */\n      0x01\n        /* \"smart_contracts/contracts/Token.sol\":12672:12695  settings.bpTransferBurn */\n      0x04\n      add\n      sload\n        /* \"smart_contracts/contracts/Token.sol\":12651:12695  uint256 _bpFeeBurn = settings.bpTransferBurn */\n      swap1\n      pop\n        /* \"smart_contracts/contracts/Token.sol\":12705:12723  uint256 _bpFeeBank */\n      0x00\n        /* \"smart_contracts/contracts/Token.sol\":12726:12734  settings */\n      0x01\n        /* \"smart_contracts/contracts/Token.sol\":12726:12749  settings.bpTransferBank */\n      0x05\n      add\n      sload\n        /* \"smart_contracts/contracts/Token.sol\":12705:12749  uint256 _bpFeeBank = settings.bpTransferBank */\n      swap1\n      pop\n        /* \"smart_contracts/contracts/Token.sol\":12760:12773  bool _success */\n      0x00\n        /* \"smart_contracts/contracts/Token.sol\":12775:12792  uint256 _newValue */\n      dup1\n        /* \"smart_contracts/contracts/Token.sol\":12796:12919  transfer_(... */\n      tag_177\n        /* \"smart_contracts/contracts/Token.sol\":12819:12824  _from */\n      dup10\n        /* \"smart_contracts/contracts/Token.sol\":12838:12841  _to */\n      dup10\n        /* \"smart_contracts/contracts/Token.sol\":12855:12861  _value */\n      dup10\n        /* \"smart_contracts/contracts/Token.sol\":12875:12885  _bpFeeBurn */\n      dup8\n        /* \"smart_contracts/contracts/Token.sol\":12899:12909  _bpFeeBank */\n      dup8\n        /* \"smart_contracts/contracts/Token.sol\":12796:12805  transfer_ */\n      tag_178\n        /* \"smart_contracts/contracts/Token.sol\":12796:12919  transfer_(... */\n      jump\t// in\n    tag_177:\n        /* \"smart_contracts/contracts/Token.sol\":12759:12919  (bool _success, uint256 _newValue) = transfer_(... */\n      swap2\n      pop\n      swap2\n      pop\n        /* \"smart_contracts/contracts/Token.sol\":12936:12944  _success */\n      dup2\n        /* \"smart_contracts/contracts/Token.sol\":12929:12944  return _success */\n      swap6\n      pop\n      pop\n      pop\n      pop\n      pop\n      pop\n        /* \"smart_contracts/contracts/Token.sol\":12340:12951  function transferFrom(address _from, address _to, uint256 _value) external returns (bool) {... */\n      swap4\n      swap3\n      pop\n      pop\n      pop\n      jump\t// out\n        /* \"smart_contracts/contracts/Token.sol\":13554:14197  function unstake(uint256 _value) external returns (bool) {... */\n    tag_69:\n        /* \"smart_contracts/contracts/Token.sol\":13605:13609  bool */\n      0x00\n        /* \"smart_contracts/contracts/Token.sol\":13621:13634  address _from */\n      dup1\n        /* \"smart_contracts/contracts/Token.sol\":13637:13641  meta */\n      0x07\n        /* \"smart_contracts/contracts/Token.sol\":13637:13647  meta.vault */\n      0x09\n      add\n      0x00\n      swap1\n      sload\n      swap1\n      0x0100\n      exp\n      swap1\n      div\n      0xffffffffffffffffffffffffffffffffffffffff\n      and\n        /* \"smart_contracts/contracts/Token.sol\":13621:13647  address _from = meta.vault */\n      swap1\n      pop\n        /* \"smart_contracts/contracts/Token.sol\":13657:13668  address _to */\n      0x00\n        /* \"smart_contracts/contracts/Token.sol\":13671:13681  msg.sender */\n      caller\n        /* \"smart_contracts/contracts/Token.sol\":13657:13681  address _to = msg.sender */\n      swap1\n      pop\n        /* \"smart_contracts/contracts/Token.sol\":13691:13709  uint256 _bpFeeBurn */\n      0x00\n        /* \"smart_contracts/contracts/Token.sol\":13712:13720  settings */\n      0x01\n        /* \"smart_contracts/contracts/Token.sol\":13712:13735  settings.bpTransferBurn */\n      0x04\n      add\n      sload\n        /* \"smart_contracts/contracts/Token.sol\":13691:13735  uint256 _bpFeeBurn = settings.bpTransferBurn */\n      swap1\n      pop\n        /* \"smart_contracts/contracts/Token.sol\":13745:13763  uint256 _bpFeeBank */\n      0x00\n        /* \"smart_contracts/contracts/Token.sol\":13766:13774  settings */\n      0x01\n        /* \"smart_contracts/contracts/Token.sol\":13766:13789  settings.bpTransferBank */\n      0x05\n      add\n      sload\n        /* \"smart_contracts/contracts/Token.sol\":13745:13789  uint256 _bpFeeBank = settings.bpTransferBank */\n      swap1\n      pop\n        /* \"smart_contracts/contracts/Token.sol\":13830:13836  staked */\n      0x12\n        /* \"smart_contracts/contracts/Token.sol\":13830:13841  staked[_to] */\n      0x00\n        /* \"smart_contracts/contracts/Token.sol\":13837:13840  _to */\n      dup5\n        /* \"smart_contracts/contracts/Token.sol\":13830:13841  staked[_to] */\n      0xffffffffffffffffffffffffffffffffffffffff\n      and\n      0xffffffffffffffffffffffffffffffffffffffff\n      and\n      dup2\n      mstore\n      0x20\n      add\n      swap1\n      dup2\n      mstore\n      0x20\n      add\n      0x00\n      keccak256\n      sload\n        /* \"smart_contracts/contracts/Token.sol\":13820:13826  _value */\n      dup7\n        /* \"smart_contracts/contracts/Token.sol\":13820:13841  _value <= staked[_to] */\n      gt\n      iszero\n        /* \"smart_contracts/contracts/Token.sol\":13799:13851  require(... */\n      tag_180\n      jumpi\n      0x00\n      dup1\n      revert\n    tag_180:\n        /* \"smart_contracts/contracts/Token.sol\":13862:13875  bool _success */\n      0x00\n        /* \"smart_contracts/contracts/Token.sol\":13877:13894  uint256 _newValue */\n      dup1\n        /* \"smart_contracts/contracts/Token.sol\":13898:14021  transfer_(... */\n      tag_181\n        /* \"smart_contracts/contracts/Token.sol\":13921:13926  _from */\n      dup7\n        /* \"smart_contracts/contracts/Token.sol\":13940:13943  _to */\n      dup7\n        /* \"smart_contracts/contracts/Token.sol\":13957:13963  _value */\n      dup11\n        /* \"smart_contracts/contracts/Token.sol\":13977:13987  _bpFeeBurn */\n      dup8\n        /* \"smart_contracts/contracts/Token.sol\":14001:14011  _bpFeeBank */\n      dup8\n        /* \"smart_contracts/contracts/Token.sol\":13898:13907  transfer_ */\n      tag_178\n        /* \"smart_contracts/contracts/Token.sol\":13898:14021  transfer_(... */\n      jump\t// in\n    tag_181:\n        /* \"smart_contracts/contracts/Token.sol\":13861:14021  (bool _success, uint256 _newValue) = transfer_(... */\n      swap2\n      pop\n      swap2\n      pop\n        /* \"smart_contracts/contracts/Token.sol\":14051:14057  _value */\n      dup8\n        /* \"smart_contracts/contracts/Token.sol\":14031:14037  staked */\n      0x12\n        /* \"smart_contracts/contracts/Token.sol\":14031:14042  staked[_to] */\n      0x00\n        /* \"smart_contracts/contracts/Token.sol\":14038:14041  _to */\n      dup8\n        /* \"smart_contracts/contracts/Token.sol\":14031:14042  staked[_to] */\n      0xffffffffffffffffffffffffffffffffffffffff\n      and\n      0xffffffffffffffffffffffffffffffffffffffff\n      and\n      dup2\n      mstore\n      0x20\n      add\n      swap1\n      dup2\n      mstore\n      0x20\n      add\n      0x00\n      keccak256\n      0x00\n        /* \"smart_contracts/contracts/Token.sol\":14031:14057  staked[_to]      -= _value */\n      dup3\n      dup3\n      sload\n      tag_182\n      swap2\n      swap1\n      tag_176\n      jump\t// in\n    tag_182:\n      swap3\n      pop\n      pop\n      dup2\n      swap1\n      sstore\n      pop\n        /* \"smart_contracts/contracts/Token.sol\":14087:14093  _value */\n      dup8\n        /* \"smart_contracts/contracts/Token.sol\":14067:14072  votes */\n      0x13\n        /* \"smart_contracts/contracts/Token.sol\":14067:14077  votes[_to] */\n      0x00\n        /* \"smart_contracts/contracts/Token.sol\":14073:14076  _to */\n      dup8\n        /* \"smart_contracts/contracts/Token.sol\":14067:14077  votes[_to] */\n      0xffffffffffffffffffffffffffffffffffffffff\n      and\n      0xffffffffffffffffffffffffffffffffffffffff\n      and\n      dup2\n      mstore\n      0x20\n      add\n      swap1\n      dup2\n      mstore\n      0x20\n      add\n      0x00\n      keccak256\n      0x00\n        /* \"smart_contracts/contracts/Token.sol\":14067:14093  votes[_to]       -= _value */\n      dup3\n      dup3\n      sload\n      tag_183\n      swap2\n      swap1\n      tag_176\n      jump\t// in\n    tag_183:\n      swap3\n      pop\n      pop\n      dup2\n      swap1\n      sstore\n      pop\n        /* \"smart_contracts/contracts/Token.sol\":14123:14129  _value */\n      dup8\n        /* \"smart_contracts/contracts/Token.sol\":14103:14107  meta */\n      0x07\n        /* \"smart_contracts/contracts/Token.sol\":14103:14119  meta.totalStaked */\n      0x05\n      add\n      0x00\n        /* \"smart_contracts/contracts/Token.sol\":14103:14129  meta.totalStaked -= _value */\n      dup3\n      dup3\n      sload\n      tag_184\n      swap2\n      swap1\n      tag_176\n      jump\t// in\n    tag_184:\n      swap3\n      pop\n      pop\n      dup2\n      swap1\n      sstore\n      pop\n        /* \"smart_contracts/contracts/Token.sol\":14159:14165  _value */\n      dup8\n        /* \"smart_contracts/contracts/Token.sol\":14139:14143  meta */\n      0x07\n        /* \"smart_contracts/contracts/Token.sol\":14139:14154  meta.totalVotes */\n      dup1\n      add\n      0x00\n        /* \"smart_contracts/contracts/Token.sol\":14139:14165  meta.totalVotes  -= _value */\n      dup3\n      dup3\n      sload\n      tag_185\n      swap2\n      swap1\n      tag_176\n      jump\t// in\n    tag_185:\n      swap3\n      pop\n      pop\n      dup2\n      swap1\n      sstore\n      pop\n        /* \"smart_contracts/contracts/Token.sol\":14182:14190  _success */\n      dup2\n        /* \"smart_contracts/contracts/Token.sol\":14175:14190  return _success */\n      swap7\n      pop\n      pop\n      pop\n      pop\n      pop\n      pop\n      pop\n        /* \"smart_contracts/contracts/Token.sol\":13554:14197  function unstake(uint256 _value) external returns (bool) {... */\n      swap2\n      swap1\n      pop\n      jump\t// out\n        /* \"smart_contracts/contracts/Token.sol\":17448:17521  function decimals() external view returns (uint8) {return meta.decimals;} */\n    tag_72:\n        /* \"smart_contracts/contracts/Token.sol\":17491:17496  uint8 */\n      0x00\n        /* \"smart_contracts/contracts/Token.sol\":17506:17510  meta */\n      0x07\n        /* \"smart_contracts/contracts/Token.sol\":17506:17519  meta.decimals */\n      0x02\n      add\n      0x00\n      swap1\n      sload\n      swap1\n      0x0100\n      exp\n      swap1\n      div\n      0xff\n      and\n        /* \"smart_contracts/contracts/Token.sol\":17499:17519  return meta.decimals */\n      swap1\n      pop\n        /* \"smart_contracts/contracts/Token.sol\":17448:17521  function decimals() external view returns (uint8) {return meta.decimals;} */\n      swap1\n      jump\t// out\n        /* \"smart_contracts/contracts/Token.sol\":15236:15348  function mint(address _to, uint256 _value) external onlyAdmin returns (bool) {... */\n    tag_77:\n        /* \"smart_contracts/contracts/Token.sol\":15307:15311  bool */\n      0x00\n        /* \"smart_contracts/contracts/Token.sol\":3229:3244  address _sender */\n      dup1\n        /* \"smart_contracts/contracts/Token.sol\":3247:3257  msg.sender */\n      caller\n        /* \"smart_contracts/contracts/Token.sol\":3229:3257  address _sender = msg.sender */\n      swap1\n      pop\n        /* \"smart_contracts/contracts/Token.sol\":3306:3311  false */\n      0x00\n        /* \"smart_contracts/contracts/Token.sol\":3288:3311  admin[_sender] != false */\n      iszero\n      iszero\n        /* \"smart_contracts/contracts/Token.sol\":3288:3293  admin */\n      0x00\n        /* \"smart_contracts/contracts/Token.sol\":3288:3302  admin[_sender] */\n      dup1\n        /* \"smart_contracts/contracts/Token.sol\":3294:3301  _sender */\n      dup4\n        /* \"smart_contracts/contracts/Token.sol\":3288:3302  admin[_sender] */\n      0xffffffffffffffffffffffffffffffffffffffff\n      and\n      0xffffffffffffffffffffffffffffffffffffffff\n      and\n      dup2\n      mstore\n      0x20\n      add\n      swap1\n      dup2\n      mstore\n      0x20\n      add\n      0x00\n      keccak256\n      0x00\n      swap1\n      sload\n      swap1\n      0x0100\n      exp\n      swap1\n      div\n      0xff\n      and\n        /* \"smart_contracts/contracts/Token.sol\":3288:3311  admin[_sender] != false */\n      iszero\n      iszero\n      sub\n        /* \"smart_contracts/contracts/Token.sol\":3267:3346  require(... */\n      tag_188\n      jumpi\n      mload(0x40)\n      0x08c379a000000000000000000000000000000000000000000000000000000000\n      dup2\n      mstore\n      0x04\n      add\n      tag_189\n      swap1\n      tag_146\n      jump\t// in\n    tag_189:\n      mload(0x40)\n      dup1\n      swap2\n      sub\n      swap1\n      revert\n    tag_188:\n        /* \"smart_contracts/contracts/Token.sol\":15323:15341  mint_(_to, _value) */\n      tag_191\n        /* \"smart_contracts/contracts/Token.sol\":15329:15332  _to */\n      dup5\n        /* \"smart_contracts/contracts/Token.sol\":15334:15340  _value */\n      dup5\n        /* \"smart_contracts/contracts/Token.sol\":15323:15328  mint_ */\n      tag_192\n        /* \"smart_contracts/contracts/Token.sol\":15323:15341  mint_(_to, _value) */\n      jump\t// in\n    tag_191:\n      pop\n        /* \"smart_contracts/contracts/Token.sol\":3219:3364  {... */\n      pop\n        /* \"smart_contracts/contracts/Token.sol\":15236:15348  function mint(address _to, uint256 _value) external onlyAdmin returns (bool) {... */\n      swap3\n      swap2\n      pop\n      pop\n      jump\t// out\n        /* \"smart_contracts/contracts/Token.sol\":18041:18130  function stakeOf(address _owner) external view returns (uint256) {return staked[_owner];} */\n    tag_81:\n        /* \"smart_contracts/contracts/Token.sol\":18097:18104  uint256 */\n      0x00\n        /* \"smart_contracts/contracts/Token.sol\":18114:18120  staked */\n      0x12\n        /* \"smart_contracts/contracts/Token.sol\":18114:18128  staked[_owner] */\n      0x00\n        /* \"smart_contracts/contracts/Token.sol\":18121:18127  _owner */\n      dup4\n        /* \"smart_contracts/contracts/Token.sol\":18114:18128  staked[_owner] */\n      0xffffffffffffffffffffffffffffffffffffffff\n      and\n      0xffffffffffffffffffffffffffffffffffffffff\n      and\n      dup2\n      mstore\n      0x20\n      add\n      swap1\n      dup2\n      mstore\n      0x20\n      add\n      0x00\n      keccak256\n      sload\n        /* \"smart_contracts/contracts/Token.sol\":18107:18128  return staked[_owner] */\n      swap1\n      pop\n        /* \"smart_contracts/contracts/Token.sol\":18041:18130  function stakeOf(address _owner) external view returns (uint256) {return staked[_owner];} */\n      swap2\n      swap1\n      pop\n      jump\t// out\n        /* \"smart_contracts/contracts/Token.sol\":15558:15695  function burn(uint256 _value) external onlyAdmin returns (bool) {... */\n    tag_85:\n        /* \"smart_contracts/contracts/Token.sol\":15616:15620  bool */\n      0x00\n        /* \"smart_contracts/contracts/Token.sol\":3229:3244  address _sender */\n      dup1\n        /* \"smart_contracts/contracts/Token.sol\":3247:3257  msg.sender */\n      caller\n        /* \"smart_contracts/contracts/Token.sol\":3229:3257  address _sender = msg.sender */\n      swap1\n      pop\n        /* \"smart_contracts/contracts/Token.sol\":3306:3311  false */\n      0x00\n        /* \"smart_contracts/contracts/Token.sol\":3288:3311  admin[_sender] != false */\n      iszero\n      iszero\n        /* \"smart_contracts/contracts/Token.sol\":3288:3293  admin */\n      0x00\n        /* \"smart_contracts/contracts/Token.sol\":3288:3302  admin[_sender] */\n      dup1\n        /* \"smart_contracts/contracts/Token.sol\":3294:3301  _sender */\n      dup4\n        /* \"smart_contracts/contracts/Token.sol\":3288:3302  admin[_sender] */\n      0xffffffffffffffffffffffffffffffffffffffff\n      and\n      0xffffffffffffffffffffffffffffffffffffffff\n      and\n      dup2\n      mstore\n      0x20\n      add\n      swap1\n      dup2\n      mstore\n      0x20\n      add\n      0x00\n      keccak256\n      0x00\n      swap1\n      sload\n      swap1\n      0x0100\n      exp\n      swap1\n      div\n      0xff\n      and\n        /* \"smart_contracts/contracts/Token.sol\":3288:3311  admin[_sender] != false */\n      iszero\n      iszero\n      sub\n        /* \"smart_contracts/contracts/Token.sol\":3267:3346  require(... */\n      tag_195\n      jumpi\n      mload(0x40)\n      0x08c379a000000000000000000000000000000000000000000000000000000000\n      dup2\n      mstore\n      0x04\n      add\n      tag_196\n      swap1\n      tag_146\n      jump\t// in\n    tag_196:\n      mload(0x40)\n      dup1\n      swap2\n      sub\n      swap1\n      revert\n    tag_195:\n        /* \"smart_contracts/contracts/Token.sol\":15632:15645  address _from */\n      0x00\n        /* \"smart_contracts/contracts/Token.sol\":15648:15658  msg.sender */\n      caller\n        /* \"smart_contracts/contracts/Token.sol\":15632:15658  address _from = msg.sender */\n      swap1\n      pop\n        /* \"smart_contracts/contracts/Token.sol\":15668:15688  burn_(_from, _value) */\n      tag_198\n        /* \"smart_contracts/contracts/Token.sol\":15674:15679  _from */\n      dup2\n        /* \"smart_contracts/contracts/Token.sol\":15681:15687  _value */\n      dup6\n        /* \"smart_contracts/contracts/Token.sol\":15668:15673  burn_ */\n      tag_199\n        /* \"smart_contracts/contracts/Token.sol\":15668:15688  burn_(_from, _value) */\n      jump\t// in\n    tag_198:\n      pop\n        /* \"smart_contracts/contracts/Token.sol\":15622:15695  {... */\n      pop\n        /* \"smart_contracts/contracts/Token.sol\":3219:3364  {... */\n      pop\n        /* \"smart_contracts/contracts/Token.sol\":15558:15695  function burn(uint256 _value) external onlyAdmin returns (bool) {... */\n      swap2\n      swap1\n      pop\n      jump\t// out\n        /* \"smart_contracts/contracts/Token.sol\":17864:17939  function mintable() external view returns (uint256) {return meta.mintable;} */\n    tag_88:\n        /* \"smart_contracts/contracts/Token.sol\":17907:17914  uint256 */\n      0x00\n        /* \"smart_contracts/contracts/Token.sol\":17924:17928  meta */\n      0x07\n        /* \"smart_contracts/contracts/Token.sol\":17924:17937  meta.mintable */\n      0x03\n      add\n      sload\n        /* \"smart_contracts/contracts/Token.sol\":17917:17937  return meta.mintable */\n      swap1\n      pop\n        /* \"smart_contracts/contracts/Token.sol\":17864:17939  function mintable() external view returns (uint256) {return meta.mintable;} */\n      swap1\n      jump\t// out\n        /* \"smart_contracts/contracts/Token.sol\":15701:16347  function fetchSettings() external onlyAdmin returns (uint256, uint256, uint256, uint256, uint256, uint256) {... */\n    tag_91:\n        /* \"smart_contracts/contracts/Token.sol\":15754:15761  uint256 */\n      0x00\n        /* \"smart_contracts/contracts/Token.sol\":15763:15770  uint256 */\n      dup1\n        /* \"smart_contracts/contracts/Token.sol\":15772:15779  uint256 */\n      0x00\n        /* \"smart_contracts/contracts/Token.sol\":15781:15788  uint256 */\n      dup1\n        /* \"smart_contracts/contracts/Token.sol\":15790:15797  uint256 */\n      0x00\n        /* \"smart_contracts/contracts/Token.sol\":15799:15806  uint256 */\n      dup1\n        /* \"smart_contracts/contracts/Token.sol\":3229:3244  address _sender */\n      0x00\n        /* \"smart_contracts/contracts/Token.sol\":3247:3257  msg.sender */\n      caller\n        /* \"smart_contracts/contracts/Token.sol\":3229:3257  address _sender = msg.sender */\n      swap1\n      pop\n        /* \"smart_contracts/contracts/Token.sol\":3306:3311  false */\n      0x00\n        /* \"smart_contracts/contracts/Token.sol\":3288:3311  admin[_sender] != false */\n      iszero\n      iszero\n        /* \"smart_contracts/contracts/Token.sol\":3288:3293  admin */\n      0x00\n        /* \"smart_contracts/contracts/Token.sol\":3288:3302  admin[_sender] */\n      dup1\n        /* \"smart_contracts/contracts/Token.sol\":3294:3301  _sender */\n      dup4\n        /* \"smart_contracts/contracts/Token.sol\":3288:3302  admin[_sender] */\n      0xffffffffffffffffffffffffffffffffffffffff\n      and\n      0xffffffffffffffffffffffffffffffffffffffff\n      and\n      dup2\n      mstore\n      0x20\n      add\n      swap1\n      dup2\n      mstore\n      0x20\n      add\n      0x00\n      keccak256\n      0x00\n      swap1\n      sload\n      swap1\n      0x0100\n      exp\n      swap1\n      div\n      0xff\n      and\n        /* \"smart_contracts/contracts/Token.sol\":3288:3311  admin[_sender] != false */\n      iszero\n      iszero\n      sub\n        /* \"smart_contracts/contracts/Token.sol\":3267:3346  require(... */\n      tag_202\n      jumpi\n      mload(0x40)\n      0x08c379a000000000000000000000000000000000000000000000000000000000\n      dup2\n      mstore\n      0x04\n      add\n      tag_203\n      swap1\n      tag_146\n      jump\t// in\n    tag_203:\n      mload(0x40)\n      dup1\n      swap2\n      sub\n      swap1\n      revert\n    tag_202:\n        /* \"smart_contracts/contracts/Token.sol\":15818:15836  uint256 _bpFeeBurn */\n      0x00\n        /* \"smart_contracts/contracts/Token.sol\":15839:15847  settings */\n      0x01\n        /* \"smart_contracts/contracts/Token.sol\":15839:15862  settings.bpTransferBurn */\n      0x04\n      add\n      sload\n        /* \"smart_contracts/contracts/Token.sol\":15818:15862  uint256 _bpFeeBurn = settings.bpTransferBurn */\n      swap1\n      pop\n        /* \"smart_contracts/contracts/Token.sol\":15872:15890  uint256 _bpFeeBank */\n      0x00\n        /* \"smart_contracts/contracts/Token.sol\":15893:15901  settings */\n      0x01\n        /* \"smart_contracts/contracts/Token.sol\":15893:15916  settings.bpTransferBank */\n      0x05\n      add\n      sload\n        /* \"smart_contracts/contracts/Token.sol\":15872:15916  uint256 _bpFeeBank = settings.bpTransferBank */\n      swap1\n      pop\n        /* \"smart_contracts/contracts/Token.sol\":15926:15947  uint256 _bpFeeBurnMin */\n      0x00\n        /* \"smart_contracts/contracts/Token.sol\":15950:15958  settings */\n      0x01\n        /* \"smart_contracts/contracts/Token.sol\":15950:15976  settings.bpTransferBurnMin */\n      0x00\n      add\n      sload\n        /* \"smart_contracts/contracts/Token.sol\":15926:15976  uint256 _bpFeeBurnMin = settings.bpTransferBurnMin */\n      swap1\n      pop\n        /* \"smart_contracts/contracts/Token.sol\":15986:16007  uint256 _bpFeeBankMin */\n      0x00\n        /* \"smart_contracts/contracts/Token.sol\":16010:16018  settings */\n      0x01\n        /* \"smart_contracts/contracts/Token.sol\":16010:16036  settings.bpTransferBankMin */\n      dup1\n      add\n      sload\n        /* \"smart_contracts/contracts/Token.sol\":15986:16036  uint256 _bpFeeBankMin = settings.bpTransferBankMin */\n      swap1\n      pop\n        /* \"smart_contracts/contracts/Token.sol\":16046:16067  uint256 _bpFeeBurnMax */\n      0x00\n        /* \"smart_contracts/contracts/Token.sol\":16070:16078  settings */\n      0x01\n        /* \"smart_contracts/contracts/Token.sol\":16070:16096  settings.bpTransferBurnMax */\n      0x02\n      add\n      sload\n        /* \"smart_contracts/contracts/Token.sol\":16046:16096  uint256 _bpFeeBurnMax = settings.bpTransferBurnMax */\n      swap1\n      pop\n        /* \"smart_contracts/contracts/Token.sol\":16106:16127  uint256 _bpFeeBankMax */\n      0x00\n        /* \"smart_contracts/contracts/Token.sol\":16130:16138  settings */\n      0x01\n        /* \"smart_contracts/contracts/Token.sol\":16130:16156  settings.bpTransferBankMax */\n      0x03\n      add\n      sload\n        /* \"smart_contracts/contracts/Token.sol\":16106:16156  uint256 _bpFeeBankMax = settings.bpTransferBankMax */\n      swap1\n      pop\n        /* \"smart_contracts/contracts/Token.sol\":16188:16198  _bpFeeBurn */\n      dup6\n        /* \"smart_contracts/contracts/Token.sol\":16212:16222  _bpFeeBank */\n      dup6\n        /* \"smart_contracts/contracts/Token.sol\":16236:16249  _bpFeeBurnMin */\n      dup6\n        /* \"smart_contracts/contracts/Token.sol\":16263:16276  _bpFeeBankMin */\n      dup6\n        /* \"smart_contracts/contracts/Token.sol\":16290:16303  _bpFeeBurnMax */\n      dup6\n        /* \"smart_contracts/contracts/Token.sol\":16317:16330  _bpFeeBankMax */\n      dup6\n        /* \"smart_contracts/contracts/Token.sol\":16167:16340  return (... */\n      swap13\n      pop\n      swap13\n      pop\n      swap13\n      pop\n      swap13\n      pop\n      swap13\n      pop\n      swap13\n      pop\n      pop\n      pop\n      pop\n      pop\n      pop\n      pop\n        /* \"smart_contracts/contracts/Token.sol\":3219:3364  {... */\n      pop\n        /* \"smart_contracts/contracts/Token.sol\":15701:16347  function fetchSettings() external onlyAdmin returns (uint256, uint256, uint256, uint256, uint256, uint256) {... */\n      swap1\n      swap2\n      swap3\n      swap4\n      swap5\n      swap6\n      jump\t// out\n        /* \"smart_contracts/contracts/Token.sol\":17944:18036  function balanceOf(address _owner) external view returns (uint256) {return balance[_owner];} */\n    tag_96:\n        /* \"smart_contracts/contracts/Token.sol\":18002:18009  uint256 */\n      0x00\n        /* \"smart_contracts/contracts/Token.sol\":18019:18026  balance */\n      0x11\n        /* \"smart_contracts/contracts/Token.sol\":18019:18034  balance[_owner] */\n      0x00\n        /* \"smart_contracts/contracts/Token.sol\":18027:18033  _owner */\n      dup4\n        /* \"smart_contracts/contracts/Token.sol\":18019:18034  balance[_owner] */\n      0xffffffffffffffffffffffffffffffffffffffff\n      and\n      0xffffffffffffffffffffffffffffffffffffffff\n      and\n      dup2\n      mstore\n      0x20\n      add\n      swap1\n      dup2\n      mstore\n      0x20\n      add\n      0x00\n      keccak256\n      sload\n        /* \"smart_contracts/contracts/Token.sol\":18012:18034  return balance[_owner] */\n      swap1\n      pop\n        /* \"smart_contracts/contracts/Token.sol\":17944:18036  function balanceOf(address _owner) external view returns (uint256) {return balance[_owner];} */\n      swap2\n      swap1\n      pop\n      jump\t// out\n        /* \"smart_contracts/contracts/Token.sol\":18135:18223  function votesOf(address _owner) external view returns (uint256) {return votes[_owner];} */\n    tag_100:\n        /* \"smart_contracts/contracts/Token.sol\":18191:18198  uint256 */\n      0x00\n        /* \"smart_contracts/contracts/Token.sol\":18208:18213  votes */\n      0x13\n        /* \"smart_contracts/contracts/Token.sol\":18208:18221  votes[_owner] */\n      0x00\n        /* \"smart_contracts/contracts/Token.sol\":18214:18220  _owner */\n      dup4\n        /* \"smart_contracts/contracts/Token.sol\":18208:18221  votes[_owner] */\n      0xffffffffffffffffffffffffffffffffffffffff\n      and\n      0xffffffffffffffffffffffffffffffffffffffff\n      and\n      dup2\n      mstore\n      0x20\n      add\n      swap1\n      dup2\n      mstore\n      0x20\n      add\n      0x00\n      keccak256\n      sload\n        /* \"smart_contracts/contracts/Token.sol\":18201:18221  return votes[_owner] */\n      swap1\n      pop\n        /* \"smart_contracts/contracts/Token.sol\":18135:18223  function votesOf(address _owner) external view returns (uint256) {return votes[_owner];} */\n      swap2\n      swap1\n      pop\n      jump\t// out\n        /* \"smart_contracts/contracts/Token.sol\":17610:17691  function totalStaked() external view returns (uint256) {return meta.totalStaked;} */\n    tag_103:\n        /* \"smart_contracts/contracts/Token.sol\":17656:17663  uint256 */\n      0x00\n        /* \"smart_contracts/contracts/Token.sol\":17673:17677  meta */\n      0x07\n        /* \"smart_contracts/contracts/Token.sol\":17673:17689  meta.totalStaked */\n      0x05\n      add\n      sload\n        /* \"smart_contracts/contracts/Token.sol\":17666:17689  return meta.totalStaked */\n      swap1\n      pop\n        /* \"smart_contracts/contracts/Token.sol\":17610:17691  function totalStaked() external view returns (uint256) {return meta.totalStaked;} */\n      swap1\n      jump\t// out\n        /* \"smart_contracts/contracts/Token.sol\":17366:17443  function symbol() external view returns (string memory) {return meta.symbol;} */\n    tag_106:\n        /* \"smart_contracts/contracts/Token.sol\":17407:17420  string memory */\n      0x60\n        /* \"smart_contracts/contracts/Token.sol\":17430:17434  meta */\n      0x07\n        /* \"smart_contracts/contracts/Token.sol\":17430:17441  meta.symbol */\n      0x01\n      add\n        /* \"smart_contracts/contracts/Token.sol\":17423:17441  return meta.symbol */\n      dup1\n      sload\n      tag_209\n      swap1\n      tag_156\n      jump\t// in\n    tag_209:\n      dup1\n      0x1f\n      add\n      0x20\n      dup1\n      swap2\n      div\n      mul\n      0x20\n      add\n      mload(0x40)\n      swap1\n      dup2\n      add\n      0x40\n      mstore\n      dup1\n      swap3\n      swap2\n      swap1\n      dup2\n      dup2\n      mstore\n      0x20\n      add\n      dup3\n      dup1\n      sload\n      tag_210\n      swap1\n      tag_156\n      jump\t// in\n    tag_210:\n      dup1\n      iszero\n      tag_211\n      jumpi\n      dup1\n      0x1f\n      lt\n      tag_212\n      jumpi\n      0x0100\n      dup1\n      dup4\n      sload\n      div\n      mul\n      dup4\n      mstore\n      swap2\n      0x20\n      add\n      swap2\n      jump(tag_211)\n    tag_212:\n      dup3\n      add\n      swap2\n      swap1\n      0x00\n      mstore\n      keccak256(0x00, 0x20)\n      swap1\n    tag_213:\n      dup2\n      sload\n      dup2\n      mstore\n      swap1\n      0x01\n      add\n      swap1\n      0x20\n      add\n      dup1\n      dup4\n      gt\n      tag_213\n      jumpi\n      dup3\n      swap1\n      sub\n      0x1f\n      and\n      dup3\n      add\n      swap2\n    tag_211:\n      pop\n      pop\n      pop\n      pop\n      pop\n      swap1\n      pop\n        /* \"smart_contracts/contracts/Token.sol\":17366:17443  function symbol() external view returns (string memory) {return meta.symbol;} */\n      swap1\n      jump\t// out\n        /* \"smart_contracts/contracts/Token.sol\":3370:3604  function grantPermissionAdmin(address _owner) public onlyAdmin returns (bool) {... */\n    tag_110:\n        /* \"smart_contracts/contracts/Token.sol\":3442:3446  bool */\n      0x00\n        /* \"smart_contracts/contracts/Token.sol\":3229:3244  address _sender */\n      dup1\n        /* \"smart_contracts/contracts/Token.sol\":3247:3257  msg.sender */\n      caller\n        /* \"smart_contracts/contracts/Token.sol\":3229:3257  address _sender = msg.sender */\n      swap1\n      pop\n        /* \"smart_contracts/contracts/Token.sol\":3306:3311  false */\n      0x00\n        /* \"smart_contracts/contracts/Token.sol\":3288:3311  admin[_sender] != false */\n      iszero\n      iszero\n        /* \"smart_contracts/contracts/Token.sol\":3288:3293  admin */\n      0x00\n        /* \"smart_contracts/contracts/Token.sol\":3288:3302  admin[_sender] */\n      dup1\n        /* \"smart_contracts/contracts/Token.sol\":3294:3301  _sender */\n      dup4\n        /* \"smart_contracts/contracts/Token.sol\":3288:3302  admin[_sender] */\n      0xffffffffffffffffffffffffffffffffffffffff\n      and\n      0xffffffffffffffffffffffffffffffffffffffff\n      and\n      dup2\n      mstore\n      0x20\n      add\n      swap1\n      dup2\n      mstore\n      0x20\n      add\n      0x00\n      keccak256\n      0x00\n      swap1\n      sload\n      swap1\n      0x0100\n      exp\n      swap1\n      div\n      0xff\n      and\n        /* \"smart_contracts/contracts/Token.sol\":3288:3311  admin[_sender] != false */\n      iszero\n      iszero\n      sub\n        /* \"smart_contracts/contracts/Token.sol\":3267:3346  require(... */\n      tag_215\n      jumpi\n      mload(0x40)\n      0x08c379a000000000000000000000000000000000000000000000000000000000\n      dup2\n      mstore\n      0x04\n      add\n      tag_216\n      swap1\n      tag_146\n      jump\t// in\n    tag_216:\n      mload(0x40)\n      dup1\n      swap2\n      sub\n      swap1\n      revert\n    tag_215:\n        /* \"smart_contracts/contracts/Token.sol\":3497:3498  0 */\n      0x00\n        /* \"smart_contracts/contracts/Token.sol\":3479:3499  _owner != address(0) */\n      0xffffffffffffffffffffffffffffffffffffffff\n      and\n        /* \"smart_contracts/contracts/Token.sol\":3479:3485  _owner */\n      dup4\n        /* \"smart_contracts/contracts/Token.sol\":3479:3499  _owner != address(0) */\n      0xffffffffffffffffffffffffffffffffffffffff\n      and\n      eq\n      iszero\n        /* \"smart_contracts/contracts/Token.sol\":3479:3536  _owner != address(0) &&... */\n      dup1\n      iszero\n      tag_218\n      jumpi\n      pop\n        /* \"smart_contracts/contracts/Token.sol\":3532:3536  true */\n      0x01\n        /* \"smart_contracts/contracts/Token.sol\":3515:3536  admin[_owner] != true */\n      iszero\n      iszero\n        /* \"smart_contracts/contracts/Token.sol\":3515:3520  admin */\n      0x00\n        /* \"smart_contracts/contracts/Token.sol\":3515:3528  admin[_owner] */\n      dup1\n        /* \"smart_contracts/contracts/Token.sol\":3521:3527  _owner */\n      dup6\n        /* \"smart_contracts/contracts/Token.sol\":3515:3528  admin[_owner] */\n      0xffffffffffffffffffffffffffffffffffffffff\n      and\n      0xffffffffffffffffffffffffffffffffffffffff\n      and\n      dup2\n      mstore\n      0x20\n      add\n      swap1\n      dup2\n      mstore\n      0x20\n      add\n      0x00\n      keccak256\n      0x00\n      swap1\n      sload\n      swap1\n      0x0100\n      exp\n      swap1\n      div\n      0xff\n      and\n        /* \"smart_contracts/contracts/Token.sol\":3515:3536  admin[_owner] != true */\n      iszero\n      iszero\n      eq\n      iszero\n        /* \"smart_contracts/contracts/Token.sol\":3479:3536  _owner != address(0) &&... */\n    tag_218:\n        /* \"smart_contracts/contracts/Token.sol\":3458:3546  require(... */\n      tag_219\n      jumpi\n      0x00\n      dup1\n      revert\n    tag_219:\n        /* \"smart_contracts/contracts/Token.sol\":3572:3576  true */\n      0x01\n        /* \"smart_contracts/contracts/Token.sol\":3556:3561  admin */\n      0x00\n        /* \"smart_contracts/contracts/Token.sol\":3556:3569  admin[_owner] */\n      dup1\n        /* \"smart_contracts/contracts/Token.sol\":3562:3568  _owner */\n      dup6\n        /* \"smart_contracts/contracts/Token.sol\":3556:3569  admin[_owner] */\n      0xffffffffffffffffffffffffffffffffffffffff\n      and\n      0xffffffffffffffffffffffffffffffffffffffff\n      and\n      dup2\n      mstore\n      0x20\n      add\n      swap1\n      dup2\n      mstore\n      0x20\n      add\n      0x00\n      keccak256\n      0x00\n        /* \"smart_contracts/contracts/Token.sol\":3556:3576  admin[_owner] = true */\n      0x0100\n      exp\n      dup2\n      sload\n      dup2\n      0xff\n      mul\n      not\n      and\n      swap1\n      dup4\n      iszero\n      iszero\n      mul\n      or\n      swap1\n      sstore\n      pop\n        /* \"smart_contracts/contracts/Token.sol\":3593:3597  true */\n      0x01\n        /* \"smart_contracts/contracts/Token.sol\":3586:3597  return true */\n      swap2\n      pop\n        /* \"smart_contracts/contracts/Token.sol\":3219:3364  {... */\n      pop\n        /* \"smart_contracts/contracts/Token.sol\":3370:3604  function grantPermissionAdmin(address _owner) public onlyAdmin returns (bool) {... */\n      swap2\n      swap1\n      pop\n      jump\t// out\n        /* \"smart_contracts/contracts/Token.sol\":12957:13548  function stake(uint256 _value) external returns (bool) {... */\n    tag_114:\n        /* \"smart_contracts/contracts/Token.sol\":13006:13010  bool */\n      0x00\n        /* \"smart_contracts/contracts/Token.sol\":13022:13035  address _from */\n      dup1\n        /* \"smart_contracts/contracts/Token.sol\":13038:13048  msg.sender */\n      caller\n        /* \"smart_contracts/contracts/Token.sol\":13022:13048  address _from = msg.sender */\n      swap1\n      pop\n        /* \"smart_contracts/contracts/Token.sol\":13058:13069  address _to */\n      0x00\n        /* \"smart_contracts/contracts/Token.sol\":13072:13076  meta */\n      0x07\n        /* \"smart_contracts/contracts/Token.sol\":13072:13082  meta.vault */\n      0x09\n      add\n      0x00\n      swap1\n      sload\n      swap1\n      0x0100\n      exp\n      swap1\n      div\n      0xffffffffffffffffffffffffffffffffffffffff\n      and\n        /* \"smart_contracts/contracts/Token.sol\":13058:13082  address _to = meta.vault */\n      swap1\n      pop\n        /* \"smart_contracts/contracts/Token.sol\":13092:13110  uint256 _bpFeeBurn */\n      0x00\n        /* \"smart_contracts/contracts/Token.sol\":13113:13121  settings */\n      0x01\n        /* \"smart_contracts/contracts/Token.sol\":13113:13136  settings.bpTransferBurn */\n      0x04\n      add\n      sload\n        /* \"smart_contracts/contracts/Token.sol\":13092:13136  uint256 _bpFeeBurn = settings.bpTransferBurn */\n      swap1\n      pop\n        /* \"smart_contracts/contracts/Token.sol\":13146:13164  uint256 _bpFeeBank */\n      0x00\n        /* \"smart_contracts/contracts/Token.sol\":13167:13175  settings */\n      0x01\n        /* \"smart_contracts/contracts/Token.sol\":13167:13190  settings.bpTransferBank */\n      0x05\n      add\n      sload\n        /* \"smart_contracts/contracts/Token.sol\":13146:13190  uint256 _bpFeeBank = settings.bpTransferBank */\n      swap1\n      pop\n        /* \"smart_contracts/contracts/Token.sol\":13201:13214  bool _success */\n      0x00\n        /* \"smart_contracts/contracts/Token.sol\":13216:13233  uint256 _newValue */\n      dup1\n        /* \"smart_contracts/contracts/Token.sol\":13237:13360  transfer_(... */\n      tag_221\n        /* \"smart_contracts/contracts/Token.sol\":13260:13265  _from */\n      dup7\n        /* \"smart_contracts/contracts/Token.sol\":13279:13282  _to */\n      dup7\n        /* \"smart_contracts/contracts/Token.sol\":13296:13302  _value */\n      dup11\n        /* \"smart_contracts/contracts/Token.sol\":13316:13326  _bpFeeBurn */\n      dup8\n        /* \"smart_contracts/contracts/Token.sol\":13340:13350  _bpFeeBank */\n      dup8\n        /* \"smart_contracts/contracts/Token.sol\":13237:13246  transfer_ */\n      tag_178\n        /* \"smart_contracts/contracts/Token.sol\":13237:13360  transfer_(... */\n      jump\t// in\n    tag_221:\n        /* \"smart_contracts/contracts/Token.sol\":13200:13360  (bool _success, uint256 _newValue) = transfer_(... */\n      swap2\n      pop\n      swap2\n      pop\n        /* \"smart_contracts/contracts/Token.sol\":13390:13399  _newValue */\n      dup1\n        /* \"smart_contracts/contracts/Token.sol\":13370:13376  staked */\n      0x12\n        /* \"smart_contracts/contracts/Token.sol\":13370:13383  staked[_from] */\n      0x00\n        /* \"smart_contracts/contracts/Token.sol\":13377:13382  _from */\n      dup9\n        /* \"smart_contracts/contracts/Token.sol\":13370:13383  staked[_from] */\n      0xffffffffffffffffffffffffffffffffffffffff\n      and\n      0xffffffffffffffffffffffffffffffffffffffff\n      and\n      dup2\n      mstore\n      0x20\n      add\n      swap1\n      dup2\n      mstore\n      0x20\n      add\n      0x00\n      keccak256\n      0x00\n        /* \"smart_contracts/contracts/Token.sol\":13370:13399  staked[_from]    += _newValue */\n      dup3\n      dup3\n      sload\n      tag_222\n      swap2\n      swap1\n      tag_223\n      jump\t// in\n    tag_222:\n      swap3\n      pop\n      pop\n      dup2\n      swap1\n      sstore\n      pop\n        /* \"smart_contracts/contracts/Token.sol\":13429:13438  _newValue */\n      dup1\n        /* \"smart_contracts/contracts/Token.sol\":13409:13414  votes */\n      0x13\n        /* \"smart_contracts/contracts/Token.sol\":13409:13421  votes[_from] */\n      0x00\n        /* \"smart_contracts/contracts/Token.sol\":13415:13420  _from */\n      dup9\n        /* \"smart_contracts/contracts/Token.sol\":13409:13421  votes[_from] */\n      0xffffffffffffffffffffffffffffffffffffffff\n      and\n      0xffffffffffffffffffffffffffffffffffffffff\n      and\n      dup2\n      mstore\n      0x20\n      add\n      swap1\n      dup2\n      mstore\n      0x20\n      add\n      0x00\n      keccak256\n      0x00\n        /* \"smart_contracts/contracts/Token.sol\":13409:13438  votes[_from]     += _newValue */\n      dup3\n      dup3\n      sload\n      tag_224\n      swap2\n      swap1\n      tag_223\n      jump\t// in\n    tag_224:\n      swap3\n      pop\n      pop\n      dup2\n      swap1\n      sstore\n      pop\n        /* \"smart_contracts/contracts/Token.sol\":13468:13477  _newValue */\n      dup1\n        /* \"smart_contracts/contracts/Token.sol\":13448:13452  meta */\n      0x07\n        /* \"smart_contracts/contracts/Token.sol\":13448:13464  meta.totalStaked */\n      0x05\n      add\n      0x00\n        /* \"smart_contracts/contracts/Token.sol\":13448:13477  meta.totalStaked += _newValue */\n      dup3\n      dup3\n      sload\n      tag_225\n      swap2\n      swap1\n      tag_223\n      jump\t// in\n    tag_225:\n      swap3\n      pop\n      pop\n      dup2\n      swap1\n      sstore\n      pop\n        /* \"smart_contracts/contracts/Token.sol\":13507:13516  _newValue */\n      dup1\n        /* \"smart_contracts/contracts/Token.sol\":13487:13491  meta */\n      0x07\n        /* \"smart_contracts/contracts/Token.sol\":13487:13502  meta.totalVotes */\n      dup1\n      add\n      0x00\n        /* \"smart_contracts/contracts/Token.sol\":13487:13516  meta.totalVotes  += _newValue */\n      dup3\n      dup3\n      sload\n      tag_226\n      swap2\n      swap1\n      tag_223\n      jump\t// in\n    tag_226:\n      swap3\n      pop\n      pop\n      dup2\n      swap1\n      sstore\n      pop\n        /* \"smart_contracts/contracts/Token.sol\":13533:13541  _success */\n      dup2\n        /* \"smart_contracts/contracts/Token.sol\":13526:13541  return _success */\n      swap7\n      pop\n      pop\n      pop\n      pop\n      pop\n      pop\n      pop\n        /* \"smart_contracts/contracts/Token.sol\":12957:13548  function stake(uint256 _value) external returns (bool) {... */\n      swap2\n      swap1\n      pop\n      jump\t// out\n        /* \"smart_contracts/contracts/Token.sol\":11922:12334  function transfer(address _to, uint256 _value) external returns (bool) {... */\n    tag_118:\n        /* \"smart_contracts/contracts/Token.sol\":11987:11991  bool */\n      0x00\n        /* \"smart_contracts/contracts/Token.sol\":12003:12016  address _from */\n      dup1\n        /* \"smart_contracts/contracts/Token.sol\":12019:12029  msg.sender */\n      caller\n        /* \"smart_contracts/contracts/Token.sol\":12003:12029  address _from = msg.sender */\n      swap1\n      pop\n        /* \"smart_contracts/contracts/Token.sol\":12039:12057  uint256 _bpFeeBurn */\n      0x00\n        /* \"smart_contracts/contracts/Token.sol\":12060:12068  settings */\n      0x01\n        /* \"smart_contracts/contracts/Token.sol\":12060:12083  settings.bpTransferBurn */\n      0x04\n      add\n      sload\n        /* \"smart_contracts/contracts/Token.sol\":12039:12083  uint256 _bpFeeBurn = settings.bpTransferBurn */\n      swap1\n      pop\n        /* \"smart_contracts/contracts/Token.sol\":12093:12111  uint256 _bpFeeBank */\n      0x00\n        /* \"smart_contracts/contracts/Token.sol\":12114:12122  settings */\n      0x01\n        /* \"smart_contracts/contracts/Token.sol\":12114:12137  settings.bpTransferBank */\n      0x05\n      add\n      sload\n        /* \"smart_contracts/contracts/Token.sol\":12093:12137  uint256 _bpFeeBank = settings.bpTransferBank */\n      swap1\n      pop\n        /* \"smart_contracts/contracts/Token.sol\":12148:12161  bool _success */\n      0x00\n        /* \"smart_contracts/contracts/Token.sol\":12163:12180  uint256 _newValue */\n      dup1\n        /* \"smart_contracts/contracts/Token.sol\":12184:12302  transfer_(... */\n      tag_228\n        /* \"smart_contracts/contracts/Token.sol\":12207:12212  _from */\n      dup6\n        /* \"smart_contracts/contracts/Token.sol\":12227:12230  _to */\n      dup10\n        /* \"smart_contracts/contracts/Token.sol\":12245:12251  _value */\n      dup10\n        /* \"smart_contracts/contracts/Token.sol\":12266:12276  _bpFeeBurn */\n      dup8\n        /* \"smart_contracts/contracts/Token.sol\":12291:12301  _bpFeeBank */\n      dup8\n        /* \"smart_contracts/contracts/Token.sol\":12184:12193  transfer_ */\n      tag_178\n        /* \"smart_contracts/contracts/Token.sol\":12184:12302  transfer_(... */\n      jump\t// in\n    tag_228:\n        /* \"smart_contracts/contracts/Token.sol\":12147:12302  (bool _success, uint256 _newValue) = transfer_(... */\n      swap2\n      pop\n      swap2\n      pop\n        /* \"smart_contracts/contracts/Token.sol\":12319:12327  _success */\n      dup2\n        /* \"smart_contracts/contracts/Token.sol\":12312:12327  return _success */\n      swap6\n      pop\n      pop\n      pop\n      pop\n      pop\n      pop\n        /* \"smart_contracts/contracts/Token.sol\":11922:12334  function transfer(address _to, uint256 _value) external returns (bool) {... */\n      swap3\n      swap2\n      pop\n      pop\n      jump\t// out\n        /* \"smart_contracts/contracts/Token.sol\":17782:17859  function maxSupply() external view returns (uint256) {return meta.maxSupply;} */\n    tag_121:\n        /* \"smart_contracts/contracts/Token.sol\":17826:17833  uint256 */\n      0x00\n        /* \"smart_contracts/contracts/Token.sol\":17843:17847  meta */\n      0x07\n        /* \"smart_contracts/contracts/Token.sol\":17843:17857  meta.maxSupply */\n      0x08\n      add\n      sload\n        /* \"smart_contracts/contracts/Token.sol\":17836:17857  return meta.maxSupply */\n      swap1\n      pop\n        /* \"smart_contracts/contracts/Token.sol\":17782:17859  function maxSupply() external view returns (uint256) {return meta.maxSupply;} */\n      swap1\n      jump\t// out\n        /* \"smart_contracts/contracts/Token.sol\":3610:3847  function revokePermissionAdmin(address _owner) public onlyAdmin returns (bool) {... */\n    tag_125:\n        /* \"smart_contracts/contracts/Token.sol\":3683:3687  bool */\n      0x00\n        /* \"smart_contracts/contracts/Token.sol\":3229:3244  address _sender */\n      dup1\n        /* \"smart_contracts/contracts/Token.sol\":3247:3257  msg.sender */\n      caller\n        /* \"smart_contracts/contracts/Token.sol\":3229:3257  address _sender = msg.sender */\n      swap1\n      pop\n        /* \"smart_contracts/contracts/Token.sol\":3306:3311  false */\n      0x00\n        /* \"smart_contracts/contracts/Token.sol\":3288:3311  admin[_sender] != false */\n      iszero\n      iszero\n        /* \"smart_contracts/contracts/Token.sol\":3288:3293  admin */\n      0x00\n        /* \"smart_contracts/contracts/Token.sol\":3288:3302  admin[_sender] */\n      dup1\n        /* \"smart_contracts/contracts/Token.sol\":3294:3301  _sender */\n      dup4\n        /* \"smart_contracts/contracts/Token.sol\":3288:3302  admin[_sender] */\n      0xffffffffffffffffffffffffffffffffffffffff\n      and\n      0xffffffffffffffffffffffffffffffffffffffff\n      and\n      dup2\n      mstore\n      0x20\n      add\n      swap1\n      dup2\n      mstore\n      0x20\n      add\n      0x00\n      keccak256\n      0x00\n      swap1\n      sload\n      swap1\n      0x0100\n      exp\n      swap1\n      div\n      0xff\n      and\n        /* \"smart_contracts/contracts/Token.sol\":3288:3311  admin[_sender] != false */\n      iszero\n      iszero\n      sub\n        /* \"smart_contracts/contracts/Token.sol\":3267:3346  require(... */\n      tag_231\n      jumpi\n      mload(0x40)\n      0x08c379a000000000000000000000000000000000000000000000000000000000\n      dup2\n      mstore\n      0x04\n      add\n      tag_232\n      swap1\n      tag_146\n      jump\t// in\n    tag_232:\n      mload(0x40)\n      dup1\n      swap2\n      sub\n      swap1\n      revert\n    tag_231:\n        /* \"smart_contracts/contracts/Token.sol\":3738:3739  0 */\n      0x00\n        /* \"smart_contracts/contracts/Token.sol\":3720:3740  _owner != address(0) */\n      0xffffffffffffffffffffffffffffffffffffffff\n      and\n        /* \"smart_contracts/contracts/Token.sol\":3720:3726  _owner */\n      dup4\n        /* \"smart_contracts/contracts/Token.sol\":3720:3740  _owner != address(0) */\n      0xffffffffffffffffffffffffffffffffffffffff\n      and\n      eq\n      iszero\n        /* \"smart_contracts/contracts/Token.sol\":3720:3778  _owner != address(0) &&... */\n      dup1\n      iszero\n      tag_234\n      jumpi\n      pop\n        /* \"smart_contracts/contracts/Token.sol\":3773:3778  false */\n      0x00\n        /* \"smart_contracts/contracts/Token.sol\":3756:3778  admin[_owner] != false */\n      iszero\n      iszero\n        /* \"smart_contracts/contracts/Token.sol\":3756:3761  admin */\n      0x00\n        /* \"smart_contracts/contracts/Token.sol\":3756:3769  admin[_owner] */\n      dup1\n        /* \"smart_contracts/contracts/Token.sol\":3762:3768  _owner */\n      dup6\n        /* \"smart_contracts/contracts/Token.sol\":3756:3769  admin[_owner] */\n      0xffffffffffffffffffffffffffffffffffffffff\n      and\n      0xffffffffffffffffffffffffffffffffffffffff\n      and\n      dup2\n      mstore\n      0x20\n      add\n      swap1\n      dup2\n      mstore\n      0x20\n      add\n      0x00\n      keccak256\n      0x00\n      swap1\n      sload\n      swap1\n      0x0100\n      exp\n      swap1\n      div\n      0xff\n      and\n        /* \"smart_contracts/contracts/Token.sol\":3756:3778  admin[_owner] != false */\n      iszero\n      iszero\n      eq\n      iszero\n        /* \"smart_contracts/contracts/Token.sol\":3720:3778  _owner != address(0) &&... */\n    tag_234:\n        /* \"smart_contracts/contracts/Token.sol\":3699:3788  require(... */\n      tag_235\n      jumpi\n      0x00\n      dup1\n      revert\n    tag_235:\n        /* \"smart_contracts/contracts/Token.sol\":3814:3819  false */\n      0x00\n        /* \"smart_contracts/contracts/Token.sol\":3798:3803  admin */\n      dup1\n        /* \"smart_contracts/contracts/Token.sol\":3798:3811  admin[_owner] */\n      0x00\n        /* \"smart_contracts/contracts/Token.sol\":3804:3810  _owner */\n      dup6\n        /* \"smart_contracts/contracts/Token.sol\":3798:3811  admin[_owner] */\n      0xffffffffffffffffffffffffffffffffffffffff\n      and\n      0xffffffffffffffffffffffffffffffffffffffff\n      and\n      dup2\n      mstore\n      0x20\n      add\n      swap1\n      dup2\n      mstore\n      0x20\n      add\n      0x00\n      keccak256\n      0x00\n        /* \"smart_contracts/contracts/Token.sol\":3798:3819  admin[_owner] = false */\n      0x0100\n      exp\n      dup2\n      sload\n      dup2\n      0xff\n      mul\n      not\n      and\n      swap1\n      dup4\n      iszero\n      iszero\n      mul\n      or\n      swap1\n      sstore\n      pop\n        /* \"smart_contracts/contracts/Token.sol\":3836:3840  true */\n      0x01\n        /* \"smart_contracts/contracts/Token.sol\":3829:3840  return true */\n      swap2\n      pop\n        /* \"smart_contracts/contracts/Token.sol\":3219:3364  {... */\n      pop\n        /* \"smart_contracts/contracts/Token.sol\":3610:3847  function revokePermissionAdmin(address _owner) public onlyAdmin returns (bool) {... */\n      swap2\n      swap1\n      pop\n      jump\t// out\n        /* \"smart_contracts/contracts/Token.sol\":18228:18358  function allowance(address _owner, address _spender) external view returns (uint256 remaining) {return allowed[_owner][_spender];} */\n    tag_130:\n        /* \"smart_contracts/contracts/Token.sol\":18304:18321  uint256 remaining */\n      0x00\n        /* \"smart_contracts/contracts/Token.sol\":18331:18338  allowed */\n      0x14\n        /* \"smart_contracts/contracts/Token.sol\":18331:18346  allowed[_owner] */\n      0x00\n        /* \"smart_contracts/contracts/Token.sol\":18339:18345  _owner */\n      dup5\n        /* \"smart_contracts/contracts/Token.sol\":18331:18346  allowed[_owner] */\n      0xffffffffffffffffffffffffffffffffffffffff\n      and\n      0xffffffffffffffffffffffffffffffffffffffff\n      and\n      dup2\n      mstore\n      0x20\n      add\n      swap1\n      dup2\n      mstore\n      0x20\n      add\n      0x00\n      keccak256\n        /* \"smart_contracts/contracts/Token.sol\":18331:18356  allowed[_owner][_spender] */\n      0x00\n        /* \"smart_contracts/contracts/Token.sol\":18347:18355  _spender */\n      dup4\n        /* \"smart_contracts/contracts/Token.sol\":18331:18356  allowed[_owner][_spender] */\n      0xffffffffffffffffffffffffffffffffffffffff\n      and\n      0xffffffffffffffffffffffffffffffffffffffff\n      and\n      dup2\n      mstore\n      0x20\n      add\n      swap1\n      dup2\n      mstore\n      0x20\n      add\n      0x00\n      keccak256\n      sload\n        /* \"smart_contracts/contracts/Token.sol\":18324:18356  return allowed[_owner][_spender] */\n      swap1\n      pop\n        /* \"smart_contracts/contracts/Token.sol\":18228:18358  function allowance(address _owner, address _spender) external view returns (uint256 remaining) {return allowed[_owner][_spender];} */\n      swap3\n      swap2\n      pop\n      pop\n      jump\t// out\n        /* \"smart_contracts/contracts/Token.sol\":15354:15552  function mintWithVesting(address _to, uint256 _value, uint256 _duration, string memory _caption) external onlyAdmin returns (bool) {... */\n    tag_135:\n        /* \"smart_contracts/contracts/Token.sol\":15479:15483  bool */\n      0x00\n        /* \"smart_contracts/contracts/Token.sol\":3229:3244  address _sender */\n      dup1\n        /* \"smart_contracts/contracts/Token.sol\":3247:3257  msg.sender */\n      caller\n        /* \"smart_contracts/contracts/Token.sol\":3229:3257  address _sender = msg.sender */\n      swap1\n      pop\n        /* \"smart_contracts/contracts/Token.sol\":3306:3311  false */\n      0x00\n        /* \"smart_contracts/contracts/Token.sol\":3288:3311  admin[_sender] != false */\n      iszero\n      iszero\n        /* \"smart_contracts/contracts/Token.sol\":3288:3293  admin */\n      0x00\n        /* \"smart_contracts/contracts/Token.sol\":3288:3302  admin[_sender] */\n      dup1\n        /* \"smart_contracts/contracts/Token.sol\":3294:3301  _sender */\n      dup4\n        /* \"smart_contracts/contracts/Token.sol\":3288:3302  admin[_sender] */\n      0xffffffffffffffffffffffffffffffffffffffff\n      and\n      0xffffffffffffffffffffffffffffffffffffffff\n      and\n      dup2\n      mstore\n      0x20\n      add\n      swap1\n      dup2\n      mstore\n      0x20\n      add\n      0x00\n      keccak256\n      0x00\n      swap1\n      sload\n      swap1\n      0x0100\n      exp\n      swap1\n      div\n      0xff\n      and\n        /* \"smart_contracts/contracts/Token.sol\":3288:3311  admin[_sender] != false */\n      iszero\n      iszero\n      sub\n        /* \"smart_contracts/contracts/Token.sol\":3267:3346  require(... */\n      tag_238\n      jumpi\n      mload(0x40)\n      0x08c379a000000000000000000000000000000000000000000000000000000000\n      dup2\n      mstore\n      0x04\n      add\n      tag_239\n      swap1\n      tag_146\n      jump\t// in\n    tag_239:\n      mload(0x40)\n      dup1\n      swap2\n      sub\n      swap1\n      revert\n    tag_238:\n        /* \"smart_contracts/contracts/Token.sol\":15495:15545  mintWithVesting_(_to, _value, _duration, _caption) */\n      tag_241\n        /* \"smart_contracts/contracts/Token.sol\":15512:15515  _to */\n      dup7\n        /* \"smart_contracts/contracts/Token.sol\":15517:15523  _value */\n      dup7\n        /* \"smart_contracts/contracts/Token.sol\":15525:15534  _duration */\n      dup7\n        /* \"smart_contracts/contracts/Token.sol\":15536:15544  _caption */\n      dup7\n        /* \"smart_contracts/contracts/Token.sol\":15495:15511  mintWithVesting_ */\n      tag_242\n        /* \"smart_contracts/contracts/Token.sol\":15495:15545  mintWithVesting_(_to, _value, _duration, _caption) */\n      jump\t// in\n    tag_241:\n      pop\n        /* \"smart_contracts/contracts/Token.sol\":3219:3364  {... */\n      pop\n        /* \"smart_contracts/contracts/Token.sol\":15354:15552  function mintWithVesting(address _to, uint256 _value, uint256 _duration, string memory _caption) external onlyAdmin returns (bool) {... */\n      swap5\n      swap4\n      pop\n      pop\n      pop\n      pop\n      jump\t// out\n        /* \"smart_contracts/contracts/Token.sol\":14203:14892  function release(string memory _caption) external returns (bool) {... */\n    tag_140:\n        /* \"smart_contracts/contracts/Token.sol\":14262:14266  bool */\n      0x00\n        /* \"smart_contracts/contracts/Token.sol\":14278:14291  address _from */\n      dup1\n        /* \"smart_contracts/contracts/Token.sol\":14294:14298  meta */\n      0x07\n        /* \"smart_contracts/contracts/Token.sol\":14294:14304  meta.vault */\n      0x09\n      add\n      0x00\n      swap1\n      sload\n      swap1\n      0x0100\n      exp\n      swap1\n      div\n      0xffffffffffffffffffffffffffffffffffffffff\n      and\n        /* \"smart_contracts/contracts/Token.sol\":14278:14304  address _from = meta.vault */\n      swap1\n      pop\n        /* \"smart_contracts/contracts/Token.sol\":14314:14325  address _to */\n      0x00\n        /* \"smart_contracts/contracts/Token.sol\":14328:14338  msg.sender */\n      caller\n        /* \"smart_contracts/contracts/Token.sol\":14314:14338  address _to = msg.sender */\n      swap1\n      pop\n        /* \"smart_contracts/contracts/Token.sol\":14348:14360  uint256 _end */\n      0x00\n        /* \"smart_contracts/contracts/Token.sol\":14363:14372  schedules */\n      0x15\n        /* \"smart_contracts/contracts/Token.sol\":14363:14377  schedules[_to] */\n      0x00\n        /* \"smart_contracts/contracts/Token.sol\":14373:14376  _to */\n      dup4\n        /* \"smart_contracts/contracts/Token.sol\":14363:14377  schedules[_to] */\n      0xffffffffffffffffffffffffffffffffffffffff\n      and\n      0xffffffffffffffffffffffffffffffffffffffff\n      and\n      dup2\n      mstore\n      0x20\n      add\n      swap1\n      dup2\n      mstore\n      0x20\n      add\n      0x00\n      keccak256\n        /* \"smart_contracts/contracts/Token.sol\":14378:14386  _caption */\n      dup6\n        /* \"smart_contracts/contracts/Token.sol\":14363:14387  schedules[_to][_caption] */\n      mload(0x40)\n      tag_244\n      swap2\n      swap1\n      tag_245\n      jump\t// in\n    tag_244:\n      swap1\n      dup2\n      mstore\n      0x20\n      add\n      mload(0x40)\n      dup1\n      swap2\n      sub\n      swap1\n      keccak256\n        /* \"smart_contracts/contracts/Token.sol\":14363:14391  schedules[_to][_caption].end */\n      0x03\n      add\n      sload\n        /* \"smart_contracts/contracts/Token.sol\":14348:14391  uint256 _end = schedules[_to][_caption].end */\n      swap1\n      pop\n        /* \"smart_contracts/contracts/Token.sol\":14401:14415  uint256 _value */\n      0x00\n        /* \"smart_contracts/contracts/Token.sol\":14418:14427  schedules */\n      0x15\n        /* \"smart_contracts/contracts/Token.sol\":14418:14432  schedules[_to] */\n      0x00\n        /* \"smart_contracts/contracts/Token.sol\":14428:14431  _to */\n      dup5\n        /* \"smart_contracts/contracts/Token.sol\":14418:14432  schedules[_to] */\n      0xffffffffffffffffffffffffffffffffffffffff\n      and\n      0xffffffffffffffffffffffffffffffffffffffff\n      and\n      dup2\n      mstore\n      0x20\n      add\n      swap1\n      dup2\n      mstore\n      0x20\n      add\n      0x00\n      keccak256\n        /* \"smart_contracts/contracts/Token.sol\":14433:14441  _caption */\n      dup7\n        /* \"smart_contracts/contracts/Token.sol\":14418:14442  schedules[_to][_caption] */\n      mload(0x40)\n      tag_246\n      swap2\n      swap1\n      tag_245\n      jump\t// in\n    tag_246:\n      swap1\n      dup2\n      mstore\n      0x20\n      add\n      mload(0x40)\n      dup1\n      swap2\n      sub\n      swap1\n      keccak256\n        /* \"smart_contracts/contracts/Token.sol\":14418:14448  schedules[_to][_caption].value */\n      0x04\n      add\n      sload\n        /* \"smart_contracts/contracts/Token.sol\":14401:14448  uint256 _value = schedules[_to][_caption].value */\n      swap1\n      pop\n        /* \"smart_contracts/contracts/Token.sol\":14487:14502  block.timestamp */\n      timestamp\n        /* \"smart_contracts/contracts/Token.sol\":14479:14483  _end */\n      dup3\n        /* \"smart_contracts/contracts/Token.sol\":14479:14502  _end >= block.timestamp */\n      lt\n      iszero\n        /* \"smart_contracts/contracts/Token.sol\":14479:14528  _end >= block.timestamp &&... */\n      dup1\n      iszero\n      tag_247\n      jumpi\n      pop\n        /* \"smart_contracts/contracts/Token.sol\":14527:14528  0 */\n      0x00\n        /* \"smart_contracts/contracts/Token.sol\":14518:14524  _value */\n      dup2\n        /* \"smart_contracts/contracts/Token.sol\":14518:14528  _value > 0 */\n      gt\n        /* \"smart_contracts/contracts/Token.sol\":14479:14528  _end >= block.timestamp &&... */\n    tag_247:\n        /* \"smart_contracts/contracts/Token.sol\":14458:14538  require(... */\n      tag_248\n      jumpi\n      0x00\n      dup1\n      revert\n    tag_248:\n        /* \"smart_contracts/contracts/Token.sol\":14548:14566  uint256 _bpFeeBurn */\n      0x00\n        /* \"smart_contracts/contracts/Token.sol\":14569:14577  settings */\n      0x01\n        /* \"smart_contracts/contracts/Token.sol\":14569:14592  settings.bpTransferBurn */\n      0x04\n      add\n      sload\n        /* \"smart_contracts/contracts/Token.sol\":14548:14592  uint256 _bpFeeBurn = settings.bpTransferBurn */\n      swap1\n      pop\n        /* \"smart_contracts/contracts/Token.sol\":14602:14620  uint256 _bpFeeBank */\n      0x00\n        /* \"smart_contracts/contracts/Token.sol\":14623:14631  settings */\n      0x01\n        /* \"smart_contracts/contracts/Token.sol\":14623:14646  settings.bpTransferBank */\n      0x05\n      add\n      sload\n        /* \"smart_contracts/contracts/Token.sol\":14602:14646  uint256 _bpFeeBank = settings.bpTransferBank */\n      swap1\n      pop\n        /* \"smart_contracts/contracts/Token.sol\":14657:14670  bool _success */\n      0x00\n        /* \"smart_contracts/contracts/Token.sol\":14672:14689  uint256 _newValue */\n      dup1\n        /* \"smart_contracts/contracts/Token.sol\":14693:14816  transfer_(... */\n      tag_249\n        /* \"smart_contracts/contracts/Token.sol\":14716:14721  _from */\n      dup9\n        /* \"smart_contracts/contracts/Token.sol\":14735:14738  _to */\n      dup9\n        /* \"smart_contracts/contracts/Token.sol\":14752:14758  _value */\n      dup8\n        /* \"smart_contracts/contracts/Token.sol\":14772:14782  _bpFeeBurn */\n      dup8\n        /* \"smart_contracts/contracts/Token.sol\":14796:14806  _bpFeeBank */\n      dup8\n        /* \"smart_contracts/contracts/Token.sol\":14693:14702  transfer_ */\n      tag_178\n        /* \"smart_contracts/contracts/Token.sol\":14693:14816  transfer_(... */\n      jump\t// in\n    tag_249:\n        /* \"smart_contracts/contracts/Token.sol\":14656:14816  (bool _success, uint256 _newValue) = transfer_(... */\n      swap2\n      pop\n      swap2\n      pop\n        /* \"smart_contracts/contracts/Token.sol\":14859:14860  0 */\n      0x00\n        /* \"smart_contracts/contracts/Token.sol\":14826:14835  schedules */\n      0x15\n        /* \"smart_contracts/contracts/Token.sol\":14826:14840  schedules[_to] */\n      0x00\n        /* \"smart_contracts/contracts/Token.sol\":14836:14839  _to */\n      dup10\n        /* \"smart_contracts/contracts/Token.sol\":14826:14840  schedules[_to] */\n      0xffffffffffffffffffffffffffffffffffffffff\n      and\n      0xffffffffffffffffffffffffffffffffffffffff\n      and\n      dup2\n      mstore\n      0x20\n      add\n      swap1\n      dup2\n      mstore\n      0x20\n      add\n      0x00\n      keccak256\n        /* \"smart_contracts/contracts/Token.sol\":14841:14849  _caption */\n      dup12\n        /* \"smart_contracts/contracts/Token.sol\":14826:14850  schedules[_to][_caption] */\n      mload(0x40)\n      tag_250\n      swap2\n      swap1\n      tag_245\n      jump\t// in\n    tag_250:\n      swap1\n      dup2\n      mstore\n      0x20\n      add\n      mload(0x40)\n      dup1\n      swap2\n      sub\n      swap1\n      keccak256\n        /* \"smart_contracts/contracts/Token.sol\":14826:14856  schedules[_to][_caption].value */\n      0x04\n      add\n        /* \"smart_contracts/contracts/Token.sol\":14826:14860  schedules[_to][_caption].value = 0 */\n      dup2\n      swap1\n      sstore\n      pop\n        /* \"smart_contracts/contracts/Token.sol\":14877:14885  _success */\n      dup2\n        /* \"smart_contracts/contracts/Token.sol\":14870:14885  return _success */\n      swap9\n      pop\n      pop\n      pop\n      pop\n      pop\n      pop\n      pop\n      pop\n      pop\n        /* \"smart_contracts/contracts/Token.sol\":14203:14892  function release(string memory _caption) external returns (bool) {... */\n      swap2\n      swap1\n      pop\n      jump\t// out\n        /* \"smart_contracts/contracts/Token.sol\":918:1457  function uint256ToString(uint256 _value) internal pure returns (string memory) {... */\n    tag_142:\n        /* \"smart_contracts/contracts/Token.sol\":982:995  string memory */\n      0x60\n        /* \"smart_contracts/contracts/Token.sol\":1021:1022  0 */\n      0x00\n        /* \"smart_contracts/contracts/Token.sol\":1011:1017  _value */\n      dup3\n        /* \"smart_contracts/contracts/Token.sol\":1011:1022  _value == 0 */\n      sub\n        /* \"smart_contracts/contracts/Token.sol\":1007:1059  if (_value == 0) {... */\n      tag_252\n      jumpi\n        /* \"smart_contracts/contracts/Token.sol\":1038:1048  return \"0\" */\n      mload(0x40)\n      dup1\n      0x40\n      add\n      0x40\n      mstore\n      dup1\n      0x01\n      dup2\n      mstore\n      0x20\n      add\n      0x3000000000000000000000000000000000000000000000000000000000000000\n      dup2\n      mstore\n      pop\n      swap1\n      pop\n      jump(tag_251)\n        /* \"smart_contracts/contracts/Token.sol\":1007:1059  if (_value == 0) {... */\n    tag_252:\n        /* \"smart_contracts/contracts/Token.sol\":1068:1081  uint256 _temp */\n      0x00\n        /* \"smart_contracts/contracts/Token.sol\":1084:1090  _value */\n      dup3\n        /* \"smart_contracts/contracts/Token.sol\":1068:1090  uint256 _temp = _value */\n      swap1\n      pop\n        /* \"smart_contracts/contracts/Token.sol\":1100:1115  uint256 _digits */\n      0x00\n        /* \"smart_contracts/contracts/Token.sol\":1125:1203  while (_temp != 0) {... */\n    tag_253:\n        /* \"smart_contracts/contracts/Token.sol\":1141:1142  0 */\n      0x00\n        /* \"smart_contracts/contracts/Token.sol\":1132:1137  _temp */\n      dup3\n        /* \"smart_contracts/contracts/Token.sol\":1132:1142  _temp != 0 */\n      eq\n        /* \"smart_contracts/contracts/Token.sol\":1125:1203  while (_temp != 0) {... */\n      tag_254\n      jumpi\n        /* \"smart_contracts/contracts/Token.sol\":1158:1167  _digits++ */\n      dup1\n      dup1\n      tag_255\n      swap1\n      tag_256\n      jump\t// in\n    tag_255:\n      swap2\n      pop\n      pop\n        /* \"smart_contracts/contracts/Token.sol\":1190:1192  10 */\n      0x0a\n        /* \"smart_contracts/contracts/Token.sol\":1181:1192  _temp /= 10 */\n      dup3\n      tag_257\n      swap2\n      swap1\n      tag_258\n      jump\t// in\n    tag_257:\n      swap2\n      pop\n        /* \"smart_contracts/contracts/Token.sol\":1125:1203  while (_temp != 0) {... */\n      jump(tag_253)\n    tag_254:\n        /* \"smart_contracts/contracts/Token.sol\":1212:1232  bytes memory _buffer */\n      0x00\n        /* \"smart_contracts/contracts/Token.sol\":1245:1252  _digits */\n      dup2\n        /* \"smart_contracts/contracts/Token.sol\":1235:1253  new bytes(_digits) */\n      0xffffffffffffffff\n      dup2\n      gt\n      iszero\n      tag_259\n      jumpi\n      tag_260\n      tag_261\n      jump\t// in\n    tag_260:\n    tag_259:\n      mload(0x40)\n      swap1\n      dup1\n      dup3\n      mstore\n      dup1\n      0x1f\n      add\n      not(0x1f)\n      and\n      0x20\n      add\n      dup3\n      add\n      0x40\n      mstore\n      dup1\n      iszero\n      tag_262\n      jumpi\n      dup2\n      0x20\n      add\n      0x01\n      dup3\n      mul\n      dup1\n      calldatasize\n      dup4\n      calldatacopy\n      dup1\n      dup3\n      add\n      swap2\n      pop\n      pop\n      swap1\n      pop\n    tag_262:\n      pop\n        /* \"smart_contracts/contracts/Token.sol\":1212:1253  bytes memory _buffer = new bytes(_digits) */\n      swap1\n      pop\n        /* \"smart_contracts/contracts/Token.sol\":1263:1419  while (_value != 0) {... */\n    tag_263:\n        /* \"smart_contracts/contracts/Token.sol\":1280:1281  0 */\n      0x00\n        /* \"smart_contracts/contracts/Token.sol\":1270:1276  _value */\n      dup6\n        /* \"smart_contracts/contracts/Token.sol\":1270:1281  _value != 0 */\n      eq\n        /* \"smart_contracts/contracts/Token.sol\":1263:1419  while (_value != 0) {... */\n      tag_264\n      jumpi\n        /* \"smart_contracts/contracts/Token.sol\":1308:1309  1 */\n      0x01\n        /* \"smart_contracts/contracts/Token.sol\":1297:1309  _digits -= 1 */\n      dup3\n      tag_265\n      swap2\n      swap1\n      tag_176\n      jump\t// in\n    tag_265:\n      swap2\n      pop\n        /* \"smart_contracts/contracts/Token.sol\":1377:1379  19 */\n      0x13\n        /* \"smart_contracts/contracts/Token.sol\":1368:1374  _value */\n      dup6\n        /* \"smart_contracts/contracts/Token.sol\":1368:1379  _value % 19 */\n      tag_266\n      swap2\n      swap1\n      tag_267\n      jump\t// in\n    tag_266:\n        /* \"smart_contracts/contracts/Token.sol\":1355:1357  48 */\n      0x30\n        /* \"smart_contracts/contracts/Token.sol\":1355:1380  48 + uint256(_value % 19) */\n      tag_268\n      swap2\n      swap1\n      tag_223\n      jump\t// in\n    tag_268:\n        /* \"smart_contracts/contracts/Token.sol\":1342:1382  bytes1(uint8(48 + uint256(_value % 19))) */\n      0xf8\n      shl\n        /* \"smart_contracts/contracts/Token.sol\":1323:1330  _buffer */\n      dup2\n        /* \"smart_contracts/contracts/Token.sol\":1331:1338  _digits */\n      dup4\n        /* \"smart_contracts/contracts/Token.sol\":1323:1339  _buffer[_digits] */\n      dup2\n      mload\n      dup2\n      lt\n      tag_269\n      jumpi\n      tag_270\n      tag_271\n      jump\t// in\n    tag_270:\n    tag_269:\n      0x20\n      add\n      add\n        /* \"smart_contracts/contracts/Token.sol\":1323:1382  _buffer[_digits] = bytes1(uint8(48 + uint256(_value % 19))) */\n      swap1\n      not(0xffffffffffffffffffffffffffffffffffffffffffffffffffffffffffffff)\n      and\n      swap1\n      dup2\n      0x00\n      byte\n      swap1\n      mstore8\n      pop\n        /* \"smart_contracts/contracts/Token.sol\":1406:1408  10 */\n      0x0a\n        /* \"smart_contracts/contracts/Token.sol\":1396:1408  _value /= 10 */\n      dup6\n      tag_272\n      swap2\n      swap1\n      tag_258\n      jump\t// in\n    tag_272:\n      swap5\n      pop\n        /* \"smart_contracts/contracts/Token.sol\":1263:1419  while (_value != 0) {... */\n      jump(tag_263)\n    tag_264:\n        /* \"smart_contracts/contracts/Token.sol\":1442:1449  _buffer */\n      dup1\n        /* \"smart_contracts/contracts/Token.sol\":1428:1450  return string(_buffer) */\n      swap4\n      pop\n      pop\n      pop\n      pop\n        /* \"smart_contracts/contracts/Token.sol\":918:1457  function uint256ToString(uint256 _value) internal pure returns (string memory) {... */\n    tag_251:\n      swap2\n      swap1\n      pop\n      jump\t// out\n        /* \"smart_contracts/contracts/Token.sol\":9455:10379  function transfer_(address _from, address _to, uint256 _value, uint256 _bpFeeBurn, uint256 _bpFeeBank) internal returns (bool, uint256) {... */\n    tag_178:\n        /* \"smart_contracts/contracts/Token.sol\":9576:9580  bool */\n      0x00\n        /* \"smart_contracts/contracts/Token.sol\":9582:9589  uint256 */\n      dup1\n        /* \"smart_contracts/contracts/Token.sol\":9650:9651  0 */\n      0x00\n        /* \"smart_contracts/contracts/Token.sol\":9622:9652  _from            != address(0) */\n      0xffffffffffffffffffffffffffffffffffffffff\n      and\n        /* \"smart_contracts/contracts/Token.sol\":9622:9627  _from */\n      dup8\n        /* \"smart_contracts/contracts/Token.sol\":9622:9652  _from            != address(0) */\n      0xffffffffffffffffffffffffffffffffffffffff\n      and\n      eq\n      iszero\n        /* \"smart_contracts/contracts/Token.sol\":9622:9698  _from            != address(0) &&... */\n      dup1\n      iszero\n      tag_274\n      jumpi\n      pop\n        /* \"smart_contracts/contracts/Token.sol\":9696:9697  0 */\n      0x00\n        /* \"smart_contracts/contracts/Token.sol\":9668:9698  _to              != address(0) */\n      0xffffffffffffffffffffffffffffffffffffffff\n      and\n        /* \"smart_contracts/contracts/Token.sol\":9668:9671  _to */\n      dup7\n        /* \"smart_contracts/contracts/Token.sol\":9668:9698  _to              != address(0) */\n      0xffffffffffffffffffffffffffffffffffffffff\n      and\n      eq\n      iszero\n        /* \"smart_contracts/contracts/Token.sol\":9622:9698  _from            != address(0) &&... */\n    tag_274:\n        /* \"smart_contracts/contracts/Token.sol\":9622:9740  _from            != address(0) &&... */\n      dup1\n      iszero\n      tag_275\n      jumpi\n      pop\n        /* \"smart_contracts/contracts/Token.sol\":9734:9740  _value */\n      dup5\n        /* \"smart_contracts/contracts/Token.sol\":9714:9721  balance */\n      0x11\n        /* \"smart_contracts/contracts/Token.sol\":9714:9728  balance[_from] */\n      0x00\n        /* \"smart_contracts/contracts/Token.sol\":9722:9727  _from */\n      dup10\n        /* \"smart_contracts/contracts/Token.sol\":9714:9728  balance[_from] */\n      0xffffffffffffffffffffffffffffffffffffffff\n      and\n      0xffffffffffffffffffffffffffffffffffffffff\n      and\n      dup2\n      mstore\n      0x20\n      add\n      swap1\n      dup2\n      mstore\n      0x20\n      add\n      0x00\n      keccak256\n      sload\n        /* \"smart_contracts/contracts/Token.sol\":9714:9740  balance[_from]   >= _value */\n      lt\n      iszero\n        /* \"smart_contracts/contracts/Token.sol\":9622:9740  _from            != address(0) &&... */\n    tag_275:\n        /* \"smart_contracts/contracts/Token.sol\":9622:9777  _from            != address(0) &&... */\n      dup1\n      iszero\n      tag_276\n      jumpi\n      pop\n        /* \"smart_contracts/contracts/Token.sol\":9776:9777  0 */\n      0x00\n        /* \"smart_contracts/contracts/Token.sol\":9756:9763  balance */\n      0x11\n        /* \"smart_contracts/contracts/Token.sol\":9756:9770  balance[_from] */\n      0x00\n        /* \"smart_contracts/contracts/Token.sol\":9764:9769  _from */\n      dup10\n        /* \"smart_contracts/contracts/Token.sol\":9756:9770  balance[_from] */\n      0xffffffffffffffffffffffffffffffffffffffff\n      and\n      0xffffffffffffffffffffffffffffffffffffffff\n      and\n      dup2\n      mstore\n      0x20\n      add\n      swap1\n      dup2\n      mstore\n      0x20\n      add\n      0x00\n      keccak256\n      sload\n        /* \"smart_contracts/contracts/Token.sol\":9756:9777  balance[_from]   >= 0 */\n      lt\n      iszero\n        /* \"smart_contracts/contracts/Token.sol\":9622:9777  _from            != address(0) &&... */\n    tag_276:\n        /* \"smart_contracts/contracts/Token.sol\":9622:9814  _from            != address(0) &&... */\n      dup1\n      iszero\n      tag_277\n      jumpi\n      pop\n        /* \"smart_contracts/contracts/Token.sol\":9813:9814  0 */\n      0x00\n        /* \"smart_contracts/contracts/Token.sol\":9793:9799  _value */\n      dup6\n        /* \"smart_contracts/contracts/Token.sol\":9793:9814  _value           >= 0 */\n      lt\n      iszero\n        /* \"smart_contracts/contracts/Token.sol\":9622:9814  _from            != address(0) &&... */\n    tag_277:\n        /* \"smart_contracts/contracts/Token.sol\":9601:9824  require(... */\n      tag_278\n      jumpi\n      0x00\n      dup1\n      revert\n    tag_278:\n        /* \"smart_contracts/contracts/Token.sol\":9852:9858  _value */\n      dup5\n        /* \"smart_contracts/contracts/Token.sol\":9834:9841  balance */\n      0x11\n        /* \"smart_contracts/contracts/Token.sol\":9834:9848  balance[_from] */\n      0x00\n        /* \"smart_contracts/contracts/Token.sol\":9842:9847  _from */\n      dup10\n        /* \"smart_contracts/contracts/Token.sol\":9834:9848  balance[_from] */\n      0xffffffffffffffffffffffffffffffffffffffff\n      and\n      0xffffffffffffffffffffffffffffffffffffffff\n      and\n      dup2\n      mstore\n      0x20\n      add\n      swap1\n      dup2\n      mstore\n      0x20\n      add\n      0x00\n      keccak256\n      0x00\n        /* \"smart_contracts/contracts/Token.sol\":9834:9858  balance[_from] -= _value */\n      dup3\n      dup3\n      sload\n      tag_279\n      swap2\n      swap1\n      tag_176\n      jump\t// in\n    tag_279:\n      swap3\n      pop\n      pop\n      dup2\n      swap1\n      sstore\n      pop\n        /* \"smart_contracts/contracts/Token.sol\":9868:9884  uint256 _feeBurn */\n      0x00\n        /* \"smart_contracts/contracts/Token.sol\":9905:9915  _bpFeeBurn */\n      dup5\n        /* \"smart_contracts/contracts/Token.sol\":9897:9901  1000 */\n      0x03e8\n        /* \"smart_contracts/contracts/Token.sol\":9888:9894  _value */\n      dup8\n        /* \"smart_contracts/contracts/Token.sol\":9888:9901  _value / 1000 */\n      tag_280\n      swap2\n      swap1\n      tag_258\n      jump\t// in\n    tag_280:\n        /* \"smart_contracts/contracts/Token.sol\":9887:9915  (_value / 1000) * _bpFeeBurn */\n      tag_281\n      swap2\n      swap1\n      tag_282\n      jump\t// in\n    tag_281:\n        /* \"smart_contracts/contracts/Token.sol\":9868:9915  uint256 _feeBurn = (_value / 1000) * _bpFeeBurn */\n      swap1\n      pop\n        /* \"smart_contracts/contracts/Token.sol\":9925:9941  uint256 _feeBank */\n      0x00\n        /* \"smart_contracts/contracts/Token.sol\":9962:9972  _bpFeeBank */\n      dup5\n        /* \"smart_contracts/contracts/Token.sol\":9954:9958  1000 */\n      0x03e8\n        /* \"smart_contracts/contracts/Token.sol\":9945:9951  _value */\n      dup9\n        /* \"smart_contracts/contracts/Token.sol\":9945:9958  _value / 1000 */\n      tag_283\n      swap2\n      swap1\n      tag_258\n      jump\t// in\n    tag_283:\n        /* \"smart_contracts/contracts/Token.sol\":9944:9972  (_value / 1000) * _bpFeeBank */\n      tag_284\n      swap2\n      swap1\n      tag_282\n      jump\t// in\n    tag_284:\n        /* \"smart_contracts/contracts/Token.sol\":9925:9972  uint256 _feeBank = (_value / 1000) * _bpFeeBank */\n      swap1\n      pop\n        /* \"smart_contracts/contracts/Token.sol\":9982:9999  uint256 _newValue */\n      0x00\n        /* \"smart_contracts/contracts/Token.sol\":10023:10031  _feeBank */\n      dup2\n        /* \"smart_contracts/contracts/Token.sol\":10012:10020  _feeBurn */\n      dup4\n        /* \"smart_contracts/contracts/Token.sol\":10012:10031  _feeBurn + _feeBank */\n      tag_285\n      swap2\n      swap1\n      tag_223\n      jump\t// in\n    tag_285:\n        /* \"smart_contracts/contracts/Token.sol\":10002:10008  _value */\n      dup9\n        /* \"smart_contracts/contracts/Token.sol\":10002:10032  _value - (_feeBurn + _feeBank) */\n      tag_286\n      swap2\n      swap1\n      tag_176\n      jump\t// in\n    tag_286:\n        /* \"smart_contracts/contracts/Token.sol\":9982:10032  uint256 _newValue = _value - (_feeBurn + _feeBank) */\n      swap1\n      pop\n        /* \"smart_contracts/contracts/Token.sol\":10058:10067  _newValue */\n      dup1\n        /* \"smart_contracts/contracts/Token.sol\":10042:10049  balance */\n      0x11\n        /* \"smart_contracts/contracts/Token.sol\":10042:10054  balance[_to] */\n      0x00\n        /* \"smart_contracts/contracts/Token.sol\":10050:10053  _to */\n      dup12\n        /* \"smart_contracts/contracts/Token.sol\":10042:10054  balance[_to] */\n      0xffffffffffffffffffffffffffffffffffffffff\n      and\n      0xffffffffffffffffffffffffffffffffffffffff\n      and\n      dup2\n      mstore\n      0x20\n      add\n      swap1\n      dup2\n      mstore\n      0x20\n      add\n      0x00\n      keccak256\n      0x00\n        /* \"smart_contracts/contracts/Token.sol\":10042:10067  balance[_to] += _newValue */\n      dup3\n      dup3\n      sload\n      tag_287\n      swap2\n      swap1\n      tag_223\n      jump\t// in\n    tag_287:\n      swap3\n      pop\n      pop\n      dup2\n      swap1\n      sstore\n      pop\n        /* \"smart_contracts/contracts/Token.sol\":10100:10108  _feeBank */\n      dup2\n        /* \"smart_contracts/contracts/Token.sol\":10077:10084  balance */\n      0x11\n        /* \"smart_contracts/contracts/Token.sol\":10077:10096  balance[meta.vault] */\n      0x00\n        /* \"smart_contracts/contracts/Token.sol\":10085:10089  meta */\n      0x07\n        /* \"smart_contracts/contracts/Token.sol\":10085:10095  meta.vault */\n      0x09\n      add\n      0x00\n      swap1\n      sload\n      swap1\n      0x0100\n      exp\n      swap1\n      div\n      0xffffffffffffffffffffffffffffffffffffffff\n      and\n        /* \"smart_contracts/contracts/Token.sol\":10077:10096  balance[meta.vault] */\n      0xffffffffffffffffffffffffffffffffffffffff\n      and\n      0xffffffffffffffffffffffffffffffffffffffff\n      and\n      dup2\n      mstore\n      0x20\n      add\n      swap1\n      dup2\n      mstore\n      0x20\n      add\n      0x00\n      keccak256\n      0x00\n        /* \"smart_contracts/contracts/Token.sol\":10077:10108  balance[meta.vault] += _feeBank */\n      dup3\n      dup3\n      sload\n      tag_288\n      swap2\n      swap1\n      tag_223\n      jump\t// in\n    tag_288:\n      swap3\n      pop\n      pop\n      dup2\n      swap1\n      sstore\n      pop\n        /* \"smart_contracts/contracts/Token.sol\":10138:10146  _feeBurn */\n      dup3\n        /* \"smart_contracts/contracts/Token.sol\":10118:10122  meta */\n      0x07\n        /* \"smart_contracts/contracts/Token.sol\":10118:10134  meta.totalSupply */\n      0x04\n      add\n      0x00\n        /* \"smart_contracts/contracts/Token.sol\":10118:10146  meta.totalSupply -= _feeBurn */\n      dup3\n      dup3\n      sload\n      tag_289\n      swap2\n      swap1\n      tag_176\n      jump\t// in\n    tag_289:\n      swap3\n      pop\n      pop\n      dup2\n      swap1\n      sstore\n      pop\n        /* \"smart_contracts/contracts/Token.sol\":10177:10180  _to */\n      dup9\n        /* \"smart_contracts/contracts/Token.sol\":10161:10192  Transfer(_from, _to, _newValue) */\n      0xffffffffffffffffffffffffffffffffffffffff\n      and\n        /* \"smart_contracts/contracts/Token.sol\":10170:10175  _from */\n      dup11\n        /* \"smart_contracts/contracts/Token.sol\":10161:10192  Transfer(_from, _to, _newValue) */\n      0xffffffffffffffffffffffffffffffffffffffff\n      and\n      0xddf252ad1be2c89b69c2b068fc378daa952ba7f163c4a11628f55a4df523b3ef\n        /* \"smart_contracts/contracts/Token.sol\":10182:10191  _newValue */\n      dup4\n        /* \"smart_contracts/contracts/Token.sol\":10161:10192  Transfer(_from, _to, _newValue) */\n      mload(0x40)\n      tag_290\n      swap2\n      swap1\n      tag_52\n      jump\t// in\n    tag_290:\n      mload(0x40)\n      dup1\n      swap2\n      sub\n      swap1\n      log3\n        /* \"smart_contracts/contracts/Token.sol\":10218:10219  0 */\n      0x00\n        /* \"smart_contracts/contracts/Token.sol\":10206:10214  _feeBurn */\n      dup4\n        /* \"smart_contracts/contracts/Token.sol\":10206:10219  _feeBurn != 0 */\n      eq\n        /* \"smart_contracts/contracts/Token.sol\":10202:10266  if (_feeBurn != 0) {emit Transfer(_from, address(0), _feeBurn);} */\n      tag_291\n      jumpi\n        /* \"smart_contracts/contracts/Token.sol\":10251:10252  0 */\n      0x00\n        /* \"smart_contracts/contracts/Token.sol\":10227:10264  Transfer(_from, address(0), _feeBurn) */\n      0xffffffffffffffffffffffffffffffffffffffff\n      and\n        /* \"smart_contracts/contracts/Token.sol\":10236:10241  _from */\n      dup11\n        /* \"smart_contracts/contracts/Token.sol\":10227:10264  Transfer(_from, address(0), _feeBurn) */\n      0xffffffffffffffffffffffffffffffffffffffff\n      and\n      0xddf252ad1be2c89b69c2b068fc378daa952ba7f163c4a11628f55a4df523b3ef\n        /* \"smart_contracts/contracts/Token.sol\":10255:10263  _feeBurn */\n      dup6\n        /* \"smart_contracts/contracts/Token.sol\":10227:10264  Transfer(_from, address(0), _feeBurn) */\n      mload(0x40)\n      tag_292\n      swap2\n      swap1\n      tag_52\n      jump\t// in\n    tag_292:\n      mload(0x40)\n      dup1\n      swap2\n      sub\n      swap1\n      log3\n        /* \"smart_contracts/contracts/Token.sol\":10202:10266  if (_feeBurn != 0) {emit Transfer(_from, address(0), _feeBurn);} */\n    tag_291:\n        /* \"smart_contracts/contracts/Token.sol\":10291:10292  0 */\n      0x00\n        /* \"smart_contracts/contracts/Token.sol\":10279:10287  _feeBank */\n      dup3\n        /* \"smart_contracts/contracts/Token.sol\":10279:10292  _feeBank != 0 */\n      eq\n        /* \"smart_contracts/contracts/Token.sol\":10275:10339  if (_feeBank != 0) {emit Transfer(_from, meta.vault, _feeBank);} */\n      tag_293\n      jumpi\n        /* \"smart_contracts/contracts/Token.sol\":10316:10320  meta */\n      0x07\n        /* \"smart_contracts/contracts/Token.sol\":10316:10326  meta.vault */\n      0x09\n      add\n      0x00\n      swap1\n      sload\n      swap1\n      0x0100\n      exp\n      swap1\n      div\n      0xffffffffffffffffffffffffffffffffffffffff\n      and\n        /* \"smart_contracts/contracts/Token.sol\":10300:10337  Transfer(_from, meta.vault, _feeBank) */\n      0xffffffffffffffffffffffffffffffffffffffff\n      and\n        /* \"smart_contracts/contracts/Token.sol\":10309:10314  _from */\n      dup11\n        /* \"smart_contracts/contracts/Token.sol\":10300:10337  Transfer(_from, meta.vault, _feeBank) */\n      0xffffffffffffffffffffffffffffffffffffffff\n      and\n      0xddf252ad1be2c89b69c2b068fc378daa952ba7f163c4a11628f55a4df523b3ef\n        /* \"smart_contracts/contracts/Token.sol\":10328:10336  _feeBank */\n      dup5\n        /* \"smart_contracts/contracts/Token.sol\":10300:10337  Transfer(_from, meta.vault, _feeBank) */\n      mload(0x40)\n      tag_294\n      swap2\n      swap1\n      tag_52\n      jump\t// in\n    tag_294:\n      mload(0x40)\n      dup1\n      swap2\n      sub\n      swap1\n      log3\n        /* \"smart_contracts/contracts/Token.sol\":10275:10339  if (_feeBank != 0) {emit Transfer(_from, meta.vault, _feeBank);} */\n    tag_293:\n        /* \"smart_contracts/contracts/Token.sol\":10356:10360  true */\n      0x01\n        /* \"smart_contracts/contracts/Token.sol\":10362:10371  _newValue */\n      dup2\n        /* \"smart_contracts/contracts/Token.sol\":10348:10372  return (true, _newValue) */\n      swap5\n      pop\n      swap5\n      pop\n      pop\n      pop\n      pop\n        /* \"smart_contracts/contracts/Token.sol\":9455:10379  function transfer_(address _from, address _to, uint256 _value, uint256 _bpFeeBurn, uint256 _bpFeeBank) internal returns (bool, uint256) {... */\n      swap6\n      pop\n      swap6\n      swap4\n      pop\n      pop\n      pop\n      pop\n      jump\t// out\n        /* \"smart_contracts/contracts/Token.sol\":10385:10779  function mint_(address _to, uint256 _value) internal returns (bool) {... */\n    tag_192:\n        /* \"smart_contracts/contracts/Token.sol\":10447:10451  bool */\n      0x00\n        /* \"smart_contracts/contracts/Token.sol\":10463:10476  address _from */\n      dup1\n        /* \"smart_contracts/contracts/Token.sol\":10487:10488  0 */\n      0x00\n        /* \"smart_contracts/contracts/Token.sol\":10463:10489  address _from = address(0) */\n      swap1\n      pop\n        /* \"smart_contracts/contracts/Token.sol\":10530:10531  0 */\n      0x00\n        /* \"smart_contracts/contracts/Token.sol\":10520:10526  _value */\n      dup4\n        /* \"smart_contracts/contracts/Token.sol\":10520:10531  _value >= 0 */\n      lt\n      iszero\n        /* \"smart_contracts/contracts/Token.sol\":10520:10570  _value >= 0 &&... */\n      dup1\n      iszero\n      tag_296\n      jumpi\n      pop\n        /* \"smart_contracts/contracts/Token.sol\":10557:10561  meta */\n      0x07\n        /* \"smart_contracts/contracts/Token.sol\":10557:10570  meta.mintable */\n      0x03\n      add\n      sload\n        /* \"smart_contracts/contracts/Token.sol\":10547:10553  _value */\n      dup4\n        /* \"smart_contracts/contracts/Token.sol\":10547:10570  _value <= meta.mintable */\n      gt\n      iszero\n        /* \"smart_contracts/contracts/Token.sol\":10520:10570  _value >= 0 &&... */\n    tag_296:\n        /* \"smart_contracts/contracts/Token.sol\":10520:10603  _value >= 0 &&... */\n      dup1\n      iszero\n      tag_297\n      jumpi\n      pop\n        /* \"smart_contracts/contracts/Token.sol\":10601:10602  0 */\n      0x00\n        /* \"smart_contracts/contracts/Token.sol\":10586:10603  _to != address(0) */\n      0xffffffffffffffffffffffffffffffffffffffff\n      and\n        /* \"smart_contracts/contracts/Token.sol\":10586:10589  _to */\n      dup5\n        /* \"smart_contracts/contracts/Token.sol\":10586:10603  _to != address(0) */\n      0xffffffffffffffffffffffffffffffffffffffff\n      and\n      eq\n      iszero\n        /* \"smart_contracts/contracts/Token.sol\":10520:10603  _value >= 0 &&... */\n    tag_297:\n        /* \"smart_contracts/contracts/Token.sol\":10499:10613  require(... */\n      tag_298\n      jumpi\n      0x00\n      dup1\n      revert\n    tag_298:\n        /* \"smart_contracts/contracts/Token.sol\":10640:10646  _value */\n      dup3\n        /* \"smart_contracts/contracts/Token.sol\":10623:10627  meta */\n      0x07\n        /* \"smart_contracts/contracts/Token.sol\":10623:10636  meta.mintable */\n      0x03\n      add\n      0x00\n        /* \"smart_contracts/contracts/Token.sol\":10623:10646  meta.mintable -= _value */\n      dup3\n      dup3\n      sload\n      tag_299\n      swap2\n      swap1\n      tag_176\n      jump\t// in\n    tag_299:\n      swap3\n      pop\n      pop\n      dup2\n      swap1\n      sstore\n      pop\n        /* \"smart_contracts/contracts/Token.sol\":10673:10679  _value */\n      dup3\n        /* \"smart_contracts/contracts/Token.sol\":10657:10664  balance */\n      0x11\n        /* \"smart_contracts/contracts/Token.sol\":10657:10669  balance[_to] */\n      0x00\n        /* \"smart_contracts/contracts/Token.sol\":10665:10668  _to */\n      dup7\n        /* \"smart_contracts/contracts/Token.sol\":10657:10669  balance[_to] */\n      0xffffffffffffffffffffffffffffffffffffffff\n      and\n      0xffffffffffffffffffffffffffffffffffffffff\n      and\n      dup2\n      mstore\n      0x20\n      add\n      swap1\n      dup2\n      mstore\n      0x20\n      add\n      0x00\n      keccak256\n      0x00\n        /* \"smart_contracts/contracts/Token.sol\":10657:10679  balance[_to] += _value */\n      dup3\n      dup3\n      sload\n      tag_300\n      swap2\n      swap1\n      tag_223\n      jump\t// in\n    tag_300:\n      swap3\n      pop\n      pop\n      dup2\n      swap1\n      sstore\n        /* \"smart_contracts/contracts/Token.sol\":10701:10707  _value */\n      dup4\n        /* \"smart_contracts/contracts/Token.sol\":10681:10685  meta */\n      0x07\n        /* \"smart_contracts/contracts/Token.sol\":10681:10697  meta.totalSupply */\n      0x04\n      add\n      0x00\n        /* \"smart_contracts/contracts/Token.sol\":10681:10707  meta.totalSupply += _value */\n      dup3\n      dup3\n      sload\n      tag_301\n      swap2\n      swap1\n      tag_223\n      jump\t// in\n    tag_301:\n      swap3\n      pop\n      pop\n      dup2\n      swap1\n      sstore\n        /* \"smart_contracts/contracts/Token.sol\":10656:10708  (balance[_to] += _value, meta.totalSupply += _value) */\n      pop\n      pop\n        /* \"smart_contracts/contracts/Token.sol\":10739:10742  _to */\n      dup4\n        /* \"smart_contracts/contracts/Token.sol\":10723:10751  Transfer(_from, _to, _value) */\n      0xffffffffffffffffffffffffffffffffffffffff\n      and\n        /* \"smart_contracts/contracts/Token.sol\":10732:10737  _from */\n      dup2\n        /* \"smart_contracts/contracts/Token.sol\":10723:10751  Transfer(_from, _to, _value) */\n      0xffffffffffffffffffffffffffffffffffffffff\n      and\n      0xddf252ad1be2c89b69c2b068fc378daa952ba7f163c4a11628f55a4df523b3ef\n        /* \"smart_contracts/contracts/Token.sol\":10744:10750  _value */\n      dup6\n        /* \"smart_contracts/contracts/Token.sol\":10723:10751  Transfer(_from, _to, _value) */\n      mload(0x40)\n      tag_302\n      swap2\n      swap1\n      tag_52\n      jump\t// in\n    tag_302:\n      mload(0x40)\n      dup1\n      swap2\n      sub\n      swap1\n      log3\n        /* \"smart_contracts/contracts/Token.sol\":10768:10772  true */\n      0x01\n        /* \"smart_contracts/contracts/Token.sol\":10761:10772  return true */\n      swap2\n      pop\n      pop\n        /* \"smart_contracts/contracts/Token.sol\":10385:10779  function mint_(address _to, uint256 _value) internal returns (bool) {... */\n      swap3\n      swap2\n      pop\n      pop\n      jump\t// out\n        /* \"smart_contracts/contracts/Token.sol\":11612:11916  function burn_(address _from, uint256 _value) internal returns (bool) {... */\n    tag_199:\n        /* \"smart_contracts/contracts/Token.sol\":11676:11680  bool */\n      0x00\n        /* \"smart_contracts/contracts/Token.sol\":11723:11724  0 */\n      dup1\n        /* \"smart_contracts/contracts/Token.sol\":11713:11719  _value */\n      dup3\n        /* \"smart_contracts/contracts/Token.sol\":11713:11724  _value >= 0 */\n      lt\n      iszero\n        /* \"smart_contracts/contracts/Token.sol\":11713:11764  _value >= 0 &&... */\n      dup1\n      iszero\n      tag_304\n      jumpi\n      pop\n        /* \"smart_contracts/contracts/Token.sol\":11750:11757  balance */\n      0x11\n        /* \"smart_contracts/contracts/Token.sol\":11750:11764  balance[_from] */\n      0x00\n        /* \"smart_contracts/contracts/Token.sol\":11758:11763  _from */\n      dup5\n        /* \"smart_contracts/contracts/Token.sol\":11750:11764  balance[_from] */\n      0xffffffffffffffffffffffffffffffffffffffff\n      and\n      0xffffffffffffffffffffffffffffffffffffffff\n      and\n      dup2\n      mstore\n      0x20\n      add\n      swap1\n      dup2\n      mstore\n      0x20\n      add\n      0x00\n      keccak256\n      sload\n        /* \"smart_contracts/contracts/Token.sol\":11740:11746  _value */\n      dup3\n        /* \"smart_contracts/contracts/Token.sol\":11740:11764  _value <= balance[_from] */\n      gt\n      iszero\n        /* \"smart_contracts/contracts/Token.sol\":11713:11764  _value >= 0 &&... */\n    tag_304:\n        /* \"smart_contracts/contracts/Token.sol\":11692:11774  require(... */\n      tag_305\n      jumpi\n      0x00\n      dup1\n      revert\n    tag_305:\n        /* \"smart_contracts/contracts/Token.sol\":11803:11809  _value */\n      dup2\n        /* \"smart_contracts/contracts/Token.sol\":11785:11792  balance */\n      0x11\n        /* \"smart_contracts/contracts/Token.sol\":11785:11799  balance[_from] */\n      0x00\n        /* \"smart_contracts/contracts/Token.sol\":11793:11798  _from */\n      dup6\n        /* \"smart_contracts/contracts/Token.sol\":11785:11799  balance[_from] */\n      0xffffffffffffffffffffffffffffffffffffffff\n      and\n      0xffffffffffffffffffffffffffffffffffffffff\n      and\n      dup2\n      mstore\n      0x20\n      add\n      swap1\n      dup2\n      mstore\n      0x20\n      add\n      0x00\n      keccak256\n      0x00\n        /* \"smart_contracts/contracts/Token.sol\":11785:11809  balance[_from] -= _value */\n      dup3\n      dup3\n      sload\n      tag_306\n      swap2\n      swap1\n      tag_176\n      jump\t// in\n    tag_306:\n      swap3\n      pop\n      pop\n      dup2\n      swap1\n      sstore\n        /* \"smart_contracts/contracts/Token.sol\":11831:11837  _value */\n      dup3\n        /* \"smart_contracts/contracts/Token.sol\":11811:11815  meta */\n      0x07\n        /* \"smart_contracts/contracts/Token.sol\":11811:11827  meta.totalSupply */\n      0x04\n      add\n      0x00\n        /* \"smart_contracts/contracts/Token.sol\":11811:11837  meta.totalSupply -= _value */\n      dup3\n      dup3\n      sload\n      tag_307\n      swap2\n      swap1\n      tag_176\n      jump\t// in\n    tag_307:\n      swap3\n      pop\n      pop\n      dup2\n      swap1\n      sstore\n        /* \"smart_contracts/contracts/Token.sol\":11784:11838  (balance[_from] -= _value, meta.totalSupply -= _value) */\n      pop\n      pop\n        /* \"smart_contracts/contracts/Token.sol\":11877:11878  0 */\n      0x00\n        /* \"smart_contracts/contracts/Token.sol\":11853:11888  Transfer(_from, address(0), _value) */\n      0xffffffffffffffffffffffffffffffffffffffff\n      and\n        /* \"smart_contracts/contracts/Token.sol\":11862:11867  _from */\n      dup4\n        /* \"smart_contracts/contracts/Token.sol\":11853:11888  Transfer(_from, address(0), _value) */\n      0xffffffffffffffffffffffffffffffffffffffff\n      and\n      0xddf252ad1be2c89b69c2b068fc378daa952ba7f163c4a11628f55a4df523b3ef\n        /* \"smart_contracts/contracts/Token.sol\":11881:11887  _value */\n      dup5\n        /* \"smart_contracts/contracts/Token.sol\":11853:11888  Transfer(_from, address(0), _value) */\n      mload(0x40)\n      tag_308\n      swap2\n      swap1\n      tag_52\n      jump\t// in\n    tag_308:\n      mload(0x40)\n      dup1\n      swap2\n      sub\n      swap1\n      log3\n        /* \"smart_contracts/contracts/Token.sol\":11905:11909  true */\n      0x01\n        /* \"smart_contracts/contracts/Token.sol\":11898:11909  return true */\n      swap1\n      pop\n        /* \"smart_contracts/contracts/Token.sol\":11612:11916  function burn_(address _from, uint256 _value) internal returns (bool) {... */\n      swap3\n      swap2\n      pop\n      pop\n      jump\t// out\n        /* \"smart_contracts/contracts/Token.sol\":10785:11602  function mintWithVesting_(address _to, uint256 _value, uint256 _duration, string memory _caption) internal returns (bool) {... */\n    tag_242:\n        /* \"smart_contracts/contracts/Token.sol\":10901:10905  bool */\n      0x00\n        /* \"smart_contracts/contracts/Token.sol\":10917:10930  address _from */\n      dup1\n        /* \"smart_contracts/contracts/Token.sol\":10941:10942  0 */\n      0x00\n        /* \"smart_contracts/contracts/Token.sol\":10917:10943  address _from = address(0) */\n      swap1\n      pop\n        /* \"smart_contracts/contracts/Token.sol\":10953:10966  address _safe */\n      0x00\n        /* \"smart_contracts/contracts/Token.sol\":10969:10973  meta */\n      0x07\n        /* \"smart_contracts/contracts/Token.sol\":10969:10979  meta.vault */\n      0x09\n      add\n      0x00\n      swap1\n      sload\n      swap1\n      0x0100\n      exp\n      swap1\n      div\n      0xffffffffffffffffffffffffffffffffffffffff\n      and\n        /* \"smart_contracts/contracts/Token.sol\":10953:10979  address _safe = meta.vault */\n      swap1\n      pop\n        /* \"smart_contracts/contracts/Token.sol\":11043:11047  true */\n      0x01\n        /* \"smart_contracts/contracts/Token.sol\":11010:11047  schedules[_to][_caption].used != true */\n      iszero\n      iszero\n        /* \"smart_contracts/contracts/Token.sol\":11010:11019  schedules */\n      0x15\n        /* \"smart_contracts/contracts/Token.sol\":11010:11024  schedules[_to] */\n      0x00\n        /* \"smart_contracts/contracts/Token.sol\":11020:11023  _to */\n      dup10\n        /* \"smart_contracts/contracts/Token.sol\":11010:11024  schedules[_to] */\n      0xffffffffffffffffffffffffffffffffffffffff\n      and\n      0xffffffffffffffffffffffffffffffffffffffff\n      and\n      dup2\n      mstore\n      0x20\n      add\n      swap1\n      dup2\n      mstore\n      0x20\n      add\n      0x00\n      keccak256\n        /* \"smart_contracts/contracts/Token.sol\":11025:11033  _caption */\n      dup6\n        /* \"smart_contracts/contracts/Token.sol\":11010:11034  schedules[_to][_caption] */\n      mload(0x40)\n      tag_310\n      swap2\n      swap1\n      tag_245\n      jump\t// in\n    tag_310:\n      swap1\n      dup2\n      mstore\n      0x20\n      add\n      mload(0x40)\n      dup1\n      swap2\n      sub\n      swap1\n      keccak256\n        /* \"smart_contracts/contracts/Token.sol\":11010:11039  schedules[_to][_caption].used */\n      0x05\n      add\n      0x00\n      swap1\n      sload\n      swap1\n      0x0100\n      exp\n      swap1\n      div\n      0xff\n      and\n        /* \"smart_contracts/contracts/Token.sol\":11010:11047  schedules[_to][_caption].used != true */\n      iszero\n      iszero\n      eq\n      iszero\n        /* \"smart_contracts/contracts/Token.sol\":11010:11086  schedules[_to][_caption].used != true &&... */\n      dup1\n      iszero\n      tag_311\n      jumpi\n      pop\n        /* \"smart_contracts/contracts/Token.sol\":11073:11077  meta */\n      0x07\n        /* \"smart_contracts/contracts/Token.sol\":11073:11086  meta.mintable */\n      0x03\n      add\n      sload\n        /* \"smart_contracts/contracts/Token.sol\":11063:11069  _value */\n      dup7\n        /* \"smart_contracts/contracts/Token.sol\":11063:11086  _value <= meta.mintable */\n      gt\n      iszero\n        /* \"smart_contracts/contracts/Token.sol\":11010:11086  schedules[_to][_caption].used != true &&... */\n    tag_311:\n        /* \"smart_contracts/contracts/Token.sol\":11010:11119  schedules[_to][_caption].used != true &&... */\n      dup1\n      iszero\n      tag_312\n      jumpi\n      pop\n        /* \"smart_contracts/contracts/Token.sol\":11117:11118  0 */\n      0x00\n        /* \"smart_contracts/contracts/Token.sol\":11102:11119  _to != address(0) */\n      0xffffffffffffffffffffffffffffffffffffffff\n      and\n        /* \"smart_contracts/contracts/Token.sol\":11102:11105  _to */\n      dup8\n        /* \"smart_contracts/contracts/Token.sol\":11102:11119  _to != address(0) */\n      0xffffffffffffffffffffffffffffffffffffffff\n      and\n      eq\n      iszero\n        /* \"smart_contracts/contracts/Token.sol\":11010:11119  schedules[_to][_caption].used != true &&... */\n    tag_312:\n        /* \"smart_contracts/contracts/Token.sol\":11010:11146  schedules[_to][_caption].used != true &&... */\n      dup1\n      iszero\n      tag_313\n      jumpi\n      pop\n        /* \"smart_contracts/contracts/Token.sol\":11145:11146  0 */\n      0x00\n        /* \"smart_contracts/contracts/Token.sol\":11135:11141  _value */\n      dup7\n        /* \"smart_contracts/contracts/Token.sol\":11135:11146  _value >= 0 */\n      lt\n      iszero\n        /* \"smart_contracts/contracts/Token.sol\":11010:11146  schedules[_to][_caption].used != true &&... */\n    tag_313:\n        /* \"smart_contracts/contracts/Token.sol\":10989:11156  require(... */\n      tag_314\n      jumpi\n      0x00\n      dup1\n      revert\n    tag_314:\n        /* \"smart_contracts/contracts/Token.sol\":11185:11191  _value */\n      dup6\n        /* \"smart_contracts/contracts/Token.sol\":11167:11171  meta */\n      0x07\n        /* \"smart_contracts/contracts/Token.sol\":11167:11180  meta.mintable */\n      0x03\n      add\n      0x00\n        /* \"smart_contracts/contracts/Token.sol\":11167:11191  meta.mintable -=  _value */\n      dup3\n      dup3\n      sload\n      tag_315\n      swap2\n      swap1\n      tag_176\n      jump\t// in\n    tag_315:\n      swap3\n      pop\n      pop\n      dup2\n      swap1\n      sstore\n        /* \"smart_contracts/contracts/Token.sol\":11213:11219  _value */\n      dup7\n        /* \"smart_contracts/contracts/Token.sol\":11193:11197  meta */\n      0x07\n        /* \"smart_contracts/contracts/Token.sol\":11193:11209  meta.totalSupply */\n      0x04\n      add\n      0x00\n        /* \"smart_contracts/contracts/Token.sol\":11193:11219  meta.totalSupply += _value */\n      dup3\n      dup3\n      sload\n      tag_316\n      swap2\n      swap1\n      tag_223\n      jump\t// in\n    tag_316:\n      swap3\n      pop\n      pop\n      dup2\n      swap1\n      sstore\n        /* \"smart_contracts/contracts/Token.sol\":11239:11245  _value */\n      dup8\n        /* \"smart_contracts/contracts/Token.sol\":11221:11228  balance */\n      0x11\n        /* \"smart_contracts/contracts/Token.sol\":11221:11235  balance[_safe] */\n      0x00\n        /* \"smart_contracts/contracts/Token.sol\":11229:11234  _safe */\n      dup6\n        /* \"smart_contracts/contracts/Token.sol\":11221:11235  balance[_safe] */\n      0xffffffffffffffffffffffffffffffffffffffff\n      and\n      0xffffffffffffffffffffffffffffffffffffffff\n      and\n      dup2\n      mstore\n      0x20\n      add\n      swap1\n      dup2\n      mstore\n      0x20\n      add\n      0x00\n      keccak256\n      0x00\n        /* \"smart_contracts/contracts/Token.sol\":11221:11245  balance[_safe] += _value */\n      dup3\n      dup3\n      sload\n      tag_317\n      swap2\n      swap1\n      tag_223\n      jump\t// in\n    tag_317:\n      swap3\n      pop\n      pop\n      dup2\n      swap1\n      sstore\n        /* \"smart_contracts/contracts/Token.sol\":11166:11246  (meta.mintable -=  _value, meta.totalSupply += _value, balance[_safe] += _value) */\n      pop\n      pop\n      pop\n        /* \"smart_contracts/contracts/Token.sol\":11256:11270  uint256 _start */\n      0x00\n        /* \"smart_contracts/contracts/Token.sol\":11273:11288  block.timestamp */\n      timestamp\n        /* \"smart_contracts/contracts/Token.sol\":11256:11288  uint256 _start = block.timestamp */\n      swap1\n      pop\n        /* \"smart_contracts/contracts/Token.sol\":11325:11531  VestingSchedule({... */\n      mload(0x40)\n      dup1\n      0xc0\n      add\n      0x40\n      mstore\n      dup1\n        /* \"smart_contracts/contracts/Token.sol\":11364:11372  _caption */\n      dup7\n        /* \"smart_contracts/contracts/Token.sol\":11325:11531  VestingSchedule({... */\n      dup2\n      mstore\n      0x20\n      add\n        /* \"smart_contracts/contracts/Token.sol\":11396:11405  _duration */\n      dup8\n        /* \"smart_contracts/contracts/Token.sol\":11325:11531  VestingSchedule({... */\n      dup2\n      mstore\n      0x20\n      add\n        /* \"smart_contracts/contracts/Token.sol\":11426:11432  _start */\n      dup3\n        /* \"smart_contracts/contracts/Token.sol\":11325:11531  VestingSchedule({... */\n      dup2\n      mstore\n      0x20\n      add\n        /* \"smart_contracts/contracts/Token.sol\":11460:11469  _duration */\n      dup8\n        /* \"smart_contracts/contracts/Token.sol\":11451:11457  _start */\n      dup4\n        /* \"smart_contracts/contracts/Token.sol\":11451:11469  _start + _duration */\n      tag_318\n      swap2\n      swap1\n      tag_223\n      jump\t// in\n    tag_318:\n        /* \"smart_contracts/contracts/Token.sol\":11325:11531  VestingSchedule({... */\n      dup2\n      mstore\n      0x20\n      add\n        /* \"smart_contracts/contracts/Token.sol\":11490:11496  _value */\n      dup9\n        /* \"smart_contracts/contracts/Token.sol\":11325:11531  VestingSchedule({... */\n      dup2\n      mstore\n      0x20\n      add\n        /* \"smart_contracts/contracts/Token.sol\":11516:11520  true */\n      0x01\n        /* \"smart_contracts/contracts/Token.sol\":11325:11531  VestingSchedule({... */\n      iszero\n      iszero\n      dup2\n      mstore\n      pop\n        /* \"smart_contracts/contracts/Token.sol\":11298:11307  schedules */\n      0x15\n        /* \"smart_contracts/contracts/Token.sol\":11298:11312  schedules[_to] */\n      0x00\n        /* \"smart_contracts/contracts/Token.sol\":11308:11311  _to */\n      dup11\n        /* \"smart_contracts/contracts/Token.sol\":11298:11312  schedules[_to] */\n      0xffffffffffffffffffffffffffffffffffffffff\n      and\n      0xffffffffffffffffffffffffffffffffffffffff\n      and\n      dup2\n      mstore\n      0x20\n      add\n      swap1\n      dup2\n      mstore\n      0x20\n      add\n      0x00\n      keccak256\n        /* \"smart_contracts/contracts/Token.sol\":11313:11321  _caption */\n      dup7\n        /* \"smart_contracts/contracts/Token.sol\":11298:11322  schedules[_to][_caption] */\n      mload(0x40)\n      tag_319\n      swap2\n      swap1\n      tag_245\n      jump\t// in\n    tag_319:\n      swap1\n      dup2\n      mstore\n      0x20\n      add\n      mload(0x40)\n      dup1\n      swap2\n      sub\n      swap1\n      keccak256\n        /* \"smart_contracts/contracts/Token.sol\":11298:11531  schedules[_to][_caption] = VestingSchedule({... */\n      0x00\n      dup3\n      add\n      mload\n      dup2\n      0x00\n      add\n      swap1\n      dup2\n      tag_320\n      swap2\n      swap1\n      tag_321\n      jump\t// in\n    tag_320:\n      pop\n      0x20\n      dup3\n      add\n      mload\n      dup2\n      0x01\n      add\n      sstore\n      0x40\n      dup3\n      add\n      mload\n      dup2\n      0x02\n      add\n      sstore\n      0x60\n      dup3\n      add\n      mload\n      dup2\n      0x03\n      add\n      sstore\n      0x80\n      dup3\n      add\n      mload\n      dup2\n      0x04\n      add\n      sstore\n      0xa0\n      dup3\n      add\n      mload\n      dup2\n      0x05\n      add\n      exp(0x0100, 0x00)\n      dup2\n      sload\n      dup2\n      0xff\n      mul\n      not\n      and\n      swap1\n      dup4\n      iszero\n      iszero\n      mul\n      or\n      swap1\n      sstore\n      pop\n      swap1\n      pop\n      pop\n        /* \"smart_contracts/contracts/Token.sol\":11562:11565  _to */\n      dup8\n        /* \"smart_contracts/contracts/Token.sol\":11546:11574  Transfer(_from, _to, _value) */\n      0xffffffffffffffffffffffffffffffffffffffff\n      and\n        /* \"smart_contracts/contracts/Token.sol\":11555:11560  _from */\n      dup4\n        /* \"smart_contracts/contracts/Token.sol\":11546:11574  Transfer(_from, _to, _value) */\n      0xffffffffffffffffffffffffffffffffffffffff\n      and\n      0xddf252ad1be2c89b69c2b068fc378daa952ba7f163c4a11628f55a4df523b3ef\n        /* \"smart_contracts/contracts/Token.sol\":11567:11573  _value */\n      dup10\n        /* \"smart_contracts/contracts/Token.sol\":11546:11574  Transfer(_from, _to, _value) */\n      mload(0x40)\n      tag_322\n      swap2\n      swap1\n      tag_52\n      jump\t// in\n    tag_322:\n      mload(0x40)\n      dup1\n      swap2\n      sub\n      swap1\n      log3\n        /* \"smart_contracts/contracts/Token.sol\":11591:11595  true */\n      0x01\n        /* \"smart_contracts/contracts/Token.sol\":11584:11595  return true */\n      swap4\n      pop\n      pop\n      pop\n      pop\n        /* \"smart_contracts/contracts/Token.sol\":10785:11602  function mintWithVesting_(address _to, uint256 _value, uint256 _duration, string memory _caption) internal returns (bool) {... */\n      swap5\n      swap4\n      pop\n      pop\n      pop\n      pop\n      jump\t// out\n        /* \"#utility.yul\":7:82   */\n    tag_323:\n        /* \"#utility.yul\":40:46   */\n      0x00\n        /* \"#utility.yul\":73:75   */\n      0x40\n        /* \"#utility.yul\":67:76   */\n      mload\n        /* \"#utility.yul\":57:76   */\n      swap1\n      pop\n        /* \"#utility.yul\":7:82   */\n      swap1\n      jump\t// out\n        /* \"#utility.yul\":88:205   */\n    tag_324:\n        /* \"#utility.yul\":197:198   */\n      0x00\n        /* \"#utility.yul\":194:195   */\n      dup1\n        /* \"#utility.yul\":187:199   */\n      revert\n        /* \"#utility.yul\":211:328   */\n    tag_325:\n        /* \"#utility.yul\":320:321   */\n      0x00\n        /* \"#utility.yul\":317:318   */\n      dup1\n        /* \"#utility.yul\":310:322   */\n      revert\n        /* \"#utility.yul\":334:411   */\n    tag_326:\n        /* \"#utility.yul\":371:378   */\n      0x00\n        /* \"#utility.yul\":400:405   */\n      dup2\n        /* \"#utility.yul\":389:405   */\n      swap1\n      pop\n        /* \"#utility.yul\":334:411   */\n      swap2\n      swap1\n      pop\n      jump\t// out\n        /* \"#utility.yul\":417:539   */\n    tag_327:\n        /* \"#utility.yul\":490:514   */\n      tag_379\n        /* \"#utility.yul\":508:513   */\n      dup2\n        /* \"#utility.yul\":490:514   */\n      tag_326\n      jump\t// in\n    tag_379:\n        /* \"#utility.yul\":483:488   */\n      dup2\n        /* \"#utility.yul\":480:515   */\n      eq\n        /* \"#utility.yul\":470:533   */\n      tag_380\n      jumpi\n        /* \"#utility.yul\":529:530   */\n      0x00\n        /* \"#utility.yul\":526:527   */\n      dup1\n        /* \"#utility.yul\":519:531   */\n      revert\n        /* \"#utility.yul\":470:533   */\n    tag_380:\n        /* \"#utility.yul\":417:539   */\n      pop\n      jump\t// out\n        /* \"#utility.yul\":545:684   */\n    tag_328:\n        /* \"#utility.yul\":591:596   */\n      0x00\n        /* \"#utility.yul\":629:635   */\n      dup2\n        /* \"#utility.yul\":616:636   */\n      calldataload\n        /* \"#utility.yul\":607:636   */\n      swap1\n      pop\n        /* \"#utility.yul\":645:678   */\n      tag_382\n        /* \"#utility.yul\":672:677   */\n      dup2\n        /* \"#utility.yul\":645:678   */\n      tag_327\n      jump\t// in\n    tag_382:\n        /* \"#utility.yul\":545:684   */\n      swap3\n      swap2\n      pop\n      pop\n      jump\t// out\n        /* \"#utility.yul\":690:1164   */\n    tag_36:\n        /* \"#utility.yul\":758:764   */\n      0x00\n        /* \"#utility.yul\":766:772   */\n      dup1\n        /* \"#utility.yul\":815:817   */\n      0x40\n        /* \"#utility.yul\":803:812   */\n      dup4\n        /* \"#utility.yul\":794:801   */\n      dup6\n        /* \"#utility.yul\":790:813   */\n      sub\n        /* \"#utility.yul\":786:818   */\n      slt\n        /* \"#utility.yul\":783:902   */\n      iszero\n      tag_384\n      jumpi\n        /* \"#utility.yul\":821:900   */\n      tag_385\n      tag_324\n      jump\t// in\n    tag_385:\n        /* \"#utility.yul\":783:902   */\n    tag_384:\n        /* \"#utility.yul\":941:942   */\n      0x00\n        /* \"#utility.yul\":966:1019   */\n      tag_386\n        /* \"#utility.yul\":1011:1018   */\n      dup6\n        /* \"#utility.yul\":1002:1008   */\n      dup3\n        /* \"#utility.yul\":991:1000   */\n      dup7\n        /* \"#utility.yul\":987:1009   */\n      add\n        /* \"#utility.yul\":966:1019   */\n      tag_328\n      jump\t// in\n    tag_386:\n        /* \"#utility.yul\":956:1019   */\n      swap3\n      pop\n        /* \"#utility.yul\":912:1029   */\n      pop\n        /* \"#utility.yul\":1068:1070   */\n      0x20\n        /* \"#utility.yul\":1094:1147   */\n      tag_387\n        /* \"#utility.yul\":1139:1146   */\n      dup6\n        /* \"#utility.yul\":1130:1136   */\n      dup3\n        /* \"#utility.yul\":1119:1128   */\n      dup7\n        /* \"#utility.yul\":1115:1137   */\n      add\n        /* \"#utility.yul\":1094:1147   */\n      tag_328\n      jump\t// in\n    tag_387:\n        /* \"#utility.yul\":1084:1147   */\n      swap2\n      pop\n        /* \"#utility.yul\":1039:1157   */\n      pop\n        /* \"#utility.yul\":690:1164   */\n      swap3\n      pop\n      swap3\n      swap1\n      pop\n      jump\t// out\n        /* \"#utility.yul\":1170:1260   */\n    tag_329:\n        /* \"#utility.yul\":1204:1211   */\n      0x00\n        /* \"#utility.yul\":1247:1252   */\n      dup2\n        /* \"#utility.yul\":1240:1253   */\n      iszero\n        /* \"#utility.yul\":1233:1254   */\n      iszero\n        /* \"#utility.yul\":1222:1254   */\n      swap1\n      pop\n        /* \"#utility.yul\":1170:1260   */\n      swap2\n      swap1\n      pop\n      jump\t// out\n        /* \"#utility.yul\":1266:1375   */\n    tag_330:\n        /* \"#utility.yul\":1347:1368   */\n      tag_390\n        /* \"#utility.yul\":1362:1367   */\n      dup2\n        /* \"#utility.yul\":1347:1368   */\n      tag_329\n      jump\t// in\n    tag_390:\n        /* \"#utility.yul\":1342:1345   */\n      dup3\n        /* \"#utility.yul\":1335:1369   */\n      mstore\n        /* \"#utility.yul\":1266:1375   */\n      pop\n      pop\n      jump\t// out\n        /* \"#utility.yul\":1381:1591   */\n    tag_39:\n        /* \"#utility.yul\":1468:1472   */\n      0x00\n        /* \"#utility.yul\":1506:1508   */\n      0x20\n        /* \"#utility.yul\":1495:1504   */\n      dup3\n        /* \"#utility.yul\":1491:1509   */\n      add\n        /* \"#utility.yul\":1483:1509   */\n      swap1\n      pop\n        /* \"#utility.yul\":1519:1584   */\n      tag_392\n        /* \"#utility.yul\":1581:1582   */\n      0x00\n        /* \"#utility.yul\":1570:1579   */\n      dup4\n        /* \"#utility.yul\":1566:1583   */\n      add\n        /* \"#utility.yul\":1557:1563   */\n      dup5\n        /* \"#utility.yul\":1519:1584   */\n      tag_330\n      jump\t// in\n    tag_392:\n        /* \"#utility.yul\":1381:1591   */\n      swap3\n      swap2\n      pop\n      pop\n      jump\t// out\n        /* \"#utility.yul\":1597:1696   */\n    tag_331:\n        /* \"#utility.yul\":1649:1655   */\n      0x00\n        /* \"#utility.yul\":1683:1688   */\n      dup2\n        /* \"#utility.yul\":1677:1689   */\n      mload\n        /* \"#utility.yul\":1667:1689   */\n      swap1\n      pop\n        /* \"#utility.yul\":1597:1696   */\n      swap2\n      swap1\n      pop\n      jump\t// out\n        /* \"#utility.yul\":1702:1871   */\n    tag_332:\n        /* \"#utility.yul\":1786:1797   */\n      0x00\n        /* \"#utility.yul\":1820:1826   */\n      dup3\n        /* \"#utility.yul\":1815:1818   */\n      dup3\n        /* \"#utility.yul\":1808:1827   */\n      mstore\n        /* \"#utility.yul\":1860:1864   */\n      0x20\n        /* \"#utility.yul\":1855:1858   */\n      dup3\n        /* \"#utility.yul\":1851:1865   */\n      add\n        /* \"#utility.yul\":1836:1865   */\n      swap1\n      pop\n        /* \"#utility.yul\":1702:1871   */\n      swap3\n      swap2\n      pop\n      pop\n      jump\t// out\n        /* \"#utility.yul\":1877:2123   */\n    tag_333:\n        /* \"#utility.yul\":1958:1959   */\n      0x00\n        /* \"#utility.yul\":1968:2081   */\n    tag_396:\n        /* \"#utility.yul\":1982:1988   */\n      dup4\n        /* \"#utility.yul\":1979:1980   */\n      dup2\n        /* \"#utility.yul\":1976:1989   */\n      lt\n        /* \"#utility.yul\":1968:2081   */\n      iszero\n      tag_398\n      jumpi\n        /* \"#utility.yul\":2067:2068   */\n      dup1\n        /* \"#utility.yul\":2062:2065   */\n      dup3\n        /* \"#utility.yul\":2058:2069   */\n      add\n        /* \"#utility.yul\":2052:2070   */\n      mload\n        /* \"#utility.yul\":2048:2049   */\n      dup2\n        /* \"#utility.yul\":2043:2046   */\n      dup5\n        /* \"#utility.yul\":2039:2050   */\n      add\n        /* \"#utility.yul\":2032:2071   */\n      mstore\n        /* \"#utility.yul\":2004:2006   */\n      0x20\n        /* \"#utility.yul\":2001:2002   */\n      dup2\n        /* \"#utility.yul\":1997:2007   */\n      add\n        /* \"#utility.yul\":1992:2007   */\n      swap1\n      pop\n        /* \"#utility.yul\":1968:2081   */\n      jump(tag_396)\n    tag_398:\n        /* \"#utility.yul\":2115:2116   */\n      0x00\n        /* \"#utility.yul\":2106:2112   */\n      dup5\n        /* \"#utility.yul\":2101:2104   */\n      dup5\n        /* \"#utility.yul\":2097:2113   */\n      add\n        /* \"#utility.yul\":2090:2117   */\n      mstore\n        /* \"#utility.yul\":1939:2123   */\n      pop\n        /* \"#utility.yul\":1877:2123   */\n      pop\n      pop\n      pop\n      jump\t// out\n        /* \"#utility.yul\":2129:2231   */\n    tag_334:\n        /* \"#utility.yul\":2170:2176   */\n      0x00\n        /* \"#utility.yul\":2221:2223   */\n      0x1f\n        /* \"#utility.yul\":2217:2224   */\n      not\n        /* \"#utility.yul\":2212:2214   */\n      0x1f\n        /* \"#utility.yul\":2205:2210   */\n      dup4\n        /* \"#utility.yul\":2201:2215   */\n      add\n        /* \"#utility.yul\":2197:2225   */\n      and\n        /* \"#utility.yul\":2187:2225   */\n      swap1\n      pop\n        /* \"#utility.yul\":2129:2231   */\n      swap2\n      swap1\n      pop\n      jump\t// out\n        /* \"#utility.yul\":2237:2614   */\n    tag_335:\n        /* \"#utility.yul\":2325:2328   */\n      0x00\n        /* \"#utility.yul\":2353:2392   */\n      tag_401\n        /* \"#utility.yul\":2386:2391   */\n      dup3\n        /* \"#utility.yul\":2353:2392   */\n      tag_331\n      jump\t// in\n    tag_401:\n        /* \"#utility.yul\":2408:2479   */\n      tag_402\n        /* \"#utility.yul\":2472:2478   */\n      dup2\n        /* \"#utility.yul\":2467:2470   */\n      dup6\n        /* \"#utility.yul\":2408:2479   */\n      tag_332\n      jump\t// in\n    tag_402:\n        /* \"#utility.yul\":2401:2479   */\n      swap4\n      pop\n        /* \"#utility.yul\":2488:2553   */\n      tag_403\n        /* \"#utility.yul\":2546:2552   */\n      dup2\n        /* \"#utility.yul\":2541:2544   */\n      dup6\n        /* \"#utility.yul\":2534:2538   */\n      0x20\n        /* \"#utility.yul\":2527:2532   */\n      dup7\n        /* \"#utility.yul\":2523:2539   */\n      add\n        /* \"#utility.yul\":2488:2553   */\n      tag_333\n      jump\t// in\n    tag_403:\n        /* \"#utility.yul\":2578:2607   */\n      tag_404\n        /* \"#utility.yul\":2600:2606   */\n      dup2\n        /* \"#utility.yul\":2578:2607   */\n      tag_334\n      jump\t// in\n    tag_404:\n        /* \"#utility.yul\":2573:2576   */\n      dup5\n        /* \"#utility.yul\":2569:2608   */\n      add\n        /* \"#utility.yul\":2562:2608   */\n      swap2\n      pop\n        /* \"#utility.yul\":2329:2614   */\n      pop\n        /* \"#utility.yul\":2237:2614   */\n      swap3\n      swap2\n      pop\n      pop\n      jump\t// out\n        /* \"#utility.yul\":2620:2933   */\n    tag_43:\n        /* \"#utility.yul\":2733:2737   */\n      0x00\n        /* \"#utility.yul\":2771:2773   */\n      0x20\n        /* \"#utility.yul\":2760:2769   */\n      dup3\n        /* \"#utility.yul\":2756:2774   */\n      add\n        /* \"#utility.yul\":2748:2774   */\n      swap1\n      pop\n        /* \"#utility.yul\":2820:2829   */\n      dup2\n        /* \"#utility.yul\":2814:2818   */\n      dup2\n        /* \"#utility.yul\":2810:2830   */\n      sub\n        /* \"#utility.yul\":2806:2807   */\n      0x00\n        /* \"#utility.yul\":2795:2804   */\n      dup4\n        /* \"#utility.yul\":2791:2808   */\n      add\n        /* \"#utility.yul\":2784:2831   */\n      mstore\n        /* \"#utility.yul\":2848:2926   */\n      tag_406\n        /* \"#utility.yul\":2921:2925   */\n      dup2\n        /* \"#utility.yul\":2912:2918   */\n      dup5\n        /* \"#utility.yul\":2848:2926   */\n      tag_335\n      jump\t// in\n    tag_406:\n        /* \"#utility.yul\":2840:2926   */\n      swap1\n      pop\n        /* \"#utility.yul\":2620:2933   */\n      swap3\n      swap2\n      pop\n      pop\n      jump\t// out\n        /* \"#utility.yul\":2939:3065   */\n    tag_336:\n        /* \"#utility.yul\":2976:2983   */\n      0x00\n        /* \"#utility.yul\":3016:3058   */\n      0xffffffffffffffffffffffffffffffffffffffff\n        /* \"#utility.yul\":3009:3014   */\n      dup3\n        /* \"#utility.yul\":3005:3059   */\n      and\n        /* \"#utility.yul\":2994:3059   */\n      swap1\n      pop\n        /* \"#utility.yul\":2939:3065   */\n      swap2\n      swap1\n      pop\n      jump\t// out\n        /* \"#utility.yul\":3071:3167   */\n    tag_337:\n        /* \"#utility.yul\":3108:3115   */\n      0x00\n        /* \"#utility.yul\":3137:3161   */\n      tag_409\n        /* \"#utility.yul\":3155:3160   */\n      dup3\n        /* \"#utility.yul\":3137:3161   */\n      tag_336\n      jump\t// in\n    tag_409:\n        /* \"#utility.yul\":3126:3161   */\n      swap1\n      pop\n        /* \"#utility.yul\":3071:3167   */\n      swap2\n      swap1\n      pop\n      jump\t// out\n        /* \"#utility.yul\":3173:3295   */\n    tag_338:\n        /* \"#utility.yul\":3246:3270   */\n      tag_411\n        /* \"#utility.yul\":3264:3269   */\n      dup2\n        /* \"#utility.yul\":3246:3270   */\n      tag_337\n      jump\t// in\n    tag_411:\n        /* \"#utility.yul\":3239:3244   */\n      dup2\n        /* \"#utility.yul\":3236:3271   */\n      eq\n        /* \"#utility.yul\":3226:3289   */\n      tag_412\n      jumpi\n        /* \"#utility.yul\":3285:3286   */\n      0x00\n        /* \"#utility.yul\":3282:3283   */\n      dup1\n        /* \"#utility.yul\":3275:3287   */\n      revert\n        /* \"#utility.yul\":3226:3289   */\n    tag_412:\n        /* \"#utility.yul\":3173:3295   */\n      pop\n      jump\t// out\n        /* \"#utility.yul\":3301:3440   */\n    tag_339:\n        /* \"#utility.yul\":3347:3352   */\n      0x00\n        /* \"#utility.yul\":3385:3391   */\n      dup2\n        /* \"#utility.yul\":3372:3392   */\n      calldataload\n        /* \"#utility.yul\":3363:3392   */\n      swap1\n      pop\n        /* \"#utility.yul\":3401:3434   */\n      tag_414\n        /* \"#utility.yul\":3428:3433   */\n      dup2\n        /* \"#utility.yul\":3401:3434   */\n      tag_338\n      jump\t// in\n    tag_414:\n        /* \"#utility.yul\":3301:3440   */\n      swap3\n      swap2\n      pop\n      pop\n      jump\t// out\n        /* \"#utility.yul\":3446:3920   */\n    tag_46:\n        /* \"#utility.yul\":3514:3520   */\n      0x00\n        /* \"#utility.yul\":3522:3528   */\n      dup1\n        /* \"#utility.yul\":3571:3573   */\n      0x40\n        /* \"#utility.yul\":3559:3568   */\n      dup4\n        /* \"#utility.yul\":3550:3557   */\n      dup6\n        /* \"#utility.yul\":3546:3569   */\n      sub\n        /* \"#utility.yul\":3542:3574   */\n      slt\n        /* \"#utility.yul\":3539:3658   */\n      iszero\n      tag_416\n      jumpi\n        /* \"#utility.yul\":3577:3656   */\n      tag_417\n      tag_324\n      jump\t// in\n    tag_417:\n        /* \"#utility.yul\":3539:3658   */\n    tag_416:\n        /* \"#utility.yul\":3697:3698   */\n      0x00\n        /* \"#utility.yul\":3722:3775   */\n      tag_418\n        /* \"#utility.yul\":3767:3774   */\n      dup6\n        /* \"#utility.yul\":3758:3764   */\n      dup3\n        /* \"#utility.yul\":3747:3756   */\n      dup7\n        /* \"#utility.yul\":3743:3765   */\n      add\n        /* \"#utility.yul\":3722:3775   */\n      tag_339\n      jump\t// in\n    tag_418:\n        /* \"#utility.yul\":3712:3775   */\n      swap3\n      pop\n        /* \"#utility.yul\":3668:3785   */\n      pop\n        /* \"#utility.yul\":3824:3826   */\n      0x20\n        /* \"#utility.yul\":3850:3903   */\n      tag_419\n        /* \"#utility.yul\":3895:3902   */\n      dup6\n        /* \"#utility.yul\":3886:3892   */\n      dup3\n        /* \"#utility.yul\":3875:3884   */\n      dup7\n        /* \"#utility.yul\":3871:3893   */\n      add\n        /* \"#utility.yul\":3850:3903   */\n      tag_328\n      jump\t// in\n    tag_419:\n        /* \"#utility.yul\":3840:3903   */\n      swap2\n      pop\n        /* \"#utility.yul\":3795:3913   */\n      pop\n        /* \"#utility.yul\":3446:3920   */\n      swap3\n      pop\n      swap3\n      swap1\n      pop\n      jump\t// out\n        /* \"#utility.yul\":3926:4044   */\n    tag_340:\n        /* \"#utility.yul\":4013:4037   */\n      tag_421\n        /* \"#utility.yul\":4031:4036   */\n      dup2\n        /* \"#utility.yul\":4013:4037   */\n      tag_326\n      jump\t// in\n    tag_421:\n        /* \"#utility.yul\":4008:4011   */\n      dup3\n        /* \"#utility.yul\":4001:4038   */\n      mstore\n        /* \"#utility.yul\":3926:4044   */\n      pop\n      pop\n      jump\t// out\n        /* \"#utility.yul\":4050:4272   */\n    tag_52:\n        /* \"#utility.yul\":4143:4147   */\n      0x00\n        /* \"#utility.yul\":4181:4183   */\n      0x20\n        /* \"#utility.yul\":4170:4179   */\n      dup3\n        /* \"#utility.yul\":4166:4184   */\n      add\n        /* \"#utility.yul\":4158:4184   */\n      swap1\n      pop\n        /* \"#utility.yul\":4194:4265   */\n      tag_423\n        /* \"#utility.yul\":4262:4263   */\n      0x00\n        /* \"#utility.yul\":4251:4260   */\n      dup4\n        /* \"#utility.yul\":4247:4264   */\n      add\n        /* \"#utility.yul\":4238:4244   */\n      dup5\n        /* \"#utility.yul\":4194:4265   */\n      tag_340\n      jump\t// in\n    tag_423:\n        /* \"#utility.yul\":4050:4272   */\n      swap3\n      swap2\n      pop\n      pop\n      jump\t// out\n        /* \"#utility.yul\":4278:4607   */\n    tag_58:\n        /* \"#utility.yul\":4337:4343   */\n      0x00\n        /* \"#utility.yul\":4386:4388   */\n      0x20\n        /* \"#utility.yul\":4374:4383   */\n      dup3\n        /* \"#utility.yul\":4365:4372   */\n      dup5\n        /* \"#utility.yul\":4361:4384   */\n      sub\n        /* \"#utility.yul\":4357:4389   */\n      slt\n        /* \"#utility.yul\":4354:4473   */\n      iszero\n      tag_425\n      jumpi\n        /* \"#utility.yul\":4392:4471   */\n      tag_426\n      tag_324\n      jump\t// in\n    tag_426:\n        /* \"#utility.yul\":4354:4473   */\n    tag_425:\n        /* \"#utility.yul\":4512:4513   */\n      0x00\n        /* \"#utility.yul\":4537:4590   */\n      tag_427\n        /* \"#utility.yul\":4582:4589   */\n      dup5\n        /* \"#utility.yul\":4573:4579   */\n      dup3\n        /* \"#utility.yul\":4562:4571   */\n      dup6\n        /* \"#utility.yul\":4558:4580   */\n      add\n        /* \"#utility.yul\":4537:4590   */\n      tag_339\n      jump\t// in\n    tag_427:\n        /* \"#utility.yul\":4527:4590   */\n      swap2\n      pop\n        /* \"#utility.yul\":4483:4600   */\n      pop\n        /* \"#utility.yul\":4278:4607   */\n      swap3\n      swap2\n      pop\n      pop\n      jump\t// out\n        /* \"#utility.yul\":4613:5232   */\n    tag_63:\n        /* \"#utility.yul\":4690:4696   */\n      0x00\n        /* \"#utility.yul\":4698:4704   */\n      dup1\n        /* \"#utility.yul\":4706:4712   */\n      0x00\n        /* \"#utility.yul\":4755:4757   */\n      0x60\n        /* \"#utility.yul\":4743:4752   */\n      dup5\n        /* \"#utility.yul\":4734:4741   */\n      dup7\n        /* \"#utility.yul\":4730:4753   */\n      sub\n        /* \"#utility.yul\":4726:4758   */\n      slt\n        /* \"#utility.yul\":4723:4842   */\n      iszero\n      tag_429\n      jumpi\n        /* \"#utility.yul\":4761:4840   */\n      tag_430\n      tag_324\n      jump\t// in\n    tag_430:\n        /* \"#utility.yul\":4723:4842   */\n    tag_429:\n        /* \"#utility.yul\":4881:4882   */\n      0x00\n        /* \"#utility.yul\":4906:4959   */\n      tag_431\n        /* \"#utility.yul\":4951:4958   */\n      dup7\n        /* \"#utility.yul\":4942:4948   */\n      dup3\n        /* \"#utility.yul\":4931:4940   */\n      dup8\n        /* \"#utility.yul\":4927:4949   */\n      add\n        /* \"#utility.yul\":4906:4959   */\n      tag_339\n      jump\t// in\n    tag_431:\n        /* \"#utility.yul\":4896:4959   */\n      swap4\n      pop\n        /* \"#utility.yul\":4852:4969   */\n      pop\n        /* \"#utility.yul\":5008:5010   */\n      0x20\n        /* \"#utility.yul\":5034:5087   */\n      tag_432\n        /* \"#utility.yul\":5079:5086   */\n      dup7\n        /* \"#utility.yul\":5070:5076   */\n      dup3\n        /* \"#utility.yul\":5059:5068   */\n      dup8\n        /* \"#utility.yul\":5055:5077   */\n      add\n        /* \"#utility.yul\":5034:5087   */\n      tag_339\n      jump\t// in\n    tag_432:\n        /* \"#utility.yul\":5024:5087   */\n      swap3\n      pop\n        /* \"#utility.yul\":4979:5097   */\n      pop\n        /* \"#utility.yul\":5136:5138   */\n      0x40\n        /* \"#utility.yul\":5162:5215   */\n      tag_433\n        /* \"#utility.yul\":5207:5214   */\n      dup7\n        /* \"#utility.yul\":5198:5204   */\n      dup3\n        /* \"#utility.yul\":5187:5196   */\n      dup8\n        /* \"#utility.yul\":5183:5205   */\n      add\n        /* \"#utility.yul\":5162:5215   */\n      tag_328\n      jump\t// in\n    tag_433:\n        /* \"#utility.yul\":5152:5215   */\n      swap2\n      pop\n        /* \"#utility.yul\":5107:5225   */\n      pop\n        /* \"#utility.yul\":4613:5232   */\n      swap3\n      pop\n      swap3\n      pop\n      swap3\n      jump\t// out\n        /* \"#utility.yul\":5238:5567   */\n    tag_68:\n        /* \"#utility.yul\":5297:5303   */\n      0x00\n        /* \"#utility.yul\":5346:5348   */\n      0x20\n        /* \"#utility.yul\":5334:5343   */\n      dup3\n        /* \"#utility.yul\":5325:5332   */\n      dup5\n        /* \"#utility.yul\":5321:5344   */\n      sub\n        /* \"#utility.yul\":5317:5349   */\n      slt\n        /* \"#utility.yul\":5314:5433   */\n      iszero\n      tag_435\n      jumpi\n        /* \"#utility.yul\":5352:5431   */\n      tag_436\n      tag_324\n      jump\t// in\n    tag_436:\n        /* \"#utility.yul\":5314:5433   */\n    tag_435:\n        /* \"#utility.yul\":5472:5473   */\n      0x00\n        /* \"#utility.yul\":5497:5550   */\n      tag_437\n        /* \"#utility.yul\":5542:5549   */\n      dup5\n        /* \"#utility.yul\":5533:5539   */\n      dup3\n        /* \"#utility.yul\":5522:5531   */\n      dup6\n        /* \"#utility.yul\":5518:5540   */\n      add\n        /* \"#utility.yul\":5497:5550   */\n      tag_328\n      jump\t// in\n    tag_437:\n        /* \"#utility.yul\":5487:5550   */\n      swap2\n      pop\n        /* \"#utility.yul\":5443:5560   */\n      pop\n        /* \"#utility.yul\":5238:5567   */\n      swap3\n      swap2\n      pop\n      pop\n      jump\t// out\n        /* \"#utility.yul\":5573:5659   */\n    tag_341:\n        /* \"#utility.yul\":5608:5615   */\n      0x00\n        /* \"#utility.yul\":5648:5652   */\n      0xff\n        /* \"#utility.yul\":5641:5646   */\n      dup3\n        /* \"#utility.yul\":5637:5653   */\n      and\n        /* \"#utility.yul\":5626:5653   */\n      swap1\n      pop\n        /* \"#utility.yul\":5573:5659   */\n      swap2\n      swap1\n      pop\n      jump\t// out\n        /* \"#utility.yul\":5665:5777   */\n    tag_342:\n        /* \"#utility.yul\":5748:5770   */\n      tag_440\n        /* \"#utility.yul\":5764:5769   */\n      dup2\n        /* \"#utility.yul\":5748:5770   */\n      tag_341\n      jump\t// in\n    tag_440:\n        /* \"#utility.yul\":5743:5746   */\n      dup3\n        /* \"#utility.yul\":5736:5771   */\n      mstore\n        /* \"#utility.yul\":5665:5777   */\n      pop\n      pop\n      jump\t// out\n        /* \"#utility.yul\":5783:5997   */\n    tag_74:\n        /* \"#utility.yul\":5872:5876   */\n      0x00\n        /* \"#utility.yul\":5910:5912   */\n      0x20\n        /* \"#utility.yul\":5899:5908   */\n      dup3\n        /* \"#utility.yul\":5895:5913   */\n      add\n        /* \"#utility.yul\":5887:5913   */\n      swap1\n      pop\n        /* \"#utility.yul\":5923:5990   */\n      tag_442\n        /* \"#utility.yul\":5987:5988   */\n      0x00\n        /* \"#utility.yul\":5976:5985   */\n      dup4\n        /* \"#utility.yul\":5972:5989   */\n      add\n        /* \"#utility.yul\":5963:5969   */\n      dup5\n        /* \"#utility.yul\":5923:5990   */\n      tag_342\n      jump\t// in\n    tag_442:\n        /* \"#utility.yul\":5783:5997   */\n      swap3\n      swap2\n      pop\n      pop\n      jump\t// out\n        /* \"#utility.yul\":6003:6778   */\n    tag_93:\n        /* \"#utility.yul\":6236:6240   */\n      0x00\n        /* \"#utility.yul\":6274:6277   */\n      0xc0\n        /* \"#utility.yul\":6263:6272   */\n      dup3\n        /* \"#utility.yul\":6259:6278   */\n      add\n        /* \"#utility.yul\":6251:6278   */\n      swap1\n      pop\n        /* \"#utility.yul\":6288:6359   */\n      tag_444\n        /* \"#utility.yul\":6356:6357   */\n      0x00\n        /* \"#utility.yul\":6345:6354   */\n      dup4\n        /* \"#utility.yul\":6341:6358   */\n      add\n        /* \"#utility.yul\":6332:6338   */\n      dup10\n        /* \"#utility.yul\":6288:6359   */\n      tag_340\n      jump\t// in\n    tag_444:\n        /* \"#utility.yul\":6369:6441   */\n      tag_445\n        /* \"#utility.yul\":6437:6439   */\n      0x20\n        /* \"#utility.yul\":6426:6435   */\n      dup4\n        /* \"#utility.yul\":6422:6440   */\n      add\n        /* \"#utility.yul\":6413:6419   */\n      dup9\n        /* \"#utility.yul\":6369:6441   */\n      tag_340\n      jump\t// in\n    tag_445:\n        /* \"#utility.yul\":6451:6523   */\n      tag_446\n        /* \"#utility.yul\":6519:6521   */\n      0x40\n        /* \"#utility.yul\":6508:6517   */\n      dup4\n        /* \"#utility.yul\":6504:6522   */\n      add\n        /* \"#utility.yul\":6495:6501   */\n      dup8\n        /* \"#utility.yul\":6451:6523   */\n      tag_340\n      jump\t// in\n    tag_446:\n        /* \"#utility.yul\":6533:6605   */\n      tag_447\n        /* \"#utility.yul\":6601:6603   */\n      0x60\n        /* \"#utility.yul\":6590:6599   */\n      dup4\n        /* \"#utility.yul\":6586:6604   */\n      add\n        /* \"#utility.yul\":6577:6583   */\n      dup7\n        /* \"#utility.yul\":6533:6605   */\n      tag_340\n      jump\t// in\n    tag_447:\n        /* \"#utility.yul\":6615:6688   */\n      tag_448\n        /* \"#utility.yul\":6683:6686   */\n      0x80\n        /* \"#utility.yul\":6672:6681   */\n      dup4\n        /* \"#utility.yul\":6668:6687   */\n      add\n        /* \"#utility.yul\":6659:6665   */\n      dup6\n        /* \"#utility.yul\":6615:6688   */\n      tag_340\n      jump\t// in\n    tag_448:\n        /* \"#utility.yul\":6698:6771   */\n      tag_449\n        /* \"#utility.yul\":6766:6769   */\n      0xa0\n        /* \"#utility.yul\":6755:6764   */\n      dup4\n        /* \"#utility.yul\":6751:6770   */\n      add\n        /* \"#utility.yul\":6742:6748   */\n      dup5\n        /* \"#utility.yul\":6698:6771   */\n      tag_340\n      jump\t// in\n    tag_449:\n        /* \"#utility.yul\":6003:6778   */\n      swap8\n      swap7\n      pop\n      pop\n      pop\n      pop\n      pop\n      pop\n      pop\n      jump\t// out\n        /* \"#utility.yul\":6784:7258   */\n    tag_129:\n        /* \"#utility.yul\":6852:6858   */\n      0x00\n        /* \"#utility.yul\":6860:6866   */\n      dup1\n        /* \"#utility.yul\":6909:6911   */\n      0x40\n        /* \"#utility.yul\":6897:6906   */\n      dup4\n        /* \"#utility.yul\":6888:6895   */\n      dup6\n        /* \"#utility.yul\":6884:6907   */\n      sub\n        /* \"#utility.yul\":6880:6912   */\n      slt\n        /* \"#utility.yul\":6877:6996   */\n      iszero\n      tag_451\n      jumpi\n        /* \"#utility.yul\":6915:6994   */\n      tag_452\n      tag_324\n      jump\t// in\n    tag_452:\n        /* \"#utility.yul\":6877:6996   */\n    tag_451:\n        /* \"#utility.yul\":7035:7036   */\n      0x00\n        /* \"#utility.yul\":7060:7113   */\n      tag_453\n        /* \"#utility.yul\":7105:7112   */\n      dup6\n        /* \"#utility.yul\":7096:7102   */\n      dup3\n        /* \"#utility.yul\":7085:7094   */\n      dup7\n        /* \"#utility.yul\":7081:7103   */\n      add\n        /* \"#utility.yul\":7060:7113   */\n      tag_339\n      jump\t// in\n    tag_453:\n        /* \"#utility.yul\":7050:7113   */\n      swap3\n      pop\n        /* \"#utility.yul\":7006:7123   */\n      pop\n        /* \"#utility.yul\":7162:7164   */\n      0x20\n        /* \"#utility.yul\":7188:7241   */\n      tag_454\n        /* \"#utility.yul\":7233:7240   */\n      dup6\n        /* \"#utility.yul\":7224:7230   */\n      dup3\n        /* \"#utility.yul\":7213:7222   */\n      dup7\n        /* \"#utility.yul\":7209:7231   */\n      add\n        /* \"#utility.yul\":7188:7241   */\n      tag_339\n      jump\t// in\n    tag_454:\n        /* \"#utility.yul\":7178:7241   */\n      swap2\n      pop\n        /* \"#utility.yul\":7133:7251   */\n      pop\n        /* \"#utility.yul\":6784:7258   */\n      swap3\n      pop\n      swap3\n      swap1\n      pop\n      jump\t// out\n        /* \"#utility.yul\":7264:7381   */\n    tag_343:\n        /* \"#utility.yul\":7373:7374   */\n      0x00\n        /* \"#utility.yul\":7370:7371   */\n      dup1\n        /* \"#utility.yul\":7363:7375   */\n      revert\n        /* \"#utility.yul\":7387:7504   */\n    tag_344:\n        /* \"#utility.yul\":7496:7497   */\n      0x00\n        /* \"#utility.yul\":7493:7494   */\n      dup1\n        /* \"#utility.yul\":7486:7498   */\n      revert\n        /* \"#utility.yul\":7510:7690   */\n    tag_261:\n        /* \"#utility.yul\":7558:7635   */\n      0x4e487b7100000000000000000000000000000000000000000000000000000000\n        /* \"#utility.yul\":7555:7556   */\n      0x00\n        /* \"#utility.yul\":7548:7636   */\n      mstore\n        /* \"#utility.yul\":7655:7659   */\n      0x41\n        /* \"#utility.yul\":7652:7653   */\n      0x04\n        /* \"#utility.yul\":7645:7660   */\n      mstore\n        /* \"#utility.yul\":7679:7683   */\n      0x24\n        /* \"#utility.yul\":7676:7677   */\n      0x00\n        /* \"#utility.yul\":7669:7684   */\n      revert\n        /* \"#utility.yul\":7696:7977   */\n    tag_345:\n        /* \"#utility.yul\":7779:7806   */\n      tag_459\n        /* \"#utility.yul\":7801:7805   */\n      dup3\n        /* \"#utility.yul\":7779:7806   */\n      tag_334\n      jump\t// in\n    tag_459:\n        /* \"#utility.yul\":7771:7777   */\n      dup2\n        /* \"#utility.yul\":7767:7807   */\n      add\n        /* \"#utility.yul\":7909:7915   */\n      dup2\n        /* \"#utility.yul\":7897:7907   */\n      dup2\n        /* \"#utility.yul\":7894:7916   */\n      lt\n        /* \"#utility.yul\":7873:7891   */\n      0xffffffffffffffff\n        /* \"#utility.yul\":7861:7871   */\n      dup3\n        /* \"#utility.yul\":7858:7892   */\n      gt\n        /* \"#utility.yul\":7855:7917   */\n      or\n        /* \"#utility.yul\":7852:7940   */\n      iszero\n      tag_460\n      jumpi\n        /* \"#utility.yul\":7920:7938   */\n      tag_461\n      tag_261\n      jump\t// in\n    tag_461:\n        /* \"#utility.yul\":7852:7940   */\n    tag_460:\n        /* \"#utility.yul\":7960:7970   */\n      dup1\n        /* \"#utility.yul\":7956:7958   */\n      0x40\n        /* \"#utility.yul\":7949:7971   */\n      mstore\n        /* \"#utility.yul\":7739:7977   */\n      pop\n        /* \"#utility.yul\":7696:7977   */\n      pop\n      pop\n      jump\t// out\n        /* \"#utility.yul\":7983:8112   */\n    tag_346:\n        /* \"#utility.yul\":8017:8023   */\n      0x00\n        /* \"#utility.yul\":8044:8064   */\n      tag_463\n      tag_323\n      jump\t// in\n    tag_463:\n        /* \"#utility.yul\":8034:8064   */\n      swap1\n      pop\n        /* \"#utility.yul\":8073:8106   */\n      tag_464\n        /* \"#utility.yul\":8101:8105   */\n      dup3\n        /* \"#utility.yul\":8093:8099   */\n      dup3\n        /* \"#utility.yul\":8073:8106   */\n      tag_345\n      jump\t// in\n    tag_464:\n        /* \"#utility.yul\":7983:8112   */\n      swap2\n      swap1\n      pop\n      jump\t// out\n        /* \"#utility.yul\":8118:8426   */\n    tag_347:\n        /* \"#utility.yul\":8180:8184   */\n      0x00\n        /* \"#utility.yul\":8270:8288   */\n      0xffffffffffffffff\n        /* \"#utility.yul\":8262:8268   */\n      dup3\n        /* \"#utility.yul\":8259:8289   */\n      gt\n        /* \"#utility.yul\":8256:8312   */\n      iszero\n      tag_466\n      jumpi\n        /* \"#utility.yul\":8292:8310   */\n      tag_467\n      tag_261\n      jump\t// in\n    tag_467:\n        /* \"#utility.yul\":8256:8312   */\n    tag_466:\n        /* \"#utility.yul\":8330:8359   */\n      tag_468\n        /* \"#utility.yul\":8352:8358   */\n      dup3\n        /* \"#utility.yul\":8330:8359   */\n      tag_334\n      jump\t// in\n    tag_468:\n        /* \"#utility.yul\":8322:8359   */\n      swap1\n      pop\n        /* \"#utility.yul\":8414:8418   */\n      0x20\n        /* \"#utility.yul\":8408:8412   */\n      dup2\n        /* \"#utility.yul\":8404:8419   */\n      add\n        /* \"#utility.yul\":8396:8419   */\n      swap1\n      pop\n        /* \"#utility.yul\":8118:8426   */\n      swap2\n      swap1\n      pop\n      jump\t// out\n        /* \"#utility.yul\":8432:8578   */\n    tag_348:\n        /* \"#utility.yul\":8529:8535   */\n      dup3\n        /* \"#utility.yul\":8524:8527   */\n      dup2\n        /* \"#utility.yul\":8519:8522   */\n      dup4\n        /* \"#utility.yul\":8506:8536   */\n      calldatacopy\n        /* \"#utility.yul\":8570:8571   */\n      0x00\n        /* \"#utility.yul\":8561:8567   */\n      dup4\n        /* \"#utility.yul\":8556:8559   */\n      dup4\n        /* \"#utility.yul\":8552:8568   */\n      add\n        /* \"#utility.yul\":8545:8572   */\n      mstore\n        /* \"#utility.yul\":8432:8578   */\n      pop\n      pop\n      pop\n      jump\t// out\n        /* \"#utility.yul\":8584:9009   */\n    tag_349:\n        /* \"#utility.yul\":8662:8667   */\n      0x00\n        /* \"#utility.yul\":8687:8753   */\n      tag_471\n        /* \"#utility.yul\":8703:8752   */\n      tag_472\n        /* \"#utility.yul\":8745:8751   */\n      dup5\n        /* \"#utility.yul\":8703:8752   */\n      tag_347\n      jump\t// in\n    tag_472:\n        /* \"#utility.yul\":8687:8753   */\n      tag_346\n      jump\t// in\n    tag_471:\n        /* \"#utility.yul\":8678:8753   */\n      swap1\n      pop\n        /* \"#utility.yul\":8776:8782   */\n      dup3\n        /* \"#utility.yul\":8769:8774   */\n      dup2\n        /* \"#utility.yul\":8762:8783   */\n      mstore\n        /* \"#utility.yul\":8814:8818   */\n      0x20\n        /* \"#utility.yul\":8807:8812   */\n      dup2\n        /* \"#utility.yul\":8803:8819   */\n      add\n        /* \"#utility.yul\":8852:8855   */\n      dup5\n        /* \"#utility.yul\":8843:8849   */\n      dup5\n        /* \"#utility.yul\":8838:8841   */\n      dup5\n        /* \"#utility.yul\":8834:8850   */\n      add\n        /* \"#utility.yul\":8831:8856   */\n      gt\n        /* \"#utility.yul\":8828:8940   */\n      iszero\n      tag_473\n      jumpi\n        /* \"#utility.yul\":8859:8938   */\n      tag_474\n      tag_344\n      jump\t// in\n    tag_474:\n        /* \"#utility.yul\":8828:8940   */\n    tag_473:\n        /* \"#utility.yul\":8949:9003   */\n      tag_475\n        /* \"#utility.yul\":8996:9002   */\n      dup5\n        /* \"#utility.yul\":8991:8994   */\n      dup3\n        /* \"#utility.yul\":8986:8989   */\n      dup6\n        /* \"#utility.yul\":8949:9003   */\n      tag_348\n      jump\t// in\n    tag_475:\n        /* \"#utility.yul\":8668:9009   */\n      pop\n        /* \"#utility.yul\":8584:9009   */\n      swap4\n      swap3\n      pop\n      pop\n      pop\n      jump\t// out\n        /* \"#utility.yul\":9029:9369   */\n    tag_350:\n        /* \"#utility.yul\":9085:9090   */\n      0x00\n        /* \"#utility.yul\":9134:9137   */\n      dup3\n        /* \"#utility.yul\":9127:9131   */\n      0x1f\n        /* \"#utility.yul\":9119:9125   */\n      dup4\n        /* \"#utility.yul\":9115:9132   */\n      add\n        /* \"#utility.yul\":9111:9138   */\n      slt\n        /* \"#utility.yul\":9101:9223   */\n      tag_477\n      jumpi\n        /* \"#utility.yul\":9142:9221   */\n      tag_478\n      tag_343\n      jump\t// in\n    tag_478:\n        /* \"#utility.yul\":9101:9223   */\n    tag_477:\n        /* \"#utility.yul\":9259:9265   */\n      dup2\n        /* \"#utility.yul\":9246:9266   */\n      calldataload\n        /* \"#utility.yul\":9284:9363   */\n      tag_479\n        /* \"#utility.yul\":9359:9362   */\n      dup5\n        /* \"#utility.yul\":9351:9357   */\n      dup3\n        /* \"#utility.yul\":9344:9348   */\n      0x20\n        /* \"#utility.yul\":9336:9342   */\n      dup7\n        /* \"#utility.yul\":9332:9349   */\n      add\n        /* \"#utility.yul\":9284:9363   */\n      tag_349\n      jump\t// in\n    tag_479:\n        /* \"#utility.yul\":9275:9363   */\n      swap2\n      pop\n        /* \"#utility.yul\":9091:9369   */\n      pop\n        /* \"#utility.yul\":9029:9369   */\n      swap3\n      swap2\n      pop\n      pop\n      jump\t// out\n        /* \"#utility.yul\":9375:10320   */\n    tag_134:\n        /* \"#utility.yul\":9471:9477   */\n      0x00\n        /* \"#utility.yul\":9479:9485   */\n      dup1\n        /* \"#utility.yul\":9487:9493   */\n      0x00\n        /* \"#utility.yul\":9495:9501   */\n      dup1\n        /* \"#utility.yul\":9544:9547   */\n      0x80\n        /* \"#utility.yul\":9532:9541   */\n      dup6\n        /* \"#utility.yul\":9523:9530   */\n      dup8\n        /* \"#utility.yul\":9519:9542   */\n      sub\n        /* \"#utility.yul\":9515:9548   */\n      slt\n        /* \"#utility.yul\":9512:9632   */\n      iszero\n      tag_481\n      jumpi\n        /* \"#utility.yul\":9551:9630   */\n      tag_482\n      tag_324\n      jump\t// in\n    tag_482:\n        /* \"#utility.yul\":9512:9632   */\n    tag_481:\n        /* \"#utility.yul\":9671:9672   */\n      0x00\n        /* \"#utility.yul\":9696:9749   */\n      tag_483\n        /* \"#utility.yul\":9741:9748   */\n      dup8\n        /* \"#utility.yul\":9732:9738   */\n      dup3\n        /* \"#utility.yul\":9721:9730   */\n      dup9\n        /* \"#utility.yul\":9717:9739   */\n      add\n        /* \"#utility.yul\":9696:9749   */\n      tag_339\n      jump\t// in\n    tag_483:\n        /* \"#utility.yul\":9686:9749   */\n      swap5\n      pop\n        /* \"#utility.yul\":9642:9759   */\n      pop\n        /* \"#utility.yul\":9798:9800   */\n      0x20\n        /* \"#utility.yul\":9824:9877   */\n      tag_484\n        /* \"#utility.yul\":9869:9876   */\n      dup8\n        /* \"#utility.yul\":9860:9866   */\n      dup3\n        /* \"#utility.yul\":9849:9858   */\n      dup9\n        /* \"#utility.yul\":9845:9867   */\n      add\n        /* \"#utility.yul\":9824:9877   */\n      tag_328\n      jump\t// in\n    tag_484:\n        /* \"#utility.yul\":9814:9877   */\n      swap4\n      pop\n        /* \"#utility.yul\":9769:9887   */\n      pop\n        /* \"#utility.yul\":9926:9928   */\n      0x40\n        /* \"#utility.yul\":9952:10005   */\n      tag_485\n        /* \"#utility.yul\":9997:10004   */\n      dup8\n        /* \"#utility.yul\":9988:9994   */\n      dup3\n        /* \"#utility.yul\":9977:9986   */\n      dup9\n        /* \"#utility.yul\":9973:9995   */\n      add\n        /* \"#utility.yul\":9952:10005   */\n      tag_328\n      jump\t// in\n    tag_485:\n        /* \"#utility.yul\":9942:10005   */\n      swap3\n      pop\n        /* \"#utility.yul\":9897:10015   */\n      pop\n        /* \"#utility.yul\":10082:10084   */\n      0x60\n        /* \"#utility.yul\":10071:10080   */\n      dup6\n        /* \"#utility.yul\":10067:10085   */\n      add\n        /* \"#utility.yul\":10054:10086   */\n      calldataload\n        /* \"#utility.yul\":10113:10131   */\n      0xffffffffffffffff\n        /* \"#utility.yul\":10105:10111   */\n      dup2\n        /* \"#utility.yul\":10102:10132   */\n      gt\n        /* \"#utility.yul\":10099:10216   */\n      iszero\n      tag_486\n      jumpi\n        /* \"#utility.yul\":10135:10214   */\n      tag_487\n      tag_325\n      jump\t// in\n    tag_487:\n        /* \"#utility.yul\":10099:10216   */\n    tag_486:\n        /* \"#utility.yul\":10240:10303   */\n      tag_488\n        /* \"#utility.yul\":10295:10302   */\n      dup8\n        /* \"#utility.yul\":10286:10292   */\n      dup3\n        /* \"#utility.yul\":10275:10284   */\n      dup9\n        /* \"#utility.yul\":10271:10293   */\n      add\n        /* \"#utility.yul\":10240:10303   */\n      tag_350\n      jump\t// in\n    tag_488:\n        /* \"#utility.yul\":10230:10303   */\n      swap2\n      pop\n        /* \"#utility.yul\":10025:10313   */\n      pop\n        /* \"#utility.yul\":9375:10320   */\n      swap3\n      swap6\n      swap2\n      swap5\n      pop\n      swap3\n      pop\n      jump\t// out\n        /* \"#utility.yul\":10326:10835   */\n    tag_139:\n        /* \"#utility.yul\":10395:10401   */\n      0x00\n        /* \"#utility.yul\":10444:10446   */\n      0x20\n        /* \"#utility.yul\":10432:10441   */\n      dup3\n        /* \"#utility.yul\":10423:10430   */\n      dup5\n        /* \"#utility.yul\":10419:10442   */\n      sub\n        /* \"#utility.yul\":10415:10447   */\n      slt\n        /* \"#utility.yul\":10412:10531   */\n      iszero\n      tag_490\n      jumpi\n        /* \"#utility.yul\":10450:10529   */\n      tag_491\n      tag_324\n      jump\t// in\n    tag_491:\n        /* \"#utility.yul\":10412:10531   */\n    tag_490:\n        /* \"#utility.yul\":10598:10599   */\n      0x00\n        /* \"#utility.yul\":10587:10596   */\n      dup3\n        /* \"#utility.yul\":10583:10600   */\n      add\n        /* \"#utility.yul\":10570:10601   */\n      calldataload\n        /* \"#utility.yul\":10628:10646   */\n      0xffffffffffffffff\n        /* \"#utility.yul\":10620:10626   */\n      dup2\n        /* \"#utility.yul\":10617:10647   */\n      gt\n        /* \"#utility.yul\":10614:10731   */\n      iszero\n      tag_492\n      jumpi\n        /* \"#utility.yul\":10650:10729   */\n      tag_493\n      tag_325\n      jump\t// in\n    tag_493:\n        /* \"#utility.yul\":10614:10731   */\n    tag_492:\n        /* \"#utility.yul\":10755:10818   */\n      tag_494\n        /* \"#utility.yul\":10810:10817   */\n      dup5\n        /* \"#utility.yul\":10801:10807   */\n      dup3\n        /* \"#utility.yul\":10790:10799   */\n      dup6\n        /* \"#utility.yul\":10786:10808   */\n      add\n        /* \"#utility.yul\":10755:10818   */\n      tag_350\n      jump\t// in\n    tag_494:\n        /* \"#utility.yul\":10745:10818   */\n      swap2\n      pop\n        /* \"#utility.yul\":10541:10828   */\n      pop\n        /* \"#utility.yul\":10326:10835   */\n      swap3\n      swap2\n      pop\n      pop\n      jump\t// out\n        /* \"#utility.yul\":10841:11000   */\n    tag_351:\n        /* \"#utility.yul\":10981:10992   */\n      0x6f6e6c7941646d696e0000000000000000000000000000000000000000000000\n        /* \"#utility.yul\":10977:10978   */\n      0x00\n        /* \"#utility.yul\":10969:10975   */\n      dup3\n        /* \"#utility.yul\":10965:10979   */\n      add\n        /* \"#utility.yul\":10958:10993   */\n      mstore\n        /* \"#utility.yul\":10841:11000   */\n      pop\n      jump\t// out\n        /* \"#utility.yul\":11006:11371   */\n    tag_352:\n        /* \"#utility.yul\":11148:11151   */\n      0x00\n        /* \"#utility.yul\":11169:11235   */\n      tag_497\n        /* \"#utility.yul\":11233:11234   */\n      0x09\n        /* \"#utility.yul\":11228:11231   */\n      dup4\n        /* \"#utility.yul\":11169:11235   */\n      tag_332\n      jump\t// in\n    tag_497:\n        /* \"#utility.yul\":11162:11235   */\n      swap2\n      pop\n        /* \"#utility.yul\":11244:11337   */\n      tag_498\n        /* \"#utility.yul\":11333:11336   */\n      dup3\n        /* \"#utility.yul\":11244:11337   */\n      tag_351\n      jump\t// in\n    tag_498:\n        /* \"#utility.yul\":11362:11364   */\n      0x20\n        /* \"#utility.yul\":11357:11360   */\n      dup3\n        /* \"#utility.yul\":11353:11365   */\n      add\n        /* \"#utility.yul\":11346:11365   */\n      swap1\n      pop\n        /* \"#utility.yul\":11006:11371   */\n      swap2\n      swap1\n      pop\n      jump\t// out\n        /* \"#utility.yul\":11377:11796   */\n    tag_146:\n        /* \"#utility.yul\":11543:11547   */\n      0x00\n        /* \"#utility.yul\":11581:11583   */\n      0x20\n        /* \"#utility.yul\":11570:11579   */\n      dup3\n        /* \"#utility.yul\":11566:11584   */\n      add\n        /* \"#utility.yul\":11558:11584   */\n      swap1\n      pop\n        /* \"#utility.yul\":11630:11639   */\n      dup2\n        /* \"#utility.yul\":11624:11628   */\n      dup2\n        /* \"#utility.yul\":11620:11640   */\n      sub\n        /* \"#utility.yul\":11616:11617   */\n      0x00\n        /* \"#utility.yul\":11605:11614   */\n      dup4\n        /* \"#utility.yul\":11601:11618   */\n      add\n        /* \"#utility.yul\":11594:11641   */\n      mstore\n        /* \"#utility.yul\":11658:11789   */\n      tag_500\n        /* \"#utility.yul\":11784:11788   */\n      dup2\n        /* \"#utility.yul\":11658:11789   */\n      tag_352\n      jump\t// in\n    tag_500:\n        /* \"#utility.yul\":11650:11789   */\n      swap1\n      pop\n        /* \"#utility.yul\":11377:11796   */\n      swap2\n      swap1\n      pop\n      jump\t// out\n        /* \"#utility.yul\":11802:12134   */\n    tag_153:\n        /* \"#utility.yul\":11923:11927   */\n      0x00\n        /* \"#utility.yul\":11961:11963   */\n      0x40\n        /* \"#utility.yul\":11950:11959   */\n      dup3\n        /* \"#utility.yul\":11946:11964   */\n      add\n        /* \"#utility.yul\":11938:11964   */\n      swap1\n      pop\n        /* \"#utility.yul\":11974:12045   */\n      tag_502\n        /* \"#utility.yul\":12042:12043   */\n      0x00\n        /* \"#utility.yul\":12031:12040   */\n      dup4\n        /* \"#utility.yul\":12027:12044   */\n      add\n        /* \"#utility.yul\":12018:12024   */\n      dup6\n        /* \"#utility.yul\":11974:12045   */\n      tag_340\n      jump\t// in\n    tag_502:\n        /* \"#utility.yul\":12055:12127   */\n      tag_503\n        /* \"#utility.yul\":12123:12125   */\n      0x20\n        /* \"#utility.yul\":12112:12121   */\n      dup4\n        /* \"#utility.yul\":12108:12126   */\n      add\n        /* \"#utility.yul\":12099:12105   */\n      dup5\n        /* \"#utility.yul\":12055:12127   */\n      tag_340\n      jump\t// in\n    tag_503:\n        /* \"#utility.yul\":11802:12134   */\n      swap4\n      swap3\n      pop\n      pop\n      pop\n      jump\t// out\n        /* \"#utility.yul\":12140:12320   */\n    tag_353:\n        /* \"#utility.yul\":12188:12265   */\n      0x4e487b7100000000000000000000000000000000000000000000000000000000\n        /* \"#utility.yul\":12185:12186   */\n      0x00\n        /* \"#utility.yul\":12178:12266   */\n      mstore\n        /* \"#utility.yul\":12285:12289   */\n      0x22\n        /* \"#utility.yul\":12282:12283   */\n      0x04\n        /* \"#utility.yul\":12275:12290   */\n      mstore\n        /* \"#utility.yul\":12309:12313   */\n      0x24\n        /* \"#utility.yul\":12306:12307   */\n      0x00\n        /* \"#utility.yul\":12299:12314   */\n      revert\n        /* \"#utility.yul\":12326:12646   */\n    tag_156:\n        /* \"#utility.yul\":12370:12376   */\n      0x00\n        /* \"#utility.yul\":12407:12408   */\n      0x02\n        /* \"#utility.yul\":12401:12405   */\n      dup3\n        /* \"#utility.yul\":12397:12409   */\n      div\n        /* \"#utility.yul\":12387:12409   */\n      swap1\n      pop\n        /* \"#utility.yul\":12454:12455   */\n      0x01\n        /* \"#utility.yul\":12448:12452   */\n      dup3\n        /* \"#utility.yul\":12444:12456   */\n      and\n        /* \"#utility.yul\":12475:12493   */\n      dup1\n        /* \"#utility.yul\":12465:12546   */\n      tag_506\n      jumpi\n        /* \"#utility.yul\":12531:12535   */\n      0x7f\n        /* \"#utility.yul\":12523:12529   */\n      dup3\n        /* \"#utility.yul\":12519:12536   */\n      and\n        /* \"#utility.yul\":12509:12536   */\n      swap2\n      pop\n        /* \"#utility.yul\":12465:12546   */\n    tag_506:\n        /* \"#utility.yul\":12593:12595   */\n      0x20\n        /* \"#utility.yul\":12585:12591   */\n      dup3\n        /* \"#utility.yul\":12582:12596   */\n      lt\n        /* \"#utility.yul\":12562:12580   */\n      dup2\n        /* \"#utility.yul\":12559:12597   */\n      sub\n        /* \"#utility.yul\":12556:12640   */\n      tag_507\n      jumpi\n        /* \"#utility.yul\":12612:12630   */\n      tag_508\n      tag_353\n      jump\t// in\n    tag_508:\n        /* \"#utility.yul\":12556:12640   */\n    tag_507:\n        /* \"#utility.yul\":12377:12646   */\n      pop\n        /* \"#utility.yul\":12326:12646   */\n      swap2\n      swap1\n      pop\n      jump\t// out\n        /* \"#utility.yul\":12652:12832   */\n    tag_354:\n        /* \"#utility.yul\":12700:12777   */\n      0x4e487b7100000000000000000000000000000000000000000000000000000000\n        /* \"#utility.yul\":12697:12698   */\n      0x00\n        /* \"#utility.yul\":12690:12778   */\n      mstore\n        /* \"#utility.yul\":12797:12801   */\n      0x11\n        /* \"#utility.yul\":12794:12795   */\n      0x04\n        /* \"#utility.yul\":12787:12802   */\n      mstore\n        /* \"#utility.yul\":12821:12825   */\n      0x24\n        /* \"#utility.yul\":12818:12819   */\n      0x00\n        /* \"#utility.yul\":12811:12826   */\n      revert\n        /* \"#utility.yul\":12838:13032   */\n    tag_176:\n        /* \"#utility.yul\":12878:12882   */\n      0x00\n        /* \"#utility.yul\":12898:12918   */\n      tag_511\n        /* \"#utility.yul\":12916:12917   */\n      dup3\n        /* \"#utility.yul\":12898:12918   */\n      tag_326\n      jump\t// in\n    tag_511:\n        /* \"#utility.yul\":12893:12918   */\n      swap2\n      pop\n        /* \"#utility.yul\":12932:12952   */\n      tag_512\n        /* \"#utility.yul\":12950:12951   */\n      dup4\n        /* \"#utility.yul\":12932:12952   */\n      tag_326\n      jump\t// in\n    tag_512:\n        /* \"#utility.yul\":12927:12952   */\n      swap3\n      pop\n        /* \"#utility.yul\":12976:12977   */\n      dup3\n        /* \"#utility.yul\":12973:12974   */\n      dup3\n        /* \"#utility.yul\":12969:12978   */\n      sub\n        /* \"#utility.yul\":12961:12978   */\n      swap1\n      pop\n        /* \"#utility.yul\":13000:13001   */\n      dup2\n        /* \"#utility.yul\":12994:12998   */\n      dup2\n        /* \"#utility.yul\":12991:13002   */\n      gt\n        /* \"#utility.yul\":12988:13025   */\n      iszero\n      tag_513\n      jumpi\n        /* \"#utility.yul\":13005:13023   */\n      tag_514\n      tag_354\n      jump\t// in\n    tag_514:\n        /* \"#utility.yul\":12988:13025   */\n    tag_513:\n        /* \"#utility.yul\":12838:13032   */\n      swap3\n      swap2\n      pop\n      pop\n      jump\t// out\n        /* \"#utility.yul\":13038:13229   */\n    tag_223:\n        /* \"#utility.yul\":13078:13081   */\n      0x00\n        /* \"#utility.yul\":13097:13117   */\n      tag_516\n        /* \"#utility.yul\":13115:13116   */\n      dup3\n        /* \"#utility.yul\":13097:13117   */\n      tag_326\n      jump\t// in\n    tag_516:\n        /* \"#utility.yul\":13092:13117   */\n      swap2\n      pop\n        /* \"#utility.yul\":13131:13151   */\n      tag_517\n        /* \"#utility.yul\":13149:13150   */\n      dup4\n        /* \"#utility.yul\":13131:13151   */\n      tag_326\n      jump\t// in\n    tag_517:\n        /* \"#utility.yul\":13126:13151   */\n      swap3\n      pop\n        /* \"#utility.yul\":13174:13175   */\n      dup3\n        /* \"#utility.yul\":13171:13172   */\n      dup3\n        /* \"#utility.yul\":13167:13176   */\n      add\n        /* \"#utility.yul\":13160:13176   */\n      swap1\n      pop\n        /* \"#utility.yul\":13195:13198   */\n      dup1\n        /* \"#utility.yul\":13192:13193   */\n      dup3\n        /* \"#utility.yul\":13189:13199   */\n      gt\n        /* \"#utility.yul\":13186:13222   */\n      iszero\n      tag_518\n      jumpi\n        /* \"#utility.yul\":13202:13220   */\n      tag_519\n      tag_354\n      jump\t// in\n    tag_519:\n        /* \"#utility.yul\":13186:13222   */\n    tag_518:\n        /* \"#utility.yul\":13038:13229   */\n      swap3\n      swap2\n      pop\n      pop\n      jump\t// out\n        /* \"#utility.yul\":13235:13383   */\n    tag_355:\n        /* \"#utility.yul\":13337:13348   */\n      0x00\n        /* \"#utility.yul\":13374:13377   */\n      dup2\n        /* \"#utility.yul\":13359:13377   */\n      swap1\n      pop\n        /* \"#utility.yul\":13235:13383   */\n      swap3\n      swap2\n      pop\n      pop\n      jump\t// out\n        /* \"#utility.yul\":13389:13779   */\n    tag_356:\n        /* \"#utility.yul\":13495:13498   */\n      0x00\n        /* \"#utility.yul\":13523:13562   */\n      tag_522\n        /* \"#utility.yul\":13556:13561   */\n      dup3\n        /* \"#utility.yul\":13523:13562   */\n      tag_331\n      jump\t// in\n    tag_522:\n        /* \"#utility.yul\":13578:13667   */\n      tag_523\n        /* \"#utility.yul\":13660:13666   */\n      dup2\n        /* \"#utility.yul\":13655:13658   */\n      dup6\n        /* \"#utility.yul\":13578:13667   */\n      tag_355\n      jump\t// in\n    tag_523:\n        /* \"#utility.yul\":13571:13667   */\n      swap4\n      pop\n        /* \"#utility.yul\":13676:13741   */\n      tag_524\n        /* \"#utility.yul\":13734:13740   */\n      dup2\n        /* \"#utility.yul\":13729:13732   */\n      dup6\n        /* \"#utility.yul\":13722:13726   */\n      0x20\n        /* \"#utility.yul\":13715:13720   */\n      dup7\n        /* \"#utility.yul\":13711:13727   */\n      add\n        /* \"#utility.yul\":13676:13741   */\n      tag_333\n      jump\t// in\n    tag_524:\n        /* \"#utility.yul\":13766:13772   */\n      dup1\n        /* \"#utility.yul\":13761:13764   */\n      dup5\n        /* \"#utility.yul\":13757:13773   */\n      add\n        /* \"#utility.yul\":13750:13773   */\n      swap2\n      pop\n        /* \"#utility.yul\":13499:13779   */\n      pop\n        /* \"#utility.yul\":13389:13779   */\n      swap3\n      swap2\n      pop\n      pop\n      jump\t// out\n        /* \"#utility.yul\":13785:14060   */\n    tag_245:\n        /* \"#utility.yul\":13917:13920   */\n      0x00\n        /* \"#utility.yul\":13939:14034   */\n      tag_526\n        /* \"#utility.yul\":14030:14033   */\n      dup3\n        /* \"#utility.yul\":14021:14027   */\n      dup5\n        /* \"#utility.yul\":13939:14034   */\n      tag_356\n      jump\t// in\n    tag_526:\n        /* \"#utility.yul\":13932:14034   */\n      swap2\n      pop\n        /* \"#utility.yul\":14051:14054   */\n      dup2\n        /* \"#utility.yul\":14044:14054   */\n      swap1\n      pop\n        /* \"#utility.yul\":13785:14060   */\n      swap3\n      swap2\n      pop\n      pop\n      jump\t// out\n        /* \"#utility.yul\":14066:14299   */\n    tag_256:\n        /* \"#utility.yul\":14105:14108   */\n      0x00\n        /* \"#utility.yul\":14128:14152   */\n      tag_528\n        /* \"#utility.yul\":14146:14151   */\n      dup3\n        /* \"#utility.yul\":14128:14152   */\n      tag_326\n      jump\t// in\n    tag_528:\n        /* \"#utility.yul\":14119:14152   */\n      swap2\n      pop\n        /* \"#utility.yul\":14174:14240   */\n      0xffffffffffffffffffffffffffffffffffffffffffffffffffffffffffffffff\n        /* \"#utility.yul\":14167:14172   */\n      dup3\n        /* \"#utility.yul\":14164:14241   */\n      sub\n        /* \"#utility.yul\":14161:14264   */\n      tag_529\n      jumpi\n        /* \"#utility.yul\":14244:14262   */\n      tag_530\n      tag_354\n      jump\t// in\n    tag_530:\n        /* \"#utility.yul\":14161:14264   */\n    tag_529:\n        /* \"#utility.yul\":14291:14292   */\n      0x01\n        /* \"#utility.yul\":14284:14289   */\n      dup3\n        /* \"#utility.yul\":14280:14293   */\n      add\n        /* \"#utility.yul\":14273:14293   */\n      swap1\n      pop\n        /* \"#utility.yul\":14066:14299   */\n      swap2\n      swap1\n      pop\n      jump\t// out\n        /* \"#utility.yul\":14305:14485   */\n    tag_357:\n        /* \"#utility.yul\":14353:14430   */\n      0x4e487b7100000000000000000000000000000000000000000000000000000000\n        /* \"#utility.yul\":14350:14351   */\n      0x00\n        /* \"#utility.yul\":14343:14431   */\n      mstore\n        /* \"#utility.yul\":14450:14454   */\n      0x12\n        /* \"#utility.yul\":14447:14448   */\n      0x04\n        /* \"#utility.yul\":14440:14455   */\n      mstore\n        /* \"#utility.yul\":14474:14478   */\n      0x24\n        /* \"#utility.yul\":14471:14472   */\n      0x00\n        /* \"#utility.yul\":14464:14479   */\n      revert\n        /* \"#utility.yul\":14491:14676   */\n    tag_258:\n        /* \"#utility.yul\":14531:14532   */\n      0x00\n        /* \"#utility.yul\":14548:14568   */\n      tag_533\n        /* \"#utility.yul\":14566:14567   */\n      dup3\n        /* \"#utility.yul\":14548:14568   */\n      tag_326\n      jump\t// in\n    tag_533:\n        /* \"#utility.yul\":14543:14568   */\n      swap2\n      pop\n        /* \"#utility.yul\":14582:14602   */\n      tag_534\n        /* \"#utility.yul\":14600:14601   */\n      dup4\n        /* \"#utility.yul\":14582:14602   */\n      tag_326\n      jump\t// in\n    tag_534:\n        /* \"#utility.yul\":14577:14602   */\n      swap3\n      pop\n        /* \"#utility.yul\":14621:14622   */\n      dup3\n        /* \"#utility.yul\":14611:14646   */\n      tag_535\n      jumpi\n        /* \"#utility.yul\":14626:14644   */\n      tag_536\n      tag_357\n      jump\t// in\n    tag_536:\n        /* \"#utility.yul\":14611:14646   */\n    tag_535:\n        /* \"#utility.yul\":14668:14669   */\n      dup3\n        /* \"#utility.yul\":14665:14666   */\n      dup3\n        /* \"#utility.yul\":14661:14670   */\n      div\n        /* \"#utility.yul\":14656:14670   */\n      swap1\n      pop\n        /* \"#utility.yul\":14491:14676   */\n      swap3\n      swap2\n      pop\n      pop\n      jump\t// out\n        /* \"#utility.yul\":14682:14858   */\n    tag_267:\n        /* \"#utility.yul\":14714:14715   */\n      0x00\n        /* \"#utility.yul\":14731:14751   */\n      tag_538\n        /* \"#utility.yul\":14749:14750   */\n      dup3\n        /* \"#utility.yul\":14731:14751   */\n      tag_326\n      jump\t// in\n    tag_538:\n        /* \"#utility.yul\":14726:14751   */\n      swap2\n      pop\n        /* \"#utility.yul\":14765:14785   */\n      tag_539\n        /* \"#utility.yul\":14783:14784   */\n      dup4\n        /* \"#utility.yul\":14765:14785   */\n      tag_326\n      jump\t// in\n    tag_539:\n        /* \"#utility.yul\":14760:14785   */\n      swap3\n      pop\n        /* \"#utility.yul\":14804:14805   */\n      dup3\n        /* \"#utility.yul\":14794:14829   */\n      tag_540\n      jumpi\n        /* \"#utility.yul\":14809:14827   */\n      tag_541\n      tag_357\n      jump\t// in\n    tag_541:\n        /* \"#utility.yul\":14794:14829   */\n    tag_540:\n        /* \"#utility.yul\":14850:14851   */\n      dup3\n        /* \"#utility.yul\":14847:14848   */\n      dup3\n        /* \"#utility.yul\":14843:14852   */\n      mod\n        /* \"#utility.yul\":14838:14852   */\n      swap1\n      pop\n        /* \"#utility.yul\":14682:14858   */\n      swap3\n      swap2\n      pop\n      pop\n      jump\t// out\n        /* \"#utility.yul\":14864:15044   */\n    tag_271:\n        /* \"#utility.yul\":14912:14989   */\n      0x4e487b7100000000000000000000000000000000000000000000000000000000\n        /* \"#utility.yul\":14909:14910   */\n      0x00\n        /* \"#utility.yul\":14902:14990   */\n      mstore\n        /* \"#utility.yul\":15009:15013   */\n      0x32\n        /* \"#utility.yul\":15006:15007   */\n      0x04\n        /* \"#utility.yul\":14999:15014   */\n      mstore\n        /* \"#utility.yul\":15033:15037   */\n      0x24\n        /* \"#utility.yul\":15030:15031   */\n      0x00\n        /* \"#utility.yul\":15023:15038   */\n      revert\n        /* \"#utility.yul\":15050:15460   */\n    tag_282:\n        /* \"#utility.yul\":15090:15097   */\n      0x00\n        /* \"#utility.yul\":15113:15133   */\n      tag_544\n        /* \"#utility.yul\":15131:15132   */\n      dup3\n        /* \"#utility.yul\":15113:15133   */\n      tag_326\n      jump\t// in\n    tag_544:\n        /* \"#utility.yul\":15108:15133   */\n      swap2\n      pop\n        /* \"#utility.yul\":15147:15167   */\n      tag_545\n        /* \"#utility.yul\":15165:15166   */\n      dup4\n        /* \"#utility.yul\":15147:15167   */\n      tag_326\n      jump\t// in\n    tag_545:\n        /* \"#utility.yul\":15142:15167   */\n      swap3\n      pop\n        /* \"#utility.yul\":15202:15203   */\n      dup3\n        /* \"#utility.yul\":15199:15200   */\n      dup3\n        /* \"#utility.yul\":15195:15204   */\n      mul\n        /* \"#utility.yul\":15224:15254   */\n      tag_546\n        /* \"#utility.yul\":15242:15253   */\n      dup2\n        /* \"#utility.yul\":15224:15254   */\n      tag_326\n      jump\t// in\n    tag_546:\n        /* \"#utility.yul\":15213:15254   */\n      swap2\n      pop\n        /* \"#utility.yul\":15403:15404   */\n      dup3\n        /* \"#utility.yul\":15394:15401   */\n      dup3\n        /* \"#utility.yul\":15390:15405   */\n      div\n        /* \"#utility.yul\":15387:15388   */\n      dup5\n        /* \"#utility.yul\":15384:15406   */\n      eq\n        /* \"#utility.yul\":15364:15365   */\n      dup4\n        /* \"#utility.yul\":15357:15366   */\n      iszero\n        /* \"#utility.yul\":15337:15420   */\n      or\n        /* \"#utility.yul\":15314:15453   */\n      tag_547\n      jumpi\n        /* \"#utility.yul\":15433:15451   */\n      tag_548\n      tag_354\n      jump\t// in\n    tag_548:\n        /* \"#utility.yul\":15314:15453   */\n    tag_547:\n        /* \"#utility.yul\":15098:15460   */\n      pop\n        /* \"#utility.yul\":15050:15460   */\n      swap3\n      swap2\n      pop\n      pop\n      jump\t// out\n        /* \"#utility.yul\":15466:15607   */\n    tag_358:\n        /* \"#utility.yul\":15515:15519   */\n      0x00\n        /* \"#utility.yul\":15538:15541   */\n      dup2\n        /* \"#utility.yul\":15530:15541   */\n      swap1\n      pop\n        /* \"#utility.yul\":15561:15564   */\n      dup2\n        /* \"#utility.yul\":15558:15559   */\n      0x00\n        /* \"#utility.yul\":15551:15565   */\n      mstore\n        /* \"#utility.yul\":15595:15599   */\n      0x20\n        /* \"#utility.yul\":15592:15593   */\n      0x00\n        /* \"#utility.yul\":15582:15600   */\n      keccak256\n        /* \"#utility.yul\":15574:15600   */\n      swap1\n      pop\n        /* \"#utility.yul\":15466:15607   */\n      swap2\n      swap1\n      pop\n      jump\t// out\n        /* \"#utility.yul\":15613:15706   */\n    tag_359:\n        /* \"#utility.yul\":15650:15656   */\n      0x00\n        /* \"#utility.yul\":15697:15699   */\n      0x20\n        /* \"#utility.yul\":15692:15694   */\n      0x1f\n        /* \"#utility.yul\":15685:15690   */\n      dup4\n        /* \"#utility.yul\":15681:15695   */\n      add\n        /* \"#utility.yul\":15677:15700   */\n      div\n        /* \"#utility.yul\":15667:15700   */\n      swap1\n      pop\n        /* \"#utility.yul\":15613:15706   */\n      swap2\n      swap1\n      pop\n      jump\t// out\n        /* \"#utility.yul\":15712:15819   */\n    tag_360:\n        /* \"#utility.yul\":15756:15764   */\n      0x00\n        /* \"#utility.yul\":15806:15811   */\n      dup3\n        /* \"#utility.yul\":15800:15804   */\n      dup3\n        /* \"#utility.yul\":15796:15812   */\n      shl\n        /* \"#utility.yul\":15775:15812   */\n      swap1\n      pop\n        /* \"#utility.yul\":15712:15819   */\n      swap3\n      swap2\n      pop\n      pop\n      jump\t// out\n        /* \"#utility.yul\":15825:16218   */\n    tag_361:\n        /* \"#utility.yul\":15894:15900   */\n      0x00\n        /* \"#utility.yul\":15944:15945   */\n      0x08\n        /* \"#utility.yul\":15932:15942   */\n      dup4\n        /* \"#utility.yul\":15928:15946   */\n      mul\n        /* \"#utility.yul\":15967:16064   */\n      tag_553\n        /* \"#utility.yul\":15997:16063   */\n      0xffffffffffffffffffffffffffffffffffffffffffffffffffffffffffffffff\n        /* \"#utility.yul\":15986:15995   */\n      dup3\n        /* \"#utility.yul\":15967:16064   */\n      tag_360\n      jump\t// in\n    tag_553:\n        /* \"#utility.yul\":16085:16124   */\n      tag_554\n        /* \"#utility.yul\":16115:16123   */\n      dup7\n        /* \"#utility.yul\":16104:16113   */\n      dup4\n        /* \"#utility.yul\":16085:16124   */\n      tag_360\n      jump\t// in\n    tag_554:\n        /* \"#utility.yul\":16073:16124   */\n      swap6\n      pop\n        /* \"#utility.yul\":16157:16161   */\n      dup1\n        /* \"#utility.yul\":16153:16162   */\n      not\n        /* \"#utility.yul\":16146:16151   */\n      dup5\n        /* \"#utility.yul\":16142:16163   */\n      and\n        /* \"#utility.yul\":16133:16163   */\n      swap4\n      pop\n        /* \"#utility.yul\":16206:16210   */\n      dup1\n        /* \"#utility.yul\":16196:16204   */\n      dup7\n        /* \"#utility.yul\":16192:16211   */\n      and\n        /* \"#utility.yul\":16185:16190   */\n      dup5\n        /* \"#utility.yul\":16182:16212   */\n      or\n        /* \"#utility.yul\":16172:16212   */\n      swap3\n      pop\n        /* \"#utility.yul\":15901:16218   */\n      pop\n      pop\n        /* \"#utility.yul\":15825:16218   */\n      swap4\n      swap3\n      pop\n      pop\n      pop\n      jump\t// out\n        /* \"#utility.yul\":16224:16284   */\n    tag_362:\n        /* \"#utility.yul\":16252:16255   */\n      0x00\n        /* \"#utility.yul\":16273:16278   */\n      dup2\n        /* \"#utility.yul\":16266:16278   */\n      swap1\n      pop\n        /* \"#utility.yul\":16224:16284   */\n      swap2\n      swap1\n      pop\n      jump\t// out\n        /* \"#utility.yul\":16290:16432   */\n    tag_363:\n        /* \"#utility.yul\":16340:16349   */\n      0x00\n        /* \"#utility.yul\":16373:16426   */\n      tag_557\n        /* \"#utility.yul\":16391:16425   */\n      tag_558\n        /* \"#utility.yul\":16400:16424   */\n      tag_559\n        /* \"#utility.yul\":16418:16423   */\n      dup5\n        /* \"#utility.yul\":16400:16424   */\n      tag_326\n      jump\t// in\n    tag_559:\n        /* \"#utility.yul\":16391:16425   */\n      tag_362\n      jump\t// in\n    tag_558:\n        /* \"#utility.yul\":16373:16426   */\n      tag_326\n      jump\t// in\n    tag_557:\n        /* \"#utility.yul\":16360:16426   */\n      swap1\n      pop\n        /* \"#utility.yul\":16290:16432   */\n      swap2\n      swap1\n      pop\n      jump\t// out\n        /* \"#utility.yul\":16438:16513   */\n    tag_364:\n        /* \"#utility.yul\":16481:16484   */\n      0x00\n        /* \"#utility.yul\":16502:16507   */\n      dup2\n        /* \"#utility.yul\":16495:16507   */\n      swap1\n      pop\n        /* \"#utility.yul\":16438:16513   */\n      swap2\n      swap1\n      pop\n      jump\t// out\n        /* \"#utility.yul\":16519:16788   */\n    tag_365:\n        /* \"#utility.yul\":16629:16668   */\n      tag_562\n        /* \"#utility.yul\":16660:16667   */\n      dup4\n        /* \"#utility.yul\":16629:16668   */\n      tag_363\n      jump\t// in\n    tag_562:\n        /* \"#utility.yul\":16690:16781   */\n      tag_563\n        /* \"#utility.yul\":16739:16780   */\n      tag_564\n        /* \"#utility.yul\":16763:16779   */\n      dup3\n        /* \"#utility.yul\":16739:16780   */\n      tag_364\n      jump\t// in\n    tag_564:\n        /* \"#utility.yul\":16731:16737   */\n      dup5\n        /* \"#utility.yul\":16724:16728   */\n      dup5\n        /* \"#utility.yul\":16718:16729   */\n      sload\n        /* \"#utility.yul\":16690:16781   */\n      tag_361\n      jump\t// in\n    tag_563:\n        /* \"#utility.yul\":16684:16688   */\n      dup3\n        /* \"#utility.yul\":16677:16782   */\n      sstore\n        /* \"#utility.yul\":16595:16788   */\n      pop\n        /* \"#utility.yul\":16519:16788   */\n      pop\n      pop\n      pop\n      jump\t// out\n        /* \"#utility.yul\":16794:16867   */\n    tag_366:\n        /* \"#utility.yul\":16839:16842   */\n      0x00\n        /* \"#utility.yul\":16794:16867   */\n      swap1\n      jump\t// out\n        /* \"#utility.yul\":16873:17062   */\n    tag_367:\n        /* \"#utility.yul\":16950:16982   */\n      tag_567\n      tag_366\n      jump\t// in\n    tag_567:\n        /* \"#utility.yul\":16991:17056   */\n      tag_568\n        /* \"#utility.yul\":17049:17055   */\n      dup2\n        /* \"#utility.yul\":17041:17047   */\n      dup5\n        /* \"#utility.yul\":17035:17039   */\n      dup5\n        /* \"#utility.yul\":16991:17056   */\n      tag_365\n      jump\t// in\n    tag_568:\n        /* \"#utility.yul\":16926:17062   */\n      pop\n        /* \"#utility.yul\":16873:17062   */\n      pop\n      pop\n      jump\t// out\n        /* \"#utility.yul\":17068:17254   */\n    tag_368:\n        /* \"#utility.yul\":17128:17248   */\n    tag_570:\n        /* \"#utility.yul\":17145:17148   */\n      dup2\n        /* \"#utility.yul\":17138:17143   */\n      dup2\n        /* \"#utility.yul\":17135:17149   */\n      lt\n        /* \"#utility.yul\":17128:17248   */\n      iszero\n      tag_572\n      jumpi\n        /* \"#utility.yul\":17199:17238   */\n      tag_573\n        /* \"#utility.yul\":17236:17237   */\n      0x00\n        /* \"#utility.yul\":17229:17234   */\n      dup3\n        /* \"#utility.yul\":17199:17238   */\n      tag_367\n      jump\t// in\n    tag_573:\n        /* \"#utility.yul\":17172:17173   */\n      0x01\n        /* \"#utility.yul\":17165:17170   */\n      dup2\n        /* \"#utility.yul\":17161:17174   */\n      add\n        /* \"#utility.yul\":17152:17174   */\n      swap1\n      pop\n        /* \"#utility.yul\":17128:17248   */\n      jump(tag_570)\n    tag_572:\n        /* \"#utility.yul\":17068:17254   */\n      pop\n      pop\n      jump\t// out\n        /* \"#utility.yul\":17260:17803   */\n    tag_369:\n        /* \"#utility.yul\":17361:17363   */\n      0x1f\n        /* \"#utility.yul\":17356:17359   */\n      dup3\n        /* \"#utility.yul\":17353:17364   */\n      gt\n        /* \"#utility.yul\":17350:17796   */\n      iszero\n      tag_575\n      jumpi\n        /* \"#utility.yul\":17395:17433   */\n      tag_576\n        /* \"#utility.yul\":17427:17432   */\n      dup2\n        /* \"#utility.yul\":17395:17433   */\n      tag_358\n      jump\t// in\n    tag_576:\n        /* \"#utility.yul\":17479:17508   */\n      tag_577\n        /* \"#utility.yul\":17497:17507   */\n      dup5\n        /* \"#utility.yul\":17479:17508   */\n      tag_359\n      jump\t// in\n    tag_577:\n        /* \"#utility.yul\":17469:17477   */\n      dup2\n        /* \"#utility.yul\":17465:17509   */\n      add\n        /* \"#utility.yul\":17662:17664   */\n      0x20\n        /* \"#utility.yul\":17650:17660   */\n      dup6\n        /* \"#utility.yul\":17647:17665   */\n      lt\n        /* \"#utility.yul\":17644:17693   */\n      iszero\n      tag_578\n      jumpi\n        /* \"#utility.yul\":17683:17691   */\n      dup2\n        /* \"#utility.yul\":17668:17691   */\n      swap1\n      pop\n        /* \"#utility.yul\":17644:17693   */\n    tag_578:\n        /* \"#utility.yul\":17706:17786   */\n      tag_579\n        /* \"#utility.yul\":17762:17784   */\n      tag_580\n        /* \"#utility.yul\":17780:17783   */\n      dup6\n        /* \"#utility.yul\":17762:17784   */\n      tag_359\n      jump\t// in\n    tag_580:\n        /* \"#utility.yul\":17752:17760   */\n      dup4\n        /* \"#utility.yul\":17748:17785   */\n      add\n        /* \"#utility.yul\":17735:17746   */\n      dup3\n        /* \"#utility.yul\":17706:17786   */\n      tag_368\n      jump\t// in\n    tag_579:\n        /* \"#utility.yul\":17365:17796   */\n      pop\n      pop\n        /* \"#utility.yul\":17350:17796   */\n    tag_575:\n        /* \"#utility.yul\":17260:17803   */\n      pop\n      pop\n      pop\n      jump\t// out\n        /* \"#utility.yul\":17809:17926   */\n    tag_370:\n        /* \"#utility.yul\":17863:17871   */\n      0x00\n        /* \"#utility.yul\":17913:17918   */\n      dup3\n        /* \"#utility.yul\":17907:17911   */\n      dup3\n        /* \"#utility.yul\":17903:17919   */\n      shr\n        /* \"#utility.yul\":17882:17919   */\n      swap1\n      pop\n        /* \"#utility.yul\":17809:17926   */\n      swap3\n      swap2\n      pop\n      pop\n      jump\t// out\n        /* \"#utility.yul\":17932:18101   */\n    tag_371:\n        /* \"#utility.yul\":17976:17982   */\n      0x00\n        /* \"#utility.yul\":18009:18060   */\n      tag_583\n        /* \"#utility.yul\":18057:18058   */\n      0x00\n        /* \"#utility.yul\":18053:18059   */\n      not\n        /* \"#utility.yul\":18045:18050   */\n      dup5\n        /* \"#utility.yul\":18042:18043   */\n      0x08\n        /* \"#utility.yul\":18038:18051   */\n      mul\n        /* \"#utility.yul\":18009:18060   */\n      tag_370\n      jump\t// in\n    tag_583:\n        /* \"#utility.yul\":18005:18061   */\n      not\n        /* \"#utility.yul\":18090:18094   */\n      dup1\n        /* \"#utility.yul\":18084:18088   */\n      dup4\n        /* \"#utility.yul\":18080:18095   */\n      and\n        /* \"#utility.yul\":18070:18095   */\n      swap2\n      pop\n        /* \"#utility.yul\":17983:18101   */\n      pop\n        /* \"#utility.yul\":17932:18101   */\n      swap3\n      swap2\n      pop\n      pop\n      jump\t// out\n        /* \"#utility.yul\":18106:18401   */\n    tag_372:\n        /* \"#utility.yul\":18182:18186   */\n      0x00\n        /* \"#utility.yul\":18328:18357   */\n      tag_585\n        /* \"#utility.yul\":18353:18356   */\n      dup4\n        /* \"#utility.yul\":18347:18351   */\n      dup4\n        /* \"#utility.yul\":18328:18357   */\n      tag_371\n      jump\t// in\n    tag_585:\n        /* \"#utility.yul\":18320:18357   */\n      swap2\n      pop\n        /* \"#utility.yul\":18390:18393   */\n      dup3\n        /* \"#utility.yul\":18387:18388   */\n      0x02\n        /* \"#utility.yul\":18383:18394   */\n      mul\n        /* \"#utility.yul\":18377:18381   */\n      dup3\n        /* \"#utility.yul\":18374:18395   */\n      or\n        /* \"#utility.yul\":18366:18395   */\n      swap1\n      pop\n        /* \"#utility.yul\":18106:18401   */\n      swap3\n      swap2\n      pop\n      pop\n      jump\t// out\n        /* \"#utility.yul\":18406:19801   */\n    tag_321:\n        /* \"#utility.yul\":18523:18560   */\n      tag_587\n        /* \"#utility.yul\":18556:18559   */\n      dup3\n        /* \"#utility.yul\":18523:18560   */\n      tag_331\n      jump\t// in\n    tag_587:\n        /* \"#utility.yul\":18625:18643   */\n      0xffffffffffffffff\n        /* \"#utility.yul\":18617:18623   */\n      dup2\n        /* \"#utility.yul\":18614:18644   */\n      gt\n        /* \"#utility.yul\":18611:18667   */\n      iszero\n      tag_588\n      jumpi\n        /* \"#utility.yul\":18647:18665   */\n      tag_589\n      tag_261\n      jump\t// in\n    tag_589:\n        /* \"#utility.yul\":18611:18667   */\n    tag_588:\n        /* \"#utility.yul\":18691:18729   */\n      tag_590\n        /* \"#utility.yul\":18723:18727   */\n      dup3\n        /* \"#utility.yul\":18717:18728   */\n      sload\n        /* \"#utility.yul\":18691:18729   */\n      tag_156\n      jump\t// in\n    tag_590:\n        /* \"#utility.yul\":18776:18843   */\n      tag_591\n        /* \"#utility.yul\":18836:18842   */\n      dup3\n        /* \"#utility.yul\":18828:18834   */\n      dup3\n        /* \"#utility.yul\":18822:18826   */\n      dup6\n        /* \"#utility.yul\":18776:18843   */\n      tag_369\n      jump\t// in\n    tag_591:\n        /* \"#utility.yul\":18870:18871   */\n      0x00\n        /* \"#utility.yul\":18894:18898   */\n      0x20\n        /* \"#utility.yul\":18881:18898   */\n      swap1\n      pop\n        /* \"#utility.yul\":18926:18928   */\n      0x1f\n        /* \"#utility.yul\":18918:18924   */\n      dup4\n        /* \"#utility.yul\":18915:18929   */\n      gt\n        /* \"#utility.yul\":18943:18944   */\n      0x01\n        /* \"#utility.yul\":18938:19556   */\n      dup2\n      eq\n      tag_593\n      jumpi\n        /* \"#utility.yul\":19600:19601   */\n      0x00\n        /* \"#utility.yul\":19617:19623   */\n      dup5\n        /* \"#utility.yul\":19614:19691   */\n      iszero\n      tag_594\n      jumpi\n        /* \"#utility.yul\":19666:19675   */\n      dup3\n        /* \"#utility.yul\":19661:19664   */\n      dup8\n        /* \"#utility.yul\":19657:19676   */\n      add\n        /* \"#utility.yul\":19651:19677   */\n      mload\n        /* \"#utility.yul\":19642:19677   */\n      swap1\n      pop\n        /* \"#utility.yul\":19614:19691   */\n    tag_594:\n        /* \"#utility.yul\":19717:19784   */\n      tag_595\n        /* \"#utility.yul\":19777:19783   */\n      dup6\n        /* \"#utility.yul\":19770:19775   */\n      dup3\n        /* \"#utility.yul\":19717:19784   */\n      tag_372\n      jump\t// in\n    tag_595:\n        /* \"#utility.yul\":19711:19715   */\n      dup7\n        /* \"#utility.yul\":19704:19785   */\n      sstore\n        /* \"#utility.yul\":19573:19795   */\n      pop\n        /* \"#utility.yul\":18908:19795   */\n      jump(tag_592)\n        /* \"#utility.yul\":18938:19556   */\n    tag_593:\n        /* \"#utility.yul\":18990:18994   */\n      0x1f\n        /* \"#utility.yul\":18986:18995   */\n      not\n        /* \"#utility.yul\":18978:18984   */\n      dup5\n        /* \"#utility.yul\":18974:18996   */\n      and\n        /* \"#utility.yul\":19024:19061   */\n      tag_596\n        /* \"#utility.yul\":19056:19060   */\n      dup7\n        /* \"#utility.yul\":19024:19061   */\n      tag_358\n      jump\t// in\n    tag_596:\n        /* \"#utility.yul\":19083:19084   */\n      0x00\n        /* \"#utility.yul\":19097:19305   */\n    tag_597:\n        /* \"#utility.yul\":19111:19118   */\n      dup3\n        /* \"#utility.yul\":19108:19109   */\n      dup2\n        /* \"#utility.yul\":19105:19119   */\n      lt\n        /* \"#utility.yul\":19097:19305   */\n      iszero\n      tag_599\n      jumpi\n        /* \"#utility.yul\":19190:19199   */\n      dup5\n        /* \"#utility.yul\":19185:19188   */\n      dup10\n        /* \"#utility.yul\":19181:19200   */\n      add\n        /* \"#utility.yul\":19175:19201   */\n      mload\n        /* \"#utility.yul\":19167:19173   */\n      dup3\n        /* \"#utility.yul\":19160:19202   */\n      sstore\n        /* \"#utility.yul\":19241:19242   */\n      0x01\n        /* \"#utility.yul\":19233:19239   */\n      dup3\n        /* \"#utility.yul\":19229:19243   */\n      add\n        /* \"#utility.yul\":19219:19243   */\n      swap2\n      pop\n        /* \"#utility.yul\":19288:19290   */\n      0x20\n        /* \"#utility.yul\":19277:19286   */\n      dup6\n        /* \"#utility.yul\":19273:19291   */\n      add\n        /* \"#utility.yul\":19260:19291   */\n      swap5\n      pop\n        /* \"#utility.yul\":19134:19138   */\n      0x20\n        /* \"#utility.yul\":19131:19132   */\n      dup2\n        /* \"#utility.yul\":19127:19139   */\n      add\n        /* \"#utility.yul\":19122:19139   */\n      swap1\n      pop\n        /* \"#utility.yul\":19097:19305   */\n      jump(tag_597)\n    tag_599:\n        /* \"#utility.yul\":19333:19339   */\n      dup7\n        /* \"#utility.yul\":19324:19331   */\n      dup4\n        /* \"#utility.yul\":19321:19340   */\n      lt\n        /* \"#utility.yul\":19318:19497   */\n      iszero\n      tag_600\n      jumpi\n        /* \"#utility.yul\":19391:19400   */\n      dup5\n        /* \"#utility.yul\":19386:19389   */\n      dup10\n        /* \"#utility.yul\":19382:19401   */\n      add\n        /* \"#utility.yul\":19376:19402   */\n      mload\n        /* \"#utility.yul\":19434:19482   */\n      tag_601\n        /* \"#utility.yul\":19476:19480   */\n      0x1f\n        /* \"#utility.yul\":19468:19474   */\n      dup10\n        /* \"#utility.yul\":19464:19481   */\n      and\n        /* \"#utility.yul\":19453:19462   */\n      dup3\n        /* \"#utility.yul\":19434:19482   */\n      tag_371\n      jump\t// in\n    tag_601:\n        /* \"#utility.yul\":19426:19432   */\n      dup4\n        /* \"#utility.yul\":19419:19483   */\n      sstore\n        /* \"#utility.yul\":19341:19497   */\n      pop\n        /* \"#utility.yul\":19318:19497   */\n    tag_600:\n        /* \"#utility.yul\":19543:19544   */\n      0x01\n        /* \"#utility.yul\":19539:19540   */\n      0x02\n        /* \"#utility.yul\":19531:19537   */\n      dup9\n        /* \"#utility.yul\":19527:19541   */\n      mul\n        /* \"#utility.yul\":19523:19545   */\n      add\n        /* \"#utility.yul\":19517:19521   */\n      dup9\n        /* \"#utility.yul\":19510:19546   */\n      sstore\n        /* \"#utility.yul\":18945:19556   */\n      pop\n      pop\n      pop\n        /* \"#utility.yul\":18908:19795   */\n    tag_592:\n      pop\n        /* \"#utility.yul\":18498:19801   */\n      pop\n      pop\n      pop\n        /* \"#utility.yul\":18406:19801   */\n      pop\n      pop\n      jump\t// out\n\n    auxdata: 0xa26469706673582212201bba5f3c9039dc46ac21809ba857cd19a15b2593c953a8627e9c7e5e99f4b54d64736f6c63430008120033\n}\n",
				"bytecode": {
					"linkReferences": {},
					"object": "60a06040527fffffffffffffffffffffffffffffffffffffffffffffffffffffffffffffffff6080908152503480156200003857600080fd5b50604051620048a7380380620048a783398181016040528101906200005e919062000f8b565b60016000803373ffffffffffffffffffffffffffffffffffffffff1673ffffffffffffffffffffffffffffffffffffffff16815260200190815260200160002060006101000a81548160ff021916908315150217905550620000c6816200079560201b60201c565b506040518060400160405280600c81526020017f447265616d6361746368657200000000000000000000000000000000000000008152506007600001908162000110919062001237565b506040518060400160405280600581526020017f445245414d000000000000000000000000000000000000000000000000000000815250600760010190816200015a919062001237565b506012600760020160006101000a81548160ff021916908360ff1602179055506000600760040181905550600760020160009054906101000a900460ff16600a620001a69190620014ae565b630bebc200620001b79190620014ff565b60076008018190555060076008015460076003018190555080600760090160006101000a81548173ffffffffffffffffffffffffffffffffffffffff021916908373ffffffffffffffffffffffffffffffffffffffff16021790555060006001600401819055506000600160050181905550600060016000018190555060006001800181905550612710600160020181905550612710600160030181905550600073dbf85074764156004feb245b65693e59a62262c290506000600760020160009054906101000a900460ff16600a620002929190620014ae565b6202e630620002a29190620014ff565b90506000600760020160009054906101000a900460ff16600a620002c79190620014ae565b620186a0620002d79190620014ff565b905060006301baf800905060006107e79050620002fb85846200092960201b60201c565b5060005b600a81116200038f57600081836200031891906200154a565b90506000620003328262000a9160201b6200193f1760201c565b60405160200162000344919062001643565b60405160208183030381529060405290506200037688888588620003699190620014ff565b8462000c0a60201b60201c565b5050508080620003869062001669565b915050620002ff565b5073172952523f64eaaf288de4ce9e5d1295dcfd3f839450600760020160009054906101000a900460ff16600a620003c89190620014ae565b6202e630620003d89190620014ff565b9350600760020160009054906101000a900460ff16600a620003fb9190620014ae565b620186a06200040b9190620014ff565b92506301baf80091506107e790506200042b85846200092960201b60201c565b5060005b600a8111620004bf57600081836200044891906200154a565b90506000620004628262000a9160201b6200193f1760201c565b60405160200162000474919062001643565b6040516020818303038152906040529050620004a688888588620004999190620014ff565b8462000c0a60201b60201c565b5050508080620004b69062001669565b9150506200042f565b5073baf175966dcab0012b9ab23150d1b1f8da4c41da9450600760020160009054906101000a900460ff16600a620004f89190620014ae565b6202e630620005089190620014ff565b9350600760020160009054906101000a900460ff16600a6200052b9190620014ae565b620186a06200053b9190620014ff565b92506301baf80091506107e790506200055b85846200092960201b60201c565b5060005b600a8111620005ef57600081836200057891906200154a565b90506000620005928262000a9160201b6200193f1760201c565b604051602001620005a4919062001643565b6040516020818303038152906040529050620005d688888588620005c99190620014ff565b8462000c0a60201b60201c565b5050508080620005e69062001669565b9150506200055f565b50731de8807f69e357fd91e47b34dc2a66216a9dc4b49450600760020160009054906101000a900460ff16600a620006289190620014ae565b6202e630620006389190620014ff565b9350600760020160009054906101000a900460ff16600a6200065b9190620014ae565b620186a06200066b9190620014ff565b92506301baf80091506107e790506200068b85846200092960201b60201c565b5060005b600a81116200071f5760008183620006a891906200154a565b90506000620006c28262000a9160201b6200193f1760201c565b604051602001620006d4919062001643565b60405160208183030381529060405290506200070688888588620006f99190620014ff565b8462000c0a60201b60201c565b5050508080620007169062001669565b9150506200068f565b5062000788600760090160009054906101000a900473ffffffffffffffffffffffffffffffffffffffff16600760020160009054906101000a900460ff16600a6200076b9190620014ae565b630aba95006200077c9190620014ff565b6200092960201b60201c565b5050505050505062001889565b600080339050600015156000808373ffffffffffffffffffffffffffffffffffffffff1673ffffffffffffffffffffffffffffffffffffffff16815260200190815260200160002060009054906101000a900460ff1615150362000830576040517f08c379a0000000000000000000000000000000000000000000000000000000008152600401620008279062001717565b60405180910390fd5b600073ffffffffffffffffffffffffffffffffffffffff168373ffffffffffffffffffffffffffffffffffffffff1614158015620008be5750600115156000808573ffffffffffffffffffffffffffffffffffffffff1673ffffffffffffffffffffffffffffffffffffffff16815260200190815260200160002060009054906101000a900460ff16151514155b620008c857600080fd5b60016000808573ffffffffffffffffffffffffffffffffffffffff1673ffffffffffffffffffffffffffffffffffffffff16815260200190815260200160002060006101000a81548160ff0219169083151502179055506001915050919050565b60008060009050600083101580156200094757506007600301548311155b8015620009815750600073ffffffffffffffffffffffffffffffffffffffff168473ffffffffffffffffffffffffffffffffffffffff1614155b6200098b57600080fd5b8260076003016000828254620009a2919062001739565b9250508190555082601160008673ffffffffffffffffffffffffffffffffffffffff1673ffffffffffffffffffffffffffffffffffffffff1681526020019081526020016000206000828254620009fa91906200154a565b925050819055836007600401600082825462000a1791906200154a565b92505081905550508373ffffffffffffffffffffffffffffffffffffffff168173ffffffffffffffffffffffffffffffffffffffff167fddf252ad1be2c89b69c2b068fc378daa952ba7f163c4a11628f55a4df523b3ef8560405162000a7e919062001785565b60405180910390a3600191505092915050565b60606000820362000ada576040518060400160405280600181526020017f3000000000000000000000000000000000000000000000000000000000000000815250905062000c05565b600082905060005b6000821462000b1257808062000af89062001669565b915050600a8262000b0a9190620017d1565b915062000ae2565b60008167ffffffffffffffff81111562000b315762000b3062000fc8565b5b6040519080825280601f01601f19166020018201604052801562000b645781602001600182028036833780820191505090505b5090505b6000851462000bfe5760018262000b80919062001739565b915060138562000b91919062001809565b603062000b9f91906200154a565b60f81b81838151811062000bb85762000bb762001841565b5b60200101907effffffffffffffffffffffffffffffffffffffffffffffffffffffffffffff1916908160001a905350600a8562000bf69190620017d1565b945062000b68565b8093505050505b919050565b600080600090506000600760090160009054906101000a900473ffffffffffffffffffffffffffffffffffffffff16905060011515601560008973ffffffffffffffffffffffffffffffffffffffff1673ffffffffffffffffffffffffffffffffffffffff1681526020019081526020016000208560405162000c8e919062001870565b908152602001604051809103902060050160009054906101000a900460ff1615151415801562000cc357506007600301548611155b801562000cfd5750600073ffffffffffffffffffffffffffffffffffffffff168773ffffffffffffffffffffffffffffffffffffffff1614155b801562000d0b575060008610155b62000d1557600080fd5b856007600301600082825462000d2c919062001739565b925050819055866007600401600082825462000d4991906200154a565b92505081905587601160008573ffffffffffffffffffffffffffffffffffffffff1673ffffffffffffffffffffffffffffffffffffffff168152602001908152602001600020600082825462000da091906200154a565b92505081905550505060004290506040518060c00160405280868152602001878152602001828152602001878362000dd991906200154a565b815260200188815260200160011515815250601560008a73ffffffffffffffffffffffffffffffffffffffff1673ffffffffffffffffffffffffffffffffffffffff1681526020019081526020016000208660405162000e3a919062001870565b9081526020016040518091039020600082015181600001908162000e5f919062001237565b506020820151816001015560408201518160020155606082015181600301556080820151816004015560a08201518160050160006101000a81548160ff0219169083151502179055509050508773ffffffffffffffffffffffffffffffffffffffff168373ffffffffffffffffffffffffffffffffffffffff167fddf252ad1be2c89b69c2b068fc378daa952ba7f163c4a11628f55a4df523b3ef8960405162000f0a919062001785565b60405180910390a360019350505050949350505050565b600080fd5b600073ffffffffffffffffffffffffffffffffffffffff82169050919050565b600062000f538262000f26565b9050919050565b62000f658162000f46565b811462000f7157600080fd5b50565b60008151905062000f858162000f5a565b92915050565b60006020828403121562000fa45762000fa362000f21565b5b600062000fb48482850162000f74565b91505092915050565b600081519050919050565b7f4e487b7100000000000000000000000000000000000000000000000000000000600052604160045260246000fd5b7f4e487b7100000000000000000000000000000000000000000000000000000000600052602260045260246000fd5b600060028204905060018216806200103f57607f821691505b60208210810362001055576200105462000ff7565b5b50919050565b60008190508160005260206000209050919050565b60006020601f8301049050919050565b600082821b905092915050565b600060088302620010bf7fffffffffffffffffffffffffffffffffffffffffffffffffffffffffffffffff8262001080565b620010cb868362001080565b95508019841693508086168417925050509392505050565b6000819050919050565b6000819050919050565b600062001118620011126200110c84620010e3565b620010ed565b620010e3565b9050919050565b6000819050919050565b6200113483620010f7565b6200114c62001143826200111f565b8484546200108d565b825550505050565b600090565b6200116362001154565b6200117081848462001129565b505050565b5b8181101562001198576200118c60008262001159565b60018101905062001176565b5050565b601f821115620011e757620011b1816200105b565b620011bc8462001070565b81016020851015620011cc578190505b620011e4620011db8562001070565b83018262001175565b50505b505050565b600082821c905092915050565b60006200120c60001984600802620011ec565b1980831691505092915050565b6000620012278383620011f9565b9150826002028217905092915050565b620012428262000fbd565b67ffffffffffffffff8111156200125e576200125d62000fc8565b5b6200126a825462001026565b620012778282856200119c565b600060209050601f831160018114620012af57600084156200129a578287015190505b620012a6858262001219565b86555062001316565b601f198416620012bf866200105b565b60005b82811015620012e957848901518255600182019150602085019450602081019050620012c2565b8683101562001309578489015162001305601f891682620011f9565b8355505b6001600288020188555050505b505050505050565b7f4e487b7100000000000000000000000000000000000000000000000000000000600052601160045260246000fd5b60008160011c9050919050565b6000808291508390505b6001851115620013ac578086048111156200138457620013836200131e565b5b6001851615620013945780820291505b8081029050620013a4856200134d565b945062001364565b94509492505050565b600082620013c757600190506200149a565b81620013d757600090506200149a565b8160018114620013f05760028114620013fb5762001431565b60019150506200149a565b60ff84111562001410576200140f6200131e565b5b8360020a9150848211156200142a57620014296200131e565b5b506200149a565b5060208310610133831016604e8410600b84101617156200146b5782820a9050838111156200146557620014646200131e565b5b6200149a565b6200147a84848460016200135a565b925090508184048111156200149457620014936200131e565b5b81810290505b9392505050565b600060ff82169050919050565b6000620014bb82620010e3565b9150620014c883620014a1565b9250620014f77fffffffffffffffffffffffffffffffffffffffffffffffffffffffffffffffff8484620013b5565b905092915050565b60006200150c82620010e3565b91506200151983620010e3565b92508282026200152981620010e3565b915082820484148315176200154357620015426200131e565b5b5092915050565b60006200155782620010e3565b91506200156483620010e3565b92508282019050808211156200157f576200157e6200131e565b5b92915050565b600081905092915050565b7f5653000000000000000000000000000000000000000000000000000000000000600082015250565b6000620015c860028362001585565b9150620015d58262001590565b600282019050919050565b60005b8381101562001600578082015181840152602081019050620015e3565b60008484015250505050565b6000620016198262000fbd565b62001625818562001585565b935062001637818560208601620015e0565b80840191505092915050565b60006200165082620015b9565b91506200165e82846200160c565b915081905092915050565b60006200167682620010e3565b91507fffffffffffffffffffffffffffffffffffffffffffffffffffffffffffffffff8203620016ab57620016aa6200131e565b5b600182019050919050565b600082825260208201905092915050565b7f6f6e6c7941646d696e0000000000000000000000000000000000000000000000600082015250565b6000620016ff600983620016b6565b91506200170c82620016c7565b602082019050919050565b600060208201905081810360008301526200173281620016f0565b9050919050565b60006200174682620010e3565b91506200175383620010e3565b92508282039050818111156200176e576200176d6200131e565b5b92915050565b6200177f81620010e3565b82525050565b60006020820190506200179c600083018462001774565b92915050565b7f4e487b7100000000000000000000000000000000000000000000000000000000600052601260045260246000fd5b6000620017de82620010e3565b9150620017eb83620010e3565b925082620017fe57620017fd620017a2565b5b828204905092915050565b60006200181682620010e3565b91506200182383620010e3565b925082620018365762001835620017a2565b5b828206905092915050565b7f4e487b7100000000000000000000000000000000000000000000000000000000600052603260045260246000fd5b60006200187e82846200160c565b915081905092915050565b608051613005620018a2600039600050506130056000f3fe608060405234801561001057600080fd5b506004361061018e5760003560e01c80634c496d4f116100de578063a694fc3a11610097578063db3c5fca11610071578063db3c5fca14610516578063dd62ed3e14610546578063e4f1b27c14610576578063f34e3723146105a65761018e565b8063a694fc3a14610498578063a9059cbb146104c8578063d5abeb01146104f85761018e565b80634c496d4f146103a957806370a08231146103cc57806379ec5d3a146103fc578063817b1cd21461042c57806395d89b411461044a57806396b75b1a146104685761018e565b806323b872dd1161014b57806340c10f191161012557806340c10f19146102fb578063426233601461032b57806342966c681461035b5780634bf365df1461038b5761018e565b806323b872dd1461027d5780632e17de78146102ad578063313ce567146102dd5761018e565b8063015af8ee1461019357806306fdde03146101c3578063095ea7b3146101e15780630d15fd771461021157806318160ddd1461022f5780631c1b87721461024d575b600080fd5b6101ad60048036038101906101a891906124b2565b6105d6565b6040516101ba919061250d565b60405180910390f35b6101cb610722565b6040516101d891906125b8565b60405180910390f35b6101fb60048036038101906101f69190612638565b6107b7565b604051610208919061250d565b60405180910390f35b610219610921565b6040516102269190612687565b60405180910390f35b61023761092d565b6040516102449190612687565b60405180910390f35b610267600480360381019061026291906126a2565b61093a565b604051610274919061250d565b60405180910390f35b610297600480360381019061029291906126cf565b610a9c565b6040516102a4919061250d565b60405180910390f35b6102c760048036038101906102c29190612722565b610c21565b6040516102d4919061250d565b60405180910390f35b6102e5610db6565b6040516102f2919061276b565b60405180910390f35b61031560048036038101906103109190612638565b610dd0565b604051610322919061250d565b60405180910390f35b610345600480360381019061034091906126a2565b610e7a565b6040516103529190612687565b60405180910390f35b61037560048036038101906103709190612722565b610ec3565b604051610382919061250d565b60405180910390f35b610393610f72565b6040516103a09190612687565b60405180910390f35b6103b1610f7f565b6040516103c396959493929190612786565b60405180910390f35b6103e660048036038101906103e191906126a2565b61107b565b6040516103f39190612687565b60405180910390f35b610416600480360381019061041191906126a2565b6110c4565b6040516104239190612687565b60405180910390f35b61043461110d565b6040516104419190612687565b60405180910390f35b61045261111a565b60405161045f91906125b8565b60405180910390f35b610482600480360381019061047d91906126a2565b6111af565b60405161048f919061250d565b60405180910390f35b6104b260048036038101906104ad9190612722565b61133e565b6040516104bf919061250d565b60405180910390f35b6104e260048036038101906104dd9190612638565b611487565b6040516104ef919061250d565b60405180910390f35b6105006114c3565b60405161050d9190612687565b60405180910390f35b610530600480360381019061052b91906126a2565b6114d0565b60405161053d919061250d565b60405180910390f35b610560600480360381019061055b91906127e7565b61165f565b60405161056d9190612687565b60405180910390f35b610590600480360381019061058b919061295c565b6116e6565b60405161059d919061250d565b60405180910390f35b6105c060048036038101906105bb91906129df565b611794565b6040516105cd919061250d565b60405180910390f35b600080339050600015156000808373ffffffffffffffffffffffffffffffffffffffff1673ffffffffffffffffffffffffffffffffffffffff16815260200190815260200160002060009054906101000a900460ff1615150361066e576040517f08c379a000000000000000000000000000000000000000000000000000000000815260040161066590612a74565b60405180910390fd5b6000600160000154905060006001800154905060006001600201549050600060016003015490508388101580156106a55750818811155b80156106b15750828710155b80156106bd5750808711155b6106c657600080fd5b87600160040181905550866001600501819055507ff710d5c0fed44aca6b7e44715976f68b87187f4a4d505f8c14731a5c3906e9b9888860405161070b929190612a94565b60405180910390a160019550505050505092915050565b60606007600001805461073490612aec565b80601f016020809104026020016040519081016040528092919081815260200182805461076090612aec565b80156107ad5780601f10610782576101008083540402835291602001916107ad565b820191906000526020600020905b81548152906001019060200180831161079057829003601f168201915b5050505050905090565b600080339050600073ffffffffffffffffffffffffffffffffffffffff168173ffffffffffffffffffffffffffffffffffffffff16141580156108275750600073ffffffffffffffffffffffffffffffffffffffff168473ffffffffffffffffffffffffffffffffffffffff1614155b61083057600080fd5b82601460008373ffffffffffffffffffffffffffffffffffffffff1673ffffffffffffffffffffffffffffffffffffffff16815260200190815260200160002060008673ffffffffffffffffffffffffffffffffffffffff1673ffffffffffffffffffffffffffffffffffffffff168152602001908152602001600020819055508373ffffffffffffffffffffffffffffffffffffffff168173ffffffffffffffffffffffffffffffffffffffff167f8c5be1e5ebec7d5bd14f71427d1e84f3dd0314c0f7b2291e5b200ac8c7c3b9258560405161090e9190612687565b60405180910390a3600191505092915050565b60006007800154905090565b6000600760040154905090565b600080339050600015156000808373ffffffffffffffffffffffffffffffffffffffff1673ffffffffffffffffffffffffffffffffffffffff16815260200190815260200160002060009054906101000a900460ff161515036109d2576040517f08c379a00000000000000000000000000000000000000000000000000000000081526004016109c990612a74565b60405180910390fd5b600073ffffffffffffffffffffffffffffffffffffffff168373ffffffffffffffffffffffffffffffffffffffff1603610a0b57600080fd5b82600760090160006101000a81548173ffffffffffffffffffffffffffffffffffffffff021916908373ffffffffffffffffffffffffffffffffffffffff1602179055508273ffffffffffffffffffffffffffffffffffffffff167fd456720fd185d4060f5cea4d82775d2af95048c1e10f227ec35bae950a4be2a860405160405180910390a26001915050919050565b600080601460008673ffffffffffffffffffffffffffffffffffffffff1673ffffffffffffffffffffffffffffffffffffffff16815260200190815260200160002060003373ffffffffffffffffffffffffffffffffffffffff1673ffffffffffffffffffffffffffffffffffffffff1681526020019081526020016000205490507fffffffffffffffffffffffffffffffffffffffffffffffffffffffffffffffff8114158015610b4e5750828110155b610b5757600080fd5b82601460008773ffffffffffffffffffffffffffffffffffffffff1673ffffffffffffffffffffffffffffffffffffffff16815260200190815260200160002060003373ffffffffffffffffffffffffffffffffffffffff1673ffffffffffffffffffffffffffffffffffffffff1681526020019081526020016000206000828254610be39190612b4c565b925050819055506000600160040154905060006001600501549050600080610c0e8989898787611a9f565b9150915081955050505050509392505050565b600080600760090160009054906101000a900473ffffffffffffffffffffffffffffffffffffffff16905060003390506000600160040154905060006001600501549050601260008473ffffffffffffffffffffffffffffffffffffffff1673ffffffffffffffffffffffffffffffffffffffff16815260200190815260200160002054861115610cb157600080fd5b600080610cc186868a8787611a9f565b9150915087601260008773ffffffffffffffffffffffffffffffffffffffff1673ffffffffffffffffffffffffffffffffffffffff1681526020019081526020016000206000828254610d149190612b4c565b9250508190555087601360008773ffffffffffffffffffffffffffffffffffffffff1673ffffffffffffffffffffffffffffffffffffffff1681526020019081526020016000206000828254610d6a9190612b4c565b925050819055508760076005016000828254610d869190612b4c565b9250508190555087600780016000828254610da19190612b4c565b92505081905550819650505050505050919050565b6000600760020160009054906101000a900460ff16905090565b600080339050600015156000808373ffffffffffffffffffffffffffffffffffffffff1673ffffffffffffffffffffffffffffffffffffffff16815260200190815260200160002060009054906101000a900460ff16151503610e68576040517f08c379a0000000000000000000000000000000000000000000000000000000008152600401610e5f90612a74565b60405180910390fd5b610e728484611ecc565b505092915050565b6000601260008373ffffffffffffffffffffffffffffffffffffffff1673ffffffffffffffffffffffffffffffffffffffff168152602001908152602001600020549050919050565b600080339050600015156000808373ffffffffffffffffffffffffffffffffffffffff1673ffffffffffffffffffffffffffffffffffffffff16815260200190815260200160002060009054906101000a900460ff16151503610f5b576040517f08c379a0000000000000000000000000000000000000000000000000000000008152600401610f5290612a74565b60405180910390fd5b6000339050610f6a8185612029565b505050919050565b6000600760030154905090565b6000806000806000806000339050600015156000808373ffffffffffffffffffffffffffffffffffffffff1673ffffffffffffffffffffffffffffffffffffffff16815260200190815260200160002060009054906101000a900460ff1615150361101f576040517f08c379a000000000000000000000000000000000000000000000000000000000815260040161101690612a74565b60405180910390fd5b60006001600401549050600060016005015490506000600160000154905060006001800154905060006001600201549050600060016003015490508585858585859c509c509c509c509c509c5050505050505050909192939495565b6000601160008373ffffffffffffffffffffffffffffffffffffffff1673ffffffffffffffffffffffffffffffffffffffff168152602001908152602001600020549050919050565b6000601360008373ffffffffffffffffffffffffffffffffffffffff1673ffffffffffffffffffffffffffffffffffffffff168152602001908152602001600020549050919050565b6000600760050154905090565b60606007600101805461112c90612aec565b80601f016020809104026020016040519081016040528092919081815260200182805461115890612aec565b80156111a55780601f1061117a576101008083540402835291602001916111a5565b820191906000526020600020905b81548152906001019060200180831161118857829003601f168201915b5050505050905090565b600080339050600015156000808373ffffffffffffffffffffffffffffffffffffffff1673ffffffffffffffffffffffffffffffffffffffff16815260200190815260200160002060009054906101000a900460ff16151503611247576040517f08c379a000000000000000000000000000000000000000000000000000000000815260040161123e90612a74565b60405180910390fd5b600073ffffffffffffffffffffffffffffffffffffffff168373ffffffffffffffffffffffffffffffffffffffff16141580156112d45750600115156000808573ffffffffffffffffffffffffffffffffffffffff1673ffffffffffffffffffffffffffffffffffffffff16815260200190815260200160002060009054906101000a900460ff16151514155b6112dd57600080fd5b60016000808573ffffffffffffffffffffffffffffffffffffffff1673ffffffffffffffffffffffffffffffffffffffff16815260200190815260200160002060006101000a81548160ff0219169083151502179055506001915050919050565b6000803390506000600760090160009054906101000a900473ffffffffffffffffffffffffffffffffffffffff169050600060016004015490506000600160050154905060008061139286868a8787611a9f565b9150915080601260008873ffffffffffffffffffffffffffffffffffffffff1673ffffffffffffffffffffffffffffffffffffffff16815260200190815260200160002060008282546113e59190612b80565b9250508190555080601360008873ffffffffffffffffffffffffffffffffffffffff1673ffffffffffffffffffffffffffffffffffffffff168152602001908152602001600020600082825461143b9190612b80565b9250508190555080600760050160008282546114579190612b80565b92505081905550806007800160008282546114729190612b80565b92505081905550819650505050505050919050565b60008033905060006001600401549050600060016005015490506000806114b18589898787611a9f565b91509150819550505050505092915050565b6000600760080154905090565b600080339050600015156000808373ffffffffffffffffffffffffffffffffffffffff1673ffffffffffffffffffffffffffffffffffffffff16815260200190815260200160002060009054906101000a900460ff16151503611568576040517f08c379a000000000000000000000000000000000000000000000000000000000815260040161155f90612a74565b60405180910390fd5b600073ffffffffffffffffffffffffffffffffffffffff168373ffffffffffffffffffffffffffffffffffffffff16141580156115f55750600015156000808573ffffffffffffffffffffffffffffffffffffffff1673ffffffffffffffffffffffffffffffffffffffff16815260200190815260200160002060009054906101000a900460ff16151514155b6115fe57600080fd5b60008060008573ffffffffffffffffffffffffffffffffffffffff1673ffffffffffffffffffffffffffffffffffffffff16815260200190815260200160002060006101000a81548160ff0219169083151502179055506001915050919050565b6000601460008473ffffffffffffffffffffffffffffffffffffffff1673ffffffffffffffffffffffffffffffffffffffff16815260200190815260200160002060008373ffffffffffffffffffffffffffffffffffffffff1673ffffffffffffffffffffffffffffffffffffffff16815260200190815260200160002054905092915050565b600080339050600015156000808373ffffffffffffffffffffffffffffffffffffffff1673ffffffffffffffffffffffffffffffffffffffff16815260200190815260200160002060009054906101000a900460ff1615150361177e576040517f08c379a000000000000000000000000000000000000000000000000000000000815260040161177590612a74565b60405180910390fd5b61178a86868686612165565b5050949350505050565b600080600760090160009054906101000a900473ffffffffffffffffffffffffffffffffffffffff16905060003390506000601560008373ffffffffffffffffffffffffffffffffffffffff1673ffffffffffffffffffffffffffffffffffffffff168152602001908152602001600020856040516118139190612bf0565b90815260200160405180910390206003015490506000601560008473ffffffffffffffffffffffffffffffffffffffff1673ffffffffffffffffffffffffffffffffffffffff168152602001908152602001600020866040516118769190612bf0565b908152602001604051809103902060040154905042821015801561189a5750600081115b6118a357600080fd5b60006001600401549050600060016005015490506000806118c78888878787611a9f565b915091506000601560008973ffffffffffffffffffffffffffffffffffffffff1673ffffffffffffffffffffffffffffffffffffffff1681526020019081526020016000208b60405161191a9190612bf0565b9081526020016040518091039020600401819055508198505050505050505050919050565b606060008203611986576040518060400160405280600181526020017f30000000000000000000000000000000000000000000000000000000000000008152509050611a9a565b600082905060005b600082146119b85780806119a190612c07565b915050600a826119b19190612c7e565b915061198e565b60008167ffffffffffffffff8111156119d4576119d3612831565b5b6040519080825280601f01601f191660200182016040528015611a065781602001600182028036833780820191505090505b5090505b60008514611a9357600182611a1f9190612b4c565b9150601385611a2e9190612caf565b6030611a3a9190612b80565b60f81b818381518110611a5057611a4f612ce0565b5b60200101907effffffffffffffffffffffffffffffffffffffffffffffffffffffffffffff1916908160001a905350600a85611a8c9190612c7e565b9450611a0a565b8093505050505b919050565b600080600073ffffffffffffffffffffffffffffffffffffffff168773ffffffffffffffffffffffffffffffffffffffff1614158015611b0c5750600073ffffffffffffffffffffffffffffffffffffffff168673ffffffffffffffffffffffffffffffffffffffff1614155b8015611b57575084601160008973ffffffffffffffffffffffffffffffffffffffff1673ffffffffffffffffffffffffffffffffffffffff1681526020019081526020016000205410155b8015611ba357506000601160008973ffffffffffffffffffffffffffffffffffffffff1673ffffffffffffffffffffffffffffffffffffffff1681526020019081526020016000205410155b8015611bb0575060008510155b611bb957600080fd5b84601160008973ffffffffffffffffffffffffffffffffffffffff1673ffffffffffffffffffffffffffffffffffffffff1681526020019081526020016000206000828254611c089190612b4c565b925050819055506000846103e887611c209190612c7e565b611c2a9190612d0f565b90506000846103e888611c3d9190612c7e565b611c479190612d0f565b905060008183611c579190612b80565b88611c629190612b4c565b905080601160008b73ffffffffffffffffffffffffffffffffffffffff1673ffffffffffffffffffffffffffffffffffffffff1681526020019081526020016000206000828254611cb39190612b80565b925050819055508160116000600760090160009054906101000a900473ffffffffffffffffffffffffffffffffffffffff1673ffffffffffffffffffffffffffffffffffffffff1673ffffffffffffffffffffffffffffffffffffffff1681526020019081526020016000206000828254611d2e9190612b80565b925050819055508260076004016000828254611d4a9190612b4c565b925050819055508873ffffffffffffffffffffffffffffffffffffffff168a73ffffffffffffffffffffffffffffffffffffffff167fddf252ad1be2c89b69c2b068fc378daa952ba7f163c4a11628f55a4df523b3ef83604051611dae9190612687565b60405180910390a360008314611e2557600073ffffffffffffffffffffffffffffffffffffffff168a73ffffffffffffffffffffffffffffffffffffffff167fddf252ad1be2c89b69c2b068fc378daa952ba7f163c4a11628f55a4df523b3ef85604051611e1c9190612687565b60405180910390a35b60008214611eb857600760090160009054906101000a900473ffffffffffffffffffffffffffffffffffffffff1673ffffffffffffffffffffffffffffffffffffffff168a73ffffffffffffffffffffffffffffffffffffffff167fddf252ad1be2c89b69c2b068fc378daa952ba7f163c4a11628f55a4df523b3ef84604051611eaf9190612687565b60405180910390a35b600181945094505050509550959350505050565b6000806000905060008310158015611ee957506007600301548311155b8015611f225750600073ffffffffffffffffffffffffffffffffffffffff168473ffffffffffffffffffffffffffffffffffffffff1614155b611f2b57600080fd5b8260076003016000828254611f409190612b4c565b9250508190555082601160008673ffffffffffffffffffffffffffffffffffffffff1673ffffffffffffffffffffffffffffffffffffffff1681526020019081526020016000206000828254611f969190612b80565b9250508190558360076004016000828254611fb19190612b80565b92505081905550508373ffffffffffffffffffffffffffffffffffffffff168173ffffffffffffffffffffffffffffffffffffffff167fddf252ad1be2c89b69c2b068fc378daa952ba7f163c4a11628f55a4df523b3ef856040516120169190612687565b60405180910390a3600191505092915050565b600080821015801561207a5750601160008473ffffffffffffffffffffffffffffffffffffffff1673ffffffffffffffffffffffffffffffffffffffff168152602001908152602001600020548211155b61208357600080fd5b81601160008573ffffffffffffffffffffffffffffffffffffffff1673ffffffffffffffffffffffffffffffffffffffff16815260200190815260200160002060008282546120d29190612b4c565b92505081905582600760040160008282546120ed9190612b4c565b9250508190555050600073ffffffffffffffffffffffffffffffffffffffff168373ffffffffffffffffffffffffffffffffffffffff167fddf252ad1be2c89b69c2b068fc378daa952ba7f163c4a11628f55a4df523b3ef846040516121539190612687565b60405180910390a36001905092915050565b600080600090506000600760090160009054906101000a900473ffffffffffffffffffffffffffffffffffffffff16905060011515601560008973ffffffffffffffffffffffffffffffffffffffff1673ffffffffffffffffffffffffffffffffffffffff168152602001908152602001600020856040516121e79190612bf0565b908152602001604051809103902060050160009054906101000a900460ff1615151415801561221b57506007600301548611155b80156122545750600073ffffffffffffffffffffffffffffffffffffffff168773ffffffffffffffffffffffffffffffffffffffff1614155b8015612261575060008610155b61226a57600080fd5b856007600301600082825461227f9190612b4c565b925050819055866007600401600082825461229a9190612b80565b92505081905587601160008573ffffffffffffffffffffffffffffffffffffffff1673ffffffffffffffffffffffffffffffffffffffff16815260200190815260200160002060008282546122ef9190612b80565b92505081905550505060004290506040518060c0016040528086815260200187815260200182815260200187836123269190612b80565b815260200188815260200160011515815250601560008a73ffffffffffffffffffffffffffffffffffffffff1673ffffffffffffffffffffffffffffffffffffffff168152602001908152602001600020866040516123859190612bf0565b908152602001604051809103902060008201518160000190816123a89190612efd565b506020820151816001015560408201518160020155606082015181600301556080820151816004015560a08201518160050160006101000a81548160ff0219169083151502179055509050508773ffffffffffffffffffffffffffffffffffffffff168373ffffffffffffffffffffffffffffffffffffffff167fddf252ad1be2c89b69c2b068fc378daa952ba7f163c4a11628f55a4df523b3ef896040516124519190612687565b60405180910390a360019350505050949350505050565b6000604051905090565b600080fd5b600080fd5b6000819050919050565b61248f8161247c565b811461249a57600080fd5b50565b6000813590506124ac81612486565b92915050565b600080604083850312156124c9576124c8612472565b5b60006124d78582860161249d565b92505060206124e88582860161249d565b9150509250929050565b60008115159050919050565b612507816124f2565b82525050565b600060208201905061252260008301846124fe565b92915050565b600081519050919050565b600082825260208201905092915050565b60005b83811015612562578082015181840152602081019050612547565b60008484015250505050565b6000601f19601f8301169050919050565b600061258a82612528565b6125948185612533565b93506125a4818560208601612544565b6125ad8161256e565b840191505092915050565b600060208201905081810360008301526125d2818461257f565b905092915050565b600073ffffffffffffffffffffffffffffffffffffffff82169050919050565b6000612605826125da565b9050919050565b612615816125fa565b811461262057600080fd5b50565b6000813590506126328161260c565b92915050565b6000806040838503121561264f5761264e612472565b5b600061265d85828601612623565b925050602061266e8582860161249d565b9150509250929050565b6126818161247c565b82525050565b600060208201905061269c6000830184612678565b92915050565b6000602082840312156126b8576126b7612472565b5b60006126c684828501612623565b91505092915050565b6000806000606084860312156126e8576126e7612472565b5b60006126f686828701612623565b935050602061270786828701612623565b92505060406127188682870161249d565b9150509250925092565b60006020828403121561273857612737612472565b5b60006127468482850161249d565b91505092915050565b600060ff82169050919050565b6127658161274f565b82525050565b6000602082019050612780600083018461275c565b92915050565b600060c08201905061279b6000830189612678565b6127a86020830188612678565b6127b56040830187612678565b6127c26060830186612678565b6127cf6080830185612678565b6127dc60a0830184612678565b979650505050505050565b600080604083850312156127fe576127fd612472565b5b600061280c85828601612623565b925050602061281d85828601612623565b9150509250929050565b600080fd5b600080fd5b7f4e487b7100000000000000000000000000000000000000000000000000000000600052604160045260246000fd5b6128698261256e565b810181811067ffffffffffffffff8211171561288857612887612831565b5b80604052505050565b600061289b612468565b90506128a78282612860565b919050565b600067ffffffffffffffff8211156128c7576128c6612831565b5b6128d08261256e565b9050602081019050919050565b82818337600083830152505050565b60006128ff6128fa846128ac565b612891565b90508281526020810184848401111561291b5761291a61282c565b5b6129268482856128dd565b509392505050565b600082601f83011261294357612942612827565b5b81356129538482602086016128ec565b91505092915050565b6000806000806080858703121561297657612975612472565b5b600061298487828801612623565b94505060206129958782880161249d565b93505060406129a68782880161249d565b925050606085013567ffffffffffffffff8111156129c7576129c6612477565b5b6129d38782880161292e565b91505092959194509250565b6000602082840312156129f5576129f4612472565b5b600082013567ffffffffffffffff811115612a1357612a12612477565b5b612a1f8482850161292e565b91505092915050565b7f6f6e6c7941646d696e0000000000000000000000000000000000000000000000600082015250565b6000612a5e600983612533565b9150612a6982612a28565b602082019050919050565b60006020820190508181036000830152612a8d81612a51565b9050919050565b6000604082019050612aa96000830185612678565b612ab66020830184612678565b9392505050565b7f4e487b7100000000000000000000000000000000000000000000000000000000600052602260045260246000fd5b60006002820490506001821680612b0457607f821691505b602082108103612b1757612b16612abd565b5b50919050565b7f4e487b7100000000000000000000000000000000000000000000000000000000600052601160045260246000fd5b6000612b578261247c565b9150612b628361247c565b9250828203905081811115612b7a57612b79612b1d565b5b92915050565b6000612b8b8261247c565b9150612b968361247c565b9250828201905080821115612bae57612bad612b1d565b5b92915050565b600081905092915050565b6000612bca82612528565b612bd48185612bb4565b9350612be4818560208601612544565b80840191505092915050565b6000612bfc8284612bbf565b915081905092915050565b6000612c128261247c565b91507fffffffffffffffffffffffffffffffffffffffffffffffffffffffffffffffff8203612c4457612c43612b1d565b5b600182019050919050565b7f4e487b7100000000000000000000000000000000000000000000000000000000600052601260045260246000fd5b6000612c898261247c565b9150612c948361247c565b925082612ca457612ca3612c4f565b5b828204905092915050565b6000612cba8261247c565b9150612cc58361247c565b925082612cd557612cd4612c4f565b5b828206905092915050565b7f4e487b7100000000000000000000000000000000000000000000000000000000600052603260045260246000fd5b6000612d1a8261247c565b9150612d258361247c565b9250828202612d338161247c565b91508282048414831517612d4a57612d49612b1d565b5b5092915050565b60008190508160005260206000209050919050565b60006020601f8301049050919050565b600082821b905092915050565b600060088302612db37fffffffffffffffffffffffffffffffffffffffffffffffffffffffffffffffff82612d76565b612dbd8683612d76565b95508019841693508086168417925050509392505050565b6000819050919050565b6000612dfa612df5612df08461247c565b612dd5565b61247c565b9050919050565b6000819050919050565b612e1483612ddf565b612e28612e2082612e01565b848454612d83565b825550505050565b600090565b612e3d612e30565b612e48818484612e0b565b505050565b5b81811015612e6c57612e61600082612e35565b600181019050612e4e565b5050565b601f821115612eb157612e8281612d51565b612e8b84612d66565b81016020851015612e9a578190505b612eae612ea685612d66565b830182612e4d565b50505b505050565b600082821c905092915050565b6000612ed460001984600802612eb6565b1980831691505092915050565b6000612eed8383612ec3565b9150826002028217905092915050565b612f0682612528565b67ffffffffffffffff811115612f1f57612f1e612831565b5b612f298254612aec565b612f34828285612e70565b600060209050601f831160018114612f675760008415612f55578287015190505b612f5f8582612ee1565b865550612fc7565b601f198416612f7586612d51565b60005b82811015612f9d57848901518255600182019150602085019450602081019050612f78565b86831015612fba5784890151612fb6601f891682612ec3565b8355505b6001600288020188555050505b50505050505056fea26469706673582212201bba5f3c9039dc46ac21809ba857cd19a15b2593c953a8627e9c7e5e99f4b54d64736f6c63430008120033",
					"opcodes": "PUSH1 0xA0 PUSH1 0x40 MSTORE PUSH32 0xFFFFFFFFFFFFFFFFFFFFFFFFFFFFFFFFFFFFFFFFFFFFFFFFFFFFFFFFFFFFFFFF PUSH1 0x80 SWAP1 DUP2 MSTORE POP CALLVALUE DUP1 ISZERO PUSH3 0x38 JUMPI PUSH1 0x0 DUP1 REVERT JUMPDEST POP PUSH1 0x40 MLOAD PUSH3 0x48A7 CODESIZE SUB DUP1 PUSH3 0x48A7 DUP4 CODECOPY DUP2 DUP2 ADD PUSH1 0x40 MSTORE DUP2 ADD SWAP1 PUSH3 0x5E SWAP2 SWAP1 PUSH3 0xF8B JUMP JUMPDEST PUSH1 0x1 PUSH1 0x0 DUP1 CALLER PUSH20 0xFFFFFFFFFFFFFFFFFFFFFFFFFFFFFFFFFFFFFFFF AND PUSH20 0xFFFFFFFFFFFFFFFFFFFFFFFFFFFFFFFFFFFFFFFF AND DUP2 MSTORE PUSH1 0x20 ADD SWAP1 DUP2 MSTORE PUSH1 0x20 ADD PUSH1 0x0 KECCAK256 PUSH1 0x0 PUSH2 0x100 EXP DUP2 SLOAD DUP2 PUSH1 0xFF MUL NOT AND SWAP1 DUP4 ISZERO ISZERO MUL OR SWAP1 SSTORE POP PUSH3 0xC6 DUP2 PUSH3 0x795 PUSH1 0x20 SHL PUSH1 0x20 SHR JUMP JUMPDEST POP PUSH1 0x40 MLOAD DUP1 PUSH1 0x40 ADD PUSH1 0x40 MSTORE DUP1 PUSH1 0xC DUP2 MSTORE PUSH1 0x20 ADD PUSH32 0x447265616D636174636865720000000000000000000000000000000000000000 DUP2 MSTORE POP PUSH1 0x7 PUSH1 0x0 ADD SWAP1 DUP2 PUSH3 0x110 SWAP2 SWAP1 PUSH3 0x1237 JUMP JUMPDEST POP PUSH1 0x40 MLOAD DUP1 PUSH1 0x40 ADD PUSH1 0x40 MSTORE DUP1 PUSH1 0x5 DUP2 MSTORE PUSH1 0x20 ADD PUSH32 0x445245414D000000000000000000000000000000000000000000000000000000 DUP2 MSTORE POP PUSH1 0x7 PUSH1 0x1 ADD SWAP1 DUP2 PUSH3 0x15A SWAP2 SWAP1 PUSH3 0x1237 JUMP JUMPDEST POP PUSH1 0x12 PUSH1 0x7 PUSH1 0x2 ADD PUSH1 0x0 PUSH2 0x100 EXP DUP2 SLOAD DUP2 PUSH1 0xFF MUL NOT AND SWAP1 DUP4 PUSH1 0xFF AND MUL OR SWAP1 SSTORE POP PUSH1 0x0 PUSH1 0x7 PUSH1 0x4 ADD DUP2 SWAP1 SSTORE POP PUSH1 0x7 PUSH1 0x2 ADD PUSH1 0x0 SWAP1 SLOAD SWAP1 PUSH2 0x100 EXP SWAP1 DIV PUSH1 0xFF AND PUSH1 0xA PUSH3 0x1A6 SWAP2 SWAP1 PUSH3 0x14AE JUMP JUMPDEST PUSH4 0xBEBC200 PUSH3 0x1B7 SWAP2 SWAP1 PUSH3 0x14FF JUMP JUMPDEST PUSH1 0x7 PUSH1 0x8 ADD DUP2 SWAP1 SSTORE POP PUSH1 0x7 PUSH1 0x8 ADD SLOAD PUSH1 0x7 PUSH1 0x3 ADD DUP2 SWAP1 SSTORE POP DUP1 PUSH1 0x7 PUSH1 0x9 ADD PUSH1 0x0 PUSH2 0x100 EXP DUP2 SLOAD DUP2 PUSH20 0xFFFFFFFFFFFFFFFFFFFFFFFFFFFFFFFFFFFFFFFF MUL NOT AND SWAP1 DUP4 PUSH20 0xFFFFFFFFFFFFFFFFFFFFFFFFFFFFFFFFFFFFFFFF AND MUL OR SWAP1 SSTORE POP PUSH1 0x0 PUSH1 0x1 PUSH1 0x4 ADD DUP2 SWAP1 SSTORE POP PUSH1 0x0 PUSH1 0x1 PUSH1 0x5 ADD DUP2 SWAP1 SSTORE POP PUSH1 0x0 PUSH1 0x1 PUSH1 0x0 ADD DUP2 SWAP1 SSTORE POP PUSH1 0x0 PUSH1 0x1 DUP1 ADD DUP2 SWAP1 SSTORE POP PUSH2 0x2710 PUSH1 0x1 PUSH1 0x2 ADD DUP2 SWAP1 SSTORE POP PUSH2 0x2710 PUSH1 0x1 PUSH1 0x3 ADD DUP2 SWAP1 SSTORE POP PUSH1 0x0 PUSH20 0xDBF85074764156004FEB245B65693E59A62262C2 SWAP1 POP PUSH1 0x0 PUSH1 0x7 PUSH1 0x2 ADD PUSH1 0x0 SWAP1 SLOAD SWAP1 PUSH2 0x100 EXP SWAP1 DIV PUSH1 0xFF AND PUSH1 0xA PUSH3 0x292 SWAP2 SWAP1 PUSH3 0x14AE JUMP JUMPDEST PUSH3 0x2E630 PUSH3 0x2A2 SWAP2 SWAP1 PUSH3 0x14FF JUMP JUMPDEST SWAP1 POP PUSH1 0x0 PUSH1 0x7 PUSH1 0x2 ADD PUSH1 0x0 SWAP1 SLOAD SWAP1 PUSH2 0x100 EXP SWAP1 DIV PUSH1 0xFF AND PUSH1 0xA PUSH3 0x2C7 SWAP2 SWAP1 PUSH3 0x14AE JUMP JUMPDEST PUSH3 0x186A0 PUSH3 0x2D7 SWAP2 SWAP1 PUSH3 0x14FF JUMP JUMPDEST SWAP1 POP PUSH1 0x0 PUSH4 0x1BAF800 SWAP1 POP PUSH1 0x0 PUSH2 0x7E7 SWAP1 POP PUSH3 0x2FB DUP6 DUP5 PUSH3 0x929 PUSH1 0x20 SHL PUSH1 0x20 SHR JUMP JUMPDEST POP PUSH1 0x0 JUMPDEST PUSH1 0xA DUP2 GT PUSH3 0x38F JUMPI PUSH1 0x0 DUP2 DUP4 PUSH3 0x318 SWAP2 SWAP1 PUSH3 0x154A JUMP JUMPDEST SWAP1 POP PUSH1 0x0 PUSH3 0x332 DUP3 PUSH3 0xA91 PUSH1 0x20 SHL PUSH3 0x193F OR PUSH1 0x20 SHR JUMP JUMPDEST PUSH1 0x40 MLOAD PUSH1 0x20 ADD PUSH3 0x344 SWAP2 SWAP1 PUSH3 0x1643 JUMP JUMPDEST PUSH1 0x40 MLOAD PUSH1 0x20 DUP2 DUP4 SUB SUB DUP2 MSTORE SWAP1 PUSH1 0x40 MSTORE SWAP1 POP PUSH3 0x376 DUP9 DUP9 DUP6 DUP9 PUSH3 0x369 SWAP2 SWAP1 PUSH3 0x14FF JUMP JUMPDEST DUP5 PUSH3 0xC0A PUSH1 0x20 SHL PUSH1 0x20 SHR JUMP JUMPDEST POP POP POP DUP1 DUP1 PUSH3 0x386 SWAP1 PUSH3 0x1669 JUMP JUMPDEST SWAP2 POP POP PUSH3 0x2FF JUMP JUMPDEST POP PUSH20 0x172952523F64EAAF288DE4CE9E5D1295DCFD3F83 SWAP5 POP PUSH1 0x7 PUSH1 0x2 ADD PUSH1 0x0 SWAP1 SLOAD SWAP1 PUSH2 0x100 EXP SWAP1 DIV PUSH1 0xFF AND PUSH1 0xA PUSH3 0x3C8 SWAP2 SWAP1 PUSH3 0x14AE JUMP JUMPDEST PUSH3 0x2E630 PUSH3 0x3D8 SWAP2 SWAP1 PUSH3 0x14FF JUMP JUMPDEST SWAP4 POP PUSH1 0x7 PUSH1 0x2 ADD PUSH1 0x0 SWAP1 SLOAD SWAP1 PUSH2 0x100 EXP SWAP1 DIV PUSH1 0xFF AND PUSH1 0xA PUSH3 0x3FB SWAP2 SWAP1 PUSH3 0x14AE JUMP JUMPDEST PUSH3 0x186A0 PUSH3 0x40B SWAP2 SWAP1 PUSH3 0x14FF JUMP JUMPDEST SWAP3 POP PUSH4 0x1BAF800 SWAP2 POP PUSH2 0x7E7 SWAP1 POP PUSH3 0x42B DUP6 DUP5 PUSH3 0x929 PUSH1 0x20 SHL PUSH1 0x20 SHR JUMP JUMPDEST POP PUSH1 0x0 JUMPDEST PUSH1 0xA DUP2 GT PUSH3 0x4BF JUMPI PUSH1 0x0 DUP2 DUP4 PUSH3 0x448 SWAP2 SWAP1 PUSH3 0x154A JUMP JUMPDEST SWAP1 POP PUSH1 0x0 PUSH3 0x462 DUP3 PUSH3 0xA91 PUSH1 0x20 SHL PUSH3 0x193F OR PUSH1 0x20 SHR JUMP JUMPDEST PUSH1 0x40 MLOAD PUSH1 0x20 ADD PUSH3 0x474 SWAP2 SWAP1 PUSH3 0x1643 JUMP JUMPDEST PUSH1 0x40 MLOAD PUSH1 0x20 DUP2 DUP4 SUB SUB DUP2 MSTORE SWAP1 PUSH1 0x40 MSTORE SWAP1 POP PUSH3 0x4A6 DUP9 DUP9 DUP6 DUP9 PUSH3 0x499 SWAP2 SWAP1 PUSH3 0x14FF JUMP JUMPDEST DUP5 PUSH3 0xC0A PUSH1 0x20 SHL PUSH1 0x20 SHR JUMP JUMPDEST POP POP POP DUP1 DUP1 PUSH3 0x4B6 SWAP1 PUSH3 0x1669 JUMP JUMPDEST SWAP2 POP POP PUSH3 0x42F JUMP JUMPDEST POP PUSH20 0xBAF175966DCAB0012B9AB23150D1B1F8DA4C41DA SWAP5 POP PUSH1 0x7 PUSH1 0x2 ADD PUSH1 0x0 SWAP1 SLOAD SWAP1 PUSH2 0x100 EXP SWAP1 DIV PUSH1 0xFF AND PUSH1 0xA PUSH3 0x4F8 SWAP2 SWAP1 PUSH3 0x14AE JUMP JUMPDEST PUSH3 0x2E630 PUSH3 0x508 SWAP2 SWAP1 PUSH3 0x14FF JUMP JUMPDEST SWAP4 POP PUSH1 0x7 PUSH1 0x2 ADD PUSH1 0x0 SWAP1 SLOAD SWAP1 PUSH2 0x100 EXP SWAP1 DIV PUSH1 0xFF AND PUSH1 0xA PUSH3 0x52B SWAP2 SWAP1 PUSH3 0x14AE JUMP JUMPDEST PUSH3 0x186A0 PUSH3 0x53B SWAP2 SWAP1 PUSH3 0x14FF JUMP JUMPDEST SWAP3 POP PUSH4 0x1BAF800 SWAP2 POP PUSH2 0x7E7 SWAP1 POP PUSH3 0x55B DUP6 DUP5 PUSH3 0x929 PUSH1 0x20 SHL PUSH1 0x20 SHR JUMP JUMPDEST POP PUSH1 0x0 JUMPDEST PUSH1 0xA DUP2 GT PUSH3 0x5EF JUMPI PUSH1 0x0 DUP2 DUP4 PUSH3 0x578 SWAP2 SWAP1 PUSH3 0x154A JUMP JUMPDEST SWAP1 POP PUSH1 0x0 PUSH3 0x592 DUP3 PUSH3 0xA91 PUSH1 0x20 SHL PUSH3 0x193F OR PUSH1 0x20 SHR JUMP JUMPDEST PUSH1 0x40 MLOAD PUSH1 0x20 ADD PUSH3 0x5A4 SWAP2 SWAP1 PUSH3 0x1643 JUMP JUMPDEST PUSH1 0x40 MLOAD PUSH1 0x20 DUP2 DUP4 SUB SUB DUP2 MSTORE SWAP1 PUSH1 0x40 MSTORE SWAP1 POP PUSH3 0x5D6 DUP9 DUP9 DUP6 DUP9 PUSH3 0x5C9 SWAP2 SWAP1 PUSH3 0x14FF JUMP JUMPDEST DUP5 PUSH3 0xC0A PUSH1 0x20 SHL PUSH1 0x20 SHR JUMP JUMPDEST POP POP POP DUP1 DUP1 PUSH3 0x5E6 SWAP1 PUSH3 0x1669 JUMP JUMPDEST SWAP2 POP POP PUSH3 0x55F JUMP JUMPDEST POP PUSH20 0x1DE8807F69E357FD91E47B34DC2A66216A9DC4B4 SWAP5 POP PUSH1 0x7 PUSH1 0x2 ADD PUSH1 0x0 SWAP1 SLOAD SWAP1 PUSH2 0x100 EXP SWAP1 DIV PUSH1 0xFF AND PUSH1 0xA PUSH3 0x628 SWAP2 SWAP1 PUSH3 0x14AE JUMP JUMPDEST PUSH3 0x2E630 PUSH3 0x638 SWAP2 SWAP1 PUSH3 0x14FF JUMP JUMPDEST SWAP4 POP PUSH1 0x7 PUSH1 0x2 ADD PUSH1 0x0 SWAP1 SLOAD SWAP1 PUSH2 0x100 EXP SWAP1 DIV PUSH1 0xFF AND PUSH1 0xA PUSH3 0x65B SWAP2 SWAP1 PUSH3 0x14AE JUMP JUMPDEST PUSH3 0x186A0 PUSH3 0x66B SWAP2 SWAP1 PUSH3 0x14FF JUMP JUMPDEST SWAP3 POP PUSH4 0x1BAF800 SWAP2 POP PUSH2 0x7E7 SWAP1 POP PUSH3 0x68B DUP6 DUP5 PUSH3 0x929 PUSH1 0x20 SHL PUSH1 0x20 SHR JUMP JUMPDEST POP PUSH1 0x0 JUMPDEST PUSH1 0xA DUP2 GT PUSH3 0x71F JUMPI PUSH1 0x0 DUP2 DUP4 PUSH3 0x6A8 SWAP2 SWAP1 PUSH3 0x154A JUMP JUMPDEST SWAP1 POP PUSH1 0x0 PUSH3 0x6C2 DUP3 PUSH3 0xA91 PUSH1 0x20 SHL PUSH3 0x193F OR PUSH1 0x20 SHR JUMP JUMPDEST PUSH1 0x40 MLOAD PUSH1 0x20 ADD PUSH3 0x6D4 SWAP2 SWAP1 PUSH3 0x1643 JUMP JUMPDEST PUSH1 0x40 MLOAD PUSH1 0x20 DUP2 DUP4 SUB SUB DUP2 MSTORE SWAP1 PUSH1 0x40 MSTORE SWAP1 POP PUSH3 0x706 DUP9 DUP9 DUP6 DUP9 PUSH3 0x6F9 SWAP2 SWAP1 PUSH3 0x14FF JUMP JUMPDEST DUP5 PUSH3 0xC0A PUSH1 0x20 SHL PUSH1 0x20 SHR JUMP JUMPDEST POP POP POP DUP1 DUP1 PUSH3 0x716 SWAP1 PUSH3 0x1669 JUMP JUMPDEST SWAP2 POP POP PUSH3 0x68F JUMP JUMPDEST POP PUSH3 0x788 PUSH1 0x7 PUSH1 0x9 ADD PUSH1 0x0 SWAP1 SLOAD SWAP1 PUSH2 0x100 EXP SWAP1 DIV PUSH20 0xFFFFFFFFFFFFFFFFFFFFFFFFFFFFFFFFFFFFFFFF AND PUSH1 0x7 PUSH1 0x2 ADD PUSH1 0x0 SWAP1 SLOAD SWAP1 PUSH2 0x100 EXP SWAP1 DIV PUSH1 0xFF AND PUSH1 0xA PUSH3 0x76B SWAP2 SWAP1 PUSH3 0x14AE JUMP JUMPDEST PUSH4 0xABA9500 PUSH3 0x77C SWAP2 SWAP1 PUSH3 0x14FF JUMP JUMPDEST PUSH3 0x929 PUSH1 0x20 SHL PUSH1 0x20 SHR JUMP JUMPDEST POP POP POP POP POP POP POP PUSH3 0x1889 JUMP JUMPDEST PUSH1 0x0 DUP1 CALLER SWAP1 POP PUSH1 0x0 ISZERO ISZERO PUSH1 0x0 DUP1 DUP4 PUSH20 0xFFFFFFFFFFFFFFFFFFFFFFFFFFFFFFFFFFFFFFFF AND PUSH20 0xFFFFFFFFFFFFFFFFFFFFFFFFFFFFFFFFFFFFFFFF AND DUP2 MSTORE PUSH1 0x20 ADD SWAP1 DUP2 MSTORE PUSH1 0x20 ADD PUSH1 0x0 KECCAK256 PUSH1 0x0 SWAP1 SLOAD SWAP1 PUSH2 0x100 EXP SWAP1 DIV PUSH1 0xFF AND ISZERO ISZERO SUB PUSH3 0x830 JUMPI PUSH1 0x40 MLOAD PUSH32 0x8C379A000000000000000000000000000000000000000000000000000000000 DUP2 MSTORE PUSH1 0x4 ADD PUSH3 0x827 SWAP1 PUSH3 0x1717 JUMP JUMPDEST PUSH1 0x40 MLOAD DUP1 SWAP2 SUB SWAP1 REVERT JUMPDEST PUSH1 0x0 PUSH20 0xFFFFFFFFFFFFFFFFFFFFFFFFFFFFFFFFFFFFFFFF AND DUP4 PUSH20 0xFFFFFFFFFFFFFFFFFFFFFFFFFFFFFFFFFFFFFFFF AND EQ ISZERO DUP1 ISZERO PUSH3 0x8BE JUMPI POP PUSH1 0x1 ISZERO ISZERO PUSH1 0x0 DUP1 DUP6 PUSH20 0xFFFFFFFFFFFFFFFFFFFFFFFFFFFFFFFFFFFFFFFF AND PUSH20 0xFFFFFFFFFFFFFFFFFFFFFFFFFFFFFFFFFFFFFFFF AND DUP2 MSTORE PUSH1 0x20 ADD SWAP1 DUP2 MSTORE PUSH1 0x20 ADD PUSH1 0x0 KECCAK256 PUSH1 0x0 SWAP1 SLOAD SWAP1 PUSH2 0x100 EXP SWAP1 DIV PUSH1 0xFF AND ISZERO ISZERO EQ ISZERO JUMPDEST PUSH3 0x8C8 JUMPI PUSH1 0x0 DUP1 REVERT JUMPDEST PUSH1 0x1 PUSH1 0x0 DUP1 DUP6 PUSH20 0xFFFFFFFFFFFFFFFFFFFFFFFFFFFFFFFFFFFFFFFF AND PUSH20 0xFFFFFFFFFFFFFFFFFFFFFFFFFFFFFFFFFFFFFFFF AND DUP2 MSTORE PUSH1 0x20 ADD SWAP1 DUP2 MSTORE PUSH1 0x20 ADD PUSH1 0x0 KECCAK256 PUSH1 0x0 PUSH2 0x100 EXP DUP2 SLOAD DUP2 PUSH1 0xFF MUL NOT AND SWAP1 DUP4 ISZERO ISZERO MUL OR SWAP1 SSTORE POP PUSH1 0x1 SWAP2 POP POP SWAP2 SWAP1 POP JUMP JUMPDEST PUSH1 0x0 DUP1 PUSH1 0x0 SWAP1 POP PUSH1 0x0 DUP4 LT ISZERO DUP1 ISZERO PUSH3 0x947 JUMPI POP PUSH1 0x7 PUSH1 0x3 ADD SLOAD DUP4 GT ISZERO JUMPDEST DUP1 ISZERO PUSH3 0x981 JUMPI POP PUSH1 0x0 PUSH20 0xFFFFFFFFFFFFFFFFFFFFFFFFFFFFFFFFFFFFFFFF AND DUP5 PUSH20 0xFFFFFFFFFFFFFFFFFFFFFFFFFFFFFFFFFFFFFFFF AND EQ ISZERO JUMPDEST PUSH3 0x98B JUMPI PUSH1 0x0 DUP1 REVERT JUMPDEST DUP3 PUSH1 0x7 PUSH1 0x3 ADD PUSH1 0x0 DUP3 DUP3 SLOAD PUSH3 0x9A2 SWAP2 SWAP1 PUSH3 0x1739 JUMP JUMPDEST SWAP3 POP POP DUP2 SWAP1 SSTORE POP DUP3 PUSH1 0x11 PUSH1 0x0 DUP7 PUSH20 0xFFFFFFFFFFFFFFFFFFFFFFFFFFFFFFFFFFFFFFFF AND PUSH20 0xFFFFFFFFFFFFFFFFFFFFFFFFFFFFFFFFFFFFFFFF AND DUP2 MSTORE PUSH1 0x20 ADD SWAP1 DUP2 MSTORE PUSH1 0x20 ADD PUSH1 0x0 KECCAK256 PUSH1 0x0 DUP3 DUP3 SLOAD PUSH3 0x9FA SWAP2 SWAP1 PUSH3 0x154A JUMP JUMPDEST SWAP3 POP POP DUP2 SWAP1 SSTORE DUP4 PUSH1 0x7 PUSH1 0x4 ADD PUSH1 0x0 DUP3 DUP3 SLOAD PUSH3 0xA17 SWAP2 SWAP1 PUSH3 0x154A JUMP JUMPDEST SWAP3 POP POP DUP2 SWAP1 SSTORE POP POP DUP4 PUSH20 0xFFFFFFFFFFFFFFFFFFFFFFFFFFFFFFFFFFFFFFFF AND DUP2 PUSH20 0xFFFFFFFFFFFFFFFFFFFFFFFFFFFFFFFFFFFFFFFF AND PUSH32 0xDDF252AD1BE2C89B69C2B068FC378DAA952BA7F163C4A11628F55A4DF523B3EF DUP6 PUSH1 0x40 MLOAD PUSH3 0xA7E SWAP2 SWAP1 PUSH3 0x1785 JUMP JUMPDEST PUSH1 0x40 MLOAD DUP1 SWAP2 SUB SWAP1 LOG3 PUSH1 0x1 SWAP2 POP POP SWAP3 SWAP2 POP POP JUMP JUMPDEST PUSH1 0x60 PUSH1 0x0 DUP3 SUB PUSH3 0xADA JUMPI PUSH1 0x40 MLOAD DUP1 PUSH1 0x40 ADD PUSH1 0x40 MSTORE DUP1 PUSH1 0x1 DUP2 MSTORE PUSH1 0x20 ADD PUSH32 0x3000000000000000000000000000000000000000000000000000000000000000 DUP2 MSTORE POP SWAP1 POP PUSH3 0xC05 JUMP JUMPDEST PUSH1 0x0 DUP3 SWAP1 POP PUSH1 0x0 JUMPDEST PUSH1 0x0 DUP3 EQ PUSH3 0xB12 JUMPI DUP1 DUP1 PUSH3 0xAF8 SWAP1 PUSH3 0x1669 JUMP JUMPDEST SWAP2 POP POP PUSH1 0xA DUP3 PUSH3 0xB0A SWAP2 SWAP1 PUSH3 0x17D1 JUMP JUMPDEST SWAP2 POP PUSH3 0xAE2 JUMP JUMPDEST PUSH1 0x0 DUP2 PUSH8 0xFFFFFFFFFFFFFFFF DUP2 GT ISZERO PUSH3 0xB31 JUMPI PUSH3 0xB30 PUSH3 0xFC8 JUMP JUMPDEST JUMPDEST PUSH1 0x40 MLOAD SWAP1 DUP1 DUP3 MSTORE DUP1 PUSH1 0x1F ADD PUSH1 0x1F NOT AND PUSH1 0x20 ADD DUP3 ADD PUSH1 0x40 MSTORE DUP1 ISZERO PUSH3 0xB64 JUMPI DUP2 PUSH1 0x20 ADD PUSH1 0x1 DUP3 MUL DUP1 CALLDATASIZE DUP4 CALLDATACOPY DUP1 DUP3 ADD SWAP2 POP POP SWAP1 POP JUMPDEST POP SWAP1 POP JUMPDEST PUSH1 0x0 DUP6 EQ PUSH3 0xBFE JUMPI PUSH1 0x1 DUP3 PUSH3 0xB80 SWAP2 SWAP1 PUSH3 0x1739 JUMP JUMPDEST SWAP2 POP PUSH1 0x13 DUP6 PUSH3 0xB91 SWAP2 SWAP1 PUSH3 0x1809 JUMP JUMPDEST PUSH1 0x30 PUSH3 0xB9F SWAP2 SWAP1 PUSH3 0x154A JUMP JUMPDEST PUSH1 0xF8 SHL DUP2 DUP4 DUP2 MLOAD DUP2 LT PUSH3 0xBB8 JUMPI PUSH3 0xBB7 PUSH3 0x1841 JUMP JUMPDEST JUMPDEST PUSH1 0x20 ADD ADD SWAP1 PUSH31 0xFFFFFFFFFFFFFFFFFFFFFFFFFFFFFFFFFFFFFFFFFFFFFFFFFFFFFFFFFFFFFF NOT AND SWAP1 DUP2 PUSH1 0x0 BYTE SWAP1 MSTORE8 POP PUSH1 0xA DUP6 PUSH3 0xBF6 SWAP2 SWAP1 PUSH3 0x17D1 JUMP JUMPDEST SWAP5 POP PUSH3 0xB68 JUMP JUMPDEST DUP1 SWAP4 POP POP POP POP JUMPDEST SWAP2 SWAP1 POP JUMP JUMPDEST PUSH1 0x0 DUP1 PUSH1 0x0 SWAP1 POP PUSH1 0x0 PUSH1 0x7 PUSH1 0x9 ADD PUSH1 0x0 SWAP1 SLOAD SWAP1 PUSH2 0x100 EXP SWAP1 DIV PUSH20 0xFFFFFFFFFFFFFFFFFFFFFFFFFFFFFFFFFFFFFFFF AND SWAP1 POP PUSH1 0x1 ISZERO ISZERO PUSH1 0x15 PUSH1 0x0 DUP10 PUSH20 0xFFFFFFFFFFFFFFFFFFFFFFFFFFFFFFFFFFFFFFFF AND PUSH20 0xFFFFFFFFFFFFFFFFFFFFFFFFFFFFFFFFFFFFFFFF AND DUP2 MSTORE PUSH1 0x20 ADD SWAP1 DUP2 MSTORE PUSH1 0x20 ADD PUSH1 0x0 KECCAK256 DUP6 PUSH1 0x40 MLOAD PUSH3 0xC8E SWAP2 SWAP1 PUSH3 0x1870 JUMP JUMPDEST SWAP1 DUP2 MSTORE PUSH1 0x20 ADD PUSH1 0x40 MLOAD DUP1 SWAP2 SUB SWAP1 KECCAK256 PUSH1 0x5 ADD PUSH1 0x0 SWAP1 SLOAD SWAP1 PUSH2 0x100 EXP SWAP1 DIV PUSH1 0xFF AND ISZERO ISZERO EQ ISZERO DUP1 ISZERO PUSH3 0xCC3 JUMPI POP PUSH1 0x7 PUSH1 0x3 ADD SLOAD DUP7 GT ISZERO JUMPDEST DUP1 ISZERO PUSH3 0xCFD JUMPI POP PUSH1 0x0 PUSH20 0xFFFFFFFFFFFFFFFFFFFFFFFFFFFFFFFFFFFFFFFF AND DUP8 PUSH20 0xFFFFFFFFFFFFFFFFFFFFFFFFFFFFFFFFFFFFFFFF AND EQ ISZERO JUMPDEST DUP1 ISZERO PUSH3 0xD0B JUMPI POP PUSH1 0x0 DUP7 LT ISZERO JUMPDEST PUSH3 0xD15 JUMPI PUSH1 0x0 DUP1 REVERT JUMPDEST DUP6 PUSH1 0x7 PUSH1 0x3 ADD PUSH1 0x0 DUP3 DUP3 SLOAD PUSH3 0xD2C SWAP2 SWAP1 PUSH3 0x1739 JUMP JUMPDEST SWAP3 POP POP DUP2 SWAP1 SSTORE DUP7 PUSH1 0x7 PUSH1 0x4 ADD PUSH1 0x0 DUP3 DUP3 SLOAD PUSH3 0xD49 SWAP2 SWAP1 PUSH3 0x154A JUMP JUMPDEST SWAP3 POP POP DUP2 SWAP1 SSTORE DUP8 PUSH1 0x11 PUSH1 0x0 DUP6 PUSH20 0xFFFFFFFFFFFFFFFFFFFFFFFFFFFFFFFFFFFFFFFF AND PUSH20 0xFFFFFFFFFFFFFFFFFFFFFFFFFFFFFFFFFFFFFFFF AND DUP2 MSTORE PUSH1 0x20 ADD SWAP1 DUP2 MSTORE PUSH1 0x20 ADD PUSH1 0x0 KECCAK256 PUSH1 0x0 DUP3 DUP3 SLOAD PUSH3 0xDA0 SWAP2 SWAP1 PUSH3 0x154A JUMP JUMPDEST SWAP3 POP POP DUP2 SWAP1 SSTORE POP POP POP PUSH1 0x0 TIMESTAMP SWAP1 POP PUSH1 0x40 MLOAD DUP1 PUSH1 0xC0 ADD PUSH1 0x40 MSTORE DUP1 DUP7 DUP2 MSTORE PUSH1 0x20 ADD DUP8 DUP2 MSTORE PUSH1 0x20 ADD DUP3 DUP2 MSTORE PUSH1 0x20 ADD DUP8 DUP4 PUSH3 0xDD9 SWAP2 SWAP1 PUSH3 0x154A JUMP JUMPDEST DUP2 MSTORE PUSH1 0x20 ADD DUP9 DUP2 MSTORE PUSH1 0x20 ADD PUSH1 0x1 ISZERO ISZERO DUP2 MSTORE POP PUSH1 0x15 PUSH1 0x0 DUP11 PUSH20 0xFFFFFFFFFFFFFFFFFFFFFFFFFFFFFFFFFFFFFFFF AND PUSH20 0xFFFFFFFFFFFFFFFFFFFFFFFFFFFFFFFFFFFFFFFF AND DUP2 MSTORE PUSH1 0x20 ADD SWAP1 DUP2 MSTORE PUSH1 0x20 ADD PUSH1 0x0 KECCAK256 DUP7 PUSH1 0x40 MLOAD PUSH3 0xE3A SWAP2 SWAP1 PUSH3 0x1870 JUMP JUMPDEST SWAP1 DUP2 MSTORE PUSH1 0x20 ADD PUSH1 0x40 MLOAD DUP1 SWAP2 SUB SWAP1 KECCAK256 PUSH1 0x0 DUP3 ADD MLOAD DUP2 PUSH1 0x0 ADD SWAP1 DUP2 PUSH3 0xE5F SWAP2 SWAP1 PUSH3 0x1237 JUMP JUMPDEST POP PUSH1 0x20 DUP3 ADD MLOAD DUP2 PUSH1 0x1 ADD SSTORE PUSH1 0x40 DUP3 ADD MLOAD DUP2 PUSH1 0x2 ADD SSTORE PUSH1 0x60 DUP3 ADD MLOAD DUP2 PUSH1 0x3 ADD SSTORE PUSH1 0x80 DUP3 ADD MLOAD DUP2 PUSH1 0x4 ADD SSTORE PUSH1 0xA0 DUP3 ADD MLOAD DUP2 PUSH1 0x5 ADD PUSH1 0x0 PUSH2 0x100 EXP DUP2 SLOAD DUP2 PUSH1 0xFF MUL NOT AND SWAP1 DUP4 ISZERO ISZERO MUL OR SWAP1 SSTORE POP SWAP1 POP POP DUP8 PUSH20 0xFFFFFFFFFFFFFFFFFFFFFFFFFFFFFFFFFFFFFFFF AND DUP4 PUSH20 0xFFFFFFFFFFFFFFFFFFFFFFFFFFFFFFFFFFFFFFFF AND PUSH32 0xDDF252AD1BE2C89B69C2B068FC378DAA952BA7F163C4A11628F55A4DF523B3EF DUP10 PUSH1 0x40 MLOAD PUSH3 0xF0A SWAP2 SWAP1 PUSH3 0x1785 JUMP JUMPDEST PUSH1 0x40 MLOAD DUP1 SWAP2 SUB SWAP1 LOG3 PUSH1 0x1 SWAP4 POP POP POP POP SWAP5 SWAP4 POP POP POP POP JUMP JUMPDEST PUSH1 0x0 DUP1 REVERT JUMPDEST PUSH1 0x0 PUSH20 0xFFFFFFFFFFFFFFFFFFFFFFFFFFFFFFFFFFFFFFFF DUP3 AND SWAP1 POP SWAP2 SWAP1 POP JUMP JUMPDEST PUSH1 0x0 PUSH3 0xF53 DUP3 PUSH3 0xF26 JUMP JUMPDEST SWAP1 POP SWAP2 SWAP1 POP JUMP JUMPDEST PUSH3 0xF65 DUP2 PUSH3 0xF46 JUMP JUMPDEST DUP2 EQ PUSH3 0xF71 JUMPI PUSH1 0x0 DUP1 REVERT JUMPDEST POP JUMP JUMPDEST PUSH1 0x0 DUP2 MLOAD SWAP1 POP PUSH3 0xF85 DUP2 PUSH3 0xF5A JUMP JUMPDEST SWAP3 SWAP2 POP POP JUMP JUMPDEST PUSH1 0x0 PUSH1 0x20 DUP3 DUP5 SUB SLT ISZERO PUSH3 0xFA4 JUMPI PUSH3 0xFA3 PUSH3 0xF21 JUMP JUMPDEST JUMPDEST PUSH1 0x0 PUSH3 0xFB4 DUP5 DUP3 DUP6 ADD PUSH3 0xF74 JUMP JUMPDEST SWAP2 POP POP SWAP3 SWAP2 POP POP JUMP JUMPDEST PUSH1 0x0 DUP2 MLOAD SWAP1 POP SWAP2 SWAP1 POP JUMP JUMPDEST PUSH32 0x4E487B7100000000000000000000000000000000000000000000000000000000 PUSH1 0x0 MSTORE PUSH1 0x41 PUSH1 0x4 MSTORE PUSH1 0x24 PUSH1 0x0 REVERT JUMPDEST PUSH32 0x4E487B7100000000000000000000000000000000000000000000000000000000 PUSH1 0x0 MSTORE PUSH1 0x22 PUSH1 0x4 MSTORE PUSH1 0x24 PUSH1 0x0 REVERT JUMPDEST PUSH1 0x0 PUSH1 0x2 DUP3 DIV SWAP1 POP PUSH1 0x1 DUP3 AND DUP1 PUSH3 0x103F JUMPI PUSH1 0x7F DUP3 AND SWAP2 POP JUMPDEST PUSH1 0x20 DUP3 LT DUP2 SUB PUSH3 0x1055 JUMPI PUSH3 0x1054 PUSH3 0xFF7 JUMP JUMPDEST JUMPDEST POP SWAP2 SWAP1 POP JUMP JUMPDEST PUSH1 0x0 DUP2 SWAP1 POP DUP2 PUSH1 0x0 MSTORE PUSH1 0x20 PUSH1 0x0 KECCAK256 SWAP1 POP SWAP2 SWAP1 POP JUMP JUMPDEST PUSH1 0x0 PUSH1 0x20 PUSH1 0x1F DUP4 ADD DIV SWAP1 POP SWAP2 SWAP1 POP JUMP JUMPDEST PUSH1 0x0 DUP3 DUP3 SHL SWAP1 POP SWAP3 SWAP2 POP POP JUMP JUMPDEST PUSH1 0x0 PUSH1 0x8 DUP4 MUL PUSH3 0x10BF PUSH32 0xFFFFFFFFFFFFFFFFFFFFFFFFFFFFFFFFFFFFFFFFFFFFFFFFFFFFFFFFFFFFFFFF DUP3 PUSH3 0x1080 JUMP JUMPDEST PUSH3 0x10CB DUP7 DUP4 PUSH3 0x1080 JUMP JUMPDEST SWAP6 POP DUP1 NOT DUP5 AND SWAP4 POP DUP1 DUP7 AND DUP5 OR SWAP3 POP POP POP SWAP4 SWAP3 POP POP POP JUMP JUMPDEST PUSH1 0x0 DUP2 SWAP1 POP SWAP2 SWAP1 POP JUMP JUMPDEST PUSH1 0x0 DUP2 SWAP1 POP SWAP2 SWAP1 POP JUMP JUMPDEST PUSH1 0x0 PUSH3 0x1118 PUSH3 0x1112 PUSH3 0x110C DUP5 PUSH3 0x10E3 JUMP JUMPDEST PUSH3 0x10ED JUMP JUMPDEST PUSH3 0x10E3 JUMP JUMPDEST SWAP1 POP SWAP2 SWAP1 POP JUMP JUMPDEST PUSH1 0x0 DUP2 SWAP1 POP SWAP2 SWAP1 POP JUMP JUMPDEST PUSH3 0x1134 DUP4 PUSH3 0x10F7 JUMP JUMPDEST PUSH3 0x114C PUSH3 0x1143 DUP3 PUSH3 0x111F JUMP JUMPDEST DUP5 DUP5 SLOAD PUSH3 0x108D JUMP JUMPDEST DUP3 SSTORE POP POP POP POP JUMP JUMPDEST PUSH1 0x0 SWAP1 JUMP JUMPDEST PUSH3 0x1163 PUSH3 0x1154 JUMP JUMPDEST PUSH3 0x1170 DUP2 DUP5 DUP5 PUSH3 0x1129 JUMP JUMPDEST POP POP POP JUMP JUMPDEST JUMPDEST DUP2 DUP2 LT ISZERO PUSH3 0x1198 JUMPI PUSH3 0x118C PUSH1 0x0 DUP3 PUSH3 0x1159 JUMP JUMPDEST PUSH1 0x1 DUP2 ADD SWAP1 POP PUSH3 0x1176 JUMP JUMPDEST POP POP JUMP JUMPDEST PUSH1 0x1F DUP3 GT ISZERO PUSH3 0x11E7 JUMPI PUSH3 0x11B1 DUP2 PUSH3 0x105B JUMP JUMPDEST PUSH3 0x11BC DUP5 PUSH3 0x1070 JUMP JUMPDEST DUP2 ADD PUSH1 0x20 DUP6 LT ISZERO PUSH3 0x11CC JUMPI DUP2 SWAP1 POP JUMPDEST PUSH3 0x11E4 PUSH3 0x11DB DUP6 PUSH3 0x1070 JUMP JUMPDEST DUP4 ADD DUP3 PUSH3 0x1175 JUMP JUMPDEST POP POP JUMPDEST POP POP POP JUMP JUMPDEST PUSH1 0x0 DUP3 DUP3 SHR SWAP1 POP SWAP3 SWAP2 POP POP JUMP JUMPDEST PUSH1 0x0 PUSH3 0x120C PUSH1 0x0 NOT DUP5 PUSH1 0x8 MUL PUSH3 0x11EC JUMP JUMPDEST NOT DUP1 DUP4 AND SWAP2 POP POP SWAP3 SWAP2 POP POP JUMP JUMPDEST PUSH1 0x0 PUSH3 0x1227 DUP4 DUP4 PUSH3 0x11F9 JUMP JUMPDEST SWAP2 POP DUP3 PUSH1 0x2 MUL DUP3 OR SWAP1 POP SWAP3 SWAP2 POP POP JUMP JUMPDEST PUSH3 0x1242 DUP3 PUSH3 0xFBD JUMP JUMPDEST PUSH8 0xFFFFFFFFFFFFFFFF DUP2 GT ISZERO PUSH3 0x125E JUMPI PUSH3 0x125D PUSH3 0xFC8 JUMP JUMPDEST JUMPDEST PUSH3 0x126A DUP3 SLOAD PUSH3 0x1026 JUMP JUMPDEST PUSH3 0x1277 DUP3 DUP3 DUP6 PUSH3 0x119C JUMP JUMPDEST PUSH1 0x0 PUSH1 0x20 SWAP1 POP PUSH1 0x1F DUP4 GT PUSH1 0x1 DUP2 EQ PUSH3 0x12AF JUMPI PUSH1 0x0 DUP5 ISZERO PUSH3 0x129A JUMPI DUP3 DUP8 ADD MLOAD SWAP1 POP JUMPDEST PUSH3 0x12A6 DUP6 DUP3 PUSH3 0x1219 JUMP JUMPDEST DUP7 SSTORE POP PUSH3 0x1316 JUMP JUMPDEST PUSH1 0x1F NOT DUP5 AND PUSH3 0x12BF DUP7 PUSH3 0x105B JUMP JUMPDEST PUSH1 0x0 JUMPDEST DUP3 DUP2 LT ISZERO PUSH3 0x12E9 JUMPI DUP5 DUP10 ADD MLOAD DUP3 SSTORE PUSH1 0x1 DUP3 ADD SWAP2 POP PUSH1 0x20 DUP6 ADD SWAP5 POP PUSH1 0x20 DUP2 ADD SWAP1 POP PUSH3 0x12C2 JUMP JUMPDEST DUP7 DUP4 LT ISZERO PUSH3 0x1309 JUMPI DUP5 DUP10 ADD MLOAD PUSH3 0x1305 PUSH1 0x1F DUP10 AND DUP3 PUSH3 0x11F9 JUMP JUMPDEST DUP4 SSTORE POP JUMPDEST PUSH1 0x1 PUSH1 0x2 DUP9 MUL ADD DUP9 SSTORE POP POP POP JUMPDEST POP POP POP POP POP POP JUMP JUMPDEST PUSH32 0x4E487B7100000000000000000000000000000000000000000000000000000000 PUSH1 0x0 MSTORE PUSH1 0x11 PUSH1 0x4 MSTORE PUSH1 0x24 PUSH1 0x0 REVERT JUMPDEST PUSH1 0x0 DUP2 PUSH1 0x1 SHR SWAP1 POP SWAP2 SWAP1 POP JUMP JUMPDEST PUSH1 0x0 DUP1 DUP3 SWAP2 POP DUP4 SWAP1 POP JUMPDEST PUSH1 0x1 DUP6 GT ISZERO PUSH3 0x13AC JUMPI DUP1 DUP7 DIV DUP2 GT ISZERO PUSH3 0x1384 JUMPI PUSH3 0x1383 PUSH3 0x131E JUMP JUMPDEST JUMPDEST PUSH1 0x1 DUP6 AND ISZERO PUSH3 0x1394 JUMPI DUP1 DUP3 MUL SWAP2 POP JUMPDEST DUP1 DUP2 MUL SWAP1 POP PUSH3 0x13A4 DUP6 PUSH3 0x134D JUMP JUMPDEST SWAP5 POP PUSH3 0x1364 JUMP JUMPDEST SWAP5 POP SWAP5 SWAP3 POP POP POP JUMP JUMPDEST PUSH1 0x0 DUP3 PUSH3 0x13C7 JUMPI PUSH1 0x1 SWAP1 POP PUSH3 0x149A JUMP JUMPDEST DUP2 PUSH3 0x13D7 JUMPI PUSH1 0x0 SWAP1 POP PUSH3 0x149A JUMP JUMPDEST DUP2 PUSH1 0x1 DUP2 EQ PUSH3 0x13F0 JUMPI PUSH1 0x2 DUP2 EQ PUSH3 0x13FB JUMPI PUSH3 0x1431 JUMP JUMPDEST PUSH1 0x1 SWAP2 POP POP PUSH3 0x149A JUMP JUMPDEST PUSH1 0xFF DUP5 GT ISZERO PUSH3 0x1410 JUMPI PUSH3 0x140F PUSH3 0x131E JUMP JUMPDEST JUMPDEST DUP4 PUSH1 0x2 EXP SWAP2 POP DUP5 DUP3 GT ISZERO PUSH3 0x142A JUMPI PUSH3 0x1429 PUSH3 0x131E JUMP JUMPDEST JUMPDEST POP PUSH3 0x149A JUMP JUMPDEST POP PUSH1 0x20 DUP4 LT PUSH2 0x133 DUP4 LT AND PUSH1 0x4E DUP5 LT PUSH1 0xB DUP5 LT AND OR ISZERO PUSH3 0x146B JUMPI DUP3 DUP3 EXP SWAP1 POP DUP4 DUP2 GT ISZERO PUSH3 0x1465 JUMPI PUSH3 0x1464 PUSH3 0x131E JUMP JUMPDEST JUMPDEST PUSH3 0x149A JUMP JUMPDEST PUSH3 0x147A DUP5 DUP5 DUP5 PUSH1 0x1 PUSH3 0x135A JUMP JUMPDEST SWAP3 POP SWAP1 POP DUP2 DUP5 DIV DUP2 GT ISZERO PUSH3 0x1494 JUMPI PUSH3 0x1493 PUSH3 0x131E JUMP JUMPDEST JUMPDEST DUP2 DUP2 MUL SWAP1 POP JUMPDEST SWAP4 SWAP3 POP POP POP JUMP JUMPDEST PUSH1 0x0 PUSH1 0xFF DUP3 AND SWAP1 POP SWAP2 SWAP1 POP JUMP JUMPDEST PUSH1 0x0 PUSH3 0x14BB DUP3 PUSH3 0x10E3 JUMP JUMPDEST SWAP2 POP PUSH3 0x14C8 DUP4 PUSH3 0x14A1 JUMP JUMPDEST SWAP3 POP PUSH3 0x14F7 PUSH32 0xFFFFFFFFFFFFFFFFFFFFFFFFFFFFFFFFFFFFFFFFFFFFFFFFFFFFFFFFFFFFFFFF DUP5 DUP5 PUSH3 0x13B5 JUMP JUMPDEST SWAP1 POP SWAP3 SWAP2 POP POP JUMP JUMPDEST PUSH1 0x0 PUSH3 0x150C DUP3 PUSH3 0x10E3 JUMP JUMPDEST SWAP2 POP PUSH3 0x1519 DUP4 PUSH3 0x10E3 JUMP JUMPDEST SWAP3 POP DUP3 DUP3 MUL PUSH3 0x1529 DUP2 PUSH3 0x10E3 JUMP JUMPDEST SWAP2 POP DUP3 DUP3 DIV DUP5 EQ DUP4 ISZERO OR PUSH3 0x1543 JUMPI PUSH3 0x1542 PUSH3 0x131E JUMP JUMPDEST JUMPDEST POP SWAP3 SWAP2 POP POP JUMP JUMPDEST PUSH1 0x0 PUSH3 0x1557 DUP3 PUSH3 0x10E3 JUMP JUMPDEST SWAP2 POP PUSH3 0x1564 DUP4 PUSH3 0x10E3 JUMP JUMPDEST SWAP3 POP DUP3 DUP3 ADD SWAP1 POP DUP1 DUP3 GT ISZERO PUSH3 0x157F JUMPI PUSH3 0x157E PUSH3 0x131E JUMP JUMPDEST JUMPDEST SWAP3 SWAP2 POP POP JUMP JUMPDEST PUSH1 0x0 DUP2 SWAP1 POP SWAP3 SWAP2 POP POP JUMP JUMPDEST PUSH32 0x5653000000000000000000000000000000000000000000000000000000000000 PUSH1 0x0 DUP3 ADD MSTORE POP JUMP JUMPDEST PUSH1 0x0 PUSH3 0x15C8 PUSH1 0x2 DUP4 PUSH3 0x1585 JUMP JUMPDEST SWAP2 POP PUSH3 0x15D5 DUP3 PUSH3 0x1590 JUMP JUMPDEST PUSH1 0x2 DUP3 ADD SWAP1 POP SWAP2 SWAP1 POP JUMP JUMPDEST PUSH1 0x0 JUMPDEST DUP4 DUP2 LT ISZERO PUSH3 0x1600 JUMPI DUP1 DUP3 ADD MLOAD DUP2 DUP5 ADD MSTORE PUSH1 0x20 DUP2 ADD SWAP1 POP PUSH3 0x15E3 JUMP JUMPDEST PUSH1 0x0 DUP5 DUP5 ADD MSTORE POP POP POP POP JUMP JUMPDEST PUSH1 0x0 PUSH3 0x1619 DUP3 PUSH3 0xFBD JUMP JUMPDEST PUSH3 0x1625 DUP2 DUP6 PUSH3 0x1585 JUMP JUMPDEST SWAP4 POP PUSH3 0x1637 DUP2 DUP6 PUSH1 0x20 DUP7 ADD PUSH3 0x15E0 JUMP JUMPDEST DUP1 DUP5 ADD SWAP2 POP POP SWAP3 SWAP2 POP POP JUMP JUMPDEST PUSH1 0x0 PUSH3 0x1650 DUP3 PUSH3 0x15B9 JUMP JUMPDEST SWAP2 POP PUSH3 0x165E DUP3 DUP5 PUSH3 0x160C JUMP JUMPDEST SWAP2 POP DUP2 SWAP1 POP SWAP3 SWAP2 POP POP JUMP JUMPDEST PUSH1 0x0 PUSH3 0x1676 DUP3 PUSH3 0x10E3 JUMP JUMPDEST SWAP2 POP PUSH32 0xFFFFFFFFFFFFFFFFFFFFFFFFFFFFFFFFFFFFFFFFFFFFFFFFFFFFFFFFFFFFFFFF DUP3 SUB PUSH3 0x16AB JUMPI PUSH3 0x16AA PUSH3 0x131E JUMP JUMPDEST JUMPDEST PUSH1 0x1 DUP3 ADD SWAP1 POP SWAP2 SWAP1 POP JUMP JUMPDEST PUSH1 0x0 DUP3 DUP3 MSTORE PUSH1 0x20 DUP3 ADD SWAP1 POP SWAP3 SWAP2 POP POP JUMP JUMPDEST PUSH32 0x6F6E6C7941646D696E0000000000000000000000000000000000000000000000 PUSH1 0x0 DUP3 ADD MSTORE POP JUMP JUMPDEST PUSH1 0x0 PUSH3 0x16FF PUSH1 0x9 DUP4 PUSH3 0x16B6 JUMP JUMPDEST SWAP2 POP PUSH3 0x170C DUP3 PUSH3 0x16C7 JUMP JUMPDEST PUSH1 0x20 DUP3 ADD SWAP1 POP SWAP2 SWAP1 POP JUMP JUMPDEST PUSH1 0x0 PUSH1 0x20 DUP3 ADD SWAP1 POP DUP2 DUP2 SUB PUSH1 0x0 DUP4 ADD MSTORE PUSH3 0x1732 DUP2 PUSH3 0x16F0 JUMP JUMPDEST SWAP1 POP SWAP2 SWAP1 POP JUMP JUMPDEST PUSH1 0x0 PUSH3 0x1746 DUP3 PUSH3 0x10E3 JUMP JUMPDEST SWAP2 POP PUSH3 0x1753 DUP4 PUSH3 0x10E3 JUMP JUMPDEST SWAP3 POP DUP3 DUP3 SUB SWAP1 POP DUP2 DUP2 GT ISZERO PUSH3 0x176E JUMPI PUSH3 0x176D PUSH3 0x131E JUMP JUMPDEST JUMPDEST SWAP3 SWAP2 POP POP JUMP JUMPDEST PUSH3 0x177F DUP2 PUSH3 0x10E3 JUMP JUMPDEST DUP3 MSTORE POP POP JUMP JUMPDEST PUSH1 0x0 PUSH1 0x20 DUP3 ADD SWAP1 POP PUSH3 0x179C PUSH1 0x0 DUP4 ADD DUP5 PUSH3 0x1774 JUMP JUMPDEST SWAP3 SWAP2 POP POP JUMP JUMPDEST PUSH32 0x4E487B7100000000000000000000000000000000000000000000000000000000 PUSH1 0x0 MSTORE PUSH1 0x12 PUSH1 0x4 MSTORE PUSH1 0x24 PUSH1 0x0 REVERT JUMPDEST PUSH1 0x0 PUSH3 0x17DE DUP3 PUSH3 0x10E3 JUMP JUMPDEST SWAP2 POP PUSH3 0x17EB DUP4 PUSH3 0x10E3 JUMP JUMPDEST SWAP3 POP DUP3 PUSH3 0x17FE JUMPI PUSH3 0x17FD PUSH3 0x17A2 JUMP JUMPDEST JUMPDEST DUP3 DUP3 DIV SWAP1 POP SWAP3 SWAP2 POP POP JUMP JUMPDEST PUSH1 0x0 PUSH3 0x1816 DUP3 PUSH3 0x10E3 JUMP JUMPDEST SWAP2 POP PUSH3 0x1823 DUP4 PUSH3 0x10E3 JUMP JUMPDEST SWAP3 POP DUP3 PUSH3 0x1836 JUMPI PUSH3 0x1835 PUSH3 0x17A2 JUMP JUMPDEST JUMPDEST DUP3 DUP3 MOD SWAP1 POP SWAP3 SWAP2 POP POP JUMP JUMPDEST PUSH32 0x4E487B7100000000000000000000000000000000000000000000000000000000 PUSH1 0x0 MSTORE PUSH1 0x32 PUSH1 0x4 MSTORE PUSH1 0x24 PUSH1 0x0 REVERT JUMPDEST PUSH1 0x0 PUSH3 0x187E DUP3 DUP5 PUSH3 0x160C JUMP JUMPDEST SWAP2 POP DUP2 SWAP1 POP SWAP3 SWAP2 POP POP JUMP JUMPDEST PUSH1 0x80 MLOAD PUSH2 0x3005 PUSH3 0x18A2 PUSH1 0x0 CODECOPY PUSH1 0x0 POP POP PUSH2 0x3005 PUSH1 0x0 RETURN INVALID PUSH1 0x80 PUSH1 0x40 MSTORE CALLVALUE DUP1 ISZERO PUSH2 0x10 JUMPI PUSH1 0x0 DUP1 REVERT JUMPDEST POP PUSH1 0x4 CALLDATASIZE LT PUSH2 0x18E JUMPI PUSH1 0x0 CALLDATALOAD PUSH1 0xE0 SHR DUP1 PUSH4 0x4C496D4F GT PUSH2 0xDE JUMPI DUP1 PUSH4 0xA694FC3A GT PUSH2 0x97 JUMPI DUP1 PUSH4 0xDB3C5FCA GT PUSH2 0x71 JUMPI DUP1 PUSH4 0xDB3C5FCA EQ PUSH2 0x516 JUMPI DUP1 PUSH4 0xDD62ED3E EQ PUSH2 0x546 JUMPI DUP1 PUSH4 0xE4F1B27C EQ PUSH2 0x576 JUMPI DUP1 PUSH4 0xF34E3723 EQ PUSH2 0x5A6 JUMPI PUSH2 0x18E JUMP JUMPDEST DUP1 PUSH4 0xA694FC3A EQ PUSH2 0x498 JUMPI DUP1 PUSH4 0xA9059CBB EQ PUSH2 0x4C8 JUMPI DUP1 PUSH4 0xD5ABEB01 EQ PUSH2 0x4F8 JUMPI PUSH2 0x18E JUMP JUMPDEST DUP1 PUSH4 0x4C496D4F EQ PUSH2 0x3A9 JUMPI DUP1 PUSH4 0x70A08231 EQ PUSH2 0x3CC JUMPI DUP1 PUSH4 0x79EC5D3A EQ PUSH2 0x3FC JUMPI DUP1 PUSH4 0x817B1CD2 EQ PUSH2 0x42C JUMPI DUP1 PUSH4 0x95D89B41 EQ PUSH2 0x44A JUMPI DUP1 PUSH4 0x96B75B1A EQ PUSH2 0x468 JUMPI PUSH2 0x18E JUMP JUMPDEST DUP1 PUSH4 0x23B872DD GT PUSH2 0x14B JUMPI DUP1 PUSH4 0x40C10F19 GT PUSH2 0x125 JUMPI DUP1 PUSH4 0x40C10F19 EQ PUSH2 0x2FB JUMPI DUP1 PUSH4 0x42623360 EQ PUSH2 0x32B JUMPI DUP1 PUSH4 0x42966C68 EQ PUSH2 0x35B JUMPI DUP1 PUSH4 0x4BF365DF EQ PUSH2 0x38B JUMPI PUSH2 0x18E JUMP JUMPDEST DUP1 PUSH4 0x23B872DD EQ PUSH2 0x27D JUMPI DUP1 PUSH4 0x2E17DE78 EQ PUSH2 0x2AD JUMPI DUP1 PUSH4 0x313CE567 EQ PUSH2 0x2DD JUMPI PUSH2 0x18E JUMP JUMPDEST DUP1 PUSH4 0x15AF8EE EQ PUSH2 0x193 JUMPI DUP1 PUSH4 0x6FDDE03 EQ PUSH2 0x1C3 JUMPI DUP1 PUSH4 0x95EA7B3 EQ PUSH2 0x1E1 JUMPI DUP1 PUSH4 0xD15FD77 EQ PUSH2 0x211 JUMPI DUP1 PUSH4 0x18160DDD EQ PUSH2 0x22F JUMPI DUP1 PUSH4 0x1C1B8772 EQ PUSH2 0x24D JUMPI JUMPDEST PUSH1 0x0 DUP1 REVERT JUMPDEST PUSH2 0x1AD PUSH1 0x4 DUP1 CALLDATASIZE SUB DUP2 ADD SWAP1 PUSH2 0x1A8 SWAP2 SWAP1 PUSH2 0x24B2 JUMP JUMPDEST PUSH2 0x5D6 JUMP JUMPDEST PUSH1 0x40 MLOAD PUSH2 0x1BA SWAP2 SWAP1 PUSH2 0x250D JUMP JUMPDEST PUSH1 0x40 MLOAD DUP1 SWAP2 SUB SWAP1 RETURN JUMPDEST PUSH2 0x1CB PUSH2 0x722 JUMP JUMPDEST PUSH1 0x40 MLOAD PUSH2 0x1D8 SWAP2 SWAP1 PUSH2 0x25B8 JUMP JUMPDEST PUSH1 0x40 MLOAD DUP1 SWAP2 SUB SWAP1 RETURN JUMPDEST PUSH2 0x1FB PUSH1 0x4 DUP1 CALLDATASIZE SUB DUP2 ADD SWAP1 PUSH2 0x1F6 SWAP2 SWAP1 PUSH2 0x2638 JUMP JUMPDEST PUSH2 0x7B7 JUMP JUMPDEST PUSH1 0x40 MLOAD PUSH2 0x208 SWAP2 SWAP1 PUSH2 0x250D JUMP JUMPDEST PUSH1 0x40 MLOAD DUP1 SWAP2 SUB SWAP1 RETURN JUMPDEST PUSH2 0x219 PUSH2 0x921 JUMP JUMPDEST PUSH1 0x40 MLOAD PUSH2 0x226 SWAP2 SWAP1 PUSH2 0x2687 JUMP JUMPDEST PUSH1 0x40 MLOAD DUP1 SWAP2 SUB SWAP1 RETURN JUMPDEST PUSH2 0x237 PUSH2 0x92D JUMP JUMPDEST PUSH1 0x40 MLOAD PUSH2 0x244 SWAP2 SWAP1 PUSH2 0x2687 JUMP JUMPDEST PUSH1 0x40 MLOAD DUP1 SWAP2 SUB SWAP1 RETURN JUMPDEST PUSH2 0x267 PUSH1 0x4 DUP1 CALLDATASIZE SUB DUP2 ADD SWAP1 PUSH2 0x262 SWAP2 SWAP1 PUSH2 0x26A2 JUMP JUMPDEST PUSH2 0x93A JUMP JUMPDEST PUSH1 0x40 MLOAD PUSH2 0x274 SWAP2 SWAP1 PUSH2 0x250D JUMP JUMPDEST PUSH1 0x40 MLOAD DUP1 SWAP2 SUB SWAP1 RETURN JUMPDEST PUSH2 0x297 PUSH1 0x4 DUP1 CALLDATASIZE SUB DUP2 ADD SWAP1 PUSH2 0x292 SWAP2 SWAP1 PUSH2 0x26CF JUMP JUMPDEST PUSH2 0xA9C JUMP JUMPDEST PUSH1 0x40 MLOAD PUSH2 0x2A4 SWAP2 SWAP1 PUSH2 0x250D JUMP JUMPDEST PUSH1 0x40 MLOAD DUP1 SWAP2 SUB SWAP1 RETURN JUMPDEST PUSH2 0x2C7 PUSH1 0x4 DUP1 CALLDATASIZE SUB DUP2 ADD SWAP1 PUSH2 0x2C2 SWAP2 SWAP1 PUSH2 0x2722 JUMP JUMPDEST PUSH2 0xC21 JUMP JUMPDEST PUSH1 0x40 MLOAD PUSH2 0x2D4 SWAP2 SWAP1 PUSH2 0x250D JUMP JUMPDEST PUSH1 0x40 MLOAD DUP1 SWAP2 SUB SWAP1 RETURN JUMPDEST PUSH2 0x2E5 PUSH2 0xDB6 JUMP JUMPDEST PUSH1 0x40 MLOAD PUSH2 0x2F2 SWAP2 SWAP1 PUSH2 0x276B JUMP JUMPDEST PUSH1 0x40 MLOAD DUP1 SWAP2 SUB SWAP1 RETURN JUMPDEST PUSH2 0x315 PUSH1 0x4 DUP1 CALLDATASIZE SUB DUP2 ADD SWAP1 PUSH2 0x310 SWAP2 SWAP1 PUSH2 0x2638 JUMP JUMPDEST PUSH2 0xDD0 JUMP JUMPDEST PUSH1 0x40 MLOAD PUSH2 0x322 SWAP2 SWAP1 PUSH2 0x250D JUMP JUMPDEST PUSH1 0x40 MLOAD DUP1 SWAP2 SUB SWAP1 RETURN JUMPDEST PUSH2 0x345 PUSH1 0x4 DUP1 CALLDATASIZE SUB DUP2 ADD SWAP1 PUSH2 0x340 SWAP2 SWAP1 PUSH2 0x26A2 JUMP JUMPDEST PUSH2 0xE7A JUMP JUMPDEST PUSH1 0x40 MLOAD PUSH2 0x352 SWAP2 SWAP1 PUSH2 0x2687 JUMP JUMPDEST PUSH1 0x40 MLOAD DUP1 SWAP2 SUB SWAP1 RETURN JUMPDEST PUSH2 0x375 PUSH1 0x4 DUP1 CALLDATASIZE SUB DUP2 ADD SWAP1 PUSH2 0x370 SWAP2 SWAP1 PUSH2 0x2722 JUMP JUMPDEST PUSH2 0xEC3 JUMP JUMPDEST PUSH1 0x40 MLOAD PUSH2 0x382 SWAP2 SWAP1 PUSH2 0x250D JUMP JUMPDEST PUSH1 0x40 MLOAD DUP1 SWAP2 SUB SWAP1 RETURN JUMPDEST PUSH2 0x393 PUSH2 0xF72 JUMP JUMPDEST PUSH1 0x40 MLOAD PUSH2 0x3A0 SWAP2 SWAP1 PUSH2 0x2687 JUMP JUMPDEST PUSH1 0x40 MLOAD DUP1 SWAP2 SUB SWAP1 RETURN JUMPDEST PUSH2 0x3B1 PUSH2 0xF7F JUMP JUMPDEST PUSH1 0x40 MLOAD PUSH2 0x3C3 SWAP7 SWAP6 SWAP5 SWAP4 SWAP3 SWAP2 SWAP1 PUSH2 0x2786 JUMP JUMPDEST PUSH1 0x40 MLOAD DUP1 SWAP2 SUB SWAP1 RETURN JUMPDEST PUSH2 0x3E6 PUSH1 0x4 DUP1 CALLDATASIZE SUB DUP2 ADD SWAP1 PUSH2 0x3E1 SWAP2 SWAP1 PUSH2 0x26A2 JUMP JUMPDEST PUSH2 0x107B JUMP JUMPDEST PUSH1 0x40 MLOAD PUSH2 0x3F3 SWAP2 SWAP1 PUSH2 0x2687 JUMP JUMPDEST PUSH1 0x40 MLOAD DUP1 SWAP2 SUB SWAP1 RETURN JUMPDEST PUSH2 0x416 PUSH1 0x4 DUP1 CALLDATASIZE SUB DUP2 ADD SWAP1 PUSH2 0x411 SWAP2 SWAP1 PUSH2 0x26A2 JUMP JUMPDEST PUSH2 0x10C4 JUMP JUMPDEST PUSH1 0x40 MLOAD PUSH2 0x423 SWAP2 SWAP1 PUSH2 0x2687 JUMP JUMPDEST PUSH1 0x40 MLOAD DUP1 SWAP2 SUB SWAP1 RETURN JUMPDEST PUSH2 0x434 PUSH2 0x110D JUMP JUMPDEST PUSH1 0x40 MLOAD PUSH2 0x441 SWAP2 SWAP1 PUSH2 0x2687 JUMP JUMPDEST PUSH1 0x40 MLOAD DUP1 SWAP2 SUB SWAP1 RETURN JUMPDEST PUSH2 0x452 PUSH2 0x111A JUMP JUMPDEST PUSH1 0x40 MLOAD PUSH2 0x45F SWAP2 SWAP1 PUSH2 0x25B8 JUMP JUMPDEST PUSH1 0x40 MLOAD DUP1 SWAP2 SUB SWAP1 RETURN JUMPDEST PUSH2 0x482 PUSH1 0x4 DUP1 CALLDATASIZE SUB DUP2 ADD SWAP1 PUSH2 0x47D SWAP2 SWAP1 PUSH2 0x26A2 JUMP JUMPDEST PUSH2 0x11AF JUMP JUMPDEST PUSH1 0x40 MLOAD PUSH2 0x48F SWAP2 SWAP1 PUSH2 0x250D JUMP JUMPDEST PUSH1 0x40 MLOAD DUP1 SWAP2 SUB SWAP1 RETURN JUMPDEST PUSH2 0x4B2 PUSH1 0x4 DUP1 CALLDATASIZE SUB DUP2 ADD SWAP1 PUSH2 0x4AD SWAP2 SWAP1 PUSH2 0x2722 JUMP JUMPDEST PUSH2 0x133E JUMP JUMPDEST PUSH1 0x40 MLOAD PUSH2 0x4BF SWAP2 SWAP1 PUSH2 0x250D JUMP JUMPDEST PUSH1 0x40 MLOAD DUP1 SWAP2 SUB SWAP1 RETURN JUMPDEST PUSH2 0x4E2 PUSH1 0x4 DUP1 CALLDATASIZE SUB DUP2 ADD SWAP1 PUSH2 0x4DD SWAP2 SWAP1 PUSH2 0x2638 JUMP JUMPDEST PUSH2 0x1487 JUMP JUMPDEST PUSH1 0x40 MLOAD PUSH2 0x4EF SWAP2 SWAP1 PUSH2 0x250D JUMP JUMPDEST PUSH1 0x40 MLOAD DUP1 SWAP2 SUB SWAP1 RETURN JUMPDEST PUSH2 0x500 PUSH2 0x14C3 JUMP JUMPDEST PUSH1 0x40 MLOAD PUSH2 0x50D SWAP2 SWAP1 PUSH2 0x2687 JUMP JUMPDEST PUSH1 0x40 MLOAD DUP1 SWAP2 SUB SWAP1 RETURN JUMPDEST PUSH2 0x530 PUSH1 0x4 DUP1 CALLDATASIZE SUB DUP2 ADD SWAP1 PUSH2 0x52B SWAP2 SWAP1 PUSH2 0x26A2 JUMP JUMPDEST PUSH2 0x14D0 JUMP JUMPDEST PUSH1 0x40 MLOAD PUSH2 0x53D SWAP2 SWAP1 PUSH2 0x250D JUMP JUMPDEST PUSH1 0x40 MLOAD DUP1 SWAP2 SUB SWAP1 RETURN JUMPDEST PUSH2 0x560 PUSH1 0x4 DUP1 CALLDATASIZE SUB DUP2 ADD SWAP1 PUSH2 0x55B SWAP2 SWAP1 PUSH2 0x27E7 JUMP JUMPDEST PUSH2 0x165F JUMP JUMPDEST PUSH1 0x40 MLOAD PUSH2 0x56D SWAP2 SWAP1 PUSH2 0x2687 JUMP JUMPDEST PUSH1 0x40 MLOAD DUP1 SWAP2 SUB SWAP1 RETURN JUMPDEST PUSH2 0x590 PUSH1 0x4 DUP1 CALLDATASIZE SUB DUP2 ADD SWAP1 PUSH2 0x58B SWAP2 SWAP1 PUSH2 0x295C JUMP JUMPDEST PUSH2 0x16E6 JUMP JUMPDEST PUSH1 0x40 MLOAD PUSH2 0x59D SWAP2 SWAP1 PUSH2 0x250D JUMP JUMPDEST PUSH1 0x40 MLOAD DUP1 SWAP2 SUB SWAP1 RETURN JUMPDEST PUSH2 0x5C0 PUSH1 0x4 DUP1 CALLDATASIZE SUB DUP2 ADD SWAP1 PUSH2 0x5BB SWAP2 SWAP1 PUSH2 0x29DF JUMP JUMPDEST PUSH2 0x1794 JUMP JUMPDEST PUSH1 0x40 MLOAD PUSH2 0x5CD SWAP2 SWAP1 PUSH2 0x250D JUMP JUMPDEST PUSH1 0x40 MLOAD DUP1 SWAP2 SUB SWAP1 RETURN JUMPDEST PUSH1 0x0 DUP1 CALLER SWAP1 POP PUSH1 0x0 ISZERO ISZERO PUSH1 0x0 DUP1 DUP4 PUSH20 0xFFFFFFFFFFFFFFFFFFFFFFFFFFFFFFFFFFFFFFFF AND PUSH20 0xFFFFFFFFFFFFFFFFFFFFFFFFFFFFFFFFFFFFFFFF AND DUP2 MSTORE PUSH1 0x20 ADD SWAP1 DUP2 MSTORE PUSH1 0x20 ADD PUSH1 0x0 KECCAK256 PUSH1 0x0 SWAP1 SLOAD SWAP1 PUSH2 0x100 EXP SWAP1 DIV PUSH1 0xFF AND ISZERO ISZERO SUB PUSH2 0x66E JUMPI PUSH1 0x40 MLOAD PUSH32 0x8C379A000000000000000000000000000000000000000000000000000000000 DUP2 MSTORE PUSH1 0x4 ADD PUSH2 0x665 SWAP1 PUSH2 0x2A74 JUMP JUMPDEST PUSH1 0x40 MLOAD DUP1 SWAP2 SUB SWAP1 REVERT JUMPDEST PUSH1 0x0 PUSH1 0x1 PUSH1 0x0 ADD SLOAD SWAP1 POP PUSH1 0x0 PUSH1 0x1 DUP1 ADD SLOAD SWAP1 POP PUSH1 0x0 PUSH1 0x1 PUSH1 0x2 ADD SLOAD SWAP1 POP PUSH1 0x0 PUSH1 0x1 PUSH1 0x3 ADD SLOAD SWAP1 POP DUP4 DUP9 LT ISZERO DUP1 ISZERO PUSH2 0x6A5 JUMPI POP DUP2 DUP9 GT ISZERO JUMPDEST DUP1 ISZERO PUSH2 0x6B1 JUMPI POP DUP3 DUP8 LT ISZERO JUMPDEST DUP1 ISZERO PUSH2 0x6BD JUMPI POP DUP1 DUP8 GT ISZERO JUMPDEST PUSH2 0x6C6 JUMPI PUSH1 0x0 DUP1 REVERT JUMPDEST DUP8 PUSH1 0x1 PUSH1 0x4 ADD DUP2 SWAP1 SSTORE POP DUP7 PUSH1 0x1 PUSH1 0x5 ADD DUP2 SWAP1 SSTORE POP PUSH32 0xF710D5C0FED44ACA6B7E44715976F68B87187F4A4D505F8C14731A5C3906E9B9 DUP9 DUP9 PUSH1 0x40 MLOAD PUSH2 0x70B SWAP3 SWAP2 SWAP1 PUSH2 0x2A94 JUMP JUMPDEST PUSH1 0x40 MLOAD DUP1 SWAP2 SUB SWAP1 LOG1 PUSH1 0x1 SWAP6 POP POP POP POP POP POP SWAP3 SWAP2 POP POP JUMP JUMPDEST PUSH1 0x60 PUSH1 0x7 PUSH1 0x0 ADD DUP1 SLOAD PUSH2 0x734 SWAP1 PUSH2 0x2AEC JUMP JUMPDEST DUP1 PUSH1 0x1F ADD PUSH1 0x20 DUP1 SWAP2 DIV MUL PUSH1 0x20 ADD PUSH1 0x40 MLOAD SWAP1 DUP2 ADD PUSH1 0x40 MSTORE DUP1 SWAP3 SWAP2 SWAP1 DUP2 DUP2 MSTORE PUSH1 0x20 ADD DUP3 DUP1 SLOAD PUSH2 0x760 SWAP1 PUSH2 0x2AEC JUMP JUMPDEST DUP1 ISZERO PUSH2 0x7AD JUMPI DUP1 PUSH1 0x1F LT PUSH2 0x782 JUMPI PUSH2 0x100 DUP1 DUP4 SLOAD DIV MUL DUP4 MSTORE SWAP2 PUSH1 0x20 ADD SWAP2 PUSH2 0x7AD JUMP JUMPDEST DUP3 ADD SWAP2 SWAP1 PUSH1 0x0 MSTORE PUSH1 0x20 PUSH1 0x0 KECCAK256 SWAP1 JUMPDEST DUP2 SLOAD DUP2 MSTORE SWAP1 PUSH1 0x1 ADD SWAP1 PUSH1 0x20 ADD DUP1 DUP4 GT PUSH2 0x790 JUMPI DUP3 SWAP1 SUB PUSH1 0x1F AND DUP3 ADD SWAP2 JUMPDEST POP POP POP POP POP SWAP1 POP SWAP1 JUMP JUMPDEST PUSH1 0x0 DUP1 CALLER SWAP1 POP PUSH1 0x0 PUSH20 0xFFFFFFFFFFFFFFFFFFFFFFFFFFFFFFFFFFFFFFFF AND DUP2 PUSH20 0xFFFFFFFFFFFFFFFFFFFFFFFFFFFFFFFFFFFFFFFF AND EQ ISZERO DUP1 ISZERO PUSH2 0x827 JUMPI POP PUSH1 0x0 PUSH20 0xFFFFFFFFFFFFFFFFFFFFFFFFFFFFFFFFFFFFFFFF AND DUP5 PUSH20 0xFFFFFFFFFFFFFFFFFFFFFFFFFFFFFFFFFFFFFFFF AND EQ ISZERO JUMPDEST PUSH2 0x830 JUMPI PUSH1 0x0 DUP1 REVERT JUMPDEST DUP3 PUSH1 0x14 PUSH1 0x0 DUP4 PUSH20 0xFFFFFFFFFFFFFFFFFFFFFFFFFFFFFFFFFFFFFFFF AND PUSH20 0xFFFFFFFFFFFFFFFFFFFFFFFFFFFFFFFFFFFFFFFF AND DUP2 MSTORE PUSH1 0x20 ADD SWAP1 DUP2 MSTORE PUSH1 0x20 ADD PUSH1 0x0 KECCAK256 PUSH1 0x0 DUP7 PUSH20 0xFFFFFFFFFFFFFFFFFFFFFFFFFFFFFFFFFFFFFFFF AND PUSH20 0xFFFFFFFFFFFFFFFFFFFFFFFFFFFFFFFFFFFFFFFF AND DUP2 MSTORE PUSH1 0x20 ADD SWAP1 DUP2 MSTORE PUSH1 0x20 ADD PUSH1 0x0 KECCAK256 DUP2 SWAP1 SSTORE POP DUP4 PUSH20 0xFFFFFFFFFFFFFFFFFFFFFFFFFFFFFFFFFFFFFFFF AND DUP2 PUSH20 0xFFFFFFFFFFFFFFFFFFFFFFFFFFFFFFFFFFFFFFFF AND PUSH32 0x8C5BE1E5EBEC7D5BD14F71427D1E84F3DD0314C0F7B2291E5B200AC8C7C3B925 DUP6 PUSH1 0x40 MLOAD PUSH2 0x90E SWAP2 SWAP1 PUSH2 0x2687 JUMP JUMPDEST PUSH1 0x40 MLOAD DUP1 SWAP2 SUB SWAP1 LOG3 PUSH1 0x1 SWAP2 POP POP SWAP3 SWAP2 POP POP JUMP JUMPDEST PUSH1 0x0 PUSH1 0x7 DUP1 ADD SLOAD SWAP1 POP SWAP1 JUMP JUMPDEST PUSH1 0x0 PUSH1 0x7 PUSH1 0x4 ADD SLOAD SWAP1 POP SWAP1 JUMP JUMPDEST PUSH1 0x0 DUP1 CALLER SWAP1 POP PUSH1 0x0 ISZERO ISZERO PUSH1 0x0 DUP1 DUP4 PUSH20 0xFFFFFFFFFFFFFFFFFFFFFFFFFFFFFFFFFFFFFFFF AND PUSH20 0xFFFFFFFFFFFFFFFFFFFFFFFFFFFFFFFFFFFFFFFF AND DUP2 MSTORE PUSH1 0x20 ADD SWAP1 DUP2 MSTORE PUSH1 0x20 ADD PUSH1 0x0 KECCAK256 PUSH1 0x0 SWAP1 SLOAD SWAP1 PUSH2 0x100 EXP SWAP1 DIV PUSH1 0xFF AND ISZERO ISZERO SUB PUSH2 0x9D2 JUMPI PUSH1 0x40 MLOAD PUSH32 0x8C379A000000000000000000000000000000000000000000000000000000000 DUP2 MSTORE PUSH1 0x4 ADD PUSH2 0x9C9 SWAP1 PUSH2 0x2A74 JUMP JUMPDEST PUSH1 0x40 MLOAD DUP1 SWAP2 SUB SWAP1 REVERT JUMPDEST PUSH1 0x0 PUSH20 0xFFFFFFFFFFFFFFFFFFFFFFFFFFFFFFFFFFFFFFFF AND DUP4 PUSH20 0xFFFFFFFFFFFFFFFFFFFFFFFFFFFFFFFFFFFFFFFF AND SUB PUSH2 0xA0B JUMPI PUSH1 0x0 DUP1 REVERT JUMPDEST DUP3 PUSH1 0x7 PUSH1 0x9 ADD PUSH1 0x0 PUSH2 0x100 EXP DUP2 SLOAD DUP2 PUSH20 0xFFFFFFFFFFFFFFFFFFFFFFFFFFFFFFFFFFFFFFFF MUL NOT AND SWAP1 DUP4 PUSH20 0xFFFFFFFFFFFFFFFFFFFFFFFFFFFFFFFFFFFFFFFF AND MUL OR SWAP1 SSTORE POP DUP3 PUSH20 0xFFFFFFFFFFFFFFFFFFFFFFFFFFFFFFFFFFFFFFFF AND PUSH32 0xD456720FD185D4060F5CEA4D82775D2AF95048C1E10F227EC35BAE950A4BE2A8 PUSH1 0x40 MLOAD PUSH1 0x40 MLOAD DUP1 SWAP2 SUB SWAP1 LOG2 PUSH1 0x1 SWAP2 POP POP SWAP2 SWAP1 POP JUMP JUMPDEST PUSH1 0x0 DUP1 PUSH1 0x14 PUSH1 0x0 DUP7 PUSH20 0xFFFFFFFFFFFFFFFFFFFFFFFFFFFFFFFFFFFFFFFF AND PUSH20 0xFFFFFFFFFFFFFFFFFFFFFFFFFFFFFFFFFFFFFFFF AND DUP2 MSTORE PUSH1 0x20 ADD SWAP1 DUP2 MSTORE PUSH1 0x20 ADD PUSH1 0x0 KECCAK256 PUSH1 0x0 CALLER PUSH20 0xFFFFFFFFFFFFFFFFFFFFFFFFFFFFFFFFFFFFFFFF AND PUSH20 0xFFFFFFFFFFFFFFFFFFFFFFFFFFFFFFFFFFFFFFFF AND DUP2 MSTORE PUSH1 0x20 ADD SWAP1 DUP2 MSTORE PUSH1 0x20 ADD PUSH1 0x0 KECCAK256 SLOAD SWAP1 POP PUSH32 0xFFFFFFFFFFFFFFFFFFFFFFFFFFFFFFFFFFFFFFFFFFFFFFFFFFFFFFFFFFFFFFFF DUP2 EQ ISZERO DUP1 ISZERO PUSH2 0xB4E JUMPI POP DUP3 DUP2 LT ISZERO JUMPDEST PUSH2 0xB57 JUMPI PUSH1 0x0 DUP1 REVERT JUMPDEST DUP3 PUSH1 0x14 PUSH1 0x0 DUP8 PUSH20 0xFFFFFFFFFFFFFFFFFFFFFFFFFFFFFFFFFFFFFFFF AND PUSH20 0xFFFFFFFFFFFFFFFFFFFFFFFFFFFFFFFFFFFFFFFF AND DUP2 MSTORE PUSH1 0x20 ADD SWAP1 DUP2 MSTORE PUSH1 0x20 ADD PUSH1 0x0 KECCAK256 PUSH1 0x0 CALLER PUSH20 0xFFFFFFFFFFFFFFFFFFFFFFFFFFFFFFFFFFFFFFFF AND PUSH20 0xFFFFFFFFFFFFFFFFFFFFFFFFFFFFFFFFFFFFFFFF AND DUP2 MSTORE PUSH1 0x20 ADD SWAP1 DUP2 MSTORE PUSH1 0x20 ADD PUSH1 0x0 KECCAK256 PUSH1 0x0 DUP3 DUP3 SLOAD PUSH2 0xBE3 SWAP2 SWAP1 PUSH2 0x2B4C JUMP JUMPDEST SWAP3 POP POP DUP2 SWAP1 SSTORE POP PUSH1 0x0 PUSH1 0x1 PUSH1 0x4 ADD SLOAD SWAP1 POP PUSH1 0x0 PUSH1 0x1 PUSH1 0x5 ADD SLOAD SWAP1 POP PUSH1 0x0 DUP1 PUSH2 0xC0E DUP10 DUP10 DUP10 DUP8 DUP8 PUSH2 0x1A9F JUMP JUMPDEST SWAP2 POP SWAP2 POP DUP2 SWAP6 POP POP POP POP POP POP SWAP4 SWAP3 POP POP POP JUMP JUMPDEST PUSH1 0x0 DUP1 PUSH1 0x7 PUSH1 0x9 ADD PUSH1 0x0 SWAP1 SLOAD SWAP1 PUSH2 0x100 EXP SWAP1 DIV PUSH20 0xFFFFFFFFFFFFFFFFFFFFFFFFFFFFFFFFFFFFFFFF AND SWAP1 POP PUSH1 0x0 CALLER SWAP1 POP PUSH1 0x0 PUSH1 0x1 PUSH1 0x4 ADD SLOAD SWAP1 POP PUSH1 0x0 PUSH1 0x1 PUSH1 0x5 ADD SLOAD SWAP1 POP PUSH1 0x12 PUSH1 0x0 DUP5 PUSH20 0xFFFFFFFFFFFFFFFFFFFFFFFFFFFFFFFFFFFFFFFF AND PUSH20 0xFFFFFFFFFFFFFFFFFFFFFFFFFFFFFFFFFFFFFFFF AND DUP2 MSTORE PUSH1 0x20 ADD SWAP1 DUP2 MSTORE PUSH1 0x20 ADD PUSH1 0x0 KECCAK256 SLOAD DUP7 GT ISZERO PUSH2 0xCB1 JUMPI PUSH1 0x0 DUP1 REVERT JUMPDEST PUSH1 0x0 DUP1 PUSH2 0xCC1 DUP7 DUP7 DUP11 DUP8 DUP8 PUSH2 0x1A9F JUMP JUMPDEST SWAP2 POP SWAP2 POP DUP8 PUSH1 0x12 PUSH1 0x0 DUP8 PUSH20 0xFFFFFFFFFFFFFFFFFFFFFFFFFFFFFFFFFFFFFFFF AND PUSH20 0xFFFFFFFFFFFFFFFFFFFFFFFFFFFFFFFFFFFFFFFF AND DUP2 MSTORE PUSH1 0x20 ADD SWAP1 DUP2 MSTORE PUSH1 0x20 ADD PUSH1 0x0 KECCAK256 PUSH1 0x0 DUP3 DUP3 SLOAD PUSH2 0xD14 SWAP2 SWAP1 PUSH2 0x2B4C JUMP JUMPDEST SWAP3 POP POP DUP2 SWAP1 SSTORE POP DUP8 PUSH1 0x13 PUSH1 0x0 DUP8 PUSH20 0xFFFFFFFFFFFFFFFFFFFFFFFFFFFFFFFFFFFFFFFF AND PUSH20 0xFFFFFFFFFFFFFFFFFFFFFFFFFFFFFFFFFFFFFFFF AND DUP2 MSTORE PUSH1 0x20 ADD SWAP1 DUP2 MSTORE PUSH1 0x20 ADD PUSH1 0x0 KECCAK256 PUSH1 0x0 DUP3 DUP3 SLOAD PUSH2 0xD6A SWAP2 SWAP1 PUSH2 0x2B4C JUMP JUMPDEST SWAP3 POP POP DUP2 SWAP1 SSTORE POP DUP8 PUSH1 0x7 PUSH1 0x5 ADD PUSH1 0x0 DUP3 DUP3 SLOAD PUSH2 0xD86 SWAP2 SWAP1 PUSH2 0x2B4C JUMP JUMPDEST SWAP3 POP POP DUP2 SWAP1 SSTORE POP DUP8 PUSH1 0x7 DUP1 ADD PUSH1 0x0 DUP3 DUP3 SLOAD PUSH2 0xDA1 SWAP2 SWAP1 PUSH2 0x2B4C JUMP JUMPDEST SWAP3 POP POP DUP2 SWAP1 SSTORE POP DUP2 SWAP7 POP POP POP POP POP POP POP SWAP2 SWAP1 POP JUMP JUMPDEST PUSH1 0x0 PUSH1 0x7 PUSH1 0x2 ADD PUSH1 0x0 SWAP1 SLOAD SWAP1 PUSH2 0x100 EXP SWAP1 DIV PUSH1 0xFF AND SWAP1 POP SWAP1 JUMP JUMPDEST PUSH1 0x0 DUP1 CALLER SWAP1 POP PUSH1 0x0 ISZERO ISZERO PUSH1 0x0 DUP1 DUP4 PUSH20 0xFFFFFFFFFFFFFFFFFFFFFFFFFFFFFFFFFFFFFFFF AND PUSH20 0xFFFFFFFFFFFFFFFFFFFFFFFFFFFFFFFFFFFFFFFF AND DUP2 MSTORE PUSH1 0x20 ADD SWAP1 DUP2 MSTORE PUSH1 0x20 ADD PUSH1 0x0 KECCAK256 PUSH1 0x0 SWAP1 SLOAD SWAP1 PUSH2 0x100 EXP SWAP1 DIV PUSH1 0xFF AND ISZERO ISZERO SUB PUSH2 0xE68 JUMPI PUSH1 0x40 MLOAD PUSH32 0x8C379A000000000000000000000000000000000000000000000000000000000 DUP2 MSTORE PUSH1 0x4 ADD PUSH2 0xE5F SWAP1 PUSH2 0x2A74 JUMP JUMPDEST PUSH1 0x40 MLOAD DUP1 SWAP2 SUB SWAP1 REVERT JUMPDEST PUSH2 0xE72 DUP5 DUP5 PUSH2 0x1ECC JUMP JUMPDEST POP POP SWAP3 SWAP2 POP POP JUMP JUMPDEST PUSH1 0x0 PUSH1 0x12 PUSH1 0x0 DUP4 PUSH20 0xFFFFFFFFFFFFFFFFFFFFFFFFFFFFFFFFFFFFFFFF AND PUSH20 0xFFFFFFFFFFFFFFFFFFFFFFFFFFFFFFFFFFFFFFFF AND DUP2 MSTORE PUSH1 0x20 ADD SWAP1 DUP2 MSTORE PUSH1 0x20 ADD PUSH1 0x0 KECCAK256 SLOAD SWAP1 POP SWAP2 SWAP1 POP JUMP JUMPDEST PUSH1 0x0 DUP1 CALLER SWAP1 POP PUSH1 0x0 ISZERO ISZERO PUSH1 0x0 DUP1 DUP4 PUSH20 0xFFFFFFFFFFFFFFFFFFFFFFFFFFFFFFFFFFFFFFFF AND PUSH20 0xFFFFFFFFFFFFFFFFFFFFFFFFFFFFFFFFFFFFFFFF AND DUP2 MSTORE PUSH1 0x20 ADD SWAP1 DUP2 MSTORE PUSH1 0x20 ADD PUSH1 0x0 KECCAK256 PUSH1 0x0 SWAP1 SLOAD SWAP1 PUSH2 0x100 EXP SWAP1 DIV PUSH1 0xFF AND ISZERO ISZERO SUB PUSH2 0xF5B JUMPI PUSH1 0x40 MLOAD PUSH32 0x8C379A000000000000000000000000000000000000000000000000000000000 DUP2 MSTORE PUSH1 0x4 ADD PUSH2 0xF52 SWAP1 PUSH2 0x2A74 JUMP JUMPDEST PUSH1 0x40 MLOAD DUP1 SWAP2 SUB SWAP1 REVERT JUMPDEST PUSH1 0x0 CALLER SWAP1 POP PUSH2 0xF6A DUP2 DUP6 PUSH2 0x2029 JUMP JUMPDEST POP POP POP SWAP2 SWAP1 POP JUMP JUMPDEST PUSH1 0x0 PUSH1 0x7 PUSH1 0x3 ADD SLOAD SWAP1 POP SWAP1 JUMP JUMPDEST PUSH1 0x0 DUP1 PUSH1 0x0 DUP1 PUSH1 0x0 DUP1 PUSH1 0x0 CALLER SWAP1 POP PUSH1 0x0 ISZERO ISZERO PUSH1 0x0 DUP1 DUP4 PUSH20 0xFFFFFFFFFFFFFFFFFFFFFFFFFFFFFFFFFFFFFFFF AND PUSH20 0xFFFFFFFFFFFFFFFFFFFFFFFFFFFFFFFFFFFFFFFF AND DUP2 MSTORE PUSH1 0x20 ADD SWAP1 DUP2 MSTORE PUSH1 0x20 ADD PUSH1 0x0 KECCAK256 PUSH1 0x0 SWAP1 SLOAD SWAP1 PUSH2 0x100 EXP SWAP1 DIV PUSH1 0xFF AND ISZERO ISZERO SUB PUSH2 0x101F JUMPI PUSH1 0x40 MLOAD PUSH32 0x8C379A000000000000000000000000000000000000000000000000000000000 DUP2 MSTORE PUSH1 0x4 ADD PUSH2 0x1016 SWAP1 PUSH2 0x2A74 JUMP JUMPDEST PUSH1 0x40 MLOAD DUP1 SWAP2 SUB SWAP1 REVERT JUMPDEST PUSH1 0x0 PUSH1 0x1 PUSH1 0x4 ADD SLOAD SWAP1 POP PUSH1 0x0 PUSH1 0x1 PUSH1 0x5 ADD SLOAD SWAP1 POP PUSH1 0x0 PUSH1 0x1 PUSH1 0x0 ADD SLOAD SWAP1 POP PUSH1 0x0 PUSH1 0x1 DUP1 ADD SLOAD SWAP1 POP PUSH1 0x0 PUSH1 0x1 PUSH1 0x2 ADD SLOAD SWAP1 POP PUSH1 0x0 PUSH1 0x1 PUSH1 0x3 ADD SLOAD SWAP1 POP DUP6 DUP6 DUP6 DUP6 DUP6 DUP6 SWAP13 POP SWAP13 POP SWAP13 POP SWAP13 POP SWAP13 POP SWAP13 POP POP POP POP POP POP POP POP SWAP1 SWAP2 SWAP3 SWAP4 SWAP5 SWAP6 JUMP JUMPDEST PUSH1 0x0 PUSH1 0x11 PUSH1 0x0 DUP4 PUSH20 0xFFFFFFFFFFFFFFFFFFFFFFFFFFFFFFFFFFFFFFFF AND PUSH20 0xFFFFFFFFFFFFFFFFFFFFFFFFFFFFFFFFFFFFFFFF AND DUP2 MSTORE PUSH1 0x20 ADD SWAP1 DUP2 MSTORE PUSH1 0x20 ADD PUSH1 0x0 KECCAK256 SLOAD SWAP1 POP SWAP2 SWAP1 POP JUMP JUMPDEST PUSH1 0x0 PUSH1 0x13 PUSH1 0x0 DUP4 PUSH20 0xFFFFFFFFFFFFFFFFFFFFFFFFFFFFFFFFFFFFFFFF AND PUSH20 0xFFFFFFFFFFFFFFFFFFFFFFFFFFFFFFFFFFFFFFFF AND DUP2 MSTORE PUSH1 0x20 ADD SWAP1 DUP2 MSTORE PUSH1 0x20 ADD PUSH1 0x0 KECCAK256 SLOAD SWAP1 POP SWAP2 SWAP1 POP JUMP JUMPDEST PUSH1 0x0 PUSH1 0x7 PUSH1 0x5 ADD SLOAD SWAP1 POP SWAP1 JUMP JUMPDEST PUSH1 0x60 PUSH1 0x7 PUSH1 0x1 ADD DUP1 SLOAD PUSH2 0x112C SWAP1 PUSH2 0x2AEC JUMP JUMPDEST DUP1 PUSH1 0x1F ADD PUSH1 0x20 DUP1 SWAP2 DIV MUL PUSH1 0x20 ADD PUSH1 0x40 MLOAD SWAP1 DUP2 ADD PUSH1 0x40 MSTORE DUP1 SWAP3 SWAP2 SWAP1 DUP2 DUP2 MSTORE PUSH1 0x20 ADD DUP3 DUP1 SLOAD PUSH2 0x1158 SWAP1 PUSH2 0x2AEC JUMP JUMPDEST DUP1 ISZERO PUSH2 0x11A5 JUMPI DUP1 PUSH1 0x1F LT PUSH2 0x117A JUMPI PUSH2 0x100 DUP1 DUP4 SLOAD DIV MUL DUP4 MSTORE SWAP2 PUSH1 0x20 ADD SWAP2 PUSH2 0x11A5 JUMP JUMPDEST DUP3 ADD SWAP2 SWAP1 PUSH1 0x0 MSTORE PUSH1 0x20 PUSH1 0x0 KECCAK256 SWAP1 JUMPDEST DUP2 SLOAD DUP2 MSTORE SWAP1 PUSH1 0x1 ADD SWAP1 PUSH1 0x20 ADD DUP1 DUP4 GT PUSH2 0x1188 JUMPI DUP3 SWAP1 SUB PUSH1 0x1F AND DUP3 ADD SWAP2 JUMPDEST POP POP POP POP POP SWAP1 POP SWAP1 JUMP JUMPDEST PUSH1 0x0 DUP1 CALLER SWAP1 POP PUSH1 0x0 ISZERO ISZERO PUSH1 0x0 DUP1 DUP4 PUSH20 0xFFFFFFFFFFFFFFFFFFFFFFFFFFFFFFFFFFFFFFFF AND PUSH20 0xFFFFFFFFFFFFFFFFFFFFFFFFFFFFFFFFFFFFFFFF AND DUP2 MSTORE PUSH1 0x20 ADD SWAP1 DUP2 MSTORE PUSH1 0x20 ADD PUSH1 0x0 KECCAK256 PUSH1 0x0 SWAP1 SLOAD SWAP1 PUSH2 0x100 EXP SWAP1 DIV PUSH1 0xFF AND ISZERO ISZERO SUB PUSH2 0x1247 JUMPI PUSH1 0x40 MLOAD PUSH32 0x8C379A000000000000000000000000000000000000000000000000000000000 DUP2 MSTORE PUSH1 0x4 ADD PUSH2 0x123E SWAP1 PUSH2 0x2A74 JUMP JUMPDEST PUSH1 0x40 MLOAD DUP1 SWAP2 SUB SWAP1 REVERT JUMPDEST PUSH1 0x0 PUSH20 0xFFFFFFFFFFFFFFFFFFFFFFFFFFFFFFFFFFFFFFFF AND DUP4 PUSH20 0xFFFFFFFFFFFFFFFFFFFFFFFFFFFFFFFFFFFFFFFF AND EQ ISZERO DUP1 ISZERO PUSH2 0x12D4 JUMPI POP PUSH1 0x1 ISZERO ISZERO PUSH1 0x0 DUP1 DUP6 PUSH20 0xFFFFFFFFFFFFFFFFFFFFFFFFFFFFFFFFFFFFFFFF AND PUSH20 0xFFFFFFFFFFFFFFFFFFFFFFFFFFFFFFFFFFFFFFFF AND DUP2 MSTORE PUSH1 0x20 ADD SWAP1 DUP2 MSTORE PUSH1 0x20 ADD PUSH1 0x0 KECCAK256 PUSH1 0x0 SWAP1 SLOAD SWAP1 PUSH2 0x100 EXP SWAP1 DIV PUSH1 0xFF AND ISZERO ISZERO EQ ISZERO JUMPDEST PUSH2 0x12DD JUMPI PUSH1 0x0 DUP1 REVERT JUMPDEST PUSH1 0x1 PUSH1 0x0 DUP1 DUP6 PUSH20 0xFFFFFFFFFFFFFFFFFFFFFFFFFFFFFFFFFFFFFFFF AND PUSH20 0xFFFFFFFFFFFFFFFFFFFFFFFFFFFFFFFFFFFFFFFF AND DUP2 MSTORE PUSH1 0x20 ADD SWAP1 DUP2 MSTORE PUSH1 0x20 ADD PUSH1 0x0 KECCAK256 PUSH1 0x0 PUSH2 0x100 EXP DUP2 SLOAD DUP2 PUSH1 0xFF MUL NOT AND SWAP1 DUP4 ISZERO ISZERO MUL OR SWAP1 SSTORE POP PUSH1 0x1 SWAP2 POP POP SWAP2 SWAP1 POP JUMP JUMPDEST PUSH1 0x0 DUP1 CALLER SWAP1 POP PUSH1 0x0 PUSH1 0x7 PUSH1 0x9 ADD PUSH1 0x0 SWAP1 SLOAD SWAP1 PUSH2 0x100 EXP SWAP1 DIV PUSH20 0xFFFFFFFFFFFFFFFFFFFFFFFFFFFFFFFFFFFFFFFF AND SWAP1 POP PUSH1 0x0 PUSH1 0x1 PUSH1 0x4 ADD SLOAD SWAP1 POP PUSH1 0x0 PUSH1 0x1 PUSH1 0x5 ADD SLOAD SWAP1 POP PUSH1 0x0 DUP1 PUSH2 0x1392 DUP7 DUP7 DUP11 DUP8 DUP8 PUSH2 0x1A9F JUMP JUMPDEST SWAP2 POP SWAP2 POP DUP1 PUSH1 0x12 PUSH1 0x0 DUP9 PUSH20 0xFFFFFFFFFFFFFFFFFFFFFFFFFFFFFFFFFFFFFFFF AND PUSH20 0xFFFFFFFFFFFFFFFFFFFFFFFFFFFFFFFFFFFFFFFF AND DUP2 MSTORE PUSH1 0x20 ADD SWAP1 DUP2 MSTORE PUSH1 0x20 ADD PUSH1 0x0 KECCAK256 PUSH1 0x0 DUP3 DUP3 SLOAD PUSH2 0x13E5 SWAP2 SWAP1 PUSH2 0x2B80 JUMP JUMPDEST SWAP3 POP POP DUP2 SWAP1 SSTORE POP DUP1 PUSH1 0x13 PUSH1 0x0 DUP9 PUSH20 0xFFFFFFFFFFFFFFFFFFFFFFFFFFFFFFFFFFFFFFFF AND PUSH20 0xFFFFFFFFFFFFFFFFFFFFFFFFFFFFFFFFFFFFFFFF AND DUP2 MSTORE PUSH1 0x20 ADD SWAP1 DUP2 MSTORE PUSH1 0x20 ADD PUSH1 0x0 KECCAK256 PUSH1 0x0 DUP3 DUP3 SLOAD PUSH2 0x143B SWAP2 SWAP1 PUSH2 0x2B80 JUMP JUMPDEST SWAP3 POP POP DUP2 SWAP1 SSTORE POP DUP1 PUSH1 0x7 PUSH1 0x5 ADD PUSH1 0x0 DUP3 DUP3 SLOAD PUSH2 0x1457 SWAP2 SWAP1 PUSH2 0x2B80 JUMP JUMPDEST SWAP3 POP POP DUP2 SWAP1 SSTORE POP DUP1 PUSH1 0x7 DUP1 ADD PUSH1 0x0 DUP3 DUP3 SLOAD PUSH2 0x1472 SWAP2 SWAP1 PUSH2 0x2B80 JUMP JUMPDEST SWAP3 POP POP DUP2 SWAP1 SSTORE POP DUP2 SWAP7 POP POP POP POP POP POP POP SWAP2 SWAP1 POP JUMP JUMPDEST PUSH1 0x0 DUP1 CALLER SWAP1 POP PUSH1 0x0 PUSH1 0x1 PUSH1 0x4 ADD SLOAD SWAP1 POP PUSH1 0x0 PUSH1 0x1 PUSH1 0x5 ADD SLOAD SWAP1 POP PUSH1 0x0 DUP1 PUSH2 0x14B1 DUP6 DUP10 DUP10 DUP8 DUP8 PUSH2 0x1A9F JUMP JUMPDEST SWAP2 POP SWAP2 POP DUP2 SWAP6 POP POP POP POP POP POP SWAP3 SWAP2 POP POP JUMP JUMPDEST PUSH1 0x0 PUSH1 0x7 PUSH1 0x8 ADD SLOAD SWAP1 POP SWAP1 JUMP JUMPDEST PUSH1 0x0 DUP1 CALLER SWAP1 POP PUSH1 0x0 ISZERO ISZERO PUSH1 0x0 DUP1 DUP4 PUSH20 0xFFFFFFFFFFFFFFFFFFFFFFFFFFFFFFFFFFFFFFFF AND PUSH20 0xFFFFFFFFFFFFFFFFFFFFFFFFFFFFFFFFFFFFFFFF AND DUP2 MSTORE PUSH1 0x20 ADD SWAP1 DUP2 MSTORE PUSH1 0x20 ADD PUSH1 0x0 KECCAK256 PUSH1 0x0 SWAP1 SLOAD SWAP1 PUSH2 0x100 EXP SWAP1 DIV PUSH1 0xFF AND ISZERO ISZERO SUB PUSH2 0x1568 JUMPI PUSH1 0x40 MLOAD PUSH32 0x8C379A000000000000000000000000000000000000000000000000000000000 DUP2 MSTORE PUSH1 0x4 ADD PUSH2 0x155F SWAP1 PUSH2 0x2A74 JUMP JUMPDEST PUSH1 0x40 MLOAD DUP1 SWAP2 SUB SWAP1 REVERT JUMPDEST PUSH1 0x0 PUSH20 0xFFFFFFFFFFFFFFFFFFFFFFFFFFFFFFFFFFFFFFFF AND DUP4 PUSH20 0xFFFFFFFFFFFFFFFFFFFFFFFFFFFFFFFFFFFFFFFF AND EQ ISZERO DUP1 ISZERO PUSH2 0x15F5 JUMPI POP PUSH1 0x0 ISZERO ISZERO PUSH1 0x0 DUP1 DUP6 PUSH20 0xFFFFFFFFFFFFFFFFFFFFFFFFFFFFFFFFFFFFFFFF AND PUSH20 0xFFFFFFFFFFFFFFFFFFFFFFFFFFFFFFFFFFFFFFFF AND DUP2 MSTORE PUSH1 0x20 ADD SWAP1 DUP2 MSTORE PUSH1 0x20 ADD PUSH1 0x0 KECCAK256 PUSH1 0x0 SWAP1 SLOAD SWAP1 PUSH2 0x100 EXP SWAP1 DIV PUSH1 0xFF AND ISZERO ISZERO EQ ISZERO JUMPDEST PUSH2 0x15FE JUMPI PUSH1 0x0 DUP1 REVERT JUMPDEST PUSH1 0x0 DUP1 PUSH1 0x0 DUP6 PUSH20 0xFFFFFFFFFFFFFFFFFFFFFFFFFFFFFFFFFFFFFFFF AND PUSH20 0xFFFFFFFFFFFFFFFFFFFFFFFFFFFFFFFFFFFFFFFF AND DUP2 MSTORE PUSH1 0x20 ADD SWAP1 DUP2 MSTORE PUSH1 0x20 ADD PUSH1 0x0 KECCAK256 PUSH1 0x0 PUSH2 0x100 EXP DUP2 SLOAD DUP2 PUSH1 0xFF MUL NOT AND SWAP1 DUP4 ISZERO ISZERO MUL OR SWAP1 SSTORE POP PUSH1 0x1 SWAP2 POP POP SWAP2 SWAP1 POP JUMP JUMPDEST PUSH1 0x0 PUSH1 0x14 PUSH1 0x0 DUP5 PUSH20 0xFFFFFFFFFFFFFFFFFFFFFFFFFFFFFFFFFFFFFFFF AND PUSH20 0xFFFFFFFFFFFFFFFFFFFFFFFFFFFFFFFFFFFFFFFF AND DUP2 MSTORE PUSH1 0x20 ADD SWAP1 DUP2 MSTORE PUSH1 0x20 ADD PUSH1 0x0 KECCAK256 PUSH1 0x0 DUP4 PUSH20 0xFFFFFFFFFFFFFFFFFFFFFFFFFFFFFFFFFFFFFFFF AND PUSH20 0xFFFFFFFFFFFFFFFFFFFFFFFFFFFFFFFFFFFFFFFF AND DUP2 MSTORE PUSH1 0x20 ADD SWAP1 DUP2 MSTORE PUSH1 0x20 ADD PUSH1 0x0 KECCAK256 SLOAD SWAP1 POP SWAP3 SWAP2 POP POP JUMP JUMPDEST PUSH1 0x0 DUP1 CALLER SWAP1 POP PUSH1 0x0 ISZERO ISZERO PUSH1 0x0 DUP1 DUP4 PUSH20 0xFFFFFFFFFFFFFFFFFFFFFFFFFFFFFFFFFFFFFFFF AND PUSH20 0xFFFFFFFFFFFFFFFFFFFFFFFFFFFFFFFFFFFFFFFF AND DUP2 MSTORE PUSH1 0x20 ADD SWAP1 DUP2 MSTORE PUSH1 0x20 ADD PUSH1 0x0 KECCAK256 PUSH1 0x0 SWAP1 SLOAD SWAP1 PUSH2 0x100 EXP SWAP1 DIV PUSH1 0xFF AND ISZERO ISZERO SUB PUSH2 0x177E JUMPI PUSH1 0x40 MLOAD PUSH32 0x8C379A000000000000000000000000000000000000000000000000000000000 DUP2 MSTORE PUSH1 0x4 ADD PUSH2 0x1775 SWAP1 PUSH2 0x2A74 JUMP JUMPDEST PUSH1 0x40 MLOAD DUP1 SWAP2 SUB SWAP1 REVERT JUMPDEST PUSH2 0x178A DUP7 DUP7 DUP7 DUP7 PUSH2 0x2165 JUMP JUMPDEST POP POP SWAP5 SWAP4 POP POP POP POP JUMP JUMPDEST PUSH1 0x0 DUP1 PUSH1 0x7 PUSH1 0x9 ADD PUSH1 0x0 SWAP1 SLOAD SWAP1 PUSH2 0x100 EXP SWAP1 DIV PUSH20 0xFFFFFFFFFFFFFFFFFFFFFFFFFFFFFFFFFFFFFFFF AND SWAP1 POP PUSH1 0x0 CALLER SWAP1 POP PUSH1 0x0 PUSH1 0x15 PUSH1 0x0 DUP4 PUSH20 0xFFFFFFFFFFFFFFFFFFFFFFFFFFFFFFFFFFFFFFFF AND PUSH20 0xFFFFFFFFFFFFFFFFFFFFFFFFFFFFFFFFFFFFFFFF AND DUP2 MSTORE PUSH1 0x20 ADD SWAP1 DUP2 MSTORE PUSH1 0x20 ADD PUSH1 0x0 KECCAK256 DUP6 PUSH1 0x40 MLOAD PUSH2 0x1813 SWAP2 SWAP1 PUSH2 0x2BF0 JUMP JUMPDEST SWAP1 DUP2 MSTORE PUSH1 0x20 ADD PUSH1 0x40 MLOAD DUP1 SWAP2 SUB SWAP1 KECCAK256 PUSH1 0x3 ADD SLOAD SWAP1 POP PUSH1 0x0 PUSH1 0x15 PUSH1 0x0 DUP5 PUSH20 0xFFFFFFFFFFFFFFFFFFFFFFFFFFFFFFFFFFFFFFFF AND PUSH20 0xFFFFFFFFFFFFFFFFFFFFFFFFFFFFFFFFFFFFFFFF AND DUP2 MSTORE PUSH1 0x20 ADD SWAP1 DUP2 MSTORE PUSH1 0x20 ADD PUSH1 0x0 KECCAK256 DUP7 PUSH1 0x40 MLOAD PUSH2 0x1876 SWAP2 SWAP1 PUSH2 0x2BF0 JUMP JUMPDEST SWAP1 DUP2 MSTORE PUSH1 0x20 ADD PUSH1 0x40 MLOAD DUP1 SWAP2 SUB SWAP1 KECCAK256 PUSH1 0x4 ADD SLOAD SWAP1 POP TIMESTAMP DUP3 LT ISZERO DUP1 ISZERO PUSH2 0x189A JUMPI POP PUSH1 0x0 DUP2 GT JUMPDEST PUSH2 0x18A3 JUMPI PUSH1 0x0 DUP1 REVERT JUMPDEST PUSH1 0x0 PUSH1 0x1 PUSH1 0x4 ADD SLOAD SWAP1 POP PUSH1 0x0 PUSH1 0x1 PUSH1 0x5 ADD SLOAD SWAP1 POP PUSH1 0x0 DUP1 PUSH2 0x18C7 DUP9 DUP9 DUP8 DUP8 DUP8 PUSH2 0x1A9F JUMP JUMPDEST SWAP2 POP SWAP2 POP PUSH1 0x0 PUSH1 0x15 PUSH1 0x0 DUP10 PUSH20 0xFFFFFFFFFFFFFFFFFFFFFFFFFFFFFFFFFFFFFFFF AND PUSH20 0xFFFFFFFFFFFFFFFFFFFFFFFFFFFFFFFFFFFFFFFF AND DUP2 MSTORE PUSH1 0x20 ADD SWAP1 DUP2 MSTORE PUSH1 0x20 ADD PUSH1 0x0 KECCAK256 DUP12 PUSH1 0x40 MLOAD PUSH2 0x191A SWAP2 SWAP1 PUSH2 0x2BF0 JUMP JUMPDEST SWAP1 DUP2 MSTORE PUSH1 0x20 ADD PUSH1 0x40 MLOAD DUP1 SWAP2 SUB SWAP1 KECCAK256 PUSH1 0x4 ADD DUP2 SWAP1 SSTORE POP DUP2 SWAP9 POP POP POP POP POP POP POP POP POP SWAP2 SWAP1 POP JUMP JUMPDEST PUSH1 0x60 PUSH1 0x0 DUP3 SUB PUSH2 0x1986 JUMPI PUSH1 0x40 MLOAD DUP1 PUSH1 0x40 ADD PUSH1 0x40 MSTORE DUP1 PUSH1 0x1 DUP2 MSTORE PUSH1 0x20 ADD PUSH32 0x3000000000000000000000000000000000000000000000000000000000000000 DUP2 MSTORE POP SWAP1 POP PUSH2 0x1A9A JUMP JUMPDEST PUSH1 0x0 DUP3 SWAP1 POP PUSH1 0x0 JUMPDEST PUSH1 0x0 DUP3 EQ PUSH2 0x19B8 JUMPI DUP1 DUP1 PUSH2 0x19A1 SWAP1 PUSH2 0x2C07 JUMP JUMPDEST SWAP2 POP POP PUSH1 0xA DUP3 PUSH2 0x19B1 SWAP2 SWAP1 PUSH2 0x2C7E JUMP JUMPDEST SWAP2 POP PUSH2 0x198E JUMP JUMPDEST PUSH1 0x0 DUP2 PUSH8 0xFFFFFFFFFFFFFFFF DUP2 GT ISZERO PUSH2 0x19D4 JUMPI PUSH2 0x19D3 PUSH2 0x2831 JUMP JUMPDEST JUMPDEST PUSH1 0x40 MLOAD SWAP1 DUP1 DUP3 MSTORE DUP1 PUSH1 0x1F ADD PUSH1 0x1F NOT AND PUSH1 0x20 ADD DUP3 ADD PUSH1 0x40 MSTORE DUP1 ISZERO PUSH2 0x1A06 JUMPI DUP2 PUSH1 0x20 ADD PUSH1 0x1 DUP3 MUL DUP1 CALLDATASIZE DUP4 CALLDATACOPY DUP1 DUP3 ADD SWAP2 POP POP SWAP1 POP JUMPDEST POP SWAP1 POP JUMPDEST PUSH1 0x0 DUP6 EQ PUSH2 0x1A93 JUMPI PUSH1 0x1 DUP3 PUSH2 0x1A1F SWAP2 SWAP1 PUSH2 0x2B4C JUMP JUMPDEST SWAP2 POP PUSH1 0x13 DUP6 PUSH2 0x1A2E SWAP2 SWAP1 PUSH2 0x2CAF JUMP JUMPDEST PUSH1 0x30 PUSH2 0x1A3A SWAP2 SWAP1 PUSH2 0x2B80 JUMP JUMPDEST PUSH1 0xF8 SHL DUP2 DUP4 DUP2 MLOAD DUP2 LT PUSH2 0x1A50 JUMPI PUSH2 0x1A4F PUSH2 0x2CE0 JUMP JUMPDEST JUMPDEST PUSH1 0x20 ADD ADD SWAP1 PUSH31 0xFFFFFFFFFFFFFFFFFFFFFFFFFFFFFFFFFFFFFFFFFFFFFFFFFFFFFFFFFFFFFF NOT AND SWAP1 DUP2 PUSH1 0x0 BYTE SWAP1 MSTORE8 POP PUSH1 0xA DUP6 PUSH2 0x1A8C SWAP2 SWAP1 PUSH2 0x2C7E JUMP JUMPDEST SWAP5 POP PUSH2 0x1A0A JUMP JUMPDEST DUP1 SWAP4 POP POP POP POP JUMPDEST SWAP2 SWAP1 POP JUMP JUMPDEST PUSH1 0x0 DUP1 PUSH1 0x0 PUSH20 0xFFFFFFFFFFFFFFFFFFFFFFFFFFFFFFFFFFFFFFFF AND DUP8 PUSH20 0xFFFFFFFFFFFFFFFFFFFFFFFFFFFFFFFFFFFFFFFF AND EQ ISZERO DUP1 ISZERO PUSH2 0x1B0C JUMPI POP PUSH1 0x0 PUSH20 0xFFFFFFFFFFFFFFFFFFFFFFFFFFFFFFFFFFFFFFFF AND DUP7 PUSH20 0xFFFFFFFFFFFFFFFFFFFFFFFFFFFFFFFFFFFFFFFF AND EQ ISZERO JUMPDEST DUP1 ISZERO PUSH2 0x1B57 JUMPI POP DUP5 PUSH1 0x11 PUSH1 0x0 DUP10 PUSH20 0xFFFFFFFFFFFFFFFFFFFFFFFFFFFFFFFFFFFFFFFF AND PUSH20 0xFFFFFFFFFFFFFFFFFFFFFFFFFFFFFFFFFFFFFFFF AND DUP2 MSTORE PUSH1 0x20 ADD SWAP1 DUP2 MSTORE PUSH1 0x20 ADD PUSH1 0x0 KECCAK256 SLOAD LT ISZERO JUMPDEST DUP1 ISZERO PUSH2 0x1BA3 JUMPI POP PUSH1 0x0 PUSH1 0x11 PUSH1 0x0 DUP10 PUSH20 0xFFFFFFFFFFFFFFFFFFFFFFFFFFFFFFFFFFFFFFFF AND PUSH20 0xFFFFFFFFFFFFFFFFFFFFFFFFFFFFFFFFFFFFFFFF AND DUP2 MSTORE PUSH1 0x20 ADD SWAP1 DUP2 MSTORE PUSH1 0x20 ADD PUSH1 0x0 KECCAK256 SLOAD LT ISZERO JUMPDEST DUP1 ISZERO PUSH2 0x1BB0 JUMPI POP PUSH1 0x0 DUP6 LT ISZERO JUMPDEST PUSH2 0x1BB9 JUMPI PUSH1 0x0 DUP1 REVERT JUMPDEST DUP5 PUSH1 0x11 PUSH1 0x0 DUP10 PUSH20 0xFFFFFFFFFFFFFFFFFFFFFFFFFFFFFFFFFFFFFFFF AND PUSH20 0xFFFFFFFFFFFFFFFFFFFFFFFFFFFFFFFFFFFFFFFF AND DUP2 MSTORE PUSH1 0x20 ADD SWAP1 DUP2 MSTORE PUSH1 0x20 ADD PUSH1 0x0 KECCAK256 PUSH1 0x0 DUP3 DUP3 SLOAD PUSH2 0x1C08 SWAP2 SWAP1 PUSH2 0x2B4C JUMP JUMPDEST SWAP3 POP POP DUP2 SWAP1 SSTORE POP PUSH1 0x0 DUP5 PUSH2 0x3E8 DUP8 PUSH2 0x1C20 SWAP2 SWAP1 PUSH2 0x2C7E JUMP JUMPDEST PUSH2 0x1C2A SWAP2 SWAP1 PUSH2 0x2D0F JUMP JUMPDEST SWAP1 POP PUSH1 0x0 DUP5 PUSH2 0x3E8 DUP9 PUSH2 0x1C3D SWAP2 SWAP1 PUSH2 0x2C7E JUMP JUMPDEST PUSH2 0x1C47 SWAP2 SWAP1 PUSH2 0x2D0F JUMP JUMPDEST SWAP1 POP PUSH1 0x0 DUP2 DUP4 PUSH2 0x1C57 SWAP2 SWAP1 PUSH2 0x2B80 JUMP JUMPDEST DUP9 PUSH2 0x1C62 SWAP2 SWAP1 PUSH2 0x2B4C JUMP JUMPDEST SWAP1 POP DUP1 PUSH1 0x11 PUSH1 0x0 DUP12 PUSH20 0xFFFFFFFFFFFFFFFFFFFFFFFFFFFFFFFFFFFFFFFF AND PUSH20 0xFFFFFFFFFFFFFFFFFFFFFFFFFFFFFFFFFFFFFFFF AND DUP2 MSTORE PUSH1 0x20 ADD SWAP1 DUP2 MSTORE PUSH1 0x20 ADD PUSH1 0x0 KECCAK256 PUSH1 0x0 DUP3 DUP3 SLOAD PUSH2 0x1CB3 SWAP2 SWAP1 PUSH2 0x2B80 JUMP JUMPDEST SWAP3 POP POP DUP2 SWAP1 SSTORE POP DUP2 PUSH1 0x11 PUSH1 0x0 PUSH1 0x7 PUSH1 0x9 ADD PUSH1 0x0 SWAP1 SLOAD SWAP1 PUSH2 0x100 EXP SWAP1 DIV PUSH20 0xFFFFFFFFFFFFFFFFFFFFFFFFFFFFFFFFFFFFFFFF AND PUSH20 0xFFFFFFFFFFFFFFFFFFFFFFFFFFFFFFFFFFFFFFFF AND PUSH20 0xFFFFFFFFFFFFFFFFFFFFFFFFFFFFFFFFFFFFFFFF AND DUP2 MSTORE PUSH1 0x20 ADD SWAP1 DUP2 MSTORE PUSH1 0x20 ADD PUSH1 0x0 KECCAK256 PUSH1 0x0 DUP3 DUP3 SLOAD PUSH2 0x1D2E SWAP2 SWAP1 PUSH2 0x2B80 JUMP JUMPDEST SWAP3 POP POP DUP2 SWAP1 SSTORE POP DUP3 PUSH1 0x7 PUSH1 0x4 ADD PUSH1 0x0 DUP3 DUP3 SLOAD PUSH2 0x1D4A SWAP2 SWAP1 PUSH2 0x2B4C JUMP JUMPDEST SWAP3 POP POP DUP2 SWAP1 SSTORE POP DUP9 PUSH20 0xFFFFFFFFFFFFFFFFFFFFFFFFFFFFFFFFFFFFFFFF AND DUP11 PUSH20 0xFFFFFFFFFFFFFFFFFFFFFFFFFFFFFFFFFFFFFFFF AND PUSH32 0xDDF252AD1BE2C89B69C2B068FC378DAA952BA7F163C4A11628F55A4DF523B3EF DUP4 PUSH1 0x40 MLOAD PUSH2 0x1DAE SWAP2 SWAP1 PUSH2 0x2687 JUMP JUMPDEST PUSH1 0x40 MLOAD DUP1 SWAP2 SUB SWAP1 LOG3 PUSH1 0x0 DUP4 EQ PUSH2 0x1E25 JUMPI PUSH1 0x0 PUSH20 0xFFFFFFFFFFFFFFFFFFFFFFFFFFFFFFFFFFFFFFFF AND DUP11 PUSH20 0xFFFFFFFFFFFFFFFFFFFFFFFFFFFFFFFFFFFFFFFF AND PUSH32 0xDDF252AD1BE2C89B69C2B068FC378DAA952BA7F163C4A11628F55A4DF523B3EF DUP6 PUSH1 0x40 MLOAD PUSH2 0x1E1C SWAP2 SWAP1 PUSH2 0x2687 JUMP JUMPDEST PUSH1 0x40 MLOAD DUP1 SWAP2 SUB SWAP1 LOG3 JUMPDEST PUSH1 0x0 DUP3 EQ PUSH2 0x1EB8 JUMPI PUSH1 0x7 PUSH1 0x9 ADD PUSH1 0x0 SWAP1 SLOAD SWAP1 PUSH2 0x100 EXP SWAP1 DIV PUSH20 0xFFFFFFFFFFFFFFFFFFFFFFFFFFFFFFFFFFFFFFFF AND PUSH20 0xFFFFFFFFFFFFFFFFFFFFFFFFFFFFFFFFFFFFFFFF AND DUP11 PUSH20 0xFFFFFFFFFFFFFFFFFFFFFFFFFFFFFFFFFFFFFFFF AND PUSH32 0xDDF252AD1BE2C89B69C2B068FC378DAA952BA7F163C4A11628F55A4DF523B3EF DUP5 PUSH1 0x40 MLOAD PUSH2 0x1EAF SWAP2 SWAP1 PUSH2 0x2687 JUMP JUMPDEST PUSH1 0x40 MLOAD DUP1 SWAP2 SUB SWAP1 LOG3 JUMPDEST PUSH1 0x1 DUP2 SWAP5 POP SWAP5 POP POP POP POP SWAP6 POP SWAP6 SWAP4 POP POP POP POP JUMP JUMPDEST PUSH1 0x0 DUP1 PUSH1 0x0 SWAP1 POP PUSH1 0x0 DUP4 LT ISZERO DUP1 ISZERO PUSH2 0x1EE9 JUMPI POP PUSH1 0x7 PUSH1 0x3 ADD SLOAD DUP4 GT ISZERO JUMPDEST DUP1 ISZERO PUSH2 0x1F22 JUMPI POP PUSH1 0x0 PUSH20 0xFFFFFFFFFFFFFFFFFFFFFFFFFFFFFFFFFFFFFFFF AND DUP5 PUSH20 0xFFFFFFFFFFFFFFFFFFFFFFFFFFFFFFFFFFFFFFFF AND EQ ISZERO JUMPDEST PUSH2 0x1F2B JUMPI PUSH1 0x0 DUP1 REVERT JUMPDEST DUP3 PUSH1 0x7 PUSH1 0x3 ADD PUSH1 0x0 DUP3 DUP3 SLOAD PUSH2 0x1F40 SWAP2 SWAP1 PUSH2 0x2B4C JUMP JUMPDEST SWAP3 POP POP DUP2 SWAP1 SSTORE POP DUP3 PUSH1 0x11 PUSH1 0x0 DUP7 PUSH20 0xFFFFFFFFFFFFFFFFFFFFFFFFFFFFFFFFFFFFFFFF AND PUSH20 0xFFFFFFFFFFFFFFFFFFFFFFFFFFFFFFFFFFFFFFFF AND DUP2 MSTORE PUSH1 0x20 ADD SWAP1 DUP2 MSTORE PUSH1 0x20 ADD PUSH1 0x0 KECCAK256 PUSH1 0x0 DUP3 DUP3 SLOAD PUSH2 0x1F96 SWAP2 SWAP1 PUSH2 0x2B80 JUMP JUMPDEST SWAP3 POP POP DUP2 SWAP1 SSTORE DUP4 PUSH1 0x7 PUSH1 0x4 ADD PUSH1 0x0 DUP3 DUP3 SLOAD PUSH2 0x1FB1 SWAP2 SWAP1 PUSH2 0x2B80 JUMP JUMPDEST SWAP3 POP POP DUP2 SWAP1 SSTORE POP POP DUP4 PUSH20 0xFFFFFFFFFFFFFFFFFFFFFFFFFFFFFFFFFFFFFFFF AND DUP2 PUSH20 0xFFFFFFFFFFFFFFFFFFFFFFFFFFFFFFFFFFFFFFFF AND PUSH32 0xDDF252AD1BE2C89B69C2B068FC378DAA952BA7F163C4A11628F55A4DF523B3EF DUP6 PUSH1 0x40 MLOAD PUSH2 0x2016 SWAP2 SWAP1 PUSH2 0x2687 JUMP JUMPDEST PUSH1 0x40 MLOAD DUP1 SWAP2 SUB SWAP1 LOG3 PUSH1 0x1 SWAP2 POP POP SWAP3 SWAP2 POP POP JUMP JUMPDEST PUSH1 0x0 DUP1 DUP3 LT ISZERO DUP1 ISZERO PUSH2 0x207A JUMPI POP PUSH1 0x11 PUSH1 0x0 DUP5 PUSH20 0xFFFFFFFFFFFFFFFFFFFFFFFFFFFFFFFFFFFFFFFF AND PUSH20 0xFFFFFFFFFFFFFFFFFFFFFFFFFFFFFFFFFFFFFFFF AND DUP2 MSTORE PUSH1 0x20 ADD SWAP1 DUP2 MSTORE PUSH1 0x20 ADD PUSH1 0x0 KECCAK256 SLOAD DUP3 GT ISZERO JUMPDEST PUSH2 0x2083 JUMPI PUSH1 0x0 DUP1 REVERT JUMPDEST DUP2 PUSH1 0x11 PUSH1 0x0 DUP6 PUSH20 0xFFFFFFFFFFFFFFFFFFFFFFFFFFFFFFFFFFFFFFFF AND PUSH20 0xFFFFFFFFFFFFFFFFFFFFFFFFFFFFFFFFFFFFFFFF AND DUP2 MSTORE PUSH1 0x20 ADD SWAP1 DUP2 MSTORE PUSH1 0x20 ADD PUSH1 0x0 KECCAK256 PUSH1 0x0 DUP3 DUP3 SLOAD PUSH2 0x20D2 SWAP2 SWAP1 PUSH2 0x2B4C JUMP JUMPDEST SWAP3 POP POP DUP2 SWAP1 SSTORE DUP3 PUSH1 0x7 PUSH1 0x4 ADD PUSH1 0x0 DUP3 DUP3 SLOAD PUSH2 0x20ED SWAP2 SWAP1 PUSH2 0x2B4C JUMP JUMPDEST SWAP3 POP POP DUP2 SWAP1 SSTORE POP POP PUSH1 0x0 PUSH20 0xFFFFFFFFFFFFFFFFFFFFFFFFFFFFFFFFFFFFFFFF AND DUP4 PUSH20 0xFFFFFFFFFFFFFFFFFFFFFFFFFFFFFFFFFFFFFFFF AND PUSH32 0xDDF252AD1BE2C89B69C2B068FC378DAA952BA7F163C4A11628F55A4DF523B3EF DUP5 PUSH1 0x40 MLOAD PUSH2 0x2153 SWAP2 SWAP1 PUSH2 0x2687 JUMP JUMPDEST PUSH1 0x40 MLOAD DUP1 SWAP2 SUB SWAP1 LOG3 PUSH1 0x1 SWAP1 POP SWAP3 SWAP2 POP POP JUMP JUMPDEST PUSH1 0x0 DUP1 PUSH1 0x0 SWAP1 POP PUSH1 0x0 PUSH1 0x7 PUSH1 0x9 ADD PUSH1 0x0 SWAP1 SLOAD SWAP1 PUSH2 0x100 EXP SWAP1 DIV PUSH20 0xFFFFFFFFFFFFFFFFFFFFFFFFFFFFFFFFFFFFFFFF AND SWAP1 POP PUSH1 0x1 ISZERO ISZERO PUSH1 0x15 PUSH1 0x0 DUP10 PUSH20 0xFFFFFFFFFFFFFFFFFFFFFFFFFFFFFFFFFFFFFFFF AND PUSH20 0xFFFFFFFFFFFFFFFFFFFFFFFFFFFFFFFFFFFFFFFF AND DUP2 MSTORE PUSH1 0x20 ADD SWAP1 DUP2 MSTORE PUSH1 0x20 ADD PUSH1 0x0 KECCAK256 DUP6 PUSH1 0x40 MLOAD PUSH2 0x21E7 SWAP2 SWAP1 PUSH2 0x2BF0 JUMP JUMPDEST SWAP1 DUP2 MSTORE PUSH1 0x20 ADD PUSH1 0x40 MLOAD DUP1 SWAP2 SUB SWAP1 KECCAK256 PUSH1 0x5 ADD PUSH1 0x0 SWAP1 SLOAD SWAP1 PUSH2 0x100 EXP SWAP1 DIV PUSH1 0xFF AND ISZERO ISZERO EQ ISZERO DUP1 ISZERO PUSH2 0x221B JUMPI POP PUSH1 0x7 PUSH1 0x3 ADD SLOAD DUP7 GT ISZERO JUMPDEST DUP1 ISZERO PUSH2 0x2254 JUMPI POP PUSH1 0x0 PUSH20 0xFFFFFFFFFFFFFFFFFFFFFFFFFFFFFFFFFFFFFFFF AND DUP8 PUSH20 0xFFFFFFFFFFFFFFFFFFFFFFFFFFFFFFFFFFFFFFFF AND EQ ISZERO JUMPDEST DUP1 ISZERO PUSH2 0x2261 JUMPI POP PUSH1 0x0 DUP7 LT ISZERO JUMPDEST PUSH2 0x226A JUMPI PUSH1 0x0 DUP1 REVERT JUMPDEST DUP6 PUSH1 0x7 PUSH1 0x3 ADD PUSH1 0x0 DUP3 DUP3 SLOAD PUSH2 0x227F SWAP2 SWAP1 PUSH2 0x2B4C JUMP JUMPDEST SWAP3 POP POP DUP2 SWAP1 SSTORE DUP7 PUSH1 0x7 PUSH1 0x4 ADD PUSH1 0x0 DUP3 DUP3 SLOAD PUSH2 0x229A SWAP2 SWAP1 PUSH2 0x2B80 JUMP JUMPDEST SWAP3 POP POP DUP2 SWAP1 SSTORE DUP8 PUSH1 0x11 PUSH1 0x0 DUP6 PUSH20 0xFFFFFFFFFFFFFFFFFFFFFFFFFFFFFFFFFFFFFFFF AND PUSH20 0xFFFFFFFFFFFFFFFFFFFFFFFFFFFFFFFFFFFFFFFF AND DUP2 MSTORE PUSH1 0x20 ADD SWAP1 DUP2 MSTORE PUSH1 0x20 ADD PUSH1 0x0 KECCAK256 PUSH1 0x0 DUP3 DUP3 SLOAD PUSH2 0x22EF SWAP2 SWAP1 PUSH2 0x2B80 JUMP JUMPDEST SWAP3 POP POP DUP2 SWAP1 SSTORE POP POP POP PUSH1 0x0 TIMESTAMP SWAP1 POP PUSH1 0x40 MLOAD DUP1 PUSH1 0xC0 ADD PUSH1 0x40 MSTORE DUP1 DUP7 DUP2 MSTORE PUSH1 0x20 ADD DUP8 DUP2 MSTORE PUSH1 0x20 ADD DUP3 DUP2 MSTORE PUSH1 0x20 ADD DUP8 DUP4 PUSH2 0x2326 SWAP2 SWAP1 PUSH2 0x2B80 JUMP JUMPDEST DUP2 MSTORE PUSH1 0x20 ADD DUP9 DUP2 MSTORE PUSH1 0x20 ADD PUSH1 0x1 ISZERO ISZERO DUP2 MSTORE POP PUSH1 0x15 PUSH1 0x0 DUP11 PUSH20 0xFFFFFFFFFFFFFFFFFFFFFFFFFFFFFFFFFFFFFFFF AND PUSH20 0xFFFFFFFFFFFFFFFFFFFFFFFFFFFFFFFFFFFFFFFF AND DUP2 MSTORE PUSH1 0x20 ADD SWAP1 DUP2 MSTORE PUSH1 0x20 ADD PUSH1 0x0 KECCAK256 DUP7 PUSH1 0x40 MLOAD PUSH2 0x2385 SWAP2 SWAP1 PUSH2 0x2BF0 JUMP JUMPDEST SWAP1 DUP2 MSTORE PUSH1 0x20 ADD PUSH1 0x40 MLOAD DUP1 SWAP2 SUB SWAP1 KECCAK256 PUSH1 0x0 DUP3 ADD MLOAD DUP2 PUSH1 0x0 ADD SWAP1 DUP2 PUSH2 0x23A8 SWAP2 SWAP1 PUSH2 0x2EFD JUMP JUMPDEST POP PUSH1 0x20 DUP3 ADD MLOAD DUP2 PUSH1 0x1 ADD SSTORE PUSH1 0x40 DUP3 ADD MLOAD DUP2 PUSH1 0x2 ADD SSTORE PUSH1 0x60 DUP3 ADD MLOAD DUP2 PUSH1 0x3 ADD SSTORE PUSH1 0x80 DUP3 ADD MLOAD DUP2 PUSH1 0x4 ADD SSTORE PUSH1 0xA0 DUP3 ADD MLOAD DUP2 PUSH1 0x5 ADD PUSH1 0x0 PUSH2 0x100 EXP DUP2 SLOAD DUP2 PUSH1 0xFF MUL NOT AND SWAP1 DUP4 ISZERO ISZERO MUL OR SWAP1 SSTORE POP SWAP1 POP POP DUP8 PUSH20 0xFFFFFFFFFFFFFFFFFFFFFFFFFFFFFFFFFFFFFFFF AND DUP4 PUSH20 0xFFFFFFFFFFFFFFFFFFFFFFFFFFFFFFFFFFFFFFFF AND PUSH32 0xDDF252AD1BE2C89B69C2B068FC378DAA952BA7F163C4A11628F55A4DF523B3EF DUP10 PUSH1 0x40 MLOAD PUSH2 0x2451 SWAP2 SWAP1 PUSH2 0x2687 JUMP JUMPDEST PUSH1 0x40 MLOAD DUP1 SWAP2 SUB SWAP1 LOG3 PUSH1 0x1 SWAP4 POP POP POP POP SWAP5 SWAP4 POP POP POP POP JUMP JUMPDEST PUSH1 0x0 PUSH1 0x40 MLOAD SWAP1 POP SWAP1 JUMP JUMPDEST PUSH1 0x0 DUP1 REVERT JUMPDEST PUSH1 0x0 DUP1 REVERT JUMPDEST PUSH1 0x0 DUP2 SWAP1 POP SWAP2 SWAP1 POP JUMP JUMPDEST PUSH2 0x248F DUP2 PUSH2 0x247C JUMP JUMPDEST DUP2 EQ PUSH2 0x249A JUMPI PUSH1 0x0 DUP1 REVERT JUMPDEST POP JUMP JUMPDEST PUSH1 0x0 DUP2 CALLDATALOAD SWAP1 POP PUSH2 0x24AC DUP2 PUSH2 0x2486 JUMP JUMPDEST SWAP3 SWAP2 POP POP JUMP JUMPDEST PUSH1 0x0 DUP1 PUSH1 0x40 DUP4 DUP6 SUB SLT ISZERO PUSH2 0x24C9 JUMPI PUSH2 0x24C8 PUSH2 0x2472 JUMP JUMPDEST JUMPDEST PUSH1 0x0 PUSH2 0x24D7 DUP6 DUP3 DUP7 ADD PUSH2 0x249D JUMP JUMPDEST SWAP3 POP POP PUSH1 0x20 PUSH2 0x24E8 DUP6 DUP3 DUP7 ADD PUSH2 0x249D JUMP JUMPDEST SWAP2 POP POP SWAP3 POP SWAP3 SWAP1 POP JUMP JUMPDEST PUSH1 0x0 DUP2 ISZERO ISZERO SWAP1 POP SWAP2 SWAP1 POP JUMP JUMPDEST PUSH2 0x2507 DUP2 PUSH2 0x24F2 JUMP JUMPDEST DUP3 MSTORE POP POP JUMP JUMPDEST PUSH1 0x0 PUSH1 0x20 DUP3 ADD SWAP1 POP PUSH2 0x2522 PUSH1 0x0 DUP4 ADD DUP5 PUSH2 0x24FE JUMP JUMPDEST SWAP3 SWAP2 POP POP JUMP JUMPDEST PUSH1 0x0 DUP2 MLOAD SWAP1 POP SWAP2 SWAP1 POP JUMP JUMPDEST PUSH1 0x0 DUP3 DUP3 MSTORE PUSH1 0x20 DUP3 ADD SWAP1 POP SWAP3 SWAP2 POP POP JUMP JUMPDEST PUSH1 0x0 JUMPDEST DUP4 DUP2 LT ISZERO PUSH2 0x2562 JUMPI DUP1 DUP3 ADD MLOAD DUP2 DUP5 ADD MSTORE PUSH1 0x20 DUP2 ADD SWAP1 POP PUSH2 0x2547 JUMP JUMPDEST PUSH1 0x0 DUP5 DUP5 ADD MSTORE POP POP POP POP JUMP JUMPDEST PUSH1 0x0 PUSH1 0x1F NOT PUSH1 0x1F DUP4 ADD AND SWAP1 POP SWAP2 SWAP1 POP JUMP JUMPDEST PUSH1 0x0 PUSH2 0x258A DUP3 PUSH2 0x2528 JUMP JUMPDEST PUSH2 0x2594 DUP2 DUP6 PUSH2 0x2533 JUMP JUMPDEST SWAP4 POP PUSH2 0x25A4 DUP2 DUP6 PUSH1 0x20 DUP7 ADD PUSH2 0x2544 JUMP JUMPDEST PUSH2 0x25AD DUP2 PUSH2 0x256E JUMP JUMPDEST DUP5 ADD SWAP2 POP POP SWAP3 SWAP2 POP POP JUMP JUMPDEST PUSH1 0x0 PUSH1 0x20 DUP3 ADD SWAP1 POP DUP2 DUP2 SUB PUSH1 0x0 DUP4 ADD MSTORE PUSH2 0x25D2 DUP2 DUP5 PUSH2 0x257F JUMP JUMPDEST SWAP1 POP SWAP3 SWAP2 POP POP JUMP JUMPDEST PUSH1 0x0 PUSH20 0xFFFFFFFFFFFFFFFFFFFFFFFFFFFFFFFFFFFFFFFF DUP3 AND SWAP1 POP SWAP2 SWAP1 POP JUMP JUMPDEST PUSH1 0x0 PUSH2 0x2605 DUP3 PUSH2 0x25DA JUMP JUMPDEST SWAP1 POP SWAP2 SWAP1 POP JUMP JUMPDEST PUSH2 0x2615 DUP2 PUSH2 0x25FA JUMP JUMPDEST DUP2 EQ PUSH2 0x2620 JUMPI PUSH1 0x0 DUP1 REVERT JUMPDEST POP JUMP JUMPDEST PUSH1 0x0 DUP2 CALLDATALOAD SWAP1 POP PUSH2 0x2632 DUP2 PUSH2 0x260C JUMP JUMPDEST SWAP3 SWAP2 POP POP JUMP JUMPDEST PUSH1 0x0 DUP1 PUSH1 0x40 DUP4 DUP6 SUB SLT ISZERO PUSH2 0x264F JUMPI PUSH2 0x264E PUSH2 0x2472 JUMP JUMPDEST JUMPDEST PUSH1 0x0 PUSH2 0x265D DUP6 DUP3 DUP7 ADD PUSH2 0x2623 JUMP JUMPDEST SWAP3 POP POP PUSH1 0x20 PUSH2 0x266E DUP6 DUP3 DUP7 ADD PUSH2 0x249D JUMP JUMPDEST SWAP2 POP POP SWAP3 POP SWAP3 SWAP1 POP JUMP JUMPDEST PUSH2 0x2681 DUP2 PUSH2 0x247C JUMP JUMPDEST DUP3 MSTORE POP POP JUMP JUMPDEST PUSH1 0x0 PUSH1 0x20 DUP3 ADD SWAP1 POP PUSH2 0x269C PUSH1 0x0 DUP4 ADD DUP5 PUSH2 0x2678 JUMP JUMPDEST SWAP3 SWAP2 POP POP JUMP JUMPDEST PUSH1 0x0 PUSH1 0x20 DUP3 DUP5 SUB SLT ISZERO PUSH2 0x26B8 JUMPI PUSH2 0x26B7 PUSH2 0x2472 JUMP JUMPDEST JUMPDEST PUSH1 0x0 PUSH2 0x26C6 DUP5 DUP3 DUP6 ADD PUSH2 0x2623 JUMP JUMPDEST SWAP2 POP POP SWAP3 SWAP2 POP POP JUMP JUMPDEST PUSH1 0x0 DUP1 PUSH1 0x0 PUSH1 0x60 DUP5 DUP7 SUB SLT ISZERO PUSH2 0x26E8 JUMPI PUSH2 0x26E7 PUSH2 0x2472 JUMP JUMPDEST JUMPDEST PUSH1 0x0 PUSH2 0x26F6 DUP7 DUP3 DUP8 ADD PUSH2 0x2623 JUMP JUMPDEST SWAP4 POP POP PUSH1 0x20 PUSH2 0x2707 DUP7 DUP3 DUP8 ADD PUSH2 0x2623 JUMP JUMPDEST SWAP3 POP POP PUSH1 0x40 PUSH2 0x2718 DUP7 DUP3 DUP8 ADD PUSH2 0x249D JUMP JUMPDEST SWAP2 POP POP SWAP3 POP SWAP3 POP SWAP3 JUMP JUMPDEST PUSH1 0x0 PUSH1 0x20 DUP3 DUP5 SUB SLT ISZERO PUSH2 0x2738 JUMPI PUSH2 0x2737 PUSH2 0x2472 JUMP JUMPDEST JUMPDEST PUSH1 0x0 PUSH2 0x2746 DUP5 DUP3 DUP6 ADD PUSH2 0x249D JUMP JUMPDEST SWAP2 POP POP SWAP3 SWAP2 POP POP JUMP JUMPDEST PUSH1 0x0 PUSH1 0xFF DUP3 AND SWAP1 POP SWAP2 SWAP1 POP JUMP JUMPDEST PUSH2 0x2765 DUP2 PUSH2 0x274F JUMP JUMPDEST DUP3 MSTORE POP POP JUMP JUMPDEST PUSH1 0x0 PUSH1 0x20 DUP3 ADD SWAP1 POP PUSH2 0x2780 PUSH1 0x0 DUP4 ADD DUP5 PUSH2 0x275C JUMP JUMPDEST SWAP3 SWAP2 POP POP JUMP JUMPDEST PUSH1 0x0 PUSH1 0xC0 DUP3 ADD SWAP1 POP PUSH2 0x279B PUSH1 0x0 DUP4 ADD DUP10 PUSH2 0x2678 JUMP JUMPDEST PUSH2 0x27A8 PUSH1 0x20 DUP4 ADD DUP9 PUSH2 0x2678 JUMP JUMPDEST PUSH2 0x27B5 PUSH1 0x40 DUP4 ADD DUP8 PUSH2 0x2678 JUMP JUMPDEST PUSH2 0x27C2 PUSH1 0x60 DUP4 ADD DUP7 PUSH2 0x2678 JUMP JUMPDEST PUSH2 0x27CF PUSH1 0x80 DUP4 ADD DUP6 PUSH2 0x2678 JUMP JUMPDEST PUSH2 0x27DC PUSH1 0xA0 DUP4 ADD DUP5 PUSH2 0x2678 JUMP JUMPDEST SWAP8 SWAP7 POP POP POP POP POP POP POP JUMP JUMPDEST PUSH1 0x0 DUP1 PUSH1 0x40 DUP4 DUP6 SUB SLT ISZERO PUSH2 0x27FE JUMPI PUSH2 0x27FD PUSH2 0x2472 JUMP JUMPDEST JUMPDEST PUSH1 0x0 PUSH2 0x280C DUP6 DUP3 DUP7 ADD PUSH2 0x2623 JUMP JUMPDEST SWAP3 POP POP PUSH1 0x20 PUSH2 0x281D DUP6 DUP3 DUP7 ADD PUSH2 0x2623 JUMP JUMPDEST SWAP2 POP POP SWAP3 POP SWAP3 SWAP1 POP JUMP JUMPDEST PUSH1 0x0 DUP1 REVERT JUMPDEST PUSH1 0x0 DUP1 REVERT JUMPDEST PUSH32 0x4E487B7100000000000000000000000000000000000000000000000000000000 PUSH1 0x0 MSTORE PUSH1 0x41 PUSH1 0x4 MSTORE PUSH1 0x24 PUSH1 0x0 REVERT JUMPDEST PUSH2 0x2869 DUP3 PUSH2 0x256E JUMP JUMPDEST DUP2 ADD DUP2 DUP2 LT PUSH8 0xFFFFFFFFFFFFFFFF DUP3 GT OR ISZERO PUSH2 0x2888 JUMPI PUSH2 0x2887 PUSH2 0x2831 JUMP JUMPDEST JUMPDEST DUP1 PUSH1 0x40 MSTORE POP POP POP JUMP JUMPDEST PUSH1 0x0 PUSH2 0x289B PUSH2 0x2468 JUMP JUMPDEST SWAP1 POP PUSH2 0x28A7 DUP3 DUP3 PUSH2 0x2860 JUMP JUMPDEST SWAP2 SWAP1 POP JUMP JUMPDEST PUSH1 0x0 PUSH8 0xFFFFFFFFFFFFFFFF DUP3 GT ISZERO PUSH2 0x28C7 JUMPI PUSH2 0x28C6 PUSH2 0x2831 JUMP JUMPDEST JUMPDEST PUSH2 0x28D0 DUP3 PUSH2 0x256E JUMP JUMPDEST SWAP1 POP PUSH1 0x20 DUP2 ADD SWAP1 POP SWAP2 SWAP1 POP JUMP JUMPDEST DUP3 DUP2 DUP4 CALLDATACOPY PUSH1 0x0 DUP4 DUP4 ADD MSTORE POP POP POP JUMP JUMPDEST PUSH1 0x0 PUSH2 0x28FF PUSH2 0x28FA DUP5 PUSH2 0x28AC JUMP JUMPDEST PUSH2 0x2891 JUMP JUMPDEST SWAP1 POP DUP3 DUP2 MSTORE PUSH1 0x20 DUP2 ADD DUP5 DUP5 DUP5 ADD GT ISZERO PUSH2 0x291B JUMPI PUSH2 0x291A PUSH2 0x282C JUMP JUMPDEST JUMPDEST PUSH2 0x2926 DUP5 DUP3 DUP6 PUSH2 0x28DD JUMP JUMPDEST POP SWAP4 SWAP3 POP POP POP JUMP JUMPDEST PUSH1 0x0 DUP3 PUSH1 0x1F DUP4 ADD SLT PUSH2 0x2943 JUMPI PUSH2 0x2942 PUSH2 0x2827 JUMP JUMPDEST JUMPDEST DUP2 CALLDATALOAD PUSH2 0x2953 DUP5 DUP3 PUSH1 0x20 DUP7 ADD PUSH2 0x28EC JUMP JUMPDEST SWAP2 POP POP SWAP3 SWAP2 POP POP JUMP JUMPDEST PUSH1 0x0 DUP1 PUSH1 0x0 DUP1 PUSH1 0x80 DUP6 DUP8 SUB SLT ISZERO PUSH2 0x2976 JUMPI PUSH2 0x2975 PUSH2 0x2472 JUMP JUMPDEST JUMPDEST PUSH1 0x0 PUSH2 0x2984 DUP8 DUP3 DUP9 ADD PUSH2 0x2623 JUMP JUMPDEST SWAP5 POP POP PUSH1 0x20 PUSH2 0x2995 DUP8 DUP3 DUP9 ADD PUSH2 0x249D JUMP JUMPDEST SWAP4 POP POP PUSH1 0x40 PUSH2 0x29A6 DUP8 DUP3 DUP9 ADD PUSH2 0x249D JUMP JUMPDEST SWAP3 POP POP PUSH1 0x60 DUP6 ADD CALLDATALOAD PUSH8 0xFFFFFFFFFFFFFFFF DUP2 GT ISZERO PUSH2 0x29C7 JUMPI PUSH2 0x29C6 PUSH2 0x2477 JUMP JUMPDEST JUMPDEST PUSH2 0x29D3 DUP8 DUP3 DUP9 ADD PUSH2 0x292E JUMP JUMPDEST SWAP2 POP POP SWAP3 SWAP6 SWAP2 SWAP5 POP SWAP3 POP JUMP JUMPDEST PUSH1 0x0 PUSH1 0x20 DUP3 DUP5 SUB SLT ISZERO PUSH2 0x29F5 JUMPI PUSH2 0x29F4 PUSH2 0x2472 JUMP JUMPDEST JUMPDEST PUSH1 0x0 DUP3 ADD CALLDATALOAD PUSH8 0xFFFFFFFFFFFFFFFF DUP2 GT ISZERO PUSH2 0x2A13 JUMPI PUSH2 0x2A12 PUSH2 0x2477 JUMP JUMPDEST JUMPDEST PUSH2 0x2A1F DUP5 DUP3 DUP6 ADD PUSH2 0x292E JUMP JUMPDEST SWAP2 POP POP SWAP3 SWAP2 POP POP JUMP JUMPDEST PUSH32 0x6F6E6C7941646D696E0000000000000000000000000000000000000000000000 PUSH1 0x0 DUP3 ADD MSTORE POP JUMP JUMPDEST PUSH1 0x0 PUSH2 0x2A5E PUSH1 0x9 DUP4 PUSH2 0x2533 JUMP JUMPDEST SWAP2 POP PUSH2 0x2A69 DUP3 PUSH2 0x2A28 JUMP JUMPDEST PUSH1 0x20 DUP3 ADD SWAP1 POP SWAP2 SWAP1 POP JUMP JUMPDEST PUSH1 0x0 PUSH1 0x20 DUP3 ADD SWAP1 POP DUP2 DUP2 SUB PUSH1 0x0 DUP4 ADD MSTORE PUSH2 0x2A8D DUP2 PUSH2 0x2A51 JUMP JUMPDEST SWAP1 POP SWAP2 SWAP1 POP JUMP JUMPDEST PUSH1 0x0 PUSH1 0x40 DUP3 ADD SWAP1 POP PUSH2 0x2AA9 PUSH1 0x0 DUP4 ADD DUP6 PUSH2 0x2678 JUMP JUMPDEST PUSH2 0x2AB6 PUSH1 0x20 DUP4 ADD DUP5 PUSH2 0x2678 JUMP JUMPDEST SWAP4 SWAP3 POP POP POP JUMP JUMPDEST PUSH32 0x4E487B7100000000000000000000000000000000000000000000000000000000 PUSH1 0x0 MSTORE PUSH1 0x22 PUSH1 0x4 MSTORE PUSH1 0x24 PUSH1 0x0 REVERT JUMPDEST PUSH1 0x0 PUSH1 0x2 DUP3 DIV SWAP1 POP PUSH1 0x1 DUP3 AND DUP1 PUSH2 0x2B04 JUMPI PUSH1 0x7F DUP3 AND SWAP2 POP JUMPDEST PUSH1 0x20 DUP3 LT DUP2 SUB PUSH2 0x2B17 JUMPI PUSH2 0x2B16 PUSH2 0x2ABD JUMP JUMPDEST JUMPDEST POP SWAP2 SWAP1 POP JUMP JUMPDEST PUSH32 0x4E487B7100000000000000000000000000000000000000000000000000000000 PUSH1 0x0 MSTORE PUSH1 0x11 PUSH1 0x4 MSTORE PUSH1 0x24 PUSH1 0x0 REVERT JUMPDEST PUSH1 0x0 PUSH2 0x2B57 DUP3 PUSH2 0x247C JUMP JUMPDEST SWAP2 POP PUSH2 0x2B62 DUP4 PUSH2 0x247C JUMP JUMPDEST SWAP3 POP DUP3 DUP3 SUB SWAP1 POP DUP2 DUP2 GT ISZERO PUSH2 0x2B7A JUMPI PUSH2 0x2B79 PUSH2 0x2B1D JUMP JUMPDEST JUMPDEST SWAP3 SWAP2 POP POP JUMP JUMPDEST PUSH1 0x0 PUSH2 0x2B8B DUP3 PUSH2 0x247C JUMP JUMPDEST SWAP2 POP PUSH2 0x2B96 DUP4 PUSH2 0x247C JUMP JUMPDEST SWAP3 POP DUP3 DUP3 ADD SWAP1 POP DUP1 DUP3 GT ISZERO PUSH2 0x2BAE JUMPI PUSH2 0x2BAD PUSH2 0x2B1D JUMP JUMPDEST JUMPDEST SWAP3 SWAP2 POP POP JUMP JUMPDEST PUSH1 0x0 DUP2 SWAP1 POP SWAP3 SWAP2 POP POP JUMP JUMPDEST PUSH1 0x0 PUSH2 0x2BCA DUP3 PUSH2 0x2528 JUMP JUMPDEST PUSH2 0x2BD4 DUP2 DUP6 PUSH2 0x2BB4 JUMP JUMPDEST SWAP4 POP PUSH2 0x2BE4 DUP2 DUP6 PUSH1 0x20 DUP7 ADD PUSH2 0x2544 JUMP JUMPDEST DUP1 DUP5 ADD SWAP2 POP POP SWAP3 SWAP2 POP POP JUMP JUMPDEST PUSH1 0x0 PUSH2 0x2BFC DUP3 DUP5 PUSH2 0x2BBF JUMP JUMPDEST SWAP2 POP DUP2 SWAP1 POP SWAP3 SWAP2 POP POP JUMP JUMPDEST PUSH1 0x0 PUSH2 0x2C12 DUP3 PUSH2 0x247C JUMP JUMPDEST SWAP2 POP PUSH32 0xFFFFFFFFFFFFFFFFFFFFFFFFFFFFFFFFFFFFFFFFFFFFFFFFFFFFFFFFFFFFFFFF DUP3 SUB PUSH2 0x2C44 JUMPI PUSH2 0x2C43 PUSH2 0x2B1D JUMP JUMPDEST JUMPDEST PUSH1 0x1 DUP3 ADD SWAP1 POP SWAP2 SWAP1 POP JUMP JUMPDEST PUSH32 0x4E487B7100000000000000000000000000000000000000000000000000000000 PUSH1 0x0 MSTORE PUSH1 0x12 PUSH1 0x4 MSTORE PUSH1 0x24 PUSH1 0x0 REVERT JUMPDEST PUSH1 0x0 PUSH2 0x2C89 DUP3 PUSH2 0x247C JUMP JUMPDEST SWAP2 POP PUSH2 0x2C94 DUP4 PUSH2 0x247C JUMP JUMPDEST SWAP3 POP DUP3 PUSH2 0x2CA4 JUMPI PUSH2 0x2CA3 PUSH2 0x2C4F JUMP JUMPDEST JUMPDEST DUP3 DUP3 DIV SWAP1 POP SWAP3 SWAP2 POP POP JUMP JUMPDEST PUSH1 0x0 PUSH2 0x2CBA DUP3 PUSH2 0x247C JUMP JUMPDEST SWAP2 POP PUSH2 0x2CC5 DUP4 PUSH2 0x247C JUMP JUMPDEST SWAP3 POP DUP3 PUSH2 0x2CD5 JUMPI PUSH2 0x2CD4 PUSH2 0x2C4F JUMP JUMPDEST JUMPDEST DUP3 DUP3 MOD SWAP1 POP SWAP3 SWAP2 POP POP JUMP JUMPDEST PUSH32 0x4E487B7100000000000000000000000000000000000000000000000000000000 PUSH1 0x0 MSTORE PUSH1 0x32 PUSH1 0x4 MSTORE PUSH1 0x24 PUSH1 0x0 REVERT JUMPDEST PUSH1 0x0 PUSH2 0x2D1A DUP3 PUSH2 0x247C JUMP JUMPDEST SWAP2 POP PUSH2 0x2D25 DUP4 PUSH2 0x247C JUMP JUMPDEST SWAP3 POP DUP3 DUP3 MUL PUSH2 0x2D33 DUP2 PUSH2 0x247C JUMP JUMPDEST SWAP2 POP DUP3 DUP3 DIV DUP5 EQ DUP4 ISZERO OR PUSH2 0x2D4A JUMPI PUSH2 0x2D49 PUSH2 0x2B1D JUMP JUMPDEST JUMPDEST POP SWAP3 SWAP2 POP POP JUMP JUMPDEST PUSH1 0x0 DUP2 SWAP1 POP DUP2 PUSH1 0x0 MSTORE PUSH1 0x20 PUSH1 0x0 KECCAK256 SWAP1 POP SWAP2 SWAP1 POP JUMP JUMPDEST PUSH1 0x0 PUSH1 0x20 PUSH1 0x1F DUP4 ADD DIV SWAP1 POP SWAP2 SWAP1 POP JUMP JUMPDEST PUSH1 0x0 DUP3 DUP3 SHL SWAP1 POP SWAP3 SWAP2 POP POP JUMP JUMPDEST PUSH1 0x0 PUSH1 0x8 DUP4 MUL PUSH2 0x2DB3 PUSH32 0xFFFFFFFFFFFFFFFFFFFFFFFFFFFFFFFFFFFFFFFFFFFFFFFFFFFFFFFFFFFFFFFF DUP3 PUSH2 0x2D76 JUMP JUMPDEST PUSH2 0x2DBD DUP7 DUP4 PUSH2 0x2D76 JUMP JUMPDEST SWAP6 POP DUP1 NOT DUP5 AND SWAP4 POP DUP1 DUP7 AND DUP5 OR SWAP3 POP POP POP SWAP4 SWAP3 POP POP POP JUMP JUMPDEST PUSH1 0x0 DUP2 SWAP1 POP SWAP2 SWAP1 POP JUMP JUMPDEST PUSH1 0x0 PUSH2 0x2DFA PUSH2 0x2DF5 PUSH2 0x2DF0 DUP5 PUSH2 0x247C JUMP JUMPDEST PUSH2 0x2DD5 JUMP JUMPDEST PUSH2 0x247C JUMP JUMPDEST SWAP1 POP SWAP2 SWAP1 POP JUMP JUMPDEST PUSH1 0x0 DUP2 SWAP1 POP SWAP2 SWAP1 POP JUMP JUMPDEST PUSH2 0x2E14 DUP4 PUSH2 0x2DDF JUMP JUMPDEST PUSH2 0x2E28 PUSH2 0x2E20 DUP3 PUSH2 0x2E01 JUMP JUMPDEST DUP5 DUP5 SLOAD PUSH2 0x2D83 JUMP JUMPDEST DUP3 SSTORE POP POP POP POP JUMP JUMPDEST PUSH1 0x0 SWAP1 JUMP JUMPDEST PUSH2 0x2E3D PUSH2 0x2E30 JUMP JUMPDEST PUSH2 0x2E48 DUP2 DUP5 DUP5 PUSH2 0x2E0B JUMP JUMPDEST POP POP POP JUMP JUMPDEST JUMPDEST DUP2 DUP2 LT ISZERO PUSH2 0x2E6C JUMPI PUSH2 0x2E61 PUSH1 0x0 DUP3 PUSH2 0x2E35 JUMP JUMPDEST PUSH1 0x1 DUP2 ADD SWAP1 POP PUSH2 0x2E4E JUMP JUMPDEST POP POP JUMP JUMPDEST PUSH1 0x1F DUP3 GT ISZERO PUSH2 0x2EB1 JUMPI PUSH2 0x2E82 DUP2 PUSH2 0x2D51 JUMP JUMPDEST PUSH2 0x2E8B DUP5 PUSH2 0x2D66 JUMP JUMPDEST DUP2 ADD PUSH1 0x20 DUP6 LT ISZERO PUSH2 0x2E9A JUMPI DUP2 SWAP1 POP JUMPDEST PUSH2 0x2EAE PUSH2 0x2EA6 DUP6 PUSH2 0x2D66 JUMP JUMPDEST DUP4 ADD DUP3 PUSH2 0x2E4D JUMP JUMPDEST POP POP JUMPDEST POP POP POP JUMP JUMPDEST PUSH1 0x0 DUP3 DUP3 SHR SWAP1 POP SWAP3 SWAP2 POP POP JUMP JUMPDEST PUSH1 0x0 PUSH2 0x2ED4 PUSH1 0x0 NOT DUP5 PUSH1 0x8 MUL PUSH2 0x2EB6 JUMP JUMPDEST NOT DUP1 DUP4 AND SWAP2 POP POP SWAP3 SWAP2 POP POP JUMP JUMPDEST PUSH1 0x0 PUSH2 0x2EED DUP4 DUP4 PUSH2 0x2EC3 JUMP JUMPDEST SWAP2 POP DUP3 PUSH1 0x2 MUL DUP3 OR SWAP1 POP SWAP3 SWAP2 POP POP JUMP JUMPDEST PUSH2 0x2F06 DUP3 PUSH2 0x2528 JUMP JUMPDEST PUSH8 0xFFFFFFFFFFFFFFFF DUP2 GT ISZERO PUSH2 0x2F1F JUMPI PUSH2 0x2F1E PUSH2 0x2831 JUMP JUMPDEST JUMPDEST PUSH2 0x2F29 DUP3 SLOAD PUSH2 0x2AEC JUMP JUMPDEST PUSH2 0x2F34 DUP3 DUP3 DUP6 PUSH2 0x2E70 JUMP JUMPDEST PUSH1 0x0 PUSH1 0x20 SWAP1 POP PUSH1 0x1F DUP4 GT PUSH1 0x1 DUP2 EQ PUSH2 0x2F67 JUMPI PUSH1 0x0 DUP5 ISZERO PUSH2 0x2F55 JUMPI DUP3 DUP8 ADD MLOAD SWAP1 POP JUMPDEST PUSH2 0x2F5F DUP6 DUP3 PUSH2 0x2EE1 JUMP JUMPDEST DUP7 SSTORE POP PUSH2 0x2FC7 JUMP JUMPDEST PUSH1 0x1F NOT DUP5 AND PUSH2 0x2F75 DUP7 PUSH2 0x2D51 JUMP JUMPDEST PUSH1 0x0 JUMPDEST DUP3 DUP2 LT ISZERO PUSH2 0x2F9D JUMPI DUP5 DUP10 ADD MLOAD DUP3 SSTORE PUSH1 0x1 DUP3 ADD SWAP2 POP PUSH1 0x20 DUP6 ADD SWAP5 POP PUSH1 0x20 DUP2 ADD SWAP1 POP PUSH2 0x2F78 JUMP JUMPDEST DUP7 DUP4 LT ISZERO PUSH2 0x2FBA JUMPI DUP5 DUP10 ADD MLOAD PUSH2 0x2FB6 PUSH1 0x1F DUP10 AND DUP3 PUSH2 0x2EC3 JUMP JUMPDEST DUP4 SSTORE POP JUMPDEST PUSH1 0x1 PUSH1 0x2 DUP9 MUL ADD DUP9 SSTORE POP POP POP JUMPDEST POP POP POP POP POP POP JUMP INVALID LOG2 PUSH5 0x6970667358 0x22 SLT KECCAK256 SHL 0xBA 0x5F EXTCODECOPY SWAP1 CODECOPY 0xDC CHAINID 0xAC 0x21 DUP1 SWAP12 0xA8 JUMPI 0xCD NOT LOG1 JUMPDEST 0x25 SWAP4 0xC9 MSTORE8 0xA8 PUSH3 0x7E9C7E 0x5E SWAP10 DELEGATECALL 0xB5 0x4D PUSH5 0x736F6C6343 STOP ADDMOD SLT STOP CALLER "
				},
				"gasEstimates": {
					"creation": {
						"codeDepositCost": "2458600",
						"executionCost": "infinite",
						"totalCost": "infinite"
					},
					"external": {
						"allowance(address,address)": "infinite",
						"approve(address,uint256)": "infinite",
						"balanceOf(address)": "2886",
						"burn(uint256)": "infinite",
						"decimals()": "2575",
						"fetchSettings()": "infinite",
						"grantPermissionAdmin(address)": "29730",
						"maxSupply()": "2532",
						"mint(address,uint256)": "infinite",
						"mintWithVesting(address,uint256,uint256,string)": "infinite",
						"mintable()": "2554",
						"name()": "infinite",
						"release(string)": "infinite",
						"revokePermissionAdmin(address)": "29641",
						"stake(uint256)": "infinite",
						"stakeOf(address)": "2908",
						"symbol()": "infinite",
						"totalStaked()": "2532",
						"totalSupply()": "2555",
						"totalVotes()": "2533",
						"transfer(address,uint256)": "infinite",
						"transferFrom(address,address,uint256)": "infinite",
						"unstake(uint256)": "infinite",
						"update(address)": "28533",
						"updateSettings(uint256,uint256)": "infinite",
						"votesOf(address)": "2908"
					},
					"internal": {
						"burn_(address,uint256)": "infinite",
						"mintWithVesting_(address,uint256,uint256,string memory)": "infinite",
						"mint_(address,uint256)": "infinite",
						"transfer_(address,address,uint256,uint256,uint256)": "infinite"
					}
				},
				"methodIdentifiers": {
					"allowance(address,address)": "dd62ed3e",
					"approve(address,uint256)": "095ea7b3",
					"balanceOf(address)": "70a08231",
					"burn(uint256)": "42966c68",
					"decimals()": "313ce567",
					"fetchSettings()": "4c496d4f",
					"grantPermissionAdmin(address)": "96b75b1a",
					"maxSupply()": "d5abeb01",
					"mint(address,uint256)": "40c10f19",
					"mintWithVesting(address,uint256,uint256,string)": "e4f1b27c",
					"mintable()": "4bf365df",
					"name()": "06fdde03",
					"release(string)": "f34e3723",
					"revokePermissionAdmin(address)": "db3c5fca",
					"stake(uint256)": "a694fc3a",
					"stakeOf(address)": "42623360",
					"symbol()": "95d89b41",
					"totalStaked()": "817b1cd2",
					"totalSupply()": "18160ddd",
					"totalVotes()": "0d15fd77",
					"transfer(address,uint256)": "a9059cbb",
					"transferFrom(address,address,uint256)": "23b872dd",
					"unstake(uint256)": "2e17de78",
					"update(address)": "1c1b8772",
					"updateSettings(uint256,uint256)": "015af8ee",
					"votesOf(address)": "79ec5d3a"
				}
			},
			"storageLayout": {
				"storage": [
					{
						"astId": 104,
						"contract": "smart_contracts/contracts/Token.sol:Token",
						"label": "admin",
						"offset": 0,
						"slot": "0",
						"type": "t_mapping(t_address,t_bool)"
					},
					{
						"astId": 141,
						"contract": "smart_contracts/contracts/Token.sol:Token",
						"label": "settings",
						"offset": 0,
						"slot": "1",
						"type": "t_struct(Settings)100_storage"
					},
					{
						"astId": 144,
						"contract": "smart_contracts/contracts/Token.sol:Token",
						"label": "meta",
						"offset": 0,
						"slot": "7",
						"type": "t_struct(Meta)125_storage"
					},
					{
						"astId": 148,
						"contract": "smart_contracts/contracts/Token.sol:Token",
						"label": "balance",
						"offset": 0,
						"slot": "17",
						"type": "t_mapping(t_address,t_uint256)"
					},
					{
						"astId": 152,
						"contract": "smart_contracts/contracts/Token.sol:Token",
						"label": "staked",
						"offset": 0,
						"slot": "18",
						"type": "t_mapping(t_address,t_uint256)"
					},
					{
						"astId": 156,
						"contract": "smart_contracts/contracts/Token.sol:Token",
						"label": "votes",
						"offset": 0,
						"slot": "19",
						"type": "t_mapping(t_address,t_uint256)"
					},
					{
						"astId": 162,
						"contract": "smart_contracts/contracts/Token.sol:Token",
						"label": "allowed",
						"offset": 0,
						"slot": "20",
						"type": "t_mapping(t_address,t_mapping(t_address,t_uint256))"
					},
					{
						"astId": 169,
						"contract": "smart_contracts/contracts/Token.sol:Token",
						"label": "schedules",
						"offset": 0,
						"slot": "21",
						"type": "t_mapping(t_address,t_mapping(t_string_memory_ptr,t_struct(VestingSchedule)138_storage))"
					}
				],
				"types": {
					"t_address": {
						"encoding": "inplace",
						"label": "address",
						"numberOfBytes": "20"
					},
					"t_bool": {
						"encoding": "inplace",
						"label": "bool",
						"numberOfBytes": "1"
					},
					"t_mapping(t_address,t_bool)": {
						"encoding": "mapping",
						"key": "t_address",
						"label": "mapping(address => bool)",
						"numberOfBytes": "32",
						"value": "t_bool"
					},
					"t_mapping(t_address,t_mapping(t_address,t_uint256))": {
						"encoding": "mapping",
						"key": "t_address",
						"label": "mapping(address => mapping(address => uint256))",
						"numberOfBytes": "32",
						"value": "t_mapping(t_address,t_uint256)"
					},
					"t_mapping(t_address,t_mapping(t_string_memory_ptr,t_struct(VestingSchedule)138_storage))": {
						"encoding": "mapping",
						"key": "t_address",
						"label": "mapping(address => mapping(string => struct State.VestingSchedule))",
						"numberOfBytes": "32",
						"value": "t_mapping(t_string_memory_ptr,t_struct(VestingSchedule)138_storage)"
					},
					"t_mapping(t_address,t_uint256)": {
						"encoding": "mapping",
						"key": "t_address",
						"label": "mapping(address => uint256)",
						"numberOfBytes": "32",
						"value": "t_uint256"
					},
					"t_mapping(t_string_memory_ptr,t_struct(VestingSchedule)138_storage)": {
						"encoding": "mapping",
						"key": "t_string_memory_ptr",
						"label": "mapping(string => struct State.VestingSchedule)",
						"numberOfBytes": "32",
						"value": "t_struct(VestingSchedule)138_storage"
					},
					"t_string_memory_ptr": {
						"encoding": "bytes",
						"label": "string",
						"numberOfBytes": "32"
					},
					"t_string_storage": {
						"encoding": "bytes",
						"label": "string",
						"numberOfBytes": "32"
					},
					"t_struct(Meta)125_storage": {
						"encoding": "inplace",
						"label": "struct State.Meta",
						"members": [
							{
								"astId": 106,
								"contract": "smart_contracts/contracts/Token.sol:Token",
								"label": "name",
								"offset": 0,
								"slot": "0",
								"type": "t_string_storage"
							},
							{
								"astId": 108,
								"contract": "smart_contracts/contracts/Token.sol:Token",
								"label": "symbol",
								"offset": 0,
								"slot": "1",
								"type": "t_string_storage"
							},
							{
								"astId": 110,
								"contract": "smart_contracts/contracts/Token.sol:Token",
								"label": "decimals",
								"offset": 0,
								"slot": "2",
								"type": "t_uint8"
							},
							{
								"astId": 112,
								"contract": "smart_contracts/contracts/Token.sol:Token",
								"label": "mintable",
								"offset": 0,
								"slot": "3",
								"type": "t_uint256"
							},
							{
								"astId": 114,
								"contract": "smart_contracts/contracts/Token.sol:Token",
								"label": "totalSupply",
								"offset": 0,
								"slot": "4",
								"type": "t_uint256"
							},
							{
								"astId": 116,
								"contract": "smart_contracts/contracts/Token.sol:Token",
								"label": "totalStaked",
								"offset": 0,
								"slot": "5",
								"type": "t_uint256"
							},
							{
								"astId": 118,
								"contract": "smart_contracts/contracts/Token.sol:Token",
								"label": "totalVested",
								"offset": 0,
								"slot": "6",
								"type": "t_uint256"
							},
							{
								"astId": 120,
								"contract": "smart_contracts/contracts/Token.sol:Token",
								"label": "totalVotes",
								"offset": 0,
								"slot": "7",
								"type": "t_uint256"
							},
							{
								"astId": 122,
								"contract": "smart_contracts/contracts/Token.sol:Token",
								"label": "maxSupply",
								"offset": 0,
								"slot": "8",
								"type": "t_uint256"
							},
							{
								"astId": 124,
								"contract": "smart_contracts/contracts/Token.sol:Token",
								"label": "vault",
								"offset": 0,
								"slot": "9",
								"type": "t_address"
							}
						],
						"numberOfBytes": "320"
					},
					"t_struct(Settings)100_storage": {
						"encoding": "inplace",
						"label": "struct State.Settings",
						"members": [
							{
								"astId": 89,
								"contract": "smart_contracts/contracts/Token.sol:Token",
								"label": "bpTransferBurnMin",
								"offset": 0,
								"slot": "0",
								"type": "t_uint256"
							},
							{
								"astId": 91,
								"contract": "smart_contracts/contracts/Token.sol:Token",
								"label": "bpTransferBankMin",
								"offset": 0,
								"slot": "1",
								"type": "t_uint256"
							},
							{
								"astId": 93,
								"contract": "smart_contracts/contracts/Token.sol:Token",
								"label": "bpTransferBurnMax",
								"offset": 0,
								"slot": "2",
								"type": "t_uint256"
							},
							{
								"astId": 95,
								"contract": "smart_contracts/contracts/Token.sol:Token",
								"label": "bpTransferBankMax",
								"offset": 0,
								"slot": "3",
								"type": "t_uint256"
							},
							{
								"astId": 97,
								"contract": "smart_contracts/contracts/Token.sol:Token",
								"label": "bpTransferBurn",
								"offset": 0,
								"slot": "4",
								"type": "t_uint256"
							},
							{
								"astId": 99,
								"contract": "smart_contracts/contracts/Token.sol:Token",
								"label": "bpTransferBank",
								"offset": 0,
								"slot": "5",
								"type": "t_uint256"
							}
						],
						"numberOfBytes": "192"
					},
					"t_struct(VestingSchedule)138_storage": {
						"encoding": "inplace",
						"label": "struct State.VestingSchedule",
						"members": [
							{
								"astId": 127,
								"contract": "smart_contracts/contracts/Token.sol:Token",
								"label": "caption",
								"offset": 0,
								"slot": "0",
								"type": "t_string_storage"
							},
							{
								"astId": 129,
								"contract": "smart_contracts/contracts/Token.sol:Token",
								"label": "duration",
								"offset": 0,
								"slot": "1",
								"type": "t_uint256"
							},
							{
								"astId": 131,
								"contract": "smart_contracts/contracts/Token.sol:Token",
								"label": "start",
								"offset": 0,
								"slot": "2",
								"type": "t_uint256"
							},
							{
								"astId": 133,
								"contract": "smart_contracts/contracts/Token.sol:Token",
								"label": "end",
								"offset": 0,
								"slot": "3",
								"type": "t_uint256"
							},
							{
								"astId": 135,
								"contract": "smart_contracts/contracts/Token.sol:Token",
								"label": "value",
								"offset": 0,
								"slot": "4",
								"type": "t_uint256"
							},
							{
								"astId": 137,
								"contract": "smart_contracts/contracts/Token.sol:Token",
								"label": "used",
								"offset": 0,
								"slot": "5",
								"type": "t_bool"
							}
						],
						"numberOfBytes": "192"
					},
					"t_uint256": {
						"encoding": "inplace",
						"label": "uint256",
						"numberOfBytes": "32"
					},
					"t_uint8": {
						"encoding": "inplace",
						"label": "uint8",
						"numberOfBytes": "1"
					}
				}
			},
			"userdoc": {
				"kind": "user",
				"methods": {},
				"version": 1
			}
		}
	}
}