{
	"smart_contracts/contracts/token/Token.sol": {
		"Token": {
			"abi": [
				{
					"inputs": [],
					"stateMutability": "nonpayable",
					"type": "constructor"
				},
				{
					"anonymous": false,
					"inputs": [
						{
							"indexed": true,
							"internalType": "address",
							"name": "_owner",
							"type": "address"
						},
						{
							"indexed": true,
							"internalType": "address",
							"name": "_spender",
							"type": "address"
						},
						{
							"indexed": false,
							"internalType": "uint256",
							"name": "_value",
							"type": "uint256"
						}
					],
					"name": "Approval",
					"type": "event"
				},
				{
					"anonymous": false,
					"inputs": [
						{
							"indexed": true,
							"internalType": "address",
							"name": "_from",
							"type": "address"
						},
						{
							"indexed": true,
							"internalType": "address",
							"name": "_to",
							"type": "address"
						},
						{
							"indexed": false,
							"internalType": "uint256",
							"name": "_value",
							"type": "uint256"
						}
					],
					"name": "Transfer",
					"type": "event"
				},
				{
					"inputs": [
						{
							"internalType": "address",
							"name": "_owner",
							"type": "address"
						},
						{
							"internalType": "address",
							"name": "_spender",
							"type": "address"
						}
					],
					"name": "allowance",
					"outputs": [
						{
							"internalType": "uint256",
							"name": "remaining",
							"type": "uint256"
						}
					],
					"stateMutability": "view",
					"type": "function"
				},
				{
					"inputs": [
						{
							"internalType": "address",
							"name": "_spender",
							"type": "address"
						},
						{
							"internalType": "uint256",
							"name": "_value",
							"type": "uint256"
						}
					],
					"name": "approve",
					"outputs": [
						{
							"internalType": "bool",
							"name": "success",
							"type": "bool"
						}
					],
					"stateMutability": "nonpayable",
					"type": "function"
				},
				{
					"inputs": [
						{
							"internalType": "address",
							"name": "_owner",
							"type": "address"
						}
					],
					"name": "balanceOf",
					"outputs": [
						{
							"internalType": "uint256",
							"name": "",
							"type": "uint256"
						}
					],
					"stateMutability": "view",
					"type": "function"
				},
				{
					"inputs": [],
					"name": "decimals",
					"outputs": [
						{
							"internalType": "uint8",
							"name": "",
							"type": "uint8"
						}
					],
					"stateMutability": "view",
					"type": "function"
				},
				{
					"inputs": [
						{
							"internalType": "address",
							"name": "_spender",
							"type": "address"
						},
						{
							"internalType": "uint256",
							"name": "_value",
							"type": "uint256"
						}
					],
					"name": "decreaseAllowance",
					"outputs": [
						{
							"internalType": "bool",
							"name": "",
							"type": "bool"
						}
					],
					"stateMutability": "nonpayable",
					"type": "function"
				},
				{
					"inputs": [
						{
							"internalType": "address",
							"name": "_spender",
							"type": "address"
						},
						{
							"internalType": "uint256",
							"name": "_value",
							"type": "uint256"
						}
					],
					"name": "increaseAllowance",
					"outputs": [
						{
							"internalType": "bool",
							"name": "",
							"type": "bool"
						}
					],
					"stateMutability": "nonpayable",
					"type": "function"
				},
				{
					"inputs": [],
					"name": "maxSupply",
					"outputs": [
						{
							"internalType": "uint256",
							"name": "",
							"type": "uint256"
						}
					],
					"stateMutability": "view",
					"type": "function"
				},
				{
					"inputs": [],
					"name": "name",
					"outputs": [
						{
							"internalType": "string",
							"name": "",
							"type": "string"
						}
					],
					"stateMutability": "view",
					"type": "function"
				},
				{
					"inputs": [],
					"name": "symbol",
					"outputs": [
						{
							"internalType": "string",
							"name": "",
							"type": "string"
						}
					],
					"stateMutability": "view",
					"type": "function"
				},
				{
					"inputs": [],
					"name": "totalSupply",
					"outputs": [
						{
							"internalType": "uint256",
							"name": "",
							"type": "uint256"
						}
					],
					"stateMutability": "view",
					"type": "function"
				},
				{
					"inputs": [
						{
							"internalType": "address",
							"name": "_to",
							"type": "address"
						},
						{
							"internalType": "uint256",
							"name": "_value",
							"type": "uint256"
						}
					],
					"name": "transfer",
					"outputs": [
						{
							"internalType": "bool",
							"name": "sucess",
							"type": "bool"
						}
					],
					"stateMutability": "nonpayable",
					"type": "function"
				},
				{
					"inputs": [
						{
							"internalType": "address",
							"name": "_from",
							"type": "address"
						},
						{
							"internalType": "address",
							"name": "_to",
							"type": "address"
						},
						{
							"internalType": "uint256",
							"name": "_value",
							"type": "uint256"
						}
					],
					"name": "transferFrom",
					"outputs": [
						{
							"internalType": "bool",
							"name": "",
							"type": "bool"
						}
					],
					"stateMutability": "nonpayable",
					"type": "function"
				}
			],
			"devdoc": {
				"kind": "dev",
				"methods": {},
				"version": 1
			},
			"evm": {
				"assembly": "    /* \"smart_contracts/contracts/token/Token.sol\":614:4750  contract Token is TokenState {... */\n  mstore(0x40, 0x80)\n    /* \"smart_contracts/contracts/token/Token.sol\":817:1232  constructor() {... */\n  callvalue\n  dup1\n  iszero\n  tag_1\n  jumpi\n  0x00\n  dup1\n  revert\ntag_1:\n  pop\n    /* \"smart_contracts/contracts/token/Token.sol\":841:867  meta.name = \"Dreamcatcher\" */\n  mload(0x40)\n  dup1\n  0x40\n  add\n  0x40\n  mstore\n  dup1\n  0x0c\n  dup2\n  mstore\n  0x20\n  add\n  0x447265616d636174636865720000000000000000000000000000000000000000\n  dup2\n  mstore\n  pop\n    /* \"smart_contracts/contracts/token/Token.sol\":841:845  meta */\n  0x01\n    /* \"smart_contracts/contracts/token/Token.sol\":841:850  meta.name */\n  0x00\n  add\n    /* \"smart_contracts/contracts/token/Token.sol\":841:867  meta.name = \"Dreamcatcher\" */\n  swap1\n  dup2\n  tag_4\n  swap2\n  swap1\n  tag_5\n  jump\t// in\ntag_4:\n  pop\n    /* \"smart_contracts/contracts/token/Token.sol\":877:898  meta.symbol = \"DREAM\" */\n  mload(0x40)\n  dup1\n  0x40\n  add\n  0x40\n  mstore\n  dup1\n  0x05\n  dup2\n  mstore\n  0x20\n  add\n  0x445245414d000000000000000000000000000000000000000000000000000000\n  dup2\n  mstore\n  pop\n    /* \"smart_contracts/contracts/token/Token.sol\":877:881  meta */\n  0x01\n    /* \"smart_contracts/contracts/token/Token.sol\":877:888  meta.symbol */\n  dup1\n  add\n    /* \"smart_contracts/contracts/token/Token.sol\":877:898  meta.symbol = \"DREAM\" */\n  swap1\n  dup2\n  tag_6\n  swap2\n  swap1\n  tag_5\n  jump\t// in\ntag_6:\n  pop\n    /* \"smart_contracts/contracts/token/Token.sol\":924:926  18 */\n  0x12\n    /* \"smart_contracts/contracts/token/Token.sol\":908:912  meta */\n  0x01\n    /* \"smart_contracts/contracts/token/Token.sol\":908:921  meta.decimals */\n  0x02\n  add\n  0x00\n    /* \"smart_contracts/contracts/token/Token.sol\":908:926  meta.decimals = 18 */\n  0x0100\n  exp\n  dup2\n  sload\n  dup2\n  0xff\n  mul\n  not\n  and\n  swap1\n  dup4\n  0xff\n  and\n  mul\n  or\n  swap1\n  sstore\n  pop\n    /* \"smart_contracts/contracts/token/Token.sol\":955:956  0 */\n  0x00\n    /* \"smart_contracts/contracts/token/Token.sol\":936:940  meta */\n  0x01\n    /* \"smart_contracts/contracts/token/Token.sol\":936:952  meta.totalSupply */\n  0x03\n  add\n    /* \"smart_contracts/contracts/token/Token.sol\":936:956  meta.totalSupply = 0 */\n  dup2\n  swap1\n  sstore\n  pop\n    /* \"smart_contracts/contracts/token/Token.sol\":1096:1100  meta */\n  0x01\n    /* \"smart_contracts/contracts/token/Token.sol\":1096:1109  meta.decimals */\n  0x02\n  add\n  0x00\n  swap1\n  sload\n  swap1\n  0x0100\n  exp\n  swap1\n  div\n  0xff\n  and\n    /* \"smart_contracts/contracts/token/Token.sol\":1092:1094  10 */\n  0x0a\n    /* \"smart_contracts/contracts/token/Token.sol\":1092:1109  10**meta.decimals */\n  tag_7\n  swap2\n  swap1\n  tag_8\n  jump\t// in\ntag_7:\n    /* \"smart_contracts/contracts/token/Token.sol\":1080:1089  200000000 */\n  0x0bebc200\n    /* \"smart_contracts/contracts/token/Token.sol\":1080:1109  200000000 * 10**meta.decimals */\n  tag_9\n  swap2\n  swap1\n  tag_10\n  jump\t// in\ntag_9:\n    /* \"smart_contracts/contracts/token/Token.sol\":1063:1067  meta */\n  0x01\n    /* \"smart_contracts/contracts/token/Token.sol\":1063:1077  meta.maxSupply */\n  0x04\n  add\n    /* \"smart_contracts/contracts/token/Token.sol\":1063:1109  meta.maxSupply = 200000000 * 10**meta.decimals */\n  dup2\n  swap1\n  sstore\n  pop\n    /* \"smart_contracts/contracts/token/Token.sol\":1153:1183  mint(sender(), meta.maxSupply) */\n  tag_11\n    /* \"smart_contracts/contracts/token/Token.sol\":1158:1166  sender() */\n  tag_12\n    /* \"smart_contracts/contracts/token/Token.sol\":1158:1164  sender */\n  shl(0x20, tag_13)\n    /* \"smart_contracts/contracts/token/Token.sol\":1158:1166  sender() */\n  0x20\n  shr\n  jump\t// in\ntag_12:\n    /* \"smart_contracts/contracts/token/Token.sol\":1168:1172  meta */\n  0x01\n    /* \"smart_contracts/contracts/token/Token.sol\":1168:1182  meta.maxSupply */\n  0x04\n  add\n  sload\n    /* \"smart_contracts/contracts/token/Token.sol\":1153:1157  mint */\n  shl(0x20, tag_14)\n    /* \"smart_contracts/contracts/token/Token.sol\":1153:1183  mint(sender(), meta.maxSupply) */\n  0x20\n  shr\n  jump\t// in\ntag_11:\n    /* \"smart_contracts/contracts/token/Token.sol\":1224:1225  5 */\n  0x05\n    /* \"smart_contracts/contracts/token/Token.sol\":1193:1201  settings */\n  0x00\n    /* \"smart_contracts/contracts/token/Token.sol\":1193:1221  settings.percentTransferBurn */\n  dup1\n  add\n    /* \"smart_contracts/contracts/token/Token.sol\":1193:1225  settings.percentTransferBurn = 5 */\n  dup2\n  swap1\n  sstore\n  pop\n    /* \"smart_contracts/contracts/token/Token.sol\":614:4750  contract Token is TokenState {... */\n  jump(tag_15)\n    /* \"smart_contracts/contracts/token/Token.sol\":81:151  function sender() internal view returns (address) {return msg.sender;} */\ntag_13:\n    /* \"smart_contracts/contracts/token/Token.sol\":122:129  address */\n  0x00\n    /* \"smart_contracts/contracts/token/Token.sol\":139:149  msg.sender */\n  caller\n    /* \"smart_contracts/contracts/token/Token.sol\":132:149  return msg.sender */\n  swap1\n  pop\n    /* \"smart_contracts/contracts/token/Token.sol\":81:151  function sender() internal view returns (address) {return msg.sender;} */\n  swap1\n  jump\t// out\n    /* \"smart_contracts/contracts/token/Token.sol\":4186:4475  function mint(address _to, uint256 _value) internal {... */\ntag_14:\n    /* \"smart_contracts/contracts/token/Token.sol\":4271:4272  0 */\n  0x00\n    /* \"smart_contracts/contracts/token/Token.sol\":4256:4273  _to != address(0) */\n  0xffffffffffffffffffffffffffffffffffffffff\n  and\n    /* \"smart_contracts/contracts/token/Token.sol\":4256:4259  _to */\n  dup3\n    /* \"smart_contracts/contracts/token/Token.sol\":4256:4273  _to != address(0) */\n  0xffffffffffffffffffffffffffffffffffffffff\n  and\n  sub\n    /* \"smart_contracts/contracts/token/Token.sol\":4248:4290  require(_to != address(0), \"zero address\") */\n  tag_18\n  jumpi\n  mload(0x40)\n  0x08c379a000000000000000000000000000000000000000000000000000000000\n  dup2\n  mstore\n  0x04\n  add\n  tag_19\n  swap1\n  tag_20\n  jump\t// in\ntag_19:\n  mload(0x40)\n  dup1\n  swap2\n  sub\n  swap1\n  revert\ntag_18:\n    /* \"smart_contracts/contracts/token/Token.sol\":4337:4341  meta */\n  0x01\n    /* \"smart_contracts/contracts/token/Token.sol\":4337:4351  meta.maxSupply */\n  0x04\n  add\n  sload\n    /* \"smart_contracts/contracts/token/Token.sol\":4327:4333  _value */\n  dup2\n    /* \"smart_contracts/contracts/token/Token.sol\":4308:4312  meta */\n  0x01\n    /* \"smart_contracts/contracts/token/Token.sol\":4308:4324  meta.totalSupply */\n  0x03\n  add\n  sload\n    /* \"smart_contracts/contracts/token/Token.sol\":4308:4333  meta.totalSupply + _value */\n  tag_21\n  swap2\n  swap1\n  tag_22\n  jump\t// in\ntag_21:\n    /* \"smart_contracts/contracts/token/Token.sol\":4308:4351  meta.totalSupply + _value <= meta.maxSupply */\n  gt\n  iszero\n    /* \"smart_contracts/contracts/token/Token.sol\":4300:4352  require(meta.totalSupply + _value <= meta.maxSupply) */\n  tag_23\n  jumpi\n  0x00\n  dup1\n  revert\ntag_23:\n    /* \"smart_contracts/contracts/token/Token.sol\":4382:4388  _value */\n  dup1\n    /* \"smart_contracts/contracts/token/Token.sol\":4362:4366  meta */\n  0x01\n    /* \"smart_contracts/contracts/token/Token.sol\":4362:4378  meta.totalSupply */\n  0x03\n  add\n  0x00\n    /* \"smart_contracts/contracts/token/Token.sol\":4362:4388  meta.totalSupply += _value */\n  dup3\n  dup3\n  sload\n  tag_24\n  swap2\n  swap1\n  tag_22\n  jump\t// in\ntag_24:\n  swap3\n  pop\n  pop\n  dup2\n  swap1\n  sstore\n  pop\n    /* \"smart_contracts/contracts/token/Token.sol\":4414:4420  _value */\n  dup1\n    /* \"smart_contracts/contracts/token/Token.sol\":4398:4405  balance */\n  0x06\n    /* \"smart_contracts/contracts/token/Token.sol\":4398:4410  balance[_to] */\n  0x00\n    /* \"smart_contracts/contracts/token/Token.sol\":4406:4409  _to */\n  dup5\n    /* \"smart_contracts/contracts/token/Token.sol\":4398:4410  balance[_to] */\n  0xffffffffffffffffffffffffffffffffffffffff\n  and\n  0xffffffffffffffffffffffffffffffffffffffff\n  and\n  dup2\n  mstore\n  0x20\n  add\n  swap1\n  dup2\n  mstore\n  0x20\n  add\n  0x00\n  keccak256\n  0x00\n    /* \"smart_contracts/contracts/token/Token.sol\":4398:4420  balance[_to] += _value */\n  dup3\n  dup3\n  sload\n  tag_25\n  swap2\n  swap1\n  tag_22\n  jump\t// in\ntag_25:\n  swap3\n  pop\n  pop\n  dup2\n  swap1\n  sstore\n  pop\n    /* \"smart_contracts/contracts/token/Token.sol\":4456:4459  _to */\n  dup2\n    /* \"smart_contracts/contracts/token/Token.sol\":4435:4468  Transfer(address(0), _to, _value) */\n  0xffffffffffffffffffffffffffffffffffffffff\n  and\n    /* \"smart_contracts/contracts/token/Token.sol\":4452:4453  0 */\n  0x00\n    /* \"smart_contracts/contracts/token/Token.sol\":4435:4468  Transfer(address(0), _to, _value) */\n  0xffffffffffffffffffffffffffffffffffffffff\n  and\n  0xddf252ad1be2c89b69c2b068fc378daa952ba7f163c4a11628f55a4df523b3ef\n    /* \"smart_contracts/contracts/token/Token.sol\":4461:4467  _value */\n  dup4\n    /* \"smart_contracts/contracts/token/Token.sol\":4435:4468  Transfer(address(0), _to, _value) */\n  mload(0x40)\n  tag_26\n  swap2\n  swap1\n  tag_27\n  jump\t// in\ntag_26:\n  mload(0x40)\n  dup1\n  swap2\n  sub\n  swap1\n  log3\n    /* \"smart_contracts/contracts/token/Token.sol\":4186:4475  function mint(address _to, uint256 _value) internal {... */\n  pop\n  pop\n  jump\t// out\n    /* \"#utility.yul\":7:106   */\ntag_28:\n    /* \"#utility.yul\":59:65   */\n  0x00\n    /* \"#utility.yul\":93:98   */\n  dup2\n    /* \"#utility.yul\":87:99   */\n  mload\n    /* \"#utility.yul\":77:99   */\n  swap1\n  pop\n    /* \"#utility.yul\":7:106   */\n  swap2\n  swap1\n  pop\n  jump\t// out\n    /* \"#utility.yul\":112:292   */\ntag_29:\n    /* \"#utility.yul\":160:237   */\n  0x4e487b7100000000000000000000000000000000000000000000000000000000\n    /* \"#utility.yul\":157:158   */\n  0x00\n    /* \"#utility.yul\":150:238   */\n  mstore\n    /* \"#utility.yul\":257:261   */\n  0x41\n    /* \"#utility.yul\":254:255   */\n  0x04\n    /* \"#utility.yul\":247:262   */\n  mstore\n    /* \"#utility.yul\":281:285   */\n  0x24\n    /* \"#utility.yul\":278:279   */\n  0x00\n    /* \"#utility.yul\":271:286   */\n  revert\n    /* \"#utility.yul\":298:478   */\ntag_30:\n    /* \"#utility.yul\":346:423   */\n  0x4e487b7100000000000000000000000000000000000000000000000000000000\n    /* \"#utility.yul\":343:344   */\n  0x00\n    /* \"#utility.yul\":336:424   */\n  mstore\n    /* \"#utility.yul\":443:447   */\n  0x22\n    /* \"#utility.yul\":440:441   */\n  0x04\n    /* \"#utility.yul\":433:448   */\n  mstore\n    /* \"#utility.yul\":467:471   */\n  0x24\n    /* \"#utility.yul\":464:465   */\n  0x00\n    /* \"#utility.yul\":457:472   */\n  revert\n    /* \"#utility.yul\":484:804   */\ntag_31:\n    /* \"#utility.yul\":528:534   */\n  0x00\n    /* \"#utility.yul\":565:566   */\n  0x02\n    /* \"#utility.yul\":559:563   */\n  dup3\n    /* \"#utility.yul\":555:567   */\n  div\n    /* \"#utility.yul\":545:567   */\n  swap1\n  pop\n    /* \"#utility.yul\":612:613   */\n  0x01\n    /* \"#utility.yul\":606:610   */\n  dup3\n    /* \"#utility.yul\":602:614   */\n  and\n    /* \"#utility.yul\":633:651   */\n  dup1\n    /* \"#utility.yul\":623:704   */\n  tag_62\n  jumpi\n    /* \"#utility.yul\":689:693   */\n  0x7f\n    /* \"#utility.yul\":681:687   */\n  dup3\n    /* \"#utility.yul\":677:694   */\n  and\n    /* \"#utility.yul\":667:694   */\n  swap2\n  pop\n    /* \"#utility.yul\":623:704   */\ntag_62:\n    /* \"#utility.yul\":751:753   */\n  0x20\n    /* \"#utility.yul\":743:749   */\n  dup3\n    /* \"#utility.yul\":740:754   */\n  lt\n    /* \"#utility.yul\":720:738   */\n  dup2\n    /* \"#utility.yul\":717:755   */\n  sub\n    /* \"#utility.yul\":714:798   */\n  tag_63\n  jumpi\n    /* \"#utility.yul\":770:788   */\n  tag_64\n  tag_30\n  jump\t// in\ntag_64:\n    /* \"#utility.yul\":714:798   */\ntag_63:\n    /* \"#utility.yul\":535:804   */\n  pop\n    /* \"#utility.yul\":484:804   */\n  swap2\n  swap1\n  pop\n  jump\t// out\n    /* \"#utility.yul\":810:951   */\ntag_32:\n    /* \"#utility.yul\":859:863   */\n  0x00\n    /* \"#utility.yul\":882:885   */\n  dup2\n    /* \"#utility.yul\":874:885   */\n  swap1\n  pop\n    /* \"#utility.yul\":905:908   */\n  dup2\n    /* \"#utility.yul\":902:903   */\n  0x00\n    /* \"#utility.yul\":895:909   */\n  mstore\n    /* \"#utility.yul\":939:943   */\n  0x20\n    /* \"#utility.yul\":936:937   */\n  0x00\n    /* \"#utility.yul\":926:944   */\n  keccak256\n    /* \"#utility.yul\":918:944   */\n  swap1\n  pop\n    /* \"#utility.yul\":810:951   */\n  swap2\n  swap1\n  pop\n  jump\t// out\n    /* \"#utility.yul\":957:1050   */\ntag_33:\n    /* \"#utility.yul\":994:1000   */\n  0x00\n    /* \"#utility.yul\":1041:1043   */\n  0x20\n    /* \"#utility.yul\":1036:1038   */\n  0x1f\n    /* \"#utility.yul\":1029:1034   */\n  dup4\n    /* \"#utility.yul\":1025:1039   */\n  add\n    /* \"#utility.yul\":1021:1044   */\n  div\n    /* \"#utility.yul\":1011:1044   */\n  swap1\n  pop\n    /* \"#utility.yul\":957:1050   */\n  swap2\n  swap1\n  pop\n  jump\t// out\n    /* \"#utility.yul\":1056:1163   */\ntag_34:\n    /* \"#utility.yul\":1100:1108   */\n  0x00\n    /* \"#utility.yul\":1150:1155   */\n  dup3\n    /* \"#utility.yul\":1144:1148   */\n  dup3\n    /* \"#utility.yul\":1140:1156   */\n  shl\n    /* \"#utility.yul\":1119:1156   */\n  swap1\n  pop\n    /* \"#utility.yul\":1056:1163   */\n  swap3\n  swap2\n  pop\n  pop\n  jump\t// out\n    /* \"#utility.yul\":1169:1562   */\ntag_35:\n    /* \"#utility.yul\":1238:1244   */\n  0x00\n    /* \"#utility.yul\":1288:1289   */\n  0x08\n    /* \"#utility.yul\":1276:1286   */\n  dup4\n    /* \"#utility.yul\":1272:1290   */\n  mul\n    /* \"#utility.yul\":1311:1408   */\n  tag_69\n    /* \"#utility.yul\":1341:1407   */\n  0xffffffffffffffffffffffffffffffffffffffffffffffffffffffffffffffff\n    /* \"#utility.yul\":1330:1339   */\n  dup3\n    /* \"#utility.yul\":1311:1408   */\n  tag_34\n  jump\t// in\ntag_69:\n    /* \"#utility.yul\":1429:1468   */\n  tag_70\n    /* \"#utility.yul\":1459:1467   */\n  dup7\n    /* \"#utility.yul\":1448:1457   */\n  dup4\n    /* \"#utility.yul\":1429:1468   */\n  tag_34\n  jump\t// in\ntag_70:\n    /* \"#utility.yul\":1417:1468   */\n  swap6\n  pop\n    /* \"#utility.yul\":1501:1505   */\n  dup1\n    /* \"#utility.yul\":1497:1506   */\n  not\n    /* \"#utility.yul\":1490:1495   */\n  dup5\n    /* \"#utility.yul\":1486:1507   */\n  and\n    /* \"#utility.yul\":1477:1507   */\n  swap4\n  pop\n    /* \"#utility.yul\":1550:1554   */\n  dup1\n    /* \"#utility.yul\":1540:1548   */\n  dup7\n    /* \"#utility.yul\":1536:1555   */\n  and\n    /* \"#utility.yul\":1529:1534   */\n  dup5\n    /* \"#utility.yul\":1526:1556   */\n  or\n    /* \"#utility.yul\":1516:1556   */\n  swap3\n  pop\n    /* \"#utility.yul\":1245:1562   */\n  pop\n  pop\n    /* \"#utility.yul\":1169:1562   */\n  swap4\n  swap3\n  pop\n  pop\n  pop\n  jump\t// out\n    /* \"#utility.yul\":1568:1645   */\ntag_36:\n    /* \"#utility.yul\":1605:1612   */\n  0x00\n    /* \"#utility.yul\":1634:1639   */\n  dup2\n    /* \"#utility.yul\":1623:1639   */\n  swap1\n  pop\n    /* \"#utility.yul\":1568:1645   */\n  swap2\n  swap1\n  pop\n  jump\t// out\n    /* \"#utility.yul\":1651:1711   */\ntag_37:\n    /* \"#utility.yul\":1679:1682   */\n  0x00\n    /* \"#utility.yul\":1700:1705   */\n  dup2\n    /* \"#utility.yul\":1693:1705   */\n  swap1\n  pop\n    /* \"#utility.yul\":1651:1711   */\n  swap2\n  swap1\n  pop\n  jump\t// out\n    /* \"#utility.yul\":1717:1859   */\ntag_38:\n    /* \"#utility.yul\":1767:1776   */\n  0x00\n    /* \"#utility.yul\":1800:1853   */\n  tag_74\n    /* \"#utility.yul\":1818:1852   */\n  tag_75\n    /* \"#utility.yul\":1827:1851   */\n  tag_76\n    /* \"#utility.yul\":1845:1850   */\n  dup5\n    /* \"#utility.yul\":1827:1851   */\n  tag_36\n  jump\t// in\ntag_76:\n    /* \"#utility.yul\":1818:1852   */\n  tag_37\n  jump\t// in\ntag_75:\n    /* \"#utility.yul\":1800:1853   */\n  tag_36\n  jump\t// in\ntag_74:\n    /* \"#utility.yul\":1787:1853   */\n  swap1\n  pop\n    /* \"#utility.yul\":1717:1859   */\n  swap2\n  swap1\n  pop\n  jump\t// out\n    /* \"#utility.yul\":1865:1940   */\ntag_39:\n    /* \"#utility.yul\":1908:1911   */\n  0x00\n    /* \"#utility.yul\":1929:1934   */\n  dup2\n    /* \"#utility.yul\":1922:1934   */\n  swap1\n  pop\n    /* \"#utility.yul\":1865:1940   */\n  swap2\n  swap1\n  pop\n  jump\t// out\n    /* \"#utility.yul\":1946:2215   */\ntag_40:\n    /* \"#utility.yul\":2056:2095   */\n  tag_79\n    /* \"#utility.yul\":2087:2094   */\n  dup4\n    /* \"#utility.yul\":2056:2095   */\n  tag_38\n  jump\t// in\ntag_79:\n    /* \"#utility.yul\":2117:2208   */\n  tag_80\n    /* \"#utility.yul\":2166:2207   */\n  tag_81\n    /* \"#utility.yul\":2190:2206   */\n  dup3\n    /* \"#utility.yul\":2166:2207   */\n  tag_39\n  jump\t// in\ntag_81:\n    /* \"#utility.yul\":2158:2164   */\n  dup5\n    /* \"#utility.yul\":2151:2155   */\n  dup5\n    /* \"#utility.yul\":2145:2156   */\n  sload\n    /* \"#utility.yul\":2117:2208   */\n  tag_35\n  jump\t// in\ntag_80:\n    /* \"#utility.yul\":2111:2115   */\n  dup3\n    /* \"#utility.yul\":2104:2209   */\n  sstore\n    /* \"#utility.yul\":2022:2215   */\n  pop\n    /* \"#utility.yul\":1946:2215   */\n  pop\n  pop\n  pop\n  jump\t// out\n    /* \"#utility.yul\":2221:2294   */\ntag_41:\n    /* \"#utility.yul\":2266:2269   */\n  0x00\n    /* \"#utility.yul\":2221:2294   */\n  swap1\n  jump\t// out\n    /* \"#utility.yul\":2300:2489   */\ntag_42:\n    /* \"#utility.yul\":2377:2409   */\n  tag_84\n  tag_41\n  jump\t// in\ntag_84:\n    /* \"#utility.yul\":2418:2483   */\n  tag_85\n    /* \"#utility.yul\":2476:2482   */\n  dup2\n    /* \"#utility.yul\":2468:2474   */\n  dup5\n    /* \"#utility.yul\":2462:2466   */\n  dup5\n    /* \"#utility.yul\":2418:2483   */\n  tag_40\n  jump\t// in\ntag_85:\n    /* \"#utility.yul\":2353:2489   */\n  pop\n    /* \"#utility.yul\":2300:2489   */\n  pop\n  pop\n  jump\t// out\n    /* \"#utility.yul\":2495:2681   */\ntag_43:\n    /* \"#utility.yul\":2555:2675   */\ntag_87:\n    /* \"#utility.yul\":2572:2575   */\n  dup2\n    /* \"#utility.yul\":2565:2570   */\n  dup2\n    /* \"#utility.yul\":2562:2576   */\n  lt\n    /* \"#utility.yul\":2555:2675   */\n  iszero\n  tag_89\n  jumpi\n    /* \"#utility.yul\":2626:2665   */\n  tag_90\n    /* \"#utility.yul\":2663:2664   */\n  0x00\n    /* \"#utility.yul\":2656:2661   */\n  dup3\n    /* \"#utility.yul\":2626:2665   */\n  tag_42\n  jump\t// in\ntag_90:\n    /* \"#utility.yul\":2599:2600   */\n  0x01\n    /* \"#utility.yul\":2592:2597   */\n  dup2\n    /* \"#utility.yul\":2588:2601   */\n  add\n    /* \"#utility.yul\":2579:2601   */\n  swap1\n  pop\n    /* \"#utility.yul\":2555:2675   */\n  jump(tag_87)\ntag_89:\n    /* \"#utility.yul\":2495:2681   */\n  pop\n  pop\n  jump\t// out\n    /* \"#utility.yul\":2687:3230   */\ntag_44:\n    /* \"#utility.yul\":2788:2790   */\n  0x1f\n    /* \"#utility.yul\":2783:2786   */\n  dup3\n    /* \"#utility.yul\":2780:2791   */\n  gt\n    /* \"#utility.yul\":2777:3223   */\n  iszero\n  tag_92\n  jumpi\n    /* \"#utility.yul\":2822:2860   */\n  tag_93\n    /* \"#utility.yul\":2854:2859   */\n  dup2\n    /* \"#utility.yul\":2822:2860   */\n  tag_32\n  jump\t// in\ntag_93:\n    /* \"#utility.yul\":2906:2935   */\n  tag_94\n    /* \"#utility.yul\":2924:2934   */\n  dup5\n    /* \"#utility.yul\":2906:2935   */\n  tag_33\n  jump\t// in\ntag_94:\n    /* \"#utility.yul\":2896:2904   */\n  dup2\n    /* \"#utility.yul\":2892:2936   */\n  add\n    /* \"#utility.yul\":3089:3091   */\n  0x20\n    /* \"#utility.yul\":3077:3087   */\n  dup6\n    /* \"#utility.yul\":3074:3092   */\n  lt\n    /* \"#utility.yul\":3071:3120   */\n  iszero\n  tag_95\n  jumpi\n    /* \"#utility.yul\":3110:3118   */\n  dup2\n    /* \"#utility.yul\":3095:3118   */\n  swap1\n  pop\n    /* \"#utility.yul\":3071:3120   */\ntag_95:\n    /* \"#utility.yul\":3133:3213   */\n  tag_96\n    /* \"#utility.yul\":3189:3211   */\n  tag_97\n    /* \"#utility.yul\":3207:3210   */\n  dup6\n    /* \"#utility.yul\":3189:3211   */\n  tag_33\n  jump\t// in\ntag_97:\n    /* \"#utility.yul\":3179:3187   */\n  dup4\n    /* \"#utility.yul\":3175:3212   */\n  add\n    /* \"#utility.yul\":3162:3173   */\n  dup3\n    /* \"#utility.yul\":3133:3213   */\n  tag_43\n  jump\t// in\ntag_96:\n    /* \"#utility.yul\":2792:3223   */\n  pop\n  pop\n    /* \"#utility.yul\":2777:3223   */\ntag_92:\n    /* \"#utility.yul\":2687:3230   */\n  pop\n  pop\n  pop\n  jump\t// out\n    /* \"#utility.yul\":3236:3353   */\ntag_45:\n    /* \"#utility.yul\":3290:3298   */\n  0x00\n    /* \"#utility.yul\":3340:3345   */\n  dup3\n    /* \"#utility.yul\":3334:3338   */\n  dup3\n    /* \"#utility.yul\":3330:3346   */\n  shr\n    /* \"#utility.yul\":3309:3346   */\n  swap1\n  pop\n    /* \"#utility.yul\":3236:3353   */\n  swap3\n  swap2\n  pop\n  pop\n  jump\t// out\n    /* \"#utility.yul\":3359:3528   */\ntag_46:\n    /* \"#utility.yul\":3403:3409   */\n  0x00\n    /* \"#utility.yul\":3436:3487   */\n  tag_100\n    /* \"#utility.yul\":3484:3485   */\n  0x00\n    /* \"#utility.yul\":3480:3486   */\n  not\n    /* \"#utility.yul\":3472:3477   */\n  dup5\n    /* \"#utility.yul\":3469:3470   */\n  0x08\n    /* \"#utility.yul\":3465:3478   */\n  mul\n    /* \"#utility.yul\":3436:3487   */\n  tag_45\n  jump\t// in\ntag_100:\n    /* \"#utility.yul\":3432:3488   */\n  not\n    /* \"#utility.yul\":3517:3521   */\n  dup1\n    /* \"#utility.yul\":3511:3515   */\n  dup4\n    /* \"#utility.yul\":3507:3522   */\n  and\n    /* \"#utility.yul\":3497:3522   */\n  swap2\n  pop\n    /* \"#utility.yul\":3410:3528   */\n  pop\n    /* \"#utility.yul\":3359:3528   */\n  swap3\n  swap2\n  pop\n  pop\n  jump\t// out\n    /* \"#utility.yul\":3533:3828   */\ntag_47:\n    /* \"#utility.yul\":3609:3613   */\n  0x00\n    /* \"#utility.yul\":3755:3784   */\n  tag_102\n    /* \"#utility.yul\":3780:3783   */\n  dup4\n    /* \"#utility.yul\":3774:3778   */\n  dup4\n    /* \"#utility.yul\":3755:3784   */\n  tag_46\n  jump\t// in\ntag_102:\n    /* \"#utility.yul\":3747:3784   */\n  swap2\n  pop\n    /* \"#utility.yul\":3817:3820   */\n  dup3\n    /* \"#utility.yul\":3814:3815   */\n  0x02\n    /* \"#utility.yul\":3810:3821   */\n  mul\n    /* \"#utility.yul\":3804:3808   */\n  dup3\n    /* \"#utility.yul\":3801:3822   */\n  or\n    /* \"#utility.yul\":3793:3822   */\n  swap1\n  pop\n    /* \"#utility.yul\":3533:3828   */\n  swap3\n  swap2\n  pop\n  pop\n  jump\t// out\n    /* \"#utility.yul\":3833:5228   */\ntag_5:\n    /* \"#utility.yul\":3950:3987   */\n  tag_104\n    /* \"#utility.yul\":3983:3986   */\n  dup3\n    /* \"#utility.yul\":3950:3987   */\n  tag_28\n  jump\t// in\ntag_104:\n    /* \"#utility.yul\":4052:4070   */\n  0xffffffffffffffff\n    /* \"#utility.yul\":4044:4050   */\n  dup2\n    /* \"#utility.yul\":4041:4071   */\n  gt\n    /* \"#utility.yul\":4038:4094   */\n  iszero\n  tag_105\n  jumpi\n    /* \"#utility.yul\":4074:4092   */\n  tag_106\n  tag_29\n  jump\t// in\ntag_106:\n    /* \"#utility.yul\":4038:4094   */\ntag_105:\n    /* \"#utility.yul\":4118:4156   */\n  tag_107\n    /* \"#utility.yul\":4150:4154   */\n  dup3\n    /* \"#utility.yul\":4144:4155   */\n  sload\n    /* \"#utility.yul\":4118:4156   */\n  tag_31\n  jump\t// in\ntag_107:\n    /* \"#utility.yul\":4203:4270   */\n  tag_108\n    /* \"#utility.yul\":4263:4269   */\n  dup3\n    /* \"#utility.yul\":4255:4261   */\n  dup3\n    /* \"#utility.yul\":4249:4253   */\n  dup6\n    /* \"#utility.yul\":4203:4270   */\n  tag_44\n  jump\t// in\ntag_108:\n    /* \"#utility.yul\":4297:4298   */\n  0x00\n    /* \"#utility.yul\":4321:4325   */\n  0x20\n    /* \"#utility.yul\":4308:4325   */\n  swap1\n  pop\n    /* \"#utility.yul\":4353:4355   */\n  0x1f\n    /* \"#utility.yul\":4345:4351   */\n  dup4\n    /* \"#utility.yul\":4342:4356   */\n  gt\n    /* \"#utility.yul\":4370:4371   */\n  0x01\n    /* \"#utility.yul\":4365:4983   */\n  dup2\n  eq\n  tag_110\n  jumpi\n    /* \"#utility.yul\":5027:5028   */\n  0x00\n    /* \"#utility.yul\":5044:5050   */\n  dup5\n    /* \"#utility.yul\":5041:5118   */\n  iszero\n  tag_111\n  jumpi\n    /* \"#utility.yul\":5093:5102   */\n  dup3\n    /* \"#utility.yul\":5088:5091   */\n  dup8\n    /* \"#utility.yul\":5084:5103   */\n  add\n    /* \"#utility.yul\":5078:5104   */\n  mload\n    /* \"#utility.yul\":5069:5104   */\n  swap1\n  pop\n    /* \"#utility.yul\":5041:5118   */\ntag_111:\n    /* \"#utility.yul\":5144:5211   */\n  tag_112\n    /* \"#utility.yul\":5204:5210   */\n  dup6\n    /* \"#utility.yul\":5197:5202   */\n  dup3\n    /* \"#utility.yul\":5144:5211   */\n  tag_47\n  jump\t// in\ntag_112:\n    /* \"#utility.yul\":5138:5142   */\n  dup7\n    /* \"#utility.yul\":5131:5212   */\n  sstore\n    /* \"#utility.yul\":5000:5222   */\n  pop\n    /* \"#utility.yul\":4335:5222   */\n  jump(tag_109)\n    /* \"#utility.yul\":4365:4983   */\ntag_110:\n    /* \"#utility.yul\":4417:4421   */\n  0x1f\n    /* \"#utility.yul\":4413:4422   */\n  not\n    /* \"#utility.yul\":4405:4411   */\n  dup5\n    /* \"#utility.yul\":4401:4423   */\n  and\n    /* \"#utility.yul\":4451:4488   */\n  tag_113\n    /* \"#utility.yul\":4483:4487   */\n  dup7\n    /* \"#utility.yul\":4451:4488   */\n  tag_32\n  jump\t// in\ntag_113:\n    /* \"#utility.yul\":4510:4511   */\n  0x00\n    /* \"#utility.yul\":4524:4732   */\ntag_114:\n    /* \"#utility.yul\":4538:4545   */\n  dup3\n    /* \"#utility.yul\":4535:4536   */\n  dup2\n    /* \"#utility.yul\":4532:4546   */\n  lt\n    /* \"#utility.yul\":4524:4732   */\n  iszero\n  tag_116\n  jumpi\n    /* \"#utility.yul\":4617:4626   */\n  dup5\n    /* \"#utility.yul\":4612:4615   */\n  dup10\n    /* \"#utility.yul\":4608:4627   */\n  add\n    /* \"#utility.yul\":4602:4628   */\n  mload\n    /* \"#utility.yul\":4594:4600   */\n  dup3\n    /* \"#utility.yul\":4587:4629   */\n  sstore\n    /* \"#utility.yul\":4668:4669   */\n  0x01\n    /* \"#utility.yul\":4660:4666   */\n  dup3\n    /* \"#utility.yul\":4656:4670   */\n  add\n    /* \"#utility.yul\":4646:4670   */\n  swap2\n  pop\n    /* \"#utility.yul\":4715:4717   */\n  0x20\n    /* \"#utility.yul\":4704:4713   */\n  dup6\n    /* \"#utility.yul\":4700:4718   */\n  add\n    /* \"#utility.yul\":4687:4718   */\n  swap5\n  pop\n    /* \"#utility.yul\":4561:4565   */\n  0x20\n    /* \"#utility.yul\":4558:4559   */\n  dup2\n    /* \"#utility.yul\":4554:4566   */\n  add\n    /* \"#utility.yul\":4549:4566   */\n  swap1\n  pop\n    /* \"#utility.yul\":4524:4732   */\n  jump(tag_114)\ntag_116:\n    /* \"#utility.yul\":4760:4766   */\n  dup7\n    /* \"#utility.yul\":4751:4758   */\n  dup4\n    /* \"#utility.yul\":4748:4767   */\n  lt\n    /* \"#utility.yul\":4745:4924   */\n  iszero\n  tag_117\n  jumpi\n    /* \"#utility.yul\":4818:4827   */\n  dup5\n    /* \"#utility.yul\":4813:4816   */\n  dup10\n    /* \"#utility.yul\":4809:4828   */\n  add\n    /* \"#utility.yul\":4803:4829   */\n  mload\n    /* \"#utility.yul\":4861:4909   */\n  tag_118\n    /* \"#utility.yul\":4903:4907   */\n  0x1f\n    /* \"#utility.yul\":4895:4901   */\n  dup10\n    /* \"#utility.yul\":4891:4908   */\n  and\n    /* \"#utility.yul\":4880:4889   */\n  dup3\n    /* \"#utility.yul\":4861:4909   */\n  tag_46\n  jump\t// in\ntag_118:\n    /* \"#utility.yul\":4853:4859   */\n  dup4\n    /* \"#utility.yul\":4846:4910   */\n  sstore\n    /* \"#utility.yul\":4768:4924   */\n  pop\n    /* \"#utility.yul\":4745:4924   */\ntag_117:\n    /* \"#utility.yul\":4970:4971   */\n  0x01\n    /* \"#utility.yul\":4966:4967   */\n  0x02\n    /* \"#utility.yul\":4958:4964   */\n  dup9\n    /* \"#utility.yul\":4954:4968   */\n  mul\n    /* \"#utility.yul\":4950:4972   */\n  add\n    /* \"#utility.yul\":4944:4948   */\n  dup9\n    /* \"#utility.yul\":4937:4973   */\n  sstore\n    /* \"#utility.yul\":4372:4983   */\n  pop\n  pop\n  pop\n    /* \"#utility.yul\":4335:5222   */\ntag_109:\n  pop\n    /* \"#utility.yul\":3925:5228   */\n  pop\n  pop\n  pop\n    /* \"#utility.yul\":3833:5228   */\n  pop\n  pop\n  jump\t// out\n    /* \"#utility.yul\":5234:5414   */\ntag_48:\n    /* \"#utility.yul\":5282:5359   */\n  0x4e487b7100000000000000000000000000000000000000000000000000000000\n    /* \"#utility.yul\":5279:5280   */\n  0x00\n    /* \"#utility.yul\":5272:5360   */\n  mstore\n    /* \"#utility.yul\":5379:5383   */\n  0x11\n    /* \"#utility.yul\":5376:5377   */\n  0x04\n    /* \"#utility.yul\":5369:5384   */\n  mstore\n    /* \"#utility.yul\":5403:5407   */\n  0x24\n    /* \"#utility.yul\":5400:5401   */\n  0x00\n    /* \"#utility.yul\":5393:5408   */\n  revert\n    /* \"#utility.yul\":5420:5522   */\ntag_49:\n    /* \"#utility.yul\":5462:5470   */\n  0x00\n    /* \"#utility.yul\":5509:5514   */\n  dup2\n    /* \"#utility.yul\":5506:5507   */\n  0x01\n    /* \"#utility.yul\":5502:5515   */\n  shr\n    /* \"#utility.yul\":5481:5515   */\n  swap1\n  pop\n    /* \"#utility.yul\":5420:5522   */\n  swap2\n  swap1\n  pop\n  jump\t// out\n    /* \"#utility.yul\":5528:6376   */\ntag_50:\n    /* \"#utility.yul\":5589:5594   */\n  0x00\n    /* \"#utility.yul\":5596:5600   */\n  dup1\n    /* \"#utility.yul\":5620:5626   */\n  dup3\n    /* \"#utility.yul\":5611:5626   */\n  swap2\n  pop\n    /* \"#utility.yul\":5644:5649   */\n  dup4\n    /* \"#utility.yul\":5635:5649   */\n  swap1\n  pop\n    /* \"#utility.yul\":5658:6370   */\ntag_122:\n    /* \"#utility.yul\":5679:5680   */\n  0x01\n    /* \"#utility.yul\":5669:5677   */\n  dup6\n    /* \"#utility.yul\":5666:5681   */\n  gt\n    /* \"#utility.yul\":5658:6370   */\n  iszero\n  tag_124\n  jumpi\n    /* \"#utility.yul\":5774:5778   */\n  dup1\n    /* \"#utility.yul\":5769:5772   */\n  dup7\n    /* \"#utility.yul\":5765:5779   */\n  div\n    /* \"#utility.yul\":5759:5763   */\n  dup2\n    /* \"#utility.yul\":5756:5780   */\n  gt\n    /* \"#utility.yul\":5753:5803   */\n  iszero\n  tag_125\n  jumpi\n    /* \"#utility.yul\":5783:5801   */\n  tag_126\n  tag_48\n  jump\t// in\ntag_126:\n    /* \"#utility.yul\":5753:5803   */\ntag_125:\n    /* \"#utility.yul\":5833:5834   */\n  0x01\n    /* \"#utility.yul\":5823:5831   */\n  dup6\n    /* \"#utility.yul\":5819:5835   */\n  and\n    /* \"#utility.yul\":5816:6267   */\n  iszero\n  tag_127\n  jumpi\n    /* \"#utility.yul\":6248:6252   */\n  dup1\n    /* \"#utility.yul\":6241:6246   */\n  dup3\n    /* \"#utility.yul\":6237:6253   */\n  mul\n    /* \"#utility.yul\":6228:6253   */\n  swap2\n  pop\n    /* \"#utility.yul\":5816:6267   */\ntag_127:\n    /* \"#utility.yul\":6298:6302   */\n  dup1\n    /* \"#utility.yul\":6292:6296   */\n  dup2\n    /* \"#utility.yul\":6288:6303   */\n  mul\n    /* \"#utility.yul\":6280:6303   */\n  swap1\n  pop\n    /* \"#utility.yul\":6328:6360   */\n  tag_128\n    /* \"#utility.yul\":6351:6359   */\n  dup6\n    /* \"#utility.yul\":6328:6360   */\n  tag_49\n  jump\t// in\ntag_128:\n    /* \"#utility.yul\":6316:6360   */\n  swap5\n  pop\n    /* \"#utility.yul\":5658:6370   */\n  jump(tag_122)\ntag_124:\n    /* \"#utility.yul\":5528:6376   */\n  swap5\n  pop\n  swap5\n  swap3\n  pop\n  pop\n  pop\n  jump\t// out\n    /* \"#utility.yul\":6382:7455   */\ntag_51:\n    /* \"#utility.yul\":6436:6441   */\n  0x00\n    /* \"#utility.yul\":6627:6635   */\n  dup3\n    /* \"#utility.yul\":6617:6657   */\n  tag_130\n  jumpi\n    /* \"#utility.yul\":6648:6649   */\n  0x01\n    /* \"#utility.yul\":6639:6649   */\n  swap1\n  pop\n    /* \"#utility.yul\":6650:6655   */\n  jump(tag_129)\n    /* \"#utility.yul\":6617:6657   */\ntag_130:\n    /* \"#utility.yul\":6676:6680   */\n  dup2\n    /* \"#utility.yul\":6666:6702   */\n  tag_131\n  jumpi\n    /* \"#utility.yul\":6693:6694   */\n  0x00\n    /* \"#utility.yul\":6684:6694   */\n  swap1\n  pop\n    /* \"#utility.yul\":6695:6700   */\n  jump(tag_129)\n    /* \"#utility.yul\":6666:6702   */\ntag_131:\n    /* \"#utility.yul\":6762:6766   */\n  dup2\n    /* \"#utility.yul\":6810:6811   */\n  0x01\n    /* \"#utility.yul\":6805:6832   */\n  dup2\n  eq\n  tag_133\n  jumpi\n    /* \"#utility.yul\":6846:6847   */\n  0x02\n    /* \"#utility.yul\":6841:7032   */\n  dup2\n  eq\n  tag_134\n  jumpi\n    /* \"#utility.yul\":6755:7032   */\n  jump(tag_132)\n    /* \"#utility.yul\":6805:6832   */\ntag_133:\n    /* \"#utility.yul\":6823:6824   */\n  0x01\n    /* \"#utility.yul\":6814:6824   */\n  swap2\n  pop\n    /* \"#utility.yul\":6825:6830   */\n  pop\n  jump(tag_129)\n    /* \"#utility.yul\":6841:7032   */\ntag_134:\n    /* \"#utility.yul\":6886:6889   */\n  0xff\n    /* \"#utility.yul\":6876:6884   */\n  dup5\n    /* \"#utility.yul\":6873:6890   */\n  gt\n    /* \"#utility.yul\":6870:6913   */\n  iszero\n  tag_135\n  jumpi\n    /* \"#utility.yul\":6893:6911   */\n  tag_136\n  tag_48\n  jump\t// in\ntag_136:\n    /* \"#utility.yul\":6870:6913   */\ntag_135:\n    /* \"#utility.yul\":6942:6950   */\n  dup4\n    /* \"#utility.yul\":6939:6940   */\n  0x02\n    /* \"#utility.yul\":6935:6951   */\n  exp\n    /* \"#utility.yul\":6926:6951   */\n  swap2\n  pop\n    /* \"#utility.yul\":6977:6980   */\n  dup5\n    /* \"#utility.yul\":6970:6975   */\n  dup3\n    /* \"#utility.yul\":6967:6981   */\n  gt\n    /* \"#utility.yul\":6964:7004   */\n  iszero\n  tag_137\n  jumpi\n    /* \"#utility.yul\":6984:7002   */\n  tag_138\n  tag_48\n  jump\t// in\ntag_138:\n    /* \"#utility.yul\":6964:7004   */\ntag_137:\n    /* \"#utility.yul\":7017:7022   */\n  pop\n  jump(tag_129)\n    /* \"#utility.yul\":6755:7032   */\ntag_132:\n  pop\n    /* \"#utility.yul\":7141:7143   */\n  0x20\n    /* \"#utility.yul\":7131:7139   */\n  dup4\n    /* \"#utility.yul\":7128:7144   */\n  lt\n    /* \"#utility.yul\":7122:7125   */\n  0x0133\n    /* \"#utility.yul\":7116:7120   */\n  dup4\n    /* \"#utility.yul\":7113:7126   */\n  lt\n    /* \"#utility.yul\":7109:7145   */\n  and\n    /* \"#utility.yul\":7091:7093   */\n  0x4e\n    /* \"#utility.yul\":7081:7089   */\n  dup5\n    /* \"#utility.yul\":7078:7094   */\n  lt\n    /* \"#utility.yul\":7073:7075   */\n  0x0b\n    /* \"#utility.yul\":7067:7071   */\n  dup5\n    /* \"#utility.yul\":7064:7076   */\n  lt\n    /* \"#utility.yul\":7060:7095   */\n  and\n    /* \"#utility.yul\":7044:7155   */\n  or\n    /* \"#utility.yul\":7041:7287   */\n  iszero\n  tag_139\n  jumpi\n    /* \"#utility.yul\":7197:7205   */\n  dup3\n    /* \"#utility.yul\":7191:7195   */\n  dup3\n    /* \"#utility.yul\":7187:7206   */\n  exp\n    /* \"#utility.yul\":7178:7206   */\n  swap1\n  pop\n    /* \"#utility.yul\":7232:7235   */\n  dup4\n    /* \"#utility.yul\":7225:7230   */\n  dup2\n    /* \"#utility.yul\":7222:7236   */\n  gt\n    /* \"#utility.yul\":7219:7259   */\n  iszero\n  tag_140\n  jumpi\n    /* \"#utility.yul\":7239:7257   */\n  tag_141\n  tag_48\n  jump\t// in\ntag_141:\n    /* \"#utility.yul\":7219:7259   */\ntag_140:\n    /* \"#utility.yul\":7272:7277   */\n  jump(tag_129)\n    /* \"#utility.yul\":7041:7287   */\ntag_139:\n    /* \"#utility.yul\":7312:7354   */\n  tag_142\n    /* \"#utility.yul\":7350:7353   */\n  dup5\n    /* \"#utility.yul\":7340:7348   */\n  dup5\n    /* \"#utility.yul\":7334:7338   */\n  dup5\n    /* \"#utility.yul\":7331:7332   */\n  0x01\n    /* \"#utility.yul\":7312:7354   */\n  tag_50\n  jump\t// in\ntag_142:\n    /* \"#utility.yul\":7297:7354   */\n  swap3\n  pop\n  swap1\n  pop\n    /* \"#utility.yul\":7386:7390   */\n  dup2\n    /* \"#utility.yul\":7381:7384   */\n  dup5\n    /* \"#utility.yul\":7377:7391   */\n  div\n    /* \"#utility.yul\":7370:7375   */\n  dup2\n    /* \"#utility.yul\":7367:7392   */\n  gt\n    /* \"#utility.yul\":7364:7415   */\n  iszero\n  tag_143\n  jumpi\n    /* \"#utility.yul\":7395:7413   */\n  tag_144\n  tag_48\n  jump\t// in\ntag_144:\n    /* \"#utility.yul\":7364:7415   */\ntag_143:\n    /* \"#utility.yul\":7444:7448   */\n  dup2\n    /* \"#utility.yul\":7437:7442   */\n  dup2\n    /* \"#utility.yul\":7433:7449   */\n  mul\n    /* \"#utility.yul\":7424:7449   */\n  swap1\n  pop\n    /* \"#utility.yul\":6382:7455   */\ntag_129:\n  swap4\n  swap3\n  pop\n  pop\n  pop\n  jump\t// out\n    /* \"#utility.yul\":7461:7547   */\ntag_52:\n    /* \"#utility.yul\":7496:7503   */\n  0x00\n    /* \"#utility.yul\":7536:7540   */\n  0xff\n    /* \"#utility.yul\":7529:7534   */\n  dup3\n    /* \"#utility.yul\":7525:7541   */\n  and\n    /* \"#utility.yul\":7514:7541   */\n  swap1\n  pop\n    /* \"#utility.yul\":7461:7547   */\n  swap2\n  swap1\n  pop\n  jump\t// out\n    /* \"#utility.yul\":7553:7834   */\ntag_8:\n    /* \"#utility.yul\":7611:7616   */\n  0x00\n    /* \"#utility.yul\":7635:7658   */\n  tag_147\n    /* \"#utility.yul\":7653:7657   */\n  dup3\n    /* \"#utility.yul\":7635:7658   */\n  tag_36\n  jump\t// in\ntag_147:\n    /* \"#utility.yul\":7627:7658   */\n  swap2\n  pop\n    /* \"#utility.yul\":7679:7704   */\n  tag_148\n    /* \"#utility.yul\":7695:7703   */\n  dup4\n    /* \"#utility.yul\":7679:7704   */\n  tag_52\n  jump\t// in\ntag_148:\n    /* \"#utility.yul\":7667:7704   */\n  swap3\n  pop\n    /* \"#utility.yul\":7723:7827   */\n  tag_149\n    /* \"#utility.yul\":7760:7826   */\n  0xffffffffffffffffffffffffffffffffffffffffffffffffffffffffffffffff\n    /* \"#utility.yul\":7750:7758   */\n  dup5\n    /* \"#utility.yul\":7744:7748   */\n  dup5\n    /* \"#utility.yul\":7723:7827   */\n  tag_51\n  jump\t// in\ntag_149:\n    /* \"#utility.yul\":7714:7827   */\n  swap1\n  pop\n    /* \"#utility.yul\":7553:7834   */\n  swap3\n  swap2\n  pop\n  pop\n  jump\t// out\n    /* \"#utility.yul\":7840:8250   */\ntag_10:\n    /* \"#utility.yul\":7880:7887   */\n  0x00\n    /* \"#utility.yul\":7903:7923   */\n  tag_151\n    /* \"#utility.yul\":7921:7922   */\n  dup3\n    /* \"#utility.yul\":7903:7923   */\n  tag_36\n  jump\t// in\ntag_151:\n    /* \"#utility.yul\":7898:7923   */\n  swap2\n  pop\n    /* \"#utility.yul\":7937:7957   */\n  tag_152\n    /* \"#utility.yul\":7955:7956   */\n  dup4\n    /* \"#utility.yul\":7937:7957   */\n  tag_36\n  jump\t// in\ntag_152:\n    /* \"#utility.yul\":7932:7957   */\n  swap3\n  pop\n    /* \"#utility.yul\":7992:7993   */\n  dup3\n    /* \"#utility.yul\":7989:7990   */\n  dup3\n    /* \"#utility.yul\":7985:7994   */\n  mul\n    /* \"#utility.yul\":8014:8044   */\n  tag_153\n    /* \"#utility.yul\":8032:8043   */\n  dup2\n    /* \"#utility.yul\":8014:8044   */\n  tag_36\n  jump\t// in\ntag_153:\n    /* \"#utility.yul\":8003:8044   */\n  swap2\n  pop\n    /* \"#utility.yul\":8193:8194   */\n  dup3\n    /* \"#utility.yul\":8184:8191   */\n  dup3\n    /* \"#utility.yul\":8180:8195   */\n  div\n    /* \"#utility.yul\":8177:8178   */\n  dup5\n    /* \"#utility.yul\":8174:8196   */\n  eq\n    /* \"#utility.yul\":8154:8155   */\n  dup4\n    /* \"#utility.yul\":8147:8156   */\n  iszero\n    /* \"#utility.yul\":8127:8210   */\n  or\n    /* \"#utility.yul\":8104:8243   */\n  tag_154\n  jumpi\n    /* \"#utility.yul\":8223:8241   */\n  tag_155\n  tag_48\n  jump\t// in\ntag_155:\n    /* \"#utility.yul\":8104:8243   */\ntag_154:\n    /* \"#utility.yul\":7888:8250   */\n  pop\n    /* \"#utility.yul\":7840:8250   */\n  swap3\n  swap2\n  pop\n  pop\n  jump\t// out\n    /* \"#utility.yul\":8256:8425   */\ntag_53:\n    /* \"#utility.yul\":8340:8351   */\n  0x00\n    /* \"#utility.yul\":8374:8380   */\n  dup3\n    /* \"#utility.yul\":8369:8372   */\n  dup3\n    /* \"#utility.yul\":8362:8381   */\n  mstore\n    /* \"#utility.yul\":8414:8418   */\n  0x20\n    /* \"#utility.yul\":8409:8412   */\n  dup3\n    /* \"#utility.yul\":8405:8419   */\n  add\n    /* \"#utility.yul\":8390:8419   */\n  swap1\n  pop\n    /* \"#utility.yul\":8256:8425   */\n  swap3\n  swap2\n  pop\n  pop\n  jump\t// out\n    /* \"#utility.yul\":8431:8593   */\ntag_54:\n    /* \"#utility.yul\":8571:8585   */\n  0x7a65726f20616464726573730000000000000000000000000000000000000000\n    /* \"#utility.yul\":8567:8568   */\n  0x00\n    /* \"#utility.yul\":8559:8565   */\n  dup3\n    /* \"#utility.yul\":8555:8569   */\n  add\n    /* \"#utility.yul\":8548:8586   */\n  mstore\n    /* \"#utility.yul\":8431:8593   */\n  pop\n  jump\t// out\n    /* \"#utility.yul\":8599:8965   */\ntag_55:\n    /* \"#utility.yul\":8741:8744   */\n  0x00\n    /* \"#utility.yul\":8762:8829   */\n  tag_159\n    /* \"#utility.yul\":8826:8828   */\n  0x0c\n    /* \"#utility.yul\":8821:8824   */\n  dup4\n    /* \"#utility.yul\":8762:8829   */\n  tag_53\n  jump\t// in\ntag_159:\n    /* \"#utility.yul\":8755:8829   */\n  swap2\n  pop\n    /* \"#utility.yul\":8838:8931   */\n  tag_160\n    /* \"#utility.yul\":8927:8930   */\n  dup3\n    /* \"#utility.yul\":8838:8931   */\n  tag_54\n  jump\t// in\ntag_160:\n    /* \"#utility.yul\":8956:8958   */\n  0x20\n    /* \"#utility.yul\":8951:8954   */\n  dup3\n    /* \"#utility.yul\":8947:8959   */\n  add\n    /* \"#utility.yul\":8940:8959   */\n  swap1\n  pop\n    /* \"#utility.yul\":8599:8965   */\n  swap2\n  swap1\n  pop\n  jump\t// out\n    /* \"#utility.yul\":8971:9390   */\ntag_20:\n    /* \"#utility.yul\":9137:9141   */\n  0x00\n    /* \"#utility.yul\":9175:9177   */\n  0x20\n    /* \"#utility.yul\":9164:9173   */\n  dup3\n    /* \"#utility.yul\":9160:9178   */\n  add\n    /* \"#utility.yul\":9152:9178   */\n  swap1\n  pop\n    /* \"#utility.yul\":9224:9233   */\n  dup2\n    /* \"#utility.yul\":9218:9222   */\n  dup2\n    /* \"#utility.yul\":9214:9234   */\n  sub\n    /* \"#utility.yul\":9210:9211   */\n  0x00\n    /* \"#utility.yul\":9199:9208   */\n  dup4\n    /* \"#utility.yul\":9195:9212   */\n  add\n    /* \"#utility.yul\":9188:9235   */\n  mstore\n    /* \"#utility.yul\":9252:9383   */\n  tag_162\n    /* \"#utility.yul\":9378:9382   */\n  dup2\n    /* \"#utility.yul\":9252:9383   */\n  tag_55\n  jump\t// in\ntag_162:\n    /* \"#utility.yul\":9244:9383   */\n  swap1\n  pop\n    /* \"#utility.yul\":8971:9390   */\n  swap2\n  swap1\n  pop\n  jump\t// out\n    /* \"#utility.yul\":9396:9587   */\ntag_22:\n    /* \"#utility.yul\":9436:9439   */\n  0x00\n    /* \"#utility.yul\":9455:9475   */\n  tag_164\n    /* \"#utility.yul\":9473:9474   */\n  dup3\n    /* \"#utility.yul\":9455:9475   */\n  tag_36\n  jump\t// in\ntag_164:\n    /* \"#utility.yul\":9450:9475   */\n  swap2\n  pop\n    /* \"#utility.yul\":9489:9509   */\n  tag_165\n    /* \"#utility.yul\":9507:9508   */\n  dup4\n    /* \"#utility.yul\":9489:9509   */\n  tag_36\n  jump\t// in\ntag_165:\n    /* \"#utility.yul\":9484:9509   */\n  swap3\n  pop\n    /* \"#utility.yul\":9532:9533   */\n  dup3\n    /* \"#utility.yul\":9529:9530   */\n  dup3\n    /* \"#utility.yul\":9525:9534   */\n  add\n    /* \"#utility.yul\":9518:9534   */\n  swap1\n  pop\n    /* \"#utility.yul\":9553:9556   */\n  dup1\n    /* \"#utility.yul\":9550:9551   */\n  dup3\n    /* \"#utility.yul\":9547:9557   */\n  gt\n    /* \"#utility.yul\":9544:9580   */\n  iszero\n  tag_166\n  jumpi\n    /* \"#utility.yul\":9560:9578   */\n  tag_167\n  tag_48\n  jump\t// in\ntag_167:\n    /* \"#utility.yul\":9544:9580   */\ntag_166:\n    /* \"#utility.yul\":9396:9587   */\n  swap3\n  swap2\n  pop\n  pop\n  jump\t// out\n    /* \"#utility.yul\":9593:9711   */\ntag_56:\n    /* \"#utility.yul\":9680:9704   */\n  tag_169\n    /* \"#utility.yul\":9698:9703   */\n  dup2\n    /* \"#utility.yul\":9680:9704   */\n  tag_36\n  jump\t// in\ntag_169:\n    /* \"#utility.yul\":9675:9678   */\n  dup3\n    /* \"#utility.yul\":9668:9705   */\n  mstore\n    /* \"#utility.yul\":9593:9711   */\n  pop\n  pop\n  jump\t// out\n    /* \"#utility.yul\":9717:9939   */\ntag_27:\n    /* \"#utility.yul\":9810:9814   */\n  0x00\n    /* \"#utility.yul\":9848:9850   */\n  0x20\n    /* \"#utility.yul\":9837:9846   */\n  dup3\n    /* \"#utility.yul\":9833:9851   */\n  add\n    /* \"#utility.yul\":9825:9851   */\n  swap1\n  pop\n    /* \"#utility.yul\":9861:9932   */\n  tag_171\n    /* \"#utility.yul\":9929:9930   */\n  0x00\n    /* \"#utility.yul\":9918:9927   */\n  dup4\n    /* \"#utility.yul\":9914:9931   */\n  add\n    /* \"#utility.yul\":9905:9911   */\n  dup5\n    /* \"#utility.yul\":9861:9932   */\n  tag_56\n  jump\t// in\ntag_171:\n    /* \"#utility.yul\":9717:9939   */\n  swap3\n  swap2\n  pop\n  pop\n  jump\t// out\n    /* \"smart_contracts/contracts/token/Token.sol\":614:4750  contract Token is TokenState {... */\ntag_15:\n  dataSize(sub_0)\n  dup1\n  dataOffset(sub_0)\n  0x00\n  codecopy\n  0x00\n  return\nstop\n\nsub_0: assembly {\n        /* \"smart_contracts/contracts/token/Token.sol\":614:4750  contract Token is TokenState {... */\n      mstore(0x40, 0x80)\n      callvalue\n      dup1\n      iszero\n      tag_1\n      jumpi\n      0x00\n      dup1\n      revert\n    tag_1:\n      pop\n      jumpi(tag_2, lt(calldatasize, 0x04))\n      shr(0xe0, calldataload(0x00))\n      dup1\n      0x70a08231\n      gt\n      tag_15\n      jumpi\n      dup1\n      0x70a08231\n      eq\n      tag_9\n      jumpi\n      dup1\n      0x95d89b41\n      eq\n      tag_10\n      jumpi\n      dup1\n      0xa457c2d7\n      eq\n      tag_11\n      jumpi\n      dup1\n      0xa9059cbb\n      eq\n      tag_12\n      jumpi\n      dup1\n      0xd5abeb01\n      eq\n      tag_13\n      jumpi\n      dup1\n      0xdd62ed3e\n      eq\n      tag_14\n      jumpi\n      jump(tag_2)\n    tag_15:\n      dup1\n      0x06fdde03\n      eq\n      tag_3\n      jumpi\n      dup1\n      0x095ea7b3\n      eq\n      tag_4\n      jumpi\n      dup1\n      0x18160ddd\n      eq\n      tag_5\n      jumpi\n      dup1\n      0x23b872dd\n      eq\n      tag_6\n      jumpi\n      dup1\n      0x313ce567\n      eq\n      tag_7\n      jumpi\n      dup1\n      0x39509351\n      eq\n      tag_8\n      jumpi\n    tag_2:\n      0x00\n      dup1\n      revert\n        /* \"smart_contracts/contracts/token/Token.sol\":1238:1309  function name() public view returns (string memory) {return meta.name;} */\n    tag_3:\n      tag_16\n      tag_17\n      jump\t// in\n    tag_16:\n      mload(0x40)\n      tag_18\n      swap2\n      swap1\n      tag_19\n      jump\t// in\n    tag_18:\n      mload(0x40)\n      dup1\n      swap2\n      sub\n      swap1\n      return\n        /* \"smart_contracts/contracts/token/Token.sol\":3246:3539  function approve(address _spender, uint256 _value) public returns (bool success) {... */\n    tag_4:\n      tag_20\n      0x04\n      dup1\n      calldatasize\n      sub\n      dup2\n      add\n      swap1\n      tag_21\n      swap2\n      swap1\n      tag_22\n      jump\t// in\n    tag_21:\n      tag_23\n      jump\t// in\n    tag_20:\n      mload(0x40)\n      tag_24\n      swap2\n      swap1\n      tag_25\n      jump\t// in\n    tag_24:\n      mload(0x40)\n      dup1\n      swap2\n      sub\n      swap1\n      return\n        /* \"smart_contracts/contracts/token/Token.sol\":1470:1549  function totalSupply() public view returns (uint256) {return meta.totalSupply;} */\n    tag_5:\n      tag_26\n      tag_27\n      jump\t// in\n    tag_26:\n      mload(0x40)\n      tag_28\n      swap2\n      swap1\n      tag_29\n      jump\t// in\n    tag_28:\n      mload(0x40)\n      dup1\n      swap2\n      sub\n      swap1\n      return\n        /* \"smart_contracts/contracts/token/Token.sol\":3545:4180  function transferFrom(address _from, address _to, uint256 _value) public returns (bool) {... */\n    tag_6:\n      tag_30\n      0x04\n      dup1\n      calldatasize\n      sub\n      dup2\n      add\n      swap1\n      tag_31\n      swap2\n      swap1\n      tag_32\n      jump\t// in\n    tag_31:\n      tag_33\n      jump\t// in\n    tag_30:\n      mload(0x40)\n      tag_34\n      swap2\n      swap1\n      tag_25\n      jump\t// in\n    tag_34:\n      mload(0x40)\n      dup1\n      swap2\n      sub\n      swap1\n      return\n        /* \"smart_contracts/contracts/token/Token.sol\":1394:1465  function decimals() public view returns (uint8) {return meta.decimals;} */\n    tag_7:\n      tag_35\n      tag_36\n      jump\t// in\n    tag_35:\n      mload(0x40)\n      tag_37\n      swap2\n      swap1\n      tag_38\n      jump\t// in\n    tag_37:\n      mload(0x40)\n      dup1\n      swap2\n      sub\n      swap1\n      return\n        /* \"smart_contracts/contracts/token/Token.sol\":2437:2796  function increaseAllowance(address _spender, uint256 _value) public returns (bool) {... */\n    tag_8:\n      tag_39\n      0x04\n      dup1\n      calldatasize\n      sub\n      dup2\n      add\n      swap1\n      tag_40\n      swap2\n      swap1\n      tag_22\n      jump\t// in\n    tag_40:\n      tag_41\n      jump\t// in\n    tag_39:\n      mload(0x40)\n      tag_42\n      swap2\n      swap1\n      tag_25\n      jump\t// in\n    tag_42:\n      mload(0x40)\n      dup1\n      swap2\n      sub\n      swap1\n      return\n        /* \"smart_contracts/contracts/token/Token.sol\":1635:1794  function balanceOf(address _owner) public view returns (uint256) {... */\n    tag_9:\n      tag_43\n      0x04\n      dup1\n      calldatasize\n      sub\n      dup2\n      add\n      swap1\n      tag_44\n      swap2\n      swap1\n      tag_45\n      jump\t// in\n    tag_44:\n      tag_46\n      jump\t// in\n    tag_43:\n      mload(0x40)\n      tag_47\n      swap2\n      swap1\n      tag_29\n      jump\t// in\n    tag_47:\n      mload(0x40)\n      dup1\n      swap2\n      sub\n      swap1\n      return\n        /* \"smart_contracts/contracts/token/Token.sol\":1314:1389  function symbol() public view returns (string memory) {return meta.symbol;} */\n    tag_10:\n      tag_48\n      tag_49\n      jump\t// in\n    tag_48:\n      mload(0x40)\n      tag_50\n      swap2\n      swap1\n      tag_19\n      jump\t// in\n    tag_50:\n      mload(0x40)\n      dup1\n      swap2\n      sub\n      swap1\n      return\n        /* \"smart_contracts/contracts/token/Token.sol\":2802:3240  function decreaseAllowance(address _spender, uint256 _value) public returns (bool) {... */\n    tag_11:\n      tag_51\n      0x04\n      dup1\n      calldatasize\n      sub\n      dup2\n      add\n      swap1\n      tag_52\n      swap2\n      swap1\n      tag_22\n      jump\t// in\n    tag_52:\n      tag_53\n      jump\t// in\n    tag_51:\n      mload(0x40)\n      tag_54\n      swap2\n      swap1\n      tag_25\n      jump\t// in\n    tag_54:\n      mload(0x40)\n      dup1\n      swap2\n      sub\n      swap1\n      return\n        /* \"smart_contracts/contracts/token/Token.sol\":1800:2298  function transfer(address _to, uint256 _value) public returns (bool sucess) {... */\n    tag_12:\n      tag_55\n      0x04\n      dup1\n      calldatasize\n      sub\n      dup2\n      add\n      swap1\n      tag_56\n      swap2\n      swap1\n      tag_22\n      jump\t// in\n    tag_56:\n      tag_57\n      jump\t// in\n    tag_55:\n      mload(0x40)\n      tag_58\n      swap2\n      swap1\n      tag_25\n      jump\t// in\n    tag_58:\n      mload(0x40)\n      dup1\n      swap2\n      sub\n      swap1\n      return\n        /* \"smart_contracts/contracts/token/Token.sol\":1554:1629  function maxSupply() public view returns (uint256) {return meta.maxSupply;} */\n    tag_13:\n      tag_59\n      tag_60\n      jump\t// in\n    tag_59:\n      mload(0x40)\n      tag_61\n      swap2\n      swap1\n      tag_29\n      jump\t// in\n    tag_61:\n      mload(0x40)\n      dup1\n      swap2\n      sub\n      swap1\n      return\n        /* \"smart_contracts/contracts/token/Token.sol\":2304:2432  function allowance(address _owner, address _spender) public view returns (uint256 remaining) {return allowed[_owner][_spender];} */\n    tag_14:\n      tag_62\n      0x04\n      dup1\n      calldatasize\n      sub\n      dup2\n      add\n      swap1\n      tag_63\n      swap2\n      swap1\n      tag_64\n      jump\t// in\n    tag_63:\n      tag_65\n      jump\t// in\n    tag_62:\n      mload(0x40)\n      tag_66\n      swap2\n      swap1\n      tag_29\n      jump\t// in\n    tag_66:\n      mload(0x40)\n      dup1\n      swap2\n      sub\n      swap1\n      return\n        /* \"smart_contracts/contracts/token/Token.sol\":1238:1309  function name() public view returns (string memory) {return meta.name;} */\n    tag_17:\n        /* \"smart_contracts/contracts/token/Token.sol\":1275:1288  string memory */\n      0x60\n        /* \"smart_contracts/contracts/token/Token.sol\":1298:1302  meta */\n      0x01\n        /* \"smart_contracts/contracts/token/Token.sol\":1298:1307  meta.name */\n      0x00\n      add\n        /* \"smart_contracts/contracts/token/Token.sol\":1291:1307  return meta.name */\n      dup1\n      sload\n      tag_68\n      swap1\n      tag_69\n      jump\t// in\n    tag_68:\n      dup1\n      0x1f\n      add\n      0x20\n      dup1\n      swap2\n      div\n      mul\n      0x20\n      add\n      mload(0x40)\n      swap1\n      dup2\n      add\n      0x40\n      mstore\n      dup1\n      swap3\n      swap2\n      swap1\n      dup2\n      dup2\n      mstore\n      0x20\n      add\n      dup3\n      dup1\n      sload\n      tag_70\n      swap1\n      tag_69\n      jump\t// in\n    tag_70:\n      dup1\n      iszero\n      tag_71\n      jumpi\n      dup1\n      0x1f\n      lt\n      tag_72\n      jumpi\n      0x0100\n      dup1\n      dup4\n      sload\n      div\n      mul\n      dup4\n      mstore\n      swap2\n      0x20\n      add\n      swap2\n      jump(tag_71)\n    tag_72:\n      dup3\n      add\n      swap2\n      swap1\n      0x00\n      mstore\n      keccak256(0x00, 0x20)\n      swap1\n    tag_73:\n      dup2\n      sload\n      dup2\n      mstore\n      swap1\n      0x01\n      add\n      swap1\n      0x20\n      add\n      dup1\n      dup4\n      gt\n      tag_73\n      jumpi\n      dup3\n      swap1\n      sub\n      0x1f\n      and\n      dup3\n      add\n      swap2\n    tag_71:\n      pop\n      pop\n      pop\n      pop\n      pop\n      swap1\n      pop\n        /* \"smart_contracts/contracts/token/Token.sol\":1238:1309  function name() public view returns (string memory) {return meta.name;} */\n      swap1\n      jump\t// out\n        /* \"smart_contracts/contracts/token/Token.sol\":3246:3539  function approve(address _spender, uint256 _value) public returns (bool success) {... */\n    tag_23:\n        /* \"smart_contracts/contracts/token/Token.sol\":3313:3325  bool success */\n      0x00\n        /* \"smart_contracts/contracts/token/Token.sol\":3366:3367  0 */\n      dup1\n        /* \"smart_contracts/contracts/token/Token.sol\":3346:3368  sender() != address(0) */\n      0xffffffffffffffffffffffffffffffffffffffff\n      and\n        /* \"smart_contracts/contracts/token/Token.sol\":3346:3354  sender() */\n      tag_75\n        /* \"smart_contracts/contracts/token/Token.sol\":3346:3352  sender */\n      tag_76\n        /* \"smart_contracts/contracts/token/Token.sol\":3346:3354  sender() */\n      jump\t// in\n    tag_75:\n        /* \"smart_contracts/contracts/token/Token.sol\":3346:3368  sender() != address(0) */\n      0xffffffffffffffffffffffffffffffffffffffff\n      and\n      eq\n      iszero\n        /* \"smart_contracts/contracts/token/Token.sol\":3345:3397  (sender() != address(0)) && (_spender != address(0)) */\n      dup1\n      iszero\n      tag_77\n      jumpi\n      pop\n        /* \"smart_contracts/contracts/token/Token.sol\":3394:3395  0 */\n      0x00\n        /* \"smart_contracts/contracts/token/Token.sol\":3374:3396  _spender != address(0) */\n      0xffffffffffffffffffffffffffffffffffffffff\n      and\n        /* \"smart_contracts/contracts/token/Token.sol\":3374:3382  _spender */\n      dup4\n        /* \"smart_contracts/contracts/token/Token.sol\":3374:3396  _spender != address(0) */\n      0xffffffffffffffffffffffffffffffffffffffff\n      and\n      eq\n      iszero\n        /* \"smart_contracts/contracts/token/Token.sol\":3345:3397  (sender() != address(0)) && (_spender != address(0)) */\n    tag_77:\n        /* \"smart_contracts/contracts/token/Token.sol\":3337:3414  require((sender() != address(0)) && (_spender != address(0)), \"zero address\") */\n      tag_78\n      jumpi\n      mload(0x40)\n      0x08c379a000000000000000000000000000000000000000000000000000000000\n      dup2\n      mstore\n      0x04\n      add\n      tag_79\n      swap1\n      tag_80\n      jump\t// in\n    tag_79:\n      mload(0x40)\n      dup1\n      swap2\n      sub\n      swap1\n      revert\n    tag_78:\n        /* \"smart_contracts/contracts/token/Token.sol\":3454:3460  _value */\n      dup2\n        /* \"smart_contracts/contracts/token/Token.sol\":3424:3431  allowed */\n      0x07\n        /* \"smart_contracts/contracts/token/Token.sol\":3424:3441  allowed[sender()] */\n      0x00\n        /* \"smart_contracts/contracts/token/Token.sol\":3432:3440  sender() */\n      tag_81\n        /* \"smart_contracts/contracts/token/Token.sol\":3432:3438  sender */\n      tag_76\n        /* \"smart_contracts/contracts/token/Token.sol\":3432:3440  sender() */\n      jump\t// in\n    tag_81:\n        /* \"smart_contracts/contracts/token/Token.sol\":3424:3441  allowed[sender()] */\n      0xffffffffffffffffffffffffffffffffffffffff\n      and\n      0xffffffffffffffffffffffffffffffffffffffff\n      and\n      dup2\n      mstore\n      0x20\n      add\n      swap1\n      dup2\n      mstore\n      0x20\n      add\n      0x00\n      keccak256\n        /* \"smart_contracts/contracts/token/Token.sol\":3424:3451  allowed[sender()][_spender] */\n      0x00\n        /* \"smart_contracts/contracts/token/Token.sol\":3442:3450  _spender */\n      dup6\n        /* \"smart_contracts/contracts/token/Token.sol\":3424:3451  allowed[sender()][_spender] */\n      0xffffffffffffffffffffffffffffffffffffffff\n      and\n      0xffffffffffffffffffffffffffffffffffffffff\n      and\n      dup2\n      mstore\n      0x20\n      add\n      swap1\n      dup2\n      mstore\n      0x20\n      add\n      0x00\n      keccak256\n        /* \"smart_contracts/contracts/token/Token.sol\":3424:3460  allowed[sender()][_spender] = _value */\n      dup2\n      swap1\n      sstore\n      pop\n        /* \"smart_contracts/contracts/token/Token.sol\":3494:3502  _spender */\n      dup3\n        /* \"smart_contracts/contracts/token/Token.sol\":3475:3511  Approval(sender(), _spender, _value) */\n      0xffffffffffffffffffffffffffffffffffffffff\n      and\n        /* \"smart_contracts/contracts/token/Token.sol\":3484:3492  sender() */\n      tag_82\n        /* \"smart_contracts/contracts/token/Token.sol\":3484:3490  sender */\n      tag_76\n        /* \"smart_contracts/contracts/token/Token.sol\":3484:3492  sender() */\n      jump\t// in\n    tag_82:\n        /* \"smart_contracts/contracts/token/Token.sol\":3475:3511  Approval(sender(), _spender, _value) */\n      0xffffffffffffffffffffffffffffffffffffffff\n      and\n      0x8c5be1e5ebec7d5bd14f71427d1e84f3dd0314c0f7b2291e5b200ac8c7c3b925\n        /* \"smart_contracts/contracts/token/Token.sol\":3504:3510  _value */\n      dup5\n        /* \"smart_contracts/contracts/token/Token.sol\":3475:3511  Approval(sender(), _spender, _value) */\n      mload(0x40)\n      tag_83\n      swap2\n      swap1\n      tag_29\n      jump\t// in\n    tag_83:\n      mload(0x40)\n      dup1\n      swap2\n      sub\n      swap1\n      log3\n        /* \"smart_contracts/contracts/token/Token.sol\":3528:3532  true */\n      0x01\n        /* \"smart_contracts/contracts/token/Token.sol\":3521:3532  return true */\n      swap1\n      pop\n        /* \"smart_contracts/contracts/token/Token.sol\":3246:3539  function approve(address _spender, uint256 _value) public returns (bool success) {... */\n      swap3\n      swap2\n      pop\n      pop\n      jump\t// out\n        /* \"smart_contracts/contracts/token/Token.sol\":1470:1549  function totalSupply() public view returns (uint256) {return meta.totalSupply;} */\n    tag_27:\n        /* \"smart_contracts/contracts/token/Token.sol\":1514:1521  uint256 */\n      0x00\n        /* \"smart_contracts/contracts/token/Token.sol\":1531:1535  meta */\n      0x01\n        /* \"smart_contracts/contracts/token/Token.sol\":1531:1547  meta.totalSupply */\n      0x03\n      add\n      sload\n        /* \"smart_contracts/contracts/token/Token.sol\":1524:1547  return meta.totalSupply */\n      swap1\n      pop\n        /* \"smart_contracts/contracts/token/Token.sol\":1470:1549  function totalSupply() public view returns (uint256) {return meta.totalSupply;} */\n      swap1\n      jump\t// out\n        /* \"smart_contracts/contracts/token/Token.sol\":3545:4180  function transferFrom(address _from, address _to, uint256 _value) public returns (bool) {... */\n    tag_33:\n        /* \"smart_contracts/contracts/token/Token.sol\":3627:3631  bool */\n      0x00\n        /* \"smart_contracts/contracts/token/Token.sol\":3681:3698  type(uint256).max */\n      0xffffffffffffffffffffffffffffffffffffffffffffffffffffffffffffffff\n        /* \"smart_contracts/contracts/token/Token.sol\":3651:3677  allowance(_from, sender()) */\n      tag_86\n        /* \"smart_contracts/contracts/token/Token.sol\":3661:3666  _from */\n      dup6\n        /* \"smart_contracts/contracts/token/Token.sol\":3668:3676  sender() */\n      tag_87\n        /* \"smart_contracts/contracts/token/Token.sol\":3668:3674  sender */\n      tag_76\n        /* \"smart_contracts/contracts/token/Token.sol\":3668:3676  sender() */\n      jump\t// in\n    tag_87:\n        /* \"smart_contracts/contracts/token/Token.sol\":3651:3660  allowance */\n      tag_65\n        /* \"smart_contracts/contracts/token/Token.sol\":3651:3677  allowance(_from, sender()) */\n      jump\t// in\n    tag_86:\n        /* \"smart_contracts/contracts/token/Token.sol\":3651:3698  allowance(_from, sender()) != type(uint256).max */\n      sub\n        /* \"smart_contracts/contracts/token/Token.sol\":3643:3699  require(allowance(_from, sender()) != type(uint256).max) */\n      tag_88\n      jumpi\n      0x00\n      dup1\n      revert\n    tag_88:\n        /* \"smart_contracts/contracts/token/Token.sol\":3747:3753  _value */\n      dup2\n        /* \"smart_contracts/contracts/token/Token.sol\":3717:3743  allowance(_from, sender()) */\n      tag_89\n        /* \"smart_contracts/contracts/token/Token.sol\":3727:3732  _from */\n      dup6\n        /* \"smart_contracts/contracts/token/Token.sol\":3734:3742  sender() */\n      tag_90\n        /* \"smart_contracts/contracts/token/Token.sol\":3734:3740  sender */\n      tag_76\n        /* \"smart_contracts/contracts/token/Token.sol\":3734:3742  sender() */\n      jump\t// in\n    tag_90:\n        /* \"smart_contracts/contracts/token/Token.sol\":3717:3726  allowance */\n      tag_65\n        /* \"smart_contracts/contracts/token/Token.sol\":3717:3743  allowance(_from, sender()) */\n      jump\t// in\n    tag_89:\n        /* \"smart_contracts/contracts/token/Token.sol\":3717:3753  allowance(_from, sender()) >= _value */\n      lt\n      iszero\n        /* \"smart_contracts/contracts/token/Token.sol\":3709:3754  require(allowance(_from, sender()) >= _value) */\n      tag_91\n      jumpi\n      0x00\n      dup1\n      revert\n    tag_91:\n        /* \"smart_contracts/contracts/token/Token.sol\":3789:3790  0 */\n      0x00\n        /* \"smart_contracts/contracts/token/Token.sol\":3772:3791  _from != address(0) */\n      0xffffffffffffffffffffffffffffffffffffffff\n      and\n        /* \"smart_contracts/contracts/token/Token.sol\":3772:3777  _from */\n      dup5\n        /* \"smart_contracts/contracts/token/Token.sol\":3772:3791  _from != address(0) */\n      0xffffffffffffffffffffffffffffffffffffffff\n      and\n      sub\n        /* \"smart_contracts/contracts/token/Token.sol\":3764:3792  require(_from != address(0)) */\n      tag_92\n      jumpi\n      0x00\n      dup1\n      revert\n    tag_92:\n        /* \"smart_contracts/contracts/token/Token.sol\":3830:3831  0 */\n      0x00\n        /* \"smart_contracts/contracts/token/Token.sol\":3810:3832  sender() != address(0) */\n      0xffffffffffffffffffffffffffffffffffffffff\n      and\n        /* \"smart_contracts/contracts/token/Token.sol\":3810:3818  sender() */\n      tag_93\n        /* \"smart_contracts/contracts/token/Token.sol\":3810:3816  sender */\n      tag_76\n        /* \"smart_contracts/contracts/token/Token.sol\":3810:3818  sender() */\n      jump\t// in\n    tag_93:\n        /* \"smart_contracts/contracts/token/Token.sol\":3810:3832  sender() != address(0) */\n      0xffffffffffffffffffffffffffffffffffffffff\n      and\n      sub\n        /* \"smart_contracts/contracts/token/Token.sol\":3802:3833  require(sender() != address(0)) */\n      tag_94\n      jumpi\n      0x00\n      dup1\n      revert\n    tag_94:\n        /* \"smart_contracts/contracts/token/Token.sol\":3866:3867  0 */\n      0x00\n        /* \"smart_contracts/contracts/token/Token.sol\":3851:3868  _to != address(0) */\n      0xffffffffffffffffffffffffffffffffffffffff\n      and\n        /* \"smart_contracts/contracts/token/Token.sol\":3851:3854  _to */\n      dup4\n        /* \"smart_contracts/contracts/token/Token.sol\":3851:3868  _to != address(0) */\n      0xffffffffffffffffffffffffffffffffffffffff\n      and\n      sub\n        /* \"smart_contracts/contracts/token/Token.sol\":3843:3869  require(_to != address(0)) */\n      tag_95\n      jumpi\n      0x00\n      dup1\n      revert\n    tag_95:\n        /* \"smart_contracts/contracts/token/Token.sol\":3905:3911  _value */\n      dup2\n        /* \"smart_contracts/contracts/token/Token.sol\":3887:3894  balance */\n      0x06\n        /* \"smart_contracts/contracts/token/Token.sol\":3887:3901  balance[_from] */\n      0x00\n        /* \"smart_contracts/contracts/token/Token.sol\":3895:3900  _from */\n      dup7\n        /* \"smart_contracts/contracts/token/Token.sol\":3887:3901  balance[_from] */\n      0xffffffffffffffffffffffffffffffffffffffff\n      and\n      0xffffffffffffffffffffffffffffffffffffffff\n      and\n      dup2\n      mstore\n      0x20\n      add\n      swap1\n      dup2\n      mstore\n      0x20\n      add\n      0x00\n      keccak256\n      sload\n        /* \"smart_contracts/contracts/token/Token.sol\":3887:3911  balance[_from] >= _value */\n      lt\n      iszero\n        /* \"smart_contracts/contracts/token/Token.sol\":3879:3912  require(balance[_from] >= _value) */\n      tag_96\n      jumpi\n      0x00\n      dup1\n      revert\n    tag_96:\n        /* \"smart_contracts/contracts/token/Token.sol\":3949:3950  0 */\n      0x00\n        /* \"smart_contracts/contracts/token/Token.sol\":3931:3938  balance */\n      0x06\n        /* \"smart_contracts/contracts/token/Token.sol\":3931:3945  balance[_from] */\n      0x00\n        /* \"smart_contracts/contracts/token/Token.sol\":3939:3944  _from */\n      dup7\n        /* \"smart_contracts/contracts/token/Token.sol\":3931:3945  balance[_from] */\n      0xffffffffffffffffffffffffffffffffffffffff\n      and\n      0xffffffffffffffffffffffffffffffffffffffff\n      and\n      dup2\n      mstore\n      0x20\n      add\n      swap1\n      dup2\n      mstore\n      0x20\n      add\n      0x00\n      keccak256\n      sload\n        /* \"smart_contracts/contracts/token/Token.sol\":3931:3950  balance[_from] >= 0 */\n      lt\n      iszero\n        /* \"smart_contracts/contracts/token/Token.sol\":3922:3952  require((balance[_from] >= 0)) */\n      tag_97\n      jumpi\n      0x00\n      dup1\n      revert\n    tag_97:\n        /* \"smart_contracts/contracts/token/Token.sol\":3989:3995  _value */\n      dup2\n        /* \"smart_contracts/contracts/token/Token.sol\":3962:3969  allowed */\n      0x07\n        /* \"smart_contracts/contracts/token/Token.sol\":3962:3976  allowed[_from] */\n      0x00\n        /* \"smart_contracts/contracts/token/Token.sol\":3970:3975  _from */\n      dup7\n        /* \"smart_contracts/contracts/token/Token.sol\":3962:3976  allowed[_from] */\n      0xffffffffffffffffffffffffffffffffffffffff\n      and\n      0xffffffffffffffffffffffffffffffffffffffff\n      and\n      dup2\n      mstore\n      0x20\n      add\n      swap1\n      dup2\n      mstore\n      0x20\n      add\n      0x00\n      keccak256\n        /* \"smart_contracts/contracts/token/Token.sol\":3962:3986  allowed[_from][sender()] */\n      0x00\n        /* \"smart_contracts/contracts/token/Token.sol\":3977:3985  sender() */\n      tag_98\n        /* \"smart_contracts/contracts/token/Token.sol\":3977:3983  sender */\n      tag_76\n        /* \"smart_contracts/contracts/token/Token.sol\":3977:3985  sender() */\n      jump\t// in\n    tag_98:\n        /* \"smart_contracts/contracts/token/Token.sol\":3962:3986  allowed[_from][sender()] */\n      0xffffffffffffffffffffffffffffffffffffffff\n      and\n      0xffffffffffffffffffffffffffffffffffffffff\n      and\n      dup2\n      mstore\n      0x20\n      add\n      swap1\n      dup2\n      mstore\n      0x20\n      add\n      0x00\n      keccak256\n        /* \"smart_contracts/contracts/token/Token.sol\":3962:3995  allowed[_from][sender()] = _value */\n      dup2\n      swap1\n      sstore\n      pop\n        /* \"smart_contracts/contracts/token/Token.sol\":4026:4034  sender() */\n      tag_99\n        /* \"smart_contracts/contracts/token/Token.sol\":4026:4032  sender */\n      tag_76\n        /* \"smart_contracts/contracts/token/Token.sol\":4026:4034  sender() */\n      jump\t// in\n    tag_99:\n        /* \"smart_contracts/contracts/token/Token.sol\":4010:4043  Approval(_from, sender(), _value) */\n      0xffffffffffffffffffffffffffffffffffffffff\n      and\n        /* \"smart_contracts/contracts/token/Token.sol\":4019:4024  _from */\n      dup5\n        /* \"smart_contracts/contracts/token/Token.sol\":4010:4043  Approval(_from, sender(), _value) */\n      0xffffffffffffffffffffffffffffffffffffffff\n      and\n      0x8c5be1e5ebec7d5bd14f71427d1e84f3dd0314c0f7b2291e5b200ac8c7c3b925\n        /* \"smart_contracts/contracts/token/Token.sol\":4036:4042  _value */\n      dup5\n        /* \"smart_contracts/contracts/token/Token.sol\":4010:4043  Approval(_from, sender(), _value) */\n      mload(0x40)\n      tag_100\n      swap2\n      swap1\n      tag_29\n      jump\t// in\n    tag_100:\n      mload(0x40)\n      dup1\n      swap2\n      sub\n      swap1\n      log3\n        /* \"smart_contracts/contracts/token/Token.sol\":4071:4077  _value */\n      dup2\n        /* \"smart_contracts/contracts/token/Token.sol\":4053:4060  balance */\n      0x06\n        /* \"smart_contracts/contracts/token/Token.sol\":4053:4067  balance[_from] */\n      0x00\n        /* \"smart_contracts/contracts/token/Token.sol\":4061:4066  _from */\n      dup7\n        /* \"smart_contracts/contracts/token/Token.sol\":4053:4067  balance[_from] */\n      0xffffffffffffffffffffffffffffffffffffffff\n      and\n      0xffffffffffffffffffffffffffffffffffffffff\n      and\n      dup2\n      mstore\n      0x20\n      add\n      swap1\n      dup2\n      mstore\n      0x20\n      add\n      0x00\n      keccak256\n      0x00\n        /* \"smart_contracts/contracts/token/Token.sol\":4053:4077  balance[_from] -= _value */\n      dup3\n      dup3\n      sload\n      tag_101\n      swap2\n      swap1\n      tag_102\n      jump\t// in\n    tag_101:\n      swap3\n      pop\n      pop\n      dup2\n      swap1\n      sstore\n      pop\n        /* \"smart_contracts/contracts/token/Token.sol\":4103:4109  _value */\n      dup2\n        /* \"smart_contracts/contracts/token/Token.sol\":4087:4094  balance */\n      0x06\n        /* \"smart_contracts/contracts/token/Token.sol\":4087:4099  balance[_to] */\n      0x00\n        /* \"smart_contracts/contracts/token/Token.sol\":4095:4098  _to */\n      dup6\n        /* \"smart_contracts/contracts/token/Token.sol\":4087:4099  balance[_to] */\n      0xffffffffffffffffffffffffffffffffffffffff\n      and\n      0xffffffffffffffffffffffffffffffffffffffff\n      and\n      dup2\n      mstore\n      0x20\n      add\n      swap1\n      dup2\n      mstore\n      0x20\n      add\n      0x00\n      keccak256\n      0x00\n        /* \"smart_contracts/contracts/token/Token.sol\":4087:4109  balance[_to] += _value */\n      dup3\n      dup3\n      sload\n      tag_103\n      swap2\n      swap1\n      tag_104\n      jump\t// in\n    tag_103:\n      swap3\n      pop\n      pop\n      dup2\n      swap1\n      sstore\n      pop\n        /* \"smart_contracts/contracts/token/Token.sol\":4140:4143  _to */\n      dup3\n        /* \"smart_contracts/contracts/token/Token.sol\":4124:4152  Transfer(_from, _to, _value) */\n      0xffffffffffffffffffffffffffffffffffffffff\n      and\n        /* \"smart_contracts/contracts/token/Token.sol\":4133:4138  _from */\n      dup5\n        /* \"smart_contracts/contracts/token/Token.sol\":4124:4152  Transfer(_from, _to, _value) */\n      0xffffffffffffffffffffffffffffffffffffffff\n      and\n      0xddf252ad1be2c89b69c2b068fc378daa952ba7f163c4a11628f55a4df523b3ef\n        /* \"smart_contracts/contracts/token/Token.sol\":4145:4151  _value */\n      dup5\n        /* \"smart_contracts/contracts/token/Token.sol\":4124:4152  Transfer(_from, _to, _value) */\n      mload(0x40)\n      tag_105\n      swap2\n      swap1\n      tag_29\n      jump\t// in\n    tag_105:\n      mload(0x40)\n      dup1\n      swap2\n      sub\n      swap1\n      log3\n        /* \"smart_contracts/contracts/token/Token.sol\":4169:4173  true */\n      0x01\n        /* \"smart_contracts/contracts/token/Token.sol\":4162:4173  return true */\n      swap1\n      pop\n        /* \"smart_contracts/contracts/token/Token.sol\":3545:4180  function transferFrom(address _from, address _to, uint256 _value) public returns (bool) {... */\n      swap4\n      swap3\n      pop\n      pop\n      pop\n      jump\t// out\n        /* \"smart_contracts/contracts/token/Token.sol\":1394:1465  function decimals() public view returns (uint8) {return meta.decimals;} */\n    tag_36:\n        /* \"smart_contracts/contracts/token/Token.sol\":1435:1440  uint8 */\n      0x00\n        /* \"smart_contracts/contracts/token/Token.sol\":1450:1454  meta */\n      0x01\n        /* \"smart_contracts/contracts/token/Token.sol\":1450:1463  meta.decimals */\n      0x02\n      add\n      0x00\n      swap1\n      sload\n      swap1\n      0x0100\n      exp\n      swap1\n      div\n      0xff\n      and\n        /* \"smart_contracts/contracts/token/Token.sol\":1443:1463  return meta.decimals */\n      swap1\n      pop\n        /* \"smart_contracts/contracts/token/Token.sol\":1394:1465  function decimals() public view returns (uint8) {return meta.decimals;} */\n      swap1\n      jump\t// out\n        /* \"smart_contracts/contracts/token/Token.sol\":2437:2796  function increaseAllowance(address _spender, uint256 _value) public returns (bool) {... */\n    tag_41:\n        /* \"smart_contracts/contracts/token/Token.sol\":2514:2518  bool */\n      0x00\n        /* \"smart_contracts/contracts/token/Token.sol\":2559:2560  0 */\n      dup1\n        /* \"smart_contracts/contracts/token/Token.sol\":2539:2561  sender() != address(0) */\n      0xffffffffffffffffffffffffffffffffffffffff\n      and\n        /* \"smart_contracts/contracts/token/Token.sol\":2539:2547  sender() */\n      tag_108\n        /* \"smart_contracts/contracts/token/Token.sol\":2539:2545  sender */\n      tag_76\n        /* \"smart_contracts/contracts/token/Token.sol\":2539:2547  sender() */\n      jump\t// in\n    tag_108:\n        /* \"smart_contracts/contracts/token/Token.sol\":2539:2561  sender() != address(0) */\n      0xffffffffffffffffffffffffffffffffffffffff\n      and\n      eq\n      iszero\n        /* \"smart_contracts/contracts/token/Token.sol\":2538:2590  (sender() != address(0)) && (_spender != address(0)) */\n      dup1\n      iszero\n      tag_109\n      jumpi\n      pop\n        /* \"smart_contracts/contracts/token/Token.sol\":2587:2588  0 */\n      0x00\n        /* \"smart_contracts/contracts/token/Token.sol\":2567:2589  _spender != address(0) */\n      0xffffffffffffffffffffffffffffffffffffffff\n      and\n        /* \"smart_contracts/contracts/token/Token.sol\":2567:2575  _spender */\n      dup4\n        /* \"smart_contracts/contracts/token/Token.sol\":2567:2589  _spender != address(0) */\n      0xffffffffffffffffffffffffffffffffffffffff\n      and\n      eq\n      iszero\n        /* \"smart_contracts/contracts/token/Token.sol\":2538:2590  (sender() != address(0)) && (_spender != address(0)) */\n    tag_109:\n        /* \"smart_contracts/contracts/token/Token.sol\":2530:2607  require((sender() != address(0)) && (_spender != address(0)), \"zero address\") */\n      tag_110\n      jumpi\n      mload(0x40)\n      0x08c379a000000000000000000000000000000000000000000000000000000000\n      dup2\n      mstore\n      0x04\n      add\n      tag_111\n      swap1\n      tag_80\n      jump\t// in\n    tag_111:\n      mload(0x40)\n      dup1\n      swap2\n      sub\n      swap1\n      revert\n    tag_110:\n        /* \"smart_contracts/contracts/token/Token.sol\":2679:2685  _value */\n      dup2\n        /* \"smart_contracts/contracts/token/Token.sol\":2647:2676  allowance(sender(), _spender) */\n      tag_112\n        /* \"smart_contracts/contracts/token/Token.sol\":2657:2665  sender() */\n      tag_113\n        /* \"smart_contracts/contracts/token/Token.sol\":2657:2663  sender */\n      tag_76\n        /* \"smart_contracts/contracts/token/Token.sol\":2657:2665  sender() */\n      jump\t// in\n    tag_113:\n        /* \"smart_contracts/contracts/token/Token.sol\":2667:2675  _spender */\n      dup6\n        /* \"smart_contracts/contracts/token/Token.sol\":2647:2656  allowance */\n      tag_65\n        /* \"smart_contracts/contracts/token/Token.sol\":2647:2676  allowance(sender(), _spender) */\n      jump\t// in\n    tag_112:\n        /* \"smart_contracts/contracts/token/Token.sol\":2647:2685  allowance(sender(), _spender) + _value */\n      tag_114\n      swap2\n      swap1\n      tag_104\n      jump\t// in\n    tag_114:\n        /* \"smart_contracts/contracts/token/Token.sol\":2617:2624  allowed */\n      0x07\n        /* \"smart_contracts/contracts/token/Token.sol\":2617:2634  allowed[sender()] */\n      0x00\n        /* \"smart_contracts/contracts/token/Token.sol\":2625:2633  sender() */\n      tag_115\n        /* \"smart_contracts/contracts/token/Token.sol\":2625:2631  sender */\n      tag_76\n        /* \"smart_contracts/contracts/token/Token.sol\":2625:2633  sender() */\n      jump\t// in\n    tag_115:\n        /* \"smart_contracts/contracts/token/Token.sol\":2617:2634  allowed[sender()] */\n      0xffffffffffffffffffffffffffffffffffffffff\n      and\n      0xffffffffffffffffffffffffffffffffffffffff\n      and\n      dup2\n      mstore\n      0x20\n      add\n      swap1\n      dup2\n      mstore\n      0x20\n      add\n      0x00\n      keccak256\n        /* \"smart_contracts/contracts/token/Token.sol\":2617:2644  allowed[sender()][_spender] */\n      0x00\n        /* \"smart_contracts/contracts/token/Token.sol\":2635:2643  _spender */\n      dup6\n        /* \"smart_contracts/contracts/token/Token.sol\":2617:2644  allowed[sender()][_spender] */\n      0xffffffffffffffffffffffffffffffffffffffff\n      and\n      0xffffffffffffffffffffffffffffffffffffffff\n      and\n      dup2\n      mstore\n      0x20\n      add\n      swap1\n      dup2\n      mstore\n      0x20\n      add\n      0x00\n      keccak256\n        /* \"smart_contracts/contracts/token/Token.sol\":2617:2685  allowed[sender()][_spender] = allowance(sender(), _spender) + _value */\n      dup2\n      swap1\n      sstore\n      pop\n        /* \"smart_contracts/contracts/token/Token.sol\":2719:2727  _spender */\n      dup3\n        /* \"smart_contracts/contracts/token/Token.sol\":2700:2768  Approval(sender(), _spender, allowance(sender(), _spender) + _value) */\n      0xffffffffffffffffffffffffffffffffffffffff\n      and\n        /* \"smart_contracts/contracts/token/Token.sol\":2709:2717  sender() */\n      tag_116\n        /* \"smart_contracts/contracts/token/Token.sol\":2709:2715  sender */\n      tag_76\n        /* \"smart_contracts/contracts/token/Token.sol\":2709:2717  sender() */\n      jump\t// in\n    tag_116:\n        /* \"smart_contracts/contracts/token/Token.sol\":2700:2768  Approval(sender(), _spender, allowance(sender(), _spender) + _value) */\n      0xffffffffffffffffffffffffffffffffffffffff\n      and\n      0x8c5be1e5ebec7d5bd14f71427d1e84f3dd0314c0f7b2291e5b200ac8c7c3b925\n        /* \"smart_contracts/contracts/token/Token.sol\":2761:2767  _value */\n      dup5\n        /* \"smart_contracts/contracts/token/Token.sol\":2729:2758  allowance(sender(), _spender) */\n      tag_117\n        /* \"smart_contracts/contracts/token/Token.sol\":2739:2747  sender() */\n      tag_118\n        /* \"smart_contracts/contracts/token/Token.sol\":2739:2745  sender */\n      tag_76\n        /* \"smart_contracts/contracts/token/Token.sol\":2739:2747  sender() */\n      jump\t// in\n    tag_118:\n        /* \"smart_contracts/contracts/token/Token.sol\":2749:2757  _spender */\n      dup9\n        /* \"smart_contracts/contracts/token/Token.sol\":2729:2738  allowance */\n      tag_65\n        /* \"smart_contracts/contracts/token/Token.sol\":2729:2758  allowance(sender(), _spender) */\n      jump\t// in\n    tag_117:\n        /* \"smart_contracts/contracts/token/Token.sol\":2729:2767  allowance(sender(), _spender) + _value */\n      tag_119\n      swap2\n      swap1\n      tag_104\n      jump\t// in\n    tag_119:\n        /* \"smart_contracts/contracts/token/Token.sol\":2700:2768  Approval(sender(), _spender, allowance(sender(), _spender) + _value) */\n      mload(0x40)\n      tag_120\n      swap2\n      swap1\n      tag_29\n      jump\t// in\n    tag_120:\n      mload(0x40)\n      dup1\n      swap2\n      sub\n      swap1\n      log3\n        /* \"smart_contracts/contracts/token/Token.sol\":2785:2789  true */\n      0x01\n        /* \"smart_contracts/contracts/token/Token.sol\":2778:2789  return true */\n      swap1\n      pop\n        /* \"smart_contracts/contracts/token/Token.sol\":2437:2796  function increaseAllowance(address _spender, uint256 _value) public returns (bool) {... */\n      swap3\n      swap2\n      pop\n      pop\n      jump\t// out\n        /* \"smart_contracts/contracts/token/Token.sol\":1635:1794  function balanceOf(address _owner) public view returns (uint256) {... */\n    tag_46:\n        /* \"smart_contracts/contracts/token/Token.sol\":1691:1698  uint256 */\n      0x00\n        /* \"smart_contracts/contracts/token/Token.sol\":1736:1737  0 */\n      dup1\n        /* \"smart_contracts/contracts/token/Token.sol\":1718:1738  _owner != address(0) */\n      0xffffffffffffffffffffffffffffffffffffffff\n      and\n        /* \"smart_contracts/contracts/token/Token.sol\":1718:1724  _owner */\n      dup3\n        /* \"smart_contracts/contracts/token/Token.sol\":1718:1738  _owner != address(0) */\n      0xffffffffffffffffffffffffffffffffffffffff\n      and\n      sub\n        /* \"smart_contracts/contracts/token/Token.sol\":1710:1755  require(_owner != address(0), \"zero address\") */\n      tag_122\n      jumpi\n      mload(0x40)\n      0x08c379a000000000000000000000000000000000000000000000000000000000\n      dup2\n      mstore\n      0x04\n      add\n      tag_123\n      swap1\n      tag_80\n      jump\t// in\n    tag_123:\n      mload(0x40)\n      dup1\n      swap2\n      sub\n      swap1\n      revert\n    tag_122:\n        /* \"smart_contracts/contracts/token/Token.sol\":1772:1779  balance */\n      0x06\n        /* \"smart_contracts/contracts/token/Token.sol\":1772:1787  balance[_owner] */\n      0x00\n        /* \"smart_contracts/contracts/token/Token.sol\":1780:1786  _owner */\n      dup4\n        /* \"smart_contracts/contracts/token/Token.sol\":1772:1787  balance[_owner] */\n      0xffffffffffffffffffffffffffffffffffffffff\n      and\n      0xffffffffffffffffffffffffffffffffffffffff\n      and\n      dup2\n      mstore\n      0x20\n      add\n      swap1\n      dup2\n      mstore\n      0x20\n      add\n      0x00\n      keccak256\n      sload\n        /* \"smart_contracts/contracts/token/Token.sol\":1765:1787  return balance[_owner] */\n      swap1\n      pop\n        /* \"smart_contracts/contracts/token/Token.sol\":1635:1794  function balanceOf(address _owner) public view returns (uint256) {... */\n      swap2\n      swap1\n      pop\n      jump\t// out\n        /* \"smart_contracts/contracts/token/Token.sol\":1314:1389  function symbol() public view returns (string memory) {return meta.symbol;} */\n    tag_49:\n        /* \"smart_contracts/contracts/token/Token.sol\":1353:1366  string memory */\n      0x60\n        /* \"smart_contracts/contracts/token/Token.sol\":1376:1380  meta */\n      0x01\n        /* \"smart_contracts/contracts/token/Token.sol\":1376:1387  meta.symbol */\n      dup1\n      add\n        /* \"smart_contracts/contracts/token/Token.sol\":1369:1387  return meta.symbol */\n      dup1\n      sload\n      tag_125\n      swap1\n      tag_69\n      jump\t// in\n    tag_125:\n      dup1\n      0x1f\n      add\n      0x20\n      dup1\n      swap2\n      div\n      mul\n      0x20\n      add\n      mload(0x40)\n      swap1\n      dup2\n      add\n      0x40\n      mstore\n      dup1\n      swap3\n      swap2\n      swap1\n      dup2\n      dup2\n      mstore\n      0x20\n      add\n      dup3\n      dup1\n      sload\n      tag_126\n      swap1\n      tag_69\n      jump\t// in\n    tag_126:\n      dup1\n      iszero\n      tag_127\n      jumpi\n      dup1\n      0x1f\n      lt\n      tag_128\n      jumpi\n      0x0100\n      dup1\n      dup4\n      sload\n      div\n      mul\n      dup4\n      mstore\n      swap2\n      0x20\n      add\n      swap2\n      jump(tag_127)\n    tag_128:\n      dup3\n      add\n      swap2\n      swap1\n      0x00\n      mstore\n      keccak256(0x00, 0x20)\n      swap1\n    tag_129:\n      dup2\n      sload\n      dup2\n      mstore\n      swap1\n      0x01\n      add\n      swap1\n      0x20\n      add\n      dup1\n      dup4\n      gt\n      tag_129\n      jumpi\n      dup3\n      swap1\n      sub\n      0x1f\n      and\n      dup3\n      add\n      swap2\n    tag_127:\n      pop\n      pop\n      pop\n      pop\n      pop\n      swap1\n      pop\n        /* \"smart_contracts/contracts/token/Token.sol\":1314:1389  function symbol() public view returns (string memory) {return meta.symbol;} */\n      swap1\n      jump\t// out\n        /* \"smart_contracts/contracts/token/Token.sol\":2802:3240  function decreaseAllowance(address _spender, uint256 _value) public returns (bool) {... */\n    tag_53:\n        /* \"smart_contracts/contracts/token/Token.sol\":2879:2883  bool */\n      0x00\n        /* \"smart_contracts/contracts/token/Token.sol\":2937:2943  _value */\n      dup2\n        /* \"smart_contracts/contracts/token/Token.sol\":2904:2933  allowance(sender(), _spender) */\n      tag_131\n        /* \"smart_contracts/contracts/token/Token.sol\":2914:2922  sender() */\n      tag_132\n        /* \"smart_contracts/contracts/token/Token.sol\":2914:2920  sender */\n      tag_76\n        /* \"smart_contracts/contracts/token/Token.sol\":2914:2922  sender() */\n      jump\t// in\n    tag_132:\n        /* \"smart_contracts/contracts/token/Token.sol\":2924:2932  _spender */\n      dup6\n        /* \"smart_contracts/contracts/token/Token.sol\":2904:2913  allowance */\n      tag_65\n        /* \"smart_contracts/contracts/token/Token.sol\":2904:2933  allowance(sender(), _spender) */\n      jump\t// in\n    tag_131:\n        /* \"smart_contracts/contracts/token/Token.sol\":2904:2943  allowance(sender(), _spender) >= _value */\n      lt\n      iszero\n        /* \"smart_contracts/contracts/token/Token.sol\":2903:2972  (allowance(sender(), _spender) >= _value) && (sender() != address(0)) */\n      dup1\n      iszero\n      tag_133\n      jumpi\n      pop\n        /* \"smart_contracts/contracts/token/Token.sol\":2969:2970  0 */\n      0x00\n        /* \"smart_contracts/contracts/token/Token.sol\":2949:2971  sender() != address(0) */\n      0xffffffffffffffffffffffffffffffffffffffff\n      and\n        /* \"smart_contracts/contracts/token/Token.sol\":2949:2957  sender() */\n      tag_134\n        /* \"smart_contracts/contracts/token/Token.sol\":2949:2955  sender */\n      tag_76\n        /* \"smart_contracts/contracts/token/Token.sol\":2949:2957  sender() */\n      jump\t// in\n    tag_134:\n        /* \"smart_contracts/contracts/token/Token.sol\":2949:2971  sender() != address(0) */\n      0xffffffffffffffffffffffffffffffffffffffff\n      and\n      eq\n      iszero\n        /* \"smart_contracts/contracts/token/Token.sol\":2903:2972  (allowance(sender(), _spender) >= _value) && (sender() != address(0)) */\n    tag_133:\n        /* \"smart_contracts/contracts/token/Token.sol\":2903:3000  (allowance(sender(), _spender) >= _value) && (sender() != address(0)) && (_spender != address(0)) */\n      dup1\n      iszero\n      tag_135\n      jumpi\n      pop\n        /* \"smart_contracts/contracts/token/Token.sol\":2997:2998  0 */\n      0x00\n        /* \"smart_contracts/contracts/token/Token.sol\":2977:2999  _spender != address(0) */\n      0xffffffffffffffffffffffffffffffffffffffff\n      and\n        /* \"smart_contracts/contracts/token/Token.sol\":2977:2985  _spender */\n      dup4\n        /* \"smart_contracts/contracts/token/Token.sol\":2977:2999  _spender != address(0) */\n      0xffffffffffffffffffffffffffffffffffffffff\n      and\n      eq\n      iszero\n        /* \"smart_contracts/contracts/token/Token.sol\":2903:3000  (allowance(sender(), _spender) >= _value) && (sender() != address(0)) && (_spender != address(0)) */\n    tag_135:\n        /* \"smart_contracts/contracts/token/Token.sol\":2895:3051  require((allowance(sender(), _spender) >= _value) && (sender() != address(0)) && (_spender != address(0)), \"zero address || decreased allowance below zero\") */\n      tag_136\n      jumpi\n      mload(0x40)\n      0x08c379a000000000000000000000000000000000000000000000000000000000\n      dup2\n      mstore\n      0x04\n      add\n      tag_137\n      swap1\n      tag_138\n      jump\t// in\n    tag_137:\n      mload(0x40)\n      dup1\n      swap2\n      sub\n      swap1\n      revert\n    tag_136:\n        /* \"smart_contracts/contracts/token/Token.sol\":3123:3129  _value */\n      dup2\n        /* \"smart_contracts/contracts/token/Token.sol\":3091:3120  allowance(sender(), _spender) */\n      tag_139\n        /* \"smart_contracts/contracts/token/Token.sol\":3101:3109  sender() */\n      tag_140\n        /* \"smart_contracts/contracts/token/Token.sol\":3101:3107  sender */\n      tag_76\n        /* \"smart_contracts/contracts/token/Token.sol\":3101:3109  sender() */\n      jump\t// in\n    tag_140:\n        /* \"smart_contracts/contracts/token/Token.sol\":3111:3119  _spender */\n      dup6\n        /* \"smart_contracts/contracts/token/Token.sol\":3091:3100  allowance */\n      tag_65\n        /* \"smart_contracts/contracts/token/Token.sol\":3091:3120  allowance(sender(), _spender) */\n      jump\t// in\n    tag_139:\n        /* \"smart_contracts/contracts/token/Token.sol\":3091:3129  allowance(sender(), _spender) - _value */\n      tag_141\n      swap2\n      swap1\n      tag_102\n      jump\t// in\n    tag_141:\n        /* \"smart_contracts/contracts/token/Token.sol\":3061:3068  allowed */\n      0x07\n        /* \"smart_contracts/contracts/token/Token.sol\":3061:3078  allowed[sender()] */\n      0x00\n        /* \"smart_contracts/contracts/token/Token.sol\":3069:3077  sender() */\n      tag_142\n        /* \"smart_contracts/contracts/token/Token.sol\":3069:3075  sender */\n      tag_76\n        /* \"smart_contracts/contracts/token/Token.sol\":3069:3077  sender() */\n      jump\t// in\n    tag_142:\n        /* \"smart_contracts/contracts/token/Token.sol\":3061:3078  allowed[sender()] */\n      0xffffffffffffffffffffffffffffffffffffffff\n      and\n      0xffffffffffffffffffffffffffffffffffffffff\n      and\n      dup2\n      mstore\n      0x20\n      add\n      swap1\n      dup2\n      mstore\n      0x20\n      add\n      0x00\n      keccak256\n        /* \"smart_contracts/contracts/token/Token.sol\":3061:3088  allowed[sender()][_spender] */\n      0x00\n        /* \"smart_contracts/contracts/token/Token.sol\":3079:3087  _spender */\n      dup6\n        /* \"smart_contracts/contracts/token/Token.sol\":3061:3088  allowed[sender()][_spender] */\n      0xffffffffffffffffffffffffffffffffffffffff\n      and\n      0xffffffffffffffffffffffffffffffffffffffff\n      and\n      dup2\n      mstore\n      0x20\n      add\n      swap1\n      dup2\n      mstore\n      0x20\n      add\n      0x00\n      keccak256\n        /* \"smart_contracts/contracts/token/Token.sol\":3061:3129  allowed[sender()][_spender] = allowance(sender(), _spender) - _value */\n      dup2\n      swap1\n      sstore\n      pop\n        /* \"smart_contracts/contracts/token/Token.sol\":3163:3171  _spender */\n      dup3\n        /* \"smart_contracts/contracts/token/Token.sol\":3144:3212  Approval(sender(), _spender, allowance(sender(), _spender) - _value) */\n      0xffffffffffffffffffffffffffffffffffffffff\n      and\n        /* \"smart_contracts/contracts/token/Token.sol\":3153:3161  sender() */\n      tag_143\n        /* \"smart_contracts/contracts/token/Token.sol\":3153:3159  sender */\n      tag_76\n        /* \"smart_contracts/contracts/token/Token.sol\":3153:3161  sender() */\n      jump\t// in\n    tag_143:\n        /* \"smart_contracts/contracts/token/Token.sol\":3144:3212  Approval(sender(), _spender, allowance(sender(), _spender) - _value) */\n      0xffffffffffffffffffffffffffffffffffffffff\n      and\n      0x8c5be1e5ebec7d5bd14f71427d1e84f3dd0314c0f7b2291e5b200ac8c7c3b925\n        /* \"smart_contracts/contracts/token/Token.sol\":3205:3211  _value */\n      dup5\n        /* \"smart_contracts/contracts/token/Token.sol\":3173:3202  allowance(sender(), _spender) */\n      tag_144\n        /* \"smart_contracts/contracts/token/Token.sol\":3183:3191  sender() */\n      tag_145\n        /* \"smart_contracts/contracts/token/Token.sol\":3183:3189  sender */\n      tag_76\n        /* \"smart_contracts/contracts/token/Token.sol\":3183:3191  sender() */\n      jump\t// in\n    tag_145:\n        /* \"smart_contracts/contracts/token/Token.sol\":3193:3201  _spender */\n      dup9\n        /* \"smart_contracts/contracts/token/Token.sol\":3173:3182  allowance */\n      tag_65\n        /* \"smart_contracts/contracts/token/Token.sol\":3173:3202  allowance(sender(), _spender) */\n      jump\t// in\n    tag_144:\n        /* \"smart_contracts/contracts/token/Token.sol\":3173:3211  allowance(sender(), _spender) - _value */\n      tag_146\n      swap2\n      swap1\n      tag_102\n      jump\t// in\n    tag_146:\n        /* \"smart_contracts/contracts/token/Token.sol\":3144:3212  Approval(sender(), _spender, allowance(sender(), _spender) - _value) */\n      mload(0x40)\n      tag_147\n      swap2\n      swap1\n      tag_29\n      jump\t// in\n    tag_147:\n      mload(0x40)\n      dup1\n      swap2\n      sub\n      swap1\n      log3\n        /* \"smart_contracts/contracts/token/Token.sol\":3229:3233  true */\n      0x01\n        /* \"smart_contracts/contracts/token/Token.sol\":3222:3233  return true */\n      swap1\n      pop\n        /* \"smart_contracts/contracts/token/Token.sol\":2802:3240  function decreaseAllowance(address _spender, uint256 _value) public returns (bool) {... */\n      swap3\n      swap2\n      pop\n      pop\n      jump\t// out\n        /* \"smart_contracts/contracts/token/Token.sol\":1800:2298  function transfer(address _to, uint256 _value) public returns (bool sucess) {... */\n    tag_57:\n        /* \"smart_contracts/contracts/token/Token.sol\":1863:1874  bool sucess */\n      0x00\n        /* \"smart_contracts/contracts/token/Token.sol\":1915:1916  0 */\n      dup1\n        /* \"smart_contracts/contracts/token/Token.sol\":1895:1917  sender() != address(0) */\n      0xffffffffffffffffffffffffffffffffffffffff\n      and\n        /* \"smart_contracts/contracts/token/Token.sol\":1895:1903  sender() */\n      tag_149\n        /* \"smart_contracts/contracts/token/Token.sol\":1895:1901  sender */\n      tag_76\n        /* \"smart_contracts/contracts/token/Token.sol\":1895:1903  sender() */\n      jump\t// in\n    tag_149:\n        /* \"smart_contracts/contracts/token/Token.sol\":1895:1917  sender() != address(0) */\n      0xffffffffffffffffffffffffffffffffffffffff\n      and\n      eq\n      iszero\n        /* \"smart_contracts/contracts/token/Token.sol\":1894:1941  (sender() != address(0)) && (_to != address(0)) */\n      dup1\n      iszero\n      tag_150\n      jumpi\n      pop\n        /* \"smart_contracts/contracts/token/Token.sol\":1938:1939  0 */\n      0x00\n        /* \"smart_contracts/contracts/token/Token.sol\":1923:1940  _to != address(0) */\n      0xffffffffffffffffffffffffffffffffffffffff\n      and\n        /* \"smart_contracts/contracts/token/Token.sol\":1923:1926  _to */\n      dup4\n        /* \"smart_contracts/contracts/token/Token.sol\":1923:1940  _to != address(0) */\n      0xffffffffffffffffffffffffffffffffffffffff\n      and\n      eq\n      iszero\n        /* \"smart_contracts/contracts/token/Token.sol\":1894:1941  (sender() != address(0)) && (_to != address(0)) */\n    tag_150:\n        /* \"smart_contracts/contracts/token/Token.sol\":1894:1972  (sender() != address(0)) && (_to != address(0)) && balance[sender()] >= _value */\n      dup1\n      iszero\n      tag_151\n      jumpi\n      pop\n        /* \"smart_contracts/contracts/token/Token.sol\":1966:1972  _value */\n      dup2\n        /* \"smart_contracts/contracts/token/Token.sol\":1945:1952  balance */\n      0x06\n        /* \"smart_contracts/contracts/token/Token.sol\":1945:1962  balance[sender()] */\n      0x00\n        /* \"smart_contracts/contracts/token/Token.sol\":1953:1961  sender() */\n      tag_152\n        /* \"smart_contracts/contracts/token/Token.sol\":1953:1959  sender */\n      tag_76\n        /* \"smart_contracts/contracts/token/Token.sol\":1953:1961  sender() */\n      jump\t// in\n    tag_152:\n        /* \"smart_contracts/contracts/token/Token.sol\":1945:1962  balance[sender()] */\n      0xffffffffffffffffffffffffffffffffffffffff\n      and\n      0xffffffffffffffffffffffffffffffffffffffff\n      and\n      dup2\n      mstore\n      0x20\n      add\n      swap1\n      dup2\n      mstore\n      0x20\n      add\n      0x00\n      keccak256\n      sload\n        /* \"smart_contracts/contracts/token/Token.sol\":1945:1972  balance[sender()] >= _value */\n      lt\n      iszero\n        /* \"smart_contracts/contracts/token/Token.sol\":1894:1972  (sender() != address(0)) && (_to != address(0)) && balance[sender()] >= _value */\n    tag_151:\n        /* \"smart_contracts/contracts/token/Token.sol\":1894:2000  (sender() != address(0)) && (_to != address(0)) && balance[sender()] >= _value && (balance[sender()] >= 0) */\n      dup1\n      iszero\n      tag_153\n      jumpi\n      pop\n        /* \"smart_contracts/contracts/token/Token.sol\":1998:1999  0 */\n      0x00\n        /* \"smart_contracts/contracts/token/Token.sol\":1977:1984  balance */\n      0x06\n        /* \"smart_contracts/contracts/token/Token.sol\":1977:1994  balance[sender()] */\n      0x00\n        /* \"smart_contracts/contracts/token/Token.sol\":1985:1993  sender() */\n      tag_154\n        /* \"smart_contracts/contracts/token/Token.sol\":1985:1991  sender */\n      tag_76\n        /* \"smart_contracts/contracts/token/Token.sol\":1985:1993  sender() */\n      jump\t// in\n    tag_154:\n        /* \"smart_contracts/contracts/token/Token.sol\":1977:1994  balance[sender()] */\n      0xffffffffffffffffffffffffffffffffffffffff\n      and\n      0xffffffffffffffffffffffffffffffffffffffff\n      and\n      dup2\n      mstore\n      0x20\n      add\n      swap1\n      dup2\n      mstore\n      0x20\n      add\n      0x00\n      keccak256\n      sload\n        /* \"smart_contracts/contracts/token/Token.sol\":1977:1999  balance[sender()] >= 0 */\n      lt\n      iszero\n        /* \"smart_contracts/contracts/token/Token.sol\":1894:2000  (sender() != address(0)) && (_to != address(0)) && balance[sender()] >= _value && (balance[sender()] >= 0) */\n    tag_153:\n        /* \"smart_contracts/contracts/token/Token.sol\":1886:2041  require((sender() != address(0)) && (_to != address(0)) && balance[sender()] >= _value && (balance[sender()] >= 0), \"zero address || insufficient balance\") */\n      tag_155\n      jumpi\n      mload(0x40)\n      0x08c379a000000000000000000000000000000000000000000000000000000000\n      dup2\n      mstore\n      0x04\n      add\n      tag_156\n      swap1\n      tag_157\n      jump\t// in\n    tag_156:\n      mload(0x40)\n      dup1\n      swap2\n      sub\n      swap1\n      revert\n    tag_155:\n        /* \"smart_contracts/contracts/token/Token.sol\":2072:2078  _value */\n      dup2\n        /* \"smart_contracts/contracts/token/Token.sol\":2051:2058  balance */\n      0x06\n        /* \"smart_contracts/contracts/token/Token.sol\":2051:2068  balance[sender()] */\n      0x00\n        /* \"smart_contracts/contracts/token/Token.sol\":2059:2067  sender() */\n      tag_158\n        /* \"smart_contracts/contracts/token/Token.sol\":2059:2065  sender */\n      tag_76\n        /* \"smart_contracts/contracts/token/Token.sol\":2059:2067  sender() */\n      jump\t// in\n    tag_158:\n        /* \"smart_contracts/contracts/token/Token.sol\":2051:2068  balance[sender()] */\n      0xffffffffffffffffffffffffffffffffffffffff\n      and\n      0xffffffffffffffffffffffffffffffffffffffff\n      and\n      dup2\n      mstore\n      0x20\n      add\n      swap1\n      dup2\n      mstore\n      0x20\n      add\n      0x00\n      keccak256\n      0x00\n        /* \"smart_contracts/contracts/token/Token.sol\":2051:2078  balance[sender()] -= _value */\n      dup3\n      dup3\n      sload\n      tag_159\n      swap2\n      swap1\n      tag_102\n      jump\t// in\n    tag_159:\n      swap3\n      pop\n      pop\n      dup2\n      swap1\n      sstore\n      pop\n        /* \"smart_contracts/contracts/token/Token.sol\":2088:2099  uint256 fee */\n      0x00\n        /* \"smart_contracts/contracts/token/Token.sol\":2119:2127  settings */\n      dup1\n        /* \"smart_contracts/contracts/token/Token.sol\":2119:2147  settings.percentTransferBurn */\n      0x00\n      add\n      sload\n        /* \"smart_contracts/contracts/token/Token.sol\":2112:2115  100 */\n      0x64\n        /* \"smart_contracts/contracts/token/Token.sol\":2103:2109  _value */\n      dup5\n        /* \"smart_contracts/contracts/token/Token.sol\":2103:2115  _value / 100 */\n      tag_160\n      swap2\n      swap1\n      tag_161\n      jump\t// in\n    tag_160:\n        /* \"smart_contracts/contracts/token/Token.sol\":2102:2147  (_value / 100) * settings.percentTransferBurn */\n      tag_162\n      swap2\n      swap1\n      tag_163\n      jump\t// in\n    tag_162:\n        /* \"smart_contracts/contracts/token/Token.sol\":2088:2147  uint256 fee = (_value / 100) * settings.percentTransferBurn */\n      swap1\n      pop\n        /* \"smart_contracts/contracts/token/Token.sol\":2182:2185  fee */\n      dup1\n        /* \"smart_contracts/contracts/token/Token.sol\":2173:2179  _value */\n      dup4\n        /* \"smart_contracts/contracts/token/Token.sol\":2173:2185  _value - fee */\n      tag_164\n      swap2\n      swap1\n      tag_102\n      jump\t// in\n    tag_164:\n        /* \"smart_contracts/contracts/token/Token.sol\":2157:2164  balance */\n      0x06\n        /* \"smart_contracts/contracts/token/Token.sol\":2157:2169  balance[_to] */\n      0x00\n        /* \"smart_contracts/contracts/token/Token.sol\":2165:2168  _to */\n      dup7\n        /* \"smart_contracts/contracts/token/Token.sol\":2157:2169  balance[_to] */\n      0xffffffffffffffffffffffffffffffffffffffff\n      and\n      0xffffffffffffffffffffffffffffffffffffffff\n      and\n      dup2\n      mstore\n      0x20\n      add\n      swap1\n      dup2\n      mstore\n      0x20\n      add\n      0x00\n      keccak256\n      0x00\n        /* \"smart_contracts/contracts/token/Token.sol\":2157:2185  balance[_to] += _value - fee */\n      dup3\n      dup3\n      sload\n      tag_165\n      swap2\n      swap1\n      tag_104\n      jump\t// in\n    tag_165:\n      swap3\n      pop\n      pop\n      dup2\n      swap1\n      sstore\n      pop\n        /* \"smart_contracts/contracts/token/Token.sol\":2215:2218  fee */\n      dup1\n        /* \"smart_contracts/contracts/token/Token.sol\":2195:2199  meta */\n      0x01\n        /* \"smart_contracts/contracts/token/Token.sol\":2195:2211  meta.totalSupply */\n      0x03\n      add\n      0x00\n        /* \"smart_contracts/contracts/token/Token.sol\":2195:2218  meta.totalSupply -= fee */\n      dup3\n      dup3\n      sload\n      tag_166\n      swap2\n      swap1\n      tag_102\n      jump\t// in\n    tag_166:\n      swap3\n      pop\n      pop\n      dup2\n      swap1\n      sstore\n      pop\n        /* \"smart_contracts/contracts/token/Token.sol\":2252:2255  _to */\n      dup4\n        /* \"smart_contracts/contracts/token/Token.sol\":2233:2270  Transfer(sender(), _to, _value - fee) */\n      0xffffffffffffffffffffffffffffffffffffffff\n      and\n        /* \"smart_contracts/contracts/token/Token.sol\":2242:2250  sender() */\n      tag_167\n        /* \"smart_contracts/contracts/token/Token.sol\":2242:2248  sender */\n      tag_76\n        /* \"smart_contracts/contracts/token/Token.sol\":2242:2250  sender() */\n      jump\t// in\n    tag_167:\n        /* \"smart_contracts/contracts/token/Token.sol\":2233:2270  Transfer(sender(), _to, _value - fee) */\n      0xffffffffffffffffffffffffffffffffffffffff\n      and\n      0xddf252ad1be2c89b69c2b068fc378daa952ba7f163c4a11628f55a4df523b3ef\n        /* \"smart_contracts/contracts/token/Token.sol\":2266:2269  fee */\n      dup4\n        /* \"smart_contracts/contracts/token/Token.sol\":2257:2263  _value */\n      dup7\n        /* \"smart_contracts/contracts/token/Token.sol\":2257:2269  _value - fee */\n      tag_168\n      swap2\n      swap1\n      tag_102\n      jump\t// in\n    tag_168:\n        /* \"smart_contracts/contracts/token/Token.sol\":2233:2270  Transfer(sender(), _to, _value - fee) */\n      mload(0x40)\n      tag_169\n      swap2\n      swap1\n      tag_29\n      jump\t// in\n    tag_169:\n      mload(0x40)\n      dup1\n      swap2\n      sub\n      swap1\n      log3\n        /* \"smart_contracts/contracts/token/Token.sol\":2287:2291  true */\n      0x01\n        /* \"smart_contracts/contracts/token/Token.sol\":2280:2291  return true */\n      swap2\n      pop\n      pop\n        /* \"smart_contracts/contracts/token/Token.sol\":1800:2298  function transfer(address _to, uint256 _value) public returns (bool sucess) {... */\n      swap3\n      swap2\n      pop\n      pop\n      jump\t// out\n        /* \"smart_contracts/contracts/token/Token.sol\":1554:1629  function maxSupply() public view returns (uint256) {return meta.maxSupply;} */\n    tag_60:\n        /* \"smart_contracts/contracts/token/Token.sol\":1596:1603  uint256 */\n      0x00\n        /* \"smart_contracts/contracts/token/Token.sol\":1613:1617  meta */\n      0x01\n        /* \"smart_contracts/contracts/token/Token.sol\":1613:1627  meta.maxSupply */\n      0x04\n      add\n      sload\n        /* \"smart_contracts/contracts/token/Token.sol\":1606:1627  return meta.maxSupply */\n      swap1\n      pop\n        /* \"smart_contracts/contracts/token/Token.sol\":1554:1629  function maxSupply() public view returns (uint256) {return meta.maxSupply;} */\n      swap1\n      jump\t// out\n        /* \"smart_contracts/contracts/token/Token.sol\":2304:2432  function allowance(address _owner, address _spender) public view returns (uint256 remaining) {return allowed[_owner][_spender];} */\n    tag_65:\n        /* \"smart_contracts/contracts/token/Token.sol\":2378:2395  uint256 remaining */\n      0x00\n        /* \"smart_contracts/contracts/token/Token.sol\":2405:2412  allowed */\n      0x07\n        /* \"smart_contracts/contracts/token/Token.sol\":2405:2420  allowed[_owner] */\n      0x00\n        /* \"smart_contracts/contracts/token/Token.sol\":2413:2419  _owner */\n      dup5\n        /* \"smart_contracts/contracts/token/Token.sol\":2405:2420  allowed[_owner] */\n      0xffffffffffffffffffffffffffffffffffffffff\n      and\n      0xffffffffffffffffffffffffffffffffffffffff\n      and\n      dup2\n      mstore\n      0x20\n      add\n      swap1\n      dup2\n      mstore\n      0x20\n      add\n      0x00\n      keccak256\n        /* \"smart_contracts/contracts/token/Token.sol\":2405:2430  allowed[_owner][_spender] */\n      0x00\n        /* \"smart_contracts/contracts/token/Token.sol\":2421:2429  _spender */\n      dup4\n        /* \"smart_contracts/contracts/token/Token.sol\":2405:2430  allowed[_owner][_spender] */\n      0xffffffffffffffffffffffffffffffffffffffff\n      and\n      0xffffffffffffffffffffffffffffffffffffffff\n      and\n      dup2\n      mstore\n      0x20\n      add\n      swap1\n      dup2\n      mstore\n      0x20\n      add\n      0x00\n      keccak256\n      sload\n        /* \"smart_contracts/contracts/token/Token.sol\":2398:2430  return allowed[_owner][_spender] */\n      swap1\n      pop\n        /* \"smart_contracts/contracts/token/Token.sol\":2304:2432  function allowance(address _owner, address _spender) public view returns (uint256 remaining) {return allowed[_owner][_spender];} */\n      swap3\n      swap2\n      pop\n      pop\n      jump\t// out\n        /* \"smart_contracts/contracts/token/Token.sol\":81:151  function sender() internal view returns (address) {return msg.sender;} */\n    tag_76:\n        /* \"smart_contracts/contracts/token/Token.sol\":122:129  address */\n      0x00\n        /* \"smart_contracts/contracts/token/Token.sol\":139:149  msg.sender */\n      caller\n        /* \"smart_contracts/contracts/token/Token.sol\":132:149  return msg.sender */\n      swap1\n      pop\n        /* \"smart_contracts/contracts/token/Token.sol\":81:151  function sender() internal view returns (address) {return msg.sender;} */\n      swap1\n      jump\t// out\n        /* \"#utility.yul\":7:106   */\n    tag_173:\n        /* \"#utility.yul\":59:65   */\n      0x00\n        /* \"#utility.yul\":93:98   */\n      dup2\n        /* \"#utility.yul\":87:99   */\n      mload\n        /* \"#utility.yul\":77:99   */\n      swap1\n      pop\n        /* \"#utility.yul\":7:106   */\n      swap2\n      swap1\n      pop\n      jump\t// out\n        /* \"#utility.yul\":112:281   */\n    tag_174:\n        /* \"#utility.yul\":196:207   */\n      0x00\n        /* \"#utility.yul\":230:236   */\n      dup3\n        /* \"#utility.yul\":225:228   */\n      dup3\n        /* \"#utility.yul\":218:237   */\n      mstore\n        /* \"#utility.yul\":270:274   */\n      0x20\n        /* \"#utility.yul\":265:268   */\n      dup3\n        /* \"#utility.yul\":261:275   */\n      add\n        /* \"#utility.yul\":246:275   */\n      swap1\n      pop\n        /* \"#utility.yul\":112:281   */\n      swap3\n      swap2\n      pop\n      pop\n      jump\t// out\n        /* \"#utility.yul\":287:533   */\n    tag_175:\n        /* \"#utility.yul\":368:369   */\n      0x00\n        /* \"#utility.yul\":378:491   */\n    tag_206:\n        /* \"#utility.yul\":392:398   */\n      dup4\n        /* \"#utility.yul\":389:390   */\n      dup2\n        /* \"#utility.yul\":386:399   */\n      lt\n        /* \"#utility.yul\":378:491   */\n      iszero\n      tag_208\n      jumpi\n        /* \"#utility.yul\":477:478   */\n      dup1\n        /* \"#utility.yul\":472:475   */\n      dup3\n        /* \"#utility.yul\":468:479   */\n      add\n        /* \"#utility.yul\":462:480   */\n      mload\n        /* \"#utility.yul\":458:459   */\n      dup2\n        /* \"#utility.yul\":453:456   */\n      dup5\n        /* \"#utility.yul\":449:460   */\n      add\n        /* \"#utility.yul\":442:481   */\n      mstore\n        /* \"#utility.yul\":414:416   */\n      0x20\n        /* \"#utility.yul\":411:412   */\n      dup2\n        /* \"#utility.yul\":407:417   */\n      add\n        /* \"#utility.yul\":402:417   */\n      swap1\n      pop\n        /* \"#utility.yul\":378:491   */\n      jump(tag_206)\n    tag_208:\n        /* \"#utility.yul\":525:526   */\n      0x00\n        /* \"#utility.yul\":516:522   */\n      dup5\n        /* \"#utility.yul\":511:514   */\n      dup5\n        /* \"#utility.yul\":507:523   */\n      add\n        /* \"#utility.yul\":500:527   */\n      mstore\n        /* \"#utility.yul\":349:533   */\n      pop\n        /* \"#utility.yul\":287:533   */\n      pop\n      pop\n      pop\n      jump\t// out\n        /* \"#utility.yul\":539:641   */\n    tag_176:\n        /* \"#utility.yul\":580:586   */\n      0x00\n        /* \"#utility.yul\":631:633   */\n      0x1f\n        /* \"#utility.yul\":627:634   */\n      not\n        /* \"#utility.yul\":622:624   */\n      0x1f\n        /* \"#utility.yul\":615:620   */\n      dup4\n        /* \"#utility.yul\":611:625   */\n      add\n        /* \"#utility.yul\":607:635   */\n      and\n        /* \"#utility.yul\":597:635   */\n      swap1\n      pop\n        /* \"#utility.yul\":539:641   */\n      swap2\n      swap1\n      pop\n      jump\t// out\n        /* \"#utility.yul\":647:1024   */\n    tag_177:\n        /* \"#utility.yul\":735:738   */\n      0x00\n        /* \"#utility.yul\":763:802   */\n      tag_211\n        /* \"#utility.yul\":796:801   */\n      dup3\n        /* \"#utility.yul\":763:802   */\n      tag_173\n      jump\t// in\n    tag_211:\n        /* \"#utility.yul\":818:889   */\n      tag_212\n        /* \"#utility.yul\":882:888   */\n      dup2\n        /* \"#utility.yul\":877:880   */\n      dup6\n        /* \"#utility.yul\":818:889   */\n      tag_174\n      jump\t// in\n    tag_212:\n        /* \"#utility.yul\":811:889   */\n      swap4\n      pop\n        /* \"#utility.yul\":898:963   */\n      tag_213\n        /* \"#utility.yul\":956:962   */\n      dup2\n        /* \"#utility.yul\":951:954   */\n      dup6\n        /* \"#utility.yul\":944:948   */\n      0x20\n        /* \"#utility.yul\":937:942   */\n      dup7\n        /* \"#utility.yul\":933:949   */\n      add\n        /* \"#utility.yul\":898:963   */\n      tag_175\n      jump\t// in\n    tag_213:\n        /* \"#utility.yul\":988:1017   */\n      tag_214\n        /* \"#utility.yul\":1010:1016   */\n      dup2\n        /* \"#utility.yul\":988:1017   */\n      tag_176\n      jump\t// in\n    tag_214:\n        /* \"#utility.yul\":983:986   */\n      dup5\n        /* \"#utility.yul\":979:1018   */\n      add\n        /* \"#utility.yul\":972:1018   */\n      swap2\n      pop\n        /* \"#utility.yul\":739:1024   */\n      pop\n        /* \"#utility.yul\":647:1024   */\n      swap3\n      swap2\n      pop\n      pop\n      jump\t// out\n        /* \"#utility.yul\":1030:1343   */\n    tag_19:\n        /* \"#utility.yul\":1143:1147   */\n      0x00\n        /* \"#utility.yul\":1181:1183   */\n      0x20\n        /* \"#utility.yul\":1170:1179   */\n      dup3\n        /* \"#utility.yul\":1166:1184   */\n      add\n        /* \"#utility.yul\":1158:1184   */\n      swap1\n      pop\n        /* \"#utility.yul\":1230:1239   */\n      dup2\n        /* \"#utility.yul\":1224:1228   */\n      dup2\n        /* \"#utility.yul\":1220:1240   */\n      sub\n        /* \"#utility.yul\":1216:1217   */\n      0x00\n        /* \"#utility.yul\":1205:1214   */\n      dup4\n        /* \"#utility.yul\":1201:1218   */\n      add\n        /* \"#utility.yul\":1194:1241   */\n      mstore\n        /* \"#utility.yul\":1258:1336   */\n      tag_216\n        /* \"#utility.yul\":1331:1335   */\n      dup2\n        /* \"#utility.yul\":1322:1328   */\n      dup5\n        /* \"#utility.yul\":1258:1336   */\n      tag_177\n      jump\t// in\n    tag_216:\n        /* \"#utility.yul\":1250:1336   */\n      swap1\n      pop\n        /* \"#utility.yul\":1030:1343   */\n      swap3\n      swap2\n      pop\n      pop\n      jump\t// out\n        /* \"#utility.yul\":1430:1547   */\n    tag_179:\n        /* \"#utility.yul\":1539:1540   */\n      0x00\n        /* \"#utility.yul\":1536:1537   */\n      dup1\n        /* \"#utility.yul\":1529:1541   */\n      revert\n        /* \"#utility.yul\":1676:1802   */\n    tag_181:\n        /* \"#utility.yul\":1713:1720   */\n      0x00\n        /* \"#utility.yul\":1753:1795   */\n      0xffffffffffffffffffffffffffffffffffffffff\n        /* \"#utility.yul\":1746:1751   */\n      dup3\n        /* \"#utility.yul\":1742:1796   */\n      and\n        /* \"#utility.yul\":1731:1796   */\n      swap1\n      pop\n        /* \"#utility.yul\":1676:1802   */\n      swap2\n      swap1\n      pop\n      jump\t// out\n        /* \"#utility.yul\":1808:1904   */\n    tag_182:\n        /* \"#utility.yul\":1845:1852   */\n      0x00\n        /* \"#utility.yul\":1874:1898   */\n      tag_222\n        /* \"#utility.yul\":1892:1897   */\n      dup3\n        /* \"#utility.yul\":1874:1898   */\n      tag_181\n      jump\t// in\n    tag_222:\n        /* \"#utility.yul\":1863:1898   */\n      swap1\n      pop\n        /* \"#utility.yul\":1808:1904   */\n      swap2\n      swap1\n      pop\n      jump\t// out\n        /* \"#utility.yul\":1910:2032   */\n    tag_183:\n        /* \"#utility.yul\":1983:2007   */\n      tag_224\n        /* \"#utility.yul\":2001:2006   */\n      dup2\n        /* \"#utility.yul\":1983:2007   */\n      tag_182\n      jump\t// in\n    tag_224:\n        /* \"#utility.yul\":1976:1981   */\n      dup2\n        /* \"#utility.yul\":1973:2008   */\n      eq\n        /* \"#utility.yul\":1963:2026   */\n      tag_225\n      jumpi\n        /* \"#utility.yul\":2022:2023   */\n      0x00\n        /* \"#utility.yul\":2019:2020   */\n      dup1\n        /* \"#utility.yul\":2012:2024   */\n      revert\n        /* \"#utility.yul\":1963:2026   */\n    tag_225:\n        /* \"#utility.yul\":1910:2032   */\n      pop\n      jump\t// out\n        /* \"#utility.yul\":2038:2177   */\n    tag_184:\n        /* \"#utility.yul\":2084:2089   */\n      0x00\n        /* \"#utility.yul\":2122:2128   */\n      dup2\n        /* \"#utility.yul\":2109:2129   */\n      calldataload\n        /* \"#utility.yul\":2100:2129   */\n      swap1\n      pop\n        /* \"#utility.yul\":2138:2171   */\n      tag_227\n        /* \"#utility.yul\":2165:2170   */\n      dup2\n        /* \"#utility.yul\":2138:2171   */\n      tag_183\n      jump\t// in\n    tag_227:\n        /* \"#utility.yul\":2038:2177   */\n      swap3\n      swap2\n      pop\n      pop\n      jump\t// out\n        /* \"#utility.yul\":2183:2260   */\n    tag_185:\n        /* \"#utility.yul\":2220:2227   */\n      0x00\n        /* \"#utility.yul\":2249:2254   */\n      dup2\n        /* \"#utility.yul\":2238:2254   */\n      swap1\n      pop\n        /* \"#utility.yul\":2183:2260   */\n      swap2\n      swap1\n      pop\n      jump\t// out\n        /* \"#utility.yul\":2266:2388   */\n    tag_186:\n        /* \"#utility.yul\":2339:2363   */\n      tag_230\n        /* \"#utility.yul\":2357:2362   */\n      dup2\n        /* \"#utility.yul\":2339:2363   */\n      tag_185\n      jump\t// in\n    tag_230:\n        /* \"#utility.yul\":2332:2337   */\n      dup2\n        /* \"#utility.yul\":2329:2364   */\n      eq\n        /* \"#utility.yul\":2319:2382   */\n      tag_231\n      jumpi\n        /* \"#utility.yul\":2378:2379   */\n      0x00\n        /* \"#utility.yul\":2375:2376   */\n      dup1\n        /* \"#utility.yul\":2368:2380   */\n      revert\n        /* \"#utility.yul\":2319:2382   */\n    tag_231:\n        /* \"#utility.yul\":2266:2388   */\n      pop\n      jump\t// out\n        /* \"#utility.yul\":2394:2533   */\n    tag_187:\n        /* \"#utility.yul\":2440:2445   */\n      0x00\n        /* \"#utility.yul\":2478:2484   */\n      dup2\n        /* \"#utility.yul\":2465:2485   */\n      calldataload\n        /* \"#utility.yul\":2456:2485   */\n      swap1\n      pop\n        /* \"#utility.yul\":2494:2527   */\n      tag_233\n        /* \"#utility.yul\":2521:2526   */\n      dup2\n        /* \"#utility.yul\":2494:2527   */\n      tag_186\n      jump\t// in\n    tag_233:\n        /* \"#utility.yul\":2394:2533   */\n      swap3\n      swap2\n      pop\n      pop\n      jump\t// out\n        /* \"#utility.yul\":2539:3013   */\n    tag_22:\n        /* \"#utility.yul\":2607:2613   */\n      0x00\n        /* \"#utility.yul\":2615:2621   */\n      dup1\n        /* \"#utility.yul\":2664:2666   */\n      0x40\n        /* \"#utility.yul\":2652:2661   */\n      dup4\n        /* \"#utility.yul\":2643:2650   */\n      dup6\n        /* \"#utility.yul\":2639:2662   */\n      sub\n        /* \"#utility.yul\":2635:2667   */\n      slt\n        /* \"#utility.yul\":2632:2751   */\n      iszero\n      tag_235\n      jumpi\n        /* \"#utility.yul\":2670:2749   */\n      tag_236\n      tag_179\n      jump\t// in\n    tag_236:\n        /* \"#utility.yul\":2632:2751   */\n    tag_235:\n        /* \"#utility.yul\":2790:2791   */\n      0x00\n        /* \"#utility.yul\":2815:2868   */\n      tag_237\n        /* \"#utility.yul\":2860:2867   */\n      dup6\n        /* \"#utility.yul\":2851:2857   */\n      dup3\n        /* \"#utility.yul\":2840:2849   */\n      dup7\n        /* \"#utility.yul\":2836:2858   */\n      add\n        /* \"#utility.yul\":2815:2868   */\n      tag_184\n      jump\t// in\n    tag_237:\n        /* \"#utility.yul\":2805:2868   */\n      swap3\n      pop\n        /* \"#utility.yul\":2761:2878   */\n      pop\n        /* \"#utility.yul\":2917:2919   */\n      0x20\n        /* \"#utility.yul\":2943:2996   */\n      tag_238\n        /* \"#utility.yul\":2988:2995   */\n      dup6\n        /* \"#utility.yul\":2979:2985   */\n      dup3\n        /* \"#utility.yul\":2968:2977   */\n      dup7\n        /* \"#utility.yul\":2964:2986   */\n      add\n        /* \"#utility.yul\":2943:2996   */\n      tag_187\n      jump\t// in\n    tag_238:\n        /* \"#utility.yul\":2933:2996   */\n      swap2\n      pop\n        /* \"#utility.yul\":2888:3006   */\n      pop\n        /* \"#utility.yul\":2539:3013   */\n      swap3\n      pop\n      swap3\n      swap1\n      pop\n      jump\t// out\n        /* \"#utility.yul\":3019:3109   */\n    tag_188:\n        /* \"#utility.yul\":3053:3060   */\n      0x00\n        /* \"#utility.yul\":3096:3101   */\n      dup2\n        /* \"#utility.yul\":3089:3102   */\n      iszero\n        /* \"#utility.yul\":3082:3103   */\n      iszero\n        /* \"#utility.yul\":3071:3103   */\n      swap1\n      pop\n        /* \"#utility.yul\":3019:3109   */\n      swap2\n      swap1\n      pop\n      jump\t// out\n        /* \"#utility.yul\":3115:3224   */\n    tag_189:\n        /* \"#utility.yul\":3196:3217   */\n      tag_241\n        /* \"#utility.yul\":3211:3216   */\n      dup2\n        /* \"#utility.yul\":3196:3217   */\n      tag_188\n      jump\t// in\n    tag_241:\n        /* \"#utility.yul\":3191:3194   */\n      dup3\n        /* \"#utility.yul\":3184:3218   */\n      mstore\n        /* \"#utility.yul\":3115:3224   */\n      pop\n      pop\n      jump\t// out\n        /* \"#utility.yul\":3230:3440   */\n    tag_25:\n        /* \"#utility.yul\":3317:3321   */\n      0x00\n        /* \"#utility.yul\":3355:3357   */\n      0x20\n        /* \"#utility.yul\":3344:3353   */\n      dup3\n        /* \"#utility.yul\":3340:3358   */\n      add\n        /* \"#utility.yul\":3332:3358   */\n      swap1\n      pop\n        /* \"#utility.yul\":3368:3433   */\n      tag_243\n        /* \"#utility.yul\":3430:3431   */\n      0x00\n        /* \"#utility.yul\":3419:3428   */\n      dup4\n        /* \"#utility.yul\":3415:3432   */\n      add\n        /* \"#utility.yul\":3406:3412   */\n      dup5\n        /* \"#utility.yul\":3368:3433   */\n      tag_189\n      jump\t// in\n    tag_243:\n        /* \"#utility.yul\":3230:3440   */\n      swap3\n      swap2\n      pop\n      pop\n      jump\t// out\n        /* \"#utility.yul\":3446:3564   */\n    tag_190:\n        /* \"#utility.yul\":3533:3557   */\n      tag_245\n        /* \"#utility.yul\":3551:3556   */\n      dup2\n        /* \"#utility.yul\":3533:3557   */\n      tag_185\n      jump\t// in\n    tag_245:\n        /* \"#utility.yul\":3528:3531   */\n      dup3\n        /* \"#utility.yul\":3521:3558   */\n      mstore\n        /* \"#utility.yul\":3446:3564   */\n      pop\n      pop\n      jump\t// out\n        /* \"#utility.yul\":3570:3792   */\n    tag_29:\n        /* \"#utility.yul\":3663:3667   */\n      0x00\n        /* \"#utility.yul\":3701:3703   */\n      0x20\n        /* \"#utility.yul\":3690:3699   */\n      dup3\n        /* \"#utility.yul\":3686:3704   */\n      add\n        /* \"#utility.yul\":3678:3704   */\n      swap1\n      pop\n        /* \"#utility.yul\":3714:3785   */\n      tag_247\n        /* \"#utility.yul\":3782:3783   */\n      0x00\n        /* \"#utility.yul\":3771:3780   */\n      dup4\n        /* \"#utility.yul\":3767:3784   */\n      add\n        /* \"#utility.yul\":3758:3764   */\n      dup5\n        /* \"#utility.yul\":3714:3785   */\n      tag_190\n      jump\t// in\n    tag_247:\n        /* \"#utility.yul\":3570:3792   */\n      swap3\n      swap2\n      pop\n      pop\n      jump\t// out\n        /* \"#utility.yul\":3798:4417   */\n    tag_32:\n        /* \"#utility.yul\":3875:3881   */\n      0x00\n        /* \"#utility.yul\":3883:3889   */\n      dup1\n        /* \"#utility.yul\":3891:3897   */\n      0x00\n        /* \"#utility.yul\":3940:3942   */\n      0x60\n        /* \"#utility.yul\":3928:3937   */\n      dup5\n        /* \"#utility.yul\":3919:3926   */\n      dup7\n        /* \"#utility.yul\":3915:3938   */\n      sub\n        /* \"#utility.yul\":3911:3943   */\n      slt\n        /* \"#utility.yul\":3908:4027   */\n      iszero\n      tag_249\n      jumpi\n        /* \"#utility.yul\":3946:4025   */\n      tag_250\n      tag_179\n      jump\t// in\n    tag_250:\n        /* \"#utility.yul\":3908:4027   */\n    tag_249:\n        /* \"#utility.yul\":4066:4067   */\n      0x00\n        /* \"#utility.yul\":4091:4144   */\n      tag_251\n        /* \"#utility.yul\":4136:4143   */\n      dup7\n        /* \"#utility.yul\":4127:4133   */\n      dup3\n        /* \"#utility.yul\":4116:4125   */\n      dup8\n        /* \"#utility.yul\":4112:4134   */\n      add\n        /* \"#utility.yul\":4091:4144   */\n      tag_184\n      jump\t// in\n    tag_251:\n        /* \"#utility.yul\":4081:4144   */\n      swap4\n      pop\n        /* \"#utility.yul\":4037:4154   */\n      pop\n        /* \"#utility.yul\":4193:4195   */\n      0x20\n        /* \"#utility.yul\":4219:4272   */\n      tag_252\n        /* \"#utility.yul\":4264:4271   */\n      dup7\n        /* \"#utility.yul\":4255:4261   */\n      dup3\n        /* \"#utility.yul\":4244:4253   */\n      dup8\n        /* \"#utility.yul\":4240:4262   */\n      add\n        /* \"#utility.yul\":4219:4272   */\n      tag_184\n      jump\t// in\n    tag_252:\n        /* \"#utility.yul\":4209:4272   */\n      swap3\n      pop\n        /* \"#utility.yul\":4164:4282   */\n      pop\n        /* \"#utility.yul\":4321:4323   */\n      0x40\n        /* \"#utility.yul\":4347:4400   */\n      tag_253\n        /* \"#utility.yul\":4392:4399   */\n      dup7\n        /* \"#utility.yul\":4383:4389   */\n      dup3\n        /* \"#utility.yul\":4372:4381   */\n      dup8\n        /* \"#utility.yul\":4368:4390   */\n      add\n        /* \"#utility.yul\":4347:4400   */\n      tag_187\n      jump\t// in\n    tag_253:\n        /* \"#utility.yul\":4337:4400   */\n      swap2\n      pop\n        /* \"#utility.yul\":4292:4410   */\n      pop\n        /* \"#utility.yul\":3798:4417   */\n      swap3\n      pop\n      swap3\n      pop\n      swap3\n      jump\t// out\n        /* \"#utility.yul\":4423:4509   */\n    tag_191:\n        /* \"#utility.yul\":4458:4465   */\n      0x00\n        /* \"#utility.yul\":4498:4502   */\n      0xff\n        /* \"#utility.yul\":4491:4496   */\n      dup3\n        /* \"#utility.yul\":4487:4503   */\n      and\n        /* \"#utility.yul\":4476:4503   */\n      swap1\n      pop\n        /* \"#utility.yul\":4423:4509   */\n      swap2\n      swap1\n      pop\n      jump\t// out\n        /* \"#utility.yul\":4515:4627   */\n    tag_192:\n        /* \"#utility.yul\":4598:4620   */\n      tag_256\n        /* \"#utility.yul\":4614:4619   */\n      dup2\n        /* \"#utility.yul\":4598:4620   */\n      tag_191\n      jump\t// in\n    tag_256:\n        /* \"#utility.yul\":4593:4596   */\n      dup3\n        /* \"#utility.yul\":4586:4621   */\n      mstore\n        /* \"#utility.yul\":4515:4627   */\n      pop\n      pop\n      jump\t// out\n        /* \"#utility.yul\":4633:4847   */\n    tag_38:\n        /* \"#utility.yul\":4722:4726   */\n      0x00\n        /* \"#utility.yul\":4760:4762   */\n      0x20\n        /* \"#utility.yul\":4749:4758   */\n      dup3\n        /* \"#utility.yul\":4745:4763   */\n      add\n        /* \"#utility.yul\":4737:4763   */\n      swap1\n      pop\n        /* \"#utility.yul\":4773:4840   */\n      tag_258\n        /* \"#utility.yul\":4837:4838   */\n      0x00\n        /* \"#utility.yul\":4826:4835   */\n      dup4\n        /* \"#utility.yul\":4822:4839   */\n      add\n        /* \"#utility.yul\":4813:4819   */\n      dup5\n        /* \"#utility.yul\":4773:4840   */\n      tag_192\n      jump\t// in\n    tag_258:\n        /* \"#utility.yul\":4633:4847   */\n      swap3\n      swap2\n      pop\n      pop\n      jump\t// out\n        /* \"#utility.yul\":4853:5182   */\n    tag_45:\n        /* \"#utility.yul\":4912:4918   */\n      0x00\n        /* \"#utility.yul\":4961:4963   */\n      0x20\n        /* \"#utility.yul\":4949:4958   */\n      dup3\n        /* \"#utility.yul\":4940:4947   */\n      dup5\n        /* \"#utility.yul\":4936:4959   */\n      sub\n        /* \"#utility.yul\":4932:4964   */\n      slt\n        /* \"#utility.yul\":4929:5048   */\n      iszero\n      tag_260\n      jumpi\n        /* \"#utility.yul\":4967:5046   */\n      tag_261\n      tag_179\n      jump\t// in\n    tag_261:\n        /* \"#utility.yul\":4929:5048   */\n    tag_260:\n        /* \"#utility.yul\":5087:5088   */\n      0x00\n        /* \"#utility.yul\":5112:5165   */\n      tag_262\n        /* \"#utility.yul\":5157:5164   */\n      dup5\n        /* \"#utility.yul\":5148:5154   */\n      dup3\n        /* \"#utility.yul\":5137:5146   */\n      dup6\n        /* \"#utility.yul\":5133:5155   */\n      add\n        /* \"#utility.yul\":5112:5165   */\n      tag_184\n      jump\t// in\n    tag_262:\n        /* \"#utility.yul\":5102:5165   */\n      swap2\n      pop\n        /* \"#utility.yul\":5058:5175   */\n      pop\n        /* \"#utility.yul\":4853:5182   */\n      swap3\n      swap2\n      pop\n      pop\n      jump\t// out\n        /* \"#utility.yul\":5188:5662   */\n    tag_64:\n        /* \"#utility.yul\":5256:5262   */\n      0x00\n        /* \"#utility.yul\":5264:5270   */\n      dup1\n        /* \"#utility.yul\":5313:5315   */\n      0x40\n        /* \"#utility.yul\":5301:5310   */\n      dup4\n        /* \"#utility.yul\":5292:5299   */\n      dup6\n        /* \"#utility.yul\":5288:5311   */\n      sub\n        /* \"#utility.yul\":5284:5316   */\n      slt\n        /* \"#utility.yul\":5281:5400   */\n      iszero\n      tag_264\n      jumpi\n        /* \"#utility.yul\":5319:5398   */\n      tag_265\n      tag_179\n      jump\t// in\n    tag_265:\n        /* \"#utility.yul\":5281:5400   */\n    tag_264:\n        /* \"#utility.yul\":5439:5440   */\n      0x00\n        /* \"#utility.yul\":5464:5517   */\n      tag_266\n        /* \"#utility.yul\":5509:5516   */\n      dup6\n        /* \"#utility.yul\":5500:5506   */\n      dup3\n        /* \"#utility.yul\":5489:5498   */\n      dup7\n        /* \"#utility.yul\":5485:5507   */\n      add\n        /* \"#utility.yul\":5464:5517   */\n      tag_184\n      jump\t// in\n    tag_266:\n        /* \"#utility.yul\":5454:5517   */\n      swap3\n      pop\n        /* \"#utility.yul\":5410:5527   */\n      pop\n        /* \"#utility.yul\":5566:5568   */\n      0x20\n        /* \"#utility.yul\":5592:5645   */\n      tag_267\n        /* \"#utility.yul\":5637:5644   */\n      dup6\n        /* \"#utility.yul\":5628:5634   */\n      dup3\n        /* \"#utility.yul\":5617:5626   */\n      dup7\n        /* \"#utility.yul\":5613:5635   */\n      add\n        /* \"#utility.yul\":5592:5645   */\n      tag_184\n      jump\t// in\n    tag_267:\n        /* \"#utility.yul\":5582:5645   */\n      swap2\n      pop\n        /* \"#utility.yul\":5537:5655   */\n      pop\n        /* \"#utility.yul\":5188:5662   */\n      swap3\n      pop\n      swap3\n      swap1\n      pop\n      jump\t// out\n        /* \"#utility.yul\":5668:5848   */\n    tag_193:\n        /* \"#utility.yul\":5716:5793   */\n      0x4e487b7100000000000000000000000000000000000000000000000000000000\n        /* \"#utility.yul\":5713:5714   */\n      0x00\n        /* \"#utility.yul\":5706:5794   */\n      mstore\n        /* \"#utility.yul\":5813:5817   */\n      0x22\n        /* \"#utility.yul\":5810:5811   */\n      0x04\n        /* \"#utility.yul\":5803:5818   */\n      mstore\n        /* \"#utility.yul\":5837:5841   */\n      0x24\n        /* \"#utility.yul\":5834:5835   */\n      0x00\n        /* \"#utility.yul\":5827:5842   */\n      revert\n        /* \"#utility.yul\":5854:6174   */\n    tag_69:\n        /* \"#utility.yul\":5898:5904   */\n      0x00\n        /* \"#utility.yul\":5935:5936   */\n      0x02\n        /* \"#utility.yul\":5929:5933   */\n      dup3\n        /* \"#utility.yul\":5925:5937   */\n      div\n        /* \"#utility.yul\":5915:5937   */\n      swap1\n      pop\n        /* \"#utility.yul\":5982:5983   */\n      0x01\n        /* \"#utility.yul\":5976:5980   */\n      dup3\n        /* \"#utility.yul\":5972:5984   */\n      and\n        /* \"#utility.yul\":6003:6021   */\n      dup1\n        /* \"#utility.yul\":5993:6074   */\n      tag_270\n      jumpi\n        /* \"#utility.yul\":6059:6063   */\n      0x7f\n        /* \"#utility.yul\":6051:6057   */\n      dup3\n        /* \"#utility.yul\":6047:6064   */\n      and\n        /* \"#utility.yul\":6037:6064   */\n      swap2\n      pop\n        /* \"#utility.yul\":5993:6074   */\n    tag_270:\n        /* \"#utility.yul\":6121:6123   */\n      0x20\n        /* \"#utility.yul\":6113:6119   */\n      dup3\n        /* \"#utility.yul\":6110:6124   */\n      lt\n        /* \"#utility.yul\":6090:6108   */\n      dup2\n        /* \"#utility.yul\":6087:6125   */\n      sub\n        /* \"#utility.yul\":6084:6168   */\n      tag_271\n      jumpi\n        /* \"#utility.yul\":6140:6158   */\n      tag_272\n      tag_193\n      jump\t// in\n    tag_272:\n        /* \"#utility.yul\":6084:6168   */\n    tag_271:\n        /* \"#utility.yul\":5905:6174   */\n      pop\n        /* \"#utility.yul\":5854:6174   */\n      swap2\n      swap1\n      pop\n      jump\t// out\n        /* \"#utility.yul\":6180:6342   */\n    tag_194:\n        /* \"#utility.yul\":6320:6334   */\n      0x7a65726f20616464726573730000000000000000000000000000000000000000\n        /* \"#utility.yul\":6316:6317   */\n      0x00\n        /* \"#utility.yul\":6308:6314   */\n      dup3\n        /* \"#utility.yul\":6304:6318   */\n      add\n        /* \"#utility.yul\":6297:6335   */\n      mstore\n        /* \"#utility.yul\":6180:6342   */\n      pop\n      jump\t// out\n        /* \"#utility.yul\":6348:6714   */\n    tag_195:\n        /* \"#utility.yul\":6490:6493   */\n      0x00\n        /* \"#utility.yul\":6511:6578   */\n      tag_275\n        /* \"#utility.yul\":6575:6577   */\n      0x0c\n        /* \"#utility.yul\":6570:6573   */\n      dup4\n        /* \"#utility.yul\":6511:6578   */\n      tag_174\n      jump\t// in\n    tag_275:\n        /* \"#utility.yul\":6504:6578   */\n      swap2\n      pop\n        /* \"#utility.yul\":6587:6680   */\n      tag_276\n        /* \"#utility.yul\":6676:6679   */\n      dup3\n        /* \"#utility.yul\":6587:6680   */\n      tag_194\n      jump\t// in\n    tag_276:\n        /* \"#utility.yul\":6705:6707   */\n      0x20\n        /* \"#utility.yul\":6700:6703   */\n      dup3\n        /* \"#utility.yul\":6696:6708   */\n      add\n        /* \"#utility.yul\":6689:6708   */\n      swap1\n      pop\n        /* \"#utility.yul\":6348:6714   */\n      swap2\n      swap1\n      pop\n      jump\t// out\n        /* \"#utility.yul\":6720:7139   */\n    tag_80:\n        /* \"#utility.yul\":6886:6890   */\n      0x00\n        /* \"#utility.yul\":6924:6926   */\n      0x20\n        /* \"#utility.yul\":6913:6922   */\n      dup3\n        /* \"#utility.yul\":6909:6927   */\n      add\n        /* \"#utility.yul\":6901:6927   */\n      swap1\n      pop\n        /* \"#utility.yul\":6973:6982   */\n      dup2\n        /* \"#utility.yul\":6967:6971   */\n      dup2\n        /* \"#utility.yul\":6963:6983   */\n      sub\n        /* \"#utility.yul\":6959:6960   */\n      0x00\n        /* \"#utility.yul\":6948:6957   */\n      dup4\n        /* \"#utility.yul\":6944:6961   */\n      add\n        /* \"#utility.yul\":6937:6984   */\n      mstore\n        /* \"#utility.yul\":7001:7132   */\n      tag_278\n        /* \"#utility.yul\":7127:7131   */\n      dup2\n        /* \"#utility.yul\":7001:7132   */\n      tag_195\n      jump\t// in\n    tag_278:\n        /* \"#utility.yul\":6993:7132   */\n      swap1\n      pop\n        /* \"#utility.yul\":6720:7139   */\n      swap2\n      swap1\n      pop\n      jump\t// out\n        /* \"#utility.yul\":7145:7325   */\n    tag_196:\n        /* \"#utility.yul\":7193:7270   */\n      0x4e487b7100000000000000000000000000000000000000000000000000000000\n        /* \"#utility.yul\":7190:7191   */\n      0x00\n        /* \"#utility.yul\":7183:7271   */\n      mstore\n        /* \"#utility.yul\":7290:7294   */\n      0x11\n        /* \"#utility.yul\":7287:7288   */\n      0x04\n        /* \"#utility.yul\":7280:7295   */\n      mstore\n        /* \"#utility.yul\":7314:7318   */\n      0x24\n        /* \"#utility.yul\":7311:7312   */\n      0x00\n        /* \"#utility.yul\":7304:7319   */\n      revert\n        /* \"#utility.yul\":7331:7525   */\n    tag_102:\n        /* \"#utility.yul\":7371:7375   */\n      0x00\n        /* \"#utility.yul\":7391:7411   */\n      tag_281\n        /* \"#utility.yul\":7409:7410   */\n      dup3\n        /* \"#utility.yul\":7391:7411   */\n      tag_185\n      jump\t// in\n    tag_281:\n        /* \"#utility.yul\":7386:7411   */\n      swap2\n      pop\n        /* \"#utility.yul\":7425:7445   */\n      tag_282\n        /* \"#utility.yul\":7443:7444   */\n      dup4\n        /* \"#utility.yul\":7425:7445   */\n      tag_185\n      jump\t// in\n    tag_282:\n        /* \"#utility.yul\":7420:7445   */\n      swap3\n      pop\n        /* \"#utility.yul\":7469:7470   */\n      dup3\n        /* \"#utility.yul\":7466:7467   */\n      dup3\n        /* \"#utility.yul\":7462:7471   */\n      sub\n        /* \"#utility.yul\":7454:7471   */\n      swap1\n      pop\n        /* \"#utility.yul\":7493:7494   */\n      dup2\n        /* \"#utility.yul\":7487:7491   */\n      dup2\n        /* \"#utility.yul\":7484:7495   */\n      gt\n        /* \"#utility.yul\":7481:7518   */\n      iszero\n      tag_283\n      jumpi\n        /* \"#utility.yul\":7498:7516   */\n      tag_284\n      tag_196\n      jump\t// in\n    tag_284:\n        /* \"#utility.yul\":7481:7518   */\n    tag_283:\n        /* \"#utility.yul\":7331:7525   */\n      swap3\n      swap2\n      pop\n      pop\n      jump\t// out\n        /* \"#utility.yul\":7531:7722   */\n    tag_104:\n        /* \"#utility.yul\":7571:7574   */\n      0x00\n        /* \"#utility.yul\":7590:7610   */\n      tag_286\n        /* \"#utility.yul\":7608:7609   */\n      dup3\n        /* \"#utility.yul\":7590:7610   */\n      tag_185\n      jump\t// in\n    tag_286:\n        /* \"#utility.yul\":7585:7610   */\n      swap2\n      pop\n        /* \"#utility.yul\":7624:7644   */\n      tag_287\n        /* \"#utility.yul\":7642:7643   */\n      dup4\n        /* \"#utility.yul\":7624:7644   */\n      tag_185\n      jump\t// in\n    tag_287:\n        /* \"#utility.yul\":7619:7644   */\n      swap3\n      pop\n        /* \"#utility.yul\":7667:7668   */\n      dup3\n        /* \"#utility.yul\":7664:7665   */\n      dup3\n        /* \"#utility.yul\":7660:7669   */\n      add\n        /* \"#utility.yul\":7653:7669   */\n      swap1\n      pop\n        /* \"#utility.yul\":7688:7691   */\n      dup1\n        /* \"#utility.yul\":7685:7686   */\n      dup3\n        /* \"#utility.yul\":7682:7692   */\n      gt\n        /* \"#utility.yul\":7679:7715   */\n      iszero\n      tag_288\n      jumpi\n        /* \"#utility.yul\":7695:7713   */\n      tag_289\n      tag_196\n      jump\t// in\n    tag_289:\n        /* \"#utility.yul\":7679:7715   */\n    tag_288:\n        /* \"#utility.yul\":7531:7722   */\n      swap3\n      swap2\n      pop\n      pop\n      jump\t// out\n        /* \"#utility.yul\":7728:7961   */\n    tag_197:\n        /* \"#utility.yul\":7868:7902   */\n      0x7a65726f2061646472657373207c7c2064656372656173656420616c6c6f7761\n        /* \"#utility.yul\":7864:7865   */\n      0x00\n        /* \"#utility.yul\":7856:7862   */\n      dup3\n        /* \"#utility.yul\":7852:7866   */\n      add\n        /* \"#utility.yul\":7845:7903   */\n      mstore\n        /* \"#utility.yul\":7937:7953   */\n      0x6e63652062656c6f77207a65726f000000000000000000000000000000000000\n        /* \"#utility.yul\":7932:7934   */\n      0x20\n        /* \"#utility.yul\":7924:7930   */\n      dup3\n        /* \"#utility.yul\":7920:7935   */\n      add\n        /* \"#utility.yul\":7913:7954   */\n      mstore\n        /* \"#utility.yul\":7728:7961   */\n      pop\n      jump\t// out\n        /* \"#utility.yul\":7967:8333   */\n    tag_198:\n        /* \"#utility.yul\":8109:8112   */\n      0x00\n        /* \"#utility.yul\":8130:8197   */\n      tag_292\n        /* \"#utility.yul\":8194:8196   */\n      0x2e\n        /* \"#utility.yul\":8189:8192   */\n      dup4\n        /* \"#utility.yul\":8130:8197   */\n      tag_174\n      jump\t// in\n    tag_292:\n        /* \"#utility.yul\":8123:8197   */\n      swap2\n      pop\n        /* \"#utility.yul\":8206:8299   */\n      tag_293\n        /* \"#utility.yul\":8295:8298   */\n      dup3\n        /* \"#utility.yul\":8206:8299   */\n      tag_197\n      jump\t// in\n    tag_293:\n        /* \"#utility.yul\":8324:8326   */\n      0x40\n        /* \"#utility.yul\":8319:8322   */\n      dup3\n        /* \"#utility.yul\":8315:8327   */\n      add\n        /* \"#utility.yul\":8308:8327   */\n      swap1\n      pop\n        /* \"#utility.yul\":7967:8333   */\n      swap2\n      swap1\n      pop\n      jump\t// out\n        /* \"#utility.yul\":8339:8758   */\n    tag_138:\n        /* \"#utility.yul\":8505:8509   */\n      0x00\n        /* \"#utility.yul\":8543:8545   */\n      0x20\n        /* \"#utility.yul\":8532:8541   */\n      dup3\n        /* \"#utility.yul\":8528:8546   */\n      add\n        /* \"#utility.yul\":8520:8546   */\n      swap1\n      pop\n        /* \"#utility.yul\":8592:8601   */\n      dup2\n        /* \"#utility.yul\":8586:8590   */\n      dup2\n        /* \"#utility.yul\":8582:8602   */\n      sub\n        /* \"#utility.yul\":8578:8579   */\n      0x00\n        /* \"#utility.yul\":8567:8576   */\n      dup4\n        /* \"#utility.yul\":8563:8580   */\n      add\n        /* \"#utility.yul\":8556:8603   */\n      mstore\n        /* \"#utility.yul\":8620:8751   */\n      tag_295\n        /* \"#utility.yul\":8746:8750   */\n      dup2\n        /* \"#utility.yul\":8620:8751   */\n      tag_198\n      jump\t// in\n    tag_295:\n        /* \"#utility.yul\":8612:8751   */\n      swap1\n      pop\n        /* \"#utility.yul\":8339:8758   */\n      swap2\n      swap1\n      pop\n      jump\t// out\n        /* \"#utility.yul\":8764:8987   */\n    tag_199:\n        /* \"#utility.yul\":8904:8938   */\n      0x7a65726f2061646472657373207c7c20696e73756666696369656e742062616c\n        /* \"#utility.yul\":8900:8901   */\n      0x00\n        /* \"#utility.yul\":8892:8898   */\n      dup3\n        /* \"#utility.yul\":8888:8902   */\n      add\n        /* \"#utility.yul\":8881:8939   */\n      mstore\n        /* \"#utility.yul\":8973:8979   */\n      0x616e636500000000000000000000000000000000000000000000000000000000\n        /* \"#utility.yul\":8968:8970   */\n      0x20\n        /* \"#utility.yul\":8960:8966   */\n      dup3\n        /* \"#utility.yul\":8956:8971   */\n      add\n        /* \"#utility.yul\":8949:8980   */\n      mstore\n        /* \"#utility.yul\":8764:8987   */\n      pop\n      jump\t// out\n        /* \"#utility.yul\":8993:9359   */\n    tag_200:\n        /* \"#utility.yul\":9135:9138   */\n      0x00\n        /* \"#utility.yul\":9156:9223   */\n      tag_298\n        /* \"#utility.yul\":9220:9222   */\n      0x24\n        /* \"#utility.yul\":9215:9218   */\n      dup4\n        /* \"#utility.yul\":9156:9223   */\n      tag_174\n      jump\t// in\n    tag_298:\n        /* \"#utility.yul\":9149:9223   */\n      swap2\n      pop\n        /* \"#utility.yul\":9232:9325   */\n      tag_299\n        /* \"#utility.yul\":9321:9324   */\n      dup3\n        /* \"#utility.yul\":9232:9325   */\n      tag_199\n      jump\t// in\n    tag_299:\n        /* \"#utility.yul\":9350:9352   */\n      0x40\n        /* \"#utility.yul\":9345:9348   */\n      dup3\n        /* \"#utility.yul\":9341:9353   */\n      add\n        /* \"#utility.yul\":9334:9353   */\n      swap1\n      pop\n        /* \"#utility.yul\":8993:9359   */\n      swap2\n      swap1\n      pop\n      jump\t// out\n        /* \"#utility.yul\":9365:9784   */\n    tag_157:\n        /* \"#utility.yul\":9531:9535   */\n      0x00\n        /* \"#utility.yul\":9569:9571   */\n      0x20\n        /* \"#utility.yul\":9558:9567   */\n      dup3\n        /* \"#utility.yul\":9554:9572   */\n      add\n        /* \"#utility.yul\":9546:9572   */\n      swap1\n      pop\n        /* \"#utility.yul\":9618:9627   */\n      dup2\n        /* \"#utility.yul\":9612:9616   */\n      dup2\n        /* \"#utility.yul\":9608:9628   */\n      sub\n        /* \"#utility.yul\":9604:9605   */\n      0x00\n        /* \"#utility.yul\":9593:9602   */\n      dup4\n        /* \"#utility.yul\":9589:9606   */\n      add\n        /* \"#utility.yul\":9582:9629   */\n      mstore\n        /* \"#utility.yul\":9646:9777   */\n      tag_301\n        /* \"#utility.yul\":9772:9776   */\n      dup2\n        /* \"#utility.yul\":9646:9777   */\n      tag_200\n      jump\t// in\n    tag_301:\n        /* \"#utility.yul\":9638:9777   */\n      swap1\n      pop\n        /* \"#utility.yul\":9365:9784   */\n      swap2\n      swap1\n      pop\n      jump\t// out\n        /* \"#utility.yul\":9790:9970   */\n    tag_201:\n        /* \"#utility.yul\":9838:9915   */\n      0x4e487b7100000000000000000000000000000000000000000000000000000000\n        /* \"#utility.yul\":9835:9836   */\n      0x00\n        /* \"#utility.yul\":9828:9916   */\n      mstore\n        /* \"#utility.yul\":9935:9939   */\n      0x12\n        /* \"#utility.yul\":9932:9933   */\n      0x04\n        /* \"#utility.yul\":9925:9940   */\n      mstore\n        /* \"#utility.yul\":9959:9963   */\n      0x24\n        /* \"#utility.yul\":9956:9957   */\n      0x00\n        /* \"#utility.yul\":9949:9964   */\n      revert\n        /* \"#utility.yul\":9976:10161   */\n    tag_161:\n        /* \"#utility.yul\":10016:10017   */\n      0x00\n        /* \"#utility.yul\":10033:10053   */\n      tag_304\n        /* \"#utility.yul\":10051:10052   */\n      dup3\n        /* \"#utility.yul\":10033:10053   */\n      tag_185\n      jump\t// in\n    tag_304:\n        /* \"#utility.yul\":10028:10053   */\n      swap2\n      pop\n        /* \"#utility.yul\":10067:10087   */\n      tag_305\n        /* \"#utility.yul\":10085:10086   */\n      dup4\n        /* \"#utility.yul\":10067:10087   */\n      tag_185\n      jump\t// in\n    tag_305:\n        /* \"#utility.yul\":10062:10087   */\n      swap3\n      pop\n        /* \"#utility.yul\":10106:10107   */\n      dup3\n        /* \"#utility.yul\":10096:10131   */\n      tag_306\n      jumpi\n        /* \"#utility.yul\":10111:10129   */\n      tag_307\n      tag_201\n      jump\t// in\n    tag_307:\n        /* \"#utility.yul\":10096:10131   */\n    tag_306:\n        /* \"#utility.yul\":10153:10154   */\n      dup3\n        /* \"#utility.yul\":10150:10151   */\n      dup3\n        /* \"#utility.yul\":10146:10155   */\n      div\n        /* \"#utility.yul\":10141:10155   */\n      swap1\n      pop\n        /* \"#utility.yul\":9976:10161   */\n      swap3\n      swap2\n      pop\n      pop\n      jump\t// out\n        /* \"#utility.yul\":10167:10577   */\n    tag_163:\n        /* \"#utility.yul\":10207:10214   */\n      0x00\n        /* \"#utility.yul\":10230:10250   */\n      tag_309\n        /* \"#utility.yul\":10248:10249   */\n      dup3\n        /* \"#utility.yul\":10230:10250   */\n      tag_185\n      jump\t// in\n    tag_309:\n        /* \"#utility.yul\":10225:10250   */\n      swap2\n      pop\n        /* \"#utility.yul\":10264:10284   */\n      tag_310\n        /* \"#utility.yul\":10282:10283   */\n      dup4\n        /* \"#utility.yul\":10264:10284   */\n      tag_185\n      jump\t// in\n    tag_310:\n        /* \"#utility.yul\":10259:10284   */\n      swap3\n      pop\n        /* \"#utility.yul\":10319:10320   */\n      dup3\n        /* \"#utility.yul\":10316:10317   */\n      dup3\n        /* \"#utility.yul\":10312:10321   */\n      mul\n        /* \"#utility.yul\":10341:10371   */\n      tag_311\n        /* \"#utility.yul\":10359:10370   */\n      dup2\n        /* \"#utility.yul\":10341:10371   */\n      tag_185\n      jump\t// in\n    tag_311:\n        /* \"#utility.yul\":10330:10371   */\n      swap2\n      pop\n        /* \"#utility.yul\":10520:10521   */\n      dup3\n        /* \"#utility.yul\":10511:10518   */\n      dup3\n        /* \"#utility.yul\":10507:10522   */\n      div\n        /* \"#utility.yul\":10504:10505   */\n      dup5\n        /* \"#utility.yul\":10501:10523   */\n      eq\n        /* \"#utility.yul\":10481:10482   */\n      dup4\n        /* \"#utility.yul\":10474:10483   */\n      iszero\n        /* \"#utility.yul\":10454:10537   */\n      or\n        /* \"#utility.yul\":10431:10570   */\n      tag_312\n      jumpi\n        /* \"#utility.yul\":10550:10568   */\n      tag_313\n      tag_196\n      jump\t// in\n    tag_313:\n        /* \"#utility.yul\":10431:10570   */\n    tag_312:\n        /* \"#utility.yul\":10215:10577   */\n      pop\n        /* \"#utility.yul\":10167:10577   */\n      swap3\n      swap2\n      pop\n      pop\n      jump\t// out\n\n    auxdata: 0xa26469706673582212204344a3e8d8ad996003990227f7b0418896459403d9d51eea900bc2a9bcaff1ba64736f6c63430008120033\n}\n",
				"bytecode": {
					"linkReferences": {},
					"object": "60806040523480156200001157600080fd5b506040518060400160405280600c81526020017f447265616d636174636865720000000000000000000000000000000000000000815250600160000190816200005b91906200053b565b506040518060400160405280600581526020017f445245414d000000000000000000000000000000000000000000000000000000815250600180019081620000a491906200053b565b506012600160020160006101000a81548160ff021916908360ff1602179055506000600160030181905550600160020160009054906101000a900460ff16600a620000f09190620007b2565b630bebc20062000101919062000803565b600160040181905550620001306200011e6200014060201b60201c565b6001600401546200014860201b60201c565b600560008001819055506200093a565b600033905090565b600073ffffffffffffffffffffffffffffffffffffffff168273ffffffffffffffffffffffffffffffffffffffff1603620001ba576040517f08c379a0000000000000000000000000000000000000000000000000000000008152600401620001b190620008af565b60405180910390fd5b60016004015481600160030154620001d39190620008d1565b1115620001df57600080fd5b8060016003016000828254620001f69190620008d1565b9250508190555080600660008473ffffffffffffffffffffffffffffffffffffffff1673ffffffffffffffffffffffffffffffffffffffff16815260200190815260200160002060008282546200024e9190620008d1565b925050819055508173ffffffffffffffffffffffffffffffffffffffff16600073ffffffffffffffffffffffffffffffffffffffff167fddf252ad1be2c89b69c2b068fc378daa952ba7f163c4a11628f55a4df523b3ef83604051620002b591906200091d565b60405180910390a35050565b600081519050919050565b7f4e487b7100000000000000000000000000000000000000000000000000000000600052604160045260246000fd5b7f4e487b7100000000000000000000000000000000000000000000000000000000600052602260045260246000fd5b600060028204905060018216806200034357607f821691505b602082108103620003595762000358620002fb565b5b50919050565b60008190508160005260206000209050919050565b60006020601f8301049050919050565b600082821b905092915050565b600060088302620003c37fffffffffffffffffffffffffffffffffffffffffffffffffffffffffffffffff8262000384565b620003cf868362000384565b95508019841693508086168417925050509392505050565b6000819050919050565b6000819050919050565b60006200041c620004166200041084620003e7565b620003f1565b620003e7565b9050919050565b6000819050919050565b6200043883620003fb565b62000450620004478262000423565b84845462000391565b825550505050565b600090565b6200046762000458565b620004748184846200042d565b505050565b5b818110156200049c57620004906000826200045d565b6001810190506200047a565b5050565b601f821115620004eb57620004b5816200035f565b620004c08462000374565b81016020851015620004d0578190505b620004e8620004df8562000374565b83018262000479565b50505b505050565b600082821c905092915050565b60006200051060001984600802620004f0565b1980831691505092915050565b60006200052b8383620004fd565b9150826002028217905092915050565b6200054682620002c1565b67ffffffffffffffff811115620005625762000561620002cc565b5b6200056e82546200032a565b6200057b828285620004a0565b600060209050601f831160018114620005b357600084156200059e578287015190505b620005aa85826200051d565b8655506200061a565b601f198416620005c3866200035f565b60005b82811015620005ed57848901518255600182019150602085019450602081019050620005c6565b868310156200060d578489015162000609601f891682620004fd565b8355505b6001600288020188555050505b505050505050565b7f4e487b7100000000000000000000000000000000000000000000000000000000600052601160045260246000fd5b60008160011c9050919050565b6000808291508390505b6001851115620006b05780860481111562000688576200068762000622565b5b6001851615620006985780820291505b8081029050620006a88562000651565b945062000668565b94509492505050565b600082620006cb57600190506200079e565b81620006db57600090506200079e565b8160018114620006f45760028114620006ff5762000735565b60019150506200079e565b60ff84111562000714576200071362000622565b5b8360020a9150848211156200072e576200072d62000622565b5b506200079e565b5060208310610133831016604e8410600b84101617156200076f5782820a90508381111562000769576200076862000622565b5b6200079e565b6200077e84848460016200065e565b9250905081840481111562000798576200079762000622565b5b81810290505b9392505050565b600060ff82169050919050565b6000620007bf82620003e7565b9150620007cc83620007a5565b9250620007fb7fffffffffffffffffffffffffffffffffffffffffffffffffffffffffffffffff8484620006b9565b905092915050565b60006200081082620003e7565b91506200081d83620003e7565b92508282026200082d81620003e7565b9150828204841483151762000847576200084662000622565b5b5092915050565b600082825260208201905092915050565b7f7a65726f20616464726573730000000000000000000000000000000000000000600082015250565b600062000897600c836200084e565b9150620008a4826200085f565b602082019050919050565b60006020820190508181036000830152620008ca8162000888565b9050919050565b6000620008de82620003e7565b9150620008eb83620003e7565b925082820190508082111562000906576200090562000622565b5b92915050565b6200091781620003e7565b82525050565b60006020820190506200093460008301846200090c565b92915050565b6117a1806200094a6000396000f3fe608060405234801561001057600080fd5b50600436106100b45760003560e01c806370a082311161007157806370a08231146101a357806395d89b41146101d3578063a457c2d7146101f1578063a9059cbb14610221578063d5abeb0114610251578063dd62ed3e1461026f576100b4565b806306fdde03146100b9578063095ea7b3146100d757806318160ddd1461010757806323b872dd14610125578063313ce567146101555780633950935114610173575b600080fd5b6100c161029f565b6040516100ce91906111f0565b60405180910390f35b6100f160048036038101906100ec91906112ab565b610334565b6040516100fe9190611306565b60405180910390f35b61010f6104e3565b60405161011c9190611330565b60405180910390f35b61013f600480360381019061013a919061134b565b6104f0565b60405161014c9190611306565b60405180910390f35b61015d6108a6565b60405161016a91906113ba565b60405180910390f35b61018d600480360381019061018891906112ab565b6108c0565b60405161019a9190611306565b60405180910390f35b6101bd60048036038101906101b891906113d5565b610aa5565b6040516101ca9190611330565b60405180910390f35b6101db610b5c565b6040516101e891906111f0565b60405180910390f35b61020b600480360381019061020691906112ab565b610bf0565b6040516102189190611306565b60405180910390f35b61023b600480360381019061023691906112ab565b610df2565b6040516102489190611306565b60405180910390f35b6102596110c4565b6040516102669190611330565b60405180910390f35b61028960048036038101906102849190611402565b6110d1565b6040516102969190611330565b60405180910390f35b6060600160000180546102b190611471565b80601f01602080910402602001604051908101604052809291908181526020018280546102dd90611471565b801561032a5780601f106102ff5761010080835404028352916020019161032a565b820191906000526020600020905b81548152906001019060200180831161030d57829003601f168201915b5050505050905090565b60008073ffffffffffffffffffffffffffffffffffffffff16610355611158565b73ffffffffffffffffffffffffffffffffffffffff16141580156103a65750600073ffffffffffffffffffffffffffffffffffffffff168373ffffffffffffffffffffffffffffffffffffffff1614155b6103e5576040517f08c379a00000000000000000000000000000000000000000000000000000000081526004016103dc906114ee565b60405180910390fd5b81600760006103f2611158565b73ffffffffffffffffffffffffffffffffffffffff1673ffffffffffffffffffffffffffffffffffffffff16815260200190815260200160002060008573ffffffffffffffffffffffffffffffffffffffff1673ffffffffffffffffffffffffffffffffffffffff168152602001908152602001600020819055508273ffffffffffffffffffffffffffffffffffffffff1661048c611158565b73ffffffffffffffffffffffffffffffffffffffff167f8c5be1e5ebec7d5bd14f71427d1e84f3dd0314c0f7b2291e5b200ac8c7c3b925846040516104d19190611330565b60405180910390a36001905092915050565b6000600160030154905090565b60007fffffffffffffffffffffffffffffffffffffffffffffffffffffffffffffffff6105248561051f611158565b6110d1565b0361052e57600080fd5b816105408561053b611158565b6110d1565b101561054b57600080fd5b600073ffffffffffffffffffffffffffffffffffffffff168473ffffffffffffffffffffffffffffffffffffffff160361058457600080fd5b600073ffffffffffffffffffffffffffffffffffffffff166105a4611158565b73ffffffffffffffffffffffffffffffffffffffff16036105c457600080fd5b600073ffffffffffffffffffffffffffffffffffffffff168373ffffffffffffffffffffffffffffffffffffffff16036105fd57600080fd5b81600660008673ffffffffffffffffffffffffffffffffffffffff1673ffffffffffffffffffffffffffffffffffffffff16815260200190815260200160002054101561064957600080fd5b6000600660008673ffffffffffffffffffffffffffffffffffffffff1673ffffffffffffffffffffffffffffffffffffffff16815260200190815260200160002054101561069657600080fd5b81600760008673ffffffffffffffffffffffffffffffffffffffff1673ffffffffffffffffffffffffffffffffffffffff16815260200190815260200160002060006106e0611158565b73ffffffffffffffffffffffffffffffffffffffff1673ffffffffffffffffffffffffffffffffffffffff16815260200190815260200160002081905550610726611158565b73ffffffffffffffffffffffffffffffffffffffff168473ffffffffffffffffffffffffffffffffffffffff167f8c5be1e5ebec7d5bd14f71427d1e84f3dd0314c0f7b2291e5b200ac8c7c3b925846040516107829190611330565b60405180910390a381600660008673ffffffffffffffffffffffffffffffffffffffff1673ffffffffffffffffffffffffffffffffffffffff16815260200190815260200160002060008282546107d9919061153d565b9250508190555081600660008573ffffffffffffffffffffffffffffffffffffffff1673ffffffffffffffffffffffffffffffffffffffff168152602001908152602001600020600082825461082f9190611571565b925050819055508273ffffffffffffffffffffffffffffffffffffffff168473ffffffffffffffffffffffffffffffffffffffff167fddf252ad1be2c89b69c2b068fc378daa952ba7f163c4a11628f55a4df523b3ef846040516108939190611330565b60405180910390a3600190509392505050565b6000600160020160009054906101000a900460ff16905090565b60008073ffffffffffffffffffffffffffffffffffffffff166108e1611158565b73ffffffffffffffffffffffffffffffffffffffff16141580156109325750600073ffffffffffffffffffffffffffffffffffffffff168373ffffffffffffffffffffffffffffffffffffffff1614155b610971576040517f08c379a0000000000000000000000000000000000000000000000000000000008152600401610968906114ee565b60405180910390fd5b8161098361097d611158565b856110d1565b61098d9190611571565b60076000610999611158565b73ffffffffffffffffffffffffffffffffffffffff1673ffffffffffffffffffffffffffffffffffffffff16815260200190815260200160002060008573ffffffffffffffffffffffffffffffffffffffff1673ffffffffffffffffffffffffffffffffffffffff168152602001908152602001600020819055508273ffffffffffffffffffffffffffffffffffffffff16610a33611158565b73ffffffffffffffffffffffffffffffffffffffff167f8c5be1e5ebec7d5bd14f71427d1e84f3dd0314c0f7b2291e5b200ac8c7c3b92584610a7c610a76611158565b886110d1565b610a869190611571565b604051610a939190611330565b60405180910390a36001905092915050565b60008073ffffffffffffffffffffffffffffffffffffffff168273ffffffffffffffffffffffffffffffffffffffff1603610b15576040517f08c379a0000000000000000000000000000000000000000000000000000000008152600401610b0c906114ee565b60405180910390fd5b600660008373ffffffffffffffffffffffffffffffffffffffff1673ffffffffffffffffffffffffffffffffffffffff168152602001908152602001600020549050919050565b6060600180018054610b6d90611471565b80601f0160208091040260200160405190810160405280929190818152602001828054610b9990611471565b8015610be65780601f10610bbb57610100808354040283529160200191610be6565b820191906000526020600020905b815481529060010190602001808311610bc957829003601f168201915b5050505050905090565b600081610c04610bfe611158565b856110d1565b10158015610c465750600073ffffffffffffffffffffffffffffffffffffffff16610c2d611158565b73ffffffffffffffffffffffffffffffffffffffff1614155b8015610c7f5750600073ffffffffffffffffffffffffffffffffffffffff168373ffffffffffffffffffffffffffffffffffffffff1614155b610cbe576040517f08c379a0000000000000000000000000000000000000000000000000000000008152600401610cb590611617565b60405180910390fd5b81610cd0610cca611158565b856110d1565b610cda919061153d565b60076000610ce6611158565b73ffffffffffffffffffffffffffffffffffffffff1673ffffffffffffffffffffffffffffffffffffffff16815260200190815260200160002060008573ffffffffffffffffffffffffffffffffffffffff1673ffffffffffffffffffffffffffffffffffffffff168152602001908152602001600020819055508273ffffffffffffffffffffffffffffffffffffffff16610d80611158565b73ffffffffffffffffffffffffffffffffffffffff167f8c5be1e5ebec7d5bd14f71427d1e84f3dd0314c0f7b2291e5b200ac8c7c3b92584610dc9610dc3611158565b886110d1565b610dd3919061153d565b604051610de09190611330565b60405180910390a36001905092915050565b60008073ffffffffffffffffffffffffffffffffffffffff16610e13611158565b73ffffffffffffffffffffffffffffffffffffffff1614158015610e645750600073ffffffffffffffffffffffffffffffffffffffff168373ffffffffffffffffffffffffffffffffffffffff1614155b8015610eb657508160066000610e78611158565b73ffffffffffffffffffffffffffffffffffffffff1673ffffffffffffffffffffffffffffffffffffffff1681526020019081526020016000205410155b8015610f095750600060066000610ecb611158565b73ffffffffffffffffffffffffffffffffffffffff1673ffffffffffffffffffffffffffffffffffffffff1681526020019081526020016000205410155b610f48576040517f08c379a0000000000000000000000000000000000000000000000000000000008152600401610f3f906116a9565b60405180910390fd5b8160066000610f55611158565b73ffffffffffffffffffffffffffffffffffffffff1673ffffffffffffffffffffffffffffffffffffffff1681526020019081526020016000206000828254610f9e919061153d565b9250508190555060008060000154606484610fb991906116f8565b610fc39190611729565b90508083610fd1919061153d565b600660008673ffffffffffffffffffffffffffffffffffffffff1673ffffffffffffffffffffffffffffffffffffffff168152602001908152602001600020600082825461101f9190611571565b92505081905550806001600301600082825461103b919061153d565b925050819055508373ffffffffffffffffffffffffffffffffffffffff16611061611158565b73ffffffffffffffffffffffffffffffffffffffff167fddf252ad1be2c89b69c2b068fc378daa952ba7f163c4a11628f55a4df523b3ef83866110a4919061153d565b6040516110b19190611330565b60405180910390a3600191505092915050565b6000600160040154905090565b6000600760008473ffffffffffffffffffffffffffffffffffffffff1673ffffffffffffffffffffffffffffffffffffffff16815260200190815260200160002060008373ffffffffffffffffffffffffffffffffffffffff1673ffffffffffffffffffffffffffffffffffffffff16815260200190815260200160002054905092915050565b600033905090565b600081519050919050565b600082825260208201905092915050565b60005b8381101561119a57808201518184015260208101905061117f565b60008484015250505050565b6000601f19601f8301169050919050565b60006111c282611160565b6111cc818561116b565b93506111dc81856020860161117c565b6111e5816111a6565b840191505092915050565b6000602082019050818103600083015261120a81846111b7565b905092915050565b600080fd5b600073ffffffffffffffffffffffffffffffffffffffff82169050919050565b600061124282611217565b9050919050565b61125281611237565b811461125d57600080fd5b50565b60008135905061126f81611249565b92915050565b6000819050919050565b61128881611275565b811461129357600080fd5b50565b6000813590506112a58161127f565b92915050565b600080604083850312156112c2576112c1611212565b5b60006112d085828601611260565b92505060206112e185828601611296565b9150509250929050565b60008115159050919050565b611300816112eb565b82525050565b600060208201905061131b60008301846112f7565b92915050565b61132a81611275565b82525050565b60006020820190506113456000830184611321565b92915050565b60008060006060848603121561136457611363611212565b5b600061137286828701611260565b935050602061138386828701611260565b925050604061139486828701611296565b9150509250925092565b600060ff82169050919050565b6113b48161139e565b82525050565b60006020820190506113cf60008301846113ab565b92915050565b6000602082840312156113eb576113ea611212565b5b60006113f984828501611260565b91505092915050565b6000806040838503121561141957611418611212565b5b600061142785828601611260565b925050602061143885828601611260565b9150509250929050565b7f4e487b7100000000000000000000000000000000000000000000000000000000600052602260045260246000fd5b6000600282049050600182168061148957607f821691505b60208210810361149c5761149b611442565b5b50919050565b7f7a65726f20616464726573730000000000000000000000000000000000000000600082015250565b60006114d8600c8361116b565b91506114e3826114a2565b602082019050919050565b60006020820190508181036000830152611507816114cb565b9050919050565b7f4e487b7100000000000000000000000000000000000000000000000000000000600052601160045260246000fd5b600061154882611275565b915061155383611275565b925082820390508181111561156b5761156a61150e565b5b92915050565b600061157c82611275565b915061158783611275565b925082820190508082111561159f5761159e61150e565b5b92915050565b7f7a65726f2061646472657373207c7c2064656372656173656420616c6c6f776160008201527f6e63652062656c6f77207a65726f000000000000000000000000000000000000602082015250565b6000611601602e8361116b565b915061160c826115a5565b604082019050919050565b60006020820190508181036000830152611630816115f4565b9050919050565b7f7a65726f2061646472657373207c7c20696e73756666696369656e742062616c60008201527f616e636500000000000000000000000000000000000000000000000000000000602082015250565b600061169360248361116b565b915061169e82611637565b604082019050919050565b600060208201905081810360008301526116c281611686565b9050919050565b7f4e487b7100000000000000000000000000000000000000000000000000000000600052601260045260246000fd5b600061170382611275565b915061170e83611275565b92508261171e5761171d6116c9565b5b828204905092915050565b600061173482611275565b915061173f83611275565b925082820261174d81611275565b915082820484148315176117645761176361150e565b5b509291505056fea26469706673582212204344a3e8d8ad996003990227f7b0418896459403d9d51eea900bc2a9bcaff1ba64736f6c63430008120033",
					"opcodes": "PUSH1 0x80 PUSH1 0x40 MSTORE CALLVALUE DUP1 ISZERO PUSH3 0x11 JUMPI PUSH1 0x0 DUP1 REVERT JUMPDEST POP PUSH1 0x40 MLOAD DUP1 PUSH1 0x40 ADD PUSH1 0x40 MSTORE DUP1 PUSH1 0xC DUP2 MSTORE PUSH1 0x20 ADD PUSH32 0x447265616D636174636865720000000000000000000000000000000000000000 DUP2 MSTORE POP PUSH1 0x1 PUSH1 0x0 ADD SWAP1 DUP2 PUSH3 0x5B SWAP2 SWAP1 PUSH3 0x53B JUMP JUMPDEST POP PUSH1 0x40 MLOAD DUP1 PUSH1 0x40 ADD PUSH1 0x40 MSTORE DUP1 PUSH1 0x5 DUP2 MSTORE PUSH1 0x20 ADD PUSH32 0x445245414D000000000000000000000000000000000000000000000000000000 DUP2 MSTORE POP PUSH1 0x1 DUP1 ADD SWAP1 DUP2 PUSH3 0xA4 SWAP2 SWAP1 PUSH3 0x53B JUMP JUMPDEST POP PUSH1 0x12 PUSH1 0x1 PUSH1 0x2 ADD PUSH1 0x0 PUSH2 0x100 EXP DUP2 SLOAD DUP2 PUSH1 0xFF MUL NOT AND SWAP1 DUP4 PUSH1 0xFF AND MUL OR SWAP1 SSTORE POP PUSH1 0x0 PUSH1 0x1 PUSH1 0x3 ADD DUP2 SWAP1 SSTORE POP PUSH1 0x1 PUSH1 0x2 ADD PUSH1 0x0 SWAP1 SLOAD SWAP1 PUSH2 0x100 EXP SWAP1 DIV PUSH1 0xFF AND PUSH1 0xA PUSH3 0xF0 SWAP2 SWAP1 PUSH3 0x7B2 JUMP JUMPDEST PUSH4 0xBEBC200 PUSH3 0x101 SWAP2 SWAP1 PUSH3 0x803 JUMP JUMPDEST PUSH1 0x1 PUSH1 0x4 ADD DUP2 SWAP1 SSTORE POP PUSH3 0x130 PUSH3 0x11E PUSH3 0x140 PUSH1 0x20 SHL PUSH1 0x20 SHR JUMP JUMPDEST PUSH1 0x1 PUSH1 0x4 ADD SLOAD PUSH3 0x148 PUSH1 0x20 SHL PUSH1 0x20 SHR JUMP JUMPDEST PUSH1 0x5 PUSH1 0x0 DUP1 ADD DUP2 SWAP1 SSTORE POP PUSH3 0x93A JUMP JUMPDEST PUSH1 0x0 CALLER SWAP1 POP SWAP1 JUMP JUMPDEST PUSH1 0x0 PUSH20 0xFFFFFFFFFFFFFFFFFFFFFFFFFFFFFFFFFFFFFFFF AND DUP3 PUSH20 0xFFFFFFFFFFFFFFFFFFFFFFFFFFFFFFFFFFFFFFFF AND SUB PUSH3 0x1BA JUMPI PUSH1 0x40 MLOAD PUSH32 0x8C379A000000000000000000000000000000000000000000000000000000000 DUP2 MSTORE PUSH1 0x4 ADD PUSH3 0x1B1 SWAP1 PUSH3 0x8AF JUMP JUMPDEST PUSH1 0x40 MLOAD DUP1 SWAP2 SUB SWAP1 REVERT JUMPDEST PUSH1 0x1 PUSH1 0x4 ADD SLOAD DUP2 PUSH1 0x1 PUSH1 0x3 ADD SLOAD PUSH3 0x1D3 SWAP2 SWAP1 PUSH3 0x8D1 JUMP JUMPDEST GT ISZERO PUSH3 0x1DF JUMPI PUSH1 0x0 DUP1 REVERT JUMPDEST DUP1 PUSH1 0x1 PUSH1 0x3 ADD PUSH1 0x0 DUP3 DUP3 SLOAD PUSH3 0x1F6 SWAP2 SWAP1 PUSH3 0x8D1 JUMP JUMPDEST SWAP3 POP POP DUP2 SWAP1 SSTORE POP DUP1 PUSH1 0x6 PUSH1 0x0 DUP5 PUSH20 0xFFFFFFFFFFFFFFFFFFFFFFFFFFFFFFFFFFFFFFFF AND PUSH20 0xFFFFFFFFFFFFFFFFFFFFFFFFFFFFFFFFFFFFFFFF AND DUP2 MSTORE PUSH1 0x20 ADD SWAP1 DUP2 MSTORE PUSH1 0x20 ADD PUSH1 0x0 KECCAK256 PUSH1 0x0 DUP3 DUP3 SLOAD PUSH3 0x24E SWAP2 SWAP1 PUSH3 0x8D1 JUMP JUMPDEST SWAP3 POP POP DUP2 SWAP1 SSTORE POP DUP2 PUSH20 0xFFFFFFFFFFFFFFFFFFFFFFFFFFFFFFFFFFFFFFFF AND PUSH1 0x0 PUSH20 0xFFFFFFFFFFFFFFFFFFFFFFFFFFFFFFFFFFFFFFFF AND PUSH32 0xDDF252AD1BE2C89B69C2B068FC378DAA952BA7F163C4A11628F55A4DF523B3EF DUP4 PUSH1 0x40 MLOAD PUSH3 0x2B5 SWAP2 SWAP1 PUSH3 0x91D JUMP JUMPDEST PUSH1 0x40 MLOAD DUP1 SWAP2 SUB SWAP1 LOG3 POP POP JUMP JUMPDEST PUSH1 0x0 DUP2 MLOAD SWAP1 POP SWAP2 SWAP1 POP JUMP JUMPDEST PUSH32 0x4E487B7100000000000000000000000000000000000000000000000000000000 PUSH1 0x0 MSTORE PUSH1 0x41 PUSH1 0x4 MSTORE PUSH1 0x24 PUSH1 0x0 REVERT JUMPDEST PUSH32 0x4E487B7100000000000000000000000000000000000000000000000000000000 PUSH1 0x0 MSTORE PUSH1 0x22 PUSH1 0x4 MSTORE PUSH1 0x24 PUSH1 0x0 REVERT JUMPDEST PUSH1 0x0 PUSH1 0x2 DUP3 DIV SWAP1 POP PUSH1 0x1 DUP3 AND DUP1 PUSH3 0x343 JUMPI PUSH1 0x7F DUP3 AND SWAP2 POP JUMPDEST PUSH1 0x20 DUP3 LT DUP2 SUB PUSH3 0x359 JUMPI PUSH3 0x358 PUSH3 0x2FB JUMP JUMPDEST JUMPDEST POP SWAP2 SWAP1 POP JUMP JUMPDEST PUSH1 0x0 DUP2 SWAP1 POP DUP2 PUSH1 0x0 MSTORE PUSH1 0x20 PUSH1 0x0 KECCAK256 SWAP1 POP SWAP2 SWAP1 POP JUMP JUMPDEST PUSH1 0x0 PUSH1 0x20 PUSH1 0x1F DUP4 ADD DIV SWAP1 POP SWAP2 SWAP1 POP JUMP JUMPDEST PUSH1 0x0 DUP3 DUP3 SHL SWAP1 POP SWAP3 SWAP2 POP POP JUMP JUMPDEST PUSH1 0x0 PUSH1 0x8 DUP4 MUL PUSH3 0x3C3 PUSH32 0xFFFFFFFFFFFFFFFFFFFFFFFFFFFFFFFFFFFFFFFFFFFFFFFFFFFFFFFFFFFFFFFF DUP3 PUSH3 0x384 JUMP JUMPDEST PUSH3 0x3CF DUP7 DUP4 PUSH3 0x384 JUMP JUMPDEST SWAP6 POP DUP1 NOT DUP5 AND SWAP4 POP DUP1 DUP7 AND DUP5 OR SWAP3 POP POP POP SWAP4 SWAP3 POP POP POP JUMP JUMPDEST PUSH1 0x0 DUP2 SWAP1 POP SWAP2 SWAP1 POP JUMP JUMPDEST PUSH1 0x0 DUP2 SWAP1 POP SWAP2 SWAP1 POP JUMP JUMPDEST PUSH1 0x0 PUSH3 0x41C PUSH3 0x416 PUSH3 0x410 DUP5 PUSH3 0x3E7 JUMP JUMPDEST PUSH3 0x3F1 JUMP JUMPDEST PUSH3 0x3E7 JUMP JUMPDEST SWAP1 POP SWAP2 SWAP1 POP JUMP JUMPDEST PUSH1 0x0 DUP2 SWAP1 POP SWAP2 SWAP1 POP JUMP JUMPDEST PUSH3 0x438 DUP4 PUSH3 0x3FB JUMP JUMPDEST PUSH3 0x450 PUSH3 0x447 DUP3 PUSH3 0x423 JUMP JUMPDEST DUP5 DUP5 SLOAD PUSH3 0x391 JUMP JUMPDEST DUP3 SSTORE POP POP POP POP JUMP JUMPDEST PUSH1 0x0 SWAP1 JUMP JUMPDEST PUSH3 0x467 PUSH3 0x458 JUMP JUMPDEST PUSH3 0x474 DUP2 DUP5 DUP5 PUSH3 0x42D JUMP JUMPDEST POP POP POP JUMP JUMPDEST JUMPDEST DUP2 DUP2 LT ISZERO PUSH3 0x49C JUMPI PUSH3 0x490 PUSH1 0x0 DUP3 PUSH3 0x45D JUMP JUMPDEST PUSH1 0x1 DUP2 ADD SWAP1 POP PUSH3 0x47A JUMP JUMPDEST POP POP JUMP JUMPDEST PUSH1 0x1F DUP3 GT ISZERO PUSH3 0x4EB JUMPI PUSH3 0x4B5 DUP2 PUSH3 0x35F JUMP JUMPDEST PUSH3 0x4C0 DUP5 PUSH3 0x374 JUMP JUMPDEST DUP2 ADD PUSH1 0x20 DUP6 LT ISZERO PUSH3 0x4D0 JUMPI DUP2 SWAP1 POP JUMPDEST PUSH3 0x4E8 PUSH3 0x4DF DUP6 PUSH3 0x374 JUMP JUMPDEST DUP4 ADD DUP3 PUSH3 0x479 JUMP JUMPDEST POP POP JUMPDEST POP POP POP JUMP JUMPDEST PUSH1 0x0 DUP3 DUP3 SHR SWAP1 POP SWAP3 SWAP2 POP POP JUMP JUMPDEST PUSH1 0x0 PUSH3 0x510 PUSH1 0x0 NOT DUP5 PUSH1 0x8 MUL PUSH3 0x4F0 JUMP JUMPDEST NOT DUP1 DUP4 AND SWAP2 POP POP SWAP3 SWAP2 POP POP JUMP JUMPDEST PUSH1 0x0 PUSH3 0x52B DUP4 DUP4 PUSH3 0x4FD JUMP JUMPDEST SWAP2 POP DUP3 PUSH1 0x2 MUL DUP3 OR SWAP1 POP SWAP3 SWAP2 POP POP JUMP JUMPDEST PUSH3 0x546 DUP3 PUSH3 0x2C1 JUMP JUMPDEST PUSH8 0xFFFFFFFFFFFFFFFF DUP2 GT ISZERO PUSH3 0x562 JUMPI PUSH3 0x561 PUSH3 0x2CC JUMP JUMPDEST JUMPDEST PUSH3 0x56E DUP3 SLOAD PUSH3 0x32A JUMP JUMPDEST PUSH3 0x57B DUP3 DUP3 DUP6 PUSH3 0x4A0 JUMP JUMPDEST PUSH1 0x0 PUSH1 0x20 SWAP1 POP PUSH1 0x1F DUP4 GT PUSH1 0x1 DUP2 EQ PUSH3 0x5B3 JUMPI PUSH1 0x0 DUP5 ISZERO PUSH3 0x59E JUMPI DUP3 DUP8 ADD MLOAD SWAP1 POP JUMPDEST PUSH3 0x5AA DUP6 DUP3 PUSH3 0x51D JUMP JUMPDEST DUP7 SSTORE POP PUSH3 0x61A JUMP JUMPDEST PUSH1 0x1F NOT DUP5 AND PUSH3 0x5C3 DUP7 PUSH3 0x35F JUMP JUMPDEST PUSH1 0x0 JUMPDEST DUP3 DUP2 LT ISZERO PUSH3 0x5ED JUMPI DUP5 DUP10 ADD MLOAD DUP3 SSTORE PUSH1 0x1 DUP3 ADD SWAP2 POP PUSH1 0x20 DUP6 ADD SWAP5 POP PUSH1 0x20 DUP2 ADD SWAP1 POP PUSH3 0x5C6 JUMP JUMPDEST DUP7 DUP4 LT ISZERO PUSH3 0x60D JUMPI DUP5 DUP10 ADD MLOAD PUSH3 0x609 PUSH1 0x1F DUP10 AND DUP3 PUSH3 0x4FD JUMP JUMPDEST DUP4 SSTORE POP JUMPDEST PUSH1 0x1 PUSH1 0x2 DUP9 MUL ADD DUP9 SSTORE POP POP POP JUMPDEST POP POP POP POP POP POP JUMP JUMPDEST PUSH32 0x4E487B7100000000000000000000000000000000000000000000000000000000 PUSH1 0x0 MSTORE PUSH1 0x11 PUSH1 0x4 MSTORE PUSH1 0x24 PUSH1 0x0 REVERT JUMPDEST PUSH1 0x0 DUP2 PUSH1 0x1 SHR SWAP1 POP SWAP2 SWAP1 POP JUMP JUMPDEST PUSH1 0x0 DUP1 DUP3 SWAP2 POP DUP4 SWAP1 POP JUMPDEST PUSH1 0x1 DUP6 GT ISZERO PUSH3 0x6B0 JUMPI DUP1 DUP7 DIV DUP2 GT ISZERO PUSH3 0x688 JUMPI PUSH3 0x687 PUSH3 0x622 JUMP JUMPDEST JUMPDEST PUSH1 0x1 DUP6 AND ISZERO PUSH3 0x698 JUMPI DUP1 DUP3 MUL SWAP2 POP JUMPDEST DUP1 DUP2 MUL SWAP1 POP PUSH3 0x6A8 DUP6 PUSH3 0x651 JUMP JUMPDEST SWAP5 POP PUSH3 0x668 JUMP JUMPDEST SWAP5 POP SWAP5 SWAP3 POP POP POP JUMP JUMPDEST PUSH1 0x0 DUP3 PUSH3 0x6CB JUMPI PUSH1 0x1 SWAP1 POP PUSH3 0x79E JUMP JUMPDEST DUP2 PUSH3 0x6DB JUMPI PUSH1 0x0 SWAP1 POP PUSH3 0x79E JUMP JUMPDEST DUP2 PUSH1 0x1 DUP2 EQ PUSH3 0x6F4 JUMPI PUSH1 0x2 DUP2 EQ PUSH3 0x6FF JUMPI PUSH3 0x735 JUMP JUMPDEST PUSH1 0x1 SWAP2 POP POP PUSH3 0x79E JUMP JUMPDEST PUSH1 0xFF DUP5 GT ISZERO PUSH3 0x714 JUMPI PUSH3 0x713 PUSH3 0x622 JUMP JUMPDEST JUMPDEST DUP4 PUSH1 0x2 EXP SWAP2 POP DUP5 DUP3 GT ISZERO PUSH3 0x72E JUMPI PUSH3 0x72D PUSH3 0x622 JUMP JUMPDEST JUMPDEST POP PUSH3 0x79E JUMP JUMPDEST POP PUSH1 0x20 DUP4 LT PUSH2 0x133 DUP4 LT AND PUSH1 0x4E DUP5 LT PUSH1 0xB DUP5 LT AND OR ISZERO PUSH3 0x76F JUMPI DUP3 DUP3 EXP SWAP1 POP DUP4 DUP2 GT ISZERO PUSH3 0x769 JUMPI PUSH3 0x768 PUSH3 0x622 JUMP JUMPDEST JUMPDEST PUSH3 0x79E JUMP JUMPDEST PUSH3 0x77E DUP5 DUP5 DUP5 PUSH1 0x1 PUSH3 0x65E JUMP JUMPDEST SWAP3 POP SWAP1 POP DUP2 DUP5 DIV DUP2 GT ISZERO PUSH3 0x798 JUMPI PUSH3 0x797 PUSH3 0x622 JUMP JUMPDEST JUMPDEST DUP2 DUP2 MUL SWAP1 POP JUMPDEST SWAP4 SWAP3 POP POP POP JUMP JUMPDEST PUSH1 0x0 PUSH1 0xFF DUP3 AND SWAP1 POP SWAP2 SWAP1 POP JUMP JUMPDEST PUSH1 0x0 PUSH3 0x7BF DUP3 PUSH3 0x3E7 JUMP JUMPDEST SWAP2 POP PUSH3 0x7CC DUP4 PUSH3 0x7A5 JUMP JUMPDEST SWAP3 POP PUSH3 0x7FB PUSH32 0xFFFFFFFFFFFFFFFFFFFFFFFFFFFFFFFFFFFFFFFFFFFFFFFFFFFFFFFFFFFFFFFF DUP5 DUP5 PUSH3 0x6B9 JUMP JUMPDEST SWAP1 POP SWAP3 SWAP2 POP POP JUMP JUMPDEST PUSH1 0x0 PUSH3 0x810 DUP3 PUSH3 0x3E7 JUMP JUMPDEST SWAP2 POP PUSH3 0x81D DUP4 PUSH3 0x3E7 JUMP JUMPDEST SWAP3 POP DUP3 DUP3 MUL PUSH3 0x82D DUP2 PUSH3 0x3E7 JUMP JUMPDEST SWAP2 POP DUP3 DUP3 DIV DUP5 EQ DUP4 ISZERO OR PUSH3 0x847 JUMPI PUSH3 0x846 PUSH3 0x622 JUMP JUMPDEST JUMPDEST POP SWAP3 SWAP2 POP POP JUMP JUMPDEST PUSH1 0x0 DUP3 DUP3 MSTORE PUSH1 0x20 DUP3 ADD SWAP1 POP SWAP3 SWAP2 POP POP JUMP JUMPDEST PUSH32 0x7A65726F20616464726573730000000000000000000000000000000000000000 PUSH1 0x0 DUP3 ADD MSTORE POP JUMP JUMPDEST PUSH1 0x0 PUSH3 0x897 PUSH1 0xC DUP4 PUSH3 0x84E JUMP JUMPDEST SWAP2 POP PUSH3 0x8A4 DUP3 PUSH3 0x85F JUMP JUMPDEST PUSH1 0x20 DUP3 ADD SWAP1 POP SWAP2 SWAP1 POP JUMP JUMPDEST PUSH1 0x0 PUSH1 0x20 DUP3 ADD SWAP1 POP DUP2 DUP2 SUB PUSH1 0x0 DUP4 ADD MSTORE PUSH3 0x8CA DUP2 PUSH3 0x888 JUMP JUMPDEST SWAP1 POP SWAP2 SWAP1 POP JUMP JUMPDEST PUSH1 0x0 PUSH3 0x8DE DUP3 PUSH3 0x3E7 JUMP JUMPDEST SWAP2 POP PUSH3 0x8EB DUP4 PUSH3 0x3E7 JUMP JUMPDEST SWAP3 POP DUP3 DUP3 ADD SWAP1 POP DUP1 DUP3 GT ISZERO PUSH3 0x906 JUMPI PUSH3 0x905 PUSH3 0x622 JUMP JUMPDEST JUMPDEST SWAP3 SWAP2 POP POP JUMP JUMPDEST PUSH3 0x917 DUP2 PUSH3 0x3E7 JUMP JUMPDEST DUP3 MSTORE POP POP JUMP JUMPDEST PUSH1 0x0 PUSH1 0x20 DUP3 ADD SWAP1 POP PUSH3 0x934 PUSH1 0x0 DUP4 ADD DUP5 PUSH3 0x90C JUMP JUMPDEST SWAP3 SWAP2 POP POP JUMP JUMPDEST PUSH2 0x17A1 DUP1 PUSH3 0x94A PUSH1 0x0 CODECOPY PUSH1 0x0 RETURN INVALID PUSH1 0x80 PUSH1 0x40 MSTORE CALLVALUE DUP1 ISZERO PUSH2 0x10 JUMPI PUSH1 0x0 DUP1 REVERT JUMPDEST POP PUSH1 0x4 CALLDATASIZE LT PUSH2 0xB4 JUMPI PUSH1 0x0 CALLDATALOAD PUSH1 0xE0 SHR DUP1 PUSH4 0x70A08231 GT PUSH2 0x71 JUMPI DUP1 PUSH4 0x70A08231 EQ PUSH2 0x1A3 JUMPI DUP1 PUSH4 0x95D89B41 EQ PUSH2 0x1D3 JUMPI DUP1 PUSH4 0xA457C2D7 EQ PUSH2 0x1F1 JUMPI DUP1 PUSH4 0xA9059CBB EQ PUSH2 0x221 JUMPI DUP1 PUSH4 0xD5ABEB01 EQ PUSH2 0x251 JUMPI DUP1 PUSH4 0xDD62ED3E EQ PUSH2 0x26F JUMPI PUSH2 0xB4 JUMP JUMPDEST DUP1 PUSH4 0x6FDDE03 EQ PUSH2 0xB9 JUMPI DUP1 PUSH4 0x95EA7B3 EQ PUSH2 0xD7 JUMPI DUP1 PUSH4 0x18160DDD EQ PUSH2 0x107 JUMPI DUP1 PUSH4 0x23B872DD EQ PUSH2 0x125 JUMPI DUP1 PUSH4 0x313CE567 EQ PUSH2 0x155 JUMPI DUP1 PUSH4 0x39509351 EQ PUSH2 0x173 JUMPI JUMPDEST PUSH1 0x0 DUP1 REVERT JUMPDEST PUSH2 0xC1 PUSH2 0x29F JUMP JUMPDEST PUSH1 0x40 MLOAD PUSH2 0xCE SWAP2 SWAP1 PUSH2 0x11F0 JUMP JUMPDEST PUSH1 0x40 MLOAD DUP1 SWAP2 SUB SWAP1 RETURN JUMPDEST PUSH2 0xF1 PUSH1 0x4 DUP1 CALLDATASIZE SUB DUP2 ADD SWAP1 PUSH2 0xEC SWAP2 SWAP1 PUSH2 0x12AB JUMP JUMPDEST PUSH2 0x334 JUMP JUMPDEST PUSH1 0x40 MLOAD PUSH2 0xFE SWAP2 SWAP1 PUSH2 0x1306 JUMP JUMPDEST PUSH1 0x40 MLOAD DUP1 SWAP2 SUB SWAP1 RETURN JUMPDEST PUSH2 0x10F PUSH2 0x4E3 JUMP JUMPDEST PUSH1 0x40 MLOAD PUSH2 0x11C SWAP2 SWAP1 PUSH2 0x1330 JUMP JUMPDEST PUSH1 0x40 MLOAD DUP1 SWAP2 SUB SWAP1 RETURN JUMPDEST PUSH2 0x13F PUSH1 0x4 DUP1 CALLDATASIZE SUB DUP2 ADD SWAP1 PUSH2 0x13A SWAP2 SWAP1 PUSH2 0x134B JUMP JUMPDEST PUSH2 0x4F0 JUMP JUMPDEST PUSH1 0x40 MLOAD PUSH2 0x14C SWAP2 SWAP1 PUSH2 0x1306 JUMP JUMPDEST PUSH1 0x40 MLOAD DUP1 SWAP2 SUB SWAP1 RETURN JUMPDEST PUSH2 0x15D PUSH2 0x8A6 JUMP JUMPDEST PUSH1 0x40 MLOAD PUSH2 0x16A SWAP2 SWAP1 PUSH2 0x13BA JUMP JUMPDEST PUSH1 0x40 MLOAD DUP1 SWAP2 SUB SWAP1 RETURN JUMPDEST PUSH2 0x18D PUSH1 0x4 DUP1 CALLDATASIZE SUB DUP2 ADD SWAP1 PUSH2 0x188 SWAP2 SWAP1 PUSH2 0x12AB JUMP JUMPDEST PUSH2 0x8C0 JUMP JUMPDEST PUSH1 0x40 MLOAD PUSH2 0x19A SWAP2 SWAP1 PUSH2 0x1306 JUMP JUMPDEST PUSH1 0x40 MLOAD DUP1 SWAP2 SUB SWAP1 RETURN JUMPDEST PUSH2 0x1BD PUSH1 0x4 DUP1 CALLDATASIZE SUB DUP2 ADD SWAP1 PUSH2 0x1B8 SWAP2 SWAP1 PUSH2 0x13D5 JUMP JUMPDEST PUSH2 0xAA5 JUMP JUMPDEST PUSH1 0x40 MLOAD PUSH2 0x1CA SWAP2 SWAP1 PUSH2 0x1330 JUMP JUMPDEST PUSH1 0x40 MLOAD DUP1 SWAP2 SUB SWAP1 RETURN JUMPDEST PUSH2 0x1DB PUSH2 0xB5C JUMP JUMPDEST PUSH1 0x40 MLOAD PUSH2 0x1E8 SWAP2 SWAP1 PUSH2 0x11F0 JUMP JUMPDEST PUSH1 0x40 MLOAD DUP1 SWAP2 SUB SWAP1 RETURN JUMPDEST PUSH2 0x20B PUSH1 0x4 DUP1 CALLDATASIZE SUB DUP2 ADD SWAP1 PUSH2 0x206 SWAP2 SWAP1 PUSH2 0x12AB JUMP JUMPDEST PUSH2 0xBF0 JUMP JUMPDEST PUSH1 0x40 MLOAD PUSH2 0x218 SWAP2 SWAP1 PUSH2 0x1306 JUMP JUMPDEST PUSH1 0x40 MLOAD DUP1 SWAP2 SUB SWAP1 RETURN JUMPDEST PUSH2 0x23B PUSH1 0x4 DUP1 CALLDATASIZE SUB DUP2 ADD SWAP1 PUSH2 0x236 SWAP2 SWAP1 PUSH2 0x12AB JUMP JUMPDEST PUSH2 0xDF2 JUMP JUMPDEST PUSH1 0x40 MLOAD PUSH2 0x248 SWAP2 SWAP1 PUSH2 0x1306 JUMP JUMPDEST PUSH1 0x40 MLOAD DUP1 SWAP2 SUB SWAP1 RETURN JUMPDEST PUSH2 0x259 PUSH2 0x10C4 JUMP JUMPDEST PUSH1 0x40 MLOAD PUSH2 0x266 SWAP2 SWAP1 PUSH2 0x1330 JUMP JUMPDEST PUSH1 0x40 MLOAD DUP1 SWAP2 SUB SWAP1 RETURN JUMPDEST PUSH2 0x289 PUSH1 0x4 DUP1 CALLDATASIZE SUB DUP2 ADD SWAP1 PUSH2 0x284 SWAP2 SWAP1 PUSH2 0x1402 JUMP JUMPDEST PUSH2 0x10D1 JUMP JUMPDEST PUSH1 0x40 MLOAD PUSH2 0x296 SWAP2 SWAP1 PUSH2 0x1330 JUMP JUMPDEST PUSH1 0x40 MLOAD DUP1 SWAP2 SUB SWAP1 RETURN JUMPDEST PUSH1 0x60 PUSH1 0x1 PUSH1 0x0 ADD DUP1 SLOAD PUSH2 0x2B1 SWAP1 PUSH2 0x1471 JUMP JUMPDEST DUP1 PUSH1 0x1F ADD PUSH1 0x20 DUP1 SWAP2 DIV MUL PUSH1 0x20 ADD PUSH1 0x40 MLOAD SWAP1 DUP2 ADD PUSH1 0x40 MSTORE DUP1 SWAP3 SWAP2 SWAP1 DUP2 DUP2 MSTORE PUSH1 0x20 ADD DUP3 DUP1 SLOAD PUSH2 0x2DD SWAP1 PUSH2 0x1471 JUMP JUMPDEST DUP1 ISZERO PUSH2 0x32A JUMPI DUP1 PUSH1 0x1F LT PUSH2 0x2FF JUMPI PUSH2 0x100 DUP1 DUP4 SLOAD DIV MUL DUP4 MSTORE SWAP2 PUSH1 0x20 ADD SWAP2 PUSH2 0x32A JUMP JUMPDEST DUP3 ADD SWAP2 SWAP1 PUSH1 0x0 MSTORE PUSH1 0x20 PUSH1 0x0 KECCAK256 SWAP1 JUMPDEST DUP2 SLOAD DUP2 MSTORE SWAP1 PUSH1 0x1 ADD SWAP1 PUSH1 0x20 ADD DUP1 DUP4 GT PUSH2 0x30D JUMPI DUP3 SWAP1 SUB PUSH1 0x1F AND DUP3 ADD SWAP2 JUMPDEST POP POP POP POP POP SWAP1 POP SWAP1 JUMP JUMPDEST PUSH1 0x0 DUP1 PUSH20 0xFFFFFFFFFFFFFFFFFFFFFFFFFFFFFFFFFFFFFFFF AND PUSH2 0x355 PUSH2 0x1158 JUMP JUMPDEST PUSH20 0xFFFFFFFFFFFFFFFFFFFFFFFFFFFFFFFFFFFFFFFF AND EQ ISZERO DUP1 ISZERO PUSH2 0x3A6 JUMPI POP PUSH1 0x0 PUSH20 0xFFFFFFFFFFFFFFFFFFFFFFFFFFFFFFFFFFFFFFFF AND DUP4 PUSH20 0xFFFFFFFFFFFFFFFFFFFFFFFFFFFFFFFFFFFFFFFF AND EQ ISZERO JUMPDEST PUSH2 0x3E5 JUMPI PUSH1 0x40 MLOAD PUSH32 0x8C379A000000000000000000000000000000000000000000000000000000000 DUP2 MSTORE PUSH1 0x4 ADD PUSH2 0x3DC SWAP1 PUSH2 0x14EE JUMP JUMPDEST PUSH1 0x40 MLOAD DUP1 SWAP2 SUB SWAP1 REVERT JUMPDEST DUP2 PUSH1 0x7 PUSH1 0x0 PUSH2 0x3F2 PUSH2 0x1158 JUMP JUMPDEST PUSH20 0xFFFFFFFFFFFFFFFFFFFFFFFFFFFFFFFFFFFFFFFF AND PUSH20 0xFFFFFFFFFFFFFFFFFFFFFFFFFFFFFFFFFFFFFFFF AND DUP2 MSTORE PUSH1 0x20 ADD SWAP1 DUP2 MSTORE PUSH1 0x20 ADD PUSH1 0x0 KECCAK256 PUSH1 0x0 DUP6 PUSH20 0xFFFFFFFFFFFFFFFFFFFFFFFFFFFFFFFFFFFFFFFF AND PUSH20 0xFFFFFFFFFFFFFFFFFFFFFFFFFFFFFFFFFFFFFFFF AND DUP2 MSTORE PUSH1 0x20 ADD SWAP1 DUP2 MSTORE PUSH1 0x20 ADD PUSH1 0x0 KECCAK256 DUP2 SWAP1 SSTORE POP DUP3 PUSH20 0xFFFFFFFFFFFFFFFFFFFFFFFFFFFFFFFFFFFFFFFF AND PUSH2 0x48C PUSH2 0x1158 JUMP JUMPDEST PUSH20 0xFFFFFFFFFFFFFFFFFFFFFFFFFFFFFFFFFFFFFFFF AND PUSH32 0x8C5BE1E5EBEC7D5BD14F71427D1E84F3DD0314C0F7B2291E5B200AC8C7C3B925 DUP5 PUSH1 0x40 MLOAD PUSH2 0x4D1 SWAP2 SWAP1 PUSH2 0x1330 JUMP JUMPDEST PUSH1 0x40 MLOAD DUP1 SWAP2 SUB SWAP1 LOG3 PUSH1 0x1 SWAP1 POP SWAP3 SWAP2 POP POP JUMP JUMPDEST PUSH1 0x0 PUSH1 0x1 PUSH1 0x3 ADD SLOAD SWAP1 POP SWAP1 JUMP JUMPDEST PUSH1 0x0 PUSH32 0xFFFFFFFFFFFFFFFFFFFFFFFFFFFFFFFFFFFFFFFFFFFFFFFFFFFFFFFFFFFFFFFF PUSH2 0x524 DUP6 PUSH2 0x51F PUSH2 0x1158 JUMP JUMPDEST PUSH2 0x10D1 JUMP JUMPDEST SUB PUSH2 0x52E JUMPI PUSH1 0x0 DUP1 REVERT JUMPDEST DUP2 PUSH2 0x540 DUP6 PUSH2 0x53B PUSH2 0x1158 JUMP JUMPDEST PUSH2 0x10D1 JUMP JUMPDEST LT ISZERO PUSH2 0x54B JUMPI PUSH1 0x0 DUP1 REVERT JUMPDEST PUSH1 0x0 PUSH20 0xFFFFFFFFFFFFFFFFFFFFFFFFFFFFFFFFFFFFFFFF AND DUP5 PUSH20 0xFFFFFFFFFFFFFFFFFFFFFFFFFFFFFFFFFFFFFFFF AND SUB PUSH2 0x584 JUMPI PUSH1 0x0 DUP1 REVERT JUMPDEST PUSH1 0x0 PUSH20 0xFFFFFFFFFFFFFFFFFFFFFFFFFFFFFFFFFFFFFFFF AND PUSH2 0x5A4 PUSH2 0x1158 JUMP JUMPDEST PUSH20 0xFFFFFFFFFFFFFFFFFFFFFFFFFFFFFFFFFFFFFFFF AND SUB PUSH2 0x5C4 JUMPI PUSH1 0x0 DUP1 REVERT JUMPDEST PUSH1 0x0 PUSH20 0xFFFFFFFFFFFFFFFFFFFFFFFFFFFFFFFFFFFFFFFF AND DUP4 PUSH20 0xFFFFFFFFFFFFFFFFFFFFFFFFFFFFFFFFFFFFFFFF AND SUB PUSH2 0x5FD JUMPI PUSH1 0x0 DUP1 REVERT JUMPDEST DUP2 PUSH1 0x6 PUSH1 0x0 DUP7 PUSH20 0xFFFFFFFFFFFFFFFFFFFFFFFFFFFFFFFFFFFFFFFF AND PUSH20 0xFFFFFFFFFFFFFFFFFFFFFFFFFFFFFFFFFFFFFFFF AND DUP2 MSTORE PUSH1 0x20 ADD SWAP1 DUP2 MSTORE PUSH1 0x20 ADD PUSH1 0x0 KECCAK256 SLOAD LT ISZERO PUSH2 0x649 JUMPI PUSH1 0x0 DUP1 REVERT JUMPDEST PUSH1 0x0 PUSH1 0x6 PUSH1 0x0 DUP7 PUSH20 0xFFFFFFFFFFFFFFFFFFFFFFFFFFFFFFFFFFFFFFFF AND PUSH20 0xFFFFFFFFFFFFFFFFFFFFFFFFFFFFFFFFFFFFFFFF AND DUP2 MSTORE PUSH1 0x20 ADD SWAP1 DUP2 MSTORE PUSH1 0x20 ADD PUSH1 0x0 KECCAK256 SLOAD LT ISZERO PUSH2 0x696 JUMPI PUSH1 0x0 DUP1 REVERT JUMPDEST DUP2 PUSH1 0x7 PUSH1 0x0 DUP7 PUSH20 0xFFFFFFFFFFFFFFFFFFFFFFFFFFFFFFFFFFFFFFFF AND PUSH20 0xFFFFFFFFFFFFFFFFFFFFFFFFFFFFFFFFFFFFFFFF AND DUP2 MSTORE PUSH1 0x20 ADD SWAP1 DUP2 MSTORE PUSH1 0x20 ADD PUSH1 0x0 KECCAK256 PUSH1 0x0 PUSH2 0x6E0 PUSH2 0x1158 JUMP JUMPDEST PUSH20 0xFFFFFFFFFFFFFFFFFFFFFFFFFFFFFFFFFFFFFFFF AND PUSH20 0xFFFFFFFFFFFFFFFFFFFFFFFFFFFFFFFFFFFFFFFF AND DUP2 MSTORE PUSH1 0x20 ADD SWAP1 DUP2 MSTORE PUSH1 0x20 ADD PUSH1 0x0 KECCAK256 DUP2 SWAP1 SSTORE POP PUSH2 0x726 PUSH2 0x1158 JUMP JUMPDEST PUSH20 0xFFFFFFFFFFFFFFFFFFFFFFFFFFFFFFFFFFFFFFFF AND DUP5 PUSH20 0xFFFFFFFFFFFFFFFFFFFFFFFFFFFFFFFFFFFFFFFF AND PUSH32 0x8C5BE1E5EBEC7D5BD14F71427D1E84F3DD0314C0F7B2291E5B200AC8C7C3B925 DUP5 PUSH1 0x40 MLOAD PUSH2 0x782 SWAP2 SWAP1 PUSH2 0x1330 JUMP JUMPDEST PUSH1 0x40 MLOAD DUP1 SWAP2 SUB SWAP1 LOG3 DUP2 PUSH1 0x6 PUSH1 0x0 DUP7 PUSH20 0xFFFFFFFFFFFFFFFFFFFFFFFFFFFFFFFFFFFFFFFF AND PUSH20 0xFFFFFFFFFFFFFFFFFFFFFFFFFFFFFFFFFFFFFFFF AND DUP2 MSTORE PUSH1 0x20 ADD SWAP1 DUP2 MSTORE PUSH1 0x20 ADD PUSH1 0x0 KECCAK256 PUSH1 0x0 DUP3 DUP3 SLOAD PUSH2 0x7D9 SWAP2 SWAP1 PUSH2 0x153D JUMP JUMPDEST SWAP3 POP POP DUP2 SWAP1 SSTORE POP DUP2 PUSH1 0x6 PUSH1 0x0 DUP6 PUSH20 0xFFFFFFFFFFFFFFFFFFFFFFFFFFFFFFFFFFFFFFFF AND PUSH20 0xFFFFFFFFFFFFFFFFFFFFFFFFFFFFFFFFFFFFFFFF AND DUP2 MSTORE PUSH1 0x20 ADD SWAP1 DUP2 MSTORE PUSH1 0x20 ADD PUSH1 0x0 KECCAK256 PUSH1 0x0 DUP3 DUP3 SLOAD PUSH2 0x82F SWAP2 SWAP1 PUSH2 0x1571 JUMP JUMPDEST SWAP3 POP POP DUP2 SWAP1 SSTORE POP DUP3 PUSH20 0xFFFFFFFFFFFFFFFFFFFFFFFFFFFFFFFFFFFFFFFF AND DUP5 PUSH20 0xFFFFFFFFFFFFFFFFFFFFFFFFFFFFFFFFFFFFFFFF AND PUSH32 0xDDF252AD1BE2C89B69C2B068FC378DAA952BA7F163C4A11628F55A4DF523B3EF DUP5 PUSH1 0x40 MLOAD PUSH2 0x893 SWAP2 SWAP1 PUSH2 0x1330 JUMP JUMPDEST PUSH1 0x40 MLOAD DUP1 SWAP2 SUB SWAP1 LOG3 PUSH1 0x1 SWAP1 POP SWAP4 SWAP3 POP POP POP JUMP JUMPDEST PUSH1 0x0 PUSH1 0x1 PUSH1 0x2 ADD PUSH1 0x0 SWAP1 SLOAD SWAP1 PUSH2 0x100 EXP SWAP1 DIV PUSH1 0xFF AND SWAP1 POP SWAP1 JUMP JUMPDEST PUSH1 0x0 DUP1 PUSH20 0xFFFFFFFFFFFFFFFFFFFFFFFFFFFFFFFFFFFFFFFF AND PUSH2 0x8E1 PUSH2 0x1158 JUMP JUMPDEST PUSH20 0xFFFFFFFFFFFFFFFFFFFFFFFFFFFFFFFFFFFFFFFF AND EQ ISZERO DUP1 ISZERO PUSH2 0x932 JUMPI POP PUSH1 0x0 PUSH20 0xFFFFFFFFFFFFFFFFFFFFFFFFFFFFFFFFFFFFFFFF AND DUP4 PUSH20 0xFFFFFFFFFFFFFFFFFFFFFFFFFFFFFFFFFFFFFFFF AND EQ ISZERO JUMPDEST PUSH2 0x971 JUMPI PUSH1 0x40 MLOAD PUSH32 0x8C379A000000000000000000000000000000000000000000000000000000000 DUP2 MSTORE PUSH1 0x4 ADD PUSH2 0x968 SWAP1 PUSH2 0x14EE JUMP JUMPDEST PUSH1 0x40 MLOAD DUP1 SWAP2 SUB SWAP1 REVERT JUMPDEST DUP2 PUSH2 0x983 PUSH2 0x97D PUSH2 0x1158 JUMP JUMPDEST DUP6 PUSH2 0x10D1 JUMP JUMPDEST PUSH2 0x98D SWAP2 SWAP1 PUSH2 0x1571 JUMP JUMPDEST PUSH1 0x7 PUSH1 0x0 PUSH2 0x999 PUSH2 0x1158 JUMP JUMPDEST PUSH20 0xFFFFFFFFFFFFFFFFFFFFFFFFFFFFFFFFFFFFFFFF AND PUSH20 0xFFFFFFFFFFFFFFFFFFFFFFFFFFFFFFFFFFFFFFFF AND DUP2 MSTORE PUSH1 0x20 ADD SWAP1 DUP2 MSTORE PUSH1 0x20 ADD PUSH1 0x0 KECCAK256 PUSH1 0x0 DUP6 PUSH20 0xFFFFFFFFFFFFFFFFFFFFFFFFFFFFFFFFFFFFFFFF AND PUSH20 0xFFFFFFFFFFFFFFFFFFFFFFFFFFFFFFFFFFFFFFFF AND DUP2 MSTORE PUSH1 0x20 ADD SWAP1 DUP2 MSTORE PUSH1 0x20 ADD PUSH1 0x0 KECCAK256 DUP2 SWAP1 SSTORE POP DUP3 PUSH20 0xFFFFFFFFFFFFFFFFFFFFFFFFFFFFFFFFFFFFFFFF AND PUSH2 0xA33 PUSH2 0x1158 JUMP JUMPDEST PUSH20 0xFFFFFFFFFFFFFFFFFFFFFFFFFFFFFFFFFFFFFFFF AND PUSH32 0x8C5BE1E5EBEC7D5BD14F71427D1E84F3DD0314C0F7B2291E5B200AC8C7C3B925 DUP5 PUSH2 0xA7C PUSH2 0xA76 PUSH2 0x1158 JUMP JUMPDEST DUP9 PUSH2 0x10D1 JUMP JUMPDEST PUSH2 0xA86 SWAP2 SWAP1 PUSH2 0x1571 JUMP JUMPDEST PUSH1 0x40 MLOAD PUSH2 0xA93 SWAP2 SWAP1 PUSH2 0x1330 JUMP JUMPDEST PUSH1 0x40 MLOAD DUP1 SWAP2 SUB SWAP1 LOG3 PUSH1 0x1 SWAP1 POP SWAP3 SWAP2 POP POP JUMP JUMPDEST PUSH1 0x0 DUP1 PUSH20 0xFFFFFFFFFFFFFFFFFFFFFFFFFFFFFFFFFFFFFFFF AND DUP3 PUSH20 0xFFFFFFFFFFFFFFFFFFFFFFFFFFFFFFFFFFFFFFFF AND SUB PUSH2 0xB15 JUMPI PUSH1 0x40 MLOAD PUSH32 0x8C379A000000000000000000000000000000000000000000000000000000000 DUP2 MSTORE PUSH1 0x4 ADD PUSH2 0xB0C SWAP1 PUSH2 0x14EE JUMP JUMPDEST PUSH1 0x40 MLOAD DUP1 SWAP2 SUB SWAP1 REVERT JUMPDEST PUSH1 0x6 PUSH1 0x0 DUP4 PUSH20 0xFFFFFFFFFFFFFFFFFFFFFFFFFFFFFFFFFFFFFFFF AND PUSH20 0xFFFFFFFFFFFFFFFFFFFFFFFFFFFFFFFFFFFFFFFF AND DUP2 MSTORE PUSH1 0x20 ADD SWAP1 DUP2 MSTORE PUSH1 0x20 ADD PUSH1 0x0 KECCAK256 SLOAD SWAP1 POP SWAP2 SWAP1 POP JUMP JUMPDEST PUSH1 0x60 PUSH1 0x1 DUP1 ADD DUP1 SLOAD PUSH2 0xB6D SWAP1 PUSH2 0x1471 JUMP JUMPDEST DUP1 PUSH1 0x1F ADD PUSH1 0x20 DUP1 SWAP2 DIV MUL PUSH1 0x20 ADD PUSH1 0x40 MLOAD SWAP1 DUP2 ADD PUSH1 0x40 MSTORE DUP1 SWAP3 SWAP2 SWAP1 DUP2 DUP2 MSTORE PUSH1 0x20 ADD DUP3 DUP1 SLOAD PUSH2 0xB99 SWAP1 PUSH2 0x1471 JUMP JUMPDEST DUP1 ISZERO PUSH2 0xBE6 JUMPI DUP1 PUSH1 0x1F LT PUSH2 0xBBB JUMPI PUSH2 0x100 DUP1 DUP4 SLOAD DIV MUL DUP4 MSTORE SWAP2 PUSH1 0x20 ADD SWAP2 PUSH2 0xBE6 JUMP JUMPDEST DUP3 ADD SWAP2 SWAP1 PUSH1 0x0 MSTORE PUSH1 0x20 PUSH1 0x0 KECCAK256 SWAP1 JUMPDEST DUP2 SLOAD DUP2 MSTORE SWAP1 PUSH1 0x1 ADD SWAP1 PUSH1 0x20 ADD DUP1 DUP4 GT PUSH2 0xBC9 JUMPI DUP3 SWAP1 SUB PUSH1 0x1F AND DUP3 ADD SWAP2 JUMPDEST POP POP POP POP POP SWAP1 POP SWAP1 JUMP JUMPDEST PUSH1 0x0 DUP2 PUSH2 0xC04 PUSH2 0xBFE PUSH2 0x1158 JUMP JUMPDEST DUP6 PUSH2 0x10D1 JUMP JUMPDEST LT ISZERO DUP1 ISZERO PUSH2 0xC46 JUMPI POP PUSH1 0x0 PUSH20 0xFFFFFFFFFFFFFFFFFFFFFFFFFFFFFFFFFFFFFFFF AND PUSH2 0xC2D PUSH2 0x1158 JUMP JUMPDEST PUSH20 0xFFFFFFFFFFFFFFFFFFFFFFFFFFFFFFFFFFFFFFFF AND EQ ISZERO JUMPDEST DUP1 ISZERO PUSH2 0xC7F JUMPI POP PUSH1 0x0 PUSH20 0xFFFFFFFFFFFFFFFFFFFFFFFFFFFFFFFFFFFFFFFF AND DUP4 PUSH20 0xFFFFFFFFFFFFFFFFFFFFFFFFFFFFFFFFFFFFFFFF AND EQ ISZERO JUMPDEST PUSH2 0xCBE JUMPI PUSH1 0x40 MLOAD PUSH32 0x8C379A000000000000000000000000000000000000000000000000000000000 DUP2 MSTORE PUSH1 0x4 ADD PUSH2 0xCB5 SWAP1 PUSH2 0x1617 JUMP JUMPDEST PUSH1 0x40 MLOAD DUP1 SWAP2 SUB SWAP1 REVERT JUMPDEST DUP2 PUSH2 0xCD0 PUSH2 0xCCA PUSH2 0x1158 JUMP JUMPDEST DUP6 PUSH2 0x10D1 JUMP JUMPDEST PUSH2 0xCDA SWAP2 SWAP1 PUSH2 0x153D JUMP JUMPDEST PUSH1 0x7 PUSH1 0x0 PUSH2 0xCE6 PUSH2 0x1158 JUMP JUMPDEST PUSH20 0xFFFFFFFFFFFFFFFFFFFFFFFFFFFFFFFFFFFFFFFF AND PUSH20 0xFFFFFFFFFFFFFFFFFFFFFFFFFFFFFFFFFFFFFFFF AND DUP2 MSTORE PUSH1 0x20 ADD SWAP1 DUP2 MSTORE PUSH1 0x20 ADD PUSH1 0x0 KECCAK256 PUSH1 0x0 DUP6 PUSH20 0xFFFFFFFFFFFFFFFFFFFFFFFFFFFFFFFFFFFFFFFF AND PUSH20 0xFFFFFFFFFFFFFFFFFFFFFFFFFFFFFFFFFFFFFFFF AND DUP2 MSTORE PUSH1 0x20 ADD SWAP1 DUP2 MSTORE PUSH1 0x20 ADD PUSH1 0x0 KECCAK256 DUP2 SWAP1 SSTORE POP DUP3 PUSH20 0xFFFFFFFFFFFFFFFFFFFFFFFFFFFFFFFFFFFFFFFF AND PUSH2 0xD80 PUSH2 0x1158 JUMP JUMPDEST PUSH20 0xFFFFFFFFFFFFFFFFFFFFFFFFFFFFFFFFFFFFFFFF AND PUSH32 0x8C5BE1E5EBEC7D5BD14F71427D1E84F3DD0314C0F7B2291E5B200AC8C7C3B925 DUP5 PUSH2 0xDC9 PUSH2 0xDC3 PUSH2 0x1158 JUMP JUMPDEST DUP9 PUSH2 0x10D1 JUMP JUMPDEST PUSH2 0xDD3 SWAP2 SWAP1 PUSH2 0x153D JUMP JUMPDEST PUSH1 0x40 MLOAD PUSH2 0xDE0 SWAP2 SWAP1 PUSH2 0x1330 JUMP JUMPDEST PUSH1 0x40 MLOAD DUP1 SWAP2 SUB SWAP1 LOG3 PUSH1 0x1 SWAP1 POP SWAP3 SWAP2 POP POP JUMP JUMPDEST PUSH1 0x0 DUP1 PUSH20 0xFFFFFFFFFFFFFFFFFFFFFFFFFFFFFFFFFFFFFFFF AND PUSH2 0xE13 PUSH2 0x1158 JUMP JUMPDEST PUSH20 0xFFFFFFFFFFFFFFFFFFFFFFFFFFFFFFFFFFFFFFFF AND EQ ISZERO DUP1 ISZERO PUSH2 0xE64 JUMPI POP PUSH1 0x0 PUSH20 0xFFFFFFFFFFFFFFFFFFFFFFFFFFFFFFFFFFFFFFFF AND DUP4 PUSH20 0xFFFFFFFFFFFFFFFFFFFFFFFFFFFFFFFFFFFFFFFF AND EQ ISZERO JUMPDEST DUP1 ISZERO PUSH2 0xEB6 JUMPI POP DUP2 PUSH1 0x6 PUSH1 0x0 PUSH2 0xE78 PUSH2 0x1158 JUMP JUMPDEST PUSH20 0xFFFFFFFFFFFFFFFFFFFFFFFFFFFFFFFFFFFFFFFF AND PUSH20 0xFFFFFFFFFFFFFFFFFFFFFFFFFFFFFFFFFFFFFFFF AND DUP2 MSTORE PUSH1 0x20 ADD SWAP1 DUP2 MSTORE PUSH1 0x20 ADD PUSH1 0x0 KECCAK256 SLOAD LT ISZERO JUMPDEST DUP1 ISZERO PUSH2 0xF09 JUMPI POP PUSH1 0x0 PUSH1 0x6 PUSH1 0x0 PUSH2 0xECB PUSH2 0x1158 JUMP JUMPDEST PUSH20 0xFFFFFFFFFFFFFFFFFFFFFFFFFFFFFFFFFFFFFFFF AND PUSH20 0xFFFFFFFFFFFFFFFFFFFFFFFFFFFFFFFFFFFFFFFF AND DUP2 MSTORE PUSH1 0x20 ADD SWAP1 DUP2 MSTORE PUSH1 0x20 ADD PUSH1 0x0 KECCAK256 SLOAD LT ISZERO JUMPDEST PUSH2 0xF48 JUMPI PUSH1 0x40 MLOAD PUSH32 0x8C379A000000000000000000000000000000000000000000000000000000000 DUP2 MSTORE PUSH1 0x4 ADD PUSH2 0xF3F SWAP1 PUSH2 0x16A9 JUMP JUMPDEST PUSH1 0x40 MLOAD DUP1 SWAP2 SUB SWAP1 REVERT JUMPDEST DUP2 PUSH1 0x6 PUSH1 0x0 PUSH2 0xF55 PUSH2 0x1158 JUMP JUMPDEST PUSH20 0xFFFFFFFFFFFFFFFFFFFFFFFFFFFFFFFFFFFFFFFF AND PUSH20 0xFFFFFFFFFFFFFFFFFFFFFFFFFFFFFFFFFFFFFFFF AND DUP2 MSTORE PUSH1 0x20 ADD SWAP1 DUP2 MSTORE PUSH1 0x20 ADD PUSH1 0x0 KECCAK256 PUSH1 0x0 DUP3 DUP3 SLOAD PUSH2 0xF9E SWAP2 SWAP1 PUSH2 0x153D JUMP JUMPDEST SWAP3 POP POP DUP2 SWAP1 SSTORE POP PUSH1 0x0 DUP1 PUSH1 0x0 ADD SLOAD PUSH1 0x64 DUP5 PUSH2 0xFB9 SWAP2 SWAP1 PUSH2 0x16F8 JUMP JUMPDEST PUSH2 0xFC3 SWAP2 SWAP1 PUSH2 0x1729 JUMP JUMPDEST SWAP1 POP DUP1 DUP4 PUSH2 0xFD1 SWAP2 SWAP1 PUSH2 0x153D JUMP JUMPDEST PUSH1 0x6 PUSH1 0x0 DUP7 PUSH20 0xFFFFFFFFFFFFFFFFFFFFFFFFFFFFFFFFFFFFFFFF AND PUSH20 0xFFFFFFFFFFFFFFFFFFFFFFFFFFFFFFFFFFFFFFFF AND DUP2 MSTORE PUSH1 0x20 ADD SWAP1 DUP2 MSTORE PUSH1 0x20 ADD PUSH1 0x0 KECCAK256 PUSH1 0x0 DUP3 DUP3 SLOAD PUSH2 0x101F SWAP2 SWAP1 PUSH2 0x1571 JUMP JUMPDEST SWAP3 POP POP DUP2 SWAP1 SSTORE POP DUP1 PUSH1 0x1 PUSH1 0x3 ADD PUSH1 0x0 DUP3 DUP3 SLOAD PUSH2 0x103B SWAP2 SWAP1 PUSH2 0x153D JUMP JUMPDEST SWAP3 POP POP DUP2 SWAP1 SSTORE POP DUP4 PUSH20 0xFFFFFFFFFFFFFFFFFFFFFFFFFFFFFFFFFFFFFFFF AND PUSH2 0x1061 PUSH2 0x1158 JUMP JUMPDEST PUSH20 0xFFFFFFFFFFFFFFFFFFFFFFFFFFFFFFFFFFFFFFFF AND PUSH32 0xDDF252AD1BE2C89B69C2B068FC378DAA952BA7F163C4A11628F55A4DF523B3EF DUP4 DUP7 PUSH2 0x10A4 SWAP2 SWAP1 PUSH2 0x153D JUMP JUMPDEST PUSH1 0x40 MLOAD PUSH2 0x10B1 SWAP2 SWAP1 PUSH2 0x1330 JUMP JUMPDEST PUSH1 0x40 MLOAD DUP1 SWAP2 SUB SWAP1 LOG3 PUSH1 0x1 SWAP2 POP POP SWAP3 SWAP2 POP POP JUMP JUMPDEST PUSH1 0x0 PUSH1 0x1 PUSH1 0x4 ADD SLOAD SWAP1 POP SWAP1 JUMP JUMPDEST PUSH1 0x0 PUSH1 0x7 PUSH1 0x0 DUP5 PUSH20 0xFFFFFFFFFFFFFFFFFFFFFFFFFFFFFFFFFFFFFFFF AND PUSH20 0xFFFFFFFFFFFFFFFFFFFFFFFFFFFFFFFFFFFFFFFF AND DUP2 MSTORE PUSH1 0x20 ADD SWAP1 DUP2 MSTORE PUSH1 0x20 ADD PUSH1 0x0 KECCAK256 PUSH1 0x0 DUP4 PUSH20 0xFFFFFFFFFFFFFFFFFFFFFFFFFFFFFFFFFFFFFFFF AND PUSH20 0xFFFFFFFFFFFFFFFFFFFFFFFFFFFFFFFFFFFFFFFF AND DUP2 MSTORE PUSH1 0x20 ADD SWAP1 DUP2 MSTORE PUSH1 0x20 ADD PUSH1 0x0 KECCAK256 SLOAD SWAP1 POP SWAP3 SWAP2 POP POP JUMP JUMPDEST PUSH1 0x0 CALLER SWAP1 POP SWAP1 JUMP JUMPDEST PUSH1 0x0 DUP2 MLOAD SWAP1 POP SWAP2 SWAP1 POP JUMP JUMPDEST PUSH1 0x0 DUP3 DUP3 MSTORE PUSH1 0x20 DUP3 ADD SWAP1 POP SWAP3 SWAP2 POP POP JUMP JUMPDEST PUSH1 0x0 JUMPDEST DUP4 DUP2 LT ISZERO PUSH2 0x119A JUMPI DUP1 DUP3 ADD MLOAD DUP2 DUP5 ADD MSTORE PUSH1 0x20 DUP2 ADD SWAP1 POP PUSH2 0x117F JUMP JUMPDEST PUSH1 0x0 DUP5 DUP5 ADD MSTORE POP POP POP POP JUMP JUMPDEST PUSH1 0x0 PUSH1 0x1F NOT PUSH1 0x1F DUP4 ADD AND SWAP1 POP SWAP2 SWAP1 POP JUMP JUMPDEST PUSH1 0x0 PUSH2 0x11C2 DUP3 PUSH2 0x1160 JUMP JUMPDEST PUSH2 0x11CC DUP2 DUP6 PUSH2 0x116B JUMP JUMPDEST SWAP4 POP PUSH2 0x11DC DUP2 DUP6 PUSH1 0x20 DUP7 ADD PUSH2 0x117C JUMP JUMPDEST PUSH2 0x11E5 DUP2 PUSH2 0x11A6 JUMP JUMPDEST DUP5 ADD SWAP2 POP POP SWAP3 SWAP2 POP POP JUMP JUMPDEST PUSH1 0x0 PUSH1 0x20 DUP3 ADD SWAP1 POP DUP2 DUP2 SUB PUSH1 0x0 DUP4 ADD MSTORE PUSH2 0x120A DUP2 DUP5 PUSH2 0x11B7 JUMP JUMPDEST SWAP1 POP SWAP3 SWAP2 POP POP JUMP JUMPDEST PUSH1 0x0 DUP1 REVERT JUMPDEST PUSH1 0x0 PUSH20 0xFFFFFFFFFFFFFFFFFFFFFFFFFFFFFFFFFFFFFFFF DUP3 AND SWAP1 POP SWAP2 SWAP1 POP JUMP JUMPDEST PUSH1 0x0 PUSH2 0x1242 DUP3 PUSH2 0x1217 JUMP JUMPDEST SWAP1 POP SWAP2 SWAP1 POP JUMP JUMPDEST PUSH2 0x1252 DUP2 PUSH2 0x1237 JUMP JUMPDEST DUP2 EQ PUSH2 0x125D JUMPI PUSH1 0x0 DUP1 REVERT JUMPDEST POP JUMP JUMPDEST PUSH1 0x0 DUP2 CALLDATALOAD SWAP1 POP PUSH2 0x126F DUP2 PUSH2 0x1249 JUMP JUMPDEST SWAP3 SWAP2 POP POP JUMP JUMPDEST PUSH1 0x0 DUP2 SWAP1 POP SWAP2 SWAP1 POP JUMP JUMPDEST PUSH2 0x1288 DUP2 PUSH2 0x1275 JUMP JUMPDEST DUP2 EQ PUSH2 0x1293 JUMPI PUSH1 0x0 DUP1 REVERT JUMPDEST POP JUMP JUMPDEST PUSH1 0x0 DUP2 CALLDATALOAD SWAP1 POP PUSH2 0x12A5 DUP2 PUSH2 0x127F JUMP JUMPDEST SWAP3 SWAP2 POP POP JUMP JUMPDEST PUSH1 0x0 DUP1 PUSH1 0x40 DUP4 DUP6 SUB SLT ISZERO PUSH2 0x12C2 JUMPI PUSH2 0x12C1 PUSH2 0x1212 JUMP JUMPDEST JUMPDEST PUSH1 0x0 PUSH2 0x12D0 DUP6 DUP3 DUP7 ADD PUSH2 0x1260 JUMP JUMPDEST SWAP3 POP POP PUSH1 0x20 PUSH2 0x12E1 DUP6 DUP3 DUP7 ADD PUSH2 0x1296 JUMP JUMPDEST SWAP2 POP POP SWAP3 POP SWAP3 SWAP1 POP JUMP JUMPDEST PUSH1 0x0 DUP2 ISZERO ISZERO SWAP1 POP SWAP2 SWAP1 POP JUMP JUMPDEST PUSH2 0x1300 DUP2 PUSH2 0x12EB JUMP JUMPDEST DUP3 MSTORE POP POP JUMP JUMPDEST PUSH1 0x0 PUSH1 0x20 DUP3 ADD SWAP1 POP PUSH2 0x131B PUSH1 0x0 DUP4 ADD DUP5 PUSH2 0x12F7 JUMP JUMPDEST SWAP3 SWAP2 POP POP JUMP JUMPDEST PUSH2 0x132A DUP2 PUSH2 0x1275 JUMP JUMPDEST DUP3 MSTORE POP POP JUMP JUMPDEST PUSH1 0x0 PUSH1 0x20 DUP3 ADD SWAP1 POP PUSH2 0x1345 PUSH1 0x0 DUP4 ADD DUP5 PUSH2 0x1321 JUMP JUMPDEST SWAP3 SWAP2 POP POP JUMP JUMPDEST PUSH1 0x0 DUP1 PUSH1 0x0 PUSH1 0x60 DUP5 DUP7 SUB SLT ISZERO PUSH2 0x1364 JUMPI PUSH2 0x1363 PUSH2 0x1212 JUMP JUMPDEST JUMPDEST PUSH1 0x0 PUSH2 0x1372 DUP7 DUP3 DUP8 ADD PUSH2 0x1260 JUMP JUMPDEST SWAP4 POP POP PUSH1 0x20 PUSH2 0x1383 DUP7 DUP3 DUP8 ADD PUSH2 0x1260 JUMP JUMPDEST SWAP3 POP POP PUSH1 0x40 PUSH2 0x1394 DUP7 DUP3 DUP8 ADD PUSH2 0x1296 JUMP JUMPDEST SWAP2 POP POP SWAP3 POP SWAP3 POP SWAP3 JUMP JUMPDEST PUSH1 0x0 PUSH1 0xFF DUP3 AND SWAP1 POP SWAP2 SWAP1 POP JUMP JUMPDEST PUSH2 0x13B4 DUP2 PUSH2 0x139E JUMP JUMPDEST DUP3 MSTORE POP POP JUMP JUMPDEST PUSH1 0x0 PUSH1 0x20 DUP3 ADD SWAP1 POP PUSH2 0x13CF PUSH1 0x0 DUP4 ADD DUP5 PUSH2 0x13AB JUMP JUMPDEST SWAP3 SWAP2 POP POP JUMP JUMPDEST PUSH1 0x0 PUSH1 0x20 DUP3 DUP5 SUB SLT ISZERO PUSH2 0x13EB JUMPI PUSH2 0x13EA PUSH2 0x1212 JUMP JUMPDEST JUMPDEST PUSH1 0x0 PUSH2 0x13F9 DUP5 DUP3 DUP6 ADD PUSH2 0x1260 JUMP JUMPDEST SWAP2 POP POP SWAP3 SWAP2 POP POP JUMP JUMPDEST PUSH1 0x0 DUP1 PUSH1 0x40 DUP4 DUP6 SUB SLT ISZERO PUSH2 0x1419 JUMPI PUSH2 0x1418 PUSH2 0x1212 JUMP JUMPDEST JUMPDEST PUSH1 0x0 PUSH2 0x1427 DUP6 DUP3 DUP7 ADD PUSH2 0x1260 JUMP JUMPDEST SWAP3 POP POP PUSH1 0x20 PUSH2 0x1438 DUP6 DUP3 DUP7 ADD PUSH2 0x1260 JUMP JUMPDEST SWAP2 POP POP SWAP3 POP SWAP3 SWAP1 POP JUMP JUMPDEST PUSH32 0x4E487B7100000000000000000000000000000000000000000000000000000000 PUSH1 0x0 MSTORE PUSH1 0x22 PUSH1 0x4 MSTORE PUSH1 0x24 PUSH1 0x0 REVERT JUMPDEST PUSH1 0x0 PUSH1 0x2 DUP3 DIV SWAP1 POP PUSH1 0x1 DUP3 AND DUP1 PUSH2 0x1489 JUMPI PUSH1 0x7F DUP3 AND SWAP2 POP JUMPDEST PUSH1 0x20 DUP3 LT DUP2 SUB PUSH2 0x149C JUMPI PUSH2 0x149B PUSH2 0x1442 JUMP JUMPDEST JUMPDEST POP SWAP2 SWAP1 POP JUMP JUMPDEST PUSH32 0x7A65726F20616464726573730000000000000000000000000000000000000000 PUSH1 0x0 DUP3 ADD MSTORE POP JUMP JUMPDEST PUSH1 0x0 PUSH2 0x14D8 PUSH1 0xC DUP4 PUSH2 0x116B JUMP JUMPDEST SWAP2 POP PUSH2 0x14E3 DUP3 PUSH2 0x14A2 JUMP JUMPDEST PUSH1 0x20 DUP3 ADD SWAP1 POP SWAP2 SWAP1 POP JUMP JUMPDEST PUSH1 0x0 PUSH1 0x20 DUP3 ADD SWAP1 POP DUP2 DUP2 SUB PUSH1 0x0 DUP4 ADD MSTORE PUSH2 0x1507 DUP2 PUSH2 0x14CB JUMP JUMPDEST SWAP1 POP SWAP2 SWAP1 POP JUMP JUMPDEST PUSH32 0x4E487B7100000000000000000000000000000000000000000000000000000000 PUSH1 0x0 MSTORE PUSH1 0x11 PUSH1 0x4 MSTORE PUSH1 0x24 PUSH1 0x0 REVERT JUMPDEST PUSH1 0x0 PUSH2 0x1548 DUP3 PUSH2 0x1275 JUMP JUMPDEST SWAP2 POP PUSH2 0x1553 DUP4 PUSH2 0x1275 JUMP JUMPDEST SWAP3 POP DUP3 DUP3 SUB SWAP1 POP DUP2 DUP2 GT ISZERO PUSH2 0x156B JUMPI PUSH2 0x156A PUSH2 0x150E JUMP JUMPDEST JUMPDEST SWAP3 SWAP2 POP POP JUMP JUMPDEST PUSH1 0x0 PUSH2 0x157C DUP3 PUSH2 0x1275 JUMP JUMPDEST SWAP2 POP PUSH2 0x1587 DUP4 PUSH2 0x1275 JUMP JUMPDEST SWAP3 POP DUP3 DUP3 ADD SWAP1 POP DUP1 DUP3 GT ISZERO PUSH2 0x159F JUMPI PUSH2 0x159E PUSH2 0x150E JUMP JUMPDEST JUMPDEST SWAP3 SWAP2 POP POP JUMP JUMPDEST PUSH32 0x7A65726F2061646472657373207C7C2064656372656173656420616C6C6F7761 PUSH1 0x0 DUP3 ADD MSTORE PUSH32 0x6E63652062656C6F77207A65726F000000000000000000000000000000000000 PUSH1 0x20 DUP3 ADD MSTORE POP JUMP JUMPDEST PUSH1 0x0 PUSH2 0x1601 PUSH1 0x2E DUP4 PUSH2 0x116B JUMP JUMPDEST SWAP2 POP PUSH2 0x160C DUP3 PUSH2 0x15A5 JUMP JUMPDEST PUSH1 0x40 DUP3 ADD SWAP1 POP SWAP2 SWAP1 POP JUMP JUMPDEST PUSH1 0x0 PUSH1 0x20 DUP3 ADD SWAP1 POP DUP2 DUP2 SUB PUSH1 0x0 DUP4 ADD MSTORE PUSH2 0x1630 DUP2 PUSH2 0x15F4 JUMP JUMPDEST SWAP1 POP SWAP2 SWAP1 POP JUMP JUMPDEST PUSH32 0x7A65726F2061646472657373207C7C20696E73756666696369656E742062616C PUSH1 0x0 DUP3 ADD MSTORE PUSH32 0x616E636500000000000000000000000000000000000000000000000000000000 PUSH1 0x20 DUP3 ADD MSTORE POP JUMP JUMPDEST PUSH1 0x0 PUSH2 0x1693 PUSH1 0x24 DUP4 PUSH2 0x116B JUMP JUMPDEST SWAP2 POP PUSH2 0x169E DUP3 PUSH2 0x1637 JUMP JUMPDEST PUSH1 0x40 DUP3 ADD SWAP1 POP SWAP2 SWAP1 POP JUMP JUMPDEST PUSH1 0x0 PUSH1 0x20 DUP3 ADD SWAP1 POP DUP2 DUP2 SUB PUSH1 0x0 DUP4 ADD MSTORE PUSH2 0x16C2 DUP2 PUSH2 0x1686 JUMP JUMPDEST SWAP1 POP SWAP2 SWAP1 POP JUMP JUMPDEST PUSH32 0x4E487B7100000000000000000000000000000000000000000000000000000000 PUSH1 0x0 MSTORE PUSH1 0x12 PUSH1 0x4 MSTORE PUSH1 0x24 PUSH1 0x0 REVERT JUMPDEST PUSH1 0x0 PUSH2 0x1703 DUP3 PUSH2 0x1275 JUMP JUMPDEST SWAP2 POP PUSH2 0x170E DUP4 PUSH2 0x1275 JUMP JUMPDEST SWAP3 POP DUP3 PUSH2 0x171E JUMPI PUSH2 0x171D PUSH2 0x16C9 JUMP JUMPDEST JUMPDEST DUP3 DUP3 DIV SWAP1 POP SWAP3 SWAP2 POP POP JUMP JUMPDEST PUSH1 0x0 PUSH2 0x1734 DUP3 PUSH2 0x1275 JUMP JUMPDEST SWAP2 POP PUSH2 0x173F DUP4 PUSH2 0x1275 JUMP JUMPDEST SWAP3 POP DUP3 DUP3 MUL PUSH2 0x174D DUP2 PUSH2 0x1275 JUMP JUMPDEST SWAP2 POP DUP3 DUP3 DIV DUP5 EQ DUP4 ISZERO OR PUSH2 0x1764 JUMPI PUSH2 0x1763 PUSH2 0x150E JUMP JUMPDEST JUMPDEST POP SWAP3 SWAP2 POP POP JUMP INVALID LOG2 PUSH5 0x6970667358 0x22 SLT KECCAK256 NUMBER PREVRANDAO LOG3 0xE8 0xD8 0xAD SWAP10 PUSH1 0x3 SWAP10 MUL 0x27 0xF7 0xB0 COINBASE DUP9 SWAP7 GASLIMIT SWAP5 SUB 0xD9 0xD5 0x1E 0xEA SWAP1 SIGNEXTEND 0xC2 0xA9 0xBC 0xAF CALL 0xBA PUSH5 0x736F6C6343 STOP ADDMOD SLT STOP CALLER "
				},
				"gasEstimates": {
					"creation": {
						"codeDepositCost": "1209800",
						"executionCost": "infinite",
						"totalCost": "infinite"
					},
					"external": {
						"allowance(address,address)": "infinite",
						"approve(address,uint256)": "infinite",
						"balanceOf(address)": "2876",
						"decimals()": "2574",
						"decreaseAllowance(address,uint256)": "infinite",
						"increaseAllowance(address,uint256)": "infinite",
						"maxSupply()": "2531",
						"name()": "infinite",
						"symbol()": "infinite",
						"totalSupply()": "2488",
						"transfer(address,uint256)": "infinite",
						"transferFrom(address,address,uint256)": "infinite"
					},
					"internal": {
						"burn(address,uint256)": "infinite",
						"mint(address,uint256)": "infinite"
					}
				},
				"methodIdentifiers": {
					"allowance(address,address)": "dd62ed3e",
					"approve(address,uint256)": "095ea7b3",
					"balanceOf(address)": "70a08231",
					"decimals()": "313ce567",
					"decreaseAllowance(address,uint256)": "a457c2d7",
					"increaseAllowance(address,uint256)": "39509351",
					"maxSupply()": "d5abeb01",
					"name()": "06fdde03",
					"symbol()": "95d89b41",
					"totalSupply()": "18160ddd",
					"transfer(address,uint256)": "a9059cbb",
					"transferFrom(address,address,uint256)": "23b872dd"
				}
			},
			"storageLayout": {
				"storage": [
					{
						"astId": 19,
						"contract": "smart_contracts/contracts/token/Token.sol:Token",
						"label": "settings",
						"offset": 0,
						"slot": "0",
						"type": "t_struct(Settings)16_storage"
					},
					{
						"astId": 33,
						"contract": "smart_contracts/contracts/token/Token.sol:Token",
						"label": "meta",
						"offset": 0,
						"slot": "1",
						"type": "t_struct(Meta)30_storage"
					},
					{
						"astId": 37,
						"contract": "smart_contracts/contracts/token/Token.sol:Token",
						"label": "balance",
						"offset": 0,
						"slot": "6",
						"type": "t_mapping(t_address,t_uint256)"
					},
					{
						"astId": 43,
						"contract": "smart_contracts/contracts/token/Token.sol:Token",
						"label": "allowed",
						"offset": 0,
						"slot": "7",
						"type": "t_mapping(t_address,t_mapping(t_address,t_uint256))"
					}
				],
				"types": {
					"t_address": {
						"encoding": "inplace",
						"label": "address",
						"numberOfBytes": "20"
					},
					"t_mapping(t_address,t_mapping(t_address,t_uint256))": {
						"encoding": "mapping",
						"key": "t_address",
						"label": "mapping(address => mapping(address => uint256))",
						"numberOfBytes": "32",
						"value": "t_mapping(t_address,t_uint256)"
					},
					"t_mapping(t_address,t_uint256)": {
						"encoding": "mapping",
						"key": "t_address",
						"label": "mapping(address => uint256)",
						"numberOfBytes": "32",
						"value": "t_uint256"
					},
					"t_string_storage": {
						"encoding": "bytes",
						"label": "string",
						"numberOfBytes": "32"
					},
					"t_struct(Meta)30_storage": {
						"encoding": "inplace",
						"label": "struct TokenState.Meta",
						"members": [
							{
								"astId": 21,
								"contract": "smart_contracts/contracts/token/Token.sol:Token",
								"label": "name",
								"offset": 0,
								"slot": "0",
								"type": "t_string_storage"
							},
							{
								"astId": 23,
								"contract": "smart_contracts/contracts/token/Token.sol:Token",
								"label": "symbol",
								"offset": 0,
								"slot": "1",
								"type": "t_string_storage"
							},
							{
								"astId": 25,
								"contract": "smart_contracts/contracts/token/Token.sol:Token",
								"label": "decimals",
								"offset": 0,
								"slot": "2",
								"type": "t_uint8"
							},
							{
								"astId": 27,
								"contract": "smart_contracts/contracts/token/Token.sol:Token",
								"label": "totalSupply",
								"offset": 0,
								"slot": "3",
								"type": "t_uint256"
							},
							{
								"astId": 29,
								"contract": "smart_contracts/contracts/token/Token.sol:Token",
								"label": "maxSupply",
								"offset": 0,
								"slot": "4",
								"type": "t_uint256"
							}
						],
						"numberOfBytes": "160"
					},
					"t_struct(Settings)16_storage": {
						"encoding": "inplace",
						"label": "struct TokenState.Settings",
						"members": [
							{
								"astId": 15,
								"contract": "smart_contracts/contracts/token/Token.sol:Token",
								"label": "percentTransferBurn",
								"offset": 0,
								"slot": "0",
								"type": "t_uint256"
							}
						],
						"numberOfBytes": "32"
					},
					"t_uint256": {
						"encoding": "inplace",
						"label": "uint256",
						"numberOfBytes": "32"
					},
					"t_uint8": {
						"encoding": "inplace",
						"label": "uint8",
						"numberOfBytes": "1"
					}
				}
			},
			"userdoc": {
				"kind": "user",
				"methods": {},
				"version": 1
			}
		}
	}
}