{
	"smart_contracts/contracts/token/State.sol": {
		"State": {
			"abi": [
				{
					"inputs": [
						{
							"internalType": "address",
							"name": "",
							"type": "address"
						},
						{
							"internalType": "uint256",
							"name": "",
							"type": "uint256"
						}
					],
					"name": "stakes",
					"outputs": [
						{
							"internalType": "uint256",
							"name": "amount",
							"type": "uint256"
						},
						{
							"internalType": "uint256",
							"name": "startTime",
							"type": "uint256"
						},
						{
							"internalType": "uint256",
							"name": "endTime",
							"type": "uint256"
						},
						{
							"internalType": "uint256",
							"name": "duration",
							"type": "uint256"
						}
					],
					"stateMutability": "view",
					"type": "function"
				}
			],
			"devdoc": {
				"kind": "dev",
				"methods": {},
				"version": 1
			},
			"evm": {
				"assembly": "    /* \"smart_contracts/contracts/token/State.sol\":111:1512  contract State {... */\n  mstore(0x40, 0x80)\n  callvalue\n  dup1\n  iszero\n  tag_1\n  jumpi\n  0x00\n  dup1\n  revert\ntag_1:\n  pop\n  dataSize(sub_0)\n  dup1\n  dataOffset(sub_0)\n  0x00\n  codecopy\n  0x00\n  return\nstop\n\nsub_0: assembly {\n        /* \"smart_contracts/contracts/token/State.sol\":111:1512  contract State {... */\n      mstore(0x40, 0x80)\n      callvalue\n      dup1\n      iszero\n      tag_1\n      jumpi\n      0x00\n      dup1\n      revert\n    tag_1:\n      pop\n      jumpi(tag_2, lt(calldatasize, 0x04))\n      shr(0xe0, calldataload(0x00))\n      dup1\n      0x584b62a1\n      eq\n      tag_3\n      jumpi\n    tag_2:\n      0x00\n      dup1\n      revert\n        /* \"smart_contracts/contracts/token/State.sol\":704:745  mapping(address => Stake[]) public stakes */\n    tag_3:\n      tag_4\n      0x04\n      dup1\n      calldatasize\n      sub\n      dup2\n      add\n      swap1\n      tag_5\n      swap2\n      swap1\n      tag_6\n      jump\t// in\n    tag_5:\n      tag_7\n      jump\t// in\n    tag_4:\n      mload(0x40)\n      tag_8\n      swap5\n      swap4\n      swap3\n      swap2\n      swap1\n      tag_9\n      jump\t// in\n    tag_8:\n      mload(0x40)\n      dup1\n      swap2\n      sub\n      swap1\n      return\n    tag_7:\n      mstore(0x20, 0x0e)\n      dup2\n      0x00\n      mstore\n      keccak256(0x00, 0x40)\n      dup2\n      dup2\n      sload\n      dup2\n      lt\n      tag_10\n      jumpi\n      0x00\n      dup1\n      revert\n    tag_10:\n      swap1\n      0x00\n      mstore\n      keccak256(0x00, 0x20)\n      swap1\n      0x04\n      mul\n      add\n      0x00\n      swap2\n      pop\n      swap2\n      pop\n      pop\n      dup1\n      0x00\n      add\n      sload\n      swap1\n      dup1\n      0x01\n      add\n      sload\n      swap1\n      dup1\n      0x02\n      add\n      sload\n      swap1\n      dup1\n      0x03\n      add\n      sload\n      swap1\n      pop\n      dup5\n      jump\t// out\n        /* \"#utility.yul\":88:205   */\n    tag_13:\n        /* \"#utility.yul\":197:198   */\n      0x00\n        /* \"#utility.yul\":194:195   */\n      dup1\n        /* \"#utility.yul\":187:199   */\n      revert\n        /* \"#utility.yul\":334:460   */\n    tag_15:\n        /* \"#utility.yul\":371:378   */\n      0x00\n        /* \"#utility.yul\":411:453   */\n      0xffffffffffffffffffffffffffffffffffffffff\n        /* \"#utility.yul\":404:409   */\n      dup3\n        /* \"#utility.yul\":400:454   */\n      and\n        /* \"#utility.yul\":389:454   */\n      swap1\n      pop\n        /* \"#utility.yul\":334:460   */\n      swap2\n      swap1\n      pop\n      jump\t// out\n        /* \"#utility.yul\":466:562   */\n    tag_16:\n        /* \"#utility.yul\":503:510   */\n      0x00\n        /* \"#utility.yul\":532:556   */\n      tag_29\n        /* \"#utility.yul\":550:555   */\n      dup3\n        /* \"#utility.yul\":532:556   */\n      tag_15\n      jump\t// in\n    tag_29:\n        /* \"#utility.yul\":521:556   */\n      swap1\n      pop\n        /* \"#utility.yul\":466:562   */\n      swap2\n      swap1\n      pop\n      jump\t// out\n        /* \"#utility.yul\":568:690   */\n    tag_17:\n        /* \"#utility.yul\":641:665   */\n      tag_31\n        /* \"#utility.yul\":659:664   */\n      dup2\n        /* \"#utility.yul\":641:665   */\n      tag_16\n      jump\t// in\n    tag_31:\n        /* \"#utility.yul\":634:639   */\n      dup2\n        /* \"#utility.yul\":631:666   */\n      eq\n        /* \"#utility.yul\":621:684   */\n      tag_32\n      jumpi\n        /* \"#utility.yul\":680:681   */\n      0x00\n        /* \"#utility.yul\":677:678   */\n      dup1\n        /* \"#utility.yul\":670:682   */\n      revert\n        /* \"#utility.yul\":621:684   */\n    tag_32:\n        /* \"#utility.yul\":568:690   */\n      pop\n      jump\t// out\n        /* \"#utility.yul\":696:835   */\n    tag_18:\n        /* \"#utility.yul\":742:747   */\n      0x00\n        /* \"#utility.yul\":780:786   */\n      dup2\n        /* \"#utility.yul\":767:787   */\n      calldataload\n        /* \"#utility.yul\":758:787   */\n      swap1\n      pop\n        /* \"#utility.yul\":796:829   */\n      tag_34\n        /* \"#utility.yul\":823:828   */\n      dup2\n        /* \"#utility.yul\":796:829   */\n      tag_17\n      jump\t// in\n    tag_34:\n        /* \"#utility.yul\":696:835   */\n      swap3\n      swap2\n      pop\n      pop\n      jump\t// out\n        /* \"#utility.yul\":841:918   */\n    tag_19:\n        /* \"#utility.yul\":878:885   */\n      0x00\n        /* \"#utility.yul\":907:912   */\n      dup2\n        /* \"#utility.yul\":896:912   */\n      swap1\n      pop\n        /* \"#utility.yul\":841:918   */\n      swap2\n      swap1\n      pop\n      jump\t// out\n        /* \"#utility.yul\":924:1046   */\n    tag_20:\n        /* \"#utility.yul\":997:1021   */\n      tag_37\n        /* \"#utility.yul\":1015:1020   */\n      dup2\n        /* \"#utility.yul\":997:1021   */\n      tag_19\n      jump\t// in\n    tag_37:\n        /* \"#utility.yul\":990:995   */\n      dup2\n        /* \"#utility.yul\":987:1022   */\n      eq\n        /* \"#utility.yul\":977:1040   */\n      tag_38\n      jumpi\n        /* \"#utility.yul\":1036:1037   */\n      0x00\n        /* \"#utility.yul\":1033:1034   */\n      dup1\n        /* \"#utility.yul\":1026:1038   */\n      revert\n        /* \"#utility.yul\":977:1040   */\n    tag_38:\n        /* \"#utility.yul\":924:1046   */\n      pop\n      jump\t// out\n        /* \"#utility.yul\":1052:1191   */\n    tag_21:\n        /* \"#utility.yul\":1098:1103   */\n      0x00\n        /* \"#utility.yul\":1136:1142   */\n      dup2\n        /* \"#utility.yul\":1123:1143   */\n      calldataload\n        /* \"#utility.yul\":1114:1143   */\n      swap1\n      pop\n        /* \"#utility.yul\":1152:1185   */\n      tag_40\n        /* \"#utility.yul\":1179:1184   */\n      dup2\n        /* \"#utility.yul\":1152:1185   */\n      tag_20\n      jump\t// in\n    tag_40:\n        /* \"#utility.yul\":1052:1191   */\n      swap3\n      swap2\n      pop\n      pop\n      jump\t// out\n        /* \"#utility.yul\":1197:1671   */\n    tag_6:\n        /* \"#utility.yul\":1265:1271   */\n      0x00\n        /* \"#utility.yul\":1273:1279   */\n      dup1\n        /* \"#utility.yul\":1322:1324   */\n      0x40\n        /* \"#utility.yul\":1310:1319   */\n      dup4\n        /* \"#utility.yul\":1301:1308   */\n      dup6\n        /* \"#utility.yul\":1297:1320   */\n      sub\n        /* \"#utility.yul\":1293:1325   */\n      slt\n        /* \"#utility.yul\":1290:1409   */\n      iszero\n      tag_42\n      jumpi\n        /* \"#utility.yul\":1328:1407   */\n      tag_43\n      tag_13\n      jump\t// in\n    tag_43:\n        /* \"#utility.yul\":1290:1409   */\n    tag_42:\n        /* \"#utility.yul\":1448:1449   */\n      0x00\n        /* \"#utility.yul\":1473:1526   */\n      tag_44\n        /* \"#utility.yul\":1518:1525   */\n      dup6\n        /* \"#utility.yul\":1509:1515   */\n      dup3\n        /* \"#utility.yul\":1498:1507   */\n      dup7\n        /* \"#utility.yul\":1494:1516   */\n      add\n        /* \"#utility.yul\":1473:1526   */\n      tag_18\n      jump\t// in\n    tag_44:\n        /* \"#utility.yul\":1463:1526   */\n      swap3\n      pop\n        /* \"#utility.yul\":1419:1536   */\n      pop\n        /* \"#utility.yul\":1575:1577   */\n      0x20\n        /* \"#utility.yul\":1601:1654   */\n      tag_45\n        /* \"#utility.yul\":1646:1653   */\n      dup6\n        /* \"#utility.yul\":1637:1643   */\n      dup3\n        /* \"#utility.yul\":1626:1635   */\n      dup7\n        /* \"#utility.yul\":1622:1644   */\n      add\n        /* \"#utility.yul\":1601:1654   */\n      tag_21\n      jump\t// in\n    tag_45:\n        /* \"#utility.yul\":1591:1654   */\n      swap2\n      pop\n        /* \"#utility.yul\":1546:1664   */\n      pop\n        /* \"#utility.yul\":1197:1671   */\n      swap3\n      pop\n      swap3\n      swap1\n      pop\n      jump\t// out\n        /* \"#utility.yul\":1677:1795   */\n    tag_22:\n        /* \"#utility.yul\":1764:1788   */\n      tag_47\n        /* \"#utility.yul\":1782:1787   */\n      dup2\n        /* \"#utility.yul\":1764:1788   */\n      tag_19\n      jump\t// in\n    tag_47:\n        /* \"#utility.yul\":1759:1762   */\n      dup3\n        /* \"#utility.yul\":1752:1789   */\n      mstore\n        /* \"#utility.yul\":1677:1795   */\n      pop\n      pop\n      jump\t// out\n        /* \"#utility.yul\":1801:2354   */\n    tag_9:\n        /* \"#utility.yul\":1978:1982   */\n      0x00\n        /* \"#utility.yul\":2016:2019   */\n      0x80\n        /* \"#utility.yul\":2005:2014   */\n      dup3\n        /* \"#utility.yul\":2001:2020   */\n      add\n        /* \"#utility.yul\":1993:2020   */\n      swap1\n      pop\n        /* \"#utility.yul\":2030:2101   */\n      tag_49\n        /* \"#utility.yul\":2098:2099   */\n      0x00\n        /* \"#utility.yul\":2087:2096   */\n      dup4\n        /* \"#utility.yul\":2083:2100   */\n      add\n        /* \"#utility.yul\":2074:2080   */\n      dup8\n        /* \"#utility.yul\":2030:2101   */\n      tag_22\n      jump\t// in\n    tag_49:\n        /* \"#utility.yul\":2111:2183   */\n      tag_50\n        /* \"#utility.yul\":2179:2181   */\n      0x20\n        /* \"#utility.yul\":2168:2177   */\n      dup4\n        /* \"#utility.yul\":2164:2182   */\n      add\n        /* \"#utility.yul\":2155:2161   */\n      dup7\n        /* \"#utility.yul\":2111:2183   */\n      tag_22\n      jump\t// in\n    tag_50:\n        /* \"#utility.yul\":2193:2265   */\n      tag_51\n        /* \"#utility.yul\":2261:2263   */\n      0x40\n        /* \"#utility.yul\":2250:2259   */\n      dup4\n        /* \"#utility.yul\":2246:2264   */\n      add\n        /* \"#utility.yul\":2237:2243   */\n      dup6\n        /* \"#utility.yul\":2193:2265   */\n      tag_22\n      jump\t// in\n    tag_51:\n        /* \"#utility.yul\":2275:2347   */\n      tag_52\n        /* \"#utility.yul\":2343:2345   */\n      0x60\n        /* \"#utility.yul\":2332:2341   */\n      dup4\n        /* \"#utility.yul\":2328:2346   */\n      add\n        /* \"#utility.yul\":2319:2325   */\n      dup5\n        /* \"#utility.yul\":2275:2347   */\n      tag_22\n      jump\t// in\n    tag_52:\n        /* \"#utility.yul\":1801:2354   */\n      swap6\n      swap5\n      pop\n      pop\n      pop\n      pop\n      pop\n      jump\t// out\n\n    auxdata: 0xa26469706673582212203b0a4214939abd7bdaab658e87cba41d3a5085d31cdc30a024bce6ef46c721ca64736f6c63430008120033\n}\n",
				"bytecode": {
					"linkReferences": {},
					"object": "608060405234801561001057600080fd5b50610213806100206000396000f3fe608060405234801561001057600080fd5b506004361061002b5760003560e01c8063584b62a114610030575b600080fd5b61004a60048036038101906100459190610149565b610063565b60405161005a9493929190610198565b60405180910390f35b600e602052816000526040600020818154811061007f57600080fd5b9060005260206000209060040201600091509150508060000154908060010154908060020154908060030154905084565b600080fd5b600073ffffffffffffffffffffffffffffffffffffffff82169050919050565b60006100e0826100b5565b9050919050565b6100f0816100d5565b81146100fb57600080fd5b50565b60008135905061010d816100e7565b92915050565b6000819050919050565b61012681610113565b811461013157600080fd5b50565b6000813590506101438161011d565b92915050565b600080604083850312156101605761015f6100b0565b5b600061016e858286016100fe565b925050602061017f85828601610134565b9150509250929050565b61019281610113565b82525050565b60006080820190506101ad6000830187610189565b6101ba6020830186610189565b6101c76040830185610189565b6101d46060830184610189565b9594505050505056fea26469706673582212203b0a4214939abd7bdaab658e87cba41d3a5085d31cdc30a024bce6ef46c721ca64736f6c63430008120033",
					"opcodes": "PUSH1 0x80 PUSH1 0x40 MSTORE CALLVALUE DUP1 ISZERO PUSH2 0x10 JUMPI PUSH1 0x0 DUP1 REVERT JUMPDEST POP PUSH2 0x213 DUP1 PUSH2 0x20 PUSH1 0x0 CODECOPY PUSH1 0x0 RETURN INVALID PUSH1 0x80 PUSH1 0x40 MSTORE CALLVALUE DUP1 ISZERO PUSH2 0x10 JUMPI PUSH1 0x0 DUP1 REVERT JUMPDEST POP PUSH1 0x4 CALLDATASIZE LT PUSH2 0x2B JUMPI PUSH1 0x0 CALLDATALOAD PUSH1 0xE0 SHR DUP1 PUSH4 0x584B62A1 EQ PUSH2 0x30 JUMPI JUMPDEST PUSH1 0x0 DUP1 REVERT JUMPDEST PUSH2 0x4A PUSH1 0x4 DUP1 CALLDATASIZE SUB DUP2 ADD SWAP1 PUSH2 0x45 SWAP2 SWAP1 PUSH2 0x149 JUMP JUMPDEST PUSH2 0x63 JUMP JUMPDEST PUSH1 0x40 MLOAD PUSH2 0x5A SWAP5 SWAP4 SWAP3 SWAP2 SWAP1 PUSH2 0x198 JUMP JUMPDEST PUSH1 0x40 MLOAD DUP1 SWAP2 SUB SWAP1 RETURN JUMPDEST PUSH1 0xE PUSH1 0x20 MSTORE DUP2 PUSH1 0x0 MSTORE PUSH1 0x40 PUSH1 0x0 KECCAK256 DUP2 DUP2 SLOAD DUP2 LT PUSH2 0x7F JUMPI PUSH1 0x0 DUP1 REVERT JUMPDEST SWAP1 PUSH1 0x0 MSTORE PUSH1 0x20 PUSH1 0x0 KECCAK256 SWAP1 PUSH1 0x4 MUL ADD PUSH1 0x0 SWAP2 POP SWAP2 POP POP DUP1 PUSH1 0x0 ADD SLOAD SWAP1 DUP1 PUSH1 0x1 ADD SLOAD SWAP1 DUP1 PUSH1 0x2 ADD SLOAD SWAP1 DUP1 PUSH1 0x3 ADD SLOAD SWAP1 POP DUP5 JUMP JUMPDEST PUSH1 0x0 DUP1 REVERT JUMPDEST PUSH1 0x0 PUSH20 0xFFFFFFFFFFFFFFFFFFFFFFFFFFFFFFFFFFFFFFFF DUP3 AND SWAP1 POP SWAP2 SWAP1 POP JUMP JUMPDEST PUSH1 0x0 PUSH2 0xE0 DUP3 PUSH2 0xB5 JUMP JUMPDEST SWAP1 POP SWAP2 SWAP1 POP JUMP JUMPDEST PUSH2 0xF0 DUP2 PUSH2 0xD5 JUMP JUMPDEST DUP2 EQ PUSH2 0xFB JUMPI PUSH1 0x0 DUP1 REVERT JUMPDEST POP JUMP JUMPDEST PUSH1 0x0 DUP2 CALLDATALOAD SWAP1 POP PUSH2 0x10D DUP2 PUSH2 0xE7 JUMP JUMPDEST SWAP3 SWAP2 POP POP JUMP JUMPDEST PUSH1 0x0 DUP2 SWAP1 POP SWAP2 SWAP1 POP JUMP JUMPDEST PUSH2 0x126 DUP2 PUSH2 0x113 JUMP JUMPDEST DUP2 EQ PUSH2 0x131 JUMPI PUSH1 0x0 DUP1 REVERT JUMPDEST POP JUMP JUMPDEST PUSH1 0x0 DUP2 CALLDATALOAD SWAP1 POP PUSH2 0x143 DUP2 PUSH2 0x11D JUMP JUMPDEST SWAP3 SWAP2 POP POP JUMP JUMPDEST PUSH1 0x0 DUP1 PUSH1 0x40 DUP4 DUP6 SUB SLT ISZERO PUSH2 0x160 JUMPI PUSH2 0x15F PUSH2 0xB0 JUMP JUMPDEST JUMPDEST PUSH1 0x0 PUSH2 0x16E DUP6 DUP3 DUP7 ADD PUSH2 0xFE JUMP JUMPDEST SWAP3 POP POP PUSH1 0x20 PUSH2 0x17F DUP6 DUP3 DUP7 ADD PUSH2 0x134 JUMP JUMPDEST SWAP2 POP POP SWAP3 POP SWAP3 SWAP1 POP JUMP JUMPDEST PUSH2 0x192 DUP2 PUSH2 0x113 JUMP JUMPDEST DUP3 MSTORE POP POP JUMP JUMPDEST PUSH1 0x0 PUSH1 0x80 DUP3 ADD SWAP1 POP PUSH2 0x1AD PUSH1 0x0 DUP4 ADD DUP8 PUSH2 0x189 JUMP JUMPDEST PUSH2 0x1BA PUSH1 0x20 DUP4 ADD DUP7 PUSH2 0x189 JUMP JUMPDEST PUSH2 0x1C7 PUSH1 0x40 DUP4 ADD DUP6 PUSH2 0x189 JUMP JUMPDEST PUSH2 0x1D4 PUSH1 0x60 DUP4 ADD DUP5 PUSH2 0x189 JUMP JUMPDEST SWAP6 SWAP5 POP POP POP POP POP JUMP INVALID LOG2 PUSH5 0x6970667358 0x22 SLT KECCAK256 EXTCODESIZE EXP TIMESTAMP EQ SWAP4 SWAP11 0xBD PUSH28 0xDAAB658E87CBA41D3A5085D31CDC30A024BCE6EF46C721CA64736F6C PUSH4 0x43000812 STOP CALLER "
				},
				"gasEstimates": {
					"creation": {
						"codeDepositCost": "106200",
						"executionCost": "153",
						"totalCost": "106353"
					},
					"external": {
						"stakes(address,uint256)": "infinite"
					}
				},
				"methodIdentifiers": {
					"stakes(address,uint256)": "584b62a1"
				}
			},
			"storageLayout": {
				"storage": [
					{
						"astId": 3,
						"contract": "smart_contracts/contracts/token/State.sol:State",
						"label": "name",
						"offset": 0,
						"slot": "0",
						"type": "t_string_storage"
					},
					{
						"astId": 5,
						"contract": "smart_contracts/contracts/token/State.sol:State",
						"label": "symbol",
						"offset": 0,
						"slot": "1",
						"type": "t_string_storage"
					},
					{
						"astId": 7,
						"contract": "smart_contracts/contracts/token/State.sol:State",
						"label": "decimals",
						"offset": 0,
						"slot": "2",
						"type": "t_uint8"
					},
					{
						"astId": 9,
						"contract": "smart_contracts/contracts/token/State.sol:State",
						"label": "maxSupply",
						"offset": 0,
						"slot": "3",
						"type": "t_uint256"
					},
					{
						"astId": 11,
						"contract": "smart_contracts/contracts/token/State.sol:State",
						"label": "totalSupply",
						"offset": 0,
						"slot": "4",
						"type": "t_uint256"
					},
					{
						"astId": 13,
						"contract": "smart_contracts/contracts/token/State.sol:State",
						"label": "totalVested",
						"offset": 0,
						"slot": "5",
						"type": "t_uint256"
					},
					{
						"astId": 15,
						"contract": "smart_contracts/contracts/token/State.sol:State",
						"label": "totalStaked",
						"offset": 0,
						"slot": "6",
						"type": "t_uint256"
					},
					{
						"astId": 17,
						"contract": "smart_contracts/contracts/token/State.sol:State",
						"label": "totalVotes",
						"offset": 0,
						"slot": "7",
						"type": "t_uint256"
					},
					{
						"astId": 21,
						"contract": "smart_contracts/contracts/token/State.sol:State",
						"label": "balances",
						"offset": 0,
						"slot": "8",
						"type": "t_mapping(t_address,t_uint256)"
					},
					{
						"astId": 25,
						"contract": "smart_contracts/contracts/token/State.sol:State",
						"label": "vested",
						"offset": 0,
						"slot": "9",
						"type": "t_mapping(t_address,t_uint256)"
					},
					{
						"astId": 29,
						"contract": "smart_contracts/contracts/token/State.sol:State",
						"label": "staked",
						"offset": 0,
						"slot": "10",
						"type": "t_mapping(t_address,t_uint256)"
					},
					{
						"astId": 33,
						"contract": "smart_contracts/contracts/token/State.sol:State",
						"label": "votes",
						"offset": 0,
						"slot": "11",
						"type": "t_mapping(t_address,t_uint256)"
					},
					{
						"astId": 37,
						"contract": "smart_contracts/contracts/token/State.sol:State",
						"label": "isAdmin",
						"offset": 0,
						"slot": "12",
						"type": "t_mapping(t_address,t_bool)"
					},
					{
						"astId": 43,
						"contract": "smart_contracts/contracts/token/State.sol:State",
						"label": "allowed",
						"offset": 0,
						"slot": "13",
						"type": "t_mapping(t_address,t_mapping(t_address,t_uint256))"
					},
					{
						"astId": 49,
						"contract": "smart_contracts/contracts/token/State.sol:State",
						"label": "stakes",
						"offset": 0,
						"slot": "14",
						"type": "t_mapping(t_address,t_array(t_struct(Stake)58_storage)dyn_storage)"
					},
					{
						"astId": 60,
						"contract": "smart_contracts/contracts/token/State.sol:State",
						"label": "isTransferable",
						"offset": 0,
						"slot": "15",
						"type": "t_bool"
					},
					{
						"astId": 62,
						"contract": "smart_contracts/contracts/token/State.sol:State",
						"label": "isPaused",
						"offset": 1,
						"slot": "15",
						"type": "t_bool"
					},
					{
						"astId": 64,
						"contract": "smart_contracts/contracts/token/State.sol:State",
						"label": "isMintable",
						"offset": 2,
						"slot": "15",
						"type": "t_bool"
					},
					{
						"astId": 66,
						"contract": "smart_contracts/contracts/token/State.sol:State",
						"label": "isBurnable",
						"offset": 3,
						"slot": "15",
						"type": "t_bool"
					},
					{
						"astId": 68,
						"contract": "smart_contracts/contracts/token/State.sol:State",
						"label": "conduitIsPaused",
						"offset": 4,
						"slot": "15",
						"type": "t_bool"
					},
					{
						"astId": 70,
						"contract": "smart_contracts/contracts/token/State.sol:State",
						"label": "vaultIsPaused",
						"offset": 5,
						"slot": "15",
						"type": "t_bool"
					},
					{
						"astId": 72,
						"contract": "smart_contracts/contracts/token/State.sol:State",
						"label": "requiredQuorum",
						"offset": 0,
						"slot": "16",
						"type": "t_uint256"
					},
					{
						"astId": 74,
						"contract": "smart_contracts/contracts/token/State.sol:State",
						"label": "votingDelay",
						"offset": 0,
						"slot": "17",
						"type": "t_uint256"
					},
					{
						"astId": 76,
						"contract": "smart_contracts/contracts/token/State.sol:State",
						"label": "votingPeriod",
						"offset": 0,
						"slot": "18",
						"type": "t_uint256"
					},
					{
						"astId": 82,
						"contract": "smart_contracts/contracts/token/State.sol:State",
						"label": "schedules",
						"offset": 0,
						"slot": "19",
						"type": "t_mapping(t_address,t_array(t_struct(VestingSchedule)91_storage)dyn_storage)"
					},
					{
						"astId": 95,
						"contract": "smart_contracts/contracts/token/State.sol:State",
						"label": "tokens",
						"offset": 0,
						"slot": "20",
						"type": "t_mapping(t_string_memory_ptr,t_address)"
					}
				],
				"types": {
					"t_address": {
						"encoding": "inplace",
						"label": "address",
						"numberOfBytes": "20"
					},
					"t_array(t_struct(Stake)58_storage)dyn_storage": {
						"base": "t_struct(Stake)58_storage",
						"encoding": "dynamic_array",
						"label": "struct State.Stake[]",
						"numberOfBytes": "32"
					},
					"t_array(t_struct(VestingSchedule)91_storage)dyn_storage": {
						"base": "t_struct(VestingSchedule)91_storage",
						"encoding": "dynamic_array",
						"label": "struct State.VestingSchedule[]",
						"numberOfBytes": "32"
					},
					"t_bool": {
						"encoding": "inplace",
						"label": "bool",
						"numberOfBytes": "1"
					},
					"t_mapping(t_address,t_array(t_struct(Stake)58_storage)dyn_storage)": {
						"encoding": "mapping",
						"key": "t_address",
						"label": "mapping(address => struct State.Stake[])",
						"numberOfBytes": "32",
						"value": "t_array(t_struct(Stake)58_storage)dyn_storage"
					},
					"t_mapping(t_address,t_array(t_struct(VestingSchedule)91_storage)dyn_storage)": {
						"encoding": "mapping",
						"key": "t_address",
						"label": "mapping(address => struct State.VestingSchedule[])",
						"numberOfBytes": "32",
						"value": "t_array(t_struct(VestingSchedule)91_storage)dyn_storage"
					},
					"t_mapping(t_address,t_bool)": {
						"encoding": "mapping",
						"key": "t_address",
						"label": "mapping(address => bool)",
						"numberOfBytes": "32",
						"value": "t_bool"
					},
					"t_mapping(t_address,t_mapping(t_address,t_uint256))": {
						"encoding": "mapping",
						"key": "t_address",
						"label": "mapping(address => mapping(address => uint256))",
						"numberOfBytes": "32",
						"value": "t_mapping(t_address,t_uint256)"
					},
					"t_mapping(t_address,t_uint256)": {
						"encoding": "mapping",
						"key": "t_address",
						"label": "mapping(address => uint256)",
						"numberOfBytes": "32",
						"value": "t_uint256"
					},
					"t_mapping(t_string_memory_ptr,t_address)": {
						"encoding": "mapping",
						"key": "t_string_memory_ptr",
						"label": "mapping(string => address)",
						"numberOfBytes": "32",
						"value": "t_address"
					},
					"t_string_memory_ptr": {
						"encoding": "bytes",
						"label": "string",
						"numberOfBytes": "32"
					},
					"t_string_storage": {
						"encoding": "bytes",
						"label": "string",
						"numberOfBytes": "32"
					},
					"t_struct(Stake)58_storage": {
						"encoding": "inplace",
						"label": "struct State.Stake",
						"members": [
							{
								"astId": 51,
								"contract": "smart_contracts/contracts/token/State.sol:State",
								"label": "amount",
								"offset": 0,
								"slot": "0",
								"type": "t_uint256"
							},
							{
								"astId": 53,
								"contract": "smart_contracts/contracts/token/State.sol:State",
								"label": "startTime",
								"offset": 0,
								"slot": "1",
								"type": "t_uint256"
							},
							{
								"astId": 55,
								"contract": "smart_contracts/contracts/token/State.sol:State",
								"label": "endTime",
								"offset": 0,
								"slot": "2",
								"type": "t_uint256"
							},
							{
								"astId": 57,
								"contract": "smart_contracts/contracts/token/State.sol:State",
								"label": "duration",
								"offset": 0,
								"slot": "3",
								"type": "t_uint256"
							}
						],
						"numberOfBytes": "128"
					},
					"t_struct(VestingSchedule)91_storage": {
						"encoding": "inplace",
						"label": "struct State.VestingSchedule",
						"members": [
							{
								"astId": 84,
								"contract": "smart_contracts/contracts/token/State.sol:State",
								"label": "amount",
								"offset": 0,
								"slot": "0",
								"type": "t_uint256"
							},
							{
								"astId": 86,
								"contract": "smart_contracts/contracts/token/State.sol:State",
								"label": "start",
								"offset": 0,
								"slot": "1",
								"type": "t_uint256"
							},
							{
								"astId": 88,
								"contract": "smart_contracts/contracts/token/State.sol:State",
								"label": "end",
								"offset": 0,
								"slot": "2",
								"type": "t_uint256"
							},
							{
								"astId": 90,
								"contract": "smart_contracts/contracts/token/State.sol:State",
								"label": "released",
								"offset": 0,
								"slot": "3",
								"type": "t_uint256"
							}
						],
						"numberOfBytes": "128"
					},
					"t_uint256": {
						"encoding": "inplace",
						"label": "uint256",
						"numberOfBytes": "32"
					},
					"t_uint8": {
						"encoding": "inplace",
						"label": "uint8",
						"numberOfBytes": "1"
					}
				}
			},
			"userdoc": {
				"kind": "user",
				"methods": {},
				"version": 1
			}
		}
	}
}