{
	"smart_contracts/contracts/token/Token.sol": {
		"Token": {
			"abi": [
				{
					"inputs": [],
					"stateMutability": "nonpayable",
					"type": "constructor"
				},
				{
					"anonymous": false,
					"inputs": [
						{
							"indexed": true,
							"internalType": "address",
							"name": "_owner",
							"type": "address"
						},
						{
							"indexed": true,
							"internalType": "address",
							"name": "_spender",
							"type": "address"
						},
						{
							"indexed": false,
							"internalType": "uint256",
							"name": "_value",
							"type": "uint256"
						}
					],
					"name": "Approval",
					"type": "event"
				},
				{
					"anonymous": false,
					"inputs": [
						{
							"indexed": true,
							"internalType": "address",
							"name": "_from",
							"type": "address"
						},
						{
							"indexed": true,
							"internalType": "address",
							"name": "_to",
							"type": "address"
						},
						{
							"indexed": false,
							"internalType": "uint256",
							"name": "_value",
							"type": "uint256"
						}
					],
					"name": "Transfer",
					"type": "event"
				},
				{
					"inputs": [
						{
							"internalType": "address",
							"name": "_owner",
							"type": "address"
						},
						{
							"internalType": "address",
							"name": "_spender",
							"type": "address"
						}
					],
					"name": "allowance",
					"outputs": [
						{
							"internalType": "uint256",
							"name": "remaining",
							"type": "uint256"
						}
					],
					"stateMutability": "view",
					"type": "function"
				},
				{
					"inputs": [
						{
							"internalType": "address",
							"name": "_spender",
							"type": "address"
						},
						{
							"internalType": "uint256",
							"name": "_value",
							"type": "uint256"
						}
					],
					"name": "approve",
					"outputs": [
						{
							"internalType": "bool",
							"name": "success",
							"type": "bool"
						}
					],
					"stateMutability": "nonpayable",
					"type": "function"
				},
				{
					"inputs": [
						{
							"internalType": "address",
							"name": "_owner",
							"type": "address"
						}
					],
					"name": "balanceOf",
					"outputs": [
						{
							"internalType": "uint256",
							"name": "",
							"type": "uint256"
						}
					],
					"stateMutability": "view",
					"type": "function"
				},
				{
					"inputs": [],
					"name": "decimals",
					"outputs": [
						{
							"internalType": "uint8",
							"name": "",
							"type": "uint8"
						}
					],
					"stateMutability": "view",
					"type": "function"
				},
				{
					"inputs": [
						{
							"internalType": "address",
							"name": "_spender",
							"type": "address"
						},
						{
							"internalType": "uint256",
							"name": "_value",
							"type": "uint256"
						}
					],
					"name": "decreaseAllowance",
					"outputs": [
						{
							"internalType": "bool",
							"name": "",
							"type": "bool"
						}
					],
					"stateMutability": "nonpayable",
					"type": "function"
				},
				{
					"inputs": [
						{
							"internalType": "address",
							"name": "_spender",
							"type": "address"
						},
						{
							"internalType": "uint256",
							"name": "_value",
							"type": "uint256"
						}
					],
					"name": "increaseAllowance",
					"outputs": [
						{
							"internalType": "bool",
							"name": "",
							"type": "bool"
						}
					],
					"stateMutability": "nonpayable",
					"type": "function"
				},
				{
					"inputs": [],
					"name": "maxSupply",
					"outputs": [
						{
							"internalType": "uint256",
							"name": "",
							"type": "uint256"
						}
					],
					"stateMutability": "view",
					"type": "function"
				},
				{
					"inputs": [],
					"name": "name",
					"outputs": [
						{
							"internalType": "string",
							"name": "",
							"type": "string"
						}
					],
					"stateMutability": "view",
					"type": "function"
				},
				{
					"inputs": [],
					"name": "symbol",
					"outputs": [
						{
							"internalType": "string",
							"name": "",
							"type": "string"
						}
					],
					"stateMutability": "view",
					"type": "function"
				},
				{
					"inputs": [],
					"name": "totalSupply",
					"outputs": [
						{
							"internalType": "uint256",
							"name": "",
							"type": "uint256"
						}
					],
					"stateMutability": "view",
					"type": "function"
				},
				{
					"inputs": [
						{
							"internalType": "address",
							"name": "_to",
							"type": "address"
						},
						{
							"internalType": "uint256",
							"name": "_value",
							"type": "uint256"
						}
					],
					"name": "transfer",
					"outputs": [
						{
							"internalType": "bool",
							"name": "sucess",
							"type": "bool"
						}
					],
					"stateMutability": "nonpayable",
					"type": "function"
				},
				{
					"inputs": [
						{
							"internalType": "address",
							"name": "_from",
							"type": "address"
						},
						{
							"internalType": "address",
							"name": "_to",
							"type": "address"
						},
						{
							"internalType": "uint256",
							"name": "_value",
							"type": "uint256"
						}
					],
					"name": "transferFrom",
					"outputs": [
						{
							"internalType": "bool",
							"name": "",
							"type": "bool"
						}
					],
					"stateMutability": "nonpayable",
					"type": "function"
				}
			],
			"devdoc": {
				"kind": "dev",
				"methods": {},
				"version": 1
			},
			"evm": {
				"assembly": "    /* \"smart_contracts/contracts/token/Token.sol\":713:8111  contract Token is TokenState {... */\n  mstore(0x40, 0x80)\n    /* \"smart_contracts/contracts/token/Token.sol\":916:1436  constructor() {... */\n  callvalue\n  dup1\n  iszero\n  tag_1\n  jumpi\n  0x00\n  dup1\n  revert\ntag_1:\n  pop\n    /* \"smart_contracts/contracts/token/Token.sol\":940:966  meta.name = \"Dreamcatcher\" */\n  mload(0x40)\n  dup1\n  0x40\n  add\n  0x40\n  mstore\n  dup1\n  0x0c\n  dup2\n  mstore\n  0x20\n  add\n  0x447265616d636174636865720000000000000000000000000000000000000000\n  dup2\n  mstore\n  pop\n    /* \"smart_contracts/contracts/token/Token.sol\":940:944  meta */\n  0x02\n    /* \"smart_contracts/contracts/token/Token.sol\":940:949  meta.name */\n  0x00\n  add\n    /* \"smart_contracts/contracts/token/Token.sol\":940:966  meta.name = \"Dreamcatcher\" */\n  swap1\n  dup2\n  tag_4\n  swap2\n  swap1\n  tag_5\n  jump\t// in\ntag_4:\n  pop\n    /* \"smart_contracts/contracts/token/Token.sol\":976:997  meta.symbol = \"DREAM\" */\n  mload(0x40)\n  dup1\n  0x40\n  add\n  0x40\n  mstore\n  dup1\n  0x05\n  dup2\n  mstore\n  0x20\n  add\n  0x445245414d000000000000000000000000000000000000000000000000000000\n  dup2\n  mstore\n  pop\n    /* \"smart_contracts/contracts/token/Token.sol\":976:980  meta */\n  0x02\n    /* \"smart_contracts/contracts/token/Token.sol\":976:987  meta.symbol */\n  0x01\n  add\n    /* \"smart_contracts/contracts/token/Token.sol\":976:997  meta.symbol = \"DREAM\" */\n  swap1\n  dup2\n  tag_6\n  swap2\n  swap1\n  tag_5\n  jump\t// in\ntag_6:\n  pop\n    /* \"smart_contracts/contracts/token/Token.sol\":1023:1025  18 */\n  0x12\n    /* \"smart_contracts/contracts/token/Token.sol\":1007:1011  meta */\n  0x02\n    /* \"smart_contracts/contracts/token/Token.sol\":1007:1020  meta.decimals */\n  dup1\n  add\n  0x00\n    /* \"smart_contracts/contracts/token/Token.sol\":1007:1025  meta.decimals = 18 */\n  0x0100\n  exp\n  dup2\n  sload\n  dup2\n  0xff\n  mul\n  not\n  and\n  swap1\n  dup4\n  0xff\n  and\n  mul\n  or\n  swap1\n  sstore\n  pop\n    /* \"smart_contracts/contracts/token/Token.sol\":1054:1055  0 */\n  0x00\n    /* \"smart_contracts/contracts/token/Token.sol\":1035:1039  meta */\n  0x02\n    /* \"smart_contracts/contracts/token/Token.sol\":1035:1051  meta.totalSupply */\n  0x03\n  add\n    /* \"smart_contracts/contracts/token/Token.sol\":1035:1055  meta.totalSupply = 0 */\n  dup2\n  swap1\n  sstore\n  pop\n    /* \"smart_contracts/contracts/token/Token.sol\":1195:1199  meta */\n  0x02\n    /* \"smart_contracts/contracts/token/Token.sol\":1195:1208  meta.decimals */\n  dup1\n  add\n  0x00\n  swap1\n  sload\n  swap1\n  0x0100\n  exp\n  swap1\n  div\n  0xff\n  and\n    /* \"smart_contracts/contracts/token/Token.sol\":1191:1193  10 */\n  0x0a\n    /* \"smart_contracts/contracts/token/Token.sol\":1191:1208  10**meta.decimals */\n  tag_7\n  swap2\n  swap1\n  tag_8\n  jump\t// in\ntag_7:\n    /* \"smart_contracts/contracts/token/Token.sol\":1179:1188  200000000 */\n  0x0bebc200\n    /* \"smart_contracts/contracts/token/Token.sol\":1179:1208  200000000 * 10**meta.decimals */\n  tag_9\n  swap2\n  swap1\n  tag_10\n  jump\t// in\ntag_9:\n    /* \"smart_contracts/contracts/token/Token.sol\":1162:1166  meta */\n  0x02\n    /* \"smart_contracts/contracts/token/Token.sol\":1162:1176  meta.maxSupply */\n  0x04\n  add\n    /* \"smart_contracts/contracts/token/Token.sol\":1162:1208  meta.maxSupply = 200000000 * 10**meta.decimals */\n  dup2\n  swap1\n  sstore\n  pop\n    /* \"smart_contracts/contracts/token/Token.sol\":1230:1238  sender() */\n  tag_11\n    /* \"smart_contracts/contracts/token/Token.sol\":1230:1236  sender */\n  shl(0x20, tag_12)\n    /* \"smart_contracts/contracts/token/Token.sol\":1230:1238  sender() */\n  0x20\n  shr\n  jump\t// in\ntag_11:\n    /* \"smart_contracts/contracts/token/Token.sol\":1218:1222  meta */\n  0x02\n    /* \"smart_contracts/contracts/token/Token.sol\":1218:1227  meta.bank */\n  0x05\n  add\n  0x00\n    /* \"smart_contracts/contracts/token/Token.sol\":1218:1238  meta.bank = sender() */\n  0x0100\n  exp\n  dup2\n  sload\n  dup2\n  0xffffffffffffffffffffffffffffffffffffffff\n  mul\n  not\n  and\n  swap1\n  dup4\n  0xffffffffffffffffffffffffffffffffffffffff\n  and\n  mul\n  or\n  swap1\n  sstore\n  pop\n    /* \"smart_contracts/contracts/token/Token.sol\":1282:1312  mint(sender(), meta.maxSupply) */\n  tag_13\n    /* \"smart_contracts/contracts/token/Token.sol\":1287:1295  sender() */\n  tag_14\n    /* \"smart_contracts/contracts/token/Token.sol\":1287:1293  sender */\n  shl(0x20, tag_12)\n    /* \"smart_contracts/contracts/token/Token.sol\":1287:1295  sender() */\n  0x20\n  shr\n  jump\t// in\ntag_14:\n    /* \"smart_contracts/contracts/token/Token.sol\":1297:1301  meta */\n  0x02\n    /* \"smart_contracts/contracts/token/Token.sol\":1297:1311  meta.maxSupply */\n  0x04\n  add\n  sload\n    /* \"smart_contracts/contracts/token/Token.sol\":1282:1286  mint */\n  shl(0x20, tag_15)\n    /* \"smart_contracts/contracts/token/Token.sol\":1282:1312  mint(sender(), meta.maxSupply) */\n  0x20\n  shr\n  jump\t// in\ntag_13:\n    /* \"smart_contracts/contracts/token/Token.sol\":1348:1350  15 */\n  0x0f\n    /* \"smart_contracts/contracts/token/Token.sol\":1322:1330  settings */\n  0x00\n    /* \"smart_contracts/contracts/token/Token.sol\":1322:1345  settings.bpTransferBurn */\n  dup1\n  add\n    /* \"smart_contracts/contracts/token/Token.sol\":1322:1350  settings.bpTransferBurn = 15 */\n  dup2\n  swap1\n  sstore\n  pop\n    /* \"smart_contracts/contracts/token/Token.sol\":1396:1398  10 */\n  0x0a\n    /* \"smart_contracts/contracts/token/Token.sol\":1370:1378  settings */\n  0x00\n    /* \"smart_contracts/contracts/token/Token.sol\":1370:1393  settings.bpTransferBank */\n  0x01\n  add\n    /* \"smart_contracts/contracts/token/Token.sol\":1370:1398  settings.bpTransferBank = 10 */\n  dup2\n  swap1\n  sstore\n  pop\n    /* \"smart_contracts/contracts/token/Token.sol\":713:8111  contract Token is TokenState {... */\n  jump(tag_16)\n    /* \"smart_contracts/contracts/token/Token.sol\":81:151  function sender() internal view returns (address) {return msg.sender;} */\ntag_12:\n    /* \"smart_contracts/contracts/token/Token.sol\":122:129  address */\n  0x00\n    /* \"smart_contracts/contracts/token/Token.sol\":139:149  msg.sender */\n  caller\n    /* \"smart_contracts/contracts/token/Token.sol\":132:149  return msg.sender */\n  swap1\n  pop\n    /* \"smart_contracts/contracts/token/Token.sol\":81:151  function sender() internal view returns (address) {return msg.sender;} */\n  swap1\n  jump\t// out\n    /* \"smart_contracts/contracts/token/Token.sol\":7547:7836  function mint(address _to, uint256 _value) internal {... */\ntag_15:\n    /* \"smart_contracts/contracts/token/Token.sol\":7632:7633  0 */\n  0x00\n    /* \"smart_contracts/contracts/token/Token.sol\":7617:7634  _to != address(0) */\n  0xffffffffffffffffffffffffffffffffffffffff\n  and\n    /* \"smart_contracts/contracts/token/Token.sol\":7617:7620  _to */\n  dup3\n    /* \"smart_contracts/contracts/token/Token.sol\":7617:7634  _to != address(0) */\n  0xffffffffffffffffffffffffffffffffffffffff\n  and\n  sub\n    /* \"smart_contracts/contracts/token/Token.sol\":7609:7651  require(_to != address(0), \"zero address\") */\n  tag_19\n  jumpi\n  mload(0x40)\n  0x08c379a000000000000000000000000000000000000000000000000000000000\n  dup2\n  mstore\n  0x04\n  add\n  tag_20\n  swap1\n  tag_21\n  jump\t// in\ntag_20:\n  mload(0x40)\n  dup1\n  swap2\n  sub\n  swap1\n  revert\ntag_19:\n    /* \"smart_contracts/contracts/token/Token.sol\":7698:7702  meta */\n  0x02\n    /* \"smart_contracts/contracts/token/Token.sol\":7698:7712  meta.maxSupply */\n  0x04\n  add\n  sload\n    /* \"smart_contracts/contracts/token/Token.sol\":7688:7694  _value */\n  dup2\n    /* \"smart_contracts/contracts/token/Token.sol\":7669:7673  meta */\n  0x02\n    /* \"smart_contracts/contracts/token/Token.sol\":7669:7685  meta.totalSupply */\n  0x03\n  add\n  sload\n    /* \"smart_contracts/contracts/token/Token.sol\":7669:7694  meta.totalSupply + _value */\n  tag_22\n  swap2\n  swap1\n  tag_23\n  jump\t// in\ntag_22:\n    /* \"smart_contracts/contracts/token/Token.sol\":7669:7712  meta.totalSupply + _value <= meta.maxSupply */\n  gt\n  iszero\n    /* \"smart_contracts/contracts/token/Token.sol\":7661:7713  require(meta.totalSupply + _value <= meta.maxSupply) */\n  tag_24\n  jumpi\n  0x00\n  dup1\n  revert\ntag_24:\n    /* \"smart_contracts/contracts/token/Token.sol\":7743:7749  _value */\n  dup1\n    /* \"smart_contracts/contracts/token/Token.sol\":7723:7727  meta */\n  0x02\n    /* \"smart_contracts/contracts/token/Token.sol\":7723:7739  meta.totalSupply */\n  0x03\n  add\n  0x00\n    /* \"smart_contracts/contracts/token/Token.sol\":7723:7749  meta.totalSupply += _value */\n  dup3\n  dup3\n  sload\n  tag_25\n  swap2\n  swap1\n  tag_23\n  jump\t// in\ntag_25:\n  swap3\n  pop\n  pop\n  dup2\n  swap1\n  sstore\n  pop\n    /* \"smart_contracts/contracts/token/Token.sol\":7775:7781  _value */\n  dup1\n    /* \"smart_contracts/contracts/token/Token.sol\":7759:7766  balance */\n  0x08\n    /* \"smart_contracts/contracts/token/Token.sol\":7759:7771  balance[_to] */\n  0x00\n    /* \"smart_contracts/contracts/token/Token.sol\":7767:7770  _to */\n  dup5\n    /* \"smart_contracts/contracts/token/Token.sol\":7759:7771  balance[_to] */\n  0xffffffffffffffffffffffffffffffffffffffff\n  and\n  0xffffffffffffffffffffffffffffffffffffffff\n  and\n  dup2\n  mstore\n  0x20\n  add\n  swap1\n  dup2\n  mstore\n  0x20\n  add\n  0x00\n  keccak256\n  0x00\n    /* \"smart_contracts/contracts/token/Token.sol\":7759:7781  balance[_to] += _value */\n  dup3\n  dup3\n  sload\n  tag_26\n  swap2\n  swap1\n  tag_23\n  jump\t// in\ntag_26:\n  swap3\n  pop\n  pop\n  dup2\n  swap1\n  sstore\n  pop\n    /* \"smart_contracts/contracts/token/Token.sol\":7817:7820  _to */\n  dup2\n    /* \"smart_contracts/contracts/token/Token.sol\":7796:7829  Transfer(address(0), _to, _value) */\n  0xffffffffffffffffffffffffffffffffffffffff\n  and\n    /* \"smart_contracts/contracts/token/Token.sol\":7813:7814  0 */\n  0x00\n    /* \"smart_contracts/contracts/token/Token.sol\":7796:7829  Transfer(address(0), _to, _value) */\n  0xffffffffffffffffffffffffffffffffffffffff\n  and\n  0xddf252ad1be2c89b69c2b068fc378daa952ba7f163c4a11628f55a4df523b3ef\n    /* \"smart_contracts/contracts/token/Token.sol\":7822:7828  _value */\n  dup4\n    /* \"smart_contracts/contracts/token/Token.sol\":7796:7829  Transfer(address(0), _to, _value) */\n  mload(0x40)\n  tag_27\n  swap2\n  swap1\n  tag_28\n  jump\t// in\ntag_27:\n  mload(0x40)\n  dup1\n  swap2\n  sub\n  swap1\n  log3\n    /* \"smart_contracts/contracts/token/Token.sol\":7547:7836  function mint(address _to, uint256 _value) internal {... */\n  pop\n  pop\n  jump\t// out\n    /* \"#utility.yul\":7:106   */\ntag_29:\n    /* \"#utility.yul\":59:65   */\n  0x00\n    /* \"#utility.yul\":93:98   */\n  dup2\n    /* \"#utility.yul\":87:99   */\n  mload\n    /* \"#utility.yul\":77:99   */\n  swap1\n  pop\n    /* \"#utility.yul\":7:106   */\n  swap2\n  swap1\n  pop\n  jump\t// out\n    /* \"#utility.yul\":112:292   */\ntag_30:\n    /* \"#utility.yul\":160:237   */\n  0x4e487b7100000000000000000000000000000000000000000000000000000000\n    /* \"#utility.yul\":157:158   */\n  0x00\n    /* \"#utility.yul\":150:238   */\n  mstore\n    /* \"#utility.yul\":257:261   */\n  0x41\n    /* \"#utility.yul\":254:255   */\n  0x04\n    /* \"#utility.yul\":247:262   */\n  mstore\n    /* \"#utility.yul\":281:285   */\n  0x24\n    /* \"#utility.yul\":278:279   */\n  0x00\n    /* \"#utility.yul\":271:286   */\n  revert\n    /* \"#utility.yul\":298:478   */\ntag_31:\n    /* \"#utility.yul\":346:423   */\n  0x4e487b7100000000000000000000000000000000000000000000000000000000\n    /* \"#utility.yul\":343:344   */\n  0x00\n    /* \"#utility.yul\":336:424   */\n  mstore\n    /* \"#utility.yul\":443:447   */\n  0x22\n    /* \"#utility.yul\":440:441   */\n  0x04\n    /* \"#utility.yul\":433:448   */\n  mstore\n    /* \"#utility.yul\":467:471   */\n  0x24\n    /* \"#utility.yul\":464:465   */\n  0x00\n    /* \"#utility.yul\":457:472   */\n  revert\n    /* \"#utility.yul\":484:804   */\ntag_32:\n    /* \"#utility.yul\":528:534   */\n  0x00\n    /* \"#utility.yul\":565:566   */\n  0x02\n    /* \"#utility.yul\":559:563   */\n  dup3\n    /* \"#utility.yul\":555:567   */\n  div\n    /* \"#utility.yul\":545:567   */\n  swap1\n  pop\n    /* \"#utility.yul\":612:613   */\n  0x01\n    /* \"#utility.yul\":606:610   */\n  dup3\n    /* \"#utility.yul\":602:614   */\n  and\n    /* \"#utility.yul\":633:651   */\n  dup1\n    /* \"#utility.yul\":623:704   */\n  tag_63\n  jumpi\n    /* \"#utility.yul\":689:693   */\n  0x7f\n    /* \"#utility.yul\":681:687   */\n  dup3\n    /* \"#utility.yul\":677:694   */\n  and\n    /* \"#utility.yul\":667:694   */\n  swap2\n  pop\n    /* \"#utility.yul\":623:704   */\ntag_63:\n    /* \"#utility.yul\":751:753   */\n  0x20\n    /* \"#utility.yul\":743:749   */\n  dup3\n    /* \"#utility.yul\":740:754   */\n  lt\n    /* \"#utility.yul\":720:738   */\n  dup2\n    /* \"#utility.yul\":717:755   */\n  sub\n    /* \"#utility.yul\":714:798   */\n  tag_64\n  jumpi\n    /* \"#utility.yul\":770:788   */\n  tag_65\n  tag_31\n  jump\t// in\ntag_65:\n    /* \"#utility.yul\":714:798   */\ntag_64:\n    /* \"#utility.yul\":535:804   */\n  pop\n    /* \"#utility.yul\":484:804   */\n  swap2\n  swap1\n  pop\n  jump\t// out\n    /* \"#utility.yul\":810:951   */\ntag_33:\n    /* \"#utility.yul\":859:863   */\n  0x00\n    /* \"#utility.yul\":882:885   */\n  dup2\n    /* \"#utility.yul\":874:885   */\n  swap1\n  pop\n    /* \"#utility.yul\":905:908   */\n  dup2\n    /* \"#utility.yul\":902:903   */\n  0x00\n    /* \"#utility.yul\":895:909   */\n  mstore\n    /* \"#utility.yul\":939:943   */\n  0x20\n    /* \"#utility.yul\":936:937   */\n  0x00\n    /* \"#utility.yul\":926:944   */\n  keccak256\n    /* \"#utility.yul\":918:944   */\n  swap1\n  pop\n    /* \"#utility.yul\":810:951   */\n  swap2\n  swap1\n  pop\n  jump\t// out\n    /* \"#utility.yul\":957:1050   */\ntag_34:\n    /* \"#utility.yul\":994:1000   */\n  0x00\n    /* \"#utility.yul\":1041:1043   */\n  0x20\n    /* \"#utility.yul\":1036:1038   */\n  0x1f\n    /* \"#utility.yul\":1029:1034   */\n  dup4\n    /* \"#utility.yul\":1025:1039   */\n  add\n    /* \"#utility.yul\":1021:1044   */\n  div\n    /* \"#utility.yul\":1011:1044   */\n  swap1\n  pop\n    /* \"#utility.yul\":957:1050   */\n  swap2\n  swap1\n  pop\n  jump\t// out\n    /* \"#utility.yul\":1056:1163   */\ntag_35:\n    /* \"#utility.yul\":1100:1108   */\n  0x00\n    /* \"#utility.yul\":1150:1155   */\n  dup3\n    /* \"#utility.yul\":1144:1148   */\n  dup3\n    /* \"#utility.yul\":1140:1156   */\n  shl\n    /* \"#utility.yul\":1119:1156   */\n  swap1\n  pop\n    /* \"#utility.yul\":1056:1163   */\n  swap3\n  swap2\n  pop\n  pop\n  jump\t// out\n    /* \"#utility.yul\":1169:1562   */\ntag_36:\n    /* \"#utility.yul\":1238:1244   */\n  0x00\n    /* \"#utility.yul\":1288:1289   */\n  0x08\n    /* \"#utility.yul\":1276:1286   */\n  dup4\n    /* \"#utility.yul\":1272:1290   */\n  mul\n    /* \"#utility.yul\":1311:1408   */\n  tag_70\n    /* \"#utility.yul\":1341:1407   */\n  0xffffffffffffffffffffffffffffffffffffffffffffffffffffffffffffffff\n    /* \"#utility.yul\":1330:1339   */\n  dup3\n    /* \"#utility.yul\":1311:1408   */\n  tag_35\n  jump\t// in\ntag_70:\n    /* \"#utility.yul\":1429:1468   */\n  tag_71\n    /* \"#utility.yul\":1459:1467   */\n  dup7\n    /* \"#utility.yul\":1448:1457   */\n  dup4\n    /* \"#utility.yul\":1429:1468   */\n  tag_35\n  jump\t// in\ntag_71:\n    /* \"#utility.yul\":1417:1468   */\n  swap6\n  pop\n    /* \"#utility.yul\":1501:1505   */\n  dup1\n    /* \"#utility.yul\":1497:1506   */\n  not\n    /* \"#utility.yul\":1490:1495   */\n  dup5\n    /* \"#utility.yul\":1486:1507   */\n  and\n    /* \"#utility.yul\":1477:1507   */\n  swap4\n  pop\n    /* \"#utility.yul\":1550:1554   */\n  dup1\n    /* \"#utility.yul\":1540:1548   */\n  dup7\n    /* \"#utility.yul\":1536:1555   */\n  and\n    /* \"#utility.yul\":1529:1534   */\n  dup5\n    /* \"#utility.yul\":1526:1556   */\n  or\n    /* \"#utility.yul\":1516:1556   */\n  swap3\n  pop\n    /* \"#utility.yul\":1245:1562   */\n  pop\n  pop\n    /* \"#utility.yul\":1169:1562   */\n  swap4\n  swap3\n  pop\n  pop\n  pop\n  jump\t// out\n    /* \"#utility.yul\":1568:1645   */\ntag_37:\n    /* \"#utility.yul\":1605:1612   */\n  0x00\n    /* \"#utility.yul\":1634:1639   */\n  dup2\n    /* \"#utility.yul\":1623:1639   */\n  swap1\n  pop\n    /* \"#utility.yul\":1568:1645   */\n  swap2\n  swap1\n  pop\n  jump\t// out\n    /* \"#utility.yul\":1651:1711   */\ntag_38:\n    /* \"#utility.yul\":1679:1682   */\n  0x00\n    /* \"#utility.yul\":1700:1705   */\n  dup2\n    /* \"#utility.yul\":1693:1705   */\n  swap1\n  pop\n    /* \"#utility.yul\":1651:1711   */\n  swap2\n  swap1\n  pop\n  jump\t// out\n    /* \"#utility.yul\":1717:1859   */\ntag_39:\n    /* \"#utility.yul\":1767:1776   */\n  0x00\n    /* \"#utility.yul\":1800:1853   */\n  tag_75\n    /* \"#utility.yul\":1818:1852   */\n  tag_76\n    /* \"#utility.yul\":1827:1851   */\n  tag_77\n    /* \"#utility.yul\":1845:1850   */\n  dup5\n    /* \"#utility.yul\":1827:1851   */\n  tag_37\n  jump\t// in\ntag_77:\n    /* \"#utility.yul\":1818:1852   */\n  tag_38\n  jump\t// in\ntag_76:\n    /* \"#utility.yul\":1800:1853   */\n  tag_37\n  jump\t// in\ntag_75:\n    /* \"#utility.yul\":1787:1853   */\n  swap1\n  pop\n    /* \"#utility.yul\":1717:1859   */\n  swap2\n  swap1\n  pop\n  jump\t// out\n    /* \"#utility.yul\":1865:1940   */\ntag_40:\n    /* \"#utility.yul\":1908:1911   */\n  0x00\n    /* \"#utility.yul\":1929:1934   */\n  dup2\n    /* \"#utility.yul\":1922:1934   */\n  swap1\n  pop\n    /* \"#utility.yul\":1865:1940   */\n  swap2\n  swap1\n  pop\n  jump\t// out\n    /* \"#utility.yul\":1946:2215   */\ntag_41:\n    /* \"#utility.yul\":2056:2095   */\n  tag_80\n    /* \"#utility.yul\":2087:2094   */\n  dup4\n    /* \"#utility.yul\":2056:2095   */\n  tag_39\n  jump\t// in\ntag_80:\n    /* \"#utility.yul\":2117:2208   */\n  tag_81\n    /* \"#utility.yul\":2166:2207   */\n  tag_82\n    /* \"#utility.yul\":2190:2206   */\n  dup3\n    /* \"#utility.yul\":2166:2207   */\n  tag_40\n  jump\t// in\ntag_82:\n    /* \"#utility.yul\":2158:2164   */\n  dup5\n    /* \"#utility.yul\":2151:2155   */\n  dup5\n    /* \"#utility.yul\":2145:2156   */\n  sload\n    /* \"#utility.yul\":2117:2208   */\n  tag_36\n  jump\t// in\ntag_81:\n    /* \"#utility.yul\":2111:2115   */\n  dup3\n    /* \"#utility.yul\":2104:2209   */\n  sstore\n    /* \"#utility.yul\":2022:2215   */\n  pop\n    /* \"#utility.yul\":1946:2215   */\n  pop\n  pop\n  pop\n  jump\t// out\n    /* \"#utility.yul\":2221:2294   */\ntag_42:\n    /* \"#utility.yul\":2266:2269   */\n  0x00\n    /* \"#utility.yul\":2221:2294   */\n  swap1\n  jump\t// out\n    /* \"#utility.yul\":2300:2489   */\ntag_43:\n    /* \"#utility.yul\":2377:2409   */\n  tag_85\n  tag_42\n  jump\t// in\ntag_85:\n    /* \"#utility.yul\":2418:2483   */\n  tag_86\n    /* \"#utility.yul\":2476:2482   */\n  dup2\n    /* \"#utility.yul\":2468:2474   */\n  dup5\n    /* \"#utility.yul\":2462:2466   */\n  dup5\n    /* \"#utility.yul\":2418:2483   */\n  tag_41\n  jump\t// in\ntag_86:\n    /* \"#utility.yul\":2353:2489   */\n  pop\n    /* \"#utility.yul\":2300:2489   */\n  pop\n  pop\n  jump\t// out\n    /* \"#utility.yul\":2495:2681   */\ntag_44:\n    /* \"#utility.yul\":2555:2675   */\ntag_88:\n    /* \"#utility.yul\":2572:2575   */\n  dup2\n    /* \"#utility.yul\":2565:2570   */\n  dup2\n    /* \"#utility.yul\":2562:2576   */\n  lt\n    /* \"#utility.yul\":2555:2675   */\n  iszero\n  tag_90\n  jumpi\n    /* \"#utility.yul\":2626:2665   */\n  tag_91\n    /* \"#utility.yul\":2663:2664   */\n  0x00\n    /* \"#utility.yul\":2656:2661   */\n  dup3\n    /* \"#utility.yul\":2626:2665   */\n  tag_43\n  jump\t// in\ntag_91:\n    /* \"#utility.yul\":2599:2600   */\n  0x01\n    /* \"#utility.yul\":2592:2597   */\n  dup2\n    /* \"#utility.yul\":2588:2601   */\n  add\n    /* \"#utility.yul\":2579:2601   */\n  swap1\n  pop\n    /* \"#utility.yul\":2555:2675   */\n  jump(tag_88)\ntag_90:\n    /* \"#utility.yul\":2495:2681   */\n  pop\n  pop\n  jump\t// out\n    /* \"#utility.yul\":2687:3230   */\ntag_45:\n    /* \"#utility.yul\":2788:2790   */\n  0x1f\n    /* \"#utility.yul\":2783:2786   */\n  dup3\n    /* \"#utility.yul\":2780:2791   */\n  gt\n    /* \"#utility.yul\":2777:3223   */\n  iszero\n  tag_93\n  jumpi\n    /* \"#utility.yul\":2822:2860   */\n  tag_94\n    /* \"#utility.yul\":2854:2859   */\n  dup2\n    /* \"#utility.yul\":2822:2860   */\n  tag_33\n  jump\t// in\ntag_94:\n    /* \"#utility.yul\":2906:2935   */\n  tag_95\n    /* \"#utility.yul\":2924:2934   */\n  dup5\n    /* \"#utility.yul\":2906:2935   */\n  tag_34\n  jump\t// in\ntag_95:\n    /* \"#utility.yul\":2896:2904   */\n  dup2\n    /* \"#utility.yul\":2892:2936   */\n  add\n    /* \"#utility.yul\":3089:3091   */\n  0x20\n    /* \"#utility.yul\":3077:3087   */\n  dup6\n    /* \"#utility.yul\":3074:3092   */\n  lt\n    /* \"#utility.yul\":3071:3120   */\n  iszero\n  tag_96\n  jumpi\n    /* \"#utility.yul\":3110:3118   */\n  dup2\n    /* \"#utility.yul\":3095:3118   */\n  swap1\n  pop\n    /* \"#utility.yul\":3071:3120   */\ntag_96:\n    /* \"#utility.yul\":3133:3213   */\n  tag_97\n    /* \"#utility.yul\":3189:3211   */\n  tag_98\n    /* \"#utility.yul\":3207:3210   */\n  dup6\n    /* \"#utility.yul\":3189:3211   */\n  tag_34\n  jump\t// in\ntag_98:\n    /* \"#utility.yul\":3179:3187   */\n  dup4\n    /* \"#utility.yul\":3175:3212   */\n  add\n    /* \"#utility.yul\":3162:3173   */\n  dup3\n    /* \"#utility.yul\":3133:3213   */\n  tag_44\n  jump\t// in\ntag_97:\n    /* \"#utility.yul\":2792:3223   */\n  pop\n  pop\n    /* \"#utility.yul\":2777:3223   */\ntag_93:\n    /* \"#utility.yul\":2687:3230   */\n  pop\n  pop\n  pop\n  jump\t// out\n    /* \"#utility.yul\":3236:3353   */\ntag_46:\n    /* \"#utility.yul\":3290:3298   */\n  0x00\n    /* \"#utility.yul\":3340:3345   */\n  dup3\n    /* \"#utility.yul\":3334:3338   */\n  dup3\n    /* \"#utility.yul\":3330:3346   */\n  shr\n    /* \"#utility.yul\":3309:3346   */\n  swap1\n  pop\n    /* \"#utility.yul\":3236:3353   */\n  swap3\n  swap2\n  pop\n  pop\n  jump\t// out\n    /* \"#utility.yul\":3359:3528   */\ntag_47:\n    /* \"#utility.yul\":3403:3409   */\n  0x00\n    /* \"#utility.yul\":3436:3487   */\n  tag_101\n    /* \"#utility.yul\":3484:3485   */\n  0x00\n    /* \"#utility.yul\":3480:3486   */\n  not\n    /* \"#utility.yul\":3472:3477   */\n  dup5\n    /* \"#utility.yul\":3469:3470   */\n  0x08\n    /* \"#utility.yul\":3465:3478   */\n  mul\n    /* \"#utility.yul\":3436:3487   */\n  tag_46\n  jump\t// in\ntag_101:\n    /* \"#utility.yul\":3432:3488   */\n  not\n    /* \"#utility.yul\":3517:3521   */\n  dup1\n    /* \"#utility.yul\":3511:3515   */\n  dup4\n    /* \"#utility.yul\":3507:3522   */\n  and\n    /* \"#utility.yul\":3497:3522   */\n  swap2\n  pop\n    /* \"#utility.yul\":3410:3528   */\n  pop\n    /* \"#utility.yul\":3359:3528   */\n  swap3\n  swap2\n  pop\n  pop\n  jump\t// out\n    /* \"#utility.yul\":3533:3828   */\ntag_48:\n    /* \"#utility.yul\":3609:3613   */\n  0x00\n    /* \"#utility.yul\":3755:3784   */\n  tag_103\n    /* \"#utility.yul\":3780:3783   */\n  dup4\n    /* \"#utility.yul\":3774:3778   */\n  dup4\n    /* \"#utility.yul\":3755:3784   */\n  tag_47\n  jump\t// in\ntag_103:\n    /* \"#utility.yul\":3747:3784   */\n  swap2\n  pop\n    /* \"#utility.yul\":3817:3820   */\n  dup3\n    /* \"#utility.yul\":3814:3815   */\n  0x02\n    /* \"#utility.yul\":3810:3821   */\n  mul\n    /* \"#utility.yul\":3804:3808   */\n  dup3\n    /* \"#utility.yul\":3801:3822   */\n  or\n    /* \"#utility.yul\":3793:3822   */\n  swap1\n  pop\n    /* \"#utility.yul\":3533:3828   */\n  swap3\n  swap2\n  pop\n  pop\n  jump\t// out\n    /* \"#utility.yul\":3833:5228   */\ntag_5:\n    /* \"#utility.yul\":3950:3987   */\n  tag_105\n    /* \"#utility.yul\":3983:3986   */\n  dup3\n    /* \"#utility.yul\":3950:3987   */\n  tag_29\n  jump\t// in\ntag_105:\n    /* \"#utility.yul\":4052:4070   */\n  0xffffffffffffffff\n    /* \"#utility.yul\":4044:4050   */\n  dup2\n    /* \"#utility.yul\":4041:4071   */\n  gt\n    /* \"#utility.yul\":4038:4094   */\n  iszero\n  tag_106\n  jumpi\n    /* \"#utility.yul\":4074:4092   */\n  tag_107\n  tag_30\n  jump\t// in\ntag_107:\n    /* \"#utility.yul\":4038:4094   */\ntag_106:\n    /* \"#utility.yul\":4118:4156   */\n  tag_108\n    /* \"#utility.yul\":4150:4154   */\n  dup3\n    /* \"#utility.yul\":4144:4155   */\n  sload\n    /* \"#utility.yul\":4118:4156   */\n  tag_32\n  jump\t// in\ntag_108:\n    /* \"#utility.yul\":4203:4270   */\n  tag_109\n    /* \"#utility.yul\":4263:4269   */\n  dup3\n    /* \"#utility.yul\":4255:4261   */\n  dup3\n    /* \"#utility.yul\":4249:4253   */\n  dup6\n    /* \"#utility.yul\":4203:4270   */\n  tag_45\n  jump\t// in\ntag_109:\n    /* \"#utility.yul\":4297:4298   */\n  0x00\n    /* \"#utility.yul\":4321:4325   */\n  0x20\n    /* \"#utility.yul\":4308:4325   */\n  swap1\n  pop\n    /* \"#utility.yul\":4353:4355   */\n  0x1f\n    /* \"#utility.yul\":4345:4351   */\n  dup4\n    /* \"#utility.yul\":4342:4356   */\n  gt\n    /* \"#utility.yul\":4370:4371   */\n  0x01\n    /* \"#utility.yul\":4365:4983   */\n  dup2\n  eq\n  tag_111\n  jumpi\n    /* \"#utility.yul\":5027:5028   */\n  0x00\n    /* \"#utility.yul\":5044:5050   */\n  dup5\n    /* \"#utility.yul\":5041:5118   */\n  iszero\n  tag_112\n  jumpi\n    /* \"#utility.yul\":5093:5102   */\n  dup3\n    /* \"#utility.yul\":5088:5091   */\n  dup8\n    /* \"#utility.yul\":5084:5103   */\n  add\n    /* \"#utility.yul\":5078:5104   */\n  mload\n    /* \"#utility.yul\":5069:5104   */\n  swap1\n  pop\n    /* \"#utility.yul\":5041:5118   */\ntag_112:\n    /* \"#utility.yul\":5144:5211   */\n  tag_113\n    /* \"#utility.yul\":5204:5210   */\n  dup6\n    /* \"#utility.yul\":5197:5202   */\n  dup3\n    /* \"#utility.yul\":5144:5211   */\n  tag_48\n  jump\t// in\ntag_113:\n    /* \"#utility.yul\":5138:5142   */\n  dup7\n    /* \"#utility.yul\":5131:5212   */\n  sstore\n    /* \"#utility.yul\":5000:5222   */\n  pop\n    /* \"#utility.yul\":4335:5222   */\n  jump(tag_110)\n    /* \"#utility.yul\":4365:4983   */\ntag_111:\n    /* \"#utility.yul\":4417:4421   */\n  0x1f\n    /* \"#utility.yul\":4413:4422   */\n  not\n    /* \"#utility.yul\":4405:4411   */\n  dup5\n    /* \"#utility.yul\":4401:4423   */\n  and\n    /* \"#utility.yul\":4451:4488   */\n  tag_114\n    /* \"#utility.yul\":4483:4487   */\n  dup7\n    /* \"#utility.yul\":4451:4488   */\n  tag_33\n  jump\t// in\ntag_114:\n    /* \"#utility.yul\":4510:4511   */\n  0x00\n    /* \"#utility.yul\":4524:4732   */\ntag_115:\n    /* \"#utility.yul\":4538:4545   */\n  dup3\n    /* \"#utility.yul\":4535:4536   */\n  dup2\n    /* \"#utility.yul\":4532:4546   */\n  lt\n    /* \"#utility.yul\":4524:4732   */\n  iszero\n  tag_117\n  jumpi\n    /* \"#utility.yul\":4617:4626   */\n  dup5\n    /* \"#utility.yul\":4612:4615   */\n  dup10\n    /* \"#utility.yul\":4608:4627   */\n  add\n    /* \"#utility.yul\":4602:4628   */\n  mload\n    /* \"#utility.yul\":4594:4600   */\n  dup3\n    /* \"#utility.yul\":4587:4629   */\n  sstore\n    /* \"#utility.yul\":4668:4669   */\n  0x01\n    /* \"#utility.yul\":4660:4666   */\n  dup3\n    /* \"#utility.yul\":4656:4670   */\n  add\n    /* \"#utility.yul\":4646:4670   */\n  swap2\n  pop\n    /* \"#utility.yul\":4715:4717   */\n  0x20\n    /* \"#utility.yul\":4704:4713   */\n  dup6\n    /* \"#utility.yul\":4700:4718   */\n  add\n    /* \"#utility.yul\":4687:4718   */\n  swap5\n  pop\n    /* \"#utility.yul\":4561:4565   */\n  0x20\n    /* \"#utility.yul\":4558:4559   */\n  dup2\n    /* \"#utility.yul\":4554:4566   */\n  add\n    /* \"#utility.yul\":4549:4566   */\n  swap1\n  pop\n    /* \"#utility.yul\":4524:4732   */\n  jump(tag_115)\ntag_117:\n    /* \"#utility.yul\":4760:4766   */\n  dup7\n    /* \"#utility.yul\":4751:4758   */\n  dup4\n    /* \"#utility.yul\":4748:4767   */\n  lt\n    /* \"#utility.yul\":4745:4924   */\n  iszero\n  tag_118\n  jumpi\n    /* \"#utility.yul\":4818:4827   */\n  dup5\n    /* \"#utility.yul\":4813:4816   */\n  dup10\n    /* \"#utility.yul\":4809:4828   */\n  add\n    /* \"#utility.yul\":4803:4829   */\n  mload\n    /* \"#utility.yul\":4861:4909   */\n  tag_119\n    /* \"#utility.yul\":4903:4907   */\n  0x1f\n    /* \"#utility.yul\":4895:4901   */\n  dup10\n    /* \"#utility.yul\":4891:4908   */\n  and\n    /* \"#utility.yul\":4880:4889   */\n  dup3\n    /* \"#utility.yul\":4861:4909   */\n  tag_47\n  jump\t// in\ntag_119:\n    /* \"#utility.yul\":4853:4859   */\n  dup4\n    /* \"#utility.yul\":4846:4910   */\n  sstore\n    /* \"#utility.yul\":4768:4924   */\n  pop\n    /* \"#utility.yul\":4745:4924   */\ntag_118:\n    /* \"#utility.yul\":4970:4971   */\n  0x01\n    /* \"#utility.yul\":4966:4967   */\n  0x02\n    /* \"#utility.yul\":4958:4964   */\n  dup9\n    /* \"#utility.yul\":4954:4968   */\n  mul\n    /* \"#utility.yul\":4950:4972   */\n  add\n    /* \"#utility.yul\":4944:4948   */\n  dup9\n    /* \"#utility.yul\":4937:4973   */\n  sstore\n    /* \"#utility.yul\":4372:4983   */\n  pop\n  pop\n  pop\n    /* \"#utility.yul\":4335:5222   */\ntag_110:\n  pop\n    /* \"#utility.yul\":3925:5228   */\n  pop\n  pop\n  pop\n    /* \"#utility.yul\":3833:5228   */\n  pop\n  pop\n  jump\t// out\n    /* \"#utility.yul\":5234:5414   */\ntag_49:\n    /* \"#utility.yul\":5282:5359   */\n  0x4e487b7100000000000000000000000000000000000000000000000000000000\n    /* \"#utility.yul\":5279:5280   */\n  0x00\n    /* \"#utility.yul\":5272:5360   */\n  mstore\n    /* \"#utility.yul\":5379:5383   */\n  0x11\n    /* \"#utility.yul\":5376:5377   */\n  0x04\n    /* \"#utility.yul\":5369:5384   */\n  mstore\n    /* \"#utility.yul\":5403:5407   */\n  0x24\n    /* \"#utility.yul\":5400:5401   */\n  0x00\n    /* \"#utility.yul\":5393:5408   */\n  revert\n    /* \"#utility.yul\":5420:5522   */\ntag_50:\n    /* \"#utility.yul\":5462:5470   */\n  0x00\n    /* \"#utility.yul\":5509:5514   */\n  dup2\n    /* \"#utility.yul\":5506:5507   */\n  0x01\n    /* \"#utility.yul\":5502:5515   */\n  shr\n    /* \"#utility.yul\":5481:5515   */\n  swap1\n  pop\n    /* \"#utility.yul\":5420:5522   */\n  swap2\n  swap1\n  pop\n  jump\t// out\n    /* \"#utility.yul\":5528:6376   */\ntag_51:\n    /* \"#utility.yul\":5589:5594   */\n  0x00\n    /* \"#utility.yul\":5596:5600   */\n  dup1\n    /* \"#utility.yul\":5620:5626   */\n  dup3\n    /* \"#utility.yul\":5611:5626   */\n  swap2\n  pop\n    /* \"#utility.yul\":5644:5649   */\n  dup4\n    /* \"#utility.yul\":5635:5649   */\n  swap1\n  pop\n    /* \"#utility.yul\":5658:6370   */\ntag_123:\n    /* \"#utility.yul\":5679:5680   */\n  0x01\n    /* \"#utility.yul\":5669:5677   */\n  dup6\n    /* \"#utility.yul\":5666:5681   */\n  gt\n    /* \"#utility.yul\":5658:6370   */\n  iszero\n  tag_125\n  jumpi\n    /* \"#utility.yul\":5774:5778   */\n  dup1\n    /* \"#utility.yul\":5769:5772   */\n  dup7\n    /* \"#utility.yul\":5765:5779   */\n  div\n    /* \"#utility.yul\":5759:5763   */\n  dup2\n    /* \"#utility.yul\":5756:5780   */\n  gt\n    /* \"#utility.yul\":5753:5803   */\n  iszero\n  tag_126\n  jumpi\n    /* \"#utility.yul\":5783:5801   */\n  tag_127\n  tag_49\n  jump\t// in\ntag_127:\n    /* \"#utility.yul\":5753:5803   */\ntag_126:\n    /* \"#utility.yul\":5833:5834   */\n  0x01\n    /* \"#utility.yul\":5823:5831   */\n  dup6\n    /* \"#utility.yul\":5819:5835   */\n  and\n    /* \"#utility.yul\":5816:6267   */\n  iszero\n  tag_128\n  jumpi\n    /* \"#utility.yul\":6248:6252   */\n  dup1\n    /* \"#utility.yul\":6241:6246   */\n  dup3\n    /* \"#utility.yul\":6237:6253   */\n  mul\n    /* \"#utility.yul\":6228:6253   */\n  swap2\n  pop\n    /* \"#utility.yul\":5816:6267   */\ntag_128:\n    /* \"#utility.yul\":6298:6302   */\n  dup1\n    /* \"#utility.yul\":6292:6296   */\n  dup2\n    /* \"#utility.yul\":6288:6303   */\n  mul\n    /* \"#utility.yul\":6280:6303   */\n  swap1\n  pop\n    /* \"#utility.yul\":6328:6360   */\n  tag_129\n    /* \"#utility.yul\":6351:6359   */\n  dup6\n    /* \"#utility.yul\":6328:6360   */\n  tag_50\n  jump\t// in\ntag_129:\n    /* \"#utility.yul\":6316:6360   */\n  swap5\n  pop\n    /* \"#utility.yul\":5658:6370   */\n  jump(tag_123)\ntag_125:\n    /* \"#utility.yul\":5528:6376   */\n  swap5\n  pop\n  swap5\n  swap3\n  pop\n  pop\n  pop\n  jump\t// out\n    /* \"#utility.yul\":6382:7455   */\ntag_52:\n    /* \"#utility.yul\":6436:6441   */\n  0x00\n    /* \"#utility.yul\":6627:6635   */\n  dup3\n    /* \"#utility.yul\":6617:6657   */\n  tag_131\n  jumpi\n    /* \"#utility.yul\":6648:6649   */\n  0x01\n    /* \"#utility.yul\":6639:6649   */\n  swap1\n  pop\n    /* \"#utility.yul\":6650:6655   */\n  jump(tag_130)\n    /* \"#utility.yul\":6617:6657   */\ntag_131:\n    /* \"#utility.yul\":6676:6680   */\n  dup2\n    /* \"#utility.yul\":6666:6702   */\n  tag_132\n  jumpi\n    /* \"#utility.yul\":6693:6694   */\n  0x00\n    /* \"#utility.yul\":6684:6694   */\n  swap1\n  pop\n    /* \"#utility.yul\":6695:6700   */\n  jump(tag_130)\n    /* \"#utility.yul\":6666:6702   */\ntag_132:\n    /* \"#utility.yul\":6762:6766   */\n  dup2\n    /* \"#utility.yul\":6810:6811   */\n  0x01\n    /* \"#utility.yul\":6805:6832   */\n  dup2\n  eq\n  tag_134\n  jumpi\n    /* \"#utility.yul\":6846:6847   */\n  0x02\n    /* \"#utility.yul\":6841:7032   */\n  dup2\n  eq\n  tag_135\n  jumpi\n    /* \"#utility.yul\":6755:7032   */\n  jump(tag_133)\n    /* \"#utility.yul\":6805:6832   */\ntag_134:\n    /* \"#utility.yul\":6823:6824   */\n  0x01\n    /* \"#utility.yul\":6814:6824   */\n  swap2\n  pop\n    /* \"#utility.yul\":6825:6830   */\n  pop\n  jump(tag_130)\n    /* \"#utility.yul\":6841:7032   */\ntag_135:\n    /* \"#utility.yul\":6886:6889   */\n  0xff\n    /* \"#utility.yul\":6876:6884   */\n  dup5\n    /* \"#utility.yul\":6873:6890   */\n  gt\n    /* \"#utility.yul\":6870:6913   */\n  iszero\n  tag_136\n  jumpi\n    /* \"#utility.yul\":6893:6911   */\n  tag_137\n  tag_49\n  jump\t// in\ntag_137:\n    /* \"#utility.yul\":6870:6913   */\ntag_136:\n    /* \"#utility.yul\":6942:6950   */\n  dup4\n    /* \"#utility.yul\":6939:6940   */\n  0x02\n    /* \"#utility.yul\":6935:6951   */\n  exp\n    /* \"#utility.yul\":6926:6951   */\n  swap2\n  pop\n    /* \"#utility.yul\":6977:6980   */\n  dup5\n    /* \"#utility.yul\":6970:6975   */\n  dup3\n    /* \"#utility.yul\":6967:6981   */\n  gt\n    /* \"#utility.yul\":6964:7004   */\n  iszero\n  tag_138\n  jumpi\n    /* \"#utility.yul\":6984:7002   */\n  tag_139\n  tag_49\n  jump\t// in\ntag_139:\n    /* \"#utility.yul\":6964:7004   */\ntag_138:\n    /* \"#utility.yul\":7017:7022   */\n  pop\n  jump(tag_130)\n    /* \"#utility.yul\":6755:7032   */\ntag_133:\n  pop\n    /* \"#utility.yul\":7141:7143   */\n  0x20\n    /* \"#utility.yul\":7131:7139   */\n  dup4\n    /* \"#utility.yul\":7128:7144   */\n  lt\n    /* \"#utility.yul\":7122:7125   */\n  0x0133\n    /* \"#utility.yul\":7116:7120   */\n  dup4\n    /* \"#utility.yul\":7113:7126   */\n  lt\n    /* \"#utility.yul\":7109:7145   */\n  and\n    /* \"#utility.yul\":7091:7093   */\n  0x4e\n    /* \"#utility.yul\":7081:7089   */\n  dup5\n    /* \"#utility.yul\":7078:7094   */\n  lt\n    /* \"#utility.yul\":7073:7075   */\n  0x0b\n    /* \"#utility.yul\":7067:7071   */\n  dup5\n    /* \"#utility.yul\":7064:7076   */\n  lt\n    /* \"#utility.yul\":7060:7095   */\n  and\n    /* \"#utility.yul\":7044:7155   */\n  or\n    /* \"#utility.yul\":7041:7287   */\n  iszero\n  tag_140\n  jumpi\n    /* \"#utility.yul\":7197:7205   */\n  dup3\n    /* \"#utility.yul\":7191:7195   */\n  dup3\n    /* \"#utility.yul\":7187:7206   */\n  exp\n    /* \"#utility.yul\":7178:7206   */\n  swap1\n  pop\n    /* \"#utility.yul\":7232:7235   */\n  dup4\n    /* \"#utility.yul\":7225:7230   */\n  dup2\n    /* \"#utility.yul\":7222:7236   */\n  gt\n    /* \"#utility.yul\":7219:7259   */\n  iszero\n  tag_141\n  jumpi\n    /* \"#utility.yul\":7239:7257   */\n  tag_142\n  tag_49\n  jump\t// in\ntag_142:\n    /* \"#utility.yul\":7219:7259   */\ntag_141:\n    /* \"#utility.yul\":7272:7277   */\n  jump(tag_130)\n    /* \"#utility.yul\":7041:7287   */\ntag_140:\n    /* \"#utility.yul\":7312:7354   */\n  tag_143\n    /* \"#utility.yul\":7350:7353   */\n  dup5\n    /* \"#utility.yul\":7340:7348   */\n  dup5\n    /* \"#utility.yul\":7334:7338   */\n  dup5\n    /* \"#utility.yul\":7331:7332   */\n  0x01\n    /* \"#utility.yul\":7312:7354   */\n  tag_51\n  jump\t// in\ntag_143:\n    /* \"#utility.yul\":7297:7354   */\n  swap3\n  pop\n  swap1\n  pop\n    /* \"#utility.yul\":7386:7390   */\n  dup2\n    /* \"#utility.yul\":7381:7384   */\n  dup5\n    /* \"#utility.yul\":7377:7391   */\n  div\n    /* \"#utility.yul\":7370:7375   */\n  dup2\n    /* \"#utility.yul\":7367:7392   */\n  gt\n    /* \"#utility.yul\":7364:7415   */\n  iszero\n  tag_144\n  jumpi\n    /* \"#utility.yul\":7395:7413   */\n  tag_145\n  tag_49\n  jump\t// in\ntag_145:\n    /* \"#utility.yul\":7364:7415   */\ntag_144:\n    /* \"#utility.yul\":7444:7448   */\n  dup2\n    /* \"#utility.yul\":7437:7442   */\n  dup2\n    /* \"#utility.yul\":7433:7449   */\n  mul\n    /* \"#utility.yul\":7424:7449   */\n  swap1\n  pop\n    /* \"#utility.yul\":6382:7455   */\ntag_130:\n  swap4\n  swap3\n  pop\n  pop\n  pop\n  jump\t// out\n    /* \"#utility.yul\":7461:7547   */\ntag_53:\n    /* \"#utility.yul\":7496:7503   */\n  0x00\n    /* \"#utility.yul\":7536:7540   */\n  0xff\n    /* \"#utility.yul\":7529:7534   */\n  dup3\n    /* \"#utility.yul\":7525:7541   */\n  and\n    /* \"#utility.yul\":7514:7541   */\n  swap1\n  pop\n    /* \"#utility.yul\":7461:7547   */\n  swap2\n  swap1\n  pop\n  jump\t// out\n    /* \"#utility.yul\":7553:7834   */\ntag_8:\n    /* \"#utility.yul\":7611:7616   */\n  0x00\n    /* \"#utility.yul\":7635:7658   */\n  tag_148\n    /* \"#utility.yul\":7653:7657   */\n  dup3\n    /* \"#utility.yul\":7635:7658   */\n  tag_37\n  jump\t// in\ntag_148:\n    /* \"#utility.yul\":7627:7658   */\n  swap2\n  pop\n    /* \"#utility.yul\":7679:7704   */\n  tag_149\n    /* \"#utility.yul\":7695:7703   */\n  dup4\n    /* \"#utility.yul\":7679:7704   */\n  tag_53\n  jump\t// in\ntag_149:\n    /* \"#utility.yul\":7667:7704   */\n  swap3\n  pop\n    /* \"#utility.yul\":7723:7827   */\n  tag_150\n    /* \"#utility.yul\":7760:7826   */\n  0xffffffffffffffffffffffffffffffffffffffffffffffffffffffffffffffff\n    /* \"#utility.yul\":7750:7758   */\n  dup5\n    /* \"#utility.yul\":7744:7748   */\n  dup5\n    /* \"#utility.yul\":7723:7827   */\n  tag_52\n  jump\t// in\ntag_150:\n    /* \"#utility.yul\":7714:7827   */\n  swap1\n  pop\n    /* \"#utility.yul\":7553:7834   */\n  swap3\n  swap2\n  pop\n  pop\n  jump\t// out\n    /* \"#utility.yul\":7840:8250   */\ntag_10:\n    /* \"#utility.yul\":7880:7887   */\n  0x00\n    /* \"#utility.yul\":7903:7923   */\n  tag_152\n    /* \"#utility.yul\":7921:7922   */\n  dup3\n    /* \"#utility.yul\":7903:7923   */\n  tag_37\n  jump\t// in\ntag_152:\n    /* \"#utility.yul\":7898:7923   */\n  swap2\n  pop\n    /* \"#utility.yul\":7937:7957   */\n  tag_153\n    /* \"#utility.yul\":7955:7956   */\n  dup4\n    /* \"#utility.yul\":7937:7957   */\n  tag_37\n  jump\t// in\ntag_153:\n    /* \"#utility.yul\":7932:7957   */\n  swap3\n  pop\n    /* \"#utility.yul\":7992:7993   */\n  dup3\n    /* \"#utility.yul\":7989:7990   */\n  dup3\n    /* \"#utility.yul\":7985:7994   */\n  mul\n    /* \"#utility.yul\":8014:8044   */\n  tag_154\n    /* \"#utility.yul\":8032:8043   */\n  dup2\n    /* \"#utility.yul\":8014:8044   */\n  tag_37\n  jump\t// in\ntag_154:\n    /* \"#utility.yul\":8003:8044   */\n  swap2\n  pop\n    /* \"#utility.yul\":8193:8194   */\n  dup3\n    /* \"#utility.yul\":8184:8191   */\n  dup3\n    /* \"#utility.yul\":8180:8195   */\n  div\n    /* \"#utility.yul\":8177:8178   */\n  dup5\n    /* \"#utility.yul\":8174:8196   */\n  eq\n    /* \"#utility.yul\":8154:8155   */\n  dup4\n    /* \"#utility.yul\":8147:8156   */\n  iszero\n    /* \"#utility.yul\":8127:8210   */\n  or\n    /* \"#utility.yul\":8104:8243   */\n  tag_155\n  jumpi\n    /* \"#utility.yul\":8223:8241   */\n  tag_156\n  tag_49\n  jump\t// in\ntag_156:\n    /* \"#utility.yul\":8104:8243   */\ntag_155:\n    /* \"#utility.yul\":7888:8250   */\n  pop\n    /* \"#utility.yul\":7840:8250   */\n  swap3\n  swap2\n  pop\n  pop\n  jump\t// out\n    /* \"#utility.yul\":8256:8425   */\ntag_54:\n    /* \"#utility.yul\":8340:8351   */\n  0x00\n    /* \"#utility.yul\":8374:8380   */\n  dup3\n    /* \"#utility.yul\":8369:8372   */\n  dup3\n    /* \"#utility.yul\":8362:8381   */\n  mstore\n    /* \"#utility.yul\":8414:8418   */\n  0x20\n    /* \"#utility.yul\":8409:8412   */\n  dup3\n    /* \"#utility.yul\":8405:8419   */\n  add\n    /* \"#utility.yul\":8390:8419   */\n  swap1\n  pop\n    /* \"#utility.yul\":8256:8425   */\n  swap3\n  swap2\n  pop\n  pop\n  jump\t// out\n    /* \"#utility.yul\":8431:8593   */\ntag_55:\n    /* \"#utility.yul\":8571:8585   */\n  0x7a65726f20616464726573730000000000000000000000000000000000000000\n    /* \"#utility.yul\":8567:8568   */\n  0x00\n    /* \"#utility.yul\":8559:8565   */\n  dup3\n    /* \"#utility.yul\":8555:8569   */\n  add\n    /* \"#utility.yul\":8548:8586   */\n  mstore\n    /* \"#utility.yul\":8431:8593   */\n  pop\n  jump\t// out\n    /* \"#utility.yul\":8599:8965   */\ntag_56:\n    /* \"#utility.yul\":8741:8744   */\n  0x00\n    /* \"#utility.yul\":8762:8829   */\n  tag_160\n    /* \"#utility.yul\":8826:8828   */\n  0x0c\n    /* \"#utility.yul\":8821:8824   */\n  dup4\n    /* \"#utility.yul\":8762:8829   */\n  tag_54\n  jump\t// in\ntag_160:\n    /* \"#utility.yul\":8755:8829   */\n  swap2\n  pop\n    /* \"#utility.yul\":8838:8931   */\n  tag_161\n    /* \"#utility.yul\":8927:8930   */\n  dup3\n    /* \"#utility.yul\":8838:8931   */\n  tag_55\n  jump\t// in\ntag_161:\n    /* \"#utility.yul\":8956:8958   */\n  0x20\n    /* \"#utility.yul\":8951:8954   */\n  dup3\n    /* \"#utility.yul\":8947:8959   */\n  add\n    /* \"#utility.yul\":8940:8959   */\n  swap1\n  pop\n    /* \"#utility.yul\":8599:8965   */\n  swap2\n  swap1\n  pop\n  jump\t// out\n    /* \"#utility.yul\":8971:9390   */\ntag_21:\n    /* \"#utility.yul\":9137:9141   */\n  0x00\n    /* \"#utility.yul\":9175:9177   */\n  0x20\n    /* \"#utility.yul\":9164:9173   */\n  dup3\n    /* \"#utility.yul\":9160:9178   */\n  add\n    /* \"#utility.yul\":9152:9178   */\n  swap1\n  pop\n    /* \"#utility.yul\":9224:9233   */\n  dup2\n    /* \"#utility.yul\":9218:9222   */\n  dup2\n    /* \"#utility.yul\":9214:9234   */\n  sub\n    /* \"#utility.yul\":9210:9211   */\n  0x00\n    /* \"#utility.yul\":9199:9208   */\n  dup4\n    /* \"#utility.yul\":9195:9212   */\n  add\n    /* \"#utility.yul\":9188:9235   */\n  mstore\n    /* \"#utility.yul\":9252:9383   */\n  tag_163\n    /* \"#utility.yul\":9378:9382   */\n  dup2\n    /* \"#utility.yul\":9252:9383   */\n  tag_56\n  jump\t// in\ntag_163:\n    /* \"#utility.yul\":9244:9383   */\n  swap1\n  pop\n    /* \"#utility.yul\":8971:9390   */\n  swap2\n  swap1\n  pop\n  jump\t// out\n    /* \"#utility.yul\":9396:9587   */\ntag_23:\n    /* \"#utility.yul\":9436:9439   */\n  0x00\n    /* \"#utility.yul\":9455:9475   */\n  tag_165\n    /* \"#utility.yul\":9473:9474   */\n  dup3\n    /* \"#utility.yul\":9455:9475   */\n  tag_37\n  jump\t// in\ntag_165:\n    /* \"#utility.yul\":9450:9475   */\n  swap2\n  pop\n    /* \"#utility.yul\":9489:9509   */\n  tag_166\n    /* \"#utility.yul\":9507:9508   */\n  dup4\n    /* \"#utility.yul\":9489:9509   */\n  tag_37\n  jump\t// in\ntag_166:\n    /* \"#utility.yul\":9484:9509   */\n  swap3\n  pop\n    /* \"#utility.yul\":9532:9533   */\n  dup3\n    /* \"#utility.yul\":9529:9530   */\n  dup3\n    /* \"#utility.yul\":9525:9534   */\n  add\n    /* \"#utility.yul\":9518:9534   */\n  swap1\n  pop\n    /* \"#utility.yul\":9553:9556   */\n  dup1\n    /* \"#utility.yul\":9550:9551   */\n  dup3\n    /* \"#utility.yul\":9547:9557   */\n  gt\n    /* \"#utility.yul\":9544:9580   */\n  iszero\n  tag_167\n  jumpi\n    /* \"#utility.yul\":9560:9578   */\n  tag_168\n  tag_49\n  jump\t// in\ntag_168:\n    /* \"#utility.yul\":9544:9580   */\ntag_167:\n    /* \"#utility.yul\":9396:9587   */\n  swap3\n  swap2\n  pop\n  pop\n  jump\t// out\n    /* \"#utility.yul\":9593:9711   */\ntag_57:\n    /* \"#utility.yul\":9680:9704   */\n  tag_170\n    /* \"#utility.yul\":9698:9703   */\n  dup2\n    /* \"#utility.yul\":9680:9704   */\n  tag_37\n  jump\t// in\ntag_170:\n    /* \"#utility.yul\":9675:9678   */\n  dup3\n    /* \"#utility.yul\":9668:9705   */\n  mstore\n    /* \"#utility.yul\":9593:9711   */\n  pop\n  pop\n  jump\t// out\n    /* \"#utility.yul\":9717:9939   */\ntag_28:\n    /* \"#utility.yul\":9810:9814   */\n  0x00\n    /* \"#utility.yul\":9848:9850   */\n  0x20\n    /* \"#utility.yul\":9837:9846   */\n  dup3\n    /* \"#utility.yul\":9833:9851   */\n  add\n    /* \"#utility.yul\":9825:9851   */\n  swap1\n  pop\n    /* \"#utility.yul\":9861:9932   */\n  tag_172\n    /* \"#utility.yul\":9929:9930   */\n  0x00\n    /* \"#utility.yul\":9918:9927   */\n  dup4\n    /* \"#utility.yul\":9914:9931   */\n  add\n    /* \"#utility.yul\":9905:9911   */\n  dup5\n    /* \"#utility.yul\":9861:9932   */\n  tag_57\n  jump\t// in\ntag_172:\n    /* \"#utility.yul\":9717:9939   */\n  swap3\n  swap2\n  pop\n  pop\n  jump\t// out\n    /* \"smart_contracts/contracts/token/Token.sol\":713:8111  contract Token is TokenState {... */\ntag_16:\n  dataSize(sub_0)\n  dup1\n  dataOffset(sub_0)\n  0x00\n  codecopy\n  0x00\n  return\nstop\n\nsub_0: assembly {\n        /* \"smart_contracts/contracts/token/Token.sol\":713:8111  contract Token is TokenState {... */\n      mstore(0x40, 0x80)\n      callvalue\n      dup1\n      iszero\n      tag_1\n      jumpi\n      0x00\n      dup1\n      revert\n    tag_1:\n      pop\n      jumpi(tag_2, lt(calldatasize, 0x04))\n      shr(0xe0, calldataload(0x00))\n      dup1\n      0x70a08231\n      gt\n      tag_15\n      jumpi\n      dup1\n      0x70a08231\n      eq\n      tag_9\n      jumpi\n      dup1\n      0x95d89b41\n      eq\n      tag_10\n      jumpi\n      dup1\n      0xa457c2d7\n      eq\n      tag_11\n      jumpi\n      dup1\n      0xa9059cbb\n      eq\n      tag_12\n      jumpi\n      dup1\n      0xd5abeb01\n      eq\n      tag_13\n      jumpi\n      dup1\n      0xdd62ed3e\n      eq\n      tag_14\n      jumpi\n      jump(tag_2)\n    tag_15:\n      dup1\n      0x06fdde03\n      eq\n      tag_3\n      jumpi\n      dup1\n      0x095ea7b3\n      eq\n      tag_4\n      jumpi\n      dup1\n      0x18160ddd\n      eq\n      tag_5\n      jumpi\n      dup1\n      0x23b872dd\n      eq\n      tag_6\n      jumpi\n      dup1\n      0x313ce567\n      eq\n      tag_7\n      jumpi\n      dup1\n      0x39509351\n      eq\n      tag_8\n      jumpi\n    tag_2:\n      0x00\n      dup1\n      revert\n        /* \"smart_contracts/contracts/token/Token.sol\":1442:1513  function name() public view returns (string memory) {return meta.name;} */\n    tag_3:\n      tag_16\n      tag_17\n      jump\t// in\n    tag_16:\n      mload(0x40)\n      tag_18\n      swap2\n      swap1\n      tag_19\n      jump\t// in\n    tag_18:\n      mload(0x40)\n      dup1\n      swap2\n      sub\n      swap1\n      return\n        /* \"smart_contracts/contracts/token/Token.sol\":4958:5251  function approve(address _spender, uint256 _value) public returns (bool success) {... */\n    tag_4:\n      tag_20\n      0x04\n      dup1\n      calldatasize\n      sub\n      dup2\n      add\n      swap1\n      tag_21\n      swap2\n      swap1\n      tag_22\n      jump\t// in\n    tag_21:\n      tag_23\n      jump\t// in\n    tag_20:\n      mload(0x40)\n      tag_24\n      swap2\n      swap1\n      tag_25\n      jump\t// in\n    tag_24:\n      mload(0x40)\n      dup1\n      swap2\n      sub\n      swap1\n      return\n        /* \"smart_contracts/contracts/token/Token.sol\":1674:1753  function totalSupply() public view returns (uint256) {return meta.totalSupply;} */\n    tag_5:\n      tag_26\n      tag_27\n      jump\t// in\n    tag_26:\n      mload(0x40)\n      tag_28\n      swap2\n      swap1\n      tag_29\n      jump\t// in\n    tag_28:\n      mload(0x40)\n      dup1\n      swap2\n      sub\n      swap1\n      return\n        /* \"smart_contracts/contracts/token/Token.sol\":5257:7541  function transferFrom(address _from, address _to, uint256 _value) public returns (bool) {... */\n    tag_6:\n      tag_30\n      0x04\n      dup1\n      calldatasize\n      sub\n      dup2\n      add\n      swap1\n      tag_31\n      swap2\n      swap1\n      tag_32\n      jump\t// in\n    tag_31:\n      tag_33\n      jump\t// in\n    tag_30:\n      mload(0x40)\n      tag_34\n      swap2\n      swap1\n      tag_25\n      jump\t// in\n    tag_34:\n      mload(0x40)\n      dup1\n      swap2\n      sub\n      swap1\n      return\n        /* \"smart_contracts/contracts/token/Token.sol\":1598:1669  function decimals() public view returns (uint8) {return meta.decimals;} */\n    tag_7:\n      tag_35\n      tag_36\n      jump\t// in\n    tag_35:\n      mload(0x40)\n      tag_37\n      swap2\n      swap1\n      tag_38\n      jump\t// in\n    tag_37:\n      mload(0x40)\n      dup1\n      swap2\n      sub\n      swap1\n      return\n        /* \"smart_contracts/contracts/token/Token.sol\":4149:4508  function increaseAllowance(address _spender, uint256 _value) public returns (bool) {... */\n    tag_8:\n      tag_39\n      0x04\n      dup1\n      calldatasize\n      sub\n      dup2\n      add\n      swap1\n      tag_40\n      swap2\n      swap1\n      tag_22\n      jump\t// in\n    tag_40:\n      tag_41\n      jump\t// in\n    tag_39:\n      mload(0x40)\n      tag_42\n      swap2\n      swap1\n      tag_25\n      jump\t// in\n    tag_42:\n      mload(0x40)\n      dup1\n      swap2\n      sub\n      swap1\n      return\n        /* \"smart_contracts/contracts/token/Token.sol\":1839:1998  function balanceOf(address _owner) public view returns (uint256) {... */\n    tag_9:\n      tag_43\n      0x04\n      dup1\n      calldatasize\n      sub\n      dup2\n      add\n      swap1\n      tag_44\n      swap2\n      swap1\n      tag_45\n      jump\t// in\n    tag_44:\n      tag_46\n      jump\t// in\n    tag_43:\n      mload(0x40)\n      tag_47\n      swap2\n      swap1\n      tag_29\n      jump\t// in\n    tag_47:\n      mload(0x40)\n      dup1\n      swap2\n      sub\n      swap1\n      return\n        /* \"smart_contracts/contracts/token/Token.sol\":1518:1593  function symbol() public view returns (string memory) {return meta.symbol;} */\n    tag_10:\n      tag_48\n      tag_49\n      jump\t// in\n    tag_48:\n      mload(0x40)\n      tag_50\n      swap2\n      swap1\n      tag_19\n      jump\t// in\n    tag_50:\n      mload(0x40)\n      dup1\n      swap2\n      sub\n      swap1\n      return\n        /* \"smart_contracts/contracts/token/Token.sol\":4514:4952  function decreaseAllowance(address _spender, uint256 _value) public returns (bool) {... */\n    tag_11:\n      tag_51\n      0x04\n      dup1\n      calldatasize\n      sub\n      dup2\n      add\n      swap1\n      tag_52\n      swap2\n      swap1\n      tag_22\n      jump\t// in\n    tag_52:\n      tag_53\n      jump\t// in\n    tag_51:\n      mload(0x40)\n      tag_54\n      swap2\n      swap1\n      tag_25\n      jump\t// in\n    tag_54:\n      mload(0x40)\n      dup1\n      swap2\n      sub\n      swap1\n      return\n        /* \"smart_contracts/contracts/token/Token.sol\":2004:4010  function transfer(address _to, uint256 _value) public returns (bool sucess) {... */\n    tag_12:\n      tag_55\n      0x04\n      dup1\n      calldatasize\n      sub\n      dup2\n      add\n      swap1\n      tag_56\n      swap2\n      swap1\n      tag_22\n      jump\t// in\n    tag_56:\n      tag_57\n      jump\t// in\n    tag_55:\n      mload(0x40)\n      tag_58\n      swap2\n      swap1\n      tag_25\n      jump\t// in\n    tag_58:\n      mload(0x40)\n      dup1\n      swap2\n      sub\n      swap1\n      return\n        /* \"smart_contracts/contracts/token/Token.sol\":1758:1833  function maxSupply() public view returns (uint256) {return meta.maxSupply;} */\n    tag_13:\n      tag_59\n      tag_60\n      jump\t// in\n    tag_59:\n      mload(0x40)\n      tag_61\n      swap2\n      swap1\n      tag_29\n      jump\t// in\n    tag_61:\n      mload(0x40)\n      dup1\n      swap2\n      sub\n      swap1\n      return\n        /* \"smart_contracts/contracts/token/Token.sol\":4016:4144  function allowance(address _owner, address _spender) public view returns (uint256 remaining) {return allowed[_owner][_spender];} */\n    tag_14:\n      tag_62\n      0x04\n      dup1\n      calldatasize\n      sub\n      dup2\n      add\n      swap1\n      tag_63\n      swap2\n      swap1\n      tag_64\n      jump\t// in\n    tag_63:\n      tag_65\n      jump\t// in\n    tag_62:\n      mload(0x40)\n      tag_66\n      swap2\n      swap1\n      tag_29\n      jump\t// in\n    tag_66:\n      mload(0x40)\n      dup1\n      swap2\n      sub\n      swap1\n      return\n        /* \"smart_contracts/contracts/token/Token.sol\":1442:1513  function name() public view returns (string memory) {return meta.name;} */\n    tag_17:\n        /* \"smart_contracts/contracts/token/Token.sol\":1479:1492  string memory */\n      0x60\n        /* \"smart_contracts/contracts/token/Token.sol\":1502:1506  meta */\n      0x02\n        /* \"smart_contracts/contracts/token/Token.sol\":1502:1511  meta.name */\n      0x00\n      add\n        /* \"smart_contracts/contracts/token/Token.sol\":1495:1511  return meta.name */\n      dup1\n      sload\n      tag_68\n      swap1\n      tag_69\n      jump\t// in\n    tag_68:\n      dup1\n      0x1f\n      add\n      0x20\n      dup1\n      swap2\n      div\n      mul\n      0x20\n      add\n      mload(0x40)\n      swap1\n      dup2\n      add\n      0x40\n      mstore\n      dup1\n      swap3\n      swap2\n      swap1\n      dup2\n      dup2\n      mstore\n      0x20\n      add\n      dup3\n      dup1\n      sload\n      tag_70\n      swap1\n      tag_69\n      jump\t// in\n    tag_70:\n      dup1\n      iszero\n      tag_71\n      jumpi\n      dup1\n      0x1f\n      lt\n      tag_72\n      jumpi\n      0x0100\n      dup1\n      dup4\n      sload\n      div\n      mul\n      dup4\n      mstore\n      swap2\n      0x20\n      add\n      swap2\n      jump(tag_71)\n    tag_72:\n      dup3\n      add\n      swap2\n      swap1\n      0x00\n      mstore\n      keccak256(0x00, 0x20)\n      swap1\n    tag_73:\n      dup2\n      sload\n      dup2\n      mstore\n      swap1\n      0x01\n      add\n      swap1\n      0x20\n      add\n      dup1\n      dup4\n      gt\n      tag_73\n      jumpi\n      dup3\n      swap1\n      sub\n      0x1f\n      and\n      dup3\n      add\n      swap2\n    tag_71:\n      pop\n      pop\n      pop\n      pop\n      pop\n      swap1\n      pop\n        /* \"smart_contracts/contracts/token/Token.sol\":1442:1513  function name() public view returns (string memory) {return meta.name;} */\n      swap1\n      jump\t// out\n        /* \"smart_contracts/contracts/token/Token.sol\":4958:5251  function approve(address _spender, uint256 _value) public returns (bool success) {... */\n    tag_23:\n        /* \"smart_contracts/contracts/token/Token.sol\":5025:5037  bool success */\n      0x00\n        /* \"smart_contracts/contracts/token/Token.sol\":5078:5079  0 */\n      dup1\n        /* \"smart_contracts/contracts/token/Token.sol\":5058:5080  sender() != address(0) */\n      0xffffffffffffffffffffffffffffffffffffffff\n      and\n        /* \"smart_contracts/contracts/token/Token.sol\":5058:5066  sender() */\n      tag_75\n        /* \"smart_contracts/contracts/token/Token.sol\":5058:5064  sender */\n      tag_76\n        /* \"smart_contracts/contracts/token/Token.sol\":5058:5066  sender() */\n      jump\t// in\n    tag_75:\n        /* \"smart_contracts/contracts/token/Token.sol\":5058:5080  sender() != address(0) */\n      0xffffffffffffffffffffffffffffffffffffffff\n      and\n      eq\n      iszero\n        /* \"smart_contracts/contracts/token/Token.sol\":5057:5109  (sender() != address(0)) && (_spender != address(0)) */\n      dup1\n      iszero\n      tag_77\n      jumpi\n      pop\n        /* \"smart_contracts/contracts/token/Token.sol\":5106:5107  0 */\n      0x00\n        /* \"smart_contracts/contracts/token/Token.sol\":5086:5108  _spender != address(0) */\n      0xffffffffffffffffffffffffffffffffffffffff\n      and\n        /* \"smart_contracts/contracts/token/Token.sol\":5086:5094  _spender */\n      dup4\n        /* \"smart_contracts/contracts/token/Token.sol\":5086:5108  _spender != address(0) */\n      0xffffffffffffffffffffffffffffffffffffffff\n      and\n      eq\n      iszero\n        /* \"smart_contracts/contracts/token/Token.sol\":5057:5109  (sender() != address(0)) && (_spender != address(0)) */\n    tag_77:\n        /* \"smart_contracts/contracts/token/Token.sol\":5049:5126  require((sender() != address(0)) && (_spender != address(0)), \"zero address\") */\n      tag_78\n      jumpi\n      mload(0x40)\n      0x08c379a000000000000000000000000000000000000000000000000000000000\n      dup2\n      mstore\n      0x04\n      add\n      tag_79\n      swap1\n      tag_80\n      jump\t// in\n    tag_79:\n      mload(0x40)\n      dup1\n      swap2\n      sub\n      swap1\n      revert\n    tag_78:\n        /* \"smart_contracts/contracts/token/Token.sol\":5166:5172  _value */\n      dup2\n        /* \"smart_contracts/contracts/token/Token.sol\":5136:5143  allowed */\n      0x09\n        /* \"smart_contracts/contracts/token/Token.sol\":5136:5153  allowed[sender()] */\n      0x00\n        /* \"smart_contracts/contracts/token/Token.sol\":5144:5152  sender() */\n      tag_81\n        /* \"smart_contracts/contracts/token/Token.sol\":5144:5150  sender */\n      tag_76\n        /* \"smart_contracts/contracts/token/Token.sol\":5144:5152  sender() */\n      jump\t// in\n    tag_81:\n        /* \"smart_contracts/contracts/token/Token.sol\":5136:5153  allowed[sender()] */\n      0xffffffffffffffffffffffffffffffffffffffff\n      and\n      0xffffffffffffffffffffffffffffffffffffffff\n      and\n      dup2\n      mstore\n      0x20\n      add\n      swap1\n      dup2\n      mstore\n      0x20\n      add\n      0x00\n      keccak256\n        /* \"smart_contracts/contracts/token/Token.sol\":5136:5163  allowed[sender()][_spender] */\n      0x00\n        /* \"smart_contracts/contracts/token/Token.sol\":5154:5162  _spender */\n      dup6\n        /* \"smart_contracts/contracts/token/Token.sol\":5136:5163  allowed[sender()][_spender] */\n      0xffffffffffffffffffffffffffffffffffffffff\n      and\n      0xffffffffffffffffffffffffffffffffffffffff\n      and\n      dup2\n      mstore\n      0x20\n      add\n      swap1\n      dup2\n      mstore\n      0x20\n      add\n      0x00\n      keccak256\n        /* \"smart_contracts/contracts/token/Token.sol\":5136:5172  allowed[sender()][_spender] = _value */\n      dup2\n      swap1\n      sstore\n      pop\n        /* \"smart_contracts/contracts/token/Token.sol\":5206:5214  _spender */\n      dup3\n        /* \"smart_contracts/contracts/token/Token.sol\":5187:5223  Approval(sender(), _spender, _value) */\n      0xffffffffffffffffffffffffffffffffffffffff\n      and\n        /* \"smart_contracts/contracts/token/Token.sol\":5196:5204  sender() */\n      tag_82\n        /* \"smart_contracts/contracts/token/Token.sol\":5196:5202  sender */\n      tag_76\n        /* \"smart_contracts/contracts/token/Token.sol\":5196:5204  sender() */\n      jump\t// in\n    tag_82:\n        /* \"smart_contracts/contracts/token/Token.sol\":5187:5223  Approval(sender(), _spender, _value) */\n      0xffffffffffffffffffffffffffffffffffffffff\n      and\n      0x8c5be1e5ebec7d5bd14f71427d1e84f3dd0314c0f7b2291e5b200ac8c7c3b925\n        /* \"smart_contracts/contracts/token/Token.sol\":5216:5222  _value */\n      dup5\n        /* \"smart_contracts/contracts/token/Token.sol\":5187:5223  Approval(sender(), _spender, _value) */\n      mload(0x40)\n      tag_83\n      swap2\n      swap1\n      tag_29\n      jump\t// in\n    tag_83:\n      mload(0x40)\n      dup1\n      swap2\n      sub\n      swap1\n      log3\n        /* \"smart_contracts/contracts/token/Token.sol\":5240:5244  true */\n      0x01\n        /* \"smart_contracts/contracts/token/Token.sol\":5233:5244  return true */\n      swap1\n      pop\n        /* \"smart_contracts/contracts/token/Token.sol\":4958:5251  function approve(address _spender, uint256 _value) public returns (bool success) {... */\n      swap3\n      swap2\n      pop\n      pop\n      jump\t// out\n        /* \"smart_contracts/contracts/token/Token.sol\":1674:1753  function totalSupply() public view returns (uint256) {return meta.totalSupply;} */\n    tag_27:\n        /* \"smart_contracts/contracts/token/Token.sol\":1718:1725  uint256 */\n      0x00\n        /* \"smart_contracts/contracts/token/Token.sol\":1735:1739  meta */\n      0x02\n        /* \"smart_contracts/contracts/token/Token.sol\":1735:1751  meta.totalSupply */\n      0x03\n      add\n      sload\n        /* \"smart_contracts/contracts/token/Token.sol\":1728:1751  return meta.totalSupply */\n      swap1\n      pop\n        /* \"smart_contracts/contracts/token/Token.sol\":1674:1753  function totalSupply() public view returns (uint256) {return meta.totalSupply;} */\n      swap1\n      jump\t// out\n        /* \"smart_contracts/contracts/token/Token.sol\":5257:7541  function transferFrom(address _from, address _to, uint256 _value) public returns (bool) {... */\n    tag_33:\n        /* \"smart_contracts/contracts/token/Token.sol\":5339:5343  bool */\n      0x00\n        /* \"smart_contracts/contracts/token/Token.sol\":5393:5410  type(uint256).max */\n      0xffffffffffffffffffffffffffffffffffffffffffffffffffffffffffffffff\n        /* \"smart_contracts/contracts/token/Token.sol\":5363:5389  allowance(_from, sender()) */\n      tag_86\n        /* \"smart_contracts/contracts/token/Token.sol\":5373:5378  _from */\n      dup6\n        /* \"smart_contracts/contracts/token/Token.sol\":5380:5388  sender() */\n      tag_87\n        /* \"smart_contracts/contracts/token/Token.sol\":5380:5386  sender */\n      tag_76\n        /* \"smart_contracts/contracts/token/Token.sol\":5380:5388  sender() */\n      jump\t// in\n    tag_87:\n        /* \"smart_contracts/contracts/token/Token.sol\":5363:5372  allowance */\n      tag_65\n        /* \"smart_contracts/contracts/token/Token.sol\":5363:5389  allowance(_from, sender()) */\n      jump\t// in\n    tag_86:\n        /* \"smart_contracts/contracts/token/Token.sol\":5363:5410  allowance(_from, sender()) != type(uint256).max */\n      sub\n        /* \"smart_contracts/contracts/token/Token.sol\":5355:5411  require(allowance(_from, sender()) != type(uint256).max) */\n      tag_88\n      jumpi\n      0x00\n      dup1\n      revert\n    tag_88:\n        /* \"smart_contracts/contracts/token/Token.sol\":5459:5465  _value */\n      dup2\n        /* \"smart_contracts/contracts/token/Token.sol\":5429:5455  allowance(_from, sender()) */\n      tag_89\n        /* \"smart_contracts/contracts/token/Token.sol\":5439:5444  _from */\n      dup6\n        /* \"smart_contracts/contracts/token/Token.sol\":5446:5454  sender() */\n      tag_90\n        /* \"smart_contracts/contracts/token/Token.sol\":5446:5452  sender */\n      tag_76\n        /* \"smart_contracts/contracts/token/Token.sol\":5446:5454  sender() */\n      jump\t// in\n    tag_90:\n        /* \"smart_contracts/contracts/token/Token.sol\":5429:5438  allowance */\n      tag_65\n        /* \"smart_contracts/contracts/token/Token.sol\":5429:5455  allowance(_from, sender()) */\n      jump\t// in\n    tag_89:\n        /* \"smart_contracts/contracts/token/Token.sol\":5429:5465  allowance(_from, sender()) >= _value */\n      lt\n      iszero\n        /* \"smart_contracts/contracts/token/Token.sol\":5421:5466  require(allowance(_from, sender()) >= _value) */\n      tag_91\n      jumpi\n      0x00\n      dup1\n      revert\n    tag_91:\n        /* \"smart_contracts/contracts/token/Token.sol\":5501:5502  0 */\n      0x00\n        /* \"smart_contracts/contracts/token/Token.sol\":5484:5503  _from != address(0) */\n      0xffffffffffffffffffffffffffffffffffffffff\n      and\n        /* \"smart_contracts/contracts/token/Token.sol\":5484:5489  _from */\n      dup5\n        /* \"smart_contracts/contracts/token/Token.sol\":5484:5503  _from != address(0) */\n      0xffffffffffffffffffffffffffffffffffffffff\n      and\n      sub\n        /* \"smart_contracts/contracts/token/Token.sol\":5476:5504  require(_from != address(0)) */\n      tag_92\n      jumpi\n      0x00\n      dup1\n      revert\n    tag_92:\n        /* \"smart_contracts/contracts/token/Token.sol\":5542:5543  0 */\n      0x00\n        /* \"smart_contracts/contracts/token/Token.sol\":5522:5544  sender() != address(0) */\n      0xffffffffffffffffffffffffffffffffffffffff\n      and\n        /* \"smart_contracts/contracts/token/Token.sol\":5522:5530  sender() */\n      tag_93\n        /* \"smart_contracts/contracts/token/Token.sol\":5522:5528  sender */\n      tag_76\n        /* \"smart_contracts/contracts/token/Token.sol\":5522:5530  sender() */\n      jump\t// in\n    tag_93:\n        /* \"smart_contracts/contracts/token/Token.sol\":5522:5544  sender() != address(0) */\n      0xffffffffffffffffffffffffffffffffffffffff\n      and\n      sub\n        /* \"smart_contracts/contracts/token/Token.sol\":5514:5545  require(sender() != address(0)) */\n      tag_94\n      jumpi\n      0x00\n      dup1\n      revert\n    tag_94:\n        /* \"smart_contracts/contracts/token/Token.sol\":5578:5579  0 */\n      0x00\n        /* \"smart_contracts/contracts/token/Token.sol\":5563:5580  _to != address(0) */\n      0xffffffffffffffffffffffffffffffffffffffff\n      and\n        /* \"smart_contracts/contracts/token/Token.sol\":5563:5566  _to */\n      dup4\n        /* \"smart_contracts/contracts/token/Token.sol\":5563:5580  _to != address(0) */\n      0xffffffffffffffffffffffffffffffffffffffff\n      and\n      sub\n        /* \"smart_contracts/contracts/token/Token.sol\":5555:5581  require(_to != address(0)) */\n      tag_95\n      jumpi\n      0x00\n      dup1\n      revert\n    tag_95:\n        /* \"smart_contracts/contracts/token/Token.sol\":5617:5623  _value */\n      dup2\n        /* \"smart_contracts/contracts/token/Token.sol\":5599:5606  balance */\n      0x08\n        /* \"smart_contracts/contracts/token/Token.sol\":5599:5613  balance[_from] */\n      0x00\n        /* \"smart_contracts/contracts/token/Token.sol\":5607:5612  _from */\n      dup7\n        /* \"smart_contracts/contracts/token/Token.sol\":5599:5613  balance[_from] */\n      0xffffffffffffffffffffffffffffffffffffffff\n      and\n      0xffffffffffffffffffffffffffffffffffffffff\n      and\n      dup2\n      mstore\n      0x20\n      add\n      swap1\n      dup2\n      mstore\n      0x20\n      add\n      0x00\n      keccak256\n      sload\n        /* \"smart_contracts/contracts/token/Token.sol\":5599:5623  balance[_from] >= _value */\n      lt\n      iszero\n        /* \"smart_contracts/contracts/token/Token.sol\":5591:5648  require(balance[_from] >= _value, \"insufficient balance\") */\n      tag_96\n      jumpi\n      mload(0x40)\n      0x08c379a000000000000000000000000000000000000000000000000000000000\n      dup2\n      mstore\n      0x04\n      add\n      tag_97\n      swap1\n      tag_98\n      jump\t// in\n    tag_97:\n      mload(0x40)\n      dup1\n      swap2\n      sub\n      swap1\n      revert\n    tag_96:\n        /* \"smart_contracts/contracts/token/Token.sol\":5685:5686  0 */\n      0x00\n        /* \"smart_contracts/contracts/token/Token.sol\":5667:5674  balance */\n      0x08\n        /* \"smart_contracts/contracts/token/Token.sol\":5667:5681  balance[_from] */\n      0x00\n        /* \"smart_contracts/contracts/token/Token.sol\":5675:5680  _from */\n      dup7\n        /* \"smart_contracts/contracts/token/Token.sol\":5667:5681  balance[_from] */\n      0xffffffffffffffffffffffffffffffffffffffff\n      and\n      0xffffffffffffffffffffffffffffffffffffffff\n      and\n      dup2\n      mstore\n      0x20\n      add\n      swap1\n      dup2\n      mstore\n      0x20\n      add\n      0x00\n      keccak256\n      sload\n        /* \"smart_contracts/contracts/token/Token.sol\":5667:5686  balance[_from] >= 0 */\n      lt\n      iszero\n        /* \"smart_contracts/contracts/token/Token.sol\":5658:5688  require((balance[_from] >= 0)) */\n      tag_99\n      jumpi\n      0x00\n      dup1\n      revert\n    tag_99:\n        /* \"smart_contracts/contracts/token/Token.sol\":5725:5731  _value */\n      dup2\n        /* \"smart_contracts/contracts/token/Token.sol\":5698:5705  allowed */\n      0x09\n        /* \"smart_contracts/contracts/token/Token.sol\":5698:5712  allowed[_from] */\n      0x00\n        /* \"smart_contracts/contracts/token/Token.sol\":5706:5711  _from */\n      dup7\n        /* \"smart_contracts/contracts/token/Token.sol\":5698:5712  allowed[_from] */\n      0xffffffffffffffffffffffffffffffffffffffff\n      and\n      0xffffffffffffffffffffffffffffffffffffffff\n      and\n      dup2\n      mstore\n      0x20\n      add\n      swap1\n      dup2\n      mstore\n      0x20\n      add\n      0x00\n      keccak256\n        /* \"smart_contracts/contracts/token/Token.sol\":5698:5722  allowed[_from][sender()] */\n      0x00\n        /* \"smart_contracts/contracts/token/Token.sol\":5713:5721  sender() */\n      tag_100\n        /* \"smart_contracts/contracts/token/Token.sol\":5713:5719  sender */\n      tag_76\n        /* \"smart_contracts/contracts/token/Token.sol\":5713:5721  sender() */\n      jump\t// in\n    tag_100:\n        /* \"smart_contracts/contracts/token/Token.sol\":5698:5722  allowed[_from][sender()] */\n      0xffffffffffffffffffffffffffffffffffffffff\n      and\n      0xffffffffffffffffffffffffffffffffffffffff\n      and\n      dup2\n      mstore\n      0x20\n      add\n      swap1\n      dup2\n      mstore\n      0x20\n      add\n      0x00\n      keccak256\n        /* \"smart_contracts/contracts/token/Token.sol\":5698:5731  allowed[_from][sender()] = _value */\n      dup2\n      swap1\n      sstore\n      pop\n        /* \"smart_contracts/contracts/token/Token.sol\":5762:5770  sender() */\n      tag_101\n        /* \"smart_contracts/contracts/token/Token.sol\":5762:5768  sender */\n      tag_76\n        /* \"smart_contracts/contracts/token/Token.sol\":5762:5770  sender() */\n      jump\t// in\n    tag_101:\n        /* \"smart_contracts/contracts/token/Token.sol\":5746:5779  Approval(_from, sender(), _value) */\n      0xffffffffffffffffffffffffffffffffffffffff\n      and\n        /* \"smart_contracts/contracts/token/Token.sol\":5755:5760  _from */\n      dup5\n        /* \"smart_contracts/contracts/token/Token.sol\":5746:5779  Approval(_from, sender(), _value) */\n      0xffffffffffffffffffffffffffffffffffffffff\n      and\n      0x8c5be1e5ebec7d5bd14f71427d1e84f3dd0314c0f7b2291e5b200ac8c7c3b925\n        /* \"smart_contracts/contracts/token/Token.sol\":5772:5778  _value */\n      dup5\n        /* \"smart_contracts/contracts/token/Token.sol\":5746:5779  Approval(_from, sender(), _value) */\n      mload(0x40)\n      tag_102\n      swap2\n      swap1\n      tag_29\n      jump\t// in\n    tag_102:\n      mload(0x40)\n      dup1\n      swap2\n      sub\n      swap1\n      log3\n        /* \"smart_contracts/contracts/token/Token.sol\":5807:5813  _value */\n      dup2\n        /* \"smart_contracts/contracts/token/Token.sol\":5789:5796  balance */\n      0x08\n        /* \"smart_contracts/contracts/token/Token.sol\":5789:5803  balance[_from] */\n      0x00\n        /* \"smart_contracts/contracts/token/Token.sol\":5797:5802  _from */\n      dup7\n        /* \"smart_contracts/contracts/token/Token.sol\":5789:5803  balance[_from] */\n      0xffffffffffffffffffffffffffffffffffffffff\n      and\n      0xffffffffffffffffffffffffffffffffffffffff\n      and\n      dup2\n      mstore\n      0x20\n      add\n      swap1\n      dup2\n      mstore\n      0x20\n      add\n      0x00\n      keccak256\n      0x00\n        /* \"smart_contracts/contracts/token/Token.sol\":5789:5813  balance[_from] -= _value */\n      dup3\n      dup3\n      sload\n      tag_103\n      swap2\n      swap1\n      tag_104\n      jump\t// in\n    tag_103:\n      swap3\n      pop\n      pop\n      dup2\n      swap1\n      sstore\n      pop\n        /* \"smart_contracts/contracts/token/Token.sol\":5854:5855  0 */\n      0x00\n        /* \"smart_contracts/contracts/token/Token.sol\":5827:5835  settings */\n      dup1\n        /* \"smart_contracts/contracts/token/Token.sol\":5827:5850  settings.bpTransferBurn */\n      0x00\n      add\n      sload\n        /* \"smart_contracts/contracts/token/Token.sol\":5827:5855  settings.bpTransferBurn != 0 */\n      eq\n      iszero\n        /* \"smart_contracts/contracts/token/Token.sol\":5827:5887  settings.bpTransferBurn != 0 && settings.bpTransferBank != 0 */\n      dup1\n      iszero\n      tag_105\n      jumpi\n      pop\n        /* \"smart_contracts/contracts/token/Token.sol\":5886:5887  0 */\n      0x00\n        /* \"smart_contracts/contracts/token/Token.sol\":5859:5867  settings */\n      dup1\n        /* \"smart_contracts/contracts/token/Token.sol\":5859:5882  settings.bpTransferBank */\n      0x01\n      add\n      sload\n        /* \"smart_contracts/contracts/token/Token.sol\":5859:5887  settings.bpTransferBank != 0 */\n      eq\n      iszero\n        /* \"smart_contracts/contracts/token/Token.sol\":5827:5887  settings.bpTransferBurn != 0 && settings.bpTransferBank != 0 */\n    tag_105:\n        /* \"smart_contracts/contracts/token/Token.sol\":5823:7514  if (settings.bpTransferBurn != 0 && settings.bpTransferBank != 0) {... */\n      iszero\n      tag_106\n      jumpi\n        /* \"smart_contracts/contracts/token/Token.sol\":5903:5918  uint256 feeBurn */\n      0x00\n        /* \"smart_contracts/contracts/token/Token.sol\":5939:5947  settings */\n      dup1\n        /* \"smart_contracts/contracts/token/Token.sol\":5939:5962  settings.bpTransferBurn */\n      0x00\n      add\n      sload\n        /* \"smart_contracts/contracts/token/Token.sol\":5931:5935  1000 */\n      0x03e8\n        /* \"smart_contracts/contracts/token/Token.sol\":5922:5928  _value */\n      dup5\n        /* \"smart_contracts/contracts/token/Token.sol\":5922:5935  _value / 1000 */\n      tag_107\n      swap2\n      swap1\n      tag_108\n      jump\t// in\n    tag_107:\n        /* \"smart_contracts/contracts/token/Token.sol\":5921:5962  (_value / 1000) * settings.bpTransferBurn */\n      tag_109\n      swap2\n      swap1\n      tag_110\n      jump\t// in\n    tag_109:\n        /* \"smart_contracts/contracts/token/Token.sol\":5903:5962  uint256 feeBurn = (_value / 1000) * settings.bpTransferBurn */\n      swap1\n      pop\n        /* \"smart_contracts/contracts/token/Token.sol\":5976:5991  uint256 feeBank */\n      0x00\n        /* \"smart_contracts/contracts/token/Token.sol\":6012:6020  settings */\n      dup1\n        /* \"smart_contracts/contracts/token/Token.sol\":6012:6035  settings.bpTransferBank */\n      0x01\n      add\n      sload\n        /* \"smart_contracts/contracts/token/Token.sol\":6004:6008  1000 */\n      0x03e8\n        /* \"smart_contracts/contracts/token/Token.sol\":5995:6001  _value */\n      dup6\n        /* \"smart_contracts/contracts/token/Token.sol\":5995:6008  _value / 1000 */\n      tag_111\n      swap2\n      swap1\n      tag_108\n      jump\t// in\n    tag_111:\n        /* \"smart_contracts/contracts/token/Token.sol\":5994:6035  (_value / 1000) * settings.bpTransferBank */\n      tag_112\n      swap2\n      swap1\n      tag_110\n      jump\t// in\n    tag_112:\n        /* \"smart_contracts/contracts/token/Token.sol\":5976:6035  uint256 feeBank = (_value / 1000) * settings.bpTransferBank */\n      swap1\n      pop\n        /* \"smart_contracts/contracts/token/Token.sol\":6085:6092  feeBank */\n      dup1\n        /* \"smart_contracts/contracts/token/Token.sol\":6075:6082  feeBurn */\n      dup3\n        /* \"smart_contracts/contracts/token/Token.sol\":6075:6092  feeBurn + feeBank */\n      tag_113\n      swap2\n      swap1\n      tag_114\n      jump\t// in\n    tag_113:\n        /* \"smart_contracts/contracts/token/Token.sol\":6065:6071  _value */\n      dup5\n        /* \"smart_contracts/contracts/token/Token.sol\":6065:6093  _value - (feeBurn + feeBank) */\n      tag_115\n      swap2\n      swap1\n      tag_104\n      jump\t// in\n    tag_115:\n        /* \"smart_contracts/contracts/token/Token.sol\":6049:6056  balance */\n      0x08\n        /* \"smart_contracts/contracts/token/Token.sol\":6049:6061  balance[_to] */\n      0x00\n        /* \"smart_contracts/contracts/token/Token.sol\":6057:6060  _to */\n      dup8\n        /* \"smart_contracts/contracts/token/Token.sol\":6049:6061  balance[_to] */\n      0xffffffffffffffffffffffffffffffffffffffff\n      and\n      0xffffffffffffffffffffffffffffffffffffffff\n      and\n      dup2\n      mstore\n      0x20\n      add\n      swap1\n      dup2\n      mstore\n      0x20\n      add\n      0x00\n      keccak256\n      0x00\n        /* \"smart_contracts/contracts/token/Token.sol\":6049:6093  balance[_to] += _value - (feeBurn + feeBank) */\n      dup3\n      dup3\n      sload\n      tag_116\n      swap2\n      swap1\n      tag_114\n      jump\t// in\n    tag_116:\n      swap3\n      pop\n      pop\n      dup2\n      swap1\n      sstore\n      pop\n        /* \"smart_contracts/contracts/token/Token.sol\":6129:6136  feeBank */\n      dup1\n        /* \"smart_contracts/contracts/token/Token.sol\":6107:6114  balance */\n      0x08\n        /* \"smart_contracts/contracts/token/Token.sol\":6107:6125  balance[meta.bank] */\n      0x00\n        /* \"smart_contracts/contracts/token/Token.sol\":6115:6119  meta */\n      0x02\n        /* \"smart_contracts/contracts/token/Token.sol\":6115:6124  meta.bank */\n      0x05\n      add\n      0x00\n      swap1\n      sload\n      swap1\n      0x0100\n      exp\n      swap1\n      div\n      0xffffffffffffffffffffffffffffffffffffffff\n      and\n        /* \"smart_contracts/contracts/token/Token.sol\":6107:6125  balance[meta.bank] */\n      0xffffffffffffffffffffffffffffffffffffffff\n      and\n      0xffffffffffffffffffffffffffffffffffffffff\n      and\n      dup2\n      mstore\n      0x20\n      add\n      swap1\n      dup2\n      mstore\n      0x20\n      add\n      0x00\n      keccak256\n      0x00\n        /* \"smart_contracts/contracts/token/Token.sol\":6107:6136  balance[meta.bank] += feeBank */\n      dup3\n      dup3\n      sload\n      tag_117\n      swap2\n      swap1\n      tag_114\n      jump\t// in\n    tag_117:\n      swap3\n      pop\n      pop\n      dup2\n      swap1\n      sstore\n      pop\n        /* \"smart_contracts/contracts/token/Token.sol\":6170:6177  feeBurn */\n      dup2\n        /* \"smart_contracts/contracts/token/Token.sol\":6150:6154  meta */\n      0x02\n        /* \"smart_contracts/contracts/token/Token.sol\":6150:6166  meta.totalSupply */\n      0x03\n      add\n      0x00\n        /* \"smart_contracts/contracts/token/Token.sol\":6150:6177  meta.totalSupply -= feeBurn */\n      dup3\n      dup3\n      sload\n      tag_118\n      swap2\n      swap1\n      tag_104\n      jump\t// in\n    tag_118:\n      swap3\n      pop\n      pop\n      dup2\n      swap1\n      sstore\n      pop\n        /* \"smart_contracts/contracts/token/Token.sol\":6215:6218  _to */\n      dup5\n        /* \"smart_contracts/contracts/token/Token.sol\":6196:6249  Transfer(sender(), _to, _value - (feeBurn + feeBank)) */\n      0xffffffffffffffffffffffffffffffffffffffff\n      and\n        /* \"smart_contracts/contracts/token/Token.sol\":6205:6213  sender() */\n      tag_119\n        /* \"smart_contracts/contracts/token/Token.sol\":6205:6211  sender */\n      tag_76\n        /* \"smart_contracts/contracts/token/Token.sol\":6205:6213  sender() */\n      jump\t// in\n    tag_119:\n        /* \"smart_contracts/contracts/token/Token.sol\":6196:6249  Transfer(sender(), _to, _value - (feeBurn + feeBank)) */\n      0xffffffffffffffffffffffffffffffffffffffff\n      and\n      0xddf252ad1be2c89b69c2b068fc378daa952ba7f163c4a11628f55a4df523b3ef\n        /* \"smart_contracts/contracts/token/Token.sol\":6240:6247  feeBank */\n      dup4\n        /* \"smart_contracts/contracts/token/Token.sol\":6230:6237  feeBurn */\n      dup6\n        /* \"smart_contracts/contracts/token/Token.sol\":6230:6247  feeBurn + feeBank */\n      tag_120\n      swap2\n      swap1\n      tag_114\n      jump\t// in\n    tag_120:\n        /* \"smart_contracts/contracts/token/Token.sol\":6220:6226  _value */\n      dup8\n        /* \"smart_contracts/contracts/token/Token.sol\":6220:6248  _value - (feeBurn + feeBank) */\n      tag_121\n      swap2\n      swap1\n      tag_104\n      jump\t// in\n    tag_121:\n        /* \"smart_contracts/contracts/token/Token.sol\":6196:6249  Transfer(sender(), _to, _value - (feeBurn + feeBank)) */\n      mload(0x40)\n      tag_122\n      swap2\n      swap1\n      tag_29\n      jump\t// in\n    tag_122:\n      mload(0x40)\n      dup1\n      swap2\n      sub\n      swap1\n      log3\n        /* \"smart_contracts/contracts/token/Token.sol\":6331:6332  0 */\n      0x00\n        /* \"smart_contracts/contracts/token/Token.sol\":6304:6343  Transfer(sender(), address(0), feeBurn) */\n      0xffffffffffffffffffffffffffffffffffffffff\n      and\n        /* \"smart_contracts/contracts/token/Token.sol\":6313:6321  sender() */\n      tag_123\n        /* \"smart_contracts/contracts/token/Token.sol\":6313:6319  sender */\n      tag_76\n        /* \"smart_contracts/contracts/token/Token.sol\":6313:6321  sender() */\n      jump\t// in\n    tag_123:\n        /* \"smart_contracts/contracts/token/Token.sol\":6304:6343  Transfer(sender(), address(0), feeBurn) */\n      0xffffffffffffffffffffffffffffffffffffffff\n      and\n      0xddf252ad1be2c89b69c2b068fc378daa952ba7f163c4a11628f55a4df523b3ef\n        /* \"smart_contracts/contracts/token/Token.sol\":6335:6342  feeBurn */\n      dup5\n        /* \"smart_contracts/contracts/token/Token.sol\":6304:6343  Transfer(sender(), address(0), feeBurn) */\n      mload(0x40)\n      tag_124\n      swap2\n      swap1\n      tag_29\n      jump\t// in\n    tag_124:\n      mload(0x40)\n      dup1\n      swap2\n      sub\n      swap1\n      log3\n        /* \"smart_contracts/contracts/token/Token.sol\":6430:6434  meta */\n      0x02\n        /* \"smart_contracts/contracts/token/Token.sol\":6430:6439  meta.bank */\n      0x05\n      add\n      0x00\n      swap1\n      sload\n      swap1\n      0x0100\n      exp\n      swap1\n      div\n      0xffffffffffffffffffffffffffffffffffffffff\n      and\n        /* \"smart_contracts/contracts/token/Token.sol\":6411:6449  Transfer(sender(), meta.bank, feeBank) */\n      0xffffffffffffffffffffffffffffffffffffffff\n      and\n        /* \"smart_contracts/contracts/token/Token.sol\":6420:6428  sender() */\n      tag_125\n        /* \"smart_contracts/contracts/token/Token.sol\":6420:6426  sender */\n      tag_76\n        /* \"smart_contracts/contracts/token/Token.sol\":6420:6428  sender() */\n      jump\t// in\n    tag_125:\n        /* \"smart_contracts/contracts/token/Token.sol\":6411:6449  Transfer(sender(), meta.bank, feeBank) */\n      0xffffffffffffffffffffffffffffffffffffffff\n      and\n      0xddf252ad1be2c89b69c2b068fc378daa952ba7f163c4a11628f55a4df523b3ef\n        /* \"smart_contracts/contracts/token/Token.sol\":6441:6448  feeBank */\n      dup4\n        /* \"smart_contracts/contracts/token/Token.sol\":6411:6449  Transfer(sender(), meta.bank, feeBank) */\n      mload(0x40)\n      tag_126\n      swap2\n      swap1\n      tag_29\n      jump\t// in\n    tag_126:\n      mload(0x40)\n      dup1\n      swap2\n      sub\n      swap1\n      log3\n        /* \"smart_contracts/contracts/token/Token.sol\":5889:6521  {... */\n      pop\n      pop\n        /* \"smart_contracts/contracts/token/Token.sol\":5823:7514  if (settings.bpTransferBurn != 0 && settings.bpTransferBank != 0) {... */\n      jump(tag_127)\n    tag_106:\n        /* \"smart_contracts/contracts/token/Token.sol\":6558:6559  0 */\n      0x00\n        /* \"smart_contracts/contracts/token/Token.sol\":6531:6539  settings */\n      dup1\n        /* \"smart_contracts/contracts/token/Token.sol\":6531:6554  settings.bpTransferBurn */\n      0x00\n      add\n      sload\n        /* \"smart_contracts/contracts/token/Token.sol\":6531:6559  settings.bpTransferBurn != 0 */\n      eq\n      iszero\n        /* \"smart_contracts/contracts/token/Token.sol\":6531:6591  settings.bpTransferBurn != 0 && settings.bpTransferBank == 0 */\n      dup1\n      iszero\n      tag_128\n      jumpi\n      pop\n        /* \"smart_contracts/contracts/token/Token.sol\":6590:6591  0 */\n      0x00\n        /* \"smart_contracts/contracts/token/Token.sol\":6563:6571  settings */\n      dup1\n        /* \"smart_contracts/contracts/token/Token.sol\":6563:6586  settings.bpTransferBank */\n      0x01\n      add\n      sload\n        /* \"smart_contracts/contracts/token/Token.sol\":6563:6591  settings.bpTransferBank == 0 */\n      eq\n        /* \"smart_contracts/contracts/token/Token.sol\":6531:6591  settings.bpTransferBurn != 0 && settings.bpTransferBank == 0 */\n    tag_128:\n        /* \"smart_contracts/contracts/token/Token.sol\":6527:7514  if (settings.bpTransferBurn != 0 && settings.bpTransferBank == 0) {... */\n      iszero\n      tag_129\n      jumpi\n        /* \"smart_contracts/contracts/token/Token.sol\":6607:6622  uint256 feeBurn */\n      0x00\n        /* \"smart_contracts/contracts/token/Token.sol\":6643:6651  settings */\n      dup1\n        /* \"smart_contracts/contracts/token/Token.sol\":6643:6666  settings.bpTransferBurn */\n      0x00\n      add\n      sload\n        /* \"smart_contracts/contracts/token/Token.sol\":6635:6639  1000 */\n      0x03e8\n        /* \"smart_contracts/contracts/token/Token.sol\":6626:6632  _value */\n      dup5\n        /* \"smart_contracts/contracts/token/Token.sol\":6626:6639  _value / 1000 */\n      tag_130\n      swap2\n      swap1\n      tag_108\n      jump\t// in\n    tag_130:\n        /* \"smart_contracts/contracts/token/Token.sol\":6625:6666  (_value / 1000) * settings.bpTransferBurn */\n      tag_131\n      swap2\n      swap1\n      tag_110\n      jump\t// in\n    tag_131:\n        /* \"smart_contracts/contracts/token/Token.sol\":6607:6666  uint256 feeBurn = (_value / 1000) * settings.bpTransferBurn */\n      swap1\n      pop\n        /* \"smart_contracts/contracts/token/Token.sol\":6705:6712  feeBurn */\n      dup1\n        /* \"smart_contracts/contracts/token/Token.sol\":6696:6702  _value */\n      dup4\n        /* \"smart_contracts/contracts/token/Token.sol\":6696:6712  _value - feeBurn */\n      tag_132\n      swap2\n      swap1\n      tag_104\n      jump\t// in\n    tag_132:\n        /* \"smart_contracts/contracts/token/Token.sol\":6680:6687  balance */\n      0x08\n        /* \"smart_contracts/contracts/token/Token.sol\":6680:6692  balance[_to] */\n      0x00\n        /* \"smart_contracts/contracts/token/Token.sol\":6688:6691  _to */\n      dup7\n        /* \"smart_contracts/contracts/token/Token.sol\":6680:6692  balance[_to] */\n      0xffffffffffffffffffffffffffffffffffffffff\n      and\n      0xffffffffffffffffffffffffffffffffffffffff\n      and\n      dup2\n      mstore\n      0x20\n      add\n      swap1\n      dup2\n      mstore\n      0x20\n      add\n      0x00\n      keccak256\n      0x00\n        /* \"smart_contracts/contracts/token/Token.sol\":6680:6712  balance[_to] += _value - feeBurn */\n      dup3\n      dup3\n      sload\n      tag_133\n      swap2\n      swap1\n      tag_114\n      jump\t// in\n    tag_133:\n      swap3\n      pop\n      pop\n      dup2\n      swap1\n      sstore\n      pop\n        /* \"smart_contracts/contracts/token/Token.sol\":6746:6753  feeBurn */\n      dup1\n        /* \"smart_contracts/contracts/token/Token.sol\":6726:6730  meta */\n      0x02\n        /* \"smart_contracts/contracts/token/Token.sol\":6726:6742  meta.totalSupply */\n      0x03\n      add\n      0x00\n        /* \"smart_contracts/contracts/token/Token.sol\":6726:6753  meta.totalSupply -= feeBurn */\n      dup3\n      dup3\n      sload\n      tag_134\n      swap2\n      swap1\n      tag_104\n      jump\t// in\n    tag_134:\n      swap3\n      pop\n      pop\n      dup2\n      swap1\n      sstore\n      pop\n        /* \"smart_contracts/contracts/token/Token.sol\":6791:6794  _to */\n      dup4\n        /* \"smart_contracts/contracts/token/Token.sol\":6772:6813  Transfer(sender(), _to, _value - feeBurn) */\n      0xffffffffffffffffffffffffffffffffffffffff\n      and\n        /* \"smart_contracts/contracts/token/Token.sol\":6781:6789  sender() */\n      tag_135\n        /* \"smart_contracts/contracts/token/Token.sol\":6781:6787  sender */\n      tag_76\n        /* \"smart_contracts/contracts/token/Token.sol\":6781:6789  sender() */\n      jump\t// in\n    tag_135:\n        /* \"smart_contracts/contracts/token/Token.sol\":6772:6813  Transfer(sender(), _to, _value - feeBurn) */\n      0xffffffffffffffffffffffffffffffffffffffff\n      and\n      0xddf252ad1be2c89b69c2b068fc378daa952ba7f163c4a11628f55a4df523b3ef\n        /* \"smart_contracts/contracts/token/Token.sol\":6805:6812  feeBurn */\n      dup4\n        /* \"smart_contracts/contracts/token/Token.sol\":6796:6802  _value */\n      dup7\n        /* \"smart_contracts/contracts/token/Token.sol\":6796:6812  _value - feeBurn */\n      tag_136\n      swap2\n      swap1\n      tag_104\n      jump\t// in\n    tag_136:\n        /* \"smart_contracts/contracts/token/Token.sol\":6772:6813  Transfer(sender(), _to, _value - feeBurn) */\n      mload(0x40)\n      tag_137\n      swap2\n      swap1\n      tag_29\n      jump\t// in\n    tag_137:\n      mload(0x40)\n      dup1\n      swap2\n      sub\n      swap1\n      log3\n        /* \"smart_contracts/contracts/token/Token.sol\":6895:6896  0 */\n      0x00\n        /* \"smart_contracts/contracts/token/Token.sol\":6868:6907  Transfer(sender(), address(0), feeBurn) */\n      0xffffffffffffffffffffffffffffffffffffffff\n      and\n        /* \"smart_contracts/contracts/token/Token.sol\":6877:6885  sender() */\n      tag_138\n        /* \"smart_contracts/contracts/token/Token.sol\":6877:6883  sender */\n      tag_76\n        /* \"smart_contracts/contracts/token/Token.sol\":6877:6885  sender() */\n      jump\t// in\n    tag_138:\n        /* \"smart_contracts/contracts/token/Token.sol\":6868:6907  Transfer(sender(), address(0), feeBurn) */\n      0xffffffffffffffffffffffffffffffffffffffff\n      and\n      0xddf252ad1be2c89b69c2b068fc378daa952ba7f163c4a11628f55a4df523b3ef\n        /* \"smart_contracts/contracts/token/Token.sol\":6899:6906  feeBurn */\n      dup4\n        /* \"smart_contracts/contracts/token/Token.sol\":6868:6907  Transfer(sender(), address(0), feeBurn) */\n      mload(0x40)\n      tag_139\n      swap2\n      swap1\n      tag_29\n      jump\t// in\n    tag_139:\n      mload(0x40)\n      dup1\n      swap2\n      sub\n      swap1\n      log3\n        /* \"smart_contracts/contracts/token/Token.sol\":6593:6918  {... */\n      pop\n        /* \"smart_contracts/contracts/token/Token.sol\":6527:7514  if (settings.bpTransferBurn != 0 && settings.bpTransferBank == 0) {... */\n      jump(tag_140)\n    tag_129:\n        /* \"smart_contracts/contracts/token/Token.sol\":6955:6956  0 */\n      0x00\n        /* \"smart_contracts/contracts/token/Token.sol\":6928:6936  settings */\n      dup1\n        /* \"smart_contracts/contracts/token/Token.sol\":6928:6951  settings.bpTransferBurn */\n      0x00\n      add\n      sload\n        /* \"smart_contracts/contracts/token/Token.sol\":6928:6956  settings.bpTransferBurn == 0 */\n      eq\n        /* \"smart_contracts/contracts/token/Token.sol\":6928:6988  settings.bpTransferBurn == 0 && settings.bpTransferBank != 0 */\n      dup1\n      iszero\n      tag_141\n      jumpi\n      pop\n        /* \"smart_contracts/contracts/token/Token.sol\":6987:6988  0 */\n      0x00\n        /* \"smart_contracts/contracts/token/Token.sol\":6960:6968  settings */\n      dup1\n        /* \"smart_contracts/contracts/token/Token.sol\":6960:6983  settings.bpTransferBank */\n      0x01\n      add\n      sload\n        /* \"smart_contracts/contracts/token/Token.sol\":6960:6988  settings.bpTransferBank != 0 */\n      eq\n      iszero\n        /* \"smart_contracts/contracts/token/Token.sol\":6928:6988  settings.bpTransferBurn == 0 && settings.bpTransferBank != 0 */\n    tag_141:\n        /* \"smart_contracts/contracts/token/Token.sol\":6924:7514  if (settings.bpTransferBurn == 0 && settings.bpTransferBank != 0) {... */\n      iszero\n      tag_142\n      jumpi\n        /* \"smart_contracts/contracts/token/Token.sol\":7004:7019  uint256 feeBank */\n      0x00\n        /* \"smart_contracts/contracts/token/Token.sol\":7040:7048  settings */\n      dup1\n        /* \"smart_contracts/contracts/token/Token.sol\":7040:7063  settings.bpTransferBank */\n      0x01\n      add\n      sload\n        /* \"smart_contracts/contracts/token/Token.sol\":7032:7036  1000 */\n      0x03e8\n        /* \"smart_contracts/contracts/token/Token.sol\":7023:7029  _value */\n      dup5\n        /* \"smart_contracts/contracts/token/Token.sol\":7023:7036  _value / 1000 */\n      tag_143\n      swap2\n      swap1\n      tag_108\n      jump\t// in\n    tag_143:\n        /* \"smart_contracts/contracts/token/Token.sol\":7022:7063  (_value / 1000) * settings.bpTransferBank */\n      tag_144\n      swap2\n      swap1\n      tag_110\n      jump\t// in\n    tag_144:\n        /* \"smart_contracts/contracts/token/Token.sol\":7004:7063  uint256 feeBank = (_value / 1000) * settings.bpTransferBank */\n      swap1\n      pop\n        /* \"smart_contracts/contracts/token/Token.sol\":7102:7109  feeBank */\n      dup1\n        /* \"smart_contracts/contracts/token/Token.sol\":7093:7099  _value */\n      dup4\n        /* \"smart_contracts/contracts/token/Token.sol\":7093:7109  _value - feeBank */\n      tag_145\n      swap2\n      swap1\n      tag_104\n      jump\t// in\n    tag_145:\n        /* \"smart_contracts/contracts/token/Token.sol\":7077:7084  balance */\n      0x08\n        /* \"smart_contracts/contracts/token/Token.sol\":7077:7089  balance[_to] */\n      0x00\n        /* \"smart_contracts/contracts/token/Token.sol\":7085:7088  _to */\n      dup7\n        /* \"smart_contracts/contracts/token/Token.sol\":7077:7089  balance[_to] */\n      0xffffffffffffffffffffffffffffffffffffffff\n      and\n      0xffffffffffffffffffffffffffffffffffffffff\n      and\n      dup2\n      mstore\n      0x20\n      add\n      swap1\n      dup2\n      mstore\n      0x20\n      add\n      0x00\n      keccak256\n      0x00\n        /* \"smart_contracts/contracts/token/Token.sol\":7077:7109  balance[_to] += _value - feeBank */\n      dup3\n      dup3\n      sload\n      tag_146\n      swap2\n      swap1\n      tag_114\n      jump\t// in\n    tag_146:\n      swap3\n      pop\n      pop\n      dup2\n      swap1\n      sstore\n      pop\n        /* \"smart_contracts/contracts/token/Token.sol\":7145:7152  feeBank */\n      dup1\n        /* \"smart_contracts/contracts/token/Token.sol\":7123:7130  balance */\n      0x08\n        /* \"smart_contracts/contracts/token/Token.sol\":7123:7141  balance[meta.bank] */\n      0x00\n        /* \"smart_contracts/contracts/token/Token.sol\":7131:7135  meta */\n      0x02\n        /* \"smart_contracts/contracts/token/Token.sol\":7131:7140  meta.bank */\n      0x05\n      add\n      0x00\n      swap1\n      sload\n      swap1\n      0x0100\n      exp\n      swap1\n      div\n      0xffffffffffffffffffffffffffffffffffffffff\n      and\n        /* \"smart_contracts/contracts/token/Token.sol\":7123:7141  balance[meta.bank] */\n      0xffffffffffffffffffffffffffffffffffffffff\n      and\n      0xffffffffffffffffffffffffffffffffffffffff\n      and\n      dup2\n      mstore\n      0x20\n      add\n      swap1\n      dup2\n      mstore\n      0x20\n      add\n      0x00\n      keccak256\n      0x00\n        /* \"smart_contracts/contracts/token/Token.sol\":7123:7152  balance[meta.bank] += feeBank */\n      dup3\n      dup3\n      sload\n      tag_147\n      swap2\n      swap1\n      tag_114\n      jump\t// in\n    tag_147:\n      swap3\n      pop\n      pop\n      dup2\n      swap1\n      sstore\n      pop\n        /* \"smart_contracts/contracts/token/Token.sol\":7190:7193  _to */\n      dup4\n        /* \"smart_contracts/contracts/token/Token.sol\":7171:7212  Transfer(sender(), _to, _value - feeBank) */\n      0xffffffffffffffffffffffffffffffffffffffff\n      and\n        /* \"smart_contracts/contracts/token/Token.sol\":7180:7188  sender() */\n      tag_148\n        /* \"smart_contracts/contracts/token/Token.sol\":7180:7186  sender */\n      tag_76\n        /* \"smart_contracts/contracts/token/Token.sol\":7180:7188  sender() */\n      jump\t// in\n    tag_148:\n        /* \"smart_contracts/contracts/token/Token.sol\":7171:7212  Transfer(sender(), _to, _value - feeBank) */\n      0xffffffffffffffffffffffffffffffffffffffff\n      and\n      0xddf252ad1be2c89b69c2b068fc378daa952ba7f163c4a11628f55a4df523b3ef\n        /* \"smart_contracts/contracts/token/Token.sol\":7204:7211  feeBank */\n      dup4\n        /* \"smart_contracts/contracts/token/Token.sol\":7195:7201  _value */\n      dup7\n        /* \"smart_contracts/contracts/token/Token.sol\":7195:7211  _value - feeBank */\n      tag_149\n      swap2\n      swap1\n      tag_104\n      jump\t// in\n    tag_149:\n        /* \"smart_contracts/contracts/token/Token.sol\":7171:7212  Transfer(sender(), _to, _value - feeBank) */\n      mload(0x40)\n      tag_150\n      swap2\n      swap1\n      tag_29\n      jump\t// in\n    tag_150:\n      mload(0x40)\n      dup1\n      swap2\n      sub\n      swap1\n      log3\n        /* \"smart_contracts/contracts/token/Token.sol\":7299:7303  meta */\n      0x02\n        /* \"smart_contracts/contracts/token/Token.sol\":7299:7308  meta.bank */\n      0x05\n      add\n      0x00\n      swap1\n      sload\n      swap1\n      0x0100\n      exp\n      swap1\n      div\n      0xffffffffffffffffffffffffffffffffffffffff\n      and\n        /* \"smart_contracts/contracts/token/Token.sol\":7280:7318  Transfer(sender(), meta.bank, feeBank) */\n      0xffffffffffffffffffffffffffffffffffffffff\n      and\n        /* \"smart_contracts/contracts/token/Token.sol\":7289:7297  sender() */\n      tag_151\n        /* \"smart_contracts/contracts/token/Token.sol\":7289:7295  sender */\n      tag_76\n        /* \"smart_contracts/contracts/token/Token.sol\":7289:7297  sender() */\n      jump\t// in\n    tag_151:\n        /* \"smart_contracts/contracts/token/Token.sol\":7280:7318  Transfer(sender(), meta.bank, feeBank) */\n      0xffffffffffffffffffffffffffffffffffffffff\n      and\n      0xddf252ad1be2c89b69c2b068fc378daa952ba7f163c4a11628f55a4df523b3ef\n        /* \"smart_contracts/contracts/token/Token.sol\":7310:7317  feeBank */\n      dup4\n        /* \"smart_contracts/contracts/token/Token.sol\":7280:7318  Transfer(sender(), meta.bank, feeBank) */\n      mload(0x40)\n      tag_152\n      swap2\n      swap1\n      tag_29\n      jump\t// in\n    tag_152:\n      mload(0x40)\n      dup1\n      swap2\n      sub\n      swap1\n      log3\n        /* \"smart_contracts/contracts/token/Token.sol\":6990:7329  {... */\n      pop\n        /* \"smart_contracts/contracts/token/Token.sol\":6924:7514  if (settings.bpTransferBurn == 0 && settings.bpTransferBank != 0) {... */\n      jump(tag_153)\n    tag_142:\n        /* \"smart_contracts/contracts/token/Token.sol\":7447:7453  _value */\n      dup2\n        /* \"smart_contracts/contracts/token/Token.sol\":7431:7438  balance */\n      0x08\n        /* \"smart_contracts/contracts/token/Token.sol\":7431:7443  balance[_to] */\n      0x00\n        /* \"smart_contracts/contracts/token/Token.sol\":7439:7442  _to */\n      dup6\n        /* \"smart_contracts/contracts/token/Token.sol\":7431:7443  balance[_to] */\n      0xffffffffffffffffffffffffffffffffffffffff\n      and\n      0xffffffffffffffffffffffffffffffffffffffff\n      and\n      dup2\n      mstore\n      0x20\n      add\n      swap1\n      dup2\n      mstore\n      0x20\n      add\n      0x00\n      keccak256\n      0x00\n        /* \"smart_contracts/contracts/token/Token.sol\":7431:7453  balance[_to] += _value */\n      dup3\n      dup3\n      sload\n      tag_154\n      swap2\n      swap1\n      tag_114\n      jump\t// in\n    tag_154:\n      swap3\n      pop\n      pop\n      dup2\n      swap1\n      sstore\n      pop\n        /* \"smart_contracts/contracts/token/Token.sol\":7491:7494  _to */\n      dup3\n        /* \"smart_contracts/contracts/token/Token.sol\":7472:7503  Transfer(sender(), _to, _value) */\n      0xffffffffffffffffffffffffffffffffffffffff\n      and\n        /* \"smart_contracts/contracts/token/Token.sol\":7481:7489  sender() */\n      tag_155\n        /* \"smart_contracts/contracts/token/Token.sol\":7481:7487  sender */\n      tag_76\n        /* \"smart_contracts/contracts/token/Token.sol\":7481:7489  sender() */\n      jump\t// in\n    tag_155:\n        /* \"smart_contracts/contracts/token/Token.sol\":7472:7503  Transfer(sender(), _to, _value) */\n      0xffffffffffffffffffffffffffffffffffffffff\n      and\n      0xddf252ad1be2c89b69c2b068fc378daa952ba7f163c4a11628f55a4df523b3ef\n        /* \"smart_contracts/contracts/token/Token.sol\":7496:7502  _value */\n      dup5\n        /* \"smart_contracts/contracts/token/Token.sol\":7472:7503  Transfer(sender(), _to, _value) */\n      mload(0x40)\n      tag_156\n      swap2\n      swap1\n      tag_29\n      jump\t// in\n    tag_156:\n      mload(0x40)\n      dup1\n      swap2\n      sub\n      swap1\n      log3\n        /* \"smart_contracts/contracts/token/Token.sol\":6924:7514  if (settings.bpTransferBurn == 0 && settings.bpTransferBank != 0) {... */\n    tag_153:\n        /* \"smart_contracts/contracts/token/Token.sol\":6527:7514  if (settings.bpTransferBurn != 0 && settings.bpTransferBank == 0) {... */\n    tag_140:\n        /* \"smart_contracts/contracts/token/Token.sol\":5823:7514  if (settings.bpTransferBurn != 0 && settings.bpTransferBank != 0) {... */\n    tag_127:\n        /* \"smart_contracts/contracts/token/Token.sol\":7530:7534  true */\n      0x01\n        /* \"smart_contracts/contracts/token/Token.sol\":7523:7534  return true */\n      swap1\n      pop\n        /* \"smart_contracts/contracts/token/Token.sol\":5257:7541  function transferFrom(address _from, address _to, uint256 _value) public returns (bool) {... */\n      swap4\n      swap3\n      pop\n      pop\n      pop\n      jump\t// out\n        /* \"smart_contracts/contracts/token/Token.sol\":1598:1669  function decimals() public view returns (uint8) {return meta.decimals;} */\n    tag_36:\n        /* \"smart_contracts/contracts/token/Token.sol\":1639:1644  uint8 */\n      0x00\n        /* \"smart_contracts/contracts/token/Token.sol\":1654:1658  meta */\n      0x02\n        /* \"smart_contracts/contracts/token/Token.sol\":1654:1667  meta.decimals */\n      dup1\n      add\n      0x00\n      swap1\n      sload\n      swap1\n      0x0100\n      exp\n      swap1\n      div\n      0xff\n      and\n        /* \"smart_contracts/contracts/token/Token.sol\":1647:1667  return meta.decimals */\n      swap1\n      pop\n        /* \"smart_contracts/contracts/token/Token.sol\":1598:1669  function decimals() public view returns (uint8) {return meta.decimals;} */\n      swap1\n      jump\t// out\n        /* \"smart_contracts/contracts/token/Token.sol\":4149:4508  function increaseAllowance(address _spender, uint256 _value) public returns (bool) {... */\n    tag_41:\n        /* \"smart_contracts/contracts/token/Token.sol\":4226:4230  bool */\n      0x00\n        /* \"smart_contracts/contracts/token/Token.sol\":4271:4272  0 */\n      dup1\n        /* \"smart_contracts/contracts/token/Token.sol\":4251:4273  sender() != address(0) */\n      0xffffffffffffffffffffffffffffffffffffffff\n      and\n        /* \"smart_contracts/contracts/token/Token.sol\":4251:4259  sender() */\n      tag_159\n        /* \"smart_contracts/contracts/token/Token.sol\":4251:4257  sender */\n      tag_76\n        /* \"smart_contracts/contracts/token/Token.sol\":4251:4259  sender() */\n      jump\t// in\n    tag_159:\n        /* \"smart_contracts/contracts/token/Token.sol\":4251:4273  sender() != address(0) */\n      0xffffffffffffffffffffffffffffffffffffffff\n      and\n      eq\n      iszero\n        /* \"smart_contracts/contracts/token/Token.sol\":4250:4302  (sender() != address(0)) && (_spender != address(0)) */\n      dup1\n      iszero\n      tag_160\n      jumpi\n      pop\n        /* \"smart_contracts/contracts/token/Token.sol\":4299:4300  0 */\n      0x00\n        /* \"smart_contracts/contracts/token/Token.sol\":4279:4301  _spender != address(0) */\n      0xffffffffffffffffffffffffffffffffffffffff\n      and\n        /* \"smart_contracts/contracts/token/Token.sol\":4279:4287  _spender */\n      dup4\n        /* \"smart_contracts/contracts/token/Token.sol\":4279:4301  _spender != address(0) */\n      0xffffffffffffffffffffffffffffffffffffffff\n      and\n      eq\n      iszero\n        /* \"smart_contracts/contracts/token/Token.sol\":4250:4302  (sender() != address(0)) && (_spender != address(0)) */\n    tag_160:\n        /* \"smart_contracts/contracts/token/Token.sol\":4242:4319  require((sender() != address(0)) && (_spender != address(0)), \"zero address\") */\n      tag_161\n      jumpi\n      mload(0x40)\n      0x08c379a000000000000000000000000000000000000000000000000000000000\n      dup2\n      mstore\n      0x04\n      add\n      tag_162\n      swap1\n      tag_80\n      jump\t// in\n    tag_162:\n      mload(0x40)\n      dup1\n      swap2\n      sub\n      swap1\n      revert\n    tag_161:\n        /* \"smart_contracts/contracts/token/Token.sol\":4391:4397  _value */\n      dup2\n        /* \"smart_contracts/contracts/token/Token.sol\":4359:4388  allowance(sender(), _spender) */\n      tag_163\n        /* \"smart_contracts/contracts/token/Token.sol\":4369:4377  sender() */\n      tag_164\n        /* \"smart_contracts/contracts/token/Token.sol\":4369:4375  sender */\n      tag_76\n        /* \"smart_contracts/contracts/token/Token.sol\":4369:4377  sender() */\n      jump\t// in\n    tag_164:\n        /* \"smart_contracts/contracts/token/Token.sol\":4379:4387  _spender */\n      dup6\n        /* \"smart_contracts/contracts/token/Token.sol\":4359:4368  allowance */\n      tag_65\n        /* \"smart_contracts/contracts/token/Token.sol\":4359:4388  allowance(sender(), _spender) */\n      jump\t// in\n    tag_163:\n        /* \"smart_contracts/contracts/token/Token.sol\":4359:4397  allowance(sender(), _spender) + _value */\n      tag_165\n      swap2\n      swap1\n      tag_114\n      jump\t// in\n    tag_165:\n        /* \"smart_contracts/contracts/token/Token.sol\":4329:4336  allowed */\n      0x09\n        /* \"smart_contracts/contracts/token/Token.sol\":4329:4346  allowed[sender()] */\n      0x00\n        /* \"smart_contracts/contracts/token/Token.sol\":4337:4345  sender() */\n      tag_166\n        /* \"smart_contracts/contracts/token/Token.sol\":4337:4343  sender */\n      tag_76\n        /* \"smart_contracts/contracts/token/Token.sol\":4337:4345  sender() */\n      jump\t// in\n    tag_166:\n        /* \"smart_contracts/contracts/token/Token.sol\":4329:4346  allowed[sender()] */\n      0xffffffffffffffffffffffffffffffffffffffff\n      and\n      0xffffffffffffffffffffffffffffffffffffffff\n      and\n      dup2\n      mstore\n      0x20\n      add\n      swap1\n      dup2\n      mstore\n      0x20\n      add\n      0x00\n      keccak256\n        /* \"smart_contracts/contracts/token/Token.sol\":4329:4356  allowed[sender()][_spender] */\n      0x00\n        /* \"smart_contracts/contracts/token/Token.sol\":4347:4355  _spender */\n      dup6\n        /* \"smart_contracts/contracts/token/Token.sol\":4329:4356  allowed[sender()][_spender] */\n      0xffffffffffffffffffffffffffffffffffffffff\n      and\n      0xffffffffffffffffffffffffffffffffffffffff\n      and\n      dup2\n      mstore\n      0x20\n      add\n      swap1\n      dup2\n      mstore\n      0x20\n      add\n      0x00\n      keccak256\n        /* \"smart_contracts/contracts/token/Token.sol\":4329:4397  allowed[sender()][_spender] = allowance(sender(), _spender) + _value */\n      dup2\n      swap1\n      sstore\n      pop\n        /* \"smart_contracts/contracts/token/Token.sol\":4431:4439  _spender */\n      dup3\n        /* \"smart_contracts/contracts/token/Token.sol\":4412:4480  Approval(sender(), _spender, allowance(sender(), _spender) + _value) */\n      0xffffffffffffffffffffffffffffffffffffffff\n      and\n        /* \"smart_contracts/contracts/token/Token.sol\":4421:4429  sender() */\n      tag_167\n        /* \"smart_contracts/contracts/token/Token.sol\":4421:4427  sender */\n      tag_76\n        /* \"smart_contracts/contracts/token/Token.sol\":4421:4429  sender() */\n      jump\t// in\n    tag_167:\n        /* \"smart_contracts/contracts/token/Token.sol\":4412:4480  Approval(sender(), _spender, allowance(sender(), _spender) + _value) */\n      0xffffffffffffffffffffffffffffffffffffffff\n      and\n      0x8c5be1e5ebec7d5bd14f71427d1e84f3dd0314c0f7b2291e5b200ac8c7c3b925\n        /* \"smart_contracts/contracts/token/Token.sol\":4473:4479  _value */\n      dup5\n        /* \"smart_contracts/contracts/token/Token.sol\":4441:4470  allowance(sender(), _spender) */\n      tag_168\n        /* \"smart_contracts/contracts/token/Token.sol\":4451:4459  sender() */\n      tag_169\n        /* \"smart_contracts/contracts/token/Token.sol\":4451:4457  sender */\n      tag_76\n        /* \"smart_contracts/contracts/token/Token.sol\":4451:4459  sender() */\n      jump\t// in\n    tag_169:\n        /* \"smart_contracts/contracts/token/Token.sol\":4461:4469  _spender */\n      dup9\n        /* \"smart_contracts/contracts/token/Token.sol\":4441:4450  allowance */\n      tag_65\n        /* \"smart_contracts/contracts/token/Token.sol\":4441:4470  allowance(sender(), _spender) */\n      jump\t// in\n    tag_168:\n        /* \"smart_contracts/contracts/token/Token.sol\":4441:4479  allowance(sender(), _spender) + _value */\n      tag_170\n      swap2\n      swap1\n      tag_114\n      jump\t// in\n    tag_170:\n        /* \"smart_contracts/contracts/token/Token.sol\":4412:4480  Approval(sender(), _spender, allowance(sender(), _spender) + _value) */\n      mload(0x40)\n      tag_171\n      swap2\n      swap1\n      tag_29\n      jump\t// in\n    tag_171:\n      mload(0x40)\n      dup1\n      swap2\n      sub\n      swap1\n      log3\n        /* \"smart_contracts/contracts/token/Token.sol\":4497:4501  true */\n      0x01\n        /* \"smart_contracts/contracts/token/Token.sol\":4490:4501  return true */\n      swap1\n      pop\n        /* \"smart_contracts/contracts/token/Token.sol\":4149:4508  function increaseAllowance(address _spender, uint256 _value) public returns (bool) {... */\n      swap3\n      swap2\n      pop\n      pop\n      jump\t// out\n        /* \"smart_contracts/contracts/token/Token.sol\":1839:1998  function balanceOf(address _owner) public view returns (uint256) {... */\n    tag_46:\n        /* \"smart_contracts/contracts/token/Token.sol\":1895:1902  uint256 */\n      0x00\n        /* \"smart_contracts/contracts/token/Token.sol\":1940:1941  0 */\n      dup1\n        /* \"smart_contracts/contracts/token/Token.sol\":1922:1942  _owner != address(0) */\n      0xffffffffffffffffffffffffffffffffffffffff\n      and\n        /* \"smart_contracts/contracts/token/Token.sol\":1922:1928  _owner */\n      dup3\n        /* \"smart_contracts/contracts/token/Token.sol\":1922:1942  _owner != address(0) */\n      0xffffffffffffffffffffffffffffffffffffffff\n      and\n      sub\n        /* \"smart_contracts/contracts/token/Token.sol\":1914:1959  require(_owner != address(0), \"zero address\") */\n      tag_173\n      jumpi\n      mload(0x40)\n      0x08c379a000000000000000000000000000000000000000000000000000000000\n      dup2\n      mstore\n      0x04\n      add\n      tag_174\n      swap1\n      tag_80\n      jump\t// in\n    tag_174:\n      mload(0x40)\n      dup1\n      swap2\n      sub\n      swap1\n      revert\n    tag_173:\n        /* \"smart_contracts/contracts/token/Token.sol\":1976:1983  balance */\n      0x08\n        /* \"smart_contracts/contracts/token/Token.sol\":1976:1991  balance[_owner] */\n      0x00\n        /* \"smart_contracts/contracts/token/Token.sol\":1984:1990  _owner */\n      dup4\n        /* \"smart_contracts/contracts/token/Token.sol\":1976:1991  balance[_owner] */\n      0xffffffffffffffffffffffffffffffffffffffff\n      and\n      0xffffffffffffffffffffffffffffffffffffffff\n      and\n      dup2\n      mstore\n      0x20\n      add\n      swap1\n      dup2\n      mstore\n      0x20\n      add\n      0x00\n      keccak256\n      sload\n        /* \"smart_contracts/contracts/token/Token.sol\":1969:1991  return balance[_owner] */\n      swap1\n      pop\n        /* \"smart_contracts/contracts/token/Token.sol\":1839:1998  function balanceOf(address _owner) public view returns (uint256) {... */\n      swap2\n      swap1\n      pop\n      jump\t// out\n        /* \"smart_contracts/contracts/token/Token.sol\":1518:1593  function symbol() public view returns (string memory) {return meta.symbol;} */\n    tag_49:\n        /* \"smart_contracts/contracts/token/Token.sol\":1557:1570  string memory */\n      0x60\n        /* \"smart_contracts/contracts/token/Token.sol\":1580:1584  meta */\n      0x02\n        /* \"smart_contracts/contracts/token/Token.sol\":1580:1591  meta.symbol */\n      0x01\n      add\n        /* \"smart_contracts/contracts/token/Token.sol\":1573:1591  return meta.symbol */\n      dup1\n      sload\n      tag_176\n      swap1\n      tag_69\n      jump\t// in\n    tag_176:\n      dup1\n      0x1f\n      add\n      0x20\n      dup1\n      swap2\n      div\n      mul\n      0x20\n      add\n      mload(0x40)\n      swap1\n      dup2\n      add\n      0x40\n      mstore\n      dup1\n      swap3\n      swap2\n      swap1\n      dup2\n      dup2\n      mstore\n      0x20\n      add\n      dup3\n      dup1\n      sload\n      tag_177\n      swap1\n      tag_69\n      jump\t// in\n    tag_177:\n      dup1\n      iszero\n      tag_178\n      jumpi\n      dup1\n      0x1f\n      lt\n      tag_179\n      jumpi\n      0x0100\n      dup1\n      dup4\n      sload\n      div\n      mul\n      dup4\n      mstore\n      swap2\n      0x20\n      add\n      swap2\n      jump(tag_178)\n    tag_179:\n      dup3\n      add\n      swap2\n      swap1\n      0x00\n      mstore\n      keccak256(0x00, 0x20)\n      swap1\n    tag_180:\n      dup2\n      sload\n      dup2\n      mstore\n      swap1\n      0x01\n      add\n      swap1\n      0x20\n      add\n      dup1\n      dup4\n      gt\n      tag_180\n      jumpi\n      dup3\n      swap1\n      sub\n      0x1f\n      and\n      dup3\n      add\n      swap2\n    tag_178:\n      pop\n      pop\n      pop\n      pop\n      pop\n      swap1\n      pop\n        /* \"smart_contracts/contracts/token/Token.sol\":1518:1593  function symbol() public view returns (string memory) {return meta.symbol;} */\n      swap1\n      jump\t// out\n        /* \"smart_contracts/contracts/token/Token.sol\":4514:4952  function decreaseAllowance(address _spender, uint256 _value) public returns (bool) {... */\n    tag_53:\n        /* \"smart_contracts/contracts/token/Token.sol\":4591:4595  bool */\n      0x00\n        /* \"smart_contracts/contracts/token/Token.sol\":4649:4655  _value */\n      dup2\n        /* \"smart_contracts/contracts/token/Token.sol\":4616:4645  allowance(sender(), _spender) */\n      tag_182\n        /* \"smart_contracts/contracts/token/Token.sol\":4626:4634  sender() */\n      tag_183\n        /* \"smart_contracts/contracts/token/Token.sol\":4626:4632  sender */\n      tag_76\n        /* \"smart_contracts/contracts/token/Token.sol\":4626:4634  sender() */\n      jump\t// in\n    tag_183:\n        /* \"smart_contracts/contracts/token/Token.sol\":4636:4644  _spender */\n      dup6\n        /* \"smart_contracts/contracts/token/Token.sol\":4616:4625  allowance */\n      tag_65\n        /* \"smart_contracts/contracts/token/Token.sol\":4616:4645  allowance(sender(), _spender) */\n      jump\t// in\n    tag_182:\n        /* \"smart_contracts/contracts/token/Token.sol\":4616:4655  allowance(sender(), _spender) >= _value */\n      lt\n      iszero\n        /* \"smart_contracts/contracts/token/Token.sol\":4615:4684  (allowance(sender(), _spender) >= _value) && (sender() != address(0)) */\n      dup1\n      iszero\n      tag_184\n      jumpi\n      pop\n        /* \"smart_contracts/contracts/token/Token.sol\":4681:4682  0 */\n      0x00\n        /* \"smart_contracts/contracts/token/Token.sol\":4661:4683  sender() != address(0) */\n      0xffffffffffffffffffffffffffffffffffffffff\n      and\n        /* \"smart_contracts/contracts/token/Token.sol\":4661:4669  sender() */\n      tag_185\n        /* \"smart_contracts/contracts/token/Token.sol\":4661:4667  sender */\n      tag_76\n        /* \"smart_contracts/contracts/token/Token.sol\":4661:4669  sender() */\n      jump\t// in\n    tag_185:\n        /* \"smart_contracts/contracts/token/Token.sol\":4661:4683  sender() != address(0) */\n      0xffffffffffffffffffffffffffffffffffffffff\n      and\n      eq\n      iszero\n        /* \"smart_contracts/contracts/token/Token.sol\":4615:4684  (allowance(sender(), _spender) >= _value) && (sender() != address(0)) */\n    tag_184:\n        /* \"smart_contracts/contracts/token/Token.sol\":4615:4712  (allowance(sender(), _spender) >= _value) && (sender() != address(0)) && (_spender != address(0)) */\n      dup1\n      iszero\n      tag_186\n      jumpi\n      pop\n        /* \"smart_contracts/contracts/token/Token.sol\":4709:4710  0 */\n      0x00\n        /* \"smart_contracts/contracts/token/Token.sol\":4689:4711  _spender != address(0) */\n      0xffffffffffffffffffffffffffffffffffffffff\n      and\n        /* \"smart_contracts/contracts/token/Token.sol\":4689:4697  _spender */\n      dup4\n        /* \"smart_contracts/contracts/token/Token.sol\":4689:4711  _spender != address(0) */\n      0xffffffffffffffffffffffffffffffffffffffff\n      and\n      eq\n      iszero\n        /* \"smart_contracts/contracts/token/Token.sol\":4615:4712  (allowance(sender(), _spender) >= _value) && (sender() != address(0)) && (_spender != address(0)) */\n    tag_186:\n        /* \"smart_contracts/contracts/token/Token.sol\":4607:4763  require((allowance(sender(), _spender) >= _value) && (sender() != address(0)) && (_spender != address(0)), \"zero address || decreased allowance below zero\") */\n      tag_187\n      jumpi\n      mload(0x40)\n      0x08c379a000000000000000000000000000000000000000000000000000000000\n      dup2\n      mstore\n      0x04\n      add\n      tag_188\n      swap1\n      tag_189\n      jump\t// in\n    tag_188:\n      mload(0x40)\n      dup1\n      swap2\n      sub\n      swap1\n      revert\n    tag_187:\n        /* \"smart_contracts/contracts/token/Token.sol\":4835:4841  _value */\n      dup2\n        /* \"smart_contracts/contracts/token/Token.sol\":4803:4832  allowance(sender(), _spender) */\n      tag_190\n        /* \"smart_contracts/contracts/token/Token.sol\":4813:4821  sender() */\n      tag_191\n        /* \"smart_contracts/contracts/token/Token.sol\":4813:4819  sender */\n      tag_76\n        /* \"smart_contracts/contracts/token/Token.sol\":4813:4821  sender() */\n      jump\t// in\n    tag_191:\n        /* \"smart_contracts/contracts/token/Token.sol\":4823:4831  _spender */\n      dup6\n        /* \"smart_contracts/contracts/token/Token.sol\":4803:4812  allowance */\n      tag_65\n        /* \"smart_contracts/contracts/token/Token.sol\":4803:4832  allowance(sender(), _spender) */\n      jump\t// in\n    tag_190:\n        /* \"smart_contracts/contracts/token/Token.sol\":4803:4841  allowance(sender(), _spender) - _value */\n      tag_192\n      swap2\n      swap1\n      tag_104\n      jump\t// in\n    tag_192:\n        /* \"smart_contracts/contracts/token/Token.sol\":4773:4780  allowed */\n      0x09\n        /* \"smart_contracts/contracts/token/Token.sol\":4773:4790  allowed[sender()] */\n      0x00\n        /* \"smart_contracts/contracts/token/Token.sol\":4781:4789  sender() */\n      tag_193\n        /* \"smart_contracts/contracts/token/Token.sol\":4781:4787  sender */\n      tag_76\n        /* \"smart_contracts/contracts/token/Token.sol\":4781:4789  sender() */\n      jump\t// in\n    tag_193:\n        /* \"smart_contracts/contracts/token/Token.sol\":4773:4790  allowed[sender()] */\n      0xffffffffffffffffffffffffffffffffffffffff\n      and\n      0xffffffffffffffffffffffffffffffffffffffff\n      and\n      dup2\n      mstore\n      0x20\n      add\n      swap1\n      dup2\n      mstore\n      0x20\n      add\n      0x00\n      keccak256\n        /* \"smart_contracts/contracts/token/Token.sol\":4773:4800  allowed[sender()][_spender] */\n      0x00\n        /* \"smart_contracts/contracts/token/Token.sol\":4791:4799  _spender */\n      dup6\n        /* \"smart_contracts/contracts/token/Token.sol\":4773:4800  allowed[sender()][_spender] */\n      0xffffffffffffffffffffffffffffffffffffffff\n      and\n      0xffffffffffffffffffffffffffffffffffffffff\n      and\n      dup2\n      mstore\n      0x20\n      add\n      swap1\n      dup2\n      mstore\n      0x20\n      add\n      0x00\n      keccak256\n        /* \"smart_contracts/contracts/token/Token.sol\":4773:4841  allowed[sender()][_spender] = allowance(sender(), _spender) - _value */\n      dup2\n      swap1\n      sstore\n      pop\n        /* \"smart_contracts/contracts/token/Token.sol\":4875:4883  _spender */\n      dup3\n        /* \"smart_contracts/contracts/token/Token.sol\":4856:4924  Approval(sender(), _spender, allowance(sender(), _spender) - _value) */\n      0xffffffffffffffffffffffffffffffffffffffff\n      and\n        /* \"smart_contracts/contracts/token/Token.sol\":4865:4873  sender() */\n      tag_194\n        /* \"smart_contracts/contracts/token/Token.sol\":4865:4871  sender */\n      tag_76\n        /* \"smart_contracts/contracts/token/Token.sol\":4865:4873  sender() */\n      jump\t// in\n    tag_194:\n        /* \"smart_contracts/contracts/token/Token.sol\":4856:4924  Approval(sender(), _spender, allowance(sender(), _spender) - _value) */\n      0xffffffffffffffffffffffffffffffffffffffff\n      and\n      0x8c5be1e5ebec7d5bd14f71427d1e84f3dd0314c0f7b2291e5b200ac8c7c3b925\n        /* \"smart_contracts/contracts/token/Token.sol\":4917:4923  _value */\n      dup5\n        /* \"smart_contracts/contracts/token/Token.sol\":4885:4914  allowance(sender(), _spender) */\n      tag_195\n        /* \"smart_contracts/contracts/token/Token.sol\":4895:4903  sender() */\n      tag_196\n        /* \"smart_contracts/contracts/token/Token.sol\":4895:4901  sender */\n      tag_76\n        /* \"smart_contracts/contracts/token/Token.sol\":4895:4903  sender() */\n      jump\t// in\n    tag_196:\n        /* \"smart_contracts/contracts/token/Token.sol\":4905:4913  _spender */\n      dup9\n        /* \"smart_contracts/contracts/token/Token.sol\":4885:4894  allowance */\n      tag_65\n        /* \"smart_contracts/contracts/token/Token.sol\":4885:4914  allowance(sender(), _spender) */\n      jump\t// in\n    tag_195:\n        /* \"smart_contracts/contracts/token/Token.sol\":4885:4923  allowance(sender(), _spender) - _value */\n      tag_197\n      swap2\n      swap1\n      tag_104\n      jump\t// in\n    tag_197:\n        /* \"smart_contracts/contracts/token/Token.sol\":4856:4924  Approval(sender(), _spender, allowance(sender(), _spender) - _value) */\n      mload(0x40)\n      tag_198\n      swap2\n      swap1\n      tag_29\n      jump\t// in\n    tag_198:\n      mload(0x40)\n      dup1\n      swap2\n      sub\n      swap1\n      log3\n        /* \"smart_contracts/contracts/token/Token.sol\":4941:4945  true */\n      0x01\n        /* \"smart_contracts/contracts/token/Token.sol\":4934:4945  return true */\n      swap1\n      pop\n        /* \"smart_contracts/contracts/token/Token.sol\":4514:4952  function decreaseAllowance(address _spender, uint256 _value) public returns (bool) {... */\n      swap3\n      swap2\n      pop\n      pop\n      jump\t// out\n        /* \"smart_contracts/contracts/token/Token.sol\":2004:4010  function transfer(address _to, uint256 _value) public returns (bool sucess) {... */\n    tag_57:\n        /* \"smart_contracts/contracts/token/Token.sol\":2067:2078  bool sucess */\n      0x00\n        /* \"smart_contracts/contracts/token/Token.sol\":2119:2120  0 */\n      dup1\n        /* \"smart_contracts/contracts/token/Token.sol\":2099:2121  sender() != address(0) */\n      0xffffffffffffffffffffffffffffffffffffffff\n      and\n        /* \"smart_contracts/contracts/token/Token.sol\":2099:2107  sender() */\n      tag_200\n        /* \"smart_contracts/contracts/token/Token.sol\":2099:2105  sender */\n      tag_76\n        /* \"smart_contracts/contracts/token/Token.sol\":2099:2107  sender() */\n      jump\t// in\n    tag_200:\n        /* \"smart_contracts/contracts/token/Token.sol\":2099:2121  sender() != address(0) */\n      0xffffffffffffffffffffffffffffffffffffffff\n      and\n      eq\n      iszero\n        /* \"smart_contracts/contracts/token/Token.sol\":2098:2145  (sender() != address(0)) && (_to != address(0)) */\n      dup1\n      iszero\n      tag_201\n      jumpi\n      pop\n        /* \"smart_contracts/contracts/token/Token.sol\":2142:2143  0 */\n      0x00\n        /* \"smart_contracts/contracts/token/Token.sol\":2127:2144  _to != address(0) */\n      0xffffffffffffffffffffffffffffffffffffffff\n      and\n        /* \"smart_contracts/contracts/token/Token.sol\":2127:2130  _to */\n      dup4\n        /* \"smart_contracts/contracts/token/Token.sol\":2127:2144  _to != address(0) */\n      0xffffffffffffffffffffffffffffffffffffffff\n      and\n      eq\n      iszero\n        /* \"smart_contracts/contracts/token/Token.sol\":2098:2145  (sender() != address(0)) && (_to != address(0)) */\n    tag_201:\n        /* \"smart_contracts/contracts/token/Token.sol\":2098:2176  (sender() != address(0)) && (_to != address(0)) && balance[sender()] >= _value */\n      dup1\n      iszero\n      tag_202\n      jumpi\n      pop\n        /* \"smart_contracts/contracts/token/Token.sol\":2170:2176  _value */\n      dup2\n        /* \"smart_contracts/contracts/token/Token.sol\":2149:2156  balance */\n      0x08\n        /* \"smart_contracts/contracts/token/Token.sol\":2149:2166  balance[sender()] */\n      0x00\n        /* \"smart_contracts/contracts/token/Token.sol\":2157:2165  sender() */\n      tag_203\n        /* \"smart_contracts/contracts/token/Token.sol\":2157:2163  sender */\n      tag_76\n        /* \"smart_contracts/contracts/token/Token.sol\":2157:2165  sender() */\n      jump\t// in\n    tag_203:\n        /* \"smart_contracts/contracts/token/Token.sol\":2149:2166  balance[sender()] */\n      0xffffffffffffffffffffffffffffffffffffffff\n      and\n      0xffffffffffffffffffffffffffffffffffffffff\n      and\n      dup2\n      mstore\n      0x20\n      add\n      swap1\n      dup2\n      mstore\n      0x20\n      add\n      0x00\n      keccak256\n      sload\n        /* \"smart_contracts/contracts/token/Token.sol\":2149:2176  balance[sender()] >= _value */\n      lt\n      iszero\n        /* \"smart_contracts/contracts/token/Token.sol\":2098:2176  (sender() != address(0)) && (_to != address(0)) && balance[sender()] >= _value */\n    tag_202:\n        /* \"smart_contracts/contracts/token/Token.sol\":2098:2204  (sender() != address(0)) && (_to != address(0)) && balance[sender()] >= _value && (balance[sender()] >= 0) */\n      dup1\n      iszero\n      tag_204\n      jumpi\n      pop\n        /* \"smart_contracts/contracts/token/Token.sol\":2202:2203  0 */\n      0x00\n        /* \"smart_contracts/contracts/token/Token.sol\":2181:2188  balance */\n      0x08\n        /* \"smart_contracts/contracts/token/Token.sol\":2181:2198  balance[sender()] */\n      0x00\n        /* \"smart_contracts/contracts/token/Token.sol\":2189:2197  sender() */\n      tag_205\n        /* \"smart_contracts/contracts/token/Token.sol\":2189:2195  sender */\n      tag_76\n        /* \"smart_contracts/contracts/token/Token.sol\":2189:2197  sender() */\n      jump\t// in\n    tag_205:\n        /* \"smart_contracts/contracts/token/Token.sol\":2181:2198  balance[sender()] */\n      0xffffffffffffffffffffffffffffffffffffffff\n      and\n      0xffffffffffffffffffffffffffffffffffffffff\n      and\n      dup2\n      mstore\n      0x20\n      add\n      swap1\n      dup2\n      mstore\n      0x20\n      add\n      0x00\n      keccak256\n      sload\n        /* \"smart_contracts/contracts/token/Token.sol\":2181:2203  balance[sender()] >= 0 */\n      lt\n      iszero\n        /* \"smart_contracts/contracts/token/Token.sol\":2098:2204  (sender() != address(0)) && (_to != address(0)) && balance[sender()] >= _value && (balance[sender()] >= 0) */\n    tag_204:\n        /* \"smart_contracts/contracts/token/Token.sol\":2090:2245  require((sender() != address(0)) && (_to != address(0)) && balance[sender()] >= _value && (balance[sender()] >= 0), \"zero address || insufficient balance\") */\n      tag_206\n      jumpi\n      mload(0x40)\n      0x08c379a000000000000000000000000000000000000000000000000000000000\n      dup2\n      mstore\n      0x04\n      add\n      tag_207\n      swap1\n      tag_208\n      jump\t// in\n    tag_207:\n      mload(0x40)\n      dup1\n      swap2\n      sub\n      swap1\n      revert\n    tag_206:\n        /* \"smart_contracts/contracts/token/Token.sol\":2276:2282  _value */\n      dup2\n        /* \"smart_contracts/contracts/token/Token.sol\":2255:2262  balance */\n      0x08\n        /* \"smart_contracts/contracts/token/Token.sol\":2255:2272  balance[sender()] */\n      0x00\n        /* \"smart_contracts/contracts/token/Token.sol\":2263:2271  sender() */\n      tag_209\n        /* \"smart_contracts/contracts/token/Token.sol\":2263:2269  sender */\n      tag_76\n        /* \"smart_contracts/contracts/token/Token.sol\":2263:2271  sender() */\n      jump\t// in\n    tag_209:\n        /* \"smart_contracts/contracts/token/Token.sol\":2255:2272  balance[sender()] */\n      0xffffffffffffffffffffffffffffffffffffffff\n      and\n      0xffffffffffffffffffffffffffffffffffffffff\n      and\n      dup2\n      mstore\n      0x20\n      add\n      swap1\n      dup2\n      mstore\n      0x20\n      add\n      0x00\n      keccak256\n      0x00\n        /* \"smart_contracts/contracts/token/Token.sol\":2255:2282  balance[sender()] -= _value */\n      dup3\n      dup3\n      sload\n      tag_210\n      swap2\n      swap1\n      tag_104\n      jump\t// in\n    tag_210:\n      swap3\n      pop\n      pop\n      dup2\n      swap1\n      sstore\n      pop\n        /* \"smart_contracts/contracts/token/Token.sol\":2323:2324  0 */\n      0x00\n        /* \"smart_contracts/contracts/token/Token.sol\":2296:2304  settings */\n      dup1\n        /* \"smart_contracts/contracts/token/Token.sol\":2296:2319  settings.bpTransferBurn */\n      0x00\n      add\n      sload\n        /* \"smart_contracts/contracts/token/Token.sol\":2296:2324  settings.bpTransferBurn != 0 */\n      eq\n      iszero\n        /* \"smart_contracts/contracts/token/Token.sol\":2296:2356  settings.bpTransferBurn != 0 && settings.bpTransferBank != 0 */\n      dup1\n      iszero\n      tag_211\n      jumpi\n      pop\n        /* \"smart_contracts/contracts/token/Token.sol\":2355:2356  0 */\n      0x00\n        /* \"smart_contracts/contracts/token/Token.sol\":2328:2336  settings */\n      dup1\n        /* \"smart_contracts/contracts/token/Token.sol\":2328:2351  settings.bpTransferBank */\n      0x01\n      add\n      sload\n        /* \"smart_contracts/contracts/token/Token.sol\":2328:2356  settings.bpTransferBank != 0 */\n      eq\n      iszero\n        /* \"smart_contracts/contracts/token/Token.sol\":2296:2356  settings.bpTransferBurn != 0 && settings.bpTransferBank != 0 */\n    tag_211:\n        /* \"smart_contracts/contracts/token/Token.sol\":2292:3983  if (settings.bpTransferBurn != 0 && settings.bpTransferBank != 0) {... */\n      iszero\n      tag_212\n      jumpi\n        /* \"smart_contracts/contracts/token/Token.sol\":2372:2387  uint256 feeBurn */\n      0x00\n        /* \"smart_contracts/contracts/token/Token.sol\":2408:2416  settings */\n      dup1\n        /* \"smart_contracts/contracts/token/Token.sol\":2408:2431  settings.bpTransferBurn */\n      0x00\n      add\n      sload\n        /* \"smart_contracts/contracts/token/Token.sol\":2400:2404  1000 */\n      0x03e8\n        /* \"smart_contracts/contracts/token/Token.sol\":2391:2397  _value */\n      dup5\n        /* \"smart_contracts/contracts/token/Token.sol\":2391:2404  _value / 1000 */\n      tag_213\n      swap2\n      swap1\n      tag_108\n      jump\t// in\n    tag_213:\n        /* \"smart_contracts/contracts/token/Token.sol\":2390:2431  (_value / 1000) * settings.bpTransferBurn */\n      tag_214\n      swap2\n      swap1\n      tag_110\n      jump\t// in\n    tag_214:\n        /* \"smart_contracts/contracts/token/Token.sol\":2372:2431  uint256 feeBurn = (_value / 1000) * settings.bpTransferBurn */\n      swap1\n      pop\n        /* \"smart_contracts/contracts/token/Token.sol\":2445:2460  uint256 feeBank */\n      0x00\n        /* \"smart_contracts/contracts/token/Token.sol\":2481:2489  settings */\n      dup1\n        /* \"smart_contracts/contracts/token/Token.sol\":2481:2504  settings.bpTransferBank */\n      0x01\n      add\n      sload\n        /* \"smart_contracts/contracts/token/Token.sol\":2473:2477  1000 */\n      0x03e8\n        /* \"smart_contracts/contracts/token/Token.sol\":2464:2470  _value */\n      dup6\n        /* \"smart_contracts/contracts/token/Token.sol\":2464:2477  _value / 1000 */\n      tag_215\n      swap2\n      swap1\n      tag_108\n      jump\t// in\n    tag_215:\n        /* \"smart_contracts/contracts/token/Token.sol\":2463:2504  (_value / 1000) * settings.bpTransferBank */\n      tag_216\n      swap2\n      swap1\n      tag_110\n      jump\t// in\n    tag_216:\n        /* \"smart_contracts/contracts/token/Token.sol\":2445:2504  uint256 feeBank = (_value / 1000) * settings.bpTransferBank */\n      swap1\n      pop\n        /* \"smart_contracts/contracts/token/Token.sol\":2554:2561  feeBank */\n      dup1\n        /* \"smart_contracts/contracts/token/Token.sol\":2544:2551  feeBurn */\n      dup3\n        /* \"smart_contracts/contracts/token/Token.sol\":2544:2561  feeBurn + feeBank */\n      tag_217\n      swap2\n      swap1\n      tag_114\n      jump\t// in\n    tag_217:\n        /* \"smart_contracts/contracts/token/Token.sol\":2534:2540  _value */\n      dup5\n        /* \"smart_contracts/contracts/token/Token.sol\":2534:2562  _value - (feeBurn + feeBank) */\n      tag_218\n      swap2\n      swap1\n      tag_104\n      jump\t// in\n    tag_218:\n        /* \"smart_contracts/contracts/token/Token.sol\":2518:2525  balance */\n      0x08\n        /* \"smart_contracts/contracts/token/Token.sol\":2518:2530  balance[_to] */\n      0x00\n        /* \"smart_contracts/contracts/token/Token.sol\":2526:2529  _to */\n      dup8\n        /* \"smart_contracts/contracts/token/Token.sol\":2518:2530  balance[_to] */\n      0xffffffffffffffffffffffffffffffffffffffff\n      and\n      0xffffffffffffffffffffffffffffffffffffffff\n      and\n      dup2\n      mstore\n      0x20\n      add\n      swap1\n      dup2\n      mstore\n      0x20\n      add\n      0x00\n      keccak256\n      0x00\n        /* \"smart_contracts/contracts/token/Token.sol\":2518:2562  balance[_to] += _value - (feeBurn + feeBank) */\n      dup3\n      dup3\n      sload\n      tag_219\n      swap2\n      swap1\n      tag_114\n      jump\t// in\n    tag_219:\n      swap3\n      pop\n      pop\n      dup2\n      swap1\n      sstore\n      pop\n        /* \"smart_contracts/contracts/token/Token.sol\":2598:2605  feeBank */\n      dup1\n        /* \"smart_contracts/contracts/token/Token.sol\":2576:2583  balance */\n      0x08\n        /* \"smart_contracts/contracts/token/Token.sol\":2576:2594  balance[meta.bank] */\n      0x00\n        /* \"smart_contracts/contracts/token/Token.sol\":2584:2588  meta */\n      0x02\n        /* \"smart_contracts/contracts/token/Token.sol\":2584:2593  meta.bank */\n      0x05\n      add\n      0x00\n      swap1\n      sload\n      swap1\n      0x0100\n      exp\n      swap1\n      div\n      0xffffffffffffffffffffffffffffffffffffffff\n      and\n        /* \"smart_contracts/contracts/token/Token.sol\":2576:2594  balance[meta.bank] */\n      0xffffffffffffffffffffffffffffffffffffffff\n      and\n      0xffffffffffffffffffffffffffffffffffffffff\n      and\n      dup2\n      mstore\n      0x20\n      add\n      swap1\n      dup2\n      mstore\n      0x20\n      add\n      0x00\n      keccak256\n      0x00\n        /* \"smart_contracts/contracts/token/Token.sol\":2576:2605  balance[meta.bank] += feeBank */\n      dup3\n      dup3\n      sload\n      tag_220\n      swap2\n      swap1\n      tag_114\n      jump\t// in\n    tag_220:\n      swap3\n      pop\n      pop\n      dup2\n      swap1\n      sstore\n      pop\n        /* \"smart_contracts/contracts/token/Token.sol\":2639:2646  feeBurn */\n      dup2\n        /* \"smart_contracts/contracts/token/Token.sol\":2619:2623  meta */\n      0x02\n        /* \"smart_contracts/contracts/token/Token.sol\":2619:2635  meta.totalSupply */\n      0x03\n      add\n      0x00\n        /* \"smart_contracts/contracts/token/Token.sol\":2619:2646  meta.totalSupply -= feeBurn */\n      dup3\n      dup3\n      sload\n      tag_221\n      swap2\n      swap1\n      tag_104\n      jump\t// in\n    tag_221:\n      swap3\n      pop\n      pop\n      dup2\n      swap1\n      sstore\n      pop\n        /* \"smart_contracts/contracts/token/Token.sol\":2684:2687  _to */\n      dup5\n        /* \"smart_contracts/contracts/token/Token.sol\":2665:2718  Transfer(sender(), _to, _value - (feeBurn + feeBank)) */\n      0xffffffffffffffffffffffffffffffffffffffff\n      and\n        /* \"smart_contracts/contracts/token/Token.sol\":2674:2682  sender() */\n      tag_222\n        /* \"smart_contracts/contracts/token/Token.sol\":2674:2680  sender */\n      tag_76\n        /* \"smart_contracts/contracts/token/Token.sol\":2674:2682  sender() */\n      jump\t// in\n    tag_222:\n        /* \"smart_contracts/contracts/token/Token.sol\":2665:2718  Transfer(sender(), _to, _value - (feeBurn + feeBank)) */\n      0xffffffffffffffffffffffffffffffffffffffff\n      and\n      0xddf252ad1be2c89b69c2b068fc378daa952ba7f163c4a11628f55a4df523b3ef\n        /* \"smart_contracts/contracts/token/Token.sol\":2709:2716  feeBank */\n      dup4\n        /* \"smart_contracts/contracts/token/Token.sol\":2699:2706  feeBurn */\n      dup6\n        /* \"smart_contracts/contracts/token/Token.sol\":2699:2716  feeBurn + feeBank */\n      tag_223\n      swap2\n      swap1\n      tag_114\n      jump\t// in\n    tag_223:\n        /* \"smart_contracts/contracts/token/Token.sol\":2689:2695  _value */\n      dup8\n        /* \"smart_contracts/contracts/token/Token.sol\":2689:2717  _value - (feeBurn + feeBank) */\n      tag_224\n      swap2\n      swap1\n      tag_104\n      jump\t// in\n    tag_224:\n        /* \"smart_contracts/contracts/token/Token.sol\":2665:2718  Transfer(sender(), _to, _value - (feeBurn + feeBank)) */\n      mload(0x40)\n      tag_225\n      swap2\n      swap1\n      tag_29\n      jump\t// in\n    tag_225:\n      mload(0x40)\n      dup1\n      swap2\n      sub\n      swap1\n      log3\n        /* \"smart_contracts/contracts/token/Token.sol\":2800:2801  0 */\n      0x00\n        /* \"smart_contracts/contracts/token/Token.sol\":2773:2812  Transfer(sender(), address(0), feeBurn) */\n      0xffffffffffffffffffffffffffffffffffffffff\n      and\n        /* \"smart_contracts/contracts/token/Token.sol\":2782:2790  sender() */\n      tag_226\n        /* \"smart_contracts/contracts/token/Token.sol\":2782:2788  sender */\n      tag_76\n        /* \"smart_contracts/contracts/token/Token.sol\":2782:2790  sender() */\n      jump\t// in\n    tag_226:\n        /* \"smart_contracts/contracts/token/Token.sol\":2773:2812  Transfer(sender(), address(0), feeBurn) */\n      0xffffffffffffffffffffffffffffffffffffffff\n      and\n      0xddf252ad1be2c89b69c2b068fc378daa952ba7f163c4a11628f55a4df523b3ef\n        /* \"smart_contracts/contracts/token/Token.sol\":2804:2811  feeBurn */\n      dup5\n        /* \"smart_contracts/contracts/token/Token.sol\":2773:2812  Transfer(sender(), address(0), feeBurn) */\n      mload(0x40)\n      tag_227\n      swap2\n      swap1\n      tag_29\n      jump\t// in\n    tag_227:\n      mload(0x40)\n      dup1\n      swap2\n      sub\n      swap1\n      log3\n        /* \"smart_contracts/contracts/token/Token.sol\":2899:2903  meta */\n      0x02\n        /* \"smart_contracts/contracts/token/Token.sol\":2899:2908  meta.bank */\n      0x05\n      add\n      0x00\n      swap1\n      sload\n      swap1\n      0x0100\n      exp\n      swap1\n      div\n      0xffffffffffffffffffffffffffffffffffffffff\n      and\n        /* \"smart_contracts/contracts/token/Token.sol\":2880:2918  Transfer(sender(), meta.bank, feeBank) */\n      0xffffffffffffffffffffffffffffffffffffffff\n      and\n        /* \"smart_contracts/contracts/token/Token.sol\":2889:2897  sender() */\n      tag_228\n        /* \"smart_contracts/contracts/token/Token.sol\":2889:2895  sender */\n      tag_76\n        /* \"smart_contracts/contracts/token/Token.sol\":2889:2897  sender() */\n      jump\t// in\n    tag_228:\n        /* \"smart_contracts/contracts/token/Token.sol\":2880:2918  Transfer(sender(), meta.bank, feeBank) */\n      0xffffffffffffffffffffffffffffffffffffffff\n      and\n      0xddf252ad1be2c89b69c2b068fc378daa952ba7f163c4a11628f55a4df523b3ef\n        /* \"smart_contracts/contracts/token/Token.sol\":2910:2917  feeBank */\n      dup4\n        /* \"smart_contracts/contracts/token/Token.sol\":2880:2918  Transfer(sender(), meta.bank, feeBank) */\n      mload(0x40)\n      tag_229\n      swap2\n      swap1\n      tag_29\n      jump\t// in\n    tag_229:\n      mload(0x40)\n      dup1\n      swap2\n      sub\n      swap1\n      log3\n        /* \"smart_contracts/contracts/token/Token.sol\":2358:2990  {... */\n      pop\n      pop\n        /* \"smart_contracts/contracts/token/Token.sol\":2292:3983  if (settings.bpTransferBurn != 0 && settings.bpTransferBank != 0) {... */\n      jump(tag_230)\n    tag_212:\n        /* \"smart_contracts/contracts/token/Token.sol\":3027:3028  0 */\n      0x00\n        /* \"smart_contracts/contracts/token/Token.sol\":3000:3008  settings */\n      dup1\n        /* \"smart_contracts/contracts/token/Token.sol\":3000:3023  settings.bpTransferBurn */\n      0x00\n      add\n      sload\n        /* \"smart_contracts/contracts/token/Token.sol\":3000:3028  settings.bpTransferBurn != 0 */\n      eq\n      iszero\n        /* \"smart_contracts/contracts/token/Token.sol\":3000:3060  settings.bpTransferBurn != 0 && settings.bpTransferBank == 0 */\n      dup1\n      iszero\n      tag_231\n      jumpi\n      pop\n        /* \"smart_contracts/contracts/token/Token.sol\":3059:3060  0 */\n      0x00\n        /* \"smart_contracts/contracts/token/Token.sol\":3032:3040  settings */\n      dup1\n        /* \"smart_contracts/contracts/token/Token.sol\":3032:3055  settings.bpTransferBank */\n      0x01\n      add\n      sload\n        /* \"smart_contracts/contracts/token/Token.sol\":3032:3060  settings.bpTransferBank == 0 */\n      eq\n        /* \"smart_contracts/contracts/token/Token.sol\":3000:3060  settings.bpTransferBurn != 0 && settings.bpTransferBank == 0 */\n    tag_231:\n        /* \"smart_contracts/contracts/token/Token.sol\":2996:3983  if (settings.bpTransferBurn != 0 && settings.bpTransferBank == 0) {... */\n      iszero\n      tag_232\n      jumpi\n        /* \"smart_contracts/contracts/token/Token.sol\":3076:3091  uint256 feeBurn */\n      0x00\n        /* \"smart_contracts/contracts/token/Token.sol\":3112:3120  settings */\n      dup1\n        /* \"smart_contracts/contracts/token/Token.sol\":3112:3135  settings.bpTransferBurn */\n      0x00\n      add\n      sload\n        /* \"smart_contracts/contracts/token/Token.sol\":3104:3108  1000 */\n      0x03e8\n        /* \"smart_contracts/contracts/token/Token.sol\":3095:3101  _value */\n      dup5\n        /* \"smart_contracts/contracts/token/Token.sol\":3095:3108  _value / 1000 */\n      tag_233\n      swap2\n      swap1\n      tag_108\n      jump\t// in\n    tag_233:\n        /* \"smart_contracts/contracts/token/Token.sol\":3094:3135  (_value / 1000) * settings.bpTransferBurn */\n      tag_234\n      swap2\n      swap1\n      tag_110\n      jump\t// in\n    tag_234:\n        /* \"smart_contracts/contracts/token/Token.sol\":3076:3135  uint256 feeBurn = (_value / 1000) * settings.bpTransferBurn */\n      swap1\n      pop\n        /* \"smart_contracts/contracts/token/Token.sol\":3174:3181  feeBurn */\n      dup1\n        /* \"smart_contracts/contracts/token/Token.sol\":3165:3171  _value */\n      dup4\n        /* \"smart_contracts/contracts/token/Token.sol\":3165:3181  _value - feeBurn */\n      tag_235\n      swap2\n      swap1\n      tag_104\n      jump\t// in\n    tag_235:\n        /* \"smart_contracts/contracts/token/Token.sol\":3149:3156  balance */\n      0x08\n        /* \"smart_contracts/contracts/token/Token.sol\":3149:3161  balance[_to] */\n      0x00\n        /* \"smart_contracts/contracts/token/Token.sol\":3157:3160  _to */\n      dup7\n        /* \"smart_contracts/contracts/token/Token.sol\":3149:3161  balance[_to] */\n      0xffffffffffffffffffffffffffffffffffffffff\n      and\n      0xffffffffffffffffffffffffffffffffffffffff\n      and\n      dup2\n      mstore\n      0x20\n      add\n      swap1\n      dup2\n      mstore\n      0x20\n      add\n      0x00\n      keccak256\n      0x00\n        /* \"smart_contracts/contracts/token/Token.sol\":3149:3181  balance[_to] += _value - feeBurn */\n      dup3\n      dup3\n      sload\n      tag_236\n      swap2\n      swap1\n      tag_114\n      jump\t// in\n    tag_236:\n      swap3\n      pop\n      pop\n      dup2\n      swap1\n      sstore\n      pop\n        /* \"smart_contracts/contracts/token/Token.sol\":3215:3222  feeBurn */\n      dup1\n        /* \"smart_contracts/contracts/token/Token.sol\":3195:3199  meta */\n      0x02\n        /* \"smart_contracts/contracts/token/Token.sol\":3195:3211  meta.totalSupply */\n      0x03\n      add\n      0x00\n        /* \"smart_contracts/contracts/token/Token.sol\":3195:3222  meta.totalSupply -= feeBurn */\n      dup3\n      dup3\n      sload\n      tag_237\n      swap2\n      swap1\n      tag_104\n      jump\t// in\n    tag_237:\n      swap3\n      pop\n      pop\n      dup2\n      swap1\n      sstore\n      pop\n        /* \"smart_contracts/contracts/token/Token.sol\":3260:3263  _to */\n      dup4\n        /* \"smart_contracts/contracts/token/Token.sol\":3241:3282  Transfer(sender(), _to, _value - feeBurn) */\n      0xffffffffffffffffffffffffffffffffffffffff\n      and\n        /* \"smart_contracts/contracts/token/Token.sol\":3250:3258  sender() */\n      tag_238\n        /* \"smart_contracts/contracts/token/Token.sol\":3250:3256  sender */\n      tag_76\n        /* \"smart_contracts/contracts/token/Token.sol\":3250:3258  sender() */\n      jump\t// in\n    tag_238:\n        /* \"smart_contracts/contracts/token/Token.sol\":3241:3282  Transfer(sender(), _to, _value - feeBurn) */\n      0xffffffffffffffffffffffffffffffffffffffff\n      and\n      0xddf252ad1be2c89b69c2b068fc378daa952ba7f163c4a11628f55a4df523b3ef\n        /* \"smart_contracts/contracts/token/Token.sol\":3274:3281  feeBurn */\n      dup4\n        /* \"smart_contracts/contracts/token/Token.sol\":3265:3271  _value */\n      dup7\n        /* \"smart_contracts/contracts/token/Token.sol\":3265:3281  _value - feeBurn */\n      tag_239\n      swap2\n      swap1\n      tag_104\n      jump\t// in\n    tag_239:\n        /* \"smart_contracts/contracts/token/Token.sol\":3241:3282  Transfer(sender(), _to, _value - feeBurn) */\n      mload(0x40)\n      tag_240\n      swap2\n      swap1\n      tag_29\n      jump\t// in\n    tag_240:\n      mload(0x40)\n      dup1\n      swap2\n      sub\n      swap1\n      log3\n        /* \"smart_contracts/contracts/token/Token.sol\":3364:3365  0 */\n      0x00\n        /* \"smart_contracts/contracts/token/Token.sol\":3337:3376  Transfer(sender(), address(0), feeBurn) */\n      0xffffffffffffffffffffffffffffffffffffffff\n      and\n        /* \"smart_contracts/contracts/token/Token.sol\":3346:3354  sender() */\n      tag_241\n        /* \"smart_contracts/contracts/token/Token.sol\":3346:3352  sender */\n      tag_76\n        /* \"smart_contracts/contracts/token/Token.sol\":3346:3354  sender() */\n      jump\t// in\n    tag_241:\n        /* \"smart_contracts/contracts/token/Token.sol\":3337:3376  Transfer(sender(), address(0), feeBurn) */\n      0xffffffffffffffffffffffffffffffffffffffff\n      and\n      0xddf252ad1be2c89b69c2b068fc378daa952ba7f163c4a11628f55a4df523b3ef\n        /* \"smart_contracts/contracts/token/Token.sol\":3368:3375  feeBurn */\n      dup4\n        /* \"smart_contracts/contracts/token/Token.sol\":3337:3376  Transfer(sender(), address(0), feeBurn) */\n      mload(0x40)\n      tag_242\n      swap2\n      swap1\n      tag_29\n      jump\t// in\n    tag_242:\n      mload(0x40)\n      dup1\n      swap2\n      sub\n      swap1\n      log3\n        /* \"smart_contracts/contracts/token/Token.sol\":3062:3387  {... */\n      pop\n        /* \"smart_contracts/contracts/token/Token.sol\":2996:3983  if (settings.bpTransferBurn != 0 && settings.bpTransferBank == 0) {... */\n      jump(tag_243)\n    tag_232:\n        /* \"smart_contracts/contracts/token/Token.sol\":3424:3425  0 */\n      0x00\n        /* \"smart_contracts/contracts/token/Token.sol\":3397:3405  settings */\n      dup1\n        /* \"smart_contracts/contracts/token/Token.sol\":3397:3420  settings.bpTransferBurn */\n      0x00\n      add\n      sload\n        /* \"smart_contracts/contracts/token/Token.sol\":3397:3425  settings.bpTransferBurn == 0 */\n      eq\n        /* \"smart_contracts/contracts/token/Token.sol\":3397:3457  settings.bpTransferBurn == 0 && settings.bpTransferBank != 0 */\n      dup1\n      iszero\n      tag_244\n      jumpi\n      pop\n        /* \"smart_contracts/contracts/token/Token.sol\":3456:3457  0 */\n      0x00\n        /* \"smart_contracts/contracts/token/Token.sol\":3429:3437  settings */\n      dup1\n        /* \"smart_contracts/contracts/token/Token.sol\":3429:3452  settings.bpTransferBank */\n      0x01\n      add\n      sload\n        /* \"smart_contracts/contracts/token/Token.sol\":3429:3457  settings.bpTransferBank != 0 */\n      eq\n      iszero\n        /* \"smart_contracts/contracts/token/Token.sol\":3397:3457  settings.bpTransferBurn == 0 && settings.bpTransferBank != 0 */\n    tag_244:\n        /* \"smart_contracts/contracts/token/Token.sol\":3393:3983  if (settings.bpTransferBurn == 0 && settings.bpTransferBank != 0) {... */\n      iszero\n      tag_245\n      jumpi\n        /* \"smart_contracts/contracts/token/Token.sol\":3473:3488  uint256 feeBank */\n      0x00\n        /* \"smart_contracts/contracts/token/Token.sol\":3509:3517  settings */\n      dup1\n        /* \"smart_contracts/contracts/token/Token.sol\":3509:3532  settings.bpTransferBank */\n      0x01\n      add\n      sload\n        /* \"smart_contracts/contracts/token/Token.sol\":3501:3505  1000 */\n      0x03e8\n        /* \"smart_contracts/contracts/token/Token.sol\":3492:3498  _value */\n      dup5\n        /* \"smart_contracts/contracts/token/Token.sol\":3492:3505  _value / 1000 */\n      tag_246\n      swap2\n      swap1\n      tag_108\n      jump\t// in\n    tag_246:\n        /* \"smart_contracts/contracts/token/Token.sol\":3491:3532  (_value / 1000) * settings.bpTransferBank */\n      tag_247\n      swap2\n      swap1\n      tag_110\n      jump\t// in\n    tag_247:\n        /* \"smart_contracts/contracts/token/Token.sol\":3473:3532  uint256 feeBank = (_value / 1000) * settings.bpTransferBank */\n      swap1\n      pop\n        /* \"smart_contracts/contracts/token/Token.sol\":3571:3578  feeBank */\n      dup1\n        /* \"smart_contracts/contracts/token/Token.sol\":3562:3568  _value */\n      dup4\n        /* \"smart_contracts/contracts/token/Token.sol\":3562:3578  _value - feeBank */\n      tag_248\n      swap2\n      swap1\n      tag_104\n      jump\t// in\n    tag_248:\n        /* \"smart_contracts/contracts/token/Token.sol\":3546:3553  balance */\n      0x08\n        /* \"smart_contracts/contracts/token/Token.sol\":3546:3558  balance[_to] */\n      0x00\n        /* \"smart_contracts/contracts/token/Token.sol\":3554:3557  _to */\n      dup7\n        /* \"smart_contracts/contracts/token/Token.sol\":3546:3558  balance[_to] */\n      0xffffffffffffffffffffffffffffffffffffffff\n      and\n      0xffffffffffffffffffffffffffffffffffffffff\n      and\n      dup2\n      mstore\n      0x20\n      add\n      swap1\n      dup2\n      mstore\n      0x20\n      add\n      0x00\n      keccak256\n      0x00\n        /* \"smart_contracts/contracts/token/Token.sol\":3546:3578  balance[_to] += _value - feeBank */\n      dup3\n      dup3\n      sload\n      tag_249\n      swap2\n      swap1\n      tag_114\n      jump\t// in\n    tag_249:\n      swap3\n      pop\n      pop\n      dup2\n      swap1\n      sstore\n      pop\n        /* \"smart_contracts/contracts/token/Token.sol\":3614:3621  feeBank */\n      dup1\n        /* \"smart_contracts/contracts/token/Token.sol\":3592:3599  balance */\n      0x08\n        /* \"smart_contracts/contracts/token/Token.sol\":3592:3610  balance[meta.bank] */\n      0x00\n        /* \"smart_contracts/contracts/token/Token.sol\":3600:3604  meta */\n      0x02\n        /* \"smart_contracts/contracts/token/Token.sol\":3600:3609  meta.bank */\n      0x05\n      add\n      0x00\n      swap1\n      sload\n      swap1\n      0x0100\n      exp\n      swap1\n      div\n      0xffffffffffffffffffffffffffffffffffffffff\n      and\n        /* \"smart_contracts/contracts/token/Token.sol\":3592:3610  balance[meta.bank] */\n      0xffffffffffffffffffffffffffffffffffffffff\n      and\n      0xffffffffffffffffffffffffffffffffffffffff\n      and\n      dup2\n      mstore\n      0x20\n      add\n      swap1\n      dup2\n      mstore\n      0x20\n      add\n      0x00\n      keccak256\n      0x00\n        /* \"smart_contracts/contracts/token/Token.sol\":3592:3621  balance[meta.bank] += feeBank */\n      dup3\n      dup3\n      sload\n      tag_250\n      swap2\n      swap1\n      tag_114\n      jump\t// in\n    tag_250:\n      swap3\n      pop\n      pop\n      dup2\n      swap1\n      sstore\n      pop\n        /* \"smart_contracts/contracts/token/Token.sol\":3659:3662  _to */\n      dup4\n        /* \"smart_contracts/contracts/token/Token.sol\":3640:3681  Transfer(sender(), _to, _value - feeBank) */\n      0xffffffffffffffffffffffffffffffffffffffff\n      and\n        /* \"smart_contracts/contracts/token/Token.sol\":3649:3657  sender() */\n      tag_251\n        /* \"smart_contracts/contracts/token/Token.sol\":3649:3655  sender */\n      tag_76\n        /* \"smart_contracts/contracts/token/Token.sol\":3649:3657  sender() */\n      jump\t// in\n    tag_251:\n        /* \"smart_contracts/contracts/token/Token.sol\":3640:3681  Transfer(sender(), _to, _value - feeBank) */\n      0xffffffffffffffffffffffffffffffffffffffff\n      and\n      0xddf252ad1be2c89b69c2b068fc378daa952ba7f163c4a11628f55a4df523b3ef\n        /* \"smart_contracts/contracts/token/Token.sol\":3673:3680  feeBank */\n      dup4\n        /* \"smart_contracts/contracts/token/Token.sol\":3664:3670  _value */\n      dup7\n        /* \"smart_contracts/contracts/token/Token.sol\":3664:3680  _value - feeBank */\n      tag_252\n      swap2\n      swap1\n      tag_104\n      jump\t// in\n    tag_252:\n        /* \"smart_contracts/contracts/token/Token.sol\":3640:3681  Transfer(sender(), _to, _value - feeBank) */\n      mload(0x40)\n      tag_253\n      swap2\n      swap1\n      tag_29\n      jump\t// in\n    tag_253:\n      mload(0x40)\n      dup1\n      swap2\n      sub\n      swap1\n      log3\n        /* \"smart_contracts/contracts/token/Token.sol\":3768:3772  meta */\n      0x02\n        /* \"smart_contracts/contracts/token/Token.sol\":3768:3777  meta.bank */\n      0x05\n      add\n      0x00\n      swap1\n      sload\n      swap1\n      0x0100\n      exp\n      swap1\n      div\n      0xffffffffffffffffffffffffffffffffffffffff\n      and\n        /* \"smart_contracts/contracts/token/Token.sol\":3749:3787  Transfer(sender(), meta.bank, feeBank) */\n      0xffffffffffffffffffffffffffffffffffffffff\n      and\n        /* \"smart_contracts/contracts/token/Token.sol\":3758:3766  sender() */\n      tag_254\n        /* \"smart_contracts/contracts/token/Token.sol\":3758:3764  sender */\n      tag_76\n        /* \"smart_contracts/contracts/token/Token.sol\":3758:3766  sender() */\n      jump\t// in\n    tag_254:\n        /* \"smart_contracts/contracts/token/Token.sol\":3749:3787  Transfer(sender(), meta.bank, feeBank) */\n      0xffffffffffffffffffffffffffffffffffffffff\n      and\n      0xddf252ad1be2c89b69c2b068fc378daa952ba7f163c4a11628f55a4df523b3ef\n        /* \"smart_contracts/contracts/token/Token.sol\":3779:3786  feeBank */\n      dup4\n        /* \"smart_contracts/contracts/token/Token.sol\":3749:3787  Transfer(sender(), meta.bank, feeBank) */\n      mload(0x40)\n      tag_255\n      swap2\n      swap1\n      tag_29\n      jump\t// in\n    tag_255:\n      mload(0x40)\n      dup1\n      swap2\n      sub\n      swap1\n      log3\n        /* \"smart_contracts/contracts/token/Token.sol\":3459:3798  {... */\n      pop\n        /* \"smart_contracts/contracts/token/Token.sol\":3393:3983  if (settings.bpTransferBurn == 0 && settings.bpTransferBank != 0) {... */\n      jump(tag_256)\n    tag_245:\n        /* \"smart_contracts/contracts/token/Token.sol\":3916:3922  _value */\n      dup2\n        /* \"smart_contracts/contracts/token/Token.sol\":3900:3907  balance */\n      0x08\n        /* \"smart_contracts/contracts/token/Token.sol\":3900:3912  balance[_to] */\n      0x00\n        /* \"smart_contracts/contracts/token/Token.sol\":3908:3911  _to */\n      dup6\n        /* \"smart_contracts/contracts/token/Token.sol\":3900:3912  balance[_to] */\n      0xffffffffffffffffffffffffffffffffffffffff\n      and\n      0xffffffffffffffffffffffffffffffffffffffff\n      and\n      dup2\n      mstore\n      0x20\n      add\n      swap1\n      dup2\n      mstore\n      0x20\n      add\n      0x00\n      keccak256\n      0x00\n        /* \"smart_contracts/contracts/token/Token.sol\":3900:3922  balance[_to] += _value */\n      dup3\n      dup3\n      sload\n      tag_257\n      swap2\n      swap1\n      tag_114\n      jump\t// in\n    tag_257:\n      swap3\n      pop\n      pop\n      dup2\n      swap1\n      sstore\n      pop\n        /* \"smart_contracts/contracts/token/Token.sol\":3960:3963  _to */\n      dup3\n        /* \"smart_contracts/contracts/token/Token.sol\":3941:3972  Transfer(sender(), _to, _value) */\n      0xffffffffffffffffffffffffffffffffffffffff\n      and\n        /* \"smart_contracts/contracts/token/Token.sol\":3950:3958  sender() */\n      tag_258\n        /* \"smart_contracts/contracts/token/Token.sol\":3950:3956  sender */\n      tag_76\n        /* \"smart_contracts/contracts/token/Token.sol\":3950:3958  sender() */\n      jump\t// in\n    tag_258:\n        /* \"smart_contracts/contracts/token/Token.sol\":3941:3972  Transfer(sender(), _to, _value) */\n      0xffffffffffffffffffffffffffffffffffffffff\n      and\n      0xddf252ad1be2c89b69c2b068fc378daa952ba7f163c4a11628f55a4df523b3ef\n        /* \"smart_contracts/contracts/token/Token.sol\":3965:3971  _value */\n      dup5\n        /* \"smart_contracts/contracts/token/Token.sol\":3941:3972  Transfer(sender(), _to, _value) */\n      mload(0x40)\n      tag_259\n      swap2\n      swap1\n      tag_29\n      jump\t// in\n    tag_259:\n      mload(0x40)\n      dup1\n      swap2\n      sub\n      swap1\n      log3\n        /* \"smart_contracts/contracts/token/Token.sol\":3393:3983  if (settings.bpTransferBurn == 0 && settings.bpTransferBank != 0) {... */\n    tag_256:\n        /* \"smart_contracts/contracts/token/Token.sol\":2996:3983  if (settings.bpTransferBurn != 0 && settings.bpTransferBank == 0) {... */\n    tag_243:\n        /* \"smart_contracts/contracts/token/Token.sol\":2292:3983  if (settings.bpTransferBurn != 0 && settings.bpTransferBank != 0) {... */\n    tag_230:\n        /* \"smart_contracts/contracts/token/Token.sol\":3999:4003  true */\n      0x01\n        /* \"smart_contracts/contracts/token/Token.sol\":3992:4003  return true */\n      swap1\n      pop\n        /* \"smart_contracts/contracts/token/Token.sol\":2004:4010  function transfer(address _to, uint256 _value) public returns (bool sucess) {... */\n      swap3\n      swap2\n      pop\n      pop\n      jump\t// out\n        /* \"smart_contracts/contracts/token/Token.sol\":1758:1833  function maxSupply() public view returns (uint256) {return meta.maxSupply;} */\n    tag_60:\n        /* \"smart_contracts/contracts/token/Token.sol\":1800:1807  uint256 */\n      0x00\n        /* \"smart_contracts/contracts/token/Token.sol\":1817:1821  meta */\n      0x02\n        /* \"smart_contracts/contracts/token/Token.sol\":1817:1831  meta.maxSupply */\n      0x04\n      add\n      sload\n        /* \"smart_contracts/contracts/token/Token.sol\":1810:1831  return meta.maxSupply */\n      swap1\n      pop\n        /* \"smart_contracts/contracts/token/Token.sol\":1758:1833  function maxSupply() public view returns (uint256) {return meta.maxSupply;} */\n      swap1\n      jump\t// out\n        /* \"smart_contracts/contracts/token/Token.sol\":4016:4144  function allowance(address _owner, address _spender) public view returns (uint256 remaining) {return allowed[_owner][_spender];} */\n    tag_65:\n        /* \"smart_contracts/contracts/token/Token.sol\":4090:4107  uint256 remaining */\n      0x00\n        /* \"smart_contracts/contracts/token/Token.sol\":4117:4124  allowed */\n      0x09\n        /* \"smart_contracts/contracts/token/Token.sol\":4117:4132  allowed[_owner] */\n      0x00\n        /* \"smart_contracts/contracts/token/Token.sol\":4125:4131  _owner */\n      dup5\n        /* \"smart_contracts/contracts/token/Token.sol\":4117:4132  allowed[_owner] */\n      0xffffffffffffffffffffffffffffffffffffffff\n      and\n      0xffffffffffffffffffffffffffffffffffffffff\n      and\n      dup2\n      mstore\n      0x20\n      add\n      swap1\n      dup2\n      mstore\n      0x20\n      add\n      0x00\n      keccak256\n        /* \"smart_contracts/contracts/token/Token.sol\":4117:4142  allowed[_owner][_spender] */\n      0x00\n        /* \"smart_contracts/contracts/token/Token.sol\":4133:4141  _spender */\n      dup4\n        /* \"smart_contracts/contracts/token/Token.sol\":4117:4142  allowed[_owner][_spender] */\n      0xffffffffffffffffffffffffffffffffffffffff\n      and\n      0xffffffffffffffffffffffffffffffffffffffff\n      and\n      dup2\n      mstore\n      0x20\n      add\n      swap1\n      dup2\n      mstore\n      0x20\n      add\n      0x00\n      keccak256\n      sload\n        /* \"smart_contracts/contracts/token/Token.sol\":4110:4142  return allowed[_owner][_spender] */\n      swap1\n      pop\n        /* \"smart_contracts/contracts/token/Token.sol\":4016:4144  function allowance(address _owner, address _spender) public view returns (uint256 remaining) {return allowed[_owner][_spender];} */\n      swap3\n      swap2\n      pop\n      pop\n      jump\t// out\n        /* \"smart_contracts/contracts/token/Token.sol\":81:151  function sender() internal view returns (address) {return msg.sender;} */\n    tag_76:\n        /* \"smart_contracts/contracts/token/Token.sol\":122:129  address */\n      0x00\n        /* \"smart_contracts/contracts/token/Token.sol\":139:149  msg.sender */\n      caller\n        /* \"smart_contracts/contracts/token/Token.sol\":132:149  return msg.sender */\n      swap1\n      pop\n        /* \"smart_contracts/contracts/token/Token.sol\":81:151  function sender() internal view returns (address) {return msg.sender;} */\n      swap1\n      jump\t// out\n        /* \"#utility.yul\":7:106   */\n    tag_263:\n        /* \"#utility.yul\":59:65   */\n      0x00\n        /* \"#utility.yul\":93:98   */\n      dup2\n        /* \"#utility.yul\":87:99   */\n      mload\n        /* \"#utility.yul\":77:99   */\n      swap1\n      pop\n        /* \"#utility.yul\":7:106   */\n      swap2\n      swap1\n      pop\n      jump\t// out\n        /* \"#utility.yul\":112:281   */\n    tag_264:\n        /* \"#utility.yul\":196:207   */\n      0x00\n        /* \"#utility.yul\":230:236   */\n      dup3\n        /* \"#utility.yul\":225:228   */\n      dup3\n        /* \"#utility.yul\":218:237   */\n      mstore\n        /* \"#utility.yul\":270:274   */\n      0x20\n        /* \"#utility.yul\":265:268   */\n      dup3\n        /* \"#utility.yul\":261:275   */\n      add\n        /* \"#utility.yul\":246:275   */\n      swap1\n      pop\n        /* \"#utility.yul\":112:281   */\n      swap3\n      swap2\n      pop\n      pop\n      jump\t// out\n        /* \"#utility.yul\":287:533   */\n    tag_265:\n        /* \"#utility.yul\":368:369   */\n      0x00\n        /* \"#utility.yul\":378:491   */\n    tag_298:\n        /* \"#utility.yul\":392:398   */\n      dup4\n        /* \"#utility.yul\":389:390   */\n      dup2\n        /* \"#utility.yul\":386:399   */\n      lt\n        /* \"#utility.yul\":378:491   */\n      iszero\n      tag_300\n      jumpi\n        /* \"#utility.yul\":477:478   */\n      dup1\n        /* \"#utility.yul\":472:475   */\n      dup3\n        /* \"#utility.yul\":468:479   */\n      add\n        /* \"#utility.yul\":462:480   */\n      mload\n        /* \"#utility.yul\":458:459   */\n      dup2\n        /* \"#utility.yul\":453:456   */\n      dup5\n        /* \"#utility.yul\":449:460   */\n      add\n        /* \"#utility.yul\":442:481   */\n      mstore\n        /* \"#utility.yul\":414:416   */\n      0x20\n        /* \"#utility.yul\":411:412   */\n      dup2\n        /* \"#utility.yul\":407:417   */\n      add\n        /* \"#utility.yul\":402:417   */\n      swap1\n      pop\n        /* \"#utility.yul\":378:491   */\n      jump(tag_298)\n    tag_300:\n        /* \"#utility.yul\":525:526   */\n      0x00\n        /* \"#utility.yul\":516:522   */\n      dup5\n        /* \"#utility.yul\":511:514   */\n      dup5\n        /* \"#utility.yul\":507:523   */\n      add\n        /* \"#utility.yul\":500:527   */\n      mstore\n        /* \"#utility.yul\":349:533   */\n      pop\n        /* \"#utility.yul\":287:533   */\n      pop\n      pop\n      pop\n      jump\t// out\n        /* \"#utility.yul\":539:641   */\n    tag_266:\n        /* \"#utility.yul\":580:586   */\n      0x00\n        /* \"#utility.yul\":631:633   */\n      0x1f\n        /* \"#utility.yul\":627:634   */\n      not\n        /* \"#utility.yul\":622:624   */\n      0x1f\n        /* \"#utility.yul\":615:620   */\n      dup4\n        /* \"#utility.yul\":611:625   */\n      add\n        /* \"#utility.yul\":607:635   */\n      and\n        /* \"#utility.yul\":597:635   */\n      swap1\n      pop\n        /* \"#utility.yul\":539:641   */\n      swap2\n      swap1\n      pop\n      jump\t// out\n        /* \"#utility.yul\":647:1024   */\n    tag_267:\n        /* \"#utility.yul\":735:738   */\n      0x00\n        /* \"#utility.yul\":763:802   */\n      tag_303\n        /* \"#utility.yul\":796:801   */\n      dup3\n        /* \"#utility.yul\":763:802   */\n      tag_263\n      jump\t// in\n    tag_303:\n        /* \"#utility.yul\":818:889   */\n      tag_304\n        /* \"#utility.yul\":882:888   */\n      dup2\n        /* \"#utility.yul\":877:880   */\n      dup6\n        /* \"#utility.yul\":818:889   */\n      tag_264\n      jump\t// in\n    tag_304:\n        /* \"#utility.yul\":811:889   */\n      swap4\n      pop\n        /* \"#utility.yul\":898:963   */\n      tag_305\n        /* \"#utility.yul\":956:962   */\n      dup2\n        /* \"#utility.yul\":951:954   */\n      dup6\n        /* \"#utility.yul\":944:948   */\n      0x20\n        /* \"#utility.yul\":937:942   */\n      dup7\n        /* \"#utility.yul\":933:949   */\n      add\n        /* \"#utility.yul\":898:963   */\n      tag_265\n      jump\t// in\n    tag_305:\n        /* \"#utility.yul\":988:1017   */\n      tag_306\n        /* \"#utility.yul\":1010:1016   */\n      dup2\n        /* \"#utility.yul\":988:1017   */\n      tag_266\n      jump\t// in\n    tag_306:\n        /* \"#utility.yul\":983:986   */\n      dup5\n        /* \"#utility.yul\":979:1018   */\n      add\n        /* \"#utility.yul\":972:1018   */\n      swap2\n      pop\n        /* \"#utility.yul\":739:1024   */\n      pop\n        /* \"#utility.yul\":647:1024   */\n      swap3\n      swap2\n      pop\n      pop\n      jump\t// out\n        /* \"#utility.yul\":1030:1343   */\n    tag_19:\n        /* \"#utility.yul\":1143:1147   */\n      0x00\n        /* \"#utility.yul\":1181:1183   */\n      0x20\n        /* \"#utility.yul\":1170:1179   */\n      dup3\n        /* \"#utility.yul\":1166:1184   */\n      add\n        /* \"#utility.yul\":1158:1184   */\n      swap1\n      pop\n        /* \"#utility.yul\":1230:1239   */\n      dup2\n        /* \"#utility.yul\":1224:1228   */\n      dup2\n        /* \"#utility.yul\":1220:1240   */\n      sub\n        /* \"#utility.yul\":1216:1217   */\n      0x00\n        /* \"#utility.yul\":1205:1214   */\n      dup4\n        /* \"#utility.yul\":1201:1218   */\n      add\n        /* \"#utility.yul\":1194:1241   */\n      mstore\n        /* \"#utility.yul\":1258:1336   */\n      tag_308\n        /* \"#utility.yul\":1331:1335   */\n      dup2\n        /* \"#utility.yul\":1322:1328   */\n      dup5\n        /* \"#utility.yul\":1258:1336   */\n      tag_267\n      jump\t// in\n    tag_308:\n        /* \"#utility.yul\":1250:1336   */\n      swap1\n      pop\n        /* \"#utility.yul\":1030:1343   */\n      swap3\n      swap2\n      pop\n      pop\n      jump\t// out\n        /* \"#utility.yul\":1430:1547   */\n    tag_269:\n        /* \"#utility.yul\":1539:1540   */\n      0x00\n        /* \"#utility.yul\":1536:1537   */\n      dup1\n        /* \"#utility.yul\":1529:1541   */\n      revert\n        /* \"#utility.yul\":1676:1802   */\n    tag_271:\n        /* \"#utility.yul\":1713:1720   */\n      0x00\n        /* \"#utility.yul\":1753:1795   */\n      0xffffffffffffffffffffffffffffffffffffffff\n        /* \"#utility.yul\":1746:1751   */\n      dup3\n        /* \"#utility.yul\":1742:1796   */\n      and\n        /* \"#utility.yul\":1731:1796   */\n      swap1\n      pop\n        /* \"#utility.yul\":1676:1802   */\n      swap2\n      swap1\n      pop\n      jump\t// out\n        /* \"#utility.yul\":1808:1904   */\n    tag_272:\n        /* \"#utility.yul\":1845:1852   */\n      0x00\n        /* \"#utility.yul\":1874:1898   */\n      tag_314\n        /* \"#utility.yul\":1892:1897   */\n      dup3\n        /* \"#utility.yul\":1874:1898   */\n      tag_271\n      jump\t// in\n    tag_314:\n        /* \"#utility.yul\":1863:1898   */\n      swap1\n      pop\n        /* \"#utility.yul\":1808:1904   */\n      swap2\n      swap1\n      pop\n      jump\t// out\n        /* \"#utility.yul\":1910:2032   */\n    tag_273:\n        /* \"#utility.yul\":1983:2007   */\n      tag_316\n        /* \"#utility.yul\":2001:2006   */\n      dup2\n        /* \"#utility.yul\":1983:2007   */\n      tag_272\n      jump\t// in\n    tag_316:\n        /* \"#utility.yul\":1976:1981   */\n      dup2\n        /* \"#utility.yul\":1973:2008   */\n      eq\n        /* \"#utility.yul\":1963:2026   */\n      tag_317\n      jumpi\n        /* \"#utility.yul\":2022:2023   */\n      0x00\n        /* \"#utility.yul\":2019:2020   */\n      dup1\n        /* \"#utility.yul\":2012:2024   */\n      revert\n        /* \"#utility.yul\":1963:2026   */\n    tag_317:\n        /* \"#utility.yul\":1910:2032   */\n      pop\n      jump\t// out\n        /* \"#utility.yul\":2038:2177   */\n    tag_274:\n        /* \"#utility.yul\":2084:2089   */\n      0x00\n        /* \"#utility.yul\":2122:2128   */\n      dup2\n        /* \"#utility.yul\":2109:2129   */\n      calldataload\n        /* \"#utility.yul\":2100:2129   */\n      swap1\n      pop\n        /* \"#utility.yul\":2138:2171   */\n      tag_319\n        /* \"#utility.yul\":2165:2170   */\n      dup2\n        /* \"#utility.yul\":2138:2171   */\n      tag_273\n      jump\t// in\n    tag_319:\n        /* \"#utility.yul\":2038:2177   */\n      swap3\n      swap2\n      pop\n      pop\n      jump\t// out\n        /* \"#utility.yul\":2183:2260   */\n    tag_275:\n        /* \"#utility.yul\":2220:2227   */\n      0x00\n        /* \"#utility.yul\":2249:2254   */\n      dup2\n        /* \"#utility.yul\":2238:2254   */\n      swap1\n      pop\n        /* \"#utility.yul\":2183:2260   */\n      swap2\n      swap1\n      pop\n      jump\t// out\n        /* \"#utility.yul\":2266:2388   */\n    tag_276:\n        /* \"#utility.yul\":2339:2363   */\n      tag_322\n        /* \"#utility.yul\":2357:2362   */\n      dup2\n        /* \"#utility.yul\":2339:2363   */\n      tag_275\n      jump\t// in\n    tag_322:\n        /* \"#utility.yul\":2332:2337   */\n      dup2\n        /* \"#utility.yul\":2329:2364   */\n      eq\n        /* \"#utility.yul\":2319:2382   */\n      tag_323\n      jumpi\n        /* \"#utility.yul\":2378:2379   */\n      0x00\n        /* \"#utility.yul\":2375:2376   */\n      dup1\n        /* \"#utility.yul\":2368:2380   */\n      revert\n        /* \"#utility.yul\":2319:2382   */\n    tag_323:\n        /* \"#utility.yul\":2266:2388   */\n      pop\n      jump\t// out\n        /* \"#utility.yul\":2394:2533   */\n    tag_277:\n        /* \"#utility.yul\":2440:2445   */\n      0x00\n        /* \"#utility.yul\":2478:2484   */\n      dup2\n        /* \"#utility.yul\":2465:2485   */\n      calldataload\n        /* \"#utility.yul\":2456:2485   */\n      swap1\n      pop\n        /* \"#utility.yul\":2494:2527   */\n      tag_325\n        /* \"#utility.yul\":2521:2526   */\n      dup2\n        /* \"#utility.yul\":2494:2527   */\n      tag_276\n      jump\t// in\n    tag_325:\n        /* \"#utility.yul\":2394:2533   */\n      swap3\n      swap2\n      pop\n      pop\n      jump\t// out\n        /* \"#utility.yul\":2539:3013   */\n    tag_22:\n        /* \"#utility.yul\":2607:2613   */\n      0x00\n        /* \"#utility.yul\":2615:2621   */\n      dup1\n        /* \"#utility.yul\":2664:2666   */\n      0x40\n        /* \"#utility.yul\":2652:2661   */\n      dup4\n        /* \"#utility.yul\":2643:2650   */\n      dup6\n        /* \"#utility.yul\":2639:2662   */\n      sub\n        /* \"#utility.yul\":2635:2667   */\n      slt\n        /* \"#utility.yul\":2632:2751   */\n      iszero\n      tag_327\n      jumpi\n        /* \"#utility.yul\":2670:2749   */\n      tag_328\n      tag_269\n      jump\t// in\n    tag_328:\n        /* \"#utility.yul\":2632:2751   */\n    tag_327:\n        /* \"#utility.yul\":2790:2791   */\n      0x00\n        /* \"#utility.yul\":2815:2868   */\n      tag_329\n        /* \"#utility.yul\":2860:2867   */\n      dup6\n        /* \"#utility.yul\":2851:2857   */\n      dup3\n        /* \"#utility.yul\":2840:2849   */\n      dup7\n        /* \"#utility.yul\":2836:2858   */\n      add\n        /* \"#utility.yul\":2815:2868   */\n      tag_274\n      jump\t// in\n    tag_329:\n        /* \"#utility.yul\":2805:2868   */\n      swap3\n      pop\n        /* \"#utility.yul\":2761:2878   */\n      pop\n        /* \"#utility.yul\":2917:2919   */\n      0x20\n        /* \"#utility.yul\":2943:2996   */\n      tag_330\n        /* \"#utility.yul\":2988:2995   */\n      dup6\n        /* \"#utility.yul\":2979:2985   */\n      dup3\n        /* \"#utility.yul\":2968:2977   */\n      dup7\n        /* \"#utility.yul\":2964:2986   */\n      add\n        /* \"#utility.yul\":2943:2996   */\n      tag_277\n      jump\t// in\n    tag_330:\n        /* \"#utility.yul\":2933:2996   */\n      swap2\n      pop\n        /* \"#utility.yul\":2888:3006   */\n      pop\n        /* \"#utility.yul\":2539:3013   */\n      swap3\n      pop\n      swap3\n      swap1\n      pop\n      jump\t// out\n        /* \"#utility.yul\":3019:3109   */\n    tag_278:\n        /* \"#utility.yul\":3053:3060   */\n      0x00\n        /* \"#utility.yul\":3096:3101   */\n      dup2\n        /* \"#utility.yul\":3089:3102   */\n      iszero\n        /* \"#utility.yul\":3082:3103   */\n      iszero\n        /* \"#utility.yul\":3071:3103   */\n      swap1\n      pop\n        /* \"#utility.yul\":3019:3109   */\n      swap2\n      swap1\n      pop\n      jump\t// out\n        /* \"#utility.yul\":3115:3224   */\n    tag_279:\n        /* \"#utility.yul\":3196:3217   */\n      tag_333\n        /* \"#utility.yul\":3211:3216   */\n      dup2\n        /* \"#utility.yul\":3196:3217   */\n      tag_278\n      jump\t// in\n    tag_333:\n        /* \"#utility.yul\":3191:3194   */\n      dup3\n        /* \"#utility.yul\":3184:3218   */\n      mstore\n        /* \"#utility.yul\":3115:3224   */\n      pop\n      pop\n      jump\t// out\n        /* \"#utility.yul\":3230:3440   */\n    tag_25:\n        /* \"#utility.yul\":3317:3321   */\n      0x00\n        /* \"#utility.yul\":3355:3357   */\n      0x20\n        /* \"#utility.yul\":3344:3353   */\n      dup3\n        /* \"#utility.yul\":3340:3358   */\n      add\n        /* \"#utility.yul\":3332:3358   */\n      swap1\n      pop\n        /* \"#utility.yul\":3368:3433   */\n      tag_335\n        /* \"#utility.yul\":3430:3431   */\n      0x00\n        /* \"#utility.yul\":3419:3428   */\n      dup4\n        /* \"#utility.yul\":3415:3432   */\n      add\n        /* \"#utility.yul\":3406:3412   */\n      dup5\n        /* \"#utility.yul\":3368:3433   */\n      tag_279\n      jump\t// in\n    tag_335:\n        /* \"#utility.yul\":3230:3440   */\n      swap3\n      swap2\n      pop\n      pop\n      jump\t// out\n        /* \"#utility.yul\":3446:3564   */\n    tag_280:\n        /* \"#utility.yul\":3533:3557   */\n      tag_337\n        /* \"#utility.yul\":3551:3556   */\n      dup2\n        /* \"#utility.yul\":3533:3557   */\n      tag_275\n      jump\t// in\n    tag_337:\n        /* \"#utility.yul\":3528:3531   */\n      dup3\n        /* \"#utility.yul\":3521:3558   */\n      mstore\n        /* \"#utility.yul\":3446:3564   */\n      pop\n      pop\n      jump\t// out\n        /* \"#utility.yul\":3570:3792   */\n    tag_29:\n        /* \"#utility.yul\":3663:3667   */\n      0x00\n        /* \"#utility.yul\":3701:3703   */\n      0x20\n        /* \"#utility.yul\":3690:3699   */\n      dup3\n        /* \"#utility.yul\":3686:3704   */\n      add\n        /* \"#utility.yul\":3678:3704   */\n      swap1\n      pop\n        /* \"#utility.yul\":3714:3785   */\n      tag_339\n        /* \"#utility.yul\":3782:3783   */\n      0x00\n        /* \"#utility.yul\":3771:3780   */\n      dup4\n        /* \"#utility.yul\":3767:3784   */\n      add\n        /* \"#utility.yul\":3758:3764   */\n      dup5\n        /* \"#utility.yul\":3714:3785   */\n      tag_280\n      jump\t// in\n    tag_339:\n        /* \"#utility.yul\":3570:3792   */\n      swap3\n      swap2\n      pop\n      pop\n      jump\t// out\n        /* \"#utility.yul\":3798:4417   */\n    tag_32:\n        /* \"#utility.yul\":3875:3881   */\n      0x00\n        /* \"#utility.yul\":3883:3889   */\n      dup1\n        /* \"#utility.yul\":3891:3897   */\n      0x00\n        /* \"#utility.yul\":3940:3942   */\n      0x60\n        /* \"#utility.yul\":3928:3937   */\n      dup5\n        /* \"#utility.yul\":3919:3926   */\n      dup7\n        /* \"#utility.yul\":3915:3938   */\n      sub\n        /* \"#utility.yul\":3911:3943   */\n      slt\n        /* \"#utility.yul\":3908:4027   */\n      iszero\n      tag_341\n      jumpi\n        /* \"#utility.yul\":3946:4025   */\n      tag_342\n      tag_269\n      jump\t// in\n    tag_342:\n        /* \"#utility.yul\":3908:4027   */\n    tag_341:\n        /* \"#utility.yul\":4066:4067   */\n      0x00\n        /* \"#utility.yul\":4091:4144   */\n      tag_343\n        /* \"#utility.yul\":4136:4143   */\n      dup7\n        /* \"#utility.yul\":4127:4133   */\n      dup3\n        /* \"#utility.yul\":4116:4125   */\n      dup8\n        /* \"#utility.yul\":4112:4134   */\n      add\n        /* \"#utility.yul\":4091:4144   */\n      tag_274\n      jump\t// in\n    tag_343:\n        /* \"#utility.yul\":4081:4144   */\n      swap4\n      pop\n        /* \"#utility.yul\":4037:4154   */\n      pop\n        /* \"#utility.yul\":4193:4195   */\n      0x20\n        /* \"#utility.yul\":4219:4272   */\n      tag_344\n        /* \"#utility.yul\":4264:4271   */\n      dup7\n        /* \"#utility.yul\":4255:4261   */\n      dup3\n        /* \"#utility.yul\":4244:4253   */\n      dup8\n        /* \"#utility.yul\":4240:4262   */\n      add\n        /* \"#utility.yul\":4219:4272   */\n      tag_274\n      jump\t// in\n    tag_344:\n        /* \"#utility.yul\":4209:4272   */\n      swap3\n      pop\n        /* \"#utility.yul\":4164:4282   */\n      pop\n        /* \"#utility.yul\":4321:4323   */\n      0x40\n        /* \"#utility.yul\":4347:4400   */\n      tag_345\n        /* \"#utility.yul\":4392:4399   */\n      dup7\n        /* \"#utility.yul\":4383:4389   */\n      dup3\n        /* \"#utility.yul\":4372:4381   */\n      dup8\n        /* \"#utility.yul\":4368:4390   */\n      add\n        /* \"#utility.yul\":4347:4400   */\n      tag_277\n      jump\t// in\n    tag_345:\n        /* \"#utility.yul\":4337:4400   */\n      swap2\n      pop\n        /* \"#utility.yul\":4292:4410   */\n      pop\n        /* \"#utility.yul\":3798:4417   */\n      swap3\n      pop\n      swap3\n      pop\n      swap3\n      jump\t// out\n        /* \"#utility.yul\":4423:4509   */\n    tag_281:\n        /* \"#utility.yul\":4458:4465   */\n      0x00\n        /* \"#utility.yul\":4498:4502   */\n      0xff\n        /* \"#utility.yul\":4491:4496   */\n      dup3\n        /* \"#utility.yul\":4487:4503   */\n      and\n        /* \"#utility.yul\":4476:4503   */\n      swap1\n      pop\n        /* \"#utility.yul\":4423:4509   */\n      swap2\n      swap1\n      pop\n      jump\t// out\n        /* \"#utility.yul\":4515:4627   */\n    tag_282:\n        /* \"#utility.yul\":4598:4620   */\n      tag_348\n        /* \"#utility.yul\":4614:4619   */\n      dup2\n        /* \"#utility.yul\":4598:4620   */\n      tag_281\n      jump\t// in\n    tag_348:\n        /* \"#utility.yul\":4593:4596   */\n      dup3\n        /* \"#utility.yul\":4586:4621   */\n      mstore\n        /* \"#utility.yul\":4515:4627   */\n      pop\n      pop\n      jump\t// out\n        /* \"#utility.yul\":4633:4847   */\n    tag_38:\n        /* \"#utility.yul\":4722:4726   */\n      0x00\n        /* \"#utility.yul\":4760:4762   */\n      0x20\n        /* \"#utility.yul\":4749:4758   */\n      dup3\n        /* \"#utility.yul\":4745:4763   */\n      add\n        /* \"#utility.yul\":4737:4763   */\n      swap1\n      pop\n        /* \"#utility.yul\":4773:4840   */\n      tag_350\n        /* \"#utility.yul\":4837:4838   */\n      0x00\n        /* \"#utility.yul\":4826:4835   */\n      dup4\n        /* \"#utility.yul\":4822:4839   */\n      add\n        /* \"#utility.yul\":4813:4819   */\n      dup5\n        /* \"#utility.yul\":4773:4840   */\n      tag_282\n      jump\t// in\n    tag_350:\n        /* \"#utility.yul\":4633:4847   */\n      swap3\n      swap2\n      pop\n      pop\n      jump\t// out\n        /* \"#utility.yul\":4853:5182   */\n    tag_45:\n        /* \"#utility.yul\":4912:4918   */\n      0x00\n        /* \"#utility.yul\":4961:4963   */\n      0x20\n        /* \"#utility.yul\":4949:4958   */\n      dup3\n        /* \"#utility.yul\":4940:4947   */\n      dup5\n        /* \"#utility.yul\":4936:4959   */\n      sub\n        /* \"#utility.yul\":4932:4964   */\n      slt\n        /* \"#utility.yul\":4929:5048   */\n      iszero\n      tag_352\n      jumpi\n        /* \"#utility.yul\":4967:5046   */\n      tag_353\n      tag_269\n      jump\t// in\n    tag_353:\n        /* \"#utility.yul\":4929:5048   */\n    tag_352:\n        /* \"#utility.yul\":5087:5088   */\n      0x00\n        /* \"#utility.yul\":5112:5165   */\n      tag_354\n        /* \"#utility.yul\":5157:5164   */\n      dup5\n        /* \"#utility.yul\":5148:5154   */\n      dup3\n        /* \"#utility.yul\":5137:5146   */\n      dup6\n        /* \"#utility.yul\":5133:5155   */\n      add\n        /* \"#utility.yul\":5112:5165   */\n      tag_274\n      jump\t// in\n    tag_354:\n        /* \"#utility.yul\":5102:5165   */\n      swap2\n      pop\n        /* \"#utility.yul\":5058:5175   */\n      pop\n        /* \"#utility.yul\":4853:5182   */\n      swap3\n      swap2\n      pop\n      pop\n      jump\t// out\n        /* \"#utility.yul\":5188:5662   */\n    tag_64:\n        /* \"#utility.yul\":5256:5262   */\n      0x00\n        /* \"#utility.yul\":5264:5270   */\n      dup1\n        /* \"#utility.yul\":5313:5315   */\n      0x40\n        /* \"#utility.yul\":5301:5310   */\n      dup4\n        /* \"#utility.yul\":5292:5299   */\n      dup6\n        /* \"#utility.yul\":5288:5311   */\n      sub\n        /* \"#utility.yul\":5284:5316   */\n      slt\n        /* \"#utility.yul\":5281:5400   */\n      iszero\n      tag_356\n      jumpi\n        /* \"#utility.yul\":5319:5398   */\n      tag_357\n      tag_269\n      jump\t// in\n    tag_357:\n        /* \"#utility.yul\":5281:5400   */\n    tag_356:\n        /* \"#utility.yul\":5439:5440   */\n      0x00\n        /* \"#utility.yul\":5464:5517   */\n      tag_358\n        /* \"#utility.yul\":5509:5516   */\n      dup6\n        /* \"#utility.yul\":5500:5506   */\n      dup3\n        /* \"#utility.yul\":5489:5498   */\n      dup7\n        /* \"#utility.yul\":5485:5507   */\n      add\n        /* \"#utility.yul\":5464:5517   */\n      tag_274\n      jump\t// in\n    tag_358:\n        /* \"#utility.yul\":5454:5517   */\n      swap3\n      pop\n        /* \"#utility.yul\":5410:5527   */\n      pop\n        /* \"#utility.yul\":5566:5568   */\n      0x20\n        /* \"#utility.yul\":5592:5645   */\n      tag_359\n        /* \"#utility.yul\":5637:5644   */\n      dup6\n        /* \"#utility.yul\":5628:5634   */\n      dup3\n        /* \"#utility.yul\":5617:5626   */\n      dup7\n        /* \"#utility.yul\":5613:5635   */\n      add\n        /* \"#utility.yul\":5592:5645   */\n      tag_274\n      jump\t// in\n    tag_359:\n        /* \"#utility.yul\":5582:5645   */\n      swap2\n      pop\n        /* \"#utility.yul\":5537:5655   */\n      pop\n        /* \"#utility.yul\":5188:5662   */\n      swap3\n      pop\n      swap3\n      swap1\n      pop\n      jump\t// out\n        /* \"#utility.yul\":5668:5848   */\n    tag_283:\n        /* \"#utility.yul\":5716:5793   */\n      0x4e487b7100000000000000000000000000000000000000000000000000000000\n        /* \"#utility.yul\":5713:5714   */\n      0x00\n        /* \"#utility.yul\":5706:5794   */\n      mstore\n        /* \"#utility.yul\":5813:5817   */\n      0x22\n        /* \"#utility.yul\":5810:5811   */\n      0x04\n        /* \"#utility.yul\":5803:5818   */\n      mstore\n        /* \"#utility.yul\":5837:5841   */\n      0x24\n        /* \"#utility.yul\":5834:5835   */\n      0x00\n        /* \"#utility.yul\":5827:5842   */\n      revert\n        /* \"#utility.yul\":5854:6174   */\n    tag_69:\n        /* \"#utility.yul\":5898:5904   */\n      0x00\n        /* \"#utility.yul\":5935:5936   */\n      0x02\n        /* \"#utility.yul\":5929:5933   */\n      dup3\n        /* \"#utility.yul\":5925:5937   */\n      div\n        /* \"#utility.yul\":5915:5937   */\n      swap1\n      pop\n        /* \"#utility.yul\":5982:5983   */\n      0x01\n        /* \"#utility.yul\":5976:5980   */\n      dup3\n        /* \"#utility.yul\":5972:5984   */\n      and\n        /* \"#utility.yul\":6003:6021   */\n      dup1\n        /* \"#utility.yul\":5993:6074   */\n      tag_362\n      jumpi\n        /* \"#utility.yul\":6059:6063   */\n      0x7f\n        /* \"#utility.yul\":6051:6057   */\n      dup3\n        /* \"#utility.yul\":6047:6064   */\n      and\n        /* \"#utility.yul\":6037:6064   */\n      swap2\n      pop\n        /* \"#utility.yul\":5993:6074   */\n    tag_362:\n        /* \"#utility.yul\":6121:6123   */\n      0x20\n        /* \"#utility.yul\":6113:6119   */\n      dup3\n        /* \"#utility.yul\":6110:6124   */\n      lt\n        /* \"#utility.yul\":6090:6108   */\n      dup2\n        /* \"#utility.yul\":6087:6125   */\n      sub\n        /* \"#utility.yul\":6084:6168   */\n      tag_363\n      jumpi\n        /* \"#utility.yul\":6140:6158   */\n      tag_364\n      tag_283\n      jump\t// in\n    tag_364:\n        /* \"#utility.yul\":6084:6168   */\n    tag_363:\n        /* \"#utility.yul\":5905:6174   */\n      pop\n        /* \"#utility.yul\":5854:6174   */\n      swap2\n      swap1\n      pop\n      jump\t// out\n        /* \"#utility.yul\":6180:6342   */\n    tag_284:\n        /* \"#utility.yul\":6320:6334   */\n      0x7a65726f20616464726573730000000000000000000000000000000000000000\n        /* \"#utility.yul\":6316:6317   */\n      0x00\n        /* \"#utility.yul\":6308:6314   */\n      dup3\n        /* \"#utility.yul\":6304:6318   */\n      add\n        /* \"#utility.yul\":6297:6335   */\n      mstore\n        /* \"#utility.yul\":6180:6342   */\n      pop\n      jump\t// out\n        /* \"#utility.yul\":6348:6714   */\n    tag_285:\n        /* \"#utility.yul\":6490:6493   */\n      0x00\n        /* \"#utility.yul\":6511:6578   */\n      tag_367\n        /* \"#utility.yul\":6575:6577   */\n      0x0c\n        /* \"#utility.yul\":6570:6573   */\n      dup4\n        /* \"#utility.yul\":6511:6578   */\n      tag_264\n      jump\t// in\n    tag_367:\n        /* \"#utility.yul\":6504:6578   */\n      swap2\n      pop\n        /* \"#utility.yul\":6587:6680   */\n      tag_368\n        /* \"#utility.yul\":6676:6679   */\n      dup3\n        /* \"#utility.yul\":6587:6680   */\n      tag_284\n      jump\t// in\n    tag_368:\n        /* \"#utility.yul\":6705:6707   */\n      0x20\n        /* \"#utility.yul\":6700:6703   */\n      dup3\n        /* \"#utility.yul\":6696:6708   */\n      add\n        /* \"#utility.yul\":6689:6708   */\n      swap1\n      pop\n        /* \"#utility.yul\":6348:6714   */\n      swap2\n      swap1\n      pop\n      jump\t// out\n        /* \"#utility.yul\":6720:7139   */\n    tag_80:\n        /* \"#utility.yul\":6886:6890   */\n      0x00\n        /* \"#utility.yul\":6924:6926   */\n      0x20\n        /* \"#utility.yul\":6913:6922   */\n      dup3\n        /* \"#utility.yul\":6909:6927   */\n      add\n        /* \"#utility.yul\":6901:6927   */\n      swap1\n      pop\n        /* \"#utility.yul\":6973:6982   */\n      dup2\n        /* \"#utility.yul\":6967:6971   */\n      dup2\n        /* \"#utility.yul\":6963:6983   */\n      sub\n        /* \"#utility.yul\":6959:6960   */\n      0x00\n        /* \"#utility.yul\":6948:6957   */\n      dup4\n        /* \"#utility.yul\":6944:6961   */\n      add\n        /* \"#utility.yul\":6937:6984   */\n      mstore\n        /* \"#utility.yul\":7001:7132   */\n      tag_370\n        /* \"#utility.yul\":7127:7131   */\n      dup2\n        /* \"#utility.yul\":7001:7132   */\n      tag_285\n      jump\t// in\n    tag_370:\n        /* \"#utility.yul\":6993:7132   */\n      swap1\n      pop\n        /* \"#utility.yul\":6720:7139   */\n      swap2\n      swap1\n      pop\n      jump\t// out\n        /* \"#utility.yul\":7145:7315   */\n    tag_286:\n        /* \"#utility.yul\":7285:7307   */\n      0x696e73756666696369656e742062616c616e6365000000000000000000000000\n        /* \"#utility.yul\":7281:7282   */\n      0x00\n        /* \"#utility.yul\":7273:7279   */\n      dup3\n        /* \"#utility.yul\":7269:7283   */\n      add\n        /* \"#utility.yul\":7262:7308   */\n      mstore\n        /* \"#utility.yul\":7145:7315   */\n      pop\n      jump\t// out\n        /* \"#utility.yul\":7321:7687   */\n    tag_287:\n        /* \"#utility.yul\":7463:7466   */\n      0x00\n        /* \"#utility.yul\":7484:7551   */\n      tag_373\n        /* \"#utility.yul\":7548:7550   */\n      0x14\n        /* \"#utility.yul\":7543:7546   */\n      dup4\n        /* \"#utility.yul\":7484:7551   */\n      tag_264\n      jump\t// in\n    tag_373:\n        /* \"#utility.yul\":7477:7551   */\n      swap2\n      pop\n        /* \"#utility.yul\":7560:7653   */\n      tag_374\n        /* \"#utility.yul\":7649:7652   */\n      dup3\n        /* \"#utility.yul\":7560:7653   */\n      tag_286\n      jump\t// in\n    tag_374:\n        /* \"#utility.yul\":7678:7680   */\n      0x20\n        /* \"#utility.yul\":7673:7676   */\n      dup3\n        /* \"#utility.yul\":7669:7681   */\n      add\n        /* \"#utility.yul\":7662:7681   */\n      swap1\n      pop\n        /* \"#utility.yul\":7321:7687   */\n      swap2\n      swap1\n      pop\n      jump\t// out\n        /* \"#utility.yul\":7693:8112   */\n    tag_98:\n        /* \"#utility.yul\":7859:7863   */\n      0x00\n        /* \"#utility.yul\":7897:7899   */\n      0x20\n        /* \"#utility.yul\":7886:7895   */\n      dup3\n        /* \"#utility.yul\":7882:7900   */\n      add\n        /* \"#utility.yul\":7874:7900   */\n      swap1\n      pop\n        /* \"#utility.yul\":7946:7955   */\n      dup2\n        /* \"#utility.yul\":7940:7944   */\n      dup2\n        /* \"#utility.yul\":7936:7956   */\n      sub\n        /* \"#utility.yul\":7932:7933   */\n      0x00\n        /* \"#utility.yul\":7921:7930   */\n      dup4\n        /* \"#utility.yul\":7917:7934   */\n      add\n        /* \"#utility.yul\":7910:7957   */\n      mstore\n        /* \"#utility.yul\":7974:8105   */\n      tag_376\n        /* \"#utility.yul\":8100:8104   */\n      dup2\n        /* \"#utility.yul\":7974:8105   */\n      tag_287\n      jump\t// in\n    tag_376:\n        /* \"#utility.yul\":7966:8105   */\n      swap1\n      pop\n        /* \"#utility.yul\":7693:8112   */\n      swap2\n      swap1\n      pop\n      jump\t// out\n        /* \"#utility.yul\":8118:8298   */\n    tag_288:\n        /* \"#utility.yul\":8166:8243   */\n      0x4e487b7100000000000000000000000000000000000000000000000000000000\n        /* \"#utility.yul\":8163:8164   */\n      0x00\n        /* \"#utility.yul\":8156:8244   */\n      mstore\n        /* \"#utility.yul\":8263:8267   */\n      0x11\n        /* \"#utility.yul\":8260:8261   */\n      0x04\n        /* \"#utility.yul\":8253:8268   */\n      mstore\n        /* \"#utility.yul\":8287:8291   */\n      0x24\n        /* \"#utility.yul\":8284:8285   */\n      0x00\n        /* \"#utility.yul\":8277:8292   */\n      revert\n        /* \"#utility.yul\":8304:8498   */\n    tag_104:\n        /* \"#utility.yul\":8344:8348   */\n      0x00\n        /* \"#utility.yul\":8364:8384   */\n      tag_379\n        /* \"#utility.yul\":8382:8383   */\n      dup3\n        /* \"#utility.yul\":8364:8384   */\n      tag_275\n      jump\t// in\n    tag_379:\n        /* \"#utility.yul\":8359:8384   */\n      swap2\n      pop\n        /* \"#utility.yul\":8398:8418   */\n      tag_380\n        /* \"#utility.yul\":8416:8417   */\n      dup4\n        /* \"#utility.yul\":8398:8418   */\n      tag_275\n      jump\t// in\n    tag_380:\n        /* \"#utility.yul\":8393:8418   */\n      swap3\n      pop\n        /* \"#utility.yul\":8442:8443   */\n      dup3\n        /* \"#utility.yul\":8439:8440   */\n      dup3\n        /* \"#utility.yul\":8435:8444   */\n      sub\n        /* \"#utility.yul\":8427:8444   */\n      swap1\n      pop\n        /* \"#utility.yul\":8466:8467   */\n      dup2\n        /* \"#utility.yul\":8460:8464   */\n      dup2\n        /* \"#utility.yul\":8457:8468   */\n      gt\n        /* \"#utility.yul\":8454:8491   */\n      iszero\n      tag_381\n      jumpi\n        /* \"#utility.yul\":8471:8489   */\n      tag_382\n      tag_288\n      jump\t// in\n    tag_382:\n        /* \"#utility.yul\":8454:8491   */\n    tag_381:\n        /* \"#utility.yul\":8304:8498   */\n      swap3\n      swap2\n      pop\n      pop\n      jump\t// out\n        /* \"#utility.yul\":8504:8684   */\n    tag_289:\n        /* \"#utility.yul\":8552:8629   */\n      0x4e487b7100000000000000000000000000000000000000000000000000000000\n        /* \"#utility.yul\":8549:8550   */\n      0x00\n        /* \"#utility.yul\":8542:8630   */\n      mstore\n        /* \"#utility.yul\":8649:8653   */\n      0x12\n        /* \"#utility.yul\":8646:8647   */\n      0x04\n        /* \"#utility.yul\":8639:8654   */\n      mstore\n        /* \"#utility.yul\":8673:8677   */\n      0x24\n        /* \"#utility.yul\":8670:8671   */\n      0x00\n        /* \"#utility.yul\":8663:8678   */\n      revert\n        /* \"#utility.yul\":8690:8875   */\n    tag_108:\n        /* \"#utility.yul\":8730:8731   */\n      0x00\n        /* \"#utility.yul\":8747:8767   */\n      tag_385\n        /* \"#utility.yul\":8765:8766   */\n      dup3\n        /* \"#utility.yul\":8747:8767   */\n      tag_275\n      jump\t// in\n    tag_385:\n        /* \"#utility.yul\":8742:8767   */\n      swap2\n      pop\n        /* \"#utility.yul\":8781:8801   */\n      tag_386\n        /* \"#utility.yul\":8799:8800   */\n      dup4\n        /* \"#utility.yul\":8781:8801   */\n      tag_275\n      jump\t// in\n    tag_386:\n        /* \"#utility.yul\":8776:8801   */\n      swap3\n      pop\n        /* \"#utility.yul\":8820:8821   */\n      dup3\n        /* \"#utility.yul\":8810:8845   */\n      tag_387\n      jumpi\n        /* \"#utility.yul\":8825:8843   */\n      tag_388\n      tag_289\n      jump\t// in\n    tag_388:\n        /* \"#utility.yul\":8810:8845   */\n    tag_387:\n        /* \"#utility.yul\":8867:8868   */\n      dup3\n        /* \"#utility.yul\":8864:8865   */\n      dup3\n        /* \"#utility.yul\":8860:8869   */\n      div\n        /* \"#utility.yul\":8855:8869   */\n      swap1\n      pop\n        /* \"#utility.yul\":8690:8875   */\n      swap3\n      swap2\n      pop\n      pop\n      jump\t// out\n        /* \"#utility.yul\":8881:9291   */\n    tag_110:\n        /* \"#utility.yul\":8921:8928   */\n      0x00\n        /* \"#utility.yul\":8944:8964   */\n      tag_390\n        /* \"#utility.yul\":8962:8963   */\n      dup3\n        /* \"#utility.yul\":8944:8964   */\n      tag_275\n      jump\t// in\n    tag_390:\n        /* \"#utility.yul\":8939:8964   */\n      swap2\n      pop\n        /* \"#utility.yul\":8978:8998   */\n      tag_391\n        /* \"#utility.yul\":8996:8997   */\n      dup4\n        /* \"#utility.yul\":8978:8998   */\n      tag_275\n      jump\t// in\n    tag_391:\n        /* \"#utility.yul\":8973:8998   */\n      swap3\n      pop\n        /* \"#utility.yul\":9033:9034   */\n      dup3\n        /* \"#utility.yul\":9030:9031   */\n      dup3\n        /* \"#utility.yul\":9026:9035   */\n      mul\n        /* \"#utility.yul\":9055:9085   */\n      tag_392\n        /* \"#utility.yul\":9073:9084   */\n      dup2\n        /* \"#utility.yul\":9055:9085   */\n      tag_275\n      jump\t// in\n    tag_392:\n        /* \"#utility.yul\":9044:9085   */\n      swap2\n      pop\n        /* \"#utility.yul\":9234:9235   */\n      dup3\n        /* \"#utility.yul\":9225:9232   */\n      dup3\n        /* \"#utility.yul\":9221:9236   */\n      div\n        /* \"#utility.yul\":9218:9219   */\n      dup5\n        /* \"#utility.yul\":9215:9237   */\n      eq\n        /* \"#utility.yul\":9195:9196   */\n      dup4\n        /* \"#utility.yul\":9188:9197   */\n      iszero\n        /* \"#utility.yul\":9168:9251   */\n      or\n        /* \"#utility.yul\":9145:9284   */\n      tag_393\n      jumpi\n        /* \"#utility.yul\":9264:9282   */\n      tag_394\n      tag_288\n      jump\t// in\n    tag_394:\n        /* \"#utility.yul\":9145:9284   */\n    tag_393:\n        /* \"#utility.yul\":8929:9291   */\n      pop\n        /* \"#utility.yul\":8881:9291   */\n      swap3\n      swap2\n      pop\n      pop\n      jump\t// out\n        /* \"#utility.yul\":9297:9488   */\n    tag_114:\n        /* \"#utility.yul\":9337:9340   */\n      0x00\n        /* \"#utility.yul\":9356:9376   */\n      tag_396\n        /* \"#utility.yul\":9374:9375   */\n      dup3\n        /* \"#utility.yul\":9356:9376   */\n      tag_275\n      jump\t// in\n    tag_396:\n        /* \"#utility.yul\":9351:9376   */\n      swap2\n      pop\n        /* \"#utility.yul\":9390:9410   */\n      tag_397\n        /* \"#utility.yul\":9408:9409   */\n      dup4\n        /* \"#utility.yul\":9390:9410   */\n      tag_275\n      jump\t// in\n    tag_397:\n        /* \"#utility.yul\":9385:9410   */\n      swap3\n      pop\n        /* \"#utility.yul\":9433:9434   */\n      dup3\n        /* \"#utility.yul\":9430:9431   */\n      dup3\n        /* \"#utility.yul\":9426:9435   */\n      add\n        /* \"#utility.yul\":9419:9435   */\n      swap1\n      pop\n        /* \"#utility.yul\":9454:9457   */\n      dup1\n        /* \"#utility.yul\":9451:9452   */\n      dup3\n        /* \"#utility.yul\":9448:9458   */\n      gt\n        /* \"#utility.yul\":9445:9481   */\n      iszero\n      tag_398\n      jumpi\n        /* \"#utility.yul\":9461:9479   */\n      tag_399\n      tag_288\n      jump\t// in\n    tag_399:\n        /* \"#utility.yul\":9445:9481   */\n    tag_398:\n        /* \"#utility.yul\":9297:9488   */\n      swap3\n      swap2\n      pop\n      pop\n      jump\t// out\n        /* \"#utility.yul\":9494:9727   */\n    tag_290:\n        /* \"#utility.yul\":9634:9668   */\n      0x7a65726f2061646472657373207c7c2064656372656173656420616c6c6f7761\n        /* \"#utility.yul\":9630:9631   */\n      0x00\n        /* \"#utility.yul\":9622:9628   */\n      dup3\n        /* \"#utility.yul\":9618:9632   */\n      add\n        /* \"#utility.yul\":9611:9669   */\n      mstore\n        /* \"#utility.yul\":9703:9719   */\n      0x6e63652062656c6f77207a65726f000000000000000000000000000000000000\n        /* \"#utility.yul\":9698:9700   */\n      0x20\n        /* \"#utility.yul\":9690:9696   */\n      dup3\n        /* \"#utility.yul\":9686:9701   */\n      add\n        /* \"#utility.yul\":9679:9720   */\n      mstore\n        /* \"#utility.yul\":9494:9727   */\n      pop\n      jump\t// out\n        /* \"#utility.yul\":9733:10099   */\n    tag_291:\n        /* \"#utility.yul\":9875:9878   */\n      0x00\n        /* \"#utility.yul\":9896:9963   */\n      tag_402\n        /* \"#utility.yul\":9960:9962   */\n      0x2e\n        /* \"#utility.yul\":9955:9958   */\n      dup4\n        /* \"#utility.yul\":9896:9963   */\n      tag_264\n      jump\t// in\n    tag_402:\n        /* \"#utility.yul\":9889:9963   */\n      swap2\n      pop\n        /* \"#utility.yul\":9972:10065   */\n      tag_403\n        /* \"#utility.yul\":10061:10064   */\n      dup3\n        /* \"#utility.yul\":9972:10065   */\n      tag_290\n      jump\t// in\n    tag_403:\n        /* \"#utility.yul\":10090:10092   */\n      0x40\n        /* \"#utility.yul\":10085:10088   */\n      dup3\n        /* \"#utility.yul\":10081:10093   */\n      add\n        /* \"#utility.yul\":10074:10093   */\n      swap1\n      pop\n        /* \"#utility.yul\":9733:10099   */\n      swap2\n      swap1\n      pop\n      jump\t// out\n        /* \"#utility.yul\":10105:10524   */\n    tag_189:\n        /* \"#utility.yul\":10271:10275   */\n      0x00\n        /* \"#utility.yul\":10309:10311   */\n      0x20\n        /* \"#utility.yul\":10298:10307   */\n      dup3\n        /* \"#utility.yul\":10294:10312   */\n      add\n        /* \"#utility.yul\":10286:10312   */\n      swap1\n      pop\n        /* \"#utility.yul\":10358:10367   */\n      dup2\n        /* \"#utility.yul\":10352:10356   */\n      dup2\n        /* \"#utility.yul\":10348:10368   */\n      sub\n        /* \"#utility.yul\":10344:10345   */\n      0x00\n        /* \"#utility.yul\":10333:10342   */\n      dup4\n        /* \"#utility.yul\":10329:10346   */\n      add\n        /* \"#utility.yul\":10322:10369   */\n      mstore\n        /* \"#utility.yul\":10386:10517   */\n      tag_405\n        /* \"#utility.yul\":10512:10516   */\n      dup2\n        /* \"#utility.yul\":10386:10517   */\n      tag_291\n      jump\t// in\n    tag_405:\n        /* \"#utility.yul\":10378:10517   */\n      swap1\n      pop\n        /* \"#utility.yul\":10105:10524   */\n      swap2\n      swap1\n      pop\n      jump\t// out\n        /* \"#utility.yul\":10530:10753   */\n    tag_292:\n        /* \"#utility.yul\":10670:10704   */\n      0x7a65726f2061646472657373207c7c20696e73756666696369656e742062616c\n        /* \"#utility.yul\":10666:10667   */\n      0x00\n        /* \"#utility.yul\":10658:10664   */\n      dup3\n        /* \"#utility.yul\":10654:10668   */\n      add\n        /* \"#utility.yul\":10647:10705   */\n      mstore\n        /* \"#utility.yul\":10739:10745   */\n      0x616e636500000000000000000000000000000000000000000000000000000000\n        /* \"#utility.yul\":10734:10736   */\n      0x20\n        /* \"#utility.yul\":10726:10732   */\n      dup3\n        /* \"#utility.yul\":10722:10737   */\n      add\n        /* \"#utility.yul\":10715:10746   */\n      mstore\n        /* \"#utility.yul\":10530:10753   */\n      pop\n      jump\t// out\n        /* \"#utility.yul\":10759:11125   */\n    tag_293:\n        /* \"#utility.yul\":10901:10904   */\n      0x00\n        /* \"#utility.yul\":10922:10989   */\n      tag_408\n        /* \"#utility.yul\":10986:10988   */\n      0x24\n        /* \"#utility.yul\":10981:10984   */\n      dup4\n        /* \"#utility.yul\":10922:10989   */\n      tag_264\n      jump\t// in\n    tag_408:\n        /* \"#utility.yul\":10915:10989   */\n      swap2\n      pop\n        /* \"#utility.yul\":10998:11091   */\n      tag_409\n        /* \"#utility.yul\":11087:11090   */\n      dup3\n        /* \"#utility.yul\":10998:11091   */\n      tag_292\n      jump\t// in\n    tag_409:\n        /* \"#utility.yul\":11116:11118   */\n      0x40\n        /* \"#utility.yul\":11111:11114   */\n      dup3\n        /* \"#utility.yul\":11107:11119   */\n      add\n        /* \"#utility.yul\":11100:11119   */\n      swap1\n      pop\n        /* \"#utility.yul\":10759:11125   */\n      swap2\n      swap1\n      pop\n      jump\t// out\n        /* \"#utility.yul\":11131:11550   */\n    tag_208:\n        /* \"#utility.yul\":11297:11301   */\n      0x00\n        /* \"#utility.yul\":11335:11337   */\n      0x20\n        /* \"#utility.yul\":11324:11333   */\n      dup3\n        /* \"#utility.yul\":11320:11338   */\n      add\n        /* \"#utility.yul\":11312:11338   */\n      swap1\n      pop\n        /* \"#utility.yul\":11384:11393   */\n      dup2\n        /* \"#utility.yul\":11378:11382   */\n      dup2\n        /* \"#utility.yul\":11374:11394   */\n      sub\n        /* \"#utility.yul\":11370:11371   */\n      0x00\n        /* \"#utility.yul\":11359:11368   */\n      dup4\n        /* \"#utility.yul\":11355:11372   */\n      add\n        /* \"#utility.yul\":11348:11395   */\n      mstore\n        /* \"#utility.yul\":11412:11543   */\n      tag_411\n        /* \"#utility.yul\":11538:11542   */\n      dup2\n        /* \"#utility.yul\":11412:11543   */\n      tag_293\n      jump\t// in\n    tag_411:\n        /* \"#utility.yul\":11404:11543   */\n      swap1\n      pop\n        /* \"#utility.yul\":11131:11550   */\n      swap2\n      swap1\n      pop\n      jump\t// out\n\n    auxdata: 0xa2646970667358221220b175412095023c4bdadce3eb173c0c2f14bd95cafba8108fa070067aa834407a64736f6c63430008120033\n}\n",
				"bytecode": {
					"linkReferences": {},
					"object": "60806040523480156200001157600080fd5b506040518060400160405280600c81526020017f447265616d636174636865720000000000000000000000000000000000000000815250600260000190816200005b919062000598565b506040518060400160405280600581526020017f445245414d00000000000000000000000000000000000000000000000000000081525060026001019081620000a5919062000598565b5060126002800160006101000a81548160ff021916908360ff16021790555060006002600301819055506002800160009054906101000a900460ff16600a620000ef91906200080f565b630bebc20062000100919062000860565b600260040181905550620001196200019d60201b60201c565b600260050160006101000a81548173ffffffffffffffffffffffffffffffffffffffff021916908373ffffffffffffffffffffffffffffffffffffffff16021790555062000182620001706200019d60201b60201c565b600260040154620001a560201b60201c565b600f6000800181905550600a60006001018190555062000997565b600033905090565b600073ffffffffffffffffffffffffffffffffffffffff168273ffffffffffffffffffffffffffffffffffffffff160362000217576040517f08c379a00000000000000000000000000000000000000000000000000000000081526004016200020e906200090c565b60405180910390fd5b600260040154816002600301546200023091906200092e565b11156200023c57600080fd5b80600260030160008282546200025391906200092e565b9250508190555080600860008473ffffffffffffffffffffffffffffffffffffffff1673ffffffffffffffffffffffffffffffffffffffff1681526020019081526020016000206000828254620002ab91906200092e565b925050819055508173ffffffffffffffffffffffffffffffffffffffff16600073ffffffffffffffffffffffffffffffffffffffff167fddf252ad1be2c89b69c2b068fc378daa952ba7f163c4a11628f55a4df523b3ef836040516200031291906200097a565b60405180910390a35050565b600081519050919050565b7f4e487b7100000000000000000000000000000000000000000000000000000000600052604160045260246000fd5b7f4e487b7100000000000000000000000000000000000000000000000000000000600052602260045260246000fd5b60006002820490506001821680620003a057607f821691505b602082108103620003b657620003b562000358565b5b50919050565b60008190508160005260206000209050919050565b60006020601f8301049050919050565b600082821b905092915050565b600060088302620004207fffffffffffffffffffffffffffffffffffffffffffffffffffffffffffffffff82620003e1565b6200042c8683620003e1565b95508019841693508086168417925050509392505050565b6000819050919050565b6000819050919050565b600062000479620004736200046d8462000444565b6200044e565b62000444565b9050919050565b6000819050919050565b620004958362000458565b620004ad620004a48262000480565b848454620003ee565b825550505050565b600090565b620004c4620004b5565b620004d18184846200048a565b505050565b5b81811015620004f957620004ed600082620004ba565b600181019050620004d7565b5050565b601f82111562000548576200051281620003bc565b6200051d84620003d1565b810160208510156200052d578190505b620005456200053c85620003d1565b830182620004d6565b50505b505050565b600082821c905092915050565b60006200056d600019846008026200054d565b1980831691505092915050565b60006200058883836200055a565b9150826002028217905092915050565b620005a3826200031e565b67ffffffffffffffff811115620005bf57620005be62000329565b5b620005cb825462000387565b620005d8828285620004fd565b600060209050601f831160018114620006105760008415620005fb578287015190505b6200060785826200057a565b86555062000677565b601f1984166200062086620003bc565b60005b828110156200064a5784890151825560018201915060208501945060208101905062000623565b868310156200066a578489015162000666601f8916826200055a565b8355505b6001600288020188555050505b505050505050565b7f4e487b7100000000000000000000000000000000000000000000000000000000600052601160045260246000fd5b60008160011c9050919050565b6000808291508390505b60018511156200070d57808604811115620006e557620006e46200067f565b5b6001851615620006f55780820291505b80810290506200070585620006ae565b9450620006c5565b94509492505050565b600082620007285760019050620007fb565b81620007385760009050620007fb565b81600181146200075157600281146200075c5762000792565b6001915050620007fb565b60ff8411156200077157620007706200067f565b5b8360020a9150848211156200078b576200078a6200067f565b5b50620007fb565b5060208310610133831016604e8410600b8410161715620007cc5782820a905083811115620007c657620007c56200067f565b5b620007fb565b620007db8484846001620006bb565b92509050818404811115620007f557620007f46200067f565b5b81810290505b9392505050565b600060ff82169050919050565b60006200081c8262000444565b9150620008298362000802565b9250620008587fffffffffffffffffffffffffffffffffffffffffffffffffffffffffffffffff848462000716565b905092915050565b60006200086d8262000444565b91506200087a8362000444565b92508282026200088a8162000444565b91508282048414831517620008a457620008a36200067f565b5b5092915050565b600082825260208201905092915050565b7f7a65726f20616464726573730000000000000000000000000000000000000000600082015250565b6000620008f4600c83620008ab565b91506200090182620008bc565b602082019050919050565b600060208201905081810360008301526200092781620008e5565b9050919050565b60006200093b8262000444565b9150620009488362000444565b92508282019050808211156200096357620009626200067f565b5b92915050565b620009748162000444565b82525050565b600060208201905062000991600083018462000969565b92915050565b61257180620009a76000396000f3fe608060405234801561001057600080fd5b50600436106100b45760003560e01c806370a082311161007157806370a08231146101a357806395d89b41146101d3578063a457c2d7146101f1578063a9059cbb14610221578063d5abeb0114610251578063dd62ed3e1461026f576100b4565b806306fdde03146100b9578063095ea7b3146100d757806318160ddd1461010757806323b872dd14610125578063313ce567146101555780633950935114610173575b600080fd5b6100c161029f565b6040516100ce9190611f54565b60405180910390f35b6100f160048036038101906100ec919061200f565b610334565b6040516100fe919061206a565b60405180910390f35b61010f6104e3565b60405161011c9190612094565b60405180910390f35b61013f600480360381019061013a91906120af565b6104f0565b60405161014c919061206a565b60405180910390f35b61015d610fa0565b60405161016a919061211e565b60405180910390f35b61018d6004803603810190610188919061200f565b610fb9565b60405161019a919061206a565b60405180910390f35b6101bd60048036038101906101b89190612139565b61119e565b6040516101ca9190612094565b60405180910390f35b6101db611255565b6040516101e89190611f54565b60405180910390f35b61020b6004803603810190610206919061200f565b6112ea565b604051610218919061206a565b60405180910390f35b61023b6004803603810190610236919061200f565b6114ec565b604051610248919061206a565b60405180910390f35b610259611e28565b6040516102669190612094565b60405180910390f35b61028960048036038101906102849190612166565b611e35565b6040516102969190612094565b60405180910390f35b6060600260000180546102b1906121d5565b80601f01602080910402602001604051908101604052809291908181526020018280546102dd906121d5565b801561032a5780601f106102ff5761010080835404028352916020019161032a565b820191906000526020600020905b81548152906001019060200180831161030d57829003601f168201915b5050505050905090565b60008073ffffffffffffffffffffffffffffffffffffffff16610355611ebc565b73ffffffffffffffffffffffffffffffffffffffff16141580156103a65750600073ffffffffffffffffffffffffffffffffffffffff168373ffffffffffffffffffffffffffffffffffffffff1614155b6103e5576040517f08c379a00000000000000000000000000000000000000000000000000000000081526004016103dc90612252565b60405180910390fd5b81600960006103f2611ebc565b73ffffffffffffffffffffffffffffffffffffffff1673ffffffffffffffffffffffffffffffffffffffff16815260200190815260200160002060008573ffffffffffffffffffffffffffffffffffffffff1673ffffffffffffffffffffffffffffffffffffffff168152602001908152602001600020819055508273ffffffffffffffffffffffffffffffffffffffff1661048c611ebc565b73ffffffffffffffffffffffffffffffffffffffff167f8c5be1e5ebec7d5bd14f71427d1e84f3dd0314c0f7b2291e5b200ac8c7c3b925846040516104d19190612094565b60405180910390a36001905092915050565b6000600260030154905090565b60007fffffffffffffffffffffffffffffffffffffffffffffffffffffffffffffffff6105248561051f611ebc565b611e35565b0361052e57600080fd5b816105408561053b611ebc565b611e35565b101561054b57600080fd5b600073ffffffffffffffffffffffffffffffffffffffff168473ffffffffffffffffffffffffffffffffffffffff160361058457600080fd5b600073ffffffffffffffffffffffffffffffffffffffff166105a4611ebc565b73ffffffffffffffffffffffffffffffffffffffff16036105c457600080fd5b600073ffffffffffffffffffffffffffffffffffffffff168373ffffffffffffffffffffffffffffffffffffffff16036105fd57600080fd5b81600860008673ffffffffffffffffffffffffffffffffffffffff1673ffffffffffffffffffffffffffffffffffffffff16815260200190815260200160002054101561067f576040517f08c379a0000000000000000000000000000000000000000000000000000000008152600401610676906122be565b60405180910390fd5b6000600860008673ffffffffffffffffffffffffffffffffffffffff1673ffffffffffffffffffffffffffffffffffffffff1681526020019081526020016000205410156106cc57600080fd5b81600960008673ffffffffffffffffffffffffffffffffffffffff1673ffffffffffffffffffffffffffffffffffffffff1681526020019081526020016000206000610716611ebc565b73ffffffffffffffffffffffffffffffffffffffff1673ffffffffffffffffffffffffffffffffffffffff1681526020019081526020016000208190555061075c611ebc565b73ffffffffffffffffffffffffffffffffffffffff168473ffffffffffffffffffffffffffffffffffffffff167f8c5be1e5ebec7d5bd14f71427d1e84f3dd0314c0f7b2291e5b200ac8c7c3b925846040516107b89190612094565b60405180910390a381600860008673ffffffffffffffffffffffffffffffffffffffff1673ffffffffffffffffffffffffffffffffffffffff168152602001908152602001600020600082825461080f919061230d565b92505081905550600080600001541415801561083057506000806001015414155b15610b0157600080600001546103e88461084a9190612370565b61085491906123a1565b9050600080600101546103e88561086b9190612370565b61087591906123a1565b9050808261088391906123e3565b8461088e919061230d565b600860008773ffffffffffffffffffffffffffffffffffffffff1673ffffffffffffffffffffffffffffffffffffffff16815260200190815260200160002060008282546108dc91906123e3565b925050819055508060086000600260050160009054906101000a900473ffffffffffffffffffffffffffffffffffffffff1673ffffffffffffffffffffffffffffffffffffffff1673ffffffffffffffffffffffffffffffffffffffff168152602001908152602001600020600082825461095791906123e3565b925050819055508160026003016000828254610973919061230d565b925050819055508473ffffffffffffffffffffffffffffffffffffffff16610999611ebc565b73ffffffffffffffffffffffffffffffffffffffff167fddf252ad1be2c89b69c2b068fc378daa952ba7f163c4a11628f55a4df523b3ef83856109dc91906123e3565b876109e7919061230d565b6040516109f49190612094565b60405180910390a3600073ffffffffffffffffffffffffffffffffffffffff16610a1c611ebc565b73ffffffffffffffffffffffffffffffffffffffff167fddf252ad1be2c89b69c2b068fc378daa952ba7f163c4a11628f55a4df523b3ef84604051610a619190612094565b60405180910390a3600260050160009054906101000a900473ffffffffffffffffffffffffffffffffffffffff1673ffffffffffffffffffffffffffffffffffffffff16610aad611ebc565b73ffffffffffffffffffffffffffffffffffffffff167fddf252ad1be2c89b69c2b068fc378daa952ba7f163c4a11628f55a4df523b3ef83604051610af29190612094565b60405180910390a35050610f95565b6000806000015414158015610b1a575060008060010154145b15610ca757600080600001546103e884610b349190612370565b610b3e91906123a1565b90508083610b4c919061230d565b600860008673ffffffffffffffffffffffffffffffffffffffff1673ffffffffffffffffffffffffffffffffffffffff1681526020019081526020016000206000828254610b9a91906123e3565b925050819055508060026003016000828254610bb6919061230d565b925050819055508373ffffffffffffffffffffffffffffffffffffffff16610bdc611ebc565b73ffffffffffffffffffffffffffffffffffffffff167fddf252ad1be2c89b69c2b068fc378daa952ba7f163c4a11628f55a4df523b3ef8386610c1f919061230d565b604051610c2c9190612094565b60405180910390a3600073ffffffffffffffffffffffffffffffffffffffff16610c54611ebc565b73ffffffffffffffffffffffffffffffffffffffff167fddf252ad1be2c89b69c2b068fc378daa952ba7f163c4a11628f55a4df523b3ef83604051610c999190612094565b60405180910390a350610f94565b60008060000154148015610cc057506000806001015414155b15610ed057600080600101546103e884610cda9190612370565b610ce491906123a1565b90508083610cf2919061230d565b600860008673ffffffffffffffffffffffffffffffffffffffff1673ffffffffffffffffffffffffffffffffffffffff1681526020019081526020016000206000828254610d4091906123e3565b925050819055508060086000600260050160009054906101000a900473ffffffffffffffffffffffffffffffffffffffff1673ffffffffffffffffffffffffffffffffffffffff1673ffffffffffffffffffffffffffffffffffffffff1681526020019081526020016000206000828254610dbb91906123e3565b925050819055508373ffffffffffffffffffffffffffffffffffffffff16610de1611ebc565b73ffffffffffffffffffffffffffffffffffffffff167fddf252ad1be2c89b69c2b068fc378daa952ba7f163c4a11628f55a4df523b3ef8386610e24919061230d565b604051610e319190612094565b60405180910390a3600260050160009054906101000a900473ffffffffffffffffffffffffffffffffffffffff1673ffffffffffffffffffffffffffffffffffffffff16610e7d611ebc565b73ffffffffffffffffffffffffffffffffffffffff167fddf252ad1be2c89b69c2b068fc378daa952ba7f163c4a11628f55a4df523b3ef83604051610ec29190612094565b60405180910390a350610f93565b81600860008573ffffffffffffffffffffffffffffffffffffffff1673ffffffffffffffffffffffffffffffffffffffff1681526020019081526020016000206000828254610f1f91906123e3565b925050819055508273ffffffffffffffffffffffffffffffffffffffff16610f45611ebc565b73ffffffffffffffffffffffffffffffffffffffff167fddf252ad1be2c89b69c2b068fc378daa952ba7f163c4a11628f55a4df523b3ef84604051610f8a9190612094565b60405180910390a35b5b5b600190509392505050565b60006002800160009054906101000a900460ff16905090565b60008073ffffffffffffffffffffffffffffffffffffffff16610fda611ebc565b73ffffffffffffffffffffffffffffffffffffffff161415801561102b5750600073ffffffffffffffffffffffffffffffffffffffff168373ffffffffffffffffffffffffffffffffffffffff1614155b61106a576040517f08c379a000000000000000000000000000000000000000000000000000000000815260040161106190612252565b60405180910390fd5b8161107c611076611ebc565b85611e35565b61108691906123e3565b60096000611092611ebc565b73ffffffffffffffffffffffffffffffffffffffff1673ffffffffffffffffffffffffffffffffffffffff16815260200190815260200160002060008573ffffffffffffffffffffffffffffffffffffffff1673ffffffffffffffffffffffffffffffffffffffff168152602001908152602001600020819055508273ffffffffffffffffffffffffffffffffffffffff1661112c611ebc565b73ffffffffffffffffffffffffffffffffffffffff167f8c5be1e5ebec7d5bd14f71427d1e84f3dd0314c0f7b2291e5b200ac8c7c3b9258461117561116f611ebc565b88611e35565b61117f91906123e3565b60405161118c9190612094565b60405180910390a36001905092915050565b60008073ffffffffffffffffffffffffffffffffffffffff168273ffffffffffffffffffffffffffffffffffffffff160361120e576040517f08c379a000000000000000000000000000000000000000000000000000000000815260040161120590612252565b60405180910390fd5b600860008373ffffffffffffffffffffffffffffffffffffffff1673ffffffffffffffffffffffffffffffffffffffff168152602001908152602001600020549050919050565b606060026001018054611267906121d5565b80601f0160208091040260200160405190810160405280929190818152602001828054611293906121d5565b80156112e05780601f106112b5576101008083540402835291602001916112e0565b820191906000526020600020905b8154815290600101906020018083116112c357829003601f168201915b5050505050905090565b6000816112fe6112f8611ebc565b85611e35565b101580156113405750600073ffffffffffffffffffffffffffffffffffffffff16611327611ebc565b73ffffffffffffffffffffffffffffffffffffffff1614155b80156113795750600073ffffffffffffffffffffffffffffffffffffffff168373ffffffffffffffffffffffffffffffffffffffff1614155b6113b8576040517f08c379a00000000000000000000000000000000000000000000000000000000081526004016113af90612489565b60405180910390fd5b816113ca6113c4611ebc565b85611e35565b6113d4919061230d565b600960006113e0611ebc565b73ffffffffffffffffffffffffffffffffffffffff1673ffffffffffffffffffffffffffffffffffffffff16815260200190815260200160002060008573ffffffffffffffffffffffffffffffffffffffff1673ffffffffffffffffffffffffffffffffffffffff168152602001908152602001600020819055508273ffffffffffffffffffffffffffffffffffffffff1661147a611ebc565b73ffffffffffffffffffffffffffffffffffffffff167f8c5be1e5ebec7d5bd14f71427d1e84f3dd0314c0f7b2291e5b200ac8c7c3b925846114c36114bd611ebc565b88611e35565b6114cd919061230d565b6040516114da9190612094565b60405180910390a36001905092915050565b60008073ffffffffffffffffffffffffffffffffffffffff1661150d611ebc565b73ffffffffffffffffffffffffffffffffffffffff161415801561155e5750600073ffffffffffffffffffffffffffffffffffffffff168373ffffffffffffffffffffffffffffffffffffffff1614155b80156115b057508160086000611572611ebc565b73ffffffffffffffffffffffffffffffffffffffff1673ffffffffffffffffffffffffffffffffffffffff1681526020019081526020016000205410155b801561160357506000600860006115c5611ebc565b73ffffffffffffffffffffffffffffffffffffffff1673ffffffffffffffffffffffffffffffffffffffff1681526020019081526020016000205410155b611642576040517f08c379a00000000000000000000000000000000000000000000000000000000081526004016116399061251b565b60405180910390fd5b816008600061164f611ebc565b73ffffffffffffffffffffffffffffffffffffffff1673ffffffffffffffffffffffffffffffffffffffff1681526020019081526020016000206000828254611698919061230d565b9250508190555060008060000154141580156116b957506000806001015414155b1561198a57600080600001546103e8846116d39190612370565b6116dd91906123a1565b9050600080600101546103e8856116f49190612370565b6116fe91906123a1565b9050808261170c91906123e3565b84611717919061230d565b600860008773ffffffffffffffffffffffffffffffffffffffff1673ffffffffffffffffffffffffffffffffffffffff168152602001908152602001600020600082825461176591906123e3565b925050819055508060086000600260050160009054906101000a900473ffffffffffffffffffffffffffffffffffffffff1673ffffffffffffffffffffffffffffffffffffffff1673ffffffffffffffffffffffffffffffffffffffff16815260200190815260200160002060008282546117e091906123e3565b9250508190555081600260030160008282546117fc919061230d565b925050819055508473ffffffffffffffffffffffffffffffffffffffff16611822611ebc565b73ffffffffffffffffffffffffffffffffffffffff167fddf252ad1be2c89b69c2b068fc378daa952ba7f163c4a11628f55a4df523b3ef838561186591906123e3565b87611870919061230d565b60405161187d9190612094565b60405180910390a3600073ffffffffffffffffffffffffffffffffffffffff166118a5611ebc565b73ffffffffffffffffffffffffffffffffffffffff167fddf252ad1be2c89b69c2b068fc378daa952ba7f163c4a11628f55a4df523b3ef846040516118ea9190612094565b60405180910390a3600260050160009054906101000a900473ffffffffffffffffffffffffffffffffffffffff1673ffffffffffffffffffffffffffffffffffffffff16611936611ebc565b73ffffffffffffffffffffffffffffffffffffffff167fddf252ad1be2c89b69c2b068fc378daa952ba7f163c4a11628f55a4df523b3ef8360405161197b9190612094565b60405180910390a35050611e1e565b60008060000154141580156119a3575060008060010154145b15611b3057600080600001546103e8846119bd9190612370565b6119c791906123a1565b905080836119d5919061230d565b600860008673ffffffffffffffffffffffffffffffffffffffff1673ffffffffffffffffffffffffffffffffffffffff1681526020019081526020016000206000828254611a2391906123e3565b925050819055508060026003016000828254611a3f919061230d565b925050819055508373ffffffffffffffffffffffffffffffffffffffff16611a65611ebc565b73ffffffffffffffffffffffffffffffffffffffff167fddf252ad1be2c89b69c2b068fc378daa952ba7f163c4a11628f55a4df523b3ef8386611aa8919061230d565b604051611ab59190612094565b60405180910390a3600073ffffffffffffffffffffffffffffffffffffffff16611add611ebc565b73ffffffffffffffffffffffffffffffffffffffff167fddf252ad1be2c89b69c2b068fc378daa952ba7f163c4a11628f55a4df523b3ef83604051611b229190612094565b60405180910390a350611e1d565b60008060000154148015611b4957506000806001015414155b15611d5957600080600101546103e884611b639190612370565b611b6d91906123a1565b90508083611b7b919061230d565b600860008673ffffffffffffffffffffffffffffffffffffffff1673ffffffffffffffffffffffffffffffffffffffff1681526020019081526020016000206000828254611bc991906123e3565b925050819055508060086000600260050160009054906101000a900473ffffffffffffffffffffffffffffffffffffffff1673ffffffffffffffffffffffffffffffffffffffff1673ffffffffffffffffffffffffffffffffffffffff1681526020019081526020016000206000828254611c4491906123e3565b925050819055508373ffffffffffffffffffffffffffffffffffffffff16611c6a611ebc565b73ffffffffffffffffffffffffffffffffffffffff167fddf252ad1be2c89b69c2b068fc378daa952ba7f163c4a11628f55a4df523b3ef8386611cad919061230d565b604051611cba9190612094565b60405180910390a3600260050160009054906101000a900473ffffffffffffffffffffffffffffffffffffffff1673ffffffffffffffffffffffffffffffffffffffff16611d06611ebc565b73ffffffffffffffffffffffffffffffffffffffff167fddf252ad1be2c89b69c2b068fc378daa952ba7f163c4a11628f55a4df523b3ef83604051611d4b9190612094565b60405180910390a350611e1c565b81600860008573ffffffffffffffffffffffffffffffffffffffff1673ffffffffffffffffffffffffffffffffffffffff1681526020019081526020016000206000828254611da891906123e3565b925050819055508273ffffffffffffffffffffffffffffffffffffffff16611dce611ebc565b73ffffffffffffffffffffffffffffffffffffffff167fddf252ad1be2c89b69c2b068fc378daa952ba7f163c4a11628f55a4df523b3ef84604051611e139190612094565b60405180910390a35b5b5b6001905092915050565b6000600260040154905090565b6000600960008473ffffffffffffffffffffffffffffffffffffffff1673ffffffffffffffffffffffffffffffffffffffff16815260200190815260200160002060008373ffffffffffffffffffffffffffffffffffffffff1673ffffffffffffffffffffffffffffffffffffffff16815260200190815260200160002054905092915050565b600033905090565b600081519050919050565b600082825260208201905092915050565b60005b83811015611efe578082015181840152602081019050611ee3565b60008484015250505050565b6000601f19601f8301169050919050565b6000611f2682611ec4565b611f308185611ecf565b9350611f40818560208601611ee0565b611f4981611f0a565b840191505092915050565b60006020820190508181036000830152611f6e8184611f1b565b905092915050565b600080fd5b600073ffffffffffffffffffffffffffffffffffffffff82169050919050565b6000611fa682611f7b565b9050919050565b611fb681611f9b565b8114611fc157600080fd5b50565b600081359050611fd381611fad565b92915050565b6000819050919050565b611fec81611fd9565b8114611ff757600080fd5b50565b60008135905061200981611fe3565b92915050565b6000806040838503121561202657612025611f76565b5b600061203485828601611fc4565b925050602061204585828601611ffa565b9150509250929050565b60008115159050919050565b6120648161204f565b82525050565b600060208201905061207f600083018461205b565b92915050565b61208e81611fd9565b82525050565b60006020820190506120a96000830184612085565b92915050565b6000806000606084860312156120c8576120c7611f76565b5b60006120d686828701611fc4565b93505060206120e786828701611fc4565b92505060406120f886828701611ffa565b9150509250925092565b600060ff82169050919050565b61211881612102565b82525050565b6000602082019050612133600083018461210f565b92915050565b60006020828403121561214f5761214e611f76565b5b600061215d84828501611fc4565b91505092915050565b6000806040838503121561217d5761217c611f76565b5b600061218b85828601611fc4565b925050602061219c85828601611fc4565b9150509250929050565b7f4e487b7100000000000000000000000000000000000000000000000000000000600052602260045260246000fd5b600060028204905060018216806121ed57607f821691505b602082108103612200576121ff6121a6565b5b50919050565b7f7a65726f20616464726573730000000000000000000000000000000000000000600082015250565b600061223c600c83611ecf565b915061224782612206565b602082019050919050565b6000602082019050818103600083015261226b8161222f565b9050919050565b7f696e73756666696369656e742062616c616e6365000000000000000000000000600082015250565b60006122a8601483611ecf565b91506122b382612272565b602082019050919050565b600060208201905081810360008301526122d78161229b565b9050919050565b7f4e487b7100000000000000000000000000000000000000000000000000000000600052601160045260246000fd5b600061231882611fd9565b915061232383611fd9565b925082820390508181111561233b5761233a6122de565b5b92915050565b7f4e487b7100000000000000000000000000000000000000000000000000000000600052601260045260246000fd5b600061237b82611fd9565b915061238683611fd9565b92508261239657612395612341565b5b828204905092915050565b60006123ac82611fd9565b91506123b783611fd9565b92508282026123c581611fd9565b915082820484148315176123dc576123db6122de565b5b5092915050565b60006123ee82611fd9565b91506123f983611fd9565b9250828201905080821115612411576124106122de565b5b92915050565b7f7a65726f2061646472657373207c7c2064656372656173656420616c6c6f776160008201527f6e63652062656c6f77207a65726f000000000000000000000000000000000000602082015250565b6000612473602e83611ecf565b915061247e82612417565b604082019050919050565b600060208201905081810360008301526124a281612466565b9050919050565b7f7a65726f2061646472657373207c7c20696e73756666696369656e742062616c60008201527f616e636500000000000000000000000000000000000000000000000000000000602082015250565b6000612505602483611ecf565b9150612510826124a9565b604082019050919050565b60006020820190508181036000830152612534816124f8565b905091905056fea2646970667358221220b175412095023c4bdadce3eb173c0c2f14bd95cafba8108fa070067aa834407a64736f6c63430008120033",
					"opcodes": "PUSH1 0x80 PUSH1 0x40 MSTORE CALLVALUE DUP1 ISZERO PUSH3 0x11 JUMPI PUSH1 0x0 DUP1 REVERT JUMPDEST POP PUSH1 0x40 MLOAD DUP1 PUSH1 0x40 ADD PUSH1 0x40 MSTORE DUP1 PUSH1 0xC DUP2 MSTORE PUSH1 0x20 ADD PUSH32 0x447265616D636174636865720000000000000000000000000000000000000000 DUP2 MSTORE POP PUSH1 0x2 PUSH1 0x0 ADD SWAP1 DUP2 PUSH3 0x5B SWAP2 SWAP1 PUSH3 0x598 JUMP JUMPDEST POP PUSH1 0x40 MLOAD DUP1 PUSH1 0x40 ADD PUSH1 0x40 MSTORE DUP1 PUSH1 0x5 DUP2 MSTORE PUSH1 0x20 ADD PUSH32 0x445245414D000000000000000000000000000000000000000000000000000000 DUP2 MSTORE POP PUSH1 0x2 PUSH1 0x1 ADD SWAP1 DUP2 PUSH3 0xA5 SWAP2 SWAP1 PUSH3 0x598 JUMP JUMPDEST POP PUSH1 0x12 PUSH1 0x2 DUP1 ADD PUSH1 0x0 PUSH2 0x100 EXP DUP2 SLOAD DUP2 PUSH1 0xFF MUL NOT AND SWAP1 DUP4 PUSH1 0xFF AND MUL OR SWAP1 SSTORE POP PUSH1 0x0 PUSH1 0x2 PUSH1 0x3 ADD DUP2 SWAP1 SSTORE POP PUSH1 0x2 DUP1 ADD PUSH1 0x0 SWAP1 SLOAD SWAP1 PUSH2 0x100 EXP SWAP1 DIV PUSH1 0xFF AND PUSH1 0xA PUSH3 0xEF SWAP2 SWAP1 PUSH3 0x80F JUMP JUMPDEST PUSH4 0xBEBC200 PUSH3 0x100 SWAP2 SWAP1 PUSH3 0x860 JUMP JUMPDEST PUSH1 0x2 PUSH1 0x4 ADD DUP2 SWAP1 SSTORE POP PUSH3 0x119 PUSH3 0x19D PUSH1 0x20 SHL PUSH1 0x20 SHR JUMP JUMPDEST PUSH1 0x2 PUSH1 0x5 ADD PUSH1 0x0 PUSH2 0x100 EXP DUP2 SLOAD DUP2 PUSH20 0xFFFFFFFFFFFFFFFFFFFFFFFFFFFFFFFFFFFFFFFF MUL NOT AND SWAP1 DUP4 PUSH20 0xFFFFFFFFFFFFFFFFFFFFFFFFFFFFFFFFFFFFFFFF AND MUL OR SWAP1 SSTORE POP PUSH3 0x182 PUSH3 0x170 PUSH3 0x19D PUSH1 0x20 SHL PUSH1 0x20 SHR JUMP JUMPDEST PUSH1 0x2 PUSH1 0x4 ADD SLOAD PUSH3 0x1A5 PUSH1 0x20 SHL PUSH1 0x20 SHR JUMP JUMPDEST PUSH1 0xF PUSH1 0x0 DUP1 ADD DUP2 SWAP1 SSTORE POP PUSH1 0xA PUSH1 0x0 PUSH1 0x1 ADD DUP2 SWAP1 SSTORE POP PUSH3 0x997 JUMP JUMPDEST PUSH1 0x0 CALLER SWAP1 POP SWAP1 JUMP JUMPDEST PUSH1 0x0 PUSH20 0xFFFFFFFFFFFFFFFFFFFFFFFFFFFFFFFFFFFFFFFF AND DUP3 PUSH20 0xFFFFFFFFFFFFFFFFFFFFFFFFFFFFFFFFFFFFFFFF AND SUB PUSH3 0x217 JUMPI PUSH1 0x40 MLOAD PUSH32 0x8C379A000000000000000000000000000000000000000000000000000000000 DUP2 MSTORE PUSH1 0x4 ADD PUSH3 0x20E SWAP1 PUSH3 0x90C JUMP JUMPDEST PUSH1 0x40 MLOAD DUP1 SWAP2 SUB SWAP1 REVERT JUMPDEST PUSH1 0x2 PUSH1 0x4 ADD SLOAD DUP2 PUSH1 0x2 PUSH1 0x3 ADD SLOAD PUSH3 0x230 SWAP2 SWAP1 PUSH3 0x92E JUMP JUMPDEST GT ISZERO PUSH3 0x23C JUMPI PUSH1 0x0 DUP1 REVERT JUMPDEST DUP1 PUSH1 0x2 PUSH1 0x3 ADD PUSH1 0x0 DUP3 DUP3 SLOAD PUSH3 0x253 SWAP2 SWAP1 PUSH3 0x92E JUMP JUMPDEST SWAP3 POP POP DUP2 SWAP1 SSTORE POP DUP1 PUSH1 0x8 PUSH1 0x0 DUP5 PUSH20 0xFFFFFFFFFFFFFFFFFFFFFFFFFFFFFFFFFFFFFFFF AND PUSH20 0xFFFFFFFFFFFFFFFFFFFFFFFFFFFFFFFFFFFFFFFF AND DUP2 MSTORE PUSH1 0x20 ADD SWAP1 DUP2 MSTORE PUSH1 0x20 ADD PUSH1 0x0 KECCAK256 PUSH1 0x0 DUP3 DUP3 SLOAD PUSH3 0x2AB SWAP2 SWAP1 PUSH3 0x92E JUMP JUMPDEST SWAP3 POP POP DUP2 SWAP1 SSTORE POP DUP2 PUSH20 0xFFFFFFFFFFFFFFFFFFFFFFFFFFFFFFFFFFFFFFFF AND PUSH1 0x0 PUSH20 0xFFFFFFFFFFFFFFFFFFFFFFFFFFFFFFFFFFFFFFFF AND PUSH32 0xDDF252AD1BE2C89B69C2B068FC378DAA952BA7F163C4A11628F55A4DF523B3EF DUP4 PUSH1 0x40 MLOAD PUSH3 0x312 SWAP2 SWAP1 PUSH3 0x97A JUMP JUMPDEST PUSH1 0x40 MLOAD DUP1 SWAP2 SUB SWAP1 LOG3 POP POP JUMP JUMPDEST PUSH1 0x0 DUP2 MLOAD SWAP1 POP SWAP2 SWAP1 POP JUMP JUMPDEST PUSH32 0x4E487B7100000000000000000000000000000000000000000000000000000000 PUSH1 0x0 MSTORE PUSH1 0x41 PUSH1 0x4 MSTORE PUSH1 0x24 PUSH1 0x0 REVERT JUMPDEST PUSH32 0x4E487B7100000000000000000000000000000000000000000000000000000000 PUSH1 0x0 MSTORE PUSH1 0x22 PUSH1 0x4 MSTORE PUSH1 0x24 PUSH1 0x0 REVERT JUMPDEST PUSH1 0x0 PUSH1 0x2 DUP3 DIV SWAP1 POP PUSH1 0x1 DUP3 AND DUP1 PUSH3 0x3A0 JUMPI PUSH1 0x7F DUP3 AND SWAP2 POP JUMPDEST PUSH1 0x20 DUP3 LT DUP2 SUB PUSH3 0x3B6 JUMPI PUSH3 0x3B5 PUSH3 0x358 JUMP JUMPDEST JUMPDEST POP SWAP2 SWAP1 POP JUMP JUMPDEST PUSH1 0x0 DUP2 SWAP1 POP DUP2 PUSH1 0x0 MSTORE PUSH1 0x20 PUSH1 0x0 KECCAK256 SWAP1 POP SWAP2 SWAP1 POP JUMP JUMPDEST PUSH1 0x0 PUSH1 0x20 PUSH1 0x1F DUP4 ADD DIV SWAP1 POP SWAP2 SWAP1 POP JUMP JUMPDEST PUSH1 0x0 DUP3 DUP3 SHL SWAP1 POP SWAP3 SWAP2 POP POP JUMP JUMPDEST PUSH1 0x0 PUSH1 0x8 DUP4 MUL PUSH3 0x420 PUSH32 0xFFFFFFFFFFFFFFFFFFFFFFFFFFFFFFFFFFFFFFFFFFFFFFFFFFFFFFFFFFFFFFFF DUP3 PUSH3 0x3E1 JUMP JUMPDEST PUSH3 0x42C DUP7 DUP4 PUSH3 0x3E1 JUMP JUMPDEST SWAP6 POP DUP1 NOT DUP5 AND SWAP4 POP DUP1 DUP7 AND DUP5 OR SWAP3 POP POP POP SWAP4 SWAP3 POP POP POP JUMP JUMPDEST PUSH1 0x0 DUP2 SWAP1 POP SWAP2 SWAP1 POP JUMP JUMPDEST PUSH1 0x0 DUP2 SWAP1 POP SWAP2 SWAP1 POP JUMP JUMPDEST PUSH1 0x0 PUSH3 0x479 PUSH3 0x473 PUSH3 0x46D DUP5 PUSH3 0x444 JUMP JUMPDEST PUSH3 0x44E JUMP JUMPDEST PUSH3 0x444 JUMP JUMPDEST SWAP1 POP SWAP2 SWAP1 POP JUMP JUMPDEST PUSH1 0x0 DUP2 SWAP1 POP SWAP2 SWAP1 POP JUMP JUMPDEST PUSH3 0x495 DUP4 PUSH3 0x458 JUMP JUMPDEST PUSH3 0x4AD PUSH3 0x4A4 DUP3 PUSH3 0x480 JUMP JUMPDEST DUP5 DUP5 SLOAD PUSH3 0x3EE JUMP JUMPDEST DUP3 SSTORE POP POP POP POP JUMP JUMPDEST PUSH1 0x0 SWAP1 JUMP JUMPDEST PUSH3 0x4C4 PUSH3 0x4B5 JUMP JUMPDEST PUSH3 0x4D1 DUP2 DUP5 DUP5 PUSH3 0x48A JUMP JUMPDEST POP POP POP JUMP JUMPDEST JUMPDEST DUP2 DUP2 LT ISZERO PUSH3 0x4F9 JUMPI PUSH3 0x4ED PUSH1 0x0 DUP3 PUSH3 0x4BA JUMP JUMPDEST PUSH1 0x1 DUP2 ADD SWAP1 POP PUSH3 0x4D7 JUMP JUMPDEST POP POP JUMP JUMPDEST PUSH1 0x1F DUP3 GT ISZERO PUSH3 0x548 JUMPI PUSH3 0x512 DUP2 PUSH3 0x3BC JUMP JUMPDEST PUSH3 0x51D DUP5 PUSH3 0x3D1 JUMP JUMPDEST DUP2 ADD PUSH1 0x20 DUP6 LT ISZERO PUSH3 0x52D JUMPI DUP2 SWAP1 POP JUMPDEST PUSH3 0x545 PUSH3 0x53C DUP6 PUSH3 0x3D1 JUMP JUMPDEST DUP4 ADD DUP3 PUSH3 0x4D6 JUMP JUMPDEST POP POP JUMPDEST POP POP POP JUMP JUMPDEST PUSH1 0x0 DUP3 DUP3 SHR SWAP1 POP SWAP3 SWAP2 POP POP JUMP JUMPDEST PUSH1 0x0 PUSH3 0x56D PUSH1 0x0 NOT DUP5 PUSH1 0x8 MUL PUSH3 0x54D JUMP JUMPDEST NOT DUP1 DUP4 AND SWAP2 POP POP SWAP3 SWAP2 POP POP JUMP JUMPDEST PUSH1 0x0 PUSH3 0x588 DUP4 DUP4 PUSH3 0x55A JUMP JUMPDEST SWAP2 POP DUP3 PUSH1 0x2 MUL DUP3 OR SWAP1 POP SWAP3 SWAP2 POP POP JUMP JUMPDEST PUSH3 0x5A3 DUP3 PUSH3 0x31E JUMP JUMPDEST PUSH8 0xFFFFFFFFFFFFFFFF DUP2 GT ISZERO PUSH3 0x5BF JUMPI PUSH3 0x5BE PUSH3 0x329 JUMP JUMPDEST JUMPDEST PUSH3 0x5CB DUP3 SLOAD PUSH3 0x387 JUMP JUMPDEST PUSH3 0x5D8 DUP3 DUP3 DUP6 PUSH3 0x4FD JUMP JUMPDEST PUSH1 0x0 PUSH1 0x20 SWAP1 POP PUSH1 0x1F DUP4 GT PUSH1 0x1 DUP2 EQ PUSH3 0x610 JUMPI PUSH1 0x0 DUP5 ISZERO PUSH3 0x5FB JUMPI DUP3 DUP8 ADD MLOAD SWAP1 POP JUMPDEST PUSH3 0x607 DUP6 DUP3 PUSH3 0x57A JUMP JUMPDEST DUP7 SSTORE POP PUSH3 0x677 JUMP JUMPDEST PUSH1 0x1F NOT DUP5 AND PUSH3 0x620 DUP7 PUSH3 0x3BC JUMP JUMPDEST PUSH1 0x0 JUMPDEST DUP3 DUP2 LT ISZERO PUSH3 0x64A JUMPI DUP5 DUP10 ADD MLOAD DUP3 SSTORE PUSH1 0x1 DUP3 ADD SWAP2 POP PUSH1 0x20 DUP6 ADD SWAP5 POP PUSH1 0x20 DUP2 ADD SWAP1 POP PUSH3 0x623 JUMP JUMPDEST DUP7 DUP4 LT ISZERO PUSH3 0x66A JUMPI DUP5 DUP10 ADD MLOAD PUSH3 0x666 PUSH1 0x1F DUP10 AND DUP3 PUSH3 0x55A JUMP JUMPDEST DUP4 SSTORE POP JUMPDEST PUSH1 0x1 PUSH1 0x2 DUP9 MUL ADD DUP9 SSTORE POP POP POP JUMPDEST POP POP POP POP POP POP JUMP JUMPDEST PUSH32 0x4E487B7100000000000000000000000000000000000000000000000000000000 PUSH1 0x0 MSTORE PUSH1 0x11 PUSH1 0x4 MSTORE PUSH1 0x24 PUSH1 0x0 REVERT JUMPDEST PUSH1 0x0 DUP2 PUSH1 0x1 SHR SWAP1 POP SWAP2 SWAP1 POP JUMP JUMPDEST PUSH1 0x0 DUP1 DUP3 SWAP2 POP DUP4 SWAP1 POP JUMPDEST PUSH1 0x1 DUP6 GT ISZERO PUSH3 0x70D JUMPI DUP1 DUP7 DIV DUP2 GT ISZERO PUSH3 0x6E5 JUMPI PUSH3 0x6E4 PUSH3 0x67F JUMP JUMPDEST JUMPDEST PUSH1 0x1 DUP6 AND ISZERO PUSH3 0x6F5 JUMPI DUP1 DUP3 MUL SWAP2 POP JUMPDEST DUP1 DUP2 MUL SWAP1 POP PUSH3 0x705 DUP6 PUSH3 0x6AE JUMP JUMPDEST SWAP5 POP PUSH3 0x6C5 JUMP JUMPDEST SWAP5 POP SWAP5 SWAP3 POP POP POP JUMP JUMPDEST PUSH1 0x0 DUP3 PUSH3 0x728 JUMPI PUSH1 0x1 SWAP1 POP PUSH3 0x7FB JUMP JUMPDEST DUP2 PUSH3 0x738 JUMPI PUSH1 0x0 SWAP1 POP PUSH3 0x7FB JUMP JUMPDEST DUP2 PUSH1 0x1 DUP2 EQ PUSH3 0x751 JUMPI PUSH1 0x2 DUP2 EQ PUSH3 0x75C JUMPI PUSH3 0x792 JUMP JUMPDEST PUSH1 0x1 SWAP2 POP POP PUSH3 0x7FB JUMP JUMPDEST PUSH1 0xFF DUP5 GT ISZERO PUSH3 0x771 JUMPI PUSH3 0x770 PUSH3 0x67F JUMP JUMPDEST JUMPDEST DUP4 PUSH1 0x2 EXP SWAP2 POP DUP5 DUP3 GT ISZERO PUSH3 0x78B JUMPI PUSH3 0x78A PUSH3 0x67F JUMP JUMPDEST JUMPDEST POP PUSH3 0x7FB JUMP JUMPDEST POP PUSH1 0x20 DUP4 LT PUSH2 0x133 DUP4 LT AND PUSH1 0x4E DUP5 LT PUSH1 0xB DUP5 LT AND OR ISZERO PUSH3 0x7CC JUMPI DUP3 DUP3 EXP SWAP1 POP DUP4 DUP2 GT ISZERO PUSH3 0x7C6 JUMPI PUSH3 0x7C5 PUSH3 0x67F JUMP JUMPDEST JUMPDEST PUSH3 0x7FB JUMP JUMPDEST PUSH3 0x7DB DUP5 DUP5 DUP5 PUSH1 0x1 PUSH3 0x6BB JUMP JUMPDEST SWAP3 POP SWAP1 POP DUP2 DUP5 DIV DUP2 GT ISZERO PUSH3 0x7F5 JUMPI PUSH3 0x7F4 PUSH3 0x67F JUMP JUMPDEST JUMPDEST DUP2 DUP2 MUL SWAP1 POP JUMPDEST SWAP4 SWAP3 POP POP POP JUMP JUMPDEST PUSH1 0x0 PUSH1 0xFF DUP3 AND SWAP1 POP SWAP2 SWAP1 POP JUMP JUMPDEST PUSH1 0x0 PUSH3 0x81C DUP3 PUSH3 0x444 JUMP JUMPDEST SWAP2 POP PUSH3 0x829 DUP4 PUSH3 0x802 JUMP JUMPDEST SWAP3 POP PUSH3 0x858 PUSH32 0xFFFFFFFFFFFFFFFFFFFFFFFFFFFFFFFFFFFFFFFFFFFFFFFFFFFFFFFFFFFFFFFF DUP5 DUP5 PUSH3 0x716 JUMP JUMPDEST SWAP1 POP SWAP3 SWAP2 POP POP JUMP JUMPDEST PUSH1 0x0 PUSH3 0x86D DUP3 PUSH3 0x444 JUMP JUMPDEST SWAP2 POP PUSH3 0x87A DUP4 PUSH3 0x444 JUMP JUMPDEST SWAP3 POP DUP3 DUP3 MUL PUSH3 0x88A DUP2 PUSH3 0x444 JUMP JUMPDEST SWAP2 POP DUP3 DUP3 DIV DUP5 EQ DUP4 ISZERO OR PUSH3 0x8A4 JUMPI PUSH3 0x8A3 PUSH3 0x67F JUMP JUMPDEST JUMPDEST POP SWAP3 SWAP2 POP POP JUMP JUMPDEST PUSH1 0x0 DUP3 DUP3 MSTORE PUSH1 0x20 DUP3 ADD SWAP1 POP SWAP3 SWAP2 POP POP JUMP JUMPDEST PUSH32 0x7A65726F20616464726573730000000000000000000000000000000000000000 PUSH1 0x0 DUP3 ADD MSTORE POP JUMP JUMPDEST PUSH1 0x0 PUSH3 0x8F4 PUSH1 0xC DUP4 PUSH3 0x8AB JUMP JUMPDEST SWAP2 POP PUSH3 0x901 DUP3 PUSH3 0x8BC JUMP JUMPDEST PUSH1 0x20 DUP3 ADD SWAP1 POP SWAP2 SWAP1 POP JUMP JUMPDEST PUSH1 0x0 PUSH1 0x20 DUP3 ADD SWAP1 POP DUP2 DUP2 SUB PUSH1 0x0 DUP4 ADD MSTORE PUSH3 0x927 DUP2 PUSH3 0x8E5 JUMP JUMPDEST SWAP1 POP SWAP2 SWAP1 POP JUMP JUMPDEST PUSH1 0x0 PUSH3 0x93B DUP3 PUSH3 0x444 JUMP JUMPDEST SWAP2 POP PUSH3 0x948 DUP4 PUSH3 0x444 JUMP JUMPDEST SWAP3 POP DUP3 DUP3 ADD SWAP1 POP DUP1 DUP3 GT ISZERO PUSH3 0x963 JUMPI PUSH3 0x962 PUSH3 0x67F JUMP JUMPDEST JUMPDEST SWAP3 SWAP2 POP POP JUMP JUMPDEST PUSH3 0x974 DUP2 PUSH3 0x444 JUMP JUMPDEST DUP3 MSTORE POP POP JUMP JUMPDEST PUSH1 0x0 PUSH1 0x20 DUP3 ADD SWAP1 POP PUSH3 0x991 PUSH1 0x0 DUP4 ADD DUP5 PUSH3 0x969 JUMP JUMPDEST SWAP3 SWAP2 POP POP JUMP JUMPDEST PUSH2 0x2571 DUP1 PUSH3 0x9A7 PUSH1 0x0 CODECOPY PUSH1 0x0 RETURN INVALID PUSH1 0x80 PUSH1 0x40 MSTORE CALLVALUE DUP1 ISZERO PUSH2 0x10 JUMPI PUSH1 0x0 DUP1 REVERT JUMPDEST POP PUSH1 0x4 CALLDATASIZE LT PUSH2 0xB4 JUMPI PUSH1 0x0 CALLDATALOAD PUSH1 0xE0 SHR DUP1 PUSH4 0x70A08231 GT PUSH2 0x71 JUMPI DUP1 PUSH4 0x70A08231 EQ PUSH2 0x1A3 JUMPI DUP1 PUSH4 0x95D89B41 EQ PUSH2 0x1D3 JUMPI DUP1 PUSH4 0xA457C2D7 EQ PUSH2 0x1F1 JUMPI DUP1 PUSH4 0xA9059CBB EQ PUSH2 0x221 JUMPI DUP1 PUSH4 0xD5ABEB01 EQ PUSH2 0x251 JUMPI DUP1 PUSH4 0xDD62ED3E EQ PUSH2 0x26F JUMPI PUSH2 0xB4 JUMP JUMPDEST DUP1 PUSH4 0x6FDDE03 EQ PUSH2 0xB9 JUMPI DUP1 PUSH4 0x95EA7B3 EQ PUSH2 0xD7 JUMPI DUP1 PUSH4 0x18160DDD EQ PUSH2 0x107 JUMPI DUP1 PUSH4 0x23B872DD EQ PUSH2 0x125 JUMPI DUP1 PUSH4 0x313CE567 EQ PUSH2 0x155 JUMPI DUP1 PUSH4 0x39509351 EQ PUSH2 0x173 JUMPI JUMPDEST PUSH1 0x0 DUP1 REVERT JUMPDEST PUSH2 0xC1 PUSH2 0x29F JUMP JUMPDEST PUSH1 0x40 MLOAD PUSH2 0xCE SWAP2 SWAP1 PUSH2 0x1F54 JUMP JUMPDEST PUSH1 0x40 MLOAD DUP1 SWAP2 SUB SWAP1 RETURN JUMPDEST PUSH2 0xF1 PUSH1 0x4 DUP1 CALLDATASIZE SUB DUP2 ADD SWAP1 PUSH2 0xEC SWAP2 SWAP1 PUSH2 0x200F JUMP JUMPDEST PUSH2 0x334 JUMP JUMPDEST PUSH1 0x40 MLOAD PUSH2 0xFE SWAP2 SWAP1 PUSH2 0x206A JUMP JUMPDEST PUSH1 0x40 MLOAD DUP1 SWAP2 SUB SWAP1 RETURN JUMPDEST PUSH2 0x10F PUSH2 0x4E3 JUMP JUMPDEST PUSH1 0x40 MLOAD PUSH2 0x11C SWAP2 SWAP1 PUSH2 0x2094 JUMP JUMPDEST PUSH1 0x40 MLOAD DUP1 SWAP2 SUB SWAP1 RETURN JUMPDEST PUSH2 0x13F PUSH1 0x4 DUP1 CALLDATASIZE SUB DUP2 ADD SWAP1 PUSH2 0x13A SWAP2 SWAP1 PUSH2 0x20AF JUMP JUMPDEST PUSH2 0x4F0 JUMP JUMPDEST PUSH1 0x40 MLOAD PUSH2 0x14C SWAP2 SWAP1 PUSH2 0x206A JUMP JUMPDEST PUSH1 0x40 MLOAD DUP1 SWAP2 SUB SWAP1 RETURN JUMPDEST PUSH2 0x15D PUSH2 0xFA0 JUMP JUMPDEST PUSH1 0x40 MLOAD PUSH2 0x16A SWAP2 SWAP1 PUSH2 0x211E JUMP JUMPDEST PUSH1 0x40 MLOAD DUP1 SWAP2 SUB SWAP1 RETURN JUMPDEST PUSH2 0x18D PUSH1 0x4 DUP1 CALLDATASIZE SUB DUP2 ADD SWAP1 PUSH2 0x188 SWAP2 SWAP1 PUSH2 0x200F JUMP JUMPDEST PUSH2 0xFB9 JUMP JUMPDEST PUSH1 0x40 MLOAD PUSH2 0x19A SWAP2 SWAP1 PUSH2 0x206A JUMP JUMPDEST PUSH1 0x40 MLOAD DUP1 SWAP2 SUB SWAP1 RETURN JUMPDEST PUSH2 0x1BD PUSH1 0x4 DUP1 CALLDATASIZE SUB DUP2 ADD SWAP1 PUSH2 0x1B8 SWAP2 SWAP1 PUSH2 0x2139 JUMP JUMPDEST PUSH2 0x119E JUMP JUMPDEST PUSH1 0x40 MLOAD PUSH2 0x1CA SWAP2 SWAP1 PUSH2 0x2094 JUMP JUMPDEST PUSH1 0x40 MLOAD DUP1 SWAP2 SUB SWAP1 RETURN JUMPDEST PUSH2 0x1DB PUSH2 0x1255 JUMP JUMPDEST PUSH1 0x40 MLOAD PUSH2 0x1E8 SWAP2 SWAP1 PUSH2 0x1F54 JUMP JUMPDEST PUSH1 0x40 MLOAD DUP1 SWAP2 SUB SWAP1 RETURN JUMPDEST PUSH2 0x20B PUSH1 0x4 DUP1 CALLDATASIZE SUB DUP2 ADD SWAP1 PUSH2 0x206 SWAP2 SWAP1 PUSH2 0x200F JUMP JUMPDEST PUSH2 0x12EA JUMP JUMPDEST PUSH1 0x40 MLOAD PUSH2 0x218 SWAP2 SWAP1 PUSH2 0x206A JUMP JUMPDEST PUSH1 0x40 MLOAD DUP1 SWAP2 SUB SWAP1 RETURN JUMPDEST PUSH2 0x23B PUSH1 0x4 DUP1 CALLDATASIZE SUB DUP2 ADD SWAP1 PUSH2 0x236 SWAP2 SWAP1 PUSH2 0x200F JUMP JUMPDEST PUSH2 0x14EC JUMP JUMPDEST PUSH1 0x40 MLOAD PUSH2 0x248 SWAP2 SWAP1 PUSH2 0x206A JUMP JUMPDEST PUSH1 0x40 MLOAD DUP1 SWAP2 SUB SWAP1 RETURN JUMPDEST PUSH2 0x259 PUSH2 0x1E28 JUMP JUMPDEST PUSH1 0x40 MLOAD PUSH2 0x266 SWAP2 SWAP1 PUSH2 0x2094 JUMP JUMPDEST PUSH1 0x40 MLOAD DUP1 SWAP2 SUB SWAP1 RETURN JUMPDEST PUSH2 0x289 PUSH1 0x4 DUP1 CALLDATASIZE SUB DUP2 ADD SWAP1 PUSH2 0x284 SWAP2 SWAP1 PUSH2 0x2166 JUMP JUMPDEST PUSH2 0x1E35 JUMP JUMPDEST PUSH1 0x40 MLOAD PUSH2 0x296 SWAP2 SWAP1 PUSH2 0x2094 JUMP JUMPDEST PUSH1 0x40 MLOAD DUP1 SWAP2 SUB SWAP1 RETURN JUMPDEST PUSH1 0x60 PUSH1 0x2 PUSH1 0x0 ADD DUP1 SLOAD PUSH2 0x2B1 SWAP1 PUSH2 0x21D5 JUMP JUMPDEST DUP1 PUSH1 0x1F ADD PUSH1 0x20 DUP1 SWAP2 DIV MUL PUSH1 0x20 ADD PUSH1 0x40 MLOAD SWAP1 DUP2 ADD PUSH1 0x40 MSTORE DUP1 SWAP3 SWAP2 SWAP1 DUP2 DUP2 MSTORE PUSH1 0x20 ADD DUP3 DUP1 SLOAD PUSH2 0x2DD SWAP1 PUSH2 0x21D5 JUMP JUMPDEST DUP1 ISZERO PUSH2 0x32A JUMPI DUP1 PUSH1 0x1F LT PUSH2 0x2FF JUMPI PUSH2 0x100 DUP1 DUP4 SLOAD DIV MUL DUP4 MSTORE SWAP2 PUSH1 0x20 ADD SWAP2 PUSH2 0x32A JUMP JUMPDEST DUP3 ADD SWAP2 SWAP1 PUSH1 0x0 MSTORE PUSH1 0x20 PUSH1 0x0 KECCAK256 SWAP1 JUMPDEST DUP2 SLOAD DUP2 MSTORE SWAP1 PUSH1 0x1 ADD SWAP1 PUSH1 0x20 ADD DUP1 DUP4 GT PUSH2 0x30D JUMPI DUP3 SWAP1 SUB PUSH1 0x1F AND DUP3 ADD SWAP2 JUMPDEST POP POP POP POP POP SWAP1 POP SWAP1 JUMP JUMPDEST PUSH1 0x0 DUP1 PUSH20 0xFFFFFFFFFFFFFFFFFFFFFFFFFFFFFFFFFFFFFFFF AND PUSH2 0x355 PUSH2 0x1EBC JUMP JUMPDEST PUSH20 0xFFFFFFFFFFFFFFFFFFFFFFFFFFFFFFFFFFFFFFFF AND EQ ISZERO DUP1 ISZERO PUSH2 0x3A6 JUMPI POP PUSH1 0x0 PUSH20 0xFFFFFFFFFFFFFFFFFFFFFFFFFFFFFFFFFFFFFFFF AND DUP4 PUSH20 0xFFFFFFFFFFFFFFFFFFFFFFFFFFFFFFFFFFFFFFFF AND EQ ISZERO JUMPDEST PUSH2 0x3E5 JUMPI PUSH1 0x40 MLOAD PUSH32 0x8C379A000000000000000000000000000000000000000000000000000000000 DUP2 MSTORE PUSH1 0x4 ADD PUSH2 0x3DC SWAP1 PUSH2 0x2252 JUMP JUMPDEST PUSH1 0x40 MLOAD DUP1 SWAP2 SUB SWAP1 REVERT JUMPDEST DUP2 PUSH1 0x9 PUSH1 0x0 PUSH2 0x3F2 PUSH2 0x1EBC JUMP JUMPDEST PUSH20 0xFFFFFFFFFFFFFFFFFFFFFFFFFFFFFFFFFFFFFFFF AND PUSH20 0xFFFFFFFFFFFFFFFFFFFFFFFFFFFFFFFFFFFFFFFF AND DUP2 MSTORE PUSH1 0x20 ADD SWAP1 DUP2 MSTORE PUSH1 0x20 ADD PUSH1 0x0 KECCAK256 PUSH1 0x0 DUP6 PUSH20 0xFFFFFFFFFFFFFFFFFFFFFFFFFFFFFFFFFFFFFFFF AND PUSH20 0xFFFFFFFFFFFFFFFFFFFFFFFFFFFFFFFFFFFFFFFF AND DUP2 MSTORE PUSH1 0x20 ADD SWAP1 DUP2 MSTORE PUSH1 0x20 ADD PUSH1 0x0 KECCAK256 DUP2 SWAP1 SSTORE POP DUP3 PUSH20 0xFFFFFFFFFFFFFFFFFFFFFFFFFFFFFFFFFFFFFFFF AND PUSH2 0x48C PUSH2 0x1EBC JUMP JUMPDEST PUSH20 0xFFFFFFFFFFFFFFFFFFFFFFFFFFFFFFFFFFFFFFFF AND PUSH32 0x8C5BE1E5EBEC7D5BD14F71427D1E84F3DD0314C0F7B2291E5B200AC8C7C3B925 DUP5 PUSH1 0x40 MLOAD PUSH2 0x4D1 SWAP2 SWAP1 PUSH2 0x2094 JUMP JUMPDEST PUSH1 0x40 MLOAD DUP1 SWAP2 SUB SWAP1 LOG3 PUSH1 0x1 SWAP1 POP SWAP3 SWAP2 POP POP JUMP JUMPDEST PUSH1 0x0 PUSH1 0x2 PUSH1 0x3 ADD SLOAD SWAP1 POP SWAP1 JUMP JUMPDEST PUSH1 0x0 PUSH32 0xFFFFFFFFFFFFFFFFFFFFFFFFFFFFFFFFFFFFFFFFFFFFFFFFFFFFFFFFFFFFFFFF PUSH2 0x524 DUP6 PUSH2 0x51F PUSH2 0x1EBC JUMP JUMPDEST PUSH2 0x1E35 JUMP JUMPDEST SUB PUSH2 0x52E JUMPI PUSH1 0x0 DUP1 REVERT JUMPDEST DUP2 PUSH2 0x540 DUP6 PUSH2 0x53B PUSH2 0x1EBC JUMP JUMPDEST PUSH2 0x1E35 JUMP JUMPDEST LT ISZERO PUSH2 0x54B JUMPI PUSH1 0x0 DUP1 REVERT JUMPDEST PUSH1 0x0 PUSH20 0xFFFFFFFFFFFFFFFFFFFFFFFFFFFFFFFFFFFFFFFF AND DUP5 PUSH20 0xFFFFFFFFFFFFFFFFFFFFFFFFFFFFFFFFFFFFFFFF AND SUB PUSH2 0x584 JUMPI PUSH1 0x0 DUP1 REVERT JUMPDEST PUSH1 0x0 PUSH20 0xFFFFFFFFFFFFFFFFFFFFFFFFFFFFFFFFFFFFFFFF AND PUSH2 0x5A4 PUSH2 0x1EBC JUMP JUMPDEST PUSH20 0xFFFFFFFFFFFFFFFFFFFFFFFFFFFFFFFFFFFFFFFF AND SUB PUSH2 0x5C4 JUMPI PUSH1 0x0 DUP1 REVERT JUMPDEST PUSH1 0x0 PUSH20 0xFFFFFFFFFFFFFFFFFFFFFFFFFFFFFFFFFFFFFFFF AND DUP4 PUSH20 0xFFFFFFFFFFFFFFFFFFFFFFFFFFFFFFFFFFFFFFFF AND SUB PUSH2 0x5FD JUMPI PUSH1 0x0 DUP1 REVERT JUMPDEST DUP2 PUSH1 0x8 PUSH1 0x0 DUP7 PUSH20 0xFFFFFFFFFFFFFFFFFFFFFFFFFFFFFFFFFFFFFFFF AND PUSH20 0xFFFFFFFFFFFFFFFFFFFFFFFFFFFFFFFFFFFFFFFF AND DUP2 MSTORE PUSH1 0x20 ADD SWAP1 DUP2 MSTORE PUSH1 0x20 ADD PUSH1 0x0 KECCAK256 SLOAD LT ISZERO PUSH2 0x67F JUMPI PUSH1 0x40 MLOAD PUSH32 0x8C379A000000000000000000000000000000000000000000000000000000000 DUP2 MSTORE PUSH1 0x4 ADD PUSH2 0x676 SWAP1 PUSH2 0x22BE JUMP JUMPDEST PUSH1 0x40 MLOAD DUP1 SWAP2 SUB SWAP1 REVERT JUMPDEST PUSH1 0x0 PUSH1 0x8 PUSH1 0x0 DUP7 PUSH20 0xFFFFFFFFFFFFFFFFFFFFFFFFFFFFFFFFFFFFFFFF AND PUSH20 0xFFFFFFFFFFFFFFFFFFFFFFFFFFFFFFFFFFFFFFFF AND DUP2 MSTORE PUSH1 0x20 ADD SWAP1 DUP2 MSTORE PUSH1 0x20 ADD PUSH1 0x0 KECCAK256 SLOAD LT ISZERO PUSH2 0x6CC JUMPI PUSH1 0x0 DUP1 REVERT JUMPDEST DUP2 PUSH1 0x9 PUSH1 0x0 DUP7 PUSH20 0xFFFFFFFFFFFFFFFFFFFFFFFFFFFFFFFFFFFFFFFF AND PUSH20 0xFFFFFFFFFFFFFFFFFFFFFFFFFFFFFFFFFFFFFFFF AND DUP2 MSTORE PUSH1 0x20 ADD SWAP1 DUP2 MSTORE PUSH1 0x20 ADD PUSH1 0x0 KECCAK256 PUSH1 0x0 PUSH2 0x716 PUSH2 0x1EBC JUMP JUMPDEST PUSH20 0xFFFFFFFFFFFFFFFFFFFFFFFFFFFFFFFFFFFFFFFF AND PUSH20 0xFFFFFFFFFFFFFFFFFFFFFFFFFFFFFFFFFFFFFFFF AND DUP2 MSTORE PUSH1 0x20 ADD SWAP1 DUP2 MSTORE PUSH1 0x20 ADD PUSH1 0x0 KECCAK256 DUP2 SWAP1 SSTORE POP PUSH2 0x75C PUSH2 0x1EBC JUMP JUMPDEST PUSH20 0xFFFFFFFFFFFFFFFFFFFFFFFFFFFFFFFFFFFFFFFF AND DUP5 PUSH20 0xFFFFFFFFFFFFFFFFFFFFFFFFFFFFFFFFFFFFFFFF AND PUSH32 0x8C5BE1E5EBEC7D5BD14F71427D1E84F3DD0314C0F7B2291E5B200AC8C7C3B925 DUP5 PUSH1 0x40 MLOAD PUSH2 0x7B8 SWAP2 SWAP1 PUSH2 0x2094 JUMP JUMPDEST PUSH1 0x40 MLOAD DUP1 SWAP2 SUB SWAP1 LOG3 DUP2 PUSH1 0x8 PUSH1 0x0 DUP7 PUSH20 0xFFFFFFFFFFFFFFFFFFFFFFFFFFFFFFFFFFFFFFFF AND PUSH20 0xFFFFFFFFFFFFFFFFFFFFFFFFFFFFFFFFFFFFFFFF AND DUP2 MSTORE PUSH1 0x20 ADD SWAP1 DUP2 MSTORE PUSH1 0x20 ADD PUSH1 0x0 KECCAK256 PUSH1 0x0 DUP3 DUP3 SLOAD PUSH2 0x80F SWAP2 SWAP1 PUSH2 0x230D JUMP JUMPDEST SWAP3 POP POP DUP2 SWAP1 SSTORE POP PUSH1 0x0 DUP1 PUSH1 0x0 ADD SLOAD EQ ISZERO DUP1 ISZERO PUSH2 0x830 JUMPI POP PUSH1 0x0 DUP1 PUSH1 0x1 ADD SLOAD EQ ISZERO JUMPDEST ISZERO PUSH2 0xB01 JUMPI PUSH1 0x0 DUP1 PUSH1 0x0 ADD SLOAD PUSH2 0x3E8 DUP5 PUSH2 0x84A SWAP2 SWAP1 PUSH2 0x2370 JUMP JUMPDEST PUSH2 0x854 SWAP2 SWAP1 PUSH2 0x23A1 JUMP JUMPDEST SWAP1 POP PUSH1 0x0 DUP1 PUSH1 0x1 ADD SLOAD PUSH2 0x3E8 DUP6 PUSH2 0x86B SWAP2 SWAP1 PUSH2 0x2370 JUMP JUMPDEST PUSH2 0x875 SWAP2 SWAP1 PUSH2 0x23A1 JUMP JUMPDEST SWAP1 POP DUP1 DUP3 PUSH2 0x883 SWAP2 SWAP1 PUSH2 0x23E3 JUMP JUMPDEST DUP5 PUSH2 0x88E SWAP2 SWAP1 PUSH2 0x230D JUMP JUMPDEST PUSH1 0x8 PUSH1 0x0 DUP8 PUSH20 0xFFFFFFFFFFFFFFFFFFFFFFFFFFFFFFFFFFFFFFFF AND PUSH20 0xFFFFFFFFFFFFFFFFFFFFFFFFFFFFFFFFFFFFFFFF AND DUP2 MSTORE PUSH1 0x20 ADD SWAP1 DUP2 MSTORE PUSH1 0x20 ADD PUSH1 0x0 KECCAK256 PUSH1 0x0 DUP3 DUP3 SLOAD PUSH2 0x8DC SWAP2 SWAP1 PUSH2 0x23E3 JUMP JUMPDEST SWAP3 POP POP DUP2 SWAP1 SSTORE POP DUP1 PUSH1 0x8 PUSH1 0x0 PUSH1 0x2 PUSH1 0x5 ADD PUSH1 0x0 SWAP1 SLOAD SWAP1 PUSH2 0x100 EXP SWAP1 DIV PUSH20 0xFFFFFFFFFFFFFFFFFFFFFFFFFFFFFFFFFFFFFFFF AND PUSH20 0xFFFFFFFFFFFFFFFFFFFFFFFFFFFFFFFFFFFFFFFF AND PUSH20 0xFFFFFFFFFFFFFFFFFFFFFFFFFFFFFFFFFFFFFFFF AND DUP2 MSTORE PUSH1 0x20 ADD SWAP1 DUP2 MSTORE PUSH1 0x20 ADD PUSH1 0x0 KECCAK256 PUSH1 0x0 DUP3 DUP3 SLOAD PUSH2 0x957 SWAP2 SWAP1 PUSH2 0x23E3 JUMP JUMPDEST SWAP3 POP POP DUP2 SWAP1 SSTORE POP DUP2 PUSH1 0x2 PUSH1 0x3 ADD PUSH1 0x0 DUP3 DUP3 SLOAD PUSH2 0x973 SWAP2 SWAP1 PUSH2 0x230D JUMP JUMPDEST SWAP3 POP POP DUP2 SWAP1 SSTORE POP DUP5 PUSH20 0xFFFFFFFFFFFFFFFFFFFFFFFFFFFFFFFFFFFFFFFF AND PUSH2 0x999 PUSH2 0x1EBC JUMP JUMPDEST PUSH20 0xFFFFFFFFFFFFFFFFFFFFFFFFFFFFFFFFFFFFFFFF AND PUSH32 0xDDF252AD1BE2C89B69C2B068FC378DAA952BA7F163C4A11628F55A4DF523B3EF DUP4 DUP6 PUSH2 0x9DC SWAP2 SWAP1 PUSH2 0x23E3 JUMP JUMPDEST DUP8 PUSH2 0x9E7 SWAP2 SWAP1 PUSH2 0x230D JUMP JUMPDEST PUSH1 0x40 MLOAD PUSH2 0x9F4 SWAP2 SWAP1 PUSH2 0x2094 JUMP JUMPDEST PUSH1 0x40 MLOAD DUP1 SWAP2 SUB SWAP1 LOG3 PUSH1 0x0 PUSH20 0xFFFFFFFFFFFFFFFFFFFFFFFFFFFFFFFFFFFFFFFF AND PUSH2 0xA1C PUSH2 0x1EBC JUMP JUMPDEST PUSH20 0xFFFFFFFFFFFFFFFFFFFFFFFFFFFFFFFFFFFFFFFF AND PUSH32 0xDDF252AD1BE2C89B69C2B068FC378DAA952BA7F163C4A11628F55A4DF523B3EF DUP5 PUSH1 0x40 MLOAD PUSH2 0xA61 SWAP2 SWAP1 PUSH2 0x2094 JUMP JUMPDEST PUSH1 0x40 MLOAD DUP1 SWAP2 SUB SWAP1 LOG3 PUSH1 0x2 PUSH1 0x5 ADD PUSH1 0x0 SWAP1 SLOAD SWAP1 PUSH2 0x100 EXP SWAP1 DIV PUSH20 0xFFFFFFFFFFFFFFFFFFFFFFFFFFFFFFFFFFFFFFFF AND PUSH20 0xFFFFFFFFFFFFFFFFFFFFFFFFFFFFFFFFFFFFFFFF AND PUSH2 0xAAD PUSH2 0x1EBC JUMP JUMPDEST PUSH20 0xFFFFFFFFFFFFFFFFFFFFFFFFFFFFFFFFFFFFFFFF AND PUSH32 0xDDF252AD1BE2C89B69C2B068FC378DAA952BA7F163C4A11628F55A4DF523B3EF DUP4 PUSH1 0x40 MLOAD PUSH2 0xAF2 SWAP2 SWAP1 PUSH2 0x2094 JUMP JUMPDEST PUSH1 0x40 MLOAD DUP1 SWAP2 SUB SWAP1 LOG3 POP POP PUSH2 0xF95 JUMP JUMPDEST PUSH1 0x0 DUP1 PUSH1 0x0 ADD SLOAD EQ ISZERO DUP1 ISZERO PUSH2 0xB1A JUMPI POP PUSH1 0x0 DUP1 PUSH1 0x1 ADD SLOAD EQ JUMPDEST ISZERO PUSH2 0xCA7 JUMPI PUSH1 0x0 DUP1 PUSH1 0x0 ADD SLOAD PUSH2 0x3E8 DUP5 PUSH2 0xB34 SWAP2 SWAP1 PUSH2 0x2370 JUMP JUMPDEST PUSH2 0xB3E SWAP2 SWAP1 PUSH2 0x23A1 JUMP JUMPDEST SWAP1 POP DUP1 DUP4 PUSH2 0xB4C SWAP2 SWAP1 PUSH2 0x230D JUMP JUMPDEST PUSH1 0x8 PUSH1 0x0 DUP7 PUSH20 0xFFFFFFFFFFFFFFFFFFFFFFFFFFFFFFFFFFFFFFFF AND PUSH20 0xFFFFFFFFFFFFFFFFFFFFFFFFFFFFFFFFFFFFFFFF AND DUP2 MSTORE PUSH1 0x20 ADD SWAP1 DUP2 MSTORE PUSH1 0x20 ADD PUSH1 0x0 KECCAK256 PUSH1 0x0 DUP3 DUP3 SLOAD PUSH2 0xB9A SWAP2 SWAP1 PUSH2 0x23E3 JUMP JUMPDEST SWAP3 POP POP DUP2 SWAP1 SSTORE POP DUP1 PUSH1 0x2 PUSH1 0x3 ADD PUSH1 0x0 DUP3 DUP3 SLOAD PUSH2 0xBB6 SWAP2 SWAP1 PUSH2 0x230D JUMP JUMPDEST SWAP3 POP POP DUP2 SWAP1 SSTORE POP DUP4 PUSH20 0xFFFFFFFFFFFFFFFFFFFFFFFFFFFFFFFFFFFFFFFF AND PUSH2 0xBDC PUSH2 0x1EBC JUMP JUMPDEST PUSH20 0xFFFFFFFFFFFFFFFFFFFFFFFFFFFFFFFFFFFFFFFF AND PUSH32 0xDDF252AD1BE2C89B69C2B068FC378DAA952BA7F163C4A11628F55A4DF523B3EF DUP4 DUP7 PUSH2 0xC1F SWAP2 SWAP1 PUSH2 0x230D JUMP JUMPDEST PUSH1 0x40 MLOAD PUSH2 0xC2C SWAP2 SWAP1 PUSH2 0x2094 JUMP JUMPDEST PUSH1 0x40 MLOAD DUP1 SWAP2 SUB SWAP1 LOG3 PUSH1 0x0 PUSH20 0xFFFFFFFFFFFFFFFFFFFFFFFFFFFFFFFFFFFFFFFF AND PUSH2 0xC54 PUSH2 0x1EBC JUMP JUMPDEST PUSH20 0xFFFFFFFFFFFFFFFFFFFFFFFFFFFFFFFFFFFFFFFF AND PUSH32 0xDDF252AD1BE2C89B69C2B068FC378DAA952BA7F163C4A11628F55A4DF523B3EF DUP4 PUSH1 0x40 MLOAD PUSH2 0xC99 SWAP2 SWAP1 PUSH2 0x2094 JUMP JUMPDEST PUSH1 0x40 MLOAD DUP1 SWAP2 SUB SWAP1 LOG3 POP PUSH2 0xF94 JUMP JUMPDEST PUSH1 0x0 DUP1 PUSH1 0x0 ADD SLOAD EQ DUP1 ISZERO PUSH2 0xCC0 JUMPI POP PUSH1 0x0 DUP1 PUSH1 0x1 ADD SLOAD EQ ISZERO JUMPDEST ISZERO PUSH2 0xED0 JUMPI PUSH1 0x0 DUP1 PUSH1 0x1 ADD SLOAD PUSH2 0x3E8 DUP5 PUSH2 0xCDA SWAP2 SWAP1 PUSH2 0x2370 JUMP JUMPDEST PUSH2 0xCE4 SWAP2 SWAP1 PUSH2 0x23A1 JUMP JUMPDEST SWAP1 POP DUP1 DUP4 PUSH2 0xCF2 SWAP2 SWAP1 PUSH2 0x230D JUMP JUMPDEST PUSH1 0x8 PUSH1 0x0 DUP7 PUSH20 0xFFFFFFFFFFFFFFFFFFFFFFFFFFFFFFFFFFFFFFFF AND PUSH20 0xFFFFFFFFFFFFFFFFFFFFFFFFFFFFFFFFFFFFFFFF AND DUP2 MSTORE PUSH1 0x20 ADD SWAP1 DUP2 MSTORE PUSH1 0x20 ADD PUSH1 0x0 KECCAK256 PUSH1 0x0 DUP3 DUP3 SLOAD PUSH2 0xD40 SWAP2 SWAP1 PUSH2 0x23E3 JUMP JUMPDEST SWAP3 POP POP DUP2 SWAP1 SSTORE POP DUP1 PUSH1 0x8 PUSH1 0x0 PUSH1 0x2 PUSH1 0x5 ADD PUSH1 0x0 SWAP1 SLOAD SWAP1 PUSH2 0x100 EXP SWAP1 DIV PUSH20 0xFFFFFFFFFFFFFFFFFFFFFFFFFFFFFFFFFFFFFFFF AND PUSH20 0xFFFFFFFFFFFFFFFFFFFFFFFFFFFFFFFFFFFFFFFF AND PUSH20 0xFFFFFFFFFFFFFFFFFFFFFFFFFFFFFFFFFFFFFFFF AND DUP2 MSTORE PUSH1 0x20 ADD SWAP1 DUP2 MSTORE PUSH1 0x20 ADD PUSH1 0x0 KECCAK256 PUSH1 0x0 DUP3 DUP3 SLOAD PUSH2 0xDBB SWAP2 SWAP1 PUSH2 0x23E3 JUMP JUMPDEST SWAP3 POP POP DUP2 SWAP1 SSTORE POP DUP4 PUSH20 0xFFFFFFFFFFFFFFFFFFFFFFFFFFFFFFFFFFFFFFFF AND PUSH2 0xDE1 PUSH2 0x1EBC JUMP JUMPDEST PUSH20 0xFFFFFFFFFFFFFFFFFFFFFFFFFFFFFFFFFFFFFFFF AND PUSH32 0xDDF252AD1BE2C89B69C2B068FC378DAA952BA7F163C4A11628F55A4DF523B3EF DUP4 DUP7 PUSH2 0xE24 SWAP2 SWAP1 PUSH2 0x230D JUMP JUMPDEST PUSH1 0x40 MLOAD PUSH2 0xE31 SWAP2 SWAP1 PUSH2 0x2094 JUMP JUMPDEST PUSH1 0x40 MLOAD DUP1 SWAP2 SUB SWAP1 LOG3 PUSH1 0x2 PUSH1 0x5 ADD PUSH1 0x0 SWAP1 SLOAD SWAP1 PUSH2 0x100 EXP SWAP1 DIV PUSH20 0xFFFFFFFFFFFFFFFFFFFFFFFFFFFFFFFFFFFFFFFF AND PUSH20 0xFFFFFFFFFFFFFFFFFFFFFFFFFFFFFFFFFFFFFFFF AND PUSH2 0xE7D PUSH2 0x1EBC JUMP JUMPDEST PUSH20 0xFFFFFFFFFFFFFFFFFFFFFFFFFFFFFFFFFFFFFFFF AND PUSH32 0xDDF252AD1BE2C89B69C2B068FC378DAA952BA7F163C4A11628F55A4DF523B3EF DUP4 PUSH1 0x40 MLOAD PUSH2 0xEC2 SWAP2 SWAP1 PUSH2 0x2094 JUMP JUMPDEST PUSH1 0x40 MLOAD DUP1 SWAP2 SUB SWAP1 LOG3 POP PUSH2 0xF93 JUMP JUMPDEST DUP2 PUSH1 0x8 PUSH1 0x0 DUP6 PUSH20 0xFFFFFFFFFFFFFFFFFFFFFFFFFFFFFFFFFFFFFFFF AND PUSH20 0xFFFFFFFFFFFFFFFFFFFFFFFFFFFFFFFFFFFFFFFF AND DUP2 MSTORE PUSH1 0x20 ADD SWAP1 DUP2 MSTORE PUSH1 0x20 ADD PUSH1 0x0 KECCAK256 PUSH1 0x0 DUP3 DUP3 SLOAD PUSH2 0xF1F SWAP2 SWAP1 PUSH2 0x23E3 JUMP JUMPDEST SWAP3 POP POP DUP2 SWAP1 SSTORE POP DUP3 PUSH20 0xFFFFFFFFFFFFFFFFFFFFFFFFFFFFFFFFFFFFFFFF AND PUSH2 0xF45 PUSH2 0x1EBC JUMP JUMPDEST PUSH20 0xFFFFFFFFFFFFFFFFFFFFFFFFFFFFFFFFFFFFFFFF AND PUSH32 0xDDF252AD1BE2C89B69C2B068FC378DAA952BA7F163C4A11628F55A4DF523B3EF DUP5 PUSH1 0x40 MLOAD PUSH2 0xF8A SWAP2 SWAP1 PUSH2 0x2094 JUMP JUMPDEST PUSH1 0x40 MLOAD DUP1 SWAP2 SUB SWAP1 LOG3 JUMPDEST JUMPDEST JUMPDEST PUSH1 0x1 SWAP1 POP SWAP4 SWAP3 POP POP POP JUMP JUMPDEST PUSH1 0x0 PUSH1 0x2 DUP1 ADD PUSH1 0x0 SWAP1 SLOAD SWAP1 PUSH2 0x100 EXP SWAP1 DIV PUSH1 0xFF AND SWAP1 POP SWAP1 JUMP JUMPDEST PUSH1 0x0 DUP1 PUSH20 0xFFFFFFFFFFFFFFFFFFFFFFFFFFFFFFFFFFFFFFFF AND PUSH2 0xFDA PUSH2 0x1EBC JUMP JUMPDEST PUSH20 0xFFFFFFFFFFFFFFFFFFFFFFFFFFFFFFFFFFFFFFFF AND EQ ISZERO DUP1 ISZERO PUSH2 0x102B JUMPI POP PUSH1 0x0 PUSH20 0xFFFFFFFFFFFFFFFFFFFFFFFFFFFFFFFFFFFFFFFF AND DUP4 PUSH20 0xFFFFFFFFFFFFFFFFFFFFFFFFFFFFFFFFFFFFFFFF AND EQ ISZERO JUMPDEST PUSH2 0x106A JUMPI PUSH1 0x40 MLOAD PUSH32 0x8C379A000000000000000000000000000000000000000000000000000000000 DUP2 MSTORE PUSH1 0x4 ADD PUSH2 0x1061 SWAP1 PUSH2 0x2252 JUMP JUMPDEST PUSH1 0x40 MLOAD DUP1 SWAP2 SUB SWAP1 REVERT JUMPDEST DUP2 PUSH2 0x107C PUSH2 0x1076 PUSH2 0x1EBC JUMP JUMPDEST DUP6 PUSH2 0x1E35 JUMP JUMPDEST PUSH2 0x1086 SWAP2 SWAP1 PUSH2 0x23E3 JUMP JUMPDEST PUSH1 0x9 PUSH1 0x0 PUSH2 0x1092 PUSH2 0x1EBC JUMP JUMPDEST PUSH20 0xFFFFFFFFFFFFFFFFFFFFFFFFFFFFFFFFFFFFFFFF AND PUSH20 0xFFFFFFFFFFFFFFFFFFFFFFFFFFFFFFFFFFFFFFFF AND DUP2 MSTORE PUSH1 0x20 ADD SWAP1 DUP2 MSTORE PUSH1 0x20 ADD PUSH1 0x0 KECCAK256 PUSH1 0x0 DUP6 PUSH20 0xFFFFFFFFFFFFFFFFFFFFFFFFFFFFFFFFFFFFFFFF AND PUSH20 0xFFFFFFFFFFFFFFFFFFFFFFFFFFFFFFFFFFFFFFFF AND DUP2 MSTORE PUSH1 0x20 ADD SWAP1 DUP2 MSTORE PUSH1 0x20 ADD PUSH1 0x0 KECCAK256 DUP2 SWAP1 SSTORE POP DUP3 PUSH20 0xFFFFFFFFFFFFFFFFFFFFFFFFFFFFFFFFFFFFFFFF AND PUSH2 0x112C PUSH2 0x1EBC JUMP JUMPDEST PUSH20 0xFFFFFFFFFFFFFFFFFFFFFFFFFFFFFFFFFFFFFFFF AND PUSH32 0x8C5BE1E5EBEC7D5BD14F71427D1E84F3DD0314C0F7B2291E5B200AC8C7C3B925 DUP5 PUSH2 0x1175 PUSH2 0x116F PUSH2 0x1EBC JUMP JUMPDEST DUP9 PUSH2 0x1E35 JUMP JUMPDEST PUSH2 0x117F SWAP2 SWAP1 PUSH2 0x23E3 JUMP JUMPDEST PUSH1 0x40 MLOAD PUSH2 0x118C SWAP2 SWAP1 PUSH2 0x2094 JUMP JUMPDEST PUSH1 0x40 MLOAD DUP1 SWAP2 SUB SWAP1 LOG3 PUSH1 0x1 SWAP1 POP SWAP3 SWAP2 POP POP JUMP JUMPDEST PUSH1 0x0 DUP1 PUSH20 0xFFFFFFFFFFFFFFFFFFFFFFFFFFFFFFFFFFFFFFFF AND DUP3 PUSH20 0xFFFFFFFFFFFFFFFFFFFFFFFFFFFFFFFFFFFFFFFF AND SUB PUSH2 0x120E JUMPI PUSH1 0x40 MLOAD PUSH32 0x8C379A000000000000000000000000000000000000000000000000000000000 DUP2 MSTORE PUSH1 0x4 ADD PUSH2 0x1205 SWAP1 PUSH2 0x2252 JUMP JUMPDEST PUSH1 0x40 MLOAD DUP1 SWAP2 SUB SWAP1 REVERT JUMPDEST PUSH1 0x8 PUSH1 0x0 DUP4 PUSH20 0xFFFFFFFFFFFFFFFFFFFFFFFFFFFFFFFFFFFFFFFF AND PUSH20 0xFFFFFFFFFFFFFFFFFFFFFFFFFFFFFFFFFFFFFFFF AND DUP2 MSTORE PUSH1 0x20 ADD SWAP1 DUP2 MSTORE PUSH1 0x20 ADD PUSH1 0x0 KECCAK256 SLOAD SWAP1 POP SWAP2 SWAP1 POP JUMP JUMPDEST PUSH1 0x60 PUSH1 0x2 PUSH1 0x1 ADD DUP1 SLOAD PUSH2 0x1267 SWAP1 PUSH2 0x21D5 JUMP JUMPDEST DUP1 PUSH1 0x1F ADD PUSH1 0x20 DUP1 SWAP2 DIV MUL PUSH1 0x20 ADD PUSH1 0x40 MLOAD SWAP1 DUP2 ADD PUSH1 0x40 MSTORE DUP1 SWAP3 SWAP2 SWAP1 DUP2 DUP2 MSTORE PUSH1 0x20 ADD DUP3 DUP1 SLOAD PUSH2 0x1293 SWAP1 PUSH2 0x21D5 JUMP JUMPDEST DUP1 ISZERO PUSH2 0x12E0 JUMPI DUP1 PUSH1 0x1F LT PUSH2 0x12B5 JUMPI PUSH2 0x100 DUP1 DUP4 SLOAD DIV MUL DUP4 MSTORE SWAP2 PUSH1 0x20 ADD SWAP2 PUSH2 0x12E0 JUMP JUMPDEST DUP3 ADD SWAP2 SWAP1 PUSH1 0x0 MSTORE PUSH1 0x20 PUSH1 0x0 KECCAK256 SWAP1 JUMPDEST DUP2 SLOAD DUP2 MSTORE SWAP1 PUSH1 0x1 ADD SWAP1 PUSH1 0x20 ADD DUP1 DUP4 GT PUSH2 0x12C3 JUMPI DUP3 SWAP1 SUB PUSH1 0x1F AND DUP3 ADD SWAP2 JUMPDEST POP POP POP POP POP SWAP1 POP SWAP1 JUMP JUMPDEST PUSH1 0x0 DUP2 PUSH2 0x12FE PUSH2 0x12F8 PUSH2 0x1EBC JUMP JUMPDEST DUP6 PUSH2 0x1E35 JUMP JUMPDEST LT ISZERO DUP1 ISZERO PUSH2 0x1340 JUMPI POP PUSH1 0x0 PUSH20 0xFFFFFFFFFFFFFFFFFFFFFFFFFFFFFFFFFFFFFFFF AND PUSH2 0x1327 PUSH2 0x1EBC JUMP JUMPDEST PUSH20 0xFFFFFFFFFFFFFFFFFFFFFFFFFFFFFFFFFFFFFFFF AND EQ ISZERO JUMPDEST DUP1 ISZERO PUSH2 0x1379 JUMPI POP PUSH1 0x0 PUSH20 0xFFFFFFFFFFFFFFFFFFFFFFFFFFFFFFFFFFFFFFFF AND DUP4 PUSH20 0xFFFFFFFFFFFFFFFFFFFFFFFFFFFFFFFFFFFFFFFF AND EQ ISZERO JUMPDEST PUSH2 0x13B8 JUMPI PUSH1 0x40 MLOAD PUSH32 0x8C379A000000000000000000000000000000000000000000000000000000000 DUP2 MSTORE PUSH1 0x4 ADD PUSH2 0x13AF SWAP1 PUSH2 0x2489 JUMP JUMPDEST PUSH1 0x40 MLOAD DUP1 SWAP2 SUB SWAP1 REVERT JUMPDEST DUP2 PUSH2 0x13CA PUSH2 0x13C4 PUSH2 0x1EBC JUMP JUMPDEST DUP6 PUSH2 0x1E35 JUMP JUMPDEST PUSH2 0x13D4 SWAP2 SWAP1 PUSH2 0x230D JUMP JUMPDEST PUSH1 0x9 PUSH1 0x0 PUSH2 0x13E0 PUSH2 0x1EBC JUMP JUMPDEST PUSH20 0xFFFFFFFFFFFFFFFFFFFFFFFFFFFFFFFFFFFFFFFF AND PUSH20 0xFFFFFFFFFFFFFFFFFFFFFFFFFFFFFFFFFFFFFFFF AND DUP2 MSTORE PUSH1 0x20 ADD SWAP1 DUP2 MSTORE PUSH1 0x20 ADD PUSH1 0x0 KECCAK256 PUSH1 0x0 DUP6 PUSH20 0xFFFFFFFFFFFFFFFFFFFFFFFFFFFFFFFFFFFFFFFF AND PUSH20 0xFFFFFFFFFFFFFFFFFFFFFFFFFFFFFFFFFFFFFFFF AND DUP2 MSTORE PUSH1 0x20 ADD SWAP1 DUP2 MSTORE PUSH1 0x20 ADD PUSH1 0x0 KECCAK256 DUP2 SWAP1 SSTORE POP DUP3 PUSH20 0xFFFFFFFFFFFFFFFFFFFFFFFFFFFFFFFFFFFFFFFF AND PUSH2 0x147A PUSH2 0x1EBC JUMP JUMPDEST PUSH20 0xFFFFFFFFFFFFFFFFFFFFFFFFFFFFFFFFFFFFFFFF AND PUSH32 0x8C5BE1E5EBEC7D5BD14F71427D1E84F3DD0314C0F7B2291E5B200AC8C7C3B925 DUP5 PUSH2 0x14C3 PUSH2 0x14BD PUSH2 0x1EBC JUMP JUMPDEST DUP9 PUSH2 0x1E35 JUMP JUMPDEST PUSH2 0x14CD SWAP2 SWAP1 PUSH2 0x230D JUMP JUMPDEST PUSH1 0x40 MLOAD PUSH2 0x14DA SWAP2 SWAP1 PUSH2 0x2094 JUMP JUMPDEST PUSH1 0x40 MLOAD DUP1 SWAP2 SUB SWAP1 LOG3 PUSH1 0x1 SWAP1 POP SWAP3 SWAP2 POP POP JUMP JUMPDEST PUSH1 0x0 DUP1 PUSH20 0xFFFFFFFFFFFFFFFFFFFFFFFFFFFFFFFFFFFFFFFF AND PUSH2 0x150D PUSH2 0x1EBC JUMP JUMPDEST PUSH20 0xFFFFFFFFFFFFFFFFFFFFFFFFFFFFFFFFFFFFFFFF AND EQ ISZERO DUP1 ISZERO PUSH2 0x155E JUMPI POP PUSH1 0x0 PUSH20 0xFFFFFFFFFFFFFFFFFFFFFFFFFFFFFFFFFFFFFFFF AND DUP4 PUSH20 0xFFFFFFFFFFFFFFFFFFFFFFFFFFFFFFFFFFFFFFFF AND EQ ISZERO JUMPDEST DUP1 ISZERO PUSH2 0x15B0 JUMPI POP DUP2 PUSH1 0x8 PUSH1 0x0 PUSH2 0x1572 PUSH2 0x1EBC JUMP JUMPDEST PUSH20 0xFFFFFFFFFFFFFFFFFFFFFFFFFFFFFFFFFFFFFFFF AND PUSH20 0xFFFFFFFFFFFFFFFFFFFFFFFFFFFFFFFFFFFFFFFF AND DUP2 MSTORE PUSH1 0x20 ADD SWAP1 DUP2 MSTORE PUSH1 0x20 ADD PUSH1 0x0 KECCAK256 SLOAD LT ISZERO JUMPDEST DUP1 ISZERO PUSH2 0x1603 JUMPI POP PUSH1 0x0 PUSH1 0x8 PUSH1 0x0 PUSH2 0x15C5 PUSH2 0x1EBC JUMP JUMPDEST PUSH20 0xFFFFFFFFFFFFFFFFFFFFFFFFFFFFFFFFFFFFFFFF AND PUSH20 0xFFFFFFFFFFFFFFFFFFFFFFFFFFFFFFFFFFFFFFFF AND DUP2 MSTORE PUSH1 0x20 ADD SWAP1 DUP2 MSTORE PUSH1 0x20 ADD PUSH1 0x0 KECCAK256 SLOAD LT ISZERO JUMPDEST PUSH2 0x1642 JUMPI PUSH1 0x40 MLOAD PUSH32 0x8C379A000000000000000000000000000000000000000000000000000000000 DUP2 MSTORE PUSH1 0x4 ADD PUSH2 0x1639 SWAP1 PUSH2 0x251B JUMP JUMPDEST PUSH1 0x40 MLOAD DUP1 SWAP2 SUB SWAP1 REVERT JUMPDEST DUP2 PUSH1 0x8 PUSH1 0x0 PUSH2 0x164F PUSH2 0x1EBC JUMP JUMPDEST PUSH20 0xFFFFFFFFFFFFFFFFFFFFFFFFFFFFFFFFFFFFFFFF AND PUSH20 0xFFFFFFFFFFFFFFFFFFFFFFFFFFFFFFFFFFFFFFFF AND DUP2 MSTORE PUSH1 0x20 ADD SWAP1 DUP2 MSTORE PUSH1 0x20 ADD PUSH1 0x0 KECCAK256 PUSH1 0x0 DUP3 DUP3 SLOAD PUSH2 0x1698 SWAP2 SWAP1 PUSH2 0x230D JUMP JUMPDEST SWAP3 POP POP DUP2 SWAP1 SSTORE POP PUSH1 0x0 DUP1 PUSH1 0x0 ADD SLOAD EQ ISZERO DUP1 ISZERO PUSH2 0x16B9 JUMPI POP PUSH1 0x0 DUP1 PUSH1 0x1 ADD SLOAD EQ ISZERO JUMPDEST ISZERO PUSH2 0x198A JUMPI PUSH1 0x0 DUP1 PUSH1 0x0 ADD SLOAD PUSH2 0x3E8 DUP5 PUSH2 0x16D3 SWAP2 SWAP1 PUSH2 0x2370 JUMP JUMPDEST PUSH2 0x16DD SWAP2 SWAP1 PUSH2 0x23A1 JUMP JUMPDEST SWAP1 POP PUSH1 0x0 DUP1 PUSH1 0x1 ADD SLOAD PUSH2 0x3E8 DUP6 PUSH2 0x16F4 SWAP2 SWAP1 PUSH2 0x2370 JUMP JUMPDEST PUSH2 0x16FE SWAP2 SWAP1 PUSH2 0x23A1 JUMP JUMPDEST SWAP1 POP DUP1 DUP3 PUSH2 0x170C SWAP2 SWAP1 PUSH2 0x23E3 JUMP JUMPDEST DUP5 PUSH2 0x1717 SWAP2 SWAP1 PUSH2 0x230D JUMP JUMPDEST PUSH1 0x8 PUSH1 0x0 DUP8 PUSH20 0xFFFFFFFFFFFFFFFFFFFFFFFFFFFFFFFFFFFFFFFF AND PUSH20 0xFFFFFFFFFFFFFFFFFFFFFFFFFFFFFFFFFFFFFFFF AND DUP2 MSTORE PUSH1 0x20 ADD SWAP1 DUP2 MSTORE PUSH1 0x20 ADD PUSH1 0x0 KECCAK256 PUSH1 0x0 DUP3 DUP3 SLOAD PUSH2 0x1765 SWAP2 SWAP1 PUSH2 0x23E3 JUMP JUMPDEST SWAP3 POP POP DUP2 SWAP1 SSTORE POP DUP1 PUSH1 0x8 PUSH1 0x0 PUSH1 0x2 PUSH1 0x5 ADD PUSH1 0x0 SWAP1 SLOAD SWAP1 PUSH2 0x100 EXP SWAP1 DIV PUSH20 0xFFFFFFFFFFFFFFFFFFFFFFFFFFFFFFFFFFFFFFFF AND PUSH20 0xFFFFFFFFFFFFFFFFFFFFFFFFFFFFFFFFFFFFFFFF AND PUSH20 0xFFFFFFFFFFFFFFFFFFFFFFFFFFFFFFFFFFFFFFFF AND DUP2 MSTORE PUSH1 0x20 ADD SWAP1 DUP2 MSTORE PUSH1 0x20 ADD PUSH1 0x0 KECCAK256 PUSH1 0x0 DUP3 DUP3 SLOAD PUSH2 0x17E0 SWAP2 SWAP1 PUSH2 0x23E3 JUMP JUMPDEST SWAP3 POP POP DUP2 SWAP1 SSTORE POP DUP2 PUSH1 0x2 PUSH1 0x3 ADD PUSH1 0x0 DUP3 DUP3 SLOAD PUSH2 0x17FC SWAP2 SWAP1 PUSH2 0x230D JUMP JUMPDEST SWAP3 POP POP DUP2 SWAP1 SSTORE POP DUP5 PUSH20 0xFFFFFFFFFFFFFFFFFFFFFFFFFFFFFFFFFFFFFFFF AND PUSH2 0x1822 PUSH2 0x1EBC JUMP JUMPDEST PUSH20 0xFFFFFFFFFFFFFFFFFFFFFFFFFFFFFFFFFFFFFFFF AND PUSH32 0xDDF252AD1BE2C89B69C2B068FC378DAA952BA7F163C4A11628F55A4DF523B3EF DUP4 DUP6 PUSH2 0x1865 SWAP2 SWAP1 PUSH2 0x23E3 JUMP JUMPDEST DUP8 PUSH2 0x1870 SWAP2 SWAP1 PUSH2 0x230D JUMP JUMPDEST PUSH1 0x40 MLOAD PUSH2 0x187D SWAP2 SWAP1 PUSH2 0x2094 JUMP JUMPDEST PUSH1 0x40 MLOAD DUP1 SWAP2 SUB SWAP1 LOG3 PUSH1 0x0 PUSH20 0xFFFFFFFFFFFFFFFFFFFFFFFFFFFFFFFFFFFFFFFF AND PUSH2 0x18A5 PUSH2 0x1EBC JUMP JUMPDEST PUSH20 0xFFFFFFFFFFFFFFFFFFFFFFFFFFFFFFFFFFFFFFFF AND PUSH32 0xDDF252AD1BE2C89B69C2B068FC378DAA952BA7F163C4A11628F55A4DF523B3EF DUP5 PUSH1 0x40 MLOAD PUSH2 0x18EA SWAP2 SWAP1 PUSH2 0x2094 JUMP JUMPDEST PUSH1 0x40 MLOAD DUP1 SWAP2 SUB SWAP1 LOG3 PUSH1 0x2 PUSH1 0x5 ADD PUSH1 0x0 SWAP1 SLOAD SWAP1 PUSH2 0x100 EXP SWAP1 DIV PUSH20 0xFFFFFFFFFFFFFFFFFFFFFFFFFFFFFFFFFFFFFFFF AND PUSH20 0xFFFFFFFFFFFFFFFFFFFFFFFFFFFFFFFFFFFFFFFF AND PUSH2 0x1936 PUSH2 0x1EBC JUMP JUMPDEST PUSH20 0xFFFFFFFFFFFFFFFFFFFFFFFFFFFFFFFFFFFFFFFF AND PUSH32 0xDDF252AD1BE2C89B69C2B068FC378DAA952BA7F163C4A11628F55A4DF523B3EF DUP4 PUSH1 0x40 MLOAD PUSH2 0x197B SWAP2 SWAP1 PUSH2 0x2094 JUMP JUMPDEST PUSH1 0x40 MLOAD DUP1 SWAP2 SUB SWAP1 LOG3 POP POP PUSH2 0x1E1E JUMP JUMPDEST PUSH1 0x0 DUP1 PUSH1 0x0 ADD SLOAD EQ ISZERO DUP1 ISZERO PUSH2 0x19A3 JUMPI POP PUSH1 0x0 DUP1 PUSH1 0x1 ADD SLOAD EQ JUMPDEST ISZERO PUSH2 0x1B30 JUMPI PUSH1 0x0 DUP1 PUSH1 0x0 ADD SLOAD PUSH2 0x3E8 DUP5 PUSH2 0x19BD SWAP2 SWAP1 PUSH2 0x2370 JUMP JUMPDEST PUSH2 0x19C7 SWAP2 SWAP1 PUSH2 0x23A1 JUMP JUMPDEST SWAP1 POP DUP1 DUP4 PUSH2 0x19D5 SWAP2 SWAP1 PUSH2 0x230D JUMP JUMPDEST PUSH1 0x8 PUSH1 0x0 DUP7 PUSH20 0xFFFFFFFFFFFFFFFFFFFFFFFFFFFFFFFFFFFFFFFF AND PUSH20 0xFFFFFFFFFFFFFFFFFFFFFFFFFFFFFFFFFFFFFFFF AND DUP2 MSTORE PUSH1 0x20 ADD SWAP1 DUP2 MSTORE PUSH1 0x20 ADD PUSH1 0x0 KECCAK256 PUSH1 0x0 DUP3 DUP3 SLOAD PUSH2 0x1A23 SWAP2 SWAP1 PUSH2 0x23E3 JUMP JUMPDEST SWAP3 POP POP DUP2 SWAP1 SSTORE POP DUP1 PUSH1 0x2 PUSH1 0x3 ADD PUSH1 0x0 DUP3 DUP3 SLOAD PUSH2 0x1A3F SWAP2 SWAP1 PUSH2 0x230D JUMP JUMPDEST SWAP3 POP POP DUP2 SWAP1 SSTORE POP DUP4 PUSH20 0xFFFFFFFFFFFFFFFFFFFFFFFFFFFFFFFFFFFFFFFF AND PUSH2 0x1A65 PUSH2 0x1EBC JUMP JUMPDEST PUSH20 0xFFFFFFFFFFFFFFFFFFFFFFFFFFFFFFFFFFFFFFFF AND PUSH32 0xDDF252AD1BE2C89B69C2B068FC378DAA952BA7F163C4A11628F55A4DF523B3EF DUP4 DUP7 PUSH2 0x1AA8 SWAP2 SWAP1 PUSH2 0x230D JUMP JUMPDEST PUSH1 0x40 MLOAD PUSH2 0x1AB5 SWAP2 SWAP1 PUSH2 0x2094 JUMP JUMPDEST PUSH1 0x40 MLOAD DUP1 SWAP2 SUB SWAP1 LOG3 PUSH1 0x0 PUSH20 0xFFFFFFFFFFFFFFFFFFFFFFFFFFFFFFFFFFFFFFFF AND PUSH2 0x1ADD PUSH2 0x1EBC JUMP JUMPDEST PUSH20 0xFFFFFFFFFFFFFFFFFFFFFFFFFFFFFFFFFFFFFFFF AND PUSH32 0xDDF252AD1BE2C89B69C2B068FC378DAA952BA7F163C4A11628F55A4DF523B3EF DUP4 PUSH1 0x40 MLOAD PUSH2 0x1B22 SWAP2 SWAP1 PUSH2 0x2094 JUMP JUMPDEST PUSH1 0x40 MLOAD DUP1 SWAP2 SUB SWAP1 LOG3 POP PUSH2 0x1E1D JUMP JUMPDEST PUSH1 0x0 DUP1 PUSH1 0x0 ADD SLOAD EQ DUP1 ISZERO PUSH2 0x1B49 JUMPI POP PUSH1 0x0 DUP1 PUSH1 0x1 ADD SLOAD EQ ISZERO JUMPDEST ISZERO PUSH2 0x1D59 JUMPI PUSH1 0x0 DUP1 PUSH1 0x1 ADD SLOAD PUSH2 0x3E8 DUP5 PUSH2 0x1B63 SWAP2 SWAP1 PUSH2 0x2370 JUMP JUMPDEST PUSH2 0x1B6D SWAP2 SWAP1 PUSH2 0x23A1 JUMP JUMPDEST SWAP1 POP DUP1 DUP4 PUSH2 0x1B7B SWAP2 SWAP1 PUSH2 0x230D JUMP JUMPDEST PUSH1 0x8 PUSH1 0x0 DUP7 PUSH20 0xFFFFFFFFFFFFFFFFFFFFFFFFFFFFFFFFFFFFFFFF AND PUSH20 0xFFFFFFFFFFFFFFFFFFFFFFFFFFFFFFFFFFFFFFFF AND DUP2 MSTORE PUSH1 0x20 ADD SWAP1 DUP2 MSTORE PUSH1 0x20 ADD PUSH1 0x0 KECCAK256 PUSH1 0x0 DUP3 DUP3 SLOAD PUSH2 0x1BC9 SWAP2 SWAP1 PUSH2 0x23E3 JUMP JUMPDEST SWAP3 POP POP DUP2 SWAP1 SSTORE POP DUP1 PUSH1 0x8 PUSH1 0x0 PUSH1 0x2 PUSH1 0x5 ADD PUSH1 0x0 SWAP1 SLOAD SWAP1 PUSH2 0x100 EXP SWAP1 DIV PUSH20 0xFFFFFFFFFFFFFFFFFFFFFFFFFFFFFFFFFFFFFFFF AND PUSH20 0xFFFFFFFFFFFFFFFFFFFFFFFFFFFFFFFFFFFFFFFF AND PUSH20 0xFFFFFFFFFFFFFFFFFFFFFFFFFFFFFFFFFFFFFFFF AND DUP2 MSTORE PUSH1 0x20 ADD SWAP1 DUP2 MSTORE PUSH1 0x20 ADD PUSH1 0x0 KECCAK256 PUSH1 0x0 DUP3 DUP3 SLOAD PUSH2 0x1C44 SWAP2 SWAP1 PUSH2 0x23E3 JUMP JUMPDEST SWAP3 POP POP DUP2 SWAP1 SSTORE POP DUP4 PUSH20 0xFFFFFFFFFFFFFFFFFFFFFFFFFFFFFFFFFFFFFFFF AND PUSH2 0x1C6A PUSH2 0x1EBC JUMP JUMPDEST PUSH20 0xFFFFFFFFFFFFFFFFFFFFFFFFFFFFFFFFFFFFFFFF AND PUSH32 0xDDF252AD1BE2C89B69C2B068FC378DAA952BA7F163C4A11628F55A4DF523B3EF DUP4 DUP7 PUSH2 0x1CAD SWAP2 SWAP1 PUSH2 0x230D JUMP JUMPDEST PUSH1 0x40 MLOAD PUSH2 0x1CBA SWAP2 SWAP1 PUSH2 0x2094 JUMP JUMPDEST PUSH1 0x40 MLOAD DUP1 SWAP2 SUB SWAP1 LOG3 PUSH1 0x2 PUSH1 0x5 ADD PUSH1 0x0 SWAP1 SLOAD SWAP1 PUSH2 0x100 EXP SWAP1 DIV PUSH20 0xFFFFFFFFFFFFFFFFFFFFFFFFFFFFFFFFFFFFFFFF AND PUSH20 0xFFFFFFFFFFFFFFFFFFFFFFFFFFFFFFFFFFFFFFFF AND PUSH2 0x1D06 PUSH2 0x1EBC JUMP JUMPDEST PUSH20 0xFFFFFFFFFFFFFFFFFFFFFFFFFFFFFFFFFFFFFFFF AND PUSH32 0xDDF252AD1BE2C89B69C2B068FC378DAA952BA7F163C4A11628F55A4DF523B3EF DUP4 PUSH1 0x40 MLOAD PUSH2 0x1D4B SWAP2 SWAP1 PUSH2 0x2094 JUMP JUMPDEST PUSH1 0x40 MLOAD DUP1 SWAP2 SUB SWAP1 LOG3 POP PUSH2 0x1E1C JUMP JUMPDEST DUP2 PUSH1 0x8 PUSH1 0x0 DUP6 PUSH20 0xFFFFFFFFFFFFFFFFFFFFFFFFFFFFFFFFFFFFFFFF AND PUSH20 0xFFFFFFFFFFFFFFFFFFFFFFFFFFFFFFFFFFFFFFFF AND DUP2 MSTORE PUSH1 0x20 ADD SWAP1 DUP2 MSTORE PUSH1 0x20 ADD PUSH1 0x0 KECCAK256 PUSH1 0x0 DUP3 DUP3 SLOAD PUSH2 0x1DA8 SWAP2 SWAP1 PUSH2 0x23E3 JUMP JUMPDEST SWAP3 POP POP DUP2 SWAP1 SSTORE POP DUP3 PUSH20 0xFFFFFFFFFFFFFFFFFFFFFFFFFFFFFFFFFFFFFFFF AND PUSH2 0x1DCE PUSH2 0x1EBC JUMP JUMPDEST PUSH20 0xFFFFFFFFFFFFFFFFFFFFFFFFFFFFFFFFFFFFFFFF AND PUSH32 0xDDF252AD1BE2C89B69C2B068FC378DAA952BA7F163C4A11628F55A4DF523B3EF DUP5 PUSH1 0x40 MLOAD PUSH2 0x1E13 SWAP2 SWAP1 PUSH2 0x2094 JUMP JUMPDEST PUSH1 0x40 MLOAD DUP1 SWAP2 SUB SWAP1 LOG3 JUMPDEST JUMPDEST JUMPDEST PUSH1 0x1 SWAP1 POP SWAP3 SWAP2 POP POP JUMP JUMPDEST PUSH1 0x0 PUSH1 0x2 PUSH1 0x4 ADD SLOAD SWAP1 POP SWAP1 JUMP JUMPDEST PUSH1 0x0 PUSH1 0x9 PUSH1 0x0 DUP5 PUSH20 0xFFFFFFFFFFFFFFFFFFFFFFFFFFFFFFFFFFFFFFFF AND PUSH20 0xFFFFFFFFFFFFFFFFFFFFFFFFFFFFFFFFFFFFFFFF AND DUP2 MSTORE PUSH1 0x20 ADD SWAP1 DUP2 MSTORE PUSH1 0x20 ADD PUSH1 0x0 KECCAK256 PUSH1 0x0 DUP4 PUSH20 0xFFFFFFFFFFFFFFFFFFFFFFFFFFFFFFFFFFFFFFFF AND PUSH20 0xFFFFFFFFFFFFFFFFFFFFFFFFFFFFFFFFFFFFFFFF AND DUP2 MSTORE PUSH1 0x20 ADD SWAP1 DUP2 MSTORE PUSH1 0x20 ADD PUSH1 0x0 KECCAK256 SLOAD SWAP1 POP SWAP3 SWAP2 POP POP JUMP JUMPDEST PUSH1 0x0 CALLER SWAP1 POP SWAP1 JUMP JUMPDEST PUSH1 0x0 DUP2 MLOAD SWAP1 POP SWAP2 SWAP1 POP JUMP JUMPDEST PUSH1 0x0 DUP3 DUP3 MSTORE PUSH1 0x20 DUP3 ADD SWAP1 POP SWAP3 SWAP2 POP POP JUMP JUMPDEST PUSH1 0x0 JUMPDEST DUP4 DUP2 LT ISZERO PUSH2 0x1EFE JUMPI DUP1 DUP3 ADD MLOAD DUP2 DUP5 ADD MSTORE PUSH1 0x20 DUP2 ADD SWAP1 POP PUSH2 0x1EE3 JUMP JUMPDEST PUSH1 0x0 DUP5 DUP5 ADD MSTORE POP POP POP POP JUMP JUMPDEST PUSH1 0x0 PUSH1 0x1F NOT PUSH1 0x1F DUP4 ADD AND SWAP1 POP SWAP2 SWAP1 POP JUMP JUMPDEST PUSH1 0x0 PUSH2 0x1F26 DUP3 PUSH2 0x1EC4 JUMP JUMPDEST PUSH2 0x1F30 DUP2 DUP6 PUSH2 0x1ECF JUMP JUMPDEST SWAP4 POP PUSH2 0x1F40 DUP2 DUP6 PUSH1 0x20 DUP7 ADD PUSH2 0x1EE0 JUMP JUMPDEST PUSH2 0x1F49 DUP2 PUSH2 0x1F0A JUMP JUMPDEST DUP5 ADD SWAP2 POP POP SWAP3 SWAP2 POP POP JUMP JUMPDEST PUSH1 0x0 PUSH1 0x20 DUP3 ADD SWAP1 POP DUP2 DUP2 SUB PUSH1 0x0 DUP4 ADD MSTORE PUSH2 0x1F6E DUP2 DUP5 PUSH2 0x1F1B JUMP JUMPDEST SWAP1 POP SWAP3 SWAP2 POP POP JUMP JUMPDEST PUSH1 0x0 DUP1 REVERT JUMPDEST PUSH1 0x0 PUSH20 0xFFFFFFFFFFFFFFFFFFFFFFFFFFFFFFFFFFFFFFFF DUP3 AND SWAP1 POP SWAP2 SWAP1 POP JUMP JUMPDEST PUSH1 0x0 PUSH2 0x1FA6 DUP3 PUSH2 0x1F7B JUMP JUMPDEST SWAP1 POP SWAP2 SWAP1 POP JUMP JUMPDEST PUSH2 0x1FB6 DUP2 PUSH2 0x1F9B JUMP JUMPDEST DUP2 EQ PUSH2 0x1FC1 JUMPI PUSH1 0x0 DUP1 REVERT JUMPDEST POP JUMP JUMPDEST PUSH1 0x0 DUP2 CALLDATALOAD SWAP1 POP PUSH2 0x1FD3 DUP2 PUSH2 0x1FAD JUMP JUMPDEST SWAP3 SWAP2 POP POP JUMP JUMPDEST PUSH1 0x0 DUP2 SWAP1 POP SWAP2 SWAP1 POP JUMP JUMPDEST PUSH2 0x1FEC DUP2 PUSH2 0x1FD9 JUMP JUMPDEST DUP2 EQ PUSH2 0x1FF7 JUMPI PUSH1 0x0 DUP1 REVERT JUMPDEST POP JUMP JUMPDEST PUSH1 0x0 DUP2 CALLDATALOAD SWAP1 POP PUSH2 0x2009 DUP2 PUSH2 0x1FE3 JUMP JUMPDEST SWAP3 SWAP2 POP POP JUMP JUMPDEST PUSH1 0x0 DUP1 PUSH1 0x40 DUP4 DUP6 SUB SLT ISZERO PUSH2 0x2026 JUMPI PUSH2 0x2025 PUSH2 0x1F76 JUMP JUMPDEST JUMPDEST PUSH1 0x0 PUSH2 0x2034 DUP6 DUP3 DUP7 ADD PUSH2 0x1FC4 JUMP JUMPDEST SWAP3 POP POP PUSH1 0x20 PUSH2 0x2045 DUP6 DUP3 DUP7 ADD PUSH2 0x1FFA JUMP JUMPDEST SWAP2 POP POP SWAP3 POP SWAP3 SWAP1 POP JUMP JUMPDEST PUSH1 0x0 DUP2 ISZERO ISZERO SWAP1 POP SWAP2 SWAP1 POP JUMP JUMPDEST PUSH2 0x2064 DUP2 PUSH2 0x204F JUMP JUMPDEST DUP3 MSTORE POP POP JUMP JUMPDEST PUSH1 0x0 PUSH1 0x20 DUP3 ADD SWAP1 POP PUSH2 0x207F PUSH1 0x0 DUP4 ADD DUP5 PUSH2 0x205B JUMP JUMPDEST SWAP3 SWAP2 POP POP JUMP JUMPDEST PUSH2 0x208E DUP2 PUSH2 0x1FD9 JUMP JUMPDEST DUP3 MSTORE POP POP JUMP JUMPDEST PUSH1 0x0 PUSH1 0x20 DUP3 ADD SWAP1 POP PUSH2 0x20A9 PUSH1 0x0 DUP4 ADD DUP5 PUSH2 0x2085 JUMP JUMPDEST SWAP3 SWAP2 POP POP JUMP JUMPDEST PUSH1 0x0 DUP1 PUSH1 0x0 PUSH1 0x60 DUP5 DUP7 SUB SLT ISZERO PUSH2 0x20C8 JUMPI PUSH2 0x20C7 PUSH2 0x1F76 JUMP JUMPDEST JUMPDEST PUSH1 0x0 PUSH2 0x20D6 DUP7 DUP3 DUP8 ADD PUSH2 0x1FC4 JUMP JUMPDEST SWAP4 POP POP PUSH1 0x20 PUSH2 0x20E7 DUP7 DUP3 DUP8 ADD PUSH2 0x1FC4 JUMP JUMPDEST SWAP3 POP POP PUSH1 0x40 PUSH2 0x20F8 DUP7 DUP3 DUP8 ADD PUSH2 0x1FFA JUMP JUMPDEST SWAP2 POP POP SWAP3 POP SWAP3 POP SWAP3 JUMP JUMPDEST PUSH1 0x0 PUSH1 0xFF DUP3 AND SWAP1 POP SWAP2 SWAP1 POP JUMP JUMPDEST PUSH2 0x2118 DUP2 PUSH2 0x2102 JUMP JUMPDEST DUP3 MSTORE POP POP JUMP JUMPDEST PUSH1 0x0 PUSH1 0x20 DUP3 ADD SWAP1 POP PUSH2 0x2133 PUSH1 0x0 DUP4 ADD DUP5 PUSH2 0x210F JUMP JUMPDEST SWAP3 SWAP2 POP POP JUMP JUMPDEST PUSH1 0x0 PUSH1 0x20 DUP3 DUP5 SUB SLT ISZERO PUSH2 0x214F JUMPI PUSH2 0x214E PUSH2 0x1F76 JUMP JUMPDEST JUMPDEST PUSH1 0x0 PUSH2 0x215D DUP5 DUP3 DUP6 ADD PUSH2 0x1FC4 JUMP JUMPDEST SWAP2 POP POP SWAP3 SWAP2 POP POP JUMP JUMPDEST PUSH1 0x0 DUP1 PUSH1 0x40 DUP4 DUP6 SUB SLT ISZERO PUSH2 0x217D JUMPI PUSH2 0x217C PUSH2 0x1F76 JUMP JUMPDEST JUMPDEST PUSH1 0x0 PUSH2 0x218B DUP6 DUP3 DUP7 ADD PUSH2 0x1FC4 JUMP JUMPDEST SWAP3 POP POP PUSH1 0x20 PUSH2 0x219C DUP6 DUP3 DUP7 ADD PUSH2 0x1FC4 JUMP JUMPDEST SWAP2 POP POP SWAP3 POP SWAP3 SWAP1 POP JUMP JUMPDEST PUSH32 0x4E487B7100000000000000000000000000000000000000000000000000000000 PUSH1 0x0 MSTORE PUSH1 0x22 PUSH1 0x4 MSTORE PUSH1 0x24 PUSH1 0x0 REVERT JUMPDEST PUSH1 0x0 PUSH1 0x2 DUP3 DIV SWAP1 POP PUSH1 0x1 DUP3 AND DUP1 PUSH2 0x21ED JUMPI PUSH1 0x7F DUP3 AND SWAP2 POP JUMPDEST PUSH1 0x20 DUP3 LT DUP2 SUB PUSH2 0x2200 JUMPI PUSH2 0x21FF PUSH2 0x21A6 JUMP JUMPDEST JUMPDEST POP SWAP2 SWAP1 POP JUMP JUMPDEST PUSH32 0x7A65726F20616464726573730000000000000000000000000000000000000000 PUSH1 0x0 DUP3 ADD MSTORE POP JUMP JUMPDEST PUSH1 0x0 PUSH2 0x223C PUSH1 0xC DUP4 PUSH2 0x1ECF JUMP JUMPDEST SWAP2 POP PUSH2 0x2247 DUP3 PUSH2 0x2206 JUMP JUMPDEST PUSH1 0x20 DUP3 ADD SWAP1 POP SWAP2 SWAP1 POP JUMP JUMPDEST PUSH1 0x0 PUSH1 0x20 DUP3 ADD SWAP1 POP DUP2 DUP2 SUB PUSH1 0x0 DUP4 ADD MSTORE PUSH2 0x226B DUP2 PUSH2 0x222F JUMP JUMPDEST SWAP1 POP SWAP2 SWAP1 POP JUMP JUMPDEST PUSH32 0x696E73756666696369656E742062616C616E6365000000000000000000000000 PUSH1 0x0 DUP3 ADD MSTORE POP JUMP JUMPDEST PUSH1 0x0 PUSH2 0x22A8 PUSH1 0x14 DUP4 PUSH2 0x1ECF JUMP JUMPDEST SWAP2 POP PUSH2 0x22B3 DUP3 PUSH2 0x2272 JUMP JUMPDEST PUSH1 0x20 DUP3 ADD SWAP1 POP SWAP2 SWAP1 POP JUMP JUMPDEST PUSH1 0x0 PUSH1 0x20 DUP3 ADD SWAP1 POP DUP2 DUP2 SUB PUSH1 0x0 DUP4 ADD MSTORE PUSH2 0x22D7 DUP2 PUSH2 0x229B JUMP JUMPDEST SWAP1 POP SWAP2 SWAP1 POP JUMP JUMPDEST PUSH32 0x4E487B7100000000000000000000000000000000000000000000000000000000 PUSH1 0x0 MSTORE PUSH1 0x11 PUSH1 0x4 MSTORE PUSH1 0x24 PUSH1 0x0 REVERT JUMPDEST PUSH1 0x0 PUSH2 0x2318 DUP3 PUSH2 0x1FD9 JUMP JUMPDEST SWAP2 POP PUSH2 0x2323 DUP4 PUSH2 0x1FD9 JUMP JUMPDEST SWAP3 POP DUP3 DUP3 SUB SWAP1 POP DUP2 DUP2 GT ISZERO PUSH2 0x233B JUMPI PUSH2 0x233A PUSH2 0x22DE JUMP JUMPDEST JUMPDEST SWAP3 SWAP2 POP POP JUMP JUMPDEST PUSH32 0x4E487B7100000000000000000000000000000000000000000000000000000000 PUSH1 0x0 MSTORE PUSH1 0x12 PUSH1 0x4 MSTORE PUSH1 0x24 PUSH1 0x0 REVERT JUMPDEST PUSH1 0x0 PUSH2 0x237B DUP3 PUSH2 0x1FD9 JUMP JUMPDEST SWAP2 POP PUSH2 0x2386 DUP4 PUSH2 0x1FD9 JUMP JUMPDEST SWAP3 POP DUP3 PUSH2 0x2396 JUMPI PUSH2 0x2395 PUSH2 0x2341 JUMP JUMPDEST JUMPDEST DUP3 DUP3 DIV SWAP1 POP SWAP3 SWAP2 POP POP JUMP JUMPDEST PUSH1 0x0 PUSH2 0x23AC DUP3 PUSH2 0x1FD9 JUMP JUMPDEST SWAP2 POP PUSH2 0x23B7 DUP4 PUSH2 0x1FD9 JUMP JUMPDEST SWAP3 POP DUP3 DUP3 MUL PUSH2 0x23C5 DUP2 PUSH2 0x1FD9 JUMP JUMPDEST SWAP2 POP DUP3 DUP3 DIV DUP5 EQ DUP4 ISZERO OR PUSH2 0x23DC JUMPI PUSH2 0x23DB PUSH2 0x22DE JUMP JUMPDEST JUMPDEST POP SWAP3 SWAP2 POP POP JUMP JUMPDEST PUSH1 0x0 PUSH2 0x23EE DUP3 PUSH2 0x1FD9 JUMP JUMPDEST SWAP2 POP PUSH2 0x23F9 DUP4 PUSH2 0x1FD9 JUMP JUMPDEST SWAP3 POP DUP3 DUP3 ADD SWAP1 POP DUP1 DUP3 GT ISZERO PUSH2 0x2411 JUMPI PUSH2 0x2410 PUSH2 0x22DE JUMP JUMPDEST JUMPDEST SWAP3 SWAP2 POP POP JUMP JUMPDEST PUSH32 0x7A65726F2061646472657373207C7C2064656372656173656420616C6C6F7761 PUSH1 0x0 DUP3 ADD MSTORE PUSH32 0x6E63652062656C6F77207A65726F000000000000000000000000000000000000 PUSH1 0x20 DUP3 ADD MSTORE POP JUMP JUMPDEST PUSH1 0x0 PUSH2 0x2473 PUSH1 0x2E DUP4 PUSH2 0x1ECF JUMP JUMPDEST SWAP2 POP PUSH2 0x247E DUP3 PUSH2 0x2417 JUMP JUMPDEST PUSH1 0x40 DUP3 ADD SWAP1 POP SWAP2 SWAP1 POP JUMP JUMPDEST PUSH1 0x0 PUSH1 0x20 DUP3 ADD SWAP1 POP DUP2 DUP2 SUB PUSH1 0x0 DUP4 ADD MSTORE PUSH2 0x24A2 DUP2 PUSH2 0x2466 JUMP JUMPDEST SWAP1 POP SWAP2 SWAP1 POP JUMP JUMPDEST PUSH32 0x7A65726F2061646472657373207C7C20696E73756666696369656E742062616C PUSH1 0x0 DUP3 ADD MSTORE PUSH32 0x616E636500000000000000000000000000000000000000000000000000000000 PUSH1 0x20 DUP3 ADD MSTORE POP JUMP JUMPDEST PUSH1 0x0 PUSH2 0x2505 PUSH1 0x24 DUP4 PUSH2 0x1ECF JUMP JUMPDEST SWAP2 POP PUSH2 0x2510 DUP3 PUSH2 0x24A9 JUMP JUMPDEST PUSH1 0x40 DUP3 ADD SWAP1 POP SWAP2 SWAP1 POP JUMP JUMPDEST PUSH1 0x0 PUSH1 0x20 DUP3 ADD SWAP1 POP DUP2 DUP2 SUB PUSH1 0x0 DUP4 ADD MSTORE PUSH2 0x2534 DUP2 PUSH2 0x24F8 JUMP JUMPDEST SWAP1 POP SWAP2 SWAP1 POP JUMP INVALID LOG2 PUSH5 0x6970667358 0x22 SLT KECCAK256 0xB1 PUSH22 0x412095023C4BDADCE3EB173C0C2F14BD95CAFBA8108F LOG0 PUSH17 0x67AA834407A64736F6C63430008120033 "
				},
				"gasEstimates": {
					"creation": {
						"codeDepositCost": "1917000",
						"executionCost": "infinite",
						"totalCost": "infinite"
					},
					"external": {
						"allowance(address,address)": "infinite",
						"approve(address,uint256)": "infinite",
						"balanceOf(address)": "2876",
						"decimals()": "2574",
						"decreaseAllowance(address,uint256)": "infinite",
						"increaseAllowance(address,uint256)": "infinite",
						"maxSupply()": "2531",
						"name()": "infinite",
						"symbol()": "infinite",
						"totalSupply()": "2488",
						"transfer(address,uint256)": "infinite",
						"transferFrom(address,address,uint256)": "infinite"
					},
					"internal": {
						"burn(address,uint256)": "infinite",
						"mint(address,uint256)": "infinite"
					}
				},
				"methodIdentifiers": {
					"allowance(address,address)": "dd62ed3e",
					"approve(address,uint256)": "095ea7b3",
					"balanceOf(address)": "70a08231",
					"decimals()": "313ce567",
					"decreaseAllowance(address,uint256)": "a457c2d7",
					"increaseAllowance(address,uint256)": "39509351",
					"maxSupply()": "d5abeb01",
					"name()": "06fdde03",
					"symbol()": "95d89b41",
					"totalSupply()": "18160ddd",
					"transfer(address,uint256)": "a9059cbb",
					"transferFrom(address,address,uint256)": "23b872dd"
				}
			},
			"storageLayout": {
				"storage": [
					{
						"astId": 21,
						"contract": "smart_contracts/contracts/token/Token.sol:Token",
						"label": "settings",
						"offset": 0,
						"slot": "0",
						"type": "t_struct(Settings)18_storage"
					},
					{
						"astId": 37,
						"contract": "smart_contracts/contracts/token/Token.sol:Token",
						"label": "meta",
						"offset": 0,
						"slot": "2",
						"type": "t_struct(Meta)34_storage"
					},
					{
						"astId": 41,
						"contract": "smart_contracts/contracts/token/Token.sol:Token",
						"label": "balance",
						"offset": 0,
						"slot": "8",
						"type": "t_mapping(t_address,t_uint256)"
					},
					{
						"astId": 47,
						"contract": "smart_contracts/contracts/token/Token.sol:Token",
						"label": "allowed",
						"offset": 0,
						"slot": "9",
						"type": "t_mapping(t_address,t_mapping(t_address,t_uint256))"
					}
				],
				"types": {
					"t_address": {
						"encoding": "inplace",
						"label": "address",
						"numberOfBytes": "20"
					},
					"t_mapping(t_address,t_mapping(t_address,t_uint256))": {
						"encoding": "mapping",
						"key": "t_address",
						"label": "mapping(address => mapping(address => uint256))",
						"numberOfBytes": "32",
						"value": "t_mapping(t_address,t_uint256)"
					},
					"t_mapping(t_address,t_uint256)": {
						"encoding": "mapping",
						"key": "t_address",
						"label": "mapping(address => uint256)",
						"numberOfBytes": "32",
						"value": "t_uint256"
					},
					"t_string_storage": {
						"encoding": "bytes",
						"label": "string",
						"numberOfBytes": "32"
					},
					"t_struct(Meta)34_storage": {
						"encoding": "inplace",
						"label": "struct TokenState.Meta",
						"members": [
							{
								"astId": 23,
								"contract": "smart_contracts/contracts/token/Token.sol:Token",
								"label": "name",
								"offset": 0,
								"slot": "0",
								"type": "t_string_storage"
							},
							{
								"astId": 25,
								"contract": "smart_contracts/contracts/token/Token.sol:Token",
								"label": "symbol",
								"offset": 0,
								"slot": "1",
								"type": "t_string_storage"
							},
							{
								"astId": 27,
								"contract": "smart_contracts/contracts/token/Token.sol:Token",
								"label": "decimals",
								"offset": 0,
								"slot": "2",
								"type": "t_uint8"
							},
							{
								"astId": 29,
								"contract": "smart_contracts/contracts/token/Token.sol:Token",
								"label": "totalSupply",
								"offset": 0,
								"slot": "3",
								"type": "t_uint256"
							},
							{
								"astId": 31,
								"contract": "smart_contracts/contracts/token/Token.sol:Token",
								"label": "maxSupply",
								"offset": 0,
								"slot": "4",
								"type": "t_uint256"
							},
							{
								"astId": 33,
								"contract": "smart_contracts/contracts/token/Token.sol:Token",
								"label": "bank",
								"offset": 0,
								"slot": "5",
								"type": "t_address"
							}
						],
						"numberOfBytes": "192"
					},
					"t_struct(Settings)18_storage": {
						"encoding": "inplace",
						"label": "struct TokenState.Settings",
						"members": [
							{
								"astId": 15,
								"contract": "smart_contracts/contracts/token/Token.sol:Token",
								"label": "bpTransferBurn",
								"offset": 0,
								"slot": "0",
								"type": "t_uint256"
							},
							{
								"astId": 17,
								"contract": "smart_contracts/contracts/token/Token.sol:Token",
								"label": "bpTransferBank",
								"offset": 0,
								"slot": "1",
								"type": "t_uint256"
							}
						],
						"numberOfBytes": "64"
					},
					"t_uint256": {
						"encoding": "inplace",
						"label": "uint256",
						"numberOfBytes": "32"
					},
					"t_uint8": {
						"encoding": "inplace",
						"label": "uint8",
						"numberOfBytes": "1"
					}
				}
			},
			"userdoc": {
				"kind": "user",
				"methods": {},
				"version": 1
			}
		}
	}
}