{
	"data": {
		"bytecode": {
			"linkReferences": {},
			"object": "60a06040527fffffffffffffffffffffffffffffffffffffffffffffffffffffffffffffffff6080908152503480156200003857600080fd5b50600060146000016000016000018190555060006014600001600301600001819055506000601460000160060160000181905550600060146000016009016000018190555060006014600001600c0160000181905550600060146000016000016001018190555060006014600001600301600101819055506000601460000160060160010181905550600060146000016009016001018190555060006014600001600c01600101819055506001601460000160000160020181905550600160146000016003016002018190555060066014600001600601600201819055506080516014600001600901600201819055506080516014600001600c01600201819055506040518060400160405280600c81526020017f447265616d6361746368657200000000000000000000000000000000000000008152506028600001908162000183919062000752565b506040518060400160405280600581526020017f445245414d00000000000000000000000000000000000000000000000000000081525060286001019081620001cd919062000752565b506012602860020160006101000a81548160ff021916908360ff1602179055506000602860040181905550602860020160009054906101000a900460ff16600a620002199190620009c9565b630bebc2006200022a919062000a1a565b602860090181905550602860090154602860030181905550336028600b0160006101000a81548173ffffffffffffffffffffffffffffffffffffffff021916908373ffffffffffffffffffffffffffffffffffffffff16021790555060006014601101819055506000601460120181905550600160146013016000018190555060016000803373ffffffffffffffffffffffffffffffffffffffff1673ffffffffffffffffffffffffffffffffffffffff16815260200190815260200160002060006101000a81548160ff021916908315150217905550620003696028600b0160009054906101000a900473ffffffffffffffffffffffffffffffffffffffff16602860020160009054906101000a900460ff16600a6200034c9190620009c9565b630bebc2006200035d919062000a1a565b6200037060201b60201c565b5062000b09565b60008060009050600083101580156200038e57506028600301548311155b8015620003c85750600073ffffffffffffffffffffffffffffffffffffffff168473ffffffffffffffffffffffffffffffffffffffff1614155b620003d257600080fd5b8260286003016000828254620003e9919062000a65565b9250508190555082603560008673ffffffffffffffffffffffffffffffffffffffff1673ffffffffffffffffffffffffffffffffffffffff168152602001908152602001600020600082825462000441919062000aa0565b92505081905583602860040160008282546200045e919062000aa0565b92505081905550508373ffffffffffffffffffffffffffffffffffffffff168173ffffffffffffffffffffffffffffffffffffffff167fddf252ad1be2c89b69c2b068fc378daa952ba7f163c4a11628f55a4df523b3ef85604051620004c5919062000aec565b60405180910390a3600191505092915050565b600081519050919050565b7f4e487b7100000000000000000000000000000000000000000000000000000000600052604160045260246000fd5b7f4e487b7100000000000000000000000000000000000000000000000000000000600052602260045260246000fd5b600060028204905060018216806200055a57607f821691505b60208210810362000570576200056f62000512565b5b50919050565b60008190508160005260206000209050919050565b60006020601f8301049050919050565b600082821b905092915050565b600060088302620005da7fffffffffffffffffffffffffffffffffffffffffffffffffffffffffffffffff826200059b565b620005e686836200059b565b95508019841693508086168417925050509392505050565b6000819050919050565b6000819050919050565b6000620006336200062d6200062784620005fe565b62000608565b620005fe565b9050919050565b6000819050919050565b6200064f8362000612565b620006676200065e826200063a565b848454620005a8565b825550505050565b600090565b6200067e6200066f565b6200068b81848462000644565b505050565b5b81811015620006b357620006a760008262000674565b60018101905062000691565b5050565b601f8211156200070257620006cc8162000576565b620006d7846200058b565b81016020851015620006e7578190505b620006ff620006f6856200058b565b83018262000690565b50505b505050565b600082821c905092915050565b6000620007276000198460080262000707565b1980831691505092915050565b600062000742838362000714565b9150826002028217905092915050565b6200075d82620004d8565b67ffffffffffffffff811115620007795762000778620004e3565b5b62000785825462000541565b62000792828285620006b7565b600060209050601f831160018114620007ca5760008415620007b5578287015190505b620007c1858262000734565b86555062000831565b601f198416620007da8662000576565b60005b828110156200080457848901518255600182019150602085019450602081019050620007dd565b8683101562000824578489015162000820601f89168262000714565b8355505b6001600288020188555050505b505050505050565b7f4e487b7100000000000000000000000000000000000000000000000000000000600052601160045260246000fd5b60008160011c9050919050565b6000808291508390505b6001851115620008c7578086048111156200089f576200089e62000839565b5b6001851615620008af5780820291505b8081029050620008bf8562000868565b94506200087f565b94509492505050565b600082620008e25760019050620009b5565b81620008f25760009050620009b5565b81600181146200090b576002811462000916576200094c565b6001915050620009b5565b60ff8411156200092b576200092a62000839565b5b8360020a91508482111562000945576200094462000839565b5b50620009b5565b5060208310610133831016604e8410600b8410161715620009865782820a90508381111562000980576200097f62000839565b5b620009b5565b62000995848484600162000875565b92509050818404811115620009af57620009ae62000839565b5b81810290505b9392505050565b600060ff82169050919050565b6000620009d682620005fe565b9150620009e383620009bc565b925062000a127fffffffffffffffffffffffffffffffffffffffffffffffffffffffffffffffff8484620008d0565b905092915050565b600062000a2782620005fe565b915062000a3483620005fe565b925082820262000a4481620005fe565b9150828204841483151762000a5e5762000a5d62000839565b5b5092915050565b600062000a7282620005fe565b915062000a7f83620005fe565b925082820390508181111562000a9a5762000a9962000839565b5b92915050565b600062000aad82620005fe565b915062000aba83620005fe565b925082820190508082111562000ad55762000ad462000839565b5b92915050565b62000ae681620005fe565b82525050565b600060208201905062000b03600083018462000adb565b92915050565b608051611b6f62000b2260003960005050611b6f6000f3fe608060405234801561001057600080fd5b50600436106101165760003560e01c806370a08231116100a2578063a694fc3a11610071578063a694fc3a1461031f578063a9059cbb1461034f578063d5abeb011461037f578063dd62ed3e1461039d578063f34e3723146103cd57610116565b806370a082311461028357806379ec5d3a146102b3578063817b1cd2146102e357806395d89b411461030157610116565b806318160ddd116100e957806318160ddd146101b757806323b872dd146101d55780632e17de7814610205578063313ce56714610235578063426233601461025357610116565b8063015af8ee1461011b57806306fdde031461014b578063095ea7b3146101695780630d15fd7714610199575b600080fd5b6101356004803603810190610130919061144f565b6103fd565b60405161014291906114aa565b60405180910390f35b610153610548565b6040516101609190611555565b60405180910390f35b610183600480360381019061017e91906115d5565b6105dd565b60405161019091906114aa565b60405180910390f35b6101a1610747565b6040516101ae9190611624565b60405180910390f35b6101bf610754565b6040516101cc9190611624565b60405180910390f35b6101ef60048036038101906101ea919061163f565b610761565b6040516101fc91906114aa565b60405180910390f35b61021f600480360381019061021a9190611692565b6108e6565b60405161022c91906114aa565b60405180910390f35b61023d610a7c565b60405161024a91906116db565b60405180910390f35b61026d600480360381019061026891906116f6565b610a96565b60405161027a9190611624565b60405180910390f35b61029d600480360381019061029891906116f6565b610adf565b6040516102aa9190611624565b60405180910390f35b6102cd60048036038101906102c891906116f6565b610b28565b6040516102da9190611624565b60405180910390f35b6102eb610b71565b6040516102f89190611624565b60405180910390f35b610309610b7e565b6040516103169190611555565b60405180910390f35b61033960048036038101906103349190611692565b610c13565b60405161034691906114aa565b60405180910390f35b610369600480360381019061036491906115d5565b610d5d565b60405161037691906114aa565b60405180910390f35b610387610d99565b6040516103949190611624565b60405180910390f35b6103b760048036038101906103b29190611723565b610da6565b6040516103c49190611624565b60405180910390f35b6103e760048036038101906103e29190611898565b610e2d565b6040516103f491906114aa565b60405180910390f35b600080339050600115156000808373ffffffffffffffffffffffffffffffffffffffff1673ffffffffffffffffffffffffffffffffffffffff16815260200190815260200160002060009054906101000a900460ff1615151480156104a1575042600f60008373ffffffffffffffffffffffffffffffffffffffff1673ffffffffffffffffffffffffffffffffffffffff1681526020019081526020016000205411155b6104e0576040517f08c379a00000000000000000000000000000000000000000000000000000000081526004016104d79061192d565b60405180910390fd5b60006014600f0154905060006014601001549050600086101580156105055750818611155b8015610512575060008510155b801561051e5750808511155b61052757600080fd5b85601460110181905550846014601201819055506001935050505092915050565b60606028600001805461055a9061197c565b80601f01602080910402602001604051908101604052809291908181526020018280546105869061197c565b80156105d35780601f106105a8576101008083540402835291602001916105d3565b820191906000526020600020905b8154815290600101906020018083116105b657829003601f168201915b5050505050905090565b600080339050600073ffffffffffffffffffffffffffffffffffffffff168173ffffffffffffffffffffffffffffffffffffffff161415801561064d5750600073ffffffffffffffffffffffffffffffffffffffff168473ffffffffffffffffffffffffffffffffffffffff1614155b61065657600080fd5b82603860008373ffffffffffffffffffffffffffffffffffffffff1673ffffffffffffffffffffffffffffffffffffffff16815260200190815260200160002060008673ffffffffffffffffffffffffffffffffffffffff1673ffffffffffffffffffffffffffffffffffffffff168152602001908152602001600020819055508373ffffffffffffffffffffffffffffffffffffffff168173ffffffffffffffffffffffffffffffffffffffff167f8c5be1e5ebec7d5bd14f71427d1e84f3dd0314c0f7b2291e5b200ac8c7c3b925856040516107349190611624565b60405180910390a3600191505092915050565b6000602860070154905090565b6000602860040154905090565b600080603860008673ffffffffffffffffffffffffffffffffffffffff1673ffffffffffffffffffffffffffffffffffffffff16815260200190815260200160002060003373ffffffffffffffffffffffffffffffffffffffff1673ffffffffffffffffffffffffffffffffffffffff1681526020019081526020016000205490507fffffffffffffffffffffffffffffffffffffffffffffffffffffffffffffffff81141580156108135750828110155b61081c57600080fd5b82603860008773ffffffffffffffffffffffffffffffffffffffff1673ffffffffffffffffffffffffffffffffffffffff16815260200190815260200160002060003373ffffffffffffffffffffffffffffffffffffffff1673ffffffffffffffffffffffffffffffffffffffff16815260200190815260200160002060008282546108a891906119dc565b9250508190555060006014601101549050600060146012015490506000806108d38989898787610fd8565b9150915081955050505050509392505050565b6000806028600b0160009054906101000a900473ffffffffffffffffffffffffffffffffffffffff16905060003390506000601460110154905060006014601201549050603660008473ffffffffffffffffffffffffffffffffffffffff1673ffffffffffffffffffffffffffffffffffffffff1681526020019081526020016000205486111561097657600080fd5b60008061098686868a8787610fd8565b9150915087603660008773ffffffffffffffffffffffffffffffffffffffff1673ffffffffffffffffffffffffffffffffffffffff16815260200190815260200160002060008282546109d991906119dc565b9250508190555087603760008773ffffffffffffffffffffffffffffffffffffffff1673ffffffffffffffffffffffffffffffffffffffff1681526020019081526020016000206000828254610a2f91906119dc565b925050819055508760286005016000828254610a4b91906119dc565b925050819055508760286007016000828254610a6791906119dc565b92505081905550819650505050505050919050565b6000602860020160009054906101000a900460ff16905090565b6000603660008373ffffffffffffffffffffffffffffffffffffffff1673ffffffffffffffffffffffffffffffffffffffff168152602001908152602001600020549050919050565b6000603560008373ffffffffffffffffffffffffffffffffffffffff1673ffffffffffffffffffffffffffffffffffffffff168152602001908152602001600020549050919050565b6000603760008373ffffffffffffffffffffffffffffffffffffffff1673ffffffffffffffffffffffffffffffffffffffff168152602001908152602001600020549050919050565b6000602860050154905090565b606060286001018054610b909061197c565b80601f0160208091040260200160405190810160405280929190818152602001828054610bbc9061197c565b8015610c095780601f10610bde57610100808354040283529160200191610c09565b820191906000526020600020905b815481529060010190602001808311610bec57829003601f168201915b5050505050905090565b60008033905060006028600b0160009054906101000a900473ffffffffffffffffffffffffffffffffffffffff1690506000601460110154905060006014601201549050600080610c6786868a8787610fd8565b9150915080603660008873ffffffffffffffffffffffffffffffffffffffff1673ffffffffffffffffffffffffffffffffffffffff1681526020019081526020016000206000828254610cba9190611a10565b9250508190555080603760008873ffffffffffffffffffffffffffffffffffffffff1673ffffffffffffffffffffffffffffffffffffffff1681526020019081526020016000206000828254610d109190611a10565b925050819055508060286005016000828254610d2c9190611a10565b925050819055508060286007016000828254610d489190611a10565b92505081905550819650505050505050919050565b6000803390506000601460110154905060006014601201549050600080610d878589898787610fd8565b91509150819550505050505092915050565b6000602860090154905090565b6000603860008473ffffffffffffffffffffffffffffffffffffffff1673ffffffffffffffffffffffffffffffffffffffff16815260200190815260200160002060008373ffffffffffffffffffffffffffffffffffffffff1673ffffffffffffffffffffffffffffffffffffffff16815260200190815260200160002054905092915050565b6000806028600b0160009054906101000a900473ffffffffffffffffffffffffffffffffffffffff16905060003390506000603460008373ffffffffffffffffffffffffffffffffffffffff1673ffffffffffffffffffffffffffffffffffffffff16815260200190815260200160002085604051610eac9190611a80565b90815260200160405180910390206003015490506000603460008473ffffffffffffffffffffffffffffffffffffffff1673ffffffffffffffffffffffffffffffffffffffff16815260200190815260200160002086604051610f0f9190611a80565b9081526020016040518091039020600401549050428210158015610f335750600081115b610f3c57600080fd5b6000601460110154905060006014601201549050600080610f608888878787610fd8565b915091506000603460008973ffffffffffffffffffffffffffffffffffffffff1673ffffffffffffffffffffffffffffffffffffffff1681526020019081526020016000208b604051610fb39190611a80565b9081526020016040518091039020600401819055508198505050505050505050919050565b600080600073ffffffffffffffffffffffffffffffffffffffff168773ffffffffffffffffffffffffffffffffffffffff16141580156110455750600073ffffffffffffffffffffffffffffffffffffffff168673ffffffffffffffffffffffffffffffffffffffff1614155b8015611090575084603560008973ffffffffffffffffffffffffffffffffffffffff1673ffffffffffffffffffffffffffffffffffffffff1681526020019081526020016000205410155b80156110dc57506000603560008973ffffffffffffffffffffffffffffffffffffffff1673ffffffffffffffffffffffffffffffffffffffff1681526020019081526020016000205410155b80156110e9575060008510155b6110f257600080fd5b84603560008973ffffffffffffffffffffffffffffffffffffffff1673ffffffffffffffffffffffffffffffffffffffff168152602001908152602001600020600082825461114191906119dc565b925050819055506000846103e8876111599190611ac6565b6111639190611af7565b90506000846103e8886111769190611ac6565b6111809190611af7565b9050600081836111909190611a10565b8861119b91906119dc565b905080603560008b73ffffffffffffffffffffffffffffffffffffffff1673ffffffffffffffffffffffffffffffffffffffff16815260200190815260200160002060008282546111ec9190611a10565b9250508190555081603560006028600b0160009054906101000a900473ffffffffffffffffffffffffffffffffffffffff1673ffffffffffffffffffffffffffffffffffffffff1673ffffffffffffffffffffffffffffffffffffffff16815260200190815260200160002060008282546112679190611a10565b92505081905550826028600401600082825461128391906119dc565b925050819055508873ffffffffffffffffffffffffffffffffffffffff168a73ffffffffffffffffffffffffffffffffffffffff167fddf252ad1be2c89b69c2b068fc378daa952ba7f163c4a11628f55a4df523b3ef836040516112e79190611624565b60405180910390a36000831461135e57600073ffffffffffffffffffffffffffffffffffffffff168a73ffffffffffffffffffffffffffffffffffffffff167fddf252ad1be2c89b69c2b068fc378daa952ba7f163c4a11628f55a4df523b3ef856040516113559190611624565b60405180910390a35b600082146113f1576028600b0160009054906101000a900473ffffffffffffffffffffffffffffffffffffffff1673ffffffffffffffffffffffffffffffffffffffff168a73ffffffffffffffffffffffffffffffffffffffff167fddf252ad1be2c89b69c2b068fc378daa952ba7f163c4a11628f55a4df523b3ef846040516113e89190611624565b60405180910390a35b600181945094505050509550959350505050565b6000604051905090565b600080fd5b600080fd5b6000819050919050565b61142c81611419565b811461143757600080fd5b50565b60008135905061144981611423565b92915050565b600080604083850312156114665761146561140f565b5b60006114748582860161143a565b92505060206114858582860161143a565b9150509250929050565b60008115159050919050565b6114a48161148f565b82525050565b60006020820190506114bf600083018461149b565b92915050565b600081519050919050565b600082825260208201905092915050565b60005b838110156114ff5780820151818401526020810190506114e4565b60008484015250505050565b6000601f19601f8301169050919050565b6000611527826114c5565b61153181856114d0565b93506115418185602086016114e1565b61154a8161150b565b840191505092915050565b6000602082019050818103600083015261156f818461151c565b905092915050565b600073ffffffffffffffffffffffffffffffffffffffff82169050919050565b60006115a282611577565b9050919050565b6115b281611597565b81146115bd57600080fd5b50565b6000813590506115cf816115a9565b92915050565b600080604083850312156115ec576115eb61140f565b5b60006115fa858286016115c0565b925050602061160b8582860161143a565b9150509250929050565b61161e81611419565b82525050565b60006020820190506116396000830184611615565b92915050565b6000806000606084860312156116585761165761140f565b5b6000611666868287016115c0565b9350506020611677868287016115c0565b92505060406116888682870161143a565b9150509250925092565b6000602082840312156116a8576116a761140f565b5b60006116b68482850161143a565b91505092915050565b600060ff82169050919050565b6116d5816116bf565b82525050565b60006020820190506116f060008301846116cc565b92915050565b60006020828403121561170c5761170b61140f565b5b600061171a848285016115c0565b91505092915050565b6000806040838503121561173a5761173961140f565b5b6000611748858286016115c0565b9250506020611759858286016115c0565b9150509250929050565b600080fd5b600080fd5b7f4e487b7100000000000000000000000000000000000000000000000000000000600052604160045260246000fd5b6117a58261150b565b810181811067ffffffffffffffff821117156117c4576117c361176d565b5b80604052505050565b60006117d7611405565b90506117e3828261179c565b919050565b600067ffffffffffffffff8211156118035761180261176d565b5b61180c8261150b565b9050602081019050919050565b82818337600083830152505050565b600061183b611836846117e8565b6117cd565b90508281526020810184848401111561185757611856611768565b5b611862848285611819565b509392505050565b600082601f83011261187f5761187e611763565b5b813561188f848260208601611828565b91505092915050565b6000602082840312156118ae576118ad61140f565b5b600082013567ffffffffffffffff8111156118cc576118cb611414565b5b6118d88482850161186a565b91505092915050565b7f6f6e6c7941646d696e0000000000000000000000000000000000000000000000600082015250565b60006119176009836114d0565b9150611922826118e1565b602082019050919050565b600060208201905081810360008301526119468161190a565b9050919050565b7f4e487b7100000000000000000000000000000000000000000000000000000000600052602260045260246000fd5b6000600282049050600182168061199457607f821691505b6020821081036119a7576119a661194d565b5b50919050565b7f4e487b7100000000000000000000000000000000000000000000000000000000600052601160045260246000fd5b60006119e782611419565b91506119f283611419565b9250828203905081811115611a0a57611a096119ad565b5b92915050565b6000611a1b82611419565b9150611a2683611419565b9250828201905080821115611a3e57611a3d6119ad565b5b92915050565b600081905092915050565b6000611a5a826114c5565b611a648185611a44565b9350611a748185602086016114e1565b80840191505092915050565b6000611a8c8284611a4f565b915081905092915050565b7f4e487b7100000000000000000000000000000000000000000000000000000000600052601260045260246000fd5b6000611ad182611419565b9150611adc83611419565b925082611aec57611aeb611a97565b5b828204905092915050565b6000611b0282611419565b9150611b0d83611419565b9250828202611b1b81611419565b91508282048414831517611b3257611b316119ad565b5b509291505056fea2646970667358221220b6a89c22cabc177c6adad6a82f01a575b80e99d79c8e7bd2edfaf187baed4b7564736f6c63430008120033",
			"opcodes": "PUSH1 0xA0 PUSH1 0x40 MSTORE PUSH32 0xFFFFFFFFFFFFFFFFFFFFFFFFFFFFFFFFFFFFFFFFFFFFFFFFFFFFFFFFFFFFFFFF PUSH1 0x80 SWAP1 DUP2 MSTORE POP CALLVALUE DUP1 ISZERO PUSH3 0x38 JUMPI PUSH1 0x0 DUP1 REVERT JUMPDEST POP PUSH1 0x0 PUSH1 0x14 PUSH1 0x0 ADD PUSH1 0x0 ADD PUSH1 0x0 ADD DUP2 SWAP1 SSTORE POP PUSH1 0x0 PUSH1 0x14 PUSH1 0x0 ADD PUSH1 0x3 ADD PUSH1 0x0 ADD DUP2 SWAP1 SSTORE POP PUSH1 0x0 PUSH1 0x14 PUSH1 0x0 ADD PUSH1 0x6 ADD PUSH1 0x0 ADD DUP2 SWAP1 SSTORE POP PUSH1 0x0 PUSH1 0x14 PUSH1 0x0 ADD PUSH1 0x9 ADD PUSH1 0x0 ADD DUP2 SWAP1 SSTORE POP PUSH1 0x0 PUSH1 0x14 PUSH1 0x0 ADD PUSH1 0xC ADD PUSH1 0x0 ADD DUP2 SWAP1 SSTORE POP PUSH1 0x0 PUSH1 0x14 PUSH1 0x0 ADD PUSH1 0x0 ADD PUSH1 0x1 ADD DUP2 SWAP1 SSTORE POP PUSH1 0x0 PUSH1 0x14 PUSH1 0x0 ADD PUSH1 0x3 ADD PUSH1 0x1 ADD DUP2 SWAP1 SSTORE POP PUSH1 0x0 PUSH1 0x14 PUSH1 0x0 ADD PUSH1 0x6 ADD PUSH1 0x1 ADD DUP2 SWAP1 SSTORE POP PUSH1 0x0 PUSH1 0x14 PUSH1 0x0 ADD PUSH1 0x9 ADD PUSH1 0x1 ADD DUP2 SWAP1 SSTORE POP PUSH1 0x0 PUSH1 0x14 PUSH1 0x0 ADD PUSH1 0xC ADD PUSH1 0x1 ADD DUP2 SWAP1 SSTORE POP PUSH1 0x1 PUSH1 0x14 PUSH1 0x0 ADD PUSH1 0x0 ADD PUSH1 0x2 ADD DUP2 SWAP1 SSTORE POP PUSH1 0x1 PUSH1 0x14 PUSH1 0x0 ADD PUSH1 0x3 ADD PUSH1 0x2 ADD DUP2 SWAP1 SSTORE POP PUSH1 0x6 PUSH1 0x14 PUSH1 0x0 ADD PUSH1 0x6 ADD PUSH1 0x2 ADD DUP2 SWAP1 SSTORE POP PUSH1 0x80 MLOAD PUSH1 0x14 PUSH1 0x0 ADD PUSH1 0x9 ADD PUSH1 0x2 ADD DUP2 SWAP1 SSTORE POP PUSH1 0x80 MLOAD PUSH1 0x14 PUSH1 0x0 ADD PUSH1 0xC ADD PUSH1 0x2 ADD DUP2 SWAP1 SSTORE POP PUSH1 0x40 MLOAD DUP1 PUSH1 0x40 ADD PUSH1 0x40 MSTORE DUP1 PUSH1 0xC DUP2 MSTORE PUSH1 0x20 ADD PUSH32 0x447265616D636174636865720000000000000000000000000000000000000000 DUP2 MSTORE POP PUSH1 0x28 PUSH1 0x0 ADD SWAP1 DUP2 PUSH3 0x183 SWAP2 SWAP1 PUSH3 0x752 JUMP JUMPDEST POP PUSH1 0x40 MLOAD DUP1 PUSH1 0x40 ADD PUSH1 0x40 MSTORE DUP1 PUSH1 0x5 DUP2 MSTORE PUSH1 0x20 ADD PUSH32 0x445245414D000000000000000000000000000000000000000000000000000000 DUP2 MSTORE POP PUSH1 0x28 PUSH1 0x1 ADD SWAP1 DUP2 PUSH3 0x1CD SWAP2 SWAP1 PUSH3 0x752 JUMP JUMPDEST POP PUSH1 0x12 PUSH1 0x28 PUSH1 0x2 ADD PUSH1 0x0 PUSH2 0x100 EXP DUP2 SLOAD DUP2 PUSH1 0xFF MUL NOT AND SWAP1 DUP4 PUSH1 0xFF AND MUL OR SWAP1 SSTORE POP PUSH1 0x0 PUSH1 0x28 PUSH1 0x4 ADD DUP2 SWAP1 SSTORE POP PUSH1 0x28 PUSH1 0x2 ADD PUSH1 0x0 SWAP1 SLOAD SWAP1 PUSH2 0x100 EXP SWAP1 DIV PUSH1 0xFF AND PUSH1 0xA PUSH3 0x219 SWAP2 SWAP1 PUSH3 0x9C9 JUMP JUMPDEST PUSH4 0xBEBC200 PUSH3 0x22A SWAP2 SWAP1 PUSH3 0xA1A JUMP JUMPDEST PUSH1 0x28 PUSH1 0x9 ADD DUP2 SWAP1 SSTORE POP PUSH1 0x28 PUSH1 0x9 ADD SLOAD PUSH1 0x28 PUSH1 0x3 ADD DUP2 SWAP1 SSTORE POP CALLER PUSH1 0x28 PUSH1 0xB ADD PUSH1 0x0 PUSH2 0x100 EXP DUP2 SLOAD DUP2 PUSH20 0xFFFFFFFFFFFFFFFFFFFFFFFFFFFFFFFFFFFFFFFF MUL NOT AND SWAP1 DUP4 PUSH20 0xFFFFFFFFFFFFFFFFFFFFFFFFFFFFFFFFFFFFFFFF AND MUL OR SWAP1 SSTORE POP PUSH1 0x0 PUSH1 0x14 PUSH1 0x11 ADD DUP2 SWAP1 SSTORE POP PUSH1 0x0 PUSH1 0x14 PUSH1 0x12 ADD DUP2 SWAP1 SSTORE POP PUSH1 0x1 PUSH1 0x14 PUSH1 0x13 ADD PUSH1 0x0 ADD DUP2 SWAP1 SSTORE POP PUSH1 0x1 PUSH1 0x0 DUP1 CALLER PUSH20 0xFFFFFFFFFFFFFFFFFFFFFFFFFFFFFFFFFFFFFFFF AND PUSH20 0xFFFFFFFFFFFFFFFFFFFFFFFFFFFFFFFFFFFFFFFF AND DUP2 MSTORE PUSH1 0x20 ADD SWAP1 DUP2 MSTORE PUSH1 0x20 ADD PUSH1 0x0 KECCAK256 PUSH1 0x0 PUSH2 0x100 EXP DUP2 SLOAD DUP2 PUSH1 0xFF MUL NOT AND SWAP1 DUP4 ISZERO ISZERO MUL OR SWAP1 SSTORE POP PUSH3 0x369 PUSH1 0x28 PUSH1 0xB ADD PUSH1 0x0 SWAP1 SLOAD SWAP1 PUSH2 0x100 EXP SWAP1 DIV PUSH20 0xFFFFFFFFFFFFFFFFFFFFFFFFFFFFFFFFFFFFFFFF AND PUSH1 0x28 PUSH1 0x2 ADD PUSH1 0x0 SWAP1 SLOAD SWAP1 PUSH2 0x100 EXP SWAP1 DIV PUSH1 0xFF AND PUSH1 0xA PUSH3 0x34C SWAP2 SWAP1 PUSH3 0x9C9 JUMP JUMPDEST PUSH4 0xBEBC200 PUSH3 0x35D SWAP2 SWAP1 PUSH3 0xA1A JUMP JUMPDEST PUSH3 0x370 PUSH1 0x20 SHL PUSH1 0x20 SHR JUMP JUMPDEST POP PUSH3 0xB09 JUMP JUMPDEST PUSH1 0x0 DUP1 PUSH1 0x0 SWAP1 POP PUSH1 0x0 DUP4 LT ISZERO DUP1 ISZERO PUSH3 0x38E JUMPI POP PUSH1 0x28 PUSH1 0x3 ADD SLOAD DUP4 GT ISZERO JUMPDEST DUP1 ISZERO PUSH3 0x3C8 JUMPI POP PUSH1 0x0 PUSH20 0xFFFFFFFFFFFFFFFFFFFFFFFFFFFFFFFFFFFFFFFF AND DUP5 PUSH20 0xFFFFFFFFFFFFFFFFFFFFFFFFFFFFFFFFFFFFFFFF AND EQ ISZERO JUMPDEST PUSH3 0x3D2 JUMPI PUSH1 0x0 DUP1 REVERT JUMPDEST DUP3 PUSH1 0x28 PUSH1 0x3 ADD PUSH1 0x0 DUP3 DUP3 SLOAD PUSH3 0x3E9 SWAP2 SWAP1 PUSH3 0xA65 JUMP JUMPDEST SWAP3 POP POP DUP2 SWAP1 SSTORE POP DUP3 PUSH1 0x35 PUSH1 0x0 DUP7 PUSH20 0xFFFFFFFFFFFFFFFFFFFFFFFFFFFFFFFFFFFFFFFF AND PUSH20 0xFFFFFFFFFFFFFFFFFFFFFFFFFFFFFFFFFFFFFFFF AND DUP2 MSTORE PUSH1 0x20 ADD SWAP1 DUP2 MSTORE PUSH1 0x20 ADD PUSH1 0x0 KECCAK256 PUSH1 0x0 DUP3 DUP3 SLOAD PUSH3 0x441 SWAP2 SWAP1 PUSH3 0xAA0 JUMP JUMPDEST SWAP3 POP POP DUP2 SWAP1 SSTORE DUP4 PUSH1 0x28 PUSH1 0x4 ADD PUSH1 0x0 DUP3 DUP3 SLOAD PUSH3 0x45E SWAP2 SWAP1 PUSH3 0xAA0 JUMP JUMPDEST SWAP3 POP POP DUP2 SWAP1 SSTORE POP POP DUP4 PUSH20 0xFFFFFFFFFFFFFFFFFFFFFFFFFFFFFFFFFFFFFFFF AND DUP2 PUSH20 0xFFFFFFFFFFFFFFFFFFFFFFFFFFFFFFFFFFFFFFFF AND PUSH32 0xDDF252AD1BE2C89B69C2B068FC378DAA952BA7F163C4A11628F55A4DF523B3EF DUP6 PUSH1 0x40 MLOAD PUSH3 0x4C5 SWAP2 SWAP1 PUSH3 0xAEC JUMP JUMPDEST PUSH1 0x40 MLOAD DUP1 SWAP2 SUB SWAP1 LOG3 PUSH1 0x1 SWAP2 POP POP SWAP3 SWAP2 POP POP JUMP JUMPDEST PUSH1 0x0 DUP2 MLOAD SWAP1 POP SWAP2 SWAP1 POP JUMP JUMPDEST PUSH32 0x4E487B7100000000000000000000000000000000000000000000000000000000 PUSH1 0x0 MSTORE PUSH1 0x41 PUSH1 0x4 MSTORE PUSH1 0x24 PUSH1 0x0 REVERT JUMPDEST PUSH32 0x4E487B7100000000000000000000000000000000000000000000000000000000 PUSH1 0x0 MSTORE PUSH1 0x22 PUSH1 0x4 MSTORE PUSH1 0x24 PUSH1 0x0 REVERT JUMPDEST PUSH1 0x0 PUSH1 0x2 DUP3 DIV SWAP1 POP PUSH1 0x1 DUP3 AND DUP1 PUSH3 0x55A JUMPI PUSH1 0x7F DUP3 AND SWAP2 POP JUMPDEST PUSH1 0x20 DUP3 LT DUP2 SUB PUSH3 0x570 JUMPI PUSH3 0x56F PUSH3 0x512 JUMP JUMPDEST JUMPDEST POP SWAP2 SWAP1 POP JUMP JUMPDEST PUSH1 0x0 DUP2 SWAP1 POP DUP2 PUSH1 0x0 MSTORE PUSH1 0x20 PUSH1 0x0 KECCAK256 SWAP1 POP SWAP2 SWAP1 POP JUMP JUMPDEST PUSH1 0x0 PUSH1 0x20 PUSH1 0x1F DUP4 ADD DIV SWAP1 POP SWAP2 SWAP1 POP JUMP JUMPDEST PUSH1 0x0 DUP3 DUP3 SHL SWAP1 POP SWAP3 SWAP2 POP POP JUMP JUMPDEST PUSH1 0x0 PUSH1 0x8 DUP4 MUL PUSH3 0x5DA PUSH32 0xFFFFFFFFFFFFFFFFFFFFFFFFFFFFFFFFFFFFFFFFFFFFFFFFFFFFFFFFFFFFFFFF DUP3 PUSH3 0x59B JUMP JUMPDEST PUSH3 0x5E6 DUP7 DUP4 PUSH3 0x59B JUMP JUMPDEST SWAP6 POP DUP1 NOT DUP5 AND SWAP4 POP DUP1 DUP7 AND DUP5 OR SWAP3 POP POP POP SWAP4 SWAP3 POP POP POP JUMP JUMPDEST PUSH1 0x0 DUP2 SWAP1 POP SWAP2 SWAP1 POP JUMP JUMPDEST PUSH1 0x0 DUP2 SWAP1 POP SWAP2 SWAP1 POP JUMP JUMPDEST PUSH1 0x0 PUSH3 0x633 PUSH3 0x62D PUSH3 0x627 DUP5 PUSH3 0x5FE JUMP JUMPDEST PUSH3 0x608 JUMP JUMPDEST PUSH3 0x5FE JUMP JUMPDEST SWAP1 POP SWAP2 SWAP1 POP JUMP JUMPDEST PUSH1 0x0 DUP2 SWAP1 POP SWAP2 SWAP1 POP JUMP JUMPDEST PUSH3 0x64F DUP4 PUSH3 0x612 JUMP JUMPDEST PUSH3 0x667 PUSH3 0x65E DUP3 PUSH3 0x63A JUMP JUMPDEST DUP5 DUP5 SLOAD PUSH3 0x5A8 JUMP JUMPDEST DUP3 SSTORE POP POP POP POP JUMP JUMPDEST PUSH1 0x0 SWAP1 JUMP JUMPDEST PUSH3 0x67E PUSH3 0x66F JUMP JUMPDEST PUSH3 0x68B DUP2 DUP5 DUP5 PUSH3 0x644 JUMP JUMPDEST POP POP POP JUMP JUMPDEST JUMPDEST DUP2 DUP2 LT ISZERO PUSH3 0x6B3 JUMPI PUSH3 0x6A7 PUSH1 0x0 DUP3 PUSH3 0x674 JUMP JUMPDEST PUSH1 0x1 DUP2 ADD SWAP1 POP PUSH3 0x691 JUMP JUMPDEST POP POP JUMP JUMPDEST PUSH1 0x1F DUP3 GT ISZERO PUSH3 0x702 JUMPI PUSH3 0x6CC DUP2 PUSH3 0x576 JUMP JUMPDEST PUSH3 0x6D7 DUP5 PUSH3 0x58B JUMP JUMPDEST DUP2 ADD PUSH1 0x20 DUP6 LT ISZERO PUSH3 0x6E7 JUMPI DUP2 SWAP1 POP JUMPDEST PUSH3 0x6FF PUSH3 0x6F6 DUP6 PUSH3 0x58B JUMP JUMPDEST DUP4 ADD DUP3 PUSH3 0x690 JUMP JUMPDEST POP POP JUMPDEST POP POP POP JUMP JUMPDEST PUSH1 0x0 DUP3 DUP3 SHR SWAP1 POP SWAP3 SWAP2 POP POP JUMP JUMPDEST PUSH1 0x0 PUSH3 0x727 PUSH1 0x0 NOT DUP5 PUSH1 0x8 MUL PUSH3 0x707 JUMP JUMPDEST NOT DUP1 DUP4 AND SWAP2 POP POP SWAP3 SWAP2 POP POP JUMP JUMPDEST PUSH1 0x0 PUSH3 0x742 DUP4 DUP4 PUSH3 0x714 JUMP JUMPDEST SWAP2 POP DUP3 PUSH1 0x2 MUL DUP3 OR SWAP1 POP SWAP3 SWAP2 POP POP JUMP JUMPDEST PUSH3 0x75D DUP3 PUSH3 0x4D8 JUMP JUMPDEST PUSH8 0xFFFFFFFFFFFFFFFF DUP2 GT ISZERO PUSH3 0x779 JUMPI PUSH3 0x778 PUSH3 0x4E3 JUMP JUMPDEST JUMPDEST PUSH3 0x785 DUP3 SLOAD PUSH3 0x541 JUMP JUMPDEST PUSH3 0x792 DUP3 DUP3 DUP6 PUSH3 0x6B7 JUMP JUMPDEST PUSH1 0x0 PUSH1 0x20 SWAP1 POP PUSH1 0x1F DUP4 GT PUSH1 0x1 DUP2 EQ PUSH3 0x7CA JUMPI PUSH1 0x0 DUP5 ISZERO PUSH3 0x7B5 JUMPI DUP3 DUP8 ADD MLOAD SWAP1 POP JUMPDEST PUSH3 0x7C1 DUP6 DUP3 PUSH3 0x734 JUMP JUMPDEST DUP7 SSTORE POP PUSH3 0x831 JUMP JUMPDEST PUSH1 0x1F NOT DUP5 AND PUSH3 0x7DA DUP7 PUSH3 0x576 JUMP JUMPDEST PUSH1 0x0 JUMPDEST DUP3 DUP2 LT ISZERO PUSH3 0x804 JUMPI DUP5 DUP10 ADD MLOAD DUP3 SSTORE PUSH1 0x1 DUP3 ADD SWAP2 POP PUSH1 0x20 DUP6 ADD SWAP5 POP PUSH1 0x20 DUP2 ADD SWAP1 POP PUSH3 0x7DD JUMP JUMPDEST DUP7 DUP4 LT ISZERO PUSH3 0x824 JUMPI DUP5 DUP10 ADD MLOAD PUSH3 0x820 PUSH1 0x1F DUP10 AND DUP3 PUSH3 0x714 JUMP JUMPDEST DUP4 SSTORE POP JUMPDEST PUSH1 0x1 PUSH1 0x2 DUP9 MUL ADD DUP9 SSTORE POP POP POP JUMPDEST POP POP POP POP POP POP JUMP JUMPDEST PUSH32 0x4E487B7100000000000000000000000000000000000000000000000000000000 PUSH1 0x0 MSTORE PUSH1 0x11 PUSH1 0x4 MSTORE PUSH1 0x24 PUSH1 0x0 REVERT JUMPDEST PUSH1 0x0 DUP2 PUSH1 0x1 SHR SWAP1 POP SWAP2 SWAP1 POP JUMP JUMPDEST PUSH1 0x0 DUP1 DUP3 SWAP2 POP DUP4 SWAP1 POP JUMPDEST PUSH1 0x1 DUP6 GT ISZERO PUSH3 0x8C7 JUMPI DUP1 DUP7 DIV DUP2 GT ISZERO PUSH3 0x89F JUMPI PUSH3 0x89E PUSH3 0x839 JUMP JUMPDEST JUMPDEST PUSH1 0x1 DUP6 AND ISZERO PUSH3 0x8AF JUMPI DUP1 DUP3 MUL SWAP2 POP JUMPDEST DUP1 DUP2 MUL SWAP1 POP PUSH3 0x8BF DUP6 PUSH3 0x868 JUMP JUMPDEST SWAP5 POP PUSH3 0x87F JUMP JUMPDEST SWAP5 POP SWAP5 SWAP3 POP POP POP JUMP JUMPDEST PUSH1 0x0 DUP3 PUSH3 0x8E2 JUMPI PUSH1 0x1 SWAP1 POP PUSH3 0x9B5 JUMP JUMPDEST DUP2 PUSH3 0x8F2 JUMPI PUSH1 0x0 SWAP1 POP PUSH3 0x9B5 JUMP JUMPDEST DUP2 PUSH1 0x1 DUP2 EQ PUSH3 0x90B JUMPI PUSH1 0x2 DUP2 EQ PUSH3 0x916 JUMPI PUSH3 0x94C JUMP JUMPDEST PUSH1 0x1 SWAP2 POP POP PUSH3 0x9B5 JUMP JUMPDEST PUSH1 0xFF DUP5 GT ISZERO PUSH3 0x92B JUMPI PUSH3 0x92A PUSH3 0x839 JUMP JUMPDEST JUMPDEST DUP4 PUSH1 0x2 EXP SWAP2 POP DUP5 DUP3 GT ISZERO PUSH3 0x945 JUMPI PUSH3 0x944 PUSH3 0x839 JUMP JUMPDEST JUMPDEST POP PUSH3 0x9B5 JUMP JUMPDEST POP PUSH1 0x20 DUP4 LT PUSH2 0x133 DUP4 LT AND PUSH1 0x4E DUP5 LT PUSH1 0xB DUP5 LT AND OR ISZERO PUSH3 0x986 JUMPI DUP3 DUP3 EXP SWAP1 POP DUP4 DUP2 GT ISZERO PUSH3 0x980 JUMPI PUSH3 0x97F PUSH3 0x839 JUMP JUMPDEST JUMPDEST PUSH3 0x9B5 JUMP JUMPDEST PUSH3 0x995 DUP5 DUP5 DUP5 PUSH1 0x1 PUSH3 0x875 JUMP JUMPDEST SWAP3 POP SWAP1 POP DUP2 DUP5 DIV DUP2 GT ISZERO PUSH3 0x9AF JUMPI PUSH3 0x9AE PUSH3 0x839 JUMP JUMPDEST JUMPDEST DUP2 DUP2 MUL SWAP1 POP JUMPDEST SWAP4 SWAP3 POP POP POP JUMP JUMPDEST PUSH1 0x0 PUSH1 0xFF DUP3 AND SWAP1 POP SWAP2 SWAP1 POP JUMP JUMPDEST PUSH1 0x0 PUSH3 0x9D6 DUP3 PUSH3 0x5FE JUMP JUMPDEST SWAP2 POP PUSH3 0x9E3 DUP4 PUSH3 0x9BC JUMP JUMPDEST SWAP3 POP PUSH3 0xA12 PUSH32 0xFFFFFFFFFFFFFFFFFFFFFFFFFFFFFFFFFFFFFFFFFFFFFFFFFFFFFFFFFFFFFFFF DUP5 DUP5 PUSH3 0x8D0 JUMP JUMPDEST SWAP1 POP SWAP3 SWAP2 POP POP JUMP JUMPDEST PUSH1 0x0 PUSH3 0xA27 DUP3 PUSH3 0x5FE JUMP JUMPDEST SWAP2 POP PUSH3 0xA34 DUP4 PUSH3 0x5FE JUMP JUMPDEST SWAP3 POP DUP3 DUP3 MUL PUSH3 0xA44 DUP2 PUSH3 0x5FE JUMP JUMPDEST SWAP2 POP DUP3 DUP3 DIV DUP5 EQ DUP4 ISZERO OR PUSH3 0xA5E JUMPI PUSH3 0xA5D PUSH3 0x839 JUMP JUMPDEST JUMPDEST POP SWAP3 SWAP2 POP POP JUMP JUMPDEST PUSH1 0x0 PUSH3 0xA72 DUP3 PUSH3 0x5FE JUMP JUMPDEST SWAP2 POP PUSH3 0xA7F DUP4 PUSH3 0x5FE JUMP JUMPDEST SWAP3 POP DUP3 DUP3 SUB SWAP1 POP DUP2 DUP2 GT ISZERO PUSH3 0xA9A JUMPI PUSH3 0xA99 PUSH3 0x839 JUMP JUMPDEST JUMPDEST SWAP3 SWAP2 POP POP JUMP JUMPDEST PUSH1 0x0 PUSH3 0xAAD DUP3 PUSH3 0x5FE JUMP JUMPDEST SWAP2 POP PUSH3 0xABA DUP4 PUSH3 0x5FE JUMP JUMPDEST SWAP3 POP DUP3 DUP3 ADD SWAP1 POP DUP1 DUP3 GT ISZERO PUSH3 0xAD5 JUMPI PUSH3 0xAD4 PUSH3 0x839 JUMP JUMPDEST JUMPDEST SWAP3 SWAP2 POP POP JUMP JUMPDEST PUSH3 0xAE6 DUP2 PUSH3 0x5FE JUMP JUMPDEST DUP3 MSTORE POP POP JUMP JUMPDEST PUSH1 0x0 PUSH1 0x20 DUP3 ADD SWAP1 POP PUSH3 0xB03 PUSH1 0x0 DUP4 ADD DUP5 PUSH3 0xADB JUMP JUMPDEST SWAP3 SWAP2 POP POP JUMP JUMPDEST PUSH1 0x80 MLOAD PUSH2 0x1B6F PUSH3 0xB22 PUSH1 0x0 CODECOPY PUSH1 0x0 POP POP PUSH2 0x1B6F PUSH1 0x0 RETURN INVALID PUSH1 0x80 PUSH1 0x40 MSTORE CALLVALUE DUP1 ISZERO PUSH2 0x10 JUMPI PUSH1 0x0 DUP1 REVERT JUMPDEST POP PUSH1 0x4 CALLDATASIZE LT PUSH2 0x116 JUMPI PUSH1 0x0 CALLDATALOAD PUSH1 0xE0 SHR DUP1 PUSH4 0x70A08231 GT PUSH2 0xA2 JUMPI DUP1 PUSH4 0xA694FC3A GT PUSH2 0x71 JUMPI DUP1 PUSH4 0xA694FC3A EQ PUSH2 0x31F JUMPI DUP1 PUSH4 0xA9059CBB EQ PUSH2 0x34F JUMPI DUP1 PUSH4 0xD5ABEB01 EQ PUSH2 0x37F JUMPI DUP1 PUSH4 0xDD62ED3E EQ PUSH2 0x39D JUMPI DUP1 PUSH4 0xF34E3723 EQ PUSH2 0x3CD JUMPI PUSH2 0x116 JUMP JUMPDEST DUP1 PUSH4 0x70A08231 EQ PUSH2 0x283 JUMPI DUP1 PUSH4 0x79EC5D3A EQ PUSH2 0x2B3 JUMPI DUP1 PUSH4 0x817B1CD2 EQ PUSH2 0x2E3 JUMPI DUP1 PUSH4 0x95D89B41 EQ PUSH2 0x301 JUMPI PUSH2 0x116 JUMP JUMPDEST DUP1 PUSH4 0x18160DDD GT PUSH2 0xE9 JUMPI DUP1 PUSH4 0x18160DDD EQ PUSH2 0x1B7 JUMPI DUP1 PUSH4 0x23B872DD EQ PUSH2 0x1D5 JUMPI DUP1 PUSH4 0x2E17DE78 EQ PUSH2 0x205 JUMPI DUP1 PUSH4 0x313CE567 EQ PUSH2 0x235 JUMPI DUP1 PUSH4 0x42623360 EQ PUSH2 0x253 JUMPI PUSH2 0x116 JUMP JUMPDEST DUP1 PUSH4 0x15AF8EE EQ PUSH2 0x11B JUMPI DUP1 PUSH4 0x6FDDE03 EQ PUSH2 0x14B JUMPI DUP1 PUSH4 0x95EA7B3 EQ PUSH2 0x169 JUMPI DUP1 PUSH4 0xD15FD77 EQ PUSH2 0x199 JUMPI JUMPDEST PUSH1 0x0 DUP1 REVERT JUMPDEST PUSH2 0x135 PUSH1 0x4 DUP1 CALLDATASIZE SUB DUP2 ADD SWAP1 PUSH2 0x130 SWAP2 SWAP1 PUSH2 0x144F JUMP JUMPDEST PUSH2 0x3FD JUMP JUMPDEST PUSH1 0x40 MLOAD PUSH2 0x142 SWAP2 SWAP1 PUSH2 0x14AA JUMP JUMPDEST PUSH1 0x40 MLOAD DUP1 SWAP2 SUB SWAP1 RETURN JUMPDEST PUSH2 0x153 PUSH2 0x548 JUMP JUMPDEST PUSH1 0x40 MLOAD PUSH2 0x160 SWAP2 SWAP1 PUSH2 0x1555 JUMP JUMPDEST PUSH1 0x40 MLOAD DUP1 SWAP2 SUB SWAP1 RETURN JUMPDEST PUSH2 0x183 PUSH1 0x4 DUP1 CALLDATASIZE SUB DUP2 ADD SWAP1 PUSH2 0x17E SWAP2 SWAP1 PUSH2 0x15D5 JUMP JUMPDEST PUSH2 0x5DD JUMP JUMPDEST PUSH1 0x40 MLOAD PUSH2 0x190 SWAP2 SWAP1 PUSH2 0x14AA JUMP JUMPDEST PUSH1 0x40 MLOAD DUP1 SWAP2 SUB SWAP1 RETURN JUMPDEST PUSH2 0x1A1 PUSH2 0x747 JUMP JUMPDEST PUSH1 0x40 MLOAD PUSH2 0x1AE SWAP2 SWAP1 PUSH2 0x1624 JUMP JUMPDEST PUSH1 0x40 MLOAD DUP1 SWAP2 SUB SWAP1 RETURN JUMPDEST PUSH2 0x1BF PUSH2 0x754 JUMP JUMPDEST PUSH1 0x40 MLOAD PUSH2 0x1CC SWAP2 SWAP1 PUSH2 0x1624 JUMP JUMPDEST PUSH1 0x40 MLOAD DUP1 SWAP2 SUB SWAP1 RETURN JUMPDEST PUSH2 0x1EF PUSH1 0x4 DUP1 CALLDATASIZE SUB DUP2 ADD SWAP1 PUSH2 0x1EA SWAP2 SWAP1 PUSH2 0x163F JUMP JUMPDEST PUSH2 0x761 JUMP JUMPDEST PUSH1 0x40 MLOAD PUSH2 0x1FC SWAP2 SWAP1 PUSH2 0x14AA JUMP JUMPDEST PUSH1 0x40 MLOAD DUP1 SWAP2 SUB SWAP1 RETURN JUMPDEST PUSH2 0x21F PUSH1 0x4 DUP1 CALLDATASIZE SUB DUP2 ADD SWAP1 PUSH2 0x21A SWAP2 SWAP1 PUSH2 0x1692 JUMP JUMPDEST PUSH2 0x8E6 JUMP JUMPDEST PUSH1 0x40 MLOAD PUSH2 0x22C SWAP2 SWAP1 PUSH2 0x14AA JUMP JUMPDEST PUSH1 0x40 MLOAD DUP1 SWAP2 SUB SWAP1 RETURN JUMPDEST PUSH2 0x23D PUSH2 0xA7C JUMP JUMPDEST PUSH1 0x40 MLOAD PUSH2 0x24A SWAP2 SWAP1 PUSH2 0x16DB JUMP JUMPDEST PUSH1 0x40 MLOAD DUP1 SWAP2 SUB SWAP1 RETURN JUMPDEST PUSH2 0x26D PUSH1 0x4 DUP1 CALLDATASIZE SUB DUP2 ADD SWAP1 PUSH2 0x268 SWAP2 SWAP1 PUSH2 0x16F6 JUMP JUMPDEST PUSH2 0xA96 JUMP JUMPDEST PUSH1 0x40 MLOAD PUSH2 0x27A SWAP2 SWAP1 PUSH2 0x1624 JUMP JUMPDEST PUSH1 0x40 MLOAD DUP1 SWAP2 SUB SWAP1 RETURN JUMPDEST PUSH2 0x29D PUSH1 0x4 DUP1 CALLDATASIZE SUB DUP2 ADD SWAP1 PUSH2 0x298 SWAP2 SWAP1 PUSH2 0x16F6 JUMP JUMPDEST PUSH2 0xADF JUMP JUMPDEST PUSH1 0x40 MLOAD PUSH2 0x2AA SWAP2 SWAP1 PUSH2 0x1624 JUMP JUMPDEST PUSH1 0x40 MLOAD DUP1 SWAP2 SUB SWAP1 RETURN JUMPDEST PUSH2 0x2CD PUSH1 0x4 DUP1 CALLDATASIZE SUB DUP2 ADD SWAP1 PUSH2 0x2C8 SWAP2 SWAP1 PUSH2 0x16F6 JUMP JUMPDEST PUSH2 0xB28 JUMP JUMPDEST PUSH1 0x40 MLOAD PUSH2 0x2DA SWAP2 SWAP1 PUSH2 0x1624 JUMP JUMPDEST PUSH1 0x40 MLOAD DUP1 SWAP2 SUB SWAP1 RETURN JUMPDEST PUSH2 0x2EB PUSH2 0xB71 JUMP JUMPDEST PUSH1 0x40 MLOAD PUSH2 0x2F8 SWAP2 SWAP1 PUSH2 0x1624 JUMP JUMPDEST PUSH1 0x40 MLOAD DUP1 SWAP2 SUB SWAP1 RETURN JUMPDEST PUSH2 0x309 PUSH2 0xB7E JUMP JUMPDEST PUSH1 0x40 MLOAD PUSH2 0x316 SWAP2 SWAP1 PUSH2 0x1555 JUMP JUMPDEST PUSH1 0x40 MLOAD DUP1 SWAP2 SUB SWAP1 RETURN JUMPDEST PUSH2 0x339 PUSH1 0x4 DUP1 CALLDATASIZE SUB DUP2 ADD SWAP1 PUSH2 0x334 SWAP2 SWAP1 PUSH2 0x1692 JUMP JUMPDEST PUSH2 0xC13 JUMP JUMPDEST PUSH1 0x40 MLOAD PUSH2 0x346 SWAP2 SWAP1 PUSH2 0x14AA JUMP JUMPDEST PUSH1 0x40 MLOAD DUP1 SWAP2 SUB SWAP1 RETURN JUMPDEST PUSH2 0x369 PUSH1 0x4 DUP1 CALLDATASIZE SUB DUP2 ADD SWAP1 PUSH2 0x364 SWAP2 SWAP1 PUSH2 0x15D5 JUMP JUMPDEST PUSH2 0xD5D JUMP JUMPDEST PUSH1 0x40 MLOAD PUSH2 0x376 SWAP2 SWAP1 PUSH2 0x14AA JUMP JUMPDEST PUSH1 0x40 MLOAD DUP1 SWAP2 SUB SWAP1 RETURN JUMPDEST PUSH2 0x387 PUSH2 0xD99 JUMP JUMPDEST PUSH1 0x40 MLOAD PUSH2 0x394 SWAP2 SWAP1 PUSH2 0x1624 JUMP JUMPDEST PUSH1 0x40 MLOAD DUP1 SWAP2 SUB SWAP1 RETURN JUMPDEST PUSH2 0x3B7 PUSH1 0x4 DUP1 CALLDATASIZE SUB DUP2 ADD SWAP1 PUSH2 0x3B2 SWAP2 SWAP1 PUSH2 0x1723 JUMP JUMPDEST PUSH2 0xDA6 JUMP JUMPDEST PUSH1 0x40 MLOAD PUSH2 0x3C4 SWAP2 SWAP1 PUSH2 0x1624 JUMP JUMPDEST PUSH1 0x40 MLOAD DUP1 SWAP2 SUB SWAP1 RETURN JUMPDEST PUSH2 0x3E7 PUSH1 0x4 DUP1 CALLDATASIZE SUB DUP2 ADD SWAP1 PUSH2 0x3E2 SWAP2 SWAP1 PUSH2 0x1898 JUMP JUMPDEST PUSH2 0xE2D JUMP JUMPDEST PUSH1 0x40 MLOAD PUSH2 0x3F4 SWAP2 SWAP1 PUSH2 0x14AA JUMP JUMPDEST PUSH1 0x40 MLOAD DUP1 SWAP2 SUB SWAP1 RETURN JUMPDEST PUSH1 0x0 DUP1 CALLER SWAP1 POP PUSH1 0x1 ISZERO ISZERO PUSH1 0x0 DUP1 DUP4 PUSH20 0xFFFFFFFFFFFFFFFFFFFFFFFFFFFFFFFFFFFFFFFF AND PUSH20 0xFFFFFFFFFFFFFFFFFFFFFFFFFFFFFFFFFFFFFFFF AND DUP2 MSTORE PUSH1 0x20 ADD SWAP1 DUP2 MSTORE PUSH1 0x20 ADD PUSH1 0x0 KECCAK256 PUSH1 0x0 SWAP1 SLOAD SWAP1 PUSH2 0x100 EXP SWAP1 DIV PUSH1 0xFF AND ISZERO ISZERO EQ DUP1 ISZERO PUSH2 0x4A1 JUMPI POP TIMESTAMP PUSH1 0xF PUSH1 0x0 DUP4 PUSH20 0xFFFFFFFFFFFFFFFFFFFFFFFFFFFFFFFFFFFFFFFF AND PUSH20 0xFFFFFFFFFFFFFFFFFFFFFFFFFFFFFFFFFFFFFFFF AND DUP2 MSTORE PUSH1 0x20 ADD SWAP1 DUP2 MSTORE PUSH1 0x20 ADD PUSH1 0x0 KECCAK256 SLOAD GT ISZERO JUMPDEST PUSH2 0x4E0 JUMPI PUSH1 0x40 MLOAD PUSH32 0x8C379A000000000000000000000000000000000000000000000000000000000 DUP2 MSTORE PUSH1 0x4 ADD PUSH2 0x4D7 SWAP1 PUSH2 0x192D JUMP JUMPDEST PUSH1 0x40 MLOAD DUP1 SWAP2 SUB SWAP1 REVERT JUMPDEST PUSH1 0x0 PUSH1 0x14 PUSH1 0xF ADD SLOAD SWAP1 POP PUSH1 0x0 PUSH1 0x14 PUSH1 0x10 ADD SLOAD SWAP1 POP PUSH1 0x0 DUP7 LT ISZERO DUP1 ISZERO PUSH2 0x505 JUMPI POP DUP2 DUP7 GT ISZERO JUMPDEST DUP1 ISZERO PUSH2 0x512 JUMPI POP PUSH1 0x0 DUP6 LT ISZERO JUMPDEST DUP1 ISZERO PUSH2 0x51E JUMPI POP DUP1 DUP6 GT ISZERO JUMPDEST PUSH2 0x527 JUMPI PUSH1 0x0 DUP1 REVERT JUMPDEST DUP6 PUSH1 0x14 PUSH1 0x11 ADD DUP2 SWAP1 SSTORE POP DUP5 PUSH1 0x14 PUSH1 0x12 ADD DUP2 SWAP1 SSTORE POP PUSH1 0x1 SWAP4 POP POP POP POP SWAP3 SWAP2 POP POP JUMP JUMPDEST PUSH1 0x60 PUSH1 0x28 PUSH1 0x0 ADD DUP1 SLOAD PUSH2 0x55A SWAP1 PUSH2 0x197C JUMP JUMPDEST DUP1 PUSH1 0x1F ADD PUSH1 0x20 DUP1 SWAP2 DIV MUL PUSH1 0x20 ADD PUSH1 0x40 MLOAD SWAP1 DUP2 ADD PUSH1 0x40 MSTORE DUP1 SWAP3 SWAP2 SWAP1 DUP2 DUP2 MSTORE PUSH1 0x20 ADD DUP3 DUP1 SLOAD PUSH2 0x586 SWAP1 PUSH2 0x197C JUMP JUMPDEST DUP1 ISZERO PUSH2 0x5D3 JUMPI DUP1 PUSH1 0x1F LT PUSH2 0x5A8 JUMPI PUSH2 0x100 DUP1 DUP4 SLOAD DIV MUL DUP4 MSTORE SWAP2 PUSH1 0x20 ADD SWAP2 PUSH2 0x5D3 JUMP JUMPDEST DUP3 ADD SWAP2 SWAP1 PUSH1 0x0 MSTORE PUSH1 0x20 PUSH1 0x0 KECCAK256 SWAP1 JUMPDEST DUP2 SLOAD DUP2 MSTORE SWAP1 PUSH1 0x1 ADD SWAP1 PUSH1 0x20 ADD DUP1 DUP4 GT PUSH2 0x5B6 JUMPI DUP3 SWAP1 SUB PUSH1 0x1F AND DUP3 ADD SWAP2 JUMPDEST POP POP POP POP POP SWAP1 POP SWAP1 JUMP JUMPDEST PUSH1 0x0 DUP1 CALLER SWAP1 POP PUSH1 0x0 PUSH20 0xFFFFFFFFFFFFFFFFFFFFFFFFFFFFFFFFFFFFFFFF AND DUP2 PUSH20 0xFFFFFFFFFFFFFFFFFFFFFFFFFFFFFFFFFFFFFFFF AND EQ ISZERO DUP1 ISZERO PUSH2 0x64D JUMPI POP PUSH1 0x0 PUSH20 0xFFFFFFFFFFFFFFFFFFFFFFFFFFFFFFFFFFFFFFFF AND DUP5 PUSH20 0xFFFFFFFFFFFFFFFFFFFFFFFFFFFFFFFFFFFFFFFF AND EQ ISZERO JUMPDEST PUSH2 0x656 JUMPI PUSH1 0x0 DUP1 REVERT JUMPDEST DUP3 PUSH1 0x38 PUSH1 0x0 DUP4 PUSH20 0xFFFFFFFFFFFFFFFFFFFFFFFFFFFFFFFFFFFFFFFF AND PUSH20 0xFFFFFFFFFFFFFFFFFFFFFFFFFFFFFFFFFFFFFFFF AND DUP2 MSTORE PUSH1 0x20 ADD SWAP1 DUP2 MSTORE PUSH1 0x20 ADD PUSH1 0x0 KECCAK256 PUSH1 0x0 DUP7 PUSH20 0xFFFFFFFFFFFFFFFFFFFFFFFFFFFFFFFFFFFFFFFF AND PUSH20 0xFFFFFFFFFFFFFFFFFFFFFFFFFFFFFFFFFFFFFFFF AND DUP2 MSTORE PUSH1 0x20 ADD SWAP1 DUP2 MSTORE PUSH1 0x20 ADD PUSH1 0x0 KECCAK256 DUP2 SWAP1 SSTORE POP DUP4 PUSH20 0xFFFFFFFFFFFFFFFFFFFFFFFFFFFFFFFFFFFFFFFF AND DUP2 PUSH20 0xFFFFFFFFFFFFFFFFFFFFFFFFFFFFFFFFFFFFFFFF AND PUSH32 0x8C5BE1E5EBEC7D5BD14F71427D1E84F3DD0314C0F7B2291E5B200AC8C7C3B925 DUP6 PUSH1 0x40 MLOAD PUSH2 0x734 SWAP2 SWAP1 PUSH2 0x1624 JUMP JUMPDEST PUSH1 0x40 MLOAD DUP1 SWAP2 SUB SWAP1 LOG3 PUSH1 0x1 SWAP2 POP POP SWAP3 SWAP2 POP POP JUMP JUMPDEST PUSH1 0x0 PUSH1 0x28 PUSH1 0x7 ADD SLOAD SWAP1 POP SWAP1 JUMP JUMPDEST PUSH1 0x0 PUSH1 0x28 PUSH1 0x4 ADD SLOAD SWAP1 POP SWAP1 JUMP JUMPDEST PUSH1 0x0 DUP1 PUSH1 0x38 PUSH1 0x0 DUP7 PUSH20 0xFFFFFFFFFFFFFFFFFFFFFFFFFFFFFFFFFFFFFFFF AND PUSH20 0xFFFFFFFFFFFFFFFFFFFFFFFFFFFFFFFFFFFFFFFF AND DUP2 MSTORE PUSH1 0x20 ADD SWAP1 DUP2 MSTORE PUSH1 0x20 ADD PUSH1 0x0 KECCAK256 PUSH1 0x0 CALLER PUSH20 0xFFFFFFFFFFFFFFFFFFFFFFFFFFFFFFFFFFFFFFFF AND PUSH20 0xFFFFFFFFFFFFFFFFFFFFFFFFFFFFFFFFFFFFFFFF AND DUP2 MSTORE PUSH1 0x20 ADD SWAP1 DUP2 MSTORE PUSH1 0x20 ADD PUSH1 0x0 KECCAK256 SLOAD SWAP1 POP PUSH32 0xFFFFFFFFFFFFFFFFFFFFFFFFFFFFFFFFFFFFFFFFFFFFFFFFFFFFFFFFFFFFFFFF DUP2 EQ ISZERO DUP1 ISZERO PUSH2 0x813 JUMPI POP DUP3 DUP2 LT ISZERO JUMPDEST PUSH2 0x81C JUMPI PUSH1 0x0 DUP1 REVERT JUMPDEST DUP3 PUSH1 0x38 PUSH1 0x0 DUP8 PUSH20 0xFFFFFFFFFFFFFFFFFFFFFFFFFFFFFFFFFFFFFFFF AND PUSH20 0xFFFFFFFFFFFFFFFFFFFFFFFFFFFFFFFFFFFFFFFF AND DUP2 MSTORE PUSH1 0x20 ADD SWAP1 DUP2 MSTORE PUSH1 0x20 ADD PUSH1 0x0 KECCAK256 PUSH1 0x0 CALLER PUSH20 0xFFFFFFFFFFFFFFFFFFFFFFFFFFFFFFFFFFFFFFFF AND PUSH20 0xFFFFFFFFFFFFFFFFFFFFFFFFFFFFFFFFFFFFFFFF AND DUP2 MSTORE PUSH1 0x20 ADD SWAP1 DUP2 MSTORE PUSH1 0x20 ADD PUSH1 0x0 KECCAK256 PUSH1 0x0 DUP3 DUP3 SLOAD PUSH2 0x8A8 SWAP2 SWAP1 PUSH2 0x19DC JUMP JUMPDEST SWAP3 POP POP DUP2 SWAP1 SSTORE POP PUSH1 0x0 PUSH1 0x14 PUSH1 0x11 ADD SLOAD SWAP1 POP PUSH1 0x0 PUSH1 0x14 PUSH1 0x12 ADD SLOAD SWAP1 POP PUSH1 0x0 DUP1 PUSH2 0x8D3 DUP10 DUP10 DUP10 DUP8 DUP8 PUSH2 0xFD8 JUMP JUMPDEST SWAP2 POP SWAP2 POP DUP2 SWAP6 POP POP POP POP POP POP SWAP4 SWAP3 POP POP POP JUMP JUMPDEST PUSH1 0x0 DUP1 PUSH1 0x28 PUSH1 0xB ADD PUSH1 0x0 SWAP1 SLOAD SWAP1 PUSH2 0x100 EXP SWAP1 DIV PUSH20 0xFFFFFFFFFFFFFFFFFFFFFFFFFFFFFFFFFFFFFFFF AND SWAP1 POP PUSH1 0x0 CALLER SWAP1 POP PUSH1 0x0 PUSH1 0x14 PUSH1 0x11 ADD SLOAD SWAP1 POP PUSH1 0x0 PUSH1 0x14 PUSH1 0x12 ADD SLOAD SWAP1 POP PUSH1 0x36 PUSH1 0x0 DUP5 PUSH20 0xFFFFFFFFFFFFFFFFFFFFFFFFFFFFFFFFFFFFFFFF AND PUSH20 0xFFFFFFFFFFFFFFFFFFFFFFFFFFFFFFFFFFFFFFFF AND DUP2 MSTORE PUSH1 0x20 ADD SWAP1 DUP2 MSTORE PUSH1 0x20 ADD PUSH1 0x0 KECCAK256 SLOAD DUP7 GT ISZERO PUSH2 0x976 JUMPI PUSH1 0x0 DUP1 REVERT JUMPDEST PUSH1 0x0 DUP1 PUSH2 0x986 DUP7 DUP7 DUP11 DUP8 DUP8 PUSH2 0xFD8 JUMP JUMPDEST SWAP2 POP SWAP2 POP DUP8 PUSH1 0x36 PUSH1 0x0 DUP8 PUSH20 0xFFFFFFFFFFFFFFFFFFFFFFFFFFFFFFFFFFFFFFFF AND PUSH20 0xFFFFFFFFFFFFFFFFFFFFFFFFFFFFFFFFFFFFFFFF AND DUP2 MSTORE PUSH1 0x20 ADD SWAP1 DUP2 MSTORE PUSH1 0x20 ADD PUSH1 0x0 KECCAK256 PUSH1 0x0 DUP3 DUP3 SLOAD PUSH2 0x9D9 SWAP2 SWAP1 PUSH2 0x19DC JUMP JUMPDEST SWAP3 POP POP DUP2 SWAP1 SSTORE POP DUP8 PUSH1 0x37 PUSH1 0x0 DUP8 PUSH20 0xFFFFFFFFFFFFFFFFFFFFFFFFFFFFFFFFFFFFFFFF AND PUSH20 0xFFFFFFFFFFFFFFFFFFFFFFFFFFFFFFFFFFFFFFFF AND DUP2 MSTORE PUSH1 0x20 ADD SWAP1 DUP2 MSTORE PUSH1 0x20 ADD PUSH1 0x0 KECCAK256 PUSH1 0x0 DUP3 DUP3 SLOAD PUSH2 0xA2F SWAP2 SWAP1 PUSH2 0x19DC JUMP JUMPDEST SWAP3 POP POP DUP2 SWAP1 SSTORE POP DUP8 PUSH1 0x28 PUSH1 0x5 ADD PUSH1 0x0 DUP3 DUP3 SLOAD PUSH2 0xA4B SWAP2 SWAP1 PUSH2 0x19DC JUMP JUMPDEST SWAP3 POP POP DUP2 SWAP1 SSTORE POP DUP8 PUSH1 0x28 PUSH1 0x7 ADD PUSH1 0x0 DUP3 DUP3 SLOAD PUSH2 0xA67 SWAP2 SWAP1 PUSH2 0x19DC JUMP JUMPDEST SWAP3 POP POP DUP2 SWAP1 SSTORE POP DUP2 SWAP7 POP POP POP POP POP POP POP SWAP2 SWAP1 POP JUMP JUMPDEST PUSH1 0x0 PUSH1 0x28 PUSH1 0x2 ADD PUSH1 0x0 SWAP1 SLOAD SWAP1 PUSH2 0x100 EXP SWAP1 DIV PUSH1 0xFF AND SWAP1 POP SWAP1 JUMP JUMPDEST PUSH1 0x0 PUSH1 0x36 PUSH1 0x0 DUP4 PUSH20 0xFFFFFFFFFFFFFFFFFFFFFFFFFFFFFFFFFFFFFFFF AND PUSH20 0xFFFFFFFFFFFFFFFFFFFFFFFFFFFFFFFFFFFFFFFF AND DUP2 MSTORE PUSH1 0x20 ADD SWAP1 DUP2 MSTORE PUSH1 0x20 ADD PUSH1 0x0 KECCAK256 SLOAD SWAP1 POP SWAP2 SWAP1 POP JUMP JUMPDEST PUSH1 0x0 PUSH1 0x35 PUSH1 0x0 DUP4 PUSH20 0xFFFFFFFFFFFFFFFFFFFFFFFFFFFFFFFFFFFFFFFF AND PUSH20 0xFFFFFFFFFFFFFFFFFFFFFFFFFFFFFFFFFFFFFFFF AND DUP2 MSTORE PUSH1 0x20 ADD SWAP1 DUP2 MSTORE PUSH1 0x20 ADD PUSH1 0x0 KECCAK256 SLOAD SWAP1 POP SWAP2 SWAP1 POP JUMP JUMPDEST PUSH1 0x0 PUSH1 0x37 PUSH1 0x0 DUP4 PUSH20 0xFFFFFFFFFFFFFFFFFFFFFFFFFFFFFFFFFFFFFFFF AND PUSH20 0xFFFFFFFFFFFFFFFFFFFFFFFFFFFFFFFFFFFFFFFF AND DUP2 MSTORE PUSH1 0x20 ADD SWAP1 DUP2 MSTORE PUSH1 0x20 ADD PUSH1 0x0 KECCAK256 SLOAD SWAP1 POP SWAP2 SWAP1 POP JUMP JUMPDEST PUSH1 0x0 PUSH1 0x28 PUSH1 0x5 ADD SLOAD SWAP1 POP SWAP1 JUMP JUMPDEST PUSH1 0x60 PUSH1 0x28 PUSH1 0x1 ADD DUP1 SLOAD PUSH2 0xB90 SWAP1 PUSH2 0x197C JUMP JUMPDEST DUP1 PUSH1 0x1F ADD PUSH1 0x20 DUP1 SWAP2 DIV MUL PUSH1 0x20 ADD PUSH1 0x40 MLOAD SWAP1 DUP2 ADD PUSH1 0x40 MSTORE DUP1 SWAP3 SWAP2 SWAP1 DUP2 DUP2 MSTORE PUSH1 0x20 ADD DUP3 DUP1 SLOAD PUSH2 0xBBC SWAP1 PUSH2 0x197C JUMP JUMPDEST DUP1 ISZERO PUSH2 0xC09 JUMPI DUP1 PUSH1 0x1F LT PUSH2 0xBDE JUMPI PUSH2 0x100 DUP1 DUP4 SLOAD DIV MUL DUP4 MSTORE SWAP2 PUSH1 0x20 ADD SWAP2 PUSH2 0xC09 JUMP JUMPDEST DUP3 ADD SWAP2 SWAP1 PUSH1 0x0 MSTORE PUSH1 0x20 PUSH1 0x0 KECCAK256 SWAP1 JUMPDEST DUP2 SLOAD DUP2 MSTORE SWAP1 PUSH1 0x1 ADD SWAP1 PUSH1 0x20 ADD DUP1 DUP4 GT PUSH2 0xBEC JUMPI DUP3 SWAP1 SUB PUSH1 0x1F AND DUP3 ADD SWAP2 JUMPDEST POP POP POP POP POP SWAP1 POP SWAP1 JUMP JUMPDEST PUSH1 0x0 DUP1 CALLER SWAP1 POP PUSH1 0x0 PUSH1 0x28 PUSH1 0xB ADD PUSH1 0x0 SWAP1 SLOAD SWAP1 PUSH2 0x100 EXP SWAP1 DIV PUSH20 0xFFFFFFFFFFFFFFFFFFFFFFFFFFFFFFFFFFFFFFFF AND SWAP1 POP PUSH1 0x0 PUSH1 0x14 PUSH1 0x11 ADD SLOAD SWAP1 POP PUSH1 0x0 PUSH1 0x14 PUSH1 0x12 ADD SLOAD SWAP1 POP PUSH1 0x0 DUP1 PUSH2 0xC67 DUP7 DUP7 DUP11 DUP8 DUP8 PUSH2 0xFD8 JUMP JUMPDEST SWAP2 POP SWAP2 POP DUP1 PUSH1 0x36 PUSH1 0x0 DUP9 PUSH20 0xFFFFFFFFFFFFFFFFFFFFFFFFFFFFFFFFFFFFFFFF AND PUSH20 0xFFFFFFFFFFFFFFFFFFFFFFFFFFFFFFFFFFFFFFFF AND DUP2 MSTORE PUSH1 0x20 ADD SWAP1 DUP2 MSTORE PUSH1 0x20 ADD PUSH1 0x0 KECCAK256 PUSH1 0x0 DUP3 DUP3 SLOAD PUSH2 0xCBA SWAP2 SWAP1 PUSH2 0x1A10 JUMP JUMPDEST SWAP3 POP POP DUP2 SWAP1 SSTORE POP DUP1 PUSH1 0x37 PUSH1 0x0 DUP9 PUSH20 0xFFFFFFFFFFFFFFFFFFFFFFFFFFFFFFFFFFFFFFFF AND PUSH20 0xFFFFFFFFFFFFFFFFFFFFFFFFFFFFFFFFFFFFFFFF AND DUP2 MSTORE PUSH1 0x20 ADD SWAP1 DUP2 MSTORE PUSH1 0x20 ADD PUSH1 0x0 KECCAK256 PUSH1 0x0 DUP3 DUP3 SLOAD PUSH2 0xD10 SWAP2 SWAP1 PUSH2 0x1A10 JUMP JUMPDEST SWAP3 POP POP DUP2 SWAP1 SSTORE POP DUP1 PUSH1 0x28 PUSH1 0x5 ADD PUSH1 0x0 DUP3 DUP3 SLOAD PUSH2 0xD2C SWAP2 SWAP1 PUSH2 0x1A10 JUMP JUMPDEST SWAP3 POP POP DUP2 SWAP1 SSTORE POP DUP1 PUSH1 0x28 PUSH1 0x7 ADD PUSH1 0x0 DUP3 DUP3 SLOAD PUSH2 0xD48 SWAP2 SWAP1 PUSH2 0x1A10 JUMP JUMPDEST SWAP3 POP POP DUP2 SWAP1 SSTORE POP DUP2 SWAP7 POP POP POP POP POP POP POP SWAP2 SWAP1 POP JUMP JUMPDEST PUSH1 0x0 DUP1 CALLER SWAP1 POP PUSH1 0x0 PUSH1 0x14 PUSH1 0x11 ADD SLOAD SWAP1 POP PUSH1 0x0 PUSH1 0x14 PUSH1 0x12 ADD SLOAD SWAP1 POP PUSH1 0x0 DUP1 PUSH2 0xD87 DUP6 DUP10 DUP10 DUP8 DUP8 PUSH2 0xFD8 JUMP JUMPDEST SWAP2 POP SWAP2 POP DUP2 SWAP6 POP POP POP POP POP POP SWAP3 SWAP2 POP POP JUMP JUMPDEST PUSH1 0x0 PUSH1 0x28 PUSH1 0x9 ADD SLOAD SWAP1 POP SWAP1 JUMP JUMPDEST PUSH1 0x0 PUSH1 0x38 PUSH1 0x0 DUP5 PUSH20 0xFFFFFFFFFFFFFFFFFFFFFFFFFFFFFFFFFFFFFFFF AND PUSH20 0xFFFFFFFFFFFFFFFFFFFFFFFFFFFFFFFFFFFFFFFF AND DUP2 MSTORE PUSH1 0x20 ADD SWAP1 DUP2 MSTORE PUSH1 0x20 ADD PUSH1 0x0 KECCAK256 PUSH1 0x0 DUP4 PUSH20 0xFFFFFFFFFFFFFFFFFFFFFFFFFFFFFFFFFFFFFFFF AND PUSH20 0xFFFFFFFFFFFFFFFFFFFFFFFFFFFFFFFFFFFFFFFF AND DUP2 MSTORE PUSH1 0x20 ADD SWAP1 DUP2 MSTORE PUSH1 0x20 ADD PUSH1 0x0 KECCAK256 SLOAD SWAP1 POP SWAP3 SWAP2 POP POP JUMP JUMPDEST PUSH1 0x0 DUP1 PUSH1 0x28 PUSH1 0xB ADD PUSH1 0x0 SWAP1 SLOAD SWAP1 PUSH2 0x100 EXP SWAP1 DIV PUSH20 0xFFFFFFFFFFFFFFFFFFFFFFFFFFFFFFFFFFFFFFFF AND SWAP1 POP PUSH1 0x0 CALLER SWAP1 POP PUSH1 0x0 PUSH1 0x34 PUSH1 0x0 DUP4 PUSH20 0xFFFFFFFFFFFFFFFFFFFFFFFFFFFFFFFFFFFFFFFF AND PUSH20 0xFFFFFFFFFFFFFFFFFFFFFFFFFFFFFFFFFFFFFFFF AND DUP2 MSTORE PUSH1 0x20 ADD SWAP1 DUP2 MSTORE PUSH1 0x20 ADD PUSH1 0x0 KECCAK256 DUP6 PUSH1 0x40 MLOAD PUSH2 0xEAC SWAP2 SWAP1 PUSH2 0x1A80 JUMP JUMPDEST SWAP1 DUP2 MSTORE PUSH1 0x20 ADD PUSH1 0x40 MLOAD DUP1 SWAP2 SUB SWAP1 KECCAK256 PUSH1 0x3 ADD SLOAD SWAP1 POP PUSH1 0x0 PUSH1 0x34 PUSH1 0x0 DUP5 PUSH20 0xFFFFFFFFFFFFFFFFFFFFFFFFFFFFFFFFFFFFFFFF AND PUSH20 0xFFFFFFFFFFFFFFFFFFFFFFFFFFFFFFFFFFFFFFFF AND DUP2 MSTORE PUSH1 0x20 ADD SWAP1 DUP2 MSTORE PUSH1 0x20 ADD PUSH1 0x0 KECCAK256 DUP7 PUSH1 0x40 MLOAD PUSH2 0xF0F SWAP2 SWAP1 PUSH2 0x1A80 JUMP JUMPDEST SWAP1 DUP2 MSTORE PUSH1 0x20 ADD PUSH1 0x40 MLOAD DUP1 SWAP2 SUB SWAP1 KECCAK256 PUSH1 0x4 ADD SLOAD SWAP1 POP TIMESTAMP DUP3 LT ISZERO DUP1 ISZERO PUSH2 0xF33 JUMPI POP PUSH1 0x0 DUP2 GT JUMPDEST PUSH2 0xF3C JUMPI PUSH1 0x0 DUP1 REVERT JUMPDEST PUSH1 0x0 PUSH1 0x14 PUSH1 0x11 ADD SLOAD SWAP1 POP PUSH1 0x0 PUSH1 0x14 PUSH1 0x12 ADD SLOAD SWAP1 POP PUSH1 0x0 DUP1 PUSH2 0xF60 DUP9 DUP9 DUP8 DUP8 DUP8 PUSH2 0xFD8 JUMP JUMPDEST SWAP2 POP SWAP2 POP PUSH1 0x0 PUSH1 0x34 PUSH1 0x0 DUP10 PUSH20 0xFFFFFFFFFFFFFFFFFFFFFFFFFFFFFFFFFFFFFFFF AND PUSH20 0xFFFFFFFFFFFFFFFFFFFFFFFFFFFFFFFFFFFFFFFF AND DUP2 MSTORE PUSH1 0x20 ADD SWAP1 DUP2 MSTORE PUSH1 0x20 ADD PUSH1 0x0 KECCAK256 DUP12 PUSH1 0x40 MLOAD PUSH2 0xFB3 SWAP2 SWAP1 PUSH2 0x1A80 JUMP JUMPDEST SWAP1 DUP2 MSTORE PUSH1 0x20 ADD PUSH1 0x40 MLOAD DUP1 SWAP2 SUB SWAP1 KECCAK256 PUSH1 0x4 ADD DUP2 SWAP1 SSTORE POP DUP2 SWAP9 POP POP POP POP POP POP POP POP POP SWAP2 SWAP1 POP JUMP JUMPDEST PUSH1 0x0 DUP1 PUSH1 0x0 PUSH20 0xFFFFFFFFFFFFFFFFFFFFFFFFFFFFFFFFFFFFFFFF AND DUP8 PUSH20 0xFFFFFFFFFFFFFFFFFFFFFFFFFFFFFFFFFFFFFFFF AND EQ ISZERO DUP1 ISZERO PUSH2 0x1045 JUMPI POP PUSH1 0x0 PUSH20 0xFFFFFFFFFFFFFFFFFFFFFFFFFFFFFFFFFFFFFFFF AND DUP7 PUSH20 0xFFFFFFFFFFFFFFFFFFFFFFFFFFFFFFFFFFFFFFFF AND EQ ISZERO JUMPDEST DUP1 ISZERO PUSH2 0x1090 JUMPI POP DUP5 PUSH1 0x35 PUSH1 0x0 DUP10 PUSH20 0xFFFFFFFFFFFFFFFFFFFFFFFFFFFFFFFFFFFFFFFF AND PUSH20 0xFFFFFFFFFFFFFFFFFFFFFFFFFFFFFFFFFFFFFFFF AND DUP2 MSTORE PUSH1 0x20 ADD SWAP1 DUP2 MSTORE PUSH1 0x20 ADD PUSH1 0x0 KECCAK256 SLOAD LT ISZERO JUMPDEST DUP1 ISZERO PUSH2 0x10DC JUMPI POP PUSH1 0x0 PUSH1 0x35 PUSH1 0x0 DUP10 PUSH20 0xFFFFFFFFFFFFFFFFFFFFFFFFFFFFFFFFFFFFFFFF AND PUSH20 0xFFFFFFFFFFFFFFFFFFFFFFFFFFFFFFFFFFFFFFFF AND DUP2 MSTORE PUSH1 0x20 ADD SWAP1 DUP2 MSTORE PUSH1 0x20 ADD PUSH1 0x0 KECCAK256 SLOAD LT ISZERO JUMPDEST DUP1 ISZERO PUSH2 0x10E9 JUMPI POP PUSH1 0x0 DUP6 LT ISZERO JUMPDEST PUSH2 0x10F2 JUMPI PUSH1 0x0 DUP1 REVERT JUMPDEST DUP5 PUSH1 0x35 PUSH1 0x0 DUP10 PUSH20 0xFFFFFFFFFFFFFFFFFFFFFFFFFFFFFFFFFFFFFFFF AND PUSH20 0xFFFFFFFFFFFFFFFFFFFFFFFFFFFFFFFFFFFFFFFF AND DUP2 MSTORE PUSH1 0x20 ADD SWAP1 DUP2 MSTORE PUSH1 0x20 ADD PUSH1 0x0 KECCAK256 PUSH1 0x0 DUP3 DUP3 SLOAD PUSH2 0x1141 SWAP2 SWAP1 PUSH2 0x19DC JUMP JUMPDEST SWAP3 POP POP DUP2 SWAP1 SSTORE POP PUSH1 0x0 DUP5 PUSH2 0x3E8 DUP8 PUSH2 0x1159 SWAP2 SWAP1 PUSH2 0x1AC6 JUMP JUMPDEST PUSH2 0x1163 SWAP2 SWAP1 PUSH2 0x1AF7 JUMP JUMPDEST SWAP1 POP PUSH1 0x0 DUP5 PUSH2 0x3E8 DUP9 PUSH2 0x1176 SWAP2 SWAP1 PUSH2 0x1AC6 JUMP JUMPDEST PUSH2 0x1180 SWAP2 SWAP1 PUSH2 0x1AF7 JUMP JUMPDEST SWAP1 POP PUSH1 0x0 DUP2 DUP4 PUSH2 0x1190 SWAP2 SWAP1 PUSH2 0x1A10 JUMP JUMPDEST DUP9 PUSH2 0x119B SWAP2 SWAP1 PUSH2 0x19DC JUMP JUMPDEST SWAP1 POP DUP1 PUSH1 0x35 PUSH1 0x0 DUP12 PUSH20 0xFFFFFFFFFFFFFFFFFFFFFFFFFFFFFFFFFFFFFFFF AND PUSH20 0xFFFFFFFFFFFFFFFFFFFFFFFFFFFFFFFFFFFFFFFF AND DUP2 MSTORE PUSH1 0x20 ADD SWAP1 DUP2 MSTORE PUSH1 0x20 ADD PUSH1 0x0 KECCAK256 PUSH1 0x0 DUP3 DUP3 SLOAD PUSH2 0x11EC SWAP2 SWAP1 PUSH2 0x1A10 JUMP JUMPDEST SWAP3 POP POP DUP2 SWAP1 SSTORE POP DUP2 PUSH1 0x35 PUSH1 0x0 PUSH1 0x28 PUSH1 0xB ADD PUSH1 0x0 SWAP1 SLOAD SWAP1 PUSH2 0x100 EXP SWAP1 DIV PUSH20 0xFFFFFFFFFFFFFFFFFFFFFFFFFFFFFFFFFFFFFFFF AND PUSH20 0xFFFFFFFFFFFFFFFFFFFFFFFFFFFFFFFFFFFFFFFF AND PUSH20 0xFFFFFFFFFFFFFFFFFFFFFFFFFFFFFFFFFFFFFFFF AND DUP2 MSTORE PUSH1 0x20 ADD SWAP1 DUP2 MSTORE PUSH1 0x20 ADD PUSH1 0x0 KECCAK256 PUSH1 0x0 DUP3 DUP3 SLOAD PUSH2 0x1267 SWAP2 SWAP1 PUSH2 0x1A10 JUMP JUMPDEST SWAP3 POP POP DUP2 SWAP1 SSTORE POP DUP3 PUSH1 0x28 PUSH1 0x4 ADD PUSH1 0x0 DUP3 DUP3 SLOAD PUSH2 0x1283 SWAP2 SWAP1 PUSH2 0x19DC JUMP JUMPDEST SWAP3 POP POP DUP2 SWAP1 SSTORE POP DUP9 PUSH20 0xFFFFFFFFFFFFFFFFFFFFFFFFFFFFFFFFFFFFFFFF AND DUP11 PUSH20 0xFFFFFFFFFFFFFFFFFFFFFFFFFFFFFFFFFFFFFFFF AND PUSH32 0xDDF252AD1BE2C89B69C2B068FC378DAA952BA7F163C4A11628F55A4DF523B3EF DUP4 PUSH1 0x40 MLOAD PUSH2 0x12E7 SWAP2 SWAP1 PUSH2 0x1624 JUMP JUMPDEST PUSH1 0x40 MLOAD DUP1 SWAP2 SUB SWAP1 LOG3 PUSH1 0x0 DUP4 EQ PUSH2 0x135E JUMPI PUSH1 0x0 PUSH20 0xFFFFFFFFFFFFFFFFFFFFFFFFFFFFFFFFFFFFFFFF AND DUP11 PUSH20 0xFFFFFFFFFFFFFFFFFFFFFFFFFFFFFFFFFFFFFFFF AND PUSH32 0xDDF252AD1BE2C89B69C2B068FC378DAA952BA7F163C4A11628F55A4DF523B3EF DUP6 PUSH1 0x40 MLOAD PUSH2 0x1355 SWAP2 SWAP1 PUSH2 0x1624 JUMP JUMPDEST PUSH1 0x40 MLOAD DUP1 SWAP2 SUB SWAP1 LOG3 JUMPDEST PUSH1 0x0 DUP3 EQ PUSH2 0x13F1 JUMPI PUSH1 0x28 PUSH1 0xB ADD PUSH1 0x0 SWAP1 SLOAD SWAP1 PUSH2 0x100 EXP SWAP1 DIV PUSH20 0xFFFFFFFFFFFFFFFFFFFFFFFFFFFFFFFFFFFFFFFF AND PUSH20 0xFFFFFFFFFFFFFFFFFFFFFFFFFFFFFFFFFFFFFFFF AND DUP11 PUSH20 0xFFFFFFFFFFFFFFFFFFFFFFFFFFFFFFFFFFFFFFFF AND PUSH32 0xDDF252AD1BE2C89B69C2B068FC378DAA952BA7F163C4A11628F55A4DF523B3EF DUP5 PUSH1 0x40 MLOAD PUSH2 0x13E8 SWAP2 SWAP1 PUSH2 0x1624 JUMP JUMPDEST PUSH1 0x40 MLOAD DUP1 SWAP2 SUB SWAP1 LOG3 JUMPDEST PUSH1 0x1 DUP2 SWAP5 POP SWAP5 POP POP POP POP SWAP6 POP SWAP6 SWAP4 POP POP POP POP JUMP JUMPDEST PUSH1 0x0 PUSH1 0x40 MLOAD SWAP1 POP SWAP1 JUMP JUMPDEST PUSH1 0x0 DUP1 REVERT JUMPDEST PUSH1 0x0 DUP1 REVERT JUMPDEST PUSH1 0x0 DUP2 SWAP1 POP SWAP2 SWAP1 POP JUMP JUMPDEST PUSH2 0x142C DUP2 PUSH2 0x1419 JUMP JUMPDEST DUP2 EQ PUSH2 0x1437 JUMPI PUSH1 0x0 DUP1 REVERT JUMPDEST POP JUMP JUMPDEST PUSH1 0x0 DUP2 CALLDATALOAD SWAP1 POP PUSH2 0x1449 DUP2 PUSH2 0x1423 JUMP JUMPDEST SWAP3 SWAP2 POP POP JUMP JUMPDEST PUSH1 0x0 DUP1 PUSH1 0x40 DUP4 DUP6 SUB SLT ISZERO PUSH2 0x1466 JUMPI PUSH2 0x1465 PUSH2 0x140F JUMP JUMPDEST JUMPDEST PUSH1 0x0 PUSH2 0x1474 DUP6 DUP3 DUP7 ADD PUSH2 0x143A JUMP JUMPDEST SWAP3 POP POP PUSH1 0x20 PUSH2 0x1485 DUP6 DUP3 DUP7 ADD PUSH2 0x143A JUMP JUMPDEST SWAP2 POP POP SWAP3 POP SWAP3 SWAP1 POP JUMP JUMPDEST PUSH1 0x0 DUP2 ISZERO ISZERO SWAP1 POP SWAP2 SWAP1 POP JUMP JUMPDEST PUSH2 0x14A4 DUP2 PUSH2 0x148F JUMP JUMPDEST DUP3 MSTORE POP POP JUMP JUMPDEST PUSH1 0x0 PUSH1 0x20 DUP3 ADD SWAP1 POP PUSH2 0x14BF PUSH1 0x0 DUP4 ADD DUP5 PUSH2 0x149B JUMP JUMPDEST SWAP3 SWAP2 POP POP JUMP JUMPDEST PUSH1 0x0 DUP2 MLOAD SWAP1 POP SWAP2 SWAP1 POP JUMP JUMPDEST PUSH1 0x0 DUP3 DUP3 MSTORE PUSH1 0x20 DUP3 ADD SWAP1 POP SWAP3 SWAP2 POP POP JUMP JUMPDEST PUSH1 0x0 JUMPDEST DUP4 DUP2 LT ISZERO PUSH2 0x14FF JUMPI DUP1 DUP3 ADD MLOAD DUP2 DUP5 ADD MSTORE PUSH1 0x20 DUP2 ADD SWAP1 POP PUSH2 0x14E4 JUMP JUMPDEST PUSH1 0x0 DUP5 DUP5 ADD MSTORE POP POP POP POP JUMP JUMPDEST PUSH1 0x0 PUSH1 0x1F NOT PUSH1 0x1F DUP4 ADD AND SWAP1 POP SWAP2 SWAP1 POP JUMP JUMPDEST PUSH1 0x0 PUSH2 0x1527 DUP3 PUSH2 0x14C5 JUMP JUMPDEST PUSH2 0x1531 DUP2 DUP6 PUSH2 0x14D0 JUMP JUMPDEST SWAP4 POP PUSH2 0x1541 DUP2 DUP6 PUSH1 0x20 DUP7 ADD PUSH2 0x14E1 JUMP JUMPDEST PUSH2 0x154A DUP2 PUSH2 0x150B JUMP JUMPDEST DUP5 ADD SWAP2 POP POP SWAP3 SWAP2 POP POP JUMP JUMPDEST PUSH1 0x0 PUSH1 0x20 DUP3 ADD SWAP1 POP DUP2 DUP2 SUB PUSH1 0x0 DUP4 ADD MSTORE PUSH2 0x156F DUP2 DUP5 PUSH2 0x151C JUMP JUMPDEST SWAP1 POP SWAP3 SWAP2 POP POP JUMP JUMPDEST PUSH1 0x0 PUSH20 0xFFFFFFFFFFFFFFFFFFFFFFFFFFFFFFFFFFFFFFFF DUP3 AND SWAP1 POP SWAP2 SWAP1 POP JUMP JUMPDEST PUSH1 0x0 PUSH2 0x15A2 DUP3 PUSH2 0x1577 JUMP JUMPDEST SWAP1 POP SWAP2 SWAP1 POP JUMP JUMPDEST PUSH2 0x15B2 DUP2 PUSH2 0x1597 JUMP JUMPDEST DUP2 EQ PUSH2 0x15BD JUMPI PUSH1 0x0 DUP1 REVERT JUMPDEST POP JUMP JUMPDEST PUSH1 0x0 DUP2 CALLDATALOAD SWAP1 POP PUSH2 0x15CF DUP2 PUSH2 0x15A9 JUMP JUMPDEST SWAP3 SWAP2 POP POP JUMP JUMPDEST PUSH1 0x0 DUP1 PUSH1 0x40 DUP4 DUP6 SUB SLT ISZERO PUSH2 0x15EC JUMPI PUSH2 0x15EB PUSH2 0x140F JUMP JUMPDEST JUMPDEST PUSH1 0x0 PUSH2 0x15FA DUP6 DUP3 DUP7 ADD PUSH2 0x15C0 JUMP JUMPDEST SWAP3 POP POP PUSH1 0x20 PUSH2 0x160B DUP6 DUP3 DUP7 ADD PUSH2 0x143A JUMP JUMPDEST SWAP2 POP POP SWAP3 POP SWAP3 SWAP1 POP JUMP JUMPDEST PUSH2 0x161E DUP2 PUSH2 0x1419 JUMP JUMPDEST DUP3 MSTORE POP POP JUMP JUMPDEST PUSH1 0x0 PUSH1 0x20 DUP3 ADD SWAP1 POP PUSH2 0x1639 PUSH1 0x0 DUP4 ADD DUP5 PUSH2 0x1615 JUMP JUMPDEST SWAP3 SWAP2 POP POP JUMP JUMPDEST PUSH1 0x0 DUP1 PUSH1 0x0 PUSH1 0x60 DUP5 DUP7 SUB SLT ISZERO PUSH2 0x1658 JUMPI PUSH2 0x1657 PUSH2 0x140F JUMP JUMPDEST JUMPDEST PUSH1 0x0 PUSH2 0x1666 DUP7 DUP3 DUP8 ADD PUSH2 0x15C0 JUMP JUMPDEST SWAP4 POP POP PUSH1 0x20 PUSH2 0x1677 DUP7 DUP3 DUP8 ADD PUSH2 0x15C0 JUMP JUMPDEST SWAP3 POP POP PUSH1 0x40 PUSH2 0x1688 DUP7 DUP3 DUP8 ADD PUSH2 0x143A JUMP JUMPDEST SWAP2 POP POP SWAP3 POP SWAP3 POP SWAP3 JUMP JUMPDEST PUSH1 0x0 PUSH1 0x20 DUP3 DUP5 SUB SLT ISZERO PUSH2 0x16A8 JUMPI PUSH2 0x16A7 PUSH2 0x140F JUMP JUMPDEST JUMPDEST PUSH1 0x0 PUSH2 0x16B6 DUP5 DUP3 DUP6 ADD PUSH2 0x143A JUMP JUMPDEST SWAP2 POP POP SWAP3 SWAP2 POP POP JUMP JUMPDEST PUSH1 0x0 PUSH1 0xFF DUP3 AND SWAP1 POP SWAP2 SWAP1 POP JUMP JUMPDEST PUSH2 0x16D5 DUP2 PUSH2 0x16BF JUMP JUMPDEST DUP3 MSTORE POP POP JUMP JUMPDEST PUSH1 0x0 PUSH1 0x20 DUP3 ADD SWAP1 POP PUSH2 0x16F0 PUSH1 0x0 DUP4 ADD DUP5 PUSH2 0x16CC JUMP JUMPDEST SWAP3 SWAP2 POP POP JUMP JUMPDEST PUSH1 0x0 PUSH1 0x20 DUP3 DUP5 SUB SLT ISZERO PUSH2 0x170C JUMPI PUSH2 0x170B PUSH2 0x140F JUMP JUMPDEST JUMPDEST PUSH1 0x0 PUSH2 0x171A DUP5 DUP3 DUP6 ADD PUSH2 0x15C0 JUMP JUMPDEST SWAP2 POP POP SWAP3 SWAP2 POP POP JUMP JUMPDEST PUSH1 0x0 DUP1 PUSH1 0x40 DUP4 DUP6 SUB SLT ISZERO PUSH2 0x173A JUMPI PUSH2 0x1739 PUSH2 0x140F JUMP JUMPDEST JUMPDEST PUSH1 0x0 PUSH2 0x1748 DUP6 DUP3 DUP7 ADD PUSH2 0x15C0 JUMP JUMPDEST SWAP3 POP POP PUSH1 0x20 PUSH2 0x1759 DUP6 DUP3 DUP7 ADD PUSH2 0x15C0 JUMP JUMPDEST SWAP2 POP POP SWAP3 POP SWAP3 SWAP1 POP JUMP JUMPDEST PUSH1 0x0 DUP1 REVERT JUMPDEST PUSH1 0x0 DUP1 REVERT JUMPDEST PUSH32 0x4E487B7100000000000000000000000000000000000000000000000000000000 PUSH1 0x0 MSTORE PUSH1 0x41 PUSH1 0x4 MSTORE PUSH1 0x24 PUSH1 0x0 REVERT JUMPDEST PUSH2 0x17A5 DUP3 PUSH2 0x150B JUMP JUMPDEST DUP2 ADD DUP2 DUP2 LT PUSH8 0xFFFFFFFFFFFFFFFF DUP3 GT OR ISZERO PUSH2 0x17C4 JUMPI PUSH2 0x17C3 PUSH2 0x176D JUMP JUMPDEST JUMPDEST DUP1 PUSH1 0x40 MSTORE POP POP POP JUMP JUMPDEST PUSH1 0x0 PUSH2 0x17D7 PUSH2 0x1405 JUMP JUMPDEST SWAP1 POP PUSH2 0x17E3 DUP3 DUP3 PUSH2 0x179C JUMP JUMPDEST SWAP2 SWAP1 POP JUMP JUMPDEST PUSH1 0x0 PUSH8 0xFFFFFFFFFFFFFFFF DUP3 GT ISZERO PUSH2 0x1803 JUMPI PUSH2 0x1802 PUSH2 0x176D JUMP JUMPDEST JUMPDEST PUSH2 0x180C DUP3 PUSH2 0x150B JUMP JUMPDEST SWAP1 POP PUSH1 0x20 DUP2 ADD SWAP1 POP SWAP2 SWAP1 POP JUMP JUMPDEST DUP3 DUP2 DUP4 CALLDATACOPY PUSH1 0x0 DUP4 DUP4 ADD MSTORE POP POP POP JUMP JUMPDEST PUSH1 0x0 PUSH2 0x183B PUSH2 0x1836 DUP5 PUSH2 0x17E8 JUMP JUMPDEST PUSH2 0x17CD JUMP JUMPDEST SWAP1 POP DUP3 DUP2 MSTORE PUSH1 0x20 DUP2 ADD DUP5 DUP5 DUP5 ADD GT ISZERO PUSH2 0x1857 JUMPI PUSH2 0x1856 PUSH2 0x1768 JUMP JUMPDEST JUMPDEST PUSH2 0x1862 DUP5 DUP3 DUP6 PUSH2 0x1819 JUMP JUMPDEST POP SWAP4 SWAP3 POP POP POP JUMP JUMPDEST PUSH1 0x0 DUP3 PUSH1 0x1F DUP4 ADD SLT PUSH2 0x187F JUMPI PUSH2 0x187E PUSH2 0x1763 JUMP JUMPDEST JUMPDEST DUP2 CALLDATALOAD PUSH2 0x188F DUP5 DUP3 PUSH1 0x20 DUP7 ADD PUSH2 0x1828 JUMP JUMPDEST SWAP2 POP POP SWAP3 SWAP2 POP POP JUMP JUMPDEST PUSH1 0x0 PUSH1 0x20 DUP3 DUP5 SUB SLT ISZERO PUSH2 0x18AE JUMPI PUSH2 0x18AD PUSH2 0x140F JUMP JUMPDEST JUMPDEST PUSH1 0x0 DUP3 ADD CALLDATALOAD PUSH8 0xFFFFFFFFFFFFFFFF DUP2 GT ISZERO PUSH2 0x18CC JUMPI PUSH2 0x18CB PUSH2 0x1414 JUMP JUMPDEST JUMPDEST PUSH2 0x18D8 DUP5 DUP3 DUP6 ADD PUSH2 0x186A JUMP JUMPDEST SWAP2 POP POP SWAP3 SWAP2 POP POP JUMP JUMPDEST PUSH32 0x6F6E6C7941646D696E0000000000000000000000000000000000000000000000 PUSH1 0x0 DUP3 ADD MSTORE POP JUMP JUMPDEST PUSH1 0x0 PUSH2 0x1917 PUSH1 0x9 DUP4 PUSH2 0x14D0 JUMP JUMPDEST SWAP2 POP PUSH2 0x1922 DUP3 PUSH2 0x18E1 JUMP JUMPDEST PUSH1 0x20 DUP3 ADD SWAP1 POP SWAP2 SWAP1 POP JUMP JUMPDEST PUSH1 0x0 PUSH1 0x20 DUP3 ADD SWAP1 POP DUP2 DUP2 SUB PUSH1 0x0 DUP4 ADD MSTORE PUSH2 0x1946 DUP2 PUSH2 0x190A JUMP JUMPDEST SWAP1 POP SWAP2 SWAP1 POP JUMP JUMPDEST PUSH32 0x4E487B7100000000000000000000000000000000000000000000000000000000 PUSH1 0x0 MSTORE PUSH1 0x22 PUSH1 0x4 MSTORE PUSH1 0x24 PUSH1 0x0 REVERT JUMPDEST PUSH1 0x0 PUSH1 0x2 DUP3 DIV SWAP1 POP PUSH1 0x1 DUP3 AND DUP1 PUSH2 0x1994 JUMPI PUSH1 0x7F DUP3 AND SWAP2 POP JUMPDEST PUSH1 0x20 DUP3 LT DUP2 SUB PUSH2 0x19A7 JUMPI PUSH2 0x19A6 PUSH2 0x194D JUMP JUMPDEST JUMPDEST POP SWAP2 SWAP1 POP JUMP JUMPDEST PUSH32 0x4E487B7100000000000000000000000000000000000000000000000000000000 PUSH1 0x0 MSTORE PUSH1 0x11 PUSH1 0x4 MSTORE PUSH1 0x24 PUSH1 0x0 REVERT JUMPDEST PUSH1 0x0 PUSH2 0x19E7 DUP3 PUSH2 0x1419 JUMP JUMPDEST SWAP2 POP PUSH2 0x19F2 DUP4 PUSH2 0x1419 JUMP JUMPDEST SWAP3 POP DUP3 DUP3 SUB SWAP1 POP DUP2 DUP2 GT ISZERO PUSH2 0x1A0A JUMPI PUSH2 0x1A09 PUSH2 0x19AD JUMP JUMPDEST JUMPDEST SWAP3 SWAP2 POP POP JUMP JUMPDEST PUSH1 0x0 PUSH2 0x1A1B DUP3 PUSH2 0x1419 JUMP JUMPDEST SWAP2 POP PUSH2 0x1A26 DUP4 PUSH2 0x1419 JUMP JUMPDEST SWAP3 POP DUP3 DUP3 ADD SWAP1 POP DUP1 DUP3 GT ISZERO PUSH2 0x1A3E JUMPI PUSH2 0x1A3D PUSH2 0x19AD JUMP JUMPDEST JUMPDEST SWAP3 SWAP2 POP POP JUMP JUMPDEST PUSH1 0x0 DUP2 SWAP1 POP SWAP3 SWAP2 POP POP JUMP JUMPDEST PUSH1 0x0 PUSH2 0x1A5A DUP3 PUSH2 0x14C5 JUMP JUMPDEST PUSH2 0x1A64 DUP2 DUP6 PUSH2 0x1A44 JUMP JUMPDEST SWAP4 POP PUSH2 0x1A74 DUP2 DUP6 PUSH1 0x20 DUP7 ADD PUSH2 0x14E1 JUMP JUMPDEST DUP1 DUP5 ADD SWAP2 POP POP SWAP3 SWAP2 POP POP JUMP JUMPDEST PUSH1 0x0 PUSH2 0x1A8C DUP3 DUP5 PUSH2 0x1A4F JUMP JUMPDEST SWAP2 POP DUP2 SWAP1 POP SWAP3 SWAP2 POP POP JUMP JUMPDEST PUSH32 0x4E487B7100000000000000000000000000000000000000000000000000000000 PUSH1 0x0 MSTORE PUSH1 0x12 PUSH1 0x4 MSTORE PUSH1 0x24 PUSH1 0x0 REVERT JUMPDEST PUSH1 0x0 PUSH2 0x1AD1 DUP3 PUSH2 0x1419 JUMP JUMPDEST SWAP2 POP PUSH2 0x1ADC DUP4 PUSH2 0x1419 JUMP JUMPDEST SWAP3 POP DUP3 PUSH2 0x1AEC JUMPI PUSH2 0x1AEB PUSH2 0x1A97 JUMP JUMPDEST JUMPDEST DUP3 DUP3 DIV SWAP1 POP SWAP3 SWAP2 POP POP JUMP JUMPDEST PUSH1 0x0 PUSH2 0x1B02 DUP3 PUSH2 0x1419 JUMP JUMPDEST SWAP2 POP PUSH2 0x1B0D DUP4 PUSH2 0x1419 JUMP JUMPDEST SWAP3 POP DUP3 DUP3 MUL PUSH2 0x1B1B DUP2 PUSH2 0x1419 JUMP JUMPDEST SWAP2 POP DUP3 DUP3 DIV DUP5 EQ DUP4 ISZERO OR PUSH2 0x1B32 JUMPI PUSH2 0x1B31 PUSH2 0x19AD JUMP JUMPDEST JUMPDEST POP SWAP3 SWAP2 POP POP JUMP INVALID LOG2 PUSH5 0x6970667358 0x22 SLT KECCAK256 0xB6 0xA8 SWAP13 0x22 0xCA 0xBC OR PUSH29 0x6ADAD6A82F01A575B80E99D79C8E7BD2EDFAF187BAED4B7564736F6C63 NUMBER STOP ADDMOD SLT STOP CALLER "
		},
		"gasEstimates": {
			"creation": {
				"codeDepositCost": "1404600",
				"executionCost": "infinite",
				"totalCost": "infinite"
			},
			"external": {
				"allowance(address,address)": "infinite",
				"approve(address,uint256)": "infinite",
				"balanceOf(address)": "2864",
				"decimals()": "2574",
				"maxSupply()": "2509",
				"name()": "infinite",
				"release(string)": "infinite",
				"stake(uint256)": "infinite",
				"stakeOf(address)": "2952",
				"symbol()": "infinite",
				"totalStaked()": "2510",
				"totalSupply()": "2466",
				"totalVotes()": "2533",
				"transfer(address,uint256)": "infinite",
				"transferFrom(address,address,uint256)": "infinite",
				"unstake(uint256)": "infinite",
				"updateSettings(uint256,uint256)": "infinite",
				"votesOf(address)": "2886"
			},
			"internal": {
				"burn_(address,uint256)": "infinite",
				"mintWithVesting_(address,uint256,uint256,string memory)": "infinite",
				"mint_(address,uint256)": "infinite",
				"transfer_(address,address,uint256,uint256,uint256)": "infinite"
			}
		},
		"methodIdentifiers": {
			"allowance(address,address)": "dd62ed3e",
			"approve(address,uint256)": "095ea7b3",
			"balanceOf(address)": "70a08231",
			"decimals()": "313ce567",
			"maxSupply()": "d5abeb01",
			"name()": "06fdde03",
			"release(string)": "f34e3723",
			"stake(uint256)": "a694fc3a",
			"stakeOf(address)": "42623360",
			"symbol()": "95d89b41",
			"totalStaked()": "817b1cd2",
			"totalSupply()": "18160ddd",
			"totalVotes()": "0d15fd77",
			"transfer(address,uint256)": "a9059cbb",
			"transferFrom(address,address,uint256)": "23b872dd",
			"unstake(uint256)": "2e17de78",
			"updateSettings(uint256,uint256)": "015af8ee",
			"votesOf(address)": "79ec5d3a"
		}
	},
	"abi": [
		{
			"inputs": [],
			"stateMutability": "nonpayable",
			"type": "constructor"
		},
		{
			"anonymous": false,
			"inputs": [
				{
					"indexed": true,
					"internalType": "address",
					"name": "_owner",
					"type": "address"
				},
				{
					"indexed": true,
					"internalType": "address",
					"name": "_spender",
					"type": "address"
				},
				{
					"indexed": false,
					"internalType": "uint256",
					"name": "_value",
					"type": "uint256"
				}
			],
			"name": "Approval",
			"type": "event"
		},
		{
			"anonymous": false,
			"inputs": [
				{
					"indexed": true,
					"internalType": "address",
					"name": "_owner",
					"type": "address"
				},
				{
					"indexed": false,
					"internalType": "uint256",
					"name": "_newDuration",
					"type": "uint256"
				}
			],
			"name": "RoleExtendedAdmin",
			"type": "event"
		},
		{
			"anonymous": false,
			"inputs": [
				{
					"indexed": true,
					"internalType": "address",
					"name": "_owner",
					"type": "address"
				},
				{
					"indexed": false,
					"internalType": "uint256",
					"name": "_newDuration",
					"type": "uint256"
				}
			],
			"name": "RoleExtendedExtension",
			"type": "event"
		},
		{
			"anonymous": false,
			"inputs": [
				{
					"indexed": true,
					"internalType": "address",
					"name": "_owner",
					"type": "address"
				},
				{
					"indexed": false,
					"internalType": "uint256",
					"name": "_newDuration",
					"type": "uint256"
				}
			],
			"name": "RoleExtendedOperator",
			"type": "event"
		},
		{
			"anonymous": false,
			"inputs": [
				{
					"indexed": true,
					"internalType": "address",
					"name": "_owner",
					"type": "address"
				},
				{
					"indexed": false,
					"internalType": "uint256",
					"name": "_newDuration",
					"type": "uint256"
				}
			],
			"name": "RoleExtendedSyndicate",
			"type": "event"
		},
		{
			"anonymous": false,
			"inputs": [
				{
					"indexed": true,
					"internalType": "address",
					"name": "_owner",
					"type": "address"
				},
				{
					"indexed": false,
					"internalType": "uint256",
					"name": "_newDuration",
					"type": "uint256"
				}
			],
			"name": "RoleExtendedValidator",
			"type": "event"
		},
		{
			"anonymous": false,
			"inputs": [
				{
					"indexed": true,
					"internalType": "address",
					"name": "_owner",
					"type": "address"
				},
				{
					"indexed": false,
					"internalType": "uint256",
					"name": "_start",
					"type": "uint256"
				},
				{
					"indexed": false,
					"internalType": "uint256",
					"name": "_duration",
					"type": "uint256"
				}
			],
			"name": "RoleGrantedAdmin",
			"type": "event"
		},
		{
			"anonymous": false,
			"inputs": [
				{
					"indexed": true,
					"internalType": "address",
					"name": "_owner",
					"type": "address"
				},
				{
					"indexed": false,
					"internalType": "uint256",
					"name": "_start",
					"type": "uint256"
				},
				{
					"indexed": false,
					"internalType": "uint256",
					"name": "_duration",
					"type": "uint256"
				}
			],
			"name": "RoleGrantedExtension",
			"type": "event"
		},
		{
			"anonymous": false,
			"inputs": [
				{
					"indexed": true,
					"internalType": "address",
					"name": "_owner",
					"type": "address"
				},
				{
					"indexed": false,
					"internalType": "uint256",
					"name": "_start",
					"type": "uint256"
				},
				{
					"indexed": false,
					"internalType": "uint256",
					"name": "_duration",
					"type": "uint256"
				}
			],
			"name": "RoleGrantedOperator",
			"type": "event"
		},
		{
			"anonymous": false,
			"inputs": [
				{
					"indexed": true,
					"internalType": "address",
					"name": "_owner",
					"type": "address"
				},
				{
					"indexed": false,
					"internalType": "uint256",
					"name": "_start",
					"type": "uint256"
				},
				{
					"indexed": false,
					"internalType": "uint256",
					"name": "_duration",
					"type": "uint256"
				}
			],
			"name": "RoleGrantedSyndicate",
			"type": "event"
		},
		{
			"anonymous": false,
			"inputs": [
				{
					"indexed": true,
					"internalType": "address",
					"name": "_owner",
					"type": "address"
				},
				{
					"indexed": false,
					"internalType": "uint256",
					"name": "_start",
					"type": "uint256"
				},
				{
					"indexed": false,
					"internalType": "uint256",
					"name": "_duration",
					"type": "uint256"
				}
			],
			"name": "RoleGrantedValidator",
			"type": "event"
		},
		{
			"anonymous": false,
			"inputs": [
				{
					"indexed": true,
					"internalType": "address",
					"name": "_owner",
					"type": "address"
				}
			],
			"name": "RoleRevokedAdmin",
			"type": "event"
		},
		{
			"anonymous": false,
			"inputs": [
				{
					"indexed": true,
					"internalType": "address",
					"name": "_owner",
					"type": "address"
				}
			],
			"name": "RoleRevokedExtension",
			"type": "event"
		},
		{
			"anonymous": false,
			"inputs": [
				{
					"indexed": true,
					"internalType": "address",
					"name": "_owner",
					"type": "address"
				}
			],
			"name": "RoleRevokedOperator",
			"type": "event"
		},
		{
			"anonymous": false,
			"inputs": [
				{
					"indexed": true,
					"internalType": "address",
					"name": "_owner",
					"type": "address"
				}
			],
			"name": "RoleRevokedSyndicate",
			"type": "event"
		},
		{
			"anonymous": false,
			"inputs": [
				{
					"indexed": true,
					"internalType": "address",
					"name": "_owner",
					"type": "address"
				}
			],
			"name": "RoleRevokedValidator",
			"type": "event"
		},
		{
			"anonymous": false,
			"inputs": [
				{
					"indexed": true,
					"internalType": "address",
					"name": "_from",
					"type": "address"
				},
				{
					"indexed": true,
					"internalType": "address",
					"name": "_to",
					"type": "address"
				},
				{
					"indexed": false,
					"internalType": "uint256",
					"name": "_value",
					"type": "uint256"
				}
			],
			"name": "Transfer",
			"type": "event"
		},
		{
			"inputs": [
				{
					"internalType": "address",
					"name": "_owner",
					"type": "address"
				},
				{
					"internalType": "address",
					"name": "_spender",
					"type": "address"
				}
			],
			"name": "allowance",
			"outputs": [
				{
					"internalType": "uint256",
					"name": "remaining",
					"type": "uint256"
				}
			],
			"stateMutability": "view",
			"type": "function"
		},
		{
			"inputs": [
				{
					"internalType": "address",
					"name": "_spender",
					"type": "address"
				},
				{
					"internalType": "uint256",
					"name": "_value",
					"type": "uint256"
				}
			],
			"name": "approve",
			"outputs": [
				{
					"internalType": "bool",
					"name": "",
					"type": "bool"
				}
			],
			"stateMutability": "nonpayable",
			"type": "function"
		},
		{
			"inputs": [
				{
					"internalType": "address",
					"name": "_owner",
					"type": "address"
				}
			],
			"name": "balanceOf",
			"outputs": [
				{
					"internalType": "uint256",
					"name": "",
					"type": "uint256"
				}
			],
			"stateMutability": "view",
			"type": "function"
		},
		{
			"inputs": [],
			"name": "decimals",
			"outputs": [
				{
					"internalType": "uint8",
					"name": "",
					"type": "uint8"
				}
			],
			"stateMutability": "view",
			"type": "function"
		},
		{
			"inputs": [],
			"name": "maxSupply",
			"outputs": [
				{
					"internalType": "uint256",
					"name": "",
					"type": "uint256"
				}
			],
			"stateMutability": "view",
			"type": "function"
		},
		{
			"inputs": [],
			"name": "name",
			"outputs": [
				{
					"internalType": "string",
					"name": "",
					"type": "string"
				}
			],
			"stateMutability": "view",
			"type": "function"
		},
		{
			"inputs": [
				{
					"internalType": "string",
					"name": "_caption",
					"type": "string"
				}
			],
			"name": "release",
			"outputs": [
				{
					"internalType": "bool",
					"name": "",
					"type": "bool"
				}
			],
			"stateMutability": "nonpayable",
			"type": "function"
		},
		{
			"inputs": [
				{
					"internalType": "uint256",
					"name": "_value",
					"type": "uint256"
				}
			],
			"name": "stake",
			"outputs": [
				{
					"internalType": "bool",
					"name": "",
					"type": "bool"
				}
			],
			"stateMutability": "nonpayable",
			"type": "function"
		},
		{
			"inputs": [
				{
					"internalType": "address",
					"name": "_owner",
					"type": "address"
				}
			],
			"name": "stakeOf",
			"outputs": [
				{
					"internalType": "uint256",
					"name": "",
					"type": "uint256"
				}
			],
			"stateMutability": "view",
			"type": "function"
		},
		{
			"inputs": [],
			"name": "symbol",
			"outputs": [
				{
					"internalType": "string",
					"name": "",
					"type": "string"
				}
			],
			"stateMutability": "view",
			"type": "function"
		},
		{
			"inputs": [],
			"name": "totalStaked",
			"outputs": [
				{
					"internalType": "uint256",
					"name": "",
					"type": "uint256"
				}
			],
			"stateMutability": "view",
			"type": "function"
		},
		{
			"inputs": [],
			"name": "totalSupply",
			"outputs": [
				{
					"internalType": "uint256",
					"name": "",
					"type": "uint256"
				}
			],
			"stateMutability": "view",
			"type": "function"
		},
		{
			"inputs": [],
			"name": "totalVotes",
			"outputs": [
				{
					"internalType": "uint256",
					"name": "",
					"type": "uint256"
				}
			],
			"stateMutability": "view",
			"type": "function"
		},
		{
			"inputs": [
				{
					"internalType": "address",
					"name": "_to",
					"type": "address"
				},
				{
					"internalType": "uint256",
					"name": "_value",
					"type": "uint256"
				}
			],
			"name": "transfer",
			"outputs": [
				{
					"internalType": "bool",
					"name": "",
					"type": "bool"
				}
			],
			"stateMutability": "nonpayable",
			"type": "function"
		},
		{
			"inputs": [
				{
					"internalType": "address",
					"name": "_from",
					"type": "address"
				},
				{
					"internalType": "address",
					"name": "_to",
					"type": "address"
				},
				{
					"internalType": "uint256",
					"name": "_value",
					"type": "uint256"
				}
			],
			"name": "transferFrom",
			"outputs": [
				{
					"internalType": "bool",
					"name": "",
					"type": "bool"
				}
			],
			"stateMutability": "nonpayable",
			"type": "function"
		},
		{
			"inputs": [
				{
					"internalType": "uint256",
					"name": "_value",
					"type": "uint256"
				}
			],
			"name": "unstake",
			"outputs": [
				{
					"internalType": "bool",
					"name": "",
					"type": "bool"
				}
			],
			"stateMutability": "nonpayable",
			"type": "function"
		},
		{
			"inputs": [
				{
					"internalType": "uint256",
					"name": "_bpFeeBurn",
					"type": "uint256"
				},
				{
					"internalType": "uint256",
					"name": "_bpFeeBank",
					"type": "uint256"
				}
			],
			"name": "updateSettings",
			"outputs": [
				{
					"internalType": "bool",
					"name": "",
					"type": "bool"
				}
			],
			"stateMutability": "nonpayable",
			"type": "function"
		},
		{
			"inputs": [
				{
					"internalType": "address",
					"name": "_owner",
					"type": "address"
				}
			],
			"name": "votesOf",
			"outputs": [
				{
					"internalType": "uint256",
					"name": "",
					"type": "uint256"
				}
			],
			"stateMutability": "view",
			"type": "function"
		}
	]
}