{
	"data": {
		"bytecode": {
			"linkReferences": {},
			"object": "60a06040527fffffffffffffffffffffffffffffffffffffffffffffffffffffffffffffffff6080908152503480156200003857600080fd5b50604051620039343803806200393483398181016040528101906200005e9190620004e4565b60016000803073ffffffffffffffffffffffffffffffffffffffff1673ffffffffffffffffffffffffffffffffffffffff16815260200190815260200160002060006101000a81548160ff02191690831515021790555060016000808373ffffffffffffffffffffffffffffffffffffffff1673ffffffffffffffffffffffffffffffffffffffff16815260200190815260200160002060006101000a81548160ff0219169083151502179055506040518060400160405280600c81526020017f447265616d6361746368657200000000000000000000000000000000000000008152506007600001908162000155919062000790565b506040518060400160405280600581526020017f445245414d000000000000000000000000000000000000000000000000000000815250600760010190816200019f919062000790565b506012600760020160006101000a81548160ff021916908360ff1602179055506000600760040181905550600760020160009054906101000a900460ff16600a620001eb919062000a07565b630bebc200620001fc919062000a58565b600760080181905550600760020160009054906101000a900460ff16600a62000226919062000a07565b630bebc20062000237919062000a58565b60076003018190555030600760090160006101000a81548173ffffffffffffffffffffffffffffffffffffffff021916908373ffffffffffffffffffffffffffffffffffffffff160217905550600060016004018190555060006001600501819055506000600160000181905550600060018001819055506127106001600201819055506127106001600301819055506200030a33600760020160009054906101000a900460ff16600a620002ed919062000a07565b630bebc200620002fe919062000a58565b6200031260201b60201c565b505062000b47565b60008060009050600083101580156200033057506007600301548311155b80156200036a5750600073ffffffffffffffffffffffffffffffffffffffff168473ffffffffffffffffffffffffffffffffffffffff1614155b6200037457600080fd5b82600760030160008282546200038b919062000aa3565b9250508190555082601160008673ffffffffffffffffffffffffffffffffffffffff1673ffffffffffffffffffffffffffffffffffffffff1681526020019081526020016000206000828254620003e3919062000ade565b925050819055836007600401600082825462000400919062000ade565b92505081905550508373ffffffffffffffffffffffffffffffffffffffff168173ffffffffffffffffffffffffffffffffffffffff167fddf252ad1be2c89b69c2b068fc378daa952ba7f163c4a11628f55a4df523b3ef8560405162000467919062000b2a565b60405180910390a3600191505092915050565b600080fd5b600073ffffffffffffffffffffffffffffffffffffffff82169050919050565b6000620004ac826200047f565b9050919050565b620004be816200049f565b8114620004ca57600080fd5b50565b600081519050620004de81620004b3565b92915050565b600060208284031215620004fd57620004fc6200047a565b5b60006200050d84828501620004cd565b91505092915050565b600081519050919050565b7f4e487b7100000000000000000000000000000000000000000000000000000000600052604160045260246000fd5b7f4e487b7100000000000000000000000000000000000000000000000000000000600052602260045260246000fd5b600060028204905060018216806200059857607f821691505b602082108103620005ae57620005ad62000550565b5b50919050565b60008190508160005260206000209050919050565b60006020601f8301049050919050565b600082821b905092915050565b600060088302620006187fffffffffffffffffffffffffffffffffffffffffffffffffffffffffffffffff82620005d9565b620006248683620005d9565b95508019841693508086168417925050509392505050565b6000819050919050565b6000819050919050565b6000620006716200066b62000665846200063c565b62000646565b6200063c565b9050919050565b6000819050919050565b6200068d8362000650565b620006a56200069c8262000678565b848454620005e6565b825550505050565b600090565b620006bc620006ad565b620006c981848462000682565b505050565b5b81811015620006f157620006e5600082620006b2565b600181019050620006cf565b5050565b601f82111562000740576200070a81620005b4565b6200071584620005c9565b8101602085101562000725578190505b6200073d6200073485620005c9565b830182620006ce565b50505b505050565b600082821c905092915050565b6000620007656000198460080262000745565b1980831691505092915050565b600062000780838362000752565b9150826002028217905092915050565b6200079b8262000516565b67ffffffffffffffff811115620007b757620007b662000521565b5b620007c382546200057f565b620007d0828285620006f5565b600060209050601f831160018114620008085760008415620007f3578287015190505b620007ff858262000772565b8655506200086f565b601f1984166200081886620005b4565b60005b8281101562000842578489015182556001820191506020850194506020810190506200081b565b868310156200086257848901516200085e601f89168262000752565b8355505b6001600288020188555050505b505050505050565b7f4e487b7100000000000000000000000000000000000000000000000000000000600052601160045260246000fd5b60008160011c9050919050565b6000808291508390505b60018511156200090557808604811115620008dd57620008dc62000877565b5b6001851615620008ed5780820291505b8081029050620008fd85620008a6565b9450620008bd565b94509492505050565b600082620009205760019050620009f3565b81620009305760009050620009f3565b816001811462000949576002811462000954576200098a565b6001915050620009f3565b60ff84111562000969576200096862000877565b5b8360020a91508482111562000983576200098262000877565b5b50620009f3565b5060208310610133831016604e8410600b8410161715620009c45782820a905083811115620009be57620009bd62000877565b5b620009f3565b620009d38484846001620008b3565b92509050818404811115620009ed57620009ec62000877565b5b81810290505b9392505050565b600060ff82169050919050565b600062000a14826200063c565b915062000a2183620009fa565b925062000a507fffffffffffffffffffffffffffffffffffffffffffffffffffffffffffffffff84846200090e565b905092915050565b600062000a65826200063c565b915062000a72836200063c565b925082820262000a82816200063c565b9150828204841483151762000a9c5762000a9b62000877565b5b5092915050565b600062000ab0826200063c565b915062000abd836200063c565b925082820390508181111562000ad85762000ad762000877565b5b92915050565b600062000aeb826200063c565b915062000af8836200063c565b925082820190508082111562000b135762000b1262000877565b5b92915050565b62000b24816200063c565b82525050565b600060208201905062000b41600083018462000b19565b92915050565b608051612dd462000b6060003960005050612dd46000f3fe608060405234801561001057600080fd5b506004361061018e5760003560e01c80634c496d4f116100de578063a694fc3a11610097578063db3c5fca11610071578063db3c5fca14610516578063dd62ed3e14610546578063e4f1b27c14610576578063f34e3723146105a65761018e565b8063a694fc3a14610498578063a9059cbb146104c8578063d5abeb01146104f85761018e565b80634c496d4f146103a957806370a08231146103cc57806379ec5d3a146103fc578063817b1cd21461042c57806395d89b411461044a57806396b75b1a146104685761018e565b806323b872dd1161014b57806340c10f191161012557806340c10f19146102fb578063426233601461032b57806342966c681461035b5780634bf365df1461038b5761018e565b806323b872dd1461027d5780632e17de78146102ad578063313ce567146102dd5761018e565b8063015af8ee1461019357806306fdde03146101c3578063095ea7b3146101e15780630d15fd771461021157806318160ddd1461022f5780631c1b87721461024d575b600080fd5b6101ad60048036038101906101a89190612329565b6105d6565b6040516101ba9190612384565b60405180910390f35b6101cb61071d565b6040516101d8919061242f565b60405180910390f35b6101fb60048036038101906101f691906124af565b6107b2565b6040516102089190612384565b60405180910390f35b61021961091c565b60405161022691906124fe565b60405180910390f35b610237610928565b60405161024491906124fe565b60405180910390f35b61026760048036038101906102629190612519565b610935565b6040516102749190612384565b60405180910390f35b61029760048036038101906102929190612546565b610a92565b6040516102a49190612384565b60405180910390f35b6102c760048036038101906102c29190612599565b610c17565b6040516102d49190612384565b60405180910390f35b6102e5610dac565b6040516102f291906125e2565b60405180910390f35b610315600480360381019061031091906124af565b610dc6565b6040516103229190612384565b60405180910390f35b61034560048036038101906103409190612519565b610e6b565b60405161035291906124fe565b60405180910390f35b61037560048036038101906103709190612599565b610eb4565b6040516103829190612384565b60405180910390f35b610393610f5e565b6040516103a091906124fe565b60405180910390f35b6103b1610f6b565b6040516103c3969594939291906125fd565b60405180910390f35b6103e660048036038101906103e19190612519565b611061565b6040516103f391906124fe565b60405180910390f35b61041660048036038101906104119190612519565b6110aa565b60405161042391906124fe565b60405180910390f35b6104346110f3565b60405161044191906124fe565b60405180910390f35b610452611100565b60405161045f919061242f565b60405180910390f35b610482600480360381019061047d9190612519565b611195565b60405161048f9190612384565b60405180910390f35b6104b260048036038101906104ad9190612599565b61131f565b6040516104bf9190612384565b60405180910390f35b6104e260048036038101906104dd91906124af565b611468565b6040516104ef9190612384565b60405180910390f35b6105006114a4565b60405161050d91906124fe565b60405180910390f35b610530600480360381019061052b9190612519565b6114b1565b60405161053d9190612384565b60405180910390f35b610560600480360381019061055b919061265e565b61163b565b60405161056d91906124fe565b60405180910390f35b610590600480360381019061058b91906127d3565b6116c2565b60405161059d9190612384565b60405180910390f35b6105c060048036038101906105bb9190612856565b61176b565b6040516105cd9190612384565b60405180910390f35b6000600115156000803373ffffffffffffffffffffffffffffffffffffffff1673ffffffffffffffffffffffffffffffffffffffff16815260200190815260200160002060009054906101000a900460ff1615151461066a576040517f08c379a0000000000000000000000000000000000000000000000000000000008152600401610661906128eb565b60405180910390fd5b6000600160000154905060006001800154905060006001600201549050600060016003015490508387101580156106a15750818711155b80156106ad5750828610155b80156106b95750808611155b6106c257600080fd5b86600160040181905550856001600501819055507ff710d5c0fed44aca6b7e44715976f68b87187f4a4d505f8c14731a5c3906e9b9878760405161070792919061290b565b60405180910390a1600194505050505092915050565b60606007600001805461072f90612963565b80601f016020809104026020016040519081016040528092919081815260200182805461075b90612963565b80156107a85780601f1061077d576101008083540402835291602001916107a8565b820191906000526020600020905b81548152906001019060200180831161078b57829003601f168201915b5050505050905090565b600080339050600073ffffffffffffffffffffffffffffffffffffffff168173ffffffffffffffffffffffffffffffffffffffff16141580156108225750600073ffffffffffffffffffffffffffffffffffffffff168473ffffffffffffffffffffffffffffffffffffffff1614155b61082b57600080fd5b82601460008373ffffffffffffffffffffffffffffffffffffffff1673ffffffffffffffffffffffffffffffffffffffff16815260200190815260200160002060008673ffffffffffffffffffffffffffffffffffffffff1673ffffffffffffffffffffffffffffffffffffffff168152602001908152602001600020819055508373ffffffffffffffffffffffffffffffffffffffff168173ffffffffffffffffffffffffffffffffffffffff167f8c5be1e5ebec7d5bd14f71427d1e84f3dd0314c0f7b2291e5b200ac8c7c3b9258560405161090991906124fe565b60405180910390a3600191505092915050565b60006007800154905090565b6000600760040154905090565b6000600115156000803373ffffffffffffffffffffffffffffffffffffffff1673ffffffffffffffffffffffffffffffffffffffff16815260200190815260200160002060009054906101000a900460ff161515146109c9576040517f08c379a00000000000000000000000000000000000000000000000000000000081526004016109c0906128eb565b60405180910390fd5b600073ffffffffffffffffffffffffffffffffffffffff168273ffffffffffffffffffffffffffffffffffffffff1603610a0257600080fd5b81600760090160006101000a81548173ffffffffffffffffffffffffffffffffffffffff021916908373ffffffffffffffffffffffffffffffffffffffff1602179055508173ffffffffffffffffffffffffffffffffffffffff167fd456720fd185d4060f5cea4d82775d2af95048c1e10f227ec35bae950a4be2a860405160405180910390a260019050919050565b600080601460008673ffffffffffffffffffffffffffffffffffffffff1673ffffffffffffffffffffffffffffffffffffffff16815260200190815260200160002060003373ffffffffffffffffffffffffffffffffffffffff1673ffffffffffffffffffffffffffffffffffffffff1681526020019081526020016000205490507fffffffffffffffffffffffffffffffffffffffffffffffffffffffffffffffff8114158015610b445750828110155b610b4d57600080fd5b82601460008773ffffffffffffffffffffffffffffffffffffffff1673ffffffffffffffffffffffffffffffffffffffff16815260200190815260200160002060003373ffffffffffffffffffffffffffffffffffffffff1673ffffffffffffffffffffffffffffffffffffffff1681526020019081526020016000206000828254610bd991906129c3565b925050819055506000600160040154905060006001600501549050600080610c048989898787611916565b9150915081955050505050509392505050565b600080600760090160009054906101000a900473ffffffffffffffffffffffffffffffffffffffff16905060003390506000600160040154905060006001600501549050601260008473ffffffffffffffffffffffffffffffffffffffff1673ffffffffffffffffffffffffffffffffffffffff16815260200190815260200160002054861115610ca757600080fd5b600080610cb786868a8787611916565b9150915087601260008773ffffffffffffffffffffffffffffffffffffffff1673ffffffffffffffffffffffffffffffffffffffff1681526020019081526020016000206000828254610d0a91906129c3565b9250508190555087601360008773ffffffffffffffffffffffffffffffffffffffff1673ffffffffffffffffffffffffffffffffffffffff1681526020019081526020016000206000828254610d6091906129c3565b925050819055508760076005016000828254610d7c91906129c3565b9250508190555087600780016000828254610d9791906129c3565b92505081905550819650505050505050919050565b6000600760020160009054906101000a900460ff16905090565b6000600115156000803373ffffffffffffffffffffffffffffffffffffffff1673ffffffffffffffffffffffffffffffffffffffff16815260200190815260200160002060009054906101000a900460ff16151514610e5a576040517f08c379a0000000000000000000000000000000000000000000000000000000008152600401610e51906128eb565b60405180910390fd5b610e648383611d43565b5092915050565b6000601260008373ffffffffffffffffffffffffffffffffffffffff1673ffffffffffffffffffffffffffffffffffffffff168152602001908152602001600020549050919050565b6000600115156000803373ffffffffffffffffffffffffffffffffffffffff1673ffffffffffffffffffffffffffffffffffffffff16815260200190815260200160002060009054906101000a900460ff16151514610f48576040517f08c379a0000000000000000000000000000000000000000000000000000000008152600401610f3f906128eb565b60405180910390fd5b6000339050610f578184611ea0565b5050919050565b6000600760030154905090565b600080600080600080600115156000803373ffffffffffffffffffffffffffffffffffffffff1673ffffffffffffffffffffffffffffffffffffffff16815260200190815260200160002060009054906101000a900460ff16151514611006576040517f08c379a0000000000000000000000000000000000000000000000000000000008152600401610ffd906128eb565b60405180910390fd5b60006001600401549050600060016005015490506000600160000154905060006001800154905060006001600201549050600060016003015490508585858585859b509b509b509b509b509b50505050505050909192939495565b6000601160008373ffffffffffffffffffffffffffffffffffffffff1673ffffffffffffffffffffffffffffffffffffffff168152602001908152602001600020549050919050565b6000601360008373ffffffffffffffffffffffffffffffffffffffff1673ffffffffffffffffffffffffffffffffffffffff168152602001908152602001600020549050919050565b6000600760050154905090565b60606007600101805461111290612963565b80601f016020809104026020016040519081016040528092919081815260200182805461113e90612963565b801561118b5780601f106111605761010080835404028352916020019161118b565b820191906000526020600020905b81548152906001019060200180831161116e57829003601f168201915b5050505050905090565b6000600115156000803373ffffffffffffffffffffffffffffffffffffffff1673ffffffffffffffffffffffffffffffffffffffff16815260200190815260200160002060009054906101000a900460ff16151514611229576040517f08c379a0000000000000000000000000000000000000000000000000000000008152600401611220906128eb565b60405180910390fd5b600073ffffffffffffffffffffffffffffffffffffffff168273ffffffffffffffffffffffffffffffffffffffff16141580156112b65750600115156000808473ffffffffffffffffffffffffffffffffffffffff1673ffffffffffffffffffffffffffffffffffffffff16815260200190815260200160002060009054906101000a900460ff16151514155b6112bf57600080fd5b60016000808473ffffffffffffffffffffffffffffffffffffffff1673ffffffffffffffffffffffffffffffffffffffff16815260200190815260200160002060006101000a81548160ff02191690831515021790555060019050919050565b6000803390506000600760090160009054906101000a900473ffffffffffffffffffffffffffffffffffffffff169050600060016004015490506000600160050154905060008061137386868a8787611916565b9150915080601260008873ffffffffffffffffffffffffffffffffffffffff1673ffffffffffffffffffffffffffffffffffffffff16815260200190815260200160002060008282546113c691906129f7565b9250508190555080601360008873ffffffffffffffffffffffffffffffffffffffff1673ffffffffffffffffffffffffffffffffffffffff168152602001908152602001600020600082825461141c91906129f7565b92505081905550806007600501600082825461143891906129f7565b925050819055508060078001600082825461145391906129f7565b92505081905550819650505050505050919050565b60008033905060006001600401549050600060016005015490506000806114928589898787611916565b91509150819550505050505092915050565b6000600760080154905090565b6000600115156000803373ffffffffffffffffffffffffffffffffffffffff1673ffffffffffffffffffffffffffffffffffffffff16815260200190815260200160002060009054906101000a900460ff16151514611545576040517f08c379a000000000000000000000000000000000000000000000000000000000815260040161153c906128eb565b60405180910390fd5b600073ffffffffffffffffffffffffffffffffffffffff168273ffffffffffffffffffffffffffffffffffffffff16141580156115d25750600015156000808473ffffffffffffffffffffffffffffffffffffffff1673ffffffffffffffffffffffffffffffffffffffff16815260200190815260200160002060009054906101000a900460ff16151514155b6115db57600080fd5b60008060008473ffffffffffffffffffffffffffffffffffffffff1673ffffffffffffffffffffffffffffffffffffffff16815260200190815260200160002060006101000a81548160ff02191690831515021790555060019050919050565b6000601460008473ffffffffffffffffffffffffffffffffffffffff1673ffffffffffffffffffffffffffffffffffffffff16815260200190815260200160002060008373ffffffffffffffffffffffffffffffffffffffff1673ffffffffffffffffffffffffffffffffffffffff16815260200190815260200160002054905092915050565b6000600115156000803373ffffffffffffffffffffffffffffffffffffffff1673ffffffffffffffffffffffffffffffffffffffff16815260200190815260200160002060009054906101000a900460ff16151514611756576040517f08c379a000000000000000000000000000000000000000000000000000000000815260040161174d906128eb565b60405180910390fd5b61176285858585611fdc565b50949350505050565b600080600760090160009054906101000a900473ffffffffffffffffffffffffffffffffffffffff16905060003390506000601560008373ffffffffffffffffffffffffffffffffffffffff1673ffffffffffffffffffffffffffffffffffffffff168152602001908152602001600020856040516117ea9190612a67565b90815260200160405180910390206003015490506000601560008473ffffffffffffffffffffffffffffffffffffffff1673ffffffffffffffffffffffffffffffffffffffff1681526020019081526020016000208660405161184d9190612a67565b90815260200160405180910390206004015490504282101580156118715750600081115b61187a57600080fd5b600060016004015490506000600160050154905060008061189e8888878787611916565b915091506000601560008973ffffffffffffffffffffffffffffffffffffffff1673ffffffffffffffffffffffffffffffffffffffff1681526020019081526020016000208b6040516118f19190612a67565b9081526020016040518091039020600401819055508198505050505050505050919050565b600080600073ffffffffffffffffffffffffffffffffffffffff168773ffffffffffffffffffffffffffffffffffffffff16141580156119835750600073ffffffffffffffffffffffffffffffffffffffff168673ffffffffffffffffffffffffffffffffffffffff1614155b80156119ce575084601160008973ffffffffffffffffffffffffffffffffffffffff1673ffffffffffffffffffffffffffffffffffffffff1681526020019081526020016000205410155b8015611a1a57506000601160008973ffffffffffffffffffffffffffffffffffffffff1673ffffffffffffffffffffffffffffffffffffffff1681526020019081526020016000205410155b8015611a27575060008510155b611a3057600080fd5b84601160008973ffffffffffffffffffffffffffffffffffffffff1673ffffffffffffffffffffffffffffffffffffffff1681526020019081526020016000206000828254611a7f91906129c3565b925050819055506000846103e887611a979190612aad565b611aa19190612ade565b90506000846103e888611ab49190612aad565b611abe9190612ade565b905060008183611ace91906129f7565b88611ad991906129c3565b905080601160008b73ffffffffffffffffffffffffffffffffffffffff1673ffffffffffffffffffffffffffffffffffffffff1681526020019081526020016000206000828254611b2a91906129f7565b925050819055508160116000600760090160009054906101000a900473ffffffffffffffffffffffffffffffffffffffff1673ffffffffffffffffffffffffffffffffffffffff1673ffffffffffffffffffffffffffffffffffffffff1681526020019081526020016000206000828254611ba591906129f7565b925050819055508260076004016000828254611bc191906129c3565b925050819055508873ffffffffffffffffffffffffffffffffffffffff168a73ffffffffffffffffffffffffffffffffffffffff167fddf252ad1be2c89b69c2b068fc378daa952ba7f163c4a11628f55a4df523b3ef83604051611c2591906124fe565b60405180910390a360008314611c9c57600073ffffffffffffffffffffffffffffffffffffffff168a73ffffffffffffffffffffffffffffffffffffffff167fddf252ad1be2c89b69c2b068fc378daa952ba7f163c4a11628f55a4df523b3ef85604051611c9391906124fe565b60405180910390a35b60008214611d2f57600760090160009054906101000a900473ffffffffffffffffffffffffffffffffffffffff1673ffffffffffffffffffffffffffffffffffffffff168a73ffffffffffffffffffffffffffffffffffffffff167fddf252ad1be2c89b69c2b068fc378daa952ba7f163c4a11628f55a4df523b3ef84604051611d2691906124fe565b60405180910390a35b600181945094505050509550959350505050565b6000806000905060008310158015611d6057506007600301548311155b8015611d995750600073ffffffffffffffffffffffffffffffffffffffff168473ffffffffffffffffffffffffffffffffffffffff1614155b611da257600080fd5b8260076003016000828254611db791906129c3565b9250508190555082601160008673ffffffffffffffffffffffffffffffffffffffff1673ffffffffffffffffffffffffffffffffffffffff1681526020019081526020016000206000828254611e0d91906129f7565b9250508190558360076004016000828254611e2891906129f7565b92505081905550508373ffffffffffffffffffffffffffffffffffffffff168173ffffffffffffffffffffffffffffffffffffffff167fddf252ad1be2c89b69c2b068fc378daa952ba7f163c4a11628f55a4df523b3ef85604051611e8d91906124fe565b60405180910390a3600191505092915050565b6000808210158015611ef15750601160008473ffffffffffffffffffffffffffffffffffffffff1673ffffffffffffffffffffffffffffffffffffffff168152602001908152602001600020548211155b611efa57600080fd5b81601160008573ffffffffffffffffffffffffffffffffffffffff1673ffffffffffffffffffffffffffffffffffffffff1681526020019081526020016000206000828254611f4991906129c3565b9250508190558260076004016000828254611f6491906129c3565b9250508190555050600073ffffffffffffffffffffffffffffffffffffffff168373ffffffffffffffffffffffffffffffffffffffff167fddf252ad1be2c89b69c2b068fc378daa952ba7f163c4a11628f55a4df523b3ef84604051611fca91906124fe565b60405180910390a36001905092915050565b600080600090506000600760090160009054906101000a900473ffffffffffffffffffffffffffffffffffffffff16905060011515601560008973ffffffffffffffffffffffffffffffffffffffff1673ffffffffffffffffffffffffffffffffffffffff1681526020019081526020016000208560405161205e9190612a67565b908152602001604051809103902060050160009054906101000a900460ff1615151415801561209257506007600301548611155b80156120cb5750600073ffffffffffffffffffffffffffffffffffffffff168773ffffffffffffffffffffffffffffffffffffffff1614155b80156120d8575060008610155b6120e157600080fd5b85600760030160008282546120f691906129c3565b925050819055866007600401600082825461211191906129f7565b92505081905587601160008573ffffffffffffffffffffffffffffffffffffffff1673ffffffffffffffffffffffffffffffffffffffff168152602001908152602001600020600082825461216691906129f7565b92505081905550505060004290506040518060c00160405280868152602001878152602001828152602001878361219d91906129f7565b815260200188815260200160011515815250601560008a73ffffffffffffffffffffffffffffffffffffffff1673ffffffffffffffffffffffffffffffffffffffff168152602001908152602001600020866040516121fc9190612a67565b9081526020016040518091039020600082015181600001908161221f9190612ccc565b506020820151816001015560408201518160020155606082015181600301556080820151816004015560a08201518160050160006101000a81548160ff0219169083151502179055509050508773ffffffffffffffffffffffffffffffffffffffff168373ffffffffffffffffffffffffffffffffffffffff167fddf252ad1be2c89b69c2b068fc378daa952ba7f163c4a11628f55a4df523b3ef896040516122c891906124fe565b60405180910390a360019350505050949350505050565b6000604051905090565b600080fd5b600080fd5b6000819050919050565b612306816122f3565b811461231157600080fd5b50565b600081359050612323816122fd565b92915050565b600080604083850312156123405761233f6122e9565b5b600061234e85828601612314565b925050602061235f85828601612314565b9150509250929050565b60008115159050919050565b61237e81612369565b82525050565b60006020820190506123996000830184612375565b92915050565b600081519050919050565b600082825260208201905092915050565b60005b838110156123d95780820151818401526020810190506123be565b60008484015250505050565b6000601f19601f8301169050919050565b60006124018261239f565b61240b81856123aa565b935061241b8185602086016123bb565b612424816123e5565b840191505092915050565b6000602082019050818103600083015261244981846123f6565b905092915050565b600073ffffffffffffffffffffffffffffffffffffffff82169050919050565b600061247c82612451565b9050919050565b61248c81612471565b811461249757600080fd5b50565b6000813590506124a981612483565b92915050565b600080604083850312156124c6576124c56122e9565b5b60006124d48582860161249a565b92505060206124e585828601612314565b9150509250929050565b6124f8816122f3565b82525050565b600060208201905061251360008301846124ef565b92915050565b60006020828403121561252f5761252e6122e9565b5b600061253d8482850161249a565b91505092915050565b60008060006060848603121561255f5761255e6122e9565b5b600061256d8682870161249a565b935050602061257e8682870161249a565b925050604061258f86828701612314565b9150509250925092565b6000602082840312156125af576125ae6122e9565b5b60006125bd84828501612314565b91505092915050565b600060ff82169050919050565b6125dc816125c6565b82525050565b60006020820190506125f760008301846125d3565b92915050565b600060c08201905061261260008301896124ef565b61261f60208301886124ef565b61262c60408301876124ef565b61263960608301866124ef565b61264660808301856124ef565b61265360a08301846124ef565b979650505050505050565b60008060408385031215612675576126746122e9565b5b60006126838582860161249a565b92505060206126948582860161249a565b9150509250929050565b600080fd5b600080fd5b7f4e487b7100000000000000000000000000000000000000000000000000000000600052604160045260246000fd5b6126e0826123e5565b810181811067ffffffffffffffff821117156126ff576126fe6126a8565b5b80604052505050565b60006127126122df565b905061271e82826126d7565b919050565b600067ffffffffffffffff82111561273e5761273d6126a8565b5b612747826123e5565b9050602081019050919050565b82818337600083830152505050565b600061277661277184612723565b612708565b905082815260208101848484011115612792576127916126a3565b5b61279d848285612754565b509392505050565b600082601f8301126127ba576127b961269e565b5b81356127ca848260208601612763565b91505092915050565b600080600080608085870312156127ed576127ec6122e9565b5b60006127fb8782880161249a565b945050602061280c87828801612314565b935050604061281d87828801612314565b925050606085013567ffffffffffffffff81111561283e5761283d6122ee565b5b61284a878288016127a5565b91505092959194509250565b60006020828403121561286c5761286b6122e9565b5b600082013567ffffffffffffffff81111561288a576128896122ee565b5b612896848285016127a5565b91505092915050565b7f6f6e6c7941646d696e0000000000000000000000000000000000000000000000600082015250565b60006128d56009836123aa565b91506128e08261289f565b602082019050919050565b60006020820190508181036000830152612904816128c8565b9050919050565b600060408201905061292060008301856124ef565b61292d60208301846124ef565b9392505050565b7f4e487b7100000000000000000000000000000000000000000000000000000000600052602260045260246000fd5b6000600282049050600182168061297b57607f821691505b60208210810361298e5761298d612934565b5b50919050565b7f4e487b7100000000000000000000000000000000000000000000000000000000600052601160045260246000fd5b60006129ce826122f3565b91506129d9836122f3565b92508282039050818111156129f1576129f0612994565b5b92915050565b6000612a02826122f3565b9150612a0d836122f3565b9250828201905080821115612a2557612a24612994565b5b92915050565b600081905092915050565b6000612a418261239f565b612a4b8185612a2b565b9350612a5b8185602086016123bb565b80840191505092915050565b6000612a738284612a36565b915081905092915050565b7f4e487b7100000000000000000000000000000000000000000000000000000000600052601260045260246000fd5b6000612ab8826122f3565b9150612ac3836122f3565b925082612ad357612ad2612a7e565b5b828204905092915050565b6000612ae9826122f3565b9150612af4836122f3565b9250828202612b02816122f3565b91508282048414831517612b1957612b18612994565b5b5092915050565b60008190508160005260206000209050919050565b60006020601f8301049050919050565b600082821b905092915050565b600060088302612b827fffffffffffffffffffffffffffffffffffffffffffffffffffffffffffffffff82612b45565b612b8c8683612b45565b95508019841693508086168417925050509392505050565b6000819050919050565b6000612bc9612bc4612bbf846122f3565b612ba4565b6122f3565b9050919050565b6000819050919050565b612be383612bae565b612bf7612bef82612bd0565b848454612b52565b825550505050565b600090565b612c0c612bff565b612c17818484612bda565b505050565b5b81811015612c3b57612c30600082612c04565b600181019050612c1d565b5050565b601f821115612c8057612c5181612b20565b612c5a84612b35565b81016020851015612c69578190505b612c7d612c7585612b35565b830182612c1c565b50505b505050565b600082821c905092915050565b6000612ca360001984600802612c85565b1980831691505092915050565b6000612cbc8383612c92565b9150826002028217905092915050565b612cd58261239f565b67ffffffffffffffff811115612cee57612ced6126a8565b5b612cf88254612963565b612d03828285612c3f565b600060209050601f831160018114612d365760008415612d24578287015190505b612d2e8582612cb0565b865550612d96565b601f198416612d4486612b20565b60005b82811015612d6c57848901518255600182019150602085019450602081019050612d47565b86831015612d895784890151612d85601f891682612c92565b8355505b6001600288020188555050505b50505050505056fea2646970667358221220fc90633f23db4ef697b88fb34489d4696d329d0923fc662aa47734c433bfac6064736f6c63430008120033",
			"opcodes": "PUSH1 0xA0 PUSH1 0x40 MSTORE PUSH32 0xFFFFFFFFFFFFFFFFFFFFFFFFFFFFFFFFFFFFFFFFFFFFFFFFFFFFFFFFFFFFFFFF PUSH1 0x80 SWAP1 DUP2 MSTORE POP CALLVALUE DUP1 ISZERO PUSH3 0x38 JUMPI PUSH1 0x0 DUP1 REVERT JUMPDEST POP PUSH1 0x40 MLOAD PUSH3 0x3934 CODESIZE SUB DUP1 PUSH3 0x3934 DUP4 CODECOPY DUP2 DUP2 ADD PUSH1 0x40 MSTORE DUP2 ADD SWAP1 PUSH3 0x5E SWAP2 SWAP1 PUSH3 0x4E4 JUMP JUMPDEST PUSH1 0x1 PUSH1 0x0 DUP1 ADDRESS PUSH20 0xFFFFFFFFFFFFFFFFFFFFFFFFFFFFFFFFFFFFFFFF AND PUSH20 0xFFFFFFFFFFFFFFFFFFFFFFFFFFFFFFFFFFFFFFFF AND DUP2 MSTORE PUSH1 0x20 ADD SWAP1 DUP2 MSTORE PUSH1 0x20 ADD PUSH1 0x0 KECCAK256 PUSH1 0x0 PUSH2 0x100 EXP DUP2 SLOAD DUP2 PUSH1 0xFF MUL NOT AND SWAP1 DUP4 ISZERO ISZERO MUL OR SWAP1 SSTORE POP PUSH1 0x1 PUSH1 0x0 DUP1 DUP4 PUSH20 0xFFFFFFFFFFFFFFFFFFFFFFFFFFFFFFFFFFFFFFFF AND PUSH20 0xFFFFFFFFFFFFFFFFFFFFFFFFFFFFFFFFFFFFFFFF AND DUP2 MSTORE PUSH1 0x20 ADD SWAP1 DUP2 MSTORE PUSH1 0x20 ADD PUSH1 0x0 KECCAK256 PUSH1 0x0 PUSH2 0x100 EXP DUP2 SLOAD DUP2 PUSH1 0xFF MUL NOT AND SWAP1 DUP4 ISZERO ISZERO MUL OR SWAP1 SSTORE POP PUSH1 0x40 MLOAD DUP1 PUSH1 0x40 ADD PUSH1 0x40 MSTORE DUP1 PUSH1 0xC DUP2 MSTORE PUSH1 0x20 ADD PUSH32 0x447265616D636174636865720000000000000000000000000000000000000000 DUP2 MSTORE POP PUSH1 0x7 PUSH1 0x0 ADD SWAP1 DUP2 PUSH3 0x155 SWAP2 SWAP1 PUSH3 0x790 JUMP JUMPDEST POP PUSH1 0x40 MLOAD DUP1 PUSH1 0x40 ADD PUSH1 0x40 MSTORE DUP1 PUSH1 0x5 DUP2 MSTORE PUSH1 0x20 ADD PUSH32 0x445245414D000000000000000000000000000000000000000000000000000000 DUP2 MSTORE POP PUSH1 0x7 PUSH1 0x1 ADD SWAP1 DUP2 PUSH3 0x19F SWAP2 SWAP1 PUSH3 0x790 JUMP JUMPDEST POP PUSH1 0x12 PUSH1 0x7 PUSH1 0x2 ADD PUSH1 0x0 PUSH2 0x100 EXP DUP2 SLOAD DUP2 PUSH1 0xFF MUL NOT AND SWAP1 DUP4 PUSH1 0xFF AND MUL OR SWAP1 SSTORE POP PUSH1 0x0 PUSH1 0x7 PUSH1 0x4 ADD DUP2 SWAP1 SSTORE POP PUSH1 0x7 PUSH1 0x2 ADD PUSH1 0x0 SWAP1 SLOAD SWAP1 PUSH2 0x100 EXP SWAP1 DIV PUSH1 0xFF AND PUSH1 0xA PUSH3 0x1EB SWAP2 SWAP1 PUSH3 0xA07 JUMP JUMPDEST PUSH4 0xBEBC200 PUSH3 0x1FC SWAP2 SWAP1 PUSH3 0xA58 JUMP JUMPDEST PUSH1 0x7 PUSH1 0x8 ADD DUP2 SWAP1 SSTORE POP PUSH1 0x7 PUSH1 0x2 ADD PUSH1 0x0 SWAP1 SLOAD SWAP1 PUSH2 0x100 EXP SWAP1 DIV PUSH1 0xFF AND PUSH1 0xA PUSH3 0x226 SWAP2 SWAP1 PUSH3 0xA07 JUMP JUMPDEST PUSH4 0xBEBC200 PUSH3 0x237 SWAP2 SWAP1 PUSH3 0xA58 JUMP JUMPDEST PUSH1 0x7 PUSH1 0x3 ADD DUP2 SWAP1 SSTORE POP ADDRESS PUSH1 0x7 PUSH1 0x9 ADD PUSH1 0x0 PUSH2 0x100 EXP DUP2 SLOAD DUP2 PUSH20 0xFFFFFFFFFFFFFFFFFFFFFFFFFFFFFFFFFFFFFFFF MUL NOT AND SWAP1 DUP4 PUSH20 0xFFFFFFFFFFFFFFFFFFFFFFFFFFFFFFFFFFFFFFFF AND MUL OR SWAP1 SSTORE POP PUSH1 0x0 PUSH1 0x1 PUSH1 0x4 ADD DUP2 SWAP1 SSTORE POP PUSH1 0x0 PUSH1 0x1 PUSH1 0x5 ADD DUP2 SWAP1 SSTORE POP PUSH1 0x0 PUSH1 0x1 PUSH1 0x0 ADD DUP2 SWAP1 SSTORE POP PUSH1 0x0 PUSH1 0x1 DUP1 ADD DUP2 SWAP1 SSTORE POP PUSH2 0x2710 PUSH1 0x1 PUSH1 0x2 ADD DUP2 SWAP1 SSTORE POP PUSH2 0x2710 PUSH1 0x1 PUSH1 0x3 ADD DUP2 SWAP1 SSTORE POP PUSH3 0x30A CALLER PUSH1 0x7 PUSH1 0x2 ADD PUSH1 0x0 SWAP1 SLOAD SWAP1 PUSH2 0x100 EXP SWAP1 DIV PUSH1 0xFF AND PUSH1 0xA PUSH3 0x2ED SWAP2 SWAP1 PUSH3 0xA07 JUMP JUMPDEST PUSH4 0xBEBC200 PUSH3 0x2FE SWAP2 SWAP1 PUSH3 0xA58 JUMP JUMPDEST PUSH3 0x312 PUSH1 0x20 SHL PUSH1 0x20 SHR JUMP JUMPDEST POP POP PUSH3 0xB47 JUMP JUMPDEST PUSH1 0x0 DUP1 PUSH1 0x0 SWAP1 POP PUSH1 0x0 DUP4 LT ISZERO DUP1 ISZERO PUSH3 0x330 JUMPI POP PUSH1 0x7 PUSH1 0x3 ADD SLOAD DUP4 GT ISZERO JUMPDEST DUP1 ISZERO PUSH3 0x36A JUMPI POP PUSH1 0x0 PUSH20 0xFFFFFFFFFFFFFFFFFFFFFFFFFFFFFFFFFFFFFFFF AND DUP5 PUSH20 0xFFFFFFFFFFFFFFFFFFFFFFFFFFFFFFFFFFFFFFFF AND EQ ISZERO JUMPDEST PUSH3 0x374 JUMPI PUSH1 0x0 DUP1 REVERT JUMPDEST DUP3 PUSH1 0x7 PUSH1 0x3 ADD PUSH1 0x0 DUP3 DUP3 SLOAD PUSH3 0x38B SWAP2 SWAP1 PUSH3 0xAA3 JUMP JUMPDEST SWAP3 POP POP DUP2 SWAP1 SSTORE POP DUP3 PUSH1 0x11 PUSH1 0x0 DUP7 PUSH20 0xFFFFFFFFFFFFFFFFFFFFFFFFFFFFFFFFFFFFFFFF AND PUSH20 0xFFFFFFFFFFFFFFFFFFFFFFFFFFFFFFFFFFFFFFFF AND DUP2 MSTORE PUSH1 0x20 ADD SWAP1 DUP2 MSTORE PUSH1 0x20 ADD PUSH1 0x0 KECCAK256 PUSH1 0x0 DUP3 DUP3 SLOAD PUSH3 0x3E3 SWAP2 SWAP1 PUSH3 0xADE JUMP JUMPDEST SWAP3 POP POP DUP2 SWAP1 SSTORE DUP4 PUSH1 0x7 PUSH1 0x4 ADD PUSH1 0x0 DUP3 DUP3 SLOAD PUSH3 0x400 SWAP2 SWAP1 PUSH3 0xADE JUMP JUMPDEST SWAP3 POP POP DUP2 SWAP1 SSTORE POP POP DUP4 PUSH20 0xFFFFFFFFFFFFFFFFFFFFFFFFFFFFFFFFFFFFFFFF AND DUP2 PUSH20 0xFFFFFFFFFFFFFFFFFFFFFFFFFFFFFFFFFFFFFFFF AND PUSH32 0xDDF252AD1BE2C89B69C2B068FC378DAA952BA7F163C4A11628F55A4DF523B3EF DUP6 PUSH1 0x40 MLOAD PUSH3 0x467 SWAP2 SWAP1 PUSH3 0xB2A JUMP JUMPDEST PUSH1 0x40 MLOAD DUP1 SWAP2 SUB SWAP1 LOG3 PUSH1 0x1 SWAP2 POP POP SWAP3 SWAP2 POP POP JUMP JUMPDEST PUSH1 0x0 DUP1 REVERT JUMPDEST PUSH1 0x0 PUSH20 0xFFFFFFFFFFFFFFFFFFFFFFFFFFFFFFFFFFFFFFFF DUP3 AND SWAP1 POP SWAP2 SWAP1 POP JUMP JUMPDEST PUSH1 0x0 PUSH3 0x4AC DUP3 PUSH3 0x47F JUMP JUMPDEST SWAP1 POP SWAP2 SWAP1 POP JUMP JUMPDEST PUSH3 0x4BE DUP2 PUSH3 0x49F JUMP JUMPDEST DUP2 EQ PUSH3 0x4CA JUMPI PUSH1 0x0 DUP1 REVERT JUMPDEST POP JUMP JUMPDEST PUSH1 0x0 DUP2 MLOAD SWAP1 POP PUSH3 0x4DE DUP2 PUSH3 0x4B3 JUMP JUMPDEST SWAP3 SWAP2 POP POP JUMP JUMPDEST PUSH1 0x0 PUSH1 0x20 DUP3 DUP5 SUB SLT ISZERO PUSH3 0x4FD JUMPI PUSH3 0x4FC PUSH3 0x47A JUMP JUMPDEST JUMPDEST PUSH1 0x0 PUSH3 0x50D DUP5 DUP3 DUP6 ADD PUSH3 0x4CD JUMP JUMPDEST SWAP2 POP POP SWAP3 SWAP2 POP POP JUMP JUMPDEST PUSH1 0x0 DUP2 MLOAD SWAP1 POP SWAP2 SWAP1 POP JUMP JUMPDEST PUSH32 0x4E487B7100000000000000000000000000000000000000000000000000000000 PUSH1 0x0 MSTORE PUSH1 0x41 PUSH1 0x4 MSTORE PUSH1 0x24 PUSH1 0x0 REVERT JUMPDEST PUSH32 0x4E487B7100000000000000000000000000000000000000000000000000000000 PUSH1 0x0 MSTORE PUSH1 0x22 PUSH1 0x4 MSTORE PUSH1 0x24 PUSH1 0x0 REVERT JUMPDEST PUSH1 0x0 PUSH1 0x2 DUP3 DIV SWAP1 POP PUSH1 0x1 DUP3 AND DUP1 PUSH3 0x598 JUMPI PUSH1 0x7F DUP3 AND SWAP2 POP JUMPDEST PUSH1 0x20 DUP3 LT DUP2 SUB PUSH3 0x5AE JUMPI PUSH3 0x5AD PUSH3 0x550 JUMP JUMPDEST JUMPDEST POP SWAP2 SWAP1 POP JUMP JUMPDEST PUSH1 0x0 DUP2 SWAP1 POP DUP2 PUSH1 0x0 MSTORE PUSH1 0x20 PUSH1 0x0 KECCAK256 SWAP1 POP SWAP2 SWAP1 POP JUMP JUMPDEST PUSH1 0x0 PUSH1 0x20 PUSH1 0x1F DUP4 ADD DIV SWAP1 POP SWAP2 SWAP1 POP JUMP JUMPDEST PUSH1 0x0 DUP3 DUP3 SHL SWAP1 POP SWAP3 SWAP2 POP POP JUMP JUMPDEST PUSH1 0x0 PUSH1 0x8 DUP4 MUL PUSH3 0x618 PUSH32 0xFFFFFFFFFFFFFFFFFFFFFFFFFFFFFFFFFFFFFFFFFFFFFFFFFFFFFFFFFFFFFFFF DUP3 PUSH3 0x5D9 JUMP JUMPDEST PUSH3 0x624 DUP7 DUP4 PUSH3 0x5D9 JUMP JUMPDEST SWAP6 POP DUP1 NOT DUP5 AND SWAP4 POP DUP1 DUP7 AND DUP5 OR SWAP3 POP POP POP SWAP4 SWAP3 POP POP POP JUMP JUMPDEST PUSH1 0x0 DUP2 SWAP1 POP SWAP2 SWAP1 POP JUMP JUMPDEST PUSH1 0x0 DUP2 SWAP1 POP SWAP2 SWAP1 POP JUMP JUMPDEST PUSH1 0x0 PUSH3 0x671 PUSH3 0x66B PUSH3 0x665 DUP5 PUSH3 0x63C JUMP JUMPDEST PUSH3 0x646 JUMP JUMPDEST PUSH3 0x63C JUMP JUMPDEST SWAP1 POP SWAP2 SWAP1 POP JUMP JUMPDEST PUSH1 0x0 DUP2 SWAP1 POP SWAP2 SWAP1 POP JUMP JUMPDEST PUSH3 0x68D DUP4 PUSH3 0x650 JUMP JUMPDEST PUSH3 0x6A5 PUSH3 0x69C DUP3 PUSH3 0x678 JUMP JUMPDEST DUP5 DUP5 SLOAD PUSH3 0x5E6 JUMP JUMPDEST DUP3 SSTORE POP POP POP POP JUMP JUMPDEST PUSH1 0x0 SWAP1 JUMP JUMPDEST PUSH3 0x6BC PUSH3 0x6AD JUMP JUMPDEST PUSH3 0x6C9 DUP2 DUP5 DUP5 PUSH3 0x682 JUMP JUMPDEST POP POP POP JUMP JUMPDEST JUMPDEST DUP2 DUP2 LT ISZERO PUSH3 0x6F1 JUMPI PUSH3 0x6E5 PUSH1 0x0 DUP3 PUSH3 0x6B2 JUMP JUMPDEST PUSH1 0x1 DUP2 ADD SWAP1 POP PUSH3 0x6CF JUMP JUMPDEST POP POP JUMP JUMPDEST PUSH1 0x1F DUP3 GT ISZERO PUSH3 0x740 JUMPI PUSH3 0x70A DUP2 PUSH3 0x5B4 JUMP JUMPDEST PUSH3 0x715 DUP5 PUSH3 0x5C9 JUMP JUMPDEST DUP2 ADD PUSH1 0x20 DUP6 LT ISZERO PUSH3 0x725 JUMPI DUP2 SWAP1 POP JUMPDEST PUSH3 0x73D PUSH3 0x734 DUP6 PUSH3 0x5C9 JUMP JUMPDEST DUP4 ADD DUP3 PUSH3 0x6CE JUMP JUMPDEST POP POP JUMPDEST POP POP POP JUMP JUMPDEST PUSH1 0x0 DUP3 DUP3 SHR SWAP1 POP SWAP3 SWAP2 POP POP JUMP JUMPDEST PUSH1 0x0 PUSH3 0x765 PUSH1 0x0 NOT DUP5 PUSH1 0x8 MUL PUSH3 0x745 JUMP JUMPDEST NOT DUP1 DUP4 AND SWAP2 POP POP SWAP3 SWAP2 POP POP JUMP JUMPDEST PUSH1 0x0 PUSH3 0x780 DUP4 DUP4 PUSH3 0x752 JUMP JUMPDEST SWAP2 POP DUP3 PUSH1 0x2 MUL DUP3 OR SWAP1 POP SWAP3 SWAP2 POP POP JUMP JUMPDEST PUSH3 0x79B DUP3 PUSH3 0x516 JUMP JUMPDEST PUSH8 0xFFFFFFFFFFFFFFFF DUP2 GT ISZERO PUSH3 0x7B7 JUMPI PUSH3 0x7B6 PUSH3 0x521 JUMP JUMPDEST JUMPDEST PUSH3 0x7C3 DUP3 SLOAD PUSH3 0x57F JUMP JUMPDEST PUSH3 0x7D0 DUP3 DUP3 DUP6 PUSH3 0x6F5 JUMP JUMPDEST PUSH1 0x0 PUSH1 0x20 SWAP1 POP PUSH1 0x1F DUP4 GT PUSH1 0x1 DUP2 EQ PUSH3 0x808 JUMPI PUSH1 0x0 DUP5 ISZERO PUSH3 0x7F3 JUMPI DUP3 DUP8 ADD MLOAD SWAP1 POP JUMPDEST PUSH3 0x7FF DUP6 DUP3 PUSH3 0x772 JUMP JUMPDEST DUP7 SSTORE POP PUSH3 0x86F JUMP JUMPDEST PUSH1 0x1F NOT DUP5 AND PUSH3 0x818 DUP7 PUSH3 0x5B4 JUMP JUMPDEST PUSH1 0x0 JUMPDEST DUP3 DUP2 LT ISZERO PUSH3 0x842 JUMPI DUP5 DUP10 ADD MLOAD DUP3 SSTORE PUSH1 0x1 DUP3 ADD SWAP2 POP PUSH1 0x20 DUP6 ADD SWAP5 POP PUSH1 0x20 DUP2 ADD SWAP1 POP PUSH3 0x81B JUMP JUMPDEST DUP7 DUP4 LT ISZERO PUSH3 0x862 JUMPI DUP5 DUP10 ADD MLOAD PUSH3 0x85E PUSH1 0x1F DUP10 AND DUP3 PUSH3 0x752 JUMP JUMPDEST DUP4 SSTORE POP JUMPDEST PUSH1 0x1 PUSH1 0x2 DUP9 MUL ADD DUP9 SSTORE POP POP POP JUMPDEST POP POP POP POP POP POP JUMP JUMPDEST PUSH32 0x4E487B7100000000000000000000000000000000000000000000000000000000 PUSH1 0x0 MSTORE PUSH1 0x11 PUSH1 0x4 MSTORE PUSH1 0x24 PUSH1 0x0 REVERT JUMPDEST PUSH1 0x0 DUP2 PUSH1 0x1 SHR SWAP1 POP SWAP2 SWAP1 POP JUMP JUMPDEST PUSH1 0x0 DUP1 DUP3 SWAP2 POP DUP4 SWAP1 POP JUMPDEST PUSH1 0x1 DUP6 GT ISZERO PUSH3 0x905 JUMPI DUP1 DUP7 DIV DUP2 GT ISZERO PUSH3 0x8DD JUMPI PUSH3 0x8DC PUSH3 0x877 JUMP JUMPDEST JUMPDEST PUSH1 0x1 DUP6 AND ISZERO PUSH3 0x8ED JUMPI DUP1 DUP3 MUL SWAP2 POP JUMPDEST DUP1 DUP2 MUL SWAP1 POP PUSH3 0x8FD DUP6 PUSH3 0x8A6 JUMP JUMPDEST SWAP5 POP PUSH3 0x8BD JUMP JUMPDEST SWAP5 POP SWAP5 SWAP3 POP POP POP JUMP JUMPDEST PUSH1 0x0 DUP3 PUSH3 0x920 JUMPI PUSH1 0x1 SWAP1 POP PUSH3 0x9F3 JUMP JUMPDEST DUP2 PUSH3 0x930 JUMPI PUSH1 0x0 SWAP1 POP PUSH3 0x9F3 JUMP JUMPDEST DUP2 PUSH1 0x1 DUP2 EQ PUSH3 0x949 JUMPI PUSH1 0x2 DUP2 EQ PUSH3 0x954 JUMPI PUSH3 0x98A JUMP JUMPDEST PUSH1 0x1 SWAP2 POP POP PUSH3 0x9F3 JUMP JUMPDEST PUSH1 0xFF DUP5 GT ISZERO PUSH3 0x969 JUMPI PUSH3 0x968 PUSH3 0x877 JUMP JUMPDEST JUMPDEST DUP4 PUSH1 0x2 EXP SWAP2 POP DUP5 DUP3 GT ISZERO PUSH3 0x983 JUMPI PUSH3 0x982 PUSH3 0x877 JUMP JUMPDEST JUMPDEST POP PUSH3 0x9F3 JUMP JUMPDEST POP PUSH1 0x20 DUP4 LT PUSH2 0x133 DUP4 LT AND PUSH1 0x4E DUP5 LT PUSH1 0xB DUP5 LT AND OR ISZERO PUSH3 0x9C4 JUMPI DUP3 DUP3 EXP SWAP1 POP DUP4 DUP2 GT ISZERO PUSH3 0x9BE JUMPI PUSH3 0x9BD PUSH3 0x877 JUMP JUMPDEST JUMPDEST PUSH3 0x9F3 JUMP JUMPDEST PUSH3 0x9D3 DUP5 DUP5 DUP5 PUSH1 0x1 PUSH3 0x8B3 JUMP JUMPDEST SWAP3 POP SWAP1 POP DUP2 DUP5 DIV DUP2 GT ISZERO PUSH3 0x9ED JUMPI PUSH3 0x9EC PUSH3 0x877 JUMP JUMPDEST JUMPDEST DUP2 DUP2 MUL SWAP1 POP JUMPDEST SWAP4 SWAP3 POP POP POP JUMP JUMPDEST PUSH1 0x0 PUSH1 0xFF DUP3 AND SWAP1 POP SWAP2 SWAP1 POP JUMP JUMPDEST PUSH1 0x0 PUSH3 0xA14 DUP3 PUSH3 0x63C JUMP JUMPDEST SWAP2 POP PUSH3 0xA21 DUP4 PUSH3 0x9FA JUMP JUMPDEST SWAP3 POP PUSH3 0xA50 PUSH32 0xFFFFFFFFFFFFFFFFFFFFFFFFFFFFFFFFFFFFFFFFFFFFFFFFFFFFFFFFFFFFFFFF DUP5 DUP5 PUSH3 0x90E JUMP JUMPDEST SWAP1 POP SWAP3 SWAP2 POP POP JUMP JUMPDEST PUSH1 0x0 PUSH3 0xA65 DUP3 PUSH3 0x63C JUMP JUMPDEST SWAP2 POP PUSH3 0xA72 DUP4 PUSH3 0x63C JUMP JUMPDEST SWAP3 POP DUP3 DUP3 MUL PUSH3 0xA82 DUP2 PUSH3 0x63C JUMP JUMPDEST SWAP2 POP DUP3 DUP3 DIV DUP5 EQ DUP4 ISZERO OR PUSH3 0xA9C JUMPI PUSH3 0xA9B PUSH3 0x877 JUMP JUMPDEST JUMPDEST POP SWAP3 SWAP2 POP POP JUMP JUMPDEST PUSH1 0x0 PUSH3 0xAB0 DUP3 PUSH3 0x63C JUMP JUMPDEST SWAP2 POP PUSH3 0xABD DUP4 PUSH3 0x63C JUMP JUMPDEST SWAP3 POP DUP3 DUP3 SUB SWAP1 POP DUP2 DUP2 GT ISZERO PUSH3 0xAD8 JUMPI PUSH3 0xAD7 PUSH3 0x877 JUMP JUMPDEST JUMPDEST SWAP3 SWAP2 POP POP JUMP JUMPDEST PUSH1 0x0 PUSH3 0xAEB DUP3 PUSH3 0x63C JUMP JUMPDEST SWAP2 POP PUSH3 0xAF8 DUP4 PUSH3 0x63C JUMP JUMPDEST SWAP3 POP DUP3 DUP3 ADD SWAP1 POP DUP1 DUP3 GT ISZERO PUSH3 0xB13 JUMPI PUSH3 0xB12 PUSH3 0x877 JUMP JUMPDEST JUMPDEST SWAP3 SWAP2 POP POP JUMP JUMPDEST PUSH3 0xB24 DUP2 PUSH3 0x63C JUMP JUMPDEST DUP3 MSTORE POP POP JUMP JUMPDEST PUSH1 0x0 PUSH1 0x20 DUP3 ADD SWAP1 POP PUSH3 0xB41 PUSH1 0x0 DUP4 ADD DUP5 PUSH3 0xB19 JUMP JUMPDEST SWAP3 SWAP2 POP POP JUMP JUMPDEST PUSH1 0x80 MLOAD PUSH2 0x2DD4 PUSH3 0xB60 PUSH1 0x0 CODECOPY PUSH1 0x0 POP POP PUSH2 0x2DD4 PUSH1 0x0 RETURN INVALID PUSH1 0x80 PUSH1 0x40 MSTORE CALLVALUE DUP1 ISZERO PUSH2 0x10 JUMPI PUSH1 0x0 DUP1 REVERT JUMPDEST POP PUSH1 0x4 CALLDATASIZE LT PUSH2 0x18E JUMPI PUSH1 0x0 CALLDATALOAD PUSH1 0xE0 SHR DUP1 PUSH4 0x4C496D4F GT PUSH2 0xDE JUMPI DUP1 PUSH4 0xA694FC3A GT PUSH2 0x97 JUMPI DUP1 PUSH4 0xDB3C5FCA GT PUSH2 0x71 JUMPI DUP1 PUSH4 0xDB3C5FCA EQ PUSH2 0x516 JUMPI DUP1 PUSH4 0xDD62ED3E EQ PUSH2 0x546 JUMPI DUP1 PUSH4 0xE4F1B27C EQ PUSH2 0x576 JUMPI DUP1 PUSH4 0xF34E3723 EQ PUSH2 0x5A6 JUMPI PUSH2 0x18E JUMP JUMPDEST DUP1 PUSH4 0xA694FC3A EQ PUSH2 0x498 JUMPI DUP1 PUSH4 0xA9059CBB EQ PUSH2 0x4C8 JUMPI DUP1 PUSH4 0xD5ABEB01 EQ PUSH2 0x4F8 JUMPI PUSH2 0x18E JUMP JUMPDEST DUP1 PUSH4 0x4C496D4F EQ PUSH2 0x3A9 JUMPI DUP1 PUSH4 0x70A08231 EQ PUSH2 0x3CC JUMPI DUP1 PUSH4 0x79EC5D3A EQ PUSH2 0x3FC JUMPI DUP1 PUSH4 0x817B1CD2 EQ PUSH2 0x42C JUMPI DUP1 PUSH4 0x95D89B41 EQ PUSH2 0x44A JUMPI DUP1 PUSH4 0x96B75B1A EQ PUSH2 0x468 JUMPI PUSH2 0x18E JUMP JUMPDEST DUP1 PUSH4 0x23B872DD GT PUSH2 0x14B JUMPI DUP1 PUSH4 0x40C10F19 GT PUSH2 0x125 JUMPI DUP1 PUSH4 0x40C10F19 EQ PUSH2 0x2FB JUMPI DUP1 PUSH4 0x42623360 EQ PUSH2 0x32B JUMPI DUP1 PUSH4 0x42966C68 EQ PUSH2 0x35B JUMPI DUP1 PUSH4 0x4BF365DF EQ PUSH2 0x38B JUMPI PUSH2 0x18E JUMP JUMPDEST DUP1 PUSH4 0x23B872DD EQ PUSH2 0x27D JUMPI DUP1 PUSH4 0x2E17DE78 EQ PUSH2 0x2AD JUMPI DUP1 PUSH4 0x313CE567 EQ PUSH2 0x2DD JUMPI PUSH2 0x18E JUMP JUMPDEST DUP1 PUSH4 0x15AF8EE EQ PUSH2 0x193 JUMPI DUP1 PUSH4 0x6FDDE03 EQ PUSH2 0x1C3 JUMPI DUP1 PUSH4 0x95EA7B3 EQ PUSH2 0x1E1 JUMPI DUP1 PUSH4 0xD15FD77 EQ PUSH2 0x211 JUMPI DUP1 PUSH4 0x18160DDD EQ PUSH2 0x22F JUMPI DUP1 PUSH4 0x1C1B8772 EQ PUSH2 0x24D JUMPI JUMPDEST PUSH1 0x0 DUP1 REVERT JUMPDEST PUSH2 0x1AD PUSH1 0x4 DUP1 CALLDATASIZE SUB DUP2 ADD SWAP1 PUSH2 0x1A8 SWAP2 SWAP1 PUSH2 0x2329 JUMP JUMPDEST PUSH2 0x5D6 JUMP JUMPDEST PUSH1 0x40 MLOAD PUSH2 0x1BA SWAP2 SWAP1 PUSH2 0x2384 JUMP JUMPDEST PUSH1 0x40 MLOAD DUP1 SWAP2 SUB SWAP1 RETURN JUMPDEST PUSH2 0x1CB PUSH2 0x71D JUMP JUMPDEST PUSH1 0x40 MLOAD PUSH2 0x1D8 SWAP2 SWAP1 PUSH2 0x242F JUMP JUMPDEST PUSH1 0x40 MLOAD DUP1 SWAP2 SUB SWAP1 RETURN JUMPDEST PUSH2 0x1FB PUSH1 0x4 DUP1 CALLDATASIZE SUB DUP2 ADD SWAP1 PUSH2 0x1F6 SWAP2 SWAP1 PUSH2 0x24AF JUMP JUMPDEST PUSH2 0x7B2 JUMP JUMPDEST PUSH1 0x40 MLOAD PUSH2 0x208 SWAP2 SWAP1 PUSH2 0x2384 JUMP JUMPDEST PUSH1 0x40 MLOAD DUP1 SWAP2 SUB SWAP1 RETURN JUMPDEST PUSH2 0x219 PUSH2 0x91C JUMP JUMPDEST PUSH1 0x40 MLOAD PUSH2 0x226 SWAP2 SWAP1 PUSH2 0x24FE JUMP JUMPDEST PUSH1 0x40 MLOAD DUP1 SWAP2 SUB SWAP1 RETURN JUMPDEST PUSH2 0x237 PUSH2 0x928 JUMP JUMPDEST PUSH1 0x40 MLOAD PUSH2 0x244 SWAP2 SWAP1 PUSH2 0x24FE JUMP JUMPDEST PUSH1 0x40 MLOAD DUP1 SWAP2 SUB SWAP1 RETURN JUMPDEST PUSH2 0x267 PUSH1 0x4 DUP1 CALLDATASIZE SUB DUP2 ADD SWAP1 PUSH2 0x262 SWAP2 SWAP1 PUSH2 0x2519 JUMP JUMPDEST PUSH2 0x935 JUMP JUMPDEST PUSH1 0x40 MLOAD PUSH2 0x274 SWAP2 SWAP1 PUSH2 0x2384 JUMP JUMPDEST PUSH1 0x40 MLOAD DUP1 SWAP2 SUB SWAP1 RETURN JUMPDEST PUSH2 0x297 PUSH1 0x4 DUP1 CALLDATASIZE SUB DUP2 ADD SWAP1 PUSH2 0x292 SWAP2 SWAP1 PUSH2 0x2546 JUMP JUMPDEST PUSH2 0xA92 JUMP JUMPDEST PUSH1 0x40 MLOAD PUSH2 0x2A4 SWAP2 SWAP1 PUSH2 0x2384 JUMP JUMPDEST PUSH1 0x40 MLOAD DUP1 SWAP2 SUB SWAP1 RETURN JUMPDEST PUSH2 0x2C7 PUSH1 0x4 DUP1 CALLDATASIZE SUB DUP2 ADD SWAP1 PUSH2 0x2C2 SWAP2 SWAP1 PUSH2 0x2599 JUMP JUMPDEST PUSH2 0xC17 JUMP JUMPDEST PUSH1 0x40 MLOAD PUSH2 0x2D4 SWAP2 SWAP1 PUSH2 0x2384 JUMP JUMPDEST PUSH1 0x40 MLOAD DUP1 SWAP2 SUB SWAP1 RETURN JUMPDEST PUSH2 0x2E5 PUSH2 0xDAC JUMP JUMPDEST PUSH1 0x40 MLOAD PUSH2 0x2F2 SWAP2 SWAP1 PUSH2 0x25E2 JUMP JUMPDEST PUSH1 0x40 MLOAD DUP1 SWAP2 SUB SWAP1 RETURN JUMPDEST PUSH2 0x315 PUSH1 0x4 DUP1 CALLDATASIZE SUB DUP2 ADD SWAP1 PUSH2 0x310 SWAP2 SWAP1 PUSH2 0x24AF JUMP JUMPDEST PUSH2 0xDC6 JUMP JUMPDEST PUSH1 0x40 MLOAD PUSH2 0x322 SWAP2 SWAP1 PUSH2 0x2384 JUMP JUMPDEST PUSH1 0x40 MLOAD DUP1 SWAP2 SUB SWAP1 RETURN JUMPDEST PUSH2 0x345 PUSH1 0x4 DUP1 CALLDATASIZE SUB DUP2 ADD SWAP1 PUSH2 0x340 SWAP2 SWAP1 PUSH2 0x2519 JUMP JUMPDEST PUSH2 0xE6B JUMP JUMPDEST PUSH1 0x40 MLOAD PUSH2 0x352 SWAP2 SWAP1 PUSH2 0x24FE JUMP JUMPDEST PUSH1 0x40 MLOAD DUP1 SWAP2 SUB SWAP1 RETURN JUMPDEST PUSH2 0x375 PUSH1 0x4 DUP1 CALLDATASIZE SUB DUP2 ADD SWAP1 PUSH2 0x370 SWAP2 SWAP1 PUSH2 0x2599 JUMP JUMPDEST PUSH2 0xEB4 JUMP JUMPDEST PUSH1 0x40 MLOAD PUSH2 0x382 SWAP2 SWAP1 PUSH2 0x2384 JUMP JUMPDEST PUSH1 0x40 MLOAD DUP1 SWAP2 SUB SWAP1 RETURN JUMPDEST PUSH2 0x393 PUSH2 0xF5E JUMP JUMPDEST PUSH1 0x40 MLOAD PUSH2 0x3A0 SWAP2 SWAP1 PUSH2 0x24FE JUMP JUMPDEST PUSH1 0x40 MLOAD DUP1 SWAP2 SUB SWAP1 RETURN JUMPDEST PUSH2 0x3B1 PUSH2 0xF6B JUMP JUMPDEST PUSH1 0x40 MLOAD PUSH2 0x3C3 SWAP7 SWAP6 SWAP5 SWAP4 SWAP3 SWAP2 SWAP1 PUSH2 0x25FD JUMP JUMPDEST PUSH1 0x40 MLOAD DUP1 SWAP2 SUB SWAP1 RETURN JUMPDEST PUSH2 0x3E6 PUSH1 0x4 DUP1 CALLDATASIZE SUB DUP2 ADD SWAP1 PUSH2 0x3E1 SWAP2 SWAP1 PUSH2 0x2519 JUMP JUMPDEST PUSH2 0x1061 JUMP JUMPDEST PUSH1 0x40 MLOAD PUSH2 0x3F3 SWAP2 SWAP1 PUSH2 0x24FE JUMP JUMPDEST PUSH1 0x40 MLOAD DUP1 SWAP2 SUB SWAP1 RETURN JUMPDEST PUSH2 0x416 PUSH1 0x4 DUP1 CALLDATASIZE SUB DUP2 ADD SWAP1 PUSH2 0x411 SWAP2 SWAP1 PUSH2 0x2519 JUMP JUMPDEST PUSH2 0x10AA JUMP JUMPDEST PUSH1 0x40 MLOAD PUSH2 0x423 SWAP2 SWAP1 PUSH2 0x24FE JUMP JUMPDEST PUSH1 0x40 MLOAD DUP1 SWAP2 SUB SWAP1 RETURN JUMPDEST PUSH2 0x434 PUSH2 0x10F3 JUMP JUMPDEST PUSH1 0x40 MLOAD PUSH2 0x441 SWAP2 SWAP1 PUSH2 0x24FE JUMP JUMPDEST PUSH1 0x40 MLOAD DUP1 SWAP2 SUB SWAP1 RETURN JUMPDEST PUSH2 0x452 PUSH2 0x1100 JUMP JUMPDEST PUSH1 0x40 MLOAD PUSH2 0x45F SWAP2 SWAP1 PUSH2 0x242F JUMP JUMPDEST PUSH1 0x40 MLOAD DUP1 SWAP2 SUB SWAP1 RETURN JUMPDEST PUSH2 0x482 PUSH1 0x4 DUP1 CALLDATASIZE SUB DUP2 ADD SWAP1 PUSH2 0x47D SWAP2 SWAP1 PUSH2 0x2519 JUMP JUMPDEST PUSH2 0x1195 JUMP JUMPDEST PUSH1 0x40 MLOAD PUSH2 0x48F SWAP2 SWAP1 PUSH2 0x2384 JUMP JUMPDEST PUSH1 0x40 MLOAD DUP1 SWAP2 SUB SWAP1 RETURN JUMPDEST PUSH2 0x4B2 PUSH1 0x4 DUP1 CALLDATASIZE SUB DUP2 ADD SWAP1 PUSH2 0x4AD SWAP2 SWAP1 PUSH2 0x2599 JUMP JUMPDEST PUSH2 0x131F JUMP JUMPDEST PUSH1 0x40 MLOAD PUSH2 0x4BF SWAP2 SWAP1 PUSH2 0x2384 JUMP JUMPDEST PUSH1 0x40 MLOAD DUP1 SWAP2 SUB SWAP1 RETURN JUMPDEST PUSH2 0x4E2 PUSH1 0x4 DUP1 CALLDATASIZE SUB DUP2 ADD SWAP1 PUSH2 0x4DD SWAP2 SWAP1 PUSH2 0x24AF JUMP JUMPDEST PUSH2 0x1468 JUMP JUMPDEST PUSH1 0x40 MLOAD PUSH2 0x4EF SWAP2 SWAP1 PUSH2 0x2384 JUMP JUMPDEST PUSH1 0x40 MLOAD DUP1 SWAP2 SUB SWAP1 RETURN JUMPDEST PUSH2 0x500 PUSH2 0x14A4 JUMP JUMPDEST PUSH1 0x40 MLOAD PUSH2 0x50D SWAP2 SWAP1 PUSH2 0x24FE JUMP JUMPDEST PUSH1 0x40 MLOAD DUP1 SWAP2 SUB SWAP1 RETURN JUMPDEST PUSH2 0x530 PUSH1 0x4 DUP1 CALLDATASIZE SUB DUP2 ADD SWAP1 PUSH2 0x52B SWAP2 SWAP1 PUSH2 0x2519 JUMP JUMPDEST PUSH2 0x14B1 JUMP JUMPDEST PUSH1 0x40 MLOAD PUSH2 0x53D SWAP2 SWAP1 PUSH2 0x2384 JUMP JUMPDEST PUSH1 0x40 MLOAD DUP1 SWAP2 SUB SWAP1 RETURN JUMPDEST PUSH2 0x560 PUSH1 0x4 DUP1 CALLDATASIZE SUB DUP2 ADD SWAP1 PUSH2 0x55B SWAP2 SWAP1 PUSH2 0x265E JUMP JUMPDEST PUSH2 0x163B JUMP JUMPDEST PUSH1 0x40 MLOAD PUSH2 0x56D SWAP2 SWAP1 PUSH2 0x24FE JUMP JUMPDEST PUSH1 0x40 MLOAD DUP1 SWAP2 SUB SWAP1 RETURN JUMPDEST PUSH2 0x590 PUSH1 0x4 DUP1 CALLDATASIZE SUB DUP2 ADD SWAP1 PUSH2 0x58B SWAP2 SWAP1 PUSH2 0x27D3 JUMP JUMPDEST PUSH2 0x16C2 JUMP JUMPDEST PUSH1 0x40 MLOAD PUSH2 0x59D SWAP2 SWAP1 PUSH2 0x2384 JUMP JUMPDEST PUSH1 0x40 MLOAD DUP1 SWAP2 SUB SWAP1 RETURN JUMPDEST PUSH2 0x5C0 PUSH1 0x4 DUP1 CALLDATASIZE SUB DUP2 ADD SWAP1 PUSH2 0x5BB SWAP2 SWAP1 PUSH2 0x2856 JUMP JUMPDEST PUSH2 0x176B JUMP JUMPDEST PUSH1 0x40 MLOAD PUSH2 0x5CD SWAP2 SWAP1 PUSH2 0x2384 JUMP JUMPDEST PUSH1 0x40 MLOAD DUP1 SWAP2 SUB SWAP1 RETURN JUMPDEST PUSH1 0x0 PUSH1 0x1 ISZERO ISZERO PUSH1 0x0 DUP1 CALLER PUSH20 0xFFFFFFFFFFFFFFFFFFFFFFFFFFFFFFFFFFFFFFFF AND PUSH20 0xFFFFFFFFFFFFFFFFFFFFFFFFFFFFFFFFFFFFFFFF AND DUP2 MSTORE PUSH1 0x20 ADD SWAP1 DUP2 MSTORE PUSH1 0x20 ADD PUSH1 0x0 KECCAK256 PUSH1 0x0 SWAP1 SLOAD SWAP1 PUSH2 0x100 EXP SWAP1 DIV PUSH1 0xFF AND ISZERO ISZERO EQ PUSH2 0x66A JUMPI PUSH1 0x40 MLOAD PUSH32 0x8C379A000000000000000000000000000000000000000000000000000000000 DUP2 MSTORE PUSH1 0x4 ADD PUSH2 0x661 SWAP1 PUSH2 0x28EB JUMP JUMPDEST PUSH1 0x40 MLOAD DUP1 SWAP2 SUB SWAP1 REVERT JUMPDEST PUSH1 0x0 PUSH1 0x1 PUSH1 0x0 ADD SLOAD SWAP1 POP PUSH1 0x0 PUSH1 0x1 DUP1 ADD SLOAD SWAP1 POP PUSH1 0x0 PUSH1 0x1 PUSH1 0x2 ADD SLOAD SWAP1 POP PUSH1 0x0 PUSH1 0x1 PUSH1 0x3 ADD SLOAD SWAP1 POP DUP4 DUP8 LT ISZERO DUP1 ISZERO PUSH2 0x6A1 JUMPI POP DUP2 DUP8 GT ISZERO JUMPDEST DUP1 ISZERO PUSH2 0x6AD JUMPI POP DUP3 DUP7 LT ISZERO JUMPDEST DUP1 ISZERO PUSH2 0x6B9 JUMPI POP DUP1 DUP7 GT ISZERO JUMPDEST PUSH2 0x6C2 JUMPI PUSH1 0x0 DUP1 REVERT JUMPDEST DUP7 PUSH1 0x1 PUSH1 0x4 ADD DUP2 SWAP1 SSTORE POP DUP6 PUSH1 0x1 PUSH1 0x5 ADD DUP2 SWAP1 SSTORE POP PUSH32 0xF710D5C0FED44ACA6B7E44715976F68B87187F4A4D505F8C14731A5C3906E9B9 DUP8 DUP8 PUSH1 0x40 MLOAD PUSH2 0x707 SWAP3 SWAP2 SWAP1 PUSH2 0x290B JUMP JUMPDEST PUSH1 0x40 MLOAD DUP1 SWAP2 SUB SWAP1 LOG1 PUSH1 0x1 SWAP5 POP POP POP POP POP SWAP3 SWAP2 POP POP JUMP JUMPDEST PUSH1 0x60 PUSH1 0x7 PUSH1 0x0 ADD DUP1 SLOAD PUSH2 0x72F SWAP1 PUSH2 0x2963 JUMP JUMPDEST DUP1 PUSH1 0x1F ADD PUSH1 0x20 DUP1 SWAP2 DIV MUL PUSH1 0x20 ADD PUSH1 0x40 MLOAD SWAP1 DUP2 ADD PUSH1 0x40 MSTORE DUP1 SWAP3 SWAP2 SWAP1 DUP2 DUP2 MSTORE PUSH1 0x20 ADD DUP3 DUP1 SLOAD PUSH2 0x75B SWAP1 PUSH2 0x2963 JUMP JUMPDEST DUP1 ISZERO PUSH2 0x7A8 JUMPI DUP1 PUSH1 0x1F LT PUSH2 0x77D JUMPI PUSH2 0x100 DUP1 DUP4 SLOAD DIV MUL DUP4 MSTORE SWAP2 PUSH1 0x20 ADD SWAP2 PUSH2 0x7A8 JUMP JUMPDEST DUP3 ADD SWAP2 SWAP1 PUSH1 0x0 MSTORE PUSH1 0x20 PUSH1 0x0 KECCAK256 SWAP1 JUMPDEST DUP2 SLOAD DUP2 MSTORE SWAP1 PUSH1 0x1 ADD SWAP1 PUSH1 0x20 ADD DUP1 DUP4 GT PUSH2 0x78B JUMPI DUP3 SWAP1 SUB PUSH1 0x1F AND DUP3 ADD SWAP2 JUMPDEST POP POP POP POP POP SWAP1 POP SWAP1 JUMP JUMPDEST PUSH1 0x0 DUP1 CALLER SWAP1 POP PUSH1 0x0 PUSH20 0xFFFFFFFFFFFFFFFFFFFFFFFFFFFFFFFFFFFFFFFF AND DUP2 PUSH20 0xFFFFFFFFFFFFFFFFFFFFFFFFFFFFFFFFFFFFFFFF AND EQ ISZERO DUP1 ISZERO PUSH2 0x822 JUMPI POP PUSH1 0x0 PUSH20 0xFFFFFFFFFFFFFFFFFFFFFFFFFFFFFFFFFFFFFFFF AND DUP5 PUSH20 0xFFFFFFFFFFFFFFFFFFFFFFFFFFFFFFFFFFFFFFFF AND EQ ISZERO JUMPDEST PUSH2 0x82B JUMPI PUSH1 0x0 DUP1 REVERT JUMPDEST DUP3 PUSH1 0x14 PUSH1 0x0 DUP4 PUSH20 0xFFFFFFFFFFFFFFFFFFFFFFFFFFFFFFFFFFFFFFFF AND PUSH20 0xFFFFFFFFFFFFFFFFFFFFFFFFFFFFFFFFFFFFFFFF AND DUP2 MSTORE PUSH1 0x20 ADD SWAP1 DUP2 MSTORE PUSH1 0x20 ADD PUSH1 0x0 KECCAK256 PUSH1 0x0 DUP7 PUSH20 0xFFFFFFFFFFFFFFFFFFFFFFFFFFFFFFFFFFFFFFFF AND PUSH20 0xFFFFFFFFFFFFFFFFFFFFFFFFFFFFFFFFFFFFFFFF AND DUP2 MSTORE PUSH1 0x20 ADD SWAP1 DUP2 MSTORE PUSH1 0x20 ADD PUSH1 0x0 KECCAK256 DUP2 SWAP1 SSTORE POP DUP4 PUSH20 0xFFFFFFFFFFFFFFFFFFFFFFFFFFFFFFFFFFFFFFFF AND DUP2 PUSH20 0xFFFFFFFFFFFFFFFFFFFFFFFFFFFFFFFFFFFFFFFF AND PUSH32 0x8C5BE1E5EBEC7D5BD14F71427D1E84F3DD0314C0F7B2291E5B200AC8C7C3B925 DUP6 PUSH1 0x40 MLOAD PUSH2 0x909 SWAP2 SWAP1 PUSH2 0x24FE JUMP JUMPDEST PUSH1 0x40 MLOAD DUP1 SWAP2 SUB SWAP1 LOG3 PUSH1 0x1 SWAP2 POP POP SWAP3 SWAP2 POP POP JUMP JUMPDEST PUSH1 0x0 PUSH1 0x7 DUP1 ADD SLOAD SWAP1 POP SWAP1 JUMP JUMPDEST PUSH1 0x0 PUSH1 0x7 PUSH1 0x4 ADD SLOAD SWAP1 POP SWAP1 JUMP JUMPDEST PUSH1 0x0 PUSH1 0x1 ISZERO ISZERO PUSH1 0x0 DUP1 CALLER PUSH20 0xFFFFFFFFFFFFFFFFFFFFFFFFFFFFFFFFFFFFFFFF AND PUSH20 0xFFFFFFFFFFFFFFFFFFFFFFFFFFFFFFFFFFFFFFFF AND DUP2 MSTORE PUSH1 0x20 ADD SWAP1 DUP2 MSTORE PUSH1 0x20 ADD PUSH1 0x0 KECCAK256 PUSH1 0x0 SWAP1 SLOAD SWAP1 PUSH2 0x100 EXP SWAP1 DIV PUSH1 0xFF AND ISZERO ISZERO EQ PUSH2 0x9C9 JUMPI PUSH1 0x40 MLOAD PUSH32 0x8C379A000000000000000000000000000000000000000000000000000000000 DUP2 MSTORE PUSH1 0x4 ADD PUSH2 0x9C0 SWAP1 PUSH2 0x28EB JUMP JUMPDEST PUSH1 0x40 MLOAD DUP1 SWAP2 SUB SWAP1 REVERT JUMPDEST PUSH1 0x0 PUSH20 0xFFFFFFFFFFFFFFFFFFFFFFFFFFFFFFFFFFFFFFFF AND DUP3 PUSH20 0xFFFFFFFFFFFFFFFFFFFFFFFFFFFFFFFFFFFFFFFF AND SUB PUSH2 0xA02 JUMPI PUSH1 0x0 DUP1 REVERT JUMPDEST DUP2 PUSH1 0x7 PUSH1 0x9 ADD PUSH1 0x0 PUSH2 0x100 EXP DUP2 SLOAD DUP2 PUSH20 0xFFFFFFFFFFFFFFFFFFFFFFFFFFFFFFFFFFFFFFFF MUL NOT AND SWAP1 DUP4 PUSH20 0xFFFFFFFFFFFFFFFFFFFFFFFFFFFFFFFFFFFFFFFF AND MUL OR SWAP1 SSTORE POP DUP2 PUSH20 0xFFFFFFFFFFFFFFFFFFFFFFFFFFFFFFFFFFFFFFFF AND PUSH32 0xD456720FD185D4060F5CEA4D82775D2AF95048C1E10F227EC35BAE950A4BE2A8 PUSH1 0x40 MLOAD PUSH1 0x40 MLOAD DUP1 SWAP2 SUB SWAP1 LOG2 PUSH1 0x1 SWAP1 POP SWAP2 SWAP1 POP JUMP JUMPDEST PUSH1 0x0 DUP1 PUSH1 0x14 PUSH1 0x0 DUP7 PUSH20 0xFFFFFFFFFFFFFFFFFFFFFFFFFFFFFFFFFFFFFFFF AND PUSH20 0xFFFFFFFFFFFFFFFFFFFFFFFFFFFFFFFFFFFFFFFF AND DUP2 MSTORE PUSH1 0x20 ADD SWAP1 DUP2 MSTORE PUSH1 0x20 ADD PUSH1 0x0 KECCAK256 PUSH1 0x0 CALLER PUSH20 0xFFFFFFFFFFFFFFFFFFFFFFFFFFFFFFFFFFFFFFFF AND PUSH20 0xFFFFFFFFFFFFFFFFFFFFFFFFFFFFFFFFFFFFFFFF AND DUP2 MSTORE PUSH1 0x20 ADD SWAP1 DUP2 MSTORE PUSH1 0x20 ADD PUSH1 0x0 KECCAK256 SLOAD SWAP1 POP PUSH32 0xFFFFFFFFFFFFFFFFFFFFFFFFFFFFFFFFFFFFFFFFFFFFFFFFFFFFFFFFFFFFFFFF DUP2 EQ ISZERO DUP1 ISZERO PUSH2 0xB44 JUMPI POP DUP3 DUP2 LT ISZERO JUMPDEST PUSH2 0xB4D JUMPI PUSH1 0x0 DUP1 REVERT JUMPDEST DUP3 PUSH1 0x14 PUSH1 0x0 DUP8 PUSH20 0xFFFFFFFFFFFFFFFFFFFFFFFFFFFFFFFFFFFFFFFF AND PUSH20 0xFFFFFFFFFFFFFFFFFFFFFFFFFFFFFFFFFFFFFFFF AND DUP2 MSTORE PUSH1 0x20 ADD SWAP1 DUP2 MSTORE PUSH1 0x20 ADD PUSH1 0x0 KECCAK256 PUSH1 0x0 CALLER PUSH20 0xFFFFFFFFFFFFFFFFFFFFFFFFFFFFFFFFFFFFFFFF AND PUSH20 0xFFFFFFFFFFFFFFFFFFFFFFFFFFFFFFFFFFFFFFFF AND DUP2 MSTORE PUSH1 0x20 ADD SWAP1 DUP2 MSTORE PUSH1 0x20 ADD PUSH1 0x0 KECCAK256 PUSH1 0x0 DUP3 DUP3 SLOAD PUSH2 0xBD9 SWAP2 SWAP1 PUSH2 0x29C3 JUMP JUMPDEST SWAP3 POP POP DUP2 SWAP1 SSTORE POP PUSH1 0x0 PUSH1 0x1 PUSH1 0x4 ADD SLOAD SWAP1 POP PUSH1 0x0 PUSH1 0x1 PUSH1 0x5 ADD SLOAD SWAP1 POP PUSH1 0x0 DUP1 PUSH2 0xC04 DUP10 DUP10 DUP10 DUP8 DUP8 PUSH2 0x1916 JUMP JUMPDEST SWAP2 POP SWAP2 POP DUP2 SWAP6 POP POP POP POP POP POP SWAP4 SWAP3 POP POP POP JUMP JUMPDEST PUSH1 0x0 DUP1 PUSH1 0x7 PUSH1 0x9 ADD PUSH1 0x0 SWAP1 SLOAD SWAP1 PUSH2 0x100 EXP SWAP1 DIV PUSH20 0xFFFFFFFFFFFFFFFFFFFFFFFFFFFFFFFFFFFFFFFF AND SWAP1 POP PUSH1 0x0 CALLER SWAP1 POP PUSH1 0x0 PUSH1 0x1 PUSH1 0x4 ADD SLOAD SWAP1 POP PUSH1 0x0 PUSH1 0x1 PUSH1 0x5 ADD SLOAD SWAP1 POP PUSH1 0x12 PUSH1 0x0 DUP5 PUSH20 0xFFFFFFFFFFFFFFFFFFFFFFFFFFFFFFFFFFFFFFFF AND PUSH20 0xFFFFFFFFFFFFFFFFFFFFFFFFFFFFFFFFFFFFFFFF AND DUP2 MSTORE PUSH1 0x20 ADD SWAP1 DUP2 MSTORE PUSH1 0x20 ADD PUSH1 0x0 KECCAK256 SLOAD DUP7 GT ISZERO PUSH2 0xCA7 JUMPI PUSH1 0x0 DUP1 REVERT JUMPDEST PUSH1 0x0 DUP1 PUSH2 0xCB7 DUP7 DUP7 DUP11 DUP8 DUP8 PUSH2 0x1916 JUMP JUMPDEST SWAP2 POP SWAP2 POP DUP8 PUSH1 0x12 PUSH1 0x0 DUP8 PUSH20 0xFFFFFFFFFFFFFFFFFFFFFFFFFFFFFFFFFFFFFFFF AND PUSH20 0xFFFFFFFFFFFFFFFFFFFFFFFFFFFFFFFFFFFFFFFF AND DUP2 MSTORE PUSH1 0x20 ADD SWAP1 DUP2 MSTORE PUSH1 0x20 ADD PUSH1 0x0 KECCAK256 PUSH1 0x0 DUP3 DUP3 SLOAD PUSH2 0xD0A SWAP2 SWAP1 PUSH2 0x29C3 JUMP JUMPDEST SWAP3 POP POP DUP2 SWAP1 SSTORE POP DUP8 PUSH1 0x13 PUSH1 0x0 DUP8 PUSH20 0xFFFFFFFFFFFFFFFFFFFFFFFFFFFFFFFFFFFFFFFF AND PUSH20 0xFFFFFFFFFFFFFFFFFFFFFFFFFFFFFFFFFFFFFFFF AND DUP2 MSTORE PUSH1 0x20 ADD SWAP1 DUP2 MSTORE PUSH1 0x20 ADD PUSH1 0x0 KECCAK256 PUSH1 0x0 DUP3 DUP3 SLOAD PUSH2 0xD60 SWAP2 SWAP1 PUSH2 0x29C3 JUMP JUMPDEST SWAP3 POP POP DUP2 SWAP1 SSTORE POP DUP8 PUSH1 0x7 PUSH1 0x5 ADD PUSH1 0x0 DUP3 DUP3 SLOAD PUSH2 0xD7C SWAP2 SWAP1 PUSH2 0x29C3 JUMP JUMPDEST SWAP3 POP POP DUP2 SWAP1 SSTORE POP DUP8 PUSH1 0x7 DUP1 ADD PUSH1 0x0 DUP3 DUP3 SLOAD PUSH2 0xD97 SWAP2 SWAP1 PUSH2 0x29C3 JUMP JUMPDEST SWAP3 POP POP DUP2 SWAP1 SSTORE POP DUP2 SWAP7 POP POP POP POP POP POP POP SWAP2 SWAP1 POP JUMP JUMPDEST PUSH1 0x0 PUSH1 0x7 PUSH1 0x2 ADD PUSH1 0x0 SWAP1 SLOAD SWAP1 PUSH2 0x100 EXP SWAP1 DIV PUSH1 0xFF AND SWAP1 POP SWAP1 JUMP JUMPDEST PUSH1 0x0 PUSH1 0x1 ISZERO ISZERO PUSH1 0x0 DUP1 CALLER PUSH20 0xFFFFFFFFFFFFFFFFFFFFFFFFFFFFFFFFFFFFFFFF AND PUSH20 0xFFFFFFFFFFFFFFFFFFFFFFFFFFFFFFFFFFFFFFFF AND DUP2 MSTORE PUSH1 0x20 ADD SWAP1 DUP2 MSTORE PUSH1 0x20 ADD PUSH1 0x0 KECCAK256 PUSH1 0x0 SWAP1 SLOAD SWAP1 PUSH2 0x100 EXP SWAP1 DIV PUSH1 0xFF AND ISZERO ISZERO EQ PUSH2 0xE5A JUMPI PUSH1 0x40 MLOAD PUSH32 0x8C379A000000000000000000000000000000000000000000000000000000000 DUP2 MSTORE PUSH1 0x4 ADD PUSH2 0xE51 SWAP1 PUSH2 0x28EB JUMP JUMPDEST PUSH1 0x40 MLOAD DUP1 SWAP2 SUB SWAP1 REVERT JUMPDEST PUSH2 0xE64 DUP4 DUP4 PUSH2 0x1D43 JUMP JUMPDEST POP SWAP3 SWAP2 POP POP JUMP JUMPDEST PUSH1 0x0 PUSH1 0x12 PUSH1 0x0 DUP4 PUSH20 0xFFFFFFFFFFFFFFFFFFFFFFFFFFFFFFFFFFFFFFFF AND PUSH20 0xFFFFFFFFFFFFFFFFFFFFFFFFFFFFFFFFFFFFFFFF AND DUP2 MSTORE PUSH1 0x20 ADD SWAP1 DUP2 MSTORE PUSH1 0x20 ADD PUSH1 0x0 KECCAK256 SLOAD SWAP1 POP SWAP2 SWAP1 POP JUMP JUMPDEST PUSH1 0x0 PUSH1 0x1 ISZERO ISZERO PUSH1 0x0 DUP1 CALLER PUSH20 0xFFFFFFFFFFFFFFFFFFFFFFFFFFFFFFFFFFFFFFFF AND PUSH20 0xFFFFFFFFFFFFFFFFFFFFFFFFFFFFFFFFFFFFFFFF AND DUP2 MSTORE PUSH1 0x20 ADD SWAP1 DUP2 MSTORE PUSH1 0x20 ADD PUSH1 0x0 KECCAK256 PUSH1 0x0 SWAP1 SLOAD SWAP1 PUSH2 0x100 EXP SWAP1 DIV PUSH1 0xFF AND ISZERO ISZERO EQ PUSH2 0xF48 JUMPI PUSH1 0x40 MLOAD PUSH32 0x8C379A000000000000000000000000000000000000000000000000000000000 DUP2 MSTORE PUSH1 0x4 ADD PUSH2 0xF3F SWAP1 PUSH2 0x28EB JUMP JUMPDEST PUSH1 0x40 MLOAD DUP1 SWAP2 SUB SWAP1 REVERT JUMPDEST PUSH1 0x0 CALLER SWAP1 POP PUSH2 0xF57 DUP2 DUP5 PUSH2 0x1EA0 JUMP JUMPDEST POP POP SWAP2 SWAP1 POP JUMP JUMPDEST PUSH1 0x0 PUSH1 0x7 PUSH1 0x3 ADD SLOAD SWAP1 POP SWAP1 JUMP JUMPDEST PUSH1 0x0 DUP1 PUSH1 0x0 DUP1 PUSH1 0x0 DUP1 PUSH1 0x1 ISZERO ISZERO PUSH1 0x0 DUP1 CALLER PUSH20 0xFFFFFFFFFFFFFFFFFFFFFFFFFFFFFFFFFFFFFFFF AND PUSH20 0xFFFFFFFFFFFFFFFFFFFFFFFFFFFFFFFFFFFFFFFF AND DUP2 MSTORE PUSH1 0x20 ADD SWAP1 DUP2 MSTORE PUSH1 0x20 ADD PUSH1 0x0 KECCAK256 PUSH1 0x0 SWAP1 SLOAD SWAP1 PUSH2 0x100 EXP SWAP1 DIV PUSH1 0xFF AND ISZERO ISZERO EQ PUSH2 0x1006 JUMPI PUSH1 0x40 MLOAD PUSH32 0x8C379A000000000000000000000000000000000000000000000000000000000 DUP2 MSTORE PUSH1 0x4 ADD PUSH2 0xFFD SWAP1 PUSH2 0x28EB JUMP JUMPDEST PUSH1 0x40 MLOAD DUP1 SWAP2 SUB SWAP1 REVERT JUMPDEST PUSH1 0x0 PUSH1 0x1 PUSH1 0x4 ADD SLOAD SWAP1 POP PUSH1 0x0 PUSH1 0x1 PUSH1 0x5 ADD SLOAD SWAP1 POP PUSH1 0x0 PUSH1 0x1 PUSH1 0x0 ADD SLOAD SWAP1 POP PUSH1 0x0 PUSH1 0x1 DUP1 ADD SLOAD SWAP1 POP PUSH1 0x0 PUSH1 0x1 PUSH1 0x2 ADD SLOAD SWAP1 POP PUSH1 0x0 PUSH1 0x1 PUSH1 0x3 ADD SLOAD SWAP1 POP DUP6 DUP6 DUP6 DUP6 DUP6 DUP6 SWAP12 POP SWAP12 POP SWAP12 POP SWAP12 POP SWAP12 POP SWAP12 POP POP POP POP POP POP POP SWAP1 SWAP2 SWAP3 SWAP4 SWAP5 SWAP6 JUMP JUMPDEST PUSH1 0x0 PUSH1 0x11 PUSH1 0x0 DUP4 PUSH20 0xFFFFFFFFFFFFFFFFFFFFFFFFFFFFFFFFFFFFFFFF AND PUSH20 0xFFFFFFFFFFFFFFFFFFFFFFFFFFFFFFFFFFFFFFFF AND DUP2 MSTORE PUSH1 0x20 ADD SWAP1 DUP2 MSTORE PUSH1 0x20 ADD PUSH1 0x0 KECCAK256 SLOAD SWAP1 POP SWAP2 SWAP1 POP JUMP JUMPDEST PUSH1 0x0 PUSH1 0x13 PUSH1 0x0 DUP4 PUSH20 0xFFFFFFFFFFFFFFFFFFFFFFFFFFFFFFFFFFFFFFFF AND PUSH20 0xFFFFFFFFFFFFFFFFFFFFFFFFFFFFFFFFFFFFFFFF AND DUP2 MSTORE PUSH1 0x20 ADD SWAP1 DUP2 MSTORE PUSH1 0x20 ADD PUSH1 0x0 KECCAK256 SLOAD SWAP1 POP SWAP2 SWAP1 POP JUMP JUMPDEST PUSH1 0x0 PUSH1 0x7 PUSH1 0x5 ADD SLOAD SWAP1 POP SWAP1 JUMP JUMPDEST PUSH1 0x60 PUSH1 0x7 PUSH1 0x1 ADD DUP1 SLOAD PUSH2 0x1112 SWAP1 PUSH2 0x2963 JUMP JUMPDEST DUP1 PUSH1 0x1F ADD PUSH1 0x20 DUP1 SWAP2 DIV MUL PUSH1 0x20 ADD PUSH1 0x40 MLOAD SWAP1 DUP2 ADD PUSH1 0x40 MSTORE DUP1 SWAP3 SWAP2 SWAP1 DUP2 DUP2 MSTORE PUSH1 0x20 ADD DUP3 DUP1 SLOAD PUSH2 0x113E SWAP1 PUSH2 0x2963 JUMP JUMPDEST DUP1 ISZERO PUSH2 0x118B JUMPI DUP1 PUSH1 0x1F LT PUSH2 0x1160 JUMPI PUSH2 0x100 DUP1 DUP4 SLOAD DIV MUL DUP4 MSTORE SWAP2 PUSH1 0x20 ADD SWAP2 PUSH2 0x118B JUMP JUMPDEST DUP3 ADD SWAP2 SWAP1 PUSH1 0x0 MSTORE PUSH1 0x20 PUSH1 0x0 KECCAK256 SWAP1 JUMPDEST DUP2 SLOAD DUP2 MSTORE SWAP1 PUSH1 0x1 ADD SWAP1 PUSH1 0x20 ADD DUP1 DUP4 GT PUSH2 0x116E JUMPI DUP3 SWAP1 SUB PUSH1 0x1F AND DUP3 ADD SWAP2 JUMPDEST POP POP POP POP POP SWAP1 POP SWAP1 JUMP JUMPDEST PUSH1 0x0 PUSH1 0x1 ISZERO ISZERO PUSH1 0x0 DUP1 CALLER PUSH20 0xFFFFFFFFFFFFFFFFFFFFFFFFFFFFFFFFFFFFFFFF AND PUSH20 0xFFFFFFFFFFFFFFFFFFFFFFFFFFFFFFFFFFFFFFFF AND DUP2 MSTORE PUSH1 0x20 ADD SWAP1 DUP2 MSTORE PUSH1 0x20 ADD PUSH1 0x0 KECCAK256 PUSH1 0x0 SWAP1 SLOAD SWAP1 PUSH2 0x100 EXP SWAP1 DIV PUSH1 0xFF AND ISZERO ISZERO EQ PUSH2 0x1229 JUMPI PUSH1 0x40 MLOAD PUSH32 0x8C379A000000000000000000000000000000000000000000000000000000000 DUP2 MSTORE PUSH1 0x4 ADD PUSH2 0x1220 SWAP1 PUSH2 0x28EB JUMP JUMPDEST PUSH1 0x40 MLOAD DUP1 SWAP2 SUB SWAP1 REVERT JUMPDEST PUSH1 0x0 PUSH20 0xFFFFFFFFFFFFFFFFFFFFFFFFFFFFFFFFFFFFFFFF AND DUP3 PUSH20 0xFFFFFFFFFFFFFFFFFFFFFFFFFFFFFFFFFFFFFFFF AND EQ ISZERO DUP1 ISZERO PUSH2 0x12B6 JUMPI POP PUSH1 0x1 ISZERO ISZERO PUSH1 0x0 DUP1 DUP5 PUSH20 0xFFFFFFFFFFFFFFFFFFFFFFFFFFFFFFFFFFFFFFFF AND PUSH20 0xFFFFFFFFFFFFFFFFFFFFFFFFFFFFFFFFFFFFFFFF AND DUP2 MSTORE PUSH1 0x20 ADD SWAP1 DUP2 MSTORE PUSH1 0x20 ADD PUSH1 0x0 KECCAK256 PUSH1 0x0 SWAP1 SLOAD SWAP1 PUSH2 0x100 EXP SWAP1 DIV PUSH1 0xFF AND ISZERO ISZERO EQ ISZERO JUMPDEST PUSH2 0x12BF JUMPI PUSH1 0x0 DUP1 REVERT JUMPDEST PUSH1 0x1 PUSH1 0x0 DUP1 DUP5 PUSH20 0xFFFFFFFFFFFFFFFFFFFFFFFFFFFFFFFFFFFFFFFF AND PUSH20 0xFFFFFFFFFFFFFFFFFFFFFFFFFFFFFFFFFFFFFFFF AND DUP2 MSTORE PUSH1 0x20 ADD SWAP1 DUP2 MSTORE PUSH1 0x20 ADD PUSH1 0x0 KECCAK256 PUSH1 0x0 PUSH2 0x100 EXP DUP2 SLOAD DUP2 PUSH1 0xFF MUL NOT AND SWAP1 DUP4 ISZERO ISZERO MUL OR SWAP1 SSTORE POP PUSH1 0x1 SWAP1 POP SWAP2 SWAP1 POP JUMP JUMPDEST PUSH1 0x0 DUP1 CALLER SWAP1 POP PUSH1 0x0 PUSH1 0x7 PUSH1 0x9 ADD PUSH1 0x0 SWAP1 SLOAD SWAP1 PUSH2 0x100 EXP SWAP1 DIV PUSH20 0xFFFFFFFFFFFFFFFFFFFFFFFFFFFFFFFFFFFFFFFF AND SWAP1 POP PUSH1 0x0 PUSH1 0x1 PUSH1 0x4 ADD SLOAD SWAP1 POP PUSH1 0x0 PUSH1 0x1 PUSH1 0x5 ADD SLOAD SWAP1 POP PUSH1 0x0 DUP1 PUSH2 0x1373 DUP7 DUP7 DUP11 DUP8 DUP8 PUSH2 0x1916 JUMP JUMPDEST SWAP2 POP SWAP2 POP DUP1 PUSH1 0x12 PUSH1 0x0 DUP9 PUSH20 0xFFFFFFFFFFFFFFFFFFFFFFFFFFFFFFFFFFFFFFFF AND PUSH20 0xFFFFFFFFFFFFFFFFFFFFFFFFFFFFFFFFFFFFFFFF AND DUP2 MSTORE PUSH1 0x20 ADD SWAP1 DUP2 MSTORE PUSH1 0x20 ADD PUSH1 0x0 KECCAK256 PUSH1 0x0 DUP3 DUP3 SLOAD PUSH2 0x13C6 SWAP2 SWAP1 PUSH2 0x29F7 JUMP JUMPDEST SWAP3 POP POP DUP2 SWAP1 SSTORE POP DUP1 PUSH1 0x13 PUSH1 0x0 DUP9 PUSH20 0xFFFFFFFFFFFFFFFFFFFFFFFFFFFFFFFFFFFFFFFF AND PUSH20 0xFFFFFFFFFFFFFFFFFFFFFFFFFFFFFFFFFFFFFFFF AND DUP2 MSTORE PUSH1 0x20 ADD SWAP1 DUP2 MSTORE PUSH1 0x20 ADD PUSH1 0x0 KECCAK256 PUSH1 0x0 DUP3 DUP3 SLOAD PUSH2 0x141C SWAP2 SWAP1 PUSH2 0x29F7 JUMP JUMPDEST SWAP3 POP POP DUP2 SWAP1 SSTORE POP DUP1 PUSH1 0x7 PUSH1 0x5 ADD PUSH1 0x0 DUP3 DUP3 SLOAD PUSH2 0x1438 SWAP2 SWAP1 PUSH2 0x29F7 JUMP JUMPDEST SWAP3 POP POP DUP2 SWAP1 SSTORE POP DUP1 PUSH1 0x7 DUP1 ADD PUSH1 0x0 DUP3 DUP3 SLOAD PUSH2 0x1453 SWAP2 SWAP1 PUSH2 0x29F7 JUMP JUMPDEST SWAP3 POP POP DUP2 SWAP1 SSTORE POP DUP2 SWAP7 POP POP POP POP POP POP POP SWAP2 SWAP1 POP JUMP JUMPDEST PUSH1 0x0 DUP1 CALLER SWAP1 POP PUSH1 0x0 PUSH1 0x1 PUSH1 0x4 ADD SLOAD SWAP1 POP PUSH1 0x0 PUSH1 0x1 PUSH1 0x5 ADD SLOAD SWAP1 POP PUSH1 0x0 DUP1 PUSH2 0x1492 DUP6 DUP10 DUP10 DUP8 DUP8 PUSH2 0x1916 JUMP JUMPDEST SWAP2 POP SWAP2 POP DUP2 SWAP6 POP POP POP POP POP POP SWAP3 SWAP2 POP POP JUMP JUMPDEST PUSH1 0x0 PUSH1 0x7 PUSH1 0x8 ADD SLOAD SWAP1 POP SWAP1 JUMP JUMPDEST PUSH1 0x0 PUSH1 0x1 ISZERO ISZERO PUSH1 0x0 DUP1 CALLER PUSH20 0xFFFFFFFFFFFFFFFFFFFFFFFFFFFFFFFFFFFFFFFF AND PUSH20 0xFFFFFFFFFFFFFFFFFFFFFFFFFFFFFFFFFFFFFFFF AND DUP2 MSTORE PUSH1 0x20 ADD SWAP1 DUP2 MSTORE PUSH1 0x20 ADD PUSH1 0x0 KECCAK256 PUSH1 0x0 SWAP1 SLOAD SWAP1 PUSH2 0x100 EXP SWAP1 DIV PUSH1 0xFF AND ISZERO ISZERO EQ PUSH2 0x1545 JUMPI PUSH1 0x40 MLOAD PUSH32 0x8C379A000000000000000000000000000000000000000000000000000000000 DUP2 MSTORE PUSH1 0x4 ADD PUSH2 0x153C SWAP1 PUSH2 0x28EB JUMP JUMPDEST PUSH1 0x40 MLOAD DUP1 SWAP2 SUB SWAP1 REVERT JUMPDEST PUSH1 0x0 PUSH20 0xFFFFFFFFFFFFFFFFFFFFFFFFFFFFFFFFFFFFFFFF AND DUP3 PUSH20 0xFFFFFFFFFFFFFFFFFFFFFFFFFFFFFFFFFFFFFFFF AND EQ ISZERO DUP1 ISZERO PUSH2 0x15D2 JUMPI POP PUSH1 0x0 ISZERO ISZERO PUSH1 0x0 DUP1 DUP5 PUSH20 0xFFFFFFFFFFFFFFFFFFFFFFFFFFFFFFFFFFFFFFFF AND PUSH20 0xFFFFFFFFFFFFFFFFFFFFFFFFFFFFFFFFFFFFFFFF AND DUP2 MSTORE PUSH1 0x20 ADD SWAP1 DUP2 MSTORE PUSH1 0x20 ADD PUSH1 0x0 KECCAK256 PUSH1 0x0 SWAP1 SLOAD SWAP1 PUSH2 0x100 EXP SWAP1 DIV PUSH1 0xFF AND ISZERO ISZERO EQ ISZERO JUMPDEST PUSH2 0x15DB JUMPI PUSH1 0x0 DUP1 REVERT JUMPDEST PUSH1 0x0 DUP1 PUSH1 0x0 DUP5 PUSH20 0xFFFFFFFFFFFFFFFFFFFFFFFFFFFFFFFFFFFFFFFF AND PUSH20 0xFFFFFFFFFFFFFFFFFFFFFFFFFFFFFFFFFFFFFFFF AND DUP2 MSTORE PUSH1 0x20 ADD SWAP1 DUP2 MSTORE PUSH1 0x20 ADD PUSH1 0x0 KECCAK256 PUSH1 0x0 PUSH2 0x100 EXP DUP2 SLOAD DUP2 PUSH1 0xFF MUL NOT AND SWAP1 DUP4 ISZERO ISZERO MUL OR SWAP1 SSTORE POP PUSH1 0x1 SWAP1 POP SWAP2 SWAP1 POP JUMP JUMPDEST PUSH1 0x0 PUSH1 0x14 PUSH1 0x0 DUP5 PUSH20 0xFFFFFFFFFFFFFFFFFFFFFFFFFFFFFFFFFFFFFFFF AND PUSH20 0xFFFFFFFFFFFFFFFFFFFFFFFFFFFFFFFFFFFFFFFF AND DUP2 MSTORE PUSH1 0x20 ADD SWAP1 DUP2 MSTORE PUSH1 0x20 ADD PUSH1 0x0 KECCAK256 PUSH1 0x0 DUP4 PUSH20 0xFFFFFFFFFFFFFFFFFFFFFFFFFFFFFFFFFFFFFFFF AND PUSH20 0xFFFFFFFFFFFFFFFFFFFFFFFFFFFFFFFFFFFFFFFF AND DUP2 MSTORE PUSH1 0x20 ADD SWAP1 DUP2 MSTORE PUSH1 0x20 ADD PUSH1 0x0 KECCAK256 SLOAD SWAP1 POP SWAP3 SWAP2 POP POP JUMP JUMPDEST PUSH1 0x0 PUSH1 0x1 ISZERO ISZERO PUSH1 0x0 DUP1 CALLER PUSH20 0xFFFFFFFFFFFFFFFFFFFFFFFFFFFFFFFFFFFFFFFF AND PUSH20 0xFFFFFFFFFFFFFFFFFFFFFFFFFFFFFFFFFFFFFFFF AND DUP2 MSTORE PUSH1 0x20 ADD SWAP1 DUP2 MSTORE PUSH1 0x20 ADD PUSH1 0x0 KECCAK256 PUSH1 0x0 SWAP1 SLOAD SWAP1 PUSH2 0x100 EXP SWAP1 DIV PUSH1 0xFF AND ISZERO ISZERO EQ PUSH2 0x1756 JUMPI PUSH1 0x40 MLOAD PUSH32 0x8C379A000000000000000000000000000000000000000000000000000000000 DUP2 MSTORE PUSH1 0x4 ADD PUSH2 0x174D SWAP1 PUSH2 0x28EB JUMP JUMPDEST PUSH1 0x40 MLOAD DUP1 SWAP2 SUB SWAP1 REVERT JUMPDEST PUSH2 0x1762 DUP6 DUP6 DUP6 DUP6 PUSH2 0x1FDC JUMP JUMPDEST POP SWAP5 SWAP4 POP POP POP POP JUMP JUMPDEST PUSH1 0x0 DUP1 PUSH1 0x7 PUSH1 0x9 ADD PUSH1 0x0 SWAP1 SLOAD SWAP1 PUSH2 0x100 EXP SWAP1 DIV PUSH20 0xFFFFFFFFFFFFFFFFFFFFFFFFFFFFFFFFFFFFFFFF AND SWAP1 POP PUSH1 0x0 CALLER SWAP1 POP PUSH1 0x0 PUSH1 0x15 PUSH1 0x0 DUP4 PUSH20 0xFFFFFFFFFFFFFFFFFFFFFFFFFFFFFFFFFFFFFFFF AND PUSH20 0xFFFFFFFFFFFFFFFFFFFFFFFFFFFFFFFFFFFFFFFF AND DUP2 MSTORE PUSH1 0x20 ADD SWAP1 DUP2 MSTORE PUSH1 0x20 ADD PUSH1 0x0 KECCAK256 DUP6 PUSH1 0x40 MLOAD PUSH2 0x17EA SWAP2 SWAP1 PUSH2 0x2A67 JUMP JUMPDEST SWAP1 DUP2 MSTORE PUSH1 0x20 ADD PUSH1 0x40 MLOAD DUP1 SWAP2 SUB SWAP1 KECCAK256 PUSH1 0x3 ADD SLOAD SWAP1 POP PUSH1 0x0 PUSH1 0x15 PUSH1 0x0 DUP5 PUSH20 0xFFFFFFFFFFFFFFFFFFFFFFFFFFFFFFFFFFFFFFFF AND PUSH20 0xFFFFFFFFFFFFFFFFFFFFFFFFFFFFFFFFFFFFFFFF AND DUP2 MSTORE PUSH1 0x20 ADD SWAP1 DUP2 MSTORE PUSH1 0x20 ADD PUSH1 0x0 KECCAK256 DUP7 PUSH1 0x40 MLOAD PUSH2 0x184D SWAP2 SWAP1 PUSH2 0x2A67 JUMP JUMPDEST SWAP1 DUP2 MSTORE PUSH1 0x20 ADD PUSH1 0x40 MLOAD DUP1 SWAP2 SUB SWAP1 KECCAK256 PUSH1 0x4 ADD SLOAD SWAP1 POP TIMESTAMP DUP3 LT ISZERO DUP1 ISZERO PUSH2 0x1871 JUMPI POP PUSH1 0x0 DUP2 GT JUMPDEST PUSH2 0x187A JUMPI PUSH1 0x0 DUP1 REVERT JUMPDEST PUSH1 0x0 PUSH1 0x1 PUSH1 0x4 ADD SLOAD SWAP1 POP PUSH1 0x0 PUSH1 0x1 PUSH1 0x5 ADD SLOAD SWAP1 POP PUSH1 0x0 DUP1 PUSH2 0x189E DUP9 DUP9 DUP8 DUP8 DUP8 PUSH2 0x1916 JUMP JUMPDEST SWAP2 POP SWAP2 POP PUSH1 0x0 PUSH1 0x15 PUSH1 0x0 DUP10 PUSH20 0xFFFFFFFFFFFFFFFFFFFFFFFFFFFFFFFFFFFFFFFF AND PUSH20 0xFFFFFFFFFFFFFFFFFFFFFFFFFFFFFFFFFFFFFFFF AND DUP2 MSTORE PUSH1 0x20 ADD SWAP1 DUP2 MSTORE PUSH1 0x20 ADD PUSH1 0x0 KECCAK256 DUP12 PUSH1 0x40 MLOAD PUSH2 0x18F1 SWAP2 SWAP1 PUSH2 0x2A67 JUMP JUMPDEST SWAP1 DUP2 MSTORE PUSH1 0x20 ADD PUSH1 0x40 MLOAD DUP1 SWAP2 SUB SWAP1 KECCAK256 PUSH1 0x4 ADD DUP2 SWAP1 SSTORE POP DUP2 SWAP9 POP POP POP POP POP POP POP POP POP SWAP2 SWAP1 POP JUMP JUMPDEST PUSH1 0x0 DUP1 PUSH1 0x0 PUSH20 0xFFFFFFFFFFFFFFFFFFFFFFFFFFFFFFFFFFFFFFFF AND DUP8 PUSH20 0xFFFFFFFFFFFFFFFFFFFFFFFFFFFFFFFFFFFFFFFF AND EQ ISZERO DUP1 ISZERO PUSH2 0x1983 JUMPI POP PUSH1 0x0 PUSH20 0xFFFFFFFFFFFFFFFFFFFFFFFFFFFFFFFFFFFFFFFF AND DUP7 PUSH20 0xFFFFFFFFFFFFFFFFFFFFFFFFFFFFFFFFFFFFFFFF AND EQ ISZERO JUMPDEST DUP1 ISZERO PUSH2 0x19CE JUMPI POP DUP5 PUSH1 0x11 PUSH1 0x0 DUP10 PUSH20 0xFFFFFFFFFFFFFFFFFFFFFFFFFFFFFFFFFFFFFFFF AND PUSH20 0xFFFFFFFFFFFFFFFFFFFFFFFFFFFFFFFFFFFFFFFF AND DUP2 MSTORE PUSH1 0x20 ADD SWAP1 DUP2 MSTORE PUSH1 0x20 ADD PUSH1 0x0 KECCAK256 SLOAD LT ISZERO JUMPDEST DUP1 ISZERO PUSH2 0x1A1A JUMPI POP PUSH1 0x0 PUSH1 0x11 PUSH1 0x0 DUP10 PUSH20 0xFFFFFFFFFFFFFFFFFFFFFFFFFFFFFFFFFFFFFFFF AND PUSH20 0xFFFFFFFFFFFFFFFFFFFFFFFFFFFFFFFFFFFFFFFF AND DUP2 MSTORE PUSH1 0x20 ADD SWAP1 DUP2 MSTORE PUSH1 0x20 ADD PUSH1 0x0 KECCAK256 SLOAD LT ISZERO JUMPDEST DUP1 ISZERO PUSH2 0x1A27 JUMPI POP PUSH1 0x0 DUP6 LT ISZERO JUMPDEST PUSH2 0x1A30 JUMPI PUSH1 0x0 DUP1 REVERT JUMPDEST DUP5 PUSH1 0x11 PUSH1 0x0 DUP10 PUSH20 0xFFFFFFFFFFFFFFFFFFFFFFFFFFFFFFFFFFFFFFFF AND PUSH20 0xFFFFFFFFFFFFFFFFFFFFFFFFFFFFFFFFFFFFFFFF AND DUP2 MSTORE PUSH1 0x20 ADD SWAP1 DUP2 MSTORE PUSH1 0x20 ADD PUSH1 0x0 KECCAK256 PUSH1 0x0 DUP3 DUP3 SLOAD PUSH2 0x1A7F SWAP2 SWAP1 PUSH2 0x29C3 JUMP JUMPDEST SWAP3 POP POP DUP2 SWAP1 SSTORE POP PUSH1 0x0 DUP5 PUSH2 0x3E8 DUP8 PUSH2 0x1A97 SWAP2 SWAP1 PUSH2 0x2AAD JUMP JUMPDEST PUSH2 0x1AA1 SWAP2 SWAP1 PUSH2 0x2ADE JUMP JUMPDEST SWAP1 POP PUSH1 0x0 DUP5 PUSH2 0x3E8 DUP9 PUSH2 0x1AB4 SWAP2 SWAP1 PUSH2 0x2AAD JUMP JUMPDEST PUSH2 0x1ABE SWAP2 SWAP1 PUSH2 0x2ADE JUMP JUMPDEST SWAP1 POP PUSH1 0x0 DUP2 DUP4 PUSH2 0x1ACE SWAP2 SWAP1 PUSH2 0x29F7 JUMP JUMPDEST DUP9 PUSH2 0x1AD9 SWAP2 SWAP1 PUSH2 0x29C3 JUMP JUMPDEST SWAP1 POP DUP1 PUSH1 0x11 PUSH1 0x0 DUP12 PUSH20 0xFFFFFFFFFFFFFFFFFFFFFFFFFFFFFFFFFFFFFFFF AND PUSH20 0xFFFFFFFFFFFFFFFFFFFFFFFFFFFFFFFFFFFFFFFF AND DUP2 MSTORE PUSH1 0x20 ADD SWAP1 DUP2 MSTORE PUSH1 0x20 ADD PUSH1 0x0 KECCAK256 PUSH1 0x0 DUP3 DUP3 SLOAD PUSH2 0x1B2A SWAP2 SWAP1 PUSH2 0x29F7 JUMP JUMPDEST SWAP3 POP POP DUP2 SWAP1 SSTORE POP DUP2 PUSH1 0x11 PUSH1 0x0 PUSH1 0x7 PUSH1 0x9 ADD PUSH1 0x0 SWAP1 SLOAD SWAP1 PUSH2 0x100 EXP SWAP1 DIV PUSH20 0xFFFFFFFFFFFFFFFFFFFFFFFFFFFFFFFFFFFFFFFF AND PUSH20 0xFFFFFFFFFFFFFFFFFFFFFFFFFFFFFFFFFFFFFFFF AND PUSH20 0xFFFFFFFFFFFFFFFFFFFFFFFFFFFFFFFFFFFFFFFF AND DUP2 MSTORE PUSH1 0x20 ADD SWAP1 DUP2 MSTORE PUSH1 0x20 ADD PUSH1 0x0 KECCAK256 PUSH1 0x0 DUP3 DUP3 SLOAD PUSH2 0x1BA5 SWAP2 SWAP1 PUSH2 0x29F7 JUMP JUMPDEST SWAP3 POP POP DUP2 SWAP1 SSTORE POP DUP3 PUSH1 0x7 PUSH1 0x4 ADD PUSH1 0x0 DUP3 DUP3 SLOAD PUSH2 0x1BC1 SWAP2 SWAP1 PUSH2 0x29C3 JUMP JUMPDEST SWAP3 POP POP DUP2 SWAP1 SSTORE POP DUP9 PUSH20 0xFFFFFFFFFFFFFFFFFFFFFFFFFFFFFFFFFFFFFFFF AND DUP11 PUSH20 0xFFFFFFFFFFFFFFFFFFFFFFFFFFFFFFFFFFFFFFFF AND PUSH32 0xDDF252AD1BE2C89B69C2B068FC378DAA952BA7F163C4A11628F55A4DF523B3EF DUP4 PUSH1 0x40 MLOAD PUSH2 0x1C25 SWAP2 SWAP1 PUSH2 0x24FE JUMP JUMPDEST PUSH1 0x40 MLOAD DUP1 SWAP2 SUB SWAP1 LOG3 PUSH1 0x0 DUP4 EQ PUSH2 0x1C9C JUMPI PUSH1 0x0 PUSH20 0xFFFFFFFFFFFFFFFFFFFFFFFFFFFFFFFFFFFFFFFF AND DUP11 PUSH20 0xFFFFFFFFFFFFFFFFFFFFFFFFFFFFFFFFFFFFFFFF AND PUSH32 0xDDF252AD1BE2C89B69C2B068FC378DAA952BA7F163C4A11628F55A4DF523B3EF DUP6 PUSH1 0x40 MLOAD PUSH2 0x1C93 SWAP2 SWAP1 PUSH2 0x24FE JUMP JUMPDEST PUSH1 0x40 MLOAD DUP1 SWAP2 SUB SWAP1 LOG3 JUMPDEST PUSH1 0x0 DUP3 EQ PUSH2 0x1D2F JUMPI PUSH1 0x7 PUSH1 0x9 ADD PUSH1 0x0 SWAP1 SLOAD SWAP1 PUSH2 0x100 EXP SWAP1 DIV PUSH20 0xFFFFFFFFFFFFFFFFFFFFFFFFFFFFFFFFFFFFFFFF AND PUSH20 0xFFFFFFFFFFFFFFFFFFFFFFFFFFFFFFFFFFFFFFFF AND DUP11 PUSH20 0xFFFFFFFFFFFFFFFFFFFFFFFFFFFFFFFFFFFFFFFF AND PUSH32 0xDDF252AD1BE2C89B69C2B068FC378DAA952BA7F163C4A11628F55A4DF523B3EF DUP5 PUSH1 0x40 MLOAD PUSH2 0x1D26 SWAP2 SWAP1 PUSH2 0x24FE JUMP JUMPDEST PUSH1 0x40 MLOAD DUP1 SWAP2 SUB SWAP1 LOG3 JUMPDEST PUSH1 0x1 DUP2 SWAP5 POP SWAP5 POP POP POP POP SWAP6 POP SWAP6 SWAP4 POP POP POP POP JUMP JUMPDEST PUSH1 0x0 DUP1 PUSH1 0x0 SWAP1 POP PUSH1 0x0 DUP4 LT ISZERO DUP1 ISZERO PUSH2 0x1D60 JUMPI POP PUSH1 0x7 PUSH1 0x3 ADD SLOAD DUP4 GT ISZERO JUMPDEST DUP1 ISZERO PUSH2 0x1D99 JUMPI POP PUSH1 0x0 PUSH20 0xFFFFFFFFFFFFFFFFFFFFFFFFFFFFFFFFFFFFFFFF AND DUP5 PUSH20 0xFFFFFFFFFFFFFFFFFFFFFFFFFFFFFFFFFFFFFFFF AND EQ ISZERO JUMPDEST PUSH2 0x1DA2 JUMPI PUSH1 0x0 DUP1 REVERT JUMPDEST DUP3 PUSH1 0x7 PUSH1 0x3 ADD PUSH1 0x0 DUP3 DUP3 SLOAD PUSH2 0x1DB7 SWAP2 SWAP1 PUSH2 0x29C3 JUMP JUMPDEST SWAP3 POP POP DUP2 SWAP1 SSTORE POP DUP3 PUSH1 0x11 PUSH1 0x0 DUP7 PUSH20 0xFFFFFFFFFFFFFFFFFFFFFFFFFFFFFFFFFFFFFFFF AND PUSH20 0xFFFFFFFFFFFFFFFFFFFFFFFFFFFFFFFFFFFFFFFF AND DUP2 MSTORE PUSH1 0x20 ADD SWAP1 DUP2 MSTORE PUSH1 0x20 ADD PUSH1 0x0 KECCAK256 PUSH1 0x0 DUP3 DUP3 SLOAD PUSH2 0x1E0D SWAP2 SWAP1 PUSH2 0x29F7 JUMP JUMPDEST SWAP3 POP POP DUP2 SWAP1 SSTORE DUP4 PUSH1 0x7 PUSH1 0x4 ADD PUSH1 0x0 DUP3 DUP3 SLOAD PUSH2 0x1E28 SWAP2 SWAP1 PUSH2 0x29F7 JUMP JUMPDEST SWAP3 POP POP DUP2 SWAP1 SSTORE POP POP DUP4 PUSH20 0xFFFFFFFFFFFFFFFFFFFFFFFFFFFFFFFFFFFFFFFF AND DUP2 PUSH20 0xFFFFFFFFFFFFFFFFFFFFFFFFFFFFFFFFFFFFFFFF AND PUSH32 0xDDF252AD1BE2C89B69C2B068FC378DAA952BA7F163C4A11628F55A4DF523B3EF DUP6 PUSH1 0x40 MLOAD PUSH2 0x1E8D SWAP2 SWAP1 PUSH2 0x24FE JUMP JUMPDEST PUSH1 0x40 MLOAD DUP1 SWAP2 SUB SWAP1 LOG3 PUSH1 0x1 SWAP2 POP POP SWAP3 SWAP2 POP POP JUMP JUMPDEST PUSH1 0x0 DUP1 DUP3 LT ISZERO DUP1 ISZERO PUSH2 0x1EF1 JUMPI POP PUSH1 0x11 PUSH1 0x0 DUP5 PUSH20 0xFFFFFFFFFFFFFFFFFFFFFFFFFFFFFFFFFFFFFFFF AND PUSH20 0xFFFFFFFFFFFFFFFFFFFFFFFFFFFFFFFFFFFFFFFF AND DUP2 MSTORE PUSH1 0x20 ADD SWAP1 DUP2 MSTORE PUSH1 0x20 ADD PUSH1 0x0 KECCAK256 SLOAD DUP3 GT ISZERO JUMPDEST PUSH2 0x1EFA JUMPI PUSH1 0x0 DUP1 REVERT JUMPDEST DUP2 PUSH1 0x11 PUSH1 0x0 DUP6 PUSH20 0xFFFFFFFFFFFFFFFFFFFFFFFFFFFFFFFFFFFFFFFF AND PUSH20 0xFFFFFFFFFFFFFFFFFFFFFFFFFFFFFFFFFFFFFFFF AND DUP2 MSTORE PUSH1 0x20 ADD SWAP1 DUP2 MSTORE PUSH1 0x20 ADD PUSH1 0x0 KECCAK256 PUSH1 0x0 DUP3 DUP3 SLOAD PUSH2 0x1F49 SWAP2 SWAP1 PUSH2 0x29C3 JUMP JUMPDEST SWAP3 POP POP DUP2 SWAP1 SSTORE DUP3 PUSH1 0x7 PUSH1 0x4 ADD PUSH1 0x0 DUP3 DUP3 SLOAD PUSH2 0x1F64 SWAP2 SWAP1 PUSH2 0x29C3 JUMP JUMPDEST SWAP3 POP POP DUP2 SWAP1 SSTORE POP POP PUSH1 0x0 PUSH20 0xFFFFFFFFFFFFFFFFFFFFFFFFFFFFFFFFFFFFFFFF AND DUP4 PUSH20 0xFFFFFFFFFFFFFFFFFFFFFFFFFFFFFFFFFFFFFFFF AND PUSH32 0xDDF252AD1BE2C89B69C2B068FC378DAA952BA7F163C4A11628F55A4DF523B3EF DUP5 PUSH1 0x40 MLOAD PUSH2 0x1FCA SWAP2 SWAP1 PUSH2 0x24FE JUMP JUMPDEST PUSH1 0x40 MLOAD DUP1 SWAP2 SUB SWAP1 LOG3 PUSH1 0x1 SWAP1 POP SWAP3 SWAP2 POP POP JUMP JUMPDEST PUSH1 0x0 DUP1 PUSH1 0x0 SWAP1 POP PUSH1 0x0 PUSH1 0x7 PUSH1 0x9 ADD PUSH1 0x0 SWAP1 SLOAD SWAP1 PUSH2 0x100 EXP SWAP1 DIV PUSH20 0xFFFFFFFFFFFFFFFFFFFFFFFFFFFFFFFFFFFFFFFF AND SWAP1 POP PUSH1 0x1 ISZERO ISZERO PUSH1 0x15 PUSH1 0x0 DUP10 PUSH20 0xFFFFFFFFFFFFFFFFFFFFFFFFFFFFFFFFFFFFFFFF AND PUSH20 0xFFFFFFFFFFFFFFFFFFFFFFFFFFFFFFFFFFFFFFFF AND DUP2 MSTORE PUSH1 0x20 ADD SWAP1 DUP2 MSTORE PUSH1 0x20 ADD PUSH1 0x0 KECCAK256 DUP6 PUSH1 0x40 MLOAD PUSH2 0x205E SWAP2 SWAP1 PUSH2 0x2A67 JUMP JUMPDEST SWAP1 DUP2 MSTORE PUSH1 0x20 ADD PUSH1 0x40 MLOAD DUP1 SWAP2 SUB SWAP1 KECCAK256 PUSH1 0x5 ADD PUSH1 0x0 SWAP1 SLOAD SWAP1 PUSH2 0x100 EXP SWAP1 DIV PUSH1 0xFF AND ISZERO ISZERO EQ ISZERO DUP1 ISZERO PUSH2 0x2092 JUMPI POP PUSH1 0x7 PUSH1 0x3 ADD SLOAD DUP7 GT ISZERO JUMPDEST DUP1 ISZERO PUSH2 0x20CB JUMPI POP PUSH1 0x0 PUSH20 0xFFFFFFFFFFFFFFFFFFFFFFFFFFFFFFFFFFFFFFFF AND DUP8 PUSH20 0xFFFFFFFFFFFFFFFFFFFFFFFFFFFFFFFFFFFFFFFF AND EQ ISZERO JUMPDEST DUP1 ISZERO PUSH2 0x20D8 JUMPI POP PUSH1 0x0 DUP7 LT ISZERO JUMPDEST PUSH2 0x20E1 JUMPI PUSH1 0x0 DUP1 REVERT JUMPDEST DUP6 PUSH1 0x7 PUSH1 0x3 ADD PUSH1 0x0 DUP3 DUP3 SLOAD PUSH2 0x20F6 SWAP2 SWAP1 PUSH2 0x29C3 JUMP JUMPDEST SWAP3 POP POP DUP2 SWAP1 SSTORE DUP7 PUSH1 0x7 PUSH1 0x4 ADD PUSH1 0x0 DUP3 DUP3 SLOAD PUSH2 0x2111 SWAP2 SWAP1 PUSH2 0x29F7 JUMP JUMPDEST SWAP3 POP POP DUP2 SWAP1 SSTORE DUP8 PUSH1 0x11 PUSH1 0x0 DUP6 PUSH20 0xFFFFFFFFFFFFFFFFFFFFFFFFFFFFFFFFFFFFFFFF AND PUSH20 0xFFFFFFFFFFFFFFFFFFFFFFFFFFFFFFFFFFFFFFFF AND DUP2 MSTORE PUSH1 0x20 ADD SWAP1 DUP2 MSTORE PUSH1 0x20 ADD PUSH1 0x0 KECCAK256 PUSH1 0x0 DUP3 DUP3 SLOAD PUSH2 0x2166 SWAP2 SWAP1 PUSH2 0x29F7 JUMP JUMPDEST SWAP3 POP POP DUP2 SWAP1 SSTORE POP POP POP PUSH1 0x0 TIMESTAMP SWAP1 POP PUSH1 0x40 MLOAD DUP1 PUSH1 0xC0 ADD PUSH1 0x40 MSTORE DUP1 DUP7 DUP2 MSTORE PUSH1 0x20 ADD DUP8 DUP2 MSTORE PUSH1 0x20 ADD DUP3 DUP2 MSTORE PUSH1 0x20 ADD DUP8 DUP4 PUSH2 0x219D SWAP2 SWAP1 PUSH2 0x29F7 JUMP JUMPDEST DUP2 MSTORE PUSH1 0x20 ADD DUP9 DUP2 MSTORE PUSH1 0x20 ADD PUSH1 0x1 ISZERO ISZERO DUP2 MSTORE POP PUSH1 0x15 PUSH1 0x0 DUP11 PUSH20 0xFFFFFFFFFFFFFFFFFFFFFFFFFFFFFFFFFFFFFFFF AND PUSH20 0xFFFFFFFFFFFFFFFFFFFFFFFFFFFFFFFFFFFFFFFF AND DUP2 MSTORE PUSH1 0x20 ADD SWAP1 DUP2 MSTORE PUSH1 0x20 ADD PUSH1 0x0 KECCAK256 DUP7 PUSH1 0x40 MLOAD PUSH2 0x21FC SWAP2 SWAP1 PUSH2 0x2A67 JUMP JUMPDEST SWAP1 DUP2 MSTORE PUSH1 0x20 ADD PUSH1 0x40 MLOAD DUP1 SWAP2 SUB SWAP1 KECCAK256 PUSH1 0x0 DUP3 ADD MLOAD DUP2 PUSH1 0x0 ADD SWAP1 DUP2 PUSH2 0x221F SWAP2 SWAP1 PUSH2 0x2CCC JUMP JUMPDEST POP PUSH1 0x20 DUP3 ADD MLOAD DUP2 PUSH1 0x1 ADD SSTORE PUSH1 0x40 DUP3 ADD MLOAD DUP2 PUSH1 0x2 ADD SSTORE PUSH1 0x60 DUP3 ADD MLOAD DUP2 PUSH1 0x3 ADD SSTORE PUSH1 0x80 DUP3 ADD MLOAD DUP2 PUSH1 0x4 ADD SSTORE PUSH1 0xA0 DUP3 ADD MLOAD DUP2 PUSH1 0x5 ADD PUSH1 0x0 PUSH2 0x100 EXP DUP2 SLOAD DUP2 PUSH1 0xFF MUL NOT AND SWAP1 DUP4 ISZERO ISZERO MUL OR SWAP1 SSTORE POP SWAP1 POP POP DUP8 PUSH20 0xFFFFFFFFFFFFFFFFFFFFFFFFFFFFFFFFFFFFFFFF AND DUP4 PUSH20 0xFFFFFFFFFFFFFFFFFFFFFFFFFFFFFFFFFFFFFFFF AND PUSH32 0xDDF252AD1BE2C89B69C2B068FC378DAA952BA7F163C4A11628F55A4DF523B3EF DUP10 PUSH1 0x40 MLOAD PUSH2 0x22C8 SWAP2 SWAP1 PUSH2 0x24FE JUMP JUMPDEST PUSH1 0x40 MLOAD DUP1 SWAP2 SUB SWAP1 LOG3 PUSH1 0x1 SWAP4 POP POP POP POP SWAP5 SWAP4 POP POP POP POP JUMP JUMPDEST PUSH1 0x0 PUSH1 0x40 MLOAD SWAP1 POP SWAP1 JUMP JUMPDEST PUSH1 0x0 DUP1 REVERT JUMPDEST PUSH1 0x0 DUP1 REVERT JUMPDEST PUSH1 0x0 DUP2 SWAP1 POP SWAP2 SWAP1 POP JUMP JUMPDEST PUSH2 0x2306 DUP2 PUSH2 0x22F3 JUMP JUMPDEST DUP2 EQ PUSH2 0x2311 JUMPI PUSH1 0x0 DUP1 REVERT JUMPDEST POP JUMP JUMPDEST PUSH1 0x0 DUP2 CALLDATALOAD SWAP1 POP PUSH2 0x2323 DUP2 PUSH2 0x22FD JUMP JUMPDEST SWAP3 SWAP2 POP POP JUMP JUMPDEST PUSH1 0x0 DUP1 PUSH1 0x40 DUP4 DUP6 SUB SLT ISZERO PUSH2 0x2340 JUMPI PUSH2 0x233F PUSH2 0x22E9 JUMP JUMPDEST JUMPDEST PUSH1 0x0 PUSH2 0x234E DUP6 DUP3 DUP7 ADD PUSH2 0x2314 JUMP JUMPDEST SWAP3 POP POP PUSH1 0x20 PUSH2 0x235F DUP6 DUP3 DUP7 ADD PUSH2 0x2314 JUMP JUMPDEST SWAP2 POP POP SWAP3 POP SWAP3 SWAP1 POP JUMP JUMPDEST PUSH1 0x0 DUP2 ISZERO ISZERO SWAP1 POP SWAP2 SWAP1 POP JUMP JUMPDEST PUSH2 0x237E DUP2 PUSH2 0x2369 JUMP JUMPDEST DUP3 MSTORE POP POP JUMP JUMPDEST PUSH1 0x0 PUSH1 0x20 DUP3 ADD SWAP1 POP PUSH2 0x2399 PUSH1 0x0 DUP4 ADD DUP5 PUSH2 0x2375 JUMP JUMPDEST SWAP3 SWAP2 POP POP JUMP JUMPDEST PUSH1 0x0 DUP2 MLOAD SWAP1 POP SWAP2 SWAP1 POP JUMP JUMPDEST PUSH1 0x0 DUP3 DUP3 MSTORE PUSH1 0x20 DUP3 ADD SWAP1 POP SWAP3 SWAP2 POP POP JUMP JUMPDEST PUSH1 0x0 JUMPDEST DUP4 DUP2 LT ISZERO PUSH2 0x23D9 JUMPI DUP1 DUP3 ADD MLOAD DUP2 DUP5 ADD MSTORE PUSH1 0x20 DUP2 ADD SWAP1 POP PUSH2 0x23BE JUMP JUMPDEST PUSH1 0x0 DUP5 DUP5 ADD MSTORE POP POP POP POP JUMP JUMPDEST PUSH1 0x0 PUSH1 0x1F NOT PUSH1 0x1F DUP4 ADD AND SWAP1 POP SWAP2 SWAP1 POP JUMP JUMPDEST PUSH1 0x0 PUSH2 0x2401 DUP3 PUSH2 0x239F JUMP JUMPDEST PUSH2 0x240B DUP2 DUP6 PUSH2 0x23AA JUMP JUMPDEST SWAP4 POP PUSH2 0x241B DUP2 DUP6 PUSH1 0x20 DUP7 ADD PUSH2 0x23BB JUMP JUMPDEST PUSH2 0x2424 DUP2 PUSH2 0x23E5 JUMP JUMPDEST DUP5 ADD SWAP2 POP POP SWAP3 SWAP2 POP POP JUMP JUMPDEST PUSH1 0x0 PUSH1 0x20 DUP3 ADD SWAP1 POP DUP2 DUP2 SUB PUSH1 0x0 DUP4 ADD MSTORE PUSH2 0x2449 DUP2 DUP5 PUSH2 0x23F6 JUMP JUMPDEST SWAP1 POP SWAP3 SWAP2 POP POP JUMP JUMPDEST PUSH1 0x0 PUSH20 0xFFFFFFFFFFFFFFFFFFFFFFFFFFFFFFFFFFFFFFFF DUP3 AND SWAP1 POP SWAP2 SWAP1 POP JUMP JUMPDEST PUSH1 0x0 PUSH2 0x247C DUP3 PUSH2 0x2451 JUMP JUMPDEST SWAP1 POP SWAP2 SWAP1 POP JUMP JUMPDEST PUSH2 0x248C DUP2 PUSH2 0x2471 JUMP JUMPDEST DUP2 EQ PUSH2 0x2497 JUMPI PUSH1 0x0 DUP1 REVERT JUMPDEST POP JUMP JUMPDEST PUSH1 0x0 DUP2 CALLDATALOAD SWAP1 POP PUSH2 0x24A9 DUP2 PUSH2 0x2483 JUMP JUMPDEST SWAP3 SWAP2 POP POP JUMP JUMPDEST PUSH1 0x0 DUP1 PUSH1 0x40 DUP4 DUP6 SUB SLT ISZERO PUSH2 0x24C6 JUMPI PUSH2 0x24C5 PUSH2 0x22E9 JUMP JUMPDEST JUMPDEST PUSH1 0x0 PUSH2 0x24D4 DUP6 DUP3 DUP7 ADD PUSH2 0x249A JUMP JUMPDEST SWAP3 POP POP PUSH1 0x20 PUSH2 0x24E5 DUP6 DUP3 DUP7 ADD PUSH2 0x2314 JUMP JUMPDEST SWAP2 POP POP SWAP3 POP SWAP3 SWAP1 POP JUMP JUMPDEST PUSH2 0x24F8 DUP2 PUSH2 0x22F3 JUMP JUMPDEST DUP3 MSTORE POP POP JUMP JUMPDEST PUSH1 0x0 PUSH1 0x20 DUP3 ADD SWAP1 POP PUSH2 0x2513 PUSH1 0x0 DUP4 ADD DUP5 PUSH2 0x24EF JUMP JUMPDEST SWAP3 SWAP2 POP POP JUMP JUMPDEST PUSH1 0x0 PUSH1 0x20 DUP3 DUP5 SUB SLT ISZERO PUSH2 0x252F JUMPI PUSH2 0x252E PUSH2 0x22E9 JUMP JUMPDEST JUMPDEST PUSH1 0x0 PUSH2 0x253D DUP5 DUP3 DUP6 ADD PUSH2 0x249A JUMP JUMPDEST SWAP2 POP POP SWAP3 SWAP2 POP POP JUMP JUMPDEST PUSH1 0x0 DUP1 PUSH1 0x0 PUSH1 0x60 DUP5 DUP7 SUB SLT ISZERO PUSH2 0x255F JUMPI PUSH2 0x255E PUSH2 0x22E9 JUMP JUMPDEST JUMPDEST PUSH1 0x0 PUSH2 0x256D DUP7 DUP3 DUP8 ADD PUSH2 0x249A JUMP JUMPDEST SWAP4 POP POP PUSH1 0x20 PUSH2 0x257E DUP7 DUP3 DUP8 ADD PUSH2 0x249A JUMP JUMPDEST SWAP3 POP POP PUSH1 0x40 PUSH2 0x258F DUP7 DUP3 DUP8 ADD PUSH2 0x2314 JUMP JUMPDEST SWAP2 POP POP SWAP3 POP SWAP3 POP SWAP3 JUMP JUMPDEST PUSH1 0x0 PUSH1 0x20 DUP3 DUP5 SUB SLT ISZERO PUSH2 0x25AF JUMPI PUSH2 0x25AE PUSH2 0x22E9 JUMP JUMPDEST JUMPDEST PUSH1 0x0 PUSH2 0x25BD DUP5 DUP3 DUP6 ADD PUSH2 0x2314 JUMP JUMPDEST SWAP2 POP POP SWAP3 SWAP2 POP POP JUMP JUMPDEST PUSH1 0x0 PUSH1 0xFF DUP3 AND SWAP1 POP SWAP2 SWAP1 POP JUMP JUMPDEST PUSH2 0x25DC DUP2 PUSH2 0x25C6 JUMP JUMPDEST DUP3 MSTORE POP POP JUMP JUMPDEST PUSH1 0x0 PUSH1 0x20 DUP3 ADD SWAP1 POP PUSH2 0x25F7 PUSH1 0x0 DUP4 ADD DUP5 PUSH2 0x25D3 JUMP JUMPDEST SWAP3 SWAP2 POP POP JUMP JUMPDEST PUSH1 0x0 PUSH1 0xC0 DUP3 ADD SWAP1 POP PUSH2 0x2612 PUSH1 0x0 DUP4 ADD DUP10 PUSH2 0x24EF JUMP JUMPDEST PUSH2 0x261F PUSH1 0x20 DUP4 ADD DUP9 PUSH2 0x24EF JUMP JUMPDEST PUSH2 0x262C PUSH1 0x40 DUP4 ADD DUP8 PUSH2 0x24EF JUMP JUMPDEST PUSH2 0x2639 PUSH1 0x60 DUP4 ADD DUP7 PUSH2 0x24EF JUMP JUMPDEST PUSH2 0x2646 PUSH1 0x80 DUP4 ADD DUP6 PUSH2 0x24EF JUMP JUMPDEST PUSH2 0x2653 PUSH1 0xA0 DUP4 ADD DUP5 PUSH2 0x24EF JUMP JUMPDEST SWAP8 SWAP7 POP POP POP POP POP POP POP JUMP JUMPDEST PUSH1 0x0 DUP1 PUSH1 0x40 DUP4 DUP6 SUB SLT ISZERO PUSH2 0x2675 JUMPI PUSH2 0x2674 PUSH2 0x22E9 JUMP JUMPDEST JUMPDEST PUSH1 0x0 PUSH2 0x2683 DUP6 DUP3 DUP7 ADD PUSH2 0x249A JUMP JUMPDEST SWAP3 POP POP PUSH1 0x20 PUSH2 0x2694 DUP6 DUP3 DUP7 ADD PUSH2 0x249A JUMP JUMPDEST SWAP2 POP POP SWAP3 POP SWAP3 SWAP1 POP JUMP JUMPDEST PUSH1 0x0 DUP1 REVERT JUMPDEST PUSH1 0x0 DUP1 REVERT JUMPDEST PUSH32 0x4E487B7100000000000000000000000000000000000000000000000000000000 PUSH1 0x0 MSTORE PUSH1 0x41 PUSH1 0x4 MSTORE PUSH1 0x24 PUSH1 0x0 REVERT JUMPDEST PUSH2 0x26E0 DUP3 PUSH2 0x23E5 JUMP JUMPDEST DUP2 ADD DUP2 DUP2 LT PUSH8 0xFFFFFFFFFFFFFFFF DUP3 GT OR ISZERO PUSH2 0x26FF JUMPI PUSH2 0x26FE PUSH2 0x26A8 JUMP JUMPDEST JUMPDEST DUP1 PUSH1 0x40 MSTORE POP POP POP JUMP JUMPDEST PUSH1 0x0 PUSH2 0x2712 PUSH2 0x22DF JUMP JUMPDEST SWAP1 POP PUSH2 0x271E DUP3 DUP3 PUSH2 0x26D7 JUMP JUMPDEST SWAP2 SWAP1 POP JUMP JUMPDEST PUSH1 0x0 PUSH8 0xFFFFFFFFFFFFFFFF DUP3 GT ISZERO PUSH2 0x273E JUMPI PUSH2 0x273D PUSH2 0x26A8 JUMP JUMPDEST JUMPDEST PUSH2 0x2747 DUP3 PUSH2 0x23E5 JUMP JUMPDEST SWAP1 POP PUSH1 0x20 DUP2 ADD SWAP1 POP SWAP2 SWAP1 POP JUMP JUMPDEST DUP3 DUP2 DUP4 CALLDATACOPY PUSH1 0x0 DUP4 DUP4 ADD MSTORE POP POP POP JUMP JUMPDEST PUSH1 0x0 PUSH2 0x2776 PUSH2 0x2771 DUP5 PUSH2 0x2723 JUMP JUMPDEST PUSH2 0x2708 JUMP JUMPDEST SWAP1 POP DUP3 DUP2 MSTORE PUSH1 0x20 DUP2 ADD DUP5 DUP5 DUP5 ADD GT ISZERO PUSH2 0x2792 JUMPI PUSH2 0x2791 PUSH2 0x26A3 JUMP JUMPDEST JUMPDEST PUSH2 0x279D DUP5 DUP3 DUP6 PUSH2 0x2754 JUMP JUMPDEST POP SWAP4 SWAP3 POP POP POP JUMP JUMPDEST PUSH1 0x0 DUP3 PUSH1 0x1F DUP4 ADD SLT PUSH2 0x27BA JUMPI PUSH2 0x27B9 PUSH2 0x269E JUMP JUMPDEST JUMPDEST DUP2 CALLDATALOAD PUSH2 0x27CA DUP5 DUP3 PUSH1 0x20 DUP7 ADD PUSH2 0x2763 JUMP JUMPDEST SWAP2 POP POP SWAP3 SWAP2 POP POP JUMP JUMPDEST PUSH1 0x0 DUP1 PUSH1 0x0 DUP1 PUSH1 0x80 DUP6 DUP8 SUB SLT ISZERO PUSH2 0x27ED JUMPI PUSH2 0x27EC PUSH2 0x22E9 JUMP JUMPDEST JUMPDEST PUSH1 0x0 PUSH2 0x27FB DUP8 DUP3 DUP9 ADD PUSH2 0x249A JUMP JUMPDEST SWAP5 POP POP PUSH1 0x20 PUSH2 0x280C DUP8 DUP3 DUP9 ADD PUSH2 0x2314 JUMP JUMPDEST SWAP4 POP POP PUSH1 0x40 PUSH2 0x281D DUP8 DUP3 DUP9 ADD PUSH2 0x2314 JUMP JUMPDEST SWAP3 POP POP PUSH1 0x60 DUP6 ADD CALLDATALOAD PUSH8 0xFFFFFFFFFFFFFFFF DUP2 GT ISZERO PUSH2 0x283E JUMPI PUSH2 0x283D PUSH2 0x22EE JUMP JUMPDEST JUMPDEST PUSH2 0x284A DUP8 DUP3 DUP9 ADD PUSH2 0x27A5 JUMP JUMPDEST SWAP2 POP POP SWAP3 SWAP6 SWAP2 SWAP5 POP SWAP3 POP JUMP JUMPDEST PUSH1 0x0 PUSH1 0x20 DUP3 DUP5 SUB SLT ISZERO PUSH2 0x286C JUMPI PUSH2 0x286B PUSH2 0x22E9 JUMP JUMPDEST JUMPDEST PUSH1 0x0 DUP3 ADD CALLDATALOAD PUSH8 0xFFFFFFFFFFFFFFFF DUP2 GT ISZERO PUSH2 0x288A JUMPI PUSH2 0x2889 PUSH2 0x22EE JUMP JUMPDEST JUMPDEST PUSH2 0x2896 DUP5 DUP3 DUP6 ADD PUSH2 0x27A5 JUMP JUMPDEST SWAP2 POP POP SWAP3 SWAP2 POP POP JUMP JUMPDEST PUSH32 0x6F6E6C7941646D696E0000000000000000000000000000000000000000000000 PUSH1 0x0 DUP3 ADD MSTORE POP JUMP JUMPDEST PUSH1 0x0 PUSH2 0x28D5 PUSH1 0x9 DUP4 PUSH2 0x23AA JUMP JUMPDEST SWAP2 POP PUSH2 0x28E0 DUP3 PUSH2 0x289F JUMP JUMPDEST PUSH1 0x20 DUP3 ADD SWAP1 POP SWAP2 SWAP1 POP JUMP JUMPDEST PUSH1 0x0 PUSH1 0x20 DUP3 ADD SWAP1 POP DUP2 DUP2 SUB PUSH1 0x0 DUP4 ADD MSTORE PUSH2 0x2904 DUP2 PUSH2 0x28C8 JUMP JUMPDEST SWAP1 POP SWAP2 SWAP1 POP JUMP JUMPDEST PUSH1 0x0 PUSH1 0x40 DUP3 ADD SWAP1 POP PUSH2 0x2920 PUSH1 0x0 DUP4 ADD DUP6 PUSH2 0x24EF JUMP JUMPDEST PUSH2 0x292D PUSH1 0x20 DUP4 ADD DUP5 PUSH2 0x24EF JUMP JUMPDEST SWAP4 SWAP3 POP POP POP JUMP JUMPDEST PUSH32 0x4E487B7100000000000000000000000000000000000000000000000000000000 PUSH1 0x0 MSTORE PUSH1 0x22 PUSH1 0x4 MSTORE PUSH1 0x24 PUSH1 0x0 REVERT JUMPDEST PUSH1 0x0 PUSH1 0x2 DUP3 DIV SWAP1 POP PUSH1 0x1 DUP3 AND DUP1 PUSH2 0x297B JUMPI PUSH1 0x7F DUP3 AND SWAP2 POP JUMPDEST PUSH1 0x20 DUP3 LT DUP2 SUB PUSH2 0x298E JUMPI PUSH2 0x298D PUSH2 0x2934 JUMP JUMPDEST JUMPDEST POP SWAP2 SWAP1 POP JUMP JUMPDEST PUSH32 0x4E487B7100000000000000000000000000000000000000000000000000000000 PUSH1 0x0 MSTORE PUSH1 0x11 PUSH1 0x4 MSTORE PUSH1 0x24 PUSH1 0x0 REVERT JUMPDEST PUSH1 0x0 PUSH2 0x29CE DUP3 PUSH2 0x22F3 JUMP JUMPDEST SWAP2 POP PUSH2 0x29D9 DUP4 PUSH2 0x22F3 JUMP JUMPDEST SWAP3 POP DUP3 DUP3 SUB SWAP1 POP DUP2 DUP2 GT ISZERO PUSH2 0x29F1 JUMPI PUSH2 0x29F0 PUSH2 0x2994 JUMP JUMPDEST JUMPDEST SWAP3 SWAP2 POP POP JUMP JUMPDEST PUSH1 0x0 PUSH2 0x2A02 DUP3 PUSH2 0x22F3 JUMP JUMPDEST SWAP2 POP PUSH2 0x2A0D DUP4 PUSH2 0x22F3 JUMP JUMPDEST SWAP3 POP DUP3 DUP3 ADD SWAP1 POP DUP1 DUP3 GT ISZERO PUSH2 0x2A25 JUMPI PUSH2 0x2A24 PUSH2 0x2994 JUMP JUMPDEST JUMPDEST SWAP3 SWAP2 POP POP JUMP JUMPDEST PUSH1 0x0 DUP2 SWAP1 POP SWAP3 SWAP2 POP POP JUMP JUMPDEST PUSH1 0x0 PUSH2 0x2A41 DUP3 PUSH2 0x239F JUMP JUMPDEST PUSH2 0x2A4B DUP2 DUP6 PUSH2 0x2A2B JUMP JUMPDEST SWAP4 POP PUSH2 0x2A5B DUP2 DUP6 PUSH1 0x20 DUP7 ADD PUSH2 0x23BB JUMP JUMPDEST DUP1 DUP5 ADD SWAP2 POP POP SWAP3 SWAP2 POP POP JUMP JUMPDEST PUSH1 0x0 PUSH2 0x2A73 DUP3 DUP5 PUSH2 0x2A36 JUMP JUMPDEST SWAP2 POP DUP2 SWAP1 POP SWAP3 SWAP2 POP POP JUMP JUMPDEST PUSH32 0x4E487B7100000000000000000000000000000000000000000000000000000000 PUSH1 0x0 MSTORE PUSH1 0x12 PUSH1 0x4 MSTORE PUSH1 0x24 PUSH1 0x0 REVERT JUMPDEST PUSH1 0x0 PUSH2 0x2AB8 DUP3 PUSH2 0x22F3 JUMP JUMPDEST SWAP2 POP PUSH2 0x2AC3 DUP4 PUSH2 0x22F3 JUMP JUMPDEST SWAP3 POP DUP3 PUSH2 0x2AD3 JUMPI PUSH2 0x2AD2 PUSH2 0x2A7E JUMP JUMPDEST JUMPDEST DUP3 DUP3 DIV SWAP1 POP SWAP3 SWAP2 POP POP JUMP JUMPDEST PUSH1 0x0 PUSH2 0x2AE9 DUP3 PUSH2 0x22F3 JUMP JUMPDEST SWAP2 POP PUSH2 0x2AF4 DUP4 PUSH2 0x22F3 JUMP JUMPDEST SWAP3 POP DUP3 DUP3 MUL PUSH2 0x2B02 DUP2 PUSH2 0x22F3 JUMP JUMPDEST SWAP2 POP DUP3 DUP3 DIV DUP5 EQ DUP4 ISZERO OR PUSH2 0x2B19 JUMPI PUSH2 0x2B18 PUSH2 0x2994 JUMP JUMPDEST JUMPDEST POP SWAP3 SWAP2 POP POP JUMP JUMPDEST PUSH1 0x0 DUP2 SWAP1 POP DUP2 PUSH1 0x0 MSTORE PUSH1 0x20 PUSH1 0x0 KECCAK256 SWAP1 POP SWAP2 SWAP1 POP JUMP JUMPDEST PUSH1 0x0 PUSH1 0x20 PUSH1 0x1F DUP4 ADD DIV SWAP1 POP SWAP2 SWAP1 POP JUMP JUMPDEST PUSH1 0x0 DUP3 DUP3 SHL SWAP1 POP SWAP3 SWAP2 POP POP JUMP JUMPDEST PUSH1 0x0 PUSH1 0x8 DUP4 MUL PUSH2 0x2B82 PUSH32 0xFFFFFFFFFFFFFFFFFFFFFFFFFFFFFFFFFFFFFFFFFFFFFFFFFFFFFFFFFFFFFFFF DUP3 PUSH2 0x2B45 JUMP JUMPDEST PUSH2 0x2B8C DUP7 DUP4 PUSH2 0x2B45 JUMP JUMPDEST SWAP6 POP DUP1 NOT DUP5 AND SWAP4 POP DUP1 DUP7 AND DUP5 OR SWAP3 POP POP POP SWAP4 SWAP3 POP POP POP JUMP JUMPDEST PUSH1 0x0 DUP2 SWAP1 POP SWAP2 SWAP1 POP JUMP JUMPDEST PUSH1 0x0 PUSH2 0x2BC9 PUSH2 0x2BC4 PUSH2 0x2BBF DUP5 PUSH2 0x22F3 JUMP JUMPDEST PUSH2 0x2BA4 JUMP JUMPDEST PUSH2 0x22F3 JUMP JUMPDEST SWAP1 POP SWAP2 SWAP1 POP JUMP JUMPDEST PUSH1 0x0 DUP2 SWAP1 POP SWAP2 SWAP1 POP JUMP JUMPDEST PUSH2 0x2BE3 DUP4 PUSH2 0x2BAE JUMP JUMPDEST PUSH2 0x2BF7 PUSH2 0x2BEF DUP3 PUSH2 0x2BD0 JUMP JUMPDEST DUP5 DUP5 SLOAD PUSH2 0x2B52 JUMP JUMPDEST DUP3 SSTORE POP POP POP POP JUMP JUMPDEST PUSH1 0x0 SWAP1 JUMP JUMPDEST PUSH2 0x2C0C PUSH2 0x2BFF JUMP JUMPDEST PUSH2 0x2C17 DUP2 DUP5 DUP5 PUSH2 0x2BDA JUMP JUMPDEST POP POP POP JUMP JUMPDEST JUMPDEST DUP2 DUP2 LT ISZERO PUSH2 0x2C3B JUMPI PUSH2 0x2C30 PUSH1 0x0 DUP3 PUSH2 0x2C04 JUMP JUMPDEST PUSH1 0x1 DUP2 ADD SWAP1 POP PUSH2 0x2C1D JUMP JUMPDEST POP POP JUMP JUMPDEST PUSH1 0x1F DUP3 GT ISZERO PUSH2 0x2C80 JUMPI PUSH2 0x2C51 DUP2 PUSH2 0x2B20 JUMP JUMPDEST PUSH2 0x2C5A DUP5 PUSH2 0x2B35 JUMP JUMPDEST DUP2 ADD PUSH1 0x20 DUP6 LT ISZERO PUSH2 0x2C69 JUMPI DUP2 SWAP1 POP JUMPDEST PUSH2 0x2C7D PUSH2 0x2C75 DUP6 PUSH2 0x2B35 JUMP JUMPDEST DUP4 ADD DUP3 PUSH2 0x2C1C JUMP JUMPDEST POP POP JUMPDEST POP POP POP JUMP JUMPDEST PUSH1 0x0 DUP3 DUP3 SHR SWAP1 POP SWAP3 SWAP2 POP POP JUMP JUMPDEST PUSH1 0x0 PUSH2 0x2CA3 PUSH1 0x0 NOT DUP5 PUSH1 0x8 MUL PUSH2 0x2C85 JUMP JUMPDEST NOT DUP1 DUP4 AND SWAP2 POP POP SWAP3 SWAP2 POP POP JUMP JUMPDEST PUSH1 0x0 PUSH2 0x2CBC DUP4 DUP4 PUSH2 0x2C92 JUMP JUMPDEST SWAP2 POP DUP3 PUSH1 0x2 MUL DUP3 OR SWAP1 POP SWAP3 SWAP2 POP POP JUMP JUMPDEST PUSH2 0x2CD5 DUP3 PUSH2 0x239F JUMP JUMPDEST PUSH8 0xFFFFFFFFFFFFFFFF DUP2 GT ISZERO PUSH2 0x2CEE JUMPI PUSH2 0x2CED PUSH2 0x26A8 JUMP JUMPDEST JUMPDEST PUSH2 0x2CF8 DUP3 SLOAD PUSH2 0x2963 JUMP JUMPDEST PUSH2 0x2D03 DUP3 DUP3 DUP6 PUSH2 0x2C3F JUMP JUMPDEST PUSH1 0x0 PUSH1 0x20 SWAP1 POP PUSH1 0x1F DUP4 GT PUSH1 0x1 DUP2 EQ PUSH2 0x2D36 JUMPI PUSH1 0x0 DUP5 ISZERO PUSH2 0x2D24 JUMPI DUP3 DUP8 ADD MLOAD SWAP1 POP JUMPDEST PUSH2 0x2D2E DUP6 DUP3 PUSH2 0x2CB0 JUMP JUMPDEST DUP7 SSTORE POP PUSH2 0x2D96 JUMP JUMPDEST PUSH1 0x1F NOT DUP5 AND PUSH2 0x2D44 DUP7 PUSH2 0x2B20 JUMP JUMPDEST PUSH1 0x0 JUMPDEST DUP3 DUP2 LT ISZERO PUSH2 0x2D6C JUMPI DUP5 DUP10 ADD MLOAD DUP3 SSTORE PUSH1 0x1 DUP3 ADD SWAP2 POP PUSH1 0x20 DUP6 ADD SWAP5 POP PUSH1 0x20 DUP2 ADD SWAP1 POP PUSH2 0x2D47 JUMP JUMPDEST DUP7 DUP4 LT ISZERO PUSH2 0x2D89 JUMPI DUP5 DUP10 ADD MLOAD PUSH2 0x2D85 PUSH1 0x1F DUP10 AND DUP3 PUSH2 0x2C92 JUMP JUMPDEST DUP4 SSTORE POP JUMPDEST PUSH1 0x1 PUSH1 0x2 DUP9 MUL ADD DUP9 SSTORE POP POP POP JUMPDEST POP POP POP POP POP POP JUMP INVALID LOG2 PUSH5 0x6970667358 0x22 SLT KECCAK256 0xFC SWAP1 PUSH4 0x3F23DB4E 0xF6 SWAP8 0xB8 DUP16 0xB3 PREVRANDAO DUP10 0xD4 PUSH10 0x6D329D0923FC662AA477 CALLVALUE 0xC4 CALLER 0xBF 0xAC PUSH1 0x64 PUSH20 0x6F6C634300081200330000000000000000000000 "
		},
		"gasEstimates": {
			"creation": {
				"codeDepositCost": "2346400",
				"executionCost": "infinite",
				"totalCost": "infinite"
			},
			"external": {
				"allowance(address,address)": "infinite",
				"approve(address,uint256)": "infinite",
				"balanceOf(address)": "2886",
				"burn(uint256)": "infinite",
				"decimals()": "2575",
				"fetchSettings()": "infinite",
				"grantPermissionAdmin(address)": "29717",
				"maxSupply()": "2532",
				"mint(address,uint256)": "infinite",
				"mintWithVesting(address,uint256,uint256,string)": "infinite",
				"mintable()": "2554",
				"name()": "infinite",
				"release(string)": "infinite",
				"revokePermissionAdmin(address)": "29628",
				"stake(uint256)": "infinite",
				"stakeOf(address)": "2908",
				"symbol()": "infinite",
				"totalStaked()": "2532",
				"totalSupply()": "2555",
				"totalVotes()": "2533",
				"transfer(address,uint256)": "infinite",
				"transferFrom(address,address,uint256)": "infinite",
				"unstake(uint256)": "infinite",
				"update(address)": "28520",
				"updateSettings(uint256,uint256)": "infinite",
				"votesOf(address)": "2908"
			},
			"internal": {
				"burn_(address,uint256)": "infinite",
				"mintWithVesting_(address,uint256,uint256,string memory)": "infinite",
				"mint_(address,uint256)": "infinite",
				"transfer_(address,address,uint256,uint256,uint256)": "infinite"
			}
		},
		"methodIdentifiers": {
			"allowance(address,address)": "dd62ed3e",
			"approve(address,uint256)": "095ea7b3",
			"balanceOf(address)": "70a08231",
			"burn(uint256)": "42966c68",
			"decimals()": "313ce567",
			"fetchSettings()": "4c496d4f",
			"grantPermissionAdmin(address)": "96b75b1a",
			"maxSupply()": "d5abeb01",
			"mint(address,uint256)": "40c10f19",
			"mintWithVesting(address,uint256,uint256,string)": "e4f1b27c",
			"mintable()": "4bf365df",
			"name()": "06fdde03",
			"release(string)": "f34e3723",
			"revokePermissionAdmin(address)": "db3c5fca",
			"stake(uint256)": "a694fc3a",
			"stakeOf(address)": "42623360",
			"symbol()": "95d89b41",
			"totalStaked()": "817b1cd2",
			"totalSupply()": "18160ddd",
			"totalVotes()": "0d15fd77",
			"transfer(address,uint256)": "a9059cbb",
			"transferFrom(address,address,uint256)": "23b872dd",
			"unstake(uint256)": "2e17de78",
			"update(address)": "1c1b8772",
			"updateSettings(uint256,uint256)": "015af8ee",
			"votesOf(address)": "79ec5d3a"
		}
	},
	"abi": [
		{
			"inputs": [
				{
					"internalType": "address",
					"name": "_dev",
					"type": "address"
				}
			],
			"stateMutability": "nonpayable",
			"type": "constructor"
		},
		{
			"anonymous": false,
			"inputs": [
				{
					"indexed": true,
					"internalType": "address",
					"name": "_owner",
					"type": "address"
				},
				{
					"indexed": true,
					"internalType": "address",
					"name": "_spender",
					"type": "address"
				},
				{
					"indexed": false,
					"internalType": "uint256",
					"name": "_value",
					"type": "uint256"
				}
			],
			"name": "Approval",
			"type": "event"
		},
		{
			"anonymous": false,
			"inputs": [
				{
					"indexed": true,
					"internalType": "address",
					"name": "_from",
					"type": "address"
				},
				{
					"indexed": true,
					"internalType": "address",
					"name": "_to",
					"type": "address"
				},
				{
					"indexed": false,
					"internalType": "uint256",
					"name": "_value",
					"type": "uint256"
				}
			],
			"name": "Transfer",
			"type": "event"
		},
		{
			"anonymous": false,
			"inputs": [
				{
					"indexed": true,
					"internalType": "address",
					"name": "_vault",
					"type": "address"
				}
			],
			"name": "Update",
			"type": "event"
		},
		{
			"anonymous": false,
			"inputs": [
				{
					"indexed": false,
					"internalType": "uint256",
					"name": "_bpFeeBurn",
					"type": "uint256"
				},
				{
					"indexed": false,
					"internalType": "uint256",
					"name": "_bpFeeBank",
					"type": "uint256"
				}
			],
			"name": "UpdateToSettings",
			"type": "event"
		},
		{
			"inputs": [
				{
					"internalType": "address",
					"name": "_owner",
					"type": "address"
				},
				{
					"internalType": "address",
					"name": "_spender",
					"type": "address"
				}
			],
			"name": "allowance",
			"outputs": [
				{
					"internalType": "uint256",
					"name": "remaining",
					"type": "uint256"
				}
			],
			"stateMutability": "view",
			"type": "function"
		},
		{
			"inputs": [
				{
					"internalType": "address",
					"name": "_spender",
					"type": "address"
				},
				{
					"internalType": "uint256",
					"name": "_value",
					"type": "uint256"
				}
			],
			"name": "approve",
			"outputs": [
				{
					"internalType": "bool",
					"name": "",
					"type": "bool"
				}
			],
			"stateMutability": "nonpayable",
			"type": "function"
		},
		{
			"inputs": [
				{
					"internalType": "address",
					"name": "_owner",
					"type": "address"
				}
			],
			"name": "balanceOf",
			"outputs": [
				{
					"internalType": "uint256",
					"name": "",
					"type": "uint256"
				}
			],
			"stateMutability": "view",
			"type": "function"
		},
		{
			"inputs": [
				{
					"internalType": "uint256",
					"name": "_value",
					"type": "uint256"
				}
			],
			"name": "burn",
			"outputs": [
				{
					"internalType": "bool",
					"name": "",
					"type": "bool"
				}
			],
			"stateMutability": "nonpayable",
			"type": "function"
		},
		{
			"inputs": [],
			"name": "decimals",
			"outputs": [
				{
					"internalType": "uint8",
					"name": "",
					"type": "uint8"
				}
			],
			"stateMutability": "view",
			"type": "function"
		},
		{
			"inputs": [],
			"name": "fetchSettings",
			"outputs": [
				{
					"internalType": "uint256",
					"name": "",
					"type": "uint256"
				},
				{
					"internalType": "uint256",
					"name": "",
					"type": "uint256"
				},
				{
					"internalType": "uint256",
					"name": "",
					"type": "uint256"
				},
				{
					"internalType": "uint256",
					"name": "",
					"type": "uint256"
				},
				{
					"internalType": "uint256",
					"name": "",
					"type": "uint256"
				},
				{
					"internalType": "uint256",
					"name": "",
					"type": "uint256"
				}
			],
			"stateMutability": "nonpayable",
			"type": "function"
		},
		{
			"inputs": [
				{
					"internalType": "address",
					"name": "_owner",
					"type": "address"
				}
			],
			"name": "grantPermissionAdmin",
			"outputs": [
				{
					"internalType": "bool",
					"name": "",
					"type": "bool"
				}
			],
			"stateMutability": "nonpayable",
			"type": "function"
		},
		{
			"inputs": [],
			"name": "maxSupply",
			"outputs": [
				{
					"internalType": "uint256",
					"name": "",
					"type": "uint256"
				}
			],
			"stateMutability": "view",
			"type": "function"
		},
		{
			"inputs": [
				{
					"internalType": "address",
					"name": "_to",
					"type": "address"
				},
				{
					"internalType": "uint256",
					"name": "_value",
					"type": "uint256"
				}
			],
			"name": "mint",
			"outputs": [
				{
					"internalType": "bool",
					"name": "",
					"type": "bool"
				}
			],
			"stateMutability": "nonpayable",
			"type": "function"
		},
		{
			"inputs": [
				{
					"internalType": "address",
					"name": "_to",
					"type": "address"
				},
				{
					"internalType": "uint256",
					"name": "_value",
					"type": "uint256"
				},
				{
					"internalType": "uint256",
					"name": "_duration",
					"type": "uint256"
				},
				{
					"internalType": "string",
					"name": "_caption",
					"type": "string"
				}
			],
			"name": "mintWithVesting",
			"outputs": [
				{
					"internalType": "bool",
					"name": "",
					"type": "bool"
				}
			],
			"stateMutability": "nonpayable",
			"type": "function"
		},
		{
			"inputs": [],
			"name": "mintable",
			"outputs": [
				{
					"internalType": "uint256",
					"name": "",
					"type": "uint256"
				}
			],
			"stateMutability": "view",
			"type": "function"
		},
		{
			"inputs": [],
			"name": "name",
			"outputs": [
				{
					"internalType": "string",
					"name": "",
					"type": "string"
				}
			],
			"stateMutability": "view",
			"type": "function"
		},
		{
			"inputs": [
				{
					"internalType": "string",
					"name": "_caption",
					"type": "string"
				}
			],
			"name": "release",
			"outputs": [
				{
					"internalType": "bool",
					"name": "",
					"type": "bool"
				}
			],
			"stateMutability": "nonpayable",
			"type": "function"
		},
		{
			"inputs": [
				{
					"internalType": "address",
					"name": "_owner",
					"type": "address"
				}
			],
			"name": "revokePermissionAdmin",
			"outputs": [
				{
					"internalType": "bool",
					"name": "",
					"type": "bool"
				}
			],
			"stateMutability": "nonpayable",
			"type": "function"
		},
		{
			"inputs": [
				{
					"internalType": "uint256",
					"name": "_value",
					"type": "uint256"
				}
			],
			"name": "stake",
			"outputs": [
				{
					"internalType": "bool",
					"name": "",
					"type": "bool"
				}
			],
			"stateMutability": "nonpayable",
			"type": "function"
		},
		{
			"inputs": [
				{
					"internalType": "address",
					"name": "_owner",
					"type": "address"
				}
			],
			"name": "stakeOf",
			"outputs": [
				{
					"internalType": "uint256",
					"name": "",
					"type": "uint256"
				}
			],
			"stateMutability": "view",
			"type": "function"
		},
		{
			"inputs": [],
			"name": "symbol",
			"outputs": [
				{
					"internalType": "string",
					"name": "",
					"type": "string"
				}
			],
			"stateMutability": "view",
			"type": "function"
		},
		{
			"inputs": [],
			"name": "totalStaked",
			"outputs": [
				{
					"internalType": "uint256",
					"name": "",
					"type": "uint256"
				}
			],
			"stateMutability": "view",
			"type": "function"
		},
		{
			"inputs": [],
			"name": "totalSupply",
			"outputs": [
				{
					"internalType": "uint256",
					"name": "",
					"type": "uint256"
				}
			],
			"stateMutability": "view",
			"type": "function"
		},
		{
			"inputs": [],
			"name": "totalVotes",
			"outputs": [
				{
					"internalType": "uint256",
					"name": "",
					"type": "uint256"
				}
			],
			"stateMutability": "view",
			"type": "function"
		},
		{
			"inputs": [
				{
					"internalType": "address",
					"name": "_to",
					"type": "address"
				},
				{
					"internalType": "uint256",
					"name": "_value",
					"type": "uint256"
				}
			],
			"name": "transfer",
			"outputs": [
				{
					"internalType": "bool",
					"name": "",
					"type": "bool"
				}
			],
			"stateMutability": "nonpayable",
			"type": "function"
		},
		{
			"inputs": [
				{
					"internalType": "address",
					"name": "_from",
					"type": "address"
				},
				{
					"internalType": "address",
					"name": "_to",
					"type": "address"
				},
				{
					"internalType": "uint256",
					"name": "_value",
					"type": "uint256"
				}
			],
			"name": "transferFrom",
			"outputs": [
				{
					"internalType": "bool",
					"name": "",
					"type": "bool"
				}
			],
			"stateMutability": "nonpayable",
			"type": "function"
		},
		{
			"inputs": [
				{
					"internalType": "uint256",
					"name": "_value",
					"type": "uint256"
				}
			],
			"name": "unstake",
			"outputs": [
				{
					"internalType": "bool",
					"name": "",
					"type": "bool"
				}
			],
			"stateMutability": "nonpayable",
			"type": "function"
		},
		{
			"inputs": [
				{
					"internalType": "address",
					"name": "_vault",
					"type": "address"
				}
			],
			"name": "update",
			"outputs": [
				{
					"internalType": "bool",
					"name": "",
					"type": "bool"
				}
			],
			"stateMutability": "nonpayable",
			"type": "function"
		},
		{
			"inputs": [
				{
					"internalType": "uint256",
					"name": "_bpFeeBurn",
					"type": "uint256"
				},
				{
					"internalType": "uint256",
					"name": "_bpFeeBank",
					"type": "uint256"
				}
			],
			"name": "updateSettings",
			"outputs": [
				{
					"internalType": "bool",
					"name": "",
					"type": "bool"
				}
			],
			"stateMutability": "nonpayable",
			"type": "function"
		},
		{
			"inputs": [
				{
					"internalType": "address",
					"name": "_owner",
					"type": "address"
				}
			],
			"name": "votesOf",
			"outputs": [
				{
					"internalType": "uint256",
					"name": "",
					"type": "uint256"
				}
			],
			"stateMutability": "view",
			"type": "function"
		}
	]
}