{
	"data": {
		"bytecode": {
			"linkReferences": {},
			"object": "60806040523480156200001157600080fd5b50620000283360006200002f60201b90919060201c565b5062000104565b60006200005f836000018373ffffffffffffffffffffffffffffffffffffffff1660001b6200006760201b60201c565b905092915050565b60006200007b8383620000e160201b60201c565b620000d6578260000182908060018154018082558091505060019003906000526020600020016000909190919091505582600001805490508360010160008481526020019081526020016000208190555060019050620000db565b600090505b92915050565b600080836001016000848152602001908152602001600020541415905092915050565b6152e780620001146000396000f3fe608060405234801561001057600080fd5b506004361061047f5760003560e01c80637048027511610257578063b60f563811610146578063d6401653116100c3578063e2a4853a11610087578063e2a4853a14610fa0578063ea19200614610fbc578063eac954c714610fd8578063ed010d4114611008578063fc0e8107146110385761047f565b8063d640165314610ed8578063d900ffb214610ef4578063dc97d96214610f24578063dd03199714610f54578063dd151d1e14610f845761047f565b8063c031a1801161010a578063c031a18014610e10578063c50359e514610e40578063ca446dd914610e70578063cc2a29e214610e8c578063ccc9fc7714610ebc5761047f565b8063b60f563814610d20578063b784f20814610d50578063bac3201314610d80578063bb6eecad14610db0578063bd02d0f514610de05761047f565b80639e29a54b116101d4578063a653710011610198578063a653710014610c80578063a6ed563e14610c9c578063abfdcced14610ccc578063ac6dad0a14610ce8578063b27e432814610d045761047f565b80639e29a54b14610ba4578063a0d8bc5e14610bd4578063a1a7fa4414610c04578063a235b5ca14610c34578063a4fc57b914610c505761047f565b80637ae1cfca1161021b5780637ae1cfca14610ac857806386ac6bdf14610af85780638db0e83b14610b285780638e4a48c514610b58578063986e791a14610b745761047f565b80637048027514610a2857806371d92a0114610a4457806372a9b6c514610a7457806376608f4014610a9057806379ef704e14610aac5761047f565b80632e25156f116103735780634371ee56116102f05780635948f733116102b45780635948f733146109745780635beff993146109a45780636290ef30146109c05780636ab3b2ff146109dc5780636e89955014610a0c5761047f565b80634371ee56146108e8578063443dc70c146109045780634ac79795146109205780634e91db081461093c57806352164cc1146109585761047f565b8063357ed22511610337578063357ed22514610820578063396d044c146108505780633a7979c91461086c5780633e49bed01461089c5780634077e72d146108b85761047f565b80632e25156f146107925780632e28d084146107ae57806331ae450b146107ca57806332bde6dc146107e8578063345257e3146108045761047f565b806321f8a7211161040157806328a03356116103c557806328a03356146106b65780632ad9450d146106e65780632c545cca146107165780632c58facc146107325780632d2899b6146107625761047f565b806321f8a7211461061457806324831c4814610644578063262faddf1461066057806326fab5e01461067c57806327f2bc111461069a5761047f565b80630a030ced116104485780630a030ced14610560578063116bb929146105905780631785f53c146105c05780631b929940146105dc5780631cdffca9146105f85761047f565b8062d10c161461048457806301677da2146104a0578063033d069a146104d057806303d14efc146105005780630437594914610530575b600080fd5b61049e6004803603810190610499919061380d565b611068565b005b6104ba60048036038101906104b59190613860565b611128565b6040516104c791906139df565b60405180910390f35b6104ea60048036038101906104e59190613860565b611214565b6040516104f79190613a10565b60405180910390f35b61051a60048036038101906105159190613a2b565b611234565b6040516105279190613a86565b60405180910390f35b61054a60048036038101906105459190613860565b611283565b6040516105579190613a10565b60405180910390f35b61057a60048036038101906105759190613aa1565b6112a3565b6040516105879190613a86565b60405180910390f35b6105aa60048036038101906105a59190613860565b6112d2565b6040516105b79190613b9f565b60405180910390f35b6105da60048036038101906105d59190613bc1565b611362565b005b6105f660048036038101906105f19190613c24565b611418565b005b610612600480360381019061060d9190613a2b565b61148c565b005b61062e60048036038101906106299190613860565b6114ec565b60405161063b9190613c73565b60405180910390f35b61065e60048036038101906106599190613dc3565b611529565b005b61067a60048036038101906106759190613e4b565b6115be565b005b61068461164b565b6040516106919190613f5c565b60405180910390f35b6106b460048036038101906106af9190613860565b61165c565b005b6106d060048036038101906106cb9190613860565b6116b3565b6040516106dd919061403c565b60405180910390f35b61070060048036038101906106fb9190613a2b565b6116d7565b60405161070d91906140a8565b60405180910390f35b610730600480360381019061072b91906140ca565b611799565b005b61074c60048036038101906107479190613860565b61182a565b6040516107599190613f5c565b60405180910390f35b61077c60048036038101906107779190613860565b61184e565b60405161078991906141c8565b60405180910390f35b6107ac60048036038101906107a791906141ea565b6118b9565b005b6107c860048036038101906107c39190613dc3565b611929565b005b6107d2611999565b6040516107df9190613f5c565b60405180910390f35b61080260048036038101906107fd919061423d565b6119aa565b005b61081e60048036038101906108199190613aa1565b611a38565b005b61083a60048036038101906108359190613860565b611a98565b6040516108479190613a10565b60405180910390f35b61086a60048036038101906108659190613860565b611ab8565b005b61088660048036038101906108819190613a2b565b611b0f565b60405161089391906142bb565b60405180910390f35b6108b660048036038101906108b19190613c24565b611b3e565b005b6108d260048036038101906108cd9190613860565b611b90565b6040516108df9190613a10565b60405180910390f35b61090260048036038101906108fd91906142d6565b611bb4565b005b61091e600480360381019061091991906143b7565b611c2a565b005b61093a60048036038101906109359190613bc1565b611cb8565b005b61095660048036038101906109519190613aa1565b611d6e565b005b610972600480360381019061096d9190613860565b611dc0565b005b61098e60048036038101906109899190613860565b611e17565b60405161099b9190613f5c565b60405180910390f35b6109be60048036038101906109b99190613860565b611eb8565b005b6109da60048036038101906109d59190613a2b565b611f0f565b005b6109f660048036038101906109f19190613a2b565b611f6f565b604051610a039190613c73565b60405180910390f35b610a266004803603810190610a219190614426565b611f9e565b005b610a426004803603810190610a3d9190613bc1565b61200e565b005b610a5e6004803603810190610a599190613a2b565b612188565b604051610a6b91906142bb565b60405180910390f35b610a8e6004803603810190610a899190613a2b565b6121c2565b005b610aaa6004803603810190610aa59190613860565b612236565b005b610ac66004803603810190610ac19190613bc1565b61228d565b005b610ae26004803603810190610add9190613860565b612407565b604051610aef9190613a86565b60405180910390f35b610b126004803603810190610b0d9190613860565b612431565b604051610b1f919061403c565b60405180910390f35b610b426004803603810190610b3d9190613860565b61249c565b604051610b4f9190614599565b60405180910390f35b610b726004803603810190610b6d91906142d6565b612588565b005b610b8e6004803603810190610b899190613860565b6125fe565b604051610b9b91906140a8565b60405180910390f35b610bbe6004803603810190610bb99190613860565b6126a3565b604051610bcb9190613a10565b60405180910390f35b610bee6004803603810190610be99190613a2b565b6126c3565b604051610bfb9190613c73565b60405180910390f35b610c1e6004803603810190610c199190613a2b565b61271d565b604051610c2b91906145ca565b60405180910390f35b610c4e6004803603810190610c499190614426565b612757565b005b610c6a6004803603810190610c659190613860565b6127ec565b604051610c779190613a10565b60405180910390f35b610c9a6004803603810190610c9591906145e5565b612810565b005b610cb66004803603810190610cb19190613860565b612880565b604051610cc391906142bb565b60405180910390f35b610ce66004803603810190610ce191906140ca565b61289d565b005b610d026004803603810190610cfd9190614638565b612904565b005b610d1e6004803603810190610d199190613aa1565b612974565b005b610d3a6004803603810190610d359190613a2b565b6129e8565b604051610d479190613a86565b60405180910390f35b610d6a6004803603810190610d659190613860565b612a17565b604051610d779190613a10565b60405180910390f35b610d9a6004803603810190610d9591906142d6565b612a37565b604051610da79190613a86565b60405180910390f35b610dca6004803603810190610dc59190613860565b612a66565b604051610dd79190613a10565b60405180910390f35b610dfa6004803603810190610df59190613860565b612a86565b604051610e079190613a10565b60405180910390f35b610e2a6004803603810190610e259190613860565b612aa3565b604051610e3791906146d5565b60405180910390f35b610e5a6004803603810190610e559190613a2b565b612b48565b604051610e679190613a10565b60405180910390f35b610e8a6004803603810190610e8591906142d6565b612b82565b005b610ea66004803603810190610ea19190613860565b612c24565b604051610eb39190613a10565b60405180910390f35b610ed66004803603810190610ed19190613aa1565b612c48565b005b610ef26004803603810190610eed9190613860565b612ca8565b005b610f0e6004803603810190610f099190613860565b612cff565b604051610f1b91906147b5565b60405180910390f35b610f3e6004803603810190610f399190613860565b612d23565b604051610f4b91906145ca565b60405180910390f35b610f6e6004803603810190610f699190613860565b612d40565b604051610f7b91906147b5565b60405180910390f35b610f9e6004803603810190610f9991906142d6565b612dab565b005b610fba6004803603810190610fb59190613a2b565b612e6f565b005b610fd66004803603810190610fd19190613860565b612ec1565b005b610ff26004803603810190610fed9190613a2b565b612f18565b604051610fff9190613a10565b60405180910390f35b611022600480360381019061101d9190613a2b565b612f47565b60405161102f91906146d5565b60405180910390f35b611052600480360381019061104d9190613860565b613009565b60405161105f9190613a10565b60405180910390f35b611070613029565b80600f60008581526020019081526020016000208381548110611096576110956147d7565b5b9060005260206000200160006101000a81548173ffffffffffffffffffffffffffffffffffffffff021916908373ffffffffffffffffffffffffffffffffffffffff1602179055508073ffffffffffffffffffffffffffffffffffffffff1682847fd2f5d41f179bd48e5c15ede1980c8b8abd663a8784def1506f06b43c3f7540dc60405160405180910390a4505050565b6060600b6000838152602001908152602001600020805480602002602001604051908101604052809291908181526020016000905b8282101561120957838290600052602060002001805461117c90614835565b80601f01602080910402602001604051908101604052809291908181526020018280546111a890614835565b80156111f55780601f106111ca576101008083540402835291602001916111f5565b820191906000526020600020905b8154815290600101906020018083116111d857829003601f168201915b50505050508152602001906001019061115d565b505050509050919050565b600060106000838152602001908152602001600020805490509050919050565b600060106000848152602001908152602001600020828154811061125b5761125a6147d7565b5b90600052602060002090602091828204019190069054906101000a900460ff16905092915050565b6000600e6000838152602001908152602001600020805490509050919050565b60006112ca826014600086815260200190815260200160002061307e90919063ffffffff16565b905092915050565b60606010600083815260200190815260200160002080548060200260200160405190810160405280929190818152602001828054801561135657602002820191906000526020600020906000905b82829054906101000a900460ff161515815260200190600101906020826000010492830192600103820291508084116113205790505b50505050509050919050565b61136a613095565b61137e8160006130ea90919063ffffffff16565b6113bd576040517f08c379a00000000000000000000000000000000000000000000000000000000081526004016113b4906148d8565b60405180910390fd5b6113d181600061311a90919063ffffffff16565b508073ffffffffffffffffffffffffffffffffffffffff167fa3b62bc36326052d97ea62d63c3d60308ed4c3ea8ac079dd8499f1e9c4f80c0f60405160405180910390a250565b611420613029565b600e600083815260200190815260200160002081908060018154018082558091505060019003906000526020600020016000909190919091505580827f366b3b333d4b400c725d1c4907e89aba5356cde38333b0000e00589ba9f56fc760405160405180910390a35050565b611494613029565b6114b9816013600085815260200190815260200160002061314a90919063ffffffff16565b5080827f73dd445daa17bcd5ce3cec783aaefcbf4d85d5e8ba03f48bdbf2869898360d0460405160405180910390a35050565b60006008600083815260200190815260200160002060009054906101000a900473ffffffffffffffffffffffffffffffffffffffff169050919050565b611531613029565b600c6000838152602001908152602001600020819080600181540180825580915050600190039060005260206000200160009091909190915090816115769190614aa4565b50806040516115859190614bb2565b6040518091039020827fdde4bd53bf3a7a92d032ee9b0347bca5001a0bb84aad48833422c5b91dddc99b60405160405180910390a35050565b6115c6613029565b806010600085815260200190815260200160002083815481106115ec576115eb6147d7565b5b90600052602060002090602091828204019190066101000a81548160ff02191690831515021790555080151582847fc2039541b580b3589343d71a204ff422e8be8c6435b5da11c75167f86eb8ba5e60405160405180910390a4505050565b60606116576002613164565b905090565b611664613029565b6010600082815260200190815260200160002060006116839190613522565b807fda4af972356e2142ec77e2c6dadee7de258f53de1db4e26e88de62f6ea5314ae60405160405180910390a250565b60606116d060136000848152602001908152602001600020613185565b9050919050565b6060600b600084815260200190815260200160002082815481106116fe576116fd6147d7565b5b90600052602060002001805461171390614835565b80601f016020809104026020016040519081016040528092919081815260200182805461173f90614835565b801561178c5780601f106117615761010080835404028352916020019161178c565b820191906000526020600020905b81548152906001019060200180831161176f57829003601f168201915b5050505050905092915050565b6117a1613029565b601060008381526020019081526020016000208190806001815401808255809150506001900390600052602060002090602091828204019190069091909190916101000a81548160ff021916908315150217905550801515827fc0bdcc46c2ed4cd71034217dd319177970d7296c027012b6e42b53d23912a4d160405160405180910390a35050565b606061184760126000848152602001908152602001600020613164565b9050919050565b6060600e60008381526020019081526020016000208054806020026020016040519081016040528092919081815260200182805480156118ad57602002820191906000526020600020905b815481526020019060010190808311611899575b50505050509050919050565b6118c1613029565b80600e600085815260200190815260200160002083815481106118e7576118e66147d7565b5b90600052602060002001819055508082847fe7421d5780c4b60ea32c2c2af5b632578ebe47a4171d72b993829bdba8f5c4f460405160405180910390a4505050565b611931613029565b806005600084815260200190815260200160002090816119519190614aa4565b50806040516119609190614bb2565b6040518091039020827fd096c701e4682f37212e802ed4cf349ea9963a1733ced3b25f352e02effbf5be60405160405180910390a35050565b60606119a56000613164565b905090565b6119b2613029565b80600c600085815260200190815260200160002083815481106119d8576119d76147d7565b5b9060005260206000200190816119ee9190614aa4565b50806040516119fd9190614bb2565b604051809103902082847f990897e4a3e5b9a7ef3d37c1560ac0033686c95e3b50e204705f24ee7b57384f60405160405180910390a4505050565b611a40613029565b611a6581601460008581526020019081526020016000206131a690919063ffffffff16565b5080827fe2a6bdf7783cb48980d5377cd4220afa4ca6f00cf8e5fe2fa7741c2d41da386960405160405180910390a35050565b6000600b6000838152602001908152602001600020805490509050919050565b611ac0613029565b600b60008281526020019081526020016000206000611adf919061354a565b807f92ae819f97d54fcaab813d1a7cd27c2d63d9929bf34a2bcc058591b41bc0ab2f60405160405180910390a250565b6000611b3682601460008681526020019081526020016000206131bd90919063ffffffff16565b905092915050565b611b46613029565b80600760008481526020019081526020016000208190555080827f851843d4b447dec9b1ac320cbd13297fadf0bc1a312213215ac4a672e419664d60405160405180910390a35050565b6000611bad601460008481526020019081526020016000206131d4565b9050919050565b611bbc613029565b611be181601260008581526020019081526020016000206131e990919063ffffffff16565b508073ffffffffffffffffffffffffffffffffffffffff16827f70ce632f4a800cdaa44a38b4ab7ed7e48a233a571d93f3c0de0ab51c2831c2e060405160405180910390a35050565b611c32613029565b80600b60008581526020019081526020016000208381548110611c5857611c576147d7565b5b906000526020600020019081611c6e9190614c24565b5080604051611c7d9190614d32565b604051809103902082847f0ce986f99be33164ea4ef2d321d30e1f08a18d62891c41635d33f68bf5d652b960405160405180910390a4505050565b611cc0613095565b611cd48160026130ea90919063ffffffff16565b611d13576040517f08c379a0000000000000000000000000000000000000000000000000000000008152600401611d0a90614dbb565b60405180910390fd5b611d2781600261311a90919063ffffffff16565b508073ffffffffffffffffffffffffffffffffffffffff167f9f60fd9ac36634c8a086fb62b8d5f9b088ed08a56805bb49b467012264d1444c60405160405180910390a250565b611d76613029565b80600a60008481526020019081526020016000208190555080827fb3136808963e0d42998546ae2b96c46345a3400f6d7eb74255242011c048d55b60405160405180910390a35050565b611dc8613029565b601160008281526020019081526020016000206000611de7919061356b565b807f838cbe8fe15886750ba9cdb84e73f4ffc909553c408c94599f3e4253cf1ea37d60405160405180910390a250565b6060600f6000838152602001908152602001600020805480602002602001604051908101604052809291908181526020018280548015611eac57602002820191906000526020600020905b8160009054906101000a900473ffffffffffffffffffffffffffffffffffffffff1673ffffffffffffffffffffffffffffffffffffffff1681526020019060010190808311611e62575b50505050509050919050565b611ec0613029565b600f60008281526020019081526020016000206000611edf919061358c565b807f05ffbe41c6b9d32584d14f79733696a0fae2620d711b8963a8ffe51938c20d1d60405160405180910390a250565b611f17613029565b611f3c816013600085815260200190815260200160002061321990919063ffffffff16565b5080827f2b3035f3b7efe4342bd7103c3a6bd0a15bbb9d9df493078482071ecf64ade7d160405160405180910390a35050565b6000611f96826012600086815260200190815260200160002061323390919063ffffffff16565b905092915050565b611fa6613029565b80600460008481526020019081526020016000209081611fc69190614c24565b5080604051611fd59190614d32565b6040518091039020827f8c0cf148176b448012b9336668c5a483bd8b9add83edff1ccfb4bf1ca953948a60405160405180910390a35050565b612016613095565b600073ffffffffffffffffffffffffffffffffffffffff168173ffffffffffffffffffffffffffffffffffffffff1603612085576040517f08c379a000000000000000000000000000000000000000000000000000000000815260040161207c90614e4d565b60405180910390fd5b6120998160006130ea90919063ffffffff16565b156120d9576040517f08c379a00000000000000000000000000000000000000000000000000000000081526004016120d090614edf565b60405180910390fd5b6120ed8160026130ea90919063ffffffff16565b1561212d576040517f08c379a000000000000000000000000000000000000000000000000000000000815260040161212490614f71565b60405180910390fd5b6121418160006131e990919063ffffffff16565b508073ffffffffffffffffffffffffffffffffffffffff167f44d6d25963f097ad14f29f06854a01f575648a1ef82f30e562ccd3889717e33960405160405180910390a250565b60006011600084815260200190815260200160002082815481106121af576121ae6147d7565b5b9060005260206000200154905092915050565b6121ca613029565b600d600083815260200190815260200160002081908060018154018082558091505060019003906000526020600020016000909190919091505580827f484692bb4f0cbb766ec4c59991fc46419a4fd5533e9f6e90584e3b70b5c1a25860405160405180910390a35050565b61223e613029565b600d6000828152602001908152602001600020600061225d91906135ad565b807fbe33aa4b109dbd15cb31584b59264319c3700225871ce6ea03679633920ed87760405160405180910390a250565b612295613095565b600073ffffffffffffffffffffffffffffffffffffffff168173ffffffffffffffffffffffffffffffffffffffff1603612304576040517f08c379a00000000000000000000000000000000000000000000000000000000081526004016122fb90615003565b60405180910390fd5b6123188160026130ea90919063ffffffff16565b15612358576040517f08c379a000000000000000000000000000000000000000000000000000000000815260040161234f90615095565b60405180910390fd5b61236c8160006130ea90919063ffffffff16565b156123ac576040517f08c379a00000000000000000000000000000000000000000000000000000000081526004016123a390615127565b60405180910390fd5b6123c08160026131e990919063ffffffff16565b508073ffffffffffffffffffffffffffffffffffffffff167fce0ca4df7a7ec71282174625246800d852b6926b9760ef984c9fa6611e71724a60405160405180910390a250565b60006009600083815260200190815260200160002060009054906101000a900460ff169050919050565b6060600d600083815260200190815260200160002080548060200260200160405190810160405280929190818152602001828054801561249057602002820191906000526020600020905b81548152602001906001019080831161247c575b50505050509050919050565b6060600c6000838152602001908152602001600020805480602002602001604051908101604052809291908181526020016000905b8282101561257d5783829060005260206000200180546124f090614835565b80601f016020809104026020016040519081016040528092919081815260200182805461251c90614835565b80156125695780601f1061253e57610100808354040283529160200191612569565b820191906000526020600020905b81548152906001019060200180831161254c57829003601f168201915b5050505050815260200190600101906124d1565b505050509050919050565b612590613029565b6125b5816012600085815260200190815260200160002061311a90919063ffffffff16565b508073ffffffffffffffffffffffffffffffffffffffff16827f3fec3b0bc0aadfa3a981cd090314686fa13fbedb7b666c18166d40935d2a5dff60405160405180910390a35050565b606060046000838152602001908152602001600020805461261e90614835565b80601f016020809104026020016040519081016040528092919081815260200182805461264a90614835565b80156126975780601f1061266c57610100808354040283529160200191612697565b820191906000526020600020905b81548152906001019060200180831161267a57829003601f168201915b50505050509050919050565b6000600d6000838152602001908152602001600020805490509050919050565b6000600f600084815260200190815260200160002082815481106126ea576126e96147d7565b5b9060005260206000200160009054906101000a900473ffffffffffffffffffffffffffffffffffffffff16905092915050565b6000600e60008481526020019081526020016000208281548110612744576127436147d7565b5b9060005260206000200154905092915050565b61275f613029565b600b6000838152602001908152602001600020819080600181540180825580915050600190039060005260206000200160009091909190915090816127a49190614c24565b50806040516127b39190614d32565b6040518091039020827f7296e94a66aefc373465eb2b547d38cd1b6bebb1d1b958eb85e392826b7f54fc60405160405180910390a35050565b60006128096013600084815260200190815260200160002061324d565b9050919050565b612818613029565b8060116000858152602001908152602001600020838154811061283e5761283d6147d7565b5b90600052602060002001819055508082847f5cbaac023df7310e2497e1c450d6c23fb132694563fef6429cd7276c9dcd50ac60405160405180910390a4505050565b6000600a6000838152602001908152602001600020549050919050565b6128a5613029565b806009600084815260200190815260200160002060006101000a81548160ff021916908315150217905550801515827fdd2b1d2ca69f5297d9ccd354ac8e5fb2b29d86c4309e7a269bad94c3a73d361560405160405180910390a35050565b61290c613029565b80600d60008581526020019081526020016000208381548110612932576129316147d7565b5b90600052602060002001819055508082847f8114b25c120440acf485bff75482ad62dc0427f5920474f5c5a3b6a960a9cc9260405160405180910390a4505050565b61297c613029565b6011600083815260200190815260200160002081908060018154018082558091505060019003906000526020600020016000909190919091505580827f156bd7fca2a189317ef136885f41760a41604ab413d32e8ae5684c6f3730d4b460405160405180910390a35050565b6000612a0f826013600086815260200190815260200160002061326290919063ffffffff16565b905092915050565b6000600c6000838152602001908152602001600020805490509050919050565b6000612a5e82601260008681526020019081526020016000206130ea90919063ffffffff16565b905092915050565b600060116000838152602001908152602001600020805490509050919050565b600060066000838152602001908152602001600020549050919050565b6060600560008381526020019081526020016000208054612ac390614835565b80601f0160208091040260200160405190810160405280929190818152602001828054612aef90614835565b8015612b3c5780601f10612b1157610100808354040283529160200191612b3c565b820191906000526020600020905b815481529060010190602001808311612b1f57829003601f168201915b50505050509050919050565b6000600d60008481526020019081526020016000208281548110612b6f57612b6e6147d7565b5b9060005260206000200154905092915050565b612b8a613029565b806008600084815260200190815260200160002060006101000a81548173ffffffffffffffffffffffffffffffffffffffff021916908373ffffffffffffffffffffffffffffffffffffffff1602179055508073ffffffffffffffffffffffffffffffffffffffff16827f324ba9655e72cb8d5f0b9c49823db98efb875d4d05fe0824e62b305d16cd430a60405160405180910390a35050565b6000612c416012600084815260200190815260200160002061327c565b9050919050565b612c50613029565b612c75816014600085815260200190815260200160002061329190919063ffffffff16565b5080827fa74dabb6d37c3b941a26a5f88578ca897addb1268864619ec91e1e2fc18bb69660405160405180910390a35050565b612cb0613029565b600c60008281526020019081526020016000206000612ccf91906135ce565b807f019add3b2ec9822e603ca1f57618dd6af2b1348296bbbb8376fe9dc1e319da0860405160405180910390a250565b6060612d1c601460008481526020019081526020016000206132a8565b9050919050565b600060076000838152602001908152602001600020549050919050565b606060116000838152602001908152602001600020805480602002602001604051908101604052809291908181526020018280548015612d9f57602002820191906000526020600020905b815481526020019060010190808311612d8b575b50505050509050919050565b612db3613029565b600f6000838152602001908152602001600020819080600181540180825580915050600190039060005260206000200160009091909190916101000a81548173ffffffffffffffffffffffffffffffffffffffff021916908373ffffffffffffffffffffffffffffffffffffffff1602179055508073ffffffffffffffffffffffffffffffffffffffff16827fbfd4d086f21ae1c8189a93292a7df637f36580d296ab99602f932620eddc04a160405160405180910390a35050565b612e77613029565b80600660008481526020019081526020016000208190555080827fa9a0b1eb0739adff2d29d6b8eac26dea37b499adec7b3f98326a31783e4c053b60405160405180910390a35050565b612ec9613029565b600e60008281526020019081526020016000206000612ee891906135ef565b807f971b97a34fce79dd5d79725fe340cbeebf0ca15043ecde2f9505c3f857030c8a60405160405180910390a250565b6000612f3f82601360008681526020019081526020016000206132c990919063ffffffff16565b905092915050565b6060600c60008481526020019081526020016000208281548110612f6e57612f6d6147d7565b5b906000526020600020018054612f8390614835565b80601f0160208091040260200160405190810160405280929190818152602001828054612faf90614835565b8015612ffc5780601f10612fd157610100808354040283529160200191612ffc565b820191906000526020600020905b815481529060010190602001808311612fdf57829003601f168201915b5050505050905092915050565b6000600f6000838152602001908152602001600020805490509050919050565b61303d3360026130ea90919063ffffffff16565b61307c576040517f08c379a000000000000000000000000000000000000000000000000000000000815260040161307390615193565b60405180910390fd5b565b600061308d83600001836132e3565b905092915050565b6130a93360006130ea90919063ffffffff16565b6130e8576040517f08c379a00000000000000000000000000000000000000000000000000000000081526004016130df906151ff565b60405180910390fd5b565b6000613112836000018373ffffffffffffffffffffffffffffffffffffffff1660001b6132e3565b905092915050565b6000613142836000018373ffffffffffffffffffffffffffffffffffffffff1660001b613306565b905092915050565b600061315c836000018360001b613306565b905092915050565b606060006131748360000161341a565b905060608190508092505050919050565b606060006131958360000161341a565b905060608190508092505050919050565b60006131b58360000183613476565b905092915050565b60006131cc83600001836134e6565b905092915050565b60006131e282600001613511565b9050919050565b6000613211836000018373ffffffffffffffffffffffffffffffffffffffff1660001b613476565b905092915050565b600061322b836000018360001b613476565b905092915050565b600061324283600001836134e6565b60001c905092915050565b600061325b82600001613511565b9050919050565b6000613274836000018360001b6132e3565b905092915050565b600061328a82600001613511565b9050919050565b60006132a08360000183613306565b905092915050565b606060006132b88360000161341a565b905060608190508092505050919050565b60006132d883600001836134e6565b60001c905092915050565b600080836001016000848152602001908152602001600020541415905092915050565b6000808360010160008481526020019081526020016000205490506000811461340e576000600182613338919061524e565b9050600060018660000180549050613350919061524e565b90508181146133bf576000866000018281548110613371576133706147d7565b5b9060005260206000200154905080876000018481548110613395576133946147d7565b5b90600052602060002001819055508387600101600083815260200190815260200160002081905550505b856000018054806133d3576133d2615282565b5b600190038181906000526020600020016000905590558560010160008681526020019081526020016000206000905560019350505050613414565b60009150505b92915050565b60608160000180548060200260200160405190810160405280929190818152602001828054801561346a57602002820191906000526020600020905b815481526020019060010190808311613456575b50505050509050919050565b600061348283836132e3565b6134db5782600001829080600181540180825580915050600190039060005260206000200160009091909190915055826000018054905083600101600084815260200190815260200160002081905550600190506134e0565b600090505b92915050565b60008260000182815481106134fe576134fd6147d7565b5b9060005260206000200154905092915050565b600081600001805490509050919050565b50805460008255601f0160209004906000526020600020908101906135479190613610565b50565b5080546000825590600052602060002090810190613568919061362d565b50565b50805460008255906000526020600020908101906135899190613651565b50565b50805460008255906000526020600020908101906135aa9190613610565b50565b50805460008255906000526020600020908101906135cb9190613610565b50565b50805460008255906000526020600020908101906135ec919061366e565b50565b508054600082559060005260206000209081019061360d9190613692565b50565b5b80821115613629576000816000905550600101613611565b5090565b5b8082111561364d576000818161364491906136af565b5060010161362e565b5090565b5b8082111561366a576000816000905550600101613652565b5090565b5b8082111561368e576000818161368591906136ef565b5060010161366f565b5090565b5b808211156136ab576000816000905550600101613693565b5090565b5080546136bb90614835565b6000825580601f106136cd57506136ec565b601f0160209004906000526020600020908101906136eb9190613610565b5b50565b5080546136fb90614835565b6000825580601f1061370d575061372c565b601f01602090049060005260206000209081019061372b9190613610565b5b50565b6000604051905090565b600080fd5b600080fd5b6000819050919050565b61375681613743565b811461376157600080fd5b50565b6000813590506137738161374d565b92915050565b6000819050919050565b61378c81613779565b811461379757600080fd5b50565b6000813590506137a981613783565b92915050565b600073ffffffffffffffffffffffffffffffffffffffff82169050919050565b60006137da826137af565b9050919050565b6137ea816137cf565b81146137f557600080fd5b50565b600081359050613807816137e1565b92915050565b60008060006060848603121561382657613825613739565b5b600061383486828701613764565b93505060206138458682870161379a565b9250506040613856868287016137f8565b9150509250925092565b60006020828403121561387657613875613739565b5b600061388484828501613764565b91505092915050565b600081519050919050565b600082825260208201905092915050565b6000819050602082019050919050565b600081519050919050565b600082825260208201905092915050565b60005b838110156138f35780820151818401526020810190506138d8565b60008484015250505050565b6000601f19601f8301169050919050565b600061391b826138b9565b61392581856138c4565b93506139358185602086016138d5565b61393e816138ff565b840191505092915050565b60006139558383613910565b905092915050565b6000602082019050919050565b60006139758261388d565b61397f8185613898565b935083602082028501613991856138a9565b8060005b858110156139cd57848403895281516139ae8582613949565b94506139b98361395d565b925060208a01995050600181019050613995565b50829750879550505050505092915050565b600060208201905081810360008301526139f9818461396a565b905092915050565b613a0a81613779565b82525050565b6000602082019050613a256000830184613a01565b92915050565b60008060408385031215613a4257613a41613739565b5b6000613a5085828601613764565b9250506020613a618582860161379a565b9150509250929050565b60008115159050919050565b613a8081613a6b565b82525050565b6000602082019050613a9b6000830184613a77565b92915050565b60008060408385031215613ab857613ab7613739565b5b6000613ac685828601613764565b9250506020613ad785828601613764565b9150509250929050565b600081519050919050565b600082825260208201905092915050565b6000819050602082019050919050565b613b1681613a6b565b82525050565b6000613b288383613b0d565b60208301905092915050565b6000602082019050919050565b6000613b4c82613ae1565b613b568185613aec565b9350613b6183613afd565b8060005b83811015613b92578151613b798882613b1c565b9750613b8483613b34565b925050600181019050613b65565b5085935050505092915050565b60006020820190508181036000830152613bb98184613b41565b905092915050565b600060208284031215613bd757613bd6613739565b5b6000613be5848285016137f8565b91505092915050565b6000819050919050565b613c0181613bee565b8114613c0c57600080fd5b50565b600081359050613c1e81613bf8565b92915050565b60008060408385031215613c3b57613c3a613739565b5b6000613c4985828601613764565b9250506020613c5a85828601613c0f565b9150509250929050565b613c6d816137cf565b82525050565b6000602082019050613c886000830184613c64565b92915050565b600080fd5b600080fd5b7f4e487b7100000000000000000000000000000000000000000000000000000000600052604160045260246000fd5b613cd0826138ff565b810181811067ffffffffffffffff82111715613cef57613cee613c98565b5b80604052505050565b6000613d0261372f565b9050613d0e8282613cc7565b919050565b600067ffffffffffffffff821115613d2e57613d2d613c98565b5b613d37826138ff565b9050602081019050919050565b82818337600083830152505050565b6000613d66613d6184613d13565b613cf8565b905082815260208101848484011115613d8257613d81613c93565b5b613d8d848285613d44565b509392505050565b600082601f830112613daa57613da9613c8e565b5b8135613dba848260208601613d53565b91505092915050565b60008060408385031215613dda57613dd9613739565b5b6000613de885828601613764565b925050602083013567ffffffffffffffff811115613e0957613e0861373e565b5b613e1585828601613d95565b9150509250929050565b613e2881613a6b565b8114613e3357600080fd5b50565b600081359050613e4581613e1f565b92915050565b600080600060608486031215613e6457613e63613739565b5b6000613e7286828701613764565b9350506020613e838682870161379a565b9250506040613e9486828701613e36565b9150509250925092565b600081519050919050565b600082825260208201905092915050565b6000819050602082019050919050565b613ed3816137cf565b82525050565b6000613ee58383613eca565b60208301905092915050565b6000602082019050919050565b6000613f0982613e9e565b613f138185613ea9565b9350613f1e83613eba565b8060005b83811015613f4f578151613f368882613ed9565b9750613f4183613ef1565b925050600181019050613f22565b5085935050505092915050565b60006020820190508181036000830152613f768184613efe565b905092915050565b600081519050919050565b600082825260208201905092915050565b6000819050602082019050919050565b613fb381613779565b82525050565b6000613fc58383613faa565b60208301905092915050565b6000602082019050919050565b6000613fe982613f7e565b613ff38185613f89565b9350613ffe83613f9a565b8060005b8381101561402f5781516140168882613fb9565b975061402183613fd1565b925050600181019050614002565b5085935050505092915050565b600060208201905081810360008301526140568184613fde565b905092915050565b600082825260208201905092915050565b600061407a826138b9565b614084818561405e565b93506140948185602086016138d5565b61409d816138ff565b840191505092915050565b600060208201905081810360008301526140c2818461406f565b905092915050565b600080604083850312156140e1576140e0613739565b5b60006140ef85828601613764565b925050602061410085828601613e36565b9150509250929050565b600081519050919050565b600082825260208201905092915050565b6000819050602082019050919050565b61413f81613bee565b82525050565b60006141518383614136565b60208301905092915050565b6000602082019050919050565b60006141758261410a565b61417f8185614115565b935061418a83614126565b8060005b838110156141bb5781516141a28882614145565b97506141ad8361415d565b92505060018101905061418e565b5085935050505092915050565b600060208201905081810360008301526141e2818461416a565b905092915050565b60008060006060848603121561420357614202613739565b5b600061421186828701613764565b93505060206142228682870161379a565b925050604061423386828701613c0f565b9150509250925092565b60008060006060848603121561425657614255613739565b5b600061426486828701613764565b93505060206142758682870161379a565b925050604084013567ffffffffffffffff8111156142965761429561373e565b5b6142a286828701613d95565b9150509250925092565b6142b581613743565b82525050565b60006020820190506142d060008301846142ac565b92915050565b600080604083850312156142ed576142ec613739565b5b60006142fb85828601613764565b925050602061430c858286016137f8565b9150509250929050565b600067ffffffffffffffff82111561433157614330613c98565b5b61433a826138ff565b9050602081019050919050565b600061435a61435584614316565b613cf8565b90508281526020810184848401111561437657614375613c93565b5b614381848285613d44565b509392505050565b600082601f83011261439e5761439d613c8e565b5b81356143ae848260208601614347565b91505092915050565b6000806000606084860312156143d0576143cf613739565b5b60006143de86828701613764565b93505060206143ef8682870161379a565b925050604084013567ffffffffffffffff8111156144105761440f61373e565b5b61441c86828701614389565b9150509250925092565b6000806040838503121561443d5761443c613739565b5b600061444b85828601613764565b925050602083013567ffffffffffffffff81111561446c5761446b61373e565b5b61447885828601614389565b9150509250929050565b600081519050919050565b600082825260208201905092915050565b6000819050602082019050919050565b600081519050919050565b600082825260208201905092915050565b60006144d5826144ae565b6144df81856144b9565b93506144ef8185602086016138d5565b6144f8816138ff565b840191505092915050565b600061450f83836144ca565b905092915050565b6000602082019050919050565b600061452f82614482565b614539818561448d565b93508360208202850161454b8561449e565b8060005b8581101561458757848403895281516145688582614503565b945061457383614517565b925060208a0199505060018101905061454f565b50829750879550505050505092915050565b600060208201905081810360008301526145b38184614524565b905092915050565b6145c481613bee565b82525050565b60006020820190506145df60008301846145bb565b92915050565b6000806000606084860312156145fe576145fd613739565b5b600061460c86828701613764565b935050602061461d8682870161379a565b925050604061462e86828701613764565b9150509250925092565b60008060006060848603121561465157614650613739565b5b600061465f86828701613764565b93505060206146708682870161379a565b92505060406146818682870161379a565b9150509250925092565b600082825260208201905092915050565b60006146a7826144ae565b6146b1818561468b565b93506146c18185602086016138d5565b6146ca816138ff565b840191505092915050565b600060208201905081810360008301526146ef818461469c565b905092915050565b600081519050919050565b600082825260208201905092915050565b6000819050602082019050919050565b61472c81613743565b82525050565b600061473e8383614723565b60208301905092915050565b6000602082019050919050565b6000614762826146f7565b61476c8185614702565b935061477783614713565b8060005b838110156147a857815161478f8882614732565b975061479a8361474a565b92505060018101905061477b565b5085935050505092915050565b600060208201905081810360008301526147cf8184614757565b905092915050565b7f4e487b7100000000000000000000000000000000000000000000000000000000600052603260045260246000fd5b7f4e487b7100000000000000000000000000000000000000000000000000000000600052602260045260246000fd5b6000600282049050600182168061484d57607f821691505b6020821081036148605761485f614806565b5b50919050565b7f5265706f7369746f72793a2063616e6e6f742072656d6f76652061646d696e2060008201527f62656361757365206163636f756e74206973206e6f742061646d696e00000000602082015250565b60006148c2603c8361405e565b91506148cd82614866565b604082019050919050565b600060208201905081810360008301526148f1816148b5565b9050919050565b60008190508160005260206000209050919050565b60006020601f8301049050919050565b600082821b905092915050565b60006008830261495a7fffffffffffffffffffffffffffffffffffffffffffffffffffffffffffffffff8261491d565b614964868361491d565b95508019841693508086168417925050509392505050565b6000819050919050565b60006149a161499c61499784613779565b61497c565b613779565b9050919050565b6000819050919050565b6149bb83614986565b6149cf6149c7826149a8565b84845461492a565b825550505050565b600090565b6149e46149d7565b6149ef8184846149b2565b505050565b5b81811015614a1357614a086000826149dc565b6001810190506149f5565b5050565b601f821115614a5857614a29816148f8565b614a328461490d565b81016020851015614a41578190505b614a55614a4d8561490d565b8301826149f4565b50505b505050565b600082821c905092915050565b6000614a7b60001984600802614a5d565b1980831691505092915050565b6000614a948383614a6a565b9150826002028217905092915050565b614aad826144ae565b67ffffffffffffffff811115614ac657614ac5613c98565b5b614ad08254614835565b614adb828285614a17565b600060209050601f831160018114614b0e5760008415614afc578287015190505b614b068582614a88565b865550614b6e565b601f198416614b1c866148f8565b60005b82811015614b4457848901518255600182019150602085019450602081019050614b1f565b86831015614b615784890151614b5d601f891682614a6a565b8355505b6001600288020188555050505b505050505050565b600081905092915050565b6000614b8c826144ae565b614b968185614b76565b9350614ba68185602086016138d5565b80840191505092915050565b6000614bbe8284614b81565b915081905092915050565b60008190508160005260206000209050919050565b601f821115614c1f57614bf081614bc9565b614bf98461490d565b81016020851015614c08578190505b614c1c614c148561490d565b8301826149f4565b50505b505050565b614c2d826138b9565b67ffffffffffffffff811115614c4657614c45613c98565b5b614c508254614835565b614c5b828285614bde565b600060209050601f831160018114614c8e5760008415614c7c578287015190505b614c868582614a88565b865550614cee565b601f198416614c9c86614bc9565b60005b82811015614cc457848901518255600182019150602085019450602081019050614c9f565b86831015614ce15784890151614cdd601f891682614a6a565b8355505b6001600288020188555050505b505050505050565b600081905092915050565b6000614d0c826138b9565b614d168185614cf6565b9350614d268185602086016138d5565b80840191505092915050565b6000614d3e8284614d01565b915081905092915050565b7f5265706f7369746f72793a2063616e6e6f742072656d6f7665206c6f6769632060008201527f62656361757365206163636f756e74206973206e6f74206c6f67696300000000602082015250565b6000614da5603c8361405e565b9150614db082614d49565b604082019050919050565b60006020820190508181036000830152614dd481614d98565b9050919050565b7f5265706f7369746f72793a2063616e6e6f74206164642061646d696e2062656360008201527f61757365206163636f756e742069732061646472657373207a65726f00000000602082015250565b6000614e37603c8361405e565b9150614e4282614ddb565b604082019050919050565b60006020820190508181036000830152614e6681614e2a565b9050919050565b7f5265706f7369746f72793a2063616e6e6f74206164642061646d696e2062656360008201527f61757365206163636f756e7420697320616c72656164792061646d696e000000602082015250565b6000614ec9603d8361405e565b9150614ed482614e6d565b604082019050919050565b60006020820190508181036000830152614ef881614ebc565b9050919050565b7f5265706f7369746f72793a2063616e6e6f74206164642061646d696e2062656360008201527f61757365206163636f756e74206973206c6f6769630000000000000000000000602082015250565b6000614f5b60358361405e565b9150614f6682614eff565b604082019050919050565b60006020820190508181036000830152614f8a81614f4e565b9050919050565b7f5265706f7369746f72793a2063616e6e6f7420616464206c6f6769632062656360008201527f61757365206163636f756e742069732061646472657373207a65726f00000000602082015250565b6000614fed603c8361405e565b9150614ff882614f91565b604082019050919050565b6000602082019050818103600083015261501c81614fe0565b9050919050565b7f5265706f7369746f72793a2063616e6e6f7420616464206c6f6769632062656360008201527f61757365206163636f756e7420697320616c7265616479206c6f676963000000602082015250565b600061507f603d8361405e565b915061508a82615023565b604082019050919050565b600060208201905081810360008301526150ae81615072565b9050919050565b7f5265706f7369746f72793a2063616e6e6f7420616464206c6f6769632062656360008201527f61757365206163636f756e742069732061646d696e0000000000000000000000602082015250565b600061511160358361405e565b915061511c826150b5565b604082019050919050565b6000602082019050818103600083015261514081615104565b9050919050565b7f5265706f7369746f72793a206d73672e73656e64657220213d206c6f67696300600082015250565b600061517d601f8361405e565b915061518882615147565b602082019050919050565b600060208201905081810360008301526151ac81615170565b9050919050565b7f5265706f7369746f72793a206d73672e73656e64657220213d2061646d696e00600082015250565b60006151e9601f8361405e565b91506151f4826151b3565b602082019050919050565b60006020820190508181036000830152615218816151dc565b9050919050565b7f4e487b7100000000000000000000000000000000000000000000000000000000600052601160045260246000fd5b600061525982613779565b915061526483613779565b925082820390508181111561527c5761527b61521f565b5b92915050565b7f4e487b7100000000000000000000000000000000000000000000000000000000600052603160045260246000fdfea264697066735822122083d1c8244cefd55ca9e459093361dc26d6124ef8792a93629b1a9a5cf2af897664736f6c63430008130033",
			"opcodes": "PUSH1 0x80 PUSH1 0x40 MSTORE CALLVALUE DUP1 ISZERO PUSH3 0x11 JUMPI PUSH1 0x0 DUP1 REVERT JUMPDEST POP PUSH3 0x28 CALLER PUSH1 0x0 PUSH3 0x2F PUSH1 0x20 SHL SWAP1 SWAP2 SWAP1 PUSH1 0x20 SHR JUMP JUMPDEST POP PUSH3 0x104 JUMP JUMPDEST PUSH1 0x0 PUSH3 0x5F DUP4 PUSH1 0x0 ADD DUP4 PUSH20 0xFFFFFFFFFFFFFFFFFFFFFFFFFFFFFFFFFFFFFFFF AND PUSH1 0x0 SHL PUSH3 0x67 PUSH1 0x20 SHL PUSH1 0x20 SHR JUMP JUMPDEST SWAP1 POP SWAP3 SWAP2 POP POP JUMP JUMPDEST PUSH1 0x0 PUSH3 0x7B DUP4 DUP4 PUSH3 0xE1 PUSH1 0x20 SHL PUSH1 0x20 SHR JUMP JUMPDEST PUSH3 0xD6 JUMPI DUP3 PUSH1 0x0 ADD DUP3 SWAP1 DUP1 PUSH1 0x1 DUP2 SLOAD ADD DUP1 DUP3 SSTORE DUP1 SWAP2 POP POP PUSH1 0x1 SWAP1 SUB SWAP1 PUSH1 0x0 MSTORE PUSH1 0x20 PUSH1 0x0 KECCAK256 ADD PUSH1 0x0 SWAP1 SWAP2 SWAP1 SWAP2 SWAP1 SWAP2 POP SSTORE DUP3 PUSH1 0x0 ADD DUP1 SLOAD SWAP1 POP DUP4 PUSH1 0x1 ADD PUSH1 0x0 DUP5 DUP2 MSTORE PUSH1 0x20 ADD SWAP1 DUP2 MSTORE PUSH1 0x20 ADD PUSH1 0x0 KECCAK256 DUP2 SWAP1 SSTORE POP PUSH1 0x1 SWAP1 POP PUSH3 0xDB JUMP JUMPDEST PUSH1 0x0 SWAP1 POP JUMPDEST SWAP3 SWAP2 POP POP JUMP JUMPDEST PUSH1 0x0 DUP1 DUP4 PUSH1 0x1 ADD PUSH1 0x0 DUP5 DUP2 MSTORE PUSH1 0x20 ADD SWAP1 DUP2 MSTORE PUSH1 0x20 ADD PUSH1 0x0 KECCAK256 SLOAD EQ ISZERO SWAP1 POP SWAP3 SWAP2 POP POP JUMP JUMPDEST PUSH2 0x52E7 DUP1 PUSH3 0x114 PUSH1 0x0 CODECOPY PUSH1 0x0 RETURN INVALID PUSH1 0x80 PUSH1 0x40 MSTORE CALLVALUE DUP1 ISZERO PUSH2 0x10 JUMPI PUSH1 0x0 DUP1 REVERT JUMPDEST POP PUSH1 0x4 CALLDATASIZE LT PUSH2 0x47F JUMPI PUSH1 0x0 CALLDATALOAD PUSH1 0xE0 SHR DUP1 PUSH4 0x70480275 GT PUSH2 0x257 JUMPI DUP1 PUSH4 0xB60F5638 GT PUSH2 0x146 JUMPI DUP1 PUSH4 0xD6401653 GT PUSH2 0xC3 JUMPI DUP1 PUSH4 0xE2A4853A GT PUSH2 0x87 JUMPI DUP1 PUSH4 0xE2A4853A EQ PUSH2 0xFA0 JUMPI DUP1 PUSH4 0xEA192006 EQ PUSH2 0xFBC JUMPI DUP1 PUSH4 0xEAC954C7 EQ PUSH2 0xFD8 JUMPI DUP1 PUSH4 0xED010D41 EQ PUSH2 0x1008 JUMPI DUP1 PUSH4 0xFC0E8107 EQ PUSH2 0x1038 JUMPI PUSH2 0x47F JUMP JUMPDEST DUP1 PUSH4 0xD6401653 EQ PUSH2 0xED8 JUMPI DUP1 PUSH4 0xD900FFB2 EQ PUSH2 0xEF4 JUMPI DUP1 PUSH4 0xDC97D962 EQ PUSH2 0xF24 JUMPI DUP1 PUSH4 0xDD031997 EQ PUSH2 0xF54 JUMPI DUP1 PUSH4 0xDD151D1E EQ PUSH2 0xF84 JUMPI PUSH2 0x47F JUMP JUMPDEST DUP1 PUSH4 0xC031A180 GT PUSH2 0x10A JUMPI DUP1 PUSH4 0xC031A180 EQ PUSH2 0xE10 JUMPI DUP1 PUSH4 0xC50359E5 EQ PUSH2 0xE40 JUMPI DUP1 PUSH4 0xCA446DD9 EQ PUSH2 0xE70 JUMPI DUP1 PUSH4 0xCC2A29E2 EQ PUSH2 0xE8C JUMPI DUP1 PUSH4 0xCCC9FC77 EQ PUSH2 0xEBC JUMPI PUSH2 0x47F JUMP JUMPDEST DUP1 PUSH4 0xB60F5638 EQ PUSH2 0xD20 JUMPI DUP1 PUSH4 0xB784F208 EQ PUSH2 0xD50 JUMPI DUP1 PUSH4 0xBAC32013 EQ PUSH2 0xD80 JUMPI DUP1 PUSH4 0xBB6EECAD EQ PUSH2 0xDB0 JUMPI DUP1 PUSH4 0xBD02D0F5 EQ PUSH2 0xDE0 JUMPI PUSH2 0x47F JUMP JUMPDEST DUP1 PUSH4 0x9E29A54B GT PUSH2 0x1D4 JUMPI DUP1 PUSH4 0xA6537100 GT PUSH2 0x198 JUMPI DUP1 PUSH4 0xA6537100 EQ PUSH2 0xC80 JUMPI DUP1 PUSH4 0xA6ED563E EQ PUSH2 0xC9C JUMPI DUP1 PUSH4 0xABFDCCED EQ PUSH2 0xCCC JUMPI DUP1 PUSH4 0xAC6DAD0A EQ PUSH2 0xCE8 JUMPI DUP1 PUSH4 0xB27E4328 EQ PUSH2 0xD04 JUMPI PUSH2 0x47F JUMP JUMPDEST DUP1 PUSH4 0x9E29A54B EQ PUSH2 0xBA4 JUMPI DUP1 PUSH4 0xA0D8BC5E EQ PUSH2 0xBD4 JUMPI DUP1 PUSH4 0xA1A7FA44 EQ PUSH2 0xC04 JUMPI DUP1 PUSH4 0xA235B5CA EQ PUSH2 0xC34 JUMPI DUP1 PUSH4 0xA4FC57B9 EQ PUSH2 0xC50 JUMPI PUSH2 0x47F JUMP JUMPDEST DUP1 PUSH4 0x7AE1CFCA GT PUSH2 0x21B JUMPI DUP1 PUSH4 0x7AE1CFCA EQ PUSH2 0xAC8 JUMPI DUP1 PUSH4 0x86AC6BDF EQ PUSH2 0xAF8 JUMPI DUP1 PUSH4 0x8DB0E83B EQ PUSH2 0xB28 JUMPI DUP1 PUSH4 0x8E4A48C5 EQ PUSH2 0xB58 JUMPI DUP1 PUSH4 0x986E791A EQ PUSH2 0xB74 JUMPI PUSH2 0x47F JUMP JUMPDEST DUP1 PUSH4 0x70480275 EQ PUSH2 0xA28 JUMPI DUP1 PUSH4 0x71D92A01 EQ PUSH2 0xA44 JUMPI DUP1 PUSH4 0x72A9B6C5 EQ PUSH2 0xA74 JUMPI DUP1 PUSH4 0x76608F40 EQ PUSH2 0xA90 JUMPI DUP1 PUSH4 0x79EF704E EQ PUSH2 0xAAC JUMPI PUSH2 0x47F JUMP JUMPDEST DUP1 PUSH4 0x2E25156F GT PUSH2 0x373 JUMPI DUP1 PUSH4 0x4371EE56 GT PUSH2 0x2F0 JUMPI DUP1 PUSH4 0x5948F733 GT PUSH2 0x2B4 JUMPI DUP1 PUSH4 0x5948F733 EQ PUSH2 0x974 JUMPI DUP1 PUSH4 0x5BEFF993 EQ PUSH2 0x9A4 JUMPI DUP1 PUSH4 0x6290EF30 EQ PUSH2 0x9C0 JUMPI DUP1 PUSH4 0x6AB3B2FF EQ PUSH2 0x9DC JUMPI DUP1 PUSH4 0x6E899550 EQ PUSH2 0xA0C JUMPI PUSH2 0x47F JUMP JUMPDEST DUP1 PUSH4 0x4371EE56 EQ PUSH2 0x8E8 JUMPI DUP1 PUSH4 0x443DC70C EQ PUSH2 0x904 JUMPI DUP1 PUSH4 0x4AC79795 EQ PUSH2 0x920 JUMPI DUP1 PUSH4 0x4E91DB08 EQ PUSH2 0x93C JUMPI DUP1 PUSH4 0x52164CC1 EQ PUSH2 0x958 JUMPI PUSH2 0x47F JUMP JUMPDEST DUP1 PUSH4 0x357ED225 GT PUSH2 0x337 JUMPI DUP1 PUSH4 0x357ED225 EQ PUSH2 0x820 JUMPI DUP1 PUSH4 0x396D044C EQ PUSH2 0x850 JUMPI DUP1 PUSH4 0x3A7979C9 EQ PUSH2 0x86C JUMPI DUP1 PUSH4 0x3E49BED0 EQ PUSH2 0x89C JUMPI DUP1 PUSH4 0x4077E72D EQ PUSH2 0x8B8 JUMPI PUSH2 0x47F JUMP JUMPDEST DUP1 PUSH4 0x2E25156F EQ PUSH2 0x792 JUMPI DUP1 PUSH4 0x2E28D084 EQ PUSH2 0x7AE JUMPI DUP1 PUSH4 0x31AE450B EQ PUSH2 0x7CA JUMPI DUP1 PUSH4 0x32BDE6DC EQ PUSH2 0x7E8 JUMPI DUP1 PUSH4 0x345257E3 EQ PUSH2 0x804 JUMPI PUSH2 0x47F JUMP JUMPDEST DUP1 PUSH4 0x21F8A721 GT PUSH2 0x401 JUMPI DUP1 PUSH4 0x28A03356 GT PUSH2 0x3C5 JUMPI DUP1 PUSH4 0x28A03356 EQ PUSH2 0x6B6 JUMPI DUP1 PUSH4 0x2AD9450D EQ PUSH2 0x6E6 JUMPI DUP1 PUSH4 0x2C545CCA EQ PUSH2 0x716 JUMPI DUP1 PUSH4 0x2C58FACC EQ PUSH2 0x732 JUMPI DUP1 PUSH4 0x2D2899B6 EQ PUSH2 0x762 JUMPI PUSH2 0x47F JUMP JUMPDEST DUP1 PUSH4 0x21F8A721 EQ PUSH2 0x614 JUMPI DUP1 PUSH4 0x24831C48 EQ PUSH2 0x644 JUMPI DUP1 PUSH4 0x262FADDF EQ PUSH2 0x660 JUMPI DUP1 PUSH4 0x26FAB5E0 EQ PUSH2 0x67C JUMPI DUP1 PUSH4 0x27F2BC11 EQ PUSH2 0x69A JUMPI PUSH2 0x47F JUMP JUMPDEST DUP1 PUSH4 0xA030CED GT PUSH2 0x448 JUMPI DUP1 PUSH4 0xA030CED EQ PUSH2 0x560 JUMPI DUP1 PUSH4 0x116BB929 EQ PUSH2 0x590 JUMPI DUP1 PUSH4 0x1785F53C EQ PUSH2 0x5C0 JUMPI DUP1 PUSH4 0x1B929940 EQ PUSH2 0x5DC JUMPI DUP1 PUSH4 0x1CDFFCA9 EQ PUSH2 0x5F8 JUMPI PUSH2 0x47F JUMP JUMPDEST DUP1 PUSH3 0xD10C16 EQ PUSH2 0x484 JUMPI DUP1 PUSH4 0x1677DA2 EQ PUSH2 0x4A0 JUMPI DUP1 PUSH4 0x33D069A EQ PUSH2 0x4D0 JUMPI DUP1 PUSH4 0x3D14EFC EQ PUSH2 0x500 JUMPI DUP1 PUSH4 0x4375949 EQ PUSH2 0x530 JUMPI JUMPDEST PUSH1 0x0 DUP1 REVERT JUMPDEST PUSH2 0x49E PUSH1 0x4 DUP1 CALLDATASIZE SUB DUP2 ADD SWAP1 PUSH2 0x499 SWAP2 SWAP1 PUSH2 0x380D JUMP JUMPDEST PUSH2 0x1068 JUMP JUMPDEST STOP JUMPDEST PUSH2 0x4BA PUSH1 0x4 DUP1 CALLDATASIZE SUB DUP2 ADD SWAP1 PUSH2 0x4B5 SWAP2 SWAP1 PUSH2 0x3860 JUMP JUMPDEST PUSH2 0x1128 JUMP JUMPDEST PUSH1 0x40 MLOAD PUSH2 0x4C7 SWAP2 SWAP1 PUSH2 0x39DF JUMP JUMPDEST PUSH1 0x40 MLOAD DUP1 SWAP2 SUB SWAP1 RETURN JUMPDEST PUSH2 0x4EA PUSH1 0x4 DUP1 CALLDATASIZE SUB DUP2 ADD SWAP1 PUSH2 0x4E5 SWAP2 SWAP1 PUSH2 0x3860 JUMP JUMPDEST PUSH2 0x1214 JUMP JUMPDEST PUSH1 0x40 MLOAD PUSH2 0x4F7 SWAP2 SWAP1 PUSH2 0x3A10 JUMP JUMPDEST PUSH1 0x40 MLOAD DUP1 SWAP2 SUB SWAP1 RETURN JUMPDEST PUSH2 0x51A PUSH1 0x4 DUP1 CALLDATASIZE SUB DUP2 ADD SWAP1 PUSH2 0x515 SWAP2 SWAP1 PUSH2 0x3A2B JUMP JUMPDEST PUSH2 0x1234 JUMP JUMPDEST PUSH1 0x40 MLOAD PUSH2 0x527 SWAP2 SWAP1 PUSH2 0x3A86 JUMP JUMPDEST PUSH1 0x40 MLOAD DUP1 SWAP2 SUB SWAP1 RETURN JUMPDEST PUSH2 0x54A PUSH1 0x4 DUP1 CALLDATASIZE SUB DUP2 ADD SWAP1 PUSH2 0x545 SWAP2 SWAP1 PUSH2 0x3860 JUMP JUMPDEST PUSH2 0x1283 JUMP JUMPDEST PUSH1 0x40 MLOAD PUSH2 0x557 SWAP2 SWAP1 PUSH2 0x3A10 JUMP JUMPDEST PUSH1 0x40 MLOAD DUP1 SWAP2 SUB SWAP1 RETURN JUMPDEST PUSH2 0x57A PUSH1 0x4 DUP1 CALLDATASIZE SUB DUP2 ADD SWAP1 PUSH2 0x575 SWAP2 SWAP1 PUSH2 0x3AA1 JUMP JUMPDEST PUSH2 0x12A3 JUMP JUMPDEST PUSH1 0x40 MLOAD PUSH2 0x587 SWAP2 SWAP1 PUSH2 0x3A86 JUMP JUMPDEST PUSH1 0x40 MLOAD DUP1 SWAP2 SUB SWAP1 RETURN JUMPDEST PUSH2 0x5AA PUSH1 0x4 DUP1 CALLDATASIZE SUB DUP2 ADD SWAP1 PUSH2 0x5A5 SWAP2 SWAP1 PUSH2 0x3860 JUMP JUMPDEST PUSH2 0x12D2 JUMP JUMPDEST PUSH1 0x40 MLOAD PUSH2 0x5B7 SWAP2 SWAP1 PUSH2 0x3B9F JUMP JUMPDEST PUSH1 0x40 MLOAD DUP1 SWAP2 SUB SWAP1 RETURN JUMPDEST PUSH2 0x5DA PUSH1 0x4 DUP1 CALLDATASIZE SUB DUP2 ADD SWAP1 PUSH2 0x5D5 SWAP2 SWAP1 PUSH2 0x3BC1 JUMP JUMPDEST PUSH2 0x1362 JUMP JUMPDEST STOP JUMPDEST PUSH2 0x5F6 PUSH1 0x4 DUP1 CALLDATASIZE SUB DUP2 ADD SWAP1 PUSH2 0x5F1 SWAP2 SWAP1 PUSH2 0x3C24 JUMP JUMPDEST PUSH2 0x1418 JUMP JUMPDEST STOP JUMPDEST PUSH2 0x612 PUSH1 0x4 DUP1 CALLDATASIZE SUB DUP2 ADD SWAP1 PUSH2 0x60D SWAP2 SWAP1 PUSH2 0x3A2B JUMP JUMPDEST PUSH2 0x148C JUMP JUMPDEST STOP JUMPDEST PUSH2 0x62E PUSH1 0x4 DUP1 CALLDATASIZE SUB DUP2 ADD SWAP1 PUSH2 0x629 SWAP2 SWAP1 PUSH2 0x3860 JUMP JUMPDEST PUSH2 0x14EC JUMP JUMPDEST PUSH1 0x40 MLOAD PUSH2 0x63B SWAP2 SWAP1 PUSH2 0x3C73 JUMP JUMPDEST PUSH1 0x40 MLOAD DUP1 SWAP2 SUB SWAP1 RETURN JUMPDEST PUSH2 0x65E PUSH1 0x4 DUP1 CALLDATASIZE SUB DUP2 ADD SWAP1 PUSH2 0x659 SWAP2 SWAP1 PUSH2 0x3DC3 JUMP JUMPDEST PUSH2 0x1529 JUMP JUMPDEST STOP JUMPDEST PUSH2 0x67A PUSH1 0x4 DUP1 CALLDATASIZE SUB DUP2 ADD SWAP1 PUSH2 0x675 SWAP2 SWAP1 PUSH2 0x3E4B JUMP JUMPDEST PUSH2 0x15BE JUMP JUMPDEST STOP JUMPDEST PUSH2 0x684 PUSH2 0x164B JUMP JUMPDEST PUSH1 0x40 MLOAD PUSH2 0x691 SWAP2 SWAP1 PUSH2 0x3F5C JUMP JUMPDEST PUSH1 0x40 MLOAD DUP1 SWAP2 SUB SWAP1 RETURN JUMPDEST PUSH2 0x6B4 PUSH1 0x4 DUP1 CALLDATASIZE SUB DUP2 ADD SWAP1 PUSH2 0x6AF SWAP2 SWAP1 PUSH2 0x3860 JUMP JUMPDEST PUSH2 0x165C JUMP JUMPDEST STOP JUMPDEST PUSH2 0x6D0 PUSH1 0x4 DUP1 CALLDATASIZE SUB DUP2 ADD SWAP1 PUSH2 0x6CB SWAP2 SWAP1 PUSH2 0x3860 JUMP JUMPDEST PUSH2 0x16B3 JUMP JUMPDEST PUSH1 0x40 MLOAD PUSH2 0x6DD SWAP2 SWAP1 PUSH2 0x403C JUMP JUMPDEST PUSH1 0x40 MLOAD DUP1 SWAP2 SUB SWAP1 RETURN JUMPDEST PUSH2 0x700 PUSH1 0x4 DUP1 CALLDATASIZE SUB DUP2 ADD SWAP1 PUSH2 0x6FB SWAP2 SWAP1 PUSH2 0x3A2B JUMP JUMPDEST PUSH2 0x16D7 JUMP JUMPDEST PUSH1 0x40 MLOAD PUSH2 0x70D SWAP2 SWAP1 PUSH2 0x40A8 JUMP JUMPDEST PUSH1 0x40 MLOAD DUP1 SWAP2 SUB SWAP1 RETURN JUMPDEST PUSH2 0x730 PUSH1 0x4 DUP1 CALLDATASIZE SUB DUP2 ADD SWAP1 PUSH2 0x72B SWAP2 SWAP1 PUSH2 0x40CA JUMP JUMPDEST PUSH2 0x1799 JUMP JUMPDEST STOP JUMPDEST PUSH2 0x74C PUSH1 0x4 DUP1 CALLDATASIZE SUB DUP2 ADD SWAP1 PUSH2 0x747 SWAP2 SWAP1 PUSH2 0x3860 JUMP JUMPDEST PUSH2 0x182A JUMP JUMPDEST PUSH1 0x40 MLOAD PUSH2 0x759 SWAP2 SWAP1 PUSH2 0x3F5C JUMP JUMPDEST PUSH1 0x40 MLOAD DUP1 SWAP2 SUB SWAP1 RETURN JUMPDEST PUSH2 0x77C PUSH1 0x4 DUP1 CALLDATASIZE SUB DUP2 ADD SWAP1 PUSH2 0x777 SWAP2 SWAP1 PUSH2 0x3860 JUMP JUMPDEST PUSH2 0x184E JUMP JUMPDEST PUSH1 0x40 MLOAD PUSH2 0x789 SWAP2 SWAP1 PUSH2 0x41C8 JUMP JUMPDEST PUSH1 0x40 MLOAD DUP1 SWAP2 SUB SWAP1 RETURN JUMPDEST PUSH2 0x7AC PUSH1 0x4 DUP1 CALLDATASIZE SUB DUP2 ADD SWAP1 PUSH2 0x7A7 SWAP2 SWAP1 PUSH2 0x41EA JUMP JUMPDEST PUSH2 0x18B9 JUMP JUMPDEST STOP JUMPDEST PUSH2 0x7C8 PUSH1 0x4 DUP1 CALLDATASIZE SUB DUP2 ADD SWAP1 PUSH2 0x7C3 SWAP2 SWAP1 PUSH2 0x3DC3 JUMP JUMPDEST PUSH2 0x1929 JUMP JUMPDEST STOP JUMPDEST PUSH2 0x7D2 PUSH2 0x1999 JUMP JUMPDEST PUSH1 0x40 MLOAD PUSH2 0x7DF SWAP2 SWAP1 PUSH2 0x3F5C JUMP JUMPDEST PUSH1 0x40 MLOAD DUP1 SWAP2 SUB SWAP1 RETURN JUMPDEST PUSH2 0x802 PUSH1 0x4 DUP1 CALLDATASIZE SUB DUP2 ADD SWAP1 PUSH2 0x7FD SWAP2 SWAP1 PUSH2 0x423D JUMP JUMPDEST PUSH2 0x19AA JUMP JUMPDEST STOP JUMPDEST PUSH2 0x81E PUSH1 0x4 DUP1 CALLDATASIZE SUB DUP2 ADD SWAP1 PUSH2 0x819 SWAP2 SWAP1 PUSH2 0x3AA1 JUMP JUMPDEST PUSH2 0x1A38 JUMP JUMPDEST STOP JUMPDEST PUSH2 0x83A PUSH1 0x4 DUP1 CALLDATASIZE SUB DUP2 ADD SWAP1 PUSH2 0x835 SWAP2 SWAP1 PUSH2 0x3860 JUMP JUMPDEST PUSH2 0x1A98 JUMP JUMPDEST PUSH1 0x40 MLOAD PUSH2 0x847 SWAP2 SWAP1 PUSH2 0x3A10 JUMP JUMPDEST PUSH1 0x40 MLOAD DUP1 SWAP2 SUB SWAP1 RETURN JUMPDEST PUSH2 0x86A PUSH1 0x4 DUP1 CALLDATASIZE SUB DUP2 ADD SWAP1 PUSH2 0x865 SWAP2 SWAP1 PUSH2 0x3860 JUMP JUMPDEST PUSH2 0x1AB8 JUMP JUMPDEST STOP JUMPDEST PUSH2 0x886 PUSH1 0x4 DUP1 CALLDATASIZE SUB DUP2 ADD SWAP1 PUSH2 0x881 SWAP2 SWAP1 PUSH2 0x3A2B JUMP JUMPDEST PUSH2 0x1B0F JUMP JUMPDEST PUSH1 0x40 MLOAD PUSH2 0x893 SWAP2 SWAP1 PUSH2 0x42BB JUMP JUMPDEST PUSH1 0x40 MLOAD DUP1 SWAP2 SUB SWAP1 RETURN JUMPDEST PUSH2 0x8B6 PUSH1 0x4 DUP1 CALLDATASIZE SUB DUP2 ADD SWAP1 PUSH2 0x8B1 SWAP2 SWAP1 PUSH2 0x3C24 JUMP JUMPDEST PUSH2 0x1B3E JUMP JUMPDEST STOP JUMPDEST PUSH2 0x8D2 PUSH1 0x4 DUP1 CALLDATASIZE SUB DUP2 ADD SWAP1 PUSH2 0x8CD SWAP2 SWAP1 PUSH2 0x3860 JUMP JUMPDEST PUSH2 0x1B90 JUMP JUMPDEST PUSH1 0x40 MLOAD PUSH2 0x8DF SWAP2 SWAP1 PUSH2 0x3A10 JUMP JUMPDEST PUSH1 0x40 MLOAD DUP1 SWAP2 SUB SWAP1 RETURN JUMPDEST PUSH2 0x902 PUSH1 0x4 DUP1 CALLDATASIZE SUB DUP2 ADD SWAP1 PUSH2 0x8FD SWAP2 SWAP1 PUSH2 0x42D6 JUMP JUMPDEST PUSH2 0x1BB4 JUMP JUMPDEST STOP JUMPDEST PUSH2 0x91E PUSH1 0x4 DUP1 CALLDATASIZE SUB DUP2 ADD SWAP1 PUSH2 0x919 SWAP2 SWAP1 PUSH2 0x43B7 JUMP JUMPDEST PUSH2 0x1C2A JUMP JUMPDEST STOP JUMPDEST PUSH2 0x93A PUSH1 0x4 DUP1 CALLDATASIZE SUB DUP2 ADD SWAP1 PUSH2 0x935 SWAP2 SWAP1 PUSH2 0x3BC1 JUMP JUMPDEST PUSH2 0x1CB8 JUMP JUMPDEST STOP JUMPDEST PUSH2 0x956 PUSH1 0x4 DUP1 CALLDATASIZE SUB DUP2 ADD SWAP1 PUSH2 0x951 SWAP2 SWAP1 PUSH2 0x3AA1 JUMP JUMPDEST PUSH2 0x1D6E JUMP JUMPDEST STOP JUMPDEST PUSH2 0x972 PUSH1 0x4 DUP1 CALLDATASIZE SUB DUP2 ADD SWAP1 PUSH2 0x96D SWAP2 SWAP1 PUSH2 0x3860 JUMP JUMPDEST PUSH2 0x1DC0 JUMP JUMPDEST STOP JUMPDEST PUSH2 0x98E PUSH1 0x4 DUP1 CALLDATASIZE SUB DUP2 ADD SWAP1 PUSH2 0x989 SWAP2 SWAP1 PUSH2 0x3860 JUMP JUMPDEST PUSH2 0x1E17 JUMP JUMPDEST PUSH1 0x40 MLOAD PUSH2 0x99B SWAP2 SWAP1 PUSH2 0x3F5C JUMP JUMPDEST PUSH1 0x40 MLOAD DUP1 SWAP2 SUB SWAP1 RETURN JUMPDEST PUSH2 0x9BE PUSH1 0x4 DUP1 CALLDATASIZE SUB DUP2 ADD SWAP1 PUSH2 0x9B9 SWAP2 SWAP1 PUSH2 0x3860 JUMP JUMPDEST PUSH2 0x1EB8 JUMP JUMPDEST STOP JUMPDEST PUSH2 0x9DA PUSH1 0x4 DUP1 CALLDATASIZE SUB DUP2 ADD SWAP1 PUSH2 0x9D5 SWAP2 SWAP1 PUSH2 0x3A2B JUMP JUMPDEST PUSH2 0x1F0F JUMP JUMPDEST STOP JUMPDEST PUSH2 0x9F6 PUSH1 0x4 DUP1 CALLDATASIZE SUB DUP2 ADD SWAP1 PUSH2 0x9F1 SWAP2 SWAP1 PUSH2 0x3A2B JUMP JUMPDEST PUSH2 0x1F6F JUMP JUMPDEST PUSH1 0x40 MLOAD PUSH2 0xA03 SWAP2 SWAP1 PUSH2 0x3C73 JUMP JUMPDEST PUSH1 0x40 MLOAD DUP1 SWAP2 SUB SWAP1 RETURN JUMPDEST PUSH2 0xA26 PUSH1 0x4 DUP1 CALLDATASIZE SUB DUP2 ADD SWAP1 PUSH2 0xA21 SWAP2 SWAP1 PUSH2 0x4426 JUMP JUMPDEST PUSH2 0x1F9E JUMP JUMPDEST STOP JUMPDEST PUSH2 0xA42 PUSH1 0x4 DUP1 CALLDATASIZE SUB DUP2 ADD SWAP1 PUSH2 0xA3D SWAP2 SWAP1 PUSH2 0x3BC1 JUMP JUMPDEST PUSH2 0x200E JUMP JUMPDEST STOP JUMPDEST PUSH2 0xA5E PUSH1 0x4 DUP1 CALLDATASIZE SUB DUP2 ADD SWAP1 PUSH2 0xA59 SWAP2 SWAP1 PUSH2 0x3A2B JUMP JUMPDEST PUSH2 0x2188 JUMP JUMPDEST PUSH1 0x40 MLOAD PUSH2 0xA6B SWAP2 SWAP1 PUSH2 0x42BB JUMP JUMPDEST PUSH1 0x40 MLOAD DUP1 SWAP2 SUB SWAP1 RETURN JUMPDEST PUSH2 0xA8E PUSH1 0x4 DUP1 CALLDATASIZE SUB DUP2 ADD SWAP1 PUSH2 0xA89 SWAP2 SWAP1 PUSH2 0x3A2B JUMP JUMPDEST PUSH2 0x21C2 JUMP JUMPDEST STOP JUMPDEST PUSH2 0xAAA PUSH1 0x4 DUP1 CALLDATASIZE SUB DUP2 ADD SWAP1 PUSH2 0xAA5 SWAP2 SWAP1 PUSH2 0x3860 JUMP JUMPDEST PUSH2 0x2236 JUMP JUMPDEST STOP JUMPDEST PUSH2 0xAC6 PUSH1 0x4 DUP1 CALLDATASIZE SUB DUP2 ADD SWAP1 PUSH2 0xAC1 SWAP2 SWAP1 PUSH2 0x3BC1 JUMP JUMPDEST PUSH2 0x228D JUMP JUMPDEST STOP JUMPDEST PUSH2 0xAE2 PUSH1 0x4 DUP1 CALLDATASIZE SUB DUP2 ADD SWAP1 PUSH2 0xADD SWAP2 SWAP1 PUSH2 0x3860 JUMP JUMPDEST PUSH2 0x2407 JUMP JUMPDEST PUSH1 0x40 MLOAD PUSH2 0xAEF SWAP2 SWAP1 PUSH2 0x3A86 JUMP JUMPDEST PUSH1 0x40 MLOAD DUP1 SWAP2 SUB SWAP1 RETURN JUMPDEST PUSH2 0xB12 PUSH1 0x4 DUP1 CALLDATASIZE SUB DUP2 ADD SWAP1 PUSH2 0xB0D SWAP2 SWAP1 PUSH2 0x3860 JUMP JUMPDEST PUSH2 0x2431 JUMP JUMPDEST PUSH1 0x40 MLOAD PUSH2 0xB1F SWAP2 SWAP1 PUSH2 0x403C JUMP JUMPDEST PUSH1 0x40 MLOAD DUP1 SWAP2 SUB SWAP1 RETURN JUMPDEST PUSH2 0xB42 PUSH1 0x4 DUP1 CALLDATASIZE SUB DUP2 ADD SWAP1 PUSH2 0xB3D SWAP2 SWAP1 PUSH2 0x3860 JUMP JUMPDEST PUSH2 0x249C JUMP JUMPDEST PUSH1 0x40 MLOAD PUSH2 0xB4F SWAP2 SWAP1 PUSH2 0x4599 JUMP JUMPDEST PUSH1 0x40 MLOAD DUP1 SWAP2 SUB SWAP1 RETURN JUMPDEST PUSH2 0xB72 PUSH1 0x4 DUP1 CALLDATASIZE SUB DUP2 ADD SWAP1 PUSH2 0xB6D SWAP2 SWAP1 PUSH2 0x42D6 JUMP JUMPDEST PUSH2 0x2588 JUMP JUMPDEST STOP JUMPDEST PUSH2 0xB8E PUSH1 0x4 DUP1 CALLDATASIZE SUB DUP2 ADD SWAP1 PUSH2 0xB89 SWAP2 SWAP1 PUSH2 0x3860 JUMP JUMPDEST PUSH2 0x25FE JUMP JUMPDEST PUSH1 0x40 MLOAD PUSH2 0xB9B SWAP2 SWAP1 PUSH2 0x40A8 JUMP JUMPDEST PUSH1 0x40 MLOAD DUP1 SWAP2 SUB SWAP1 RETURN JUMPDEST PUSH2 0xBBE PUSH1 0x4 DUP1 CALLDATASIZE SUB DUP2 ADD SWAP1 PUSH2 0xBB9 SWAP2 SWAP1 PUSH2 0x3860 JUMP JUMPDEST PUSH2 0x26A3 JUMP JUMPDEST PUSH1 0x40 MLOAD PUSH2 0xBCB SWAP2 SWAP1 PUSH2 0x3A10 JUMP JUMPDEST PUSH1 0x40 MLOAD DUP1 SWAP2 SUB SWAP1 RETURN JUMPDEST PUSH2 0xBEE PUSH1 0x4 DUP1 CALLDATASIZE SUB DUP2 ADD SWAP1 PUSH2 0xBE9 SWAP2 SWAP1 PUSH2 0x3A2B JUMP JUMPDEST PUSH2 0x26C3 JUMP JUMPDEST PUSH1 0x40 MLOAD PUSH2 0xBFB SWAP2 SWAP1 PUSH2 0x3C73 JUMP JUMPDEST PUSH1 0x40 MLOAD DUP1 SWAP2 SUB SWAP1 RETURN JUMPDEST PUSH2 0xC1E PUSH1 0x4 DUP1 CALLDATASIZE SUB DUP2 ADD SWAP1 PUSH2 0xC19 SWAP2 SWAP1 PUSH2 0x3A2B JUMP JUMPDEST PUSH2 0x271D JUMP JUMPDEST PUSH1 0x40 MLOAD PUSH2 0xC2B SWAP2 SWAP1 PUSH2 0x45CA JUMP JUMPDEST PUSH1 0x40 MLOAD DUP1 SWAP2 SUB SWAP1 RETURN JUMPDEST PUSH2 0xC4E PUSH1 0x4 DUP1 CALLDATASIZE SUB DUP2 ADD SWAP1 PUSH2 0xC49 SWAP2 SWAP1 PUSH2 0x4426 JUMP JUMPDEST PUSH2 0x2757 JUMP JUMPDEST STOP JUMPDEST PUSH2 0xC6A PUSH1 0x4 DUP1 CALLDATASIZE SUB DUP2 ADD SWAP1 PUSH2 0xC65 SWAP2 SWAP1 PUSH2 0x3860 JUMP JUMPDEST PUSH2 0x27EC JUMP JUMPDEST PUSH1 0x40 MLOAD PUSH2 0xC77 SWAP2 SWAP1 PUSH2 0x3A10 JUMP JUMPDEST PUSH1 0x40 MLOAD DUP1 SWAP2 SUB SWAP1 RETURN JUMPDEST PUSH2 0xC9A PUSH1 0x4 DUP1 CALLDATASIZE SUB DUP2 ADD SWAP1 PUSH2 0xC95 SWAP2 SWAP1 PUSH2 0x45E5 JUMP JUMPDEST PUSH2 0x2810 JUMP JUMPDEST STOP JUMPDEST PUSH2 0xCB6 PUSH1 0x4 DUP1 CALLDATASIZE SUB DUP2 ADD SWAP1 PUSH2 0xCB1 SWAP2 SWAP1 PUSH2 0x3860 JUMP JUMPDEST PUSH2 0x2880 JUMP JUMPDEST PUSH1 0x40 MLOAD PUSH2 0xCC3 SWAP2 SWAP1 PUSH2 0x42BB JUMP JUMPDEST PUSH1 0x40 MLOAD DUP1 SWAP2 SUB SWAP1 RETURN JUMPDEST PUSH2 0xCE6 PUSH1 0x4 DUP1 CALLDATASIZE SUB DUP2 ADD SWAP1 PUSH2 0xCE1 SWAP2 SWAP1 PUSH2 0x40CA JUMP JUMPDEST PUSH2 0x289D JUMP JUMPDEST STOP JUMPDEST PUSH2 0xD02 PUSH1 0x4 DUP1 CALLDATASIZE SUB DUP2 ADD SWAP1 PUSH2 0xCFD SWAP2 SWAP1 PUSH2 0x4638 JUMP JUMPDEST PUSH2 0x2904 JUMP JUMPDEST STOP JUMPDEST PUSH2 0xD1E PUSH1 0x4 DUP1 CALLDATASIZE SUB DUP2 ADD SWAP1 PUSH2 0xD19 SWAP2 SWAP1 PUSH2 0x3AA1 JUMP JUMPDEST PUSH2 0x2974 JUMP JUMPDEST STOP JUMPDEST PUSH2 0xD3A PUSH1 0x4 DUP1 CALLDATASIZE SUB DUP2 ADD SWAP1 PUSH2 0xD35 SWAP2 SWAP1 PUSH2 0x3A2B JUMP JUMPDEST PUSH2 0x29E8 JUMP JUMPDEST PUSH1 0x40 MLOAD PUSH2 0xD47 SWAP2 SWAP1 PUSH2 0x3A86 JUMP JUMPDEST PUSH1 0x40 MLOAD DUP1 SWAP2 SUB SWAP1 RETURN JUMPDEST PUSH2 0xD6A PUSH1 0x4 DUP1 CALLDATASIZE SUB DUP2 ADD SWAP1 PUSH2 0xD65 SWAP2 SWAP1 PUSH2 0x3860 JUMP JUMPDEST PUSH2 0x2A17 JUMP JUMPDEST PUSH1 0x40 MLOAD PUSH2 0xD77 SWAP2 SWAP1 PUSH2 0x3A10 JUMP JUMPDEST PUSH1 0x40 MLOAD DUP1 SWAP2 SUB SWAP1 RETURN JUMPDEST PUSH2 0xD9A PUSH1 0x4 DUP1 CALLDATASIZE SUB DUP2 ADD SWAP1 PUSH2 0xD95 SWAP2 SWAP1 PUSH2 0x42D6 JUMP JUMPDEST PUSH2 0x2A37 JUMP JUMPDEST PUSH1 0x40 MLOAD PUSH2 0xDA7 SWAP2 SWAP1 PUSH2 0x3A86 JUMP JUMPDEST PUSH1 0x40 MLOAD DUP1 SWAP2 SUB SWAP1 RETURN JUMPDEST PUSH2 0xDCA PUSH1 0x4 DUP1 CALLDATASIZE SUB DUP2 ADD SWAP1 PUSH2 0xDC5 SWAP2 SWAP1 PUSH2 0x3860 JUMP JUMPDEST PUSH2 0x2A66 JUMP JUMPDEST PUSH1 0x40 MLOAD PUSH2 0xDD7 SWAP2 SWAP1 PUSH2 0x3A10 JUMP JUMPDEST PUSH1 0x40 MLOAD DUP1 SWAP2 SUB SWAP1 RETURN JUMPDEST PUSH2 0xDFA PUSH1 0x4 DUP1 CALLDATASIZE SUB DUP2 ADD SWAP1 PUSH2 0xDF5 SWAP2 SWAP1 PUSH2 0x3860 JUMP JUMPDEST PUSH2 0x2A86 JUMP JUMPDEST PUSH1 0x40 MLOAD PUSH2 0xE07 SWAP2 SWAP1 PUSH2 0x3A10 JUMP JUMPDEST PUSH1 0x40 MLOAD DUP1 SWAP2 SUB SWAP1 RETURN JUMPDEST PUSH2 0xE2A PUSH1 0x4 DUP1 CALLDATASIZE SUB DUP2 ADD SWAP1 PUSH2 0xE25 SWAP2 SWAP1 PUSH2 0x3860 JUMP JUMPDEST PUSH2 0x2AA3 JUMP JUMPDEST PUSH1 0x40 MLOAD PUSH2 0xE37 SWAP2 SWAP1 PUSH2 0x46D5 JUMP JUMPDEST PUSH1 0x40 MLOAD DUP1 SWAP2 SUB SWAP1 RETURN JUMPDEST PUSH2 0xE5A PUSH1 0x4 DUP1 CALLDATASIZE SUB DUP2 ADD SWAP1 PUSH2 0xE55 SWAP2 SWAP1 PUSH2 0x3A2B JUMP JUMPDEST PUSH2 0x2B48 JUMP JUMPDEST PUSH1 0x40 MLOAD PUSH2 0xE67 SWAP2 SWAP1 PUSH2 0x3A10 JUMP JUMPDEST PUSH1 0x40 MLOAD DUP1 SWAP2 SUB SWAP1 RETURN JUMPDEST PUSH2 0xE8A PUSH1 0x4 DUP1 CALLDATASIZE SUB DUP2 ADD SWAP1 PUSH2 0xE85 SWAP2 SWAP1 PUSH2 0x42D6 JUMP JUMPDEST PUSH2 0x2B82 JUMP JUMPDEST STOP JUMPDEST PUSH2 0xEA6 PUSH1 0x4 DUP1 CALLDATASIZE SUB DUP2 ADD SWAP1 PUSH2 0xEA1 SWAP2 SWAP1 PUSH2 0x3860 JUMP JUMPDEST PUSH2 0x2C24 JUMP JUMPDEST PUSH1 0x40 MLOAD PUSH2 0xEB3 SWAP2 SWAP1 PUSH2 0x3A10 JUMP JUMPDEST PUSH1 0x40 MLOAD DUP1 SWAP2 SUB SWAP1 RETURN JUMPDEST PUSH2 0xED6 PUSH1 0x4 DUP1 CALLDATASIZE SUB DUP2 ADD SWAP1 PUSH2 0xED1 SWAP2 SWAP1 PUSH2 0x3AA1 JUMP JUMPDEST PUSH2 0x2C48 JUMP JUMPDEST STOP JUMPDEST PUSH2 0xEF2 PUSH1 0x4 DUP1 CALLDATASIZE SUB DUP2 ADD SWAP1 PUSH2 0xEED SWAP2 SWAP1 PUSH2 0x3860 JUMP JUMPDEST PUSH2 0x2CA8 JUMP JUMPDEST STOP JUMPDEST PUSH2 0xF0E PUSH1 0x4 DUP1 CALLDATASIZE SUB DUP2 ADD SWAP1 PUSH2 0xF09 SWAP2 SWAP1 PUSH2 0x3860 JUMP JUMPDEST PUSH2 0x2CFF JUMP JUMPDEST PUSH1 0x40 MLOAD PUSH2 0xF1B SWAP2 SWAP1 PUSH2 0x47B5 JUMP JUMPDEST PUSH1 0x40 MLOAD DUP1 SWAP2 SUB SWAP1 RETURN JUMPDEST PUSH2 0xF3E PUSH1 0x4 DUP1 CALLDATASIZE SUB DUP2 ADD SWAP1 PUSH2 0xF39 SWAP2 SWAP1 PUSH2 0x3860 JUMP JUMPDEST PUSH2 0x2D23 JUMP JUMPDEST PUSH1 0x40 MLOAD PUSH2 0xF4B SWAP2 SWAP1 PUSH2 0x45CA JUMP JUMPDEST PUSH1 0x40 MLOAD DUP1 SWAP2 SUB SWAP1 RETURN JUMPDEST PUSH2 0xF6E PUSH1 0x4 DUP1 CALLDATASIZE SUB DUP2 ADD SWAP1 PUSH2 0xF69 SWAP2 SWAP1 PUSH2 0x3860 JUMP JUMPDEST PUSH2 0x2D40 JUMP JUMPDEST PUSH1 0x40 MLOAD PUSH2 0xF7B SWAP2 SWAP1 PUSH2 0x47B5 JUMP JUMPDEST PUSH1 0x40 MLOAD DUP1 SWAP2 SUB SWAP1 RETURN JUMPDEST PUSH2 0xF9E PUSH1 0x4 DUP1 CALLDATASIZE SUB DUP2 ADD SWAP1 PUSH2 0xF99 SWAP2 SWAP1 PUSH2 0x42D6 JUMP JUMPDEST PUSH2 0x2DAB JUMP JUMPDEST STOP JUMPDEST PUSH2 0xFBA PUSH1 0x4 DUP1 CALLDATASIZE SUB DUP2 ADD SWAP1 PUSH2 0xFB5 SWAP2 SWAP1 PUSH2 0x3A2B JUMP JUMPDEST PUSH2 0x2E6F JUMP JUMPDEST STOP JUMPDEST PUSH2 0xFD6 PUSH1 0x4 DUP1 CALLDATASIZE SUB DUP2 ADD SWAP1 PUSH2 0xFD1 SWAP2 SWAP1 PUSH2 0x3860 JUMP JUMPDEST PUSH2 0x2EC1 JUMP JUMPDEST STOP JUMPDEST PUSH2 0xFF2 PUSH1 0x4 DUP1 CALLDATASIZE SUB DUP2 ADD SWAP1 PUSH2 0xFED SWAP2 SWAP1 PUSH2 0x3A2B JUMP JUMPDEST PUSH2 0x2F18 JUMP JUMPDEST PUSH1 0x40 MLOAD PUSH2 0xFFF SWAP2 SWAP1 PUSH2 0x3A10 JUMP JUMPDEST PUSH1 0x40 MLOAD DUP1 SWAP2 SUB SWAP1 RETURN JUMPDEST PUSH2 0x1022 PUSH1 0x4 DUP1 CALLDATASIZE SUB DUP2 ADD SWAP1 PUSH2 0x101D SWAP2 SWAP1 PUSH2 0x3A2B JUMP JUMPDEST PUSH2 0x2F47 JUMP JUMPDEST PUSH1 0x40 MLOAD PUSH2 0x102F SWAP2 SWAP1 PUSH2 0x46D5 JUMP JUMPDEST PUSH1 0x40 MLOAD DUP1 SWAP2 SUB SWAP1 RETURN JUMPDEST PUSH2 0x1052 PUSH1 0x4 DUP1 CALLDATASIZE SUB DUP2 ADD SWAP1 PUSH2 0x104D SWAP2 SWAP1 PUSH2 0x3860 JUMP JUMPDEST PUSH2 0x3009 JUMP JUMPDEST PUSH1 0x40 MLOAD PUSH2 0x105F SWAP2 SWAP1 PUSH2 0x3A10 JUMP JUMPDEST PUSH1 0x40 MLOAD DUP1 SWAP2 SUB SWAP1 RETURN JUMPDEST PUSH2 0x1070 PUSH2 0x3029 JUMP JUMPDEST DUP1 PUSH1 0xF PUSH1 0x0 DUP6 DUP2 MSTORE PUSH1 0x20 ADD SWAP1 DUP2 MSTORE PUSH1 0x20 ADD PUSH1 0x0 KECCAK256 DUP4 DUP2 SLOAD DUP2 LT PUSH2 0x1096 JUMPI PUSH2 0x1095 PUSH2 0x47D7 JUMP JUMPDEST JUMPDEST SWAP1 PUSH1 0x0 MSTORE PUSH1 0x20 PUSH1 0x0 KECCAK256 ADD PUSH1 0x0 PUSH2 0x100 EXP DUP2 SLOAD DUP2 PUSH20 0xFFFFFFFFFFFFFFFFFFFFFFFFFFFFFFFFFFFFFFFF MUL NOT AND SWAP1 DUP4 PUSH20 0xFFFFFFFFFFFFFFFFFFFFFFFFFFFFFFFFFFFFFFFF AND MUL OR SWAP1 SSTORE POP DUP1 PUSH20 0xFFFFFFFFFFFFFFFFFFFFFFFFFFFFFFFFFFFFFFFF AND DUP3 DUP5 PUSH32 0xD2F5D41F179BD48E5C15EDE1980C8B8ABD663A8784DEF1506F06B43C3F7540DC PUSH1 0x40 MLOAD PUSH1 0x40 MLOAD DUP1 SWAP2 SUB SWAP1 LOG4 POP POP POP JUMP JUMPDEST PUSH1 0x60 PUSH1 0xB PUSH1 0x0 DUP4 DUP2 MSTORE PUSH1 0x20 ADD SWAP1 DUP2 MSTORE PUSH1 0x20 ADD PUSH1 0x0 KECCAK256 DUP1 SLOAD DUP1 PUSH1 0x20 MUL PUSH1 0x20 ADD PUSH1 0x40 MLOAD SWAP1 DUP2 ADD PUSH1 0x40 MSTORE DUP1 SWAP3 SWAP2 SWAP1 DUP2 DUP2 MSTORE PUSH1 0x20 ADD PUSH1 0x0 SWAP1 JUMPDEST DUP3 DUP3 LT ISZERO PUSH2 0x1209 JUMPI DUP4 DUP3 SWAP1 PUSH1 0x0 MSTORE PUSH1 0x20 PUSH1 0x0 KECCAK256 ADD DUP1 SLOAD PUSH2 0x117C SWAP1 PUSH2 0x4835 JUMP JUMPDEST DUP1 PUSH1 0x1F ADD PUSH1 0x20 DUP1 SWAP2 DIV MUL PUSH1 0x20 ADD PUSH1 0x40 MLOAD SWAP1 DUP2 ADD PUSH1 0x40 MSTORE DUP1 SWAP3 SWAP2 SWAP1 DUP2 DUP2 MSTORE PUSH1 0x20 ADD DUP3 DUP1 SLOAD PUSH2 0x11A8 SWAP1 PUSH2 0x4835 JUMP JUMPDEST DUP1 ISZERO PUSH2 0x11F5 JUMPI DUP1 PUSH1 0x1F LT PUSH2 0x11CA JUMPI PUSH2 0x100 DUP1 DUP4 SLOAD DIV MUL DUP4 MSTORE SWAP2 PUSH1 0x20 ADD SWAP2 PUSH2 0x11F5 JUMP JUMPDEST DUP3 ADD SWAP2 SWAP1 PUSH1 0x0 MSTORE PUSH1 0x20 PUSH1 0x0 KECCAK256 SWAP1 JUMPDEST DUP2 SLOAD DUP2 MSTORE SWAP1 PUSH1 0x1 ADD SWAP1 PUSH1 0x20 ADD DUP1 DUP4 GT PUSH2 0x11D8 JUMPI DUP3 SWAP1 SUB PUSH1 0x1F AND DUP3 ADD SWAP2 JUMPDEST POP POP POP POP POP DUP2 MSTORE PUSH1 0x20 ADD SWAP1 PUSH1 0x1 ADD SWAP1 PUSH2 0x115D JUMP JUMPDEST POP POP POP POP SWAP1 POP SWAP2 SWAP1 POP JUMP JUMPDEST PUSH1 0x0 PUSH1 0x10 PUSH1 0x0 DUP4 DUP2 MSTORE PUSH1 0x20 ADD SWAP1 DUP2 MSTORE PUSH1 0x20 ADD PUSH1 0x0 KECCAK256 DUP1 SLOAD SWAP1 POP SWAP1 POP SWAP2 SWAP1 POP JUMP JUMPDEST PUSH1 0x0 PUSH1 0x10 PUSH1 0x0 DUP5 DUP2 MSTORE PUSH1 0x20 ADD SWAP1 DUP2 MSTORE PUSH1 0x20 ADD PUSH1 0x0 KECCAK256 DUP3 DUP2 SLOAD DUP2 LT PUSH2 0x125B JUMPI PUSH2 0x125A PUSH2 0x47D7 JUMP JUMPDEST JUMPDEST SWAP1 PUSH1 0x0 MSTORE PUSH1 0x20 PUSH1 0x0 KECCAK256 SWAP1 PUSH1 0x20 SWAP2 DUP3 DUP3 DIV ADD SWAP2 SWAP1 MOD SWAP1 SLOAD SWAP1 PUSH2 0x100 EXP SWAP1 DIV PUSH1 0xFF AND SWAP1 POP SWAP3 SWAP2 POP POP JUMP JUMPDEST PUSH1 0x0 PUSH1 0xE PUSH1 0x0 DUP4 DUP2 MSTORE PUSH1 0x20 ADD SWAP1 DUP2 MSTORE PUSH1 0x20 ADD PUSH1 0x0 KECCAK256 DUP1 SLOAD SWAP1 POP SWAP1 POP SWAP2 SWAP1 POP JUMP JUMPDEST PUSH1 0x0 PUSH2 0x12CA DUP3 PUSH1 0x14 PUSH1 0x0 DUP7 DUP2 MSTORE PUSH1 0x20 ADD SWAP1 DUP2 MSTORE PUSH1 0x20 ADD PUSH1 0x0 KECCAK256 PUSH2 0x307E SWAP1 SWAP2 SWAP1 PUSH4 0xFFFFFFFF AND JUMP JUMPDEST SWAP1 POP SWAP3 SWAP2 POP POP JUMP JUMPDEST PUSH1 0x60 PUSH1 0x10 PUSH1 0x0 DUP4 DUP2 MSTORE PUSH1 0x20 ADD SWAP1 DUP2 MSTORE PUSH1 0x20 ADD PUSH1 0x0 KECCAK256 DUP1 SLOAD DUP1 PUSH1 0x20 MUL PUSH1 0x20 ADD PUSH1 0x40 MLOAD SWAP1 DUP2 ADD PUSH1 0x40 MSTORE DUP1 SWAP3 SWAP2 SWAP1 DUP2 DUP2 MSTORE PUSH1 0x20 ADD DUP3 DUP1 SLOAD DUP1 ISZERO PUSH2 0x1356 JUMPI PUSH1 0x20 MUL DUP3 ADD SWAP2 SWAP1 PUSH1 0x0 MSTORE PUSH1 0x20 PUSH1 0x0 KECCAK256 SWAP1 PUSH1 0x0 SWAP1 JUMPDEST DUP3 DUP3 SWAP1 SLOAD SWAP1 PUSH2 0x100 EXP SWAP1 DIV PUSH1 0xFF AND ISZERO ISZERO DUP2 MSTORE PUSH1 0x20 ADD SWAP1 PUSH1 0x1 ADD SWAP1 PUSH1 0x20 DUP3 PUSH1 0x0 ADD DIV SWAP3 DUP4 ADD SWAP3 PUSH1 0x1 SUB DUP3 MUL SWAP2 POP DUP1 DUP5 GT PUSH2 0x1320 JUMPI SWAP1 POP JUMPDEST POP POP POP POP POP SWAP1 POP SWAP2 SWAP1 POP JUMP JUMPDEST PUSH2 0x136A PUSH2 0x3095 JUMP JUMPDEST PUSH2 0x137E DUP2 PUSH1 0x0 PUSH2 0x30EA SWAP1 SWAP2 SWAP1 PUSH4 0xFFFFFFFF AND JUMP JUMPDEST PUSH2 0x13BD JUMPI PUSH1 0x40 MLOAD PUSH32 0x8C379A000000000000000000000000000000000000000000000000000000000 DUP2 MSTORE PUSH1 0x4 ADD PUSH2 0x13B4 SWAP1 PUSH2 0x48D8 JUMP JUMPDEST PUSH1 0x40 MLOAD DUP1 SWAP2 SUB SWAP1 REVERT JUMPDEST PUSH2 0x13D1 DUP2 PUSH1 0x0 PUSH2 0x311A SWAP1 SWAP2 SWAP1 PUSH4 0xFFFFFFFF AND JUMP JUMPDEST POP DUP1 PUSH20 0xFFFFFFFFFFFFFFFFFFFFFFFFFFFFFFFFFFFFFFFF AND PUSH32 0xA3B62BC36326052D97EA62D63C3D60308ED4C3EA8AC079DD8499F1E9C4F80C0F PUSH1 0x40 MLOAD PUSH1 0x40 MLOAD DUP1 SWAP2 SUB SWAP1 LOG2 POP JUMP JUMPDEST PUSH2 0x1420 PUSH2 0x3029 JUMP JUMPDEST PUSH1 0xE PUSH1 0x0 DUP4 DUP2 MSTORE PUSH1 0x20 ADD SWAP1 DUP2 MSTORE PUSH1 0x20 ADD PUSH1 0x0 KECCAK256 DUP2 SWAP1 DUP1 PUSH1 0x1 DUP2 SLOAD ADD DUP1 DUP3 SSTORE DUP1 SWAP2 POP POP PUSH1 0x1 SWAP1 SUB SWAP1 PUSH1 0x0 MSTORE PUSH1 0x20 PUSH1 0x0 KECCAK256 ADD PUSH1 0x0 SWAP1 SWAP2 SWAP1 SWAP2 SWAP1 SWAP2 POP SSTORE DUP1 DUP3 PUSH32 0x366B3B333D4B400C725D1C4907E89ABA5356CDE38333B0000E00589BA9F56FC7 PUSH1 0x40 MLOAD PUSH1 0x40 MLOAD DUP1 SWAP2 SUB SWAP1 LOG3 POP POP JUMP JUMPDEST PUSH2 0x1494 PUSH2 0x3029 JUMP JUMPDEST PUSH2 0x14B9 DUP2 PUSH1 0x13 PUSH1 0x0 DUP6 DUP2 MSTORE PUSH1 0x20 ADD SWAP1 DUP2 MSTORE PUSH1 0x20 ADD PUSH1 0x0 KECCAK256 PUSH2 0x314A SWAP1 SWAP2 SWAP1 PUSH4 0xFFFFFFFF AND JUMP JUMPDEST POP DUP1 DUP3 PUSH32 0x73DD445DAA17BCD5CE3CEC783AAEFCBF4D85D5E8BA03F48BDBF2869898360D04 PUSH1 0x40 MLOAD PUSH1 0x40 MLOAD DUP1 SWAP2 SUB SWAP1 LOG3 POP POP JUMP JUMPDEST PUSH1 0x0 PUSH1 0x8 PUSH1 0x0 DUP4 DUP2 MSTORE PUSH1 0x20 ADD SWAP1 DUP2 MSTORE PUSH1 0x20 ADD PUSH1 0x0 KECCAK256 PUSH1 0x0 SWAP1 SLOAD SWAP1 PUSH2 0x100 EXP SWAP1 DIV PUSH20 0xFFFFFFFFFFFFFFFFFFFFFFFFFFFFFFFFFFFFFFFF AND SWAP1 POP SWAP2 SWAP1 POP JUMP JUMPDEST PUSH2 0x1531 PUSH2 0x3029 JUMP JUMPDEST PUSH1 0xC PUSH1 0x0 DUP4 DUP2 MSTORE PUSH1 0x20 ADD SWAP1 DUP2 MSTORE PUSH1 0x20 ADD PUSH1 0x0 KECCAK256 DUP2 SWAP1 DUP1 PUSH1 0x1 DUP2 SLOAD ADD DUP1 DUP3 SSTORE DUP1 SWAP2 POP POP PUSH1 0x1 SWAP1 SUB SWAP1 PUSH1 0x0 MSTORE PUSH1 0x20 PUSH1 0x0 KECCAK256 ADD PUSH1 0x0 SWAP1 SWAP2 SWAP1 SWAP2 SWAP1 SWAP2 POP SWAP1 DUP2 PUSH2 0x1576 SWAP2 SWAP1 PUSH2 0x4AA4 JUMP JUMPDEST POP DUP1 PUSH1 0x40 MLOAD PUSH2 0x1585 SWAP2 SWAP1 PUSH2 0x4BB2 JUMP JUMPDEST PUSH1 0x40 MLOAD DUP1 SWAP2 SUB SWAP1 KECCAK256 DUP3 PUSH32 0xDDE4BD53BF3A7A92D032EE9B0347BCA5001A0BB84AAD48833422C5B91DDDC99B PUSH1 0x40 MLOAD PUSH1 0x40 MLOAD DUP1 SWAP2 SUB SWAP1 LOG3 POP POP JUMP JUMPDEST PUSH2 0x15C6 PUSH2 0x3029 JUMP JUMPDEST DUP1 PUSH1 0x10 PUSH1 0x0 DUP6 DUP2 MSTORE PUSH1 0x20 ADD SWAP1 DUP2 MSTORE PUSH1 0x20 ADD PUSH1 0x0 KECCAK256 DUP4 DUP2 SLOAD DUP2 LT PUSH2 0x15EC JUMPI PUSH2 0x15EB PUSH2 0x47D7 JUMP JUMPDEST JUMPDEST SWAP1 PUSH1 0x0 MSTORE PUSH1 0x20 PUSH1 0x0 KECCAK256 SWAP1 PUSH1 0x20 SWAP2 DUP3 DUP3 DIV ADD SWAP2 SWAP1 MOD PUSH2 0x100 EXP DUP2 SLOAD DUP2 PUSH1 0xFF MUL NOT AND SWAP1 DUP4 ISZERO ISZERO MUL OR SWAP1 SSTORE POP DUP1 ISZERO ISZERO DUP3 DUP5 PUSH32 0xC2039541B580B3589343D71A204FF422E8BE8C6435B5DA11C75167F86EB8BA5E PUSH1 0x40 MLOAD PUSH1 0x40 MLOAD DUP1 SWAP2 SUB SWAP1 LOG4 POP POP POP JUMP JUMPDEST PUSH1 0x60 PUSH2 0x1657 PUSH1 0x2 PUSH2 0x3164 JUMP JUMPDEST SWAP1 POP SWAP1 JUMP JUMPDEST PUSH2 0x1664 PUSH2 0x3029 JUMP JUMPDEST PUSH1 0x10 PUSH1 0x0 DUP3 DUP2 MSTORE PUSH1 0x20 ADD SWAP1 DUP2 MSTORE PUSH1 0x20 ADD PUSH1 0x0 KECCAK256 PUSH1 0x0 PUSH2 0x1683 SWAP2 SWAP1 PUSH2 0x3522 JUMP JUMPDEST DUP1 PUSH32 0xDA4AF972356E2142EC77E2C6DADEE7DE258F53DE1DB4E26E88DE62F6EA5314AE PUSH1 0x40 MLOAD PUSH1 0x40 MLOAD DUP1 SWAP2 SUB SWAP1 LOG2 POP JUMP JUMPDEST PUSH1 0x60 PUSH2 0x16D0 PUSH1 0x13 PUSH1 0x0 DUP5 DUP2 MSTORE PUSH1 0x20 ADD SWAP1 DUP2 MSTORE PUSH1 0x20 ADD PUSH1 0x0 KECCAK256 PUSH2 0x3185 JUMP JUMPDEST SWAP1 POP SWAP2 SWAP1 POP JUMP JUMPDEST PUSH1 0x60 PUSH1 0xB PUSH1 0x0 DUP5 DUP2 MSTORE PUSH1 0x20 ADD SWAP1 DUP2 MSTORE PUSH1 0x20 ADD PUSH1 0x0 KECCAK256 DUP3 DUP2 SLOAD DUP2 LT PUSH2 0x16FE JUMPI PUSH2 0x16FD PUSH2 0x47D7 JUMP JUMPDEST JUMPDEST SWAP1 PUSH1 0x0 MSTORE PUSH1 0x20 PUSH1 0x0 KECCAK256 ADD DUP1 SLOAD PUSH2 0x1713 SWAP1 PUSH2 0x4835 JUMP JUMPDEST DUP1 PUSH1 0x1F ADD PUSH1 0x20 DUP1 SWAP2 DIV MUL PUSH1 0x20 ADD PUSH1 0x40 MLOAD SWAP1 DUP2 ADD PUSH1 0x40 MSTORE DUP1 SWAP3 SWAP2 SWAP1 DUP2 DUP2 MSTORE PUSH1 0x20 ADD DUP3 DUP1 SLOAD PUSH2 0x173F SWAP1 PUSH2 0x4835 JUMP JUMPDEST DUP1 ISZERO PUSH2 0x178C JUMPI DUP1 PUSH1 0x1F LT PUSH2 0x1761 JUMPI PUSH2 0x100 DUP1 DUP4 SLOAD DIV MUL DUP4 MSTORE SWAP2 PUSH1 0x20 ADD SWAP2 PUSH2 0x178C JUMP JUMPDEST DUP3 ADD SWAP2 SWAP1 PUSH1 0x0 MSTORE PUSH1 0x20 PUSH1 0x0 KECCAK256 SWAP1 JUMPDEST DUP2 SLOAD DUP2 MSTORE SWAP1 PUSH1 0x1 ADD SWAP1 PUSH1 0x20 ADD DUP1 DUP4 GT PUSH2 0x176F JUMPI DUP3 SWAP1 SUB PUSH1 0x1F AND DUP3 ADD SWAP2 JUMPDEST POP POP POP POP POP SWAP1 POP SWAP3 SWAP2 POP POP JUMP JUMPDEST PUSH2 0x17A1 PUSH2 0x3029 JUMP JUMPDEST PUSH1 0x10 PUSH1 0x0 DUP4 DUP2 MSTORE PUSH1 0x20 ADD SWAP1 DUP2 MSTORE PUSH1 0x20 ADD PUSH1 0x0 KECCAK256 DUP2 SWAP1 DUP1 PUSH1 0x1 DUP2 SLOAD ADD DUP1 DUP3 SSTORE DUP1 SWAP2 POP POP PUSH1 0x1 SWAP1 SUB SWAP1 PUSH1 0x0 MSTORE PUSH1 0x20 PUSH1 0x0 KECCAK256 SWAP1 PUSH1 0x20 SWAP2 DUP3 DUP3 DIV ADD SWAP2 SWAP1 MOD SWAP1 SWAP2 SWAP1 SWAP2 SWAP1 SWAP2 PUSH2 0x100 EXP DUP2 SLOAD DUP2 PUSH1 0xFF MUL NOT AND SWAP1 DUP4 ISZERO ISZERO MUL OR SWAP1 SSTORE POP DUP1 ISZERO ISZERO DUP3 PUSH32 0xC0BDCC46C2ED4CD71034217DD319177970D7296C027012B6E42B53D23912A4D1 PUSH1 0x40 MLOAD PUSH1 0x40 MLOAD DUP1 SWAP2 SUB SWAP1 LOG3 POP POP JUMP JUMPDEST PUSH1 0x60 PUSH2 0x1847 PUSH1 0x12 PUSH1 0x0 DUP5 DUP2 MSTORE PUSH1 0x20 ADD SWAP1 DUP2 MSTORE PUSH1 0x20 ADD PUSH1 0x0 KECCAK256 PUSH2 0x3164 JUMP JUMPDEST SWAP1 POP SWAP2 SWAP1 POP JUMP JUMPDEST PUSH1 0x60 PUSH1 0xE PUSH1 0x0 DUP4 DUP2 MSTORE PUSH1 0x20 ADD SWAP1 DUP2 MSTORE PUSH1 0x20 ADD PUSH1 0x0 KECCAK256 DUP1 SLOAD DUP1 PUSH1 0x20 MUL PUSH1 0x20 ADD PUSH1 0x40 MLOAD SWAP1 DUP2 ADD PUSH1 0x40 MSTORE DUP1 SWAP3 SWAP2 SWAP1 DUP2 DUP2 MSTORE PUSH1 0x20 ADD DUP3 DUP1 SLOAD DUP1 ISZERO PUSH2 0x18AD JUMPI PUSH1 0x20 MUL DUP3 ADD SWAP2 SWAP1 PUSH1 0x0 MSTORE PUSH1 0x20 PUSH1 0x0 KECCAK256 SWAP1 JUMPDEST DUP2 SLOAD DUP2 MSTORE PUSH1 0x20 ADD SWAP1 PUSH1 0x1 ADD SWAP1 DUP1 DUP4 GT PUSH2 0x1899 JUMPI JUMPDEST POP POP POP POP POP SWAP1 POP SWAP2 SWAP1 POP JUMP JUMPDEST PUSH2 0x18C1 PUSH2 0x3029 JUMP JUMPDEST DUP1 PUSH1 0xE PUSH1 0x0 DUP6 DUP2 MSTORE PUSH1 0x20 ADD SWAP1 DUP2 MSTORE PUSH1 0x20 ADD PUSH1 0x0 KECCAK256 DUP4 DUP2 SLOAD DUP2 LT PUSH2 0x18E7 JUMPI PUSH2 0x18E6 PUSH2 0x47D7 JUMP JUMPDEST JUMPDEST SWAP1 PUSH1 0x0 MSTORE PUSH1 0x20 PUSH1 0x0 KECCAK256 ADD DUP2 SWAP1 SSTORE POP DUP1 DUP3 DUP5 PUSH32 0xE7421D5780C4B60EA32C2C2AF5B632578EBE47A4171D72B993829BDBA8F5C4F4 PUSH1 0x40 MLOAD PUSH1 0x40 MLOAD DUP1 SWAP2 SUB SWAP1 LOG4 POP POP POP JUMP JUMPDEST PUSH2 0x1931 PUSH2 0x3029 JUMP JUMPDEST DUP1 PUSH1 0x5 PUSH1 0x0 DUP5 DUP2 MSTORE PUSH1 0x20 ADD SWAP1 DUP2 MSTORE PUSH1 0x20 ADD PUSH1 0x0 KECCAK256 SWAP1 DUP2 PUSH2 0x1951 SWAP2 SWAP1 PUSH2 0x4AA4 JUMP JUMPDEST POP DUP1 PUSH1 0x40 MLOAD PUSH2 0x1960 SWAP2 SWAP1 PUSH2 0x4BB2 JUMP JUMPDEST PUSH1 0x40 MLOAD DUP1 SWAP2 SUB SWAP1 KECCAK256 DUP3 PUSH32 0xD096C701E4682F37212E802ED4CF349EA9963A1733CED3B25F352E02EFFBF5BE PUSH1 0x40 MLOAD PUSH1 0x40 MLOAD DUP1 SWAP2 SUB SWAP1 LOG3 POP POP JUMP JUMPDEST PUSH1 0x60 PUSH2 0x19A5 PUSH1 0x0 PUSH2 0x3164 JUMP JUMPDEST SWAP1 POP SWAP1 JUMP JUMPDEST PUSH2 0x19B2 PUSH2 0x3029 JUMP JUMPDEST DUP1 PUSH1 0xC PUSH1 0x0 DUP6 DUP2 MSTORE PUSH1 0x20 ADD SWAP1 DUP2 MSTORE PUSH1 0x20 ADD PUSH1 0x0 KECCAK256 DUP4 DUP2 SLOAD DUP2 LT PUSH2 0x19D8 JUMPI PUSH2 0x19D7 PUSH2 0x47D7 JUMP JUMPDEST JUMPDEST SWAP1 PUSH1 0x0 MSTORE PUSH1 0x20 PUSH1 0x0 KECCAK256 ADD SWAP1 DUP2 PUSH2 0x19EE SWAP2 SWAP1 PUSH2 0x4AA4 JUMP JUMPDEST POP DUP1 PUSH1 0x40 MLOAD PUSH2 0x19FD SWAP2 SWAP1 PUSH2 0x4BB2 JUMP JUMPDEST PUSH1 0x40 MLOAD DUP1 SWAP2 SUB SWAP1 KECCAK256 DUP3 DUP5 PUSH32 0x990897E4A3E5B9A7EF3D37C1560AC0033686C95E3B50E204705F24EE7B57384F PUSH1 0x40 MLOAD PUSH1 0x40 MLOAD DUP1 SWAP2 SUB SWAP1 LOG4 POP POP POP JUMP JUMPDEST PUSH2 0x1A40 PUSH2 0x3029 JUMP JUMPDEST PUSH2 0x1A65 DUP2 PUSH1 0x14 PUSH1 0x0 DUP6 DUP2 MSTORE PUSH1 0x20 ADD SWAP1 DUP2 MSTORE PUSH1 0x20 ADD PUSH1 0x0 KECCAK256 PUSH2 0x31A6 SWAP1 SWAP2 SWAP1 PUSH4 0xFFFFFFFF AND JUMP JUMPDEST POP DUP1 DUP3 PUSH32 0xE2A6BDF7783CB48980D5377CD4220AFA4CA6F00CF8E5FE2FA7741C2D41DA3869 PUSH1 0x40 MLOAD PUSH1 0x40 MLOAD DUP1 SWAP2 SUB SWAP1 LOG3 POP POP JUMP JUMPDEST PUSH1 0x0 PUSH1 0xB PUSH1 0x0 DUP4 DUP2 MSTORE PUSH1 0x20 ADD SWAP1 DUP2 MSTORE PUSH1 0x20 ADD PUSH1 0x0 KECCAK256 DUP1 SLOAD SWAP1 POP SWAP1 POP SWAP2 SWAP1 POP JUMP JUMPDEST PUSH2 0x1AC0 PUSH2 0x3029 JUMP JUMPDEST PUSH1 0xB PUSH1 0x0 DUP3 DUP2 MSTORE PUSH1 0x20 ADD SWAP1 DUP2 MSTORE PUSH1 0x20 ADD PUSH1 0x0 KECCAK256 PUSH1 0x0 PUSH2 0x1ADF SWAP2 SWAP1 PUSH2 0x354A JUMP JUMPDEST DUP1 PUSH32 0x92AE819F97D54FCAAB813D1A7CD27C2D63D9929BF34A2BCC058591B41BC0AB2F PUSH1 0x40 MLOAD PUSH1 0x40 MLOAD DUP1 SWAP2 SUB SWAP1 LOG2 POP JUMP JUMPDEST PUSH1 0x0 PUSH2 0x1B36 DUP3 PUSH1 0x14 PUSH1 0x0 DUP7 DUP2 MSTORE PUSH1 0x20 ADD SWAP1 DUP2 MSTORE PUSH1 0x20 ADD PUSH1 0x0 KECCAK256 PUSH2 0x31BD SWAP1 SWAP2 SWAP1 PUSH4 0xFFFFFFFF AND JUMP JUMPDEST SWAP1 POP SWAP3 SWAP2 POP POP JUMP JUMPDEST PUSH2 0x1B46 PUSH2 0x3029 JUMP JUMPDEST DUP1 PUSH1 0x7 PUSH1 0x0 DUP5 DUP2 MSTORE PUSH1 0x20 ADD SWAP1 DUP2 MSTORE PUSH1 0x20 ADD PUSH1 0x0 KECCAK256 DUP2 SWAP1 SSTORE POP DUP1 DUP3 PUSH32 0x851843D4B447DEC9B1AC320CBD13297FADF0BC1A312213215AC4A672E419664D PUSH1 0x40 MLOAD PUSH1 0x40 MLOAD DUP1 SWAP2 SUB SWAP1 LOG3 POP POP JUMP JUMPDEST PUSH1 0x0 PUSH2 0x1BAD PUSH1 0x14 PUSH1 0x0 DUP5 DUP2 MSTORE PUSH1 0x20 ADD SWAP1 DUP2 MSTORE PUSH1 0x20 ADD PUSH1 0x0 KECCAK256 PUSH2 0x31D4 JUMP JUMPDEST SWAP1 POP SWAP2 SWAP1 POP JUMP JUMPDEST PUSH2 0x1BBC PUSH2 0x3029 JUMP JUMPDEST PUSH2 0x1BE1 DUP2 PUSH1 0x12 PUSH1 0x0 DUP6 DUP2 MSTORE PUSH1 0x20 ADD SWAP1 DUP2 MSTORE PUSH1 0x20 ADD PUSH1 0x0 KECCAK256 PUSH2 0x31E9 SWAP1 SWAP2 SWAP1 PUSH4 0xFFFFFFFF AND JUMP JUMPDEST POP DUP1 PUSH20 0xFFFFFFFFFFFFFFFFFFFFFFFFFFFFFFFFFFFFFFFF AND DUP3 PUSH32 0x70CE632F4A800CDAA44A38B4AB7ED7E48A233A571D93F3C0DE0AB51C2831C2E0 PUSH1 0x40 MLOAD PUSH1 0x40 MLOAD DUP1 SWAP2 SUB SWAP1 LOG3 POP POP JUMP JUMPDEST PUSH2 0x1C32 PUSH2 0x3029 JUMP JUMPDEST DUP1 PUSH1 0xB PUSH1 0x0 DUP6 DUP2 MSTORE PUSH1 0x20 ADD SWAP1 DUP2 MSTORE PUSH1 0x20 ADD PUSH1 0x0 KECCAK256 DUP4 DUP2 SLOAD DUP2 LT PUSH2 0x1C58 JUMPI PUSH2 0x1C57 PUSH2 0x47D7 JUMP JUMPDEST JUMPDEST SWAP1 PUSH1 0x0 MSTORE PUSH1 0x20 PUSH1 0x0 KECCAK256 ADD SWAP1 DUP2 PUSH2 0x1C6E SWAP2 SWAP1 PUSH2 0x4C24 JUMP JUMPDEST POP DUP1 PUSH1 0x40 MLOAD PUSH2 0x1C7D SWAP2 SWAP1 PUSH2 0x4D32 JUMP JUMPDEST PUSH1 0x40 MLOAD DUP1 SWAP2 SUB SWAP1 KECCAK256 DUP3 DUP5 PUSH32 0xCE986F99BE33164EA4EF2D321D30E1F08A18D62891C41635D33F68BF5D652B9 PUSH1 0x40 MLOAD PUSH1 0x40 MLOAD DUP1 SWAP2 SUB SWAP1 LOG4 POP POP POP JUMP JUMPDEST PUSH2 0x1CC0 PUSH2 0x3095 JUMP JUMPDEST PUSH2 0x1CD4 DUP2 PUSH1 0x2 PUSH2 0x30EA SWAP1 SWAP2 SWAP1 PUSH4 0xFFFFFFFF AND JUMP JUMPDEST PUSH2 0x1D13 JUMPI PUSH1 0x40 MLOAD PUSH32 0x8C379A000000000000000000000000000000000000000000000000000000000 DUP2 MSTORE PUSH1 0x4 ADD PUSH2 0x1D0A SWAP1 PUSH2 0x4DBB JUMP JUMPDEST PUSH1 0x40 MLOAD DUP1 SWAP2 SUB SWAP1 REVERT JUMPDEST PUSH2 0x1D27 DUP2 PUSH1 0x2 PUSH2 0x311A SWAP1 SWAP2 SWAP1 PUSH4 0xFFFFFFFF AND JUMP JUMPDEST POP DUP1 PUSH20 0xFFFFFFFFFFFFFFFFFFFFFFFFFFFFFFFFFFFFFFFF AND PUSH32 0x9F60FD9AC36634C8A086FB62B8D5F9B088ED08A56805BB49B467012264D1444C PUSH1 0x40 MLOAD PUSH1 0x40 MLOAD DUP1 SWAP2 SUB SWAP1 LOG2 POP JUMP JUMPDEST PUSH2 0x1D76 PUSH2 0x3029 JUMP JUMPDEST DUP1 PUSH1 0xA PUSH1 0x0 DUP5 DUP2 MSTORE PUSH1 0x20 ADD SWAP1 DUP2 MSTORE PUSH1 0x20 ADD PUSH1 0x0 KECCAK256 DUP2 SWAP1 SSTORE POP DUP1 DUP3 PUSH32 0xB3136808963E0D42998546AE2B96C46345A3400F6D7EB74255242011C048D55B PUSH1 0x40 MLOAD PUSH1 0x40 MLOAD DUP1 SWAP2 SUB SWAP1 LOG3 POP POP JUMP JUMPDEST PUSH2 0x1DC8 PUSH2 0x3029 JUMP JUMPDEST PUSH1 0x11 PUSH1 0x0 DUP3 DUP2 MSTORE PUSH1 0x20 ADD SWAP1 DUP2 MSTORE PUSH1 0x20 ADD PUSH1 0x0 KECCAK256 PUSH1 0x0 PUSH2 0x1DE7 SWAP2 SWAP1 PUSH2 0x356B JUMP JUMPDEST DUP1 PUSH32 0x838CBE8FE15886750BA9CDB84E73F4FFC909553C408C94599F3E4253CF1EA37D PUSH1 0x40 MLOAD PUSH1 0x40 MLOAD DUP1 SWAP2 SUB SWAP1 LOG2 POP JUMP JUMPDEST PUSH1 0x60 PUSH1 0xF PUSH1 0x0 DUP4 DUP2 MSTORE PUSH1 0x20 ADD SWAP1 DUP2 MSTORE PUSH1 0x20 ADD PUSH1 0x0 KECCAK256 DUP1 SLOAD DUP1 PUSH1 0x20 MUL PUSH1 0x20 ADD PUSH1 0x40 MLOAD SWAP1 DUP2 ADD PUSH1 0x40 MSTORE DUP1 SWAP3 SWAP2 SWAP1 DUP2 DUP2 MSTORE PUSH1 0x20 ADD DUP3 DUP1 SLOAD DUP1 ISZERO PUSH2 0x1EAC JUMPI PUSH1 0x20 MUL DUP3 ADD SWAP2 SWAP1 PUSH1 0x0 MSTORE PUSH1 0x20 PUSH1 0x0 KECCAK256 SWAP1 JUMPDEST DUP2 PUSH1 0x0 SWAP1 SLOAD SWAP1 PUSH2 0x100 EXP SWAP1 DIV PUSH20 0xFFFFFFFFFFFFFFFFFFFFFFFFFFFFFFFFFFFFFFFF AND PUSH20 0xFFFFFFFFFFFFFFFFFFFFFFFFFFFFFFFFFFFFFFFF AND DUP2 MSTORE PUSH1 0x20 ADD SWAP1 PUSH1 0x1 ADD SWAP1 DUP1 DUP4 GT PUSH2 0x1E62 JUMPI JUMPDEST POP POP POP POP POP SWAP1 POP SWAP2 SWAP1 POP JUMP JUMPDEST PUSH2 0x1EC0 PUSH2 0x3029 JUMP JUMPDEST PUSH1 0xF PUSH1 0x0 DUP3 DUP2 MSTORE PUSH1 0x20 ADD SWAP1 DUP2 MSTORE PUSH1 0x20 ADD PUSH1 0x0 KECCAK256 PUSH1 0x0 PUSH2 0x1EDF SWAP2 SWAP1 PUSH2 0x358C JUMP JUMPDEST DUP1 PUSH32 0x5FFBE41C6B9D32584D14F79733696A0FAE2620D711B8963A8FFE51938C20D1D PUSH1 0x40 MLOAD PUSH1 0x40 MLOAD DUP1 SWAP2 SUB SWAP1 LOG2 POP JUMP JUMPDEST PUSH2 0x1F17 PUSH2 0x3029 JUMP JUMPDEST PUSH2 0x1F3C DUP2 PUSH1 0x13 PUSH1 0x0 DUP6 DUP2 MSTORE PUSH1 0x20 ADD SWAP1 DUP2 MSTORE PUSH1 0x20 ADD PUSH1 0x0 KECCAK256 PUSH2 0x3219 SWAP1 SWAP2 SWAP1 PUSH4 0xFFFFFFFF AND JUMP JUMPDEST POP DUP1 DUP3 PUSH32 0x2B3035F3B7EFE4342BD7103C3A6BD0A15BBB9D9DF493078482071ECF64ADE7D1 PUSH1 0x40 MLOAD PUSH1 0x40 MLOAD DUP1 SWAP2 SUB SWAP1 LOG3 POP POP JUMP JUMPDEST PUSH1 0x0 PUSH2 0x1F96 DUP3 PUSH1 0x12 PUSH1 0x0 DUP7 DUP2 MSTORE PUSH1 0x20 ADD SWAP1 DUP2 MSTORE PUSH1 0x20 ADD PUSH1 0x0 KECCAK256 PUSH2 0x3233 SWAP1 SWAP2 SWAP1 PUSH4 0xFFFFFFFF AND JUMP JUMPDEST SWAP1 POP SWAP3 SWAP2 POP POP JUMP JUMPDEST PUSH2 0x1FA6 PUSH2 0x3029 JUMP JUMPDEST DUP1 PUSH1 0x4 PUSH1 0x0 DUP5 DUP2 MSTORE PUSH1 0x20 ADD SWAP1 DUP2 MSTORE PUSH1 0x20 ADD PUSH1 0x0 KECCAK256 SWAP1 DUP2 PUSH2 0x1FC6 SWAP2 SWAP1 PUSH2 0x4C24 JUMP JUMPDEST POP DUP1 PUSH1 0x40 MLOAD PUSH2 0x1FD5 SWAP2 SWAP1 PUSH2 0x4D32 JUMP JUMPDEST PUSH1 0x40 MLOAD DUP1 SWAP2 SUB SWAP1 KECCAK256 DUP3 PUSH32 0x8C0CF148176B448012B9336668C5A483BD8B9ADD83EDFF1CCFB4BF1CA953948A PUSH1 0x40 MLOAD PUSH1 0x40 MLOAD DUP1 SWAP2 SUB SWAP1 LOG3 POP POP JUMP JUMPDEST PUSH2 0x2016 PUSH2 0x3095 JUMP JUMPDEST PUSH1 0x0 PUSH20 0xFFFFFFFFFFFFFFFFFFFFFFFFFFFFFFFFFFFFFFFF AND DUP2 PUSH20 0xFFFFFFFFFFFFFFFFFFFFFFFFFFFFFFFFFFFFFFFF AND SUB PUSH2 0x2085 JUMPI PUSH1 0x40 MLOAD PUSH32 0x8C379A000000000000000000000000000000000000000000000000000000000 DUP2 MSTORE PUSH1 0x4 ADD PUSH2 0x207C SWAP1 PUSH2 0x4E4D JUMP JUMPDEST PUSH1 0x40 MLOAD DUP1 SWAP2 SUB SWAP1 REVERT JUMPDEST PUSH2 0x2099 DUP2 PUSH1 0x0 PUSH2 0x30EA SWAP1 SWAP2 SWAP1 PUSH4 0xFFFFFFFF AND JUMP JUMPDEST ISZERO PUSH2 0x20D9 JUMPI PUSH1 0x40 MLOAD PUSH32 0x8C379A000000000000000000000000000000000000000000000000000000000 DUP2 MSTORE PUSH1 0x4 ADD PUSH2 0x20D0 SWAP1 PUSH2 0x4EDF JUMP JUMPDEST PUSH1 0x40 MLOAD DUP1 SWAP2 SUB SWAP1 REVERT JUMPDEST PUSH2 0x20ED DUP2 PUSH1 0x2 PUSH2 0x30EA SWAP1 SWAP2 SWAP1 PUSH4 0xFFFFFFFF AND JUMP JUMPDEST ISZERO PUSH2 0x212D JUMPI PUSH1 0x40 MLOAD PUSH32 0x8C379A000000000000000000000000000000000000000000000000000000000 DUP2 MSTORE PUSH1 0x4 ADD PUSH2 0x2124 SWAP1 PUSH2 0x4F71 JUMP JUMPDEST PUSH1 0x40 MLOAD DUP1 SWAP2 SUB SWAP1 REVERT JUMPDEST PUSH2 0x2141 DUP2 PUSH1 0x0 PUSH2 0x31E9 SWAP1 SWAP2 SWAP1 PUSH4 0xFFFFFFFF AND JUMP JUMPDEST POP DUP1 PUSH20 0xFFFFFFFFFFFFFFFFFFFFFFFFFFFFFFFFFFFFFFFF AND PUSH32 0x44D6D25963F097AD14F29F06854A01F575648A1EF82F30E562CCD3889717E339 PUSH1 0x40 MLOAD PUSH1 0x40 MLOAD DUP1 SWAP2 SUB SWAP1 LOG2 POP JUMP JUMPDEST PUSH1 0x0 PUSH1 0x11 PUSH1 0x0 DUP5 DUP2 MSTORE PUSH1 0x20 ADD SWAP1 DUP2 MSTORE PUSH1 0x20 ADD PUSH1 0x0 KECCAK256 DUP3 DUP2 SLOAD DUP2 LT PUSH2 0x21AF JUMPI PUSH2 0x21AE PUSH2 0x47D7 JUMP JUMPDEST JUMPDEST SWAP1 PUSH1 0x0 MSTORE PUSH1 0x20 PUSH1 0x0 KECCAK256 ADD SLOAD SWAP1 POP SWAP3 SWAP2 POP POP JUMP JUMPDEST PUSH2 0x21CA PUSH2 0x3029 JUMP JUMPDEST PUSH1 0xD PUSH1 0x0 DUP4 DUP2 MSTORE PUSH1 0x20 ADD SWAP1 DUP2 MSTORE PUSH1 0x20 ADD PUSH1 0x0 KECCAK256 DUP2 SWAP1 DUP1 PUSH1 0x1 DUP2 SLOAD ADD DUP1 DUP3 SSTORE DUP1 SWAP2 POP POP PUSH1 0x1 SWAP1 SUB SWAP1 PUSH1 0x0 MSTORE PUSH1 0x20 PUSH1 0x0 KECCAK256 ADD PUSH1 0x0 SWAP1 SWAP2 SWAP1 SWAP2 SWAP1 SWAP2 POP SSTORE DUP1 DUP3 PUSH32 0x484692BB4F0CBB766EC4C59991FC46419A4FD5533E9F6E90584E3B70B5C1A258 PUSH1 0x40 MLOAD PUSH1 0x40 MLOAD DUP1 SWAP2 SUB SWAP1 LOG3 POP POP JUMP JUMPDEST PUSH2 0x223E PUSH2 0x3029 JUMP JUMPDEST PUSH1 0xD PUSH1 0x0 DUP3 DUP2 MSTORE PUSH1 0x20 ADD SWAP1 DUP2 MSTORE PUSH1 0x20 ADD PUSH1 0x0 KECCAK256 PUSH1 0x0 PUSH2 0x225D SWAP2 SWAP1 PUSH2 0x35AD JUMP JUMPDEST DUP1 PUSH32 0xBE33AA4B109DBD15CB31584B59264319C3700225871CE6EA03679633920ED877 PUSH1 0x40 MLOAD PUSH1 0x40 MLOAD DUP1 SWAP2 SUB SWAP1 LOG2 POP JUMP JUMPDEST PUSH2 0x2295 PUSH2 0x3095 JUMP JUMPDEST PUSH1 0x0 PUSH20 0xFFFFFFFFFFFFFFFFFFFFFFFFFFFFFFFFFFFFFFFF AND DUP2 PUSH20 0xFFFFFFFFFFFFFFFFFFFFFFFFFFFFFFFFFFFFFFFF AND SUB PUSH2 0x2304 JUMPI PUSH1 0x40 MLOAD PUSH32 0x8C379A000000000000000000000000000000000000000000000000000000000 DUP2 MSTORE PUSH1 0x4 ADD PUSH2 0x22FB SWAP1 PUSH2 0x5003 JUMP JUMPDEST PUSH1 0x40 MLOAD DUP1 SWAP2 SUB SWAP1 REVERT JUMPDEST PUSH2 0x2318 DUP2 PUSH1 0x2 PUSH2 0x30EA SWAP1 SWAP2 SWAP1 PUSH4 0xFFFFFFFF AND JUMP JUMPDEST ISZERO PUSH2 0x2358 JUMPI PUSH1 0x40 MLOAD PUSH32 0x8C379A000000000000000000000000000000000000000000000000000000000 DUP2 MSTORE PUSH1 0x4 ADD PUSH2 0x234F SWAP1 PUSH2 0x5095 JUMP JUMPDEST PUSH1 0x40 MLOAD DUP1 SWAP2 SUB SWAP1 REVERT JUMPDEST PUSH2 0x236C DUP2 PUSH1 0x0 PUSH2 0x30EA SWAP1 SWAP2 SWAP1 PUSH4 0xFFFFFFFF AND JUMP JUMPDEST ISZERO PUSH2 0x23AC JUMPI PUSH1 0x40 MLOAD PUSH32 0x8C379A000000000000000000000000000000000000000000000000000000000 DUP2 MSTORE PUSH1 0x4 ADD PUSH2 0x23A3 SWAP1 PUSH2 0x5127 JUMP JUMPDEST PUSH1 0x40 MLOAD DUP1 SWAP2 SUB SWAP1 REVERT JUMPDEST PUSH2 0x23C0 DUP2 PUSH1 0x2 PUSH2 0x31E9 SWAP1 SWAP2 SWAP1 PUSH4 0xFFFFFFFF AND JUMP JUMPDEST POP DUP1 PUSH20 0xFFFFFFFFFFFFFFFFFFFFFFFFFFFFFFFFFFFFFFFF AND PUSH32 0xCE0CA4DF7A7EC71282174625246800D852B6926B9760EF984C9FA6611E71724A PUSH1 0x40 MLOAD PUSH1 0x40 MLOAD DUP1 SWAP2 SUB SWAP1 LOG2 POP JUMP JUMPDEST PUSH1 0x0 PUSH1 0x9 PUSH1 0x0 DUP4 DUP2 MSTORE PUSH1 0x20 ADD SWAP1 DUP2 MSTORE PUSH1 0x20 ADD PUSH1 0x0 KECCAK256 PUSH1 0x0 SWAP1 SLOAD SWAP1 PUSH2 0x100 EXP SWAP1 DIV PUSH1 0xFF AND SWAP1 POP SWAP2 SWAP1 POP JUMP JUMPDEST PUSH1 0x60 PUSH1 0xD PUSH1 0x0 DUP4 DUP2 MSTORE PUSH1 0x20 ADD SWAP1 DUP2 MSTORE PUSH1 0x20 ADD PUSH1 0x0 KECCAK256 DUP1 SLOAD DUP1 PUSH1 0x20 MUL PUSH1 0x20 ADD PUSH1 0x40 MLOAD SWAP1 DUP2 ADD PUSH1 0x40 MSTORE DUP1 SWAP3 SWAP2 SWAP1 DUP2 DUP2 MSTORE PUSH1 0x20 ADD DUP3 DUP1 SLOAD DUP1 ISZERO PUSH2 0x2490 JUMPI PUSH1 0x20 MUL DUP3 ADD SWAP2 SWAP1 PUSH1 0x0 MSTORE PUSH1 0x20 PUSH1 0x0 KECCAK256 SWAP1 JUMPDEST DUP2 SLOAD DUP2 MSTORE PUSH1 0x20 ADD SWAP1 PUSH1 0x1 ADD SWAP1 DUP1 DUP4 GT PUSH2 0x247C JUMPI JUMPDEST POP POP POP POP POP SWAP1 POP SWAP2 SWAP1 POP JUMP JUMPDEST PUSH1 0x60 PUSH1 0xC PUSH1 0x0 DUP4 DUP2 MSTORE PUSH1 0x20 ADD SWAP1 DUP2 MSTORE PUSH1 0x20 ADD PUSH1 0x0 KECCAK256 DUP1 SLOAD DUP1 PUSH1 0x20 MUL PUSH1 0x20 ADD PUSH1 0x40 MLOAD SWAP1 DUP2 ADD PUSH1 0x40 MSTORE DUP1 SWAP3 SWAP2 SWAP1 DUP2 DUP2 MSTORE PUSH1 0x20 ADD PUSH1 0x0 SWAP1 JUMPDEST DUP3 DUP3 LT ISZERO PUSH2 0x257D JUMPI DUP4 DUP3 SWAP1 PUSH1 0x0 MSTORE PUSH1 0x20 PUSH1 0x0 KECCAK256 ADD DUP1 SLOAD PUSH2 0x24F0 SWAP1 PUSH2 0x4835 JUMP JUMPDEST DUP1 PUSH1 0x1F ADD PUSH1 0x20 DUP1 SWAP2 DIV MUL PUSH1 0x20 ADD PUSH1 0x40 MLOAD SWAP1 DUP2 ADD PUSH1 0x40 MSTORE DUP1 SWAP3 SWAP2 SWAP1 DUP2 DUP2 MSTORE PUSH1 0x20 ADD DUP3 DUP1 SLOAD PUSH2 0x251C SWAP1 PUSH2 0x4835 JUMP JUMPDEST DUP1 ISZERO PUSH2 0x2569 JUMPI DUP1 PUSH1 0x1F LT PUSH2 0x253E JUMPI PUSH2 0x100 DUP1 DUP4 SLOAD DIV MUL DUP4 MSTORE SWAP2 PUSH1 0x20 ADD SWAP2 PUSH2 0x2569 JUMP JUMPDEST DUP3 ADD SWAP2 SWAP1 PUSH1 0x0 MSTORE PUSH1 0x20 PUSH1 0x0 KECCAK256 SWAP1 JUMPDEST DUP2 SLOAD DUP2 MSTORE SWAP1 PUSH1 0x1 ADD SWAP1 PUSH1 0x20 ADD DUP1 DUP4 GT PUSH2 0x254C JUMPI DUP3 SWAP1 SUB PUSH1 0x1F AND DUP3 ADD SWAP2 JUMPDEST POP POP POP POP POP DUP2 MSTORE PUSH1 0x20 ADD SWAP1 PUSH1 0x1 ADD SWAP1 PUSH2 0x24D1 JUMP JUMPDEST POP POP POP POP SWAP1 POP SWAP2 SWAP1 POP JUMP JUMPDEST PUSH2 0x2590 PUSH2 0x3029 JUMP JUMPDEST PUSH2 0x25B5 DUP2 PUSH1 0x12 PUSH1 0x0 DUP6 DUP2 MSTORE PUSH1 0x20 ADD SWAP1 DUP2 MSTORE PUSH1 0x20 ADD PUSH1 0x0 KECCAK256 PUSH2 0x311A SWAP1 SWAP2 SWAP1 PUSH4 0xFFFFFFFF AND JUMP JUMPDEST POP DUP1 PUSH20 0xFFFFFFFFFFFFFFFFFFFFFFFFFFFFFFFFFFFFFFFF AND DUP3 PUSH32 0x3FEC3B0BC0AADFA3A981CD090314686FA13FBEDB7B666C18166D40935D2A5DFF PUSH1 0x40 MLOAD PUSH1 0x40 MLOAD DUP1 SWAP2 SUB SWAP1 LOG3 POP POP JUMP JUMPDEST PUSH1 0x60 PUSH1 0x4 PUSH1 0x0 DUP4 DUP2 MSTORE PUSH1 0x20 ADD SWAP1 DUP2 MSTORE PUSH1 0x20 ADD PUSH1 0x0 KECCAK256 DUP1 SLOAD PUSH2 0x261E SWAP1 PUSH2 0x4835 JUMP JUMPDEST DUP1 PUSH1 0x1F ADD PUSH1 0x20 DUP1 SWAP2 DIV MUL PUSH1 0x20 ADD PUSH1 0x40 MLOAD SWAP1 DUP2 ADD PUSH1 0x40 MSTORE DUP1 SWAP3 SWAP2 SWAP1 DUP2 DUP2 MSTORE PUSH1 0x20 ADD DUP3 DUP1 SLOAD PUSH2 0x264A SWAP1 PUSH2 0x4835 JUMP JUMPDEST DUP1 ISZERO PUSH2 0x2697 JUMPI DUP1 PUSH1 0x1F LT PUSH2 0x266C JUMPI PUSH2 0x100 DUP1 DUP4 SLOAD DIV MUL DUP4 MSTORE SWAP2 PUSH1 0x20 ADD SWAP2 PUSH2 0x2697 JUMP JUMPDEST DUP3 ADD SWAP2 SWAP1 PUSH1 0x0 MSTORE PUSH1 0x20 PUSH1 0x0 KECCAK256 SWAP1 JUMPDEST DUP2 SLOAD DUP2 MSTORE SWAP1 PUSH1 0x1 ADD SWAP1 PUSH1 0x20 ADD DUP1 DUP4 GT PUSH2 0x267A JUMPI DUP3 SWAP1 SUB PUSH1 0x1F AND DUP3 ADD SWAP2 JUMPDEST POP POP POP POP POP SWAP1 POP SWAP2 SWAP1 POP JUMP JUMPDEST PUSH1 0x0 PUSH1 0xD PUSH1 0x0 DUP4 DUP2 MSTORE PUSH1 0x20 ADD SWAP1 DUP2 MSTORE PUSH1 0x20 ADD PUSH1 0x0 KECCAK256 DUP1 SLOAD SWAP1 POP SWAP1 POP SWAP2 SWAP1 POP JUMP JUMPDEST PUSH1 0x0 PUSH1 0xF PUSH1 0x0 DUP5 DUP2 MSTORE PUSH1 0x20 ADD SWAP1 DUP2 MSTORE PUSH1 0x20 ADD PUSH1 0x0 KECCAK256 DUP3 DUP2 SLOAD DUP2 LT PUSH2 0x26EA JUMPI PUSH2 0x26E9 PUSH2 0x47D7 JUMP JUMPDEST JUMPDEST SWAP1 PUSH1 0x0 MSTORE PUSH1 0x20 PUSH1 0x0 KECCAK256 ADD PUSH1 0x0 SWAP1 SLOAD SWAP1 PUSH2 0x100 EXP SWAP1 DIV PUSH20 0xFFFFFFFFFFFFFFFFFFFFFFFFFFFFFFFFFFFFFFFF AND SWAP1 POP SWAP3 SWAP2 POP POP JUMP JUMPDEST PUSH1 0x0 PUSH1 0xE PUSH1 0x0 DUP5 DUP2 MSTORE PUSH1 0x20 ADD SWAP1 DUP2 MSTORE PUSH1 0x20 ADD PUSH1 0x0 KECCAK256 DUP3 DUP2 SLOAD DUP2 LT PUSH2 0x2744 JUMPI PUSH2 0x2743 PUSH2 0x47D7 JUMP JUMPDEST JUMPDEST SWAP1 PUSH1 0x0 MSTORE PUSH1 0x20 PUSH1 0x0 KECCAK256 ADD SLOAD SWAP1 POP SWAP3 SWAP2 POP POP JUMP JUMPDEST PUSH2 0x275F PUSH2 0x3029 JUMP JUMPDEST PUSH1 0xB PUSH1 0x0 DUP4 DUP2 MSTORE PUSH1 0x20 ADD SWAP1 DUP2 MSTORE PUSH1 0x20 ADD PUSH1 0x0 KECCAK256 DUP2 SWAP1 DUP1 PUSH1 0x1 DUP2 SLOAD ADD DUP1 DUP3 SSTORE DUP1 SWAP2 POP POP PUSH1 0x1 SWAP1 SUB SWAP1 PUSH1 0x0 MSTORE PUSH1 0x20 PUSH1 0x0 KECCAK256 ADD PUSH1 0x0 SWAP1 SWAP2 SWAP1 SWAP2 SWAP1 SWAP2 POP SWAP1 DUP2 PUSH2 0x27A4 SWAP2 SWAP1 PUSH2 0x4C24 JUMP JUMPDEST POP DUP1 PUSH1 0x40 MLOAD PUSH2 0x27B3 SWAP2 SWAP1 PUSH2 0x4D32 JUMP JUMPDEST PUSH1 0x40 MLOAD DUP1 SWAP2 SUB SWAP1 KECCAK256 DUP3 PUSH32 0x7296E94A66AEFC373465EB2B547D38CD1B6BEBB1D1B958EB85E392826B7F54FC PUSH1 0x40 MLOAD PUSH1 0x40 MLOAD DUP1 SWAP2 SUB SWAP1 LOG3 POP POP JUMP JUMPDEST PUSH1 0x0 PUSH2 0x2809 PUSH1 0x13 PUSH1 0x0 DUP5 DUP2 MSTORE PUSH1 0x20 ADD SWAP1 DUP2 MSTORE PUSH1 0x20 ADD PUSH1 0x0 KECCAK256 PUSH2 0x324D JUMP JUMPDEST SWAP1 POP SWAP2 SWAP1 POP JUMP JUMPDEST PUSH2 0x2818 PUSH2 0x3029 JUMP JUMPDEST DUP1 PUSH1 0x11 PUSH1 0x0 DUP6 DUP2 MSTORE PUSH1 0x20 ADD SWAP1 DUP2 MSTORE PUSH1 0x20 ADD PUSH1 0x0 KECCAK256 DUP4 DUP2 SLOAD DUP2 LT PUSH2 0x283E JUMPI PUSH2 0x283D PUSH2 0x47D7 JUMP JUMPDEST JUMPDEST SWAP1 PUSH1 0x0 MSTORE PUSH1 0x20 PUSH1 0x0 KECCAK256 ADD DUP2 SWAP1 SSTORE POP DUP1 DUP3 DUP5 PUSH32 0x5CBAAC023DF7310E2497E1C450D6C23FB132694563FEF6429CD7276C9DCD50AC PUSH1 0x40 MLOAD PUSH1 0x40 MLOAD DUP1 SWAP2 SUB SWAP1 LOG4 POP POP POP JUMP JUMPDEST PUSH1 0x0 PUSH1 0xA PUSH1 0x0 DUP4 DUP2 MSTORE PUSH1 0x20 ADD SWAP1 DUP2 MSTORE PUSH1 0x20 ADD PUSH1 0x0 KECCAK256 SLOAD SWAP1 POP SWAP2 SWAP1 POP JUMP JUMPDEST PUSH2 0x28A5 PUSH2 0x3029 JUMP JUMPDEST DUP1 PUSH1 0x9 PUSH1 0x0 DUP5 DUP2 MSTORE PUSH1 0x20 ADD SWAP1 DUP2 MSTORE PUSH1 0x20 ADD PUSH1 0x0 KECCAK256 PUSH1 0x0 PUSH2 0x100 EXP DUP2 SLOAD DUP2 PUSH1 0xFF MUL NOT AND SWAP1 DUP4 ISZERO ISZERO MUL OR SWAP1 SSTORE POP DUP1 ISZERO ISZERO DUP3 PUSH32 0xDD2B1D2CA69F5297D9CCD354AC8E5FB2B29D86C4309E7A269BAD94C3A73D3615 PUSH1 0x40 MLOAD PUSH1 0x40 MLOAD DUP1 SWAP2 SUB SWAP1 LOG3 POP POP JUMP JUMPDEST PUSH2 0x290C PUSH2 0x3029 JUMP JUMPDEST DUP1 PUSH1 0xD PUSH1 0x0 DUP6 DUP2 MSTORE PUSH1 0x20 ADD SWAP1 DUP2 MSTORE PUSH1 0x20 ADD PUSH1 0x0 KECCAK256 DUP4 DUP2 SLOAD DUP2 LT PUSH2 0x2932 JUMPI PUSH2 0x2931 PUSH2 0x47D7 JUMP JUMPDEST JUMPDEST SWAP1 PUSH1 0x0 MSTORE PUSH1 0x20 PUSH1 0x0 KECCAK256 ADD DUP2 SWAP1 SSTORE POP DUP1 DUP3 DUP5 PUSH32 0x8114B25C120440ACF485BFF75482AD62DC0427F5920474F5C5A3B6A960A9CC92 PUSH1 0x40 MLOAD PUSH1 0x40 MLOAD DUP1 SWAP2 SUB SWAP1 LOG4 POP POP POP JUMP JUMPDEST PUSH2 0x297C PUSH2 0x3029 JUMP JUMPDEST PUSH1 0x11 PUSH1 0x0 DUP4 DUP2 MSTORE PUSH1 0x20 ADD SWAP1 DUP2 MSTORE PUSH1 0x20 ADD PUSH1 0x0 KECCAK256 DUP2 SWAP1 DUP1 PUSH1 0x1 DUP2 SLOAD ADD DUP1 DUP3 SSTORE DUP1 SWAP2 POP POP PUSH1 0x1 SWAP1 SUB SWAP1 PUSH1 0x0 MSTORE PUSH1 0x20 PUSH1 0x0 KECCAK256 ADD PUSH1 0x0 SWAP1 SWAP2 SWAP1 SWAP2 SWAP1 SWAP2 POP SSTORE DUP1 DUP3 PUSH32 0x156BD7FCA2A189317EF136885F41760A41604AB413D32E8AE5684C6F3730D4B4 PUSH1 0x40 MLOAD PUSH1 0x40 MLOAD DUP1 SWAP2 SUB SWAP1 LOG3 POP POP JUMP JUMPDEST PUSH1 0x0 PUSH2 0x2A0F DUP3 PUSH1 0x13 PUSH1 0x0 DUP7 DUP2 MSTORE PUSH1 0x20 ADD SWAP1 DUP2 MSTORE PUSH1 0x20 ADD PUSH1 0x0 KECCAK256 PUSH2 0x3262 SWAP1 SWAP2 SWAP1 PUSH4 0xFFFFFFFF AND JUMP JUMPDEST SWAP1 POP SWAP3 SWAP2 POP POP JUMP JUMPDEST PUSH1 0x0 PUSH1 0xC PUSH1 0x0 DUP4 DUP2 MSTORE PUSH1 0x20 ADD SWAP1 DUP2 MSTORE PUSH1 0x20 ADD PUSH1 0x0 KECCAK256 DUP1 SLOAD SWAP1 POP SWAP1 POP SWAP2 SWAP1 POP JUMP JUMPDEST PUSH1 0x0 PUSH2 0x2A5E DUP3 PUSH1 0x12 PUSH1 0x0 DUP7 DUP2 MSTORE PUSH1 0x20 ADD SWAP1 DUP2 MSTORE PUSH1 0x20 ADD PUSH1 0x0 KECCAK256 PUSH2 0x30EA SWAP1 SWAP2 SWAP1 PUSH4 0xFFFFFFFF AND JUMP JUMPDEST SWAP1 POP SWAP3 SWAP2 POP POP JUMP JUMPDEST PUSH1 0x0 PUSH1 0x11 PUSH1 0x0 DUP4 DUP2 MSTORE PUSH1 0x20 ADD SWAP1 DUP2 MSTORE PUSH1 0x20 ADD PUSH1 0x0 KECCAK256 DUP1 SLOAD SWAP1 POP SWAP1 POP SWAP2 SWAP1 POP JUMP JUMPDEST PUSH1 0x0 PUSH1 0x6 PUSH1 0x0 DUP4 DUP2 MSTORE PUSH1 0x20 ADD SWAP1 DUP2 MSTORE PUSH1 0x20 ADD PUSH1 0x0 KECCAK256 SLOAD SWAP1 POP SWAP2 SWAP1 POP JUMP JUMPDEST PUSH1 0x60 PUSH1 0x5 PUSH1 0x0 DUP4 DUP2 MSTORE PUSH1 0x20 ADD SWAP1 DUP2 MSTORE PUSH1 0x20 ADD PUSH1 0x0 KECCAK256 DUP1 SLOAD PUSH2 0x2AC3 SWAP1 PUSH2 0x4835 JUMP JUMPDEST DUP1 PUSH1 0x1F ADD PUSH1 0x20 DUP1 SWAP2 DIV MUL PUSH1 0x20 ADD PUSH1 0x40 MLOAD SWAP1 DUP2 ADD PUSH1 0x40 MSTORE DUP1 SWAP3 SWAP2 SWAP1 DUP2 DUP2 MSTORE PUSH1 0x20 ADD DUP3 DUP1 SLOAD PUSH2 0x2AEF SWAP1 PUSH2 0x4835 JUMP JUMPDEST DUP1 ISZERO PUSH2 0x2B3C JUMPI DUP1 PUSH1 0x1F LT PUSH2 0x2B11 JUMPI PUSH2 0x100 DUP1 DUP4 SLOAD DIV MUL DUP4 MSTORE SWAP2 PUSH1 0x20 ADD SWAP2 PUSH2 0x2B3C JUMP JUMPDEST DUP3 ADD SWAP2 SWAP1 PUSH1 0x0 MSTORE PUSH1 0x20 PUSH1 0x0 KECCAK256 SWAP1 JUMPDEST DUP2 SLOAD DUP2 MSTORE SWAP1 PUSH1 0x1 ADD SWAP1 PUSH1 0x20 ADD DUP1 DUP4 GT PUSH2 0x2B1F JUMPI DUP3 SWAP1 SUB PUSH1 0x1F AND DUP3 ADD SWAP2 JUMPDEST POP POP POP POP POP SWAP1 POP SWAP2 SWAP1 POP JUMP JUMPDEST PUSH1 0x0 PUSH1 0xD PUSH1 0x0 DUP5 DUP2 MSTORE PUSH1 0x20 ADD SWAP1 DUP2 MSTORE PUSH1 0x20 ADD PUSH1 0x0 KECCAK256 DUP3 DUP2 SLOAD DUP2 LT PUSH2 0x2B6F JUMPI PUSH2 0x2B6E PUSH2 0x47D7 JUMP JUMPDEST JUMPDEST SWAP1 PUSH1 0x0 MSTORE PUSH1 0x20 PUSH1 0x0 KECCAK256 ADD SLOAD SWAP1 POP SWAP3 SWAP2 POP POP JUMP JUMPDEST PUSH2 0x2B8A PUSH2 0x3029 JUMP JUMPDEST DUP1 PUSH1 0x8 PUSH1 0x0 DUP5 DUP2 MSTORE PUSH1 0x20 ADD SWAP1 DUP2 MSTORE PUSH1 0x20 ADD PUSH1 0x0 KECCAK256 PUSH1 0x0 PUSH2 0x100 EXP DUP2 SLOAD DUP2 PUSH20 0xFFFFFFFFFFFFFFFFFFFFFFFFFFFFFFFFFFFFFFFF MUL NOT AND SWAP1 DUP4 PUSH20 0xFFFFFFFFFFFFFFFFFFFFFFFFFFFFFFFFFFFFFFFF AND MUL OR SWAP1 SSTORE POP DUP1 PUSH20 0xFFFFFFFFFFFFFFFFFFFFFFFFFFFFFFFFFFFFFFFF AND DUP3 PUSH32 0x324BA9655E72CB8D5F0B9C49823DB98EFB875D4D05FE0824E62B305D16CD430A PUSH1 0x40 MLOAD PUSH1 0x40 MLOAD DUP1 SWAP2 SUB SWAP1 LOG3 POP POP JUMP JUMPDEST PUSH1 0x0 PUSH2 0x2C41 PUSH1 0x12 PUSH1 0x0 DUP5 DUP2 MSTORE PUSH1 0x20 ADD SWAP1 DUP2 MSTORE PUSH1 0x20 ADD PUSH1 0x0 KECCAK256 PUSH2 0x327C JUMP JUMPDEST SWAP1 POP SWAP2 SWAP1 POP JUMP JUMPDEST PUSH2 0x2C50 PUSH2 0x3029 JUMP JUMPDEST PUSH2 0x2C75 DUP2 PUSH1 0x14 PUSH1 0x0 DUP6 DUP2 MSTORE PUSH1 0x20 ADD SWAP1 DUP2 MSTORE PUSH1 0x20 ADD PUSH1 0x0 KECCAK256 PUSH2 0x3291 SWAP1 SWAP2 SWAP1 PUSH4 0xFFFFFFFF AND JUMP JUMPDEST POP DUP1 DUP3 PUSH32 0xA74DABB6D37C3B941A26A5F88578CA897ADDB1268864619EC91E1E2FC18BB696 PUSH1 0x40 MLOAD PUSH1 0x40 MLOAD DUP1 SWAP2 SUB SWAP1 LOG3 POP POP JUMP JUMPDEST PUSH2 0x2CB0 PUSH2 0x3029 JUMP JUMPDEST PUSH1 0xC PUSH1 0x0 DUP3 DUP2 MSTORE PUSH1 0x20 ADD SWAP1 DUP2 MSTORE PUSH1 0x20 ADD PUSH1 0x0 KECCAK256 PUSH1 0x0 PUSH2 0x2CCF SWAP2 SWAP1 PUSH2 0x35CE JUMP JUMPDEST DUP1 PUSH32 0x19ADD3B2EC9822E603CA1F57618DD6AF2B1348296BBBB8376FE9DC1E319DA08 PUSH1 0x40 MLOAD PUSH1 0x40 MLOAD DUP1 SWAP2 SUB SWAP1 LOG2 POP JUMP JUMPDEST PUSH1 0x60 PUSH2 0x2D1C PUSH1 0x14 PUSH1 0x0 DUP5 DUP2 MSTORE PUSH1 0x20 ADD SWAP1 DUP2 MSTORE PUSH1 0x20 ADD PUSH1 0x0 KECCAK256 PUSH2 0x32A8 JUMP JUMPDEST SWAP1 POP SWAP2 SWAP1 POP JUMP JUMPDEST PUSH1 0x0 PUSH1 0x7 PUSH1 0x0 DUP4 DUP2 MSTORE PUSH1 0x20 ADD SWAP1 DUP2 MSTORE PUSH1 0x20 ADD PUSH1 0x0 KECCAK256 SLOAD SWAP1 POP SWAP2 SWAP1 POP JUMP JUMPDEST PUSH1 0x60 PUSH1 0x11 PUSH1 0x0 DUP4 DUP2 MSTORE PUSH1 0x20 ADD SWAP1 DUP2 MSTORE PUSH1 0x20 ADD PUSH1 0x0 KECCAK256 DUP1 SLOAD DUP1 PUSH1 0x20 MUL PUSH1 0x20 ADD PUSH1 0x40 MLOAD SWAP1 DUP2 ADD PUSH1 0x40 MSTORE DUP1 SWAP3 SWAP2 SWAP1 DUP2 DUP2 MSTORE PUSH1 0x20 ADD DUP3 DUP1 SLOAD DUP1 ISZERO PUSH2 0x2D9F JUMPI PUSH1 0x20 MUL DUP3 ADD SWAP2 SWAP1 PUSH1 0x0 MSTORE PUSH1 0x20 PUSH1 0x0 KECCAK256 SWAP1 JUMPDEST DUP2 SLOAD DUP2 MSTORE PUSH1 0x20 ADD SWAP1 PUSH1 0x1 ADD SWAP1 DUP1 DUP4 GT PUSH2 0x2D8B JUMPI JUMPDEST POP POP POP POP POP SWAP1 POP SWAP2 SWAP1 POP JUMP JUMPDEST PUSH2 0x2DB3 PUSH2 0x3029 JUMP JUMPDEST PUSH1 0xF PUSH1 0x0 DUP4 DUP2 MSTORE PUSH1 0x20 ADD SWAP1 DUP2 MSTORE PUSH1 0x20 ADD PUSH1 0x0 KECCAK256 DUP2 SWAP1 DUP1 PUSH1 0x1 DUP2 SLOAD ADD DUP1 DUP3 SSTORE DUP1 SWAP2 POP POP PUSH1 0x1 SWAP1 SUB SWAP1 PUSH1 0x0 MSTORE PUSH1 0x20 PUSH1 0x0 KECCAK256 ADD PUSH1 0x0 SWAP1 SWAP2 SWAP1 SWAP2 SWAP1 SWAP2 PUSH2 0x100 EXP DUP2 SLOAD DUP2 PUSH20 0xFFFFFFFFFFFFFFFFFFFFFFFFFFFFFFFFFFFFFFFF MUL NOT AND SWAP1 DUP4 PUSH20 0xFFFFFFFFFFFFFFFFFFFFFFFFFFFFFFFFFFFFFFFF AND MUL OR SWAP1 SSTORE POP DUP1 PUSH20 0xFFFFFFFFFFFFFFFFFFFFFFFFFFFFFFFFFFFFFFFF AND DUP3 PUSH32 0xBFD4D086F21AE1C8189A93292A7DF637F36580D296AB99602F932620EDDC04A1 PUSH1 0x40 MLOAD PUSH1 0x40 MLOAD DUP1 SWAP2 SUB SWAP1 LOG3 POP POP JUMP JUMPDEST PUSH2 0x2E77 PUSH2 0x3029 JUMP JUMPDEST DUP1 PUSH1 0x6 PUSH1 0x0 DUP5 DUP2 MSTORE PUSH1 0x20 ADD SWAP1 DUP2 MSTORE PUSH1 0x20 ADD PUSH1 0x0 KECCAK256 DUP2 SWAP1 SSTORE POP DUP1 DUP3 PUSH32 0xA9A0B1EB0739ADFF2D29D6B8EAC26DEA37B499ADEC7B3F98326A31783E4C053B PUSH1 0x40 MLOAD PUSH1 0x40 MLOAD DUP1 SWAP2 SUB SWAP1 LOG3 POP POP JUMP JUMPDEST PUSH2 0x2EC9 PUSH2 0x3029 JUMP JUMPDEST PUSH1 0xE PUSH1 0x0 DUP3 DUP2 MSTORE PUSH1 0x20 ADD SWAP1 DUP2 MSTORE PUSH1 0x20 ADD PUSH1 0x0 KECCAK256 PUSH1 0x0 PUSH2 0x2EE8 SWAP2 SWAP1 PUSH2 0x35EF JUMP JUMPDEST DUP1 PUSH32 0x971B97A34FCE79DD5D79725FE340CBEEBF0CA15043ECDE2F9505C3F857030C8A PUSH1 0x40 MLOAD PUSH1 0x40 MLOAD DUP1 SWAP2 SUB SWAP1 LOG2 POP JUMP JUMPDEST PUSH1 0x0 PUSH2 0x2F3F DUP3 PUSH1 0x13 PUSH1 0x0 DUP7 DUP2 MSTORE PUSH1 0x20 ADD SWAP1 DUP2 MSTORE PUSH1 0x20 ADD PUSH1 0x0 KECCAK256 PUSH2 0x32C9 SWAP1 SWAP2 SWAP1 PUSH4 0xFFFFFFFF AND JUMP JUMPDEST SWAP1 POP SWAP3 SWAP2 POP POP JUMP JUMPDEST PUSH1 0x60 PUSH1 0xC PUSH1 0x0 DUP5 DUP2 MSTORE PUSH1 0x20 ADD SWAP1 DUP2 MSTORE PUSH1 0x20 ADD PUSH1 0x0 KECCAK256 DUP3 DUP2 SLOAD DUP2 LT PUSH2 0x2F6E JUMPI PUSH2 0x2F6D PUSH2 0x47D7 JUMP JUMPDEST JUMPDEST SWAP1 PUSH1 0x0 MSTORE PUSH1 0x20 PUSH1 0x0 KECCAK256 ADD DUP1 SLOAD PUSH2 0x2F83 SWAP1 PUSH2 0x4835 JUMP JUMPDEST DUP1 PUSH1 0x1F ADD PUSH1 0x20 DUP1 SWAP2 DIV MUL PUSH1 0x20 ADD PUSH1 0x40 MLOAD SWAP1 DUP2 ADD PUSH1 0x40 MSTORE DUP1 SWAP3 SWAP2 SWAP1 DUP2 DUP2 MSTORE PUSH1 0x20 ADD DUP3 DUP1 SLOAD PUSH2 0x2FAF SWAP1 PUSH2 0x4835 JUMP JUMPDEST DUP1 ISZERO PUSH2 0x2FFC JUMPI DUP1 PUSH1 0x1F LT PUSH2 0x2FD1 JUMPI PUSH2 0x100 DUP1 DUP4 SLOAD DIV MUL DUP4 MSTORE SWAP2 PUSH1 0x20 ADD SWAP2 PUSH2 0x2FFC JUMP JUMPDEST DUP3 ADD SWAP2 SWAP1 PUSH1 0x0 MSTORE PUSH1 0x20 PUSH1 0x0 KECCAK256 SWAP1 JUMPDEST DUP2 SLOAD DUP2 MSTORE SWAP1 PUSH1 0x1 ADD SWAP1 PUSH1 0x20 ADD DUP1 DUP4 GT PUSH2 0x2FDF JUMPI DUP3 SWAP1 SUB PUSH1 0x1F AND DUP3 ADD SWAP2 JUMPDEST POP POP POP POP POP SWAP1 POP SWAP3 SWAP2 POP POP JUMP JUMPDEST PUSH1 0x0 PUSH1 0xF PUSH1 0x0 DUP4 DUP2 MSTORE PUSH1 0x20 ADD SWAP1 DUP2 MSTORE PUSH1 0x20 ADD PUSH1 0x0 KECCAK256 DUP1 SLOAD SWAP1 POP SWAP1 POP SWAP2 SWAP1 POP JUMP JUMPDEST PUSH2 0x303D CALLER PUSH1 0x2 PUSH2 0x30EA SWAP1 SWAP2 SWAP1 PUSH4 0xFFFFFFFF AND JUMP JUMPDEST PUSH2 0x307C JUMPI PUSH1 0x40 MLOAD PUSH32 0x8C379A000000000000000000000000000000000000000000000000000000000 DUP2 MSTORE PUSH1 0x4 ADD PUSH2 0x3073 SWAP1 PUSH2 0x5193 JUMP JUMPDEST PUSH1 0x40 MLOAD DUP1 SWAP2 SUB SWAP1 REVERT JUMPDEST JUMP JUMPDEST PUSH1 0x0 PUSH2 0x308D DUP4 PUSH1 0x0 ADD DUP4 PUSH2 0x32E3 JUMP JUMPDEST SWAP1 POP SWAP3 SWAP2 POP POP JUMP JUMPDEST PUSH2 0x30A9 CALLER PUSH1 0x0 PUSH2 0x30EA SWAP1 SWAP2 SWAP1 PUSH4 0xFFFFFFFF AND JUMP JUMPDEST PUSH2 0x30E8 JUMPI PUSH1 0x40 MLOAD PUSH32 0x8C379A000000000000000000000000000000000000000000000000000000000 DUP2 MSTORE PUSH1 0x4 ADD PUSH2 0x30DF SWAP1 PUSH2 0x51FF JUMP JUMPDEST PUSH1 0x40 MLOAD DUP1 SWAP2 SUB SWAP1 REVERT JUMPDEST JUMP JUMPDEST PUSH1 0x0 PUSH2 0x3112 DUP4 PUSH1 0x0 ADD DUP4 PUSH20 0xFFFFFFFFFFFFFFFFFFFFFFFFFFFFFFFFFFFFFFFF AND PUSH1 0x0 SHL PUSH2 0x32E3 JUMP JUMPDEST SWAP1 POP SWAP3 SWAP2 POP POP JUMP JUMPDEST PUSH1 0x0 PUSH2 0x3142 DUP4 PUSH1 0x0 ADD DUP4 PUSH20 0xFFFFFFFFFFFFFFFFFFFFFFFFFFFFFFFFFFFFFFFF AND PUSH1 0x0 SHL PUSH2 0x3306 JUMP JUMPDEST SWAP1 POP SWAP3 SWAP2 POP POP JUMP JUMPDEST PUSH1 0x0 PUSH2 0x315C DUP4 PUSH1 0x0 ADD DUP4 PUSH1 0x0 SHL PUSH2 0x3306 JUMP JUMPDEST SWAP1 POP SWAP3 SWAP2 POP POP JUMP JUMPDEST PUSH1 0x60 PUSH1 0x0 PUSH2 0x3174 DUP4 PUSH1 0x0 ADD PUSH2 0x341A JUMP JUMPDEST SWAP1 POP PUSH1 0x60 DUP2 SWAP1 POP DUP1 SWAP3 POP POP POP SWAP2 SWAP1 POP JUMP JUMPDEST PUSH1 0x60 PUSH1 0x0 PUSH2 0x3195 DUP4 PUSH1 0x0 ADD PUSH2 0x341A JUMP JUMPDEST SWAP1 POP PUSH1 0x60 DUP2 SWAP1 POP DUP1 SWAP3 POP POP POP SWAP2 SWAP1 POP JUMP JUMPDEST PUSH1 0x0 PUSH2 0x31B5 DUP4 PUSH1 0x0 ADD DUP4 PUSH2 0x3476 JUMP JUMPDEST SWAP1 POP SWAP3 SWAP2 POP POP JUMP JUMPDEST PUSH1 0x0 PUSH2 0x31CC DUP4 PUSH1 0x0 ADD DUP4 PUSH2 0x34E6 JUMP JUMPDEST SWAP1 POP SWAP3 SWAP2 POP POP JUMP JUMPDEST PUSH1 0x0 PUSH2 0x31E2 DUP3 PUSH1 0x0 ADD PUSH2 0x3511 JUMP JUMPDEST SWAP1 POP SWAP2 SWAP1 POP JUMP JUMPDEST PUSH1 0x0 PUSH2 0x3211 DUP4 PUSH1 0x0 ADD DUP4 PUSH20 0xFFFFFFFFFFFFFFFFFFFFFFFFFFFFFFFFFFFFFFFF AND PUSH1 0x0 SHL PUSH2 0x3476 JUMP JUMPDEST SWAP1 POP SWAP3 SWAP2 POP POP JUMP JUMPDEST PUSH1 0x0 PUSH2 0x322B DUP4 PUSH1 0x0 ADD DUP4 PUSH1 0x0 SHL PUSH2 0x3476 JUMP JUMPDEST SWAP1 POP SWAP3 SWAP2 POP POP JUMP JUMPDEST PUSH1 0x0 PUSH2 0x3242 DUP4 PUSH1 0x0 ADD DUP4 PUSH2 0x34E6 JUMP JUMPDEST PUSH1 0x0 SHR SWAP1 POP SWAP3 SWAP2 POP POP JUMP JUMPDEST PUSH1 0x0 PUSH2 0x325B DUP3 PUSH1 0x0 ADD PUSH2 0x3511 JUMP JUMPDEST SWAP1 POP SWAP2 SWAP1 POP JUMP JUMPDEST PUSH1 0x0 PUSH2 0x3274 DUP4 PUSH1 0x0 ADD DUP4 PUSH1 0x0 SHL PUSH2 0x32E3 JUMP JUMPDEST SWAP1 POP SWAP3 SWAP2 POP POP JUMP JUMPDEST PUSH1 0x0 PUSH2 0x328A DUP3 PUSH1 0x0 ADD PUSH2 0x3511 JUMP JUMPDEST SWAP1 POP SWAP2 SWAP1 POP JUMP JUMPDEST PUSH1 0x0 PUSH2 0x32A0 DUP4 PUSH1 0x0 ADD DUP4 PUSH2 0x3306 JUMP JUMPDEST SWAP1 POP SWAP3 SWAP2 POP POP JUMP JUMPDEST PUSH1 0x60 PUSH1 0x0 PUSH2 0x32B8 DUP4 PUSH1 0x0 ADD PUSH2 0x341A JUMP JUMPDEST SWAP1 POP PUSH1 0x60 DUP2 SWAP1 POP DUP1 SWAP3 POP POP POP SWAP2 SWAP1 POP JUMP JUMPDEST PUSH1 0x0 PUSH2 0x32D8 DUP4 PUSH1 0x0 ADD DUP4 PUSH2 0x34E6 JUMP JUMPDEST PUSH1 0x0 SHR SWAP1 POP SWAP3 SWAP2 POP POP JUMP JUMPDEST PUSH1 0x0 DUP1 DUP4 PUSH1 0x1 ADD PUSH1 0x0 DUP5 DUP2 MSTORE PUSH1 0x20 ADD SWAP1 DUP2 MSTORE PUSH1 0x20 ADD PUSH1 0x0 KECCAK256 SLOAD EQ ISZERO SWAP1 POP SWAP3 SWAP2 POP POP JUMP JUMPDEST PUSH1 0x0 DUP1 DUP4 PUSH1 0x1 ADD PUSH1 0x0 DUP5 DUP2 MSTORE PUSH1 0x20 ADD SWAP1 DUP2 MSTORE PUSH1 0x20 ADD PUSH1 0x0 KECCAK256 SLOAD SWAP1 POP PUSH1 0x0 DUP2 EQ PUSH2 0x340E JUMPI PUSH1 0x0 PUSH1 0x1 DUP3 PUSH2 0x3338 SWAP2 SWAP1 PUSH2 0x524E JUMP JUMPDEST SWAP1 POP PUSH1 0x0 PUSH1 0x1 DUP7 PUSH1 0x0 ADD DUP1 SLOAD SWAP1 POP PUSH2 0x3350 SWAP2 SWAP1 PUSH2 0x524E JUMP JUMPDEST SWAP1 POP DUP2 DUP2 EQ PUSH2 0x33BF JUMPI PUSH1 0x0 DUP7 PUSH1 0x0 ADD DUP3 DUP2 SLOAD DUP2 LT PUSH2 0x3371 JUMPI PUSH2 0x3370 PUSH2 0x47D7 JUMP JUMPDEST JUMPDEST SWAP1 PUSH1 0x0 MSTORE PUSH1 0x20 PUSH1 0x0 KECCAK256 ADD SLOAD SWAP1 POP DUP1 DUP8 PUSH1 0x0 ADD DUP5 DUP2 SLOAD DUP2 LT PUSH2 0x3395 JUMPI PUSH2 0x3394 PUSH2 0x47D7 JUMP JUMPDEST JUMPDEST SWAP1 PUSH1 0x0 MSTORE PUSH1 0x20 PUSH1 0x0 KECCAK256 ADD DUP2 SWAP1 SSTORE POP DUP4 DUP8 PUSH1 0x1 ADD PUSH1 0x0 DUP4 DUP2 MSTORE PUSH1 0x20 ADD SWAP1 DUP2 MSTORE PUSH1 0x20 ADD PUSH1 0x0 KECCAK256 DUP2 SWAP1 SSTORE POP POP JUMPDEST DUP6 PUSH1 0x0 ADD DUP1 SLOAD DUP1 PUSH2 0x33D3 JUMPI PUSH2 0x33D2 PUSH2 0x5282 JUMP JUMPDEST JUMPDEST PUSH1 0x1 SWAP1 SUB DUP2 DUP2 SWAP1 PUSH1 0x0 MSTORE PUSH1 0x20 PUSH1 0x0 KECCAK256 ADD PUSH1 0x0 SWAP1 SSTORE SWAP1 SSTORE DUP6 PUSH1 0x1 ADD PUSH1 0x0 DUP7 DUP2 MSTORE PUSH1 0x20 ADD SWAP1 DUP2 MSTORE PUSH1 0x20 ADD PUSH1 0x0 KECCAK256 PUSH1 0x0 SWAP1 SSTORE PUSH1 0x1 SWAP4 POP POP POP POP PUSH2 0x3414 JUMP JUMPDEST PUSH1 0x0 SWAP2 POP POP JUMPDEST SWAP3 SWAP2 POP POP JUMP JUMPDEST PUSH1 0x60 DUP2 PUSH1 0x0 ADD DUP1 SLOAD DUP1 PUSH1 0x20 MUL PUSH1 0x20 ADD PUSH1 0x40 MLOAD SWAP1 DUP2 ADD PUSH1 0x40 MSTORE DUP1 SWAP3 SWAP2 SWAP1 DUP2 DUP2 MSTORE PUSH1 0x20 ADD DUP3 DUP1 SLOAD DUP1 ISZERO PUSH2 0x346A JUMPI PUSH1 0x20 MUL DUP3 ADD SWAP2 SWAP1 PUSH1 0x0 MSTORE PUSH1 0x20 PUSH1 0x0 KECCAK256 SWAP1 JUMPDEST DUP2 SLOAD DUP2 MSTORE PUSH1 0x20 ADD SWAP1 PUSH1 0x1 ADD SWAP1 DUP1 DUP4 GT PUSH2 0x3456 JUMPI JUMPDEST POP POP POP POP POP SWAP1 POP SWAP2 SWAP1 POP JUMP JUMPDEST PUSH1 0x0 PUSH2 0x3482 DUP4 DUP4 PUSH2 0x32E3 JUMP JUMPDEST PUSH2 0x34DB JUMPI DUP3 PUSH1 0x0 ADD DUP3 SWAP1 DUP1 PUSH1 0x1 DUP2 SLOAD ADD DUP1 DUP3 SSTORE DUP1 SWAP2 POP POP PUSH1 0x1 SWAP1 SUB SWAP1 PUSH1 0x0 MSTORE PUSH1 0x20 PUSH1 0x0 KECCAK256 ADD PUSH1 0x0 SWAP1 SWAP2 SWAP1 SWAP2 SWAP1 SWAP2 POP SSTORE DUP3 PUSH1 0x0 ADD DUP1 SLOAD SWAP1 POP DUP4 PUSH1 0x1 ADD PUSH1 0x0 DUP5 DUP2 MSTORE PUSH1 0x20 ADD SWAP1 DUP2 MSTORE PUSH1 0x20 ADD PUSH1 0x0 KECCAK256 DUP2 SWAP1 SSTORE POP PUSH1 0x1 SWAP1 POP PUSH2 0x34E0 JUMP JUMPDEST PUSH1 0x0 SWAP1 POP JUMPDEST SWAP3 SWAP2 POP POP JUMP JUMPDEST PUSH1 0x0 DUP3 PUSH1 0x0 ADD DUP3 DUP2 SLOAD DUP2 LT PUSH2 0x34FE JUMPI PUSH2 0x34FD PUSH2 0x47D7 JUMP JUMPDEST JUMPDEST SWAP1 PUSH1 0x0 MSTORE PUSH1 0x20 PUSH1 0x0 KECCAK256 ADD SLOAD SWAP1 POP SWAP3 SWAP2 POP POP JUMP JUMPDEST PUSH1 0x0 DUP2 PUSH1 0x0 ADD DUP1 SLOAD SWAP1 POP SWAP1 POP SWAP2 SWAP1 POP JUMP JUMPDEST POP DUP1 SLOAD PUSH1 0x0 DUP3 SSTORE PUSH1 0x1F ADD PUSH1 0x20 SWAP1 DIV SWAP1 PUSH1 0x0 MSTORE PUSH1 0x20 PUSH1 0x0 KECCAK256 SWAP1 DUP2 ADD SWAP1 PUSH2 0x3547 SWAP2 SWAP1 PUSH2 0x3610 JUMP JUMPDEST POP JUMP JUMPDEST POP DUP1 SLOAD PUSH1 0x0 DUP3 SSTORE SWAP1 PUSH1 0x0 MSTORE PUSH1 0x20 PUSH1 0x0 KECCAK256 SWAP1 DUP2 ADD SWAP1 PUSH2 0x3568 SWAP2 SWAP1 PUSH2 0x362D JUMP JUMPDEST POP JUMP JUMPDEST POP DUP1 SLOAD PUSH1 0x0 DUP3 SSTORE SWAP1 PUSH1 0x0 MSTORE PUSH1 0x20 PUSH1 0x0 KECCAK256 SWAP1 DUP2 ADD SWAP1 PUSH2 0x3589 SWAP2 SWAP1 PUSH2 0x3651 JUMP JUMPDEST POP JUMP JUMPDEST POP DUP1 SLOAD PUSH1 0x0 DUP3 SSTORE SWAP1 PUSH1 0x0 MSTORE PUSH1 0x20 PUSH1 0x0 KECCAK256 SWAP1 DUP2 ADD SWAP1 PUSH2 0x35AA SWAP2 SWAP1 PUSH2 0x3610 JUMP JUMPDEST POP JUMP JUMPDEST POP DUP1 SLOAD PUSH1 0x0 DUP3 SSTORE SWAP1 PUSH1 0x0 MSTORE PUSH1 0x20 PUSH1 0x0 KECCAK256 SWAP1 DUP2 ADD SWAP1 PUSH2 0x35CB SWAP2 SWAP1 PUSH2 0x3610 JUMP JUMPDEST POP JUMP JUMPDEST POP DUP1 SLOAD PUSH1 0x0 DUP3 SSTORE SWAP1 PUSH1 0x0 MSTORE PUSH1 0x20 PUSH1 0x0 KECCAK256 SWAP1 DUP2 ADD SWAP1 PUSH2 0x35EC SWAP2 SWAP1 PUSH2 0x366E JUMP JUMPDEST POP JUMP JUMPDEST POP DUP1 SLOAD PUSH1 0x0 DUP3 SSTORE SWAP1 PUSH1 0x0 MSTORE PUSH1 0x20 PUSH1 0x0 KECCAK256 SWAP1 DUP2 ADD SWAP1 PUSH2 0x360D SWAP2 SWAP1 PUSH2 0x3692 JUMP JUMPDEST POP JUMP JUMPDEST JUMPDEST DUP1 DUP3 GT ISZERO PUSH2 0x3629 JUMPI PUSH1 0x0 DUP2 PUSH1 0x0 SWAP1 SSTORE POP PUSH1 0x1 ADD PUSH2 0x3611 JUMP JUMPDEST POP SWAP1 JUMP JUMPDEST JUMPDEST DUP1 DUP3 GT ISZERO PUSH2 0x364D JUMPI PUSH1 0x0 DUP2 DUP2 PUSH2 0x3644 SWAP2 SWAP1 PUSH2 0x36AF JUMP JUMPDEST POP PUSH1 0x1 ADD PUSH2 0x362E JUMP JUMPDEST POP SWAP1 JUMP JUMPDEST JUMPDEST DUP1 DUP3 GT ISZERO PUSH2 0x366A JUMPI PUSH1 0x0 DUP2 PUSH1 0x0 SWAP1 SSTORE POP PUSH1 0x1 ADD PUSH2 0x3652 JUMP JUMPDEST POP SWAP1 JUMP JUMPDEST JUMPDEST DUP1 DUP3 GT ISZERO PUSH2 0x368E JUMPI PUSH1 0x0 DUP2 DUP2 PUSH2 0x3685 SWAP2 SWAP1 PUSH2 0x36EF JUMP JUMPDEST POP PUSH1 0x1 ADD PUSH2 0x366F JUMP JUMPDEST POP SWAP1 JUMP JUMPDEST JUMPDEST DUP1 DUP3 GT ISZERO PUSH2 0x36AB JUMPI PUSH1 0x0 DUP2 PUSH1 0x0 SWAP1 SSTORE POP PUSH1 0x1 ADD PUSH2 0x3693 JUMP JUMPDEST POP SWAP1 JUMP JUMPDEST POP DUP1 SLOAD PUSH2 0x36BB SWAP1 PUSH2 0x4835 JUMP JUMPDEST PUSH1 0x0 DUP3 SSTORE DUP1 PUSH1 0x1F LT PUSH2 0x36CD JUMPI POP PUSH2 0x36EC JUMP JUMPDEST PUSH1 0x1F ADD PUSH1 0x20 SWAP1 DIV SWAP1 PUSH1 0x0 MSTORE PUSH1 0x20 PUSH1 0x0 KECCAK256 SWAP1 DUP2 ADD SWAP1 PUSH2 0x36EB SWAP2 SWAP1 PUSH2 0x3610 JUMP JUMPDEST JUMPDEST POP JUMP JUMPDEST POP DUP1 SLOAD PUSH2 0x36FB SWAP1 PUSH2 0x4835 JUMP JUMPDEST PUSH1 0x0 DUP3 SSTORE DUP1 PUSH1 0x1F LT PUSH2 0x370D JUMPI POP PUSH2 0x372C JUMP JUMPDEST PUSH1 0x1F ADD PUSH1 0x20 SWAP1 DIV SWAP1 PUSH1 0x0 MSTORE PUSH1 0x20 PUSH1 0x0 KECCAK256 SWAP1 DUP2 ADD SWAP1 PUSH2 0x372B SWAP2 SWAP1 PUSH2 0x3610 JUMP JUMPDEST JUMPDEST POP JUMP JUMPDEST PUSH1 0x0 PUSH1 0x40 MLOAD SWAP1 POP SWAP1 JUMP JUMPDEST PUSH1 0x0 DUP1 REVERT JUMPDEST PUSH1 0x0 DUP1 REVERT JUMPDEST PUSH1 0x0 DUP2 SWAP1 POP SWAP2 SWAP1 POP JUMP JUMPDEST PUSH2 0x3756 DUP2 PUSH2 0x3743 JUMP JUMPDEST DUP2 EQ PUSH2 0x3761 JUMPI PUSH1 0x0 DUP1 REVERT JUMPDEST POP JUMP JUMPDEST PUSH1 0x0 DUP2 CALLDATALOAD SWAP1 POP PUSH2 0x3773 DUP2 PUSH2 0x374D JUMP JUMPDEST SWAP3 SWAP2 POP POP JUMP JUMPDEST PUSH1 0x0 DUP2 SWAP1 POP SWAP2 SWAP1 POP JUMP JUMPDEST PUSH2 0x378C DUP2 PUSH2 0x3779 JUMP JUMPDEST DUP2 EQ PUSH2 0x3797 JUMPI PUSH1 0x0 DUP1 REVERT JUMPDEST POP JUMP JUMPDEST PUSH1 0x0 DUP2 CALLDATALOAD SWAP1 POP PUSH2 0x37A9 DUP2 PUSH2 0x3783 JUMP JUMPDEST SWAP3 SWAP2 POP POP JUMP JUMPDEST PUSH1 0x0 PUSH20 0xFFFFFFFFFFFFFFFFFFFFFFFFFFFFFFFFFFFFFFFF DUP3 AND SWAP1 POP SWAP2 SWAP1 POP JUMP JUMPDEST PUSH1 0x0 PUSH2 0x37DA DUP3 PUSH2 0x37AF JUMP JUMPDEST SWAP1 POP SWAP2 SWAP1 POP JUMP JUMPDEST PUSH2 0x37EA DUP2 PUSH2 0x37CF JUMP JUMPDEST DUP2 EQ PUSH2 0x37F5 JUMPI PUSH1 0x0 DUP1 REVERT JUMPDEST POP JUMP JUMPDEST PUSH1 0x0 DUP2 CALLDATALOAD SWAP1 POP PUSH2 0x3807 DUP2 PUSH2 0x37E1 JUMP JUMPDEST SWAP3 SWAP2 POP POP JUMP JUMPDEST PUSH1 0x0 DUP1 PUSH1 0x0 PUSH1 0x60 DUP5 DUP7 SUB SLT ISZERO PUSH2 0x3826 JUMPI PUSH2 0x3825 PUSH2 0x3739 JUMP JUMPDEST JUMPDEST PUSH1 0x0 PUSH2 0x3834 DUP7 DUP3 DUP8 ADD PUSH2 0x3764 JUMP JUMPDEST SWAP4 POP POP PUSH1 0x20 PUSH2 0x3845 DUP7 DUP3 DUP8 ADD PUSH2 0x379A JUMP JUMPDEST SWAP3 POP POP PUSH1 0x40 PUSH2 0x3856 DUP7 DUP3 DUP8 ADD PUSH2 0x37F8 JUMP JUMPDEST SWAP2 POP POP SWAP3 POP SWAP3 POP SWAP3 JUMP JUMPDEST PUSH1 0x0 PUSH1 0x20 DUP3 DUP5 SUB SLT ISZERO PUSH2 0x3876 JUMPI PUSH2 0x3875 PUSH2 0x3739 JUMP JUMPDEST JUMPDEST PUSH1 0x0 PUSH2 0x3884 DUP5 DUP3 DUP6 ADD PUSH2 0x3764 JUMP JUMPDEST SWAP2 POP POP SWAP3 SWAP2 POP POP JUMP JUMPDEST PUSH1 0x0 DUP2 MLOAD SWAP1 POP SWAP2 SWAP1 POP JUMP JUMPDEST PUSH1 0x0 DUP3 DUP3 MSTORE PUSH1 0x20 DUP3 ADD SWAP1 POP SWAP3 SWAP2 POP POP JUMP JUMPDEST PUSH1 0x0 DUP2 SWAP1 POP PUSH1 0x20 DUP3 ADD SWAP1 POP SWAP2 SWAP1 POP JUMP JUMPDEST PUSH1 0x0 DUP2 MLOAD SWAP1 POP SWAP2 SWAP1 POP JUMP JUMPDEST PUSH1 0x0 DUP3 DUP3 MSTORE PUSH1 0x20 DUP3 ADD SWAP1 POP SWAP3 SWAP2 POP POP JUMP JUMPDEST PUSH1 0x0 JUMPDEST DUP4 DUP2 LT ISZERO PUSH2 0x38F3 JUMPI DUP1 DUP3 ADD MLOAD DUP2 DUP5 ADD MSTORE PUSH1 0x20 DUP2 ADD SWAP1 POP PUSH2 0x38D8 JUMP JUMPDEST PUSH1 0x0 DUP5 DUP5 ADD MSTORE POP POP POP POP JUMP JUMPDEST PUSH1 0x0 PUSH1 0x1F NOT PUSH1 0x1F DUP4 ADD AND SWAP1 POP SWAP2 SWAP1 POP JUMP JUMPDEST PUSH1 0x0 PUSH2 0x391B DUP3 PUSH2 0x38B9 JUMP JUMPDEST PUSH2 0x3925 DUP2 DUP6 PUSH2 0x38C4 JUMP JUMPDEST SWAP4 POP PUSH2 0x3935 DUP2 DUP6 PUSH1 0x20 DUP7 ADD PUSH2 0x38D5 JUMP JUMPDEST PUSH2 0x393E DUP2 PUSH2 0x38FF JUMP JUMPDEST DUP5 ADD SWAP2 POP POP SWAP3 SWAP2 POP POP JUMP JUMPDEST PUSH1 0x0 PUSH2 0x3955 DUP4 DUP4 PUSH2 0x3910 JUMP JUMPDEST SWAP1 POP SWAP3 SWAP2 POP POP JUMP JUMPDEST PUSH1 0x0 PUSH1 0x20 DUP3 ADD SWAP1 POP SWAP2 SWAP1 POP JUMP JUMPDEST PUSH1 0x0 PUSH2 0x3975 DUP3 PUSH2 0x388D JUMP JUMPDEST PUSH2 0x397F DUP2 DUP6 PUSH2 0x3898 JUMP JUMPDEST SWAP4 POP DUP4 PUSH1 0x20 DUP3 MUL DUP6 ADD PUSH2 0x3991 DUP6 PUSH2 0x38A9 JUMP JUMPDEST DUP1 PUSH1 0x0 JUMPDEST DUP6 DUP2 LT ISZERO PUSH2 0x39CD JUMPI DUP5 DUP5 SUB DUP10 MSTORE DUP2 MLOAD PUSH2 0x39AE DUP6 DUP3 PUSH2 0x3949 JUMP JUMPDEST SWAP5 POP PUSH2 0x39B9 DUP4 PUSH2 0x395D JUMP JUMPDEST SWAP3 POP PUSH1 0x20 DUP11 ADD SWAP10 POP POP PUSH1 0x1 DUP2 ADD SWAP1 POP PUSH2 0x3995 JUMP JUMPDEST POP DUP3 SWAP8 POP DUP8 SWAP6 POP POP POP POP POP POP SWAP3 SWAP2 POP POP JUMP JUMPDEST PUSH1 0x0 PUSH1 0x20 DUP3 ADD SWAP1 POP DUP2 DUP2 SUB PUSH1 0x0 DUP4 ADD MSTORE PUSH2 0x39F9 DUP2 DUP5 PUSH2 0x396A JUMP JUMPDEST SWAP1 POP SWAP3 SWAP2 POP POP JUMP JUMPDEST PUSH2 0x3A0A DUP2 PUSH2 0x3779 JUMP JUMPDEST DUP3 MSTORE POP POP JUMP JUMPDEST PUSH1 0x0 PUSH1 0x20 DUP3 ADD SWAP1 POP PUSH2 0x3A25 PUSH1 0x0 DUP4 ADD DUP5 PUSH2 0x3A01 JUMP JUMPDEST SWAP3 SWAP2 POP POP JUMP JUMPDEST PUSH1 0x0 DUP1 PUSH1 0x40 DUP4 DUP6 SUB SLT ISZERO PUSH2 0x3A42 JUMPI PUSH2 0x3A41 PUSH2 0x3739 JUMP JUMPDEST JUMPDEST PUSH1 0x0 PUSH2 0x3A50 DUP6 DUP3 DUP7 ADD PUSH2 0x3764 JUMP JUMPDEST SWAP3 POP POP PUSH1 0x20 PUSH2 0x3A61 DUP6 DUP3 DUP7 ADD PUSH2 0x379A JUMP JUMPDEST SWAP2 POP POP SWAP3 POP SWAP3 SWAP1 POP JUMP JUMPDEST PUSH1 0x0 DUP2 ISZERO ISZERO SWAP1 POP SWAP2 SWAP1 POP JUMP JUMPDEST PUSH2 0x3A80 DUP2 PUSH2 0x3A6B JUMP JUMPDEST DUP3 MSTORE POP POP JUMP JUMPDEST PUSH1 0x0 PUSH1 0x20 DUP3 ADD SWAP1 POP PUSH2 0x3A9B PUSH1 0x0 DUP4 ADD DUP5 PUSH2 0x3A77 JUMP JUMPDEST SWAP3 SWAP2 POP POP JUMP JUMPDEST PUSH1 0x0 DUP1 PUSH1 0x40 DUP4 DUP6 SUB SLT ISZERO PUSH2 0x3AB8 JUMPI PUSH2 0x3AB7 PUSH2 0x3739 JUMP JUMPDEST JUMPDEST PUSH1 0x0 PUSH2 0x3AC6 DUP6 DUP3 DUP7 ADD PUSH2 0x3764 JUMP JUMPDEST SWAP3 POP POP PUSH1 0x20 PUSH2 0x3AD7 DUP6 DUP3 DUP7 ADD PUSH2 0x3764 JUMP JUMPDEST SWAP2 POP POP SWAP3 POP SWAP3 SWAP1 POP JUMP JUMPDEST PUSH1 0x0 DUP2 MLOAD SWAP1 POP SWAP2 SWAP1 POP JUMP JUMPDEST PUSH1 0x0 DUP3 DUP3 MSTORE PUSH1 0x20 DUP3 ADD SWAP1 POP SWAP3 SWAP2 POP POP JUMP JUMPDEST PUSH1 0x0 DUP2 SWAP1 POP PUSH1 0x20 DUP3 ADD SWAP1 POP SWAP2 SWAP1 POP JUMP JUMPDEST PUSH2 0x3B16 DUP2 PUSH2 0x3A6B JUMP JUMPDEST DUP3 MSTORE POP POP JUMP JUMPDEST PUSH1 0x0 PUSH2 0x3B28 DUP4 DUP4 PUSH2 0x3B0D JUMP JUMPDEST PUSH1 0x20 DUP4 ADD SWAP1 POP SWAP3 SWAP2 POP POP JUMP JUMPDEST PUSH1 0x0 PUSH1 0x20 DUP3 ADD SWAP1 POP SWAP2 SWAP1 POP JUMP JUMPDEST PUSH1 0x0 PUSH2 0x3B4C DUP3 PUSH2 0x3AE1 JUMP JUMPDEST PUSH2 0x3B56 DUP2 DUP6 PUSH2 0x3AEC JUMP JUMPDEST SWAP4 POP PUSH2 0x3B61 DUP4 PUSH2 0x3AFD JUMP JUMPDEST DUP1 PUSH1 0x0 JUMPDEST DUP4 DUP2 LT ISZERO PUSH2 0x3B92 JUMPI DUP2 MLOAD PUSH2 0x3B79 DUP9 DUP3 PUSH2 0x3B1C JUMP JUMPDEST SWAP8 POP PUSH2 0x3B84 DUP4 PUSH2 0x3B34 JUMP JUMPDEST SWAP3 POP POP PUSH1 0x1 DUP2 ADD SWAP1 POP PUSH2 0x3B65 JUMP JUMPDEST POP DUP6 SWAP4 POP POP POP POP SWAP3 SWAP2 POP POP JUMP JUMPDEST PUSH1 0x0 PUSH1 0x20 DUP3 ADD SWAP1 POP DUP2 DUP2 SUB PUSH1 0x0 DUP4 ADD MSTORE PUSH2 0x3BB9 DUP2 DUP5 PUSH2 0x3B41 JUMP JUMPDEST SWAP1 POP SWAP3 SWAP2 POP POP JUMP JUMPDEST PUSH1 0x0 PUSH1 0x20 DUP3 DUP5 SUB SLT ISZERO PUSH2 0x3BD7 JUMPI PUSH2 0x3BD6 PUSH2 0x3739 JUMP JUMPDEST JUMPDEST PUSH1 0x0 PUSH2 0x3BE5 DUP5 DUP3 DUP6 ADD PUSH2 0x37F8 JUMP JUMPDEST SWAP2 POP POP SWAP3 SWAP2 POP POP JUMP JUMPDEST PUSH1 0x0 DUP2 SWAP1 POP SWAP2 SWAP1 POP JUMP JUMPDEST PUSH2 0x3C01 DUP2 PUSH2 0x3BEE JUMP JUMPDEST DUP2 EQ PUSH2 0x3C0C JUMPI PUSH1 0x0 DUP1 REVERT JUMPDEST POP JUMP JUMPDEST PUSH1 0x0 DUP2 CALLDATALOAD SWAP1 POP PUSH2 0x3C1E DUP2 PUSH2 0x3BF8 JUMP JUMPDEST SWAP3 SWAP2 POP POP JUMP JUMPDEST PUSH1 0x0 DUP1 PUSH1 0x40 DUP4 DUP6 SUB SLT ISZERO PUSH2 0x3C3B JUMPI PUSH2 0x3C3A PUSH2 0x3739 JUMP JUMPDEST JUMPDEST PUSH1 0x0 PUSH2 0x3C49 DUP6 DUP3 DUP7 ADD PUSH2 0x3764 JUMP JUMPDEST SWAP3 POP POP PUSH1 0x20 PUSH2 0x3C5A DUP6 DUP3 DUP7 ADD PUSH2 0x3C0F JUMP JUMPDEST SWAP2 POP POP SWAP3 POP SWAP3 SWAP1 POP JUMP JUMPDEST PUSH2 0x3C6D DUP2 PUSH2 0x37CF JUMP JUMPDEST DUP3 MSTORE POP POP JUMP JUMPDEST PUSH1 0x0 PUSH1 0x20 DUP3 ADD SWAP1 POP PUSH2 0x3C88 PUSH1 0x0 DUP4 ADD DUP5 PUSH2 0x3C64 JUMP JUMPDEST SWAP3 SWAP2 POP POP JUMP JUMPDEST PUSH1 0x0 DUP1 REVERT JUMPDEST PUSH1 0x0 DUP1 REVERT JUMPDEST PUSH32 0x4E487B7100000000000000000000000000000000000000000000000000000000 PUSH1 0x0 MSTORE PUSH1 0x41 PUSH1 0x4 MSTORE PUSH1 0x24 PUSH1 0x0 REVERT JUMPDEST PUSH2 0x3CD0 DUP3 PUSH2 0x38FF JUMP JUMPDEST DUP2 ADD DUP2 DUP2 LT PUSH8 0xFFFFFFFFFFFFFFFF DUP3 GT OR ISZERO PUSH2 0x3CEF JUMPI PUSH2 0x3CEE PUSH2 0x3C98 JUMP JUMPDEST JUMPDEST DUP1 PUSH1 0x40 MSTORE POP POP POP JUMP JUMPDEST PUSH1 0x0 PUSH2 0x3D02 PUSH2 0x372F JUMP JUMPDEST SWAP1 POP PUSH2 0x3D0E DUP3 DUP3 PUSH2 0x3CC7 JUMP JUMPDEST SWAP2 SWAP1 POP JUMP JUMPDEST PUSH1 0x0 PUSH8 0xFFFFFFFFFFFFFFFF DUP3 GT ISZERO PUSH2 0x3D2E JUMPI PUSH2 0x3D2D PUSH2 0x3C98 JUMP JUMPDEST JUMPDEST PUSH2 0x3D37 DUP3 PUSH2 0x38FF JUMP JUMPDEST SWAP1 POP PUSH1 0x20 DUP2 ADD SWAP1 POP SWAP2 SWAP1 POP JUMP JUMPDEST DUP3 DUP2 DUP4 CALLDATACOPY PUSH1 0x0 DUP4 DUP4 ADD MSTORE POP POP POP JUMP JUMPDEST PUSH1 0x0 PUSH2 0x3D66 PUSH2 0x3D61 DUP5 PUSH2 0x3D13 JUMP JUMPDEST PUSH2 0x3CF8 JUMP JUMPDEST SWAP1 POP DUP3 DUP2 MSTORE PUSH1 0x20 DUP2 ADD DUP5 DUP5 DUP5 ADD GT ISZERO PUSH2 0x3D82 JUMPI PUSH2 0x3D81 PUSH2 0x3C93 JUMP JUMPDEST JUMPDEST PUSH2 0x3D8D DUP5 DUP3 DUP6 PUSH2 0x3D44 JUMP JUMPDEST POP SWAP4 SWAP3 POP POP POP JUMP JUMPDEST PUSH1 0x0 DUP3 PUSH1 0x1F DUP4 ADD SLT PUSH2 0x3DAA JUMPI PUSH2 0x3DA9 PUSH2 0x3C8E JUMP JUMPDEST JUMPDEST DUP2 CALLDATALOAD PUSH2 0x3DBA DUP5 DUP3 PUSH1 0x20 DUP7 ADD PUSH2 0x3D53 JUMP JUMPDEST SWAP2 POP POP SWAP3 SWAP2 POP POP JUMP JUMPDEST PUSH1 0x0 DUP1 PUSH1 0x40 DUP4 DUP6 SUB SLT ISZERO PUSH2 0x3DDA JUMPI PUSH2 0x3DD9 PUSH2 0x3739 JUMP JUMPDEST JUMPDEST PUSH1 0x0 PUSH2 0x3DE8 DUP6 DUP3 DUP7 ADD PUSH2 0x3764 JUMP JUMPDEST SWAP3 POP POP PUSH1 0x20 DUP4 ADD CALLDATALOAD PUSH8 0xFFFFFFFFFFFFFFFF DUP2 GT ISZERO PUSH2 0x3E09 JUMPI PUSH2 0x3E08 PUSH2 0x373E JUMP JUMPDEST JUMPDEST PUSH2 0x3E15 DUP6 DUP3 DUP7 ADD PUSH2 0x3D95 JUMP JUMPDEST SWAP2 POP POP SWAP3 POP SWAP3 SWAP1 POP JUMP JUMPDEST PUSH2 0x3E28 DUP2 PUSH2 0x3A6B JUMP JUMPDEST DUP2 EQ PUSH2 0x3E33 JUMPI PUSH1 0x0 DUP1 REVERT JUMPDEST POP JUMP JUMPDEST PUSH1 0x0 DUP2 CALLDATALOAD SWAP1 POP PUSH2 0x3E45 DUP2 PUSH2 0x3E1F JUMP JUMPDEST SWAP3 SWAP2 POP POP JUMP JUMPDEST PUSH1 0x0 DUP1 PUSH1 0x0 PUSH1 0x60 DUP5 DUP7 SUB SLT ISZERO PUSH2 0x3E64 JUMPI PUSH2 0x3E63 PUSH2 0x3739 JUMP JUMPDEST JUMPDEST PUSH1 0x0 PUSH2 0x3E72 DUP7 DUP3 DUP8 ADD PUSH2 0x3764 JUMP JUMPDEST SWAP4 POP POP PUSH1 0x20 PUSH2 0x3E83 DUP7 DUP3 DUP8 ADD PUSH2 0x379A JUMP JUMPDEST SWAP3 POP POP PUSH1 0x40 PUSH2 0x3E94 DUP7 DUP3 DUP8 ADD PUSH2 0x3E36 JUMP JUMPDEST SWAP2 POP POP SWAP3 POP SWAP3 POP SWAP3 JUMP JUMPDEST PUSH1 0x0 DUP2 MLOAD SWAP1 POP SWAP2 SWAP1 POP JUMP JUMPDEST PUSH1 0x0 DUP3 DUP3 MSTORE PUSH1 0x20 DUP3 ADD SWAP1 POP SWAP3 SWAP2 POP POP JUMP JUMPDEST PUSH1 0x0 DUP2 SWAP1 POP PUSH1 0x20 DUP3 ADD SWAP1 POP SWAP2 SWAP1 POP JUMP JUMPDEST PUSH2 0x3ED3 DUP2 PUSH2 0x37CF JUMP JUMPDEST DUP3 MSTORE POP POP JUMP JUMPDEST PUSH1 0x0 PUSH2 0x3EE5 DUP4 DUP4 PUSH2 0x3ECA JUMP JUMPDEST PUSH1 0x20 DUP4 ADD SWAP1 POP SWAP3 SWAP2 POP POP JUMP JUMPDEST PUSH1 0x0 PUSH1 0x20 DUP3 ADD SWAP1 POP SWAP2 SWAP1 POP JUMP JUMPDEST PUSH1 0x0 PUSH2 0x3F09 DUP3 PUSH2 0x3E9E JUMP JUMPDEST PUSH2 0x3F13 DUP2 DUP6 PUSH2 0x3EA9 JUMP JUMPDEST SWAP4 POP PUSH2 0x3F1E DUP4 PUSH2 0x3EBA JUMP JUMPDEST DUP1 PUSH1 0x0 JUMPDEST DUP4 DUP2 LT ISZERO PUSH2 0x3F4F JUMPI DUP2 MLOAD PUSH2 0x3F36 DUP9 DUP3 PUSH2 0x3ED9 JUMP JUMPDEST SWAP8 POP PUSH2 0x3F41 DUP4 PUSH2 0x3EF1 JUMP JUMPDEST SWAP3 POP POP PUSH1 0x1 DUP2 ADD SWAP1 POP PUSH2 0x3F22 JUMP JUMPDEST POP DUP6 SWAP4 POP POP POP POP SWAP3 SWAP2 POP POP JUMP JUMPDEST PUSH1 0x0 PUSH1 0x20 DUP3 ADD SWAP1 POP DUP2 DUP2 SUB PUSH1 0x0 DUP4 ADD MSTORE PUSH2 0x3F76 DUP2 DUP5 PUSH2 0x3EFE JUMP JUMPDEST SWAP1 POP SWAP3 SWAP2 POP POP JUMP JUMPDEST PUSH1 0x0 DUP2 MLOAD SWAP1 POP SWAP2 SWAP1 POP JUMP JUMPDEST PUSH1 0x0 DUP3 DUP3 MSTORE PUSH1 0x20 DUP3 ADD SWAP1 POP SWAP3 SWAP2 POP POP JUMP JUMPDEST PUSH1 0x0 DUP2 SWAP1 POP PUSH1 0x20 DUP3 ADD SWAP1 POP SWAP2 SWAP1 POP JUMP JUMPDEST PUSH2 0x3FB3 DUP2 PUSH2 0x3779 JUMP JUMPDEST DUP3 MSTORE POP POP JUMP JUMPDEST PUSH1 0x0 PUSH2 0x3FC5 DUP4 DUP4 PUSH2 0x3FAA JUMP JUMPDEST PUSH1 0x20 DUP4 ADD SWAP1 POP SWAP3 SWAP2 POP POP JUMP JUMPDEST PUSH1 0x0 PUSH1 0x20 DUP3 ADD SWAP1 POP SWAP2 SWAP1 POP JUMP JUMPDEST PUSH1 0x0 PUSH2 0x3FE9 DUP3 PUSH2 0x3F7E JUMP JUMPDEST PUSH2 0x3FF3 DUP2 DUP6 PUSH2 0x3F89 JUMP JUMPDEST SWAP4 POP PUSH2 0x3FFE DUP4 PUSH2 0x3F9A JUMP JUMPDEST DUP1 PUSH1 0x0 JUMPDEST DUP4 DUP2 LT ISZERO PUSH2 0x402F JUMPI DUP2 MLOAD PUSH2 0x4016 DUP9 DUP3 PUSH2 0x3FB9 JUMP JUMPDEST SWAP8 POP PUSH2 0x4021 DUP4 PUSH2 0x3FD1 JUMP JUMPDEST SWAP3 POP POP PUSH1 0x1 DUP2 ADD SWAP1 POP PUSH2 0x4002 JUMP JUMPDEST POP DUP6 SWAP4 POP POP POP POP SWAP3 SWAP2 POP POP JUMP JUMPDEST PUSH1 0x0 PUSH1 0x20 DUP3 ADD SWAP1 POP DUP2 DUP2 SUB PUSH1 0x0 DUP4 ADD MSTORE PUSH2 0x4056 DUP2 DUP5 PUSH2 0x3FDE JUMP JUMPDEST SWAP1 POP SWAP3 SWAP2 POP POP JUMP JUMPDEST PUSH1 0x0 DUP3 DUP3 MSTORE PUSH1 0x20 DUP3 ADD SWAP1 POP SWAP3 SWAP2 POP POP JUMP JUMPDEST PUSH1 0x0 PUSH2 0x407A DUP3 PUSH2 0x38B9 JUMP JUMPDEST PUSH2 0x4084 DUP2 DUP6 PUSH2 0x405E JUMP JUMPDEST SWAP4 POP PUSH2 0x4094 DUP2 DUP6 PUSH1 0x20 DUP7 ADD PUSH2 0x38D5 JUMP JUMPDEST PUSH2 0x409D DUP2 PUSH2 0x38FF JUMP JUMPDEST DUP5 ADD SWAP2 POP POP SWAP3 SWAP2 POP POP JUMP JUMPDEST PUSH1 0x0 PUSH1 0x20 DUP3 ADD SWAP1 POP DUP2 DUP2 SUB PUSH1 0x0 DUP4 ADD MSTORE PUSH2 0x40C2 DUP2 DUP5 PUSH2 0x406F JUMP JUMPDEST SWAP1 POP SWAP3 SWAP2 POP POP JUMP JUMPDEST PUSH1 0x0 DUP1 PUSH1 0x40 DUP4 DUP6 SUB SLT ISZERO PUSH2 0x40E1 JUMPI PUSH2 0x40E0 PUSH2 0x3739 JUMP JUMPDEST JUMPDEST PUSH1 0x0 PUSH2 0x40EF DUP6 DUP3 DUP7 ADD PUSH2 0x3764 JUMP JUMPDEST SWAP3 POP POP PUSH1 0x20 PUSH2 0x4100 DUP6 DUP3 DUP7 ADD PUSH2 0x3E36 JUMP JUMPDEST SWAP2 POP POP SWAP3 POP SWAP3 SWAP1 POP JUMP JUMPDEST PUSH1 0x0 DUP2 MLOAD SWAP1 POP SWAP2 SWAP1 POP JUMP JUMPDEST PUSH1 0x0 DUP3 DUP3 MSTORE PUSH1 0x20 DUP3 ADD SWAP1 POP SWAP3 SWAP2 POP POP JUMP JUMPDEST PUSH1 0x0 DUP2 SWAP1 POP PUSH1 0x20 DUP3 ADD SWAP1 POP SWAP2 SWAP1 POP JUMP JUMPDEST PUSH2 0x413F DUP2 PUSH2 0x3BEE JUMP JUMPDEST DUP3 MSTORE POP POP JUMP JUMPDEST PUSH1 0x0 PUSH2 0x4151 DUP4 DUP4 PUSH2 0x4136 JUMP JUMPDEST PUSH1 0x20 DUP4 ADD SWAP1 POP SWAP3 SWAP2 POP POP JUMP JUMPDEST PUSH1 0x0 PUSH1 0x20 DUP3 ADD SWAP1 POP SWAP2 SWAP1 POP JUMP JUMPDEST PUSH1 0x0 PUSH2 0x4175 DUP3 PUSH2 0x410A JUMP JUMPDEST PUSH2 0x417F DUP2 DUP6 PUSH2 0x4115 JUMP JUMPDEST SWAP4 POP PUSH2 0x418A DUP4 PUSH2 0x4126 JUMP JUMPDEST DUP1 PUSH1 0x0 JUMPDEST DUP4 DUP2 LT ISZERO PUSH2 0x41BB JUMPI DUP2 MLOAD PUSH2 0x41A2 DUP9 DUP3 PUSH2 0x4145 JUMP JUMPDEST SWAP8 POP PUSH2 0x41AD DUP4 PUSH2 0x415D JUMP JUMPDEST SWAP3 POP POP PUSH1 0x1 DUP2 ADD SWAP1 POP PUSH2 0x418E JUMP JUMPDEST POP DUP6 SWAP4 POP POP POP POP SWAP3 SWAP2 POP POP JUMP JUMPDEST PUSH1 0x0 PUSH1 0x20 DUP3 ADD SWAP1 POP DUP2 DUP2 SUB PUSH1 0x0 DUP4 ADD MSTORE PUSH2 0x41E2 DUP2 DUP5 PUSH2 0x416A JUMP JUMPDEST SWAP1 POP SWAP3 SWAP2 POP POP JUMP JUMPDEST PUSH1 0x0 DUP1 PUSH1 0x0 PUSH1 0x60 DUP5 DUP7 SUB SLT ISZERO PUSH2 0x4203 JUMPI PUSH2 0x4202 PUSH2 0x3739 JUMP JUMPDEST JUMPDEST PUSH1 0x0 PUSH2 0x4211 DUP7 DUP3 DUP8 ADD PUSH2 0x3764 JUMP JUMPDEST SWAP4 POP POP PUSH1 0x20 PUSH2 0x4222 DUP7 DUP3 DUP8 ADD PUSH2 0x379A JUMP JUMPDEST SWAP3 POP POP PUSH1 0x40 PUSH2 0x4233 DUP7 DUP3 DUP8 ADD PUSH2 0x3C0F JUMP JUMPDEST SWAP2 POP POP SWAP3 POP SWAP3 POP SWAP3 JUMP JUMPDEST PUSH1 0x0 DUP1 PUSH1 0x0 PUSH1 0x60 DUP5 DUP7 SUB SLT ISZERO PUSH2 0x4256 JUMPI PUSH2 0x4255 PUSH2 0x3739 JUMP JUMPDEST JUMPDEST PUSH1 0x0 PUSH2 0x4264 DUP7 DUP3 DUP8 ADD PUSH2 0x3764 JUMP JUMPDEST SWAP4 POP POP PUSH1 0x20 PUSH2 0x4275 DUP7 DUP3 DUP8 ADD PUSH2 0x379A JUMP JUMPDEST SWAP3 POP POP PUSH1 0x40 DUP5 ADD CALLDATALOAD PUSH8 0xFFFFFFFFFFFFFFFF DUP2 GT ISZERO PUSH2 0x4296 JUMPI PUSH2 0x4295 PUSH2 0x373E JUMP JUMPDEST JUMPDEST PUSH2 0x42A2 DUP7 DUP3 DUP8 ADD PUSH2 0x3D95 JUMP JUMPDEST SWAP2 POP POP SWAP3 POP SWAP3 POP SWAP3 JUMP JUMPDEST PUSH2 0x42B5 DUP2 PUSH2 0x3743 JUMP JUMPDEST DUP3 MSTORE POP POP JUMP JUMPDEST PUSH1 0x0 PUSH1 0x20 DUP3 ADD SWAP1 POP PUSH2 0x42D0 PUSH1 0x0 DUP4 ADD DUP5 PUSH2 0x42AC JUMP JUMPDEST SWAP3 SWAP2 POP POP JUMP JUMPDEST PUSH1 0x0 DUP1 PUSH1 0x40 DUP4 DUP6 SUB SLT ISZERO PUSH2 0x42ED JUMPI PUSH2 0x42EC PUSH2 0x3739 JUMP JUMPDEST JUMPDEST PUSH1 0x0 PUSH2 0x42FB DUP6 DUP3 DUP7 ADD PUSH2 0x3764 JUMP JUMPDEST SWAP3 POP POP PUSH1 0x20 PUSH2 0x430C DUP6 DUP3 DUP7 ADD PUSH2 0x37F8 JUMP JUMPDEST SWAP2 POP POP SWAP3 POP SWAP3 SWAP1 POP JUMP JUMPDEST PUSH1 0x0 PUSH8 0xFFFFFFFFFFFFFFFF DUP3 GT ISZERO PUSH2 0x4331 JUMPI PUSH2 0x4330 PUSH2 0x3C98 JUMP JUMPDEST JUMPDEST PUSH2 0x433A DUP3 PUSH2 0x38FF JUMP JUMPDEST SWAP1 POP PUSH1 0x20 DUP2 ADD SWAP1 POP SWAP2 SWAP1 POP JUMP JUMPDEST PUSH1 0x0 PUSH2 0x435A PUSH2 0x4355 DUP5 PUSH2 0x4316 JUMP JUMPDEST PUSH2 0x3CF8 JUMP JUMPDEST SWAP1 POP DUP3 DUP2 MSTORE PUSH1 0x20 DUP2 ADD DUP5 DUP5 DUP5 ADD GT ISZERO PUSH2 0x4376 JUMPI PUSH2 0x4375 PUSH2 0x3C93 JUMP JUMPDEST JUMPDEST PUSH2 0x4381 DUP5 DUP3 DUP6 PUSH2 0x3D44 JUMP JUMPDEST POP SWAP4 SWAP3 POP POP POP JUMP JUMPDEST PUSH1 0x0 DUP3 PUSH1 0x1F DUP4 ADD SLT PUSH2 0x439E JUMPI PUSH2 0x439D PUSH2 0x3C8E JUMP JUMPDEST JUMPDEST DUP2 CALLDATALOAD PUSH2 0x43AE DUP5 DUP3 PUSH1 0x20 DUP7 ADD PUSH2 0x4347 JUMP JUMPDEST SWAP2 POP POP SWAP3 SWAP2 POP POP JUMP JUMPDEST PUSH1 0x0 DUP1 PUSH1 0x0 PUSH1 0x60 DUP5 DUP7 SUB SLT ISZERO PUSH2 0x43D0 JUMPI PUSH2 0x43CF PUSH2 0x3739 JUMP JUMPDEST JUMPDEST PUSH1 0x0 PUSH2 0x43DE DUP7 DUP3 DUP8 ADD PUSH2 0x3764 JUMP JUMPDEST SWAP4 POP POP PUSH1 0x20 PUSH2 0x43EF DUP7 DUP3 DUP8 ADD PUSH2 0x379A JUMP JUMPDEST SWAP3 POP POP PUSH1 0x40 DUP5 ADD CALLDATALOAD PUSH8 0xFFFFFFFFFFFFFFFF DUP2 GT ISZERO PUSH2 0x4410 JUMPI PUSH2 0x440F PUSH2 0x373E JUMP JUMPDEST JUMPDEST PUSH2 0x441C DUP7 DUP3 DUP8 ADD PUSH2 0x4389 JUMP JUMPDEST SWAP2 POP POP SWAP3 POP SWAP3 POP SWAP3 JUMP JUMPDEST PUSH1 0x0 DUP1 PUSH1 0x40 DUP4 DUP6 SUB SLT ISZERO PUSH2 0x443D JUMPI PUSH2 0x443C PUSH2 0x3739 JUMP JUMPDEST JUMPDEST PUSH1 0x0 PUSH2 0x444B DUP6 DUP3 DUP7 ADD PUSH2 0x3764 JUMP JUMPDEST SWAP3 POP POP PUSH1 0x20 DUP4 ADD CALLDATALOAD PUSH8 0xFFFFFFFFFFFFFFFF DUP2 GT ISZERO PUSH2 0x446C JUMPI PUSH2 0x446B PUSH2 0x373E JUMP JUMPDEST JUMPDEST PUSH2 0x4478 DUP6 DUP3 DUP7 ADD PUSH2 0x4389 JUMP JUMPDEST SWAP2 POP POP SWAP3 POP SWAP3 SWAP1 POP JUMP JUMPDEST PUSH1 0x0 DUP2 MLOAD SWAP1 POP SWAP2 SWAP1 POP JUMP JUMPDEST PUSH1 0x0 DUP3 DUP3 MSTORE PUSH1 0x20 DUP3 ADD SWAP1 POP SWAP3 SWAP2 POP POP JUMP JUMPDEST PUSH1 0x0 DUP2 SWAP1 POP PUSH1 0x20 DUP3 ADD SWAP1 POP SWAP2 SWAP1 POP JUMP JUMPDEST PUSH1 0x0 DUP2 MLOAD SWAP1 POP SWAP2 SWAP1 POP JUMP JUMPDEST PUSH1 0x0 DUP3 DUP3 MSTORE PUSH1 0x20 DUP3 ADD SWAP1 POP SWAP3 SWAP2 POP POP JUMP JUMPDEST PUSH1 0x0 PUSH2 0x44D5 DUP3 PUSH2 0x44AE JUMP JUMPDEST PUSH2 0x44DF DUP2 DUP6 PUSH2 0x44B9 JUMP JUMPDEST SWAP4 POP PUSH2 0x44EF DUP2 DUP6 PUSH1 0x20 DUP7 ADD PUSH2 0x38D5 JUMP JUMPDEST PUSH2 0x44F8 DUP2 PUSH2 0x38FF JUMP JUMPDEST DUP5 ADD SWAP2 POP POP SWAP3 SWAP2 POP POP JUMP JUMPDEST PUSH1 0x0 PUSH2 0x450F DUP4 DUP4 PUSH2 0x44CA JUMP JUMPDEST SWAP1 POP SWAP3 SWAP2 POP POP JUMP JUMPDEST PUSH1 0x0 PUSH1 0x20 DUP3 ADD SWAP1 POP SWAP2 SWAP1 POP JUMP JUMPDEST PUSH1 0x0 PUSH2 0x452F DUP3 PUSH2 0x4482 JUMP JUMPDEST PUSH2 0x4539 DUP2 DUP6 PUSH2 0x448D JUMP JUMPDEST SWAP4 POP DUP4 PUSH1 0x20 DUP3 MUL DUP6 ADD PUSH2 0x454B DUP6 PUSH2 0x449E JUMP JUMPDEST DUP1 PUSH1 0x0 JUMPDEST DUP6 DUP2 LT ISZERO PUSH2 0x4587 JUMPI DUP5 DUP5 SUB DUP10 MSTORE DUP2 MLOAD PUSH2 0x4568 DUP6 DUP3 PUSH2 0x4503 JUMP JUMPDEST SWAP5 POP PUSH2 0x4573 DUP4 PUSH2 0x4517 JUMP JUMPDEST SWAP3 POP PUSH1 0x20 DUP11 ADD SWAP10 POP POP PUSH1 0x1 DUP2 ADD SWAP1 POP PUSH2 0x454F JUMP JUMPDEST POP DUP3 SWAP8 POP DUP8 SWAP6 POP POP POP POP POP POP SWAP3 SWAP2 POP POP JUMP JUMPDEST PUSH1 0x0 PUSH1 0x20 DUP3 ADD SWAP1 POP DUP2 DUP2 SUB PUSH1 0x0 DUP4 ADD MSTORE PUSH2 0x45B3 DUP2 DUP5 PUSH2 0x4524 JUMP JUMPDEST SWAP1 POP SWAP3 SWAP2 POP POP JUMP JUMPDEST PUSH2 0x45C4 DUP2 PUSH2 0x3BEE JUMP JUMPDEST DUP3 MSTORE POP POP JUMP JUMPDEST PUSH1 0x0 PUSH1 0x20 DUP3 ADD SWAP1 POP PUSH2 0x45DF PUSH1 0x0 DUP4 ADD DUP5 PUSH2 0x45BB JUMP JUMPDEST SWAP3 SWAP2 POP POP JUMP JUMPDEST PUSH1 0x0 DUP1 PUSH1 0x0 PUSH1 0x60 DUP5 DUP7 SUB SLT ISZERO PUSH2 0x45FE JUMPI PUSH2 0x45FD PUSH2 0x3739 JUMP JUMPDEST JUMPDEST PUSH1 0x0 PUSH2 0x460C DUP7 DUP3 DUP8 ADD PUSH2 0x3764 JUMP JUMPDEST SWAP4 POP POP PUSH1 0x20 PUSH2 0x461D DUP7 DUP3 DUP8 ADD PUSH2 0x379A JUMP JUMPDEST SWAP3 POP POP PUSH1 0x40 PUSH2 0x462E DUP7 DUP3 DUP8 ADD PUSH2 0x3764 JUMP JUMPDEST SWAP2 POP POP SWAP3 POP SWAP3 POP SWAP3 JUMP JUMPDEST PUSH1 0x0 DUP1 PUSH1 0x0 PUSH1 0x60 DUP5 DUP7 SUB SLT ISZERO PUSH2 0x4651 JUMPI PUSH2 0x4650 PUSH2 0x3739 JUMP JUMPDEST JUMPDEST PUSH1 0x0 PUSH2 0x465F DUP7 DUP3 DUP8 ADD PUSH2 0x3764 JUMP JUMPDEST SWAP4 POP POP PUSH1 0x20 PUSH2 0x4670 DUP7 DUP3 DUP8 ADD PUSH2 0x379A JUMP JUMPDEST SWAP3 POP POP PUSH1 0x40 PUSH2 0x4681 DUP7 DUP3 DUP8 ADD PUSH2 0x379A JUMP JUMPDEST SWAP2 POP POP SWAP3 POP SWAP3 POP SWAP3 JUMP JUMPDEST PUSH1 0x0 DUP3 DUP3 MSTORE PUSH1 0x20 DUP3 ADD SWAP1 POP SWAP3 SWAP2 POP POP JUMP JUMPDEST PUSH1 0x0 PUSH2 0x46A7 DUP3 PUSH2 0x44AE JUMP JUMPDEST PUSH2 0x46B1 DUP2 DUP6 PUSH2 0x468B JUMP JUMPDEST SWAP4 POP PUSH2 0x46C1 DUP2 DUP6 PUSH1 0x20 DUP7 ADD PUSH2 0x38D5 JUMP JUMPDEST PUSH2 0x46CA DUP2 PUSH2 0x38FF JUMP JUMPDEST DUP5 ADD SWAP2 POP POP SWAP3 SWAP2 POP POP JUMP JUMPDEST PUSH1 0x0 PUSH1 0x20 DUP3 ADD SWAP1 POP DUP2 DUP2 SUB PUSH1 0x0 DUP4 ADD MSTORE PUSH2 0x46EF DUP2 DUP5 PUSH2 0x469C JUMP JUMPDEST SWAP1 POP SWAP3 SWAP2 POP POP JUMP JUMPDEST PUSH1 0x0 DUP2 MLOAD SWAP1 POP SWAP2 SWAP1 POP JUMP JUMPDEST PUSH1 0x0 DUP3 DUP3 MSTORE PUSH1 0x20 DUP3 ADD SWAP1 POP SWAP3 SWAP2 POP POP JUMP JUMPDEST PUSH1 0x0 DUP2 SWAP1 POP PUSH1 0x20 DUP3 ADD SWAP1 POP SWAP2 SWAP1 POP JUMP JUMPDEST PUSH2 0x472C DUP2 PUSH2 0x3743 JUMP JUMPDEST DUP3 MSTORE POP POP JUMP JUMPDEST PUSH1 0x0 PUSH2 0x473E DUP4 DUP4 PUSH2 0x4723 JUMP JUMPDEST PUSH1 0x20 DUP4 ADD SWAP1 POP SWAP3 SWAP2 POP POP JUMP JUMPDEST PUSH1 0x0 PUSH1 0x20 DUP3 ADD SWAP1 POP SWAP2 SWAP1 POP JUMP JUMPDEST PUSH1 0x0 PUSH2 0x4762 DUP3 PUSH2 0x46F7 JUMP JUMPDEST PUSH2 0x476C DUP2 DUP6 PUSH2 0x4702 JUMP JUMPDEST SWAP4 POP PUSH2 0x4777 DUP4 PUSH2 0x4713 JUMP JUMPDEST DUP1 PUSH1 0x0 JUMPDEST DUP4 DUP2 LT ISZERO PUSH2 0x47A8 JUMPI DUP2 MLOAD PUSH2 0x478F DUP9 DUP3 PUSH2 0x4732 JUMP JUMPDEST SWAP8 POP PUSH2 0x479A DUP4 PUSH2 0x474A JUMP JUMPDEST SWAP3 POP POP PUSH1 0x1 DUP2 ADD SWAP1 POP PUSH2 0x477B JUMP JUMPDEST POP DUP6 SWAP4 POP POP POP POP SWAP3 SWAP2 POP POP JUMP JUMPDEST PUSH1 0x0 PUSH1 0x20 DUP3 ADD SWAP1 POP DUP2 DUP2 SUB PUSH1 0x0 DUP4 ADD MSTORE PUSH2 0x47CF DUP2 DUP5 PUSH2 0x4757 JUMP JUMPDEST SWAP1 POP SWAP3 SWAP2 POP POP JUMP JUMPDEST PUSH32 0x4E487B7100000000000000000000000000000000000000000000000000000000 PUSH1 0x0 MSTORE PUSH1 0x32 PUSH1 0x4 MSTORE PUSH1 0x24 PUSH1 0x0 REVERT JUMPDEST PUSH32 0x4E487B7100000000000000000000000000000000000000000000000000000000 PUSH1 0x0 MSTORE PUSH1 0x22 PUSH1 0x4 MSTORE PUSH1 0x24 PUSH1 0x0 REVERT JUMPDEST PUSH1 0x0 PUSH1 0x2 DUP3 DIV SWAP1 POP PUSH1 0x1 DUP3 AND DUP1 PUSH2 0x484D JUMPI PUSH1 0x7F DUP3 AND SWAP2 POP JUMPDEST PUSH1 0x20 DUP3 LT DUP2 SUB PUSH2 0x4860 JUMPI PUSH2 0x485F PUSH2 0x4806 JUMP JUMPDEST JUMPDEST POP SWAP2 SWAP1 POP JUMP JUMPDEST PUSH32 0x5265706F7369746F72793A2063616E6E6F742072656D6F76652061646D696E20 PUSH1 0x0 DUP3 ADD MSTORE PUSH32 0x62656361757365206163636F756E74206973206E6F742061646D696E00000000 PUSH1 0x20 DUP3 ADD MSTORE POP JUMP JUMPDEST PUSH1 0x0 PUSH2 0x48C2 PUSH1 0x3C DUP4 PUSH2 0x405E JUMP JUMPDEST SWAP2 POP PUSH2 0x48CD DUP3 PUSH2 0x4866 JUMP JUMPDEST PUSH1 0x40 DUP3 ADD SWAP1 POP SWAP2 SWAP1 POP JUMP JUMPDEST PUSH1 0x0 PUSH1 0x20 DUP3 ADD SWAP1 POP DUP2 DUP2 SUB PUSH1 0x0 DUP4 ADD MSTORE PUSH2 0x48F1 DUP2 PUSH2 0x48B5 JUMP JUMPDEST SWAP1 POP SWAP2 SWAP1 POP JUMP JUMPDEST PUSH1 0x0 DUP2 SWAP1 POP DUP2 PUSH1 0x0 MSTORE PUSH1 0x20 PUSH1 0x0 KECCAK256 SWAP1 POP SWAP2 SWAP1 POP JUMP JUMPDEST PUSH1 0x0 PUSH1 0x20 PUSH1 0x1F DUP4 ADD DIV SWAP1 POP SWAP2 SWAP1 POP JUMP JUMPDEST PUSH1 0x0 DUP3 DUP3 SHL SWAP1 POP SWAP3 SWAP2 POP POP JUMP JUMPDEST PUSH1 0x0 PUSH1 0x8 DUP4 MUL PUSH2 0x495A PUSH32 0xFFFFFFFFFFFFFFFFFFFFFFFFFFFFFFFFFFFFFFFFFFFFFFFFFFFFFFFFFFFFFFFF DUP3 PUSH2 0x491D JUMP JUMPDEST PUSH2 0x4964 DUP7 DUP4 PUSH2 0x491D JUMP JUMPDEST SWAP6 POP DUP1 NOT DUP5 AND SWAP4 POP DUP1 DUP7 AND DUP5 OR SWAP3 POP POP POP SWAP4 SWAP3 POP POP POP JUMP JUMPDEST PUSH1 0x0 DUP2 SWAP1 POP SWAP2 SWAP1 POP JUMP JUMPDEST PUSH1 0x0 PUSH2 0x49A1 PUSH2 0x499C PUSH2 0x4997 DUP5 PUSH2 0x3779 JUMP JUMPDEST PUSH2 0x497C JUMP JUMPDEST PUSH2 0x3779 JUMP JUMPDEST SWAP1 POP SWAP2 SWAP1 POP JUMP JUMPDEST PUSH1 0x0 DUP2 SWAP1 POP SWAP2 SWAP1 POP JUMP JUMPDEST PUSH2 0x49BB DUP4 PUSH2 0x4986 JUMP JUMPDEST PUSH2 0x49CF PUSH2 0x49C7 DUP3 PUSH2 0x49A8 JUMP JUMPDEST DUP5 DUP5 SLOAD PUSH2 0x492A JUMP JUMPDEST DUP3 SSTORE POP POP POP POP JUMP JUMPDEST PUSH1 0x0 SWAP1 JUMP JUMPDEST PUSH2 0x49E4 PUSH2 0x49D7 JUMP JUMPDEST PUSH2 0x49EF DUP2 DUP5 DUP5 PUSH2 0x49B2 JUMP JUMPDEST POP POP POP JUMP JUMPDEST JUMPDEST DUP2 DUP2 LT ISZERO PUSH2 0x4A13 JUMPI PUSH2 0x4A08 PUSH1 0x0 DUP3 PUSH2 0x49DC JUMP JUMPDEST PUSH1 0x1 DUP2 ADD SWAP1 POP PUSH2 0x49F5 JUMP JUMPDEST POP POP JUMP JUMPDEST PUSH1 0x1F DUP3 GT ISZERO PUSH2 0x4A58 JUMPI PUSH2 0x4A29 DUP2 PUSH2 0x48F8 JUMP JUMPDEST PUSH2 0x4A32 DUP5 PUSH2 0x490D JUMP JUMPDEST DUP2 ADD PUSH1 0x20 DUP6 LT ISZERO PUSH2 0x4A41 JUMPI DUP2 SWAP1 POP JUMPDEST PUSH2 0x4A55 PUSH2 0x4A4D DUP6 PUSH2 0x490D JUMP JUMPDEST DUP4 ADD DUP3 PUSH2 0x49F4 JUMP JUMPDEST POP POP JUMPDEST POP POP POP JUMP JUMPDEST PUSH1 0x0 DUP3 DUP3 SHR SWAP1 POP SWAP3 SWAP2 POP POP JUMP JUMPDEST PUSH1 0x0 PUSH2 0x4A7B PUSH1 0x0 NOT DUP5 PUSH1 0x8 MUL PUSH2 0x4A5D JUMP JUMPDEST NOT DUP1 DUP4 AND SWAP2 POP POP SWAP3 SWAP2 POP POP JUMP JUMPDEST PUSH1 0x0 PUSH2 0x4A94 DUP4 DUP4 PUSH2 0x4A6A JUMP JUMPDEST SWAP2 POP DUP3 PUSH1 0x2 MUL DUP3 OR SWAP1 POP SWAP3 SWAP2 POP POP JUMP JUMPDEST PUSH2 0x4AAD DUP3 PUSH2 0x44AE JUMP JUMPDEST PUSH8 0xFFFFFFFFFFFFFFFF DUP2 GT ISZERO PUSH2 0x4AC6 JUMPI PUSH2 0x4AC5 PUSH2 0x3C98 JUMP JUMPDEST JUMPDEST PUSH2 0x4AD0 DUP3 SLOAD PUSH2 0x4835 JUMP JUMPDEST PUSH2 0x4ADB DUP3 DUP3 DUP6 PUSH2 0x4A17 JUMP JUMPDEST PUSH1 0x0 PUSH1 0x20 SWAP1 POP PUSH1 0x1F DUP4 GT PUSH1 0x1 DUP2 EQ PUSH2 0x4B0E JUMPI PUSH1 0x0 DUP5 ISZERO PUSH2 0x4AFC JUMPI DUP3 DUP8 ADD MLOAD SWAP1 POP JUMPDEST PUSH2 0x4B06 DUP6 DUP3 PUSH2 0x4A88 JUMP JUMPDEST DUP7 SSTORE POP PUSH2 0x4B6E JUMP JUMPDEST PUSH1 0x1F NOT DUP5 AND PUSH2 0x4B1C DUP7 PUSH2 0x48F8 JUMP JUMPDEST PUSH1 0x0 JUMPDEST DUP3 DUP2 LT ISZERO PUSH2 0x4B44 JUMPI DUP5 DUP10 ADD MLOAD DUP3 SSTORE PUSH1 0x1 DUP3 ADD SWAP2 POP PUSH1 0x20 DUP6 ADD SWAP5 POP PUSH1 0x20 DUP2 ADD SWAP1 POP PUSH2 0x4B1F JUMP JUMPDEST DUP7 DUP4 LT ISZERO PUSH2 0x4B61 JUMPI DUP5 DUP10 ADD MLOAD PUSH2 0x4B5D PUSH1 0x1F DUP10 AND DUP3 PUSH2 0x4A6A JUMP JUMPDEST DUP4 SSTORE POP JUMPDEST PUSH1 0x1 PUSH1 0x2 DUP9 MUL ADD DUP9 SSTORE POP POP POP JUMPDEST POP POP POP POP POP POP JUMP JUMPDEST PUSH1 0x0 DUP2 SWAP1 POP SWAP3 SWAP2 POP POP JUMP JUMPDEST PUSH1 0x0 PUSH2 0x4B8C DUP3 PUSH2 0x44AE JUMP JUMPDEST PUSH2 0x4B96 DUP2 DUP6 PUSH2 0x4B76 JUMP JUMPDEST SWAP4 POP PUSH2 0x4BA6 DUP2 DUP6 PUSH1 0x20 DUP7 ADD PUSH2 0x38D5 JUMP JUMPDEST DUP1 DUP5 ADD SWAP2 POP POP SWAP3 SWAP2 POP POP JUMP JUMPDEST PUSH1 0x0 PUSH2 0x4BBE DUP3 DUP5 PUSH2 0x4B81 JUMP JUMPDEST SWAP2 POP DUP2 SWAP1 POP SWAP3 SWAP2 POP POP JUMP JUMPDEST PUSH1 0x0 DUP2 SWAP1 POP DUP2 PUSH1 0x0 MSTORE PUSH1 0x20 PUSH1 0x0 KECCAK256 SWAP1 POP SWAP2 SWAP1 POP JUMP JUMPDEST PUSH1 0x1F DUP3 GT ISZERO PUSH2 0x4C1F JUMPI PUSH2 0x4BF0 DUP2 PUSH2 0x4BC9 JUMP JUMPDEST PUSH2 0x4BF9 DUP5 PUSH2 0x490D JUMP JUMPDEST DUP2 ADD PUSH1 0x20 DUP6 LT ISZERO PUSH2 0x4C08 JUMPI DUP2 SWAP1 POP JUMPDEST PUSH2 0x4C1C PUSH2 0x4C14 DUP6 PUSH2 0x490D JUMP JUMPDEST DUP4 ADD DUP3 PUSH2 0x49F4 JUMP JUMPDEST POP POP JUMPDEST POP POP POP JUMP JUMPDEST PUSH2 0x4C2D DUP3 PUSH2 0x38B9 JUMP JUMPDEST PUSH8 0xFFFFFFFFFFFFFFFF DUP2 GT ISZERO PUSH2 0x4C46 JUMPI PUSH2 0x4C45 PUSH2 0x3C98 JUMP JUMPDEST JUMPDEST PUSH2 0x4C50 DUP3 SLOAD PUSH2 0x4835 JUMP JUMPDEST PUSH2 0x4C5B DUP3 DUP3 DUP6 PUSH2 0x4BDE JUMP JUMPDEST PUSH1 0x0 PUSH1 0x20 SWAP1 POP PUSH1 0x1F DUP4 GT PUSH1 0x1 DUP2 EQ PUSH2 0x4C8E JUMPI PUSH1 0x0 DUP5 ISZERO PUSH2 0x4C7C JUMPI DUP3 DUP8 ADD MLOAD SWAP1 POP JUMPDEST PUSH2 0x4C86 DUP6 DUP3 PUSH2 0x4A88 JUMP JUMPDEST DUP7 SSTORE POP PUSH2 0x4CEE JUMP JUMPDEST PUSH1 0x1F NOT DUP5 AND PUSH2 0x4C9C DUP7 PUSH2 0x4BC9 JUMP JUMPDEST PUSH1 0x0 JUMPDEST DUP3 DUP2 LT ISZERO PUSH2 0x4CC4 JUMPI DUP5 DUP10 ADD MLOAD DUP3 SSTORE PUSH1 0x1 DUP3 ADD SWAP2 POP PUSH1 0x20 DUP6 ADD SWAP5 POP PUSH1 0x20 DUP2 ADD SWAP1 POP PUSH2 0x4C9F JUMP JUMPDEST DUP7 DUP4 LT ISZERO PUSH2 0x4CE1 JUMPI DUP5 DUP10 ADD MLOAD PUSH2 0x4CDD PUSH1 0x1F DUP10 AND DUP3 PUSH2 0x4A6A JUMP JUMPDEST DUP4 SSTORE POP JUMPDEST PUSH1 0x1 PUSH1 0x2 DUP9 MUL ADD DUP9 SSTORE POP POP POP JUMPDEST POP POP POP POP POP POP JUMP JUMPDEST PUSH1 0x0 DUP2 SWAP1 POP SWAP3 SWAP2 POP POP JUMP JUMPDEST PUSH1 0x0 PUSH2 0x4D0C DUP3 PUSH2 0x38B9 JUMP JUMPDEST PUSH2 0x4D16 DUP2 DUP6 PUSH2 0x4CF6 JUMP JUMPDEST SWAP4 POP PUSH2 0x4D26 DUP2 DUP6 PUSH1 0x20 DUP7 ADD PUSH2 0x38D5 JUMP JUMPDEST DUP1 DUP5 ADD SWAP2 POP POP SWAP3 SWAP2 POP POP JUMP JUMPDEST PUSH1 0x0 PUSH2 0x4D3E DUP3 DUP5 PUSH2 0x4D01 JUMP JUMPDEST SWAP2 POP DUP2 SWAP1 POP SWAP3 SWAP2 POP POP JUMP JUMPDEST PUSH32 0x5265706F7369746F72793A2063616E6E6F742072656D6F7665206C6F67696320 PUSH1 0x0 DUP3 ADD MSTORE PUSH32 0x62656361757365206163636F756E74206973206E6F74206C6F67696300000000 PUSH1 0x20 DUP3 ADD MSTORE POP JUMP JUMPDEST PUSH1 0x0 PUSH2 0x4DA5 PUSH1 0x3C DUP4 PUSH2 0x405E JUMP JUMPDEST SWAP2 POP PUSH2 0x4DB0 DUP3 PUSH2 0x4D49 JUMP JUMPDEST PUSH1 0x40 DUP3 ADD SWAP1 POP SWAP2 SWAP1 POP JUMP JUMPDEST PUSH1 0x0 PUSH1 0x20 DUP3 ADD SWAP1 POP DUP2 DUP2 SUB PUSH1 0x0 DUP4 ADD MSTORE PUSH2 0x4DD4 DUP2 PUSH2 0x4D98 JUMP JUMPDEST SWAP1 POP SWAP2 SWAP1 POP JUMP JUMPDEST PUSH32 0x5265706F7369746F72793A2063616E6E6F74206164642061646D696E20626563 PUSH1 0x0 DUP3 ADD MSTORE PUSH32 0x61757365206163636F756E742069732061646472657373207A65726F00000000 PUSH1 0x20 DUP3 ADD MSTORE POP JUMP JUMPDEST PUSH1 0x0 PUSH2 0x4E37 PUSH1 0x3C DUP4 PUSH2 0x405E JUMP JUMPDEST SWAP2 POP PUSH2 0x4E42 DUP3 PUSH2 0x4DDB JUMP JUMPDEST PUSH1 0x40 DUP3 ADD SWAP1 POP SWAP2 SWAP1 POP JUMP JUMPDEST PUSH1 0x0 PUSH1 0x20 DUP3 ADD SWAP1 POP DUP2 DUP2 SUB PUSH1 0x0 DUP4 ADD MSTORE PUSH2 0x4E66 DUP2 PUSH2 0x4E2A JUMP JUMPDEST SWAP1 POP SWAP2 SWAP1 POP JUMP JUMPDEST PUSH32 0x5265706F7369746F72793A2063616E6E6F74206164642061646D696E20626563 PUSH1 0x0 DUP3 ADD MSTORE PUSH32 0x61757365206163636F756E7420697320616C72656164792061646D696E000000 PUSH1 0x20 DUP3 ADD MSTORE POP JUMP JUMPDEST PUSH1 0x0 PUSH2 0x4EC9 PUSH1 0x3D DUP4 PUSH2 0x405E JUMP JUMPDEST SWAP2 POP PUSH2 0x4ED4 DUP3 PUSH2 0x4E6D JUMP JUMPDEST PUSH1 0x40 DUP3 ADD SWAP1 POP SWAP2 SWAP1 POP JUMP JUMPDEST PUSH1 0x0 PUSH1 0x20 DUP3 ADD SWAP1 POP DUP2 DUP2 SUB PUSH1 0x0 DUP4 ADD MSTORE PUSH2 0x4EF8 DUP2 PUSH2 0x4EBC JUMP JUMPDEST SWAP1 POP SWAP2 SWAP1 POP JUMP JUMPDEST PUSH32 0x5265706F7369746F72793A2063616E6E6F74206164642061646D696E20626563 PUSH1 0x0 DUP3 ADD MSTORE PUSH32 0x61757365206163636F756E74206973206C6F6769630000000000000000000000 PUSH1 0x20 DUP3 ADD MSTORE POP JUMP JUMPDEST PUSH1 0x0 PUSH2 0x4F5B PUSH1 0x35 DUP4 PUSH2 0x405E JUMP JUMPDEST SWAP2 POP PUSH2 0x4F66 DUP3 PUSH2 0x4EFF JUMP JUMPDEST PUSH1 0x40 DUP3 ADD SWAP1 POP SWAP2 SWAP1 POP JUMP JUMPDEST PUSH1 0x0 PUSH1 0x20 DUP3 ADD SWAP1 POP DUP2 DUP2 SUB PUSH1 0x0 DUP4 ADD MSTORE PUSH2 0x4F8A DUP2 PUSH2 0x4F4E JUMP JUMPDEST SWAP1 POP SWAP2 SWAP1 POP JUMP JUMPDEST PUSH32 0x5265706F7369746F72793A2063616E6E6F7420616464206C6F67696320626563 PUSH1 0x0 DUP3 ADD MSTORE PUSH32 0x61757365206163636F756E742069732061646472657373207A65726F00000000 PUSH1 0x20 DUP3 ADD MSTORE POP JUMP JUMPDEST PUSH1 0x0 PUSH2 0x4FED PUSH1 0x3C DUP4 PUSH2 0x405E JUMP JUMPDEST SWAP2 POP PUSH2 0x4FF8 DUP3 PUSH2 0x4F91 JUMP JUMPDEST PUSH1 0x40 DUP3 ADD SWAP1 POP SWAP2 SWAP1 POP JUMP JUMPDEST PUSH1 0x0 PUSH1 0x20 DUP3 ADD SWAP1 POP DUP2 DUP2 SUB PUSH1 0x0 DUP4 ADD MSTORE PUSH2 0x501C DUP2 PUSH2 0x4FE0 JUMP JUMPDEST SWAP1 POP SWAP2 SWAP1 POP JUMP JUMPDEST PUSH32 0x5265706F7369746F72793A2063616E6E6F7420616464206C6F67696320626563 PUSH1 0x0 DUP3 ADD MSTORE PUSH32 0x61757365206163636F756E7420697320616C7265616479206C6F676963000000 PUSH1 0x20 DUP3 ADD MSTORE POP JUMP JUMPDEST PUSH1 0x0 PUSH2 0x507F PUSH1 0x3D DUP4 PUSH2 0x405E JUMP JUMPDEST SWAP2 POP PUSH2 0x508A DUP3 PUSH2 0x5023 JUMP JUMPDEST PUSH1 0x40 DUP3 ADD SWAP1 POP SWAP2 SWAP1 POP JUMP JUMPDEST PUSH1 0x0 PUSH1 0x20 DUP3 ADD SWAP1 POP DUP2 DUP2 SUB PUSH1 0x0 DUP4 ADD MSTORE PUSH2 0x50AE DUP2 PUSH2 0x5072 JUMP JUMPDEST SWAP1 POP SWAP2 SWAP1 POP JUMP JUMPDEST PUSH32 0x5265706F7369746F72793A2063616E6E6F7420616464206C6F67696320626563 PUSH1 0x0 DUP3 ADD MSTORE PUSH32 0x61757365206163636F756E742069732061646D696E0000000000000000000000 PUSH1 0x20 DUP3 ADD MSTORE POP JUMP JUMPDEST PUSH1 0x0 PUSH2 0x5111 PUSH1 0x35 DUP4 PUSH2 0x405E JUMP JUMPDEST SWAP2 POP PUSH2 0x511C DUP3 PUSH2 0x50B5 JUMP JUMPDEST PUSH1 0x40 DUP3 ADD SWAP1 POP SWAP2 SWAP1 POP JUMP JUMPDEST PUSH1 0x0 PUSH1 0x20 DUP3 ADD SWAP1 POP DUP2 DUP2 SUB PUSH1 0x0 DUP4 ADD MSTORE PUSH2 0x5140 DUP2 PUSH2 0x5104 JUMP JUMPDEST SWAP1 POP SWAP2 SWAP1 POP JUMP JUMPDEST PUSH32 0x5265706F7369746F72793A206D73672E73656E64657220213D206C6F67696300 PUSH1 0x0 DUP3 ADD MSTORE POP JUMP JUMPDEST PUSH1 0x0 PUSH2 0x517D PUSH1 0x1F DUP4 PUSH2 0x405E JUMP JUMPDEST SWAP2 POP PUSH2 0x5188 DUP3 PUSH2 0x5147 JUMP JUMPDEST PUSH1 0x20 DUP3 ADD SWAP1 POP SWAP2 SWAP1 POP JUMP JUMPDEST PUSH1 0x0 PUSH1 0x20 DUP3 ADD SWAP1 POP DUP2 DUP2 SUB PUSH1 0x0 DUP4 ADD MSTORE PUSH2 0x51AC DUP2 PUSH2 0x5170 JUMP JUMPDEST SWAP1 POP SWAP2 SWAP1 POP JUMP JUMPDEST PUSH32 0x5265706F7369746F72793A206D73672E73656E64657220213D2061646D696E00 PUSH1 0x0 DUP3 ADD MSTORE POP JUMP JUMPDEST PUSH1 0x0 PUSH2 0x51E9 PUSH1 0x1F DUP4 PUSH2 0x405E JUMP JUMPDEST SWAP2 POP PUSH2 0x51F4 DUP3 PUSH2 0x51B3 JUMP JUMPDEST PUSH1 0x20 DUP3 ADD SWAP1 POP SWAP2 SWAP1 POP JUMP JUMPDEST PUSH1 0x0 PUSH1 0x20 DUP3 ADD SWAP1 POP DUP2 DUP2 SUB PUSH1 0x0 DUP4 ADD MSTORE PUSH2 0x5218 DUP2 PUSH2 0x51DC JUMP JUMPDEST SWAP1 POP SWAP2 SWAP1 POP JUMP JUMPDEST PUSH32 0x4E487B7100000000000000000000000000000000000000000000000000000000 PUSH1 0x0 MSTORE PUSH1 0x11 PUSH1 0x4 MSTORE PUSH1 0x24 PUSH1 0x0 REVERT JUMPDEST PUSH1 0x0 PUSH2 0x5259 DUP3 PUSH2 0x3779 JUMP JUMPDEST SWAP2 POP PUSH2 0x5264 DUP4 PUSH2 0x3779 JUMP JUMPDEST SWAP3 POP DUP3 DUP3 SUB SWAP1 POP DUP2 DUP2 GT ISZERO PUSH2 0x527C JUMPI PUSH2 0x527B PUSH2 0x521F JUMP JUMPDEST JUMPDEST SWAP3 SWAP2 POP POP JUMP JUMPDEST PUSH32 0x4E487B7100000000000000000000000000000000000000000000000000000000 PUSH1 0x0 MSTORE PUSH1 0x31 PUSH1 0x4 MSTORE PUSH1 0x24 PUSH1 0x0 REVERT INVALID LOG2 PUSH5 0x6970667358 0x22 SLT KECCAK256 DUP4 0xD1 0xC8 0x24 0x4C 0xEF 0xD5 0x5C 0xA9 0xE4 MSIZE MULMOD CALLER PUSH2 0xDC26 0xD6 SLT 0x4E 0xF8 PUSH26 0x2A93629B1A9A5CF2AF897664736F6C6343000813003300000000 "
		},
		"gasEstimates": {
			"creation": {
				"codeDepositCost": "4244600",
				"executionCost": "infinite",
				"totalCost": "infinite"
			},
			"external": {
				"addAddressSet(bytes32,address)": "infinite",
				"addAdmin(address)": "infinite",
				"addBytes32Set(bytes32,bytes32)": "infinite",
				"addLogic(address)": "infinite",
				"addUintSet(bytes32,uint256)": "infinite",
				"addressSetContains(bytes32,address)": "infinite",
				"bytes32SetContains(bytes32,bytes32)": "infinite",
				"deleteAddressArray(bytes32)": "infinite",
				"deleteBoolArray(bytes32)": "infinite",
				"deleteBytes32Array(bytes32)": "infinite",
				"deleteBytesArray(bytes32)": "infinite",
				"deleteIntArray(bytes32)": "infinite",
				"deleteStringArray(bytes32)": "infinite",
				"deleteUintArray(bytes32)": "infinite",
				"getAddress(bytes32)": "2934",
				"getAddressArray(bytes32)": "infinite",
				"getAddressSet(bytes32)": "infinite",
				"getAdmins()": "infinite",
				"getBool(bytes32)": "2890",
				"getBoolArray(bytes32)": "infinite",
				"getBytes(bytes32)": "infinite",
				"getBytes32(bytes32)": "infinite",
				"getBytes32Array(bytes32)": "infinite",
				"getBytes32Set(bytes32)": "infinite",
				"getBytesArray(bytes32)": "infinite",
				"getIndexedAddressArray(bytes32,uint256)": "5308",
				"getIndexedAddressSet(bytes32,uint256)": "infinite",
				"getIndexedBoolArray(bytes32,uint256)": "6939",
				"getIndexedBytes32Array(bytes32,uint256)": "infinite",
				"getIndexedBytes32Set(bytes32,uint256)": "infinite",
				"getIndexedBytesArray(bytes32,uint256)": "infinite",
				"getIndexedIntArray(bytes32,uint256)": "5245",
				"getIndexedStringArray(bytes32,uint256)": "infinite",
				"getIndexedUintArray(bytes32,uint256)": "infinite",
				"getIndexedUintSet(bytes32,uint256)": "infinite",
				"getInt(bytes32)": "2891",
				"getIntArray(bytes32)": "infinite",
				"getLengthAddressArray(bytes32)": "2942",
				"getLengthAddressSet(bytes32)": "3019",
				"getLengthBoolArray(bytes32)": "2902",
				"getLengthBytes32Array(bytes32)": "2922",
				"getLengthBytes32Set(bytes32)": "3042",
				"getLengthBytesArray(bytes32)": "2878",
				"getLengthIntArray(bytes32)": "2946",
				"getLengthStringArray(bytes32)": "2856",
				"getLengthUintArray(bytes32)": "2856",
				"getLengthUintSet(bytes32)": "3042",
				"getLogics()": "infinite",
				"getString(bytes32)": "infinite",
				"getStringArray(bytes32)": "infinite",
				"getUint(bytes32)": "2936",
				"getUintArray(bytes32)": "infinite",
				"getUintSet(bytes32)": "infinite",
				"pushAddressArray(bytes32,address)": "infinite",
				"pushBoolArray(bytes32,bool)": "infinite",
				"pushBytes32Array(bytes32,bytes32)": "infinite",
				"pushBytesArray(bytes32,bytes)": "infinite",
				"pushIntArray(bytes32,int256)": "infinite",
				"pushStringArray(bytes32,string)": "infinite",
				"pushUintArray(bytes32,uint256)": "infinite",
				"removeAddressSet(bytes32,address)": "infinite",
				"removeAdmin(address)": "infinite",
				"removeBytes32Set(bytes32,bytes32)": "infinite",
				"removeLogic(address)": "infinite",
				"removeUintSet(bytes32,uint256)": "infinite",
				"setAddress(bytes32,address)": "infinite",
				"setAddressArray(bytes32,uint256,address)": "infinite",
				"setBool(bytes32,bool)": "infinite",
				"setBoolArray(bytes32,uint256,bool)": "infinite",
				"setBytes(bytes32,bytes)": "infinite",
				"setBytes32(bytes32,bytes32)": "infinite",
				"setBytes32Array(bytes32,uint256,bytes32)": "infinite",
				"setBytesArray(bytes32,uint256,bytes)": "infinite",
				"setInt(bytes32,int256)": "infinite",
				"setIntArray(bytes32,uint256,int256)": "infinite",
				"setString(bytes32,string)": "infinite",
				"setStringArray(bytes32,uint256,string)": "infinite",
				"setUint(bytes32,uint256)": "infinite",
				"setUintArray(bytes32,uint256,uint256)": "infinite",
				"uintSetContains(bytes32,uint256)": "infinite"
			},
			"internal": {
				"_onlyAdmin()": "infinite",
				"_onlyLogic()": "infinite"
			}
		},
		"methodIdentifiers": {
			"addAddressSet(bytes32,address)": "4371ee56",
			"addAdmin(address)": "70480275",
			"addBytes32Set(bytes32,bytes32)": "345257e3",
			"addLogic(address)": "79ef704e",
			"addUintSet(bytes32,uint256)": "6290ef30",
			"addressSetContains(bytes32,address)": "bac32013",
			"bytes32SetContains(bytes32,bytes32)": "0a030ced",
			"deleteAddressArray(bytes32)": "5beff993",
			"deleteBoolArray(bytes32)": "27f2bc11",
			"deleteBytes32Array(bytes32)": "52164cc1",
			"deleteBytesArray(bytes32)": "d6401653",
			"deleteIntArray(bytes32)": "ea192006",
			"deleteStringArray(bytes32)": "396d044c",
			"deleteUintArray(bytes32)": "76608f40",
			"getAddress(bytes32)": "21f8a721",
			"getAddressArray(bytes32)": "5948f733",
			"getAddressSet(bytes32)": "2c58facc",
			"getAdmins()": "31ae450b",
			"getBool(bytes32)": "7ae1cfca",
			"getBoolArray(bytes32)": "116bb929",
			"getBytes(bytes32)": "c031a180",
			"getBytes32(bytes32)": "a6ed563e",
			"getBytes32Array(bytes32)": "dd031997",
			"getBytes32Set(bytes32)": "d900ffb2",
			"getBytesArray(bytes32)": "8db0e83b",
			"getIndexedAddressArray(bytes32,uint256)": "a0d8bc5e",
			"getIndexedAddressSet(bytes32,uint256)": "6ab3b2ff",
			"getIndexedBoolArray(bytes32,uint256)": "03d14efc",
			"getIndexedBytes32Array(bytes32,uint256)": "71d92a01",
			"getIndexedBytes32Set(bytes32,uint256)": "3a7979c9",
			"getIndexedBytesArray(bytes32,uint256)": "ed010d41",
			"getIndexedIntArray(bytes32,uint256)": "a1a7fa44",
			"getIndexedStringArray(bytes32,uint256)": "2ad9450d",
			"getIndexedUintArray(bytes32,uint256)": "c50359e5",
			"getIndexedUintSet(bytes32,uint256)": "eac954c7",
			"getInt(bytes32)": "dc97d962",
			"getIntArray(bytes32)": "2d2899b6",
			"getLengthAddressArray(bytes32)": "fc0e8107",
			"getLengthAddressSet(bytes32)": "cc2a29e2",
			"getLengthBoolArray(bytes32)": "033d069a",
			"getLengthBytes32Array(bytes32)": "bb6eecad",
			"getLengthBytes32Set(bytes32)": "4077e72d",
			"getLengthBytesArray(bytes32)": "b784f208",
			"getLengthIntArray(bytes32)": "04375949",
			"getLengthStringArray(bytes32)": "357ed225",
			"getLengthUintArray(bytes32)": "9e29a54b",
			"getLengthUintSet(bytes32)": "a4fc57b9",
			"getLogics()": "26fab5e0",
			"getString(bytes32)": "986e791a",
			"getStringArray(bytes32)": "01677da2",
			"getUint(bytes32)": "bd02d0f5",
			"getUintArray(bytes32)": "86ac6bdf",
			"getUintSet(bytes32)": "28a03356",
			"pushAddressArray(bytes32,address)": "dd151d1e",
			"pushBoolArray(bytes32,bool)": "2c545cca",
			"pushBytes32Array(bytes32,bytes32)": "b27e4328",
			"pushBytesArray(bytes32,bytes)": "24831c48",
			"pushIntArray(bytes32,int256)": "1b929940",
			"pushStringArray(bytes32,string)": "a235b5ca",
			"pushUintArray(bytes32,uint256)": "72a9b6c5",
			"removeAddressSet(bytes32,address)": "8e4a48c5",
			"removeAdmin(address)": "1785f53c",
			"removeBytes32Set(bytes32,bytes32)": "ccc9fc77",
			"removeLogic(address)": "4ac79795",
			"removeUintSet(bytes32,uint256)": "1cdffca9",
			"setAddress(bytes32,address)": "ca446dd9",
			"setAddressArray(bytes32,uint256,address)": "00d10c16",
			"setBool(bytes32,bool)": "abfdcced",
			"setBoolArray(bytes32,uint256,bool)": "262faddf",
			"setBytes(bytes32,bytes)": "2e28d084",
			"setBytes32(bytes32,bytes32)": "4e91db08",
			"setBytes32Array(bytes32,uint256,bytes32)": "a6537100",
			"setBytesArray(bytes32,uint256,bytes)": "32bde6dc",
			"setInt(bytes32,int256)": "3e49bed0",
			"setIntArray(bytes32,uint256,int256)": "2e25156f",
			"setString(bytes32,string)": "6e899550",
			"setStringArray(bytes32,uint256,string)": "443dc70c",
			"setUint(bytes32,uint256)": "e2a4853a",
			"setUintArray(bytes32,uint256,uint256)": "ac6dad0a",
			"uintSetContains(bytes32,uint256)": "b60f5638"
		}
	},
	"abi": [
		{
			"inputs": [],
			"stateMutability": "nonpayable",
			"type": "constructor"
		},
		{
			"anonymous": false,
			"inputs": [
				{
					"indexed": true,
					"internalType": "bytes32",
					"name": "key",
					"type": "bytes32"
				}
			],
			"name": "AddressArrayDeleted",
			"type": "event"
		},
		{
			"anonymous": false,
			"inputs": [
				{
					"indexed": true,
					"internalType": "bytes32",
					"name": "key",
					"type": "bytes32"
				},
				{
					"indexed": true,
					"internalType": "address",
					"name": "value",
					"type": "address"
				}
			],
			"name": "AddressArrayPushed",
			"type": "event"
		},
		{
			"anonymous": false,
			"inputs": [
				{
					"indexed": true,
					"internalType": "bytes32",
					"name": "key",
					"type": "bytes32"
				},
				{
					"indexed": true,
					"internalType": "uint256",
					"name": "index",
					"type": "uint256"
				},
				{
					"indexed": true,
					"internalType": "address",
					"name": "value",
					"type": "address"
				}
			],
			"name": "AddressArrayUpdated",
			"type": "event"
		},
		{
			"anonymous": false,
			"inputs": [
				{
					"indexed": true,
					"internalType": "bytes32",
					"name": "key",
					"type": "bytes32"
				},
				{
					"indexed": true,
					"internalType": "address",
					"name": "value",
					"type": "address"
				}
			],
			"name": "AddressSetValueAdded",
			"type": "event"
		},
		{
			"anonymous": false,
			"inputs": [
				{
					"indexed": true,
					"internalType": "bytes32",
					"name": "key",
					"type": "bytes32"
				},
				{
					"indexed": true,
					"internalType": "address",
					"name": "value",
					"type": "address"
				}
			],
			"name": "AddressSetValueRemoved",
			"type": "event"
		},
		{
			"anonymous": false,
			"inputs": [
				{
					"indexed": true,
					"internalType": "bytes32",
					"name": "key",
					"type": "bytes32"
				},
				{
					"indexed": true,
					"internalType": "address",
					"name": "value",
					"type": "address"
				}
			],
			"name": "AddressUpdated",
			"type": "event"
		},
		{
			"anonymous": false,
			"inputs": [
				{
					"indexed": true,
					"internalType": "address",
					"name": "account",
					"type": "address"
				}
			],
			"name": "AdminAdded",
			"type": "event"
		},
		{
			"anonymous": false,
			"inputs": [
				{
					"indexed": true,
					"internalType": "address",
					"name": "account",
					"type": "address"
				}
			],
			"name": "AdminRemoved",
			"type": "event"
		},
		{
			"anonymous": false,
			"inputs": [
				{
					"indexed": true,
					"internalType": "bytes32",
					"name": "key",
					"type": "bytes32"
				}
			],
			"name": "BoolArrayDeleted",
			"type": "event"
		},
		{
			"anonymous": false,
			"inputs": [
				{
					"indexed": true,
					"internalType": "bytes32",
					"name": "key",
					"type": "bytes32"
				},
				{
					"indexed": true,
					"internalType": "bool",
					"name": "value",
					"type": "bool"
				}
			],
			"name": "BoolArrayPushed",
			"type": "event"
		},
		{
			"anonymous": false,
			"inputs": [
				{
					"indexed": true,
					"internalType": "bytes32",
					"name": "key",
					"type": "bytes32"
				},
				{
					"indexed": true,
					"internalType": "uint256",
					"name": "index",
					"type": "uint256"
				},
				{
					"indexed": true,
					"internalType": "bool",
					"name": "value",
					"type": "bool"
				}
			],
			"name": "BoolArrayUpdated",
			"type": "event"
		},
		{
			"anonymous": false,
			"inputs": [
				{
					"indexed": true,
					"internalType": "bytes32",
					"name": "key",
					"type": "bytes32"
				},
				{
					"indexed": true,
					"internalType": "bool",
					"name": "value",
					"type": "bool"
				}
			],
			"name": "BoolUpdated",
			"type": "event"
		},
		{
			"anonymous": false,
			"inputs": [
				{
					"indexed": true,
					"internalType": "bytes32",
					"name": "key",
					"type": "bytes32"
				}
			],
			"name": "Bytes32ArrayDeleted",
			"type": "event"
		},
		{
			"anonymous": false,
			"inputs": [
				{
					"indexed": true,
					"internalType": "bytes32",
					"name": "key",
					"type": "bytes32"
				},
				{
					"indexed": true,
					"internalType": "bytes32",
					"name": "value",
					"type": "bytes32"
				}
			],
			"name": "Bytes32ArrayPushed",
			"type": "event"
		},
		{
			"anonymous": false,
			"inputs": [
				{
					"indexed": true,
					"internalType": "bytes32",
					"name": "key",
					"type": "bytes32"
				},
				{
					"indexed": true,
					"internalType": "uint256",
					"name": "index",
					"type": "uint256"
				},
				{
					"indexed": true,
					"internalType": "bytes32",
					"name": "value",
					"type": "bytes32"
				}
			],
			"name": "Bytes32ArrayUpdated",
			"type": "event"
		},
		{
			"anonymous": false,
			"inputs": [
				{
					"indexed": true,
					"internalType": "bytes32",
					"name": "key",
					"type": "bytes32"
				},
				{
					"indexed": true,
					"internalType": "bytes32",
					"name": "value",
					"type": "bytes32"
				}
			],
			"name": "Bytes32SetValueAdded",
			"type": "event"
		},
		{
			"anonymous": false,
			"inputs": [
				{
					"indexed": true,
					"internalType": "bytes32",
					"name": "key",
					"type": "bytes32"
				},
				{
					"indexed": true,
					"internalType": "bytes32",
					"name": "value",
					"type": "bytes32"
				}
			],
			"name": "Bytes32SetValueRemoved",
			"type": "event"
		},
		{
			"anonymous": false,
			"inputs": [
				{
					"indexed": true,
					"internalType": "bytes32",
					"name": "key",
					"type": "bytes32"
				},
				{
					"indexed": true,
					"internalType": "bytes32",
					"name": "value",
					"type": "bytes32"
				}
			],
			"name": "Bytes32Updated",
			"type": "event"
		},
		{
			"anonymous": false,
			"inputs": [
				{
					"indexed": true,
					"internalType": "bytes32",
					"name": "key",
					"type": "bytes32"
				}
			],
			"name": "BytesArrayDeleted",
			"type": "event"
		},
		{
			"anonymous": false,
			"inputs": [
				{
					"indexed": true,
					"internalType": "bytes32",
					"name": "key",
					"type": "bytes32"
				},
				{
					"indexed": true,
					"internalType": "bytes",
					"name": "value",
					"type": "bytes"
				}
			],
			"name": "BytesArrayPushed",
			"type": "event"
		},
		{
			"anonymous": false,
			"inputs": [
				{
					"indexed": true,
					"internalType": "bytes32",
					"name": "key",
					"type": "bytes32"
				},
				{
					"indexed": true,
					"internalType": "uint256",
					"name": "index",
					"type": "uint256"
				},
				{
					"indexed": true,
					"internalType": "bytes",
					"name": "value",
					"type": "bytes"
				}
			],
			"name": "BytesArrayUpdated",
			"type": "event"
		},
		{
			"anonymous": false,
			"inputs": [
				{
					"indexed": true,
					"internalType": "bytes32",
					"name": "key",
					"type": "bytes32"
				},
				{
					"indexed": true,
					"internalType": "bytes",
					"name": "value",
					"type": "bytes"
				}
			],
			"name": "BytesUpdated",
			"type": "event"
		},
		{
			"anonymous": false,
			"inputs": [
				{
					"indexed": true,
					"internalType": "bytes32",
					"name": "key",
					"type": "bytes32"
				}
			],
			"name": "IntArrayDeleted",
			"type": "event"
		},
		{
			"anonymous": false,
			"inputs": [
				{
					"indexed": true,
					"internalType": "bytes32",
					"name": "key",
					"type": "bytes32"
				},
				{
					"indexed": true,
					"internalType": "int256",
					"name": "value",
					"type": "int256"
				}
			],
			"name": "IntArrayPushed",
			"type": "event"
		},
		{
			"anonymous": false,
			"inputs": [
				{
					"indexed": true,
					"internalType": "bytes32",
					"name": "key",
					"type": "bytes32"
				},
				{
					"indexed": true,
					"internalType": "uint256",
					"name": "index",
					"type": "uint256"
				},
				{
					"indexed": true,
					"internalType": "int256",
					"name": "value",
					"type": "int256"
				}
			],
			"name": "IntArrayUpdated",
			"type": "event"
		},
		{
			"anonymous": false,
			"inputs": [
				{
					"indexed": true,
					"internalType": "bytes32",
					"name": "key",
					"type": "bytes32"
				},
				{
					"indexed": true,
					"internalType": "int256",
					"name": "value",
					"type": "int256"
				}
			],
			"name": "IntUpdated",
			"type": "event"
		},
		{
			"anonymous": false,
			"inputs": [
				{
					"indexed": true,
					"internalType": "address",
					"name": "account",
					"type": "address"
				}
			],
			"name": "LogicAdded",
			"type": "event"
		},
		{
			"anonymous": false,
			"inputs": [
				{
					"indexed": true,
					"internalType": "address",
					"name": "account",
					"type": "address"
				}
			],
			"name": "LogicRemoved",
			"type": "event"
		},
		{
			"anonymous": false,
			"inputs": [
				{
					"indexed": true,
					"internalType": "bytes32",
					"name": "key",
					"type": "bytes32"
				}
			],
			"name": "StringArrayDeleted",
			"type": "event"
		},
		{
			"anonymous": false,
			"inputs": [
				{
					"indexed": true,
					"internalType": "bytes32",
					"name": "key",
					"type": "bytes32"
				},
				{
					"indexed": true,
					"internalType": "string",
					"name": "value",
					"type": "string"
				}
			],
			"name": "StringArrayPushed",
			"type": "event"
		},
		{
			"anonymous": false,
			"inputs": [
				{
					"indexed": true,
					"internalType": "bytes32",
					"name": "key",
					"type": "bytes32"
				},
				{
					"indexed": true,
					"internalType": "uint256",
					"name": "index",
					"type": "uint256"
				},
				{
					"indexed": true,
					"internalType": "string",
					"name": "value",
					"type": "string"
				}
			],
			"name": "StringArrayUpdated",
			"type": "event"
		},
		{
			"anonymous": false,
			"inputs": [
				{
					"indexed": true,
					"internalType": "bytes32",
					"name": "key",
					"type": "bytes32"
				},
				{
					"indexed": true,
					"internalType": "string",
					"name": "value",
					"type": "string"
				}
			],
			"name": "StringUpdated",
			"type": "event"
		},
		{
			"anonymous": false,
			"inputs": [
				{
					"indexed": true,
					"internalType": "bytes32",
					"name": "key",
					"type": "bytes32"
				}
			],
			"name": "UintArrayDeleted",
			"type": "event"
		},
		{
			"anonymous": false,
			"inputs": [
				{
					"indexed": true,
					"internalType": "bytes32",
					"name": "key",
					"type": "bytes32"
				},
				{
					"indexed": true,
					"internalType": "uint256",
					"name": "value",
					"type": "uint256"
				}
			],
			"name": "UintArrayPushed",
			"type": "event"
		},
		{
			"anonymous": false,
			"inputs": [
				{
					"indexed": true,
					"internalType": "bytes32",
					"name": "key",
					"type": "bytes32"
				},
				{
					"indexed": true,
					"internalType": "uint256",
					"name": "index",
					"type": "uint256"
				},
				{
					"indexed": true,
					"internalType": "uint256",
					"name": "value",
					"type": "uint256"
				}
			],
			"name": "UintArrayUpdated",
			"type": "event"
		},
		{
			"anonymous": false,
			"inputs": [
				{
					"indexed": true,
					"internalType": "bytes32",
					"name": "key",
					"type": "bytes32"
				},
				{
					"indexed": true,
					"internalType": "uint256",
					"name": "value",
					"type": "uint256"
				}
			],
			"name": "UintSetValueAdded",
			"type": "event"
		},
		{
			"anonymous": false,
			"inputs": [
				{
					"indexed": true,
					"internalType": "bytes32",
					"name": "key",
					"type": "bytes32"
				},
				{
					"indexed": true,
					"internalType": "uint256",
					"name": "value",
					"type": "uint256"
				}
			],
			"name": "UintSetValueRemoved",
			"type": "event"
		},
		{
			"anonymous": false,
			"inputs": [
				{
					"indexed": true,
					"internalType": "bytes32",
					"name": "key",
					"type": "bytes32"
				},
				{
					"indexed": true,
					"internalType": "uint256",
					"name": "value",
					"type": "uint256"
				}
			],
			"name": "UintUpdated",
			"type": "event"
		},
		{
			"inputs": [
				{
					"internalType": "bytes32",
					"name": "key",
					"type": "bytes32"
				},
				{
					"internalType": "address",
					"name": "value",
					"type": "address"
				}
			],
			"name": "addAddressSet",
			"outputs": [],
			"stateMutability": "nonpayable",
			"type": "function"
		},
		{
			"inputs": [
				{
					"internalType": "address",
					"name": "account",
					"type": "address"
				}
			],
			"name": "addAdmin",
			"outputs": [],
			"stateMutability": "nonpayable",
			"type": "function"
		},
		{
			"inputs": [
				{
					"internalType": "bytes32",
					"name": "key",
					"type": "bytes32"
				},
				{
					"internalType": "bytes32",
					"name": "value",
					"type": "bytes32"
				}
			],
			"name": "addBytes32Set",
			"outputs": [],
			"stateMutability": "nonpayable",
			"type": "function"
		},
		{
			"inputs": [
				{
					"internalType": "address",
					"name": "account",
					"type": "address"
				}
			],
			"name": "addLogic",
			"outputs": [],
			"stateMutability": "nonpayable",
			"type": "function"
		},
		{
			"inputs": [
				{
					"internalType": "bytes32",
					"name": "key",
					"type": "bytes32"
				},
				{
					"internalType": "uint256",
					"name": "value",
					"type": "uint256"
				}
			],
			"name": "addUintSet",
			"outputs": [],
			"stateMutability": "nonpayable",
			"type": "function"
		},
		{
			"inputs": [
				{
					"internalType": "bytes32",
					"name": "key",
					"type": "bytes32"
				},
				{
					"internalType": "address",
					"name": "value",
					"type": "address"
				}
			],
			"name": "addressSetContains",
			"outputs": [
				{
					"internalType": "bool",
					"name": "",
					"type": "bool"
				}
			],
			"stateMutability": "view",
			"type": "function"
		},
		{
			"inputs": [
				{
					"internalType": "bytes32",
					"name": "key",
					"type": "bytes32"
				},
				{
					"internalType": "bytes32",
					"name": "value",
					"type": "bytes32"
				}
			],
			"name": "bytes32SetContains",
			"outputs": [
				{
					"internalType": "bool",
					"name": "",
					"type": "bool"
				}
			],
			"stateMutability": "view",
			"type": "function"
		},
		{
			"inputs": [
				{
					"internalType": "bytes32",
					"name": "key",
					"type": "bytes32"
				}
			],
			"name": "deleteAddressArray",
			"outputs": [],
			"stateMutability": "nonpayable",
			"type": "function"
		},
		{
			"inputs": [
				{
					"internalType": "bytes32",
					"name": "key",
					"type": "bytes32"
				}
			],
			"name": "deleteBoolArray",
			"outputs": [],
			"stateMutability": "nonpayable",
			"type": "function"
		},
		{
			"inputs": [
				{
					"internalType": "bytes32",
					"name": "key",
					"type": "bytes32"
				}
			],
			"name": "deleteBytes32Array",
			"outputs": [],
			"stateMutability": "nonpayable",
			"type": "function"
		},
		{
			"inputs": [
				{
					"internalType": "bytes32",
					"name": "key",
					"type": "bytes32"
				}
			],
			"name": "deleteBytesArray",
			"outputs": [],
			"stateMutability": "nonpayable",
			"type": "function"
		},
		{
			"inputs": [
				{
					"internalType": "bytes32",
					"name": "key",
					"type": "bytes32"
				}
			],
			"name": "deleteIntArray",
			"outputs": [],
			"stateMutability": "nonpayable",
			"type": "function"
		},
		{
			"inputs": [
				{
					"internalType": "bytes32",
					"name": "key",
					"type": "bytes32"
				}
			],
			"name": "deleteStringArray",
			"outputs": [],
			"stateMutability": "nonpayable",
			"type": "function"
		},
		{
			"inputs": [
				{
					"internalType": "bytes32",
					"name": "key",
					"type": "bytes32"
				}
			],
			"name": "deleteUintArray",
			"outputs": [],
			"stateMutability": "nonpayable",
			"type": "function"
		},
		{
			"inputs": [
				{
					"internalType": "bytes32",
					"name": "key",
					"type": "bytes32"
				}
			],
			"name": "getAddress",
			"outputs": [
				{
					"internalType": "address",
					"name": "",
					"type": "address"
				}
			],
			"stateMutability": "view",
			"type": "function"
		},
		{
			"inputs": [
				{
					"internalType": "bytes32",
					"name": "key",
					"type": "bytes32"
				}
			],
			"name": "getAddressArray",
			"outputs": [
				{
					"internalType": "address[]",
					"name": "",
					"type": "address[]"
				}
			],
			"stateMutability": "view",
			"type": "function"
		},
		{
			"inputs": [
				{
					"internalType": "bytes32",
					"name": "key",
					"type": "bytes32"
				}
			],
			"name": "getAddressSet",
			"outputs": [
				{
					"internalType": "address[]",
					"name": "",
					"type": "address[]"
				}
			],
			"stateMutability": "view",
			"type": "function"
		},
		{
			"inputs": [],
			"name": "getAdmins",
			"outputs": [
				{
					"internalType": "address[]",
					"name": "",
					"type": "address[]"
				}
			],
			"stateMutability": "view",
			"type": "function"
		},
		{
			"inputs": [
				{
					"internalType": "bytes32",
					"name": "key",
					"type": "bytes32"
				}
			],
			"name": "getBool",
			"outputs": [
				{
					"internalType": "bool",
					"name": "",
					"type": "bool"
				}
			],
			"stateMutability": "view",
			"type": "function"
		},
		{
			"inputs": [
				{
					"internalType": "bytes32",
					"name": "key",
					"type": "bytes32"
				}
			],
			"name": "getBoolArray",
			"outputs": [
				{
					"internalType": "bool[]",
					"name": "",
					"type": "bool[]"
				}
			],
			"stateMutability": "view",
			"type": "function"
		},
		{
			"inputs": [
				{
					"internalType": "bytes32",
					"name": "key",
					"type": "bytes32"
				}
			],
			"name": "getBytes",
			"outputs": [
				{
					"internalType": "bytes",
					"name": "",
					"type": "bytes"
				}
			],
			"stateMutability": "view",
			"type": "function"
		},
		{
			"inputs": [
				{
					"internalType": "bytes32",
					"name": "key",
					"type": "bytes32"
				}
			],
			"name": "getBytes32",
			"outputs": [
				{
					"internalType": "bytes32",
					"name": "",
					"type": "bytes32"
				}
			],
			"stateMutability": "view",
			"type": "function"
		},
		{
			"inputs": [
				{
					"internalType": "bytes32",
					"name": "key",
					"type": "bytes32"
				}
			],
			"name": "getBytes32Array",
			"outputs": [
				{
					"internalType": "bytes32[]",
					"name": "",
					"type": "bytes32[]"
				}
			],
			"stateMutability": "view",
			"type": "function"
		},
		{
			"inputs": [
				{
					"internalType": "bytes32",
					"name": "key",
					"type": "bytes32"
				}
			],
			"name": "getBytes32Set",
			"outputs": [
				{
					"internalType": "bytes32[]",
					"name": "",
					"type": "bytes32[]"
				}
			],
			"stateMutability": "view",
			"type": "function"
		},
		{
			"inputs": [
				{
					"internalType": "bytes32",
					"name": "key",
					"type": "bytes32"
				}
			],
			"name": "getBytesArray",
			"outputs": [
				{
					"internalType": "bytes[]",
					"name": "",
					"type": "bytes[]"
				}
			],
			"stateMutability": "view",
			"type": "function"
		},
		{
			"inputs": [
				{
					"internalType": "bytes32",
					"name": "key",
					"type": "bytes32"
				},
				{
					"internalType": "uint256",
					"name": "index",
					"type": "uint256"
				}
			],
			"name": "getIndexedAddressArray",
			"outputs": [
				{
					"internalType": "address",
					"name": "",
					"type": "address"
				}
			],
			"stateMutability": "view",
			"type": "function"
		},
		{
			"inputs": [
				{
					"internalType": "bytes32",
					"name": "key",
					"type": "bytes32"
				},
				{
					"internalType": "uint256",
					"name": "index",
					"type": "uint256"
				}
			],
			"name": "getIndexedAddressSet",
			"outputs": [
				{
					"internalType": "address",
					"name": "",
					"type": "address"
				}
			],
			"stateMutability": "view",
			"type": "function"
		},
		{
			"inputs": [
				{
					"internalType": "bytes32",
					"name": "key",
					"type": "bytes32"
				},
				{
					"internalType": "uint256",
					"name": "index",
					"type": "uint256"
				}
			],
			"name": "getIndexedBoolArray",
			"outputs": [
				{
					"internalType": "bool",
					"name": "",
					"type": "bool"
				}
			],
			"stateMutability": "view",
			"type": "function"
		},
		{
			"inputs": [
				{
					"internalType": "bytes32",
					"name": "key",
					"type": "bytes32"
				},
				{
					"internalType": "uint256",
					"name": "index",
					"type": "uint256"
				}
			],
			"name": "getIndexedBytes32Array",
			"outputs": [
				{
					"internalType": "bytes32",
					"name": "",
					"type": "bytes32"
				}
			],
			"stateMutability": "view",
			"type": "function"
		},
		{
			"inputs": [
				{
					"internalType": "bytes32",
					"name": "key",
					"type": "bytes32"
				},
				{
					"internalType": "uint256",
					"name": "index",
					"type": "uint256"
				}
			],
			"name": "getIndexedBytes32Set",
			"outputs": [
				{
					"internalType": "bytes32",
					"name": "",
					"type": "bytes32"
				}
			],
			"stateMutability": "view",
			"type": "function"
		},
		{
			"inputs": [
				{
					"internalType": "bytes32",
					"name": "key",
					"type": "bytes32"
				},
				{
					"internalType": "uint256",
					"name": "index",
					"type": "uint256"
				}
			],
			"name": "getIndexedBytesArray",
			"outputs": [
				{
					"internalType": "bytes",
					"name": "",
					"type": "bytes"
				}
			],
			"stateMutability": "view",
			"type": "function"
		},
		{
			"inputs": [
				{
					"internalType": "bytes32",
					"name": "key",
					"type": "bytes32"
				},
				{
					"internalType": "uint256",
					"name": "index",
					"type": "uint256"
				}
			],
			"name": "getIndexedIntArray",
			"outputs": [
				{
					"internalType": "int256",
					"name": "",
					"type": "int256"
				}
			],
			"stateMutability": "view",
			"type": "function"
		},
		{
			"inputs": [
				{
					"internalType": "bytes32",
					"name": "key",
					"type": "bytes32"
				},
				{
					"internalType": "uint256",
					"name": "index",
					"type": "uint256"
				}
			],
			"name": "getIndexedStringArray",
			"outputs": [
				{
					"internalType": "string",
					"name": "",
					"type": "string"
				}
			],
			"stateMutability": "view",
			"type": "function"
		},
		{
			"inputs": [
				{
					"internalType": "bytes32",
					"name": "key",
					"type": "bytes32"
				},
				{
					"internalType": "uint256",
					"name": "index",
					"type": "uint256"
				}
			],
			"name": "getIndexedUintArray",
			"outputs": [
				{
					"internalType": "uint256",
					"name": "",
					"type": "uint256"
				}
			],
			"stateMutability": "view",
			"type": "function"
		},
		{
			"inputs": [
				{
					"internalType": "bytes32",
					"name": "key",
					"type": "bytes32"
				},
				{
					"internalType": "uint256",
					"name": "index",
					"type": "uint256"
				}
			],
			"name": "getIndexedUintSet",
			"outputs": [
				{
					"internalType": "uint256",
					"name": "",
					"type": "uint256"
				}
			],
			"stateMutability": "view",
			"type": "function"
		},
		{
			"inputs": [
				{
					"internalType": "bytes32",
					"name": "key",
					"type": "bytes32"
				}
			],
			"name": "getInt",
			"outputs": [
				{
					"internalType": "int256",
					"name": "",
					"type": "int256"
				}
			],
			"stateMutability": "view",
			"type": "function"
		},
		{
			"inputs": [
				{
					"internalType": "bytes32",
					"name": "key",
					"type": "bytes32"
				}
			],
			"name": "getIntArray",
			"outputs": [
				{
					"internalType": "int256[]",
					"name": "",
					"type": "int256[]"
				}
			],
			"stateMutability": "view",
			"type": "function"
		},
		{
			"inputs": [
				{
					"internalType": "bytes32",
					"name": "key",
					"type": "bytes32"
				}
			],
			"name": "getLengthAddressArray",
			"outputs": [
				{
					"internalType": "uint256",
					"name": "",
					"type": "uint256"
				}
			],
			"stateMutability": "view",
			"type": "function"
		},
		{
			"inputs": [
				{
					"internalType": "bytes32",
					"name": "key",
					"type": "bytes32"
				}
			],
			"name": "getLengthAddressSet",
			"outputs": [
				{
					"internalType": "uint256",
					"name": "",
					"type": "uint256"
				}
			],
			"stateMutability": "view",
			"type": "function"
		},
		{
			"inputs": [
				{
					"internalType": "bytes32",
					"name": "key",
					"type": "bytes32"
				}
			],
			"name": "getLengthBoolArray",
			"outputs": [
				{
					"internalType": "uint256",
					"name": "",
					"type": "uint256"
				}
			],
			"stateMutability": "view",
			"type": "function"
		},
		{
			"inputs": [
				{
					"internalType": "bytes32",
					"name": "key",
					"type": "bytes32"
				}
			],
			"name": "getLengthBytes32Array",
			"outputs": [
				{
					"internalType": "uint256",
					"name": "",
					"type": "uint256"
				}
			],
			"stateMutability": "view",
			"type": "function"
		},
		{
			"inputs": [
				{
					"internalType": "bytes32",
					"name": "key",
					"type": "bytes32"
				}
			],
			"name": "getLengthBytes32Set",
			"outputs": [
				{
					"internalType": "uint256",
					"name": "",
					"type": "uint256"
				}
			],
			"stateMutability": "view",
			"type": "function"
		},
		{
			"inputs": [
				{
					"internalType": "bytes32",
					"name": "key",
					"type": "bytes32"
				}
			],
			"name": "getLengthBytesArray",
			"outputs": [
				{
					"internalType": "uint256",
					"name": "",
					"type": "uint256"
				}
			],
			"stateMutability": "view",
			"type": "function"
		},
		{
			"inputs": [
				{
					"internalType": "bytes32",
					"name": "key",
					"type": "bytes32"
				}
			],
			"name": "getLengthIntArray",
			"outputs": [
				{
					"internalType": "uint256",
					"name": "",
					"type": "uint256"
				}
			],
			"stateMutability": "view",
			"type": "function"
		},
		{
			"inputs": [
				{
					"internalType": "bytes32",
					"name": "key",
					"type": "bytes32"
				}
			],
			"name": "getLengthStringArray",
			"outputs": [
				{
					"internalType": "uint256",
					"name": "",
					"type": "uint256"
				}
			],
			"stateMutability": "view",
			"type": "function"
		},
		{
			"inputs": [
				{
					"internalType": "bytes32",
					"name": "key",
					"type": "bytes32"
				}
			],
			"name": "getLengthUintArray",
			"outputs": [
				{
					"internalType": "uint256",
					"name": "",
					"type": "uint256"
				}
			],
			"stateMutability": "view",
			"type": "function"
		},
		{
			"inputs": [
				{
					"internalType": "bytes32",
					"name": "key",
					"type": "bytes32"
				}
			],
			"name": "getLengthUintSet",
			"outputs": [
				{
					"internalType": "uint256",
					"name": "",
					"type": "uint256"
				}
			],
			"stateMutability": "view",
			"type": "function"
		},
		{
			"inputs": [],
			"name": "getLogics",
			"outputs": [
				{
					"internalType": "address[]",
					"name": "",
					"type": "address[]"
				}
			],
			"stateMutability": "view",
			"type": "function"
		},
		{
			"inputs": [
				{
					"internalType": "bytes32",
					"name": "key",
					"type": "bytes32"
				}
			],
			"name": "getString",
			"outputs": [
				{
					"internalType": "string",
					"name": "",
					"type": "string"
				}
			],
			"stateMutability": "view",
			"type": "function"
		},
		{
			"inputs": [
				{
					"internalType": "bytes32",
					"name": "key",
					"type": "bytes32"
				}
			],
			"name": "getStringArray",
			"outputs": [
				{
					"internalType": "string[]",
					"name": "",
					"type": "string[]"
				}
			],
			"stateMutability": "view",
			"type": "function"
		},
		{
			"inputs": [
				{
					"internalType": "bytes32",
					"name": "key",
					"type": "bytes32"
				}
			],
			"name": "getUint",
			"outputs": [
				{
					"internalType": "uint256",
					"name": "",
					"type": "uint256"
				}
			],
			"stateMutability": "view",
			"type": "function"
		},
		{
			"inputs": [
				{
					"internalType": "bytes32",
					"name": "key",
					"type": "bytes32"
				}
			],
			"name": "getUintArray",
			"outputs": [
				{
					"internalType": "uint256[]",
					"name": "",
					"type": "uint256[]"
				}
			],
			"stateMutability": "view",
			"type": "function"
		},
		{
			"inputs": [
				{
					"internalType": "bytes32",
					"name": "key",
					"type": "bytes32"
				}
			],
			"name": "getUintSet",
			"outputs": [
				{
					"internalType": "uint256[]",
					"name": "",
					"type": "uint256[]"
				}
			],
			"stateMutability": "view",
			"type": "function"
		},
		{
			"inputs": [
				{
					"internalType": "bytes32",
					"name": "key",
					"type": "bytes32"
				},
				{
					"internalType": "address",
					"name": "value",
					"type": "address"
				}
			],
			"name": "pushAddressArray",
			"outputs": [],
			"stateMutability": "nonpayable",
			"type": "function"
		},
		{
			"inputs": [
				{
					"internalType": "bytes32",
					"name": "key",
					"type": "bytes32"
				},
				{
					"internalType": "bool",
					"name": "value",
					"type": "bool"
				}
			],
			"name": "pushBoolArray",
			"outputs": [],
			"stateMutability": "nonpayable",
			"type": "function"
		},
		{
			"inputs": [
				{
					"internalType": "bytes32",
					"name": "key",
					"type": "bytes32"
				},
				{
					"internalType": "bytes32",
					"name": "value",
					"type": "bytes32"
				}
			],
			"name": "pushBytes32Array",
			"outputs": [],
			"stateMutability": "nonpayable",
			"type": "function"
		},
		{
			"inputs": [
				{
					"internalType": "bytes32",
					"name": "key",
					"type": "bytes32"
				},
				{
					"internalType": "bytes",
					"name": "value",
					"type": "bytes"
				}
			],
			"name": "pushBytesArray",
			"outputs": [],
			"stateMutability": "nonpayable",
			"type": "function"
		},
		{
			"inputs": [
				{
					"internalType": "bytes32",
					"name": "key",
					"type": "bytes32"
				},
				{
					"internalType": "int256",
					"name": "value",
					"type": "int256"
				}
			],
			"name": "pushIntArray",
			"outputs": [],
			"stateMutability": "nonpayable",
			"type": "function"
		},
		{
			"inputs": [
				{
					"internalType": "bytes32",
					"name": "key",
					"type": "bytes32"
				},
				{
					"internalType": "string",
					"name": "value",
					"type": "string"
				}
			],
			"name": "pushStringArray",
			"outputs": [],
			"stateMutability": "nonpayable",
			"type": "function"
		},
		{
			"inputs": [
				{
					"internalType": "bytes32",
					"name": "key",
					"type": "bytes32"
				},
				{
					"internalType": "uint256",
					"name": "value",
					"type": "uint256"
				}
			],
			"name": "pushUintArray",
			"outputs": [],
			"stateMutability": "nonpayable",
			"type": "function"
		},
		{
			"inputs": [
				{
					"internalType": "bytes32",
					"name": "key",
					"type": "bytes32"
				},
				{
					"internalType": "address",
					"name": "value",
					"type": "address"
				}
			],
			"name": "removeAddressSet",
			"outputs": [],
			"stateMutability": "nonpayable",
			"type": "function"
		},
		{
			"inputs": [
				{
					"internalType": "address",
					"name": "account",
					"type": "address"
				}
			],
			"name": "removeAdmin",
			"outputs": [],
			"stateMutability": "nonpayable",
			"type": "function"
		},
		{
			"inputs": [
				{
					"internalType": "bytes32",
					"name": "key",
					"type": "bytes32"
				},
				{
					"internalType": "bytes32",
					"name": "value",
					"type": "bytes32"
				}
			],
			"name": "removeBytes32Set",
			"outputs": [],
			"stateMutability": "nonpayable",
			"type": "function"
		},
		{
			"inputs": [
				{
					"internalType": "address",
					"name": "account",
					"type": "address"
				}
			],
			"name": "removeLogic",
			"outputs": [],
			"stateMutability": "nonpayable",
			"type": "function"
		},
		{
			"inputs": [
				{
					"internalType": "bytes32",
					"name": "key",
					"type": "bytes32"
				},
				{
					"internalType": "uint256",
					"name": "value",
					"type": "uint256"
				}
			],
			"name": "removeUintSet",
			"outputs": [],
			"stateMutability": "nonpayable",
			"type": "function"
		},
		{
			"inputs": [
				{
					"internalType": "bytes32",
					"name": "key",
					"type": "bytes32"
				},
				{
					"internalType": "address",
					"name": "value",
					"type": "address"
				}
			],
			"name": "setAddress",
			"outputs": [],
			"stateMutability": "nonpayable",
			"type": "function"
		},
		{
			"inputs": [
				{
					"internalType": "bytes32",
					"name": "key",
					"type": "bytes32"
				},
				{
					"internalType": "uint256",
					"name": "index",
					"type": "uint256"
				},
				{
					"internalType": "address",
					"name": "value",
					"type": "address"
				}
			],
			"name": "setAddressArray",
			"outputs": [],
			"stateMutability": "nonpayable",
			"type": "function"
		},
		{
			"inputs": [
				{
					"internalType": "bytes32",
					"name": "key",
					"type": "bytes32"
				},
				{
					"internalType": "bool",
					"name": "value",
					"type": "bool"
				}
			],
			"name": "setBool",
			"outputs": [],
			"stateMutability": "nonpayable",
			"type": "function"
		},
		{
			"inputs": [
				{
					"internalType": "bytes32",
					"name": "key",
					"type": "bytes32"
				},
				{
					"internalType": "uint256",
					"name": "index",
					"type": "uint256"
				},
				{
					"internalType": "bool",
					"name": "value",
					"type": "bool"
				}
			],
			"name": "setBoolArray",
			"outputs": [],
			"stateMutability": "nonpayable",
			"type": "function"
		},
		{
			"inputs": [
				{
					"internalType": "bytes32",
					"name": "key",
					"type": "bytes32"
				},
				{
					"internalType": "bytes",
					"name": "value",
					"type": "bytes"
				}
			],
			"name": "setBytes",
			"outputs": [],
			"stateMutability": "nonpayable",
			"type": "function"
		},
		{
			"inputs": [
				{
					"internalType": "bytes32",
					"name": "key",
					"type": "bytes32"
				},
				{
					"internalType": "bytes32",
					"name": "value",
					"type": "bytes32"
				}
			],
			"name": "setBytes32",
			"outputs": [],
			"stateMutability": "nonpayable",
			"type": "function"
		},
		{
			"inputs": [
				{
					"internalType": "bytes32",
					"name": "key",
					"type": "bytes32"
				},
				{
					"internalType": "uint256",
					"name": "index",
					"type": "uint256"
				},
				{
					"internalType": "bytes32",
					"name": "value",
					"type": "bytes32"
				}
			],
			"name": "setBytes32Array",
			"outputs": [],
			"stateMutability": "nonpayable",
			"type": "function"
		},
		{
			"inputs": [
				{
					"internalType": "bytes32",
					"name": "key",
					"type": "bytes32"
				},
				{
					"internalType": "uint256",
					"name": "index",
					"type": "uint256"
				},
				{
					"internalType": "bytes",
					"name": "value",
					"type": "bytes"
				}
			],
			"name": "setBytesArray",
			"outputs": [],
			"stateMutability": "nonpayable",
			"type": "function"
		},
		{
			"inputs": [
				{
					"internalType": "bytes32",
					"name": "key",
					"type": "bytes32"
				},
				{
					"internalType": "int256",
					"name": "value",
					"type": "int256"
				}
			],
			"name": "setInt",
			"outputs": [],
			"stateMutability": "nonpayable",
			"type": "function"
		},
		{
			"inputs": [
				{
					"internalType": "bytes32",
					"name": "key",
					"type": "bytes32"
				},
				{
					"internalType": "uint256",
					"name": "index",
					"type": "uint256"
				},
				{
					"internalType": "int256",
					"name": "value",
					"type": "int256"
				}
			],
			"name": "setIntArray",
			"outputs": [],
			"stateMutability": "nonpayable",
			"type": "function"
		},
		{
			"inputs": [
				{
					"internalType": "bytes32",
					"name": "key",
					"type": "bytes32"
				},
				{
					"internalType": "string",
					"name": "value",
					"type": "string"
				}
			],
			"name": "setString",
			"outputs": [],
			"stateMutability": "nonpayable",
			"type": "function"
		},
		{
			"inputs": [
				{
					"internalType": "bytes32",
					"name": "key",
					"type": "bytes32"
				},
				{
					"internalType": "uint256",
					"name": "index",
					"type": "uint256"
				},
				{
					"internalType": "string",
					"name": "value",
					"type": "string"
				}
			],
			"name": "setStringArray",
			"outputs": [],
			"stateMutability": "nonpayable",
			"type": "function"
		},
		{
			"inputs": [
				{
					"internalType": "bytes32",
					"name": "key",
					"type": "bytes32"
				},
				{
					"internalType": "uint256",
					"name": "value",
					"type": "uint256"
				}
			],
			"name": "setUint",
			"outputs": [],
			"stateMutability": "nonpayable",
			"type": "function"
		},
		{
			"inputs": [
				{
					"internalType": "bytes32",
					"name": "key",
					"type": "bytes32"
				},
				{
					"internalType": "uint256",
					"name": "index",
					"type": "uint256"
				},
				{
					"internalType": "uint256",
					"name": "value",
					"type": "uint256"
				}
			],
			"name": "setUintArray",
			"outputs": [],
			"stateMutability": "nonpayable",
			"type": "function"
		},
		{
			"inputs": [
				{
					"internalType": "bytes32",
					"name": "key",
					"type": "bytes32"
				},
				{
					"internalType": "uint256",
					"name": "value",
					"type": "uint256"
				}
			],
			"name": "uintSetContains",
			"outputs": [
				{
					"internalType": "bool",
					"name": "",
					"type": "bool"
				}
			],
			"stateMutability": "view",
			"type": "function"
		}
	]
}