{
	"contracts/polygon/templates/oracles/quick-swap-medium/QuickSwapV2Medium.sol": {
		"QuickSwapV2Medium": {
			"abi": [
				{
					"inputs": [],
					"stateMutability": "nonpayable",
					"type": "constructor"
				},
				{
					"inputs": [
						{
							"internalType": "address",
							"name": "token0",
							"type": "address"
						},
						{
							"internalType": "address",
							"name": "token1",
							"type": "address"
						},
						{
							"internalType": "uint256",
							"name": "amountIn",
							"type": "uint256"
						}
					],
					"name": "getTokenPrice",
					"outputs": [
						{
							"internalType": "uint256",
							"name": "",
							"type": "uint256"
						}
					],
					"stateMutability": "view",
					"type": "function"
				}
			],
			"devdoc": {
				"kind": "dev",
				"methods": {},
				"version": 1
			},
			"evm": {
				"assembly": "    /* \"contracts/polygon/templates/oracles/quick-swap-medium/QuickSwapV2Medium.sol\":7012:7675  contract QuickSwapV2Medium {... */\n  mstore(0x40, 0x80)\n    /* \"contracts/polygon/templates/oracles/quick-swap-medium/QuickSwapV2Medium.sol\":7155:7197  0xa5E0829CaCEd8fFDD4De3c43696c57F7D7A678ff */\n  0xa5e0829caced8ffdd4de3c43696c57f7d7a678ff\n    /* \"contracts/polygon/templates/oracles/quick-swap-medium/QuickSwapV2Medium.sol\":7099:7198  IUniswapV2Router01 quickSwapRouter = IUniswapV2Router01(0xa5E0829CaCEd8fFDD4De3c43696c57F7D7A678ff) */\n  0x00\n  dup1\n  0x0100\n  exp\n  dup2\n  sload\n  dup2\n  0xffffffffffffffffffffffffffffffffffffffff\n  mul\n  not\n  and\n  swap1\n  dup4\n  0xffffffffffffffffffffffffffffffffffffffff\n  and\n  mul\n  or\n  swap1\n  sstore\n  pop\n    /* \"contracts/polygon/templates/oracles/quick-swap-medium/QuickSwapV2Medium.sol\":7267:7309  0x8954AfA98594b838bda56FE4C12a09D7739D179b */\n  0x8954afa98594b838bda56fe4c12a09d7739d179b\n    /* \"contracts/polygon/templates/oracles/quick-swap-medium/QuickSwapV2Medium.sol\":7204:7310  IUniswapV2Router01 quickSwapRouterTestnet = IUniswapV2Router01(0x8954AfA98594b838bda56FE4C12a09D7739D179b) */\n  0x01\n  exp(0x0100, 0x00)\n  dup2\n  sload\n  dup2\n  0xffffffffffffffffffffffffffffffffffffffff\n  mul\n  not\n  and\n  swap1\n  dup4\n  0xffffffffffffffffffffffffffffffffffffffff\n  and\n  mul\n  or\n  swap1\n  sstore\n  pop\n    /* \"contracts/polygon/templates/oracles/quick-swap-medium/QuickSwapV2Medium.sol\":7317:7333  constructor() {} */\n  callvalue\n  dup1\n  iszero\n  tag_1\n  jumpi\n  0x00\n  dup1\n  revert\ntag_1:\n  pop\n    /* \"contracts/polygon/templates/oracles/quick-swap-medium/QuickSwapV2Medium.sol\":7012:7675  contract QuickSwapV2Medium {... */\n  dataSize(sub_0)\n  dup1\n  dataOffset(sub_0)\n  0x00\n  codecopy\n  0x00\n  return\nstop\n\nsub_0: assembly {\n        /* \"contracts/polygon/templates/oracles/quick-swap-medium/QuickSwapV2Medium.sol\":7012:7675  contract QuickSwapV2Medium {... */\n      mstore(0x40, 0x80)\n      callvalue\n      dup1\n      iszero\n      tag_1\n      jumpi\n      0x00\n      dup1\n      revert\n    tag_1:\n      pop\n      jumpi(tag_2, lt(calldatasize, 0x04))\n      shr(0xe0, calldataload(0x00))\n      dup1\n      0x564eb91c\n      eq\n      tag_3\n      jumpi\n    tag_2:\n      0x00\n      dup1\n      revert\n        /* \"contracts/polygon/templates/oracles/quick-swap-medium/QuickSwapV2Medium.sol\":7339:7673  function getTokenPrice(address token0, address token1, uint amountIn)... */\n    tag_3:\n      tag_4\n      0x04\n      dup1\n      calldatasize\n      sub\n      dup2\n      add\n      swap1\n      tag_5\n      swap2\n      swap1\n      tag_6\n      jump\t// in\n    tag_5:\n      tag_7\n      jump\t// in\n    tag_4:\n      mload(0x40)\n      tag_8\n      swap2\n      swap1\n      tag_9\n      jump\t// in\n    tag_8:\n      mload(0x40)\n      dup1\n      swap2\n      sub\n      swap1\n      return\n    tag_7:\n        /* \"contracts/polygon/templates/oracles/quick-swap-medium/QuickSwapV2Medium.sol\":7438:7442  uint */\n      0x00\n        /* \"contracts/polygon/templates/oracles/quick-swap-medium/QuickSwapV2Medium.sol\":7454:7475  address[] memory path */\n      dup1\n        /* \"contracts/polygon/templates/oracles/quick-swap-medium/QuickSwapV2Medium.sol\":7492:7493  2 */\n      0x02\n        /* \"contracts/polygon/templates/oracles/quick-swap-medium/QuickSwapV2Medium.sol\":7478:7494  new address[](2) */\n      0xffffffffffffffff\n      dup2\n      gt\n      iszero\n      tag_11\n      jumpi\n      tag_12\n      tag_13\n      jump\t// in\n    tag_12:\n    tag_11:\n      mload(0x40)\n      swap1\n      dup1\n      dup3\n      mstore\n      dup1\n      0x20\n      mul\n      0x20\n      add\n      dup3\n      add\n      0x40\n      mstore\n      dup1\n      iszero\n      tag_14\n      jumpi\n      dup2\n      0x20\n      add\n      0x20\n      dup3\n      mul\n      dup1\n      calldatasize\n      dup4\n      calldatacopy\n      dup1\n      dup3\n      add\n      swap2\n      pop\n      pop\n      swap1\n      pop\n    tag_14:\n      pop\n        /* \"contracts/polygon/templates/oracles/quick-swap-medium/QuickSwapV2Medium.sol\":7454:7494  address[] memory path = new address[](2) */\n      swap1\n      pop\n        /* \"contracts/polygon/templates/oracles/quick-swap-medium/QuickSwapV2Medium.sol\":7514:7520  token0 */\n      dup5\n        /* \"contracts/polygon/templates/oracles/quick-swap-medium/QuickSwapV2Medium.sol\":7504:7508  path */\n      dup2\n        /* \"contracts/polygon/templates/oracles/quick-swap-medium/QuickSwapV2Medium.sol\":7509:7510  0 */\n      0x00\n        /* \"contracts/polygon/templates/oracles/quick-swap-medium/QuickSwapV2Medium.sol\":7504:7511  path[0] */\n      dup2\n      mload\n      dup2\n      lt\n      tag_15\n      jumpi\n      tag_16\n      tag_17\n      jump\t// in\n    tag_16:\n    tag_15:\n      0x20\n      mul\n      0x20\n      add\n      add\n        /* \"contracts/polygon/templates/oracles/quick-swap-medium/QuickSwapV2Medium.sol\":7504:7520  path[0] = token0 */\n      swap1\n      0xffffffffffffffffffffffffffffffffffffffff\n      and\n      swap1\n      dup2\n      0xffffffffffffffffffffffffffffffffffffffff\n      and\n      dup2\n      mstore\n      pop\n      pop\n        /* \"contracts/polygon/templates/oracles/quick-swap-medium/QuickSwapV2Medium.sol\":7540:7546  token1 */\n      dup4\n        /* \"contracts/polygon/templates/oracles/quick-swap-medium/QuickSwapV2Medium.sol\":7530:7534  path */\n      dup2\n        /* \"contracts/polygon/templates/oracles/quick-swap-medium/QuickSwapV2Medium.sol\":7535:7536  1 */\n      0x01\n        /* \"contracts/polygon/templates/oracles/quick-swap-medium/QuickSwapV2Medium.sol\":7530:7537  path[1] */\n      dup2\n      mload\n      dup2\n      lt\n      tag_18\n      jumpi\n      tag_19\n      tag_17\n      jump\t// in\n    tag_19:\n    tag_18:\n      0x20\n      mul\n      0x20\n      add\n      add\n        /* \"contracts/polygon/templates/oracles/quick-swap-medium/QuickSwapV2Medium.sol\":7530:7546  path[1] = token1 */\n      swap1\n      0xffffffffffffffffffffffffffffffffffffffff\n      and\n      swap1\n      dup2\n      0xffffffffffffffffffffffffffffffffffffffff\n      and\n      dup2\n      mstore\n      pop\n      pop\n        /* \"contracts/polygon/templates/oracles/quick-swap-medium/QuickSwapV2Medium.sol\":7557:7581  uint[] memory amountsOut */\n      0x00\n        /* \"contracts/polygon/templates/oracles/quick-swap-medium/QuickSwapV2Medium.sol\":7584:7606  quickSwapRouterTestnet */\n      0x01\n      0x00\n      swap1\n      sload\n      swap1\n      0x0100\n      exp\n      swap1\n      div\n      0xffffffffffffffffffffffffffffffffffffffff\n      and\n        /* \"contracts/polygon/templates/oracles/quick-swap-medium/QuickSwapV2Medium.sol\":7584:7620  quickSwapRouterTestnet.getAmountsOut */\n      0xffffffffffffffffffffffffffffffffffffffff\n      and\n      0xd06ca61f\n        /* \"contracts/polygon/templates/oracles/quick-swap-medium/QuickSwapV2Medium.sol\":7621:7629  amountIn */\n      dup6\n        /* \"contracts/polygon/templates/oracles/quick-swap-medium/QuickSwapV2Medium.sol\":7631:7635  path */\n      dup5\n        /* \"contracts/polygon/templates/oracles/quick-swap-medium/QuickSwapV2Medium.sol\":7584:7636  quickSwapRouterTestnet.getAmountsOut(amountIn, path) */\n      mload(0x40)\n      dup4\n      0xffffffff\n      and\n      0xe0\n      shl\n      dup2\n      mstore\n      0x04\n      add\n      tag_20\n      swap3\n      swap2\n      swap1\n      tag_21\n      jump\t// in\n    tag_20:\n      0x00\n      mload(0x40)\n      dup1\n      dup4\n      sub\n      dup2\n      dup7\n      gas\n      staticcall\n      iszero\n      dup1\n      iszero\n      tag_23\n      jumpi\n      returndatasize\n      0x00\n      dup1\n      returndatacopy\n      revert(0x00, returndatasize)\n    tag_23:\n      pop\n      pop\n      pop\n      pop\n      mload(0x40)\n      returndatasize\n      0x00\n      dup3\n      returndatacopy\n      returndatasize\n      not(0x1f)\n      0x1f\n      dup3\n      add\n      and\n      dup3\n      add\n      dup1\n      0x40\n      mstore\n      pop\n      dup2\n      add\n      swap1\n      tag_24\n      swap2\n      swap1\n      tag_25\n      jump\t// in\n    tag_24:\n        /* \"contracts/polygon/templates/oracles/quick-swap-medium/QuickSwapV2Medium.sol\":7557:7636  uint[] memory amountsOut = quickSwapRouterTestnet.getAmountsOut(amountIn, path) */\n      swap1\n      pop\n        /* \"contracts/polygon/templates/oracles/quick-swap-medium/QuickSwapV2Medium.sol\":7653:7663  amountsOut */\n      dup1\n        /* \"contracts/polygon/templates/oracles/quick-swap-medium/QuickSwapV2Medium.sol\":7664:7665  1 */\n      0x01\n        /* \"contracts/polygon/templates/oracles/quick-swap-medium/QuickSwapV2Medium.sol\":7653:7666  amountsOut[1] */\n      dup2\n      mload\n      dup2\n      lt\n      tag_26\n      jumpi\n      tag_27\n      tag_17\n      jump\t// in\n    tag_27:\n    tag_26:\n      0x20\n      mul\n      0x20\n      add\n      add\n      mload\n        /* \"contracts/polygon/templates/oracles/quick-swap-medium/QuickSwapV2Medium.sol\":7646:7666  return amountsOut[1] */\n      swap3\n      pop\n      pop\n      pop\n        /* \"contracts/polygon/templates/oracles/quick-swap-medium/QuickSwapV2Medium.sol\":7339:7673  function getTokenPrice(address token0, address token1, uint amountIn)... */\n      swap4\n      swap3\n      pop\n      pop\n      pop\n      jump\t// out\n        /* \"#utility.yul\":7:82   */\n    tag_28:\n        /* \"#utility.yul\":40:46   */\n      0x00\n        /* \"#utility.yul\":73:75   */\n      0x40\n        /* \"#utility.yul\":67:76   */\n      mload\n        /* \"#utility.yul\":57:76   */\n      swap1\n      pop\n        /* \"#utility.yul\":7:82   */\n      swap1\n      jump\t// out\n        /* \"#utility.yul\":88:205   */\n    tag_29:\n        /* \"#utility.yul\":197:198   */\n      0x00\n        /* \"#utility.yul\":194:195   */\n      dup1\n        /* \"#utility.yul\":187:199   */\n      revert\n        /* \"#utility.yul\":211:328   */\n    tag_30:\n        /* \"#utility.yul\":320:321   */\n      0x00\n        /* \"#utility.yul\":317:318   */\n      dup1\n        /* \"#utility.yul\":310:322   */\n      revert\n        /* \"#utility.yul\":334:460   */\n    tag_31:\n        /* \"#utility.yul\":371:378   */\n      0x00\n        /* \"#utility.yul\":411:453   */\n      0xffffffffffffffffffffffffffffffffffffffff\n        /* \"#utility.yul\":404:409   */\n      dup3\n        /* \"#utility.yul\":400:454   */\n      and\n        /* \"#utility.yul\":389:454   */\n      swap1\n      pop\n        /* \"#utility.yul\":334:460   */\n      swap2\n      swap1\n      pop\n      jump\t// out\n        /* \"#utility.yul\":466:562   */\n    tag_32:\n        /* \"#utility.yul\":503:510   */\n      0x00\n        /* \"#utility.yul\":532:556   */\n      tag_61\n        /* \"#utility.yul\":550:555   */\n      dup3\n        /* \"#utility.yul\":532:556   */\n      tag_31\n      jump\t// in\n    tag_61:\n        /* \"#utility.yul\":521:556   */\n      swap1\n      pop\n        /* \"#utility.yul\":466:562   */\n      swap2\n      swap1\n      pop\n      jump\t// out\n        /* \"#utility.yul\":568:690   */\n    tag_33:\n        /* \"#utility.yul\":641:665   */\n      tag_63\n        /* \"#utility.yul\":659:664   */\n      dup2\n        /* \"#utility.yul\":641:665   */\n      tag_32\n      jump\t// in\n    tag_63:\n        /* \"#utility.yul\":634:639   */\n      dup2\n        /* \"#utility.yul\":631:666   */\n      eq\n        /* \"#utility.yul\":621:684   */\n      tag_64\n      jumpi\n        /* \"#utility.yul\":680:681   */\n      0x00\n        /* \"#utility.yul\":677:678   */\n      dup1\n        /* \"#utility.yul\":670:682   */\n      revert\n        /* \"#utility.yul\":621:684   */\n    tag_64:\n        /* \"#utility.yul\":568:690   */\n      pop\n      jump\t// out\n        /* \"#utility.yul\":696:835   */\n    tag_34:\n        /* \"#utility.yul\":742:747   */\n      0x00\n        /* \"#utility.yul\":780:786   */\n      dup2\n        /* \"#utility.yul\":767:787   */\n      calldataload\n        /* \"#utility.yul\":758:787   */\n      swap1\n      pop\n        /* \"#utility.yul\":796:829   */\n      tag_66\n        /* \"#utility.yul\":823:828   */\n      dup2\n        /* \"#utility.yul\":796:829   */\n      tag_33\n      jump\t// in\n    tag_66:\n        /* \"#utility.yul\":696:835   */\n      swap3\n      swap2\n      pop\n      pop\n      jump\t// out\n        /* \"#utility.yul\":841:918   */\n    tag_35:\n        /* \"#utility.yul\":878:885   */\n      0x00\n        /* \"#utility.yul\":907:912   */\n      dup2\n        /* \"#utility.yul\":896:912   */\n      swap1\n      pop\n        /* \"#utility.yul\":841:918   */\n      swap2\n      swap1\n      pop\n      jump\t// out\n        /* \"#utility.yul\":924:1046   */\n    tag_36:\n        /* \"#utility.yul\":997:1021   */\n      tag_69\n        /* \"#utility.yul\":1015:1020   */\n      dup2\n        /* \"#utility.yul\":997:1021   */\n      tag_35\n      jump\t// in\n    tag_69:\n        /* \"#utility.yul\":990:995   */\n      dup2\n        /* \"#utility.yul\":987:1022   */\n      eq\n        /* \"#utility.yul\":977:1040   */\n      tag_70\n      jumpi\n        /* \"#utility.yul\":1036:1037   */\n      0x00\n        /* \"#utility.yul\":1033:1034   */\n      dup1\n        /* \"#utility.yul\":1026:1038   */\n      revert\n        /* \"#utility.yul\":977:1040   */\n    tag_70:\n        /* \"#utility.yul\":924:1046   */\n      pop\n      jump\t// out\n        /* \"#utility.yul\":1052:1191   */\n    tag_37:\n        /* \"#utility.yul\":1098:1103   */\n      0x00\n        /* \"#utility.yul\":1136:1142   */\n      dup2\n        /* \"#utility.yul\":1123:1143   */\n      calldataload\n        /* \"#utility.yul\":1114:1143   */\n      swap1\n      pop\n        /* \"#utility.yul\":1152:1185   */\n      tag_72\n        /* \"#utility.yul\":1179:1184   */\n      dup2\n        /* \"#utility.yul\":1152:1185   */\n      tag_36\n      jump\t// in\n    tag_72:\n        /* \"#utility.yul\":1052:1191   */\n      swap3\n      swap2\n      pop\n      pop\n      jump\t// out\n        /* \"#utility.yul\":1197:1816   */\n    tag_6:\n        /* \"#utility.yul\":1274:1280   */\n      0x00\n        /* \"#utility.yul\":1282:1288   */\n      dup1\n        /* \"#utility.yul\":1290:1296   */\n      0x00\n        /* \"#utility.yul\":1339:1341   */\n      0x60\n        /* \"#utility.yul\":1327:1336   */\n      dup5\n        /* \"#utility.yul\":1318:1325   */\n      dup7\n        /* \"#utility.yul\":1314:1337   */\n      sub\n        /* \"#utility.yul\":1310:1342   */\n      slt\n        /* \"#utility.yul\":1307:1426   */\n      iszero\n      tag_74\n      jumpi\n        /* \"#utility.yul\":1345:1424   */\n      tag_75\n      tag_29\n      jump\t// in\n    tag_75:\n        /* \"#utility.yul\":1307:1426   */\n    tag_74:\n        /* \"#utility.yul\":1465:1466   */\n      0x00\n        /* \"#utility.yul\":1490:1543   */\n      tag_76\n        /* \"#utility.yul\":1535:1542   */\n      dup7\n        /* \"#utility.yul\":1526:1532   */\n      dup3\n        /* \"#utility.yul\":1515:1524   */\n      dup8\n        /* \"#utility.yul\":1511:1533   */\n      add\n        /* \"#utility.yul\":1490:1543   */\n      tag_34\n      jump\t// in\n    tag_76:\n        /* \"#utility.yul\":1480:1543   */\n      swap4\n      pop\n        /* \"#utility.yul\":1436:1553   */\n      pop\n        /* \"#utility.yul\":1592:1594   */\n      0x20\n        /* \"#utility.yul\":1618:1671   */\n      tag_77\n        /* \"#utility.yul\":1663:1670   */\n      dup7\n        /* \"#utility.yul\":1654:1660   */\n      dup3\n        /* \"#utility.yul\":1643:1652   */\n      dup8\n        /* \"#utility.yul\":1639:1661   */\n      add\n        /* \"#utility.yul\":1618:1671   */\n      tag_34\n      jump\t// in\n    tag_77:\n        /* \"#utility.yul\":1608:1671   */\n      swap3\n      pop\n        /* \"#utility.yul\":1563:1681   */\n      pop\n        /* \"#utility.yul\":1720:1722   */\n      0x40\n        /* \"#utility.yul\":1746:1799   */\n      tag_78\n        /* \"#utility.yul\":1791:1798   */\n      dup7\n        /* \"#utility.yul\":1782:1788   */\n      dup3\n        /* \"#utility.yul\":1771:1780   */\n      dup8\n        /* \"#utility.yul\":1767:1789   */\n      add\n        /* \"#utility.yul\":1746:1799   */\n      tag_37\n      jump\t// in\n    tag_78:\n        /* \"#utility.yul\":1736:1799   */\n      swap2\n      pop\n        /* \"#utility.yul\":1691:1809   */\n      pop\n        /* \"#utility.yul\":1197:1816   */\n      swap3\n      pop\n      swap3\n      pop\n      swap3\n      jump\t// out\n        /* \"#utility.yul\":1822:1940   */\n    tag_38:\n        /* \"#utility.yul\":1909:1933   */\n      tag_80\n        /* \"#utility.yul\":1927:1932   */\n      dup2\n        /* \"#utility.yul\":1909:1933   */\n      tag_35\n      jump\t// in\n    tag_80:\n        /* \"#utility.yul\":1904:1907   */\n      dup3\n        /* \"#utility.yul\":1897:1934   */\n      mstore\n        /* \"#utility.yul\":1822:1940   */\n      pop\n      pop\n      jump\t// out\n        /* \"#utility.yul\":1946:2168   */\n    tag_9:\n        /* \"#utility.yul\":2039:2043   */\n      0x00\n        /* \"#utility.yul\":2077:2079   */\n      0x20\n        /* \"#utility.yul\":2066:2075   */\n      dup3\n        /* \"#utility.yul\":2062:2080   */\n      add\n        /* \"#utility.yul\":2054:2080   */\n      swap1\n      pop\n        /* \"#utility.yul\":2090:2161   */\n      tag_82\n        /* \"#utility.yul\":2158:2159   */\n      0x00\n        /* \"#utility.yul\":2147:2156   */\n      dup4\n        /* \"#utility.yul\":2143:2160   */\n      add\n        /* \"#utility.yul\":2134:2140   */\n      dup5\n        /* \"#utility.yul\":2090:2161   */\n      tag_38\n      jump\t// in\n    tag_82:\n        /* \"#utility.yul\":1946:2168   */\n      swap3\n      swap2\n      pop\n      pop\n      jump\t// out\n        /* \"#utility.yul\":2174:2354   */\n    tag_13:\n        /* \"#utility.yul\":2222:2299   */\n      0x4e487b7100000000000000000000000000000000000000000000000000000000\n        /* \"#utility.yul\":2219:2220   */\n      0x00\n        /* \"#utility.yul\":2212:2300   */\n      mstore\n        /* \"#utility.yul\":2319:2323   */\n      0x41\n        /* \"#utility.yul\":2316:2317   */\n      0x04\n        /* \"#utility.yul\":2309:2324   */\n      mstore\n        /* \"#utility.yul\":2343:2347   */\n      0x24\n        /* \"#utility.yul\":2340:2341   */\n      0x00\n        /* \"#utility.yul\":2333:2348   */\n      revert\n        /* \"#utility.yul\":2360:2540   */\n    tag_17:\n        /* \"#utility.yul\":2408:2485   */\n      0x4e487b7100000000000000000000000000000000000000000000000000000000\n        /* \"#utility.yul\":2405:2406   */\n      0x00\n        /* \"#utility.yul\":2398:2486   */\n      mstore\n        /* \"#utility.yul\":2505:2509   */\n      0x32\n        /* \"#utility.yul\":2502:2503   */\n      0x04\n        /* \"#utility.yul\":2495:2510   */\n      mstore\n        /* \"#utility.yul\":2529:2533   */\n      0x24\n        /* \"#utility.yul\":2526:2527   */\n      0x00\n        /* \"#utility.yul\":2519:2534   */\n      revert\n        /* \"#utility.yul\":2546:2660   */\n    tag_39:\n        /* \"#utility.yul\":2613:2619   */\n      0x00\n        /* \"#utility.yul\":2647:2652   */\n      dup2\n        /* \"#utility.yul\":2641:2653   */\n      mload\n        /* \"#utility.yul\":2631:2653   */\n      swap1\n      pop\n        /* \"#utility.yul\":2546:2660   */\n      swap2\n      swap1\n      pop\n      jump\t// out\n        /* \"#utility.yul\":2666:2850   */\n    tag_40:\n        /* \"#utility.yul\":2765:2776   */\n      0x00\n        /* \"#utility.yul\":2799:2805   */\n      dup3\n        /* \"#utility.yul\":2794:2797   */\n      dup3\n        /* \"#utility.yul\":2787:2806   */\n      mstore\n        /* \"#utility.yul\":2839:2843   */\n      0x20\n        /* \"#utility.yul\":2834:2837   */\n      dup3\n        /* \"#utility.yul\":2830:2844   */\n      add\n        /* \"#utility.yul\":2815:2844   */\n      swap1\n      pop\n        /* \"#utility.yul\":2666:2850   */\n      swap3\n      swap2\n      pop\n      pop\n      jump\t// out\n        /* \"#utility.yul\":2856:2988   */\n    tag_41:\n        /* \"#utility.yul\":2923:2927   */\n      0x00\n        /* \"#utility.yul\":2946:2949   */\n      dup2\n        /* \"#utility.yul\":2938:2949   */\n      swap1\n      pop\n        /* \"#utility.yul\":2976:2980   */\n      0x20\n        /* \"#utility.yul\":2971:2974   */\n      dup3\n        /* \"#utility.yul\":2967:2981   */\n      add\n        /* \"#utility.yul\":2959:2981   */\n      swap1\n      pop\n        /* \"#utility.yul\":2856:2988   */\n      swap2\n      swap1\n      pop\n      jump\t// out\n        /* \"#utility.yul\":2994:3102   */\n    tag_42:\n        /* \"#utility.yul\":3071:3095   */\n      tag_89\n        /* \"#utility.yul\":3089:3094   */\n      dup2\n        /* \"#utility.yul\":3071:3095   */\n      tag_32\n      jump\t// in\n    tag_89:\n        /* \"#utility.yul\":3066:3069   */\n      dup3\n        /* \"#utility.yul\":3059:3096   */\n      mstore\n        /* \"#utility.yul\":2994:3102   */\n      pop\n      pop\n      jump\t// out\n        /* \"#utility.yul\":3108:3287   */\n    tag_43:\n        /* \"#utility.yul\":3177:3187   */\n      0x00\n        /* \"#utility.yul\":3198:3244   */\n      tag_91\n        /* \"#utility.yul\":3240:3243   */\n      dup4\n        /* \"#utility.yul\":3232:3238   */\n      dup4\n        /* \"#utility.yul\":3198:3244   */\n      tag_42\n      jump\t// in\n    tag_91:\n        /* \"#utility.yul\":3276:3280   */\n      0x20\n        /* \"#utility.yul\":3271:3274   */\n      dup4\n        /* \"#utility.yul\":3267:3281   */\n      add\n        /* \"#utility.yul\":3253:3281   */\n      swap1\n      pop\n        /* \"#utility.yul\":3108:3287   */\n      swap3\n      swap2\n      pop\n      pop\n      jump\t// out\n        /* \"#utility.yul\":3293:3406   */\n    tag_44:\n        /* \"#utility.yul\":3363:3367   */\n      0x00\n        /* \"#utility.yul\":3395:3399   */\n      0x20\n        /* \"#utility.yul\":3390:3393   */\n      dup3\n        /* \"#utility.yul\":3386:3400   */\n      add\n        /* \"#utility.yul\":3378:3400   */\n      swap1\n      pop\n        /* \"#utility.yul\":3293:3406   */\n      swap2\n      swap1\n      pop\n      jump\t// out\n        /* \"#utility.yul\":3442:4174   */\n    tag_45:\n        /* \"#utility.yul\":3561:3564   */\n      0x00\n        /* \"#utility.yul\":3590:3644   */\n      tag_94\n        /* \"#utility.yul\":3638:3643   */\n      dup3\n        /* \"#utility.yul\":3590:3644   */\n      tag_39\n      jump\t// in\n    tag_94:\n        /* \"#utility.yul\":3660:3746   */\n      tag_95\n        /* \"#utility.yul\":3739:3745   */\n      dup2\n        /* \"#utility.yul\":3734:3737   */\n      dup6\n        /* \"#utility.yul\":3660:3746   */\n      tag_40\n      jump\t// in\n    tag_95:\n        /* \"#utility.yul\":3653:3746   */\n      swap4\n      pop\n        /* \"#utility.yul\":3770:3826   */\n      tag_96\n        /* \"#utility.yul\":3820:3825   */\n      dup4\n        /* \"#utility.yul\":3770:3826   */\n      tag_41\n      jump\t// in\n    tag_96:\n        /* \"#utility.yul\":3849:3856   */\n      dup1\n        /* \"#utility.yul\":3880:3881   */\n      0x00\n        /* \"#utility.yul\":3865:4149   */\n    tag_97:\n        /* \"#utility.yul\":3890:3896   */\n      dup4\n        /* \"#utility.yul\":3887:3888   */\n      dup2\n        /* \"#utility.yul\":3884:3897   */\n      lt\n        /* \"#utility.yul\":3865:4149   */\n      iszero\n      tag_99\n      jumpi\n        /* \"#utility.yul\":3966:3972   */\n      dup2\n        /* \"#utility.yul\":3960:3973   */\n      mload\n        /* \"#utility.yul\":3993:4056   */\n      tag_100\n        /* \"#utility.yul\":4052:4055   */\n      dup9\n        /* \"#utility.yul\":4037:4050   */\n      dup3\n        /* \"#utility.yul\":3993:4056   */\n      tag_43\n      jump\t// in\n    tag_100:\n        /* \"#utility.yul\":3986:4056   */\n      swap8\n      pop\n        /* \"#utility.yul\":4079:4139   */\n      tag_101\n        /* \"#utility.yul\":4132:4138   */\n      dup4\n        /* \"#utility.yul\":4079:4139   */\n      tag_44\n      jump\t// in\n    tag_101:\n        /* \"#utility.yul\":4069:4139   */\n      swap3\n      pop\n        /* \"#utility.yul\":3925:4149   */\n      pop\n        /* \"#utility.yul\":3912:3913   */\n      0x01\n        /* \"#utility.yul\":3909:3910   */\n      dup2\n        /* \"#utility.yul\":3905:3914   */\n      add\n        /* \"#utility.yul\":3900:3914   */\n      swap1\n      pop\n        /* \"#utility.yul\":3865:4149   */\n      jump(tag_97)\n    tag_99:\n        /* \"#utility.yul\":3869:3883   */\n      pop\n        /* \"#utility.yul\":4165:4168   */\n      dup6\n        /* \"#utility.yul\":4158:4168   */\n      swap4\n      pop\n        /* \"#utility.yul\":3566:4174   */\n      pop\n      pop\n      pop\n        /* \"#utility.yul\":3442:4174   */\n      swap3\n      swap2\n      pop\n      pop\n      jump\t// out\n        /* \"#utility.yul\":4180:4663   */\n    tag_21:\n        /* \"#utility.yul\":4351:4355   */\n      0x00\n        /* \"#utility.yul\":4389:4391   */\n      0x40\n        /* \"#utility.yul\":4378:4387   */\n      dup3\n        /* \"#utility.yul\":4374:4392   */\n      add\n        /* \"#utility.yul\":4366:4392   */\n      swap1\n      pop\n        /* \"#utility.yul\":4402:4473   */\n      tag_103\n        /* \"#utility.yul\":4470:4471   */\n      0x00\n        /* \"#utility.yul\":4459:4468   */\n      dup4\n        /* \"#utility.yul\":4455:4472   */\n      add\n        /* \"#utility.yul\":4446:4452   */\n      dup6\n        /* \"#utility.yul\":4402:4473   */\n      tag_38\n      jump\t// in\n    tag_103:\n        /* \"#utility.yul\":4520:4529   */\n      dup2\n        /* \"#utility.yul\":4514:4518   */\n      dup2\n        /* \"#utility.yul\":4510:4530   */\n      sub\n        /* \"#utility.yul\":4505:4507   */\n      0x20\n        /* \"#utility.yul\":4494:4503   */\n      dup4\n        /* \"#utility.yul\":4490:4508   */\n      add\n        /* \"#utility.yul\":4483:4531   */\n      mstore\n        /* \"#utility.yul\":4548:4656   */\n      tag_104\n        /* \"#utility.yul\":4651:4655   */\n      dup2\n        /* \"#utility.yul\":4642:4648   */\n      dup5\n        /* \"#utility.yul\":4548:4656   */\n      tag_45\n      jump\t// in\n    tag_104:\n        /* \"#utility.yul\":4540:4656   */\n      swap1\n      pop\n        /* \"#utility.yul\":4180:4663   */\n      swap4\n      swap3\n      pop\n      pop\n      pop\n      jump\t// out\n        /* \"#utility.yul\":4669:4786   */\n    tag_46:\n        /* \"#utility.yul\":4778:4779   */\n      0x00\n        /* \"#utility.yul\":4775:4776   */\n      dup1\n        /* \"#utility.yul\":4768:4780   */\n      revert\n        /* \"#utility.yul\":4792:4894   */\n    tag_47:\n        /* \"#utility.yul\":4833:4839   */\n      0x00\n        /* \"#utility.yul\":4884:4886   */\n      0x1f\n        /* \"#utility.yul\":4880:4887   */\n      not\n        /* \"#utility.yul\":4875:4877   */\n      0x1f\n        /* \"#utility.yul\":4868:4873   */\n      dup4\n        /* \"#utility.yul\":4864:4878   */\n      add\n        /* \"#utility.yul\":4860:4888   */\n      and\n        /* \"#utility.yul\":4850:4888   */\n      swap1\n      pop\n        /* \"#utility.yul\":4792:4894   */\n      swap2\n      swap1\n      pop\n      jump\t// out\n        /* \"#utility.yul\":4900:5181   */\n    tag_48:\n        /* \"#utility.yul\":4983:5010   */\n      tag_108\n        /* \"#utility.yul\":5005:5009   */\n      dup3\n        /* \"#utility.yul\":4983:5010   */\n      tag_47\n      jump\t// in\n    tag_108:\n        /* \"#utility.yul\":4975:4981   */\n      dup2\n        /* \"#utility.yul\":4971:5011   */\n      add\n        /* \"#utility.yul\":5113:5119   */\n      dup2\n        /* \"#utility.yul\":5101:5111   */\n      dup2\n        /* \"#utility.yul\":5098:5120   */\n      lt\n        /* \"#utility.yul\":5077:5095   */\n      0xffffffffffffffff\n        /* \"#utility.yul\":5065:5075   */\n      dup3\n        /* \"#utility.yul\":5062:5096   */\n      gt\n        /* \"#utility.yul\":5059:5121   */\n      or\n        /* \"#utility.yul\":5056:5144   */\n      iszero\n      tag_109\n      jumpi\n        /* \"#utility.yul\":5124:5142   */\n      tag_110\n      tag_13\n      jump\t// in\n    tag_110:\n        /* \"#utility.yul\":5056:5144   */\n    tag_109:\n        /* \"#utility.yul\":5164:5174   */\n      dup1\n        /* \"#utility.yul\":5160:5162   */\n      0x40\n        /* \"#utility.yul\":5153:5175   */\n      mstore\n        /* \"#utility.yul\":4943:5181   */\n      pop\n        /* \"#utility.yul\":4900:5181   */\n      pop\n      pop\n      jump\t// out\n        /* \"#utility.yul\":5187:5316   */\n    tag_49:\n        /* \"#utility.yul\":5221:5227   */\n      0x00\n        /* \"#utility.yul\":5248:5268   */\n      tag_112\n      tag_28\n      jump\t// in\n    tag_112:\n        /* \"#utility.yul\":5238:5268   */\n      swap1\n      pop\n        /* \"#utility.yul\":5277:5310   */\n      tag_113\n        /* \"#utility.yul\":5305:5309   */\n      dup3\n        /* \"#utility.yul\":5297:5303   */\n      dup3\n        /* \"#utility.yul\":5277:5310   */\n      tag_48\n      jump\t// in\n    tag_113:\n        /* \"#utility.yul\":5187:5316   */\n      swap2\n      swap1\n      pop\n      jump\t// out\n        /* \"#utility.yul\":5322:5633   */\n    tag_50:\n        /* \"#utility.yul\":5399:5403   */\n      0x00\n        /* \"#utility.yul\":5489:5507   */\n      0xffffffffffffffff\n        /* \"#utility.yul\":5481:5487   */\n      dup3\n        /* \"#utility.yul\":5478:5508   */\n      gt\n        /* \"#utility.yul\":5475:5531   */\n      iszero\n      tag_115\n      jumpi\n        /* \"#utility.yul\":5511:5529   */\n      tag_116\n      tag_13\n      jump\t// in\n    tag_116:\n        /* \"#utility.yul\":5475:5531   */\n    tag_115:\n        /* \"#utility.yul\":5561:5565   */\n      0x20\n        /* \"#utility.yul\":5553:5559   */\n      dup3\n        /* \"#utility.yul\":5549:5566   */\n      mul\n        /* \"#utility.yul\":5541:5566   */\n      swap1\n      pop\n        /* \"#utility.yul\":5621:5625   */\n      0x20\n        /* \"#utility.yul\":5615:5619   */\n      dup2\n        /* \"#utility.yul\":5611:5626   */\n      add\n        /* \"#utility.yul\":5603:5626   */\n      swap1\n      pop\n        /* \"#utility.yul\":5322:5633   */\n      swap2\n      swap1\n      pop\n      jump\t// out\n        /* \"#utility.yul\":5639:5756   */\n    tag_51:\n        /* \"#utility.yul\":5748:5749   */\n      0x00\n        /* \"#utility.yul\":5745:5746   */\n      dup1\n        /* \"#utility.yul\":5738:5750   */\n      revert\n        /* \"#utility.yul\":5762:5905   */\n    tag_52:\n        /* \"#utility.yul\":5819:5824   */\n      0x00\n        /* \"#utility.yul\":5850:5856   */\n      dup2\n        /* \"#utility.yul\":5844:5857   */\n      mload\n        /* \"#utility.yul\":5835:5857   */\n      swap1\n      pop\n        /* \"#utility.yul\":5866:5899   */\n      tag_119\n        /* \"#utility.yul\":5893:5898   */\n      dup2\n        /* \"#utility.yul\":5866:5899   */\n      tag_36\n      jump\t// in\n    tag_119:\n        /* \"#utility.yul\":5762:5905   */\n      swap3\n      swap2\n      pop\n      pop\n      jump\t// out\n        /* \"#utility.yul\":5928:6660   */\n    tag_53:\n        /* \"#utility.yul\":6035:6040   */\n      0x00\n        /* \"#utility.yul\":6060:6141   */\n      tag_121\n        /* \"#utility.yul\":6076:6140   */\n      tag_122\n        /* \"#utility.yul\":6133:6139   */\n      dup5\n        /* \"#utility.yul\":6076:6140   */\n      tag_50\n      jump\t// in\n    tag_122:\n        /* \"#utility.yul\":6060:6141   */\n      tag_49\n      jump\t// in\n    tag_121:\n        /* \"#utility.yul\":6051:6141   */\n      swap1\n      pop\n        /* \"#utility.yul\":6161:6166   */\n      dup1\n        /* \"#utility.yul\":6190:6196   */\n      dup4\n        /* \"#utility.yul\":6183:6188   */\n      dup3\n        /* \"#utility.yul\":6176:6197   */\n      mstore\n        /* \"#utility.yul\":6224:6228   */\n      0x20\n        /* \"#utility.yul\":6217:6222   */\n      dup3\n        /* \"#utility.yul\":6213:6229   */\n      add\n        /* \"#utility.yul\":6206:6229   */\n      swap1\n      pop\n        /* \"#utility.yul\":6277:6281   */\n      0x20\n        /* \"#utility.yul\":6269:6275   */\n      dup5\n        /* \"#utility.yul\":6265:6282   */\n      mul\n        /* \"#utility.yul\":6257:6263   */\n      dup4\n        /* \"#utility.yul\":6253:6283   */\n      add\n        /* \"#utility.yul\":6306:6309   */\n      dup6\n        /* \"#utility.yul\":6298:6304   */\n      dup2\n        /* \"#utility.yul\":6295:6310   */\n      gt\n        /* \"#utility.yul\":6292:6414   */\n      iszero\n      tag_123\n      jumpi\n        /* \"#utility.yul\":6325:6404   */\n      tag_124\n      tag_51\n      jump\t// in\n    tag_124:\n        /* \"#utility.yul\":6292:6414   */\n    tag_123:\n        /* \"#utility.yul\":6440:6446   */\n      dup4\n        /* \"#utility.yul\":6423:6654   */\n    tag_125:\n        /* \"#utility.yul\":6457:6463   */\n      dup2\n        /* \"#utility.yul\":6452:6455   */\n      dup2\n        /* \"#utility.yul\":6449:6464   */\n      lt\n        /* \"#utility.yul\":6423:6654   */\n      iszero\n      tag_127\n      jumpi\n        /* \"#utility.yul\":6532:6535   */\n      dup1\n        /* \"#utility.yul\":6561:6609   */\n      tag_128\n        /* \"#utility.yul\":6605:6608   */\n      dup9\n        /* \"#utility.yul\":6593:6603   */\n      dup3\n        /* \"#utility.yul\":6561:6609   */\n      tag_52\n      jump\t// in\n    tag_128:\n        /* \"#utility.yul\":6556:6559   */\n      dup5\n        /* \"#utility.yul\":6549:6610   */\n      mstore\n        /* \"#utility.yul\":6639:6643   */\n      0x20\n        /* \"#utility.yul\":6634:6637   */\n      dup5\n        /* \"#utility.yul\":6630:6644   */\n      add\n        /* \"#utility.yul\":6623:6644   */\n      swap4\n      pop\n        /* \"#utility.yul\":6499:6654   */\n      pop\n        /* \"#utility.yul\":6483:6487   */\n      0x20\n        /* \"#utility.yul\":6478:6481   */\n      dup2\n        /* \"#utility.yul\":6474:6488   */\n      add\n        /* \"#utility.yul\":6467:6488   */\n      swap1\n      pop\n        /* \"#utility.yul\":6423:6654   */\n      jump(tag_125)\n    tag_127:\n        /* \"#utility.yul\":6427:6448   */\n      pop\n        /* \"#utility.yul\":6041:6660   */\n      pop\n      pop\n        /* \"#utility.yul\":5928:6660   */\n      swap4\n      swap3\n      pop\n      pop\n      pop\n      jump\t// out\n        /* \"#utility.yul\":6683:7068   */\n    tag_54:\n        /* \"#utility.yul\":6765:6770   */\n      0x00\n        /* \"#utility.yul\":6814:6817   */\n      dup3\n        /* \"#utility.yul\":6807:6811   */\n      0x1f\n        /* \"#utility.yul\":6799:6805   */\n      dup4\n        /* \"#utility.yul\":6795:6812   */\n      add\n        /* \"#utility.yul\":6791:6818   */\n      slt\n        /* \"#utility.yul\":6781:6903   */\n      tag_130\n      jumpi\n        /* \"#utility.yul\":6822:6901   */\n      tag_131\n      tag_46\n      jump\t// in\n    tag_131:\n        /* \"#utility.yul\":6781:6903   */\n    tag_130:\n        /* \"#utility.yul\":6932:6938   */\n      dup2\n        /* \"#utility.yul\":6926:6939   */\n      mload\n        /* \"#utility.yul\":6957:7062   */\n      tag_132\n        /* \"#utility.yul\":7058:7061   */\n      dup5\n        /* \"#utility.yul\":7050:7056   */\n      dup3\n        /* \"#utility.yul\":7043:7047   */\n      0x20\n        /* \"#utility.yul\":7035:7041   */\n      dup7\n        /* \"#utility.yul\":7031:7048   */\n      add\n        /* \"#utility.yul\":6957:7062   */\n      tag_53\n      jump\t// in\n    tag_132:\n        /* \"#utility.yul\":6948:7062   */\n      swap2\n      pop\n        /* \"#utility.yul\":6771:7068   */\n      pop\n        /* \"#utility.yul\":6683:7068   */\n      swap3\n      swap2\n      pop\n      pop\n      jump\t// out\n        /* \"#utility.yul\":7074:7628   */\n    tag_25:\n        /* \"#utility.yul\":7169:7175   */\n      0x00\n        /* \"#utility.yul\":7218:7220   */\n      0x20\n        /* \"#utility.yul\":7206:7215   */\n      dup3\n        /* \"#utility.yul\":7197:7204   */\n      dup5\n        /* \"#utility.yul\":7193:7216   */\n      sub\n        /* \"#utility.yul\":7189:7221   */\n      slt\n        /* \"#utility.yul\":7186:7305   */\n      iszero\n      tag_134\n      jumpi\n        /* \"#utility.yul\":7224:7303   */\n      tag_135\n      tag_29\n      jump\t// in\n    tag_135:\n        /* \"#utility.yul\":7186:7305   */\n    tag_134:\n        /* \"#utility.yul\":7365:7366   */\n      0x00\n        /* \"#utility.yul\":7354:7363   */\n      dup3\n        /* \"#utility.yul\":7350:7367   */\n      add\n        /* \"#utility.yul\":7344:7368   */\n      mload\n        /* \"#utility.yul\":7395:7413   */\n      0xffffffffffffffff\n        /* \"#utility.yul\":7387:7393   */\n      dup2\n        /* \"#utility.yul\":7384:7414   */\n      gt\n        /* \"#utility.yul\":7381:7498   */\n      iszero\n      tag_136\n      jumpi\n        /* \"#utility.yul\":7417:7496   */\n      tag_137\n      tag_30\n      jump\t// in\n    tag_137:\n        /* \"#utility.yul\":7381:7498   */\n    tag_136:\n        /* \"#utility.yul\":7522:7611   */\n      tag_138\n        /* \"#utility.yul\":7603:7610   */\n      dup5\n        /* \"#utility.yul\":7594:7600   */\n      dup3\n        /* \"#utility.yul\":7583:7592   */\n      dup6\n        /* \"#utility.yul\":7579:7601   */\n      add\n        /* \"#utility.yul\":7522:7611   */\n      tag_54\n      jump\t// in\n    tag_138:\n        /* \"#utility.yul\":7512:7611   */\n      swap2\n      pop\n        /* \"#utility.yul\":7315:7621   */\n      pop\n        /* \"#utility.yul\":7074:7628   */\n      swap3\n      swap2\n      pop\n      pop\n      jump\t// out\n\n    auxdata: 0xa2646970667358221220aa0da8b0c6958d77e108cd92b22303d939639bb54e991bc6771a4b94d4b0de3964736f6c63430008130033\n}\n",
				"bytecode": {
					"linkReferences": {},
					"object": "608060405273a5e0829caced8ffdd4de3c43696c57f7d7a678ff6000806101000a81548173ffffffffffffffffffffffffffffffffffffffff021916908373ffffffffffffffffffffffffffffffffffffffff160217905550738954afa98594b838bda56fe4c12a09d7739d179b600160006101000a81548173ffffffffffffffffffffffffffffffffffffffff021916908373ffffffffffffffffffffffffffffffffffffffff1602179055503480156100b957600080fd5b5061064a806100c96000396000f3fe608060405234801561001057600080fd5b506004361061002b5760003560e01c8063564eb91c14610030575b600080fd5b61004a600480360381019061004591906102c3565b610060565b6040516100579190610325565b60405180910390f35b600080600267ffffffffffffffff81111561007e5761007d610340565b5b6040519080825280602002602001820160405280156100ac5781602001602082028036833780820191505090505b50905084816000815181106100c4576100c361036f565b5b602002602001019073ffffffffffffffffffffffffffffffffffffffff16908173ffffffffffffffffffffffffffffffffffffffff168152505083816001815181106101135761011261036f565b5b602002602001019073ffffffffffffffffffffffffffffffffffffffff16908173ffffffffffffffffffffffffffffffffffffffff16815250506000600160009054906101000a900473ffffffffffffffffffffffffffffffffffffffff1673ffffffffffffffffffffffffffffffffffffffff1663d06ca61f85846040518363ffffffff1660e01b81526004016101ac92919061045c565b600060405180830381865afa1580156101c9573d6000803e3d6000fd5b505050506040513d6000823e3d601f19601f820116820180604052508101906101f291906105cb565b9050806001815181106102085761020761036f565b5b6020026020010151925050509392505050565b6000604051905090565b600080fd5b600080fd5b600073ffffffffffffffffffffffffffffffffffffffff82169050919050565b600061025a8261022f565b9050919050565b61026a8161024f565b811461027557600080fd5b50565b60008135905061028781610261565b92915050565b6000819050919050565b6102a08161028d565b81146102ab57600080fd5b50565b6000813590506102bd81610297565b92915050565b6000806000606084860312156102dc576102db610225565b5b60006102ea86828701610278565b93505060206102fb86828701610278565b925050604061030c868287016102ae565b9150509250925092565b61031f8161028d565b82525050565b600060208201905061033a6000830184610316565b92915050565b7f4e487b7100000000000000000000000000000000000000000000000000000000600052604160045260246000fd5b7f4e487b7100000000000000000000000000000000000000000000000000000000600052603260045260246000fd5b600081519050919050565b600082825260208201905092915050565b6000819050602082019050919050565b6103d38161024f565b82525050565b60006103e583836103ca565b60208301905092915050565b6000602082019050919050565b60006104098261039e565b61041381856103a9565b935061041e836103ba565b8060005b8381101561044f57815161043688826103d9565b9750610441836103f1565b925050600181019050610422565b5085935050505092915050565b60006040820190506104716000830185610316565b818103602083015261048381846103fe565b90509392505050565b600080fd5b6000601f19601f8301169050919050565b6104ab82610491565b810181811067ffffffffffffffff821117156104ca576104c9610340565b5b80604052505050565b60006104dd61021b565b90506104e982826104a2565b919050565b600067ffffffffffffffff82111561050957610508610340565b5b602082029050602081019050919050565b600080fd5b60008151905061052e81610297565b92915050565b6000610547610542846104ee565b6104d3565b9050808382526020820190506020840283018581111561056a5761056961051a565b5b835b81811015610593578061057f888261051f565b84526020840193505060208101905061056c565b5050509392505050565b600082601f8301126105b2576105b161048c565b5b81516105c2848260208601610534565b91505092915050565b6000602082840312156105e1576105e0610225565b5b600082015167ffffffffffffffff8111156105ff576105fe61022a565b5b61060b8482850161059d565b9150509291505056fea2646970667358221220aa0da8b0c6958d77e108cd92b22303d939639bb54e991bc6771a4b94d4b0de3964736f6c63430008130033",
					"opcodes": "PUSH1 0x80 PUSH1 0x40 MSTORE PUSH20 0xA5E0829CACED8FFDD4DE3C43696C57F7D7A678FF PUSH1 0x0 DUP1 PUSH2 0x100 EXP DUP2 SLOAD DUP2 PUSH20 0xFFFFFFFFFFFFFFFFFFFFFFFFFFFFFFFFFFFFFFFF MUL NOT AND SWAP1 DUP4 PUSH20 0xFFFFFFFFFFFFFFFFFFFFFFFFFFFFFFFFFFFFFFFF AND MUL OR SWAP1 SSTORE POP PUSH20 0x8954AFA98594B838BDA56FE4C12A09D7739D179B PUSH1 0x1 PUSH1 0x0 PUSH2 0x100 EXP DUP2 SLOAD DUP2 PUSH20 0xFFFFFFFFFFFFFFFFFFFFFFFFFFFFFFFFFFFFFFFF MUL NOT AND SWAP1 DUP4 PUSH20 0xFFFFFFFFFFFFFFFFFFFFFFFFFFFFFFFFFFFFFFFF AND MUL OR SWAP1 SSTORE POP CALLVALUE DUP1 ISZERO PUSH2 0xB9 JUMPI PUSH1 0x0 DUP1 REVERT JUMPDEST POP PUSH2 0x64A DUP1 PUSH2 0xC9 PUSH1 0x0 CODECOPY PUSH1 0x0 RETURN INVALID PUSH1 0x80 PUSH1 0x40 MSTORE CALLVALUE DUP1 ISZERO PUSH2 0x10 JUMPI PUSH1 0x0 DUP1 REVERT JUMPDEST POP PUSH1 0x4 CALLDATASIZE LT PUSH2 0x2B JUMPI PUSH1 0x0 CALLDATALOAD PUSH1 0xE0 SHR DUP1 PUSH4 0x564EB91C EQ PUSH2 0x30 JUMPI JUMPDEST PUSH1 0x0 DUP1 REVERT JUMPDEST PUSH2 0x4A PUSH1 0x4 DUP1 CALLDATASIZE SUB DUP2 ADD SWAP1 PUSH2 0x45 SWAP2 SWAP1 PUSH2 0x2C3 JUMP JUMPDEST PUSH2 0x60 JUMP JUMPDEST PUSH1 0x40 MLOAD PUSH2 0x57 SWAP2 SWAP1 PUSH2 0x325 JUMP JUMPDEST PUSH1 0x40 MLOAD DUP1 SWAP2 SUB SWAP1 RETURN JUMPDEST PUSH1 0x0 DUP1 PUSH1 0x2 PUSH8 0xFFFFFFFFFFFFFFFF DUP2 GT ISZERO PUSH2 0x7E JUMPI PUSH2 0x7D PUSH2 0x340 JUMP JUMPDEST JUMPDEST PUSH1 0x40 MLOAD SWAP1 DUP1 DUP3 MSTORE DUP1 PUSH1 0x20 MUL PUSH1 0x20 ADD DUP3 ADD PUSH1 0x40 MSTORE DUP1 ISZERO PUSH2 0xAC JUMPI DUP2 PUSH1 0x20 ADD PUSH1 0x20 DUP3 MUL DUP1 CALLDATASIZE DUP4 CALLDATACOPY DUP1 DUP3 ADD SWAP2 POP POP SWAP1 POP JUMPDEST POP SWAP1 POP DUP5 DUP2 PUSH1 0x0 DUP2 MLOAD DUP2 LT PUSH2 0xC4 JUMPI PUSH2 0xC3 PUSH2 0x36F JUMP JUMPDEST JUMPDEST PUSH1 0x20 MUL PUSH1 0x20 ADD ADD SWAP1 PUSH20 0xFFFFFFFFFFFFFFFFFFFFFFFFFFFFFFFFFFFFFFFF AND SWAP1 DUP2 PUSH20 0xFFFFFFFFFFFFFFFFFFFFFFFFFFFFFFFFFFFFFFFF AND DUP2 MSTORE POP POP DUP4 DUP2 PUSH1 0x1 DUP2 MLOAD DUP2 LT PUSH2 0x113 JUMPI PUSH2 0x112 PUSH2 0x36F JUMP JUMPDEST JUMPDEST PUSH1 0x20 MUL PUSH1 0x20 ADD ADD SWAP1 PUSH20 0xFFFFFFFFFFFFFFFFFFFFFFFFFFFFFFFFFFFFFFFF AND SWAP1 DUP2 PUSH20 0xFFFFFFFFFFFFFFFFFFFFFFFFFFFFFFFFFFFFFFFF AND DUP2 MSTORE POP POP PUSH1 0x0 PUSH1 0x1 PUSH1 0x0 SWAP1 SLOAD SWAP1 PUSH2 0x100 EXP SWAP1 DIV PUSH20 0xFFFFFFFFFFFFFFFFFFFFFFFFFFFFFFFFFFFFFFFF AND PUSH20 0xFFFFFFFFFFFFFFFFFFFFFFFFFFFFFFFFFFFFFFFF AND PUSH4 0xD06CA61F DUP6 DUP5 PUSH1 0x40 MLOAD DUP4 PUSH4 0xFFFFFFFF AND PUSH1 0xE0 SHL DUP2 MSTORE PUSH1 0x4 ADD PUSH2 0x1AC SWAP3 SWAP2 SWAP1 PUSH2 0x45C JUMP JUMPDEST PUSH1 0x0 PUSH1 0x40 MLOAD DUP1 DUP4 SUB DUP2 DUP7 GAS STATICCALL ISZERO DUP1 ISZERO PUSH2 0x1C9 JUMPI RETURNDATASIZE PUSH1 0x0 DUP1 RETURNDATACOPY RETURNDATASIZE PUSH1 0x0 REVERT JUMPDEST POP POP POP POP PUSH1 0x40 MLOAD RETURNDATASIZE PUSH1 0x0 DUP3 RETURNDATACOPY RETURNDATASIZE PUSH1 0x1F NOT PUSH1 0x1F DUP3 ADD AND DUP3 ADD DUP1 PUSH1 0x40 MSTORE POP DUP2 ADD SWAP1 PUSH2 0x1F2 SWAP2 SWAP1 PUSH2 0x5CB JUMP JUMPDEST SWAP1 POP DUP1 PUSH1 0x1 DUP2 MLOAD DUP2 LT PUSH2 0x208 JUMPI PUSH2 0x207 PUSH2 0x36F JUMP JUMPDEST JUMPDEST PUSH1 0x20 MUL PUSH1 0x20 ADD ADD MLOAD SWAP3 POP POP POP SWAP4 SWAP3 POP POP POP JUMP JUMPDEST PUSH1 0x0 PUSH1 0x40 MLOAD SWAP1 POP SWAP1 JUMP JUMPDEST PUSH1 0x0 DUP1 REVERT JUMPDEST PUSH1 0x0 DUP1 REVERT JUMPDEST PUSH1 0x0 PUSH20 0xFFFFFFFFFFFFFFFFFFFFFFFFFFFFFFFFFFFFFFFF DUP3 AND SWAP1 POP SWAP2 SWAP1 POP JUMP JUMPDEST PUSH1 0x0 PUSH2 0x25A DUP3 PUSH2 0x22F JUMP JUMPDEST SWAP1 POP SWAP2 SWAP1 POP JUMP JUMPDEST PUSH2 0x26A DUP2 PUSH2 0x24F JUMP JUMPDEST DUP2 EQ PUSH2 0x275 JUMPI PUSH1 0x0 DUP1 REVERT JUMPDEST POP JUMP JUMPDEST PUSH1 0x0 DUP2 CALLDATALOAD SWAP1 POP PUSH2 0x287 DUP2 PUSH2 0x261 JUMP JUMPDEST SWAP3 SWAP2 POP POP JUMP JUMPDEST PUSH1 0x0 DUP2 SWAP1 POP SWAP2 SWAP1 POP JUMP JUMPDEST PUSH2 0x2A0 DUP2 PUSH2 0x28D JUMP JUMPDEST DUP2 EQ PUSH2 0x2AB JUMPI PUSH1 0x0 DUP1 REVERT JUMPDEST POP JUMP JUMPDEST PUSH1 0x0 DUP2 CALLDATALOAD SWAP1 POP PUSH2 0x2BD DUP2 PUSH2 0x297 JUMP JUMPDEST SWAP3 SWAP2 POP POP JUMP JUMPDEST PUSH1 0x0 DUP1 PUSH1 0x0 PUSH1 0x60 DUP5 DUP7 SUB SLT ISZERO PUSH2 0x2DC JUMPI PUSH2 0x2DB PUSH2 0x225 JUMP JUMPDEST JUMPDEST PUSH1 0x0 PUSH2 0x2EA DUP7 DUP3 DUP8 ADD PUSH2 0x278 JUMP JUMPDEST SWAP4 POP POP PUSH1 0x20 PUSH2 0x2FB DUP7 DUP3 DUP8 ADD PUSH2 0x278 JUMP JUMPDEST SWAP3 POP POP PUSH1 0x40 PUSH2 0x30C DUP7 DUP3 DUP8 ADD PUSH2 0x2AE JUMP JUMPDEST SWAP2 POP POP SWAP3 POP SWAP3 POP SWAP3 JUMP JUMPDEST PUSH2 0x31F DUP2 PUSH2 0x28D JUMP JUMPDEST DUP3 MSTORE POP POP JUMP JUMPDEST PUSH1 0x0 PUSH1 0x20 DUP3 ADD SWAP1 POP PUSH2 0x33A PUSH1 0x0 DUP4 ADD DUP5 PUSH2 0x316 JUMP JUMPDEST SWAP3 SWAP2 POP POP JUMP JUMPDEST PUSH32 0x4E487B7100000000000000000000000000000000000000000000000000000000 PUSH1 0x0 MSTORE PUSH1 0x41 PUSH1 0x4 MSTORE PUSH1 0x24 PUSH1 0x0 REVERT JUMPDEST PUSH32 0x4E487B7100000000000000000000000000000000000000000000000000000000 PUSH1 0x0 MSTORE PUSH1 0x32 PUSH1 0x4 MSTORE PUSH1 0x24 PUSH1 0x0 REVERT JUMPDEST PUSH1 0x0 DUP2 MLOAD SWAP1 POP SWAP2 SWAP1 POP JUMP JUMPDEST PUSH1 0x0 DUP3 DUP3 MSTORE PUSH1 0x20 DUP3 ADD SWAP1 POP SWAP3 SWAP2 POP POP JUMP JUMPDEST PUSH1 0x0 DUP2 SWAP1 POP PUSH1 0x20 DUP3 ADD SWAP1 POP SWAP2 SWAP1 POP JUMP JUMPDEST PUSH2 0x3D3 DUP2 PUSH2 0x24F JUMP JUMPDEST DUP3 MSTORE POP POP JUMP JUMPDEST PUSH1 0x0 PUSH2 0x3E5 DUP4 DUP4 PUSH2 0x3CA JUMP JUMPDEST PUSH1 0x20 DUP4 ADD SWAP1 POP SWAP3 SWAP2 POP POP JUMP JUMPDEST PUSH1 0x0 PUSH1 0x20 DUP3 ADD SWAP1 POP SWAP2 SWAP1 POP JUMP JUMPDEST PUSH1 0x0 PUSH2 0x409 DUP3 PUSH2 0x39E JUMP JUMPDEST PUSH2 0x413 DUP2 DUP6 PUSH2 0x3A9 JUMP JUMPDEST SWAP4 POP PUSH2 0x41E DUP4 PUSH2 0x3BA JUMP JUMPDEST DUP1 PUSH1 0x0 JUMPDEST DUP4 DUP2 LT ISZERO PUSH2 0x44F JUMPI DUP2 MLOAD PUSH2 0x436 DUP9 DUP3 PUSH2 0x3D9 JUMP JUMPDEST SWAP8 POP PUSH2 0x441 DUP4 PUSH2 0x3F1 JUMP JUMPDEST SWAP3 POP POP PUSH1 0x1 DUP2 ADD SWAP1 POP PUSH2 0x422 JUMP JUMPDEST POP DUP6 SWAP4 POP POP POP POP SWAP3 SWAP2 POP POP JUMP JUMPDEST PUSH1 0x0 PUSH1 0x40 DUP3 ADD SWAP1 POP PUSH2 0x471 PUSH1 0x0 DUP4 ADD DUP6 PUSH2 0x316 JUMP JUMPDEST DUP2 DUP2 SUB PUSH1 0x20 DUP4 ADD MSTORE PUSH2 0x483 DUP2 DUP5 PUSH2 0x3FE JUMP JUMPDEST SWAP1 POP SWAP4 SWAP3 POP POP POP JUMP JUMPDEST PUSH1 0x0 DUP1 REVERT JUMPDEST PUSH1 0x0 PUSH1 0x1F NOT PUSH1 0x1F DUP4 ADD AND SWAP1 POP SWAP2 SWAP1 POP JUMP JUMPDEST PUSH2 0x4AB DUP3 PUSH2 0x491 JUMP JUMPDEST DUP2 ADD DUP2 DUP2 LT PUSH8 0xFFFFFFFFFFFFFFFF DUP3 GT OR ISZERO PUSH2 0x4CA JUMPI PUSH2 0x4C9 PUSH2 0x340 JUMP JUMPDEST JUMPDEST DUP1 PUSH1 0x40 MSTORE POP POP POP JUMP JUMPDEST PUSH1 0x0 PUSH2 0x4DD PUSH2 0x21B JUMP JUMPDEST SWAP1 POP PUSH2 0x4E9 DUP3 DUP3 PUSH2 0x4A2 JUMP JUMPDEST SWAP2 SWAP1 POP JUMP JUMPDEST PUSH1 0x0 PUSH8 0xFFFFFFFFFFFFFFFF DUP3 GT ISZERO PUSH2 0x509 JUMPI PUSH2 0x508 PUSH2 0x340 JUMP JUMPDEST JUMPDEST PUSH1 0x20 DUP3 MUL SWAP1 POP PUSH1 0x20 DUP2 ADD SWAP1 POP SWAP2 SWAP1 POP JUMP JUMPDEST PUSH1 0x0 DUP1 REVERT JUMPDEST PUSH1 0x0 DUP2 MLOAD SWAP1 POP PUSH2 0x52E DUP2 PUSH2 0x297 JUMP JUMPDEST SWAP3 SWAP2 POP POP JUMP JUMPDEST PUSH1 0x0 PUSH2 0x547 PUSH2 0x542 DUP5 PUSH2 0x4EE JUMP JUMPDEST PUSH2 0x4D3 JUMP JUMPDEST SWAP1 POP DUP1 DUP4 DUP3 MSTORE PUSH1 0x20 DUP3 ADD SWAP1 POP PUSH1 0x20 DUP5 MUL DUP4 ADD DUP6 DUP2 GT ISZERO PUSH2 0x56A JUMPI PUSH2 0x569 PUSH2 0x51A JUMP JUMPDEST JUMPDEST DUP4 JUMPDEST DUP2 DUP2 LT ISZERO PUSH2 0x593 JUMPI DUP1 PUSH2 0x57F DUP9 DUP3 PUSH2 0x51F JUMP JUMPDEST DUP5 MSTORE PUSH1 0x20 DUP5 ADD SWAP4 POP POP PUSH1 0x20 DUP2 ADD SWAP1 POP PUSH2 0x56C JUMP JUMPDEST POP POP POP SWAP4 SWAP3 POP POP POP JUMP JUMPDEST PUSH1 0x0 DUP3 PUSH1 0x1F DUP4 ADD SLT PUSH2 0x5B2 JUMPI PUSH2 0x5B1 PUSH2 0x48C JUMP JUMPDEST JUMPDEST DUP2 MLOAD PUSH2 0x5C2 DUP5 DUP3 PUSH1 0x20 DUP7 ADD PUSH2 0x534 JUMP JUMPDEST SWAP2 POP POP SWAP3 SWAP2 POP POP JUMP JUMPDEST PUSH1 0x0 PUSH1 0x20 DUP3 DUP5 SUB SLT ISZERO PUSH2 0x5E1 JUMPI PUSH2 0x5E0 PUSH2 0x225 JUMP JUMPDEST JUMPDEST PUSH1 0x0 DUP3 ADD MLOAD PUSH8 0xFFFFFFFFFFFFFFFF DUP2 GT ISZERO PUSH2 0x5FF JUMPI PUSH2 0x5FE PUSH2 0x22A JUMP JUMPDEST JUMPDEST PUSH2 0x60B DUP5 DUP3 DUP6 ADD PUSH2 0x59D JUMP JUMPDEST SWAP2 POP POP SWAP3 SWAP2 POP POP JUMP INVALID LOG2 PUSH5 0x6970667358 0x22 SLT KECCAK256 0xAA 0xD 0xA8 0xB0 0xC6 SWAP6 DUP14 PUSH24 0xE108CD92B22303D939639BB54E991BC6771A4B94D4B0DE39 PUSH5 0x736F6C6343 STOP ADDMOD SGT STOP CALLER "
				},
				"gasEstimates": {
					"creation": {
						"codeDepositCost": "322000",
						"executionCost": "48896",
						"totalCost": "370896"
					},
					"external": {
						"getTokenPrice(address,address,uint256)": "infinite"
					}
				},
				"methodIdentifiers": {
					"getTokenPrice(address,address,uint256)": "564eb91c"
				}
			},
			"storageLayout": {
				"storage": [
					{
						"astId": 1271,
						"contract": "contracts/polygon/templates/oracles/quick-swap-medium/QuickSwapV2Medium.sol:QuickSwapV2Medium",
						"label": "quickSwapRouter",
						"offset": 0,
						"slot": "0",
						"type": "t_contract(IUniswapV2Router01)921"
					},
					{
						"astId": 1277,
						"contract": "contracts/polygon/templates/oracles/quick-swap-medium/QuickSwapV2Medium.sol:QuickSwapV2Medium",
						"label": "quickSwapRouterTestnet",
						"offset": 0,
						"slot": "1",
						"type": "t_contract(IUniswapV2Router01)921"
					}
				],
				"types": {
					"t_contract(IUniswapV2Router01)921": {
						"encoding": "inplace",
						"label": "contract IUniswapV2Router01",
						"numberOfBytes": "20"
					}
				}
			},
			"userdoc": {
				"kind": "user",
				"methods": {},
				"version": 1
			}
		}
	}
}