{
	"contracts/polygon/abstract/proxy/BaseFactory.sol": {
		"BaseFactory": {
			"abi": [
				{
					"inputs": [
						{
							"internalType": "address",
							"name": "defaultImplementation",
							"type": "address"
						}
					],
					"stateMutability": "nonpayable",
					"type": "constructor"
				},
				{
					"anonymous": false,
					"inputs": [
						{
							"indexed": true,
							"internalType": "address",
							"name": "newBase",
							"type": "address"
						}
					],
					"name": "Deployed",
					"type": "event"
				},
				{
					"anonymous": false,
					"inputs": [
						{
							"indexed": true,
							"internalType": "address",
							"name": "previousOwner",
							"type": "address"
						},
						{
							"indexed": true,
							"internalType": "address",
							"name": "newOwner",
							"type": "address"
						}
					],
					"name": "OwnershipTransferred",
					"type": "event"
				},
				{
					"inputs": [
						{
							"internalType": "uint256",
							"name": "deployedId",
							"type": "uint256"
						}
					],
					"name": "addressDeployedTo",
					"outputs": [
						{
							"internalType": "address",
							"name": "",
							"type": "address"
						}
					],
					"stateMutability": "view",
					"type": "function"
				},
				{
					"inputs": [],
					"name": "defaultImplementation",
					"outputs": [
						{
							"internalType": "address",
							"name": "",
							"type": "address"
						}
					],
					"stateMutability": "view",
					"type": "function"
				},
				{
					"inputs": [],
					"name": "deploy",
					"outputs": [
						{
							"internalType": "address",
							"name": "",
							"type": "address"
						}
					],
					"stateMutability": "nonpayable",
					"type": "function"
				},
				{
					"inputs": [],
					"name": "owner",
					"outputs": [
						{
							"internalType": "address",
							"name": "",
							"type": "address"
						}
					],
					"stateMutability": "view",
					"type": "function"
				},
				{
					"inputs": [],
					"name": "renounceOwnership",
					"outputs": [],
					"stateMutability": "nonpayable",
					"type": "function"
				},
				{
					"inputs": [
						{
							"internalType": "address",
							"name": "newOwner",
							"type": "address"
						}
					],
					"name": "transferOwnership",
					"outputs": [],
					"stateMutability": "nonpayable",
					"type": "function"
				}
			],
			"devdoc": {
				"events": {
					"Deployed(address)": {
						"params": {
							"newBase": "The address of the newly deployed Base contract."
						}
					}
				},
				"kind": "dev",
				"methods": {
					"addressDeployedTo(uint256)": {
						"details": "Returns the address of the deployed contract at the specified index.",
						"params": {
							"deployedId": "The index of the deployed contract."
						},
						"returns": {
							"_0": "The address of the deployed contract."
						}
					},
					"constructor": {
						"details": "Constructor to set the default implementation address and transfer ownership to the deployer.",
						"params": {
							"defaultImplementation": "The address of the default implementation."
						}
					},
					"defaultImplementation()": {
						"details": "Returns the address of the default implementation.",
						"returns": {
							"_0": "The address of the default implementation."
						}
					},
					"deploy()": {
						"details": "Deploys a new Base contract and returns its address.",
						"returns": {
							"_0": "The address of the newly deployed Base contract."
						}
					},
					"owner()": {
						"details": "Returns the address of the current owner."
					},
					"renounceOwnership()": {
						"details": "Leaves the contract without owner. It will not be possible to call `onlyOwner` functions. Can only be called by the current owner. NOTE: Renouncing ownership will leave the contract without an owner, thereby disabling any functionality that is only available to the owner."
					},
					"transferOwnership(address)": {
						"details": "Transfers ownership of the contract to a new account (`newOwner`). Can only be called by the current owner."
					}
				},
				"version": 1
			},
			"evm": {
				"assembly": "    /* \"contracts/polygon/abstract/proxy/BaseFactory.sol\":250:2295  contract BaseFactory is Ownable {... */\n  mstore(0x40, 0x80)\n    /* \"contracts/polygon/abstract/proxy/BaseFactory.sol\":898:1024  constructor(address defaultImplementation) Ownable(msg.sender) {... */\n  callvalue\n  dup1\n  iszero\n  tag_1\n  jumpi\n  0x00\n  dup1\n  revert\ntag_1:\n  pop\n  mload(0x40)\n  sub(codesize, bytecodeSize)\n  dup1\n  bytecodeSize\n  dup4\n  codecopy\n  dup2\n  add\n  0x40\n  dup2\n  swap1\n  mstore\n  tag_2\n  swap2\n  tag_3\n  jump\t// in\ntag_2:\n    /* \"contracts/polygon/abstract/proxy/BaseFactory.sol\":949:959  msg.sender */\n  caller\n    /* \"contracts/polygon/external/openzeppelin/access/Ownable.sol\":957:989  _transferOwnership(initialOwner) */\n  tag_7\n    /* \"contracts/polygon/abstract/proxy/BaseFactory.sol\":949:959  msg.sender */\n  dup2\n    /* \"contracts/polygon/external/openzeppelin/access/Ownable.sol\":957:975  _transferOwnership */\n  tag_8\n    /* \"contracts/polygon/external/openzeppelin/access/Ownable.sol\":957:989  _transferOwnership(initialOwner) */\n  jump\t// in\ntag_7:\n  pop\n    /* \"contracts/polygon/abstract/proxy/BaseFactory.sol\":971:993  _defaultImplementation */\n  0x02\n    /* \"contracts/polygon/abstract/proxy/BaseFactory.sol\":971:1017  _defaultImplementation = defaultImplementation */\n  dup1\n  sload\n  not(sub(shl(0xa0, 0x01), 0x01))\n  and\n  sub(shl(0xa0, 0x01), 0x01)\n  swap3\n  swap1\n  swap3\n  and\n  swap2\n  swap1\n  swap2\n  or\n  swap1\n  sstore\n    /* \"contracts/polygon/abstract/proxy/BaseFactory.sol\":250:2295  contract BaseFactory is Ownable {... */\n  jump(tag_12)\n    /* \"contracts/polygon/external/openzeppelin/access/Ownable.sol\":2447:2634  function _transferOwnership(address newOwner) internal virtual {... */\ntag_8:\n    /* \"contracts/polygon/external/openzeppelin/access/Ownable.sol\":2520:2536  address oldOwner */\n  0x00\n    /* \"contracts/polygon/external/openzeppelin/access/Ownable.sol\":2539:2545  _owner */\n  dup1\n  sload\n  sub(shl(0xa0, 0x01), 0x01)\n    /* \"contracts/polygon/external/openzeppelin/access/Ownable.sol\":2555:2572  _owner = newOwner */\n  dup4\n  dup2\n  and\n  not(sub(shl(0xa0, 0x01), 0x01))\n  dup4\n  and\n  dup2\n  or\n  dup5\n  sstore\n    /* \"contracts/polygon/external/openzeppelin/access/Ownable.sol\":2587:2627  OwnershipTransferred(oldOwner, newOwner) */\n  mload(0x40)\n    /* \"contracts/polygon/external/openzeppelin/access/Ownable.sol\":2539:2545  _owner */\n  swap2\n  swap1\n  swap3\n  and\n  swap3\n  dup4\n  swap2\n    /* \"contracts/polygon/external/openzeppelin/access/Ownable.sol\":2587:2627  OwnershipTransferred(oldOwner, newOwner) */\n  0x8be0079c531659141344cd1fd0a4f28419497f9722a3daafe3b4186f6b6457e0\n  swap2\n    /* \"contracts/polygon/external/openzeppelin/access/Ownable.sol\":2520:2536  address oldOwner */\n  swap1\n    /* \"contracts/polygon/external/openzeppelin/access/Ownable.sol\":2587:2627  OwnershipTransferred(oldOwner, newOwner) */\n  log3\n    /* \"contracts/polygon/external/openzeppelin/access/Ownable.sol\":2510:2634  {... */\n  pop\n    /* \"contracts/polygon/external/openzeppelin/access/Ownable.sol\":2447:2634  function _transferOwnership(address newOwner) internal virtual {... */\n  pop\n  jump\t// out\n    /* \"#utility.yul\":14:304   */\ntag_3:\n    /* \"#utility.yul\":84:90   */\n  0x00\n    /* \"#utility.yul\":137:139   */\n  0x20\n    /* \"#utility.yul\":125:134   */\n  dup3\n    /* \"#utility.yul\":116:123   */\n  dup5\n    /* \"#utility.yul\":112:135   */\n  sub\n    /* \"#utility.yul\":108:140   */\n  slt\n    /* \"#utility.yul\":105:157   */\n  iszero\n  tag_14\n  jumpi\n    /* \"#utility.yul\":153:154   */\n  0x00\n    /* \"#utility.yul\":150:151   */\n  dup1\n    /* \"#utility.yul\":143:155   */\n  revert\n    /* \"#utility.yul\":105:157   */\ntag_14:\n    /* \"#utility.yul\":179:195   */\n  dup2\n  mload\n  sub(shl(0xa0, 0x01), 0x01)\n    /* \"#utility.yul\":224:255   */\n  dup2\n  and\n    /* \"#utility.yul\":214:256   */\n  dup2\n  eq\n    /* \"#utility.yul\":204:274   */\n  tag_15\n  jumpi\n    /* \"#utility.yul\":270:271   */\n  0x00\n    /* \"#utility.yul\":267:268   */\n  dup1\n    /* \"#utility.yul\":260:272   */\n  revert\n    /* \"#utility.yul\":204:274   */\ntag_15:\n    /* \"#utility.yul\":293:298   */\n  swap4\n    /* \"#utility.yul\":14:304   */\n  swap3\n  pop\n  pop\n  pop\n  jump\t// out\ntag_12:\n    /* \"contracts/polygon/abstract/proxy/BaseFactory.sol\":250:2295  contract BaseFactory is Ownable {... */\n  dataSize(sub_0)\n  dup1\n  dataOffset(sub_0)\n  0x00\n  codecopy\n  0x00\n  return\nstop\n\nsub_0: assembly {\n        /* \"contracts/polygon/abstract/proxy/BaseFactory.sol\":250:2295  contract BaseFactory is Ownable {... */\n      mstore(0x40, 0x80)\n      callvalue\n      dup1\n      iszero\n      tag_1\n      jumpi\n      0x00\n      dup1\n      revert\n    tag_1:\n      pop\n      jumpi(tag_2, lt(calldatasize, 0x04))\n      shr(0xe0, calldataload(0x00))\n      dup1\n      0x715018a6\n      eq\n      tag_3\n      jumpi\n      dup1\n      0x775c300c\n      eq\n      tag_4\n      jumpi\n      dup1\n      0x8da5cb5b\n      eq\n      tag_5\n      jumpi\n      dup1\n      0x8df3072d\n      eq\n      tag_6\n      jumpi\n      dup1\n      0xb39c4593\n      eq\n      tag_7\n      jumpi\n      dup1\n      0xf2fde38b\n      eq\n      tag_8\n      jumpi\n    tag_2:\n      0x00\n      dup1\n      revert\n        /* \"contracts/polygon/external/openzeppelin/access/Ownable.sol\":1845:1946  function renounceOwnership() public virtual onlyOwner {... */\n    tag_3:\n      tag_9\n      tag_10\n      jump\t// in\n    tag_9:\n      stop\n        /* \"contracts/polygon/abstract/proxy/BaseFactory.sol\":1781:2293  function deploy() public virtual returns (address) {... */\n    tag_4:\n      tag_11\n      tag_12\n      jump\t// in\n    tag_11:\n      mload(0x40)\n      sub(shl(0xa0, 0x01), 0x01)\n        /* \"#utility.yul\":178:210   */\n      swap1\n      swap2\n      and\n        /* \"#utility.yul\":160:211   */\n      dup2\n      mstore\n        /* \"#utility.yul\":148:150   */\n      0x20\n        /* \"#utility.yul\":133:151   */\n      add\n        /* \"contracts/polygon/abstract/proxy/BaseFactory.sol\":1781:2293  function deploy() public virtual returns (address) {... */\n      mload(0x40)\n      dup1\n      swap2\n      sub\n      swap1\n      return\n        /* \"contracts/polygon/external/openzeppelin/access/Ownable.sol\":1222:1307  function owner() public view virtual returns (address) {... */\n    tag_5:\n        /* \"contracts/polygon/external/openzeppelin/access/Ownable.sol\":1268:1275  address */\n      0x00\n        /* \"contracts/polygon/external/openzeppelin/access/Ownable.sol\":1294:1300  _owner */\n      sload\n      sub(shl(0xa0, 0x01), 0x01)\n      and\n        /* \"contracts/polygon/external/openzeppelin/access/Ownable.sol\":1222:1307  function owner() public view virtual returns (address) {... */\n      jump(tag_11)\n        /* \"contracts/polygon/abstract/proxy/BaseFactory.sol\":1494:1633  function addressDeployedTo(uint256 deployedId) public view virtual returns (address) {... */\n    tag_6:\n      tag_11\n      tag_19\n      calldatasize\n      0x04\n      tag_20\n      jump\t// in\n    tag_19:\n      tag_21\n      jump\t// in\n        /* \"contracts/polygon/abstract/proxy/BaseFactory.sol\":1164:1281  function defaultImplementation() public view virtual returns (address) {... */\n    tag_7:\n        /* \"contracts/polygon/abstract/proxy/BaseFactory.sol\":1252:1274  _defaultImplementation */\n      and(sub(shl(0xa0, 0x01), 0x01), sload(0x02))\n        /* \"contracts/polygon/abstract/proxy/BaseFactory.sol\":1164:1281  function defaultImplementation() public view virtual returns (address) {... */\n      jump(tag_11)\n        /* \"contracts/polygon/external/openzeppelin/access/Ownable.sol\":2095:2293  function transferOwnership(address newOwner) public virtual onlyOwner {... */\n    tag_8:\n      tag_9\n      tag_27\n      calldatasize\n      0x04\n      tag_28\n      jump\t// in\n    tag_27:\n      tag_29\n      jump\t// in\n        /* \"contracts/polygon/external/openzeppelin/access/Ownable.sol\":1845:1946  function renounceOwnership() public virtual onlyOwner {... */\n    tag_10:\n        /* \"contracts/polygon/external/openzeppelin/access/Ownable.sol\":1115:1128  _checkOwner() */\n      tag_31\n        /* \"contracts/polygon/external/openzeppelin/access/Ownable.sol\":1115:1126  _checkOwner */\n      tag_32\n        /* \"contracts/polygon/external/openzeppelin/access/Ownable.sol\":1115:1128  _checkOwner() */\n      jump\t// in\n    tag_31:\n        /* \"contracts/polygon/external/openzeppelin/access/Ownable.sol\":1909:1939  _transferOwnership(address(0)) */\n      tag_34\n        /* \"contracts/polygon/external/openzeppelin/access/Ownable.sol\":1936:1937  0 */\n      0x00\n        /* \"contracts/polygon/external/openzeppelin/access/Ownable.sol\":1909:1927  _transferOwnership */\n      tag_35\n        /* \"contracts/polygon/external/openzeppelin/access/Ownable.sol\":1909:1939  _transferOwnership(address(0)) */\n      jump\t// in\n    tag_34:\n        /* \"contracts/polygon/external/openzeppelin/access/Ownable.sol\":1845:1946  function renounceOwnership() public virtual onlyOwner {... */\n      jump\t// out\n        /* \"contracts/polygon/abstract/proxy/BaseFactory.sol\":1781:2293  function deploy() public virtual returns (address) {... */\n    tag_12:\n        /* \"contracts/polygon/abstract/proxy/BaseFactory.sol\":1823:1830  address */\n      0x00\n        /* \"contracts/polygon/abstract/proxy/BaseFactory.sol\":1842:1855  _checkOwner() */\n      tag_37\n        /* \"contracts/polygon/abstract/proxy/BaseFactory.sol\":1842:1853  _checkOwner */\n      tag_32\n        /* \"contracts/polygon/abstract/proxy/BaseFactory.sol\":1842:1855  _checkOwner() */\n      jump\t// in\n    tag_37:\n        /* \"contracts/polygon/abstract/proxy/BaseFactory.sol\":1865:1874  _deployed */\n      0x01\n        /* \"contracts/polygon/abstract/proxy/BaseFactory.sol\":1880:1890  new Base() */\n      mload(0x40)\n      tag_38\n      swap1\n      tag_39\n      jump\t// in\n    tag_38:\n      mload(0x40)\n      dup1\n      swap2\n      sub\n      swap1\n      0x00\n      create\n      dup1\n      iszero\n      dup1\n      iszero\n      tag_40\n      jumpi\n      returndatasize\n      0x00\n      dup1\n      returndatacopy\n      revert(0x00, returndatasize)\n    tag_40:\n      pop\n        /* \"contracts/polygon/abstract/proxy/BaseFactory.sol\":1865:1891  _deployed.push(new Base()) */\n      dup2\n      sload\n      0x01\n      dup1\n      dup3\n      add\n      dup5\n      sstore\n      0x00\n      swap4\n      dup5\n      mstore\n      0x20\n      dup5\n      keccak256\n      swap1\n      swap2\n      add\n      dup1\n      sload\n      not(sub(shl(0xa0, 0x01), 0x01))\n      and\n      sub(shl(0xa0, 0x01), 0x01)\n      swap4\n      swap1\n      swap4\n      and\n      swap3\n      swap1\n      swap3\n      or\n      swap1\n      swap2\n      sstore\n        /* \"contracts/polygon/abstract/proxy/BaseFactory.sol\":1914:1930  _deployed.length */\n      dup1\n      sload\n        /* \"contracts/polygon/abstract/proxy/BaseFactory.sol\":1914:1934  _deployed.length - 1 */\n      tag_42\n      swap2\n        /* \"contracts/polygon/abstract/proxy/BaseFactory.sol\":1865:1891  _deployed.push(new Base()) */\n      swap1\n        /* \"contracts/polygon/abstract/proxy/BaseFactory.sol\":1914:1934  _deployed.length - 1 */\n      tag_43\n      jump\t// in\n    tag_42:\n        /* \"contracts/polygon/abstract/proxy/BaseFactory.sol\":1901:1934  uint256 id = _deployed.length - 1 */\n      swap1\n      pop\n        /* \"contracts/polygon/abstract/proxy/BaseFactory.sol\":1944:1953  _deployed */\n      0x01\n        /* \"contracts/polygon/abstract/proxy/BaseFactory.sol\":1954:1956  id */\n      dup2\n        /* \"contracts/polygon/abstract/proxy/BaseFactory.sol\":1944:1957  _deployed[id] */\n      dup2\n      sload\n      dup2\n      lt\n      tag_45\n      jumpi\n      tag_45\n      tag_46\n      jump\t// in\n    tag_45:\n      0x00\n      swap2\n      dup3\n      mstore\n      0x20\n      swap1\n      swap2\n      keccak256\n      add\n      sload\n      sub(shl(0xa0, 0x01), 0x01)\n      and\n        /* \"contracts/polygon/abstract/proxy/BaseFactory.sol\":1944:1982  _deployed[id].setInitialImplementation */\n      0xfdb16540\n        /* \"contracts/polygon/abstract/proxy/BaseFactory.sol\":1983:2006  defaultImplementation() */\n      tag_48\n        /* \"contracts/polygon/abstract/proxy/BaseFactory.sol\":1252:1274  _defaultImplementation */\n      and(sub(shl(0xa0, 0x01), 0x01), sload(0x02))\n      swap1\n        /* \"contracts/polygon/abstract/proxy/BaseFactory.sol\":1164:1281  function defaultImplementation() public view virtual returns (address) {... */\n      jump\n        /* \"contracts/polygon/abstract/proxy/BaseFactory.sol\":1983:2006  defaultImplementation() */\n    tag_48:\n        /* \"contracts/polygon/abstract/proxy/BaseFactory.sol\":1944:2007  _deployed[id].setInitialImplementation(defaultImplementation()) */\n      mload(0x40)\n      not(sub(shl(0xe0, 0x01), 0x01))\n      0xe0\n      dup5\n      swap1\n      shl\n      and\n      dup2\n      mstore\n      sub(shl(0xa0, 0x01), 0x01)\n        /* \"#utility.yul\":178:210   */\n      swap1\n      swap2\n      and\n        /* \"contracts/polygon/abstract/proxy/BaseFactory.sol\":1944:2007  _deployed[id].setInitialImplementation(defaultImplementation()) */\n      0x04\n      dup3\n      add\n        /* \"#utility.yul\":160:211   */\n      mstore\n        /* \"#utility.yul\":133:151   */\n      0x24\n      add\n        /* \"contracts/polygon/abstract/proxy/BaseFactory.sol\":1944:2007  _deployed[id].setInitialImplementation(defaultImplementation()) */\n      0x00\n      mload(0x40)\n      dup1\n      dup4\n      sub\n      dup2\n      0x00\n      dup8\n      dup1\n      extcodesize\n      iszero\n      dup1\n      iszero\n      tag_50\n      jumpi\n      0x00\n      dup1\n      revert\n    tag_50:\n      pop\n      gas\n      call\n      iszero\n      dup1\n      iszero\n      tag_52\n      jumpi\n      returndatasize\n      0x00\n      dup1\n      returndatacopy\n      revert(0x00, returndatasize)\n    tag_52:\n      pop\n      pop\n      pop\n      pop\n        /* \"contracts/polygon/abstract/proxy/BaseFactory.sol\":2017:2056  IDefaultImplementation newBaseInterface */\n      0x00\n        /* \"contracts/polygon/abstract/proxy/BaseFactory.sol\":2090:2099  _deployed */\n      0x01\n        /* \"contracts/polygon/abstract/proxy/BaseFactory.sol\":2100:2102  id */\n      dup3\n        /* \"contracts/polygon/abstract/proxy/BaseFactory.sol\":2090:2103  _deployed[id] */\n      dup2\n      sload\n      dup2\n      lt\n      tag_54\n      jumpi\n      tag_54\n      tag_46\n      jump\t// in\n    tag_54:\n      0x00\n      swap2\n      dup3\n      mstore\n      0x20\n      dup3\n      keccak256\n      add\n      sload\n        /* \"contracts/polygon/abstract/proxy/BaseFactory.sol\":2115:2144  newBaseInterface.initialize() */\n      0x40\n      dup1\n      mload\n      shl(0xe2, 0x204a7f07)\n      dup2\n      mstore\n      swap1\n      mload\n      sub(shl(0xa0, 0x01), 0x01)\n        /* \"contracts/polygon/abstract/proxy/BaseFactory.sol\":2090:2103  _deployed[id] */\n      swap1\n      swap3\n      and\n      swap4\n      pop\n      dup4\n      swap3\n        /* \"contracts/polygon/abstract/proxy/BaseFactory.sol\":2115:2142  newBaseInterface.initialize */\n      0x8129fc1c\n      swap3\n        /* \"contracts/polygon/abstract/proxy/BaseFactory.sol\":2115:2144  newBaseInterface.initialize() */\n      0x04\n      dup1\n      dup5\n      add\n      swap4\n      dup3\n      swap1\n      sub\n      add\n      dup2\n        /* \"contracts/polygon/abstract/proxy/BaseFactory.sol\":2090:2103  _deployed[id] */\n      dup4\n      dup8\n        /* \"contracts/polygon/abstract/proxy/BaseFactory.sol\":2115:2144  newBaseInterface.initialize() */\n      dup1\n      extcodesize\n      iszero\n      dup1\n      iszero\n      tag_56\n      jumpi\n      0x00\n      dup1\n      revert\n    tag_56:\n      pop\n      gas\n      call\n      iszero\n      dup1\n      iszero\n      tag_58\n      jumpi\n      returndatasize\n      0x00\n      dup1\n      returndatacopy\n      revert(0x00, returndatasize)\n    tag_58:\n      pop\n      pop\n        /* \"contracts/polygon/abstract/proxy/BaseFactory.sol\":2154:2200  newBaseInterface.transferOwnership(msg.sender) */\n      mload(0x40)\n      shl(0xe0, 0xf2fde38b)\n      dup2\n      mstore\n        /* \"contracts/polygon/abstract/proxy/BaseFactory.sol\":2189:2199  msg.sender */\n      caller\n        /* \"contracts/polygon/abstract/proxy/BaseFactory.sol\":2154:2200  newBaseInterface.transferOwnership(msg.sender) */\n      0x04\n      dup3\n      add\n        /* \"#utility.yul\":160:211   */\n      mstore\n      sub(shl(0xa0, 0x01), 0x01)\n        /* \"contracts/polygon/abstract/proxy/BaseFactory.sol\":2154:2188  newBaseInterface.transferOwnership */\n      dup5\n      and\n      swap3\n      pop\n      0xf2fde38b\n      swap2\n      pop\n        /* \"#utility.yul\":133:151   */\n      0x24\n      add\n        /* \"contracts/polygon/abstract/proxy/BaseFactory.sol\":2154:2200  newBaseInterface.transferOwnership(msg.sender) */\n      0x00\n      mload(0x40)\n      dup1\n      dup4\n      sub\n      dup2\n      0x00\n      dup8\n      dup1\n      extcodesize\n      iszero\n      dup1\n      iszero\n      tag_60\n      jumpi\n      0x00\n      dup1\n      revert\n    tag_60:\n      pop\n      gas\n      call\n      iszero\n      dup1\n      iszero\n      tag_62\n      jumpi\n      returndatasize\n      0x00\n      dup1\n      returndatacopy\n      revert(0x00, returndatasize)\n    tag_62:\n      pop\n      pop\n      pop\n      pop\n        /* \"contracts/polygon/abstract/proxy/BaseFactory.sol\":2232:2241  _deployed */\n      0x01\n        /* \"contracts/polygon/abstract/proxy/BaseFactory.sol\":2242:2244  id */\n      dup3\n        /* \"contracts/polygon/abstract/proxy/BaseFactory.sol\":2232:2245  _deployed[id] */\n      dup2\n      sload\n      dup2\n      lt\n      tag_64\n      jumpi\n      tag_64\n      tag_46\n      jump\t// in\n    tag_64:\n      0x00\n      swap2\n      dup3\n      mstore\n      0x20\n      dup3\n      keccak256\n      add\n      sload\n        /* \"contracts/polygon/abstract/proxy/BaseFactory.sol\":2215:2247  Deployed(address(_deployed[id])) */\n      mload(0x40)\n      sub(shl(0xa0, 0x01), 0x01)\n        /* \"contracts/polygon/abstract/proxy/BaseFactory.sol\":2232:2245  _deployed[id] */\n      swap1\n      swap2\n      and\n      swap2\n        /* \"contracts/polygon/abstract/proxy/BaseFactory.sol\":2215:2247  Deployed(address(_deployed[id])) */\n      0xf40fcec21964ffb566044d083b4073f29f7f7929110ea19e1b3ebe375d89055e\n      swap2\n      log2\n        /* \"contracts/polygon/abstract/proxy/BaseFactory.sol\":2272:2281  _deployed */\n      0x01\n        /* \"contracts/polygon/abstract/proxy/BaseFactory.sol\":2282:2284  id */\n      dup3\n        /* \"contracts/polygon/abstract/proxy/BaseFactory.sol\":2272:2285  _deployed[id] */\n      dup2\n      sload\n      dup2\n      lt\n      tag_67\n      jumpi\n      tag_67\n      tag_46\n      jump\t// in\n    tag_67:\n      0x00\n      swap2\n      dup3\n      mstore\n      0x20\n      swap1\n      swap2\n      keccak256\n      add\n      sload\n      sub(shl(0xa0, 0x01), 0x01)\n      and\n      swap4\n        /* \"contracts/polygon/abstract/proxy/BaseFactory.sol\":1781:2293  function deploy() public virtual returns (address) {... */\n      swap3\n      pop\n      pop\n      pop\n      jump\t// out\n        /* \"contracts/polygon/abstract/proxy/BaseFactory.sol\":1494:1633  function addressDeployedTo(uint256 deployedId) public view virtual returns (address) {... */\n    tag_21:\n        /* \"contracts/polygon/abstract/proxy/BaseFactory.sol\":1570:1577  address */\n      0x00\n        /* \"contracts/polygon/abstract/proxy/BaseFactory.sol\":1604:1613  _deployed */\n      0x01\n        /* \"contracts/polygon/abstract/proxy/BaseFactory.sol\":1614:1624  deployedId */\n      dup3\n        /* \"contracts/polygon/abstract/proxy/BaseFactory.sol\":1604:1625  _deployed[deployedId] */\n      dup2\n      sload\n      dup2\n      lt\n      tag_72\n      jumpi\n      tag_72\n      tag_46\n      jump\t// in\n    tag_72:\n      0x00\n      swap2\n      dup3\n      mstore\n      0x20\n      swap1\n      swap2\n      keccak256\n      add\n      sload\n      sub(shl(0xa0, 0x01), 0x01)\n      and\n      swap3\n        /* \"contracts/polygon/abstract/proxy/BaseFactory.sol\":1494:1633  function addressDeployedTo(uint256 deployedId) public view virtual returns (address) {... */\n      swap2\n      pop\n      pop\n      jump\t// out\n        /* \"contracts/polygon/external/openzeppelin/access/Ownable.sol\":2095:2293  function transferOwnership(address newOwner) public virtual onlyOwner {... */\n    tag_29:\n        /* \"contracts/polygon/external/openzeppelin/access/Ownable.sol\":1115:1128  _checkOwner() */\n      tag_76\n        /* \"contracts/polygon/external/openzeppelin/access/Ownable.sol\":1115:1126  _checkOwner */\n      tag_32\n        /* \"contracts/polygon/external/openzeppelin/access/Ownable.sol\":1115:1128  _checkOwner() */\n      jump\t// in\n    tag_76:\n      sub(shl(0xa0, 0x01), 0x01)\n        /* \"contracts/polygon/external/openzeppelin/access/Ownable.sol\":2183:2205  newOwner != address(0) */\n      dup2\n      and\n        /* \"contracts/polygon/external/openzeppelin/access/Ownable.sol\":2175:2248  require(newOwner != address(0), \"Ownable: new owner is the zero address\") */\n      tag_78\n      jumpi\n      mload(0x40)\n      shl(0xe5, 0x461bcd)\n      dup2\n      mstore\n        /* \"#utility.yul\":1262:1264   */\n      0x20\n        /* \"contracts/polygon/external/openzeppelin/access/Ownable.sol\":2175:2248  require(newOwner != address(0), \"Ownable: new owner is the zero address\") */\n      0x04\n      dup3\n      add\n        /* \"#utility.yul\":1244:1265   */\n      mstore\n        /* \"#utility.yul\":1301:1303   */\n      0x26\n        /* \"#utility.yul\":1281:1299   */\n      0x24\n      dup3\n      add\n        /* \"#utility.yul\":1274:1304   */\n      mstore\n        /* \"#utility.yul\":1340:1374   */\n      0x4f776e61626c653a206e6577206f776e657220697320746865207a65726f2061\n        /* \"#utility.yul\":1320:1338   */\n      0x44\n      dup3\n      add\n        /* \"#utility.yul\":1313:1375   */\n      mstore\n      shl(0xd0, 0x646472657373)\n        /* \"#utility.yul\":1391:1409   */\n      0x64\n      dup3\n      add\n        /* \"#utility.yul\":1384:1420   */\n      mstore\n        /* \"#utility.yul\":1437:1456   */\n      0x84\n      add\n        /* \"contracts/polygon/external/openzeppelin/access/Ownable.sol\":2175:2248  require(newOwner != address(0), \"Ownable: new owner is the zero address\") */\n    tag_79:\n      mload(0x40)\n      dup1\n      swap2\n      sub\n      swap1\n      revert\n    tag_78:\n        /* \"contracts/polygon/external/openzeppelin/access/Ownable.sol\":2258:2286  _transferOwnership(newOwner) */\n      tag_81\n        /* \"contracts/polygon/external/openzeppelin/access/Ownable.sol\":2277:2285  newOwner */\n      dup2\n        /* \"contracts/polygon/external/openzeppelin/access/Ownable.sol\":2258:2276  _transferOwnership */\n      tag_35\n        /* \"contracts/polygon/external/openzeppelin/access/Ownable.sol\":2258:2286  _transferOwnership(newOwner) */\n      jump\t// in\n    tag_81:\n        /* \"contracts/polygon/external/openzeppelin/access/Ownable.sol\":2095:2293  function transferOwnership(address newOwner) public virtual onlyOwner {... */\n      pop\n      jump\t// out\n        /* \"contracts/polygon/external/openzeppelin/access/Ownable.sol\":1380:1510  function _checkOwner() internal view virtual {... */\n    tag_32:\n        /* \"contracts/polygon/external/openzeppelin/access/Ownable.sol\":1268:1275  address */\n      0x00\n        /* \"contracts/polygon/external/openzeppelin/access/Ownable.sol\":1294:1300  _owner */\n      sload\n      sub(shl(0xa0, 0x01), 0x01)\n      and\n        /* \"contracts/polygon/external/openzeppelin/utils/Context.sol\":720:730  msg.sender */\n      caller\n        /* \"contracts/polygon/external/openzeppelin/access/Ownable.sol\":1443:1466  owner() == _msgSender() */\n      eq\n        /* \"contracts/polygon/external/openzeppelin/access/Ownable.sol\":1435:1503  require(owner() == _msgSender(), \"Ownable: caller is not the owner\") */\n      tag_34\n      jumpi\n      mload(0x40)\n      shl(0xe5, 0x461bcd)\n      dup2\n      mstore\n        /* \"#utility.yul\":1669:1671   */\n      0x20\n        /* \"contracts/polygon/external/openzeppelin/access/Ownable.sol\":1435:1503  require(owner() == _msgSender(), \"Ownable: caller is not the owner\") */\n      0x04\n      dup3\n      add\n        /* \"#utility.yul\":1651:1672   */\n      dup2\n      swap1\n      mstore\n        /* \"#utility.yul\":1688:1706   */\n      0x24\n      dup3\n      add\n        /* \"#utility.yul\":1681:1711   */\n      mstore\n        /* \"#utility.yul\":1747:1781   */\n      0x4f776e61626c653a2063616c6c6572206973206e6f7420746865206f776e6572\n        /* \"#utility.yul\":1727:1745   */\n      0x44\n      dup3\n      add\n        /* \"#utility.yul\":1720:1782   */\n      mstore\n        /* \"#utility.yul\":1799:1817   */\n      0x64\n      add\n        /* \"contracts/polygon/external/openzeppelin/access/Ownable.sol\":1435:1503  require(owner() == _msgSender(), \"Ownable: caller is not the owner\") */\n      tag_79\n        /* \"#utility.yul\":1467:1823   */\n      jump\n        /* \"contracts/polygon/external/openzeppelin/access/Ownable.sol\":2447:2634  function _transferOwnership(address newOwner) internal virtual {... */\n    tag_35:\n        /* \"contracts/polygon/external/openzeppelin/access/Ownable.sol\":2520:2536  address oldOwner */\n      0x00\n        /* \"contracts/polygon/external/openzeppelin/access/Ownable.sol\":2539:2545  _owner */\n      dup1\n      sload\n      sub(shl(0xa0, 0x01), 0x01)\n        /* \"contracts/polygon/external/openzeppelin/access/Ownable.sol\":2555:2572  _owner = newOwner */\n      dup4\n      dup2\n      and\n      not(sub(shl(0xa0, 0x01), 0x01))\n      dup4\n      and\n      dup2\n      or\n      dup5\n      sstore\n        /* \"contracts/polygon/external/openzeppelin/access/Ownable.sol\":2587:2627  OwnershipTransferred(oldOwner, newOwner) */\n      mload(0x40)\n        /* \"contracts/polygon/external/openzeppelin/access/Ownable.sol\":2539:2545  _owner */\n      swap2\n      swap1\n      swap3\n      and\n      swap3\n      dup4\n      swap2\n        /* \"contracts/polygon/external/openzeppelin/access/Ownable.sol\":2587:2627  OwnershipTransferred(oldOwner, newOwner) */\n      0x8be0079c531659141344cd1fd0a4f28419497f9722a3daafe3b4186f6b6457e0\n      swap2\n        /* \"contracts/polygon/external/openzeppelin/access/Ownable.sol\":2520:2536  address oldOwner */\n      swap1\n        /* \"contracts/polygon/external/openzeppelin/access/Ownable.sol\":2587:2627  OwnershipTransferred(oldOwner, newOwner) */\n      log3\n        /* \"contracts/polygon/external/openzeppelin/access/Ownable.sol\":2510:2634  {... */\n      pop\n        /* \"contracts/polygon/external/openzeppelin/access/Ownable.sol\":2447:2634  function _transferOwnership(address newOwner) internal virtual {... */\n      pop\n      jump\t// out\n    tag_39:\n      dataSize(sub_0)\n      dup1\n      dataOffset(sub_0)\n      dup4\n      codecopy\n      add\n      swap1\n      jump\t// out\n        /* \"#utility.yul\":222:402   */\n    tag_20:\n        /* \"#utility.yul\":281:287   */\n      0x00\n        /* \"#utility.yul\":334:336   */\n      0x20\n        /* \"#utility.yul\":322:331   */\n      dup3\n        /* \"#utility.yul\":313:320   */\n      dup5\n        /* \"#utility.yul\":309:332   */\n      sub\n        /* \"#utility.yul\":305:337   */\n      slt\n        /* \"#utility.yul\":302:354   */\n      iszero\n      tag_94\n      jumpi\n        /* \"#utility.yul\":350:351   */\n      0x00\n        /* \"#utility.yul\":347:348   */\n      dup1\n        /* \"#utility.yul\":340:352   */\n      revert\n        /* \"#utility.yul\":302:354   */\n    tag_94:\n      pop\n        /* \"#utility.yul\":373:396   */\n      calldataload\n      swap2\n        /* \"#utility.yul\":222:402   */\n      swap1\n      pop\n      jump\t// out\n        /* \"#utility.yul\":407:693   */\n    tag_28:\n        /* \"#utility.yul\":466:472   */\n      0x00\n        /* \"#utility.yul\":519:521   */\n      0x20\n        /* \"#utility.yul\":507:516   */\n      dup3\n        /* \"#utility.yul\":498:505   */\n      dup5\n        /* \"#utility.yul\":494:517   */\n      sub\n        /* \"#utility.yul\":490:522   */\n      slt\n        /* \"#utility.yul\":487:539   */\n      iszero\n      tag_96\n      jumpi\n        /* \"#utility.yul\":535:536   */\n      0x00\n        /* \"#utility.yul\":532:533   */\n      dup1\n        /* \"#utility.yul\":525:537   */\n      revert\n        /* \"#utility.yul\":487:539   */\n    tag_96:\n        /* \"#utility.yul\":561:584   */\n      dup2\n      calldataload\n      sub(shl(0xa0, 0x01), 0x01)\n        /* \"#utility.yul\":613:644   */\n      dup2\n      and\n        /* \"#utility.yul\":603:645   */\n      dup2\n      eq\n        /* \"#utility.yul\":593:663   */\n      tag_97\n      jumpi\n        /* \"#utility.yul\":659:660   */\n      0x00\n        /* \"#utility.yul\":656:657   */\n      dup1\n        /* \"#utility.yul\":649:661   */\n      revert\n        /* \"#utility.yul\":593:663   */\n    tag_97:\n        /* \"#utility.yul\":682:687   */\n      swap4\n        /* \"#utility.yul\":407:693   */\n      swap3\n      pop\n      pop\n      pop\n      jump\t// out\n        /* \"#utility.yul\":698:923   */\n    tag_43:\n        /* \"#utility.yul\":765:774   */\n      dup2\n      dup2\n      sub\n        /* \"#utility.yul\":786:797   */\n      dup2\n      dup2\n      gt\n        /* \"#utility.yul\":783:917   */\n      iszero\n      tag_99\n      jumpi\n        /* \"#utility.yul\":839:849   */\n      0x4e487b71\n        /* \"#utility.yul\":834:837   */\n      0xe0\n        /* \"#utility.yul\":830:850   */\n      shl\n        /* \"#utility.yul\":827:828   */\n      0x00\n        /* \"#utility.yul\":820:851   */\n      mstore\n        /* \"#utility.yul\":874:878   */\n      0x11\n        /* \"#utility.yul\":871:872   */\n      0x04\n        /* \"#utility.yul\":864:879   */\n      mstore\n        /* \"#utility.yul\":902:906   */\n      0x24\n        /* \"#utility.yul\":899:900   */\n      0x00\n        /* \"#utility.yul\":892:907   */\n      revert\n        /* \"#utility.yul\":783:917   */\n    tag_99:\n        /* \"#utility.yul\":698:923   */\n      swap3\n      swap2\n      pop\n      pop\n      jump\t// out\n        /* \"#utility.yul\":928:1055   */\n    tag_46:\n        /* \"#utility.yul\":989:999   */\n      0x4e487b71\n        /* \"#utility.yul\":984:987   */\n      0xe0\n        /* \"#utility.yul\":980:1000   */\n      shl\n        /* \"#utility.yul\":977:978   */\n      0x00\n        /* \"#utility.yul\":970:1001   */\n      mstore\n        /* \"#utility.yul\":1020:1024   */\n      0x32\n        /* \"#utility.yul\":1017:1018   */\n      0x04\n        /* \"#utility.yul\":1010:1025   */\n      mstore\n        /* \"#utility.yul\":1044:1048   */\n      0x24\n        /* \"#utility.yul\":1041:1042   */\n      0x00\n        /* \"#utility.yul\":1034:1049   */\n      revert\n    stop\n\n    sub_0: assembly {\n            /* \"contracts/polygon/abstract/proxy/Base.sol\":380:4101  contract Base is Storage, Proxy {... */\n          mstore(0x40, 0x80)\n          callvalue\n          dup1\n          iszero\n          tag_1\n          jumpi\n          0x00\n          dup1\n          revert\n        tag_1:\n          pop\n          dataSize(sub_0)\n          dup1\n          dataOffset(sub_0)\n          0x00\n          codecopy\n          0x00\n          return\n        stop\n\n        sub_0: assembly {\n                /* \"contracts/polygon/abstract/proxy/Base.sol\":380:4101  contract Base is Storage, Proxy {... */\n              mstore(0x40, 0x80)\n              jumpi(tag_1, lt(calldatasize, 0x04))\n              shr(0xe0, calldataload(0x00))\n              dup1\n              0x780e9368\n              gt\n              tag_11\n              jumpi\n              dup1\n              0x780e9368\n              eq\n              tag_7\n              jumpi\n              dup1\n              0x985fcf9c\n              eq\n              tag_8\n              jumpi\n              dup1\n              0xf4358896\n              eq\n              tag_9\n              jumpi\n              dup1\n              0xfdb16540\n              eq\n              tag_10\n              jumpi\n              jump(tag_2)\n            tag_11:\n              dup1\n              0x0717f3e6\n              eq\n              tag_3\n              jumpi\n              dup1\n              0x2145b31a\n              eq\n              tag_4\n              jumpi\n              dup1\n              0x5c60da1b\n              eq\n              tag_5\n              jumpi\n              dup1\n              0x667d4359\n              eq\n              tag_6\n              jumpi\n              jump(tag_2)\n            tag_1:\n              jumpi(tag_2, calldatasize)\n                /* \"contracts/polygon/external/openzeppelin/proxy/Proxy.sol\":2899:2910  _fallback() */\n              tag_14\n                /* \"contracts/polygon/external/openzeppelin/proxy/Proxy.sol\":2899:2908  _fallback */\n              tag_15\n                /* \"contracts/polygon/external/openzeppelin/proxy/Proxy.sol\":2899:2910  _fallback() */\n              jump\t// in\n            tag_14:\n                /* \"contracts/polygon/abstract/proxy/Base.sol\":380:4101  contract Base is Storage, Proxy {... */\n              stop\n            tag_2:\n                /* \"contracts/polygon/external/openzeppelin/proxy/Proxy.sol\":2676:2687  _fallback() */\n              tag_14\n                /* \"contracts/polygon/external/openzeppelin/proxy/Proxy.sol\":2676:2685  _fallback */\n              tag_15\n                /* \"contracts/polygon/external/openzeppelin/proxy/Proxy.sol\":2676:2687  _fallback() */\n              jump\t// in\n                /* \"contracts/polygon/abstract/proxy/Base.sol\":2265:2410  function initialImplementationHasBeenSet() public view virtual returns (bool) {... */\n            tag_3:\n              callvalue\n              dup1\n              iszero\n              tag_19\n              jumpi\n              0x00\n              dup1\n              revert\n            tag_19:\n              pop\n              tag_20\n              tag_21\n              jump\t// in\n            tag_20:\n              mload(0x40)\n                /* \"#utility.yul\":179:193   */\n              swap1\n              iszero\n                /* \"#utility.yul\":172:194   */\n              iszero\n                /* \"#utility.yul\":154:195   */\n              dup2\n              mstore\n                /* \"#utility.yul\":142:144   */\n              0x20\n                /* \"#utility.yul\":127:145   */\n              add\n                /* \"contracts/polygon/abstract/proxy/Base.sol\":2265:2410  function initialImplementationHasBeenSet() public view virtual returns (bool) {... */\n            tag_22:\n              mload(0x40)\n              dup1\n              swap2\n              sub\n              swap1\n              return\n                /* \"contracts/polygon/abstract/proxy/Base.sol\":1239:1407  function initialImplementationHasBeenSetKey() public pure virtual returns (bytes32) {... */\n            tag_4:\n              callvalue\n              dup1\n              iszero\n              tag_24\n              jumpi\n              0x00\n              dup1\n              revert\n            tag_24:\n              pop\n              tag_25\n              tag_26\n              jump\t// in\n            tag_25:\n              mload(0x40)\n                /* \"#utility.yul\":352:377   */\n              swap1\n              dup2\n              mstore\n                /* \"#utility.yul\":340:342   */\n              0x20\n                /* \"#utility.yul\":325:343   */\n              add\n                /* \"contracts/polygon/abstract/proxy/Base.sol\":1239:1407  function initialImplementationHasBeenSetKey() public pure virtual returns (bytes32) {... */\n              tag_22\n                /* \"#utility.yul\":206:383   */\n              jump\n                /* \"contracts/polygon/abstract/proxy/Base.sol\":1483:1588  function implementation() public view virtual returns (address) {... */\n            tag_5:\n              callvalue\n              dup1\n              iszero\n              tag_29\n              jumpi\n              0x00\n              dup1\n              revert\n            tag_29:\n              pop\n              tag_30\n              tag_31\n              jump\t// in\n            tag_30:\n              mload(0x40)\n              sub(shl(0xa0, 0x01), 0x01)\n                /* \"#utility.yul\":552:584   */\n              swap1\n              swap2\n              and\n                /* \"#utility.yul\":534:585   */\n              dup2\n              mstore\n                /* \"#utility.yul\":522:524   */\n              0x20\n                /* \"#utility.yul\":507:525   */\n              add\n                /* \"contracts/polygon/abstract/proxy/Base.sol\":1483:1588  function implementation() public view virtual returns (address) {... */\n              tag_22\n                /* \"#utility.yul\":388:591   */\n              jump\n                /* \"contracts/polygon/abstract/proxy/Base.sol\":986:1133  function implementationTimelineKey() public pure virtual returns (bytes32) {... */\n            tag_6:\n              callvalue\n              dup1\n              iszero\n              tag_34\n              jumpi\n              0x00\n              dup1\n              revert\n            tag_34:\n              pop\n              tag_25\n              tag_36\n              jump\t// in\n                /* \"contracts/polygon/abstract/proxy/Base.sol\":1764:1944  function implementationTimeline(uint256 implementationId) public view virtual returns (address) {... */\n            tag_7:\n              callvalue\n              dup1\n              iszero\n              tag_38\n              jumpi\n              0x00\n              dup1\n              revert\n            tag_38:\n              pop\n              tag_30\n              tag_40\n              calldatasize\n              0x04\n              tag_41\n              jump\t// in\n            tag_40:\n              tag_42\n              jump\t// in\n                /* \"contracts/polygon/abstract/proxy/Base.sol\":2031:2182  function implementationTimelineLength() public view virtual returns (uint256) {... */\n            tag_8:\n              callvalue\n              dup1\n              iszero\n              tag_44\n              jumpi\n              0x00\n              dup1\n              revert\n            tag_44:\n              pop\n              tag_25\n              tag_46\n              jump\t// in\n                /* \"contracts/polygon/abstract/proxy/Base.sol\":752:882  function implementationKey() public pure virtual returns (bytes32) {... */\n            tag_9:\n              callvalue\n              dup1\n              iszero\n              tag_49\n              jumpi\n              0x00\n              dup1\n              revert\n            tag_49:\n              pop\n              tag_25\n              tag_51\n              jump\t// in\n                /* \"contracts/polygon/abstract/proxy/Base.sol\":2573:2756  function setInitialImplementation(address implementation) public virtual {... */\n            tag_10:\n              callvalue\n              dup1\n              iszero\n              tag_53\n              jumpi\n              0x00\n              dup1\n              revert\n            tag_53:\n              pop\n              tag_14\n              tag_55\n              calldatasize\n              0x04\n              tag_56\n              jump\t// in\n            tag_55:\n              tag_57\n              jump\t// in\n                /* \"contracts/polygon/external/openzeppelin/proxy/Proxy.sol\":2323:2433  function _fallback() internal virtual {... */\n            tag_15:\n                /* \"contracts/polygon/external/openzeppelin/proxy/Proxy.sol\":2398:2426  _delegate(_implementation()) */\n              tag_61\n                /* \"contracts/polygon/external/openzeppelin/proxy/Proxy.sol\":2408:2425  _implementation() */\n              tag_62\n                /* \"contracts/polygon/external/openzeppelin/proxy/Proxy.sol\":2408:2423  _implementation */\n              tag_63\n                /* \"contracts/polygon/external/openzeppelin/proxy/Proxy.sol\":2408:2425  _implementation() */\n              jump\t// in\n            tag_62:\n                /* \"contracts/polygon/external/openzeppelin/proxy/Proxy.sol\":2398:2407  _delegate */\n              tag_64\n                /* \"contracts/polygon/external/openzeppelin/proxy/Proxy.sol\":2398:2426  _delegate(_implementation()) */\n              jump\t// in\n            tag_61:\n                /* \"contracts/polygon/external/openzeppelin/proxy/Proxy.sol\":2323:2433  function _fallback() internal virtual {... */\n              jump\t// out\n                /* \"contracts/polygon/abstract/proxy/Base.sol\":2265:2410  function initialImplementationHasBeenSet() public view virtual returns (bool) {... */\n            tag_21:\n                /* \"contracts/polygon/abstract/proxy/Base.sol\":2337:2341  bool */\n              0x00\n                /* \"contracts/polygon/abstract/proxy/Base.sol\":2360:2365  _bool */\n              0x05\n                /* \"contracts/polygon/abstract/proxy/Base.sol\":2360:2403  _bool[initialImplementationHasBeenSetKey()] */\n              0x00\n                /* \"contracts/polygon/abstract/proxy/Base.sol\":2366:2402  initialImplementationHasBeenSetKey() */\n              tag_66\n                /* \"contracts/polygon/abstract/proxy/Base.sol\":2366:2400  initialImplementationHasBeenSetKey */\n              tag_26\n                /* \"contracts/polygon/abstract/proxy/Base.sol\":2366:2402  initialImplementationHasBeenSetKey() */\n              jump\t// in\n            tag_66:\n                /* \"contracts/polygon/abstract/proxy/Base.sol\":2360:2403  _bool[initialImplementationHasBeenSetKey()] */\n              dup2\n              mstore\n              0x20\n              dup2\n              add\n              swap2\n              swap1\n              swap2\n              mstore\n              0x40\n              add\n              0x00\n              keccak256\n              sload\n              0xff\n              and\n              swap2\n                /* \"contracts/polygon/abstract/proxy/Base.sol\":2265:2410  function initialImplementationHasBeenSet() public view virtual returns (bool) {... */\n              swap1\n              pop\n              jump\t// out\n                /* \"contracts/polygon/abstract/proxy/Base.sol\":1239:1407  function initialImplementationHasBeenSetKey() public pure virtual returns (bytes32) {... */\n            tag_26:\n                /* \"contracts/polygon/abstract/proxy/Base.sol\":1314:1321  bytes32 */\n              0x00\n                /* \"contracts/polygon/abstract/proxy/Base.sol\":1350:1399  abi.encode(\"INITIAL_IMPLEMENTATION_HAS_BEEN_SET\") */\n              add(0x20, mload(0x40))\n              tag_68\n              swap1\n                /* \"#utility.yul\":1456:1458   */\n              0x20\n                /* \"#utility.yul\":1438:1459   */\n              dup1\n              dup3\n              mstore\n                /* \"#utility.yul\":1495:1497   */\n              0x23\n                /* \"#utility.yul\":1475:1493   */\n              swap1\n              dup3\n              add\n                /* \"#utility.yul\":1468:1498   */\n              mstore\n                /* \"#utility.yul\":1534:1568   */\n              0x494e495449414c5f494d504c454d454e544154494f4e5f4841535f4245454e5f\n                /* \"#utility.yul\":1529:1531   */\n              0x40\n                /* \"#utility.yul\":1514:1532   */\n              dup3\n              add\n                /* \"#utility.yul\":1507:1569   */\n              mstore\n              shl(0xea, 0x14d155)\n                /* \"#utility.yul\":1600:1602   */\n              0x60\n                /* \"#utility.yul\":1585:1603   */\n              dup3\n              add\n                /* \"#utility.yul\":1578:1611   */\n              mstore\n                /* \"#utility.yul\":1643:1646   */\n              0x80\n                /* \"#utility.yul\":1628:1647   */\n              add\n              swap1\n                /* \"#utility.yul\":1254:1653   */\n              jump\n                /* \"contracts/polygon/abstract/proxy/Base.sol\":1350:1399  abi.encode(\"INITIAL_IMPLEMENTATION_HAS_BEEN_SET\") */\n            tag_68:\n              mload(0x40)\n              0x20\n              dup2\n              dup4\n              sub\n              sub\n              dup2\n              mstore\n              swap1\n              0x40\n              mstore\n                /* \"contracts/polygon/abstract/proxy/Base.sol\":1340:1400  keccak256(abi.encode(\"INITIAL_IMPLEMENTATION_HAS_BEEN_SET\")) */\n              dup1\n              mload\n              swap1\n              0x20\n              add\n              keccak256\n                /* \"contracts/polygon/abstract/proxy/Base.sol\":1333:1400  return keccak256(abi.encode(\"INITIAL_IMPLEMENTATION_HAS_BEEN_SET\")) */\n              swap1\n              pop\n                /* \"contracts/polygon/abstract/proxy/Base.sol\":1239:1407  function initialImplementationHasBeenSetKey() public pure virtual returns (bytes32) {... */\n              swap1\n              jump\t// out\n                /* \"contracts/polygon/abstract/proxy/Base.sol\":1483:1588  function implementation() public view virtual returns (address) {... */\n            tag_31:\n                /* \"contracts/polygon/abstract/proxy/Base.sol\":1538:1545  address */\n              0x00\n                /* \"contracts/polygon/abstract/proxy/Base.sol\":1564:1581  _implementation() */\n              tag_71\n                /* \"contracts/polygon/abstract/proxy/Base.sol\":1564:1579  _implementation */\n              tag_63\n                /* \"contracts/polygon/abstract/proxy/Base.sol\":1564:1581  _implementation() */\n              jump\t// in\n            tag_71:\n                /* \"contracts/polygon/abstract/proxy/Base.sol\":1557:1581  return _implementation() */\n              swap1\n              pop\n                /* \"contracts/polygon/abstract/proxy/Base.sol\":1483:1588  function implementation() public view virtual returns (address) {... */\n              swap1\n              jump\t// out\n                /* \"contracts/polygon/abstract/proxy/Base.sol\":986:1133  function implementationTimelineKey() public pure virtual returns (bytes32) {... */\n            tag_36:\n                /* \"contracts/polygon/abstract/proxy/Base.sol\":1052:1059  bytes32 */\n              0x00\n                /* \"contracts/polygon/abstract/proxy/Base.sol\":1088:1125  abi.encode(\"IMPLEMENTATION_TIMELINE\") */\n              add(0x20, mload(0x40))\n              tag_68\n              swap1\n                /* \"#utility.yul\":1860:1862   */\n              0x20\n                /* \"#utility.yul\":1842:1863   */\n              dup1\n              dup3\n              mstore\n                /* \"#utility.yul\":1899:1901   */\n              0x17\n                /* \"#utility.yul\":1879:1897   */\n              swap1\n              dup3\n              add\n                /* \"#utility.yul\":1872:1902   */\n              mstore\n                /* \"#utility.yul\":1938:1963   */\n              0x494d504c454d454e544154494f4e5f54494d454c494e45000000000000000000\n                /* \"#utility.yul\":1933:1935   */\n              0x40\n                /* \"#utility.yul\":1918:1936   */\n              dup3\n              add\n                /* \"#utility.yul\":1911:1964   */\n              mstore\n                /* \"#utility.yul\":1996:1998   */\n              0x60\n                /* \"#utility.yul\":1981:1999   */\n              add\n              swap1\n                /* \"#utility.yul\":1658:2005   */\n              jump\n                /* \"contracts/polygon/abstract/proxy/Base.sol\":1764:1944  function implementationTimeline(uint256 implementationId) public view virtual returns (address) {... */\n            tag_42:\n                /* \"contracts/polygon/abstract/proxy/Base.sol\":1851:1858  address */\n              0x00\n                /* \"contracts/polygon/abstract/proxy/Base.sol\":1877:1890  _addressArray */\n              0x0b\n                /* \"contracts/polygon/abstract/proxy/Base.sol\":1877:1919  _addressArray[implementationTimelineKey()] */\n              0x00\n                /* \"contracts/polygon/abstract/proxy/Base.sol\":1891:1918  implementationTimelineKey() */\n              tag_76\n                /* \"contracts/polygon/abstract/proxy/Base.sol\":1891:1916  implementationTimelineKey */\n              tag_36\n                /* \"contracts/polygon/abstract/proxy/Base.sol\":1891:1918  implementationTimelineKey() */\n              jump\t// in\n            tag_76:\n                /* \"contracts/polygon/abstract/proxy/Base.sol\":1877:1919  _addressArray[implementationTimelineKey()] */\n              dup2\n              mstore\n              0x20\n              add\n              swap1\n              dup2\n              mstore\n              0x20\n              add\n              0x00\n              keccak256\n                /* \"contracts/polygon/abstract/proxy/Base.sol\":1920:1936  implementationId */\n              dup3\n                /* \"contracts/polygon/abstract/proxy/Base.sol\":1877:1937  _addressArray[implementationTimelineKey()][implementationId] */\n              dup2\n              sload\n              dup2\n              lt\n              tag_78\n              jumpi\n              tag_78\n              tag_79\n              jump\t// in\n            tag_78:\n              0x00\n              swap2\n              dup3\n              mstore\n              0x20\n              swap1\n              swap2\n              keccak256\n              add\n              sload\n              sub(shl(0xa0, 0x01), 0x01)\n              and\n              swap3\n                /* \"contracts/polygon/abstract/proxy/Base.sol\":1764:1944  function implementationTimeline(uint256 implementationId) public view virtual returns (address) {... */\n              swap2\n              pop\n              pop\n              jump\t// out\n                /* \"contracts/polygon/abstract/proxy/Base.sol\":2031:2182  function implementationTimelineLength() public view virtual returns (uint256) {... */\n            tag_46:\n                /* \"contracts/polygon/abstract/proxy/Base.sol\":2100:2107  uint256 */\n              0x00\n                /* \"contracts/polygon/abstract/proxy/Base.sol\":2126:2139  _addressArray */\n              0x0b\n                /* \"contracts/polygon/abstract/proxy/Base.sol\":2126:2168  _addressArray[implementationTimelineKey()] */\n              0x00\n                /* \"contracts/polygon/abstract/proxy/Base.sol\":2140:2167  implementationTimelineKey() */\n              tag_82\n                /* \"contracts/polygon/abstract/proxy/Base.sol\":2140:2165  implementationTimelineKey */\n              tag_36\n                /* \"contracts/polygon/abstract/proxy/Base.sol\":2140:2167  implementationTimelineKey() */\n              jump\t// in\n            tag_82:\n                /* \"contracts/polygon/abstract/proxy/Base.sol\":2126:2168  _addressArray[implementationTimelineKey()] */\n              dup2\n              mstore\n              0x20\n              dup2\n              add\n              swap2\n              swap1\n              swap2\n              mstore\n              0x40\n              add\n              0x00\n              keccak256\n                /* \"contracts/polygon/abstract/proxy/Base.sol\":2126:2175  _addressArray[implementationTimelineKey()].length */\n              sload\n              swap2\n                /* \"contracts/polygon/abstract/proxy/Base.sol\":2031:2182  function implementationTimelineLength() public view virtual returns (uint256) {... */\n              swap1\n              pop\n              jump\t// out\n                /* \"contracts/polygon/abstract/proxy/Base.sol\":752:882  function implementationKey() public pure virtual returns (bytes32) {... */\n            tag_51:\n                /* \"contracts/polygon/abstract/proxy/Base.sol\":810:817  bytes32 */\n              0x00\n                /* \"contracts/polygon/abstract/proxy/Base.sol\":846:874  abi.encode(\"IMPLEMENTATION\") */\n              add(0x20, mload(0x40))\n              tag_68\n              swap1\n                /* \"#utility.yul\":2344:2346   */\n              0x20\n                /* \"#utility.yul\":2326:2347   */\n              dup1\n              dup3\n              mstore\n                /* \"#utility.yul\":2383:2385   */\n              0x0e\n                /* \"#utility.yul\":2363:2381   */\n              swap1\n              dup3\n              add\n                /* \"#utility.yul\":2356:2386   */\n              mstore\n              shl(0x91, 0x24a6a82622a6a2a72a20aa24a7a7)\n                /* \"#utility.yul\":2417:2419   */\n              0x40\n                /* \"#utility.yul\":2402:2420   */\n              dup3\n              add\n                /* \"#utility.yul\":2395:2439   */\n              mstore\n                /* \"#utility.yul\":2471:2473   */\n              0x60\n                /* \"#utility.yul\":2456:2474   */\n              add\n              swap1\n                /* \"#utility.yul\":2142:2480   */\n              jump\n                /* \"contracts/polygon/abstract/proxy/Base.sol\":2573:2756  function setInitialImplementation(address implementation) public virtual {... */\n            tag_57:\n                /* \"contracts/polygon/abstract/proxy/Base.sol\":2656:2715  _onlyWhenInitialImplementationHasNotBeenSet(implementation) */\n              tag_87\n                /* \"contracts/polygon/abstract/proxy/Base.sol\":2700:2714  implementation */\n              dup2\n                /* \"contracts/polygon/abstract/proxy/Base.sol\":2656:2699  _onlyWhenInitialImplementationHasNotBeenSet */\n              tag_88\n                /* \"contracts/polygon/abstract/proxy/Base.sol\":2656:2715  _onlyWhenInitialImplementationHasNotBeenSet(implementation) */\n              jump\t// in\n            tag_87:\n                /* \"contracts/polygon/abstract/proxy/Base.sol\":2725:2749  _upgrade(implementation) */\n              tag_89\n                /* \"contracts/polygon/abstract/proxy/Base.sol\":2734:2748  implementation */\n              dup2\n                /* \"contracts/polygon/abstract/proxy/Base.sol\":2725:2733  _upgrade */\n              tag_90\n                /* \"contracts/polygon/abstract/proxy/Base.sol\":2725:2749  _upgrade(implementation) */\n              jump\t// in\n            tag_89:\n                /* \"contracts/polygon/abstract/proxy/Base.sol\":2573:2756  function setInitialImplementation(address implementation) public virtual {... */\n              pop\n              jump\t// out\n                /* \"contracts/polygon/abstract/proxy/Base.sol\":2902:3031  function _implementation() internal view virtual override returns (address) {... */\n            tag_63:\n                /* \"contracts/polygon/abstract/proxy/Base.sol\":2969:2976  address */\n              0x00\n                /* \"contracts/polygon/abstract/proxy/Base.sol\":2995:3003  _address */\n              0x04\n                /* \"contracts/polygon/abstract/proxy/Base.sol\":2995:3024  _address[implementationKey()] */\n              0x00\n                /* \"contracts/polygon/abstract/proxy/Base.sol\":3004:3023  implementationKey() */\n              tag_93\n                /* \"contracts/polygon/abstract/proxy/Base.sol\":3004:3021  implementationKey */\n              tag_51\n                /* \"contracts/polygon/abstract/proxy/Base.sol\":3004:3023  implementationKey() */\n              jump\t// in\n            tag_93:\n                /* \"contracts/polygon/abstract/proxy/Base.sol\":2995:3024  _address[implementationKey()] */\n              dup2\n              mstore\n              0x20\n              dup2\n              add\n              swap2\n              swap1\n              swap2\n              mstore\n              0x40\n              add\n              0x00\n              keccak256\n              sload\n              sub(shl(0xa0, 0x01), 0x01)\n              and\n              swap2\n                /* \"contracts/polygon/abstract/proxy/Base.sol\":2902:3031  function _implementation() internal view virtual override returns (address) {... */\n              swap1\n              pop\n              jump\t// out\n                /* \"contracts/polygon/external/openzeppelin/proxy/Proxy.sol\":949:1844  function _delegate(address implementation) internal virtual {... */\n            tag_64:\n                /* \"contracts/polygon/external/openzeppelin/proxy/Proxy.sol\":1287:1301  calldatasize() */\n              calldatasize\n                /* \"contracts/polygon/external/openzeppelin/proxy/Proxy.sol\":1284:1285  0 */\n              0x00\n                /* \"contracts/polygon/external/openzeppelin/proxy/Proxy.sol\":1281:1282  0 */\n              dup1\n                /* \"contracts/polygon/external/openzeppelin/proxy/Proxy.sol\":1268:1302  calldatacopy(0, 0, calldatasize()) */\n              calldatacopy\n                /* \"contracts/polygon/external/openzeppelin/proxy/Proxy.sol\":1501:1502  0 */\n              0x00\n                /* \"contracts/polygon/external/openzeppelin/proxy/Proxy.sol\":1498:1499  0 */\n              dup1\n                /* \"contracts/polygon/external/openzeppelin/proxy/Proxy.sol\":1482:1496  calldatasize() */\n              calldatasize\n                /* \"contracts/polygon/external/openzeppelin/proxy/Proxy.sol\":1479:1480  0 */\n              0x00\n                /* \"contracts/polygon/external/openzeppelin/proxy/Proxy.sol\":1463:1477  implementation */\n              dup5\n                /* \"contracts/polygon/external/openzeppelin/proxy/Proxy.sol\":1456:1461  gas() */\n              gas\n                /* \"contracts/polygon/external/openzeppelin/proxy/Proxy.sol\":1443:1503  delegatecall(gas(), implementation, 0, calldatasize(), 0, 0) */\n              delegatecall\n                /* \"contracts/polygon/external/openzeppelin/proxy/Proxy.sol\":1577:1593  returndatasize() */\n              returndatasize\n                /* \"contracts/polygon/external/openzeppelin/proxy/Proxy.sol\":1574:1575  0 */\n              0x00\n                /* \"contracts/polygon/external/openzeppelin/proxy/Proxy.sol\":1571:1572  0 */\n              dup1\n                /* \"contracts/polygon/external/openzeppelin/proxy/Proxy.sol\":1556:1594  returndatacopy(0, 0, returndatasize()) */\n              returndatacopy\n                /* \"contracts/polygon/external/openzeppelin/proxy/Proxy.sol\":1615:1621  result */\n              dup1\n                /* \"contracts/polygon/external/openzeppelin/proxy/Proxy.sol\":1682:1748  case 0 {... */\n              dup1\n              iszero\n              tag_96\n              jumpi\n                /* \"contracts/polygon/external/openzeppelin/proxy/Proxy.sol\":1797:1813  returndatasize() */\n              returndatasize\n                /* \"contracts/polygon/external/openzeppelin/proxy/Proxy.sol\":1794:1795  0 */\n              0x00\n                /* \"contracts/polygon/external/openzeppelin/proxy/Proxy.sol\":1787:1814  return(0, returndatasize()) */\n              return\n                /* \"contracts/polygon/external/openzeppelin/proxy/Proxy.sol\":1682:1748  case 0 {... */\n            tag_96:\n                /* \"contracts/polygon/external/openzeppelin/proxy/Proxy.sol\":1717:1733  returndatasize() */\n              returndatasize\n                /* \"contracts/polygon/external/openzeppelin/proxy/Proxy.sol\":1714:1715  0 */\n              0x00\n                /* \"contracts/polygon/external/openzeppelin/proxy/Proxy.sol\":1707:1734  revert(0, returndatasize()) */\n              revert\n                /* \"contracts/polygon/abstract/proxy/Base.sol\":3851:4099  function _onlyWhenInitialImplementationHasNotBeenSet(address implementation) private {... */\n            tag_88:\n                /* \"contracts/polygon/abstract/proxy/Base.sol\":3955:3988  initialImplementationHasBeenSet() */\n              tag_98\n                /* \"contracts/polygon/abstract/proxy/Base.sol\":3955:3986  initialImplementationHasBeenSet */\n              tag_21\n                /* \"contracts/polygon/abstract/proxy/Base.sol\":3955:3988  initialImplementationHasBeenSet() */\n              jump\t// in\n            tag_98:\n                /* \"contracts/polygon/abstract/proxy/Base.sol\":3954:3988  !initialImplementationHasBeenSet() */\n              iszero\n                /* \"contracts/polygon/abstract/proxy/Base.sol\":3946:4032  require(!initialImplementationHasBeenSet(), \"Base: initialImplementationHasBeenSet()\") */\n              tag_99\n              jumpi\n              mload(0x40)\n              shl(0xe5, 0x461bcd)\n              dup2\n              mstore\n                /* \"#utility.yul\":2687:2689   */\n              0x20\n                /* \"contracts/polygon/abstract/proxy/Base.sol\":3946:4032  require(!initialImplementationHasBeenSet(), \"Base: initialImplementationHasBeenSet()\") */\n              0x04\n              dup3\n              add\n                /* \"#utility.yul\":2669:2690   */\n              mstore\n                /* \"#utility.yul\":2726:2728   */\n              0x27\n                /* \"#utility.yul\":2706:2724   */\n              0x24\n              dup3\n              add\n                /* \"#utility.yul\":2699:2729   */\n              mstore\n                /* \"#utility.yul\":2765:2799   */\n              0x426173653a20696e697469616c496d706c656d656e746174696f6e4861734265\n                /* \"#utility.yul\":2745:2763   */\n              0x44\n              dup3\n              add\n                /* \"#utility.yul\":2738:2800   */\n              mstore\n              shl(0xc8, 0x656e5365742829)\n                /* \"#utility.yul\":2816:2834   */\n              0x64\n              dup3\n              add\n                /* \"#utility.yul\":2809:2846   */\n              mstore\n                /* \"#utility.yul\":2863:2882   */\n              0x84\n              add\n                /* \"contracts/polygon/abstract/proxy/Base.sol\":3946:4032  require(!initialImplementationHasBeenSet(), \"Base: initialImplementationHasBeenSet()\") */\n              mload(0x40)\n              dup1\n              swap2\n              sub\n              swap1\n              revert\n            tag_99:\n                /* \"contracts/polygon/abstract/proxy/Base.sol\":4088:4092  true */\n              0x01\n                /* \"contracts/polygon/abstract/proxy/Base.sol\":4042:4047  _bool */\n              0x05\n                /* \"contracts/polygon/abstract/proxy/Base.sol\":4042:4085  _bool[initialImplementationHasBeenSetKey()] */\n              0x00\n                /* \"contracts/polygon/abstract/proxy/Base.sol\":4048:4084  initialImplementationHasBeenSetKey() */\n              tag_102\n                /* \"contracts/polygon/abstract/proxy/Base.sol\":4048:4082  initialImplementationHasBeenSetKey */\n              tag_26\n                /* \"contracts/polygon/abstract/proxy/Base.sol\":4048:4084  initialImplementationHasBeenSetKey() */\n              jump\t// in\n            tag_102:\n                /* \"contracts/polygon/abstract/proxy/Base.sol\":4042:4085  _bool[initialImplementationHasBeenSetKey()] */\n              dup2\n              mstore\n              0x20\n              dup2\n              add\n              swap2\n              swap1\n              swap2\n              mstore\n              0x40\n              add\n              0x00\n              keccak256\n                /* \"contracts/polygon/abstract/proxy/Base.sol\":4042:4092  _bool[initialImplementationHasBeenSetKey()] = true */\n              dup1\n              sload\n              not(0xff)\n              and\n              swap2\n              iszero\n              iszero\n              swap2\n              swap1\n              swap2\n              or\n              swap1\n              sstore\n              pop\n                /* \"contracts/polygon/abstract/proxy/Base.sol\":3851:4099  function _onlyWhenInitialImplementationHasNotBeenSet(address implementation) private {... */\n              jump\t// out\n                /* \"contracts/polygon/abstract/proxy/Base.sol\":3183:3381  function _upgrade(address implementation) internal virtual {... */\n            tag_90:\n                /* \"contracts/polygon/abstract/proxy/Base.sol\":3284:3298  implementation */\n              dup1\n                /* \"contracts/polygon/abstract/proxy/Base.sol\":3252:3260  _address */\n              0x04\n                /* \"contracts/polygon/abstract/proxy/Base.sol\":3252:3281  _address[implementationKey()] */\n              0x00\n                /* \"contracts/polygon/abstract/proxy/Base.sol\":3261:3280  implementationKey() */\n              tag_104\n                /* \"contracts/polygon/abstract/proxy/Base.sol\":3261:3278  implementationKey */\n              tag_51\n                /* \"contracts/polygon/abstract/proxy/Base.sol\":3261:3280  implementationKey() */\n              jump\t// in\n            tag_104:\n                /* \"contracts/polygon/abstract/proxy/Base.sol\":3252:3281  _address[implementationKey()] */\n              dup2\n              mstore\n              0x20\n              add\n              swap1\n              dup2\n              mstore\n              0x20\n              add\n              0x00\n              keccak256\n              0x00\n                /* \"contracts/polygon/abstract/proxy/Base.sol\":3252:3298  _address[implementationKey()] = implementation */\n              0x0100\n              exp\n              dup2\n              sload\n              dup2\n              sub(shl(0xa0, 0x01), 0x01)\n              mul\n              not\n              and\n              swap1\n              dup4\n              sub(shl(0xa0, 0x01), 0x01)\n              and\n              mul\n              or\n              swap1\n              sstore\n              pop\n                /* \"contracts/polygon/abstract/proxy/Base.sol\":3308:3335  _logUpgrade(implementation) */\n              tag_105\n                /* \"contracts/polygon/abstract/proxy/Base.sol\":3320:3334  implementation */\n              dup2\n                /* \"contracts/polygon/abstract/proxy/Base.sol\":3308:3319  _logUpgrade */\n              tag_106\n                /* \"contracts/polygon/abstract/proxy/Base.sol\":3308:3335  _logUpgrade(implementation) */\n              jump\t// in\n            tag_105:\n                /* \"contracts/polygon/abstract/proxy/Base.sol\":3350:3374  Upgraded(implementation) */\n              mload(0x40)\n              sub(shl(0xa0, 0x01), 0x01)\n              dup3\n              and\n              swap1\n              0xbc7cd75a20ee27fd9adebab32041f755214dbc6bffa90cc0225b39da2e5c2d3b\n              swap1\n              0x00\n              swap1\n              log2\n                /* \"contracts/polygon/abstract/proxy/Base.sol\":3183:3381  function _upgrade(address implementation) internal virtual {... */\n              pop\n              jump\t// out\n                /* \"contracts/polygon/abstract/proxy/Base.sol\":3545:3687  function _logUpgrade(address implementation) internal virtual {... */\n            tag_106:\n                /* \"contracts/polygon/abstract/proxy/Base.sol\":3617:3630  _addressArray */\n              0x0b\n                /* \"contracts/polygon/abstract/proxy/Base.sol\":3617:3659  _addressArray[implementationTimelineKey()] */\n              0x00\n                /* \"contracts/polygon/abstract/proxy/Base.sol\":3631:3658  implementationTimelineKey() */\n              tag_108\n                /* \"contracts/polygon/abstract/proxy/Base.sol\":3631:3656  implementationTimelineKey */\n              tag_36\n                /* \"contracts/polygon/abstract/proxy/Base.sol\":3631:3658  implementationTimelineKey() */\n              jump\t// in\n            tag_108:\n                /* \"contracts/polygon/abstract/proxy/Base.sol\":3617:3659  _addressArray[implementationTimelineKey()] */\n              dup2\n              mstore\n              0x20\n              dup1\n              dup3\n              add\n              swap3\n              swap1\n              swap3\n              mstore\n              0x40\n              add\n              0x00\n              swap1\n              dup2\n              keccak256\n                /* \"contracts/polygon/abstract/proxy/Base.sol\":3617:3680  _addressArray[implementationTimelineKey()].push(implementation) */\n              dup1\n              sload\n              0x01\n              dup2\n              add\n              dup3\n              sstore\n              swap1\n              dup3\n              mstore\n              swap2\n              swap1\n              keccak256\n              add\n              dup1\n              sload\n              not(sub(shl(0xa0, 0x01), 0x01))\n              and\n              sub(shl(0xa0, 0x01), 0x01)\n              swap3\n              swap1\n              swap3\n              and\n              swap2\n              swap1\n              swap2\n              or\n              swap1\n              sstore\n                /* \"contracts/polygon/abstract/proxy/Base.sol\":3545:3687  function _logUpgrade(address implementation) internal virtual {... */\n              jump\t// out\n                /* \"#utility.yul\":596:776   */\n            tag_41:\n                /* \"#utility.yul\":655:661   */\n              0x00\n                /* \"#utility.yul\":708:710   */\n              0x20\n                /* \"#utility.yul\":696:705   */\n              dup3\n                /* \"#utility.yul\":687:694   */\n              dup5\n                /* \"#utility.yul\":683:706   */\n              sub\n                /* \"#utility.yul\":679:711   */\n              slt\n                /* \"#utility.yul\":676:728   */\n              iszero\n              tag_115\n              jumpi\n                /* \"#utility.yul\":724:725   */\n              0x00\n                /* \"#utility.yul\":721:722   */\n              dup1\n                /* \"#utility.yul\":714:726   */\n              revert\n                /* \"#utility.yul\":676:728   */\n            tag_115:\n              pop\n                /* \"#utility.yul\":747:770   */\n              calldataload\n              swap2\n                /* \"#utility.yul\":596:776   */\n              swap1\n              pop\n              jump\t// out\n                /* \"#utility.yul\":963:1249   */\n            tag_56:\n                /* \"#utility.yul\":1022:1028   */\n              0x00\n                /* \"#utility.yul\":1075:1077   */\n              0x20\n                /* \"#utility.yul\":1063:1072   */\n              dup3\n                /* \"#utility.yul\":1054:1061   */\n              dup5\n                /* \"#utility.yul\":1050:1073   */\n              sub\n                /* \"#utility.yul\":1046:1078   */\n              slt\n                /* \"#utility.yul\":1043:1095   */\n              iszero\n              tag_118\n              jumpi\n                /* \"#utility.yul\":1091:1092   */\n              0x00\n                /* \"#utility.yul\":1088:1089   */\n              dup1\n                /* \"#utility.yul\":1081:1093   */\n              revert\n                /* \"#utility.yul\":1043:1095   */\n            tag_118:\n                /* \"#utility.yul\":1117:1140   */\n              dup2\n              calldataload\n              sub(shl(0xa0, 0x01), 0x01)\n                /* \"#utility.yul\":1169:1200   */\n              dup2\n              and\n                /* \"#utility.yul\":1159:1201   */\n              dup2\n              eq\n                /* \"#utility.yul\":1149:1219   */\n              tag_119\n              jumpi\n                /* \"#utility.yul\":1215:1216   */\n              0x00\n                /* \"#utility.yul\":1212:1213   */\n              dup1\n                /* \"#utility.yul\":1205:1217   */\n              revert\n                /* \"#utility.yul\":1149:1219   */\n            tag_119:\n                /* \"#utility.yul\":1238:1243   */\n              swap4\n                /* \"#utility.yul\":963:1249   */\n              swap3\n              pop\n              pop\n              pop\n              jump\t// out\n                /* \"#utility.yul\":2010:2137   */\n            tag_79:\n                /* \"#utility.yul\":2071:2081   */\n              0x4e487b71\n                /* \"#utility.yul\":2066:2069   */\n              0xe0\n                /* \"#utility.yul\":2062:2082   */\n              shl\n                /* \"#utility.yul\":2059:2060   */\n              0x00\n                /* \"#utility.yul\":2052:2083   */\n              mstore\n                /* \"#utility.yul\":2102:2106   */\n              0x32\n                /* \"#utility.yul\":2099:2100   */\n              0x04\n                /* \"#utility.yul\":2092:2107   */\n              mstore\n                /* \"#utility.yul\":2126:2130   */\n              0x24\n                /* \"#utility.yul\":2123:2124   */\n              0x00\n                /* \"#utility.yul\":2116:2131   */\n              revert\n\n            auxdata: 0xa264697066735822122020c0e22c0d4e563f887dd7270f15beaece1d6ebc6a0eecfeee8ffcd8b54559e064736f6c63430008130033\n        }\n    }\n\n    auxdata: 0xa2646970667358221220c498414b9d2cb60cd01a1e2b2b0f3340c6a073d8cc6fa6df183a9d17d76a1ebf64736f6c63430008130033\n}\n",
				"bytecode": {
					"linkReferences": {},
					"object": "608060405234801561001057600080fd5b50604051610c04380380610c0483398101604081905261002f916100af565b336100398161005f565b50600280546001600160a01b0319166001600160a01b03929092169190911790556100df565b600080546001600160a01b038381166001600160a01b0319831681178455604051919092169283917f8be0079c531659141344cd1fd0a4f28419497f9722a3daafe3b4186f6b6457e09190a35050565b6000602082840312156100c157600080fd5b81516001600160a01b03811681146100d857600080fd5b9392505050565b610b16806100ee6000396000f3fe608060405234801561001057600080fd5b50600436106100625760003560e01c8063715018a614610067578063775c300c146100715780638da5cb5b146100955780638df3072d146100a6578063b39c4593146100b9578063f2fde38b146100ca575b600080fd5b61006f6100dd565b005b6100796100f1565b6040516001600160a01b03909116815260200160405180910390f35b6000546001600160a01b0316610079565b6100796100b43660046104b5565b610350565b6002546001600160a01b0316610079565b61006f6100d83660046104ce565b610380565b6100e56103fe565b6100ef6000610458565b565b60006100fb6103fe565b6001604051610109906104a8565b604051809103906000f080158015610125573d6000803e3d6000fd5b5081546001808201845560009384526020842090910180546001600160a01b0319166001600160a01b039390931692909217909155805461016691906104fe565b90506001818154811061017b5761017b610525565b6000918252602090912001546001600160a01b031663fdb165406101a76002546001600160a01b031690565b6040516001600160e01b031960e084901b1681526001600160a01b039091166004820152602401600060405180830381600087803b1580156101e857600080fd5b505af11580156101fc573d6000803e3d6000fd5b5050505060006001828154811061021557610215610525565b60009182526020822001546040805163204a7f0760e21b815290516001600160a01b0390921693508392638129fc1c9260048084019382900301818387803b15801561026057600080fd5b505af1158015610274573d6000803e3d6000fd5b505060405163f2fde38b60e01b81523360048201526001600160a01b038416925063f2fde38b9150602401600060405180830381600087803b1580156102b957600080fd5b505af11580156102cd573d6000803e3d6000fd5b50505050600182815481106102e4576102e4610525565b60009182526020822001546040516001600160a01b03909116917ff40fcec21964ffb566044d083b4073f29f7f7929110ea19e1b3ebe375d89055e91a26001828154811061033457610334610525565b6000918252602090912001546001600160a01b03169392505050565b60006001828154811061036557610365610525565b6000918252602090912001546001600160a01b031692915050565b6103886103fe565b6001600160a01b0381166103f25760405162461bcd60e51b815260206004820152602660248201527f4f776e61626c653a206e6577206f776e657220697320746865207a65726f206160448201526564647265737360d01b60648201526084015b60405180910390fd5b6103fb81610458565b50565b6000546001600160a01b031633146100ef5760405162461bcd60e51b815260206004820181905260248201527f4f776e61626c653a2063616c6c6572206973206e6f7420746865206f776e657260448201526064016103e9565b600080546001600160a01b038381166001600160a01b0319831681178455604051919092169283917f8be0079c531659141344cd1fd0a4f28419497f9722a3daafe3b4186f6b6457e09190a35050565b6105a58061053c83390190565b6000602082840312156104c757600080fd5b5035919050565b6000602082840312156104e057600080fd5b81356001600160a01b03811681146104f757600080fd5b9392505050565b8181038181111561051f57634e487b7160e01b600052601160045260246000fd5b92915050565b634e487b7160e01b600052603260045260246000fdfe608060405234801561001057600080fd5b50610585806100206000396000f3fe60806040526004361061007f5760003560e01c8063780e93681161004e578063780e936814610125578063985fcf9c14610145578063f43588961461015a578063fdb165401461016f5761008e565b80630717f3e6146100965780632145b31a146100c05780635c60da1b146100e3578063667d4359146101105761008e565b3661008e5761008c61018f565b005b61008c61018f565b3480156100a257600080fd5b506100ab6101a1565b60405190151581526020015b60405180910390f35b3480156100cc57600080fd5b506100d56101c8565b6040519081526020016100b7565b3480156100ef57600080fd5b506100f8610232565b6040516001600160a01b0390911681526020016100b7565b34801561011c57600080fd5b506100d5610241565b34801561013157600080fd5b506100f86101403660046104f0565b610284565b34801561015157600080fd5b506100d56102cc565b34801561016657600080fd5b506100d56102f0565b34801561017b57600080fd5b5061008c61018a366004610509565b610324565b61019f61019a610339565b610366565b565b6000600560006101af6101c8565b815260208101919091526040016000205460ff16919050565b60006040516020016102179060208082526023908201527f494e495449414c5f494d504c454d454e544154494f4e5f4841535f4245454e5f60408201526214d15560ea1b606082015260800190565b60405160208183030381529060405280519060200120905090565b600061023c610339565b905090565b60006040516020016102179060208082526017908201527f494d504c454d454e544154494f4e5f54494d454c494e45000000000000000000604082015260600190565b6000600b6000610292610241565b815260200190815260200160002082815481106102b1576102b1610539565b6000918252602090912001546001600160a01b031692915050565b6000600b60006102da610241565b8152602081019190915260400160002054919050565b6000604051602001610217906020808252600e908201526d24a6a82622a6a2a72a20aa24a7a760911b604082015260600190565b61032d8161038a565b61033681610423565b50565b6000600460006103476102f0565b81526020810191909152604001600020546001600160a01b0316919050565b3660008037600080366000845af43d6000803e808015610385573d6000f35b3d6000fd5b6103926101a1565b156103f35760405162461bcd60e51b815260206004820152602760248201527f426173653a20696e697469616c496d706c656d656e746174696f6e4861734265604482015266656e536574282960c81b606482015260840160405180910390fd5b6001600560006104016101c8565b81526020810191909152604001600020805460ff191691151591909117905550565b80600460006104306102f0565b815260200190815260200160002060006101000a8154816001600160a01b0302191690836001600160a01b0316021790555061046b816104a2565b6040516001600160a01b038216907fbc7cd75a20ee27fd9adebab32041f755214dbc6bffa90cc0225b39da2e5c2d3b90600090a250565b600b60006104ae610241565b8152602080820192909252604001600090812080546001810182559082529190200180546001600160a01b0319166001600160a01b0392909216919091179055565b60006020828403121561050257600080fd5b5035919050565b60006020828403121561051b57600080fd5b81356001600160a01b038116811461053257600080fd5b9392505050565b634e487b7160e01b600052603260045260246000fdfea264697066735822122020c0e22c0d4e563f887dd7270f15beaece1d6ebc6a0eecfeee8ffcd8b54559e064736f6c63430008130033a2646970667358221220c498414b9d2cb60cd01a1e2b2b0f3340c6a073d8cc6fa6df183a9d17d76a1ebf64736f6c63430008130033",
					"opcodes": "PUSH1 0x80 PUSH1 0x40 MSTORE CALLVALUE DUP1 ISZERO PUSH2 0x10 JUMPI PUSH1 0x0 DUP1 REVERT JUMPDEST POP PUSH1 0x40 MLOAD PUSH2 0xC04 CODESIZE SUB DUP1 PUSH2 0xC04 DUP4 CODECOPY DUP2 ADD PUSH1 0x40 DUP2 SWAP1 MSTORE PUSH2 0x2F SWAP2 PUSH2 0xAF JUMP JUMPDEST CALLER PUSH2 0x39 DUP2 PUSH2 0x5F JUMP JUMPDEST POP PUSH1 0x2 DUP1 SLOAD PUSH1 0x1 PUSH1 0x1 PUSH1 0xA0 SHL SUB NOT AND PUSH1 0x1 PUSH1 0x1 PUSH1 0xA0 SHL SUB SWAP3 SWAP1 SWAP3 AND SWAP2 SWAP1 SWAP2 OR SWAP1 SSTORE PUSH2 0xDF JUMP JUMPDEST PUSH1 0x0 DUP1 SLOAD PUSH1 0x1 PUSH1 0x1 PUSH1 0xA0 SHL SUB DUP4 DUP2 AND PUSH1 0x1 PUSH1 0x1 PUSH1 0xA0 SHL SUB NOT DUP4 AND DUP2 OR DUP5 SSTORE PUSH1 0x40 MLOAD SWAP2 SWAP1 SWAP3 AND SWAP3 DUP4 SWAP2 PUSH32 0x8BE0079C531659141344CD1FD0A4F28419497F9722A3DAAFE3B4186F6B6457E0 SWAP2 SWAP1 LOG3 POP POP JUMP JUMPDEST PUSH1 0x0 PUSH1 0x20 DUP3 DUP5 SUB SLT ISZERO PUSH2 0xC1 JUMPI PUSH1 0x0 DUP1 REVERT JUMPDEST DUP2 MLOAD PUSH1 0x1 PUSH1 0x1 PUSH1 0xA0 SHL SUB DUP2 AND DUP2 EQ PUSH2 0xD8 JUMPI PUSH1 0x0 DUP1 REVERT JUMPDEST SWAP4 SWAP3 POP POP POP JUMP JUMPDEST PUSH2 0xB16 DUP1 PUSH2 0xEE PUSH1 0x0 CODECOPY PUSH1 0x0 RETURN INVALID PUSH1 0x80 PUSH1 0x40 MSTORE CALLVALUE DUP1 ISZERO PUSH2 0x10 JUMPI PUSH1 0x0 DUP1 REVERT JUMPDEST POP PUSH1 0x4 CALLDATASIZE LT PUSH2 0x62 JUMPI PUSH1 0x0 CALLDATALOAD PUSH1 0xE0 SHR DUP1 PUSH4 0x715018A6 EQ PUSH2 0x67 JUMPI DUP1 PUSH4 0x775C300C EQ PUSH2 0x71 JUMPI DUP1 PUSH4 0x8DA5CB5B EQ PUSH2 0x95 JUMPI DUP1 PUSH4 0x8DF3072D EQ PUSH2 0xA6 JUMPI DUP1 PUSH4 0xB39C4593 EQ PUSH2 0xB9 JUMPI DUP1 PUSH4 0xF2FDE38B EQ PUSH2 0xCA JUMPI JUMPDEST PUSH1 0x0 DUP1 REVERT JUMPDEST PUSH2 0x6F PUSH2 0xDD JUMP JUMPDEST STOP JUMPDEST PUSH2 0x79 PUSH2 0xF1 JUMP JUMPDEST PUSH1 0x40 MLOAD PUSH1 0x1 PUSH1 0x1 PUSH1 0xA0 SHL SUB SWAP1 SWAP2 AND DUP2 MSTORE PUSH1 0x20 ADD PUSH1 0x40 MLOAD DUP1 SWAP2 SUB SWAP1 RETURN JUMPDEST PUSH1 0x0 SLOAD PUSH1 0x1 PUSH1 0x1 PUSH1 0xA0 SHL SUB AND PUSH2 0x79 JUMP JUMPDEST PUSH2 0x79 PUSH2 0xB4 CALLDATASIZE PUSH1 0x4 PUSH2 0x4B5 JUMP JUMPDEST PUSH2 0x350 JUMP JUMPDEST PUSH1 0x2 SLOAD PUSH1 0x1 PUSH1 0x1 PUSH1 0xA0 SHL SUB AND PUSH2 0x79 JUMP JUMPDEST PUSH2 0x6F PUSH2 0xD8 CALLDATASIZE PUSH1 0x4 PUSH2 0x4CE JUMP JUMPDEST PUSH2 0x380 JUMP JUMPDEST PUSH2 0xE5 PUSH2 0x3FE JUMP JUMPDEST PUSH2 0xEF PUSH1 0x0 PUSH2 0x458 JUMP JUMPDEST JUMP JUMPDEST PUSH1 0x0 PUSH2 0xFB PUSH2 0x3FE JUMP JUMPDEST PUSH1 0x1 PUSH1 0x40 MLOAD PUSH2 0x109 SWAP1 PUSH2 0x4A8 JUMP JUMPDEST PUSH1 0x40 MLOAD DUP1 SWAP2 SUB SWAP1 PUSH1 0x0 CREATE DUP1 ISZERO DUP1 ISZERO PUSH2 0x125 JUMPI RETURNDATASIZE PUSH1 0x0 DUP1 RETURNDATACOPY RETURNDATASIZE PUSH1 0x0 REVERT JUMPDEST POP DUP2 SLOAD PUSH1 0x1 DUP1 DUP3 ADD DUP5 SSTORE PUSH1 0x0 SWAP4 DUP5 MSTORE PUSH1 0x20 DUP5 KECCAK256 SWAP1 SWAP2 ADD DUP1 SLOAD PUSH1 0x1 PUSH1 0x1 PUSH1 0xA0 SHL SUB NOT AND PUSH1 0x1 PUSH1 0x1 PUSH1 0xA0 SHL SUB SWAP4 SWAP1 SWAP4 AND SWAP3 SWAP1 SWAP3 OR SWAP1 SWAP2 SSTORE DUP1 SLOAD PUSH2 0x166 SWAP2 SWAP1 PUSH2 0x4FE JUMP JUMPDEST SWAP1 POP PUSH1 0x1 DUP2 DUP2 SLOAD DUP2 LT PUSH2 0x17B JUMPI PUSH2 0x17B PUSH2 0x525 JUMP JUMPDEST PUSH1 0x0 SWAP2 DUP3 MSTORE PUSH1 0x20 SWAP1 SWAP2 KECCAK256 ADD SLOAD PUSH1 0x1 PUSH1 0x1 PUSH1 0xA0 SHL SUB AND PUSH4 0xFDB16540 PUSH2 0x1A7 PUSH1 0x2 SLOAD PUSH1 0x1 PUSH1 0x1 PUSH1 0xA0 SHL SUB AND SWAP1 JUMP JUMPDEST PUSH1 0x40 MLOAD PUSH1 0x1 PUSH1 0x1 PUSH1 0xE0 SHL SUB NOT PUSH1 0xE0 DUP5 SWAP1 SHL AND DUP2 MSTORE PUSH1 0x1 PUSH1 0x1 PUSH1 0xA0 SHL SUB SWAP1 SWAP2 AND PUSH1 0x4 DUP3 ADD MSTORE PUSH1 0x24 ADD PUSH1 0x0 PUSH1 0x40 MLOAD DUP1 DUP4 SUB DUP2 PUSH1 0x0 DUP8 DUP1 EXTCODESIZE ISZERO DUP1 ISZERO PUSH2 0x1E8 JUMPI PUSH1 0x0 DUP1 REVERT JUMPDEST POP GAS CALL ISZERO DUP1 ISZERO PUSH2 0x1FC JUMPI RETURNDATASIZE PUSH1 0x0 DUP1 RETURNDATACOPY RETURNDATASIZE PUSH1 0x0 REVERT JUMPDEST POP POP POP POP PUSH1 0x0 PUSH1 0x1 DUP3 DUP2 SLOAD DUP2 LT PUSH2 0x215 JUMPI PUSH2 0x215 PUSH2 0x525 JUMP JUMPDEST PUSH1 0x0 SWAP2 DUP3 MSTORE PUSH1 0x20 DUP3 KECCAK256 ADD SLOAD PUSH1 0x40 DUP1 MLOAD PUSH4 0x204A7F07 PUSH1 0xE2 SHL DUP2 MSTORE SWAP1 MLOAD PUSH1 0x1 PUSH1 0x1 PUSH1 0xA0 SHL SUB SWAP1 SWAP3 AND SWAP4 POP DUP4 SWAP3 PUSH4 0x8129FC1C SWAP3 PUSH1 0x4 DUP1 DUP5 ADD SWAP4 DUP3 SWAP1 SUB ADD DUP2 DUP4 DUP8 DUP1 EXTCODESIZE ISZERO DUP1 ISZERO PUSH2 0x260 JUMPI PUSH1 0x0 DUP1 REVERT JUMPDEST POP GAS CALL ISZERO DUP1 ISZERO PUSH2 0x274 JUMPI RETURNDATASIZE PUSH1 0x0 DUP1 RETURNDATACOPY RETURNDATASIZE PUSH1 0x0 REVERT JUMPDEST POP POP PUSH1 0x40 MLOAD PUSH4 0xF2FDE38B PUSH1 0xE0 SHL DUP2 MSTORE CALLER PUSH1 0x4 DUP3 ADD MSTORE PUSH1 0x1 PUSH1 0x1 PUSH1 0xA0 SHL SUB DUP5 AND SWAP3 POP PUSH4 0xF2FDE38B SWAP2 POP PUSH1 0x24 ADD PUSH1 0x0 PUSH1 0x40 MLOAD DUP1 DUP4 SUB DUP2 PUSH1 0x0 DUP8 DUP1 EXTCODESIZE ISZERO DUP1 ISZERO PUSH2 0x2B9 JUMPI PUSH1 0x0 DUP1 REVERT JUMPDEST POP GAS CALL ISZERO DUP1 ISZERO PUSH2 0x2CD JUMPI RETURNDATASIZE PUSH1 0x0 DUP1 RETURNDATACOPY RETURNDATASIZE PUSH1 0x0 REVERT JUMPDEST POP POP POP POP PUSH1 0x1 DUP3 DUP2 SLOAD DUP2 LT PUSH2 0x2E4 JUMPI PUSH2 0x2E4 PUSH2 0x525 JUMP JUMPDEST PUSH1 0x0 SWAP2 DUP3 MSTORE PUSH1 0x20 DUP3 KECCAK256 ADD SLOAD PUSH1 0x40 MLOAD PUSH1 0x1 PUSH1 0x1 PUSH1 0xA0 SHL SUB SWAP1 SWAP2 AND SWAP2 PUSH32 0xF40FCEC21964FFB566044D083B4073F29F7F7929110EA19E1B3EBE375D89055E SWAP2 LOG2 PUSH1 0x1 DUP3 DUP2 SLOAD DUP2 LT PUSH2 0x334 JUMPI PUSH2 0x334 PUSH2 0x525 JUMP JUMPDEST PUSH1 0x0 SWAP2 DUP3 MSTORE PUSH1 0x20 SWAP1 SWAP2 KECCAK256 ADD SLOAD PUSH1 0x1 PUSH1 0x1 PUSH1 0xA0 SHL SUB AND SWAP4 SWAP3 POP POP POP JUMP JUMPDEST PUSH1 0x0 PUSH1 0x1 DUP3 DUP2 SLOAD DUP2 LT PUSH2 0x365 JUMPI PUSH2 0x365 PUSH2 0x525 JUMP JUMPDEST PUSH1 0x0 SWAP2 DUP3 MSTORE PUSH1 0x20 SWAP1 SWAP2 KECCAK256 ADD SLOAD PUSH1 0x1 PUSH1 0x1 PUSH1 0xA0 SHL SUB AND SWAP3 SWAP2 POP POP JUMP JUMPDEST PUSH2 0x388 PUSH2 0x3FE JUMP JUMPDEST PUSH1 0x1 PUSH1 0x1 PUSH1 0xA0 SHL SUB DUP2 AND PUSH2 0x3F2 JUMPI PUSH1 0x40 MLOAD PUSH3 0x461BCD PUSH1 0xE5 SHL DUP2 MSTORE PUSH1 0x20 PUSH1 0x4 DUP3 ADD MSTORE PUSH1 0x26 PUSH1 0x24 DUP3 ADD MSTORE PUSH32 0x4F776E61626C653A206E6577206F776E657220697320746865207A65726F2061 PUSH1 0x44 DUP3 ADD MSTORE PUSH6 0x646472657373 PUSH1 0xD0 SHL PUSH1 0x64 DUP3 ADD MSTORE PUSH1 0x84 ADD JUMPDEST PUSH1 0x40 MLOAD DUP1 SWAP2 SUB SWAP1 REVERT JUMPDEST PUSH2 0x3FB DUP2 PUSH2 0x458 JUMP JUMPDEST POP JUMP JUMPDEST PUSH1 0x0 SLOAD PUSH1 0x1 PUSH1 0x1 PUSH1 0xA0 SHL SUB AND CALLER EQ PUSH2 0xEF JUMPI PUSH1 0x40 MLOAD PUSH3 0x461BCD PUSH1 0xE5 SHL DUP2 MSTORE PUSH1 0x20 PUSH1 0x4 DUP3 ADD DUP2 SWAP1 MSTORE PUSH1 0x24 DUP3 ADD MSTORE PUSH32 0x4F776E61626C653A2063616C6C6572206973206E6F7420746865206F776E6572 PUSH1 0x44 DUP3 ADD MSTORE PUSH1 0x64 ADD PUSH2 0x3E9 JUMP JUMPDEST PUSH1 0x0 DUP1 SLOAD PUSH1 0x1 PUSH1 0x1 PUSH1 0xA0 SHL SUB DUP4 DUP2 AND PUSH1 0x1 PUSH1 0x1 PUSH1 0xA0 SHL SUB NOT DUP4 AND DUP2 OR DUP5 SSTORE PUSH1 0x40 MLOAD SWAP2 SWAP1 SWAP3 AND SWAP3 DUP4 SWAP2 PUSH32 0x8BE0079C531659141344CD1FD0A4F28419497F9722A3DAAFE3B4186F6B6457E0 SWAP2 SWAP1 LOG3 POP POP JUMP JUMPDEST PUSH2 0x5A5 DUP1 PUSH2 0x53C DUP4 CODECOPY ADD SWAP1 JUMP JUMPDEST PUSH1 0x0 PUSH1 0x20 DUP3 DUP5 SUB SLT ISZERO PUSH2 0x4C7 JUMPI PUSH1 0x0 DUP1 REVERT JUMPDEST POP CALLDATALOAD SWAP2 SWAP1 POP JUMP JUMPDEST PUSH1 0x0 PUSH1 0x20 DUP3 DUP5 SUB SLT ISZERO PUSH2 0x4E0 JUMPI PUSH1 0x0 DUP1 REVERT JUMPDEST DUP2 CALLDATALOAD PUSH1 0x1 PUSH1 0x1 PUSH1 0xA0 SHL SUB DUP2 AND DUP2 EQ PUSH2 0x4F7 JUMPI PUSH1 0x0 DUP1 REVERT JUMPDEST SWAP4 SWAP3 POP POP POP JUMP JUMPDEST DUP2 DUP2 SUB DUP2 DUP2 GT ISZERO PUSH2 0x51F JUMPI PUSH4 0x4E487B71 PUSH1 0xE0 SHL PUSH1 0x0 MSTORE PUSH1 0x11 PUSH1 0x4 MSTORE PUSH1 0x24 PUSH1 0x0 REVERT JUMPDEST SWAP3 SWAP2 POP POP JUMP JUMPDEST PUSH4 0x4E487B71 PUSH1 0xE0 SHL PUSH1 0x0 MSTORE PUSH1 0x32 PUSH1 0x4 MSTORE PUSH1 0x24 PUSH1 0x0 REVERT INVALID PUSH1 0x80 PUSH1 0x40 MSTORE CALLVALUE DUP1 ISZERO PUSH2 0x10 JUMPI PUSH1 0x0 DUP1 REVERT JUMPDEST POP PUSH2 0x585 DUP1 PUSH2 0x20 PUSH1 0x0 CODECOPY PUSH1 0x0 RETURN INVALID PUSH1 0x80 PUSH1 0x40 MSTORE PUSH1 0x4 CALLDATASIZE LT PUSH2 0x7F JUMPI PUSH1 0x0 CALLDATALOAD PUSH1 0xE0 SHR DUP1 PUSH4 0x780E9368 GT PUSH2 0x4E JUMPI DUP1 PUSH4 0x780E9368 EQ PUSH2 0x125 JUMPI DUP1 PUSH4 0x985FCF9C EQ PUSH2 0x145 JUMPI DUP1 PUSH4 0xF4358896 EQ PUSH2 0x15A JUMPI DUP1 PUSH4 0xFDB16540 EQ PUSH2 0x16F JUMPI PUSH2 0x8E JUMP JUMPDEST DUP1 PUSH4 0x717F3E6 EQ PUSH2 0x96 JUMPI DUP1 PUSH4 0x2145B31A EQ PUSH2 0xC0 JUMPI DUP1 PUSH4 0x5C60DA1B EQ PUSH2 0xE3 JUMPI DUP1 PUSH4 0x667D4359 EQ PUSH2 0x110 JUMPI PUSH2 0x8E JUMP JUMPDEST CALLDATASIZE PUSH2 0x8E JUMPI PUSH2 0x8C PUSH2 0x18F JUMP JUMPDEST STOP JUMPDEST PUSH2 0x8C PUSH2 0x18F JUMP JUMPDEST CALLVALUE DUP1 ISZERO PUSH2 0xA2 JUMPI PUSH1 0x0 DUP1 REVERT JUMPDEST POP PUSH2 0xAB PUSH2 0x1A1 JUMP JUMPDEST PUSH1 0x40 MLOAD SWAP1 ISZERO ISZERO DUP2 MSTORE PUSH1 0x20 ADD JUMPDEST PUSH1 0x40 MLOAD DUP1 SWAP2 SUB SWAP1 RETURN JUMPDEST CALLVALUE DUP1 ISZERO PUSH2 0xCC JUMPI PUSH1 0x0 DUP1 REVERT JUMPDEST POP PUSH2 0xD5 PUSH2 0x1C8 JUMP JUMPDEST PUSH1 0x40 MLOAD SWAP1 DUP2 MSTORE PUSH1 0x20 ADD PUSH2 0xB7 JUMP JUMPDEST CALLVALUE DUP1 ISZERO PUSH2 0xEF JUMPI PUSH1 0x0 DUP1 REVERT JUMPDEST POP PUSH2 0xF8 PUSH2 0x232 JUMP JUMPDEST PUSH1 0x40 MLOAD PUSH1 0x1 PUSH1 0x1 PUSH1 0xA0 SHL SUB SWAP1 SWAP2 AND DUP2 MSTORE PUSH1 0x20 ADD PUSH2 0xB7 JUMP JUMPDEST CALLVALUE DUP1 ISZERO PUSH2 0x11C JUMPI PUSH1 0x0 DUP1 REVERT JUMPDEST POP PUSH2 0xD5 PUSH2 0x241 JUMP JUMPDEST CALLVALUE DUP1 ISZERO PUSH2 0x131 JUMPI PUSH1 0x0 DUP1 REVERT JUMPDEST POP PUSH2 0xF8 PUSH2 0x140 CALLDATASIZE PUSH1 0x4 PUSH2 0x4F0 JUMP JUMPDEST PUSH2 0x284 JUMP JUMPDEST CALLVALUE DUP1 ISZERO PUSH2 0x151 JUMPI PUSH1 0x0 DUP1 REVERT JUMPDEST POP PUSH2 0xD5 PUSH2 0x2CC JUMP JUMPDEST CALLVALUE DUP1 ISZERO PUSH2 0x166 JUMPI PUSH1 0x0 DUP1 REVERT JUMPDEST POP PUSH2 0xD5 PUSH2 0x2F0 JUMP JUMPDEST CALLVALUE DUP1 ISZERO PUSH2 0x17B JUMPI PUSH1 0x0 DUP1 REVERT JUMPDEST POP PUSH2 0x8C PUSH2 0x18A CALLDATASIZE PUSH1 0x4 PUSH2 0x509 JUMP JUMPDEST PUSH2 0x324 JUMP JUMPDEST PUSH2 0x19F PUSH2 0x19A PUSH2 0x339 JUMP JUMPDEST PUSH2 0x366 JUMP JUMPDEST JUMP JUMPDEST PUSH1 0x0 PUSH1 0x5 PUSH1 0x0 PUSH2 0x1AF PUSH2 0x1C8 JUMP JUMPDEST DUP2 MSTORE PUSH1 0x20 DUP2 ADD SWAP2 SWAP1 SWAP2 MSTORE PUSH1 0x40 ADD PUSH1 0x0 KECCAK256 SLOAD PUSH1 0xFF AND SWAP2 SWAP1 POP JUMP JUMPDEST PUSH1 0x0 PUSH1 0x40 MLOAD PUSH1 0x20 ADD PUSH2 0x217 SWAP1 PUSH1 0x20 DUP1 DUP3 MSTORE PUSH1 0x23 SWAP1 DUP3 ADD MSTORE PUSH32 0x494E495449414C5F494D504C454D454E544154494F4E5F4841535F4245454E5F PUSH1 0x40 DUP3 ADD MSTORE PUSH3 0x14D155 PUSH1 0xEA SHL PUSH1 0x60 DUP3 ADD MSTORE PUSH1 0x80 ADD SWAP1 JUMP JUMPDEST PUSH1 0x40 MLOAD PUSH1 0x20 DUP2 DUP4 SUB SUB DUP2 MSTORE SWAP1 PUSH1 0x40 MSTORE DUP1 MLOAD SWAP1 PUSH1 0x20 ADD KECCAK256 SWAP1 POP SWAP1 JUMP JUMPDEST PUSH1 0x0 PUSH2 0x23C PUSH2 0x339 JUMP JUMPDEST SWAP1 POP SWAP1 JUMP JUMPDEST PUSH1 0x0 PUSH1 0x40 MLOAD PUSH1 0x20 ADD PUSH2 0x217 SWAP1 PUSH1 0x20 DUP1 DUP3 MSTORE PUSH1 0x17 SWAP1 DUP3 ADD MSTORE PUSH32 0x494D504C454D454E544154494F4E5F54494D454C494E45000000000000000000 PUSH1 0x40 DUP3 ADD MSTORE PUSH1 0x60 ADD SWAP1 JUMP JUMPDEST PUSH1 0x0 PUSH1 0xB PUSH1 0x0 PUSH2 0x292 PUSH2 0x241 JUMP JUMPDEST DUP2 MSTORE PUSH1 0x20 ADD SWAP1 DUP2 MSTORE PUSH1 0x20 ADD PUSH1 0x0 KECCAK256 DUP3 DUP2 SLOAD DUP2 LT PUSH2 0x2B1 JUMPI PUSH2 0x2B1 PUSH2 0x539 JUMP JUMPDEST PUSH1 0x0 SWAP2 DUP3 MSTORE PUSH1 0x20 SWAP1 SWAP2 KECCAK256 ADD SLOAD PUSH1 0x1 PUSH1 0x1 PUSH1 0xA0 SHL SUB AND SWAP3 SWAP2 POP POP JUMP JUMPDEST PUSH1 0x0 PUSH1 0xB PUSH1 0x0 PUSH2 0x2DA PUSH2 0x241 JUMP JUMPDEST DUP2 MSTORE PUSH1 0x20 DUP2 ADD SWAP2 SWAP1 SWAP2 MSTORE PUSH1 0x40 ADD PUSH1 0x0 KECCAK256 SLOAD SWAP2 SWAP1 POP JUMP JUMPDEST PUSH1 0x0 PUSH1 0x40 MLOAD PUSH1 0x20 ADD PUSH2 0x217 SWAP1 PUSH1 0x20 DUP1 DUP3 MSTORE PUSH1 0xE SWAP1 DUP3 ADD MSTORE PUSH14 0x24A6A82622A6A2A72A20AA24A7A7 PUSH1 0x91 SHL PUSH1 0x40 DUP3 ADD MSTORE PUSH1 0x60 ADD SWAP1 JUMP JUMPDEST PUSH2 0x32D DUP2 PUSH2 0x38A JUMP JUMPDEST PUSH2 0x336 DUP2 PUSH2 0x423 JUMP JUMPDEST POP JUMP JUMPDEST PUSH1 0x0 PUSH1 0x4 PUSH1 0x0 PUSH2 0x347 PUSH2 0x2F0 JUMP JUMPDEST DUP2 MSTORE PUSH1 0x20 DUP2 ADD SWAP2 SWAP1 SWAP2 MSTORE PUSH1 0x40 ADD PUSH1 0x0 KECCAK256 SLOAD PUSH1 0x1 PUSH1 0x1 PUSH1 0xA0 SHL SUB AND SWAP2 SWAP1 POP JUMP JUMPDEST CALLDATASIZE PUSH1 0x0 DUP1 CALLDATACOPY PUSH1 0x0 DUP1 CALLDATASIZE PUSH1 0x0 DUP5 GAS DELEGATECALL RETURNDATASIZE PUSH1 0x0 DUP1 RETURNDATACOPY DUP1 DUP1 ISZERO PUSH2 0x385 JUMPI RETURNDATASIZE PUSH1 0x0 RETURN JUMPDEST RETURNDATASIZE PUSH1 0x0 REVERT JUMPDEST PUSH2 0x392 PUSH2 0x1A1 JUMP JUMPDEST ISZERO PUSH2 0x3F3 JUMPI PUSH1 0x40 MLOAD PUSH3 0x461BCD PUSH1 0xE5 SHL DUP2 MSTORE PUSH1 0x20 PUSH1 0x4 DUP3 ADD MSTORE PUSH1 0x27 PUSH1 0x24 DUP3 ADD MSTORE PUSH32 0x426173653A20696E697469616C496D706C656D656E746174696F6E4861734265 PUSH1 0x44 DUP3 ADD MSTORE PUSH7 0x656E5365742829 PUSH1 0xC8 SHL PUSH1 0x64 DUP3 ADD MSTORE PUSH1 0x84 ADD PUSH1 0x40 MLOAD DUP1 SWAP2 SUB SWAP1 REVERT JUMPDEST PUSH1 0x1 PUSH1 0x5 PUSH1 0x0 PUSH2 0x401 PUSH2 0x1C8 JUMP JUMPDEST DUP2 MSTORE PUSH1 0x20 DUP2 ADD SWAP2 SWAP1 SWAP2 MSTORE PUSH1 0x40 ADD PUSH1 0x0 KECCAK256 DUP1 SLOAD PUSH1 0xFF NOT AND SWAP2 ISZERO ISZERO SWAP2 SWAP1 SWAP2 OR SWAP1 SSTORE POP JUMP JUMPDEST DUP1 PUSH1 0x4 PUSH1 0x0 PUSH2 0x430 PUSH2 0x2F0 JUMP JUMPDEST DUP2 MSTORE PUSH1 0x20 ADD SWAP1 DUP2 MSTORE PUSH1 0x20 ADD PUSH1 0x0 KECCAK256 PUSH1 0x0 PUSH2 0x100 EXP DUP2 SLOAD DUP2 PUSH1 0x1 PUSH1 0x1 PUSH1 0xA0 SHL SUB MUL NOT AND SWAP1 DUP4 PUSH1 0x1 PUSH1 0x1 PUSH1 0xA0 SHL SUB AND MUL OR SWAP1 SSTORE POP PUSH2 0x46B DUP2 PUSH2 0x4A2 JUMP JUMPDEST PUSH1 0x40 MLOAD PUSH1 0x1 PUSH1 0x1 PUSH1 0xA0 SHL SUB DUP3 AND SWAP1 PUSH32 0xBC7CD75A20EE27FD9ADEBAB32041F755214DBC6BFFA90CC0225B39DA2E5C2D3B SWAP1 PUSH1 0x0 SWAP1 LOG2 POP JUMP JUMPDEST PUSH1 0xB PUSH1 0x0 PUSH2 0x4AE PUSH2 0x241 JUMP JUMPDEST DUP2 MSTORE PUSH1 0x20 DUP1 DUP3 ADD SWAP3 SWAP1 SWAP3 MSTORE PUSH1 0x40 ADD PUSH1 0x0 SWAP1 DUP2 KECCAK256 DUP1 SLOAD PUSH1 0x1 DUP2 ADD DUP3 SSTORE SWAP1 DUP3 MSTORE SWAP2 SWAP1 KECCAK256 ADD DUP1 SLOAD PUSH1 0x1 PUSH1 0x1 PUSH1 0xA0 SHL SUB NOT AND PUSH1 0x1 PUSH1 0x1 PUSH1 0xA0 SHL SUB SWAP3 SWAP1 SWAP3 AND SWAP2 SWAP1 SWAP2 OR SWAP1 SSTORE JUMP JUMPDEST PUSH1 0x0 PUSH1 0x20 DUP3 DUP5 SUB SLT ISZERO PUSH2 0x502 JUMPI PUSH1 0x0 DUP1 REVERT JUMPDEST POP CALLDATALOAD SWAP2 SWAP1 POP JUMP JUMPDEST PUSH1 0x0 PUSH1 0x20 DUP3 DUP5 SUB SLT ISZERO PUSH2 0x51B JUMPI PUSH1 0x0 DUP1 REVERT JUMPDEST DUP2 CALLDATALOAD PUSH1 0x1 PUSH1 0x1 PUSH1 0xA0 SHL SUB DUP2 AND DUP2 EQ PUSH2 0x532 JUMPI PUSH1 0x0 DUP1 REVERT JUMPDEST SWAP4 SWAP3 POP POP POP JUMP JUMPDEST PUSH4 0x4E487B71 PUSH1 0xE0 SHL PUSH1 0x0 MSTORE PUSH1 0x32 PUSH1 0x4 MSTORE PUSH1 0x24 PUSH1 0x0 REVERT INVALID LOG2 PUSH5 0x6970667358 0x22 SLT KECCAK256 KECCAK256 0xC0 0xE2 0x2C 0xD 0x4E JUMP EXTCODEHASH DUP9 PUSH30 0xD7270F15BEAECE1D6EBC6A0EECFEEE8FFCD8B54559E064736F6C63430008 SGT STOP CALLER LOG2 PUSH5 0x6970667358 0x22 SLT KECCAK256 0xC4 SWAP9 COINBASE 0x4B SWAP14 0x2C 0xB6 0xC 0xD0 BYTE 0x1E 0x2B 0x2B 0xF CALLER BLOCKHASH 0xC6 LOG0 PUSH20 0xD8CC6FA6DF183A9D17D76A1EBF64736F6C634300 ADDMOD SGT STOP CALLER "
				},
				"gasEstimates": {
					"creation": {
						"codeDepositCost": "567600",
						"executionCost": "infinite",
						"totalCost": "infinite"
					},
					"external": {
						"addressDeployedTo(uint256)": "4651",
						"defaultImplementation()": "2385",
						"deploy()": "infinite",
						"owner()": "2341",
						"renounceOwnership()": "infinite",
						"transferOwnership(address)": "28386"
					}
				},
				"methodIdentifiers": {
					"addressDeployedTo(uint256)": "8df3072d",
					"defaultImplementation()": "b39c4593",
					"deploy()": "775c300c",
					"owner()": "8da5cb5b",
					"renounceOwnership()": "715018a6",
					"transferOwnership(address)": "f2fde38b"
				}
			},
			"storageLayout": {
				"storage": [
					{
						"astId": 532,
						"contract": "contracts/polygon/abstract/proxy/BaseFactory.sol:BaseFactory",
						"label": "_owner",
						"offset": 0,
						"slot": "0",
						"type": "t_address"
					},
					{
						"astId": 205,
						"contract": "contracts/polygon/abstract/proxy/BaseFactory.sol:BaseFactory",
						"label": "_deployed",
						"offset": 0,
						"slot": "1",
						"type": "t_array(t_contract(Base)193)dyn_storage"
					},
					{
						"astId": 208,
						"contract": "contracts/polygon/abstract/proxy/BaseFactory.sol:BaseFactory",
						"label": "_defaultImplementation",
						"offset": 0,
						"slot": "2",
						"type": "t_address"
					}
				],
				"types": {
					"t_address": {
						"encoding": "inplace",
						"label": "address",
						"numberOfBytes": "20"
					},
					"t_array(t_contract(Base)193)dyn_storage": {
						"base": "t_contract(Base)193",
						"encoding": "dynamic_array",
						"label": "contract Base[]",
						"numberOfBytes": "32"
					},
					"t_contract(Base)193": {
						"encoding": "inplace",
						"label": "contract Base",
						"numberOfBytes": "20"
					}
				}
			},
			"userdoc": {
				"events": {
					"Deployed(address)": {
						"notice": "Emitted when a new Base contract is deployed."
					}
				},
				"kind": "user",
				"methods": {},
				"version": 1
			}
		}
	}
}