{
	"contracts/polygon/abstract/proxy/Base.sol": {
		"Base": {
			"abi": [
				{
					"anonymous": false,
					"inputs": [
						{
							"indexed": true,
							"internalType": "address",
							"name": "implementation",
							"type": "address"
						}
					],
					"name": "Upgraded",
					"type": "event"
				},
				{
					"stateMutability": "payable",
					"type": "fallback"
				},
				{
					"inputs": [],
					"name": "implementation",
					"outputs": [
						{
							"internalType": "address",
							"name": "",
							"type": "address"
						}
					],
					"stateMutability": "view",
					"type": "function"
				},
				{
					"inputs": [],
					"name": "implementationKey",
					"outputs": [
						{
							"internalType": "bytes32",
							"name": "",
							"type": "bytes32"
						}
					],
					"stateMutability": "pure",
					"type": "function"
				},
				{
					"inputs": [
						{
							"internalType": "uint256",
							"name": "implementationId",
							"type": "uint256"
						}
					],
					"name": "implementationTimeline",
					"outputs": [
						{
							"internalType": "address",
							"name": "",
							"type": "address"
						}
					],
					"stateMutability": "view",
					"type": "function"
				},
				{
					"inputs": [],
					"name": "implementationTimelineKey",
					"outputs": [
						{
							"internalType": "bytes32",
							"name": "",
							"type": "bytes32"
						}
					],
					"stateMutability": "pure",
					"type": "function"
				},
				{
					"inputs": [],
					"name": "implementationTimelineLength",
					"outputs": [
						{
							"internalType": "uint256",
							"name": "",
							"type": "uint256"
						}
					],
					"stateMutability": "view",
					"type": "function"
				},
				{
					"inputs": [],
					"name": "initialImplementationHasBeenSet",
					"outputs": [
						{
							"internalType": "bool",
							"name": "",
							"type": "bool"
						}
					],
					"stateMutability": "view",
					"type": "function"
				},
				{
					"inputs": [],
					"name": "initialImplementationHasBeenSetKey",
					"outputs": [
						{
							"internalType": "bytes32",
							"name": "",
							"type": "bytes32"
						}
					],
					"stateMutability": "pure",
					"type": "function"
				},
				{
					"inputs": [
						{
							"internalType": "address",
							"name": "implementation",
							"type": "address"
						}
					],
					"name": "setInitialImplementation",
					"outputs": [],
					"stateMutability": "nonpayable",
					"type": "function"
				},
				{
					"stateMutability": "payable",
					"type": "receive"
				}
			],
			"devdoc": {
				"events": {
					"Upgraded(address)": {
						"details": "Emitted when the contract is upgraded to a new implementation. ",
						"params": {
							"implementation": "The address of the new implementation contract."
						}
					}
				},
				"kind": "dev",
				"methods": {
					"implementation()": {
						"details": "Returns the current implementation address."
					},
					"implementationKey()": {
						"details": "Returns the key used to store the address of the current implementation contract."
					},
					"implementationTimeline(uint256)": {
						"details": "Returns the implementation address at a specific timeline point.",
						"params": {
							"implementationId": "The index of the implementation in the timeline."
						}
					},
					"implementationTimelineKey()": {
						"details": "Returns the key used to store the timeline of implementation contracts."
					},
					"implementationTimelineLength()": {
						"details": "Returns the number of implementations in the timeline."
					},
					"initialImplementationHasBeenSet()": {
						"details": "Checks if the initial implementation has been set."
					},
					"initialImplementationHasBeenSetKey()": {
						"details": "Returns the key used to check if the initial implementation has been set."
					},
					"setInitialImplementation(address)": {
						"details": "Sets the initial implementation if it has not been set yet.",
						"params": {
							"implementation": "The address of the initial implementation."
						}
					}
				},
				"version": 1
			},
			"evm": {
				"assembly": "    /* \"contracts/polygon/abstract/proxy/Base.sol\":380:4101  contract Base is Storage, Proxy {... */\n  mstore(0x40, 0x80)\n  callvalue\n  dup1\n  iszero\n  tag_1\n  jumpi\n  0x00\n  dup1\n  revert\ntag_1:\n  pop\n  dataSize(sub_0)\n  dup1\n  dataOffset(sub_0)\n  0x00\n  codecopy\n  0x00\n  return\nstop\n\nsub_0: assembly {\n        /* \"contracts/polygon/abstract/proxy/Base.sol\":380:4101  contract Base is Storage, Proxy {... */\n      mstore(0x40, 0x80)\n      jumpi(tag_1, lt(calldatasize, 0x04))\n      shr(0xe0, calldataload(0x00))\n      dup1\n      0x780e9368\n      gt\n      tag_11\n      jumpi\n      dup1\n      0x780e9368\n      eq\n      tag_7\n      jumpi\n      dup1\n      0x985fcf9c\n      eq\n      tag_8\n      jumpi\n      dup1\n      0xf4358896\n      eq\n      tag_9\n      jumpi\n      dup1\n      0xfdb16540\n      eq\n      tag_10\n      jumpi\n      jump(tag_2)\n    tag_11:\n      dup1\n      0x0717f3e6\n      eq\n      tag_3\n      jumpi\n      dup1\n      0x2145b31a\n      eq\n      tag_4\n      jumpi\n      dup1\n      0x5c60da1b\n      eq\n      tag_5\n      jumpi\n      dup1\n      0x667d4359\n      eq\n      tag_6\n      jumpi\n      jump(tag_2)\n    tag_1:\n      jumpi(tag_2, calldatasize)\n        /* \"contracts/polygon/external/openzeppelin/proxy/Proxy.sol\":2899:2910  _fallback() */\n      tag_14\n        /* \"contracts/polygon/external/openzeppelin/proxy/Proxy.sol\":2899:2908  _fallback */\n      tag_15\n        /* \"contracts/polygon/external/openzeppelin/proxy/Proxy.sol\":2899:2910  _fallback() */\n      jump\t// in\n    tag_14:\n        /* \"contracts/polygon/abstract/proxy/Base.sol\":380:4101  contract Base is Storage, Proxy {... */\n      stop\n    tag_2:\n        /* \"contracts/polygon/external/openzeppelin/proxy/Proxy.sol\":2676:2687  _fallback() */\n      tag_14\n        /* \"contracts/polygon/external/openzeppelin/proxy/Proxy.sol\":2676:2685  _fallback */\n      tag_15\n        /* \"contracts/polygon/external/openzeppelin/proxy/Proxy.sol\":2676:2687  _fallback() */\n      jump\t// in\n        /* \"contracts/polygon/abstract/proxy/Base.sol\":2265:2410  function initialImplementationHasBeenSet() public view virtual returns (bool) {... */\n    tag_3:\n      callvalue\n      dup1\n      iszero\n      tag_19\n      jumpi\n      0x00\n      dup1\n      revert\n    tag_19:\n      pop\n      tag_20\n      tag_21\n      jump\t// in\n    tag_20:\n      mload(0x40)\n        /* \"#utility.yul\":179:193   */\n      swap1\n      iszero\n        /* \"#utility.yul\":172:194   */\n      iszero\n        /* \"#utility.yul\":154:195   */\n      dup2\n      mstore\n        /* \"#utility.yul\":142:144   */\n      0x20\n        /* \"#utility.yul\":127:145   */\n      add\n        /* \"contracts/polygon/abstract/proxy/Base.sol\":2265:2410  function initialImplementationHasBeenSet() public view virtual returns (bool) {... */\n    tag_22:\n      mload(0x40)\n      dup1\n      swap2\n      sub\n      swap1\n      return\n        /* \"contracts/polygon/abstract/proxy/Base.sol\":1239:1407  function initialImplementationHasBeenSetKey() public pure virtual returns (bytes32) {... */\n    tag_4:\n      callvalue\n      dup1\n      iszero\n      tag_24\n      jumpi\n      0x00\n      dup1\n      revert\n    tag_24:\n      pop\n      tag_25\n      tag_26\n      jump\t// in\n    tag_25:\n      mload(0x40)\n        /* \"#utility.yul\":352:377   */\n      swap1\n      dup2\n      mstore\n        /* \"#utility.yul\":340:342   */\n      0x20\n        /* \"#utility.yul\":325:343   */\n      add\n        /* \"contracts/polygon/abstract/proxy/Base.sol\":1239:1407  function initialImplementationHasBeenSetKey() public pure virtual returns (bytes32) {... */\n      tag_22\n        /* \"#utility.yul\":206:383   */\n      jump\n        /* \"contracts/polygon/abstract/proxy/Base.sol\":1483:1588  function implementation() public view virtual returns (address) {... */\n    tag_5:\n      callvalue\n      dup1\n      iszero\n      tag_29\n      jumpi\n      0x00\n      dup1\n      revert\n    tag_29:\n      pop\n      tag_30\n      tag_31\n      jump\t// in\n    tag_30:\n      mload(0x40)\n      sub(shl(0xa0, 0x01), 0x01)\n        /* \"#utility.yul\":552:584   */\n      swap1\n      swap2\n      and\n        /* \"#utility.yul\":534:585   */\n      dup2\n      mstore\n        /* \"#utility.yul\":522:524   */\n      0x20\n        /* \"#utility.yul\":507:525   */\n      add\n        /* \"contracts/polygon/abstract/proxy/Base.sol\":1483:1588  function implementation() public view virtual returns (address) {... */\n      tag_22\n        /* \"#utility.yul\":388:591   */\n      jump\n        /* \"contracts/polygon/abstract/proxy/Base.sol\":986:1133  function implementationTimelineKey() public pure virtual returns (bytes32) {... */\n    tag_6:\n      callvalue\n      dup1\n      iszero\n      tag_34\n      jumpi\n      0x00\n      dup1\n      revert\n    tag_34:\n      pop\n      tag_25\n      tag_36\n      jump\t// in\n        /* \"contracts/polygon/abstract/proxy/Base.sol\":1764:1944  function implementationTimeline(uint256 implementationId) public view virtual returns (address) {... */\n    tag_7:\n      callvalue\n      dup1\n      iszero\n      tag_38\n      jumpi\n      0x00\n      dup1\n      revert\n    tag_38:\n      pop\n      tag_30\n      tag_40\n      calldatasize\n      0x04\n      tag_41\n      jump\t// in\n    tag_40:\n      tag_42\n      jump\t// in\n        /* \"contracts/polygon/abstract/proxy/Base.sol\":2031:2182  function implementationTimelineLength() public view virtual returns (uint256) {... */\n    tag_8:\n      callvalue\n      dup1\n      iszero\n      tag_44\n      jumpi\n      0x00\n      dup1\n      revert\n    tag_44:\n      pop\n      tag_25\n      tag_46\n      jump\t// in\n        /* \"contracts/polygon/abstract/proxy/Base.sol\":752:882  function implementationKey() public pure virtual returns (bytes32) {... */\n    tag_9:\n      callvalue\n      dup1\n      iszero\n      tag_49\n      jumpi\n      0x00\n      dup1\n      revert\n    tag_49:\n      pop\n      tag_25\n      tag_51\n      jump\t// in\n        /* \"contracts/polygon/abstract/proxy/Base.sol\":2573:2756  function setInitialImplementation(address implementation) public virtual {... */\n    tag_10:\n      callvalue\n      dup1\n      iszero\n      tag_53\n      jumpi\n      0x00\n      dup1\n      revert\n    tag_53:\n      pop\n      tag_14\n      tag_55\n      calldatasize\n      0x04\n      tag_56\n      jump\t// in\n    tag_55:\n      tag_57\n      jump\t// in\n        /* \"contracts/polygon/external/openzeppelin/proxy/Proxy.sol\":2323:2433  function _fallback() internal virtual {... */\n    tag_15:\n        /* \"contracts/polygon/external/openzeppelin/proxy/Proxy.sol\":2398:2426  _delegate(_implementation()) */\n      tag_61\n        /* \"contracts/polygon/external/openzeppelin/proxy/Proxy.sol\":2408:2425  _implementation() */\n      tag_62\n        /* \"contracts/polygon/external/openzeppelin/proxy/Proxy.sol\":2408:2423  _implementation */\n      tag_63\n        /* \"contracts/polygon/external/openzeppelin/proxy/Proxy.sol\":2408:2425  _implementation() */\n      jump\t// in\n    tag_62:\n        /* \"contracts/polygon/external/openzeppelin/proxy/Proxy.sol\":2398:2407  _delegate */\n      tag_64\n        /* \"contracts/polygon/external/openzeppelin/proxy/Proxy.sol\":2398:2426  _delegate(_implementation()) */\n      jump\t// in\n    tag_61:\n        /* \"contracts/polygon/external/openzeppelin/proxy/Proxy.sol\":2323:2433  function _fallback() internal virtual {... */\n      jump\t// out\n        /* \"contracts/polygon/abstract/proxy/Base.sol\":2265:2410  function initialImplementationHasBeenSet() public view virtual returns (bool) {... */\n    tag_21:\n        /* \"contracts/polygon/abstract/proxy/Base.sol\":2337:2341  bool */\n      0x00\n        /* \"contracts/polygon/abstract/proxy/Base.sol\":2360:2365  _bool */\n      0x05\n        /* \"contracts/polygon/abstract/proxy/Base.sol\":2360:2403  _bool[initialImplementationHasBeenSetKey()] */\n      0x00\n        /* \"contracts/polygon/abstract/proxy/Base.sol\":2366:2402  initialImplementationHasBeenSetKey() */\n      tag_66\n        /* \"contracts/polygon/abstract/proxy/Base.sol\":2366:2400  initialImplementationHasBeenSetKey */\n      tag_26\n        /* \"contracts/polygon/abstract/proxy/Base.sol\":2366:2402  initialImplementationHasBeenSetKey() */\n      jump\t// in\n    tag_66:\n        /* \"contracts/polygon/abstract/proxy/Base.sol\":2360:2403  _bool[initialImplementationHasBeenSetKey()] */\n      dup2\n      mstore\n      0x20\n      dup2\n      add\n      swap2\n      swap1\n      swap2\n      mstore\n      0x40\n      add\n      0x00\n      keccak256\n      sload\n      0xff\n      and\n      swap2\n        /* \"contracts/polygon/abstract/proxy/Base.sol\":2265:2410  function initialImplementationHasBeenSet() public view virtual returns (bool) {... */\n      swap1\n      pop\n      jump\t// out\n        /* \"contracts/polygon/abstract/proxy/Base.sol\":1239:1407  function initialImplementationHasBeenSetKey() public pure virtual returns (bytes32) {... */\n    tag_26:\n        /* \"contracts/polygon/abstract/proxy/Base.sol\":1314:1321  bytes32 */\n      0x00\n        /* \"contracts/polygon/abstract/proxy/Base.sol\":1350:1399  abi.encode(\"INITIAL_IMPLEMENTATION_HAS_BEEN_SET\") */\n      add(0x20, mload(0x40))\n      tag_68\n      swap1\n        /* \"#utility.yul\":1456:1458   */\n      0x20\n        /* \"#utility.yul\":1438:1459   */\n      dup1\n      dup3\n      mstore\n        /* \"#utility.yul\":1495:1497   */\n      0x23\n        /* \"#utility.yul\":1475:1493   */\n      swap1\n      dup3\n      add\n        /* \"#utility.yul\":1468:1498   */\n      mstore\n        /* \"#utility.yul\":1534:1568   */\n      0x494e495449414c5f494d504c454d454e544154494f4e5f4841535f4245454e5f\n        /* \"#utility.yul\":1529:1531   */\n      0x40\n        /* \"#utility.yul\":1514:1532   */\n      dup3\n      add\n        /* \"#utility.yul\":1507:1569   */\n      mstore\n      shl(0xea, 0x14d155)\n        /* \"#utility.yul\":1600:1602   */\n      0x60\n        /* \"#utility.yul\":1585:1603   */\n      dup3\n      add\n        /* \"#utility.yul\":1578:1611   */\n      mstore\n        /* \"#utility.yul\":1643:1646   */\n      0x80\n        /* \"#utility.yul\":1628:1647   */\n      add\n      swap1\n        /* \"#utility.yul\":1254:1653   */\n      jump\n        /* \"contracts/polygon/abstract/proxy/Base.sol\":1350:1399  abi.encode(\"INITIAL_IMPLEMENTATION_HAS_BEEN_SET\") */\n    tag_68:\n      mload(0x40)\n      0x20\n      dup2\n      dup4\n      sub\n      sub\n      dup2\n      mstore\n      swap1\n      0x40\n      mstore\n        /* \"contracts/polygon/abstract/proxy/Base.sol\":1340:1400  keccak256(abi.encode(\"INITIAL_IMPLEMENTATION_HAS_BEEN_SET\")) */\n      dup1\n      mload\n      swap1\n      0x20\n      add\n      keccak256\n        /* \"contracts/polygon/abstract/proxy/Base.sol\":1333:1400  return keccak256(abi.encode(\"INITIAL_IMPLEMENTATION_HAS_BEEN_SET\")) */\n      swap1\n      pop\n        /* \"contracts/polygon/abstract/proxy/Base.sol\":1239:1407  function initialImplementationHasBeenSetKey() public pure virtual returns (bytes32) {... */\n      swap1\n      jump\t// out\n        /* \"contracts/polygon/abstract/proxy/Base.sol\":1483:1588  function implementation() public view virtual returns (address) {... */\n    tag_31:\n        /* \"contracts/polygon/abstract/proxy/Base.sol\":1538:1545  address */\n      0x00\n        /* \"contracts/polygon/abstract/proxy/Base.sol\":1564:1581  _implementation() */\n      tag_71\n        /* \"contracts/polygon/abstract/proxy/Base.sol\":1564:1579  _implementation */\n      tag_63\n        /* \"contracts/polygon/abstract/proxy/Base.sol\":1564:1581  _implementation() */\n      jump\t// in\n    tag_71:\n        /* \"contracts/polygon/abstract/proxy/Base.sol\":1557:1581  return _implementation() */\n      swap1\n      pop\n        /* \"contracts/polygon/abstract/proxy/Base.sol\":1483:1588  function implementation() public view virtual returns (address) {... */\n      swap1\n      jump\t// out\n        /* \"contracts/polygon/abstract/proxy/Base.sol\":986:1133  function implementationTimelineKey() public pure virtual returns (bytes32) {... */\n    tag_36:\n        /* \"contracts/polygon/abstract/proxy/Base.sol\":1052:1059  bytes32 */\n      0x00\n        /* \"contracts/polygon/abstract/proxy/Base.sol\":1088:1125  abi.encode(\"IMPLEMENTATION_TIMELINE\") */\n      add(0x20, mload(0x40))\n      tag_68\n      swap1\n        /* \"#utility.yul\":1860:1862   */\n      0x20\n        /* \"#utility.yul\":1842:1863   */\n      dup1\n      dup3\n      mstore\n        /* \"#utility.yul\":1899:1901   */\n      0x17\n        /* \"#utility.yul\":1879:1897   */\n      swap1\n      dup3\n      add\n        /* \"#utility.yul\":1872:1902   */\n      mstore\n        /* \"#utility.yul\":1938:1963   */\n      0x494d504c454d454e544154494f4e5f54494d454c494e45000000000000000000\n        /* \"#utility.yul\":1933:1935   */\n      0x40\n        /* \"#utility.yul\":1918:1936   */\n      dup3\n      add\n        /* \"#utility.yul\":1911:1964   */\n      mstore\n        /* \"#utility.yul\":1996:1998   */\n      0x60\n        /* \"#utility.yul\":1981:1999   */\n      add\n      swap1\n        /* \"#utility.yul\":1658:2005   */\n      jump\n        /* \"contracts/polygon/abstract/proxy/Base.sol\":1764:1944  function implementationTimeline(uint256 implementationId) public view virtual returns (address) {... */\n    tag_42:\n        /* \"contracts/polygon/abstract/proxy/Base.sol\":1851:1858  address */\n      0x00\n        /* \"contracts/polygon/abstract/proxy/Base.sol\":1877:1890  _addressArray */\n      0x0b\n        /* \"contracts/polygon/abstract/proxy/Base.sol\":1877:1919  _addressArray[implementationTimelineKey()] */\n      0x00\n        /* \"contracts/polygon/abstract/proxy/Base.sol\":1891:1918  implementationTimelineKey() */\n      tag_76\n        /* \"contracts/polygon/abstract/proxy/Base.sol\":1891:1916  implementationTimelineKey */\n      tag_36\n        /* \"contracts/polygon/abstract/proxy/Base.sol\":1891:1918  implementationTimelineKey() */\n      jump\t// in\n    tag_76:\n        /* \"contracts/polygon/abstract/proxy/Base.sol\":1877:1919  _addressArray[implementationTimelineKey()] */\n      dup2\n      mstore\n      0x20\n      add\n      swap1\n      dup2\n      mstore\n      0x20\n      add\n      0x00\n      keccak256\n        /* \"contracts/polygon/abstract/proxy/Base.sol\":1920:1936  implementationId */\n      dup3\n        /* \"contracts/polygon/abstract/proxy/Base.sol\":1877:1937  _addressArray[implementationTimelineKey()][implementationId] */\n      dup2\n      sload\n      dup2\n      lt\n      tag_78\n      jumpi\n      tag_78\n      tag_79\n      jump\t// in\n    tag_78:\n      0x00\n      swap2\n      dup3\n      mstore\n      0x20\n      swap1\n      swap2\n      keccak256\n      add\n      sload\n      sub(shl(0xa0, 0x01), 0x01)\n      and\n      swap3\n        /* \"contracts/polygon/abstract/proxy/Base.sol\":1764:1944  function implementationTimeline(uint256 implementationId) public view virtual returns (address) {... */\n      swap2\n      pop\n      pop\n      jump\t// out\n        /* \"contracts/polygon/abstract/proxy/Base.sol\":2031:2182  function implementationTimelineLength() public view virtual returns (uint256) {... */\n    tag_46:\n        /* \"contracts/polygon/abstract/proxy/Base.sol\":2100:2107  uint256 */\n      0x00\n        /* \"contracts/polygon/abstract/proxy/Base.sol\":2126:2139  _addressArray */\n      0x0b\n        /* \"contracts/polygon/abstract/proxy/Base.sol\":2126:2168  _addressArray[implementationTimelineKey()] */\n      0x00\n        /* \"contracts/polygon/abstract/proxy/Base.sol\":2140:2167  implementationTimelineKey() */\n      tag_82\n        /* \"contracts/polygon/abstract/proxy/Base.sol\":2140:2165  implementationTimelineKey */\n      tag_36\n        /* \"contracts/polygon/abstract/proxy/Base.sol\":2140:2167  implementationTimelineKey() */\n      jump\t// in\n    tag_82:\n        /* \"contracts/polygon/abstract/proxy/Base.sol\":2126:2168  _addressArray[implementationTimelineKey()] */\n      dup2\n      mstore\n      0x20\n      dup2\n      add\n      swap2\n      swap1\n      swap2\n      mstore\n      0x40\n      add\n      0x00\n      keccak256\n        /* \"contracts/polygon/abstract/proxy/Base.sol\":2126:2175  _addressArray[implementationTimelineKey()].length */\n      sload\n      swap2\n        /* \"contracts/polygon/abstract/proxy/Base.sol\":2031:2182  function implementationTimelineLength() public view virtual returns (uint256) {... */\n      swap1\n      pop\n      jump\t// out\n        /* \"contracts/polygon/abstract/proxy/Base.sol\":752:882  function implementationKey() public pure virtual returns (bytes32) {... */\n    tag_51:\n        /* \"contracts/polygon/abstract/proxy/Base.sol\":810:817  bytes32 */\n      0x00\n        /* \"contracts/polygon/abstract/proxy/Base.sol\":846:874  abi.encode(\"IMPLEMENTATION\") */\n      add(0x20, mload(0x40))\n      tag_68\n      swap1\n        /* \"#utility.yul\":2344:2346   */\n      0x20\n        /* \"#utility.yul\":2326:2347   */\n      dup1\n      dup3\n      mstore\n        /* \"#utility.yul\":2383:2385   */\n      0x0e\n        /* \"#utility.yul\":2363:2381   */\n      swap1\n      dup3\n      add\n        /* \"#utility.yul\":2356:2386   */\n      mstore\n      shl(0x91, 0x24a6a82622a6a2a72a20aa24a7a7)\n        /* \"#utility.yul\":2417:2419   */\n      0x40\n        /* \"#utility.yul\":2402:2420   */\n      dup3\n      add\n        /* \"#utility.yul\":2395:2439   */\n      mstore\n        /* \"#utility.yul\":2471:2473   */\n      0x60\n        /* \"#utility.yul\":2456:2474   */\n      add\n      swap1\n        /* \"#utility.yul\":2142:2480   */\n      jump\n        /* \"contracts/polygon/abstract/proxy/Base.sol\":2573:2756  function setInitialImplementation(address implementation) public virtual {... */\n    tag_57:\n        /* \"contracts/polygon/abstract/proxy/Base.sol\":2656:2715  _onlyWhenInitialImplementationHasNotBeenSet(implementation) */\n      tag_87\n        /* \"contracts/polygon/abstract/proxy/Base.sol\":2700:2714  implementation */\n      dup2\n        /* \"contracts/polygon/abstract/proxy/Base.sol\":2656:2699  _onlyWhenInitialImplementationHasNotBeenSet */\n      tag_88\n        /* \"contracts/polygon/abstract/proxy/Base.sol\":2656:2715  _onlyWhenInitialImplementationHasNotBeenSet(implementation) */\n      jump\t// in\n    tag_87:\n        /* \"contracts/polygon/abstract/proxy/Base.sol\":2725:2749  _upgrade(implementation) */\n      tag_89\n        /* \"contracts/polygon/abstract/proxy/Base.sol\":2734:2748  implementation */\n      dup2\n        /* \"contracts/polygon/abstract/proxy/Base.sol\":2725:2733  _upgrade */\n      tag_90\n        /* \"contracts/polygon/abstract/proxy/Base.sol\":2725:2749  _upgrade(implementation) */\n      jump\t// in\n    tag_89:\n        /* \"contracts/polygon/abstract/proxy/Base.sol\":2573:2756  function setInitialImplementation(address implementation) public virtual {... */\n      pop\n      jump\t// out\n        /* \"contracts/polygon/abstract/proxy/Base.sol\":2902:3031  function _implementation() internal view virtual override returns (address) {... */\n    tag_63:\n        /* \"contracts/polygon/abstract/proxy/Base.sol\":2969:2976  address */\n      0x00\n        /* \"contracts/polygon/abstract/proxy/Base.sol\":2995:3003  _address */\n      0x04\n        /* \"contracts/polygon/abstract/proxy/Base.sol\":2995:3024  _address[implementationKey()] */\n      0x00\n        /* \"contracts/polygon/abstract/proxy/Base.sol\":3004:3023  implementationKey() */\n      tag_93\n        /* \"contracts/polygon/abstract/proxy/Base.sol\":3004:3021  implementationKey */\n      tag_51\n        /* \"contracts/polygon/abstract/proxy/Base.sol\":3004:3023  implementationKey() */\n      jump\t// in\n    tag_93:\n        /* \"contracts/polygon/abstract/proxy/Base.sol\":2995:3024  _address[implementationKey()] */\n      dup2\n      mstore\n      0x20\n      dup2\n      add\n      swap2\n      swap1\n      swap2\n      mstore\n      0x40\n      add\n      0x00\n      keccak256\n      sload\n      sub(shl(0xa0, 0x01), 0x01)\n      and\n      swap2\n        /* \"contracts/polygon/abstract/proxy/Base.sol\":2902:3031  function _implementation() internal view virtual override returns (address) {... */\n      swap1\n      pop\n      jump\t// out\n        /* \"contracts/polygon/external/openzeppelin/proxy/Proxy.sol\":949:1844  function _delegate(address implementation) internal virtual {... */\n    tag_64:\n        /* \"contracts/polygon/external/openzeppelin/proxy/Proxy.sol\":1287:1301  calldatasize() */\n      calldatasize\n        /* \"contracts/polygon/external/openzeppelin/proxy/Proxy.sol\":1284:1285  0 */\n      0x00\n        /* \"contracts/polygon/external/openzeppelin/proxy/Proxy.sol\":1281:1282  0 */\n      dup1\n        /* \"contracts/polygon/external/openzeppelin/proxy/Proxy.sol\":1268:1302  calldatacopy(0, 0, calldatasize()) */\n      calldatacopy\n        /* \"contracts/polygon/external/openzeppelin/proxy/Proxy.sol\":1501:1502  0 */\n      0x00\n        /* \"contracts/polygon/external/openzeppelin/proxy/Proxy.sol\":1498:1499  0 */\n      dup1\n        /* \"contracts/polygon/external/openzeppelin/proxy/Proxy.sol\":1482:1496  calldatasize() */\n      calldatasize\n        /* \"contracts/polygon/external/openzeppelin/proxy/Proxy.sol\":1479:1480  0 */\n      0x00\n        /* \"contracts/polygon/external/openzeppelin/proxy/Proxy.sol\":1463:1477  implementation */\n      dup5\n        /* \"contracts/polygon/external/openzeppelin/proxy/Proxy.sol\":1456:1461  gas() */\n      gas\n        /* \"contracts/polygon/external/openzeppelin/proxy/Proxy.sol\":1443:1503  delegatecall(gas(), implementation, 0, calldatasize(), 0, 0) */\n      delegatecall\n        /* \"contracts/polygon/external/openzeppelin/proxy/Proxy.sol\":1577:1593  returndatasize() */\n      returndatasize\n        /* \"contracts/polygon/external/openzeppelin/proxy/Proxy.sol\":1574:1575  0 */\n      0x00\n        /* \"contracts/polygon/external/openzeppelin/proxy/Proxy.sol\":1571:1572  0 */\n      dup1\n        /* \"contracts/polygon/external/openzeppelin/proxy/Proxy.sol\":1556:1594  returndatacopy(0, 0, returndatasize()) */\n      returndatacopy\n        /* \"contracts/polygon/external/openzeppelin/proxy/Proxy.sol\":1615:1621  result */\n      dup1\n        /* \"contracts/polygon/external/openzeppelin/proxy/Proxy.sol\":1682:1748  case 0 {... */\n      dup1\n      iszero\n      tag_96\n      jumpi\n        /* \"contracts/polygon/external/openzeppelin/proxy/Proxy.sol\":1797:1813  returndatasize() */\n      returndatasize\n        /* \"contracts/polygon/external/openzeppelin/proxy/Proxy.sol\":1794:1795  0 */\n      0x00\n        /* \"contracts/polygon/external/openzeppelin/proxy/Proxy.sol\":1787:1814  return(0, returndatasize()) */\n      return\n        /* \"contracts/polygon/external/openzeppelin/proxy/Proxy.sol\":1682:1748  case 0 {... */\n    tag_96:\n        /* \"contracts/polygon/external/openzeppelin/proxy/Proxy.sol\":1717:1733  returndatasize() */\n      returndatasize\n        /* \"contracts/polygon/external/openzeppelin/proxy/Proxy.sol\":1714:1715  0 */\n      0x00\n        /* \"contracts/polygon/external/openzeppelin/proxy/Proxy.sol\":1707:1734  revert(0, returndatasize()) */\n      revert\n        /* \"contracts/polygon/abstract/proxy/Base.sol\":3851:4099  function _onlyWhenInitialImplementationHasNotBeenSet(address implementation) private {... */\n    tag_88:\n        /* \"contracts/polygon/abstract/proxy/Base.sol\":3955:3988  initialImplementationHasBeenSet() */\n      tag_98\n        /* \"contracts/polygon/abstract/proxy/Base.sol\":3955:3986  initialImplementationHasBeenSet */\n      tag_21\n        /* \"contracts/polygon/abstract/proxy/Base.sol\":3955:3988  initialImplementationHasBeenSet() */\n      jump\t// in\n    tag_98:\n        /* \"contracts/polygon/abstract/proxy/Base.sol\":3954:3988  !initialImplementationHasBeenSet() */\n      iszero\n        /* \"contracts/polygon/abstract/proxy/Base.sol\":3946:4032  require(!initialImplementationHasBeenSet(), \"Base: initialImplementationHasBeenSet()\") */\n      tag_99\n      jumpi\n      mload(0x40)\n      shl(0xe5, 0x461bcd)\n      dup2\n      mstore\n        /* \"#utility.yul\":2687:2689   */\n      0x20\n        /* \"contracts/polygon/abstract/proxy/Base.sol\":3946:4032  require(!initialImplementationHasBeenSet(), \"Base: initialImplementationHasBeenSet()\") */\n      0x04\n      dup3\n      add\n        /* \"#utility.yul\":2669:2690   */\n      mstore\n        /* \"#utility.yul\":2726:2728   */\n      0x27\n        /* \"#utility.yul\":2706:2724   */\n      0x24\n      dup3\n      add\n        /* \"#utility.yul\":2699:2729   */\n      mstore\n        /* \"#utility.yul\":2765:2799   */\n      0x426173653a20696e697469616c496d706c656d656e746174696f6e4861734265\n        /* \"#utility.yul\":2745:2763   */\n      0x44\n      dup3\n      add\n        /* \"#utility.yul\":2738:2800   */\n      mstore\n      shl(0xc8, 0x656e5365742829)\n        /* \"#utility.yul\":2816:2834   */\n      0x64\n      dup3\n      add\n        /* \"#utility.yul\":2809:2846   */\n      mstore\n        /* \"#utility.yul\":2863:2882   */\n      0x84\n      add\n        /* \"contracts/polygon/abstract/proxy/Base.sol\":3946:4032  require(!initialImplementationHasBeenSet(), \"Base: initialImplementationHasBeenSet()\") */\n      mload(0x40)\n      dup1\n      swap2\n      sub\n      swap1\n      revert\n    tag_99:\n        /* \"contracts/polygon/abstract/proxy/Base.sol\":4088:4092  true */\n      0x01\n        /* \"contracts/polygon/abstract/proxy/Base.sol\":4042:4047  _bool */\n      0x05\n        /* \"contracts/polygon/abstract/proxy/Base.sol\":4042:4085  _bool[initialImplementationHasBeenSetKey()] */\n      0x00\n        /* \"contracts/polygon/abstract/proxy/Base.sol\":4048:4084  initialImplementationHasBeenSetKey() */\n      tag_102\n        /* \"contracts/polygon/abstract/proxy/Base.sol\":4048:4082  initialImplementationHasBeenSetKey */\n      tag_26\n        /* \"contracts/polygon/abstract/proxy/Base.sol\":4048:4084  initialImplementationHasBeenSetKey() */\n      jump\t// in\n    tag_102:\n        /* \"contracts/polygon/abstract/proxy/Base.sol\":4042:4085  _bool[initialImplementationHasBeenSetKey()] */\n      dup2\n      mstore\n      0x20\n      dup2\n      add\n      swap2\n      swap1\n      swap2\n      mstore\n      0x40\n      add\n      0x00\n      keccak256\n        /* \"contracts/polygon/abstract/proxy/Base.sol\":4042:4092  _bool[initialImplementationHasBeenSetKey()] = true */\n      dup1\n      sload\n      not(0xff)\n      and\n      swap2\n      iszero\n      iszero\n      swap2\n      swap1\n      swap2\n      or\n      swap1\n      sstore\n      pop\n        /* \"contracts/polygon/abstract/proxy/Base.sol\":3851:4099  function _onlyWhenInitialImplementationHasNotBeenSet(address implementation) private {... */\n      jump\t// out\n        /* \"contracts/polygon/abstract/proxy/Base.sol\":3183:3381  function _upgrade(address implementation) internal virtual {... */\n    tag_90:\n        /* \"contracts/polygon/abstract/proxy/Base.sol\":3284:3298  implementation */\n      dup1\n        /* \"contracts/polygon/abstract/proxy/Base.sol\":3252:3260  _address */\n      0x04\n        /* \"contracts/polygon/abstract/proxy/Base.sol\":3252:3281  _address[implementationKey()] */\n      0x00\n        /* \"contracts/polygon/abstract/proxy/Base.sol\":3261:3280  implementationKey() */\n      tag_104\n        /* \"contracts/polygon/abstract/proxy/Base.sol\":3261:3278  implementationKey */\n      tag_51\n        /* \"contracts/polygon/abstract/proxy/Base.sol\":3261:3280  implementationKey() */\n      jump\t// in\n    tag_104:\n        /* \"contracts/polygon/abstract/proxy/Base.sol\":3252:3281  _address[implementationKey()] */\n      dup2\n      mstore\n      0x20\n      add\n      swap1\n      dup2\n      mstore\n      0x20\n      add\n      0x00\n      keccak256\n      0x00\n        /* \"contracts/polygon/abstract/proxy/Base.sol\":3252:3298  _address[implementationKey()] = implementation */\n      0x0100\n      exp\n      dup2\n      sload\n      dup2\n      sub(shl(0xa0, 0x01), 0x01)\n      mul\n      not\n      and\n      swap1\n      dup4\n      sub(shl(0xa0, 0x01), 0x01)\n      and\n      mul\n      or\n      swap1\n      sstore\n      pop\n        /* \"contracts/polygon/abstract/proxy/Base.sol\":3308:3335  _logUpgrade(implementation) */\n      tag_105\n        /* \"contracts/polygon/abstract/proxy/Base.sol\":3320:3334  implementation */\n      dup2\n        /* \"contracts/polygon/abstract/proxy/Base.sol\":3308:3319  _logUpgrade */\n      tag_106\n        /* \"contracts/polygon/abstract/proxy/Base.sol\":3308:3335  _logUpgrade(implementation) */\n      jump\t// in\n    tag_105:\n        /* \"contracts/polygon/abstract/proxy/Base.sol\":3350:3374  Upgraded(implementation) */\n      mload(0x40)\n      sub(shl(0xa0, 0x01), 0x01)\n      dup3\n      and\n      swap1\n      0xbc7cd75a20ee27fd9adebab32041f755214dbc6bffa90cc0225b39da2e5c2d3b\n      swap1\n      0x00\n      swap1\n      log2\n        /* \"contracts/polygon/abstract/proxy/Base.sol\":3183:3381  function _upgrade(address implementation) internal virtual {... */\n      pop\n      jump\t// out\n        /* \"contracts/polygon/abstract/proxy/Base.sol\":3545:3687  function _logUpgrade(address implementation) internal virtual {... */\n    tag_106:\n        /* \"contracts/polygon/abstract/proxy/Base.sol\":3617:3630  _addressArray */\n      0x0b\n        /* \"contracts/polygon/abstract/proxy/Base.sol\":3617:3659  _addressArray[implementationTimelineKey()] */\n      0x00\n        /* \"contracts/polygon/abstract/proxy/Base.sol\":3631:3658  implementationTimelineKey() */\n      tag_108\n        /* \"contracts/polygon/abstract/proxy/Base.sol\":3631:3656  implementationTimelineKey */\n      tag_36\n        /* \"contracts/polygon/abstract/proxy/Base.sol\":3631:3658  implementationTimelineKey() */\n      jump\t// in\n    tag_108:\n        /* \"contracts/polygon/abstract/proxy/Base.sol\":3617:3659  _addressArray[implementationTimelineKey()] */\n      dup2\n      mstore\n      0x20\n      dup1\n      dup3\n      add\n      swap3\n      swap1\n      swap3\n      mstore\n      0x40\n      add\n      0x00\n      swap1\n      dup2\n      keccak256\n        /* \"contracts/polygon/abstract/proxy/Base.sol\":3617:3680  _addressArray[implementationTimelineKey()].push(implementation) */\n      dup1\n      sload\n      0x01\n      dup2\n      add\n      dup3\n      sstore\n      swap1\n      dup3\n      mstore\n      swap2\n      swap1\n      keccak256\n      add\n      dup1\n      sload\n      not(sub(shl(0xa0, 0x01), 0x01))\n      and\n      sub(shl(0xa0, 0x01), 0x01)\n      swap3\n      swap1\n      swap3\n      and\n      swap2\n      swap1\n      swap2\n      or\n      swap1\n      sstore\n        /* \"contracts/polygon/abstract/proxy/Base.sol\":3545:3687  function _logUpgrade(address implementation) internal virtual {... */\n      jump\t// out\n        /* \"#utility.yul\":596:776   */\n    tag_41:\n        /* \"#utility.yul\":655:661   */\n      0x00\n        /* \"#utility.yul\":708:710   */\n      0x20\n        /* \"#utility.yul\":696:705   */\n      dup3\n        /* \"#utility.yul\":687:694   */\n      dup5\n        /* \"#utility.yul\":683:706   */\n      sub\n        /* \"#utility.yul\":679:711   */\n      slt\n        /* \"#utility.yul\":676:728   */\n      iszero\n      tag_115\n      jumpi\n        /* \"#utility.yul\":724:725   */\n      0x00\n        /* \"#utility.yul\":721:722   */\n      dup1\n        /* \"#utility.yul\":714:726   */\n      revert\n        /* \"#utility.yul\":676:728   */\n    tag_115:\n      pop\n        /* \"#utility.yul\":747:770   */\n      calldataload\n      swap2\n        /* \"#utility.yul\":596:776   */\n      swap1\n      pop\n      jump\t// out\n        /* \"#utility.yul\":963:1249   */\n    tag_56:\n        /* \"#utility.yul\":1022:1028   */\n      0x00\n        /* \"#utility.yul\":1075:1077   */\n      0x20\n        /* \"#utility.yul\":1063:1072   */\n      dup3\n        /* \"#utility.yul\":1054:1061   */\n      dup5\n        /* \"#utility.yul\":1050:1073   */\n      sub\n        /* \"#utility.yul\":1046:1078   */\n      slt\n        /* \"#utility.yul\":1043:1095   */\n      iszero\n      tag_118\n      jumpi\n        /* \"#utility.yul\":1091:1092   */\n      0x00\n        /* \"#utility.yul\":1088:1089   */\n      dup1\n        /* \"#utility.yul\":1081:1093   */\n      revert\n        /* \"#utility.yul\":1043:1095   */\n    tag_118:\n        /* \"#utility.yul\":1117:1140   */\n      dup2\n      calldataload\n      sub(shl(0xa0, 0x01), 0x01)\n        /* \"#utility.yul\":1169:1200   */\n      dup2\n      and\n        /* \"#utility.yul\":1159:1201   */\n      dup2\n      eq\n        /* \"#utility.yul\":1149:1219   */\n      tag_119\n      jumpi\n        /* \"#utility.yul\":1215:1216   */\n      0x00\n        /* \"#utility.yul\":1212:1213   */\n      dup1\n        /* \"#utility.yul\":1205:1217   */\n      revert\n        /* \"#utility.yul\":1149:1219   */\n    tag_119:\n        /* \"#utility.yul\":1238:1243   */\n      swap4\n        /* \"#utility.yul\":963:1249   */\n      swap3\n      pop\n      pop\n      pop\n      jump\t// out\n        /* \"#utility.yul\":2010:2137   */\n    tag_79:\n        /* \"#utility.yul\":2071:2081   */\n      0x4e487b71\n        /* \"#utility.yul\":2066:2069   */\n      0xe0\n        /* \"#utility.yul\":2062:2082   */\n      shl\n        /* \"#utility.yul\":2059:2060   */\n      0x00\n        /* \"#utility.yul\":2052:2083   */\n      mstore\n        /* \"#utility.yul\":2102:2106   */\n      0x32\n        /* \"#utility.yul\":2099:2100   */\n      0x04\n        /* \"#utility.yul\":2092:2107   */\n      mstore\n        /* \"#utility.yul\":2126:2130   */\n      0x24\n        /* \"#utility.yul\":2123:2124   */\n      0x00\n        /* \"#utility.yul\":2116:2131   */\n      revert\n\n    auxdata: 0xa264697066735822122020c0e22c0d4e563f887dd7270f15beaece1d6ebc6a0eecfeee8ffcd8b54559e064736f6c63430008130033\n}\n",
				"bytecode": {
					"linkReferences": {},
					"object": "608060405234801561001057600080fd5b50610585806100206000396000f3fe60806040526004361061007f5760003560e01c8063780e93681161004e578063780e936814610125578063985fcf9c14610145578063f43588961461015a578063fdb165401461016f5761008e565b80630717f3e6146100965780632145b31a146100c05780635c60da1b146100e3578063667d4359146101105761008e565b3661008e5761008c61018f565b005b61008c61018f565b3480156100a257600080fd5b506100ab6101a1565b60405190151581526020015b60405180910390f35b3480156100cc57600080fd5b506100d56101c8565b6040519081526020016100b7565b3480156100ef57600080fd5b506100f8610232565b6040516001600160a01b0390911681526020016100b7565b34801561011c57600080fd5b506100d5610241565b34801561013157600080fd5b506100f86101403660046104f0565b610284565b34801561015157600080fd5b506100d56102cc565b34801561016657600080fd5b506100d56102f0565b34801561017b57600080fd5b5061008c61018a366004610509565b610324565b61019f61019a610339565b610366565b565b6000600560006101af6101c8565b815260208101919091526040016000205460ff16919050565b60006040516020016102179060208082526023908201527f494e495449414c5f494d504c454d454e544154494f4e5f4841535f4245454e5f60408201526214d15560ea1b606082015260800190565b60405160208183030381529060405280519060200120905090565b600061023c610339565b905090565b60006040516020016102179060208082526017908201527f494d504c454d454e544154494f4e5f54494d454c494e45000000000000000000604082015260600190565b6000600b6000610292610241565b815260200190815260200160002082815481106102b1576102b1610539565b6000918252602090912001546001600160a01b031692915050565b6000600b60006102da610241565b8152602081019190915260400160002054919050565b6000604051602001610217906020808252600e908201526d24a6a82622a6a2a72a20aa24a7a760911b604082015260600190565b61032d8161038a565b61033681610423565b50565b6000600460006103476102f0565b81526020810191909152604001600020546001600160a01b0316919050565b3660008037600080366000845af43d6000803e808015610385573d6000f35b3d6000fd5b6103926101a1565b156103f35760405162461bcd60e51b815260206004820152602760248201527f426173653a20696e697469616c496d706c656d656e746174696f6e4861734265604482015266656e536574282960c81b606482015260840160405180910390fd5b6001600560006104016101c8565b81526020810191909152604001600020805460ff191691151591909117905550565b80600460006104306102f0565b815260200190815260200160002060006101000a8154816001600160a01b0302191690836001600160a01b0316021790555061046b816104a2565b6040516001600160a01b038216907fbc7cd75a20ee27fd9adebab32041f755214dbc6bffa90cc0225b39da2e5c2d3b90600090a250565b600b60006104ae610241565b8152602080820192909252604001600090812080546001810182559082529190200180546001600160a01b0319166001600160a01b0392909216919091179055565b60006020828403121561050257600080fd5b5035919050565b60006020828403121561051b57600080fd5b81356001600160a01b038116811461053257600080fd5b9392505050565b634e487b7160e01b600052603260045260246000fdfea264697066735822122020c0e22c0d4e563f887dd7270f15beaece1d6ebc6a0eecfeee8ffcd8b54559e064736f6c63430008130033",
					"opcodes": "PUSH1 0x80 PUSH1 0x40 MSTORE CALLVALUE DUP1 ISZERO PUSH2 0x10 JUMPI PUSH1 0x0 DUP1 REVERT JUMPDEST POP PUSH2 0x585 DUP1 PUSH2 0x20 PUSH1 0x0 CODECOPY PUSH1 0x0 RETURN INVALID PUSH1 0x80 PUSH1 0x40 MSTORE PUSH1 0x4 CALLDATASIZE LT PUSH2 0x7F JUMPI PUSH1 0x0 CALLDATALOAD PUSH1 0xE0 SHR DUP1 PUSH4 0x780E9368 GT PUSH2 0x4E JUMPI DUP1 PUSH4 0x780E9368 EQ PUSH2 0x125 JUMPI DUP1 PUSH4 0x985FCF9C EQ PUSH2 0x145 JUMPI DUP1 PUSH4 0xF4358896 EQ PUSH2 0x15A JUMPI DUP1 PUSH4 0xFDB16540 EQ PUSH2 0x16F JUMPI PUSH2 0x8E JUMP JUMPDEST DUP1 PUSH4 0x717F3E6 EQ PUSH2 0x96 JUMPI DUP1 PUSH4 0x2145B31A EQ PUSH2 0xC0 JUMPI DUP1 PUSH4 0x5C60DA1B EQ PUSH2 0xE3 JUMPI DUP1 PUSH4 0x667D4359 EQ PUSH2 0x110 JUMPI PUSH2 0x8E JUMP JUMPDEST CALLDATASIZE PUSH2 0x8E JUMPI PUSH2 0x8C PUSH2 0x18F JUMP JUMPDEST STOP JUMPDEST PUSH2 0x8C PUSH2 0x18F JUMP JUMPDEST CALLVALUE DUP1 ISZERO PUSH2 0xA2 JUMPI PUSH1 0x0 DUP1 REVERT JUMPDEST POP PUSH2 0xAB PUSH2 0x1A1 JUMP JUMPDEST PUSH1 0x40 MLOAD SWAP1 ISZERO ISZERO DUP2 MSTORE PUSH1 0x20 ADD JUMPDEST PUSH1 0x40 MLOAD DUP1 SWAP2 SUB SWAP1 RETURN JUMPDEST CALLVALUE DUP1 ISZERO PUSH2 0xCC JUMPI PUSH1 0x0 DUP1 REVERT JUMPDEST POP PUSH2 0xD5 PUSH2 0x1C8 JUMP JUMPDEST PUSH1 0x40 MLOAD SWAP1 DUP2 MSTORE PUSH1 0x20 ADD PUSH2 0xB7 JUMP JUMPDEST CALLVALUE DUP1 ISZERO PUSH2 0xEF JUMPI PUSH1 0x0 DUP1 REVERT JUMPDEST POP PUSH2 0xF8 PUSH2 0x232 JUMP JUMPDEST PUSH1 0x40 MLOAD PUSH1 0x1 PUSH1 0x1 PUSH1 0xA0 SHL SUB SWAP1 SWAP2 AND DUP2 MSTORE PUSH1 0x20 ADD PUSH2 0xB7 JUMP JUMPDEST CALLVALUE DUP1 ISZERO PUSH2 0x11C JUMPI PUSH1 0x0 DUP1 REVERT JUMPDEST POP PUSH2 0xD5 PUSH2 0x241 JUMP JUMPDEST CALLVALUE DUP1 ISZERO PUSH2 0x131 JUMPI PUSH1 0x0 DUP1 REVERT JUMPDEST POP PUSH2 0xF8 PUSH2 0x140 CALLDATASIZE PUSH1 0x4 PUSH2 0x4F0 JUMP JUMPDEST PUSH2 0x284 JUMP JUMPDEST CALLVALUE DUP1 ISZERO PUSH2 0x151 JUMPI PUSH1 0x0 DUP1 REVERT JUMPDEST POP PUSH2 0xD5 PUSH2 0x2CC JUMP JUMPDEST CALLVALUE DUP1 ISZERO PUSH2 0x166 JUMPI PUSH1 0x0 DUP1 REVERT JUMPDEST POP PUSH2 0xD5 PUSH2 0x2F0 JUMP JUMPDEST CALLVALUE DUP1 ISZERO PUSH2 0x17B JUMPI PUSH1 0x0 DUP1 REVERT JUMPDEST POP PUSH2 0x8C PUSH2 0x18A CALLDATASIZE PUSH1 0x4 PUSH2 0x509 JUMP JUMPDEST PUSH2 0x324 JUMP JUMPDEST PUSH2 0x19F PUSH2 0x19A PUSH2 0x339 JUMP JUMPDEST PUSH2 0x366 JUMP JUMPDEST JUMP JUMPDEST PUSH1 0x0 PUSH1 0x5 PUSH1 0x0 PUSH2 0x1AF PUSH2 0x1C8 JUMP JUMPDEST DUP2 MSTORE PUSH1 0x20 DUP2 ADD SWAP2 SWAP1 SWAP2 MSTORE PUSH1 0x40 ADD PUSH1 0x0 KECCAK256 SLOAD PUSH1 0xFF AND SWAP2 SWAP1 POP JUMP JUMPDEST PUSH1 0x0 PUSH1 0x40 MLOAD PUSH1 0x20 ADD PUSH2 0x217 SWAP1 PUSH1 0x20 DUP1 DUP3 MSTORE PUSH1 0x23 SWAP1 DUP3 ADD MSTORE PUSH32 0x494E495449414C5F494D504C454D454E544154494F4E5F4841535F4245454E5F PUSH1 0x40 DUP3 ADD MSTORE PUSH3 0x14D155 PUSH1 0xEA SHL PUSH1 0x60 DUP3 ADD MSTORE PUSH1 0x80 ADD SWAP1 JUMP JUMPDEST PUSH1 0x40 MLOAD PUSH1 0x20 DUP2 DUP4 SUB SUB DUP2 MSTORE SWAP1 PUSH1 0x40 MSTORE DUP1 MLOAD SWAP1 PUSH1 0x20 ADD KECCAK256 SWAP1 POP SWAP1 JUMP JUMPDEST PUSH1 0x0 PUSH2 0x23C PUSH2 0x339 JUMP JUMPDEST SWAP1 POP SWAP1 JUMP JUMPDEST PUSH1 0x0 PUSH1 0x40 MLOAD PUSH1 0x20 ADD PUSH2 0x217 SWAP1 PUSH1 0x20 DUP1 DUP3 MSTORE PUSH1 0x17 SWAP1 DUP3 ADD MSTORE PUSH32 0x494D504C454D454E544154494F4E5F54494D454C494E45000000000000000000 PUSH1 0x40 DUP3 ADD MSTORE PUSH1 0x60 ADD SWAP1 JUMP JUMPDEST PUSH1 0x0 PUSH1 0xB PUSH1 0x0 PUSH2 0x292 PUSH2 0x241 JUMP JUMPDEST DUP2 MSTORE PUSH1 0x20 ADD SWAP1 DUP2 MSTORE PUSH1 0x20 ADD PUSH1 0x0 KECCAK256 DUP3 DUP2 SLOAD DUP2 LT PUSH2 0x2B1 JUMPI PUSH2 0x2B1 PUSH2 0x539 JUMP JUMPDEST PUSH1 0x0 SWAP2 DUP3 MSTORE PUSH1 0x20 SWAP1 SWAP2 KECCAK256 ADD SLOAD PUSH1 0x1 PUSH1 0x1 PUSH1 0xA0 SHL SUB AND SWAP3 SWAP2 POP POP JUMP JUMPDEST PUSH1 0x0 PUSH1 0xB PUSH1 0x0 PUSH2 0x2DA PUSH2 0x241 JUMP JUMPDEST DUP2 MSTORE PUSH1 0x20 DUP2 ADD SWAP2 SWAP1 SWAP2 MSTORE PUSH1 0x40 ADD PUSH1 0x0 KECCAK256 SLOAD SWAP2 SWAP1 POP JUMP JUMPDEST PUSH1 0x0 PUSH1 0x40 MLOAD PUSH1 0x20 ADD PUSH2 0x217 SWAP1 PUSH1 0x20 DUP1 DUP3 MSTORE PUSH1 0xE SWAP1 DUP3 ADD MSTORE PUSH14 0x24A6A82622A6A2A72A20AA24A7A7 PUSH1 0x91 SHL PUSH1 0x40 DUP3 ADD MSTORE PUSH1 0x60 ADD SWAP1 JUMP JUMPDEST PUSH2 0x32D DUP2 PUSH2 0x38A JUMP JUMPDEST PUSH2 0x336 DUP2 PUSH2 0x423 JUMP JUMPDEST POP JUMP JUMPDEST PUSH1 0x0 PUSH1 0x4 PUSH1 0x0 PUSH2 0x347 PUSH2 0x2F0 JUMP JUMPDEST DUP2 MSTORE PUSH1 0x20 DUP2 ADD SWAP2 SWAP1 SWAP2 MSTORE PUSH1 0x40 ADD PUSH1 0x0 KECCAK256 SLOAD PUSH1 0x1 PUSH1 0x1 PUSH1 0xA0 SHL SUB AND SWAP2 SWAP1 POP JUMP JUMPDEST CALLDATASIZE PUSH1 0x0 DUP1 CALLDATACOPY PUSH1 0x0 DUP1 CALLDATASIZE PUSH1 0x0 DUP5 GAS DELEGATECALL RETURNDATASIZE PUSH1 0x0 DUP1 RETURNDATACOPY DUP1 DUP1 ISZERO PUSH2 0x385 JUMPI RETURNDATASIZE PUSH1 0x0 RETURN JUMPDEST RETURNDATASIZE PUSH1 0x0 REVERT JUMPDEST PUSH2 0x392 PUSH2 0x1A1 JUMP JUMPDEST ISZERO PUSH2 0x3F3 JUMPI PUSH1 0x40 MLOAD PUSH3 0x461BCD PUSH1 0xE5 SHL DUP2 MSTORE PUSH1 0x20 PUSH1 0x4 DUP3 ADD MSTORE PUSH1 0x27 PUSH1 0x24 DUP3 ADD MSTORE PUSH32 0x426173653A20696E697469616C496D706C656D656E746174696F6E4861734265 PUSH1 0x44 DUP3 ADD MSTORE PUSH7 0x656E5365742829 PUSH1 0xC8 SHL PUSH1 0x64 DUP3 ADD MSTORE PUSH1 0x84 ADD PUSH1 0x40 MLOAD DUP1 SWAP2 SUB SWAP1 REVERT JUMPDEST PUSH1 0x1 PUSH1 0x5 PUSH1 0x0 PUSH2 0x401 PUSH2 0x1C8 JUMP JUMPDEST DUP2 MSTORE PUSH1 0x20 DUP2 ADD SWAP2 SWAP1 SWAP2 MSTORE PUSH1 0x40 ADD PUSH1 0x0 KECCAK256 DUP1 SLOAD PUSH1 0xFF NOT AND SWAP2 ISZERO ISZERO SWAP2 SWAP1 SWAP2 OR SWAP1 SSTORE POP JUMP JUMPDEST DUP1 PUSH1 0x4 PUSH1 0x0 PUSH2 0x430 PUSH2 0x2F0 JUMP JUMPDEST DUP2 MSTORE PUSH1 0x20 ADD SWAP1 DUP2 MSTORE PUSH1 0x20 ADD PUSH1 0x0 KECCAK256 PUSH1 0x0 PUSH2 0x100 EXP DUP2 SLOAD DUP2 PUSH1 0x1 PUSH1 0x1 PUSH1 0xA0 SHL SUB MUL NOT AND SWAP1 DUP4 PUSH1 0x1 PUSH1 0x1 PUSH1 0xA0 SHL SUB AND MUL OR SWAP1 SSTORE POP PUSH2 0x46B DUP2 PUSH2 0x4A2 JUMP JUMPDEST PUSH1 0x40 MLOAD PUSH1 0x1 PUSH1 0x1 PUSH1 0xA0 SHL SUB DUP3 AND SWAP1 PUSH32 0xBC7CD75A20EE27FD9ADEBAB32041F755214DBC6BFFA90CC0225B39DA2E5C2D3B SWAP1 PUSH1 0x0 SWAP1 LOG2 POP JUMP JUMPDEST PUSH1 0xB PUSH1 0x0 PUSH2 0x4AE PUSH2 0x241 JUMP JUMPDEST DUP2 MSTORE PUSH1 0x20 DUP1 DUP3 ADD SWAP3 SWAP1 SWAP3 MSTORE PUSH1 0x40 ADD PUSH1 0x0 SWAP1 DUP2 KECCAK256 DUP1 SLOAD PUSH1 0x1 DUP2 ADD DUP3 SSTORE SWAP1 DUP3 MSTORE SWAP2 SWAP1 KECCAK256 ADD DUP1 SLOAD PUSH1 0x1 PUSH1 0x1 PUSH1 0xA0 SHL SUB NOT AND PUSH1 0x1 PUSH1 0x1 PUSH1 0xA0 SHL SUB SWAP3 SWAP1 SWAP3 AND SWAP2 SWAP1 SWAP2 OR SWAP1 SSTORE JUMP JUMPDEST PUSH1 0x0 PUSH1 0x20 DUP3 DUP5 SUB SLT ISZERO PUSH2 0x502 JUMPI PUSH1 0x0 DUP1 REVERT JUMPDEST POP CALLDATALOAD SWAP2 SWAP1 POP JUMP JUMPDEST PUSH1 0x0 PUSH1 0x20 DUP3 DUP5 SUB SLT ISZERO PUSH2 0x51B JUMPI PUSH1 0x0 DUP1 REVERT JUMPDEST DUP2 CALLDATALOAD PUSH1 0x1 PUSH1 0x1 PUSH1 0xA0 SHL SUB DUP2 AND DUP2 EQ PUSH2 0x532 JUMPI PUSH1 0x0 DUP1 REVERT JUMPDEST SWAP4 SWAP3 POP POP POP JUMP JUMPDEST PUSH4 0x4E487B71 PUSH1 0xE0 SHL PUSH1 0x0 MSTORE PUSH1 0x32 PUSH1 0x4 MSTORE PUSH1 0x24 PUSH1 0x0 REVERT INVALID LOG2 PUSH5 0x6970667358 0x22 SLT KECCAK256 KECCAK256 0xC0 0xE2 0x2C 0xD 0x4E JUMP EXTCODEHASH DUP9 PUSH30 0xD7270F15BEAECE1D6EBC6A0EECFEEE8FFCD8B54559E064736F6C63430008 SGT STOP CALLER "
				},
				"gasEstimates": {
					"creation": {
						"codeDepositCost": "282600",
						"executionCost": "324",
						"totalCost": "282924"
					},
					"external": {
						"": "infinite",
						"implementation()": "2745",
						"implementationKey()": "451",
						"implementationTimeline(uint256)": "4918",
						"implementationTimelineKey()": "468",
						"implementationTimelineLength()": "2642",
						"initialImplementationHasBeenSet()": "2652",
						"initialImplementationHasBeenSetKey()": "454",
						"setInitialImplementation(address)": "infinite"
					},
					"internal": {
						"_implementation()": "infinite",
						"_logUpgrade(address)": "infinite",
						"_onlyWhenInitialImplementationHasNotBeenSet(address)": "infinite",
						"_upgrade(address)": "infinite"
					}
				},
				"methodIdentifiers": {
					"implementation()": "5c60da1b",
					"implementationKey()": "f4358896",
					"implementationTimeline(uint256)": "780e9368",
					"implementationTimelineKey()": "667d4359",
					"implementationTimelineLength()": "985fcf9c",
					"initialImplementationHasBeenSet()": "0717f3e6",
					"initialImplementationHasBeenSetKey()": "2145b31a",
					"setInitialImplementation(address)": "fdb16540"
				}
			},
			"storageLayout": {
				"storage": [
					{
						"astId": 385,
						"contract": "contracts/polygon/abstract/proxy/Base.sol:Base",
						"label": "_bytes",
						"offset": 0,
						"slot": "0",
						"type": "t_mapping(t_bytes32,t_bytes_storage)"
					},
					{
						"astId": 390,
						"contract": "contracts/polygon/abstract/proxy/Base.sol:Base",
						"label": "_string",
						"offset": 0,
						"slot": "1",
						"type": "t_mapping(t_bytes32,t_string_storage)"
					},
					{
						"astId": 395,
						"contract": "contracts/polygon/abstract/proxy/Base.sol:Base",
						"label": "_uint256",
						"offset": 0,
						"slot": "2",
						"type": "t_mapping(t_bytes32,t_uint256)"
					},
					{
						"astId": 400,
						"contract": "contracts/polygon/abstract/proxy/Base.sol:Base",
						"label": "_int256",
						"offset": 0,
						"slot": "3",
						"type": "t_mapping(t_bytes32,t_int256)"
					},
					{
						"astId": 405,
						"contract": "contracts/polygon/abstract/proxy/Base.sol:Base",
						"label": "_address",
						"offset": 0,
						"slot": "4",
						"type": "t_mapping(t_bytes32,t_address)"
					},
					{
						"astId": 410,
						"contract": "contracts/polygon/abstract/proxy/Base.sol:Base",
						"label": "_bool",
						"offset": 0,
						"slot": "5",
						"type": "t_mapping(t_bytes32,t_bool)"
					},
					{
						"astId": 415,
						"contract": "contracts/polygon/abstract/proxy/Base.sol:Base",
						"label": "_bytes32",
						"offset": 0,
						"slot": "6",
						"type": "t_mapping(t_bytes32,t_bytes32)"
					},
					{
						"astId": 421,
						"contract": "contracts/polygon/abstract/proxy/Base.sol:Base",
						"label": "_stringArray",
						"offset": 0,
						"slot": "7",
						"type": "t_mapping(t_bytes32,t_array(t_string_storage)dyn_storage)"
					},
					{
						"astId": 427,
						"contract": "contracts/polygon/abstract/proxy/Base.sol:Base",
						"label": "_bytesArray",
						"offset": 0,
						"slot": "8",
						"type": "t_mapping(t_bytes32,t_array(t_bytes_storage)dyn_storage)"
					},
					{
						"astId": 433,
						"contract": "contracts/polygon/abstract/proxy/Base.sol:Base",
						"label": "_uint256Array",
						"offset": 0,
						"slot": "9",
						"type": "t_mapping(t_bytes32,t_array(t_uint256)dyn_storage)"
					},
					{
						"astId": 439,
						"contract": "contracts/polygon/abstract/proxy/Base.sol:Base",
						"label": "_int256Array",
						"offset": 0,
						"slot": "10",
						"type": "t_mapping(t_bytes32,t_array(t_int256)dyn_storage)"
					},
					{
						"astId": 445,
						"contract": "contracts/polygon/abstract/proxy/Base.sol:Base",
						"label": "_addressArray",
						"offset": 0,
						"slot": "11",
						"type": "t_mapping(t_bytes32,t_array(t_address)dyn_storage)"
					},
					{
						"astId": 451,
						"contract": "contracts/polygon/abstract/proxy/Base.sol:Base",
						"label": "_boolArray",
						"offset": 0,
						"slot": "12",
						"type": "t_mapping(t_bytes32,t_array(t_bool)dyn_storage)"
					},
					{
						"astId": 457,
						"contract": "contracts/polygon/abstract/proxy/Base.sol:Base",
						"label": "_bytes32Array",
						"offset": 0,
						"slot": "13",
						"type": "t_mapping(t_bytes32,t_array(t_bytes32)dyn_storage)"
					},
					{
						"astId": 463,
						"contract": "contracts/polygon/abstract/proxy/Base.sol:Base",
						"label": "_bitmap",
						"offset": 0,
						"slot": "14",
						"type": "t_mapping(t_bytes32,t_struct(BitMap)3285_storage)"
					},
					{
						"astId": 469,
						"contract": "contracts/polygon/abstract/proxy/Base.sol:Base",
						"label": "_trace224",
						"offset": 0,
						"slot": "15",
						"type": "t_mapping(t_bytes32,t_struct(Trace224)3425_storage)"
					},
					{
						"astId": 475,
						"contract": "contracts/polygon/abstract/proxy/Base.sol:Base",
						"label": "_bytes32Deque",
						"offset": 0,
						"slot": "16",
						"type": "t_mapping(t_bytes32,t_struct(Bytes32Deque)4480_storage)"
					},
					{
						"astId": 481,
						"contract": "contracts/polygon/abstract/proxy/Base.sol:Base",
						"label": "_bytes32ToBytes32Map",
						"offset": 0,
						"slot": "17",
						"type": "t_mapping(t_bytes32,t_struct(Bytes32ToBytes32Map)4818_storage)"
					},
					{
						"astId": 487,
						"contract": "contracts/polygon/abstract/proxy/Base.sol:Base",
						"label": "_uintToUintMap",
						"offset": 0,
						"slot": "18",
						"type": "t_mapping(t_bytes32,t_struct(UintToUintMap)5029_storage)"
					},
					{
						"astId": 493,
						"contract": "contracts/polygon/abstract/proxy/Base.sol:Base",
						"label": "_uintToAddressMap",
						"offset": 0,
						"slot": "19",
						"type": "t_mapping(t_bytes32,t_struct(UintToAddressMap)5239_storage)"
					},
					{
						"astId": 499,
						"contract": "contracts/polygon/abstract/proxy/Base.sol:Base",
						"label": "_addressToUintMap",
						"offset": 0,
						"slot": "20",
						"type": "t_mapping(t_bytes32,t_struct(AddressToUintMap)5473_storage)"
					},
					{
						"astId": 505,
						"contract": "contracts/polygon/abstract/proxy/Base.sol:Base",
						"label": "_bytes32ToUintMap",
						"offset": 0,
						"slot": "21",
						"type": "t_mapping(t_bytes32,t_struct(Bytes32ToUintMap)5719_storage)"
					},
					{
						"astId": 511,
						"contract": "contracts/polygon/abstract/proxy/Base.sol:Base",
						"label": "_addressSet",
						"offset": 0,
						"slot": "22",
						"type": "t_mapping(t_bytes32,t_struct(AddressSet)6234_storage)"
					},
					{
						"astId": 517,
						"contract": "contracts/polygon/abstract/proxy/Base.sol:Base",
						"label": "_bytes32Set",
						"offset": 0,
						"slot": "23",
						"type": "t_mapping(t_bytes32,t_struct(Bytes32Set)6113_storage)"
					},
					{
						"astId": 523,
						"contract": "contracts/polygon/abstract/proxy/Base.sol:Base",
						"label": "_uintSet",
						"offset": 0,
						"slot": "24",
						"type": "t_mapping(t_bytes32,t_struct(UintSet)6391_storage)"
					}
				],
				"types": {
					"t_address": {
						"encoding": "inplace",
						"label": "address",
						"numberOfBytes": "20"
					},
					"t_array(t_address)dyn_storage": {
						"base": "t_address",
						"encoding": "dynamic_array",
						"label": "address[]",
						"numberOfBytes": "32"
					},
					"t_array(t_bool)dyn_storage": {
						"base": "t_bool",
						"encoding": "dynamic_array",
						"label": "bool[]",
						"numberOfBytes": "32"
					},
					"t_array(t_bytes32)dyn_storage": {
						"base": "t_bytes32",
						"encoding": "dynamic_array",
						"label": "bytes32[]",
						"numberOfBytes": "32"
					},
					"t_array(t_bytes_storage)dyn_storage": {
						"base": "t_bytes_storage",
						"encoding": "dynamic_array",
						"label": "bytes[]",
						"numberOfBytes": "32"
					},
					"t_array(t_int256)dyn_storage": {
						"base": "t_int256",
						"encoding": "dynamic_array",
						"label": "int256[]",
						"numberOfBytes": "32"
					},
					"t_array(t_string_storage)dyn_storage": {
						"base": "t_string_storage",
						"encoding": "dynamic_array",
						"label": "string[]",
						"numberOfBytes": "32"
					},
					"t_array(t_struct(Checkpoint224)3430_storage)dyn_storage": {
						"base": "t_struct(Checkpoint224)3430_storage",
						"encoding": "dynamic_array",
						"label": "struct Checkpoints.Checkpoint224[]",
						"numberOfBytes": "32"
					},
					"t_array(t_uint256)dyn_storage": {
						"base": "t_uint256",
						"encoding": "dynamic_array",
						"label": "uint256[]",
						"numberOfBytes": "32"
					},
					"t_bool": {
						"encoding": "inplace",
						"label": "bool",
						"numberOfBytes": "1"
					},
					"t_bytes32": {
						"encoding": "inplace",
						"label": "bytes32",
						"numberOfBytes": "32"
					},
					"t_bytes_storage": {
						"encoding": "bytes",
						"label": "bytes",
						"numberOfBytes": "32"
					},
					"t_int128": {
						"encoding": "inplace",
						"label": "int128",
						"numberOfBytes": "16"
					},
					"t_int256": {
						"encoding": "inplace",
						"label": "int256",
						"numberOfBytes": "32"
					},
					"t_mapping(t_bytes32,t_address)": {
						"encoding": "mapping",
						"key": "t_bytes32",
						"label": "mapping(bytes32 => address)",
						"numberOfBytes": "32",
						"value": "t_address"
					},
					"t_mapping(t_bytes32,t_array(t_address)dyn_storage)": {
						"encoding": "mapping",
						"key": "t_bytes32",
						"label": "mapping(bytes32 => address[])",
						"numberOfBytes": "32",
						"value": "t_array(t_address)dyn_storage"
					},
					"t_mapping(t_bytes32,t_array(t_bool)dyn_storage)": {
						"encoding": "mapping",
						"key": "t_bytes32",
						"label": "mapping(bytes32 => bool[])",
						"numberOfBytes": "32",
						"value": "t_array(t_bool)dyn_storage"
					},
					"t_mapping(t_bytes32,t_array(t_bytes32)dyn_storage)": {
						"encoding": "mapping",
						"key": "t_bytes32",
						"label": "mapping(bytes32 => bytes32[])",
						"numberOfBytes": "32",
						"value": "t_array(t_bytes32)dyn_storage"
					},
					"t_mapping(t_bytes32,t_array(t_bytes_storage)dyn_storage)": {
						"encoding": "mapping",
						"key": "t_bytes32",
						"label": "mapping(bytes32 => bytes[])",
						"numberOfBytes": "32",
						"value": "t_array(t_bytes_storage)dyn_storage"
					},
					"t_mapping(t_bytes32,t_array(t_int256)dyn_storage)": {
						"encoding": "mapping",
						"key": "t_bytes32",
						"label": "mapping(bytes32 => int256[])",
						"numberOfBytes": "32",
						"value": "t_array(t_int256)dyn_storage"
					},
					"t_mapping(t_bytes32,t_array(t_string_storage)dyn_storage)": {
						"encoding": "mapping",
						"key": "t_bytes32",
						"label": "mapping(bytes32 => string[])",
						"numberOfBytes": "32",
						"value": "t_array(t_string_storage)dyn_storage"
					},
					"t_mapping(t_bytes32,t_array(t_uint256)dyn_storage)": {
						"encoding": "mapping",
						"key": "t_bytes32",
						"label": "mapping(bytes32 => uint256[])",
						"numberOfBytes": "32",
						"value": "t_array(t_uint256)dyn_storage"
					},
					"t_mapping(t_bytes32,t_bool)": {
						"encoding": "mapping",
						"key": "t_bytes32",
						"label": "mapping(bytes32 => bool)",
						"numberOfBytes": "32",
						"value": "t_bool"
					},
					"t_mapping(t_bytes32,t_bytes32)": {
						"encoding": "mapping",
						"key": "t_bytes32",
						"label": "mapping(bytes32 => bytes32)",
						"numberOfBytes": "32",
						"value": "t_bytes32"
					},
					"t_mapping(t_bytes32,t_bytes_storage)": {
						"encoding": "mapping",
						"key": "t_bytes32",
						"label": "mapping(bytes32 => bytes)",
						"numberOfBytes": "32",
						"value": "t_bytes_storage"
					},
					"t_mapping(t_bytes32,t_int256)": {
						"encoding": "mapping",
						"key": "t_bytes32",
						"label": "mapping(bytes32 => int256)",
						"numberOfBytes": "32",
						"value": "t_int256"
					},
					"t_mapping(t_bytes32,t_string_storage)": {
						"encoding": "mapping",
						"key": "t_bytes32",
						"label": "mapping(bytes32 => string)",
						"numberOfBytes": "32",
						"value": "t_string_storage"
					},
					"t_mapping(t_bytes32,t_struct(AddressSet)6234_storage)": {
						"encoding": "mapping",
						"key": "t_bytes32",
						"label": "mapping(bytes32 => struct EnumerableSet.AddressSet)",
						"numberOfBytes": "32",
						"value": "t_struct(AddressSet)6234_storage"
					},
					"t_mapping(t_bytes32,t_struct(AddressToUintMap)5473_storage)": {
						"encoding": "mapping",
						"key": "t_bytes32",
						"label": "mapping(bytes32 => struct EnumerableMap.AddressToUintMap)",
						"numberOfBytes": "32",
						"value": "t_struct(AddressToUintMap)5473_storage"
					},
					"t_mapping(t_bytes32,t_struct(BitMap)3285_storage)": {
						"encoding": "mapping",
						"key": "t_bytes32",
						"label": "mapping(bytes32 => struct BitMaps.BitMap)",
						"numberOfBytes": "32",
						"value": "t_struct(BitMap)3285_storage"
					},
					"t_mapping(t_bytes32,t_struct(Bytes32Deque)4480_storage)": {
						"encoding": "mapping",
						"key": "t_bytes32",
						"label": "mapping(bytes32 => struct DoubleEndedQueue.Bytes32Deque)",
						"numberOfBytes": "32",
						"value": "t_struct(Bytes32Deque)4480_storage"
					},
					"t_mapping(t_bytes32,t_struct(Bytes32Set)6113_storage)": {
						"encoding": "mapping",
						"key": "t_bytes32",
						"label": "mapping(bytes32 => struct EnumerableSet.Bytes32Set)",
						"numberOfBytes": "32",
						"value": "t_struct(Bytes32Set)6113_storage"
					},
					"t_mapping(t_bytes32,t_struct(Bytes32ToBytes32Map)4818_storage)": {
						"encoding": "mapping",
						"key": "t_bytes32",
						"label": "mapping(bytes32 => struct EnumerableMap.Bytes32ToBytes32Map)",
						"numberOfBytes": "32",
						"value": "t_struct(Bytes32ToBytes32Map)4818_storage"
					},
					"t_mapping(t_bytes32,t_struct(Bytes32ToUintMap)5719_storage)": {
						"encoding": "mapping",
						"key": "t_bytes32",
						"label": "mapping(bytes32 => struct EnumerableMap.Bytes32ToUintMap)",
						"numberOfBytes": "32",
						"value": "t_struct(Bytes32ToUintMap)5719_storage"
					},
					"t_mapping(t_bytes32,t_struct(Trace224)3425_storage)": {
						"encoding": "mapping",
						"key": "t_bytes32",
						"label": "mapping(bytes32 => struct Checkpoints.Trace224)",
						"numberOfBytes": "32",
						"value": "t_struct(Trace224)3425_storage"
					},
					"t_mapping(t_bytes32,t_struct(UintSet)6391_storage)": {
						"encoding": "mapping",
						"key": "t_bytes32",
						"label": "mapping(bytes32 => struct EnumerableSet.UintSet)",
						"numberOfBytes": "32",
						"value": "t_struct(UintSet)6391_storage"
					},
					"t_mapping(t_bytes32,t_struct(UintToAddressMap)5239_storage)": {
						"encoding": "mapping",
						"key": "t_bytes32",
						"label": "mapping(bytes32 => struct EnumerableMap.UintToAddressMap)",
						"numberOfBytes": "32",
						"value": "t_struct(UintToAddressMap)5239_storage"
					},
					"t_mapping(t_bytes32,t_struct(UintToUintMap)5029_storage)": {
						"encoding": "mapping",
						"key": "t_bytes32",
						"label": "mapping(bytes32 => struct EnumerableMap.UintToUintMap)",
						"numberOfBytes": "32",
						"value": "t_struct(UintToUintMap)5029_storage"
					},
					"t_mapping(t_bytes32,t_uint256)": {
						"encoding": "mapping",
						"key": "t_bytes32",
						"label": "mapping(bytes32 => uint256)",
						"numberOfBytes": "32",
						"value": "t_uint256"
					},
					"t_mapping(t_int128,t_bytes32)": {
						"encoding": "mapping",
						"key": "t_int128",
						"label": "mapping(int128 => bytes32)",
						"numberOfBytes": "32",
						"value": "t_bytes32"
					},
					"t_mapping(t_uint256,t_uint256)": {
						"encoding": "mapping",
						"key": "t_uint256",
						"label": "mapping(uint256 => uint256)",
						"numberOfBytes": "32",
						"value": "t_uint256"
					},
					"t_string_storage": {
						"encoding": "bytes",
						"label": "string",
						"numberOfBytes": "32"
					},
					"t_struct(AddressSet)6234_storage": {
						"encoding": "inplace",
						"label": "struct EnumerableSet.AddressSet",
						"members": [
							{
								"astId": 6233,
								"contract": "contracts/polygon/abstract/proxy/Base.sol:Base",
								"label": "_inner",
								"offset": 0,
								"slot": "0",
								"type": "t_struct(Set)5919_storage"
							}
						],
						"numberOfBytes": "64"
					},
					"t_struct(AddressToUintMap)5473_storage": {
						"encoding": "inplace",
						"label": "struct EnumerableMap.AddressToUintMap",
						"members": [
							{
								"astId": 5472,
								"contract": "contracts/polygon/abstract/proxy/Base.sol:Base",
								"label": "_inner",
								"offset": 0,
								"slot": "0",
								"type": "t_struct(Bytes32ToBytes32Map)4818_storage"
							}
						],
						"numberOfBytes": "96"
					},
					"t_struct(BitMap)3285_storage": {
						"encoding": "inplace",
						"label": "struct BitMaps.BitMap",
						"members": [
							{
								"astId": 3284,
								"contract": "contracts/polygon/abstract/proxy/Base.sol:Base",
								"label": "_data",
								"offset": 0,
								"slot": "0",
								"type": "t_mapping(t_uint256,t_uint256)"
							}
						],
						"numberOfBytes": "32"
					},
					"t_struct(Bytes32Deque)4480_storage": {
						"encoding": "inplace",
						"label": "struct DoubleEndedQueue.Bytes32Deque",
						"members": [
							{
								"astId": 4473,
								"contract": "contracts/polygon/abstract/proxy/Base.sol:Base",
								"label": "_begin",
								"offset": 0,
								"slot": "0",
								"type": "t_int128"
							},
							{
								"astId": 4475,
								"contract": "contracts/polygon/abstract/proxy/Base.sol:Base",
								"label": "_end",
								"offset": 16,
								"slot": "0",
								"type": "t_int128"
							},
							{
								"astId": 4479,
								"contract": "contracts/polygon/abstract/proxy/Base.sol:Base",
								"label": "_data",
								"offset": 0,
								"slot": "1",
								"type": "t_mapping(t_int128,t_bytes32)"
							}
						],
						"numberOfBytes": "64"
					},
					"t_struct(Bytes32Set)6113_storage": {
						"encoding": "inplace",
						"label": "struct EnumerableSet.Bytes32Set",
						"members": [
							{
								"astId": 6112,
								"contract": "contracts/polygon/abstract/proxy/Base.sol:Base",
								"label": "_inner",
								"offset": 0,
								"slot": "0",
								"type": "t_struct(Set)5919_storage"
							}
						],
						"numberOfBytes": "64"
					},
					"t_struct(Bytes32ToBytes32Map)4818_storage": {
						"encoding": "inplace",
						"label": "struct EnumerableMap.Bytes32ToBytes32Map",
						"members": [
							{
								"astId": 4813,
								"contract": "contracts/polygon/abstract/proxy/Base.sol:Base",
								"label": "_keys",
								"offset": 0,
								"slot": "0",
								"type": "t_struct(Bytes32Set)6113_storage"
							},
							{
								"astId": 4817,
								"contract": "contracts/polygon/abstract/proxy/Base.sol:Base",
								"label": "_values",
								"offset": 0,
								"slot": "2",
								"type": "t_mapping(t_bytes32,t_bytes32)"
							}
						],
						"numberOfBytes": "96"
					},
					"t_struct(Bytes32ToUintMap)5719_storage": {
						"encoding": "inplace",
						"label": "struct EnumerableMap.Bytes32ToUintMap",
						"members": [
							{
								"astId": 5718,
								"contract": "contracts/polygon/abstract/proxy/Base.sol:Base",
								"label": "_inner",
								"offset": 0,
								"slot": "0",
								"type": "t_struct(Bytes32ToBytes32Map)4818_storage"
							}
						],
						"numberOfBytes": "96"
					},
					"t_struct(Checkpoint224)3430_storage": {
						"encoding": "inplace",
						"label": "struct Checkpoints.Checkpoint224",
						"members": [
							{
								"astId": 3427,
								"contract": "contracts/polygon/abstract/proxy/Base.sol:Base",
								"label": "_key",
								"offset": 0,
								"slot": "0",
								"type": "t_uint32"
							},
							{
								"astId": 3429,
								"contract": "contracts/polygon/abstract/proxy/Base.sol:Base",
								"label": "_value",
								"offset": 4,
								"slot": "0",
								"type": "t_uint224"
							}
						],
						"numberOfBytes": "32"
					},
					"t_struct(Set)5919_storage": {
						"encoding": "inplace",
						"label": "struct EnumerableSet.Set",
						"members": [
							{
								"astId": 5914,
								"contract": "contracts/polygon/abstract/proxy/Base.sol:Base",
								"label": "_values",
								"offset": 0,
								"slot": "0",
								"type": "t_array(t_bytes32)dyn_storage"
							},
							{
								"astId": 5918,
								"contract": "contracts/polygon/abstract/proxy/Base.sol:Base",
								"label": "_indexes",
								"offset": 0,
								"slot": "1",
								"type": "t_mapping(t_bytes32,t_uint256)"
							}
						],
						"numberOfBytes": "64"
					},
					"t_struct(Trace224)3425_storage": {
						"encoding": "inplace",
						"label": "struct Checkpoints.Trace224",
						"members": [
							{
								"astId": 3424,
								"contract": "contracts/polygon/abstract/proxy/Base.sol:Base",
								"label": "_checkpoints",
								"offset": 0,
								"slot": "0",
								"type": "t_array(t_struct(Checkpoint224)3430_storage)dyn_storage"
							}
						],
						"numberOfBytes": "32"
					},
					"t_struct(UintSet)6391_storage": {
						"encoding": "inplace",
						"label": "struct EnumerableSet.UintSet",
						"members": [
							{
								"astId": 6390,
								"contract": "contracts/polygon/abstract/proxy/Base.sol:Base",
								"label": "_inner",
								"offset": 0,
								"slot": "0",
								"type": "t_struct(Set)5919_storage"
							}
						],
						"numberOfBytes": "64"
					},
					"t_struct(UintToAddressMap)5239_storage": {
						"encoding": "inplace",
						"label": "struct EnumerableMap.UintToAddressMap",
						"members": [
							{
								"astId": 5238,
								"contract": "contracts/polygon/abstract/proxy/Base.sol:Base",
								"label": "_inner",
								"offset": 0,
								"slot": "0",
								"type": "t_struct(Bytes32ToBytes32Map)4818_storage"
							}
						],
						"numberOfBytes": "96"
					},
					"t_struct(UintToUintMap)5029_storage": {
						"encoding": "inplace",
						"label": "struct EnumerableMap.UintToUintMap",
						"members": [
							{
								"astId": 5028,
								"contract": "contracts/polygon/abstract/proxy/Base.sol:Base",
								"label": "_inner",
								"offset": 0,
								"slot": "0",
								"type": "t_struct(Bytes32ToBytes32Map)4818_storage"
							}
						],
						"numberOfBytes": "96"
					},
					"t_uint224": {
						"encoding": "inplace",
						"label": "uint224",
						"numberOfBytes": "28"
					},
					"t_uint256": {
						"encoding": "inplace",
						"label": "uint256",
						"numberOfBytes": "32"
					},
					"t_uint32": {
						"encoding": "inplace",
						"label": "uint32",
						"numberOfBytes": "4"
					}
				}
			},
			"userdoc": {
				"kind": "user",
				"methods": {},
				"notice": "NOTE: https://docs.openzeppelin.com/upgrades-plugins/1.x/proxies implementationKey => address implementationTimelineKey => addressArray initialImplementationHasBeenSetKey => address",
				"version": 1
			}
		}
	}
}