{
	"smart_contracts/terminal/Terminal.sol": {
		"Terminal": {
			"abi": [
				{
					"inputs": [],
					"stateMutability": "nonpayable",
					"type": "constructor"
				},
				{
					"anonymous": false,
					"inputs": [
						{
							"indexed": true,
							"internalType": "address",
							"name": "contract_",
							"type": "address"
						},
						{
							"indexed": false,
							"internalType": "string",
							"name": "signature",
							"type": "string"
						},
						{
							"indexed": false,
							"internalType": "bytes",
							"name": "args",
							"type": "bytes"
						}
					],
					"name": "ConnectionEstablished",
					"type": "event"
				},
				{
					"anonymous": false,
					"inputs": [
						{
							"indexed": false,
							"internalType": "uint256",
							"name": "ref",
							"type": "uint256"
						},
						{
							"indexed": true,
							"internalType": "address",
							"name": "caller",
							"type": "address"
						},
						{
							"indexed": false,
							"internalType": "uint256",
							"name": "timestamp",
							"type": "uint256"
						}
					],
					"name": "MultiSigProposalCancelled",
					"type": "event"
				},
				{
					"anonymous": false,
					"inputs": [
						{
							"indexed": false,
							"internalType": "uint256",
							"name": "ref",
							"type": "uint256"
						},
						{
							"indexed": true,
							"internalType": "address",
							"name": "lastSigner",
							"type": "address"
						},
						{
							"indexed": false,
							"internalType": "uint256",
							"name": "timestamp",
							"type": "uint256"
						},
						{
							"indexed": false,
							"internalType": "uint256",
							"name": "numberOfSignatures",
							"type": "uint256"
						}
					],
					"name": "MultiSigProposalHasBeenPassed",
					"type": "event"
				},
				{
					"anonymous": false,
					"inputs": [
						{
							"indexed": false,
							"internalType": "uint256",
							"name": "ref",
							"type": "uint256"
						},
						{
							"indexed": true,
							"internalType": "address",
							"name": "signer_",
							"type": "address"
						},
						{
							"indexed": false,
							"internalType": "uint256",
							"name": "timestamp",
							"type": "uint256"
						}
					],
					"name": "MultiSigProposalSignatureRevoked",
					"type": "event"
				},
				{
					"anonymous": false,
					"inputs": [
						{
							"indexed": false,
							"internalType": "uint256",
							"name": "ref",
							"type": "uint256"
						},
						{
							"indexed": true,
							"internalType": "address",
							"name": "signer_",
							"type": "address"
						},
						{
							"indexed": false,
							"internalType": "uint256",
							"name": "timestamp",
							"type": "uint256"
						}
					],
					"name": "MultiSigProposalSigned",
					"type": "event"
				},
				{
					"anonymous": false,
					"inputs": [
						{
							"indexed": true,
							"internalType": "address",
							"name": "obj",
							"type": "address"
						},
						{
							"indexed": false,
							"internalType": "bool",
							"name": "isWhitelisted",
							"type": "bool"
						}
					],
					"name": "ObjWhitelistEdit",
					"type": "event"
				},
				{
					"anonymous": false,
					"inputs": [
						{
							"indexed": true,
							"internalType": "bytes32",
							"name": "role",
							"type": "bytes32"
						},
						{
							"indexed": true,
							"internalType": "bytes32",
							"name": "previousAdminRole",
							"type": "bytes32"
						},
						{
							"indexed": true,
							"internalType": "bytes32",
							"name": "newAdminRole",
							"type": "bytes32"
						}
					],
					"name": "RoleAdminChanged",
					"type": "event"
				},
				{
					"anonymous": false,
					"inputs": [
						{
							"indexed": true,
							"internalType": "bytes32",
							"name": "role",
							"type": "bytes32"
						},
						{
							"indexed": true,
							"internalType": "address",
							"name": "account",
							"type": "address"
						},
						{
							"indexed": true,
							"internalType": "address",
							"name": "sender",
							"type": "address"
						}
					],
					"name": "RoleGranted",
					"type": "event"
				},
				{
					"anonymous": false,
					"inputs": [
						{
							"indexed": true,
							"internalType": "bytes32",
							"name": "role",
							"type": "bytes32"
						},
						{
							"indexed": true,
							"internalType": "address",
							"name": "account",
							"type": "address"
						},
						{
							"indexed": true,
							"internalType": "address",
							"name": "sender",
							"type": "address"
						}
					],
					"name": "RoleRevoked",
					"type": "event"
				},
				{
					"inputs": [],
					"name": "DEFAULT_ADMIN_ROLE",
					"outputs": [
						{
							"internalType": "bytes32",
							"name": "",
							"type": "bytes32"
						}
					],
					"stateMutability": "view",
					"type": "function"
				},
				{
					"inputs": [],
					"name": "ROLE_ADMIN",
					"outputs": [
						{
							"internalType": "bytes32",
							"name": "",
							"type": "bytes32"
						}
					],
					"stateMutability": "view",
					"type": "function"
				},
				{
					"inputs": [],
					"name": "ROLE_BOARD",
					"outputs": [
						{
							"internalType": "bytes32",
							"name": "",
							"type": "bytes32"
						}
					],
					"stateMutability": "view",
					"type": "function"
				},
				{
					"inputs": [],
					"name": "ROLE_MEMBER",
					"outputs": [
						{
							"internalType": "bytes32",
							"name": "",
							"type": "bytes32"
						}
					],
					"stateMutability": "view",
					"type": "function"
				},
				{
					"inputs": [],
					"name": "ROLE_SYNDICATE",
					"outputs": [
						{
							"internalType": "bytes32",
							"name": "",
							"type": "bytes32"
						}
					],
					"stateMutability": "view",
					"type": "function"
				},
				{
					"inputs": [
						{
							"internalType": "bytes32",
							"name": "role",
							"type": "bytes32"
						}
					],
					"name": "getRoleAdmin",
					"outputs": [
						{
							"internalType": "bytes32",
							"name": "",
							"type": "bytes32"
						}
					],
					"stateMutability": "view",
					"type": "function"
				},
				{
					"inputs": [
						{
							"internalType": "bytes32",
							"name": "role",
							"type": "bytes32"
						},
						{
							"internalType": "address",
							"name": "account",
							"type": "address"
						}
					],
					"name": "grantRole",
					"outputs": [],
					"stateMutability": "nonpayable",
					"type": "function"
				},
				{
					"inputs": [
						{
							"internalType": "bytes32",
							"name": "role",
							"type": "bytes32"
						},
						{
							"internalType": "address",
							"name": "account",
							"type": "address"
						}
					],
					"name": "hasRole",
					"outputs": [
						{
							"internalType": "bool",
							"name": "",
							"type": "bool"
						}
					],
					"stateMutability": "view",
					"type": "function"
				},
				{
					"inputs": [
						{
							"internalType": "uint256",
							"name": "ref",
							"type": "uint256"
						}
					],
					"name": "multiSigProposalCancel",
					"outputs": [],
					"stateMutability": "nonpayable",
					"type": "function"
				},
				{
					"inputs": [
						{
							"internalType": "uint256",
							"name": "ref",
							"type": "uint256"
						}
					],
					"name": "multiSigProposalEndTimestamp",
					"outputs": [
						{
							"internalType": "uint256",
							"name": "",
							"type": "uint256"
						}
					],
					"stateMutability": "view",
					"type": "function"
				},
				{
					"inputs": [
						{
							"internalType": "uint256",
							"name": "ref",
							"type": "uint256"
						}
					],
					"name": "multiSigProposalExecute",
					"outputs": [
						{
							"internalType": "bool",
							"name": "",
							"type": "bool"
						}
					],
					"stateMutability": "nonpayable",
					"type": "function"
				},
				{
					"inputs": [
						{
							"internalType": "uint256",
							"name": "ref",
							"type": "uint256"
						}
					],
					"name": "multiSigProposalHasBeenCancelled",
					"outputs": [
						{
							"internalType": "bool",
							"name": "",
							"type": "bool"
						}
					],
					"stateMutability": "view",
					"type": "function"
				},
				{
					"inputs": [
						{
							"internalType": "uint256",
							"name": "ref",
							"type": "uint256"
						}
					],
					"name": "multiSigProposalHasBeenExecuted",
					"outputs": [
						{
							"internalType": "bool",
							"name": "",
							"type": "bool"
						}
					],
					"stateMutability": "view",
					"type": "function"
				},
				{
					"inputs": [
						{
							"internalType": "uint256",
							"name": "ref",
							"type": "uint256"
						}
					],
					"name": "multiSigProposalHasBeenPassed",
					"outputs": [
						{
							"internalType": "bool",
							"name": "",
							"type": "bool"
						}
					],
					"stateMutability": "view",
					"type": "function"
				},
				{
					"inputs": [
						{
							"internalType": "uint256",
							"name": "ref",
							"type": "uint256"
						}
					],
					"name": "multiSigProposalSign",
					"outputs": [],
					"stateMutability": "nonpayable",
					"type": "function"
				},
				{
					"inputs": [
						{
							"internalType": "uint256",
							"name": "ref",
							"type": "uint256"
						}
					],
					"name": "multiSigProposalStartTimestamp",
					"outputs": [
						{
							"internalType": "uint256",
							"name": "",
							"type": "uint256"
						}
					],
					"stateMutability": "view",
					"type": "function"
				},
				{
					"inputs": [
						{
							"internalType": "uint256",
							"name": "ref",
							"type": "uint256"
						}
					],
					"name": "multiSigProposalUnsign",
					"outputs": [],
					"stateMutability": "nonpayable",
					"type": "function"
				},
				{
					"inputs": [
						{
							"internalType": "address[]",
							"name": "signers_",
							"type": "address[]"
						},
						{
							"internalType": "uint256",
							"name": "timeout",
							"type": "uint256"
						},
						{
							"internalType": "uint256",
							"name": "threshold_",
							"type": "uint256"
						},
						{
							"internalType": "address",
							"name": "obj_",
							"type": "address"
						},
						{
							"internalType": "string",
							"name": "signature_",
							"type": "string"
						},
						{
							"internalType": "bytes",
							"name": "args_",
							"type": "bytes"
						}
					],
					"name": "newMultiSigProposal",
					"outputs": [],
					"stateMutability": "nonpayable",
					"type": "function"
				},
				{
					"inputs": [
						{
							"internalType": "bytes32",
							"name": "role",
							"type": "bytes32"
						},
						{
							"internalType": "address",
							"name": "account",
							"type": "address"
						}
					],
					"name": "renounceRole",
					"outputs": [],
					"stateMutability": "nonpayable",
					"type": "function"
				},
				{
					"inputs": [
						{
							"internalType": "bytes32",
							"name": "role",
							"type": "bytes32"
						},
						{
							"internalType": "address",
							"name": "account",
							"type": "address"
						}
					],
					"name": "revokeRole",
					"outputs": [],
					"stateMutability": "nonpayable",
					"type": "function"
				},
				{
					"inputs": [
						{
							"internalType": "address",
							"name": "contract_",
							"type": "address"
						},
						{
							"internalType": "bool",
							"name": "newWhitelistState",
							"type": "bool"
						}
					],
					"name": "setObjWhitelist",
					"outputs": [],
					"stateMutability": "nonpayable",
					"type": "function"
				},
				{
					"inputs": [
						{
							"internalType": "bytes4",
							"name": "interfaceId",
							"type": "bytes4"
						}
					],
					"name": "supportsInterface",
					"outputs": [
						{
							"internalType": "bool",
							"name": "",
							"type": "bool"
						}
					],
					"stateMutability": "view",
					"type": "function"
				}
			],
			"devdoc": {
				"events": {
					"RoleAdminChanged(bytes32,bytes32,bytes32)": {
						"details": "Emitted when `newAdminRole` is set as ``role``'s admin role, replacing `previousAdminRole` `DEFAULT_ADMIN_ROLE` is the starting admin for all roles, despite {RoleAdminChanged} not being emitted signaling this. _Available since v3.1._"
					},
					"RoleGranted(bytes32,address,address)": {
						"details": "Emitted when `account` is granted `role`. `sender` is the account that originated the contract call, an admin role bearer except when using {AccessControl-_setupRole}."
					},
					"RoleRevoked(bytes32,address,address)": {
						"details": "Emitted when `account` is revoked `role`. `sender` is the account that originated the contract call:   - if using `revokeRole`, it is the admin role bearer   - if using `renounceRole`, it is the role bearer (i.e. `account`)"
					}
				},
				"kind": "dev",
				"methods": {
					"getRoleAdmin(bytes32)": {
						"details": "Returns the admin role that controls `role`. See {grantRole} and {revokeRole}. To change a role's admin, use {_setRoleAdmin}."
					},
					"grantRole(bytes32,address)": {
						"details": "Grants `role` to `account`. If `account` had not been already granted `role`, emits a {RoleGranted} event. Requirements: - the caller must have ``role``'s admin role. May emit a {RoleGranted} event."
					},
					"hasRole(bytes32,address)": {
						"details": "Returns `true` if `account` has been granted `role`."
					},
					"renounceRole(bytes32,address)": {
						"details": "Revokes `role` from the calling account. Roles are often managed via {grantRole} and {revokeRole}: this function's purpose is to provide a mechanism for accounts to lose their privileges if they are compromised (such as when a trusted device is misplaced). If the calling account had been revoked `role`, emits a {RoleRevoked} event. Requirements: - the caller must be `account`. May emit a {RoleRevoked} event."
					},
					"revokeRole(bytes32,address)": {
						"details": "Revokes `role` from `account`. If `account` had been granted `role`, emits a {RoleRevoked} event. Requirements: - the caller must have ``role``'s admin role. May emit a {RoleRevoked} event."
					},
					"supportsInterface(bytes4)": {
						"details": "See {IERC165-supportsInterface}."
					}
				},
				"version": 1
			},
			"evm": {
				"assembly": "    /* \"smart_contracts/terminal/Terminal.sol\":1073:9364  contract Terminal is ITerminal, AccessControl {... */\n  mstore(0x40, 0x80)\n    /* \"smart_contracts/terminal/Terminal.sol\":5307:5384  constructor() {... */\n  callvalue\n  dup1\n  iszero\n  tag_1\n  jumpi\n  0x00\n  dup1\n  revert\ntag_1:\n  pop\n    /* \"smart_contracts/terminal/Terminal.sol\":5331:5368  _grantRole(ROLE_ADMIN, address(this)) */\n  tag_4\n    /* \"smart_contracts/terminal/Terminal.sol\":1207:1230  keccak256(\"ROLE_ADMIN\") */\n  0x2172861495e7b85edac73e3cd5fbb42dd675baadf627720e687bcfdaca025096\n    /* \"smart_contracts/terminal/Terminal.sol\":5362:5366  this */\n  address\n    /* \"smart_contracts/terminal/Terminal.sol\":5331:5341  _grantRole */\n  tag_5\n    /* \"smart_contracts/terminal/Terminal.sol\":5331:5368  _grantRole(ROLE_ADMIN, address(this)) */\n  jump\t// in\ntag_4:\n    /* \"smart_contracts/terminal/Terminal.sol\":1073:9364  contract Terminal is ITerminal, AccessControl {... */\n  jump(tag_6)\n    /* \"@openzeppelin/contracts/access/AccessControl.sol\":7587:7820  function _grantRole(bytes32 role, address account) internal virtual {... */\ntag_5:\n    /* \"@openzeppelin/contracts/access/AccessControl.sol\":3107:3111  bool */\n  0x00\n    /* \"@openzeppelin/contracts/access/AccessControl.sol\":3130:3142  _roles[role] */\n  dup3\n  dup2\n  mstore\n  0x20\n  dup2\n  dup2\n  mstore\n  0x40\n  dup1\n  dup4\n  keccak256\n  sub(shl(0xa0, 0x01), 0x01)\n    /* \"@openzeppelin/contracts/access/AccessControl.sol\":3130:3159  _roles[role].members[account] */\n  dup6\n  and\n  dup5\n  mstore\n  swap1\n  swap2\n  mstore\n  swap1\n  keccak256\n  sload\n  0xff\n  and\n    /* \"@openzeppelin/contracts/access/AccessControl.sol\":7665:7814  if (!hasRole(role, account)) {... */\n  tag_10\n  jumpi\n    /* \"@openzeppelin/contracts/access/AccessControl.sol\":7708:7714  _roles */\n  0x00\n    /* \"@openzeppelin/contracts/access/AccessControl.sol\":7708:7720  _roles[role] */\n  dup3\n  dup2\n  mstore\n  0x20\n  dup2\n  dup2\n  mstore\n  0x40\n  dup1\n  dup4\n  keccak256\n  sub(shl(0xa0, 0x01), 0x01)\n    /* \"@openzeppelin/contracts/access/AccessControl.sol\":7708:7737  _roles[role].members[account] */\n  dup6\n  and\n  dup5\n  mstore\n  swap1\n  swap2\n  mstore\n  swap1\n  keccak256\n    /* \"@openzeppelin/contracts/access/AccessControl.sol\":7708:7744  _roles[role].members[account] = true */\n  dup1\n  sload\n  not(0xff)\n  and\n    /* \"@openzeppelin/contracts/access/AccessControl.sol\":7740:7744  true */\n  0x01\n    /* \"@openzeppelin/contracts/access/AccessControl.sol\":7708:7744  _roles[role].members[account] = true */\n  or\n  swap1\n  sstore\n    /* \"@openzeppelin/contracts/access/AccessControl.sol\":7790:7802  _msgSender() */\n  tag_11\n    /* \"@openzeppelin/contracts/utils/Context.sol\":719:729  msg.sender */\n  caller\n  swap1\n    /* \"@openzeppelin/contracts/utils/Context.sol\":640:736  function _msgSender() internal view virtual returns (address) {... */\n  jump\n    /* \"@openzeppelin/contracts/access/AccessControl.sol\":7790:7802  _msgSender() */\ntag_11:\n  sub(shl(0xa0, 0x01), 0x01)\n    /* \"@openzeppelin/contracts/access/AccessControl.sol\":7763:7803  RoleGranted(role, account, _msgSender()) */\n  and\n    /* \"@openzeppelin/contracts/access/AccessControl.sol\":7781:7788  account */\n  dup2\n  sub(shl(0xa0, 0x01), 0x01)\n    /* \"@openzeppelin/contracts/access/AccessControl.sol\":7763:7803  RoleGranted(role, account, _msgSender()) */\n  and\n    /* \"@openzeppelin/contracts/access/AccessControl.sol\":7775:7779  role */\n  dup4\n    /* \"@openzeppelin/contracts/access/AccessControl.sol\":7763:7803  RoleGranted(role, account, _msgSender()) */\n  0x2f8788117e7eff1d82e926ec794901d17c78024a50270940304540a733656f0d\n  mload(0x40)\n  mload(0x40)\n  dup1\n  swap2\n  sub\n  swap1\n  log4\n    /* \"@openzeppelin/contracts/access/AccessControl.sol\":7665:7814  if (!hasRole(role, account)) {... */\ntag_10:\n    /* \"@openzeppelin/contracts/access/AccessControl.sol\":7587:7820  function _grantRole(bytes32 role, address account) internal virtual {... */\n  pop\n  pop\n  jump\t// out\n    /* \"smart_contracts/terminal/Terminal.sol\":1073:9364  contract Terminal is ITerminal, AccessControl {... */\ntag_6:\n  dataSize(sub_0)\n  dup1\n  dataOffset(sub_0)\n  0x00\n  codecopy\n  0x00\n  return\nstop\n\nsub_0: assembly {\n        /* \"smart_contracts/terminal/Terminal.sol\":1073:9364  contract Terminal is ITerminal, AccessControl {... */\n      mstore(0x40, 0x80)\n      callvalue\n      dup1\n      iszero\n      tag_1\n      jumpi\n      0x00\n      dup1\n      revert\n    tag_1:\n      pop\n      jumpi(tag_2, lt(calldatasize, 0x04))\n      shr(0xe0, calldataload(0x00))\n      dup1\n      0xa006294f\n      gt\n      tag_25\n      jumpi\n      dup1\n      0xd1a8dd2e\n      gt\n      tag_26\n      jumpi\n      dup1\n      0xd1a8dd2e\n      eq\n      tag_19\n      jumpi\n      dup1\n      0xd391014b\n      eq\n      tag_20\n      jumpi\n      dup1\n      0xd547741f\n      eq\n      tag_21\n      jumpi\n      dup1\n      0xef78463f\n      eq\n      tag_22\n      jumpi\n      dup1\n      0xfc406a02\n      eq\n      tag_23\n      jumpi\n      dup1\n      0xfd7522e2\n      eq\n      tag_24\n      jumpi\n      0x00\n      dup1\n      revert\n    tag_26:\n      dup1\n      0xa006294f\n      eq\n      tag_14\n      jumpi\n      dup1\n      0xa217fddf\n      eq\n      tag_15\n      jumpi\n      dup1\n      0xc5bb8159\n      eq\n      tag_16\n      jumpi\n      dup1\n      0xc703278a\n      eq\n      tag_17\n      jumpi\n      dup1\n      0xcff92081\n      eq\n      tag_18\n      jumpi\n      0x00\n      dup1\n      revert\n    tag_25:\n      dup1\n      0x3bdd8a9b\n      gt\n      tag_27\n      jumpi\n      dup1\n      0x3bdd8a9b\n      eq\n      tag_8\n      jumpi\n      dup1\n      0x6708a436\n      eq\n      tag_9\n      jumpi\n      dup1\n      0x6a9f010b\n      eq\n      tag_10\n      jumpi\n      dup1\n      0x6b1a242a\n      eq\n      tag_11\n      jumpi\n      dup1\n      0x6d02ca9f\n      eq\n      tag_12\n      jumpi\n      dup1\n      0x91d14854\n      eq\n      tag_13\n      jumpi\n      0x00\n      dup1\n      revert\n    tag_27:\n      dup1\n      0x01ffc9a7\n      eq\n      tag_3\n      jumpi\n      dup1\n      0x2371b2cf\n      eq\n      tag_4\n      jumpi\n      dup1\n      0x248a9ca3\n      eq\n      tag_5\n      jumpi\n      dup1\n      0x2f2ff15d\n      eq\n      tag_6\n      jumpi\n      dup1\n      0x36568abe\n      eq\n      tag_7\n      jumpi\n    tag_2:\n      0x00\n      dup1\n      revert\n        /* \"@openzeppelin/contracts/access/AccessControl.sol\":2732:2934  function supportsInterface(bytes4 interfaceId) public view virtual override returns (bool) {... */\n    tag_3:\n      tag_28\n      tag_29\n      calldatasize\n      0x04\n      tag_30\n      jump\t// in\n    tag_29:\n      tag_31\n      jump\t// in\n    tag_28:\n      mload(0x40)\n        /* \"#utility.yul\":470:484   */\n      swap1\n      iszero\n        /* \"#utility.yul\":463:485   */\n      iszero\n        /* \"#utility.yul\":445:486   */\n      dup2\n      mstore\n        /* \"#utility.yul\":433:435   */\n      0x20\n        /* \"#utility.yul\":418:436   */\n      add\n        /* \"@openzeppelin/contracts/access/AccessControl.sol\":2732:2934  function supportsInterface(bytes4 interfaceId) public view virtual override returns (bool) {... */\n    tag_32:\n      mload(0x40)\n      dup1\n      swap2\n      sub\n      swap1\n      return\n        /* \"smart_contracts/terminal/Terminal.sol\":1309:1377  bytes32 public constant ROLE_SYNDICATE = keccak256(\"ROLE_SYNDICATE\") */\n    tag_4:\n      tag_34\n        /* \"smart_contracts/terminal/Terminal.sol\":1350:1377  keccak256(\"ROLE_SYNDICATE\") */\n      0x917a6160fa9b4361968cd14f786810932b4c8dbf43d8aeaec262e7c931f27416\n        /* \"smart_contracts/terminal/Terminal.sol\":1309:1377  bytes32 public constant ROLE_SYNDICATE = keccak256(\"ROLE_SYNDICATE\") */\n      dup2\n      jump\n    tag_34:\n      mload(0x40)\n        /* \"#utility.yul\":643:668   */\n      swap1\n      dup2\n      mstore\n        /* \"#utility.yul\":631:633   */\n      0x20\n        /* \"#utility.yul\":616:634   */\n      add\n        /* \"smart_contracts/terminal/Terminal.sol\":1309:1377  bytes32 public constant ROLE_SYNDICATE = keccak256(\"ROLE_SYNDICATE\") */\n      tag_32\n        /* \"#utility.yul\":497:674   */\n      jump\n        /* \"@openzeppelin/contracts/access/AccessControl.sol\":4504:4633  function getRoleAdmin(bytes32 role) public view virtual override returns (bytes32) {... */\n    tag_5:\n      tag_34\n      tag_39\n      calldatasize\n      0x04\n      tag_40\n      jump\t// in\n    tag_39:\n        /* \"@openzeppelin/contracts/access/AccessControl.sol\":4578:4585  bytes32 */\n      0x00\n        /* \"@openzeppelin/contracts/access/AccessControl.sol\":4604:4616  _roles[role] */\n      swap1\n      dup2\n      mstore\n      0x20\n      dup2\n      swap1\n      mstore\n      0x40\n      swap1\n      keccak256\n        /* \"@openzeppelin/contracts/access/AccessControl.sol\":4604:4626  _roles[role].adminRole */\n      0x01\n      add\n      sload\n      swap1\n        /* \"@openzeppelin/contracts/access/AccessControl.sol\":4504:4633  function getRoleAdmin(bytes32 role) public view virtual override returns (bytes32) {... */\n      jump\n        /* \"@openzeppelin/contracts/access/AccessControl.sol\":4929:5074  function grantRole(bytes32 role, address account) public virtual override onlyRole(getRoleAdmin(role)) {... */\n    tag_6:\n      tag_43\n      tag_44\n      calldatasize\n      0x04\n      tag_45\n      jump\t// in\n    tag_44:\n      tag_46\n      jump\t// in\n    tag_43:\n      stop\n        /* \"@openzeppelin/contracts/access/AccessControl.sol\":6038:6252  function renounceRole(bytes32 role, address account) public virtual override {... */\n    tag_7:\n      tag_43\n      tag_48\n      calldatasize\n      0x04\n      tag_45\n      jump\t// in\n    tag_48:\n      tag_49\n      jump\t// in\n        /* \"smart_contracts/terminal/Terminal.sol\":6028:7064  function newMultiSigProposal(address[] memory signers_, uint timeout, uint threshold_, address obj_, string memory signature_, bytes memory args_) public onlyRole(ROLE_BOARD) {... */\n    tag_8:\n      tag_43\n      tag_51\n      calldatasize\n      0x04\n      tag_52\n      jump\t// in\n    tag_51:\n      tag_53\n      jump\t// in\n        /* \"smart_contracts/terminal/Terminal.sol\":1236:1303  bytes32 public constant ROLE_BOARD = keccak256(\"ROLE_BOARD_MEMBER\") */\n    tag_9:\n      tag_34\n      0x00\n      dup1\n      mload\n      0x20\n      data_093d78d14b29fcbdf4452dcdf4ad32823ef264abdfe05f6919632e60e21c34cd\n      dup4\n      codecopy\n      dup2\n      mload\n      swap2\n      mstore\n      dup2\n      jump\n        /* \"smart_contracts/terminal/Terminal.sol\":8930:9072  function multiSigProposalHasBeenCancelled(uint ref) public view returns (bool) {... */\n    tag_10:\n      tag_28\n      tag_58\n      calldatasize\n      0x04\n      tag_40\n      jump\t// in\n    tag_58:\n        /* \"smart_contracts/terminal/Terminal.sol\":9003:9007  bool */\n      0x00\n        /* \"smart_contracts/terminal/Terminal.sol\":9026:9048  multiSigProposals[ref] */\n      swap1\n      dup2\n      mstore\n        /* \"smart_contracts/terminal/Terminal.sol\":9026:9043  multiSigProposals */\n      0x02\n        /* \"smart_contracts/terminal/Terminal.sol\":9026:9048  multiSigProposals[ref] */\n      0x20\n      mstore\n      0x40\n      swap1\n      keccak256\n        /* \"smart_contracts/terminal/Terminal.sol\":9026:9065  multiSigProposals[ref].hasBeenCancelled */\n      0x03\n      add\n      sload\n      0xff\n      and\n      swap1\n        /* \"smart_contracts/terminal/Terminal.sol\":8930:9072  function multiSigProposalHasBeenCancelled(uint ref) public view returns (bool) {... */\n      jump\n        /* \"smart_contracts/terminal/Terminal.sol\":7709:7985  function multiSigProposalCancel(uint ref) public onlyIfNotExpired(ref) onlyIfNotCancelled(ref) onlyIfNotExecuted(ref) onlyRole(ROLE_BOARD) {... */\n    tag_11:\n      tag_43\n      tag_63\n      calldatasize\n      0x04\n      tag_40\n      jump\t// in\n    tag_63:\n      tag_64\n      jump\t// in\n        /* \"smart_contracts/terminal/Terminal.sol\":9078:9218  function multiSigProposalHasBeenExecuted(uint ref) public view returns (bool) {... */\n    tag_12:\n      tag_28\n      tag_66\n      calldatasize\n      0x04\n      tag_40\n      jump\t// in\n    tag_66:\n        /* \"smart_contracts/terminal/Terminal.sol\":9150:9154  bool */\n      0x00\n        /* \"smart_contracts/terminal/Terminal.sol\":9173:9195  multiSigProposals[ref] */\n      swap1\n      dup2\n      mstore\n        /* \"smart_contracts/terminal/Terminal.sol\":9173:9190  multiSigProposals */\n      0x02\n        /* \"smart_contracts/terminal/Terminal.sol\":9173:9195  multiSigProposals[ref] */\n      0x20\n      mstore\n      0x40\n      swap1\n      keccak256\n        /* \"smart_contracts/terminal/Terminal.sol\":9173:9211  multiSigProposals[ref].hasBeenExecuted */\n      0x03\n      add\n      sload\n      0x0100\n      swap1\n      div\n      0xff\n      and\n      swap1\n        /* \"smart_contracts/terminal/Terminal.sol\":9078:9218  function multiSigProposalHasBeenExecuted(uint ref) public view returns (bool) {... */\n      jump\n        /* \"@openzeppelin/contracts/access/AccessControl.sol\":3021:3166  function hasRole(bytes32 role, address account) public view virtual override returns (bool) {... */\n    tag_13:\n      tag_28\n      tag_70\n      calldatasize\n      0x04\n      tag_45\n      jump\t// in\n    tag_70:\n      tag_71\n      jump\t// in\n        /* \"smart_contracts/terminal/Terminal.sol\":7428:7703  function multiSigProposalUnsign(uint ref) public onlyIfNotExpired(ref) onlyIfNotCancelled(ref) onlyIfDuplicateSignature(ref) onlySignerOf(ref) {... */\n    tag_14:\n      tag_43\n      tag_74\n      calldatasize\n      0x04\n      tag_40\n      jump\t// in\n    tag_74:\n      tag_75\n      jump\t// in\n        /* \"@openzeppelin/contracts/access/AccessControl.sol\":2153:2202  bytes32 public constant DEFAULT_ADMIN_ROLE = 0x00 */\n    tag_15:\n      tag_34\n        /* \"@openzeppelin/contracts/access/AccessControl.sol\":2198:2202  0x00 */\n      0x00\n        /* \"@openzeppelin/contracts/access/AccessControl.sol\":2153:2202  bytes32 public constant DEFAULT_ADMIN_ROLE = 0x00 */\n      dup2\n      jump\n        /* \"smart_contracts/terminal/Terminal.sol\":8790:8924  function multiSigProposalEndTimestamp(uint ref) public view returns (uint) {... */\n    tag_16:\n      tag_34\n      tag_80\n      calldatasize\n      0x04\n      tag_40\n      jump\t// in\n    tag_80:\n        /* \"smart_contracts/terminal/Terminal.sol\":8859:8863  uint */\n      0x00\n        /* \"smart_contracts/terminal/Terminal.sol\":8882:8904  multiSigProposals[ref] */\n      swap1\n      dup2\n      mstore\n        /* \"smart_contracts/terminal/Terminal.sol\":8882:8899  multiSigProposals */\n      0x02\n        /* \"smart_contracts/terminal/Terminal.sol\":8882:8904  multiSigProposals[ref] */\n      0x20\n      mstore\n      0x40\n      swap1\n      keccak256\n        /* \"smart_contracts/terminal/Terminal.sol\":8882:8917  multiSigProposals[ref].endTimestamp */\n      0x01\n      add\n      sload\n      swap1\n        /* \"smart_contracts/terminal/Terminal.sol\":8790:8924  function multiSigProposalEndTimestamp(uint ref) public view returns (uint) {... */\n      jump\n        /* \"smart_contracts/terminal/Terminal.sol\":9224:9360  function multiSigProposalHasBeenPassed(uint ref) public view returns (bool) {... */\n    tag_17:\n      tag_28\n      tag_85\n      calldatasize\n      0x04\n      tag_40\n      jump\t// in\n    tag_85:\n        /* \"smart_contracts/terminal/Terminal.sol\":9294:9298  bool */\n      0x00\n        /* \"smart_contracts/terminal/Terminal.sol\":9317:9339  multiSigProposals[ref] */\n      swap1\n      dup2\n      mstore\n        /* \"smart_contracts/terminal/Terminal.sol\":9317:9334  multiSigProposals */\n      0x02\n        /* \"smart_contracts/terminal/Terminal.sol\":9317:9339  multiSigProposals[ref] */\n      0x20\n      mstore\n      0x40\n      swap1\n      keccak256\n        /* \"smart_contracts/terminal/Terminal.sol\":9317:9353  multiSigProposals[ref].hasBeenPassed */\n      0x03\n      add\n      sload\n      0x010000\n      swap1\n      div\n      0xff\n      and\n      swap1\n        /* \"smart_contracts/terminal/Terminal.sol\":9224:9360  function multiSigProposalHasBeenPassed(uint ref) public view returns (bool) {... */\n      jump\n        /* \"smart_contracts/terminal/Terminal.sol\":8646:8784  function multiSigProposalStartTimestamp(uint ref) public view returns (uint) {... */\n    tag_18:\n      tag_34\n      tag_89\n      calldatasize\n      0x04\n      tag_40\n      jump\t// in\n    tag_89:\n        /* \"smart_contracts/terminal/Terminal.sol\":8717:8721  uint */\n      0x00\n        /* \"smart_contracts/terminal/Terminal.sol\":8740:8762  multiSigProposals[ref] */\n      swap1\n      dup2\n      mstore\n        /* \"smart_contracts/terminal/Terminal.sol\":8740:8757  multiSigProposals */\n      0x02\n        /* \"smart_contracts/terminal/Terminal.sol\":8740:8762  multiSigProposals[ref] */\n      0x20\n      mstore\n      0x40\n      swap1\n      keccak256\n        /* \"smart_contracts/terminal/Terminal.sol\":8740:8777  multiSigProposals[ref].startTimestamp */\n      sload\n      swap1\n        /* \"smart_contracts/terminal/Terminal.sol\":8646:8784  function multiSigProposalStartTimestamp(uint ref) public view returns (uint) {... */\n      jump\n        /* \"smart_contracts/terminal/Terminal.sol\":5805:6022  function setObjWhitelist(address contract_, bool newWhitelistState) public onlyRole(ROLE_ADMIN) {... */\n    tag_19:\n      tag_43\n      tag_93\n      calldatasize\n      0x04\n      tag_94\n      jump\t// in\n    tag_93:\n      tag_95\n      jump\t// in\n        /* \"smart_contracts/terminal/Terminal.sol\":1170:1230  bytes32 public constant ROLE_ADMIN = keccak256(\"ROLE_ADMIN\") */\n    tag_20:\n      tag_34\n        /* \"smart_contracts/terminal/Terminal.sol\":1207:1230  keccak256(\"ROLE_ADMIN\") */\n      0x2172861495e7b85edac73e3cd5fbb42dd675baadf627720e687bcfdaca025096\n        /* \"smart_contracts/terminal/Terminal.sol\":1170:1230  bytes32 public constant ROLE_ADMIN = keccak256(\"ROLE_ADMIN\") */\n      dup2\n      jump\n        /* \"@openzeppelin/contracts/access/AccessControl.sol\":5354:5501  function revokeRole(bytes32 role, address account) public virtual override onlyRole(getRoleAdmin(role)) {... */\n    tag_21:\n      tag_43\n      tag_100\n      calldatasize\n      0x04\n      tag_45\n      jump\t// in\n    tag_100:\n      tag_101\n      jump\t// in\n        /* \"smart_contracts/terminal/Terminal.sol\":7070:7422  function multiSigProposalSign(uint ref) public onlyIfNotExpired(ref) onlyIfNotCancelled(ref) onlyIfNotDuplicateSignature(ref) onlySignerOf(ref) {... */\n    tag_22:\n      tag_43\n      tag_103\n      calldatasize\n      0x04\n      tag_40\n      jump\t// in\n    tag_103:\n      tag_104\n      jump\t// in\n        /* \"smart_contracts/terminal/Terminal.sol\":8207:8640  function multiSigProposalExecute(uint ref) public onlyIfNotExpired(ref) onlyIfNotCancelled(ref) onlyIfPassed(ref) onlyIfNotExecuted(ref) onlyRole(ROLE_BOARD) returns (bool) {... */\n    tag_23:\n      tag_28\n      tag_106\n      calldatasize\n      0x04\n      tag_40\n      jump\t// in\n    tag_106:\n      tag_107\n      jump\t// in\n        /* \"smart_contracts/terminal/Terminal.sol\":1383:1445  bytes32 public constant ROLE_MEMBER = keccak256(\"ROLE_MEMBER\") */\n    tag_24:\n      tag_34\n        /* \"smart_contracts/terminal/Terminal.sol\":1421:1445  keccak256(\"ROLE_MEMBER\") */\n      0xe892760268ab8265e73c67b2387f8e09c46bd3818c36eebd25a5a4e862cf0318\n        /* \"smart_contracts/terminal/Terminal.sol\":1383:1445  bytes32 public constant ROLE_MEMBER = keccak256(\"ROLE_MEMBER\") */\n      dup2\n      jump\n        /* \"@openzeppelin/contracts/access/AccessControl.sol\":2732:2934  function supportsInterface(bytes4 interfaceId) public view virtual override returns (bool) {... */\n    tag_31:\n        /* \"@openzeppelin/contracts/access/AccessControl.sol\":2817:2821  bool */\n      0x00\n      not(sub(shl(0xe0, 0x01), 0x01))\n        /* \"@openzeppelin/contracts/access/AccessControl.sol\":2840:2887  interfaceId == type(IAccessControl).interfaceId */\n      dup3\n      and\n      shl(0xe0, 0x7965db0b)\n      eq\n      dup1\n        /* \"@openzeppelin/contracts/access/AccessControl.sol\":2840:2927  interfaceId == type(IAccessControl).interfaceId || super.supportsInterface(interfaceId) */\n      tag_114\n      jumpi\n      pop\n      shl(0xe0, 0x01ffc9a7)\n      not(sub(shl(0xe0, 0x01), 0x01))\n        /* \"@openzeppelin/contracts/utils/introspection/ERC165.sol\":937:977  interfaceId == type(IERC165).interfaceId */\n      dup4\n      and\n      eq\n        /* \"@openzeppelin/contracts/access/AccessControl.sol\":2891:2927  super.supportsInterface(interfaceId) */\n    tag_114:\n        /* \"@openzeppelin/contracts/access/AccessControl.sol\":2833:2927  return interfaceId == type(IAccessControl).interfaceId || super.supportsInterface(interfaceId) */\n      swap3\n        /* \"@openzeppelin/contracts/access/AccessControl.sol\":2732:2934  function supportsInterface(bytes4 interfaceId) public view virtual override returns (bool) {... */\n      swap2\n      pop\n      pop\n      jump\t// out\n        /* \"@openzeppelin/contracts/access/AccessControl.sol\":4929:5074  function grantRole(bytes32 role, address account) public virtual override onlyRole(getRoleAdmin(role)) {... */\n    tag_46:\n        /* \"@openzeppelin/contracts/access/AccessControl.sol\":4578:4585  bytes32 */\n      0x00\n        /* \"@openzeppelin/contracts/access/AccessControl.sol\":4604:4616  _roles[role] */\n      dup3\n      dup2\n      mstore\n      0x20\n      dup2\n      swap1\n      mstore\n      0x40\n      swap1\n      keccak256\n        /* \"@openzeppelin/contracts/access/AccessControl.sol\":4604:4626  _roles[role].adminRole */\n      0x01\n      add\n      sload\n        /* \"@openzeppelin/contracts/access/AccessControl.sol\":2631:2647  _checkRole(role) */\n      tag_119\n        /* \"@openzeppelin/contracts/access/AccessControl.sol\":2642:2646  role */\n      dup2\n        /* \"@openzeppelin/contracts/access/AccessControl.sol\":2631:2641  _checkRole */\n      tag_120\n        /* \"@openzeppelin/contracts/access/AccessControl.sol\":2631:2647  _checkRole(role) */\n      jump\t// in\n    tag_119:\n        /* \"@openzeppelin/contracts/access/AccessControl.sol\":5042:5067  _grantRole(role, account) */\n      tag_122\n        /* \"@openzeppelin/contracts/access/AccessControl.sol\":5053:5057  role */\n      dup4\n        /* \"@openzeppelin/contracts/access/AccessControl.sol\":5059:5066  account */\n      dup4\n        /* \"@openzeppelin/contracts/access/AccessControl.sol\":5042:5052  _grantRole */\n      tag_123\n        /* \"@openzeppelin/contracts/access/AccessControl.sol\":5042:5067  _grantRole(role, account) */\n      jump\t// in\n    tag_122:\n        /* \"@openzeppelin/contracts/access/AccessControl.sol\":4929:5074  function grantRole(bytes32 role, address account) public virtual override onlyRole(getRoleAdmin(role)) {... */\n      pop\n      pop\n      pop\n      jump\t// out\n        /* \"@openzeppelin/contracts/access/AccessControl.sol\":6038:6252  function renounceRole(bytes32 role, address account) public virtual override {... */\n    tag_49:\n      sub(shl(0xa0, 0x01), 0x01)\n        /* \"@openzeppelin/contracts/access/AccessControl.sol\":6133:6156  account == _msgSender() */\n      dup2\n      and\n        /* \"@openzeppelin/contracts/utils/Context.sol\":719:729  msg.sender */\n      caller\n        /* \"@openzeppelin/contracts/access/AccessControl.sol\":6133:6156  account == _msgSender() */\n      eq\n        /* \"@openzeppelin/contracts/access/AccessControl.sol\":6125:6208  require(account == _msgSender(), \"AccessControl: can only renounce roles for self\") */\n      tag_127\n      jumpi\n      mload(0x40)\n      shl(0xe5, 0x461bcd)\n      dup2\n      mstore\n        /* \"#utility.yul\":4741:4743   */\n      0x20\n        /* \"@openzeppelin/contracts/access/AccessControl.sol\":6125:6208  require(account == _msgSender(), \"AccessControl: can only renounce roles for self\") */\n      0x04\n      dup3\n      add\n        /* \"#utility.yul\":4723:4744   */\n      mstore\n        /* \"#utility.yul\":4780:4782   */\n      0x2f\n        /* \"#utility.yul\":4760:4778   */\n      0x24\n      dup3\n      add\n        /* \"#utility.yul\":4753:4783   */\n      mstore\n        /* \"#utility.yul\":4819:4853   */\n      0x416363657373436f6e74726f6c3a2063616e206f6e6c792072656e6f756e6365\n        /* \"#utility.yul\":4799:4817   */\n      0x44\n      dup3\n      add\n        /* \"#utility.yul\":4792:4854   */\n      mstore\n      shl(0x89, 0x103937b632b9903337b91039b2b633)\n        /* \"#utility.yul\":4870:4888   */\n      0x64\n      dup3\n      add\n        /* \"#utility.yul\":4863:4908   */\n      mstore\n        /* \"#utility.yul\":4925:4944   */\n      0x84\n      add\n        /* \"@openzeppelin/contracts/access/AccessControl.sol\":6125:6208  require(account == _msgSender(), \"AccessControl: can only renounce roles for self\") */\n    tag_128:\n      mload(0x40)\n      dup1\n      swap2\n      sub\n      swap1\n      revert\n    tag_127:\n        /* \"@openzeppelin/contracts/access/AccessControl.sol\":6219:6245  _revokeRole(role, account) */\n      tag_130\n        /* \"@openzeppelin/contracts/access/AccessControl.sol\":6231:6235  role */\n      dup3\n        /* \"@openzeppelin/contracts/access/AccessControl.sol\":6237:6244  account */\n      dup3\n        /* \"@openzeppelin/contracts/access/AccessControl.sol\":6219:6230  _revokeRole */\n      tag_131\n        /* \"@openzeppelin/contracts/access/AccessControl.sol\":6219:6245  _revokeRole(role, account) */\n      jump\t// in\n    tag_130:\n        /* \"@openzeppelin/contracts/access/AccessControl.sol\":6038:6252  function renounceRole(bytes32 role, address account) public virtual override {... */\n      pop\n      pop\n      jump\t// out\n        /* \"smart_contracts/terminal/Terminal.sol\":6028:7064  function newMultiSigProposal(address[] memory signers_, uint timeout, uint threshold_, address obj_, string memory signature_, bytes memory args_) public onlyRole(ROLE_BOARD) {... */\n    tag_53:\n      0x00\n      dup1\n      mload\n      0x20\n      data_093d78d14b29fcbdf4452dcdf4ad32823ef264abdfe05f6919632e60e21c34cd\n      dup4\n      codecopy\n      dup2\n      mload\n      swap2\n      mstore\n        /* \"@openzeppelin/contracts/access/AccessControl.sol\":2631:2647  _checkRole(role) */\n      tag_133\n        /* \"@openzeppelin/contracts/access/AccessControl.sol\":2642:2646  role */\n      dup2\n        /* \"@openzeppelin/contracts/access/AccessControl.sol\":2631:2641  _checkRole */\n      tag_120\n        /* \"@openzeppelin/contracts/access/AccessControl.sol\":2631:2647  _checkRole(role) */\n      jump\t// in\n    tag_133:\n        /* \"smart_contracts/terminal/Terminal.sol\":6243:6258  signers_.length */\n      dup7\n      mload\n        /* \"smart_contracts/terminal/Terminal.sol\":6262:6263  2 */\n      0x02\n        /* \"smart_contracts/terminal/Terminal.sol\":6243:6263  signers_.length >= 2 */\n      dup2\n      lt\n      iszero\n      swap1\n        /* \"smart_contracts/terminal/Terminal.sol\":6322:6323  9 */\n      0x09\n      lt\n        /* \"smart_contracts/terminal/Terminal.sol\":6303:6323  signers_.length <= 9 */\n      iszero\n        /* \"smart_contracts/terminal/Terminal.sol\":6243:6263  signers_.length >= 2 */\n      dup2\n        /* \"smart_contracts/terminal/Terminal.sol\":6333:6388  require(has2OrMoreThan2Signers, \"signers_.length >= 2\") */\n      tag_135\n      jumpi\n      mload(0x40)\n      shl(0xe5, 0x461bcd)\n      dup2\n      mstore\n        /* \"#utility.yul\":5157:5159   */\n      0x20\n        /* \"smart_contracts/terminal/Terminal.sol\":6333:6388  require(has2OrMoreThan2Signers, \"signers_.length >= 2\") */\n      0x04\n      dup3\n      add\n        /* \"#utility.yul\":5139:5160   */\n      mstore\n        /* \"#utility.yul\":5196:5198   */\n      0x14\n        /* \"#utility.yul\":5176:5194   */\n      0x24\n      dup3\n      add\n        /* \"#utility.yul\":5169:5199   */\n      mstore\n      shl(0x61, 0x39b4b3b732b939af973632b733ba34101f1e9019)\n        /* \"#utility.yul\":5215:5233   */\n      0x44\n      dup3\n      add\n        /* \"#utility.yul\":5208:5258   */\n      mstore\n        /* \"#utility.yul\":5275:5293   */\n      0x64\n      add\n        /* \"smart_contracts/terminal/Terminal.sol\":6333:6388  require(has2OrMoreThan2Signers, \"signers_.length >= 2\") */\n      tag_128\n        /* \"#utility.yul\":4955:5299   */\n      jump\n        /* \"smart_contracts/terminal/Terminal.sol\":6333:6388  require(has2OrMoreThan2Signers, \"signers_.length >= 2\") */\n    tag_135:\n        /* \"smart_contracts/terminal/Terminal.sol\":6406:6428  has9OrLessThan9Signers */\n      dup1\n        /* \"smart_contracts/terminal/Terminal.sol\":6398:6453  require(has9OrLessThan9Signers, \"signers_.length <= 9\") */\n      tag_138\n      jumpi\n      mload(0x40)\n      shl(0xe5, 0x461bcd)\n      dup2\n      mstore\n        /* \"#utility.yul\":5506:5508   */\n      0x20\n        /* \"smart_contracts/terminal/Terminal.sol\":6398:6453  require(has9OrLessThan9Signers, \"signers_.length <= 9\") */\n      0x04\n      dup3\n      add\n        /* \"#utility.yul\":5488:5509   */\n      mstore\n        /* \"#utility.yul\":5545:5547   */\n      0x14\n        /* \"#utility.yul\":5525:5543   */\n      0x24\n      dup3\n      add\n        /* \"#utility.yul\":5518:5548   */\n      mstore\n      shl(0x60, 0x7369676e6572735f2e6c656e677468203c3d2039)\n        /* \"#utility.yul\":5564:5582   */\n      0x44\n      dup3\n      add\n        /* \"#utility.yul\":5557:5607   */\n      mstore\n        /* \"#utility.yul\":5624:5642   */\n      0x64\n      add\n        /* \"smart_contracts/terminal/Terminal.sol\":6398:6453  require(has9OrLessThan9Signers, \"signers_.length <= 9\") */\n      tag_128\n        /* \"#utility.yul\":5304:5648   */\n      jump\n        /* \"smart_contracts/terminal/Terminal.sol\":6398:6453  require(has9OrLessThan9Signers, \"signers_.length <= 9\") */\n    tag_138:\n        /* \"smart_contracts/terminal/Terminal.sol\":6493:6494  1 */\n      0x01\n        /* \"smart_contracts/terminal/Terminal.sol\":6464:6489  numberOfMultiSigProposals */\n      dup1\n      0x00\n        /* \"smart_contracts/terminal/Terminal.sol\":6464:6494  numberOfMultiSigProposals += 1 */\n      dup3\n      dup3\n      sload\n      tag_141\n      swap2\n      swap1\n      tag_142\n      jump\t// in\n    tag_141:\n      swap1\n      swap2\n      sstore\n      pop\n      pop\n        /* \"smart_contracts/terminal/Terminal.sol\":6552:6577  numberOfMultiSigProposals */\n      sload(0x01)\n        /* \"smart_contracts/terminal/Terminal.sol\":6621:6950  MultiSigProposal({... */\n      0x40\n      dup1\n      mload\n      0x0120\n      dup2\n      add\n      swap1\n      swap2\n      mstore\n        /* \"smart_contracts/terminal/Terminal.sol\":6516:6531  block.timestamp */\n      timestamp\n        /* \"smart_contracts/terminal/Terminal.sol\":6621:6950  MultiSigProposal({... */\n      dup1\n      dup3\n      mstore\n        /* \"smart_contracts/terminal/Terminal.sol\":6516:6531  block.timestamp */\n      swap2\n        /* \"smart_contracts/terminal/Terminal.sol\":6552:6577  numberOfMultiSigProposals */\n      swap1\n        /* \"smart_contracts/terminal/Terminal.sol\":6621:6950  MultiSigProposal({... */\n      0x20\n      dup2\n      add\n        /* \"smart_contracts/terminal/Terminal.sol\":6700:6714  now_ + timeout */\n      tag_143\n        /* \"smart_contracts/terminal/Terminal.sol\":6707:6714  timeout */\n      dup13\n        /* \"smart_contracts/terminal/Terminal.sol\":6516:6531  block.timestamp */\n      dup6\n        /* \"smart_contracts/terminal/Terminal.sol\":6700:6714  now_ + timeout */\n      tag_142\n      jump\t// in\n    tag_143:\n        /* \"smart_contracts/terminal/Terminal.sol\":6621:6950  MultiSigProposal({... */\n      dup2\n      mstore\n      0x20\n      add\n        /* \"smart_contracts/terminal/Terminal.sol\":6739:6749  threshold_ */\n      dup11\n        /* \"smart_contracts/terminal/Terminal.sol\":6621:6950  MultiSigProposal({... */\n      dup2\n      mstore\n      0x20\n      add\n        /* \"smart_contracts/terminal/Terminal.sol\":6781:6786  false */\n      0x00\n        /* \"smart_contracts/terminal/Terminal.sol\":6621:6950  MultiSigProposal({... */\n      iszero\n      iszero\n      dup2\n      mstore\n      0x20\n      add\n        /* \"smart_contracts/terminal/Terminal.sol\":6817:6822  false */\n      0x00\n        /* \"smart_contracts/terminal/Terminal.sol\":6621:6950  MultiSigProposal({... */\n      iszero\n      iszero\n      dup2\n      mstore\n      0x20\n      add\n        /* \"smart_contracts/terminal/Terminal.sol\":6851:6856  false */\n      0x00\n        /* \"smart_contracts/terminal/Terminal.sol\":6621:6950  MultiSigProposal({... */\n      iszero\n      iszero\n      dup2\n      mstore\n      0x20\n      add\n        /* \"smart_contracts/terminal/Terminal.sol\":6875:6879  obj_ */\n      dup10\n      sub(shl(0xa0, 0x01), 0x01)\n        /* \"smart_contracts/terminal/Terminal.sol\":6621:6950  MultiSigProposal({... */\n      and\n      dup2\n      mstore\n      0x20\n      add\n        /* \"smart_contracts/terminal/Terminal.sol\":6904:6914  signature_ */\n      dup9\n        /* \"smart_contracts/terminal/Terminal.sol\":6621:6950  MultiSigProposal({... */\n      dup2\n      mstore\n      0x20\n      add\n        /* \"smart_contracts/terminal/Terminal.sol\":6934:6939  args_ */\n      dup8\n        /* \"smart_contracts/terminal/Terminal.sol\":6621:6950  MultiSigProposal({... */\n      dup2\n      mstore\n      pop\n        /* \"smart_contracts/terminal/Terminal.sol\":6596:6613  multiSigProposals */\n      0x02\n        /* \"smart_contracts/terminal/Terminal.sol\":6596:6618  multiSigProposals[ref] */\n      0x00\n        /* \"smart_contracts/terminal/Terminal.sol\":6614:6617  ref */\n      dup4\n        /* \"smart_contracts/terminal/Terminal.sol\":6596:6618  multiSigProposals[ref] */\n      dup2\n      mstore\n      0x20\n      add\n      swap1\n      dup2\n      mstore\n      0x20\n      add\n      0x00\n      keccak256\n        /* \"smart_contracts/terminal/Terminal.sol\":6596:6950  multiSigProposals[ref] = MultiSigProposal({... */\n      0x00\n      dup3\n      add\n      mload\n      dup2\n      0x00\n      add\n      sstore\n      0x20\n      dup3\n      add\n      mload\n      dup2\n      0x01\n      add\n      sstore\n      0x40\n      dup3\n      add\n      mload\n      dup2\n      0x02\n      add\n      sstore\n      0x60\n      dup3\n      add\n      mload\n      dup2\n      0x03\n      add\n      exp(0x0100, 0x00)\n      dup2\n      sload\n      dup2\n      0xff\n      mul\n      not\n      and\n      swap1\n      dup4\n      iszero\n      iszero\n      mul\n      or\n      swap1\n      sstore\n      pop\n      0x80\n      dup3\n      add\n      mload\n      dup2\n      0x03\n      add\n      exp(0x0100, 0x01)\n      dup2\n      sload\n      dup2\n      0xff\n      mul\n      not\n      and\n      swap1\n      dup4\n      iszero\n      iszero\n      mul\n      or\n      swap1\n      sstore\n      pop\n      0xa0\n      dup3\n      add\n      mload\n      dup2\n      0x03\n      add\n      exp(0x0100, 0x02)\n      dup2\n      sload\n      dup2\n      0xff\n      mul\n      not\n      and\n      swap1\n      dup4\n      iszero\n      iszero\n      mul\n      or\n      swap1\n      sstore\n      pop\n      0xc0\n      dup3\n      add\n      mload\n      dup2\n      0x03\n      add\n      exp(0x0100, 0x03)\n      dup2\n      sload\n      dup2\n      sub(shl(0xa0, 0x01), 0x01)\n      mul\n      not\n      and\n      swap1\n      dup4\n      sub(shl(0xa0, 0x01), 0x01)\n      and\n      mul\n      or\n      swap1\n      sstore\n      pop\n      0xe0\n      dup3\n      add\n      mload\n      dup2\n      0x04\n      add\n      swap1\n      dup2\n      tag_144\n      swap2\n      swap1\n      tag_145\n      jump\t// in\n    tag_144:\n      pop\n      0x0100\n      dup3\n      add\n      mload\n      0x05\n      dup3\n      add\n      swap1\n      tag_146\n      swap1\n      dup3\n      tag_145\n      jump\t// in\n    tag_146:\n      pop\n      swap1\n      pop\n      pop\n        /* \"smart_contracts/terminal/Terminal.sol\":6966:6972  uint i */\n      0x00\n        /* \"smart_contracts/terminal/Terminal.sol\":6961:7058  for (uint i = 0; i < signers_.length; i++) {... */\n    tag_148:\n        /* \"smart_contracts/terminal/Terminal.sol\":6982:6990  signers_ */\n      dup12\n        /* \"smart_contracts/terminal/Terminal.sol\":6982:6997  signers_.length */\n      mload\n        /* \"smart_contracts/terminal/Terminal.sol\":6978:6979  i */\n      dup2\n        /* \"smart_contracts/terminal/Terminal.sol\":6978:6997  i < signers_.length */\n      lt\n        /* \"smart_contracts/terminal/Terminal.sol\":6961:7058  for (uint i = 0; i < signers_.length; i++) {... */\n      iszero\n      tag_149\n      jumpi\n        /* \"smart_contracts/terminal/Terminal.sol\":7018:7047  signers[ref].add(signers_[i]) */\n      tag_151\n        /* \"smart_contracts/terminal/Terminal.sol\":7035:7043  signers_ */\n      dup13\n        /* \"smart_contracts/terminal/Terminal.sol\":7044:7045  i */\n      dup3\n        /* \"smart_contracts/terminal/Terminal.sol\":7035:7046  signers_[i] */\n      dup2\n      mload\n      dup2\n      lt\n      tag_153\n      jumpi\n      tag_153\n      tag_154\n      jump\t// in\n    tag_153:\n      0x20\n      mul\n      0x20\n      add\n      add\n      mload\n        /* \"smart_contracts/terminal/Terminal.sol\":7018:7025  signers */\n      0x03\n        /* \"smart_contracts/terminal/Terminal.sol\":7018:7030  signers[ref] */\n      0x00\n        /* \"smart_contracts/terminal/Terminal.sol\":7026:7029  ref */\n      dup6\n        /* \"smart_contracts/terminal/Terminal.sol\":7018:7030  signers[ref] */\n      dup2\n      mstore\n      0x20\n      add\n      swap1\n      dup2\n      mstore\n      0x20\n      add\n      0x00\n      keccak256\n        /* \"smart_contracts/terminal/Terminal.sol\":7018:7034  signers[ref].add */\n      tag_155\n      swap1\n        /* \"smart_contracts/terminal/Terminal.sol\":7018:7047  signers[ref].add(signers_[i]) */\n      swap2\n      swap1\n      0xffffffff\n      and\n      jump\t// in\n    tag_151:\n      pop\n        /* \"smart_contracts/terminal/Terminal.sol\":6999:7002  i++ */\n      dup1\n      tag_156\n      dup2\n      tag_157\n      jump\t// in\n    tag_156:\n      swap2\n      pop\n      pop\n        /* \"smart_contracts/terminal/Terminal.sol\":6961:7058  for (uint i = 0; i < signers_.length; i++) {... */\n      jump(tag_148)\n    tag_149:\n      pop\n        /* \"smart_contracts/terminal/Terminal.sol\":6203:7064  {... */\n      pop\n      pop\n      pop\n      pop\n        /* \"smart_contracts/terminal/Terminal.sol\":6028:7064  function newMultiSigProposal(address[] memory signers_, uint timeout, uint threshold_, address obj_, string memory signature_, bytes memory args_) public onlyRole(ROLE_BOARD) {... */\n      pop\n      pop\n      pop\n      pop\n      pop\n      pop\n      pop\n      jump\t// out\n        /* \"smart_contracts/terminal/Terminal.sol\":7709:7985  function multiSigProposalCancel(uint ref) public onlyIfNotExpired(ref) onlyIfNotCancelled(ref) onlyIfNotExecuted(ref) onlyRole(ROLE_BOARD) {... */\n    tag_64:\n        /* \"smart_contracts/terminal/Terminal.sol\":3894:3908  bool isExpired */\n      0x00\n        /* \"smart_contracts/terminal/Terminal.sol\":3930:3952  multiSigProposals[ref] */\n      dup2\n      dup2\n      mstore\n        /* \"smart_contracts/terminal/Terminal.sol\":3930:3947  multiSigProposals */\n      0x02\n        /* \"smart_contracts/terminal/Terminal.sol\":3930:3952  multiSigProposals[ref] */\n      0x20\n      mstore\n      0x40\n      swap1\n      keccak256\n        /* \"smart_contracts/terminal/Terminal.sol\":3930:3965  multiSigProposals[ref].endTimestamp */\n      0x01\n      add\n      sload\n        /* \"smart_contracts/terminal/Terminal.sol\":7775:7778  ref */\n      dup2\n      swap1\n        /* \"smart_contracts/terminal/Terminal.sol\":3911:3926  block.timestamp */\n      timestamp\n        /* \"smart_contracts/terminal/Terminal.sol\":3911:3965  block.timestamp >= multiSigProposals[ref].endTimestamp */\n      lt\n      dup1\n      iszero\n      swap1\n        /* \"smart_contracts/terminal/Terminal.sol\":3975:4037  require(!isExpired, \"selected multi sig proposal has expired\") */\n      tag_160\n      jumpi\n      mload(0x40)\n      shl(0xe5, 0x461bcd)\n      dup2\n      mstore\n      0x04\n      add\n      tag_128\n      swap1\n      tag_162\n      jump\t// in\n    tag_160:\n        /* \"smart_contracts/terminal/Terminal.sol\":3030:3051  bool hasBeenCancelled */\n      0x00\n        /* \"smart_contracts/terminal/Terminal.sol\":3054:3076  multiSigProposals[ref] */\n      dup4\n      dup2\n      mstore\n        /* \"smart_contracts/terminal/Terminal.sol\":3054:3071  multiSigProposals */\n      0x02\n        /* \"smart_contracts/terminal/Terminal.sol\":3054:3076  multiSigProposals[ref] */\n      0x20\n      mstore\n      0x40\n      swap1\n      keccak256\n        /* \"smart_contracts/terminal/Terminal.sol\":3054:3093  multiSigProposals[ref].hasBeenCancelled */\n      0x03\n      add\n      sload\n        /* \"smart_contracts/terminal/Terminal.sol\":7799:7802  ref */\n      dup4\n      swap1\n        /* \"smart_contracts/terminal/Terminal.sol\":3054:3093  multiSigProposals[ref].hasBeenCancelled */\n      0xff\n      and\n        /* \"smart_contracts/terminal/Terminal.sol\":3111:3128  !hasBeenCancelled */\n      dup1\n      iszero\n        /* \"smart_contracts/terminal/Terminal.sol\":3103:3179  require(!hasBeenCancelled, \"selected multi sig proposal has been cancelled\") */\n      tag_164\n      jumpi\n      mload(0x40)\n      shl(0xe5, 0x461bcd)\n      dup2\n      mstore\n      0x04\n      add\n      tag_128\n      swap1\n      tag_166\n      jump\t// in\n    tag_164:\n        /* \"smart_contracts/terminal/Terminal.sol\":3462:3482  bool hasBeenExecuted */\n      0x00\n        /* \"smart_contracts/terminal/Terminal.sol\":3485:3507  multiSigProposals[ref] */\n      dup6\n      dup2\n      mstore\n        /* \"smart_contracts/terminal/Terminal.sol\":3485:3502  multiSigProposals */\n      0x02\n        /* \"smart_contracts/terminal/Terminal.sol\":3485:3507  multiSigProposals[ref] */\n      0x20\n      mstore\n      0x40\n      swap1\n      keccak256\n        /* \"smart_contracts/terminal/Terminal.sol\":3485:3523  multiSigProposals[ref].hasBeenExecuted */\n      0x03\n      add\n      sload\n        /* \"smart_contracts/terminal/Terminal.sol\":3485:3507  multiSigProposals[ref] */\n      dup6\n      swap1\n        /* \"smart_contracts/terminal/Terminal.sol\":3485:3523  multiSigProposals[ref].hasBeenExecuted */\n      0x0100\n      swap1\n      div\n      0xff\n      and\n        /* \"smart_contracts/terminal/Terminal.sol\":3541:3557  !hasBeenExecuted */\n      dup1\n      iszero\n        /* \"smart_contracts/terminal/Terminal.sol\":3533:3611  require(!hasBeenExecuted, \"selected multi sig proposal has not been executed\") */\n      tag_168\n      jumpi\n      mload(0x40)\n      shl(0xe5, 0x461bcd)\n      dup2\n      mstore\n      0x04\n      add\n      tag_128\n      swap1\n      tag_170\n      jump\t// in\n    tag_168:\n      0x00\n      dup1\n      mload\n      0x20\n      data_093d78d14b29fcbdf4452dcdf4ad32823ef264abdfe05f6919632e60e21c34cd\n      dup4\n      codecopy\n      dup2\n      mload\n      swap2\n      mstore\n        /* \"@openzeppelin/contracts/access/AccessControl.sol\":2631:2647  _checkRole(role) */\n      tag_172\n        /* \"@openzeppelin/contracts/access/AccessControl.sol\":2642:2646  role */\n      dup2\n        /* \"@openzeppelin/contracts/access/AccessControl.sol\":2631:2641  _checkRole */\n      tag_120\n        /* \"@openzeppelin/contracts/access/AccessControl.sol\":2631:2647  _checkRole(role) */\n      jump\t// in\n    tag_172:\n        /* \"smart_contracts/terminal/Terminal.sol\":7858:7880  multiSigProposals[ref] */\n      0x00\n      dup9\n      dup2\n      mstore\n        /* \"smart_contracts/terminal/Terminal.sol\":7858:7875  multiSigProposals */\n      0x02\n        /* \"smart_contracts/terminal/Terminal.sol\":7858:7880  multiSigProposals[ref] */\n      0x20\n      mstore\n      0x40\n      swap1\n      dup2\n      swap1\n      keccak256\n        /* \"smart_contracts/terminal/Terminal.sol\":7858:7897  multiSigProposals[ref].hasBeenCancelled */\n      0x03\n      add\n        /* \"smart_contracts/terminal/Terminal.sol\":7858:7904  multiSigProposals[ref].hasBeenCancelled = true */\n      dup1\n      sload\n      not(0xff)\n      and\n        /* \"smart_contracts/terminal/Terminal.sol\":7900:7904  true */\n      0x01\n        /* \"smart_contracts/terminal/Terminal.sol\":7858:7904  multiSigProposals[ref].hasBeenCancelled = true */\n      or\n      swap1\n      sstore\n        /* \"smart_contracts/terminal/Terminal.sol\":7919:7978  MultiSigProposalCancelled(ref, msg.sender, block.timestamp) */\n      mload\n        /* \"smart_contracts/terminal/Terminal.sol\":7950:7960  msg.sender */\n      caller\n      swap1\n        /* \"smart_contracts/terminal/Terminal.sol\":7919:7978  MultiSigProposalCancelled(ref, msg.sender, block.timestamp) */\n      0x6f8d378fdfefc2f30423fc5f253857bdedecb65f6b917cb1a2216ece60d86ad6\n      swap1\n      tag_174\n      swap1\n        /* \"smart_contracts/terminal/Terminal.sol\":7876:7879  ref */\n      dup12\n      swap1\n        /* \"smart_contracts/terminal/Terminal.sol\":7962:7977  block.timestamp */\n      timestamp\n      swap1\n        /* \"#utility.yul\":11546:11571   */\n      swap2\n      dup3\n      mstore\n        /* \"#utility.yul\":11602:11604   */\n      0x20\n        /* \"#utility.yul\":11587:11605   */\n      dup3\n      add\n        /* \"#utility.yul\":11580:11614   */\n      mstore\n        /* \"#utility.yul\":11534:11536   */\n      0x40\n        /* \"#utility.yul\":11519:11537   */\n      add\n      swap1\n        /* \"#utility.yul\":11372:11620   */\n      jump\n        /* \"smart_contracts/terminal/Terminal.sol\":7919:7978  MultiSigProposalCancelled(ref, msg.sender, block.timestamp) */\n    tag_174:\n      mload(0x40)\n      dup1\n      swap2\n      sub\n      swap1\n      log2\n        /* \"smart_contracts/terminal/Terminal.sol\":3621:3622  _ */\n      pop\n        /* \"smart_contracts/terminal/Terminal.sol\":3452:3629  {... */\n      pop\n        /* \"smart_contracts/terminal/Terminal.sol\":3189:3190  _ */\n      pop\n        /* \"smart_contracts/terminal/Terminal.sol\":3020:3197  {... */\n      pop\n        /* \"smart_contracts/terminal/Terminal.sol\":4047:4048  _ */\n      pop\n        /* \"smart_contracts/terminal/Terminal.sol\":3884:4055  {... */\n      pop\n        /* \"smart_contracts/terminal/Terminal.sol\":7709:7985  function multiSigProposalCancel(uint ref) public onlyIfNotExpired(ref) onlyIfNotCancelled(ref) onlyIfNotExecuted(ref) onlyRole(ROLE_BOARD) {... */\n      pop\n      pop\n      jump\t// out\n        /* \"@openzeppelin/contracts/access/AccessControl.sol\":3021:3166  function hasRole(bytes32 role, address account) public view virtual override returns (bool) {... */\n    tag_71:\n        /* \"@openzeppelin/contracts/access/AccessControl.sol\":3107:3111  bool */\n      0x00\n        /* \"@openzeppelin/contracts/access/AccessControl.sol\":3130:3142  _roles[role] */\n      swap2\n      dup3\n      mstore\n      0x20\n      dup3\n      dup2\n      mstore\n      0x40\n      dup1\n      dup5\n      keccak256\n      sub(shl(0xa0, 0x01), 0x01)\n        /* \"@openzeppelin/contracts/access/AccessControl.sol\":3130:3159  _roles[role].members[account] */\n      swap4\n      swap1\n      swap4\n      and\n      dup5\n      mstore\n      swap2\n      swap1\n      mstore\n      swap1\n      keccak256\n      sload\n      0xff\n      and\n      swap1\n        /* \"@openzeppelin/contracts/access/AccessControl.sol\":3021:3166  function hasRole(bytes32 role, address account) public view virtual override returns (bool) {... */\n      jump\t// out\n        /* \"smart_contracts/terminal/Terminal.sol\":7428:7703  function multiSigProposalUnsign(uint ref) public onlyIfNotExpired(ref) onlyIfNotCancelled(ref) onlyIfDuplicateSignature(ref) onlySignerOf(ref) {... */\n    tag_75:\n        /* \"smart_contracts/terminal/Terminal.sol\":3894:3908  bool isExpired */\n      0x00\n        /* \"smart_contracts/terminal/Terminal.sol\":3930:3952  multiSigProposals[ref] */\n      dup2\n      dup2\n      mstore\n        /* \"smart_contracts/terminal/Terminal.sol\":3930:3947  multiSigProposals */\n      0x02\n        /* \"smart_contracts/terminal/Terminal.sol\":3930:3952  multiSigProposals[ref] */\n      0x20\n      mstore\n      0x40\n      swap1\n      keccak256\n        /* \"smart_contracts/terminal/Terminal.sol\":3930:3965  multiSigProposals[ref].endTimestamp */\n      0x01\n      add\n      sload\n        /* \"smart_contracts/terminal/Terminal.sol\":7494:7497  ref */\n      dup2\n      swap1\n        /* \"smart_contracts/terminal/Terminal.sol\":3911:3926  block.timestamp */\n      timestamp\n        /* \"smart_contracts/terminal/Terminal.sol\":3911:3965  block.timestamp >= multiSigProposals[ref].endTimestamp */\n      lt\n      dup1\n      iszero\n      swap1\n        /* \"smart_contracts/terminal/Terminal.sol\":3975:4037  require(!isExpired, \"selected multi sig proposal has expired\") */\n      tag_179\n      jumpi\n      mload(0x40)\n      shl(0xe5, 0x461bcd)\n      dup2\n      mstore\n      0x04\n      add\n      tag_128\n      swap1\n      tag_162\n      jump\t// in\n    tag_179:\n        /* \"smart_contracts/terminal/Terminal.sol\":3030:3051  bool hasBeenCancelled */\n      0x00\n        /* \"smart_contracts/terminal/Terminal.sol\":3054:3076  multiSigProposals[ref] */\n      dup4\n      dup2\n      mstore\n        /* \"smart_contracts/terminal/Terminal.sol\":3054:3071  multiSigProposals */\n      0x02\n        /* \"smart_contracts/terminal/Terminal.sol\":3054:3076  multiSigProposals[ref] */\n      0x20\n      mstore\n      0x40\n      swap1\n      keccak256\n        /* \"smart_contracts/terminal/Terminal.sol\":3054:3093  multiSigProposals[ref].hasBeenCancelled */\n      0x03\n      add\n      sload\n        /* \"smart_contracts/terminal/Terminal.sol\":7518:7521  ref */\n      dup4\n      swap1\n        /* \"smart_contracts/terminal/Terminal.sol\":3054:3093  multiSigProposals[ref].hasBeenCancelled */\n      0xff\n      and\n        /* \"smart_contracts/terminal/Terminal.sol\":3111:3128  !hasBeenCancelled */\n      dup1\n      iszero\n        /* \"smart_contracts/terminal/Terminal.sol\":3103:3179  require(!hasBeenCancelled, \"selected multi sig proposal has been cancelled\") */\n      tag_182\n      jumpi\n      mload(0x40)\n      shl(0xe5, 0x461bcd)\n      dup2\n      mstore\n      0x04\n      add\n      tag_128\n      swap1\n      tag_166\n      jump\t// in\n    tag_182:\n        /* \"smart_contracts/terminal/Terminal.sol\":4363:4389  bool hasDuplicateSignature */\n      0x00\n        /* \"smart_contracts/terminal/Terminal.sol\":4392:4407  signatures[ref] */\n      dup6\n      dup2\n      mstore\n        /* \"smart_contracts/terminal/Terminal.sol\":4392:4402  signatures */\n      0x04\n        /* \"smart_contracts/terminal/Terminal.sol\":4392:4407  signatures[ref] */\n      0x20\n      mstore\n      0x40\n      dup2\n      keccak256\n        /* \"smart_contracts/terminal/Terminal.sol\":7548:7551  ref */\n      dup7\n      swap2\n        /* \"smart_contracts/terminal/Terminal.sol\":4363:4389  bool hasDuplicateSignature */\n      swap1\n        /* \"smart_contracts/terminal/Terminal.sol\":4392:4428  signatures[ref].contains(msg.sender) */\n      tag_185\n      swap1\n        /* \"smart_contracts/terminal/Terminal.sol\":4417:4427  msg.sender */\n      caller\n        /* \"smart_contracts/terminal/Terminal.sol\":4392:4416  signatures[ref].contains */\n      tag_186\n        /* \"smart_contracts/terminal/Terminal.sol\":4392:4428  signatures[ref].contains(msg.sender) */\n      jump\t// in\n    tag_185:\n        /* \"smart_contracts/terminal/Terminal.sol\":4363:4428  bool hasDuplicateSignature = signatures[ref].contains(msg.sender) */\n      swap1\n      pop\n        /* \"smart_contracts/terminal/Terminal.sol\":4446:4467  hasDuplicateSignature */\n      dup1\n        /* \"smart_contracts/terminal/Terminal.sol\":4438:4525  require(hasDuplicateSignature, \"caller has not signed for selected multi sig proposal\") */\n      tag_187\n      jumpi\n      mload(0x40)\n      shl(0xe5, 0x461bcd)\n      dup2\n      mstore\n        /* \"#utility.yul\":11827:11829   */\n      0x20\n        /* \"smart_contracts/terminal/Terminal.sol\":4438:4525  require(hasDuplicateSignature, \"caller has not signed for selected multi sig proposal\") */\n      0x04\n      dup3\n      add\n        /* \"#utility.yul\":11809:11830   */\n      mstore\n        /* \"#utility.yul\":11866:11868   */\n      0x35\n        /* \"#utility.yul\":11846:11864   */\n      0x24\n      dup3\n      add\n        /* \"#utility.yul\":11839:11869   */\n      mstore\n        /* \"#utility.yul\":11905:11939   */\n      0x63616c6c657220686173206e6f74207369676e656420666f722073656c656374\n        /* \"#utility.yul\":11885:11903   */\n      0x44\n      dup3\n      add\n        /* \"#utility.yul\":11878:11940   */\n      mstore\n      shl(0x5a, 0x1959081b5d5b1d1a481cda59c81c1c9bdc1bdcd85b)\n        /* \"#utility.yul\":11956:11974   */\n      0x64\n      dup3\n      add\n        /* \"#utility.yul\":11949:12000   */\n      mstore\n        /* \"#utility.yul\":12017:12036   */\n      0x84\n      add\n        /* \"smart_contracts/terminal/Terminal.sol\":4438:4525  require(hasDuplicateSignature, \"caller has not signed for selected multi sig proposal\") */\n      tag_128\n        /* \"#utility.yul\":11625:12042   */\n      jump\n        /* \"smart_contracts/terminal/Terminal.sol\":4438:4525  require(hasDuplicateSignature, \"caller has not signed for selected multi sig proposal\") */\n    tag_187:\n        /* \"smart_contracts/terminal/Terminal.sol\":2183:2198  bool isSignerOf */\n      0x00\n        /* \"smart_contracts/terminal/Terminal.sol\":2201:2213  signers[ref] */\n      dup8\n      dup2\n      mstore\n        /* \"smart_contracts/terminal/Terminal.sol\":2201:2208  signers */\n      0x03\n        /* \"smart_contracts/terminal/Terminal.sol\":2201:2213  signers[ref] */\n      0x20\n      mstore\n      0x40\n      dup2\n      keccak256\n        /* \"smart_contracts/terminal/Terminal.sol\":7566:7569  ref */\n      dup9\n      swap2\n        /* \"smart_contracts/terminal/Terminal.sol\":2183:2198  bool isSignerOf */\n      swap1\n        /* \"smart_contracts/terminal/Terminal.sol\":2201:2234  signers[ref].contains(msg.sender) */\n      tag_191\n      swap1\n        /* \"smart_contracts/terminal/Terminal.sol\":2223:2233  msg.sender */\n      caller\n        /* \"smart_contracts/terminal/Terminal.sol\":2201:2222  signers[ref].contains */\n      tag_186\n        /* \"smart_contracts/terminal/Terminal.sol\":2201:2234  signers[ref].contains(msg.sender) */\n      jump\t// in\n    tag_191:\n        /* \"smart_contracts/terminal/Terminal.sol\":2183:2234  bool isSignerOf = signers[ref].contains(msg.sender) */\n      swap1\n      pop\n        /* \"smart_contracts/terminal/Terminal.sol\":2252:2262  isSignerOf */\n      dup1\n        /* \"smart_contracts/terminal/Terminal.sol\":2244:2325  require(isSignerOf, \"caller is not a signer for the selected multi sig proposal\") */\n      tag_192\n      jumpi\n      mload(0x40)\n      shl(0xe5, 0x461bcd)\n      dup2\n      mstore\n      0x04\n      add\n      tag_128\n      swap1\n      tag_194\n      jump\t// in\n    tag_192:\n        /* \"smart_contracts/terminal/Terminal.sol\":7581:7596  signatures[ref] */\n      0x00\n      dup10\n      dup2\n      mstore\n        /* \"smart_contracts/terminal/Terminal.sol\":7581:7591  signatures */\n      0x04\n        /* \"smart_contracts/terminal/Terminal.sol\":7581:7596  signatures[ref] */\n      0x20\n      mstore\n      0x40\n      swap1\n      keccak256\n        /* \"smart_contracts/terminal/Terminal.sol\":7581:7615  signatures[ref].remove(msg.sender) */\n      tag_196\n      swap1\n        /* \"smart_contracts/terminal/Terminal.sol\":7604:7614  msg.sender */\n      caller\n        /* \"smart_contracts/terminal/Terminal.sol\":7581:7603  signatures[ref].remove */\n      tag_197\n        /* \"smart_contracts/terminal/Terminal.sol\":7581:7615  signatures[ref].remove(msg.sender) */\n      jump\t// in\n    tag_196:\n      pop\n        /* \"smart_contracts/terminal/Terminal.sol\":7630:7696  MultiSigProposalSignatureRevoked(ref, msg.sender, block.timestamp) */\n      0x40\n      dup1\n      mload\n        /* \"#utility.yul\":11546:11571   */\n      dup11\n      dup2\n      mstore\n        /* \"smart_contracts/terminal/Terminal.sol\":7680:7695  block.timestamp */\n      timestamp\n        /* \"#utility.yul\":11602:11604   */\n      0x20\n        /* \"#utility.yul\":11587:11605   */\n      dup3\n      add\n        /* \"#utility.yul\":11580:11614   */\n      mstore\n        /* \"smart_contracts/terminal/Terminal.sol\":7668:7678  msg.sender */\n      caller\n      swap2\n        /* \"smart_contracts/terminal/Terminal.sol\":7630:7696  MultiSigProposalSignatureRevoked(ref, msg.sender, block.timestamp) */\n      0x3899555e234af4b23ccd4d5cbb21bb3598913aae9624d1ea8ba81aba3d79c0ae\n      swap2\n        /* \"#utility.yul\":11519:11537   */\n      add\n        /* \"smart_contracts/terminal/Terminal.sol\":7630:7696  MultiSigProposalSignatureRevoked(ref, msg.sender, block.timestamp) */\n      mload(0x40)\n      dup1\n      swap2\n      sub\n      swap1\n      log2\n        /* \"smart_contracts/terminal/Terminal.sol\":2173:2343  {... */\n      pop\n        /* \"smart_contracts/terminal/Terminal.sol\":4535:4536  _ */\n      pop\n        /* \"smart_contracts/terminal/Terminal.sol\":4353:4543  {... */\n      pop\n        /* \"smart_contracts/terminal/Terminal.sol\":3189:3190  _ */\n      pop\n        /* \"smart_contracts/terminal/Terminal.sol\":3020:3197  {... */\n      pop\n        /* \"smart_contracts/terminal/Terminal.sol\":4047:4048  _ */\n      pop\n        /* \"smart_contracts/terminal/Terminal.sol\":3884:4055  {... */\n      pop\n        /* \"smart_contracts/terminal/Terminal.sol\":7428:7703  function multiSigProposalUnsign(uint ref) public onlyIfNotExpired(ref) onlyIfNotCancelled(ref) onlyIfDuplicateSignature(ref) onlySignerOf(ref) {... */\n      pop\n      pop\n      jump\t// out\n        /* \"smart_contracts/terminal/Terminal.sol\":5805:6022  function setObjWhitelist(address contract_, bool newWhitelistState) public onlyRole(ROLE_ADMIN) {... */\n    tag_95:\n        /* \"smart_contracts/terminal/Terminal.sol\":1207:1230  keccak256(\"ROLE_ADMIN\") */\n      0x2172861495e7b85edac73e3cd5fbb42dd675baadf627720e687bcfdaca025096\n        /* \"@openzeppelin/contracts/access/AccessControl.sol\":2631:2647  _checkRole(role) */\n      tag_203\n        /* \"@openzeppelin/contracts/access/AccessControl.sol\":2642:2646  role */\n      dup2\n        /* \"@openzeppelin/contracts/access/AccessControl.sol\":2631:2641  _checkRole */\n      tag_120\n        /* \"@openzeppelin/contracts/access/AccessControl.sol\":2631:2647  _checkRole(role) */\n      jump\t// in\n    tag_203:\n      sub(shl(0xa0, 0x01), 0x01)\n        /* \"smart_contracts/terminal/Terminal.sol\":5911:5934  objWhitelist[contract_] */\n      dup4\n      and\n      0x00\n      dup2\n      dup2\n      mstore\n        /* \"smart_contracts/terminal/Terminal.sol\":5911:5923  objWhitelist */\n      0x05\n        /* \"smart_contracts/terminal/Terminal.sol\":5911:5934  objWhitelist[contract_] */\n      0x20\n      swap1\n      dup2\n      mstore\n      0x40\n      swap2\n      dup3\n      swap1\n      keccak256\n        /* \"smart_contracts/terminal/Terminal.sol\":5911:5954  objWhitelist[contract_] = newWhitelistState */\n      dup1\n      sload\n      not(0xff)\n      and\n      dup7\n      iszero\n      iszero\n      swap1\n      dup2\n      or\n      swap1\n      swap2\n      sstore\n        /* \"smart_contracts/terminal/Terminal.sol\":5969:6015  ObjWhitelistEdit(contract_, newWhitelistState) */\n      swap2\n      mload\n        /* \"#utility.yul\":445:486   */\n      swap2\n      dup3\n      mstore\n        /* \"smart_contracts/terminal/Terminal.sol\":5969:6015  ObjWhitelistEdit(contract_, newWhitelistState) */\n      0x886b99fabe6dc54ace264fa831ea6f7e9b0fee2b24308316f5c78edccd2cbd9a\n      swap2\n        /* \"#utility.yul\":418:436   */\n      add\n        /* \"smart_contracts/terminal/Terminal.sol\":5969:6015  ObjWhitelistEdit(contract_, newWhitelistState) */\n      mload(0x40)\n      dup1\n      swap2\n      sub\n      swap1\n      log2\n        /* \"smart_contracts/terminal/Terminal.sol\":5805:6022  function setObjWhitelist(address contract_, bool newWhitelistState) public onlyRole(ROLE_ADMIN) {... */\n      pop\n      pop\n      pop\n      jump\t// out\n        /* \"@openzeppelin/contracts/access/AccessControl.sol\":5354:5501  function revokeRole(bytes32 role, address account) public virtual override onlyRole(getRoleAdmin(role)) {... */\n    tag_101:\n        /* \"@openzeppelin/contracts/access/AccessControl.sol\":4578:4585  bytes32 */\n      0x00\n        /* \"@openzeppelin/contracts/access/AccessControl.sol\":4604:4616  _roles[role] */\n      dup3\n      dup2\n      mstore\n      0x20\n      dup2\n      swap1\n      mstore\n      0x40\n      swap1\n      keccak256\n        /* \"@openzeppelin/contracts/access/AccessControl.sol\":4604:4626  _roles[role].adminRole */\n      0x01\n      add\n      sload\n        /* \"@openzeppelin/contracts/access/AccessControl.sol\":2631:2647  _checkRole(role) */\n      tag_208\n        /* \"@openzeppelin/contracts/access/AccessControl.sol\":2642:2646  role */\n      dup2\n        /* \"@openzeppelin/contracts/access/AccessControl.sol\":2631:2641  _checkRole */\n      tag_120\n        /* \"@openzeppelin/contracts/access/AccessControl.sol\":2631:2647  _checkRole(role) */\n      jump\t// in\n    tag_208:\n        /* \"@openzeppelin/contracts/access/AccessControl.sol\":5468:5494  _revokeRole(role, account) */\n      tag_122\n        /* \"@openzeppelin/contracts/access/AccessControl.sol\":5480:5484  role */\n      dup4\n        /* \"@openzeppelin/contracts/access/AccessControl.sol\":5486:5493  account */\n      dup4\n        /* \"@openzeppelin/contracts/access/AccessControl.sol\":5468:5479  _revokeRole */\n      tag_131\n        /* \"@openzeppelin/contracts/access/AccessControl.sol\":5468:5494  _revokeRole(role, account) */\n      jump\t// in\n        /* \"smart_contracts/terminal/Terminal.sol\":7070:7422  function multiSigProposalSign(uint ref) public onlyIfNotExpired(ref) onlyIfNotCancelled(ref) onlyIfNotDuplicateSignature(ref) onlySignerOf(ref) {... */\n    tag_104:\n        /* \"smart_contracts/terminal/Terminal.sol\":3894:3908  bool isExpired */\n      0x00\n        /* \"smart_contracts/terminal/Terminal.sol\":3930:3952  multiSigProposals[ref] */\n      dup2\n      dup2\n      mstore\n        /* \"smart_contracts/terminal/Terminal.sol\":3930:3947  multiSigProposals */\n      0x02\n        /* \"smart_contracts/terminal/Terminal.sol\":3930:3952  multiSigProposals[ref] */\n      0x20\n      mstore\n      0x40\n      swap1\n      keccak256\n        /* \"smart_contracts/terminal/Terminal.sol\":3930:3965  multiSigProposals[ref].endTimestamp */\n      0x01\n      add\n      sload\n        /* \"smart_contracts/terminal/Terminal.sol\":7134:7137  ref */\n      dup2\n      swap1\n        /* \"smart_contracts/terminal/Terminal.sol\":3911:3926  block.timestamp */\n      timestamp\n        /* \"smart_contracts/terminal/Terminal.sol\":3911:3965  block.timestamp >= multiSigProposals[ref].endTimestamp */\n      lt\n      dup1\n      iszero\n      swap1\n        /* \"smart_contracts/terminal/Terminal.sol\":3975:4037  require(!isExpired, \"selected multi sig proposal has expired\") */\n      tag_212\n      jumpi\n      mload(0x40)\n      shl(0xe5, 0x461bcd)\n      dup2\n      mstore\n      0x04\n      add\n      tag_128\n      swap1\n      tag_162\n      jump\t// in\n    tag_212:\n        /* \"smart_contracts/terminal/Terminal.sol\":3030:3051  bool hasBeenCancelled */\n      0x00\n        /* \"smart_contracts/terminal/Terminal.sol\":3054:3076  multiSigProposals[ref] */\n      dup4\n      dup2\n      mstore\n        /* \"smart_contracts/terminal/Terminal.sol\":3054:3071  multiSigProposals */\n      0x02\n        /* \"smart_contracts/terminal/Terminal.sol\":3054:3076  multiSigProposals[ref] */\n      0x20\n      mstore\n      0x40\n      swap1\n      keccak256\n        /* \"smart_contracts/terminal/Terminal.sol\":3054:3093  multiSigProposals[ref].hasBeenCancelled */\n      0x03\n      add\n      sload\n        /* \"smart_contracts/terminal/Terminal.sol\":7158:7161  ref */\n      dup4\n      swap1\n        /* \"smart_contracts/terminal/Terminal.sol\":3054:3093  multiSigProposals[ref].hasBeenCancelled */\n      0xff\n      and\n        /* \"smart_contracts/terminal/Terminal.sol\":3111:3128  !hasBeenCancelled */\n      dup1\n      iszero\n        /* \"smart_contracts/terminal/Terminal.sol\":3103:3179  require(!hasBeenCancelled, \"selected multi sig proposal has been cancelled\") */\n      tag_215\n      jumpi\n      mload(0x40)\n      shl(0xe5, 0x461bcd)\n      dup2\n      mstore\n      0x04\n      add\n      tag_128\n      swap1\n      tag_166\n      jump\t// in\n    tag_215:\n        /* \"smart_contracts/terminal/Terminal.sol\":4118:4144  bool hasDuplicateSignature */\n      0x00\n        /* \"smart_contracts/terminal/Terminal.sol\":4147:4162  signatures[ref] */\n      dup6\n      dup2\n      mstore\n        /* \"smart_contracts/terminal/Terminal.sol\":4147:4157  signatures */\n      0x04\n        /* \"smart_contracts/terminal/Terminal.sol\":4147:4162  signatures[ref] */\n      0x20\n      mstore\n      0x40\n      dup2\n      keccak256\n        /* \"smart_contracts/terminal/Terminal.sol\":7191:7194  ref */\n      dup7\n      swap2\n        /* \"smart_contracts/terminal/Terminal.sol\":4118:4144  bool hasDuplicateSignature */\n      swap1\n        /* \"smart_contracts/terminal/Terminal.sol\":4147:4183  signatures[ref].contains(msg.sender) */\n      tag_218\n      swap1\n        /* \"smart_contracts/terminal/Terminal.sol\":4172:4182  msg.sender */\n      caller\n        /* \"smart_contracts/terminal/Terminal.sol\":4147:4171  signatures[ref].contains */\n      tag_186\n        /* \"smart_contracts/terminal/Terminal.sol\":4147:4183  signatures[ref].contains(msg.sender) */\n      jump\t// in\n    tag_218:\n        /* \"smart_contracts/terminal/Terminal.sol\":4118:4183  bool hasDuplicateSignature = signatures[ref].contains(msg.sender) */\n      swap1\n      pop\n        /* \"smart_contracts/terminal/Terminal.sol\":4202:4223  hasDuplicateSignature */\n      dup1\n        /* \"smart_contracts/terminal/Terminal.sol\":4201:4223  !hasDuplicateSignature */\n      iszero\n        /* \"smart_contracts/terminal/Terminal.sol\":4193:4285  require(!hasDuplicateSignature, \"caller has already signed for selected multi sig proposal\") */\n      tag_219\n      jumpi\n      mload(0x40)\n      shl(0xe5, 0x461bcd)\n      dup2\n      mstore\n        /* \"#utility.yul\":12676:12678   */\n      0x20\n        /* \"smart_contracts/terminal/Terminal.sol\":4193:4285  require(!hasDuplicateSignature, \"caller has already signed for selected multi sig proposal\") */\n      0x04\n      dup3\n      add\n        /* \"#utility.yul\":12658:12679   */\n      mstore\n        /* \"#utility.yul\":12715:12717   */\n      0x39\n        /* \"#utility.yul\":12695:12713   */\n      0x24\n      dup3\n      add\n        /* \"#utility.yul\":12688:12718   */\n      mstore\n        /* \"#utility.yul\":12754:12788   */\n      0x63616c6c65722068617320616c7265616479207369676e656420666f72207365\n        /* \"#utility.yul\":12734:12752   */\n      0x44\n      dup3\n      add\n        /* \"#utility.yul\":12727:12789   */\n      mstore\n        /* \"#utility.yul\":12825:12852   */\n      0x6c6563746564206d756c7469207369672070726f706f73616c00000000000000\n        /* \"#utility.yul\":12805:12823   */\n      0x64\n      dup3\n      add\n        /* \"#utility.yul\":12798:12853   */\n      mstore\n        /* \"#utility.yul\":12870:12889   */\n      0x84\n      add\n        /* \"smart_contracts/terminal/Terminal.sol\":4193:4285  require(!hasDuplicateSignature, \"caller has already signed for selected multi sig proposal\") */\n      tag_128\n        /* \"#utility.yul\":12474:12895   */\n      jump\n        /* \"smart_contracts/terminal/Terminal.sol\":4193:4285  require(!hasDuplicateSignature, \"caller has already signed for selected multi sig proposal\") */\n    tag_219:\n        /* \"smart_contracts/terminal/Terminal.sol\":2183:2198  bool isSignerOf */\n      0x00\n        /* \"smart_contracts/terminal/Terminal.sol\":2201:2213  signers[ref] */\n      dup8\n      dup2\n      mstore\n        /* \"smart_contracts/terminal/Terminal.sol\":2201:2208  signers */\n      0x03\n        /* \"smart_contracts/terminal/Terminal.sol\":2201:2213  signers[ref] */\n      0x20\n      mstore\n      0x40\n      dup2\n      keccak256\n        /* \"smart_contracts/terminal/Terminal.sol\":7209:7212  ref */\n      dup9\n      swap2\n        /* \"smart_contracts/terminal/Terminal.sol\":2183:2198  bool isSignerOf */\n      swap1\n        /* \"smart_contracts/terminal/Terminal.sol\":2201:2234  signers[ref].contains(msg.sender) */\n      tag_223\n      swap1\n        /* \"smart_contracts/terminal/Terminal.sol\":2223:2233  msg.sender */\n      caller\n        /* \"smart_contracts/terminal/Terminal.sol\":2201:2222  signers[ref].contains */\n      tag_186\n        /* \"smart_contracts/terminal/Terminal.sol\":2201:2234  signers[ref].contains(msg.sender) */\n      jump\t// in\n    tag_223:\n        /* \"smart_contracts/terminal/Terminal.sol\":2183:2234  bool isSignerOf = signers[ref].contains(msg.sender) */\n      swap1\n      pop\n        /* \"smart_contracts/terminal/Terminal.sol\":2252:2262  isSignerOf */\n      dup1\n        /* \"smart_contracts/terminal/Terminal.sol\":2244:2325  require(isSignerOf, \"caller is not a signer for the selected multi sig proposal\") */\n      tag_224\n      jumpi\n      mload(0x40)\n      shl(0xe5, 0x461bcd)\n      dup2\n      mstore\n      0x04\n      add\n      tag_128\n      swap1\n      tag_194\n      jump\t// in\n    tag_224:\n        /* \"smart_contracts/terminal/Terminal.sol\":7224:7239  signatures[ref] */\n      0x00\n      dup10\n      dup2\n      mstore\n        /* \"smart_contracts/terminal/Terminal.sol\":7224:7234  signatures */\n      0x04\n        /* \"smart_contracts/terminal/Terminal.sol\":7224:7239  signatures[ref] */\n      0x20\n      mstore\n      0x40\n      swap1\n      keccak256\n        /* \"smart_contracts/terminal/Terminal.sol\":7224:7255  signatures[ref].add(msg.sender) */\n      tag_227\n      swap1\n        /* \"smart_contracts/terminal/Terminal.sol\":7244:7254  msg.sender */\n      caller\n        /* \"smart_contracts/terminal/Terminal.sol\":7224:7243  signatures[ref].add */\n      tag_155\n        /* \"smart_contracts/terminal/Terminal.sol\":7224:7255  signatures[ref].add(msg.sender) */\n      jump\t// in\n    tag_227:\n      pop\n        /* \"smart_contracts/terminal/Terminal.sol\":7270:7326  MultiSigProposalSigned(ref, msg.sender, block.timestamp) */\n      0x40\n      dup1\n      mload\n        /* \"#utility.yul\":11546:11571   */\n      dup11\n      dup2\n      mstore\n        /* \"smart_contracts/terminal/Terminal.sol\":7310:7325  block.timestamp */\n      timestamp\n        /* \"#utility.yul\":11602:11604   */\n      0x20\n        /* \"#utility.yul\":11587:11605   */\n      dup3\n      add\n        /* \"#utility.yul\":11580:11614   */\n      mstore\n        /* \"smart_contracts/terminal/Terminal.sol\":7298:7308  msg.sender */\n      caller\n      swap2\n        /* \"smart_contracts/terminal/Terminal.sol\":7270:7326  MultiSigProposalSigned(ref, msg.sender, block.timestamp) */\n      0x65c6a5495c336c3b8aff2bea37f4d8440fdb0a2c30c23c1a0db4a659856c0cfc\n      swap2\n        /* \"#utility.yul\":11519:11537   */\n      add\n        /* \"smart_contracts/terminal/Terminal.sol\":7270:7326  MultiSigProposalSigned(ref, msg.sender, block.timestamp) */\n      mload(0x40)\n      dup1\n      swap2\n      sub\n      swap1\n      log2\n        /* \"smart_contracts/terminal/Terminal.sol\":7337:7354  uint currentQuota */\n      0x00\n        /* \"smart_contracts/terminal/Terminal.sol\":7389:7404  signatures[ref] */\n      dup10\n      dup2\n      mstore\n        /* \"smart_contracts/terminal/Terminal.sol\":7389:7399  signatures */\n      0x04\n        /* \"smart_contracts/terminal/Terminal.sol\":7389:7404  signatures[ref] */\n      0x20\n      mstore\n      0x40\n      dup2\n      keccak256\n        /* \"smart_contracts/terminal/Terminal.sol\":7389:7413  signatures[ref].length() */\n      tag_229\n      swap1\n        /* \"smart_contracts/terminal/Terminal.sol\":7389:7411  signatures[ref].length */\n      tag_230\n        /* \"smart_contracts/terminal/Terminal.sol\":7389:7413  signatures[ref].length() */\n      jump\t// in\n    tag_229:\n        /* \"smart_contracts/terminal/Terminal.sol\":7358:7370  signers[ref] */\n      0x00\n      dup12\n      dup2\n      mstore\n        /* \"smart_contracts/terminal/Terminal.sol\":7358:7365  signers */\n      0x03\n        /* \"smart_contracts/terminal/Terminal.sol\":7358:7370  signers[ref] */\n      0x20\n      mstore\n      0x40\n      swap1\n      keccak256\n        /* \"smart_contracts/terminal/Terminal.sol\":7358:7379  signers[ref].length() */\n      tag_231\n      swap1\n        /* \"smart_contracts/terminal/Terminal.sol\":7358:7377  signers[ref].length */\n      tag_230\n        /* \"smart_contracts/terminal/Terminal.sol\":7358:7379  signers[ref].length() */\n      jump\t// in\n    tag_231:\n        /* \"smart_contracts/terminal/Terminal.sol\":7358:7385  signers[ref].length() * 100 */\n      tag_232\n      swap1\n        /* \"smart_contracts/terminal/Terminal.sol\":7382:7385  100 */\n      0x64\n        /* \"smart_contracts/terminal/Terminal.sol\":7358:7385  signers[ref].length() * 100 */\n      tag_233\n      jump\t// in\n    tag_232:\n        /* \"smart_contracts/terminal/Terminal.sol\":7357:7413  (signers[ref].length() * 100) / signatures[ref].length() */\n      tag_234\n      swap2\n      swap1\n      tag_235\n      jump\t// in\n    tag_234:\n      pop\n      pop\n      pop\n      pop\n      pop\n      pop\n      pop\n      pop\n      pop\n      pop\n      pop\n        /* \"smart_contracts/terminal/Terminal.sol\":7070:7422  function multiSigProposalSign(uint ref) public onlyIfNotExpired(ref) onlyIfNotCancelled(ref) onlyIfNotDuplicateSignature(ref) onlySignerOf(ref) {... */\n      jump\t// out\n        /* \"smart_contracts/terminal/Terminal.sol\":8207:8640  function multiSigProposalExecute(uint ref) public onlyIfNotExpired(ref) onlyIfNotCancelled(ref) onlyIfPassed(ref) onlyIfNotExecuted(ref) onlyRole(ROLE_BOARD) returns (bool) {... */\n    tag_107:\n        /* \"smart_contracts/terminal/Terminal.sol\":8374:8378  bool */\n      0x00\n        /* \"smart_contracts/terminal/Terminal.sol\":3930:3952  multiSigProposals[ref] */\n      dup2\n      dup2\n      mstore\n        /* \"smart_contracts/terminal/Terminal.sol\":3930:3947  multiSigProposals */\n      0x02\n        /* \"smart_contracts/terminal/Terminal.sol\":3930:3952  multiSigProposals[ref] */\n      0x20\n      mstore\n      0x40\n      dup2\n      keccak256\n        /* \"smart_contracts/terminal/Terminal.sol\":3930:3965  multiSigProposals[ref].endTimestamp */\n      0x01\n      add\n      sload\n        /* \"smart_contracts/terminal/Terminal.sol\":8274:8277  ref */\n      dup3\n      swap1\n        /* \"smart_contracts/terminal/Terminal.sol\":3911:3926  block.timestamp */\n      timestamp\n        /* \"smart_contracts/terminal/Terminal.sol\":3911:3965  block.timestamp >= multiSigProposals[ref].endTimestamp */\n      lt\n      dup1\n      iszero\n      swap1\n        /* \"smart_contracts/terminal/Terminal.sol\":3975:4037  require(!isExpired, \"selected multi sig proposal has expired\") */\n      tag_237\n      jumpi\n      mload(0x40)\n      shl(0xe5, 0x461bcd)\n      dup2\n      mstore\n      0x04\n      add\n      tag_128\n      swap1\n      tag_162\n      jump\t// in\n    tag_237:\n        /* \"smart_contracts/terminal/Terminal.sol\":3030:3051  bool hasBeenCancelled */\n      0x00\n        /* \"smart_contracts/terminal/Terminal.sol\":3054:3076  multiSigProposals[ref] */\n      dup5\n      dup2\n      mstore\n        /* \"smart_contracts/terminal/Terminal.sol\":3054:3071  multiSigProposals */\n      0x02\n        /* \"smart_contracts/terminal/Terminal.sol\":3054:3076  multiSigProposals[ref] */\n      0x20\n      mstore\n      0x40\n      swap1\n      keccak256\n        /* \"smart_contracts/terminal/Terminal.sol\":3054:3093  multiSigProposals[ref].hasBeenCancelled */\n      0x03\n      add\n      sload\n        /* \"smart_contracts/terminal/Terminal.sol\":8298:8301  ref */\n      dup5\n      swap1\n        /* \"smart_contracts/terminal/Terminal.sol\":3054:3093  multiSigProposals[ref].hasBeenCancelled */\n      0xff\n      and\n        /* \"smart_contracts/terminal/Terminal.sol\":3111:3128  !hasBeenCancelled */\n      dup1\n      iszero\n        /* \"smart_contracts/terminal/Terminal.sol\":3103:3179  require(!hasBeenCancelled, \"selected multi sig proposal has been cancelled\") */\n      tag_240\n      jumpi\n      mload(0x40)\n      shl(0xe5, 0x461bcd)\n      dup2\n      mstore\n      0x04\n      add\n      tag_128\n      swap1\n      tag_166\n      jump\t// in\n    tag_240:\n        /* \"smart_contracts/terminal/Terminal.sol\":2391:2409  bool hasBeenPassed */\n      0x00\n        /* \"smart_contracts/terminal/Terminal.sol\":2412:2434  multiSigProposals[ref] */\n      dup7\n      dup2\n      mstore\n        /* \"smart_contracts/terminal/Terminal.sol\":2412:2429  multiSigProposals */\n      0x02\n        /* \"smart_contracts/terminal/Terminal.sol\":2412:2434  multiSigProposals[ref] */\n      0x20\n      mstore\n      0x40\n      swap1\n      keccak256\n        /* \"smart_contracts/terminal/Terminal.sol\":2412:2448  multiSigProposals[ref].hasBeenPassed */\n      0x03\n      add\n      sload\n        /* \"smart_contracts/terminal/Terminal.sol\":2412:2434  multiSigProposals[ref] */\n      dup7\n      swap1\n        /* \"smart_contracts/terminal/Terminal.sol\":2412:2448  multiSigProposals[ref].hasBeenPassed */\n      0x010000\n      swap1\n      div\n      0xff\n      and\n      dup1\n        /* \"smart_contracts/terminal/Terminal.sol\":2458:2531  require(hasBeenPassed, \"selected multi sig proposal has not been passed\") */\n      tag_243\n      jumpi\n      mload(0x40)\n      shl(0xe5, 0x461bcd)\n      dup2\n      mstore\n        /* \"#utility.yul\":13497:13499   */\n      0x20\n        /* \"smart_contracts/terminal/Terminal.sol\":2458:2531  require(hasBeenPassed, \"selected multi sig proposal has not been passed\") */\n      0x04\n      dup3\n      add\n        /* \"#utility.yul\":13479:13500   */\n      mstore\n        /* \"#utility.yul\":13536:13538   */\n      0x2f\n        /* \"#utility.yul\":13516:13534   */\n      0x24\n      dup3\n      add\n        /* \"#utility.yul\":13509:13539   */\n      mstore\n      0x00\n      dup1\n      mload\n      0x20\n      data_798a66e032111cde571fe782cd2f52b14c1d0b31e9afe13a1bd8d0597713d838\n      dup4\n      codecopy\n      dup2\n      mload\n      swap2\n      mstore\n        /* \"#utility.yul\":13555:13573   */\n      0x44\n      dup3\n      add\n        /* \"#utility.yul\":13548:13610   */\n      mstore\n      shl(0x8a, 0x1b9bdd081899595b881c185cdcd959)\n        /* \"#utility.yul\":13626:13644   */\n      0x64\n      dup3\n      add\n        /* \"#utility.yul\":13619:13664   */\n      mstore\n        /* \"#utility.yul\":13681:13700   */\n      0x84\n      add\n        /* \"smart_contracts/terminal/Terminal.sol\":2458:2531  require(hasBeenPassed, \"selected multi sig proposal has not been passed\") */\n      tag_128\n        /* \"#utility.yul\":13295:13706   */\n      jump\n        /* \"smart_contracts/terminal/Terminal.sol\":2458:2531  require(hasBeenPassed, \"selected multi sig proposal has not been passed\") */\n    tag_243:\n        /* \"smart_contracts/terminal/Terminal.sol\":3462:3482  bool hasBeenExecuted */\n      0x00\n        /* \"smart_contracts/terminal/Terminal.sol\":3485:3507  multiSigProposals[ref] */\n      dup9\n      dup2\n      mstore\n        /* \"smart_contracts/terminal/Terminal.sol\":3485:3502  multiSigProposals */\n      0x02\n        /* \"smart_contracts/terminal/Terminal.sol\":3485:3507  multiSigProposals[ref] */\n      0x20\n      mstore\n      0x40\n      swap1\n      keccak256\n        /* \"smart_contracts/terminal/Terminal.sol\":3485:3523  multiSigProposals[ref].hasBeenExecuted */\n      0x03\n      add\n      sload\n        /* \"smart_contracts/terminal/Terminal.sol\":3485:3507  multiSigProposals[ref] */\n      dup9\n      swap1\n        /* \"smart_contracts/terminal/Terminal.sol\":3485:3523  multiSigProposals[ref].hasBeenExecuted */\n      0x0100\n      swap1\n      div\n      0xff\n      and\n        /* \"smart_contracts/terminal/Terminal.sol\":3541:3557  !hasBeenExecuted */\n      dup1\n      iszero\n        /* \"smart_contracts/terminal/Terminal.sol\":3533:3611  require(!hasBeenExecuted, \"selected multi sig proposal has not been executed\") */\n      tag_247\n      jumpi\n      mload(0x40)\n      shl(0xe5, 0x461bcd)\n      dup2\n      mstore\n      0x04\n      add\n      tag_128\n      swap1\n      tag_170\n      jump\t// in\n    tag_247:\n      0x00\n      dup1\n      mload\n      0x20\n      data_093d78d14b29fcbdf4452dcdf4ad32823ef264abdfe05f6919632e60e21c34cd\n      dup4\n      codecopy\n      dup2\n      mload\n      swap2\n      mstore\n        /* \"@openzeppelin/contracts/access/AccessControl.sol\":2631:2647  _checkRole(role) */\n      tag_250\n        /* \"@openzeppelin/contracts/access/AccessControl.sol\":2642:2646  role */\n      dup2\n        /* \"@openzeppelin/contracts/access/AccessControl.sol\":2631:2641  _checkRole */\n      tag_120\n        /* \"@openzeppelin/contracts/access/AccessControl.sol\":2631:2647  _checkRole(role) */\n      jump\t// in\n    tag_250:\n        /* \"smart_contracts/terminal/Terminal.sol\":8390:8407  address contract_ */\n      0x00\n        /* \"smart_contracts/terminal/Terminal.sol\":8410:8432  multiSigProposals[ref] */\n      dup12\n      dup2\n      mstore\n        /* \"smart_contracts/terminal/Terminal.sol\":8410:8427  multiSigProposals */\n      0x02\n        /* \"smart_contracts/terminal/Terminal.sol\":8410:8432  multiSigProposals[ref] */\n      0x20\n      mstore\n      0x40\n      dup2\n      keccak256\n        /* \"smart_contracts/terminal/Terminal.sol\":8410:8436  multiSigProposals[ref].obj */\n      0x03\n      dup2\n      add\n      sload\n        /* \"smart_contracts/terminal/Terminal.sol\":8472:8504  multiSigProposals[ref].signature */\n      0x04\n      swap1\n      swap2\n      add\n        /* \"smart_contracts/terminal/Terminal.sol\":8446:8504  string memory signature = multiSigProposals[ref].signature */\n      dup1\n      sload\n        /* \"smart_contracts/terminal/Terminal.sol\":8410:8436  multiSigProposals[ref].obj */\n      0x01000000\n      swap1\n      swap3\n      div\n      sub(shl(0xa0, 0x01), 0x01)\n      and\n      swap3\n        /* \"smart_contracts/terminal/Terminal.sol\":8390:8407  address contract_ */\n      swap2\n        /* \"smart_contracts/terminal/Terminal.sol\":8446:8504  string memory signature = multiSigProposals[ref].signature */\n      tag_252\n      swap1\n      tag_253\n      jump\t// in\n    tag_252:\n      dup1\n      0x1f\n      add\n      0x20\n      dup1\n      swap2\n      div\n      mul\n      0x20\n      add\n      mload(0x40)\n      swap1\n      dup2\n      add\n      0x40\n      mstore\n      dup1\n      swap3\n      swap2\n      swap1\n      dup2\n      dup2\n      mstore\n      0x20\n      add\n      dup3\n      dup1\n      sload\n      tag_254\n      swap1\n      tag_253\n      jump\t// in\n    tag_254:\n      dup1\n      iszero\n      tag_255\n      jumpi\n      dup1\n      0x1f\n      lt\n      tag_256\n      jumpi\n      0x0100\n      dup1\n      dup4\n      sload\n      div\n      mul\n      dup4\n      mstore\n      swap2\n      0x20\n      add\n      swap2\n      jump(tag_255)\n    tag_256:\n      dup3\n      add\n      swap2\n      swap1\n      0x00\n      mstore\n      keccak256(0x00, 0x20)\n      swap1\n    tag_257:\n      dup2\n      sload\n      dup2\n      mstore\n      swap1\n      0x01\n      add\n      swap1\n      0x20\n      add\n      dup1\n      dup4\n      gt\n      tag_257\n      jumpi\n      dup3\n      swap1\n      sub\n      0x1f\n      and\n      dup3\n      add\n      swap2\n    tag_255:\n      pop\n      pop\n      pop\n      pop\n      pop\n      swap1\n      pop\n        /* \"smart_contracts/terminal/Terminal.sol\":8514:8531  bytes memory args */\n      0x00\n        /* \"smart_contracts/terminal/Terminal.sol\":8534:8551  multiSigProposals */\n      0x02\n        /* \"smart_contracts/terminal/Terminal.sol\":8534:8556  multiSigProposals[ref] */\n      0x00\n        /* \"smart_contracts/terminal/Terminal.sol\":8552:8555  ref */\n      dup16\n        /* \"smart_contracts/terminal/Terminal.sol\":8534:8556  multiSigProposals[ref] */\n      dup2\n      mstore\n      0x20\n      add\n      swap1\n      dup2\n      mstore\n      0x20\n      add\n      0x00\n      keccak256\n        /* \"smart_contracts/terminal/Terminal.sol\":8534:8561  multiSigProposals[ref].args */\n      0x05\n      add\n        /* \"smart_contracts/terminal/Terminal.sol\":8514:8561  bytes memory args = multiSigProposals[ref].args */\n      dup1\n      sload\n      tag_258\n      swap1\n      tag_253\n      jump\t// in\n    tag_258:\n      dup1\n      0x1f\n      add\n      0x20\n      dup1\n      swap2\n      div\n      mul\n      0x20\n      add\n      mload(0x40)\n      swap1\n      dup2\n      add\n      0x40\n      mstore\n      dup1\n      swap3\n      swap2\n      swap1\n      dup2\n      dup2\n      mstore\n      0x20\n      add\n      dup3\n      dup1\n      sload\n      tag_259\n      swap1\n      tag_253\n      jump\t// in\n    tag_259:\n      dup1\n      iszero\n      tag_260\n      jumpi\n      dup1\n      0x1f\n      lt\n      tag_261\n      jumpi\n      0x0100\n      dup1\n      dup4\n      sload\n      div\n      mul\n      dup4\n      mstore\n      swap2\n      0x20\n      add\n      swap2\n      jump(tag_260)\n    tag_261:\n      dup3\n      add\n      swap2\n      swap1\n      0x00\n      mstore\n      keccak256(0x00, 0x20)\n      swap1\n    tag_262:\n      dup2\n      sload\n      dup2\n      mstore\n      swap1\n      0x01\n      add\n      swap1\n      0x20\n      add\n      dup1\n      dup4\n      gt\n      tag_262\n      jumpi\n      dup3\n      swap1\n      sub\n      0x1f\n      and\n      dup3\n      add\n      swap2\n    tag_260:\n      pop\n      pop\n      pop\n      pop\n      pop\n      swap1\n      pop\n        /* \"smart_contracts/terminal/Terminal.sol\":8572:8612  _safeConnect(contract_, signature, args) */\n      tag_263\n        /* \"smart_contracts/terminal/Terminal.sol\":8585:8594  contract_ */\n      dup4\n        /* \"smart_contracts/terminal/Terminal.sol\":8596:8605  signature */\n      dup4\n        /* \"smart_contracts/terminal/Terminal.sol\":8607:8611  args */\n      dup4\n        /* \"smart_contracts/terminal/Terminal.sol\":8572:8584  _safeConnect */\n      tag_264\n        /* \"smart_contracts/terminal/Terminal.sol\":8572:8612  _safeConnect(contract_, signature, args) */\n      jump\t// in\n    tag_263:\n      pop\n        /* \"smart_contracts/terminal/Terminal.sol\":8629:8633  true */\n      0x01\n      swap15\n        /* \"smart_contracts/terminal/Terminal.sol\":8207:8640  function multiSigProposalExecute(uint ref) public onlyIfNotExpired(ref) onlyIfNotCancelled(ref) onlyIfPassed(ref) onlyIfNotExecuted(ref) onlyRole(ROLE_BOARD) returns (bool) {... */\n      swap14\n      pop\n      pop\n      pop\n      pop\n      pop\n      pop\n      pop\n      pop\n      pop\n      pop\n      pop\n      pop\n      pop\n      pop\n      jump\t// out\n        /* \"@openzeppelin/contracts/access/AccessControl.sol\":3460:3563  function _checkRole(bytes32 role) internal view virtual {... */\n    tag_120:\n        /* \"@openzeppelin/contracts/access/AccessControl.sol\":3526:3556  _checkRole(role, _msgSender()) */\n      tag_267\n        /* \"@openzeppelin/contracts/access/AccessControl.sol\":3537:3541  role */\n      dup2\n        /* \"@openzeppelin/contracts/utils/Context.sol\":719:729  msg.sender */\n      caller\n        /* \"@openzeppelin/contracts/access/AccessControl.sol\":3526:3536  _checkRole */\n      tag_269\n        /* \"@openzeppelin/contracts/access/AccessControl.sol\":3526:3556  _checkRole(role, _msgSender()) */\n      jump\t// in\n    tag_267:\n        /* \"@openzeppelin/contracts/access/AccessControl.sol\":3460:3563  function _checkRole(bytes32 role) internal view virtual {... */\n      pop\n      jump\t// out\n        /* \"@openzeppelin/contracts/access/AccessControl.sol\":7587:7820  function _grantRole(bytes32 role, address account) internal virtual {... */\n    tag_123:\n        /* \"@openzeppelin/contracts/access/AccessControl.sol\":7670:7692  hasRole(role, account) */\n      tag_271\n        /* \"@openzeppelin/contracts/access/AccessControl.sol\":7678:7682  role */\n      dup3\n        /* \"@openzeppelin/contracts/access/AccessControl.sol\":7684:7691  account */\n      dup3\n        /* \"@openzeppelin/contracts/access/AccessControl.sol\":7670:7677  hasRole */\n      tag_71\n        /* \"@openzeppelin/contracts/access/AccessControl.sol\":7670:7692  hasRole(role, account) */\n      jump\t// in\n    tag_271:\n        /* \"@openzeppelin/contracts/access/AccessControl.sol\":7665:7814  if (!hasRole(role, account)) {... */\n      tag_130\n      jumpi\n        /* \"@openzeppelin/contracts/access/AccessControl.sol\":7708:7714  _roles */\n      0x00\n        /* \"@openzeppelin/contracts/access/AccessControl.sol\":7708:7720  _roles[role] */\n      dup3\n      dup2\n      mstore\n      0x20\n      dup2\n      dup2\n      mstore\n      0x40\n      dup1\n      dup4\n      keccak256\n      sub(shl(0xa0, 0x01), 0x01)\n        /* \"@openzeppelin/contracts/access/AccessControl.sol\":7708:7737  _roles[role].members[account] */\n      dup6\n      and\n      dup5\n      mstore\n      swap1\n      swap2\n      mstore\n      swap1\n      keccak256\n        /* \"@openzeppelin/contracts/access/AccessControl.sol\":7708:7744  _roles[role].members[account] = true */\n      dup1\n      sload\n      not(0xff)\n      and\n        /* \"@openzeppelin/contracts/access/AccessControl.sol\":7740:7744  true */\n      0x01\n        /* \"@openzeppelin/contracts/access/AccessControl.sol\":7708:7744  _roles[role].members[account] = true */\n      or\n      swap1\n      sstore\n        /* \"@openzeppelin/contracts/access/AccessControl.sol\":7790:7802  _msgSender() */\n      tag_273\n        /* \"@openzeppelin/contracts/utils/Context.sol\":719:729  msg.sender */\n      caller\n      swap1\n        /* \"@openzeppelin/contracts/utils/Context.sol\":640:736  function _msgSender() internal view virtual returns (address) {... */\n      jump\n        /* \"@openzeppelin/contracts/access/AccessControl.sol\":7790:7802  _msgSender() */\n    tag_273:\n      sub(shl(0xa0, 0x01), 0x01)\n        /* \"@openzeppelin/contracts/access/AccessControl.sol\":7763:7803  RoleGranted(role, account, _msgSender()) */\n      and\n        /* \"@openzeppelin/contracts/access/AccessControl.sol\":7781:7788  account */\n      dup2\n      sub(shl(0xa0, 0x01), 0x01)\n        /* \"@openzeppelin/contracts/access/AccessControl.sol\":7763:7803  RoleGranted(role, account, _msgSender()) */\n      and\n        /* \"@openzeppelin/contracts/access/AccessControl.sol\":7775:7779  role */\n      dup4\n        /* \"@openzeppelin/contracts/access/AccessControl.sol\":7763:7803  RoleGranted(role, account, _msgSender()) */\n      0x2f8788117e7eff1d82e926ec794901d17c78024a50270940304540a733656f0d\n      mload(0x40)\n      mload(0x40)\n      dup1\n      swap2\n      sub\n      swap1\n      log4\n        /* \"@openzeppelin/contracts/access/AccessControl.sol\":7587:7820  function _grantRole(bytes32 role, address account) internal virtual {... */\n      pop\n      pop\n      jump\t// out\n        /* \"@openzeppelin/contracts/access/AccessControl.sol\":7991:8225  function _revokeRole(bytes32 role, address account) internal virtual {... */\n    tag_131:\n        /* \"@openzeppelin/contracts/access/AccessControl.sol\":8074:8096  hasRole(role, account) */\n      tag_276\n        /* \"@openzeppelin/contracts/access/AccessControl.sol\":8082:8086  role */\n      dup3\n        /* \"@openzeppelin/contracts/access/AccessControl.sol\":8088:8095  account */\n      dup3\n        /* \"@openzeppelin/contracts/access/AccessControl.sol\":8074:8081  hasRole */\n      tag_71\n        /* \"@openzeppelin/contracts/access/AccessControl.sol\":8074:8096  hasRole(role, account) */\n      jump\t// in\n    tag_276:\n        /* \"@openzeppelin/contracts/access/AccessControl.sol\":8070:8219  if (hasRole(role, account)) {... */\n      iszero\n      tag_130\n      jumpi\n        /* \"@openzeppelin/contracts/access/AccessControl.sol\":8144:8149  false */\n      0x00\n        /* \"@openzeppelin/contracts/access/AccessControl.sol\":8112:8124  _roles[role] */\n      dup3\n      dup2\n      mstore\n      0x20\n      dup2\n      dup2\n      mstore\n      0x40\n      dup1\n      dup4\n      keccak256\n      sub(shl(0xa0, 0x01), 0x01)\n        /* \"@openzeppelin/contracts/access/AccessControl.sol\":8112:8141  _roles[role].members[account] */\n      dup6\n      and\n      dup1\n      dup6\n      mstore\n      swap3\n      mstore\n      dup1\n      dup4\n      keccak256\n        /* \"@openzeppelin/contracts/access/AccessControl.sol\":8112:8149  _roles[role].members[account] = false */\n      dup1\n      sload\n      not(0xff)\n      and\n      swap1\n      sstore\n        /* \"@openzeppelin/contracts/access/AccessControl.sol\":8168:8208  RoleRevoked(role, account, _msgSender()) */\n      mload\n        /* \"@openzeppelin/contracts/utils/Context.sol\":719:729  msg.sender */\n      caller\n      swap3\n        /* \"@openzeppelin/contracts/access/AccessControl.sol\":8112:8124  _roles[role] */\n      dup6\n      swap2\n        /* \"@openzeppelin/contracts/access/AccessControl.sol\":8168:8208  RoleRevoked(role, account, _msgSender()) */\n      0xf6391f5c32d9c69d2a47ea670b442974b53935d1edc7fd64eb21e047a839171b\n      swap2\n        /* \"@openzeppelin/contracts/access/AccessControl.sol\":8144:8149  false */\n      swap1\n        /* \"@openzeppelin/contracts/access/AccessControl.sol\":8168:8208  RoleRevoked(role, account, _msgSender()) */\n      log4\n        /* \"@openzeppelin/contracts/access/AccessControl.sol\":7991:8225  function _revokeRole(bytes32 role, address account) internal virtual {... */\n      pop\n      pop\n      jump\t// out\n        /* \"https://github.com/OpenZeppelin/openzeppelin-contracts/blob/master/contracts/utils/structs/EnumerableSet.sol\":8306:8456  function add(AddressSet storage set, address value) internal returns (bool) {... */\n    tag_155:\n        /* \"https://github.com/OpenZeppelin/openzeppelin-contracts/blob/master/contracts/utils/structs/EnumerableSet.sol\":8376:8380  bool */\n      0x00\n        /* \"https://github.com/OpenZeppelin/openzeppelin-contracts/blob/master/contracts/utils/structs/EnumerableSet.sol\":8399:8449  _add(set._inner, bytes32(uint256(uint160(value)))) */\n      tag_280\n        /* \"https://github.com/OpenZeppelin/openzeppelin-contracts/blob/master/contracts/utils/structs/EnumerableSet.sol\":8404:8407  set */\n      dup4\n      sub(shl(0xa0, 0x01), 0x01)\n        /* \"https://github.com/OpenZeppelin/openzeppelin-contracts/blob/master/contracts/utils/structs/EnumerableSet.sol\":8424:8447  uint256(uint160(value)) */\n      dup5\n      and\n        /* \"https://github.com/OpenZeppelin/openzeppelin-contracts/blob/master/contracts/utils/structs/EnumerableSet.sol\":8399:8403  _add */\n      tag_281\n        /* \"https://github.com/OpenZeppelin/openzeppelin-contracts/blob/master/contracts/utils/structs/EnumerableSet.sol\":8399:8449  _add(set._inner, bytes32(uint256(uint160(value)))) */\n      jump\t// in\n    tag_280:\n        /* \"https://github.com/OpenZeppelin/openzeppelin-contracts/blob/master/contracts/utils/structs/EnumerableSet.sol\":8392:8449  return _add(set._inner, bytes32(uint256(uint160(value)))) */\n      swap4\n        /* \"https://github.com/OpenZeppelin/openzeppelin-contracts/blob/master/contracts/utils/structs/EnumerableSet.sol\":8306:8456  function add(AddressSet storage set, address value) internal returns (bool) {... */\n      swap3\n      pop\n      pop\n      pop\n      jump\t// out\n        /* \"https://github.com/OpenZeppelin/openzeppelin-contracts/blob/master/contracts/utils/structs/EnumerableSet.sol\":8861:9026  function contains(AddressSet storage set, address value) internal view returns (bool) {... */\n    tag_186:\n      sub(shl(0xa0, 0x01), 0x01)\n        /* \"https://github.com/OpenZeppelin/openzeppelin-contracts/blob/master/contracts/utils/structs/EnumerableSet.sol\":8994:9017  uint256(uint160(value)) */\n      dup2\n      and\n        /* \"https://github.com/OpenZeppelin/openzeppelin-contracts/blob/master/contracts/utils/structs/EnumerableSet.sol\":8941:8945  bool */\n      0x00\n        /* \"https://github.com/OpenZeppelin/openzeppelin-contracts/blob/master/contracts/utils/structs/EnumerableSet.sol\":4352:4371  set._indexes[value] */\n      swap1\n      dup2\n      mstore\n        /* \"https://github.com/OpenZeppelin/openzeppelin-contracts/blob/master/contracts/utils/structs/EnumerableSet.sol\":4352:4364  set._indexes */\n      0x01\n      dup4\n      add\n        /* \"https://github.com/OpenZeppelin/openzeppelin-contracts/blob/master/contracts/utils/structs/EnumerableSet.sol\":4352:4371  set._indexes[value] */\n      0x20\n      mstore\n      0x40\n      dup2\n      keccak256\n      sload\n        /* \"https://github.com/OpenZeppelin/openzeppelin-contracts/blob/master/contracts/utils/structs/EnumerableSet.sol\":4352:4376  set._indexes[value] != 0 */\n      iszero\n      iszero\n        /* \"https://github.com/OpenZeppelin/openzeppelin-contracts/blob/master/contracts/utils/structs/EnumerableSet.sol\":8964:9019  _contains(set._inner, bytes32(uint256(uint160(value)))) */\n      tag_280\n        /* \"https://github.com/OpenZeppelin/openzeppelin-contracts/blob/master/contracts/utils/structs/EnumerableSet.sol\":4256:4383  function _contains(Set storage set, bytes32 value) private view returns (bool) {... */\n      jump\n        /* \"https://github.com/OpenZeppelin/openzeppelin-contracts/blob/master/contracts/utils/structs/EnumerableSet.sol\":8624:8780  function remove(AddressSet storage set, address value) internal returns (bool) {... */\n    tag_197:\n        /* \"https://github.com/OpenZeppelin/openzeppelin-contracts/blob/master/contracts/utils/structs/EnumerableSet.sol\":8697:8701  bool */\n      0x00\n        /* \"https://github.com/OpenZeppelin/openzeppelin-contracts/blob/master/contracts/utils/structs/EnumerableSet.sol\":8720:8773  _remove(set._inner, bytes32(uint256(uint160(value)))) */\n      tag_280\n        /* \"https://github.com/OpenZeppelin/openzeppelin-contracts/blob/master/contracts/utils/structs/EnumerableSet.sol\":8728:8731  set */\n      dup4\n      sub(shl(0xa0, 0x01), 0x01)\n        /* \"https://github.com/OpenZeppelin/openzeppelin-contracts/blob/master/contracts/utils/structs/EnumerableSet.sol\":8748:8771  uint256(uint160(value)) */\n      dup5\n      and\n        /* \"https://github.com/OpenZeppelin/openzeppelin-contracts/blob/master/contracts/utils/structs/EnumerableSet.sol\":8720:8727  _remove */\n      tag_287\n        /* \"https://github.com/OpenZeppelin/openzeppelin-contracts/blob/master/contracts/utils/structs/EnumerableSet.sol\":8720:8773  _remove(set._inner, bytes32(uint256(uint160(value)))) */\n      jump\t// in\n        /* \"https://github.com/OpenZeppelin/openzeppelin-contracts/blob/master/contracts/utils/structs/EnumerableSet.sol\":9107:9222  function length(AddressSet storage set) internal view returns (uint256) {... */\n    tag_230:\n        /* \"https://github.com/OpenZeppelin/openzeppelin-contracts/blob/master/contracts/utils/structs/EnumerableSet.sol\":9170:9177  uint256 */\n      0x00\n        /* \"https://github.com/OpenZeppelin/openzeppelin-contracts/blob/master/contracts/utils/structs/EnumerableSet.sol\":9196:9215  _length(set._inner) */\n      tag_114\n        /* \"https://github.com/OpenZeppelin/openzeppelin-contracts/blob/master/contracts/utils/structs/EnumerableSet.sol\":9204:9207  set */\n      dup3\n        /* \"https://github.com/OpenZeppelin/openzeppelin-contracts/blob/master/contracts/utils/structs/EnumerableSet.sol\":4546:4564  set._values.length */\n      sload\n      swap1\n        /* \"https://github.com/OpenZeppelin/openzeppelin-contracts/blob/master/contracts/utils/structs/EnumerableSet.sol\":4464:4571  function _length(Set storage set) private view returns (uint256) {... */\n      jump\n        /* \"smart_contracts/terminal/Terminal.sol\":5390:5799  function _safeConnect(address contract_, string memory signature, bytes memory args) private onlyIfObjIsWhitelisted(contract_) returns (bool) {... */\n    tag_264:\n      sub(shl(0xa0, 0x01), 0x01)\n        /* \"smart_contracts/terminal/Terminal.sol\":5080:5103  objWhitelist[contract_] */\n      dup4\n      and\n        /* \"smart_contracts/terminal/Terminal.sol\":5526:5530  bool */\n      0x00\n        /* \"smart_contracts/terminal/Terminal.sol\":5080:5103  objWhitelist[contract_] */\n      swap1\n      dup2\n      mstore\n        /* \"smart_contracts/terminal/Terminal.sol\":5080:5092  objWhitelist */\n      0x05\n        /* \"smart_contracts/terminal/Terminal.sol\":5080:5103  objWhitelist[contract_] */\n      0x20\n      mstore\n      0x40\n      dup2\n      keccak256\n      sload\n        /* \"smart_contracts/terminal/Terminal.sol\":5506:5515  contract_ */\n      dup5\n      swap1\n        /* \"smart_contracts/terminal/Terminal.sol\":5080:5103  objWhitelist[contract_] */\n      0xff\n      and\n        /* \"smart_contracts/terminal/Terminal.sol\":5072:5135  require(objWhitelist[contract_], \"contract is not whitelisted\") */\n      tag_292\n      jumpi\n      mload(0x40)\n      shl(0xe5, 0x461bcd)\n      dup2\n      mstore\n        /* \"#utility.yul\":13913:13915   */\n      0x20\n        /* \"smart_contracts/terminal/Terminal.sol\":5072:5135  require(objWhitelist[contract_], \"contract is not whitelisted\") */\n      0x04\n      dup3\n      add\n        /* \"#utility.yul\":13895:13916   */\n      mstore\n        /* \"#utility.yul\":13952:13954   */\n      0x1b\n        /* \"#utility.yul\":13932:13950   */\n      0x24\n      dup3\n      add\n        /* \"#utility.yul\":13925:13955   */\n      mstore\n        /* \"#utility.yul\":13991:14020   */\n      0x636f6e7472616374206973206e6f742077686974656c69737465640000000000\n        /* \"#utility.yul\":13971:13989   */\n      0x44\n      dup3\n      add\n        /* \"#utility.yul\":13964:14021   */\n      mstore\n        /* \"#utility.yul\":14038:14056   */\n      0x64\n      add\n        /* \"smart_contracts/terminal/Terminal.sol\":5072:5135  require(objWhitelist[contract_], \"contract is not whitelisted\") */\n      tag_128\n        /* \"#utility.yul\":13711:14062   */\n      jump\n        /* \"smart_contracts/terminal/Terminal.sol\":5072:5135  require(objWhitelist[contract_], \"contract is not whitelisted\") */\n    tag_292:\n        /* \"smart_contracts/terminal/Terminal.sol\":5543:5565  bool callWasSuccessful */\n      0x00\n        /* \"smart_contracts/terminal/Terminal.sol\":5579:5588  contract_ */\n      dup6\n      sub(shl(0xa0, 0x01), 0x01)\n        /* \"smart_contracts/terminal/Terminal.sol\":5571:5602  address(contract_).delegatecall */\n      and\n        /* \"smart_contracts/terminal/Terminal.sol\":5627:5636  signature */\n      dup6\n        /* \"smart_contracts/terminal/Terminal.sol\":5638:5642  args */\n      dup6\n        /* \"smart_contracts/terminal/Terminal.sol\":5603:5643  abi.encodeWithSignature(signature, args) */\n      add(0x24, mload(0x40))\n      tag_296\n      swap2\n      swap1\n      tag_297\n      jump\t// in\n    tag_296:\n      0x40\n      dup1\n      mload\n      not(0x1f)\n      dup2\n      dup5\n      sub\n      add\n      dup2\n      mstore\n      swap1\n      dup3\n      swap1\n      mstore\n      swap2\n      tag_298\n      swap2\n      tag_299\n      jump\t// in\n    tag_298:\n      0x40\n      dup1\n      mload\n      swap2\n      dup3\n      swap1\n      sub\n      swap1\n      swap2\n      keccak256\n      0x20\n      dup4\n      add\n      dup1\n      mload\n      sub(shl(0xe0, 0x01), 0x01)\n      and\n      not(sub(shl(0xe0, 0x01), 0x01))\n      swap1\n      swap3\n      and\n      swap2\n      swap1\n      swap2\n      or\n      swap1\n      mstore\n        /* \"smart_contracts/terminal/Terminal.sol\":5571:5644  address(contract_).delegatecall(abi.encodeWithSignature(signature, args)) */\n      mload\n      tag_300\n      swap2\n        /* \"smart_contracts/terminal/Terminal.sol\":5603:5643  abi.encodeWithSignature(signature, args) */\n      swap1\n        /* \"smart_contracts/terminal/Terminal.sol\":5571:5644  address(contract_).delegatecall(abi.encodeWithSignature(signature, args)) */\n      tag_299\n      jump\t// in\n    tag_300:\n      0x00\n      mload(0x40)\n      dup1\n      dup4\n      sub\n      dup2\n      dup6\n      gas\n      delegatecall\n      swap2\n      pop\n      pop\n      returndatasize\n      dup1\n      0x00\n      dup2\n      eq\n      tag_304\n      jumpi\n      mload(0x40)\n      swap2\n      pop\n      and(add(returndatasize, 0x3f), not(0x1f))\n      dup3\n      add\n      0x40\n      mstore\n      returndatasize\n      dup3\n      mstore\n      returndatasize\n      0x00\n      0x20\n      dup5\n      add\n      returndatacopy\n      jump(tag_303)\n    tag_304:\n      0x60\n      swap2\n      pop\n    tag_303:\n      pop\n        /* \"smart_contracts/terminal/Terminal.sol\":5542:5644  (bool callWasSuccessful, ) = address(contract_).delegatecall(abi.encodeWithSignature(signature, args)) */\n      pop\n      swap1\n      pop\n        /* \"smart_contracts/terminal/Terminal.sol\":5662:5679  callWasSuccessful */\n      dup1\n        /* \"smart_contracts/terminal/Terminal.sol\":5654:5707  require(callWasSuccessful, \"call was not successful\") */\n      tag_305\n      jumpi\n      mload(0x40)\n      shl(0xe5, 0x461bcd)\n      dup2\n      mstore\n        /* \"#utility.yul\":15607:15609   */\n      0x20\n        /* \"smart_contracts/terminal/Terminal.sol\":5654:5707  require(callWasSuccessful, \"call was not successful\") */\n      0x04\n      dup3\n      add\n        /* \"#utility.yul\":15589:15610   */\n      mstore\n        /* \"#utility.yul\":15646:15648   */\n      0x17\n        /* \"#utility.yul\":15626:15644   */\n      0x24\n      dup3\n      add\n        /* \"#utility.yul\":15619:15649   */\n      mstore\n        /* \"#utility.yul\":15685:15710   */\n      0x63616c6c20776173206e6f74207375636365737366756c000000000000000000\n        /* \"#utility.yul\":15665:15683   */\n      0x44\n      dup3\n      add\n        /* \"#utility.yul\":15658:15711   */\n      mstore\n        /* \"#utility.yul\":15728:15746   */\n      0x64\n      add\n        /* \"smart_contracts/terminal/Terminal.sol\":5654:5707  require(callWasSuccessful, \"call was not successful\") */\n      tag_128\n        /* \"#utility.yul\":15405:15752   */\n      jump\n        /* \"smart_contracts/terminal/Terminal.sol\":5654:5707  require(callWasSuccessful, \"call was not successful\") */\n    tag_305:\n        /* \"smart_contracts/terminal/Terminal.sol\":5744:5753  contract_ */\n      dup6\n      sub(shl(0xa0, 0x01), 0x01)\n        /* \"smart_contracts/terminal/Terminal.sol\":5722:5771  ConnectionEstablished(contract_, signature, args) */\n      and\n      0x252691dd33f541d0df9a4b90b1e016c53c8cf013a20e926499ff41a6b3908d88\n        /* \"smart_contracts/terminal/Terminal.sol\":5755:5764  signature */\n      dup7\n        /* \"smart_contracts/terminal/Terminal.sol\":5766:5770  args */\n      dup7\n        /* \"smart_contracts/terminal/Terminal.sol\":5722:5771  ConnectionEstablished(contract_, signature, args) */\n      mload(0x40)\n      tag_308\n      swap3\n      swap2\n      swap1\n      tag_309\n      jump\t// in\n    tag_308:\n      mload(0x40)\n      dup1\n      swap2\n      sub\n      swap1\n      log2\n      pop\n        /* \"smart_contracts/terminal/Terminal.sol\":5788:5792  true */\n      0x01\n      swap6\n        /* \"smart_contracts/terminal/Terminal.sol\":5390:5799  function _safeConnect(address contract_, string memory signature, bytes memory args) private onlyIfObjIsWhitelisted(contract_) returns (bool) {... */\n      swap5\n      pop\n      pop\n      pop\n      pop\n      pop\n      jump\t// out\n        /* \"@openzeppelin/contracts/access/AccessControl.sol\":3844:4323  function _checkRole(bytes32 role, address account) internal view virtual {... */\n    tag_269:\n        /* \"@openzeppelin/contracts/access/AccessControl.sol\":3932:3954  hasRole(role, account) */\n      tag_311\n        /* \"@openzeppelin/contracts/access/AccessControl.sol\":3940:3944  role */\n      dup3\n        /* \"@openzeppelin/contracts/access/AccessControl.sol\":3946:3953  account */\n      dup3\n        /* \"@openzeppelin/contracts/access/AccessControl.sol\":3932:3939  hasRole */\n      tag_71\n        /* \"@openzeppelin/contracts/access/AccessControl.sol\":3932:3954  hasRole(role, account) */\n      jump\t// in\n    tag_311:\n        /* \"@openzeppelin/contracts/access/AccessControl.sol\":3927:4317  if (!hasRole(role, account)) {... */\n      tag_130\n      jumpi\n        /* \"@openzeppelin/contracts/access/AccessControl.sol\":4115:4143  Strings.toHexString(account) */\n      tag_313\n        /* \"@openzeppelin/contracts/access/AccessControl.sol\":4135:4142  account */\n      dup2\n        /* \"@openzeppelin/contracts/access/AccessControl.sol\":4115:4134  Strings.toHexString */\n      tag_314\n        /* \"@openzeppelin/contracts/access/AccessControl.sol\":4115:4143  Strings.toHexString(account) */\n      jump\t// in\n    tag_313:\n        /* \"@openzeppelin/contracts/access/AccessControl.sol\":4214:4252  Strings.toHexString(uint256(role), 32) */\n      tag_315\n        /* \"@openzeppelin/contracts/access/AccessControl.sol\":4242:4246  role */\n      dup4\n        /* \"@openzeppelin/contracts/access/AccessControl.sol\":4249:4251  32 */\n      0x20\n        /* \"@openzeppelin/contracts/access/AccessControl.sol\":4214:4233  Strings.toHexString */\n      tag_316\n        /* \"@openzeppelin/contracts/access/AccessControl.sol\":4214:4252  Strings.toHexString(uint256(role), 32) */\n      jump\t// in\n    tag_315:\n        /* \"@openzeppelin/contracts/access/AccessControl.sol\":4022:4274  abi.encodePacked(... */\n      add(0x20, mload(0x40))\n      tag_317\n      swap3\n      swap2\n      swap1\n      tag_318\n      jump\t// in\n    tag_317:\n      0x40\n      dup1\n      mload\n      not(0x1f)\n      dup2\n      dup5\n      sub\n      add\n      dup2\n      mstore\n      swap1\n      dup3\n      swap1\n      mstore\n      shl(0xe5, 0x461bcd)\n        /* \"@openzeppelin/contracts/access/AccessControl.sol\":3970:4306  revert(... */\n      dup3\n      mstore\n      tag_128\n      swap2\n      0x04\n      add\n      tag_297\n      jump\t// in\n        /* \"https://github.com/OpenZeppelin/openzeppelin-contracts/blob/master/contracts/utils/structs/EnumerableSet.sol\":2215:2619  function _add(Set storage set, bytes32 value) private returns (bool) {... */\n    tag_281:\n        /* \"https://github.com/OpenZeppelin/openzeppelin-contracts/blob/master/contracts/utils/structs/EnumerableSet.sol\":2278:2282  bool */\n      0x00\n        /* \"https://github.com/OpenZeppelin/openzeppelin-contracts/blob/master/contracts/utils/structs/EnumerableSet.sol\":4352:4371  set._indexes[value] */\n      dup2\n      dup2\n      mstore\n        /* \"https://github.com/OpenZeppelin/openzeppelin-contracts/blob/master/contracts/utils/structs/EnumerableSet.sol\":4352:4364  set._indexes */\n      0x01\n      dup4\n      add\n        /* \"https://github.com/OpenZeppelin/openzeppelin-contracts/blob/master/contracts/utils/structs/EnumerableSet.sol\":4352:4371  set._indexes[value] */\n      0x20\n      mstore\n      0x40\n      dup2\n      keccak256\n      sload\n        /* \"https://github.com/OpenZeppelin/openzeppelin-contracts/blob/master/contracts/utils/structs/EnumerableSet.sol\":2294:2613  if (!_contains(set, value)) {... */\n      tag_323\n      jumpi\n      pop\n        /* \"https://github.com/OpenZeppelin/openzeppelin-contracts/blob/master/contracts/utils/structs/EnumerableSet.sol\":2336:2359  set._values.push(value) */\n      dup2\n      sload\n      0x01\n      dup2\n      dup2\n      add\n      dup5\n      sstore\n        /* \"https://github.com/OpenZeppelin/openzeppelin-contracts/blob/master/contracts/utils/structs/EnumerableSet.sol\":2336:2347  set._values */\n      0x00\n        /* \"https://github.com/OpenZeppelin/openzeppelin-contracts/blob/master/contracts/utils/structs/EnumerableSet.sol\":2336:2359  set._values.push(value) */\n      dup5\n      dup2\n      mstore\n      0x20\n      dup1\n      dup3\n      keccak256\n      swap1\n      swap4\n      add\n      dup5\n      swap1\n      sstore\n        /* \"https://github.com/OpenZeppelin/openzeppelin-contracts/blob/master/contracts/utils/structs/EnumerableSet.sol\":2516:2534  set._values.length */\n      dup5\n      sload\n        /* \"https://github.com/OpenZeppelin/openzeppelin-contracts/blob/master/contracts/utils/structs/EnumerableSet.sol\":2494:2513  set._indexes[value] */\n      dup5\n      dup3\n      mstore\n        /* \"https://github.com/OpenZeppelin/openzeppelin-contracts/blob/master/contracts/utils/structs/EnumerableSet.sol\":2494:2506  set._indexes */\n      dup3\n      dup7\n      add\n        /* \"https://github.com/OpenZeppelin/openzeppelin-contracts/blob/master/contracts/utils/structs/EnumerableSet.sol\":2494:2513  set._indexes[value] */\n      swap1\n      swap4\n      mstore\n      0x40\n      swap1\n      keccak256\n        /* \"https://github.com/OpenZeppelin/openzeppelin-contracts/blob/master/contracts/utils/structs/EnumerableSet.sol\":2494:2534  set._indexes[value] = set._values.length */\n      swap2\n      swap1\n      swap2\n      sstore\n        /* \"https://github.com/OpenZeppelin/openzeppelin-contracts/blob/master/contracts/utils/structs/EnumerableSet.sol\":2548:2559  return true */\n      jump(tag_114)\n        /* \"https://github.com/OpenZeppelin/openzeppelin-contracts/blob/master/contracts/utils/structs/EnumerableSet.sol\":2294:2613  if (!_contains(set, value)) {... */\n    tag_323:\n      pop\n        /* \"https://github.com/OpenZeppelin/openzeppelin-contracts/blob/master/contracts/utils/structs/EnumerableSet.sol\":2597:2602  false */\n      0x00\n        /* \"https://github.com/OpenZeppelin/openzeppelin-contracts/blob/master/contracts/utils/structs/EnumerableSet.sol\":2590:2602  return false */\n      jump(tag_114)\n        /* \"https://github.com/OpenZeppelin/openzeppelin-contracts/blob/master/contracts/utils/structs/EnumerableSet.sol\":2787:4175  function _remove(Set storage set, bytes32 value) private returns (bool) {... */\n    tag_287:\n        /* \"https://github.com/OpenZeppelin/openzeppelin-contracts/blob/master/contracts/utils/structs/EnumerableSet.sol\":2853:2857  bool */\n      0x00\n        /* \"https://github.com/OpenZeppelin/openzeppelin-contracts/blob/master/contracts/utils/structs/EnumerableSet.sol\":2990:3009  set._indexes[value] */\n      dup2\n      dup2\n      mstore\n        /* \"https://github.com/OpenZeppelin/openzeppelin-contracts/blob/master/contracts/utils/structs/EnumerableSet.sol\":2990:3002  set._indexes */\n      0x01\n      dup4\n      add\n        /* \"https://github.com/OpenZeppelin/openzeppelin-contracts/blob/master/contracts/utils/structs/EnumerableSet.sol\":2990:3009  set._indexes[value] */\n      0x20\n      mstore\n      0x40\n      dup2\n      keccak256\n      sload\n        /* \"https://github.com/OpenZeppelin/openzeppelin-contracts/blob/master/contracts/utils/structs/EnumerableSet.sol\":3024:3039  valueIndex != 0 */\n      dup1\n      iszero\n        /* \"https://github.com/OpenZeppelin/openzeppelin-contracts/blob/master/contracts/utils/structs/EnumerableSet.sol\":3020:4169  if (valueIndex != 0) {... */\n      tag_328\n      jumpi\n        /* \"https://github.com/OpenZeppelin/openzeppelin-contracts/blob/master/contracts/utils/structs/EnumerableSet.sol\":3393:3414  uint256 toDeleteIndex */\n      0x00\n        /* \"https://github.com/OpenZeppelin/openzeppelin-contracts/blob/master/contracts/utils/structs/EnumerableSet.sol\":3417:3431  valueIndex - 1 */\n      tag_329\n        /* \"https://github.com/OpenZeppelin/openzeppelin-contracts/blob/master/contracts/utils/structs/EnumerableSet.sol\":3430:3431  1 */\n      0x01\n        /* \"https://github.com/OpenZeppelin/openzeppelin-contracts/blob/master/contracts/utils/structs/EnumerableSet.sol\":3417:3427  valueIndex */\n      dup4\n        /* \"https://github.com/OpenZeppelin/openzeppelin-contracts/blob/master/contracts/utils/structs/EnumerableSet.sol\":3417:3431  valueIndex - 1 */\n      tag_330\n      jump\t// in\n    tag_329:\n        /* \"https://github.com/OpenZeppelin/openzeppelin-contracts/blob/master/contracts/utils/structs/EnumerableSet.sol\":3465:3483  set._values.length */\n      dup6\n      sload\n        /* \"https://github.com/OpenZeppelin/openzeppelin-contracts/blob/master/contracts/utils/structs/EnumerableSet.sol\":3393:3431  uint256 toDeleteIndex = valueIndex - 1 */\n      swap1\n      swap2\n      pop\n        /* \"https://github.com/OpenZeppelin/openzeppelin-contracts/blob/master/contracts/utils/structs/EnumerableSet.sol\":3445:3462  uint256 lastIndex */\n      0x00\n      swap1\n        /* \"https://github.com/OpenZeppelin/openzeppelin-contracts/blob/master/contracts/utils/structs/EnumerableSet.sol\":3465:3487  set._values.length - 1 */\n      tag_331\n      swap1\n        /* \"https://github.com/OpenZeppelin/openzeppelin-contracts/blob/master/contracts/utils/structs/EnumerableSet.sol\":3486:3487  1 */\n      0x01\n      swap1\n        /* \"https://github.com/OpenZeppelin/openzeppelin-contracts/blob/master/contracts/utils/structs/EnumerableSet.sol\":3465:3487  set._values.length - 1 */\n      tag_330\n      jump\t// in\n    tag_331:\n        /* \"https://github.com/OpenZeppelin/openzeppelin-contracts/blob/master/contracts/utils/structs/EnumerableSet.sol\":3445:3487  uint256 lastIndex = set._values.length - 1 */\n      swap1\n      pop\n        /* \"https://github.com/OpenZeppelin/openzeppelin-contracts/blob/master/contracts/utils/structs/EnumerableSet.sol\":3519:3532  toDeleteIndex */\n      dup2\n        /* \"https://github.com/OpenZeppelin/openzeppelin-contracts/blob/master/contracts/utils/structs/EnumerableSet.sol\":3506:3515  lastIndex */\n      dup2\n        /* \"https://github.com/OpenZeppelin/openzeppelin-contracts/blob/master/contracts/utils/structs/EnumerableSet.sol\":3506:3532  lastIndex != toDeleteIndex */\n      eq\n        /* \"https://github.com/OpenZeppelin/openzeppelin-contracts/blob/master/contracts/utils/structs/EnumerableSet.sol\":3502:3900  if (lastIndex != toDeleteIndex) {... */\n      tag_332\n      jumpi\n        /* \"https://github.com/OpenZeppelin/openzeppelin-contracts/blob/master/contracts/utils/structs/EnumerableSet.sol\":3552:3569  bytes32 lastValue */\n      0x00\n        /* \"https://github.com/OpenZeppelin/openzeppelin-contracts/blob/master/contracts/utils/structs/EnumerableSet.sol\":3572:3575  set */\n      dup7\n        /* \"https://github.com/OpenZeppelin/openzeppelin-contracts/blob/master/contracts/utils/structs/EnumerableSet.sol\":3572:3583  set._values */\n      0x00\n      add\n        /* \"https://github.com/OpenZeppelin/openzeppelin-contracts/blob/master/contracts/utils/structs/EnumerableSet.sol\":3584:3593  lastIndex */\n      dup3\n        /* \"https://github.com/OpenZeppelin/openzeppelin-contracts/blob/master/contracts/utils/structs/EnumerableSet.sol\":3572:3594  set._values[lastIndex] */\n      dup2\n      sload\n      dup2\n      lt\n      tag_334\n      jumpi\n      tag_334\n      tag_154\n      jump\t// in\n    tag_334:\n      swap1\n      0x00\n      mstore\n      keccak256(0x00, 0x20)\n      add\n      sload\n        /* \"https://github.com/OpenZeppelin/openzeppelin-contracts/blob/master/contracts/utils/structs/EnumerableSet.sol\":3552:3594  bytes32 lastValue = set._values[lastIndex] */\n      swap1\n      pop\n        /* \"https://github.com/OpenZeppelin/openzeppelin-contracts/blob/master/contracts/utils/structs/EnumerableSet.sol\":3723:3732  lastValue */\n      dup1\n        /* \"https://github.com/OpenZeppelin/openzeppelin-contracts/blob/master/contracts/utils/structs/EnumerableSet.sol\":3694:3697  set */\n      dup8\n        /* \"https://github.com/OpenZeppelin/openzeppelin-contracts/blob/master/contracts/utils/structs/EnumerableSet.sol\":3694:3705  set._values */\n      0x00\n      add\n        /* \"https://github.com/OpenZeppelin/openzeppelin-contracts/blob/master/contracts/utils/structs/EnumerableSet.sol\":3706:3719  toDeleteIndex */\n      dup5\n        /* \"https://github.com/OpenZeppelin/openzeppelin-contracts/blob/master/contracts/utils/structs/EnumerableSet.sol\":3694:3720  set._values[toDeleteIndex] */\n      dup2\n      sload\n      dup2\n      lt\n      tag_337\n      jumpi\n      tag_337\n      tag_154\n      jump\t// in\n    tag_337:\n      0x00\n      swap2\n      dup3\n      mstore\n      0x20\n      dup1\n      dup4\n      keccak256\n      swap1\n      swap2\n      add\n        /* \"https://github.com/OpenZeppelin/openzeppelin-contracts/blob/master/contracts/utils/structs/EnumerableSet.sol\":3694:3732  set._values[toDeleteIndex] = lastValue */\n      swap3\n      swap1\n      swap3\n      sstore\n        /* \"https://github.com/OpenZeppelin/openzeppelin-contracts/blob/master/contracts/utils/structs/EnumerableSet.sol\":3806:3829  set._indexes[lastValue] */\n      swap2\n      dup3\n      mstore\n        /* \"https://github.com/OpenZeppelin/openzeppelin-contracts/blob/master/contracts/utils/structs/EnumerableSet.sol\":3806:3818  set._indexes */\n      0x01\n      dup9\n      add\n        /* \"https://github.com/OpenZeppelin/openzeppelin-contracts/blob/master/contracts/utils/structs/EnumerableSet.sol\":3806:3829  set._indexes[lastValue] */\n      swap1\n      mstore\n      0x40\n      swap1\n      keccak256\n        /* \"https://github.com/OpenZeppelin/openzeppelin-contracts/blob/master/contracts/utils/structs/EnumerableSet.sol\":3806:3842  set._indexes[lastValue] = valueIndex */\n      dup4\n      swap1\n      sstore\n        /* \"https://github.com/OpenZeppelin/openzeppelin-contracts/blob/master/contracts/utils/structs/EnumerableSet.sol\":3502:3900  if (lastIndex != toDeleteIndex) {... */\n    tag_332:\n        /* \"https://github.com/OpenZeppelin/openzeppelin-contracts/blob/master/contracts/utils/structs/EnumerableSet.sol\":3978:3995  set._values.pop() */\n      dup6\n      sload\n        /* \"https://github.com/OpenZeppelin/openzeppelin-contracts/blob/master/contracts/utils/structs/EnumerableSet.sol\":3978:3981  set */\n      dup7\n      swap1\n        /* \"https://github.com/OpenZeppelin/openzeppelin-contracts/blob/master/contracts/utils/structs/EnumerableSet.sol\":3978:3995  set._values.pop() */\n      dup1\n      tag_340\n      jumpi\n      tag_340\n      tag_341\n      jump\t// in\n    tag_340:\n      0x01\n      swap1\n      sub\n      dup2\n      dup2\n      swap1\n      0x00\n      mstore\n      keccak256(0x00, 0x20)\n      add\n      0x00\n      swap1\n      sstore\n      swap1\n      sstore\n        /* \"https://github.com/OpenZeppelin/openzeppelin-contracts/blob/master/contracts/utils/structs/EnumerableSet.sol\":4070:4073  set */\n      dup6\n        /* \"https://github.com/OpenZeppelin/openzeppelin-contracts/blob/master/contracts/utils/structs/EnumerableSet.sol\":4070:4082  set._indexes */\n      0x01\n      add\n        /* \"https://github.com/OpenZeppelin/openzeppelin-contracts/blob/master/contracts/utils/structs/EnumerableSet.sol\":4070:4089  set._indexes[value] */\n      0x00\n        /* \"https://github.com/OpenZeppelin/openzeppelin-contracts/blob/master/contracts/utils/structs/EnumerableSet.sol\":4083:4088  value */\n      dup7\n        /* \"https://github.com/OpenZeppelin/openzeppelin-contracts/blob/master/contracts/utils/structs/EnumerableSet.sol\":4070:4089  set._indexes[value] */\n      dup2\n      mstore\n      0x20\n      add\n      swap1\n      dup2\n      mstore\n      0x20\n      add\n      0x00\n      keccak256\n        /* \"https://github.com/OpenZeppelin/openzeppelin-contracts/blob/master/contracts/utils/structs/EnumerableSet.sol\":4063:4089  delete set._indexes[value] */\n      0x00\n      swap1\n      sstore\n        /* \"https://github.com/OpenZeppelin/openzeppelin-contracts/blob/master/contracts/utils/structs/EnumerableSet.sol\":4111:4115  true */\n      0x01\n        /* \"https://github.com/OpenZeppelin/openzeppelin-contracts/blob/master/contracts/utils/structs/EnumerableSet.sol\":4104:4115  return true */\n      swap4\n      pop\n      pop\n      pop\n      pop\n      jump(tag_114)\n        /* \"https://github.com/OpenZeppelin/openzeppelin-contracts/blob/master/contracts/utils/structs/EnumerableSet.sol\":3020:4169  if (valueIndex != 0) {... */\n    tag_328:\n        /* \"https://github.com/OpenZeppelin/openzeppelin-contracts/blob/master/contracts/utils/structs/EnumerableSet.sol\":4153:4158  false */\n      0x00\n        /* \"https://github.com/OpenZeppelin/openzeppelin-contracts/blob/master/contracts/utils/structs/EnumerableSet.sol\":4146:4158  return false */\n      swap2\n      pop\n      pop\n      jump(tag_114)\n        /* \"@openzeppelin/contracts/utils/Strings.sol\":2102:2251  function toHexString(address addr) internal pure returns (string memory) {... */\n    tag_314:\n        /* \"@openzeppelin/contracts/utils/Strings.sol\":2160:2173  string memory */\n      0x60\n        /* \"@openzeppelin/contracts/utils/Strings.sol\":2192:2244  toHexString(uint256(uint160(addr)), _ADDRESS_LENGTH) */\n      tag_114\n      sub(shl(0xa0, 0x01), 0x01)\n        /* \"@openzeppelin/contracts/utils/Strings.sol\":2204:2226  uint256(uint160(addr)) */\n      dup4\n      and\n        /* \"@openzeppelin/contracts/utils/Strings.sol\":311:313  20 */\n      0x14\n        /* \"@openzeppelin/contracts/utils/Strings.sol\":1513:1950  function toHexString(uint256 value, uint256 length) internal pure returns (string memory) {... */\n    tag_316:\n        /* \"@openzeppelin/contracts/utils/Strings.sol\":1588:1601  string memory */\n      0x60\n        /* \"@openzeppelin/contracts/utils/Strings.sol\":1613:1632  bytes memory buffer */\n      0x00\n        /* \"@openzeppelin/contracts/utils/Strings.sol\":1645:1655  2 * length */\n      tag_348\n        /* \"@openzeppelin/contracts/utils/Strings.sol\":1649:1655  length */\n      dup4\n        /* \"@openzeppelin/contracts/utils/Strings.sol\":1645:1646  2 */\n      0x02\n        /* \"@openzeppelin/contracts/utils/Strings.sol\":1645:1655  2 * length */\n      tag_233\n      jump\t// in\n    tag_348:\n        /* \"@openzeppelin/contracts/utils/Strings.sol\":1645:1659  2 * length + 2 */\n      tag_349\n      swap1\n        /* \"@openzeppelin/contracts/utils/Strings.sol\":1658:1659  2 */\n      0x02\n        /* \"@openzeppelin/contracts/utils/Strings.sol\":1645:1659  2 * length + 2 */\n      tag_142\n      jump\t// in\n    tag_349:\n        /* \"@openzeppelin/contracts/utils/Strings.sol\":1635:1660  new bytes(2 * length + 2) */\n      0xffffffffffffffff\n      dup2\n      gt\n      iszero\n      tag_351\n      jumpi\n      tag_351\n      tag_352\n      jump\t// in\n    tag_351:\n      mload(0x40)\n      swap1\n      dup1\n      dup3\n      mstore\n      dup1\n      0x1f\n      add\n      not(0x1f)\n      and\n      0x20\n      add\n      dup3\n      add\n      0x40\n      mstore\n      dup1\n      iszero\n      tag_353\n      jumpi\n      0x20\n      dup3\n      add\n      dup2\n      dup1\n      calldatasize\n      dup4\n      calldatacopy\n      add\n      swap1\n      pop\n    tag_353:\n      pop\n        /* \"@openzeppelin/contracts/utils/Strings.sol\":1613:1660  bytes memory buffer = new bytes(2 * length + 2) */\n      swap1\n      pop\n      shl(0xfc, 0x03)\n        /* \"@openzeppelin/contracts/utils/Strings.sol\":1670:1676  buffer */\n      dup2\n        /* \"@openzeppelin/contracts/utils/Strings.sol\":1677:1678  0 */\n      0x00\n        /* \"@openzeppelin/contracts/utils/Strings.sol\":1670:1679  buffer[0] */\n      dup2\n      mload\n      dup2\n      lt\n      tag_355\n      jumpi\n      tag_355\n      tag_154\n      jump\t// in\n    tag_355:\n      0x20\n      add\n      add\n        /* \"@openzeppelin/contracts/utils/Strings.sol\":1670:1685  buffer[0] = \"0\" */\n      swap1\n      not(sub(shl(0xf8, 0x01), 0x01))\n      and\n      swap1\n      dup2\n      0x00\n      byte\n      swap1\n      mstore8\n      pop\n      shl(0xfb, 0x0f)\n        /* \"@openzeppelin/contracts/utils/Strings.sol\":1695:1701  buffer */\n      dup2\n        /* \"@openzeppelin/contracts/utils/Strings.sol\":1702:1703  1 */\n      0x01\n        /* \"@openzeppelin/contracts/utils/Strings.sol\":1695:1704  buffer[1] */\n      dup2\n      mload\n      dup2\n      lt\n      tag_357\n      jumpi\n      tag_357\n      tag_154\n      jump\t// in\n    tag_357:\n      0x20\n      add\n      add\n        /* \"@openzeppelin/contracts/utils/Strings.sol\":1695:1710  buffer[1] = \"x\" */\n      swap1\n      not(sub(shl(0xf8, 0x01), 0x01))\n      and\n      swap1\n      dup2\n      0x00\n      byte\n      swap1\n      mstore8\n      pop\n        /* \"@openzeppelin/contracts/utils/Strings.sol\":1725:1734  uint256 i */\n      0x00\n        /* \"@openzeppelin/contracts/utils/Strings.sol\":1737:1747  2 * length */\n      tag_361\n        /* \"@openzeppelin/contracts/utils/Strings.sol\":1741:1747  length */\n      dup5\n        /* \"@openzeppelin/contracts/utils/Strings.sol\":1737:1738  2 */\n      0x02\n        /* \"@openzeppelin/contracts/utils/Strings.sol\":1737:1747  2 * length */\n      tag_233\n      jump\t// in\n    tag_361:\n        /* \"@openzeppelin/contracts/utils/Strings.sol\":1737:1751  2 * length + 1 */\n      tag_362\n      swap1\n        /* \"@openzeppelin/contracts/utils/Strings.sol\":1750:1751  1 */\n      0x01\n        /* \"@openzeppelin/contracts/utils/Strings.sol\":1737:1751  2 * length + 1 */\n      tag_142\n      jump\t// in\n    tag_362:\n        /* \"@openzeppelin/contracts/utils/Strings.sol\":1725:1751  uint256 i = 2 * length + 1 */\n      swap1\n      pop\n        /* \"@openzeppelin/contracts/utils/Strings.sol\":1720:1848  for (uint256 i = 2 * length + 1; i > 1; --i) {... */\n    tag_358:\n        /* \"@openzeppelin/contracts/utils/Strings.sol\":1757:1758  1 */\n      0x01\n        /* \"@openzeppelin/contracts/utils/Strings.sol\":1753:1754  i */\n      dup2\n        /* \"@openzeppelin/contracts/utils/Strings.sol\":1753:1758  i > 1 */\n      gt\n        /* \"@openzeppelin/contracts/utils/Strings.sol\":1720:1848  for (uint256 i = 2 * length + 1; i > 1; --i) {... */\n      iszero\n      tag_359\n      jumpi\n      shl(0x81, 0x181899199a1a9b1b9c1cb0b131b232b3)\n        /* \"@openzeppelin/contracts/utils/Strings.sol\":1800:1805  value */\n      dup6\n        /* \"@openzeppelin/contracts/utils/Strings.sol\":1808:1811  0xf */\n      0x0f\n        /* \"@openzeppelin/contracts/utils/Strings.sol\":1800:1811  value & 0xf */\n      and\n        /* \"@openzeppelin/contracts/utils/Strings.sol\":1791:1812  _SYMBOLS[value & 0xf] */\n      0x10\n      dup2\n      lt\n      tag_364\n      jumpi\n      tag_364\n      tag_154\n      jump\t// in\n    tag_364:\n      byte\n      0xf8\n      shl\n        /* \"@openzeppelin/contracts/utils/Strings.sol\":1779:1785  buffer */\n      dup3\n        /* \"@openzeppelin/contracts/utils/Strings.sol\":1786:1787  i */\n      dup3\n        /* \"@openzeppelin/contracts/utils/Strings.sol\":1779:1788  buffer[i] */\n      dup2\n      mload\n      dup2\n      lt\n      tag_366\n      jumpi\n      tag_366\n      tag_154\n      jump\t// in\n    tag_366:\n      0x20\n      add\n      add\n        /* \"@openzeppelin/contracts/utils/Strings.sol\":1779:1812  buffer[i] = _SYMBOLS[value & 0xf] */\n      swap1\n      not(sub(shl(0xf8, 0x01), 0x01))\n      and\n      swap1\n      dup2\n      0x00\n      byte\n      swap1\n      mstore8\n      pop\n        /* \"@openzeppelin/contracts/utils/Strings.sol\":1836:1837  4 */\n      0x04\n        /* \"@openzeppelin/contracts/utils/Strings.sol\":1826:1837  value >>= 4 */\n      swap5\n      swap1\n      swap5\n      shr\n      swap4\n        /* \"@openzeppelin/contracts/utils/Strings.sol\":1760:1763  --i */\n      tag_367\n      dup2\n      tag_368\n      jump\t// in\n    tag_367:\n      swap1\n      pop\n        /* \"@openzeppelin/contracts/utils/Strings.sol\":1720:1848  for (uint256 i = 2 * length + 1; i > 1; --i) {... */\n      jump(tag_358)\n    tag_359:\n      pop\n        /* \"@openzeppelin/contracts/utils/Strings.sol\":1865:1875  value == 0 */\n      dup4\n      iszero\n        /* \"@openzeppelin/contracts/utils/Strings.sol\":1857:1912  require(value == 0, \"Strings: hex length insufficient\") */\n      tag_280\n      jumpi\n      mload(0x40)\n      shl(0xe5, 0x461bcd)\n      dup2\n      mstore\n        /* \"#utility.yul\":17790:17792   */\n      0x20\n        /* \"@openzeppelin/contracts/utils/Strings.sol\":1857:1912  require(value == 0, \"Strings: hex length insufficient\") */\n      0x04\n      dup3\n      add\n        /* \"#utility.yul\":17772:17793   */\n      dup2\n      swap1\n      mstore\n        /* \"#utility.yul\":17809:17827   */\n      0x24\n      dup3\n      add\n        /* \"#utility.yul\":17802:17832   */\n      mstore\n        /* \"#utility.yul\":17868:17902   */\n      0x537472696e67733a20686578206c656e67746820696e73756666696369656e74\n        /* \"#utility.yul\":17848:17866   */\n      0x44\n      dup3\n      add\n        /* \"#utility.yul\":17841:17903   */\n      mstore\n        /* \"#utility.yul\":17920:17938   */\n      0x64\n      add\n        /* \"@openzeppelin/contracts/utils/Strings.sol\":1857:1912  require(value == 0, \"Strings: hex length insufficient\") */\n      tag_128\n        /* \"#utility.yul\":17588:17944   */\n      jump\n        /* \"#utility.yul\":14:300   */\n    tag_30:\n        /* \"#utility.yul\":72:78   */\n      0x00\n        /* \"#utility.yul\":125:127   */\n      0x20\n        /* \"#utility.yul\":113:122   */\n      dup3\n        /* \"#utility.yul\":104:111   */\n      dup5\n        /* \"#utility.yul\":100:123   */\n      sub\n        /* \"#utility.yul\":96:128   */\n      slt\n        /* \"#utility.yul\":93:145   */\n      iszero\n      tag_383\n      jumpi\n        /* \"#utility.yul\":141:142   */\n      0x00\n        /* \"#utility.yul\":138:139   */\n      dup1\n        /* \"#utility.yul\":131:143   */\n      revert\n        /* \"#utility.yul\":93:145   */\n    tag_383:\n        /* \"#utility.yul\":167:190   */\n      dup2\n      calldataload\n      not(sub(shl(0xe0, 0x01), 0x01))\n        /* \"#utility.yul\":219:251   */\n      dup2\n      and\n        /* \"#utility.yul\":209:252   */\n      dup2\n      eq\n        /* \"#utility.yul\":199:270   */\n      tag_280\n      jumpi\n        /* \"#utility.yul\":266:267   */\n      0x00\n        /* \"#utility.yul\":263:264   */\n      dup1\n        /* \"#utility.yul\":256:268   */\n      revert\n        /* \"#utility.yul\":679:859   */\n    tag_40:\n        /* \"#utility.yul\":738:744   */\n      0x00\n        /* \"#utility.yul\":791:793   */\n      0x20\n        /* \"#utility.yul\":779:788   */\n      dup3\n        /* \"#utility.yul\":770:777   */\n      dup5\n        /* \"#utility.yul\":766:789   */\n      sub\n        /* \"#utility.yul\":762:794   */\n      slt\n        /* \"#utility.yul\":759:811   */\n      iszero\n      tag_388\n      jumpi\n        /* \"#utility.yul\":807:808   */\n      0x00\n        /* \"#utility.yul\":804:805   */\n      dup1\n        /* \"#utility.yul\":797:809   */\n      revert\n        /* \"#utility.yul\":759:811   */\n    tag_388:\n      pop\n        /* \"#utility.yul\":830:853   */\n      calldataload\n      swap2\n        /* \"#utility.yul\":679:859   */\n      swap1\n      pop\n      jump\t// out\n        /* \"#utility.yul\":864:1037   */\n    tag_372:\n        /* \"#utility.yul\":932:952   */\n      dup1\n      calldataload\n      sub(shl(0xa0, 0x01), 0x01)\n        /* \"#utility.yul\":981:1012   */\n      dup2\n      and\n        /* \"#utility.yul\":971:1013   */\n      dup2\n      eq\n        /* \"#utility.yul\":961:1031   */\n      tag_390\n      jumpi\n        /* \"#utility.yul\":1027:1028   */\n      0x00\n        /* \"#utility.yul\":1024:1025   */\n      dup1\n        /* \"#utility.yul\":1017:1029   */\n      revert\n        /* \"#utility.yul\":961:1031   */\n    tag_390:\n        /* \"#utility.yul\":864:1037   */\n      swap2\n      swap1\n      pop\n      jump\t// out\n        /* \"#utility.yul\":1042:1296   */\n    tag_45:\n        /* \"#utility.yul\":1110:1116   */\n      0x00\n        /* \"#utility.yul\":1118:1124   */\n      dup1\n        /* \"#utility.yul\":1171:1173   */\n      0x40\n        /* \"#utility.yul\":1159:1168   */\n      dup4\n        /* \"#utility.yul\":1150:1157   */\n      dup6\n        /* \"#utility.yul\":1146:1169   */\n      sub\n        /* \"#utility.yul\":1142:1174   */\n      slt\n        /* \"#utility.yul\":1139:1191   */\n      iszero\n      tag_392\n      jumpi\n        /* \"#utility.yul\":1187:1188   */\n      0x00\n        /* \"#utility.yul\":1184:1185   */\n      dup1\n        /* \"#utility.yul\":1177:1189   */\n      revert\n        /* \"#utility.yul\":1139:1191   */\n    tag_392:\n        /* \"#utility.yul\":1223:1232   */\n      dup3\n        /* \"#utility.yul\":1210:1233   */\n      calldataload\n        /* \"#utility.yul\":1200:1233   */\n      swap2\n      pop\n        /* \"#utility.yul\":1252:1290   */\n      tag_393\n        /* \"#utility.yul\":1286:1288   */\n      0x20\n        /* \"#utility.yul\":1275:1284   */\n      dup5\n        /* \"#utility.yul\":1271:1289   */\n      add\n        /* \"#utility.yul\":1252:1290   */\n      tag_372\n      jump\t// in\n    tag_393:\n        /* \"#utility.yul\":1242:1290   */\n      swap1\n      pop\n        /* \"#utility.yul\":1042:1296   */\n      swap3\n      pop\n      swap3\n      swap1\n      pop\n      jump\t// out\n        /* \"#utility.yul\":1301:1428   */\n    tag_352:\n        /* \"#utility.yul\":1362:1372   */\n      0x4e487b71\n        /* \"#utility.yul\":1357:1360   */\n      0xe0\n        /* \"#utility.yul\":1353:1373   */\n      shl\n        /* \"#utility.yul\":1350:1351   */\n      0x00\n        /* \"#utility.yul\":1343:1374   */\n      mstore\n        /* \"#utility.yul\":1393:1397   */\n      0x41\n        /* \"#utility.yul\":1390:1391   */\n      0x04\n        /* \"#utility.yul\":1383:1398   */\n      mstore\n        /* \"#utility.yul\":1417:1421   */\n      0x24\n        /* \"#utility.yul\":1414:1415   */\n      0x00\n        /* \"#utility.yul\":1407:1422   */\n      revert\n        /* \"#utility.yul\":1433:1708   */\n    tag_373:\n        /* \"#utility.yul\":1504:1506   */\n      0x40\n        /* \"#utility.yul\":1498:1507   */\n      mload\n        /* \"#utility.yul\":1569:1571   */\n      0x1f\n        /* \"#utility.yul\":1550:1563   */\n      dup3\n      add\n      not(0x1f)\n        /* \"#utility.yul\":1546:1573   */\n      and\n        /* \"#utility.yul\":1534:1574   */\n      dup2\n      add\n        /* \"#utility.yul\":1604:1622   */\n      0xffffffffffffffff\n        /* \"#utility.yul\":1589:1623   */\n      dup2\n      gt\n        /* \"#utility.yul\":1625:1647   */\n      dup3\n      dup3\n      lt\n        /* \"#utility.yul\":1586:1648   */\n      or\n        /* \"#utility.yul\":1583:1671   */\n      iszero\n      tag_397\n      jumpi\n        /* \"#utility.yul\":1651:1669   */\n      tag_397\n      tag_352\n      jump\t// in\n    tag_397:\n        /* \"#utility.yul\":1687:1689   */\n      0x40\n        /* \"#utility.yul\":1680:1702   */\n      mstore\n        /* \"#utility.yul\":1433:1708   */\n      swap2\n      swap1\n      pop\n      jump\t// out\n        /* \"#utility.yul\":1713:2244   */\n    tag_374:\n        /* \"#utility.yul\":1756:1761   */\n      0x00\n        /* \"#utility.yul\":1809:1812   */\n      dup3\n        /* \"#utility.yul\":1802:1806   */\n      0x1f\n        /* \"#utility.yul\":1794:1800   */\n      dup4\n        /* \"#utility.yul\":1790:1807   */\n      add\n        /* \"#utility.yul\":1786:1813   */\n      slt\n        /* \"#utility.yul\":1776:1831   */\n      tag_399\n      jumpi\n        /* \"#utility.yul\":1827:1828   */\n      0x00\n        /* \"#utility.yul\":1824:1825   */\n      dup1\n        /* \"#utility.yul\":1817:1829   */\n      revert\n        /* \"#utility.yul\":1776:1831   */\n    tag_399:\n        /* \"#utility.yul\":1863:1869   */\n      dup2\n        /* \"#utility.yul\":1850:1870   */\n      calldataload\n        /* \"#utility.yul\":1889:1907   */\n      0xffffffffffffffff\n        /* \"#utility.yul\":1885:1887   */\n      dup2\n        /* \"#utility.yul\":1882:1908   */\n      gt\n        /* \"#utility.yul\":1879:1931   */\n      iszero\n      tag_401\n      jumpi\n        /* \"#utility.yul\":1911:1929   */\n      tag_401\n      tag_352\n      jump\t// in\n    tag_401:\n        /* \"#utility.yul\":1955:2010   */\n      tag_402\n        /* \"#utility.yul\":1998:2000   */\n      0x1f\n        /* \"#utility.yul\":1979:1992   */\n      dup3\n      add\n      not(0x1f)\n        /* \"#utility.yul\":1975:2002   */\n      and\n        /* \"#utility.yul\":2004:2008   */\n      0x20\n        /* \"#utility.yul\":1971:2009   */\n      add\n        /* \"#utility.yul\":1955:2010   */\n      tag_373\n      jump\t// in\n    tag_402:\n        /* \"#utility.yul\":2035:2037   */\n      dup2\n        /* \"#utility.yul\":2026:2033   */\n      dup2\n        /* \"#utility.yul\":2019:2038   */\n      mstore\n        /* \"#utility.yul\":2081:2084   */\n      dup5\n        /* \"#utility.yul\":2074:2078   */\n      0x20\n        /* \"#utility.yul\":2069:2071   */\n      dup4\n        /* \"#utility.yul\":2061:2067   */\n      dup7\n        /* \"#utility.yul\":2057:2072   */\n      add\n        /* \"#utility.yul\":2053:2079   */\n      add\n        /* \"#utility.yul\":2050:2085   */\n      gt\n        /* \"#utility.yul\":2047:2102   */\n      iszero\n      tag_403\n      jumpi\n        /* \"#utility.yul\":2098:2099   */\n      0x00\n        /* \"#utility.yul\":2095:2096   */\n      dup1\n        /* \"#utility.yul\":2088:2100   */\n      revert\n        /* \"#utility.yul\":2047:2102   */\n    tag_403:\n        /* \"#utility.yul\":2163:2165   */\n      dup2\n        /* \"#utility.yul\":2156:2160   */\n      0x20\n        /* \"#utility.yul\":2148:2154   */\n      dup6\n        /* \"#utility.yul\":2144:2161   */\n      add\n        /* \"#utility.yul\":2137:2141   */\n      0x20\n        /* \"#utility.yul\":2128:2135   */\n      dup4\n        /* \"#utility.yul\":2124:2142   */\n      add\n        /* \"#utility.yul\":2111:2166   */\n      calldatacopy\n        /* \"#utility.yul\":2211:2212   */\n      0x00\n        /* \"#utility.yul\":2186:2202   */\n      swap2\n      dup2\n      add\n        /* \"#utility.yul\":2204:2208   */\n      0x20\n        /* \"#utility.yul\":2182:2209   */\n      add\n        /* \"#utility.yul\":2175:2213   */\n      swap2\n      swap1\n      swap2\n      mstore\n        /* \"#utility.yul\":2190:2197   */\n      swap4\n        /* \"#utility.yul\":1713:2244   */\n      swap3\n      pop\n      pop\n      pop\n      jump\t// out\n        /* \"#utility.yul\":2249:3815   */\n    tag_52:\n        /* \"#utility.yul\":2397:2403   */\n      0x00\n        /* \"#utility.yul\":2405:2411   */\n      dup1\n        /* \"#utility.yul\":2413:2419   */\n      0x00\n        /* \"#utility.yul\":2421:2427   */\n      dup1\n        /* \"#utility.yul\":2429:2435   */\n      0x00\n        /* \"#utility.yul\":2437:2443   */\n      dup1\n        /* \"#utility.yul\":2490:2493   */\n      0xc0\n        /* \"#utility.yul\":2478:2487   */\n      dup8\n        /* \"#utility.yul\":2469:2476   */\n      dup10\n        /* \"#utility.yul\":2465:2488   */\n      sub\n        /* \"#utility.yul\":2461:2494   */\n      slt\n        /* \"#utility.yul\":2458:2511   */\n      iszero\n      tag_405\n      jumpi\n        /* \"#utility.yul\":2507:2508   */\n      0x00\n        /* \"#utility.yul\":2504:2505   */\n      dup1\n        /* \"#utility.yul\":2497:2509   */\n      revert\n        /* \"#utility.yul\":2458:2511   */\n    tag_405:\n        /* \"#utility.yul\":2547:2556   */\n      dup7\n        /* \"#utility.yul\":2534:2557   */\n      calldataload\n        /* \"#utility.yul\":2576:2594   */\n      0xffffffffffffffff\n        /* \"#utility.yul\":2617:2619   */\n      dup1\n        /* \"#utility.yul\":2609:2615   */\n      dup3\n        /* \"#utility.yul\":2606:2620   */\n      gt\n        /* \"#utility.yul\":2603:2637   */\n      iszero\n      tag_406\n      jumpi\n        /* \"#utility.yul\":2633:2634   */\n      0x00\n        /* \"#utility.yul\":2630:2631   */\n      dup1\n        /* \"#utility.yul\":2623:2635   */\n      revert\n        /* \"#utility.yul\":2603:2637   */\n    tag_406:\n        /* \"#utility.yul\":2671:2677   */\n      dup2\n        /* \"#utility.yul\":2660:2669   */\n      dup10\n        /* \"#utility.yul\":2656:2678   */\n      add\n        /* \"#utility.yul\":2646:2678   */\n      swap2\n      pop\n        /* \"#utility.yul\":2716:2723   */\n      dup10\n        /* \"#utility.yul\":2709:2713   */\n      0x1f\n        /* \"#utility.yul\":2705:2707   */\n      dup4\n        /* \"#utility.yul\":2701:2714   */\n      add\n        /* \"#utility.yul\":2697:2724   */\n      slt\n        /* \"#utility.yul\":2687:2742   */\n      tag_407\n      jumpi\n        /* \"#utility.yul\":2738:2739   */\n      0x00\n        /* \"#utility.yul\":2735:2736   */\n      dup1\n        /* \"#utility.yul\":2728:2740   */\n      revert\n        /* \"#utility.yul\":2687:2742   */\n    tag_407:\n        /* \"#utility.yul\":2774:2776   */\n      dup2\n        /* \"#utility.yul\":2761:2777   */\n      calldataload\n        /* \"#utility.yul\":2796:2800   */\n      0x20\n        /* \"#utility.yul\":2819:2821   */\n      dup3\n        /* \"#utility.yul\":2815:2817   */\n      dup3\n        /* \"#utility.yul\":2812:2822   */\n      gt\n        /* \"#utility.yul\":2809:2845   */\n      iszero\n      tag_409\n      jumpi\n        /* \"#utility.yul\":2825:2843   */\n      tag_409\n      tag_352\n      jump\t// in\n    tag_409:\n        /* \"#utility.yul\":2871:2873   */\n      dup2\n        /* \"#utility.yul\":2868:2869   */\n      0x05\n        /* \"#utility.yul\":2864:2874   */\n      shl\n        /* \"#utility.yul\":2894:2922   */\n      tag_410\n        /* \"#utility.yul\":2918:2920   */\n      dup3\n        /* \"#utility.yul\":2914:2916   */\n      dup3\n        /* \"#utility.yul\":2910:2921   */\n      add\n        /* \"#utility.yul\":2894:2922   */\n      tag_373\n      jump\t// in\n    tag_410:\n        /* \"#utility.yul\":2956:2971   */\n      swap3\n      dup4\n      mstore\n        /* \"#utility.yul\":3026:3037   */\n      dup5\n      dup2\n      add\n        /* \"#utility.yul\":3022:3042   */\n      dup3\n      add\n      swap3\n        /* \"#utility.yul\":2987:2999   */\n      dup3\n      dup2\n      add\n      swap1\n        /* \"#utility.yul\":3054:3073   */\n      dup15\n      dup6\n      gt\n        /* \"#utility.yul\":3051:3090   */\n      iszero\n      tag_411\n      jumpi\n        /* \"#utility.yul\":3086:3087   */\n      0x00\n        /* \"#utility.yul\":3083:3084   */\n      dup1\n        /* \"#utility.yul\":3076:3088   */\n      revert\n        /* \"#utility.yul\":3051:3090   */\n    tag_411:\n        /* \"#utility.yul\":3110:3121   */\n      swap6\n      dup4\n      add\n      swap6\n        /* \"#utility.yul\":3130:3278   */\n    tag_412:\n        /* \"#utility.yul\":3146:3152   */\n      dup5\n        /* \"#utility.yul\":3141:3144   */\n      dup8\n        /* \"#utility.yul\":3138:3153   */\n      lt\n        /* \"#utility.yul\":3130:3278   */\n      iszero\n      tag_414\n      jumpi\n        /* \"#utility.yul\":3212:3235   */\n      tag_415\n        /* \"#utility.yul\":3231:3234   */\n      dup8\n        /* \"#utility.yul\":3212:3235   */\n      tag_372\n      jump\t// in\n    tag_415:\n        /* \"#utility.yul\":3200:3236   */\n      dup3\n      mstore\n        /* \"#utility.yul\":3163:3175   */\n      swap6\n      dup4\n      add\n      swap6\n        /* \"#utility.yul\":3256:3268   */\n      swap1\n      dup4\n      add\n      swap1\n        /* \"#utility.yul\":3130:3278   */\n      jump(tag_412)\n    tag_414:\n        /* \"#utility.yul\":3297:3302   */\n      swap12\n      pop\n      pop\n      pop\n        /* \"#utility.yul\":3334:3352   */\n      dup11\n      add\n        /* \"#utility.yul\":3321:3353   */\n      calldataload\n      swap8\n      pop\n      pop\n        /* \"#utility.yul\":3400:3402   */\n      0x40\n        /* \"#utility.yul\":3385:3403   */\n      dup10\n      add\n        /* \"#utility.yul\":3372:3404   */\n      calldataload\n      swap6\n      pop\n        /* \"#utility.yul\":3423:3461   */\n      tag_416\n        /* \"#utility.yul\":3457:3459   */\n      0x60\n        /* \"#utility.yul\":3442:3460   */\n      dup11\n      add\n        /* \"#utility.yul\":3423:3461   */\n      tag_372\n      jump\t// in\n    tag_416:\n        /* \"#utility.yul\":3413:3461   */\n      swap5\n      pop\n        /* \"#utility.yul\":3514:3517   */\n      0x80\n        /* \"#utility.yul\":3503:3512   */\n      dup10\n        /* \"#utility.yul\":3499:3518   */\n      add\n        /* \"#utility.yul\":3486:3519   */\n      calldataload\n        /* \"#utility.yul\":3470:3519   */\n      swap2\n      pop\n        /* \"#utility.yul\":3544:3546   */\n      dup1\n        /* \"#utility.yul\":3534:3542   */\n      dup3\n        /* \"#utility.yul\":3531:3547   */\n      gt\n        /* \"#utility.yul\":3528:3564   */\n      iszero\n      tag_417\n      jumpi\n        /* \"#utility.yul\":3560:3561   */\n      0x00\n        /* \"#utility.yul\":3557:3558   */\n      dup1\n        /* \"#utility.yul\":3550:3562   */\n      revert\n        /* \"#utility.yul\":3528:3564   */\n    tag_417:\n        /* \"#utility.yul\":3583:3635   */\n      tag_418\n        /* \"#utility.yul\":3627:3634   */\n      dup11\n        /* \"#utility.yul\":3616:3624   */\n      dup4\n        /* \"#utility.yul\":3605:3614   */\n      dup12\n        /* \"#utility.yul\":3601:3625   */\n      add\n        /* \"#utility.yul\":3583:3635   */\n      tag_374\n      jump\t// in\n    tag_418:\n        /* \"#utility.yul\":3573:3635   */\n      swap4\n      pop\n        /* \"#utility.yul\":3688:3691   */\n      0xa0\n        /* \"#utility.yul\":3677:3686   */\n      dup10\n        /* \"#utility.yul\":3673:3692   */\n      add\n        /* \"#utility.yul\":3660:3693   */\n      calldataload\n        /* \"#utility.yul\":3644:3693   */\n      swap2\n      pop\n        /* \"#utility.yul\":3718:3720   */\n      dup1\n        /* \"#utility.yul\":3708:3716   */\n      dup3\n        /* \"#utility.yul\":3705:3721   */\n      gt\n        /* \"#utility.yul\":3702:3738   */\n      iszero\n      tag_419\n      jumpi\n        /* \"#utility.yul\":3734:3735   */\n      0x00\n        /* \"#utility.yul\":3731:3732   */\n      dup1\n        /* \"#utility.yul\":3724:3736   */\n      revert\n        /* \"#utility.yul\":3702:3738   */\n    tag_419:\n      pop\n        /* \"#utility.yul\":3757:3809   */\n      tag_420\n        /* \"#utility.yul\":3801:3808   */\n      dup10\n        /* \"#utility.yul\":3790:3798   */\n      dup3\n        /* \"#utility.yul\":3779:3788   */\n      dup11\n        /* \"#utility.yul\":3775:3799   */\n      add\n        /* \"#utility.yul\":3757:3809   */\n      tag_374\n      jump\t// in\n    tag_420:\n        /* \"#utility.yul\":3747:3809   */\n      swap2\n      pop\n      pop\n        /* \"#utility.yul\":2249:3815   */\n      swap3\n      swap6\n      pop\n      swap3\n      swap6\n      pop\n      swap3\n      swap6\n      jump\t// out\n        /* \"#utility.yul\":4187:4534   */\n    tag_94:\n        /* \"#utility.yul\":4252:4258   */\n      0x00\n        /* \"#utility.yul\":4260:4266   */\n      dup1\n        /* \"#utility.yul\":4313:4315   */\n      0x40\n        /* \"#utility.yul\":4301:4310   */\n      dup4\n        /* \"#utility.yul\":4292:4299   */\n      dup6\n        /* \"#utility.yul\":4288:4311   */\n      sub\n        /* \"#utility.yul\":4284:4316   */\n      slt\n        /* \"#utility.yul\":4281:4333   */\n      iszero\n      tag_425\n      jumpi\n        /* \"#utility.yul\":4329:4330   */\n      0x00\n        /* \"#utility.yul\":4326:4327   */\n      dup1\n        /* \"#utility.yul\":4319:4331   */\n      revert\n        /* \"#utility.yul\":4281:4333   */\n    tag_425:\n        /* \"#utility.yul\":4352:4381   */\n      tag_426\n        /* \"#utility.yul\":4371:4380   */\n      dup4\n        /* \"#utility.yul\":4352:4381   */\n      tag_372\n      jump\t// in\n    tag_426:\n        /* \"#utility.yul\":4342:4381   */\n      swap2\n      pop\n        /* \"#utility.yul\":4431:4433   */\n      0x20\n        /* \"#utility.yul\":4420:4429   */\n      dup4\n        /* \"#utility.yul\":4416:4434   */\n      add\n        /* \"#utility.yul\":4403:4435   */\n      calldataload\n        /* \"#utility.yul\":4478:4483   */\n      dup1\n        /* \"#utility.yul\":4471:4484   */\n      iszero\n        /* \"#utility.yul\":4464:4485   */\n      iszero\n        /* \"#utility.yul\":4457:4462   */\n      dup2\n        /* \"#utility.yul\":4454:4486   */\n      eq\n        /* \"#utility.yul\":4444:4504   */\n      tag_427\n      jumpi\n        /* \"#utility.yul\":4500:4501   */\n      0x00\n        /* \"#utility.yul\":4497:4498   */\n      dup1\n        /* \"#utility.yul\":4490:4502   */\n      revert\n        /* \"#utility.yul\":4444:4504   */\n    tag_427:\n        /* \"#utility.yul\":4523:4528   */\n      dup1\n        /* \"#utility.yul\":4513:4528   */\n      swap2\n      pop\n      pop\n        /* \"#utility.yul\":4187:4534   */\n      swap3\n      pop\n      swap3\n      swap1\n      pop\n      jump\t// out\n        /* \"#utility.yul\":5653:5780   */\n    tag_375:\n        /* \"#utility.yul\":5714:5724   */\n      0x4e487b71\n        /* \"#utility.yul\":5709:5712   */\n      0xe0\n        /* \"#utility.yul\":5705:5725   */\n      shl\n        /* \"#utility.yul\":5702:5703   */\n      0x00\n        /* \"#utility.yul\":5695:5726   */\n      mstore\n        /* \"#utility.yul\":5745:5749   */\n      0x11\n        /* \"#utility.yul\":5742:5743   */\n      0x04\n        /* \"#utility.yul\":5735:5750   */\n      mstore\n        /* \"#utility.yul\":5769:5773   */\n      0x24\n        /* \"#utility.yul\":5766:5767   */\n      0x00\n        /* \"#utility.yul\":5759:5774   */\n      revert\n        /* \"#utility.yul\":5785:5910   */\n    tag_142:\n        /* \"#utility.yul\":5850:5859   */\n      dup1\n      dup3\n      add\n        /* \"#utility.yul\":5871:5881   */\n      dup1\n      dup3\n      gt\n        /* \"#utility.yul\":5868:5904   */\n      iszero\n      tag_114\n      jumpi\n        /* \"#utility.yul\":5884:5902   */\n      tag_114\n      tag_375\n      jump\t// in\n        /* \"#utility.yul\":5915:6295   */\n    tag_253:\n        /* \"#utility.yul\":5994:5995   */\n      0x01\n        /* \"#utility.yul\":5990:6002   */\n      dup2\n      dup2\n      shr\n      swap1\n        /* \"#utility.yul\":6037:6049   */\n      dup3\n      and\n      dup1\n        /* \"#utility.yul\":6058:6119   */\n      tag_436\n      jumpi\n        /* \"#utility.yul\":6112:6116   */\n      0x7f\n        /* \"#utility.yul\":6104:6110   */\n      dup3\n        /* \"#utility.yul\":6100:6117   */\n      and\n        /* \"#utility.yul\":6090:6117   */\n      swap2\n      pop\n        /* \"#utility.yul\":6058:6119   */\n    tag_436:\n        /* \"#utility.yul\":6165:6167   */\n      0x20\n        /* \"#utility.yul\":6157:6163   */\n      dup3\n        /* \"#utility.yul\":6154:6168   */\n      lt\n        /* \"#utility.yul\":6134:6152   */\n      dup2\n        /* \"#utility.yul\":6131:6169   */\n      sub\n        /* \"#utility.yul\":6128:6289   */\n      tag_437\n      jumpi\n        /* \"#utility.yul\":6211:6221   */\n      0x4e487b71\n        /* \"#utility.yul\":6206:6209   */\n      0xe0\n        /* \"#utility.yul\":6202:6222   */\n      shl\n        /* \"#utility.yul\":6199:6200   */\n      0x00\n        /* \"#utility.yul\":6192:6223   */\n      mstore\n        /* \"#utility.yul\":6246:6250   */\n      0x22\n        /* \"#utility.yul\":6243:6244   */\n      0x04\n        /* \"#utility.yul\":6236:6251   */\n      mstore\n        /* \"#utility.yul\":6274:6278   */\n      0x24\n        /* \"#utility.yul\":6271:6272   */\n      0x00\n        /* \"#utility.yul\":6264:6279   */\n      revert\n        /* \"#utility.yul\":6128:6289   */\n    tag_437:\n      pop\n        /* \"#utility.yul\":5915:6295   */\n      swap2\n      swap1\n      pop\n      jump\t// out\n        /* \"#utility.yul\":6426:6971   */\n    tag_377:\n        /* \"#utility.yul\":6528:6530   */\n      0x1f\n        /* \"#utility.yul\":6523:6526   */\n      dup3\n        /* \"#utility.yul\":6520:6531   */\n      gt\n        /* \"#utility.yul\":6517:6965   */\n      iszero\n      tag_122\n      jumpi\n        /* \"#utility.yul\":6564:6565   */\n      0x00\n        /* \"#utility.yul\":6589:6594   */\n      dup2\n        /* \"#utility.yul\":6585:6587   */\n      dup2\n        /* \"#utility.yul\":6578:6595   */\n      mstore\n        /* \"#utility.yul\":6634:6638   */\n      0x20\n        /* \"#utility.yul\":6630:6632   */\n      dup2\n        /* \"#utility.yul\":6620:6639   */\n      keccak256\n        /* \"#utility.yul\":6704:6706   */\n      0x1f\n        /* \"#utility.yul\":6692:6702   */\n      dup6\n        /* \"#utility.yul\":6688:6707   */\n      add\n        /* \"#utility.yul\":6685:6686   */\n      0x05\n        /* \"#utility.yul\":6681:6708   */\n      shr\n        /* \"#utility.yul\":6675:6679   */\n      dup2\n        /* \"#utility.yul\":6671:6709   */\n      add\n        /* \"#utility.yul\":6740:6744   */\n      0x20\n        /* \"#utility.yul\":6728:6738   */\n      dup7\n        /* \"#utility.yul\":6725:6745   */\n      lt\n        /* \"#utility.yul\":6722:6769   */\n      iszero\n      tag_441\n      jumpi\n      pop\n        /* \"#utility.yul\":6763:6767   */\n      dup1\n        /* \"#utility.yul\":6722:6769   */\n    tag_441:\n        /* \"#utility.yul\":6818:6820   */\n      0x1f\n        /* \"#utility.yul\":6813:6816   */\n      dup6\n        /* \"#utility.yul\":6809:6821   */\n      add\n        /* \"#utility.yul\":6806:6807   */\n      0x05\n        /* \"#utility.yul\":6802:6822   */\n      shr\n        /* \"#utility.yul\":6796:6800   */\n      dup3\n        /* \"#utility.yul\":6792:6823   */\n      add\n        /* \"#utility.yul\":6782:6823   */\n      swap2\n      pop\n        /* \"#utility.yul\":6873:6955   */\n    tag_442:\n        /* \"#utility.yul\":6891:6893   */\n      dup2\n        /* \"#utility.yul\":6884:6889   */\n      dup2\n        /* \"#utility.yul\":6881:6894   */\n      lt\n        /* \"#utility.yul\":6873:6955   */\n      iszero\n      tag_444\n      jumpi\n        /* \"#utility.yul\":6936:6953   */\n      dup3\n      dup2\n      sstore\n        /* \"#utility.yul\":6917:6918   */\n      0x01\n        /* \"#utility.yul\":6906:6919   */\n      add\n        /* \"#utility.yul\":6873:6955   */\n      jump(tag_442)\n    tag_444:\n        /* \"#utility.yul\":6877:6880   */\n      pop\n      pop\n      pop\n        /* \"#utility.yul\":6426:6971   */\n      pop\n      pop\n      pop\n      jump\t// out\n        /* \"#utility.yul\":7147:8499   */\n    tag_145:\n        /* \"#utility.yul\":7273:7276   */\n      dup2\n        /* \"#utility.yul\":7267:7277   */\n      mload\n        /* \"#utility.yul\":7300:7318   */\n      0xffffffffffffffff\n        /* \"#utility.yul\":7292:7298   */\n      dup2\n        /* \"#utility.yul\":7289:7319   */\n      gt\n        /* \"#utility.yul\":7286:7342   */\n      iszero\n      tag_448\n      jumpi\n        /* \"#utility.yul\":7322:7340   */\n      tag_448\n      tag_352\n      jump\t// in\n    tag_448:\n        /* \"#utility.yul\":7351:7448   */\n      tag_449\n        /* \"#utility.yul\":7441:7447   */\n      dup2\n        /* \"#utility.yul\":7401:7439   */\n      tag_450\n        /* \"#utility.yul\":7433:7437   */\n      dup5\n        /* \"#utility.yul\":7427:7438   */\n      sload\n        /* \"#utility.yul\":7401:7439   */\n      tag_253\n      jump\t// in\n    tag_450:\n        /* \"#utility.yul\":7395:7399   */\n      dup5\n        /* \"#utility.yul\":7351:7448   */\n      tag_377\n      jump\t// in\n    tag_449:\n        /* \"#utility.yul\":7503:7507   */\n      0x20\n      dup1\n        /* \"#utility.yul\":7567:7569   */\n      0x1f\n        /* \"#utility.yul\":7556:7570   */\n      dup4\n      gt\n        /* \"#utility.yul\":7584:7585   */\n      0x01\n        /* \"#utility.yul\":7579:8242   */\n      dup2\n      eq\n      tag_452\n      jumpi\n        /* \"#utility.yul\":8286:8287   */\n      0x00\n        /* \"#utility.yul\":8303:8309   */\n      dup5\n        /* \"#utility.yul\":8300:8389   */\n      iszero\n      tag_453\n      jumpi\n      pop\n        /* \"#utility.yul\":8355:8374   */\n      dup6\n      dup4\n      add\n        /* \"#utility.yul\":8349:8375   */\n      mload\n        /* \"#utility.yul\":8300:8389   */\n    tag_453:\n      not(0x00)\n        /* \"#utility.yul\":7104:7105   */\n      0x03\n        /* \"#utility.yul\":7100:7111   */\n      dup7\n      swap1\n      shl\n        /* \"#utility.yul\":7096:7120   */\n      shr\n        /* \"#utility.yul\":7092:7121   */\n      not\n        /* \"#utility.yul\":7082:7122   */\n      and\n        /* \"#utility.yul\":7128:7129   */\n      0x01\n        /* \"#utility.yul\":7124:7135   */\n      dup6\n      swap1\n      shl\n        /* \"#utility.yul\":7079:7136   */\n      or\n        /* \"#utility.yul\":8402:8483   */\n      dup6\n      sstore\n        /* \"#utility.yul\":7549:8493   */\n      jump(tag_444)\n        /* \"#utility.yul\":7579:8242   */\n    tag_452:\n        /* \"#utility.yul\":6373:6374   */\n      0x00\n        /* \"#utility.yul\":6366:6380   */\n      dup6\n      dup2\n      mstore\n        /* \"#utility.yul\":6410:6414   */\n      0x20\n        /* \"#utility.yul\":6397:6415   */\n      dup2\n      keccak256\n      not(0x1f)\n        /* \"#utility.yul\":7615:7635   */\n      dup7\n      and\n      swap2\n        /* \"#utility.yul\":7733:7969   */\n    tag_456:\n        /* \"#utility.yul\":7747:7754   */\n      dup3\n        /* \"#utility.yul\":7744:7745   */\n      dup2\n        /* \"#utility.yul\":7741:7755   */\n      lt\n        /* \"#utility.yul\":7733:7969   */\n      iszero\n      tag_458\n      jumpi\n        /* \"#utility.yul\":7836:7855   */\n      dup9\n      dup7\n      add\n        /* \"#utility.yul\":7830:7856   */\n      mload\n        /* \"#utility.yul\":7815:7857   */\n      dup3\n      sstore\n        /* \"#utility.yul\":7928:7955   */\n      swap5\n      dup5\n      add\n      swap5\n        /* \"#utility.yul\":7896:7897   */\n      0x01\n        /* \"#utility.yul\":7884:7898   */\n      swap1\n      swap2\n      add\n      swap1\n        /* \"#utility.yul\":7763:7782   */\n      dup5\n      add\n        /* \"#utility.yul\":7733:7969   */\n      jump(tag_456)\n    tag_458:\n        /* \"#utility.yul\":7737:7740   */\n      pop\n        /* \"#utility.yul\":7997:8003   */\n      dup6\n        /* \"#utility.yul\":7988:7995   */\n      dup3\n        /* \"#utility.yul\":7985:8004   */\n      lt\n        /* \"#utility.yul\":7982:8183   */\n      iszero\n      tag_459\n      jumpi\n        /* \"#utility.yul\":8058:8077   */\n      dup8\n      dup6\n      add\n        /* \"#utility.yul\":8052:8078   */\n      mload\n      not(0x00)\n        /* \"#utility.yul\":8141:8142   */\n      0x03\n        /* \"#utility.yul\":8137:8151   */\n      dup9\n      swap1\n      shl\n        /* \"#utility.yul\":8153:8156   */\n      0xf8\n        /* \"#utility.yul\":8133:8157   */\n      and\n        /* \"#utility.yul\":8129:8166   */\n      shr\n        /* \"#utility.yul\":8125:8167   */\n      not\n        /* \"#utility.yul\":8110:8168   */\n      and\n        /* \"#utility.yul\":8095:8169   */\n      dup2\n      sstore\n        /* \"#utility.yul\":7982:8183   */\n    tag_459:\n      pop\n      pop\n      pop\n      pop\n      pop\n        /* \"#utility.yul\":8229:8230   */\n      0x01\n        /* \"#utility.yul\":8213:8227   */\n      swap1\n      dup2\n      shl\n        /* \"#utility.yul\":8209:8231   */\n      add\n        /* \"#utility.yul\":8196:8232   */\n      swap1\n      sstore\n      pop\n        /* \"#utility.yul\":7147:8499   */\n      jump\t// out\n        /* \"#utility.yul\":9859:9986   */\n    tag_154:\n        /* \"#utility.yul\":9920:9930   */\n      0x4e487b71\n        /* \"#utility.yul\":9915:9918   */\n      0xe0\n        /* \"#utility.yul\":9911:9931   */\n      shl\n        /* \"#utility.yul\":9908:9909   */\n      0x00\n        /* \"#utility.yul\":9901:9932   */\n      mstore\n        /* \"#utility.yul\":9951:9955   */\n      0x32\n        /* \"#utility.yul\":9948:9949   */\n      0x04\n        /* \"#utility.yul\":9941:9956   */\n      mstore\n        /* \"#utility.yul\":9975:9979   */\n      0x24\n        /* \"#utility.yul\":9972:9973   */\n      0x00\n        /* \"#utility.yul\":9965:9980   */\n      revert\n        /* \"#utility.yul\":9991:10126   */\n    tag_157:\n        /* \"#utility.yul\":10030:10033   */\n      0x00\n        /* \"#utility.yul\":10051:10068   */\n      0x01\n      dup3\n      add\n        /* \"#utility.yul\":10048:10091   */\n      tag_477\n      jumpi\n        /* \"#utility.yul\":10071:10089   */\n      tag_477\n      tag_375\n      jump\t// in\n    tag_477:\n      pop\n        /* \"#utility.yul\":10118:10119   */\n      0x01\n        /* \"#utility.yul\":10107:10120   */\n      add\n      swap1\n        /* \"#utility.yul\":9991:10126   */\n      jump\t// out\n        /* \"#utility.yul\":10131:10534   */\n    tag_162:\n        /* \"#utility.yul\":10333:10335   */\n      0x20\n        /* \"#utility.yul\":10315:10336   */\n      dup1\n      dup3\n      mstore\n        /* \"#utility.yul\":10372:10374   */\n      0x27\n        /* \"#utility.yul\":10352:10370   */\n      swap1\n      dup3\n      add\n        /* \"#utility.yul\":10345:10375   */\n      mstore\n      0x00\n      dup1\n      mload\n      0x20\n      data_798a66e032111cde571fe782cd2f52b14c1d0b31e9afe13a1bd8d0597713d838\n      dup4\n      codecopy\n      dup2\n      mload\n      swap2\n      mstore\n        /* \"#utility.yul\":10406:10408   */\n      0x40\n        /* \"#utility.yul\":10391:10409   */\n      dup3\n      add\n        /* \"#utility.yul\":10384:10446   */\n      mstore\n      shl(0xca, 0x195e1c1a5c9959)\n        /* \"#utility.yul\":10477:10479   */\n      0x60\n        /* \"#utility.yul\":10462:10480   */\n      dup3\n      add\n        /* \"#utility.yul\":10455:10492   */\n      mstore\n        /* \"#utility.yul\":10524:10527   */\n      0x80\n        /* \"#utility.yul\":10509:10528   */\n      add\n      swap1\n        /* \"#utility.yul\":10131:10534   */\n      jump\t// out\n        /* \"#utility.yul\":10539:10949   */\n    tag_166:\n        /* \"#utility.yul\":10741:10743   */\n      0x20\n        /* \"#utility.yul\":10723:10744   */\n      dup1\n      dup3\n      mstore\n        /* \"#utility.yul\":10780:10782   */\n      0x2e\n        /* \"#utility.yul\":10760:10778   */\n      swap1\n      dup3\n      add\n        /* \"#utility.yul\":10753:10783   */\n      mstore\n      0x00\n      dup1\n      mload\n      0x20\n      data_798a66e032111cde571fe782cd2f52b14c1d0b31e9afe13a1bd8d0597713d838\n      dup4\n      codecopy\n      dup2\n      mload\n      swap2\n      mstore\n        /* \"#utility.yul\":10814:10816   */\n      0x40\n        /* \"#utility.yul\":10799:10817   */\n      dup3\n      add\n        /* \"#utility.yul\":10792:10854   */\n      mstore\n      shl(0x92, 0x1899595b8818d85b98d95b1b1959)\n        /* \"#utility.yul\":10885:10887   */\n      0x60\n        /* \"#utility.yul\":10870:10888   */\n      dup3\n      add\n        /* \"#utility.yul\":10863:10907   */\n      mstore\n        /* \"#utility.yul\":10939:10942   */\n      0x80\n        /* \"#utility.yul\":10924:10943   */\n      add\n      swap1\n        /* \"#utility.yul\":10539:10949   */\n      jump\t// out\n        /* \"#utility.yul\":10954:11367   */\n    tag_170:\n        /* \"#utility.yul\":11156:11158   */\n      0x20\n        /* \"#utility.yul\":11138:11159   */\n      dup1\n      dup3\n      mstore\n        /* \"#utility.yul\":11195:11197   */\n      0x31\n        /* \"#utility.yul\":11175:11193   */\n      swap1\n      dup3\n      add\n        /* \"#utility.yul\":11168:11198   */\n      mstore\n      0x00\n      dup1\n      mload\n      0x20\n      data_798a66e032111cde571fe782cd2f52b14c1d0b31e9afe13a1bd8d0597713d838\n      dup4\n      codecopy\n      dup2\n      mload\n      swap2\n      mstore\n        /* \"#utility.yul\":11229:11231   */\n      0x40\n        /* \"#utility.yul\":11214:11232   */\n      dup3\n      add\n        /* \"#utility.yul\":11207:11269   */\n      mstore\n      shl(0x7a, 0x1b9bdd081899595b88195e1958dd5d1959)\n        /* \"#utility.yul\":11300:11302   */\n      0x60\n        /* \"#utility.yul\":11285:11303   */\n      dup3\n      add\n        /* \"#utility.yul\":11278:11325   */\n      mstore\n        /* \"#utility.yul\":11357:11360   */\n      0x80\n        /* \"#utility.yul\":11342:11361   */\n      add\n      swap1\n        /* \"#utility.yul\":10954:11367   */\n      jump\t// out\n        /* \"#utility.yul\":12047:12469   */\n    tag_194:\n        /* \"#utility.yul\":12249:12251   */\n      0x20\n        /* \"#utility.yul\":12231:12252   */\n      dup1\n      dup3\n      mstore\n        /* \"#utility.yul\":12288:12290   */\n      0x3a\n        /* \"#utility.yul\":12268:12286   */\n      swap1\n      dup3\n      add\n        /* \"#utility.yul\":12261:12291   */\n      mstore\n        /* \"#utility.yul\":12327:12361   */\n      0x63616c6c6572206973206e6f742061207369676e657220666f72207468652073\n        /* \"#utility.yul\":12322:12324   */\n      0x40\n        /* \"#utility.yul\":12307:12325   */\n      dup3\n      add\n        /* \"#utility.yul\":12300:12362   */\n      mstore\n        /* \"#utility.yul\":12398:12426   */\n      0x656c6563746564206d756c7469207369672070726f706f73616c000000000000\n        /* \"#utility.yul\":12393:12395   */\n      0x60\n        /* \"#utility.yul\":12378:12396   */\n      dup3\n      add\n        /* \"#utility.yul\":12371:12427   */\n      mstore\n        /* \"#utility.yul\":12459:12462   */\n      0x80\n        /* \"#utility.yul\":12444:12463   */\n      add\n      swap1\n        /* \"#utility.yul\":12047:12469   */\n      jump\t// out\n        /* \"#utility.yul\":12900:13068   */\n    tag_233:\n        /* \"#utility.yul\":12973:12982   */\n      dup1\n      dup3\n      mul\n        /* \"#utility.yul\":13004:13013   */\n      dup2\n      iszero\n        /* \"#utility.yul\":13021:13036   */\n      dup3\n      dup3\n      div\n        /* \"#utility.yul\":13015:13037   */\n      dup5\n      eq\n        /* \"#utility.yul\":13001:13038   */\n      or\n        /* \"#utility.yul\":12991:13062   */\n      tag_114\n      jumpi\n        /* \"#utility.yul\":13042:13060   */\n      tag_114\n      tag_375\n      jump\t// in\n        /* \"#utility.yul\":13073:13290   */\n    tag_235:\n        /* \"#utility.yul\":13113:13114   */\n      0x00\n        /* \"#utility.yul\":13139:13140   */\n      dup3\n        /* \"#utility.yul\":13129:13261   */\n      tag_489\n      jumpi\n        /* \"#utility.yul\":13183:13193   */\n      0x4e487b71\n        /* \"#utility.yul\":13178:13181   */\n      0xe0\n        /* \"#utility.yul\":13174:13194   */\n      shl\n        /* \"#utility.yul\":13171:13172   */\n      0x00\n        /* \"#utility.yul\":13164:13195   */\n      mstore\n        /* \"#utility.yul\":13218:13222   */\n      0x12\n        /* \"#utility.yul\":13215:13216   */\n      0x04\n        /* \"#utility.yul\":13208:13223   */\n      mstore\n        /* \"#utility.yul\":13246:13250   */\n      0x24\n        /* \"#utility.yul\":13243:13244   */\n      0x00\n        /* \"#utility.yul\":13236:13251   */\n      revert\n        /* \"#utility.yul\":13129:13261   */\n    tag_489:\n      pop\n        /* \"#utility.yul\":13275:13284   */\n      div\n      swap1\n        /* \"#utility.yul\":13073:13290   */\n      jump\t// out\n        /* \"#utility.yul\":14067:14317   */\n    tag_379:\n        /* \"#utility.yul\":14152:14153   */\n      0x00\n        /* \"#utility.yul\":14162:14275   */\n    tag_493:\n        /* \"#utility.yul\":14176:14182   */\n      dup4\n        /* \"#utility.yul\":14173:14174   */\n      dup2\n        /* \"#utility.yul\":14170:14183   */\n      lt\n        /* \"#utility.yul\":14162:14275   */\n      iszero\n      tag_495\n      jumpi\n        /* \"#utility.yul\":14252:14263   */\n      dup2\n      dup2\n      add\n        /* \"#utility.yul\":14246:14264   */\n      mload\n        /* \"#utility.yul\":14233:14244   */\n      dup4\n      dup3\n      add\n        /* \"#utility.yul\":14226:14265   */\n      mstore\n        /* \"#utility.yul\":14198:14200   */\n      0x20\n        /* \"#utility.yul\":14191:14201   */\n      add\n        /* \"#utility.yul\":14162:14275   */\n      jump(tag_493)\n    tag_495:\n      pop\n      pop\n        /* \"#utility.yul\":14309:14310   */\n      0x00\n        /* \"#utility.yul\":14291:14307   */\n      swap2\n      add\n        /* \"#utility.yul\":14284:14311   */\n      mstore\n        /* \"#utility.yul\":14067:14317   */\n      jump\t// out\n        /* \"#utility.yul\":14322:14592   */\n    tag_380:\n        /* \"#utility.yul\":14363:14366   */\n      0x00\n        /* \"#utility.yul\":14401:14406   */\n      dup2\n        /* \"#utility.yul\":14395:14407   */\n      mload\n        /* \"#utility.yul\":14428:14434   */\n      dup1\n        /* \"#utility.yul\":14423:14426   */\n      dup5\n        /* \"#utility.yul\":14416:14435   */\n      mstore\n        /* \"#utility.yul\":14444:14520   */\n      tag_497\n        /* \"#utility.yul\":14513:14519   */\n      dup2\n        /* \"#utility.yul\":14506:14510   */\n      0x20\n        /* \"#utility.yul\":14501:14504   */\n      dup7\n        /* \"#utility.yul\":14497:14511   */\n      add\n        /* \"#utility.yul\":14490:14494   */\n      0x20\n        /* \"#utility.yul\":14483:14488   */\n      dup7\n        /* \"#utility.yul\":14479:14495   */\n      add\n        /* \"#utility.yul\":14444:14520   */\n      tag_379\n      jump\t// in\n    tag_497:\n        /* \"#utility.yul\":14574:14576   */\n      0x1f\n        /* \"#utility.yul\":14553:14568   */\n      add\n      not(0x1f)\n        /* \"#utility.yul\":14549:14578   */\n      and\n        /* \"#utility.yul\":14540:14579   */\n      swap3\n      swap1\n      swap3\n      add\n        /* \"#utility.yul\":14581:14585   */\n      0x20\n        /* \"#utility.yul\":14536:14586   */\n      add\n      swap3\n        /* \"#utility.yul\":14322:14592   */\n      swap2\n      pop\n      pop\n      jump\t// out\n        /* \"#utility.yul\":14597:14814   */\n    tag_297:\n        /* \"#utility.yul\":14744:14746   */\n      0x20\n        /* \"#utility.yul\":14733:14742   */\n      dup2\n        /* \"#utility.yul\":14726:14747   */\n      mstore\n        /* \"#utility.yul\":14707:14711   */\n      0x00\n        /* \"#utility.yul\":14764:14808   */\n      tag_280\n        /* \"#utility.yul\":14804:14806   */\n      0x20\n        /* \"#utility.yul\":14793:14802   */\n      dup4\n        /* \"#utility.yul\":14789:14807   */\n      add\n        /* \"#utility.yul\":14781:14787   */\n      dup5\n        /* \"#utility.yul\":14764:14808   */\n      tag_380\n      jump\t// in\n        /* \"#utility.yul\":14819:15108   */\n    tag_299:\n        /* \"#utility.yul\":14950:14953   */\n      0x00\n        /* \"#utility.yul\":14988:14994   */\n      dup3\n        /* \"#utility.yul\":14982:14995   */\n      mload\n        /* \"#utility.yul\":15004:15070   */\n      tag_501\n        /* \"#utility.yul\":15063:15069   */\n      dup2\n        /* \"#utility.yul\":15058:15061   */\n      dup5\n        /* \"#utility.yul\":15051:15055   */\n      0x20\n        /* \"#utility.yul\":15043:15049   */\n      dup8\n        /* \"#utility.yul\":15039:15056   */\n      add\n        /* \"#utility.yul\":15004:15070   */\n      tag_379\n      jump\t// in\n    tag_501:\n        /* \"#utility.yul\":15086:15102   */\n      swap2\n      swap1\n      swap2\n      add\n      swap3\n        /* \"#utility.yul\":14819:15108   */\n      swap2\n      pop\n      pop\n      jump\t// out\n        /* \"#utility.yul\":15757:16136   */\n    tag_309:\n        /* \"#utility.yul\":15952:15954   */\n      0x40\n        /* \"#utility.yul\":15941:15950   */\n      dup2\n        /* \"#utility.yul\":15934:15955   */\n      mstore\n        /* \"#utility.yul\":15915:15919   */\n      0x00\n        /* \"#utility.yul\":15978:16022   */\n      tag_506\n        /* \"#utility.yul\":16018:16020   */\n      0x40\n        /* \"#utility.yul\":16007:16016   */\n      dup4\n        /* \"#utility.yul\":16003:16021   */\n      add\n        /* \"#utility.yul\":15995:16001   */\n      dup6\n        /* \"#utility.yul\":15978:16022   */\n      tag_380\n      jump\t// in\n    tag_506:\n        /* \"#utility.yul\":16070:16079   */\n      dup3\n        /* \"#utility.yul\":16062:16068   */\n      dup2\n        /* \"#utility.yul\":16058:16080   */\n      sub\n        /* \"#utility.yul\":16053:16055   */\n      0x20\n        /* \"#utility.yul\":16042:16051   */\n      dup5\n        /* \"#utility.yul\":16038:16056   */\n      add\n        /* \"#utility.yul\":16031:16081   */\n      mstore\n        /* \"#utility.yul\":16098:16130   */\n      tag_507\n        /* \"#utility.yul\":16123:16129   */\n      dup2\n        /* \"#utility.yul\":16115:16121   */\n      dup6\n        /* \"#utility.yul\":16098:16130   */\n      tag_380\n      jump\t// in\n    tag_507:\n        /* \"#utility.yul\":16090:16130   */\n      swap6\n        /* \"#utility.yul\":15757:16136   */\n      swap5\n      pop\n      pop\n      pop\n      pop\n      pop\n      jump\t// out\n        /* \"#utility.yul\":16141:16953   */\n    tag_318:\n        /* \"#utility.yul\":16552:16577   */\n      0x416363657373436f6e74726f6c3a206163636f756e7420000000000000000000\n        /* \"#utility.yul\":16547:16550   */\n      dup2\n        /* \"#utility.yul\":16540:16578   */\n      mstore\n        /* \"#utility.yul\":16522:16525   */\n      0x00\n        /* \"#utility.yul\":16607:16613   */\n      dup4\n        /* \"#utility.yul\":16601:16614   */\n      mload\n        /* \"#utility.yul\":16623:16698   */\n      tag_509\n        /* \"#utility.yul\":16691:16697   */\n      dup2\n        /* \"#utility.yul\":16686:16688   */\n      0x17\n        /* \"#utility.yul\":16681:16684   */\n      dup6\n        /* \"#utility.yul\":16677:16689   */\n      add\n        /* \"#utility.yul\":16670:16674   */\n      0x20\n        /* \"#utility.yul\":16662:16668   */\n      dup9\n        /* \"#utility.yul\":16658:16675   */\n      add\n        /* \"#utility.yul\":16623:16698   */\n      tag_379\n      jump\t// in\n    tag_509:\n      shl(0x7d, 0x01034b99036b4b9b9b4b733903937b6329)\n        /* \"#utility.yul\":16757:16759   */\n      0x17\n        /* \"#utility.yul\":16717:16733   */\n      swap2\n      dup5\n      add\n        /* \"#utility.yul\":16749:16760   */\n      swap2\n      dup3\n      add\n        /* \"#utility.yul\":16742:16782   */\n      mstore\n        /* \"#utility.yul\":16807:16820   */\n      dup4\n      mload\n        /* \"#utility.yul\":16829:16905   */\n      tag_510\n        /* \"#utility.yul\":16807:16820   */\n      dup2\n        /* \"#utility.yul\":16891:16893   */\n      0x28\n        /* \"#utility.yul\":16883:16894   */\n      dup5\n      add\n        /* \"#utility.yul\":16876:16880   */\n      0x20\n        /* \"#utility.yul\":16864:16881   */\n      dup9\n      add\n        /* \"#utility.yul\":16829:16905   */\n      tag_379\n      jump\t// in\n    tag_510:\n        /* \"#utility.yul\":16925:16942   */\n      add\n        /* \"#utility.yul\":16944:16946   */\n      0x28\n        /* \"#utility.yul\":16921:16947   */\n      add\n      swap5\n        /* \"#utility.yul\":16141:16953   */\n      swap4\n      pop\n      pop\n      pop\n      pop\n      jump\t// out\n        /* \"#utility.yul\":17182:17310   */\n    tag_330:\n        /* \"#utility.yul\":17249:17258   */\n      dup2\n      dup2\n      sub\n        /* \"#utility.yul\":17270:17281   */\n      dup2\n      dup2\n      gt\n        /* \"#utility.yul\":17267:17304   */\n      iszero\n      tag_114\n      jumpi\n        /* \"#utility.yul\":17284:17302   */\n      tag_114\n      tag_375\n      jump\t// in\n        /* \"#utility.yul\":17315:17442   */\n    tag_341:\n        /* \"#utility.yul\":17376:17386   */\n      0x4e487b71\n        /* \"#utility.yul\":17371:17374   */\n      0xe0\n        /* \"#utility.yul\":17367:17387   */\n      shl\n        /* \"#utility.yul\":17364:17365   */\n      0x00\n        /* \"#utility.yul\":17357:17388   */\n      mstore\n        /* \"#utility.yul\":17407:17411   */\n      0x31\n        /* \"#utility.yul\":17404:17405   */\n      0x04\n        /* \"#utility.yul\":17397:17412   */\n      mstore\n        /* \"#utility.yul\":17431:17435   */\n      0x24\n        /* \"#utility.yul\":17428:17429   */\n      0x00\n        /* \"#utility.yul\":17421:17436   */\n      revert\n        /* \"#utility.yul\":17447:17583   */\n    tag_368:\n        /* \"#utility.yul\":17486:17489   */\n      0x00\n        /* \"#utility.yul\":17514:17519   */\n      dup2\n        /* \"#utility.yul\":17504:17543   */\n      tag_519\n      jumpi\n        /* \"#utility.yul\":17523:17541   */\n      tag_519\n      tag_375\n      jump\t// in\n    tag_519:\n      pop\n      not(0x00)\n        /* \"#utility.yul\":17559:17577   */\n      add\n      swap1\n        /* \"#utility.yul\":17447:17583   */\n      jump\t// out\n    stop\n    data_093d78d14b29fcbdf4452dcdf4ad32823ef264abdfe05f6919632e60e21c34cd 47591fe9b3890b87c7c043cb927ef194625cccad01ddfc64c8238b926e677490\n    data_798a66e032111cde571fe782cd2f52b14c1d0b31e9afe13a1bd8d0597713d838 73656c6563746564206d756c7469207369672070726f706f73616c2068617320\n\n    auxdata: 0xa2646970667358221220ff9c8a19108883434d9d96637beaf9c3eacd81e1a317529ab49ba3b0f6e1af4564736f6c63430008140033\n}\n",
				"bytecode": {
					"linkReferences": {},
					"object": "608060405234801561000f575f80fd5b5061003a7f2172861495e7b85edac73e3cd5fbb42dd675baadf627720e687bcfdaca0250963061003f565b6100dc565b5f828152602081815260408083206001600160a01b038516845290915290205460ff166100d8575f828152602081815260408083206001600160a01b03851684529091529020805460ff191660011790556100973390565b6001600160a01b0316816001600160a01b0316837f2f8788117e7eff1d82e926ec794901d17c78024a50270940304540a733656f0d60405160405180910390a45b5050565b611c27806100e95f395ff3fe608060405234801561000f575f80fd5b506004361061013d575f3560e01c8063a006294f116100b4578063d1a8dd2e11610079578063d1a8dd2e1461030a578063d391014b1461031d578063d547741f14610344578063ef78463f14610357578063fc406a021461036a578063fd7522e21461037d575f80fd5b8063a006294f14610284578063a217fddf14610297578063c5bb81591461029e578063c703278a146102c0578063cff92081146102eb575f80fd5b80633bdd8a9b116101055780633bdd8a9b146101e85780636708a436146101fb5780636a9f010b1461020f5780636b1a242a146102345780636d02ca9f1461024757806391d1485414610271575f80fd5b806301ffc9a7146101415780632371b2cf14610169578063248a9ca31461019e5780632f2ff15d146101c057806336568abe146101d5575b5f80fd5b61015461014f36600461150c565b6103a4565b60405190151581526020015b60405180910390f35b6101907f917a6160fa9b4361968cd14f786810932b4c8dbf43d8aeaec262e7c931f2741681565b604051908152602001610160565b6101906101ac366004611533565b5f9081526020819052604090206001015490565b6101d36101ce366004611565565b6103da565b005b6101d36101e3366004611565565b610403565b6101d36101f6366004611640565b610486565b6101905f80516020611bb283398151915281565b61015461021d366004611533565b5f9081526002602052604090206003015460ff1690565b6101d3610242366004611533565b6106f6565b610154610255366004611533565b5f90815260026020526040902060030154610100900460ff1690565b61015461027f366004611565565b610818565b6101d3610292366004611533565b610840565b6101905f81565b6101906102ac366004611533565b5f9081526002602052604090206001015490565b6101546102ce366004611533565b5f9081526002602052604090206003015462010000900460ff1690565b6101906102f9366004611533565b5f9081526002602052604090205490565b6101d361031836600461174d565b6109c5565b6101907f2172861495e7b85edac73e3cd5fbb42dd675baadf627720e687bcfdaca02509681565b6101d3610352366004611565565b610a4e565b6101d3610365366004611533565b610a72565b610154610378366004611533565b610c43565b6101907fe892760268ab8265e73c67b2387f8e09c46bd3818c36eebd25a5a4e862cf031881565b5f6001600160e01b03198216637965db0b60e01b14806103d457506301ffc9a760e01b6001600160e01b03198316145b92915050565b5f828152602081905260409020600101546103f481610eda565b6103fe8383610ee7565b505050565b6001600160a01b03811633146104785760405162461bcd60e51b815260206004820152602f60248201527f416363657373436f6e74726f6c3a2063616e206f6e6c792072656e6f756e636560448201526e103937b632b9903337b91039b2b63360891b60648201526084015b60405180910390fd5b6104828282610f6a565b5050565b5f80516020611bb283398151915261049d81610eda565b865160028110159060091015816104ed5760405162461bcd60e51b815260206004820152601460248201527339b4b3b732b939af973632b733ba34101f1e901960611b604482015260640161046f565b806105315760405162461bcd60e51b81526020600482015260146024820152737369676e6572735f2e6c656e677468203c3d203960601b604482015260640161046f565b6001805f828254610542919061179a565b90915550506001546040805161012081019091524280825291906020810161056a8c8561179a565b81526020018a81526020015f151581526020015f151581526020015f15158152602001896001600160a01b031681526020018881526020018781525060025f8381526020019081526020015f205f820151815f015560208201518160010155604082015181600201556060820151816003015f6101000a81548160ff02191690831515021790555060808201518160030160016101000a81548160ff02191690831515021790555060a08201518160030160026101000a81548160ff02191690831515021790555060c08201518160030160036101000a8154816001600160a01b0302191690836001600160a01b0316021790555060e08201518160040190816106749190611832565b50610100820151600582019061068a9082611832565b509050505f5b8b518110156106e8576106d58c82815181106106ae576106ae6118ee565b602002602001015160035f8581526020019081526020015f20610fce90919063ffffffff16565b50806106e081611902565b915050610690565b505050505050505050505050565b5f818152600260205260409020600101548190421080159061072a5760405162461bcd60e51b815260040161046f9061191a565b5f83815260026020526040902060030154839060ff16801561075e5760405162461bcd60e51b815260040161046f9061194e565b5f858152600260205260409020600301548590610100900460ff1680156107975760405162461bcd60e51b815260040161046f90611989565b5f80516020611bb28339815191526107ae81610eda565b5f8881526002602052604090819020600301805460ff191660011790555133907f6f8d378fdfefc2f30423fc5f253857bdedecb65f6b917cb1a2216ece60d86ad690610806908b904290918252602082015260400190565b60405180910390a25050505050505050565b5f918252602082815260408084206001600160a01b0393909316845291905290205460ff1690565b5f81815260026020526040902060010154819042108015906108745760405162461bcd60e51b815260040161046f9061191a565b5f83815260026020526040902060030154839060ff1680156108a85760405162461bcd60e51b815260040161046f9061194e565b5f8581526004602052604081208691906108c29033610fe9565b90508061092f5760405162461bcd60e51b815260206004820152603560248201527f63616c6c657220686173206e6f74207369676e656420666f722073656c6563746044820152741959081b5d5b1d1a481cda59c81c1c9bdc1bdcd85b605a1b606482015260840161046f565b5f8781526003602052604081208891906109499033610fe9565b9050806109685760405162461bcd60e51b815260040161046f906119c7565b5f89815260046020526040902061097f903361100a565b50604080518a815242602082015233917f3899555e234af4b23ccd4d5cbb21bb3598913aae9624d1ea8ba81aba3d79c0ae910160405180910390a2505050505050505050565b7f2172861495e7b85edac73e3cd5fbb42dd675baadf627720e687bcfdaca0250966109ef81610eda565b6001600160a01b0383165f81815260056020908152604091829020805460ff191686151590811790915591519182527f886b99fabe6dc54ace264fa831ea6f7e9b0fee2b24308316f5c78edccd2cbd9a910160405180910390a2505050565b5f82815260208190526040902060010154610a6881610eda565b6103fe8383610f6a565b5f8181526002602052604090206001015481904210801590610aa65760405162461bcd60e51b815260040161046f9061191a565b5f83815260026020526040902060030154839060ff168015610ada5760405162461bcd60e51b815260040161046f9061194e565b5f858152600460205260408120869190610af49033610fe9565b90508015610b6a5760405162461bcd60e51b815260206004820152603960248201527f63616c6c65722068617320616c7265616479207369676e656420666f7220736560448201527f6c6563746564206d756c7469207369672070726f706f73616c00000000000000606482015260840161046f565b5f878152600360205260408120889190610b849033610fe9565b905080610ba35760405162461bcd60e51b815260040161046f906119c7565b5f898152600460205260409020610bba9033610fce565b50604080518a815242602082015233917f65c6a5495c336c3b8aff2bea37f4d8440fdb0a2c30c23c1a0db4a659856c0cfc910160405180910390a25f898152600460205260408120610c0b9061101e565b5f8b8152600360205260409020610c219061101e565b610c2c906064611a24565b610c369190611a3b565b5050505050505050505050565b5f8181526002602052604081206001015482904210801590610c775760405162461bcd60e51b815260040161046f9061191a565b5f84815260026020526040902060030154849060ff168015610cab5760405162461bcd60e51b815260040161046f9061194e565b5f86815260026020526040902060030154869062010000900460ff1680610d195760405162461bcd60e51b815260206004820152602f60248201525f80516020611bd283398151915260448201526e1b9bdd081899595b881c185cdcd959608a1b606482015260840161046f565b5f888152600260205260409020600301548890610100900460ff168015610d525760405162461bcd60e51b815260040161046f90611989565b5f80516020611bb2833981519152610d6981610eda565b5f8b815260026020526040812060038101546004909101805463010000009092046001600160a01b03169291610d9e906117ad565b80601f0160208091040260200160405190810160405280929190818152602001828054610dca906117ad565b8015610e155780601f10610dec57610100808354040283529160200191610e15565b820191905f5260205f20905b815481529060010190602001808311610df857829003601f168201915b505050505090505f60025f8f81526020019081526020015f206005018054610e3c906117ad565b80601f0160208091040260200160405190810160405280929190818152602001828054610e68906117ad565b8015610eb35780601f10610e8a57610100808354040283529160200191610eb3565b820191905f5260205f20905b815481529060010190602001808311610e9657829003601f168201915b50505050509050610ec5838383611027565b5060019e9d5050505050505050505050505050565b610ee481336111dc565b50565b610ef18282610818565b610482575f828152602081815260408083206001600160a01b03851684529091529020805460ff19166001179055610f263390565b6001600160a01b0316816001600160a01b0316837f2f8788117e7eff1d82e926ec794901d17c78024a50270940304540a733656f0d60405160405180910390a45050565b610f748282610818565b15610482575f828152602081815260408083206001600160a01b0385168085529252808320805460ff1916905551339285917ff6391f5c32d9c69d2a47ea670b442974b53935d1edc7fd64eb21e047a839171b9190a45050565b5f610fe2836001600160a01b038416611235565b9392505050565b6001600160a01b0381165f9081526001830160205260408120541515610fe2565b5f610fe2836001600160a01b038416611281565b5f6103d4825490565b6001600160a01b0383165f90815260056020526040812054849060ff166110905760405162461bcd60e51b815260206004820152601b60248201527f636f6e7472616374206973206e6f742077686974656c69737465640000000000604482015260640161046f565b5f856001600160a01b031685856040516024016110ad9190611aa7565b60408051601f1981840301815290829052916110c891611ab9565b60408051918290039091206020830180516001600160e01b03166001600160e01b0319909216919091179052516110ff9190611ab9565b5f60405180830381855af49150503d805f8114611137576040519150601f19603f3d011682016040523d82523d5f602084013e61113c565b606091505b505090508061118d5760405162461bcd60e51b815260206004820152601760248201527f63616c6c20776173206e6f74207375636365737366756c000000000000000000604482015260640161046f565b856001600160a01b03167f252691dd33f541d0df9a4b90b1e016c53c8cf013a20e926499ff41a6b3908d8886866040516111c8929190611ad4565b60405180910390a250600195945050505050565b6111e68282610818565b610482576111f381611364565b6111fe836020611376565b60405160200161120f929190611b01565b60408051601f198184030181529082905262461bcd60e51b825261046f91600401611aa7565b5f81815260018301602052604081205461127a57508154600181810184555f8481526020808220909301849055845484825282860190935260409020919091556103d4565b505f6103d4565b5f818152600183016020526040812054801561135b575f6112a3600183611b75565b85549091505f906112b690600190611b75565b9050818114611315575f865f0182815481106112d4576112d46118ee565b905f5260205f200154905080875f0184815481106112f4576112f46118ee565b5f918252602080832090910192909255918252600188019052604090208390555b855486908061132657611326611b88565b600190038181905f5260205f20015f90559055856001015f8681526020019081526020015f205f9055600193505050506103d4565b5f9150506103d4565b60606103d46001600160a01b03831660145b60605f611384836002611a24565b61138f90600261179a565b67ffffffffffffffff8111156113a7576113a761158f565b6040519080825280601f01601f1916602001820160405280156113d1576020820181803683370190505b509050600360fc1b815f815181106113eb576113eb6118ee565b60200101906001600160f81b03191690815f1a905350600f60fb1b81600181518110611419576114196118ee565b60200101906001600160f81b03191690815f1a9053505f61143b846002611a24565b61144690600161179a565b90505b60018111156114bd576f181899199a1a9b1b9c1cb0b131b232b360811b85600f166010811061147a5761147a6118ee565b1a60f81b828281518110611490576114906118ee565b60200101906001600160f81b03191690815f1a90535060049490941c936114b681611b9c565b9050611449565b508315610fe25760405162461bcd60e51b815260206004820181905260248201527f537472696e67733a20686578206c656e67746820696e73756666696369656e74604482015260640161046f565b5f6020828403121561151c575f80fd5b81356001600160e01b031981168114610fe2575f80fd5b5f60208284031215611543575f80fd5b5035919050565b80356001600160a01b0381168114611560575f80fd5b919050565b5f8060408385031215611576575f80fd5b823591506115866020840161154a565b90509250929050565b634e487b7160e01b5f52604160045260245ffd5b604051601f8201601f1916810167ffffffffffffffff811182821017156115cc576115cc61158f565b604052919050565b5f82601f8301126115e3575f80fd5b813567ffffffffffffffff8111156115fd576115fd61158f565b611610601f8201601f19166020016115a3565b818152846020838601011115611624575f80fd5b816020850160208301375f918101602001919091529392505050565b5f805f805f8060c08789031215611655575f80fd5b863567ffffffffffffffff8082111561166c575f80fd5b818901915089601f83011261167f575f80fd5b81356020828211156116935761169361158f565b8160051b6116a28282016115a3565b928352848101820192828101908e8511156116bb575f80fd5b958301955b848710156116e0576116d18761154a565b825295830195908301906116c0565b9b5050508a0135975050604089013595506116fd60608a0161154a565b94506080890135915080821115611712575f80fd5b61171e8a838b016115d4565b935060a0890135915080821115611733575f80fd5b5061174089828a016115d4565b9150509295509295509295565b5f806040838503121561175e575f80fd5b6117678361154a565b91506020830135801515811461177b575f80fd5b809150509250929050565b634e487b7160e01b5f52601160045260245ffd5b808201808211156103d4576103d4611786565b600181811c908216806117c157607f821691505b6020821081036117df57634e487b7160e01b5f52602260045260245ffd5b50919050565b601f8211156103fe575f81815260208120601f850160051c8101602086101561180b5750805b601f850160051c820191505b8181101561182a57828155600101611817565b505050505050565b815167ffffffffffffffff81111561184c5761184c61158f565b6118608161185a84546117ad565b846117e5565b602080601f831160018114611893575f841561187c5750858301515b5f19600386901b1c1916600185901b17855561182a565b5f85815260208120601f198616915b828110156118c1578886015182559484019460019091019084016118a2565b50858210156118de57878501515f19600388901b60f8161c191681555b5050505050600190811b01905550565b634e487b7160e01b5f52603260045260245ffd5b5f6001820161191357611913611786565b5060010190565b60208082526027908201525f80516020611bd2833981519152604082015266195e1c1a5c995960ca1b606082015260800190565b6020808252602e908201525f80516020611bd283398151915260408201526d1899595b8818d85b98d95b1b195960921b606082015260800190565b60208082526031908201525f80516020611bd28339815191526040820152701b9bdd081899595b88195e1958dd5d1959607a1b606082015260800190565b6020808252603a908201527f63616c6c6572206973206e6f742061207369676e657220666f7220746865207360408201527f656c6563746564206d756c7469207369672070726f706f73616c000000000000606082015260800190565b80820281158282048414176103d4576103d4611786565b5f82611a5557634e487b7160e01b5f52601260045260245ffd5b500490565b5f5b83811015611a74578181015183820152602001611a5c565b50505f910152565b5f8151808452611a93816020860160208601611a5a565b601f01601f19169290920160200192915050565b602081525f610fe26020830184611a7c565b5f8251611aca818460208701611a5a565b9190910192915050565b604081525f611ae66040830185611a7c565b8281036020840152611af88185611a7c565b95945050505050565b7f416363657373436f6e74726f6c3a206163636f756e742000000000000000000081525f8351611b38816017850160208801611a5a565b7001034b99036b4b9b9b4b733903937b6329607d1b6017918401918201528351611b69816028840160208801611a5a565b01602801949350505050565b818103818111156103d4576103d4611786565b634e487b7160e01b5f52603160045260245ffd5b5f81611baa57611baa611786565b505f19019056fe47591fe9b3890b87c7c043cb927ef194625cccad01ddfc64c8238b926e67749073656c6563746564206d756c7469207369672070726f706f73616c2068617320a2646970667358221220ff9c8a19108883434d9d96637beaf9c3eacd81e1a317529ab49ba3b0f6e1af4564736f6c63430008140033",
					"opcodes": "PUSH1 0x80 PUSH1 0x40 MSTORE CALLVALUE DUP1 ISZERO PUSH2 0xF JUMPI PUSH0 DUP1 REVERT JUMPDEST POP PUSH2 0x3A PUSH32 0x2172861495E7B85EDAC73E3CD5FBB42DD675BAADF627720E687BCFDACA025096 ADDRESS PUSH2 0x3F JUMP JUMPDEST PUSH2 0xDC JUMP JUMPDEST PUSH0 DUP3 DUP2 MSTORE PUSH1 0x20 DUP2 DUP2 MSTORE PUSH1 0x40 DUP1 DUP4 KECCAK256 PUSH1 0x1 PUSH1 0x1 PUSH1 0xA0 SHL SUB DUP6 AND DUP5 MSTORE SWAP1 SWAP2 MSTORE SWAP1 KECCAK256 SLOAD PUSH1 0xFF AND PUSH2 0xD8 JUMPI PUSH0 DUP3 DUP2 MSTORE PUSH1 0x20 DUP2 DUP2 MSTORE PUSH1 0x40 DUP1 DUP4 KECCAK256 PUSH1 0x1 PUSH1 0x1 PUSH1 0xA0 SHL SUB DUP6 AND DUP5 MSTORE SWAP1 SWAP2 MSTORE SWAP1 KECCAK256 DUP1 SLOAD PUSH1 0xFF NOT AND PUSH1 0x1 OR SWAP1 SSTORE PUSH2 0x97 CALLER SWAP1 JUMP JUMPDEST PUSH1 0x1 PUSH1 0x1 PUSH1 0xA0 SHL SUB AND DUP2 PUSH1 0x1 PUSH1 0x1 PUSH1 0xA0 SHL SUB AND DUP4 PUSH32 0x2F8788117E7EFF1D82E926EC794901D17C78024A50270940304540A733656F0D PUSH1 0x40 MLOAD PUSH1 0x40 MLOAD DUP1 SWAP2 SUB SWAP1 LOG4 JUMPDEST POP POP JUMP JUMPDEST PUSH2 0x1C27 DUP1 PUSH2 0xE9 PUSH0 CODECOPY PUSH0 RETURN INVALID PUSH1 0x80 PUSH1 0x40 MSTORE CALLVALUE DUP1 ISZERO PUSH2 0xF JUMPI PUSH0 DUP1 REVERT JUMPDEST POP PUSH1 0x4 CALLDATASIZE LT PUSH2 0x13D JUMPI PUSH0 CALLDATALOAD PUSH1 0xE0 SHR DUP1 PUSH4 0xA006294F GT PUSH2 0xB4 JUMPI DUP1 PUSH4 0xD1A8DD2E GT PUSH2 0x79 JUMPI DUP1 PUSH4 0xD1A8DD2E EQ PUSH2 0x30A JUMPI DUP1 PUSH4 0xD391014B EQ PUSH2 0x31D JUMPI DUP1 PUSH4 0xD547741F EQ PUSH2 0x344 JUMPI DUP1 PUSH4 0xEF78463F EQ PUSH2 0x357 JUMPI DUP1 PUSH4 0xFC406A02 EQ PUSH2 0x36A JUMPI DUP1 PUSH4 0xFD7522E2 EQ PUSH2 0x37D JUMPI PUSH0 DUP1 REVERT JUMPDEST DUP1 PUSH4 0xA006294F EQ PUSH2 0x284 JUMPI DUP1 PUSH4 0xA217FDDF EQ PUSH2 0x297 JUMPI DUP1 PUSH4 0xC5BB8159 EQ PUSH2 0x29E JUMPI DUP1 PUSH4 0xC703278A EQ PUSH2 0x2C0 JUMPI DUP1 PUSH4 0xCFF92081 EQ PUSH2 0x2EB JUMPI PUSH0 DUP1 REVERT JUMPDEST DUP1 PUSH4 0x3BDD8A9B GT PUSH2 0x105 JUMPI DUP1 PUSH4 0x3BDD8A9B EQ PUSH2 0x1E8 JUMPI DUP1 PUSH4 0x6708A436 EQ PUSH2 0x1FB JUMPI DUP1 PUSH4 0x6A9F010B EQ PUSH2 0x20F JUMPI DUP1 PUSH4 0x6B1A242A EQ PUSH2 0x234 JUMPI DUP1 PUSH4 0x6D02CA9F EQ PUSH2 0x247 JUMPI DUP1 PUSH4 0x91D14854 EQ PUSH2 0x271 JUMPI PUSH0 DUP1 REVERT JUMPDEST DUP1 PUSH4 0x1FFC9A7 EQ PUSH2 0x141 JUMPI DUP1 PUSH4 0x2371B2CF EQ PUSH2 0x169 JUMPI DUP1 PUSH4 0x248A9CA3 EQ PUSH2 0x19E JUMPI DUP1 PUSH4 0x2F2FF15D EQ PUSH2 0x1C0 JUMPI DUP1 PUSH4 0x36568ABE EQ PUSH2 0x1D5 JUMPI JUMPDEST PUSH0 DUP1 REVERT JUMPDEST PUSH2 0x154 PUSH2 0x14F CALLDATASIZE PUSH1 0x4 PUSH2 0x150C JUMP JUMPDEST PUSH2 0x3A4 JUMP JUMPDEST PUSH1 0x40 MLOAD SWAP1 ISZERO ISZERO DUP2 MSTORE PUSH1 0x20 ADD JUMPDEST PUSH1 0x40 MLOAD DUP1 SWAP2 SUB SWAP1 RETURN JUMPDEST PUSH2 0x190 PUSH32 0x917A6160FA9B4361968CD14F786810932B4C8DBF43D8AEAEC262E7C931F27416 DUP2 JUMP JUMPDEST PUSH1 0x40 MLOAD SWAP1 DUP2 MSTORE PUSH1 0x20 ADD PUSH2 0x160 JUMP JUMPDEST PUSH2 0x190 PUSH2 0x1AC CALLDATASIZE PUSH1 0x4 PUSH2 0x1533 JUMP JUMPDEST PUSH0 SWAP1 DUP2 MSTORE PUSH1 0x20 DUP2 SWAP1 MSTORE PUSH1 0x40 SWAP1 KECCAK256 PUSH1 0x1 ADD SLOAD SWAP1 JUMP JUMPDEST PUSH2 0x1D3 PUSH2 0x1CE CALLDATASIZE PUSH1 0x4 PUSH2 0x1565 JUMP JUMPDEST PUSH2 0x3DA JUMP JUMPDEST STOP JUMPDEST PUSH2 0x1D3 PUSH2 0x1E3 CALLDATASIZE PUSH1 0x4 PUSH2 0x1565 JUMP JUMPDEST PUSH2 0x403 JUMP JUMPDEST PUSH2 0x1D3 PUSH2 0x1F6 CALLDATASIZE PUSH1 0x4 PUSH2 0x1640 JUMP JUMPDEST PUSH2 0x486 JUMP JUMPDEST PUSH2 0x190 PUSH0 DUP1 MLOAD PUSH1 0x20 PUSH2 0x1BB2 DUP4 CODECOPY DUP2 MLOAD SWAP2 MSTORE DUP2 JUMP JUMPDEST PUSH2 0x154 PUSH2 0x21D CALLDATASIZE PUSH1 0x4 PUSH2 0x1533 JUMP JUMPDEST PUSH0 SWAP1 DUP2 MSTORE PUSH1 0x2 PUSH1 0x20 MSTORE PUSH1 0x40 SWAP1 KECCAK256 PUSH1 0x3 ADD SLOAD PUSH1 0xFF AND SWAP1 JUMP JUMPDEST PUSH2 0x1D3 PUSH2 0x242 CALLDATASIZE PUSH1 0x4 PUSH2 0x1533 JUMP JUMPDEST PUSH2 0x6F6 JUMP JUMPDEST PUSH2 0x154 PUSH2 0x255 CALLDATASIZE PUSH1 0x4 PUSH2 0x1533 JUMP JUMPDEST PUSH0 SWAP1 DUP2 MSTORE PUSH1 0x2 PUSH1 0x20 MSTORE PUSH1 0x40 SWAP1 KECCAK256 PUSH1 0x3 ADD SLOAD PUSH2 0x100 SWAP1 DIV PUSH1 0xFF AND SWAP1 JUMP JUMPDEST PUSH2 0x154 PUSH2 0x27F CALLDATASIZE PUSH1 0x4 PUSH2 0x1565 JUMP JUMPDEST PUSH2 0x818 JUMP JUMPDEST PUSH2 0x1D3 PUSH2 0x292 CALLDATASIZE PUSH1 0x4 PUSH2 0x1533 JUMP JUMPDEST PUSH2 0x840 JUMP JUMPDEST PUSH2 0x190 PUSH0 DUP2 JUMP JUMPDEST PUSH2 0x190 PUSH2 0x2AC CALLDATASIZE PUSH1 0x4 PUSH2 0x1533 JUMP JUMPDEST PUSH0 SWAP1 DUP2 MSTORE PUSH1 0x2 PUSH1 0x20 MSTORE PUSH1 0x40 SWAP1 KECCAK256 PUSH1 0x1 ADD SLOAD SWAP1 JUMP JUMPDEST PUSH2 0x154 PUSH2 0x2CE CALLDATASIZE PUSH1 0x4 PUSH2 0x1533 JUMP JUMPDEST PUSH0 SWAP1 DUP2 MSTORE PUSH1 0x2 PUSH1 0x20 MSTORE PUSH1 0x40 SWAP1 KECCAK256 PUSH1 0x3 ADD SLOAD PUSH3 0x10000 SWAP1 DIV PUSH1 0xFF AND SWAP1 JUMP JUMPDEST PUSH2 0x190 PUSH2 0x2F9 CALLDATASIZE PUSH1 0x4 PUSH2 0x1533 JUMP JUMPDEST PUSH0 SWAP1 DUP2 MSTORE PUSH1 0x2 PUSH1 0x20 MSTORE PUSH1 0x40 SWAP1 KECCAK256 SLOAD SWAP1 JUMP JUMPDEST PUSH2 0x1D3 PUSH2 0x318 CALLDATASIZE PUSH1 0x4 PUSH2 0x174D JUMP JUMPDEST PUSH2 0x9C5 JUMP JUMPDEST PUSH2 0x190 PUSH32 0x2172861495E7B85EDAC73E3CD5FBB42DD675BAADF627720E687BCFDACA025096 DUP2 JUMP JUMPDEST PUSH2 0x1D3 PUSH2 0x352 CALLDATASIZE PUSH1 0x4 PUSH2 0x1565 JUMP JUMPDEST PUSH2 0xA4E JUMP JUMPDEST PUSH2 0x1D3 PUSH2 0x365 CALLDATASIZE PUSH1 0x4 PUSH2 0x1533 JUMP JUMPDEST PUSH2 0xA72 JUMP JUMPDEST PUSH2 0x154 PUSH2 0x378 CALLDATASIZE PUSH1 0x4 PUSH2 0x1533 JUMP JUMPDEST PUSH2 0xC43 JUMP JUMPDEST PUSH2 0x190 PUSH32 0xE892760268AB8265E73C67B2387F8E09C46BD3818C36EEBD25A5A4E862CF0318 DUP2 JUMP JUMPDEST PUSH0 PUSH1 0x1 PUSH1 0x1 PUSH1 0xE0 SHL SUB NOT DUP3 AND PUSH4 0x7965DB0B PUSH1 0xE0 SHL EQ DUP1 PUSH2 0x3D4 JUMPI POP PUSH4 0x1FFC9A7 PUSH1 0xE0 SHL PUSH1 0x1 PUSH1 0x1 PUSH1 0xE0 SHL SUB NOT DUP4 AND EQ JUMPDEST SWAP3 SWAP2 POP POP JUMP JUMPDEST PUSH0 DUP3 DUP2 MSTORE PUSH1 0x20 DUP2 SWAP1 MSTORE PUSH1 0x40 SWAP1 KECCAK256 PUSH1 0x1 ADD SLOAD PUSH2 0x3F4 DUP2 PUSH2 0xEDA JUMP JUMPDEST PUSH2 0x3FE DUP4 DUP4 PUSH2 0xEE7 JUMP JUMPDEST POP POP POP JUMP JUMPDEST PUSH1 0x1 PUSH1 0x1 PUSH1 0xA0 SHL SUB DUP2 AND CALLER EQ PUSH2 0x478 JUMPI PUSH1 0x40 MLOAD PUSH3 0x461BCD PUSH1 0xE5 SHL DUP2 MSTORE PUSH1 0x20 PUSH1 0x4 DUP3 ADD MSTORE PUSH1 0x2F PUSH1 0x24 DUP3 ADD MSTORE PUSH32 0x416363657373436F6E74726F6C3A2063616E206F6E6C792072656E6F756E6365 PUSH1 0x44 DUP3 ADD MSTORE PUSH15 0x103937B632B9903337B91039B2B633 PUSH1 0x89 SHL PUSH1 0x64 DUP3 ADD MSTORE PUSH1 0x84 ADD JUMPDEST PUSH1 0x40 MLOAD DUP1 SWAP2 SUB SWAP1 REVERT JUMPDEST PUSH2 0x482 DUP3 DUP3 PUSH2 0xF6A JUMP JUMPDEST POP POP JUMP JUMPDEST PUSH0 DUP1 MLOAD PUSH1 0x20 PUSH2 0x1BB2 DUP4 CODECOPY DUP2 MLOAD SWAP2 MSTORE PUSH2 0x49D DUP2 PUSH2 0xEDA JUMP JUMPDEST DUP7 MLOAD PUSH1 0x2 DUP2 LT ISZERO SWAP1 PUSH1 0x9 LT ISZERO DUP2 PUSH2 0x4ED JUMPI PUSH1 0x40 MLOAD PUSH3 0x461BCD PUSH1 0xE5 SHL DUP2 MSTORE PUSH1 0x20 PUSH1 0x4 DUP3 ADD MSTORE PUSH1 0x14 PUSH1 0x24 DUP3 ADD MSTORE PUSH20 0x39B4B3B732B939AF973632B733BA34101F1E9019 PUSH1 0x61 SHL PUSH1 0x44 DUP3 ADD MSTORE PUSH1 0x64 ADD PUSH2 0x46F JUMP JUMPDEST DUP1 PUSH2 0x531 JUMPI PUSH1 0x40 MLOAD PUSH3 0x461BCD PUSH1 0xE5 SHL DUP2 MSTORE PUSH1 0x20 PUSH1 0x4 DUP3 ADD MSTORE PUSH1 0x14 PUSH1 0x24 DUP3 ADD MSTORE PUSH20 0x7369676E6572735F2E6C656E677468203C3D2039 PUSH1 0x60 SHL PUSH1 0x44 DUP3 ADD MSTORE PUSH1 0x64 ADD PUSH2 0x46F JUMP JUMPDEST PUSH1 0x1 DUP1 PUSH0 DUP3 DUP3 SLOAD PUSH2 0x542 SWAP2 SWAP1 PUSH2 0x179A JUMP JUMPDEST SWAP1 SWAP2 SSTORE POP POP PUSH1 0x1 SLOAD PUSH1 0x40 DUP1 MLOAD PUSH2 0x120 DUP2 ADD SWAP1 SWAP2 MSTORE TIMESTAMP DUP1 DUP3 MSTORE SWAP2 SWAP1 PUSH1 0x20 DUP2 ADD PUSH2 0x56A DUP13 DUP6 PUSH2 0x179A JUMP JUMPDEST DUP2 MSTORE PUSH1 0x20 ADD DUP11 DUP2 MSTORE PUSH1 0x20 ADD PUSH0 ISZERO ISZERO DUP2 MSTORE PUSH1 0x20 ADD PUSH0 ISZERO ISZERO DUP2 MSTORE PUSH1 0x20 ADD PUSH0 ISZERO ISZERO DUP2 MSTORE PUSH1 0x20 ADD DUP10 PUSH1 0x1 PUSH1 0x1 PUSH1 0xA0 SHL SUB AND DUP2 MSTORE PUSH1 0x20 ADD DUP9 DUP2 MSTORE PUSH1 0x20 ADD DUP8 DUP2 MSTORE POP PUSH1 0x2 PUSH0 DUP4 DUP2 MSTORE PUSH1 0x20 ADD SWAP1 DUP2 MSTORE PUSH1 0x20 ADD PUSH0 KECCAK256 PUSH0 DUP3 ADD MLOAD DUP2 PUSH0 ADD SSTORE PUSH1 0x20 DUP3 ADD MLOAD DUP2 PUSH1 0x1 ADD SSTORE PUSH1 0x40 DUP3 ADD MLOAD DUP2 PUSH1 0x2 ADD SSTORE PUSH1 0x60 DUP3 ADD MLOAD DUP2 PUSH1 0x3 ADD PUSH0 PUSH2 0x100 EXP DUP2 SLOAD DUP2 PUSH1 0xFF MUL NOT AND SWAP1 DUP4 ISZERO ISZERO MUL OR SWAP1 SSTORE POP PUSH1 0x80 DUP3 ADD MLOAD DUP2 PUSH1 0x3 ADD PUSH1 0x1 PUSH2 0x100 EXP DUP2 SLOAD DUP2 PUSH1 0xFF MUL NOT AND SWAP1 DUP4 ISZERO ISZERO MUL OR SWAP1 SSTORE POP PUSH1 0xA0 DUP3 ADD MLOAD DUP2 PUSH1 0x3 ADD PUSH1 0x2 PUSH2 0x100 EXP DUP2 SLOAD DUP2 PUSH1 0xFF MUL NOT AND SWAP1 DUP4 ISZERO ISZERO MUL OR SWAP1 SSTORE POP PUSH1 0xC0 DUP3 ADD MLOAD DUP2 PUSH1 0x3 ADD PUSH1 0x3 PUSH2 0x100 EXP DUP2 SLOAD DUP2 PUSH1 0x1 PUSH1 0x1 PUSH1 0xA0 SHL SUB MUL NOT AND SWAP1 DUP4 PUSH1 0x1 PUSH1 0x1 PUSH1 0xA0 SHL SUB AND MUL OR SWAP1 SSTORE POP PUSH1 0xE0 DUP3 ADD MLOAD DUP2 PUSH1 0x4 ADD SWAP1 DUP2 PUSH2 0x674 SWAP2 SWAP1 PUSH2 0x1832 JUMP JUMPDEST POP PUSH2 0x100 DUP3 ADD MLOAD PUSH1 0x5 DUP3 ADD SWAP1 PUSH2 0x68A SWAP1 DUP3 PUSH2 0x1832 JUMP JUMPDEST POP SWAP1 POP POP PUSH0 JUMPDEST DUP12 MLOAD DUP2 LT ISZERO PUSH2 0x6E8 JUMPI PUSH2 0x6D5 DUP13 DUP3 DUP2 MLOAD DUP2 LT PUSH2 0x6AE JUMPI PUSH2 0x6AE PUSH2 0x18EE JUMP JUMPDEST PUSH1 0x20 MUL PUSH1 0x20 ADD ADD MLOAD PUSH1 0x3 PUSH0 DUP6 DUP2 MSTORE PUSH1 0x20 ADD SWAP1 DUP2 MSTORE PUSH1 0x20 ADD PUSH0 KECCAK256 PUSH2 0xFCE SWAP1 SWAP2 SWAP1 PUSH4 0xFFFFFFFF AND JUMP JUMPDEST POP DUP1 PUSH2 0x6E0 DUP2 PUSH2 0x1902 JUMP JUMPDEST SWAP2 POP POP PUSH2 0x690 JUMP JUMPDEST POP POP POP POP POP POP POP POP POP POP POP POP JUMP JUMPDEST PUSH0 DUP2 DUP2 MSTORE PUSH1 0x2 PUSH1 0x20 MSTORE PUSH1 0x40 SWAP1 KECCAK256 PUSH1 0x1 ADD SLOAD DUP2 SWAP1 TIMESTAMP LT DUP1 ISZERO SWAP1 PUSH2 0x72A JUMPI PUSH1 0x40 MLOAD PUSH3 0x461BCD PUSH1 0xE5 SHL DUP2 MSTORE PUSH1 0x4 ADD PUSH2 0x46F SWAP1 PUSH2 0x191A JUMP JUMPDEST PUSH0 DUP4 DUP2 MSTORE PUSH1 0x2 PUSH1 0x20 MSTORE PUSH1 0x40 SWAP1 KECCAK256 PUSH1 0x3 ADD SLOAD DUP4 SWAP1 PUSH1 0xFF AND DUP1 ISZERO PUSH2 0x75E JUMPI PUSH1 0x40 MLOAD PUSH3 0x461BCD PUSH1 0xE5 SHL DUP2 MSTORE PUSH1 0x4 ADD PUSH2 0x46F SWAP1 PUSH2 0x194E JUMP JUMPDEST PUSH0 DUP6 DUP2 MSTORE PUSH1 0x2 PUSH1 0x20 MSTORE PUSH1 0x40 SWAP1 KECCAK256 PUSH1 0x3 ADD SLOAD DUP6 SWAP1 PUSH2 0x100 SWAP1 DIV PUSH1 0xFF AND DUP1 ISZERO PUSH2 0x797 JUMPI PUSH1 0x40 MLOAD PUSH3 0x461BCD PUSH1 0xE5 SHL DUP2 MSTORE PUSH1 0x4 ADD PUSH2 0x46F SWAP1 PUSH2 0x1989 JUMP JUMPDEST PUSH0 DUP1 MLOAD PUSH1 0x20 PUSH2 0x1BB2 DUP4 CODECOPY DUP2 MLOAD SWAP2 MSTORE PUSH2 0x7AE DUP2 PUSH2 0xEDA JUMP JUMPDEST PUSH0 DUP9 DUP2 MSTORE PUSH1 0x2 PUSH1 0x20 MSTORE PUSH1 0x40 SWAP1 DUP2 SWAP1 KECCAK256 PUSH1 0x3 ADD DUP1 SLOAD PUSH1 0xFF NOT AND PUSH1 0x1 OR SWAP1 SSTORE MLOAD CALLER SWAP1 PUSH32 0x6F8D378FDFEFC2F30423FC5F253857BDEDECB65F6B917CB1A2216ECE60D86AD6 SWAP1 PUSH2 0x806 SWAP1 DUP12 SWAP1 TIMESTAMP SWAP1 SWAP2 DUP3 MSTORE PUSH1 0x20 DUP3 ADD MSTORE PUSH1 0x40 ADD SWAP1 JUMP JUMPDEST PUSH1 0x40 MLOAD DUP1 SWAP2 SUB SWAP1 LOG2 POP POP POP POP POP POP POP POP JUMP JUMPDEST PUSH0 SWAP2 DUP3 MSTORE PUSH1 0x20 DUP3 DUP2 MSTORE PUSH1 0x40 DUP1 DUP5 KECCAK256 PUSH1 0x1 PUSH1 0x1 PUSH1 0xA0 SHL SUB SWAP4 SWAP1 SWAP4 AND DUP5 MSTORE SWAP2 SWAP1 MSTORE SWAP1 KECCAK256 SLOAD PUSH1 0xFF AND SWAP1 JUMP JUMPDEST PUSH0 DUP2 DUP2 MSTORE PUSH1 0x2 PUSH1 0x20 MSTORE PUSH1 0x40 SWAP1 KECCAK256 PUSH1 0x1 ADD SLOAD DUP2 SWAP1 TIMESTAMP LT DUP1 ISZERO SWAP1 PUSH2 0x874 JUMPI PUSH1 0x40 MLOAD PUSH3 0x461BCD PUSH1 0xE5 SHL DUP2 MSTORE PUSH1 0x4 ADD PUSH2 0x46F SWAP1 PUSH2 0x191A JUMP JUMPDEST PUSH0 DUP4 DUP2 MSTORE PUSH1 0x2 PUSH1 0x20 MSTORE PUSH1 0x40 SWAP1 KECCAK256 PUSH1 0x3 ADD SLOAD DUP4 SWAP1 PUSH1 0xFF AND DUP1 ISZERO PUSH2 0x8A8 JUMPI PUSH1 0x40 MLOAD PUSH3 0x461BCD PUSH1 0xE5 SHL DUP2 MSTORE PUSH1 0x4 ADD PUSH2 0x46F SWAP1 PUSH2 0x194E JUMP JUMPDEST PUSH0 DUP6 DUP2 MSTORE PUSH1 0x4 PUSH1 0x20 MSTORE PUSH1 0x40 DUP2 KECCAK256 DUP7 SWAP2 SWAP1 PUSH2 0x8C2 SWAP1 CALLER PUSH2 0xFE9 JUMP JUMPDEST SWAP1 POP DUP1 PUSH2 0x92F JUMPI PUSH1 0x40 MLOAD PUSH3 0x461BCD PUSH1 0xE5 SHL DUP2 MSTORE PUSH1 0x20 PUSH1 0x4 DUP3 ADD MSTORE PUSH1 0x35 PUSH1 0x24 DUP3 ADD MSTORE PUSH32 0x63616C6C657220686173206E6F74207369676E656420666F722073656C656374 PUSH1 0x44 DUP3 ADD MSTORE PUSH21 0x1959081B5D5B1D1A481CDA59C81C1C9BDC1BDCD85B PUSH1 0x5A SHL PUSH1 0x64 DUP3 ADD MSTORE PUSH1 0x84 ADD PUSH2 0x46F JUMP JUMPDEST PUSH0 DUP8 DUP2 MSTORE PUSH1 0x3 PUSH1 0x20 MSTORE PUSH1 0x40 DUP2 KECCAK256 DUP9 SWAP2 SWAP1 PUSH2 0x949 SWAP1 CALLER PUSH2 0xFE9 JUMP JUMPDEST SWAP1 POP DUP1 PUSH2 0x968 JUMPI PUSH1 0x40 MLOAD PUSH3 0x461BCD PUSH1 0xE5 SHL DUP2 MSTORE PUSH1 0x4 ADD PUSH2 0x46F SWAP1 PUSH2 0x19C7 JUMP JUMPDEST PUSH0 DUP10 DUP2 MSTORE PUSH1 0x4 PUSH1 0x20 MSTORE PUSH1 0x40 SWAP1 KECCAK256 PUSH2 0x97F SWAP1 CALLER PUSH2 0x100A JUMP JUMPDEST POP PUSH1 0x40 DUP1 MLOAD DUP11 DUP2 MSTORE TIMESTAMP PUSH1 0x20 DUP3 ADD MSTORE CALLER SWAP2 PUSH32 0x3899555E234AF4B23CCD4D5CBB21BB3598913AAE9624D1EA8BA81ABA3D79C0AE SWAP2 ADD PUSH1 0x40 MLOAD DUP1 SWAP2 SUB SWAP1 LOG2 POP POP POP POP POP POP POP POP POP JUMP JUMPDEST PUSH32 0x2172861495E7B85EDAC73E3CD5FBB42DD675BAADF627720E687BCFDACA025096 PUSH2 0x9EF DUP2 PUSH2 0xEDA JUMP JUMPDEST PUSH1 0x1 PUSH1 0x1 PUSH1 0xA0 SHL SUB DUP4 AND PUSH0 DUP2 DUP2 MSTORE PUSH1 0x5 PUSH1 0x20 SWAP1 DUP2 MSTORE PUSH1 0x40 SWAP2 DUP3 SWAP1 KECCAK256 DUP1 SLOAD PUSH1 0xFF NOT AND DUP7 ISZERO ISZERO SWAP1 DUP2 OR SWAP1 SWAP2 SSTORE SWAP2 MLOAD SWAP2 DUP3 MSTORE PUSH32 0x886B99FABE6DC54ACE264FA831EA6F7E9B0FEE2B24308316F5C78EDCCD2CBD9A SWAP2 ADD PUSH1 0x40 MLOAD DUP1 SWAP2 SUB SWAP1 LOG2 POP POP POP JUMP JUMPDEST PUSH0 DUP3 DUP2 MSTORE PUSH1 0x20 DUP2 SWAP1 MSTORE PUSH1 0x40 SWAP1 KECCAK256 PUSH1 0x1 ADD SLOAD PUSH2 0xA68 DUP2 PUSH2 0xEDA JUMP JUMPDEST PUSH2 0x3FE DUP4 DUP4 PUSH2 0xF6A JUMP JUMPDEST PUSH0 DUP2 DUP2 MSTORE PUSH1 0x2 PUSH1 0x20 MSTORE PUSH1 0x40 SWAP1 KECCAK256 PUSH1 0x1 ADD SLOAD DUP2 SWAP1 TIMESTAMP LT DUP1 ISZERO SWAP1 PUSH2 0xAA6 JUMPI PUSH1 0x40 MLOAD PUSH3 0x461BCD PUSH1 0xE5 SHL DUP2 MSTORE PUSH1 0x4 ADD PUSH2 0x46F SWAP1 PUSH2 0x191A JUMP JUMPDEST PUSH0 DUP4 DUP2 MSTORE PUSH1 0x2 PUSH1 0x20 MSTORE PUSH1 0x40 SWAP1 KECCAK256 PUSH1 0x3 ADD SLOAD DUP4 SWAP1 PUSH1 0xFF AND DUP1 ISZERO PUSH2 0xADA JUMPI PUSH1 0x40 MLOAD PUSH3 0x461BCD PUSH1 0xE5 SHL DUP2 MSTORE PUSH1 0x4 ADD PUSH2 0x46F SWAP1 PUSH2 0x194E JUMP JUMPDEST PUSH0 DUP6 DUP2 MSTORE PUSH1 0x4 PUSH1 0x20 MSTORE PUSH1 0x40 DUP2 KECCAK256 DUP7 SWAP2 SWAP1 PUSH2 0xAF4 SWAP1 CALLER PUSH2 0xFE9 JUMP JUMPDEST SWAP1 POP DUP1 ISZERO PUSH2 0xB6A JUMPI PUSH1 0x40 MLOAD PUSH3 0x461BCD PUSH1 0xE5 SHL DUP2 MSTORE PUSH1 0x20 PUSH1 0x4 DUP3 ADD MSTORE PUSH1 0x39 PUSH1 0x24 DUP3 ADD MSTORE PUSH32 0x63616C6C65722068617320616C7265616479207369676E656420666F72207365 PUSH1 0x44 DUP3 ADD MSTORE PUSH32 0x6C6563746564206D756C7469207369672070726F706F73616C00000000000000 PUSH1 0x64 DUP3 ADD MSTORE PUSH1 0x84 ADD PUSH2 0x46F JUMP JUMPDEST PUSH0 DUP8 DUP2 MSTORE PUSH1 0x3 PUSH1 0x20 MSTORE PUSH1 0x40 DUP2 KECCAK256 DUP9 SWAP2 SWAP1 PUSH2 0xB84 SWAP1 CALLER PUSH2 0xFE9 JUMP JUMPDEST SWAP1 POP DUP1 PUSH2 0xBA3 JUMPI PUSH1 0x40 MLOAD PUSH3 0x461BCD PUSH1 0xE5 SHL DUP2 MSTORE PUSH1 0x4 ADD PUSH2 0x46F SWAP1 PUSH2 0x19C7 JUMP JUMPDEST PUSH0 DUP10 DUP2 MSTORE PUSH1 0x4 PUSH1 0x20 MSTORE PUSH1 0x40 SWAP1 KECCAK256 PUSH2 0xBBA SWAP1 CALLER PUSH2 0xFCE JUMP JUMPDEST POP PUSH1 0x40 DUP1 MLOAD DUP11 DUP2 MSTORE TIMESTAMP PUSH1 0x20 DUP3 ADD MSTORE CALLER SWAP2 PUSH32 0x65C6A5495C336C3B8AFF2BEA37F4D8440FDB0A2C30C23C1A0DB4A659856C0CFC SWAP2 ADD PUSH1 0x40 MLOAD DUP1 SWAP2 SUB SWAP1 LOG2 PUSH0 DUP10 DUP2 MSTORE PUSH1 0x4 PUSH1 0x20 MSTORE PUSH1 0x40 DUP2 KECCAK256 PUSH2 0xC0B SWAP1 PUSH2 0x101E JUMP JUMPDEST PUSH0 DUP12 DUP2 MSTORE PUSH1 0x3 PUSH1 0x20 MSTORE PUSH1 0x40 SWAP1 KECCAK256 PUSH2 0xC21 SWAP1 PUSH2 0x101E JUMP JUMPDEST PUSH2 0xC2C SWAP1 PUSH1 0x64 PUSH2 0x1A24 JUMP JUMPDEST PUSH2 0xC36 SWAP2 SWAP1 PUSH2 0x1A3B JUMP JUMPDEST POP POP POP POP POP POP POP POP POP POP POP JUMP JUMPDEST PUSH0 DUP2 DUP2 MSTORE PUSH1 0x2 PUSH1 0x20 MSTORE PUSH1 0x40 DUP2 KECCAK256 PUSH1 0x1 ADD SLOAD DUP3 SWAP1 TIMESTAMP LT DUP1 ISZERO SWAP1 PUSH2 0xC77 JUMPI PUSH1 0x40 MLOAD PUSH3 0x461BCD PUSH1 0xE5 SHL DUP2 MSTORE PUSH1 0x4 ADD PUSH2 0x46F SWAP1 PUSH2 0x191A JUMP JUMPDEST PUSH0 DUP5 DUP2 MSTORE PUSH1 0x2 PUSH1 0x20 MSTORE PUSH1 0x40 SWAP1 KECCAK256 PUSH1 0x3 ADD SLOAD DUP5 SWAP1 PUSH1 0xFF AND DUP1 ISZERO PUSH2 0xCAB JUMPI PUSH1 0x40 MLOAD PUSH3 0x461BCD PUSH1 0xE5 SHL DUP2 MSTORE PUSH1 0x4 ADD PUSH2 0x46F SWAP1 PUSH2 0x194E JUMP JUMPDEST PUSH0 DUP7 DUP2 MSTORE PUSH1 0x2 PUSH1 0x20 MSTORE PUSH1 0x40 SWAP1 KECCAK256 PUSH1 0x3 ADD SLOAD DUP7 SWAP1 PUSH3 0x10000 SWAP1 DIV PUSH1 0xFF AND DUP1 PUSH2 0xD19 JUMPI PUSH1 0x40 MLOAD PUSH3 0x461BCD PUSH1 0xE5 SHL DUP2 MSTORE PUSH1 0x20 PUSH1 0x4 DUP3 ADD MSTORE PUSH1 0x2F PUSH1 0x24 DUP3 ADD MSTORE PUSH0 DUP1 MLOAD PUSH1 0x20 PUSH2 0x1BD2 DUP4 CODECOPY DUP2 MLOAD SWAP2 MSTORE PUSH1 0x44 DUP3 ADD MSTORE PUSH15 0x1B9BDD081899595B881C185CDCD959 PUSH1 0x8A SHL PUSH1 0x64 DUP3 ADD MSTORE PUSH1 0x84 ADD PUSH2 0x46F JUMP JUMPDEST PUSH0 DUP9 DUP2 MSTORE PUSH1 0x2 PUSH1 0x20 MSTORE PUSH1 0x40 SWAP1 KECCAK256 PUSH1 0x3 ADD SLOAD DUP9 SWAP1 PUSH2 0x100 SWAP1 DIV PUSH1 0xFF AND DUP1 ISZERO PUSH2 0xD52 JUMPI PUSH1 0x40 MLOAD PUSH3 0x461BCD PUSH1 0xE5 SHL DUP2 MSTORE PUSH1 0x4 ADD PUSH2 0x46F SWAP1 PUSH2 0x1989 JUMP JUMPDEST PUSH0 DUP1 MLOAD PUSH1 0x20 PUSH2 0x1BB2 DUP4 CODECOPY DUP2 MLOAD SWAP2 MSTORE PUSH2 0xD69 DUP2 PUSH2 0xEDA JUMP JUMPDEST PUSH0 DUP12 DUP2 MSTORE PUSH1 0x2 PUSH1 0x20 MSTORE PUSH1 0x40 DUP2 KECCAK256 PUSH1 0x3 DUP2 ADD SLOAD PUSH1 0x4 SWAP1 SWAP2 ADD DUP1 SLOAD PUSH4 0x1000000 SWAP1 SWAP3 DIV PUSH1 0x1 PUSH1 0x1 PUSH1 0xA0 SHL SUB AND SWAP3 SWAP2 PUSH2 0xD9E SWAP1 PUSH2 0x17AD JUMP JUMPDEST DUP1 PUSH1 0x1F ADD PUSH1 0x20 DUP1 SWAP2 DIV MUL PUSH1 0x20 ADD PUSH1 0x40 MLOAD SWAP1 DUP2 ADD PUSH1 0x40 MSTORE DUP1 SWAP3 SWAP2 SWAP1 DUP2 DUP2 MSTORE PUSH1 0x20 ADD DUP3 DUP1 SLOAD PUSH2 0xDCA SWAP1 PUSH2 0x17AD JUMP JUMPDEST DUP1 ISZERO PUSH2 0xE15 JUMPI DUP1 PUSH1 0x1F LT PUSH2 0xDEC JUMPI PUSH2 0x100 DUP1 DUP4 SLOAD DIV MUL DUP4 MSTORE SWAP2 PUSH1 0x20 ADD SWAP2 PUSH2 0xE15 JUMP JUMPDEST DUP3 ADD SWAP2 SWAP1 PUSH0 MSTORE PUSH1 0x20 PUSH0 KECCAK256 SWAP1 JUMPDEST DUP2 SLOAD DUP2 MSTORE SWAP1 PUSH1 0x1 ADD SWAP1 PUSH1 0x20 ADD DUP1 DUP4 GT PUSH2 0xDF8 JUMPI DUP3 SWAP1 SUB PUSH1 0x1F AND DUP3 ADD SWAP2 JUMPDEST POP POP POP POP POP SWAP1 POP PUSH0 PUSH1 0x2 PUSH0 DUP16 DUP2 MSTORE PUSH1 0x20 ADD SWAP1 DUP2 MSTORE PUSH1 0x20 ADD PUSH0 KECCAK256 PUSH1 0x5 ADD DUP1 SLOAD PUSH2 0xE3C SWAP1 PUSH2 0x17AD JUMP JUMPDEST DUP1 PUSH1 0x1F ADD PUSH1 0x20 DUP1 SWAP2 DIV MUL PUSH1 0x20 ADD PUSH1 0x40 MLOAD SWAP1 DUP2 ADD PUSH1 0x40 MSTORE DUP1 SWAP3 SWAP2 SWAP1 DUP2 DUP2 MSTORE PUSH1 0x20 ADD DUP3 DUP1 SLOAD PUSH2 0xE68 SWAP1 PUSH2 0x17AD JUMP JUMPDEST DUP1 ISZERO PUSH2 0xEB3 JUMPI DUP1 PUSH1 0x1F LT PUSH2 0xE8A JUMPI PUSH2 0x100 DUP1 DUP4 SLOAD DIV MUL DUP4 MSTORE SWAP2 PUSH1 0x20 ADD SWAP2 PUSH2 0xEB3 JUMP JUMPDEST DUP3 ADD SWAP2 SWAP1 PUSH0 MSTORE PUSH1 0x20 PUSH0 KECCAK256 SWAP1 JUMPDEST DUP2 SLOAD DUP2 MSTORE SWAP1 PUSH1 0x1 ADD SWAP1 PUSH1 0x20 ADD DUP1 DUP4 GT PUSH2 0xE96 JUMPI DUP3 SWAP1 SUB PUSH1 0x1F AND DUP3 ADD SWAP2 JUMPDEST POP POP POP POP POP SWAP1 POP PUSH2 0xEC5 DUP4 DUP4 DUP4 PUSH2 0x1027 JUMP JUMPDEST POP PUSH1 0x1 SWAP15 SWAP14 POP POP POP POP POP POP POP POP POP POP POP POP POP POP JUMP JUMPDEST PUSH2 0xEE4 DUP2 CALLER PUSH2 0x11DC JUMP JUMPDEST POP JUMP JUMPDEST PUSH2 0xEF1 DUP3 DUP3 PUSH2 0x818 JUMP JUMPDEST PUSH2 0x482 JUMPI PUSH0 DUP3 DUP2 MSTORE PUSH1 0x20 DUP2 DUP2 MSTORE PUSH1 0x40 DUP1 DUP4 KECCAK256 PUSH1 0x1 PUSH1 0x1 PUSH1 0xA0 SHL SUB DUP6 AND DUP5 MSTORE SWAP1 SWAP2 MSTORE SWAP1 KECCAK256 DUP1 SLOAD PUSH1 0xFF NOT AND PUSH1 0x1 OR SWAP1 SSTORE PUSH2 0xF26 CALLER SWAP1 JUMP JUMPDEST PUSH1 0x1 PUSH1 0x1 PUSH1 0xA0 SHL SUB AND DUP2 PUSH1 0x1 PUSH1 0x1 PUSH1 0xA0 SHL SUB AND DUP4 PUSH32 0x2F8788117E7EFF1D82E926EC794901D17C78024A50270940304540A733656F0D PUSH1 0x40 MLOAD PUSH1 0x40 MLOAD DUP1 SWAP2 SUB SWAP1 LOG4 POP POP JUMP JUMPDEST PUSH2 0xF74 DUP3 DUP3 PUSH2 0x818 JUMP JUMPDEST ISZERO PUSH2 0x482 JUMPI PUSH0 DUP3 DUP2 MSTORE PUSH1 0x20 DUP2 DUP2 MSTORE PUSH1 0x40 DUP1 DUP4 KECCAK256 PUSH1 0x1 PUSH1 0x1 PUSH1 0xA0 SHL SUB DUP6 AND DUP1 DUP6 MSTORE SWAP3 MSTORE DUP1 DUP4 KECCAK256 DUP1 SLOAD PUSH1 0xFF NOT AND SWAP1 SSTORE MLOAD CALLER SWAP3 DUP6 SWAP2 PUSH32 0xF6391F5C32D9C69D2A47EA670B442974B53935D1EDC7FD64EB21E047A839171B SWAP2 SWAP1 LOG4 POP POP JUMP JUMPDEST PUSH0 PUSH2 0xFE2 DUP4 PUSH1 0x1 PUSH1 0x1 PUSH1 0xA0 SHL SUB DUP5 AND PUSH2 0x1235 JUMP JUMPDEST SWAP4 SWAP3 POP POP POP JUMP JUMPDEST PUSH1 0x1 PUSH1 0x1 PUSH1 0xA0 SHL SUB DUP2 AND PUSH0 SWAP1 DUP2 MSTORE PUSH1 0x1 DUP4 ADD PUSH1 0x20 MSTORE PUSH1 0x40 DUP2 KECCAK256 SLOAD ISZERO ISZERO PUSH2 0xFE2 JUMP JUMPDEST PUSH0 PUSH2 0xFE2 DUP4 PUSH1 0x1 PUSH1 0x1 PUSH1 0xA0 SHL SUB DUP5 AND PUSH2 0x1281 JUMP JUMPDEST PUSH0 PUSH2 0x3D4 DUP3 SLOAD SWAP1 JUMP JUMPDEST PUSH1 0x1 PUSH1 0x1 PUSH1 0xA0 SHL SUB DUP4 AND PUSH0 SWAP1 DUP2 MSTORE PUSH1 0x5 PUSH1 0x20 MSTORE PUSH1 0x40 DUP2 KECCAK256 SLOAD DUP5 SWAP1 PUSH1 0xFF AND PUSH2 0x1090 JUMPI PUSH1 0x40 MLOAD PUSH3 0x461BCD PUSH1 0xE5 SHL DUP2 MSTORE PUSH1 0x20 PUSH1 0x4 DUP3 ADD MSTORE PUSH1 0x1B PUSH1 0x24 DUP3 ADD MSTORE PUSH32 0x636F6E7472616374206973206E6F742077686974656C69737465640000000000 PUSH1 0x44 DUP3 ADD MSTORE PUSH1 0x64 ADD PUSH2 0x46F JUMP JUMPDEST PUSH0 DUP6 PUSH1 0x1 PUSH1 0x1 PUSH1 0xA0 SHL SUB AND DUP6 DUP6 PUSH1 0x40 MLOAD PUSH1 0x24 ADD PUSH2 0x10AD SWAP2 SWAP1 PUSH2 0x1AA7 JUMP JUMPDEST PUSH1 0x40 DUP1 MLOAD PUSH1 0x1F NOT DUP2 DUP5 SUB ADD DUP2 MSTORE SWAP1 DUP3 SWAP1 MSTORE SWAP2 PUSH2 0x10C8 SWAP2 PUSH2 0x1AB9 JUMP JUMPDEST PUSH1 0x40 DUP1 MLOAD SWAP2 DUP3 SWAP1 SUB SWAP1 SWAP2 KECCAK256 PUSH1 0x20 DUP4 ADD DUP1 MLOAD PUSH1 0x1 PUSH1 0x1 PUSH1 0xE0 SHL SUB AND PUSH1 0x1 PUSH1 0x1 PUSH1 0xE0 SHL SUB NOT SWAP1 SWAP3 AND SWAP2 SWAP1 SWAP2 OR SWAP1 MSTORE MLOAD PUSH2 0x10FF SWAP2 SWAP1 PUSH2 0x1AB9 JUMP JUMPDEST PUSH0 PUSH1 0x40 MLOAD DUP1 DUP4 SUB DUP2 DUP6 GAS DELEGATECALL SWAP2 POP POP RETURNDATASIZE DUP1 PUSH0 DUP2 EQ PUSH2 0x1137 JUMPI PUSH1 0x40 MLOAD SWAP2 POP PUSH1 0x1F NOT PUSH1 0x3F RETURNDATASIZE ADD AND DUP3 ADD PUSH1 0x40 MSTORE RETURNDATASIZE DUP3 MSTORE RETURNDATASIZE PUSH0 PUSH1 0x20 DUP5 ADD RETURNDATACOPY PUSH2 0x113C JUMP JUMPDEST PUSH1 0x60 SWAP2 POP JUMPDEST POP POP SWAP1 POP DUP1 PUSH2 0x118D JUMPI PUSH1 0x40 MLOAD PUSH3 0x461BCD PUSH1 0xE5 SHL DUP2 MSTORE PUSH1 0x20 PUSH1 0x4 DUP3 ADD MSTORE PUSH1 0x17 PUSH1 0x24 DUP3 ADD MSTORE PUSH32 0x63616C6C20776173206E6F74207375636365737366756C000000000000000000 PUSH1 0x44 DUP3 ADD MSTORE PUSH1 0x64 ADD PUSH2 0x46F JUMP JUMPDEST DUP6 PUSH1 0x1 PUSH1 0x1 PUSH1 0xA0 SHL SUB AND PUSH32 0x252691DD33F541D0DF9A4B90B1E016C53C8CF013A20E926499FF41A6B3908D88 DUP7 DUP7 PUSH1 0x40 MLOAD PUSH2 0x11C8 SWAP3 SWAP2 SWAP1 PUSH2 0x1AD4 JUMP JUMPDEST PUSH1 0x40 MLOAD DUP1 SWAP2 SUB SWAP1 LOG2 POP PUSH1 0x1 SWAP6 SWAP5 POP POP POP POP POP JUMP JUMPDEST PUSH2 0x11E6 DUP3 DUP3 PUSH2 0x818 JUMP JUMPDEST PUSH2 0x482 JUMPI PUSH2 0x11F3 DUP2 PUSH2 0x1364 JUMP JUMPDEST PUSH2 0x11FE DUP4 PUSH1 0x20 PUSH2 0x1376 JUMP JUMPDEST PUSH1 0x40 MLOAD PUSH1 0x20 ADD PUSH2 0x120F SWAP3 SWAP2 SWAP1 PUSH2 0x1B01 JUMP JUMPDEST PUSH1 0x40 DUP1 MLOAD PUSH1 0x1F NOT DUP2 DUP5 SUB ADD DUP2 MSTORE SWAP1 DUP3 SWAP1 MSTORE PUSH3 0x461BCD PUSH1 0xE5 SHL DUP3 MSTORE PUSH2 0x46F SWAP2 PUSH1 0x4 ADD PUSH2 0x1AA7 JUMP JUMPDEST PUSH0 DUP2 DUP2 MSTORE PUSH1 0x1 DUP4 ADD PUSH1 0x20 MSTORE PUSH1 0x40 DUP2 KECCAK256 SLOAD PUSH2 0x127A JUMPI POP DUP2 SLOAD PUSH1 0x1 DUP2 DUP2 ADD DUP5 SSTORE PUSH0 DUP5 DUP2 MSTORE PUSH1 0x20 DUP1 DUP3 KECCAK256 SWAP1 SWAP4 ADD DUP5 SWAP1 SSTORE DUP5 SLOAD DUP5 DUP3 MSTORE DUP3 DUP7 ADD SWAP1 SWAP4 MSTORE PUSH1 0x40 SWAP1 KECCAK256 SWAP2 SWAP1 SWAP2 SSTORE PUSH2 0x3D4 JUMP JUMPDEST POP PUSH0 PUSH2 0x3D4 JUMP JUMPDEST PUSH0 DUP2 DUP2 MSTORE PUSH1 0x1 DUP4 ADD PUSH1 0x20 MSTORE PUSH1 0x40 DUP2 KECCAK256 SLOAD DUP1 ISZERO PUSH2 0x135B JUMPI PUSH0 PUSH2 0x12A3 PUSH1 0x1 DUP4 PUSH2 0x1B75 JUMP JUMPDEST DUP6 SLOAD SWAP1 SWAP2 POP PUSH0 SWAP1 PUSH2 0x12B6 SWAP1 PUSH1 0x1 SWAP1 PUSH2 0x1B75 JUMP JUMPDEST SWAP1 POP DUP2 DUP2 EQ PUSH2 0x1315 JUMPI PUSH0 DUP7 PUSH0 ADD DUP3 DUP2 SLOAD DUP2 LT PUSH2 0x12D4 JUMPI PUSH2 0x12D4 PUSH2 0x18EE JUMP JUMPDEST SWAP1 PUSH0 MSTORE PUSH1 0x20 PUSH0 KECCAK256 ADD SLOAD SWAP1 POP DUP1 DUP8 PUSH0 ADD DUP5 DUP2 SLOAD DUP2 LT PUSH2 0x12F4 JUMPI PUSH2 0x12F4 PUSH2 0x18EE JUMP JUMPDEST PUSH0 SWAP2 DUP3 MSTORE PUSH1 0x20 DUP1 DUP4 KECCAK256 SWAP1 SWAP2 ADD SWAP3 SWAP1 SWAP3 SSTORE SWAP2 DUP3 MSTORE PUSH1 0x1 DUP9 ADD SWAP1 MSTORE PUSH1 0x40 SWAP1 KECCAK256 DUP4 SWAP1 SSTORE JUMPDEST DUP6 SLOAD DUP7 SWAP1 DUP1 PUSH2 0x1326 JUMPI PUSH2 0x1326 PUSH2 0x1B88 JUMP JUMPDEST PUSH1 0x1 SWAP1 SUB DUP2 DUP2 SWAP1 PUSH0 MSTORE PUSH1 0x20 PUSH0 KECCAK256 ADD PUSH0 SWAP1 SSTORE SWAP1 SSTORE DUP6 PUSH1 0x1 ADD PUSH0 DUP7 DUP2 MSTORE PUSH1 0x20 ADD SWAP1 DUP2 MSTORE PUSH1 0x20 ADD PUSH0 KECCAK256 PUSH0 SWAP1 SSTORE PUSH1 0x1 SWAP4 POP POP POP POP PUSH2 0x3D4 JUMP JUMPDEST PUSH0 SWAP2 POP POP PUSH2 0x3D4 JUMP JUMPDEST PUSH1 0x60 PUSH2 0x3D4 PUSH1 0x1 PUSH1 0x1 PUSH1 0xA0 SHL SUB DUP4 AND PUSH1 0x14 JUMPDEST PUSH1 0x60 PUSH0 PUSH2 0x1384 DUP4 PUSH1 0x2 PUSH2 0x1A24 JUMP JUMPDEST PUSH2 0x138F SWAP1 PUSH1 0x2 PUSH2 0x179A JUMP JUMPDEST PUSH8 0xFFFFFFFFFFFFFFFF DUP2 GT ISZERO PUSH2 0x13A7 JUMPI PUSH2 0x13A7 PUSH2 0x158F JUMP JUMPDEST PUSH1 0x40 MLOAD SWAP1 DUP1 DUP3 MSTORE DUP1 PUSH1 0x1F ADD PUSH1 0x1F NOT AND PUSH1 0x20 ADD DUP3 ADD PUSH1 0x40 MSTORE DUP1 ISZERO PUSH2 0x13D1 JUMPI PUSH1 0x20 DUP3 ADD DUP2 DUP1 CALLDATASIZE DUP4 CALLDATACOPY ADD SWAP1 POP JUMPDEST POP SWAP1 POP PUSH1 0x3 PUSH1 0xFC SHL DUP2 PUSH0 DUP2 MLOAD DUP2 LT PUSH2 0x13EB JUMPI PUSH2 0x13EB PUSH2 0x18EE JUMP JUMPDEST PUSH1 0x20 ADD ADD SWAP1 PUSH1 0x1 PUSH1 0x1 PUSH1 0xF8 SHL SUB NOT AND SWAP1 DUP2 PUSH0 BYTE SWAP1 MSTORE8 POP PUSH1 0xF PUSH1 0xFB SHL DUP2 PUSH1 0x1 DUP2 MLOAD DUP2 LT PUSH2 0x1419 JUMPI PUSH2 0x1419 PUSH2 0x18EE JUMP JUMPDEST PUSH1 0x20 ADD ADD SWAP1 PUSH1 0x1 PUSH1 0x1 PUSH1 0xF8 SHL SUB NOT AND SWAP1 DUP2 PUSH0 BYTE SWAP1 MSTORE8 POP PUSH0 PUSH2 0x143B DUP5 PUSH1 0x2 PUSH2 0x1A24 JUMP JUMPDEST PUSH2 0x1446 SWAP1 PUSH1 0x1 PUSH2 0x179A JUMP JUMPDEST SWAP1 POP JUMPDEST PUSH1 0x1 DUP2 GT ISZERO PUSH2 0x14BD JUMPI PUSH16 0x181899199A1A9B1B9C1CB0B131B232B3 PUSH1 0x81 SHL DUP6 PUSH1 0xF AND PUSH1 0x10 DUP2 LT PUSH2 0x147A JUMPI PUSH2 0x147A PUSH2 0x18EE JUMP JUMPDEST BYTE PUSH1 0xF8 SHL DUP3 DUP3 DUP2 MLOAD DUP2 LT PUSH2 0x1490 JUMPI PUSH2 0x1490 PUSH2 0x18EE JUMP JUMPDEST PUSH1 0x20 ADD ADD SWAP1 PUSH1 0x1 PUSH1 0x1 PUSH1 0xF8 SHL SUB NOT AND SWAP1 DUP2 PUSH0 BYTE SWAP1 MSTORE8 POP PUSH1 0x4 SWAP5 SWAP1 SWAP5 SHR SWAP4 PUSH2 0x14B6 DUP2 PUSH2 0x1B9C JUMP JUMPDEST SWAP1 POP PUSH2 0x1449 JUMP JUMPDEST POP DUP4 ISZERO PUSH2 0xFE2 JUMPI PUSH1 0x40 MLOAD PUSH3 0x461BCD PUSH1 0xE5 SHL DUP2 MSTORE PUSH1 0x20 PUSH1 0x4 DUP3 ADD DUP2 SWAP1 MSTORE PUSH1 0x24 DUP3 ADD MSTORE PUSH32 0x537472696E67733A20686578206C656E67746820696E73756666696369656E74 PUSH1 0x44 DUP3 ADD MSTORE PUSH1 0x64 ADD PUSH2 0x46F JUMP JUMPDEST PUSH0 PUSH1 0x20 DUP3 DUP5 SUB SLT ISZERO PUSH2 0x151C JUMPI PUSH0 DUP1 REVERT JUMPDEST DUP2 CALLDATALOAD PUSH1 0x1 PUSH1 0x1 PUSH1 0xE0 SHL SUB NOT DUP2 AND DUP2 EQ PUSH2 0xFE2 JUMPI PUSH0 DUP1 REVERT JUMPDEST PUSH0 PUSH1 0x20 DUP3 DUP5 SUB SLT ISZERO PUSH2 0x1543 JUMPI PUSH0 DUP1 REVERT JUMPDEST POP CALLDATALOAD SWAP2 SWAP1 POP JUMP JUMPDEST DUP1 CALLDATALOAD PUSH1 0x1 PUSH1 0x1 PUSH1 0xA0 SHL SUB DUP2 AND DUP2 EQ PUSH2 0x1560 JUMPI PUSH0 DUP1 REVERT JUMPDEST SWAP2 SWAP1 POP JUMP JUMPDEST PUSH0 DUP1 PUSH1 0x40 DUP4 DUP6 SUB SLT ISZERO PUSH2 0x1576 JUMPI PUSH0 DUP1 REVERT JUMPDEST DUP3 CALLDATALOAD SWAP2 POP PUSH2 0x1586 PUSH1 0x20 DUP5 ADD PUSH2 0x154A JUMP JUMPDEST SWAP1 POP SWAP3 POP SWAP3 SWAP1 POP JUMP JUMPDEST PUSH4 0x4E487B71 PUSH1 0xE0 SHL PUSH0 MSTORE PUSH1 0x41 PUSH1 0x4 MSTORE PUSH1 0x24 PUSH0 REVERT JUMPDEST PUSH1 0x40 MLOAD PUSH1 0x1F DUP3 ADD PUSH1 0x1F NOT AND DUP2 ADD PUSH8 0xFFFFFFFFFFFFFFFF DUP2 GT DUP3 DUP3 LT OR ISZERO PUSH2 0x15CC JUMPI PUSH2 0x15CC PUSH2 0x158F JUMP JUMPDEST PUSH1 0x40 MSTORE SWAP2 SWAP1 POP JUMP JUMPDEST PUSH0 DUP3 PUSH1 0x1F DUP4 ADD SLT PUSH2 0x15E3 JUMPI PUSH0 DUP1 REVERT JUMPDEST DUP2 CALLDATALOAD PUSH8 0xFFFFFFFFFFFFFFFF DUP2 GT ISZERO PUSH2 0x15FD JUMPI PUSH2 0x15FD PUSH2 0x158F JUMP JUMPDEST PUSH2 0x1610 PUSH1 0x1F DUP3 ADD PUSH1 0x1F NOT AND PUSH1 0x20 ADD PUSH2 0x15A3 JUMP JUMPDEST DUP2 DUP2 MSTORE DUP5 PUSH1 0x20 DUP4 DUP7 ADD ADD GT ISZERO PUSH2 0x1624 JUMPI PUSH0 DUP1 REVERT JUMPDEST DUP2 PUSH1 0x20 DUP6 ADD PUSH1 0x20 DUP4 ADD CALLDATACOPY PUSH0 SWAP2 DUP2 ADD PUSH1 0x20 ADD SWAP2 SWAP1 SWAP2 MSTORE SWAP4 SWAP3 POP POP POP JUMP JUMPDEST PUSH0 DUP1 PUSH0 DUP1 PUSH0 DUP1 PUSH1 0xC0 DUP8 DUP10 SUB SLT ISZERO PUSH2 0x1655 JUMPI PUSH0 DUP1 REVERT JUMPDEST DUP7 CALLDATALOAD PUSH8 0xFFFFFFFFFFFFFFFF DUP1 DUP3 GT ISZERO PUSH2 0x166C JUMPI PUSH0 DUP1 REVERT JUMPDEST DUP2 DUP10 ADD SWAP2 POP DUP10 PUSH1 0x1F DUP4 ADD SLT PUSH2 0x167F JUMPI PUSH0 DUP1 REVERT JUMPDEST DUP2 CALLDATALOAD PUSH1 0x20 DUP3 DUP3 GT ISZERO PUSH2 0x1693 JUMPI PUSH2 0x1693 PUSH2 0x158F JUMP JUMPDEST DUP2 PUSH1 0x5 SHL PUSH2 0x16A2 DUP3 DUP3 ADD PUSH2 0x15A3 JUMP JUMPDEST SWAP3 DUP4 MSTORE DUP5 DUP2 ADD DUP3 ADD SWAP3 DUP3 DUP2 ADD SWAP1 DUP15 DUP6 GT ISZERO PUSH2 0x16BB JUMPI PUSH0 DUP1 REVERT JUMPDEST SWAP6 DUP4 ADD SWAP6 JUMPDEST DUP5 DUP8 LT ISZERO PUSH2 0x16E0 JUMPI PUSH2 0x16D1 DUP8 PUSH2 0x154A JUMP JUMPDEST DUP3 MSTORE SWAP6 DUP4 ADD SWAP6 SWAP1 DUP4 ADD SWAP1 PUSH2 0x16C0 JUMP JUMPDEST SWAP12 POP POP POP DUP11 ADD CALLDATALOAD SWAP8 POP POP PUSH1 0x40 DUP10 ADD CALLDATALOAD SWAP6 POP PUSH2 0x16FD PUSH1 0x60 DUP11 ADD PUSH2 0x154A JUMP JUMPDEST SWAP5 POP PUSH1 0x80 DUP10 ADD CALLDATALOAD SWAP2 POP DUP1 DUP3 GT ISZERO PUSH2 0x1712 JUMPI PUSH0 DUP1 REVERT JUMPDEST PUSH2 0x171E DUP11 DUP4 DUP12 ADD PUSH2 0x15D4 JUMP JUMPDEST SWAP4 POP PUSH1 0xA0 DUP10 ADD CALLDATALOAD SWAP2 POP DUP1 DUP3 GT ISZERO PUSH2 0x1733 JUMPI PUSH0 DUP1 REVERT JUMPDEST POP PUSH2 0x1740 DUP10 DUP3 DUP11 ADD PUSH2 0x15D4 JUMP JUMPDEST SWAP2 POP POP SWAP3 SWAP6 POP SWAP3 SWAP6 POP SWAP3 SWAP6 JUMP JUMPDEST PUSH0 DUP1 PUSH1 0x40 DUP4 DUP6 SUB SLT ISZERO PUSH2 0x175E JUMPI PUSH0 DUP1 REVERT JUMPDEST PUSH2 0x1767 DUP4 PUSH2 0x154A JUMP JUMPDEST SWAP2 POP PUSH1 0x20 DUP4 ADD CALLDATALOAD DUP1 ISZERO ISZERO DUP2 EQ PUSH2 0x177B JUMPI PUSH0 DUP1 REVERT JUMPDEST DUP1 SWAP2 POP POP SWAP3 POP SWAP3 SWAP1 POP JUMP JUMPDEST PUSH4 0x4E487B71 PUSH1 0xE0 SHL PUSH0 MSTORE PUSH1 0x11 PUSH1 0x4 MSTORE PUSH1 0x24 PUSH0 REVERT JUMPDEST DUP1 DUP3 ADD DUP1 DUP3 GT ISZERO PUSH2 0x3D4 JUMPI PUSH2 0x3D4 PUSH2 0x1786 JUMP JUMPDEST PUSH1 0x1 DUP2 DUP2 SHR SWAP1 DUP3 AND DUP1 PUSH2 0x17C1 JUMPI PUSH1 0x7F DUP3 AND SWAP2 POP JUMPDEST PUSH1 0x20 DUP3 LT DUP2 SUB PUSH2 0x17DF JUMPI PUSH4 0x4E487B71 PUSH1 0xE0 SHL PUSH0 MSTORE PUSH1 0x22 PUSH1 0x4 MSTORE PUSH1 0x24 PUSH0 REVERT JUMPDEST POP SWAP2 SWAP1 POP JUMP JUMPDEST PUSH1 0x1F DUP3 GT ISZERO PUSH2 0x3FE JUMPI PUSH0 DUP2 DUP2 MSTORE PUSH1 0x20 DUP2 KECCAK256 PUSH1 0x1F DUP6 ADD PUSH1 0x5 SHR DUP2 ADD PUSH1 0x20 DUP7 LT ISZERO PUSH2 0x180B JUMPI POP DUP1 JUMPDEST PUSH1 0x1F DUP6 ADD PUSH1 0x5 SHR DUP3 ADD SWAP2 POP JUMPDEST DUP2 DUP2 LT ISZERO PUSH2 0x182A JUMPI DUP3 DUP2 SSTORE PUSH1 0x1 ADD PUSH2 0x1817 JUMP JUMPDEST POP POP POP POP POP POP JUMP JUMPDEST DUP2 MLOAD PUSH8 0xFFFFFFFFFFFFFFFF DUP2 GT ISZERO PUSH2 0x184C JUMPI PUSH2 0x184C PUSH2 0x158F JUMP JUMPDEST PUSH2 0x1860 DUP2 PUSH2 0x185A DUP5 SLOAD PUSH2 0x17AD JUMP JUMPDEST DUP5 PUSH2 0x17E5 JUMP JUMPDEST PUSH1 0x20 DUP1 PUSH1 0x1F DUP4 GT PUSH1 0x1 DUP2 EQ PUSH2 0x1893 JUMPI PUSH0 DUP5 ISZERO PUSH2 0x187C JUMPI POP DUP6 DUP4 ADD MLOAD JUMPDEST PUSH0 NOT PUSH1 0x3 DUP7 SWAP1 SHL SHR NOT AND PUSH1 0x1 DUP6 SWAP1 SHL OR DUP6 SSTORE PUSH2 0x182A JUMP JUMPDEST PUSH0 DUP6 DUP2 MSTORE PUSH1 0x20 DUP2 KECCAK256 PUSH1 0x1F NOT DUP7 AND SWAP2 JUMPDEST DUP3 DUP2 LT ISZERO PUSH2 0x18C1 JUMPI DUP9 DUP7 ADD MLOAD DUP3 SSTORE SWAP5 DUP5 ADD SWAP5 PUSH1 0x1 SWAP1 SWAP2 ADD SWAP1 DUP5 ADD PUSH2 0x18A2 JUMP JUMPDEST POP DUP6 DUP3 LT ISZERO PUSH2 0x18DE JUMPI DUP8 DUP6 ADD MLOAD PUSH0 NOT PUSH1 0x3 DUP9 SWAP1 SHL PUSH1 0xF8 AND SHR NOT AND DUP2 SSTORE JUMPDEST POP POP POP POP POP PUSH1 0x1 SWAP1 DUP2 SHL ADD SWAP1 SSTORE POP JUMP JUMPDEST PUSH4 0x4E487B71 PUSH1 0xE0 SHL PUSH0 MSTORE PUSH1 0x32 PUSH1 0x4 MSTORE PUSH1 0x24 PUSH0 REVERT JUMPDEST PUSH0 PUSH1 0x1 DUP3 ADD PUSH2 0x1913 JUMPI PUSH2 0x1913 PUSH2 0x1786 JUMP JUMPDEST POP PUSH1 0x1 ADD SWAP1 JUMP JUMPDEST PUSH1 0x20 DUP1 DUP3 MSTORE PUSH1 0x27 SWAP1 DUP3 ADD MSTORE PUSH0 DUP1 MLOAD PUSH1 0x20 PUSH2 0x1BD2 DUP4 CODECOPY DUP2 MLOAD SWAP2 MSTORE PUSH1 0x40 DUP3 ADD MSTORE PUSH7 0x195E1C1A5C9959 PUSH1 0xCA SHL PUSH1 0x60 DUP3 ADD MSTORE PUSH1 0x80 ADD SWAP1 JUMP JUMPDEST PUSH1 0x20 DUP1 DUP3 MSTORE PUSH1 0x2E SWAP1 DUP3 ADD MSTORE PUSH0 DUP1 MLOAD PUSH1 0x20 PUSH2 0x1BD2 DUP4 CODECOPY DUP2 MLOAD SWAP2 MSTORE PUSH1 0x40 DUP3 ADD MSTORE PUSH14 0x1899595B8818D85B98D95B1B1959 PUSH1 0x92 SHL PUSH1 0x60 DUP3 ADD MSTORE PUSH1 0x80 ADD SWAP1 JUMP JUMPDEST PUSH1 0x20 DUP1 DUP3 MSTORE PUSH1 0x31 SWAP1 DUP3 ADD MSTORE PUSH0 DUP1 MLOAD PUSH1 0x20 PUSH2 0x1BD2 DUP4 CODECOPY DUP2 MLOAD SWAP2 MSTORE PUSH1 0x40 DUP3 ADD MSTORE PUSH17 0x1B9BDD081899595B88195E1958DD5D1959 PUSH1 0x7A SHL PUSH1 0x60 DUP3 ADD MSTORE PUSH1 0x80 ADD SWAP1 JUMP JUMPDEST PUSH1 0x20 DUP1 DUP3 MSTORE PUSH1 0x3A SWAP1 DUP3 ADD MSTORE PUSH32 0x63616C6C6572206973206E6F742061207369676E657220666F72207468652073 PUSH1 0x40 DUP3 ADD MSTORE PUSH32 0x656C6563746564206D756C7469207369672070726F706F73616C000000000000 PUSH1 0x60 DUP3 ADD MSTORE PUSH1 0x80 ADD SWAP1 JUMP JUMPDEST DUP1 DUP3 MUL DUP2 ISZERO DUP3 DUP3 DIV DUP5 EQ OR PUSH2 0x3D4 JUMPI PUSH2 0x3D4 PUSH2 0x1786 JUMP JUMPDEST PUSH0 DUP3 PUSH2 0x1A55 JUMPI PUSH4 0x4E487B71 PUSH1 0xE0 SHL PUSH0 MSTORE PUSH1 0x12 PUSH1 0x4 MSTORE PUSH1 0x24 PUSH0 REVERT JUMPDEST POP DIV SWAP1 JUMP JUMPDEST PUSH0 JUMPDEST DUP4 DUP2 LT ISZERO PUSH2 0x1A74 JUMPI DUP2 DUP2 ADD MLOAD DUP4 DUP3 ADD MSTORE PUSH1 0x20 ADD PUSH2 0x1A5C JUMP JUMPDEST POP POP PUSH0 SWAP2 ADD MSTORE JUMP JUMPDEST PUSH0 DUP2 MLOAD DUP1 DUP5 MSTORE PUSH2 0x1A93 DUP2 PUSH1 0x20 DUP7 ADD PUSH1 0x20 DUP7 ADD PUSH2 0x1A5A JUMP JUMPDEST PUSH1 0x1F ADD PUSH1 0x1F NOT AND SWAP3 SWAP1 SWAP3 ADD PUSH1 0x20 ADD SWAP3 SWAP2 POP POP JUMP JUMPDEST PUSH1 0x20 DUP2 MSTORE PUSH0 PUSH2 0xFE2 PUSH1 0x20 DUP4 ADD DUP5 PUSH2 0x1A7C JUMP JUMPDEST PUSH0 DUP3 MLOAD PUSH2 0x1ACA DUP2 DUP5 PUSH1 0x20 DUP8 ADD PUSH2 0x1A5A JUMP JUMPDEST SWAP2 SWAP1 SWAP2 ADD SWAP3 SWAP2 POP POP JUMP JUMPDEST PUSH1 0x40 DUP2 MSTORE PUSH0 PUSH2 0x1AE6 PUSH1 0x40 DUP4 ADD DUP6 PUSH2 0x1A7C JUMP JUMPDEST DUP3 DUP2 SUB PUSH1 0x20 DUP5 ADD MSTORE PUSH2 0x1AF8 DUP2 DUP6 PUSH2 0x1A7C JUMP JUMPDEST SWAP6 SWAP5 POP POP POP POP POP JUMP JUMPDEST PUSH32 0x416363657373436F6E74726F6C3A206163636F756E7420000000000000000000 DUP2 MSTORE PUSH0 DUP4 MLOAD PUSH2 0x1B38 DUP2 PUSH1 0x17 DUP6 ADD PUSH1 0x20 DUP9 ADD PUSH2 0x1A5A JUMP JUMPDEST PUSH17 0x1034B99036B4B9B9B4B733903937B6329 PUSH1 0x7D SHL PUSH1 0x17 SWAP2 DUP5 ADD SWAP2 DUP3 ADD MSTORE DUP4 MLOAD PUSH2 0x1B69 DUP2 PUSH1 0x28 DUP5 ADD PUSH1 0x20 DUP9 ADD PUSH2 0x1A5A JUMP JUMPDEST ADD PUSH1 0x28 ADD SWAP5 SWAP4 POP POP POP POP JUMP JUMPDEST DUP2 DUP2 SUB DUP2 DUP2 GT ISZERO PUSH2 0x3D4 JUMPI PUSH2 0x3D4 PUSH2 0x1786 JUMP JUMPDEST PUSH4 0x4E487B71 PUSH1 0xE0 SHL PUSH0 MSTORE PUSH1 0x31 PUSH1 0x4 MSTORE PUSH1 0x24 PUSH0 REVERT JUMPDEST PUSH0 DUP2 PUSH2 0x1BAA JUMPI PUSH2 0x1BAA PUSH2 0x1786 JUMP JUMPDEST POP PUSH0 NOT ADD SWAP1 JUMP INVALID SELFBALANCE MSIZE 0x1F 0xE9 0xB3 DUP10 SIGNEXTEND DUP8 0xC7 0xC0 NUMBER 0xCB SWAP3 PUSH31 0xF194625CCCAD01DDFC64C8238B926E67749073656C6563746564206D756C74 PUSH10 0x207369672070726F706F PUSH20 0x616C2068617320A2646970667358221220FF9C8A NOT LT DUP9 DUP4 NUMBER 0x4D SWAP14 SWAP7 PUSH4 0x7BEAF9C3 0xEA 0xCD DUP2 0xE1 LOG3 OR MSTORE SWAP11 0xB4 SWAP12 LOG3 0xB0 0xF6 0xE1 0xAF GASLIMIT PUSH5 0x736F6C6343 STOP ADDMOD EQ STOP CALLER "
				},
				"gasEstimates": {
					"creation": {
						"codeDepositCost": "1441400",
						"executionCost": "30161",
						"totalCost": "1471561"
					},
					"external": {
						"DEFAULT_ADMIN_ROLE()": "238",
						"ROLE_ADMIN()": "238",
						"ROLE_BOARD()": "infinite",
						"ROLE_MEMBER()": "326",
						"ROLE_SYNDICATE()": "240",
						"getRoleAdmin(bytes32)": "2512",
						"grantRole(bytes32,address)": "infinite",
						"hasRole(bytes32,address)": "2781",
						"multiSigProposalCancel(uint256)": "infinite",
						"multiSigProposalEndTimestamp(uint256)": "2508",
						"multiSigProposalExecute(uint256)": "infinite",
						"multiSigProposalHasBeenCancelled(uint256)": "2509",
						"multiSigProposalHasBeenExecuted(uint256)": "2564",
						"multiSigProposalHasBeenPassed(uint256)": "2542",
						"multiSigProposalSign(uint256)": "infinite",
						"multiSigProposalStartTimestamp(uint256)": "2546",
						"multiSigProposalUnsign(uint256)": "infinite",
						"newMultiSigProposal(address[],uint256,uint256,address,string,bytes)": "infinite",
						"renounceRole(bytes32,address)": "29103",
						"revokeRole(bytes32,address)": "infinite",
						"setObjWhitelist(address,bool)": "infinite",
						"supportsInterface(bytes4)": "447"
					},
					"internal": {
						"_safeConnect(address,string memory,bytes memory)": "infinite"
					}
				},
				"methodIdentifiers": {
					"DEFAULT_ADMIN_ROLE()": "a217fddf",
					"ROLE_ADMIN()": "d391014b",
					"ROLE_BOARD()": "6708a436",
					"ROLE_MEMBER()": "fd7522e2",
					"ROLE_SYNDICATE()": "2371b2cf",
					"getRoleAdmin(bytes32)": "248a9ca3",
					"grantRole(bytes32,address)": "2f2ff15d",
					"hasRole(bytes32,address)": "91d14854",
					"multiSigProposalCancel(uint256)": "6b1a242a",
					"multiSigProposalEndTimestamp(uint256)": "c5bb8159",
					"multiSigProposalExecute(uint256)": "fc406a02",
					"multiSigProposalHasBeenCancelled(uint256)": "6a9f010b",
					"multiSigProposalHasBeenExecuted(uint256)": "6d02ca9f",
					"multiSigProposalHasBeenPassed(uint256)": "c703278a",
					"multiSigProposalSign(uint256)": "ef78463f",
					"multiSigProposalStartTimestamp(uint256)": "cff92081",
					"multiSigProposalUnsign(uint256)": "a006294f",
					"newMultiSigProposal(address[],uint256,uint256,address,string,bytes)": "3bdd8a9b",
					"renounceRole(bytes32,address)": "36568abe",
					"revokeRole(bytes32,address)": "d547741f",
					"setObjWhitelist(address,bool)": "d1a8dd2e",
					"supportsInterface(bytes4)": "01ffc9a7"
				}
			},
			"storageLayout": {
				"storage": [
					{
						"astId": 24,
						"contract": "smart_contracts/terminal/Terminal.sol:Terminal",
						"label": "_roles",
						"offset": 0,
						"slot": "0",
						"type": "t_mapping(t_bytes32,t_struct(RoleData)19_storage)"
					},
					{
						"astId": 2274,
						"contract": "smart_contracts/terminal/Terminal.sol:Terminal",
						"label": "numberOfMultiSigProposals",
						"offset": 0,
						"slot": "1",
						"type": "t_uint256"
					},
					{
						"astId": 2279,
						"contract": "smart_contracts/terminal/Terminal.sol:Terminal",
						"label": "multiSigProposals",
						"offset": 0,
						"slot": "2",
						"type": "t_mapping(t_uint256,t_struct(MultiSigProposal)2272_storage)"
					},
					{
						"astId": 2284,
						"contract": "smart_contracts/terminal/Terminal.sol:Terminal",
						"label": "signers",
						"offset": 0,
						"slot": "3",
						"type": "t_mapping(t_uint256,t_struct(AddressSet)1877_storage)"
					},
					{
						"astId": 2289,
						"contract": "smart_contracts/terminal/Terminal.sol:Terminal",
						"label": "signatures",
						"offset": 0,
						"slot": "4",
						"type": "t_mapping(t_uint256,t_struct(AddressSet)1877_storage)"
					},
					{
						"astId": 2293,
						"contract": "smart_contracts/terminal/Terminal.sol:Terminal",
						"label": "objWhitelist",
						"offset": 0,
						"slot": "5",
						"type": "t_mapping(t_address,t_bool)"
					}
				],
				"types": {
					"t_address": {
						"encoding": "inplace",
						"label": "address",
						"numberOfBytes": "20"
					},
					"t_array(t_bytes32)dyn_storage": {
						"base": "t_bytes32",
						"encoding": "dynamic_array",
						"label": "bytes32[]",
						"numberOfBytes": "32"
					},
					"t_bool": {
						"encoding": "inplace",
						"label": "bool",
						"numberOfBytes": "1"
					},
					"t_bytes32": {
						"encoding": "inplace",
						"label": "bytes32",
						"numberOfBytes": "32"
					},
					"t_bytes_storage": {
						"encoding": "bytes",
						"label": "bytes",
						"numberOfBytes": "32"
					},
					"t_mapping(t_address,t_bool)": {
						"encoding": "mapping",
						"key": "t_address",
						"label": "mapping(address => bool)",
						"numberOfBytes": "32",
						"value": "t_bool"
					},
					"t_mapping(t_bytes32,t_struct(RoleData)19_storage)": {
						"encoding": "mapping",
						"key": "t_bytes32",
						"label": "mapping(bytes32 => struct AccessControl.RoleData)",
						"numberOfBytes": "32",
						"value": "t_struct(RoleData)19_storage"
					},
					"t_mapping(t_bytes32,t_uint256)": {
						"encoding": "mapping",
						"key": "t_bytes32",
						"label": "mapping(bytes32 => uint256)",
						"numberOfBytes": "32",
						"value": "t_uint256"
					},
					"t_mapping(t_uint256,t_struct(AddressSet)1877_storage)": {
						"encoding": "mapping",
						"key": "t_uint256",
						"label": "mapping(uint256 => struct EnumerableSet.AddressSet)",
						"numberOfBytes": "32",
						"value": "t_struct(AddressSet)1877_storage"
					},
					"t_mapping(t_uint256,t_struct(MultiSigProposal)2272_storage)": {
						"encoding": "mapping",
						"key": "t_uint256",
						"label": "mapping(uint256 => struct Terminal.MultiSigProposal)",
						"numberOfBytes": "32",
						"value": "t_struct(MultiSigProposal)2272_storage"
					},
					"t_string_storage": {
						"encoding": "bytes",
						"label": "string",
						"numberOfBytes": "32"
					},
					"t_struct(AddressSet)1877_storage": {
						"encoding": "inplace",
						"label": "struct EnumerableSet.AddressSet",
						"members": [
							{
								"astId": 1876,
								"contract": "smart_contracts/terminal/Terminal.sol:Terminal",
								"label": "_inner",
								"offset": 0,
								"slot": "0",
								"type": "t_struct(Set)1562_storage"
							}
						],
						"numberOfBytes": "64"
					},
					"t_struct(MultiSigProposal)2272_storage": {
						"encoding": "inplace",
						"label": "struct Terminal.MultiSigProposal",
						"members": [
							{
								"astId": 2255,
								"contract": "smart_contracts/terminal/Terminal.sol:Terminal",
								"label": "startTimestamp",
								"offset": 0,
								"slot": "0",
								"type": "t_uint256"
							},
							{
								"astId": 2257,
								"contract": "smart_contracts/terminal/Terminal.sol:Terminal",
								"label": "endTimestamp",
								"offset": 0,
								"slot": "1",
								"type": "t_uint256"
							},
							{
								"astId": 2259,
								"contract": "smart_contracts/terminal/Terminal.sol:Terminal",
								"label": "threshold",
								"offset": 0,
								"slot": "2",
								"type": "t_uint256"
							},
							{
								"astId": 2261,
								"contract": "smart_contracts/terminal/Terminal.sol:Terminal",
								"label": "hasBeenCancelled",
								"offset": 0,
								"slot": "3",
								"type": "t_bool"
							},
							{
								"astId": 2263,
								"contract": "smart_contracts/terminal/Terminal.sol:Terminal",
								"label": "hasBeenExecuted",
								"offset": 1,
								"slot": "3",
								"type": "t_bool"
							},
							{
								"astId": 2265,
								"contract": "smart_contracts/terminal/Terminal.sol:Terminal",
								"label": "hasBeenPassed",
								"offset": 2,
								"slot": "3",
								"type": "t_bool"
							},
							{
								"astId": 2267,
								"contract": "smart_contracts/terminal/Terminal.sol:Terminal",
								"label": "obj",
								"offset": 3,
								"slot": "3",
								"type": "t_address"
							},
							{
								"astId": 2269,
								"contract": "smart_contracts/terminal/Terminal.sol:Terminal",
								"label": "signature",
								"offset": 0,
								"slot": "4",
								"type": "t_string_storage"
							},
							{
								"astId": 2271,
								"contract": "smart_contracts/terminal/Terminal.sol:Terminal",
								"label": "args",
								"offset": 0,
								"slot": "5",
								"type": "t_bytes_storage"
							}
						],
						"numberOfBytes": "192"
					},
					"t_struct(RoleData)19_storage": {
						"encoding": "inplace",
						"label": "struct AccessControl.RoleData",
						"members": [
							{
								"astId": 16,
								"contract": "smart_contracts/terminal/Terminal.sol:Terminal",
								"label": "members",
								"offset": 0,
								"slot": "0",
								"type": "t_mapping(t_address,t_bool)"
							},
							{
								"astId": 18,
								"contract": "smart_contracts/terminal/Terminal.sol:Terminal",
								"label": "adminRole",
								"offset": 0,
								"slot": "1",
								"type": "t_bytes32"
							}
						],
						"numberOfBytes": "64"
					},
					"t_struct(Set)1562_storage": {
						"encoding": "inplace",
						"label": "struct EnumerableSet.Set",
						"members": [
							{
								"astId": 1557,
								"contract": "smart_contracts/terminal/Terminal.sol:Terminal",
								"label": "_values",
								"offset": 0,
								"slot": "0",
								"type": "t_array(t_bytes32)dyn_storage"
							},
							{
								"astId": 1561,
								"contract": "smart_contracts/terminal/Terminal.sol:Terminal",
								"label": "_indexes",
								"offset": 0,
								"slot": "1",
								"type": "t_mapping(t_bytes32,t_uint256)"
							}
						],
						"numberOfBytes": "64"
					},
					"t_uint256": {
						"encoding": "inplace",
						"label": "uint256",
						"numberOfBytes": "32"
					}
				}
			},
			"userdoc": {
				"kind": "user",
				"methods": {},
				"version": 1
			}
		}
	}
}