{
	"smart_contracts/module_architecture/ModuleManager.sol": {
		"ModuleManager": {
			"abi": [
				{
					"inputs": [],
					"stateMutability": "nonpayable",
					"type": "constructor"
				},
				{
					"anonymous": false,
					"inputs": [
						{
							"indexed": true,
							"internalType": "string",
							"name": "name",
							"type": "string"
						},
						{
							"indexed": true,
							"internalType": "uint256",
							"name": "identifer",
							"type": "uint256"
						}
					],
					"name": "ModuleCreated",
					"type": "event"
				},
				{
					"anonymous": false,
					"inputs": [
						{
							"indexed": true,
							"internalType": "string",
							"name": "name",
							"type": "string"
						},
						{
							"indexed": true,
							"internalType": "uint256",
							"name": "identifier",
							"type": "uint256"
						},
						{
							"indexed": true,
							"internalType": "address",
							"name": "newImplementation",
							"type": "address"
						}
					],
					"name": "ModuleDowngraded",
					"type": "event"
				},
				{
					"anonymous": false,
					"inputs": [
						{
							"indexed": true,
							"internalType": "string",
							"name": "name",
							"type": "string"
						},
						{
							"indexed": true,
							"internalType": "uint256",
							"name": "identifier",
							"type": "uint256"
						},
						{
							"indexed": true,
							"internalType": "address",
							"name": "newImplementation",
							"type": "address"
						}
					],
					"name": "ModuleUpgraded",
					"type": "event"
				},
				{
					"inputs": [],
					"name": "count",
					"outputs": [
						{
							"internalType": "uint256",
							"name": "",
							"type": "uint256"
						}
					],
					"stateMutability": "view",
					"type": "function"
				},
				{
					"inputs": [
						{
							"internalType": "string",
							"name": "name",
							"type": "string"
						}
					],
					"name": "create",
					"outputs": [
						{
							"internalType": "uint256",
							"name": "",
							"type": "uint256"
						}
					],
					"stateMutability": "nonpayable",
					"type": "function"
				},
				{
					"inputs": [
						{
							"internalType": "string",
							"name": "name",
							"type": "string"
						},
						{
							"internalType": "uint256",
							"name": "version",
							"type": "uint256"
						}
					],
					"name": "downgrade",
					"outputs": [],
					"stateMutability": "nonpayable",
					"type": "function"
				},
				{
					"inputs": [
						{
							"internalType": "string",
							"name": "name",
							"type": "string"
						},
						{
							"internalType": "uint256",
							"name": "version",
							"type": "uint256"
						}
					],
					"name": "getImplementation",
					"outputs": [
						{
							"internalType": "address",
							"name": "",
							"type": "address"
						}
					],
					"stateMutability": "view",
					"type": "function"
				},
				{
					"inputs": [
						{
							"internalType": "string",
							"name": "name",
							"type": "string"
						}
					],
					"name": "getImplementations",
					"outputs": [
						{
							"internalType": "address[]",
							"name": "",
							"type": "address[]"
						}
					],
					"stateMutability": "view",
					"type": "function"
				},
				{
					"inputs": [
						{
							"internalType": "string",
							"name": "name",
							"type": "string"
						}
					],
					"name": "getLatestImplementation",
					"outputs": [
						{
							"internalType": "address",
							"name": "",
							"type": "address"
						}
					],
					"stateMutability": "view",
					"type": "function"
				},
				{
					"inputs": [
						{
							"internalType": "string",
							"name": "name",
							"type": "string"
						}
					],
					"name": "getLatestVersion",
					"outputs": [
						{
							"internalType": "uint256",
							"name": "",
							"type": "uint256"
						}
					],
					"stateMutability": "view",
					"type": "function"
				},
				{
					"inputs": [],
					"name": "getModules",
					"outputs": [
						{
							"internalType": "string[]",
							"name": "",
							"type": "string[]"
						}
					],
					"stateMutability": "view",
					"type": "function"
				},
				{
					"inputs": [
						{
							"internalType": "string",
							"name": "",
							"type": "string"
						}
					],
					"name": "nameToIdentifier",
					"outputs": [
						{
							"internalType": "uint256",
							"name": "",
							"type": "uint256"
						}
					],
					"stateMutability": "view",
					"type": "function"
				},
				{
					"inputs": [
						{
							"internalType": "string",
							"name": "name",
							"type": "string"
						},
						{
							"internalType": "address",
							"name": "newImplementation",
							"type": "address"
						}
					],
					"name": "upgrade",
					"outputs": [],
					"stateMutability": "nonpayable",
					"type": "function"
				}
			],
			"devdoc": {
				"kind": "dev",
				"methods": {},
				"version": 1
			},
			"evm": {
				"assembly": "    /* \"smart_contracts/module_architecture/ModuleManager.sol\":928:7261  contract ModuleManager is IModuleManager, ReentrancyGuard {... */\n  mstore(0x40, 0x80)\n    /* \"smart_contracts/module_architecture/ModuleManager.sol\":1819:1835  constructor() {} */\n  callvalue\n  dup1\n  iszero\n  tag_1\n  jumpi\n  0x00\n  dup1\n  revert\ntag_1:\n  pop\n    /* \"deps/openzeppelin/security/ReentrancyGuard.sol\":1717:1718  1 */\n  0x01\n    /* \"deps/openzeppelin/security/ReentrancyGuard.sol\":1822:1829  _status */\n  0x00\n    /* \"deps/openzeppelin/security/ReentrancyGuard.sol\":1822:1844  _status = _NOT_ENTERED */\n  sstore\n    /* \"smart_contracts/module_architecture/ModuleManager.sol\":928:7261  contract ModuleManager is IModuleManager, ReentrancyGuard {... */\n  dataSize(sub_0)\n  dup1\n  dataOffset(sub_0)\n  0x00\n  codecopy\n  0x00\n  return\nstop\n\nsub_0: assembly {\n        /* \"smart_contracts/module_architecture/ModuleManager.sol\":928:7261  contract ModuleManager is IModuleManager, ReentrancyGuard {... */\n      mstore(0x40, 0x80)\n      callvalue\n      dup1\n      iszero\n      tag_1\n      jumpi\n      0x00\n      dup1\n      revert\n    tag_1:\n      pop\n      jumpi(tag_2, lt(calldatasize, 0x04))\n      shr(0xe0, calldataload(0x00))\n      dup1\n      0xb6a46b3b\n      gt\n      tag_13\n      jumpi\n      dup1\n      0xd285f839\n      gt\n      tag_14\n      jumpi\n      dup1\n      0xd285f839\n      eq\n      tag_10\n      jumpi\n      dup1\n      0xe8009dda\n      eq\n      tag_11\n      jumpi\n      dup1\n      0xfb68ba31\n      eq\n      tag_12\n      jumpi\n      0x00\n      dup1\n      revert\n    tag_14:\n      dup1\n      0xb6a46b3b\n      eq\n      tag_8\n      jumpi\n      dup1\n      0xcae96761\n      eq\n      tag_9\n      jumpi\n      0x00\n      dup1\n      revert\n    tag_13:\n      dup1\n      0x5332c74d\n      gt\n      tag_15\n      jumpi\n      dup1\n      0x5332c74d\n      eq\n      tag_5\n      jumpi\n      dup1\n      0x812a4f8c\n      eq\n      tag_6\n      jumpi\n      dup1\n      0xb2494df3\n      eq\n      tag_7\n      jumpi\n      0x00\n      dup1\n      revert\n    tag_15:\n      dup1\n      0x06661abd\n      eq\n      tag_3\n      jumpi\n      dup1\n      0x278be867\n      eq\n      tag_4\n      jumpi\n    tag_2:\n      0x00\n      dup1\n      revert\n        /* \"smart_contracts/module_architecture/ModuleManager.sol\":1046:1063  uint public count */\n    tag_3:\n      tag_16\n      sload(0x01)\n      dup2\n      jump\n    tag_16:\n      mload(0x40)\n        /* \"#utility.yul\":160:185   */\n      swap1\n      dup2\n      mstore\n        /* \"#utility.yul\":148:150   */\n      0x20\n        /* \"#utility.yul\":133:151   */\n      add\n        /* \"smart_contracts/module_architecture/ModuleManager.sol\":1046:1063  uint public count */\n    tag_18:\n      mload(0x40)\n      dup1\n      swap2\n      sub\n      swap1\n      return\n        /* \"smart_contracts/module_architecture/ModuleManager.sol\":1394:1441  mapping(string => uint) public nameToIdentifier */\n    tag_4:\n      tag_16\n      tag_21\n      calldatasize\n      0x04\n      tag_22\n      jump\t// in\n    tag_21:\n      dup1\n      mload\n      0x20\n      dup2\n      dup4\n      add\n      dup2\n      add\n      dup1\n      mload\n      0x03\n      dup3\n      mstore\n      swap3\n      dup3\n      add\n      swap2\n      swap1\n      swap4\n      add\n      keccak256\n      swap2\n      mstore\n      sload\n      dup2\n      jump\n        /* \"smart_contracts/module_architecture/ModuleManager.sol\":4095:4572  function upgrade(... */\n    tag_5:\n      tag_25\n      tag_26\n      calldatasize\n      0x04\n      tag_27\n      jump\t// in\n    tag_26:\n      tag_28\n      jump\t// in\n    tag_25:\n      stop\n        /* \"smart_contracts/module_architecture/ModuleManager.sol\":6136:6691  function getImplementations(string memory name) public view returns (address[] memory) {... */\n    tag_6:\n      tag_29\n      tag_30\n      calldatasize\n      0x04\n      tag_22\n      jump\t// in\n    tag_30:\n      tag_31\n      jump\t// in\n    tag_29:\n      mload(0x40)\n      tag_18\n      swap2\n      swap1\n      tag_33\n      jump\t// in\n        /* \"smart_contracts/module_architecture/ModuleManager.sol\":6787:7259  function getModules() public view returns (string[] memory) {... */\n    tag_7:\n      tag_34\n      tag_35\n      jump\t// in\n    tag_34:\n      mload(0x40)\n      tag_18\n      swap2\n      swap1\n      tag_37\n      jump\t// in\n        /* \"smart_contracts/module_architecture/ModuleManager.sol\":3606:4089  function create(string memory name) public nonReentrant returns (uint) {... */\n    tag_8:\n      tag_16\n      tag_39\n      calldatasize\n      0x04\n      tag_22\n      jump\t// in\n    tag_39:\n      tag_40\n      jump\t// in\n        /* \"smart_contracts/module_architecture/ModuleManager.sol\":5070:5318  function getLatestVersion(string memory name) public view returns (uint) {... */\n    tag_9:\n      tag_16\n      tag_43\n      calldatasize\n      0x04\n      tag_22\n      jump\t// in\n    tag_43:\n      tag_44\n      jump\t// in\n        /* \"smart_contracts/module_architecture/ModuleManager.sol\":5365:5672  function getLatestImplementation(string memory name) public view returns (address) {... */\n    tag_10:\n      tag_46\n      tag_47\n      calldatasize\n      0x04\n      tag_22\n      jump\t// in\n    tag_47:\n      tag_48\n      jump\t// in\n    tag_46:\n      mload(0x40)\n        /* \"#utility.yul\":4273:4315   */\n      0xffffffffffffffffffffffffffffffffffffffff\n        /* \"#utility.yul\":4261:4316   */\n      swap1\n      swap2\n      and\n        /* \"#utility.yul\":4243:4317   */\n      dup2\n      mstore\n        /* \"#utility.yul\":4231:4233   */\n      0x20\n        /* \"#utility.yul\":4216:4234   */\n      add\n        /* \"smart_contracts/module_architecture/ModuleManager.sol\":5365:5672  function getLatestImplementation(string memory name) public view returns (address) {... */\n      tag_18\n        /* \"#utility.yul\":4097:4323   */\n      jump\n        /* \"smart_contracts/module_architecture/ModuleManager.sol\":5678:6051  function getImplementation(... */\n    tag_11:\n      tag_46\n      tag_52\n      calldatasize\n      0x04\n      tag_53\n      jump\t// in\n    tag_52:\n      tag_54\n      jump\t// in\n        /* \"smart_contracts/module_architecture/ModuleManager.sol\":4578:5064  function downgrade(... */\n    tag_12:\n      tag_25\n      tag_57\n      calldatasize\n      0x04\n      tag_53\n      jump\t// in\n    tag_57:\n      tag_58\n      jump\t// in\n        /* \"smart_contracts/module_architecture/ModuleManager.sol\":4095:4572  function upgrade(... */\n    tag_28:\n        /* \"deps/openzeppelin/security/ReentrancyGuard.sol\":2262:2283  _nonReentrantBefore() */\n      tag_60\n        /* \"deps/openzeppelin/security/ReentrancyGuard.sol\":2262:2281  _nonReentrantBefore */\n      tag_61\n        /* \"deps/openzeppelin/security/ReentrancyGuard.sol\":2262:2283  _nonReentrantBefore() */\n      jump\t// in\n    tag_60:\n        /* \"smart_contracts/module_architecture/ModuleManager.sol\":4270:4362  _mustNotBeDuplicateImplementation(... */\n      tag_63\n        /* \"smart_contracts/module_architecture/ModuleManager.sol\":4317:4321  name */\n      dup3\n        /* \"smart_contracts/module_architecture/ModuleManager.sol\":4335:4352  newImplementation */\n      dup3\n        /* \"smart_contracts/module_architecture/ModuleManager.sol\":4270:4303  _mustNotBeDuplicateImplementation */\n      tag_64\n        /* \"smart_contracts/module_architecture/ModuleManager.sol\":4270:4362  _mustNotBeDuplicateImplementation(... */\n      jump\t// in\n    tag_63:\n        /* \"smart_contracts/module_architecture/ModuleManager.sol\":4373:4440  _upgrade(... */\n      tag_65\n        /* \"smart_contracts/module_architecture/ModuleManager.sol\":4395:4399  name */\n      dup3\n        /* \"smart_contracts/module_architecture/ModuleManager.sol\":4413:4430  newImplementation */\n      dup3\n        /* \"smart_contracts/module_architecture/ModuleManager.sol\":4373:4381  _upgrade */\n      tag_66\n        /* \"smart_contracts/module_architecture/ModuleManager.sol\":4373:4440  _upgrade(... */\n      jump\t// in\n    tag_65:\n        /* \"smart_contracts/module_architecture/ModuleManager.sol\":4538:4555  newImplementation */\n      dup1\n        /* \"smart_contracts/module_architecture/ModuleManager.sol\":4456:4565  ModuleUpgraded(... */\n      0xffffffffffffffffffffffffffffffffffffffff\n      and\n        /* \"smart_contracts/module_architecture/ModuleManager.sol\":4502:4518  nameToIdentifier */\n      0x03\n        /* \"smart_contracts/module_architecture/ModuleManager.sol\":4519:4523  name */\n      dup4\n        /* \"smart_contracts/module_architecture/ModuleManager.sol\":4502:4524  nameToIdentifier[name] */\n      mload(0x40)\n      tag_67\n      swap2\n      swap1\n      tag_68\n      jump\t// in\n    tag_67:\n      swap1\n      dup2\n      mstore\n      0x20\n      add\n      mload(0x40)\n      dup1\n      swap2\n      sub\n      swap1\n      keccak256\n      sload\n        /* \"smart_contracts/module_architecture/ModuleManager.sol\":4484:4488  name */\n      dup4\n        /* \"smart_contracts/module_architecture/ModuleManager.sol\":4456:4565  ModuleUpgraded(... */\n      mload(0x40)\n      tag_69\n      swap2\n      swap1\n      tag_68\n      jump\t// in\n    tag_69:\n      mload(0x40)\n      swap1\n      dup2\n      swap1\n      sub\n      dup2\n      keccak256\n      swap1\n      0x302019a635b19d3c4a1cf2d61269495b26e45b91cbb29a4f8cf400e68e18da7f\n      swap1\n      0x00\n      swap1\n      log4\n        /* \"deps/openzeppelin/security/ReentrancyGuard.sol\":2304:2324  _nonReentrantAfter() */\n      tag_70\n        /* \"deps/openzeppelin/security/ReentrancyGuard.sol\":1717:1718  1 */\n      0x01\n        /* \"deps/openzeppelin/security/ReentrancyGuard.sol\":2810:2817  _status */\n      0x00\n        /* \"deps/openzeppelin/security/ReentrancyGuard.sol\":2810:2832  _status = _NOT_ENTERED */\n      sstore\n        /* \"deps/openzeppelin/security/ReentrancyGuard.sol\":2630:2839  function _nonReentrantAfter() private {... */\n      jump\n        /* \"deps/openzeppelin/security/ReentrancyGuard.sol\":2304:2324  _nonReentrantAfter() */\n    tag_70:\n        /* \"smart_contracts/module_architecture/ModuleManager.sol\":4095:4572  function upgrade(... */\n      pop\n      pop\n      jump\t// out\n        /* \"smart_contracts/module_architecture/ModuleManager.sol\":6136:6691  function getImplementations(string memory name) public view returns (address[] memory) {... */\n    tag_31:\n        /* \"smart_contracts/module_architecture/ModuleManager.sol\":6205:6221  address[] memory */\n      0x60\n        /* \"smart_contracts/module_architecture/ModuleManager.sol\":6309:6330  Module storage module */\n      0x00\n        /* \"smart_contracts/module_architecture/ModuleManager.sol\":6333:6340  modules */\n      0x02\n        /* \"smart_contracts/module_architecture/ModuleManager.sol\":6333:6364  modules[nameToIdentifier[name]] */\n      0x00\n        /* \"smart_contracts/module_architecture/ModuleManager.sol\":6341:6357  nameToIdentifier */\n      0x03\n        /* \"smart_contracts/module_architecture/ModuleManager.sol\":6358:6362  name */\n      dup6\n        /* \"smart_contracts/module_architecture/ModuleManager.sol\":6341:6363  nameToIdentifier[name] */\n      mload(0x40)\n      tag_73\n      swap2\n      swap1\n      tag_68\n      jump\t// in\n    tag_73:\n      swap1\n      dup2\n      mstore\n      0x20\n      add\n      mload(0x40)\n      dup1\n      swap2\n      sub\n      swap1\n      keccak256\n      sload\n        /* \"smart_contracts/module_architecture/ModuleManager.sol\":6333:6364  modules[nameToIdentifier[name]] */\n      dup2\n      mstore\n      0x20\n      add\n      swap1\n      dup2\n      mstore\n      0x20\n      add\n      0x00\n      keccak256\n        /* \"smart_contracts/module_architecture/ModuleManager.sol\":6309:6364  Module storage module = modules[nameToIdentifier[name]] */\n      swap1\n      pop\n        /* \"smart_contracts/module_architecture/ModuleManager.sol\":6374:6406  address[] memory implementations */\n      0x00\n        /* \"smart_contracts/module_architecture/ModuleManager.sol\":6423:6454  module.implementations.length() */\n      tag_74\n        /* \"smart_contracts/module_architecture/ModuleManager.sol\":6423:6429  module */\n      dup3\n        /* \"smart_contracts/module_architecture/ModuleManager.sol\":6423:6445  module.implementations */\n      0x02\n      add\n        /* \"smart_contracts/module_architecture/ModuleManager.sol\":6423:6452  module.implementations.length */\n      tag_75\n        /* \"smart_contracts/module_architecture/ModuleManager.sol\":6423:6454  module.implementations.length() */\n      jump\t// in\n    tag_74:\n        /* \"smart_contracts/module_architecture/ModuleManager.sol\":6423:6458  module.implementations.length() + 1 */\n      tag_76\n      swap1\n        /* \"smart_contracts/module_architecture/ModuleManager.sol\":6457:6458  1 */\n      0x01\n        /* \"smart_contracts/module_architecture/ModuleManager.sol\":6423:6458  module.implementations.length() + 1 */\n      tag_77\n      jump\t// in\n    tag_76:\n        /* \"smart_contracts/module_architecture/ModuleManager.sol\":6409:6459  new address[](module.implementations.length() + 1) */\n      0xffffffffffffffff\n      dup2\n      gt\n      iszero\n      tag_79\n      jumpi\n      tag_79\n      tag_80\n      jump\t// in\n    tag_79:\n      mload(0x40)\n      swap1\n      dup1\n      dup3\n      mstore\n      dup1\n      0x20\n      mul\n      0x20\n      add\n      dup3\n      add\n      0x40\n      mstore\n      dup1\n      iszero\n      tag_81\n      jumpi\n      dup2\n      0x20\n      add\n      0x20\n      dup3\n      mul\n      dup1\n      calldatasize\n      dup4\n      calldatacopy\n      add\n      swap1\n      pop\n    tag_81:\n      pop\n        /* \"smart_contracts/module_architecture/ModuleManager.sol\":6374:6459  address[] memory implementations = new address[](module.implementations.length() + 1) */\n      swap1\n      pop\n        /* \"smart_contracts/module_architecture/ModuleManager.sol\":6496:6497  1 */\n      0x01\n        /* \"smart_contracts/module_architecture/ModuleManager.sol\":6469:6652  for (... */\n    tag_82:\n        /* \"smart_contracts/module_architecture/ModuleManager.sol\":6517:6548  module.implementations.length() */\n      tag_85\n        /* \"smart_contracts/module_architecture/ModuleManager.sol\":6517:6523  module */\n      dup4\n        /* \"smart_contracts/module_architecture/ModuleManager.sol\":6517:6539  module.implementations */\n      0x02\n      add\n        /* \"smart_contracts/module_architecture/ModuleManager.sol\":6517:6546  module.implementations.length */\n      tag_75\n        /* \"smart_contracts/module_architecture/ModuleManager.sol\":6517:6548  module.implementations.length() */\n      jump\t// in\n    tag_85:\n        /* \"smart_contracts/module_architecture/ModuleManager.sol\":6512:6513  i */\n      dup2\n        /* \"smart_contracts/module_architecture/ModuleManager.sol\":6512:6548  i <= module.implementations.length() */\n      gt\n        /* \"smart_contracts/module_architecture/ModuleManager.sol\":6469:6652  for (... */\n      tag_83\n      jumpi\n        /* \"smart_contracts/module_architecture/ModuleManager.sol\":6613:6641  module.implementations.at(i) */\n      tag_86\n        /* \"smart_contracts/module_architecture/ModuleManager.sol\":6613:6635  module.implementations */\n      0x02\n      dup5\n      add\n        /* \"smart_contracts/module_architecture/ModuleManager.sol\":6639:6640  i */\n      dup3\n        /* \"smart_contracts/module_architecture/ModuleManager.sol\":6613:6638  module.implementations.at */\n      tag_87\n        /* \"smart_contracts/module_architecture/ModuleManager.sol\":6613:6641  module.implementations.at(i) */\n      jump\t// in\n    tag_86:\n        /* \"smart_contracts/module_architecture/ModuleManager.sol\":6592:6607  implementations */\n      dup3\n        /* \"smart_contracts/module_architecture/ModuleManager.sol\":6608:6609  i */\n      dup3\n        /* \"smart_contracts/module_architecture/ModuleManager.sol\":6592:6610  implementations[i] */\n      dup2\n      mload\n      dup2\n      lt\n      tag_89\n      jumpi\n      tag_89\n      tag_90\n      jump\t// in\n    tag_89:\n        /* \"smart_contracts/module_architecture/ModuleManager.sol\":6592:6641  implementations[i] = module.implementations.at(i) */\n      0xffffffffffffffffffffffffffffffffffffffff\n      swap1\n      swap3\n      and\n        /* \"smart_contracts/module_architecture/ModuleManager.sol\":6592:6610  implementations[i] */\n      0x20\n      swap3\n      dup4\n      mul\n      swap2\n      swap1\n      swap2\n      add\n      swap1\n      swap2\n      add\n        /* \"smart_contracts/module_architecture/ModuleManager.sol\":6592:6641  implementations[i] = module.implementations.at(i) */\n      mstore\n        /* \"smart_contracts/module_architecture/ModuleManager.sol\":6563:6567  i ++ */\n      dup1\n      tag_91\n      dup2\n      tag_92\n      jump\t// in\n    tag_91:\n      swap2\n      pop\n      pop\n        /* \"smart_contracts/module_architecture/ModuleManager.sol\":6469:6652  for (... */\n      jump(tag_82)\n    tag_83:\n      pop\n        /* \"smart_contracts/module_architecture/ModuleManager.sol\":6669:6684  implementations */\n      swap4\n        /* \"smart_contracts/module_architecture/ModuleManager.sol\":6136:6691  function getImplementations(string memory name) public view returns (address[] memory) {... */\n      swap3\n      pop\n      pop\n      pop\n      jump\t// out\n        /* \"smart_contracts/module_architecture/ModuleManager.sol\":6787:7259  function getModules() public view returns (string[] memory) {... */\n    tag_35:\n        /* \"smart_contracts/module_architecture/ModuleManager.sol\":6830:6845  string[] memory */\n      0x60\n        /* \"smart_contracts/module_architecture/ModuleManager.sol\":6930:6951  string[] memory names */\n      0x00\n        /* \"smart_contracts/module_architecture/ModuleManager.sol\":6967:6972  count */\n      sload(0x01)\n        /* \"smart_contracts/module_architecture/ModuleManager.sol\":6975:6976  1 */\n      0x01\n        /* \"smart_contracts/module_architecture/ModuleManager.sol\":6967:6976  count + 1 */\n      tag_94\n      swap2\n      swap1\n      tag_77\n      jump\t// in\n    tag_94:\n        /* \"smart_contracts/module_architecture/ModuleManager.sol\":6954:6977  new string[](count + 1) */\n      0xffffffffffffffff\n      dup2\n      gt\n      iszero\n      tag_96\n      jumpi\n      tag_96\n      tag_80\n      jump\t// in\n    tag_96:\n      mload(0x40)\n      swap1\n      dup1\n      dup3\n      mstore\n      dup1\n      0x20\n      mul\n      0x20\n      add\n      dup3\n      add\n      0x40\n      mstore\n      dup1\n      iszero\n      tag_97\n      jumpi\n      dup2\n      0x20\n      add\n    tag_98:\n      0x60\n      dup2\n      mstore\n      0x20\n      add\n      swap1\n      0x01\n      swap1\n      sub\n      swap1\n      dup2\n      tag_98\n      jumpi\n      swap1\n      pop\n    tag_97:\n      pop\n        /* \"smart_contracts/module_architecture/ModuleManager.sol\":6930:6977  string[] memory names = new string[](count + 1) */\n      swap1\n      pop\n        /* \"smart_contracts/module_architecture/ModuleManager.sol\":7014:7015  1 */\n      0x01\n        /* \"smart_contracts/module_architecture/ModuleManager.sol\":6987:7162  for (... */\n    tag_99:\n        /* \"smart_contracts/module_architecture/ModuleManager.sol\":7034:7039  count */\n      sload(0x01)\n        /* \"smart_contracts/module_architecture/ModuleManager.sol\":7029:7030  i */\n      dup2\n        /* \"smart_contracts/module_architecture/ModuleManager.sol\":7029:7039  i <= count */\n      gt\n        /* \"smart_contracts/module_architecture/ModuleManager.sol\":6987:7162  for (... */\n      tag_100\n      jumpi\n        /* \"smart_contracts/module_architecture/ModuleManager.sol\":7081:7102  Module storage module */\n      0x00\n        /* \"smart_contracts/module_architecture/ModuleManager.sol\":7105:7115  modules[i] */\n      dup2\n      dup2\n      mstore\n        /* \"smart_contracts/module_architecture/ModuleManager.sol\":7105:7112  modules */\n      0x02\n        /* \"smart_contracts/module_architecture/ModuleManager.sol\":7105:7115  modules[i] */\n      0x20\n      mstore\n      0x40\n      swap1\n      keccak256\n        /* \"smart_contracts/module_architecture/ModuleManager.sol\":7140:7151  module.name */\n      0x01\n      dup2\n      add\n        /* \"smart_contracts/module_architecture/ModuleManager.sol\":7129:7151  names[i] = module.name */\n      dup1\n      sload\n      tag_102\n      swap1\n      tag_103\n      jump\t// in\n    tag_102:\n      dup1\n      0x1f\n      add\n      0x20\n      dup1\n      swap2\n      div\n      mul\n      0x20\n      add\n      mload(0x40)\n      swap1\n      dup2\n      add\n      0x40\n      mstore\n      dup1\n      swap3\n      swap2\n      swap1\n      dup2\n      dup2\n      mstore\n      0x20\n      add\n      dup3\n      dup1\n      sload\n      tag_104\n      swap1\n      tag_103\n      jump\t// in\n    tag_104:\n      dup1\n      iszero\n      tag_105\n      jumpi\n      dup1\n      0x1f\n      lt\n      tag_106\n      jumpi\n      0x0100\n      dup1\n      dup4\n      sload\n      div\n      mul\n      dup4\n      mstore\n      swap2\n      0x20\n      add\n      swap2\n      jump(tag_105)\n    tag_106:\n      dup3\n      add\n      swap2\n      swap1\n      0x00\n      mstore\n      keccak256(0x00, 0x20)\n      swap1\n    tag_107:\n      dup2\n      sload\n      dup2\n      mstore\n      swap1\n      0x01\n      add\n      swap1\n      0x20\n      add\n      dup1\n      dup4\n      gt\n      tag_107\n      jumpi\n      dup3\n      swap1\n      sub\n      0x1f\n      and\n      dup3\n      add\n      swap2\n    tag_105:\n      pop\n      pop\n      pop\n      pop\n      pop\n        /* \"smart_contracts/module_architecture/ModuleManager.sol\":7129:7134  names */\n      dup4\n        /* \"smart_contracts/module_architecture/ModuleManager.sol\":7135:7136  i */\n      dup4\n        /* \"smart_contracts/module_architecture/ModuleManager.sol\":7129:7137  names[i] */\n      dup2\n      mload\n      dup2\n      lt\n      tag_109\n      jumpi\n      tag_109\n      tag_90\n      jump\t// in\n    tag_109:\n      0x20\n      mul\n      0x20\n      add\n      add\n        /* \"smart_contracts/module_architecture/ModuleManager.sol\":7129:7151  names[i] = module.name */\n      dup2\n      swap1\n      mstore\n      pop\n        /* \"smart_contracts/module_architecture/ModuleManager.sol\":7067:7162  {... */\n      pop\n        /* \"smart_contracts/module_architecture/ModuleManager.sol\":7053:7056  i++ */\n      dup1\n      dup1\n      tag_110\n      swap1\n      tag_92\n      jump\t// in\n    tag_110:\n      swap2\n      pop\n      pop\n        /* \"smart_contracts/module_architecture/ModuleManager.sol\":6987:7162  for (... */\n      jump(tag_99)\n    tag_100:\n      pop\n        /* \"smart_contracts/module_architecture/ModuleManager.sol\":7247:7252  names */\n      swap2\n        /* \"smart_contracts/module_architecture/ModuleManager.sol\":6787:7259  function getModules() public view returns (string[] memory) {... */\n      swap1\n      pop\n      jump\t// out\n        /* \"smart_contracts/module_architecture/ModuleManager.sol\":3606:4089  function create(string memory name) public nonReentrant returns (uint) {... */\n    tag_40:\n        /* \"smart_contracts/module_architecture/ModuleManager.sol\":3671:3675  uint */\n      0x00\n        /* \"deps/openzeppelin/security/ReentrancyGuard.sol\":2262:2283  _nonReentrantBefore() */\n      tag_112\n        /* \"deps/openzeppelin/security/ReentrancyGuard.sol\":2262:2281  _nonReentrantBefore */\n      tag_61\n        /* \"deps/openzeppelin/security/ReentrancyGuard.sol\":2262:2283  _nonReentrantBefore() */\n      jump\t// in\n    tag_112:\n        /* \"smart_contracts/module_architecture/ModuleManager.sol\":3716:3746  _mustNotBeExistingModule(name) */\n      tag_114\n        /* \"smart_contracts/module_architecture/ModuleManager.sol\":3741:3745  name */\n      dup3\n        /* \"smart_contracts/module_architecture/ModuleManager.sol\":3716:3740  _mustNotBeExistingModule */\n      tag_115\n        /* \"smart_contracts/module_architecture/ModuleManager.sol\":3716:3746  _mustNotBeExistingModule(name) */\n      jump\t// in\n    tag_114:\n        /* \"smart_contracts/module_architecture/ModuleManager.sol\":3766:3767  1 */\n      0x01\n        /* \"smart_contracts/module_architecture/ModuleManager.sol\":3757:3762  count */\n      dup1\n      0x00\n        /* \"smart_contracts/module_architecture/ModuleManager.sol\":3757:3767  count += 1 */\n      dup3\n      dup3\n      sload\n      tag_116\n      swap2\n      swap1\n      tag_77\n      jump\t// in\n    tag_116:\n      swap1\n      swap2\n      sstore\n      pop\n      pop\n        /* \"smart_contracts/module_architecture/ModuleManager.sol\":3809:3814  count */\n      sload(0x01)\n        /* \"smart_contracts/module_architecture/ModuleManager.sol\":3777:3798  Module storage module */\n      0x00\n        /* \"smart_contracts/module_architecture/ModuleManager.sol\":3801:3815  modules[count] */\n      dup2\n      dup2\n      mstore\n        /* \"smart_contracts/module_architecture/ModuleManager.sol\":3801:3808  modules */\n      0x02\n        /* \"smart_contracts/module_architecture/ModuleManager.sol\":3801:3815  modules[count] */\n      0x20\n      mstore\n      0x40\n      swap1\n      dup2\n      swap1\n      keccak256\n        /* \"smart_contracts/module_architecture/ModuleManager.sol\":3858:3880  nameToIdentifier[name] */\n      swap1\n      mload\n        /* \"smart_contracts/module_architecture/ModuleManager.sol\":3801:3815  modules[count] */\n      swap1\n      swap2\n        /* \"smart_contracts/module_architecture/ModuleManager.sol\":3809:3814  count */\n      swap1\n        /* \"smart_contracts/module_architecture/ModuleManager.sol\":3858:3874  nameToIdentifier */\n      0x03\n      swap1\n        /* \"smart_contracts/module_architecture/ModuleManager.sol\":3858:3880  nameToIdentifier[name] */\n      tag_117\n      swap1\n        /* \"smart_contracts/module_architecture/ModuleManager.sol\":3875:3879  name */\n      dup7\n      swap1\n        /* \"smart_contracts/module_architecture/ModuleManager.sol\":3858:3880  nameToIdentifier[name] */\n      tag_68\n      jump\t// in\n    tag_117:\n      swap1\n      dup2\n      mstore\n      mload(0x40)\n      swap1\n      dup2\n      swap1\n      sub\n      0x20\n      add\n      swap1\n      keccak256\n        /* \"smart_contracts/module_architecture/ModuleManager.sol\":3858:3888  nameToIdentifier[name] = count */\n      sstore\n        /* \"smart_contracts/module_architecture/ModuleManager.sol\":3919:3924  count */\n      0x01\n      dup1\n      sload\n        /* \"smart_contracts/module_architecture/ModuleManager.sol\":3899:3924  module.identifier = count */\n      dup3\n      sstore\n        /* \"smart_contracts/module_architecture/ModuleManager.sol\":3934:3945  module.name */\n      dup2\n      add\n        /* \"smart_contracts/module_architecture/ModuleManager.sol\":3934:3952  module.name = name */\n      tag_118\n        /* \"smart_contracts/module_architecture/ModuleManager.sol\":3948:3952  name */\n      dup5\n        /* \"smart_contracts/module_architecture/ModuleManager.sol\":3934:3945  module.name */\n      dup3\n        /* \"smart_contracts/module_architecture/ModuleManager.sol\":3934:3952  module.name = name */\n      tag_119\n      jump\t// in\n    tag_118:\n      pop\n        /* \"smart_contracts/module_architecture/ModuleManager.sol\":4020:4037  module.identifier */\n      dup1\n      sload\n        /* \"smart_contracts/module_architecture/ModuleManager.sol\":3968:4047  ModuleCreated(... */\n      mload(0x40)\n      tag_120\n      swap1\n        /* \"smart_contracts/module_architecture/ModuleManager.sol\":3995:4006  module.name */\n      0x01\n      dup5\n      add\n      swap1\n        /* \"smart_contracts/module_architecture/ModuleManager.sol\":3968:4047  ModuleCreated(... */\n      tag_121\n      jump\t// in\n    tag_120:\n      mload(0x40)\n      swap1\n      dup2\n      swap1\n      sub\n      dup2\n      keccak256\n      swap1\n      0xe0e6e8b81ae036efc4ae16444815ccc05dd21be3412ddacd8376ebb5cdb47238\n      swap1\n      0x00\n      swap1\n      log3\n        /* \"smart_contracts/module_architecture/ModuleManager.sol\":4065:4082  module.identifier */\n      sload\n      swap1\n      pop\n        /* \"deps/openzeppelin/security/ReentrancyGuard.sol\":2304:2324  _nonReentrantAfter() */\n      tag_122\n        /* \"deps/openzeppelin/security/ReentrancyGuard.sol\":1717:1718  1 */\n      0x01\n        /* \"deps/openzeppelin/security/ReentrancyGuard.sol\":2810:2817  _status */\n      0x00\n        /* \"deps/openzeppelin/security/ReentrancyGuard.sol\":2810:2832  _status = _NOT_ENTERED */\n      sstore\n        /* \"deps/openzeppelin/security/ReentrancyGuard.sol\":2630:2839  function _nonReentrantAfter() private {... */\n      jump\n        /* \"deps/openzeppelin/security/ReentrancyGuard.sol\":2304:2324  _nonReentrantAfter() */\n    tag_122:\n        /* \"smart_contracts/module_architecture/ModuleManager.sol\":3606:4089  function create(string memory name) public nonReentrant returns (uint) {... */\n      swap2\n      swap1\n      pop\n      jump\t// out\n        /* \"smart_contracts/module_architecture/ModuleManager.sol\":5070:5318  function getLatestVersion(string memory name) public view returns (uint) {... */\n    tag_44:\n        /* \"smart_contracts/module_architecture/ModuleManager.sol\":5137:5141  uint */\n      0x00\n        /* \"smart_contracts/module_architecture/ModuleManager.sol\":5208:5229  Module storage module */\n      dup1\n        /* \"smart_contracts/module_architecture/ModuleManager.sol\":5232:5239  modules */\n      0x02\n        /* \"smart_contracts/module_architecture/ModuleManager.sol\":5232:5263  modules[nameToIdentifier[name]] */\n      0x00\n        /* \"smart_contracts/module_architecture/ModuleManager.sol\":5240:5256  nameToIdentifier */\n      0x03\n        /* \"smart_contracts/module_architecture/ModuleManager.sol\":5257:5261  name */\n      dup6\n        /* \"smart_contracts/module_architecture/ModuleManager.sol\":5240:5262  nameToIdentifier[name] */\n      mload(0x40)\n      tag_124\n      swap2\n      swap1\n      tag_68\n      jump\t// in\n    tag_124:\n      swap1\n      dup2\n      mstore\n      0x20\n      add\n      mload(0x40)\n      dup1\n      swap2\n      sub\n      swap1\n      keccak256\n      sload\n        /* \"smart_contracts/module_architecture/ModuleManager.sol\":5232:5263  modules[nameToIdentifier[name]] */\n      dup2\n      mstore\n      0x20\n      add\n      swap1\n      dup2\n      mstore\n      0x20\n      add\n      0x00\n      keccak256\n        /* \"smart_contracts/module_architecture/ModuleManager.sol\":5208:5263  Module storage module = modules[nameToIdentifier[name]] */\n      swap1\n      pop\n        /* \"smart_contracts/module_architecture/ModuleManager.sol\":5280:5311  module.implementations.length() */\n      tag_125\n        /* \"smart_contracts/module_architecture/ModuleManager.sol\":5280:5286  module */\n      dup2\n        /* \"smart_contracts/module_architecture/ModuleManager.sol\":5280:5302  module.implementations */\n      0x02\n      add\n        /* \"smart_contracts/module_architecture/ModuleManager.sol\":5280:5309  module.implementations.length */\n      tag_75\n        /* \"smart_contracts/module_architecture/ModuleManager.sol\":5280:5311  module.implementations.length() */\n      jump\t// in\n    tag_125:\n        /* \"smart_contracts/module_architecture/ModuleManager.sol\":5273:5311  return module.implementations.length() */\n      swap4\n        /* \"smart_contracts/module_architecture/ModuleManager.sol\":5070:5318  function getLatestVersion(string memory name) public view returns (uint) {... */\n      swap3\n      pop\n      pop\n      pop\n      jump\t// out\n        /* \"smart_contracts/module_architecture/ModuleManager.sol\":5365:5672  function getLatestImplementation(string memory name) public view returns (address) {... */\n    tag_48:\n        /* \"smart_contracts/module_architecture/ModuleManager.sol\":5439:5446  address */\n      0x00\n        /* \"smart_contracts/module_architecture/ModuleManager.sol\":5535:5556  Module storage module */\n      dup1\n        /* \"smart_contracts/module_architecture/ModuleManager.sol\":5559:5566  modules */\n      0x02\n        /* \"smart_contracts/module_architecture/ModuleManager.sol\":5559:5590  modules[nameToIdentifier[name]] */\n      0x00\n        /* \"smart_contracts/module_architecture/ModuleManager.sol\":5567:5583  nameToIdentifier */\n      0x03\n        /* \"smart_contracts/module_architecture/ModuleManager.sol\":5584:5588  name */\n      dup6\n        /* \"smart_contracts/module_architecture/ModuleManager.sol\":5567:5589  nameToIdentifier[name] */\n      mload(0x40)\n      tag_127\n      swap2\n      swap1\n      tag_68\n      jump\t// in\n    tag_127:\n      swap1\n      dup2\n      mstore\n      0x20\n      add\n      mload(0x40)\n      dup1\n      swap2\n      sub\n      swap1\n      keccak256\n      sload\n        /* \"smart_contracts/module_architecture/ModuleManager.sol\":5559:5590  modules[nameToIdentifier[name]] */\n      dup2\n      mstore\n      0x20\n      add\n      swap1\n      dup2\n      mstore\n      0x20\n      add\n      0x00\n      keccak256\n        /* \"smart_contracts/module_architecture/ModuleManager.sol\":5535:5590  Module storage module = modules[nameToIdentifier[name]] */\n      swap1\n      pop\n        /* \"smart_contracts/module_architecture/ModuleManager.sol\":5607:5665  module.implementations.at(module.implementations.length()) */\n      tag_125\n        /* \"smart_contracts/module_architecture/ModuleManager.sol\":5633:5664  module.implementations.length() */\n      tag_129\n        /* \"smart_contracts/module_architecture/ModuleManager.sol\":5633:5639  module */\n      dup3\n        /* \"smart_contracts/module_architecture/ModuleManager.sol\":5633:5655  module.implementations */\n      0x02\n      add\n        /* \"smart_contracts/module_architecture/ModuleManager.sol\":5633:5662  module.implementations.length */\n      tag_75\n        /* \"smart_contracts/module_architecture/ModuleManager.sol\":5633:5664  module.implementations.length() */\n      jump\t// in\n    tag_129:\n        /* \"smart_contracts/module_architecture/ModuleManager.sol\":5607:5629  module.implementations */\n      0x02\n      dup4\n      add\n      swap1\n        /* \"smart_contracts/module_architecture/ModuleManager.sol\":5607:5632  module.implementations.at */\n      tag_87\n        /* \"smart_contracts/module_architecture/ModuleManager.sol\":5607:5665  module.implementations.at(module.implementations.length()) */\n      jump\t// in\n        /* \"smart_contracts/module_architecture/ModuleManager.sol\":5678:6051  function getImplementation(... */\n    tag_54:\n        /* \"smart_contracts/module_architecture/ModuleManager.sol\":5782:5789  address */\n      0x00\n        /* \"smart_contracts/module_architecture/ModuleManager.sol\":5856:5927  _mustBeExistingVersion(... */\n      tag_131\n        /* \"smart_contracts/module_architecture/ModuleManager.sol\":5892:5896  name */\n      dup4\n        /* \"smart_contracts/module_architecture/ModuleManager.sol\":5910:5917  version */\n      dup4\n        /* \"smart_contracts/module_architecture/ModuleManager.sol\":5856:5878  _mustBeExistingVersion */\n      tag_132\n        /* \"smart_contracts/module_architecture/ModuleManager.sol\":5856:5927  _mustBeExistingVersion(... */\n      jump\t// in\n    tag_131:\n        /* \"smart_contracts/module_architecture/ModuleManager.sol\":5938:5959  Module storage module */\n      0x00\n        /* \"smart_contracts/module_architecture/ModuleManager.sol\":5962:5969  modules */\n      0x02\n        /* \"smart_contracts/module_architecture/ModuleManager.sol\":5962:5993  modules[nameToIdentifier[name]] */\n      0x00\n        /* \"smart_contracts/module_architecture/ModuleManager.sol\":5970:5986  nameToIdentifier */\n      0x03\n        /* \"smart_contracts/module_architecture/ModuleManager.sol\":5987:5991  name */\n      dup7\n        /* \"smart_contracts/module_architecture/ModuleManager.sol\":5970:5992  nameToIdentifier[name] */\n      mload(0x40)\n      tag_133\n      swap2\n      swap1\n      tag_68\n      jump\t// in\n    tag_133:\n      swap1\n      dup2\n      mstore\n      0x20\n      add\n      mload(0x40)\n      dup1\n      swap2\n      sub\n      swap1\n      keccak256\n      sload\n        /* \"smart_contracts/module_architecture/ModuleManager.sol\":5962:5993  modules[nameToIdentifier[name]] */\n      dup2\n      mstore\n      0x20\n      add\n      swap1\n      dup2\n      mstore\n      0x20\n      add\n      0x00\n      keccak256\n        /* \"smart_contracts/module_architecture/ModuleManager.sol\":5938:5993  Module storage module = modules[nameToIdentifier[name]] */\n      swap1\n      pop\n        /* \"smart_contracts/module_architecture/ModuleManager.sol\":6010:6044  module.implementations.at(version) */\n      tag_134\n        /* \"smart_contracts/module_architecture/ModuleManager.sol\":6036:6043  version */\n      dup4\n        /* \"smart_contracts/module_architecture/ModuleManager.sol\":6010:6016  module */\n      dup3\n        /* \"smart_contracts/module_architecture/ModuleManager.sol\":6010:6032  module.implementations */\n      0x02\n      add\n        /* \"smart_contracts/module_architecture/ModuleManager.sol\":6010:6035  module.implementations.at */\n      tag_87\n      swap1\n        /* \"smart_contracts/module_architecture/ModuleManager.sol\":6010:6044  module.implementations.at(version) */\n      swap2\n      swap1\n      0xffffffff\n      and\n      jump\t// in\n    tag_134:\n        /* \"smart_contracts/module_architecture/ModuleManager.sol\":6003:6044  return module.implementations.at(version) */\n      swap2\n      pop\n      pop\n        /* \"smart_contracts/module_architecture/ModuleManager.sol\":5678:6051  function getImplementation(... */\n    tag_130:\n      swap3\n      swap2\n      pop\n      pop\n      jump\t// out\n        /* \"smart_contracts/module_architecture/ModuleManager.sol\":4578:5064  function downgrade(... */\n    tag_58:\n        /* \"deps/openzeppelin/security/ReentrancyGuard.sol\":2262:2283  _nonReentrantBefore() */\n      tag_136\n        /* \"deps/openzeppelin/security/ReentrancyGuard.sol\":2262:2281  _nonReentrantBefore */\n      tag_61\n        /* \"deps/openzeppelin/security/ReentrancyGuard.sol\":2262:2283  _nonReentrantBefore() */\n      jump\t// in\n    tag_136:\n        /* \"smart_contracts/module_architecture/ModuleManager.sol\":4683:4710  _mustBeExistingModule(name) */\n      tag_138\n        /* \"smart_contracts/module_architecture/ModuleManager.sol\":4705:4709  name */\n      dup3\n        /* \"smart_contracts/module_architecture/ModuleManager.sol\":4683:4704  _mustBeExistingModule */\n      tag_139\n        /* \"smart_contracts/module_architecture/ModuleManager.sol\":4683:4710  _mustBeExistingModule(name) */\n      jump\t// in\n    tag_138:\n        /* \"smart_contracts/module_architecture/ModuleManager.sol\":4721:4742  Module storage module */\n      0x00\n        /* \"smart_contracts/module_architecture/ModuleManager.sol\":4745:4752  modules */\n      0x02\n        /* \"smart_contracts/module_architecture/ModuleManager.sol\":4745:4776  modules[nameToIdentifier[name]] */\n      0x00\n        /* \"smart_contracts/module_architecture/ModuleManager.sol\":4753:4769  nameToIdentifier */\n      0x03\n        /* \"smart_contracts/module_architecture/ModuleManager.sol\":4770:4774  name */\n      dup6\n        /* \"smart_contracts/module_architecture/ModuleManager.sol\":4753:4775  nameToIdentifier[name] */\n      mload(0x40)\n      tag_140\n      swap2\n      swap1\n      tag_68\n      jump\t// in\n    tag_140:\n      swap1\n      dup2\n      mstore\n      0x20\n      add\n      mload(0x40)\n      dup1\n      swap2\n      sub\n      swap1\n      keccak256\n      sload\n        /* \"smart_contracts/module_architecture/ModuleManager.sol\":4745:4776  modules[nameToIdentifier[name]] */\n      dup2\n      mstore\n      0x20\n      add\n      swap1\n      dup2\n      mstore\n      0x20\n      add\n      0x00\n      keccak256\n        /* \"smart_contracts/module_architecture/ModuleManager.sol\":4721:4776  Module storage module = modules[nameToIdentifier[name]] */\n      swap1\n      pop\n        /* \"smart_contracts/module_architecture/ModuleManager.sol\":4786:4911  _upgrade( /// push this version as latest version.... */\n      tag_141\n        /* \"smart_contracts/module_architecture/ModuleManager.sol\":4849:4853  name */\n      dup4\n        /* \"smart_contracts/module_architecture/ModuleManager.sol\":4867:4901  module.implementations.at(version) */\n      tag_142\n        /* \"smart_contracts/module_architecture/ModuleManager.sol\":4893:4900  version */\n      dup5\n        /* \"smart_contracts/module_architecture/ModuleManager.sol\":4867:4873  module */\n      dup5\n        /* \"smart_contracts/module_architecture/ModuleManager.sol\":4867:4889  module.implementations */\n      0x02\n      add\n        /* \"smart_contracts/module_architecture/ModuleManager.sol\":4867:4892  module.implementations.at */\n      tag_87\n      swap1\n        /* \"smart_contracts/module_architecture/ModuleManager.sol\":4867:4901  module.implementations.at(version) */\n      swap2\n      swap1\n      0xffffffff\n      and\n      jump\t// in\n    tag_142:\n        /* \"smart_contracts/module_architecture/ModuleManager.sol\":4786:4794  _upgrade */\n      tag_66\n        /* \"smart_contracts/module_architecture/ModuleManager.sol\":4786:4911  _upgrade( /// push this version as latest version.... */\n      jump\t// in\n    tag_141:\n        /* \"smart_contracts/module_architecture/ModuleManager.sol\":5013:5047  module.implementations.at(version) */\n      tag_143\n        /* \"smart_contracts/module_architecture/ModuleManager.sol\":5013:5035  module.implementations */\n      0x02\n      dup3\n      add\n        /* \"smart_contracts/module_architecture/ModuleManager.sol\":5039:5046  version */\n      dup4\n        /* \"smart_contracts/module_architecture/ModuleManager.sol\":5013:5038  module.implementations.at */\n      tag_87\n        /* \"smart_contracts/module_architecture/ModuleManager.sol\":5013:5047  module.implementations.at(version) */\n      jump\t// in\n    tag_143:\n        /* \"smart_contracts/module_architecture/ModuleManager.sol\":4927:5057  ModuleDowngraded(... */\n      0xffffffffffffffffffffffffffffffffffffffff\n      and\n        /* \"smart_contracts/module_architecture/ModuleManager.sol\":4982:4988  module */\n      dup2\n        /* \"smart_contracts/module_architecture/ModuleManager.sol\":4982:4999  module.identifier */\n      0x00\n      add\n      sload\n        /* \"smart_contracts/module_architecture/ModuleManager.sol\":4957:4963  module */\n      dup3\n        /* \"smart_contracts/module_architecture/ModuleManager.sol\":4957:4968  module.name */\n      0x01\n      add\n        /* \"smart_contracts/module_architecture/ModuleManager.sol\":4927:5057  ModuleDowngraded(... */\n      mload(0x40)\n      tag_144\n      swap2\n      swap1\n      tag_121\n      jump\t// in\n    tag_144:\n      mload(0x40)\n      swap1\n      dup2\n      swap1\n      sub\n      dup2\n      keccak256\n      swap1\n      0x8f06933070a3367170d50b358e9d73813dfbaaa11081bd5580ae4af2baba122d\n      swap1\n      0x00\n      swap1\n      log4\n        /* \"smart_contracts/module_architecture/ModuleManager.sol\":4673:5064  {... */\n      pop\n        /* \"deps/openzeppelin/security/ReentrancyGuard.sol\":2304:2324  _nonReentrantAfter() */\n      tag_70\n        /* \"deps/openzeppelin/security/ReentrancyGuard.sol\":1717:1718  1 */\n      0x01\n        /* \"deps/openzeppelin/security/ReentrancyGuard.sol\":2810:2817  _status */\n      0x00\n        /* \"deps/openzeppelin/security/ReentrancyGuard.sol\":2810:2832  _status = _NOT_ENTERED */\n      sstore\n        /* \"deps/openzeppelin/security/ReentrancyGuard.sol\":2630:2839  function _nonReentrantAfter() private {... */\n      jump\n        /* \"deps/openzeppelin/security/ReentrancyGuard.sol\":2337:2624  function _nonReentrantBefore() private {... */\n    tag_61:\n        /* \"deps/openzeppelin/security/ReentrancyGuard.sol\":1760:1761  2 */\n      0x02\n        /* \"deps/openzeppelin/security/ReentrancyGuard.sol\":2469:2476  _status */\n      sload(0x00)\n        /* \"deps/openzeppelin/security/ReentrancyGuard.sol\":2469:2488  _status != _ENTERED */\n      sub\n        /* \"deps/openzeppelin/security/ReentrancyGuard.sol\":2461:2524  require(_status != _ENTERED, \"ReentrancyGuard: reentrant call\") */\n      tag_147\n      jumpi\n      mload(0x40)\n      0x08c379a000000000000000000000000000000000000000000000000000000000\n      dup2\n      mstore\n        /* \"#utility.yul\":9657:9659   */\n      0x20\n        /* \"deps/openzeppelin/security/ReentrancyGuard.sol\":2461:2524  require(_status != _ENTERED, \"ReentrancyGuard: reentrant call\") */\n      0x04\n      dup3\n      add\n        /* \"#utility.yul\":9639:9660   */\n      mstore\n        /* \"#utility.yul\":9696:9698   */\n      0x1f\n        /* \"#utility.yul\":9676:9694   */\n      0x24\n      dup3\n      add\n        /* \"#utility.yul\":9669:9699   */\n      mstore\n        /* \"#utility.yul\":9735:9768   */\n      0x5265656e7472616e637947756172643a207265656e7472616e742063616c6c00\n        /* \"#utility.yul\":9715:9733   */\n      0x44\n      dup3\n      add\n        /* \"#utility.yul\":9708:9769   */\n      mstore\n        /* \"#utility.yul\":9786:9804   */\n      0x64\n      add\n        /* \"deps/openzeppelin/security/ReentrancyGuard.sol\":2461:2524  require(_status != _ENTERED, \"ReentrancyGuard: reentrant call\") */\n    tag_148:\n      mload(0x40)\n      dup1\n      swap2\n      sub\n      swap1\n      revert\n    tag_147:\n        /* \"deps/openzeppelin/security/ReentrancyGuard.sol\":1760:1761  2 */\n      0x02\n        /* \"deps/openzeppelin/security/ReentrancyGuard.sol\":2599:2606  _status */\n      0x00\n        /* \"deps/openzeppelin/security/ReentrancyGuard.sol\":2599:2617  _status = _ENTERED */\n      sstore\n        /* \"deps/openzeppelin/security/ReentrancyGuard.sol\":2337:2624  function _nonReentrantBefore() private {... */\n      jump\t// out\n        /* \"smart_contracts/module_architecture/ModuleManager.sol\":2870:3289  function _mustNotBeDuplicateImplementation(... */\n    tag_64:\n        /* \"smart_contracts/module_architecture/ModuleManager.sol\":3080:3101  Module storage module */\n      0x00\n        /* \"smart_contracts/module_architecture/ModuleManager.sol\":3104:3111  modules */\n      0x02\n        /* \"smart_contracts/module_architecture/ModuleManager.sol\":3104:3135  modules[nameToIdentifier[name]] */\n      0x00\n        /* \"smart_contracts/module_architecture/ModuleManager.sol\":3112:3128  nameToIdentifier */\n      0x03\n        /* \"smart_contracts/module_architecture/ModuleManager.sol\":3129:3133  name */\n      dup6\n        /* \"smart_contracts/module_architecture/ModuleManager.sol\":3112:3134  nameToIdentifier[name] */\n      mload(0x40)\n      tag_151\n      swap2\n      swap1\n      tag_68\n      jump\t// in\n    tag_151:\n      swap1\n      dup2\n      mstore\n      0x20\n      add\n      mload(0x40)\n      dup1\n      swap2\n      sub\n      swap1\n      keccak256\n      sload\n        /* \"smart_contracts/module_architecture/ModuleManager.sol\":3104:3135  modules[nameToIdentifier[name]] */\n      dup2\n      mstore\n      0x20\n      add\n      swap1\n      dup2\n      mstore\n      0x20\n      add\n      0x00\n      keccak256\n        /* \"smart_contracts/module_architecture/ModuleManager.sol\":3080:3135  Module storage module = modules[nameToIdentifier[name]] */\n      swap1\n      pop\n        /* \"smart_contracts/module_architecture/ModuleManager.sol\":3167:3217  module.implementations.contains(newImplementation) */\n      tag_152\n        /* \"smart_contracts/module_architecture/ModuleManager.sol\":3199:3216  newImplementation */\n      dup3\n        /* \"smart_contracts/module_architecture/ModuleManager.sol\":3167:3173  module */\n      dup3\n        /* \"smart_contracts/module_architecture/ModuleManager.sol\":3167:3189  module.implementations */\n      0x02\n      add\n        /* \"smart_contracts/module_architecture/ModuleManager.sol\":3167:3198  module.implementations.contains */\n      tag_153\n      swap1\n        /* \"smart_contracts/module_architecture/ModuleManager.sol\":3167:3217  module.implementations.contains(newImplementation) */\n      swap2\n      swap1\n      0xffffffff\n      and\n      jump\t// in\n    tag_152:\n        /* \"smart_contracts/module_architecture/ModuleManager.sol\":3166:3217  !module.implementations.contains(newImplementation) */\n      iszero\n        /* \"smart_contracts/module_architecture/ModuleManager.sol\":3145:3282  require(... */\n      tag_154\n      jumpi\n      mload(0x40)\n      0x08c379a000000000000000000000000000000000000000000000000000000000\n      dup2\n      mstore\n        /* \"#utility.yul\":10017:10019   */\n      0x20\n        /* \"smart_contracts/module_architecture/ModuleManager.sol\":3145:3282  require(... */\n      0x04\n      dup3\n      add\n        /* \"#utility.yul\":9999:10020   */\n      mstore\n        /* \"#utility.yul\":10056:10058   */\n      0x27\n        /* \"#utility.yul\":10036:10054   */\n      0x24\n      dup3\n      add\n        /* \"#utility.yul\":10029:10059   */\n      mstore\n        /* \"#utility.yul\":10095:10129   */\n      0x4d6f64756c6520616c726561647920686173207468697320696d706c656d656e\n        /* \"#utility.yul\":10075:10093   */\n      0x44\n      dup3\n      add\n        /* \"#utility.yul\":10068:10130   */\n      mstore\n        /* \"#utility.yul\":10166:10175   */\n      0x746174696f6e2e00000000000000000000000000000000000000000000000000\n        /* \"#utility.yul\":10146:10164   */\n      0x64\n      dup3\n      add\n        /* \"#utility.yul\":10139:10176   */\n      mstore\n        /* \"#utility.yul\":10193:10212   */\n      0x84\n      add\n        /* \"smart_contracts/module_architecture/ModuleManager.sol\":3145:3282  require(... */\n      tag_148\n        /* \"#utility.yul\":9815:10218   */\n      jump\n        /* \"smart_contracts/module_architecture/ModuleManager.sol\":3145:3282  require(... */\n    tag_154:\n        /* \"smart_contracts/module_architecture/ModuleManager.sol\":2996:3289  {... */\n      pop\n        /* \"smart_contracts/module_architecture/ModuleManager.sol\":2870:3289  function _mustNotBeDuplicateImplementation(... */\n      pop\n      pop\n      jump\t// out\n        /* \"smart_contracts/module_architecture/ModuleManager.sol\":3295:3600  function _upgrade(... */\n    tag_66:\n        /* \"smart_contracts/module_architecture/ModuleManager.sol\":3446:3473  _mustBeExistingModule(name) */\n      tag_158\n        /* \"smart_contracts/module_architecture/ModuleManager.sol\":3468:3472  name */\n      dup3\n        /* \"smart_contracts/module_architecture/ModuleManager.sol\":3446:3467  _mustBeExistingModule */\n      tag_139\n        /* \"smart_contracts/module_architecture/ModuleManager.sol\":3446:3473  _mustBeExistingModule(name) */\n      jump\t// in\n    tag_158:\n        /* \"smart_contracts/module_architecture/ModuleManager.sol\":3483:3504  Module storage module */\n      0x00\n        /* \"smart_contracts/module_architecture/ModuleManager.sol\":3507:3514  modules */\n      0x02\n        /* \"smart_contracts/module_architecture/ModuleManager.sol\":3507:3538  modules[nameToIdentifier[name]] */\n      0x00\n        /* \"smart_contracts/module_architecture/ModuleManager.sol\":3515:3531  nameToIdentifier */\n      0x03\n        /* \"smart_contracts/module_architecture/ModuleManager.sol\":3532:3536  name */\n      dup6\n        /* \"smart_contracts/module_architecture/ModuleManager.sol\":3515:3537  nameToIdentifier[name] */\n      mload(0x40)\n      tag_159\n      swap2\n      swap1\n      tag_68\n      jump\t// in\n    tag_159:\n      swap1\n      dup2\n      mstore\n      0x20\n      add\n      mload(0x40)\n      dup1\n      swap2\n      sub\n      swap1\n      keccak256\n      sload\n        /* \"smart_contracts/module_architecture/ModuleManager.sol\":3507:3538  modules[nameToIdentifier[name]] */\n      dup2\n      mstore\n      0x20\n      add\n      swap1\n      dup2\n      mstore\n      0x20\n      add\n      0x00\n      keccak256\n        /* \"smart_contracts/module_architecture/ModuleManager.sol\":3483:3538  Module storage module = modules[nameToIdentifier[name]] */\n      swap1\n      pop\n        /* \"smart_contracts/module_architecture/ModuleManager.sol\":3548:3593  module.implementations.add(newImplementation) */\n      tag_160\n        /* \"smart_contracts/module_architecture/ModuleManager.sol\":3575:3592  newImplementation */\n      dup3\n        /* \"smart_contracts/module_architecture/ModuleManager.sol\":3548:3554  module */\n      dup3\n        /* \"smart_contracts/module_architecture/ModuleManager.sol\":3548:3570  module.implementations */\n      0x02\n      add\n        /* \"smart_contracts/module_architecture/ModuleManager.sol\":3548:3574  module.implementations.add */\n      tag_161\n      swap1\n        /* \"smart_contracts/module_architecture/ModuleManager.sol\":3548:3593  module.implementations.add(newImplementation) */\n      swap2\n      swap1\n      0xffffffff\n      and\n      jump\t// in\n    tag_160:\n      pop\n        /* \"smart_contracts/module_architecture/ModuleManager.sol\":3390:3600  {... */\n      pop\n        /* \"smart_contracts/module_architecture/ModuleManager.sol\":3295:3600  function _upgrade(... */\n      pop\n      pop\n      jump\t// out\n        /* \"deps/openzeppelin/utils/structs/EnumerableSet.sol\":9107:9222  function length(AddressSet storage set) internal view returns (uint256) {... */\n    tag_75:\n        /* \"deps/openzeppelin/utils/structs/EnumerableSet.sol\":9170:9177  uint256 */\n      0x00\n        /* \"deps/openzeppelin/utils/structs/EnumerableSet.sol\":9196:9215  _length(set._inner) */\n      tag_130\n        /* \"deps/openzeppelin/utils/structs/EnumerableSet.sol\":9204:9207  set */\n      dup3\n        /* \"deps/openzeppelin/utils/structs/EnumerableSet.sol\":4546:4564  set._values.length */\n      sload\n      swap1\n        /* \"deps/openzeppelin/utils/structs/EnumerableSet.sol\":4464:4571  function _length(Set storage set) private view returns (uint256) {... */\n      jump\n        /* \"deps/openzeppelin/utils/structs/EnumerableSet.sol\":9564:9720  function at(AddressSet storage set, uint256 index) internal view returns (address) {... */\n    tag_87:\n        /* \"deps/openzeppelin/utils/structs/EnumerableSet.sol\":9638:9645  address */\n      0x00\n        /* \"deps/openzeppelin/utils/structs/EnumerableSet.sol\":9688:9710  _at(set._inner, index) */\n      tag_125\n        /* \"deps/openzeppelin/utils/structs/EnumerableSet.sol\":9692:9695  set */\n      dup4\n        /* \"deps/openzeppelin/utils/structs/EnumerableSet.sol\":9704:9709  index */\n      dup4\n        /* \"deps/openzeppelin/utils/structs/EnumerableSet.sol\":9688:9691  _at */\n      tag_168\n        /* \"deps/openzeppelin/utils/structs/EnumerableSet.sol\":9688:9710  _at(set._inner, index) */\n      jump\t// in\n        /* \"smart_contracts/module_architecture/ModuleManager.sol\":1841:2143  function _mustNotBeExistingModule(string memory name) internal view {... */\n    tag_115:\n        /* \"smart_contracts/module_architecture/ModuleManager.sol\":2058:2074  nameToIdentifier */\n      0x03\n        /* \"smart_contracts/module_architecture/ModuleManager.sol\":2075:2079  name */\n      dup2\n        /* \"smart_contracts/module_architecture/ModuleManager.sol\":2058:2080  nameToIdentifier[name] */\n      mload(0x40)\n      tag_170\n      swap2\n      swap1\n      tag_68\n      jump\t// in\n    tag_170:\n      swap1\n      dup2\n      mstore\n      0x20\n      add\n      mload(0x40)\n      dup1\n      swap2\n      sub\n      swap1\n      keccak256\n      sload\n        /* \"smart_contracts/module_architecture/ModuleManager.sol\":2084:2085  0 */\n      0x00\n        /* \"smart_contracts/module_architecture/ModuleManager.sol\":2058:2085  nameToIdentifier[name] == 0 */\n      eq\n        /* \"smart_contracts/module_architecture/ModuleManager.sol\":1971:2136  require( /// @dev zero is the default identifier of a non existent module.... */\n      tag_171\n      jumpi\n      mload(0x40)\n      0x08c379a000000000000000000000000000000000000000000000000000000000\n      dup2\n      mstore\n        /* \"#utility.yul\":10425:10427   */\n      0x20\n        /* \"smart_contracts/module_architecture/ModuleManager.sol\":1971:2136  require( /// @dev zero is the default identifier of a non existent module.... */\n      0x04\n      dup3\n      add\n        /* \"#utility.yul\":10407:10428   */\n      mstore\n        /* \"#utility.yul\":10464:10466   */\n      0x19\n        /* \"#utility.yul\":10444:10462   */\n      0x24\n      dup3\n      add\n        /* \"#utility.yul\":10437:10467   */\n      mstore\n        /* \"#utility.yul\":10503:10530   */\n      0x4d6f64756c6520697320616c726561647920696e207573652e00000000000000\n        /* \"#utility.yul\":10483:10501   */\n      0x44\n      dup3\n      add\n        /* \"#utility.yul\":10476:10531   */\n      mstore\n        /* \"#utility.yul\":10548:10566   */\n      0x64\n      add\n        /* \"smart_contracts/module_architecture/ModuleManager.sol\":1971:2136  require( /// @dev zero is the default identifier of a non existent module.... */\n      tag_148\n        /* \"#utility.yul\":10223:10572   */\n      jump\n        /* \"smart_contracts/module_architecture/ModuleManager.sol\":1971:2136  require( /// @dev zero is the default identifier of a non existent module.... */\n    tag_171:\n        /* \"smart_contracts/module_architecture/ModuleManager.sol\":1841:2143  function _mustNotBeExistingModule(string memory name) internal view {... */\n      pop\n      jump\t// out\n        /* \"smart_contracts/module_architecture/ModuleManager.sol\":2443:2864  function _mustBeExistingVersion(... */\n    tag_132:\n        /* \"smart_contracts/module_architecture/ModuleManager.sol\":2555:2576  Module storage module */\n      0x00\n        /* \"smart_contracts/module_architecture/ModuleManager.sol\":2579:2586  modules */\n      0x02\n        /* \"smart_contracts/module_architecture/ModuleManager.sol\":2579:2610  modules[nameToIdentifier[name]] */\n      0x00\n        /* \"smart_contracts/module_architecture/ModuleManager.sol\":2587:2603  nameToIdentifier */\n      0x03\n        /* \"smart_contracts/module_architecture/ModuleManager.sol\":2604:2608  name */\n      dup6\n        /* \"smart_contracts/module_architecture/ModuleManager.sol\":2587:2609  nameToIdentifier[name] */\n      mload(0x40)\n      tag_175\n      swap2\n      swap1\n      tag_68\n      jump\t// in\n    tag_175:\n      swap1\n      dup2\n      mstore\n      0x20\n      add\n      mload(0x40)\n      dup1\n      swap2\n      sub\n      swap1\n      keccak256\n      sload\n        /* \"smart_contracts/module_architecture/ModuleManager.sol\":2579:2610  modules[nameToIdentifier[name]] */\n      dup2\n      mstore\n      0x20\n      add\n      swap1\n      dup2\n      mstore\n      0x20\n      add\n      0x00\n      keccak256\n        /* \"smart_contracts/module_architecture/ModuleManager.sol\":2555:2610  Module storage module = modules[nameToIdentifier[name]] */\n      swap1\n      pop\n        /* \"smart_contracts/module_architecture/ModuleManager.sol\":2719:2720  1 */\n      0x01\n        /* \"smart_contracts/module_architecture/ModuleManager.sol\":2708:2715  version */\n      dup3\n        /* \"smart_contracts/module_architecture/ModuleManager.sol\":2708:2720  version >= 1 */\n      lt\n      iszero\n        /* \"smart_contracts/module_architecture/ModuleManager.sol\":2708:2778  version >= 1 &&... */\n      dup1\n      iszero\n      tag_176\n      jumpi\n      pop\n        /* \"smart_contracts/module_architecture/ModuleManager.sol\":2747:2778  module.implementations.length() */\n      tag_177\n        /* \"smart_contracts/module_architecture/ModuleManager.sol\":2747:2753  module */\n      dup2\n        /* \"smart_contracts/module_architecture/ModuleManager.sol\":2747:2769  module.implementations */\n      0x02\n      add\n        /* \"smart_contracts/module_architecture/ModuleManager.sol\":2747:2776  module.implementations.length */\n      tag_75\n        /* \"smart_contracts/module_architecture/ModuleManager.sol\":2747:2778  module.implementations.length() */\n      jump\t// in\n    tag_177:\n        /* \"smart_contracts/module_architecture/ModuleManager.sol\":2736:2743  version */\n      dup3\n        /* \"smart_contracts/module_architecture/ModuleManager.sol\":2736:2778  version <= module.implementations.length() */\n      gt\n      iszero\n        /* \"smart_contracts/module_architecture/ModuleManager.sol\":2708:2778  version >= 1 &&... */\n    tag_176:\n        /* \"smart_contracts/module_architecture/ModuleManager.sol\":2620:2857  require( /// @dev zero is address zero therefore not a real implementation.... */\n      tag_154\n      jumpi\n      mload(0x40)\n      0x08c379a000000000000000000000000000000000000000000000000000000000\n      dup2\n      mstore\n        /* \"#utility.yul\":10779:10781   */\n      0x20\n        /* \"smart_contracts/module_architecture/ModuleManager.sol\":2620:2857  require( /// @dev zero is address zero therefore not a real implementation.... */\n      0x04\n      dup3\n      add\n        /* \"#utility.yul\":10761:10782   */\n      mstore\n        /* \"#utility.yul\":10818:10820   */\n      0x35\n        /* \"#utility.yul\":10798:10816   */\n      0x24\n      dup3\n      add\n        /* \"#utility.yul\":10791:10821   */\n      mstore\n        /* \"#utility.yul\":10857:10891   */\n      0x56657273696f6e20646f6573206e6f7420706f696e7420746f20616e20657869\n        /* \"#utility.yul\":10837:10855   */\n      0x44\n      dup3\n      add\n        /* \"#utility.yul\":10830:10892   */\n      mstore\n        /* \"#utility.yul\":10928:10951   */\n      0x7374696e6720696d706c656d656e746174696f6e2e0000000000000000000000\n        /* \"#utility.yul\":10908:10926   */\n      0x64\n      dup3\n      add\n        /* \"#utility.yul\":10901:10952   */\n      mstore\n        /* \"#utility.yul\":10969:10988   */\n      0x84\n      add\n        /* \"smart_contracts/module_architecture/ModuleManager.sol\":2620:2857  require( /// @dev zero is address zero therefore not a real implementation.... */\n      tag_148\n        /* \"#utility.yul\":10577:10994   */\n      jump\n        /* \"smart_contracts/module_architecture/ModuleManager.sol\":2149:2437  function _mustBeExistingModule(string memory name) internal view {... */\n    tag_139:\n        /* \"smart_contracts/module_architecture/ModuleManager.sol\":2355:2371  nameToIdentifier */\n      0x03\n        /* \"smart_contracts/module_architecture/ModuleManager.sol\":2372:2376  name */\n      dup2\n        /* \"smart_contracts/module_architecture/ModuleManager.sol\":2355:2377  nameToIdentifier[name] */\n      mload(0x40)\n      tag_182\n      swap2\n      swap1\n      tag_68\n      jump\t// in\n    tag_182:\n      swap1\n      dup2\n      mstore\n      0x20\n      add\n      mload(0x40)\n      dup1\n      swap2\n      sub\n      swap1\n      keccak256\n      sload\n        /* \"smart_contracts/module_architecture/ModuleManager.sol\":2381:2382  0 */\n      0x00\n        /* \"smart_contracts/module_architecture/ModuleManager.sol\":2355:2382  nameToIdentifier[name] != 0 */\n      sub\n        /* \"smart_contracts/module_architecture/ModuleManager.sol\":2268:2430  require( /// @dev zero is the default identifier of a non existing module.... */\n      tag_171\n      jumpi\n      mload(0x40)\n      0x08c379a000000000000000000000000000000000000000000000000000000000\n      dup2\n      mstore\n        /* \"#utility.yul\":11201:11203   */\n      0x20\n        /* \"smart_contracts/module_architecture/ModuleManager.sol\":2268:2430  require( /// @dev zero is the default identifier of a non existing module.... */\n      0x04\n      dup3\n      add\n        /* \"#utility.yul\":11183:11204   */\n      mstore\n        /* \"#utility.yul\":11240:11242   */\n      0x16\n        /* \"#utility.yul\":11220:11238   */\n      0x24\n      dup3\n      add\n        /* \"#utility.yul\":11213:11243   */\n      mstore\n        /* \"#utility.yul\":11279:11303   */\n      0x4d6f64756c6520646f6573206e6f742065786973742e00000000000000000000\n        /* \"#utility.yul\":11259:11277   */\n      0x44\n      dup3\n      add\n        /* \"#utility.yul\":11252:11304   */\n      mstore\n        /* \"#utility.yul\":11321:11339   */\n      0x64\n      add\n        /* \"smart_contracts/module_architecture/ModuleManager.sol\":2268:2430  require( /// @dev zero is the default identifier of a non existing module.... */\n      tag_148\n        /* \"#utility.yul\":10999:11345   */\n      jump\n        /* \"deps/openzeppelin/utils/structs/EnumerableSet.sol\":8861:9026  function contains(AddressSet storage set, address value) internal view returns (bool) {... */\n    tag_153:\n        /* \"deps/openzeppelin/utils/structs/EnumerableSet.sol\":8994:9017  uint256(uint160(value)) */\n      0xffffffffffffffffffffffffffffffffffffffff\n      dup2\n      and\n        /* \"deps/openzeppelin/utils/structs/EnumerableSet.sol\":8941:8945  bool */\n      0x00\n        /* \"deps/openzeppelin/utils/structs/EnumerableSet.sol\":4352:4371  set._indexes[value] */\n      swap1\n      dup2\n      mstore\n        /* \"deps/openzeppelin/utils/structs/EnumerableSet.sol\":4352:4364  set._indexes */\n      0x01\n      dup4\n      add\n        /* \"deps/openzeppelin/utils/structs/EnumerableSet.sol\":4352:4371  set._indexes[value] */\n      0x20\n      mstore\n      0x40\n      dup2\n      keccak256\n      sload\n        /* \"deps/openzeppelin/utils/structs/EnumerableSet.sol\":4352:4376  set._indexes[value] != 0 */\n      iszero\n      iszero\n        /* \"deps/openzeppelin/utils/structs/EnumerableSet.sol\":8964:9019  _contains(set._inner, bytes32(uint256(uint160(value)))) */\n      tag_125\n        /* \"deps/openzeppelin/utils/structs/EnumerableSet.sol\":4256:4383  function _contains(Set storage set, bytes32 value) private view returns (bool) {... */\n      jump\n        /* \"deps/openzeppelin/utils/structs/EnumerableSet.sol\":8306:8456  function add(AddressSet storage set, address value) internal returns (bool) {... */\n    tag_161:\n        /* \"deps/openzeppelin/utils/structs/EnumerableSet.sol\":8376:8380  bool */\n      0x00\n        /* \"deps/openzeppelin/utils/structs/EnumerableSet.sol\":8399:8449  _add(set._inner, bytes32(uint256(uint160(value)))) */\n      tag_125\n        /* \"deps/openzeppelin/utils/structs/EnumerableSet.sol\":8404:8407  set */\n      dup4\n        /* \"deps/openzeppelin/utils/structs/EnumerableSet.sol\":8424:8447  uint256(uint160(value)) */\n      0xffffffffffffffffffffffffffffffffffffffff\n      dup5\n      and\n        /* \"deps/openzeppelin/utils/structs/EnumerableSet.sol\":8399:8403  _add */\n      tag_191\n        /* \"deps/openzeppelin/utils/structs/EnumerableSet.sol\":8399:8449  _add(set._inner, bytes32(uint256(uint160(value)))) */\n      jump\t// in\n        /* \"deps/openzeppelin/utils/structs/EnumerableSet.sol\":4913:5031  function _at(Set storage set, uint256 index) private view returns (bytes32) {... */\n    tag_168:\n        /* \"deps/openzeppelin/utils/structs/EnumerableSet.sol\":4980:4987  bytes32 */\n      0x00\n        /* \"deps/openzeppelin/utils/structs/EnumerableSet.sol\":5006:5009  set */\n      dup3\n        /* \"deps/openzeppelin/utils/structs/EnumerableSet.sol\":5006:5017  set._values */\n      0x00\n      add\n        /* \"deps/openzeppelin/utils/structs/EnumerableSet.sol\":5018:5023  index */\n      dup3\n        /* \"deps/openzeppelin/utils/structs/EnumerableSet.sol\":5006:5024  set._values[index] */\n      dup2\n      sload\n      dup2\n      lt\n      tag_195\n      jumpi\n      tag_195\n      tag_90\n      jump\t// in\n    tag_195:\n      swap1\n      0x00\n      mstore\n      keccak256(0x00, 0x20)\n      add\n      sload\n        /* \"deps/openzeppelin/utils/structs/EnumerableSet.sol\":4999:5024  return set._values[index] */\n      swap1\n      pop\n        /* \"deps/openzeppelin/utils/structs/EnumerableSet.sol\":4913:5031  function _at(Set storage set, uint256 index) private view returns (bytes32) {... */\n      swap3\n      swap2\n      pop\n      pop\n      jump\t// out\n        /* \"deps/openzeppelin/utils/structs/EnumerableSet.sol\":2215:2619  function _add(Set storage set, bytes32 value) private returns (bool) {... */\n    tag_191:\n        /* \"deps/openzeppelin/utils/structs/EnumerableSet.sol\":2278:2282  bool */\n      0x00\n        /* \"deps/openzeppelin/utils/structs/EnumerableSet.sol\":4352:4371  set._indexes[value] */\n      dup2\n      dup2\n      mstore\n        /* \"deps/openzeppelin/utils/structs/EnumerableSet.sol\":4352:4364  set._indexes */\n      0x01\n      dup4\n      add\n        /* \"deps/openzeppelin/utils/structs/EnumerableSet.sol\":4352:4371  set._indexes[value] */\n      0x20\n      mstore\n      0x40\n      dup2\n      keccak256\n      sload\n        /* \"deps/openzeppelin/utils/structs/EnumerableSet.sol\":2294:2613  if (!_contains(set, value)) {... */\n      tag_200\n      jumpi\n      pop\n        /* \"deps/openzeppelin/utils/structs/EnumerableSet.sol\":2336:2359  set._values.push(value) */\n      dup2\n      sload\n      0x01\n      dup2\n      dup2\n      add\n      dup5\n      sstore\n        /* \"deps/openzeppelin/utils/structs/EnumerableSet.sol\":2336:2347  set._values */\n      0x00\n        /* \"deps/openzeppelin/utils/structs/EnumerableSet.sol\":2336:2359  set._values.push(value) */\n      dup5\n      dup2\n      mstore\n      0x20\n      dup1\n      dup3\n      keccak256\n      swap1\n      swap4\n      add\n      dup5\n      swap1\n      sstore\n        /* \"deps/openzeppelin/utils/structs/EnumerableSet.sol\":2516:2534  set._values.length */\n      dup5\n      sload\n        /* \"deps/openzeppelin/utils/structs/EnumerableSet.sol\":2494:2513  set._indexes[value] */\n      dup5\n      dup3\n      mstore\n        /* \"deps/openzeppelin/utils/structs/EnumerableSet.sol\":2494:2506  set._indexes */\n      dup3\n      dup7\n      add\n        /* \"deps/openzeppelin/utils/structs/EnumerableSet.sol\":2494:2513  set._indexes[value] */\n      swap1\n      swap4\n      mstore\n      0x40\n      swap1\n      keccak256\n        /* \"deps/openzeppelin/utils/structs/EnumerableSet.sol\":2494:2534  set._indexes[value] = set._values.length */\n      swap2\n      swap1\n      swap2\n      sstore\n        /* \"deps/openzeppelin/utils/structs/EnumerableSet.sol\":2548:2559  return true */\n      jump(tag_130)\n        /* \"deps/openzeppelin/utils/structs/EnumerableSet.sol\":2294:2613  if (!_contains(set, value)) {... */\n    tag_200:\n      pop\n        /* \"deps/openzeppelin/utils/structs/EnumerableSet.sol\":2597:2602  false */\n      0x00\n        /* \"deps/openzeppelin/utils/structs/EnumerableSet.sol\":2590:2602  return false */\n      jump(tag_130)\n        /* \"#utility.yul\":196:380   */\n    tag_80:\n        /* \"#utility.yul\":248:325   */\n      0x4e487b7100000000000000000000000000000000000000000000000000000000\n        /* \"#utility.yul\":245:246   */\n      0x00\n        /* \"#utility.yul\":238:326   */\n      mstore\n        /* \"#utility.yul\":345:349   */\n      0x41\n        /* \"#utility.yul\":342:343   */\n      0x04\n        /* \"#utility.yul\":335:350   */\n      mstore\n        /* \"#utility.yul\":369:373   */\n      0x24\n        /* \"#utility.yul\":366:367   */\n      0x00\n        /* \"#utility.yul\":359:374   */\n      revert\n        /* \"#utility.yul\":385:1163   */\n    tag_203:\n        /* \"#utility.yul\":428:433   */\n      0x00\n        /* \"#utility.yul\":481:484   */\n      dup3\n        /* \"#utility.yul\":474:478   */\n      0x1f\n        /* \"#utility.yul\":466:472   */\n      dup4\n        /* \"#utility.yul\":462:479   */\n      add\n        /* \"#utility.yul\":458:485   */\n      slt\n        /* \"#utility.yul\":448:503   */\n      tag_213\n      jumpi\n        /* \"#utility.yul\":499:500   */\n      0x00\n        /* \"#utility.yul\":496:497   */\n      dup1\n        /* \"#utility.yul\":489:501   */\n      revert\n        /* \"#utility.yul\":448:503   */\n    tag_213:\n        /* \"#utility.yul\":535:541   */\n      dup2\n        /* \"#utility.yul\":522:542   */\n      calldataload\n        /* \"#utility.yul\":561:579   */\n      0xffffffffffffffff\n        /* \"#utility.yul\":598:600   */\n      dup1\n        /* \"#utility.yul\":594:596   */\n      dup3\n        /* \"#utility.yul\":591:601   */\n      gt\n        /* \"#utility.yul\":588:624   */\n      iszero\n      tag_215\n      jumpi\n        /* \"#utility.yul\":604:622   */\n      tag_215\n      tag_80\n      jump\t// in\n    tag_215:\n        /* \"#utility.yul\":738:740   */\n      0x40\n        /* \"#utility.yul\":732:741   */\n      mload\n        /* \"#utility.yul\":800:804   */\n      0x1f\n        /* \"#utility.yul\":792:805   */\n      dup4\n      add\n        /* \"#utility.yul\":643:709   */\n      0xffffffffffffffffffffffffffffffffffffffffffffffffffffffffffffffe0\n        /* \"#utility.yul\":788:810   */\n      swap1\n      dup2\n      and\n        /* \"#utility.yul\":812:814   */\n      0x3f\n        /* \"#utility.yul\":784:815   */\n      add\n        /* \"#utility.yul\":780:820   */\n      and\n        /* \"#utility.yul\":768:821   */\n      dup2\n      add\n      swap1\n        /* \"#utility.yul\":836:854   */\n      dup3\n      dup3\n      gt\n        /* \"#utility.yul\":856:878   */\n      dup2\n      dup4\n      lt\n        /* \"#utility.yul\":833:879   */\n      or\n        /* \"#utility.yul\":830:902   */\n      iszero\n      tag_217\n      jumpi\n        /* \"#utility.yul\":882:900   */\n      tag_217\n      tag_80\n      jump\t// in\n    tag_217:\n        /* \"#utility.yul\":922:932   */\n      dup2\n        /* \"#utility.yul\":918:920   */\n      0x40\n        /* \"#utility.yul\":911:933   */\n      mstore\n        /* \"#utility.yul\":957:959   */\n      dup4\n        /* \"#utility.yul\":949:955   */\n      dup2\n        /* \"#utility.yul\":942:960   */\n      mstore\n        /* \"#utility.yul\":1003:1006   */\n      dup7\n        /* \"#utility.yul\":996:1000   */\n      0x20\n        /* \"#utility.yul\":991:993   */\n      dup6\n        /* \"#utility.yul\":983:989   */\n      dup9\n        /* \"#utility.yul\":979:994   */\n      add\n        /* \"#utility.yul\":975:1001   */\n      add\n        /* \"#utility.yul\":972:1007   */\n      gt\n        /* \"#utility.yul\":969:1024   */\n      iszero\n      tag_218\n      jumpi\n        /* \"#utility.yul\":1020:1021   */\n      0x00\n        /* \"#utility.yul\":1017:1018   */\n      dup1\n        /* \"#utility.yul\":1010:1022   */\n      revert\n        /* \"#utility.yul\":969:1024   */\n    tag_218:\n        /* \"#utility.yul\":1084:1086   */\n      dup4\n        /* \"#utility.yul\":1077:1081   */\n      0x20\n        /* \"#utility.yul\":1069:1075   */\n      dup8\n        /* \"#utility.yul\":1065:1082   */\n      add\n        /* \"#utility.yul\":1058:1062   */\n      0x20\n        /* \"#utility.yul\":1050:1056   */\n      dup4\n        /* \"#utility.yul\":1046:1063   */\n      add\n        /* \"#utility.yul\":1033:1087   */\n      calldatacopy\n        /* \"#utility.yul\":1131:1132   */\n      0x00\n        /* \"#utility.yul\":1124:1128   */\n      0x20\n        /* \"#utility.yul\":1119:1121   */\n      dup6\n        /* \"#utility.yul\":1111:1117   */\n      dup4\n        /* \"#utility.yul\":1107:1122   */\n      add\n        /* \"#utility.yul\":1103:1129   */\n      add\n        /* \"#utility.yul\":1096:1133   */\n      mstore\n        /* \"#utility.yul\":1151:1157   */\n      dup1\n        /* \"#utility.yul\":1142:1157   */\n      swap5\n      pop\n      pop\n      pop\n      pop\n      pop\n        /* \"#utility.yul\":385:1163   */\n      swap3\n      swap2\n      pop\n      pop\n      jump\t// out\n        /* \"#utility.yul\":1168:1490   */\n    tag_22:\n        /* \"#utility.yul\":1237:1243   */\n      0x00\n        /* \"#utility.yul\":1290:1292   */\n      0x20\n        /* \"#utility.yul\":1278:1287   */\n      dup3\n        /* \"#utility.yul\":1269:1276   */\n      dup5\n        /* \"#utility.yul\":1265:1288   */\n      sub\n        /* \"#utility.yul\":1261:1293   */\n      slt\n        /* \"#utility.yul\":1258:1310   */\n      iszero\n      tag_220\n      jumpi\n        /* \"#utility.yul\":1306:1307   */\n      0x00\n        /* \"#utility.yul\":1303:1304   */\n      dup1\n        /* \"#utility.yul\":1296:1308   */\n      revert\n        /* \"#utility.yul\":1258:1310   */\n    tag_220:\n        /* \"#utility.yul\":1346:1355   */\n      dup2\n        /* \"#utility.yul\":1333:1356   */\n      calldataload\n        /* \"#utility.yul\":1379:1397   */\n      0xffffffffffffffff\n        /* \"#utility.yul\":1371:1377   */\n      dup2\n        /* \"#utility.yul\":1368:1398   */\n      gt\n        /* \"#utility.yul\":1365:1415   */\n      iszero\n      tag_221\n      jumpi\n        /* \"#utility.yul\":1411:1412   */\n      0x00\n        /* \"#utility.yul\":1408:1409   */\n      dup1\n        /* \"#utility.yul\":1401:1413   */\n      revert\n        /* \"#utility.yul\":1365:1415   */\n    tag_221:\n        /* \"#utility.yul\":1434:1484   */\n      tag_134\n        /* \"#utility.yul\":1476:1483   */\n      dup5\n        /* \"#utility.yul\":1467:1473   */\n      dup3\n        /* \"#utility.yul\":1456:1465   */\n      dup6\n        /* \"#utility.yul\":1452:1474   */\n      add\n        /* \"#utility.yul\":1434:1484   */\n      tag_203\n      jump\t// in\n        /* \"#utility.yul\":1495:2014   */\n    tag_27:\n        /* \"#utility.yul\":1573:1579   */\n      0x00\n        /* \"#utility.yul\":1581:1587   */\n      dup1\n        /* \"#utility.yul\":1634:1636   */\n      0x40\n        /* \"#utility.yul\":1622:1631   */\n      dup4\n        /* \"#utility.yul\":1613:1620   */\n      dup6\n        /* \"#utility.yul\":1609:1632   */\n      sub\n        /* \"#utility.yul\":1605:1637   */\n      slt\n        /* \"#utility.yul\":1602:1654   */\n      iszero\n      tag_224\n      jumpi\n        /* \"#utility.yul\":1650:1651   */\n      0x00\n        /* \"#utility.yul\":1647:1648   */\n      dup1\n        /* \"#utility.yul\":1640:1652   */\n      revert\n        /* \"#utility.yul\":1602:1654   */\n    tag_224:\n        /* \"#utility.yul\":1690:1699   */\n      dup3\n        /* \"#utility.yul\":1677:1700   */\n      calldataload\n        /* \"#utility.yul\":1723:1741   */\n      0xffffffffffffffff\n        /* \"#utility.yul\":1715:1721   */\n      dup2\n        /* \"#utility.yul\":1712:1742   */\n      gt\n        /* \"#utility.yul\":1709:1759   */\n      iszero\n      tag_225\n      jumpi\n        /* \"#utility.yul\":1755:1756   */\n      0x00\n        /* \"#utility.yul\":1752:1753   */\n      dup1\n        /* \"#utility.yul\":1745:1757   */\n      revert\n        /* \"#utility.yul\":1709:1759   */\n    tag_225:\n        /* \"#utility.yul\":1778:1828   */\n      tag_226\n        /* \"#utility.yul\":1820:1827   */\n      dup6\n        /* \"#utility.yul\":1811:1817   */\n      dup3\n        /* \"#utility.yul\":1800:1809   */\n      dup7\n        /* \"#utility.yul\":1796:1818   */\n      add\n        /* \"#utility.yul\":1778:1828   */\n      tag_203\n      jump\t// in\n    tag_226:\n        /* \"#utility.yul\":1768:1828   */\n      swap3\n      pop\n      pop\n        /* \"#utility.yul\":1878:1880   */\n      0x20\n        /* \"#utility.yul\":1867:1876   */\n      dup4\n        /* \"#utility.yul\":1863:1881   */\n      add\n        /* \"#utility.yul\":1850:1882   */\n      calldataload\n        /* \"#utility.yul\":1922:1964   */\n      0xffffffffffffffffffffffffffffffffffffffff\n        /* \"#utility.yul\":1915:1920   */\n      dup2\n        /* \"#utility.yul\":1911:1965   */\n      and\n        /* \"#utility.yul\":1904:1909   */\n      dup2\n        /* \"#utility.yul\":1901:1966   */\n      eq\n        /* \"#utility.yul\":1891:1984   */\n      tag_227\n      jumpi\n        /* \"#utility.yul\":1980:1981   */\n      0x00\n        /* \"#utility.yul\":1977:1978   */\n      dup1\n        /* \"#utility.yul\":1970:1982   */\n      revert\n        /* \"#utility.yul\":1891:1984   */\n    tag_227:\n        /* \"#utility.yul\":2003:2008   */\n      dup1\n        /* \"#utility.yul\":1993:2008   */\n      swap2\n      pop\n      pop\n        /* \"#utility.yul\":1495:2014   */\n      swap3\n      pop\n      swap3\n      swap1\n      pop\n      jump\t// out\n        /* \"#utility.yul\":2019:2700   */\n    tag_33:\n        /* \"#utility.yul\":2190:2192   */\n      0x20\n        /* \"#utility.yul\":2242:2263   */\n      dup1\n      dup3\n      mstore\n        /* \"#utility.yul\":2312:2325   */\n      dup3\n      mload\n        /* \"#utility.yul\":2215:2233   */\n      dup3\n      dup3\n      add\n        /* \"#utility.yul\":2334:2356   */\n      dup2\n      swap1\n      mstore\n        /* \"#utility.yul\":2161:2165   */\n      0x00\n      swap2\n        /* \"#utility.yul\":2190:2192   */\n      swap1\n        /* \"#utility.yul\":2413:2428   */\n      dup5\n      dup3\n      add\n      swap1\n        /* \"#utility.yul\":2387:2389   */\n      0x40\n        /* \"#utility.yul\":2372:2390   */\n      dup6\n      add\n      swap1\n        /* \"#utility.yul\":2161:2165   */\n      dup5\n        /* \"#utility.yul\":2456:2674   */\n    tag_229:\n        /* \"#utility.yul\":2470:2476   */\n      dup2\n        /* \"#utility.yul\":2467:2468   */\n      dup2\n        /* \"#utility.yul\":2464:2477   */\n      lt\n        /* \"#utility.yul\":2456:2674   */\n      iszero\n      tag_231\n      jumpi\n        /* \"#utility.yul\":2535:2548   */\n      dup4\n      mload\n        /* \"#utility.yul\":2550:2592   */\n      0xffffffffffffffffffffffffffffffffffffffff\n        /* \"#utility.yul\":2531:2593   */\n      and\n        /* \"#utility.yul\":2519:2594   */\n      dup4\n      mstore\n        /* \"#utility.yul\":2649:2664   */\n      swap3\n      dup5\n      add\n      swap3\n        /* \"#utility.yul\":2614:2626   */\n      swap2\n      dup5\n      add\n      swap2\n        /* \"#utility.yul\":2492:2493   */\n      0x01\n        /* \"#utility.yul\":2485:2494   */\n      add\n        /* \"#utility.yul\":2456:2674   */\n      jump(tag_229)\n    tag_231:\n      pop\n        /* \"#utility.yul\":2691:2694   */\n      swap1\n      swap7\n        /* \"#utility.yul\":2019:2700   */\n      swap6\n      pop\n      pop\n      pop\n      pop\n      pop\n      pop\n      jump\t// out\n        /* \"#utility.yul\":2705:2955   */\n    tag_204:\n        /* \"#utility.yul\":2790:2791   */\n      0x00\n        /* \"#utility.yul\":2800:2913   */\n    tag_233:\n        /* \"#utility.yul\":2814:2820   */\n      dup4\n        /* \"#utility.yul\":2811:2812   */\n      dup2\n        /* \"#utility.yul\":2808:2821   */\n      lt\n        /* \"#utility.yul\":2800:2913   */\n      iszero\n      tag_235\n      jumpi\n        /* \"#utility.yul\":2890:2901   */\n      dup2\n      dup2\n      add\n        /* \"#utility.yul\":2884:2902   */\n      mload\n        /* \"#utility.yul\":2871:2882   */\n      dup4\n      dup3\n      add\n        /* \"#utility.yul\":2864:2903   */\n      mstore\n        /* \"#utility.yul\":2836:2838   */\n      0x20\n        /* \"#utility.yul\":2829:2839   */\n      add\n        /* \"#utility.yul\":2800:2913   */\n      jump(tag_233)\n    tag_235:\n      pop\n      pop\n        /* \"#utility.yul\":2947:2948   */\n      0x00\n        /* \"#utility.yul\":2929:2945   */\n      swap2\n      add\n        /* \"#utility.yul\":2922:2949   */\n      mstore\n        /* \"#utility.yul\":2705:2955   */\n      jump\t// out\n        /* \"#utility.yul\":2960:4092   */\n    tag_37:\n        /* \"#utility.yul\":3122:3126   */\n      0x00\n        /* \"#utility.yul\":3151:3153   */\n      0x20\n        /* \"#utility.yul\":3191:3193   */\n      dup1\n        /* \"#utility.yul\":3180:3189   */\n      dup4\n        /* \"#utility.yul\":3176:3194   */\n      add\n        /* \"#utility.yul\":3221:3223   */\n      dup2\n        /* \"#utility.yul\":3210:3219   */\n      dup5\n        /* \"#utility.yul\":3203:3224   */\n      mstore\n        /* \"#utility.yul\":3244:3250   */\n      dup1\n        /* \"#utility.yul\":3279:3285   */\n      dup6\n        /* \"#utility.yul\":3273:3286   */\n      mload\n        /* \"#utility.yul\":3310:3316   */\n      dup1\n        /* \"#utility.yul\":3302:3308   */\n      dup4\n        /* \"#utility.yul\":3295:3317   */\n      mstore\n        /* \"#utility.yul\":3348:3350   */\n      0x40\n        /* \"#utility.yul\":3337:3346   */\n      dup7\n        /* \"#utility.yul\":3333:3351   */\n      add\n        /* \"#utility.yul\":3326:3351   */\n      swap2\n      pop\n        /* \"#utility.yul\":3410:3412   */\n      0x40\n        /* \"#utility.yul\":3400:3406   */\n      dup2\n        /* \"#utility.yul\":3397:3398   */\n      0x05\n        /* \"#utility.yul\":3393:3407   */\n      shl\n        /* \"#utility.yul\":3382:3391   */\n      dup8\n        /* \"#utility.yul\":3378:3408   */\n      add\n        /* \"#utility.yul\":3374:3413   */\n      add\n        /* \"#utility.yul\":3360:3413   */\n      swap3\n      pop\n        /* \"#utility.yul\":3448:3450   */\n      dup4\n        /* \"#utility.yul\":3440:3446   */\n      dup8\n        /* \"#utility.yul\":3436:3451   */\n      add\n        /* \"#utility.yul\":3469:3470   */\n      0x00\n        /* \"#utility.yul\":3479:4063   */\n    tag_237:\n        /* \"#utility.yul\":3493:3499   */\n      dup3\n        /* \"#utility.yul\":3490:3491   */\n      dup2\n        /* \"#utility.yul\":3487:3500   */\n      lt\n        /* \"#utility.yul\":3479:4063   */\n      iszero\n      tag_239\n      jumpi\n        /* \"#utility.yul\":3582:3648   */\n      0xffffffffffffffffffffffffffffffffffffffffffffffffffffffffffffffc0\n        /* \"#utility.yul\":3570:3579   */\n      dup9\n        /* \"#utility.yul\":3562:3568   */\n      dup7\n        /* \"#utility.yul\":3558:3580   */\n      sub\n        /* \"#utility.yul\":3554:3649   */\n      add\n        /* \"#utility.yul\":3549:3552   */\n      dup5\n        /* \"#utility.yul\":3542:3650   */\n      mstore\n        /* \"#utility.yul\":3679:3685   */\n      dup2\n        /* \"#utility.yul\":3673:3686   */\n      mload\n        /* \"#utility.yul\":3721:3723   */\n      dup1\n        /* \"#utility.yul\":3715:3724   */\n      mload\n        /* \"#utility.yul\":3752:3760   */\n      dup1\n        /* \"#utility.yul\":3744:3750   */\n      dup8\n        /* \"#utility.yul\":3737:3761   */\n      mstore\n        /* \"#utility.yul\":3774:3848   */\n      tag_240\n        /* \"#utility.yul\":3839:3847   */\n      dup2\n        /* \"#utility.yul\":3834:3836   */\n      dup10\n        /* \"#utility.yul\":3826:3832   */\n      dup10\n        /* \"#utility.yul\":3822:3837   */\n      add\n        /* \"#utility.yul\":3817:3819   */\n      dup11\n        /* \"#utility.yul\":3813:3815   */\n      dup6\n        /* \"#utility.yul\":3809:3820   */\n      add\n        /* \"#utility.yul\":3774:3848   */\n      tag_204\n      jump\t// in\n    tag_240:\n        /* \"#utility.yul\":3905:3907   */\n      0x1f\n        /* \"#utility.yul\":3891:3908   */\n      add\n        /* \"#utility.yul\":3910:3976   */\n      0xffffffffffffffffffffffffffffffffffffffffffffffffffffffffffffffe0\n        /* \"#utility.yul\":3887:3977   */\n      and\n        /* \"#utility.yul\":3875:3978   */\n      swap6\n      swap1\n      swap6\n      add\n        /* \"#utility.yul\":3871:3983   */\n      dup7\n      add\n      swap5\n      pop\n        /* \"#utility.yul\":4041:4053   */\n      swap3\n      dup6\n      add\n      swap3\n        /* \"#utility.yul\":4006:4021   */\n      swap1\n      dup6\n      add\n      swap1\n        /* \"#utility.yul\":3515:3516   */\n      0x01\n        /* \"#utility.yul\":3508:3517   */\n      add\n        /* \"#utility.yul\":3479:4063   */\n      jump(tag_237)\n    tag_239:\n      pop\n        /* \"#utility.yul\":4080:4086   */\n      swap3\n      swap8\n        /* \"#utility.yul\":2960:4092   */\n      swap7\n      pop\n      pop\n      pop\n      pop\n      pop\n      pop\n      pop\n      jump\t// out\n        /* \"#utility.yul\":4328:4718   */\n    tag_53:\n        /* \"#utility.yul\":4406:4412   */\n      0x00\n        /* \"#utility.yul\":4414:4420   */\n      dup1\n        /* \"#utility.yul\":4467:4469   */\n      0x40\n        /* \"#utility.yul\":4455:4464   */\n      dup4\n        /* \"#utility.yul\":4446:4453   */\n      dup6\n        /* \"#utility.yul\":4442:4465   */\n      sub\n        /* \"#utility.yul\":4438:4470   */\n      slt\n        /* \"#utility.yul\":4435:4487   */\n      iszero\n      tag_243\n      jumpi\n        /* \"#utility.yul\":4483:4484   */\n      0x00\n        /* \"#utility.yul\":4480:4481   */\n      dup1\n        /* \"#utility.yul\":4473:4485   */\n      revert\n        /* \"#utility.yul\":4435:4487   */\n    tag_243:\n        /* \"#utility.yul\":4523:4532   */\n      dup3\n        /* \"#utility.yul\":4510:4533   */\n      calldataload\n        /* \"#utility.yul\":4556:4574   */\n      0xffffffffffffffff\n        /* \"#utility.yul\":4548:4554   */\n      dup2\n        /* \"#utility.yul\":4545:4575   */\n      gt\n        /* \"#utility.yul\":4542:4592   */\n      iszero\n      tag_244\n      jumpi\n        /* \"#utility.yul\":4588:4589   */\n      0x00\n        /* \"#utility.yul\":4585:4586   */\n      dup1\n        /* \"#utility.yul\":4578:4590   */\n      revert\n        /* \"#utility.yul\":4542:4592   */\n    tag_244:\n        /* \"#utility.yul\":4611:4661   */\n      tag_245\n        /* \"#utility.yul\":4653:4660   */\n      dup6\n        /* \"#utility.yul\":4644:4650   */\n      dup3\n        /* \"#utility.yul\":4633:4642   */\n      dup7\n        /* \"#utility.yul\":4629:4651   */\n      add\n        /* \"#utility.yul\":4611:4661   */\n      tag_203\n      jump\t// in\n    tag_245:\n        /* \"#utility.yul\":4601:4661   */\n      swap6\n        /* \"#utility.yul\":4708:4710   */\n      0x20\n        /* \"#utility.yul\":4693:4711   */\n      swap5\n      swap1\n      swap5\n      add\n        /* \"#utility.yul\":4680:4712   */\n      calldataload\n      swap5\n      pop\n      pop\n      pop\n      pop\n        /* \"#utility.yul\":4328:4718   */\n      jump\t// out\n        /* \"#utility.yul\":4723:5012   */\n    tag_68:\n        /* \"#utility.yul\":4854:4857   */\n      0x00\n        /* \"#utility.yul\":4892:4898   */\n      dup3\n        /* \"#utility.yul\":4886:4899   */\n      mload\n        /* \"#utility.yul\":4908:4974   */\n      tag_247\n        /* \"#utility.yul\":4967:4973   */\n      dup2\n        /* \"#utility.yul\":4962:4965   */\n      dup5\n        /* \"#utility.yul\":4955:4959   */\n      0x20\n        /* \"#utility.yul\":4947:4953   */\n      dup8\n        /* \"#utility.yul\":4943:4960   */\n      add\n        /* \"#utility.yul\":4908:4974   */\n      tag_204\n      jump\t// in\n    tag_247:\n        /* \"#utility.yul\":4990:5006   */\n      swap2\n      swap1\n      swap2\n      add\n      swap3\n        /* \"#utility.yul\":4723:5012   */\n      swap2\n      pop\n      pop\n      jump\t// out\n        /* \"#utility.yul\":5017:5201   */\n    tag_205:\n        /* \"#utility.yul\":5069:5146   */\n      0x4e487b7100000000000000000000000000000000000000000000000000000000\n        /* \"#utility.yul\":5066:5067   */\n      0x00\n        /* \"#utility.yul\":5059:5147   */\n      mstore\n        /* \"#utility.yul\":5166:5170   */\n      0x11\n        /* \"#utility.yul\":5163:5164   */\n      0x04\n        /* \"#utility.yul\":5156:5171   */\n      mstore\n        /* \"#utility.yul\":5190:5194   */\n      0x24\n        /* \"#utility.yul\":5187:5188   */\n      0x00\n        /* \"#utility.yul\":5180:5195   */\n      revert\n        /* \"#utility.yul\":5206:5331   */\n    tag_77:\n        /* \"#utility.yul\":5271:5280   */\n      dup1\n      dup3\n      add\n        /* \"#utility.yul\":5292:5302   */\n      dup1\n      dup3\n      gt\n        /* \"#utility.yul\":5289:5325   */\n      iszero\n      tag_130\n      jumpi\n        /* \"#utility.yul\":5305:5323   */\n      tag_130\n      tag_205\n      jump\t// in\n        /* \"#utility.yul\":5336:5520   */\n    tag_90:\n        /* \"#utility.yul\":5388:5465   */\n      0x4e487b7100000000000000000000000000000000000000000000000000000000\n        /* \"#utility.yul\":5385:5386   */\n      0x00\n        /* \"#utility.yul\":5378:5466   */\n      mstore\n        /* \"#utility.yul\":5485:5489   */\n      0x32\n        /* \"#utility.yul\":5482:5483   */\n      0x04\n        /* \"#utility.yul\":5475:5490   */\n      mstore\n        /* \"#utility.yul\":5509:5513   */\n      0x24\n        /* \"#utility.yul\":5506:5507   */\n      0x00\n        /* \"#utility.yul\":5499:5514   */\n      revert\n        /* \"#utility.yul\":5525:5720   */\n    tag_92:\n        /* \"#utility.yul\":5564:5567   */\n      0x00\n        /* \"#utility.yul\":5595:5661   */\n      0xffffffffffffffffffffffffffffffffffffffffffffffffffffffffffffffff\n        /* \"#utility.yul\":5588:5593   */\n      dup3\n        /* \"#utility.yul\":5585:5662   */\n      sub\n        /* \"#utility.yul\":5582:5685   */\n      tag_255\n      jumpi\n        /* \"#utility.yul\":5665:5683   */\n      tag_255\n      tag_205\n      jump\t// in\n    tag_255:\n      pop\n        /* \"#utility.yul\":5712:5713   */\n      0x01\n        /* \"#utility.yul\":5701:5714   */\n      add\n      swap1\n        /* \"#utility.yul\":5525:5720   */\n      jump\t// out\n        /* \"#utility.yul\":5725:6162   */\n    tag_103:\n        /* \"#utility.yul\":5804:5805   */\n      0x01\n        /* \"#utility.yul\":5800:5812   */\n      dup2\n      dup2\n      shr\n      swap1\n        /* \"#utility.yul\":5847:5859   */\n      dup3\n      and\n      dup1\n        /* \"#utility.yul\":5868:5929   */\n      tag_257\n      jumpi\n        /* \"#utility.yul\":5922:5926   */\n      0x7f\n        /* \"#utility.yul\":5914:5920   */\n      dup3\n        /* \"#utility.yul\":5910:5927   */\n      and\n        /* \"#utility.yul\":5900:5927   */\n      swap2\n      pop\n        /* \"#utility.yul\":5868:5929   */\n    tag_257:\n        /* \"#utility.yul\":5975:5977   */\n      0x20\n        /* \"#utility.yul\":5967:5973   */\n      dup3\n        /* \"#utility.yul\":5964:5978   */\n      lt\n        /* \"#utility.yul\":5944:5962   */\n      dup2\n        /* \"#utility.yul\":5941:5979   */\n      sub\n        /* \"#utility.yul\":5938:6156   */\n      tag_100\n      jumpi\n        /* \"#utility.yul\":6012:6089   */\n      0x4e487b7100000000000000000000000000000000000000000000000000000000\n        /* \"#utility.yul\":6009:6010   */\n      0x00\n        /* \"#utility.yul\":6002:6090   */\n      mstore\n        /* \"#utility.yul\":6113:6117   */\n      0x22\n        /* \"#utility.yul\":6110:6111   */\n      0x04\n        /* \"#utility.yul\":6103:6118   */\n      mstore\n        /* \"#utility.yul\":6141:6145   */\n      0x24\n        /* \"#utility.yul\":6138:6139   */\n      0x00\n        /* \"#utility.yul\":6131:6146   */\n      revert\n        /* \"#utility.yul\":6293:6838   */\n    tag_207:\n        /* \"#utility.yul\":6395:6397   */\n      0x1f\n        /* \"#utility.yul\":6390:6393   */\n      dup3\n        /* \"#utility.yul\":6387:6398   */\n      gt\n        /* \"#utility.yul\":6384:6832   */\n      iszero\n      tag_154\n      jumpi\n        /* \"#utility.yul\":6431:6432   */\n      0x00\n        /* \"#utility.yul\":6456:6461   */\n      dup2\n        /* \"#utility.yul\":6452:6454   */\n      dup2\n        /* \"#utility.yul\":6445:6462   */\n      mstore\n        /* \"#utility.yul\":6501:6505   */\n      0x20\n        /* \"#utility.yul\":6497:6499   */\n      dup2\n        /* \"#utility.yul\":6487:6506   */\n      keccak256\n        /* \"#utility.yul\":6571:6573   */\n      0x1f\n        /* \"#utility.yul\":6559:6569   */\n      dup6\n        /* \"#utility.yul\":6555:6574   */\n      add\n        /* \"#utility.yul\":6552:6553   */\n      0x05\n        /* \"#utility.yul\":6548:6575   */\n      shr\n        /* \"#utility.yul\":6542:6546   */\n      dup2\n        /* \"#utility.yul\":6538:6576   */\n      add\n        /* \"#utility.yul\":6607:6611   */\n      0x20\n        /* \"#utility.yul\":6595:6605   */\n      dup7\n        /* \"#utility.yul\":6592:6612   */\n      lt\n        /* \"#utility.yul\":6589:6636   */\n      iszero\n      tag_262\n      jumpi\n      pop\n        /* \"#utility.yul\":6630:6634   */\n      dup1\n        /* \"#utility.yul\":6589:6636   */\n    tag_262:\n        /* \"#utility.yul\":6685:6687   */\n      0x1f\n        /* \"#utility.yul\":6680:6683   */\n      dup6\n        /* \"#utility.yul\":6676:6688   */\n      add\n        /* \"#utility.yul\":6673:6674   */\n      0x05\n        /* \"#utility.yul\":6669:6689   */\n      shr\n        /* \"#utility.yul\":6663:6667   */\n      dup3\n        /* \"#utility.yul\":6659:6690   */\n      add\n        /* \"#utility.yul\":6649:6690   */\n      swap2\n      pop\n        /* \"#utility.yul\":6740:6822   */\n    tag_263:\n        /* \"#utility.yul\":6758:6760   */\n      dup2\n        /* \"#utility.yul\":6751:6756   */\n      dup2\n        /* \"#utility.yul\":6748:6761   */\n      lt\n        /* \"#utility.yul\":6740:6822   */\n      iszero\n      tag_265\n      jumpi\n        /* \"#utility.yul\":6803:6820   */\n      dup3\n      dup2\n      sstore\n        /* \"#utility.yul\":6784:6785   */\n      0x01\n        /* \"#utility.yul\":6773:6786   */\n      add\n        /* \"#utility.yul\":6740:6822   */\n      jump(tag_263)\n    tag_265:\n        /* \"#utility.yul\":6744:6747   */\n      pop\n      pop\n      pop\n        /* \"#utility.yul\":6293:6838   */\n      pop\n      pop\n      pop\n      jump\t// out\n        /* \"#utility.yul\":7074:8545   */\n    tag_119:\n        /* \"#utility.yul\":7200:7203   */\n      dup2\n        /* \"#utility.yul\":7194:7204   */\n      mload\n        /* \"#utility.yul\":7227:7245   */\n      0xffffffffffffffff\n        /* \"#utility.yul\":7219:7225   */\n      dup2\n        /* \"#utility.yul\":7216:7246   */\n      gt\n        /* \"#utility.yul\":7213:7269   */\n      iszero\n      tag_269\n      jumpi\n        /* \"#utility.yul\":7249:7267   */\n      tag_269\n      tag_80\n      jump\t// in\n    tag_269:\n        /* \"#utility.yul\":7278:7375   */\n      tag_270\n        /* \"#utility.yul\":7368:7374   */\n      dup2\n        /* \"#utility.yul\":7328:7366   */\n      tag_271\n        /* \"#utility.yul\":7360:7364   */\n      dup5\n        /* \"#utility.yul\":7354:7365   */\n      sload\n        /* \"#utility.yul\":7328:7366   */\n      tag_103\n      jump\t// in\n    tag_271:\n        /* \"#utility.yul\":7322:7326   */\n      dup5\n        /* \"#utility.yul\":7278:7375   */\n      tag_207\n      jump\t// in\n    tag_270:\n        /* \"#utility.yul\":7430:7434   */\n      0x20\n      dup1\n        /* \"#utility.yul\":7494:7496   */\n      0x1f\n        /* \"#utility.yul\":7483:7497   */\n      dup4\n      gt\n        /* \"#utility.yul\":7511:7512   */\n      0x01\n        /* \"#utility.yul\":7506:8288   */\n      dup2\n      eq\n      tag_273\n      jumpi\n        /* \"#utility.yul\":8332:8333   */\n      0x00\n        /* \"#utility.yul\":8349:8355   */\n      dup5\n        /* \"#utility.yul\":8346:8435   */\n      iszero\n      tag_274\n      jumpi\n      pop\n        /* \"#utility.yul\":8401:8420   */\n      dup6\n      dup4\n      add\n        /* \"#utility.yul\":8395:8421   */\n      mload\n        /* \"#utility.yul\":8346:8435   */\n    tag_274:\n        /* \"#utility.yul\":6980:7046   */\n      0xffffffffffffffffffffffffffffffffffffffffffffffffffffffffffffffff\n        /* \"#utility.yul\":6971:6972   */\n      0x03\n        /* \"#utility.yul\":6967:6978   */\n      dup7\n      swap1\n      shl\n        /* \"#utility.yul\":6963:7047   */\n      shr\n        /* \"#utility.yul\":6959:7048   */\n      not\n        /* \"#utility.yul\":6949:7049   */\n      and\n        /* \"#utility.yul\":7055:7056   */\n      0x01\n        /* \"#utility.yul\":7051:7062   */\n      dup6\n      swap1\n      shl\n        /* \"#utility.yul\":6946:7063   */\n      or\n        /* \"#utility.yul\":8448:8529   */\n      dup6\n      sstore\n        /* \"#utility.yul\":7476:8539   */\n      jump(tag_265)\n        /* \"#utility.yul\":7506:8288   */\n    tag_273:\n        /* \"#utility.yul\":6240:6241   */\n      0x00\n        /* \"#utility.yul\":6233:6247   */\n      dup6\n      dup2\n      mstore\n        /* \"#utility.yul\":6277:6281   */\n      0x20\n        /* \"#utility.yul\":6264:6282   */\n      dup2\n      keccak256\n        /* \"#utility.yul\":7554:7620   */\n      0xffffffffffffffffffffffffffffffffffffffffffffffffffffffffffffffe0\n        /* \"#utility.yul\":7542:7621   */\n      dup7\n      and\n      swap2\n        /* \"#utility.yul\":7719:7955   */\n    tag_277:\n        /* \"#utility.yul\":7733:7740   */\n      dup3\n        /* \"#utility.yul\":7730:7731   */\n      dup2\n        /* \"#utility.yul\":7727:7741   */\n      lt\n        /* \"#utility.yul\":7719:7955   */\n      iszero\n      tag_279\n      jumpi\n        /* \"#utility.yul\":7822:7841   */\n      dup9\n      dup7\n      add\n        /* \"#utility.yul\":7816:7842   */\n      mload\n        /* \"#utility.yul\":7801:7843   */\n      dup3\n      sstore\n        /* \"#utility.yul\":7914:7941   */\n      swap5\n      dup5\n      add\n      swap5\n        /* \"#utility.yul\":7882:7883   */\n      0x01\n        /* \"#utility.yul\":7870:7884   */\n      swap1\n      swap2\n      add\n      swap1\n        /* \"#utility.yul\":7749:7768   */\n      dup5\n      add\n        /* \"#utility.yul\":7719:7955   */\n      jump(tag_277)\n    tag_279:\n        /* \"#utility.yul\":7723:7726   */\n      pop\n        /* \"#utility.yul\":7983:7989   */\n      dup6\n        /* \"#utility.yul\":7974:7981   */\n      dup3\n        /* \"#utility.yul\":7971:7990   */\n      lt\n        /* \"#utility.yul\":7968:8229   */\n      iszero\n      tag_280\n      jumpi\n        /* \"#utility.yul\":8044:8063   */\n      dup8\n      dup6\n      add\n        /* \"#utility.yul\":8038:8064   */\n      mload\n        /* \"#utility.yul\":8145:8211   */\n      0xffffffffffffffffffffffffffffffffffffffffffffffffffffffffffffffff\n        /* \"#utility.yul\":8127:8128   */\n      0x03\n        /* \"#utility.yul\":8123:8137   */\n      dup9\n      swap1\n      shl\n        /* \"#utility.yul\":8139:8142   */\n      0xf8\n        /* \"#utility.yul\":8119:8143   */\n      and\n        /* \"#utility.yul\":8115:8212   */\n      shr\n        /* \"#utility.yul\":8111:8213   */\n      not\n        /* \"#utility.yul\":8096:8214   */\n      and\n        /* \"#utility.yul\":8081:8215   */\n      dup2\n      sstore\n        /* \"#utility.yul\":7968:8229   */\n    tag_280:\n      pop\n      pop\n      pop\n      pop\n      pop\n        /* \"#utility.yul\":8275:8276   */\n      0x01\n        /* \"#utility.yul\":8259:8273   */\n      swap1\n      dup2\n      shl\n        /* \"#utility.yul\":8255:8277   */\n      add\n        /* \"#utility.yul\":8242:8278   */\n      swap1\n      sstore\n      pop\n        /* \"#utility.yul\":7074:8545   */\n      jump\t// out\n        /* \"#utility.yul\":8550:9450   */\n    tag_121:\n        /* \"#utility.yul\":8678:8681   */\n      0x00\n        /* \"#utility.yul\":8707:8708   */\n      dup1\n        /* \"#utility.yul\":8740:8746   */\n      dup4\n        /* \"#utility.yul\":8734:8747   */\n      sload\n        /* \"#utility.yul\":8770:8806   */\n      tag_282\n        /* \"#utility.yul\":8796:8805   */\n      dup2\n        /* \"#utility.yul\":8770:8806   */\n      tag_103\n      jump\t// in\n    tag_282:\n        /* \"#utility.yul\":8825:8826   */\n      0x01\n        /* \"#utility.yul\":8842:8860   */\n      dup3\n      dup2\n      and\n        /* \"#utility.yul\":8869:9060   */\n      dup1\n      iszero\n      tag_284\n      jumpi\n        /* \"#utility.yul\":9074:9075   */\n      0x01\n        /* \"#utility.yul\":9069:9425   */\n      dup2\n      eq\n      tag_285\n      jumpi\n        /* \"#utility.yul\":8835:9425   */\n      jump(tag_283)\n        /* \"#utility.yul\":8869:9060   */\n    tag_284:\n        /* \"#utility.yul\":8917:8983   */\n      0xffffffffffffffffffffffffffffffffffffffffffffffffffffffffffffff00\n        /* \"#utility.yul\":8906:8915   */\n      dup5\n        /* \"#utility.yul\":8902:8984   */\n      and\n        /* \"#utility.yul\":8897:8900   */\n      dup8\n        /* \"#utility.yul\":8890:8985   */\n      mstore\n        /* \"#utility.yul\":9040:9046   */\n      dup3\n        /* \"#utility.yul\":9033:9047   */\n      iszero\n        /* \"#utility.yul\":9026:9048   */\n      iszero\n        /* \"#utility.yul\":9018:9024   */\n      dup4\n        /* \"#utility.yul\":9014:9049   */\n      mul\n        /* \"#utility.yul\":9009:9012   */\n      dup8\n        /* \"#utility.yul\":9005:9050   */\n      add\n        /* \"#utility.yul\":8998:9050   */\n      swap5\n      pop\n        /* \"#utility.yul\":8869:9060   */\n      jump(tag_283)\n        /* \"#utility.yul\":9069:9425   */\n    tag_285:\n        /* \"#utility.yul\":9100:9106   */\n      dup8\n        /* \"#utility.yul\":9097:9098   */\n      0x00\n        /* \"#utility.yul\":9090:9107   */\n      mstore\n        /* \"#utility.yul\":9130:9134   */\n      0x20\n        /* \"#utility.yul\":9175:9177   */\n      dup1\n        /* \"#utility.yul\":9172:9173   */\n      0x00\n        /* \"#utility.yul\":9162:9178   */\n      keccak256\n        /* \"#utility.yul\":9200:9201   */\n      0x00\n        /* \"#utility.yul\":9214:9379   */\n    tag_286:\n        /* \"#utility.yul\":9228:9234   */\n      dup6\n        /* \"#utility.yul\":9225:9226   */\n      dup2\n        /* \"#utility.yul\":9222:9235   */\n      lt\n        /* \"#utility.yul\":9214:9379   */\n      iszero\n      tag_288\n      jumpi\n        /* \"#utility.yul\":9306:9320   */\n      dup2\n      sload\n        /* \"#utility.yul\":9293:9304   */\n      dup11\n      dup3\n      add\n        /* \"#utility.yul\":9286:9321   */\n      mstore\n        /* \"#utility.yul\":9349:9365   */\n      swap1\n      dup5\n      add\n      swap1\n        /* \"#utility.yul\":9243:9253   */\n      dup3\n      add\n        /* \"#utility.yul\":9214:9379   */\n      jump(tag_286)\n    tag_288:\n        /* \"#utility.yul\":9218:9221   */\n      pop\n      pop\n      pop\n        /* \"#utility.yul\":9408:9414   */\n      dup3\n        /* \"#utility.yul\":9403:9406   */\n      dup8\n        /* \"#utility.yul\":9399:9415   */\n      add\n        /* \"#utility.yul\":9392:9415   */\n      swap5\n      pop\n        /* \"#utility.yul\":8835:9425   */\n    tag_283:\n      pop\n        /* \"#utility.yul\":9441:9444   */\n      swap3\n      swap7\n        /* \"#utility.yul\":8550:9450   */\n      swap6\n      pop\n      pop\n      pop\n      pop\n      pop\n      pop\n      jump\t// out\n\n    auxdata: 0xa26469706673582212205947ba0feda127839e70b0a98ea3350ae6e774cec40f63b4a537b827ffed266164736f6c63430008130033\n}\n",
				"bytecode": {
					"linkReferences": {},
					"object": "608060405234801561001057600080fd5b50600160005561120c806100256000396000f3fe608060405234801561001057600080fd5b50600436106100be5760003560e01c8063b6a46b3b11610076578063d285f8391161005b578063d285f8391461017a578063e8009dda146101b2578063fb68ba31146101c557600080fd5b8063b6a46b3b14610154578063cae967611461016757600080fd5b80635332c74d116100a75780635332c74d1461010a578063812a4f8c1461011f578063b2494df31461013f57600080fd5b806306661abd146100c3578063278be867146100df575b600080fd5b6100cc60015481565b6040519081526020015b60405180910390f35b6100cc6100ed366004610caf565b805160208183018101805160038252928201919093012091525481565b61011d610118366004610ce4565b6101d8565b005b61013261012d366004610caf565b610276565b6040516100d69190610d4f565b61014761037d565b6040516100d69190610dcd565b6100cc610162366004610caf565b6104bc565b6100cc610175366004610caf565b610584565b61018d610188366004610caf565b6105cd565b60405173ffffffffffffffffffffffffffffffffffffffff90911681526020016100d6565b61018d6101c0366004610e83565b61061c565b61011d6101d3366004610e83565b61067d565b6101e0610756565b6101ea82826107ce565b6101f482826108ab565b8073ffffffffffffffffffffffffffffffffffffffff1660038360405161021b9190610ec8565b908152602001604051809103902054836040516102389190610ec8565b604051908190038120907f302019a635b19d3c4a1cf2d61269495b26e45b91cbb29a4f8cf400e68e18da7f90600090a46102726001600055565b5050565b606060006002600060038560405161028e9190610ec8565b9081526020016040518091039020548152602001908152602001600020905060006102bb82600201610905565b6102c6906001610f13565b67ffffffffffffffff8111156102de576102de610bd5565b604051908082528060200260200182016040528015610307578160200160208202803683370190505b50905060015b61031983600201610905565b81116103755761032c600284018261090f565b82828151811061033e5761033e610f26565b73ffffffffffffffffffffffffffffffffffffffff909216602092830291909101909101528061036d81610f55565b91505061030d565b509392505050565b6060600060015460016103909190610f13565b67ffffffffffffffff8111156103a8576103a8610bd5565b6040519080825280602002602001820160405280156103db57816020015b60608152602001906001900390816103c65790505b50905060015b60015481116104b657600081815260026020526040902060018101805461040790610f8d565b80601f016020809104026020016040519081016040528092919081815260200182805461043390610f8d565b80156104805780601f1061045557610100808354040283529160200191610480565b820191906000526020600020905b81548152906001019060200180831161046357829003601f168201915b505050505083838151811061049757610497610f26565b60200260200101819052505080806104ae90610f55565b9150506103e1565b50919050565b60006104c6610756565b6104cf8261091b565b60018060008282546104e19190610f13565b909155505060015460008181526002602052604090819020905190919060039061050c908690610ec8565b90815260405190819003602001902055600180548255810161052e8482611028565b508054604051610542906001840190611142565b604051908190038120907fe0e6e8b81ae036efc4ae16444815ccc05dd21be3412ddacd8376ebb5cdb4723890600090a354905061057f6001600055565b919050565b6000806002600060038560405161059b9190610ec8565b908152602001604051809103902054815260200190815260200160002090506105c681600201610905565b9392505050565b600080600260006003856040516105e49190610ec8565b908152602001604051809103902054815260200190815260200160002090506105c661061282600201610905565b600283019061090f565b600061062883836109a6565b60006002600060038660405161063e9190610ec8565b90815260200160405180910390205481526020019081526020016000209050610673838260020161090f90919063ffffffff16565b9150505b92915050565b610685610756565b61068e82610a83565b6000600260006003856040516106a49190610ec8565b908152602001604051809103902054815260200190815260200160002090506106e2836106dd848460020161090f90919063ffffffff16565b6108ab565b6106ef600282018361090f565b73ffffffffffffffffffffffffffffffffffffffff1681600001548260010160405161071b9190611142565b604051908190038120907f8f06933070a3367170d50b358e9d73813dfbaaa11081bd5580ae4af2baba122d90600090a4506102726001600055565b6002600054036107c7576040517f08c379a000000000000000000000000000000000000000000000000000000000815260206004820152601f60248201527f5265656e7472616e637947756172643a207265656e7472616e742063616c6c0060448201526064015b60405180910390fd5b6002600055565b6000600260006003856040516107e49190610ec8565b908152602001604051809103902054815260200190815260200160002090506108198282600201610b0b90919063ffffffff16565b156108a6576040517f08c379a000000000000000000000000000000000000000000000000000000000815260206004820152602760248201527f4d6f64756c6520616c726561647920686173207468697320696d706c656d656e60448201527f746174696f6e2e0000000000000000000000000000000000000000000000000060648201526084016107be565b505050565b6108b482610a83565b6000600260006003856040516108ca9190610ec8565b908152602001604051809103902054815260200190815260200160002090506108ff8282600201610b3a90919063ffffffff16565b50505050565b6000610677825490565b60006105c68383610b5c565b60038160405161092b9190610ec8565b9081526020016040518091039020546000146109a3576040517f08c379a000000000000000000000000000000000000000000000000000000000815260206004820152601960248201527f4d6f64756c6520697320616c726561647920696e207573652e0000000000000060448201526064016107be565b50565b6000600260006003856040516109bc9190610ec8565b90815260200160405180910390205481526020019081526020016000209050600182101580156109f757506109f381600201610905565b8211155b6108a6576040517f08c379a000000000000000000000000000000000000000000000000000000000815260206004820152603560248201527f56657273696f6e20646f6573206e6f7420706f696e7420746f20616e2065786960448201527f7374696e6720696d706c656d656e746174696f6e2e000000000000000000000060648201526084016107be565b600381604051610a939190610ec8565b9081526020016040518091039020546000036109a3576040517f08c379a000000000000000000000000000000000000000000000000000000000815260206004820152601660248201527f4d6f64756c6520646f6573206e6f742065786973742e0000000000000000000060448201526064016107be565b73ffffffffffffffffffffffffffffffffffffffff8116600090815260018301602052604081205415156105c6565b60006105c68373ffffffffffffffffffffffffffffffffffffffff8416610b86565b6000826000018281548110610b7357610b73610f26565b9060005260206000200154905092915050565b6000818152600183016020526040812054610bcd57508154600181810184556000848152602080822090930184905584548482528286019093526040902091909155610677565b506000610677565b7f4e487b7100000000000000000000000000000000000000000000000000000000600052604160045260246000fd5b600082601f830112610c1557600080fd5b813567ffffffffffffffff80821115610c3057610c30610bd5565b604051601f83017fffffffffffffffffffffffffffffffffffffffffffffffffffffffffffffffe0908116603f01168101908282118183101715610c7657610c76610bd5565b81604052838152866020858801011115610c8f57600080fd5b836020870160208301376000602085830101528094505050505092915050565b600060208284031215610cc157600080fd5b813567ffffffffffffffff811115610cd857600080fd5b61067384828501610c04565b60008060408385031215610cf757600080fd5b823567ffffffffffffffff811115610d0e57600080fd5b610d1a85828601610c04565b925050602083013573ffffffffffffffffffffffffffffffffffffffff81168114610d4457600080fd5b809150509250929050565b6020808252825182820181905260009190848201906040850190845b81811015610d9d57835173ffffffffffffffffffffffffffffffffffffffff1683529284019291840191600101610d6b565b50909695505050505050565b60005b83811015610dc4578181015183820152602001610dac565b50506000910152565b6000602080830181845280855180835260408601915060408160051b870101925083870160005b82811015610e76577fffffffffffffffffffffffffffffffffffffffffffffffffffffffffffffffc088860301845281518051808752610e39818989018a8501610da9565b601f017fffffffffffffffffffffffffffffffffffffffffffffffffffffffffffffffe01695909501860194509285019290850190600101610df4565b5092979650505050505050565b60008060408385031215610e9657600080fd5b823567ffffffffffffffff811115610ead57600080fd5b610eb985828601610c04565b95602094909401359450505050565b60008251610eda818460208701610da9565b9190910192915050565b7f4e487b7100000000000000000000000000000000000000000000000000000000600052601160045260246000fd5b8082018082111561067757610677610ee4565b7f4e487b7100000000000000000000000000000000000000000000000000000000600052603260045260246000fd5b60007fffffffffffffffffffffffffffffffffffffffffffffffffffffffffffffffff8203610f8657610f86610ee4565b5060010190565b600181811c90821680610fa157607f821691505b6020821081036104b6577f4e487b7100000000000000000000000000000000000000000000000000000000600052602260045260246000fd5b601f8211156108a657600081815260208120601f850160051c810160208610156110015750805b601f850160051c820191505b818110156110205782815560010161100d565b505050505050565b815167ffffffffffffffff81111561104257611042610bd5565b611056816110508454610f8d565b84610fda565b602080601f8311600181146110a957600084156110735750858301515b7fffffffffffffffffffffffffffffffffffffffffffffffffffffffffffffffff600386901b1c1916600185901b178555611020565b6000858152602081207fffffffffffffffffffffffffffffffffffffffffffffffffffffffffffffffe08616915b828110156110f6578886015182559484019460019091019084016110d7565b508582101561113257878501517fffffffffffffffffffffffffffffffffffffffffffffffffffffffffffffffff600388901b60f8161c191681555b5050505050600190811b01905550565b600080835461115081610f8d565b60018281168015611168576001811461119b576111ca565b7fffffffffffffffffffffffffffffffffffffffffffffffffffffffffffffff00841687528215158302870194506111ca565b8760005260208060002060005b858110156111c15781548a8201529084019082016111a8565b50505082870194505b5092969550505050505056fea26469706673582212205947ba0feda127839e70b0a98ea3350ae6e774cec40f63b4a537b827ffed266164736f6c63430008130033",
					"opcodes": "PUSH1 0x80 PUSH1 0x40 MSTORE CALLVALUE DUP1 ISZERO PUSH2 0x10 JUMPI PUSH1 0x0 DUP1 REVERT JUMPDEST POP PUSH1 0x1 PUSH1 0x0 SSTORE PUSH2 0x120C DUP1 PUSH2 0x25 PUSH1 0x0 CODECOPY PUSH1 0x0 RETURN INVALID PUSH1 0x80 PUSH1 0x40 MSTORE CALLVALUE DUP1 ISZERO PUSH2 0x10 JUMPI PUSH1 0x0 DUP1 REVERT JUMPDEST POP PUSH1 0x4 CALLDATASIZE LT PUSH2 0xBE JUMPI PUSH1 0x0 CALLDATALOAD PUSH1 0xE0 SHR DUP1 PUSH4 0xB6A46B3B GT PUSH2 0x76 JUMPI DUP1 PUSH4 0xD285F839 GT PUSH2 0x5B JUMPI DUP1 PUSH4 0xD285F839 EQ PUSH2 0x17A JUMPI DUP1 PUSH4 0xE8009DDA EQ PUSH2 0x1B2 JUMPI DUP1 PUSH4 0xFB68BA31 EQ PUSH2 0x1C5 JUMPI PUSH1 0x0 DUP1 REVERT JUMPDEST DUP1 PUSH4 0xB6A46B3B EQ PUSH2 0x154 JUMPI DUP1 PUSH4 0xCAE96761 EQ PUSH2 0x167 JUMPI PUSH1 0x0 DUP1 REVERT JUMPDEST DUP1 PUSH4 0x5332C74D GT PUSH2 0xA7 JUMPI DUP1 PUSH4 0x5332C74D EQ PUSH2 0x10A JUMPI DUP1 PUSH4 0x812A4F8C EQ PUSH2 0x11F JUMPI DUP1 PUSH4 0xB2494DF3 EQ PUSH2 0x13F JUMPI PUSH1 0x0 DUP1 REVERT JUMPDEST DUP1 PUSH4 0x6661ABD EQ PUSH2 0xC3 JUMPI DUP1 PUSH4 0x278BE867 EQ PUSH2 0xDF JUMPI JUMPDEST PUSH1 0x0 DUP1 REVERT JUMPDEST PUSH2 0xCC PUSH1 0x1 SLOAD DUP2 JUMP JUMPDEST PUSH1 0x40 MLOAD SWAP1 DUP2 MSTORE PUSH1 0x20 ADD JUMPDEST PUSH1 0x40 MLOAD DUP1 SWAP2 SUB SWAP1 RETURN JUMPDEST PUSH2 0xCC PUSH2 0xED CALLDATASIZE PUSH1 0x4 PUSH2 0xCAF JUMP JUMPDEST DUP1 MLOAD PUSH1 0x20 DUP2 DUP4 ADD DUP2 ADD DUP1 MLOAD PUSH1 0x3 DUP3 MSTORE SWAP3 DUP3 ADD SWAP2 SWAP1 SWAP4 ADD KECCAK256 SWAP2 MSTORE SLOAD DUP2 JUMP JUMPDEST PUSH2 0x11D PUSH2 0x118 CALLDATASIZE PUSH1 0x4 PUSH2 0xCE4 JUMP JUMPDEST PUSH2 0x1D8 JUMP JUMPDEST STOP JUMPDEST PUSH2 0x132 PUSH2 0x12D CALLDATASIZE PUSH1 0x4 PUSH2 0xCAF JUMP JUMPDEST PUSH2 0x276 JUMP JUMPDEST PUSH1 0x40 MLOAD PUSH2 0xD6 SWAP2 SWAP1 PUSH2 0xD4F JUMP JUMPDEST PUSH2 0x147 PUSH2 0x37D JUMP JUMPDEST PUSH1 0x40 MLOAD PUSH2 0xD6 SWAP2 SWAP1 PUSH2 0xDCD JUMP JUMPDEST PUSH2 0xCC PUSH2 0x162 CALLDATASIZE PUSH1 0x4 PUSH2 0xCAF JUMP JUMPDEST PUSH2 0x4BC JUMP JUMPDEST PUSH2 0xCC PUSH2 0x175 CALLDATASIZE PUSH1 0x4 PUSH2 0xCAF JUMP JUMPDEST PUSH2 0x584 JUMP JUMPDEST PUSH2 0x18D PUSH2 0x188 CALLDATASIZE PUSH1 0x4 PUSH2 0xCAF JUMP JUMPDEST PUSH2 0x5CD JUMP JUMPDEST PUSH1 0x40 MLOAD PUSH20 0xFFFFFFFFFFFFFFFFFFFFFFFFFFFFFFFFFFFFFFFF SWAP1 SWAP2 AND DUP2 MSTORE PUSH1 0x20 ADD PUSH2 0xD6 JUMP JUMPDEST PUSH2 0x18D PUSH2 0x1C0 CALLDATASIZE PUSH1 0x4 PUSH2 0xE83 JUMP JUMPDEST PUSH2 0x61C JUMP JUMPDEST PUSH2 0x11D PUSH2 0x1D3 CALLDATASIZE PUSH1 0x4 PUSH2 0xE83 JUMP JUMPDEST PUSH2 0x67D JUMP JUMPDEST PUSH2 0x1E0 PUSH2 0x756 JUMP JUMPDEST PUSH2 0x1EA DUP3 DUP3 PUSH2 0x7CE JUMP JUMPDEST PUSH2 0x1F4 DUP3 DUP3 PUSH2 0x8AB JUMP JUMPDEST DUP1 PUSH20 0xFFFFFFFFFFFFFFFFFFFFFFFFFFFFFFFFFFFFFFFF AND PUSH1 0x3 DUP4 PUSH1 0x40 MLOAD PUSH2 0x21B SWAP2 SWAP1 PUSH2 0xEC8 JUMP JUMPDEST SWAP1 DUP2 MSTORE PUSH1 0x20 ADD PUSH1 0x40 MLOAD DUP1 SWAP2 SUB SWAP1 KECCAK256 SLOAD DUP4 PUSH1 0x40 MLOAD PUSH2 0x238 SWAP2 SWAP1 PUSH2 0xEC8 JUMP JUMPDEST PUSH1 0x40 MLOAD SWAP1 DUP2 SWAP1 SUB DUP2 KECCAK256 SWAP1 PUSH32 0x302019A635B19D3C4A1CF2D61269495B26E45B91CBB29A4F8CF400E68E18DA7F SWAP1 PUSH1 0x0 SWAP1 LOG4 PUSH2 0x272 PUSH1 0x1 PUSH1 0x0 SSTORE JUMP JUMPDEST POP POP JUMP JUMPDEST PUSH1 0x60 PUSH1 0x0 PUSH1 0x2 PUSH1 0x0 PUSH1 0x3 DUP6 PUSH1 0x40 MLOAD PUSH2 0x28E SWAP2 SWAP1 PUSH2 0xEC8 JUMP JUMPDEST SWAP1 DUP2 MSTORE PUSH1 0x20 ADD PUSH1 0x40 MLOAD DUP1 SWAP2 SUB SWAP1 KECCAK256 SLOAD DUP2 MSTORE PUSH1 0x20 ADD SWAP1 DUP2 MSTORE PUSH1 0x20 ADD PUSH1 0x0 KECCAK256 SWAP1 POP PUSH1 0x0 PUSH2 0x2BB DUP3 PUSH1 0x2 ADD PUSH2 0x905 JUMP JUMPDEST PUSH2 0x2C6 SWAP1 PUSH1 0x1 PUSH2 0xF13 JUMP JUMPDEST PUSH8 0xFFFFFFFFFFFFFFFF DUP2 GT ISZERO PUSH2 0x2DE JUMPI PUSH2 0x2DE PUSH2 0xBD5 JUMP JUMPDEST PUSH1 0x40 MLOAD SWAP1 DUP1 DUP3 MSTORE DUP1 PUSH1 0x20 MUL PUSH1 0x20 ADD DUP3 ADD PUSH1 0x40 MSTORE DUP1 ISZERO PUSH2 0x307 JUMPI DUP2 PUSH1 0x20 ADD PUSH1 0x20 DUP3 MUL DUP1 CALLDATASIZE DUP4 CALLDATACOPY ADD SWAP1 POP JUMPDEST POP SWAP1 POP PUSH1 0x1 JUMPDEST PUSH2 0x319 DUP4 PUSH1 0x2 ADD PUSH2 0x905 JUMP JUMPDEST DUP2 GT PUSH2 0x375 JUMPI PUSH2 0x32C PUSH1 0x2 DUP5 ADD DUP3 PUSH2 0x90F JUMP JUMPDEST DUP3 DUP3 DUP2 MLOAD DUP2 LT PUSH2 0x33E JUMPI PUSH2 0x33E PUSH2 0xF26 JUMP JUMPDEST PUSH20 0xFFFFFFFFFFFFFFFFFFFFFFFFFFFFFFFFFFFFFFFF SWAP1 SWAP3 AND PUSH1 0x20 SWAP3 DUP4 MUL SWAP2 SWAP1 SWAP2 ADD SWAP1 SWAP2 ADD MSTORE DUP1 PUSH2 0x36D DUP2 PUSH2 0xF55 JUMP JUMPDEST SWAP2 POP POP PUSH2 0x30D JUMP JUMPDEST POP SWAP4 SWAP3 POP POP POP JUMP JUMPDEST PUSH1 0x60 PUSH1 0x0 PUSH1 0x1 SLOAD PUSH1 0x1 PUSH2 0x390 SWAP2 SWAP1 PUSH2 0xF13 JUMP JUMPDEST PUSH8 0xFFFFFFFFFFFFFFFF DUP2 GT ISZERO PUSH2 0x3A8 JUMPI PUSH2 0x3A8 PUSH2 0xBD5 JUMP JUMPDEST PUSH1 0x40 MLOAD SWAP1 DUP1 DUP3 MSTORE DUP1 PUSH1 0x20 MUL PUSH1 0x20 ADD DUP3 ADD PUSH1 0x40 MSTORE DUP1 ISZERO PUSH2 0x3DB JUMPI DUP2 PUSH1 0x20 ADD JUMPDEST PUSH1 0x60 DUP2 MSTORE PUSH1 0x20 ADD SWAP1 PUSH1 0x1 SWAP1 SUB SWAP1 DUP2 PUSH2 0x3C6 JUMPI SWAP1 POP JUMPDEST POP SWAP1 POP PUSH1 0x1 JUMPDEST PUSH1 0x1 SLOAD DUP2 GT PUSH2 0x4B6 JUMPI PUSH1 0x0 DUP2 DUP2 MSTORE PUSH1 0x2 PUSH1 0x20 MSTORE PUSH1 0x40 SWAP1 KECCAK256 PUSH1 0x1 DUP2 ADD DUP1 SLOAD PUSH2 0x407 SWAP1 PUSH2 0xF8D JUMP JUMPDEST DUP1 PUSH1 0x1F ADD PUSH1 0x20 DUP1 SWAP2 DIV MUL PUSH1 0x20 ADD PUSH1 0x40 MLOAD SWAP1 DUP2 ADD PUSH1 0x40 MSTORE DUP1 SWAP3 SWAP2 SWAP1 DUP2 DUP2 MSTORE PUSH1 0x20 ADD DUP3 DUP1 SLOAD PUSH2 0x433 SWAP1 PUSH2 0xF8D JUMP JUMPDEST DUP1 ISZERO PUSH2 0x480 JUMPI DUP1 PUSH1 0x1F LT PUSH2 0x455 JUMPI PUSH2 0x100 DUP1 DUP4 SLOAD DIV MUL DUP4 MSTORE SWAP2 PUSH1 0x20 ADD SWAP2 PUSH2 0x480 JUMP JUMPDEST DUP3 ADD SWAP2 SWAP1 PUSH1 0x0 MSTORE PUSH1 0x20 PUSH1 0x0 KECCAK256 SWAP1 JUMPDEST DUP2 SLOAD DUP2 MSTORE SWAP1 PUSH1 0x1 ADD SWAP1 PUSH1 0x20 ADD DUP1 DUP4 GT PUSH2 0x463 JUMPI DUP3 SWAP1 SUB PUSH1 0x1F AND DUP3 ADD SWAP2 JUMPDEST POP POP POP POP POP DUP4 DUP4 DUP2 MLOAD DUP2 LT PUSH2 0x497 JUMPI PUSH2 0x497 PUSH2 0xF26 JUMP JUMPDEST PUSH1 0x20 MUL PUSH1 0x20 ADD ADD DUP2 SWAP1 MSTORE POP POP DUP1 DUP1 PUSH2 0x4AE SWAP1 PUSH2 0xF55 JUMP JUMPDEST SWAP2 POP POP PUSH2 0x3E1 JUMP JUMPDEST POP SWAP2 SWAP1 POP JUMP JUMPDEST PUSH1 0x0 PUSH2 0x4C6 PUSH2 0x756 JUMP JUMPDEST PUSH2 0x4CF DUP3 PUSH2 0x91B JUMP JUMPDEST PUSH1 0x1 DUP1 PUSH1 0x0 DUP3 DUP3 SLOAD PUSH2 0x4E1 SWAP2 SWAP1 PUSH2 0xF13 JUMP JUMPDEST SWAP1 SWAP2 SSTORE POP POP PUSH1 0x1 SLOAD PUSH1 0x0 DUP2 DUP2 MSTORE PUSH1 0x2 PUSH1 0x20 MSTORE PUSH1 0x40 SWAP1 DUP2 SWAP1 KECCAK256 SWAP1 MLOAD SWAP1 SWAP2 SWAP1 PUSH1 0x3 SWAP1 PUSH2 0x50C SWAP1 DUP7 SWAP1 PUSH2 0xEC8 JUMP JUMPDEST SWAP1 DUP2 MSTORE PUSH1 0x40 MLOAD SWAP1 DUP2 SWAP1 SUB PUSH1 0x20 ADD SWAP1 KECCAK256 SSTORE PUSH1 0x1 DUP1 SLOAD DUP3 SSTORE DUP2 ADD PUSH2 0x52E DUP5 DUP3 PUSH2 0x1028 JUMP JUMPDEST POP DUP1 SLOAD PUSH1 0x40 MLOAD PUSH2 0x542 SWAP1 PUSH1 0x1 DUP5 ADD SWAP1 PUSH2 0x1142 JUMP JUMPDEST PUSH1 0x40 MLOAD SWAP1 DUP2 SWAP1 SUB DUP2 KECCAK256 SWAP1 PUSH32 0xE0E6E8B81AE036EFC4AE16444815CCC05DD21BE3412DDACD8376EBB5CDB47238 SWAP1 PUSH1 0x0 SWAP1 LOG3 SLOAD SWAP1 POP PUSH2 0x57F PUSH1 0x1 PUSH1 0x0 SSTORE JUMP JUMPDEST SWAP2 SWAP1 POP JUMP JUMPDEST PUSH1 0x0 DUP1 PUSH1 0x2 PUSH1 0x0 PUSH1 0x3 DUP6 PUSH1 0x40 MLOAD PUSH2 0x59B SWAP2 SWAP1 PUSH2 0xEC8 JUMP JUMPDEST SWAP1 DUP2 MSTORE PUSH1 0x20 ADD PUSH1 0x40 MLOAD DUP1 SWAP2 SUB SWAP1 KECCAK256 SLOAD DUP2 MSTORE PUSH1 0x20 ADD SWAP1 DUP2 MSTORE PUSH1 0x20 ADD PUSH1 0x0 KECCAK256 SWAP1 POP PUSH2 0x5C6 DUP2 PUSH1 0x2 ADD PUSH2 0x905 JUMP JUMPDEST SWAP4 SWAP3 POP POP POP JUMP JUMPDEST PUSH1 0x0 DUP1 PUSH1 0x2 PUSH1 0x0 PUSH1 0x3 DUP6 PUSH1 0x40 MLOAD PUSH2 0x5E4 SWAP2 SWAP1 PUSH2 0xEC8 JUMP JUMPDEST SWAP1 DUP2 MSTORE PUSH1 0x20 ADD PUSH1 0x40 MLOAD DUP1 SWAP2 SUB SWAP1 KECCAK256 SLOAD DUP2 MSTORE PUSH1 0x20 ADD SWAP1 DUP2 MSTORE PUSH1 0x20 ADD PUSH1 0x0 KECCAK256 SWAP1 POP PUSH2 0x5C6 PUSH2 0x612 DUP3 PUSH1 0x2 ADD PUSH2 0x905 JUMP JUMPDEST PUSH1 0x2 DUP4 ADD SWAP1 PUSH2 0x90F JUMP JUMPDEST PUSH1 0x0 PUSH2 0x628 DUP4 DUP4 PUSH2 0x9A6 JUMP JUMPDEST PUSH1 0x0 PUSH1 0x2 PUSH1 0x0 PUSH1 0x3 DUP7 PUSH1 0x40 MLOAD PUSH2 0x63E SWAP2 SWAP1 PUSH2 0xEC8 JUMP JUMPDEST SWAP1 DUP2 MSTORE PUSH1 0x20 ADD PUSH1 0x40 MLOAD DUP1 SWAP2 SUB SWAP1 KECCAK256 SLOAD DUP2 MSTORE PUSH1 0x20 ADD SWAP1 DUP2 MSTORE PUSH1 0x20 ADD PUSH1 0x0 KECCAK256 SWAP1 POP PUSH2 0x673 DUP4 DUP3 PUSH1 0x2 ADD PUSH2 0x90F SWAP1 SWAP2 SWAP1 PUSH4 0xFFFFFFFF AND JUMP JUMPDEST SWAP2 POP POP JUMPDEST SWAP3 SWAP2 POP POP JUMP JUMPDEST PUSH2 0x685 PUSH2 0x756 JUMP JUMPDEST PUSH2 0x68E DUP3 PUSH2 0xA83 JUMP JUMPDEST PUSH1 0x0 PUSH1 0x2 PUSH1 0x0 PUSH1 0x3 DUP6 PUSH1 0x40 MLOAD PUSH2 0x6A4 SWAP2 SWAP1 PUSH2 0xEC8 JUMP JUMPDEST SWAP1 DUP2 MSTORE PUSH1 0x20 ADD PUSH1 0x40 MLOAD DUP1 SWAP2 SUB SWAP1 KECCAK256 SLOAD DUP2 MSTORE PUSH1 0x20 ADD SWAP1 DUP2 MSTORE PUSH1 0x20 ADD PUSH1 0x0 KECCAK256 SWAP1 POP PUSH2 0x6E2 DUP4 PUSH2 0x6DD DUP5 DUP5 PUSH1 0x2 ADD PUSH2 0x90F SWAP1 SWAP2 SWAP1 PUSH4 0xFFFFFFFF AND JUMP JUMPDEST PUSH2 0x8AB JUMP JUMPDEST PUSH2 0x6EF PUSH1 0x2 DUP3 ADD DUP4 PUSH2 0x90F JUMP JUMPDEST PUSH20 0xFFFFFFFFFFFFFFFFFFFFFFFFFFFFFFFFFFFFFFFF AND DUP2 PUSH1 0x0 ADD SLOAD DUP3 PUSH1 0x1 ADD PUSH1 0x40 MLOAD PUSH2 0x71B SWAP2 SWAP1 PUSH2 0x1142 JUMP JUMPDEST PUSH1 0x40 MLOAD SWAP1 DUP2 SWAP1 SUB DUP2 KECCAK256 SWAP1 PUSH32 0x8F06933070A3367170D50B358E9D73813DFBAAA11081BD5580AE4AF2BABA122D SWAP1 PUSH1 0x0 SWAP1 LOG4 POP PUSH2 0x272 PUSH1 0x1 PUSH1 0x0 SSTORE JUMP JUMPDEST PUSH1 0x2 PUSH1 0x0 SLOAD SUB PUSH2 0x7C7 JUMPI PUSH1 0x40 MLOAD PUSH32 0x8C379A000000000000000000000000000000000000000000000000000000000 DUP2 MSTORE PUSH1 0x20 PUSH1 0x4 DUP3 ADD MSTORE PUSH1 0x1F PUSH1 0x24 DUP3 ADD MSTORE PUSH32 0x5265656E7472616E637947756172643A207265656E7472616E742063616C6C00 PUSH1 0x44 DUP3 ADD MSTORE PUSH1 0x64 ADD JUMPDEST PUSH1 0x40 MLOAD DUP1 SWAP2 SUB SWAP1 REVERT JUMPDEST PUSH1 0x2 PUSH1 0x0 SSTORE JUMP JUMPDEST PUSH1 0x0 PUSH1 0x2 PUSH1 0x0 PUSH1 0x3 DUP6 PUSH1 0x40 MLOAD PUSH2 0x7E4 SWAP2 SWAP1 PUSH2 0xEC8 JUMP JUMPDEST SWAP1 DUP2 MSTORE PUSH1 0x20 ADD PUSH1 0x40 MLOAD DUP1 SWAP2 SUB SWAP1 KECCAK256 SLOAD DUP2 MSTORE PUSH1 0x20 ADD SWAP1 DUP2 MSTORE PUSH1 0x20 ADD PUSH1 0x0 KECCAK256 SWAP1 POP PUSH2 0x819 DUP3 DUP3 PUSH1 0x2 ADD PUSH2 0xB0B SWAP1 SWAP2 SWAP1 PUSH4 0xFFFFFFFF AND JUMP JUMPDEST ISZERO PUSH2 0x8A6 JUMPI PUSH1 0x40 MLOAD PUSH32 0x8C379A000000000000000000000000000000000000000000000000000000000 DUP2 MSTORE PUSH1 0x20 PUSH1 0x4 DUP3 ADD MSTORE PUSH1 0x27 PUSH1 0x24 DUP3 ADD MSTORE PUSH32 0x4D6F64756C6520616C726561647920686173207468697320696D706C656D656E PUSH1 0x44 DUP3 ADD MSTORE PUSH32 0x746174696F6E2E00000000000000000000000000000000000000000000000000 PUSH1 0x64 DUP3 ADD MSTORE PUSH1 0x84 ADD PUSH2 0x7BE JUMP JUMPDEST POP POP POP JUMP JUMPDEST PUSH2 0x8B4 DUP3 PUSH2 0xA83 JUMP JUMPDEST PUSH1 0x0 PUSH1 0x2 PUSH1 0x0 PUSH1 0x3 DUP6 PUSH1 0x40 MLOAD PUSH2 0x8CA SWAP2 SWAP1 PUSH2 0xEC8 JUMP JUMPDEST SWAP1 DUP2 MSTORE PUSH1 0x20 ADD PUSH1 0x40 MLOAD DUP1 SWAP2 SUB SWAP1 KECCAK256 SLOAD DUP2 MSTORE PUSH1 0x20 ADD SWAP1 DUP2 MSTORE PUSH1 0x20 ADD PUSH1 0x0 KECCAK256 SWAP1 POP PUSH2 0x8FF DUP3 DUP3 PUSH1 0x2 ADD PUSH2 0xB3A SWAP1 SWAP2 SWAP1 PUSH4 0xFFFFFFFF AND JUMP JUMPDEST POP POP POP POP JUMP JUMPDEST PUSH1 0x0 PUSH2 0x677 DUP3 SLOAD SWAP1 JUMP JUMPDEST PUSH1 0x0 PUSH2 0x5C6 DUP4 DUP4 PUSH2 0xB5C JUMP JUMPDEST PUSH1 0x3 DUP2 PUSH1 0x40 MLOAD PUSH2 0x92B SWAP2 SWAP1 PUSH2 0xEC8 JUMP JUMPDEST SWAP1 DUP2 MSTORE PUSH1 0x20 ADD PUSH1 0x40 MLOAD DUP1 SWAP2 SUB SWAP1 KECCAK256 SLOAD PUSH1 0x0 EQ PUSH2 0x9A3 JUMPI PUSH1 0x40 MLOAD PUSH32 0x8C379A000000000000000000000000000000000000000000000000000000000 DUP2 MSTORE PUSH1 0x20 PUSH1 0x4 DUP3 ADD MSTORE PUSH1 0x19 PUSH1 0x24 DUP3 ADD MSTORE PUSH32 0x4D6F64756C6520697320616C726561647920696E207573652E00000000000000 PUSH1 0x44 DUP3 ADD MSTORE PUSH1 0x64 ADD PUSH2 0x7BE JUMP JUMPDEST POP JUMP JUMPDEST PUSH1 0x0 PUSH1 0x2 PUSH1 0x0 PUSH1 0x3 DUP6 PUSH1 0x40 MLOAD PUSH2 0x9BC SWAP2 SWAP1 PUSH2 0xEC8 JUMP JUMPDEST SWAP1 DUP2 MSTORE PUSH1 0x20 ADD PUSH1 0x40 MLOAD DUP1 SWAP2 SUB SWAP1 KECCAK256 SLOAD DUP2 MSTORE PUSH1 0x20 ADD SWAP1 DUP2 MSTORE PUSH1 0x20 ADD PUSH1 0x0 KECCAK256 SWAP1 POP PUSH1 0x1 DUP3 LT ISZERO DUP1 ISZERO PUSH2 0x9F7 JUMPI POP PUSH2 0x9F3 DUP2 PUSH1 0x2 ADD PUSH2 0x905 JUMP JUMPDEST DUP3 GT ISZERO JUMPDEST PUSH2 0x8A6 JUMPI PUSH1 0x40 MLOAD PUSH32 0x8C379A000000000000000000000000000000000000000000000000000000000 DUP2 MSTORE PUSH1 0x20 PUSH1 0x4 DUP3 ADD MSTORE PUSH1 0x35 PUSH1 0x24 DUP3 ADD MSTORE PUSH32 0x56657273696F6E20646F6573206E6F7420706F696E7420746F20616E20657869 PUSH1 0x44 DUP3 ADD MSTORE PUSH32 0x7374696E6720696D706C656D656E746174696F6E2E0000000000000000000000 PUSH1 0x64 DUP3 ADD MSTORE PUSH1 0x84 ADD PUSH2 0x7BE JUMP JUMPDEST PUSH1 0x3 DUP2 PUSH1 0x40 MLOAD PUSH2 0xA93 SWAP2 SWAP1 PUSH2 0xEC8 JUMP JUMPDEST SWAP1 DUP2 MSTORE PUSH1 0x20 ADD PUSH1 0x40 MLOAD DUP1 SWAP2 SUB SWAP1 KECCAK256 SLOAD PUSH1 0x0 SUB PUSH2 0x9A3 JUMPI PUSH1 0x40 MLOAD PUSH32 0x8C379A000000000000000000000000000000000000000000000000000000000 DUP2 MSTORE PUSH1 0x20 PUSH1 0x4 DUP3 ADD MSTORE PUSH1 0x16 PUSH1 0x24 DUP3 ADD MSTORE PUSH32 0x4D6F64756C6520646F6573206E6F742065786973742E00000000000000000000 PUSH1 0x44 DUP3 ADD MSTORE PUSH1 0x64 ADD PUSH2 0x7BE JUMP JUMPDEST PUSH20 0xFFFFFFFFFFFFFFFFFFFFFFFFFFFFFFFFFFFFFFFF DUP2 AND PUSH1 0x0 SWAP1 DUP2 MSTORE PUSH1 0x1 DUP4 ADD PUSH1 0x20 MSTORE PUSH1 0x40 DUP2 KECCAK256 SLOAD ISZERO ISZERO PUSH2 0x5C6 JUMP JUMPDEST PUSH1 0x0 PUSH2 0x5C6 DUP4 PUSH20 0xFFFFFFFFFFFFFFFFFFFFFFFFFFFFFFFFFFFFFFFF DUP5 AND PUSH2 0xB86 JUMP JUMPDEST PUSH1 0x0 DUP3 PUSH1 0x0 ADD DUP3 DUP2 SLOAD DUP2 LT PUSH2 0xB73 JUMPI PUSH2 0xB73 PUSH2 0xF26 JUMP JUMPDEST SWAP1 PUSH1 0x0 MSTORE PUSH1 0x20 PUSH1 0x0 KECCAK256 ADD SLOAD SWAP1 POP SWAP3 SWAP2 POP POP JUMP JUMPDEST PUSH1 0x0 DUP2 DUP2 MSTORE PUSH1 0x1 DUP4 ADD PUSH1 0x20 MSTORE PUSH1 0x40 DUP2 KECCAK256 SLOAD PUSH2 0xBCD JUMPI POP DUP2 SLOAD PUSH1 0x1 DUP2 DUP2 ADD DUP5 SSTORE PUSH1 0x0 DUP5 DUP2 MSTORE PUSH1 0x20 DUP1 DUP3 KECCAK256 SWAP1 SWAP4 ADD DUP5 SWAP1 SSTORE DUP5 SLOAD DUP5 DUP3 MSTORE DUP3 DUP7 ADD SWAP1 SWAP4 MSTORE PUSH1 0x40 SWAP1 KECCAK256 SWAP2 SWAP1 SWAP2 SSTORE PUSH2 0x677 JUMP JUMPDEST POP PUSH1 0x0 PUSH2 0x677 JUMP JUMPDEST PUSH32 0x4E487B7100000000000000000000000000000000000000000000000000000000 PUSH1 0x0 MSTORE PUSH1 0x41 PUSH1 0x4 MSTORE PUSH1 0x24 PUSH1 0x0 REVERT JUMPDEST PUSH1 0x0 DUP3 PUSH1 0x1F DUP4 ADD SLT PUSH2 0xC15 JUMPI PUSH1 0x0 DUP1 REVERT JUMPDEST DUP2 CALLDATALOAD PUSH8 0xFFFFFFFFFFFFFFFF DUP1 DUP3 GT ISZERO PUSH2 0xC30 JUMPI PUSH2 0xC30 PUSH2 0xBD5 JUMP JUMPDEST PUSH1 0x40 MLOAD PUSH1 0x1F DUP4 ADD PUSH32 0xFFFFFFFFFFFFFFFFFFFFFFFFFFFFFFFFFFFFFFFFFFFFFFFFFFFFFFFFFFFFFFE0 SWAP1 DUP2 AND PUSH1 0x3F ADD AND DUP2 ADD SWAP1 DUP3 DUP3 GT DUP2 DUP4 LT OR ISZERO PUSH2 0xC76 JUMPI PUSH2 0xC76 PUSH2 0xBD5 JUMP JUMPDEST DUP2 PUSH1 0x40 MSTORE DUP4 DUP2 MSTORE DUP7 PUSH1 0x20 DUP6 DUP9 ADD ADD GT ISZERO PUSH2 0xC8F JUMPI PUSH1 0x0 DUP1 REVERT JUMPDEST DUP4 PUSH1 0x20 DUP8 ADD PUSH1 0x20 DUP4 ADD CALLDATACOPY PUSH1 0x0 PUSH1 0x20 DUP6 DUP4 ADD ADD MSTORE DUP1 SWAP5 POP POP POP POP POP SWAP3 SWAP2 POP POP JUMP JUMPDEST PUSH1 0x0 PUSH1 0x20 DUP3 DUP5 SUB SLT ISZERO PUSH2 0xCC1 JUMPI PUSH1 0x0 DUP1 REVERT JUMPDEST DUP2 CALLDATALOAD PUSH8 0xFFFFFFFFFFFFFFFF DUP2 GT ISZERO PUSH2 0xCD8 JUMPI PUSH1 0x0 DUP1 REVERT JUMPDEST PUSH2 0x673 DUP5 DUP3 DUP6 ADD PUSH2 0xC04 JUMP JUMPDEST PUSH1 0x0 DUP1 PUSH1 0x40 DUP4 DUP6 SUB SLT ISZERO PUSH2 0xCF7 JUMPI PUSH1 0x0 DUP1 REVERT JUMPDEST DUP3 CALLDATALOAD PUSH8 0xFFFFFFFFFFFFFFFF DUP2 GT ISZERO PUSH2 0xD0E JUMPI PUSH1 0x0 DUP1 REVERT JUMPDEST PUSH2 0xD1A DUP6 DUP3 DUP7 ADD PUSH2 0xC04 JUMP JUMPDEST SWAP3 POP POP PUSH1 0x20 DUP4 ADD CALLDATALOAD PUSH20 0xFFFFFFFFFFFFFFFFFFFFFFFFFFFFFFFFFFFFFFFF DUP2 AND DUP2 EQ PUSH2 0xD44 JUMPI PUSH1 0x0 DUP1 REVERT JUMPDEST DUP1 SWAP2 POP POP SWAP3 POP SWAP3 SWAP1 POP JUMP JUMPDEST PUSH1 0x20 DUP1 DUP3 MSTORE DUP3 MLOAD DUP3 DUP3 ADD DUP2 SWAP1 MSTORE PUSH1 0x0 SWAP2 SWAP1 DUP5 DUP3 ADD SWAP1 PUSH1 0x40 DUP6 ADD SWAP1 DUP5 JUMPDEST DUP2 DUP2 LT ISZERO PUSH2 0xD9D JUMPI DUP4 MLOAD PUSH20 0xFFFFFFFFFFFFFFFFFFFFFFFFFFFFFFFFFFFFFFFF AND DUP4 MSTORE SWAP3 DUP5 ADD SWAP3 SWAP2 DUP5 ADD SWAP2 PUSH1 0x1 ADD PUSH2 0xD6B JUMP JUMPDEST POP SWAP1 SWAP7 SWAP6 POP POP POP POP POP POP JUMP JUMPDEST PUSH1 0x0 JUMPDEST DUP4 DUP2 LT ISZERO PUSH2 0xDC4 JUMPI DUP2 DUP2 ADD MLOAD DUP4 DUP3 ADD MSTORE PUSH1 0x20 ADD PUSH2 0xDAC JUMP JUMPDEST POP POP PUSH1 0x0 SWAP2 ADD MSTORE JUMP JUMPDEST PUSH1 0x0 PUSH1 0x20 DUP1 DUP4 ADD DUP2 DUP5 MSTORE DUP1 DUP6 MLOAD DUP1 DUP4 MSTORE PUSH1 0x40 DUP7 ADD SWAP2 POP PUSH1 0x40 DUP2 PUSH1 0x5 SHL DUP8 ADD ADD SWAP3 POP DUP4 DUP8 ADD PUSH1 0x0 JUMPDEST DUP3 DUP2 LT ISZERO PUSH2 0xE76 JUMPI PUSH32 0xFFFFFFFFFFFFFFFFFFFFFFFFFFFFFFFFFFFFFFFFFFFFFFFFFFFFFFFFFFFFFFC0 DUP9 DUP7 SUB ADD DUP5 MSTORE DUP2 MLOAD DUP1 MLOAD DUP1 DUP8 MSTORE PUSH2 0xE39 DUP2 DUP10 DUP10 ADD DUP11 DUP6 ADD PUSH2 0xDA9 JUMP JUMPDEST PUSH1 0x1F ADD PUSH32 0xFFFFFFFFFFFFFFFFFFFFFFFFFFFFFFFFFFFFFFFFFFFFFFFFFFFFFFFFFFFFFFE0 AND SWAP6 SWAP1 SWAP6 ADD DUP7 ADD SWAP5 POP SWAP3 DUP6 ADD SWAP3 SWAP1 DUP6 ADD SWAP1 PUSH1 0x1 ADD PUSH2 0xDF4 JUMP JUMPDEST POP SWAP3 SWAP8 SWAP7 POP POP POP POP POP POP POP JUMP JUMPDEST PUSH1 0x0 DUP1 PUSH1 0x40 DUP4 DUP6 SUB SLT ISZERO PUSH2 0xE96 JUMPI PUSH1 0x0 DUP1 REVERT JUMPDEST DUP3 CALLDATALOAD PUSH8 0xFFFFFFFFFFFFFFFF DUP2 GT ISZERO PUSH2 0xEAD JUMPI PUSH1 0x0 DUP1 REVERT JUMPDEST PUSH2 0xEB9 DUP6 DUP3 DUP7 ADD PUSH2 0xC04 JUMP JUMPDEST SWAP6 PUSH1 0x20 SWAP5 SWAP1 SWAP5 ADD CALLDATALOAD SWAP5 POP POP POP POP JUMP JUMPDEST PUSH1 0x0 DUP3 MLOAD PUSH2 0xEDA DUP2 DUP5 PUSH1 0x20 DUP8 ADD PUSH2 0xDA9 JUMP JUMPDEST SWAP2 SWAP1 SWAP2 ADD SWAP3 SWAP2 POP POP JUMP JUMPDEST PUSH32 0x4E487B7100000000000000000000000000000000000000000000000000000000 PUSH1 0x0 MSTORE PUSH1 0x11 PUSH1 0x4 MSTORE PUSH1 0x24 PUSH1 0x0 REVERT JUMPDEST DUP1 DUP3 ADD DUP1 DUP3 GT ISZERO PUSH2 0x677 JUMPI PUSH2 0x677 PUSH2 0xEE4 JUMP JUMPDEST PUSH32 0x4E487B7100000000000000000000000000000000000000000000000000000000 PUSH1 0x0 MSTORE PUSH1 0x32 PUSH1 0x4 MSTORE PUSH1 0x24 PUSH1 0x0 REVERT JUMPDEST PUSH1 0x0 PUSH32 0xFFFFFFFFFFFFFFFFFFFFFFFFFFFFFFFFFFFFFFFFFFFFFFFFFFFFFFFFFFFFFFFF DUP3 SUB PUSH2 0xF86 JUMPI PUSH2 0xF86 PUSH2 0xEE4 JUMP JUMPDEST POP PUSH1 0x1 ADD SWAP1 JUMP JUMPDEST PUSH1 0x1 DUP2 DUP2 SHR SWAP1 DUP3 AND DUP1 PUSH2 0xFA1 JUMPI PUSH1 0x7F DUP3 AND SWAP2 POP JUMPDEST PUSH1 0x20 DUP3 LT DUP2 SUB PUSH2 0x4B6 JUMPI PUSH32 0x4E487B7100000000000000000000000000000000000000000000000000000000 PUSH1 0x0 MSTORE PUSH1 0x22 PUSH1 0x4 MSTORE PUSH1 0x24 PUSH1 0x0 REVERT JUMPDEST PUSH1 0x1F DUP3 GT ISZERO PUSH2 0x8A6 JUMPI PUSH1 0x0 DUP2 DUP2 MSTORE PUSH1 0x20 DUP2 KECCAK256 PUSH1 0x1F DUP6 ADD PUSH1 0x5 SHR DUP2 ADD PUSH1 0x20 DUP7 LT ISZERO PUSH2 0x1001 JUMPI POP DUP1 JUMPDEST PUSH1 0x1F DUP6 ADD PUSH1 0x5 SHR DUP3 ADD SWAP2 POP JUMPDEST DUP2 DUP2 LT ISZERO PUSH2 0x1020 JUMPI DUP3 DUP2 SSTORE PUSH1 0x1 ADD PUSH2 0x100D JUMP JUMPDEST POP POP POP POP POP POP JUMP JUMPDEST DUP2 MLOAD PUSH8 0xFFFFFFFFFFFFFFFF DUP2 GT ISZERO PUSH2 0x1042 JUMPI PUSH2 0x1042 PUSH2 0xBD5 JUMP JUMPDEST PUSH2 0x1056 DUP2 PUSH2 0x1050 DUP5 SLOAD PUSH2 0xF8D JUMP JUMPDEST DUP5 PUSH2 0xFDA JUMP JUMPDEST PUSH1 0x20 DUP1 PUSH1 0x1F DUP4 GT PUSH1 0x1 DUP2 EQ PUSH2 0x10A9 JUMPI PUSH1 0x0 DUP5 ISZERO PUSH2 0x1073 JUMPI POP DUP6 DUP4 ADD MLOAD JUMPDEST PUSH32 0xFFFFFFFFFFFFFFFFFFFFFFFFFFFFFFFFFFFFFFFFFFFFFFFFFFFFFFFFFFFFFFFF PUSH1 0x3 DUP7 SWAP1 SHL SHR NOT AND PUSH1 0x1 DUP6 SWAP1 SHL OR DUP6 SSTORE PUSH2 0x1020 JUMP JUMPDEST PUSH1 0x0 DUP6 DUP2 MSTORE PUSH1 0x20 DUP2 KECCAK256 PUSH32 0xFFFFFFFFFFFFFFFFFFFFFFFFFFFFFFFFFFFFFFFFFFFFFFFFFFFFFFFFFFFFFFE0 DUP7 AND SWAP2 JUMPDEST DUP3 DUP2 LT ISZERO PUSH2 0x10F6 JUMPI DUP9 DUP7 ADD MLOAD DUP3 SSTORE SWAP5 DUP5 ADD SWAP5 PUSH1 0x1 SWAP1 SWAP2 ADD SWAP1 DUP5 ADD PUSH2 0x10D7 JUMP JUMPDEST POP DUP6 DUP3 LT ISZERO PUSH2 0x1132 JUMPI DUP8 DUP6 ADD MLOAD PUSH32 0xFFFFFFFFFFFFFFFFFFFFFFFFFFFFFFFFFFFFFFFFFFFFFFFFFFFFFFFFFFFFFFFF PUSH1 0x3 DUP9 SWAP1 SHL PUSH1 0xF8 AND SHR NOT AND DUP2 SSTORE JUMPDEST POP POP POP POP POP PUSH1 0x1 SWAP1 DUP2 SHL ADD SWAP1 SSTORE POP JUMP JUMPDEST PUSH1 0x0 DUP1 DUP4 SLOAD PUSH2 0x1150 DUP2 PUSH2 0xF8D JUMP JUMPDEST PUSH1 0x1 DUP3 DUP2 AND DUP1 ISZERO PUSH2 0x1168 JUMPI PUSH1 0x1 DUP2 EQ PUSH2 0x119B JUMPI PUSH2 0x11CA JUMP JUMPDEST PUSH32 0xFFFFFFFFFFFFFFFFFFFFFFFFFFFFFFFFFFFFFFFFFFFFFFFFFFFFFFFFFFFFFF00 DUP5 AND DUP8 MSTORE DUP3 ISZERO ISZERO DUP4 MUL DUP8 ADD SWAP5 POP PUSH2 0x11CA JUMP JUMPDEST DUP8 PUSH1 0x0 MSTORE PUSH1 0x20 DUP1 PUSH1 0x0 KECCAK256 PUSH1 0x0 JUMPDEST DUP6 DUP2 LT ISZERO PUSH2 0x11C1 JUMPI DUP2 SLOAD DUP11 DUP3 ADD MSTORE SWAP1 DUP5 ADD SWAP1 DUP3 ADD PUSH2 0x11A8 JUMP JUMPDEST POP POP POP DUP3 DUP8 ADD SWAP5 POP JUMPDEST POP SWAP3 SWAP7 SWAP6 POP POP POP POP POP POP JUMP INVALID LOG2 PUSH5 0x6970667358 0x22 SLT KECCAK256 MSIZE SELFBALANCE 0xBA 0xF 0xED LOG1 0x27 DUP4 SWAP15 PUSH17 0xB0A98EA3350AE6E774CEC40F63B4A537B8 0x27 SELFDESTRUCT 0xED 0x26 PUSH2 0x6473 PUSH16 0x6C634300081300330000000000000000 "
				},
				"gasEstimates": {
					"creation": {
						"codeDepositCost": "924000",
						"executionCost": "23068",
						"totalCost": "947068"
					},
					"external": {
						"count()": "2308",
						"create(string)": "infinite",
						"downgrade(string,uint256)": "infinite",
						"getImplementation(string,uint256)": "infinite",
						"getImplementations(string)": "infinite",
						"getLatestImplementation(string)": "infinite",
						"getLatestVersion(string)": "infinite",
						"getModules()": "infinite",
						"nameToIdentifier(string)": "infinite",
						"upgrade(string,address)": "infinite"
					},
					"internal": {
						"_mustBeExistingModule(string memory)": "infinite",
						"_mustBeExistingVersion(string memory,uint256)": "infinite",
						"_mustNotBeDuplicateImplementation(string memory,address)": "infinite",
						"_mustNotBeExistingModule(string memory)": "infinite",
						"_upgrade(string memory,address)": "infinite"
					}
				},
				"methodIdentifiers": {
					"count()": "06661abd",
					"create(string)": "b6a46b3b",
					"downgrade(string,uint256)": "fb68ba31",
					"getImplementation(string,uint256)": "e8009dda",
					"getImplementations(string)": "812a4f8c",
					"getLatestImplementation(string)": "d285f839",
					"getLatestVersion(string)": "cae96761",
					"getModules()": "b2494df3",
					"nameToIdentifier(string)": "278be867",
					"upgrade(string,address)": "5332c74d"
				}
			},
			"storageLayout": {
				"storage": [
					{
						"astId": 10,
						"contract": "smart_contracts/module_architecture/ModuleManager.sol:ModuleManager",
						"label": "_status",
						"offset": 0,
						"slot": "0",
						"type": "t_uint256"
					},
					{
						"astId": 750,
						"contract": "smart_contracts/module_architecture/ModuleManager.sol:ModuleManager",
						"label": "count",
						"offset": 0,
						"slot": "1",
						"type": "t_uint256"
					},
					{
						"astId": 764,
						"contract": "smart_contracts/module_architecture/ModuleManager.sol:ModuleManager",
						"label": "modules",
						"offset": 0,
						"slot": "2",
						"type": "t_mapping(t_uint256,t_struct(Module)758_storage)"
					},
					{
						"astId": 768,
						"contract": "smart_contracts/module_architecture/ModuleManager.sol:ModuleManager",
						"label": "nameToIdentifier",
						"offset": 0,
						"slot": "3",
						"type": "t_mapping(t_string_memory_ptr,t_uint256)"
					}
				],
				"types": {
					"t_array(t_bytes32)dyn_storage": {
						"base": "t_bytes32",
						"encoding": "dynamic_array",
						"label": "bytes32[]",
						"numberOfBytes": "32"
					},
					"t_bytes32": {
						"encoding": "inplace",
						"label": "bytes32",
						"numberOfBytes": "32"
					},
					"t_mapping(t_bytes32,t_uint256)": {
						"encoding": "mapping",
						"key": "t_bytes32",
						"label": "mapping(bytes32 => uint256)",
						"numberOfBytes": "32",
						"value": "t_uint256"
					},
					"t_mapping(t_string_memory_ptr,t_uint256)": {
						"encoding": "mapping",
						"key": "t_string_memory_ptr",
						"label": "mapping(string => uint256)",
						"numberOfBytes": "32",
						"value": "t_uint256"
					},
					"t_mapping(t_uint256,t_struct(Module)758_storage)": {
						"encoding": "mapping",
						"key": "t_uint256",
						"label": "mapping(uint256 => struct ModuleManager.Module)",
						"numberOfBytes": "32",
						"value": "t_struct(Module)758_storage"
					},
					"t_string_memory_ptr": {
						"encoding": "bytes",
						"label": "string",
						"numberOfBytes": "32"
					},
					"t_string_storage": {
						"encoding": "bytes",
						"label": "string",
						"numberOfBytes": "32"
					},
					"t_struct(AddressSet)390_storage": {
						"encoding": "inplace",
						"label": "struct EnumerableSet.AddressSet",
						"members": [
							{
								"astId": 389,
								"contract": "smart_contracts/module_architecture/ModuleManager.sol:ModuleManager",
								"label": "_inner",
								"offset": 0,
								"slot": "0",
								"type": "t_struct(Set)75_storage"
							}
						],
						"numberOfBytes": "64"
					},
					"t_struct(Module)758_storage": {
						"encoding": "inplace",
						"label": "struct ModuleManager.Module",
						"members": [
							{
								"astId": 752,
								"contract": "smart_contracts/module_architecture/ModuleManager.sol:ModuleManager",
								"label": "identifier",
								"offset": 0,
								"slot": "0",
								"type": "t_uint256"
							},
							{
								"astId": 754,
								"contract": "smart_contracts/module_architecture/ModuleManager.sol:ModuleManager",
								"label": "name",
								"offset": 0,
								"slot": "1",
								"type": "t_string_storage"
							},
							{
								"astId": 757,
								"contract": "smart_contracts/module_architecture/ModuleManager.sol:ModuleManager",
								"label": "implementations",
								"offset": 0,
								"slot": "2",
								"type": "t_struct(AddressSet)390_storage"
							}
						],
						"numberOfBytes": "128"
					},
					"t_struct(Set)75_storage": {
						"encoding": "inplace",
						"label": "struct EnumerableSet.Set",
						"members": [
							{
								"astId": 70,
								"contract": "smart_contracts/module_architecture/ModuleManager.sol:ModuleManager",
								"label": "_values",
								"offset": 0,
								"slot": "0",
								"type": "t_array(t_bytes32)dyn_storage"
							},
							{
								"astId": 74,
								"contract": "smart_contracts/module_architecture/ModuleManager.sol:ModuleManager",
								"label": "_indexes",
								"offset": 0,
								"slot": "1",
								"type": "t_mapping(t_bytes32,t_uint256)"
							}
						],
						"numberOfBytes": "64"
					},
					"t_uint256": {
						"encoding": "inplace",
						"label": "uint256",
						"numberOfBytes": "32"
					}
				}
			},
			"userdoc": {
				"kind": "user",
				"methods": {
					"getImplementations(string)": {
						"notice": "and this is return a zero address even when a module has been upgraded."
					},
					"getLatestImplementation(string)": {
						"notice": "for some reason this doesnt work."
					},
					"getModules()": {
						"notice": "wtf is going on here? ** i solved this finally just needed to add 1 to array size."
					}
				},
				"version": 1
			}
		}
	}
}