{
	"smart_contracts/module_architecture/ModuleManager2.sol": {
		"ModuleManager": {
			"abi": [
				{
					"inputs": [
						{
							"internalType": "address",
							"name": "owner",
							"type": "address"
						}
					],
					"stateMutability": "nonpayable",
					"type": "constructor"
				},
				{
					"anonymous": false,
					"inputs": [
						{
							"indexed": true,
							"internalType": "string",
							"name": "newModule",
							"type": "string"
						},
						{
							"indexed": true,
							"internalType": "address",
							"name": "newImplementation",
							"type": "address"
						}
					],
					"name": "ModuleCreated",
					"type": "event"
				},
				{
					"anonymous": false,
					"inputs": [
						{
							"indexed": true,
							"internalType": "string",
							"name": "module",
							"type": "string"
						},
						{
							"indexed": true,
							"internalType": "address",
							"name": "newImplementation",
							"type": "address"
						}
					],
					"name": "ModuleDowngraded",
					"type": "event"
				},
				{
					"anonymous": false,
					"inputs": [
						{
							"indexed": true,
							"internalType": "string",
							"name": "module",
							"type": "string"
						},
						{
							"indexed": true,
							"internalType": "address",
							"name": "newImplementation",
							"type": "address"
						}
					],
					"name": "ModuleUpgraded",
					"type": "event"
				},
				{
					"anonymous": false,
					"inputs": [
						{
							"indexed": true,
							"internalType": "address",
							"name": "previousOwner",
							"type": "address"
						},
						{
							"indexed": true,
							"internalType": "address",
							"name": "newOwner",
							"type": "address"
						}
					],
					"name": "OwnershipTransferred",
					"type": "event"
				},
				{
					"inputs": [
						{
							"internalType": "string",
							"name": "newModule",
							"type": "string"
						},
						{
							"internalType": "address",
							"name": "newImplementation",
							"type": "address"
						}
					],
					"name": "create",
					"outputs": [
						{
							"internalType": "bool",
							"name": "",
							"type": "bool"
						}
					],
					"stateMutability": "nonpayable",
					"type": "function"
				},
				{
					"inputs": [
						{
							"internalType": "string",
							"name": "module",
							"type": "string"
						},
						{
							"internalType": "uint256",
							"name": "previousVersion",
							"type": "uint256"
						}
					],
					"name": "getImplementation",
					"outputs": [
						{
							"internalType": "address",
							"name": "",
							"type": "address"
						}
					],
					"stateMutability": "view",
					"type": "function"
				},
				{
					"inputs": [
						{
							"internalType": "string",
							"name": "module",
							"type": "string"
						}
					],
					"name": "getLatestImplementation",
					"outputs": [
						{
							"internalType": "address",
							"name": "",
							"type": "address"
						}
					],
					"stateMutability": "view",
					"type": "function"
				},
				{
					"inputs": [
						{
							"internalType": "string",
							"name": "module",
							"type": "string"
						}
					],
					"name": "getLatestVersion",
					"outputs": [
						{
							"internalType": "uint256",
							"name": "",
							"type": "uint256"
						}
					],
					"stateMutability": "view",
					"type": "function"
				},
				{
					"inputs": [],
					"name": "numberOfModules",
					"outputs": [
						{
							"internalType": "uint256",
							"name": "",
							"type": "uint256"
						}
					],
					"stateMutability": "view",
					"type": "function"
				},
				{
					"inputs": [],
					"name": "owner",
					"outputs": [
						{
							"internalType": "address",
							"name": "",
							"type": "address"
						}
					],
					"stateMutability": "view",
					"type": "function"
				},
				{
					"inputs": [],
					"name": "renounceOwnership",
					"outputs": [],
					"stateMutability": "nonpayable",
					"type": "function"
				},
				{
					"inputs": [
						{
							"internalType": "address",
							"name": "newOwner",
							"type": "address"
						}
					],
					"name": "transferOwnership",
					"outputs": [],
					"stateMutability": "nonpayable",
					"type": "function"
				},
				{
					"inputs": [
						{
							"internalType": "string",
							"name": "module",
							"type": "string"
						},
						{
							"internalType": "address",
							"name": "newImplementation",
							"type": "address"
						}
					],
					"name": "upgrade",
					"outputs": [
						{
							"internalType": "bool",
							"name": "",
							"type": "bool"
						}
					],
					"stateMutability": "nonpayable",
					"type": "function"
				}
			],
			"devdoc": {
				"kind": "dev",
				"methods": {
					"owner()": {
						"details": "Returns the address of the current owner."
					},
					"renounceOwnership()": {
						"details": "Leaves the contract without owner. It will not be possible to call `onlyOwner` functions. Can only be called by the current owner. NOTE: Renouncing ownership will leave the contract without an owner, thereby disabling any functionality that is only available to the owner."
					},
					"transferOwnership(address)": {
						"details": "Transfers ownership of the contract to a new account (`newOwner`). Can only be called by the current owner."
					}
				},
				"version": 1
			},
			"evm": {
				"assembly": "    /* \"smart_contracts/module_architecture/ModuleManager2.sol\":992:5720  contract ModuleManager is IModuleManager, Ownable {... */\n  mstore(0x40, 0x80)\n    /* \"smart_contracts/module_architecture/ModuleManager2.sol\":2729:2773  constructor(address owner) Ownable(owner) {} */\n  callvalue\n  dup1\n  iszero\n  tag_1\n  jumpi\n  0x00\n  dup1\n  revert\ntag_1:\n  pop\n  mload(0x40)\n  sub(codesize, bytecodeSize)\n  dup1\n  bytecodeSize\n  dup4\n  codecopy\n  dup2\n  dup2\n  add\n  0x40\n  mstore\n  dup2\n  add\n  swap1\n  tag_2\n  swap2\n  swap1\n  tag_3\n  jump\t// in\ntag_2:\n    /* \"smart_contracts/module_architecture/ModuleManager2.sol\":2764:2769  owner */\n  dup1\n    /* \"deps/openzeppelin/access/Ownable.sol\":957:989  _transferOwnership(initialOwner) */\n  tag_7\n    /* \"deps/openzeppelin/access/Ownable.sol\":976:988  initialOwner */\n  dup2\n    /* \"deps/openzeppelin/access/Ownable.sol\":957:975  _transferOwnership */\n  shl(0x20, tag_8)\n    /* \"deps/openzeppelin/access/Ownable.sol\":957:989  _transferOwnership(initialOwner) */\n  0x20\n  shr\n  jump\t// in\ntag_7:\n    /* \"deps/openzeppelin/access/Ownable.sol\":913:996  constructor(address initialOwner) {... */\n  pop\n    /* \"smart_contracts/module_architecture/ModuleManager2.sol\":2729:2773  constructor(address owner) Ownable(owner) {} */\n  pop\n    /* \"smart_contracts/module_architecture/ModuleManager2.sol\":992:5720  contract ModuleManager is IModuleManager, Ownable {... */\n  jump(tag_10)\n    /* \"deps/openzeppelin/access/Ownable.sol\":2447:2634  function _transferOwnership(address newOwner) internal virtual {... */\ntag_8:\n    /* \"deps/openzeppelin/access/Ownable.sol\":2520:2536  address oldOwner */\n  0x00\n    /* \"deps/openzeppelin/access/Ownable.sol\":2539:2545  _owner */\n  dup1\n  0x00\n  swap1\n  sload\n  swap1\n  0x0100\n  exp\n  swap1\n  div\n  0xffffffffffffffffffffffffffffffffffffffff\n  and\n    /* \"deps/openzeppelin/access/Ownable.sol\":2520:2545  address oldOwner = _owner */\n  swap1\n  pop\n    /* \"deps/openzeppelin/access/Ownable.sol\":2564:2572  newOwner */\n  dup2\n    /* \"deps/openzeppelin/access/Ownable.sol\":2555:2561  _owner */\n  0x00\n  dup1\n    /* \"deps/openzeppelin/access/Ownable.sol\":2555:2572  _owner = newOwner */\n  0x0100\n  exp\n  dup2\n  sload\n  dup2\n  0xffffffffffffffffffffffffffffffffffffffff\n  mul\n  not\n  and\n  swap1\n  dup4\n  0xffffffffffffffffffffffffffffffffffffffff\n  and\n  mul\n  or\n  swap1\n  sstore\n  pop\n    /* \"deps/openzeppelin/access/Ownable.sol\":2618:2626  newOwner */\n  dup2\n    /* \"deps/openzeppelin/access/Ownable.sol\":2587:2627  OwnershipTransferred(oldOwner, newOwner) */\n  0xffffffffffffffffffffffffffffffffffffffff\n  and\n    /* \"deps/openzeppelin/access/Ownable.sol\":2608:2616  oldOwner */\n  dup2\n    /* \"deps/openzeppelin/access/Ownable.sol\":2587:2627  OwnershipTransferred(oldOwner, newOwner) */\n  0xffffffffffffffffffffffffffffffffffffffff\n  and\n  0x8be0079c531659141344cd1fd0a4f28419497f9722a3daafe3b4186f6b6457e0\n  mload(0x40)\n  mload(0x40)\n  dup1\n  swap2\n  sub\n  swap1\n  log3\n    /* \"deps/openzeppelin/access/Ownable.sol\":2510:2634  {... */\n  pop\n    /* \"deps/openzeppelin/access/Ownable.sol\":2447:2634  function _transferOwnership(address newOwner) internal virtual {... */\n  pop\n  jump\t// out\n    /* \"#utility.yul\":88:205   */\ntag_13:\n    /* \"#utility.yul\":197:198   */\n  0x00\n    /* \"#utility.yul\":194:195   */\n  dup1\n    /* \"#utility.yul\":187:199   */\n  revert\n    /* \"#utility.yul\":334:460   */\ntag_15:\n    /* \"#utility.yul\":371:378   */\n  0x00\n    /* \"#utility.yul\":411:453   */\n  0xffffffffffffffffffffffffffffffffffffffff\n    /* \"#utility.yul\":404:409   */\n  dup3\n    /* \"#utility.yul\":400:454   */\n  and\n    /* \"#utility.yul\":389:454   */\n  swap1\n  pop\n    /* \"#utility.yul\":334:460   */\n  swap2\n  swap1\n  pop\n  jump\t// out\n    /* \"#utility.yul\":466:562   */\ntag_16:\n    /* \"#utility.yul\":503:510   */\n  0x00\n    /* \"#utility.yul\":532:556   */\n  tag_25\n    /* \"#utility.yul\":550:555   */\n  dup3\n    /* \"#utility.yul\":532:556   */\n  tag_15\n  jump\t// in\ntag_25:\n    /* \"#utility.yul\":521:556   */\n  swap1\n  pop\n    /* \"#utility.yul\":466:562   */\n  swap2\n  swap1\n  pop\n  jump\t// out\n    /* \"#utility.yul\":568:690   */\ntag_17:\n    /* \"#utility.yul\":641:665   */\n  tag_27\n    /* \"#utility.yul\":659:664   */\n  dup2\n    /* \"#utility.yul\":641:665   */\n  tag_16\n  jump\t// in\ntag_27:\n    /* \"#utility.yul\":634:639   */\n  dup2\n    /* \"#utility.yul\":631:666   */\n  eq\n    /* \"#utility.yul\":621:684   */\n  tag_28\n  jumpi\n    /* \"#utility.yul\":680:681   */\n  0x00\n    /* \"#utility.yul\":677:678   */\n  dup1\n    /* \"#utility.yul\":670:682   */\n  revert\n    /* \"#utility.yul\":621:684   */\ntag_28:\n    /* \"#utility.yul\":568:690   */\n  pop\n  jump\t// out\n    /* \"#utility.yul\":696:839   */\ntag_18:\n    /* \"#utility.yul\":753:758   */\n  0x00\n    /* \"#utility.yul\":784:790   */\n  dup2\n    /* \"#utility.yul\":778:791   */\n  mload\n    /* \"#utility.yul\":769:791   */\n  swap1\n  pop\n    /* \"#utility.yul\":800:833   */\n  tag_30\n    /* \"#utility.yul\":827:832   */\n  dup2\n    /* \"#utility.yul\":800:833   */\n  tag_17\n  jump\t// in\ntag_30:\n    /* \"#utility.yul\":696:839   */\n  swap3\n  swap2\n  pop\n  pop\n  jump\t// out\n    /* \"#utility.yul\":845:1196   */\ntag_3:\n    /* \"#utility.yul\":915:921   */\n  0x00\n    /* \"#utility.yul\":964:966   */\n  0x20\n    /* \"#utility.yul\":952:961   */\n  dup3\n    /* \"#utility.yul\":943:950   */\n  dup5\n    /* \"#utility.yul\":939:962   */\n  sub\n    /* \"#utility.yul\":935:967   */\n  slt\n    /* \"#utility.yul\":932:1051   */\n  iszero\n  tag_32\n  jumpi\n    /* \"#utility.yul\":970:1049   */\n  tag_33\n  tag_13\n  jump\t// in\ntag_33:\n    /* \"#utility.yul\":932:1051   */\ntag_32:\n    /* \"#utility.yul\":1090:1091   */\n  0x00\n    /* \"#utility.yul\":1115:1179   */\n  tag_34\n    /* \"#utility.yul\":1171:1178   */\n  dup5\n    /* \"#utility.yul\":1162:1168   */\n  dup3\n    /* \"#utility.yul\":1151:1160   */\n  dup6\n    /* \"#utility.yul\":1147:1169   */\n  add\n    /* \"#utility.yul\":1115:1179   */\n  tag_18\n  jump\t// in\ntag_34:\n    /* \"#utility.yul\":1105:1179   */\n  swap2\n  pop\n    /* \"#utility.yul\":1061:1189   */\n  pop\n    /* \"#utility.yul\":845:1196   */\n  swap3\n  swap2\n  pop\n  pop\n  jump\t// out\n    /* \"smart_contracts/module_architecture/ModuleManager2.sol\":992:5720  contract ModuleManager is IModuleManager, Ownable {... */\ntag_10:\n  dataSize(sub_0)\n  dup1\n  dataOffset(sub_0)\n  0x00\n  codecopy\n  0x00\n  return\nstop\n\nsub_0: assembly {\n        /* \"smart_contracts/module_architecture/ModuleManager2.sol\":992:5720  contract ModuleManager is IModuleManager, Ownable {... */\n      mstore(0x40, 0x80)\n      callvalue\n      dup1\n      iszero\n      tag_1\n      jumpi\n      0x00\n      dup1\n      revert\n    tag_1:\n      pop\n      jumpi(tag_2, lt(calldatasize, 0x04))\n      shr(0xe0, calldataload(0x00))\n      dup1\n      0xcae96761\n      gt\n      tag_12\n      jumpi\n      dup1\n      0xcae96761\n      eq\n      tag_7\n      jumpi\n      dup1\n      0xd285f839\n      eq\n      tag_8\n      jumpi\n      dup1\n      0xe8009dda\n      eq\n      tag_9\n      jumpi\n      dup1\n      0xf2fde38b\n      eq\n      tag_10\n      jumpi\n      dup1\n      0xf3f342fa\n      eq\n      tag_11\n      jumpi\n      jump(tag_2)\n    tag_12:\n      dup1\n      0x5332c74d\n      eq\n      tag_3\n      jumpi\n      dup1\n      0x715018a6\n      eq\n      tag_4\n      jumpi\n      dup1\n      0x84b47b0f\n      eq\n      tag_5\n      jumpi\n      dup1\n      0x8da5cb5b\n      eq\n      tag_6\n      jumpi\n    tag_2:\n      0x00\n      dup1\n      revert\n        /* \"smart_contracts/module_architecture/ModuleManager2.sol\":4778:5053  function upgrade(... */\n    tag_3:\n      tag_13\n      0x04\n      dup1\n      calldatasize\n      sub\n      dup2\n      add\n      swap1\n      tag_14\n      swap2\n      swap1\n      tag_15\n      jump\t// in\n    tag_14:\n      tag_16\n      jump\t// in\n    tag_13:\n      mload(0x40)\n      tag_17\n      swap2\n      swap1\n      tag_18\n      jump\t// in\n    tag_17:\n      mload(0x40)\n      dup1\n      swap2\n      sub\n      swap1\n      return\n        /* \"deps/openzeppelin/access/Ownable.sol\":1845:1946  function renounceOwnership() public virtual onlyOwner {... */\n    tag_4:\n      tag_19\n      tag_20\n      jump\t// in\n    tag_19:\n      stop\n        /* \"smart_contracts/module_architecture/ModuleManager2.sol\":4493:4772  function create(... */\n    tag_5:\n      tag_21\n      0x04\n      dup1\n      calldatasize\n      sub\n      dup2\n      add\n      swap1\n      tag_22\n      swap2\n      swap1\n      tag_15\n      jump\t// in\n    tag_22:\n      tag_23\n      jump\t// in\n    tag_21:\n      mload(0x40)\n      tag_24\n      swap2\n      swap1\n      tag_18\n      jump\t// in\n    tag_24:\n      mload(0x40)\n      dup1\n      swap2\n      sub\n      swap1\n      return\n        /* \"deps/openzeppelin/access/Ownable.sol\":1222:1307  function owner() public view virtual returns (address) {... */\n    tag_6:\n      tag_25\n      tag_26\n      jump\t// in\n    tag_25:\n      mload(0x40)\n      tag_27\n      swap2\n      swap1\n      tag_28\n      jump\t// in\n    tag_27:\n      mload(0x40)\n      dup1\n      swap2\n      sub\n      swap1\n      return\n        /* \"smart_contracts/module_architecture/ModuleManager2.sol\":5081:5209  function getLatestVersion(string memory module)... */\n    tag_7:\n      tag_29\n      0x04\n      dup1\n      calldatasize\n      sub\n      dup2\n      add\n      swap1\n      tag_30\n      swap2\n      swap1\n      tag_31\n      jump\t// in\n    tag_30:\n      tag_32\n      jump\t// in\n    tag_29:\n      mload(0x40)\n      tag_33\n      swap2\n      swap1\n      tag_34\n      jump\t// in\n    tag_33:\n      mload(0x40)\n      dup1\n      swap2\n      sub\n      swap1\n      return\n        /* \"smart_contracts/module_architecture/ModuleManager2.sol\":5215:5423  function getLatestImplementation(string memory module)... */\n    tag_8:\n      tag_35\n      0x04\n      dup1\n      calldatasize\n      sub\n      dup2\n      add\n      swap1\n      tag_36\n      swap2\n      swap1\n      tag_31\n      jump\t// in\n    tag_36:\n      tag_37\n      jump\t// in\n    tag_35:\n      mload(0x40)\n      tag_38\n      swap2\n      swap1\n      tag_28\n      jump\t// in\n    tag_38:\n      mload(0x40)\n      dup1\n      swap2\n      sub\n      swap1\n      return\n        /* \"smart_contracts/module_architecture/ModuleManager2.sol\":5429:5718  function getImplementation(... */\n    tag_9:\n      tag_39\n      0x04\n      dup1\n      calldatasize\n      sub\n      dup2\n      add\n      swap1\n      tag_40\n      swap2\n      swap1\n      tag_41\n      jump\t// in\n    tag_40:\n      tag_42\n      jump\t// in\n    tag_39:\n      mload(0x40)\n      tag_43\n      swap2\n      swap1\n      tag_28\n      jump\t// in\n    tag_43:\n      mload(0x40)\n      dup1\n      swap2\n      sub\n      swap1\n      return\n        /* \"deps/openzeppelin/access/Ownable.sol\":2095:2293  function transferOwnership(address newOwner) public virtual onlyOwner {... */\n    tag_10:\n      tag_44\n      0x04\n      dup1\n      calldatasize\n      sub\n      dup2\n      add\n      swap1\n      tag_45\n      swap2\n      swap1\n      tag_46\n      jump\t// in\n    tag_45:\n      tag_47\n      jump\t// in\n    tag_44:\n      stop\n        /* \"smart_contracts/module_architecture/ModuleManager2.sol\":1102:1129  uint public numberOfModules */\n    tag_11:\n      tag_48\n      tag_49\n      jump\t// in\n    tag_48:\n      mload(0x40)\n      tag_50\n      swap2\n      swap1\n      tag_34\n      jump\t// in\n    tag_50:\n      mload(0x40)\n      dup1\n      swap2\n      sub\n      swap1\n      return\n        /* \"smart_contracts/module_architecture/ModuleManager2.sol\":4778:5053  function upgrade(... */\n    tag_16:\n        /* \"smart_contracts/module_architecture/ModuleManager2.sol\":4892:4896  bool */\n      0x00\n        /* \"deps/openzeppelin/access/Ownable.sol\":1115:1128  _checkOwner() */\n      tag_52\n        /* \"deps/openzeppelin/access/Ownable.sol\":1115:1126  _checkOwner */\n      tag_53\n        /* \"deps/openzeppelin/access/Ownable.sol\":1115:1128  _checkOwner() */\n      jump\t// in\n    tag_52:\n        /* \"smart_contracts/module_architecture/ModuleManager2.sol\":4976:5046  _upgrade(... */\n      tag_55\n        /* \"smart_contracts/module_architecture/ModuleManager2.sol\":4998:5004  module */\n      dup4\n        /* \"smart_contracts/module_architecture/ModuleManager2.sol\":5019:5036  newImplementation */\n      dup4\n        /* \"smart_contracts/module_architecture/ModuleManager2.sol\":4976:4984  _upgrade */\n      tag_56\n        /* \"smart_contracts/module_architecture/ModuleManager2.sol\":4976:5046  _upgrade(... */\n      jump\t// in\n    tag_55:\n        /* \"smart_contracts/module_architecture/ModuleManager2.sol\":4969:5046  return _upgrade(... */\n      swap1\n      pop\n        /* \"smart_contracts/module_architecture/ModuleManager2.sol\":4778:5053  function upgrade(... */\n      swap3\n      swap2\n      pop\n      pop\n      jump\t// out\n        /* \"deps/openzeppelin/access/Ownable.sol\":1845:1946  function renounceOwnership() public virtual onlyOwner {... */\n    tag_20:\n        /* \"deps/openzeppelin/access/Ownable.sol\":1115:1128  _checkOwner() */\n      tag_58\n        /* \"deps/openzeppelin/access/Ownable.sol\":1115:1126  _checkOwner */\n      tag_53\n        /* \"deps/openzeppelin/access/Ownable.sol\":1115:1128  _checkOwner() */\n      jump\t// in\n    tag_58:\n        /* \"deps/openzeppelin/access/Ownable.sol\":1909:1939  _transferOwnership(address(0)) */\n      tag_60\n        /* \"deps/openzeppelin/access/Ownable.sol\":1936:1937  0 */\n      0x00\n        /* \"deps/openzeppelin/access/Ownable.sol\":1909:1927  _transferOwnership */\n      tag_61\n        /* \"deps/openzeppelin/access/Ownable.sol\":1909:1939  _transferOwnership(address(0)) */\n      jump\t// in\n    tag_60:\n        /* \"deps/openzeppelin/access/Ownable.sol\":1845:1946  function renounceOwnership() public virtual onlyOwner {... */\n      jump\t// out\n        /* \"smart_contracts/module_architecture/ModuleManager2.sol\":4493:4772  function create(... */\n    tag_23:\n        /* \"smart_contracts/module_architecture/ModuleManager2.sol\":4609:4613  bool */\n      0x00\n        /* \"deps/openzeppelin/access/Ownable.sol\":1115:1128  _checkOwner() */\n      tag_63\n        /* \"deps/openzeppelin/access/Ownable.sol\":1115:1126  _checkOwner */\n      tag_53\n        /* \"deps/openzeppelin/access/Ownable.sol\":1115:1128  _checkOwner() */\n      jump\t// in\n    tag_63:\n        /* \"smart_contracts/module_architecture/ModuleManager2.sol\":4693:4765  _create(... */\n      tag_65\n        /* \"smart_contracts/module_architecture/ModuleManager2.sol\":4714:4723  newModule */\n      dup4\n        /* \"smart_contracts/module_architecture/ModuleManager2.sol\":4738:4755  newImplementation */\n      dup4\n        /* \"smart_contracts/module_architecture/ModuleManager2.sol\":4693:4700  _create */\n      tag_66\n        /* \"smart_contracts/module_architecture/ModuleManager2.sol\":4693:4765  _create(... */\n      jump\t// in\n    tag_65:\n        /* \"smart_contracts/module_architecture/ModuleManager2.sol\":4686:4765  return _create(... */\n      swap1\n      pop\n        /* \"smart_contracts/module_architecture/ModuleManager2.sol\":4493:4772  function create(... */\n      swap3\n      swap2\n      pop\n      pop\n      jump\t// out\n        /* \"deps/openzeppelin/access/Ownable.sol\":1222:1307  function owner() public view virtual returns (address) {... */\n    tag_26:\n        /* \"deps/openzeppelin/access/Ownable.sol\":1268:1275  address */\n      0x00\n        /* \"deps/openzeppelin/access/Ownable.sol\":1294:1300  _owner */\n      dup1\n      0x00\n      swap1\n      sload\n      swap1\n      0x0100\n      exp\n      swap1\n      div\n      0xffffffffffffffffffffffffffffffffffffffff\n      and\n        /* \"deps/openzeppelin/access/Ownable.sol\":1287:1300  return _owner */\n      swap1\n      pop\n        /* \"deps/openzeppelin/access/Ownable.sol\":1222:1307  function owner() public view virtual returns (address) {... */\n      swap1\n      jump\t// out\n        /* \"smart_contracts/module_architecture/ModuleManager2.sol\":5081:5209  function getLatestVersion(string memory module)... */\n    tag_32:\n        /* \"smart_contracts/module_architecture/ModuleManager2.sol\":5154:5158  uint */\n      0x00\n        /* \"smart_contracts/module_architecture/ModuleManager2.sol\":5177:5202  _getLatestVersion(module) */\n      tag_69\n        /* \"smart_contracts/module_architecture/ModuleManager2.sol\":5195:5201  module */\n      dup3\n        /* \"smart_contracts/module_architecture/ModuleManager2.sol\":5177:5194  _getLatestVersion */\n      tag_70\n        /* \"smart_contracts/module_architecture/ModuleManager2.sol\":5177:5202  _getLatestVersion(module) */\n      jump\t// in\n    tag_69:\n        /* \"smart_contracts/module_architecture/ModuleManager2.sol\":5170:5202  return _getLatestVersion(module) */\n      swap1\n      pop\n        /* \"smart_contracts/module_architecture/ModuleManager2.sol\":5081:5209  function getLatestVersion(string memory module)... */\n      swap2\n      swap1\n      pop\n      jump\t// out\n        /* \"smart_contracts/module_architecture/ModuleManager2.sol\":5215:5423  function getLatestImplementation(string memory module)... */\n    tag_37:\n        /* \"smart_contracts/module_architecture/ModuleManager2.sol\":5295:5302  address */\n      0x00\n        /* \"smart_contracts/module_architecture/ModuleManager2.sol\":5384:5416  _getLatestImplementation(module) */\n      tag_72\n        /* \"smart_contracts/module_architecture/ModuleManager2.sol\":5409:5415  module */\n      dup3\n        /* \"smart_contracts/module_architecture/ModuleManager2.sol\":5384:5408  _getLatestImplementation */\n      tag_73\n        /* \"smart_contracts/module_architecture/ModuleManager2.sol\":5384:5416  _getLatestImplementation(module) */\n      jump\t// in\n    tag_72:\n        /* \"smart_contracts/module_architecture/ModuleManager2.sol\":5377:5416  return _getLatestImplementation(module) */\n      swap1\n      pop\n        /* \"smart_contracts/module_architecture/ModuleManager2.sol\":5215:5423  function getLatestImplementation(string memory module)... */\n      swap2\n      swap1\n      pop\n      jump\t// out\n        /* \"smart_contracts/module_architecture/ModuleManager2.sol\":5429:5718  function getImplementation(... */\n    tag_42:\n        /* \"smart_contracts/module_architecture/ModuleManager2.sol\":5543:5550  address */\n      0x00\n        /* \"smart_contracts/module_architecture/ModuleManager2.sol\":5633:5711  _getImplementation(... */\n      tag_75\n        /* \"smart_contracts/module_architecture/ModuleManager2.sol\":5665:5671  module */\n      dup4\n        /* \"smart_contracts/module_architecture/ModuleManager2.sol\":5686:5701  previousVersion */\n      dup4\n        /* \"smart_contracts/module_architecture/ModuleManager2.sol\":5633:5651  _getImplementation */\n      tag_76\n        /* \"smart_contracts/module_architecture/ModuleManager2.sol\":5633:5711  _getImplementation(... */\n      jump\t// in\n    tag_75:\n        /* \"smart_contracts/module_architecture/ModuleManager2.sol\":5626:5711  return _getImplementation(... */\n      swap1\n      pop\n        /* \"smart_contracts/module_architecture/ModuleManager2.sol\":5429:5718  function getImplementation(... */\n      swap3\n      swap2\n      pop\n      pop\n      jump\t// out\n        /* \"deps/openzeppelin/access/Ownable.sol\":2095:2293  function transferOwnership(address newOwner) public virtual onlyOwner {... */\n    tag_47:\n        /* \"deps/openzeppelin/access/Ownable.sol\":1115:1128  _checkOwner() */\n      tag_78\n        /* \"deps/openzeppelin/access/Ownable.sol\":1115:1126  _checkOwner */\n      tag_53\n        /* \"deps/openzeppelin/access/Ownable.sol\":1115:1128  _checkOwner() */\n      jump\t// in\n    tag_78:\n        /* \"deps/openzeppelin/access/Ownable.sol\":2203:2204  0 */\n      0x00\n        /* \"deps/openzeppelin/access/Ownable.sol\":2183:2205  newOwner != address(0) */\n      0xffffffffffffffffffffffffffffffffffffffff\n      and\n        /* \"deps/openzeppelin/access/Ownable.sol\":2183:2191  newOwner */\n      dup2\n        /* \"deps/openzeppelin/access/Ownable.sol\":2183:2205  newOwner != address(0) */\n      0xffffffffffffffffffffffffffffffffffffffff\n      and\n      sub\n        /* \"deps/openzeppelin/access/Ownable.sol\":2175:2248  require(newOwner != address(0), \"Ownable: new owner is the zero address\") */\n      tag_80\n      jumpi\n      mload(0x40)\n      0x08c379a000000000000000000000000000000000000000000000000000000000\n      dup2\n      mstore\n      0x04\n      add\n      tag_81\n      swap1\n      tag_82\n      jump\t// in\n    tag_81:\n      mload(0x40)\n      dup1\n      swap2\n      sub\n      swap1\n      revert\n    tag_80:\n        /* \"deps/openzeppelin/access/Ownable.sol\":2258:2286  _transferOwnership(newOwner) */\n      tag_83\n        /* \"deps/openzeppelin/access/Ownable.sol\":2277:2285  newOwner */\n      dup2\n        /* \"deps/openzeppelin/access/Ownable.sol\":2258:2276  _transferOwnership */\n      tag_61\n        /* \"deps/openzeppelin/access/Ownable.sol\":2258:2286  _transferOwnership(newOwner) */\n      jump\t// in\n    tag_83:\n        /* \"deps/openzeppelin/access/Ownable.sol\":2095:2293  function transferOwnership(address newOwner) public virtual onlyOwner {... */\n      pop\n      jump\t// out\n        /* \"smart_contracts/module_architecture/ModuleManager2.sol\":1102:1129  uint public numberOfModules */\n    tag_49:\n      sload(0x01)\n      dup2\n      jump\t// out\n        /* \"deps/openzeppelin/access/Ownable.sol\":1380:1510  function _checkOwner() internal view virtual {... */\n    tag_53:\n        /* \"deps/openzeppelin/access/Ownable.sol\":1454:1466  _msgSender() */\n      tag_85\n        /* \"deps/openzeppelin/access/Ownable.sol\":1454:1464  _msgSender */\n      tag_86\n        /* \"deps/openzeppelin/access/Ownable.sol\":1454:1466  _msgSender() */\n      jump\t// in\n    tag_85:\n        /* \"deps/openzeppelin/access/Ownable.sol\":1443:1466  owner() == _msgSender() */\n      0xffffffffffffffffffffffffffffffffffffffff\n      and\n        /* \"deps/openzeppelin/access/Ownable.sol\":1443:1450  owner() */\n      tag_87\n        /* \"deps/openzeppelin/access/Ownable.sol\":1443:1448  owner */\n      tag_26\n        /* \"deps/openzeppelin/access/Ownable.sol\":1443:1450  owner() */\n      jump\t// in\n    tag_87:\n        /* \"deps/openzeppelin/access/Ownable.sol\":1443:1466  owner() == _msgSender() */\n      0xffffffffffffffffffffffffffffffffffffffff\n      and\n      eq\n        /* \"deps/openzeppelin/access/Ownable.sol\":1435:1503  require(owner() == _msgSender(), \"Ownable: caller is not the owner\") */\n      tag_88\n      jumpi\n      mload(0x40)\n      0x08c379a000000000000000000000000000000000000000000000000000000000\n      dup2\n      mstore\n      0x04\n      add\n      tag_89\n      swap1\n      tag_90\n      jump\t// in\n    tag_89:\n      mload(0x40)\n      dup1\n      swap2\n      sub\n      swap1\n      revert\n    tag_88:\n        /* \"deps/openzeppelin/access/Ownable.sol\":1380:1510  function _checkOwner() internal view virtual {... */\n      jump\t// out\n        /* \"smart_contracts/module_architecture/ModuleManager2.sol\":4075:4464  function _upgrade(... */\n    tag_56:\n        /* \"smart_contracts/module_architecture/ModuleManager2.sol\":4232:4236  bool */\n      0x00\n        /* \"smart_contracts/module_architecture/ModuleManager2.sol\":4211:4217  module */\n      dup3\n        /* \"smart_contracts/module_architecture/ModuleManager2.sol\":1688:1689  0 */\n      0x00\n        /* \"smart_contracts/module_architecture/ModuleManager2.sol\":1652:1685  _implementations[module].length() */\n      tag_92\n        /* \"smart_contracts/module_architecture/ModuleManager2.sol\":1652:1668  _implementations */\n      0x02\n        /* \"smart_contracts/module_architecture/ModuleManager2.sol\":1669:1675  module */\n      dup4\n        /* \"smart_contracts/module_architecture/ModuleManager2.sol\":1652:1676  _implementations[module] */\n      mload(0x40)\n      tag_93\n      swap2\n      swap1\n      tag_94\n      jump\t// in\n    tag_93:\n      swap1\n      dup2\n      mstore\n      0x20\n      add\n      mload(0x40)\n      dup1\n      swap2\n      sub\n      swap1\n      keccak256\n        /* \"smart_contracts/module_architecture/ModuleManager2.sol\":1652:1683  _implementations[module].length */\n      tag_95\n        /* \"smart_contracts/module_architecture/ModuleManager2.sol\":1652:1685  _implementations[module].length() */\n      jump\t// in\n    tag_92:\n        /* \"smart_contracts/module_architecture/ModuleManager2.sol\":1652:1689  _implementations[module].length() > 0 */\n      gt\n        /* \"smart_contracts/module_architecture/ModuleManager2.sol\":1631:1738  require(... */\n      tag_96\n      jumpi\n      mload(0x40)\n      0x08c379a000000000000000000000000000000000000000000000000000000000\n      dup2\n      mstore\n      0x04\n      add\n      tag_97\n      swap1\n      tag_98\n      jump\t// in\n    tag_97:\n      mload(0x40)\n      dup1\n      swap2\n      sub\n      swap1\n      revert\n    tag_96:\n        /* \"smart_contracts/module_architecture/ModuleManager2.sol\":4296:4343  _implementations[module].add(newImplementation) */\n      tag_100\n        /* \"smart_contracts/module_architecture/ModuleManager2.sol\":4325:4342  newImplementation */\n      dup4\n        /* \"smart_contracts/module_architecture/ModuleManager2.sol\":4296:4312  _implementations */\n      0x02\n        /* \"smart_contracts/module_architecture/ModuleManager2.sol\":4313:4319  module */\n      dup7\n        /* \"smart_contracts/module_architecture/ModuleManager2.sol\":4296:4320  _implementations[module] */\n      mload(0x40)\n      tag_101\n      swap2\n      swap1\n      tag_94\n      jump\t// in\n    tag_101:\n      swap1\n      dup2\n      mstore\n      0x20\n      add\n      mload(0x40)\n      dup1\n      swap2\n      sub\n      swap1\n      keccak256\n        /* \"smart_contracts/module_architecture/ModuleManager2.sol\":4296:4324  _implementations[module].add */\n      tag_102\n      swap1\n        /* \"smart_contracts/module_architecture/ModuleManager2.sol\":4296:4343  _implementations[module].add(newImplementation) */\n      swap2\n      swap1\n      0xffffffff\n      and\n      jump\t// in\n    tag_100:\n      pop\n        /* \"smart_contracts/module_architecture/ModuleManager2.sol\":4408:4425  newImplementation */\n      dup3\n        /* \"smart_contracts/module_architecture/ModuleManager2.sol\":4359:4435  ModuleUpgraded(... */\n      0xffffffffffffffffffffffffffffffffffffffff\n      and\n        /* \"smart_contracts/module_architecture/ModuleManager2.sol\":4387:4393  module */\n      dup5\n        /* \"smart_contracts/module_architecture/ModuleManager2.sol\":4359:4435  ModuleUpgraded(... */\n      mload(0x40)\n      tag_103\n      swap2\n      swap1\n      tag_94\n      jump\t// in\n    tag_103:\n      mload(0x40)\n      dup1\n      swap2\n      sub\n      swap1\n      keccak256\n      0x1f13caeb007f29cd5fc6f97bcff68492c71932a30b875a50bd24a06f71b719bd\n      mload(0x40)\n      mload(0x40)\n      dup1\n      swap2\n      sub\n      swap1\n      log3\n        /* \"smart_contracts/module_architecture/ModuleManager2.sol\":4453:4457  true */\n      0x01\n        /* \"smart_contracts/module_architecture/ModuleManager2.sol\":4446:4457  return true */\n      swap2\n      pop\n        /* \"smart_contracts/module_architecture/ModuleManager2.sol\":4075:4464  function _upgrade(... */\n      pop\n      swap3\n      swap2\n      pop\n      pop\n      jump\t// out\n        /* \"deps/openzeppelin/access/Ownable.sol\":2447:2634  function _transferOwnership(address newOwner) internal virtual {... */\n    tag_61:\n        /* \"deps/openzeppelin/access/Ownable.sol\":2520:2536  address oldOwner */\n      0x00\n        /* \"deps/openzeppelin/access/Ownable.sol\":2539:2545  _owner */\n      dup1\n      0x00\n      swap1\n      sload\n      swap1\n      0x0100\n      exp\n      swap1\n      div\n      0xffffffffffffffffffffffffffffffffffffffff\n      and\n        /* \"deps/openzeppelin/access/Ownable.sol\":2520:2545  address oldOwner = _owner */\n      swap1\n      pop\n        /* \"deps/openzeppelin/access/Ownable.sol\":2564:2572  newOwner */\n      dup2\n        /* \"deps/openzeppelin/access/Ownable.sol\":2555:2561  _owner */\n      0x00\n      dup1\n        /* \"deps/openzeppelin/access/Ownable.sol\":2555:2572  _owner = newOwner */\n      0x0100\n      exp\n      dup2\n      sload\n      dup2\n      0xffffffffffffffffffffffffffffffffffffffff\n      mul\n      not\n      and\n      swap1\n      dup4\n      0xffffffffffffffffffffffffffffffffffffffff\n      and\n      mul\n      or\n      swap1\n      sstore\n      pop\n        /* \"deps/openzeppelin/access/Ownable.sol\":2618:2626  newOwner */\n      dup2\n        /* \"deps/openzeppelin/access/Ownable.sol\":2587:2627  OwnershipTransferred(oldOwner, newOwner) */\n      0xffffffffffffffffffffffffffffffffffffffff\n      and\n        /* \"deps/openzeppelin/access/Ownable.sol\":2608:2616  oldOwner */\n      dup2\n        /* \"deps/openzeppelin/access/Ownable.sol\":2587:2627  OwnershipTransferred(oldOwner, newOwner) */\n      0xffffffffffffffffffffffffffffffffffffffff\n      and\n      0x8be0079c531659141344cd1fd0a4f28419497f9722a3daafe3b4186f6b6457e0\n      mload(0x40)\n      mload(0x40)\n      dup1\n      swap2\n      sub\n      swap1\n      log3\n        /* \"deps/openzeppelin/access/Ownable.sol\":2510:2634  {... */\n      pop\n        /* \"deps/openzeppelin/access/Ownable.sol\":2447:2634  function _transferOwnership(address newOwner) internal virtual {... */\n      pop\n      jump\t// out\n        /* \"smart_contracts/module_architecture/ModuleManager2.sol\":3637:4069  function _create(... */\n    tag_66:\n        /* \"smart_contracts/module_architecture/ModuleManager2.sol\":3802:3806  bool */\n      0x00\n        /* \"smart_contracts/module_architecture/ModuleManager2.sol\":3777:3786  newModule */\n      dup3\n        /* \"smart_contracts/module_architecture/ModuleManager2.sol\":1431:1432  1 */\n      0x01\n        /* \"smart_contracts/module_architecture/ModuleManager2.sol\":1395:1428  _implementations[module].length() */\n      tag_106\n        /* \"smart_contracts/module_architecture/ModuleManager2.sol\":1395:1411  _implementations */\n      0x02\n        /* \"smart_contracts/module_architecture/ModuleManager2.sol\":1412:1418  module */\n      dup4\n        /* \"smart_contracts/module_architecture/ModuleManager2.sol\":1395:1419  _implementations[module] */\n      mload(0x40)\n      tag_107\n      swap2\n      swap1\n      tag_94\n      jump\t// in\n    tag_107:\n      swap1\n      dup2\n      mstore\n      0x20\n      add\n      mload(0x40)\n      dup1\n      swap2\n      sub\n      swap1\n      keccak256\n        /* \"smart_contracts/module_architecture/ModuleManager2.sol\":1395:1426  _implementations[module].length */\n      tag_95\n        /* \"smart_contracts/module_architecture/ModuleManager2.sol\":1395:1428  _implementations[module].length() */\n      jump\t// in\n    tag_106:\n        /* \"smart_contracts/module_architecture/ModuleManager2.sol\":1395:1432  _implementations[module].length() < 1 */\n      lt\n        /* \"smart_contracts/module_architecture/ModuleManager2.sol\":1374:1477  require(... */\n      tag_108\n      jumpi\n      mload(0x40)\n      0x08c379a000000000000000000000000000000000000000000000000000000000\n      dup2\n      mstore\n      0x04\n      add\n      tag_109\n      swap1\n      tag_110\n      jump\t// in\n    tag_109:\n      mload(0x40)\n      dup1\n      swap2\n      sub\n      swap1\n      revert\n    tag_108:\n        /* \"smart_contracts/module_architecture/ModuleManager2.sol\":3885:3886  1 */\n      0x01\n        /* \"smart_contracts/module_architecture/ModuleManager2.sol\":3866:3881  numberOfModules */\n      dup1\n      0x00\n        /* \"smart_contracts/module_architecture/ModuleManager2.sol\":3866:3886  numberOfModules += 1 */\n      dup3\n      dup3\n      sload\n      tag_112\n      swap2\n      swap1\n      tag_113\n      jump\t// in\n    tag_112:\n      swap3\n      pop\n      pop\n      dup2\n      swap1\n      sstore\n      pop\n        /* \"smart_contracts/module_architecture/ModuleManager2.sol\":3896:3946  _implementations[newModule].add(newImplementation) */\n      tag_114\n        /* \"smart_contracts/module_architecture/ModuleManager2.sol\":3928:3945  newImplementation */\n      dup4\n        /* \"smart_contracts/module_architecture/ModuleManager2.sol\":3896:3912  _implementations */\n      0x02\n        /* \"smart_contracts/module_architecture/ModuleManager2.sol\":3913:3922  newModule */\n      dup7\n        /* \"smart_contracts/module_architecture/ModuleManager2.sol\":3896:3923  _implementations[newModule] */\n      mload(0x40)\n      tag_115\n      swap2\n      swap1\n      tag_94\n      jump\t// in\n    tag_115:\n      swap1\n      dup2\n      mstore\n      0x20\n      add\n      mload(0x40)\n      dup1\n      swap2\n      sub\n      swap1\n      keccak256\n        /* \"smart_contracts/module_architecture/ModuleManager2.sol\":3896:3927  _implementations[newModule].add */\n      tag_102\n      swap1\n        /* \"smart_contracts/module_architecture/ModuleManager2.sol\":3896:3946  _implementations[newModule].add(newImplementation) */\n      swap2\n      swap1\n      0xffffffff\n      and\n      jump\t// in\n    tag_114:\n      pop\n        /* \"smart_contracts/module_architecture/ModuleManager2.sol\":4013:4030  newImplementation */\n      dup3\n        /* \"smart_contracts/module_architecture/ModuleManager2.sol\":3962:4040  ModuleCreated(... */\n      0xffffffffffffffffffffffffffffffffffffffff\n      and\n        /* \"smart_contracts/module_architecture/ModuleManager2.sol\":3989:3998  newModule */\n      dup5\n        /* \"smart_contracts/module_architecture/ModuleManager2.sol\":3962:4040  ModuleCreated(... */\n      mload(0x40)\n      tag_116\n      swap2\n      swap1\n      tag_94\n      jump\t// in\n    tag_116:\n      mload(0x40)\n      dup1\n      swap2\n      sub\n      swap1\n      keccak256\n      0x5c4c07a550b4bd2216246c5553ec40f10ac1d74f9fac670b6505f0757f08f996\n      mload(0x40)\n      mload(0x40)\n      dup1\n      swap2\n      sub\n      swap1\n      log3\n        /* \"smart_contracts/module_architecture/ModuleManager2.sol\":4058:4062  true */\n      0x01\n        /* \"smart_contracts/module_architecture/ModuleManager2.sol\":4051:4062  return true */\n      swap2\n      pop\n        /* \"smart_contracts/module_architecture/ModuleManager2.sol\":3637:4069  function _create(... */\n      pop\n      swap3\n      swap2\n      pop\n      pop\n      jump\t// out\n        /* \"smart_contracts/module_architecture/ModuleManager2.sol\":2779:2981  function _getLatestVersion(string memory module)... */\n    tag_70:\n        /* \"smart_contracts/module_architecture/ModuleManager2.sol\":2863:2867  uint */\n      0x00\n        /* \"smart_contracts/module_architecture/ModuleManager2.sol\":2973:2974  1 */\n      0x01\n        /* \"smart_contracts/module_architecture/ModuleManager2.sol\":2937:2970  _implementations[module].length() */\n      tag_118\n        /* \"smart_contracts/module_architecture/ModuleManager2.sol\":2937:2953  _implementations */\n      0x02\n        /* \"smart_contracts/module_architecture/ModuleManager2.sol\":2954:2960  module */\n      dup5\n        /* \"smart_contracts/module_architecture/ModuleManager2.sol\":2937:2961  _implementations[module] */\n      mload(0x40)\n      tag_119\n      swap2\n      swap1\n      tag_94\n      jump\t// in\n    tag_119:\n      swap1\n      dup2\n      mstore\n      0x20\n      add\n      mload(0x40)\n      dup1\n      swap2\n      sub\n      swap1\n      keccak256\n        /* \"smart_contracts/module_architecture/ModuleManager2.sol\":2937:2968  _implementations[module].length */\n      tag_95\n        /* \"smart_contracts/module_architecture/ModuleManager2.sol\":2937:2970  _implementations[module].length() */\n      jump\t// in\n    tag_118:\n        /* \"smart_contracts/module_architecture/ModuleManager2.sol\":2937:2974  _implementations[module].length() - 1 */\n      tag_120\n      swap2\n      swap1\n      tag_121\n      jump\t// in\n    tag_120:\n        /* \"smart_contracts/module_architecture/ModuleManager2.sol\":2930:2974  return _implementations[module].length() - 1 */\n      swap1\n      pop\n        /* \"smart_contracts/module_architecture/ModuleManager2.sol\":2779:2981  function _getLatestVersion(string memory module)... */\n      swap2\n      swap1\n      pop\n      jump\t// out\n        /* \"smart_contracts/module_architecture/ModuleManager2.sol\":2987:3275  function _getLatestImplementation(string memory module)... */\n    tag_73:\n        /* \"smart_contracts/module_architecture/ModuleManager2.sol\":3078:3085  address */\n      0x00\n        /* \"smart_contracts/module_architecture/ModuleManager2.sol\":3163:3181  uint latestVersion */\n      dup1\n        /* \"smart_contracts/module_architecture/ModuleManager2.sol\":3184:3209  _getLatestVersion(module) */\n      tag_123\n        /* \"smart_contracts/module_architecture/ModuleManager2.sol\":3202:3208  module */\n      dup4\n        /* \"smart_contracts/module_architecture/ModuleManager2.sol\":3184:3201  _getLatestVersion */\n      tag_70\n        /* \"smart_contracts/module_architecture/ModuleManager2.sol\":3184:3209  _getLatestVersion(module) */\n      jump\t// in\n    tag_123:\n        /* \"smart_contracts/module_architecture/ModuleManager2.sol\":3163:3209  uint latestVersion = _getLatestVersion(module) */\n      swap1\n      pop\n        /* \"smart_contracts/module_architecture/ModuleManager2.sol\":3226:3268  _implementations[module].at(latestVersion) */\n      tag_124\n        /* \"smart_contracts/module_architecture/ModuleManager2.sol\":3254:3267  latestVersion */\n      dup2\n        /* \"smart_contracts/module_architecture/ModuleManager2.sol\":3226:3242  _implementations */\n      0x02\n        /* \"smart_contracts/module_architecture/ModuleManager2.sol\":3243:3249  module */\n      dup6\n        /* \"smart_contracts/module_architecture/ModuleManager2.sol\":3226:3250  _implementations[module] */\n      mload(0x40)\n      tag_125\n      swap2\n      swap1\n      tag_94\n      jump\t// in\n    tag_125:\n      swap1\n      dup2\n      mstore\n      0x20\n      add\n      mload(0x40)\n      dup1\n      swap2\n      sub\n      swap1\n      keccak256\n        /* \"smart_contracts/module_architecture/ModuleManager2.sol\":3226:3253  _implementations[module].at */\n      tag_126\n      swap1\n        /* \"smart_contracts/module_architecture/ModuleManager2.sol\":3226:3268  _implementations[module].at(latestVersion) */\n      swap2\n      swap1\n      0xffffffff\n      and\n      jump\t// in\n    tag_124:\n        /* \"smart_contracts/module_architecture/ModuleManager2.sol\":3219:3268  return _implementations[module].at(latestVersion) */\n      swap2\n      pop\n      pop\n        /* \"smart_contracts/module_architecture/ModuleManager2.sol\":2987:3275  function _getLatestImplementation(string memory module)... */\n      swap2\n      swap1\n      pop\n      jump\t// out\n        /* \"smart_contracts/module_architecture/ModuleManager2.sol\":3281:3631  function _getImplementation(... */\n    tag_76:\n        /* \"smart_contracts/module_architecture/ModuleManager2.sol\":3485:3492  address */\n      0x00\n        /* \"smart_contracts/module_architecture/ModuleManager2.sol\":3437:3443  module */\n      dup3\n        /* \"smart_contracts/module_architecture/ModuleManager2.sol\":3454:3469  previousVersion */\n      dup3\n        /* \"smart_contracts/module_architecture/ModuleManager2.sol\":2276:2301  _getLatestVersion(module) */\n      tag_128\n        /* \"smart_contracts/module_architecture/ModuleManager2.sol\":2294:2300  module */\n      dup3\n        /* \"smart_contracts/module_architecture/ModuleManager2.sol\":2276:2293  _getLatestVersion */\n      tag_70\n        /* \"smart_contracts/module_architecture/ModuleManager2.sol\":2276:2301  _getLatestVersion(module) */\n      jump\t// in\n    tag_128:\n        /* \"smart_contracts/module_architecture/ModuleManager2.sol\":2265:2272  version */\n      dup2\n        /* \"smart_contracts/module_architecture/ModuleManager2.sol\":2265:2301  version <= _getLatestVersion(module) */\n      gt\n      iszero\n        /* \"smart_contracts/module_architecture/ModuleManager2.sol\":2244:2351  require(... */\n      tag_129\n      jumpi\n      mload(0x40)\n      0x08c379a000000000000000000000000000000000000000000000000000000000\n      dup2\n      mstore\n      0x04\n      add\n      tag_130\n      swap1\n      tag_131\n      jump\t// in\n    tag_130:\n      mload(0x40)\n      dup1\n      swap2\n      sub\n      swap1\n      revert\n    tag_129:\n        /* \"smart_contracts/module_architecture/ModuleManager2.sol\":3580:3624  _implementations[module].at(previousVersion) */\n      tag_133\n        /* \"smart_contracts/module_architecture/ModuleManager2.sol\":3608:3623  previousVersion */\n      dup5\n        /* \"smart_contracts/module_architecture/ModuleManager2.sol\":3580:3596  _implementations */\n      0x02\n        /* \"smart_contracts/module_architecture/ModuleManager2.sol\":3597:3603  module */\n      dup8\n        /* \"smart_contracts/module_architecture/ModuleManager2.sol\":3580:3604  _implementations[module] */\n      mload(0x40)\n      tag_134\n      swap2\n      swap1\n      tag_94\n      jump\t// in\n    tag_134:\n      swap1\n      dup2\n      mstore\n      0x20\n      add\n      mload(0x40)\n      dup1\n      swap2\n      sub\n      swap1\n      keccak256\n        /* \"smart_contracts/module_architecture/ModuleManager2.sol\":3580:3607  _implementations[module].at */\n      tag_126\n      swap1\n        /* \"smart_contracts/module_architecture/ModuleManager2.sol\":3580:3624  _implementations[module].at(previousVersion) */\n      swap2\n      swap1\n      0xffffffff\n      and\n      jump\t// in\n    tag_133:\n        /* \"smart_contracts/module_architecture/ModuleManager2.sol\":3573:3624  return _implementations[module].at(previousVersion) */\n      swap3\n      pop\n        /* \"smart_contracts/module_architecture/ModuleManager2.sol\":3281:3631  function _getImplementation(... */\n      pop\n      pop\n      swap3\n      swap2\n      pop\n      pop\n      jump\t// out\n        /* \"deps/openzeppelin/utils/Context.sol\":641:737  function _msgSender() internal view virtual returns (address) {... */\n    tag_86:\n        /* \"deps/openzeppelin/utils/Context.sol\":694:701  address */\n      0x00\n        /* \"deps/openzeppelin/utils/Context.sol\":720:730  msg.sender */\n      caller\n        /* \"deps/openzeppelin/utils/Context.sol\":713:730  return msg.sender */\n      swap1\n      pop\n        /* \"deps/openzeppelin/utils/Context.sol\":641:737  function _msgSender() internal view virtual returns (address) {... */\n      swap1\n      jump\t// out\n        /* \"deps/openzeppelin/utils/structs/EnumerableSet.sol\":9107:9222  function length(AddressSet storage set) internal view returns (uint256) {... */\n    tag_95:\n        /* \"deps/openzeppelin/utils/structs/EnumerableSet.sol\":9170:9177  uint256 */\n      0x00\n        /* \"deps/openzeppelin/utils/structs/EnumerableSet.sol\":9196:9215  _length(set._inner) */\n      tag_137\n        /* \"deps/openzeppelin/utils/structs/EnumerableSet.sol\":9204:9207  set */\n      dup3\n        /* \"deps/openzeppelin/utils/structs/EnumerableSet.sol\":9204:9214  set._inner */\n      0x00\n      add\n        /* \"deps/openzeppelin/utils/structs/EnumerableSet.sol\":9196:9203  _length */\n      tag_138\n        /* \"deps/openzeppelin/utils/structs/EnumerableSet.sol\":9196:9215  _length(set._inner) */\n      jump\t// in\n    tag_137:\n        /* \"deps/openzeppelin/utils/structs/EnumerableSet.sol\":9189:9215  return _length(set._inner) */\n      swap1\n      pop\n        /* \"deps/openzeppelin/utils/structs/EnumerableSet.sol\":9107:9222  function length(AddressSet storage set) internal view returns (uint256) {... */\n      swap2\n      swap1\n      pop\n      jump\t// out\n        /* \"deps/openzeppelin/utils/structs/EnumerableSet.sol\":8306:8456  function add(AddressSet storage set, address value) internal returns (bool) {... */\n    tag_102:\n        /* \"deps/openzeppelin/utils/structs/EnumerableSet.sol\":8376:8380  bool */\n      0x00\n        /* \"deps/openzeppelin/utils/structs/EnumerableSet.sol\":8399:8449  _add(set._inner, bytes32(uint256(uint160(value)))) */\n      tag_140\n        /* \"deps/openzeppelin/utils/structs/EnumerableSet.sol\":8404:8407  set */\n      dup4\n        /* \"deps/openzeppelin/utils/structs/EnumerableSet.sol\":8404:8414  set._inner */\n      0x00\n      add\n        /* \"deps/openzeppelin/utils/structs/EnumerableSet.sol\":8440:8445  value */\n      dup4\n        /* \"deps/openzeppelin/utils/structs/EnumerableSet.sol\":8424:8447  uint256(uint160(value)) */\n      0xffffffffffffffffffffffffffffffffffffffff\n      and\n        /* \"deps/openzeppelin/utils/structs/EnumerableSet.sol\":8416:8448  bytes32(uint256(uint160(value))) */\n      0x00\n      shl\n        /* \"deps/openzeppelin/utils/structs/EnumerableSet.sol\":8399:8403  _add */\n      tag_141\n        /* \"deps/openzeppelin/utils/structs/EnumerableSet.sol\":8399:8449  _add(set._inner, bytes32(uint256(uint160(value)))) */\n      jump\t// in\n    tag_140:\n        /* \"deps/openzeppelin/utils/structs/EnumerableSet.sol\":8392:8449  return _add(set._inner, bytes32(uint256(uint160(value)))) */\n      swap1\n      pop\n        /* \"deps/openzeppelin/utils/structs/EnumerableSet.sol\":8306:8456  function add(AddressSet storage set, address value) internal returns (bool) {... */\n      swap3\n      swap2\n      pop\n      pop\n      jump\t// out\n        /* \"deps/openzeppelin/utils/structs/EnumerableSet.sol\":9564:9720  function at(AddressSet storage set, uint256 index) internal view returns (address) {... */\n    tag_126:\n        /* \"deps/openzeppelin/utils/structs/EnumerableSet.sol\":9638:9645  address */\n      0x00\n        /* \"deps/openzeppelin/utils/structs/EnumerableSet.sol\":9688:9710  _at(set._inner, index) */\n      tag_143\n        /* \"deps/openzeppelin/utils/structs/EnumerableSet.sol\":9692:9695  set */\n      dup4\n        /* \"deps/openzeppelin/utils/structs/EnumerableSet.sol\":9692:9702  set._inner */\n      0x00\n      add\n        /* \"deps/openzeppelin/utils/structs/EnumerableSet.sol\":9704:9709  index */\n      dup4\n        /* \"deps/openzeppelin/utils/structs/EnumerableSet.sol\":9688:9691  _at */\n      tag_144\n        /* \"deps/openzeppelin/utils/structs/EnumerableSet.sol\":9688:9710  _at(set._inner, index) */\n      jump\t// in\n    tag_143:\n        /* \"deps/openzeppelin/utils/structs/EnumerableSet.sol\":9680:9711  uint256(_at(set._inner, index)) */\n      0x00\n      shr\n        /* \"deps/openzeppelin/utils/structs/EnumerableSet.sol\":9657:9713  return address(uint160(uint256(_at(set._inner, index)))) */\n      swap1\n      pop\n        /* \"deps/openzeppelin/utils/structs/EnumerableSet.sol\":9564:9720  function at(AddressSet storage set, uint256 index) internal view returns (address) {... */\n      swap3\n      swap2\n      pop\n      pop\n      jump\t// out\n        /* \"deps/openzeppelin/utils/structs/EnumerableSet.sol\":4464:4571  function _length(Set storage set) private view returns (uint256) {... */\n    tag_138:\n        /* \"deps/openzeppelin/utils/structs/EnumerableSet.sol\":4520:4527  uint256 */\n      0x00\n        /* \"deps/openzeppelin/utils/structs/EnumerableSet.sol\":4546:4549  set */\n      dup2\n        /* \"deps/openzeppelin/utils/structs/EnumerableSet.sol\":4546:4557  set._values */\n      0x00\n      add\n        /* \"deps/openzeppelin/utils/structs/EnumerableSet.sol\":4546:4564  set._values.length */\n      dup1\n      sload\n      swap1\n      pop\n        /* \"deps/openzeppelin/utils/structs/EnumerableSet.sol\":4539:4564  return set._values.length */\n      swap1\n      pop\n        /* \"deps/openzeppelin/utils/structs/EnumerableSet.sol\":4464:4571  function _length(Set storage set) private view returns (uint256) {... */\n      swap2\n      swap1\n      pop\n      jump\t// out\n        /* \"deps/openzeppelin/utils/structs/EnumerableSet.sol\":2215:2619  function _add(Set storage set, bytes32 value) private returns (bool) {... */\n    tag_141:\n        /* \"deps/openzeppelin/utils/structs/EnumerableSet.sol\":2278:2282  bool */\n      0x00\n        /* \"deps/openzeppelin/utils/structs/EnumerableSet.sol\":2299:2320  _contains(set, value) */\n      tag_147\n        /* \"deps/openzeppelin/utils/structs/EnumerableSet.sol\":2309:2312  set */\n      dup4\n        /* \"deps/openzeppelin/utils/structs/EnumerableSet.sol\":2314:2319  value */\n      dup4\n        /* \"deps/openzeppelin/utils/structs/EnumerableSet.sol\":2299:2308  _contains */\n      tag_148\n        /* \"deps/openzeppelin/utils/structs/EnumerableSet.sol\":2299:2320  _contains(set, value) */\n      jump\t// in\n    tag_147:\n        /* \"deps/openzeppelin/utils/structs/EnumerableSet.sol\":2294:2613  if (!_contains(set, value)) {... */\n      tag_149\n      jumpi\n        /* \"deps/openzeppelin/utils/structs/EnumerableSet.sol\":2336:2339  set */\n      dup3\n        /* \"deps/openzeppelin/utils/structs/EnumerableSet.sol\":2336:2347  set._values */\n      0x00\n      add\n        /* \"deps/openzeppelin/utils/structs/EnumerableSet.sol\":2353:2358  value */\n      dup3\n        /* \"deps/openzeppelin/utils/structs/EnumerableSet.sol\":2336:2359  set._values.push(value) */\n      swap1\n      dup1\n      0x01\n      dup2\n      sload\n      add\n      dup1\n      dup3\n      sstore\n      dup1\n      swap2\n      pop\n      pop\n      0x01\n      swap1\n      sub\n      swap1\n      0x00\n      mstore\n      keccak256(0x00, 0x20)\n      add\n      0x00\n      swap1\n      swap2\n      swap1\n      swap2\n      swap1\n      swap2\n      pop\n      sstore\n        /* \"deps/openzeppelin/utils/structs/EnumerableSet.sol\":2516:2519  set */\n      dup3\n        /* \"deps/openzeppelin/utils/structs/EnumerableSet.sol\":2516:2527  set._values */\n      0x00\n      add\n        /* \"deps/openzeppelin/utils/structs/EnumerableSet.sol\":2516:2534  set._values.length */\n      dup1\n      sload\n      swap1\n      pop\n        /* \"deps/openzeppelin/utils/structs/EnumerableSet.sol\":2494:2497  set */\n      dup4\n        /* \"deps/openzeppelin/utils/structs/EnumerableSet.sol\":2494:2506  set._indexes */\n      0x01\n      add\n        /* \"deps/openzeppelin/utils/structs/EnumerableSet.sol\":2494:2513  set._indexes[value] */\n      0x00\n        /* \"deps/openzeppelin/utils/structs/EnumerableSet.sol\":2507:2512  value */\n      dup5\n        /* \"deps/openzeppelin/utils/structs/EnumerableSet.sol\":2494:2513  set._indexes[value] */\n      dup2\n      mstore\n      0x20\n      add\n      swap1\n      dup2\n      mstore\n      0x20\n      add\n      0x00\n      keccak256\n        /* \"deps/openzeppelin/utils/structs/EnumerableSet.sol\":2494:2534  set._indexes[value] = set._values.length */\n      dup2\n      swap1\n      sstore\n      pop\n        /* \"deps/openzeppelin/utils/structs/EnumerableSet.sol\":2555:2559  true */\n      0x01\n        /* \"deps/openzeppelin/utils/structs/EnumerableSet.sol\":2548:2559  return true */\n      swap1\n      pop\n      jump(tag_146)\n        /* \"deps/openzeppelin/utils/structs/EnumerableSet.sol\":2294:2613  if (!_contains(set, value)) {... */\n    tag_149:\n        /* \"deps/openzeppelin/utils/structs/EnumerableSet.sol\":2597:2602  false */\n      0x00\n        /* \"deps/openzeppelin/utils/structs/EnumerableSet.sol\":2590:2602  return false */\n      swap1\n      pop\n        /* \"deps/openzeppelin/utils/structs/EnumerableSet.sol\":2215:2619  function _add(Set storage set, bytes32 value) private returns (bool) {... */\n    tag_146:\n      swap3\n      swap2\n      pop\n      pop\n      jump\t// out\n        /* \"deps/openzeppelin/utils/structs/EnumerableSet.sol\":4913:5031  function _at(Set storage set, uint256 index) private view returns (bytes32) {... */\n    tag_144:\n        /* \"deps/openzeppelin/utils/structs/EnumerableSet.sol\":4980:4987  bytes32 */\n      0x00\n        /* \"deps/openzeppelin/utils/structs/EnumerableSet.sol\":5006:5009  set */\n      dup3\n        /* \"deps/openzeppelin/utils/structs/EnumerableSet.sol\":5006:5017  set._values */\n      0x00\n      add\n        /* \"deps/openzeppelin/utils/structs/EnumerableSet.sol\":5018:5023  index */\n      dup3\n        /* \"deps/openzeppelin/utils/structs/EnumerableSet.sol\":5006:5024  set._values[index] */\n      dup2\n      sload\n      dup2\n      lt\n      tag_153\n      jumpi\n      tag_154\n      tag_155\n      jump\t// in\n    tag_154:\n    tag_153:\n      swap1\n      0x00\n      mstore\n      keccak256(0x00, 0x20)\n      add\n      sload\n        /* \"deps/openzeppelin/utils/structs/EnumerableSet.sol\":4999:5024  return set._values[index] */\n      swap1\n      pop\n        /* \"deps/openzeppelin/utils/structs/EnumerableSet.sol\":4913:5031  function _at(Set storage set, uint256 index) private view returns (bytes32) {... */\n      swap3\n      swap2\n      pop\n      pop\n      jump\t// out\n        /* \"deps/openzeppelin/utils/structs/EnumerableSet.sol\":4256:4383  function _contains(Set storage set, bytes32 value) private view returns (bool) {... */\n    tag_148:\n        /* \"deps/openzeppelin/utils/structs/EnumerableSet.sol\":4329:4333  bool */\n      0x00\n        /* \"deps/openzeppelin/utils/structs/EnumerableSet.sol\":4375:4376  0 */\n      dup1\n        /* \"deps/openzeppelin/utils/structs/EnumerableSet.sol\":4352:4355  set */\n      dup4\n        /* \"deps/openzeppelin/utils/structs/EnumerableSet.sol\":4352:4364  set._indexes */\n      0x01\n      add\n        /* \"deps/openzeppelin/utils/structs/EnumerableSet.sol\":4352:4371  set._indexes[value] */\n      0x00\n        /* \"deps/openzeppelin/utils/structs/EnumerableSet.sol\":4365:4370  value */\n      dup5\n        /* \"deps/openzeppelin/utils/structs/EnumerableSet.sol\":4352:4371  set._indexes[value] */\n      dup2\n      mstore\n      0x20\n      add\n      swap1\n      dup2\n      mstore\n      0x20\n      add\n      0x00\n      keccak256\n      sload\n        /* \"deps/openzeppelin/utils/structs/EnumerableSet.sol\":4352:4376  set._indexes[value] != 0 */\n      eq\n      iszero\n        /* \"deps/openzeppelin/utils/structs/EnumerableSet.sol\":4345:4376  return set._indexes[value] != 0 */\n      swap1\n      pop\n        /* \"deps/openzeppelin/utils/structs/EnumerableSet.sol\":4256:4383  function _contains(Set storage set, bytes32 value) private view returns (bool) {... */\n      swap3\n      swap2\n      pop\n      pop\n      jump\t// out\n        /* \"#utility.yul\":7:82   */\n    tag_158:\n        /* \"#utility.yul\":40:46   */\n      0x00\n        /* \"#utility.yul\":73:75   */\n      0x40\n        /* \"#utility.yul\":67:76   */\n      mload\n        /* \"#utility.yul\":57:76   */\n      swap1\n      pop\n        /* \"#utility.yul\":7:82   */\n      swap1\n      jump\t// out\n        /* \"#utility.yul\":88:205   */\n    tag_159:\n        /* \"#utility.yul\":197:198   */\n      0x00\n        /* \"#utility.yul\":194:195   */\n      dup1\n        /* \"#utility.yul\":187:199   */\n      revert\n        /* \"#utility.yul\":211:328   */\n    tag_160:\n        /* \"#utility.yul\":320:321   */\n      0x00\n        /* \"#utility.yul\":317:318   */\n      dup1\n        /* \"#utility.yul\":310:322   */\n      revert\n        /* \"#utility.yul\":334:451   */\n    tag_161:\n        /* \"#utility.yul\":443:444   */\n      0x00\n        /* \"#utility.yul\":440:441   */\n      dup1\n        /* \"#utility.yul\":433:445   */\n      revert\n        /* \"#utility.yul\":457:574   */\n    tag_162:\n        /* \"#utility.yul\":566:567   */\n      0x00\n        /* \"#utility.yul\":563:564   */\n      dup1\n        /* \"#utility.yul\":556:568   */\n      revert\n        /* \"#utility.yul\":580:682   */\n    tag_163:\n        /* \"#utility.yul\":621:627   */\n      0x00\n        /* \"#utility.yul\":672:674   */\n      0x1f\n        /* \"#utility.yul\":668:675   */\n      not\n        /* \"#utility.yul\":663:665   */\n      0x1f\n        /* \"#utility.yul\":656:661   */\n      dup4\n        /* \"#utility.yul\":652:666   */\n      add\n        /* \"#utility.yul\":648:676   */\n      and\n        /* \"#utility.yul\":638:676   */\n      swap1\n      pop\n        /* \"#utility.yul\":580:682   */\n      swap2\n      swap1\n      pop\n      jump\t// out\n        /* \"#utility.yul\":688:868   */\n    tag_164:\n        /* \"#utility.yul\":736:813   */\n      0x4e487b7100000000000000000000000000000000000000000000000000000000\n        /* \"#utility.yul\":733:734   */\n      0x00\n        /* \"#utility.yul\":726:814   */\n      mstore\n        /* \"#utility.yul\":833:837   */\n      0x41\n        /* \"#utility.yul\":830:831   */\n      0x04\n        /* \"#utility.yul\":823:838   */\n      mstore\n        /* \"#utility.yul\":857:861   */\n      0x24\n        /* \"#utility.yul\":854:855   */\n      0x00\n        /* \"#utility.yul\":847:862   */\n      revert\n        /* \"#utility.yul\":874:1155   */\n    tag_165:\n        /* \"#utility.yul\":957:984   */\n      tag_207\n        /* \"#utility.yul\":979:983   */\n      dup3\n        /* \"#utility.yul\":957:984   */\n      tag_163\n      jump\t// in\n    tag_207:\n        /* \"#utility.yul\":949:955   */\n      dup2\n        /* \"#utility.yul\":945:985   */\n      add\n        /* \"#utility.yul\":1087:1093   */\n      dup2\n        /* \"#utility.yul\":1075:1085   */\n      dup2\n        /* \"#utility.yul\":1072:1094   */\n      lt\n        /* \"#utility.yul\":1051:1069   */\n      0xffffffffffffffff\n        /* \"#utility.yul\":1039:1049   */\n      dup3\n        /* \"#utility.yul\":1036:1070   */\n      gt\n        /* \"#utility.yul\":1033:1095   */\n      or\n        /* \"#utility.yul\":1030:1118   */\n      iszero\n      tag_208\n      jumpi\n        /* \"#utility.yul\":1098:1116   */\n      tag_209\n      tag_164\n      jump\t// in\n    tag_209:\n        /* \"#utility.yul\":1030:1118   */\n    tag_208:\n        /* \"#utility.yul\":1138:1148   */\n      dup1\n        /* \"#utility.yul\":1134:1136   */\n      0x40\n        /* \"#utility.yul\":1127:1149   */\n      mstore\n        /* \"#utility.yul\":917:1155   */\n      pop\n        /* \"#utility.yul\":874:1155   */\n      pop\n      pop\n      jump\t// out\n        /* \"#utility.yul\":1161:1290   */\n    tag_166:\n        /* \"#utility.yul\":1195:1201   */\n      0x00\n        /* \"#utility.yul\":1222:1242   */\n      tag_211\n      tag_158\n      jump\t// in\n    tag_211:\n        /* \"#utility.yul\":1212:1242   */\n      swap1\n      pop\n        /* \"#utility.yul\":1251:1284   */\n      tag_212\n        /* \"#utility.yul\":1279:1283   */\n      dup3\n        /* \"#utility.yul\":1271:1277   */\n      dup3\n        /* \"#utility.yul\":1251:1284   */\n      tag_165\n      jump\t// in\n    tag_212:\n        /* \"#utility.yul\":1161:1290   */\n      swap2\n      swap1\n      pop\n      jump\t// out\n        /* \"#utility.yul\":1296:1604   */\n    tag_167:\n        /* \"#utility.yul\":1358:1362   */\n      0x00\n        /* \"#utility.yul\":1448:1466   */\n      0xffffffffffffffff\n        /* \"#utility.yul\":1440:1446   */\n      dup3\n        /* \"#utility.yul\":1437:1467   */\n      gt\n        /* \"#utility.yul\":1434:1490   */\n      iszero\n      tag_214\n      jumpi\n        /* \"#utility.yul\":1470:1488   */\n      tag_215\n      tag_164\n      jump\t// in\n    tag_215:\n        /* \"#utility.yul\":1434:1490   */\n    tag_214:\n        /* \"#utility.yul\":1508:1537   */\n      tag_216\n        /* \"#utility.yul\":1530:1536   */\n      dup3\n        /* \"#utility.yul\":1508:1537   */\n      tag_163\n      jump\t// in\n    tag_216:\n        /* \"#utility.yul\":1500:1537   */\n      swap1\n      pop\n        /* \"#utility.yul\":1592:1596   */\n      0x20\n        /* \"#utility.yul\":1586:1590   */\n      dup2\n        /* \"#utility.yul\":1582:1597   */\n      add\n        /* \"#utility.yul\":1574:1597   */\n      swap1\n      pop\n        /* \"#utility.yul\":1296:1604   */\n      swap2\n      swap1\n      pop\n      jump\t// out\n        /* \"#utility.yul\":1610:1756   */\n    tag_168:\n        /* \"#utility.yul\":1707:1713   */\n      dup3\n        /* \"#utility.yul\":1702:1705   */\n      dup2\n        /* \"#utility.yul\":1697:1700   */\n      dup4\n        /* \"#utility.yul\":1684:1714   */\n      calldatacopy\n        /* \"#utility.yul\":1748:1749   */\n      0x00\n        /* \"#utility.yul\":1739:1745   */\n      dup4\n        /* \"#utility.yul\":1734:1737   */\n      dup4\n        /* \"#utility.yul\":1730:1746   */\n      add\n        /* \"#utility.yul\":1723:1750   */\n      mstore\n        /* \"#utility.yul\":1610:1756   */\n      pop\n      pop\n      pop\n      jump\t// out\n        /* \"#utility.yul\":1762:2187   */\n    tag_169:\n        /* \"#utility.yul\":1840:1845   */\n      0x00\n        /* \"#utility.yul\":1865:1931   */\n      tag_219\n        /* \"#utility.yul\":1881:1930   */\n      tag_220\n        /* \"#utility.yul\":1923:1929   */\n      dup5\n        /* \"#utility.yul\":1881:1930   */\n      tag_167\n      jump\t// in\n    tag_220:\n        /* \"#utility.yul\":1865:1931   */\n      tag_166\n      jump\t// in\n    tag_219:\n        /* \"#utility.yul\":1856:1931   */\n      swap1\n      pop\n        /* \"#utility.yul\":1954:1960   */\n      dup3\n        /* \"#utility.yul\":1947:1952   */\n      dup2\n        /* \"#utility.yul\":1940:1961   */\n      mstore\n        /* \"#utility.yul\":1992:1996   */\n      0x20\n        /* \"#utility.yul\":1985:1990   */\n      dup2\n        /* \"#utility.yul\":1981:1997   */\n      add\n        /* \"#utility.yul\":2030:2033   */\n      dup5\n        /* \"#utility.yul\":2021:2027   */\n      dup5\n        /* \"#utility.yul\":2016:2019   */\n      dup5\n        /* \"#utility.yul\":2012:2028   */\n      add\n        /* \"#utility.yul\":2009:2034   */\n      gt\n        /* \"#utility.yul\":2006:2118   */\n      iszero\n      tag_221\n      jumpi\n        /* \"#utility.yul\":2037:2116   */\n      tag_222\n      tag_162\n      jump\t// in\n    tag_222:\n        /* \"#utility.yul\":2006:2118   */\n    tag_221:\n        /* \"#utility.yul\":2127:2181   */\n      tag_223\n        /* \"#utility.yul\":2174:2180   */\n      dup5\n        /* \"#utility.yul\":2169:2172   */\n      dup3\n        /* \"#utility.yul\":2164:2167   */\n      dup6\n        /* \"#utility.yul\":2127:2181   */\n      tag_168\n      jump\t// in\n    tag_223:\n        /* \"#utility.yul\":1846:2187   */\n      pop\n        /* \"#utility.yul\":1762:2187   */\n      swap4\n      swap3\n      pop\n      pop\n      pop\n      jump\t// out\n        /* \"#utility.yul\":2207:2547   */\n    tag_170:\n        /* \"#utility.yul\":2263:2268   */\n      0x00\n        /* \"#utility.yul\":2312:2315   */\n      dup3\n        /* \"#utility.yul\":2305:2309   */\n      0x1f\n        /* \"#utility.yul\":2297:2303   */\n      dup4\n        /* \"#utility.yul\":2293:2310   */\n      add\n        /* \"#utility.yul\":2289:2316   */\n      slt\n        /* \"#utility.yul\":2279:2401   */\n      tag_225\n      jumpi\n        /* \"#utility.yul\":2320:2399   */\n      tag_226\n      tag_161\n      jump\t// in\n    tag_226:\n        /* \"#utility.yul\":2279:2401   */\n    tag_225:\n        /* \"#utility.yul\":2437:2443   */\n      dup2\n        /* \"#utility.yul\":2424:2444   */\n      calldataload\n        /* \"#utility.yul\":2462:2541   */\n      tag_227\n        /* \"#utility.yul\":2537:2540   */\n      dup5\n        /* \"#utility.yul\":2529:2535   */\n      dup3\n        /* \"#utility.yul\":2522:2526   */\n      0x20\n        /* \"#utility.yul\":2514:2520   */\n      dup7\n        /* \"#utility.yul\":2510:2527   */\n      add\n        /* \"#utility.yul\":2462:2541   */\n      tag_169\n      jump\t// in\n    tag_227:\n        /* \"#utility.yul\":2453:2541   */\n      swap2\n      pop\n        /* \"#utility.yul\":2269:2547   */\n      pop\n        /* \"#utility.yul\":2207:2547   */\n      swap3\n      swap2\n      pop\n      pop\n      jump\t// out\n        /* \"#utility.yul\":2553:2679   */\n    tag_171:\n        /* \"#utility.yul\":2590:2597   */\n      0x00\n        /* \"#utility.yul\":2630:2672   */\n      0xffffffffffffffffffffffffffffffffffffffff\n        /* \"#utility.yul\":2623:2628   */\n      dup3\n        /* \"#utility.yul\":2619:2673   */\n      and\n        /* \"#utility.yul\":2608:2673   */\n      swap1\n      pop\n        /* \"#utility.yul\":2553:2679   */\n      swap2\n      swap1\n      pop\n      jump\t// out\n        /* \"#utility.yul\":2685:2781   */\n    tag_172:\n        /* \"#utility.yul\":2722:2729   */\n      0x00\n        /* \"#utility.yul\":2751:2775   */\n      tag_230\n        /* \"#utility.yul\":2769:2774   */\n      dup3\n        /* \"#utility.yul\":2751:2775   */\n      tag_171\n      jump\t// in\n    tag_230:\n        /* \"#utility.yul\":2740:2775   */\n      swap1\n      pop\n        /* \"#utility.yul\":2685:2781   */\n      swap2\n      swap1\n      pop\n      jump\t// out\n        /* \"#utility.yul\":2787:2909   */\n    tag_173:\n        /* \"#utility.yul\":2860:2884   */\n      tag_232\n        /* \"#utility.yul\":2878:2883   */\n      dup2\n        /* \"#utility.yul\":2860:2884   */\n      tag_172\n      jump\t// in\n    tag_232:\n        /* \"#utility.yul\":2853:2858   */\n      dup2\n        /* \"#utility.yul\":2850:2885   */\n      eq\n        /* \"#utility.yul\":2840:2903   */\n      tag_233\n      jumpi\n        /* \"#utility.yul\":2899:2900   */\n      0x00\n        /* \"#utility.yul\":2896:2897   */\n      dup1\n        /* \"#utility.yul\":2889:2901   */\n      revert\n        /* \"#utility.yul\":2840:2903   */\n    tag_233:\n        /* \"#utility.yul\":2787:2909   */\n      pop\n      jump\t// out\n        /* \"#utility.yul\":2915:3054   */\n    tag_174:\n        /* \"#utility.yul\":2961:2966   */\n      0x00\n        /* \"#utility.yul\":2999:3005   */\n      dup2\n        /* \"#utility.yul\":2986:3006   */\n      calldataload\n        /* \"#utility.yul\":2977:3006   */\n      swap1\n      pop\n        /* \"#utility.yul\":3015:3048   */\n      tag_235\n        /* \"#utility.yul\":3042:3047   */\n      dup2\n        /* \"#utility.yul\":3015:3048   */\n      tag_173\n      jump\t// in\n    tag_235:\n        /* \"#utility.yul\":2915:3054   */\n      swap3\n      swap2\n      pop\n      pop\n      jump\t// out\n        /* \"#utility.yul\":3060:3714   */\n    tag_15:\n        /* \"#utility.yul\":3138:3144   */\n      0x00\n        /* \"#utility.yul\":3146:3152   */\n      dup1\n        /* \"#utility.yul\":3195:3197   */\n      0x40\n        /* \"#utility.yul\":3183:3192   */\n      dup4\n        /* \"#utility.yul\":3174:3181   */\n      dup6\n        /* \"#utility.yul\":3170:3193   */\n      sub\n        /* \"#utility.yul\":3166:3198   */\n      slt\n        /* \"#utility.yul\":3163:3282   */\n      iszero\n      tag_237\n      jumpi\n        /* \"#utility.yul\":3201:3280   */\n      tag_238\n      tag_159\n      jump\t// in\n    tag_238:\n        /* \"#utility.yul\":3163:3282   */\n    tag_237:\n        /* \"#utility.yul\":3349:3350   */\n      0x00\n        /* \"#utility.yul\":3338:3347   */\n      dup4\n        /* \"#utility.yul\":3334:3351   */\n      add\n        /* \"#utility.yul\":3321:3352   */\n      calldataload\n        /* \"#utility.yul\":3379:3397   */\n      0xffffffffffffffff\n        /* \"#utility.yul\":3371:3377   */\n      dup2\n        /* \"#utility.yul\":3368:3398   */\n      gt\n        /* \"#utility.yul\":3365:3482   */\n      iszero\n      tag_239\n      jumpi\n        /* \"#utility.yul\":3401:3480   */\n      tag_240\n      tag_160\n      jump\t// in\n    tag_240:\n        /* \"#utility.yul\":3365:3482   */\n    tag_239:\n        /* \"#utility.yul\":3506:3569   */\n      tag_241\n        /* \"#utility.yul\":3561:3568   */\n      dup6\n        /* \"#utility.yul\":3552:3558   */\n      dup3\n        /* \"#utility.yul\":3541:3550   */\n      dup7\n        /* \"#utility.yul\":3537:3559   */\n      add\n        /* \"#utility.yul\":3506:3569   */\n      tag_170\n      jump\t// in\n    tag_241:\n        /* \"#utility.yul\":3496:3569   */\n      swap3\n      pop\n        /* \"#utility.yul\":3292:3579   */\n      pop\n        /* \"#utility.yul\":3618:3620   */\n      0x20\n        /* \"#utility.yul\":3644:3697   */\n      tag_242\n        /* \"#utility.yul\":3689:3696   */\n      dup6\n        /* \"#utility.yul\":3680:3686   */\n      dup3\n        /* \"#utility.yul\":3669:3678   */\n      dup7\n        /* \"#utility.yul\":3665:3687   */\n      add\n        /* \"#utility.yul\":3644:3697   */\n      tag_174\n      jump\t// in\n    tag_242:\n        /* \"#utility.yul\":3634:3697   */\n      swap2\n      pop\n        /* \"#utility.yul\":3589:3707   */\n      pop\n        /* \"#utility.yul\":3060:3714   */\n      swap3\n      pop\n      swap3\n      swap1\n      pop\n      jump\t// out\n        /* \"#utility.yul\":3720:3810   */\n    tag_175:\n        /* \"#utility.yul\":3754:3761   */\n      0x00\n        /* \"#utility.yul\":3797:3802   */\n      dup2\n        /* \"#utility.yul\":3790:3803   */\n      iszero\n        /* \"#utility.yul\":3783:3804   */\n      iszero\n        /* \"#utility.yul\":3772:3804   */\n      swap1\n      pop\n        /* \"#utility.yul\":3720:3810   */\n      swap2\n      swap1\n      pop\n      jump\t// out\n        /* \"#utility.yul\":3816:3925   */\n    tag_176:\n        /* \"#utility.yul\":3897:3918   */\n      tag_245\n        /* \"#utility.yul\":3912:3917   */\n      dup2\n        /* \"#utility.yul\":3897:3918   */\n      tag_175\n      jump\t// in\n    tag_245:\n        /* \"#utility.yul\":3892:3895   */\n      dup3\n        /* \"#utility.yul\":3885:3919   */\n      mstore\n        /* \"#utility.yul\":3816:3925   */\n      pop\n      pop\n      jump\t// out\n        /* \"#utility.yul\":3931:4141   */\n    tag_18:\n        /* \"#utility.yul\":4018:4022   */\n      0x00\n        /* \"#utility.yul\":4056:4058   */\n      0x20\n        /* \"#utility.yul\":4045:4054   */\n      dup3\n        /* \"#utility.yul\":4041:4059   */\n      add\n        /* \"#utility.yul\":4033:4059   */\n      swap1\n      pop\n        /* \"#utility.yul\":4069:4134   */\n      tag_247\n        /* \"#utility.yul\":4131:4132   */\n      0x00\n        /* \"#utility.yul\":4120:4129   */\n      dup4\n        /* \"#utility.yul\":4116:4133   */\n      add\n        /* \"#utility.yul\":4107:4113   */\n      dup5\n        /* \"#utility.yul\":4069:4134   */\n      tag_176\n      jump\t// in\n    tag_247:\n        /* \"#utility.yul\":3931:4141   */\n      swap3\n      swap2\n      pop\n      pop\n      jump\t// out\n        /* \"#utility.yul\":4147:4265   */\n    tag_177:\n        /* \"#utility.yul\":4234:4258   */\n      tag_249\n        /* \"#utility.yul\":4252:4257   */\n      dup2\n        /* \"#utility.yul\":4234:4258   */\n      tag_172\n      jump\t// in\n    tag_249:\n        /* \"#utility.yul\":4229:4232   */\n      dup3\n        /* \"#utility.yul\":4222:4259   */\n      mstore\n        /* \"#utility.yul\":4147:4265   */\n      pop\n      pop\n      jump\t// out\n        /* \"#utility.yul\":4271:4493   */\n    tag_28:\n        /* \"#utility.yul\":4364:4368   */\n      0x00\n        /* \"#utility.yul\":4402:4404   */\n      0x20\n        /* \"#utility.yul\":4391:4400   */\n      dup3\n        /* \"#utility.yul\":4387:4405   */\n      add\n        /* \"#utility.yul\":4379:4405   */\n      swap1\n      pop\n        /* \"#utility.yul\":4415:4486   */\n      tag_251\n        /* \"#utility.yul\":4483:4484   */\n      0x00\n        /* \"#utility.yul\":4472:4481   */\n      dup4\n        /* \"#utility.yul\":4468:4485   */\n      add\n        /* \"#utility.yul\":4459:4465   */\n      dup5\n        /* \"#utility.yul\":4415:4486   */\n      tag_177\n      jump\t// in\n    tag_251:\n        /* \"#utility.yul\":4271:4493   */\n      swap3\n      swap2\n      pop\n      pop\n      jump\t// out\n        /* \"#utility.yul\":4499:5008   */\n    tag_31:\n        /* \"#utility.yul\":4568:4574   */\n      0x00\n        /* \"#utility.yul\":4617:4619   */\n      0x20\n        /* \"#utility.yul\":4605:4614   */\n      dup3\n        /* \"#utility.yul\":4596:4603   */\n      dup5\n        /* \"#utility.yul\":4592:4615   */\n      sub\n        /* \"#utility.yul\":4588:4620   */\n      slt\n        /* \"#utility.yul\":4585:4704   */\n      iszero\n      tag_253\n      jumpi\n        /* \"#utility.yul\":4623:4702   */\n      tag_254\n      tag_159\n      jump\t// in\n    tag_254:\n        /* \"#utility.yul\":4585:4704   */\n    tag_253:\n        /* \"#utility.yul\":4771:4772   */\n      0x00\n        /* \"#utility.yul\":4760:4769   */\n      dup3\n        /* \"#utility.yul\":4756:4773   */\n      add\n        /* \"#utility.yul\":4743:4774   */\n      calldataload\n        /* \"#utility.yul\":4801:4819   */\n      0xffffffffffffffff\n        /* \"#utility.yul\":4793:4799   */\n      dup2\n        /* \"#utility.yul\":4790:4820   */\n      gt\n        /* \"#utility.yul\":4787:4904   */\n      iszero\n      tag_255\n      jumpi\n        /* \"#utility.yul\":4823:4902   */\n      tag_256\n      tag_160\n      jump\t// in\n    tag_256:\n        /* \"#utility.yul\":4787:4904   */\n    tag_255:\n        /* \"#utility.yul\":4928:4991   */\n      tag_257\n        /* \"#utility.yul\":4983:4990   */\n      dup5\n        /* \"#utility.yul\":4974:4980   */\n      dup3\n        /* \"#utility.yul\":4963:4972   */\n      dup6\n        /* \"#utility.yul\":4959:4981   */\n      add\n        /* \"#utility.yul\":4928:4991   */\n      tag_170\n      jump\t// in\n    tag_257:\n        /* \"#utility.yul\":4918:4991   */\n      swap2\n      pop\n        /* \"#utility.yul\":4714:5001   */\n      pop\n        /* \"#utility.yul\":4499:5008   */\n      swap3\n      swap2\n      pop\n      pop\n      jump\t// out\n        /* \"#utility.yul\":5014:5091   */\n    tag_178:\n        /* \"#utility.yul\":5051:5058   */\n      0x00\n        /* \"#utility.yul\":5080:5085   */\n      dup2\n        /* \"#utility.yul\":5069:5085   */\n      swap1\n      pop\n        /* \"#utility.yul\":5014:5091   */\n      swap2\n      swap1\n      pop\n      jump\t// out\n        /* \"#utility.yul\":5097:5215   */\n    tag_179:\n        /* \"#utility.yul\":5184:5208   */\n      tag_260\n        /* \"#utility.yul\":5202:5207   */\n      dup2\n        /* \"#utility.yul\":5184:5208   */\n      tag_178\n      jump\t// in\n    tag_260:\n        /* \"#utility.yul\":5179:5182   */\n      dup3\n        /* \"#utility.yul\":5172:5209   */\n      mstore\n        /* \"#utility.yul\":5097:5215   */\n      pop\n      pop\n      jump\t// out\n        /* \"#utility.yul\":5221:5443   */\n    tag_34:\n        /* \"#utility.yul\":5314:5318   */\n      0x00\n        /* \"#utility.yul\":5352:5354   */\n      0x20\n        /* \"#utility.yul\":5341:5350   */\n      dup3\n        /* \"#utility.yul\":5337:5355   */\n      add\n        /* \"#utility.yul\":5329:5355   */\n      swap1\n      pop\n        /* \"#utility.yul\":5365:5436   */\n      tag_262\n        /* \"#utility.yul\":5433:5434   */\n      0x00\n        /* \"#utility.yul\":5422:5431   */\n      dup4\n        /* \"#utility.yul\":5418:5435   */\n      add\n        /* \"#utility.yul\":5409:5415   */\n      dup5\n        /* \"#utility.yul\":5365:5436   */\n      tag_179\n      jump\t// in\n    tag_262:\n        /* \"#utility.yul\":5221:5443   */\n      swap3\n      swap2\n      pop\n      pop\n      jump\t// out\n        /* \"#utility.yul\":5449:5571   */\n    tag_180:\n        /* \"#utility.yul\":5522:5546   */\n      tag_264\n        /* \"#utility.yul\":5540:5545   */\n      dup2\n        /* \"#utility.yul\":5522:5546   */\n      tag_178\n      jump\t// in\n    tag_264:\n        /* \"#utility.yul\":5515:5520   */\n      dup2\n        /* \"#utility.yul\":5512:5547   */\n      eq\n        /* \"#utility.yul\":5502:5565   */\n      tag_265\n      jumpi\n        /* \"#utility.yul\":5561:5562   */\n      0x00\n        /* \"#utility.yul\":5558:5559   */\n      dup1\n        /* \"#utility.yul\":5551:5563   */\n      revert\n        /* \"#utility.yul\":5502:5565   */\n    tag_265:\n        /* \"#utility.yul\":5449:5571   */\n      pop\n      jump\t// out\n        /* \"#utility.yul\":5577:5716   */\n    tag_181:\n        /* \"#utility.yul\":5623:5628   */\n      0x00\n        /* \"#utility.yul\":5661:5667   */\n      dup2\n        /* \"#utility.yul\":5648:5668   */\n      calldataload\n        /* \"#utility.yul\":5639:5668   */\n      swap1\n      pop\n        /* \"#utility.yul\":5677:5710   */\n      tag_267\n        /* \"#utility.yul\":5704:5709   */\n      dup2\n        /* \"#utility.yul\":5677:5710   */\n      tag_180\n      jump\t// in\n    tag_267:\n        /* \"#utility.yul\":5577:5716   */\n      swap3\n      swap2\n      pop\n      pop\n      jump\t// out\n        /* \"#utility.yul\":5722:6376   */\n    tag_41:\n        /* \"#utility.yul\":5800:5806   */\n      0x00\n        /* \"#utility.yul\":5808:5814   */\n      dup1\n        /* \"#utility.yul\":5857:5859   */\n      0x40\n        /* \"#utility.yul\":5845:5854   */\n      dup4\n        /* \"#utility.yul\":5836:5843   */\n      dup6\n        /* \"#utility.yul\":5832:5855   */\n      sub\n        /* \"#utility.yul\":5828:5860   */\n      slt\n        /* \"#utility.yul\":5825:5944   */\n      iszero\n      tag_269\n      jumpi\n        /* \"#utility.yul\":5863:5942   */\n      tag_270\n      tag_159\n      jump\t// in\n    tag_270:\n        /* \"#utility.yul\":5825:5944   */\n    tag_269:\n        /* \"#utility.yul\":6011:6012   */\n      0x00\n        /* \"#utility.yul\":6000:6009   */\n      dup4\n        /* \"#utility.yul\":5996:6013   */\n      add\n        /* \"#utility.yul\":5983:6014   */\n      calldataload\n        /* \"#utility.yul\":6041:6059   */\n      0xffffffffffffffff\n        /* \"#utility.yul\":6033:6039   */\n      dup2\n        /* \"#utility.yul\":6030:6060   */\n      gt\n        /* \"#utility.yul\":6027:6144   */\n      iszero\n      tag_271\n      jumpi\n        /* \"#utility.yul\":6063:6142   */\n      tag_272\n      tag_160\n      jump\t// in\n    tag_272:\n        /* \"#utility.yul\":6027:6144   */\n    tag_271:\n        /* \"#utility.yul\":6168:6231   */\n      tag_273\n        /* \"#utility.yul\":6223:6230   */\n      dup6\n        /* \"#utility.yul\":6214:6220   */\n      dup3\n        /* \"#utility.yul\":6203:6212   */\n      dup7\n        /* \"#utility.yul\":6199:6221   */\n      add\n        /* \"#utility.yul\":6168:6231   */\n      tag_170\n      jump\t// in\n    tag_273:\n        /* \"#utility.yul\":6158:6231   */\n      swap3\n      pop\n        /* \"#utility.yul\":5954:6241   */\n      pop\n        /* \"#utility.yul\":6280:6282   */\n      0x20\n        /* \"#utility.yul\":6306:6359   */\n      tag_274\n        /* \"#utility.yul\":6351:6358   */\n      dup6\n        /* \"#utility.yul\":6342:6348   */\n      dup3\n        /* \"#utility.yul\":6331:6340   */\n      dup7\n        /* \"#utility.yul\":6327:6349   */\n      add\n        /* \"#utility.yul\":6306:6359   */\n      tag_181\n      jump\t// in\n    tag_274:\n        /* \"#utility.yul\":6296:6359   */\n      swap2\n      pop\n        /* \"#utility.yul\":6251:6369   */\n      pop\n        /* \"#utility.yul\":5722:6376   */\n      swap3\n      pop\n      swap3\n      swap1\n      pop\n      jump\t// out\n        /* \"#utility.yul\":6382:6711   */\n    tag_46:\n        /* \"#utility.yul\":6441:6447   */\n      0x00\n        /* \"#utility.yul\":6490:6492   */\n      0x20\n        /* \"#utility.yul\":6478:6487   */\n      dup3\n        /* \"#utility.yul\":6469:6476   */\n      dup5\n        /* \"#utility.yul\":6465:6488   */\n      sub\n        /* \"#utility.yul\":6461:6493   */\n      slt\n        /* \"#utility.yul\":6458:6577   */\n      iszero\n      tag_276\n      jumpi\n        /* \"#utility.yul\":6496:6575   */\n      tag_277\n      tag_159\n      jump\t// in\n    tag_277:\n        /* \"#utility.yul\":6458:6577   */\n    tag_276:\n        /* \"#utility.yul\":6616:6617   */\n      0x00\n        /* \"#utility.yul\":6641:6694   */\n      tag_278\n        /* \"#utility.yul\":6686:6693   */\n      dup5\n        /* \"#utility.yul\":6677:6683   */\n      dup3\n        /* \"#utility.yul\":6666:6675   */\n      dup6\n        /* \"#utility.yul\":6662:6684   */\n      add\n        /* \"#utility.yul\":6641:6694   */\n      tag_174\n      jump\t// in\n    tag_278:\n        /* \"#utility.yul\":6631:6694   */\n      swap2\n      pop\n        /* \"#utility.yul\":6587:6704   */\n      pop\n        /* \"#utility.yul\":6382:6711   */\n      swap3\n      swap2\n      pop\n      pop\n      jump\t// out\n        /* \"#utility.yul\":6717:6886   */\n    tag_182:\n        /* \"#utility.yul\":6801:6812   */\n      0x00\n        /* \"#utility.yul\":6835:6841   */\n      dup3\n        /* \"#utility.yul\":6830:6833   */\n      dup3\n        /* \"#utility.yul\":6823:6842   */\n      mstore\n        /* \"#utility.yul\":6875:6879   */\n      0x20\n        /* \"#utility.yul\":6870:6873   */\n      dup3\n        /* \"#utility.yul\":6866:6880   */\n      add\n        /* \"#utility.yul\":6851:6880   */\n      swap1\n      pop\n        /* \"#utility.yul\":6717:6886   */\n      swap3\n      swap2\n      pop\n      pop\n      jump\t// out\n        /* \"#utility.yul\":6892:7117   */\n    tag_183:\n        /* \"#utility.yul\":7032:7066   */\n      0x4f776e61626c653a206e6577206f776e657220697320746865207a65726f2061\n        /* \"#utility.yul\":7028:7029   */\n      0x00\n        /* \"#utility.yul\":7020:7026   */\n      dup3\n        /* \"#utility.yul\":7016:7030   */\n      add\n        /* \"#utility.yul\":7009:7067   */\n      mstore\n        /* \"#utility.yul\":7101:7109   */\n      0x6464726573730000000000000000000000000000000000000000000000000000\n        /* \"#utility.yul\":7096:7098   */\n      0x20\n        /* \"#utility.yul\":7088:7094   */\n      dup3\n        /* \"#utility.yul\":7084:7099   */\n      add\n        /* \"#utility.yul\":7077:7110   */\n      mstore\n        /* \"#utility.yul\":6892:7117   */\n      pop\n      jump\t// out\n        /* \"#utility.yul\":7123:7489   */\n    tag_184:\n        /* \"#utility.yul\":7265:7268   */\n      0x00\n        /* \"#utility.yul\":7286:7353   */\n      tag_282\n        /* \"#utility.yul\":7350:7352   */\n      0x26\n        /* \"#utility.yul\":7345:7348   */\n      dup4\n        /* \"#utility.yul\":7286:7353   */\n      tag_182\n      jump\t// in\n    tag_282:\n        /* \"#utility.yul\":7279:7353   */\n      swap2\n      pop\n        /* \"#utility.yul\":7362:7455   */\n      tag_283\n        /* \"#utility.yul\":7451:7454   */\n      dup3\n        /* \"#utility.yul\":7362:7455   */\n      tag_183\n      jump\t// in\n    tag_283:\n        /* \"#utility.yul\":7480:7482   */\n      0x40\n        /* \"#utility.yul\":7475:7478   */\n      dup3\n        /* \"#utility.yul\":7471:7483   */\n      add\n        /* \"#utility.yul\":7464:7483   */\n      swap1\n      pop\n        /* \"#utility.yul\":7123:7489   */\n      swap2\n      swap1\n      pop\n      jump\t// out\n        /* \"#utility.yul\":7495:7914   */\n    tag_82:\n        /* \"#utility.yul\":7661:7665   */\n      0x00\n        /* \"#utility.yul\":7699:7701   */\n      0x20\n        /* \"#utility.yul\":7688:7697   */\n      dup3\n        /* \"#utility.yul\":7684:7702   */\n      add\n        /* \"#utility.yul\":7676:7702   */\n      swap1\n      pop\n        /* \"#utility.yul\":7748:7757   */\n      dup2\n        /* \"#utility.yul\":7742:7746   */\n      dup2\n        /* \"#utility.yul\":7738:7758   */\n      sub\n        /* \"#utility.yul\":7734:7735   */\n      0x00\n        /* \"#utility.yul\":7723:7732   */\n      dup4\n        /* \"#utility.yul\":7719:7736   */\n      add\n        /* \"#utility.yul\":7712:7759   */\n      mstore\n        /* \"#utility.yul\":7776:7907   */\n      tag_285\n        /* \"#utility.yul\":7902:7906   */\n      dup2\n        /* \"#utility.yul\":7776:7907   */\n      tag_184\n      jump\t// in\n    tag_285:\n        /* \"#utility.yul\":7768:7907   */\n      swap1\n      pop\n        /* \"#utility.yul\":7495:7914   */\n      swap2\n      swap1\n      pop\n      jump\t// out\n        /* \"#utility.yul\":7920:8102   */\n    tag_185:\n        /* \"#utility.yul\":8060:8094   */\n      0x4f776e61626c653a2063616c6c6572206973206e6f7420746865206f776e6572\n        /* \"#utility.yul\":8056:8057   */\n      0x00\n        /* \"#utility.yul\":8048:8054   */\n      dup3\n        /* \"#utility.yul\":8044:8058   */\n      add\n        /* \"#utility.yul\":8037:8095   */\n      mstore\n        /* \"#utility.yul\":7920:8102   */\n      pop\n      jump\t// out\n        /* \"#utility.yul\":8108:8474   */\n    tag_186:\n        /* \"#utility.yul\":8250:8253   */\n      0x00\n        /* \"#utility.yul\":8271:8338   */\n      tag_288\n        /* \"#utility.yul\":8335:8337   */\n      0x20\n        /* \"#utility.yul\":8330:8333   */\n      dup4\n        /* \"#utility.yul\":8271:8338   */\n      tag_182\n      jump\t// in\n    tag_288:\n        /* \"#utility.yul\":8264:8338   */\n      swap2\n      pop\n        /* \"#utility.yul\":8347:8440   */\n      tag_289\n        /* \"#utility.yul\":8436:8439   */\n      dup3\n        /* \"#utility.yul\":8347:8440   */\n      tag_185\n      jump\t// in\n    tag_289:\n        /* \"#utility.yul\":8465:8467   */\n      0x20\n        /* \"#utility.yul\":8460:8463   */\n      dup3\n        /* \"#utility.yul\":8456:8468   */\n      add\n        /* \"#utility.yul\":8449:8468   */\n      swap1\n      pop\n        /* \"#utility.yul\":8108:8474   */\n      swap2\n      swap1\n      pop\n      jump\t// out\n        /* \"#utility.yul\":8480:8899   */\n    tag_90:\n        /* \"#utility.yul\":8646:8650   */\n      0x00\n        /* \"#utility.yul\":8684:8686   */\n      0x20\n        /* \"#utility.yul\":8673:8682   */\n      dup3\n        /* \"#utility.yul\":8669:8687   */\n      add\n        /* \"#utility.yul\":8661:8687   */\n      swap1\n      pop\n        /* \"#utility.yul\":8733:8742   */\n      dup2\n        /* \"#utility.yul\":8727:8731   */\n      dup2\n        /* \"#utility.yul\":8723:8743   */\n      sub\n        /* \"#utility.yul\":8719:8720   */\n      0x00\n        /* \"#utility.yul\":8708:8717   */\n      dup4\n        /* \"#utility.yul\":8704:8721   */\n      add\n        /* \"#utility.yul\":8697:8744   */\n      mstore\n        /* \"#utility.yul\":8761:8892   */\n      tag_291\n        /* \"#utility.yul\":8887:8891   */\n      dup2\n        /* \"#utility.yul\":8761:8892   */\n      tag_186\n      jump\t// in\n    tag_291:\n        /* \"#utility.yul\":8753:8892   */\n      swap1\n      pop\n        /* \"#utility.yul\":8480:8899   */\n      swap2\n      swap1\n      pop\n      jump\t// out\n        /* \"#utility.yul\":8905:9004   */\n    tag_187:\n        /* \"#utility.yul\":8957:8963   */\n      0x00\n        /* \"#utility.yul\":8991:8996   */\n      dup2\n        /* \"#utility.yul\":8985:8997   */\n      mload\n        /* \"#utility.yul\":8975:8997   */\n      swap1\n      pop\n        /* \"#utility.yul\":8905:9004   */\n      swap2\n      swap1\n      pop\n      jump\t// out\n        /* \"#utility.yul\":9010:9158   */\n    tag_188:\n        /* \"#utility.yul\":9112:9123   */\n      0x00\n        /* \"#utility.yul\":9149:9152   */\n      dup2\n        /* \"#utility.yul\":9134:9152   */\n      swap1\n      pop\n        /* \"#utility.yul\":9010:9158   */\n      swap3\n      swap2\n      pop\n      pop\n      jump\t// out\n        /* \"#utility.yul\":9164:9410   */\n    tag_189:\n        /* \"#utility.yul\":9245:9246   */\n      0x00\n        /* \"#utility.yul\":9255:9368   */\n    tag_295:\n        /* \"#utility.yul\":9269:9275   */\n      dup4\n        /* \"#utility.yul\":9266:9267   */\n      dup2\n        /* \"#utility.yul\":9263:9276   */\n      lt\n        /* \"#utility.yul\":9255:9368   */\n      iszero\n      tag_297\n      jumpi\n        /* \"#utility.yul\":9354:9355   */\n      dup1\n        /* \"#utility.yul\":9349:9352   */\n      dup3\n        /* \"#utility.yul\":9345:9356   */\n      add\n        /* \"#utility.yul\":9339:9357   */\n      mload\n        /* \"#utility.yul\":9335:9336   */\n      dup2\n        /* \"#utility.yul\":9330:9333   */\n      dup5\n        /* \"#utility.yul\":9326:9337   */\n      add\n        /* \"#utility.yul\":9319:9358   */\n      mstore\n        /* \"#utility.yul\":9291:9293   */\n      0x20\n        /* \"#utility.yul\":9288:9289   */\n      dup2\n        /* \"#utility.yul\":9284:9294   */\n      add\n        /* \"#utility.yul\":9279:9294   */\n      swap1\n      pop\n        /* \"#utility.yul\":9255:9368   */\n      jump(tag_295)\n    tag_297:\n        /* \"#utility.yul\":9402:9403   */\n      0x00\n        /* \"#utility.yul\":9393:9399   */\n      dup5\n        /* \"#utility.yul\":9388:9391   */\n      dup5\n        /* \"#utility.yul\":9384:9400   */\n      add\n        /* \"#utility.yul\":9377:9404   */\n      mstore\n        /* \"#utility.yul\":9226:9410   */\n      pop\n        /* \"#utility.yul\":9164:9410   */\n      pop\n      pop\n      pop\n      jump\t// out\n        /* \"#utility.yul\":9416:9806   */\n    tag_190:\n        /* \"#utility.yul\":9522:9525   */\n      0x00\n        /* \"#utility.yul\":9550:9589   */\n      tag_299\n        /* \"#utility.yul\":9583:9588   */\n      dup3\n        /* \"#utility.yul\":9550:9589   */\n      tag_187\n      jump\t// in\n    tag_299:\n        /* \"#utility.yul\":9605:9694   */\n      tag_300\n        /* \"#utility.yul\":9687:9693   */\n      dup2\n        /* \"#utility.yul\":9682:9685   */\n      dup6\n        /* \"#utility.yul\":9605:9694   */\n      tag_188\n      jump\t// in\n    tag_300:\n        /* \"#utility.yul\":9598:9694   */\n      swap4\n      pop\n        /* \"#utility.yul\":9703:9768   */\n      tag_301\n        /* \"#utility.yul\":9761:9767   */\n      dup2\n        /* \"#utility.yul\":9756:9759   */\n      dup6\n        /* \"#utility.yul\":9749:9753   */\n      0x20\n        /* \"#utility.yul\":9742:9747   */\n      dup7\n        /* \"#utility.yul\":9738:9754   */\n      add\n        /* \"#utility.yul\":9703:9768   */\n      tag_189\n      jump\t// in\n    tag_301:\n        /* \"#utility.yul\":9793:9799   */\n      dup1\n        /* \"#utility.yul\":9788:9791   */\n      dup5\n        /* \"#utility.yul\":9784:9800   */\n      add\n        /* \"#utility.yul\":9777:9800   */\n      swap2\n      pop\n        /* \"#utility.yul\":9526:9806   */\n      pop\n        /* \"#utility.yul\":9416:9806   */\n      swap3\n      swap2\n      pop\n      pop\n      jump\t// out\n        /* \"#utility.yul\":9812:10087   */\n    tag_94:\n        /* \"#utility.yul\":9944:9947   */\n      0x00\n        /* \"#utility.yul\":9966:10061   */\n      tag_303\n        /* \"#utility.yul\":10057:10060   */\n      dup3\n        /* \"#utility.yul\":10048:10054   */\n      dup5\n        /* \"#utility.yul\":9966:10061   */\n      tag_190\n      jump\t// in\n    tag_303:\n        /* \"#utility.yul\":9959:10061   */\n      swap2\n      pop\n        /* \"#utility.yul\":10078:10081   */\n      dup2\n        /* \"#utility.yul\":10071:10081   */\n      swap1\n      pop\n        /* \"#utility.yul\":9812:10087   */\n      swap3\n      swap2\n      pop\n      pop\n      jump\t// out\n        /* \"#utility.yul\":10093:10266   */\n    tag_191:\n        /* \"#utility.yul\":10233:10258   */\n      0x4d6f64756c65206d61746368206e6f7420666f756e642e000000000000000000\n        /* \"#utility.yul\":10229:10230   */\n      0x00\n        /* \"#utility.yul\":10221:10227   */\n      dup3\n        /* \"#utility.yul\":10217:10231   */\n      add\n        /* \"#utility.yul\":10210:10259   */\n      mstore\n        /* \"#utility.yul\":10093:10266   */\n      pop\n      jump\t// out\n        /* \"#utility.yul\":10272:10638   */\n    tag_192:\n        /* \"#utility.yul\":10414:10417   */\n      0x00\n        /* \"#utility.yul\":10435:10502   */\n      tag_306\n        /* \"#utility.yul\":10499:10501   */\n      0x17\n        /* \"#utility.yul\":10494:10497   */\n      dup4\n        /* \"#utility.yul\":10435:10502   */\n      tag_182\n      jump\t// in\n    tag_306:\n        /* \"#utility.yul\":10428:10502   */\n      swap2\n      pop\n        /* \"#utility.yul\":10511:10604   */\n      tag_307\n        /* \"#utility.yul\":10600:10603   */\n      dup3\n        /* \"#utility.yul\":10511:10604   */\n      tag_191\n      jump\t// in\n    tag_307:\n        /* \"#utility.yul\":10629:10631   */\n      0x20\n        /* \"#utility.yul\":10624:10627   */\n      dup3\n        /* \"#utility.yul\":10620:10632   */\n      add\n        /* \"#utility.yul\":10613:10632   */\n      swap1\n      pop\n        /* \"#utility.yul\":10272:10638   */\n      swap2\n      swap1\n      pop\n      jump\t// out\n        /* \"#utility.yul\":10644:11063   */\n    tag_98:\n        /* \"#utility.yul\":10810:10814   */\n      0x00\n        /* \"#utility.yul\":10848:10850   */\n      0x20\n        /* \"#utility.yul\":10837:10846   */\n      dup3\n        /* \"#utility.yul\":10833:10851   */\n      add\n        /* \"#utility.yul\":10825:10851   */\n      swap1\n      pop\n        /* \"#utility.yul\":10897:10906   */\n      dup2\n        /* \"#utility.yul\":10891:10895   */\n      dup2\n        /* \"#utility.yul\":10887:10907   */\n      sub\n        /* \"#utility.yul\":10883:10884   */\n      0x00\n        /* \"#utility.yul\":10872:10881   */\n      dup4\n        /* \"#utility.yul\":10868:10885   */\n      add\n        /* \"#utility.yul\":10861:10908   */\n      mstore\n        /* \"#utility.yul\":10925:11056   */\n      tag_309\n        /* \"#utility.yul\":11051:11055   */\n      dup2\n        /* \"#utility.yul\":10925:11056   */\n      tag_192\n      jump\t// in\n    tag_309:\n        /* \"#utility.yul\":10917:11056   */\n      swap1\n      pop\n        /* \"#utility.yul\":10644:11063   */\n      swap2\n      swap1\n      pop\n      jump\t// out\n        /* \"#utility.yul\":11069:11238   */\n    tag_193:\n        /* \"#utility.yul\":11209:11230   */\n      0x4d6f64756c65206d6174636820666f756e642e00000000000000000000000000\n        /* \"#utility.yul\":11205:11206   */\n      0x00\n        /* \"#utility.yul\":11197:11203   */\n      dup3\n        /* \"#utility.yul\":11193:11207   */\n      add\n        /* \"#utility.yul\":11186:11231   */\n      mstore\n        /* \"#utility.yul\":11069:11238   */\n      pop\n      jump\t// out\n        /* \"#utility.yul\":11244:11610   */\n    tag_194:\n        /* \"#utility.yul\":11386:11389   */\n      0x00\n        /* \"#utility.yul\":11407:11474   */\n      tag_312\n        /* \"#utility.yul\":11471:11473   */\n      0x13\n        /* \"#utility.yul\":11466:11469   */\n      dup4\n        /* \"#utility.yul\":11407:11474   */\n      tag_182\n      jump\t// in\n    tag_312:\n        /* \"#utility.yul\":11400:11474   */\n      swap2\n      pop\n        /* \"#utility.yul\":11483:11576   */\n      tag_313\n        /* \"#utility.yul\":11572:11575   */\n      dup3\n        /* \"#utility.yul\":11483:11576   */\n      tag_193\n      jump\t// in\n    tag_313:\n        /* \"#utility.yul\":11601:11603   */\n      0x20\n        /* \"#utility.yul\":11596:11599   */\n      dup3\n        /* \"#utility.yul\":11592:11604   */\n      add\n        /* \"#utility.yul\":11585:11604   */\n      swap1\n      pop\n        /* \"#utility.yul\":11244:11610   */\n      swap2\n      swap1\n      pop\n      jump\t// out\n        /* \"#utility.yul\":11616:12035   */\n    tag_110:\n        /* \"#utility.yul\":11782:11786   */\n      0x00\n        /* \"#utility.yul\":11820:11822   */\n      0x20\n        /* \"#utility.yul\":11809:11818   */\n      dup3\n        /* \"#utility.yul\":11805:11823   */\n      add\n        /* \"#utility.yul\":11797:11823   */\n      swap1\n      pop\n        /* \"#utility.yul\":11869:11878   */\n      dup2\n        /* \"#utility.yul\":11863:11867   */\n      dup2\n        /* \"#utility.yul\":11859:11879   */\n      sub\n        /* \"#utility.yul\":11855:11856   */\n      0x00\n        /* \"#utility.yul\":11844:11853   */\n      dup4\n        /* \"#utility.yul\":11840:11857   */\n      add\n        /* \"#utility.yul\":11833:11880   */\n      mstore\n        /* \"#utility.yul\":11897:12028   */\n      tag_315\n        /* \"#utility.yul\":12023:12027   */\n      dup2\n        /* \"#utility.yul\":11897:12028   */\n      tag_194\n      jump\t// in\n    tag_315:\n        /* \"#utility.yul\":11889:12028   */\n      swap1\n      pop\n        /* \"#utility.yul\":11616:12035   */\n      swap2\n      swap1\n      pop\n      jump\t// out\n        /* \"#utility.yul\":12041:12221   */\n    tag_195:\n        /* \"#utility.yul\":12089:12166   */\n      0x4e487b7100000000000000000000000000000000000000000000000000000000\n        /* \"#utility.yul\":12086:12087   */\n      0x00\n        /* \"#utility.yul\":12079:12167   */\n      mstore\n        /* \"#utility.yul\":12186:12190   */\n      0x11\n        /* \"#utility.yul\":12183:12184   */\n      0x04\n        /* \"#utility.yul\":12176:12191   */\n      mstore\n        /* \"#utility.yul\":12210:12214   */\n      0x24\n        /* \"#utility.yul\":12207:12208   */\n      0x00\n        /* \"#utility.yul\":12200:12215   */\n      revert\n        /* \"#utility.yul\":12227:12418   */\n    tag_113:\n        /* \"#utility.yul\":12267:12270   */\n      0x00\n        /* \"#utility.yul\":12286:12306   */\n      tag_318\n        /* \"#utility.yul\":12304:12305   */\n      dup3\n        /* \"#utility.yul\":12286:12306   */\n      tag_178\n      jump\t// in\n    tag_318:\n        /* \"#utility.yul\":12281:12306   */\n      swap2\n      pop\n        /* \"#utility.yul\":12320:12340   */\n      tag_319\n        /* \"#utility.yul\":12338:12339   */\n      dup4\n        /* \"#utility.yul\":12320:12340   */\n      tag_178\n      jump\t// in\n    tag_319:\n        /* \"#utility.yul\":12315:12340   */\n      swap3\n      pop\n        /* \"#utility.yul\":12363:12364   */\n      dup3\n        /* \"#utility.yul\":12360:12361   */\n      dup3\n        /* \"#utility.yul\":12356:12365   */\n      add\n        /* \"#utility.yul\":12349:12365   */\n      swap1\n      pop\n        /* \"#utility.yul\":12384:12387   */\n      dup1\n        /* \"#utility.yul\":12381:12382   */\n      dup3\n        /* \"#utility.yul\":12378:12388   */\n      gt\n        /* \"#utility.yul\":12375:12411   */\n      iszero\n      tag_320\n      jumpi\n        /* \"#utility.yul\":12391:12409   */\n      tag_321\n      tag_195\n      jump\t// in\n    tag_321:\n        /* \"#utility.yul\":12375:12411   */\n    tag_320:\n        /* \"#utility.yul\":12227:12418   */\n      swap3\n      swap2\n      pop\n      pop\n      jump\t// out\n        /* \"#utility.yul\":12424:12618   */\n    tag_121:\n        /* \"#utility.yul\":12464:12468   */\n      0x00\n        /* \"#utility.yul\":12484:12504   */\n      tag_323\n        /* \"#utility.yul\":12502:12503   */\n      dup3\n        /* \"#utility.yul\":12484:12504   */\n      tag_178\n      jump\t// in\n    tag_323:\n        /* \"#utility.yul\":12479:12504   */\n      swap2\n      pop\n        /* \"#utility.yul\":12518:12538   */\n      tag_324\n        /* \"#utility.yul\":12536:12537   */\n      dup4\n        /* \"#utility.yul\":12518:12538   */\n      tag_178\n      jump\t// in\n    tag_324:\n        /* \"#utility.yul\":12513:12538   */\n      swap3\n      pop\n        /* \"#utility.yul\":12562:12563   */\n      dup3\n        /* \"#utility.yul\":12559:12560   */\n      dup3\n        /* \"#utility.yul\":12555:12564   */\n      sub\n        /* \"#utility.yul\":12547:12564   */\n      swap1\n      pop\n        /* \"#utility.yul\":12586:12587   */\n      dup2\n        /* \"#utility.yul\":12580:12584   */\n      dup2\n        /* \"#utility.yul\":12577:12588   */\n      gt\n        /* \"#utility.yul\":12574:12611   */\n      iszero\n      tag_325\n      jumpi\n        /* \"#utility.yul\":12591:12609   */\n      tag_326\n      tag_195\n      jump\t// in\n    tag_326:\n        /* \"#utility.yul\":12574:12611   */\n    tag_325:\n        /* \"#utility.yul\":12424:12618   */\n      swap3\n      swap2\n      pop\n      pop\n      jump\t// out\n        /* \"#utility.yul\":12624:12798   */\n    tag_196:\n        /* \"#utility.yul\":12764:12790   */\n      0x56657273696f6e206d61746368206e6f7420666f756e642e0000000000000000\n        /* \"#utility.yul\":12760:12761   */\n      0x00\n        /* \"#utility.yul\":12752:12758   */\n      dup3\n        /* \"#utility.yul\":12748:12762   */\n      add\n        /* \"#utility.yul\":12741:12791   */\n      mstore\n        /* \"#utility.yul\":12624:12798   */\n      pop\n      jump\t// out\n        /* \"#utility.yul\":12804:13170   */\n    tag_197:\n        /* \"#utility.yul\":12946:12949   */\n      0x00\n        /* \"#utility.yul\":12967:13034   */\n      tag_329\n        /* \"#utility.yul\":13031:13033   */\n      0x18\n        /* \"#utility.yul\":13026:13029   */\n      dup4\n        /* \"#utility.yul\":12967:13034   */\n      tag_182\n      jump\t// in\n    tag_329:\n        /* \"#utility.yul\":12960:13034   */\n      swap2\n      pop\n        /* \"#utility.yul\":13043:13136   */\n      tag_330\n        /* \"#utility.yul\":13132:13135   */\n      dup3\n        /* \"#utility.yul\":13043:13136   */\n      tag_196\n      jump\t// in\n    tag_330:\n        /* \"#utility.yul\":13161:13163   */\n      0x20\n        /* \"#utility.yul\":13156:13159   */\n      dup3\n        /* \"#utility.yul\":13152:13164   */\n      add\n        /* \"#utility.yul\":13145:13164   */\n      swap1\n      pop\n        /* \"#utility.yul\":12804:13170   */\n      swap2\n      swap1\n      pop\n      jump\t// out\n        /* \"#utility.yul\":13176:13595   */\n    tag_131:\n        /* \"#utility.yul\":13342:13346   */\n      0x00\n        /* \"#utility.yul\":13380:13382   */\n      0x20\n        /* \"#utility.yul\":13369:13378   */\n      dup3\n        /* \"#utility.yul\":13365:13383   */\n      add\n        /* \"#utility.yul\":13357:13383   */\n      swap1\n      pop\n        /* \"#utility.yul\":13429:13438   */\n      dup2\n        /* \"#utility.yul\":13423:13427   */\n      dup2\n        /* \"#utility.yul\":13419:13439   */\n      sub\n        /* \"#utility.yul\":13415:13416   */\n      0x00\n        /* \"#utility.yul\":13404:13413   */\n      dup4\n        /* \"#utility.yul\":13400:13417   */\n      add\n        /* \"#utility.yul\":13393:13440   */\n      mstore\n        /* \"#utility.yul\":13457:13588   */\n      tag_332\n        /* \"#utility.yul\":13583:13587   */\n      dup2\n        /* \"#utility.yul\":13457:13588   */\n      tag_197\n      jump\t// in\n    tag_332:\n        /* \"#utility.yul\":13449:13588   */\n      swap1\n      pop\n        /* \"#utility.yul\":13176:13595   */\n      swap2\n      swap1\n      pop\n      jump\t// out\n        /* \"#utility.yul\":13601:13781   */\n    tag_155:\n        /* \"#utility.yul\":13649:13726   */\n      0x4e487b7100000000000000000000000000000000000000000000000000000000\n        /* \"#utility.yul\":13646:13647   */\n      0x00\n        /* \"#utility.yul\":13639:13727   */\n      mstore\n        /* \"#utility.yul\":13746:13750   */\n      0x32\n        /* \"#utility.yul\":13743:13744   */\n      0x04\n        /* \"#utility.yul\":13736:13751   */\n      mstore\n        /* \"#utility.yul\":13770:13774   */\n      0x24\n        /* \"#utility.yul\":13767:13768   */\n      0x00\n        /* \"#utility.yul\":13760:13775   */\n      revert\n\n    auxdata: 0xa26469706673582212204ddd2321465f638fc109eaed67d8206a7ca2ea12ead6ffe89ad8f64ff81d048164736f6c63430008130033\n}\n",
				"bytecode": {
					"linkReferences": {},
					"object": "60806040523480156200001157600080fd5b50604051620011f9380380620011f983398181016040528101906200003791906200017f565b8062000049816200005160201b60201c565b5050620001b1565b60008060009054906101000a900473ffffffffffffffffffffffffffffffffffffffff169050816000806101000a81548173ffffffffffffffffffffffffffffffffffffffff021916908373ffffffffffffffffffffffffffffffffffffffff1602179055508173ffffffffffffffffffffffffffffffffffffffff168173ffffffffffffffffffffffffffffffffffffffff167f8be0079c531659141344cd1fd0a4f28419497f9722a3daafe3b4186f6b6457e060405160405180910390a35050565b600080fd5b600073ffffffffffffffffffffffffffffffffffffffff82169050919050565b600062000147826200011a565b9050919050565b62000159816200013a565b81146200016557600080fd5b50565b60008151905062000179816200014e565b92915050565b60006020828403121562000198576200019762000115565b5b6000620001a88482850162000168565b91505092915050565b61103880620001c16000396000f3fe608060405234801561001057600080fd5b50600436106100935760003560e01c8063cae9676111610066578063cae9676114610120578063d285f83914610150578063e8009dda14610180578063f2fde38b146101b0578063f3f342fa146101cc57610093565b80635332c74d14610098578063715018a6146100c857806384b47b0f146100d25780638da5cb5b14610102575b600080fd5b6100b260048036038101906100ad9190610a73565b6101ea565b6040516100bf9190610aea565b60405180910390f35b6100d0610206565b005b6100ec60048036038101906100e79190610a73565b61021a565b6040516100f99190610aea565b60405180910390f35b61010a610236565b6040516101179190610b14565b60405180910390f35b61013a60048036038101906101359190610b2f565b61025f565b6040516101479190610b91565b60405180910390f35b61016a60048036038101906101659190610b2f565b610271565b6040516101779190610b14565b60405180910390f35b61019a60048036038101906101959190610bd8565b610283565b6040516101a79190610b14565b60405180910390f35b6101ca60048036038101906101c59190610c34565b610297565b005b6101d461031a565b6040516101e19190610b91565b60405180910390f35b60006101f4610320565b6101fe838361039e565b905092915050565b61020e610320565b610218600061049e565b565b6000610224610320565b61022e8383610562565b905092915050565b60008060009054906101000a900473ffffffffffffffffffffffffffffffffffffffff16905090565b600061026a8261067b565b9050919050565b600061027c826106b6565b9050919050565b600061028f83836106fc565b905092915050565b61029f610320565b600073ffffffffffffffffffffffffffffffffffffffff168173ffffffffffffffffffffffffffffffffffffffff160361030e576040517f08c379a000000000000000000000000000000000000000000000000000000000815260040161030590610ce4565b60405180910390fd5b6103178161049e565b50565b60015481565b610328610785565b73ffffffffffffffffffffffffffffffffffffffff16610346610236565b73ffffffffffffffffffffffffffffffffffffffff161461039c576040517f08c379a000000000000000000000000000000000000000000000000000000000815260040161039390610d50565b60405180910390fd5b565b60008260006103c96002836040516103b69190610de1565b908152602001604051809103902061078d565b11610409576040517f08c379a000000000000000000000000000000000000000000000000000000000815260040161040090610e44565b60405180910390fd5b6104398360028660405161041d9190610de1565b90815260200160405180910390206107a290919063ffffffff16565b508273ffffffffffffffffffffffffffffffffffffffff168460405161045f9190610de1565b60405180910390207f1f13caeb007f29cd5fc6f97bcff68492c71932a30b875a50bd24a06f71b719bd60405160405180910390a3600191505092915050565b60008060009054906101000a900473ffffffffffffffffffffffffffffffffffffffff169050816000806101000a81548173ffffffffffffffffffffffffffffffffffffffff021916908373ffffffffffffffffffffffffffffffffffffffff1602179055508173ffffffffffffffffffffffffffffffffffffffff168173ffffffffffffffffffffffffffffffffffffffff167f8be0079c531659141344cd1fd0a4f28419497f9722a3daafe3b4186f6b6457e060405160405180910390a35050565b600082600161058d60028360405161057a9190610de1565b908152602001604051809103902061078d565b106105cd576040517f08c379a00000000000000000000000000000000000000000000000000000000081526004016105c490610eb0565b60405180910390fd5b60018060008282546105df9190610eff565b92505081905550610616836002866040516105fa9190610de1565b90815260200160405180910390206107a290919063ffffffff16565b508273ffffffffffffffffffffffffffffffffffffffff168460405161063c9190610de1565b60405180910390207f5c4c07a550b4bd2216246c5553ec40f10ac1d74f9fac670b6505f0757f08f99660405160405180910390a3600191505092915050565b600060016106a56002846040516106929190610de1565b908152602001604051809103902061078d565b6106af9190610f33565b9050919050565b6000806106c28361067b565b90506106f4816002856040516106d89190610de1565b90815260200160405180910390206107d290919063ffffffff16565b915050919050565b600082826107098261067b565b81111561074b576040517f08c379a000000000000000000000000000000000000000000000000000000000815260040161074290610fb3565b60405180910390fd5b61077b8460028760405161075f9190610de1565b90815260200160405180910390206107d290919063ffffffff16565b9250505092915050565b600033905090565b600061079b826000016107ec565b9050919050565b60006107ca836000018373ffffffffffffffffffffffffffffffffffffffff1660001b6107fd565b905092915050565b60006107e1836000018361086d565b60001c905092915050565b600081600001805490509050919050565b60006108098383610898565b610862578260000182908060018154018082558091505060019003906000526020600020016000909190919091505582600001805490508360010160008481526020019081526020016000208190555060019050610867565b600090505b92915050565b600082600001828154811061088557610884610fd3565b5b9060005260206000200154905092915050565b600080836001016000848152602001908152602001600020541415905092915050565b6000604051905090565b600080fd5b600080fd5b600080fd5b600080fd5b6000601f19601f8301169050919050565b7f4e487b7100000000000000000000000000000000000000000000000000000000600052604160045260246000fd5b610922826108d9565b810181811067ffffffffffffffff82111715610941576109406108ea565b5b80604052505050565b60006109546108bb565b90506109608282610919565b919050565b600067ffffffffffffffff8211156109805761097f6108ea565b5b610989826108d9565b9050602081019050919050565b82818337600083830152505050565b60006109b86109b384610965565b61094a565b9050828152602081018484840111156109d4576109d36108d4565b5b6109df848285610996565b509392505050565b600082601f8301126109fc576109fb6108cf565b5b8135610a0c8482602086016109a5565b91505092915050565b600073ffffffffffffffffffffffffffffffffffffffff82169050919050565b6000610a4082610a15565b9050919050565b610a5081610a35565b8114610a5b57600080fd5b50565b600081359050610a6d81610a47565b92915050565b60008060408385031215610a8a57610a896108c5565b5b600083013567ffffffffffffffff811115610aa857610aa76108ca565b5b610ab4858286016109e7565b9250506020610ac585828601610a5e565b9150509250929050565b60008115159050919050565b610ae481610acf565b82525050565b6000602082019050610aff6000830184610adb565b92915050565b610b0e81610a35565b82525050565b6000602082019050610b296000830184610b05565b92915050565b600060208284031215610b4557610b446108c5565b5b600082013567ffffffffffffffff811115610b6357610b626108ca565b5b610b6f848285016109e7565b91505092915050565b6000819050919050565b610b8b81610b78565b82525050565b6000602082019050610ba66000830184610b82565b92915050565b610bb581610b78565b8114610bc057600080fd5b50565b600081359050610bd281610bac565b92915050565b60008060408385031215610bef57610bee6108c5565b5b600083013567ffffffffffffffff811115610c0d57610c0c6108ca565b5b610c19858286016109e7565b9250506020610c2a85828601610bc3565b9150509250929050565b600060208284031215610c4a57610c496108c5565b5b6000610c5884828501610a5e565b91505092915050565b600082825260208201905092915050565b7f4f776e61626c653a206e6577206f776e657220697320746865207a65726f206160008201527f6464726573730000000000000000000000000000000000000000000000000000602082015250565b6000610cce602683610c61565b9150610cd982610c72565b604082019050919050565b60006020820190508181036000830152610cfd81610cc1565b9050919050565b7f4f776e61626c653a2063616c6c6572206973206e6f7420746865206f776e6572600082015250565b6000610d3a602083610c61565b9150610d4582610d04565b602082019050919050565b60006020820190508181036000830152610d6981610d2d565b9050919050565b600081519050919050565b600081905092915050565b60005b83811015610da4578082015181840152602081019050610d89565b60008484015250505050565b6000610dbb82610d70565b610dc58185610d7b565b9350610dd5818560208601610d86565b80840191505092915050565b6000610ded8284610db0565b915081905092915050565b7f4d6f64756c65206d61746368206e6f7420666f756e642e000000000000000000600082015250565b6000610e2e601783610c61565b9150610e3982610df8565b602082019050919050565b60006020820190508181036000830152610e5d81610e21565b9050919050565b7f4d6f64756c65206d6174636820666f756e642e00000000000000000000000000600082015250565b6000610e9a601383610c61565b9150610ea582610e64565b602082019050919050565b60006020820190508181036000830152610ec981610e8d565b9050919050565b7f4e487b7100000000000000000000000000000000000000000000000000000000600052601160045260246000fd5b6000610f0a82610b78565b9150610f1583610b78565b9250828201905080821115610f2d57610f2c610ed0565b5b92915050565b6000610f3e82610b78565b9150610f4983610b78565b9250828203905081811115610f6157610f60610ed0565b5b92915050565b7f56657273696f6e206d61746368206e6f7420666f756e642e0000000000000000600082015250565b6000610f9d601883610c61565b9150610fa882610f67565b602082019050919050565b60006020820190508181036000830152610fcc81610f90565b9050919050565b7f4e487b7100000000000000000000000000000000000000000000000000000000600052603260045260246000fdfea26469706673582212204ddd2321465f638fc109eaed67d8206a7ca2ea12ead6ffe89ad8f64ff81d048164736f6c63430008130033",
					"opcodes": "PUSH1 0x80 PUSH1 0x40 MSTORE CALLVALUE DUP1 ISZERO PUSH3 0x11 JUMPI PUSH1 0x0 DUP1 REVERT JUMPDEST POP PUSH1 0x40 MLOAD PUSH3 0x11F9 CODESIZE SUB DUP1 PUSH3 0x11F9 DUP4 CODECOPY DUP2 DUP2 ADD PUSH1 0x40 MSTORE DUP2 ADD SWAP1 PUSH3 0x37 SWAP2 SWAP1 PUSH3 0x17F JUMP JUMPDEST DUP1 PUSH3 0x49 DUP2 PUSH3 0x51 PUSH1 0x20 SHL PUSH1 0x20 SHR JUMP JUMPDEST POP POP PUSH3 0x1B1 JUMP JUMPDEST PUSH1 0x0 DUP1 PUSH1 0x0 SWAP1 SLOAD SWAP1 PUSH2 0x100 EXP SWAP1 DIV PUSH20 0xFFFFFFFFFFFFFFFFFFFFFFFFFFFFFFFFFFFFFFFF AND SWAP1 POP DUP2 PUSH1 0x0 DUP1 PUSH2 0x100 EXP DUP2 SLOAD DUP2 PUSH20 0xFFFFFFFFFFFFFFFFFFFFFFFFFFFFFFFFFFFFFFFF MUL NOT AND SWAP1 DUP4 PUSH20 0xFFFFFFFFFFFFFFFFFFFFFFFFFFFFFFFFFFFFFFFF AND MUL OR SWAP1 SSTORE POP DUP2 PUSH20 0xFFFFFFFFFFFFFFFFFFFFFFFFFFFFFFFFFFFFFFFF AND DUP2 PUSH20 0xFFFFFFFFFFFFFFFFFFFFFFFFFFFFFFFFFFFFFFFF AND PUSH32 0x8BE0079C531659141344CD1FD0A4F28419497F9722A3DAAFE3B4186F6B6457E0 PUSH1 0x40 MLOAD PUSH1 0x40 MLOAD DUP1 SWAP2 SUB SWAP1 LOG3 POP POP JUMP JUMPDEST PUSH1 0x0 DUP1 REVERT JUMPDEST PUSH1 0x0 PUSH20 0xFFFFFFFFFFFFFFFFFFFFFFFFFFFFFFFFFFFFFFFF DUP3 AND SWAP1 POP SWAP2 SWAP1 POP JUMP JUMPDEST PUSH1 0x0 PUSH3 0x147 DUP3 PUSH3 0x11A JUMP JUMPDEST SWAP1 POP SWAP2 SWAP1 POP JUMP JUMPDEST PUSH3 0x159 DUP2 PUSH3 0x13A JUMP JUMPDEST DUP2 EQ PUSH3 0x165 JUMPI PUSH1 0x0 DUP1 REVERT JUMPDEST POP JUMP JUMPDEST PUSH1 0x0 DUP2 MLOAD SWAP1 POP PUSH3 0x179 DUP2 PUSH3 0x14E JUMP JUMPDEST SWAP3 SWAP2 POP POP JUMP JUMPDEST PUSH1 0x0 PUSH1 0x20 DUP3 DUP5 SUB SLT ISZERO PUSH3 0x198 JUMPI PUSH3 0x197 PUSH3 0x115 JUMP JUMPDEST JUMPDEST PUSH1 0x0 PUSH3 0x1A8 DUP5 DUP3 DUP6 ADD PUSH3 0x168 JUMP JUMPDEST SWAP2 POP POP SWAP3 SWAP2 POP POP JUMP JUMPDEST PUSH2 0x1038 DUP1 PUSH3 0x1C1 PUSH1 0x0 CODECOPY PUSH1 0x0 RETURN INVALID PUSH1 0x80 PUSH1 0x40 MSTORE CALLVALUE DUP1 ISZERO PUSH2 0x10 JUMPI PUSH1 0x0 DUP1 REVERT JUMPDEST POP PUSH1 0x4 CALLDATASIZE LT PUSH2 0x93 JUMPI PUSH1 0x0 CALLDATALOAD PUSH1 0xE0 SHR DUP1 PUSH4 0xCAE96761 GT PUSH2 0x66 JUMPI DUP1 PUSH4 0xCAE96761 EQ PUSH2 0x120 JUMPI DUP1 PUSH4 0xD285F839 EQ PUSH2 0x150 JUMPI DUP1 PUSH4 0xE8009DDA EQ PUSH2 0x180 JUMPI DUP1 PUSH4 0xF2FDE38B EQ PUSH2 0x1B0 JUMPI DUP1 PUSH4 0xF3F342FA EQ PUSH2 0x1CC JUMPI PUSH2 0x93 JUMP JUMPDEST DUP1 PUSH4 0x5332C74D EQ PUSH2 0x98 JUMPI DUP1 PUSH4 0x715018A6 EQ PUSH2 0xC8 JUMPI DUP1 PUSH4 0x84B47B0F EQ PUSH2 0xD2 JUMPI DUP1 PUSH4 0x8DA5CB5B EQ PUSH2 0x102 JUMPI JUMPDEST PUSH1 0x0 DUP1 REVERT JUMPDEST PUSH2 0xB2 PUSH1 0x4 DUP1 CALLDATASIZE SUB DUP2 ADD SWAP1 PUSH2 0xAD SWAP2 SWAP1 PUSH2 0xA73 JUMP JUMPDEST PUSH2 0x1EA JUMP JUMPDEST PUSH1 0x40 MLOAD PUSH2 0xBF SWAP2 SWAP1 PUSH2 0xAEA JUMP JUMPDEST PUSH1 0x40 MLOAD DUP1 SWAP2 SUB SWAP1 RETURN JUMPDEST PUSH2 0xD0 PUSH2 0x206 JUMP JUMPDEST STOP JUMPDEST PUSH2 0xEC PUSH1 0x4 DUP1 CALLDATASIZE SUB DUP2 ADD SWAP1 PUSH2 0xE7 SWAP2 SWAP1 PUSH2 0xA73 JUMP JUMPDEST PUSH2 0x21A JUMP JUMPDEST PUSH1 0x40 MLOAD PUSH2 0xF9 SWAP2 SWAP1 PUSH2 0xAEA JUMP JUMPDEST PUSH1 0x40 MLOAD DUP1 SWAP2 SUB SWAP1 RETURN JUMPDEST PUSH2 0x10A PUSH2 0x236 JUMP JUMPDEST PUSH1 0x40 MLOAD PUSH2 0x117 SWAP2 SWAP1 PUSH2 0xB14 JUMP JUMPDEST PUSH1 0x40 MLOAD DUP1 SWAP2 SUB SWAP1 RETURN JUMPDEST PUSH2 0x13A PUSH1 0x4 DUP1 CALLDATASIZE SUB DUP2 ADD SWAP1 PUSH2 0x135 SWAP2 SWAP1 PUSH2 0xB2F JUMP JUMPDEST PUSH2 0x25F JUMP JUMPDEST PUSH1 0x40 MLOAD PUSH2 0x147 SWAP2 SWAP1 PUSH2 0xB91 JUMP JUMPDEST PUSH1 0x40 MLOAD DUP1 SWAP2 SUB SWAP1 RETURN JUMPDEST PUSH2 0x16A PUSH1 0x4 DUP1 CALLDATASIZE SUB DUP2 ADD SWAP1 PUSH2 0x165 SWAP2 SWAP1 PUSH2 0xB2F JUMP JUMPDEST PUSH2 0x271 JUMP JUMPDEST PUSH1 0x40 MLOAD PUSH2 0x177 SWAP2 SWAP1 PUSH2 0xB14 JUMP JUMPDEST PUSH1 0x40 MLOAD DUP1 SWAP2 SUB SWAP1 RETURN JUMPDEST PUSH2 0x19A PUSH1 0x4 DUP1 CALLDATASIZE SUB DUP2 ADD SWAP1 PUSH2 0x195 SWAP2 SWAP1 PUSH2 0xBD8 JUMP JUMPDEST PUSH2 0x283 JUMP JUMPDEST PUSH1 0x40 MLOAD PUSH2 0x1A7 SWAP2 SWAP1 PUSH2 0xB14 JUMP JUMPDEST PUSH1 0x40 MLOAD DUP1 SWAP2 SUB SWAP1 RETURN JUMPDEST PUSH2 0x1CA PUSH1 0x4 DUP1 CALLDATASIZE SUB DUP2 ADD SWAP1 PUSH2 0x1C5 SWAP2 SWAP1 PUSH2 0xC34 JUMP JUMPDEST PUSH2 0x297 JUMP JUMPDEST STOP JUMPDEST PUSH2 0x1D4 PUSH2 0x31A JUMP JUMPDEST PUSH1 0x40 MLOAD PUSH2 0x1E1 SWAP2 SWAP1 PUSH2 0xB91 JUMP JUMPDEST PUSH1 0x40 MLOAD DUP1 SWAP2 SUB SWAP1 RETURN JUMPDEST PUSH1 0x0 PUSH2 0x1F4 PUSH2 0x320 JUMP JUMPDEST PUSH2 0x1FE DUP4 DUP4 PUSH2 0x39E JUMP JUMPDEST SWAP1 POP SWAP3 SWAP2 POP POP JUMP JUMPDEST PUSH2 0x20E PUSH2 0x320 JUMP JUMPDEST PUSH2 0x218 PUSH1 0x0 PUSH2 0x49E JUMP JUMPDEST JUMP JUMPDEST PUSH1 0x0 PUSH2 0x224 PUSH2 0x320 JUMP JUMPDEST PUSH2 0x22E DUP4 DUP4 PUSH2 0x562 JUMP JUMPDEST SWAP1 POP SWAP3 SWAP2 POP POP JUMP JUMPDEST PUSH1 0x0 DUP1 PUSH1 0x0 SWAP1 SLOAD SWAP1 PUSH2 0x100 EXP SWAP1 DIV PUSH20 0xFFFFFFFFFFFFFFFFFFFFFFFFFFFFFFFFFFFFFFFF AND SWAP1 POP SWAP1 JUMP JUMPDEST PUSH1 0x0 PUSH2 0x26A DUP3 PUSH2 0x67B JUMP JUMPDEST SWAP1 POP SWAP2 SWAP1 POP JUMP JUMPDEST PUSH1 0x0 PUSH2 0x27C DUP3 PUSH2 0x6B6 JUMP JUMPDEST SWAP1 POP SWAP2 SWAP1 POP JUMP JUMPDEST PUSH1 0x0 PUSH2 0x28F DUP4 DUP4 PUSH2 0x6FC JUMP JUMPDEST SWAP1 POP SWAP3 SWAP2 POP POP JUMP JUMPDEST PUSH2 0x29F PUSH2 0x320 JUMP JUMPDEST PUSH1 0x0 PUSH20 0xFFFFFFFFFFFFFFFFFFFFFFFFFFFFFFFFFFFFFFFF AND DUP2 PUSH20 0xFFFFFFFFFFFFFFFFFFFFFFFFFFFFFFFFFFFFFFFF AND SUB PUSH2 0x30E JUMPI PUSH1 0x40 MLOAD PUSH32 0x8C379A000000000000000000000000000000000000000000000000000000000 DUP2 MSTORE PUSH1 0x4 ADD PUSH2 0x305 SWAP1 PUSH2 0xCE4 JUMP JUMPDEST PUSH1 0x40 MLOAD DUP1 SWAP2 SUB SWAP1 REVERT JUMPDEST PUSH2 0x317 DUP2 PUSH2 0x49E JUMP JUMPDEST POP JUMP JUMPDEST PUSH1 0x1 SLOAD DUP2 JUMP JUMPDEST PUSH2 0x328 PUSH2 0x785 JUMP JUMPDEST PUSH20 0xFFFFFFFFFFFFFFFFFFFFFFFFFFFFFFFFFFFFFFFF AND PUSH2 0x346 PUSH2 0x236 JUMP JUMPDEST PUSH20 0xFFFFFFFFFFFFFFFFFFFFFFFFFFFFFFFFFFFFFFFF AND EQ PUSH2 0x39C JUMPI PUSH1 0x40 MLOAD PUSH32 0x8C379A000000000000000000000000000000000000000000000000000000000 DUP2 MSTORE PUSH1 0x4 ADD PUSH2 0x393 SWAP1 PUSH2 0xD50 JUMP JUMPDEST PUSH1 0x40 MLOAD DUP1 SWAP2 SUB SWAP1 REVERT JUMPDEST JUMP JUMPDEST PUSH1 0x0 DUP3 PUSH1 0x0 PUSH2 0x3C9 PUSH1 0x2 DUP4 PUSH1 0x40 MLOAD PUSH2 0x3B6 SWAP2 SWAP1 PUSH2 0xDE1 JUMP JUMPDEST SWAP1 DUP2 MSTORE PUSH1 0x20 ADD PUSH1 0x40 MLOAD DUP1 SWAP2 SUB SWAP1 KECCAK256 PUSH2 0x78D JUMP JUMPDEST GT PUSH2 0x409 JUMPI PUSH1 0x40 MLOAD PUSH32 0x8C379A000000000000000000000000000000000000000000000000000000000 DUP2 MSTORE PUSH1 0x4 ADD PUSH2 0x400 SWAP1 PUSH2 0xE44 JUMP JUMPDEST PUSH1 0x40 MLOAD DUP1 SWAP2 SUB SWAP1 REVERT JUMPDEST PUSH2 0x439 DUP4 PUSH1 0x2 DUP7 PUSH1 0x40 MLOAD PUSH2 0x41D SWAP2 SWAP1 PUSH2 0xDE1 JUMP JUMPDEST SWAP1 DUP2 MSTORE PUSH1 0x20 ADD PUSH1 0x40 MLOAD DUP1 SWAP2 SUB SWAP1 KECCAK256 PUSH2 0x7A2 SWAP1 SWAP2 SWAP1 PUSH4 0xFFFFFFFF AND JUMP JUMPDEST POP DUP3 PUSH20 0xFFFFFFFFFFFFFFFFFFFFFFFFFFFFFFFFFFFFFFFF AND DUP5 PUSH1 0x40 MLOAD PUSH2 0x45F SWAP2 SWAP1 PUSH2 0xDE1 JUMP JUMPDEST PUSH1 0x40 MLOAD DUP1 SWAP2 SUB SWAP1 KECCAK256 PUSH32 0x1F13CAEB007F29CD5FC6F97BCFF68492C71932A30B875A50BD24A06F71B719BD PUSH1 0x40 MLOAD PUSH1 0x40 MLOAD DUP1 SWAP2 SUB SWAP1 LOG3 PUSH1 0x1 SWAP2 POP POP SWAP3 SWAP2 POP POP JUMP JUMPDEST PUSH1 0x0 DUP1 PUSH1 0x0 SWAP1 SLOAD SWAP1 PUSH2 0x100 EXP SWAP1 DIV PUSH20 0xFFFFFFFFFFFFFFFFFFFFFFFFFFFFFFFFFFFFFFFF AND SWAP1 POP DUP2 PUSH1 0x0 DUP1 PUSH2 0x100 EXP DUP2 SLOAD DUP2 PUSH20 0xFFFFFFFFFFFFFFFFFFFFFFFFFFFFFFFFFFFFFFFF MUL NOT AND SWAP1 DUP4 PUSH20 0xFFFFFFFFFFFFFFFFFFFFFFFFFFFFFFFFFFFFFFFF AND MUL OR SWAP1 SSTORE POP DUP2 PUSH20 0xFFFFFFFFFFFFFFFFFFFFFFFFFFFFFFFFFFFFFFFF AND DUP2 PUSH20 0xFFFFFFFFFFFFFFFFFFFFFFFFFFFFFFFFFFFFFFFF AND PUSH32 0x8BE0079C531659141344CD1FD0A4F28419497F9722A3DAAFE3B4186F6B6457E0 PUSH1 0x40 MLOAD PUSH1 0x40 MLOAD DUP1 SWAP2 SUB SWAP1 LOG3 POP POP JUMP JUMPDEST PUSH1 0x0 DUP3 PUSH1 0x1 PUSH2 0x58D PUSH1 0x2 DUP4 PUSH1 0x40 MLOAD PUSH2 0x57A SWAP2 SWAP1 PUSH2 0xDE1 JUMP JUMPDEST SWAP1 DUP2 MSTORE PUSH1 0x20 ADD PUSH1 0x40 MLOAD DUP1 SWAP2 SUB SWAP1 KECCAK256 PUSH2 0x78D JUMP JUMPDEST LT PUSH2 0x5CD JUMPI PUSH1 0x40 MLOAD PUSH32 0x8C379A000000000000000000000000000000000000000000000000000000000 DUP2 MSTORE PUSH1 0x4 ADD PUSH2 0x5C4 SWAP1 PUSH2 0xEB0 JUMP JUMPDEST PUSH1 0x40 MLOAD DUP1 SWAP2 SUB SWAP1 REVERT JUMPDEST PUSH1 0x1 DUP1 PUSH1 0x0 DUP3 DUP3 SLOAD PUSH2 0x5DF SWAP2 SWAP1 PUSH2 0xEFF JUMP JUMPDEST SWAP3 POP POP DUP2 SWAP1 SSTORE POP PUSH2 0x616 DUP4 PUSH1 0x2 DUP7 PUSH1 0x40 MLOAD PUSH2 0x5FA SWAP2 SWAP1 PUSH2 0xDE1 JUMP JUMPDEST SWAP1 DUP2 MSTORE PUSH1 0x20 ADD PUSH1 0x40 MLOAD DUP1 SWAP2 SUB SWAP1 KECCAK256 PUSH2 0x7A2 SWAP1 SWAP2 SWAP1 PUSH4 0xFFFFFFFF AND JUMP JUMPDEST POP DUP3 PUSH20 0xFFFFFFFFFFFFFFFFFFFFFFFFFFFFFFFFFFFFFFFF AND DUP5 PUSH1 0x40 MLOAD PUSH2 0x63C SWAP2 SWAP1 PUSH2 0xDE1 JUMP JUMPDEST PUSH1 0x40 MLOAD DUP1 SWAP2 SUB SWAP1 KECCAK256 PUSH32 0x5C4C07A550B4BD2216246C5553EC40F10AC1D74F9FAC670B6505F0757F08F996 PUSH1 0x40 MLOAD PUSH1 0x40 MLOAD DUP1 SWAP2 SUB SWAP1 LOG3 PUSH1 0x1 SWAP2 POP POP SWAP3 SWAP2 POP POP JUMP JUMPDEST PUSH1 0x0 PUSH1 0x1 PUSH2 0x6A5 PUSH1 0x2 DUP5 PUSH1 0x40 MLOAD PUSH2 0x692 SWAP2 SWAP1 PUSH2 0xDE1 JUMP JUMPDEST SWAP1 DUP2 MSTORE PUSH1 0x20 ADD PUSH1 0x40 MLOAD DUP1 SWAP2 SUB SWAP1 KECCAK256 PUSH2 0x78D JUMP JUMPDEST PUSH2 0x6AF SWAP2 SWAP1 PUSH2 0xF33 JUMP JUMPDEST SWAP1 POP SWAP2 SWAP1 POP JUMP JUMPDEST PUSH1 0x0 DUP1 PUSH2 0x6C2 DUP4 PUSH2 0x67B JUMP JUMPDEST SWAP1 POP PUSH2 0x6F4 DUP2 PUSH1 0x2 DUP6 PUSH1 0x40 MLOAD PUSH2 0x6D8 SWAP2 SWAP1 PUSH2 0xDE1 JUMP JUMPDEST SWAP1 DUP2 MSTORE PUSH1 0x20 ADD PUSH1 0x40 MLOAD DUP1 SWAP2 SUB SWAP1 KECCAK256 PUSH2 0x7D2 SWAP1 SWAP2 SWAP1 PUSH4 0xFFFFFFFF AND JUMP JUMPDEST SWAP2 POP POP SWAP2 SWAP1 POP JUMP JUMPDEST PUSH1 0x0 DUP3 DUP3 PUSH2 0x709 DUP3 PUSH2 0x67B JUMP JUMPDEST DUP2 GT ISZERO PUSH2 0x74B JUMPI PUSH1 0x40 MLOAD PUSH32 0x8C379A000000000000000000000000000000000000000000000000000000000 DUP2 MSTORE PUSH1 0x4 ADD PUSH2 0x742 SWAP1 PUSH2 0xFB3 JUMP JUMPDEST PUSH1 0x40 MLOAD DUP1 SWAP2 SUB SWAP1 REVERT JUMPDEST PUSH2 0x77B DUP5 PUSH1 0x2 DUP8 PUSH1 0x40 MLOAD PUSH2 0x75F SWAP2 SWAP1 PUSH2 0xDE1 JUMP JUMPDEST SWAP1 DUP2 MSTORE PUSH1 0x20 ADD PUSH1 0x40 MLOAD DUP1 SWAP2 SUB SWAP1 KECCAK256 PUSH2 0x7D2 SWAP1 SWAP2 SWAP1 PUSH4 0xFFFFFFFF AND JUMP JUMPDEST SWAP3 POP POP POP SWAP3 SWAP2 POP POP JUMP JUMPDEST PUSH1 0x0 CALLER SWAP1 POP SWAP1 JUMP JUMPDEST PUSH1 0x0 PUSH2 0x79B DUP3 PUSH1 0x0 ADD PUSH2 0x7EC JUMP JUMPDEST SWAP1 POP SWAP2 SWAP1 POP JUMP JUMPDEST PUSH1 0x0 PUSH2 0x7CA DUP4 PUSH1 0x0 ADD DUP4 PUSH20 0xFFFFFFFFFFFFFFFFFFFFFFFFFFFFFFFFFFFFFFFF AND PUSH1 0x0 SHL PUSH2 0x7FD JUMP JUMPDEST SWAP1 POP SWAP3 SWAP2 POP POP JUMP JUMPDEST PUSH1 0x0 PUSH2 0x7E1 DUP4 PUSH1 0x0 ADD DUP4 PUSH2 0x86D JUMP JUMPDEST PUSH1 0x0 SHR SWAP1 POP SWAP3 SWAP2 POP POP JUMP JUMPDEST PUSH1 0x0 DUP2 PUSH1 0x0 ADD DUP1 SLOAD SWAP1 POP SWAP1 POP SWAP2 SWAP1 POP JUMP JUMPDEST PUSH1 0x0 PUSH2 0x809 DUP4 DUP4 PUSH2 0x898 JUMP JUMPDEST PUSH2 0x862 JUMPI DUP3 PUSH1 0x0 ADD DUP3 SWAP1 DUP1 PUSH1 0x1 DUP2 SLOAD ADD DUP1 DUP3 SSTORE DUP1 SWAP2 POP POP PUSH1 0x1 SWAP1 SUB SWAP1 PUSH1 0x0 MSTORE PUSH1 0x20 PUSH1 0x0 KECCAK256 ADD PUSH1 0x0 SWAP1 SWAP2 SWAP1 SWAP2 SWAP1 SWAP2 POP SSTORE DUP3 PUSH1 0x0 ADD DUP1 SLOAD SWAP1 POP DUP4 PUSH1 0x1 ADD PUSH1 0x0 DUP5 DUP2 MSTORE PUSH1 0x20 ADD SWAP1 DUP2 MSTORE PUSH1 0x20 ADD PUSH1 0x0 KECCAK256 DUP2 SWAP1 SSTORE POP PUSH1 0x1 SWAP1 POP PUSH2 0x867 JUMP JUMPDEST PUSH1 0x0 SWAP1 POP JUMPDEST SWAP3 SWAP2 POP POP JUMP JUMPDEST PUSH1 0x0 DUP3 PUSH1 0x0 ADD DUP3 DUP2 SLOAD DUP2 LT PUSH2 0x885 JUMPI PUSH2 0x884 PUSH2 0xFD3 JUMP JUMPDEST JUMPDEST SWAP1 PUSH1 0x0 MSTORE PUSH1 0x20 PUSH1 0x0 KECCAK256 ADD SLOAD SWAP1 POP SWAP3 SWAP2 POP POP JUMP JUMPDEST PUSH1 0x0 DUP1 DUP4 PUSH1 0x1 ADD PUSH1 0x0 DUP5 DUP2 MSTORE PUSH1 0x20 ADD SWAP1 DUP2 MSTORE PUSH1 0x20 ADD PUSH1 0x0 KECCAK256 SLOAD EQ ISZERO SWAP1 POP SWAP3 SWAP2 POP POP JUMP JUMPDEST PUSH1 0x0 PUSH1 0x40 MLOAD SWAP1 POP SWAP1 JUMP JUMPDEST PUSH1 0x0 DUP1 REVERT JUMPDEST PUSH1 0x0 DUP1 REVERT JUMPDEST PUSH1 0x0 DUP1 REVERT JUMPDEST PUSH1 0x0 DUP1 REVERT JUMPDEST PUSH1 0x0 PUSH1 0x1F NOT PUSH1 0x1F DUP4 ADD AND SWAP1 POP SWAP2 SWAP1 POP JUMP JUMPDEST PUSH32 0x4E487B7100000000000000000000000000000000000000000000000000000000 PUSH1 0x0 MSTORE PUSH1 0x41 PUSH1 0x4 MSTORE PUSH1 0x24 PUSH1 0x0 REVERT JUMPDEST PUSH2 0x922 DUP3 PUSH2 0x8D9 JUMP JUMPDEST DUP2 ADD DUP2 DUP2 LT PUSH8 0xFFFFFFFFFFFFFFFF DUP3 GT OR ISZERO PUSH2 0x941 JUMPI PUSH2 0x940 PUSH2 0x8EA JUMP JUMPDEST JUMPDEST DUP1 PUSH1 0x40 MSTORE POP POP POP JUMP JUMPDEST PUSH1 0x0 PUSH2 0x954 PUSH2 0x8BB JUMP JUMPDEST SWAP1 POP PUSH2 0x960 DUP3 DUP3 PUSH2 0x919 JUMP JUMPDEST SWAP2 SWAP1 POP JUMP JUMPDEST PUSH1 0x0 PUSH8 0xFFFFFFFFFFFFFFFF DUP3 GT ISZERO PUSH2 0x980 JUMPI PUSH2 0x97F PUSH2 0x8EA JUMP JUMPDEST JUMPDEST PUSH2 0x989 DUP3 PUSH2 0x8D9 JUMP JUMPDEST SWAP1 POP PUSH1 0x20 DUP2 ADD SWAP1 POP SWAP2 SWAP1 POP JUMP JUMPDEST DUP3 DUP2 DUP4 CALLDATACOPY PUSH1 0x0 DUP4 DUP4 ADD MSTORE POP POP POP JUMP JUMPDEST PUSH1 0x0 PUSH2 0x9B8 PUSH2 0x9B3 DUP5 PUSH2 0x965 JUMP JUMPDEST PUSH2 0x94A JUMP JUMPDEST SWAP1 POP DUP3 DUP2 MSTORE PUSH1 0x20 DUP2 ADD DUP5 DUP5 DUP5 ADD GT ISZERO PUSH2 0x9D4 JUMPI PUSH2 0x9D3 PUSH2 0x8D4 JUMP JUMPDEST JUMPDEST PUSH2 0x9DF DUP5 DUP3 DUP6 PUSH2 0x996 JUMP JUMPDEST POP SWAP4 SWAP3 POP POP POP JUMP JUMPDEST PUSH1 0x0 DUP3 PUSH1 0x1F DUP4 ADD SLT PUSH2 0x9FC JUMPI PUSH2 0x9FB PUSH2 0x8CF JUMP JUMPDEST JUMPDEST DUP2 CALLDATALOAD PUSH2 0xA0C DUP5 DUP3 PUSH1 0x20 DUP7 ADD PUSH2 0x9A5 JUMP JUMPDEST SWAP2 POP POP SWAP3 SWAP2 POP POP JUMP JUMPDEST PUSH1 0x0 PUSH20 0xFFFFFFFFFFFFFFFFFFFFFFFFFFFFFFFFFFFFFFFF DUP3 AND SWAP1 POP SWAP2 SWAP1 POP JUMP JUMPDEST PUSH1 0x0 PUSH2 0xA40 DUP3 PUSH2 0xA15 JUMP JUMPDEST SWAP1 POP SWAP2 SWAP1 POP JUMP JUMPDEST PUSH2 0xA50 DUP2 PUSH2 0xA35 JUMP JUMPDEST DUP2 EQ PUSH2 0xA5B JUMPI PUSH1 0x0 DUP1 REVERT JUMPDEST POP JUMP JUMPDEST PUSH1 0x0 DUP2 CALLDATALOAD SWAP1 POP PUSH2 0xA6D DUP2 PUSH2 0xA47 JUMP JUMPDEST SWAP3 SWAP2 POP POP JUMP JUMPDEST PUSH1 0x0 DUP1 PUSH1 0x40 DUP4 DUP6 SUB SLT ISZERO PUSH2 0xA8A JUMPI PUSH2 0xA89 PUSH2 0x8C5 JUMP JUMPDEST JUMPDEST PUSH1 0x0 DUP4 ADD CALLDATALOAD PUSH8 0xFFFFFFFFFFFFFFFF DUP2 GT ISZERO PUSH2 0xAA8 JUMPI PUSH2 0xAA7 PUSH2 0x8CA JUMP JUMPDEST JUMPDEST PUSH2 0xAB4 DUP6 DUP3 DUP7 ADD PUSH2 0x9E7 JUMP JUMPDEST SWAP3 POP POP PUSH1 0x20 PUSH2 0xAC5 DUP6 DUP3 DUP7 ADD PUSH2 0xA5E JUMP JUMPDEST SWAP2 POP POP SWAP3 POP SWAP3 SWAP1 POP JUMP JUMPDEST PUSH1 0x0 DUP2 ISZERO ISZERO SWAP1 POP SWAP2 SWAP1 POP JUMP JUMPDEST PUSH2 0xAE4 DUP2 PUSH2 0xACF JUMP JUMPDEST DUP3 MSTORE POP POP JUMP JUMPDEST PUSH1 0x0 PUSH1 0x20 DUP3 ADD SWAP1 POP PUSH2 0xAFF PUSH1 0x0 DUP4 ADD DUP5 PUSH2 0xADB JUMP JUMPDEST SWAP3 SWAP2 POP POP JUMP JUMPDEST PUSH2 0xB0E DUP2 PUSH2 0xA35 JUMP JUMPDEST DUP3 MSTORE POP POP JUMP JUMPDEST PUSH1 0x0 PUSH1 0x20 DUP3 ADD SWAP1 POP PUSH2 0xB29 PUSH1 0x0 DUP4 ADD DUP5 PUSH2 0xB05 JUMP JUMPDEST SWAP3 SWAP2 POP POP JUMP JUMPDEST PUSH1 0x0 PUSH1 0x20 DUP3 DUP5 SUB SLT ISZERO PUSH2 0xB45 JUMPI PUSH2 0xB44 PUSH2 0x8C5 JUMP JUMPDEST JUMPDEST PUSH1 0x0 DUP3 ADD CALLDATALOAD PUSH8 0xFFFFFFFFFFFFFFFF DUP2 GT ISZERO PUSH2 0xB63 JUMPI PUSH2 0xB62 PUSH2 0x8CA JUMP JUMPDEST JUMPDEST PUSH2 0xB6F DUP5 DUP3 DUP6 ADD PUSH2 0x9E7 JUMP JUMPDEST SWAP2 POP POP SWAP3 SWAP2 POP POP JUMP JUMPDEST PUSH1 0x0 DUP2 SWAP1 POP SWAP2 SWAP1 POP JUMP JUMPDEST PUSH2 0xB8B DUP2 PUSH2 0xB78 JUMP JUMPDEST DUP3 MSTORE POP POP JUMP JUMPDEST PUSH1 0x0 PUSH1 0x20 DUP3 ADD SWAP1 POP PUSH2 0xBA6 PUSH1 0x0 DUP4 ADD DUP5 PUSH2 0xB82 JUMP JUMPDEST SWAP3 SWAP2 POP POP JUMP JUMPDEST PUSH2 0xBB5 DUP2 PUSH2 0xB78 JUMP JUMPDEST DUP2 EQ PUSH2 0xBC0 JUMPI PUSH1 0x0 DUP1 REVERT JUMPDEST POP JUMP JUMPDEST PUSH1 0x0 DUP2 CALLDATALOAD SWAP1 POP PUSH2 0xBD2 DUP2 PUSH2 0xBAC JUMP JUMPDEST SWAP3 SWAP2 POP POP JUMP JUMPDEST PUSH1 0x0 DUP1 PUSH1 0x40 DUP4 DUP6 SUB SLT ISZERO PUSH2 0xBEF JUMPI PUSH2 0xBEE PUSH2 0x8C5 JUMP JUMPDEST JUMPDEST PUSH1 0x0 DUP4 ADD CALLDATALOAD PUSH8 0xFFFFFFFFFFFFFFFF DUP2 GT ISZERO PUSH2 0xC0D JUMPI PUSH2 0xC0C PUSH2 0x8CA JUMP JUMPDEST JUMPDEST PUSH2 0xC19 DUP6 DUP3 DUP7 ADD PUSH2 0x9E7 JUMP JUMPDEST SWAP3 POP POP PUSH1 0x20 PUSH2 0xC2A DUP6 DUP3 DUP7 ADD PUSH2 0xBC3 JUMP JUMPDEST SWAP2 POP POP SWAP3 POP SWAP3 SWAP1 POP JUMP JUMPDEST PUSH1 0x0 PUSH1 0x20 DUP3 DUP5 SUB SLT ISZERO PUSH2 0xC4A JUMPI PUSH2 0xC49 PUSH2 0x8C5 JUMP JUMPDEST JUMPDEST PUSH1 0x0 PUSH2 0xC58 DUP5 DUP3 DUP6 ADD PUSH2 0xA5E JUMP JUMPDEST SWAP2 POP POP SWAP3 SWAP2 POP POP JUMP JUMPDEST PUSH1 0x0 DUP3 DUP3 MSTORE PUSH1 0x20 DUP3 ADD SWAP1 POP SWAP3 SWAP2 POP POP JUMP JUMPDEST PUSH32 0x4F776E61626C653A206E6577206F776E657220697320746865207A65726F2061 PUSH1 0x0 DUP3 ADD MSTORE PUSH32 0x6464726573730000000000000000000000000000000000000000000000000000 PUSH1 0x20 DUP3 ADD MSTORE POP JUMP JUMPDEST PUSH1 0x0 PUSH2 0xCCE PUSH1 0x26 DUP4 PUSH2 0xC61 JUMP JUMPDEST SWAP2 POP PUSH2 0xCD9 DUP3 PUSH2 0xC72 JUMP JUMPDEST PUSH1 0x40 DUP3 ADD SWAP1 POP SWAP2 SWAP1 POP JUMP JUMPDEST PUSH1 0x0 PUSH1 0x20 DUP3 ADD SWAP1 POP DUP2 DUP2 SUB PUSH1 0x0 DUP4 ADD MSTORE PUSH2 0xCFD DUP2 PUSH2 0xCC1 JUMP JUMPDEST SWAP1 POP SWAP2 SWAP1 POP JUMP JUMPDEST PUSH32 0x4F776E61626C653A2063616C6C6572206973206E6F7420746865206F776E6572 PUSH1 0x0 DUP3 ADD MSTORE POP JUMP JUMPDEST PUSH1 0x0 PUSH2 0xD3A PUSH1 0x20 DUP4 PUSH2 0xC61 JUMP JUMPDEST SWAP2 POP PUSH2 0xD45 DUP3 PUSH2 0xD04 JUMP JUMPDEST PUSH1 0x20 DUP3 ADD SWAP1 POP SWAP2 SWAP1 POP JUMP JUMPDEST PUSH1 0x0 PUSH1 0x20 DUP3 ADD SWAP1 POP DUP2 DUP2 SUB PUSH1 0x0 DUP4 ADD MSTORE PUSH2 0xD69 DUP2 PUSH2 0xD2D JUMP JUMPDEST SWAP1 POP SWAP2 SWAP1 POP JUMP JUMPDEST PUSH1 0x0 DUP2 MLOAD SWAP1 POP SWAP2 SWAP1 POP JUMP JUMPDEST PUSH1 0x0 DUP2 SWAP1 POP SWAP3 SWAP2 POP POP JUMP JUMPDEST PUSH1 0x0 JUMPDEST DUP4 DUP2 LT ISZERO PUSH2 0xDA4 JUMPI DUP1 DUP3 ADD MLOAD DUP2 DUP5 ADD MSTORE PUSH1 0x20 DUP2 ADD SWAP1 POP PUSH2 0xD89 JUMP JUMPDEST PUSH1 0x0 DUP5 DUP5 ADD MSTORE POP POP POP POP JUMP JUMPDEST PUSH1 0x0 PUSH2 0xDBB DUP3 PUSH2 0xD70 JUMP JUMPDEST PUSH2 0xDC5 DUP2 DUP6 PUSH2 0xD7B JUMP JUMPDEST SWAP4 POP PUSH2 0xDD5 DUP2 DUP6 PUSH1 0x20 DUP7 ADD PUSH2 0xD86 JUMP JUMPDEST DUP1 DUP5 ADD SWAP2 POP POP SWAP3 SWAP2 POP POP JUMP JUMPDEST PUSH1 0x0 PUSH2 0xDED DUP3 DUP5 PUSH2 0xDB0 JUMP JUMPDEST SWAP2 POP DUP2 SWAP1 POP SWAP3 SWAP2 POP POP JUMP JUMPDEST PUSH32 0x4D6F64756C65206D61746368206E6F7420666F756E642E000000000000000000 PUSH1 0x0 DUP3 ADD MSTORE POP JUMP JUMPDEST PUSH1 0x0 PUSH2 0xE2E PUSH1 0x17 DUP4 PUSH2 0xC61 JUMP JUMPDEST SWAP2 POP PUSH2 0xE39 DUP3 PUSH2 0xDF8 JUMP JUMPDEST PUSH1 0x20 DUP3 ADD SWAP1 POP SWAP2 SWAP1 POP JUMP JUMPDEST PUSH1 0x0 PUSH1 0x20 DUP3 ADD SWAP1 POP DUP2 DUP2 SUB PUSH1 0x0 DUP4 ADD MSTORE PUSH2 0xE5D DUP2 PUSH2 0xE21 JUMP JUMPDEST SWAP1 POP SWAP2 SWAP1 POP JUMP JUMPDEST PUSH32 0x4D6F64756C65206D6174636820666F756E642E00000000000000000000000000 PUSH1 0x0 DUP3 ADD MSTORE POP JUMP JUMPDEST PUSH1 0x0 PUSH2 0xE9A PUSH1 0x13 DUP4 PUSH2 0xC61 JUMP JUMPDEST SWAP2 POP PUSH2 0xEA5 DUP3 PUSH2 0xE64 JUMP JUMPDEST PUSH1 0x20 DUP3 ADD SWAP1 POP SWAP2 SWAP1 POP JUMP JUMPDEST PUSH1 0x0 PUSH1 0x20 DUP3 ADD SWAP1 POP DUP2 DUP2 SUB PUSH1 0x0 DUP4 ADD MSTORE PUSH2 0xEC9 DUP2 PUSH2 0xE8D JUMP JUMPDEST SWAP1 POP SWAP2 SWAP1 POP JUMP JUMPDEST PUSH32 0x4E487B7100000000000000000000000000000000000000000000000000000000 PUSH1 0x0 MSTORE PUSH1 0x11 PUSH1 0x4 MSTORE PUSH1 0x24 PUSH1 0x0 REVERT JUMPDEST PUSH1 0x0 PUSH2 0xF0A DUP3 PUSH2 0xB78 JUMP JUMPDEST SWAP2 POP PUSH2 0xF15 DUP4 PUSH2 0xB78 JUMP JUMPDEST SWAP3 POP DUP3 DUP3 ADD SWAP1 POP DUP1 DUP3 GT ISZERO PUSH2 0xF2D JUMPI PUSH2 0xF2C PUSH2 0xED0 JUMP JUMPDEST JUMPDEST SWAP3 SWAP2 POP POP JUMP JUMPDEST PUSH1 0x0 PUSH2 0xF3E DUP3 PUSH2 0xB78 JUMP JUMPDEST SWAP2 POP PUSH2 0xF49 DUP4 PUSH2 0xB78 JUMP JUMPDEST SWAP3 POP DUP3 DUP3 SUB SWAP1 POP DUP2 DUP2 GT ISZERO PUSH2 0xF61 JUMPI PUSH2 0xF60 PUSH2 0xED0 JUMP JUMPDEST JUMPDEST SWAP3 SWAP2 POP POP JUMP JUMPDEST PUSH32 0x56657273696F6E206D61746368206E6F7420666F756E642E0000000000000000 PUSH1 0x0 DUP3 ADD MSTORE POP JUMP JUMPDEST PUSH1 0x0 PUSH2 0xF9D PUSH1 0x18 DUP4 PUSH2 0xC61 JUMP JUMPDEST SWAP2 POP PUSH2 0xFA8 DUP3 PUSH2 0xF67 JUMP JUMPDEST PUSH1 0x20 DUP3 ADD SWAP1 POP SWAP2 SWAP1 POP JUMP JUMPDEST PUSH1 0x0 PUSH1 0x20 DUP3 ADD SWAP1 POP DUP2 DUP2 SUB PUSH1 0x0 DUP4 ADD MSTORE PUSH2 0xFCC DUP2 PUSH2 0xF90 JUMP JUMPDEST SWAP1 POP SWAP2 SWAP1 POP JUMP JUMPDEST PUSH32 0x4E487B7100000000000000000000000000000000000000000000000000000000 PUSH1 0x0 MSTORE PUSH1 0x32 PUSH1 0x4 MSTORE PUSH1 0x24 PUSH1 0x0 REVERT INVALID LOG2 PUSH5 0x6970667358 0x22 SLT KECCAK256 0x4D 0xDD 0x23 0x21 CHAINID 0x5F PUSH4 0x8FC109EA 0xED PUSH8 0xD8206A7CA2EA12EA 0xD6 SELFDESTRUCT 0xE8 SWAP11 0xD8 0xF6 0x4F 0xF8 SAR DIV DUP2 PUSH5 0x736F6C6343 STOP ADDMOD SGT STOP CALLER "
				},
				"gasEstimates": {
					"creation": {
						"codeDepositCost": "830400",
						"executionCost": "infinite",
						"totalCost": "infinite"
					},
					"external": {
						"create(string,address)": "infinite",
						"getImplementation(string,uint256)": "infinite",
						"getLatestImplementation(string)": "infinite",
						"getLatestVersion(string)": "infinite",
						"numberOfModules()": "2517",
						"owner()": "2589",
						"renounceOwnership()": "30421",
						"transferOwnership(address)": "30810",
						"upgrade(string,address)": "infinite"
					},
					"internal": {
						"_create(string memory,address)": "infinite",
						"_getImplementation(string memory,uint256)": "infinite",
						"_getLatestImplementation(string memory)": "infinite",
						"_getLatestVersion(string memory)": "infinite",
						"_upgrade(string memory,address)": "infinite"
					}
				},
				"methodIdentifiers": {
					"create(string,address)": "84b47b0f",
					"getImplementation(string,uint256)": "e8009dda",
					"getLatestImplementation(string)": "d285f839",
					"getLatestVersion(string)": "cae96761",
					"numberOfModules()": "f3f342fa",
					"owner()": "8da5cb5b",
					"renounceOwnership()": "715018a6",
					"transferOwnership(address)": "f2fde38b",
					"upgrade(string,address)": "5332c74d"
				}
			},
			"storageLayout": {
				"storage": [
					{
						"astId": 7,
						"contract": "smart_contracts/module_architecture/ModuleManager2.sol:ModuleManager",
						"label": "_owner",
						"offset": 0,
						"slot": "0",
						"type": "t_address"
					},
					{
						"astId": 815,
						"contract": "smart_contracts/module_architecture/ModuleManager2.sol:ModuleManager",
						"label": "numberOfModules",
						"offset": 0,
						"slot": "1",
						"type": "t_uint256"
					},
					{
						"astId": 820,
						"contract": "smart_contracts/module_architecture/ModuleManager2.sol:ModuleManager",
						"label": "_implementations",
						"offset": 0,
						"slot": "2",
						"type": "t_mapping(t_string_memory_ptr,t_struct(AddressSet)461_storage)"
					}
				],
				"types": {
					"t_address": {
						"encoding": "inplace",
						"label": "address",
						"numberOfBytes": "20"
					},
					"t_array(t_bytes32)dyn_storage": {
						"base": "t_bytes32",
						"encoding": "dynamic_array",
						"label": "bytes32[]",
						"numberOfBytes": "32"
					},
					"t_bytes32": {
						"encoding": "inplace",
						"label": "bytes32",
						"numberOfBytes": "32"
					},
					"t_mapping(t_bytes32,t_uint256)": {
						"encoding": "mapping",
						"key": "t_bytes32",
						"label": "mapping(bytes32 => uint256)",
						"numberOfBytes": "32",
						"value": "t_uint256"
					},
					"t_mapping(t_string_memory_ptr,t_struct(AddressSet)461_storage)": {
						"encoding": "mapping",
						"key": "t_string_memory_ptr",
						"label": "mapping(string => struct EnumerableSet.AddressSet)",
						"numberOfBytes": "32",
						"value": "t_struct(AddressSet)461_storage"
					},
					"t_string_memory_ptr": {
						"encoding": "bytes",
						"label": "string",
						"numberOfBytes": "32"
					},
					"t_struct(AddressSet)461_storage": {
						"encoding": "inplace",
						"label": "struct EnumerableSet.AddressSet",
						"members": [
							{
								"astId": 460,
								"contract": "smart_contracts/module_architecture/ModuleManager2.sol:ModuleManager",
								"label": "_inner",
								"offset": 0,
								"slot": "0",
								"type": "t_struct(Set)146_storage"
							}
						],
						"numberOfBytes": "64"
					},
					"t_struct(Set)146_storage": {
						"encoding": "inplace",
						"label": "struct EnumerableSet.Set",
						"members": [
							{
								"astId": 141,
								"contract": "smart_contracts/module_architecture/ModuleManager2.sol:ModuleManager",
								"label": "_values",
								"offset": 0,
								"slot": "0",
								"type": "t_array(t_bytes32)dyn_storage"
							},
							{
								"astId": 145,
								"contract": "smart_contracts/module_architecture/ModuleManager2.sol:ModuleManager",
								"label": "_indexes",
								"offset": 0,
								"slot": "1",
								"type": "t_mapping(t_bytes32,t_uint256)"
							}
						],
						"numberOfBytes": "64"
					},
					"t_uint256": {
						"encoding": "inplace",
						"label": "uint256",
						"numberOfBytes": "32"
					}
				}
			},
			"userdoc": {
				"kind": "user",
				"methods": {
					"create(string,address)": {
						"notice": "OWNER COMMANDS"
					},
					"getLatestVersion(string)": {
						"notice": "PUBLIC ACCESS"
					}
				},
				"version": 1
			}
		}
	}
}