{
	"smart_contracts/module_architecture/ModuleManager.sol": {
		"ModuleManager": {
			"abi": [
				{
					"inputs": [],
					"stateMutability": "nonpayable",
					"type": "constructor"
				},
				{
					"anonymous": false,
					"inputs": [
						{
							"indexed": true,
							"internalType": "string",
							"name": "name",
							"type": "string"
						},
						{
							"indexed": true,
							"internalType": "uint256",
							"name": "identifer",
							"type": "uint256"
						}
					],
					"name": "ModuleCreated",
					"type": "event"
				},
				{
					"anonymous": false,
					"inputs": [
						{
							"indexed": true,
							"internalType": "string",
							"name": "name",
							"type": "string"
						},
						{
							"indexed": true,
							"internalType": "uint256",
							"name": "identifier",
							"type": "uint256"
						},
						{
							"indexed": true,
							"internalType": "address",
							"name": "newImplementation",
							"type": "address"
						}
					],
					"name": "ModuleDowngraded",
					"type": "event"
				},
				{
					"anonymous": false,
					"inputs": [
						{
							"indexed": true,
							"internalType": "string",
							"name": "name",
							"type": "string"
						},
						{
							"indexed": true,
							"internalType": "uint256",
							"name": "identifier",
							"type": "uint256"
						},
						{
							"indexed": true,
							"internalType": "address",
							"name": "newImplementation",
							"type": "address"
						}
					],
					"name": "ModuleUpgraded",
					"type": "event"
				},
				{
					"inputs": [],
					"name": "count",
					"outputs": [
						{
							"internalType": "uint256",
							"name": "",
							"type": "uint256"
						}
					],
					"stateMutability": "view",
					"type": "function"
				},
				{
					"inputs": [
						{
							"internalType": "string",
							"name": "name",
							"type": "string"
						}
					],
					"name": "create",
					"outputs": [
						{
							"internalType": "uint256",
							"name": "",
							"type": "uint256"
						}
					],
					"stateMutability": "nonpayable",
					"type": "function"
				},
				{
					"inputs": [
						{
							"internalType": "string",
							"name": "name",
							"type": "string"
						},
						{
							"internalType": "uint256",
							"name": "version",
							"type": "uint256"
						}
					],
					"name": "downgrade",
					"outputs": [],
					"stateMutability": "nonpayable",
					"type": "function"
				},
				{
					"inputs": [
						{
							"internalType": "string",
							"name": "name",
							"type": "string"
						},
						{
							"internalType": "uint256",
							"name": "version",
							"type": "uint256"
						}
					],
					"name": "getImplementation",
					"outputs": [
						{
							"internalType": "address",
							"name": "",
							"type": "address"
						}
					],
					"stateMutability": "view",
					"type": "function"
				},
				{
					"inputs": [
						{
							"internalType": "string",
							"name": "name",
							"type": "string"
						}
					],
					"name": "getImplementations",
					"outputs": [
						{
							"internalType": "address[]",
							"name": "",
							"type": "address[]"
						}
					],
					"stateMutability": "view",
					"type": "function"
				},
				{
					"inputs": [
						{
							"internalType": "string",
							"name": "name",
							"type": "string"
						}
					],
					"name": "getLatestImplementation",
					"outputs": [
						{
							"internalType": "address",
							"name": "",
							"type": "address"
						}
					],
					"stateMutability": "view",
					"type": "function"
				},
				{
					"inputs": [
						{
							"internalType": "string",
							"name": "name",
							"type": "string"
						}
					],
					"name": "getLatestVersion",
					"outputs": [
						{
							"internalType": "uint256",
							"name": "",
							"type": "uint256"
						}
					],
					"stateMutability": "view",
					"type": "function"
				},
				{
					"inputs": [],
					"name": "getModules",
					"outputs": [
						{
							"internalType": "string[]",
							"name": "",
							"type": "string[]"
						}
					],
					"stateMutability": "view",
					"type": "function"
				},
				{
					"inputs": [
						{
							"internalType": "string",
							"name": "",
							"type": "string"
						}
					],
					"name": "nameToIdentifier",
					"outputs": [
						{
							"internalType": "uint256",
							"name": "",
							"type": "uint256"
						}
					],
					"stateMutability": "view",
					"type": "function"
				},
				{
					"inputs": [
						{
							"internalType": "string",
							"name": "name",
							"type": "string"
						},
						{
							"internalType": "address",
							"name": "newImplementation",
							"type": "address"
						}
					],
					"name": "upgrade",
					"outputs": [],
					"stateMutability": "nonpayable",
					"type": "function"
				}
			],
			"devdoc": {
				"kind": "dev",
				"methods": {},
				"version": 1
			},
			"evm": {
				"assembly": "    /* \"smart_contracts/module_architecture/ModuleManager.sol\":928:6955  contract ModuleManager is IModuleManager, ReentrancyGuard {... */\n  mstore(0x40, 0x80)\n    /* \"smart_contracts/module_architecture/ModuleManager.sol\":1819:1835  constructor() {} */\n  callvalue\n  dup1\n  iszero\n  tag_1\n  jumpi\n  0x00\n  dup1\n  revert\ntag_1:\n  pop\n    /* \"deps/openzeppelin/security/ReentrancyGuard.sol\":1717:1718  1 */\n  0x01\n    /* \"deps/openzeppelin/security/ReentrancyGuard.sol\":1822:1829  _status */\n  0x00\n    /* \"deps/openzeppelin/security/ReentrancyGuard.sol\":1822:1844  _status = _NOT_ENTERED */\n  sstore\n    /* \"smart_contracts/module_architecture/ModuleManager.sol\":928:6955  contract ModuleManager is IModuleManager, ReentrancyGuard {... */\n  dataSize(sub_0)\n  dup1\n  dataOffset(sub_0)\n  0x00\n  codecopy\n  0x00\n  return\nstop\n\nsub_0: assembly {\n        /* \"smart_contracts/module_architecture/ModuleManager.sol\":928:6955  contract ModuleManager is IModuleManager, ReentrancyGuard {... */\n      mstore(0x40, 0x80)\n      callvalue\n      dup1\n      iszero\n      tag_1\n      jumpi\n      0x00\n      dup1\n      revert\n    tag_1:\n      pop\n      jumpi(tag_2, lt(calldatasize, 0x04))\n      shr(0xe0, calldataload(0x00))\n      dup1\n      0xb6a46b3b\n      gt\n      tag_13\n      jumpi\n      dup1\n      0xd285f839\n      gt\n      tag_14\n      jumpi\n      dup1\n      0xd285f839\n      eq\n      tag_10\n      jumpi\n      dup1\n      0xe8009dda\n      eq\n      tag_11\n      jumpi\n      dup1\n      0xfb68ba31\n      eq\n      tag_12\n      jumpi\n      0x00\n      dup1\n      revert\n    tag_14:\n      dup1\n      0xb6a46b3b\n      eq\n      tag_8\n      jumpi\n      dup1\n      0xcae96761\n      eq\n      tag_9\n      jumpi\n      0x00\n      dup1\n      revert\n    tag_13:\n      dup1\n      0x5332c74d\n      gt\n      tag_15\n      jumpi\n      dup1\n      0x5332c74d\n      eq\n      tag_5\n      jumpi\n      dup1\n      0x812a4f8c\n      eq\n      tag_6\n      jumpi\n      dup1\n      0xb2494df3\n      eq\n      tag_7\n      jumpi\n      0x00\n      dup1\n      revert\n    tag_15:\n      dup1\n      0x06661abd\n      eq\n      tag_3\n      jumpi\n      dup1\n      0x278be867\n      eq\n      tag_4\n      jumpi\n    tag_2:\n      0x00\n      dup1\n      revert\n        /* \"smart_contracts/module_architecture/ModuleManager.sol\":1046:1063  uint public count */\n    tag_3:\n      tag_16\n      sload(0x01)\n      dup2\n      jump\n    tag_16:\n      mload(0x40)\n        /* \"#utility.yul\":160:185   */\n      swap1\n      dup2\n      mstore\n        /* \"#utility.yul\":148:150   */\n      0x20\n        /* \"#utility.yul\":133:151   */\n      add\n        /* \"smart_contracts/module_architecture/ModuleManager.sol\":1046:1063  uint public count */\n    tag_18:\n      mload(0x40)\n      dup1\n      swap2\n      sub\n      swap1\n      return\n        /* \"smart_contracts/module_architecture/ModuleManager.sol\":1394:1441  mapping(string => uint) public nameToIdentifier */\n    tag_4:\n      tag_16\n      tag_21\n      calldatasize\n      0x04\n      tag_22\n      jump\t// in\n    tag_21:\n      dup1\n      mload\n      0x20\n      dup2\n      dup4\n      add\n      dup2\n      add\n      dup1\n      mload\n      0x03\n      dup3\n      mstore\n      swap3\n      dup3\n      add\n      swap2\n      swap1\n      swap4\n      add\n      keccak256\n      swap2\n      mstore\n      sload\n      dup2\n      jump\n        /* \"smart_contracts/module_architecture/ModuleManager.sol\":3887:4364  function upgrade(... */\n    tag_5:\n      tag_25\n      tag_26\n      calldatasize\n      0x04\n      tag_27\n      jump\t// in\n    tag_26:\n      tag_28\n      jump\t// in\n    tag_25:\n      stop\n        /* \"smart_contracts/module_architecture/ModuleManager.sol\":5928:6479  function getImplementations(string memory name) public view returns (address[] memory) {... */\n    tag_6:\n      tag_29\n      tag_30\n      calldatasize\n      0x04\n      tag_22\n      jump\t// in\n    tag_30:\n      tag_31\n      jump\t// in\n    tag_29:\n      mload(0x40)\n      tag_18\n      swap2\n      swap1\n      tag_33\n      jump\t// in\n        /* \"smart_contracts/module_architecture/ModuleManager.sol\":6485:6953  function getModules() public view returns (string[] memory) {... */\n    tag_7:\n      tag_34\n      tag_35\n      jump\t// in\n    tag_34:\n      mload(0x40)\n      tag_18\n      swap2\n      swap1\n      tag_37\n      jump\t// in\n        /* \"smart_contracts/module_architecture/ModuleManager.sol\":3400:3881  function create(string memory name) public nonReentrant returns (uint) {... */\n    tag_8:\n      tag_16\n      tag_39\n      calldatasize\n      0x04\n      tag_22\n      jump\t// in\n    tag_39:\n      tag_40\n      jump\t// in\n        /* \"smart_contracts/module_architecture/ModuleManager.sol\":4862:5110  function getLatestVersion(string memory name) public view returns (uint) {... */\n    tag_9:\n      tag_16\n      tag_43\n      calldatasize\n      0x04\n      tag_22\n      jump\t// in\n    tag_43:\n      tag_44\n      jump\t// in\n        /* \"smart_contracts/module_architecture/ModuleManager.sol\":5157:5464  function getLatestImplementation(string memory name) public view returns (address) {... */\n    tag_10:\n      tag_46\n      tag_47\n      calldatasize\n      0x04\n      tag_22\n      jump\t// in\n    tag_47:\n      tag_48\n      jump\t// in\n    tag_46:\n      mload(0x40)\n        /* \"#utility.yul\":4273:4315   */\n      0xffffffffffffffffffffffffffffffffffffffff\n        /* \"#utility.yul\":4261:4316   */\n      swap1\n      swap2\n      and\n        /* \"#utility.yul\":4243:4317   */\n      dup2\n      mstore\n        /* \"#utility.yul\":4231:4233   */\n      0x20\n        /* \"#utility.yul\":4216:4234   */\n      add\n        /* \"smart_contracts/module_architecture/ModuleManager.sol\":5157:5464  function getLatestImplementation(string memory name) public view returns (address) {... */\n      tag_18\n        /* \"#utility.yul\":4097:4323   */\n      jump\n        /* \"smart_contracts/module_architecture/ModuleManager.sol\":5470:5843  function getImplementation(... */\n    tag_11:\n      tag_46\n      tag_52\n      calldatasize\n      0x04\n      tag_53\n      jump\t// in\n    tag_52:\n      tag_54\n      jump\t// in\n        /* \"smart_contracts/module_architecture/ModuleManager.sol\":4370:4856  function downgrade(... */\n    tag_12:\n      tag_25\n      tag_57\n      calldatasize\n      0x04\n      tag_53\n      jump\t// in\n    tag_57:\n      tag_58\n      jump\t// in\n        /* \"smart_contracts/module_architecture/ModuleManager.sol\":3887:4364  function upgrade(... */\n    tag_28:\n        /* \"deps/openzeppelin/security/ReentrancyGuard.sol\":2262:2283  _nonReentrantBefore() */\n      tag_60\n        /* \"deps/openzeppelin/security/ReentrancyGuard.sol\":2262:2281  _nonReentrantBefore */\n      tag_61\n        /* \"deps/openzeppelin/security/ReentrancyGuard.sol\":2262:2283  _nonReentrantBefore() */\n      jump\t// in\n    tag_60:\n        /* \"smart_contracts/module_architecture/ModuleManager.sol\":4062:4154  _mustNotBeDuplicateImplementation(... */\n      tag_63\n        /* \"smart_contracts/module_architecture/ModuleManager.sol\":4109:4113  name */\n      dup3\n        /* \"smart_contracts/module_architecture/ModuleManager.sol\":4127:4144  newImplementation */\n      dup3\n        /* \"smart_contracts/module_architecture/ModuleManager.sol\":4062:4095  _mustNotBeDuplicateImplementation */\n      tag_64\n        /* \"smart_contracts/module_architecture/ModuleManager.sol\":4062:4154  _mustNotBeDuplicateImplementation(... */\n      jump\t// in\n    tag_63:\n        /* \"smart_contracts/module_architecture/ModuleManager.sol\":4165:4232  _upgrade(... */\n      tag_65\n        /* \"smart_contracts/module_architecture/ModuleManager.sol\":4187:4191  name */\n      dup3\n        /* \"smart_contracts/module_architecture/ModuleManager.sol\":4205:4222  newImplementation */\n      dup3\n        /* \"smart_contracts/module_architecture/ModuleManager.sol\":4165:4173  _upgrade */\n      tag_66\n        /* \"smart_contracts/module_architecture/ModuleManager.sol\":4165:4232  _upgrade(... */\n      jump\t// in\n    tag_65:\n        /* \"smart_contracts/module_architecture/ModuleManager.sol\":4330:4347  newImplementation */\n      dup1\n        /* \"smart_contracts/module_architecture/ModuleManager.sol\":4248:4357  ModuleUpgraded(... */\n      0xffffffffffffffffffffffffffffffffffffffff\n      and\n        /* \"smart_contracts/module_architecture/ModuleManager.sol\":4294:4310  nameToIdentifier */\n      0x03\n        /* \"smart_contracts/module_architecture/ModuleManager.sol\":4311:4315  name */\n      dup4\n        /* \"smart_contracts/module_architecture/ModuleManager.sol\":4294:4316  nameToIdentifier[name] */\n      mload(0x40)\n      tag_67\n      swap2\n      swap1\n      tag_68\n      jump\t// in\n    tag_67:\n      swap1\n      dup2\n      mstore\n      0x20\n      add\n      mload(0x40)\n      dup1\n      swap2\n      sub\n      swap1\n      keccak256\n      sload\n        /* \"smart_contracts/module_architecture/ModuleManager.sol\":4276:4280  name */\n      dup4\n        /* \"smart_contracts/module_architecture/ModuleManager.sol\":4248:4357  ModuleUpgraded(... */\n      mload(0x40)\n      tag_69\n      swap2\n      swap1\n      tag_68\n      jump\t// in\n    tag_69:\n      mload(0x40)\n      swap1\n      dup2\n      swap1\n      sub\n      dup2\n      keccak256\n      swap1\n      0x302019a635b19d3c4a1cf2d61269495b26e45b91cbb29a4f8cf400e68e18da7f\n      swap1\n      0x00\n      swap1\n      log4\n        /* \"deps/openzeppelin/security/ReentrancyGuard.sol\":2304:2324  _nonReentrantAfter() */\n      tag_70\n        /* \"deps/openzeppelin/security/ReentrancyGuard.sol\":1717:1718  1 */\n      0x01\n        /* \"deps/openzeppelin/security/ReentrancyGuard.sol\":2810:2817  _status */\n      0x00\n        /* \"deps/openzeppelin/security/ReentrancyGuard.sol\":2810:2832  _status = _NOT_ENTERED */\n      sstore\n        /* \"deps/openzeppelin/security/ReentrancyGuard.sol\":2630:2839  function _nonReentrantAfter() private {... */\n      jump\n        /* \"deps/openzeppelin/security/ReentrancyGuard.sol\":2304:2324  _nonReentrantAfter() */\n    tag_70:\n        /* \"smart_contracts/module_architecture/ModuleManager.sol\":3887:4364  function upgrade(... */\n      pop\n      pop\n      jump\t// out\n        /* \"smart_contracts/module_architecture/ModuleManager.sol\":5928:6479  function getImplementations(string memory name) public view returns (address[] memory) {... */\n    tag_31:\n        /* \"smart_contracts/module_architecture/ModuleManager.sol\":5997:6013  address[] memory */\n      0x60\n        /* \"smart_contracts/module_architecture/ModuleManager.sol\":6101:6122  Module storage module */\n      0x00\n        /* \"smart_contracts/module_architecture/ModuleManager.sol\":6125:6132  modules */\n      0x02\n        /* \"smart_contracts/module_architecture/ModuleManager.sol\":6125:6156  modules[nameToIdentifier[name]] */\n      0x00\n        /* \"smart_contracts/module_architecture/ModuleManager.sol\":6133:6149  nameToIdentifier */\n      0x03\n        /* \"smart_contracts/module_architecture/ModuleManager.sol\":6150:6154  name */\n      dup6\n        /* \"smart_contracts/module_architecture/ModuleManager.sol\":6133:6155  nameToIdentifier[name] */\n      mload(0x40)\n      tag_73\n      swap2\n      swap1\n      tag_68\n      jump\t// in\n    tag_73:\n      swap1\n      dup2\n      mstore\n      0x20\n      add\n      mload(0x40)\n      dup1\n      swap2\n      sub\n      swap1\n      keccak256\n      sload\n        /* \"smart_contracts/module_architecture/ModuleManager.sol\":6125:6156  modules[nameToIdentifier[name]] */\n      dup2\n      mstore\n      0x20\n      add\n      swap1\n      dup2\n      mstore\n      0x20\n      add\n      0x00\n      keccak256\n        /* \"smart_contracts/module_architecture/ModuleManager.sol\":6101:6156  Module storage module = modules[nameToIdentifier[name]] */\n      swap1\n      pop\n        /* \"smart_contracts/module_architecture/ModuleManager.sol\":6166:6198  address[] memory implementations */\n      0x00\n        /* \"smart_contracts/module_architecture/ModuleManager.sol\":6215:6246  module.implementations.length() */\n      tag_74\n        /* \"smart_contracts/module_architecture/ModuleManager.sol\":6215:6221  module */\n      dup3\n        /* \"smart_contracts/module_architecture/ModuleManager.sol\":6215:6237  module.implementations */\n      0x02\n      add\n        /* \"smart_contracts/module_architecture/ModuleManager.sol\":6215:6244  module.implementations.length */\n      tag_75\n        /* \"smart_contracts/module_architecture/ModuleManager.sol\":6215:6246  module.implementations.length() */\n      jump\t// in\n    tag_74:\n        /* \"smart_contracts/module_architecture/ModuleManager.sol\":6201:6247  new address[](module.implementations.length()) */\n      0xffffffffffffffff\n      dup2\n      gt\n      iszero\n      tag_77\n      jumpi\n      tag_77\n      tag_78\n      jump\t// in\n    tag_77:\n      mload(0x40)\n      swap1\n      dup1\n      dup3\n      mstore\n      dup1\n      0x20\n      mul\n      0x20\n      add\n      dup3\n      add\n      0x40\n      mstore\n      dup1\n      iszero\n      tag_79\n      jumpi\n      dup2\n      0x20\n      add\n      0x20\n      dup3\n      mul\n      dup1\n      calldatasize\n      dup4\n      calldatacopy\n      add\n      swap1\n      pop\n    tag_79:\n      pop\n        /* \"smart_contracts/module_architecture/ModuleManager.sol\":6166:6247  address[] memory implementations = new address[](module.implementations.length()) */\n      swap1\n      pop\n        /* \"smart_contracts/module_architecture/ModuleManager.sol\":6275:6281  uint i */\n      0x00\n        /* \"smart_contracts/module_architecture/ModuleManager.sol\":6257:6440  for (... */\n    tag_80:\n        /* \"smart_contracts/module_architecture/ModuleManager.sol\":6305:6336  module.implementations.length() */\n      tag_83\n        /* \"smart_contracts/module_architecture/ModuleManager.sol\":6305:6311  module */\n      dup4\n        /* \"smart_contracts/module_architecture/ModuleManager.sol\":6305:6327  module.implementations */\n      0x02\n      add\n        /* \"smart_contracts/module_architecture/ModuleManager.sol\":6305:6334  module.implementations.length */\n      tag_75\n        /* \"smart_contracts/module_architecture/ModuleManager.sol\":6305:6336  module.implementations.length() */\n      jump\t// in\n    tag_83:\n        /* \"smart_contracts/module_architecture/ModuleManager.sol\":6300:6301  i */\n      dup2\n        /* \"smart_contracts/module_architecture/ModuleManager.sol\":6300:6336  i <= module.implementations.length() */\n      gt\n        /* \"smart_contracts/module_architecture/ModuleManager.sol\":6257:6440  for (... */\n      tag_81\n      jumpi\n        /* \"smart_contracts/module_architecture/ModuleManager.sol\":6401:6429  module.implementations.at(i) */\n      tag_84\n        /* \"smart_contracts/module_architecture/ModuleManager.sol\":6401:6423  module.implementations */\n      0x02\n      dup5\n      add\n        /* \"smart_contracts/module_architecture/ModuleManager.sol\":6427:6428  i */\n      dup3\n        /* \"smart_contracts/module_architecture/ModuleManager.sol\":6401:6426  module.implementations.at */\n      tag_85\n        /* \"smart_contracts/module_architecture/ModuleManager.sol\":6401:6429  module.implementations.at(i) */\n      jump\t// in\n    tag_84:\n        /* \"smart_contracts/module_architecture/ModuleManager.sol\":6380:6395  implementations */\n      dup3\n        /* \"smart_contracts/module_architecture/ModuleManager.sol\":6396:6397  i */\n      dup3\n        /* \"smart_contracts/module_architecture/ModuleManager.sol\":6380:6398  implementations[i] */\n      dup2\n      mload\n      dup2\n      lt\n      tag_87\n      jumpi\n      tag_87\n      tag_88\n      jump\t// in\n    tag_87:\n        /* \"smart_contracts/module_architecture/ModuleManager.sol\":6380:6429  implementations[i] = module.implementations.at(i) */\n      0xffffffffffffffffffffffffffffffffffffffff\n      swap1\n      swap3\n      and\n        /* \"smart_contracts/module_architecture/ModuleManager.sol\":6380:6398  implementations[i] */\n      0x20\n      swap3\n      dup4\n      mul\n      swap2\n      swap1\n      swap2\n      add\n      swap1\n      swap2\n      add\n        /* \"smart_contracts/module_architecture/ModuleManager.sol\":6380:6429  implementations[i] = module.implementations.at(i) */\n      mstore\n        /* \"smart_contracts/module_architecture/ModuleManager.sol\":6351:6355  i ++ */\n      dup1\n      tag_89\n      dup2\n      tag_90\n      jump\t// in\n    tag_89:\n      swap2\n      pop\n      pop\n        /* \"smart_contracts/module_architecture/ModuleManager.sol\":6257:6440  for (... */\n      jump(tag_80)\n    tag_81:\n      pop\n        /* \"smart_contracts/module_architecture/ModuleManager.sol\":6457:6472  implementations */\n      swap4\n        /* \"smart_contracts/module_architecture/ModuleManager.sol\":5928:6479  function getImplementations(string memory name) public view returns (address[] memory) {... */\n      swap3\n      pop\n      pop\n      pop\n      jump\t// out\n        /* \"smart_contracts/module_architecture/ModuleManager.sol\":6485:6953  function getModules() public view returns (string[] memory) {... */\n    tag_35:\n        /* \"smart_contracts/module_architecture/ModuleManager.sol\":6528:6543  string[] memory */\n      0x60\n        /* \"smart_contracts/module_architecture/ModuleManager.sol\":6628:6649  string[] memory names */\n      0x00\n        /* \"smart_contracts/module_architecture/ModuleManager.sol\":6665:6670  count */\n      sload(0x01)\n        /* \"smart_contracts/module_architecture/ModuleManager.sol\":6652:6671  new string[](count) */\n      0xffffffffffffffff\n      dup2\n      gt\n      iszero\n      tag_93\n      jumpi\n      tag_93\n      tag_78\n      jump\t// in\n    tag_93:\n      mload(0x40)\n      swap1\n      dup1\n      dup3\n      mstore\n      dup1\n      0x20\n      mul\n      0x20\n      add\n      dup3\n      add\n      0x40\n      mstore\n      dup1\n      iszero\n      tag_94\n      jumpi\n      dup2\n      0x20\n      add\n    tag_95:\n      0x60\n      dup2\n      mstore\n      0x20\n      add\n      swap1\n      0x01\n      swap1\n      sub\n      swap1\n      dup2\n      tag_95\n      jumpi\n      swap1\n      pop\n    tag_94:\n      pop\n        /* \"smart_contracts/module_architecture/ModuleManager.sol\":6628:6671  string[] memory names = new string[](count) */\n      swap1\n      pop\n        /* \"smart_contracts/module_architecture/ModuleManager.sol\":6699:6705  uint i */\n      0x00\n        /* \"smart_contracts/module_architecture/ModuleManager.sol\":6681:6856  for (... */\n    tag_96:\n        /* \"smart_contracts/module_architecture/ModuleManager.sol\":6728:6733  count */\n      sload(0x01)\n        /* \"smart_contracts/module_architecture/ModuleManager.sol\":6723:6724  i */\n      dup2\n        /* \"smart_contracts/module_architecture/ModuleManager.sol\":6723:6733  i <= count */\n      gt\n        /* \"smart_contracts/module_architecture/ModuleManager.sol\":6681:6856  for (... */\n      tag_97\n      jumpi\n        /* \"smart_contracts/module_architecture/ModuleManager.sol\":6775:6796  Module storage module */\n      0x00\n        /* \"smart_contracts/module_architecture/ModuleManager.sol\":6799:6809  modules[i] */\n      dup2\n      dup2\n      mstore\n        /* \"smart_contracts/module_architecture/ModuleManager.sol\":6799:6806  modules */\n      0x02\n        /* \"smart_contracts/module_architecture/ModuleManager.sol\":6799:6809  modules[i] */\n      0x20\n      mstore\n      0x40\n      swap1\n      keccak256\n        /* \"smart_contracts/module_architecture/ModuleManager.sol\":6834:6845  module.name */\n      0x01\n      dup2\n      add\n        /* \"smart_contracts/module_architecture/ModuleManager.sol\":6823:6845  names[i] = module.name */\n      dup1\n      sload\n      tag_99\n      swap1\n      tag_100\n      jump\t// in\n    tag_99:\n      dup1\n      0x1f\n      add\n      0x20\n      dup1\n      swap2\n      div\n      mul\n      0x20\n      add\n      mload(0x40)\n      swap1\n      dup2\n      add\n      0x40\n      mstore\n      dup1\n      swap3\n      swap2\n      swap1\n      dup2\n      dup2\n      mstore\n      0x20\n      add\n      dup3\n      dup1\n      sload\n      tag_101\n      swap1\n      tag_100\n      jump\t// in\n    tag_101:\n      dup1\n      iszero\n      tag_102\n      jumpi\n      dup1\n      0x1f\n      lt\n      tag_103\n      jumpi\n      0x0100\n      dup1\n      dup4\n      sload\n      div\n      mul\n      dup4\n      mstore\n      swap2\n      0x20\n      add\n      swap2\n      jump(tag_102)\n    tag_103:\n      dup3\n      add\n      swap2\n      swap1\n      0x00\n      mstore\n      keccak256(0x00, 0x20)\n      swap1\n    tag_104:\n      dup2\n      sload\n      dup2\n      mstore\n      swap1\n      0x01\n      add\n      swap1\n      0x20\n      add\n      dup1\n      dup4\n      gt\n      tag_104\n      jumpi\n      dup3\n      swap1\n      sub\n      0x1f\n      and\n      dup3\n      add\n      swap2\n    tag_102:\n      pop\n      pop\n      pop\n      pop\n      pop\n        /* \"smart_contracts/module_architecture/ModuleManager.sol\":6823:6828  names */\n      dup4\n        /* \"smart_contracts/module_architecture/ModuleManager.sol\":6829:6830  i */\n      dup4\n        /* \"smart_contracts/module_architecture/ModuleManager.sol\":6823:6831  names[i] */\n      dup2\n      mload\n      dup2\n      lt\n      tag_106\n      jumpi\n      tag_106\n      tag_88\n      jump\t// in\n    tag_106:\n      0x20\n      mul\n      0x20\n      add\n      add\n        /* \"smart_contracts/module_architecture/ModuleManager.sol\":6823:6845  names[i] = module.name */\n      dup2\n      swap1\n      mstore\n      pop\n        /* \"smart_contracts/module_architecture/ModuleManager.sol\":6761:6856  {... */\n      pop\n        /* \"smart_contracts/module_architecture/ModuleManager.sol\":6747:6750  i++ */\n      dup1\n      dup1\n      tag_107\n      swap1\n      tag_90\n      jump\t// in\n    tag_107:\n      swap2\n      pop\n      pop\n        /* \"smart_contracts/module_architecture/ModuleManager.sol\":6681:6856  for (... */\n      jump(tag_96)\n    tag_97:\n      pop\n        /* \"smart_contracts/module_architecture/ModuleManager.sol\":6941:6946  names */\n      swap2\n        /* \"smart_contracts/module_architecture/ModuleManager.sol\":6485:6953  function getModules() public view returns (string[] memory) {... */\n      swap1\n      pop\n      jump\t// out\n        /* \"smart_contracts/module_architecture/ModuleManager.sol\":3400:3881  function create(string memory name) public nonReentrant returns (uint) {... */\n    tag_40:\n        /* \"smart_contracts/module_architecture/ModuleManager.sol\":3465:3469  uint */\n      0x00\n        /* \"deps/openzeppelin/security/ReentrancyGuard.sol\":2262:2283  _nonReentrantBefore() */\n      tag_109\n        /* \"deps/openzeppelin/security/ReentrancyGuard.sol\":2262:2281  _nonReentrantBefore */\n      tag_61\n        /* \"deps/openzeppelin/security/ReentrancyGuard.sol\":2262:2283  _nonReentrantBefore() */\n      jump\t// in\n    tag_109:\n        /* \"smart_contracts/module_architecture/ModuleManager.sol\":3510:3540  _mustNotBeExistingModule(name) */\n      tag_111\n        /* \"smart_contracts/module_architecture/ModuleManager.sol\":3535:3539  name */\n      dup3\n        /* \"smart_contracts/module_architecture/ModuleManager.sol\":3510:3534  _mustNotBeExistingModule */\n      tag_112\n        /* \"smart_contracts/module_architecture/ModuleManager.sol\":3510:3540  _mustNotBeExistingModule(name) */\n      jump\t// in\n    tag_111:\n        /* \"smart_contracts/module_architecture/ModuleManager.sol\":3551:3556  count */\n      0x01\n        /* \"smart_contracts/module_architecture/ModuleManager.sol\":3551:3559  count ++ */\n      dup1\n      sload\n      swap1\n        /* \"smart_contracts/module_architecture/ModuleManager.sol\":3551:3556  count */\n      0x00\n        /* \"smart_contracts/module_architecture/ModuleManager.sol\":3551:3559  count ++ */\n      tag_113\n      dup4\n      tag_90\n      jump\t// in\n    tag_113:\n      swap1\n      swap2\n      sstore\n      pop\n      pop\n        /* \"smart_contracts/module_architecture/ModuleManager.sol\":3601:3606  count */\n      sload(0x01)\n        /* \"smart_contracts/module_architecture/ModuleManager.sol\":3569:3590  Module storage module */\n      0x00\n        /* \"smart_contracts/module_architecture/ModuleManager.sol\":3593:3607  modules[count] */\n      dup2\n      dup2\n      mstore\n        /* \"smart_contracts/module_architecture/ModuleManager.sol\":3593:3600  modules */\n      0x02\n        /* \"smart_contracts/module_architecture/ModuleManager.sol\":3593:3607  modules[count] */\n      0x20\n      mstore\n      0x40\n      swap1\n      dup2\n      swap1\n      keccak256\n        /* \"smart_contracts/module_architecture/ModuleManager.sol\":3650:3672  nameToIdentifier[name] */\n      swap1\n      mload\n        /* \"smart_contracts/module_architecture/ModuleManager.sol\":3593:3607  modules[count] */\n      swap1\n      swap2\n        /* \"smart_contracts/module_architecture/ModuleManager.sol\":3601:3606  count */\n      swap1\n        /* \"smart_contracts/module_architecture/ModuleManager.sol\":3650:3666  nameToIdentifier */\n      0x03\n      swap1\n        /* \"smart_contracts/module_architecture/ModuleManager.sol\":3650:3672  nameToIdentifier[name] */\n      tag_114\n      swap1\n        /* \"smart_contracts/module_architecture/ModuleManager.sol\":3667:3671  name */\n      dup7\n      swap1\n        /* \"smart_contracts/module_architecture/ModuleManager.sol\":3650:3672  nameToIdentifier[name] */\n      tag_68\n      jump\t// in\n    tag_114:\n      swap1\n      dup2\n      mstore\n      mload(0x40)\n      swap1\n      dup2\n      swap1\n      sub\n      0x20\n      add\n      swap1\n      keccak256\n        /* \"smart_contracts/module_architecture/ModuleManager.sol\":3650:3680  nameToIdentifier[name] = count */\n      sstore\n        /* \"smart_contracts/module_architecture/ModuleManager.sol\":3711:3716  count */\n      0x01\n      dup1\n      sload\n        /* \"smart_contracts/module_architecture/ModuleManager.sol\":3691:3716  module.identifier = count */\n      dup3\n      sstore\n        /* \"smart_contracts/module_architecture/ModuleManager.sol\":3726:3737  module.name */\n      dup2\n      add\n        /* \"smart_contracts/module_architecture/ModuleManager.sol\":3726:3744  module.name = name */\n      tag_115\n        /* \"smart_contracts/module_architecture/ModuleManager.sol\":3740:3744  name */\n      dup5\n        /* \"smart_contracts/module_architecture/ModuleManager.sol\":3726:3737  module.name */\n      dup3\n        /* \"smart_contracts/module_architecture/ModuleManager.sol\":3726:3744  module.name = name */\n      tag_116\n      jump\t// in\n    tag_115:\n      pop\n        /* \"smart_contracts/module_architecture/ModuleManager.sol\":3812:3829  module.identifier */\n      dup1\n      sload\n        /* \"smart_contracts/module_architecture/ModuleManager.sol\":3760:3839  ModuleCreated(... */\n      mload(0x40)\n      tag_117\n      swap1\n        /* \"smart_contracts/module_architecture/ModuleManager.sol\":3787:3798  module.name */\n      0x01\n      dup5\n      add\n      swap1\n        /* \"smart_contracts/module_architecture/ModuleManager.sol\":3760:3839  ModuleCreated(... */\n      tag_118\n      jump\t// in\n    tag_117:\n      mload(0x40)\n      swap1\n      dup2\n      swap1\n      sub\n      dup2\n      keccak256\n      swap1\n      0xe0e6e8b81ae036efc4ae16444815ccc05dd21be3412ddacd8376ebb5cdb47238\n      swap1\n      0x00\n      swap1\n      log3\n        /* \"smart_contracts/module_architecture/ModuleManager.sol\":3857:3874  module.identifier */\n      sload\n      swap1\n      pop\n        /* \"deps/openzeppelin/security/ReentrancyGuard.sol\":2304:2324  _nonReentrantAfter() */\n      tag_119\n        /* \"deps/openzeppelin/security/ReentrancyGuard.sol\":1717:1718  1 */\n      0x01\n        /* \"deps/openzeppelin/security/ReentrancyGuard.sol\":2810:2817  _status */\n      0x00\n        /* \"deps/openzeppelin/security/ReentrancyGuard.sol\":2810:2832  _status = _NOT_ENTERED */\n      sstore\n        /* \"deps/openzeppelin/security/ReentrancyGuard.sol\":2630:2839  function _nonReentrantAfter() private {... */\n      jump\n        /* \"deps/openzeppelin/security/ReentrancyGuard.sol\":2304:2324  _nonReentrantAfter() */\n    tag_119:\n        /* \"smart_contracts/module_architecture/ModuleManager.sol\":3400:3881  function create(string memory name) public nonReentrant returns (uint) {... */\n      swap2\n      swap1\n      pop\n      jump\t// out\n        /* \"smart_contracts/module_architecture/ModuleManager.sol\":4862:5110  function getLatestVersion(string memory name) public view returns (uint) {... */\n    tag_44:\n        /* \"smart_contracts/module_architecture/ModuleManager.sol\":4929:4933  uint */\n      0x00\n        /* \"smart_contracts/module_architecture/ModuleManager.sol\":5000:5021  Module storage module */\n      dup1\n        /* \"smart_contracts/module_architecture/ModuleManager.sol\":5024:5031  modules */\n      0x02\n        /* \"smart_contracts/module_architecture/ModuleManager.sol\":5024:5055  modules[nameToIdentifier[name]] */\n      0x00\n        /* \"smart_contracts/module_architecture/ModuleManager.sol\":5032:5048  nameToIdentifier */\n      0x03\n        /* \"smart_contracts/module_architecture/ModuleManager.sol\":5049:5053  name */\n      dup6\n        /* \"smart_contracts/module_architecture/ModuleManager.sol\":5032:5054  nameToIdentifier[name] */\n      mload(0x40)\n      tag_121\n      swap2\n      swap1\n      tag_68\n      jump\t// in\n    tag_121:\n      swap1\n      dup2\n      mstore\n      0x20\n      add\n      mload(0x40)\n      dup1\n      swap2\n      sub\n      swap1\n      keccak256\n      sload\n        /* \"smart_contracts/module_architecture/ModuleManager.sol\":5024:5055  modules[nameToIdentifier[name]] */\n      dup2\n      mstore\n      0x20\n      add\n      swap1\n      dup2\n      mstore\n      0x20\n      add\n      0x00\n      keccak256\n        /* \"smart_contracts/module_architecture/ModuleManager.sol\":5000:5055  Module storage module = modules[nameToIdentifier[name]] */\n      swap1\n      pop\n        /* \"smart_contracts/module_architecture/ModuleManager.sol\":5072:5103  module.implementations.length() */\n      tag_122\n        /* \"smart_contracts/module_architecture/ModuleManager.sol\":5072:5078  module */\n      dup2\n        /* \"smart_contracts/module_architecture/ModuleManager.sol\":5072:5094  module.implementations */\n      0x02\n      add\n        /* \"smart_contracts/module_architecture/ModuleManager.sol\":5072:5101  module.implementations.length */\n      tag_75\n        /* \"smart_contracts/module_architecture/ModuleManager.sol\":5072:5103  module.implementations.length() */\n      jump\t// in\n    tag_122:\n        /* \"smart_contracts/module_architecture/ModuleManager.sol\":5065:5103  return module.implementations.length() */\n      swap4\n        /* \"smart_contracts/module_architecture/ModuleManager.sol\":4862:5110  function getLatestVersion(string memory name) public view returns (uint) {... */\n      swap3\n      pop\n      pop\n      pop\n      jump\t// out\n        /* \"smart_contracts/module_architecture/ModuleManager.sol\":5157:5464  function getLatestImplementation(string memory name) public view returns (address) {... */\n    tag_48:\n        /* \"smart_contracts/module_architecture/ModuleManager.sol\":5231:5238  address */\n      0x00\n        /* \"smart_contracts/module_architecture/ModuleManager.sol\":5327:5348  Module storage module */\n      dup1\n        /* \"smart_contracts/module_architecture/ModuleManager.sol\":5351:5358  modules */\n      0x02\n        /* \"smart_contracts/module_architecture/ModuleManager.sol\":5351:5382  modules[nameToIdentifier[name]] */\n      0x00\n        /* \"smart_contracts/module_architecture/ModuleManager.sol\":5359:5375  nameToIdentifier */\n      0x03\n        /* \"smart_contracts/module_architecture/ModuleManager.sol\":5376:5380  name */\n      dup6\n        /* \"smart_contracts/module_architecture/ModuleManager.sol\":5359:5381  nameToIdentifier[name] */\n      mload(0x40)\n      tag_124\n      swap2\n      swap1\n      tag_68\n      jump\t// in\n    tag_124:\n      swap1\n      dup2\n      mstore\n      0x20\n      add\n      mload(0x40)\n      dup1\n      swap2\n      sub\n      swap1\n      keccak256\n      sload\n        /* \"smart_contracts/module_architecture/ModuleManager.sol\":5351:5382  modules[nameToIdentifier[name]] */\n      dup2\n      mstore\n      0x20\n      add\n      swap1\n      dup2\n      mstore\n      0x20\n      add\n      0x00\n      keccak256\n        /* \"smart_contracts/module_architecture/ModuleManager.sol\":5327:5382  Module storage module = modules[nameToIdentifier[name]] */\n      swap1\n      pop\n        /* \"smart_contracts/module_architecture/ModuleManager.sol\":5399:5457  module.implementations.at(module.implementations.length()) */\n      tag_122\n        /* \"smart_contracts/module_architecture/ModuleManager.sol\":5425:5456  module.implementations.length() */\n      tag_126\n        /* \"smart_contracts/module_architecture/ModuleManager.sol\":5425:5431  module */\n      dup3\n        /* \"smart_contracts/module_architecture/ModuleManager.sol\":5425:5447  module.implementations */\n      0x02\n      add\n        /* \"smart_contracts/module_architecture/ModuleManager.sol\":5425:5454  module.implementations.length */\n      tag_75\n        /* \"smart_contracts/module_architecture/ModuleManager.sol\":5425:5456  module.implementations.length() */\n      jump\t// in\n    tag_126:\n        /* \"smart_contracts/module_architecture/ModuleManager.sol\":5399:5421  module.implementations */\n      0x02\n      dup4\n      add\n      swap1\n        /* \"smart_contracts/module_architecture/ModuleManager.sol\":5399:5424  module.implementations.at */\n      tag_85\n        /* \"smart_contracts/module_architecture/ModuleManager.sol\":5399:5457  module.implementations.at(module.implementations.length()) */\n      jump\t// in\n        /* \"smart_contracts/module_architecture/ModuleManager.sol\":5470:5843  function getImplementation(... */\n    tag_54:\n        /* \"smart_contracts/module_architecture/ModuleManager.sol\":5574:5581  address */\n      0x00\n        /* \"smart_contracts/module_architecture/ModuleManager.sol\":5648:5719  _mustBeExistingVersion(... */\n      tag_128\n        /* \"smart_contracts/module_architecture/ModuleManager.sol\":5684:5688  name */\n      dup4\n        /* \"smart_contracts/module_architecture/ModuleManager.sol\":5702:5709  version */\n      dup4\n        /* \"smart_contracts/module_architecture/ModuleManager.sol\":5648:5670  _mustBeExistingVersion */\n      tag_129\n        /* \"smart_contracts/module_architecture/ModuleManager.sol\":5648:5719  _mustBeExistingVersion(... */\n      jump\t// in\n    tag_128:\n        /* \"smart_contracts/module_architecture/ModuleManager.sol\":5730:5751  Module storage module */\n      0x00\n        /* \"smart_contracts/module_architecture/ModuleManager.sol\":5754:5761  modules */\n      0x02\n        /* \"smart_contracts/module_architecture/ModuleManager.sol\":5754:5785  modules[nameToIdentifier[name]] */\n      0x00\n        /* \"smart_contracts/module_architecture/ModuleManager.sol\":5762:5778  nameToIdentifier */\n      0x03\n        /* \"smart_contracts/module_architecture/ModuleManager.sol\":5779:5783  name */\n      dup7\n        /* \"smart_contracts/module_architecture/ModuleManager.sol\":5762:5784  nameToIdentifier[name] */\n      mload(0x40)\n      tag_130\n      swap2\n      swap1\n      tag_68\n      jump\t// in\n    tag_130:\n      swap1\n      dup2\n      mstore\n      0x20\n      add\n      mload(0x40)\n      dup1\n      swap2\n      sub\n      swap1\n      keccak256\n      sload\n        /* \"smart_contracts/module_architecture/ModuleManager.sol\":5754:5785  modules[nameToIdentifier[name]] */\n      dup2\n      mstore\n      0x20\n      add\n      swap1\n      dup2\n      mstore\n      0x20\n      add\n      0x00\n      keccak256\n        /* \"smart_contracts/module_architecture/ModuleManager.sol\":5730:5785  Module storage module = modules[nameToIdentifier[name]] */\n      swap1\n      pop\n        /* \"smart_contracts/module_architecture/ModuleManager.sol\":5802:5836  module.implementations.at(version) */\n      tag_131\n        /* \"smart_contracts/module_architecture/ModuleManager.sol\":5828:5835  version */\n      dup4\n        /* \"smart_contracts/module_architecture/ModuleManager.sol\":5802:5808  module */\n      dup3\n        /* \"smart_contracts/module_architecture/ModuleManager.sol\":5802:5824  module.implementations */\n      0x02\n      add\n        /* \"smart_contracts/module_architecture/ModuleManager.sol\":5802:5827  module.implementations.at */\n      tag_85\n      swap1\n        /* \"smart_contracts/module_architecture/ModuleManager.sol\":5802:5836  module.implementations.at(version) */\n      swap2\n      swap1\n      0xffffffff\n      and\n      jump\t// in\n    tag_131:\n        /* \"smart_contracts/module_architecture/ModuleManager.sol\":5795:5836  return module.implementations.at(version) */\n      swap2\n      pop\n      pop\n        /* \"smart_contracts/module_architecture/ModuleManager.sol\":5470:5843  function getImplementation(... */\n    tag_127:\n      swap3\n      swap2\n      pop\n      pop\n      jump\t// out\n        /* \"smart_contracts/module_architecture/ModuleManager.sol\":4370:4856  function downgrade(... */\n    tag_58:\n        /* \"deps/openzeppelin/security/ReentrancyGuard.sol\":2262:2283  _nonReentrantBefore() */\n      tag_133\n        /* \"deps/openzeppelin/security/ReentrancyGuard.sol\":2262:2281  _nonReentrantBefore */\n      tag_61\n        /* \"deps/openzeppelin/security/ReentrancyGuard.sol\":2262:2283  _nonReentrantBefore() */\n      jump\t// in\n    tag_133:\n        /* \"smart_contracts/module_architecture/ModuleManager.sol\":4475:4502  _mustBeExistingModule(name) */\n      tag_135\n        /* \"smart_contracts/module_architecture/ModuleManager.sol\":4497:4501  name */\n      dup3\n        /* \"smart_contracts/module_architecture/ModuleManager.sol\":4475:4496  _mustBeExistingModule */\n      tag_136\n        /* \"smart_contracts/module_architecture/ModuleManager.sol\":4475:4502  _mustBeExistingModule(name) */\n      jump\t// in\n    tag_135:\n        /* \"smart_contracts/module_architecture/ModuleManager.sol\":4513:4534  Module storage module */\n      0x00\n        /* \"smart_contracts/module_architecture/ModuleManager.sol\":4537:4544  modules */\n      0x02\n        /* \"smart_contracts/module_architecture/ModuleManager.sol\":4537:4568  modules[nameToIdentifier[name]] */\n      0x00\n        /* \"smart_contracts/module_architecture/ModuleManager.sol\":4545:4561  nameToIdentifier */\n      0x03\n        /* \"smart_contracts/module_architecture/ModuleManager.sol\":4562:4566  name */\n      dup6\n        /* \"smart_contracts/module_architecture/ModuleManager.sol\":4545:4567  nameToIdentifier[name] */\n      mload(0x40)\n      tag_137\n      swap2\n      swap1\n      tag_68\n      jump\t// in\n    tag_137:\n      swap1\n      dup2\n      mstore\n      0x20\n      add\n      mload(0x40)\n      dup1\n      swap2\n      sub\n      swap1\n      keccak256\n      sload\n        /* \"smart_contracts/module_architecture/ModuleManager.sol\":4537:4568  modules[nameToIdentifier[name]] */\n      dup2\n      mstore\n      0x20\n      add\n      swap1\n      dup2\n      mstore\n      0x20\n      add\n      0x00\n      keccak256\n        /* \"smart_contracts/module_architecture/ModuleManager.sol\":4513:4568  Module storage module = modules[nameToIdentifier[name]] */\n      swap1\n      pop\n        /* \"smart_contracts/module_architecture/ModuleManager.sol\":4578:4703  _upgrade( /// push this version as latest version.... */\n      tag_138\n        /* \"smart_contracts/module_architecture/ModuleManager.sol\":4641:4645  name */\n      dup4\n        /* \"smart_contracts/module_architecture/ModuleManager.sol\":4659:4693  module.implementations.at(version) */\n      tag_139\n        /* \"smart_contracts/module_architecture/ModuleManager.sol\":4685:4692  version */\n      dup5\n        /* \"smart_contracts/module_architecture/ModuleManager.sol\":4659:4665  module */\n      dup5\n        /* \"smart_contracts/module_architecture/ModuleManager.sol\":4659:4681  module.implementations */\n      0x02\n      add\n        /* \"smart_contracts/module_architecture/ModuleManager.sol\":4659:4684  module.implementations.at */\n      tag_85\n      swap1\n        /* \"smart_contracts/module_architecture/ModuleManager.sol\":4659:4693  module.implementations.at(version) */\n      swap2\n      swap1\n      0xffffffff\n      and\n      jump\t// in\n    tag_139:\n        /* \"smart_contracts/module_architecture/ModuleManager.sol\":4578:4586  _upgrade */\n      tag_66\n        /* \"smart_contracts/module_architecture/ModuleManager.sol\":4578:4703  _upgrade( /// push this version as latest version.... */\n      jump\t// in\n    tag_138:\n        /* \"smart_contracts/module_architecture/ModuleManager.sol\":4805:4839  module.implementations.at(version) */\n      tag_140\n        /* \"smart_contracts/module_architecture/ModuleManager.sol\":4805:4827  module.implementations */\n      0x02\n      dup3\n      add\n        /* \"smart_contracts/module_architecture/ModuleManager.sol\":4831:4838  version */\n      dup4\n        /* \"smart_contracts/module_architecture/ModuleManager.sol\":4805:4830  module.implementations.at */\n      tag_85\n        /* \"smart_contracts/module_architecture/ModuleManager.sol\":4805:4839  module.implementations.at(version) */\n      jump\t// in\n    tag_140:\n        /* \"smart_contracts/module_architecture/ModuleManager.sol\":4719:4849  ModuleDowngraded(... */\n      0xffffffffffffffffffffffffffffffffffffffff\n      and\n        /* \"smart_contracts/module_architecture/ModuleManager.sol\":4774:4780  module */\n      dup2\n        /* \"smart_contracts/module_architecture/ModuleManager.sol\":4774:4791  module.identifier */\n      0x00\n      add\n      sload\n        /* \"smart_contracts/module_architecture/ModuleManager.sol\":4749:4755  module */\n      dup3\n        /* \"smart_contracts/module_architecture/ModuleManager.sol\":4749:4760  module.name */\n      0x01\n      add\n        /* \"smart_contracts/module_architecture/ModuleManager.sol\":4719:4849  ModuleDowngraded(... */\n      mload(0x40)\n      tag_141\n      swap2\n      swap1\n      tag_118\n      jump\t// in\n    tag_141:\n      mload(0x40)\n      swap1\n      dup2\n      swap1\n      sub\n      dup2\n      keccak256\n      swap1\n      0x8f06933070a3367170d50b358e9d73813dfbaaa11081bd5580ae4af2baba122d\n      swap1\n      0x00\n      swap1\n      log4\n        /* \"smart_contracts/module_architecture/ModuleManager.sol\":4465:4856  {... */\n      pop\n        /* \"deps/openzeppelin/security/ReentrancyGuard.sol\":2304:2324  _nonReentrantAfter() */\n      tag_70\n        /* \"deps/openzeppelin/security/ReentrancyGuard.sol\":1717:1718  1 */\n      0x01\n        /* \"deps/openzeppelin/security/ReentrancyGuard.sol\":2810:2817  _status */\n      0x00\n        /* \"deps/openzeppelin/security/ReentrancyGuard.sol\":2810:2832  _status = _NOT_ENTERED */\n      sstore\n        /* \"deps/openzeppelin/security/ReentrancyGuard.sol\":2630:2839  function _nonReentrantAfter() private {... */\n      jump\n        /* \"deps/openzeppelin/security/ReentrancyGuard.sol\":2337:2624  function _nonReentrantBefore() private {... */\n    tag_61:\n        /* \"deps/openzeppelin/security/ReentrancyGuard.sol\":1760:1761  2 */\n      0x02\n        /* \"deps/openzeppelin/security/ReentrancyGuard.sol\":2469:2476  _status */\n      sload(0x00)\n        /* \"deps/openzeppelin/security/ReentrancyGuard.sol\":2469:2488  _status != _ENTERED */\n      sub\n        /* \"deps/openzeppelin/security/ReentrancyGuard.sol\":2461:2524  require(_status != _ENTERED, \"ReentrancyGuard: reentrant call\") */\n      tag_144\n      jumpi\n      mload(0x40)\n      0x08c379a000000000000000000000000000000000000000000000000000000000\n      dup2\n      mstore\n        /* \"#utility.yul\":9492:9494   */\n      0x20\n        /* \"deps/openzeppelin/security/ReentrancyGuard.sol\":2461:2524  require(_status != _ENTERED, \"ReentrancyGuard: reentrant call\") */\n      0x04\n      dup3\n      add\n        /* \"#utility.yul\":9474:9495   */\n      mstore\n        /* \"#utility.yul\":9531:9533   */\n      0x1f\n        /* \"#utility.yul\":9511:9529   */\n      0x24\n      dup3\n      add\n        /* \"#utility.yul\":9504:9534   */\n      mstore\n        /* \"#utility.yul\":9570:9603   */\n      0x5265656e7472616e637947756172643a207265656e7472616e742063616c6c00\n        /* \"#utility.yul\":9550:9568   */\n      0x44\n      dup3\n      add\n        /* \"#utility.yul\":9543:9604   */\n      mstore\n        /* \"#utility.yul\":9621:9639   */\n      0x64\n      add\n        /* \"deps/openzeppelin/security/ReentrancyGuard.sol\":2461:2524  require(_status != _ENTERED, \"ReentrancyGuard: reentrant call\") */\n    tag_145:\n      mload(0x40)\n      dup1\n      swap2\n      sub\n      swap1\n      revert\n    tag_144:\n        /* \"deps/openzeppelin/security/ReentrancyGuard.sol\":1760:1761  2 */\n      0x02\n        /* \"deps/openzeppelin/security/ReentrancyGuard.sol\":2599:2606  _status */\n      0x00\n        /* \"deps/openzeppelin/security/ReentrancyGuard.sol\":2599:2617  _status = _ENTERED */\n      sstore\n        /* \"deps/openzeppelin/security/ReentrancyGuard.sol\":2337:2624  function _nonReentrantBefore() private {... */\n      jump\t// out\n        /* \"smart_contracts/module_architecture/ModuleManager.sol\":2665:3083  function _mustNotBeDuplicateImplementation(... */\n    tag_64:\n        /* \"smart_contracts/module_architecture/ModuleManager.sol\":2874:2895  Module storage module */\n      0x00\n        /* \"smart_contracts/module_architecture/ModuleManager.sol\":2898:2905  modules */\n      0x02\n        /* \"smart_contracts/module_architecture/ModuleManager.sol\":2898:2929  modules[nameToIdentifier[name]] */\n      0x00\n        /* \"smart_contracts/module_architecture/ModuleManager.sol\":2906:2922  nameToIdentifier */\n      0x03\n        /* \"smart_contracts/module_architecture/ModuleManager.sol\":2923:2927  name */\n      dup6\n        /* \"smart_contracts/module_architecture/ModuleManager.sol\":2906:2928  nameToIdentifier[name] */\n      mload(0x40)\n      tag_148\n      swap2\n      swap1\n      tag_68\n      jump\t// in\n    tag_148:\n      swap1\n      dup2\n      mstore\n      0x20\n      add\n      mload(0x40)\n      dup1\n      swap2\n      sub\n      swap1\n      keccak256\n      sload\n        /* \"smart_contracts/module_architecture/ModuleManager.sol\":2898:2929  modules[nameToIdentifier[name]] */\n      dup2\n      mstore\n      0x20\n      add\n      swap1\n      dup2\n      mstore\n      0x20\n      add\n      0x00\n      keccak256\n        /* \"smart_contracts/module_architecture/ModuleManager.sol\":2874:2929  Module storage module = modules[nameToIdentifier[name]] */\n      swap1\n      pop\n        /* \"smart_contracts/module_architecture/ModuleManager.sol\":2961:3011  module.implementations.contains(newImplementation) */\n      tag_149\n        /* \"smart_contracts/module_architecture/ModuleManager.sol\":2993:3010  newImplementation */\n      dup3\n        /* \"smart_contracts/module_architecture/ModuleManager.sol\":2961:2967  module */\n      dup3\n        /* \"smart_contracts/module_architecture/ModuleManager.sol\":2961:2983  module.implementations */\n      0x02\n      add\n        /* \"smart_contracts/module_architecture/ModuleManager.sol\":2961:2992  module.implementations.contains */\n      tag_150\n      swap1\n        /* \"smart_contracts/module_architecture/ModuleManager.sol\":2961:3011  module.implementations.contains(newImplementation) */\n      swap2\n      swap1\n      0xffffffff\n      and\n      jump\t// in\n    tag_149:\n        /* \"smart_contracts/module_architecture/ModuleManager.sol\":2960:3011  !module.implementations.contains(newImplementation) */\n      iszero\n        /* \"smart_contracts/module_architecture/ModuleManager.sol\":2939:3076  require(... */\n      tag_151\n      jumpi\n      mload(0x40)\n      0x08c379a000000000000000000000000000000000000000000000000000000000\n      dup2\n      mstore\n        /* \"#utility.yul\":9852:9854   */\n      0x20\n        /* \"smart_contracts/module_architecture/ModuleManager.sol\":2939:3076  require(... */\n      0x04\n      dup3\n      add\n        /* \"#utility.yul\":9834:9855   */\n      mstore\n        /* \"#utility.yul\":9891:9893   */\n      0x27\n        /* \"#utility.yul\":9871:9889   */\n      0x24\n      dup3\n      add\n        /* \"#utility.yul\":9864:9894   */\n      mstore\n        /* \"#utility.yul\":9930:9964   */\n      0x4d6f64756c6520616c726561647920686173207468697320696d706c656d656e\n        /* \"#utility.yul\":9910:9928   */\n      0x44\n      dup3\n      add\n        /* \"#utility.yul\":9903:9965   */\n      mstore\n        /* \"#utility.yul\":10001:10010   */\n      0x746174696f6e2e00000000000000000000000000000000000000000000000000\n        /* \"#utility.yul\":9981:9999   */\n      0x64\n      dup3\n      add\n        /* \"#utility.yul\":9974:10011   */\n      mstore\n        /* \"#utility.yul\":10028:10047   */\n      0x84\n      add\n        /* \"smart_contracts/module_architecture/ModuleManager.sol\":2939:3076  require(... */\n      tag_145\n        /* \"#utility.yul\":9650:10053   */\n      jump\n        /* \"smart_contracts/module_architecture/ModuleManager.sol\":2939:3076  require(... */\n    tag_151:\n        /* \"smart_contracts/module_architecture/ModuleManager.sol\":2790:3083  {... */\n      pop\n        /* \"smart_contracts/module_architecture/ModuleManager.sol\":2665:3083  function _mustNotBeDuplicateImplementation(... */\n      pop\n      pop\n      jump\t// out\n        /* \"smart_contracts/module_architecture/ModuleManager.sol\":3089:3394  function _upgrade(... */\n    tag_66:\n        /* \"smart_contracts/module_architecture/ModuleManager.sol\":3240:3267  _mustBeExistingModule(name) */\n      tag_155\n        /* \"smart_contracts/module_architecture/ModuleManager.sol\":3262:3266  name */\n      dup3\n        /* \"smart_contracts/module_architecture/ModuleManager.sol\":3240:3261  _mustBeExistingModule */\n      tag_136\n        /* \"smart_contracts/module_architecture/ModuleManager.sol\":3240:3267  _mustBeExistingModule(name) */\n      jump\t// in\n    tag_155:\n        /* \"smart_contracts/module_architecture/ModuleManager.sol\":3277:3298  Module storage module */\n      0x00\n        /* \"smart_contracts/module_architecture/ModuleManager.sol\":3301:3308  modules */\n      0x02\n        /* \"smart_contracts/module_architecture/ModuleManager.sol\":3301:3332  modules[nameToIdentifier[name]] */\n      0x00\n        /* \"smart_contracts/module_architecture/ModuleManager.sol\":3309:3325  nameToIdentifier */\n      0x03\n        /* \"smart_contracts/module_architecture/ModuleManager.sol\":3326:3330  name */\n      dup6\n        /* \"smart_contracts/module_architecture/ModuleManager.sol\":3309:3331  nameToIdentifier[name] */\n      mload(0x40)\n      tag_156\n      swap2\n      swap1\n      tag_68\n      jump\t// in\n    tag_156:\n      swap1\n      dup2\n      mstore\n      0x20\n      add\n      mload(0x40)\n      dup1\n      swap2\n      sub\n      swap1\n      keccak256\n      sload\n        /* \"smart_contracts/module_architecture/ModuleManager.sol\":3301:3332  modules[nameToIdentifier[name]] */\n      dup2\n      mstore\n      0x20\n      add\n      swap1\n      dup2\n      mstore\n      0x20\n      add\n      0x00\n      keccak256\n        /* \"smart_contracts/module_architecture/ModuleManager.sol\":3277:3332  Module storage module = modules[nameToIdentifier[name]] */\n      swap1\n      pop\n        /* \"smart_contracts/module_architecture/ModuleManager.sol\":3342:3387  module.implementations.add(newImplementation) */\n      tag_157\n        /* \"smart_contracts/module_architecture/ModuleManager.sol\":3369:3386  newImplementation */\n      dup3\n        /* \"smart_contracts/module_architecture/ModuleManager.sol\":3342:3348  module */\n      dup3\n        /* \"smart_contracts/module_architecture/ModuleManager.sol\":3342:3364  module.implementations */\n      0x02\n      add\n        /* \"smart_contracts/module_architecture/ModuleManager.sol\":3342:3368  module.implementations.add */\n      tag_158\n      swap1\n        /* \"smart_contracts/module_architecture/ModuleManager.sol\":3342:3387  module.implementations.add(newImplementation) */\n      swap2\n      swap1\n      0xffffffff\n      and\n      jump\t// in\n    tag_157:\n      pop\n        /* \"smart_contracts/module_architecture/ModuleManager.sol\":3184:3394  {... */\n      pop\n        /* \"smart_contracts/module_architecture/ModuleManager.sol\":3089:3394  function _upgrade(... */\n      pop\n      pop\n      jump\t// out\n        /* \"deps/openzeppelin/utils/structs/EnumerableSet.sol\":9107:9222  function length(AddressSet storage set) internal view returns (uint256) {... */\n    tag_75:\n        /* \"deps/openzeppelin/utils/structs/EnumerableSet.sol\":9170:9177  uint256 */\n      0x00\n        /* \"deps/openzeppelin/utils/structs/EnumerableSet.sol\":9196:9215  _length(set._inner) */\n      tag_127\n        /* \"deps/openzeppelin/utils/structs/EnumerableSet.sol\":9204:9207  set */\n      dup3\n        /* \"deps/openzeppelin/utils/structs/EnumerableSet.sol\":4546:4564  set._values.length */\n      sload\n      swap1\n        /* \"deps/openzeppelin/utils/structs/EnumerableSet.sol\":4464:4571  function _length(Set storage set) private view returns (uint256) {... */\n      jump\n        /* \"deps/openzeppelin/utils/structs/EnumerableSet.sol\":9564:9720  function at(AddressSet storage set, uint256 index) internal view returns (address) {... */\n    tag_85:\n        /* \"deps/openzeppelin/utils/structs/EnumerableSet.sol\":9638:9645  address */\n      0x00\n        /* \"deps/openzeppelin/utils/structs/EnumerableSet.sol\":9688:9710  _at(set._inner, index) */\n      tag_122\n        /* \"deps/openzeppelin/utils/structs/EnumerableSet.sol\":9692:9695  set */\n      dup4\n        /* \"deps/openzeppelin/utils/structs/EnumerableSet.sol\":9704:9709  index */\n      dup4\n        /* \"deps/openzeppelin/utils/structs/EnumerableSet.sol\":9688:9691  _at */\n      tag_165\n        /* \"deps/openzeppelin/utils/structs/EnumerableSet.sol\":9688:9710  _at(set._inner, index) */\n      jump\t// in\n        /* \"smart_contracts/module_architecture/ModuleManager.sol\":1841:2073  function _mustNotBeExistingModule(string memory name) private view {... */\n    tag_112:\n        /* \"smart_contracts/module_architecture/ModuleManager.sol\":1983:1999  nameToIdentifier */\n      0x03\n        /* \"smart_contracts/module_architecture/ModuleManager.sol\":2000:2004  name */\n      dup2\n        /* \"smart_contracts/module_architecture/ModuleManager.sol\":1983:2005  nameToIdentifier[name] */\n      mload(0x40)\n      tag_167\n      swap2\n      swap1\n      tag_68\n      jump\t// in\n    tag_167:\n      swap1\n      dup2\n      mstore\n      0x20\n      add\n      mload(0x40)\n      dup1\n      swap2\n      sub\n      swap1\n      keccak256\n      sload\n        /* \"smart_contracts/module_architecture/ModuleManager.sol\":2009:2010  0 */\n      0x00\n        /* \"smart_contracts/module_architecture/ModuleManager.sol\":1983:2010  nameToIdentifier[name] == 0 */\n      eq\n        /* \"smart_contracts/module_architecture/ModuleManager.sol\":1962:2066  require(... */\n      tag_168\n      jumpi\n      mload(0x40)\n      0x08c379a000000000000000000000000000000000000000000000000000000000\n      dup2\n      mstore\n        /* \"#utility.yul\":10260:10262   */\n      0x20\n        /* \"smart_contracts/module_architecture/ModuleManager.sol\":1962:2066  require(... */\n      0x04\n      dup3\n      add\n        /* \"#utility.yul\":10242:10263   */\n      mstore\n        /* \"#utility.yul\":10299:10301   */\n      0x1e\n        /* \"#utility.yul\":10279:10297   */\n      0x24\n      dup3\n      add\n        /* \"#utility.yul\":10272:10302   */\n      mstore\n        /* \"#utility.yul\":10338:10370   */\n      0x4d6f64756c65206e616d6520697320616c726561647920696e207573652e0000\n        /* \"#utility.yul\":10318:10336   */\n      0x44\n      dup3\n      add\n        /* \"#utility.yul\":10311:10371   */\n      mstore\n        /* \"#utility.yul\":10388:10406   */\n      0x64\n      add\n        /* \"smart_contracts/module_architecture/ModuleManager.sol\":1962:2066  require(... */\n      tag_145\n        /* \"#utility.yul\":10058:10412   */\n      jump\n        /* \"smart_contracts/module_architecture/ModuleManager.sol\":1962:2066  require(... */\n    tag_168:\n        /* \"smart_contracts/module_architecture/ModuleManager.sol\":1841:2073  function _mustNotBeExistingModule(string memory name) private view {... */\n      pop\n      jump\t// out\n        /* \"smart_contracts/module_architecture/ModuleManager.sol\":2306:2659  function _mustBeExistingVersion(... */\n    tag_129:\n        /* \"smart_contracts/module_architecture/ModuleManager.sol\":2417:2438  Module storage module */\n      0x00\n        /* \"smart_contracts/module_architecture/ModuleManager.sol\":2441:2448  modules */\n      0x02\n        /* \"smart_contracts/module_architecture/ModuleManager.sol\":2441:2472  modules[nameToIdentifier[name]] */\n      0x00\n        /* \"smart_contracts/module_architecture/ModuleManager.sol\":2449:2465  nameToIdentifier */\n      0x03\n        /* \"smart_contracts/module_architecture/ModuleManager.sol\":2466:2470  name */\n      dup6\n        /* \"smart_contracts/module_architecture/ModuleManager.sol\":2449:2471  nameToIdentifier[name] */\n      mload(0x40)\n      tag_172\n      swap2\n      swap1\n      tag_68\n      jump\t// in\n    tag_172:\n      swap1\n      dup2\n      mstore\n      0x20\n      add\n      mload(0x40)\n      dup1\n      swap2\n      sub\n      swap1\n      keccak256\n      sload\n        /* \"smart_contracts/module_architecture/ModuleManager.sol\":2441:2472  modules[nameToIdentifier[name]] */\n      dup2\n      mstore\n      0x20\n      add\n      swap1\n      dup2\n      mstore\n      0x20\n      add\n      0x00\n      keccak256\n        /* \"smart_contracts/module_architecture/ModuleManager.sol\":2417:2472  Module storage module = modules[nameToIdentifier[name]] */\n      swap1\n      pop\n        /* \"smart_contracts/module_architecture/ModuleManager.sol\":2514:2515  1 */\n      0x01\n        /* \"smart_contracts/module_architecture/ModuleManager.sol\":2503:2510  version */\n      dup3\n        /* \"smart_contracts/module_architecture/ModuleManager.sol\":2503:2515  version >= 1 */\n      lt\n      iszero\n        /* \"smart_contracts/module_architecture/ModuleManager.sol\":2503:2573  version >= 1 &&... */\n      dup1\n      iszero\n      tag_173\n      jumpi\n      pop\n        /* \"smart_contracts/module_architecture/ModuleManager.sol\":2542:2573  module.implementations.length() */\n      tag_174\n        /* \"smart_contracts/module_architecture/ModuleManager.sol\":2542:2548  module */\n      dup2\n        /* \"smart_contracts/module_architecture/ModuleManager.sol\":2542:2564  module.implementations */\n      0x02\n      add\n        /* \"smart_contracts/module_architecture/ModuleManager.sol\":2542:2571  module.implementations.length */\n      tag_75\n        /* \"smart_contracts/module_architecture/ModuleManager.sol\":2542:2573  module.implementations.length() */\n      jump\t// in\n    tag_174:\n        /* \"smart_contracts/module_architecture/ModuleManager.sol\":2531:2538  version */\n      dup3\n        /* \"smart_contracts/module_architecture/ModuleManager.sol\":2531:2573  version <= module.implementations.length() */\n      gt\n      iszero\n        /* \"smart_contracts/module_architecture/ModuleManager.sol\":2503:2573  version >= 1 &&... */\n    tag_173:\n        /* \"smart_contracts/module_architecture/ModuleManager.sol\":2482:2652  require(... */\n      tag_151\n      jumpi\n      mload(0x40)\n      0x08c379a000000000000000000000000000000000000000000000000000000000\n      dup2\n      mstore\n        /* \"#utility.yul\":10619:10621   */\n      0x20\n        /* \"smart_contracts/module_architecture/ModuleManager.sol\":2482:2652  require(... */\n      0x04\n      dup3\n      add\n        /* \"#utility.yul\":10601:10622   */\n      mstore\n        /* \"#utility.yul\":10658:10660   */\n      0x35\n        /* \"#utility.yul\":10638:10656   */\n      0x24\n      dup3\n      add\n        /* \"#utility.yul\":10631:10661   */\n      mstore\n        /* \"#utility.yul\":10697:10731   */\n      0x56657273696f6e20646f6573206e6f7420706f696e7420746f20616e20657869\n        /* \"#utility.yul\":10677:10695   */\n      0x44\n      dup3\n      add\n        /* \"#utility.yul\":10670:10732   */\n      mstore\n        /* \"#utility.yul\":10768:10791   */\n      0x7374696e6720696d706c656d656e746174696f6e2e0000000000000000000000\n        /* \"#utility.yul\":10748:10766   */\n      0x64\n      dup3\n      add\n        /* \"#utility.yul\":10741:10792   */\n      mstore\n        /* \"#utility.yul\":10809:10828   */\n      0x84\n      add\n        /* \"smart_contracts/module_architecture/ModuleManager.sol\":2482:2652  require(... */\n      tag_145\n        /* \"#utility.yul\":10417:10834   */\n      jump\n        /* \"smart_contracts/module_architecture/ModuleManager.sol\":2079:2300  function _mustBeExistingModule(string memory name) private view {... */\n    tag_136:\n        /* \"smart_contracts/module_architecture/ModuleManager.sol\":2218:2234  nameToIdentifier */\n      0x03\n        /* \"smart_contracts/module_architecture/ModuleManager.sol\":2235:2239  name */\n      dup2\n        /* \"smart_contracts/module_architecture/ModuleManager.sol\":2218:2240  nameToIdentifier[name] */\n      mload(0x40)\n      tag_179\n      swap2\n      swap1\n      tag_68\n      jump\t// in\n    tag_179:\n      swap1\n      dup2\n      mstore\n      0x20\n      add\n      mload(0x40)\n      dup1\n      swap2\n      sub\n      swap1\n      keccak256\n      sload\n        /* \"smart_contracts/module_architecture/ModuleManager.sol\":2244:2245  0 */\n      0x00\n        /* \"smart_contracts/module_architecture/ModuleManager.sol\":2218:2245  nameToIdentifier[name] != 0 */\n      sub\n        /* \"smart_contracts/module_architecture/ModuleManager.sol\":2197:2293  require(... */\n      tag_168\n      jumpi\n      mload(0x40)\n      0x08c379a000000000000000000000000000000000000000000000000000000000\n      dup2\n      mstore\n        /* \"#utility.yul\":11041:11043   */\n      0x20\n        /* \"smart_contracts/module_architecture/ModuleManager.sol\":2197:2293  require(... */\n      0x04\n      dup3\n      add\n        /* \"#utility.yul\":11023:11044   */\n      mstore\n        /* \"#utility.yul\":11080:11082   */\n      0x16\n        /* \"#utility.yul\":11060:11078   */\n      0x24\n      dup3\n      add\n        /* \"#utility.yul\":11053:11083   */\n      mstore\n        /* \"#utility.yul\":11119:11143   */\n      0x4d6f64756c6520646f6573206e6f742065786973742e00000000000000000000\n        /* \"#utility.yul\":11099:11117   */\n      0x44\n      dup3\n      add\n        /* \"#utility.yul\":11092:11144   */\n      mstore\n        /* \"#utility.yul\":11161:11179   */\n      0x64\n      add\n        /* \"smart_contracts/module_architecture/ModuleManager.sol\":2197:2293  require(... */\n      tag_145\n        /* \"#utility.yul\":10839:11185   */\n      jump\n        /* \"deps/openzeppelin/utils/structs/EnumerableSet.sol\":8861:9026  function contains(AddressSet storage set, address value) internal view returns (bool) {... */\n    tag_150:\n        /* \"deps/openzeppelin/utils/structs/EnumerableSet.sol\":8994:9017  uint256(uint160(value)) */\n      0xffffffffffffffffffffffffffffffffffffffff\n      dup2\n      and\n        /* \"deps/openzeppelin/utils/structs/EnumerableSet.sol\":8941:8945  bool */\n      0x00\n        /* \"deps/openzeppelin/utils/structs/EnumerableSet.sol\":4352:4371  set._indexes[value] */\n      swap1\n      dup2\n      mstore\n        /* \"deps/openzeppelin/utils/structs/EnumerableSet.sol\":4352:4364  set._indexes */\n      0x01\n      dup4\n      add\n        /* \"deps/openzeppelin/utils/structs/EnumerableSet.sol\":4352:4371  set._indexes[value] */\n      0x20\n      mstore\n      0x40\n      dup2\n      keccak256\n      sload\n        /* \"deps/openzeppelin/utils/structs/EnumerableSet.sol\":4352:4376  set._indexes[value] != 0 */\n      iszero\n      iszero\n        /* \"deps/openzeppelin/utils/structs/EnumerableSet.sol\":8964:9019  _contains(set._inner, bytes32(uint256(uint160(value)))) */\n      tag_122\n        /* \"deps/openzeppelin/utils/structs/EnumerableSet.sol\":4256:4383  function _contains(Set storage set, bytes32 value) private view returns (bool) {... */\n      jump\n        /* \"deps/openzeppelin/utils/structs/EnumerableSet.sol\":8306:8456  function add(AddressSet storage set, address value) internal returns (bool) {... */\n    tag_158:\n        /* \"deps/openzeppelin/utils/structs/EnumerableSet.sol\":8376:8380  bool */\n      0x00\n        /* \"deps/openzeppelin/utils/structs/EnumerableSet.sol\":8399:8449  _add(set._inner, bytes32(uint256(uint160(value)))) */\n      tag_122\n        /* \"deps/openzeppelin/utils/structs/EnumerableSet.sol\":8404:8407  set */\n      dup4\n        /* \"deps/openzeppelin/utils/structs/EnumerableSet.sol\":8424:8447  uint256(uint160(value)) */\n      0xffffffffffffffffffffffffffffffffffffffff\n      dup5\n      and\n        /* \"deps/openzeppelin/utils/structs/EnumerableSet.sol\":8399:8403  _add */\n      tag_188\n        /* \"deps/openzeppelin/utils/structs/EnumerableSet.sol\":8399:8449  _add(set._inner, bytes32(uint256(uint160(value)))) */\n      jump\t// in\n        /* \"deps/openzeppelin/utils/structs/EnumerableSet.sol\":4913:5031  function _at(Set storage set, uint256 index) private view returns (bytes32) {... */\n    tag_165:\n        /* \"deps/openzeppelin/utils/structs/EnumerableSet.sol\":4980:4987  bytes32 */\n      0x00\n        /* \"deps/openzeppelin/utils/structs/EnumerableSet.sol\":5006:5009  set */\n      dup3\n        /* \"deps/openzeppelin/utils/structs/EnumerableSet.sol\":5006:5017  set._values */\n      0x00\n      add\n        /* \"deps/openzeppelin/utils/structs/EnumerableSet.sol\":5018:5023  index */\n      dup3\n        /* \"deps/openzeppelin/utils/structs/EnumerableSet.sol\":5006:5024  set._values[index] */\n      dup2\n      sload\n      dup2\n      lt\n      tag_192\n      jumpi\n      tag_192\n      tag_88\n      jump\t// in\n    tag_192:\n      swap1\n      0x00\n      mstore\n      keccak256(0x00, 0x20)\n      add\n      sload\n        /* \"deps/openzeppelin/utils/structs/EnumerableSet.sol\":4999:5024  return set._values[index] */\n      swap1\n      pop\n        /* \"deps/openzeppelin/utils/structs/EnumerableSet.sol\":4913:5031  function _at(Set storage set, uint256 index) private view returns (bytes32) {... */\n      swap3\n      swap2\n      pop\n      pop\n      jump\t// out\n        /* \"deps/openzeppelin/utils/structs/EnumerableSet.sol\":2215:2619  function _add(Set storage set, bytes32 value) private returns (bool) {... */\n    tag_188:\n        /* \"deps/openzeppelin/utils/structs/EnumerableSet.sol\":2278:2282  bool */\n      0x00\n        /* \"deps/openzeppelin/utils/structs/EnumerableSet.sol\":4352:4371  set._indexes[value] */\n      dup2\n      dup2\n      mstore\n        /* \"deps/openzeppelin/utils/structs/EnumerableSet.sol\":4352:4364  set._indexes */\n      0x01\n      dup4\n      add\n        /* \"deps/openzeppelin/utils/structs/EnumerableSet.sol\":4352:4371  set._indexes[value] */\n      0x20\n      mstore\n      0x40\n      dup2\n      keccak256\n      sload\n        /* \"deps/openzeppelin/utils/structs/EnumerableSet.sol\":2294:2613  if (!_contains(set, value)) {... */\n      tag_197\n      jumpi\n      pop\n        /* \"deps/openzeppelin/utils/structs/EnumerableSet.sol\":2336:2359  set._values.push(value) */\n      dup2\n      sload\n      0x01\n      dup2\n      dup2\n      add\n      dup5\n      sstore\n        /* \"deps/openzeppelin/utils/structs/EnumerableSet.sol\":2336:2347  set._values */\n      0x00\n        /* \"deps/openzeppelin/utils/structs/EnumerableSet.sol\":2336:2359  set._values.push(value) */\n      dup5\n      dup2\n      mstore\n      0x20\n      dup1\n      dup3\n      keccak256\n      swap1\n      swap4\n      add\n      dup5\n      swap1\n      sstore\n        /* \"deps/openzeppelin/utils/structs/EnumerableSet.sol\":2516:2534  set._values.length */\n      dup5\n      sload\n        /* \"deps/openzeppelin/utils/structs/EnumerableSet.sol\":2494:2513  set._indexes[value] */\n      dup5\n      dup3\n      mstore\n        /* \"deps/openzeppelin/utils/structs/EnumerableSet.sol\":2494:2506  set._indexes */\n      dup3\n      dup7\n      add\n        /* \"deps/openzeppelin/utils/structs/EnumerableSet.sol\":2494:2513  set._indexes[value] */\n      swap1\n      swap4\n      mstore\n      0x40\n      swap1\n      keccak256\n        /* \"deps/openzeppelin/utils/structs/EnumerableSet.sol\":2494:2534  set._indexes[value] = set._values.length */\n      swap2\n      swap1\n      swap2\n      sstore\n        /* \"deps/openzeppelin/utils/structs/EnumerableSet.sol\":2548:2559  return true */\n      jump(tag_127)\n        /* \"deps/openzeppelin/utils/structs/EnumerableSet.sol\":2294:2613  if (!_contains(set, value)) {... */\n    tag_197:\n      pop\n        /* \"deps/openzeppelin/utils/structs/EnumerableSet.sol\":2597:2602  false */\n      0x00\n        /* \"deps/openzeppelin/utils/structs/EnumerableSet.sol\":2590:2602  return false */\n      jump(tag_127)\n        /* \"#utility.yul\":196:380   */\n    tag_78:\n        /* \"#utility.yul\":248:325   */\n      0x4e487b7100000000000000000000000000000000000000000000000000000000\n        /* \"#utility.yul\":245:246   */\n      0x00\n        /* \"#utility.yul\":238:326   */\n      mstore\n        /* \"#utility.yul\":345:349   */\n      0x41\n        /* \"#utility.yul\":342:343   */\n      0x04\n        /* \"#utility.yul\":335:350   */\n      mstore\n        /* \"#utility.yul\":369:373   */\n      0x24\n        /* \"#utility.yul\":366:367   */\n      0x00\n        /* \"#utility.yul\":359:374   */\n      revert\n        /* \"#utility.yul\":385:1163   */\n    tag_200:\n        /* \"#utility.yul\":428:433   */\n      0x00\n        /* \"#utility.yul\":481:484   */\n      dup3\n        /* \"#utility.yul\":474:478   */\n      0x1f\n        /* \"#utility.yul\":466:472   */\n      dup4\n        /* \"#utility.yul\":462:479   */\n      add\n        /* \"#utility.yul\":458:485   */\n      slt\n        /* \"#utility.yul\":448:503   */\n      tag_209\n      jumpi\n        /* \"#utility.yul\":499:500   */\n      0x00\n        /* \"#utility.yul\":496:497   */\n      dup1\n        /* \"#utility.yul\":489:501   */\n      revert\n        /* \"#utility.yul\":448:503   */\n    tag_209:\n        /* \"#utility.yul\":535:541   */\n      dup2\n        /* \"#utility.yul\":522:542   */\n      calldataload\n        /* \"#utility.yul\":561:579   */\n      0xffffffffffffffff\n        /* \"#utility.yul\":598:600   */\n      dup1\n        /* \"#utility.yul\":594:596   */\n      dup3\n        /* \"#utility.yul\":591:601   */\n      gt\n        /* \"#utility.yul\":588:624   */\n      iszero\n      tag_211\n      jumpi\n        /* \"#utility.yul\":604:622   */\n      tag_211\n      tag_78\n      jump\t// in\n    tag_211:\n        /* \"#utility.yul\":738:740   */\n      0x40\n        /* \"#utility.yul\":732:741   */\n      mload\n        /* \"#utility.yul\":800:804   */\n      0x1f\n        /* \"#utility.yul\":792:805   */\n      dup4\n      add\n        /* \"#utility.yul\":643:709   */\n      0xffffffffffffffffffffffffffffffffffffffffffffffffffffffffffffffe0\n        /* \"#utility.yul\":788:810   */\n      swap1\n      dup2\n      and\n        /* \"#utility.yul\":812:814   */\n      0x3f\n        /* \"#utility.yul\":784:815   */\n      add\n        /* \"#utility.yul\":780:820   */\n      and\n        /* \"#utility.yul\":768:821   */\n      dup2\n      add\n      swap1\n        /* \"#utility.yul\":836:854   */\n      dup3\n      dup3\n      gt\n        /* \"#utility.yul\":856:878   */\n      dup2\n      dup4\n      lt\n        /* \"#utility.yul\":833:879   */\n      or\n        /* \"#utility.yul\":830:902   */\n      iszero\n      tag_213\n      jumpi\n        /* \"#utility.yul\":882:900   */\n      tag_213\n      tag_78\n      jump\t// in\n    tag_213:\n        /* \"#utility.yul\":922:932   */\n      dup2\n        /* \"#utility.yul\":918:920   */\n      0x40\n        /* \"#utility.yul\":911:933   */\n      mstore\n        /* \"#utility.yul\":957:959   */\n      dup4\n        /* \"#utility.yul\":949:955   */\n      dup2\n        /* \"#utility.yul\":942:960   */\n      mstore\n        /* \"#utility.yul\":1003:1006   */\n      dup7\n        /* \"#utility.yul\":996:1000   */\n      0x20\n        /* \"#utility.yul\":991:993   */\n      dup6\n        /* \"#utility.yul\":983:989   */\n      dup9\n        /* \"#utility.yul\":979:994   */\n      add\n        /* \"#utility.yul\":975:1001   */\n      add\n        /* \"#utility.yul\":972:1007   */\n      gt\n        /* \"#utility.yul\":969:1024   */\n      iszero\n      tag_214\n      jumpi\n        /* \"#utility.yul\":1020:1021   */\n      0x00\n        /* \"#utility.yul\":1017:1018   */\n      dup1\n        /* \"#utility.yul\":1010:1022   */\n      revert\n        /* \"#utility.yul\":969:1024   */\n    tag_214:\n        /* \"#utility.yul\":1084:1086   */\n      dup4\n        /* \"#utility.yul\":1077:1081   */\n      0x20\n        /* \"#utility.yul\":1069:1075   */\n      dup8\n        /* \"#utility.yul\":1065:1082   */\n      add\n        /* \"#utility.yul\":1058:1062   */\n      0x20\n        /* \"#utility.yul\":1050:1056   */\n      dup4\n        /* \"#utility.yul\":1046:1063   */\n      add\n        /* \"#utility.yul\":1033:1087   */\n      calldatacopy\n        /* \"#utility.yul\":1131:1132   */\n      0x00\n        /* \"#utility.yul\":1124:1128   */\n      0x20\n        /* \"#utility.yul\":1119:1121   */\n      dup6\n        /* \"#utility.yul\":1111:1117   */\n      dup4\n        /* \"#utility.yul\":1107:1122   */\n      add\n        /* \"#utility.yul\":1103:1129   */\n      add\n        /* \"#utility.yul\":1096:1133   */\n      mstore\n        /* \"#utility.yul\":1151:1157   */\n      dup1\n        /* \"#utility.yul\":1142:1157   */\n      swap5\n      pop\n      pop\n      pop\n      pop\n      pop\n        /* \"#utility.yul\":385:1163   */\n      swap3\n      swap2\n      pop\n      pop\n      jump\t// out\n        /* \"#utility.yul\":1168:1490   */\n    tag_22:\n        /* \"#utility.yul\":1237:1243   */\n      0x00\n        /* \"#utility.yul\":1290:1292   */\n      0x20\n        /* \"#utility.yul\":1278:1287   */\n      dup3\n        /* \"#utility.yul\":1269:1276   */\n      dup5\n        /* \"#utility.yul\":1265:1288   */\n      sub\n        /* \"#utility.yul\":1261:1293   */\n      slt\n        /* \"#utility.yul\":1258:1310   */\n      iszero\n      tag_216\n      jumpi\n        /* \"#utility.yul\":1306:1307   */\n      0x00\n        /* \"#utility.yul\":1303:1304   */\n      dup1\n        /* \"#utility.yul\":1296:1308   */\n      revert\n        /* \"#utility.yul\":1258:1310   */\n    tag_216:\n        /* \"#utility.yul\":1346:1355   */\n      dup2\n        /* \"#utility.yul\":1333:1356   */\n      calldataload\n        /* \"#utility.yul\":1379:1397   */\n      0xffffffffffffffff\n        /* \"#utility.yul\":1371:1377   */\n      dup2\n        /* \"#utility.yul\":1368:1398   */\n      gt\n        /* \"#utility.yul\":1365:1415   */\n      iszero\n      tag_217\n      jumpi\n        /* \"#utility.yul\":1411:1412   */\n      0x00\n        /* \"#utility.yul\":1408:1409   */\n      dup1\n        /* \"#utility.yul\":1401:1413   */\n      revert\n        /* \"#utility.yul\":1365:1415   */\n    tag_217:\n        /* \"#utility.yul\":1434:1484   */\n      tag_131\n        /* \"#utility.yul\":1476:1483   */\n      dup5\n        /* \"#utility.yul\":1467:1473   */\n      dup3\n        /* \"#utility.yul\":1456:1465   */\n      dup6\n        /* \"#utility.yul\":1452:1474   */\n      add\n        /* \"#utility.yul\":1434:1484   */\n      tag_200\n      jump\t// in\n        /* \"#utility.yul\":1495:2014   */\n    tag_27:\n        /* \"#utility.yul\":1573:1579   */\n      0x00\n        /* \"#utility.yul\":1581:1587   */\n      dup1\n        /* \"#utility.yul\":1634:1636   */\n      0x40\n        /* \"#utility.yul\":1622:1631   */\n      dup4\n        /* \"#utility.yul\":1613:1620   */\n      dup6\n        /* \"#utility.yul\":1609:1632   */\n      sub\n        /* \"#utility.yul\":1605:1637   */\n      slt\n        /* \"#utility.yul\":1602:1654   */\n      iszero\n      tag_220\n      jumpi\n        /* \"#utility.yul\":1650:1651   */\n      0x00\n        /* \"#utility.yul\":1647:1648   */\n      dup1\n        /* \"#utility.yul\":1640:1652   */\n      revert\n        /* \"#utility.yul\":1602:1654   */\n    tag_220:\n        /* \"#utility.yul\":1690:1699   */\n      dup3\n        /* \"#utility.yul\":1677:1700   */\n      calldataload\n        /* \"#utility.yul\":1723:1741   */\n      0xffffffffffffffff\n        /* \"#utility.yul\":1715:1721   */\n      dup2\n        /* \"#utility.yul\":1712:1742   */\n      gt\n        /* \"#utility.yul\":1709:1759   */\n      iszero\n      tag_221\n      jumpi\n        /* \"#utility.yul\":1755:1756   */\n      0x00\n        /* \"#utility.yul\":1752:1753   */\n      dup1\n        /* \"#utility.yul\":1745:1757   */\n      revert\n        /* \"#utility.yul\":1709:1759   */\n    tag_221:\n        /* \"#utility.yul\":1778:1828   */\n      tag_222\n        /* \"#utility.yul\":1820:1827   */\n      dup6\n        /* \"#utility.yul\":1811:1817   */\n      dup3\n        /* \"#utility.yul\":1800:1809   */\n      dup7\n        /* \"#utility.yul\":1796:1818   */\n      add\n        /* \"#utility.yul\":1778:1828   */\n      tag_200\n      jump\t// in\n    tag_222:\n        /* \"#utility.yul\":1768:1828   */\n      swap3\n      pop\n      pop\n        /* \"#utility.yul\":1878:1880   */\n      0x20\n        /* \"#utility.yul\":1867:1876   */\n      dup4\n        /* \"#utility.yul\":1863:1881   */\n      add\n        /* \"#utility.yul\":1850:1882   */\n      calldataload\n        /* \"#utility.yul\":1922:1964   */\n      0xffffffffffffffffffffffffffffffffffffffff\n        /* \"#utility.yul\":1915:1920   */\n      dup2\n        /* \"#utility.yul\":1911:1965   */\n      and\n        /* \"#utility.yul\":1904:1909   */\n      dup2\n        /* \"#utility.yul\":1901:1966   */\n      eq\n        /* \"#utility.yul\":1891:1984   */\n      tag_223\n      jumpi\n        /* \"#utility.yul\":1980:1981   */\n      0x00\n        /* \"#utility.yul\":1977:1978   */\n      dup1\n        /* \"#utility.yul\":1970:1982   */\n      revert\n        /* \"#utility.yul\":1891:1984   */\n    tag_223:\n        /* \"#utility.yul\":2003:2008   */\n      dup1\n        /* \"#utility.yul\":1993:2008   */\n      swap2\n      pop\n      pop\n        /* \"#utility.yul\":1495:2014   */\n      swap3\n      pop\n      swap3\n      swap1\n      pop\n      jump\t// out\n        /* \"#utility.yul\":2019:2700   */\n    tag_33:\n        /* \"#utility.yul\":2190:2192   */\n      0x20\n        /* \"#utility.yul\":2242:2263   */\n      dup1\n      dup3\n      mstore\n        /* \"#utility.yul\":2312:2325   */\n      dup3\n      mload\n        /* \"#utility.yul\":2215:2233   */\n      dup3\n      dup3\n      add\n        /* \"#utility.yul\":2334:2356   */\n      dup2\n      swap1\n      mstore\n        /* \"#utility.yul\":2161:2165   */\n      0x00\n      swap2\n        /* \"#utility.yul\":2190:2192   */\n      swap1\n        /* \"#utility.yul\":2413:2428   */\n      dup5\n      dup3\n      add\n      swap1\n        /* \"#utility.yul\":2387:2389   */\n      0x40\n        /* \"#utility.yul\":2372:2390   */\n      dup6\n      add\n      swap1\n        /* \"#utility.yul\":2161:2165   */\n      dup5\n        /* \"#utility.yul\":2456:2674   */\n    tag_225:\n        /* \"#utility.yul\":2470:2476   */\n      dup2\n        /* \"#utility.yul\":2467:2468   */\n      dup2\n        /* \"#utility.yul\":2464:2477   */\n      lt\n        /* \"#utility.yul\":2456:2674   */\n      iszero\n      tag_227\n      jumpi\n        /* \"#utility.yul\":2535:2548   */\n      dup4\n      mload\n        /* \"#utility.yul\":2550:2592   */\n      0xffffffffffffffffffffffffffffffffffffffff\n        /* \"#utility.yul\":2531:2593   */\n      and\n        /* \"#utility.yul\":2519:2594   */\n      dup4\n      mstore\n        /* \"#utility.yul\":2649:2664   */\n      swap3\n      dup5\n      add\n      swap3\n        /* \"#utility.yul\":2614:2626   */\n      swap2\n      dup5\n      add\n      swap2\n        /* \"#utility.yul\":2492:2493   */\n      0x01\n        /* \"#utility.yul\":2485:2494   */\n      add\n        /* \"#utility.yul\":2456:2674   */\n      jump(tag_225)\n    tag_227:\n      pop\n        /* \"#utility.yul\":2691:2694   */\n      swap1\n      swap7\n        /* \"#utility.yul\":2019:2700   */\n      swap6\n      pop\n      pop\n      pop\n      pop\n      pop\n      pop\n      jump\t// out\n        /* \"#utility.yul\":2705:2955   */\n    tag_201:\n        /* \"#utility.yul\":2790:2791   */\n      0x00\n        /* \"#utility.yul\":2800:2913   */\n    tag_229:\n        /* \"#utility.yul\":2814:2820   */\n      dup4\n        /* \"#utility.yul\":2811:2812   */\n      dup2\n        /* \"#utility.yul\":2808:2821   */\n      lt\n        /* \"#utility.yul\":2800:2913   */\n      iszero\n      tag_231\n      jumpi\n        /* \"#utility.yul\":2890:2901   */\n      dup2\n      dup2\n      add\n        /* \"#utility.yul\":2884:2902   */\n      mload\n        /* \"#utility.yul\":2871:2882   */\n      dup4\n      dup3\n      add\n        /* \"#utility.yul\":2864:2903   */\n      mstore\n        /* \"#utility.yul\":2836:2838   */\n      0x20\n        /* \"#utility.yul\":2829:2839   */\n      add\n        /* \"#utility.yul\":2800:2913   */\n      jump(tag_229)\n    tag_231:\n      pop\n      pop\n        /* \"#utility.yul\":2947:2948   */\n      0x00\n        /* \"#utility.yul\":2929:2945   */\n      swap2\n      add\n        /* \"#utility.yul\":2922:2949   */\n      mstore\n        /* \"#utility.yul\":2705:2955   */\n      jump\t// out\n        /* \"#utility.yul\":2960:4092   */\n    tag_37:\n        /* \"#utility.yul\":3122:3126   */\n      0x00\n        /* \"#utility.yul\":3151:3153   */\n      0x20\n        /* \"#utility.yul\":3191:3193   */\n      dup1\n        /* \"#utility.yul\":3180:3189   */\n      dup4\n        /* \"#utility.yul\":3176:3194   */\n      add\n        /* \"#utility.yul\":3221:3223   */\n      dup2\n        /* \"#utility.yul\":3210:3219   */\n      dup5\n        /* \"#utility.yul\":3203:3224   */\n      mstore\n        /* \"#utility.yul\":3244:3250   */\n      dup1\n        /* \"#utility.yul\":3279:3285   */\n      dup6\n        /* \"#utility.yul\":3273:3286   */\n      mload\n        /* \"#utility.yul\":3310:3316   */\n      dup1\n        /* \"#utility.yul\":3302:3308   */\n      dup4\n        /* \"#utility.yul\":3295:3317   */\n      mstore\n        /* \"#utility.yul\":3348:3350   */\n      0x40\n        /* \"#utility.yul\":3337:3346   */\n      dup7\n        /* \"#utility.yul\":3333:3351   */\n      add\n        /* \"#utility.yul\":3326:3351   */\n      swap2\n      pop\n        /* \"#utility.yul\":3410:3412   */\n      0x40\n        /* \"#utility.yul\":3400:3406   */\n      dup2\n        /* \"#utility.yul\":3397:3398   */\n      0x05\n        /* \"#utility.yul\":3393:3407   */\n      shl\n        /* \"#utility.yul\":3382:3391   */\n      dup8\n        /* \"#utility.yul\":3378:3408   */\n      add\n        /* \"#utility.yul\":3374:3413   */\n      add\n        /* \"#utility.yul\":3360:3413   */\n      swap3\n      pop\n        /* \"#utility.yul\":3448:3450   */\n      dup4\n        /* \"#utility.yul\":3440:3446   */\n      dup8\n        /* \"#utility.yul\":3436:3451   */\n      add\n        /* \"#utility.yul\":3469:3470   */\n      0x00\n        /* \"#utility.yul\":3479:4063   */\n    tag_233:\n        /* \"#utility.yul\":3493:3499   */\n      dup3\n        /* \"#utility.yul\":3490:3491   */\n      dup2\n        /* \"#utility.yul\":3487:3500   */\n      lt\n        /* \"#utility.yul\":3479:4063   */\n      iszero\n      tag_235\n      jumpi\n        /* \"#utility.yul\":3582:3648   */\n      0xffffffffffffffffffffffffffffffffffffffffffffffffffffffffffffffc0\n        /* \"#utility.yul\":3570:3579   */\n      dup9\n        /* \"#utility.yul\":3562:3568   */\n      dup7\n        /* \"#utility.yul\":3558:3580   */\n      sub\n        /* \"#utility.yul\":3554:3649   */\n      add\n        /* \"#utility.yul\":3549:3552   */\n      dup5\n        /* \"#utility.yul\":3542:3650   */\n      mstore\n        /* \"#utility.yul\":3679:3685   */\n      dup2\n        /* \"#utility.yul\":3673:3686   */\n      mload\n        /* \"#utility.yul\":3721:3723   */\n      dup1\n        /* \"#utility.yul\":3715:3724   */\n      mload\n        /* \"#utility.yul\":3752:3760   */\n      dup1\n        /* \"#utility.yul\":3744:3750   */\n      dup8\n        /* \"#utility.yul\":3737:3761   */\n      mstore\n        /* \"#utility.yul\":3774:3848   */\n      tag_236\n        /* \"#utility.yul\":3839:3847   */\n      dup2\n        /* \"#utility.yul\":3834:3836   */\n      dup10\n        /* \"#utility.yul\":3826:3832   */\n      dup10\n        /* \"#utility.yul\":3822:3837   */\n      add\n        /* \"#utility.yul\":3817:3819   */\n      dup11\n        /* \"#utility.yul\":3813:3815   */\n      dup6\n        /* \"#utility.yul\":3809:3820   */\n      add\n        /* \"#utility.yul\":3774:3848   */\n      tag_201\n      jump\t// in\n    tag_236:\n        /* \"#utility.yul\":3905:3907   */\n      0x1f\n        /* \"#utility.yul\":3891:3908   */\n      add\n        /* \"#utility.yul\":3910:3976   */\n      0xffffffffffffffffffffffffffffffffffffffffffffffffffffffffffffffe0\n        /* \"#utility.yul\":3887:3977   */\n      and\n        /* \"#utility.yul\":3875:3978   */\n      swap6\n      swap1\n      swap6\n      add\n        /* \"#utility.yul\":3871:3983   */\n      dup7\n      add\n      swap5\n      pop\n        /* \"#utility.yul\":4041:4053   */\n      swap3\n      dup6\n      add\n      swap3\n        /* \"#utility.yul\":4006:4021   */\n      swap1\n      dup6\n      add\n      swap1\n        /* \"#utility.yul\":3515:3516   */\n      0x01\n        /* \"#utility.yul\":3508:3517   */\n      add\n        /* \"#utility.yul\":3479:4063   */\n      jump(tag_233)\n    tag_235:\n      pop\n        /* \"#utility.yul\":4080:4086   */\n      swap3\n      swap8\n        /* \"#utility.yul\":2960:4092   */\n      swap7\n      pop\n      pop\n      pop\n      pop\n      pop\n      pop\n      pop\n      jump\t// out\n        /* \"#utility.yul\":4328:4718   */\n    tag_53:\n        /* \"#utility.yul\":4406:4412   */\n      0x00\n        /* \"#utility.yul\":4414:4420   */\n      dup1\n        /* \"#utility.yul\":4467:4469   */\n      0x40\n        /* \"#utility.yul\":4455:4464   */\n      dup4\n        /* \"#utility.yul\":4446:4453   */\n      dup6\n        /* \"#utility.yul\":4442:4465   */\n      sub\n        /* \"#utility.yul\":4438:4470   */\n      slt\n        /* \"#utility.yul\":4435:4487   */\n      iszero\n      tag_239\n      jumpi\n        /* \"#utility.yul\":4483:4484   */\n      0x00\n        /* \"#utility.yul\":4480:4481   */\n      dup1\n        /* \"#utility.yul\":4473:4485   */\n      revert\n        /* \"#utility.yul\":4435:4487   */\n    tag_239:\n        /* \"#utility.yul\":4523:4532   */\n      dup3\n        /* \"#utility.yul\":4510:4533   */\n      calldataload\n        /* \"#utility.yul\":4556:4574   */\n      0xffffffffffffffff\n        /* \"#utility.yul\":4548:4554   */\n      dup2\n        /* \"#utility.yul\":4545:4575   */\n      gt\n        /* \"#utility.yul\":4542:4592   */\n      iszero\n      tag_240\n      jumpi\n        /* \"#utility.yul\":4588:4589   */\n      0x00\n        /* \"#utility.yul\":4585:4586   */\n      dup1\n        /* \"#utility.yul\":4578:4590   */\n      revert\n        /* \"#utility.yul\":4542:4592   */\n    tag_240:\n        /* \"#utility.yul\":4611:4661   */\n      tag_241\n        /* \"#utility.yul\":4653:4660   */\n      dup6\n        /* \"#utility.yul\":4644:4650   */\n      dup3\n        /* \"#utility.yul\":4633:4642   */\n      dup7\n        /* \"#utility.yul\":4629:4651   */\n      add\n        /* \"#utility.yul\":4611:4661   */\n      tag_200\n      jump\t// in\n    tag_241:\n        /* \"#utility.yul\":4601:4661   */\n      swap6\n        /* \"#utility.yul\":4708:4710   */\n      0x20\n        /* \"#utility.yul\":4693:4711   */\n      swap5\n      swap1\n      swap5\n      add\n        /* \"#utility.yul\":4680:4712   */\n      calldataload\n      swap5\n      pop\n      pop\n      pop\n      pop\n        /* \"#utility.yul\":4328:4718   */\n      jump\t// out\n        /* \"#utility.yul\":4723:5012   */\n    tag_68:\n        /* \"#utility.yul\":4854:4857   */\n      0x00\n        /* \"#utility.yul\":4892:4898   */\n      dup3\n        /* \"#utility.yul\":4886:4899   */\n      mload\n        /* \"#utility.yul\":4908:4974   */\n      tag_243\n        /* \"#utility.yul\":4967:4973   */\n      dup2\n        /* \"#utility.yul\":4962:4965   */\n      dup5\n        /* \"#utility.yul\":4955:4959   */\n      0x20\n        /* \"#utility.yul\":4947:4953   */\n      dup8\n        /* \"#utility.yul\":4943:4960   */\n      add\n        /* \"#utility.yul\":4908:4974   */\n      tag_201\n      jump\t// in\n    tag_243:\n        /* \"#utility.yul\":4990:5006   */\n      swap2\n      swap1\n      swap2\n      add\n      swap3\n        /* \"#utility.yul\":4723:5012   */\n      swap2\n      pop\n      pop\n      jump\t// out\n        /* \"#utility.yul\":5017:5201   */\n    tag_88:\n        /* \"#utility.yul\":5069:5146   */\n      0x4e487b7100000000000000000000000000000000000000000000000000000000\n        /* \"#utility.yul\":5066:5067   */\n      0x00\n        /* \"#utility.yul\":5059:5147   */\n      mstore\n        /* \"#utility.yul\":5166:5170   */\n      0x32\n        /* \"#utility.yul\":5163:5164   */\n      0x04\n        /* \"#utility.yul\":5156:5171   */\n      mstore\n        /* \"#utility.yul\":5190:5194   */\n      0x24\n        /* \"#utility.yul\":5187:5188   */\n      0x00\n        /* \"#utility.yul\":5180:5195   */\n      revert\n        /* \"#utility.yul\":5206:5555   */\n    tag_90:\n        /* \"#utility.yul\":5245:5248   */\n      0x00\n        /* \"#utility.yul\":5276:5342   */\n      0xffffffffffffffffffffffffffffffffffffffffffffffffffffffffffffffff\n        /* \"#utility.yul\":5269:5274   */\n      dup3\n        /* \"#utility.yul\":5266:5343   */\n      sub\n        /* \"#utility.yul\":5263:5520   */\n      tag_246\n      jumpi\n        /* \"#utility.yul\":5376:5453   */\n      0x4e487b7100000000000000000000000000000000000000000000000000000000\n        /* \"#utility.yul\":5373:5374   */\n      0x00\n        /* \"#utility.yul\":5366:5454   */\n      mstore\n        /* \"#utility.yul\":5477:5481   */\n      0x11\n        /* \"#utility.yul\":5474:5475   */\n      0x04\n        /* \"#utility.yul\":5467:5482   */\n      mstore\n        /* \"#utility.yul\":5505:5509   */\n      0x24\n        /* \"#utility.yul\":5502:5503   */\n      0x00\n        /* \"#utility.yul\":5495:5510   */\n      revert\n        /* \"#utility.yul\":5263:5520   */\n    tag_246:\n      pop\n        /* \"#utility.yul\":5547:5548   */\n      0x01\n        /* \"#utility.yul\":5536:5549   */\n      add\n      swap1\n        /* \"#utility.yul\":5206:5555   */\n      jump\t// out\n        /* \"#utility.yul\":5560:5997   */\n    tag_100:\n        /* \"#utility.yul\":5639:5640   */\n      0x01\n        /* \"#utility.yul\":5635:5647   */\n      dup2\n      dup2\n      shr\n      swap1\n        /* \"#utility.yul\":5682:5694   */\n      dup3\n      and\n      dup1\n        /* \"#utility.yul\":5703:5764   */\n      tag_248\n      jumpi\n        /* \"#utility.yul\":5757:5761   */\n      0x7f\n        /* \"#utility.yul\":5749:5755   */\n      dup3\n        /* \"#utility.yul\":5745:5762   */\n      and\n        /* \"#utility.yul\":5735:5762   */\n      swap2\n      pop\n        /* \"#utility.yul\":5703:5764   */\n    tag_248:\n        /* \"#utility.yul\":5810:5812   */\n      0x20\n        /* \"#utility.yul\":5802:5808   */\n      dup3\n        /* \"#utility.yul\":5799:5813   */\n      lt\n        /* \"#utility.yul\":5779:5797   */\n      dup2\n        /* \"#utility.yul\":5776:5814   */\n      sub\n        /* \"#utility.yul\":5773:5991   */\n      tag_97\n      jumpi\n        /* \"#utility.yul\":5847:5924   */\n      0x4e487b7100000000000000000000000000000000000000000000000000000000\n        /* \"#utility.yul\":5844:5845   */\n      0x00\n        /* \"#utility.yul\":5837:5925   */\n      mstore\n        /* \"#utility.yul\":5948:5952   */\n      0x22\n        /* \"#utility.yul\":5945:5946   */\n      0x04\n        /* \"#utility.yul\":5938:5953   */\n      mstore\n        /* \"#utility.yul\":5976:5980   */\n      0x24\n        /* \"#utility.yul\":5973:5974   */\n      0x00\n        /* \"#utility.yul\":5966:5981   */\n      revert\n        /* \"#utility.yul\":6128:6673   */\n    tag_203:\n        /* \"#utility.yul\":6230:6232   */\n      0x1f\n        /* \"#utility.yul\":6225:6228   */\n      dup3\n        /* \"#utility.yul\":6222:6233   */\n      gt\n        /* \"#utility.yul\":6219:6667   */\n      iszero\n      tag_151\n      jumpi\n        /* \"#utility.yul\":6266:6267   */\n      0x00\n        /* \"#utility.yul\":6291:6296   */\n      dup2\n        /* \"#utility.yul\":6287:6289   */\n      dup2\n        /* \"#utility.yul\":6280:6297   */\n      mstore\n        /* \"#utility.yul\":6336:6340   */\n      0x20\n        /* \"#utility.yul\":6332:6334   */\n      dup2\n        /* \"#utility.yul\":6322:6341   */\n      keccak256\n        /* \"#utility.yul\":6406:6408   */\n      0x1f\n        /* \"#utility.yul\":6394:6404   */\n      dup6\n        /* \"#utility.yul\":6390:6409   */\n      add\n        /* \"#utility.yul\":6387:6388   */\n      0x05\n        /* \"#utility.yul\":6383:6410   */\n      shr\n        /* \"#utility.yul\":6377:6381   */\n      dup2\n        /* \"#utility.yul\":6373:6411   */\n      add\n        /* \"#utility.yul\":6442:6446   */\n      0x20\n        /* \"#utility.yul\":6430:6440   */\n      dup7\n        /* \"#utility.yul\":6427:6447   */\n      lt\n        /* \"#utility.yul\":6424:6471   */\n      iszero\n      tag_253\n      jumpi\n      pop\n        /* \"#utility.yul\":6465:6469   */\n      dup1\n        /* \"#utility.yul\":6424:6471   */\n    tag_253:\n        /* \"#utility.yul\":6520:6522   */\n      0x1f\n        /* \"#utility.yul\":6515:6518   */\n      dup6\n        /* \"#utility.yul\":6511:6523   */\n      add\n        /* \"#utility.yul\":6508:6509   */\n      0x05\n        /* \"#utility.yul\":6504:6524   */\n      shr\n        /* \"#utility.yul\":6498:6502   */\n      dup3\n        /* \"#utility.yul\":6494:6525   */\n      add\n        /* \"#utility.yul\":6484:6525   */\n      swap2\n      pop\n        /* \"#utility.yul\":6575:6657   */\n    tag_254:\n        /* \"#utility.yul\":6593:6595   */\n      dup2\n        /* \"#utility.yul\":6586:6591   */\n      dup2\n        /* \"#utility.yul\":6583:6596   */\n      lt\n        /* \"#utility.yul\":6575:6657   */\n      iszero\n      tag_256\n      jumpi\n        /* \"#utility.yul\":6638:6655   */\n      dup3\n      dup2\n      sstore\n        /* \"#utility.yul\":6619:6620   */\n      0x01\n        /* \"#utility.yul\":6608:6621   */\n      add\n        /* \"#utility.yul\":6575:6657   */\n      jump(tag_254)\n    tag_256:\n        /* \"#utility.yul\":6579:6582   */\n      pop\n      pop\n      pop\n        /* \"#utility.yul\":6128:6673   */\n      pop\n      pop\n      pop\n      jump\t// out\n        /* \"#utility.yul\":6909:8380   */\n    tag_116:\n        /* \"#utility.yul\":7035:7038   */\n      dup2\n        /* \"#utility.yul\":7029:7039   */\n      mload\n        /* \"#utility.yul\":7062:7080   */\n      0xffffffffffffffff\n        /* \"#utility.yul\":7054:7060   */\n      dup2\n        /* \"#utility.yul\":7051:7081   */\n      gt\n        /* \"#utility.yul\":7048:7104   */\n      iszero\n      tag_260\n      jumpi\n        /* \"#utility.yul\":7084:7102   */\n      tag_260\n      tag_78\n      jump\t// in\n    tag_260:\n        /* \"#utility.yul\":7113:7210   */\n      tag_261\n        /* \"#utility.yul\":7203:7209   */\n      dup2\n        /* \"#utility.yul\":7163:7201   */\n      tag_262\n        /* \"#utility.yul\":7195:7199   */\n      dup5\n        /* \"#utility.yul\":7189:7200   */\n      sload\n        /* \"#utility.yul\":7163:7201   */\n      tag_100\n      jump\t// in\n    tag_262:\n        /* \"#utility.yul\":7157:7161   */\n      dup5\n        /* \"#utility.yul\":7113:7210   */\n      tag_203\n      jump\t// in\n    tag_261:\n        /* \"#utility.yul\":7265:7269   */\n      0x20\n      dup1\n        /* \"#utility.yul\":7329:7331   */\n      0x1f\n        /* \"#utility.yul\":7318:7332   */\n      dup4\n      gt\n        /* \"#utility.yul\":7346:7347   */\n      0x01\n        /* \"#utility.yul\":7341:8123   */\n      dup2\n      eq\n      tag_264\n      jumpi\n        /* \"#utility.yul\":8167:8168   */\n      0x00\n        /* \"#utility.yul\":8184:8190   */\n      dup5\n        /* \"#utility.yul\":8181:8270   */\n      iszero\n      tag_265\n      jumpi\n      pop\n        /* \"#utility.yul\":8236:8255   */\n      dup6\n      dup4\n      add\n        /* \"#utility.yul\":8230:8256   */\n      mload\n        /* \"#utility.yul\":8181:8270   */\n    tag_265:\n        /* \"#utility.yul\":6815:6881   */\n      0xffffffffffffffffffffffffffffffffffffffffffffffffffffffffffffffff\n        /* \"#utility.yul\":6806:6807   */\n      0x03\n        /* \"#utility.yul\":6802:6813   */\n      dup7\n      swap1\n      shl\n        /* \"#utility.yul\":6798:6882   */\n      shr\n        /* \"#utility.yul\":6794:6883   */\n      not\n        /* \"#utility.yul\":6784:6884   */\n      and\n        /* \"#utility.yul\":6890:6891   */\n      0x01\n        /* \"#utility.yul\":6886:6897   */\n      dup6\n      swap1\n      shl\n        /* \"#utility.yul\":6781:6898   */\n      or\n        /* \"#utility.yul\":8283:8364   */\n      dup6\n      sstore\n        /* \"#utility.yul\":7311:8374   */\n      jump(tag_256)\n        /* \"#utility.yul\":7341:8123   */\n    tag_264:\n        /* \"#utility.yul\":6075:6076   */\n      0x00\n        /* \"#utility.yul\":6068:6082   */\n      dup6\n      dup2\n      mstore\n        /* \"#utility.yul\":6112:6116   */\n      0x20\n        /* \"#utility.yul\":6099:6117   */\n      dup2\n      keccak256\n        /* \"#utility.yul\":7389:7455   */\n      0xffffffffffffffffffffffffffffffffffffffffffffffffffffffffffffffe0\n        /* \"#utility.yul\":7377:7456   */\n      dup7\n      and\n      swap2\n        /* \"#utility.yul\":7554:7790   */\n    tag_268:\n        /* \"#utility.yul\":7568:7575   */\n      dup3\n        /* \"#utility.yul\":7565:7566   */\n      dup2\n        /* \"#utility.yul\":7562:7576   */\n      lt\n        /* \"#utility.yul\":7554:7790   */\n      iszero\n      tag_270\n      jumpi\n        /* \"#utility.yul\":7657:7676   */\n      dup9\n      dup7\n      add\n        /* \"#utility.yul\":7651:7677   */\n      mload\n        /* \"#utility.yul\":7636:7678   */\n      dup3\n      sstore\n        /* \"#utility.yul\":7749:7776   */\n      swap5\n      dup5\n      add\n      swap5\n        /* \"#utility.yul\":7717:7718   */\n      0x01\n        /* \"#utility.yul\":7705:7719   */\n      swap1\n      swap2\n      add\n      swap1\n        /* \"#utility.yul\":7584:7603   */\n      dup5\n      add\n        /* \"#utility.yul\":7554:7790   */\n      jump(tag_268)\n    tag_270:\n        /* \"#utility.yul\":7558:7561   */\n      pop\n        /* \"#utility.yul\":7818:7824   */\n      dup6\n        /* \"#utility.yul\":7809:7816   */\n      dup3\n        /* \"#utility.yul\":7806:7825   */\n      lt\n        /* \"#utility.yul\":7803:8064   */\n      iszero\n      tag_271\n      jumpi\n        /* \"#utility.yul\":7879:7898   */\n      dup8\n      dup6\n      add\n        /* \"#utility.yul\":7873:7899   */\n      mload\n        /* \"#utility.yul\":7980:8046   */\n      0xffffffffffffffffffffffffffffffffffffffffffffffffffffffffffffffff\n        /* \"#utility.yul\":7962:7963   */\n      0x03\n        /* \"#utility.yul\":7958:7972   */\n      dup9\n      swap1\n      shl\n        /* \"#utility.yul\":7974:7977   */\n      0xf8\n        /* \"#utility.yul\":7954:7978   */\n      and\n        /* \"#utility.yul\":7950:8047   */\n      shr\n        /* \"#utility.yul\":7946:8048   */\n      not\n        /* \"#utility.yul\":7931:8049   */\n      and\n        /* \"#utility.yul\":7916:8050   */\n      dup2\n      sstore\n        /* \"#utility.yul\":7803:8064   */\n    tag_271:\n      pop\n      pop\n      pop\n      pop\n      pop\n        /* \"#utility.yul\":8110:8111   */\n      0x01\n        /* \"#utility.yul\":8094:8108   */\n      swap1\n      dup2\n      shl\n        /* \"#utility.yul\":8090:8112   */\n      add\n        /* \"#utility.yul\":8077:8113   */\n      swap1\n      sstore\n      pop\n        /* \"#utility.yul\":6909:8380   */\n      jump\t// out\n        /* \"#utility.yul\":8385:9285   */\n    tag_118:\n        /* \"#utility.yul\":8513:8516   */\n      0x00\n        /* \"#utility.yul\":8542:8543   */\n      dup1\n        /* \"#utility.yul\":8575:8581   */\n      dup4\n        /* \"#utility.yul\":8569:8582   */\n      sload\n        /* \"#utility.yul\":8605:8641   */\n      tag_273\n        /* \"#utility.yul\":8631:8640   */\n      dup2\n        /* \"#utility.yul\":8605:8641   */\n      tag_100\n      jump\t// in\n    tag_273:\n        /* \"#utility.yul\":8660:8661   */\n      0x01\n        /* \"#utility.yul\":8677:8695   */\n      dup3\n      dup2\n      and\n        /* \"#utility.yul\":8704:8895   */\n      dup1\n      iszero\n      tag_275\n      jumpi\n        /* \"#utility.yul\":8909:8910   */\n      0x01\n        /* \"#utility.yul\":8904:9260   */\n      dup2\n      eq\n      tag_276\n      jumpi\n        /* \"#utility.yul\":8670:9260   */\n      jump(tag_274)\n        /* \"#utility.yul\":8704:8895   */\n    tag_275:\n        /* \"#utility.yul\":8752:8818   */\n      0xffffffffffffffffffffffffffffffffffffffffffffffffffffffffffffff00\n        /* \"#utility.yul\":8741:8750   */\n      dup5\n        /* \"#utility.yul\":8737:8819   */\n      and\n        /* \"#utility.yul\":8732:8735   */\n      dup8\n        /* \"#utility.yul\":8725:8820   */\n      mstore\n        /* \"#utility.yul\":8875:8881   */\n      dup3\n        /* \"#utility.yul\":8868:8882   */\n      iszero\n        /* \"#utility.yul\":8861:8883   */\n      iszero\n        /* \"#utility.yul\":8853:8859   */\n      dup4\n        /* \"#utility.yul\":8849:8884   */\n      mul\n        /* \"#utility.yul\":8844:8847   */\n      dup8\n        /* \"#utility.yul\":8840:8885   */\n      add\n        /* \"#utility.yul\":8833:8885   */\n      swap5\n      pop\n        /* \"#utility.yul\":8704:8895   */\n      jump(tag_274)\n        /* \"#utility.yul\":8904:9260   */\n    tag_276:\n        /* \"#utility.yul\":8935:8941   */\n      dup8\n        /* \"#utility.yul\":8932:8933   */\n      0x00\n        /* \"#utility.yul\":8925:8942   */\n      mstore\n        /* \"#utility.yul\":8965:8969   */\n      0x20\n        /* \"#utility.yul\":9010:9012   */\n      dup1\n        /* \"#utility.yul\":9007:9008   */\n      0x00\n        /* \"#utility.yul\":8997:9013   */\n      keccak256\n        /* \"#utility.yul\":9035:9036   */\n      0x00\n        /* \"#utility.yul\":9049:9214   */\n    tag_277:\n        /* \"#utility.yul\":9063:9069   */\n      dup6\n        /* \"#utility.yul\":9060:9061   */\n      dup2\n        /* \"#utility.yul\":9057:9070   */\n      lt\n        /* \"#utility.yul\":9049:9214   */\n      iszero\n      tag_279\n      jumpi\n        /* \"#utility.yul\":9141:9155   */\n      dup2\n      sload\n        /* \"#utility.yul\":9128:9139   */\n      dup11\n      dup3\n      add\n        /* \"#utility.yul\":9121:9156   */\n      mstore\n        /* \"#utility.yul\":9184:9200   */\n      swap1\n      dup5\n      add\n      swap1\n        /* \"#utility.yul\":9078:9088   */\n      dup3\n      add\n        /* \"#utility.yul\":9049:9214   */\n      jump(tag_277)\n    tag_279:\n        /* \"#utility.yul\":9053:9056   */\n      pop\n      pop\n      pop\n        /* \"#utility.yul\":9243:9249   */\n      dup3\n        /* \"#utility.yul\":9238:9241   */\n      dup8\n        /* \"#utility.yul\":9234:9250   */\n      add\n        /* \"#utility.yul\":9227:9250   */\n      swap5\n      pop\n        /* \"#utility.yul\":8670:9260   */\n    tag_274:\n      pop\n        /* \"#utility.yul\":9276:9279   */\n      swap3\n      swap7\n        /* \"#utility.yul\":8385:9285   */\n      swap6\n      pop\n      pop\n      pop\n      pop\n      pop\n      pop\n      jump\t// out\n\n    auxdata: 0xa2646970667358221220e8596f6c4dcafd84bcc9991170e23d0f4e737250941b21005fc9cce2c7b83b8664736f6c63430008140033\n}\n",
				"bytecode": {
					"linkReferences": {},
					"object": "608060405234801561000f575f80fd5b5060015f55611175806100215f395ff3fe608060405234801561000f575f80fd5b50600436106100b9575f3560e01c8063b6a46b3b11610072578063d285f83911610058578063d285f83914610174578063e8009dda146101ac578063fb68ba31146101bf575f80fd5b8063b6a46b3b1461014e578063cae9676114610161575f80fd5b80635332c74d116100a25780635332c74d14610104578063812a4f8c14610119578063b2494df314610139575f80fd5b806306661abd146100bd578063278be867146100d9575b5f80fd5b6100c660015481565b6040519081526020015b60405180910390f35b6100c66100e7366004610c51565b805160208183018101805160038252928201919093012091525481565b610117610112366004610c83565b6101d2565b005b61012c610127366004610c51565b61026e565b6040516100d09190610cea565b610141610365565b6040516100d09190610d65565b6100c661015c366004610c51565b610493565b6100c661016f366004610c51565b610554565b610187610182366004610c51565b61059a565b60405173ffffffffffffffffffffffffffffffffffffffff90911681526020016100d0565b6101876101ba366004610e19565b6105e6565b6101176101cd366004610e19565b610643565b6101da610716565b6101e4828261078c565b6101ee8282610866565b8073ffffffffffffffffffffffffffffffffffffffff166003836040516102159190610e5b565b908152602001604051809103902054836040516102329190610e5b565b604051908190038120907f302019a635b19d3c4a1cf2d61269495b26e45b91cbb29a4f8cf400e68e18da7f905f90a461026a60015f55565b5050565b60605f60025f6003856040516102849190610e5b565b90815260200160405180910390205481526020019081526020015f2090505f6102af826002016108bd565b67ffffffffffffffff8111156102c7576102c7610b7d565b6040519080825280602002602001820160405280156102f0578160200160208202803683370190505b5090505f5b610301836002016108bd565b811161035d5761031460028401826108c6565b82828151811061032657610326610e76565b73ffffffffffffffffffffffffffffffffffffffff909216602092830291909101909101528061035581610ea3565b9150506102f5565b509392505050565b60605f60015467ffffffffffffffff81111561038357610383610b7d565b6040519080825280602002602001820160405280156103b657816020015b60608152602001906001900390816103a15790505b5090505f5b600154811161048d575f8181526002602052604090206001810180546103e090610eff565b80601f016020809104026020016040519081016040528092919081815260200182805461040c90610eff565b80156104575780601f1061042e57610100808354040283529160200191610457565b820191905f5260205f20905b81548152906001019060200180831161043a57829003601f168201915b505050505083838151811061046e5761046e610e76565b602002602001018190525050808061048590610ea3565b9150506103bb565b50919050565b5f61049c610716565b6104a5826108d1565b60018054905f6104b483610ea3565b90915550506001545f818152600260205260409081902090519091906003906104de908690610e5b565b9081526040519081900360200190205560018054825581016105008482610f97565b5080546040516105149060018401906110af565b604051908190038120907fe0e6e8b81ae036efc4ae16444815ccc05dd21be3412ddacd8376ebb5cdb47238905f90a354905061054f60015f55565b919050565b5f8060025f6003856040516105699190610e5b565b90815260200160405180910390205481526020019081526020015f209050610593816002016108bd565b9392505050565b5f8060025f6003856040516105af9190610e5b565b90815260200160405180910390205481526020019081526020015f2090506105936105dc826002016108bd565b60028301906108c6565b5f6105f1838361095b565b5f60025f6003866040516106059190610e5b565b90815260200160405180910390205481526020019081526020015f20905061063983826002016108c690919063ffffffff16565b9150505b92915050565b61064b610716565b61065482610a35565b5f60025f6003856040516106689190610e5b565b90815260200160405180910390205481526020019081526020015f2090506106a5836106a084846002016108c690919063ffffffff16565b610866565b6106b260028201836108c6565b73ffffffffffffffffffffffffffffffffffffffff16815f0154826001016040516106dd91906110af565b604051908190038120907f8f06933070a3367170d50b358e9d73813dfbaaa11081bd5580ae4af2baba122d905f90a45061026a60015f55565b60025f5403610786576040517f08c379a000000000000000000000000000000000000000000000000000000000815260206004820152601f60248201527f5265656e7472616e637947756172643a207265656e7472616e742063616c6c0060448201526064015b60405180910390fd5b60025f55565b5f60025f6003856040516107a09190610e5b565b90815260200160405180910390205481526020019081526020015f2090506107d48282600201610abc90919063ffffffff16565b15610861576040517f08c379a000000000000000000000000000000000000000000000000000000000815260206004820152602760248201527f4d6f64756c6520616c726561647920686173207468697320696d706c656d656e60448201527f746174696f6e2e00000000000000000000000000000000000000000000000000606482015260840161077d565b505050565b61086f82610a35565b5f60025f6003856040516108839190610e5b565b90815260200160405180910390205481526020019081526020015f2090506108b78282600201610aea90919063ffffffff16565b50505050565b5f61063d825490565b5f6105938383610b0b565b6003816040516108e19190610e5b565b9081526020016040518091039020545f14610958576040517f08c379a000000000000000000000000000000000000000000000000000000000815260206004820152601e60248201527f4d6f64756c65206e616d6520697320616c726561647920696e207573652e0000604482015260640161077d565b50565b5f60025f60038560405161096f9190610e5b565b90815260200160405180910390205481526020019081526020015f209050600182101580156109a957506109a5816002016108bd565b8211155b610861576040517f08c379a000000000000000000000000000000000000000000000000000000000815260206004820152603560248201527f56657273696f6e20646f6573206e6f7420706f696e7420746f20616e2065786960448201527f7374696e6720696d706c656d656e746174696f6e2e0000000000000000000000606482015260840161077d565b600381604051610a459190610e5b565b9081526020016040518091039020545f03610958576040517f08c379a000000000000000000000000000000000000000000000000000000000815260206004820152601660248201527f4d6f64756c6520646f6573206e6f742065786973742e00000000000000000000604482015260640161077d565b73ffffffffffffffffffffffffffffffffffffffff81165f9081526001830160205260408120541515610593565b5f6105938373ffffffffffffffffffffffffffffffffffffffff8416610b31565b5f825f018281548110610b2057610b20610e76565b905f5260205f200154905092915050565b5f818152600183016020526040812054610b7657508154600181810184555f84815260208082209093018490558454848252828601909352604090209190915561063d565b505f61063d565b7f4e487b71000000000000000000000000000000000000000000000000000000005f52604160045260245ffd5b5f82601f830112610bb9575f80fd5b813567ffffffffffffffff80821115610bd457610bd4610b7d565b604051601f83017fffffffffffffffffffffffffffffffffffffffffffffffffffffffffffffffe0908116603f01168101908282118183101715610c1a57610c1a610b7d565b81604052838152866020858801011115610c32575f80fd5b836020870160208301375f602085830101528094505050505092915050565b5f60208284031215610c61575f80fd5b813567ffffffffffffffff811115610c77575f80fd5b61063984828501610baa565b5f8060408385031215610c94575f80fd5b823567ffffffffffffffff811115610caa575f80fd5b610cb685828601610baa565b925050602083013573ffffffffffffffffffffffffffffffffffffffff81168114610cdf575f80fd5b809150509250929050565b602080825282518282018190525f9190848201906040850190845b81811015610d3757835173ffffffffffffffffffffffffffffffffffffffff1683529284019291840191600101610d05565b50909695505050505050565b5f5b83811015610d5d578181015183820152602001610d45565b50505f910152565b5f602080830181845280855180835260408601915060408160051b87010192508387015f5b82811015610e0c577fffffffffffffffffffffffffffffffffffffffffffffffffffffffffffffffc088860301845281518051808752610dcf818989018a8501610d43565b601f017fffffffffffffffffffffffffffffffffffffffffffffffffffffffffffffffe01695909501860194509285019290850190600101610d8a565b5092979650505050505050565b5f8060408385031215610e2a575f80fd5b823567ffffffffffffffff811115610e40575f80fd5b610e4c85828601610baa565b95602094909401359450505050565b5f8251610e6c818460208701610d43565b9190910192915050565b7f4e487b71000000000000000000000000000000000000000000000000000000005f52603260045260245ffd5b5f7fffffffffffffffffffffffffffffffffffffffffffffffffffffffffffffffff8203610ef8577f4e487b71000000000000000000000000000000000000000000000000000000005f52601160045260245ffd5b5060010190565b600181811c90821680610f1357607f821691505b60208210810361048d577f4e487b71000000000000000000000000000000000000000000000000000000005f52602260045260245ffd5b601f821115610861575f81815260208120601f850160051c81016020861015610f705750805b601f850160051c820191505b81811015610f8f57828155600101610f7c565b505050505050565b815167ffffffffffffffff811115610fb157610fb1610b7d565b610fc581610fbf8454610eff565b84610f4a565b602080601f831160018114611017575f8415610fe15750858301515b7fffffffffffffffffffffffffffffffffffffffffffffffffffffffffffffffff600386901b1c1916600185901b178555610f8f565b5f858152602081207fffffffffffffffffffffffffffffffffffffffffffffffffffffffffffffffe08616915b8281101561106357888601518255948401946001909101908401611044565b508582101561109f57878501517fffffffffffffffffffffffffffffffffffffffffffffffffffffffffffffffff600388901b60f8161c191681555b5050505050600190811b01905550565b5f8083546110bc81610eff565b600182811680156110d4576001811461110757611133565b7fffffffffffffffffffffffffffffffffffffffffffffffffffffffffffffff0084168752821515830287019450611133565b875f526020805f205f5b8581101561112a5781548a820152908401908201611111565b50505082870194505b5092969550505050505056fea2646970667358221220e8596f6c4dcafd84bcc9991170e23d0f4e737250941b21005fc9cce2c7b83b8664736f6c63430008140033",
					"opcodes": "PUSH1 0x80 PUSH1 0x40 MSTORE CALLVALUE DUP1 ISZERO PUSH2 0xF JUMPI PUSH0 DUP1 REVERT JUMPDEST POP PUSH1 0x1 PUSH0 SSTORE PUSH2 0x1175 DUP1 PUSH2 0x21 PUSH0 CODECOPY PUSH0 RETURN INVALID PUSH1 0x80 PUSH1 0x40 MSTORE CALLVALUE DUP1 ISZERO PUSH2 0xF JUMPI PUSH0 DUP1 REVERT JUMPDEST POP PUSH1 0x4 CALLDATASIZE LT PUSH2 0xB9 JUMPI PUSH0 CALLDATALOAD PUSH1 0xE0 SHR DUP1 PUSH4 0xB6A46B3B GT PUSH2 0x72 JUMPI DUP1 PUSH4 0xD285F839 GT PUSH2 0x58 JUMPI DUP1 PUSH4 0xD285F839 EQ PUSH2 0x174 JUMPI DUP1 PUSH4 0xE8009DDA EQ PUSH2 0x1AC JUMPI DUP1 PUSH4 0xFB68BA31 EQ PUSH2 0x1BF JUMPI PUSH0 DUP1 REVERT JUMPDEST DUP1 PUSH4 0xB6A46B3B EQ PUSH2 0x14E JUMPI DUP1 PUSH4 0xCAE96761 EQ PUSH2 0x161 JUMPI PUSH0 DUP1 REVERT JUMPDEST DUP1 PUSH4 0x5332C74D GT PUSH2 0xA2 JUMPI DUP1 PUSH4 0x5332C74D EQ PUSH2 0x104 JUMPI DUP1 PUSH4 0x812A4F8C EQ PUSH2 0x119 JUMPI DUP1 PUSH4 0xB2494DF3 EQ PUSH2 0x139 JUMPI PUSH0 DUP1 REVERT JUMPDEST DUP1 PUSH4 0x6661ABD EQ PUSH2 0xBD JUMPI DUP1 PUSH4 0x278BE867 EQ PUSH2 0xD9 JUMPI JUMPDEST PUSH0 DUP1 REVERT JUMPDEST PUSH2 0xC6 PUSH1 0x1 SLOAD DUP2 JUMP JUMPDEST PUSH1 0x40 MLOAD SWAP1 DUP2 MSTORE PUSH1 0x20 ADD JUMPDEST PUSH1 0x40 MLOAD DUP1 SWAP2 SUB SWAP1 RETURN JUMPDEST PUSH2 0xC6 PUSH2 0xE7 CALLDATASIZE PUSH1 0x4 PUSH2 0xC51 JUMP JUMPDEST DUP1 MLOAD PUSH1 0x20 DUP2 DUP4 ADD DUP2 ADD DUP1 MLOAD PUSH1 0x3 DUP3 MSTORE SWAP3 DUP3 ADD SWAP2 SWAP1 SWAP4 ADD KECCAK256 SWAP2 MSTORE SLOAD DUP2 JUMP JUMPDEST PUSH2 0x117 PUSH2 0x112 CALLDATASIZE PUSH1 0x4 PUSH2 0xC83 JUMP JUMPDEST PUSH2 0x1D2 JUMP JUMPDEST STOP JUMPDEST PUSH2 0x12C PUSH2 0x127 CALLDATASIZE PUSH1 0x4 PUSH2 0xC51 JUMP JUMPDEST PUSH2 0x26E JUMP JUMPDEST PUSH1 0x40 MLOAD PUSH2 0xD0 SWAP2 SWAP1 PUSH2 0xCEA JUMP JUMPDEST PUSH2 0x141 PUSH2 0x365 JUMP JUMPDEST PUSH1 0x40 MLOAD PUSH2 0xD0 SWAP2 SWAP1 PUSH2 0xD65 JUMP JUMPDEST PUSH2 0xC6 PUSH2 0x15C CALLDATASIZE PUSH1 0x4 PUSH2 0xC51 JUMP JUMPDEST PUSH2 0x493 JUMP JUMPDEST PUSH2 0xC6 PUSH2 0x16F CALLDATASIZE PUSH1 0x4 PUSH2 0xC51 JUMP JUMPDEST PUSH2 0x554 JUMP JUMPDEST PUSH2 0x187 PUSH2 0x182 CALLDATASIZE PUSH1 0x4 PUSH2 0xC51 JUMP JUMPDEST PUSH2 0x59A JUMP JUMPDEST PUSH1 0x40 MLOAD PUSH20 0xFFFFFFFFFFFFFFFFFFFFFFFFFFFFFFFFFFFFFFFF SWAP1 SWAP2 AND DUP2 MSTORE PUSH1 0x20 ADD PUSH2 0xD0 JUMP JUMPDEST PUSH2 0x187 PUSH2 0x1BA CALLDATASIZE PUSH1 0x4 PUSH2 0xE19 JUMP JUMPDEST PUSH2 0x5E6 JUMP JUMPDEST PUSH2 0x117 PUSH2 0x1CD CALLDATASIZE PUSH1 0x4 PUSH2 0xE19 JUMP JUMPDEST PUSH2 0x643 JUMP JUMPDEST PUSH2 0x1DA PUSH2 0x716 JUMP JUMPDEST PUSH2 0x1E4 DUP3 DUP3 PUSH2 0x78C JUMP JUMPDEST PUSH2 0x1EE DUP3 DUP3 PUSH2 0x866 JUMP JUMPDEST DUP1 PUSH20 0xFFFFFFFFFFFFFFFFFFFFFFFFFFFFFFFFFFFFFFFF AND PUSH1 0x3 DUP4 PUSH1 0x40 MLOAD PUSH2 0x215 SWAP2 SWAP1 PUSH2 0xE5B JUMP JUMPDEST SWAP1 DUP2 MSTORE PUSH1 0x20 ADD PUSH1 0x40 MLOAD DUP1 SWAP2 SUB SWAP1 KECCAK256 SLOAD DUP4 PUSH1 0x40 MLOAD PUSH2 0x232 SWAP2 SWAP1 PUSH2 0xE5B JUMP JUMPDEST PUSH1 0x40 MLOAD SWAP1 DUP2 SWAP1 SUB DUP2 KECCAK256 SWAP1 PUSH32 0x302019A635B19D3C4A1CF2D61269495B26E45B91CBB29A4F8CF400E68E18DA7F SWAP1 PUSH0 SWAP1 LOG4 PUSH2 0x26A PUSH1 0x1 PUSH0 SSTORE JUMP JUMPDEST POP POP JUMP JUMPDEST PUSH1 0x60 PUSH0 PUSH1 0x2 PUSH0 PUSH1 0x3 DUP6 PUSH1 0x40 MLOAD PUSH2 0x284 SWAP2 SWAP1 PUSH2 0xE5B JUMP JUMPDEST SWAP1 DUP2 MSTORE PUSH1 0x20 ADD PUSH1 0x40 MLOAD DUP1 SWAP2 SUB SWAP1 KECCAK256 SLOAD DUP2 MSTORE PUSH1 0x20 ADD SWAP1 DUP2 MSTORE PUSH1 0x20 ADD PUSH0 KECCAK256 SWAP1 POP PUSH0 PUSH2 0x2AF DUP3 PUSH1 0x2 ADD PUSH2 0x8BD JUMP JUMPDEST PUSH8 0xFFFFFFFFFFFFFFFF DUP2 GT ISZERO PUSH2 0x2C7 JUMPI PUSH2 0x2C7 PUSH2 0xB7D JUMP JUMPDEST PUSH1 0x40 MLOAD SWAP1 DUP1 DUP3 MSTORE DUP1 PUSH1 0x20 MUL PUSH1 0x20 ADD DUP3 ADD PUSH1 0x40 MSTORE DUP1 ISZERO PUSH2 0x2F0 JUMPI DUP2 PUSH1 0x20 ADD PUSH1 0x20 DUP3 MUL DUP1 CALLDATASIZE DUP4 CALLDATACOPY ADD SWAP1 POP JUMPDEST POP SWAP1 POP PUSH0 JUMPDEST PUSH2 0x301 DUP4 PUSH1 0x2 ADD PUSH2 0x8BD JUMP JUMPDEST DUP2 GT PUSH2 0x35D JUMPI PUSH2 0x314 PUSH1 0x2 DUP5 ADD DUP3 PUSH2 0x8C6 JUMP JUMPDEST DUP3 DUP3 DUP2 MLOAD DUP2 LT PUSH2 0x326 JUMPI PUSH2 0x326 PUSH2 0xE76 JUMP JUMPDEST PUSH20 0xFFFFFFFFFFFFFFFFFFFFFFFFFFFFFFFFFFFFFFFF SWAP1 SWAP3 AND PUSH1 0x20 SWAP3 DUP4 MUL SWAP2 SWAP1 SWAP2 ADD SWAP1 SWAP2 ADD MSTORE DUP1 PUSH2 0x355 DUP2 PUSH2 0xEA3 JUMP JUMPDEST SWAP2 POP POP PUSH2 0x2F5 JUMP JUMPDEST POP SWAP4 SWAP3 POP POP POP JUMP JUMPDEST PUSH1 0x60 PUSH0 PUSH1 0x1 SLOAD PUSH8 0xFFFFFFFFFFFFFFFF DUP2 GT ISZERO PUSH2 0x383 JUMPI PUSH2 0x383 PUSH2 0xB7D JUMP JUMPDEST PUSH1 0x40 MLOAD SWAP1 DUP1 DUP3 MSTORE DUP1 PUSH1 0x20 MUL PUSH1 0x20 ADD DUP3 ADD PUSH1 0x40 MSTORE DUP1 ISZERO PUSH2 0x3B6 JUMPI DUP2 PUSH1 0x20 ADD JUMPDEST PUSH1 0x60 DUP2 MSTORE PUSH1 0x20 ADD SWAP1 PUSH1 0x1 SWAP1 SUB SWAP1 DUP2 PUSH2 0x3A1 JUMPI SWAP1 POP JUMPDEST POP SWAP1 POP PUSH0 JUMPDEST PUSH1 0x1 SLOAD DUP2 GT PUSH2 0x48D JUMPI PUSH0 DUP2 DUP2 MSTORE PUSH1 0x2 PUSH1 0x20 MSTORE PUSH1 0x40 SWAP1 KECCAK256 PUSH1 0x1 DUP2 ADD DUP1 SLOAD PUSH2 0x3E0 SWAP1 PUSH2 0xEFF JUMP JUMPDEST DUP1 PUSH1 0x1F ADD PUSH1 0x20 DUP1 SWAP2 DIV MUL PUSH1 0x20 ADD PUSH1 0x40 MLOAD SWAP1 DUP2 ADD PUSH1 0x40 MSTORE DUP1 SWAP3 SWAP2 SWAP1 DUP2 DUP2 MSTORE PUSH1 0x20 ADD DUP3 DUP1 SLOAD PUSH2 0x40C SWAP1 PUSH2 0xEFF JUMP JUMPDEST DUP1 ISZERO PUSH2 0x457 JUMPI DUP1 PUSH1 0x1F LT PUSH2 0x42E JUMPI PUSH2 0x100 DUP1 DUP4 SLOAD DIV MUL DUP4 MSTORE SWAP2 PUSH1 0x20 ADD SWAP2 PUSH2 0x457 JUMP JUMPDEST DUP3 ADD SWAP2 SWAP1 PUSH0 MSTORE PUSH1 0x20 PUSH0 KECCAK256 SWAP1 JUMPDEST DUP2 SLOAD DUP2 MSTORE SWAP1 PUSH1 0x1 ADD SWAP1 PUSH1 0x20 ADD DUP1 DUP4 GT PUSH2 0x43A JUMPI DUP3 SWAP1 SUB PUSH1 0x1F AND DUP3 ADD SWAP2 JUMPDEST POP POP POP POP POP DUP4 DUP4 DUP2 MLOAD DUP2 LT PUSH2 0x46E JUMPI PUSH2 0x46E PUSH2 0xE76 JUMP JUMPDEST PUSH1 0x20 MUL PUSH1 0x20 ADD ADD DUP2 SWAP1 MSTORE POP POP DUP1 DUP1 PUSH2 0x485 SWAP1 PUSH2 0xEA3 JUMP JUMPDEST SWAP2 POP POP PUSH2 0x3BB JUMP JUMPDEST POP SWAP2 SWAP1 POP JUMP JUMPDEST PUSH0 PUSH2 0x49C PUSH2 0x716 JUMP JUMPDEST PUSH2 0x4A5 DUP3 PUSH2 0x8D1 JUMP JUMPDEST PUSH1 0x1 DUP1 SLOAD SWAP1 PUSH0 PUSH2 0x4B4 DUP4 PUSH2 0xEA3 JUMP JUMPDEST SWAP1 SWAP2 SSTORE POP POP PUSH1 0x1 SLOAD PUSH0 DUP2 DUP2 MSTORE PUSH1 0x2 PUSH1 0x20 MSTORE PUSH1 0x40 SWAP1 DUP2 SWAP1 KECCAK256 SWAP1 MLOAD SWAP1 SWAP2 SWAP1 PUSH1 0x3 SWAP1 PUSH2 0x4DE SWAP1 DUP7 SWAP1 PUSH2 0xE5B JUMP JUMPDEST SWAP1 DUP2 MSTORE PUSH1 0x40 MLOAD SWAP1 DUP2 SWAP1 SUB PUSH1 0x20 ADD SWAP1 KECCAK256 SSTORE PUSH1 0x1 DUP1 SLOAD DUP3 SSTORE DUP2 ADD PUSH2 0x500 DUP5 DUP3 PUSH2 0xF97 JUMP JUMPDEST POP DUP1 SLOAD PUSH1 0x40 MLOAD PUSH2 0x514 SWAP1 PUSH1 0x1 DUP5 ADD SWAP1 PUSH2 0x10AF JUMP JUMPDEST PUSH1 0x40 MLOAD SWAP1 DUP2 SWAP1 SUB DUP2 KECCAK256 SWAP1 PUSH32 0xE0E6E8B81AE036EFC4AE16444815CCC05DD21BE3412DDACD8376EBB5CDB47238 SWAP1 PUSH0 SWAP1 LOG3 SLOAD SWAP1 POP PUSH2 0x54F PUSH1 0x1 PUSH0 SSTORE JUMP JUMPDEST SWAP2 SWAP1 POP JUMP JUMPDEST PUSH0 DUP1 PUSH1 0x2 PUSH0 PUSH1 0x3 DUP6 PUSH1 0x40 MLOAD PUSH2 0x569 SWAP2 SWAP1 PUSH2 0xE5B JUMP JUMPDEST SWAP1 DUP2 MSTORE PUSH1 0x20 ADD PUSH1 0x40 MLOAD DUP1 SWAP2 SUB SWAP1 KECCAK256 SLOAD DUP2 MSTORE PUSH1 0x20 ADD SWAP1 DUP2 MSTORE PUSH1 0x20 ADD PUSH0 KECCAK256 SWAP1 POP PUSH2 0x593 DUP2 PUSH1 0x2 ADD PUSH2 0x8BD JUMP JUMPDEST SWAP4 SWAP3 POP POP POP JUMP JUMPDEST PUSH0 DUP1 PUSH1 0x2 PUSH0 PUSH1 0x3 DUP6 PUSH1 0x40 MLOAD PUSH2 0x5AF SWAP2 SWAP1 PUSH2 0xE5B JUMP JUMPDEST SWAP1 DUP2 MSTORE PUSH1 0x20 ADD PUSH1 0x40 MLOAD DUP1 SWAP2 SUB SWAP1 KECCAK256 SLOAD DUP2 MSTORE PUSH1 0x20 ADD SWAP1 DUP2 MSTORE PUSH1 0x20 ADD PUSH0 KECCAK256 SWAP1 POP PUSH2 0x593 PUSH2 0x5DC DUP3 PUSH1 0x2 ADD PUSH2 0x8BD JUMP JUMPDEST PUSH1 0x2 DUP4 ADD SWAP1 PUSH2 0x8C6 JUMP JUMPDEST PUSH0 PUSH2 0x5F1 DUP4 DUP4 PUSH2 0x95B JUMP JUMPDEST PUSH0 PUSH1 0x2 PUSH0 PUSH1 0x3 DUP7 PUSH1 0x40 MLOAD PUSH2 0x605 SWAP2 SWAP1 PUSH2 0xE5B JUMP JUMPDEST SWAP1 DUP2 MSTORE PUSH1 0x20 ADD PUSH1 0x40 MLOAD DUP1 SWAP2 SUB SWAP1 KECCAK256 SLOAD DUP2 MSTORE PUSH1 0x20 ADD SWAP1 DUP2 MSTORE PUSH1 0x20 ADD PUSH0 KECCAK256 SWAP1 POP PUSH2 0x639 DUP4 DUP3 PUSH1 0x2 ADD PUSH2 0x8C6 SWAP1 SWAP2 SWAP1 PUSH4 0xFFFFFFFF AND JUMP JUMPDEST SWAP2 POP POP JUMPDEST SWAP3 SWAP2 POP POP JUMP JUMPDEST PUSH2 0x64B PUSH2 0x716 JUMP JUMPDEST PUSH2 0x654 DUP3 PUSH2 0xA35 JUMP JUMPDEST PUSH0 PUSH1 0x2 PUSH0 PUSH1 0x3 DUP6 PUSH1 0x40 MLOAD PUSH2 0x668 SWAP2 SWAP1 PUSH2 0xE5B JUMP JUMPDEST SWAP1 DUP2 MSTORE PUSH1 0x20 ADD PUSH1 0x40 MLOAD DUP1 SWAP2 SUB SWAP1 KECCAK256 SLOAD DUP2 MSTORE PUSH1 0x20 ADD SWAP1 DUP2 MSTORE PUSH1 0x20 ADD PUSH0 KECCAK256 SWAP1 POP PUSH2 0x6A5 DUP4 PUSH2 0x6A0 DUP5 DUP5 PUSH1 0x2 ADD PUSH2 0x8C6 SWAP1 SWAP2 SWAP1 PUSH4 0xFFFFFFFF AND JUMP JUMPDEST PUSH2 0x866 JUMP JUMPDEST PUSH2 0x6B2 PUSH1 0x2 DUP3 ADD DUP4 PUSH2 0x8C6 JUMP JUMPDEST PUSH20 0xFFFFFFFFFFFFFFFFFFFFFFFFFFFFFFFFFFFFFFFF AND DUP2 PUSH0 ADD SLOAD DUP3 PUSH1 0x1 ADD PUSH1 0x40 MLOAD PUSH2 0x6DD SWAP2 SWAP1 PUSH2 0x10AF JUMP JUMPDEST PUSH1 0x40 MLOAD SWAP1 DUP2 SWAP1 SUB DUP2 KECCAK256 SWAP1 PUSH32 0x8F06933070A3367170D50B358E9D73813DFBAAA11081BD5580AE4AF2BABA122D SWAP1 PUSH0 SWAP1 LOG4 POP PUSH2 0x26A PUSH1 0x1 PUSH0 SSTORE JUMP JUMPDEST PUSH1 0x2 PUSH0 SLOAD SUB PUSH2 0x786 JUMPI PUSH1 0x40 MLOAD PUSH32 0x8C379A000000000000000000000000000000000000000000000000000000000 DUP2 MSTORE PUSH1 0x20 PUSH1 0x4 DUP3 ADD MSTORE PUSH1 0x1F PUSH1 0x24 DUP3 ADD MSTORE PUSH32 0x5265656E7472616E637947756172643A207265656E7472616E742063616C6C00 PUSH1 0x44 DUP3 ADD MSTORE PUSH1 0x64 ADD JUMPDEST PUSH1 0x40 MLOAD DUP1 SWAP2 SUB SWAP1 REVERT JUMPDEST PUSH1 0x2 PUSH0 SSTORE JUMP JUMPDEST PUSH0 PUSH1 0x2 PUSH0 PUSH1 0x3 DUP6 PUSH1 0x40 MLOAD PUSH2 0x7A0 SWAP2 SWAP1 PUSH2 0xE5B JUMP JUMPDEST SWAP1 DUP2 MSTORE PUSH1 0x20 ADD PUSH1 0x40 MLOAD DUP1 SWAP2 SUB SWAP1 KECCAK256 SLOAD DUP2 MSTORE PUSH1 0x20 ADD SWAP1 DUP2 MSTORE PUSH1 0x20 ADD PUSH0 KECCAK256 SWAP1 POP PUSH2 0x7D4 DUP3 DUP3 PUSH1 0x2 ADD PUSH2 0xABC SWAP1 SWAP2 SWAP1 PUSH4 0xFFFFFFFF AND JUMP JUMPDEST ISZERO PUSH2 0x861 JUMPI PUSH1 0x40 MLOAD PUSH32 0x8C379A000000000000000000000000000000000000000000000000000000000 DUP2 MSTORE PUSH1 0x20 PUSH1 0x4 DUP3 ADD MSTORE PUSH1 0x27 PUSH1 0x24 DUP3 ADD MSTORE PUSH32 0x4D6F64756C6520616C726561647920686173207468697320696D706C656D656E PUSH1 0x44 DUP3 ADD MSTORE PUSH32 0x746174696F6E2E00000000000000000000000000000000000000000000000000 PUSH1 0x64 DUP3 ADD MSTORE PUSH1 0x84 ADD PUSH2 0x77D JUMP JUMPDEST POP POP POP JUMP JUMPDEST PUSH2 0x86F DUP3 PUSH2 0xA35 JUMP JUMPDEST PUSH0 PUSH1 0x2 PUSH0 PUSH1 0x3 DUP6 PUSH1 0x40 MLOAD PUSH2 0x883 SWAP2 SWAP1 PUSH2 0xE5B JUMP JUMPDEST SWAP1 DUP2 MSTORE PUSH1 0x20 ADD PUSH1 0x40 MLOAD DUP1 SWAP2 SUB SWAP1 KECCAK256 SLOAD DUP2 MSTORE PUSH1 0x20 ADD SWAP1 DUP2 MSTORE PUSH1 0x20 ADD PUSH0 KECCAK256 SWAP1 POP PUSH2 0x8B7 DUP3 DUP3 PUSH1 0x2 ADD PUSH2 0xAEA SWAP1 SWAP2 SWAP1 PUSH4 0xFFFFFFFF AND JUMP JUMPDEST POP POP POP POP JUMP JUMPDEST PUSH0 PUSH2 0x63D DUP3 SLOAD SWAP1 JUMP JUMPDEST PUSH0 PUSH2 0x593 DUP4 DUP4 PUSH2 0xB0B JUMP JUMPDEST PUSH1 0x3 DUP2 PUSH1 0x40 MLOAD PUSH2 0x8E1 SWAP2 SWAP1 PUSH2 0xE5B JUMP JUMPDEST SWAP1 DUP2 MSTORE PUSH1 0x20 ADD PUSH1 0x40 MLOAD DUP1 SWAP2 SUB SWAP1 KECCAK256 SLOAD PUSH0 EQ PUSH2 0x958 JUMPI PUSH1 0x40 MLOAD PUSH32 0x8C379A000000000000000000000000000000000000000000000000000000000 DUP2 MSTORE PUSH1 0x20 PUSH1 0x4 DUP3 ADD MSTORE PUSH1 0x1E PUSH1 0x24 DUP3 ADD MSTORE PUSH32 0x4D6F64756C65206E616D6520697320616C726561647920696E207573652E0000 PUSH1 0x44 DUP3 ADD MSTORE PUSH1 0x64 ADD PUSH2 0x77D JUMP JUMPDEST POP JUMP JUMPDEST PUSH0 PUSH1 0x2 PUSH0 PUSH1 0x3 DUP6 PUSH1 0x40 MLOAD PUSH2 0x96F SWAP2 SWAP1 PUSH2 0xE5B JUMP JUMPDEST SWAP1 DUP2 MSTORE PUSH1 0x20 ADD PUSH1 0x40 MLOAD DUP1 SWAP2 SUB SWAP1 KECCAK256 SLOAD DUP2 MSTORE PUSH1 0x20 ADD SWAP1 DUP2 MSTORE PUSH1 0x20 ADD PUSH0 KECCAK256 SWAP1 POP PUSH1 0x1 DUP3 LT ISZERO DUP1 ISZERO PUSH2 0x9A9 JUMPI POP PUSH2 0x9A5 DUP2 PUSH1 0x2 ADD PUSH2 0x8BD JUMP JUMPDEST DUP3 GT ISZERO JUMPDEST PUSH2 0x861 JUMPI PUSH1 0x40 MLOAD PUSH32 0x8C379A000000000000000000000000000000000000000000000000000000000 DUP2 MSTORE PUSH1 0x20 PUSH1 0x4 DUP3 ADD MSTORE PUSH1 0x35 PUSH1 0x24 DUP3 ADD MSTORE PUSH32 0x56657273696F6E20646F6573206E6F7420706F696E7420746F20616E20657869 PUSH1 0x44 DUP3 ADD MSTORE PUSH32 0x7374696E6720696D706C656D656E746174696F6E2E0000000000000000000000 PUSH1 0x64 DUP3 ADD MSTORE PUSH1 0x84 ADD PUSH2 0x77D JUMP JUMPDEST PUSH1 0x3 DUP2 PUSH1 0x40 MLOAD PUSH2 0xA45 SWAP2 SWAP1 PUSH2 0xE5B JUMP JUMPDEST SWAP1 DUP2 MSTORE PUSH1 0x20 ADD PUSH1 0x40 MLOAD DUP1 SWAP2 SUB SWAP1 KECCAK256 SLOAD PUSH0 SUB PUSH2 0x958 JUMPI PUSH1 0x40 MLOAD PUSH32 0x8C379A000000000000000000000000000000000000000000000000000000000 DUP2 MSTORE PUSH1 0x20 PUSH1 0x4 DUP3 ADD MSTORE PUSH1 0x16 PUSH1 0x24 DUP3 ADD MSTORE PUSH32 0x4D6F64756C6520646F6573206E6F742065786973742E00000000000000000000 PUSH1 0x44 DUP3 ADD MSTORE PUSH1 0x64 ADD PUSH2 0x77D JUMP JUMPDEST PUSH20 0xFFFFFFFFFFFFFFFFFFFFFFFFFFFFFFFFFFFFFFFF DUP2 AND PUSH0 SWAP1 DUP2 MSTORE PUSH1 0x1 DUP4 ADD PUSH1 0x20 MSTORE PUSH1 0x40 DUP2 KECCAK256 SLOAD ISZERO ISZERO PUSH2 0x593 JUMP JUMPDEST PUSH0 PUSH2 0x593 DUP4 PUSH20 0xFFFFFFFFFFFFFFFFFFFFFFFFFFFFFFFFFFFFFFFF DUP5 AND PUSH2 0xB31 JUMP JUMPDEST PUSH0 DUP3 PUSH0 ADD DUP3 DUP2 SLOAD DUP2 LT PUSH2 0xB20 JUMPI PUSH2 0xB20 PUSH2 0xE76 JUMP JUMPDEST SWAP1 PUSH0 MSTORE PUSH1 0x20 PUSH0 KECCAK256 ADD SLOAD SWAP1 POP SWAP3 SWAP2 POP POP JUMP JUMPDEST PUSH0 DUP2 DUP2 MSTORE PUSH1 0x1 DUP4 ADD PUSH1 0x20 MSTORE PUSH1 0x40 DUP2 KECCAK256 SLOAD PUSH2 0xB76 JUMPI POP DUP2 SLOAD PUSH1 0x1 DUP2 DUP2 ADD DUP5 SSTORE PUSH0 DUP5 DUP2 MSTORE PUSH1 0x20 DUP1 DUP3 KECCAK256 SWAP1 SWAP4 ADD DUP5 SWAP1 SSTORE DUP5 SLOAD DUP5 DUP3 MSTORE DUP3 DUP7 ADD SWAP1 SWAP4 MSTORE PUSH1 0x40 SWAP1 KECCAK256 SWAP2 SWAP1 SWAP2 SSTORE PUSH2 0x63D JUMP JUMPDEST POP PUSH0 PUSH2 0x63D JUMP JUMPDEST PUSH32 0x4E487B7100000000000000000000000000000000000000000000000000000000 PUSH0 MSTORE PUSH1 0x41 PUSH1 0x4 MSTORE PUSH1 0x24 PUSH0 REVERT JUMPDEST PUSH0 DUP3 PUSH1 0x1F DUP4 ADD SLT PUSH2 0xBB9 JUMPI PUSH0 DUP1 REVERT JUMPDEST DUP2 CALLDATALOAD PUSH8 0xFFFFFFFFFFFFFFFF DUP1 DUP3 GT ISZERO PUSH2 0xBD4 JUMPI PUSH2 0xBD4 PUSH2 0xB7D JUMP JUMPDEST PUSH1 0x40 MLOAD PUSH1 0x1F DUP4 ADD PUSH32 0xFFFFFFFFFFFFFFFFFFFFFFFFFFFFFFFFFFFFFFFFFFFFFFFFFFFFFFFFFFFFFFE0 SWAP1 DUP2 AND PUSH1 0x3F ADD AND DUP2 ADD SWAP1 DUP3 DUP3 GT DUP2 DUP4 LT OR ISZERO PUSH2 0xC1A JUMPI PUSH2 0xC1A PUSH2 0xB7D JUMP JUMPDEST DUP2 PUSH1 0x40 MSTORE DUP4 DUP2 MSTORE DUP7 PUSH1 0x20 DUP6 DUP9 ADD ADD GT ISZERO PUSH2 0xC32 JUMPI PUSH0 DUP1 REVERT JUMPDEST DUP4 PUSH1 0x20 DUP8 ADD PUSH1 0x20 DUP4 ADD CALLDATACOPY PUSH0 PUSH1 0x20 DUP6 DUP4 ADD ADD MSTORE DUP1 SWAP5 POP POP POP POP POP SWAP3 SWAP2 POP POP JUMP JUMPDEST PUSH0 PUSH1 0x20 DUP3 DUP5 SUB SLT ISZERO PUSH2 0xC61 JUMPI PUSH0 DUP1 REVERT JUMPDEST DUP2 CALLDATALOAD PUSH8 0xFFFFFFFFFFFFFFFF DUP2 GT ISZERO PUSH2 0xC77 JUMPI PUSH0 DUP1 REVERT JUMPDEST PUSH2 0x639 DUP5 DUP3 DUP6 ADD PUSH2 0xBAA JUMP JUMPDEST PUSH0 DUP1 PUSH1 0x40 DUP4 DUP6 SUB SLT ISZERO PUSH2 0xC94 JUMPI PUSH0 DUP1 REVERT JUMPDEST DUP3 CALLDATALOAD PUSH8 0xFFFFFFFFFFFFFFFF DUP2 GT ISZERO PUSH2 0xCAA JUMPI PUSH0 DUP1 REVERT JUMPDEST PUSH2 0xCB6 DUP6 DUP3 DUP7 ADD PUSH2 0xBAA JUMP JUMPDEST SWAP3 POP POP PUSH1 0x20 DUP4 ADD CALLDATALOAD PUSH20 0xFFFFFFFFFFFFFFFFFFFFFFFFFFFFFFFFFFFFFFFF DUP2 AND DUP2 EQ PUSH2 0xCDF JUMPI PUSH0 DUP1 REVERT JUMPDEST DUP1 SWAP2 POP POP SWAP3 POP SWAP3 SWAP1 POP JUMP JUMPDEST PUSH1 0x20 DUP1 DUP3 MSTORE DUP3 MLOAD DUP3 DUP3 ADD DUP2 SWAP1 MSTORE PUSH0 SWAP2 SWAP1 DUP5 DUP3 ADD SWAP1 PUSH1 0x40 DUP6 ADD SWAP1 DUP5 JUMPDEST DUP2 DUP2 LT ISZERO PUSH2 0xD37 JUMPI DUP4 MLOAD PUSH20 0xFFFFFFFFFFFFFFFFFFFFFFFFFFFFFFFFFFFFFFFF AND DUP4 MSTORE SWAP3 DUP5 ADD SWAP3 SWAP2 DUP5 ADD SWAP2 PUSH1 0x1 ADD PUSH2 0xD05 JUMP JUMPDEST POP SWAP1 SWAP7 SWAP6 POP POP POP POP POP POP JUMP JUMPDEST PUSH0 JUMPDEST DUP4 DUP2 LT ISZERO PUSH2 0xD5D JUMPI DUP2 DUP2 ADD MLOAD DUP4 DUP3 ADD MSTORE PUSH1 0x20 ADD PUSH2 0xD45 JUMP JUMPDEST POP POP PUSH0 SWAP2 ADD MSTORE JUMP JUMPDEST PUSH0 PUSH1 0x20 DUP1 DUP4 ADD DUP2 DUP5 MSTORE DUP1 DUP6 MLOAD DUP1 DUP4 MSTORE PUSH1 0x40 DUP7 ADD SWAP2 POP PUSH1 0x40 DUP2 PUSH1 0x5 SHL DUP8 ADD ADD SWAP3 POP DUP4 DUP8 ADD PUSH0 JUMPDEST DUP3 DUP2 LT ISZERO PUSH2 0xE0C JUMPI PUSH32 0xFFFFFFFFFFFFFFFFFFFFFFFFFFFFFFFFFFFFFFFFFFFFFFFFFFFFFFFFFFFFFFC0 DUP9 DUP7 SUB ADD DUP5 MSTORE DUP2 MLOAD DUP1 MLOAD DUP1 DUP8 MSTORE PUSH2 0xDCF DUP2 DUP10 DUP10 ADD DUP11 DUP6 ADD PUSH2 0xD43 JUMP JUMPDEST PUSH1 0x1F ADD PUSH32 0xFFFFFFFFFFFFFFFFFFFFFFFFFFFFFFFFFFFFFFFFFFFFFFFFFFFFFFFFFFFFFFE0 AND SWAP6 SWAP1 SWAP6 ADD DUP7 ADD SWAP5 POP SWAP3 DUP6 ADD SWAP3 SWAP1 DUP6 ADD SWAP1 PUSH1 0x1 ADD PUSH2 0xD8A JUMP JUMPDEST POP SWAP3 SWAP8 SWAP7 POP POP POP POP POP POP POP JUMP JUMPDEST PUSH0 DUP1 PUSH1 0x40 DUP4 DUP6 SUB SLT ISZERO PUSH2 0xE2A JUMPI PUSH0 DUP1 REVERT JUMPDEST DUP3 CALLDATALOAD PUSH8 0xFFFFFFFFFFFFFFFF DUP2 GT ISZERO PUSH2 0xE40 JUMPI PUSH0 DUP1 REVERT JUMPDEST PUSH2 0xE4C DUP6 DUP3 DUP7 ADD PUSH2 0xBAA JUMP JUMPDEST SWAP6 PUSH1 0x20 SWAP5 SWAP1 SWAP5 ADD CALLDATALOAD SWAP5 POP POP POP POP JUMP JUMPDEST PUSH0 DUP3 MLOAD PUSH2 0xE6C DUP2 DUP5 PUSH1 0x20 DUP8 ADD PUSH2 0xD43 JUMP JUMPDEST SWAP2 SWAP1 SWAP2 ADD SWAP3 SWAP2 POP POP JUMP JUMPDEST PUSH32 0x4E487B7100000000000000000000000000000000000000000000000000000000 PUSH0 MSTORE PUSH1 0x32 PUSH1 0x4 MSTORE PUSH1 0x24 PUSH0 REVERT JUMPDEST PUSH0 PUSH32 0xFFFFFFFFFFFFFFFFFFFFFFFFFFFFFFFFFFFFFFFFFFFFFFFFFFFFFFFFFFFFFFFF DUP3 SUB PUSH2 0xEF8 JUMPI PUSH32 0x4E487B7100000000000000000000000000000000000000000000000000000000 PUSH0 MSTORE PUSH1 0x11 PUSH1 0x4 MSTORE PUSH1 0x24 PUSH0 REVERT JUMPDEST POP PUSH1 0x1 ADD SWAP1 JUMP JUMPDEST PUSH1 0x1 DUP2 DUP2 SHR SWAP1 DUP3 AND DUP1 PUSH2 0xF13 JUMPI PUSH1 0x7F DUP3 AND SWAP2 POP JUMPDEST PUSH1 0x20 DUP3 LT DUP2 SUB PUSH2 0x48D JUMPI PUSH32 0x4E487B7100000000000000000000000000000000000000000000000000000000 PUSH0 MSTORE PUSH1 0x22 PUSH1 0x4 MSTORE PUSH1 0x24 PUSH0 REVERT JUMPDEST PUSH1 0x1F DUP3 GT ISZERO PUSH2 0x861 JUMPI PUSH0 DUP2 DUP2 MSTORE PUSH1 0x20 DUP2 KECCAK256 PUSH1 0x1F DUP6 ADD PUSH1 0x5 SHR DUP2 ADD PUSH1 0x20 DUP7 LT ISZERO PUSH2 0xF70 JUMPI POP DUP1 JUMPDEST PUSH1 0x1F DUP6 ADD PUSH1 0x5 SHR DUP3 ADD SWAP2 POP JUMPDEST DUP2 DUP2 LT ISZERO PUSH2 0xF8F JUMPI DUP3 DUP2 SSTORE PUSH1 0x1 ADD PUSH2 0xF7C JUMP JUMPDEST POP POP POP POP POP POP JUMP JUMPDEST DUP2 MLOAD PUSH8 0xFFFFFFFFFFFFFFFF DUP2 GT ISZERO PUSH2 0xFB1 JUMPI PUSH2 0xFB1 PUSH2 0xB7D JUMP JUMPDEST PUSH2 0xFC5 DUP2 PUSH2 0xFBF DUP5 SLOAD PUSH2 0xEFF JUMP JUMPDEST DUP5 PUSH2 0xF4A JUMP JUMPDEST PUSH1 0x20 DUP1 PUSH1 0x1F DUP4 GT PUSH1 0x1 DUP2 EQ PUSH2 0x1017 JUMPI PUSH0 DUP5 ISZERO PUSH2 0xFE1 JUMPI POP DUP6 DUP4 ADD MLOAD JUMPDEST PUSH32 0xFFFFFFFFFFFFFFFFFFFFFFFFFFFFFFFFFFFFFFFFFFFFFFFFFFFFFFFFFFFFFFFF PUSH1 0x3 DUP7 SWAP1 SHL SHR NOT AND PUSH1 0x1 DUP6 SWAP1 SHL OR DUP6 SSTORE PUSH2 0xF8F JUMP JUMPDEST PUSH0 DUP6 DUP2 MSTORE PUSH1 0x20 DUP2 KECCAK256 PUSH32 0xFFFFFFFFFFFFFFFFFFFFFFFFFFFFFFFFFFFFFFFFFFFFFFFFFFFFFFFFFFFFFFE0 DUP7 AND SWAP2 JUMPDEST DUP3 DUP2 LT ISZERO PUSH2 0x1063 JUMPI DUP9 DUP7 ADD MLOAD DUP3 SSTORE SWAP5 DUP5 ADD SWAP5 PUSH1 0x1 SWAP1 SWAP2 ADD SWAP1 DUP5 ADD PUSH2 0x1044 JUMP JUMPDEST POP DUP6 DUP3 LT ISZERO PUSH2 0x109F JUMPI DUP8 DUP6 ADD MLOAD PUSH32 0xFFFFFFFFFFFFFFFFFFFFFFFFFFFFFFFFFFFFFFFFFFFFFFFFFFFFFFFFFFFFFFFF PUSH1 0x3 DUP9 SWAP1 SHL PUSH1 0xF8 AND SHR NOT AND DUP2 SSTORE JUMPDEST POP POP POP POP POP PUSH1 0x1 SWAP1 DUP2 SHL ADD SWAP1 SSTORE POP JUMP JUMPDEST PUSH0 DUP1 DUP4 SLOAD PUSH2 0x10BC DUP2 PUSH2 0xEFF JUMP JUMPDEST PUSH1 0x1 DUP3 DUP2 AND DUP1 ISZERO PUSH2 0x10D4 JUMPI PUSH1 0x1 DUP2 EQ PUSH2 0x1107 JUMPI PUSH2 0x1133 JUMP JUMPDEST PUSH32 0xFFFFFFFFFFFFFFFFFFFFFFFFFFFFFFFFFFFFFFFFFFFFFFFFFFFFFFFFFFFFFF00 DUP5 AND DUP8 MSTORE DUP3 ISZERO ISZERO DUP4 MUL DUP8 ADD SWAP5 POP PUSH2 0x1133 JUMP JUMPDEST DUP8 PUSH0 MSTORE PUSH1 0x20 DUP1 PUSH0 KECCAK256 PUSH0 JUMPDEST DUP6 DUP2 LT ISZERO PUSH2 0x112A JUMPI DUP2 SLOAD DUP11 DUP3 ADD MSTORE SWAP1 DUP5 ADD SWAP1 DUP3 ADD PUSH2 0x1111 JUMP JUMPDEST POP POP POP DUP3 DUP8 ADD SWAP5 POP JUMPDEST POP SWAP3 SWAP7 SWAP6 POP POP POP POP POP POP JUMP INVALID LOG2 PUSH5 0x6970667358 0x22 SLT KECCAK256 0xE8 MSIZE PUSH16 0x6C4DCAFD84BCC9991170E23D0F4E7372 POP SWAP5 SHL 0x21 STOP PUSH0 0xC9 0xCC 0xE2 0xC7 0xB8 EXTCODESIZE DUP7 PUSH5 0x736F6C6343 STOP ADDMOD EQ STOP CALLER "
				},
				"gasEstimates": {
					"creation": {
						"codeDepositCost": "893800",
						"executionCost": "23032",
						"totalCost": "916832"
					},
					"external": {
						"count()": "2307",
						"create(string)": "infinite",
						"downgrade(string,uint256)": "infinite",
						"getImplementation(string,uint256)": "infinite",
						"getImplementations(string)": "infinite",
						"getLatestImplementation(string)": "infinite",
						"getLatestVersion(string)": "infinite",
						"getModules()": "infinite",
						"nameToIdentifier(string)": "infinite",
						"upgrade(string,address)": "infinite"
					},
					"internal": {
						"_mustBeExistingModule(string memory)": "infinite",
						"_mustBeExistingVersion(string memory,uint256)": "infinite",
						"_mustNotBeDuplicateImplementation(string memory,address)": "infinite",
						"_mustNotBeExistingModule(string memory)": "infinite",
						"_upgrade(string memory,address)": "infinite"
					}
				},
				"methodIdentifiers": {
					"count()": "06661abd",
					"create(string)": "b6a46b3b",
					"downgrade(string,uint256)": "fb68ba31",
					"getImplementation(string,uint256)": "e8009dda",
					"getImplementations(string)": "812a4f8c",
					"getLatestImplementation(string)": "d285f839",
					"getLatestVersion(string)": "cae96761",
					"getModules()": "b2494df3",
					"nameToIdentifier(string)": "278be867",
					"upgrade(string,address)": "5332c74d"
				}
			},
			"storageLayout": {
				"storage": [
					{
						"astId": 10,
						"contract": "smart_contracts/module_architecture/ModuleManager.sol:ModuleManager",
						"label": "_status",
						"offset": 0,
						"slot": "0",
						"type": "t_uint256"
					},
					{
						"astId": 750,
						"contract": "smart_contracts/module_architecture/ModuleManager.sol:ModuleManager",
						"label": "count",
						"offset": 0,
						"slot": "1",
						"type": "t_uint256"
					},
					{
						"astId": 765,
						"contract": "smart_contracts/module_architecture/ModuleManager.sol:ModuleManager",
						"label": "modules",
						"offset": 0,
						"slot": "2",
						"type": "t_mapping(t_uint256,t_struct(Module)759_storage)"
					},
					{
						"astId": 769,
						"contract": "smart_contracts/module_architecture/ModuleManager.sol:ModuleManager",
						"label": "nameToIdentifier",
						"offset": 0,
						"slot": "3",
						"type": "t_mapping(t_string_memory_ptr,t_uint256)"
					}
				],
				"types": {
					"t_array(t_bytes32)dyn_storage": {
						"base": "t_bytes32",
						"encoding": "dynamic_array",
						"label": "bytes32[]",
						"numberOfBytes": "32"
					},
					"t_bytes32": {
						"encoding": "inplace",
						"label": "bytes32",
						"numberOfBytes": "32"
					},
					"t_mapping(t_bytes32,t_uint256)": {
						"encoding": "mapping",
						"key": "t_bytes32",
						"label": "mapping(bytes32 => uint256)",
						"numberOfBytes": "32",
						"value": "t_uint256"
					},
					"t_mapping(t_string_memory_ptr,t_uint256)": {
						"encoding": "mapping",
						"key": "t_string_memory_ptr",
						"label": "mapping(string => uint256)",
						"numberOfBytes": "32",
						"value": "t_uint256"
					},
					"t_mapping(t_uint256,t_struct(Module)759_storage)": {
						"encoding": "mapping",
						"key": "t_uint256",
						"label": "mapping(uint256 => struct ModuleManager.Module)",
						"numberOfBytes": "32",
						"value": "t_struct(Module)759_storage"
					},
					"t_string_memory_ptr": {
						"encoding": "bytes",
						"label": "string",
						"numberOfBytes": "32"
					},
					"t_string_storage": {
						"encoding": "bytes",
						"label": "string",
						"numberOfBytes": "32"
					},
					"t_struct(AddressSet)390_storage": {
						"encoding": "inplace",
						"label": "struct EnumerableSet.AddressSet",
						"members": [
							{
								"astId": 389,
								"contract": "smart_contracts/module_architecture/ModuleManager.sol:ModuleManager",
								"label": "_inner",
								"offset": 0,
								"slot": "0",
								"type": "t_struct(Set)75_storage"
							}
						],
						"numberOfBytes": "64"
					},
					"t_struct(Module)759_storage": {
						"encoding": "inplace",
						"label": "struct ModuleManager.Module",
						"members": [
							{
								"astId": 753,
								"contract": "smart_contracts/module_architecture/ModuleManager.sol:ModuleManager",
								"label": "identifier",
								"offset": 0,
								"slot": "0",
								"type": "t_uint256"
							},
							{
								"astId": 755,
								"contract": "smart_contracts/module_architecture/ModuleManager.sol:ModuleManager",
								"label": "name",
								"offset": 0,
								"slot": "1",
								"type": "t_string_storage"
							},
							{
								"astId": 758,
								"contract": "smart_contracts/module_architecture/ModuleManager.sol:ModuleManager",
								"label": "implementations",
								"offset": 0,
								"slot": "2",
								"type": "t_struct(AddressSet)390_storage"
							}
						],
						"numberOfBytes": "128"
					},
					"t_struct(Set)75_storage": {
						"encoding": "inplace",
						"label": "struct EnumerableSet.Set",
						"members": [
							{
								"astId": 70,
								"contract": "smart_contracts/module_architecture/ModuleManager.sol:ModuleManager",
								"label": "_values",
								"offset": 0,
								"slot": "0",
								"type": "t_array(t_bytes32)dyn_storage"
							},
							{
								"astId": 74,
								"contract": "smart_contracts/module_architecture/ModuleManager.sol:ModuleManager",
								"label": "_indexes",
								"offset": 0,
								"slot": "1",
								"type": "t_mapping(t_bytes32,t_uint256)"
							}
						],
						"numberOfBytes": "64"
					},
					"t_uint256": {
						"encoding": "inplace",
						"label": "uint256",
						"numberOfBytes": "32"
					}
				}
			},
			"userdoc": {
				"kind": "user",
				"methods": {
					"getImplementations(string)": {
						"notice": "and this is return a zero address even when a module has been upgraded."
					},
					"getLatestImplementation(string)": {
						"notice": "for some reason this doesnt work."
					}
				},
				"version": 1
			}
		}
	}
}