{
	"data": {
		"bytecode": {
			"linkReferences": {
				"contracts/polygon/templates/modular-upgradeable/Authenticator.sol": {
					"Lib": [
						{
							"length": 20,
							"start": 1274
						},
						{
							"length": 20,
							"start": 1601
						},
						{
							"length": 20,
							"start": 1903
						},
						{
							"length": 20,
							"start": 2230
						},
						{
							"length": 20,
							"start": 2561
						},
						{
							"length": 20,
							"start": 2888
						},
						{
							"length": 20,
							"start": 3317
						},
						{
							"length": 20,
							"start": 3678
						},
						{
							"length": 20,
							"start": 4108
						},
						{
							"length": 20,
							"start": 4439
						},
						{
							"length": 20,
							"start": 4708
						},
						{
							"length": 20,
							"start": 5042
						},
						{
							"length": 20,
							"start": 5315
						},
						{
							"length": 20,
							"start": 5643
						},
						{
							"length": 20,
							"start": 6074
						},
						{
							"length": 20,
							"start": 6588
						},
						{
							"length": 20,
							"start": 6949
						},
						{
							"length": 20,
							"start": 7266
						},
						{
							"length": 20,
							"start": 7647
						},
						{
							"length": 20,
							"start": 7974
						},
						{
							"length": 20,
							"start": 8256
						},
						{
							"length": 20,
							"start": 8674
						},
						{
							"length": 20,
							"start": 9180
						},
						{
							"length": 20,
							"start": 9507
						}
					]
				}
			},
			"object": "608060405234801561001057600080fd5b50613ea0806100206000396000f3fe608060405234801561001057600080fd5b506004361061010b5760003560e01c806387557828116100a2578063c967490f11610071578063c967490f14610352578063e4ef519f14610383578063ebab61c6146103b3578063ed044679146103e3578063f52bccad146104135761010b565b80638755782814610290578063960c04af146102c1578063b61ae7ff146102f1578063c47bbe12146103225761010b565b806341d9ff9c116100de57806341d9ff9c146101d05780634a48613c146102005780635cadd0f21461023057806369c01b67146102605761010b565b80630c0993821461011057806320d9438d1461014057806334bae16d146101705780633e788dc9146101a0575b600080fd5b61012a6004803603810190610125919061289f565b610431565b6040516101379190612916565b60405180910390f35b61015a6004803603810190610155919061289f565b6106a6565b6040516101679190612916565b60405180910390f35b61018a6004803603810190610185919061289f565b61091b565b6040516101979190612916565b60405180910390f35b6101ba60048036038101906101b59190612931565b610bad565b6040516101c79190612977565b60405180910390f35b6101ea60048036038101906101e5919061289f565b610bc5565b6040516101f79190612916565b60405180910390f35b61021a600480360381019061021591906129be565b610f26565b6040516102279190612916565b60405180910390f35b61024a60048036038101906102459190612a6d565b6111c2565b6040516102579190612916565b60405180910390f35b61027a6004803603810190610275919061289f565b611421565b6040516102879190612916565b60405180910390f35b6102aa60048036038101906102a59190612bea565b611671565b6040516102b8929190612c62565b60405180910390f35b6102db60048036038101906102d6919061289f565b61188c565b6040516102e89190612916565b60405180910390f35b61030b60048036038101906103069190612e0a565b611bac565b604051610319929190612c62565b60405180910390f35b61033c6004803603810190610337919061289f565b611cf9565b6040516103499190612916565b60405180910390f35b61036c60048036038101906103679190612ee1565b611f8b565b60405161037a929190612c62565b60405180910390f35b61039d60048036038101906103989190612f59565b61212f565b6040516103aa9190612916565b60405180910390f35b6103cd60048036038101906103c89190612f59565b6122c8565b6040516103da9190612977565b60405180910390f35b6103fd60048036038101906103f8919061289f565b6122f6565b60405161040a9190612916565b60405180910390f35b61041b612588565b6040516104289190612977565b60405180910390f35b600061045a33604051806060016040528060218152602001613e4a6021913960018060016111c2565b5061046f83600361259490919063ffffffff16565b1561055957600080600560008673ffffffffffffffffffffffffffffffffffffffff1673ffffffffffffffffffffffffffffffffffffffff16815260200190815260200160002054815481106104c8576104c7612fa2565b5b9060005260206000209060030201905073__$61886df825913cbbb485c1c44700506030$__639d4daf9582856040518363ffffffff1660e01b8152600401610511929190613057565b602060405180830381865af415801561052e573d6000803e3d6000fd5b505050506040513d601f19601f82011682018060405250810190610552919061309c565b505061069c565b61056d8360036125c490919063ffffffff16565b5061057860036125f4565b600560008573ffffffffffffffffffffffffffffffffffffffff1673ffffffffffffffffffffffffffffffffffffffff16815260200190815260200160002081905550600080600560008673ffffffffffffffffffffffffffffffffffffffff1673ffffffffffffffffffffffffffffffffffffffff168152602001908152602001600020548154811061060f5761060e612fa2565b5b9060005260206000209060030201905073__$61886df825913cbbb485c1c44700506030$__639d4daf9582856040518363ffffffff1660e01b8152600401610658929190613057565b602060405180830381865af4158015610675573d6000803e3d6000fd5b505050506040513d601f19601f82011682018060405250810190610699919061309c565b50505b6001905092915050565b60006106cf33604051806060016040528060228152602001613e286022913960018060016111c2565b506106e483600361259490919063ffffffff16565b156107ce57600080600560008673ffffffffffffffffffffffffffffffffffffffff1673ffffffffffffffffffffffffffffffffffffffff168152602001908152602001600020548154811061073d5761073c612fa2565b5b9060005260206000209060030201905073__$61886df825913cbbb485c1c44700506030$__63395b5e5c82856040518363ffffffff1660e01b8152600401610786929190613057565b602060405180830381865af41580156107a3573d6000803e3d6000fd5b505050506040513d601f19601f820116820180604052508101906107c7919061309c565b5050610911565b6107e28360036125c490919063ffffffff16565b506107ed60036125f4565b600560008573ffffffffffffffffffffffffffffffffffffffff1673ffffffffffffffffffffffffffffffffffffffff16815260200190815260200160002081905550600080600560008673ffffffffffffffffffffffffffffffffffffffff1673ffffffffffffffffffffffffffffffffffffffff168152602001908152602001600020548154811061088457610883612fa2565b5b9060005260206000209060030201905073__$61886df825913cbbb485c1c44700506030$__63395b5e5c82856040518363ffffffff1660e01b81526004016108cd929190613057565b602060405180830381865af41580156108ea573d6000803e3d6000fd5b505050506040513d601f19601f8201168201806040525081019061090e919061309c565b50505b6001905092915050565b6000610961336040518060400160405280601e81526020017f61757468656e74696361746f722d7265766f6b652d74696d65642d6b6579000081525060018060016111c2565b5061097683600361259490919063ffffffff16565b15610a6057600080600560008673ffffffffffffffffffffffffffffffffffffffff1673ffffffffffffffffffffffffffffffffffffffff16815260200190815260200160002054815481106109cf576109ce612fa2565b5b9060005260206000209060030201905073__$61886df825913cbbb485c1c44700506030$__63b2df575382856040518363ffffffff1660e01b8152600401610a18929190613057565b602060405180830381865af4158015610a35573d6000803e3d6000fd5b505050506040513d601f19601f82011682018060405250810190610a59919061309c565b5050610ba3565b610a748360036125c490919063ffffffff16565b50610a7f60036125f4565b600560008573ffffffffffffffffffffffffffffffffffffffff1673ffffffffffffffffffffffffffffffffffffffff16815260200190815260200160002081905550600080600560008673ffffffffffffffffffffffffffffffffffffffff1673ffffffffffffffffffffffffffffffffffffffff1681526020019081526020016000205481548110610b1657610b15612fa2565b5b9060005260206000209060030201905073__$61886df825913cbbb485c1c44700506030$__63b2df575382856040518363ffffffff1660e01b8152600401610b5f929190613057565b602060405180830381865af4158015610b7c573d6000803e3d6000fd5b505050506040513d601f19601f82011682018060405250810190610ba0919061309c565b50505b6001905092915050565b60056020528060005260406000206000915090505481565b6000610bd082612609565b610c0f576040517f08c379a0000000000000000000000000000000000000000000000000000000008152600401610c0690613172565b60405180910390fd5b610c53336040518060400160405280601a81526020017f61757468656e74696361746f722d6772616e742d62756e646c6500000000000081525060018060016111c2565b506000610c6a84600361259490919063ffffffff16565b15610d7657600080600560008773ffffffffffffffffffffffffffffffffffffffff1673ffffffffffffffffffffffffffffffffffffffff1681526020019081526020016000205481548110610cc357610cc2612fa2565b5b9060005260206000209060030201905073__$61886df825913cbbb485c1c44700506030$__63e0dfa857826001600688604051610d0091906131ce565b9081526020016040518091039020546040518463ffffffff1660e01b8152600401610d2d939291906131fb565b602060405180830381865af4158015610d4a573d6000803e3d6000fd5b505050506040513d601f19601f82011682018060405250810190610d6e919061309c565b915050610edb565b610d8a8460036125c490919063ffffffff16565b50610d9560036125f4565b600560008673ffffffffffffffffffffffffffffffffffffffff1673ffffffffffffffffffffffffffffffffffffffff16815260200190815260200160002081905550600080600560008773ffffffffffffffffffffffffffffffffffffffff1673ffffffffffffffffffffffffffffffffffffffff1681526020019081526020016000205481548110610e2c57610e2b612fa2565b5b9060005260206000209060030201905073__$61886df825913cbbb485c1c44700506030$__63e0dfa857826001600688604051610e6991906131ce565b9081526020016040518091039020546040518463ffffffff1660e01b8152600401610e96939291906131fb565b602060405180830381865af4158015610eb3573d6000803e3d6000fd5b505050506040513d601f19601f82011682018060405250810190610ed7919061309c565b9150505b80610f1b576040517f08c379a0000000000000000000000000000000000000000000000000000000008152600401610f12906132ca565b60405180910390fd5b600191505092915050565b6000610f6c336040518060400160405280601d81526020017f61757468656e74696361746f722d6772616e742d74696d65642d6b657900000081525060018060016111c2565b50610f8185600361259490919063ffffffff16565b1561106f57600080600560008873ffffffffffffffffffffffffffffffffffffffff1673ffffffffffffffffffffffffffffffffffffffff1681526020019081526020016000205481548110610fda57610fd9612fa2565b5b9060005260206000209060030201905073__$61886df825913cbbb485c1c44700506030$__6330778e89828787876040518563ffffffff1660e01b815260040161102794939291906132ea565b602060405180830381865af4158015611044573d6000803e3d6000fd5b505050506040513d601f19601f82011682018060405250810190611068919061309c565b50506111b6565b6110838560036125c490919063ffffffff16565b5061108e60036125f4565b600560008773ffffffffffffffffffffffffffffffffffffffff1673ffffffffffffffffffffffffffffffffffffffff16815260200190815260200160002081905550600080600560008873ffffffffffffffffffffffffffffffffffffffff1673ffffffffffffffffffffffffffffffffffffffff168152602001908152602001600020548154811061112557611124612fa2565b5b9060005260206000209060030201905073__$61886df825913cbbb485c1c44700506030$__6330778e89828787876040518563ffffffff1660e01b815260040161117294939291906132ea565b602060405180830381865af415801561118f573d6000803e3d6000fd5b505050506040513d601f19601f820116820180604052508101906111b3919061309c565b50505b60019050949350505050565b6000806111d987600361259490919063ffffffff16565b156112ca57600080600560008a73ffffffffffffffffffffffffffffffffffffffff1673ffffffffffffffffffffffffffffffffffffffff168152602001908152602001600020548154811061123257611231612fa2565b5b9060005260206000209060030201905073__$61886df825913cbbb485c1c44700506030$__63f168d50682898989896040518663ffffffff1660e01b8152600401611281959493929190613345565b602060405180830381865af415801561129e573d6000803e3d6000fd5b505050506040513d601f19601f820116820180604052508101906112c2919061309c565b915050611414565b6112de8760036125c490919063ffffffff16565b506112e960036125f4565b600560008973ffffffffffffffffffffffffffffffffffffffff1673ffffffffffffffffffffffffffffffffffffffff16815260200190815260200160002081905550600080600560008a73ffffffffffffffffffffffffffffffffffffffff1673ffffffffffffffffffffffffffffffffffffffff16815260200190815260200160002054815481106113805761137f612fa2565b5b9060005260206000209060030201905073__$61886df825913cbbb485c1c44700506030$__63f168d50682898989896040518663ffffffff1660e01b81526004016113cf959493929190613345565b602060405180830381865af41580156113ec573d6000803e3d6000fd5b505050506040513d601f19601f82011682018060405250810190611410919061309c565b9150505b8091505095945050505050565b60008061143884600361259490919063ffffffff16565b1561152357600080600560008773ffffffffffffffffffffffffffffffffffffffff1673ffffffffffffffffffffffffffffffffffffffff168152602001908152602001600020548154811061149157611490612fa2565b5b9060005260206000209060030201905073__$61886df825913cbbb485c1c44700506030$__63a49c721f82866040518363ffffffff1660e01b81526004016114da929190613057565b602060405180830381865af41580156114f7573d6000803e3d6000fd5b505050506040513d601f19601f8201168201806040525081019061151b919061309c565b915050611667565b6115378460036125c490919063ffffffff16565b5061154260036125f4565b600560008673ffffffffffffffffffffffffffffffffffffffff1673ffffffffffffffffffffffffffffffffffffffff16815260200190815260200160002081905550600080600560008773ffffffffffffffffffffffffffffffffffffffff1673ffffffffffffffffffffffffffffffffffffffff16815260200190815260200160002054815481106115d9576115d8612fa2565b5b9060005260206000209060030201905073__$61886df825913cbbb485c1c44700506030$__63a49c721f82866040518363ffffffff1660e01b8152600401611622929190613057565b602060405180830381865af415801561163f573d6000803e3d6000fd5b505050506040513d601f19601f82011682018060405250810190611663919061309c565b9150505b8091505092915050565b600080606060005b855181101561174f576116a586828151811061169857611697612fa2565b5b6020026020010151612609565b6116e4576040517f08c379a00000000000000000000000000000000000000000000000000000000081526004016116db90613437565b60405180910390fd5b60068682815181106116f9576116f8612fa2565b5b602002602001015160405161170e91906131ce565b9081526020016040518091039020548282815181106117305761172f612fa2565b5b602002602001018181525050808061174790613486565b915050611679565b50611794336040518060400160405280601b81526020017f61757468656e74696361746f722d6d657267652d62756e646c6573000000000081525060018060016111c2565b5060008073__$61886df825913cbbb485c1c44700506030$__6353daf35684600160026040518463ffffffff1660e01b81526004016117d593929190613593565b6040805180830381865af41580156117f1573d6000803e3d6000fd5b505050506040513d601f19601f8201168201806040525081019061181591906135e6565b9150915081611859576040517f08c379a0000000000000000000000000000000000000000000000000000000008152600401611850906136be565b60405180910390fd5b8060068760405161186a91906131ce565b9081526020016040518091039020819055508181945094505050509250929050565b600061189782612609565b6118d6576040517f08c379a00000000000000000000000000000000000000000000000000000000081526004016118cd90613776565b60405180910390fd5b61191a336040518060400160405280601b81526020017f61757468656e74696361746f722d7265766f6b652d62756e646c65000000000081525060018060016111c2565b50600061193184600361259490919063ffffffff16565b15611a3d57600080600560008773ffffffffffffffffffffffffffffffffffffffff1673ffffffffffffffffffffffffffffffffffffffff168152602001908152602001600020548154811061198a57611989612fa2565b5b9060005260206000209060030201905073__$61886df825913cbbb485c1c44700506030$__632f735e4e8260016006886040516119c791906131ce565b9081526020016040518091039020546040518463ffffffff1660e01b81526004016119f4939291906131fb565b602060405180830381865af4158015611a11573d6000803e3d6000fd5b505050506040513d601f19601f82011682018060405250810190611a35919061309c565b915050611ba2565b611a518460036125c490919063ffffffff16565b50611a5c60036125f4565b600560008673ffffffffffffffffffffffffffffffffffffffff1673ffffffffffffffffffffffffffffffffffffffff16815260200190815260200160002081905550600080600560008773ffffffffffffffffffffffffffffffffffffffff1673ffffffffffffffffffffffffffffffffffffffff1681526020019081526020016000205481548110611af357611af2612fa2565b5b9060005260206000209060030201905073__$61886df825913cbbb485c1c44700506030$__632f735e4e826001600688604051611b3091906131ce565b9081526020016040518091039020546040518463ffffffff1660e01b8152600401611b5d939291906131fb565b602060405180830381865af4158015611b7a573d6000803e3d6000fd5b505050506040513d601f19601f82011682018060405250810190611b9e919061309c565b9150505b8091505092915050565b600080611bb886612609565b15611bf8576040517f08c379a0000000000000000000000000000000000000000000000000000000008152600401611bef9061382e565b60405180910390fd5b611c3c336040518060400160405280601b81526020017f61757468656e74696361746f722d6372656174652d62756e646c65000000000081525060018060016111c2565b5060008073__$61886df825913cbbb485c1c44700506030$__63da55de94600160028a8a8a6040518663ffffffff1660e01b8152600401611c81959493929190613a7f565b6040805180830381865af4158015611c9d573d6000803e3d6000fd5b505050506040513d601f19601f82011682018060405250810190611cc191906135e6565b9150915080600689604051611cd691906131ce565b908152602001604051809103902081905550818193509350505094509492505050565b6000611d3f336040518060400160405280601581526020017f61757468656e74696361746f722d636f6e73756d65000000000000000000000081525060018060016111c2565b50611d5483600361259490919063ffffffff16565b15611e3e57600080600560008673ffffffffffffffffffffffffffffffffffffffff1673ffffffffffffffffffffffffffffffffffffffff1681526020019081526020016000205481548110611dad57611dac612fa2565b5b9060005260206000209060030201905073__$61886df825913cbbb485c1c44700506030$__63502de0ee82856040518363ffffffff1660e01b8152600401611df6929190613057565b602060405180830381865af4158015611e13573d6000803e3d6000fd5b505050506040513d601f19601f82011682018060405250810190611e37919061309c565b5050611f81565b611e528360036125c490919063ffffffff16565b50611e5d60036125f4565b600560008573ffffffffffffffffffffffffffffffffffffffff1673ffffffffffffffffffffffffffffffffffffffff16815260200190815260200160002081905550600080600560008673ffffffffffffffffffffffffffffffffffffffff1673ffffffffffffffffffffffffffffffffffffffff1681526020019081526020016000205481548110611ef457611ef3612fa2565b5b9060005260206000209060030201905073__$61886df825913cbbb485c1c44700506030$__63502de0ee82856040518363ffffffff1660e01b8152600401611f3d929190613057565b602060405180830381865af4158015611f5a573d6000803e3d6000fd5b505050506040513d601f19601f82011682018060405250810190611f7e919061309c565b50505b6001905092915050565b600080611f9784612609565b611fd6576040517f08c379a0000000000000000000000000000000000000000000000000000000008152600401611fcd90613b7f565b60405180910390fd5b61201a336040518060400160405280601981526020017f61757468656e74696361746f722d636f70792d62756e646c650000000000000081525060018060016111c2565b5060008073__$61886df825913cbbb485c1c44700506030$__6371ee601e60068860405161204891906131ce565b908152602001604051809103902054600160026040518463ffffffff1660e01b815260040161207993929190613b9f565b6040805180830381865af4158015612095573d6000803e3d6000fd5b505050506040513d601f19601f820116820180604052508101906120b991906135e6565b91509150816120fd576040517f08c379a00000000000000000000000000000000000000000000000000000000081526004016120f490613c6e565b60405180910390fd5b8060068660405161210e91906131ce565b90815260200160405180910390208190555081819350935050509250929050565b600061213a82612609565b612179576040517f08c379a000000000000000000000000000000000000000000000000000000000815260040161217090613d26565b60405180910390fd5b6121bd336040518060400160405280601b81526020017f61757468656e74696361746f722d64656c6574652d62756e646c65000000000081525060018060016111c2565b50600073__$61886df825913cbbb485c1c44700506030$__630cfa098e60016006866040516121ec91906131ce565b9081526020016040518091039020546040518363ffffffff1660e01b8152600401612218929190613d46565b602060405180830381865af4158015612235573d6000803e3d6000fd5b505050506040513d601f19601f82011682018060405250810190612259919061309c565b90508061229b576040517f08c379a000000000000000000000000000000000000000000000000000000000815260040161229290613e07565b60405180910390fd5b60006006846040516122ad91906131ce565b90815260200160405180910390208190555080915050919050565b6006818051602081018201805184825260208301602085012081835280955050505050506000915090505481565b600061233c336040518060400160405280602081526020017f61757468656e74696361746f722d6772616e742d7374616e646172642d6b657981525060018060016111c2565b5061235183600361259490919063ffffffff16565b1561243b57600080600560008673ffffffffffffffffffffffffffffffffffffffff1673ffffffffffffffffffffffffffffffffffffffff16815260200190815260200160002054815481106123aa576123a9612fa2565b5b9060005260206000209060030201905073__$61886df825913cbbb485c1c44700506030$__635c21e32582856040518363ffffffff1660e01b81526004016123f3929190613057565b602060405180830381865af4158015612410573d6000803e3d6000fd5b505050506040513d601f19601f82011682018060405250810190612434919061309c565b505061257e565b61244f8360036125c490919063ffffffff16565b5061245a60036125f4565b600560008573ffffffffffffffffffffffffffffffffffffffff1673ffffffffffffffffffffffffffffffffffffffff16815260200190815260200160002081905550600080600560008673ffffffffffffffffffffffffffffffffffffffff1673ffffffffffffffffffffffffffffffffffffffff16815260200190815260200160002054815481106124f1576124f0612fa2565b5b9060005260206000209060030201905073__$61886df825913cbbb485c1c44700506030$__635c21e32582856040518363ffffffff1660e01b815260040161253a929190613057565b602060405180830381865af4158015612557573d6000803e3d6000fd5b505050506040513d601f19601f8201168201806040525081019061257b919061309c565b50505b6001905092915050565b60028060000154905081565b60006125bc836000018373ffffffffffffffffffffffffffffffffffffffff1660001b612643565b905092915050565b60006125ec836000018373ffffffffffffffffffffffffffffffffffffffff1660001b612666565b905092915050565b6000612602826000016126d6565b9050919050565b60008060068360405161261c91906131ce565b90815260200160405180910390205414612639576001905061263e565b600090505b919050565b600080836001016000848152602001908152602001600020541415905092915050565b60006126728383612643565b6126cb5782600001829080600181540180825580915050600190039060005260206000200160009091909190915055826000018054905083600101600084815260200190815260200160002081905550600190506126d0565b600090505b92915050565b600081600001805490509050919050565b6000604051905090565b600080fd5b600080fd5b600073ffffffffffffffffffffffffffffffffffffffff82169050919050565b6000612726826126fb565b9050919050565b6127368161271b565b811461274157600080fd5b50565b6000813590506127538161272d565b92915050565b600080fd5b600080fd5b6000601f19601f8301169050919050565b7f4e487b7100000000000000000000000000000000000000000000000000000000600052604160045260246000fd5b6127ac82612763565b810181811067ffffffffffffffff821117156127cb576127ca612774565b5b80604052505050565b60006127de6126e7565b90506127ea82826127a3565b919050565b600067ffffffffffffffff82111561280a57612809612774565b5b61281382612763565b9050602081019050919050565b82818337600083830152505050565b600061284261283d846127ef565b6127d4565b90508281526020810184848401111561285e5761285d61275e565b5b612869848285612820565b509392505050565b600082601f83011261288657612885612759565b5b813561289684826020860161282f565b91505092915050565b600080604083850312156128b6576128b56126f1565b5b60006128c485828601612744565b925050602083013567ffffffffffffffff8111156128e5576128e46126f6565b5b6128f185828601612871565b9150509250929050565b60008115159050919050565b612910816128fb565b82525050565b600060208201905061292b6000830184612907565b92915050565b600060208284031215612947576129466126f1565b5b600061295584828501612744565b91505092915050565b6000819050919050565b6129718161295e565b82525050565b600060208201905061298c6000830184612968565b92915050565b61299b8161295e565b81146129a657600080fd5b50565b6000813590506129b881612992565b92915050565b600080600080608085870312156129d8576129d76126f1565b5b60006129e687828801612744565b945050602085013567ffffffffffffffff811115612a0757612a066126f6565b5b612a1387828801612871565b9350506040612a24878288016129a9565b9250506060612a35878288016129a9565b91505092959194509250565b612a4a816128fb565b8114612a5557600080fd5b50565b600081359050612a6781612a41565b92915050565b600080600080600060a08688031215612a8957612a886126f1565b5b6000612a9788828901612744565b955050602086013567ffffffffffffffff811115612ab857612ab76126f6565b5b612ac488828901612871565b9450506040612ad588828901612a58565b9350506060612ae688828901612a58565b9250506080612af788828901612a58565b9150509295509295909350565b600067ffffffffffffffff821115612b1f57612b1e612774565b5b602082029050602081019050919050565b600080fd5b6000612b48612b4384612b04565b6127d4565b90508083825260208201905060208402830185811115612b6b57612b6a612b30565b5b835b81811015612bb257803567ffffffffffffffff811115612b9057612b8f612759565b5b808601612b9d8982612871565b85526020850194505050602081019050612b6d565b5050509392505050565b600082601f830112612bd157612bd0612759565b5b8135612be1848260208601612b35565b91505092915050565b60008060408385031215612c0157612c006126f1565b5b600083013567ffffffffffffffff811115612c1f57612c1e6126f6565b5b612c2b85828601612bbc565b925050602083013567ffffffffffffffff811115612c4c57612c4b6126f6565b5b612c5885828601612871565b9150509250929050565b6000604082019050612c776000830185612907565b612c846020830184612968565b9392505050565b600067ffffffffffffffff821115612ca657612ca5612774565b5b602082029050602081019050919050565b600080fd5b600080fd5b600060808284031215612cd757612cd6612cb7565b5b612ce160806127d4565b9050600082013567ffffffffffffffff811115612d0157612d00612cbc565b5b612d0d84828501612871565b6000830152506020612d21848285016129a9565b6020830152506040612d35848285016129a9565b6040830152506060612d49848285016129a9565b60608301525092915050565b6000612d68612d6384612c8b565b6127d4565b90508083825260208201905060208402830185811115612d8b57612d8a612b30565b5b835b81811015612dd257803567ffffffffffffffff811115612db057612daf612759565b5b808601612dbd8982612cc1565b85526020850194505050602081019050612d8d565b5050509392505050565b600082601f830112612df157612df0612759565b5b8135612e01848260208601612d55565b91505092915050565b60008060008060808587031215612e2457612e236126f1565b5b600085013567ffffffffffffffff811115612e4257612e416126f6565b5b612e4e87828801612871565b945050602085013567ffffffffffffffff811115612e6f57612e6e6126f6565b5b612e7b87828801612bbc565b935050604085013567ffffffffffffffff811115612e9c57612e9b6126f6565b5b612ea887828801612bbc565b925050606085013567ffffffffffffffff811115612ec957612ec86126f6565b5b612ed587828801612ddc565b91505092959194509250565b60008060408385031215612ef857612ef76126f1565b5b600083013567ffffffffffffffff811115612f1657612f156126f6565b5b612f2285828601612871565b925050602083013567ffffffffffffffff811115612f4357612f426126f6565b5b612f4f85828601612871565b9150509250929050565b600060208284031215612f6f57612f6e6126f1565b5b600082013567ffffffffffffffff811115612f8d57612f8c6126f6565b5b612f9984828501612871565b91505092915050565b7f4e487b7100000000000000000000000000000000000000000000000000000000600052603260045260246000fd5b8082525050565b600081519050919050565b600082825260208201905092915050565b60005b83811015613012578082015181840152602081019050612ff7565b60008484015250505050565b600061302982612fd8565b6130338185612fe3565b9350613043818560208601612ff4565b61304c81612763565b840191505092915050565b600060408201905061306c6000830185612fd1565b818103602083015261307e818461301e565b90509392505050565b60008151905061309681612a41565b92915050565b6000602082840312156130b2576130b16126f1565b5b60006130c084828501613087565b91505092915050565b600082825260208201905092915050565b7f41757468656e74696361746f723a20556e61626c6520746f206772616e74206260008201527f756e646c652062656361757365207468657265206973206e6f2065786973746960208201527f6e672062756e646c6520776974682074686520676976656e206c6162656c2e00604082015250565b600061315c605f836130c9565b9150613167826130da565b606082019050919050565b6000602082019050818103600083015261318b8161314f565b9050919050565b600081905092915050565b60006131a882612fd8565b6131b28185613192565b93506131c2818560208601612ff4565b80840191505092915050565b60006131da828461319d565b915081905092915050565b8082525050565b6131f58161295e565b82525050565b60006060820190506132106000830186612fd1565b61321d60208301856131e5565b61322a60408301846131ec565b949350505050565b7f41757468656e74696361746f723a20556e61626c6520746f206772616e74206260008201527f756e646c652064756520746f20756e7375636365737366756c2065786563757460208201527f696f6e2e00000000000000000000000000000000000000000000000000000000604082015250565b60006132b46044836130c9565b91506132bf82613232565b606082019050919050565b600060208201905081810360008301526132e3816132a7565b9050919050565b60006080820190506132ff6000830187612fd1565b8181036020830152613311818661301e565b905061332060408301856131ec565b61332d60608301846131ec565b95945050505050565b61333f816128fb565b82525050565b600060a08201905061335a6000830188612fd1565b818103602083015261336c818761301e565b905061337b6040830186613336565b6133886060830185613336565b6133956080830184613336565b9695505050505050565b7f556e61626c6520746f206d657267652062756e646c657320626563617573652060008201527f61206c6162656c20646f6573206e6f7420706f696e7420746f20616e2065786960208201527f7374696e672062756e646c652e00000000000000000000000000000000000000604082015250565b6000613421604d836130c9565b915061342c8261339f565b606082019050919050565b6000602082019050818103600083015261345081613414565b9050919050565b7f4e487b7100000000000000000000000000000000000000000000000000000000600052601160045260246000fd5b60006134918261295e565b91507fffffffffffffffffffffffffffffffffffffffffffffffffffffffffffffffff82036134c3576134c2613457565b5b600182019050919050565b600081519050919050565b600082825260208201905092915050565b6000819050602082019050919050565b6135038161295e565b82525050565b600061351583836134fa565b60208301905092915050565b6000602082019050919050565b6000613539826134ce565b61354381856134d9565b935061354e836134ea565b8060005b8381101561357f5781516135668882613509565b975061357183613521565b925050600181019050613552565b5085935050505092915050565b8082525050565b600060608201905081810360008301526135ad818661352e565b90506135bc60208301856131e5565b6135c9604083018461358c565b949350505050565b6000815190506135e081612992565b92915050565b600080604083850312156135fd576135fc6126f1565b5b600061360b85828601613087565b925050602061361c858286016135d1565b9150509250929050565b7f41757468656e74696361746f723a20556e61626c6520746f206d65726765206260008201527f756e646c65732064756520746f20756e7375636365737366756c20657865637560208201527f74696f6e2e000000000000000000000000000000000000000000000000000000604082015250565b60006136a86045836130c9565b91506136b382613626565b606082019050919050565b600060208201905081810360008301526136d78161369b565b9050919050565b7f41757468656e74696361746f723a20556e61626c6520746f207265766f6b652060008201527f62756e646c652062656361757365207468657265206973206e6f20657869737460208201527f696e672062756e646c6520776974682074686520676976656e206c6162656c2e604082015250565b60006137606060836130c9565b915061376b826136de565b606082019050919050565b6000602082019050818103600083015261378f81613753565b9050919050565b7f41757468656e74696361746f723a20556e61626c6520746f206372656174652060008201527f62756e646c65206265636175736520746865726520697320616c72656164792060208201527f612062756e646c6520776974682074686520676976656e206c6162656c2e0000604082015250565b6000613818605e836130c9565b915061382382613796565b606082019050919050565b600060208201905081810360008301526138478161380b565b9050919050565b600081519050919050565b600082825260208201905092915050565b6000819050602082019050919050565b600082825260208201905092915050565b600061389682612fd8565b6138a0818561387a565b93506138b0818560208601612ff4565b6138b981612763565b840191505092915050565b60006138d0838361388b565b905092915050565b6000602082019050919050565b60006138f08261384e565b6138fa8185613859565b93508360208202850161390c8561386a565b8060005b85811015613948578484038952815161392985826138c4565b9450613934836138d8565b925060208a01995050600181019050613910565b50829750879550505050505092915050565b600081519050919050565b600082825260208201905092915050565b6000819050602082019050919050565b600060808301600083015184820360008601526139a3828261388b565b91505060208301516139b860208601826134fa565b5060408301516139cb60408601826134fa565b5060608301516139de60608601826134fa565b508091505092915050565b60006139f58383613986565b905092915050565b6000602082019050919050565b6000613a158261395a565b613a1f8185613965565b935083602082028501613a3185613976565b8060005b85811015613a6d5784840389528151613a4e85826139e9565b9450613a59836139fd565b925060208a01995050600181019050613a35565b50829750879550505050505092915050565b600060a082019050613a9460008301886131e5565b613aa1602083018761358c565b8181036040830152613ab381866138e5565b90508181036060830152613ac781856138e5565b90508181036080830152613adb8184613a0a565b90509695505050505050565b7f41757468656e74696361746f723a20556e61626c6520746f20636f707920627560008201527f6e646c652062656361757365207468657265206973206e6f206578697374696e60208201527f672062756e646c6520776974682074686520676976656e206c6162656c2e0000604082015250565b6000613b69605e836130c9565b9150613b7482613ae7565b606082019050919050565b60006020820190508181036000830152613b9881613b5c565b9050919050565b6000606082019050613bb460008301866131ec565b613bc160208301856131e5565b613bce604083018461358c565b949350505050565b7f41757468656e74696361746f723a20556e61626c6520746f20636f707920627560008201527f6e646c652064756520746f20756e7375636365737366756c206578656375746960208201527f6f6e2e0000000000000000000000000000000000000000000000000000000000604082015250565b6000613c586043836130c9565b9150613c6382613bd6565b606082019050919050565b60006020820190508181036000830152613c8781613c4b565b9050919050565b7f41757468656e74696361746f723a20556e61626c6520746f2064656c6574652060008201527f62756e646c652062656361757365207468657265206973206e6f20657869737460208201527f696e672062756e646c6520776974682074686520676976656e206c6162656c2e604082015250565b6000613d106060836130c9565b9150613d1b82613c8e565b606082019050919050565b60006020820190508181036000830152613d3f81613d03565b9050919050565b6000604082019050613d5b60008301856131e5565b613d6860208301846131ec565b9392505050565b7f41757468656e74696361746f723a20556e61626c6520746f2064656c6574652060008201527f62756e646c652064756520746f20756e7375636365737366756c20657865637560208201527f74696f6e2e000000000000000000000000000000000000000000000000000000604082015250565b6000613df16045836130c9565b9150613dfc82613d6f565b606082019050919050565b60006020820190508181036000830152613e2081613de4565b905091905056fe61757468656e74696361746f722d6772616e742d636f6e73756d61626c652d6b657961757468656e74696361746f722d7265766f6b652d7374616e646172642d6b6579a2646970667358221220284097fc7b9ab68e2e7a24bbcbf845094e997f0ff29c363012887dcf91277f3664736f6c63430008130033",
			"opcodes": "PUSH1 0x80 PUSH1 0x40 MSTORE CALLVALUE DUP1 ISZERO PUSH2 0x10 JUMPI PUSH1 0x0 DUP1 REVERT JUMPDEST POP PUSH2 0x3EA0 DUP1 PUSH2 0x20 PUSH1 0x0 CODECOPY PUSH1 0x0 RETURN INVALID PUSH1 0x80 PUSH1 0x40 MSTORE CALLVALUE DUP1 ISZERO PUSH2 0x10 JUMPI PUSH1 0x0 DUP1 REVERT JUMPDEST POP PUSH1 0x4 CALLDATASIZE LT PUSH2 0x10B JUMPI PUSH1 0x0 CALLDATALOAD PUSH1 0xE0 SHR DUP1 PUSH4 0x87557828 GT PUSH2 0xA2 JUMPI DUP1 PUSH4 0xC967490F GT PUSH2 0x71 JUMPI DUP1 PUSH4 0xC967490F EQ PUSH2 0x352 JUMPI DUP1 PUSH4 0xE4EF519F EQ PUSH2 0x383 JUMPI DUP1 PUSH4 0xEBAB61C6 EQ PUSH2 0x3B3 JUMPI DUP1 PUSH4 0xED044679 EQ PUSH2 0x3E3 JUMPI DUP1 PUSH4 0xF52BCCAD EQ PUSH2 0x413 JUMPI PUSH2 0x10B JUMP JUMPDEST DUP1 PUSH4 0x87557828 EQ PUSH2 0x290 JUMPI DUP1 PUSH4 0x960C04AF EQ PUSH2 0x2C1 JUMPI DUP1 PUSH4 0xB61AE7FF EQ PUSH2 0x2F1 JUMPI DUP1 PUSH4 0xC47BBE12 EQ PUSH2 0x322 JUMPI PUSH2 0x10B JUMP JUMPDEST DUP1 PUSH4 0x41D9FF9C GT PUSH2 0xDE JUMPI DUP1 PUSH4 0x41D9FF9C EQ PUSH2 0x1D0 JUMPI DUP1 PUSH4 0x4A48613C EQ PUSH2 0x200 JUMPI DUP1 PUSH4 0x5CADD0F2 EQ PUSH2 0x230 JUMPI DUP1 PUSH4 0x69C01B67 EQ PUSH2 0x260 JUMPI PUSH2 0x10B JUMP JUMPDEST DUP1 PUSH4 0xC099382 EQ PUSH2 0x110 JUMPI DUP1 PUSH4 0x20D9438D EQ PUSH2 0x140 JUMPI DUP1 PUSH4 0x34BAE16D EQ PUSH2 0x170 JUMPI DUP1 PUSH4 0x3E788DC9 EQ PUSH2 0x1A0 JUMPI JUMPDEST PUSH1 0x0 DUP1 REVERT JUMPDEST PUSH2 0x12A PUSH1 0x4 DUP1 CALLDATASIZE SUB DUP2 ADD SWAP1 PUSH2 0x125 SWAP2 SWAP1 PUSH2 0x289F JUMP JUMPDEST PUSH2 0x431 JUMP JUMPDEST PUSH1 0x40 MLOAD PUSH2 0x137 SWAP2 SWAP1 PUSH2 0x2916 JUMP JUMPDEST PUSH1 0x40 MLOAD DUP1 SWAP2 SUB SWAP1 RETURN JUMPDEST PUSH2 0x15A PUSH1 0x4 DUP1 CALLDATASIZE SUB DUP2 ADD SWAP1 PUSH2 0x155 SWAP2 SWAP1 PUSH2 0x289F JUMP JUMPDEST PUSH2 0x6A6 JUMP JUMPDEST PUSH1 0x40 MLOAD PUSH2 0x167 SWAP2 SWAP1 PUSH2 0x2916 JUMP JUMPDEST PUSH1 0x40 MLOAD DUP1 SWAP2 SUB SWAP1 RETURN JUMPDEST PUSH2 0x18A PUSH1 0x4 DUP1 CALLDATASIZE SUB DUP2 ADD SWAP1 PUSH2 0x185 SWAP2 SWAP1 PUSH2 0x289F JUMP JUMPDEST PUSH2 0x91B JUMP JUMPDEST PUSH1 0x40 MLOAD PUSH2 0x197 SWAP2 SWAP1 PUSH2 0x2916 JUMP JUMPDEST PUSH1 0x40 MLOAD DUP1 SWAP2 SUB SWAP1 RETURN JUMPDEST PUSH2 0x1BA PUSH1 0x4 DUP1 CALLDATASIZE SUB DUP2 ADD SWAP1 PUSH2 0x1B5 SWAP2 SWAP1 PUSH2 0x2931 JUMP JUMPDEST PUSH2 0xBAD JUMP JUMPDEST PUSH1 0x40 MLOAD PUSH2 0x1C7 SWAP2 SWAP1 PUSH2 0x2977 JUMP JUMPDEST PUSH1 0x40 MLOAD DUP1 SWAP2 SUB SWAP1 RETURN JUMPDEST PUSH2 0x1EA PUSH1 0x4 DUP1 CALLDATASIZE SUB DUP2 ADD SWAP1 PUSH2 0x1E5 SWAP2 SWAP1 PUSH2 0x289F JUMP JUMPDEST PUSH2 0xBC5 JUMP JUMPDEST PUSH1 0x40 MLOAD PUSH2 0x1F7 SWAP2 SWAP1 PUSH2 0x2916 JUMP JUMPDEST PUSH1 0x40 MLOAD DUP1 SWAP2 SUB SWAP1 RETURN JUMPDEST PUSH2 0x21A PUSH1 0x4 DUP1 CALLDATASIZE SUB DUP2 ADD SWAP1 PUSH2 0x215 SWAP2 SWAP1 PUSH2 0x29BE JUMP JUMPDEST PUSH2 0xF26 JUMP JUMPDEST PUSH1 0x40 MLOAD PUSH2 0x227 SWAP2 SWAP1 PUSH2 0x2916 JUMP JUMPDEST PUSH1 0x40 MLOAD DUP1 SWAP2 SUB SWAP1 RETURN JUMPDEST PUSH2 0x24A PUSH1 0x4 DUP1 CALLDATASIZE SUB DUP2 ADD SWAP1 PUSH2 0x245 SWAP2 SWAP1 PUSH2 0x2A6D JUMP JUMPDEST PUSH2 0x11C2 JUMP JUMPDEST PUSH1 0x40 MLOAD PUSH2 0x257 SWAP2 SWAP1 PUSH2 0x2916 JUMP JUMPDEST PUSH1 0x40 MLOAD DUP1 SWAP2 SUB SWAP1 RETURN JUMPDEST PUSH2 0x27A PUSH1 0x4 DUP1 CALLDATASIZE SUB DUP2 ADD SWAP1 PUSH2 0x275 SWAP2 SWAP1 PUSH2 0x289F JUMP JUMPDEST PUSH2 0x1421 JUMP JUMPDEST PUSH1 0x40 MLOAD PUSH2 0x287 SWAP2 SWAP1 PUSH2 0x2916 JUMP JUMPDEST PUSH1 0x40 MLOAD DUP1 SWAP2 SUB SWAP1 RETURN JUMPDEST PUSH2 0x2AA PUSH1 0x4 DUP1 CALLDATASIZE SUB DUP2 ADD SWAP1 PUSH2 0x2A5 SWAP2 SWAP1 PUSH2 0x2BEA JUMP JUMPDEST PUSH2 0x1671 JUMP JUMPDEST PUSH1 0x40 MLOAD PUSH2 0x2B8 SWAP3 SWAP2 SWAP1 PUSH2 0x2C62 JUMP JUMPDEST PUSH1 0x40 MLOAD DUP1 SWAP2 SUB SWAP1 RETURN JUMPDEST PUSH2 0x2DB PUSH1 0x4 DUP1 CALLDATASIZE SUB DUP2 ADD SWAP1 PUSH2 0x2D6 SWAP2 SWAP1 PUSH2 0x289F JUMP JUMPDEST PUSH2 0x188C JUMP JUMPDEST PUSH1 0x40 MLOAD PUSH2 0x2E8 SWAP2 SWAP1 PUSH2 0x2916 JUMP JUMPDEST PUSH1 0x40 MLOAD DUP1 SWAP2 SUB SWAP1 RETURN JUMPDEST PUSH2 0x30B PUSH1 0x4 DUP1 CALLDATASIZE SUB DUP2 ADD SWAP1 PUSH2 0x306 SWAP2 SWAP1 PUSH2 0x2E0A JUMP JUMPDEST PUSH2 0x1BAC JUMP JUMPDEST PUSH1 0x40 MLOAD PUSH2 0x319 SWAP3 SWAP2 SWAP1 PUSH2 0x2C62 JUMP JUMPDEST PUSH1 0x40 MLOAD DUP1 SWAP2 SUB SWAP1 RETURN JUMPDEST PUSH2 0x33C PUSH1 0x4 DUP1 CALLDATASIZE SUB DUP2 ADD SWAP1 PUSH2 0x337 SWAP2 SWAP1 PUSH2 0x289F JUMP JUMPDEST PUSH2 0x1CF9 JUMP JUMPDEST PUSH1 0x40 MLOAD PUSH2 0x349 SWAP2 SWAP1 PUSH2 0x2916 JUMP JUMPDEST PUSH1 0x40 MLOAD DUP1 SWAP2 SUB SWAP1 RETURN JUMPDEST PUSH2 0x36C PUSH1 0x4 DUP1 CALLDATASIZE SUB DUP2 ADD SWAP1 PUSH2 0x367 SWAP2 SWAP1 PUSH2 0x2EE1 JUMP JUMPDEST PUSH2 0x1F8B JUMP JUMPDEST PUSH1 0x40 MLOAD PUSH2 0x37A SWAP3 SWAP2 SWAP1 PUSH2 0x2C62 JUMP JUMPDEST PUSH1 0x40 MLOAD DUP1 SWAP2 SUB SWAP1 RETURN JUMPDEST PUSH2 0x39D PUSH1 0x4 DUP1 CALLDATASIZE SUB DUP2 ADD SWAP1 PUSH2 0x398 SWAP2 SWAP1 PUSH2 0x2F59 JUMP JUMPDEST PUSH2 0x212F JUMP JUMPDEST PUSH1 0x40 MLOAD PUSH2 0x3AA SWAP2 SWAP1 PUSH2 0x2916 JUMP JUMPDEST PUSH1 0x40 MLOAD DUP1 SWAP2 SUB SWAP1 RETURN JUMPDEST PUSH2 0x3CD PUSH1 0x4 DUP1 CALLDATASIZE SUB DUP2 ADD SWAP1 PUSH2 0x3C8 SWAP2 SWAP1 PUSH2 0x2F59 JUMP JUMPDEST PUSH2 0x22C8 JUMP JUMPDEST PUSH1 0x40 MLOAD PUSH2 0x3DA SWAP2 SWAP1 PUSH2 0x2977 JUMP JUMPDEST PUSH1 0x40 MLOAD DUP1 SWAP2 SUB SWAP1 RETURN JUMPDEST PUSH2 0x3FD PUSH1 0x4 DUP1 CALLDATASIZE SUB DUP2 ADD SWAP1 PUSH2 0x3F8 SWAP2 SWAP1 PUSH2 0x289F JUMP JUMPDEST PUSH2 0x22F6 JUMP JUMPDEST PUSH1 0x40 MLOAD PUSH2 0x40A SWAP2 SWAP1 PUSH2 0x2916 JUMP JUMPDEST PUSH1 0x40 MLOAD DUP1 SWAP2 SUB SWAP1 RETURN JUMPDEST PUSH2 0x41B PUSH2 0x2588 JUMP JUMPDEST PUSH1 0x40 MLOAD PUSH2 0x428 SWAP2 SWAP1 PUSH2 0x2977 JUMP JUMPDEST PUSH1 0x40 MLOAD DUP1 SWAP2 SUB SWAP1 RETURN JUMPDEST PUSH1 0x0 PUSH2 0x45A CALLER PUSH1 0x40 MLOAD DUP1 PUSH1 0x60 ADD PUSH1 0x40 MSTORE DUP1 PUSH1 0x21 DUP2 MSTORE PUSH1 0x20 ADD PUSH2 0x3E4A PUSH1 0x21 SWAP2 CODECOPY PUSH1 0x1 DUP1 PUSH1 0x1 PUSH2 0x11C2 JUMP JUMPDEST POP PUSH2 0x46F DUP4 PUSH1 0x3 PUSH2 0x2594 SWAP1 SWAP2 SWAP1 PUSH4 0xFFFFFFFF AND JUMP JUMPDEST ISZERO PUSH2 0x559 JUMPI PUSH1 0x0 DUP1 PUSH1 0x5 PUSH1 0x0 DUP7 PUSH20 0xFFFFFFFFFFFFFFFFFFFFFFFFFFFFFFFFFFFFFFFF AND PUSH20 0xFFFFFFFFFFFFFFFFFFFFFFFFFFFFFFFFFFFFFFFF AND DUP2 MSTORE PUSH1 0x20 ADD SWAP1 DUP2 MSTORE PUSH1 0x20 ADD PUSH1 0x0 KECCAK256 SLOAD DUP2 SLOAD DUP2 LT PUSH2 0x4C8 JUMPI PUSH2 0x4C7 PUSH2 0x2FA2 JUMP JUMPDEST JUMPDEST SWAP1 PUSH1 0x0 MSTORE PUSH1 0x20 PUSH1 0x0 KECCAK256 SWAP1 PUSH1 0x3 MUL ADD SWAP1 POP PUSH20 0x0 PUSH4 0x9D4DAF95 DUP3 DUP6 PUSH1 0x40 MLOAD DUP4 PUSH4 0xFFFFFFFF AND PUSH1 0xE0 SHL DUP2 MSTORE PUSH1 0x4 ADD PUSH2 0x511 SWAP3 SWAP2 SWAP1 PUSH2 0x3057 JUMP JUMPDEST PUSH1 0x20 PUSH1 0x40 MLOAD DUP1 DUP4 SUB DUP2 DUP7 GAS DELEGATECALL ISZERO DUP1 ISZERO PUSH2 0x52E JUMPI RETURNDATASIZE PUSH1 0x0 DUP1 RETURNDATACOPY RETURNDATASIZE PUSH1 0x0 REVERT JUMPDEST POP POP POP POP PUSH1 0x40 MLOAD RETURNDATASIZE PUSH1 0x1F NOT PUSH1 0x1F DUP3 ADD AND DUP3 ADD DUP1 PUSH1 0x40 MSTORE POP DUP2 ADD SWAP1 PUSH2 0x552 SWAP2 SWAP1 PUSH2 0x309C JUMP JUMPDEST POP POP PUSH2 0x69C JUMP JUMPDEST PUSH2 0x56D DUP4 PUSH1 0x3 PUSH2 0x25C4 SWAP1 SWAP2 SWAP1 PUSH4 0xFFFFFFFF AND JUMP JUMPDEST POP PUSH2 0x578 PUSH1 0x3 PUSH2 0x25F4 JUMP JUMPDEST PUSH1 0x5 PUSH1 0x0 DUP6 PUSH20 0xFFFFFFFFFFFFFFFFFFFFFFFFFFFFFFFFFFFFFFFF AND PUSH20 0xFFFFFFFFFFFFFFFFFFFFFFFFFFFFFFFFFFFFFFFF AND DUP2 MSTORE PUSH1 0x20 ADD SWAP1 DUP2 MSTORE PUSH1 0x20 ADD PUSH1 0x0 KECCAK256 DUP2 SWAP1 SSTORE POP PUSH1 0x0 DUP1 PUSH1 0x5 PUSH1 0x0 DUP7 PUSH20 0xFFFFFFFFFFFFFFFFFFFFFFFFFFFFFFFFFFFFFFFF AND PUSH20 0xFFFFFFFFFFFFFFFFFFFFFFFFFFFFFFFFFFFFFFFF AND DUP2 MSTORE PUSH1 0x20 ADD SWAP1 DUP2 MSTORE PUSH1 0x20 ADD PUSH1 0x0 KECCAK256 SLOAD DUP2 SLOAD DUP2 LT PUSH2 0x60F JUMPI PUSH2 0x60E PUSH2 0x2FA2 JUMP JUMPDEST JUMPDEST SWAP1 PUSH1 0x0 MSTORE PUSH1 0x20 PUSH1 0x0 KECCAK256 SWAP1 PUSH1 0x3 MUL ADD SWAP1 POP PUSH20 0x0 PUSH4 0x9D4DAF95 DUP3 DUP6 PUSH1 0x40 MLOAD DUP4 PUSH4 0xFFFFFFFF AND PUSH1 0xE0 SHL DUP2 MSTORE PUSH1 0x4 ADD PUSH2 0x658 SWAP3 SWAP2 SWAP1 PUSH2 0x3057 JUMP JUMPDEST PUSH1 0x20 PUSH1 0x40 MLOAD DUP1 DUP4 SUB DUP2 DUP7 GAS DELEGATECALL ISZERO DUP1 ISZERO PUSH2 0x675 JUMPI RETURNDATASIZE PUSH1 0x0 DUP1 RETURNDATACOPY RETURNDATASIZE PUSH1 0x0 REVERT JUMPDEST POP POP POP POP PUSH1 0x40 MLOAD RETURNDATASIZE PUSH1 0x1F NOT PUSH1 0x1F DUP3 ADD AND DUP3 ADD DUP1 PUSH1 0x40 MSTORE POP DUP2 ADD SWAP1 PUSH2 0x699 SWAP2 SWAP1 PUSH2 0x309C JUMP JUMPDEST POP POP JUMPDEST PUSH1 0x1 SWAP1 POP SWAP3 SWAP2 POP POP JUMP JUMPDEST PUSH1 0x0 PUSH2 0x6CF CALLER PUSH1 0x40 MLOAD DUP1 PUSH1 0x60 ADD PUSH1 0x40 MSTORE DUP1 PUSH1 0x22 DUP2 MSTORE PUSH1 0x20 ADD PUSH2 0x3E28 PUSH1 0x22 SWAP2 CODECOPY PUSH1 0x1 DUP1 PUSH1 0x1 PUSH2 0x11C2 JUMP JUMPDEST POP PUSH2 0x6E4 DUP4 PUSH1 0x3 PUSH2 0x2594 SWAP1 SWAP2 SWAP1 PUSH4 0xFFFFFFFF AND JUMP JUMPDEST ISZERO PUSH2 0x7CE JUMPI PUSH1 0x0 DUP1 PUSH1 0x5 PUSH1 0x0 DUP7 PUSH20 0xFFFFFFFFFFFFFFFFFFFFFFFFFFFFFFFFFFFFFFFF AND PUSH20 0xFFFFFFFFFFFFFFFFFFFFFFFFFFFFFFFFFFFFFFFF AND DUP2 MSTORE PUSH1 0x20 ADD SWAP1 DUP2 MSTORE PUSH1 0x20 ADD PUSH1 0x0 KECCAK256 SLOAD DUP2 SLOAD DUP2 LT PUSH2 0x73D JUMPI PUSH2 0x73C PUSH2 0x2FA2 JUMP JUMPDEST JUMPDEST SWAP1 PUSH1 0x0 MSTORE PUSH1 0x20 PUSH1 0x0 KECCAK256 SWAP1 PUSH1 0x3 MUL ADD SWAP1 POP PUSH20 0x0 PUSH4 0x395B5E5C DUP3 DUP6 PUSH1 0x40 MLOAD DUP4 PUSH4 0xFFFFFFFF AND PUSH1 0xE0 SHL DUP2 MSTORE PUSH1 0x4 ADD PUSH2 0x786 SWAP3 SWAP2 SWAP1 PUSH2 0x3057 JUMP JUMPDEST PUSH1 0x20 PUSH1 0x40 MLOAD DUP1 DUP4 SUB DUP2 DUP7 GAS DELEGATECALL ISZERO DUP1 ISZERO PUSH2 0x7A3 JUMPI RETURNDATASIZE PUSH1 0x0 DUP1 RETURNDATACOPY RETURNDATASIZE PUSH1 0x0 REVERT JUMPDEST POP POP POP POP PUSH1 0x40 MLOAD RETURNDATASIZE PUSH1 0x1F NOT PUSH1 0x1F DUP3 ADD AND DUP3 ADD DUP1 PUSH1 0x40 MSTORE POP DUP2 ADD SWAP1 PUSH2 0x7C7 SWAP2 SWAP1 PUSH2 0x309C JUMP JUMPDEST POP POP PUSH2 0x911 JUMP JUMPDEST PUSH2 0x7E2 DUP4 PUSH1 0x3 PUSH2 0x25C4 SWAP1 SWAP2 SWAP1 PUSH4 0xFFFFFFFF AND JUMP JUMPDEST POP PUSH2 0x7ED PUSH1 0x3 PUSH2 0x25F4 JUMP JUMPDEST PUSH1 0x5 PUSH1 0x0 DUP6 PUSH20 0xFFFFFFFFFFFFFFFFFFFFFFFFFFFFFFFFFFFFFFFF AND PUSH20 0xFFFFFFFFFFFFFFFFFFFFFFFFFFFFFFFFFFFFFFFF AND DUP2 MSTORE PUSH1 0x20 ADD SWAP1 DUP2 MSTORE PUSH1 0x20 ADD PUSH1 0x0 KECCAK256 DUP2 SWAP1 SSTORE POP PUSH1 0x0 DUP1 PUSH1 0x5 PUSH1 0x0 DUP7 PUSH20 0xFFFFFFFFFFFFFFFFFFFFFFFFFFFFFFFFFFFFFFFF AND PUSH20 0xFFFFFFFFFFFFFFFFFFFFFFFFFFFFFFFFFFFFFFFF AND DUP2 MSTORE PUSH1 0x20 ADD SWAP1 DUP2 MSTORE PUSH1 0x20 ADD PUSH1 0x0 KECCAK256 SLOAD DUP2 SLOAD DUP2 LT PUSH2 0x884 JUMPI PUSH2 0x883 PUSH2 0x2FA2 JUMP JUMPDEST JUMPDEST SWAP1 PUSH1 0x0 MSTORE PUSH1 0x20 PUSH1 0x0 KECCAK256 SWAP1 PUSH1 0x3 MUL ADD SWAP1 POP PUSH20 0x0 PUSH4 0x395B5E5C DUP3 DUP6 PUSH1 0x40 MLOAD DUP4 PUSH4 0xFFFFFFFF AND PUSH1 0xE0 SHL DUP2 MSTORE PUSH1 0x4 ADD PUSH2 0x8CD SWAP3 SWAP2 SWAP1 PUSH2 0x3057 JUMP JUMPDEST PUSH1 0x20 PUSH1 0x40 MLOAD DUP1 DUP4 SUB DUP2 DUP7 GAS DELEGATECALL ISZERO DUP1 ISZERO PUSH2 0x8EA JUMPI RETURNDATASIZE PUSH1 0x0 DUP1 RETURNDATACOPY RETURNDATASIZE PUSH1 0x0 REVERT JUMPDEST POP POP POP POP PUSH1 0x40 MLOAD RETURNDATASIZE PUSH1 0x1F NOT PUSH1 0x1F DUP3 ADD AND DUP3 ADD DUP1 PUSH1 0x40 MSTORE POP DUP2 ADD SWAP1 PUSH2 0x90E SWAP2 SWAP1 PUSH2 0x309C JUMP JUMPDEST POP POP JUMPDEST PUSH1 0x1 SWAP1 POP SWAP3 SWAP2 POP POP JUMP JUMPDEST PUSH1 0x0 PUSH2 0x961 CALLER PUSH1 0x40 MLOAD DUP1 PUSH1 0x40 ADD PUSH1 0x40 MSTORE DUP1 PUSH1 0x1E DUP2 MSTORE PUSH1 0x20 ADD PUSH32 0x61757468656E74696361746F722D7265766F6B652D74696D65642D6B65790000 DUP2 MSTORE POP PUSH1 0x1 DUP1 PUSH1 0x1 PUSH2 0x11C2 JUMP JUMPDEST POP PUSH2 0x976 DUP4 PUSH1 0x3 PUSH2 0x2594 SWAP1 SWAP2 SWAP1 PUSH4 0xFFFFFFFF AND JUMP JUMPDEST ISZERO PUSH2 0xA60 JUMPI PUSH1 0x0 DUP1 PUSH1 0x5 PUSH1 0x0 DUP7 PUSH20 0xFFFFFFFFFFFFFFFFFFFFFFFFFFFFFFFFFFFFFFFF AND PUSH20 0xFFFFFFFFFFFFFFFFFFFFFFFFFFFFFFFFFFFFFFFF AND DUP2 MSTORE PUSH1 0x20 ADD SWAP1 DUP2 MSTORE PUSH1 0x20 ADD PUSH1 0x0 KECCAK256 SLOAD DUP2 SLOAD DUP2 LT PUSH2 0x9CF JUMPI PUSH2 0x9CE PUSH2 0x2FA2 JUMP JUMPDEST JUMPDEST SWAP1 PUSH1 0x0 MSTORE PUSH1 0x20 PUSH1 0x0 KECCAK256 SWAP1 PUSH1 0x3 MUL ADD SWAP1 POP PUSH20 0x0 PUSH4 0xB2DF5753 DUP3 DUP6 PUSH1 0x40 MLOAD DUP4 PUSH4 0xFFFFFFFF AND PUSH1 0xE0 SHL DUP2 MSTORE PUSH1 0x4 ADD PUSH2 0xA18 SWAP3 SWAP2 SWAP1 PUSH2 0x3057 JUMP JUMPDEST PUSH1 0x20 PUSH1 0x40 MLOAD DUP1 DUP4 SUB DUP2 DUP7 GAS DELEGATECALL ISZERO DUP1 ISZERO PUSH2 0xA35 JUMPI RETURNDATASIZE PUSH1 0x0 DUP1 RETURNDATACOPY RETURNDATASIZE PUSH1 0x0 REVERT JUMPDEST POP POP POP POP PUSH1 0x40 MLOAD RETURNDATASIZE PUSH1 0x1F NOT PUSH1 0x1F DUP3 ADD AND DUP3 ADD DUP1 PUSH1 0x40 MSTORE POP DUP2 ADD SWAP1 PUSH2 0xA59 SWAP2 SWAP1 PUSH2 0x309C JUMP JUMPDEST POP POP PUSH2 0xBA3 JUMP JUMPDEST PUSH2 0xA74 DUP4 PUSH1 0x3 PUSH2 0x25C4 SWAP1 SWAP2 SWAP1 PUSH4 0xFFFFFFFF AND JUMP JUMPDEST POP PUSH2 0xA7F PUSH1 0x3 PUSH2 0x25F4 JUMP JUMPDEST PUSH1 0x5 PUSH1 0x0 DUP6 PUSH20 0xFFFFFFFFFFFFFFFFFFFFFFFFFFFFFFFFFFFFFFFF AND PUSH20 0xFFFFFFFFFFFFFFFFFFFFFFFFFFFFFFFFFFFFFFFF AND DUP2 MSTORE PUSH1 0x20 ADD SWAP1 DUP2 MSTORE PUSH1 0x20 ADD PUSH1 0x0 KECCAK256 DUP2 SWAP1 SSTORE POP PUSH1 0x0 DUP1 PUSH1 0x5 PUSH1 0x0 DUP7 PUSH20 0xFFFFFFFFFFFFFFFFFFFFFFFFFFFFFFFFFFFFFFFF AND PUSH20 0xFFFFFFFFFFFFFFFFFFFFFFFFFFFFFFFFFFFFFFFF AND DUP2 MSTORE PUSH1 0x20 ADD SWAP1 DUP2 MSTORE PUSH1 0x20 ADD PUSH1 0x0 KECCAK256 SLOAD DUP2 SLOAD DUP2 LT PUSH2 0xB16 JUMPI PUSH2 0xB15 PUSH2 0x2FA2 JUMP JUMPDEST JUMPDEST SWAP1 PUSH1 0x0 MSTORE PUSH1 0x20 PUSH1 0x0 KECCAK256 SWAP1 PUSH1 0x3 MUL ADD SWAP1 POP PUSH20 0x0 PUSH4 0xB2DF5753 DUP3 DUP6 PUSH1 0x40 MLOAD DUP4 PUSH4 0xFFFFFFFF AND PUSH1 0xE0 SHL DUP2 MSTORE PUSH1 0x4 ADD PUSH2 0xB5F SWAP3 SWAP2 SWAP1 PUSH2 0x3057 JUMP JUMPDEST PUSH1 0x20 PUSH1 0x40 MLOAD DUP1 DUP4 SUB DUP2 DUP7 GAS DELEGATECALL ISZERO DUP1 ISZERO PUSH2 0xB7C JUMPI RETURNDATASIZE PUSH1 0x0 DUP1 RETURNDATACOPY RETURNDATASIZE PUSH1 0x0 REVERT JUMPDEST POP POP POP POP PUSH1 0x40 MLOAD RETURNDATASIZE PUSH1 0x1F NOT PUSH1 0x1F DUP3 ADD AND DUP3 ADD DUP1 PUSH1 0x40 MSTORE POP DUP2 ADD SWAP1 PUSH2 0xBA0 SWAP2 SWAP1 PUSH2 0x309C JUMP JUMPDEST POP POP JUMPDEST PUSH1 0x1 SWAP1 POP SWAP3 SWAP2 POP POP JUMP JUMPDEST PUSH1 0x5 PUSH1 0x20 MSTORE DUP1 PUSH1 0x0 MSTORE PUSH1 0x40 PUSH1 0x0 KECCAK256 PUSH1 0x0 SWAP2 POP SWAP1 POP SLOAD DUP2 JUMP JUMPDEST PUSH1 0x0 PUSH2 0xBD0 DUP3 PUSH2 0x2609 JUMP JUMPDEST PUSH2 0xC0F JUMPI PUSH1 0x40 MLOAD PUSH32 0x8C379A000000000000000000000000000000000000000000000000000000000 DUP2 MSTORE PUSH1 0x4 ADD PUSH2 0xC06 SWAP1 PUSH2 0x3172 JUMP JUMPDEST PUSH1 0x40 MLOAD DUP1 SWAP2 SUB SWAP1 REVERT JUMPDEST PUSH2 0xC53 CALLER PUSH1 0x40 MLOAD DUP1 PUSH1 0x40 ADD PUSH1 0x40 MSTORE DUP1 PUSH1 0x1A DUP2 MSTORE PUSH1 0x20 ADD PUSH32 0x61757468656E74696361746F722D6772616E742D62756E646C65000000000000 DUP2 MSTORE POP PUSH1 0x1 DUP1 PUSH1 0x1 PUSH2 0x11C2 JUMP JUMPDEST POP PUSH1 0x0 PUSH2 0xC6A DUP5 PUSH1 0x3 PUSH2 0x2594 SWAP1 SWAP2 SWAP1 PUSH4 0xFFFFFFFF AND JUMP JUMPDEST ISZERO PUSH2 0xD76 JUMPI PUSH1 0x0 DUP1 PUSH1 0x5 PUSH1 0x0 DUP8 PUSH20 0xFFFFFFFFFFFFFFFFFFFFFFFFFFFFFFFFFFFFFFFF AND PUSH20 0xFFFFFFFFFFFFFFFFFFFFFFFFFFFFFFFFFFFFFFFF AND DUP2 MSTORE PUSH1 0x20 ADD SWAP1 DUP2 MSTORE PUSH1 0x20 ADD PUSH1 0x0 KECCAK256 SLOAD DUP2 SLOAD DUP2 LT PUSH2 0xCC3 JUMPI PUSH2 0xCC2 PUSH2 0x2FA2 JUMP JUMPDEST JUMPDEST SWAP1 PUSH1 0x0 MSTORE PUSH1 0x20 PUSH1 0x0 KECCAK256 SWAP1 PUSH1 0x3 MUL ADD SWAP1 POP PUSH20 0x0 PUSH4 0xE0DFA857 DUP3 PUSH1 0x1 PUSH1 0x6 DUP9 PUSH1 0x40 MLOAD PUSH2 0xD00 SWAP2 SWAP1 PUSH2 0x31CE JUMP JUMPDEST SWAP1 DUP2 MSTORE PUSH1 0x20 ADD PUSH1 0x40 MLOAD DUP1 SWAP2 SUB SWAP1 KECCAK256 SLOAD PUSH1 0x40 MLOAD DUP5 PUSH4 0xFFFFFFFF AND PUSH1 0xE0 SHL DUP2 MSTORE PUSH1 0x4 ADD PUSH2 0xD2D SWAP4 SWAP3 SWAP2 SWAP1 PUSH2 0x31FB JUMP JUMPDEST PUSH1 0x20 PUSH1 0x40 MLOAD DUP1 DUP4 SUB DUP2 DUP7 GAS DELEGATECALL ISZERO DUP1 ISZERO PUSH2 0xD4A JUMPI RETURNDATASIZE PUSH1 0x0 DUP1 RETURNDATACOPY RETURNDATASIZE PUSH1 0x0 REVERT JUMPDEST POP POP POP POP PUSH1 0x40 MLOAD RETURNDATASIZE PUSH1 0x1F NOT PUSH1 0x1F DUP3 ADD AND DUP3 ADD DUP1 PUSH1 0x40 MSTORE POP DUP2 ADD SWAP1 PUSH2 0xD6E SWAP2 SWAP1 PUSH2 0x309C JUMP JUMPDEST SWAP2 POP POP PUSH2 0xEDB JUMP JUMPDEST PUSH2 0xD8A DUP5 PUSH1 0x3 PUSH2 0x25C4 SWAP1 SWAP2 SWAP1 PUSH4 0xFFFFFFFF AND JUMP JUMPDEST POP PUSH2 0xD95 PUSH1 0x3 PUSH2 0x25F4 JUMP JUMPDEST PUSH1 0x5 PUSH1 0x0 DUP7 PUSH20 0xFFFFFFFFFFFFFFFFFFFFFFFFFFFFFFFFFFFFFFFF AND PUSH20 0xFFFFFFFFFFFFFFFFFFFFFFFFFFFFFFFFFFFFFFFF AND DUP2 MSTORE PUSH1 0x20 ADD SWAP1 DUP2 MSTORE PUSH1 0x20 ADD PUSH1 0x0 KECCAK256 DUP2 SWAP1 SSTORE POP PUSH1 0x0 DUP1 PUSH1 0x5 PUSH1 0x0 DUP8 PUSH20 0xFFFFFFFFFFFFFFFFFFFFFFFFFFFFFFFFFFFFFFFF AND PUSH20 0xFFFFFFFFFFFFFFFFFFFFFFFFFFFFFFFFFFFFFFFF AND DUP2 MSTORE PUSH1 0x20 ADD SWAP1 DUP2 MSTORE PUSH1 0x20 ADD PUSH1 0x0 KECCAK256 SLOAD DUP2 SLOAD DUP2 LT PUSH2 0xE2C JUMPI PUSH2 0xE2B PUSH2 0x2FA2 JUMP JUMPDEST JUMPDEST SWAP1 PUSH1 0x0 MSTORE PUSH1 0x20 PUSH1 0x0 KECCAK256 SWAP1 PUSH1 0x3 MUL ADD SWAP1 POP PUSH20 0x0 PUSH4 0xE0DFA857 DUP3 PUSH1 0x1 PUSH1 0x6 DUP9 PUSH1 0x40 MLOAD PUSH2 0xE69 SWAP2 SWAP1 PUSH2 0x31CE JUMP JUMPDEST SWAP1 DUP2 MSTORE PUSH1 0x20 ADD PUSH1 0x40 MLOAD DUP1 SWAP2 SUB SWAP1 KECCAK256 SLOAD PUSH1 0x40 MLOAD DUP5 PUSH4 0xFFFFFFFF AND PUSH1 0xE0 SHL DUP2 MSTORE PUSH1 0x4 ADD PUSH2 0xE96 SWAP4 SWAP3 SWAP2 SWAP1 PUSH2 0x31FB JUMP JUMPDEST PUSH1 0x20 PUSH1 0x40 MLOAD DUP1 DUP4 SUB DUP2 DUP7 GAS DELEGATECALL ISZERO DUP1 ISZERO PUSH2 0xEB3 JUMPI RETURNDATASIZE PUSH1 0x0 DUP1 RETURNDATACOPY RETURNDATASIZE PUSH1 0x0 REVERT JUMPDEST POP POP POP POP PUSH1 0x40 MLOAD RETURNDATASIZE PUSH1 0x1F NOT PUSH1 0x1F DUP3 ADD AND DUP3 ADD DUP1 PUSH1 0x40 MSTORE POP DUP2 ADD SWAP1 PUSH2 0xED7 SWAP2 SWAP1 PUSH2 0x309C JUMP JUMPDEST SWAP2 POP POP JUMPDEST DUP1 PUSH2 0xF1B JUMPI PUSH1 0x40 MLOAD PUSH32 0x8C379A000000000000000000000000000000000000000000000000000000000 DUP2 MSTORE PUSH1 0x4 ADD PUSH2 0xF12 SWAP1 PUSH2 0x32CA JUMP JUMPDEST PUSH1 0x40 MLOAD DUP1 SWAP2 SUB SWAP1 REVERT JUMPDEST PUSH1 0x1 SWAP2 POP POP SWAP3 SWAP2 POP POP JUMP JUMPDEST PUSH1 0x0 PUSH2 0xF6C CALLER PUSH1 0x40 MLOAD DUP1 PUSH1 0x40 ADD PUSH1 0x40 MSTORE DUP1 PUSH1 0x1D DUP2 MSTORE PUSH1 0x20 ADD PUSH32 0x61757468656E74696361746F722D6772616E742D74696D65642D6B6579000000 DUP2 MSTORE POP PUSH1 0x1 DUP1 PUSH1 0x1 PUSH2 0x11C2 JUMP JUMPDEST POP PUSH2 0xF81 DUP6 PUSH1 0x3 PUSH2 0x2594 SWAP1 SWAP2 SWAP1 PUSH4 0xFFFFFFFF AND JUMP JUMPDEST ISZERO PUSH2 0x106F JUMPI PUSH1 0x0 DUP1 PUSH1 0x5 PUSH1 0x0 DUP9 PUSH20 0xFFFFFFFFFFFFFFFFFFFFFFFFFFFFFFFFFFFFFFFF AND PUSH20 0xFFFFFFFFFFFFFFFFFFFFFFFFFFFFFFFFFFFFFFFF AND DUP2 MSTORE PUSH1 0x20 ADD SWAP1 DUP2 MSTORE PUSH1 0x20 ADD PUSH1 0x0 KECCAK256 SLOAD DUP2 SLOAD DUP2 LT PUSH2 0xFDA JUMPI PUSH2 0xFD9 PUSH2 0x2FA2 JUMP JUMPDEST JUMPDEST SWAP1 PUSH1 0x0 MSTORE PUSH1 0x20 PUSH1 0x0 KECCAK256 SWAP1 PUSH1 0x3 MUL ADD SWAP1 POP PUSH20 0x0 PUSH4 0x30778E89 DUP3 DUP8 DUP8 DUP8 PUSH1 0x40 MLOAD DUP6 PUSH4 0xFFFFFFFF AND PUSH1 0xE0 SHL DUP2 MSTORE PUSH1 0x4 ADD PUSH2 0x1027 SWAP5 SWAP4 SWAP3 SWAP2 SWAP1 PUSH2 0x32EA JUMP JUMPDEST PUSH1 0x20 PUSH1 0x40 MLOAD DUP1 DUP4 SUB DUP2 DUP7 GAS DELEGATECALL ISZERO DUP1 ISZERO PUSH2 0x1044 JUMPI RETURNDATASIZE PUSH1 0x0 DUP1 RETURNDATACOPY RETURNDATASIZE PUSH1 0x0 REVERT JUMPDEST POP POP POP POP PUSH1 0x40 MLOAD RETURNDATASIZE PUSH1 0x1F NOT PUSH1 0x1F DUP3 ADD AND DUP3 ADD DUP1 PUSH1 0x40 MSTORE POP DUP2 ADD SWAP1 PUSH2 0x1068 SWAP2 SWAP1 PUSH2 0x309C JUMP JUMPDEST POP POP PUSH2 0x11B6 JUMP JUMPDEST PUSH2 0x1083 DUP6 PUSH1 0x3 PUSH2 0x25C4 SWAP1 SWAP2 SWAP1 PUSH4 0xFFFFFFFF AND JUMP JUMPDEST POP PUSH2 0x108E PUSH1 0x3 PUSH2 0x25F4 JUMP JUMPDEST PUSH1 0x5 PUSH1 0x0 DUP8 PUSH20 0xFFFFFFFFFFFFFFFFFFFFFFFFFFFFFFFFFFFFFFFF AND PUSH20 0xFFFFFFFFFFFFFFFFFFFFFFFFFFFFFFFFFFFFFFFF AND DUP2 MSTORE PUSH1 0x20 ADD SWAP1 DUP2 MSTORE PUSH1 0x20 ADD PUSH1 0x0 KECCAK256 DUP2 SWAP1 SSTORE POP PUSH1 0x0 DUP1 PUSH1 0x5 PUSH1 0x0 DUP9 PUSH20 0xFFFFFFFFFFFFFFFFFFFFFFFFFFFFFFFFFFFFFFFF AND PUSH20 0xFFFFFFFFFFFFFFFFFFFFFFFFFFFFFFFFFFFFFFFF AND DUP2 MSTORE PUSH1 0x20 ADD SWAP1 DUP2 MSTORE PUSH1 0x20 ADD PUSH1 0x0 KECCAK256 SLOAD DUP2 SLOAD DUP2 LT PUSH2 0x1125 JUMPI PUSH2 0x1124 PUSH2 0x2FA2 JUMP JUMPDEST JUMPDEST SWAP1 PUSH1 0x0 MSTORE PUSH1 0x20 PUSH1 0x0 KECCAK256 SWAP1 PUSH1 0x3 MUL ADD SWAP1 POP PUSH20 0x0 PUSH4 0x30778E89 DUP3 DUP8 DUP8 DUP8 PUSH1 0x40 MLOAD DUP6 PUSH4 0xFFFFFFFF AND PUSH1 0xE0 SHL DUP2 MSTORE PUSH1 0x4 ADD PUSH2 0x1172 SWAP5 SWAP4 SWAP3 SWAP2 SWAP1 PUSH2 0x32EA JUMP JUMPDEST PUSH1 0x20 PUSH1 0x40 MLOAD DUP1 DUP4 SUB DUP2 DUP7 GAS DELEGATECALL ISZERO DUP1 ISZERO PUSH2 0x118F JUMPI RETURNDATASIZE PUSH1 0x0 DUP1 RETURNDATACOPY RETURNDATASIZE PUSH1 0x0 REVERT JUMPDEST POP POP POP POP PUSH1 0x40 MLOAD RETURNDATASIZE PUSH1 0x1F NOT PUSH1 0x1F DUP3 ADD AND DUP3 ADD DUP1 PUSH1 0x40 MSTORE POP DUP2 ADD SWAP1 PUSH2 0x11B3 SWAP2 SWAP1 PUSH2 0x309C JUMP JUMPDEST POP POP JUMPDEST PUSH1 0x1 SWAP1 POP SWAP5 SWAP4 POP POP POP POP JUMP JUMPDEST PUSH1 0x0 DUP1 PUSH2 0x11D9 DUP8 PUSH1 0x3 PUSH2 0x2594 SWAP1 SWAP2 SWAP1 PUSH4 0xFFFFFFFF AND JUMP JUMPDEST ISZERO PUSH2 0x12CA JUMPI PUSH1 0x0 DUP1 PUSH1 0x5 PUSH1 0x0 DUP11 PUSH20 0xFFFFFFFFFFFFFFFFFFFFFFFFFFFFFFFFFFFFFFFF AND PUSH20 0xFFFFFFFFFFFFFFFFFFFFFFFFFFFFFFFFFFFFFFFF AND DUP2 MSTORE PUSH1 0x20 ADD SWAP1 DUP2 MSTORE PUSH1 0x20 ADD PUSH1 0x0 KECCAK256 SLOAD DUP2 SLOAD DUP2 LT PUSH2 0x1232 JUMPI PUSH2 0x1231 PUSH2 0x2FA2 JUMP JUMPDEST JUMPDEST SWAP1 PUSH1 0x0 MSTORE PUSH1 0x20 PUSH1 0x0 KECCAK256 SWAP1 PUSH1 0x3 MUL ADD SWAP1 POP PUSH20 0x0 PUSH4 0xF168D506 DUP3 DUP10 DUP10 DUP10 DUP10 PUSH1 0x40 MLOAD DUP7 PUSH4 0xFFFFFFFF AND PUSH1 0xE0 SHL DUP2 MSTORE PUSH1 0x4 ADD PUSH2 0x1281 SWAP6 SWAP5 SWAP4 SWAP3 SWAP2 SWAP1 PUSH2 0x3345 JUMP JUMPDEST PUSH1 0x20 PUSH1 0x40 MLOAD DUP1 DUP4 SUB DUP2 DUP7 GAS DELEGATECALL ISZERO DUP1 ISZERO PUSH2 0x129E JUMPI RETURNDATASIZE PUSH1 0x0 DUP1 RETURNDATACOPY RETURNDATASIZE PUSH1 0x0 REVERT JUMPDEST POP POP POP POP PUSH1 0x40 MLOAD RETURNDATASIZE PUSH1 0x1F NOT PUSH1 0x1F DUP3 ADD AND DUP3 ADD DUP1 PUSH1 0x40 MSTORE POP DUP2 ADD SWAP1 PUSH2 0x12C2 SWAP2 SWAP1 PUSH2 0x309C JUMP JUMPDEST SWAP2 POP POP PUSH2 0x1414 JUMP JUMPDEST PUSH2 0x12DE DUP8 PUSH1 0x3 PUSH2 0x25C4 SWAP1 SWAP2 SWAP1 PUSH4 0xFFFFFFFF AND JUMP JUMPDEST POP PUSH2 0x12E9 PUSH1 0x3 PUSH2 0x25F4 JUMP JUMPDEST PUSH1 0x5 PUSH1 0x0 DUP10 PUSH20 0xFFFFFFFFFFFFFFFFFFFFFFFFFFFFFFFFFFFFFFFF AND PUSH20 0xFFFFFFFFFFFFFFFFFFFFFFFFFFFFFFFFFFFFFFFF AND DUP2 MSTORE PUSH1 0x20 ADD SWAP1 DUP2 MSTORE PUSH1 0x20 ADD PUSH1 0x0 KECCAK256 DUP2 SWAP1 SSTORE POP PUSH1 0x0 DUP1 PUSH1 0x5 PUSH1 0x0 DUP11 PUSH20 0xFFFFFFFFFFFFFFFFFFFFFFFFFFFFFFFFFFFFFFFF AND PUSH20 0xFFFFFFFFFFFFFFFFFFFFFFFFFFFFFFFFFFFFFFFF AND DUP2 MSTORE PUSH1 0x20 ADD SWAP1 DUP2 MSTORE PUSH1 0x20 ADD PUSH1 0x0 KECCAK256 SLOAD DUP2 SLOAD DUP2 LT PUSH2 0x1380 JUMPI PUSH2 0x137F PUSH2 0x2FA2 JUMP JUMPDEST JUMPDEST SWAP1 PUSH1 0x0 MSTORE PUSH1 0x20 PUSH1 0x0 KECCAK256 SWAP1 PUSH1 0x3 MUL ADD SWAP1 POP PUSH20 0x0 PUSH4 0xF168D506 DUP3 DUP10 DUP10 DUP10 DUP10 PUSH1 0x40 MLOAD DUP7 PUSH4 0xFFFFFFFF AND PUSH1 0xE0 SHL DUP2 MSTORE PUSH1 0x4 ADD PUSH2 0x13CF SWAP6 SWAP5 SWAP4 SWAP3 SWAP2 SWAP1 PUSH2 0x3345 JUMP JUMPDEST PUSH1 0x20 PUSH1 0x40 MLOAD DUP1 DUP4 SUB DUP2 DUP7 GAS DELEGATECALL ISZERO DUP1 ISZERO PUSH2 0x13EC JUMPI RETURNDATASIZE PUSH1 0x0 DUP1 RETURNDATACOPY RETURNDATASIZE PUSH1 0x0 REVERT JUMPDEST POP POP POP POP PUSH1 0x40 MLOAD RETURNDATASIZE PUSH1 0x1F NOT PUSH1 0x1F DUP3 ADD AND DUP3 ADD DUP1 PUSH1 0x40 MSTORE POP DUP2 ADD SWAP1 PUSH2 0x1410 SWAP2 SWAP1 PUSH2 0x309C JUMP JUMPDEST SWAP2 POP POP JUMPDEST DUP1 SWAP2 POP POP SWAP6 SWAP5 POP POP POP POP POP JUMP JUMPDEST PUSH1 0x0 DUP1 PUSH2 0x1438 DUP5 PUSH1 0x3 PUSH2 0x2594 SWAP1 SWAP2 SWAP1 PUSH4 0xFFFFFFFF AND JUMP JUMPDEST ISZERO PUSH2 0x1523 JUMPI PUSH1 0x0 DUP1 PUSH1 0x5 PUSH1 0x0 DUP8 PUSH20 0xFFFFFFFFFFFFFFFFFFFFFFFFFFFFFFFFFFFFFFFF AND PUSH20 0xFFFFFFFFFFFFFFFFFFFFFFFFFFFFFFFFFFFFFFFF AND DUP2 MSTORE PUSH1 0x20 ADD SWAP1 DUP2 MSTORE PUSH1 0x20 ADD PUSH1 0x0 KECCAK256 SLOAD DUP2 SLOAD DUP2 LT PUSH2 0x1491 JUMPI PUSH2 0x1490 PUSH2 0x2FA2 JUMP JUMPDEST JUMPDEST SWAP1 PUSH1 0x0 MSTORE PUSH1 0x20 PUSH1 0x0 KECCAK256 SWAP1 PUSH1 0x3 MUL ADD SWAP1 POP PUSH20 0x0 PUSH4 0xA49C721F DUP3 DUP7 PUSH1 0x40 MLOAD DUP4 PUSH4 0xFFFFFFFF AND PUSH1 0xE0 SHL DUP2 MSTORE PUSH1 0x4 ADD PUSH2 0x14DA SWAP3 SWAP2 SWAP1 PUSH2 0x3057 JUMP JUMPDEST PUSH1 0x20 PUSH1 0x40 MLOAD DUP1 DUP4 SUB DUP2 DUP7 GAS DELEGATECALL ISZERO DUP1 ISZERO PUSH2 0x14F7 JUMPI RETURNDATASIZE PUSH1 0x0 DUP1 RETURNDATACOPY RETURNDATASIZE PUSH1 0x0 REVERT JUMPDEST POP POP POP POP PUSH1 0x40 MLOAD RETURNDATASIZE PUSH1 0x1F NOT PUSH1 0x1F DUP3 ADD AND DUP3 ADD DUP1 PUSH1 0x40 MSTORE POP DUP2 ADD SWAP1 PUSH2 0x151B SWAP2 SWAP1 PUSH2 0x309C JUMP JUMPDEST SWAP2 POP POP PUSH2 0x1667 JUMP JUMPDEST PUSH2 0x1537 DUP5 PUSH1 0x3 PUSH2 0x25C4 SWAP1 SWAP2 SWAP1 PUSH4 0xFFFFFFFF AND JUMP JUMPDEST POP PUSH2 0x1542 PUSH1 0x3 PUSH2 0x25F4 JUMP JUMPDEST PUSH1 0x5 PUSH1 0x0 DUP7 PUSH20 0xFFFFFFFFFFFFFFFFFFFFFFFFFFFFFFFFFFFFFFFF AND PUSH20 0xFFFFFFFFFFFFFFFFFFFFFFFFFFFFFFFFFFFFFFFF AND DUP2 MSTORE PUSH1 0x20 ADD SWAP1 DUP2 MSTORE PUSH1 0x20 ADD PUSH1 0x0 KECCAK256 DUP2 SWAP1 SSTORE POP PUSH1 0x0 DUP1 PUSH1 0x5 PUSH1 0x0 DUP8 PUSH20 0xFFFFFFFFFFFFFFFFFFFFFFFFFFFFFFFFFFFFFFFF AND PUSH20 0xFFFFFFFFFFFFFFFFFFFFFFFFFFFFFFFFFFFFFFFF AND DUP2 MSTORE PUSH1 0x20 ADD SWAP1 DUP2 MSTORE PUSH1 0x20 ADD PUSH1 0x0 KECCAK256 SLOAD DUP2 SLOAD DUP2 LT PUSH2 0x15D9 JUMPI PUSH2 0x15D8 PUSH2 0x2FA2 JUMP JUMPDEST JUMPDEST SWAP1 PUSH1 0x0 MSTORE PUSH1 0x20 PUSH1 0x0 KECCAK256 SWAP1 PUSH1 0x3 MUL ADD SWAP1 POP PUSH20 0x0 PUSH4 0xA49C721F DUP3 DUP7 PUSH1 0x40 MLOAD DUP4 PUSH4 0xFFFFFFFF AND PUSH1 0xE0 SHL DUP2 MSTORE PUSH1 0x4 ADD PUSH2 0x1622 SWAP3 SWAP2 SWAP1 PUSH2 0x3057 JUMP JUMPDEST PUSH1 0x20 PUSH1 0x40 MLOAD DUP1 DUP4 SUB DUP2 DUP7 GAS DELEGATECALL ISZERO DUP1 ISZERO PUSH2 0x163F JUMPI RETURNDATASIZE PUSH1 0x0 DUP1 RETURNDATACOPY RETURNDATASIZE PUSH1 0x0 REVERT JUMPDEST POP POP POP POP PUSH1 0x40 MLOAD RETURNDATASIZE PUSH1 0x1F NOT PUSH1 0x1F DUP3 ADD AND DUP3 ADD DUP1 PUSH1 0x40 MSTORE POP DUP2 ADD SWAP1 PUSH2 0x1663 SWAP2 SWAP1 PUSH2 0x309C JUMP JUMPDEST SWAP2 POP POP JUMPDEST DUP1 SWAP2 POP POP SWAP3 SWAP2 POP POP JUMP JUMPDEST PUSH1 0x0 DUP1 PUSH1 0x60 PUSH1 0x0 JUMPDEST DUP6 MLOAD DUP2 LT ISZERO PUSH2 0x174F JUMPI PUSH2 0x16A5 DUP7 DUP3 DUP2 MLOAD DUP2 LT PUSH2 0x1698 JUMPI PUSH2 0x1697 PUSH2 0x2FA2 JUMP JUMPDEST JUMPDEST PUSH1 0x20 MUL PUSH1 0x20 ADD ADD MLOAD PUSH2 0x2609 JUMP JUMPDEST PUSH2 0x16E4 JUMPI PUSH1 0x40 MLOAD PUSH32 0x8C379A000000000000000000000000000000000000000000000000000000000 DUP2 MSTORE PUSH1 0x4 ADD PUSH2 0x16DB SWAP1 PUSH2 0x3437 JUMP JUMPDEST PUSH1 0x40 MLOAD DUP1 SWAP2 SUB SWAP1 REVERT JUMPDEST PUSH1 0x6 DUP7 DUP3 DUP2 MLOAD DUP2 LT PUSH2 0x16F9 JUMPI PUSH2 0x16F8 PUSH2 0x2FA2 JUMP JUMPDEST JUMPDEST PUSH1 0x20 MUL PUSH1 0x20 ADD ADD MLOAD PUSH1 0x40 MLOAD PUSH2 0x170E SWAP2 SWAP1 PUSH2 0x31CE JUMP JUMPDEST SWAP1 DUP2 MSTORE PUSH1 0x20 ADD PUSH1 0x40 MLOAD DUP1 SWAP2 SUB SWAP1 KECCAK256 SLOAD DUP3 DUP3 DUP2 MLOAD DUP2 LT PUSH2 0x1730 JUMPI PUSH2 0x172F PUSH2 0x2FA2 JUMP JUMPDEST JUMPDEST PUSH1 0x20 MUL PUSH1 0x20 ADD ADD DUP2 DUP2 MSTORE POP POP DUP1 DUP1 PUSH2 0x1747 SWAP1 PUSH2 0x3486 JUMP JUMPDEST SWAP2 POP POP PUSH2 0x1679 JUMP JUMPDEST POP PUSH2 0x1794 CALLER PUSH1 0x40 MLOAD DUP1 PUSH1 0x40 ADD PUSH1 0x40 MSTORE DUP1 PUSH1 0x1B DUP2 MSTORE PUSH1 0x20 ADD PUSH32 0x61757468656E74696361746F722D6D657267652D62756E646C65730000000000 DUP2 MSTORE POP PUSH1 0x1 DUP1 PUSH1 0x1 PUSH2 0x11C2 JUMP JUMPDEST POP PUSH1 0x0 DUP1 PUSH20 0x0 PUSH4 0x53DAF356 DUP5 PUSH1 0x1 PUSH1 0x2 PUSH1 0x40 MLOAD DUP5 PUSH4 0xFFFFFFFF AND PUSH1 0xE0 SHL DUP2 MSTORE PUSH1 0x4 ADD PUSH2 0x17D5 SWAP4 SWAP3 SWAP2 SWAP1 PUSH2 0x3593 JUMP JUMPDEST PUSH1 0x40 DUP1 MLOAD DUP1 DUP4 SUB DUP2 DUP7 GAS DELEGATECALL ISZERO DUP1 ISZERO PUSH2 0x17F1 JUMPI RETURNDATASIZE PUSH1 0x0 DUP1 RETURNDATACOPY RETURNDATASIZE PUSH1 0x0 REVERT JUMPDEST POP POP POP POP PUSH1 0x40 MLOAD RETURNDATASIZE PUSH1 0x1F NOT PUSH1 0x1F DUP3 ADD AND DUP3 ADD DUP1 PUSH1 0x40 MSTORE POP DUP2 ADD SWAP1 PUSH2 0x1815 SWAP2 SWAP1 PUSH2 0x35E6 JUMP JUMPDEST SWAP2 POP SWAP2 POP DUP2 PUSH2 0x1859 JUMPI PUSH1 0x40 MLOAD PUSH32 0x8C379A000000000000000000000000000000000000000000000000000000000 DUP2 MSTORE PUSH1 0x4 ADD PUSH2 0x1850 SWAP1 PUSH2 0x36BE JUMP JUMPDEST PUSH1 0x40 MLOAD DUP1 SWAP2 SUB SWAP1 REVERT JUMPDEST DUP1 PUSH1 0x6 DUP8 PUSH1 0x40 MLOAD PUSH2 0x186A SWAP2 SWAP1 PUSH2 0x31CE JUMP JUMPDEST SWAP1 DUP2 MSTORE PUSH1 0x20 ADD PUSH1 0x40 MLOAD DUP1 SWAP2 SUB SWAP1 KECCAK256 DUP2 SWAP1 SSTORE POP DUP2 DUP2 SWAP5 POP SWAP5 POP POP POP POP SWAP3 POP SWAP3 SWAP1 POP JUMP JUMPDEST PUSH1 0x0 PUSH2 0x1897 DUP3 PUSH2 0x2609 JUMP JUMPDEST PUSH2 0x18D6 JUMPI PUSH1 0x40 MLOAD PUSH32 0x8C379A000000000000000000000000000000000000000000000000000000000 DUP2 MSTORE PUSH1 0x4 ADD PUSH2 0x18CD SWAP1 PUSH2 0x3776 JUMP JUMPDEST PUSH1 0x40 MLOAD DUP1 SWAP2 SUB SWAP1 REVERT JUMPDEST PUSH2 0x191A CALLER PUSH1 0x40 MLOAD DUP1 PUSH1 0x40 ADD PUSH1 0x40 MSTORE DUP1 PUSH1 0x1B DUP2 MSTORE PUSH1 0x20 ADD PUSH32 0x61757468656E74696361746F722D7265766F6B652D62756E646C650000000000 DUP2 MSTORE POP PUSH1 0x1 DUP1 PUSH1 0x1 PUSH2 0x11C2 JUMP JUMPDEST POP PUSH1 0x0 PUSH2 0x1931 DUP5 PUSH1 0x3 PUSH2 0x2594 SWAP1 SWAP2 SWAP1 PUSH4 0xFFFFFFFF AND JUMP JUMPDEST ISZERO PUSH2 0x1A3D JUMPI PUSH1 0x0 DUP1 PUSH1 0x5 PUSH1 0x0 DUP8 PUSH20 0xFFFFFFFFFFFFFFFFFFFFFFFFFFFFFFFFFFFFFFFF AND PUSH20 0xFFFFFFFFFFFFFFFFFFFFFFFFFFFFFFFFFFFFFFFF AND DUP2 MSTORE PUSH1 0x20 ADD SWAP1 DUP2 MSTORE PUSH1 0x20 ADD PUSH1 0x0 KECCAK256 SLOAD DUP2 SLOAD DUP2 LT PUSH2 0x198A JUMPI PUSH2 0x1989 PUSH2 0x2FA2 JUMP JUMPDEST JUMPDEST SWAP1 PUSH1 0x0 MSTORE PUSH1 0x20 PUSH1 0x0 KECCAK256 SWAP1 PUSH1 0x3 MUL ADD SWAP1 POP PUSH20 0x0 PUSH4 0x2F735E4E DUP3 PUSH1 0x1 PUSH1 0x6 DUP9 PUSH1 0x40 MLOAD PUSH2 0x19C7 SWAP2 SWAP1 PUSH2 0x31CE JUMP JUMPDEST SWAP1 DUP2 MSTORE PUSH1 0x20 ADD PUSH1 0x40 MLOAD DUP1 SWAP2 SUB SWAP1 KECCAK256 SLOAD PUSH1 0x40 MLOAD DUP5 PUSH4 0xFFFFFFFF AND PUSH1 0xE0 SHL DUP2 MSTORE PUSH1 0x4 ADD PUSH2 0x19F4 SWAP4 SWAP3 SWAP2 SWAP1 PUSH2 0x31FB JUMP JUMPDEST PUSH1 0x20 PUSH1 0x40 MLOAD DUP1 DUP4 SUB DUP2 DUP7 GAS DELEGATECALL ISZERO DUP1 ISZERO PUSH2 0x1A11 JUMPI RETURNDATASIZE PUSH1 0x0 DUP1 RETURNDATACOPY RETURNDATASIZE PUSH1 0x0 REVERT JUMPDEST POP POP POP POP PUSH1 0x40 MLOAD RETURNDATASIZE PUSH1 0x1F NOT PUSH1 0x1F DUP3 ADD AND DUP3 ADD DUP1 PUSH1 0x40 MSTORE POP DUP2 ADD SWAP1 PUSH2 0x1A35 SWAP2 SWAP1 PUSH2 0x309C JUMP JUMPDEST SWAP2 POP POP PUSH2 0x1BA2 JUMP JUMPDEST PUSH2 0x1A51 DUP5 PUSH1 0x3 PUSH2 0x25C4 SWAP1 SWAP2 SWAP1 PUSH4 0xFFFFFFFF AND JUMP JUMPDEST POP PUSH2 0x1A5C PUSH1 0x3 PUSH2 0x25F4 JUMP JUMPDEST PUSH1 0x5 PUSH1 0x0 DUP7 PUSH20 0xFFFFFFFFFFFFFFFFFFFFFFFFFFFFFFFFFFFFFFFF AND PUSH20 0xFFFFFFFFFFFFFFFFFFFFFFFFFFFFFFFFFFFFFFFF AND DUP2 MSTORE PUSH1 0x20 ADD SWAP1 DUP2 MSTORE PUSH1 0x20 ADD PUSH1 0x0 KECCAK256 DUP2 SWAP1 SSTORE POP PUSH1 0x0 DUP1 PUSH1 0x5 PUSH1 0x0 DUP8 PUSH20 0xFFFFFFFFFFFFFFFFFFFFFFFFFFFFFFFFFFFFFFFF AND PUSH20 0xFFFFFFFFFFFFFFFFFFFFFFFFFFFFFFFFFFFFFFFF AND DUP2 MSTORE PUSH1 0x20 ADD SWAP1 DUP2 MSTORE PUSH1 0x20 ADD PUSH1 0x0 KECCAK256 SLOAD DUP2 SLOAD DUP2 LT PUSH2 0x1AF3 JUMPI PUSH2 0x1AF2 PUSH2 0x2FA2 JUMP JUMPDEST JUMPDEST SWAP1 PUSH1 0x0 MSTORE PUSH1 0x20 PUSH1 0x0 KECCAK256 SWAP1 PUSH1 0x3 MUL ADD SWAP1 POP PUSH20 0x0 PUSH4 0x2F735E4E DUP3 PUSH1 0x1 PUSH1 0x6 DUP9 PUSH1 0x40 MLOAD PUSH2 0x1B30 SWAP2 SWAP1 PUSH2 0x31CE JUMP JUMPDEST SWAP1 DUP2 MSTORE PUSH1 0x20 ADD PUSH1 0x40 MLOAD DUP1 SWAP2 SUB SWAP1 KECCAK256 SLOAD PUSH1 0x40 MLOAD DUP5 PUSH4 0xFFFFFFFF AND PUSH1 0xE0 SHL DUP2 MSTORE PUSH1 0x4 ADD PUSH2 0x1B5D SWAP4 SWAP3 SWAP2 SWAP1 PUSH2 0x31FB JUMP JUMPDEST PUSH1 0x20 PUSH1 0x40 MLOAD DUP1 DUP4 SUB DUP2 DUP7 GAS DELEGATECALL ISZERO DUP1 ISZERO PUSH2 0x1B7A JUMPI RETURNDATASIZE PUSH1 0x0 DUP1 RETURNDATACOPY RETURNDATASIZE PUSH1 0x0 REVERT JUMPDEST POP POP POP POP PUSH1 0x40 MLOAD RETURNDATASIZE PUSH1 0x1F NOT PUSH1 0x1F DUP3 ADD AND DUP3 ADD DUP1 PUSH1 0x40 MSTORE POP DUP2 ADD SWAP1 PUSH2 0x1B9E SWAP2 SWAP1 PUSH2 0x309C JUMP JUMPDEST SWAP2 POP POP JUMPDEST DUP1 SWAP2 POP POP SWAP3 SWAP2 POP POP JUMP JUMPDEST PUSH1 0x0 DUP1 PUSH2 0x1BB8 DUP7 PUSH2 0x2609 JUMP JUMPDEST ISZERO PUSH2 0x1BF8 JUMPI PUSH1 0x40 MLOAD PUSH32 0x8C379A000000000000000000000000000000000000000000000000000000000 DUP2 MSTORE PUSH1 0x4 ADD PUSH2 0x1BEF SWAP1 PUSH2 0x382E JUMP JUMPDEST PUSH1 0x40 MLOAD DUP1 SWAP2 SUB SWAP1 REVERT JUMPDEST PUSH2 0x1C3C CALLER PUSH1 0x40 MLOAD DUP1 PUSH1 0x40 ADD PUSH1 0x40 MSTORE DUP1 PUSH1 0x1B DUP2 MSTORE PUSH1 0x20 ADD PUSH32 0x61757468656E74696361746F722D6372656174652D62756E646C650000000000 DUP2 MSTORE POP PUSH1 0x1 DUP1 PUSH1 0x1 PUSH2 0x11C2 JUMP JUMPDEST POP PUSH1 0x0 DUP1 PUSH20 0x0 PUSH4 0xDA55DE94 PUSH1 0x1 PUSH1 0x2 DUP11 DUP11 DUP11 PUSH1 0x40 MLOAD DUP7 PUSH4 0xFFFFFFFF AND PUSH1 0xE0 SHL DUP2 MSTORE PUSH1 0x4 ADD PUSH2 0x1C81 SWAP6 SWAP5 SWAP4 SWAP3 SWAP2 SWAP1 PUSH2 0x3A7F JUMP JUMPDEST PUSH1 0x40 DUP1 MLOAD DUP1 DUP4 SUB DUP2 DUP7 GAS DELEGATECALL ISZERO DUP1 ISZERO PUSH2 0x1C9D JUMPI RETURNDATASIZE PUSH1 0x0 DUP1 RETURNDATACOPY RETURNDATASIZE PUSH1 0x0 REVERT JUMPDEST POP POP POP POP PUSH1 0x40 MLOAD RETURNDATASIZE PUSH1 0x1F NOT PUSH1 0x1F DUP3 ADD AND DUP3 ADD DUP1 PUSH1 0x40 MSTORE POP DUP2 ADD SWAP1 PUSH2 0x1CC1 SWAP2 SWAP1 PUSH2 0x35E6 JUMP JUMPDEST SWAP2 POP SWAP2 POP DUP1 PUSH1 0x6 DUP10 PUSH1 0x40 MLOAD PUSH2 0x1CD6 SWAP2 SWAP1 PUSH2 0x31CE JUMP JUMPDEST SWAP1 DUP2 MSTORE PUSH1 0x20 ADD PUSH1 0x40 MLOAD DUP1 SWAP2 SUB SWAP1 KECCAK256 DUP2 SWAP1 SSTORE POP DUP2 DUP2 SWAP4 POP SWAP4 POP POP POP SWAP5 POP SWAP5 SWAP3 POP POP POP JUMP JUMPDEST PUSH1 0x0 PUSH2 0x1D3F CALLER PUSH1 0x40 MLOAD DUP1 PUSH1 0x40 ADD PUSH1 0x40 MSTORE DUP1 PUSH1 0x15 DUP2 MSTORE PUSH1 0x20 ADD PUSH32 0x61757468656E74696361746F722D636F6E73756D650000000000000000000000 DUP2 MSTORE POP PUSH1 0x1 DUP1 PUSH1 0x1 PUSH2 0x11C2 JUMP JUMPDEST POP PUSH2 0x1D54 DUP4 PUSH1 0x3 PUSH2 0x2594 SWAP1 SWAP2 SWAP1 PUSH4 0xFFFFFFFF AND JUMP JUMPDEST ISZERO PUSH2 0x1E3E JUMPI PUSH1 0x0 DUP1 PUSH1 0x5 PUSH1 0x0 DUP7 PUSH20 0xFFFFFFFFFFFFFFFFFFFFFFFFFFFFFFFFFFFFFFFF AND PUSH20 0xFFFFFFFFFFFFFFFFFFFFFFFFFFFFFFFFFFFFFFFF AND DUP2 MSTORE PUSH1 0x20 ADD SWAP1 DUP2 MSTORE PUSH1 0x20 ADD PUSH1 0x0 KECCAK256 SLOAD DUP2 SLOAD DUP2 LT PUSH2 0x1DAD JUMPI PUSH2 0x1DAC PUSH2 0x2FA2 JUMP JUMPDEST JUMPDEST SWAP1 PUSH1 0x0 MSTORE PUSH1 0x20 PUSH1 0x0 KECCAK256 SWAP1 PUSH1 0x3 MUL ADD SWAP1 POP PUSH20 0x0 PUSH4 0x502DE0EE DUP3 DUP6 PUSH1 0x40 MLOAD DUP4 PUSH4 0xFFFFFFFF AND PUSH1 0xE0 SHL DUP2 MSTORE PUSH1 0x4 ADD PUSH2 0x1DF6 SWAP3 SWAP2 SWAP1 PUSH2 0x3057 JUMP JUMPDEST PUSH1 0x20 PUSH1 0x40 MLOAD DUP1 DUP4 SUB DUP2 DUP7 GAS DELEGATECALL ISZERO DUP1 ISZERO PUSH2 0x1E13 JUMPI RETURNDATASIZE PUSH1 0x0 DUP1 RETURNDATACOPY RETURNDATASIZE PUSH1 0x0 REVERT JUMPDEST POP POP POP POP PUSH1 0x40 MLOAD RETURNDATASIZE PUSH1 0x1F NOT PUSH1 0x1F DUP3 ADD AND DUP3 ADD DUP1 PUSH1 0x40 MSTORE POP DUP2 ADD SWAP1 PUSH2 0x1E37 SWAP2 SWAP1 PUSH2 0x309C JUMP JUMPDEST POP POP PUSH2 0x1F81 JUMP JUMPDEST PUSH2 0x1E52 DUP4 PUSH1 0x3 PUSH2 0x25C4 SWAP1 SWAP2 SWAP1 PUSH4 0xFFFFFFFF AND JUMP JUMPDEST POP PUSH2 0x1E5D PUSH1 0x3 PUSH2 0x25F4 JUMP JUMPDEST PUSH1 0x5 PUSH1 0x0 DUP6 PUSH20 0xFFFFFFFFFFFFFFFFFFFFFFFFFFFFFFFFFFFFFFFF AND PUSH20 0xFFFFFFFFFFFFFFFFFFFFFFFFFFFFFFFFFFFFFFFF AND DUP2 MSTORE PUSH1 0x20 ADD SWAP1 DUP2 MSTORE PUSH1 0x20 ADD PUSH1 0x0 KECCAK256 DUP2 SWAP1 SSTORE POP PUSH1 0x0 DUP1 PUSH1 0x5 PUSH1 0x0 DUP7 PUSH20 0xFFFFFFFFFFFFFFFFFFFFFFFFFFFFFFFFFFFFFFFF AND PUSH20 0xFFFFFFFFFFFFFFFFFFFFFFFFFFFFFFFFFFFFFFFF AND DUP2 MSTORE PUSH1 0x20 ADD SWAP1 DUP2 MSTORE PUSH1 0x20 ADD PUSH1 0x0 KECCAK256 SLOAD DUP2 SLOAD DUP2 LT PUSH2 0x1EF4 JUMPI PUSH2 0x1EF3 PUSH2 0x2FA2 JUMP JUMPDEST JUMPDEST SWAP1 PUSH1 0x0 MSTORE PUSH1 0x20 PUSH1 0x0 KECCAK256 SWAP1 PUSH1 0x3 MUL ADD SWAP1 POP PUSH20 0x0 PUSH4 0x502DE0EE DUP3 DUP6 PUSH1 0x40 MLOAD DUP4 PUSH4 0xFFFFFFFF AND PUSH1 0xE0 SHL DUP2 MSTORE PUSH1 0x4 ADD PUSH2 0x1F3D SWAP3 SWAP2 SWAP1 PUSH2 0x3057 JUMP JUMPDEST PUSH1 0x20 PUSH1 0x40 MLOAD DUP1 DUP4 SUB DUP2 DUP7 GAS DELEGATECALL ISZERO DUP1 ISZERO PUSH2 0x1F5A JUMPI RETURNDATASIZE PUSH1 0x0 DUP1 RETURNDATACOPY RETURNDATASIZE PUSH1 0x0 REVERT JUMPDEST POP POP POP POP PUSH1 0x40 MLOAD RETURNDATASIZE PUSH1 0x1F NOT PUSH1 0x1F DUP3 ADD AND DUP3 ADD DUP1 PUSH1 0x40 MSTORE POP DUP2 ADD SWAP1 PUSH2 0x1F7E SWAP2 SWAP1 PUSH2 0x309C JUMP JUMPDEST POP POP JUMPDEST PUSH1 0x1 SWAP1 POP SWAP3 SWAP2 POP POP JUMP JUMPDEST PUSH1 0x0 DUP1 PUSH2 0x1F97 DUP5 PUSH2 0x2609 JUMP JUMPDEST PUSH2 0x1FD6 JUMPI PUSH1 0x40 MLOAD PUSH32 0x8C379A000000000000000000000000000000000000000000000000000000000 DUP2 MSTORE PUSH1 0x4 ADD PUSH2 0x1FCD SWAP1 PUSH2 0x3B7F JUMP JUMPDEST PUSH1 0x40 MLOAD DUP1 SWAP2 SUB SWAP1 REVERT JUMPDEST PUSH2 0x201A CALLER PUSH1 0x40 MLOAD DUP1 PUSH1 0x40 ADD PUSH1 0x40 MSTORE DUP1 PUSH1 0x19 DUP2 MSTORE PUSH1 0x20 ADD PUSH32 0x61757468656E74696361746F722D636F70792D62756E646C6500000000000000 DUP2 MSTORE POP PUSH1 0x1 DUP1 PUSH1 0x1 PUSH2 0x11C2 JUMP JUMPDEST POP PUSH1 0x0 DUP1 PUSH20 0x0 PUSH4 0x71EE601E PUSH1 0x6 DUP9 PUSH1 0x40 MLOAD PUSH2 0x2048 SWAP2 SWAP1 PUSH2 0x31CE JUMP JUMPDEST SWAP1 DUP2 MSTORE PUSH1 0x20 ADD PUSH1 0x40 MLOAD DUP1 SWAP2 SUB SWAP1 KECCAK256 SLOAD PUSH1 0x1 PUSH1 0x2 PUSH1 0x40 MLOAD DUP5 PUSH4 0xFFFFFFFF AND PUSH1 0xE0 SHL DUP2 MSTORE PUSH1 0x4 ADD PUSH2 0x2079 SWAP4 SWAP3 SWAP2 SWAP1 PUSH2 0x3B9F JUMP JUMPDEST PUSH1 0x40 DUP1 MLOAD DUP1 DUP4 SUB DUP2 DUP7 GAS DELEGATECALL ISZERO DUP1 ISZERO PUSH2 0x2095 JUMPI RETURNDATASIZE PUSH1 0x0 DUP1 RETURNDATACOPY RETURNDATASIZE PUSH1 0x0 REVERT JUMPDEST POP POP POP POP PUSH1 0x40 MLOAD RETURNDATASIZE PUSH1 0x1F NOT PUSH1 0x1F DUP3 ADD AND DUP3 ADD DUP1 PUSH1 0x40 MSTORE POP DUP2 ADD SWAP1 PUSH2 0x20B9 SWAP2 SWAP1 PUSH2 0x35E6 JUMP JUMPDEST SWAP2 POP SWAP2 POP DUP2 PUSH2 0x20FD JUMPI PUSH1 0x40 MLOAD PUSH32 0x8C379A000000000000000000000000000000000000000000000000000000000 DUP2 MSTORE PUSH1 0x4 ADD PUSH2 0x20F4 SWAP1 PUSH2 0x3C6E JUMP JUMPDEST PUSH1 0x40 MLOAD DUP1 SWAP2 SUB SWAP1 REVERT JUMPDEST DUP1 PUSH1 0x6 DUP7 PUSH1 0x40 MLOAD PUSH2 0x210E SWAP2 SWAP1 PUSH2 0x31CE JUMP JUMPDEST SWAP1 DUP2 MSTORE PUSH1 0x20 ADD PUSH1 0x40 MLOAD DUP1 SWAP2 SUB SWAP1 KECCAK256 DUP2 SWAP1 SSTORE POP DUP2 DUP2 SWAP4 POP SWAP4 POP POP POP SWAP3 POP SWAP3 SWAP1 POP JUMP JUMPDEST PUSH1 0x0 PUSH2 0x213A DUP3 PUSH2 0x2609 JUMP JUMPDEST PUSH2 0x2179 JUMPI PUSH1 0x40 MLOAD PUSH32 0x8C379A000000000000000000000000000000000000000000000000000000000 DUP2 MSTORE PUSH1 0x4 ADD PUSH2 0x2170 SWAP1 PUSH2 0x3D26 JUMP JUMPDEST PUSH1 0x40 MLOAD DUP1 SWAP2 SUB SWAP1 REVERT JUMPDEST PUSH2 0x21BD CALLER PUSH1 0x40 MLOAD DUP1 PUSH1 0x40 ADD PUSH1 0x40 MSTORE DUP1 PUSH1 0x1B DUP2 MSTORE PUSH1 0x20 ADD PUSH32 0x61757468656E74696361746F722D64656C6574652D62756E646C650000000000 DUP2 MSTORE POP PUSH1 0x1 DUP1 PUSH1 0x1 PUSH2 0x11C2 JUMP JUMPDEST POP PUSH1 0x0 PUSH20 0x0 PUSH4 0xCFA098E PUSH1 0x1 PUSH1 0x6 DUP7 PUSH1 0x40 MLOAD PUSH2 0x21EC SWAP2 SWAP1 PUSH2 0x31CE JUMP JUMPDEST SWAP1 DUP2 MSTORE PUSH1 0x20 ADD PUSH1 0x40 MLOAD DUP1 SWAP2 SUB SWAP1 KECCAK256 SLOAD PUSH1 0x40 MLOAD DUP4 PUSH4 0xFFFFFFFF AND PUSH1 0xE0 SHL DUP2 MSTORE PUSH1 0x4 ADD PUSH2 0x2218 SWAP3 SWAP2 SWAP1 PUSH2 0x3D46 JUMP JUMPDEST PUSH1 0x20 PUSH1 0x40 MLOAD DUP1 DUP4 SUB DUP2 DUP7 GAS DELEGATECALL ISZERO DUP1 ISZERO PUSH2 0x2235 JUMPI RETURNDATASIZE PUSH1 0x0 DUP1 RETURNDATACOPY RETURNDATASIZE PUSH1 0x0 REVERT JUMPDEST POP POP POP POP PUSH1 0x40 MLOAD RETURNDATASIZE PUSH1 0x1F NOT PUSH1 0x1F DUP3 ADD AND DUP3 ADD DUP1 PUSH1 0x40 MSTORE POP DUP2 ADD SWAP1 PUSH2 0x2259 SWAP2 SWAP1 PUSH2 0x309C JUMP JUMPDEST SWAP1 POP DUP1 PUSH2 0x229B JUMPI PUSH1 0x40 MLOAD PUSH32 0x8C379A000000000000000000000000000000000000000000000000000000000 DUP2 MSTORE PUSH1 0x4 ADD PUSH2 0x2292 SWAP1 PUSH2 0x3E07 JUMP JUMPDEST PUSH1 0x40 MLOAD DUP1 SWAP2 SUB SWAP1 REVERT JUMPDEST PUSH1 0x0 PUSH1 0x6 DUP5 PUSH1 0x40 MLOAD PUSH2 0x22AD SWAP2 SWAP1 PUSH2 0x31CE JUMP JUMPDEST SWAP1 DUP2 MSTORE PUSH1 0x20 ADD PUSH1 0x40 MLOAD DUP1 SWAP2 SUB SWAP1 KECCAK256 DUP2 SWAP1 SSTORE POP DUP1 SWAP2 POP POP SWAP2 SWAP1 POP JUMP JUMPDEST PUSH1 0x6 DUP2 DUP1 MLOAD PUSH1 0x20 DUP2 ADD DUP3 ADD DUP1 MLOAD DUP5 DUP3 MSTORE PUSH1 0x20 DUP4 ADD PUSH1 0x20 DUP6 ADD KECCAK256 DUP2 DUP4 MSTORE DUP1 SWAP6 POP POP POP POP POP POP PUSH1 0x0 SWAP2 POP SWAP1 POP SLOAD DUP2 JUMP JUMPDEST PUSH1 0x0 PUSH2 0x233C CALLER PUSH1 0x40 MLOAD DUP1 PUSH1 0x40 ADD PUSH1 0x40 MSTORE DUP1 PUSH1 0x20 DUP2 MSTORE PUSH1 0x20 ADD PUSH32 0x61757468656E74696361746F722D6772616E742D7374616E646172642D6B6579 DUP2 MSTORE POP PUSH1 0x1 DUP1 PUSH1 0x1 PUSH2 0x11C2 JUMP JUMPDEST POP PUSH2 0x2351 DUP4 PUSH1 0x3 PUSH2 0x2594 SWAP1 SWAP2 SWAP1 PUSH4 0xFFFFFFFF AND JUMP JUMPDEST ISZERO PUSH2 0x243B JUMPI PUSH1 0x0 DUP1 PUSH1 0x5 PUSH1 0x0 DUP7 PUSH20 0xFFFFFFFFFFFFFFFFFFFFFFFFFFFFFFFFFFFFFFFF AND PUSH20 0xFFFFFFFFFFFFFFFFFFFFFFFFFFFFFFFFFFFFFFFF AND DUP2 MSTORE PUSH1 0x20 ADD SWAP1 DUP2 MSTORE PUSH1 0x20 ADD PUSH1 0x0 KECCAK256 SLOAD DUP2 SLOAD DUP2 LT PUSH2 0x23AA JUMPI PUSH2 0x23A9 PUSH2 0x2FA2 JUMP JUMPDEST JUMPDEST SWAP1 PUSH1 0x0 MSTORE PUSH1 0x20 PUSH1 0x0 KECCAK256 SWAP1 PUSH1 0x3 MUL ADD SWAP1 POP PUSH20 0x0 PUSH4 0x5C21E325 DUP3 DUP6 PUSH1 0x40 MLOAD DUP4 PUSH4 0xFFFFFFFF AND PUSH1 0xE0 SHL DUP2 MSTORE PUSH1 0x4 ADD PUSH2 0x23F3 SWAP3 SWAP2 SWAP1 PUSH2 0x3057 JUMP JUMPDEST PUSH1 0x20 PUSH1 0x40 MLOAD DUP1 DUP4 SUB DUP2 DUP7 GAS DELEGATECALL ISZERO DUP1 ISZERO PUSH2 0x2410 JUMPI RETURNDATASIZE PUSH1 0x0 DUP1 RETURNDATACOPY RETURNDATASIZE PUSH1 0x0 REVERT JUMPDEST POP POP POP POP PUSH1 0x40 MLOAD RETURNDATASIZE PUSH1 0x1F NOT PUSH1 0x1F DUP3 ADD AND DUP3 ADD DUP1 PUSH1 0x40 MSTORE POP DUP2 ADD SWAP1 PUSH2 0x2434 SWAP2 SWAP1 PUSH2 0x309C JUMP JUMPDEST POP POP PUSH2 0x257E JUMP JUMPDEST PUSH2 0x244F DUP4 PUSH1 0x3 PUSH2 0x25C4 SWAP1 SWAP2 SWAP1 PUSH4 0xFFFFFFFF AND JUMP JUMPDEST POP PUSH2 0x245A PUSH1 0x3 PUSH2 0x25F4 JUMP JUMPDEST PUSH1 0x5 PUSH1 0x0 DUP6 PUSH20 0xFFFFFFFFFFFFFFFFFFFFFFFFFFFFFFFFFFFFFFFF AND PUSH20 0xFFFFFFFFFFFFFFFFFFFFFFFFFFFFFFFFFFFFFFFF AND DUP2 MSTORE PUSH1 0x20 ADD SWAP1 DUP2 MSTORE PUSH1 0x20 ADD PUSH1 0x0 KECCAK256 DUP2 SWAP1 SSTORE POP PUSH1 0x0 DUP1 PUSH1 0x5 PUSH1 0x0 DUP7 PUSH20 0xFFFFFFFFFFFFFFFFFFFFFFFFFFFFFFFFFFFFFFFF AND PUSH20 0xFFFFFFFFFFFFFFFFFFFFFFFFFFFFFFFFFFFFFFFF AND DUP2 MSTORE PUSH1 0x20 ADD SWAP1 DUP2 MSTORE PUSH1 0x20 ADD PUSH1 0x0 KECCAK256 SLOAD DUP2 SLOAD DUP2 LT PUSH2 0x24F1 JUMPI PUSH2 0x24F0 PUSH2 0x2FA2 JUMP JUMPDEST JUMPDEST SWAP1 PUSH1 0x0 MSTORE PUSH1 0x20 PUSH1 0x0 KECCAK256 SWAP1 PUSH1 0x3 MUL ADD SWAP1 POP PUSH20 0x0 PUSH4 0x5C21E325 DUP3 DUP6 PUSH1 0x40 MLOAD DUP4 PUSH4 0xFFFFFFFF AND PUSH1 0xE0 SHL DUP2 MSTORE PUSH1 0x4 ADD PUSH2 0x253A SWAP3 SWAP2 SWAP1 PUSH2 0x3057 JUMP JUMPDEST PUSH1 0x20 PUSH1 0x40 MLOAD DUP1 DUP4 SUB DUP2 DUP7 GAS DELEGATECALL ISZERO DUP1 ISZERO PUSH2 0x2557 JUMPI RETURNDATASIZE PUSH1 0x0 DUP1 RETURNDATACOPY RETURNDATASIZE PUSH1 0x0 REVERT JUMPDEST POP POP POP POP PUSH1 0x40 MLOAD RETURNDATASIZE PUSH1 0x1F NOT PUSH1 0x1F DUP3 ADD AND DUP3 ADD DUP1 PUSH1 0x40 MSTORE POP DUP2 ADD SWAP1 PUSH2 0x257B SWAP2 SWAP1 PUSH2 0x309C JUMP JUMPDEST POP POP JUMPDEST PUSH1 0x1 SWAP1 POP SWAP3 SWAP2 POP POP JUMP JUMPDEST PUSH1 0x2 DUP1 PUSH1 0x0 ADD SLOAD SWAP1 POP DUP2 JUMP JUMPDEST PUSH1 0x0 PUSH2 0x25BC DUP4 PUSH1 0x0 ADD DUP4 PUSH20 0xFFFFFFFFFFFFFFFFFFFFFFFFFFFFFFFFFFFFFFFF AND PUSH1 0x0 SHL PUSH2 0x2643 JUMP JUMPDEST SWAP1 POP SWAP3 SWAP2 POP POP JUMP JUMPDEST PUSH1 0x0 PUSH2 0x25EC DUP4 PUSH1 0x0 ADD DUP4 PUSH20 0xFFFFFFFFFFFFFFFFFFFFFFFFFFFFFFFFFFFFFFFF AND PUSH1 0x0 SHL PUSH2 0x2666 JUMP JUMPDEST SWAP1 POP SWAP3 SWAP2 POP POP JUMP JUMPDEST PUSH1 0x0 PUSH2 0x2602 DUP3 PUSH1 0x0 ADD PUSH2 0x26D6 JUMP JUMPDEST SWAP1 POP SWAP2 SWAP1 POP JUMP JUMPDEST PUSH1 0x0 DUP1 PUSH1 0x6 DUP4 PUSH1 0x40 MLOAD PUSH2 0x261C SWAP2 SWAP1 PUSH2 0x31CE JUMP JUMPDEST SWAP1 DUP2 MSTORE PUSH1 0x20 ADD PUSH1 0x40 MLOAD DUP1 SWAP2 SUB SWAP1 KECCAK256 SLOAD EQ PUSH2 0x2639 JUMPI PUSH1 0x1 SWAP1 POP PUSH2 0x263E JUMP JUMPDEST PUSH1 0x0 SWAP1 POP JUMPDEST SWAP2 SWAP1 POP JUMP JUMPDEST PUSH1 0x0 DUP1 DUP4 PUSH1 0x1 ADD PUSH1 0x0 DUP5 DUP2 MSTORE PUSH1 0x20 ADD SWAP1 DUP2 MSTORE PUSH1 0x20 ADD PUSH1 0x0 KECCAK256 SLOAD EQ ISZERO SWAP1 POP SWAP3 SWAP2 POP POP JUMP JUMPDEST PUSH1 0x0 PUSH2 0x2672 DUP4 DUP4 PUSH2 0x2643 JUMP JUMPDEST PUSH2 0x26CB JUMPI DUP3 PUSH1 0x0 ADD DUP3 SWAP1 DUP1 PUSH1 0x1 DUP2 SLOAD ADD DUP1 DUP3 SSTORE DUP1 SWAP2 POP POP PUSH1 0x1 SWAP1 SUB SWAP1 PUSH1 0x0 MSTORE PUSH1 0x20 PUSH1 0x0 KECCAK256 ADD PUSH1 0x0 SWAP1 SWAP2 SWAP1 SWAP2 SWAP1 SWAP2 POP SSTORE DUP3 PUSH1 0x0 ADD DUP1 SLOAD SWAP1 POP DUP4 PUSH1 0x1 ADD PUSH1 0x0 DUP5 DUP2 MSTORE PUSH1 0x20 ADD SWAP1 DUP2 MSTORE PUSH1 0x20 ADD PUSH1 0x0 KECCAK256 DUP2 SWAP1 SSTORE POP PUSH1 0x1 SWAP1 POP PUSH2 0x26D0 JUMP JUMPDEST PUSH1 0x0 SWAP1 POP JUMPDEST SWAP3 SWAP2 POP POP JUMP JUMPDEST PUSH1 0x0 DUP2 PUSH1 0x0 ADD DUP1 SLOAD SWAP1 POP SWAP1 POP SWAP2 SWAP1 POP JUMP JUMPDEST PUSH1 0x0 PUSH1 0x40 MLOAD SWAP1 POP SWAP1 JUMP JUMPDEST PUSH1 0x0 DUP1 REVERT JUMPDEST PUSH1 0x0 DUP1 REVERT JUMPDEST PUSH1 0x0 PUSH20 0xFFFFFFFFFFFFFFFFFFFFFFFFFFFFFFFFFFFFFFFF DUP3 AND SWAP1 POP SWAP2 SWAP1 POP JUMP JUMPDEST PUSH1 0x0 PUSH2 0x2726 DUP3 PUSH2 0x26FB JUMP JUMPDEST SWAP1 POP SWAP2 SWAP1 POP JUMP JUMPDEST PUSH2 0x2736 DUP2 PUSH2 0x271B JUMP JUMPDEST DUP2 EQ PUSH2 0x2741 JUMPI PUSH1 0x0 DUP1 REVERT JUMPDEST POP JUMP JUMPDEST PUSH1 0x0 DUP2 CALLDATALOAD SWAP1 POP PUSH2 0x2753 DUP2 PUSH2 0x272D JUMP JUMPDEST SWAP3 SWAP2 POP POP JUMP JUMPDEST PUSH1 0x0 DUP1 REVERT JUMPDEST PUSH1 0x0 DUP1 REVERT JUMPDEST PUSH1 0x0 PUSH1 0x1F NOT PUSH1 0x1F DUP4 ADD AND SWAP1 POP SWAP2 SWAP1 POP JUMP JUMPDEST PUSH32 0x4E487B7100000000000000000000000000000000000000000000000000000000 PUSH1 0x0 MSTORE PUSH1 0x41 PUSH1 0x4 MSTORE PUSH1 0x24 PUSH1 0x0 REVERT JUMPDEST PUSH2 0x27AC DUP3 PUSH2 0x2763 JUMP JUMPDEST DUP2 ADD DUP2 DUP2 LT PUSH8 0xFFFFFFFFFFFFFFFF DUP3 GT OR ISZERO PUSH2 0x27CB JUMPI PUSH2 0x27CA PUSH2 0x2774 JUMP JUMPDEST JUMPDEST DUP1 PUSH1 0x40 MSTORE POP POP POP JUMP JUMPDEST PUSH1 0x0 PUSH2 0x27DE PUSH2 0x26E7 JUMP JUMPDEST SWAP1 POP PUSH2 0x27EA DUP3 DUP3 PUSH2 0x27A3 JUMP JUMPDEST SWAP2 SWAP1 POP JUMP JUMPDEST PUSH1 0x0 PUSH8 0xFFFFFFFFFFFFFFFF DUP3 GT ISZERO PUSH2 0x280A JUMPI PUSH2 0x2809 PUSH2 0x2774 JUMP JUMPDEST JUMPDEST PUSH2 0x2813 DUP3 PUSH2 0x2763 JUMP JUMPDEST SWAP1 POP PUSH1 0x20 DUP2 ADD SWAP1 POP SWAP2 SWAP1 POP JUMP JUMPDEST DUP3 DUP2 DUP4 CALLDATACOPY PUSH1 0x0 DUP4 DUP4 ADD MSTORE POP POP POP JUMP JUMPDEST PUSH1 0x0 PUSH2 0x2842 PUSH2 0x283D DUP5 PUSH2 0x27EF JUMP JUMPDEST PUSH2 0x27D4 JUMP JUMPDEST SWAP1 POP DUP3 DUP2 MSTORE PUSH1 0x20 DUP2 ADD DUP5 DUP5 DUP5 ADD GT ISZERO PUSH2 0x285E JUMPI PUSH2 0x285D PUSH2 0x275E JUMP JUMPDEST JUMPDEST PUSH2 0x2869 DUP5 DUP3 DUP6 PUSH2 0x2820 JUMP JUMPDEST POP SWAP4 SWAP3 POP POP POP JUMP JUMPDEST PUSH1 0x0 DUP3 PUSH1 0x1F DUP4 ADD SLT PUSH2 0x2886 JUMPI PUSH2 0x2885 PUSH2 0x2759 JUMP JUMPDEST JUMPDEST DUP2 CALLDATALOAD PUSH2 0x2896 DUP5 DUP3 PUSH1 0x20 DUP7 ADD PUSH2 0x282F JUMP JUMPDEST SWAP2 POP POP SWAP3 SWAP2 POP POP JUMP JUMPDEST PUSH1 0x0 DUP1 PUSH1 0x40 DUP4 DUP6 SUB SLT ISZERO PUSH2 0x28B6 JUMPI PUSH2 0x28B5 PUSH2 0x26F1 JUMP JUMPDEST JUMPDEST PUSH1 0x0 PUSH2 0x28C4 DUP6 DUP3 DUP7 ADD PUSH2 0x2744 JUMP JUMPDEST SWAP3 POP POP PUSH1 0x20 DUP4 ADD CALLDATALOAD PUSH8 0xFFFFFFFFFFFFFFFF DUP2 GT ISZERO PUSH2 0x28E5 JUMPI PUSH2 0x28E4 PUSH2 0x26F6 JUMP JUMPDEST JUMPDEST PUSH2 0x28F1 DUP6 DUP3 DUP7 ADD PUSH2 0x2871 JUMP JUMPDEST SWAP2 POP POP SWAP3 POP SWAP3 SWAP1 POP JUMP JUMPDEST PUSH1 0x0 DUP2 ISZERO ISZERO SWAP1 POP SWAP2 SWAP1 POP JUMP JUMPDEST PUSH2 0x2910 DUP2 PUSH2 0x28FB JUMP JUMPDEST DUP3 MSTORE POP POP JUMP JUMPDEST PUSH1 0x0 PUSH1 0x20 DUP3 ADD SWAP1 POP PUSH2 0x292B PUSH1 0x0 DUP4 ADD DUP5 PUSH2 0x2907 JUMP JUMPDEST SWAP3 SWAP2 POP POP JUMP JUMPDEST PUSH1 0x0 PUSH1 0x20 DUP3 DUP5 SUB SLT ISZERO PUSH2 0x2947 JUMPI PUSH2 0x2946 PUSH2 0x26F1 JUMP JUMPDEST JUMPDEST PUSH1 0x0 PUSH2 0x2955 DUP5 DUP3 DUP6 ADD PUSH2 0x2744 JUMP JUMPDEST SWAP2 POP POP SWAP3 SWAP2 POP POP JUMP JUMPDEST PUSH1 0x0 DUP2 SWAP1 POP SWAP2 SWAP1 POP JUMP JUMPDEST PUSH2 0x2971 DUP2 PUSH2 0x295E JUMP JUMPDEST DUP3 MSTORE POP POP JUMP JUMPDEST PUSH1 0x0 PUSH1 0x20 DUP3 ADD SWAP1 POP PUSH2 0x298C PUSH1 0x0 DUP4 ADD DUP5 PUSH2 0x2968 JUMP JUMPDEST SWAP3 SWAP2 POP POP JUMP JUMPDEST PUSH2 0x299B DUP2 PUSH2 0x295E JUMP JUMPDEST DUP2 EQ PUSH2 0x29A6 JUMPI PUSH1 0x0 DUP1 REVERT JUMPDEST POP JUMP JUMPDEST PUSH1 0x0 DUP2 CALLDATALOAD SWAP1 POP PUSH2 0x29B8 DUP2 PUSH2 0x2992 JUMP JUMPDEST SWAP3 SWAP2 POP POP JUMP JUMPDEST PUSH1 0x0 DUP1 PUSH1 0x0 DUP1 PUSH1 0x80 DUP6 DUP8 SUB SLT ISZERO PUSH2 0x29D8 JUMPI PUSH2 0x29D7 PUSH2 0x26F1 JUMP JUMPDEST JUMPDEST PUSH1 0x0 PUSH2 0x29E6 DUP8 DUP3 DUP9 ADD PUSH2 0x2744 JUMP JUMPDEST SWAP5 POP POP PUSH1 0x20 DUP6 ADD CALLDATALOAD PUSH8 0xFFFFFFFFFFFFFFFF DUP2 GT ISZERO PUSH2 0x2A07 JUMPI PUSH2 0x2A06 PUSH2 0x26F6 JUMP JUMPDEST JUMPDEST PUSH2 0x2A13 DUP8 DUP3 DUP9 ADD PUSH2 0x2871 JUMP JUMPDEST SWAP4 POP POP PUSH1 0x40 PUSH2 0x2A24 DUP8 DUP3 DUP9 ADD PUSH2 0x29A9 JUMP JUMPDEST SWAP3 POP POP PUSH1 0x60 PUSH2 0x2A35 DUP8 DUP3 DUP9 ADD PUSH2 0x29A9 JUMP JUMPDEST SWAP2 POP POP SWAP3 SWAP6 SWAP2 SWAP5 POP SWAP3 POP JUMP JUMPDEST PUSH2 0x2A4A DUP2 PUSH2 0x28FB JUMP JUMPDEST DUP2 EQ PUSH2 0x2A55 JUMPI PUSH1 0x0 DUP1 REVERT JUMPDEST POP JUMP JUMPDEST PUSH1 0x0 DUP2 CALLDATALOAD SWAP1 POP PUSH2 0x2A67 DUP2 PUSH2 0x2A41 JUMP JUMPDEST SWAP3 SWAP2 POP POP JUMP JUMPDEST PUSH1 0x0 DUP1 PUSH1 0x0 DUP1 PUSH1 0x0 PUSH1 0xA0 DUP7 DUP9 SUB SLT ISZERO PUSH2 0x2A89 JUMPI PUSH2 0x2A88 PUSH2 0x26F1 JUMP JUMPDEST JUMPDEST PUSH1 0x0 PUSH2 0x2A97 DUP9 DUP3 DUP10 ADD PUSH2 0x2744 JUMP JUMPDEST SWAP6 POP POP PUSH1 0x20 DUP7 ADD CALLDATALOAD PUSH8 0xFFFFFFFFFFFFFFFF DUP2 GT ISZERO PUSH2 0x2AB8 JUMPI PUSH2 0x2AB7 PUSH2 0x26F6 JUMP JUMPDEST JUMPDEST PUSH2 0x2AC4 DUP9 DUP3 DUP10 ADD PUSH2 0x2871 JUMP JUMPDEST SWAP5 POP POP PUSH1 0x40 PUSH2 0x2AD5 DUP9 DUP3 DUP10 ADD PUSH2 0x2A58 JUMP JUMPDEST SWAP4 POP POP PUSH1 0x60 PUSH2 0x2AE6 DUP9 DUP3 DUP10 ADD PUSH2 0x2A58 JUMP JUMPDEST SWAP3 POP POP PUSH1 0x80 PUSH2 0x2AF7 DUP9 DUP3 DUP10 ADD PUSH2 0x2A58 JUMP JUMPDEST SWAP2 POP POP SWAP3 SWAP6 POP SWAP3 SWAP6 SWAP1 SWAP4 POP JUMP JUMPDEST PUSH1 0x0 PUSH8 0xFFFFFFFFFFFFFFFF DUP3 GT ISZERO PUSH2 0x2B1F JUMPI PUSH2 0x2B1E PUSH2 0x2774 JUMP JUMPDEST JUMPDEST PUSH1 0x20 DUP3 MUL SWAP1 POP PUSH1 0x20 DUP2 ADD SWAP1 POP SWAP2 SWAP1 POP JUMP JUMPDEST PUSH1 0x0 DUP1 REVERT JUMPDEST PUSH1 0x0 PUSH2 0x2B48 PUSH2 0x2B43 DUP5 PUSH2 0x2B04 JUMP JUMPDEST PUSH2 0x27D4 JUMP JUMPDEST SWAP1 POP DUP1 DUP4 DUP3 MSTORE PUSH1 0x20 DUP3 ADD SWAP1 POP PUSH1 0x20 DUP5 MUL DUP4 ADD DUP6 DUP2 GT ISZERO PUSH2 0x2B6B JUMPI PUSH2 0x2B6A PUSH2 0x2B30 JUMP JUMPDEST JUMPDEST DUP4 JUMPDEST DUP2 DUP2 LT ISZERO PUSH2 0x2BB2 JUMPI DUP1 CALLDATALOAD PUSH8 0xFFFFFFFFFFFFFFFF DUP2 GT ISZERO PUSH2 0x2B90 JUMPI PUSH2 0x2B8F PUSH2 0x2759 JUMP JUMPDEST JUMPDEST DUP1 DUP7 ADD PUSH2 0x2B9D DUP10 DUP3 PUSH2 0x2871 JUMP JUMPDEST DUP6 MSTORE PUSH1 0x20 DUP6 ADD SWAP5 POP POP POP PUSH1 0x20 DUP2 ADD SWAP1 POP PUSH2 0x2B6D JUMP JUMPDEST POP POP POP SWAP4 SWAP3 POP POP POP JUMP JUMPDEST PUSH1 0x0 DUP3 PUSH1 0x1F DUP4 ADD SLT PUSH2 0x2BD1 JUMPI PUSH2 0x2BD0 PUSH2 0x2759 JUMP JUMPDEST JUMPDEST DUP2 CALLDATALOAD PUSH2 0x2BE1 DUP5 DUP3 PUSH1 0x20 DUP7 ADD PUSH2 0x2B35 JUMP JUMPDEST SWAP2 POP POP SWAP3 SWAP2 POP POP JUMP JUMPDEST PUSH1 0x0 DUP1 PUSH1 0x40 DUP4 DUP6 SUB SLT ISZERO PUSH2 0x2C01 JUMPI PUSH2 0x2C00 PUSH2 0x26F1 JUMP JUMPDEST JUMPDEST PUSH1 0x0 DUP4 ADD CALLDATALOAD PUSH8 0xFFFFFFFFFFFFFFFF DUP2 GT ISZERO PUSH2 0x2C1F JUMPI PUSH2 0x2C1E PUSH2 0x26F6 JUMP JUMPDEST JUMPDEST PUSH2 0x2C2B DUP6 DUP3 DUP7 ADD PUSH2 0x2BBC JUMP JUMPDEST SWAP3 POP POP PUSH1 0x20 DUP4 ADD CALLDATALOAD PUSH8 0xFFFFFFFFFFFFFFFF DUP2 GT ISZERO PUSH2 0x2C4C JUMPI PUSH2 0x2C4B PUSH2 0x26F6 JUMP JUMPDEST JUMPDEST PUSH2 0x2C58 DUP6 DUP3 DUP7 ADD PUSH2 0x2871 JUMP JUMPDEST SWAP2 POP POP SWAP3 POP SWAP3 SWAP1 POP JUMP JUMPDEST PUSH1 0x0 PUSH1 0x40 DUP3 ADD SWAP1 POP PUSH2 0x2C77 PUSH1 0x0 DUP4 ADD DUP6 PUSH2 0x2907 JUMP JUMPDEST PUSH2 0x2C84 PUSH1 0x20 DUP4 ADD DUP5 PUSH2 0x2968 JUMP JUMPDEST SWAP4 SWAP3 POP POP POP JUMP JUMPDEST PUSH1 0x0 PUSH8 0xFFFFFFFFFFFFFFFF DUP3 GT ISZERO PUSH2 0x2CA6 JUMPI PUSH2 0x2CA5 PUSH2 0x2774 JUMP JUMPDEST JUMPDEST PUSH1 0x20 DUP3 MUL SWAP1 POP PUSH1 0x20 DUP2 ADD SWAP1 POP SWAP2 SWAP1 POP JUMP JUMPDEST PUSH1 0x0 DUP1 REVERT JUMPDEST PUSH1 0x0 DUP1 REVERT JUMPDEST PUSH1 0x0 PUSH1 0x80 DUP3 DUP5 SUB SLT ISZERO PUSH2 0x2CD7 JUMPI PUSH2 0x2CD6 PUSH2 0x2CB7 JUMP JUMPDEST JUMPDEST PUSH2 0x2CE1 PUSH1 0x80 PUSH2 0x27D4 JUMP JUMPDEST SWAP1 POP PUSH1 0x0 DUP3 ADD CALLDATALOAD PUSH8 0xFFFFFFFFFFFFFFFF DUP2 GT ISZERO PUSH2 0x2D01 JUMPI PUSH2 0x2D00 PUSH2 0x2CBC JUMP JUMPDEST JUMPDEST PUSH2 0x2D0D DUP5 DUP3 DUP6 ADD PUSH2 0x2871 JUMP JUMPDEST PUSH1 0x0 DUP4 ADD MSTORE POP PUSH1 0x20 PUSH2 0x2D21 DUP5 DUP3 DUP6 ADD PUSH2 0x29A9 JUMP JUMPDEST PUSH1 0x20 DUP4 ADD MSTORE POP PUSH1 0x40 PUSH2 0x2D35 DUP5 DUP3 DUP6 ADD PUSH2 0x29A9 JUMP JUMPDEST PUSH1 0x40 DUP4 ADD MSTORE POP PUSH1 0x60 PUSH2 0x2D49 DUP5 DUP3 DUP6 ADD PUSH2 0x29A9 JUMP JUMPDEST PUSH1 0x60 DUP4 ADD MSTORE POP SWAP3 SWAP2 POP POP JUMP JUMPDEST PUSH1 0x0 PUSH2 0x2D68 PUSH2 0x2D63 DUP5 PUSH2 0x2C8B JUMP JUMPDEST PUSH2 0x27D4 JUMP JUMPDEST SWAP1 POP DUP1 DUP4 DUP3 MSTORE PUSH1 0x20 DUP3 ADD SWAP1 POP PUSH1 0x20 DUP5 MUL DUP4 ADD DUP6 DUP2 GT ISZERO PUSH2 0x2D8B JUMPI PUSH2 0x2D8A PUSH2 0x2B30 JUMP JUMPDEST JUMPDEST DUP4 JUMPDEST DUP2 DUP2 LT ISZERO PUSH2 0x2DD2 JUMPI DUP1 CALLDATALOAD PUSH8 0xFFFFFFFFFFFFFFFF DUP2 GT ISZERO PUSH2 0x2DB0 JUMPI PUSH2 0x2DAF PUSH2 0x2759 JUMP JUMPDEST JUMPDEST DUP1 DUP7 ADD PUSH2 0x2DBD DUP10 DUP3 PUSH2 0x2CC1 JUMP JUMPDEST DUP6 MSTORE PUSH1 0x20 DUP6 ADD SWAP5 POP POP POP PUSH1 0x20 DUP2 ADD SWAP1 POP PUSH2 0x2D8D JUMP JUMPDEST POP POP POP SWAP4 SWAP3 POP POP POP JUMP JUMPDEST PUSH1 0x0 DUP3 PUSH1 0x1F DUP4 ADD SLT PUSH2 0x2DF1 JUMPI PUSH2 0x2DF0 PUSH2 0x2759 JUMP JUMPDEST JUMPDEST DUP2 CALLDATALOAD PUSH2 0x2E01 DUP5 DUP3 PUSH1 0x20 DUP7 ADD PUSH2 0x2D55 JUMP JUMPDEST SWAP2 POP POP SWAP3 SWAP2 POP POP JUMP JUMPDEST PUSH1 0x0 DUP1 PUSH1 0x0 DUP1 PUSH1 0x80 DUP6 DUP8 SUB SLT ISZERO PUSH2 0x2E24 JUMPI PUSH2 0x2E23 PUSH2 0x26F1 JUMP JUMPDEST JUMPDEST PUSH1 0x0 DUP6 ADD CALLDATALOAD PUSH8 0xFFFFFFFFFFFFFFFF DUP2 GT ISZERO PUSH2 0x2E42 JUMPI PUSH2 0x2E41 PUSH2 0x26F6 JUMP JUMPDEST JUMPDEST PUSH2 0x2E4E DUP8 DUP3 DUP9 ADD PUSH2 0x2871 JUMP JUMPDEST SWAP5 POP POP PUSH1 0x20 DUP6 ADD CALLDATALOAD PUSH8 0xFFFFFFFFFFFFFFFF DUP2 GT ISZERO PUSH2 0x2E6F JUMPI PUSH2 0x2E6E PUSH2 0x26F6 JUMP JUMPDEST JUMPDEST PUSH2 0x2E7B DUP8 DUP3 DUP9 ADD PUSH2 0x2BBC JUMP JUMPDEST SWAP4 POP POP PUSH1 0x40 DUP6 ADD CALLDATALOAD PUSH8 0xFFFFFFFFFFFFFFFF DUP2 GT ISZERO PUSH2 0x2E9C JUMPI PUSH2 0x2E9B PUSH2 0x26F6 JUMP JUMPDEST JUMPDEST PUSH2 0x2EA8 DUP8 DUP3 DUP9 ADD PUSH2 0x2BBC JUMP JUMPDEST SWAP3 POP POP PUSH1 0x60 DUP6 ADD CALLDATALOAD PUSH8 0xFFFFFFFFFFFFFFFF DUP2 GT ISZERO PUSH2 0x2EC9 JUMPI PUSH2 0x2EC8 PUSH2 0x26F6 JUMP JUMPDEST JUMPDEST PUSH2 0x2ED5 DUP8 DUP3 DUP9 ADD PUSH2 0x2DDC JUMP JUMPDEST SWAP2 POP POP SWAP3 SWAP6 SWAP2 SWAP5 POP SWAP3 POP JUMP JUMPDEST PUSH1 0x0 DUP1 PUSH1 0x40 DUP4 DUP6 SUB SLT ISZERO PUSH2 0x2EF8 JUMPI PUSH2 0x2EF7 PUSH2 0x26F1 JUMP JUMPDEST JUMPDEST PUSH1 0x0 DUP4 ADD CALLDATALOAD PUSH8 0xFFFFFFFFFFFFFFFF DUP2 GT ISZERO PUSH2 0x2F16 JUMPI PUSH2 0x2F15 PUSH2 0x26F6 JUMP JUMPDEST JUMPDEST PUSH2 0x2F22 DUP6 DUP3 DUP7 ADD PUSH2 0x2871 JUMP JUMPDEST SWAP3 POP POP PUSH1 0x20 DUP4 ADD CALLDATALOAD PUSH8 0xFFFFFFFFFFFFFFFF DUP2 GT ISZERO PUSH2 0x2F43 JUMPI PUSH2 0x2F42 PUSH2 0x26F6 JUMP JUMPDEST JUMPDEST PUSH2 0x2F4F DUP6 DUP3 DUP7 ADD PUSH2 0x2871 JUMP JUMPDEST SWAP2 POP POP SWAP3 POP SWAP3 SWAP1 POP JUMP JUMPDEST PUSH1 0x0 PUSH1 0x20 DUP3 DUP5 SUB SLT ISZERO PUSH2 0x2F6F JUMPI PUSH2 0x2F6E PUSH2 0x26F1 JUMP JUMPDEST JUMPDEST PUSH1 0x0 DUP3 ADD CALLDATALOAD PUSH8 0xFFFFFFFFFFFFFFFF DUP2 GT ISZERO PUSH2 0x2F8D JUMPI PUSH2 0x2F8C PUSH2 0x26F6 JUMP JUMPDEST JUMPDEST PUSH2 0x2F99 DUP5 DUP3 DUP6 ADD PUSH2 0x2871 JUMP JUMPDEST SWAP2 POP POP SWAP3 SWAP2 POP POP JUMP JUMPDEST PUSH32 0x4E487B7100000000000000000000000000000000000000000000000000000000 PUSH1 0x0 MSTORE PUSH1 0x32 PUSH1 0x4 MSTORE PUSH1 0x24 PUSH1 0x0 REVERT JUMPDEST DUP1 DUP3 MSTORE POP POP JUMP JUMPDEST PUSH1 0x0 DUP2 MLOAD SWAP1 POP SWAP2 SWAP1 POP JUMP JUMPDEST PUSH1 0x0 DUP3 DUP3 MSTORE PUSH1 0x20 DUP3 ADD SWAP1 POP SWAP3 SWAP2 POP POP JUMP JUMPDEST PUSH1 0x0 JUMPDEST DUP4 DUP2 LT ISZERO PUSH2 0x3012 JUMPI DUP1 DUP3 ADD MLOAD DUP2 DUP5 ADD MSTORE PUSH1 0x20 DUP2 ADD SWAP1 POP PUSH2 0x2FF7 JUMP JUMPDEST PUSH1 0x0 DUP5 DUP5 ADD MSTORE POP POP POP POP JUMP JUMPDEST PUSH1 0x0 PUSH2 0x3029 DUP3 PUSH2 0x2FD8 JUMP JUMPDEST PUSH2 0x3033 DUP2 DUP6 PUSH2 0x2FE3 JUMP JUMPDEST SWAP4 POP PUSH2 0x3043 DUP2 DUP6 PUSH1 0x20 DUP7 ADD PUSH2 0x2FF4 JUMP JUMPDEST PUSH2 0x304C DUP2 PUSH2 0x2763 JUMP JUMPDEST DUP5 ADD SWAP2 POP POP SWAP3 SWAP2 POP POP JUMP JUMPDEST PUSH1 0x0 PUSH1 0x40 DUP3 ADD SWAP1 POP PUSH2 0x306C PUSH1 0x0 DUP4 ADD DUP6 PUSH2 0x2FD1 JUMP JUMPDEST DUP2 DUP2 SUB PUSH1 0x20 DUP4 ADD MSTORE PUSH2 0x307E DUP2 DUP5 PUSH2 0x301E JUMP JUMPDEST SWAP1 POP SWAP4 SWAP3 POP POP POP JUMP JUMPDEST PUSH1 0x0 DUP2 MLOAD SWAP1 POP PUSH2 0x3096 DUP2 PUSH2 0x2A41 JUMP JUMPDEST SWAP3 SWAP2 POP POP JUMP JUMPDEST PUSH1 0x0 PUSH1 0x20 DUP3 DUP5 SUB SLT ISZERO PUSH2 0x30B2 JUMPI PUSH2 0x30B1 PUSH2 0x26F1 JUMP JUMPDEST JUMPDEST PUSH1 0x0 PUSH2 0x30C0 DUP5 DUP3 DUP6 ADD PUSH2 0x3087 JUMP JUMPDEST SWAP2 POP POP SWAP3 SWAP2 POP POP JUMP JUMPDEST PUSH1 0x0 DUP3 DUP3 MSTORE PUSH1 0x20 DUP3 ADD SWAP1 POP SWAP3 SWAP2 POP POP JUMP JUMPDEST PUSH32 0x41757468656E74696361746F723A20556E61626C6520746F206772616E742062 PUSH1 0x0 DUP3 ADD MSTORE PUSH32 0x756E646C652062656361757365207468657265206973206E6F20657869737469 PUSH1 0x20 DUP3 ADD MSTORE PUSH32 0x6E672062756E646C6520776974682074686520676976656E206C6162656C2E00 PUSH1 0x40 DUP3 ADD MSTORE POP JUMP JUMPDEST PUSH1 0x0 PUSH2 0x315C PUSH1 0x5F DUP4 PUSH2 0x30C9 JUMP JUMPDEST SWAP2 POP PUSH2 0x3167 DUP3 PUSH2 0x30DA JUMP JUMPDEST PUSH1 0x60 DUP3 ADD SWAP1 POP SWAP2 SWAP1 POP JUMP JUMPDEST PUSH1 0x0 PUSH1 0x20 DUP3 ADD SWAP1 POP DUP2 DUP2 SUB PUSH1 0x0 DUP4 ADD MSTORE PUSH2 0x318B DUP2 PUSH2 0x314F JUMP JUMPDEST SWAP1 POP SWAP2 SWAP1 POP JUMP JUMPDEST PUSH1 0x0 DUP2 SWAP1 POP SWAP3 SWAP2 POP POP JUMP JUMPDEST PUSH1 0x0 PUSH2 0x31A8 DUP3 PUSH2 0x2FD8 JUMP JUMPDEST PUSH2 0x31B2 DUP2 DUP6 PUSH2 0x3192 JUMP JUMPDEST SWAP4 POP PUSH2 0x31C2 DUP2 DUP6 PUSH1 0x20 DUP7 ADD PUSH2 0x2FF4 JUMP JUMPDEST DUP1 DUP5 ADD SWAP2 POP POP SWAP3 SWAP2 POP POP JUMP JUMPDEST PUSH1 0x0 PUSH2 0x31DA DUP3 DUP5 PUSH2 0x319D JUMP JUMPDEST SWAP2 POP DUP2 SWAP1 POP SWAP3 SWAP2 POP POP JUMP JUMPDEST DUP1 DUP3 MSTORE POP POP JUMP JUMPDEST PUSH2 0x31F5 DUP2 PUSH2 0x295E JUMP JUMPDEST DUP3 MSTORE POP POP JUMP JUMPDEST PUSH1 0x0 PUSH1 0x60 DUP3 ADD SWAP1 POP PUSH2 0x3210 PUSH1 0x0 DUP4 ADD DUP7 PUSH2 0x2FD1 JUMP JUMPDEST PUSH2 0x321D PUSH1 0x20 DUP4 ADD DUP6 PUSH2 0x31E5 JUMP JUMPDEST PUSH2 0x322A PUSH1 0x40 DUP4 ADD DUP5 PUSH2 0x31EC JUMP JUMPDEST SWAP5 SWAP4 POP POP POP POP JUMP JUMPDEST PUSH32 0x41757468656E74696361746F723A20556E61626C6520746F206772616E742062 PUSH1 0x0 DUP3 ADD MSTORE PUSH32 0x756E646C652064756520746F20756E7375636365737366756C20657865637574 PUSH1 0x20 DUP3 ADD MSTORE PUSH32 0x696F6E2E00000000000000000000000000000000000000000000000000000000 PUSH1 0x40 DUP3 ADD MSTORE POP JUMP JUMPDEST PUSH1 0x0 PUSH2 0x32B4 PUSH1 0x44 DUP4 PUSH2 0x30C9 JUMP JUMPDEST SWAP2 POP PUSH2 0x32BF DUP3 PUSH2 0x3232 JUMP JUMPDEST PUSH1 0x60 DUP3 ADD SWAP1 POP SWAP2 SWAP1 POP JUMP JUMPDEST PUSH1 0x0 PUSH1 0x20 DUP3 ADD SWAP1 POP DUP2 DUP2 SUB PUSH1 0x0 DUP4 ADD MSTORE PUSH2 0x32E3 DUP2 PUSH2 0x32A7 JUMP JUMPDEST SWAP1 POP SWAP2 SWAP1 POP JUMP JUMPDEST PUSH1 0x0 PUSH1 0x80 DUP3 ADD SWAP1 POP PUSH2 0x32FF PUSH1 0x0 DUP4 ADD DUP8 PUSH2 0x2FD1 JUMP JUMPDEST DUP2 DUP2 SUB PUSH1 0x20 DUP4 ADD MSTORE PUSH2 0x3311 DUP2 DUP7 PUSH2 0x301E JUMP JUMPDEST SWAP1 POP PUSH2 0x3320 PUSH1 0x40 DUP4 ADD DUP6 PUSH2 0x31EC JUMP JUMPDEST PUSH2 0x332D PUSH1 0x60 DUP4 ADD DUP5 PUSH2 0x31EC JUMP JUMPDEST SWAP6 SWAP5 POP POP POP POP POP JUMP JUMPDEST PUSH2 0x333F DUP2 PUSH2 0x28FB JUMP JUMPDEST DUP3 MSTORE POP POP JUMP JUMPDEST PUSH1 0x0 PUSH1 0xA0 DUP3 ADD SWAP1 POP PUSH2 0x335A PUSH1 0x0 DUP4 ADD DUP9 PUSH2 0x2FD1 JUMP JUMPDEST DUP2 DUP2 SUB PUSH1 0x20 DUP4 ADD MSTORE PUSH2 0x336C DUP2 DUP8 PUSH2 0x301E JUMP JUMPDEST SWAP1 POP PUSH2 0x337B PUSH1 0x40 DUP4 ADD DUP7 PUSH2 0x3336 JUMP JUMPDEST PUSH2 0x3388 PUSH1 0x60 DUP4 ADD DUP6 PUSH2 0x3336 JUMP JUMPDEST PUSH2 0x3395 PUSH1 0x80 DUP4 ADD DUP5 PUSH2 0x3336 JUMP JUMPDEST SWAP7 SWAP6 POP POP POP POP POP POP JUMP JUMPDEST PUSH32 0x556E61626C6520746F206D657267652062756E646C6573206265636175736520 PUSH1 0x0 DUP3 ADD MSTORE PUSH32 0x61206C6162656C20646F6573206E6F7420706F696E7420746F20616E20657869 PUSH1 0x20 DUP3 ADD MSTORE PUSH32 0x7374696E672062756E646C652E00000000000000000000000000000000000000 PUSH1 0x40 DUP3 ADD MSTORE POP JUMP JUMPDEST PUSH1 0x0 PUSH2 0x3421 PUSH1 0x4D DUP4 PUSH2 0x30C9 JUMP JUMPDEST SWAP2 POP PUSH2 0x342C DUP3 PUSH2 0x339F JUMP JUMPDEST PUSH1 0x60 DUP3 ADD SWAP1 POP SWAP2 SWAP1 POP JUMP JUMPDEST PUSH1 0x0 PUSH1 0x20 DUP3 ADD SWAP1 POP DUP2 DUP2 SUB PUSH1 0x0 DUP4 ADD MSTORE PUSH2 0x3450 DUP2 PUSH2 0x3414 JUMP JUMPDEST SWAP1 POP SWAP2 SWAP1 POP JUMP JUMPDEST PUSH32 0x4E487B7100000000000000000000000000000000000000000000000000000000 PUSH1 0x0 MSTORE PUSH1 0x11 PUSH1 0x4 MSTORE PUSH1 0x24 PUSH1 0x0 REVERT JUMPDEST PUSH1 0x0 PUSH2 0x3491 DUP3 PUSH2 0x295E JUMP JUMPDEST SWAP2 POP PUSH32 0xFFFFFFFFFFFFFFFFFFFFFFFFFFFFFFFFFFFFFFFFFFFFFFFFFFFFFFFFFFFFFFFF DUP3 SUB PUSH2 0x34C3 JUMPI PUSH2 0x34C2 PUSH2 0x3457 JUMP JUMPDEST JUMPDEST PUSH1 0x1 DUP3 ADD SWAP1 POP SWAP2 SWAP1 POP JUMP JUMPDEST PUSH1 0x0 DUP2 MLOAD SWAP1 POP SWAP2 SWAP1 POP JUMP JUMPDEST PUSH1 0x0 DUP3 DUP3 MSTORE PUSH1 0x20 DUP3 ADD SWAP1 POP SWAP3 SWAP2 POP POP JUMP JUMPDEST PUSH1 0x0 DUP2 SWAP1 POP PUSH1 0x20 DUP3 ADD SWAP1 POP SWAP2 SWAP1 POP JUMP JUMPDEST PUSH2 0x3503 DUP2 PUSH2 0x295E JUMP JUMPDEST DUP3 MSTORE POP POP JUMP JUMPDEST PUSH1 0x0 PUSH2 0x3515 DUP4 DUP4 PUSH2 0x34FA JUMP JUMPDEST PUSH1 0x20 DUP4 ADD SWAP1 POP SWAP3 SWAP2 POP POP JUMP JUMPDEST PUSH1 0x0 PUSH1 0x20 DUP3 ADD SWAP1 POP SWAP2 SWAP1 POP JUMP JUMPDEST PUSH1 0x0 PUSH2 0x3539 DUP3 PUSH2 0x34CE JUMP JUMPDEST PUSH2 0x3543 DUP2 DUP6 PUSH2 0x34D9 JUMP JUMPDEST SWAP4 POP PUSH2 0x354E DUP4 PUSH2 0x34EA JUMP JUMPDEST DUP1 PUSH1 0x0 JUMPDEST DUP4 DUP2 LT ISZERO PUSH2 0x357F JUMPI DUP2 MLOAD PUSH2 0x3566 DUP9 DUP3 PUSH2 0x3509 JUMP JUMPDEST SWAP8 POP PUSH2 0x3571 DUP4 PUSH2 0x3521 JUMP JUMPDEST SWAP3 POP POP PUSH1 0x1 DUP2 ADD SWAP1 POP PUSH2 0x3552 JUMP JUMPDEST POP DUP6 SWAP4 POP POP POP POP SWAP3 SWAP2 POP POP JUMP JUMPDEST DUP1 DUP3 MSTORE POP POP JUMP JUMPDEST PUSH1 0x0 PUSH1 0x60 DUP3 ADD SWAP1 POP DUP2 DUP2 SUB PUSH1 0x0 DUP4 ADD MSTORE PUSH2 0x35AD DUP2 DUP7 PUSH2 0x352E JUMP JUMPDEST SWAP1 POP PUSH2 0x35BC PUSH1 0x20 DUP4 ADD DUP6 PUSH2 0x31E5 JUMP JUMPDEST PUSH2 0x35C9 PUSH1 0x40 DUP4 ADD DUP5 PUSH2 0x358C JUMP JUMPDEST SWAP5 SWAP4 POP POP POP POP JUMP JUMPDEST PUSH1 0x0 DUP2 MLOAD SWAP1 POP PUSH2 0x35E0 DUP2 PUSH2 0x2992 JUMP JUMPDEST SWAP3 SWAP2 POP POP JUMP JUMPDEST PUSH1 0x0 DUP1 PUSH1 0x40 DUP4 DUP6 SUB SLT ISZERO PUSH2 0x35FD JUMPI PUSH2 0x35FC PUSH2 0x26F1 JUMP JUMPDEST JUMPDEST PUSH1 0x0 PUSH2 0x360B DUP6 DUP3 DUP7 ADD PUSH2 0x3087 JUMP JUMPDEST SWAP3 POP POP PUSH1 0x20 PUSH2 0x361C DUP6 DUP3 DUP7 ADD PUSH2 0x35D1 JUMP JUMPDEST SWAP2 POP POP SWAP3 POP SWAP3 SWAP1 POP JUMP JUMPDEST PUSH32 0x41757468656E74696361746F723A20556E61626C6520746F206D657267652062 PUSH1 0x0 DUP3 ADD MSTORE PUSH32 0x756E646C65732064756520746F20756E7375636365737366756C206578656375 PUSH1 0x20 DUP3 ADD MSTORE PUSH32 0x74696F6E2E000000000000000000000000000000000000000000000000000000 PUSH1 0x40 DUP3 ADD MSTORE POP JUMP JUMPDEST PUSH1 0x0 PUSH2 0x36A8 PUSH1 0x45 DUP4 PUSH2 0x30C9 JUMP JUMPDEST SWAP2 POP PUSH2 0x36B3 DUP3 PUSH2 0x3626 JUMP JUMPDEST PUSH1 0x60 DUP3 ADD SWAP1 POP SWAP2 SWAP1 POP JUMP JUMPDEST PUSH1 0x0 PUSH1 0x20 DUP3 ADD SWAP1 POP DUP2 DUP2 SUB PUSH1 0x0 DUP4 ADD MSTORE PUSH2 0x36D7 DUP2 PUSH2 0x369B JUMP JUMPDEST SWAP1 POP SWAP2 SWAP1 POP JUMP JUMPDEST PUSH32 0x41757468656E74696361746F723A20556E61626C6520746F207265766F6B6520 PUSH1 0x0 DUP3 ADD MSTORE PUSH32 0x62756E646C652062656361757365207468657265206973206E6F206578697374 PUSH1 0x20 DUP3 ADD MSTORE PUSH32 0x696E672062756E646C6520776974682074686520676976656E206C6162656C2E PUSH1 0x40 DUP3 ADD MSTORE POP JUMP JUMPDEST PUSH1 0x0 PUSH2 0x3760 PUSH1 0x60 DUP4 PUSH2 0x30C9 JUMP JUMPDEST SWAP2 POP PUSH2 0x376B DUP3 PUSH2 0x36DE JUMP JUMPDEST PUSH1 0x60 DUP3 ADD SWAP1 POP SWAP2 SWAP1 POP JUMP JUMPDEST PUSH1 0x0 PUSH1 0x20 DUP3 ADD SWAP1 POP DUP2 DUP2 SUB PUSH1 0x0 DUP4 ADD MSTORE PUSH2 0x378F DUP2 PUSH2 0x3753 JUMP JUMPDEST SWAP1 POP SWAP2 SWAP1 POP JUMP JUMPDEST PUSH32 0x41757468656E74696361746F723A20556E61626C6520746F2063726561746520 PUSH1 0x0 DUP3 ADD MSTORE PUSH32 0x62756E646C65206265636175736520746865726520697320616C726561647920 PUSH1 0x20 DUP3 ADD MSTORE PUSH32 0x612062756E646C6520776974682074686520676976656E206C6162656C2E0000 PUSH1 0x40 DUP3 ADD MSTORE POP JUMP JUMPDEST PUSH1 0x0 PUSH2 0x3818 PUSH1 0x5E DUP4 PUSH2 0x30C9 JUMP JUMPDEST SWAP2 POP PUSH2 0x3823 DUP3 PUSH2 0x3796 JUMP JUMPDEST PUSH1 0x60 DUP3 ADD SWAP1 POP SWAP2 SWAP1 POP JUMP JUMPDEST PUSH1 0x0 PUSH1 0x20 DUP3 ADD SWAP1 POP DUP2 DUP2 SUB PUSH1 0x0 DUP4 ADD MSTORE PUSH2 0x3847 DUP2 PUSH2 0x380B JUMP JUMPDEST SWAP1 POP SWAP2 SWAP1 POP JUMP JUMPDEST PUSH1 0x0 DUP2 MLOAD SWAP1 POP SWAP2 SWAP1 POP JUMP JUMPDEST PUSH1 0x0 DUP3 DUP3 MSTORE PUSH1 0x20 DUP3 ADD SWAP1 POP SWAP3 SWAP2 POP POP JUMP JUMPDEST PUSH1 0x0 DUP2 SWAP1 POP PUSH1 0x20 DUP3 ADD SWAP1 POP SWAP2 SWAP1 POP JUMP JUMPDEST PUSH1 0x0 DUP3 DUP3 MSTORE PUSH1 0x20 DUP3 ADD SWAP1 POP SWAP3 SWAP2 POP POP JUMP JUMPDEST PUSH1 0x0 PUSH2 0x3896 DUP3 PUSH2 0x2FD8 JUMP JUMPDEST PUSH2 0x38A0 DUP2 DUP6 PUSH2 0x387A JUMP JUMPDEST SWAP4 POP PUSH2 0x38B0 DUP2 DUP6 PUSH1 0x20 DUP7 ADD PUSH2 0x2FF4 JUMP JUMPDEST PUSH2 0x38B9 DUP2 PUSH2 0x2763 JUMP JUMPDEST DUP5 ADD SWAP2 POP POP SWAP3 SWAP2 POP POP JUMP JUMPDEST PUSH1 0x0 PUSH2 0x38D0 DUP4 DUP4 PUSH2 0x388B JUMP JUMPDEST SWAP1 POP SWAP3 SWAP2 POP POP JUMP JUMPDEST PUSH1 0x0 PUSH1 0x20 DUP3 ADD SWAP1 POP SWAP2 SWAP1 POP JUMP JUMPDEST PUSH1 0x0 PUSH2 0x38F0 DUP3 PUSH2 0x384E JUMP JUMPDEST PUSH2 0x38FA DUP2 DUP6 PUSH2 0x3859 JUMP JUMPDEST SWAP4 POP DUP4 PUSH1 0x20 DUP3 MUL DUP6 ADD PUSH2 0x390C DUP6 PUSH2 0x386A JUMP JUMPDEST DUP1 PUSH1 0x0 JUMPDEST DUP6 DUP2 LT ISZERO PUSH2 0x3948 JUMPI DUP5 DUP5 SUB DUP10 MSTORE DUP2 MLOAD PUSH2 0x3929 DUP6 DUP3 PUSH2 0x38C4 JUMP JUMPDEST SWAP5 POP PUSH2 0x3934 DUP4 PUSH2 0x38D8 JUMP JUMPDEST SWAP3 POP PUSH1 0x20 DUP11 ADD SWAP10 POP POP PUSH1 0x1 DUP2 ADD SWAP1 POP PUSH2 0x3910 JUMP JUMPDEST POP DUP3 SWAP8 POP DUP8 SWAP6 POP POP POP POP POP POP SWAP3 SWAP2 POP POP JUMP JUMPDEST PUSH1 0x0 DUP2 MLOAD SWAP1 POP SWAP2 SWAP1 POP JUMP JUMPDEST PUSH1 0x0 DUP3 DUP3 MSTORE PUSH1 0x20 DUP3 ADD SWAP1 POP SWAP3 SWAP2 POP POP JUMP JUMPDEST PUSH1 0x0 DUP2 SWAP1 POP PUSH1 0x20 DUP3 ADD SWAP1 POP SWAP2 SWAP1 POP JUMP JUMPDEST PUSH1 0x0 PUSH1 0x80 DUP4 ADD PUSH1 0x0 DUP4 ADD MLOAD DUP5 DUP3 SUB PUSH1 0x0 DUP7 ADD MSTORE PUSH2 0x39A3 DUP3 DUP3 PUSH2 0x388B JUMP JUMPDEST SWAP2 POP POP PUSH1 0x20 DUP4 ADD MLOAD PUSH2 0x39B8 PUSH1 0x20 DUP7 ADD DUP3 PUSH2 0x34FA JUMP JUMPDEST POP PUSH1 0x40 DUP4 ADD MLOAD PUSH2 0x39CB PUSH1 0x40 DUP7 ADD DUP3 PUSH2 0x34FA JUMP JUMPDEST POP PUSH1 0x60 DUP4 ADD MLOAD PUSH2 0x39DE PUSH1 0x60 DUP7 ADD DUP3 PUSH2 0x34FA JUMP JUMPDEST POP DUP1 SWAP2 POP POP SWAP3 SWAP2 POP POP JUMP JUMPDEST PUSH1 0x0 PUSH2 0x39F5 DUP4 DUP4 PUSH2 0x3986 JUMP JUMPDEST SWAP1 POP SWAP3 SWAP2 POP POP JUMP JUMPDEST PUSH1 0x0 PUSH1 0x20 DUP3 ADD SWAP1 POP SWAP2 SWAP1 POP JUMP JUMPDEST PUSH1 0x0 PUSH2 0x3A15 DUP3 PUSH2 0x395A JUMP JUMPDEST PUSH2 0x3A1F DUP2 DUP6 PUSH2 0x3965 JUMP JUMPDEST SWAP4 POP DUP4 PUSH1 0x20 DUP3 MUL DUP6 ADD PUSH2 0x3A31 DUP6 PUSH2 0x3976 JUMP JUMPDEST DUP1 PUSH1 0x0 JUMPDEST DUP6 DUP2 LT ISZERO PUSH2 0x3A6D JUMPI DUP5 DUP5 SUB DUP10 MSTORE DUP2 MLOAD PUSH2 0x3A4E DUP6 DUP3 PUSH2 0x39E9 JUMP JUMPDEST SWAP5 POP PUSH2 0x3A59 DUP4 PUSH2 0x39FD JUMP JUMPDEST SWAP3 POP PUSH1 0x20 DUP11 ADD SWAP10 POP POP PUSH1 0x1 DUP2 ADD SWAP1 POP PUSH2 0x3A35 JUMP JUMPDEST POP DUP3 SWAP8 POP DUP8 SWAP6 POP POP POP POP POP POP SWAP3 SWAP2 POP POP JUMP JUMPDEST PUSH1 0x0 PUSH1 0xA0 DUP3 ADD SWAP1 POP PUSH2 0x3A94 PUSH1 0x0 DUP4 ADD DUP9 PUSH2 0x31E5 JUMP JUMPDEST PUSH2 0x3AA1 PUSH1 0x20 DUP4 ADD DUP8 PUSH2 0x358C JUMP JUMPDEST DUP2 DUP2 SUB PUSH1 0x40 DUP4 ADD MSTORE PUSH2 0x3AB3 DUP2 DUP7 PUSH2 0x38E5 JUMP JUMPDEST SWAP1 POP DUP2 DUP2 SUB PUSH1 0x60 DUP4 ADD MSTORE PUSH2 0x3AC7 DUP2 DUP6 PUSH2 0x38E5 JUMP JUMPDEST SWAP1 POP DUP2 DUP2 SUB PUSH1 0x80 DUP4 ADD MSTORE PUSH2 0x3ADB DUP2 DUP5 PUSH2 0x3A0A JUMP JUMPDEST SWAP1 POP SWAP7 SWAP6 POP POP POP POP POP POP JUMP JUMPDEST PUSH32 0x41757468656E74696361746F723A20556E61626C6520746F20636F7079206275 PUSH1 0x0 DUP3 ADD MSTORE PUSH32 0x6E646C652062656361757365207468657265206973206E6F206578697374696E PUSH1 0x20 DUP3 ADD MSTORE PUSH32 0x672062756E646C6520776974682074686520676976656E206C6162656C2E0000 PUSH1 0x40 DUP3 ADD MSTORE POP JUMP JUMPDEST PUSH1 0x0 PUSH2 0x3B69 PUSH1 0x5E DUP4 PUSH2 0x30C9 JUMP JUMPDEST SWAP2 POP PUSH2 0x3B74 DUP3 PUSH2 0x3AE7 JUMP JUMPDEST PUSH1 0x60 DUP3 ADD SWAP1 POP SWAP2 SWAP1 POP JUMP JUMPDEST PUSH1 0x0 PUSH1 0x20 DUP3 ADD SWAP1 POP DUP2 DUP2 SUB PUSH1 0x0 DUP4 ADD MSTORE PUSH2 0x3B98 DUP2 PUSH2 0x3B5C JUMP JUMPDEST SWAP1 POP SWAP2 SWAP1 POP JUMP JUMPDEST PUSH1 0x0 PUSH1 0x60 DUP3 ADD SWAP1 POP PUSH2 0x3BB4 PUSH1 0x0 DUP4 ADD DUP7 PUSH2 0x31EC JUMP JUMPDEST PUSH2 0x3BC1 PUSH1 0x20 DUP4 ADD DUP6 PUSH2 0x31E5 JUMP JUMPDEST PUSH2 0x3BCE PUSH1 0x40 DUP4 ADD DUP5 PUSH2 0x358C JUMP JUMPDEST SWAP5 SWAP4 POP POP POP POP JUMP JUMPDEST PUSH32 0x41757468656E74696361746F723A20556E61626C6520746F20636F7079206275 PUSH1 0x0 DUP3 ADD MSTORE PUSH32 0x6E646C652064756520746F20756E7375636365737366756C2065786563757469 PUSH1 0x20 DUP3 ADD MSTORE PUSH32 0x6F6E2E0000000000000000000000000000000000000000000000000000000000 PUSH1 0x40 DUP3 ADD MSTORE POP JUMP JUMPDEST PUSH1 0x0 PUSH2 0x3C58 PUSH1 0x43 DUP4 PUSH2 0x30C9 JUMP JUMPDEST SWAP2 POP PUSH2 0x3C63 DUP3 PUSH2 0x3BD6 JUMP JUMPDEST PUSH1 0x60 DUP3 ADD SWAP1 POP SWAP2 SWAP1 POP JUMP JUMPDEST PUSH1 0x0 PUSH1 0x20 DUP3 ADD SWAP1 POP DUP2 DUP2 SUB PUSH1 0x0 DUP4 ADD MSTORE PUSH2 0x3C87 DUP2 PUSH2 0x3C4B JUMP JUMPDEST SWAP1 POP SWAP2 SWAP1 POP JUMP JUMPDEST PUSH32 0x41757468656E74696361746F723A20556E61626C6520746F2064656C65746520 PUSH1 0x0 DUP3 ADD MSTORE PUSH32 0x62756E646C652062656361757365207468657265206973206E6F206578697374 PUSH1 0x20 DUP3 ADD MSTORE PUSH32 0x696E672062756E646C6520776974682074686520676976656E206C6162656C2E PUSH1 0x40 DUP3 ADD MSTORE POP JUMP JUMPDEST PUSH1 0x0 PUSH2 0x3D10 PUSH1 0x60 DUP4 PUSH2 0x30C9 JUMP JUMPDEST SWAP2 POP PUSH2 0x3D1B DUP3 PUSH2 0x3C8E JUMP JUMPDEST PUSH1 0x60 DUP3 ADD SWAP1 POP SWAP2 SWAP1 POP JUMP JUMPDEST PUSH1 0x0 PUSH1 0x20 DUP3 ADD SWAP1 POP DUP2 DUP2 SUB PUSH1 0x0 DUP4 ADD MSTORE PUSH2 0x3D3F DUP2 PUSH2 0x3D03 JUMP JUMPDEST SWAP1 POP SWAP2 SWAP1 POP JUMP JUMPDEST PUSH1 0x0 PUSH1 0x40 DUP3 ADD SWAP1 POP PUSH2 0x3D5B PUSH1 0x0 DUP4 ADD DUP6 PUSH2 0x31E5 JUMP JUMPDEST PUSH2 0x3D68 PUSH1 0x20 DUP4 ADD DUP5 PUSH2 0x31EC JUMP JUMPDEST SWAP4 SWAP3 POP POP POP JUMP JUMPDEST PUSH32 0x41757468656E74696361746F723A20556E61626C6520746F2064656C65746520 PUSH1 0x0 DUP3 ADD MSTORE PUSH32 0x62756E646C652064756520746F20756E7375636365737366756C206578656375 PUSH1 0x20 DUP3 ADD MSTORE PUSH32 0x74696F6E2E000000000000000000000000000000000000000000000000000000 PUSH1 0x40 DUP3 ADD MSTORE POP JUMP JUMPDEST PUSH1 0x0 PUSH2 0x3DF1 PUSH1 0x45 DUP4 PUSH2 0x30C9 JUMP JUMPDEST SWAP2 POP PUSH2 0x3DFC DUP3 PUSH2 0x3D6F JUMP JUMPDEST PUSH1 0x60 DUP3 ADD SWAP1 POP SWAP2 SWAP1 POP JUMP JUMPDEST PUSH1 0x0 PUSH1 0x20 DUP3 ADD SWAP1 POP DUP2 DUP2 SUB PUSH1 0x0 DUP4 ADD MSTORE PUSH2 0x3E20 DUP2 PUSH2 0x3DE4 JUMP JUMPDEST SWAP1 POP SWAP2 SWAP1 POP JUMP INVALID PUSH2 0x7574 PUSH9 0x656E74696361746F72 0x2D PUSH8 0x72616E742D636F6E PUSH20 0x756D61626C652D6B657961757468656E74696361 PUSH21 0x6F722D7265766F6B652D7374616E646172642D6B65 PUSH26 0xA2646970667358221220284097FC7B9AB68E2E7A24BBCBF84509 0x4E SWAP10 PUSH32 0xFF29C363012887DCF91277F3664736F6C634300081300330000000000000000 "
		},
		"gasEstimates": {
			"creation": {
				"codeDepositCost": "3206400",
				"executionCost": "3547",
				"totalCost": "3209947"
			},
			"external": {
				"addressToAccountsMapping(address)": "2904",
				"authenticate(address,string,bool,bool,bool)": "infinite",
				"authenticateConsumableKey(address,string)": "infinite",
				"consume(address,string)": "infinite",
				"copyBundle(string,string)": "infinite",
				"createBundle(string,string[],string[],(string,uint256,uint256,uint256)[])": "infinite",
				"deleteBundle(string)": "infinite",
				"grantBundle(address,string)": "infinite",
				"grantConsumableKey(address,string)": "infinite",
				"grantStandardKey(address,string)": "infinite",
				"grantTimedKey(address,string,uint256,uint256)": "infinite",
				"labelToBundlesMapping(string)": "infinite",
				"mergeBundles(string[],string)": "infinite",
				"revokeBundle(address,string)": "infinite",
				"revokeStandardKey(address,string)": "infinite",
				"revokeTimedKey(address,string)": "infinite",
				"tracker()": "2553"
			},
			"internal": {
				"_isExistingBundle(string memory)": "infinite"
			}
		},
		"methodIdentifiers": {
			"addressToAccountsMapping(address)": "3e788dc9",
			"authenticate(address,string,bool,bool,bool)": "5cadd0f2",
			"authenticateConsumableKey(address,string)": "69c01b67",
			"consume(address,string)": "c47bbe12",
			"copyBundle(string,string)": "c967490f",
			"createBundle(string,string[],string[],(string,uint256,uint256,uint256)[])": "b61ae7ff",
			"deleteBundle(string)": "e4ef519f",
			"grantBundle(address,string)": "41d9ff9c",
			"grantConsumableKey(address,string)": "20d9438d",
			"grantStandardKey(address,string)": "ed044679",
			"grantTimedKey(address,string,uint256,uint256)": "4a48613c",
			"labelToBundlesMapping(string)": "ebab61c6",
			"mergeBundles(string[],string)": "87557828",
			"revokeBundle(address,string)": "960c04af",
			"revokeStandardKey(address,string)": "0c099382",
			"revokeTimedKey(address,string)": "34bae16d",
			"tracker()": "f52bccad"
		}
	},
	"abi": [
		{
			"inputs": [],
			"stateMutability": "nonpayable",
			"type": "constructor"
		},
		{
			"inputs": [
				{
					"internalType": "address",
					"name": "",
					"type": "address"
				}
			],
			"name": "addressToAccountsMapping",
			"outputs": [
				{
					"internalType": "uint256",
					"name": "",
					"type": "uint256"
				}
			],
			"stateMutability": "view",
			"type": "function"
		},
		{
			"inputs": [
				{
					"internalType": "address",
					"name": "from",
					"type": "address"
				},
				{
					"internalType": "string",
					"name": "requiredKey",
					"type": "string"
				},
				{
					"internalType": "bool",
					"name": "lookForStandardKey",
					"type": "bool"
				},
				{
					"internalType": "bool",
					"name": "lookForConsumableKey",
					"type": "bool"
				},
				{
					"internalType": "bool",
					"name": "lookForTimedKey",
					"type": "bool"
				}
			],
			"name": "authenticate",
			"outputs": [
				{
					"internalType": "bool",
					"name": "",
					"type": "bool"
				}
			],
			"stateMutability": "nonpayable",
			"type": "function"
		},
		{
			"inputs": [
				{
					"internalType": "address",
					"name": "from",
					"type": "address"
				},
				{
					"internalType": "string",
					"name": "requiredKey",
					"type": "string"
				}
			],
			"name": "authenticateConsumableKey",
			"outputs": [
				{
					"internalType": "bool",
					"name": "",
					"type": "bool"
				}
			],
			"stateMutability": "nonpayable",
			"type": "function"
		},
		{
			"inputs": [
				{
					"internalType": "address",
					"name": "from",
					"type": "address"
				},
				{
					"internalType": "string",
					"name": "key",
					"type": "string"
				}
			],
			"name": "consume",
			"outputs": [
				{
					"internalType": "bool",
					"name": "",
					"type": "bool"
				}
			],
			"stateMutability": "nonpayable",
			"type": "function"
		},
		{
			"inputs": [
				{
					"internalType": "string",
					"name": "labelA",
					"type": "string"
				},
				{
					"internalType": "string",
					"name": "labelB",
					"type": "string"
				}
			],
			"name": "copyBundle",
			"outputs": [
				{
					"internalType": "bool",
					"name": "",
					"type": "bool"
				},
				{
					"internalType": "uint256",
					"name": "",
					"type": "uint256"
				}
			],
			"stateMutability": "nonpayable",
			"type": "function"
		},
		{
			"inputs": [
				{
					"internalType": "string",
					"name": "label",
					"type": "string"
				},
				{
					"internalType": "string[]",
					"name": "keys",
					"type": "string[]"
				},
				{
					"internalType": "string[]",
					"name": "consumableKeys",
					"type": "string[]"
				},
				{
					"components": [
						{
							"internalType": "string",
							"name": "key",
							"type": "string"
						},
						{
							"internalType": "uint256",
							"name": "startTimestamp",
							"type": "uint256"
						},
						{
							"internalType": "uint256",
							"name": "endTimestamp",
							"type": "uint256"
						},
						{
							"internalType": "uint256",
							"name": "duration",
							"type": "uint256"
						}
					],
					"internalType": "struct Lib.TimedKey[]",
					"name": "timedKeys",
					"type": "tuple[]"
				}
			],
			"name": "createBundle",
			"outputs": [
				{
					"internalType": "bool",
					"name": "",
					"type": "bool"
				},
				{
					"internalType": "uint256",
					"name": "",
					"type": "uint256"
				}
			],
			"stateMutability": "nonpayable",
			"type": "function"
		},
		{
			"inputs": [
				{
					"internalType": "string",
					"name": "label",
					"type": "string"
				}
			],
			"name": "deleteBundle",
			"outputs": [
				{
					"internalType": "bool",
					"name": "",
					"type": "bool"
				}
			],
			"stateMutability": "nonpayable",
			"type": "function"
		},
		{
			"inputs": [
				{
					"internalType": "address",
					"name": "to",
					"type": "address"
				},
				{
					"internalType": "string",
					"name": "label",
					"type": "string"
				}
			],
			"name": "grantBundle",
			"outputs": [
				{
					"internalType": "bool",
					"name": "",
					"type": "bool"
				}
			],
			"stateMutability": "nonpayable",
			"type": "function"
		},
		{
			"inputs": [
				{
					"internalType": "address",
					"name": "to",
					"type": "address"
				},
				{
					"internalType": "string",
					"name": "key",
					"type": "string"
				}
			],
			"name": "grantConsumableKey",
			"outputs": [
				{
					"internalType": "bool",
					"name": "",
					"type": "bool"
				}
			],
			"stateMutability": "nonpayable",
			"type": "function"
		},
		{
			"inputs": [
				{
					"internalType": "address",
					"name": "to",
					"type": "address"
				},
				{
					"internalType": "string",
					"name": "key",
					"type": "string"
				}
			],
			"name": "grantStandardKey",
			"outputs": [
				{
					"internalType": "bool",
					"name": "",
					"type": "bool"
				}
			],
			"stateMutability": "nonpayable",
			"type": "function"
		},
		{
			"inputs": [
				{
					"internalType": "address",
					"name": "to",
					"type": "address"
				},
				{
					"internalType": "string",
					"name": "key",
					"type": "string"
				},
				{
					"internalType": "uint256",
					"name": "startTimestamp",
					"type": "uint256"
				},
				{
					"internalType": "uint256",
					"name": "duration",
					"type": "uint256"
				}
			],
			"name": "grantTimedKey",
			"outputs": [
				{
					"internalType": "bool",
					"name": "",
					"type": "bool"
				}
			],
			"stateMutability": "nonpayable",
			"type": "function"
		},
		{
			"inputs": [
				{
					"internalType": "string",
					"name": "",
					"type": "string"
				}
			],
			"name": "labelToBundlesMapping",
			"outputs": [
				{
					"internalType": "uint256",
					"name": "",
					"type": "uint256"
				}
			],
			"stateMutability": "view",
			"type": "function"
		},
		{
			"inputs": [
				{
					"internalType": "string[]",
					"name": "mergedBundlesLabels",
					"type": "string[]"
				},
				{
					"internalType": "string",
					"name": "label",
					"type": "string"
				}
			],
			"name": "mergeBundles",
			"outputs": [
				{
					"internalType": "bool",
					"name": "",
					"type": "bool"
				},
				{
					"internalType": "uint256",
					"name": "",
					"type": "uint256"
				}
			],
			"stateMutability": "nonpayable",
			"type": "function"
		},
		{
			"inputs": [
				{
					"internalType": "address",
					"name": "from",
					"type": "address"
				},
				{
					"internalType": "string",
					"name": "label",
					"type": "string"
				}
			],
			"name": "revokeBundle",
			"outputs": [
				{
					"internalType": "bool",
					"name": "",
					"type": "bool"
				}
			],
			"stateMutability": "nonpayable",
			"type": "function"
		},
		{
			"inputs": [
				{
					"internalType": "address",
					"name": "from",
					"type": "address"
				},
				{
					"internalType": "string",
					"name": "key",
					"type": "string"
				}
			],
			"name": "revokeStandardKey",
			"outputs": [
				{
					"internalType": "bool",
					"name": "",
					"type": "bool"
				}
			],
			"stateMutability": "nonpayable",
			"type": "function"
		},
		{
			"inputs": [
				{
					"internalType": "address",
					"name": "from",
					"type": "address"
				},
				{
					"internalType": "string",
					"name": "key",
					"type": "string"
				}
			],
			"name": "revokeTimedKey",
			"outputs": [
				{
					"internalType": "bool",
					"name": "",
					"type": "bool"
				}
			],
			"stateMutability": "nonpayable",
			"type": "function"
		},
		{
			"inputs": [],
			"name": "tracker",
			"outputs": [
				{
					"internalType": "uint256",
					"name": "numBundles",
					"type": "uint256"
				}
			],
			"stateMutability": "view",
			"type": "function"
		}
	]
}