{
	"data": {
		"bytecode": {
			"linkReferences": {},
			"object": "60806040526040516200392d3803806200392d833981810160405281019062000029919062000630565b6000429050600085826200003e919062000750565b90506000339050662386f26fc1000034101562000092576040517f08c379a00000000000000000000000000000000000000000000000000000000081526004016200008990620007ec565b60405180910390fd5b6001881015620000d9576040517f08c379a0000000000000000000000000000000000000000000000000000000008152600401620000d0906200085e565b60405180910390fd5b62093a8087101562000122576040517f08c379a00000000000000000000000000000000000000000000000000000000081526004016200011990620008d0565b60405180910390fd5b6301baf8008711156200016c576040517f08c379a0000000000000000000000000000000000000000000000000000000008152600401620001639062000968565b60405180910390fd5b6000861015620001b3576040517f08c379a0000000000000000000000000000000000000000000000000000000008152600401620001aa90620009da565b60405180910390fd5b600073ffffffffffffffffffffffffffffffffffffffff168173ffffffffffffffffffffffffffffffffffffffff160362000225576040517f08c379a00000000000000000000000000000000000000000000000000000000081526004016200021c9062000a4c565b60405180910390fd5b806000806101000a81548173ffffffffffffffffffffffffffffffffffffffff021916908373ffffffffffffffffffffffffffffffffffffffff16021790555082600260000181905550816002800181905550866002600101819055508560026003018190555084600260050160006101000a81548160ff02191690831515021790555083600160000160006101000a81548160ff0219169083151502179055508989604051620002d69062000417565b620002e392919062000aba565b604051809103906000f08015801562000300573d6000803e3d6000fd5b50600960006101000a81548173ffffffffffffffffffffffffffffffffffffffff021916908373ffffffffffffffffffffffffffffffffffffffff160217905550600960009054906101000a900473ffffffffffffffffffffffffffffffffffffffff1673ffffffffffffffffffffffffffffffffffffffff166340c10f1960008054906101000a900473ffffffffffffffffffffffffffffffffffffffff168a6040518363ffffffff1660e01b8152600401620003c092919062000b4b565b6020604051808303816000875af1158015620003e0573d6000803e3d6000fd5b505050506040513d601f19601f8201168201806040525081019062000406919062000b78565b505050505050505050505062000baa565b6120ce806200185f83390190565b6000604051905090565b600080fd5b600080fd5b600080fd5b600080fd5b6000601f19601f8301169050919050565b7f4e487b7100000000000000000000000000000000000000000000000000000000600052604160045260246000fd5b6200048e8262000443565b810181811067ffffffffffffffff82111715620004b057620004af62000454565b5b80604052505050565b6000620004c562000425565b9050620004d3828262000483565b919050565b600067ffffffffffffffff821115620004f657620004f562000454565b5b620005018262000443565b9050602081019050919050565b60005b838110156200052e57808201518184015260208101905062000511565b60008484015250505050565b6000620005516200054b84620004d8565b620004b9565b90508281526020810184848401111562000570576200056f6200043e565b5b6200057d8482856200050e565b509392505050565b600082601f8301126200059d576200059c62000439565b5b8151620005af8482602086016200053a565b91505092915050565b6000819050919050565b620005cd81620005b8565b8114620005d957600080fd5b50565b600081519050620005ed81620005c2565b92915050565b60008115159050919050565b6200060a81620005f3565b81146200061657600080fd5b50565b6000815190506200062a81620005ff565b92915050565b600080600080600080600060e0888a0312156200065257620006516200042f565b5b600088015167ffffffffffffffff81111562000673576200067262000434565b5b620006818a828b0162000585565b975050602088015167ffffffffffffffff811115620006a557620006a462000434565b5b620006b38a828b0162000585565b9650506040620006c68a828b01620005dc565b9550506060620006d98a828b01620005dc565b9450506080620006ec8a828b01620005dc565b93505060a0620006ff8a828b0162000619565b92505060c0620007128a828b0162000619565b91505092959891949750929550565b7f4e487b7100000000000000000000000000000000000000000000000000000000600052601160045260246000fd5b60006200075d82620005b8565b91506200076a83620005b8565b925082820190508082111562000785576200078462000721565b5b92915050565b600082825260208201905092915050565b7f506f6f6c3a206d73672e76616c7565203c20302e3031202a2031302a2a313800600082015250565b6000620007d4601f836200078b565b9150620007e1826200079c565b602082019050919050565b600060208201905081810360008301526200080781620007c5565b9050919050565b7f506f6f6c3a205f746b6e496e697469616c537570706c79203c20310000000000600082015250565b600062000846601b836200078b565b915062000853826200080e565b602082019050919050565b60006020820190508181036000830152620008798162000837565b9050919050565b7f506f6f6c3a205f66756e64696e674475726174696f6e203c2031207765656b73600082015250565b6000620008b86020836200078b565b9150620008c58262000880565b602082019050919050565b60006020820190508181036000830152620008eb81620008a9565b9050919050565b7f506f6f6c3a205f66756e64696e674475726174696f6e203e203438207765656b60008201527f7300000000000000000000000000000000000000000000000000000000000000602082015250565b6000620009506021836200078b565b91506200095d82620008f2565b604082019050919050565b60006020820190508181036000830152620009838162000941565b9050919050565b7f506f6f6c3a205f66756e64696e674d696e203c20300000000000000000000000600082015250565b6000620009c26015836200078b565b9150620009cf826200098a565b602082019050919050565b60006020820190508181036000830152620009f581620009b3565b9050919050565b7f506f6f6c3a205f63726561746f72203d3d206164647265737328302900000000600082015250565b600062000a34601c836200078b565b915062000a4182620009fc565b602082019050919050565b6000602082019050818103600083015262000a678162000a25565b9050919050565b600081519050919050565b600062000a868262000a6e565b62000a9281856200078b565b935062000aa48185602086016200050e565b62000aaf8162000443565b840191505092915050565b6000604082019050818103600083015262000ad6818562000a79565b9050818103602083015262000aec818462000a79565b90509392505050565b600073ffffffffffffffffffffffffffffffffffffffff82169050919050565b600062000b228262000af5565b9050919050565b62000b348162000b15565b82525050565b62000b4581620005b8565b82525050565b600060408201905062000b62600083018562000b29565b62000b71602083018462000b3a565b9392505050565b60006020828403121562000b915762000b906200042f565b5b600062000ba18482850162000619565b91505092915050565b610ca58062000bba6000396000f3fe6080604052600436106100555760003560e01c80632e1a7d4d1461005a57806391756d1f14610097578063a9059cbb146100d4578063a9e10bf214610111578063d7bb99ba1461012f578063da934a031461014d575b600080fd5b34801561006657600080fd5b50610081600480360381019061007c9190610862565b61018a565b60405161008e91906108aa565b60405180910390f35b3480156100a357600080fd5b506100be60048036038101906100b99190610923565b61034d565b6040516100cb91906108aa565b60405180910390f35b3480156100e057600080fd5b506100fb60048036038101906100f69190610950565b6103a3565b60405161010891906108aa565b60405180910390f35b6101196104b7565b60405161012691906108aa565b60405180910390f35b610137610519565b60405161014491906108aa565b60405180910390f35b34801561015957600080fd5b50610174600480360381019061016f91906109bc565b61076b565b60405161018191906108aa565b60405180910390f35b600080670de0b6b3a7640000600960009054906101000a900473ffffffffffffffffffffffffffffffffffffffff1673ffffffffffffffffffffffffffffffffffffffff166318160ddd6040518163ffffffff1660e01b8152600401602060405180830381865afa158015610203573d6000803e3d6000fd5b505050506040513d601f19601f820116820180604052508101906102279190610a11565b6102319190610a9c565b9050600047905060008282866102479190610acd565b6102519190610a9c565b90506000339050600960009054906101000a900473ffffffffffffffffffffffffffffffffffffffff1673ffffffffffffffffffffffffffffffffffffffff16639dc29fac33886040518363ffffffff1660e01b81526004016102b5929190610b2d565b6020604051808303816000875af11580156102d4573d6000803e3d6000fd5b505050506040513d601f19601f820116820180604052508101906102f89190610b6b565b508073ffffffffffffffffffffffffffffffffffffffff166108fc839081150290604051600060405180830381858888f1935050505015801561033f573d6000803e3d6000fd5b506001945050505050919050565b6000600860008373ffffffffffffffffffffffffffffffffffffffff1673ffffffffffffffffffffffffffffffffffffffff16815260200190815260200160002060009054906101000a900460ff169050919050565b60008060009054906101000a900473ffffffffffffffffffffffffffffffffffffffff1673ffffffffffffffffffffffffffffffffffffffff163373ffffffffffffffffffffffffffffffffffffffff16146103fe57600080fd5b6000839050600160000160009054906101000a900460ff16801561044f5750600073ffffffffffffffffffffffffffffffffffffffff168173ffffffffffffffffffffffffffffffffffffffff1614155b801561045c575060008310155b61046557600080fd5b8073ffffffffffffffffffffffffffffffffffffffff166108fc849081150290604051600060405180830381858888f193505050501580156104ab573d6000803e3d6000fd5b50600191505092915050565b60008060009054906101000a900473ffffffffffffffffffffffffffffffffffffffff1673ffffffffffffffffffffffffffffffffffffffff163373ffffffffffffffffffffffffffffffffffffffff161461051257600080fd5b6001905090565b6000600260050160009054906101000a900460ff1680156105835750600860003373ffffffffffffffffffffffffffffffffffffffff1673ffffffffffffffffffffffffffffffffffffffff16815260200190815260200160002060009054906101000a900460ff165b6105c2576040517f08c379a00000000000000000000000000000000000000000000000000000000081526004016105b990610c1b565b60405180910390fd5b60003490506000670de0b6b3a7640000600960009054906101000a900473ffffffffffffffffffffffffffffffffffffffff1673ffffffffffffffffffffffffffffffffffffffff166318160ddd6040518163ffffffff1660e01b8152600401602060405180830381865afa15801561063f573d6000803e3d6000fd5b505050506040513d601f19601f820116820180604052508101906106639190610a11565b61066d9190610a9c565b90506000824761067d9190610c3b565b9050600081838561068e9190610acd565b6106989190610a9c565b90506000841180156106aa5750600083115b80156106b65750600082115b6106bf57600080fd5b600960009054906101000a900473ffffffffffffffffffffffffffffffffffffffff1673ffffffffffffffffffffffffffffffffffffffff166340c10f1933836040518363ffffffff1660e01b815260040161071c929190610b2d565b6020604051808303816000875af115801561073b573d6000803e3d6000fd5b505050506040513d601f19601f8201168201806040525081019061075f9190610b6b565b50600194505050505090565b60008060009054906101000a900473ffffffffffffffffffffffffffffffffffffffff1673ffffffffffffffffffffffffffffffffffffffff163373ffffffffffffffffffffffffffffffffffffffff16146107c657600080fd5b81600860008573ffffffffffffffffffffffffffffffffffffffff1673ffffffffffffffffffffffffffffffffffffffff16815260200190815260200160002060006101000a81548160ff0219169083151502179055506001905092915050565b600080fd5b6000819050919050565b61083f8161082c565b811461084a57600080fd5b50565b60008135905061085c81610836565b92915050565b60006020828403121561087857610877610827565b5b60006108868482850161084d565b91505092915050565b60008115159050919050565b6108a48161088f565b82525050565b60006020820190506108bf600083018461089b565b92915050565b600073ffffffffffffffffffffffffffffffffffffffff82169050919050565b60006108f0826108c5565b9050919050565b610900816108e5565b811461090b57600080fd5b50565b60008135905061091d816108f7565b92915050565b60006020828403121561093957610938610827565b5b60006109478482850161090e565b91505092915050565b6000806040838503121561096757610966610827565b5b60006109758582860161090e565b92505060206109868582860161084d565b9150509250929050565b6109998161088f565b81146109a457600080fd5b50565b6000813590506109b681610990565b92915050565b600080604083850312156109d3576109d2610827565b5b60006109e18582860161090e565b92505060206109f2858286016109a7565b9150509250929050565b600081519050610a0b81610836565b92915050565b600060208284031215610a2757610a26610827565b5b6000610a35848285016109fc565b91505092915050565b7f4e487b7100000000000000000000000000000000000000000000000000000000600052601260045260246000fd5b7f4e487b7100000000000000000000000000000000000000000000000000000000600052601160045260246000fd5b6000610aa78261082c565b9150610ab28361082c565b925082610ac257610ac1610a3e565b5b828204905092915050565b6000610ad88261082c565b9150610ae38361082c565b9250828202610af18161082c565b91508282048414831517610b0857610b07610a6d565b5b5092915050565b610b18816108e5565b82525050565b610b278161082c565b82525050565b6000604082019050610b426000830185610b0f565b610b4f6020830184610b1e565b9392505050565b600081519050610b6581610990565b92915050565b600060208284031215610b8157610b80610827565b5b6000610b8f84828501610b56565b91505092915050565b600082825260208201905092915050565b7f66756e64696e672e6f6e6c79566572696669656420213d2074727565207c7c2060008201527f6d73672e73656e64657220213d20766572696669656400000000000000000000602082015250565b6000610c05603683610b98565b9150610c1082610ba9565b604082019050919050565b60006020820190508181036000830152610c3481610bf8565b9050919050565b6000610c468261082c565b9150610c518361082c565b9250828203905081811115610c6957610c68610a6d565b5b9291505056fea26469706673582212206fd7fdfb7fd6bca6043316de03a36ea64d4f30f0fae5c005bb16738c1a3e561c64736f6c6343000812003360806040523480156200001157600080fd5b50604051620020ce380380620020ce83398181016040528101906200003791906200023b565b818181600390816200004a91906200050b565b5080600490816200005c91906200050b565b50505033600560006101000a81548173ffffffffffffffffffffffffffffffffffffffff021916908373ffffffffffffffffffffffffffffffffffffffff1602179055505050620005f2565b6000604051905090565b600080fd5b600080fd5b600080fd5b600080fd5b6000601f19601f8301169050919050565b7f4e487b7100000000000000000000000000000000000000000000000000000000600052604160045260246000fd5b6200011182620000c6565b810181811067ffffffffffffffff82111715620001335762000132620000d7565b5b80604052505050565b600062000148620000a8565b905062000156828262000106565b919050565b600067ffffffffffffffff821115620001795762000178620000d7565b5b6200018482620000c6565b9050602081019050919050565b60005b83811015620001b157808201518184015260208101905062000194565b60008484015250505050565b6000620001d4620001ce846200015b565b6200013c565b905082815260208101848484011115620001f357620001f2620000c1565b5b6200020084828562000191565b509392505050565b600082601f83011262000220576200021f620000bc565b5b815162000232848260208601620001bd565b91505092915050565b60008060408385031215620002555762000254620000b2565b5b600083015167ffffffffffffffff811115620002765762000275620000b7565b5b620002848582860162000208565b925050602083015167ffffffffffffffff811115620002a857620002a7620000b7565b5b620002b68582860162000208565b9150509250929050565b600081519050919050565b7f4e487b7100000000000000000000000000000000000000000000000000000000600052602260045260246000fd5b600060028204905060018216806200031357607f821691505b602082108103620003295762000328620002cb565b5b50919050565b60008190508160005260206000209050919050565b60006020601f8301049050919050565b600082821b905092915050565b600060088302620003937fffffffffffffffffffffffffffffffffffffffffffffffffffffffffffffffff8262000354565b6200039f868362000354565b95508019841693508086168417925050509392505050565b6000819050919050565b6000819050919050565b6000620003ec620003e6620003e084620003b7565b620003c1565b620003b7565b9050919050565b6000819050919050565b6200040883620003cb565b620004206200041782620003f3565b84845462000361565b825550505050565b600090565b6200043762000428565b62000444818484620003fd565b505050565b5b818110156200046c57620004606000826200042d565b6001810190506200044a565b5050565b601f821115620004bb5762000485816200032f565b620004908462000344565b81016020851015620004a0578190505b620004b8620004af8562000344565b83018262000449565b50505b505050565b600082821c905092915050565b6000620004e060001984600802620004c0565b1980831691505092915050565b6000620004fb8383620004cd565b9150826002028217905092915050565b6200051682620002c0565b67ffffffffffffffff811115620005325762000531620000d7565b5b6200053e8254620002fa565b6200054b82828562000470565b600060209050601f8311600181146200058357600084156200056e578287015190505b6200057a8582620004ed565b865550620005ea565b601f19841662000593866200032f565b60005b82811015620005bd5784890151825560018201915060208501945060208101905062000596565b86831015620005dd5784890151620005d9601f891682620004cd565b8355505b6001600288020188555050505b505050505050565b611acc80620006026000396000f3fe608060405234801561001057600080fd5b50600436106100cf5760003560e01c806340c10f191161008c5780639dc29fac116100665780639dc29fac1461023c578063a457c2d71461026c578063a9059cbb1461029c578063dd62ed3e146102cc576100cf565b806340c10f19146101be57806370a08231146101ee57806395d89b411461021e576100cf565b806306fdde03146100d4578063095ea7b3146100f257806318160ddd1461012257806323b872dd14610140578063313ce56714610170578063395093511461018e575b600080fd5b6100dc6102fc565b6040516100e991906110b3565b60405180910390f35b61010c6004803603810190610107919061116e565b61038e565b60405161011991906111c9565b60405180910390f35b61012a6103b1565b60405161013791906111f3565b60405180910390f35b61015a6004803603810190610155919061120e565b6103bb565b60405161016791906111c9565b60405180910390f35b6101786103ea565b604051610185919061127d565b60405180910390f35b6101a860048036038101906101a3919061116e565b6103f3565b6040516101b591906111c9565b60405180910390f35b6101d860048036038101906101d3919061116e565b61042a565b6040516101e591906111c9565b60405180910390f35b61020860048036038101906102039190611298565b610529565b60405161021591906111f3565b60405180910390f35b610226610571565b60405161023391906110b3565b60405180910390f35b6102566004803603810190610251919061116e565b610603565b60405161026391906111c9565b60405180910390f35b6102866004803603810190610281919061116e565b610702565b60405161029391906111c9565b60405180910390f35b6102b660048036038101906102b1919061116e565b610779565b6040516102c391906111c9565b60405180910390f35b6102e660048036038101906102e191906112c5565b61079c565b6040516102f391906111f3565b60405180910390f35b60606003805461030b90611334565b80601f016020809104026020016040519081016040528092919081815260200182805461033790611334565b80156103845780601f1061035957610100808354040283529160200191610384565b820191906000526020600020905b81548152906001019060200180831161036757829003601f168201915b5050505050905090565b600080610399610823565b90506103a681858561082b565b600191505092915050565b6000600254905090565b6000806103c6610823565b90506103d38582856109f4565b6103de858585610a80565b60019150509392505050565b60006012905090565b6000806103fe610823565b905061041f818585610410858961079c565b61041a9190611394565b61082b565b600191505092915050565b6000600560009054906101000a900473ffffffffffffffffffffffffffffffffffffffff1673ffffffffffffffffffffffffffffffffffffffff163373ffffffffffffffffffffffffffffffffffffffff161480156104b65750600073ffffffffffffffffffffffffffffffffffffffff168373ffffffffffffffffffffffffffffffffffffffff1614155b80156104c3575060008210155b610502576040517f08c379a00000000000000000000000000000000000000000000000000000000081526004016104f99061143a565b60405180910390fd5b61051f83670de0b6b3a76400008461051a919061145a565b610cf6565b6001905092915050565b60008060008373ffffffffffffffffffffffffffffffffffffffff1673ffffffffffffffffffffffffffffffffffffffff168152602001908152602001600020549050919050565b60606004805461058090611334565b80601f01602080910402602001604051908101604052809291908181526020018280546105ac90611334565b80156105f95780601f106105ce576101008083540402835291602001916105f9565b820191906000526020600020905b8154815290600101906020018083116105dc57829003601f168201915b5050505050905090565b6000600560009054906101000a900473ffffffffffffffffffffffffffffffffffffffff1673ffffffffffffffffffffffffffffffffffffffff163373ffffffffffffffffffffffffffffffffffffffff1614801561068f5750600073ffffffffffffffffffffffffffffffffffffffff168373ffffffffffffffffffffffffffffffffffffffff1614155b801561069c575060008210155b6106db576040517f08c379a00000000000000000000000000000000000000000000000000000000081526004016106d29061150e565b60405180910390fd5b6106f883670de0b6b3a7640000846106f3919061145a565b610e4c565b6001905092915050565b60008061070d610823565b9050600061071b828661079c565b905083811015610760576040517f08c379a0000000000000000000000000000000000000000000000000000000008152600401610757906115a0565b60405180910390fd5b61076d828686840361082b565b60019250505092915050565b600080610784610823565b9050610791818585610a80565b600191505092915050565b6000600160008473ffffffffffffffffffffffffffffffffffffffff1673ffffffffffffffffffffffffffffffffffffffff16815260200190815260200160002060008373ffffffffffffffffffffffffffffffffffffffff1673ffffffffffffffffffffffffffffffffffffffff16815260200190815260200160002054905092915050565b600033905090565b600073ffffffffffffffffffffffffffffffffffffffff168373ffffffffffffffffffffffffffffffffffffffff160361089a576040517f08c379a000000000000000000000000000000000000000000000000000000000815260040161089190611632565b60405180910390fd5b600073ffffffffffffffffffffffffffffffffffffffff168273ffffffffffffffffffffffffffffffffffffffff1603610909576040517f08c379a0000000000000000000000000000000000000000000000000000000008152600401610900906116c4565b60405180910390fd5b80600160008573ffffffffffffffffffffffffffffffffffffffff1673ffffffffffffffffffffffffffffffffffffffff16815260200190815260200160002060008473ffffffffffffffffffffffffffffffffffffffff1673ffffffffffffffffffffffffffffffffffffffff168152602001908152602001600020819055508173ffffffffffffffffffffffffffffffffffffffff168373ffffffffffffffffffffffffffffffffffffffff167f8c5be1e5ebec7d5bd14f71427d1e84f3dd0314c0f7b2291e5b200ac8c7c3b925836040516109e791906111f3565b60405180910390a3505050565b6000610a00848461079c565b90507fffffffffffffffffffffffffffffffffffffffffffffffffffffffffffffffff8114610a7a5781811015610a6c576040517f08c379a0000000000000000000000000000000000000000000000000000000008152600401610a6390611730565b60405180910390fd5b610a79848484840361082b565b5b50505050565b600073ffffffffffffffffffffffffffffffffffffffff168373ffffffffffffffffffffffffffffffffffffffff1603610aef576040517f08c379a0000000000000000000000000000000000000000000000000000000008152600401610ae6906117c2565b60405180910390fd5b600073ffffffffffffffffffffffffffffffffffffffff168273ffffffffffffffffffffffffffffffffffffffff1603610b5e576040517f08c379a0000000000000000000000000000000000000000000000000000000008152600401610b5590611854565b60405180910390fd5b610b69838383611019565b60008060008573ffffffffffffffffffffffffffffffffffffffff1673ffffffffffffffffffffffffffffffffffffffff16815260200190815260200160002054905081811015610bef576040517f08c379a0000000000000000000000000000000000000000000000000000000008152600401610be6906118e6565b60405180910390fd5b8181036000808673ffffffffffffffffffffffffffffffffffffffff1673ffffffffffffffffffffffffffffffffffffffff16815260200190815260200160002081905550816000808573ffffffffffffffffffffffffffffffffffffffff1673ffffffffffffffffffffffffffffffffffffffff168152602001908152602001600020600082825401925050819055508273ffffffffffffffffffffffffffffffffffffffff168473ffffffffffffffffffffffffffffffffffffffff167fddf252ad1be2c89b69c2b068fc378daa952ba7f163c4a11628f55a4df523b3ef84604051610cdd91906111f3565b60405180910390a3610cf084848461101e565b50505050565b600073ffffffffffffffffffffffffffffffffffffffff168273ffffffffffffffffffffffffffffffffffffffff1603610d65576040517f08c379a0000000000000000000000000000000000000000000000000000000008152600401610d5c90611952565b60405180910390fd5b610d7160008383611019565b8060026000828254610d839190611394565b92505081905550806000808473ffffffffffffffffffffffffffffffffffffffff1673ffffffffffffffffffffffffffffffffffffffff168152602001908152602001600020600082825401925050819055508173ffffffffffffffffffffffffffffffffffffffff16600073ffffffffffffffffffffffffffffffffffffffff167fddf252ad1be2c89b69c2b068fc378daa952ba7f163c4a11628f55a4df523b3ef83604051610e3491906111f3565b60405180910390a3610e486000838361101e565b5050565b600073ffffffffffffffffffffffffffffffffffffffff168273ffffffffffffffffffffffffffffffffffffffff1603610ebb576040517f08c379a0000000000000000000000000000000000000000000000000000000008152600401610eb2906119e4565b60405180910390fd5b610ec782600083611019565b60008060008473ffffffffffffffffffffffffffffffffffffffff1673ffffffffffffffffffffffffffffffffffffffff16815260200190815260200160002054905081811015610f4d576040517f08c379a0000000000000000000000000000000000000000000000000000000008152600401610f4490611a76565b60405180910390fd5b8181036000808573ffffffffffffffffffffffffffffffffffffffff1673ffffffffffffffffffffffffffffffffffffffff1681526020019081526020016000208190555081600260008282540392505081905550600073ffffffffffffffffffffffffffffffffffffffff168373ffffffffffffffffffffffffffffffffffffffff167fddf252ad1be2c89b69c2b068fc378daa952ba7f163c4a11628f55a4df523b3ef8460405161100091906111f3565b60405180910390a36110148360008461101e565b505050565b505050565b505050565b600081519050919050565b600082825260208201905092915050565b60005b8381101561105d578082015181840152602081019050611042565b60008484015250505050565b6000601f19601f8301169050919050565b600061108582611023565b61108f818561102e565b935061109f81856020860161103f565b6110a881611069565b840191505092915050565b600060208201905081810360008301526110cd818461107a565b905092915050565b600080fd5b600073ffffffffffffffffffffffffffffffffffffffff82169050919050565b6000611105826110da565b9050919050565b611115816110fa565b811461112057600080fd5b50565b6000813590506111328161110c565b92915050565b6000819050919050565b61114b81611138565b811461115657600080fd5b50565b60008135905061116881611142565b92915050565b60008060408385031215611185576111846110d5565b5b600061119385828601611123565b92505060206111a485828601611159565b9150509250929050565b60008115159050919050565b6111c3816111ae565b82525050565b60006020820190506111de60008301846111ba565b92915050565b6111ed81611138565b82525050565b600060208201905061120860008301846111e4565b92915050565b600080600060608486031215611227576112266110d5565b5b600061123586828701611123565b935050602061124686828701611123565b925050604061125786828701611159565b9150509250925092565b600060ff82169050919050565b61127781611261565b82525050565b6000602082019050611292600083018461126e565b92915050565b6000602082840312156112ae576112ad6110d5565b5b60006112bc84828501611123565b91505092915050565b600080604083850312156112dc576112db6110d5565b5b60006112ea85828601611123565b92505060206112fb85828601611123565b9150509250929050565b7f4e487b7100000000000000000000000000000000000000000000000000000000600052602260045260246000fd5b6000600282049050600182168061134c57607f821691505b60208210810361135f5761135e611305565b5b50919050565b7f4e487b7100000000000000000000000000000000000000000000000000000000600052601160045260246000fd5b600061139f82611138565b91506113aa83611138565b92508282019050808211156113c2576113c1611365565b5b92915050565b7f546f6b656e3a206d73672e73656e64657220213d206f776e6572207c7c205f7460008201527f6f203d3d2061646472657373283029207c7c205f76616c7565203c2030000000602082015250565b6000611424603d8361102e565b915061142f826113c8565b604082019050919050565b6000602082019050818103600083015261145381611417565b9050919050565b600061146582611138565b915061147083611138565b925082820261147e81611138565b9150828204841483151761149557611494611365565b5b5092915050565b7f546f6b656e3a206d73672e73656e64657220213d206f776e6572207c7c205f6660008201527f726f6d203d3d2061646472657373283029207c7c205f76616c7565203c203000602082015250565b60006114f8603f8361102e565b91506115038261149c565b604082019050919050565b60006020820190508181036000830152611527816114eb565b9050919050565b7f45524332303a2064656372656173656420616c6c6f77616e63652062656c6f7760008201527f207a65726f000000000000000000000000000000000000000000000000000000602082015250565b600061158a60258361102e565b91506115958261152e565b604082019050919050565b600060208201905081810360008301526115b98161157d565b9050919050565b7f45524332303a20617070726f76652066726f6d20746865207a65726f2061646460008201527f7265737300000000000000000000000000000000000000000000000000000000602082015250565b600061161c60248361102e565b9150611627826115c0565b604082019050919050565b6000602082019050818103600083015261164b8161160f565b9050919050565b7f45524332303a20617070726f766520746f20746865207a65726f20616464726560008201527f7373000000000000000000000000000000000000000000000000000000000000602082015250565b60006116ae60228361102e565b91506116b982611652565b604082019050919050565b600060208201905081810360008301526116dd816116a1565b9050919050565b7f45524332303a20696e73756666696369656e7420616c6c6f77616e6365000000600082015250565b600061171a601d8361102e565b9150611725826116e4565b602082019050919050565b600060208201905081810360008301526117498161170d565b9050919050565b7f45524332303a207472616e736665722066726f6d20746865207a65726f20616460008201527f6472657373000000000000000000000000000000000000000000000000000000602082015250565b60006117ac60258361102e565b91506117b782611750565b604082019050919050565b600060208201905081810360008301526117db8161179f565b9050919050565b7f45524332303a207472616e7366657220746f20746865207a65726f206164647260008201527f6573730000000000000000000000000000000000000000000000000000000000602082015250565b600061183e60238361102e565b9150611849826117e2565b604082019050919050565b6000602082019050818103600083015261186d81611831565b9050919050565b7f45524332303a207472616e7366657220616d6f756e742065786365656473206260008201527f616c616e63650000000000000000000000000000000000000000000000000000602082015250565b60006118d060268361102e565b91506118db82611874565b604082019050919050565b600060208201905081810360008301526118ff816118c3565b9050919050565b7f45524332303a206d696e7420746f20746865207a65726f206164647265737300600082015250565b600061193c601f8361102e565b915061194782611906565b602082019050919050565b6000602082019050818103600083015261196b8161192f565b9050919050565b7f45524332303a206275726e2066726f6d20746865207a65726f2061646472657360008201527f7300000000000000000000000000000000000000000000000000000000000000602082015250565b60006119ce60218361102e565b91506119d982611972565b604082019050919050565b600060208201905081810360008301526119fd816119c1565b9050919050565b7f45524332303a206275726e20616d6f756e7420657863656564732062616c616e60008201527f6365000000000000000000000000000000000000000000000000000000000000602082015250565b6000611a6060228361102e565b9150611a6b82611a04565b604082019050919050565b60006020820190508181036000830152611a8f81611a53565b905091905056fea264697066735822122038f9379e3393bb1d93098255c5c0bf0c6153b33f525aa652c9ac202ff45b749764736f6c63430008120033",
			"opcodes": "PUSH1 0x80 PUSH1 0x40 MSTORE PUSH1 0x40 MLOAD PUSH3 0x392D CODESIZE SUB DUP1 PUSH3 0x392D DUP4 CODECOPY DUP2 DUP2 ADD PUSH1 0x40 MSTORE DUP2 ADD SWAP1 PUSH3 0x29 SWAP2 SWAP1 PUSH3 0x630 JUMP JUMPDEST PUSH1 0x0 TIMESTAMP SWAP1 POP PUSH1 0x0 DUP6 DUP3 PUSH3 0x3E SWAP2 SWAP1 PUSH3 0x750 JUMP JUMPDEST SWAP1 POP PUSH1 0x0 CALLER SWAP1 POP PUSH7 0x2386F26FC10000 CALLVALUE LT ISZERO PUSH3 0x92 JUMPI PUSH1 0x40 MLOAD PUSH32 0x8C379A000000000000000000000000000000000000000000000000000000000 DUP2 MSTORE PUSH1 0x4 ADD PUSH3 0x89 SWAP1 PUSH3 0x7EC JUMP JUMPDEST PUSH1 0x40 MLOAD DUP1 SWAP2 SUB SWAP1 REVERT JUMPDEST PUSH1 0x1 DUP9 LT ISZERO PUSH3 0xD9 JUMPI PUSH1 0x40 MLOAD PUSH32 0x8C379A000000000000000000000000000000000000000000000000000000000 DUP2 MSTORE PUSH1 0x4 ADD PUSH3 0xD0 SWAP1 PUSH3 0x85E JUMP JUMPDEST PUSH1 0x40 MLOAD DUP1 SWAP2 SUB SWAP1 REVERT JUMPDEST PUSH3 0x93A80 DUP8 LT ISZERO PUSH3 0x122 JUMPI PUSH1 0x40 MLOAD PUSH32 0x8C379A000000000000000000000000000000000000000000000000000000000 DUP2 MSTORE PUSH1 0x4 ADD PUSH3 0x119 SWAP1 PUSH3 0x8D0 JUMP JUMPDEST PUSH1 0x40 MLOAD DUP1 SWAP2 SUB SWAP1 REVERT JUMPDEST PUSH4 0x1BAF800 DUP8 GT ISZERO PUSH3 0x16C JUMPI PUSH1 0x40 MLOAD PUSH32 0x8C379A000000000000000000000000000000000000000000000000000000000 DUP2 MSTORE PUSH1 0x4 ADD PUSH3 0x163 SWAP1 PUSH3 0x968 JUMP JUMPDEST PUSH1 0x40 MLOAD DUP1 SWAP2 SUB SWAP1 REVERT JUMPDEST PUSH1 0x0 DUP7 LT ISZERO PUSH3 0x1B3 JUMPI PUSH1 0x40 MLOAD PUSH32 0x8C379A000000000000000000000000000000000000000000000000000000000 DUP2 MSTORE PUSH1 0x4 ADD PUSH3 0x1AA SWAP1 PUSH3 0x9DA JUMP JUMPDEST PUSH1 0x40 MLOAD DUP1 SWAP2 SUB SWAP1 REVERT JUMPDEST PUSH1 0x0 PUSH20 0xFFFFFFFFFFFFFFFFFFFFFFFFFFFFFFFFFFFFFFFF AND DUP2 PUSH20 0xFFFFFFFFFFFFFFFFFFFFFFFFFFFFFFFFFFFFFFFF AND SUB PUSH3 0x225 JUMPI PUSH1 0x40 MLOAD PUSH32 0x8C379A000000000000000000000000000000000000000000000000000000000 DUP2 MSTORE PUSH1 0x4 ADD PUSH3 0x21C SWAP1 PUSH3 0xA4C JUMP JUMPDEST PUSH1 0x40 MLOAD DUP1 SWAP2 SUB SWAP1 REVERT JUMPDEST DUP1 PUSH1 0x0 DUP1 PUSH2 0x100 EXP DUP2 SLOAD DUP2 PUSH20 0xFFFFFFFFFFFFFFFFFFFFFFFFFFFFFFFFFFFFFFFF MUL NOT AND SWAP1 DUP4 PUSH20 0xFFFFFFFFFFFFFFFFFFFFFFFFFFFFFFFFFFFFFFFF AND MUL OR SWAP1 SSTORE POP DUP3 PUSH1 0x2 PUSH1 0x0 ADD DUP2 SWAP1 SSTORE POP DUP2 PUSH1 0x2 DUP1 ADD DUP2 SWAP1 SSTORE POP DUP7 PUSH1 0x2 PUSH1 0x1 ADD DUP2 SWAP1 SSTORE POP DUP6 PUSH1 0x2 PUSH1 0x3 ADD DUP2 SWAP1 SSTORE POP DUP5 PUSH1 0x2 PUSH1 0x5 ADD PUSH1 0x0 PUSH2 0x100 EXP DUP2 SLOAD DUP2 PUSH1 0xFF MUL NOT AND SWAP1 DUP4 ISZERO ISZERO MUL OR SWAP1 SSTORE POP DUP4 PUSH1 0x1 PUSH1 0x0 ADD PUSH1 0x0 PUSH2 0x100 EXP DUP2 SLOAD DUP2 PUSH1 0xFF MUL NOT AND SWAP1 DUP4 ISZERO ISZERO MUL OR SWAP1 SSTORE POP DUP10 DUP10 PUSH1 0x40 MLOAD PUSH3 0x2D6 SWAP1 PUSH3 0x417 JUMP JUMPDEST PUSH3 0x2E3 SWAP3 SWAP2 SWAP1 PUSH3 0xABA JUMP JUMPDEST PUSH1 0x40 MLOAD DUP1 SWAP2 SUB SWAP1 PUSH1 0x0 CREATE DUP1 ISZERO DUP1 ISZERO PUSH3 0x300 JUMPI RETURNDATASIZE PUSH1 0x0 DUP1 RETURNDATACOPY RETURNDATASIZE PUSH1 0x0 REVERT JUMPDEST POP PUSH1 0x9 PUSH1 0x0 PUSH2 0x100 EXP DUP2 SLOAD DUP2 PUSH20 0xFFFFFFFFFFFFFFFFFFFFFFFFFFFFFFFFFFFFFFFF MUL NOT AND SWAP1 DUP4 PUSH20 0xFFFFFFFFFFFFFFFFFFFFFFFFFFFFFFFFFFFFFFFF AND MUL OR SWAP1 SSTORE POP PUSH1 0x9 PUSH1 0x0 SWAP1 SLOAD SWAP1 PUSH2 0x100 EXP SWAP1 DIV PUSH20 0xFFFFFFFFFFFFFFFFFFFFFFFFFFFFFFFFFFFFFFFF AND PUSH20 0xFFFFFFFFFFFFFFFFFFFFFFFFFFFFFFFFFFFFFFFF AND PUSH4 0x40C10F19 PUSH1 0x0 DUP1 SLOAD SWAP1 PUSH2 0x100 EXP SWAP1 DIV PUSH20 0xFFFFFFFFFFFFFFFFFFFFFFFFFFFFFFFFFFFFFFFF AND DUP11 PUSH1 0x40 MLOAD DUP4 PUSH4 0xFFFFFFFF AND PUSH1 0xE0 SHL DUP2 MSTORE PUSH1 0x4 ADD PUSH3 0x3C0 SWAP3 SWAP2 SWAP1 PUSH3 0xB4B JUMP JUMPDEST PUSH1 0x20 PUSH1 0x40 MLOAD DUP1 DUP4 SUB DUP2 PUSH1 0x0 DUP8 GAS CALL ISZERO DUP1 ISZERO PUSH3 0x3E0 JUMPI RETURNDATASIZE PUSH1 0x0 DUP1 RETURNDATACOPY RETURNDATASIZE PUSH1 0x0 REVERT JUMPDEST POP POP POP POP PUSH1 0x40 MLOAD RETURNDATASIZE PUSH1 0x1F NOT PUSH1 0x1F DUP3 ADD AND DUP3 ADD DUP1 PUSH1 0x40 MSTORE POP DUP2 ADD SWAP1 PUSH3 0x406 SWAP2 SWAP1 PUSH3 0xB78 JUMP JUMPDEST POP POP POP POP POP POP POP POP POP POP POP PUSH3 0xBAA JUMP JUMPDEST PUSH2 0x20CE DUP1 PUSH3 0x185F DUP4 CODECOPY ADD SWAP1 JUMP JUMPDEST PUSH1 0x0 PUSH1 0x40 MLOAD SWAP1 POP SWAP1 JUMP JUMPDEST PUSH1 0x0 DUP1 REVERT JUMPDEST PUSH1 0x0 DUP1 REVERT JUMPDEST PUSH1 0x0 DUP1 REVERT JUMPDEST PUSH1 0x0 DUP1 REVERT JUMPDEST PUSH1 0x0 PUSH1 0x1F NOT PUSH1 0x1F DUP4 ADD AND SWAP1 POP SWAP2 SWAP1 POP JUMP JUMPDEST PUSH32 0x4E487B7100000000000000000000000000000000000000000000000000000000 PUSH1 0x0 MSTORE PUSH1 0x41 PUSH1 0x4 MSTORE PUSH1 0x24 PUSH1 0x0 REVERT JUMPDEST PUSH3 0x48E DUP3 PUSH3 0x443 JUMP JUMPDEST DUP2 ADD DUP2 DUP2 LT PUSH8 0xFFFFFFFFFFFFFFFF DUP3 GT OR ISZERO PUSH3 0x4B0 JUMPI PUSH3 0x4AF PUSH3 0x454 JUMP JUMPDEST JUMPDEST DUP1 PUSH1 0x40 MSTORE POP POP POP JUMP JUMPDEST PUSH1 0x0 PUSH3 0x4C5 PUSH3 0x425 JUMP JUMPDEST SWAP1 POP PUSH3 0x4D3 DUP3 DUP3 PUSH3 0x483 JUMP JUMPDEST SWAP2 SWAP1 POP JUMP JUMPDEST PUSH1 0x0 PUSH8 0xFFFFFFFFFFFFFFFF DUP3 GT ISZERO PUSH3 0x4F6 JUMPI PUSH3 0x4F5 PUSH3 0x454 JUMP JUMPDEST JUMPDEST PUSH3 0x501 DUP3 PUSH3 0x443 JUMP JUMPDEST SWAP1 POP PUSH1 0x20 DUP2 ADD SWAP1 POP SWAP2 SWAP1 POP JUMP JUMPDEST PUSH1 0x0 JUMPDEST DUP4 DUP2 LT ISZERO PUSH3 0x52E JUMPI DUP1 DUP3 ADD MLOAD DUP2 DUP5 ADD MSTORE PUSH1 0x20 DUP2 ADD SWAP1 POP PUSH3 0x511 JUMP JUMPDEST PUSH1 0x0 DUP5 DUP5 ADD MSTORE POP POP POP POP JUMP JUMPDEST PUSH1 0x0 PUSH3 0x551 PUSH3 0x54B DUP5 PUSH3 0x4D8 JUMP JUMPDEST PUSH3 0x4B9 JUMP JUMPDEST SWAP1 POP DUP3 DUP2 MSTORE PUSH1 0x20 DUP2 ADD DUP5 DUP5 DUP5 ADD GT ISZERO PUSH3 0x570 JUMPI PUSH3 0x56F PUSH3 0x43E JUMP JUMPDEST JUMPDEST PUSH3 0x57D DUP5 DUP3 DUP6 PUSH3 0x50E JUMP JUMPDEST POP SWAP4 SWAP3 POP POP POP JUMP JUMPDEST PUSH1 0x0 DUP3 PUSH1 0x1F DUP4 ADD SLT PUSH3 0x59D JUMPI PUSH3 0x59C PUSH3 0x439 JUMP JUMPDEST JUMPDEST DUP2 MLOAD PUSH3 0x5AF DUP5 DUP3 PUSH1 0x20 DUP7 ADD PUSH3 0x53A JUMP JUMPDEST SWAP2 POP POP SWAP3 SWAP2 POP POP JUMP JUMPDEST PUSH1 0x0 DUP2 SWAP1 POP SWAP2 SWAP1 POP JUMP JUMPDEST PUSH3 0x5CD DUP2 PUSH3 0x5B8 JUMP JUMPDEST DUP2 EQ PUSH3 0x5D9 JUMPI PUSH1 0x0 DUP1 REVERT JUMPDEST POP JUMP JUMPDEST PUSH1 0x0 DUP2 MLOAD SWAP1 POP PUSH3 0x5ED DUP2 PUSH3 0x5C2 JUMP JUMPDEST SWAP3 SWAP2 POP POP JUMP JUMPDEST PUSH1 0x0 DUP2 ISZERO ISZERO SWAP1 POP SWAP2 SWAP1 POP JUMP JUMPDEST PUSH3 0x60A DUP2 PUSH3 0x5F3 JUMP JUMPDEST DUP2 EQ PUSH3 0x616 JUMPI PUSH1 0x0 DUP1 REVERT JUMPDEST POP JUMP JUMPDEST PUSH1 0x0 DUP2 MLOAD SWAP1 POP PUSH3 0x62A DUP2 PUSH3 0x5FF JUMP JUMPDEST SWAP3 SWAP2 POP POP JUMP JUMPDEST PUSH1 0x0 DUP1 PUSH1 0x0 DUP1 PUSH1 0x0 DUP1 PUSH1 0x0 PUSH1 0xE0 DUP9 DUP11 SUB SLT ISZERO PUSH3 0x652 JUMPI PUSH3 0x651 PUSH3 0x42F JUMP JUMPDEST JUMPDEST PUSH1 0x0 DUP9 ADD MLOAD PUSH8 0xFFFFFFFFFFFFFFFF DUP2 GT ISZERO PUSH3 0x673 JUMPI PUSH3 0x672 PUSH3 0x434 JUMP JUMPDEST JUMPDEST PUSH3 0x681 DUP11 DUP3 DUP12 ADD PUSH3 0x585 JUMP JUMPDEST SWAP8 POP POP PUSH1 0x20 DUP9 ADD MLOAD PUSH8 0xFFFFFFFFFFFFFFFF DUP2 GT ISZERO PUSH3 0x6A5 JUMPI PUSH3 0x6A4 PUSH3 0x434 JUMP JUMPDEST JUMPDEST PUSH3 0x6B3 DUP11 DUP3 DUP12 ADD PUSH3 0x585 JUMP JUMPDEST SWAP7 POP POP PUSH1 0x40 PUSH3 0x6C6 DUP11 DUP3 DUP12 ADD PUSH3 0x5DC JUMP JUMPDEST SWAP6 POP POP PUSH1 0x60 PUSH3 0x6D9 DUP11 DUP3 DUP12 ADD PUSH3 0x5DC JUMP JUMPDEST SWAP5 POP POP PUSH1 0x80 PUSH3 0x6EC DUP11 DUP3 DUP12 ADD PUSH3 0x5DC JUMP JUMPDEST SWAP4 POP POP PUSH1 0xA0 PUSH3 0x6FF DUP11 DUP3 DUP12 ADD PUSH3 0x619 JUMP JUMPDEST SWAP3 POP POP PUSH1 0xC0 PUSH3 0x712 DUP11 DUP3 DUP12 ADD PUSH3 0x619 JUMP JUMPDEST SWAP2 POP POP SWAP3 SWAP6 SWAP9 SWAP2 SWAP5 SWAP8 POP SWAP3 SWAP6 POP JUMP JUMPDEST PUSH32 0x4E487B7100000000000000000000000000000000000000000000000000000000 PUSH1 0x0 MSTORE PUSH1 0x11 PUSH1 0x4 MSTORE PUSH1 0x24 PUSH1 0x0 REVERT JUMPDEST PUSH1 0x0 PUSH3 0x75D DUP3 PUSH3 0x5B8 JUMP JUMPDEST SWAP2 POP PUSH3 0x76A DUP4 PUSH3 0x5B8 JUMP JUMPDEST SWAP3 POP DUP3 DUP3 ADD SWAP1 POP DUP1 DUP3 GT ISZERO PUSH3 0x785 JUMPI PUSH3 0x784 PUSH3 0x721 JUMP JUMPDEST JUMPDEST SWAP3 SWAP2 POP POP JUMP JUMPDEST PUSH1 0x0 DUP3 DUP3 MSTORE PUSH1 0x20 DUP3 ADD SWAP1 POP SWAP3 SWAP2 POP POP JUMP JUMPDEST PUSH32 0x506F6F6C3A206D73672E76616C7565203C20302E3031202A2031302A2A313800 PUSH1 0x0 DUP3 ADD MSTORE POP JUMP JUMPDEST PUSH1 0x0 PUSH3 0x7D4 PUSH1 0x1F DUP4 PUSH3 0x78B JUMP JUMPDEST SWAP2 POP PUSH3 0x7E1 DUP3 PUSH3 0x79C JUMP JUMPDEST PUSH1 0x20 DUP3 ADD SWAP1 POP SWAP2 SWAP1 POP JUMP JUMPDEST PUSH1 0x0 PUSH1 0x20 DUP3 ADD SWAP1 POP DUP2 DUP2 SUB PUSH1 0x0 DUP4 ADD MSTORE PUSH3 0x807 DUP2 PUSH3 0x7C5 JUMP JUMPDEST SWAP1 POP SWAP2 SWAP1 POP JUMP JUMPDEST PUSH32 0x506F6F6C3A205F746B6E496E697469616C537570706C79203C20310000000000 PUSH1 0x0 DUP3 ADD MSTORE POP JUMP JUMPDEST PUSH1 0x0 PUSH3 0x846 PUSH1 0x1B DUP4 PUSH3 0x78B JUMP JUMPDEST SWAP2 POP PUSH3 0x853 DUP3 PUSH3 0x80E JUMP JUMPDEST PUSH1 0x20 DUP3 ADD SWAP1 POP SWAP2 SWAP1 POP JUMP JUMPDEST PUSH1 0x0 PUSH1 0x20 DUP3 ADD SWAP1 POP DUP2 DUP2 SUB PUSH1 0x0 DUP4 ADD MSTORE PUSH3 0x879 DUP2 PUSH3 0x837 JUMP JUMPDEST SWAP1 POP SWAP2 SWAP1 POP JUMP JUMPDEST PUSH32 0x506F6F6C3A205F66756E64696E674475726174696F6E203C2031207765656B73 PUSH1 0x0 DUP3 ADD MSTORE POP JUMP JUMPDEST PUSH1 0x0 PUSH3 0x8B8 PUSH1 0x20 DUP4 PUSH3 0x78B JUMP JUMPDEST SWAP2 POP PUSH3 0x8C5 DUP3 PUSH3 0x880 JUMP JUMPDEST PUSH1 0x20 DUP3 ADD SWAP1 POP SWAP2 SWAP1 POP JUMP JUMPDEST PUSH1 0x0 PUSH1 0x20 DUP3 ADD SWAP1 POP DUP2 DUP2 SUB PUSH1 0x0 DUP4 ADD MSTORE PUSH3 0x8EB DUP2 PUSH3 0x8A9 JUMP JUMPDEST SWAP1 POP SWAP2 SWAP1 POP JUMP JUMPDEST PUSH32 0x506F6F6C3A205F66756E64696E674475726174696F6E203E203438207765656B PUSH1 0x0 DUP3 ADD MSTORE PUSH32 0x7300000000000000000000000000000000000000000000000000000000000000 PUSH1 0x20 DUP3 ADD MSTORE POP JUMP JUMPDEST PUSH1 0x0 PUSH3 0x950 PUSH1 0x21 DUP4 PUSH3 0x78B JUMP JUMPDEST SWAP2 POP PUSH3 0x95D DUP3 PUSH3 0x8F2 JUMP JUMPDEST PUSH1 0x40 DUP3 ADD SWAP1 POP SWAP2 SWAP1 POP JUMP JUMPDEST PUSH1 0x0 PUSH1 0x20 DUP3 ADD SWAP1 POP DUP2 DUP2 SUB PUSH1 0x0 DUP4 ADD MSTORE PUSH3 0x983 DUP2 PUSH3 0x941 JUMP JUMPDEST SWAP1 POP SWAP2 SWAP1 POP JUMP JUMPDEST PUSH32 0x506F6F6C3A205F66756E64696E674D696E203C20300000000000000000000000 PUSH1 0x0 DUP3 ADD MSTORE POP JUMP JUMPDEST PUSH1 0x0 PUSH3 0x9C2 PUSH1 0x15 DUP4 PUSH3 0x78B JUMP JUMPDEST SWAP2 POP PUSH3 0x9CF DUP3 PUSH3 0x98A JUMP JUMPDEST PUSH1 0x20 DUP3 ADD SWAP1 POP SWAP2 SWAP1 POP JUMP JUMPDEST PUSH1 0x0 PUSH1 0x20 DUP3 ADD SWAP1 POP DUP2 DUP2 SUB PUSH1 0x0 DUP4 ADD MSTORE PUSH3 0x9F5 DUP2 PUSH3 0x9B3 JUMP JUMPDEST SWAP1 POP SWAP2 SWAP1 POP JUMP JUMPDEST PUSH32 0x506F6F6C3A205F63726561746F72203D3D206164647265737328302900000000 PUSH1 0x0 DUP3 ADD MSTORE POP JUMP JUMPDEST PUSH1 0x0 PUSH3 0xA34 PUSH1 0x1C DUP4 PUSH3 0x78B JUMP JUMPDEST SWAP2 POP PUSH3 0xA41 DUP3 PUSH3 0x9FC JUMP JUMPDEST PUSH1 0x20 DUP3 ADD SWAP1 POP SWAP2 SWAP1 POP JUMP JUMPDEST PUSH1 0x0 PUSH1 0x20 DUP3 ADD SWAP1 POP DUP2 DUP2 SUB PUSH1 0x0 DUP4 ADD MSTORE PUSH3 0xA67 DUP2 PUSH3 0xA25 JUMP JUMPDEST SWAP1 POP SWAP2 SWAP1 POP JUMP JUMPDEST PUSH1 0x0 DUP2 MLOAD SWAP1 POP SWAP2 SWAP1 POP JUMP JUMPDEST PUSH1 0x0 PUSH3 0xA86 DUP3 PUSH3 0xA6E JUMP JUMPDEST PUSH3 0xA92 DUP2 DUP6 PUSH3 0x78B JUMP JUMPDEST SWAP4 POP PUSH3 0xAA4 DUP2 DUP6 PUSH1 0x20 DUP7 ADD PUSH3 0x50E JUMP JUMPDEST PUSH3 0xAAF DUP2 PUSH3 0x443 JUMP JUMPDEST DUP5 ADD SWAP2 POP POP SWAP3 SWAP2 POP POP JUMP JUMPDEST PUSH1 0x0 PUSH1 0x40 DUP3 ADD SWAP1 POP DUP2 DUP2 SUB PUSH1 0x0 DUP4 ADD MSTORE PUSH3 0xAD6 DUP2 DUP6 PUSH3 0xA79 JUMP JUMPDEST SWAP1 POP DUP2 DUP2 SUB PUSH1 0x20 DUP4 ADD MSTORE PUSH3 0xAEC DUP2 DUP5 PUSH3 0xA79 JUMP JUMPDEST SWAP1 POP SWAP4 SWAP3 POP POP POP JUMP JUMPDEST PUSH1 0x0 PUSH20 0xFFFFFFFFFFFFFFFFFFFFFFFFFFFFFFFFFFFFFFFF DUP3 AND SWAP1 POP SWAP2 SWAP1 POP JUMP JUMPDEST PUSH1 0x0 PUSH3 0xB22 DUP3 PUSH3 0xAF5 JUMP JUMPDEST SWAP1 POP SWAP2 SWAP1 POP JUMP JUMPDEST PUSH3 0xB34 DUP2 PUSH3 0xB15 JUMP JUMPDEST DUP3 MSTORE POP POP JUMP JUMPDEST PUSH3 0xB45 DUP2 PUSH3 0x5B8 JUMP JUMPDEST DUP3 MSTORE POP POP JUMP JUMPDEST PUSH1 0x0 PUSH1 0x40 DUP3 ADD SWAP1 POP PUSH3 0xB62 PUSH1 0x0 DUP4 ADD DUP6 PUSH3 0xB29 JUMP JUMPDEST PUSH3 0xB71 PUSH1 0x20 DUP4 ADD DUP5 PUSH3 0xB3A JUMP JUMPDEST SWAP4 SWAP3 POP POP POP JUMP JUMPDEST PUSH1 0x0 PUSH1 0x20 DUP3 DUP5 SUB SLT ISZERO PUSH3 0xB91 JUMPI PUSH3 0xB90 PUSH3 0x42F JUMP JUMPDEST JUMPDEST PUSH1 0x0 PUSH3 0xBA1 DUP5 DUP3 DUP6 ADD PUSH3 0x619 JUMP JUMPDEST SWAP2 POP POP SWAP3 SWAP2 POP POP JUMP JUMPDEST PUSH2 0xCA5 DUP1 PUSH3 0xBBA PUSH1 0x0 CODECOPY PUSH1 0x0 RETURN INVALID PUSH1 0x80 PUSH1 0x40 MSTORE PUSH1 0x4 CALLDATASIZE LT PUSH2 0x55 JUMPI PUSH1 0x0 CALLDATALOAD PUSH1 0xE0 SHR DUP1 PUSH4 0x2E1A7D4D EQ PUSH2 0x5A JUMPI DUP1 PUSH4 0x91756D1F EQ PUSH2 0x97 JUMPI DUP1 PUSH4 0xA9059CBB EQ PUSH2 0xD4 JUMPI DUP1 PUSH4 0xA9E10BF2 EQ PUSH2 0x111 JUMPI DUP1 PUSH4 0xD7BB99BA EQ PUSH2 0x12F JUMPI DUP1 PUSH4 0xDA934A03 EQ PUSH2 0x14D JUMPI JUMPDEST PUSH1 0x0 DUP1 REVERT JUMPDEST CALLVALUE DUP1 ISZERO PUSH2 0x66 JUMPI PUSH1 0x0 DUP1 REVERT JUMPDEST POP PUSH2 0x81 PUSH1 0x4 DUP1 CALLDATASIZE SUB DUP2 ADD SWAP1 PUSH2 0x7C SWAP2 SWAP1 PUSH2 0x862 JUMP JUMPDEST PUSH2 0x18A JUMP JUMPDEST PUSH1 0x40 MLOAD PUSH2 0x8E SWAP2 SWAP1 PUSH2 0x8AA JUMP JUMPDEST PUSH1 0x40 MLOAD DUP1 SWAP2 SUB SWAP1 RETURN JUMPDEST CALLVALUE DUP1 ISZERO PUSH2 0xA3 JUMPI PUSH1 0x0 DUP1 REVERT JUMPDEST POP PUSH2 0xBE PUSH1 0x4 DUP1 CALLDATASIZE SUB DUP2 ADD SWAP1 PUSH2 0xB9 SWAP2 SWAP1 PUSH2 0x923 JUMP JUMPDEST PUSH2 0x34D JUMP JUMPDEST PUSH1 0x40 MLOAD PUSH2 0xCB SWAP2 SWAP1 PUSH2 0x8AA JUMP JUMPDEST PUSH1 0x40 MLOAD DUP1 SWAP2 SUB SWAP1 RETURN JUMPDEST CALLVALUE DUP1 ISZERO PUSH2 0xE0 JUMPI PUSH1 0x0 DUP1 REVERT JUMPDEST POP PUSH2 0xFB PUSH1 0x4 DUP1 CALLDATASIZE SUB DUP2 ADD SWAP1 PUSH2 0xF6 SWAP2 SWAP1 PUSH2 0x950 JUMP JUMPDEST PUSH2 0x3A3 JUMP JUMPDEST PUSH1 0x40 MLOAD PUSH2 0x108 SWAP2 SWAP1 PUSH2 0x8AA JUMP JUMPDEST PUSH1 0x40 MLOAD DUP1 SWAP2 SUB SWAP1 RETURN JUMPDEST PUSH2 0x119 PUSH2 0x4B7 JUMP JUMPDEST PUSH1 0x40 MLOAD PUSH2 0x126 SWAP2 SWAP1 PUSH2 0x8AA JUMP JUMPDEST PUSH1 0x40 MLOAD DUP1 SWAP2 SUB SWAP1 RETURN JUMPDEST PUSH2 0x137 PUSH2 0x519 JUMP JUMPDEST PUSH1 0x40 MLOAD PUSH2 0x144 SWAP2 SWAP1 PUSH2 0x8AA JUMP JUMPDEST PUSH1 0x40 MLOAD DUP1 SWAP2 SUB SWAP1 RETURN JUMPDEST CALLVALUE DUP1 ISZERO PUSH2 0x159 JUMPI PUSH1 0x0 DUP1 REVERT JUMPDEST POP PUSH2 0x174 PUSH1 0x4 DUP1 CALLDATASIZE SUB DUP2 ADD SWAP1 PUSH2 0x16F SWAP2 SWAP1 PUSH2 0x9BC JUMP JUMPDEST PUSH2 0x76B JUMP JUMPDEST PUSH1 0x40 MLOAD PUSH2 0x181 SWAP2 SWAP1 PUSH2 0x8AA JUMP JUMPDEST PUSH1 0x40 MLOAD DUP1 SWAP2 SUB SWAP1 RETURN JUMPDEST PUSH1 0x0 DUP1 PUSH8 0xDE0B6B3A7640000 PUSH1 0x9 PUSH1 0x0 SWAP1 SLOAD SWAP1 PUSH2 0x100 EXP SWAP1 DIV PUSH20 0xFFFFFFFFFFFFFFFFFFFFFFFFFFFFFFFFFFFFFFFF AND PUSH20 0xFFFFFFFFFFFFFFFFFFFFFFFFFFFFFFFFFFFFFFFF AND PUSH4 0x18160DDD PUSH1 0x40 MLOAD DUP2 PUSH4 0xFFFFFFFF AND PUSH1 0xE0 SHL DUP2 MSTORE PUSH1 0x4 ADD PUSH1 0x20 PUSH1 0x40 MLOAD DUP1 DUP4 SUB DUP2 DUP7 GAS STATICCALL ISZERO DUP1 ISZERO PUSH2 0x203 JUMPI RETURNDATASIZE PUSH1 0x0 DUP1 RETURNDATACOPY RETURNDATASIZE PUSH1 0x0 REVERT JUMPDEST POP POP POP POP PUSH1 0x40 MLOAD RETURNDATASIZE PUSH1 0x1F NOT PUSH1 0x1F DUP3 ADD AND DUP3 ADD DUP1 PUSH1 0x40 MSTORE POP DUP2 ADD SWAP1 PUSH2 0x227 SWAP2 SWAP1 PUSH2 0xA11 JUMP JUMPDEST PUSH2 0x231 SWAP2 SWAP1 PUSH2 0xA9C JUMP JUMPDEST SWAP1 POP PUSH1 0x0 SELFBALANCE SWAP1 POP PUSH1 0x0 DUP3 DUP3 DUP7 PUSH2 0x247 SWAP2 SWAP1 PUSH2 0xACD JUMP JUMPDEST PUSH2 0x251 SWAP2 SWAP1 PUSH2 0xA9C JUMP JUMPDEST SWAP1 POP PUSH1 0x0 CALLER SWAP1 POP PUSH1 0x9 PUSH1 0x0 SWAP1 SLOAD SWAP1 PUSH2 0x100 EXP SWAP1 DIV PUSH20 0xFFFFFFFFFFFFFFFFFFFFFFFFFFFFFFFFFFFFFFFF AND PUSH20 0xFFFFFFFFFFFFFFFFFFFFFFFFFFFFFFFFFFFFFFFF AND PUSH4 0x9DC29FAC CALLER DUP9 PUSH1 0x40 MLOAD DUP4 PUSH4 0xFFFFFFFF AND PUSH1 0xE0 SHL DUP2 MSTORE PUSH1 0x4 ADD PUSH2 0x2B5 SWAP3 SWAP2 SWAP1 PUSH2 0xB2D JUMP JUMPDEST PUSH1 0x20 PUSH1 0x40 MLOAD DUP1 DUP4 SUB DUP2 PUSH1 0x0 DUP8 GAS CALL ISZERO DUP1 ISZERO PUSH2 0x2D4 JUMPI RETURNDATASIZE PUSH1 0x0 DUP1 RETURNDATACOPY RETURNDATASIZE PUSH1 0x0 REVERT JUMPDEST POP POP POP POP PUSH1 0x40 MLOAD RETURNDATASIZE PUSH1 0x1F NOT PUSH1 0x1F DUP3 ADD AND DUP3 ADD DUP1 PUSH1 0x40 MSTORE POP DUP2 ADD SWAP1 PUSH2 0x2F8 SWAP2 SWAP1 PUSH2 0xB6B JUMP JUMPDEST POP DUP1 PUSH20 0xFFFFFFFFFFFFFFFFFFFFFFFFFFFFFFFFFFFFFFFF AND PUSH2 0x8FC DUP4 SWAP1 DUP2 ISZERO MUL SWAP1 PUSH1 0x40 MLOAD PUSH1 0x0 PUSH1 0x40 MLOAD DUP1 DUP4 SUB DUP2 DUP6 DUP9 DUP9 CALL SWAP4 POP POP POP POP ISZERO DUP1 ISZERO PUSH2 0x33F JUMPI RETURNDATASIZE PUSH1 0x0 DUP1 RETURNDATACOPY RETURNDATASIZE PUSH1 0x0 REVERT JUMPDEST POP PUSH1 0x1 SWAP5 POP POP POP POP POP SWAP2 SWAP1 POP JUMP JUMPDEST PUSH1 0x0 PUSH1 0x8 PUSH1 0x0 DUP4 PUSH20 0xFFFFFFFFFFFFFFFFFFFFFFFFFFFFFFFFFFFFFFFF AND PUSH20 0xFFFFFFFFFFFFFFFFFFFFFFFFFFFFFFFFFFFFFFFF AND DUP2 MSTORE PUSH1 0x20 ADD SWAP1 DUP2 MSTORE PUSH1 0x20 ADD PUSH1 0x0 KECCAK256 PUSH1 0x0 SWAP1 SLOAD SWAP1 PUSH2 0x100 EXP SWAP1 DIV PUSH1 0xFF AND SWAP1 POP SWAP2 SWAP1 POP JUMP JUMPDEST PUSH1 0x0 DUP1 PUSH1 0x0 SWAP1 SLOAD SWAP1 PUSH2 0x100 EXP SWAP1 DIV PUSH20 0xFFFFFFFFFFFFFFFFFFFFFFFFFFFFFFFFFFFFFFFF AND PUSH20 0xFFFFFFFFFFFFFFFFFFFFFFFFFFFFFFFFFFFFFFFF AND CALLER PUSH20 0xFFFFFFFFFFFFFFFFFFFFFFFFFFFFFFFFFFFFFFFF AND EQ PUSH2 0x3FE JUMPI PUSH1 0x0 DUP1 REVERT JUMPDEST PUSH1 0x0 DUP4 SWAP1 POP PUSH1 0x1 PUSH1 0x0 ADD PUSH1 0x0 SWAP1 SLOAD SWAP1 PUSH2 0x100 EXP SWAP1 DIV PUSH1 0xFF AND DUP1 ISZERO PUSH2 0x44F JUMPI POP PUSH1 0x0 PUSH20 0xFFFFFFFFFFFFFFFFFFFFFFFFFFFFFFFFFFFFFFFF AND DUP2 PUSH20 0xFFFFFFFFFFFFFFFFFFFFFFFFFFFFFFFFFFFFFFFF AND EQ ISZERO JUMPDEST DUP1 ISZERO PUSH2 0x45C JUMPI POP PUSH1 0x0 DUP4 LT ISZERO JUMPDEST PUSH2 0x465 JUMPI PUSH1 0x0 DUP1 REVERT JUMPDEST DUP1 PUSH20 0xFFFFFFFFFFFFFFFFFFFFFFFFFFFFFFFFFFFFFFFF AND PUSH2 0x8FC DUP5 SWAP1 DUP2 ISZERO MUL SWAP1 PUSH1 0x40 MLOAD PUSH1 0x0 PUSH1 0x40 MLOAD DUP1 DUP4 SUB DUP2 DUP6 DUP9 DUP9 CALL SWAP4 POP POP POP POP ISZERO DUP1 ISZERO PUSH2 0x4AB JUMPI RETURNDATASIZE PUSH1 0x0 DUP1 RETURNDATACOPY RETURNDATASIZE PUSH1 0x0 REVERT JUMPDEST POP PUSH1 0x1 SWAP2 POP POP SWAP3 SWAP2 POP POP JUMP JUMPDEST PUSH1 0x0 DUP1 PUSH1 0x0 SWAP1 SLOAD SWAP1 PUSH2 0x100 EXP SWAP1 DIV PUSH20 0xFFFFFFFFFFFFFFFFFFFFFFFFFFFFFFFFFFFFFFFF AND PUSH20 0xFFFFFFFFFFFFFFFFFFFFFFFFFFFFFFFFFFFFFFFF AND CALLER PUSH20 0xFFFFFFFFFFFFFFFFFFFFFFFFFFFFFFFFFFFFFFFF AND EQ PUSH2 0x512 JUMPI PUSH1 0x0 DUP1 REVERT JUMPDEST PUSH1 0x1 SWAP1 POP SWAP1 JUMP JUMPDEST PUSH1 0x0 PUSH1 0x2 PUSH1 0x5 ADD PUSH1 0x0 SWAP1 SLOAD SWAP1 PUSH2 0x100 EXP SWAP1 DIV PUSH1 0xFF AND DUP1 ISZERO PUSH2 0x583 JUMPI POP PUSH1 0x8 PUSH1 0x0 CALLER PUSH20 0xFFFFFFFFFFFFFFFFFFFFFFFFFFFFFFFFFFFFFFFF AND PUSH20 0xFFFFFFFFFFFFFFFFFFFFFFFFFFFFFFFFFFFFFFFF AND DUP2 MSTORE PUSH1 0x20 ADD SWAP1 DUP2 MSTORE PUSH1 0x20 ADD PUSH1 0x0 KECCAK256 PUSH1 0x0 SWAP1 SLOAD SWAP1 PUSH2 0x100 EXP SWAP1 DIV PUSH1 0xFF AND JUMPDEST PUSH2 0x5C2 JUMPI PUSH1 0x40 MLOAD PUSH32 0x8C379A000000000000000000000000000000000000000000000000000000000 DUP2 MSTORE PUSH1 0x4 ADD PUSH2 0x5B9 SWAP1 PUSH2 0xC1B JUMP JUMPDEST PUSH1 0x40 MLOAD DUP1 SWAP2 SUB SWAP1 REVERT JUMPDEST PUSH1 0x0 CALLVALUE SWAP1 POP PUSH1 0x0 PUSH8 0xDE0B6B3A7640000 PUSH1 0x9 PUSH1 0x0 SWAP1 SLOAD SWAP1 PUSH2 0x100 EXP SWAP1 DIV PUSH20 0xFFFFFFFFFFFFFFFFFFFFFFFFFFFFFFFFFFFFFFFF AND PUSH20 0xFFFFFFFFFFFFFFFFFFFFFFFFFFFFFFFFFFFFFFFF AND PUSH4 0x18160DDD PUSH1 0x40 MLOAD DUP2 PUSH4 0xFFFFFFFF AND PUSH1 0xE0 SHL DUP2 MSTORE PUSH1 0x4 ADD PUSH1 0x20 PUSH1 0x40 MLOAD DUP1 DUP4 SUB DUP2 DUP7 GAS STATICCALL ISZERO DUP1 ISZERO PUSH2 0x63F JUMPI RETURNDATASIZE PUSH1 0x0 DUP1 RETURNDATACOPY RETURNDATASIZE PUSH1 0x0 REVERT JUMPDEST POP POP POP POP PUSH1 0x40 MLOAD RETURNDATASIZE PUSH1 0x1F NOT PUSH1 0x1F DUP3 ADD AND DUP3 ADD DUP1 PUSH1 0x40 MSTORE POP DUP2 ADD SWAP1 PUSH2 0x663 SWAP2 SWAP1 PUSH2 0xA11 JUMP JUMPDEST PUSH2 0x66D SWAP2 SWAP1 PUSH2 0xA9C JUMP JUMPDEST SWAP1 POP PUSH1 0x0 DUP3 SELFBALANCE PUSH2 0x67D SWAP2 SWAP1 PUSH2 0xC3B JUMP JUMPDEST SWAP1 POP PUSH1 0x0 DUP2 DUP4 DUP6 PUSH2 0x68E SWAP2 SWAP1 PUSH2 0xACD JUMP JUMPDEST PUSH2 0x698 SWAP2 SWAP1 PUSH2 0xA9C JUMP JUMPDEST SWAP1 POP PUSH1 0x0 DUP5 GT DUP1 ISZERO PUSH2 0x6AA JUMPI POP PUSH1 0x0 DUP4 GT JUMPDEST DUP1 ISZERO PUSH2 0x6B6 JUMPI POP PUSH1 0x0 DUP3 GT JUMPDEST PUSH2 0x6BF JUMPI PUSH1 0x0 DUP1 REVERT JUMPDEST PUSH1 0x9 PUSH1 0x0 SWAP1 SLOAD SWAP1 PUSH2 0x100 EXP SWAP1 DIV PUSH20 0xFFFFFFFFFFFFFFFFFFFFFFFFFFFFFFFFFFFFFFFF AND PUSH20 0xFFFFFFFFFFFFFFFFFFFFFFFFFFFFFFFFFFFFFFFF AND PUSH4 0x40C10F19 CALLER DUP4 PUSH1 0x40 MLOAD DUP4 PUSH4 0xFFFFFFFF AND PUSH1 0xE0 SHL DUP2 MSTORE PUSH1 0x4 ADD PUSH2 0x71C SWAP3 SWAP2 SWAP1 PUSH2 0xB2D JUMP JUMPDEST PUSH1 0x20 PUSH1 0x40 MLOAD DUP1 DUP4 SUB DUP2 PUSH1 0x0 DUP8 GAS CALL ISZERO DUP1 ISZERO PUSH2 0x73B JUMPI RETURNDATASIZE PUSH1 0x0 DUP1 RETURNDATACOPY RETURNDATASIZE PUSH1 0x0 REVERT JUMPDEST POP POP POP POP PUSH1 0x40 MLOAD RETURNDATASIZE PUSH1 0x1F NOT PUSH1 0x1F DUP3 ADD AND DUP3 ADD DUP1 PUSH1 0x40 MSTORE POP DUP2 ADD SWAP1 PUSH2 0x75F SWAP2 SWAP1 PUSH2 0xB6B JUMP JUMPDEST POP PUSH1 0x1 SWAP5 POP POP POP POP POP SWAP1 JUMP JUMPDEST PUSH1 0x0 DUP1 PUSH1 0x0 SWAP1 SLOAD SWAP1 PUSH2 0x100 EXP SWAP1 DIV PUSH20 0xFFFFFFFFFFFFFFFFFFFFFFFFFFFFFFFFFFFFFFFF AND PUSH20 0xFFFFFFFFFFFFFFFFFFFFFFFFFFFFFFFFFFFFFFFF AND CALLER PUSH20 0xFFFFFFFFFFFFFFFFFFFFFFFFFFFFFFFFFFFFFFFF AND EQ PUSH2 0x7C6 JUMPI PUSH1 0x0 DUP1 REVERT JUMPDEST DUP2 PUSH1 0x8 PUSH1 0x0 DUP6 PUSH20 0xFFFFFFFFFFFFFFFFFFFFFFFFFFFFFFFFFFFFFFFF AND PUSH20 0xFFFFFFFFFFFFFFFFFFFFFFFFFFFFFFFFFFFFFFFF AND DUP2 MSTORE PUSH1 0x20 ADD SWAP1 DUP2 MSTORE PUSH1 0x20 ADD PUSH1 0x0 KECCAK256 PUSH1 0x0 PUSH2 0x100 EXP DUP2 SLOAD DUP2 PUSH1 0xFF MUL NOT AND SWAP1 DUP4 ISZERO ISZERO MUL OR SWAP1 SSTORE POP PUSH1 0x1 SWAP1 POP SWAP3 SWAP2 POP POP JUMP JUMPDEST PUSH1 0x0 DUP1 REVERT JUMPDEST PUSH1 0x0 DUP2 SWAP1 POP SWAP2 SWAP1 POP JUMP JUMPDEST PUSH2 0x83F DUP2 PUSH2 0x82C JUMP JUMPDEST DUP2 EQ PUSH2 0x84A JUMPI PUSH1 0x0 DUP1 REVERT JUMPDEST POP JUMP JUMPDEST PUSH1 0x0 DUP2 CALLDATALOAD SWAP1 POP PUSH2 0x85C DUP2 PUSH2 0x836 JUMP JUMPDEST SWAP3 SWAP2 POP POP JUMP JUMPDEST PUSH1 0x0 PUSH1 0x20 DUP3 DUP5 SUB SLT ISZERO PUSH2 0x878 JUMPI PUSH2 0x877 PUSH2 0x827 JUMP JUMPDEST JUMPDEST PUSH1 0x0 PUSH2 0x886 DUP5 DUP3 DUP6 ADD PUSH2 0x84D JUMP JUMPDEST SWAP2 POP POP SWAP3 SWAP2 POP POP JUMP JUMPDEST PUSH1 0x0 DUP2 ISZERO ISZERO SWAP1 POP SWAP2 SWAP1 POP JUMP JUMPDEST PUSH2 0x8A4 DUP2 PUSH2 0x88F JUMP JUMPDEST DUP3 MSTORE POP POP JUMP JUMPDEST PUSH1 0x0 PUSH1 0x20 DUP3 ADD SWAP1 POP PUSH2 0x8BF PUSH1 0x0 DUP4 ADD DUP5 PUSH2 0x89B JUMP JUMPDEST SWAP3 SWAP2 POP POP JUMP JUMPDEST PUSH1 0x0 PUSH20 0xFFFFFFFFFFFFFFFFFFFFFFFFFFFFFFFFFFFFFFFF DUP3 AND SWAP1 POP SWAP2 SWAP1 POP JUMP JUMPDEST PUSH1 0x0 PUSH2 0x8F0 DUP3 PUSH2 0x8C5 JUMP JUMPDEST SWAP1 POP SWAP2 SWAP1 POP JUMP JUMPDEST PUSH2 0x900 DUP2 PUSH2 0x8E5 JUMP JUMPDEST DUP2 EQ PUSH2 0x90B JUMPI PUSH1 0x0 DUP1 REVERT JUMPDEST POP JUMP JUMPDEST PUSH1 0x0 DUP2 CALLDATALOAD SWAP1 POP PUSH2 0x91D DUP2 PUSH2 0x8F7 JUMP JUMPDEST SWAP3 SWAP2 POP POP JUMP JUMPDEST PUSH1 0x0 PUSH1 0x20 DUP3 DUP5 SUB SLT ISZERO PUSH2 0x939 JUMPI PUSH2 0x938 PUSH2 0x827 JUMP JUMPDEST JUMPDEST PUSH1 0x0 PUSH2 0x947 DUP5 DUP3 DUP6 ADD PUSH2 0x90E JUMP JUMPDEST SWAP2 POP POP SWAP3 SWAP2 POP POP JUMP JUMPDEST PUSH1 0x0 DUP1 PUSH1 0x40 DUP4 DUP6 SUB SLT ISZERO PUSH2 0x967 JUMPI PUSH2 0x966 PUSH2 0x827 JUMP JUMPDEST JUMPDEST PUSH1 0x0 PUSH2 0x975 DUP6 DUP3 DUP7 ADD PUSH2 0x90E JUMP JUMPDEST SWAP3 POP POP PUSH1 0x20 PUSH2 0x986 DUP6 DUP3 DUP7 ADD PUSH2 0x84D JUMP JUMPDEST SWAP2 POP POP SWAP3 POP SWAP3 SWAP1 POP JUMP JUMPDEST PUSH2 0x999 DUP2 PUSH2 0x88F JUMP JUMPDEST DUP2 EQ PUSH2 0x9A4 JUMPI PUSH1 0x0 DUP1 REVERT JUMPDEST POP JUMP JUMPDEST PUSH1 0x0 DUP2 CALLDATALOAD SWAP1 POP PUSH2 0x9B6 DUP2 PUSH2 0x990 JUMP JUMPDEST SWAP3 SWAP2 POP POP JUMP JUMPDEST PUSH1 0x0 DUP1 PUSH1 0x40 DUP4 DUP6 SUB SLT ISZERO PUSH2 0x9D3 JUMPI PUSH2 0x9D2 PUSH2 0x827 JUMP JUMPDEST JUMPDEST PUSH1 0x0 PUSH2 0x9E1 DUP6 DUP3 DUP7 ADD PUSH2 0x90E JUMP JUMPDEST SWAP3 POP POP PUSH1 0x20 PUSH2 0x9F2 DUP6 DUP3 DUP7 ADD PUSH2 0x9A7 JUMP JUMPDEST SWAP2 POP POP SWAP3 POP SWAP3 SWAP1 POP JUMP JUMPDEST PUSH1 0x0 DUP2 MLOAD SWAP1 POP PUSH2 0xA0B DUP2 PUSH2 0x836 JUMP JUMPDEST SWAP3 SWAP2 POP POP JUMP JUMPDEST PUSH1 0x0 PUSH1 0x20 DUP3 DUP5 SUB SLT ISZERO PUSH2 0xA27 JUMPI PUSH2 0xA26 PUSH2 0x827 JUMP JUMPDEST JUMPDEST PUSH1 0x0 PUSH2 0xA35 DUP5 DUP3 DUP6 ADD PUSH2 0x9FC JUMP JUMPDEST SWAP2 POP POP SWAP3 SWAP2 POP POP JUMP JUMPDEST PUSH32 0x4E487B7100000000000000000000000000000000000000000000000000000000 PUSH1 0x0 MSTORE PUSH1 0x12 PUSH1 0x4 MSTORE PUSH1 0x24 PUSH1 0x0 REVERT JUMPDEST PUSH32 0x4E487B7100000000000000000000000000000000000000000000000000000000 PUSH1 0x0 MSTORE PUSH1 0x11 PUSH1 0x4 MSTORE PUSH1 0x24 PUSH1 0x0 REVERT JUMPDEST PUSH1 0x0 PUSH2 0xAA7 DUP3 PUSH2 0x82C JUMP JUMPDEST SWAP2 POP PUSH2 0xAB2 DUP4 PUSH2 0x82C JUMP JUMPDEST SWAP3 POP DUP3 PUSH2 0xAC2 JUMPI PUSH2 0xAC1 PUSH2 0xA3E JUMP JUMPDEST JUMPDEST DUP3 DUP3 DIV SWAP1 POP SWAP3 SWAP2 POP POP JUMP JUMPDEST PUSH1 0x0 PUSH2 0xAD8 DUP3 PUSH2 0x82C JUMP JUMPDEST SWAP2 POP PUSH2 0xAE3 DUP4 PUSH2 0x82C JUMP JUMPDEST SWAP3 POP DUP3 DUP3 MUL PUSH2 0xAF1 DUP2 PUSH2 0x82C JUMP JUMPDEST SWAP2 POP DUP3 DUP3 DIV DUP5 EQ DUP4 ISZERO OR PUSH2 0xB08 JUMPI PUSH2 0xB07 PUSH2 0xA6D JUMP JUMPDEST JUMPDEST POP SWAP3 SWAP2 POP POP JUMP JUMPDEST PUSH2 0xB18 DUP2 PUSH2 0x8E5 JUMP JUMPDEST DUP3 MSTORE POP POP JUMP JUMPDEST PUSH2 0xB27 DUP2 PUSH2 0x82C JUMP JUMPDEST DUP3 MSTORE POP POP JUMP JUMPDEST PUSH1 0x0 PUSH1 0x40 DUP3 ADD SWAP1 POP PUSH2 0xB42 PUSH1 0x0 DUP4 ADD DUP6 PUSH2 0xB0F JUMP JUMPDEST PUSH2 0xB4F PUSH1 0x20 DUP4 ADD DUP5 PUSH2 0xB1E JUMP JUMPDEST SWAP4 SWAP3 POP POP POP JUMP JUMPDEST PUSH1 0x0 DUP2 MLOAD SWAP1 POP PUSH2 0xB65 DUP2 PUSH2 0x990 JUMP JUMPDEST SWAP3 SWAP2 POP POP JUMP JUMPDEST PUSH1 0x0 PUSH1 0x20 DUP3 DUP5 SUB SLT ISZERO PUSH2 0xB81 JUMPI PUSH2 0xB80 PUSH2 0x827 JUMP JUMPDEST JUMPDEST PUSH1 0x0 PUSH2 0xB8F DUP5 DUP3 DUP6 ADD PUSH2 0xB56 JUMP JUMPDEST SWAP2 POP POP SWAP3 SWAP2 POP POP JUMP JUMPDEST PUSH1 0x0 DUP3 DUP3 MSTORE PUSH1 0x20 DUP3 ADD SWAP1 POP SWAP3 SWAP2 POP POP JUMP JUMPDEST PUSH32 0x66756E64696E672E6F6E6C79566572696669656420213D2074727565207C7C20 PUSH1 0x0 DUP3 ADD MSTORE PUSH32 0x6D73672E73656E64657220213D20766572696669656400000000000000000000 PUSH1 0x20 DUP3 ADD MSTORE POP JUMP JUMPDEST PUSH1 0x0 PUSH2 0xC05 PUSH1 0x36 DUP4 PUSH2 0xB98 JUMP JUMPDEST SWAP2 POP PUSH2 0xC10 DUP3 PUSH2 0xBA9 JUMP JUMPDEST PUSH1 0x40 DUP3 ADD SWAP1 POP SWAP2 SWAP1 POP JUMP JUMPDEST PUSH1 0x0 PUSH1 0x20 DUP3 ADD SWAP1 POP DUP2 DUP2 SUB PUSH1 0x0 DUP4 ADD MSTORE PUSH2 0xC34 DUP2 PUSH2 0xBF8 JUMP JUMPDEST SWAP1 POP SWAP2 SWAP1 POP JUMP JUMPDEST PUSH1 0x0 PUSH2 0xC46 DUP3 PUSH2 0x82C JUMP JUMPDEST SWAP2 POP PUSH2 0xC51 DUP4 PUSH2 0x82C JUMP JUMPDEST SWAP3 POP DUP3 DUP3 SUB SWAP1 POP DUP2 DUP2 GT ISZERO PUSH2 0xC69 JUMPI PUSH2 0xC68 PUSH2 0xA6D JUMP JUMPDEST JUMPDEST SWAP3 SWAP2 POP POP JUMP INVALID LOG2 PUSH5 0x6970667358 0x22 SLT KECCAK256 PUSH16 0xD7FDFB7FD6BCA6043316DE03A36EA64D 0x4F ADDRESS CREATE STATICCALL 0xE5 0xC0 SDIV 0xBB AND PUSH20 0x8C1A3E561C64736F6C6343000812003360806040 MSTORE CALLVALUE DUP1 ISZERO PUSH3 0x11 JUMPI PUSH1 0x0 DUP1 REVERT JUMPDEST POP PUSH1 0x40 MLOAD PUSH3 0x20CE CODESIZE SUB DUP1 PUSH3 0x20CE DUP4 CODECOPY DUP2 DUP2 ADD PUSH1 0x40 MSTORE DUP2 ADD SWAP1 PUSH3 0x37 SWAP2 SWAP1 PUSH3 0x23B JUMP JUMPDEST DUP2 DUP2 DUP2 PUSH1 0x3 SWAP1 DUP2 PUSH3 0x4A SWAP2 SWAP1 PUSH3 0x50B JUMP JUMPDEST POP DUP1 PUSH1 0x4 SWAP1 DUP2 PUSH3 0x5C SWAP2 SWAP1 PUSH3 0x50B JUMP JUMPDEST POP POP POP CALLER PUSH1 0x5 PUSH1 0x0 PUSH2 0x100 EXP DUP2 SLOAD DUP2 PUSH20 0xFFFFFFFFFFFFFFFFFFFFFFFFFFFFFFFFFFFFFFFF MUL NOT AND SWAP1 DUP4 PUSH20 0xFFFFFFFFFFFFFFFFFFFFFFFFFFFFFFFFFFFFFFFF AND MUL OR SWAP1 SSTORE POP POP POP PUSH3 0x5F2 JUMP JUMPDEST PUSH1 0x0 PUSH1 0x40 MLOAD SWAP1 POP SWAP1 JUMP JUMPDEST PUSH1 0x0 DUP1 REVERT JUMPDEST PUSH1 0x0 DUP1 REVERT JUMPDEST PUSH1 0x0 DUP1 REVERT JUMPDEST PUSH1 0x0 DUP1 REVERT JUMPDEST PUSH1 0x0 PUSH1 0x1F NOT PUSH1 0x1F DUP4 ADD AND SWAP1 POP SWAP2 SWAP1 POP JUMP JUMPDEST PUSH32 0x4E487B7100000000000000000000000000000000000000000000000000000000 PUSH1 0x0 MSTORE PUSH1 0x41 PUSH1 0x4 MSTORE PUSH1 0x24 PUSH1 0x0 REVERT JUMPDEST PUSH3 0x111 DUP3 PUSH3 0xC6 JUMP JUMPDEST DUP2 ADD DUP2 DUP2 LT PUSH8 0xFFFFFFFFFFFFFFFF DUP3 GT OR ISZERO PUSH3 0x133 JUMPI PUSH3 0x132 PUSH3 0xD7 JUMP JUMPDEST JUMPDEST DUP1 PUSH1 0x40 MSTORE POP POP POP JUMP JUMPDEST PUSH1 0x0 PUSH3 0x148 PUSH3 0xA8 JUMP JUMPDEST SWAP1 POP PUSH3 0x156 DUP3 DUP3 PUSH3 0x106 JUMP JUMPDEST SWAP2 SWAP1 POP JUMP JUMPDEST PUSH1 0x0 PUSH8 0xFFFFFFFFFFFFFFFF DUP3 GT ISZERO PUSH3 0x179 JUMPI PUSH3 0x178 PUSH3 0xD7 JUMP JUMPDEST JUMPDEST PUSH3 0x184 DUP3 PUSH3 0xC6 JUMP JUMPDEST SWAP1 POP PUSH1 0x20 DUP2 ADD SWAP1 POP SWAP2 SWAP1 POP JUMP JUMPDEST PUSH1 0x0 JUMPDEST DUP4 DUP2 LT ISZERO PUSH3 0x1B1 JUMPI DUP1 DUP3 ADD MLOAD DUP2 DUP5 ADD MSTORE PUSH1 0x20 DUP2 ADD SWAP1 POP PUSH3 0x194 JUMP JUMPDEST PUSH1 0x0 DUP5 DUP5 ADD MSTORE POP POP POP POP JUMP JUMPDEST PUSH1 0x0 PUSH3 0x1D4 PUSH3 0x1CE DUP5 PUSH3 0x15B JUMP JUMPDEST PUSH3 0x13C JUMP JUMPDEST SWAP1 POP DUP3 DUP2 MSTORE PUSH1 0x20 DUP2 ADD DUP5 DUP5 DUP5 ADD GT ISZERO PUSH3 0x1F3 JUMPI PUSH3 0x1F2 PUSH3 0xC1 JUMP JUMPDEST JUMPDEST PUSH3 0x200 DUP5 DUP3 DUP6 PUSH3 0x191 JUMP JUMPDEST POP SWAP4 SWAP3 POP POP POP JUMP JUMPDEST PUSH1 0x0 DUP3 PUSH1 0x1F DUP4 ADD SLT PUSH3 0x220 JUMPI PUSH3 0x21F PUSH3 0xBC JUMP JUMPDEST JUMPDEST DUP2 MLOAD PUSH3 0x232 DUP5 DUP3 PUSH1 0x20 DUP7 ADD PUSH3 0x1BD JUMP JUMPDEST SWAP2 POP POP SWAP3 SWAP2 POP POP JUMP JUMPDEST PUSH1 0x0 DUP1 PUSH1 0x40 DUP4 DUP6 SUB SLT ISZERO PUSH3 0x255 JUMPI PUSH3 0x254 PUSH3 0xB2 JUMP JUMPDEST JUMPDEST PUSH1 0x0 DUP4 ADD MLOAD PUSH8 0xFFFFFFFFFFFFFFFF DUP2 GT ISZERO PUSH3 0x276 JUMPI PUSH3 0x275 PUSH3 0xB7 JUMP JUMPDEST JUMPDEST PUSH3 0x284 DUP6 DUP3 DUP7 ADD PUSH3 0x208 JUMP JUMPDEST SWAP3 POP POP PUSH1 0x20 DUP4 ADD MLOAD PUSH8 0xFFFFFFFFFFFFFFFF DUP2 GT ISZERO PUSH3 0x2A8 JUMPI PUSH3 0x2A7 PUSH3 0xB7 JUMP JUMPDEST JUMPDEST PUSH3 0x2B6 DUP6 DUP3 DUP7 ADD PUSH3 0x208 JUMP JUMPDEST SWAP2 POP POP SWAP3 POP SWAP3 SWAP1 POP JUMP JUMPDEST PUSH1 0x0 DUP2 MLOAD SWAP1 POP SWAP2 SWAP1 POP JUMP JUMPDEST PUSH32 0x4E487B7100000000000000000000000000000000000000000000000000000000 PUSH1 0x0 MSTORE PUSH1 0x22 PUSH1 0x4 MSTORE PUSH1 0x24 PUSH1 0x0 REVERT JUMPDEST PUSH1 0x0 PUSH1 0x2 DUP3 DIV SWAP1 POP PUSH1 0x1 DUP3 AND DUP1 PUSH3 0x313 JUMPI PUSH1 0x7F DUP3 AND SWAP2 POP JUMPDEST PUSH1 0x20 DUP3 LT DUP2 SUB PUSH3 0x329 JUMPI PUSH3 0x328 PUSH3 0x2CB JUMP JUMPDEST JUMPDEST POP SWAP2 SWAP1 POP JUMP JUMPDEST PUSH1 0x0 DUP2 SWAP1 POP DUP2 PUSH1 0x0 MSTORE PUSH1 0x20 PUSH1 0x0 KECCAK256 SWAP1 POP SWAP2 SWAP1 POP JUMP JUMPDEST PUSH1 0x0 PUSH1 0x20 PUSH1 0x1F DUP4 ADD DIV SWAP1 POP SWAP2 SWAP1 POP JUMP JUMPDEST PUSH1 0x0 DUP3 DUP3 SHL SWAP1 POP SWAP3 SWAP2 POP POP JUMP JUMPDEST PUSH1 0x0 PUSH1 0x8 DUP4 MUL PUSH3 0x393 PUSH32 0xFFFFFFFFFFFFFFFFFFFFFFFFFFFFFFFFFFFFFFFFFFFFFFFFFFFFFFFFFFFFFFFF DUP3 PUSH3 0x354 JUMP JUMPDEST PUSH3 0x39F DUP7 DUP4 PUSH3 0x354 JUMP JUMPDEST SWAP6 POP DUP1 NOT DUP5 AND SWAP4 POP DUP1 DUP7 AND DUP5 OR SWAP3 POP POP POP SWAP4 SWAP3 POP POP POP JUMP JUMPDEST PUSH1 0x0 DUP2 SWAP1 POP SWAP2 SWAP1 POP JUMP JUMPDEST PUSH1 0x0 DUP2 SWAP1 POP SWAP2 SWAP1 POP JUMP JUMPDEST PUSH1 0x0 PUSH3 0x3EC PUSH3 0x3E6 PUSH3 0x3E0 DUP5 PUSH3 0x3B7 JUMP JUMPDEST PUSH3 0x3C1 JUMP JUMPDEST PUSH3 0x3B7 JUMP JUMPDEST SWAP1 POP SWAP2 SWAP1 POP JUMP JUMPDEST PUSH1 0x0 DUP2 SWAP1 POP SWAP2 SWAP1 POP JUMP JUMPDEST PUSH3 0x408 DUP4 PUSH3 0x3CB JUMP JUMPDEST PUSH3 0x420 PUSH3 0x417 DUP3 PUSH3 0x3F3 JUMP JUMPDEST DUP5 DUP5 SLOAD PUSH3 0x361 JUMP JUMPDEST DUP3 SSTORE POP POP POP POP JUMP JUMPDEST PUSH1 0x0 SWAP1 JUMP JUMPDEST PUSH3 0x437 PUSH3 0x428 JUMP JUMPDEST PUSH3 0x444 DUP2 DUP5 DUP5 PUSH3 0x3FD JUMP JUMPDEST POP POP POP JUMP JUMPDEST JUMPDEST DUP2 DUP2 LT ISZERO PUSH3 0x46C JUMPI PUSH3 0x460 PUSH1 0x0 DUP3 PUSH3 0x42D JUMP JUMPDEST PUSH1 0x1 DUP2 ADD SWAP1 POP PUSH3 0x44A JUMP JUMPDEST POP POP JUMP JUMPDEST PUSH1 0x1F DUP3 GT ISZERO PUSH3 0x4BB JUMPI PUSH3 0x485 DUP2 PUSH3 0x32F JUMP JUMPDEST PUSH3 0x490 DUP5 PUSH3 0x344 JUMP JUMPDEST DUP2 ADD PUSH1 0x20 DUP6 LT ISZERO PUSH3 0x4A0 JUMPI DUP2 SWAP1 POP JUMPDEST PUSH3 0x4B8 PUSH3 0x4AF DUP6 PUSH3 0x344 JUMP JUMPDEST DUP4 ADD DUP3 PUSH3 0x449 JUMP JUMPDEST POP POP JUMPDEST POP POP POP JUMP JUMPDEST PUSH1 0x0 DUP3 DUP3 SHR SWAP1 POP SWAP3 SWAP2 POP POP JUMP JUMPDEST PUSH1 0x0 PUSH3 0x4E0 PUSH1 0x0 NOT DUP5 PUSH1 0x8 MUL PUSH3 0x4C0 JUMP JUMPDEST NOT DUP1 DUP4 AND SWAP2 POP POP SWAP3 SWAP2 POP POP JUMP JUMPDEST PUSH1 0x0 PUSH3 0x4FB DUP4 DUP4 PUSH3 0x4CD JUMP JUMPDEST SWAP2 POP DUP3 PUSH1 0x2 MUL DUP3 OR SWAP1 POP SWAP3 SWAP2 POP POP JUMP JUMPDEST PUSH3 0x516 DUP3 PUSH3 0x2C0 JUMP JUMPDEST PUSH8 0xFFFFFFFFFFFFFFFF DUP2 GT ISZERO PUSH3 0x532 JUMPI PUSH3 0x531 PUSH3 0xD7 JUMP JUMPDEST JUMPDEST PUSH3 0x53E DUP3 SLOAD PUSH3 0x2FA JUMP JUMPDEST PUSH3 0x54B DUP3 DUP3 DUP6 PUSH3 0x470 JUMP JUMPDEST PUSH1 0x0 PUSH1 0x20 SWAP1 POP PUSH1 0x1F DUP4 GT PUSH1 0x1 DUP2 EQ PUSH3 0x583 JUMPI PUSH1 0x0 DUP5 ISZERO PUSH3 0x56E JUMPI DUP3 DUP8 ADD MLOAD SWAP1 POP JUMPDEST PUSH3 0x57A DUP6 DUP3 PUSH3 0x4ED JUMP JUMPDEST DUP7 SSTORE POP PUSH3 0x5EA JUMP JUMPDEST PUSH1 0x1F NOT DUP5 AND PUSH3 0x593 DUP7 PUSH3 0x32F JUMP JUMPDEST PUSH1 0x0 JUMPDEST DUP3 DUP2 LT ISZERO PUSH3 0x5BD JUMPI DUP5 DUP10 ADD MLOAD DUP3 SSTORE PUSH1 0x1 DUP3 ADD SWAP2 POP PUSH1 0x20 DUP6 ADD SWAP5 POP PUSH1 0x20 DUP2 ADD SWAP1 POP PUSH3 0x596 JUMP JUMPDEST DUP7 DUP4 LT ISZERO PUSH3 0x5DD JUMPI DUP5 DUP10 ADD MLOAD PUSH3 0x5D9 PUSH1 0x1F DUP10 AND DUP3 PUSH3 0x4CD JUMP JUMPDEST DUP4 SSTORE POP JUMPDEST PUSH1 0x1 PUSH1 0x2 DUP9 MUL ADD DUP9 SSTORE POP POP POP JUMPDEST POP POP POP POP POP POP JUMP JUMPDEST PUSH2 0x1ACC DUP1 PUSH3 0x602 PUSH1 0x0 CODECOPY PUSH1 0x0 RETURN INVALID PUSH1 0x80 PUSH1 0x40 MSTORE CALLVALUE DUP1 ISZERO PUSH2 0x10 JUMPI PUSH1 0x0 DUP1 REVERT JUMPDEST POP PUSH1 0x4 CALLDATASIZE LT PUSH2 0xCF JUMPI PUSH1 0x0 CALLDATALOAD PUSH1 0xE0 SHR DUP1 PUSH4 0x40C10F19 GT PUSH2 0x8C JUMPI DUP1 PUSH4 0x9DC29FAC GT PUSH2 0x66 JUMPI DUP1 PUSH4 0x9DC29FAC EQ PUSH2 0x23C JUMPI DUP1 PUSH4 0xA457C2D7 EQ PUSH2 0x26C JUMPI DUP1 PUSH4 0xA9059CBB EQ PUSH2 0x29C JUMPI DUP1 PUSH4 0xDD62ED3E EQ PUSH2 0x2CC JUMPI PUSH2 0xCF JUMP JUMPDEST DUP1 PUSH4 0x40C10F19 EQ PUSH2 0x1BE JUMPI DUP1 PUSH4 0x70A08231 EQ PUSH2 0x1EE JUMPI DUP1 PUSH4 0x95D89B41 EQ PUSH2 0x21E JUMPI PUSH2 0xCF JUMP JUMPDEST DUP1 PUSH4 0x6FDDE03 EQ PUSH2 0xD4 JUMPI DUP1 PUSH4 0x95EA7B3 EQ PUSH2 0xF2 JUMPI DUP1 PUSH4 0x18160DDD EQ PUSH2 0x122 JUMPI DUP1 PUSH4 0x23B872DD EQ PUSH2 0x140 JUMPI DUP1 PUSH4 0x313CE567 EQ PUSH2 0x170 JUMPI DUP1 PUSH4 0x39509351 EQ PUSH2 0x18E JUMPI JUMPDEST PUSH1 0x0 DUP1 REVERT JUMPDEST PUSH2 0xDC PUSH2 0x2FC JUMP JUMPDEST PUSH1 0x40 MLOAD PUSH2 0xE9 SWAP2 SWAP1 PUSH2 0x10B3 JUMP JUMPDEST PUSH1 0x40 MLOAD DUP1 SWAP2 SUB SWAP1 RETURN JUMPDEST PUSH2 0x10C PUSH1 0x4 DUP1 CALLDATASIZE SUB DUP2 ADD SWAP1 PUSH2 0x107 SWAP2 SWAP1 PUSH2 0x116E JUMP JUMPDEST PUSH2 0x38E JUMP JUMPDEST PUSH1 0x40 MLOAD PUSH2 0x119 SWAP2 SWAP1 PUSH2 0x11C9 JUMP JUMPDEST PUSH1 0x40 MLOAD DUP1 SWAP2 SUB SWAP1 RETURN JUMPDEST PUSH2 0x12A PUSH2 0x3B1 JUMP JUMPDEST PUSH1 0x40 MLOAD PUSH2 0x137 SWAP2 SWAP1 PUSH2 0x11F3 JUMP JUMPDEST PUSH1 0x40 MLOAD DUP1 SWAP2 SUB SWAP1 RETURN JUMPDEST PUSH2 0x15A PUSH1 0x4 DUP1 CALLDATASIZE SUB DUP2 ADD SWAP1 PUSH2 0x155 SWAP2 SWAP1 PUSH2 0x120E JUMP JUMPDEST PUSH2 0x3BB JUMP JUMPDEST PUSH1 0x40 MLOAD PUSH2 0x167 SWAP2 SWAP1 PUSH2 0x11C9 JUMP JUMPDEST PUSH1 0x40 MLOAD DUP1 SWAP2 SUB SWAP1 RETURN JUMPDEST PUSH2 0x178 PUSH2 0x3EA JUMP JUMPDEST PUSH1 0x40 MLOAD PUSH2 0x185 SWAP2 SWAP1 PUSH2 0x127D JUMP JUMPDEST PUSH1 0x40 MLOAD DUP1 SWAP2 SUB SWAP1 RETURN JUMPDEST PUSH2 0x1A8 PUSH1 0x4 DUP1 CALLDATASIZE SUB DUP2 ADD SWAP1 PUSH2 0x1A3 SWAP2 SWAP1 PUSH2 0x116E JUMP JUMPDEST PUSH2 0x3F3 JUMP JUMPDEST PUSH1 0x40 MLOAD PUSH2 0x1B5 SWAP2 SWAP1 PUSH2 0x11C9 JUMP JUMPDEST PUSH1 0x40 MLOAD DUP1 SWAP2 SUB SWAP1 RETURN JUMPDEST PUSH2 0x1D8 PUSH1 0x4 DUP1 CALLDATASIZE SUB DUP2 ADD SWAP1 PUSH2 0x1D3 SWAP2 SWAP1 PUSH2 0x116E JUMP JUMPDEST PUSH2 0x42A JUMP JUMPDEST PUSH1 0x40 MLOAD PUSH2 0x1E5 SWAP2 SWAP1 PUSH2 0x11C9 JUMP JUMPDEST PUSH1 0x40 MLOAD DUP1 SWAP2 SUB SWAP1 RETURN JUMPDEST PUSH2 0x208 PUSH1 0x4 DUP1 CALLDATASIZE SUB DUP2 ADD SWAP1 PUSH2 0x203 SWAP2 SWAP1 PUSH2 0x1298 JUMP JUMPDEST PUSH2 0x529 JUMP JUMPDEST PUSH1 0x40 MLOAD PUSH2 0x215 SWAP2 SWAP1 PUSH2 0x11F3 JUMP JUMPDEST PUSH1 0x40 MLOAD DUP1 SWAP2 SUB SWAP1 RETURN JUMPDEST PUSH2 0x226 PUSH2 0x571 JUMP JUMPDEST PUSH1 0x40 MLOAD PUSH2 0x233 SWAP2 SWAP1 PUSH2 0x10B3 JUMP JUMPDEST PUSH1 0x40 MLOAD DUP1 SWAP2 SUB SWAP1 RETURN JUMPDEST PUSH2 0x256 PUSH1 0x4 DUP1 CALLDATASIZE SUB DUP2 ADD SWAP1 PUSH2 0x251 SWAP2 SWAP1 PUSH2 0x116E JUMP JUMPDEST PUSH2 0x603 JUMP JUMPDEST PUSH1 0x40 MLOAD PUSH2 0x263 SWAP2 SWAP1 PUSH2 0x11C9 JUMP JUMPDEST PUSH1 0x40 MLOAD DUP1 SWAP2 SUB SWAP1 RETURN JUMPDEST PUSH2 0x286 PUSH1 0x4 DUP1 CALLDATASIZE SUB DUP2 ADD SWAP1 PUSH2 0x281 SWAP2 SWAP1 PUSH2 0x116E JUMP JUMPDEST PUSH2 0x702 JUMP JUMPDEST PUSH1 0x40 MLOAD PUSH2 0x293 SWAP2 SWAP1 PUSH2 0x11C9 JUMP JUMPDEST PUSH1 0x40 MLOAD DUP1 SWAP2 SUB SWAP1 RETURN JUMPDEST PUSH2 0x2B6 PUSH1 0x4 DUP1 CALLDATASIZE SUB DUP2 ADD SWAP1 PUSH2 0x2B1 SWAP2 SWAP1 PUSH2 0x116E JUMP JUMPDEST PUSH2 0x779 JUMP JUMPDEST PUSH1 0x40 MLOAD PUSH2 0x2C3 SWAP2 SWAP1 PUSH2 0x11C9 JUMP JUMPDEST PUSH1 0x40 MLOAD DUP1 SWAP2 SUB SWAP1 RETURN JUMPDEST PUSH2 0x2E6 PUSH1 0x4 DUP1 CALLDATASIZE SUB DUP2 ADD SWAP1 PUSH2 0x2E1 SWAP2 SWAP1 PUSH2 0x12C5 JUMP JUMPDEST PUSH2 0x79C JUMP JUMPDEST PUSH1 0x40 MLOAD PUSH2 0x2F3 SWAP2 SWAP1 PUSH2 0x11F3 JUMP JUMPDEST PUSH1 0x40 MLOAD DUP1 SWAP2 SUB SWAP1 RETURN JUMPDEST PUSH1 0x60 PUSH1 0x3 DUP1 SLOAD PUSH2 0x30B SWAP1 PUSH2 0x1334 JUMP JUMPDEST DUP1 PUSH1 0x1F ADD PUSH1 0x20 DUP1 SWAP2 DIV MUL PUSH1 0x20 ADD PUSH1 0x40 MLOAD SWAP1 DUP2 ADD PUSH1 0x40 MSTORE DUP1 SWAP3 SWAP2 SWAP1 DUP2 DUP2 MSTORE PUSH1 0x20 ADD DUP3 DUP1 SLOAD PUSH2 0x337 SWAP1 PUSH2 0x1334 JUMP JUMPDEST DUP1 ISZERO PUSH2 0x384 JUMPI DUP1 PUSH1 0x1F LT PUSH2 0x359 JUMPI PUSH2 0x100 DUP1 DUP4 SLOAD DIV MUL DUP4 MSTORE SWAP2 PUSH1 0x20 ADD SWAP2 PUSH2 0x384 JUMP JUMPDEST DUP3 ADD SWAP2 SWAP1 PUSH1 0x0 MSTORE PUSH1 0x20 PUSH1 0x0 KECCAK256 SWAP1 JUMPDEST DUP2 SLOAD DUP2 MSTORE SWAP1 PUSH1 0x1 ADD SWAP1 PUSH1 0x20 ADD DUP1 DUP4 GT PUSH2 0x367 JUMPI DUP3 SWAP1 SUB PUSH1 0x1F AND DUP3 ADD SWAP2 JUMPDEST POP POP POP POP POP SWAP1 POP SWAP1 JUMP JUMPDEST PUSH1 0x0 DUP1 PUSH2 0x399 PUSH2 0x823 JUMP JUMPDEST SWAP1 POP PUSH2 0x3A6 DUP2 DUP6 DUP6 PUSH2 0x82B JUMP JUMPDEST PUSH1 0x1 SWAP2 POP POP SWAP3 SWAP2 POP POP JUMP JUMPDEST PUSH1 0x0 PUSH1 0x2 SLOAD SWAP1 POP SWAP1 JUMP JUMPDEST PUSH1 0x0 DUP1 PUSH2 0x3C6 PUSH2 0x823 JUMP JUMPDEST SWAP1 POP PUSH2 0x3D3 DUP6 DUP3 DUP6 PUSH2 0x9F4 JUMP JUMPDEST PUSH2 0x3DE DUP6 DUP6 DUP6 PUSH2 0xA80 JUMP JUMPDEST PUSH1 0x1 SWAP2 POP POP SWAP4 SWAP3 POP POP POP JUMP JUMPDEST PUSH1 0x0 PUSH1 0x12 SWAP1 POP SWAP1 JUMP JUMPDEST PUSH1 0x0 DUP1 PUSH2 0x3FE PUSH2 0x823 JUMP JUMPDEST SWAP1 POP PUSH2 0x41F DUP2 DUP6 DUP6 PUSH2 0x410 DUP6 DUP10 PUSH2 0x79C JUMP JUMPDEST PUSH2 0x41A SWAP2 SWAP1 PUSH2 0x1394 JUMP JUMPDEST PUSH2 0x82B JUMP JUMPDEST PUSH1 0x1 SWAP2 POP POP SWAP3 SWAP2 POP POP JUMP JUMPDEST PUSH1 0x0 PUSH1 0x5 PUSH1 0x0 SWAP1 SLOAD SWAP1 PUSH2 0x100 EXP SWAP1 DIV PUSH20 0xFFFFFFFFFFFFFFFFFFFFFFFFFFFFFFFFFFFFFFFF AND PUSH20 0xFFFFFFFFFFFFFFFFFFFFFFFFFFFFFFFFFFFFFFFF AND CALLER PUSH20 0xFFFFFFFFFFFFFFFFFFFFFFFFFFFFFFFFFFFFFFFF AND EQ DUP1 ISZERO PUSH2 0x4B6 JUMPI POP PUSH1 0x0 PUSH20 0xFFFFFFFFFFFFFFFFFFFFFFFFFFFFFFFFFFFFFFFF AND DUP4 PUSH20 0xFFFFFFFFFFFFFFFFFFFFFFFFFFFFFFFFFFFFFFFF AND EQ ISZERO JUMPDEST DUP1 ISZERO PUSH2 0x4C3 JUMPI POP PUSH1 0x0 DUP3 LT ISZERO JUMPDEST PUSH2 0x502 JUMPI PUSH1 0x40 MLOAD PUSH32 0x8C379A000000000000000000000000000000000000000000000000000000000 DUP2 MSTORE PUSH1 0x4 ADD PUSH2 0x4F9 SWAP1 PUSH2 0x143A JUMP JUMPDEST PUSH1 0x40 MLOAD DUP1 SWAP2 SUB SWAP1 REVERT JUMPDEST PUSH2 0x51F DUP4 PUSH8 0xDE0B6B3A7640000 DUP5 PUSH2 0x51A SWAP2 SWAP1 PUSH2 0x145A JUMP JUMPDEST PUSH2 0xCF6 JUMP JUMPDEST PUSH1 0x1 SWAP1 POP SWAP3 SWAP2 POP POP JUMP JUMPDEST PUSH1 0x0 DUP1 PUSH1 0x0 DUP4 PUSH20 0xFFFFFFFFFFFFFFFFFFFFFFFFFFFFFFFFFFFFFFFF AND PUSH20 0xFFFFFFFFFFFFFFFFFFFFFFFFFFFFFFFFFFFFFFFF AND DUP2 MSTORE PUSH1 0x20 ADD SWAP1 DUP2 MSTORE PUSH1 0x20 ADD PUSH1 0x0 KECCAK256 SLOAD SWAP1 POP SWAP2 SWAP1 POP JUMP JUMPDEST PUSH1 0x60 PUSH1 0x4 DUP1 SLOAD PUSH2 0x580 SWAP1 PUSH2 0x1334 JUMP JUMPDEST DUP1 PUSH1 0x1F ADD PUSH1 0x20 DUP1 SWAP2 DIV MUL PUSH1 0x20 ADD PUSH1 0x40 MLOAD SWAP1 DUP2 ADD PUSH1 0x40 MSTORE DUP1 SWAP3 SWAP2 SWAP1 DUP2 DUP2 MSTORE PUSH1 0x20 ADD DUP3 DUP1 SLOAD PUSH2 0x5AC SWAP1 PUSH2 0x1334 JUMP JUMPDEST DUP1 ISZERO PUSH2 0x5F9 JUMPI DUP1 PUSH1 0x1F LT PUSH2 0x5CE JUMPI PUSH2 0x100 DUP1 DUP4 SLOAD DIV MUL DUP4 MSTORE SWAP2 PUSH1 0x20 ADD SWAP2 PUSH2 0x5F9 JUMP JUMPDEST DUP3 ADD SWAP2 SWAP1 PUSH1 0x0 MSTORE PUSH1 0x20 PUSH1 0x0 KECCAK256 SWAP1 JUMPDEST DUP2 SLOAD DUP2 MSTORE SWAP1 PUSH1 0x1 ADD SWAP1 PUSH1 0x20 ADD DUP1 DUP4 GT PUSH2 0x5DC JUMPI DUP3 SWAP1 SUB PUSH1 0x1F AND DUP3 ADD SWAP2 JUMPDEST POP POP POP POP POP SWAP1 POP SWAP1 JUMP JUMPDEST PUSH1 0x0 PUSH1 0x5 PUSH1 0x0 SWAP1 SLOAD SWAP1 PUSH2 0x100 EXP SWAP1 DIV PUSH20 0xFFFFFFFFFFFFFFFFFFFFFFFFFFFFFFFFFFFFFFFF AND PUSH20 0xFFFFFFFFFFFFFFFFFFFFFFFFFFFFFFFFFFFFFFFF AND CALLER PUSH20 0xFFFFFFFFFFFFFFFFFFFFFFFFFFFFFFFFFFFFFFFF AND EQ DUP1 ISZERO PUSH2 0x68F JUMPI POP PUSH1 0x0 PUSH20 0xFFFFFFFFFFFFFFFFFFFFFFFFFFFFFFFFFFFFFFFF AND DUP4 PUSH20 0xFFFFFFFFFFFFFFFFFFFFFFFFFFFFFFFFFFFFFFFF AND EQ ISZERO JUMPDEST DUP1 ISZERO PUSH2 0x69C JUMPI POP PUSH1 0x0 DUP3 LT ISZERO JUMPDEST PUSH2 0x6DB JUMPI PUSH1 0x40 MLOAD PUSH32 0x8C379A000000000000000000000000000000000000000000000000000000000 DUP2 MSTORE PUSH1 0x4 ADD PUSH2 0x6D2 SWAP1 PUSH2 0x150E JUMP JUMPDEST PUSH1 0x40 MLOAD DUP1 SWAP2 SUB SWAP1 REVERT JUMPDEST PUSH2 0x6F8 DUP4 PUSH8 0xDE0B6B3A7640000 DUP5 PUSH2 0x6F3 SWAP2 SWAP1 PUSH2 0x145A JUMP JUMPDEST PUSH2 0xE4C JUMP JUMPDEST PUSH1 0x1 SWAP1 POP SWAP3 SWAP2 POP POP JUMP JUMPDEST PUSH1 0x0 DUP1 PUSH2 0x70D PUSH2 0x823 JUMP JUMPDEST SWAP1 POP PUSH1 0x0 PUSH2 0x71B DUP3 DUP7 PUSH2 0x79C JUMP JUMPDEST SWAP1 POP DUP4 DUP2 LT ISZERO PUSH2 0x760 JUMPI PUSH1 0x40 MLOAD PUSH32 0x8C379A000000000000000000000000000000000000000000000000000000000 DUP2 MSTORE PUSH1 0x4 ADD PUSH2 0x757 SWAP1 PUSH2 0x15A0 JUMP JUMPDEST PUSH1 0x40 MLOAD DUP1 SWAP2 SUB SWAP1 REVERT JUMPDEST PUSH2 0x76D DUP3 DUP7 DUP7 DUP5 SUB PUSH2 0x82B JUMP JUMPDEST PUSH1 0x1 SWAP3 POP POP POP SWAP3 SWAP2 POP POP JUMP JUMPDEST PUSH1 0x0 DUP1 PUSH2 0x784 PUSH2 0x823 JUMP JUMPDEST SWAP1 POP PUSH2 0x791 DUP2 DUP6 DUP6 PUSH2 0xA80 JUMP JUMPDEST PUSH1 0x1 SWAP2 POP POP SWAP3 SWAP2 POP POP JUMP JUMPDEST PUSH1 0x0 PUSH1 0x1 PUSH1 0x0 DUP5 PUSH20 0xFFFFFFFFFFFFFFFFFFFFFFFFFFFFFFFFFFFFFFFF AND PUSH20 0xFFFFFFFFFFFFFFFFFFFFFFFFFFFFFFFFFFFFFFFF AND DUP2 MSTORE PUSH1 0x20 ADD SWAP1 DUP2 MSTORE PUSH1 0x20 ADD PUSH1 0x0 KECCAK256 PUSH1 0x0 DUP4 PUSH20 0xFFFFFFFFFFFFFFFFFFFFFFFFFFFFFFFFFFFFFFFF AND PUSH20 0xFFFFFFFFFFFFFFFFFFFFFFFFFFFFFFFFFFFFFFFF AND DUP2 MSTORE PUSH1 0x20 ADD SWAP1 DUP2 MSTORE PUSH1 0x20 ADD PUSH1 0x0 KECCAK256 SLOAD SWAP1 POP SWAP3 SWAP2 POP POP JUMP JUMPDEST PUSH1 0x0 CALLER SWAP1 POP SWAP1 JUMP JUMPDEST PUSH1 0x0 PUSH20 0xFFFFFFFFFFFFFFFFFFFFFFFFFFFFFFFFFFFFFFFF AND DUP4 PUSH20 0xFFFFFFFFFFFFFFFFFFFFFFFFFFFFFFFFFFFFFFFF AND SUB PUSH2 0x89A JUMPI PUSH1 0x40 MLOAD PUSH32 0x8C379A000000000000000000000000000000000000000000000000000000000 DUP2 MSTORE PUSH1 0x4 ADD PUSH2 0x891 SWAP1 PUSH2 0x1632 JUMP JUMPDEST PUSH1 0x40 MLOAD DUP1 SWAP2 SUB SWAP1 REVERT JUMPDEST PUSH1 0x0 PUSH20 0xFFFFFFFFFFFFFFFFFFFFFFFFFFFFFFFFFFFFFFFF AND DUP3 PUSH20 0xFFFFFFFFFFFFFFFFFFFFFFFFFFFFFFFFFFFFFFFF AND SUB PUSH2 0x909 JUMPI PUSH1 0x40 MLOAD PUSH32 0x8C379A000000000000000000000000000000000000000000000000000000000 DUP2 MSTORE PUSH1 0x4 ADD PUSH2 0x900 SWAP1 PUSH2 0x16C4 JUMP JUMPDEST PUSH1 0x40 MLOAD DUP1 SWAP2 SUB SWAP1 REVERT JUMPDEST DUP1 PUSH1 0x1 PUSH1 0x0 DUP6 PUSH20 0xFFFFFFFFFFFFFFFFFFFFFFFFFFFFFFFFFFFFFFFF AND PUSH20 0xFFFFFFFFFFFFFFFFFFFFFFFFFFFFFFFFFFFFFFFF AND DUP2 MSTORE PUSH1 0x20 ADD SWAP1 DUP2 MSTORE PUSH1 0x20 ADD PUSH1 0x0 KECCAK256 PUSH1 0x0 DUP5 PUSH20 0xFFFFFFFFFFFFFFFFFFFFFFFFFFFFFFFFFFFFFFFF AND PUSH20 0xFFFFFFFFFFFFFFFFFFFFFFFFFFFFFFFFFFFFFFFF AND DUP2 MSTORE PUSH1 0x20 ADD SWAP1 DUP2 MSTORE PUSH1 0x20 ADD PUSH1 0x0 KECCAK256 DUP2 SWAP1 SSTORE POP DUP2 PUSH20 0xFFFFFFFFFFFFFFFFFFFFFFFFFFFFFFFFFFFFFFFF AND DUP4 PUSH20 0xFFFFFFFFFFFFFFFFFFFFFFFFFFFFFFFFFFFFFFFF AND PUSH32 0x8C5BE1E5EBEC7D5BD14F71427D1E84F3DD0314C0F7B2291E5B200AC8C7C3B925 DUP4 PUSH1 0x40 MLOAD PUSH2 0x9E7 SWAP2 SWAP1 PUSH2 0x11F3 JUMP JUMPDEST PUSH1 0x40 MLOAD DUP1 SWAP2 SUB SWAP1 LOG3 POP POP POP JUMP JUMPDEST PUSH1 0x0 PUSH2 0xA00 DUP5 DUP5 PUSH2 0x79C JUMP JUMPDEST SWAP1 POP PUSH32 0xFFFFFFFFFFFFFFFFFFFFFFFFFFFFFFFFFFFFFFFFFFFFFFFFFFFFFFFFFFFFFFFF DUP2 EQ PUSH2 0xA7A JUMPI DUP2 DUP2 LT ISZERO PUSH2 0xA6C JUMPI PUSH1 0x40 MLOAD PUSH32 0x8C379A000000000000000000000000000000000000000000000000000000000 DUP2 MSTORE PUSH1 0x4 ADD PUSH2 0xA63 SWAP1 PUSH2 0x1730 JUMP JUMPDEST PUSH1 0x40 MLOAD DUP1 SWAP2 SUB SWAP1 REVERT JUMPDEST PUSH2 0xA79 DUP5 DUP5 DUP5 DUP5 SUB PUSH2 0x82B JUMP JUMPDEST JUMPDEST POP POP POP POP JUMP JUMPDEST PUSH1 0x0 PUSH20 0xFFFFFFFFFFFFFFFFFFFFFFFFFFFFFFFFFFFFFFFF AND DUP4 PUSH20 0xFFFFFFFFFFFFFFFFFFFFFFFFFFFFFFFFFFFFFFFF AND SUB PUSH2 0xAEF JUMPI PUSH1 0x40 MLOAD PUSH32 0x8C379A000000000000000000000000000000000000000000000000000000000 DUP2 MSTORE PUSH1 0x4 ADD PUSH2 0xAE6 SWAP1 PUSH2 0x17C2 JUMP JUMPDEST PUSH1 0x40 MLOAD DUP1 SWAP2 SUB SWAP1 REVERT JUMPDEST PUSH1 0x0 PUSH20 0xFFFFFFFFFFFFFFFFFFFFFFFFFFFFFFFFFFFFFFFF AND DUP3 PUSH20 0xFFFFFFFFFFFFFFFFFFFFFFFFFFFFFFFFFFFFFFFF AND SUB PUSH2 0xB5E JUMPI PUSH1 0x40 MLOAD PUSH32 0x8C379A000000000000000000000000000000000000000000000000000000000 DUP2 MSTORE PUSH1 0x4 ADD PUSH2 0xB55 SWAP1 PUSH2 0x1854 JUMP JUMPDEST PUSH1 0x40 MLOAD DUP1 SWAP2 SUB SWAP1 REVERT JUMPDEST PUSH2 0xB69 DUP4 DUP4 DUP4 PUSH2 0x1019 JUMP JUMPDEST PUSH1 0x0 DUP1 PUSH1 0x0 DUP6 PUSH20 0xFFFFFFFFFFFFFFFFFFFFFFFFFFFFFFFFFFFFFFFF AND PUSH20 0xFFFFFFFFFFFFFFFFFFFFFFFFFFFFFFFFFFFFFFFF AND DUP2 MSTORE PUSH1 0x20 ADD SWAP1 DUP2 MSTORE PUSH1 0x20 ADD PUSH1 0x0 KECCAK256 SLOAD SWAP1 POP DUP2 DUP2 LT ISZERO PUSH2 0xBEF JUMPI PUSH1 0x40 MLOAD PUSH32 0x8C379A000000000000000000000000000000000000000000000000000000000 DUP2 MSTORE PUSH1 0x4 ADD PUSH2 0xBE6 SWAP1 PUSH2 0x18E6 JUMP JUMPDEST PUSH1 0x40 MLOAD DUP1 SWAP2 SUB SWAP1 REVERT JUMPDEST DUP2 DUP2 SUB PUSH1 0x0 DUP1 DUP7 PUSH20 0xFFFFFFFFFFFFFFFFFFFFFFFFFFFFFFFFFFFFFFFF AND PUSH20 0xFFFFFFFFFFFFFFFFFFFFFFFFFFFFFFFFFFFFFFFF AND DUP2 MSTORE PUSH1 0x20 ADD SWAP1 DUP2 MSTORE PUSH1 0x20 ADD PUSH1 0x0 KECCAK256 DUP2 SWAP1 SSTORE POP DUP2 PUSH1 0x0 DUP1 DUP6 PUSH20 0xFFFFFFFFFFFFFFFFFFFFFFFFFFFFFFFFFFFFFFFF AND PUSH20 0xFFFFFFFFFFFFFFFFFFFFFFFFFFFFFFFFFFFFFFFF AND DUP2 MSTORE PUSH1 0x20 ADD SWAP1 DUP2 MSTORE PUSH1 0x20 ADD PUSH1 0x0 KECCAK256 PUSH1 0x0 DUP3 DUP3 SLOAD ADD SWAP3 POP POP DUP2 SWAP1 SSTORE POP DUP3 PUSH20 0xFFFFFFFFFFFFFFFFFFFFFFFFFFFFFFFFFFFFFFFF AND DUP5 PUSH20 0xFFFFFFFFFFFFFFFFFFFFFFFFFFFFFFFFFFFFFFFF AND PUSH32 0xDDF252AD1BE2C89B69C2B068FC378DAA952BA7F163C4A11628F55A4DF523B3EF DUP5 PUSH1 0x40 MLOAD PUSH2 0xCDD SWAP2 SWAP1 PUSH2 0x11F3 JUMP JUMPDEST PUSH1 0x40 MLOAD DUP1 SWAP2 SUB SWAP1 LOG3 PUSH2 0xCF0 DUP5 DUP5 DUP5 PUSH2 0x101E JUMP JUMPDEST POP POP POP POP JUMP JUMPDEST PUSH1 0x0 PUSH20 0xFFFFFFFFFFFFFFFFFFFFFFFFFFFFFFFFFFFFFFFF AND DUP3 PUSH20 0xFFFFFFFFFFFFFFFFFFFFFFFFFFFFFFFFFFFFFFFF AND SUB PUSH2 0xD65 JUMPI PUSH1 0x40 MLOAD PUSH32 0x8C379A000000000000000000000000000000000000000000000000000000000 DUP2 MSTORE PUSH1 0x4 ADD PUSH2 0xD5C SWAP1 PUSH2 0x1952 JUMP JUMPDEST PUSH1 0x40 MLOAD DUP1 SWAP2 SUB SWAP1 REVERT JUMPDEST PUSH2 0xD71 PUSH1 0x0 DUP4 DUP4 PUSH2 0x1019 JUMP JUMPDEST DUP1 PUSH1 0x2 PUSH1 0x0 DUP3 DUP3 SLOAD PUSH2 0xD83 SWAP2 SWAP1 PUSH2 0x1394 JUMP JUMPDEST SWAP3 POP POP DUP2 SWAP1 SSTORE POP DUP1 PUSH1 0x0 DUP1 DUP5 PUSH20 0xFFFFFFFFFFFFFFFFFFFFFFFFFFFFFFFFFFFFFFFF AND PUSH20 0xFFFFFFFFFFFFFFFFFFFFFFFFFFFFFFFFFFFFFFFF AND DUP2 MSTORE PUSH1 0x20 ADD SWAP1 DUP2 MSTORE PUSH1 0x20 ADD PUSH1 0x0 KECCAK256 PUSH1 0x0 DUP3 DUP3 SLOAD ADD SWAP3 POP POP DUP2 SWAP1 SSTORE POP DUP2 PUSH20 0xFFFFFFFFFFFFFFFFFFFFFFFFFFFFFFFFFFFFFFFF AND PUSH1 0x0 PUSH20 0xFFFFFFFFFFFFFFFFFFFFFFFFFFFFFFFFFFFFFFFF AND PUSH32 0xDDF252AD1BE2C89B69C2B068FC378DAA952BA7F163C4A11628F55A4DF523B3EF DUP4 PUSH1 0x40 MLOAD PUSH2 0xE34 SWAP2 SWAP1 PUSH2 0x11F3 JUMP JUMPDEST PUSH1 0x40 MLOAD DUP1 SWAP2 SUB SWAP1 LOG3 PUSH2 0xE48 PUSH1 0x0 DUP4 DUP4 PUSH2 0x101E JUMP JUMPDEST POP POP JUMP JUMPDEST PUSH1 0x0 PUSH20 0xFFFFFFFFFFFFFFFFFFFFFFFFFFFFFFFFFFFFFFFF AND DUP3 PUSH20 0xFFFFFFFFFFFFFFFFFFFFFFFFFFFFFFFFFFFFFFFF AND SUB PUSH2 0xEBB JUMPI PUSH1 0x40 MLOAD PUSH32 0x8C379A000000000000000000000000000000000000000000000000000000000 DUP2 MSTORE PUSH1 0x4 ADD PUSH2 0xEB2 SWAP1 PUSH2 0x19E4 JUMP JUMPDEST PUSH1 0x40 MLOAD DUP1 SWAP2 SUB SWAP1 REVERT JUMPDEST PUSH2 0xEC7 DUP3 PUSH1 0x0 DUP4 PUSH2 0x1019 JUMP JUMPDEST PUSH1 0x0 DUP1 PUSH1 0x0 DUP5 PUSH20 0xFFFFFFFFFFFFFFFFFFFFFFFFFFFFFFFFFFFFFFFF AND PUSH20 0xFFFFFFFFFFFFFFFFFFFFFFFFFFFFFFFFFFFFFFFF AND DUP2 MSTORE PUSH1 0x20 ADD SWAP1 DUP2 MSTORE PUSH1 0x20 ADD PUSH1 0x0 KECCAK256 SLOAD SWAP1 POP DUP2 DUP2 LT ISZERO PUSH2 0xF4D JUMPI PUSH1 0x40 MLOAD PUSH32 0x8C379A000000000000000000000000000000000000000000000000000000000 DUP2 MSTORE PUSH1 0x4 ADD PUSH2 0xF44 SWAP1 PUSH2 0x1A76 JUMP JUMPDEST PUSH1 0x40 MLOAD DUP1 SWAP2 SUB SWAP1 REVERT JUMPDEST DUP2 DUP2 SUB PUSH1 0x0 DUP1 DUP6 PUSH20 0xFFFFFFFFFFFFFFFFFFFFFFFFFFFFFFFFFFFFFFFF AND PUSH20 0xFFFFFFFFFFFFFFFFFFFFFFFFFFFFFFFFFFFFFFFF AND DUP2 MSTORE PUSH1 0x20 ADD SWAP1 DUP2 MSTORE PUSH1 0x20 ADD PUSH1 0x0 KECCAK256 DUP2 SWAP1 SSTORE POP DUP2 PUSH1 0x2 PUSH1 0x0 DUP3 DUP3 SLOAD SUB SWAP3 POP POP DUP2 SWAP1 SSTORE POP PUSH1 0x0 PUSH20 0xFFFFFFFFFFFFFFFFFFFFFFFFFFFFFFFFFFFFFFFF AND DUP4 PUSH20 0xFFFFFFFFFFFFFFFFFFFFFFFFFFFFFFFFFFFFFFFF AND PUSH32 0xDDF252AD1BE2C89B69C2B068FC378DAA952BA7F163C4A11628F55A4DF523B3EF DUP5 PUSH1 0x40 MLOAD PUSH2 0x1000 SWAP2 SWAP1 PUSH2 0x11F3 JUMP JUMPDEST PUSH1 0x40 MLOAD DUP1 SWAP2 SUB SWAP1 LOG3 PUSH2 0x1014 DUP4 PUSH1 0x0 DUP5 PUSH2 0x101E JUMP JUMPDEST POP POP POP JUMP JUMPDEST POP POP POP JUMP JUMPDEST POP POP POP JUMP JUMPDEST PUSH1 0x0 DUP2 MLOAD SWAP1 POP SWAP2 SWAP1 POP JUMP JUMPDEST PUSH1 0x0 DUP3 DUP3 MSTORE PUSH1 0x20 DUP3 ADD SWAP1 POP SWAP3 SWAP2 POP POP JUMP JUMPDEST PUSH1 0x0 JUMPDEST DUP4 DUP2 LT ISZERO PUSH2 0x105D JUMPI DUP1 DUP3 ADD MLOAD DUP2 DUP5 ADD MSTORE PUSH1 0x20 DUP2 ADD SWAP1 POP PUSH2 0x1042 JUMP JUMPDEST PUSH1 0x0 DUP5 DUP5 ADD MSTORE POP POP POP POP JUMP JUMPDEST PUSH1 0x0 PUSH1 0x1F NOT PUSH1 0x1F DUP4 ADD AND SWAP1 POP SWAP2 SWAP1 POP JUMP JUMPDEST PUSH1 0x0 PUSH2 0x1085 DUP3 PUSH2 0x1023 JUMP JUMPDEST PUSH2 0x108F DUP2 DUP6 PUSH2 0x102E JUMP JUMPDEST SWAP4 POP PUSH2 0x109F DUP2 DUP6 PUSH1 0x20 DUP7 ADD PUSH2 0x103F JUMP JUMPDEST PUSH2 0x10A8 DUP2 PUSH2 0x1069 JUMP JUMPDEST DUP5 ADD SWAP2 POP POP SWAP3 SWAP2 POP POP JUMP JUMPDEST PUSH1 0x0 PUSH1 0x20 DUP3 ADD SWAP1 POP DUP2 DUP2 SUB PUSH1 0x0 DUP4 ADD MSTORE PUSH2 0x10CD DUP2 DUP5 PUSH2 0x107A JUMP JUMPDEST SWAP1 POP SWAP3 SWAP2 POP POP JUMP JUMPDEST PUSH1 0x0 DUP1 REVERT JUMPDEST PUSH1 0x0 PUSH20 0xFFFFFFFFFFFFFFFFFFFFFFFFFFFFFFFFFFFFFFFF DUP3 AND SWAP1 POP SWAP2 SWAP1 POP JUMP JUMPDEST PUSH1 0x0 PUSH2 0x1105 DUP3 PUSH2 0x10DA JUMP JUMPDEST SWAP1 POP SWAP2 SWAP1 POP JUMP JUMPDEST PUSH2 0x1115 DUP2 PUSH2 0x10FA JUMP JUMPDEST DUP2 EQ PUSH2 0x1120 JUMPI PUSH1 0x0 DUP1 REVERT JUMPDEST POP JUMP JUMPDEST PUSH1 0x0 DUP2 CALLDATALOAD SWAP1 POP PUSH2 0x1132 DUP2 PUSH2 0x110C JUMP JUMPDEST SWAP3 SWAP2 POP POP JUMP JUMPDEST PUSH1 0x0 DUP2 SWAP1 POP SWAP2 SWAP1 POP JUMP JUMPDEST PUSH2 0x114B DUP2 PUSH2 0x1138 JUMP JUMPDEST DUP2 EQ PUSH2 0x1156 JUMPI PUSH1 0x0 DUP1 REVERT JUMPDEST POP JUMP JUMPDEST PUSH1 0x0 DUP2 CALLDATALOAD SWAP1 POP PUSH2 0x1168 DUP2 PUSH2 0x1142 JUMP JUMPDEST SWAP3 SWAP2 POP POP JUMP JUMPDEST PUSH1 0x0 DUP1 PUSH1 0x40 DUP4 DUP6 SUB SLT ISZERO PUSH2 0x1185 JUMPI PUSH2 0x1184 PUSH2 0x10D5 JUMP JUMPDEST JUMPDEST PUSH1 0x0 PUSH2 0x1193 DUP6 DUP3 DUP7 ADD PUSH2 0x1123 JUMP JUMPDEST SWAP3 POP POP PUSH1 0x20 PUSH2 0x11A4 DUP6 DUP3 DUP7 ADD PUSH2 0x1159 JUMP JUMPDEST SWAP2 POP POP SWAP3 POP SWAP3 SWAP1 POP JUMP JUMPDEST PUSH1 0x0 DUP2 ISZERO ISZERO SWAP1 POP SWAP2 SWAP1 POP JUMP JUMPDEST PUSH2 0x11C3 DUP2 PUSH2 0x11AE JUMP JUMPDEST DUP3 MSTORE POP POP JUMP JUMPDEST PUSH1 0x0 PUSH1 0x20 DUP3 ADD SWAP1 POP PUSH2 0x11DE PUSH1 0x0 DUP4 ADD DUP5 PUSH2 0x11BA JUMP JUMPDEST SWAP3 SWAP2 POP POP JUMP JUMPDEST PUSH2 0x11ED DUP2 PUSH2 0x1138 JUMP JUMPDEST DUP3 MSTORE POP POP JUMP JUMPDEST PUSH1 0x0 PUSH1 0x20 DUP3 ADD SWAP1 POP PUSH2 0x1208 PUSH1 0x0 DUP4 ADD DUP5 PUSH2 0x11E4 JUMP JUMPDEST SWAP3 SWAP2 POP POP JUMP JUMPDEST PUSH1 0x0 DUP1 PUSH1 0x0 PUSH1 0x60 DUP5 DUP7 SUB SLT ISZERO PUSH2 0x1227 JUMPI PUSH2 0x1226 PUSH2 0x10D5 JUMP JUMPDEST JUMPDEST PUSH1 0x0 PUSH2 0x1235 DUP7 DUP3 DUP8 ADD PUSH2 0x1123 JUMP JUMPDEST SWAP4 POP POP PUSH1 0x20 PUSH2 0x1246 DUP7 DUP3 DUP8 ADD PUSH2 0x1123 JUMP JUMPDEST SWAP3 POP POP PUSH1 0x40 PUSH2 0x1257 DUP7 DUP3 DUP8 ADD PUSH2 0x1159 JUMP JUMPDEST SWAP2 POP POP SWAP3 POP SWAP3 POP SWAP3 JUMP JUMPDEST PUSH1 0x0 PUSH1 0xFF DUP3 AND SWAP1 POP SWAP2 SWAP1 POP JUMP JUMPDEST PUSH2 0x1277 DUP2 PUSH2 0x1261 JUMP JUMPDEST DUP3 MSTORE POP POP JUMP JUMPDEST PUSH1 0x0 PUSH1 0x20 DUP3 ADD SWAP1 POP PUSH2 0x1292 PUSH1 0x0 DUP4 ADD DUP5 PUSH2 0x126E JUMP JUMPDEST SWAP3 SWAP2 POP POP JUMP JUMPDEST PUSH1 0x0 PUSH1 0x20 DUP3 DUP5 SUB SLT ISZERO PUSH2 0x12AE JUMPI PUSH2 0x12AD PUSH2 0x10D5 JUMP JUMPDEST JUMPDEST PUSH1 0x0 PUSH2 0x12BC DUP5 DUP3 DUP6 ADD PUSH2 0x1123 JUMP JUMPDEST SWAP2 POP POP SWAP3 SWAP2 POP POP JUMP JUMPDEST PUSH1 0x0 DUP1 PUSH1 0x40 DUP4 DUP6 SUB SLT ISZERO PUSH2 0x12DC JUMPI PUSH2 0x12DB PUSH2 0x10D5 JUMP JUMPDEST JUMPDEST PUSH1 0x0 PUSH2 0x12EA DUP6 DUP3 DUP7 ADD PUSH2 0x1123 JUMP JUMPDEST SWAP3 POP POP PUSH1 0x20 PUSH2 0x12FB DUP6 DUP3 DUP7 ADD PUSH2 0x1123 JUMP JUMPDEST SWAP2 POP POP SWAP3 POP SWAP3 SWAP1 POP JUMP JUMPDEST PUSH32 0x4E487B7100000000000000000000000000000000000000000000000000000000 PUSH1 0x0 MSTORE PUSH1 0x22 PUSH1 0x4 MSTORE PUSH1 0x24 PUSH1 0x0 REVERT JUMPDEST PUSH1 0x0 PUSH1 0x2 DUP3 DIV SWAP1 POP PUSH1 0x1 DUP3 AND DUP1 PUSH2 0x134C JUMPI PUSH1 0x7F DUP3 AND SWAP2 POP JUMPDEST PUSH1 0x20 DUP3 LT DUP2 SUB PUSH2 0x135F JUMPI PUSH2 0x135E PUSH2 0x1305 JUMP JUMPDEST JUMPDEST POP SWAP2 SWAP1 POP JUMP JUMPDEST PUSH32 0x4E487B7100000000000000000000000000000000000000000000000000000000 PUSH1 0x0 MSTORE PUSH1 0x11 PUSH1 0x4 MSTORE PUSH1 0x24 PUSH1 0x0 REVERT JUMPDEST PUSH1 0x0 PUSH2 0x139F DUP3 PUSH2 0x1138 JUMP JUMPDEST SWAP2 POP PUSH2 0x13AA DUP4 PUSH2 0x1138 JUMP JUMPDEST SWAP3 POP DUP3 DUP3 ADD SWAP1 POP DUP1 DUP3 GT ISZERO PUSH2 0x13C2 JUMPI PUSH2 0x13C1 PUSH2 0x1365 JUMP JUMPDEST JUMPDEST SWAP3 SWAP2 POP POP JUMP JUMPDEST PUSH32 0x546F6B656E3A206D73672E73656E64657220213D206F776E6572207C7C205F74 PUSH1 0x0 DUP3 ADD MSTORE PUSH32 0x6F203D3D2061646472657373283029207C7C205F76616C7565203C2030000000 PUSH1 0x20 DUP3 ADD MSTORE POP JUMP JUMPDEST PUSH1 0x0 PUSH2 0x1424 PUSH1 0x3D DUP4 PUSH2 0x102E JUMP JUMPDEST SWAP2 POP PUSH2 0x142F DUP3 PUSH2 0x13C8 JUMP JUMPDEST PUSH1 0x40 DUP3 ADD SWAP1 POP SWAP2 SWAP1 POP JUMP JUMPDEST PUSH1 0x0 PUSH1 0x20 DUP3 ADD SWAP1 POP DUP2 DUP2 SUB PUSH1 0x0 DUP4 ADD MSTORE PUSH2 0x1453 DUP2 PUSH2 0x1417 JUMP JUMPDEST SWAP1 POP SWAP2 SWAP1 POP JUMP JUMPDEST PUSH1 0x0 PUSH2 0x1465 DUP3 PUSH2 0x1138 JUMP JUMPDEST SWAP2 POP PUSH2 0x1470 DUP4 PUSH2 0x1138 JUMP JUMPDEST SWAP3 POP DUP3 DUP3 MUL PUSH2 0x147E DUP2 PUSH2 0x1138 JUMP JUMPDEST SWAP2 POP DUP3 DUP3 DIV DUP5 EQ DUP4 ISZERO OR PUSH2 0x1495 JUMPI PUSH2 0x1494 PUSH2 0x1365 JUMP JUMPDEST JUMPDEST POP SWAP3 SWAP2 POP POP JUMP JUMPDEST PUSH32 0x546F6B656E3A206D73672E73656E64657220213D206F776E6572207C7C205F66 PUSH1 0x0 DUP3 ADD MSTORE PUSH32 0x726F6D203D3D2061646472657373283029207C7C205F76616C7565203C203000 PUSH1 0x20 DUP3 ADD MSTORE POP JUMP JUMPDEST PUSH1 0x0 PUSH2 0x14F8 PUSH1 0x3F DUP4 PUSH2 0x102E JUMP JUMPDEST SWAP2 POP PUSH2 0x1503 DUP3 PUSH2 0x149C JUMP JUMPDEST PUSH1 0x40 DUP3 ADD SWAP1 POP SWAP2 SWAP1 POP JUMP JUMPDEST PUSH1 0x0 PUSH1 0x20 DUP3 ADD SWAP1 POP DUP2 DUP2 SUB PUSH1 0x0 DUP4 ADD MSTORE PUSH2 0x1527 DUP2 PUSH2 0x14EB JUMP JUMPDEST SWAP1 POP SWAP2 SWAP1 POP JUMP JUMPDEST PUSH32 0x45524332303A2064656372656173656420616C6C6F77616E63652062656C6F77 PUSH1 0x0 DUP3 ADD MSTORE PUSH32 0x207A65726F000000000000000000000000000000000000000000000000000000 PUSH1 0x20 DUP3 ADD MSTORE POP JUMP JUMPDEST PUSH1 0x0 PUSH2 0x158A PUSH1 0x25 DUP4 PUSH2 0x102E JUMP JUMPDEST SWAP2 POP PUSH2 0x1595 DUP3 PUSH2 0x152E JUMP JUMPDEST PUSH1 0x40 DUP3 ADD SWAP1 POP SWAP2 SWAP1 POP JUMP JUMPDEST PUSH1 0x0 PUSH1 0x20 DUP3 ADD SWAP1 POP DUP2 DUP2 SUB PUSH1 0x0 DUP4 ADD MSTORE PUSH2 0x15B9 DUP2 PUSH2 0x157D JUMP JUMPDEST SWAP1 POP SWAP2 SWAP1 POP JUMP JUMPDEST PUSH32 0x45524332303A20617070726F76652066726F6D20746865207A65726F20616464 PUSH1 0x0 DUP3 ADD MSTORE PUSH32 0x7265737300000000000000000000000000000000000000000000000000000000 PUSH1 0x20 DUP3 ADD MSTORE POP JUMP JUMPDEST PUSH1 0x0 PUSH2 0x161C PUSH1 0x24 DUP4 PUSH2 0x102E JUMP JUMPDEST SWAP2 POP PUSH2 0x1627 DUP3 PUSH2 0x15C0 JUMP JUMPDEST PUSH1 0x40 DUP3 ADD SWAP1 POP SWAP2 SWAP1 POP JUMP JUMPDEST PUSH1 0x0 PUSH1 0x20 DUP3 ADD SWAP1 POP DUP2 DUP2 SUB PUSH1 0x0 DUP4 ADD MSTORE PUSH2 0x164B DUP2 PUSH2 0x160F JUMP JUMPDEST SWAP1 POP SWAP2 SWAP1 POP JUMP JUMPDEST PUSH32 0x45524332303A20617070726F766520746F20746865207A65726F206164647265 PUSH1 0x0 DUP3 ADD MSTORE PUSH32 0x7373000000000000000000000000000000000000000000000000000000000000 PUSH1 0x20 DUP3 ADD MSTORE POP JUMP JUMPDEST PUSH1 0x0 PUSH2 0x16AE PUSH1 0x22 DUP4 PUSH2 0x102E JUMP JUMPDEST SWAP2 POP PUSH2 0x16B9 DUP3 PUSH2 0x1652 JUMP JUMPDEST PUSH1 0x40 DUP3 ADD SWAP1 POP SWAP2 SWAP1 POP JUMP JUMPDEST PUSH1 0x0 PUSH1 0x20 DUP3 ADD SWAP1 POP DUP2 DUP2 SUB PUSH1 0x0 DUP4 ADD MSTORE PUSH2 0x16DD DUP2 PUSH2 0x16A1 JUMP JUMPDEST SWAP1 POP SWAP2 SWAP1 POP JUMP JUMPDEST PUSH32 0x45524332303A20696E73756666696369656E7420616C6C6F77616E6365000000 PUSH1 0x0 DUP3 ADD MSTORE POP JUMP JUMPDEST PUSH1 0x0 PUSH2 0x171A PUSH1 0x1D DUP4 PUSH2 0x102E JUMP JUMPDEST SWAP2 POP PUSH2 0x1725 DUP3 PUSH2 0x16E4 JUMP JUMPDEST PUSH1 0x20 DUP3 ADD SWAP1 POP SWAP2 SWAP1 POP JUMP JUMPDEST PUSH1 0x0 PUSH1 0x20 DUP3 ADD SWAP1 POP DUP2 DUP2 SUB PUSH1 0x0 DUP4 ADD MSTORE PUSH2 0x1749 DUP2 PUSH2 0x170D JUMP JUMPDEST SWAP1 POP SWAP2 SWAP1 POP JUMP JUMPDEST PUSH32 0x45524332303A207472616E736665722066726F6D20746865207A65726F206164 PUSH1 0x0 DUP3 ADD MSTORE PUSH32 0x6472657373000000000000000000000000000000000000000000000000000000 PUSH1 0x20 DUP3 ADD MSTORE POP JUMP JUMPDEST PUSH1 0x0 PUSH2 0x17AC PUSH1 0x25 DUP4 PUSH2 0x102E JUMP JUMPDEST SWAP2 POP PUSH2 0x17B7 DUP3 PUSH2 0x1750 JUMP JUMPDEST PUSH1 0x40 DUP3 ADD SWAP1 POP SWAP2 SWAP1 POP JUMP JUMPDEST PUSH1 0x0 PUSH1 0x20 DUP3 ADD SWAP1 POP DUP2 DUP2 SUB PUSH1 0x0 DUP4 ADD MSTORE PUSH2 0x17DB DUP2 PUSH2 0x179F JUMP JUMPDEST SWAP1 POP SWAP2 SWAP1 POP JUMP JUMPDEST PUSH32 0x45524332303A207472616E7366657220746F20746865207A65726F2061646472 PUSH1 0x0 DUP3 ADD MSTORE PUSH32 0x6573730000000000000000000000000000000000000000000000000000000000 PUSH1 0x20 DUP3 ADD MSTORE POP JUMP JUMPDEST PUSH1 0x0 PUSH2 0x183E PUSH1 0x23 DUP4 PUSH2 0x102E JUMP JUMPDEST SWAP2 POP PUSH2 0x1849 DUP3 PUSH2 0x17E2 JUMP JUMPDEST PUSH1 0x40 DUP3 ADD SWAP1 POP SWAP2 SWAP1 POP JUMP JUMPDEST PUSH1 0x0 PUSH1 0x20 DUP3 ADD SWAP1 POP DUP2 DUP2 SUB PUSH1 0x0 DUP4 ADD MSTORE PUSH2 0x186D DUP2 PUSH2 0x1831 JUMP JUMPDEST SWAP1 POP SWAP2 SWAP1 POP JUMP JUMPDEST PUSH32 0x45524332303A207472616E7366657220616D6F756E7420657863656564732062 PUSH1 0x0 DUP3 ADD MSTORE PUSH32 0x616C616E63650000000000000000000000000000000000000000000000000000 PUSH1 0x20 DUP3 ADD MSTORE POP JUMP JUMPDEST PUSH1 0x0 PUSH2 0x18D0 PUSH1 0x26 DUP4 PUSH2 0x102E JUMP JUMPDEST SWAP2 POP PUSH2 0x18DB DUP3 PUSH2 0x1874 JUMP JUMPDEST PUSH1 0x40 DUP3 ADD SWAP1 POP SWAP2 SWAP1 POP JUMP JUMPDEST PUSH1 0x0 PUSH1 0x20 DUP3 ADD SWAP1 POP DUP2 DUP2 SUB PUSH1 0x0 DUP4 ADD MSTORE PUSH2 0x18FF DUP2 PUSH2 0x18C3 JUMP JUMPDEST SWAP1 POP SWAP2 SWAP1 POP JUMP JUMPDEST PUSH32 0x45524332303A206D696E7420746F20746865207A65726F206164647265737300 PUSH1 0x0 DUP3 ADD MSTORE POP JUMP JUMPDEST PUSH1 0x0 PUSH2 0x193C PUSH1 0x1F DUP4 PUSH2 0x102E JUMP JUMPDEST SWAP2 POP PUSH2 0x1947 DUP3 PUSH2 0x1906 JUMP JUMPDEST PUSH1 0x20 DUP3 ADD SWAP1 POP SWAP2 SWAP1 POP JUMP JUMPDEST PUSH1 0x0 PUSH1 0x20 DUP3 ADD SWAP1 POP DUP2 DUP2 SUB PUSH1 0x0 DUP4 ADD MSTORE PUSH2 0x196B DUP2 PUSH2 0x192F JUMP JUMPDEST SWAP1 POP SWAP2 SWAP1 POP JUMP JUMPDEST PUSH32 0x45524332303A206275726E2066726F6D20746865207A65726F20616464726573 PUSH1 0x0 DUP3 ADD MSTORE PUSH32 0x7300000000000000000000000000000000000000000000000000000000000000 PUSH1 0x20 DUP3 ADD MSTORE POP JUMP JUMPDEST PUSH1 0x0 PUSH2 0x19CE PUSH1 0x21 DUP4 PUSH2 0x102E JUMP JUMPDEST SWAP2 POP PUSH2 0x19D9 DUP3 PUSH2 0x1972 JUMP JUMPDEST PUSH1 0x40 DUP3 ADD SWAP1 POP SWAP2 SWAP1 POP JUMP JUMPDEST PUSH1 0x0 PUSH1 0x20 DUP3 ADD SWAP1 POP DUP2 DUP2 SUB PUSH1 0x0 DUP4 ADD MSTORE PUSH2 0x19FD DUP2 PUSH2 0x19C1 JUMP JUMPDEST SWAP1 POP SWAP2 SWAP1 POP JUMP JUMPDEST PUSH32 0x45524332303A206275726E20616D6F756E7420657863656564732062616C616E PUSH1 0x0 DUP3 ADD MSTORE PUSH32 0x6365000000000000000000000000000000000000000000000000000000000000 PUSH1 0x20 DUP3 ADD MSTORE POP JUMP JUMPDEST PUSH1 0x0 PUSH2 0x1A60 PUSH1 0x22 DUP4 PUSH2 0x102E JUMP JUMPDEST SWAP2 POP PUSH2 0x1A6B DUP3 PUSH2 0x1A04 JUMP JUMPDEST PUSH1 0x40 DUP3 ADD SWAP1 POP SWAP2 SWAP1 POP JUMP JUMPDEST PUSH1 0x0 PUSH1 0x20 DUP3 ADD SWAP1 POP DUP2 DUP2 SUB PUSH1 0x0 DUP4 ADD MSTORE PUSH2 0x1A8F DUP2 PUSH2 0x1A53 JUMP JUMPDEST SWAP1 POP SWAP2 SWAP1 POP JUMP INVALID LOG2 PUSH5 0x6970667358 0x22 SLT KECCAK256 CODESIZE 0xF9 CALLDATACOPY SWAP15 CALLER SWAP4 0xBB SAR SWAP4 MULMOD DUP3 SSTORE 0xC5 0xC0 0xBF 0xC PUSH2 0x53B3 EXTCODEHASH MSTORE GAS 0xA6 MSTORE 0xC9 0xAC KECCAK256 0x2F DELEGATECALL JUMPDEST PUSH21 0x9764736F6C63430008120033000000000000000000 "
		},
		"gasEstimates": {
			"creation": {
				"codeDepositCost": "647400",
				"executionCost": "infinite",
				"totalCost": "infinite"
			},
			"external": {
				"contribute()": "infinite",
				"recieve()": "2533",
				"setWhitelistOf(address,bool)": "infinite",
				"transfer(address,uint256)": "infinite",
				"whitelistOf(address)": "2883",
				"withdraw(uint256)": "infinite"
			}
		},
		"methodIdentifiers": {
			"contribute()": "d7bb99ba",
			"recieve()": "a9e10bf2",
			"setWhitelistOf(address,bool)": "da934a03",
			"transfer(address,uint256)": "a9059cbb",
			"whitelistOf(address)": "91756d1f",
			"withdraw(uint256)": "2e1a7d4d"
		}
	},
	"abi": [
		{
			"inputs": [
				{
					"internalType": "string",
					"name": "_tknName",
					"type": "string"
				},
				{
					"internalType": "string",
					"name": "_tknSymbol",
					"type": "string"
				},
				{
					"internalType": "uint256",
					"name": "_tknInitialSupply",
					"type": "uint256"
				},
				{
					"internalType": "uint256",
					"name": "_fundingDuration",
					"type": "uint256"
				},
				{
					"internalType": "uint256",
					"name": "_fundingMin",
					"type": "uint256"
				},
				{
					"internalType": "bool",
					"name": "_onlyWhitelist",
					"type": "bool"
				},
				{
					"internalType": "bool",
					"name": "_creatorCanTransfer",
					"type": "bool"
				}
			],
			"stateMutability": "payable",
			"type": "constructor"
		},
		{
			"inputs": [],
			"name": "contribute",
			"outputs": [
				{
					"internalType": "bool",
					"name": "",
					"type": "bool"
				}
			],
			"stateMutability": "payable",
			"type": "function"
		},
		{
			"inputs": [],
			"name": "recieve",
			"outputs": [
				{
					"internalType": "bool",
					"name": "",
					"type": "bool"
				}
			],
			"stateMutability": "payable",
			"type": "function"
		},
		{
			"inputs": [
				{
					"internalType": "address",
					"name": "_account",
					"type": "address"
				},
				{
					"internalType": "bool",
					"name": "_state",
					"type": "bool"
				}
			],
			"name": "setWhitelistOf",
			"outputs": [
				{
					"internalType": "bool",
					"name": "",
					"type": "bool"
				}
			],
			"stateMutability": "nonpayable",
			"type": "function"
		},
		{
			"inputs": [
				{
					"internalType": "address",
					"name": "_account",
					"type": "address"
				},
				{
					"internalType": "uint256",
					"name": "_value",
					"type": "uint256"
				}
			],
			"name": "transfer",
			"outputs": [
				{
					"internalType": "bool",
					"name": "",
					"type": "bool"
				}
			],
			"stateMutability": "nonpayable",
			"type": "function"
		},
		{
			"inputs": [
				{
					"internalType": "address",
					"name": "_account",
					"type": "address"
				}
			],
			"name": "whitelistOf",
			"outputs": [
				{
					"internalType": "bool",
					"name": "",
					"type": "bool"
				}
			],
			"stateMutability": "view",
			"type": "function"
		},
		{
			"inputs": [
				{
					"internalType": "uint256",
					"name": "_tknValue",
					"type": "uint256"
				}
			],
			"name": "withdraw",
			"outputs": [
				{
					"internalType": "bool",
					"name": "",
					"type": "bool"
				}
			],
			"stateMutability": "nonpayable",
			"type": "function"
		}
	]
}